{
  "_format": "hh-sol-artifact-1",
  "contractName": "RandomHbbftMock",
  "sourceName": "contracts/mockContracts/RandomHbbftMock.sol",
  "abi": [
    {
      "inputs": [],
      "name": "currentSeed",
      "outputs": [
        {
          "internalType": "uint256",
          "name": "",
          "type": "uint256"
        }
      ],
      "stateMutability": "view",
      "type": "function"
    },
    {
      "inputs": [
        {
          "internalType": "uint256",
          "name": "_blocknumber",
          "type": "uint256"
        }
      ],
      "name": "getSeedHistoric",
      "outputs": [
        {
          "internalType": "uint256",
          "name": "",
          "type": "uint256"
        }
      ],
      "stateMutability": "view",
      "type": "function"
    },
    {
      "inputs": [
        {
          "internalType": "uint256[]",
          "name": "_blocknumbers",
          "type": "uint256[]"
        }
      ],
      "name": "getSeedsHistoric",
      "outputs": [
        {
          "internalType": "uint256[]",
          "name": "",
          "type": "uint256[]"
        }
      ],
      "stateMutability": "view",
      "type": "function"
    },
    {
      "inputs": [
        {
          "internalType": "address",
          "name": "_validatorSet",
          "type": "address"
        }
      ],
      "name": "initialize",
      "outputs": [],
      "stateMutability": "nonpayable",
      "type": "function"
    },
    {
      "inputs": [],
      "name": "isFullHealth",
      "outputs": [
        {
          "internalType": "bool",
          "name": "",
          "type": "bool"
        }
      ],
      "stateMutability": "view",
      "type": "function"
    },
    {
      "inputs": [
        {
          "internalType": "uint256",
          "name": "_blocknumber",
          "type": "uint256"
        }
      ],
      "name": "isFullHealthHistoric",
      "outputs": [
        {
          "internalType": "bool",
          "name": "",
          "type": "bool"
        }
      ],
      "stateMutability": "view",
      "type": "function"
    },
    {
      "inputs": [
        {
          "internalType": "uint256[]",
          "name": "_blocknumbers",
          "type": "uint256[]"
        }
      ],
      "name": "isFullHealthsHistoric",
      "outputs": [
        {
          "internalType": "bool[]",
          "name": "",
          "type": "bool[]"
        }
      ],
      "stateMutability": "view",
      "type": "function"
    },
    {
      "inputs": [],
      "name": "isInitialized",
      "outputs": [
        {
          "internalType": "bool",
          "name": "",
          "type": "bool"
        }
      ],
      "stateMutability": "view",
      "type": "function"
    },
    {
      "inputs": [
        {
          "internalType": "address",
          "name": "_base",
          "type": "address"
        }
      ],
      "name": "setCoinbase",
      "outputs": [],
      "stateMutability": "nonpayable",
      "type": "function"
    },
    {
      "inputs": [
        {
          "internalType": "uint256",
          "name": "_currentSeed",
          "type": "uint256"
        }
      ],
      "name": "setCurrentSeed",
      "outputs": [],
      "stateMutability": "nonpayable",
      "type": "function"
    },
    {
      "inputs": [
        {
          "internalType": "address",
          "name": "_address",
          "type": "address"
        }
      ],
      "name": "setSystemAddress",
      "outputs": [],
      "stateMutability": "nonpayable",
      "type": "function"
    },
    {
      "inputs": [],
      "name": "validatorSetContract",
      "outputs": [
        {
          "internalType": "contract IValidatorSetHbbft",
          "name": "",
          "type": "address"
        }
      ],
      "stateMutability": "view",
      "type": "function"
    }
  ],
  "bytecode": "0x608060405234801561001057600080fd5b5061094b806100206000396000f3fe608060405234801561001057600080fd5b50600436106100d45760003560e01c8063919cc19c11610081578063d9ba8eef1161005b578063d9ba8eef14610220578063dfc8bf4e14610240578063e45006d61461026b57600080fd5b8063919cc19c146101f2578063a49904e514610205578063c4d66de81461020d57600080fd5b806330842eeb116100b257806330842eeb14610188578063392e53cd146101ca57806383220626146101dd57600080fd5b8063015e2315146100d9578063062101971461010c5780631da420cd1461014b575b600080fd5b6100f96100e7366004610764565b60009081526001602052604090205490565b6040519081526020015b60405180910390f35b61014961011a36600461077d565b6005805473ffffffffffffffffffffffffffffffffffffffff19166001600160a01b0392909216919091179055565b005b61014961015936600461077d565b6004805473ffffffffffffffffffffffffffffffffffffffff19166001600160a01b0392909216919091179055565b6101ba610196366004610764565b600881901c600090815260026020526040902054600160ff9092169190911b161590565b6040519015158152602001610103565b6003546001600160a01b031615156101ba565b436000908152600160205260409020546100f9565b610149610200366004610764565b61028b565b6101ba610350565b61014961021b36600461077d565b6103c3565b61023361022e3660046107ad565b6105d3565b6040516101039190610822565b600354610253906001600160a01b031681565b6040516001600160a01b039091168152602001610103565b61027e6102793660046107ad565b61068c565b6040516101039190610866565b6005546001600160a01b031633146102a257600080fd5b43600090815260016020908152604091829020839055600354825163a49904e560e01b815292516001600160a01b039091169263a49904e59260048083019391928290030181865afa1580156102fc573d6000803e3d6000fd5b505050506040513d601f19601f8201168201806040525081019061032091906108a0565b61034d5743600881901c60009081526002602052604090208054600160ff9093169290921b909117905550565b50565b6003546040805163a49904e560e01b815290516000926001600160a01b03169163a49904e59160048083019260209291908290030181865afa15801561039a573d6000803e3d6000fd5b505050506040513d601f19601f820116820180604052508101906103be91906108a0565b905090565b7fb53127684a568b3173ae13b9f8a6016e243e63b6e8ee1178d6a717850b5d6103546001600160a01b0316336001600160a01b0316148061043657507fb53127684a568b3173ae13b9f8a6016e243e63b6e8ee1178d6a717850b5d6103546001600160a01b0316326001600160a01b0316145b8061046957507fb53127684a568b3173ae13b9f8a6016e243e63b6e8ee1178d6a717850b5d6103546001600160a01b0316155b80610472575043155b6104e95760405162461bcd60e51b815260206004820152603060248201527f496e697469616c697a6174696f6e206f6e6c79206f6e2067656e65736973206260448201527f6c6f636b206f722062792061646d696e0000000000000000000000000000000060648201526084015b60405180910390fd5b6003546001600160a01b03161561054e5760405162461bcd60e51b8152602060048201526024808201527f696e697469616c697a6174696f6e2063616e206f6e6c7920626520646f6e65206044820152636f6e636560e01b60648201526084016104e0565b6001600160a01b0381166105a45760405162461bcd60e51b815260206004820152601a60248201527f56616c696461746f72536574206d757374206e6f74206265203000000000000060448201526064016104e0565b6003805473ffffffffffffffffffffffffffffffffffffffff19166001600160a01b0392909216919091179055565b60608160008167ffffffffffffffff8111156105f1576105f16108c2565b60405190808252806020026020018201604052801561061a578160200160208202803683370190505b50905060005b82811015610683576001600087878481811061063e5761063e6108d8565b90506020020135815260200190815260200160002054828281518110610666576106666108d8565b60209081029190910101528061067b816108ee565b915050610620565b50949350505050565b60608160008167ffffffffffffffff8111156106aa576106aa6108c2565b6040519080825280602002602001820160405280156106d3578160200160208202803683370190505b50905060005b828110156106835761070d8686838181106106f6576106f66108d8565b90506020020135600261074090919063ffffffff16565b15828281518110610720576107206108d8565b91151560209283029190910190910152610739816108ee565b90506106d9565b600881901c600090815260208390526040902054600160ff83161b16151592915050565b60006020828403121561077657600080fd5b5035919050565b60006020828403121561078f57600080fd5b81356001600160a01b03811681146107a657600080fd5b9392505050565b600080602083850312156107c057600080fd5b823567ffffffffffffffff808211156107d857600080fd5b818501915085601f8301126107ec57600080fd5b8135818111156107fb57600080fd5b8660208260051b850101111561081057600080fd5b60209290920196919550909350505050565b6020808252825182820181905260009190848201906040850190845b8181101561085a5783518352928401929184019160010161083e565b50909695505050505050565b6020808252825182820181905260009190848201906040850190845b8181101561085a578351151583529284019291840191600101610882565b6000602082840312156108b257600080fd5b815180151581146107a657600080fd5b634e487b7160e01b600052604160045260246000fd5b634e487b7160e01b600052603260045260246000fd5b60006001820161090e57634e487b7160e01b600052601160045260246000fd5b506001019056fea26469706673582212208b8d1ccaba896b38fcd65aa166019376ea15f45359a2bb3518378848f3e7e81464736f6c63430008110033",
  "linkReferences": {},
  "deployedLinkReferences": {}
}