{
  "_format": "hh-sol-artifact-1",
  "contractName": "Registry",
  "sourceName": "contracts/Registry.sol",
  "abi": [
    {
      "inputs": [
        {
          "internalType": "address",
          "name": "_certifierContract",
          "type": "address"
        },
        {
          "internalType": "address",
          "name": "_contractOwner",
          "type": "address"
        }
      ],
      "stateMutability": "nonpayable",
      "type": "constructor"
    },
    {
      "anonymous": false,
      "inputs": [
        {
          "indexed": true,
          "internalType": "bytes32",
          "name": "name",
          "type": "bytes32"
        },
        {
          "indexed": false,
          "internalType": "string",
          "name": "key",
          "type": "string"
        },
        {
          "indexed": false,
          "internalType": "string",
          "name": "plainKey",
          "type": "string"
        }
      ],
      "name": "DataChanged",
      "type": "event"
    },
    {
      "anonymous": false,
      "inputs": [
        {
          "indexed": false,
          "internalType": "uint256",
          "name": "amount",
          "type": "uint256"
        }
      ],
      "name": "Drained",
      "type": "event"
    },
    {
      "anonymous": false,
      "inputs": [
        {
          "indexed": true,
          "internalType": "bytes32",
          "name": "name",
          "type": "bytes32"
        },
        {
          "indexed": true,
          "internalType": "address",
          "name": "owner",
          "type": "address"
        }
      ],
      "name": "Dropped",
      "type": "event"
    },
    {
      "anonymous": false,
      "inputs": [
        {
          "indexed": false,
          "internalType": "uint256",
          "name": "amount",
          "type": "uint256"
        }
      ],
      "name": "FeeChanged",
      "type": "event"
    },
    {
      "anonymous": false,
      "inputs": [
        {
          "indexed": true,
          "internalType": "address",
          "name": "previousOwner",
          "type": "address"
        },
        {
          "indexed": true,
          "internalType": "address",
          "name": "newOwner",
          "type": "address"
        }
      ],
      "name": "OwnershipTransferred",
      "type": "event"
    },
    {
      "anonymous": false,
      "inputs": [
        {
          "indexed": true,
          "internalType": "bytes32",
          "name": "name",
          "type": "bytes32"
        },
        {
          "indexed": true,
          "internalType": "address",
          "name": "owner",
          "type": "address"
        }
      ],
      "name": "Reserved",
      "type": "event"
    },
    {
      "anonymous": false,
      "inputs": [
        {
          "indexed": false,
          "internalType": "string",
          "name": "name",
          "type": "string"
        },
        {
          "indexed": true,
          "internalType": "address",
          "name": "reverse",
          "type": "address"
        }
      ],
      "name": "ReverseConfirmed",
      "type": "event"
    },
    {
      "anonymous": false,
      "inputs": [
        {
          "indexed": false,
          "internalType": "string",
          "name": "name",
          "type": "string"
        },
        {
          "indexed": true,
          "internalType": "address",
          "name": "reverse",
          "type": "address"
        }
      ],
      "name": "ReverseProposed",
      "type": "event"
    },
    {
      "anonymous": false,
      "inputs": [
        {
          "indexed": false,
          "internalType": "string",
          "name": "name",
          "type": "string"
        },
        {
          "indexed": true,
          "internalType": "address",
          "name": "reverse",
          "type": "address"
        }
      ],
      "name": "ReverseRemoved",
      "type": "event"
    },
    {
      "anonymous": false,
      "inputs": [
        {
          "indexed": true,
          "internalType": "bytes32",
          "name": "name",
          "type": "bytes32"
        },
        {
          "indexed": true,
          "internalType": "address",
          "name": "oldOwner",
          "type": "address"
        },
        {
          "indexed": true,
          "internalType": "address",
          "name": "newOwner",
          "type": "address"
        }
      ],
      "name": "Transferred",
      "type": "event"
    },
    {
      "inputs": [
        {
          "internalType": "address",
          "name": "_data",
          "type": "address"
        }
      ],
      "name": "canReverse",
      "outputs": [
        {
          "internalType": "bool",
          "name": "",
          "type": "bool"
        }
      ],
      "stateMutability": "view",
      "type": "function"
    },
    {
      "inputs": [
        {
          "internalType": "string",
          "name": "_name",
          "type": "string"
        }
      ],
      "name": "confirmReverse",
      "outputs": [
        {
          "internalType": "bool",
          "name": "success",
          "type": "bool"
        }
      ],
      "stateMutability": "nonpayable",
      "type": "function"
    },
    {
      "inputs": [
        {
          "internalType": "string",
          "name": "_name",
          "type": "string"
        },
        {
          "internalType": "address",
          "name": "_who",
          "type": "address"
        }
      ],
      "name": "confirmReverseAs",
      "outputs": [
        {
          "internalType": "bool",
          "name": "success",
          "type": "bool"
        }
      ],
      "stateMutability": "nonpayable",
      "type": "function"
    },
    {
      "inputs": [],
      "name": "drain",
      "outputs": [
        {
          "internalType": "bool",
          "name": "",
          "type": "bool"
        }
      ],
      "stateMutability": "nonpayable",
      "type": "function"
    },
    {
      "inputs": [
        {
          "internalType": "bytes32",
          "name": "_name",
          "type": "bytes32"
        }
      ],
      "name": "drop",
      "outputs": [
        {
          "internalType": "bool",
          "name": "success",
          "type": "bool"
        }
      ],
      "stateMutability": "nonpayable",
      "type": "function"
    },
    {
      "inputs": [],
      "name": "fee",
      "outputs": [
        {
          "internalType": "uint256",
          "name": "",
          "type": "uint256"
        }
      ],
      "stateMutability": "view",
      "type": "function"
    },
    {
      "inputs": [
        {
          "internalType": "bytes32",
          "name": "_name",
          "type": "bytes32"
        },
        {
          "internalType": "string",
          "name": "_key",
          "type": "string"
        }
      ],
      "name": "getAddress",
      "outputs": [
        {
          "internalType": "address",
          "name": "",
          "type": "address"
        }
      ],
      "stateMutability": "view",
      "type": "function"
    },
    {
      "inputs": [
        {
          "internalType": "bytes32",
          "name": "_name",
          "type": "bytes32"
        },
        {
          "internalType": "string",
          "name": "_key",
          "type": "string"
        }
      ],
      "name": "getData",
      "outputs": [
        {
          "internalType": "bytes32",
          "name": "",
          "type": "bytes32"
        }
      ],
      "stateMutability": "view",
      "type": "function"
    },
    {
      "inputs": [
        {
          "internalType": "bytes32",
          "name": "_name",
          "type": "bytes32"
        }
      ],
      "name": "getOwner",
      "outputs": [
        {
          "internalType": "address",
          "name": "",
          "type": "address"
        }
      ],
      "stateMutability": "view",
      "type": "function"
    },
    {
      "inputs": [
        {
          "internalType": "bytes32",
          "name": "_name",
          "type": "bytes32"
        }
      ],
      "name": "getReverse",
      "outputs": [
        {
          "internalType": "address",
          "name": "",
          "type": "address"
        }
      ],
      "stateMutability": "view",
      "type": "function"
    },
    {
      "inputs": [
        {
          "internalType": "bytes32",
          "name": "_name",
          "type": "bytes32"
        },
        {
          "internalType": "string",
          "name": "_key",
          "type": "string"
        }
      ],
      "name": "getUint",
      "outputs": [
        {
          "internalType": "uint256",
          "name": "",
          "type": "uint256"
        }
      ],
      "stateMutability": "view",
      "type": "function"
    },
    {
      "inputs": [
        {
          "internalType": "bytes32",
          "name": "_name",
          "type": "bytes32"
        }
      ],
      "name": "hasReverse",
      "outputs": [
        {
          "internalType": "bool",
          "name": "",
          "type": "bool"
        }
      ],
      "stateMutability": "view",
      "type": "function"
    },
    {
      "inputs": [],
      "name": "owner",
      "outputs": [
        {
          "internalType": "address",
          "name": "",
          "type": "address"
        }
      ],
      "stateMutability": "view",
      "type": "function"
    },
    {
      "inputs": [
        {
          "internalType": "string",
          "name": "_name",
          "type": "string"
        },
        {
          "internalType": "address",
          "name": "_who",
          "type": "address"
        }
      ],
      "name": "proposeReverse",
      "outputs": [
        {
          "internalType": "bool",
          "name": "success",
          "type": "bool"
        }
      ],
      "stateMutability": "nonpayable",
      "type": "function"
    },
    {
      "inputs": [],
      "name": "removeReverse",
      "outputs": [],
      "stateMutability": "nonpayable",
      "type": "function"
    },
    {
      "inputs": [],
      "name": "renounceOwnership",
      "outputs": [],
      "stateMutability": "nonpayable",
      "type": "function"
    },
    {
      "inputs": [
        {
          "internalType": "bytes32",
          "name": "_name",
          "type": "bytes32"
        }
      ],
      "name": "reserve",
      "outputs": [
        {
          "internalType": "bool",
          "name": "success",
          "type": "bool"
        }
      ],
      "stateMutability": "payable",
      "type": "function"
    },
    {
      "inputs": [
        {
          "internalType": "bytes32",
          "name": "_name",
          "type": "bytes32"
        }
      ],
      "name": "reserved",
      "outputs": [
        {
          "internalType": "bool",
          "name": "",
          "type": "bool"
        }
      ],
      "stateMutability": "view",
      "type": "function"
    },
    {
      "inputs": [
        {
          "internalType": "address",
          "name": "_data",
          "type": "address"
        }
      ],
      "name": "reverse",
      "outputs": [
        {
          "internalType": "string",
          "name": "",
          "type": "string"
        }
      ],
      "stateMutability": "view",
      "type": "function"
    },
    {
      "inputs": [
        {
          "internalType": "bytes32",
          "name": "_name",
          "type": "bytes32"
        },
        {
          "internalType": "string",
          "name": "_key",
          "type": "string"
        },
        {
          "internalType": "address",
          "name": "_value",
          "type": "address"
        }
      ],
      "name": "setAddress",
      "outputs": [
        {
          "internalType": "bool",
          "name": "success",
          "type": "bool"
        }
      ],
      "stateMutability": "nonpayable",
      "type": "function"
    },
    {
      "inputs": [
        {
          "internalType": "bytes32",
          "name": "_name",
          "type": "bytes32"
        },
        {
          "internalType": "string",
          "name": "_key",
          "type": "string"
        },
        {
          "internalType": "bytes32",
          "name": "_value",
          "type": "bytes32"
        }
      ],
      "name": "setData",
      "outputs": [
        {
          "internalType": "bool",
          "name": "success",
          "type": "bool"
        }
      ],
      "stateMutability": "nonpayable",
      "type": "function"
    },
    {
      "inputs": [
        {
          "internalType": "uint256",
          "name": "_amount",
          "type": "uint256"
        }
      ],
      "name": "setFee",
      "outputs": [
        {
          "internalType": "bool",
          "name": "",
          "type": "bool"
        }
      ],
      "stateMutability": "nonpayable",
      "type": "function"
    },
    {
      "inputs": [
        {
          "internalType": "bytes32",
          "name": "_name",
          "type": "bytes32"
        },
        {
          "internalType": "string",
          "name": "_key",
          "type": "string"
        },
        {
          "internalType": "uint256",
          "name": "_value",
          "type": "uint256"
        }
      ],
      "name": "setUint",
      "outputs": [
        {
          "internalType": "bool",
          "name": "success",
          "type": "bool"
        }
      ],
      "stateMutability": "nonpayable",
      "type": "function"
    },
    {
      "inputs": [
        {
          "internalType": "bytes32",
          "name": "_name",
          "type": "bytes32"
        },
        {
          "internalType": "address",
          "name": "_to",
          "type": "address"
        }
      ],
      "name": "transfer",
      "outputs": [
        {
          "internalType": "bool",
          "name": "success",
          "type": "bool"
        }
      ],
      "stateMutability": "nonpayable",
      "type": "function"
    },
    {
      "inputs": [
        {
          "internalType": "address",
          "name": "newOwner",
          "type": "address"
        }
      ],
      "name": "transferOwnership",
      "outputs": [],
      "stateMutability": "nonpayable",
      "type": "function"
    }
  ],
  "bytecode": "0x6080604052670de0b6b3a76400006003553480156200001d57600080fd5b5060405162001ff838038062001ff88339810160408190526200004091620002bd565b6200004b336200016f565b6001600160a01b0382166200005f57600080fd5b7f6d3815e6a4f3c7fcec92b83d73dda2754a69c601f07723ec5a2274bd6e81e155336001600160a01b038316156200009e5750816200009e81620001bf565b60008281526001602081905260409182902080546001600160a01b0319166001600160a01b0385161781559151604160f81b8152606087901b6001600160601b031916926002019101908152604051908190036020018120919091556001600160a01b0382169083907f4963513eca575aba66fdcd25f267aae85958fe6fb97e75fa25d783f1a091a22190600090a3817fb829c3e412537bbe794c048ccb9e4605bb4aaaa8e4d4c15c1a6e0c2adc1716ea6040516200015d90620002f5565b60405180910390a2505050506200033f565b600080546001600160a01b038381166001600160a01b0319831681178455604051919092169283917f8be0079c531659141344cd1fd0a4f28419497f9722a3daafe3b4186f6b6457e09190a35050565b620001c962000242565b6001600160a01b038116620002345760405162461bcd60e51b815260206004820152602660248201527f4f776e61626c653a206e6577206f776e657220697320746865207a65726f206160448201526564647265737360d01b60648201526084015b60405180910390fd5b6200023f816200016f565b50565b6000546001600160a01b031633146200029e5760405162461bcd60e51b815260206004820181905260248201527f4f776e61626c653a2063616c6c6572206973206e6f7420746865206f776e657260448201526064016200022b565b565b80516001600160a01b0381168114620002b857600080fd5b919050565b60008060408385031215620002d157600080fd5b620002dc83620002a0565b9150620002ec60208401620002a0565b90509250929050565b604081526000620003176040830160018152604160f81b602082015260400190565b8281036020840152620003388160018152604160f81b602082015260400190565b9392505050565b611ca9806200034f6000396000f3fe6080604052600436106101965760003560e01c80639890220b116100e1578063df57b7421161008a578063ef5454d611610064578063ef5454d614610456578063f25eb5c114610476578063f2fde38b1461048b578063f6d339e4146104ab57600080fd5b8063df57b742146103e9578063e30bd74014610409578063eadf97601461043657600080fd5b8063c3a35825116100bb578063c3a3582514610393578063ddca3f43146103b3578063deb931a2146103c957600080fd5b80639890220b1461033e578063ac4e73f914610353578063ac72c1201461037357600080fd5b806369fe0e2d116101435780638da5cb5b1161011d5780638da5cb5b146102d257806390b97fc1146102f0578063926988141461031e57600080fd5b806369fe0e2d1461027b578063715018a61461029b57806379ce9fac146102b257600080fd5b8063432ced0411610174578063432ced04146102105780634f39ca59146102235780636795dbcd1461024357600080fd5b806306b2ff471461019b57806319362a28146101d05780633f3935d1146101f0575b600080fd5b3480156101a757600080fd5b506101bb6101b6366004611700565b6104cb565b60405190151581526020015b60405180910390f35b3480156101dc57600080fd5b506101bb6101eb36600461176b565b6104f7565b3480156101fc57600080fd5b506101bb61020b3660046117be565b6105ea565b6101bb61021e366004611800565b61074c565b34801561022f57600080fd5b506101bb61023e366004611800565b6107fb565b34801561024f57600080fd5b5061026361025e366004611819565b6109ad565b6040516001600160a01b0390911681526020016101c7565b34801561028757600080fd5b506101bb610296366004611800565b610a39565b3480156102a757600080fd5b506102b0610a84565b005b3480156102be57600080fd5b506101bb6102cd366004611865565b610a98565b3480156102de57600080fd5b506000546001600160a01b0316610263565b3480156102fc57600080fd5b5061031061030b366004611819565b610b68565b6040519081526020016101c7565b34801561032a57600080fd5b506101bb610339366004611800565b610bf1565b34801561034a57600080fd5b506101bb610c5a565b34801561035f57600080fd5b506101bb61036e366004611891565b610ccb565b34801561037f57600080fd5b506101bb61038e366004611800565b610f0f565b34801561039f57600080fd5b506103106103ae366004611819565b610f7c565b3480156103bf57600080fd5b5061031060035481565b3480156103d557600080fd5b506102636103e4366004611800565b611006565b3480156103f557600080fd5b50610263610404366004611800565b61106d565b34801561041557600080fd5b50610429610424366004611700565b6110d8565b6040516101c791906118e5565b34801561044257600080fd5b506101bb61045136600461176b565b611184565b34801561046257600080fd5b506101bb610471366004611891565b611218565b34801561048257600080fd5b506102b0611313565b34801561049757600080fd5b506102b06104a6366004611700565b6114b7565b3480156104b757600080fd5b506101bb6104c6366004611933565b611549565b6001600160a01b038116600090815260026020526040812080546104ee90611991565b15159392505050565b6000848152600160208190526040822001548590600160a01b900460ff1615801561053857506000818152600160205260409020546001600160a01b031615155b61054157600080fd5b60008681526001602052604090205486906001600160a01b0316331461056657600080fd5b8360016000898152602001908152602001600020600201878760405161058d9291906119c5565b908152602001604051809103902081905550867fb829c3e412537bbe794c048ccb9e4605bb4aaaa8e4d4c15c1a6e0c2adc1716ea878789896040516105d594939291906119fe565b60405180910390a25060019695505050505050565b600082828080601f01602080910402602001604051908101604052809392919081815260200183838082843760009201829052508451602080870191909120825260019081905260409091200154600160a01b900460ff161592505081159050610675575080516020808301919091206000908152600190915260409020546001600160a01b031615155b61067e57600080fd5b83838080601f016020809104026020016040519081016040528093929190818152602001838380828437600092018290525084516020808701919091208252600190819052604090912001546001600160a01b0316331492506106e391505057600080fd5b3360009081526002602052604090206106fd858783611a95565b50336001600160a01b03167f098ae8581bb8bd9af1beaf7f2e9f51f31a8e5a8bfada4e303a645d71d9c919208686604051610739929190611b56565b60405180910390a2506001949350505050565b6000818152600160208190526040822001548290600160a01b900460ff1615801561078c57506000818152600160205260409020546001600160a01b0316155b61079557600080fd5b6003543410156107a457600080fd5b60008381526001602052604080822080546001600160a01b031916339081179091559051909185917f4963513eca575aba66fdcd25f267aae85958fe6fb97e75fa25d783f1a091a2219190a3600191505b50919050565b6000818152600160208190526040822001548290600160a01b900460ff1615801561083c57506000818152600160205260409020546001600160a01b031615155b61084557600080fd5b60008381526001602052604090205483906001600160a01b0316331461086a57600080fd5b6000848152600160208181526040808420909201546001600160a01b0316835260029052908190209051859161089f91611b72565b60405180910390200361093a576000848152600160208181526040808420909201546001600160a01b031680845260029091529181902090517f12491ad95fd945e444d88a894ffad3c21959880a4dcd8af99d4ae4ffc71d4abd9161090391611be8565b60405180910390a26000848152600160208181526040808420909201546001600160a01b0316835260029052812061093a9161169b565b600084815260016020819052604080832090910180547fffffffffffffffffffffff00ffffffffffffffffffffffffffffffffffffffff16600160a01b17905551339186917fef1961b4d2909dc23643b309bfe5c3e5646842d98c3a58517037ef3871185af39190a35060019392505050565b6000838152600160208190526040822001548490600160a01b900460ff161580156109ee57506000818152600160205260409020546001600160a01b031615155b6109f757600080fd5b600160008681526020019081526020016000206002018484604051610a1d9291906119c5565b90815260200160405180910390205460601c9150509392505050565b6000610a436115f1565b60038290556040518281527f6bbc57480a46553fa4d156ce702beef5f3ad66303b0ed1a5d4cb44966c6584c39060200160405180910390a15060015b919050565b610a8c6115f1565b610a96600061164b565b565b6000828152600160208190526040822001548390600160a01b900460ff16158015610ad957506000818152600160205260409020546001600160a01b031615155b610ae257600080fd5b60008481526001602052604090205484906001600160a01b03163314610b0757600080fd5b60008581526001602052604080822080546001600160a01b0319166001600160a01b03881690811790915590519091339188917f7b97c62130aa09acbbcbf7482630e756592496f1759eaf702f469cf64dfb779491a4506001949350505050565b6000838152600160208190526040822001548490600160a01b900460ff16158015610ba957506000818152600160205260409020546001600160a01b031615155b610bb257600080fd5b600160008681526020019081526020016000206002018484604051610bd89291906119c5565b9081526020016040518091039020549150509392505050565b6000818152600160208190526040822001548290600160a01b900460ff16158015610c3257506000818152600160205260409020546001600160a01b031615155b610c3b57600080fd5b50506000908152600160205260409020546001600160a01b0316151590565b6000610c646115f1565b6040514781527fdef931299fe61d176f949118058530c1f3f539dcb6950b4e372c9b835c33ca079060200160405180910390a160405133904780156108fc02916000818181858888f19350505050158015610cc3573d6000803e3d6000fd5b506001905090565b600083838080601f01602080910402602001604051908101604052809392919081815260200183838082843760009201829052508451602080870191909120825260019081905260409091200154600160a01b900460ff161592505081159050610d56575080516020808301919091206000908152600190915260409020546001600160a01b031615155b610d5f57600080fd5b8484604051610d6f9291906119c5565b60408051918290039091206000818152600160205291909120546001600160a01b03163314610d9d57600080fd5b60008686604051610daf9291906119c5565b6040805191829003909120600081815260016020819052929020909101549091506001600160a01b031615801590610e2157506000818152600160208181526040808420909201546001600160a01b03168352600290529081902090518291610e1791611b72565b6040518091039020145b15610eaf576000818152600160208181526040808420909201546001600160a01b03168352600290528120610e559161169b565b600081815260016020819052604091829020015490516001600160a01b03909116907f12491ad95fd945e444d88a894ffad3c21959880a4dcd8af99d4ae4ffc71d4abd90610ea6908a908a90611b56565b60405180910390a25b6000818152600160208190526040918290200180546001600160a01b0319166001600160a01b03881690811790915590517f728435a0031f6a04538fcdd24922a7e06bc7bc945db03e83d22122d1bc5f28df906105d5908a908a90611b56565b6000818152600160208190526040822001548290600160a01b900460ff16158015610f5057506000818152600160205260409020546001600160a01b031615155b610f5957600080fd5b5050600090815260016020819052604090912001546001600160a01b0316151590565b6000838152600160208190526040822001548490600160a01b900460ff16158015610fbd57506000818152600160205260409020546001600160a01b031615155b610fc657600080fd5b600160008681526020019081526020016000206002018484604051610fec9291906119c5565b908152604051908190036020019020549150509392505050565b6000818152600160208190526040822001548290600160a01b900460ff1615801561104757506000818152600160205260409020546001600160a01b031615155b61105057600080fd5b50506000908152600160205260409020546001600160a01b031690565b6000818152600160208190526040822001548290600160a01b900460ff161580156110ae57506000818152600160205260409020546001600160a01b031615155b6110b757600080fd5b5050600090815260016020819052604090912001546001600160a01b031690565b6001600160a01b03811660009081526002602052604090208054606091906110ff90611991565b80601f016020809104026020016040519081016040528092919081815260200182805461112b90611991565b80156111785780601f1061114d57610100808354040283529160200191611178565b820191906000526020600020905b81548152906001019060200180831161115b57829003601f168201915b50505050509050919050565b6000848152600160208190526040822001548590600160a01b900460ff161580156111c557506000818152600160205260409020546001600160a01b031615155b6111ce57600080fd5b60008681526001602052604090205486906001600160a01b031633146111f357600080fd5b60008781526001602052604090819020905185916002019061058d90899089906119c5565b600083838080601f01602080910402602001604051908101604052809392919081815260200183838082843760009201829052508451602080870191909120825260019081905260409091200154600160a01b900460ff1615925050811590506112a3575080516020808301919091206000908152600190915260409020546001600160a01b031615155b6112ac57600080fd5b6112b46115f1565b6001600160a01b03831660009081526002602052604090206112d7858783611a95565b50826001600160a01b03167f098ae8581bb8bd9af1beaf7f2e9f51f31a8e5a8bfada4e303a645d71d9c919208686604051610739929190611b56565b336000908152600260205260409020805461132d90611991565b80601f016020809104026020016040519081016040528092919081815260200182805461135990611991565b80156113a65780601f1061137b576101008083540402835291602001916113a6565b820191906000526020600020905b81548152906001019060200180831161138957829003601f168201915b5050505050600160008280519060200120815260200190815260200160002060010160149054906101000a900460ff16158015611404575080516020808301919091206000908152600190915260409020546001600160a01b031615155b61140d57600080fd5b336000818152600260205260409081902090517f12491ad95fd945e444d88a894ffad3c21959880a4dcd8af99d4ae4ffc71d4abd9161144b91611be8565b60405180910390a23360009081526002602052604080822090516001929161147291611b72565b60408051918290039091208252602080830193909352908101600090812060010180546001600160a01b0319169055338152600290925281206114b49161169b565b50565b6114bf6115f1565b6001600160a01b0381166115405760405162461bcd60e51b815260206004820152602660248201527f4f776e61626c653a206e6577206f776e657220697320746865207a65726f206160448201527f646472657373000000000000000000000000000000000000000000000000000060648201526084015b60405180910390fd5b6114b48161164b565b6000848152600160208190526040822001548590600160a01b900460ff1615801561158a57506000818152600160205260409020546001600160a01b031615155b61159357600080fd5b60008681526001602052604090205486906001600160a01b031633146115b857600080fd5b8360601b6bffffffffffffffffffffffff191660016000898152602001908152602001600020600201878760405161058d9291906119c5565b6000546001600160a01b03163314610a965760405162461bcd60e51b815260206004820181905260248201527f4f776e61626c653a2063616c6c6572206973206e6f7420746865206f776e65726044820152606401611537565b600080546001600160a01b038381166001600160a01b0319831681178455604051919092169283917f8be0079c531659141344cd1fd0a4f28419497f9722a3daafe3b4186f6b6457e09190a35050565b5080546116a790611991565b6000825580601f106116b7575050565b601f0160209004906000526020600020908101906114b491905b808211156116e557600081556001016116d1565b5090565b80356001600160a01b0381168114610a7f57600080fd5b60006020828403121561171257600080fd5b61171b826116e9565b9392505050565b60008083601f84011261173457600080fd5b50813567ffffffffffffffff81111561174c57600080fd5b60208301915083602082850101111561176457600080fd5b9250929050565b6000806000806060858703121561178157600080fd5b84359350602085013567ffffffffffffffff81111561179f57600080fd5b6117ab87828801611722565b9598909750949560400135949350505050565b600080602083850312156117d157600080fd5b823567ffffffffffffffff8111156117e857600080fd5b6117f485828601611722565b90969095509350505050565b60006020828403121561181257600080fd5b5035919050565b60008060006040848603121561182e57600080fd5b83359250602084013567ffffffffffffffff81111561184c57600080fd5b61185886828701611722565b9497909650939450505050565b6000806040838503121561187857600080fd5b82359150611888602084016116e9565b90509250929050565b6000806000604084860312156118a657600080fd5b833567ffffffffffffffff8111156118bd57600080fd5b6118c986828701611722565b90945092506118dc9050602085016116e9565b90509250925092565b600060208083528351808285015260005b81811015611912578581018301518582016040015282016118f6565b506000604082860101526040601f19601f8301168501019250505092915050565b6000806000806060858703121561194957600080fd5b84359350602085013567ffffffffffffffff81111561196757600080fd5b61197387828801611722565b90945092506119869050604086016116e9565b905092959194509250565b600181811c908216806119a557607f821691505b6020821081036107f557634e487b7160e01b600052602260045260246000fd5b8183823760009101908152919050565b81835281816020850137506000828201602090810191909152601f909101601f19169091010190565b604081526000611a126040830186886119d5565b8281036020840152611a258185876119d5565b979650505050505050565b634e487b7160e01b600052604160045260246000fd5b601f821115611a9057600081815260208120601f850160051c81016020861015611a6d5750805b601f850160051c820191505b81811015611a8c57828155600101611a79565b5050505b505050565b67ffffffffffffffff831115611aad57611aad611a30565b611ac183611abb8354611991565b83611a46565b6000601f841160018114611af55760008515611add5750838201355b600019600387901b1c1916600186901b178355611b4f565b600083815260209020601f19861690835b82811015611b265786850135825560209485019460019092019101611b06565b5086821015611b435760001960f88860031b161c19848701351681555b505060018560011b0183555b5050505050565b602081526000611b6a6020830184866119d5565b949350505050565b6000808354611b8081611991565b60018281168015611b985760018114611bad57611bdc565b60ff1984168752821515830287019450611bdc565b8760005260208060002060005b85811015611bd35781548a820152908401908201611bba565b50505082870194505b50929695505050505050565b6000602080835260008454611bfc81611991565b80848701526040600180841660008114611c1d5760018114611c3757611c65565b60ff1985168984015283151560051b890183019550611c65565b896000528660002060005b85811015611c5d5781548b8201860152908301908801611c42565b8a0184019650505b50939897505050505050505056fea2646970667358221220a166725de3ea38125f3b48fd73181e6026359083b9ba052e9e70197dda9612b264736f6c63430008110033",
  "linkReferences": {},
  "deployedLinkReferences": {}
}