{
  "_format": "hh-sol-artifact-1",
  "contractName": "StakingHbbftCoins",
  "sourceName": "contracts/base/StakingHbbftCoins.sol",
  "abi": [
    {
      "anonymous": false,
      "inputs": [
        {
          "indexed": true,
          "internalType": "address",
          "name": "fromPoolStakingAddress",
          "type": "address"
        },
        {
          "indexed": true,
          "internalType": "address",
          "name": "staker",
          "type": "address"
        },
        {
          "indexed": true,
          "internalType": "uint256",
          "name": "stakingEpoch",
          "type": "uint256"
        },
        {
          "indexed": false,
          "internalType": "uint256",
          "name": "amount",
          "type": "uint256"
        }
      ],
      "name": "ClaimedOrderedWithdrawal",
      "type": "event"
    },
    {
      "anonymous": false,
      "inputs": [
        {
          "indexed": true,
          "internalType": "address",
          "name": "fromPoolStakingAddress",
          "type": "address"
        },
        {
          "indexed": true,
          "internalType": "address",
          "name": "staker",
          "type": "address"
        },
        {
          "indexed": true,
          "internalType": "uint256",
          "name": "stakingEpoch",
          "type": "uint256"
        },
        {
          "indexed": false,
          "internalType": "uint256",
          "name": "nativeCoinsAmount",
          "type": "uint256"
        }
      ],
      "name": "ClaimedReward",
      "type": "event"
    },
    {
      "anonymous": false,
      "inputs": [
        {
          "indexed": true,
          "internalType": "address",
          "name": "caller",
          "type": "address"
        },
        {
          "indexed": true,
          "internalType": "address",
          "name": "stakingAddress",
          "type": "address"
        },
        {
          "indexed": false,
          "internalType": "uint256",
          "name": "gatheredFunds",
          "type": "uint256"
        }
      ],
      "name": "GatherAbandonedStakes",
      "type": "event"
    },
    {
      "anonymous": false,
      "inputs": [
        {
          "indexed": false,
          "internalType": "address",
          "name": "fromPoolStakingAddress",
          "type": "address"
        },
        {
          "indexed": true,
          "internalType": "address",
          "name": "toPoolStakingAddress",
          "type": "address"
        },
        {
          "indexed": true,
          "internalType": "address",
          "name": "staker",
          "type": "address"
        },
        {
          "indexed": true,
          "internalType": "uint256",
          "name": "stakingEpoch",
          "type": "uint256"
        },
        {
          "indexed": false,
          "internalType": "uint256",
          "name": "amount",
          "type": "uint256"
        }
      ],
      "name": "MovedStake",
      "type": "event"
    },
    {
      "anonymous": false,
      "inputs": [
        {
          "indexed": true,
          "internalType": "address",
          "name": "fromPoolStakingAddress",
          "type": "address"
        },
        {
          "indexed": true,
          "internalType": "address",
          "name": "staker",
          "type": "address"
        },
        {
          "indexed": true,
          "internalType": "uint256",
          "name": "stakingEpoch",
          "type": "uint256"
        },
        {
          "indexed": false,
          "internalType": "int256",
          "name": "amount",
          "type": "int256"
        }
      ],
      "name": "OrderedWithdrawal",
      "type": "event"
    },
    {
      "anonymous": false,
      "inputs": [
        {
          "indexed": true,
          "internalType": "address",
          "name": "toPoolStakingAddress",
          "type": "address"
        },
        {
          "indexed": true,
          "internalType": "address",
          "name": "staker",
          "type": "address"
        },
        {
          "indexed": true,
          "internalType": "uint256",
          "name": "stakingEpoch",
          "type": "uint256"
        },
        {
          "indexed": false,
          "internalType": "uint256",
          "name": "amount",
          "type": "uint256"
        }
      ],
      "name": "PlacedStake",
      "type": "event"
    },
    {
      "anonymous": false,
      "inputs": [
        {
          "indexed": true,
          "internalType": "address",
          "name": "caller",
          "type": "address"
        },
        {
          "indexed": false,
          "internalType": "uint256",
          "name": "reinsertShare",
          "type": "uint256"
        },
        {
          "indexed": false,
          "internalType": "uint256",
          "name": "governanceShare",
          "type": "uint256"
        }
      ],
      "name": "RecoverAbandonedStakes",
      "type": "event"
    },
    {
      "anonymous": false,
      "inputs": [
        {
          "indexed": true,
          "internalType": "address",
          "name": "fromPoolStakingAddress",
          "type": "address"
        },
        {
          "indexed": true,
          "internalType": "address",
          "name": "staker",
          "type": "address"
        },
        {
          "indexed": true,
          "internalType": "uint256",
          "name": "stakingEpoch",
          "type": "uint256"
        },
        {
          "indexed": false,
          "internalType": "uint256",
          "name": "amount",
          "type": "uint256"
        }
      ],
      "name": "WithdrewStake",
      "type": "event"
    },
    {
      "inputs": [],
      "name": "MAX_CANDIDATES",
      "outputs": [
        {
          "internalType": "uint256",
          "name": "",
          "type": "uint256"
        }
      ],
      "stateMutability": "view",
      "type": "function"
    },
    {
      "inputs": [
        {
          "internalType": "address",
          "name": "",
          "type": "address"
        }
      ],
      "name": "abandonedAndRemoved",
      "outputs": [
        {
          "internalType": "bool",
          "name": "",
          "type": "bool"
        }
      ],
      "stateMutability": "view",
      "type": "function"
    },
    {
      "inputs": [
        {
          "internalType": "address",
          "name": "_miningAddress",
          "type": "address"
        },
        {
          "internalType": "bytes",
          "name": "_publicKey",
          "type": "bytes"
        },
        {
          "internalType": "bytes16",
          "name": "_ip",
          "type": "bytes16"
        }
      ],
      "name": "addPool",
      "outputs": [],
      "stateMutability": "payable",
      "type": "function"
    },
    {
      "inputs": [],
      "name": "areStakeAndWithdrawAllowed",
      "outputs": [
        {
          "internalType": "bool",
          "name": "",
          "type": "bool"
        }
      ],
      "stateMutability": "view",
      "type": "function"
    },
    {
      "inputs": [],
      "name": "blockRewardHbbft",
      "outputs": [
        {
          "internalType": "contract IBlockRewardHbbft",
          "name": "",
          "type": "address"
        }
      ],
      "stateMutability": "view",
      "type": "function"
    },
    {
      "inputs": [],
      "name": "candidateMinStake",
      "outputs": [
        {
          "internalType": "uint256",
          "name": "",
          "type": "uint256"
        }
      ],
      "stateMutability": "view",
      "type": "function"
    },
    {
      "inputs": [
        {
          "internalType": "address",
          "name": "_poolStakingAddress",
          "type": "address"
        }
      ],
      "name": "claimOrderedWithdraw",
      "outputs": [],
      "stateMutability": "nonpayable",
      "type": "function"
    },
    {
      "inputs": [
        {
          "internalType": "uint256[]",
          "name": "_stakingEpochs",
          "type": "uint256[]"
        },
        {
          "internalType": "address",
          "name": "_poolStakingAddress",
          "type": "address"
        }
      ],
      "name": "claimReward",
      "outputs": [],
      "stateMutability": "nonpayable",
      "type": "function"
    },
    {
      "inputs": [],
      "name": "currentKeyGenExtraTimeWindow",
      "outputs": [
        {
          "internalType": "uint256",
          "name": "",
          "type": "uint256"
        }
      ],
      "stateMutability": "view",
      "type": "function"
    },
    {
      "inputs": [],
      "name": "delegatorMinStake",
      "outputs": [
        {
          "internalType": "uint256",
          "name": "",
          "type": "uint256"
        }
      ],
      "stateMutability": "view",
      "type": "function"
    },
    {
      "inputs": [
        {
          "internalType": "address",
          "name": "",
          "type": "address"
        },
        {
          "internalType": "address",
          "name": "",
          "type": "address"
        },
        {
          "internalType": "uint256",
          "name": "",
          "type": "uint256"
        }
      ],
      "name": "delegatorStakeSnapshot",
      "outputs": [
        {
          "internalType": "uint256",
          "name": "",
          "type": "uint256"
        }
      ],
      "stateMutability": "view",
      "type": "function"
    },
    {
      "inputs": [
        {
          "internalType": "address",
          "name": "_poolAddress",
          "type": "address"
        }
      ],
      "name": "getPoolInternetAddress",
      "outputs": [
        {
          "internalType": "bytes16",
          "name": "",
          "type": "bytes16"
        },
        {
          "internalType": "bytes2",
          "name": "",
          "type": "bytes2"
        }
      ],
      "stateMutability": "view",
      "type": "function"
    },
    {
      "inputs": [
        {
          "internalType": "address",
          "name": "_poolAddress",
          "type": "address"
        }
      ],
      "name": "getPoolPublicKey",
      "outputs": [
        {
          "internalType": "bytes",
          "name": "",
          "type": "bytes"
        }
      ],
      "stateMutability": "view",
      "type": "function"
    },
    {
      "inputs": [],
      "name": "getPools",
      "outputs": [
        {
          "internalType": "address[]",
          "name": "",
          "type": "address[]"
        }
      ],
      "stateMutability": "view",
      "type": "function"
    },
    {
      "inputs": [],
      "name": "getPoolsInactive",
      "outputs": [
        {
          "internalType": "address[]",
          "name": "",
          "type": "address[]"
        }
      ],
      "stateMutability": "view",
      "type": "function"
    },
    {
      "inputs": [],
      "name": "getPoolsLikelihood",
      "outputs": [
        {
          "internalType": "uint256[]",
          "name": "likelihoods",
          "type": "uint256[]"
        },
        {
          "internalType": "uint256",
          "name": "sum",
          "type": "uint256"
        }
      ],
      "stateMutability": "view",
      "type": "function"
    },
    {
      "inputs": [],
      "name": "getPoolsToBeElected",
      "outputs": [
        {
          "internalType": "address[]",
          "name": "",
          "type": "address[]"
        }
      ],
      "stateMutability": "view",
      "type": "function"
    },
    {
      "inputs": [],
      "name": "getPoolsToBeRemoved",
      "outputs": [
        {
          "internalType": "address[]",
          "name": "",
          "type": "address[]"
        }
      ],
      "stateMutability": "view",
      "type": "function"
    },
    {
      "inputs": [
        {
          "internalType": "uint256[]",
          "name": "_stakingEpochs",
          "type": "uint256[]"
        },
        {
          "internalType": "address",
          "name": "_poolStakingAddress",
          "type": "address"
        },
        {
          "internalType": "address",
          "name": "_staker",
          "type": "address"
        }
      ],
      "name": "getRewardAmount",
      "outputs": [
        {
          "internalType": "uint256",
          "name": "",
          "type": "uint256"
        }
      ],
      "stateMutability": "view",
      "type": "function"
    },
    {
      "inputs": [],
      "name": "incrementStakingEpoch",
      "outputs": [],
      "stateMutability": "nonpayable",
      "type": "function"
    },
    {
      "inputs": [
        {
          "components": [
            {
              "internalType": "address",
              "name": "_validatorSetContract",
              "type": "address"
            },
            {
              "internalType": "address[]",
              "name": "_initialStakingAddresses",
              "type": "address[]"
            },
            {
              "internalType": "uint256",
              "name": "_delegatorMinStake",
              "type": "uint256"
            },
            {
              "internalType": "uint256",
              "name": "_candidateMinStake",
              "type": "uint256"
            },
            {
              "internalType": "uint256",
              "name": "_maxStake",
              "type": "uint256"
            },
            {
              "internalType": "uint256",
              "name": "_stakingFixedEpochDuration",
              "type": "uint256"
            },
            {
              "internalType": "uint256",
              "name": "_stakingTransitionTimeframeLength",
              "type": "uint256"
            },
            {
              "internalType": "uint256",
              "name": "_stakingWithdrawDisallowPeriod",
              "type": "uint256"
            }
          ],
          "internalType": "struct IStakingHbbft.StakingParams",
          "name": "stakingParams",
          "type": "tuple"
        },
        {
          "internalType": "bytes32[]",
          "name": "_publicKeys",
          "type": "bytes32[]"
        },
        {
          "internalType": "bytes16[]",
          "name": "_internetAddresses",
          "type": "bytes16[]"
        }
      ],
      "name": "initialize",
      "outputs": [],
      "stateMutability": "nonpayable",
      "type": "function"
    },
    {
      "inputs": [],
      "name": "isInitialized",
      "outputs": [
        {
          "internalType": "bool",
          "name": "",
          "type": "bool"
        }
      ],
      "stateMutability": "view",
      "type": "function"
    },
    {
      "inputs": [
        {
          "internalType": "address",
          "name": "_stakingAddress",
          "type": "address"
        }
      ],
      "name": "isPoolActive",
      "outputs": [
        {
          "internalType": "bool",
          "name": "",
          "type": "bool"
        }
      ],
      "stateMutability": "view",
      "type": "function"
    },
    {
      "inputs": [],
      "name": "maxStakeAmount",
      "outputs": [
        {
          "internalType": "uint256",
          "name": "",
          "type": "uint256"
        }
      ],
      "stateMutability": "view",
      "type": "function"
    },
    {
      "inputs": [
        {
          "internalType": "address",
          "name": "_poolStakingAddress",
          "type": "address"
        },
        {
          "internalType": "address",
          "name": "_staker",
          "type": "address"
        }
      ],
      "name": "maxWithdrawAllowed",
      "outputs": [
        {
          "internalType": "uint256",
          "name": "",
          "type": "uint256"
        }
      ],
      "stateMutability": "view",
      "type": "function"
    },
    {
      "inputs": [
        {
          "internalType": "address",
          "name": "_poolStakingAddress",
          "type": "address"
        },
        {
          "internalType": "address",
          "name": "_staker",
          "type": "address"
        }
      ],
      "name": "maxWithdrawOrderAllowed",
      "outputs": [
        {
          "internalType": "uint256",
          "name": "",
          "type": "uint256"
        }
      ],
      "stateMutability": "view",
      "type": "function"
    },
    {
      "inputs": [
        {
          "internalType": "address",
          "name": "_fromPoolStakingAddress",
          "type": "address"
        },
        {
          "internalType": "address",
          "name": "_toPoolStakingAddress",
          "type": "address"
        },
        {
          "internalType": "uint256",
          "name": "_amount",
          "type": "uint256"
        }
      ],
      "name": "moveStake",
      "outputs": [],
      "stateMutability": "nonpayable",
      "type": "function"
    },
    {
      "inputs": [
        {
          "internalType": "address",
          "name": "_stakingAddress",
          "type": "address"
        }
      ],
      "name": "notifyAvailability",
      "outputs": [],
      "stateMutability": "nonpayable",
      "type": "function"
    },
    {
      "inputs": [],
      "name": "notifyKeyGenFailed",
      "outputs": [],
      "stateMutability": "nonpayable",
      "type": "function"
    },
    {
      "inputs": [
        {
          "internalType": "uint256",
          "name": "detectedOfflineTime",
          "type": "uint256"
        }
      ],
      "name": "notifyNetworkOfftimeDetected",
      "outputs": [],
      "stateMutability": "nonpayable",
      "type": "function"
    },
    {
      "inputs": [
        {
          "internalType": "address",
          "name": "_poolStakingAddress",
          "type": "address"
        },
        {
          "internalType": "int256",
          "name": "_amount",
          "type": "int256"
        }
      ],
      "name": "orderWithdraw",
      "outputs": [],
      "stateMutability": "nonpayable",
      "type": "function"
    },
    {
      "inputs": [
        {
          "internalType": "address",
          "name": "",
          "type": "address"
        },
        {
          "internalType": "address",
          "name": "",
          "type": "address"
        }
      ],
      "name": "orderWithdrawEpoch",
      "outputs": [
        {
          "internalType": "uint256",
          "name": "",
          "type": "uint256"
        }
      ],
      "stateMutability": "view",
      "type": "function"
    },
    {
      "inputs": [
        {
          "internalType": "address",
          "name": "",
          "type": "address"
        },
        {
          "internalType": "address",
          "name": "",
          "type": "address"
        }
      ],
      "name": "orderedWithdrawAmount",
      "outputs": [
        {
          "internalType": "uint256",
          "name": "",
          "type": "uint256"
        }
      ],
      "stateMutability": "view",
      "type": "function"
    },
    {
      "inputs": [
        {
          "internalType": "address",
          "name": "",
          "type": "address"
        }
      ],
      "name": "orderedWithdrawAmountTotal",
      "outputs": [
        {
          "internalType": "uint256",
          "name": "",
          "type": "uint256"
        }
      ],
      "stateMutability": "view",
      "type": "function"
    },
    {
      "inputs": [
        {
          "internalType": "address",
          "name": "",
          "type": "address"
        },
        {
          "internalType": "address",
          "name": "",
          "type": "address"
        }
      ],
      "name": "poolDelegatorInactiveIndex",
      "outputs": [
        {
          "internalType": "uint256",
          "name": "",
          "type": "uint256"
        }
      ],
      "stateMutability": "view",
      "type": "function"
    },
    {
      "inputs": [
        {
          "internalType": "address",
          "name": "",
          "type": "address"
        },
        {
          "internalType": "address",
          "name": "",
          "type": "address"
        }
      ],
      "name": "poolDelegatorIndex",
      "outputs": [
        {
          "internalType": "uint256",
          "name": "",
          "type": "uint256"
        }
      ],
      "stateMutability": "view",
      "type": "function"
    },
    {
      "inputs": [
        {
          "internalType": "address",
          "name": "_poolStakingAddress",
          "type": "address"
        }
      ],
      "name": "poolDelegators",
      "outputs": [
        {
          "internalType": "address[]",
          "name": "",
          "type": "address[]"
        }
      ],
      "stateMutability": "view",
      "type": "function"
    },
    {
      "inputs": [
        {
          "internalType": "address",
          "name": "_poolStakingAddress",
          "type": "address"
        }
      ],
      "name": "poolDelegatorsInactive",
      "outputs": [
        {
          "internalType": "address[]",
          "name": "",
          "type": "address[]"
        }
      ],
      "stateMutability": "view",
      "type": "function"
    },
    {
      "inputs": [
        {
          "internalType": "address",
          "name": "",
          "type": "address"
        }
      ],
      "name": "poolInactiveIndex",
      "outputs": [
        {
          "internalType": "uint256",
          "name": "",
          "type": "uint256"
        }
      ],
      "stateMutability": "view",
      "type": "function"
    },
    {
      "inputs": [
        {
          "internalType": "address",
          "name": "",
          "type": "address"
        }
      ],
      "name": "poolIndex",
      "outputs": [
        {
          "internalType": "uint256",
          "name": "",
          "type": "uint256"
        }
      ],
      "stateMutability": "view",
      "type": "function"
    },
    {
      "inputs": [
        {
          "internalType": "address",
          "name": "",
          "type": "address"
        }
      ],
      "name": "poolInfo",
      "outputs": [
        {
          "internalType": "bytes",
          "name": "publicKey",
          "type": "bytes"
        },
        {
          "internalType": "bytes16",
          "name": "internetAddress",
          "type": "bytes16"
        },
        {
          "internalType": "bytes2",
          "name": "port",
          "type": "bytes2"
        }
      ],
      "stateMutability": "view",
      "type": "function"
    },
    {
      "inputs": [
        {
          "internalType": "address",
          "name": "",
          "type": "address"
        }
      ],
      "name": "poolToBeElectedIndex",
      "outputs": [
        {
          "internalType": "uint256",
          "name": "",
          "type": "uint256"
        }
      ],
      "stateMutability": "view",
      "type": "function"
    },
    {
      "inputs": [
        {
          "internalType": "address",
          "name": "",
          "type": "address"
        }
      ],
      "name": "poolToBeRemovedIndex",
      "outputs": [
        {
          "internalType": "uint256",
          "name": "",
          "type": "uint256"
        }
      ],
      "stateMutability": "view",
      "type": "function"
    },
    {
      "inputs": [],
      "name": "recoverAbandonedStakes",
      "outputs": [],
      "stateMutability": "nonpayable",
      "type": "function"
    },
    {
      "inputs": [],
      "name": "removeMyPool",
      "outputs": [],
      "stateMutability": "nonpayable",
      "type": "function"
    },
    {
      "inputs": [
        {
          "internalType": "address",
          "name": "_stakingAddress",
          "type": "address"
        }
      ],
      "name": "removePool",
      "outputs": [],
      "stateMutability": "nonpayable",
      "type": "function"
    },
    {
      "inputs": [],
      "name": "removePools",
      "outputs": [],
      "stateMutability": "nonpayable",
      "type": "function"
    },
    {
      "inputs": [
        {
          "internalType": "address",
          "name": "",
          "type": "address"
        },
        {
          "internalType": "address",
          "name": "",
          "type": "address"
        },
        {
          "internalType": "uint256",
          "name": "",
          "type": "uint256"
        }
      ],
      "name": "rewardWasTaken",
      "outputs": [
        {
          "internalType": "bool",
          "name": "",
          "type": "bool"
        }
      ],
      "stateMutability": "view",
      "type": "function"
    },
    {
      "inputs": [
        {
          "internalType": "uint256",
          "name": "_minStake",
          "type": "uint256"
        }
      ],
      "name": "setCandidateMinStake",
      "outputs": [],
      "stateMutability": "nonpayable",
      "type": "function"
    },
    {
      "inputs": [
        {
          "internalType": "uint256",
          "name": "_minStake",
          "type": "uint256"
        }
      ],
      "name": "setDelegatorMinStake",
      "outputs": [],
      "stateMutability": "nonpayable",
      "type": "function"
    },
    {
      "inputs": [
        {
          "internalType": "bytes",
          "name": "_publicKey",
          "type": "bytes"
        },
        {
          "internalType": "bytes16",
          "name": "_ip",
          "type": "bytes16"
        },
        {
          "internalType": "bytes2",
          "name": "_port",
          "type": "bytes2"
        }
      ],
      "name": "setPoolInfo",
      "outputs": [],
      "stateMutability": "nonpayable",
      "type": "function"
    },
    {
      "inputs": [
        {
          "internalType": "uint256",
          "name": "_timestamp",
          "type": "uint256"
        }
      ],
      "name": "setStakingEpochStartTime",
      "outputs": [],
      "stateMutability": "nonpayable",
      "type": "function"
    },
    {
      "inputs": [
        {
          "internalType": "address",
          "name": "_validatorAddress",
          "type": "address"
        },
        {
          "internalType": "bytes16",
          "name": "_ip",
          "type": "bytes16"
        },
        {
          "internalType": "bytes2",
          "name": "_port",
          "type": "bytes2"
        }
      ],
      "name": "setValidatorInternetAddress",
      "outputs": [],
      "stateMutability": "nonpayable",
      "type": "function"
    },
    {
      "inputs": [
        {
          "internalType": "address",
          "name": "_toPoolStakingAddress",
          "type": "address"
        }
      ],
      "name": "stake",
      "outputs": [],
      "stateMutability": "payable",
      "type": "function"
    },
    {
      "inputs": [
        {
          "internalType": "address",
          "name": "",
          "type": "address"
        },
        {
          "internalType": "address",
          "name": "",
          "type": "address"
        }
      ],
      "name": "stakeAmount",
      "outputs": [
        {
          "internalType": "uint256",
          "name": "",
          "type": "uint256"
        }
      ],
      "stateMutability": "view",
      "type": "function"
    },
    {
      "inputs": [
        {
          "internalType": "address",
          "name": "_poolStakingAddress",
          "type": "address"
        },
        {
          "internalType": "address",
          "name": "_staker",
          "type": "address"
        }
      ],
      "name": "stakeAmountByCurrentEpoch",
      "outputs": [
        {
          "internalType": "uint256",
          "name": "",
          "type": "uint256"
        }
      ],
      "stateMutability": "view",
      "type": "function"
    },
    {
      "inputs": [
        {
          "internalType": "address",
          "name": "",
          "type": "address"
        }
      ],
      "name": "stakeAmountTotal",
      "outputs": [
        {
          "internalType": "uint256",
          "name": "",
          "type": "uint256"
        }
      ],
      "stateMutability": "view",
      "type": "function"
    },
    {
      "inputs": [
        {
          "internalType": "address",
          "name": "",
          "type": "address"
        },
        {
          "internalType": "address",
          "name": "",
          "type": "address"
        }
      ],
      "name": "stakeFirstEpoch",
      "outputs": [
        {
          "internalType": "uint256",
          "name": "",
          "type": "uint256"
        }
      ],
      "stateMutability": "view",
      "type": "function"
    },
    {
      "inputs": [
        {
          "internalType": "address",
          "name": "",
          "type": "address"
        },
        {
          "internalType": "address",
          "name": "",
          "type": "address"
        }
      ],
      "name": "stakeLastEpoch",
      "outputs": [
        {
          "internalType": "uint256",
          "name": "",
          "type": "uint256"
        }
      ],
      "stateMutability": "view",
      "type": "function"
    },
    {
      "inputs": [],
      "name": "stakingEpoch",
      "outputs": [
        {
          "internalType": "uint256",
          "name": "",
          "type": "uint256"
        }
      ],
      "stateMutability": "view",
      "type": "function"
    },
    {
      "inputs": [],
      "name": "stakingEpochStartBlock",
      "outputs": [
        {
          "internalType": "uint256",
          "name": "",
          "type": "uint256"
        }
      ],
      "stateMutability": "view",
      "type": "function"
    },
    {
      "inputs": [],
      "name": "stakingEpochStartTime",
      "outputs": [
        {
          "internalType": "uint256",
          "name": "",
          "type": "uint256"
        }
      ],
      "stateMutability": "view",
      "type": "function"
    },
    {
      "inputs": [],
      "name": "stakingFixedEpochDuration",
      "outputs": [
        {
          "internalType": "uint256",
          "name": "",
          "type": "uint256"
        }
      ],
      "stateMutability": "view",
      "type": "function"
    },
    {
      "inputs": [],
      "name": "stakingFixedEpochEndTime",
      "outputs": [
        {
          "internalType": "uint256",
          "name": "",
          "type": "uint256"
        }
      ],
      "stateMutability": "view",
      "type": "function"
    },
    {
      "inputs": [],
      "name": "stakingTransitionTimeframeLength",
      "outputs": [
        {
          "internalType": "uint256",
          "name": "",
          "type": "uint256"
        }
      ],
      "stateMutability": "view",
      "type": "function"
    },
    {
      "inputs": [],
      "name": "stakingWithdrawDisallowPeriod",
      "outputs": [
        {
          "internalType": "uint256",
          "name": "",
          "type": "uint256"
        }
      ],
      "stateMutability": "view",
      "type": "function"
    },
    {
      "inputs": [],
      "name": "startTimeOfNextPhaseTransition",
      "outputs": [
        {
          "internalType": "uint256",
          "name": "",
          "type": "uint256"
        }
      ],
      "stateMutability": "view",
      "type": "function"
    },
    {
      "inputs": [],
      "name": "validatorSetContract",
      "outputs": [
        {
          "internalType": "contract IValidatorSetHbbft",
          "name": "",
          "type": "address"
        }
      ],
      "stateMutability": "view",
      "type": "function"
    },
    {
      "inputs": [
        {
          "internalType": "address",
          "name": "_fromPoolStakingAddress",
          "type": "address"
        },
        {
          "internalType": "uint256",
          "name": "_amount",
          "type": "uint256"
        }
      ],
      "name": "withdraw",
      "outputs": [],
      "stateMutability": "nonpayable",
      "type": "function"
    },
    {
      "stateMutability": "payable",
      "type": "receive"
    }
  ],
  "bytecode": "0x608060405234801561001057600080fd5b5061748a80620000216000396000f3fe608060405260043610620004a75760003560e01c80638247a2391162000272578063b6bbbcea116200015d578063e9ab030011620000ca578063f07860961162000095578063f49425011162000078578063f49425011462000f6a578063fa4aaf471462000f80578063fb367a9b1462000fb157600080fd5b8063f07860961462000f2d578063f3fef3a31462000f4557600080fd5b8063e9ab03001462000e90578063edd7db751462000ecc578063edf94b821462000ee4578063ee435f551462000f1557600080fd5b8063d290c21d1162000128578063dadee88a116200010b578063dadee88a1462000e25578063df6f55f51462000e56578063dfc8bf4e1462000e6e57600080fd5b8063d290c21d1462000df5578063da7a9b6a1462000e0d57600080fd5b8063b6bbbcea1462000d41578063bc9eb2c31462000d7c578063c6912cc01462000db8578063cfef14411462000dd057600080fd5b80639ea8082b11620001fc578063a711e6a111620001c7578063ae1aaf8011620001aa578063ae1aaf801462000cd3578063b42754a51462000ceb578063b61ed63a1462000d1c57600080fd5b8063a711e6a11462000c96578063adddc0cf1462000cbb57600080fd5b80639ea8082b1462000be1578063a42059671462000c06578063a5d54f651462000c42578063a697ecff1462000c5a57600080fd5b8063957950a7116200023d578063957950a71462000b465780639a7b5f111462000b6e5780639b03d7441462000ba45780639e72c6351462000bbc57600080fd5b80638247a2391462000a9b578063862be2871462000ac0578063950a65131462000ae55780639518c4811462000b0a57600080fd5b80634cf83f9c116200039357806365113918116200031d57806373c2180311620002e8578063794c0c6811620002cb578063794c0c681462000a395780637b0a0f9b1462000a515780637b15b94c1462000a7657600080fd5b806373c2180314620009c0578063750dd2a114620009e557600080fd5b806365113918146200092b578063673a2a1f146200095c5780636bda157714620009835780637069e74614620009a857600080fd5b80635659b742116200035e5780635659b74214620008a857806356e4d6c214620008e45780635d80ca3214620008fb5780635fef7643146200091357600080fd5b80634cf83f9c14620008075780634e9b426d146200082c5780634f9a8d8f14620008605780635267e1d6146200087857600080fd5b80632bafde8d1162000432578063379b046a11620003fd5780633b7d094611620003e05780633b7d094614620007985780633ea15d6214620007bd57806348aaa4a214620007e257600080fd5b8063379b046a146200075e578063392e53cd146200077657600080fd5b80632bafde8d14620006975780633172773014620006bc5780633219d600146200071257806337154263146200074657600080fd5b80631fb31e4311620004735780631fb31e4314620005c257806322e3d9861462000643578063251441a9146200065b57806326476204146200068057600080fd5b80622ceebc14620004ff578063028b8bdb14620005545780630868c0d6146200056c5780631555371c14620005a857600080fd5b36620004fa5760405162461bcd60e51b815260206004820152600b60248201527f4e6f742070617961626c6500000000000000000000000000000000000000000060448201526064015b60405180910390fd5b600080fd5b3480156200050c57600080fd5b50620005416200051e36600462006935565b600b60209081526000938452604080852082529284528284209052825290205481565b6040519081526020015b60405180910390f35b3480156200056157600080fd5b506200054160195481565b3480156200057957600080fd5b50620005416200058b3660046200697b565b600f60209081526000928352604080842090915290825290205481565b348015620005b557600080fd5b50620005c062000fd6565b005b348015620005cf57600080fd5b5062000610620005e1366004620069b9565b6001600160a01b0316600090815260226020526040902060010154608081901b91600160801b90910460f01b90565b604080516fffffffffffffffffffffffffffffffff1990931683526001600160f01b03199091166020830152016200054b565b3480156200065057600080fd5b5062000541620010d4565b3480156200066857600080fd5b50620005c06200067a36600462006935565b62001123565b620005c062000691366004620069b9565b620012b2565b348015620006a457600080fd5b50620005c0620006b6366004620069d9565b62001308565b348015620006c957600080fd5b5062000701620006db36600462006935565b601560209081526000938452604080852082529284528284209052825290205460ff1681565b60405190151581526020016200054b565b3480156200071f57600080fd5b506200070162000731366004620069b9565b60256020526000908152604090205460ff1681565b3480156200075357600080fd5b50620005c0620013fa565b3480156200076b57600080fd5b5062000541601f5481565b3480156200078357600080fd5b506021546001600160a01b0316151562000701565b348015620007a557600080fd5b50620005c0620007b7366004620069b9565b62001894565b348015620007ca57600080fd5b50620005c0620007dc36600462006ad7565b620018f2565b348015620007ef57600080fd5b50620005c062000801366004620069d9565b62001fd2565b3480156200081457600080fd5b50620005c06200082636600462006b73565b620020c4565b3480156200083957600080fd5b50620008516200084b366004620069b9565b62002447565b6040516200054b919062006c62565b3480156200086d57600080fd5b5062000541601b5481565b3480156200088557600080fd5b506200054162000897366004620069b9565b602080526000908152604090205481565b348015620008b557600080fd5b5062000541620008c73660046200697b565b601760209081526000928352604080842090915290825290205481565b620005c0620008f536600462006ce3565b620024fb565b3480156200090857600080fd5b506200054160235481565b3480156200092057600080fd5b506200054160095481565b3480156200093857600080fd5b50620005416200094a366004620069b9565b60116020526000908152604090205481565b3480156200096957600080fd5b50620009746200261c565b6040516200054b919062006d52565b3480156200099057600080fd5b5062000541620009a23660046200697b565b62002680565b348015620009b557600080fd5b5062000541601e5481565b348015620009cd57600080fd5b5062000974620009df366004620069b9565b62002837565b348015620009f257600080fd5b506200054162000a043660046200697b565b6001600160a01b039182166000908152600860209081526040808320939094168252918252828120601a548252909152205490565b34801562000a4657600080fd5b5062000541601a5481565b34801562000a5e57600080fd5b50620005c062000a7036600462006dba565b620028ae565b34801562000a8357600080fd5b50620005c062000a95366004620069b9565b62002951565b34801562000aa857600080fd5b50620005c062000aba366004620069d9565b620029e3565b34801562000acd57600080fd5b50620005c062000adf36600462006e06565b62002a3c565b34801562000af257600080fd5b506200054162000b043660046200697b565b62002aa1565b34801562000b1757600080fd5b506200054162000b293660046200697b565b601060209081526000928352604080842090915290825290205481565b34801562000b5357600080fd5b5062000b5e62002c24565b6040516200054b92919062006e68565b34801562000b7b57600080fd5b5062000b9362000b8d366004620069b9565b62002c89565b6040516200054b9392919062006eb2565b34801562000bb157600080fd5b5062000541601d5481565b34801562000bc957600080fd5b50620005c062000bdb366004620069d9565b62002d45565b34801562000bee57600080fd5b506200097462000c00366004620069b9565b62002dba565b34801562000c1357600080fd5b506200054162000c253660046200697b565b600e60209081526000928352604080842090915290825290205481565b34801562000c4f57600080fd5b506200097462002e30565b34801562000c6757600080fd5b506200054162000c793660046200697b565b601660209081526000928352604080842090915290825290205481565b34801562000ca357600080fd5b506200070162000cb5366004620069b9565b62002e92565b34801562000cc857600080fd5b50620005c062002ef5565b34801562000ce057600080fd5b5062000541601c5481565b34801562000cf857600080fd5b506200054162000d0a366004620069b9565b60126020526000908152604090205481565b34801562000d2957600080fd5b50620005c062000d3b36600462006efb565b62002f62565b34801562000d4e57600080fd5b5060245462000d63906001600160a01b031681565b6040516001600160a01b0390911681526020016200054b565b34801562000d8957600080fd5b506200054162000d9b3660046200697b565b601860209081526000928352604080842090915290825290205481565b34801562000dc557600080fd5b50620005416200357a565b34801562000ddd57600080fd5b50620005c062000def366004620069b9565b620035a2565b34801562000e0257600080fd5b50620009746200393c565b34801562000e1a57600080fd5b5062000541600a5481565b34801562000e3257600080fd5b506200054162000e44366004620069b9565b600d6020526000908152604090205481565b34801562000e6357600080fd5b50620009746200399e565b34801562000e7b57600080fd5b5060215462000d63906001600160a01b031681565b34801562000e9d57600080fd5b506200054162000eaf3660046200697b565b600c60209081526000928352604080842090915290825290205481565b34801562000ed957600080fd5b50620005c062003a00565b34801562000ef157600080fd5b506200054162000f03366004620069b9565b60146020526000908152604090205481565b34801562000f2257600080fd5b50620005c062003c0b565b34801562000f3a57600080fd5b5062000541610bb881565b34801562000f5257600080fd5b50620005c062000f6436600462006efb565b62003c79565b34801562000f7757600080fd5b50600162000701565b34801562000f8d57600080fd5b506200054162000f9f366004620069b9565b60136020526000908152604090205481565b34801562000fbe57600080fd5b506200054162000fd036600462006f2a565b62003d73565b6021546001600160a01b03163314620010265760405162461bcd60e51b815260206004820152601160248201527013db9b1e4815985b1a59185d1bdc94d95d607a1b6044820152606401620004f1565b600060038054806020026020016040519081016040528092919081815260200182805480156200108057602002820191906000526020600020905b81546001600160a01b0316815260019091019060200180831162001061575b5050505050905060005b8151811015620010d057620010bb828281518110620010ad57620010ad62006f96565b6020026020010151620042e8565b80620010c78162006fc2565b9150506200108a565b5050565b601d54601b546000919015620010ec576001620010ef565b60005b60ff16601f54601b548362001105919062006fde565b62001111919062006fde565b6200111d919062006ff4565b91505090565b3a600003620011655760405162461bcd60e51b815260206004820152600d60248201526c04761735072696365206973203609c1b6044820152606401620004f1565b6021546001600160a01b0316620011ba5760405162461bcd60e51b815260206004820152601860248201527710dbdb9d1c9858dd081b9bdd081a5b9a5d1a585b1a5e995960421b6044820152606401620004f1565b816001600160a01b0316836001600160a01b031603620012435760405162461bcd60e51b815260206004820152602760248201527f4d6f76655374616b653a2073726320616e642064737420706f6f6c206973207460448201527f68652073616d65000000000000000000000000000000000000000000000000006064820152608401620004f1565b33620012518482846200445e565b6200125e838284620047ae565b601a54604080516001600160a01b0387811682526020820186905280851692908716917f4480d8e4b1e9095b94bf513961d26fe1d32386ebdd103d18fe8738cf4b2223ff910160405180910390a450505050565b3a600003620012f45760405162461bcd60e51b815260206004820152600d60248201526c04761735072696365206973203609c1b6044820152606401620004f1565b333462001303838383620047ae565b505050565b7fb53127684a568b3173ae13b9f8a6016e243e63b6e8ee1178d6a717850b5d6103546001600160a01b0316336001600160a01b031614620013a05760405162461bcd60e51b815260206004820152602b60248201527f6f6e6c792061646d696e20697320616c6c6f77656420746f2063616c6c20746860448201526a34b990333ab731ba34b7b760a91b6064820152608401620004f1565b6021546001600160a01b0316620013f55760405162461bcd60e51b815260206004820152601860248201527710dbdb9d1c9858dd081b9bdd081a5b9a5d1a585b1a5e995960421b6044820152606401620004f1565b600a55565b3a6000036200143c5760405162461bcd60e51b815260206004820152600d60248201526c04761735072696365206973203609c1b6044820152606401620004f1565b60008060018054806020026020016040519081016040528092919081815260200182805480156200149757602002820191906000526020600020905b81546001600160a01b0316815260019091019060200180831162001478575b505050505090508051600003620014f15760405162461bcd60e51b815260206004820152601260248201527f6e6f7468696e6720746f207265636f76657200000000000000000000000000006044820152606401620004f1565b60005b8151811015620016e957600082828151811062001515576200151562006f96565b602002602001015190506200152a8162004e08565b80620015a45750602154604051639d6fc1d160e01b81526001600160a01b03838116600483015290911690639d6fc1d190602401602060405180830381865afa1580156200157c573d6000803e3d6000fd5b505050506040513d601f19601f82011682018060405250810190620015a291906200700a565b155b15620015b15750620016d6565b620015bc8162004e46565b6001600160a01b0381166000908152602560209081526040808320805460ff19166001179055908052812080549082905590620015f98362002dba565b905060005b8151811015620016755760008282815181106200161f576200161f62006f96565b6020908102919091018101516001600160a01b038088166000908152601684526040808220928416825291909352822091909155905062001661858262004f80565b506200166d8162006fc2565b9050620015fe565b5062001682828762006fde565b9550826001600160a01b0316336001600160a01b03167f8e6a4ccd7dccdca9ac211d00fcc3fa7c71be75ff73d3a35f63ea023173cc100484604051620016ca91815260200190565b60405180910390a35050505b620016e18162006fc2565b9050620014f4565b50816000036200173c5760405162461bcd60e51b815260206004820152601260248201527f6e6f7468696e6720746f207265636f76657200000000000000000000000000006044820152606401620004f1565b60006200174b6002846200702e565b905060006200175b828562006ff4565b90506000602460009054906101000a90046001600160a01b03166001600160a01b03166319cee8976040518163ffffffff1660e01b8152600401602060405180830381865afa158015620017b3573d6000803e3d6000fd5b505050506040513d601f19601f82011682018060405250810190620017d9919062007051565b9050602460009054906101000a90046001600160a01b03166001600160a01b031663af182535836040518263ffffffff1660e01b81526004016000604051808303818588803b1580156200182c57600080fd5b505af115801562001841573d6000803e3d6000fd5b50505050506200185281846200512a565b604080518381526020810185905233917f1c113e6bae9530fea40323e612aeb0cb7817dedb5a0b0f6bdfbff97d55920dc7910160405180910390a25050505050565b6021546001600160a01b03163314620018e45760405162461bcd60e51b815260206004820152601160248201527013db9b1e4815985b1a59185d1bdc94d95d607a1b6044820152606401620004f1565b620018ef81620042e8565b50565b3a600003620019345760405162461bcd60e51b815260206004820152600d60248201526c04761735072696365206973203609c1b6044820152606401620004f1565b6021546001600160a01b0316620019895760405162461bcd60e51b815260206004820152601860248201527710dbdb9d1c9858dd081b9bdd081a5b9a5d1a585b1a5e995960421b6044820152606401620004f1565b336000806001600160a01b038416831462001a41576001600160a01b038085166000908152601760209081526040808320938716835292905290812054925082900362001a195760405162461bcd60e51b815260206004820152601d60248201527f436c61696d3a2066697273742065706f63682063616e277420626520300000006044820152606401620004f1565b506001600160a01b038084166000908152601860209081526040808320938616835292905220545b60215460408051632b5aa5d760e11b815290516000926001600160a01b0316916356b54bae9160048083019260209291908290030181865afa15801562001a8c573d6000803e3d6000fd5b505050506040513d601f19601f8201168201806040525081019062001ab2919062007051565b6021546040516253517560e01b81526001600160a01b038881166004830152929350600092909116906253517590602401602060405180830381865afa15801562001b01573d6000803e3d6000fd5b505050506040513d601f19601f8201168201806040525081019062001b27919062007051565b9050600080885160000362001baa5760405163dd03f5b960e01b81526001600160a01b03848116600483015285169063dd03f5b990602401600060405180830381865afa15801562001b7d573d6000803e3d6000fd5b505050506040513d6000823e601f3d908101601f1916820160405262001ba7919081019062007071565b98505b60005b895181101562001f625760008a828151811062001bce5762001bce62006f96565b60200260200101519050816000148062001c0f57508a62001bf160018462006ff4565b8151811062001c045762001c0462006f96565b602002602001015181115b62001c835760405162461bcd60e51b815260206004820152602560248201527f436c61696d3a206e656564207374726963746c7920696e6372656173696e672060448201527f6f726465720000000000000000000000000000000000000000000000000000006064820152608401620004f1565b601a54811062001cd65760405162461bcd60e51b815260206004820181905260248201527f436c61696d3a206f6e6c79206265666f72652063757272656e742065706f63686044820152606401620004f1565b6001600160a01b03808b166000908152601560209081526040808320938d1683529281528282208483529052205460ff161562001d14575062001f4d565b6000896001600160a01b03168b6001600160a01b03161462001e04578882101562001d4157505062001f4d565b81881115801562001d5157508715155b1562001d5f57505062001f62565b62001d6e828a868e8e62005223565b935062001d7d82600162006fde565b604051631c3572db60e31b815260048101869052602481018490526001600160a01b038881166044830152919a509088169063e1ab96d890606401602060405180830381865afa15801562001dd6573d6000803e3d6000fd5b505050506040513d601f19601f8201168201806040525081019062001dfc91906200710b565b905062001e7b565b60405163ba2d759760e01b8152600481018390526001600160a01b03878116602483015288169063ba2d759790604401602060405180830381865afa15801562001e52573d6000803e3d6000fd5b505050506040513d601f19601f8201168201806040525081019062001e7891906200710b565b90505b62001e87818662006fde565b94506001601560008d6001600160a01b03166001600160a01b0316815260200190815260200160002060008c6001600160a01b03166001600160a01b03168152602001908152602001600020600084815260200190815260200160002060006101000a81548160ff021916908315150217905550818a6001600160a01b03168c6001600160a01b03167fd3208fd5300db64b97bc442f47ade72b7ebcd9272aaecdcc04c777bb762861b98460405162001f4291815260200190565b60405180910390a450505b8062001f598162006fc2565b91505062001bad565b5060405163234a83e360e11b8152600481018390526001600160a01b03888116602483015285169063469507c690604401600060405180830381600087803b15801562001fae57600080fd5b505af115801562001fc3573d6000803e3d6000fd5b50505050505050505050505050565b7fb53127684a568b3173ae13b9f8a6016e243e63b6e8ee1178d6a717850b5d6103546001600160a01b0316336001600160a01b0316146200206a5760405162461bcd60e51b815260206004820152602b60248201527f6f6e6c792061646d696e20697320616c6c6f77656420746f2063616c6c20746860448201526a34b990333ab731ba34b7b760a91b6064820152608401620004f1565b6021546001600160a01b0316620020bf5760405162461bcd60e51b815260206004820152601860248201527710dbdb9d1c9858dd081b9bdd081a5b9a5d1a585b1a5e995960421b6044820152606401620004f1565b600955565b8460a001356000036200211a5760405162461bcd60e51b815260206004820152601760248201527f466978656445706f63684475726174696f6e20697320300000000000000000006044820152606401620004f1565b8460e001358560a0013511620021995760405162461bcd60e51b815260206004820152603d60248201527f466978656445706f63684475726174696f6e206d757374206265206c6f6e676560448201527f72207468616e207769746864726177446973616c6c6f77506572696f640000006064820152608401620004f1565b8460e00135600003620021ef5760405162461bcd60e51b815260206004820152601b60248201527f5769746864726177446973616c6c6f77506572696f64206973203000000000006044820152606401620004f1565b8460c001356000036200226b5760405162461bcd60e51b815260206004820152602e60248201527f546865207472616e736974696f6e2074696d656672616d65206d75737420626560448201527f206c6f6e676572207468616e20300000000000000000000000000000000000006064820152608401620004f1565b8460a001358560c0013510620022ec576040805162461bcd60e51b81526020600482015260248101919091527f546865207472616e736974696f6e2074696d656672616d65206d75737420626560448201527f2073686f72746572207468656e207468652065706f6368206475726174696f6e6064820152608401620004f1565b620023b6620022ff6020870187620069b9565b6200230e602088018862007125565b8080602002602001604051908101604052809392919081815260200183836020028082843760009201919091525050604080516020808b02828101820184528b8352928d0135945060608d0135935060808d0135928c918c91829185019084908082843760009201919091525050604080516020808d0282810182019093528c82529093508c92508b918291850190849080828437600092019190915250620052a692505050565b60a0850135601b5560e085013560195560215460408051636c9230db60e01b815290516001600160a01b0390921691636c9230db916004808201926020929091908290030181865afa15801562002411573d6000803e3d6000fd5b505050506040513d601f19601f820116820180604052508101906200243791906200710b565b601d555050505060c00135601c55565b6001600160a01b0381166000908152602260205260409020805460609190620024709062007172565b80601f01602080910402602001604051908101604052809291908181526020018280546200249e9062007172565b8015620024ef5780601f10620024c357610100808354040283529160200191620024ef565b820191906000526020600020905b815481529060010190602001808311620024d157829003601f168201915b50505050509050919050565b3a6000036200253d5760405162461bcd60e51b815260206004820152600d60248201526c04761735072696365206973203609c1b6044820152606401620004f1565b602154604051630526083960e11b81526001600160a01b0386811660048301523360248301819052923492911690630a4c107290604401600060405180830381600087803b1580156200258f57600080fd5b505af1158015620025a4573d6000803e3d6000fd5b50505050620025b5828383620047ae565b6001600160a01b0382166000908152602260205260409020620025da858783620071f8565b50506001600160a01b0316600090815260226020526040902060010180546fffffffffffffffffffffffffffffffff191660809290921c919091179055505050565b606060008054806020026020016040519081016040528092919081815260200182805480156200267657602002820191906000526020600020905b81546001600160a01b0316815260019091019060200180831162002657575b5050505050905090565b6021546040516253517560e01b81526001600160a01b03848116600483015260009283929116906253517590602401602060405180830381865afa158015620026cd573d6000803e3d6000fd5b505050506040513d601f19601f82011682018060405250810190620026f3919062007051565b90506200271681846001600160a01b0316866001600160a01b0316141562005a3b565b15806200273b57506001600160a01b03841660009081526025602052604090205460ff165b156200274c57600091505062002831565b6001600160a01b03848116600090815260166020908152604080832087851684529091529081902054602154915163a0d16cad60e01b815284841660048201529092919091169063a0d16cad90602401602060405180830381865afa158015620027ba573d6000803e3d6000fd5b505050506040513d601f19601f82011682018060405250810190620027e091906200700a565b620027ef579150620028319050565b6001600160a01b0385811660009081526008602090815260408083209388168352928152828220601a54835290522054808211156200282c578091505b509150505b92915050565b6001600160a01b038116600090815260076020908152604091829020805483518184028101840190945280845260609392830182828015620024ef57602002820191906000526020600020905b81546001600160a01b03168152600190910190602001808311620028845750505050509050919050565b6021546001600160a01b03163314620028fe5760405162461bcd60e51b815260206004820152601160248201527013db9b1e4815985b1a59185d1bdc94d95d607a1b6044820152606401620004f1565b6001600160a01b039092166000908152602260205260409020600101805460f09390931c600160801b0271ffffffffffffffffffffffffffffffffffff1990931660809290921c91909117919091179055565b6021546001600160a01b03163314620029a15760405162461bcd60e51b815260206004820152601160248201527013db9b1e4815985b1a59185d1bdc94d95d607a1b6044820152606401620004f1565b6009546001600160a01b038216600090815260166020908152604080832090915290205410620018ef57620029d881600162005b53565b620018ef8162005c2f565b6021546001600160a01b0316331462002a335760405162461bcd60e51b815260206004820152601160248201527013db9b1e4815985b1a59185d1bdc94d95d607a1b6044820152606401620004f1565b601d5543601e55565b33600090815260226020526040902062002a58848683620071f8565b50336000908152602260205260409020600101805460f09290921c600160801b0271ffffffffffffffffffffffffffffffffffff1990921660809390931c929092171790555050565b6021546040516253517560e01b81526001600160a01b03848116600483015260009283929116906253517590602401602060405180830381865afa15801562002aee573d6000803e3d6000fd5b505050506040513d601f19601f8201168201806040525081019062002b14919062007051565b905062002b3781846001600160a01b0316866001600160a01b0316141562005a3b565b62002b4757600091505062002831565b60215460405163a0d16cad60e01b81526001600160a01b0383811660048301529091169063a0d16cad90602401602060405180830381865afa15801562002b92573d6000803e3d6000fd5b505050506040513d601f19601f8201168201806040525081019062002bb891906200700a565b62002bc857600091505062002831565b6001600160a01b038481166000818152600860209081526040808320948816808452948252808320601a54845282528083205493835260168252808320948352939052919091205462002c1c919062006ff4565b949350505050565b6060600060046005548180548060200260200160405190810160405280929190818152602001828054801562002c7a57602002820191906000526020600020905b81548152602001906001019080831162002c65575b50505050509150915091509091565b60226020526000908152604090208054819062002ca69062007172565b80601f016020809104026020016040519081016040528092919081815260200182805462002cd49062007172565b801562002d255780601f1062002cf95761010080835404028352916020019162002d25565b820191906000526020600020905b81548152906001019060200180831162002d0757829003601f168201915b50505060019093015491925050608081901b90600160801b900460f01b83565b6021546001600160a01b0316331462002d955760405162461bcd60e51b815260206004820152601160248201527013db9b1e4815985b1a59185d1bdc94d95d607a1b6044820152606401620004f1565b601c5481601f5462002da8919062006fde565b62002db4919062006fde565b601f5550565b6001600160a01b038116600090815260066020908152604091829020805483518184028101840190945280845260609392830182828015620024ef576020028201919060005260206000209081546001600160a01b03168152600190910190602001808311620028845750505050509050919050565b6060600280548060200260200160405190810160405280929190818152602001828054801562002676576020028201919060005260206000209081546001600160a01b0316815260019091019060200180831162002657575050505050905090565b6001600160a01b03811660009081526012602052604081205481548110801562002eee5750826001600160a01b03166000828154811062002ed75762002ed762006f96565b6000918252602090912001546001600160a01b0316145b9392505050565b6021546001600160a01b0316331462002f455760405162461bcd60e51b815260206004820152601160248201527013db9b1e4815985b1a59185d1bdc94d95d607a1b6044820152606401620004f1565b601c54601f600082825462002f5b919062006fde565b9091555050565b3a60000362002fa45760405162461bcd60e51b815260206004820152600d60248201526c04761735072696365206973203609c1b6044820152606401620004f1565b6021546001600160a01b031662002ff95760405162461bcd60e51b815260206004820152601860248201527710dbdb9d1c9858dd081b9bdd081a5b9a5d1a585b1a5e995960421b6044820152606401620004f1565b6001600160a01b0382166200305c5760405162461bcd60e51b815260206004820152602260248201527f706f6f6c5374616b696e6741646472657373206d757374206e6f742062652030604482015261078360f41b6064820152608401620004f1565b80600003620030d45760405162461bcd60e51b815260206004820152602560248201527f6f72646572656420776974686472617720616d6f756e74206d757374206e6f7460448201527f20626520300000000000000000000000000000000000000000000000000000006064820152608401620004f1565b6021546040516253517560e01b81526001600160a01b038481166004830152339262003165929116906253517590602401602060405180830381865afa15801562003123573d6000803e3d6000fd5b505050506040513d601f19601f8201168201806040525081019062003149919062007051565b846001600160a01b0316836001600160a01b0316141562005a3b565b620031b35760405162461bcd60e51b815260206004820152601a60248201527f4f7264657257697468647261773a206e6f7420616c6c6f7765640000000000006044820152606401620004f1565b6001600160a01b038084166000818152600c6020908152604080832094861680845294825280832054848452600d835281842054601684528285209685529583528184205494845291805282205490939291861315620032fa57856200321a888762002aa1565b811115620032915760405162461bcd60e51b815260206004820152602f60248201527f4f7264657257697468647261773a206d617857697468647261774f726465724160448201527f6c6c6f77656420657863656564656400000000000000000000000000000000006064820152608401620004f1565b6200329d818662006fde565b9450620032ab818562006fde565b9350620032b9818462006ff4565b9250620032c7818362006ff4565b601a546001600160a01b03808b166000908152600e60209081526040808320938c16835292905220559150620033439050565b60006200330787620072c5565b905062003315818662006ff4565b945062003323818562006ff4565b935062003331818462006fde565b92506200333f818362006fde565b9150505b6001600160a01b038088166000818152600c60209081526040808320948a16808452948252808320899055838352600d8252808320889055601682528083208584528252808320879055838352908052902083905590036200345457811580620033af57506009548210155b620034235760405162461bcd60e51b815260206004820152603360248201527f6e65775374616b6520416d6f756e74206d75737420626520677265617465722060448201527f7468616e20746865206d696e207374616b652e000000000000000000000000006064820152608401620004f1565b60008613156200344757816000036200344157620034418762005d10565b62003515565b6200344187600162005b53565b811580620034645750600a548210155b620034d85760405162461bcd60e51b815260206004820152603360248201527f6e65775374616b6520416d6f756e74206d75737420626520677265617465722060448201527f7468616e20746865206d696e207374616b652e000000000000000000000000006064820152608401620004f1565b6000861315620034fd5781600003620034f757620034f7878662004f80565b62003509565b62003509878662005ddb565b62003515878662005eaa565b620035208762005c2f565b601a54856001600160a01b0316886001600160a01b03167f80d5c777e5f7ac6ee89723223803ca5c0ec0204f89e99c1b0cde973c66a64594896040516200356991815260200190565b60405180910390a450505050505050565b6000601c54601b54601d5462003591919062006fde565b6200359d919062006ff4565b905090565b3a600003620035e45760405162461bcd60e51b815260206004820152600d60248201526c04761735072696365206973203609c1b6044820152606401620004f1565b6021546001600160a01b0316620036395760405162461bcd60e51b815260206004820152601860248201527710dbdb9d1c9858dd081b9bdd081a5b9a5d1a585b1a5e995960421b6044820152606401620004f1565b6001600160a01b0381166000908152600e6020908152604080832033808552925290912054601a5411620036d65760405162461bcd60e51b815260206004820152603f60248201527f63616e6e6f7420636c61696d206f72646572656420776974686472617720696e60448201527f207468652073616d652065706f636820697420776173206f7264657265642e006064820152608401620004f1565b6021546040516253517560e01b81526001600160a01b038481166004830152620037649216906253517590602401602060405180830381865afa15801562003722573d6000803e3d6000fd5b505050506040513d601f19601f8201168201806040525081019062003748919062007051565b836001600160a01b0316836001600160a01b0316141562005a3b565b620037d85760405162461bcd60e51b815260206004820152602a60248201527f436c61696d4f72646572656457697468647261773a205769746864726177206e60448201527f6f7420616c6c6f776564000000000000000000000000000000000000000000006064820152608401620004f1565b6001600160a01b038083166000908152600c6020908152604080832093851683529290529081205490819003620038525760405162461bcd60e51b815260206004820152601a60248201527f636c61696d20616d6f756e74206d757374206e6f7420626520300000000000006044820152606401620004f1565b6001600160a01b038084166000818152600c602090815260408083209487168352938152838220829055918152600d90915220546200389390829062006ff4565b6001600160a01b038085166000908152600d602090815260408083209490945560168152838220928616825291909152908120549003620038da57620038da838362005fb6565b620038e68282620060f7565b601a54826001600160a01b0316846001600160a01b03167ff380b0bc887e00f5b50d3c9d4eaaf5c9a0afd97b956316b995159384c4ede9b3846040516200392f91815260200190565b60405180910390a4505050565b6060600380548060200260200160405190810160405280929190818152602001828054801562002676576020028201919060005260206000209081546001600160a01b0316815260019091019060200180831162002657575050505050905090565b6060600180548060200260200160405190810160405280929190818152602001828054801562002676576020028201919060005260206000209081546001600160a01b0316815260019091019060200180831162002657575050505050905090565b3a60000362003a425760405162461bcd60e51b815260206004820152600d60248201526c04761735072696365206973203609c1b6044820152606401620004f1565b6021546001600160a01b031662003a975760405162461bcd60e51b815260206004820152601860248201527710dbdb9d1c9858dd081b9bdd081a5b9a5d1a585b1a5e995960421b6044820152606401620004f1565b6021546040516253517560e01b81523360048201819052916000916001600160a01b03909116906253517590602401602060405180830381865afa15801562003ae4573d6000803e3d6000fd5b505050506040513d601f19601f8201168201806040525081019062003b0a919062007051565b90506000601a54118062003b8c575060215460405163facd743b60e01b81526001600160a01b0383811660048301529091169063facd743b90602401602060405180830381865afa15801562003b64573d6000803e3d6000fd5b505050506040513d601f19601f8201168201806040525081019062003b8a91906200700a565b155b62003c005760405162461bcd60e51b815260206004820152602a60248201527f43616e27742072656d6f766520706f6f6c20647572696e67203173742073746160448201527f6b696e672065706f6368000000000000000000000000000000000000000000006064820152608401620004f1565b620010d082620042e8565b6021546001600160a01b0316331462003c5b5760405162461bcd60e51b815260206004820152601160248201527013db9b1e4815985b1a59185d1bdc94d95d607a1b6044820152606401620004f1565b601a805490600062003c6d8362006fc2565b90915550506000601f55565b3a60000362003cbb5760405162461bcd60e51b815260206004820152600d60248201526c04761735072696365206973203609c1b6044820152606401620004f1565b6021546001600160a01b031662003d105760405162461bcd60e51b815260206004820152601860248201527710dbdb9d1c9858dd081b9bdd081a5b9a5d1a585b1a5e995960421b6044820152606401620004f1565b3362003d1e8382846200445e565b62003d2a8183620060f7565b601a54816001600160a01b0316846001600160a01b03167fa7c0f0cac6bd4d18042007706c84a8abe823751cf289b69c01e83eef7b5915c7856040516200392f91815260200190565b600080806001600160a01b038581169085161462003e54576001600160a01b038086166000908152601760209081526040808320938816835292905290812054925082900362003e2c5760405162461bcd60e51b815260206004820152602e60248201527f556e61626c6520746f206765742072657761726420616d6f756e74206966206e60448201527f6f2066697273742065706f63682e0000000000000000000000000000000000006064820152608401620004f1565b506001600160a01b038085166000908152601860209081526040808320938716835292905220545b60215460408051632b5aa5d760e11b815290516000926001600160a01b0316916356b54bae9160048083019260209291908290030181865afa15801562003e9f573d6000803e3d6000fd5b505050506040513d601f19601f8201168201806040525081019062003ec5919062007051565b6021546040516253517560e01b81526001600160a01b038981166004830152929350600092909116906253517590602401602060405180830381865afa15801562003f14573d6000803e3d6000fd5b505050506040513d601f19601f8201168201806040525081019062003f3a919062007051565b9050600080895160000362003fbd5760405163dd03f5b960e01b81526001600160a01b03848116600483015285169063dd03f5b990602401600060405180830381865afa15801562003f90573d6000803e3d6000fd5b505050506040513d6000823e601f3d908101601f1916820160405262003fba919081019062007071565b99505b60005b8a51811015620042da5760008b828151811062003fe15762003fe162006f96565b6020026020010151905081600014806200402257508b6200400460018462006ff4565b8151811062004017576200401762006f96565b602002602001015181115b620040965760405162461bcd60e51b815260206004820152603660248201527f696e7465726e616c204572726f723a205374616b696e672045706f636873207260448201527f6571756972656420746f206265206f7264657265642e000000000000000000006064820152608401620004f1565b601a5481106200410f5760405162461bcd60e51b815260206004820152603c60248201527f696e7465726e616c204572726f723a2065706f6368206d757374206e6f74206260448201527f65206c6573736572207468616e2063757272656e742065706f63682e000000006064820152608401620004f1565b6001600160a01b03808c166000908152601560209081526040808320938e1683529281528282208483529052205460ff16156200414d5750620042c5565b60008a6001600160a01b03168c6001600160a01b0316146200423d57888210156200417a575050620042c5565b8188111580156200418a57508715155b1562004198575050620042da565b620041a7828a878f8f62005223565b9450620041b682600162006fde565b604051631c3572db60e31b815260048101879052602481018490526001600160a01b038881166044830152919a509088169063e1ab96d890606401602060405180830381865afa1580156200420f573d6000803e3d6000fd5b505050506040513d601f19601f820116820180604052508101906200423591906200710b565b9050620042b4565b60405163ba2d759760e01b8152600481018390526001600160a01b03878116602483015288169063ba2d759790604401602060405180830381865afa1580156200428b573d6000803e3d6000fd5b505050506040513d601f19601f82011682018060405250810190620042b191906200710b565b90505b620042c0818562006fde565b935050505b80620042d18162006fc2565b91505062003fc0565b509998505050505050505050565b6001600160a01b038116600090815260126020526040812054905481108015620043445750816001600160a01b0316600082815481106200432d576200432d62006f96565b6000918252602090912001546001600160a01b0316145b156200441b576000805481906200435e9060019062006ff4565b8154811062004371576200437162006f96565b600091825260208220015481546001600160a01b03909116925082919084908110620043a157620043a162006f96565b600091825260208083209190910180546001600160a01b0319166001600160a01b0394851617905583831682526012905260408082208590559185168152908120819055805480620043f757620043f7620072e4565b600082815260209020810160001990810180546001600160a01b0319169055019055505b620044268262004e08565b156200443d57620044378262004e46565b62004448565b62004448826200615f565b620044538262006222565b620010d08262006463565b6001600160a01b038316620044dc5760405162461bcd60e51b815260206004820152602e60248201527f576974686472617720706f6f6c207374616b696e672061646472657373206d7560448201527f7374206e6f74206265206e756c6c0000000000000000000000000000000000006064820152608401620004f1565b806000036200452e5760405162461bcd60e51b815260206004820181905260248201527f616d6f756e7420746f207769746864726177206d757374206e6f7420626520306044820152606401620004f1565b6200453a838362002680565b811115620045b15760405162461bcd60e51b815260206004820152602560248201527f57697468647261773a206d61785769746864726177416c6c6f7765642065786360448201527f65656465640000000000000000000000000000000000000000000000000000006064820152608401620004f1565b6001600160a01b038084166000908152601660209081526040808320938616835292905290812054620045e690839062006ff4565b90506000836001600160a01b0316856001600160a01b0316146200460d57600a5462004611565b6009545b9050811580620046215750808210155b620046955760405162461bcd60e51b815260206004820152603960248201527f6e65775374616b6520616d6f756e74206d75737420626520677265617465722060448201527f657175616c207468616e20746865206d696e207374616b652e000000000000006064820152608401620004f1565b6001600160a01b03858116600081815260166020908152604080832094891680845294825280832087905592825260088152828220938252928352818120601a54825290925290205483811015620046ef576000620046fb565b620046fb848262006ff4565b6001600160a01b038088166000818152600860209081526040808320948b168352938152838220601a5483528152838220949094559081529180529020546200474690859062006ff4565b6001600160a01b0387166000908152602080526040812091909155839003620047755762004775868662005fb6565b856001600160a01b0316856001600160a01b0316146200479b576200479b868662005eaa565b620047a68662005c2f565b505050505050565b6021546040516253517560e01b81526001600160a01b03858116600483015260009216906253517590602401602060405180830381865afa158015620047f8573d6000803e3d6000fd5b505050506040513d601f19601f820116820180604052508101906200481e919062007051565b90506001600160a01b038116620048a0576040805162461bcd60e51b81526020600482015260248101919091527f506f6f6c20646f6573206e6f742065786973742e206d696e696e67416464726560448201527f737320666f722074686174207374616b696e67206164647265737320697320306064820152608401620004f1565b6001600160a01b038416620048f85760405162461bcd60e51b815260206004820152601a60248201527f5374616b653a207374616b696e674164647265737320697320300000000000006044820152606401620004f1565b816000036200494a5760405162461bcd60e51b815260206004820152601960248201527f5374616b653a207374616b696e67416d6f756e742069732030000000000000006044820152606401620004f1565b602154604051635491295760e11b81526001600160a01b0383811660048301529091169063a92252ae90602401602060405180830381865afa15801562004995573d6000803e3d6000fd5b505050506040513d601f19601f82011682018060405250810190620049bb91906200700a565b1562004a0a5760405162461bcd60e51b815260206004820152601f60248201527f5374616b653a204d696e696e6720616464726573732069732062616e6e6564006044820152606401620004f1565b6001600160a01b03841660009081526025602052604090205460ff161562004a755760405162461bcd60e51b815260206004820152601560248201527f5374616b653a20706f6f6c206162616e646f6e656400000000000000000000006044820152606401620004f1565b6001600160a01b03808516600090815260166020908152604080832093871683529290529081205462004aaa90849062006fde565b9050846001600160a01b0316846001600160a01b03160362004b465760095481101562004b405760405162461bcd60e51b815260206004820152603160248201527f5374616b653a2063616e6469646174655374616b65206c657373207468616e2060448201527f63616e6469646174654d696e5374616b650000000000000000000000000000006064820152608401620004f1565b62004c3d565b600a5481101562004bc05760405162461bcd60e51b815260206004820152603460248201527f5374616b653a2064656c656761746f725374616b65206973206c65737320746860448201527f616e2064656c656761746f724d696e5374616b650000000000000000000000006064820152608401620004f1565b6001600160a01b0385166000908152601660209081526040808320909152812054900362004c3d5760405162461bcd60e51b815260206004820152602360248201527f5374616b653a2063616e27742064656c656761746520696e20656d70747920706044820152621bdbdb60ea1b6064820152608401620004f1565b6023546001600160a01b038616600090815260208052604090205462004c6590859062006fde565b111562004cb55760405162461bcd60e51b815260206004820152601d60248201527f7374616b65206c696d697420686173206265656e2065786365656465640000006044820152606401620004f1565b6001600160a01b03858116600081815260166020908152604080832094891680845294825280832086905592825260088152828220938252928352818120601a54825290925290205462004d0b90849062006fde565b6001600160a01b038087166000818152600860209081526040808320948a168352938152838220601a54835281528382209490945590815291805290205462004d5690849062006fde565b6001600160a01b03808716600081815260208052604090209290925585160362004d8d5762004d8785600162005b53565b62004da5565b62004d99858562005ddb565b62004da5858562005eaa565b62004db08562005c2f565b601a54846001600160a01b0316866001600160a01b03167f2273de02cb1f69ba6259d22c4bc22c60e4c94c193265ef6afee324a04a9b6d228660405162004df991815260200190565b60405180910390a45050505050565b6001600160a01b0381166000908152602080526040812054158015620028315750506001600160a01b03166000908152600d60205260409020541590565b6001600160a01b0381166000908152601160205260409020546001548110801562004ea35750816001600160a01b03166001828154811062004e8c5762004e8c62006f96565b6000918252602090912001546001600160a01b0316145b15620010d057600180546000919062004ebe90829062006ff4565b8154811062004ed15762004ed162006f96565b600091825260209091200154600180546001600160a01b03909216925082918490811062004f035762004f0362006f96565b600091825260208083209190910180546001600160a01b0319166001600160a01b039485161790558383168252601190526040808220859055918516815290812055600180548062004f595762004f59620072e4565b600082815260209020810160001990810180546001600160a01b0319169055019055505050565b6001600160a01b038083166000908152600660209081526040808320600f835281842094861684529390915290205481548110801562004ff15750826001600160a01b031682828154811062004fda5762004fda62006f96565b6000918252602090912001546001600160a01b0316145b15620050da57815460009083906200500c9060019062006ff4565b815481106200501f576200501f62006f96565b9060005260206000200160009054906101000a90046001600160a01b031690508083838154811062005055576200505562006f96565b600091825260208083209190910180546001600160a01b0319166001600160a01b039485161790558783168252600f8152604080832085851684529091528082208590559186168152908120558254839080620050b657620050b6620072e4565b600082815260209020810160001990810180546001600160a01b0319169055019055505b6001600160a01b038085166000908152600c602090815260408083209387168352929052205415620051185762005112848462006577565b62005124565b62005124848462006640565b50505050565b804710156200517c5760405162461bcd60e51b815260206004820152601460248201527f496e73756666696369656e742062616c616e63650000000000000000000000006044820152606401620004f1565b6000826001600160a01b03168260405160006040518083038185875af1925050503d8060008114620051cb576040519150601f19603f3d011682016040523d82523d6000602084013e620051d0565b606091505b5050905080620013035760405162461bcd60e51b815260206004820152600f60248201527f5472616e73666572206661696c656400000000000000000000000000000000006044820152606401620004f1565b60005b506001600160a01b038083166000908152600b602090815260408083209385168352928152828220888352905220548015620052785760001981146200526d578062005270565b60005b90506200529d565b848603620052885750826200529d565b856200529481620072fa565b96505062005226565b95945050505050565b7fb53127684a568b3173ae13b9f8a6016e243e63b6e8ee1178d6a717850b5d6103546001600160a01b0316336001600160a01b031614806200531a57507fb53127684a568b3173ae13b9f8a6016e243e63b6e8ee1178d6a717850b5d6103546001600160a01b0316326001600160a01b0316145b806200534e57507fb53127684a568b3173ae13b9f8a6016e243e63b6e8ee1178d6a717850b5d6103546001600160a01b0316155b8062005358575043155b620053cc5760405162461bcd60e51b815260206004820152603060248201527f496e697469616c697a6174696f6e206f6e6c79206f6e2067656e65736973206260448201527f6c6f636b206f722062792061646d696e000000000000000000000000000000006064820152608401620004f1565b6021546001600160a01b031615620054275760405162461bcd60e51b815260206004820152601360248201527f416c726561647920696e697469616c697a6564000000000000000000000000006044820152606401620004f1565b6001600160a01b0387166200547f5760405162461bcd60e51b815260206004820152601760248201527f56616c696461746f725365742063616e277420626520300000000000000000006044820152606401620004f1565b6000865111620054f85760405162461bcd60e51b815260206004820152602560248201527f4d7573742070726f7669646520696e697469616c206d696e696e67206164647260448201527f65737365730000000000000000000000000000000000000000000000000000006064820152608401620004f1565b815186516200550990600262007314565b146200557e5760405162461bcd60e51b815260206004820152602960248201527f4d7573742070726f7669646520636f7272656374206e756d626572206f66207060448201527f75626c69634b65797300000000000000000000000000000000000000000000006064820152608401620004f1565b8051865114620055f75760405162461bcd60e51b815260206004820152602a60248201527f4d7573742070726f7669646520636f7272656374206e756d626572206f66204960448201527f50206164726573736573000000000000000000000000000000000000000000006064820152608401620004f1565b84600003620056495760405162461bcd60e51b815260206004820152601660248201527f44656c656761746f724d696e5374616b652069732030000000000000000000006044820152606401620004f1565b836000036200569b5760405162461bcd60e51b815260206004820152601660248201527f43616e6469646174654d696e5374616b652069732030000000000000000000006044820152606401620004f1565b838311620057125760405162461bcd60e51b815260206004820152603160248201527f6d6178696d756d207374616b65206d757374206265206772656174657220746860448201527f656e206d696e696d756d207374616b652e0000000000000000000000000000006064820152608401620004f1565b602180546001600160a01b0319166001600160a01b03891617905560005b8651811015620059915760006001600160a01b03168782815181106200575a576200575a62006f96565b60200260200101516001600160a01b031603620057c55760405162461bcd60e51b815260206004820152602260248201527f496e697469616c5374616b696e674164647265737365732063616e2774206265604482015261020360f41b6064820152608401620004f1565b620057ee878281518110620057de57620057de62006f96565b6020026020010151600062005b53565b6200581587828151811062005807576200580762006f96565b602002602001015162005d10565b826200582382600262007314565b8151811062005836576200583662006f96565b6020026020010151838260026200584e919062007314565b6200585b90600162006fde565b815181106200586e576200586e62006f96565b602002602001015160405160200162005891929190918252602082015260400190565b60405160208183030381529060405260226000898481518110620058b957620058b962006f96565b60200260200101516001600160a01b03166001600160a01b031681526020019081526020016000206000019081620058f291906200732e565b5081818151811062005908576200590862006f96565b60200260200101516022600089848151811062005929576200592962006f96565b60200260200101516001600160a01b03166001600160a01b0316815260200190815260200160002060010160006101000a8154816fffffffffffffffffffffffffffffffff021916908360801c02179055508080620059889062006fc2565b91505062005730565b50600a8590556009849055602383905560215460408051632b5aa5d760e11b815290516001600160a01b03909216916356b54bae916004808201926020929091908290030181865afa158015620059ec573d6000803e3d6000fd5b505050506040513d601f19601f8201168201806040525081019062005a12919062007051565b602480546001600160a01b0319166001600160a01b039290921691909117905550505050505050565b6000811562005aca5760215460405163a881c5fd60e01b81526001600160a01b0385811660048301529091169063a881c5fd90602401602060405180830381865afa15801562005a8f573d6000803e3d6000fd5b505050506040513d601f19601f8201168201806040525081019062005ab591906200700a565b1562005ac45750600062002831565b62005b4a565b602154604051635491295760e11b81526001600160a01b0385811660048301529091169063a92252ae90602401602060405180830381865afa15801562005b15573d6000803e3d6000fd5b505050506040513d601f19601f8201168201806040525081019062005b3b91906200700a565b1562005b4a5750600062002831565b50600192915050565b62005b5e8262002e92565b62005c1257600080546001600160a01b0384168083526012602052604083208290556001820183559180527f290decd9548b62a8d60345a988386fc84ba6bc95484008f6362f93160ef3e5630180546001600160a01b0319169091179055610bb8600054111562005c125760405162461bcd60e51b815260206004820152601d60248201527f4d41585f43414e4449444154455320706f6f6c732065786365656465640000006044820152606401620004f1565b62005c1d8262004e46565b8015620010d057620010d0826200679f565b60008062005c3d836200689b565b915091508162005c4c57505050565b60006004828154811062005c645762005c6462006f96565b90600052602060002001549050600060206000866001600160a01b03166001600160a01b03168152602001908152602001600020549050806004848154811062005cb25762005cb262006f96565b60009182526020909120015581811062005cea5762005cd2828262006ff4565b60055462005ce1919062006fde565b60055562005d09565b62005cf6818362006ff4565b60055462005d05919062006ff4565b6005555b5050505050565b6001600160a01b038116600090815260146020526040902054600354808210158062005d6f5750826001600160a01b03166003838154811062005d575762005d5762006f96565b6000918252602090912001546001600160a01b031614155b1562005dd0576001600160a01b03831660008181526014602052604081208390556003805460018101825591527fc2575a0e9e593c00f959f8c92f12db2869c3395a3b0502d05e2516446f71f85b0180546001600160a01b03191690911790555b620013038362006222565b6001600160a01b038083166000908152600660209081526040808320600f83528184209486168452939091529020548154808210158062005e4e5750836001600160a01b031683838154811062005e365762005e3662006f96565b6000918252602090912001546001600160a01b031614155b1562005e9e576001600160a01b038086166000908152600f602090815260408083209388168084529382528220849055855460018101875586835291200180546001600160a01b03191690911790555b62005d09858562006640565b6000601a54600162005ebd919062006fde565b6001600160a01b03808516600090815260166020908152604080832093871683529290529081205491925081900362005ef95760001962005efb565b805b6001600160a01b038086166000818152600b602090815260408083209489168084529482528083208884528252808320959095559181526017825283812092815291905290812054900362005f73576001600160a01b0380851660009081526017602090815260408083209387168352929052208290555b801562005f8257600062005f84565b815b6001600160a01b0394851660009081526018602090815260408083209690971682529490945293909220929092555050565b816001600160a01b0316816001600160a01b031603620060cf576021546040516253517560e01b81526001600160a01b03848116600483015260009216906253517590602401602060405180830381865afa1580156200601a573d6000803e3d6000fd5b505050506040513d601f19601f8201168201806040525081019062006040919062007051565b60215460405163facd743b60e01b81526001600160a01b03808416600483015292935091169063facd743b90602401602060405180830381865afa1580156200608d573d6000803e3d6000fd5b505050506040513d601f19601f82011682018060405250810190620060b391906200700a565b15620060c457620013038362005d10565b6200130383620042e8565b620060db828262004f80565b620060e68262004e08565b15620010d057620010d08262004e46565b6040516001600160a01b0383169082156108fc029083906000818181858888f19350505050620010d0578082604051620061319062006912565b6001600160a01b0390911681526020016040518091039082f090508015801562005124573d6000803e3d6000fd5b6001600160a01b0381166000908152601160205260409020546001548082101580620061be5750826001600160a01b031660018381548110620061a657620061a662006f96565b6000918252602090912001546001600160a01b031614155b1562001303576001600160a01b038316600081815260116020526040812083905560018054808201825591527fb10e2d527612073b26eecdfd717e6a320cf44b4afac2b0732d9fcbe2b7fa0cf60180546001600160a01b0319169091179055505050565b60045460025414620062315750565b6001600160a01b038116600090815260136020526040902054600254811080156200628e5750816001600160a01b03166002828154811062006277576200627762006f96565b6000918252602090912001546001600160a01b0316145b15620010d05760048181548110620062aa57620062aa62006f96565b906000526020600020015460055410620062fe5760048181548110620062d457620062d462006f96565b906000526020600020015460056000828254620062f2919062006ff4565b90915550620063049050565b60006005555b600254600090620063189060019062006ff4565b905060006002828154811062006332576200633262006f96565b600091825260209091200154600280546001600160a01b03909216925082918590811062006364576200636462006f96565b9060005260206000200160006101000a8154816001600160a01b0302191690836001600160a01b0316021790555060048281548110620063a857620063a862006f96565b906000526020600020015460048481548110620063c957620063c962006f96565b60009182526020808320909101929092556001600160a01b038084168252601390925260408082208690559186168152908120556002805480620064115762006411620072e4565b600082815260209020810160001990810180546001600160a01b03191690550190556004805480620064475762006447620072e4565b6001900381819060005260206000200160009055905550505050565b6001600160a01b03811660009081526014602052604090205460035481108015620064c05750816001600160a01b031660038281548110620064a957620064a962006f96565b6000918252602090912001546001600160a01b0316145b15620010d0576003805460009190620064dc9060019062006ff4565b81548110620064ef57620064ef62006f96565b600091825260209091200154600380546001600160a01b03909216925082918490811062006521576200652162006f96565b600091825260208083209190910180546001600160a01b0319166001600160a01b039485161790558383168252601490526040808220859055918516815290812055600380548062004f595762004f59620072e4565b6001600160a01b0380831660009081526007602090815260408083206010835281842094861684529390915290205481548082101580620065ea5750836001600160a01b0316838381548110620065d257620065d262006f96565b6000918252602090912001546001600160a01b031614155b1562005d09576001600160a01b0380861660009081526010602090815260408083209388168084529382528220849055855460018101875586835291200180546001600160a01b03191690911790555050505050565b6001600160a01b03808316600090815260076020908152604080832060108352818420948616845293909152902054815481108015620066b15750826001600160a01b03168282815481106200669a576200669a62006f96565b6000918252602090912001546001600160a01b0316145b15620051245781546000908390620066cc9060019062006ff4565b81548110620066df57620066df62006f96565b9060005260206000200160009054906101000a90046001600160a01b031690508083838154811062006715576200671562006f96565b600091825260208083209190910180546001600160a01b0319166001600160a01b03948516179055878316825260108152604080832085851684529091528082208590559186168152908120558254839080620067765762006776620072e4565b600082815260209020810160001990810180546001600160a01b03191690550190555050505050565b6001600160a01b0381166000908152601360205260409020546002548082101580620067fe5750826001600160a01b031660028381548110620067e657620067e662006f96565b6000918252602090912001546001600160a01b031614155b1562006890576001600160a01b03831660008181526013602052604081208390556002805460018181019092557f405787fa12a823e0f2b7631cc41b3ba8828b3321ca811111fa75cd3aa3bb5ace0180546001600160a01b03191690931790925560048054928301815581527f8a35acfbc15ff81a39ae7d344fd709f28e8600b4aa8c65c6b64bfe7fe36bd19b909101555b620013038362006463565b6001600160a01b03811660009081526013602052604081205460025481108015620068f85750826001600160a01b031660028281548110620068e157620068e162006f96565b6000918252602090912001546001600160a01b0316145b15620069075760019150915091565b506000928392509050565b605980620073fc83390190565b6001600160a01b0381168114620018ef57600080fd5b6000806000606084860312156200694b57600080fd5b833562006958816200691f565b925060208401356200696a816200691f565b929592945050506040919091013590565b600080604083850312156200698f57600080fd5b82356200699c816200691f565b91506020830135620069ae816200691f565b809150509250929050565b600060208284031215620069cc57600080fd5b813562002eee816200691f565b600060208284031215620069ec57600080fd5b5035919050565b634e487b7160e01b600052604160045260246000fd5b604051601f8201601f1916810167ffffffffffffffff8111828210171562006a355762006a35620069f3565b604052919050565b600067ffffffffffffffff82111562006a5a5762006a5a620069f3565b5060051b60200190565b600082601f83011262006a7657600080fd5b8135602062006a8f62006a898362006a3d565b62006a09565b82815260059290921b8401810191818101908684111562006aaf57600080fd5b8286015b8481101562006acc578035835291830191830162006ab3565b509695505050505050565b6000806040838503121562006aeb57600080fd5b823567ffffffffffffffff81111562006b0357600080fd5b62006b118582860162006a64565b9250506020830135620069ae816200691f565b60008083601f84011262006b3757600080fd5b50813567ffffffffffffffff81111562006b5057600080fd5b6020830191508360208260051b850101111562006b6c57600080fd5b9250929050565b60008060008060006060868803121562006b8c57600080fd5b853567ffffffffffffffff8082111562006ba557600080fd5b90870190610100828a03121562006bbb57600080fd5b9095506020870135908082111562006bd257600080fd5b62006be089838a0162006b24565b9096509450604088013591508082111562006bfa57600080fd5b5062006c098882890162006b24565b969995985093965092949392505050565b6000815180845260005b8181101562006c425760208185018101518683018201520162006c24565b506000602082860101526020601f19601f83011685010191505092915050565b60208152600062002eee602083018462006c1a565b60008083601f84011262006c8a57600080fd5b50813567ffffffffffffffff81111562006ca357600080fd5b60208301915083602082850101111562006b6c57600080fd5b80356fffffffffffffffffffffffffffffffff198116811462006cde57600080fd5b919050565b6000806000806060858703121562006cfa57600080fd5b843562006d07816200691f565b9350602085013567ffffffffffffffff81111562006d2457600080fd5b62006d328782880162006c77565b909450925062006d4790506040860162006cbc565b905092959194509250565b6020808252825182820181905260009190848201906040850190845b8181101562006d955783516001600160a01b03168352928401929184019160010162006d6e565b50909695505050505050565b80356001600160f01b03198116811462006cde57600080fd5b60008060006060848603121562006dd057600080fd5b833562006ddd816200691f565b925062006ded6020850162006cbc565b915062006dfd6040850162006da1565b90509250925092565b6000806000806060858703121562006e1d57600080fd5b843567ffffffffffffffff81111562006e3557600080fd5b62006e438782880162006c77565b909550935062006e5890506020860162006cbc565b915062006d476040860162006da1565b604080825283519082018190526000906020906060840190828701845b8281101562006ea35781518452928401929084019060010162006e85565b50505092019290925292915050565b60608152600062006ec7606083018662006c1a565b6fffffffffffffffffffffffffffffffff19949094166020830152506001600160f01b031991909116604090910152919050565b6000806040838503121562006f0f57600080fd5b823562006f1c816200691f565b946020939093013593505050565b60008060006060848603121562006f4057600080fd5b833567ffffffffffffffff81111562006f5857600080fd5b62006f668682870162006a64565b935050602084013562006f79816200691f565b9150604084013562006f8b816200691f565b809150509250925092565b634e487b7160e01b600052603260045260246000fd5b634e487b7160e01b600052601160045260246000fd5b60006001820162006fd75762006fd762006fac565b5060010190565b8082018082111562002831576200283162006fac565b8181038181111562002831576200283162006fac565b6000602082840312156200701d57600080fd5b8151801515811462002eee57600080fd5b6000826200704c57634e487b7160e01b600052601260045260246000fd5b500490565b6000602082840312156200706457600080fd5b815162002eee816200691f565b600060208083850312156200708557600080fd5b825167ffffffffffffffff8111156200709d57600080fd5b8301601f81018513620070af57600080fd5b8051620070c062006a898262006a3d565b81815260059190911b82018301908381019087831115620070e057600080fd5b928401925b828410156200710057835182529284019290840190620070e5565b979650505050505050565b6000602082840312156200711e57600080fd5b5051919050565b6000808335601e198436030181126200713d57600080fd5b83018035915067ffffffffffffffff8211156200715957600080fd5b6020019150600581901b360382131562006b6c57600080fd5b600181811c908216806200718757607f821691505b602082108103620071a857634e487b7160e01b600052602260045260246000fd5b50919050565b601f8211156200130357600081815260208120601f850160051c81016020861015620071d75750805b601f850160051c820191505b81811015620047a657828155600101620071e3565b67ffffffffffffffff831115620072135762007213620069f3565b6200722b8362007224835462007172565b83620071ae565b6000601f841160018114620072625760008515620072495750838201355b600019600387901b1c1916600186901b17835562005d09565b600083815260209020601f19861690835b8281101562007295578685013582556020948501946001909201910162007273565b5086821015620072b35760001960f88860031b161c19848701351681555b505060018560011b0183555050505050565b6000600160ff1b8201620072dd57620072dd62006fac565b5060000390565b634e487b7160e01b600052603160045260246000fd5b6000816200730c576200730c62006fac565b506000190190565b808202811582820484141762002831576200283162006fac565b815167ffffffffffffffff8111156200734b576200734b620069f3565b62007363816200735c845462007172565b84620071ae565b602080601f8311600181146200739b5760008415620073825750858301515b600019600386901b1c1916600185901b178555620047a6565b600085815260208120601f198616915b82811015620073cc57888601518255948401946001909101908401620073ab565b5085821015620073eb5787850151600019600388901b60f8161c191681555b5050505050600190811b0190555056fe608060405260405160593803806059833981016040819052601e91602a565b806001600160a01b0316ff5b600060208284031215603b57600080fd5b81516001600160a01b0381168114605157600080fd5b939250505056fea2646970667358221220e09a673d7cde52d4707c955dd558e2bd0f6cbe9f49611a54c160ac19fc7b030464736f6c63430008110033",
  "linkReferences": {},
  "deployedLinkReferences": {}
}