{
  "_format": "hh-sol-artifact-1",
  "contractName": "TxPermissionHbbft",
  "sourceName": "contracts/TxPermissionHbbft.sol",
  "abi": [
    {
      "inputs": [],
      "stateMutability": "nonpayable",
      "type": "constructor"
    },
    {
      "anonymous": false,
      "inputs": [
        {
          "indexed": false,
          "internalType": "uint8",
          "name": "version",
          "type": "uint8"
        }
      ],
      "name": "Initialized",
      "type": "event"
    },
    {
      "anonymous": false,
      "inputs": [
        {
          "indexed": true,
          "internalType": "address",
          "name": "previousOwner",
          "type": "address"
        },
        {
          "indexed": true,
          "internalType": "address",
          "name": "newOwner",
          "type": "address"
        }
      ],
      "name": "OwnershipTransferred",
      "type": "event"
    },
    {
      "anonymous": false,
      "inputs": [
        {
          "indexed": false,
          "internalType": "uint256",
          "name": "_value",
          "type": "uint256"
        }
      ],
      "name": "gasPriceChanged",
      "type": "event"
    },
    {
      "inputs": [],
      "name": "ANNOUNCE_AVAILABILITY_SIGNATURE",
      "outputs": [
        {
          "internalType": "bytes4",
          "name": "",
          "type": "bytes4"
        }
      ],
      "stateMutability": "view",
      "type": "function"
    },
    {
      "inputs": [],
      "name": "REPORT_MALICIOUS_SIGNATURE",
      "outputs": [
        {
          "internalType": "bytes4",
          "name": "",
          "type": "bytes4"
        }
      ],
      "stateMutability": "view",
      "type": "function"
    },
    {
      "inputs": [],
      "name": "REPORT_MISSING_CONNECTIVITY_SELECTOR",
      "outputs": [
        {
          "internalType": "bytes4",
          "name": "",
          "type": "bytes4"
        }
      ],
      "stateMutability": "view",
      "type": "function"
    },
    {
      "inputs": [],
      "name": "REPORT_RECONNECT_SELECTOR",
      "outputs": [
        {
          "internalType": "bytes4",
          "name": "",
          "type": "bytes4"
        }
      ],
      "stateMutability": "view",
      "type": "function"
    },
    {
      "inputs": [],
      "name": "SET_VALIDATOR_IP",
      "outputs": [
        {
          "internalType": "bytes4",
          "name": "",
          "type": "bytes4"
        }
      ],
      "stateMutability": "view",
      "type": "function"
    },
    {
      "inputs": [],
      "name": "WRITE_ACKS_SIGNATURE",
      "outputs": [
        {
          "internalType": "bytes4",
          "name": "",
          "type": "bytes4"
        }
      ],
      "stateMutability": "view",
      "type": "function"
    },
    {
      "inputs": [],
      "name": "WRITE_PART_SIGNATURE",
      "outputs": [
        {
          "internalType": "bytes4",
          "name": "",
          "type": "bytes4"
        }
      ],
      "stateMutability": "view",
      "type": "function"
    },
    {
      "inputs": [
        {
          "internalType": "address",
          "name": "_sender",
          "type": "address"
        }
      ],
      "name": "addAllowedSender",
      "outputs": [],
      "stateMutability": "nonpayable",
      "type": "function"
    },
    {
      "inputs": [],
      "name": "allowedSenders",
      "outputs": [
        {
          "internalType": "address[]",
          "name": "",
          "type": "address[]"
        }
      ],
      "stateMutability": "view",
      "type": "function"
    },
    {
      "inputs": [
        {
          "internalType": "address",
          "name": "_sender",
          "type": "address"
        },
        {
          "internalType": "address",
          "name": "_to",
          "type": "address"
        },
        {
          "internalType": "uint256",
          "name": "",
          "type": "uint256"
        },
        {
          "internalType": "uint256",
          "name": "_gasPrice",
          "type": "uint256"
        },
        {
          "internalType": "bytes",
          "name": "_data",
          "type": "bytes"
        }
      ],
      "name": "allowedTxTypes",
      "outputs": [
        {
          "internalType": "uint32",
          "name": "typesMask",
          "type": "uint32"
        },
        {
          "internalType": "bool",
          "name": "cache",
          "type": "bool"
        }
      ],
      "stateMutability": "view",
      "type": "function"
    },
    {
      "inputs": [],
      "name": "blockGasLimit",
      "outputs": [
        {
          "internalType": "uint256",
          "name": "",
          "type": "uint256"
        }
      ],
      "stateMutability": "view",
      "type": "function"
    },
    {
      "inputs": [],
      "name": "certifierContract",
      "outputs": [
        {
          "internalType": "contract ICertifier",
          "name": "",
          "type": "address"
        }
      ],
      "stateMutability": "view",
      "type": "function"
    },
    {
      "inputs": [],
      "name": "connectivityTracker",
      "outputs": [
        {
          "internalType": "contract IConnectivityTrackerHbbft",
          "name": "",
          "type": "address"
        }
      ],
      "stateMutability": "view",
      "type": "function"
    },
    {
      "inputs": [],
      "name": "contractName",
      "outputs": [
        {
          "internalType": "string",
          "name": "",
          "type": "string"
        }
      ],
      "stateMutability": "pure",
      "type": "function"
    },
    {
      "inputs": [],
      "name": "contractNameHash",
      "outputs": [
        {
          "internalType": "bytes32",
          "name": "",
          "type": "bytes32"
        }
      ],
      "stateMutability": "pure",
      "type": "function"
    },
    {
      "inputs": [],
      "name": "contractVersion",
      "outputs": [
        {
          "internalType": "uint256",
          "name": "",
          "type": "uint256"
        }
      ],
      "stateMutability": "pure",
      "type": "function"
    },
    {
      "inputs": [
        {
          "internalType": "address[]",
          "name": "_allowed",
          "type": "address[]"
        },
        {
          "internalType": "address",
          "name": "_certifier",
          "type": "address"
        },
        {
          "internalType": "address",
          "name": "_validatorSet",
          "type": "address"
        },
        {
          "internalType": "address",
          "name": "_keyGenHistoryContract",
          "type": "address"
        },
        {
          "internalType": "address",
          "name": "_connectivityTracker",
          "type": "address"
        },
        {
          "internalType": "address",
          "name": "_contractOwner",
          "type": "address"
        }
      ],
      "name": "initialize",
      "outputs": [],
      "stateMutability": "nonpayable",
      "type": "function"
    },
    {
      "inputs": [
        {
          "internalType": "address",
          "name": "",
          "type": "address"
        }
      ],
      "name": "isSenderAllowed",
      "outputs": [
        {
          "internalType": "bool",
          "name": "",
          "type": "bool"
        }
      ],
      "stateMutability": "view",
      "type": "function"
    },
    {
      "inputs": [],
      "name": "keyGenHistoryContract",
      "outputs": [
        {
          "internalType": "contract IKeyGenHistory",
          "name": "",
          "type": "address"
        }
      ],
      "stateMutability": "view",
      "type": "function"
    },
    {
      "inputs": [],
      "name": "minimumGasPrice",
      "outputs": [
        {
          "internalType": "uint256",
          "name": "",
          "type": "uint256"
        }
      ],
      "stateMutability": "view",
      "type": "function"
    },
    {
      "inputs": [],
      "name": "owner",
      "outputs": [
        {
          "internalType": "address",
          "name": "",
          "type": "address"
        }
      ],
      "stateMutability": "view",
      "type": "function"
    },
    {
      "inputs": [
        {
          "internalType": "address",
          "name": "_sender",
          "type": "address"
        }
      ],
      "name": "removeAllowedSender",
      "outputs": [],
      "stateMutability": "nonpayable",
      "type": "function"
    },
    {
      "inputs": [],
      "name": "renounceOwnership",
      "outputs": [],
      "stateMutability": "nonpayable",
      "type": "function"
    },
    {
      "inputs": [
        {
          "internalType": "uint256",
          "name": "_value",
          "type": "uint256"
        }
      ],
      "name": "setBlockGasLimit",
      "outputs": [],
      "stateMutability": "nonpayable",
      "type": "function"
    },
    {
      "inputs": [
        {
          "internalType": "address",
          "name": "_connectivityTracker",
          "type": "address"
        }
      ],
      "name": "setConnectivityTracker",
      "outputs": [],
      "stateMutability": "nonpayable",
      "type": "function"
    },
    {
      "inputs": [
        {
          "internalType": "uint256",
          "name": "_value",
          "type": "uint256"
        }
      ],
      "name": "setMinimumGasPrice",
      "outputs": [],
      "stateMutability": "nonpayable",
      "type": "function"
    },
    {
      "inputs": [
        {
          "internalType": "address",
          "name": "newOwner",
          "type": "address"
        }
      ],
      "name": "transferOwnership",
      "outputs": [],
      "stateMutability": "nonpayable",
      "type": "function"
    },
    {
      "inputs": [],
      "name": "validatorSetContract",
      "outputs": [
        {
          "internalType": "contract IValidatorSetHbbft",
          "name": "",
          "type": "address"
        }
      ],
      "stateMutability": "view",
      "type": "function"
    }
  ],
  "bytecode": "0x608060405234801561001057600080fd5b5061001961001e565b6100dd565b600054610100900460ff161561008a5760405162461bcd60e51b815260206004820152602760248201527f496e697469616c697a61626c653a20636f6e747261637420697320696e697469604482015266616c697a696e6760c81b606482015260840160405180910390fd5b60005460ff908116146100db576000805460ff191660ff9081179091556040519081527f7f26b83ff96e1f2b6a682f133852f6798a09c465da95921460cefb38474024989060200160405180910390a15b565b61227680620000ed6000396000f3fe608060405234801561001057600080fd5b50600436106101c45760003560e01c806379167bdd116100f9578063c746c8f411610097578063df3cecf611610071578063df3cecf6146103d0578063dfc8bf4e146103d9578063efc78401146103ec578063f2fde38b1461041f57600080fd5b8063c746c8f41461039c578063d249b31c146103af578063d3ae7965146103c257600080fd5b8063a69257f3116100d3578063a69257f314610334578063b47aef1f14610347578063b9056afa1461035a578063c374bc231461038957600080fd5b806379167bdd1461030e5780638da5cb5b1461031c578063a0a8e4601461032d57600080fd5b8063669554691161016657806375d0c0dc1161014057806375d0c0dc146102a5578063782f0177146102e45780637877a797146102f257806378ff69d5146102fb57600080fd5b8063669554691461027c5780637086bcc11461028f578063715018a61461029d57600080fd5b80633272b28c116101a25780633272b28c1461022e578063469ab1e314610243578063471eab5c146102595780635f0664bf1461026e57600080fd5b80631a9ebeaa146101c957806324bdf37b146101f9578063305d526c14610220575b600080fd5b6066546101dc906001600160a01b031681565b6040516001600160a01b0390911681526020015b60405180910390f35b61020763a42bdee960e01b81565b6040516001600160e01b031990911681526020016101f0565b610207632b11904760e11b81565b610236610432565b6040516101f09190611c9f565b61024b610494565b6040519081526020016101f0565b61026c610267366004611d11565b6104fb565b005b6102076343bcce9f60e01b81565b606c546101dc906001600160a01b031681565b6102076324473b9d60e21b81565b61026c61064c565b604080518082018252601681527f54585f5045524d495353494f4e5f434f4e545241435400000000000000000000602082015290516101f09190611d59565b610207630b53784960e21b81565b61024b606b5481565b61026c610309366004611d11565b610660565b610207630311db7560e61b81565b6033546001600160a01b03166101dc565b600361024b565b61026c610342366004611d8c565b61068a565b6067546101dc906001600160a01b031681565b61036d610368366004611dbb565b610715565b6040805163ffffffff90931683529015156020830152016101f0565b61026c610397366004611ea5565b6112a7565b61026c6103aa366004611d11565b611666565b61026c6103bd366004611d8c565b61167a565b61020763b2a6842160e01b81565b61024b606a5481565b6069546101dc906001600160a01b031681565b61040f6103fa366004611d11565b60686020526000908152604090205460ff1681565b60405190151581526020016101f0565b61026c61042d366004611d11565b611715565b6060606580548060200260200160405190810160405280929190818152602001828054801561048a57602002820191906000526020600020905b81546001600160a01b0316815260019091019060200180831161046c575b5050505050905090565b60006104d060408051808201909152601681527f54585f5045524d495353494f4e5f434f4e545241435400000000000000000000602082015290565b6040516020016104e09190611f6c565b60405160208183030381529060405280519060200120905090565b6105036117a2565b6001600160a01b03811660009081526068602052604090205460ff1661052857600080fd5b60655460005b81811015610629576065818154811061054957610549611f88565b6000918252602090912001546001600160a01b0390811690841603610617576065610575600184611fb4565b8154811061058557610585611f88565b600091825260209091200154606580546001600160a01b0390921691839081106105b1576105b1611f88565b9060005260206000200160006101000a8154816001600160a01b0302191690836001600160a01b0316021790555060658054806105f0576105f0611fc7565b600082815260209020810160001990810180546001600160a01b0319169055019055610629565b8061062181611fdd565b91505061052e565b50506001600160a01b03166000908152606860205260409020805460ff19169055565b6106546117a2565b61065e60006117fc565b565b6106686117a2565b606c80546001600160a01b0319166001600160a01b0392909216919091179055565b6106926117a2565b620f42408110156107105760405162461bcd60e51b815260206004820152603660248201527f426c6f636b20476173206c696d697420676173207072696365206d757374206260448201527f65206174206d696e696d756d20312c3030302c3030300000000000000000000060648201526084015b60405180910390fd5b606b55565b6001600160a01b038516600090815260686020526040812054819060ff1615610747575063ffffffff9050600061129d565b6000805b600485511015801561075d5750600481105b156107bf5761076d816008611ff6565b85828151811061077f5761077f611f88565b01602001517fff0000000000000000000000000000000000000000000000000000000000000016901c9190911790806107b781611fdd565b91505061074b565b506069546001600160a01b0390811690881603610be05762ee248b60e61b6001600160e01b03198216016109105760006040600486516107ff9190611fb4565b1161081757600485516108129190611fb4565b61081a565b60405b9050600061082a8683600461184e565b905060008082806020019051810190610843919061200d565b915091506000606960009054906101000a90046001600160a01b03166001600160a01b031663a670eb568e85856040518463ffffffff1660e01b81526004016108ad939291906001600160a01b039384168152919092166020820152604081019190915260600190565b6040805180830381865afa1580156108c9573d6000803e3d6000fd5b505050506040513d601f19601f820116820180604052508101906108ed919061204b565b509050806108fc5760006108ff565b60025b60009750975050505050505061129d565b63bc43316160e01b6001600160e01b03198216016109b057606954604051630f51726f60e41b81526001600160a01b038a811660048301529091169063f51726f090602401602060405180830381865afa158015610972573d6000803e3d6000fd5b505050506040513d601f19601f82011682018060405250810190610996919061207e565b6109a15760006109a4565b60025b6000925092505061129d565b635bd4211760e01b6001600160e01b0319821601610b54576069546040516307b9342f60e21b81526001600160a01b038a811660048301526000921690631ee4d0bc90602401602060405180830381865afa158015610a13573d6000803e3d6000fd5b505050506040513d601f19601f82011682018060405250810190610a379190612099565b90506001600160a01b03811615610b4657606960009054906101000a90046001600160a01b03166001600160a01b0316638e68dce46040518163ffffffff1660e01b8152600401602060405180830381865afa158015610a9b573d6000803e3d6000fd5b505050506040513d601f19601f82011682018060405250810190610abf9190612099565b60405163a711e6a160e01b81526001600160a01b038381166004830152919091169063a711e6a190602401602060405180830381865afa158015610b07573d6000803e3d6000fd5b505050506040513d601f19601f82011682018060405250810190610b2b919061207e565b610b36576000610b39565b60025b600093509350505061129d565b60008093509350505061129d565b8415610be05760695460405163facd743b60e01b81526001600160a01b038a811660048301529091169063facd743b90602401602060405180830381865afa158015610ba4573d6000803e3d6000fd5b505050506040513d601f19601f82011682018060405250810190610bc8919061207e565b610bd35760026109a4565b600080925092505061129d565b6067546001600160a01b0390811690881603611067576334ac87b760e21b6001600160e01b0319821601610db15760695460405163014e28d960e41b81526001600160a01b038a8116600483015260019216906314e28d9090602401602060405180830381865afa158015610c59573d6000803e3d6000fd5b505050506040513d601f19601f82011682018060405250810190610c7d91906120cc565b6005811115610c8e57610c8e6120b6565b03610bd357602484511015610caa57600080925092505061129d565b6000610cb7600486611923565b9050606960009054906101000a90046001600160a01b03166001600160a01b0316638e68dce46040518163ffffffff1660e01b8152600401602060405180830381865afa158015610d0c573d6000803e3d6000fd5b505050506040513d601f19601f82011682018060405250810190610d309190612099565b6001600160a01b031663794c0c686040518163ffffffff1660e01b8152600401602060405180830381865afa158015610d6d573d6000803e3d6000fd5b505050506040513d601f19601f82011682018060405250810190610d9191906120ed565b610d9c906001612106565b8103610b46576002600093509350505061129d565b6354ee6fb960e11b6001600160e01b03198216016110675760695460405163014e28d960e41b81526001600160a01b038a8116600483015260039216906314e28d9090602401602060405180830381865afa158015610e14573d6000803e3d6000fd5b505050506040513d601f19601f82011682018060405250810190610e3891906120cc565b6005811115610e4957610e496120b6565b03610bd357602484511015610e6557600080925092505061129d565b606960009054906101000a90046001600160a01b03166001600160a01b0316638e68dce46040518163ffffffff1660e01b8152600401602060405180830381865afa158015610eb8573d6000803e3d6000fd5b505050506040513d601f19601f82011682018060405250810190610edc9190612099565b6001600160a01b031663794c0c686040518163ffffffff1660e01b8152600401602060405180830381865afa158015610f19573d6000803e3d6000fd5b505050506040513d601f19601f82011682018060405250810190610f3d91906120ed565b610f48906001612106565b610f53600486611923565b03610f665760026000925092505061129d565b606960009054906101000a90046001600160a01b03166001600160a01b0316638e68dce46040518163ffffffff1660e01b8152600401602060405180830381865afa158015610fb9573d6000803e3d6000fd5b505050506040513d601f19601f82011682018060405250810190610fdd9190612099565b6001600160a01b031663794c0c686040518163ffffffff1660e01b8152600401602060405180830381865afa15801561101a573d6000803e3d6000fd5b505050506040513d601f19601f8201168201806040525081019061103e91906120ed565b611049906001612106565b611054602486611923565b03610bd35760026000925092505061129d565b606c546001600160a01b03908116908816036110c6576001600160e01b031981166324473b9d60e21b14806110ac57506001600160e01b0319811663b2a6842160e01b145b156110c6576110bc8882866119a7565b925092505061129d565b60695460405163facd743b60e01b81526001600160a01b038a811660048301529091169063facd743b90602401602060405180830381865afa158015611110573d6000803e3d6000fd5b505050506040513d601f19601f82011682018060405250810190611134919061207e565b80156111405750600085115b1561116c576000886001600160a01b0316311161115e5760006109a4565b60016000925092505061129d565b60695460405163facd743b60e01b81526001600160a01b0389811660048301529091169063facd743b90602401602060405180830381865afa1580156111b6573d6000803e3d6000fd5b505050506040513d601f19601f820116820180604052508101906111da919061207e565b156111ec57600080925092505061129d565b8460000361127e576066546040516303a388eb60e61b81526001600160a01b038a811660048301529091169063e8e23ac090602401602060405180830381865afa15801561123e573d6000803e3d6000fd5b505050506040513d601f19601f82011682018060405250810190611262919061207e565b61126d5760006109a4565b63ffffffff6000925092505061129d565b606a5485101561128f576000611295565b63ffffffff5b600092509250505b9550959350505050565b600054610100900460ff16158080156112c75750600054600160ff909116105b806112e15750303b1580156112e1575060005460ff166001145b6113535760405162461bcd60e51b815260206004820152602e60248201527f496e697469616c697a61626c653a20636f6e747261637420697320616c72656160448201527f647920696e697469616c697a65640000000000000000000000000000000000006064820152608401610707565b6000805460ff191660011790558015611376576000805461ff0019166101001790555b6001600160a01b0382166113cc5760405162461bcd60e51b815260206004820152601b60248201527f4f776e65722061646472657373206d757374206e6f74206265203000000000006044820152606401610707565b6001600160a01b0386166114225760405162461bcd60e51b815260206004820152601f60248201527f4365727469666965722061646472657373206d757374206e6f742062652030006044820152606401610707565b6001600160a01b0385166114835760405162461bcd60e51b815260206004820152602260248201527f56616c696461746f725365742061646472657373206d757374206e6f74206265604482015261020360f41b6064820152608401610707565b6001600160a01b0384166114e55760405162461bcd60e51b815260206004820152602360248201527f4b657947656e486973746f72792061646472657373206d757374206e6f74206260448201526206520360ec1b6064820152608401610707565b6001600160a01b0383166115615760405162461bcd60e51b815260206004820152602960248201527f436f6e6e6563746976697479547261636b65722061646472657373206d75737460448201527f206e6f74206265203000000000000000000000000000000000000000000000006064820152608401610707565b611569611b18565b611572826117fc565b60005b878110156115be576115ac89898381811061159257611592611f88565b90506020020160208101906115a79190611d11565b611b8b565b806115b681611fdd565b915050611575565b50606680546001600160a01b038089166001600160a01b0319928316179092556069805488841690831617905560678054878416908316179055606c805492861692909116919091179055633b9aca00606a819055606b55801561165c576000805461ff0019169055604051600181527f7f26b83ff96e1f2b6a682f133852f6798a09c465da95921460cefb38474024989060200160405180910390a15b5050505050505050565b61166e6117a2565b61167781611b8b565b50565b6116826117a2565b600081116116dd5760405162461bcd60e51b815260206004820152602260248201527f4d696e696d756d20676173207072696365206d757374206e6f74206265207a65604482015261726f60f01b6064820152608401610707565b6040518181527f190dff62907e2863cc21469fe75fc83230ae6ab1482825f6e5a75bc7471854779060200160405180910390a1606a55565b61171d6117a2565b6001600160a01b0381166117995760405162461bcd60e51b815260206004820152602660248201527f4f776e61626c653a206e6577206f776e657220697320746865207a65726f206160448201527f64647265737300000000000000000000000000000000000000000000000000006064820152608401610707565b611677816117fc565b6033546001600160a01b0316331461065e5760405162461bcd60e51b815260206004820181905260248201527f4f776e61626c653a2063616c6c6572206973206e6f7420746865206f776e65726044820152606401610707565b603380546001600160a01b038381166001600160a01b0319831681179093556040519116919082907f8be0079c531659141344cd1fd0a4f28419497f9722a3daafe3b4186f6b6457e090600090a35050565b606060008367ffffffffffffffff81111561186b5761186b611da5565b6040519080825280601f01601f191660200182016040528015611895576020820181803683370190505b50905060005b8481101561191a57856118ae8583612106565b815181106118be576118be611f88565b602001015160f81c60f81b8282815181106118db576118db611f88565b60200101907effffffffffffffffffffffffffffffffffffffffffffffffffffffffffffff1916908160001a90535061191381611fdd565b905061189b565b50949350505050565b600080805b602081101561199d5761193c81601f611fb4565b611947906008611ff6565b6119529060026121fd565b8461195d8388612106565b8151811061196d5761196d611f88565b016020015161197f919060f81c611ff6565b6119899083612106565b91508061199581611fdd565b915050611928565b5090505b92915050565b60008060006060600485516119bc9190611fb4565b116119d457600484516119cf9190611fb4565b6119d7565b60605b905060006119e78583600461184e565b9050600080600083806020019051810190611a029190612209565b91945092509050631bb8c46360e21b6001600160e01b03198a1601611aa957606c5460405163060b284960e01b81526001600160a01b038c8116600483015285811660248301526044820185905260648201849052600092169063060b2849906084015b60006040518083038186803b158015611a7e57600080fd5b505afa925050508015611a8f575060015b15611a98575060025b965060009550611b10945050505050565b634d597bdf60e01b6001600160e01b03198a1601611b0a57606c54604051632fb625a360e21b81526001600160a01b038c8116600483015285811660248301526044820185905260648201849052600092169063bed8968c90608401611a66565b50505050505b935093915050565b600054610100900460ff16611b835760405162461bcd60e51b815260206004820152602b60248201527f496e697469616c697a61626c653a20636f6e7472616374206973206e6f74206960448201526a6e697469616c697a696e6760a81b6064820152608401610707565b61065e611c2b565b6001600160a01b03811660009081526068602052604090205460ff1615611bb157600080fd5b6001600160a01b038116611bc457600080fd5b6065805460018181019092557f8ff97419363ffd7000167f130ef7168fbea05faf9251824ca5043f113cc6a7c70180546001600160a01b039093166001600160a01b031990931683179055600091825260686020526040909120805460ff19169091179055565b600054610100900460ff16611c965760405162461bcd60e51b815260206004820152602b60248201527f496e697469616c697a61626c653a20636f6e7472616374206973206e6f74206960448201526a6e697469616c697a696e6760a81b6064820152608401610707565b61065e336117fc565b6020808252825182820181905260009190848201906040850190845b81811015611ce05783516001600160a01b031683529284019291840191600101611cbb565b50909695505050505050565b6001600160a01b038116811461167757600080fd5b8035611d0c81611cec565b919050565b600060208284031215611d2357600080fd5b8135611d2e81611cec565b9392505050565b60005b83811015611d50578181015183820152602001611d38565b50506000910152565b6020815260008251806020840152611d78816040850160208701611d35565b601f01601f19169190910160400192915050565b600060208284031215611d9e57600080fd5b5035919050565b634e487b7160e01b600052604160045260246000fd5b600080600080600060a08688031215611dd357600080fd5b8535611dde81611cec565b94506020860135611dee81611cec565b93506040860135925060608601359150608086013567ffffffffffffffff80821115611e1957600080fd5b818801915088601f830112611e2d57600080fd5b813581811115611e3f57611e3f611da5565b604051601f8201601f19908116603f01168101908382118183101715611e6757611e67611da5565b816040528281528b6020848701011115611e8057600080fd5b8260208601602083013760006020848301015280955050505050509295509295909350565b600080600080600080600060c0888a031215611ec057600080fd5b873567ffffffffffffffff80821115611ed857600080fd5b818a0191508a601f830112611eec57600080fd5b813581811115611efb57600080fd5b8b60208260051b8501011115611f1057600080fd5b602092830199509750611f26918a019050611d01565b9450611f3460408901611d01565b9350611f4260608901611d01565b9250611f5060808901611d01565b9150611f5e60a08901611d01565b905092959891949750929550565b60008251611f7e818460208701611d35565b9190910192915050565b634e487b7160e01b600052603260045260246000fd5b634e487b7160e01b600052601160045260246000fd5b818103818111156119a1576119a1611f9e565b634e487b7160e01b600052603160045260246000fd5b600060018201611fef57611fef611f9e565b5060010190565b80820281158282048414176119a1576119a1611f9e565b6000806040838503121561202057600080fd5b825161202b81611cec565b6020939093015192949293505050565b80518015158114611d0c57600080fd5b6000806040838503121561205e57600080fd5b6120678361203b565b91506120756020840161203b565b90509250929050565b60006020828403121561209057600080fd5b611d2e8261203b565b6000602082840312156120ab57600080fd5b8151611d2e81611cec565b634e487b7160e01b600052602160045260246000fd5b6000602082840312156120de57600080fd5b815160068110611d2e57600080fd5b6000602082840312156120ff57600080fd5b5051919050565b808201808211156119a1576119a1611f9e565b600181815b8085111561215457816000190482111561213a5761213a611f9e565b8085161561214757918102915b93841c939080029061211e565b509250929050565b60008261216b575060016119a1565b81612178575060006119a1565b816001811461218e5760028114612198576121b4565b60019150506119a1565b60ff8411156121a9576121a9611f9e565b50506001821b6119a1565b5060208310610133831016604e8410600b84101617156121d7575081810a6119a1565b6121e18383612119565b80600019048211156121f5576121f5611f9e565b029392505050565b6000611d2e838361215c565b60008060006060848603121561221e57600080fd5b835161222981611cec565b60208501516040909501519096949550939250505056fea264697066735822122062c54484cb2ad82253776c6ce0606573a871c9aa7cd446299cdb86e5a11543cd64736f6c63430008110033",
  "linkReferences": {},
  "deployedLinkReferences": {}
}