{
  "_format": "hh-sol-artifact-1",
  "contractName": "TxPermissionHbbftMock",
  "sourceName": "contracts/mockContracts/TxPermissionHbbftMock.sol",
  "abi": [
    {
      "anonymous": false,
      "inputs": [
        {
          "indexed": false,
          "internalType": "uint8",
          "name": "version",
          "type": "uint8"
        }
      ],
      "name": "Initialized",
      "type": "event"
    },
    {
      "anonymous": false,
      "inputs": [
        {
          "indexed": true,
          "internalType": "address",
          "name": "previousOwner",
          "type": "address"
        },
        {
          "indexed": true,
          "internalType": "address",
          "name": "newOwner",
          "type": "address"
        }
      ],
      "name": "OwnershipTransferred",
      "type": "event"
    },
    {
      "anonymous": false,
      "inputs": [
        {
          "indexed": false,
          "internalType": "uint256",
          "name": "_value",
          "type": "uint256"
        }
      ],
      "name": "gasPriceChanged",
      "type": "event"
    },
    {
      "inputs": [],
      "name": "ANNOUNCE_AVAILABILITY_SIGNATURE",
      "outputs": [
        {
          "internalType": "bytes4",
          "name": "",
          "type": "bytes4"
        }
      ],
      "stateMutability": "view",
      "type": "function"
    },
    {
      "inputs": [],
      "name": "REPORT_MALICIOUS_SIGNATURE",
      "outputs": [
        {
          "internalType": "bytes4",
          "name": "",
          "type": "bytes4"
        }
      ],
      "stateMutability": "view",
      "type": "function"
    },
    {
      "inputs": [],
      "name": "REPORT_MISSING_CONNECTIVITY_SELECTOR",
      "outputs": [
        {
          "internalType": "bytes4",
          "name": "",
          "type": "bytes4"
        }
      ],
      "stateMutability": "view",
      "type": "function"
    },
    {
      "inputs": [],
      "name": "REPORT_RECONNECT_SELECTOR",
      "outputs": [
        {
          "internalType": "bytes4",
          "name": "",
          "type": "bytes4"
        }
      ],
      "stateMutability": "view",
      "type": "function"
    },
    {
      "inputs": [],
      "name": "SET_VALIDATOR_IP",
      "outputs": [
        {
          "internalType": "bytes4",
          "name": "",
          "type": "bytes4"
        }
      ],
      "stateMutability": "view",
      "type": "function"
    },
    {
      "inputs": [],
      "name": "WRITE_ACKS_SIGNATURE",
      "outputs": [
        {
          "internalType": "bytes4",
          "name": "",
          "type": "bytes4"
        }
      ],
      "stateMutability": "view",
      "type": "function"
    },
    {
      "inputs": [],
      "name": "WRITE_PART_SIGNATURE",
      "outputs": [
        {
          "internalType": "bytes4",
          "name": "",
          "type": "bytes4"
        }
      ],
      "stateMutability": "view",
      "type": "function"
    },
    {
      "inputs": [
        {
          "internalType": "address",
          "name": "_sender",
          "type": "address"
        }
      ],
      "name": "addAllowedSender",
      "outputs": [],
      "stateMutability": "nonpayable",
      "type": "function"
    },
    {
      "inputs": [],
      "name": "allowedSenders",
      "outputs": [
        {
          "internalType": "address[]",
          "name": "",
          "type": "address[]"
        }
      ],
      "stateMutability": "view",
      "type": "function"
    },
    {
      "inputs": [
        {
          "internalType": "address",
          "name": "_sender",
          "type": "address"
        },
        {
          "internalType": "address",
          "name": "_to",
          "type": "address"
        },
        {
          "internalType": "uint256",
          "name": "",
          "type": "uint256"
        },
        {
          "internalType": "uint256",
          "name": "_gasPrice",
          "type": "uint256"
        },
        {
          "internalType": "bytes",
          "name": "_data",
          "type": "bytes"
        }
      ],
      "name": "allowedTxTypes",
      "outputs": [
        {
          "internalType": "uint32",
          "name": "typesMask",
          "type": "uint32"
        },
        {
          "internalType": "bool",
          "name": "cache",
          "type": "bool"
        }
      ],
      "stateMutability": "view",
      "type": "function"
    },
    {
      "inputs": [],
      "name": "blockGasLimit",
      "outputs": [
        {
          "internalType": "uint256",
          "name": "",
          "type": "uint256"
        }
      ],
      "stateMutability": "view",
      "type": "function"
    },
    {
      "inputs": [],
      "name": "certifierContract",
      "outputs": [
        {
          "internalType": "contract ICertifier",
          "name": "",
          "type": "address"
        }
      ],
      "stateMutability": "view",
      "type": "function"
    },
    {
      "inputs": [],
      "name": "connectivityTracker",
      "outputs": [
        {
          "internalType": "contract IConnectivityTrackerHbbft",
          "name": "",
          "type": "address"
        }
      ],
      "stateMutability": "view",
      "type": "function"
    },
    {
      "inputs": [],
      "name": "contractName",
      "outputs": [
        {
          "internalType": "string",
          "name": "",
          "type": "string"
        }
      ],
      "stateMutability": "pure",
      "type": "function"
    },
    {
      "inputs": [],
      "name": "contractNameHash",
      "outputs": [
        {
          "internalType": "bytes32",
          "name": "",
          "type": "bytes32"
        }
      ],
      "stateMutability": "pure",
      "type": "function"
    },
    {
      "inputs": [],
      "name": "contractVersion",
      "outputs": [
        {
          "internalType": "uint256",
          "name": "",
          "type": "uint256"
        }
      ],
      "stateMutability": "pure",
      "type": "function"
    },
    {
      "inputs": [
        {
          "internalType": "address[]",
          "name": "_allowed",
          "type": "address[]"
        },
        {
          "internalType": "address",
          "name": "_certifier",
          "type": "address"
        },
        {
          "internalType": "address",
          "name": "_validatorSet",
          "type": "address"
        },
        {
          "internalType": "address",
          "name": "_keyGenHistoryContract",
          "type": "address"
        },
        {
          "internalType": "address",
          "name": "_connectivityTracker",
          "type": "address"
        },
        {
          "internalType": "address",
          "name": "_contractOwner",
          "type": "address"
        }
      ],
      "name": "initialize",
      "outputs": [],
      "stateMutability": "nonpayable",
      "type": "function"
    },
    {
      "inputs": [
        {
          "internalType": "address",
          "name": "",
          "type": "address"
        }
      ],
      "name": "isSenderAllowed",
      "outputs": [
        {
          "internalType": "bool",
          "name": "",
          "type": "bool"
        }
      ],
      "stateMutability": "view",
      "type": "function"
    },
    {
      "inputs": [],
      "name": "keyGenHistoryContract",
      "outputs": [
        {
          "internalType": "contract IKeyGenHistory",
          "name": "",
          "type": "address"
        }
      ],
      "stateMutability": "view",
      "type": "function"
    },
    {
      "inputs": [],
      "name": "minimumGasPrice",
      "outputs": [
        {
          "internalType": "uint256",
          "name": "",
          "type": "uint256"
        }
      ],
      "stateMutability": "view",
      "type": "function"
    },
    {
      "inputs": [],
      "name": "owner",
      "outputs": [
        {
          "internalType": "address",
          "name": "",
          "type": "address"
        }
      ],
      "stateMutability": "view",
      "type": "function"
    },
    {
      "inputs": [
        {
          "internalType": "address",
          "name": "_sender",
          "type": "address"
        }
      ],
      "name": "removeAllowedSender",
      "outputs": [],
      "stateMutability": "nonpayable",
      "type": "function"
    },
    {
      "inputs": [],
      "name": "renounceOwnership",
      "outputs": [],
      "stateMutability": "nonpayable",
      "type": "function"
    },
    {
      "inputs": [
        {
          "internalType": "uint256",
          "name": "_value",
          "type": "uint256"
        }
      ],
      "name": "setBlockGasLimit",
      "outputs": [],
      "stateMutability": "nonpayable",
      "type": "function"
    },
    {
      "inputs": [
        {
          "internalType": "address",
          "name": "_connectivityTracker",
          "type": "address"
        }
      ],
      "name": "setConnectivityTracker",
      "outputs": [],
      "stateMutability": "nonpayable",
      "type": "function"
    },
    {
      "inputs": [
        {
          "internalType": "uint256",
          "name": "_value",
          "type": "uint256"
        }
      ],
      "name": "setMinimumGasPrice",
      "outputs": [],
      "stateMutability": "nonpayable",
      "type": "function"
    },
    {
      "inputs": [
        {
          "internalType": "address",
          "name": "_address",
          "type": "address"
        }
      ],
      "name": "setValidatorSetContract",
      "outputs": [],
      "stateMutability": "nonpayable",
      "type": "function"
    },
    {
      "inputs": [
        {
          "internalType": "address",
          "name": "newOwner",
          "type": "address"
        }
      ],
      "name": "transferOwnership",
      "outputs": [],
      "stateMutability": "nonpayable",
      "type": "function"
    },
    {
      "inputs": [],
      "name": "validatorSetContract",
      "outputs": [
        {
          "internalType": "contract IValidatorSetHbbft",
          "name": "",
          "type": "address"
        }
      ],
      "stateMutability": "view",
      "type": "function"
    }
  ],
  "bytecode": "0x608060405234801561001057600080fd5b5061001961001e565b6100dd565b600054610100900460ff161561008a5760405162461bcd60e51b815260206004820152602760248201527f496e697469616c697a61626c653a20636f6e747261637420697320696e697469604482015266616c697a696e6760c81b606482015260840160405180910390fd5b60005460ff908116146100db576000805460ff191660ff9081179091556040519081527f7f26b83ff96e1f2b6a682f133852f6798a09c465da95921460cefb38474024989060200160405180910390a15b565b6122b180620000ed6000396000f3fe608060405234801561001057600080fd5b50600436106101cf5760003560e01c806378ff69d511610104578063c374bc23116100a2578063df3cecf611610071578063df3cecf61461040b578063dfc8bf4e14610414578063efc7840114610427578063f2fde38b1461045a57600080fd5b8063c374bc23146103c4578063c746c8f4146103d7578063d249b31c146103ea578063d3ae7965146103fd57600080fd5b8063a0a8e460116100de578063a0a8e46014610368578063a69257f31461036f578063b47aef1f14610382578063b9056afa1461039557600080fd5b806378ff69d51461033657806379167bdd146103495780638da5cb5b1461035757600080fd5b80635f0664bf11610171578063715018a61161014b578063715018a6146102d857806375d0c0dc146102e0578063782f01771461031f5780637877a7971461032d57600080fd5b80635f0664bf146102a957806366955469146102b75780637086bcc1146102ca57600080fd5b80633272b28c116101ad5780633272b28c14610239578063469ab1e31461024e578063471eab5c146102645780635d685ba41461027957600080fd5b80631a9ebeaa146101d457806324bdf37b14610204578063305d526c1461022b575b600080fd5b6066546101e7906001600160a01b031681565b6040516001600160a01b0390911681526020015b60405180910390f35b61021263a42bdee960e01b81565b6040516001600160e01b031990911681526020016101fb565b610212632b11904760e11b81565b61024161046d565b6040516101fb9190611cda565b6102566104cf565b6040519081526020016101fb565b610277610272366004611d4c565b610536565b005b610277610287366004611d4c565b606980546001600160a01b0319166001600160a01b0392909216919091179055565b6102126343bcce9f60e01b81565b606c546101e7906001600160a01b031681565b6102126324473b9d60e21b81565b610277610687565b604080518082018252601681527f54585f5045524d495353494f4e5f434f4e545241435400000000000000000000602082015290516101fb9190611d94565b610212630b53784960e21b81565b610256606b5481565b610277610344366004611d4c565b61069b565b610212630311db7560e61b81565b6033546001600160a01b03166101e7565b6003610256565b61027761037d366004611dc7565b6106c5565b6067546101e7906001600160a01b031681565b6103a86103a3366004611df6565b610750565b6040805163ffffffff90931683529015156020830152016101fb565b6102776103d2366004611ee0565b6112e2565b6102776103e5366004611d4c565b6116a1565b6102776103f8366004611dc7565b6116b5565b61021263b2a6842160e01b81565b610256606a5481565b6069546101e7906001600160a01b031681565b61044a610435366004611d4c565b60686020526000908152604090205460ff1681565b60405190151581526020016101fb565b610277610468366004611d4c565b611750565b606060658054806020026020016040519081016040528092919081815260200182805480156104c557602002820191906000526020600020905b81546001600160a01b031681526001909101906020018083116104a7575b5050505050905090565b600061050b60408051808201909152601681527f54585f5045524d495353494f4e5f434f4e545241435400000000000000000000602082015290565b60405160200161051b9190611fa7565b60405160208183030381529060405280519060200120905090565b61053e6117dd565b6001600160a01b03811660009081526068602052604090205460ff1661056357600080fd5b60655460005b81811015610664576065818154811061058457610584611fc3565b6000918252602090912001546001600160a01b03908116908416036106525760656105b0600184611fef565b815481106105c0576105c0611fc3565b600091825260209091200154606580546001600160a01b0390921691839081106105ec576105ec611fc3565b9060005260206000200160006101000a8154816001600160a01b0302191690836001600160a01b03160217905550606580548061062b5761062b612002565b600082815260209020810160001990810180546001600160a01b0319169055019055610664565b8061065c81612018565b915050610569565b50506001600160a01b03166000908152606860205260409020805460ff19169055565b61068f6117dd565b6106996000611837565b565b6106a36117dd565b606c80546001600160a01b0319166001600160a01b0392909216919091179055565b6106cd6117dd565b620f424081101561074b5760405162461bcd60e51b815260206004820152603660248201527f426c6f636b20476173206c696d697420676173207072696365206d757374206260448201527f65206174206d696e696d756d20312c3030302c3030300000000000000000000060648201526084015b60405180910390fd5b606b55565b6001600160a01b038516600090815260686020526040812054819060ff1615610782575063ffffffff905060006112d8565b6000805b60048551101580156107985750600481105b156107fa576107a8816008612031565b8582815181106107ba576107ba611fc3565b01602001517fff0000000000000000000000000000000000000000000000000000000000000016901c9190911790806107f281612018565b915050610786565b506069546001600160a01b0390811690881603610c1b5762ee248b60e61b6001600160e01b031982160161094b57600060406004865161083a9190611fef565b11610852576004855161084d9190611fef565b610855565b60405b9050600061086586836004611889565b90506000808280602001905181019061087e9190612048565b915091506000606960009054906101000a90046001600160a01b03166001600160a01b031663a670eb568e85856040518463ffffffff1660e01b81526004016108e8939291906001600160a01b039384168152919092166020820152604081019190915260600190565b6040805180830381865afa158015610904573d6000803e3d6000fd5b505050506040513d601f19601f820116820180604052508101906109289190612086565b5090508061093757600061093a565b60025b6000975097505050505050506112d8565b63bc43316160e01b6001600160e01b03198216016109eb57606954604051630f51726f60e41b81526001600160a01b038a811660048301529091169063f51726f090602401602060405180830381865afa1580156109ad573d6000803e3d6000fd5b505050506040513d601f19601f820116820180604052508101906109d191906120b9565b6109dc5760006109df565b60025b600092509250506112d8565b635bd4211760e01b6001600160e01b0319821601610b8f576069546040516307b9342f60e21b81526001600160a01b038a811660048301526000921690631ee4d0bc90602401602060405180830381865afa158015610a4e573d6000803e3d6000fd5b505050506040513d601f19601f82011682018060405250810190610a7291906120d4565b90506001600160a01b03811615610b8157606960009054906101000a90046001600160a01b03166001600160a01b0316638e68dce46040518163ffffffff1660e01b8152600401602060405180830381865afa158015610ad6573d6000803e3d6000fd5b505050506040513d601f19601f82011682018060405250810190610afa91906120d4565b60405163a711e6a160e01b81526001600160a01b038381166004830152919091169063a711e6a190602401602060405180830381865afa158015610b42573d6000803e3d6000fd5b505050506040513d601f19601f82011682018060405250810190610b6691906120b9565b610b71576000610b74565b60025b60009350935050506112d8565b6000809350935050506112d8565b8415610c1b5760695460405163facd743b60e01b81526001600160a01b038a811660048301529091169063facd743b90602401602060405180830381865afa158015610bdf573d6000803e3d6000fd5b505050506040513d601f19601f82011682018060405250810190610c0391906120b9565b610c0e5760026109df565b60008092509250506112d8565b6067546001600160a01b03908116908816036110a2576334ac87b760e21b6001600160e01b0319821601610dec5760695460405163014e28d960e41b81526001600160a01b038a8116600483015260019216906314e28d9090602401602060405180830381865afa158015610c94573d6000803e3d6000fd5b505050506040513d601f19601f82011682018060405250810190610cb89190612107565b6005811115610cc957610cc96120f1565b03610c0e57602484511015610ce55760008092509250506112d8565b6000610cf260048661195e565b9050606960009054906101000a90046001600160a01b03166001600160a01b0316638e68dce46040518163ffffffff1660e01b8152600401602060405180830381865afa158015610d47573d6000803e3d6000fd5b505050506040513d601f19601f82011682018060405250810190610d6b91906120d4565b6001600160a01b031663794c0c686040518163ffffffff1660e01b8152600401602060405180830381865afa158015610da8573d6000803e3d6000fd5b505050506040513d601f19601f82011682018060405250810190610dcc9190612128565b610dd7906001612141565b8103610b8157600260009350935050506112d8565b6354ee6fb960e11b6001600160e01b03198216016110a25760695460405163014e28d960e41b81526001600160a01b038a8116600483015260039216906314e28d9090602401602060405180830381865afa158015610e4f573d6000803e3d6000fd5b505050506040513d601f19601f82011682018060405250810190610e739190612107565b6005811115610e8457610e846120f1565b03610c0e57602484511015610ea05760008092509250506112d8565b606960009054906101000a90046001600160a01b03166001600160a01b0316638e68dce46040518163ffffffff1660e01b8152600401602060405180830381865afa158015610ef3573d6000803e3d6000fd5b505050506040513d601f19601f82011682018060405250810190610f1791906120d4565b6001600160a01b031663794c0c686040518163ffffffff1660e01b8152600401602060405180830381865afa158015610f54573d6000803e3d6000fd5b505050506040513d601f19601f82011682018060405250810190610f789190612128565b610f83906001612141565b610f8e60048661195e565b03610fa1576002600092509250506112d8565b606960009054906101000a90046001600160a01b03166001600160a01b0316638e68dce46040518163ffffffff1660e01b8152600401602060405180830381865afa158015610ff4573d6000803e3d6000fd5b505050506040513d601f19601f8201168201806040525081019061101891906120d4565b6001600160a01b031663794c0c686040518163ffffffff1660e01b8152600401602060405180830381865afa158015611055573d6000803e3d6000fd5b505050506040513d601f19601f820116820180604052508101906110799190612128565b611084906001612141565b61108f60248661195e565b03610c0e576002600092509250506112d8565b606c546001600160a01b0390811690881603611101576001600160e01b031981166324473b9d60e21b14806110e757506001600160e01b0319811663b2a6842160e01b145b15611101576110f78882866119e2565b92509250506112d8565b60695460405163facd743b60e01b81526001600160a01b038a811660048301529091169063facd743b90602401602060405180830381865afa15801561114b573d6000803e3d6000fd5b505050506040513d601f19601f8201168201806040525081019061116f91906120b9565b801561117b5750600085115b156111a7576000886001600160a01b031631116111995760006109df565b6001600092509250506112d8565b60695460405163facd743b60e01b81526001600160a01b0389811660048301529091169063facd743b90602401602060405180830381865afa1580156111f1573d6000803e3d6000fd5b505050506040513d601f19601f8201168201806040525081019061121591906120b9565b156112275760008092509250506112d8565b846000036112b9576066546040516303a388eb60e61b81526001600160a01b038a811660048301529091169063e8e23ac090602401602060405180830381865afa158015611279573d6000803e3d6000fd5b505050506040513d601f19601f8201168201806040525081019061129d91906120b9565b6112a85760006109df565b63ffffffff600092509250506112d8565b606a548510156112ca5760006112d0565b63ffffffff5b600092509250505b9550959350505050565b600054610100900460ff16158080156113025750600054600160ff909116105b8061131c5750303b15801561131c575060005460ff166001145b61138e5760405162461bcd60e51b815260206004820152602e60248201527f496e697469616c697a61626c653a20636f6e747261637420697320616c72656160448201527f647920696e697469616c697a65640000000000000000000000000000000000006064820152608401610742565b6000805460ff1916600117905580156113b1576000805461ff0019166101001790555b6001600160a01b0382166114075760405162461bcd60e51b815260206004820152601b60248201527f4f776e65722061646472657373206d757374206e6f74206265203000000000006044820152606401610742565b6001600160a01b03861661145d5760405162461bcd60e51b815260206004820152601f60248201527f4365727469666965722061646472657373206d757374206e6f742062652030006044820152606401610742565b6001600160a01b0385166114be5760405162461bcd60e51b815260206004820152602260248201527f56616c696461746f725365742061646472657373206d757374206e6f74206265604482015261020360f41b6064820152608401610742565b6001600160a01b0384166115205760405162461bcd60e51b815260206004820152602360248201527f4b657947656e486973746f72792061646472657373206d757374206e6f74206260448201526206520360ec1b6064820152608401610742565b6001600160a01b03831661159c5760405162461bcd60e51b815260206004820152602960248201527f436f6e6e6563746976697479547261636b65722061646472657373206d75737460448201527f206e6f74206265203000000000000000000000000000000000000000000000006064820152608401610742565b6115a4611b53565b6115ad82611837565b60005b878110156115f9576115e78989838181106115cd576115cd611fc3565b90506020020160208101906115e29190611d4c565b611bc6565b806115f181612018565b9150506115b0565b50606680546001600160a01b038089166001600160a01b0319928316179092556069805488841690831617905560678054878416908316179055606c805492861692909116919091179055633b9aca00606a819055606b558015611697576000805461ff0019169055604051600181527f7f26b83ff96e1f2b6a682f133852f6798a09c465da95921460cefb38474024989060200160405180910390a15b5050505050505050565b6116a96117dd565b6116b281611bc6565b50565b6116bd6117dd565b600081116117185760405162461bcd60e51b815260206004820152602260248201527f4d696e696d756d20676173207072696365206d757374206e6f74206265207a65604482015261726f60f01b6064820152608401610742565b6040518181527f190dff62907e2863cc21469fe75fc83230ae6ab1482825f6e5a75bc7471854779060200160405180910390a1606a55565b6117586117dd565b6001600160a01b0381166117d45760405162461bcd60e51b815260206004820152602660248201527f4f776e61626c653a206e6577206f776e657220697320746865207a65726f206160448201527f64647265737300000000000000000000000000000000000000000000000000006064820152608401610742565b6116b281611837565b6033546001600160a01b031633146106995760405162461bcd60e51b815260206004820181905260248201527f4f776e61626c653a2063616c6c6572206973206e6f7420746865206f776e65726044820152606401610742565b603380546001600160a01b038381166001600160a01b0319831681179093556040519116919082907f8be0079c531659141344cd1fd0a4f28419497f9722a3daafe3b4186f6b6457e090600090a35050565b606060008367ffffffffffffffff8111156118a6576118a6611de0565b6040519080825280601f01601f1916602001820160405280156118d0576020820181803683370190505b50905060005b8481101561195557856118e98583612141565b815181106118f9576118f9611fc3565b602001015160f81c60f81b82828151811061191657611916611fc3565b60200101907effffffffffffffffffffffffffffffffffffffffffffffffffffffffffffff1916908160001a90535061194e81612018565b90506118d6565b50949350505050565b600080805b60208110156119d85761197781601f611fef565b611982906008612031565b61198d906002612238565b846119988388612141565b815181106119a8576119a8611fc3565b01602001516119ba919060f81c612031565b6119c49083612141565b9150806119d081612018565b915050611963565b5090505b92915050565b60008060006060600485516119f79190611fef565b11611a0f5760048451611a0a9190611fef565b611a12565b60605b90506000611a2285836004611889565b9050600080600083806020019051810190611a3d9190612244565b91945092509050631bb8c46360e21b6001600160e01b03198a1601611ae457606c5460405163060b284960e01b81526001600160a01b038c8116600483015285811660248301526044820185905260648201849052600092169063060b2849906084015b60006040518083038186803b158015611ab957600080fd5b505afa925050508015611aca575060015b15611ad3575060025b965060009550611b4b945050505050565b634d597bdf60e01b6001600160e01b03198a1601611b4557606c54604051632fb625a360e21b81526001600160a01b038c8116600483015285811660248301526044820185905260648201849052600092169063bed8968c90608401611aa1565b50505050505b935093915050565b600054610100900460ff16611bbe5760405162461bcd60e51b815260206004820152602b60248201527f496e697469616c697a61626c653a20636f6e7472616374206973206e6f74206960448201526a6e697469616c697a696e6760a81b6064820152608401610742565b610699611c66565b6001600160a01b03811660009081526068602052604090205460ff1615611bec57600080fd5b6001600160a01b038116611bff57600080fd5b6065805460018181019092557f8ff97419363ffd7000167f130ef7168fbea05faf9251824ca5043f113cc6a7c70180546001600160a01b039093166001600160a01b031990931683179055600091825260686020526040909120805460ff19169091179055565b600054610100900460ff16611cd15760405162461bcd60e51b815260206004820152602b60248201527f496e697469616c697a61626c653a20636f6e7472616374206973206e6f74206960448201526a6e697469616c697a696e6760a81b6064820152608401610742565b61069933611837565b6020808252825182820181905260009190848201906040850190845b81811015611d1b5783516001600160a01b031683529284019291840191600101611cf6565b50909695505050505050565b6001600160a01b03811681146116b257600080fd5b8035611d4781611d27565b919050565b600060208284031215611d5e57600080fd5b8135611d6981611d27565b9392505050565b60005b83811015611d8b578181015183820152602001611d73565b50506000910152565b6020815260008251806020840152611db3816040850160208701611d70565b601f01601f19169190910160400192915050565b600060208284031215611dd957600080fd5b5035919050565b634e487b7160e01b600052604160045260246000fd5b600080600080600060a08688031215611e0e57600080fd5b8535611e1981611d27565b94506020860135611e2981611d27565b93506040860135925060608601359150608086013567ffffffffffffffff80821115611e5457600080fd5b818801915088601f830112611e6857600080fd5b813581811115611e7a57611e7a611de0565b604051601f8201601f19908116603f01168101908382118183101715611ea257611ea2611de0565b816040528281528b6020848701011115611ebb57600080fd5b8260208601602083013760006020848301015280955050505050509295509295909350565b600080600080600080600060c0888a031215611efb57600080fd5b873567ffffffffffffffff80821115611f1357600080fd5b818a0191508a601f830112611f2757600080fd5b813581811115611f3657600080fd5b8b60208260051b8501011115611f4b57600080fd5b602092830199509750611f61918a019050611d3c565b9450611f6f60408901611d3c565b9350611f7d60608901611d3c565b9250611f8b60808901611d3c565b9150611f9960a08901611d3c565b905092959891949750929550565b60008251611fb9818460208701611d70565b9190910192915050565b634e487b7160e01b600052603260045260246000fd5b634e487b7160e01b600052601160045260246000fd5b818103818111156119dc576119dc611fd9565b634e487b7160e01b600052603160045260246000fd5b60006001820161202a5761202a611fd9565b5060010190565b80820281158282048414176119dc576119dc611fd9565b6000806040838503121561205b57600080fd5b825161206681611d27565b6020939093015192949293505050565b80518015158114611d4757600080fd5b6000806040838503121561209957600080fd5b6120a283612076565b91506120b060208401612076565b90509250929050565b6000602082840312156120cb57600080fd5b611d6982612076565b6000602082840312156120e657600080fd5b8151611d6981611d27565b634e487b7160e01b600052602160045260246000fd5b60006020828403121561211957600080fd5b815160068110611d6957600080fd5b60006020828403121561213a57600080fd5b5051919050565b808201808211156119dc576119dc611fd9565b600181815b8085111561218f57816000190482111561217557612175611fd9565b8085161561218257918102915b93841c9390800290612159565b509250929050565b6000826121a6575060016119dc565b816121b3575060006119dc565b81600181146121c957600281146121d3576121ef565b60019150506119dc565b60ff8411156121e4576121e4611fd9565b50506001821b6119dc565b5060208310610133831016604e8410600b8410161715612212575081810a6119dc565b61221c8383612154565b806000190482111561223057612230611fd9565b029392505050565b6000611d698383612197565b60008060006060848603121561225957600080fd5b835161226481611d27565b60208501516040909501519096949550939250505056fea2646970667358221220fcea257de161b9eb18c240c1e7d267858fb9167884a92d2f94f7eb1e959c1b3764736f6c63430008110033",
  "linkReferences": {},
  "deployedLinkReferences": {}
}