{
  "_format": "hh-sol-artifact-1",
  "contractName": "BlockRewardHbbft",
  "sourceName": "contracts/BlockRewardHbbft.sol",
  "abi": [
    {
      "inputs": [],
      "stateMutability": "nonpayable",
      "type": "constructor"
    },
    {
      "inputs": [],
      "name": "GetterCallFailed",
      "type": "error"
    },
    {
      "inputs": [],
      "name": "InsufficientBalance",
      "type": "error"
    },
    {
      "inputs": [],
      "name": "InvalidInitialization",
      "type": "error"
    },
    {
      "inputs": [
        {
          "internalType": "uint256",
          "name": "_newVal",
          "type": "uint256"
        }
      ],
      "name": "NewValueOutOfRange",
      "type": "error"
    },
    {
      "inputs": [],
      "name": "NotInitializing",
      "type": "error"
    },
    {
      "inputs": [
        {
          "internalType": "address",
          "name": "owner",
          "type": "address"
        }
      ],
      "name": "OwnableInvalidOwner",
      "type": "error"
    },
    {
      "inputs": [
        {
          "internalType": "address",
          "name": "account",
          "type": "address"
        }
      ],
      "name": "OwnableUnauthorizedAccount",
      "type": "error"
    },
    {
      "inputs": [],
      "name": "ReentrancyGuardReentrantCall",
      "type": "error"
    },
    {
      "inputs": [
        {
          "internalType": "address",
          "name": "recipient",
          "type": "address"
        },
        {
          "internalType": "uint256",
          "name": "amount",
          "type": "uint256"
        }
      ],
      "name": "TransferFailed",
      "type": "error"
    },
    {
      "inputs": [],
      "name": "Unauthorized",
      "type": "error"
    },
    {
      "inputs": [],
      "name": "ValidatorsListEmpty",
      "type": "error"
    },
    {
      "inputs": [],
      "name": "ZeroAddress",
      "type": "error"
    },
    {
      "inputs": [],
      "name": "ZeroPayoutFraction",
      "type": "error"
    },
    {
      "anonymous": false,
      "inputs": [
        {
          "indexed": false,
          "internalType": "uint256",
          "name": "rewards",
          "type": "uint256"
        }
      ],
      "name": "CoinsRewarded",
      "type": "event"
    },
    {
      "anonymous": false,
      "inputs": [],
      "name": "EarlyEpochEndNotificationReceived",
      "type": "event"
    },
    {
      "anonymous": false,
      "inputs": [
        {
          "indexed": false,
          "internalType": "uint64",
          "name": "version",
          "type": "uint64"
        }
      ],
      "name": "Initialized",
      "type": "event"
    },
    {
      "anonymous": false,
      "inputs": [
        {
          "indexed": true,
          "internalType": "address",
          "name": "previousOwner",
          "type": "address"
        },
        {
          "indexed": true,
          "internalType": "address",
          "name": "newOwner",
          "type": "address"
        }
      ],
      "name": "OwnershipTransferred",
      "type": "event"
    },
    {
      "anonymous": false,
      "inputs": [
        {
          "indexed": false,
          "internalType": "bytes4",
          "name": "funcSelector",
          "type": "bytes4"
        }
      ],
      "name": "RemoveChangeableParameter",
      "type": "event"
    },
    {
      "anonymous": false,
      "inputs": [
        {
          "indexed": false,
          "internalType": "bytes4",
          "name": "setter",
          "type": "bytes4"
        },
        {
          "indexed": false,
          "internalType": "bytes4",
          "name": "getter",
          "type": "bytes4"
        },
        {
          "indexed": false,
          "internalType": "uint256[]",
          "name": "params",
          "type": "uint256[]"
        }
      ],
      "name": "SetChangeableParameter",
      "type": "event"
    },
    {
      "anonymous": false,
      "inputs": [
        {
          "indexed": false,
          "internalType": "address",
          "name": "_connectivityTracker",
          "type": "address"
        }
      ],
      "name": "SetConnectivityTracker",
      "type": "event"
    },
    {
      "anonymous": false,
      "inputs": [
        {
          "indexed": false,
          "internalType": "uint256",
          "name": "_fraction",
          "type": "uint256"
        }
      ],
      "name": "SetDeltaPotPayoutFraction",
      "type": "event"
    },
    {
      "anonymous": false,
      "inputs": [
        {
          "indexed": false,
          "internalType": "uint256",
          "name": "value",
          "type": "uint256"
        }
      ],
      "name": "SetGovernancePotShareNominator",
      "type": "event"
    },
    {
      "anonymous": false,
      "inputs": [
        {
          "indexed": false,
          "internalType": "uint256",
          "name": "_fraction",
          "type": "uint256"
        }
      ],
      "name": "SetReinsertPotPayoutFraction",
      "type": "event"
    },
    {
      "inputs": [],
      "name": "VALIDATOR_FIXED_REWARD_PERCENT",
      "outputs": [
        {
          "internalType": "uint256",
          "name": "",
          "type": "uint256"
        }
      ],
      "stateMutability": "view",
      "type": "function"
    },
    {
      "inputs": [],
      "name": "addToDeltaPot",
      "outputs": [],
      "stateMutability": "payable",
      "type": "function"
    },
    {
      "inputs": [],
      "name": "addToReinsertPot",
      "outputs": [],
      "stateMutability": "payable",
      "type": "function"
    },
    {
      "inputs": [],
      "name": "connectivityTracker",
      "outputs": [
        {
          "internalType": "contract IConnectivityTrackerHbbft",
          "name": "",
          "type": "address"
        }
      ],
      "stateMutability": "view",
      "type": "function"
    },
    {
      "inputs": [],
      "name": "deltaPot",
      "outputs": [
        {
          "internalType": "uint256",
          "name": "",
          "type": "uint256"
        }
      ],
      "stateMutability": "view",
      "type": "function"
    },
    {
      "inputs": [],
      "name": "deltaPotPayoutFraction",
      "outputs": [
        {
          "internalType": "uint256",
          "name": "",
          "type": "uint256"
        }
      ],
      "stateMutability": "view",
      "type": "function"
    },
    {
      "inputs": [],
      "name": "earlyEpochEnd",
      "outputs": [
        {
          "internalType": "bool",
          "name": "",
          "type": "bool"
        }
      ],
      "stateMutability": "view",
      "type": "function"
    },
    {
      "inputs": [],
      "name": "epochPercentage",
      "outputs": [
        {
          "internalType": "uint256",
          "name": "",
          "type": "uint256"
        }
      ],
      "stateMutability": "view",
      "type": "function"
    },
    {
      "inputs": [
        {
          "internalType": "uint256",
          "name": "",
          "type": "uint256"
        },
        {
          "internalType": "address",
          "name": "",
          "type": "address"
        }
      ],
      "name": "epochPoolNativeReward",
      "outputs": [
        {
          "internalType": "uint256",
          "name": "",
          "type": "uint256"
        }
      ],
      "stateMutability": "view",
      "type": "function"
    },
    {
      "inputs": [
        {
          "internalType": "address",
          "name": "_miningAddress",
          "type": "address"
        }
      ],
      "name": "epochsPoolGotRewardFor",
      "outputs": [
        {
          "internalType": "uint256[]",
          "name": "",
          "type": "uint256[]"
        }
      ],
      "stateMutability": "view",
      "type": "function"
    },
    {
      "inputs": [
        {
          "internalType": "string",
          "name": "_selector",
          "type": "string"
        }
      ],
      "name": "getAllowedParamsRange",
      "outputs": [
        {
          "components": [
            {
              "internalType": "bytes4",
              "name": "getter",
              "type": "bytes4"
            },
            {
              "internalType": "uint256[]",
              "name": "range",
              "type": "uint256[]"
            }
          ],
          "internalType": "struct ValueGuards.ParameterRange",
          "name": "",
          "type": "tuple"
        }
      ],
      "stateMutability": "view",
      "type": "function"
    },
    {
      "inputs": [
        {
          "internalType": "bytes4",
          "name": "_selector",
          "type": "bytes4"
        }
      ],
      "name": "getAllowedParamsRangeWithSelector",
      "outputs": [
        {
          "components": [
            {
              "internalType": "bytes4",
              "name": "getter",
              "type": "bytes4"
            },
            {
              "internalType": "uint256[]",
              "name": "range",
              "type": "uint256[]"
            }
          ],
          "internalType": "struct ValueGuards.ParameterRange",
          "name": "",
          "type": "tuple"
        }
      ],
      "stateMutability": "view",
      "type": "function"
    },
    {
      "inputs": [],
      "name": "getGovernanceAddress",
      "outputs": [
        {
          "internalType": "address",
          "name": "",
          "type": "address"
        }
      ],
      "stateMutability": "view",
      "type": "function"
    },
    {
      "inputs": [],
      "name": "governancePotAddress",
      "outputs": [
        {
          "internalType": "address payable",
          "name": "",
          "type": "address"
        }
      ],
      "stateMutability": "view",
      "type": "function"
    },
    {
      "inputs": [],
      "name": "governancePotShareDenominator",
      "outputs": [
        {
          "internalType": "uint256",
          "name": "",
          "type": "uint256"
        }
      ],
      "stateMutability": "view",
      "type": "function"
    },
    {
      "inputs": [],
      "name": "governancePotShareNominator",
      "outputs": [
        {
          "internalType": "uint256",
          "name": "",
          "type": "uint256"
        }
      ],
      "stateMutability": "view",
      "type": "function"
    },
    {
      "inputs": [
        {
          "internalType": "address",
          "name": "_contractOwner",
          "type": "address"
        },
        {
          "internalType": "address",
          "name": "_validatorSet",
          "type": "address"
        },
        {
          "internalType": "address",
          "name": "_connectivityTracker",
          "type": "address"
        }
      ],
      "name": "initialize",
      "outputs": [],
      "stateMutability": "nonpayable",
      "type": "function"
    },
    {
      "inputs": [
        {
          "internalType": "bytes4",
          "name": "funcSelector",
          "type": "bytes4"
        },
        {
          "internalType": "uint256",
          "name": "newVal",
          "type": "uint256"
        }
      ],
      "name": "isWithinAllowedRange",
      "outputs": [
        {
          "internalType": "bool",
          "name": "",
          "type": "bool"
        }
      ],
      "stateMutability": "view",
      "type": "function"
    },
    {
      "inputs": [],
      "name": "nativeRewardUndistributed",
      "outputs": [
        {
          "internalType": "uint256",
          "name": "",
          "type": "uint256"
        }
      ],
      "stateMutability": "view",
      "type": "function"
    },
    {
      "inputs": [],
      "name": "notifyEarlyEpochEnd",
      "outputs": [],
      "stateMutability": "nonpayable",
      "type": "function"
    },
    {
      "inputs": [],
      "name": "owner",
      "outputs": [
        {
          "internalType": "address",
          "name": "",
          "type": "address"
        }
      ],
      "stateMutability": "view",
      "type": "function"
    },
    {
      "inputs": [],
      "name": "reinsertPot",
      "outputs": [
        {
          "internalType": "uint256",
          "name": "",
          "type": "uint256"
        }
      ],
      "stateMutability": "view",
      "type": "function"
    },
    {
      "inputs": [],
      "name": "reinsertPotPayoutFraction",
      "outputs": [
        {
          "internalType": "uint256",
          "name": "",
          "type": "uint256"
        }
      ],
      "stateMutability": "view",
      "type": "function"
    },
    {
      "inputs": [
        {
          "internalType": "bytes4",
          "name": "funcSelector",
          "type": "bytes4"
        }
      ],
      "name": "removeAllowedChangeableParameter",
      "outputs": [],
      "stateMutability": "nonpayable",
      "type": "function"
    },
    {
      "inputs": [],
      "name": "renounceOwnership",
      "outputs": [],
      "stateMutability": "nonpayable",
      "type": "function"
    },
    {
      "inputs": [
        {
          "internalType": "bool",
          "name": "_isEpochEndBlock",
          "type": "bool"
        }
      ],
      "name": "reward",
      "outputs": [
        {
          "internalType": "uint256",
          "name": "rewardsNative",
          "type": "uint256"
        }
      ],
      "stateMutability": "nonpayable",
      "type": "function"
    },
    {
      "inputs": [
        {
          "internalType": "bytes4",
          "name": "setter",
          "type": "bytes4"
        },
        {
          "internalType": "bytes4",
          "name": "getter",
          "type": "bytes4"
        },
        {
          "internalType": "uint256[]",
          "name": "params",
          "type": "uint256[]"
        }
      ],
      "name": "setAllowedChangeableParameter",
      "outputs": [],
      "stateMutability": "nonpayable",
      "type": "function"
    },
    {
      "inputs": [
        {
          "internalType": "address",
          "name": "_connectivityTracker",
          "type": "address"
        }
      ],
      "name": "setConnectivityTracker",
      "outputs": [],
      "stateMutability": "nonpayable",
      "type": "function"
    },
    {
      "inputs": [
        {
          "internalType": "uint256",
          "name": "_shareNominator",
          "type": "uint256"
        }
      ],
      "name": "setGovernancePotShareNominator",
      "outputs": [],
      "stateMutability": "nonpayable",
      "type": "function"
    },
    {
      "inputs": [
        {
          "internalType": "uint256",
          "name": "_value",
          "type": "uint256"
        }
      ],
      "name": "setReinsertPotPayoutFraction",
      "outputs": [],
      "stateMutability": "nonpayable",
      "type": "function"
    },
    {
      "inputs": [
        {
          "internalType": "uint256",
          "name": "_value",
          "type": "uint256"
        }
      ],
      "name": "setdeltaPotPayoutFraction",
      "outputs": [],
      "stateMutability": "nonpayable",
      "type": "function"
    },
    {
      "inputs": [
        {
          "internalType": "address",
          "name": "newOwner",
          "type": "address"
        }
      ],
      "name": "transferOwnership",
      "outputs": [],
      "stateMutability": "nonpayable",
      "type": "function"
    },
    {
      "inputs": [
        {
          "internalType": "uint256",
          "name": "",
          "type": "uint256"
        }
      ],
      "name": "validatorMinRewardPercent",
      "outputs": [
        {
          "internalType": "uint256",
          "name": "",
          "type": "uint256"
        }
      ],
      "stateMutability": "view",
      "type": "function"
    },
    {
      "inputs": [],
      "name": "validatorSetContract",
      "outputs": [
        {
          "internalType": "contract IValidatorSetHbbft",
          "name": "",
          "type": "address"
        }
      ],
      "stateMutability": "view",
      "type": "function"
    },
    {
      "stateMutability": "payable",
      "type": "receive"
    }
  ],
  "bytecode": "0x6080604052348015600f57600080fd5b506016601a565b60ca565b7ff0c57e16840df040f15088dc2f81fe391c3923bec73e23a9662efc9c229c6a00805468010000000000000000900460ff161560695760405163f92ee8a960e01b815260040160405180910390fd5b80546001600160401b039081161460c75780546001600160401b0319166001600160401b0390811782556040519081527fc7f505b2f371ae2175ee4913f4499e1f2633a7b5936321eed1cdaeb6115181d29060200160405180910390a15b50565b612fbf806100d96000396000f3fe60806040526004361061021c5760003560e01c80639740f48d1161011d578063ba08d237116100b0578063cb68d1271161007f578063dd03f5b911610064578063dd03f5b914610609578063dfc8bf4e14610636578063f2fde38b1461065657600080fd5b8063cb68d127146105bc578063cdf7a090146105dc57600080fd5b8063ba08d2371461053c578063bf348f861461055c578063c0c53b8b1461057c578063c6cc93331461059c57600080fd5b8063adc481a7116100ec578063adc481a7146104e9578063af182535146104ff578063b10c754814610507578063b710c15d1461050f57600080fd5b80639740f48d146104895780639a06e215146104a95780639a64ca2c146104be578063a59546e2146104d457600080fd5b806366955469116101b057806373f129581161017f5780637d8149db116101645780637d8149db146104165780638da5cb5b1461043657806391b579861461047357600080fd5b806373f12958146103e057806378ff69d5146103f657600080fd5b8063669554691461035c578063674a72141461037c578063715018a6146103ad57806373252494146103c257600080fd5b80633c2c943c116101ec5780633c2c943c146102f95780634346845f1461030f57806359620872146103315780635c57a8011461034657600080fd5b8062067a84146102405780631274fa091461027357806319cee8971461028957806333d69921146102c157600080fd5b3661023b57346006600082825461023391906129e0565b925050819055005b600080fd5b34801561024c57600080fd5b5061026061025b3660046129f3565b610676565b6040519081526020015b60405180910390f35b34801561027f57600080fd5b5061026060075481565b34801561029557600080fd5b506009546102a9906001600160a01b031681565b6040516001600160a01b03909116815260200161026a565b3480156102cd57600080fd5b506102606102dc366004612a31565b600160209081526000928352604080842090915290825290205481565b34801561030557600080fd5b50610260600b5481565b34801561031b57600080fd5b5061032f61032a366004612a79565b6107aa565b005b34801561033d57600080fd5b5061032f6108b0565b34801561035257600080fd5b5061026060045481565b34801561036857600080fd5b50600c546102a9906001600160a01b031681565b34801561038857600080fd5b50600c5461039d90600160a01b900460ff1681565b604051901515815260200161026a565b3480156103b957600080fd5b5061032f610918565b3480156103ce57600080fd5b506009546001600160a01b03166102a9565b3480156103ec57600080fd5b5061026060065481565b34801561040257600080fd5b5061032f610411366004612b0a565b61092c565b34801561042257600080fd5b5061032f610431366004612b27565b6109bd565b34801561044257600080fd5b507f9016d09d72d40fdae2fd8ceac6b6234c7706214fd39c1cd1e609a0528c199300546001600160a01b03166102a9565b34801561047f57600080fd5b50610260600a5481565b34801561049557600080fd5b5061032f6104a4366004612b42565b610a47565b3480156104b557600080fd5b50610260601481565b3480156104ca57600080fd5b5061026060055481565b3480156104e057600080fd5b50610260610ac0565b3480156104f557600080fd5b5061026060025481565b61032f610d07565b61032f610d20565b34801561051b57600080fd5b5061052f61052a366004612ba2565b610d32565b60405161026a9190612c37565b34801561054857600080fd5b5061039d610557366004612c99565b610de2565b34801561056857600080fd5b5061052f610577366004612b27565b610fbf565b34801561058857600080fd5b5061032f610597366004612cc3565b611064565b3480156105a857600080fd5b5061032f6105b7366004612b42565b6112f9565b3480156105c857600080fd5b5061032f6105d7366004612b42565b611370565b3480156105e857600080fd5b506102606105f7366004612b42565b60036020526000908152604090205481565b34801561061557600080fd5b50610629610624366004612b0a565b6113e7565b60405161026a9190612d4a565b34801561064257600080fd5b506008546102a9906001600160a01b031681565b34801561066257600080fd5b5061032f610671366004612b0a565b611451565b60003373fffffffffffffffffffffffffffffffffffffffe146106ab576040516282b42960e81b815260040160405180910390fd5b6106b361148f565b6008546040805163239a373960e21b815290516000926001600160a01b031691638e68dce49160048083019260209291908290030181865afa1580156106fd573d6000803e3d6000fd5b505050506040513d601f19601f820116820180604052508101906107219190612d5d565b9050821561077257610732816114d9565b91507ff32b9551d3414b67f8e66e20ac15e62694b9d1230abb2e2e48f9dc2e1964c4298260405161076591815260200190565b60405180910390a161077b565b61077b81611756565b506107a560017f9b779b17422d0df92223018b32b4d1fa46e071723d6817e2486d003becc55f0055565b919050565b6107b2611c74565b60006107bc611ccf565b90506040518060400160405280857bffffffffffffffffffffffffffffffffffffffffffffffffffffffff1916815260200184848080602002602001604051908101604052809392919081815260200183836020028082843760009201829052509390945250506001600160e01b031988168152602084815260409091208351815463ffffffff191660e09190911c178155838201518051919350610868926001850192910190612950565b509050507f3665bf9cd0ba4ddceeec259e21dcf8a4510f3b1130bd42e950828e69d85408ba858585856040516108a19493929190612d7a565b60405180910390a15050505050565b600c546001600160a01b031633146108da576040516282b42960e81b815260040160405180910390fd5b600c805460ff60a01b1916600160a01b1790556040517f9f7c6e71cec61c4bd3b4af384f8b8729af23a80826f33e1431d07a09a4904b1690600090a1565b610920611c74565b61092a6000611d31565b565b610934611c74565b6001600160a01b03811661095b5760405163d92e233d60e01b815260040160405180910390fd5b600c805473ffffffffffffffffffffffffffffffffffffffff19166001600160a01b0383169081179091556040519081527f387d29e18823e432432b6098ebeee33beebdb128d2234c7f486c26447b738edd906020015b60405180910390a150565b6109c5611c74565b60006109cf611ccf565b6001600160e01b031983166000908152602082905260408120805463ffffffff19168155919250610a03600183018261299b565b50506040516001600160e01b0319831681527fed27cb02231782dadf13473a7828cb980c4d685791b7a3136dde00f8c3594cb6906020015b60405180910390a15050565b610a4f611c74565b80610a666000356001600160e01b03191682610de2565b610a8b576040516373330d9b60e01b8152600481018290526024015b60405180910390fd5b600a8290556040518281527f0bae48e5d1dc3568f32952ed3a75d66d27094f2e08f508808d86627eeef2290390602001610a3b565b600080600860009054906101000a90046001600160a01b03166001600160a01b0316638e68dce46040518163ffffffff1660e01b8152600401602060405180830381865afa158015610b16573d6000803e3d6000fd5b505050506040513d601f19601f82011682018060405250810190610b3a9190612d5d565b90506000816001600160a01b0316639b03d7446040518163ffffffff1660e01b8152600401602060405180830381865afa158015610b7c573d6000803e3d6000fd5b505050506040513d601f19601f82011682018060405250810190610ba09190612de7565b826001600160a01b03166322e3d9866040518163ffffffff1660e01b8152600401602060405180830381865afa158015610bde573d6000803e3d6000fd5b505050506040513d601f19601f82011682018060405250810190610c029190612de7565b610c0c9190612e00565b9050816001600160a01b03166322e3d9866040518163ffffffff1660e01b8152600401602060405180830381865afa158015610c4c573d6000803e3d6000fd5b505050506040513d601f19601f82011682018060405250810190610c709190612de7565b4211610cfd5780826001600160a01b0316639b03d7446040518163ffffffff1660e01b8152600401602060405180830381865afa158015610cb5573d6000803e3d6000fd5b505050506040513d601f19601f82011682018060405250810190610cd99190612de7565b610ce39042612e00565b610cee906064612e13565b610cf89190612e2a565b610d00565b60645b9250505090565b3460066000828254610d1991906129e0565b9091555050565b3460046000828254610d1991906129e0565b604080518082019091526000815260606020820152610d4f611ccf565b82516020808501919091206001600160e01b0319908116600090815292825260409283902083518085018552815460e01b9092168252600181018054855181860281018601909652808652929491938581019390830182828015610dd257602002820191906000526020600020905b815481526020019060010190808311610dbe575b5050505050815250509050919050565b600080610ded611ccf565b6001600160e01b031980861660009081526020838152604080832081518083018352815460e01b90951685526001810180548351818602810186019094528084529697509395909385840193909190830182828015610e6b57602002820191906000526020600020905b815481526020019060010190808311610e57575b5050505050815250509050806020015151600003610e8e57600092505050610fb9565b60208101518151600090610ea190611daf565b905060005b8251811015610faf5781838281518110610ec257610ec2612e4c565b602002602001015103610fa7576000808211610ef85783600081518110610eeb57610eeb612e4c565b6020026020010151610f1d565b83610f04600184612e00565b81518110610f1457610f14612e4c565b60200260200101515b9050600060018551610f2f9190612e00565b8310610f61578460018651610f449190612e00565b81518110610f5457610f54612e4c565b6020026020010151610f86565b84610f6d8460016129e0565b81518110610f7d57610f7d612e4c565b60200260200101515b9050818914158015610f985750808914155b15975050505050505050610fb9565b600101610ea6565b5060009450505050505b92915050565b604080518082019091526000815260606020820152610fdc611ccf565b6001600160e01b03198084166000908152602092835260409081902081518083018352815460e01b9093168352600181018054835181870281018701909452808452939491938583019392830182828015610dd25760200282019190600052602060002090815481526020019060010190808311610dbe575050505050815250509050919050565b7ff0c57e16840df040f15088dc2f81fe391c3923bec73e23a9662efc9c229c6a00805468010000000000000000810460ff16159067ffffffffffffffff166000811580156110af5750825b905060008267ffffffffffffffff1660011480156110cc5750303b155b9050811580156110da575080155b156110f85760405163f92ee8a960e01b815260040160405180910390fd5b845467ffffffffffffffff19166001178555831561112c57845468ff00000000000000001916680100000000000000001785555b6001600160a01b038816158061114957506001600160a01b038716155b8061115b57506001600160a01b038616155b156111795760405163d92e233d60e01b815260040160405180910390fd5b61118288611e86565b61118a611e97565b600880546001600160a01b0389811673ffffffffffffffffffffffffffffffffffffffff1992831617909255600c80549289169282169290921790915560008080526003602090815260147f3617319a054d772f909f7c479a2cebe5066e836a939412e32403c99029b92eff5561177060058190556007556009805490931673da0da0da0da0da0da0da00da0da0da0da0da0da017909255600a80556064600b908155604080518281526101808101909152919282016101608036833701905050905060005b81518110156112895761126481600a6129e0565b82828151811061127657611276612e4c565b6020908102919091010152600101611250565b506112a3639740f48d60e01b6348dabcc360e11b83611ea7565b5083156112ef57845468ff000000000000000019168555604051600181527fc7f505b2f371ae2175ee4913f4499e1f2633a7b5936321eed1cdaeb6115181d29060200160405180910390a15b5050505050505050565b611301611c74565b8060000361133b576040517fffcfec8400000000000000000000000000000000000000000000000000000000815260040160405180910390fd5b60078190556040518181527fb914176cecdd5906f3fd1eb6fcf471c39b33cdc7142a1d8c494487c31ff40f88906020016109b2565b611378611c74565b806000036113b2576040517fffcfec8400000000000000000000000000000000000000000000000000000000815260040160405180910390fd5b60058190556040518181527f8ce02935a391d407d8b483203a4f3cd8465b62a45c7274471113a192f111eda0906020016109b2565b6001600160a01b0381166000908152602081815260409182902080548351818402810184019094528084526060939283018282801561144557602002820191906000526020600020905b815481526020019060010190808311611431575b50505050509050919050565b611459611c74565b6001600160a01b03811661148357604051631e4fbdf760e01b815260006004820152602401610a82565b61148c81611d31565b50565b7f9b779b17422d0df92223018b32b4d1fa46e071723d6817e2486d003becc55f008054600119016114d357604051633ee5aeb560e01b815260040160405180910390fd5b60029055565b600080826001600160a01b031663794c0c686040518163ffffffff1660e01b8152600401602060405180830381865afa15801561151a573d6000803e3d6000fd5b505050506040513d601f19601f8201168201806040525081019061153e9190612de7565b600c5460405163245f8d5360e11b8152600481018390529192506001600160a01b0316906348bf1aa690602401600060405180830381600087803b15801561158557600080fd5b505af1158015611599573d6000803e3d6000fd5b505050506000816000146115b4576115b18285611f5c565b90505b60006115c18360016129e0565b90506060600860009054906101000a90046001600160a01b03166001600160a01b031663eebc7a396040518163ffffffff1660e01b8152600401600060405180830381865afa158015611618573d6000803e3d6000fd5b505050506040513d6000823e601f3d908101601f191682016040526116409190810190612e62565b905061164d86838361229d565b600860009054906101000a90046001600160a01b03166001600160a01b031663b7ab4db56040518163ffffffff1660e01b8152600401600060405180830381865afa1580156116a0573d6000803e3d6000fd5b505050506040513d6000823e601f3d908101601f191682016040526116c89190810190612e62565b90506116d586838361229d565b600082815260036020526040808220601490556008548151637528621160e01b815291516001600160a01b03909116926375286211926004808201939182900301818387803b15801561172757600080fd5b505af115801561173b573d6000803e3d6000fd5b5050600c805460ff60a01b1916905550929695505050505050565b6000816001600160a01b031663c6912cc06040518163ffffffff1660e01b8152600401602060405180830381865afa158015611796573d6000803e3d6000fd5b505050506040513d601f19601f820116820180604052508101906117ba9190612de7565b90506000600860009054906101000a90046001600160a01b03166001600160a01b031663b7ab4db56040518163ffffffff1660e01b8152600401600060405180830381865afa158015611811573d6000803e3d6000fd5b505050506040513d6000823e601f3d908101601f191682016040526118399190810190612e62565b60085460408051630456292b60e11b8152905192935042851115926000926001600160a01b0316916308ac52569160048083019260209291908290030181865afa15801561188b573d6000803e3d6000fd5b505050506040513d601f19601f820116820180604052508101906118af9190612de7565b6118ba906002612e13565b83516118c7906003612e13565b116119bf576000856001600160a01b031663a5d54f656040518163ffffffff1660e01b8152600401600060405180830381865afa15801561190c573d6000803e3d6000fd5b505050506040513d6000823e601f3d908101601f191682016040526119349190810190612e62565b5190506000811180156119b35750835160085460405163efd0494760e01b8152600481018490526001600160a01b039091169063efd0494790602401602060405180830381865afa15801561198d573d6000803e3d6000fd5b505050506040513d601f19601f820116820180604052508101906119b19190612de7565b115b156119bd57600191505b505b600082806119ca5750815b806119de5750600c54600160a01b900460ff165b90506000600860009054906101000a90046001600160a01b03166001600160a01b031663eebc7a396040518163ffffffff1660e01b8152600401600060405180830381865afa158015611a35573d6000803e3d6000fd5b505050506040513d6000823e601f3d908101601f19168201604052611a5d9190810190612e62565b519050818015611a6b575080155b15611aeb57600860009054906101000a90046001600160a01b03166001600160a01b0316635ccee1de6040518163ffffffff1660e01b8152600401600060405180830381600087803b158015611ac057600080fd5b505af1158015611ad4573d6000803e3d6000fd5b5050600c805460ff60a01b1916905550611bbc9050565b866001600160a01b03166322e3d9866040518163ffffffff1660e01b8152600401602060405180830381865afa158015611b29573d6000803e3d6000fd5b505050506040513d601f19601f82011682018060405250810190611b4d9190612de7565b4210611bbc57600860009054906101000a90046001600160a01b03166001600160a01b031663ade1900a6040518163ffffffff1660e01b8152600401600060405180830381600087803b158015611ba357600080fd5b505af1158015611bb7573d6000803e3d6000fd5b505050505b600c54600160a01b900460ff168015611bd457508015155b15611be757600c805460ff60a01b191690555b6009546040805163ab0eb62d60e01b815290516001600160a01b0390921691829163ab0eb62d91600480830192600092919082900301818387803b158015611c2e57600080fd5b505af1925050508015611c3f575060015b156112ef575050505050505050565b60017f9b779b17422d0df92223018b32b4d1fa46e071723d6817e2486d003becc55f0055565b33611ca67f9016d09d72d40fdae2fd8ceac6b6234c7706214fd39c1cd1e609a0528c199300546001600160a01b031690565b6001600160a01b03161461092a5760405163118cdaa760e01b8152336004820152602401610a82565b60008060ff19611d0060017fdace3fd3d1fbdfd33853f19ba191d28c617e373ec58fc73cf7b58db5aff2c2ab612e00565b604051602001611d1291815260200190565b60408051601f1981840301815291905280516020909101201692915050565b7f9016d09d72d40fdae2fd8ceac6b6234c7706214fd39c1cd1e609a0528c199300805473ffffffffffffffffffffffffffffffffffffffff1981166001600160a01b03848116918217845560405192169182907f8be0079c531659141344cd1fd0a4f28419497f9722a3daafe3b4186f6b6457e090600090a3505050565b60408051600481526024810182526020810180517bffffffffffffffffffffffffffffffffffffffffffffffffffffffff166001600160e01b03198516179052905160009190829081903090611e06908590612f14565b600060405180830381855afa9150503d8060008114611e41576040519150601f19603f3d011682016040523d82523d6000602084013e611e46565b606091505b509150915081611e6957604051635fbab09b60e11b815260040160405180910390fd5b80806020019051810190611e7d9190612de7565b95945050505050565b611e8e6123bf565b61148c8161240d565b611e9f6123bf565b61092a612415565b611eaf6123bf565b6000611eb9611ccf565b6040805180820182526001600160e01b0319868116825260208083018781529189166000908152858252939093208251815463ffffffff191660e09190911c1781559051805194955091939092611f17926001850192910190612950565b509050507f3665bf9cd0ba4ddceeec259e21dcf8a4510f3b1130bd42e950828e69d85408ba848484604051611f4e93929190612f43565b60405180910390a150505050565b600080600860009054906101000a90046001600160a01b03166001600160a01b031663b7ab4db56040518163ffffffff1660e01b8152600401600060405180830381865afa158015611fb2573d6000803e3d6000fd5b505050506040513d6000823e601f3d908101601f19168201604052611fda9190810190612e62565b80519091506000819003612001576040516322b8b72360e21b815260040160405180910390fd5b600061200c8261241d565b905080606001516000036120265760009350505050610fb9565b80516004805460009061203a908490612e00565b9091555050602081015160068054600090612056908490612e00565b90915550506009546040820151612076916001600160a01b0316906125bc565b6040810151606082015160009061208e908390612e00565b905060008061209e898b89612668565b91509150816000036120ce578385606001516120ba9190612e00565b6002555060009650610fb995505050505050565b60006120da8385612e2a565b60008c815260036020526040902054909150811561227a5760005b888110156122785783818151811061210f5761210f612e4c565b6020026020010151156122705760008a828151811061213057612130612e4c565b60209081029190910101516008546040516307b9342f60e21b81526001600160a01b03808416600483015292935060009290911690631ee4d0bc90602401602060405180830381865afa15801561218b573d6000803e3d6000fd5b505050506040513d601f19601f820116820180604052508101906121af9190612d5d565b90506121fb8f83876001600160a01b0390911660008181526020818152604080832080546001818101835591855283852001879055958352948152848220928252919091529190912055565b604051633f3afe0160e01b81526001600160a01b038281166004830152602482018690528f1690633f3afe019087906044016000604051808303818588803b15801561224657600080fd5b505af115801561225a573d6000803e3d6000fd5b5050505050848961226b91906129e0565b985050505b6001016120f5565b505b85876060015161228a9190612e00565b60025550939a9950505050505050505050565b60005b81518110156123b95760085482516000916001600160a01b031690631ee4d0bc908590859081106122d3576122d3612e4c565b60200260200101516040518263ffffffff1660e01b815260040161230691906001600160a01b0391909116815260200190565b602060405180830381865afa158015612323573d6000803e3d6000fd5b505050506040513d601f19601f820116820180604052508101906123479190612d5d565b6040516368563b7b60e11b8152600481018690526001600160a01b0380831660248301529192509086169063d0ac76f690604401600060405180830381600087803b15801561239557600080fd5b505af11580156123a9573d6000803e3d6000fd5b50505050508060010190506122a0565b50505050565b7ff0c57e16840df040f15088dc2f81fe391c3923bec73e23a9662efc9c229c6a005468010000000000000000900460ff1661092a57604051631afcd79f60e31b815260040160405180910390fd5b6114596123bf565b611c4e6123bf565b6124486040518060800160405280600081526020016000815260200160008152602001600081525090565b60085460408051630456292b60e11b815290516000926001600160a01b0316916308ac52569160048083019260209291908290030181865afa158015612492573d6000803e3d6000fd5b505050506040513d601f19601f820116820180604052508101906124b69190612de7565b905060006124c2610ac0565b9050600060405180608001604052806000815260200160008152602001600081526020016000815250905060648360055484886004546125029190612e13565b61250c9190612e13565b6125169190612e2a565b6125209190612e2a565b61252a9190612e2a565b815260075460065460649185918590612544908a90612e13565b61254e9190612e13565b6125589190612e2a565b6125629190612e2a565b61256c9190612e2a565b60208201819052815160025461258291906129e0565b61258c91906129e0565b60608201819052600b54600a5490916125a59190612e13565b6125af9190612e2a565b6040820152949350505050565b804710156125dd57604051631e9acf1760e31b815260040160405180910390fd5b6000826001600160a01b03168260405160006040518083038185875af1925050503d806000811461262a576040519150601f19603f3d011682016040523d82523d6000602084013e61262f565b606091505b505090508061266357604051630e21dcbb60e11b81526001600160a01b038416600482015260248101839052604401610a82565b505050565b600060606000835167ffffffffffffffff81111561268857612688612b5b565b6040519080825280602002602001820160405280156126b1578160200160208202803683370190505b5090506000866001600160a01b0316639b03d7446040518163ffffffff1660e01b8152600401602060405180830381865afa1580156126f4573d6000803e3d6000fd5b505050506040513d601f19601f820116820180604052508101906127189190612de7565b90506000805b86518110156129425760085487516000916001600160a01b03808d1692635b4eafe0928d921690631ee4d0bc908d908890811061275d5761275d612e4c565b60200260200101516040518263ffffffff1660e01b815260040161279091906001600160a01b0391909116815260200190565b602060405180830381865afa1580156127ad573d6000803e3d6000fd5b505050506040513d601f19601f820116820180604052508101906127d19190612d5d565b6040516001600160e01b031960e085901b16815260048101929092526001600160a01b03166024820152604401602060405180830381865afa15801561281b573d6000803e3d6000fd5b505050506040513d601f19601f8201168201806040525081019061283f9190612de7565b90508060000361284f575061293a565b60085488516000916001600160a01b0316906360e5c520908b908690811061287957612879612e4c565b60200260200101516040518263ffffffff1660e01b81526004016128ac91906001600160a01b0391909116815260200190565b602060405180830381865afa1580156128c9573d6000803e3d6000fd5b505050506040513d601f19601f820116820180604052508101906128ed9190612de7565b90508015806128fc5750848110155b1561290857505061293a565b600186848151811061291c5761291c612e4c565b9115156020928302919091019091015261293584612f70565b935050505b60010161271e565b509791965090945050505050565b82805482825590600052602060002090810192821561298b579160200282015b8281111561298b578251825591602001919060010190612970565b506129979291506129b5565b5090565b508054600082559060005260206000209081019061148c91905b5b8082111561299757600081556001016129b6565b634e487b7160e01b600052601160045260246000fd5b80820180821115610fb957610fb96129ca565b600060208284031215612a0557600080fd5b81358015158114612a1557600080fd5b9392505050565b6001600160a01b038116811461148c57600080fd5b60008060408385031215612a4457600080fd5b823591506020830135612a5681612a1c565b809150509250929050565b80356001600160e01b0319811681146107a557600080fd5b60008060008060608587031215612a8f57600080fd5b612a9885612a61565b9350612aa660208601612a61565b9250604085013567ffffffffffffffff80821115612ac357600080fd5b818701915087601f830112612ad757600080fd5b813581811115612ae657600080fd5b8860208260051b8501011115612afb57600080fd5b95989497505060200194505050565b600060208284031215612b1c57600080fd5b8135612a1581612a1c565b600060208284031215612b3957600080fd5b612a1582612a61565b600060208284031215612b5457600080fd5b5035919050565b634e487b7160e01b600052604160045260246000fd5b604051601f8201601f1916810167ffffffffffffffff81118282101715612b9a57612b9a612b5b565b604052919050565b60006020808385031215612bb557600080fd5b823567ffffffffffffffff80821115612bcd57600080fd5b818501915085601f830112612be157600080fd5b813581811115612bf357612bf3612b5b565b612c05601f8201601f19168501612b71565b91508082528684828501011115612c1b57600080fd5b8084840185840137600090820190930192909252509392505050565b602080825282516001600160e01b031916828201528281015160408084015280516060840181905260009291820190839060808601905b80831015612c8e5783518252928401926001929092019190840190612c6e565b509695505050505050565b60008060408385031215612cac57600080fd5b612cb583612a61565b946020939093013593505050565b600080600060608486031215612cd857600080fd5b8335612ce381612a1c565b92506020840135612cf381612a1c565b91506040840135612d0381612a1c565b809150509250925092565b60008151808452602080850194506020840160005b83811015612d3f57815187529582019590820190600101612d23565b509495945050505050565b602081526000612a156020830184612d0e565b600060208284031215612d6f57600080fd5b8151612a1581612a1c565b6001600160e01b0319858116825284166020820152606060408201819052810182905260007f07ffffffffffffffffffffffffffffffffffffffffffffffffffffffffffffff831115612dcc57600080fd5b8260051b808560808501379190910160800195945050505050565b600060208284031215612df957600080fd5b5051919050565b81810381811115610fb957610fb96129ca565b8082028115828204841417610fb957610fb96129ca565b600082612e4757634e487b7160e01b600052601260045260246000fd5b500490565b634e487b7160e01b600052603260045260246000fd5b60006020808385031215612e7557600080fd5b825167ffffffffffffffff80821115612e8d57600080fd5b818501915085601f830112612ea157600080fd5b815181811115612eb357612eb3612b5b565b8060051b9150612ec4848301612b71565b8181529183018401918481019088841115612ede57600080fd5b938501935b83851015612f085784519250612ef883612a1c565b8282529385019390850190612ee3565b98975050505050505050565b6000825160005b81811015612f355760208186018101518583015201612f1b565b506000920191825250919050565b6001600160e01b0319848116825283166020820152606060408201819052600090611e7d90830184612d0e565b600060018201612f8257612f826129ca565b506001019056fea26469706673582212200b841963c866454a69f37c404493438b24ff7faf1e97c4b7d188e7a6a520ae9d64736f6c63430008190033",
  "linkReferences": {},
  "deployedLinkReferences": {}
}