{
  "_format": "hh-sol-artifact-1",
  "contractName": "BlockRewardHbbftMock",
  "sourceName": "contracts/mockContracts/BlockRewardHbbftMock.sol",
  "abi": [
    {
      "inputs": [],
      "name": "GetterCallFailed",
      "type": "error"
    },
    {
      "inputs": [],
      "name": "InsufficientBalance",
      "type": "error"
    },
    {
      "inputs": [],
      "name": "InvalidInitialization",
      "type": "error"
    },
    {
      "inputs": [
        {
          "internalType": "uint256",
          "name": "_newVal",
          "type": "uint256"
        }
      ],
      "name": "NewValueOutOfRange",
      "type": "error"
    },
    {
      "inputs": [],
      "name": "NotInitializing",
      "type": "error"
    },
    {
      "inputs": [
        {
          "internalType": "address",
          "name": "owner",
          "type": "address"
        }
      ],
      "name": "OwnableInvalidOwner",
      "type": "error"
    },
    {
      "inputs": [
        {
          "internalType": "address",
          "name": "account",
          "type": "address"
        }
      ],
      "name": "OwnableUnauthorizedAccount",
      "type": "error"
    },
    {
      "inputs": [],
      "name": "ReentrancyGuardReentrantCall",
      "type": "error"
    },
    {
      "inputs": [
        {
          "internalType": "address",
          "name": "recipient",
          "type": "address"
        },
        {
          "internalType": "uint256",
          "name": "amount",
          "type": "uint256"
        }
      ],
      "name": "TransferFailed",
      "type": "error"
    },
    {
      "inputs": [],
      "name": "Unauthorized",
      "type": "error"
    },
    {
      "inputs": [],
      "name": "ValidatorsListEmpty",
      "type": "error"
    },
    {
      "inputs": [],
      "name": "ZeroAddress",
      "type": "error"
    },
    {
      "inputs": [],
      "name": "ZeroPayoutFraction",
      "type": "error"
    },
    {
      "anonymous": false,
      "inputs": [
        {
          "indexed": false,
          "internalType": "uint256",
          "name": "rewards",
          "type": "uint256"
        }
      ],
      "name": "CoinsRewarded",
      "type": "event"
    },
    {
      "anonymous": false,
      "inputs": [],
      "name": "EarlyEpochEndNotificationReceived",
      "type": "event"
    },
    {
      "anonymous": false,
      "inputs": [
        {
          "indexed": false,
          "internalType": "uint64",
          "name": "version",
          "type": "uint64"
        }
      ],
      "name": "Initialized",
      "type": "event"
    },
    {
      "anonymous": false,
      "inputs": [
        {
          "indexed": true,
          "internalType": "address",
          "name": "previousOwner",
          "type": "address"
        },
        {
          "indexed": true,
          "internalType": "address",
          "name": "newOwner",
          "type": "address"
        }
      ],
      "name": "OwnershipTransferred",
      "type": "event"
    },
    {
      "anonymous": false,
      "inputs": [
        {
          "indexed": false,
          "internalType": "bytes4",
          "name": "funcSelector",
          "type": "bytes4"
        }
      ],
      "name": "RemoveChangeableParameter",
      "type": "event"
    },
    {
      "anonymous": false,
      "inputs": [
        {
          "indexed": false,
          "internalType": "bytes4",
          "name": "setter",
          "type": "bytes4"
        },
        {
          "indexed": false,
          "internalType": "bytes4",
          "name": "getter",
          "type": "bytes4"
        },
        {
          "indexed": false,
          "internalType": "uint256[]",
          "name": "params",
          "type": "uint256[]"
        }
      ],
      "name": "SetChangeableParameter",
      "type": "event"
    },
    {
      "anonymous": false,
      "inputs": [
        {
          "indexed": false,
          "internalType": "address",
          "name": "_connectivityTracker",
          "type": "address"
        }
      ],
      "name": "SetConnectivityTracker",
      "type": "event"
    },
    {
      "anonymous": false,
      "inputs": [
        {
          "indexed": false,
          "internalType": "uint256",
          "name": "_fraction",
          "type": "uint256"
        }
      ],
      "name": "SetDeltaPotPayoutFraction",
      "type": "event"
    },
    {
      "anonymous": false,
      "inputs": [
        {
          "indexed": false,
          "internalType": "uint256",
          "name": "value",
          "type": "uint256"
        }
      ],
      "name": "SetGovernancePotShareNominator",
      "type": "event"
    },
    {
      "anonymous": false,
      "inputs": [
        {
          "indexed": false,
          "internalType": "uint256",
          "name": "_fraction",
          "type": "uint256"
        }
      ],
      "name": "SetReinsertPotPayoutFraction",
      "type": "event"
    },
    {
      "inputs": [],
      "name": "VALIDATOR_FIXED_REWARD_PERCENT",
      "outputs": [
        {
          "internalType": "uint256",
          "name": "",
          "type": "uint256"
        }
      ],
      "stateMutability": "view",
      "type": "function"
    },
    {
      "inputs": [],
      "name": "addToDeltaPot",
      "outputs": [],
      "stateMutability": "payable",
      "type": "function"
    },
    {
      "inputs": [],
      "name": "addToReinsertPot",
      "outputs": [],
      "stateMutability": "payable",
      "type": "function"
    },
    {
      "inputs": [
        {
          "internalType": "bytes4",
          "name": "",
          "type": "bytes4"
        }
      ],
      "name": "allowedParameterRange",
      "outputs": [
        {
          "internalType": "bytes4",
          "name": "getter",
          "type": "bytes4"
        }
      ],
      "stateMutability": "view",
      "type": "function"
    },
    {
      "inputs": [],
      "name": "connectivityTracker",
      "outputs": [
        {
          "internalType": "contract IConnectivityTrackerHbbft",
          "name": "",
          "type": "address"
        }
      ],
      "stateMutability": "view",
      "type": "function"
    },
    {
      "inputs": [],
      "name": "deltaPot",
      "outputs": [
        {
          "internalType": "uint256",
          "name": "",
          "type": "uint256"
        }
      ],
      "stateMutability": "view",
      "type": "function"
    },
    {
      "inputs": [],
      "name": "deltaPotPayoutFraction",
      "outputs": [
        {
          "internalType": "uint256",
          "name": "",
          "type": "uint256"
        }
      ],
      "stateMutability": "view",
      "type": "function"
    },
    {
      "inputs": [],
      "name": "earlyEpochEnd",
      "outputs": [
        {
          "internalType": "bool",
          "name": "",
          "type": "bool"
        }
      ],
      "stateMutability": "view",
      "type": "function"
    },
    {
      "inputs": [],
      "name": "epochPercentage",
      "outputs": [
        {
          "internalType": "uint256",
          "name": "",
          "type": "uint256"
        }
      ],
      "stateMutability": "view",
      "type": "function"
    },
    {
      "inputs": [
        {
          "internalType": "uint256",
          "name": "",
          "type": "uint256"
        },
        {
          "internalType": "address",
          "name": "",
          "type": "address"
        }
      ],
      "name": "epochPoolNativeReward",
      "outputs": [
        {
          "internalType": "uint256",
          "name": "",
          "type": "uint256"
        }
      ],
      "stateMutability": "view",
      "type": "function"
    },
    {
      "inputs": [
        {
          "internalType": "address",
          "name": "_miningAddress",
          "type": "address"
        }
      ],
      "name": "epochsPoolGotRewardFor",
      "outputs": [
        {
          "internalType": "uint256[]",
          "name": "",
          "type": "uint256[]"
        }
      ],
      "stateMutability": "view",
      "type": "function"
    },
    {
      "inputs": [
        {
          "internalType": "string",
          "name": "_selector",
          "type": "string"
        }
      ],
      "name": "getAllowedParamsRange",
      "outputs": [
        {
          "components": [
            {
              "internalType": "bytes4",
              "name": "getter",
              "type": "bytes4"
            },
            {
              "internalType": "uint256[]",
              "name": "range",
              "type": "uint256[]"
            }
          ],
          "internalType": "struct ValueGuards.ParameterRange",
          "name": "",
          "type": "tuple"
        }
      ],
      "stateMutability": "view",
      "type": "function"
    },
    {
      "inputs": [
        {
          "internalType": "bytes4",
          "name": "_selector",
          "type": "bytes4"
        }
      ],
      "name": "getAllowedParamsRangeWithSelector",
      "outputs": [
        {
          "components": [
            {
              "internalType": "bytes4",
              "name": "getter",
              "type": "bytes4"
            },
            {
              "internalType": "uint256[]",
              "name": "range",
              "type": "uint256[]"
            }
          ],
          "internalType": "struct ValueGuards.ParameterRange",
          "name": "",
          "type": "tuple"
        }
      ],
      "stateMutability": "view",
      "type": "function"
    },
    {
      "inputs": [],
      "name": "getGovernanceAddress",
      "outputs": [
        {
          "internalType": "address",
          "name": "",
          "type": "address"
        }
      ],
      "stateMutability": "view",
      "type": "function"
    },
    {
      "inputs": [
        {
          "internalType": "uint256",
          "name": "numValidators",
          "type": "uint256"
        }
      ],
      "name": "getPotsShares",
      "outputs": [
        {
          "components": [
            {
              "internalType": "uint256",
              "name": "deltaPotAmount",
              "type": "uint256"
            },
            {
              "internalType": "uint256",
              "name": "reinsertPotAmount",
              "type": "uint256"
            },
            {
              "internalType": "uint256",
              "name": "governancePotAmount",
              "type": "uint256"
            },
            {
              "internalType": "uint256",
              "name": "totalRewards",
              "type": "uint256"
            }
          ],
          "internalType": "struct BlockRewardHbbft.PotsShares",
          "name": "",
          "type": "tuple"
        }
      ],
      "stateMutability": "view",
      "type": "function"
    },
    {
      "inputs": [],
      "name": "governancePotAddress",
      "outputs": [
        {
          "internalType": "address payable",
          "name": "",
          "type": "address"
        }
      ],
      "stateMutability": "view",
      "type": "function"
    },
    {
      "inputs": [],
      "name": "governancePotShareDenominator",
      "outputs": [
        {
          "internalType": "uint256",
          "name": "",
          "type": "uint256"
        }
      ],
      "stateMutability": "view",
      "type": "function"
    },
    {
      "inputs": [],
      "name": "governancePotShareNominator",
      "outputs": [
        {
          "internalType": "uint256",
          "name": "",
          "type": "uint256"
        }
      ],
      "stateMutability": "view",
      "type": "function"
    },
    {
      "inputs": [
        {
          "internalType": "address",
          "name": "_contractOwner",
          "type": "address"
        },
        {
          "internalType": "address",
          "name": "_validatorSet",
          "type": "address"
        },
        {
          "internalType": "address",
          "name": "_connectivityTracker",
          "type": "address"
        }
      ],
      "name": "initialize",
      "outputs": [],
      "stateMutability": "nonpayable",
      "type": "function"
    },
    {
      "inputs": [
        {
          "internalType": "bytes4",
          "name": "funcSelector",
          "type": "bytes4"
        },
        {
          "internalType": "uint256",
          "name": "newVal",
          "type": "uint256"
        }
      ],
      "name": "isWithinAllowedRange",
      "outputs": [
        {
          "internalType": "bool",
          "name": "",
          "type": "bool"
        }
      ],
      "stateMutability": "view",
      "type": "function"
    },
    {
      "inputs": [],
      "name": "nativeRewardUndistributed",
      "outputs": [
        {
          "internalType": "uint256",
          "name": "",
          "type": "uint256"
        }
      ],
      "stateMutability": "view",
      "type": "function"
    },
    {
      "inputs": [],
      "name": "notifyEarlyEpochEnd",
      "outputs": [],
      "stateMutability": "nonpayable",
      "type": "function"
    },
    {
      "inputs": [],
      "name": "owner",
      "outputs": [
        {
          "internalType": "address",
          "name": "",
          "type": "address"
        }
      ],
      "stateMutability": "view",
      "type": "function"
    },
    {
      "inputs": [],
      "name": "reinsertPot",
      "outputs": [
        {
          "internalType": "uint256",
          "name": "",
          "type": "uint256"
        }
      ],
      "stateMutability": "view",
      "type": "function"
    },
    {
      "inputs": [],
      "name": "reinsertPotPayoutFraction",
      "outputs": [
        {
          "internalType": "uint256",
          "name": "",
          "type": "uint256"
        }
      ],
      "stateMutability": "view",
      "type": "function"
    },
    {
      "inputs": [
        {
          "internalType": "bytes4",
          "name": "funcSelector",
          "type": "bytes4"
        }
      ],
      "name": "removeAllowedChangeableParameter",
      "outputs": [],
      "stateMutability": "nonpayable",
      "type": "function"
    },
    {
      "inputs": [],
      "name": "renounceOwnership",
      "outputs": [],
      "stateMutability": "nonpayable",
      "type": "function"
    },
    {
      "inputs": [],
      "name": "resetEarlyEpochEnd",
      "outputs": [],
      "stateMutability": "nonpayable",
      "type": "function"
    },
    {
      "inputs": [
        {
          "internalType": "bool",
          "name": "_isEpochEndBlock",
          "type": "bool"
        }
      ],
      "name": "reward",
      "outputs": [
        {
          "internalType": "uint256",
          "name": "rewardsNative",
          "type": "uint256"
        }
      ],
      "stateMutability": "nonpayable",
      "type": "function"
    },
    {
      "inputs": [],
      "name": "sendCoins",
      "outputs": [],
      "stateMutability": "payable",
      "type": "function"
    },
    {
      "inputs": [
        {
          "internalType": "bytes4",
          "name": "setter",
          "type": "bytes4"
        },
        {
          "internalType": "bytes4",
          "name": "getter",
          "type": "bytes4"
        },
        {
          "internalType": "uint256[]",
          "name": "params",
          "type": "uint256[]"
        }
      ],
      "name": "setAllowedChangeableParameter",
      "outputs": [],
      "stateMutability": "nonpayable",
      "type": "function"
    },
    {
      "inputs": [
        {
          "internalType": "address",
          "name": "_connectivityTracker",
          "type": "address"
        }
      ],
      "name": "setConnectivityTracker",
      "outputs": [],
      "stateMutability": "nonpayable",
      "type": "function"
    },
    {
      "inputs": [
        {
          "internalType": "address",
          "name": "_address",
          "type": "address"
        }
      ],
      "name": "setGovernanceAddress",
      "outputs": [],
      "stateMutability": "nonpayable",
      "type": "function"
    },
    {
      "inputs": [
        {
          "internalType": "uint256",
          "name": "_shareNominator",
          "type": "uint256"
        }
      ],
      "name": "setGovernancePotShareNominator",
      "outputs": [],
      "stateMutability": "nonpayable",
      "type": "function"
    },
    {
      "inputs": [
        {
          "internalType": "uint256",
          "name": "_value",
          "type": "uint256"
        }
      ],
      "name": "setReinsertPotPayoutFraction",
      "outputs": [],
      "stateMutability": "nonpayable",
      "type": "function"
    },
    {
      "inputs": [
        {
          "internalType": "uint256",
          "name": "_value",
          "type": "uint256"
        }
      ],
      "name": "setdeltaPotPayoutFraction",
      "outputs": [],
      "stateMutability": "nonpayable",
      "type": "function"
    },
    {
      "inputs": [
        {
          "internalType": "address",
          "name": "newOwner",
          "type": "address"
        }
      ],
      "name": "transferOwnership",
      "outputs": [],
      "stateMutability": "nonpayable",
      "type": "function"
    },
    {
      "inputs": [
        {
          "internalType": "uint256",
          "name": "",
          "type": "uint256"
        }
      ],
      "name": "validatorMinRewardPercent",
      "outputs": [
        {
          "internalType": "uint256",
          "name": "",
          "type": "uint256"
        }
      ],
      "stateMutability": "view",
      "type": "function"
    },
    {
      "inputs": [],
      "name": "validatorSetContract",
      "outputs": [
        {
          "internalType": "contract IValidatorSetHbbft",
          "name": "",
          "type": "address"
        }
      ],
      "stateMutability": "view",
      "type": "function"
    },
    {
      "stateMutability": "payable",
      "type": "receive"
    }
  ],
  "bytecode": "0x608060405234801561001057600080fd5b5061002b67c94b102f2413becd60c01b61007260201b60201c565b610045678c34c6f0cfbf3d6060c01b61007260201b60201c565b61005f671a9b0eda2a524ba860c01b61007260201b60201c565b61006d61007560201b60201c565b6101ba565b50565b600061008561017960201b60201c565b90508060000160089054906101000a900460ff16156100d0576040517ff92ee8a900000000000000000000000000000000000000000000000000000000815260040160405180910390fd5b67ffffffffffffffff80168160000160009054906101000a900467ffffffffffffffff1667ffffffffffffffff16146101765767ffffffffffffffff8160000160006101000a81548167ffffffffffffffff021916908367ffffffffffffffff1602179055507fc7f505b2f371ae2175ee4913f4499e1f2633a7b5936321eed1cdaeb6115181d267ffffffffffffffff60405161016d91906101a1565b60405180910390a15b50565b60007ff0c57e16840df040f15088dc2f81fe391c3923bec73e23a9662efc9c229c6a00905090565b600060208201905060018060401b038316825292915050565b6162f6806101c96000396000f3fe6080604052600436106102a35760003560e01c80639740f48d1161016e578063c0c53b8b116100cb578063dd03f5b91161007f578063dfc8bf4e11610064578063dfc8bf4e146108fb578063f2fde38b14610926578063f302163d1461094f576102d6565b8063dd03f5b9146108a7578063dd0707d4146108e4576102d6565b8063cb68d127116100b0578063cb68d12714610818578063cdf7a09014610841578063cfc162541461087e576102d6565b8063c0c53b8b146107c6578063c6cc9333146107ef576102d6565b8063af18253511610122578063b710c15d11610107578063b710c15d1461070f578063ba08d2371461074c578063bf348f8614610789576102d6565b8063af182535146106fb578063b10c754814610705576102d6565b80639a64ca2c116101535780639a64ca2c1461067a578063a59546e2146106a5578063adc481a7146106d0576102d6565b80639740f48d146106265780639a06e2151461064f576102d6565b8063669554691161021c57806378ff69d5116101d05780638da5cb5b116101b55780638da5cb5b1461059357806391b57986146105be57806392283634146105e9576102d6565b806378ff69d5146105415780637d8149db1461056a576102d6565b8063715018a611610201578063715018a6146104d457806373252494146104eb57806373f1295814610516576102d6565b8063669554691461047e578063674a7214146104a9576102d6565b80633c2c943c11610273578063596208721161025857806359620872146103ff5780635c57a801146104165780635cbc1a6f14610441576102d6565b80633c2c943c146103ab5780634346845f146103d6576102d6565b8062067a84146102db5780631274fa091461031857806319cee8971461034357806333d699211461036e576102d6565b366102d6576102bc674721e65d29f9971960c01b610959565b34600760008282546102ce9190615ad9565b925050819055005b600080fd5b3480156102e757600080fd5b5061030260048036038101906102fd9190615af7565b61095c565b60405161030f9190615b23565b60405180910390f35b34801561032457600080fd5b5061032d610ca4565b60405161033a9190615b23565b60405180910390f35b34801561034f57600080fd5b50610358610caa565b6040516103659190615b34565b60405180910390f35b34801561037a57600080fd5b5061039560048036038101906103909190615b80565b610cd0565b6040516103a29190615b23565b60405180910390f35b3480156103b757600080fd5b506103c0610cf5565b6040516103cd9190615b23565b60405180910390f35b3480156103e257600080fd5b506103fd60048036038101906103f89190615bd0565b610cfb565b005b34801561040b57600080fd5b50610414610ec7565b005b34801561042257600080fd5b5061042b61109b565b6040516104389190615b23565b60405180910390f35b34801561044d57600080fd5b5061046860048036038101906104639190615c67565b6110a1565b6040516104759190615c83565b60405180910390f35b34801561048a57600080fd5b506104936110b9565b6040516104a09190615cb3565b60405180910390f35b3480156104b557600080fd5b506104be6110df565b6040516104cb9190615cda565b60405180910390f35b3480156104e057600080fd5b506104e96110f2565b005b3480156104f757600080fd5b50610500611106565b60405161050d9190615ced565b60405180910390f35b34801561052257600080fd5b5061052b61116c565b6040516105389190615b23565b60405180910390f35b34801561054d57600080fd5b5061056860048036038101906105639190615d14565b611172565b005b34801561057657600080fd5b50610591600480360381019061058c9190615d3b565b611337565b005b34801561059f57600080fd5b506105a861146b565b6040516105b59190615ced565b60405180910390f35b3480156105ca57600080fd5b506105d36114a3565b6040516105e09190615b23565b60405180910390f35b3480156105f557600080fd5b50610610600480360381019061060b9190615d3b565b6114a9565b60405161061d9190615d5e565b60405180910390f35b34801561063257600080fd5b5061064d60048036038101906106489190615c67565b6114d4565b005b34801561065b57600080fd5b506106646116ba565b6040516106719190615b23565b60405180910390f35b34801561068657600080fd5b5061068f6116bf565b60405161069c9190615b23565b60405180910390f35b3480156106b157600080fd5b506106ba6116c5565b6040516106c79190615b23565b60405180910390f35b3480156106dc57600080fd5b506106e5611a20565b6040516106f29190615b23565b60405180910390f35b610703611a26565b005b61070d611a69565b005b34801561071b57600080fd5b5061073660048036038101906107319190615dc6565b611aac565b6040516107439190615e5d565b60405180910390f35b34801561075857600080fd5b50610773600480360381019061076e9190615ec6565b611c06565b6040516107809190615cda565b60405180910390f35b34801561079557600080fd5b506107b060048036038101906107ab9190615d3b565b6120f6565b6040516107bd9190615e5d565b60405180910390f35b3480156107d257600080fd5b506107ed60048036038101906107e89190615ef2565b612249565b005b3480156107fb57600080fd5b5061081660048036038101906108119190615c67565b612901565b005b34801561082457600080fd5b5061083f600480360381019061083a9190615c67565b612a60565b005b34801561084d57600080fd5b5061086860048036038101906108639190615c67565b612bbf565b6040516108759190615b23565b60405180910390f35b34801561088a57600080fd5b506108a560048036038101906108a09190615d14565b612bd7565b005b3480156108b357600080fd5b506108ce60048036038101906108c99190615d14565b612c1b565b6040516108db9190615f84565b60405180910390f35b3480156108f057600080fd5b506108f9612cee565b005b34801561090757600080fd5b50610910612d0b565b60405161091d9190615f9f565b60405180910390f35b34801561093257600080fd5b5061094d60048036038101906109489190615d14565b612d31565b005b610957612db7565b005b50565b60006109726733768fd8a4f0985f60c01b610959565b61098667662282315b42a39260c01b610959565b61099a6702c353aa7ef7a0cc60c01b610959565b6109ae6713ebd86c83cd9e9260c01b610959565b73fffffffffffffffffffffffffffffffffffffffe73ffffffffffffffffffffffffffffffffffffffff163373ffffffffffffffffffffffffffffffffffffffff1614610a4f57610a0967bf939a88d7038f7c60c01b610959565b610a1d67bd72780d5ec45b4660c01b610959565b6040517f82b4290000000000000000000000000000000000000000000000000000000000815260040160405180910390fd5b610a6367e9c5145080e4b78460c01b610959565b610a776743a2f91da7f6a72260c01b610959565b610a8b673efd16e25c15da7260c01b610959565b610a9f673f92a42772119eb360c01b610959565b610aa7612db9565b610abb67de70c934f64dc9e260c01b610959565b610acf67ab86cbebf5b166b560c01b610959565b610ae3672d6b4c0cc040702460c01b610959565b610af7679309b6d922ddb45a60c01b610959565b6000600960009054906101000a900473ffffffffffffffffffffffffffffffffffffffff1673ffffffffffffffffffffffffffffffffffffffff16638e68dce46040518163ffffffff1660e01b8152600401602060405180830381865afa158015610b66573d6000803e3d6000fd5b505050506040513d601f19601f82011682018060405250810190610b8a9190615fc6565b9050610ba0678b9322134180741260c01b610959565b610bb4674cd6e81586f5ec2b60c01b610959565b8215610c5057610bcd6639a3ef1a760ae660c01b610959565b610be16782a528546eaeb9e760c01b610959565b610bea81612e10565b9150610c0067885296e60a2da2cf60c01b610959565b610c1467e6cdcd26d7d8cc2960c01b610959565b7ff32b9551d3414b67f8e66e20ac15e62694b9d1230abb2e2e48f9dc2e1964c42982604051610c439190615b23565b60405180910390a1610c96565b610c6467c53b50e8da20916060c01b610959565b610c7867685e298d426e34a460c01b610959565b610c8c67a3fa606eff6099b760c01b610959565b610c9581613379565b5b50610c9f613d3d565b919050565b60085481565b600a60009054906101000a900473ffffffffffffffffffffffffffffffffffffffff1681565b6002602052816000526040600020602052806000526040600020600091509150505481565b600c5481565b610d0f67be0c833aa15c34c060c01b613d56565b610d17613d59565b610d2b6732f8a94e78c23adf60c01b613d56565b610d3f6788b6eef7519ee4f160c01b613d56565b610d536716df033c7a667b6e60c01b613d56565b6040518060400160405280847bffffffffffffffffffffffffffffffffffffffffffffffffffffffff19168152602001838380806020026020016040519081016040528093929190818152602001838360200280828437600081840152601f19601f82011690508083019250505050505050815250600080867bffffffffffffffffffffffffffffffffffffffffffffffffffffffff19167bffffffffffffffffffffffffffffffffffffffffffffffffffffffff1916815260200190815260200160002060008201518160000160006101000a81548163ffffffff021916908360e01c02179055506020820151816001019080519060200190610e589291906159d7565b50905050610e706755f08098c39d2f8260c01b613d56565b610e8467bdeaf3791eacbded60c01b613d56565b7f3665bf9cd0ba4ddceeec259e21dcf8a4510f3b1130bd42e950828e69d85408ba84848484604051610eb99493929190615fed565b60405180910390a150505050565b610edb67b26060b6ef5897cc60c01b610959565b610eef6717684d361ea2c56560c01b610959565b610f036789563167395f787660c01b610959565b610f1767f841c725edfe181860c01b610959565b600d60009054906101000a900473ffffffffffffffffffffffffffffffffffffffff1673ffffffffffffffffffffffffffffffffffffffff163373ffffffffffffffffffffffffffffffffffffffff1614610fc657610f806789788d478f88a6db60c01b610959565b610f94671331738d97f77c9d60c01b610959565b6040517f82b4290000000000000000000000000000000000000000000000000000000000815260040160405180910390fd5b610fda67c20cab7059d3a9a760c01b610959565b610fee677b4bae02a89b0cc660c01b610959565b6110026745e45fa9664ce27b60c01b610959565b611016670617f3179922caba60c01b610959565b61102a676a7420aea91b5b8a60c01b610959565b6001600d60146101000a81548160ff021916908315150217905550611059670c67267c1a0d555060c01b610959565b61106d67ec0fc911aeccb3fc60c01b610959565b7f9f7c6e71cec61c4bd3b4af384f8b8729af23a80826f33e1431d07a09a4904b1660405160405180910390a1565b60055481565b6110a9615a24565b6110b282613de0565b9050919050565b600d60009054906101000a900473ffffffffffffffffffffffffffffffffffffffff1681565b600d60149054906101000a900460ff1681565b6110fa613d59565b611104600061409f565b565b600061111c6798c2650f1efc7b2160c01b610959565b611130676e84bd05c21be5b160c01b610959565b61114467324ab00a43de616660c01b610959565b600a60009054906101000a900473ffffffffffffffffffffffffffffffffffffffff16905090565b60075481565b611186670e6a062446e029d160c01b610959565b61118e613d59565b6111a267e1c71f45501d70e960c01b610959565b6111b6679ec47df13dd61f7160c01b610959565b6111ca678a95dda8e465b50060c01b610959565b6111de676481175d3e30206960c01b610959565b600073ffffffffffffffffffffffffffffffffffffffff168173ffffffffffffffffffffffffffffffffffffffff160361126c5761122667453c2f3ac406f5a560c01b610959565b61123a67ac8af95a50aba8df60c01b610959565b6040517fd92e233d00000000000000000000000000000000000000000000000000000000815260040160405180910390fd5b61128067c43662effbbd290460c01b610959565b6112946748256c6dd98ef83c60c01b610959565b80600d60006101000a81548173ffffffffffffffffffffffffffffffffffffffff021916908373ffffffffffffffffffffffffffffffffffffffff1602179055506112e967f587f9f8d3a848f260c01b610959565b6112fd67d4209ee72eeb32d660c01b610959565b7f387d29e18823e432432b6098ebeee33beebdb128d2234c7f486c26447b738edd8160405161132c9190615ced565b60405180910390a150565b61134b678fe2115d6ce1cd2660c01b613d56565b611353613d59565b6113676709b862b227f1778560c01b613d56565b61137b67423a90dea5f08d5f60c01b613d56565b61138f6712d55d992cd616b860c01b613d56565b600080827bffffffffffffffffffffffffffffffffffffffffffffffffffffffff19167bffffffffffffffffffffffffffffffffffffffffffffffffffffffff19168152602001908152602001600020600080820160006101000a81549063ffffffff02191690556001820160006114079190615a4c565b505061141d671c3795656335d30b60c01b613d56565b61143167c0de44f930e2c4cb60c01b613d56565b7fed27cb02231782dadf13473a7828cb980c4d685791b7a3136dde00f8c3594cb6816040516114609190615d5e565b60405180910390a150565b600080611476614176565b90508060000160009054906101000a900473ffffffffffffffffffffffffffffffffffffffff1691505090565b600b5481565b60006020528060005260406000206000915090508060000160009054906101000a900460e01b905081565b6114e8679d4953510f071ea460c01b610959565b6114f0613d59565b61150467c9b4488716eb3b6c60c01b610959565b611518677aef0e398a85e1eb60c01b610959565b8061152d67288a20a40e8d1c5860c01b613d56565b61154167c91bd2adbddb69c960c01b613d56565b61155567e350faaca2e8f0c060c01b613d56565b6115836000357fffffffff000000000000000000000000000000000000000000000000000000001682611c06565b6115ec5761159b67f321c0062a05753f60c01b613d56565b6115af6710282e2f2d3001d760c01b613d56565b806040517f73330d9b0000000000000000000000000000000000000000000000000000000081526004016115e39190615b23565b60405180910390fd5b611600677a834b40c8e841e560c01b613d56565b611614678765015181e8c42860c01b613d56565b6116286780175ba80e369b1060c01b610959565b61163c67eac8af2f5e2097e060c01b610959565b61165067fd2d052d67a3753060c01b610959565b81600b8190555061166b67c19bfa6eb509238860c01b610959565b61167f67d7a04c69a9202a0360c01b610959565b7f0bae48e5d1dc3568f32952ed3a75d66d27094f2e08f508808d86627eeef22903826040516116ae9190615b23565b60405180910390a15050565b601481565b60065481565b60006116db67d467428a358a850460c01b610959565b6116ef6793abcc38bb9d5f8a60c01b610959565b611703675b980283c6cca01160c01b610959565b6000600960009054906101000a900473ffffffffffffffffffffffffffffffffffffffff1673ffffffffffffffffffffffffffffffffffffffff16638e68dce46040518163ffffffff1660e01b8152600401602060405180830381865afa158015611772573d6000803e3d6000fd5b505050506040513d601f19601f820116820180604052508101906117969190615fc6565b90506117ac672a5fd55a9d9b7f9b60c01b610959565b6117c0677488f9c2439d827860c01b610959565b60008173ffffffffffffffffffffffffffffffffffffffff16639b03d7446040518163ffffffff1660e01b8152600401602060405180830381865afa15801561180d573d6000803e3d6000fd5b505050506040513d601f19601f82011682018060405250810190611831919061605c565b8273ffffffffffffffffffffffffffffffffffffffff166322e3d9866040518163ffffffff1660e01b8152600401602060405180830381865afa15801561187c573d6000803e3d6000fd5b505050506040513d601f19601f820116820180604052508101906118a0919061605c565b6118aa9190616078565b90506118c067dd2af01f09e14b3460c01b610959565b6118d467c17d33fcbdfc30bc60c01b610959565b8173ffffffffffffffffffffffffffffffffffffffff166322e3d9866040518163ffffffff1660e01b8152600401602060405180830381865afa15801561191f573d6000803e3d6000fd5b505050506040513d601f19601f82011682018060405250810190611943919061605c565b421180611960575061195f67e52443d651d70e8660c01b61419e565b5b801561197c575061197b676e4c08697c1378d260c01b6141a5565b5b611a16578060648373ffffffffffffffffffffffffffffffffffffffff16639b03d7446040518163ffffffff1660e01b8152600401602060405180830381865afa1580156119ce573d6000803e3d6000fd5b505050506040513d601f19601f820116820180604052508101906119f2919061605c565b426119fd9190616078565b611a079190616096565b611a1191906160b8565b611a19565b60645b9250505090565b60035481565b611a3a6798457fea279878b560c01b610959565b611a4e673fefae38a2068e2a60c01b610959565b3460076000828254611a609190615ad9565b92505081905550565b611a7d67174cc892394f37ae60c01b610959565b611a91671cc3261266418ee060c01b610959565b3460056000828254611aa39190615ad9565b92505081905550565b611ab4615a6d565b611ac8674619985d99bfc13a60c01b613d56565b611adc67d3809ce56ffdd6c060c01b613d56565b611af067672ef63f17fd937760c01b613d56565b60008083805190602001207bffffffffffffffffffffffffffffffffffffffffffffffffffffffff19167bffffffffffffffffffffffffffffffffffffffffffffffffffffffff191681526020019081526020016000206040518060400160405290816000820160009054906101000a900460e01b7bffffffffffffffffffffffffffffffffffffffffffffffffffffffff19167bffffffffffffffffffffffffffffffffffffffffffffffffffffffff1916815260200160018201805480602002602001604051908101604052809291908181526020018280548015611bf657602002820191906000526020600020905b815481526020019060010190808311611be2575b5050505050815250509050919050565b6000611c1c67474e2d01d013ed0460c01b613d56565b611c3067a3dfb7f1a77f229760c01b613d56565b611c4467c84461f410b06e1d60c01b613d56565b6000806000857bffffffffffffffffffffffffffffffffffffffffffffffffffffffff19167bffffffffffffffffffffffffffffffffffffffffffffffffffffffff191681526020019081526020016000206040518060400160405290816000820160009054906101000a900460e01b7bffffffffffffffffffffffffffffffffffffffffffffffffffffffff19167bffffffffffffffffffffffffffffffffffffffffffffffffffffffff1916815260200160018201805480602002602001604051908101604052809291908181526020018280548015611d4557602002820191906000526020600020905b815481526020019060010190808311611d31575b5050505050815250509050611d6467fceac404249b0d4760c01b613d56565b611d786780c820ae5d3863fa60c01b613d56565b600081602001515103611dcb57611d9967d3f7980aefae23f760c01b613d56565b611dad675178b7b9ce528bf860c01b613d56565b611dc1672c12828ba0a53f0e60c01b613d56565b60009150506120f0565b611ddf679fbf9a05f8d8d3f260c01b613d56565b611df367ec1b37c91026e18c60c01b613d56565b611e0666575fac3fc8706960c01b613d56565b600081602001519050611e2367e4ee101f22c6ceed60c01b613d56565b611e3767ccc0fb216cd0689c60c01b613d56565b6000611e4683600001516141b0565b9050611e5c67bfc58c9d8e9c74b760c01b613d56565b611e70679e58f8bb97a704b560c01b613d56565b60005b82518110156120bf57611e90670ae3b9f28946ab1660c01b613d56565b611ea4674d79179b2b65b62460c01b613d56565b81838281518110611eb857611eb76160e0565b5b60200260200101510361209e57611ed967e77d2e3f89e7a42860c01b613d56565b611eed67b7842defb9da051d60c01b613d56565b611f01671547477c73ca15a160c01b613d56565b600080821180611f215750611f2067cc01463c19fc8ba960c01b6143cc565b5b8015611f3d5750611f3c67227034a55ba6c0a760c01b6143d3565b5b611f625783600081518110611f5557611f546160e0565b5b6020026020010151611f8a565b83600183611f709190616078565b81518110611f8157611f806160e0565b5b60200260200101515b9050611fa0677185030a1f64e21460c01b613d56565b611fb46778bafd4adda4b1c560c01b613d56565b600060018551611fc49190616078565b831080611fe15750611fe0674f0cebdd4deab5ed60c01b6143cc565b5b8015611ffd5750611ffc67dc67d8968d02c22460c01b6143d3565b5b61202e5784600186516120109190616078565b81518110612021576120206160e0565b5b6020026020010151612056565b8460018461203c9190615ad9565b8151811061204d5761204c6160e0565b5b60200260200101515b905061206c672e87edf58ed8962a60c01b613d56565b612080676973514a8df1a1ba60c01b613d56565b8188141580156120905750808814155b1596505050505050506120f0565b6120b2679ca04a6f8e3f0a1060c01b613d56565b8080600101915050611e73565b506120d467aa325e51b176b97060c01b613d56565b6120e8674634c9165e74839160c01b613d56565b600093505050505b92915050565b6120fe615a6d565b612112678d336dd70b28d88c60c01b613d56565b612126670ef5ff68e8bedddd60c01b613d56565b61213a6787db0b959c67689d60c01b613d56565b600080837bffffffffffffffffffffffffffffffffffffffffffffffffffffffff19167bffffffffffffffffffffffffffffffffffffffffffffffffffffffff191681526020019081526020016000206040518060400160405290816000820160009054906101000a900460e01b7bffffffffffffffffffffffffffffffffffffffffffffffffffffffff19167bffffffffffffffffffffffffffffffffffffffffffffffffffffffff191681526020016001820180548060200260200160405190810160405280929190818152602001828054801561223957602002820191906000526020600020905b815481526020019060010190808311612225575b5050505050815250509050919050565b61225d6732b3c2034652a65c60c01b610959565b60006122676143de565b905060008160000160089054906101000a900460ff1615905060008260000160009054906101000a900467ffffffffffffffff1690506000808267ffffffffffffffff161480156122b55750825b9050600060018367ffffffffffffffff161480156122ea575060003073ffffffffffffffffffffffffffffffffffffffff163b145b9050811580156122f8575080155b1561232f576040517ff92ee8a900000000000000000000000000000000000000000000000000000000815260040160405180910390fd5b60018560000160006101000a81548167ffffffffffffffff021916908367ffffffffffffffff160217905550831561237f5760018560000160086101000a81548160ff0219169083151502179055505b61239367481a11784b96868260c01b610959565b6123a7677f1c1d7bfac0652a60c01b610959565b6123bb67ab3cdd41751f26df60c01b610959565b6123cf6788fca7f0333dc0b060c01b610959565b600073ffffffffffffffffffffffffffffffffffffffff168873ffffffffffffffffffffffffffffffffffffffff1614801561241b575061241a675f39ca5e9b20c34d60c01b6141a5565b5b8061248a5750600073ffffffffffffffffffffffffffffffffffffffff168773ffffffffffffffffffffffffffffffffffffffff1614801561246d575061246c6729fbc3a1e9183bca60c01b6141a5565b5b8015612489575061248867e0675842b97ff8f660c01b6141a5565b5b5b806124dd5750600073ffffffffffffffffffffffffffffffffffffffff168673ffffffffffffffffffffffffffffffffffffffff161480156124dc57506124db67202acc4bab973f5260c01b6141a5565b5b5b1561253c576124f66762d225fd644e132060c01b610959565b61250a670f8d02ca6c0d6e2560c01b610959565b6040517fd92e233d00000000000000000000000000000000000000000000000000000000815260040160405180910390fd5b61255067cd417daf8faf53a760c01b610959565b612564679aaf89bf3a09747160c01b610959565b61257867ccb49a73f887e23060c01b610959565b61258188614406565b61259567a3e932e3f7fa4d1460c01b610959565b6125a9671d04a936bb38871d60c01b610959565b6125b161441a565b6125c567c2db16e38813f97d60c01b610959565b86600960006101000a81548173ffffffffffffffffffffffffffffffffffffffff021916908373ffffffffffffffffffffffffffffffffffffffff16021790555061261a677ad62471d340319660c01b610959565b85600d60006101000a81548173ffffffffffffffffffffffffffffffffffffffff021916908373ffffffffffffffffffffffffffffffffffffffff16021790555061266f67f5fbdd3b8282394d60c01b610959565b6014600460008081526020019081526020016000208190555061269c67b3314cc37126dbac60c01b610959565b6117706006819055506126b9675e84aed7dafb186f60c01b610959565b6117706008819055506126d66724190c65f973de9060c01b610959565b73da0da0da0da0da0da0da00da0da0da0da0da0da0600a60006101000a81548173ffffffffffffffffffffffffffffffffffffffff021916908373ffffffffffffffffffffffffffffffffffffffff16021790555061273f67c37d602b53f3056360c01b610959565b600a600b8190555061275b678385fa137fafe5b160c01b610959565b6064600c8190555061277767434cde12229fecda60c01b610959565b61278b671421d671083b997160c01b610959565b6000600b67ffffffffffffffff8111156127a8576127a7615d78565b5b6040519080825280602002602001820160405280156127d65781602001602082028036833780820191505090505b5090506127ed67b9a3d012423b52a460c01b610959565b61280167491e41920c53ede860c01b610959565b60005b81518110156128585761282167a0f4c2db659ed72360c01b610959565b80600a61282e9190615ad9565b828281518110612841576128406160e0565b5b602002602001018181525050806001019050612804565b5061286d67ab1a461b111c632160c01b610959565b6128816715c327b6c4cc19ca60c01b610959565b61289a639740f48d60e01b6391b5798660e01b8361442c565b5083156128f75760008560000160086101000a81548160ff0219169083151502179055507fc7f505b2f371ae2175ee4913f4499e1f2633a7b5936321eed1cdaeb6115181d260016040516128ee91906160f6565b60405180910390a15b5050505050505050565b61291567773f5fa365bfce1e60c01b610959565b61291d613d59565b61293167873a63872aa8434760c01b610959565b6129456732b4e9959bc5b2de60c01b610959565b61295967c7d03a8719ad40fc60c01b610959565b61296d673fbe58267904d93260c01b610959565b600081036129cf5761298967977eda3732e2055960c01b610959565b61299d6769c2cf24f144f48460c01b610959565b6040517fffcfec8400000000000000000000000000000000000000000000000000000000815260040160405180910390fd5b6129e3679c483fc108bc082060c01b610959565b6129f7675d229c468eb6171e60c01b610959565b80600881905550612a12675b9dd26449d3995560c01b610959565b612a266748178d6ae786f8a860c01b610959565b7fb914176cecdd5906f3fd1eb6fcf471c39b33cdc7142a1d8c494487c31ff40f8881604051612a559190615b23565b60405180910390a150565b612a74677e803eda68b1a2b360c01b610959565b612a7c613d59565b612a90670f3619a873dd98b860c01b610959565b612aa4675e4610b4b71313de60c01b610959565b612ab867172fd9a1e1a9df3060c01b610959565b612acc671089986a417d965f60c01b610959565b60008103612b2e57612ae8672358c48603cc8b5560c01b610959565b612afc6713b51cc28a2cc36660c01b610959565b6040517fffcfec8400000000000000000000000000000000000000000000000000000000815260040160405180910390fd5b612b426789ac7107d265cf0d60c01b610959565b612b56672f0b1a51673ed8ca60c01b610959565b80600681905550612b716725ca5b62ca1b25e860c01b610959565b612b85675c3c672eb6dca8e860c01b610959565b7f8ce02935a391d407d8b483203a4f3cd8465b62a45c7274471113a192f111eda081604051612bb49190615b23565b60405180910390a150565b60046020528060005260406000206000915090505481565b80600a60006101000a81548173ffffffffffffffffffffffffffffffffffffffff021916908373ffffffffffffffffffffffffffffffffffffffff16021790555050565b6060612c31674e07c5926d55ba9160c01b610959565b612c4567b881c1b20d65df1660c01b610959565b612c59673aa81e8f1d6dc14560c01b610959565b600160008373ffffffffffffffffffffffffffffffffffffffff1673ffffffffffffffffffffffffffffffffffffffff168152602001908152602001600020805480602002602001604051908101604052809291908181526020018280548015612ce257602002820191906000526020600020905b815481526020019060010190808311612cce575b50505050509050919050565b6000600d60146101000a81548160ff021916908315150217905550565b600960009054906101000a900473ffffffffffffffffffffffffffffffffffffffff1681565b612d39613d59565b600073ffffffffffffffffffffffffffffffffffffffff168173ffffffffffffffffffffffffffffffffffffffff1603612dab5760006040517f1e4fbdf7000000000000000000000000000000000000000000000000000000008152600401612da29190615ced565b60405180910390fd5b612db48161409f565b50565b565b6000612dc36145b4565b90506002816000015403612e03576040517f3ee5aeb500000000000000000000000000000000000000000000000000000000815260040160405180910390fd5b6002816000018190555050565b6000612e2667e2ce8f5ed81c942c60c01b610959565b612e3a67b83a1467223b543860c01b610959565b612e4e675dd7f3b50f5414a960c01b610959565b60008273ffffffffffffffffffffffffffffffffffffffff1663794c0c686040518163ffffffff1660e01b8152600401602060405180830381865afa158015612e9b573d6000803e3d6000fd5b505050506040513d601f19601f82011682018060405250810190612ebf919061605c565b9050612ed567ee302d92649ac9a060c01b610959565b612ee967d8cbdda74663ab2c60c01b610959565b600d60009054906101000a900473ffffffffffffffffffffffffffffffffffffffff1673ffffffffffffffffffffffffffffffffffffffff166348bf1aa6826040518263ffffffff1660e01b8152600401612f449190615b23565b600060405180830381600087803b158015612f5e57600080fd5b505af1158015612f72573d6000803e3d6000fd5b50505050612f8a67b49da830d273a1fb60c01b610959565b612f9e677c68da9e590a25ce60c01b610959565b6000612fb467e6e1b2b1b70c11d360c01b610959565b612fc8675cb2607a971366af60c01b610959565b6000821461300957612fe46769ba5bb7b507060360c01b610959565b612ff8677d4ac80ece4d36ba60c01b610959565b61300282856145dc565b905061301e565b61301d67c3f94b9a6cd2782260c01b610959565b5b61303267bf0a4bee7b32611d60c01b610959565b61304667c96169e58f77401960c01b610959565b60006001836130559190615ad9565b905061306b67098a645eab858a7b60c01b610959565b61307f674786be3d045169b260c01b610959565b606061309567e4488c49e7b6832460c01b610959565b600960009054906101000a900473ffffffffffffffffffffffffffffffffffffffff1673ffffffffffffffffffffffffffffffffffffffff1663eebc7a396040518163ffffffff1660e01b8152600401600060405180830381865afa158015613102573d6000803e3d6000fd5b505050506040513d6000823e3d601f19601f8201168201806040525081019061312b9190616111565b9050613141670ae91385d5fd40e560c01b610959565b613155677e7d6541b39e9f2960c01b610959565b613160868383614e5f565b61317467080091a388ab1e3760c01b610959565b600960009054906101000a900473ffffffffffffffffffffffffffffffffffffffff1673ffffffffffffffffffffffffffffffffffffffff1663b7ab4db56040518163ffffffff1660e01b8152600401600060405180830381865afa1580156131e1573d6000803e3d6000fd5b505050506040513d6000823e3d601f19601f8201168201806040525081019061320a9190616111565b9050613220679e4cb9d76baeb27d60c01b610959565b61323467b69ae793bd1c21a660c01b610959565b61323f868383614e5f565b61325367a617d762e9b3700360c01b610959565b601460046000848152602001908152602001600020819055506132806792d2f2cba982b67860c01b610959565b61329467d4bf1c41b9effa4260c01b610959565b600960009054906101000a900473ffffffffffffffffffffffffffffffffffffffff1673ffffffffffffffffffffffffffffffffffffffff1663752862116040518163ffffffff1660e01b8152600401600060405180830381600087803b1580156132fe57600080fd5b505af1158015613312573d6000803e3d6000fd5b5050505061332a67482c3df0ca2e92aa60c01b610959565b6000600d60146101000a81548160ff021916908315150217905550613359676392943aedad0eaa60c01b610959565b61336d67aa4f25c8c4672c0560c01b610959565b82945050505050919050565b61338d67780f554886adda5260c01b610959565b6133a167904c932a42d6562e60c01b610959565b6133b5679c5ff6d93c30e8d960c01b610959565b60008173ffffffffffffffffffffffffffffffffffffffff1663c6912cc06040518163ffffffff1660e01b8152600401602060405180830381865afa158015613402573d6000803e3d6000fd5b505050506040513d601f19601f82011682018060405250810190613426919061605c565b905061343c67416c3b2e46a51c3560c01b610959565b613450676fee6d832f555efa60c01b610959565b6000600960009054906101000a900473ffffffffffffffffffffffffffffffffffffffff1673ffffffffffffffffffffffffffffffffffffffff1663b7ab4db56040518163ffffffff1660e01b8152600401600060405180830381865afa1580156134bf573d6000803e3d6000fd5b505050506040513d6000823e3d601f19601f820116820180604052508101906134e89190616111565b90506134fe672d954fea69deae9d60c01b610959565b61351267eb59149eece9320560c01b610959565b600082421015905061352e67b1ce70166e1d4be460c01b610959565b613542677c210386ae04c6e660c01b610959565b600061355867a7de4bf10a0f836660c01b610959565b61356c67040bbf23d9faccbb60c01b610959565b6002600960009054906101000a900473ffffffffffffffffffffffffffffffffffffffff1673ffffffffffffffffffffffffffffffffffffffff166308ac52566040518163ffffffff1660e01b8152600401602060405180830381865afa1580156135db573d6000803e3d6000fd5b505050506040513d601f19601f820116820180604052508101906135ff919061605c565b6136099190616096565b600384516136179190616096565b116137f55761363067636899e9efc9077760c01b610959565b613644674b0e4035662cfab160c01b610959565b61365867d98aaaeeeaa2f01660c01b610959565b60008573ffffffffffffffffffffffffffffffffffffffff1663a5d54f656040518163ffffffff1660e01b8152600401600060405180830381865afa1580156136a5573d6000803e3d6000fd5b505050506040513d6000823e3d601f19601f820116820180604052508101906136ce9190616111565b5190506136e567db166ea17eb9eb2060c01b610959565b6136f9672b9114cfa5befa0860c01b610959565b6000811180156137a457508351600960009054906101000a900473ffffffffffffffffffffffffffffffffffffffff1673ffffffffffffffffffffffffffffffffffffffff1663efd04947836040518263ffffffff1660e01b81526004016137619190615b23565b602060405180830381865afa15801561377e573d6000803e3d6000fd5b505050506040513d601f19601f820116820180604052508101906137a2919061605c565b115b156137da576137bd679ce47e27bc4df49060c01b610959565b6137d167e65397e3bc07c78660c01b610959565b600191506137ef565b6137ee673b2f6688a4411b1e60c01b610959565b5b5061380a565b61380967e29f21a9601f0c3560c01b610959565b5b61381e67c8e2f42e1dabcb4d60c01b610959565b613832676c338c940331858060c01b610959565b6000828061383d5750815b806138545750600d60149054906101000a900460ff165b905061386a67ae0135f8ef66b8a360c01b610959565b61387e679ce72068df1be19360c01b610959565b6000600960009054906101000a900473ffffffffffffffffffffffffffffffffffffffff1673ffffffffffffffffffffffffffffffffffffffff1663eebc7a396040518163ffffffff1660e01b8152600401600060405180830381865afa1580156138ed573d6000803e3d6000fd5b505050506040513d6000823e3d601f19601f820116820180604052508101906139169190616111565b51905061392d6730f872a406939ae260c01b610959565b6139416729143f76844b0c3560c01b610959565b81801561394e5750600081145b15613a455761396767e827f366211ae4ca60c01b610959565b61397b67724033e56bdb0f8460c01b610959565b61398f675dfd3dca183bb8d360c01b610959565b600960009054906101000a900473ffffffffffffffffffffffffffffffffffffffff1673ffffffffffffffffffffffffffffffffffffffff16635ccee1de6040518163ffffffff1660e01b8152600401600060405180830381600087803b1580156139f957600080fd5b505af1158015613a0d573d6000803e3d6000fd5b50505050613a256708aef723b676ff4260c01b610959565b6000600d60146101000a81548160ff021916908315150217905550613bbb565b613a5967548e633382cbbaa060c01b610959565b613a6d6767f38c072b8855d460c01b610959565b8673ffffffffffffffffffffffffffffffffffffffff166322e3d9866040518163ffffffff1660e01b8152600401602060405180830381865afa158015613ab8573d6000803e3d6000fd5b505050506040513d601f19601f82011682018060405250810190613adc919061605c565b4210613ba557613af667992cd2423c06031160c01b610959565b613b0a674279f3637cd7ead360c01b610959565b613b1e67a30cec09622d619f60c01b610959565b600960009054906101000a900473ffffffffffffffffffffffffffffffffffffffff1673ffffffffffffffffffffffffffffffffffffffff1663ade1900a6040518163ffffffff1660e01b8152600401600060405180830381600087803b158015613b8857600080fd5b505af1158015613b9c573d6000803e3d6000fd5b50505050613bba565b613bb9670af265999a24531b60c01b610959565b5b5b613bcf675f012dbc982cdc2160c01b610959565b613be36751a4fa54ef2f7ae760c01b610959565b600d60149054906101000a900460ff168015613c00575060008114155b15613c4d57613c1967e13520861e30816060c01b610959565b613c2d67d7fba5e3361e534d60c01b610959565b6000600d60146101000a81548160ff021916908315150217905550613c62565b613c61676a158dbcc3f7327060c01b610959565b5b613c7667be1661f348c3271d60c01b610959565b613c8a677087e77abf05b02b60c01b610959565b6000600a60009054906101000a900473ffffffffffffffffffffffffffffffffffffffff169050613cc567c771d85d97ebbb0860c01b610959565b613cd9671301ffa7076d20f860c01b610959565b8073ffffffffffffffffffffffffffffffffffffffff1663ab0eb62d6040518163ffffffff1660e01b8152600401600060405180830381600087803b158015613d2157600080fd5b505af1925050508015613d32575060015b505050505050505050565b6000613d476145b4565b90506001816000018190555050565b50565b613d61615030565b73ffffffffffffffffffffffffffffffffffffffff16613d7f61146b565b73ffffffffffffffffffffffffffffffffffffffff1614613dde57613da2615030565b6040517f118cdaa7000000000000000000000000000000000000000000000000000000008152600401613dd59190615ced565b60405180910390fd5b565b613de8615a24565b613dfc674991885c1ec8738060c01b610959565b613e1067bec6f550744aa0c360c01b610959565b613e246787635b163434678d60c01b610959565b6000600960009054906101000a900473ffffffffffffffffffffffffffffffffffffffff1673ffffffffffffffffffffffffffffffffffffffff166308ac52566040518163ffffffff1660e01b8152600401602060405180830381865afa158015613e93573d6000803e3d6000fd5b505050506040513d601f19601f82011682018060405250810190613eb7919061605c565b9050613ecd67c275f4189081ccc260c01b610959565b613ee167ac573811efe8aa2360c01b610959565b6000613eeb6116c5565b9050613f0167b1af717fa763a4de60c01b610959565b613f15671585740e4841197760c01b610959565b6000604051806080016040528060008152602001600081526020016000815260200160008152509050613f52671bca8aaeda048eb560c01b610959565b6064836006548488600554613f679190616096565b613f719190616096565b613f7b91906160b8565b613f8591906160b8565b613f8f91906160b8565b816000018181525050613fac677de2fc3d281c21d260c01b610959565b6064836008548488600754613fc19190616096565b613fcb9190616096565b613fd591906160b8565b613fdf91906160b8565b613fe991906160b8565b8160200181815250506140066732c0babf1bbb7e6360c01b610959565b8060200151816000015160035461401d9190615ad9565b6140279190615ad9565b8160600181815250506140446780af059f9cb15c0160c01b610959565b600c54600b5482606001516140599190616096565b61406391906160b8565b816040018181525050614080675c69a77e77275f2860c01b610959565b614094678282d51870835ba260c01b610959565b809350505050919050565b60006140a9614176565b905060008160000160009054906101000a900473ffffffffffffffffffffffffffffffffffffffff169050828260000160006101000a81548173ffffffffffffffffffffffffffffffffffffffff021916908373ffffffffffffffffffffffffffffffffffffffff1602179055508273ffffffffffffffffffffffffffffffffffffffff168173ffffffffffffffffffffffffffffffffffffffff167f8be0079c531659141344cd1fd0a4f28419497f9722a3daafe3b4186f6b6457e060405160405180910390a3505050565b60007f9016d09d72d40fdae2fd8ceac6b6234c7706214fd39c1cd1e609a0528c199300905090565b6000919050565b600060019050919050565b60006141c6679e1fb7c1345f6d7560c01b613d56565b6141da676a464d35bf2f530e60c01b613d56565b6141ee67bf3100cc1e8b9dfe60c01b613d56565b600082604051602401604051602081830303815290604052907bffffffffffffffffffffffffffffffffffffffffffffffffffffffff19166020820180517bffffffffffffffffffffffffffffffffffffffffffffffffffffffff8381831617835250505050905061426a6796628452cad12c7f60c01b613d56565b61427e675ab273453a552a6660c01b613d56565b6000803073ffffffffffffffffffffffffffffffffffffffff16836040516142a691906161cd565b600060405180830381855afa9150503d80600081146142e1576040519150601f19603f3d011682016040523d82523d6000602084013e6142e6565b606091505b50915091506142ff67ddcfe0b4c19fd84c60c01b613d56565b61431367a914dc00efc72af160c01b613d56565b816143725761432c67cc0b2dfba033c08760c01b613d56565b614340673b33da3d059e2f5160c01b613d56565b6040517fbf75613600000000000000000000000000000000000000000000000000000000815260040160405180910390fd5b614386670c45fced65fbfda160c01b613d56565b61439a6783c55538565e133160c01b613d56565b6143ae671651102527c6e0d860c01b613d56565b808060200190518101906143c2919061605c565b9350505050919050565b6000919050565b600060019050919050565b60007ff0c57e16840df040f15088dc2f81fe391c3923bec73e23a9662efc9c229c6a00905090565b61440e615038565b61441781615078565b50565b614422615038565b61442a6150fe565b565b61444067c79e4b348e6f39f460c01b613d56565b614448615038565b61445c67b4a3fa81ec94c0b760c01b613d56565b6144706779af0e9eed62f6a360c01b613d56565b614484671d2f4cf255f3a3a260c01b613d56565b6040518060400160405280837bffffffffffffffffffffffffffffffffffffffffffffffffffffffff1916815260200182815250600080857bffffffffffffffffffffffffffffffffffffffffffffffffffffffff19167bffffffffffffffffffffffffffffffffffffffffffffffffffffffff1916815260200190815260200160002060008201518160000160006101000a81548163ffffffff021916908360e01c021790555060208201518160010190805190602001906145489291906159d7565b509050506145606761754190fdc3bd4b60c01b613d56565b61457467ff18751ae25d0b5f60c01b613d56565b7f3665bf9cd0ba4ddceeec259e21dcf8a4510f3b1130bd42e950828e69d85408ba8383836040516145a793929190616206565b60405180910390a1505050565b60007f9b779b17422d0df92223018b32b4d1fa46e071723d6817e2486d003becc55f00905090565b60006145f2671e9f9c80f79e9df660c01b610959565b614606676a7f562bbe7355ca60c01b610959565b61461a6776d44f580751771b60c01b610959565b6000600960009054906101000a900473ffffffffffffffffffffffffffffffffffffffff1673ffffffffffffffffffffffffffffffffffffffff1663b7ab4db56040518163ffffffff1660e01b8152600401600060405180830381865afa158015614689573d6000803e3d6000fd5b505050506040513d6000823e3d601f19601f820116820180604052508101906146b29190616111565b90506146c8671867869406a6422f60c01b610959565b6146dc6761fb031df9b9e4dc60c01b610959565b6000815190506146f6676dcf25e165f8988160c01b610959565b61470a67afee0c495d9c3a5560c01b610959565b6000810361476c5761472667202329053ced602160c01b610959565b61473a6735db08fa42bc090d60c01b610959565b6040517f8ae2dc8c00000000000000000000000000000000000000000000000000000000815260040160405180910390fd5b61478067ee4cd21ad4c80b3f60c01b610959565b614794679284475b844cc74160c01b610959565b6147a867631c3329f95ce6f960c01b610959565b60006147b382613de0565b90506147c96781e0269bf229e6b560c01b610959565b6147dd67cefb09b2e47fceda60c01b610959565b6000816060015103614831576147fd67cb4acad2a8e3810460c01b610959565b61481167a44b0f2f2aed54ec60c01b610959565b614825676588e8f4a0a3226960c01b610959565b60009350505050614e59565b6148456702f6fa1fcdfbef2760c01b610959565b61485967d0a5a966c4931f4960c01b610959565b80600001516005600082825461486f9190616078565b9250508190555061488a672c3d3a100d92e6fd60c01b610959565b8060200151600760008282546148a09190616078565b925050819055506148bb670548ac39dbb1569760c01b610959565b6148cf67895de5babedd1f0a60c01b610959565b6148ff600a60009054906101000a900473ffffffffffffffffffffffffffffffffffffffff16826040015161511f565b614913674de7594f70ecda5060c01b610959565b61492767658963eb2fa83d8f60c01b610959565b600081604001519050614944672c9b169822c4a28060c01b610959565b614958673daa348c675d377e60c01b610959565b600081836060015161496a9190616078565b905061498067b3f6bd0d590ba23760c01b610959565b61499467c5e0abec5cdcc89060c01b610959565b6000806149a2898b89615312565b915091506149ba67851d6e2be695904860c01b610959565b6149ce67fd6342d00a6f429460c01b610959565b60008203614a4c576149ea671b7f5a177d67f4fb60c01b610959565b6149fe672343e342dfeaeaaf60c01b610959565b838560600151614a0e9190616078565b600381905550614a28676ed5c998f369c1ea60c01b610959565b614a3c67138d701e5c2bd81d60c01b610959565b6000975050505050505050614e59565b614a606765a8598c6fe8c9d360c01b610959565b614a746748112f736d4c199460c01b610959565b614a88677e55e2b980901ab960c01b610959565b60008284614a9691906160b8565b9050614aac670c8ed5a65a52590960c01b610959565b614ac06767fee460c6ea7f5960c01b610959565b6000600460008d8152602001908152602001600020549050614aec67023dd8ebaa0321e560c01b610959565b614b0067d221505f15f94ee360c01b610959565b60008214614de557614b1c67bbdefc2b2f321d5360c01b610959565b614b3067020d932b1946206c60c01b610959565b614b4467343a169d649be00260c01b610959565b60005b88811015614ddf57614b6367f3cfa24e667dffb360c01b610959565b614b776798d74f35eda183a460c01b610959565b838181518110614b8a57614b896160e0565b5b6020026020010151614bc357614baa67955b14a4fb2e426960c01b610959565b614bbe67d73df7896cc8ef4560c01b610959565b614dd4565b614bd7670d4733a9ff35a1f260c01b610959565b614beb67339dae63b4ae569060c01b610959565b614bff67ce934efb83c5b22660c01b610959565b60008a8281518110614c1457614c136160e0565b5b60200260200101519050614c3267ef74f0db2b75b95760c01b610959565b614c4667309a48a753afb86960c01b610959565b6000600960009054906101000a900473ffffffffffffffffffffffffffffffffffffffff1673ffffffffffffffffffffffffffffffffffffffff16631ee4d0bc836040518263ffffffff1660e01b8152600401614ca39190615ced565b602060405180830381865afa158015614cc0573d6000803e3d6000fd5b505050506040513d601f19601f82011682018060405250810190614ce49190615fc6565b9050614cfa674d5f02d2869c872b60c01b610959565b614d0e6704b2e8719a86965360c01b610959565b614d198f83876158a4565b614d2d67d24197841b6957e960c01b610959565b614d4167c0918f05b296b63560c01b610959565b8d73ffffffffffffffffffffffffffffffffffffffff16633f3afe018683876040518463ffffffff1660e01b8152600401614d7d92919061623c565b6000604051808303818588803b158015614d9657600080fd5b505af1158015614daa573d6000803e3d6000fd5b5050505050614dc367179599e7886deccc60c01b610959565b8489614dcf9190615ad9565b985050505b806001019050614b47565b50614dfa565b614df9678341ae052a8e950560c01b610959565b5b614e0e67545162949c21bc3260c01b610959565b858760600151614e1e9190616078565b600381905550614e3867992ff99bf53ab53560c01b610959565b614e4c67b46cae4e61bd963860c01b610959565b8599505050505050505050505b92915050565b614e73674b02dd8b1f04401760c01b610959565b614e876702ea24e1e463da9760c01b610959565b614e9b67fe6e23da3cbaee2160c01b610959565b60005b815181101561502a57614ebb671517219a2c3186f060c01b610959565b614ecf67738c85fe89e2856b60c01b610959565b6000600960009054906101000a900473ffffffffffffffffffffffffffffffffffffffff1673ffffffffffffffffffffffffffffffffffffffff16631ee4d0bc848481518110614f2257614f216160e0565b5b60200260200101516040518263ffffffff1660e01b8152600401614f469190615ced565b602060405180830381865afa158015614f63573d6000803e3d6000fd5b505050506040513d601f19601f82011682018060405250810190614f879190615fc6565b9050614f9d67aff18448df4dc23260c01b610959565b614fb16706a04d0a9aaaa41d60c01b610959565b8473ffffffffffffffffffffffffffffffffffffffff1663d0ac76f685836040518363ffffffff1660e01b8152600401614fec92919061626a565b600060405180830381600087803b15801561500657600080fd5b505af115801561501a573d6000803e3d6000fd5b5050505050806001019050614e9e565b50505050565b600033905090565b6150406159b4565b615076576040517fd7e6bcf800000000000000000000000000000000000000000000000000000000815260040160405180910390fd5b565b615080615038565b600073ffffffffffffffffffffffffffffffffffffffff168173ffffffffffffffffffffffffffffffffffffffff16036150f25760006040517f1e4fbdf70000000000000000000000000000000000000000000000000000000081526004016150e99190615ced565b60405180910390fd5b6150fb8161409f565b50565b615106615038565b60006151106145b4565b90506001816000018190555050565b61513367dfdfeb7a55abce6160c01b6159d4565b6151476761f3f0049f1c7d9e60c01b6159d4565b61515b673a2d11865c82ba6260c01b6159d4565b804710156151bd57615177673e3cc30fadd86a0b60c01b6159d4565b61518b6714768395b3bcd0e960c01b6159d4565b6040517ff4d678b800000000000000000000000000000000000000000000000000000000815260040160405180910390fd5b6151d16792aabfcece04644660c01b6159d4565b6151e567508cd9553768724a60c01b6159d4565b6151f96731c29fce7419230760c01b6159d4565b60008273ffffffffffffffffffffffffffffffffffffffff168260405161521f90616298565b60006040518083038185875af1925050503d806000811461525c576040519150601f19603f3d011682016040523d82523d6000602084013e615261565b606091505b505090506152796765d3253b7b3dc27260c01b6159d4565b61528d67d80fb7d1a14a129760c01b6159d4565b806152f9576152a667d38149d84994225960c01b6159d4565b6152ba677f1dcc6df667d61d60c01b6159d4565b82826040517f1c43b9760000000000000000000000000000000000000000000000000000000081526004016152f092919061623c565b60405180910390fd5b61530d6727f915e38bffa7d360c01b6159d4565b505050565b6000606061532a670d548839a7f3b56760c01b610959565b61533e6703b8e7be611ccadc60c01b610959565b615352670936cf00b8f1c7e860c01b610959565b6000835167ffffffffffffffff81111561536f5761536e615d78565b5b60405190808252806020026020018201604052801561539d5781602001602082028036833780820191505090505b5090506153b46701f9f059afcf3d0d60c01b610959565b6153c86778026e62402718d560c01b610959565b60008673ffffffffffffffffffffffffffffffffffffffff16639b03d7446040518163ffffffff1660e01b8152600401602060405180830381865afa158015615415573d6000803e3d6000fd5b505050506040513d601f19601f82011682018060405250810190615439919061605c565b905061544f670386572644b018d760c01b610959565b61546367bd54e17e243cee0760c01b610959565b6000615479676393792f12df92cf60c01b610959565b61548d67fd2d052ed4f21c5460c01b610959565b60005b865181101561586a576154ad6752b65724afc6e88060c01b610959565b6154c1671b75d926d4e228b360c01b610959565b60008973ffffffffffffffffffffffffffffffffffffffff16635b4eafe08a600960009054906101000a900473ffffffffffffffffffffffffffffffffffffffff1673ffffffffffffffffffffffffffffffffffffffff16631ee4d0bc8c8781518110615531576155306160e0565b5b60200260200101516040518263ffffffff1660e01b81526004016155559190615ced565b602060405180830381865afa158015615572573d6000803e3d6000fd5b505050506040513d601f19601f820116820180604052508101906155969190615fc6565b6040518363ffffffff1660e01b81526004016155b392919061626a565b602060405180830381865afa1580156155d0573d6000803e3d6000fd5b505050506040513d601f19601f820116820180604052508101906155f4919061605c565b905061560a672e5ed519d8e9500660c01b610959565b61561e67bf5545ad23f48b4a60c01b610959565b600081036156545761563a6720d5245a0ba9d9dd60c01b610959565b61564e67ab36ed5802d2294f60c01b610959565b5061585f565b61566867d8d6eb8c1130e1fb60c01b610959565b61567c67b8c2dedcd678cd7c60c01b610959565b6156906721a2bf785260ed0f60c01b610959565b6000600960009054906101000a900473ffffffffffffffffffffffffffffffffffffffff1673ffffffffffffffffffffffffffffffffffffffff166360e5c5208a85815181106156e3576156e26160e0565b5b60200260200101516040518263ffffffff1660e01b81526004016157079190615ced565b602060405180830381865afa158015615724573d6000803e3d6000fd5b505050506040513d601f19601f82011682018060405250810190615748919061605c565b905061575e67097215abdc86f71c60c01b610959565b61577267898e5e6c77cce12760c01b610959565b600081148015615792575061579167f6613cfed86a3e4860c01b6141a5565b5b806157b957508481101580156157b857506157b7675e39e8be6d0f82b960c01b6141a5565b5b5b156157ed576157d267d455e8599693c12460c01b610959565b6157e667ef31b57564f8b06d60c01b610959565b505061585f565b61580167bb75c5ec8de8232760c01b610959565b615815674950cda822a789ff60c01b610959565b600186848151811061582a576158296160e0565b5b60200260200101901515908115158152505061585067b1a7dcf2a1ebb53760c01b610959565b8361585a906162a2565b935050505b806001019050615490565b5061587f679722c12fee20274360c01b610959565b61589367d7f3dc4c39902c9b60c01b610959565b808394509450505050935093915050565b6158b8674f048aa02821797d60c01b610959565b6158cc67f1bee98784b3a00c60c01b610959565b6158e067ed6d12e502a908e360c01b610959565b600160008373ffffffffffffffffffffffffffffffffffffffff1673ffffffffffffffffffffffffffffffffffffffff16815260200190815260200160002083908060018154018082558091505060019003906000526020600020016000909190919091505561595a67ead264890d406a0960c01b610959565b806002600085815260200190815260200160002060008473ffffffffffffffffffffffffffffffffffffffff1673ffffffffffffffffffffffffffffffffffffffff16815260200190815260200160002081905550505050565b60006159be6143de565b60000160089054906101000a900460ff16905090565b50565b828054828255906000526020600020908101928215615a13579160200282015b82811115615a125782518255916020019190600101906159f7565b5b509050615a209190615aa6565b5090565b6040518060800160405280600081526020016000815260200160008152602001600081525090565b5080546000825590600052602060002090810190615a6a9190615aa6565b50565b604051806040016040528060007bffffffffffffffffffffffffffffffffffffffffffffffffffffffff19168152602001606081525090565b5b80821115615abf576000816000905550600101615aa7565b5090565b634e487b7160e01b600052601160045260246000fd5b6000828201905080821115615af157615af0615ac3565b5b92915050565b600060208284031215615b0957600080fd5b81358015158114615b1957600080fd5b8091505092915050565b600060208201905082825292915050565b600060208201905073ffffffffffffffffffffffffffffffffffffffff8316825292915050565b73ffffffffffffffffffffffffffffffffffffffff81168114615b7d57600080fd5b50565b60008060408385031215615b9357600080fd5b823591506020830135615ba581615b5b565b809150509250929050565b60008135905063ffffffff60e01b81168114615bcb57600080fd5b919050565b60008060008060608587031215615be657600080fd5b615bef85615bb0565b9350615bfd60208601615bb0565b9250604085013567ffffffffffffffff80821115615c1a57600080fd5b818701915087601f830112615c2e57600080fd5b813581811115615c3d57600080fd5b8860208260051b8501011115615c5257600080fd5b60208301945080935050505092959194509250565b600060208284031215615c7957600080fd5b8135905092915050565b60006080820190508251825260208301516020830152604083015160408301526060830151606083015292915050565b600060208201905073ffffffffffffffffffffffffffffffffffffffff8316825292915050565b6000602082019050821515825292915050565b600060208201905073ffffffffffffffffffffffffffffffffffffffff8316825292915050565b600060208284031215615d2657600080fd5b8135615d3181615b5b565b8091505092915050565b600060208284031215615d4d57600080fd5b615d5682615bb0565b905092915050565b600060208201905063ffffffff60e01b8316825292915050565b634e487b7160e01b600052604160045260246000fd5b60006040519050601f19601f830116810181811067ffffffffffffffff82111715615dbc57615dbb615d78565b5b8060405250919050565b60006020808385031215615dd957600080fd5b823567ffffffffffffffff80821115615df157600080fd5b818501915085601f830112615e0557600080fd5b813581811115615e1857615e17615d78565b5b615e2a84601f19601f84011601615d8e565b91508082528684828501011115615e4057600080fd5b808484018584013760008482840101525080935050505092915050565b600060208083526060830163ffffffff60e01b85511682850152818501516040808601528181518084526080870191508483019350600092505b80831015615eb8578351825284820191508484019350600183019250615e97565b508094505050505092915050565b60008060408385031215615ed957600080fd5b615ee283615bb0565b9150602083013590509250929050565b600080600060608486031215615f0757600080fd5b8335615f1281615b5b565b809350506020840135615f2481615b5b565b809250506040840135615f3681615b5b565b809150509250925092565b60008151808452602080850194506020840160005b83811015615f77578151875282870196508282019150600181019050615f56565b5050505082905092915050565b602081526000615f976020830184615f41565b905092915050565b600060208201905073ffffffffffffffffffffffffffffffffffffffff8316825292915050565b600060208284031215615fd857600080fd5b8151615fe381615b5b565b8091505092915050565b600063ffffffff60e01b8087168352808616602084015250606060408301528260608301527f07ffffffffffffffffffffffffffffffffffffffffffffffffffffffffffffff83111561603f57600080fd5b8260051b8085608085013760808184010191505095945050505050565b60006020828403121561606e57600080fd5b8151905092915050565b60008282039050818111156160905761608f615ac3565b5b92915050565b6000828202905081810483148215176160b2576160b1615ac3565b5b92915050565b6000826160d557634e487b7160e01b600052601260045260246000fd5b828204905092915050565b634e487b7160e01b600052603260045260246000fd5b600060208201905067ffffffffffffffff8316825292915050565b6000602080838503121561612457600080fd5b825167ffffffffffffffff8082111561613c57600080fd5b818501915085601f83011261615057600080fd5b81518181111561616357616162615d78565b5b8060051b9150616174848301615d8e565b808282528582019150858486010193508884111561619157600080fd5b85850194505b838510156161be57845192506161ac83615b5b565b82825285820191508585019450616197565b80965050505050505092915050565b6000825160005b818110156161f25760208186010151818501526020810190506161d4565b508083019050600081528091505092915050565b600063ffffffff60e01b8086168352808516602084015250606060408301526162326060830184615f41565b9050949350505050565b600060408201905073ffffffffffffffffffffffffffffffffffffffff841682528260208301529392505050565b600060408201905083825273ffffffffffffffffffffffffffffffffffffffff831660208301529392505050565b6000819050919050565b6000801982036162b5576162b4615ac3565b5b60018201905091905056fea26469706673582212207cfbae53ffdd11573b8ced2881181ac7f837376a096106dcd6b855d85f0aaeb164736f6c63430008190033",
  "linkReferences": {},
  "deployedLinkReferences": {}
}