{
  "_format": "hh-sol-artifact-1",
  "contractName": "BlockRewardHbbft",
  "sourceName": "contracts/BlockRewardHbbft.sol",
  "abi": [
    {
      "inputs": [],
      "stateMutability": "nonpayable",
      "type": "constructor"
    },
    {
      "inputs": [],
      "name": "GetterCallFailed",
      "type": "error"
    },
    {
      "inputs": [],
      "name": "InsufficientBalance",
      "type": "error"
    },
    {
      "inputs": [],
      "name": "InvalidInitialization",
      "type": "error"
    },
    {
      "inputs": [
        {
          "internalType": "uint256",
          "name": "_newVal",
          "type": "uint256"
        }
      ],
      "name": "NewValueOutOfRange",
      "type": "error"
    },
    {
      "inputs": [],
      "name": "NotInitializing",
      "type": "error"
    },
    {
      "inputs": [
        {
          "internalType": "address",
          "name": "owner",
          "type": "address"
        }
      ],
      "name": "OwnableInvalidOwner",
      "type": "error"
    },
    {
      "inputs": [
        {
          "internalType": "address",
          "name": "account",
          "type": "address"
        }
      ],
      "name": "OwnableUnauthorizedAccount",
      "type": "error"
    },
    {
      "inputs": [],
      "name": "ReentrancyGuardReentrantCall",
      "type": "error"
    },
    {
      "inputs": [
        {
          "internalType": "address",
          "name": "recipient",
          "type": "address"
        },
        {
          "internalType": "uint256",
          "name": "amount",
          "type": "uint256"
        }
      ],
      "name": "TransferFailed",
      "type": "error"
    },
    {
      "inputs": [],
      "name": "Unauthorized",
      "type": "error"
    },
    {
      "inputs": [],
      "name": "ValidatorsListEmpty",
      "type": "error"
    },
    {
      "inputs": [],
      "name": "ZeroAddress",
      "type": "error"
    },
    {
      "inputs": [],
      "name": "ZeroPayoutFraction",
      "type": "error"
    },
    {
      "anonymous": false,
      "inputs": [
        {
          "indexed": false,
          "internalType": "uint256",
          "name": "rewards",
          "type": "uint256"
        }
      ],
      "name": "CoinsRewarded",
      "type": "event"
    },
    {
      "anonymous": false,
      "inputs": [],
      "name": "EarlyEpochEndNotificationReceived",
      "type": "event"
    },
    {
      "anonymous": false,
      "inputs": [
        {
          "indexed": false,
          "internalType": "uint64",
          "name": "version",
          "type": "uint64"
        }
      ],
      "name": "Initialized",
      "type": "event"
    },
    {
      "anonymous": false,
      "inputs": [
        {
          "indexed": true,
          "internalType": "address",
          "name": "previousOwner",
          "type": "address"
        },
        {
          "indexed": true,
          "internalType": "address",
          "name": "newOwner",
          "type": "address"
        }
      ],
      "name": "OwnershipTransferred",
      "type": "event"
    },
    {
      "anonymous": false,
      "inputs": [
        {
          "indexed": false,
          "internalType": "bytes4",
          "name": "funcSelector",
          "type": "bytes4"
        }
      ],
      "name": "RemoveChangeableParameter",
      "type": "event"
    },
    {
      "anonymous": false,
      "inputs": [
        {
          "indexed": false,
          "internalType": "bytes4",
          "name": "setter",
          "type": "bytes4"
        },
        {
          "indexed": false,
          "internalType": "bytes4",
          "name": "getter",
          "type": "bytes4"
        },
        {
          "indexed": false,
          "internalType": "uint256[]",
          "name": "params",
          "type": "uint256[]"
        }
      ],
      "name": "SetChangeableParameter",
      "type": "event"
    },
    {
      "anonymous": false,
      "inputs": [
        {
          "indexed": false,
          "internalType": "address",
          "name": "_connectivityTracker",
          "type": "address"
        }
      ],
      "name": "SetConnectivityTracker",
      "type": "event"
    },
    {
      "anonymous": false,
      "inputs": [
        {
          "indexed": false,
          "internalType": "uint256",
          "name": "_fraction",
          "type": "uint256"
        }
      ],
      "name": "SetDeltaPotPayoutFraction",
      "type": "event"
    },
    {
      "anonymous": false,
      "inputs": [
        {
          "indexed": false,
          "internalType": "uint256",
          "name": "value",
          "type": "uint256"
        }
      ],
      "name": "SetGovernancePotShareNominator",
      "type": "event"
    },
    {
      "anonymous": false,
      "inputs": [
        {
          "indexed": false,
          "internalType": "uint256",
          "name": "_fraction",
          "type": "uint256"
        }
      ],
      "name": "SetReinsertPotPayoutFraction",
      "type": "event"
    },
    {
      "inputs": [],
      "name": "VALIDATOR_FIXED_REWARD_PERCENT",
      "outputs": [
        {
          "internalType": "uint256",
          "name": "",
          "type": "uint256"
        }
      ],
      "stateMutability": "view",
      "type": "function"
    },
    {
      "inputs": [],
      "name": "addToDeltaPot",
      "outputs": [],
      "stateMutability": "payable",
      "type": "function"
    },
    {
      "inputs": [],
      "name": "addToReinsertPot",
      "outputs": [],
      "stateMutability": "payable",
      "type": "function"
    },
    {
      "inputs": [
        {
          "internalType": "bytes4",
          "name": "",
          "type": "bytes4"
        }
      ],
      "name": "allowedParameterRange",
      "outputs": [
        {
          "internalType": "bytes4",
          "name": "getter",
          "type": "bytes4"
        }
      ],
      "stateMutability": "view",
      "type": "function"
    },
    {
      "inputs": [],
      "name": "connectivityTracker",
      "outputs": [
        {
          "internalType": "contract IConnectivityTrackerHbbft",
          "name": "",
          "type": "address"
        }
      ],
      "stateMutability": "view",
      "type": "function"
    },
    {
      "inputs": [],
      "name": "deltaPot",
      "outputs": [
        {
          "internalType": "uint256",
          "name": "",
          "type": "uint256"
        }
      ],
      "stateMutability": "view",
      "type": "function"
    },
    {
      "inputs": [],
      "name": "deltaPotPayoutFraction",
      "outputs": [
        {
          "internalType": "uint256",
          "name": "",
          "type": "uint256"
        }
      ],
      "stateMutability": "view",
      "type": "function"
    },
    {
      "inputs": [],
      "name": "earlyEpochEnd",
      "outputs": [
        {
          "internalType": "bool",
          "name": "",
          "type": "bool"
        }
      ],
      "stateMutability": "view",
      "type": "function"
    },
    {
      "inputs": [],
      "name": "epochPercentage",
      "outputs": [
        {
          "internalType": "uint256",
          "name": "",
          "type": "uint256"
        }
      ],
      "stateMutability": "view",
      "type": "function"
    },
    {
      "inputs": [
        {
          "internalType": "uint256",
          "name": "",
          "type": "uint256"
        },
        {
          "internalType": "address",
          "name": "",
          "type": "address"
        }
      ],
      "name": "epochPoolNativeReward",
      "outputs": [
        {
          "internalType": "uint256",
          "name": "",
          "type": "uint256"
        }
      ],
      "stateMutability": "view",
      "type": "function"
    },
    {
      "inputs": [
        {
          "internalType": "address",
          "name": "_miningAddress",
          "type": "address"
        }
      ],
      "name": "epochsPoolGotRewardFor",
      "outputs": [
        {
          "internalType": "uint256[]",
          "name": "",
          "type": "uint256[]"
        }
      ],
      "stateMutability": "view",
      "type": "function"
    },
    {
      "inputs": [
        {
          "internalType": "string",
          "name": "_selector",
          "type": "string"
        }
      ],
      "name": "getAllowedParamsRange",
      "outputs": [
        {
          "components": [
            {
              "internalType": "bytes4",
              "name": "getter",
              "type": "bytes4"
            },
            {
              "internalType": "uint256[]",
              "name": "range",
              "type": "uint256[]"
            }
          ],
          "internalType": "struct ValueGuards.ParameterRange",
          "name": "",
          "type": "tuple"
        }
      ],
      "stateMutability": "view",
      "type": "function"
    },
    {
      "inputs": [
        {
          "internalType": "bytes4",
          "name": "_selector",
          "type": "bytes4"
        }
      ],
      "name": "getAllowedParamsRangeWithSelector",
      "outputs": [
        {
          "components": [
            {
              "internalType": "bytes4",
              "name": "getter",
              "type": "bytes4"
            },
            {
              "internalType": "uint256[]",
              "name": "range",
              "type": "uint256[]"
            }
          ],
          "internalType": "struct ValueGuards.ParameterRange",
          "name": "",
          "type": "tuple"
        }
      ],
      "stateMutability": "view",
      "type": "function"
    },
    {
      "inputs": [],
      "name": "getGovernanceAddress",
      "outputs": [
        {
          "internalType": "address",
          "name": "",
          "type": "address"
        }
      ],
      "stateMutability": "view",
      "type": "function"
    },
    {
      "inputs": [],
      "name": "governancePotAddress",
      "outputs": [
        {
          "internalType": "address payable",
          "name": "",
          "type": "address"
        }
      ],
      "stateMutability": "view",
      "type": "function"
    },
    {
      "inputs": [],
      "name": "governancePotShareDenominator",
      "outputs": [
        {
          "internalType": "uint256",
          "name": "",
          "type": "uint256"
        }
      ],
      "stateMutability": "view",
      "type": "function"
    },
    {
      "inputs": [],
      "name": "governancePotShareNominator",
      "outputs": [
        {
          "internalType": "uint256",
          "name": "",
          "type": "uint256"
        }
      ],
      "stateMutability": "view",
      "type": "function"
    },
    {
      "inputs": [
        {
          "internalType": "address",
          "name": "_contractOwner",
          "type": "address"
        },
        {
          "internalType": "address",
          "name": "_validatorSet",
          "type": "address"
        },
        {
          "internalType": "address",
          "name": "_connectivityTracker",
          "type": "address"
        }
      ],
      "name": "initialize",
      "outputs": [],
      "stateMutability": "nonpayable",
      "type": "function"
    },
    {
      "inputs": [
        {
          "internalType": "bytes4",
          "name": "funcSelector",
          "type": "bytes4"
        },
        {
          "internalType": "uint256",
          "name": "newVal",
          "type": "uint256"
        }
      ],
      "name": "isWithinAllowedRange",
      "outputs": [
        {
          "internalType": "bool",
          "name": "",
          "type": "bool"
        }
      ],
      "stateMutability": "view",
      "type": "function"
    },
    {
      "inputs": [],
      "name": "nativeRewardUndistributed",
      "outputs": [
        {
          "internalType": "uint256",
          "name": "",
          "type": "uint256"
        }
      ],
      "stateMutability": "view",
      "type": "function"
    },
    {
      "inputs": [],
      "name": "notifyEarlyEpochEnd",
      "outputs": [],
      "stateMutability": "nonpayable",
      "type": "function"
    },
    {
      "inputs": [],
      "name": "owner",
      "outputs": [
        {
          "internalType": "address",
          "name": "",
          "type": "address"
        }
      ],
      "stateMutability": "view",
      "type": "function"
    },
    {
      "inputs": [],
      "name": "reinsertPot",
      "outputs": [
        {
          "internalType": "uint256",
          "name": "",
          "type": "uint256"
        }
      ],
      "stateMutability": "view",
      "type": "function"
    },
    {
      "inputs": [],
      "name": "reinsertPotPayoutFraction",
      "outputs": [
        {
          "internalType": "uint256",
          "name": "",
          "type": "uint256"
        }
      ],
      "stateMutability": "view",
      "type": "function"
    },
    {
      "inputs": [
        {
          "internalType": "bytes4",
          "name": "funcSelector",
          "type": "bytes4"
        }
      ],
      "name": "removeAllowedChangeableParameter",
      "outputs": [],
      "stateMutability": "nonpayable",
      "type": "function"
    },
    {
      "inputs": [],
      "name": "renounceOwnership",
      "outputs": [],
      "stateMutability": "nonpayable",
      "type": "function"
    },
    {
      "inputs": [
        {
          "internalType": "bool",
          "name": "_isEpochEndBlock",
          "type": "bool"
        }
      ],
      "name": "reward",
      "outputs": [
        {
          "internalType": "uint256",
          "name": "rewardsNative",
          "type": "uint256"
        }
      ],
      "stateMutability": "nonpayable",
      "type": "function"
    },
    {
      "inputs": [
        {
          "internalType": "bytes4",
          "name": "setter",
          "type": "bytes4"
        },
        {
          "internalType": "bytes4",
          "name": "getter",
          "type": "bytes4"
        },
        {
          "internalType": "uint256[]",
          "name": "params",
          "type": "uint256[]"
        }
      ],
      "name": "setAllowedChangeableParameter",
      "outputs": [],
      "stateMutability": "nonpayable",
      "type": "function"
    },
    {
      "inputs": [
        {
          "internalType": "address",
          "name": "_connectivityTracker",
          "type": "address"
        }
      ],
      "name": "setConnectivityTracker",
      "outputs": [],
      "stateMutability": "nonpayable",
      "type": "function"
    },
    {
      "inputs": [
        {
          "internalType": "uint256",
          "name": "_shareNominator",
          "type": "uint256"
        }
      ],
      "name": "setGovernancePotShareNominator",
      "outputs": [],
      "stateMutability": "nonpayable",
      "type": "function"
    },
    {
      "inputs": [
        {
          "internalType": "uint256",
          "name": "_value",
          "type": "uint256"
        }
      ],
      "name": "setReinsertPotPayoutFraction",
      "outputs": [],
      "stateMutability": "nonpayable",
      "type": "function"
    },
    {
      "inputs": [
        {
          "internalType": "uint256",
          "name": "_value",
          "type": "uint256"
        }
      ],
      "name": "setdeltaPotPayoutFraction",
      "outputs": [],
      "stateMutability": "nonpayable",
      "type": "function"
    },
    {
      "inputs": [
        {
          "internalType": "address",
          "name": "newOwner",
          "type": "address"
        }
      ],
      "name": "transferOwnership",
      "outputs": [],
      "stateMutability": "nonpayable",
      "type": "function"
    },
    {
      "inputs": [
        {
          "internalType": "uint256",
          "name": "",
          "type": "uint256"
        }
      ],
      "name": "validatorMinRewardPercent",
      "outputs": [
        {
          "internalType": "uint256",
          "name": "",
          "type": "uint256"
        }
      ],
      "stateMutability": "view",
      "type": "function"
    },
    {
      "inputs": [],
      "name": "validatorSetContract",
      "outputs": [
        {
          "internalType": "contract IValidatorSetHbbft",
          "name": "",
          "type": "address"
        }
      ],
      "stateMutability": "view",
      "type": "function"
    },
    {
      "stateMutability": "payable",
      "type": "receive"
    }
  ],
  "bytecode": "0x608060405234801561001057600080fd5b5061002b67c94b102f2413becd60c01b61007260201b60201c565b610045678c34c6f0cfbf3d6060c01b61007260201b60201c565b61005f671a9b0eda2a524ba860c01b61007260201b60201c565b61006d61007560201b60201c565b6101ba565b50565b600061008561017960201b60201c565b90508060000160089054906101000a900460ff16156100d0576040517ff92ee8a900000000000000000000000000000000000000000000000000000000815260040160405180910390fd5b67ffffffffffffffff80168160000160009054906101000a900467ffffffffffffffff1667ffffffffffffffff16146101765767ffffffffffffffff8160000160006101000a81548167ffffffffffffffff021916908367ffffffffffffffff1602179055507fc7f505b2f371ae2175ee4913f4499e1f2633a7b5936321eed1cdaeb6115181d267ffffffffffffffff60405161016d91906101a1565b60405180910390a15b50565b60007ff0c57e16840df040f15088dc2f81fe391c3923bec73e23a9662efc9c229c6a00905090565b600060208201905060018060401b038316825292915050565b616158806101c96000396000f3fe6080604052600436106102375760003560e01c80639228363411610138578063ba08d237116100b0578063cb68d1271161007f578063dd03f5b911610064578063dd03f5b9146107d5578063dfc8bf4e14610812578063f2fde38b1461083d5761026a565b8063cb68d1271461076f578063cdf7a090146107985761026a565b8063ba08d237146106a3578063bf348f86146106e0578063c0c53b8b1461071d578063c6cc9333146107465761026a565b8063a59546e211610107578063af182535116100ec578063af18253514610652578063b10c75481461065c578063b710c15d146106665761026a565b8063a59546e2146105fc578063adc481a7146106275761026a565b806392283634146105405780639740f48d1461057d5780639a06e215146105a65780639a64ca2c146105d15761026a565b806366955469116101cb57806373f129581161019a5780637d8149db1161017f5780637d8149db146104c15780638da5cb5b146104ea57806391b57986146105155761026a565b806373f129581461046d57806378ff69d5146104985761026a565b806366955469146103d5578063674a721414610400578063715018a61461042b57806373252494146104425761026a565b80633c2c943c116102075780633c2c943c1461033f5780634346845f1461036a57806359620872146103935780635c57a801146103aa5761026a565b8062067a841461026f5780631274fa09146102ac57806319cee897146102d757806333d69921146103025761026a565b3661026a57610250674721e65d29f9971960c01b610866565b3460076000828254610262919061596b565b925050819055005b600080fd5b34801561027b57600080fd5b5061029660048036038101906102919190615989565b610869565b6040516102a391906159b5565b60405180910390f35b3480156102b857600080fd5b506102c1610bb1565b6040516102ce91906159b5565b60405180910390f35b3480156102e357600080fd5b506102ec610bb7565b6040516102f991906159c6565b60405180910390f35b34801561030e57600080fd5b5061032960048036038101906103249190615a12565b610bdd565b60405161033691906159b5565b60405180910390f35b34801561034b57600080fd5b50610354610c02565b60405161036191906159b5565b60405180910390f35b34801561037657600080fd5b50610391600480360381019061038c9190615a62565b610c08565b005b34801561039f57600080fd5b506103a8610dd4565b005b3480156103b657600080fd5b506103bf610fa8565b6040516103cc91906159b5565b60405180910390f35b3480156103e157600080fd5b506103ea610fae565b6040516103f79190615af9565b60405180910390f35b34801561040c57600080fd5b50610415610fd4565b6040516104229190615b20565b60405180910390f35b34801561043757600080fd5b50610440610fe7565b005b34801561044e57600080fd5b50610457610ffb565b6040516104649190615b33565b60405180910390f35b34801561047957600080fd5b50610482611061565b60405161048f91906159b5565b60405180910390f35b3480156104a457600080fd5b506104bf60048036038101906104ba9190615b5a565b611067565b005b3480156104cd57600080fd5b506104e860048036038101906104e39190615b81565b61122c565b005b3480156104f657600080fd5b506104ff611360565b60405161050c9190615b33565b60405180910390f35b34801561052157600080fd5b5061052a611398565b60405161053791906159b5565b60405180910390f35b34801561054c57600080fd5b5061056760048036038101906105629190615b81565b61139e565b6040516105749190615ba4565b60405180910390f35b34801561058957600080fd5b506105a4600480360381019061059f9190615bbe565b6113c9565b005b3480156105b257600080fd5b506105bb6115af565b6040516105c891906159b5565b60405180910390f35b3480156105dd57600080fd5b506105e66115b4565b6040516105f391906159b5565b60405180910390f35b34801561060857600080fd5b506106116115ba565b60405161061e91906159b5565b60405180910390f35b34801561063357600080fd5b5061063c611915565b60405161064991906159b5565b60405180910390f35b61065a61191b565b005b61066461195e565b005b34801561067257600080fd5b5061068d60048036038101906106889190615c28565b6119a1565b60405161069a9190615cbf565b60405180910390f35b3480156106af57600080fd5b506106ca60048036038101906106c59190615d28565b611afb565b6040516106d79190615b20565b60405180910390f35b3480156106ec57600080fd5b5061070760048036038101906107029190615b81565b611feb565b6040516107149190615cbf565b60405180910390f35b34801561072957600080fd5b50610744600480360381019061073f9190615d54565b61213e565b005b34801561075257600080fd5b5061076d60048036038101906107689190615bbe565b6127f6565b005b34801561077b57600080fd5b5061079660048036038101906107919190615bbe565b612955565b005b3480156107a457600080fd5b506107bf60048036038101906107ba9190615bbe565b612ab4565b6040516107cc91906159b5565b60405180910390f35b3480156107e157600080fd5b506107fc60048036038101906107f79190615b5a565b612acc565b6040516108099190615de6565b60405180910390f35b34801561081e57600080fd5b50610827612b9f565b6040516108349190615e01565b60405180910390f35b34801561084957600080fd5b50610864600480360381019061085f9190615b5a565b612bc5565b005b50565b600061087f6733768fd8a4f0985f60c01b610866565b61089367662282315b42a39260c01b610866565b6108a76702c353aa7ef7a0cc60c01b610866565b6108bb6713ebd86c83cd9e9260c01b610866565b73fffffffffffffffffffffffffffffffffffffffe73ffffffffffffffffffffffffffffffffffffffff163373ffffffffffffffffffffffffffffffffffffffff161461095c5761091667bf939a88d7038f7c60c01b610866565b61092a67bd72780d5ec45b4660c01b610866565b6040517f82b4290000000000000000000000000000000000000000000000000000000000815260040160405180910390fd5b61097067e9c5145080e4b78460c01b610866565b6109846743a2f91da7f6a72260c01b610866565b610998673efd16e25c15da7260c01b610866565b6109ac673f92a42772119eb360c01b610866565b6109b4612c4b565b6109c867de70c934f64dc9e260c01b610866565b6109dc67ab86cbebf5b166b560c01b610866565b6109f0672d6b4c0cc040702460c01b610866565b610a04679309b6d922ddb45a60c01b610866565b6000600960009054906101000a900473ffffffffffffffffffffffffffffffffffffffff1673ffffffffffffffffffffffffffffffffffffffff16638e68dce46040518163ffffffff1660e01b8152600401602060405180830381865afa158015610a73573d6000803e3d6000fd5b505050506040513d601f19601f82011682018060405250810190610a979190615e28565b9050610aad678b9322134180741260c01b610866565b610ac1674cd6e81586f5ec2b60c01b610866565b8215610b5d57610ada6639a3ef1a760ae660c01b610866565b610aee6782a528546eaeb9e760c01b610866565b610af781612ca2565b9150610b0d67885296e60a2da2cf60c01b610866565b610b2167e6cdcd26d7d8cc2960c01b610866565b7ff32b9551d3414b67f8e66e20ac15e62694b9d1230abb2e2e48f9dc2e1964c42982604051610b5091906159b5565b60405180910390a1610ba3565b610b7167c53b50e8da20916060c01b610866565b610b8567685e298d426e34a460c01b610866565b610b9967a3fa606eff6099b760c01b610866565b610ba28161320b565b5b50610bac613bcf565b919050565b60085481565b600a60009054906101000a900473ffffffffffffffffffffffffffffffffffffffff1681565b6002602052816000526040600020602052806000526040600020600091509150505481565b600c5481565b610c1c67be0c833aa15c34c060c01b613be8565b610c24613beb565b610c386732f8a94e78c23adf60c01b613be8565b610c4c6788b6eef7519ee4f160c01b613be8565b610c606716df033c7a667b6e60c01b613be8565b6040518060400160405280847bffffffffffffffffffffffffffffffffffffffffffffffffffffffff19168152602001838380806020026020016040519081016040528093929190818152602001838360200280828437600081840152601f19601f82011690508083019250505050505050815250600080867bffffffffffffffffffffffffffffffffffffffffffffffffffffffff19167bffffffffffffffffffffffffffffffffffffffffffffffffffffffff1916815260200190815260200160002060008201518160000160006101000a81548163ffffffff021916908360e01c02179055506020820151816001019080519060200190610d65929190615869565b50905050610d7d6755f08098c39d2f8260c01b613be8565b610d9167bdeaf3791eacbded60c01b613be8565b7f3665bf9cd0ba4ddceeec259e21dcf8a4510f3b1130bd42e950828e69d85408ba84848484604051610dc69493929190615e4f565b60405180910390a150505050565b610de867b26060b6ef5897cc60c01b610866565b610dfc6717684d361ea2c56560c01b610866565b610e106789563167395f787660c01b610866565b610e2467f841c725edfe181860c01b610866565b600d60009054906101000a900473ffffffffffffffffffffffffffffffffffffffff1673ffffffffffffffffffffffffffffffffffffffff163373ffffffffffffffffffffffffffffffffffffffff1614610ed357610e8d6789788d478f88a6db60c01b610866565b610ea1671331738d97f77c9d60c01b610866565b6040517f82b4290000000000000000000000000000000000000000000000000000000000815260040160405180910390fd5b610ee767c20cab7059d3a9a760c01b610866565b610efb677b4bae02a89b0cc660c01b610866565b610f0f6745e45fa9664ce27b60c01b610866565b610f23670617f3179922caba60c01b610866565b610f37676a7420aea91b5b8a60c01b610866565b6001600d60146101000a81548160ff021916908315150217905550610f66670c67267c1a0d555060c01b610866565b610f7a67ec0fc911aeccb3fc60c01b610866565b7f9f7c6e71cec61c4bd3b4af384f8b8729af23a80826f33e1431d07a09a4904b1660405160405180910390a1565b60055481565b600d60009054906101000a900473ffffffffffffffffffffffffffffffffffffffff1681565b600d60149054906101000a900460ff1681565b610fef613beb565b610ff96000613c72565b565b60006110116798c2650f1efc7b2160c01b610866565b611025676e84bd05c21be5b160c01b610866565b61103967324ab00a43de616660c01b610866565b600a60009054906101000a900473ffffffffffffffffffffffffffffffffffffffff16905090565b60075481565b61107b670e6a062446e029d160c01b610866565b611083613beb565b61109767e1c71f45501d70e960c01b610866565b6110ab679ec47df13dd61f7160c01b610866565b6110bf678a95dda8e465b50060c01b610866565b6110d3676481175d3e30206960c01b610866565b600073ffffffffffffffffffffffffffffffffffffffff168173ffffffffffffffffffffffffffffffffffffffff16036111615761111b67453c2f3ac406f5a560c01b610866565b61112f67ac8af95a50aba8df60c01b610866565b6040517fd92e233d00000000000000000000000000000000000000000000000000000000815260040160405180910390fd5b61117567c43662effbbd290460c01b610866565b6111896748256c6dd98ef83c60c01b610866565b80600d60006101000a81548173ffffffffffffffffffffffffffffffffffffffff021916908373ffffffffffffffffffffffffffffffffffffffff1602179055506111de67f587f9f8d3a848f260c01b610866565b6111f267d4209ee72eeb32d660c01b610866565b7f387d29e18823e432432b6098ebeee33beebdb128d2234c7f486c26447b738edd816040516112219190615b33565b60405180910390a150565b611240678fe2115d6ce1cd2660c01b613be8565b611248613beb565b61125c6709b862b227f1778560c01b613be8565b61127067423a90dea5f08d5f60c01b613be8565b6112846712d55d992cd616b860c01b613be8565b600080827bffffffffffffffffffffffffffffffffffffffffffffffffffffffff19167bffffffffffffffffffffffffffffffffffffffffffffffffffffffff19168152602001908152602001600020600080820160006101000a81549063ffffffff02191690556001820160006112fc91906158b6565b5050611312671c3795656335d30b60c01b613be8565b61132667c0de44f930e2c4cb60c01b613be8565b7fed27cb02231782dadf13473a7828cb980c4d685791b7a3136dde00f8c3594cb6816040516113559190615ba4565b60405180910390a150565b60008061136b613d49565b90508060000160009054906101000a900473ffffffffffffffffffffffffffffffffffffffff1691505090565b600b5481565b60006020528060005260406000206000915090508060000160009054906101000a900460e01b905081565b6113dd679d4953510f071ea460c01b610866565b6113e5613beb565b6113f967c9b4488716eb3b6c60c01b610866565b61140d677aef0e398a85e1eb60c01b610866565b8061142267288a20a40e8d1c5860c01b613be8565b61143667c91bd2adbddb69c960c01b613be8565b61144a67e350faaca2e8f0c060c01b613be8565b6114786000357fffffffff000000000000000000000000000000000000000000000000000000001682611afb565b6114e15761149067f321c0062a05753f60c01b613be8565b6114a46710282e2f2d3001d760c01b613be8565b806040517f73330d9b0000000000000000000000000000000000000000000000000000000081526004016114d891906159b5565b60405180910390fd5b6114f5677a834b40c8e841e560c01b613be8565b611509678765015181e8c42860c01b613be8565b61151d6780175ba80e369b1060c01b610866565b61153167eac8af2f5e2097e060c01b610866565b61154567fd2d052d67a3753060c01b610866565b81600b8190555061156067c19bfa6eb509238860c01b610866565b61157467d7a04c69a9202a0360c01b610866565b7f0bae48e5d1dc3568f32952ed3a75d66d27094f2e08f508808d86627eeef22903826040516115a391906159b5565b60405180910390a15050565b601481565b60065481565b60006115d067d467428a358a850460c01b610866565b6115e46793abcc38bb9d5f8a60c01b610866565b6115f8675b980283c6cca01160c01b610866565b6000600960009054906101000a900473ffffffffffffffffffffffffffffffffffffffff1673ffffffffffffffffffffffffffffffffffffffff16638e68dce46040518163ffffffff1660e01b8152600401602060405180830381865afa158015611667573d6000803e3d6000fd5b505050506040513d601f19601f8201168201806040525081019061168b9190615e28565b90506116a1672a5fd55a9d9b7f9b60c01b610866565b6116b5677488f9c2439d827860c01b610866565b60008173ffffffffffffffffffffffffffffffffffffffff16639b03d7446040518163ffffffff1660e01b8152600401602060405180830381865afa158015611702573d6000803e3d6000fd5b505050506040513d601f19601f820116820180604052508101906117269190615ebe565b8273ffffffffffffffffffffffffffffffffffffffff166322e3d9866040518163ffffffff1660e01b8152600401602060405180830381865afa158015611771573d6000803e3d6000fd5b505050506040513d601f19601f820116820180604052508101906117959190615ebe565b61179f9190615eda565b90506117b567dd2af01f09e14b3460c01b610866565b6117c967c17d33fcbdfc30bc60c01b610866565b8173ffffffffffffffffffffffffffffffffffffffff166322e3d9866040518163ffffffff1660e01b8152600401602060405180830381865afa158015611814573d6000803e3d6000fd5b505050506040513d601f19601f820116820180604052508101906118389190615ebe565b421180611855575061185467e52443d651d70e8660c01b613d71565b5b80156118715750611870676e4c08697c1378d260c01b613d78565b5b61190b578060648373ffffffffffffffffffffffffffffffffffffffff16639b03d7446040518163ffffffff1660e01b8152600401602060405180830381865afa1580156118c3573d6000803e3d6000fd5b505050506040513d601f19601f820116820180604052508101906118e79190615ebe565b426118f29190615eda565b6118fc9190615ef8565b6119069190615f1a565b61190e565b60645b9250505090565b60035481565b61192f6798457fea279878b560c01b610866565b611943673fefae38a2068e2a60c01b610866565b3460076000828254611955919061596b565b92505081905550565b61197267174cc892394f37ae60c01b610866565b611986671cc3261266418ee060c01b610866565b3460056000828254611998919061596b565b92505081905550565b6119a96158d7565b6119bd674619985d99bfc13a60c01b613be8565b6119d167d3809ce56ffdd6c060c01b613be8565b6119e567672ef63f17fd937760c01b613be8565b60008083805190602001207bffffffffffffffffffffffffffffffffffffffffffffffffffffffff19167bffffffffffffffffffffffffffffffffffffffffffffffffffffffff191681526020019081526020016000206040518060400160405290816000820160009054906101000a900460e01b7bffffffffffffffffffffffffffffffffffffffffffffffffffffffff19167bffffffffffffffffffffffffffffffffffffffffffffffffffffffff1916815260200160018201805480602002602001604051908101604052809291908181526020018280548015611aeb57602002820191906000526020600020905b815481526020019060010190808311611ad7575b5050505050815250509050919050565b6000611b1167474e2d01d013ed0460c01b613be8565b611b2567a3dfb7f1a77f229760c01b613be8565b611b3967c84461f410b06e1d60c01b613be8565b6000806000857bffffffffffffffffffffffffffffffffffffffffffffffffffffffff19167bffffffffffffffffffffffffffffffffffffffffffffffffffffffff191681526020019081526020016000206040518060400160405290816000820160009054906101000a900460e01b7bffffffffffffffffffffffffffffffffffffffffffffffffffffffff19167bffffffffffffffffffffffffffffffffffffffffffffffffffffffff1916815260200160018201805480602002602001604051908101604052809291908181526020018280548015611c3a57602002820191906000526020600020905b815481526020019060010190808311611c26575b5050505050815250509050611c5967fceac404249b0d4760c01b613be8565b611c6d6780c820ae5d3863fa60c01b613be8565b600081602001515103611cc057611c8e67d3f7980aefae23f760c01b613be8565b611ca2675178b7b9ce528bf860c01b613be8565b611cb6672c12828ba0a53f0e60c01b613be8565b6000915050611fe5565b611cd4679fbf9a05f8d8d3f260c01b613be8565b611ce867ec1b37c91026e18c60c01b613be8565b611cfb66575fac3fc8706960c01b613be8565b600081602001519050611d1867e4ee101f22c6ceed60c01b613be8565b611d2c67ccc0fb216cd0689c60c01b613be8565b6000611d3b8360000151613d83565b9050611d5167bfc58c9d8e9c74b760c01b613be8565b611d65679e58f8bb97a704b560c01b613be8565b60005b8251811015611fb457611d85670ae3b9f28946ab1660c01b613be8565b611d99674d79179b2b65b62460c01b613be8565b81838281518110611dad57611dac615f42565b5b602002602001015103611f9357611dce67e77d2e3f89e7a42860c01b613be8565b611de267b7842defb9da051d60c01b613be8565b611df6671547477c73ca15a160c01b613be8565b600080821180611e165750611e1567cc01463c19fc8ba960c01b613f9f565b5b8015611e325750611e3167227034a55ba6c0a760c01b613fa6565b5b611e575783600081518110611e4a57611e49615f42565b5b6020026020010151611e7f565b83600183611e659190615eda565b81518110611e7657611e75615f42565b5b60200260200101515b9050611e95677185030a1f64e21460c01b613be8565b611ea96778bafd4adda4b1c560c01b613be8565b600060018551611eb99190615eda565b831080611ed65750611ed5674f0cebdd4deab5ed60c01b613f9f565b5b8015611ef25750611ef167dc67d8968d02c22460c01b613fa6565b5b611f23578460018651611f059190615eda565b81518110611f1657611f15615f42565b5b6020026020010151611f4b565b84600184611f31919061596b565b81518110611f4257611f41615f42565b5b60200260200101515b9050611f61672e87edf58ed8962a60c01b613be8565b611f75676973514a8df1a1ba60c01b613be8565b818814158015611f855750808814155b159650505050505050611fe5565b611fa7679ca04a6f8e3f0a1060c01b613be8565b8080600101915050611d68565b50611fc967aa325e51b176b97060c01b613be8565b611fdd674634c9165e74839160c01b613be8565b600093505050505b92915050565b611ff36158d7565b612007678d336dd70b28d88c60c01b613be8565b61201b670ef5ff68e8bedddd60c01b613be8565b61202f6787db0b959c67689d60c01b613be8565b600080837bffffffffffffffffffffffffffffffffffffffffffffffffffffffff19167bffffffffffffffffffffffffffffffffffffffffffffffffffffffff191681526020019081526020016000206040518060400160405290816000820160009054906101000a900460e01b7bffffffffffffffffffffffffffffffffffffffffffffffffffffffff19167bffffffffffffffffffffffffffffffffffffffffffffffffffffffff191681526020016001820180548060200260200160405190810160405280929190818152602001828054801561212e57602002820191906000526020600020905b81548152602001906001019080831161211a575b5050505050815250509050919050565b6121526732b3c2034652a65c60c01b610866565b600061215c613fb1565b905060008160000160089054906101000a900460ff1615905060008260000160009054906101000a900467ffffffffffffffff1690506000808267ffffffffffffffff161480156121aa5750825b9050600060018367ffffffffffffffff161480156121df575060003073ffffffffffffffffffffffffffffffffffffffff163b145b9050811580156121ed575080155b15612224576040517ff92ee8a900000000000000000000000000000000000000000000000000000000815260040160405180910390fd5b60018560000160006101000a81548167ffffffffffffffff021916908367ffffffffffffffff16021790555083156122745760018560000160086101000a81548160ff0219169083151502179055505b61228867481a11784b96868260c01b610866565b61229c677f1c1d7bfac0652a60c01b610866565b6122b067ab3cdd41751f26df60c01b610866565b6122c46788fca7f0333dc0b060c01b610866565b600073ffffffffffffffffffffffffffffffffffffffff168873ffffffffffffffffffffffffffffffffffffffff16148015612310575061230f675f39ca5e9b20c34d60c01b613d78565b5b8061237f5750600073ffffffffffffffffffffffffffffffffffffffff168773ffffffffffffffffffffffffffffffffffffffff1614801561236257506123616729fbc3a1e9183bca60c01b613d78565b5b801561237e575061237d67e0675842b97ff8f660c01b613d78565b5b5b806123d25750600073ffffffffffffffffffffffffffffffffffffffff168673ffffffffffffffffffffffffffffffffffffffff161480156123d157506123d067202acc4bab973f5260c01b613d78565b5b5b15612431576123eb6762d225fd644e132060c01b610866565b6123ff670f8d02ca6c0d6e2560c01b610866565b6040517fd92e233d00000000000000000000000000000000000000000000000000000000815260040160405180910390fd5b61244567cd417daf8faf53a760c01b610866565b612459679aaf89bf3a09747160c01b610866565b61246d67ccb49a73f887e23060c01b610866565b61247688613fd9565b61248a67a3e932e3f7fa4d1460c01b610866565b61249e671d04a936bb38871d60c01b610866565b6124a6613fed565b6124ba67c2db16e38813f97d60c01b610866565b86600960006101000a81548173ffffffffffffffffffffffffffffffffffffffff021916908373ffffffffffffffffffffffffffffffffffffffff16021790555061250f677ad62471d340319660c01b610866565b85600d60006101000a81548173ffffffffffffffffffffffffffffffffffffffff021916908373ffffffffffffffffffffffffffffffffffffffff16021790555061256467f5fbdd3b8282394d60c01b610866565b6014600460008081526020019081526020016000208190555061259167b3314cc37126dbac60c01b610866565b6117706006819055506125ae675e84aed7dafb186f60c01b610866565b6117706008819055506125cb6724190c65f973de9060c01b610866565b73da0da0da0da0da0da0da00da0da0da0da0da0da0600a60006101000a81548173ffffffffffffffffffffffffffffffffffffffff021916908373ffffffffffffffffffffffffffffffffffffffff16021790555061263467c37d602b53f3056360c01b610866565b600a600b81905550612650678385fa137fafe5b160c01b610866565b6064600c8190555061266c67434cde12229fecda60c01b610866565b612680671421d671083b997160c01b610866565b6000600b67ffffffffffffffff81111561269d5761269c615bda565b5b6040519080825280602002602001820160405280156126cb5781602001602082028036833780820191505090505b5090506126e267b9a3d012423b52a460c01b610866565b6126f667491e41920c53ede860c01b610866565b60005b815181101561274d5761271667a0f4c2db659ed72360c01b610866565b80600a612723919061596b565b82828151811061273657612735615f42565b5b6020026020010181815250508060010190506126f9565b5061276267ab1a461b111c632160c01b610866565b6127766715c327b6c4cc19ca60c01b610866565b61278f639740f48d60e01b6391b5798660e01b83613fff565b5083156127ec5760008560000160086101000a81548160ff0219169083151502179055507fc7f505b2f371ae2175ee4913f4499e1f2633a7b5936321eed1cdaeb6115181d260016040516127e39190615f58565b60405180910390a15b5050505050505050565b61280a67773f5fa365bfce1e60c01b610866565b612812613beb565b61282667873a63872aa8434760c01b610866565b61283a6732b4e9959bc5b2de60c01b610866565b61284e67c7d03a8719ad40fc60c01b610866565b612862673fbe58267904d93260c01b610866565b600081036128c45761287e67977eda3732e2055960c01b610866565b6128926769c2cf24f144f48460c01b610866565b6040517fffcfec8400000000000000000000000000000000000000000000000000000000815260040160405180910390fd5b6128d8679c483fc108bc082060c01b610866565b6128ec675d229c468eb6171e60c01b610866565b80600881905550612907675b9dd26449d3995560c01b610866565b61291b6748178d6ae786f8a860c01b610866565b7fb914176cecdd5906f3fd1eb6fcf471c39b33cdc7142a1d8c494487c31ff40f888160405161294a91906159b5565b60405180910390a150565b612969677e803eda68b1a2b360c01b610866565b612971613beb565b612985670f3619a873dd98b860c01b610866565b612999675e4610b4b71313de60c01b610866565b6129ad67172fd9a1e1a9df3060c01b610866565b6129c1671089986a417d965f60c01b610866565b60008103612a23576129dd672358c48603cc8b5560c01b610866565b6129f16713b51cc28a2cc36660c01b610866565b6040517fffcfec8400000000000000000000000000000000000000000000000000000000815260040160405180910390fd5b612a376789ac7107d265cf0d60c01b610866565b612a4b672f0b1a51673ed8ca60c01b610866565b80600681905550612a666725ca5b62ca1b25e860c01b610866565b612a7a675c3c672eb6dca8e860c01b610866565b7f8ce02935a391d407d8b483203a4f3cd8465b62a45c7274471113a192f111eda081604051612aa991906159b5565b60405180910390a150565b60046020528060005260406000206000915090505481565b6060612ae2674e07c5926d55ba9160c01b610866565b612af667b881c1b20d65df1660c01b610866565b612b0a673aa81e8f1d6dc14560c01b610866565b600160008373ffffffffffffffffffffffffffffffffffffffff1673ffffffffffffffffffffffffffffffffffffffff168152602001908152602001600020805480602002602001604051908101604052809291908181526020018280548015612b9357602002820191906000526020600020905b815481526020019060010190808311612b7f575b50505050509050919050565b600960009054906101000a900473ffffffffffffffffffffffffffffffffffffffff1681565b612bcd613beb565b600073ffffffffffffffffffffffffffffffffffffffff168173ffffffffffffffffffffffffffffffffffffffff1603612c3f5760006040517f1e4fbdf7000000000000000000000000000000000000000000000000000000008152600401612c369190615b33565b60405180910390fd5b612c4881613c72565b50565b6000612c55614187565b90506002816000015403612c95576040517f3ee5aeb500000000000000000000000000000000000000000000000000000000815260040160405180910390fd5b6002816000018190555050565b6000612cb867e2ce8f5ed81c942c60c01b610866565b612ccc67b83a1467223b543860c01b610866565b612ce0675dd7f3b50f5414a960c01b610866565b60008273ffffffffffffffffffffffffffffffffffffffff1663794c0c686040518163ffffffff1660e01b8152600401602060405180830381865afa158015612d2d573d6000803e3d6000fd5b505050506040513d601f19601f82011682018060405250810190612d519190615ebe565b9050612d6767ee302d92649ac9a060c01b610866565b612d7b67d8cbdda74663ab2c60c01b610866565b600d60009054906101000a900473ffffffffffffffffffffffffffffffffffffffff1673ffffffffffffffffffffffffffffffffffffffff166348bf1aa6826040518263ffffffff1660e01b8152600401612dd691906159b5565b600060405180830381600087803b158015612df057600080fd5b505af1158015612e04573d6000803e3d6000fd5b50505050612e1c67b49da830d273a1fb60c01b610866565b612e30677c68da9e590a25ce60c01b610866565b6000612e4667e6e1b2b1b70c11d360c01b610866565b612e5a675cb2607a971366af60c01b610866565b60008214612e9b57612e766769ba5bb7b507060360c01b610866565b612e8a677d4ac80ece4d36ba60c01b610866565b612e9482856141af565b9050612eb0565b612eaf67c3f94b9a6cd2782260c01b610866565b5b612ec467bf0a4bee7b32611d60c01b610866565b612ed867c96169e58f77401960c01b610866565b6000600183612ee7919061596b565b9050612efd67098a645eab858a7b60c01b610866565b612f11674786be3d045169b260c01b610866565b6060612f2767e4488c49e7b6832460c01b610866565b600960009054906101000a900473ffffffffffffffffffffffffffffffffffffffff1673ffffffffffffffffffffffffffffffffffffffff1663eebc7a396040518163ffffffff1660e01b8152600401600060405180830381865afa158015612f94573d6000803e3d6000fd5b505050506040513d6000823e3d601f19601f82011682018060405250810190612fbd9190615f73565b9050612fd3670ae91385d5fd40e560c01b610866565b612fe7677e7d6541b39e9f2960c01b610866565b612ff2868383614a32565b61300667080091a388ab1e3760c01b610866565b600960009054906101000a900473ffffffffffffffffffffffffffffffffffffffff1673ffffffffffffffffffffffffffffffffffffffff1663b7ab4db56040518163ffffffff1660e01b8152600401600060405180830381865afa158015613073573d6000803e3d6000fd5b505050506040513d6000823e3d601f19601f8201168201806040525081019061309c9190615f73565b90506130b2679e4cb9d76baeb27d60c01b610866565b6130c667b69ae793bd1c21a660c01b610866565b6130d1868383614a32565b6130e567a617d762e9b3700360c01b610866565b601460046000848152602001908152602001600020819055506131126792d2f2cba982b67860c01b610866565b61312667d4bf1c41b9effa4260c01b610866565b600960009054906101000a900473ffffffffffffffffffffffffffffffffffffffff1673ffffffffffffffffffffffffffffffffffffffff1663752862116040518163ffffffff1660e01b8152600401600060405180830381600087803b15801561319057600080fd5b505af11580156131a4573d6000803e3d6000fd5b505050506131bc67482c3df0ca2e92aa60c01b610866565b6000600d60146101000a81548160ff0219169083151502179055506131eb676392943aedad0eaa60c01b610866565b6131ff67aa4f25c8c4672c0560c01b610866565b82945050505050919050565b61321f67780f554886adda5260c01b610866565b61323367904c932a42d6562e60c01b610866565b613247679c5ff6d93c30e8d960c01b610866565b60008173ffffffffffffffffffffffffffffffffffffffff1663c6912cc06040518163ffffffff1660e01b8152600401602060405180830381865afa158015613294573d6000803e3d6000fd5b505050506040513d601f19601f820116820180604052508101906132b89190615ebe565b90506132ce67416c3b2e46a51c3560c01b610866565b6132e2676fee6d832f555efa60c01b610866565b6000600960009054906101000a900473ffffffffffffffffffffffffffffffffffffffff1673ffffffffffffffffffffffffffffffffffffffff1663b7ab4db56040518163ffffffff1660e01b8152600401600060405180830381865afa158015613351573d6000803e3d6000fd5b505050506040513d6000823e3d601f19601f8201168201806040525081019061337a9190615f73565b9050613390672d954fea69deae9d60c01b610866565b6133a467eb59149eece9320560c01b610866565b60008242101590506133c067b1ce70166e1d4be460c01b610866565b6133d4677c210386ae04c6e660c01b610866565b60006133ea67a7de4bf10a0f836660c01b610866565b6133fe67040bbf23d9faccbb60c01b610866565b6002600960009054906101000a900473ffffffffffffffffffffffffffffffffffffffff1673ffffffffffffffffffffffffffffffffffffffff166308ac52566040518163ffffffff1660e01b8152600401602060405180830381865afa15801561346d573d6000803e3d6000fd5b505050506040513d601f19601f820116820180604052508101906134919190615ebe565b61349b9190615ef8565b600384516134a99190615ef8565b11613687576134c267636899e9efc9077760c01b610866565b6134d6674b0e4035662cfab160c01b610866565b6134ea67d98aaaeeeaa2f01660c01b610866565b60008573ffffffffffffffffffffffffffffffffffffffff1663a5d54f656040518163ffffffff1660e01b8152600401600060405180830381865afa158015613537573d6000803e3d6000fd5b505050506040513d6000823e3d601f19601f820116820180604052508101906135609190615f73565b51905061357767db166ea17eb9eb2060c01b610866565b61358b672b9114cfa5befa0860c01b610866565b60008111801561363657508351600960009054906101000a900473ffffffffffffffffffffffffffffffffffffffff1673ffffffffffffffffffffffffffffffffffffffff1663efd04947836040518263ffffffff1660e01b81526004016135f391906159b5565b602060405180830381865afa158015613610573d6000803e3d6000fd5b505050506040513d601f19601f820116820180604052508101906136349190615ebe565b115b1561366c5761364f679ce47e27bc4df49060c01b610866565b61366367e65397e3bc07c78660c01b610866565b60019150613681565b613680673b2f6688a4411b1e60c01b610866565b5b5061369c565b61369b67e29f21a9601f0c3560c01b610866565b5b6136b067c8e2f42e1dabcb4d60c01b610866565b6136c4676c338c940331858060c01b610866565b600082806136cf5750815b806136e65750600d60149054906101000a900460ff165b90506136fc67ae0135f8ef66b8a360c01b610866565b613710679ce72068df1be19360c01b610866565b6000600960009054906101000a900473ffffffffffffffffffffffffffffffffffffffff1673ffffffffffffffffffffffffffffffffffffffff1663eebc7a396040518163ffffffff1660e01b8152600401600060405180830381865afa15801561377f573d6000803e3d6000fd5b505050506040513d6000823e3d601f19601f820116820180604052508101906137a89190615f73565b5190506137bf6730f872a406939ae260c01b610866565b6137d36729143f76844b0c3560c01b610866565b8180156137e05750600081145b156138d7576137f967e827f366211ae4ca60c01b610866565b61380d67724033e56bdb0f8460c01b610866565b613821675dfd3dca183bb8d360c01b610866565b600960009054906101000a900473ffffffffffffffffffffffffffffffffffffffff1673ffffffffffffffffffffffffffffffffffffffff16635ccee1de6040518163ffffffff1660e01b8152600401600060405180830381600087803b15801561388b57600080fd5b505af115801561389f573d6000803e3d6000fd5b505050506138b76708aef723b676ff4260c01b610866565b6000600d60146101000a81548160ff021916908315150217905550613a4d565b6138eb67548e633382cbbaa060c01b610866565b6138ff6767f38c072b8855d460c01b610866565b8673ffffffffffffffffffffffffffffffffffffffff166322e3d9866040518163ffffffff1660e01b8152600401602060405180830381865afa15801561394a573d6000803e3d6000fd5b505050506040513d601f19601f8201168201806040525081019061396e9190615ebe565b4210613a375761398867992cd2423c06031160c01b610866565b61399c674279f3637cd7ead360c01b610866565b6139b067a30cec09622d619f60c01b610866565b600960009054906101000a900473ffffffffffffffffffffffffffffffffffffffff1673ffffffffffffffffffffffffffffffffffffffff1663ade1900a6040518163ffffffff1660e01b8152600401600060405180830381600087803b158015613a1a57600080fd5b505af1158015613a2e573d6000803e3d6000fd5b50505050613a4c565b613a4b670af265999a24531b60c01b610866565b5b5b613a61675f012dbc982cdc2160c01b610866565b613a756751a4fa54ef2f7ae760c01b610866565b600d60149054906101000a900460ff168015613a92575060008114155b15613adf57613aab67e13520861e30816060c01b610866565b613abf67d7fba5e3361e534d60c01b610866565b6000600d60146101000a81548160ff021916908315150217905550613af4565b613af3676a158dbcc3f7327060c01b610866565b5b613b0867be1661f348c3271d60c01b610866565b613b1c677087e77abf05b02b60c01b610866565b6000600a60009054906101000a900473ffffffffffffffffffffffffffffffffffffffff169050613b5767c771d85d97ebbb0860c01b610866565b613b6b671301ffa7076d20f860c01b610866565b8073ffffffffffffffffffffffffffffffffffffffff1663ab0eb62d6040518163ffffffff1660e01b8152600401600060405180830381600087803b158015613bb357600080fd5b505af1925050508015613bc4575060015b505050505050505050565b6000613bd9614187565b90506001816000018190555050565b50565b613bf3614c03565b73ffffffffffffffffffffffffffffffffffffffff16613c11611360565b73ffffffffffffffffffffffffffffffffffffffff1614613c7057613c34614c03565b6040517f118cdaa7000000000000000000000000000000000000000000000000000000008152600401613c679190615b33565b60405180910390fd5b565b6000613c7c613d49565b905060008160000160009054906101000a900473ffffffffffffffffffffffffffffffffffffffff169050828260000160006101000a81548173ffffffffffffffffffffffffffffffffffffffff021916908373ffffffffffffffffffffffffffffffffffffffff1602179055508273ffffffffffffffffffffffffffffffffffffffff168173ffffffffffffffffffffffffffffffffffffffff167f8be0079c531659141344cd1fd0a4f28419497f9722a3daafe3b4186f6b6457e060405160405180910390a3505050565b60007f9016d09d72d40fdae2fd8ceac6b6234c7706214fd39c1cd1e609a0528c199300905090565b6000919050565b600060019050919050565b6000613d99679e1fb7c1345f6d7560c01b613be8565b613dad676a464d35bf2f530e60c01b613be8565b613dc167bf3100cc1e8b9dfe60c01b613be8565b600082604051602401604051602081830303815290604052907bffffffffffffffffffffffffffffffffffffffffffffffffffffffff19166020820180517bffffffffffffffffffffffffffffffffffffffffffffffffffffffff83818316178352505050509050613e3d6796628452cad12c7f60c01b613be8565b613e51675ab273453a552a6660c01b613be8565b6000803073ffffffffffffffffffffffffffffffffffffffff1683604051613e79919061602f565b600060405180830381855afa9150503d8060008114613eb4576040519150601f19603f3d011682016040523d82523d6000602084013e613eb9565b606091505b5091509150613ed267ddcfe0b4c19fd84c60c01b613be8565b613ee667a914dc00efc72af160c01b613be8565b81613f4557613eff67cc0b2dfba033c08760c01b613be8565b613f13673b33da3d059e2f5160c01b613be8565b6040517fbf75613600000000000000000000000000000000000000000000000000000000815260040160405180910390fd5b613f59670c45fced65fbfda160c01b613be8565b613f6d6783c55538565e133160c01b613be8565b613f81671651102527c6e0d860c01b613be8565b80806020019051810190613f959190615ebe565b9350505050919050565b6000919050565b600060019050919050565b60007ff0c57e16840df040f15088dc2f81fe391c3923bec73e23a9662efc9c229c6a00905090565b613fe1614c0b565b613fea81614c4b565b50565b613ff5614c0b565b613ffd614cd1565b565b61401367c79e4b348e6f39f460c01b613be8565b61401b614c0b565b61402f67b4a3fa81ec94c0b760c01b613be8565b6140436779af0e9eed62f6a360c01b613be8565b614057671d2f4cf255f3a3a260c01b613be8565b6040518060400160405280837bffffffffffffffffffffffffffffffffffffffffffffffffffffffff1916815260200182815250600080857bffffffffffffffffffffffffffffffffffffffffffffffffffffffff19167bffffffffffffffffffffffffffffffffffffffffffffffffffffffff1916815260200190815260200160002060008201518160000160006101000a81548163ffffffff021916908360e01c0217905550602082015181600101908051906020019061411b929190615869565b509050506141336761754190fdc3bd4b60c01b613be8565b61414767ff18751ae25d0b5f60c01b613be8565b7f3665bf9cd0ba4ddceeec259e21dcf8a4510f3b1130bd42e950828e69d85408ba83838360405161417a93929190616068565b60405180910390a1505050565b60007f9b779b17422d0df92223018b32b4d1fa46e071723d6817e2486d003becc55f00905090565b60006141c5671e9f9c80f79e9df660c01b610866565b6141d9676a7f562bbe7355ca60c01b610866565b6141ed6776d44f580751771b60c01b610866565b6000600960009054906101000a900473ffffffffffffffffffffffffffffffffffffffff1673ffffffffffffffffffffffffffffffffffffffff1663b7ab4db56040518163ffffffff1660e01b8152600401600060405180830381865afa15801561425c573d6000803e3d6000fd5b505050506040513d6000823e3d601f19601f820116820180604052508101906142859190615f73565b905061429b671867869406a6422f60c01b610866565b6142af6761fb031df9b9e4dc60c01b610866565b6000815190506142c9676dcf25e165f8988160c01b610866565b6142dd67afee0c495d9c3a5560c01b610866565b6000810361433f576142f967202329053ced602160c01b610866565b61430d6735db08fa42bc090d60c01b610866565b6040517f8ae2dc8c00000000000000000000000000000000000000000000000000000000815260040160405180910390fd5b61435367ee4cd21ad4c80b3f60c01b610866565b614367679284475b844cc74160c01b610866565b61437b67631c3329f95ce6f960c01b610866565b600061438682614cf2565b905061439c6781e0269bf229e6b560c01b610866565b6143b067cefb09b2e47fceda60c01b610866565b6000816060015103614404576143d067cb4acad2a8e3810460c01b610866565b6143e467a44b0f2f2aed54ec60c01b610866565b6143f8676588e8f4a0a3226960c01b610866565b60009350505050614a2c565b6144186702f6fa1fcdfbef2760c01b610866565b61442c67d0a5a966c4931f4960c01b610866565b8060000151600560008282546144429190615eda565b9250508190555061445d672c3d3a100d92e6fd60c01b610866565b8060200151600760008282546144739190615eda565b9250508190555061448e670548ac39dbb1569760c01b610866565b6144a267895de5babedd1f0a60c01b610866565b6144d2600a60009054906101000a900473ffffffffffffffffffffffffffffffffffffffff168260400151614fb1565b6144e6674de7594f70ecda5060c01b610866565b6144fa67658963eb2fa83d8f60c01b610866565b600081604001519050614517672c9b169822c4a28060c01b610866565b61452b673daa348c675d377e60c01b610866565b600081836060015161453d9190615eda565b905061455367b3f6bd0d590ba23760c01b610866565b61456767c5e0abec5cdcc89060c01b610866565b600080614575898b896151a4565b9150915061458d67851d6e2be695904860c01b610866565b6145a167fd6342d00a6f429460c01b610866565b6000820361461f576145bd671b7f5a177d67f4fb60c01b610866565b6145d1672343e342dfeaeaaf60c01b610866565b8385606001516145e19190615eda565b6003819055506145fb676ed5c998f369c1ea60c01b610866565b61460f67138d701e5c2bd81d60c01b610866565b6000975050505050505050614a2c565b6146336765a8598c6fe8c9d360c01b610866565b6146476748112f736d4c199460c01b610866565b61465b677e55e2b980901ab960c01b610866565b600082846146699190615f1a565b905061467f670c8ed5a65a52590960c01b610866565b6146936767fee460c6ea7f5960c01b610866565b6000600460008d81526020019081526020016000205490506146bf67023dd8ebaa0321e560c01b610866565b6146d367d221505f15f94ee360c01b610866565b600082146149b8576146ef67bbdefc2b2f321d5360c01b610866565b61470367020d932b1946206c60c01b610866565b61471767343a169d649be00260c01b610866565b60005b888110156149b25761473667f3cfa24e667dffb360c01b610866565b61474a6798d74f35eda183a460c01b610866565b83818151811061475d5761475c615f42565b5b60200260200101516147965761477d67955b14a4fb2e426960c01b610866565b61479167d73df7896cc8ef4560c01b610866565b6149a7565b6147aa670d4733a9ff35a1f260c01b610866565b6147be67339dae63b4ae569060c01b610866565b6147d267ce934efb83c5b22660c01b610866565b60008a82815181106147e7576147e6615f42565b5b6020026020010151905061480567ef74f0db2b75b95760c01b610866565b61481967309a48a753afb86960c01b610866565b6000600960009054906101000a900473ffffffffffffffffffffffffffffffffffffffff1673ffffffffffffffffffffffffffffffffffffffff16631ee4d0bc836040518263ffffffff1660e01b81526004016148769190615b33565b602060405180830381865afa158015614893573d6000803e3d6000fd5b505050506040513d601f19601f820116820180604052508101906148b79190615e28565b90506148cd674d5f02d2869c872b60c01b610866565b6148e16704b2e8719a86965360c01b610866565b6148ec8f8387615736565b61490067d24197841b6957e960c01b610866565b61491467c0918f05b296b63560c01b610866565b8d73ffffffffffffffffffffffffffffffffffffffff16633f3afe018683876040518463ffffffff1660e01b815260040161495092919061609e565b6000604051808303818588803b15801561496957600080fd5b505af115801561497d573d6000803e3d6000fd5b505050505061499667179599e7886deccc60c01b610866565b84896149a2919061596b565b985050505b80600101905061471a565b506149cd565b6149cc678341ae052a8e950560c01b610866565b5b6149e167545162949c21bc3260c01b610866565b8587606001516149f19190615eda565b600381905550614a0b67992ff99bf53ab53560c01b610866565b614a1f67b46cae4e61bd963860c01b610866565b8599505050505050505050505b92915050565b614a46674b02dd8b1f04401760c01b610866565b614a5a6702ea24e1e463da9760c01b610866565b614a6e67fe6e23da3cbaee2160c01b610866565b60005b8151811015614bfd57614a8e671517219a2c3186f060c01b610866565b614aa267738c85fe89e2856b60c01b610866565b6000600960009054906101000a900473ffffffffffffffffffffffffffffffffffffffff1673ffffffffffffffffffffffffffffffffffffffff16631ee4d0bc848481518110614af557614af4615f42565b5b60200260200101516040518263ffffffff1660e01b8152600401614b199190615b33565b602060405180830381865afa158015614b36573d6000803e3d6000fd5b505050506040513d601f19601f82011682018060405250810190614b5a9190615e28565b9050614b7067aff18448df4dc23260c01b610866565b614b846706a04d0a9aaaa41d60c01b610866565b8473ffffffffffffffffffffffffffffffffffffffff1663d0ac76f685836040518363ffffffff1660e01b8152600401614bbf9291906160cc565b600060405180830381600087803b158015614bd957600080fd5b505af1158015614bed573d6000803e3d6000fd5b5050505050806001019050614a71565b50505050565b600033905090565b614c13615846565b614c49576040517fd7e6bcf800000000000000000000000000000000000000000000000000000000815260040160405180910390fd5b565b614c53614c0b565b600073ffffffffffffffffffffffffffffffffffffffff168173ffffffffffffffffffffffffffffffffffffffff1603614cc55760006040517f1e4fbdf7000000000000000000000000000000000000000000000000000000008152600401614cbc9190615b33565b60405180910390fd5b614cce81613c72565b50565b614cd9614c0b565b6000614ce3614187565b90506001816000018190555050565b614cfa615910565b614d0e674991885c1ec8738060c01b610866565b614d2267bec6f550744aa0c360c01b610866565b614d366787635b163434678d60c01b610866565b6000600960009054906101000a900473ffffffffffffffffffffffffffffffffffffffff1673ffffffffffffffffffffffffffffffffffffffff166308ac52566040518163ffffffff1660e01b8152600401602060405180830381865afa158015614da5573d6000803e3d6000fd5b505050506040513d601f19601f82011682018060405250810190614dc99190615ebe565b9050614ddf67c275f4189081ccc260c01b610866565b614df367ac573811efe8aa2360c01b610866565b6000614dfd6115ba565b9050614e1367b1af717fa763a4de60c01b610866565b614e27671585740e4841197760c01b610866565b6000604051806080016040528060008152602001600081526020016000815260200160008152509050614e64671bca8aaeda048eb560c01b610866565b6064836006548488600554614e799190615ef8565b614e839190615ef8565b614e8d9190615f1a565b614e979190615f1a565b614ea19190615f1a565b816000018181525050614ebe677de2fc3d281c21d260c01b610866565b6064836008548488600754614ed39190615ef8565b614edd9190615ef8565b614ee79190615f1a565b614ef19190615f1a565b614efb9190615f1a565b816020018181525050614f186732c0babf1bbb7e6360c01b610866565b80602001518160000151600354614f2f919061596b565b614f39919061596b565b816060018181525050614f566780af059f9cb15c0160c01b610866565b600c54600b548260600151614f6b9190615ef8565b614f759190615f1a565b816040018181525050614f92675c69a77e77275f2860c01b610866565b614fa6678282d51870835ba260c01b610866565b809350505050919050565b614fc567dfdfeb7a55abce6160c01b615866565b614fd96761f3f0049f1c7d9e60c01b615866565b614fed673a2d11865c82ba6260c01b615866565b8047101561504f57615009673e3cc30fadd86a0b60c01b615866565b61501d6714768395b3bcd0e960c01b615866565b6040517ff4d678b800000000000000000000000000000000000000000000000000000000815260040160405180910390fd5b6150636792aabfcece04644660c01b615866565b61507767508cd9553768724a60c01b615866565b61508b6731c29fce7419230760c01b615866565b60008273ffffffffffffffffffffffffffffffffffffffff16826040516150b1906160fa565b60006040518083038185875af1925050503d80600081146150ee576040519150601f19603f3d011682016040523d82523d6000602084013e6150f3565b606091505b5050905061510b6765d3253b7b3dc27260c01b615866565b61511f67d80fb7d1a14a129760c01b615866565b8061518b5761513867d38149d84994225960c01b615866565b61514c677f1dcc6df667d61d60c01b615866565b82826040517f1c43b97600000000000000000000000000000000000000000000000000000000815260040161518292919061609e565b60405180910390fd5b61519f6727f915e38bffa7d360c01b615866565b505050565b600060606151bc670d548839a7f3b56760c01b610866565b6151d06703b8e7be611ccadc60c01b610866565b6151e4670936cf00b8f1c7e860c01b610866565b6000835167ffffffffffffffff81111561520157615200615bda565b5b60405190808252806020026020018201604052801561522f5781602001602082028036833780820191505090505b5090506152466701f9f059afcf3d0d60c01b610866565b61525a6778026e62402718d560c01b610866565b60008673ffffffffffffffffffffffffffffffffffffffff16639b03d7446040518163ffffffff1660e01b8152600401602060405180830381865afa1580156152a7573d6000803e3d6000fd5b505050506040513d601f19601f820116820180604052508101906152cb9190615ebe565b90506152e1670386572644b018d760c01b610866565b6152f567bd54e17e243cee0760c01b610866565b600061530b676393792f12df92cf60c01b610866565b61531f67fd2d052ed4f21c5460c01b610866565b60005b86518110156156fc5761533f6752b65724afc6e88060c01b610866565b615353671b75d926d4e228b360c01b610866565b60008973ffffffffffffffffffffffffffffffffffffffff16635b4eafe08a600960009054906101000a900473ffffffffffffffffffffffffffffffffffffffff1673ffffffffffffffffffffffffffffffffffffffff16631ee4d0bc8c87815181106153c3576153c2615f42565b5b60200260200101516040518263ffffffff1660e01b81526004016153e79190615b33565b602060405180830381865afa158015615404573d6000803e3d6000fd5b505050506040513d601f19601f820116820180604052508101906154289190615e28565b6040518363ffffffff1660e01b81526004016154459291906160cc565b602060405180830381865afa158015615462573d6000803e3d6000fd5b505050506040513d601f19601f820116820180604052508101906154869190615ebe565b905061549c672e5ed519d8e9500660c01b610866565b6154b067bf5545ad23f48b4a60c01b610866565b600081036154e6576154cc6720d5245a0ba9d9dd60c01b610866565b6154e067ab36ed5802d2294f60c01b610866565b506156f1565b6154fa67d8d6eb8c1130e1fb60c01b610866565b61550e67b8c2dedcd678cd7c60c01b610866565b6155226721a2bf785260ed0f60c01b610866565b6000600960009054906101000a900473ffffffffffffffffffffffffffffffffffffffff1673ffffffffffffffffffffffffffffffffffffffff166360e5c5208a858151811061557557615574615f42565b5b60200260200101516040518263ffffffff1660e01b81526004016155999190615b33565b602060405180830381865afa1580156155b6573d6000803e3d6000fd5b505050506040513d601f19601f820116820180604052508101906155da9190615ebe565b90506155f067097215abdc86f71c60c01b610866565b61560467898e5e6c77cce12760c01b610866565b600081148015615624575061562367f6613cfed86a3e4860c01b613d78565b5b8061564b575084811015801561564a5750615649675e39e8be6d0f82b960c01b613d78565b5b5b1561567f5761566467d455e8599693c12460c01b610866565b61567867ef31b57564f8b06d60c01b610866565b50506156f1565b61569367bb75c5ec8de8232760c01b610866565b6156a7674950cda822a789ff60c01b610866565b60018684815181106156bc576156bb615f42565b5b6020026020010190151590811515815250506156e267b1a7dcf2a1ebb53760c01b610866565b836156ec90616104565b935050505b806001019050615322565b50615711679722c12fee20274360c01b610866565b61572567d7f3dc4c39902c9b60c01b610866565b808394509450505050935093915050565b61574a674f048aa02821797d60c01b610866565b61575e67f1bee98784b3a00c60c01b610866565b61577267ed6d12e502a908e360c01b610866565b600160008373ffffffffffffffffffffffffffffffffffffffff1673ffffffffffffffffffffffffffffffffffffffff1681526020019081526020016000208390806001815401808255809150506001900390600052602060002001600090919091909150556157ec67ead264890d406a0960c01b610866565b806002600085815260200190815260200160002060008473ffffffffffffffffffffffffffffffffffffffff1673ffffffffffffffffffffffffffffffffffffffff16815260200190815260200160002081905550505050565b6000615850613fb1565b60000160089054906101000a900460ff16905090565b50565b8280548282559060005260206000209081019282156158a5579160200282015b828111156158a4578251825591602001919060010190615889565b5b5090506158b29190615938565b5090565b50805460008255906000526020600020908101906158d49190615938565b50565b604051806040016040528060007bffffffffffffffffffffffffffffffffffffffffffffffffffffffff19168152602001606081525090565b6040518060800160405280600081526020016000815260200160008152602001600081525090565b5b80821115615951576000816000905550600101615939565b5090565b634e487b7160e01b600052601160045260246000fd5b600082820190508082111561598357615982615955565b5b92915050565b60006020828403121561599b57600080fd5b813580151581146159ab57600080fd5b8091505092915050565b600060208201905082825292915050565b600060208201905073ffffffffffffffffffffffffffffffffffffffff8316825292915050565b73ffffffffffffffffffffffffffffffffffffffff81168114615a0f57600080fd5b50565b60008060408385031215615a2557600080fd5b823591506020830135615a37816159ed565b809150509250929050565b60008135905063ffffffff60e01b81168114615a5d57600080fd5b919050565b60008060008060608587031215615a7857600080fd5b615a8185615a42565b9350615a8f60208601615a42565b9250604085013567ffffffffffffffff80821115615aac57600080fd5b818701915087601f830112615ac057600080fd5b813581811115615acf57600080fd5b8860208260051b8501011115615ae457600080fd5b60208301945080935050505092959194509250565b600060208201905073ffffffffffffffffffffffffffffffffffffffff8316825292915050565b6000602082019050821515825292915050565b600060208201905073ffffffffffffffffffffffffffffffffffffffff8316825292915050565b600060208284031215615b6c57600080fd5b8135615b77816159ed565b8091505092915050565b600060208284031215615b9357600080fd5b615b9c82615a42565b905092915050565b600060208201905063ffffffff60e01b8316825292915050565b600060208284031215615bd057600080fd5b8135905092915050565b634e487b7160e01b600052604160045260246000fd5b60006040519050601f19601f830116810181811067ffffffffffffffff82111715615c1e57615c1d615bda565b5b8060405250919050565b60006020808385031215615c3b57600080fd5b823567ffffffffffffffff80821115615c5357600080fd5b818501915085601f830112615c6757600080fd5b813581811115615c7a57615c79615bda565b5b615c8c84601f19601f84011601615bf0565b91508082528684828501011115615ca257600080fd5b808484018584013760008482840101525080935050505092915050565b600060208083526060830163ffffffff60e01b85511682850152818501516040808601528181518084526080870191508483019350600092505b80831015615d1a578351825284820191508484019350600183019250615cf9565b508094505050505092915050565b60008060408385031215615d3b57600080fd5b615d4483615a42565b9150602083013590509250929050565b600080600060608486031215615d6957600080fd5b8335615d74816159ed565b809350506020840135615d86816159ed565b809250506040840135615d98816159ed565b809150509250925092565b60008151808452602080850194506020840160005b83811015615dd9578151875282870196508282019150600181019050615db8565b5050505082905092915050565b602081526000615df96020830184615da3565b905092915050565b600060208201905073ffffffffffffffffffffffffffffffffffffffff8316825292915050565b600060208284031215615e3a57600080fd5b8151615e45816159ed565b8091505092915050565b600063ffffffff60e01b8087168352808616602084015250606060408301528260608301527f07ffffffffffffffffffffffffffffffffffffffffffffffffffffffffffffff831115615ea157600080fd5b8260051b8085608085013760808184010191505095945050505050565b600060208284031215615ed057600080fd5b8151905092915050565b6000828203905081811115615ef257615ef1615955565b5b92915050565b600082820290508181048314821517615f1457615f13615955565b5b92915050565b600082615f3757634e487b7160e01b600052601260045260246000fd5b828204905092915050565b634e487b7160e01b600052603260045260246000fd5b600060208201905067ffffffffffffffff8316825292915050565b60006020808385031215615f8657600080fd5b825167ffffffffffffffff80821115615f9e57600080fd5b818501915085601f830112615fb257600080fd5b815181811115615fc557615fc4615bda565b5b8060051b9150615fd6848301615bf0565b8082825285820191508584860101935088841115615ff357600080fd5b85850194505b83851015616020578451925061600e836159ed565b82825285820191508585019450615ff9565b80965050505050505092915050565b6000825160005b81811015616054576020818601015181850152602081019050616036565b508083019050600081528091505092915050565b600063ffffffff60e01b8086168352808516602084015250606060408301526160946060830184615da3565b9050949350505050565b600060408201905073ffffffffffffffffffffffffffffffffffffffff841682528260208301529392505050565b600060408201905083825273ffffffffffffffffffffffffffffffffffffffff831660208301529392505050565b6000819050919050565b60008019820361611757616116615955565b5b60018201905091905056fea2646970667358221220e07996b50a0b61a37afedf3eb2552b0401c2710634fdf253ed3a7041825a054864736f6c63430008190033",
  "linkReferences": {},
  "deployedLinkReferences": {}
}