{
  "_format": "hh-sol-artifact-1",
  "contractName": "BlockRewardHbbftCoinsMock",
  "sourceName": "contracts/mockContracts/BlockRewardHbbftCoinsMock.sol",
  "abi": [
    {
      "anonymous": false,
      "inputs": [
        {
          "indexed": false,
          "internalType": "uint256",
          "name": "rewards",
          "type": "uint256"
        }
      ],
      "name": "CoinsRewarded",
      "type": "event"
    },
    {
      "inputs": [],
      "name": "REWARD_PERCENT_MULTIPLIER",
      "outputs": [
        {
          "internalType": "uint256",
          "name": "",
          "type": "uint256"
        }
      ],
      "stateMutability": "view",
      "type": "function"
    },
    {
      "inputs": [],
      "name": "VALIDATOR_MIN_REWARD_PERCENT",
      "outputs": [
        {
          "internalType": "uint256",
          "name": "",
          "type": "uint256"
        }
      ],
      "stateMutability": "view",
      "type": "function"
    },
    {
      "inputs": [],
      "name": "addToDeltaPot",
      "outputs": [],
      "stateMutability": "payable",
      "type": "function"
    },
    {
      "inputs": [],
      "name": "addToReinsertPot",
      "outputs": [],
      "stateMutability": "payable",
      "type": "function"
    },
    {
      "inputs": [
        {
          "internalType": "uint256",
          "name": "_stakingEpoch",
          "type": "uint256"
        },
        {
          "internalType": "uint256",
          "name": "_delegatorStaked",
          "type": "uint256"
        },
        {
          "internalType": "uint256",
          "name": "_validatorStaked",
          "type": "uint256"
        },
        {
          "internalType": "uint256",
          "name": "_totalStaked",
          "type": "uint256"
        },
        {
          "internalType": "uint256",
          "name": "_poolReward",
          "type": "uint256"
        }
      ],
      "name": "delegatorShare",
      "outputs": [
        {
          "internalType": "uint256",
          "name": "",
          "type": "uint256"
        }
      ],
      "stateMutability": "view",
      "type": "function"
    },
    {
      "inputs": [],
      "name": "deltaPot",
      "outputs": [
        {
          "internalType": "uint256",
          "name": "",
          "type": "uint256"
        }
      ],
      "stateMutability": "view",
      "type": "function"
    },
    {
      "inputs": [],
      "name": "deltaPotPayoutFraction",
      "outputs": [
        {
          "internalType": "uint256",
          "name": "",
          "type": "uint256"
        }
      ],
      "stateMutability": "view",
      "type": "function"
    },
    {
      "inputs": [],
      "name": "epochPercentage",
      "outputs": [
        {
          "internalType": "uint256",
          "name": "",
          "type": "uint256"
        }
      ],
      "stateMutability": "view",
      "type": "function"
    },
    {
      "inputs": [
        {
          "internalType": "uint256",
          "name": "",
          "type": "uint256"
        },
        {
          "internalType": "address",
          "name": "",
          "type": "address"
        }
      ],
      "name": "epochPoolNativeReward",
      "outputs": [
        {
          "internalType": "uint256",
          "name": "",
          "type": "uint256"
        }
      ],
      "stateMutability": "view",
      "type": "function"
    },
    {
      "inputs": [
        {
          "internalType": "address",
          "name": "_miningAddress",
          "type": "address"
        }
      ],
      "name": "epochsPoolGotRewardFor",
      "outputs": [
        {
          "internalType": "uint256[]",
          "name": "",
          "type": "uint256[]"
        }
      ],
      "stateMutability": "view",
      "type": "function"
    },
    {
      "inputs": [
        {
          "internalType": "address",
          "name": "_poolStakingAddress",
          "type": "address"
        },
        {
          "internalType": "address",
          "name": "_staker",
          "type": "address"
        }
      ],
      "name": "epochsToClaimRewardFrom",
      "outputs": [
        {
          "internalType": "uint256[]",
          "name": "epochsToClaimFrom",
          "type": "uint256[]"
        }
      ],
      "stateMutability": "view",
      "type": "function"
    },
    {
      "inputs": [
        {
          "internalType": "uint256",
          "name": "_delegatorStake",
          "type": "uint256"
        },
        {
          "internalType": "uint256",
          "name": "_stakingEpoch",
          "type": "uint256"
        },
        {
          "internalType": "address",
          "name": "_poolMiningAddress",
          "type": "address"
        }
      ],
      "name": "getDelegatorReward",
      "outputs": [
        {
          "internalType": "uint256",
          "name": "nativeReward",
          "type": "uint256"
        }
      ],
      "stateMutability": "view",
      "type": "function"
    },
    {
      "inputs": [
        {
          "internalType": "uint256",
          "name": "_stakingEpoch",
          "type": "uint256"
        },
        {
          "internalType": "address",
          "name": "_poolMiningAddress",
          "type": "address"
        }
      ],
      "name": "getValidatorReward",
      "outputs": [
        {
          "internalType": "uint256",
          "name": "nativeReward",
          "type": "uint256"
        }
      ],
      "stateMutability": "view",
      "type": "function"
    },
    {
      "inputs": [],
      "name": "governancePotAddress",
      "outputs": [
        {
          "internalType": "address payable",
          "name": "",
          "type": "address"
        }
      ],
      "stateMutability": "view",
      "type": "function"
    },
    {
      "inputs": [],
      "name": "governancePotShareDenominator",
      "outputs": [
        {
          "internalType": "uint256",
          "name": "",
          "type": "uint256"
        }
      ],
      "stateMutability": "view",
      "type": "function"
    },
    {
      "inputs": [],
      "name": "governancePotShareNominator",
      "outputs": [
        {
          "internalType": "uint256",
          "name": "",
          "type": "uint256"
        }
      ],
      "stateMutability": "view",
      "type": "function"
    },
    {
      "inputs": [
        {
          "internalType": "address",
          "name": "_validatorSet",
          "type": "address"
        }
      ],
      "name": "initialize",
      "outputs": [],
      "stateMutability": "nonpayable",
      "type": "function"
    },
    {
      "inputs": [],
      "name": "isInitialized",
      "outputs": [
        {
          "internalType": "bool",
          "name": "",
          "type": "bool"
        }
      ],
      "stateMutability": "view",
      "type": "function"
    },
    {
      "inputs": [],
      "name": "nativeRewardUndistributed",
      "outputs": [
        {
          "internalType": "uint256",
          "name": "",
          "type": "uint256"
        }
      ],
      "stateMutability": "view",
      "type": "function"
    },
    {
      "inputs": [],
      "name": "reinsertPot",
      "outputs": [
        {
          "internalType": "uint256",
          "name": "",
          "type": "uint256"
        }
      ],
      "stateMutability": "view",
      "type": "function"
    },
    {
      "inputs": [],
      "name": "reinsertPotPayoutFraction",
      "outputs": [
        {
          "internalType": "uint256",
          "name": "",
          "type": "uint256"
        }
      ],
      "stateMutability": "view",
      "type": "function"
    },
    {
      "inputs": [
        {
          "internalType": "bool",
          "name": "_isEpochEndBlock",
          "type": "bool"
        }
      ],
      "name": "reward",
      "outputs": [
        {
          "internalType": "uint256",
          "name": "rewardsNative",
          "type": "uint256"
        }
      ],
      "stateMutability": "nonpayable",
      "type": "function"
    },
    {
      "inputs": [],
      "name": "sendCoins",
      "outputs": [],
      "stateMutability": "payable",
      "type": "function"
    },
    {
      "inputs": [
        {
          "internalType": "uint256",
          "name": "_stakingEpoch",
          "type": "uint256"
        },
        {
          "internalType": "address",
          "name": "_poolMiningAddress",
          "type": "address"
        }
      ],
      "name": "setEpochPoolReward",
      "outputs": [],
      "stateMutability": "payable",
      "type": "function"
    },
    {
      "inputs": [
        {
          "internalType": "uint256",
          "name": "_value",
          "type": "uint256"
        }
      ],
      "name": "setReinsertPotPayoutFraction",
      "outputs": [],
      "stateMutability": "nonpayable",
      "type": "function"
    },
    {
      "inputs": [
        {
          "internalType": "uint256",
          "name": "_stakingEpoch",
          "type": "uint256"
        },
        {
          "internalType": "address",
          "name": "_poolMiningAddress",
          "type": "address"
        },
        {
          "internalType": "uint256",
          "name": "_amount",
          "type": "uint256"
        }
      ],
      "name": "setSnapshotPoolValidatorStakeAmount",
      "outputs": [],
      "stateMutability": "nonpayable",
      "type": "function"
    },
    {
      "inputs": [
        {
          "internalType": "address",
          "name": "_address",
          "type": "address"
        }
      ],
      "name": "setSystemAddress",
      "outputs": [],
      "stateMutability": "nonpayable",
      "type": "function"
    },
    {
      "inputs": [
        {
          "internalType": "uint256",
          "name": "_stakingEpoch",
          "type": "uint256"
        },
        {
          "internalType": "uint256",
          "name": "_percent",
          "type": "uint256"
        }
      ],
      "name": "setValidatorMinRewardPercent",
      "outputs": [],
      "stateMutability": "nonpayable",
      "type": "function"
    },
    {
      "inputs": [
        {
          "internalType": "uint256",
          "name": "_value",
          "type": "uint256"
        }
      ],
      "name": "setdeltaPotPayoutFraction",
      "outputs": [],
      "stateMutability": "nonpayable",
      "type": "function"
    },
    {
      "inputs": [
        {
          "internalType": "contract IStakingHbbft",
          "name": "_stakingContract",
          "type": "address"
        },
        {
          "internalType": "uint256",
          "name": "_stakingEpoch",
          "type": "uint256"
        },
        {
          "internalType": "address",
          "name": "_miningAddress",
          "type": "address"
        }
      ],
      "name": "snapshotPoolStakeAmounts",
      "outputs": [],
      "stateMutability": "nonpayable",
      "type": "function"
    },
    {
      "inputs": [
        {
          "internalType": "uint256",
          "name": "",
          "type": "uint256"
        },
        {
          "internalType": "address",
          "name": "",
          "type": "address"
        }
      ],
      "name": "snapshotPoolTotalStakeAmount",
      "outputs": [
        {
          "internalType": "uint256",
          "name": "",
          "type": "uint256"
        }
      ],
      "stateMutability": "view",
      "type": "function"
    },
    {
      "inputs": [
        {
          "internalType": "uint256",
          "name": "",
          "type": "uint256"
        },
        {
          "internalType": "address",
          "name": "",
          "type": "address"
        }
      ],
      "name": "snapshotPoolValidatorStakeAmount",
      "outputs": [
        {
          "internalType": "uint256",
          "name": "",
          "type": "uint256"
        }
      ],
      "stateMutability": "view",
      "type": "function"
    },
    {
      "inputs": [
        {
          "internalType": "uint256",
          "name": "_nativeCoins",
          "type": "uint256"
        },
        {
          "internalType": "address payable",
          "name": "_to",
          "type": "address"
        }
      ],
      "name": "transferReward",
      "outputs": [],
      "stateMutability": "nonpayable",
      "type": "function"
    },
    {
      "inputs": [
        {
          "internalType": "uint256",
          "name": "",
          "type": "uint256"
        }
      ],
      "name": "validatorMinRewardPercent",
      "outputs": [
        {
          "internalType": "uint256",
          "name": "",
          "type": "uint256"
        }
      ],
      "stateMutability": "view",
      "type": "function"
    },
    {
      "inputs": [
        {
          "internalType": "address",
          "name": "_stakingAddress",
          "type": "address"
        }
      ],
      "name": "validatorRewardPercent",
      "outputs": [
        {
          "internalType": "uint256",
          "name": "",
          "type": "uint256"
        }
      ],
      "stateMutability": "view",
      "type": "function"
    },
    {
      "inputs": [],
      "name": "validatorSetContract",
      "outputs": [
        {
          "internalType": "contract IValidatorSetHbbft",
          "name": "",
          "type": "address"
        }
      ],
      "stateMutability": "view",
      "type": "function"
    },
    {
      "inputs": [
        {
          "internalType": "uint256",
          "name": "_stakingEpoch",
          "type": "uint256"
        },
        {
          "internalType": "uint256",
          "name": "_validatorStaked",
          "type": "uint256"
        },
        {
          "internalType": "uint256",
          "name": "_totalStaked",
          "type": "uint256"
        },
        {
          "internalType": "uint256",
          "name": "_poolReward",
          "type": "uint256"
        }
      ],
      "name": "validatorShare",
      "outputs": [
        {
          "internalType": "uint256",
          "name": "",
          "type": "uint256"
        }
      ],
      "stateMutability": "view",
      "type": "function"
    },
    {
      "stateMutability": "payable",
      "type": "receive"
    }
  ],
  "bytecode": "0x608060405234801561001057600080fd5b5061325f806100206000396000f3fe60806040526004361061026d5760003560e01c80638737929a11610153578063c6cc9333116100cb578063dd03f5b91161007f578063e1ab96d811610064578063e1ab96d814610729578063e58edc3814610749578063f302163d1461030e57600080fd5b8063dd03f5b9146106e9578063dfc8bf4e1461070957600080fd5b8063cdf7a090116100b0578063cdf7a0901461066f578063d0899cb41461069c578063d88aebd7146106c957600080fd5b8063c6cc93331461062f578063cb68d1271461064f57600080fd5b8063adc481a711610122578063b10c754811610107578063b10c7548146105e7578063ba2d7597146105ef578063c4d66de81461060f57600080fd5b8063adc481a7146105c9578063af182535146105df57600080fd5b80638737929a1461056857806391b57986146105885780639a64ca2c1461059e578063a59546e2146105b457600080fd5b8063392e53cd116101e6578063527d8bc4116101b55780635fba554e1161019a5780635fba554e146104fa578063728345db1461051a57806373f129581461055257600080fd5b8063527d8bc4146104c45780635c57a801146104e457600080fd5b8063392e53cd146104375780633c2c943c14610461578063469507c6146104775780634de6c0361461049757600080fd5b80630dcbf1551161023d5780631345b8a5116102225780631345b8a51461038f57806319cee897146103c757806333d69921146103ff57600080fd5b80630dcbf155146103385780631274fa091461037957600080fd5b8062067a841461029157806306210197146102c45780630c0d4173146103105780630c556d661461032557600080fd5b3661028c5734600860008282546102849190612db0565b925050819055005b600080fd5b34801561029d57600080fd5b506102b16102ac366004612dd4565b610760565b6040519081526020015b60405180910390f35b3480156102d057600080fd5b5061030e6102df366004612e0d565b600e805473ffffffffffffffffffffffffffffffffffffffff19166001600160a01b0392909216919091179055565b005b34801561031c57600080fd5b506102b1601e81565b61030e610333366004612e2a565b610f7a565b34801561034457600080fd5b5061030e610353366004612e5a565b60009283526004602090815260408085206001600160a01b039094168552929052912055565b34801561038557600080fd5b506102b160095481565b34801561039b57600080fd5b506102b16103aa366004612e2a565b600460209081526000928352604080842090915290825290205481565b3480156103d357600080fd5b50600b546103e7906001600160a01b031681565b6040516001600160a01b0390911681526020016102bb565b34801561040b57600080fd5b506102b161041a366004612e2a565b600160209081526000928352604080842090915290825290205481565b34801561044357600080fd5b50600a546040516001600160a01b03909116151581526020016102bb565b34801561046d57600080fd5b506102b1600d5481565b34801561048357600080fd5b5061030e610492366004612e2a565b611296565b3480156104a357600080fd5b506104b76104b2366004612e92565b611338565b6040516102bb9190612ec0565b3480156104d057600080fd5b506102b16104df366004612e0d565b61177a565b3480156104f057600080fd5b506102b160065481565b34801561050657600080fd5b506102b1610515366004612f04565b611a8a565b34801561052657600080fd5b506102b1610535366004612e2a565b600360209081526000928352604080842090915290825290205481565b34801561055e57600080fd5b506102b160085481565b34801561057457600080fd5b506102b1610583366004612f3f565b611b60565b34801561059457600080fd5b506102b1600c5481565b3480156105aa57600080fd5b506102b160075481565b3480156105c057600080fd5b506102b1611c10565b3480156105d557600080fd5b506102b160025481565b61030e611f44565b61030e611f5d565b3480156105fb57600080fd5b506102b161060a366004612e2a565b611f6f565b34801561061b57600080fd5b5061030e61062a366004612e0d565b611fcb565b34801561063b57600080fd5b5061030e61064a366004612f71565b612234565b34801561065b57600080fd5b5061030e61066a366004612f71565b61231f565b34801561067b57600080fd5b506102b161068a366004612f71565b60056020526000908152604090205481565b3480156106a857600080fd5b5061030e6106b7366004612f8a565b60009182526005602052604090912055565b3480156106d557600080fd5b5061030e6106e4366004612fac565b61240a565b3480156106f557600080fd5b506104b7610704366004612e0d565b61241a565b34801561071557600080fd5b50600a546103e7906001600160a01b031681565b34801561073557600080fd5b506102b1610744366004612fee565b612484565b34801561075557600080fd5b506102b1620f424081565b6000610774600e546001600160a01b031690565b6001600160a01b0316336001600160a01b03161461079157600080fd5b600a546040805163239a373960e21b815290516000926001600160a01b031691638e68dce49160048083019260209291908290030181865afa1580156107db573d6000803e3d6000fd5b505050506040513d601f19601f820116820180604052508101906107ff9190613027565b90508215610ab9576000816001600160a01b031663794c0c686040518163ffffffff1660e01b8152600401602060405180830381865afa158015610847573d6000803e3d6000fd5b505050506040513d601f19601f8201168201806040525081019061086b9190613044565b9050600081156108815761087e826124ec565b90505b60008061088f846001612db0565b90506060600a60009054906101000a90046001600160a01b03166001600160a01b031663eebc7a396040518163ffffffff1660e01b8152600401600060405180830381865afa1580156108e6573d6000803e3d6000fd5b505050506040513d6000823e601f3d908101601f1916820160405261090e9190810190613073565b9050600092505b805183101561095457610942868383868151811061093557610935613138565b6020026020010151612b3c565b8261094c8161314e565b935050610915565b600a60009054906101000a90046001600160a01b03166001600160a01b031663b7ab4db56040518163ffffffff1660e01b8152600401600060405180830381865afa1580156109a7573d6000803e3d6000fd5b505050506040513d6000823e601f3d908101601f191682016040526109cf9190810190613073565b9050600092505b8051831015610a08576109f6868383868151811061093557610935613138565b82610a008161314e565b9350506109d6565b600082815260056020526040808220601e9055600a548151637528621160e01b815291516001600160a01b03909116926375286211926004808201939182900301818387803b158015610a5a57600080fd5b505af1158015610a6e573d6000803e3d6000fd5b505050507ff32b9551d3414b67f8e66e20ac15e62694b9d1230abb2e2e48f9dc2e1964c42984604051610aa391815260200190565b60405180910390a1506000979650505050505050565b6000816001600160a01b031663c6912cc06040518163ffffffff1660e01b8152600401602060405180830381865afa158015610af9573d6000803e3d6000fd5b505050506040513d601f19601f82011682018060405250810190610b1d9190613044565b90506000600a60009054906101000a90046001600160a01b03166001600160a01b0316636c9230db6040518163ffffffff1660e01b8152600401602060405180830381865afa158015610b74573d6000803e3d6000fd5b505050506040513d601f19601f82011682018060405250810190610b989190613044565b90506000600a60009054906101000a90046001600160a01b03166001600160a01b031663b7ab4db56040518163ffffffff1660e01b8152600401600060405180830381865afa158015610bef573d6000803e3d6000fd5b505050506040513d6000823e601f3d908101601f19168201604052610c179190810190613073565b600a5460408051630456292b60e11b8152905192935085851015926000926001600160a01b0316916308ac52569160048083019260209291908290030181865afa158015610c69573d6000803e3d6000fd5b505050506040513d601f19601f82011682018060405250810190610c8d9190613044565b610c98906002613167565b8351610ca5906003613167565b11610d9d576000866001600160a01b031663a5d54f656040518163ffffffff1660e01b8152600401600060405180830381865afa158015610cea573d6000803e3d6000fd5b505050506040513d6000823e601f3d908101601f19168201604052610d129190810190613073565b519050600081118015610d9157508351600a5460405163efd0494760e01b8152600481018490526001600160a01b039091169063efd0494790602401602060405180830381865afa158015610d6b573d6000803e3d6000fd5b505050506040513d601f19601f82011682018060405250810190610d8f9190613044565b115b15610d9b57600191505b505b8180610da65750805b8015610e2b5750600a60009054906101000a90046001600160a01b03166001600160a01b031663eebc7a396040518163ffffffff1660e01b8152600401600060405180830381865afa158015610e00573d6000803e3d6000fd5b505050506040513d6000823e601f3d908101601f19168201604052610e289190810190613073565b51155b15610e9d57600a60009054906101000a90046001600160a01b03166001600160a01b0316635ccee1de6040518163ffffffff1660e01b8152600401600060405180830381600087803b158015610e8057600080fd5b505af1158015610e94573d6000803e3d6000fd5b50505050610f6e565b856001600160a01b03166322e3d9866040518163ffffffff1660e01b8152600401602060405180830381865afa158015610edb573d6000803e3d6000fd5b505050506040513d601f19601f82011682018060405250810190610eff9190613044565b8410610f6e57600a60009054906101000a90046001600160a01b03166001600160a01b031663ade1900a6040518163ffffffff1660e01b8152600401600060405180830381600087803b158015610f5557600080fd5b505af1158015610f69573d6000803e3d6000fd5b505050505b5050505050505b919050565b81600003610fdb5760405162461bcd60e51b8152602060048201526024808201527f53657445706f6368506f6f6c5265776172643a2065706f63682063616e2774206044820152630626520360e41b60648201526084015b60405180910390fd5b6001600160a01b03811661103d5760405162461bcd60e51b8152602060048201526024808201527f53657445706f6368506f6f6c5265776172643a2065706f63682063616e2774206044820152630626520360e41b6064820152608401610fd2565b346000036110b35760405162461bcd60e51b815260206004820152602560248201527f53657445706f6368506f6f6c5265776172643a207265776172642063616e277460448201527f20626520300000000000000000000000000000000000000000000000000000006064820152608401610fd2565b60008281526001602090815260408083206001600160a01b0385168452909152902054156111495760405162461bcd60e51b815260206004820152603560248201527f53657445706f6368506f6f6c5265776172643a2065706f6368506f6f6c4e617460448201527f69766552657761726420616c72656164792073657400000000000000000000006064820152608401610fd2565b60008281526001602090815260408083206001600160a01b03851684528252808320349055828252808320805482518185028101850190935280835291929091908301828280156111b957602002820191906000526020600020905b8154815260200190600101908083116111a5575b5050505050905060005b815181101561126c57838282815181106111df576111df613138565b60200260200101510361125a5760405162461bcd60e51b815260206004820152603a60248201527f546865726520697320616c72656164792061205265776172642070656e64696e60448201527f6720666f722074686973206d696e696e672061646472657373210000000000006064820152608401610fd2565b806112648161314e565b9150506111c3565b50506001600160a01b03166000908152602081815260408220805460018101825590835291200155565b600a60009054906101000a90046001600160a01b03166001600160a01b0316638e68dce46040518163ffffffff1660e01b8152600401602060405180830381865afa1580156112e9573d6000803e3d6000fd5b505050506040513d601f19601f8201168201806040525081019061130d9190613027565b6001600160a01b0316336001600160a01b03161461132a57600080fd5b6113348282612d17565b5050565b600a546040516253517560e01b81526001600160a01b0384811660048301526060926000929116906253517590602401602060405180830381865afa158015611385573d6000803e3d6000fd5b505050506040513d601f19601f820116820180604052508101906113a99190613027565b90506000600a60009054906101000a90046001600160a01b03166001600160a01b0316638e68dce46040518163ffffffff1660e01b8152600401602060405180830381865afa158015611400573d6000803e3d6000fd5b505050506040513d601f19601f820116820180604052508101906114249190613027565b90506000846001600160a01b0316866001600160a01b031614159050600080821561155657604051632b2cdba160e11b81526001600160a01b0389811660048301528881166024830152851690635659b74290604401602060405180830381865afa158015611497573d6000803e3d6000fd5b505050506040513d601f19601f820116820180604052508101906114bb9190613044565b9150816000036114e1575050604080516000815260208101909152935061177492505050565b60405163bc9eb2c360e01b81526001600160a01b038981166004830152888116602483015285169063bc9eb2c390604401602060405180830381865afa15801561152f573d6000803e3d6000fd5b505050506040513d601f19601f820116820180604052508101906115539190613044565b90505b6001600160a01b0385166000908152602081905260408120805490918167ffffffffffffffff81111561158b5761158b61305d565b6040519080825280602002602001820160405280156115b4578160200160208202803683370190505b5090506000805b838110156116ce5760008582815481106115d7576115d7613138565b90600052602060002001549050881561161257878110156115f857506116bc565b80871115801561160757508615155b1561161257506116ce565b604051630317277360e41b81526001600160a01b038f811660048301528e81166024830152604482018390528b1690633172773090606401602060405180830381865afa158015611667573d6000803e3d6000fd5b505050506040513d601f19601f8201168201806040525081019061168b919061317e565b6116ba5780848461169b8161314e565b9550815181106116ad576116ad613138565b6020026020010181815250505b505b806116c68161314e565b9150506115bb565b8167ffffffffffffffff8111156116e7576116e761305d565b604051908082528060200260200182016040528015611710578160200160208202803683370190505b509a50600090505b818110156117695782818151811061173257611732613138565b60200260200101518b828151811061174c5761174c613138565b6020908102919091010152806117618161314e565b915050611718565b505050505050505050505b92915050565b600080600a60009054906101000a90046001600160a01b03166001600160a01b0316638e68dce46040518163ffffffff1660e01b8152600401602060405180830381865afa1580156117d0573d6000803e3d6000fd5b505050506040513d601f19601f820116820180604052508101906117f49190613027565b90506000816001600160a01b031663794c0c686040518163ffffffff1660e01b8152600401602060405180830381865afa158015611836573d6000803e3d6000fd5b505050506040513d601f19601f8201168201806040525081019061185a9190613044565b90508060000361186e575060009392505050565b600a546040516253517560e01b81526001600160a01b03868116600483015260009216906253517590602401602060405180830381865afa1580156118b7573d6000803e3d6000fd5b505050506040513d601f19601f820116820180604052508101906118db9190613027565b600a5460405163a0d16cad60e01b81526001600160a01b03808416600483015292935091169063a0d16cad90602401602060405180830381865afa158015611927573d6000803e3d6000fd5b505050506040513d601f19601f8201168201806040525081019061194b919061317e565b156119a05760008281526004602090815260408083206001600160a01b0385168085529083528184205486855260038452828520918552925290912054611997918491620f4240611b60565b95945050505050565b60405163a697ecff60e01b81526001600160a01b0386811660048301819052602483015261199791849186169063a697ecff90604401602060405180830381865afa1580156119f3573d6000803e3d6000fd5b505050506040513d601f19601f82011682018060405250810190611a179190613044565b604051632933f0eb60e11b81526001600160a01b038981166004830152871690635267e1d690602401602060405180830381865afa158015611a5d573d6000803e3d6000fd5b505050506040513d601f19601f82011682018060405250810190611a819190613044565b620f4240611b60565b6000841580611a97575083155b80611aa0575082155b15611aad57506000611997565b60008085851015611abf576000611ac9565b611ac9868661319b565b600089815260056020526040902054909150611ae58183613167565b611af082606461319b565b611afa9089613167565b1115611b1c5785611b0b8987613167565b611b1591906131ae565b9250611b53565b611b27826064613167565b611b3282606461319b565b611b3c8a88613167565b611b469190613167565b611b5091906131ae565b92505b5090979650505050505050565b6000831580611b6d575082155b15611b7a57506000611c08565b60008085851015611b8c576000611b96565b611b96868661319b565b600088815260056020526040902054909150611bb28183613167565b611bbd82606461319b565b611bc79089613167565b1115611be95785611bd88887613167565b611be291906131ae565b9250611c02565b6064611bf58287613167565b611bff91906131ae565b92505b50909150505b949350505050565b600080600a60009054906101000a90046001600160a01b03166001600160a01b0316638e68dce46040518163ffffffff1660e01b8152600401602060405180830381865afa158015611c66573d6000803e3d6000fd5b505050506040513d601f19601f82011682018060405250810190611c8a9190613027565b90506000816001600160a01b0316639b03d7446040518163ffffffff1660e01b8152600401602060405180830381865afa158015611ccc573d6000803e3d6000fd5b505050506040513d601f19601f82011682018060405250810190611cf09190613044565b826001600160a01b03166322e3d9866040518163ffffffff1660e01b8152600401602060405180830381865afa158015611d2e573d6000803e3d6000fd5b505050506040513d601f19601f82011682018060405250810190611d529190613044565b611d5c919061319b565b9050816001600160a01b03166322e3d9866040518163ffffffff1660e01b8152600401602060405180830381865afa158015611d9c573d6000803e3d6000fd5b505050506040513d601f19601f82011682018060405250810190611dc09190613044565b600a60009054906101000a90046001600160a01b03166001600160a01b0316636c9230db6040518163ffffffff1660e01b8152600401602060405180830381865afa158015611e13573d6000803e3d6000fd5b505050506040513d601f19601f82011682018060405250810190611e379190613044565b11611f3a5780826001600160a01b0316639b03d7446040518163ffffffff1660e01b8152600401602060405180830381865afa158015611e7b573d6000803e3d6000fd5b505050506040513d601f19601f82011682018060405250810190611e9f9190613044565b600a60009054906101000a90046001600160a01b03166001600160a01b0316636c9230db6040518163ffffffff1660e01b8152600401602060405180830381865afa158015611ef2573d6000803e3d6000fd5b505050506040513d601f19601f82011682018060405250810190611f169190613044565b611f20919061319b565b611f2b906064613167565b611f3591906131ae565b611f3d565b60645b9250505090565b3460086000828254611f569190612db0565b9091555050565b3460066000828254611f569190612db0565b60008281526004602090815260408083206001600160a01b038516808552908352818420548685526003845282852082865284528285205487865260018552838620928652919093529083205461199790869084908490611b60565b7fb53127684a568b3173ae13b9f8a6016e243e63b6e8ee1178d6a717850b5d6103546001600160a01b0316336001600160a01b0316148061203e57507fb53127684a568b3173ae13b9f8a6016e243e63b6e8ee1178d6a717850b5d6103546001600160a01b0316326001600160a01b0316145b8061207157507fb53127684a568b3173ae13b9f8a6016e243e63b6e8ee1178d6a717850b5d6103546001600160a01b0316155b8061207a575043155b6120ec5760405162461bcd60e51b815260206004820152603060248201527f496e697469616c697a6174696f6e206f6e6c79206f6e2067656e65736973206260448201527f6c6f636b206f722062792061646d696e000000000000000000000000000000006064820152608401610fd2565b600a546001600160a01b0316156121515760405162461bcd60e51b8152602060048201526024808201527f696e697469616c697a6174696f6e2063616e206f6e6c7920626520646f6e65206044820152636f6e636560e01b6064820152608401610fd2565b6001600160a01b0381166121a75760405162461bcd60e51b815260206004820152601a60248201527f56616c696461746f72536574206d757374206e6f7420626520300000000000006044820152606401610fd2565b600a80546001600160a01b0390921673ffffffffffffffffffffffffffffffffffffffff19928316178155600080526005602052601e7f05b8ccbb9d4d8fb16ea74ce3c29a41f1b461fbdaff4714a0d9a8eb05499746bc556117706007819055600955600b805490921673da0da0da0da0da0da0da00da0da0da0da0da0da0179091556001600c55600d55565b7fb53127684a568b3173ae13b9f8a6016e243e63b6e8ee1178d6a717850b5d6103546001600160a01b0316336001600160a01b0316146122ca5760405162461bcd60e51b815260206004820152602b60248201527f6f6e6c792061646d696e20697320616c6c6f77656420746f2063616c6c20746860448201526a34b990333ab731ba34b7b760a91b6064820152608401610fd2565b8060000361231a5760405162461bcd60e51b815260206004820152601d60248201527f5061796f7574206672616374696f6e206d757374206e6f7420626520300000006044820152606401610fd2565b600955565b7fb53127684a568b3173ae13b9f8a6016e243e63b6e8ee1178d6a717850b5d6103546001600160a01b0316336001600160a01b0316146123b55760405162461bcd60e51b815260206004820152602b60248201527f6f6e6c792061646d696e20697320616c6c6f77656420746f2063616c6c20746860448201526a34b990333ab731ba34b7b760a91b6064820152608401610fd2565b806000036124055760405162461bcd60e51b815260206004820152601d60248201527f5061796f7574206672616374696f6e206d757374206e6f7420626520300000006044820152606401610fd2565b600755565b612415838383612b3c565b505050565b6001600160a01b0381166000908152602081815260409182902080548351818402810184019094528084526060939283018282801561247857602002820191906000526020600020905b815481526020019060010190808311612464575b50505050509050919050565b60008281526004602090815260408083206001600160a01b03851680855290835281842054868552600384528285208286528452828520548786526001855283862092865291909352908320546124e2908690889085908590611a8a565b9695505050505050565b600080600a60009054906101000a90046001600160a01b03166001600160a01b031663b7ab4db56040518163ffffffff1660e01b8152600401600060405180830381865afa158015612542573d6000803e3d6000fd5b505050506040513d6000823e601f3d908101601f1916820160405261256a9190810190613073565b805190915060008190036125c05760405162461bcd60e51b815260206004820152601460248201527f456d7074792056616c696461746f72206c6973740000000000000000000000006044820152606401610fd2565b600080600a60009054906101000a90046001600160a01b03166001600160a01b03166308ac52566040518163ffffffff1660e01b8152600401602060405180830381865afa158015612616573d6000803e3d6000fd5b505050506040513d601f19601f8201168201806040525081019061263a9190613044565b9050600060648260075461264c611c10565b8760065461265a9190613167565b6126649190613167565b61266e91906131ae565b61267891906131ae565b61268291906131ae565b90508060066000828254612696919061319b565b9250508190555060006064836009546126ad611c10565b886008546126bb9190613167565b6126c59190613167565b6126cf91906131ae565b6126d991906131ae565b6126e391906131ae565b905080600860008282546126f7919061319b565b90915550506002546127098284612db0565b6127139190612db0565b93505050508060000361272b57506000949350505050565b6000600d54600c548361273e9190613167565b61274891906131ae565b600b546040519192506001600160a01b03169082156108fc029083906000818181858888f19350505050158015612783573d6000803e3d6000fd5b506000612790828461319b565b905060008467ffffffffffffffff8111156127ad576127ad61305d565b6040519080825280602002602001820160405280156127d6578160200160208202803683370190505b5090506000805b875181101561292957600a5488516001600160a01b039091169063a92252ae908a908490811061280f5761280f613138565b60200260200101516040518263ffffffff1660e01b815260040161284291906001600160a01b0391909116815260200190565b602060405180830381865afa15801561285f573d6000803e3d6000fd5b505050506040513d601f19601f82011682018060405250810190612883919061317e565b1580156128e05750600460008b815260200190815260200160002060008983815181106128b2576128b2613138565b60200260200101516001600160a01b03166001600160a01b0316815260200190815260200160002054600014155b156129175760018382815181106128f9576128f9613138565b91151560209283029190910190910152816129138161314e565b9250505b806129218161314e565b9150506127dd565b50806000036129415750600098975050505050505050565b600061294d82856131ae565b90508015612b215760005b87811015612b1f5783818151811061297257612972613138565b602002602001015115612b0d57600160008c815260200190815260200160002060008a83815181106129a6576129a6613138565b60200260200101516001600160a01b03166001600160a01b0316815260200190815260200160002054600014612a6a5760405162461bcd60e51b815260206004820152605c60248201527f63616e74206469737472696275746520726577617264733a207468657265206960448201527f7320616c7265616479206120706f6f6c2072657761726420646566696e65642060648201527f666f7220746869732065706f636820616e642076616c696461746f7200000000608482015260a401610fd2565b60008b81526001602052604081208a518492908c9085908110612a8f57612a8f613138565b6020908102919091018101516001600160a01b0316825281019190915260400160002055612abd8287612db0565b95506000808a8381518110612ad457612ad4613138565b6020908102919091018101516001600160a01b031682528181019290925260400160009081208054600181018255908252919020018b90555b80612b178161314e565b915050612958565b505b612b2b858761319b565b600255509298975050505050505050565b60008281526003602090815260408083206001600160a01b038516845290915290205415612b6957505050565b600a546040516307b9342f60e21b81526001600160a01b0383811660048301526000921690631ee4d0bc90602401602060405180830381865afa158015612bb4573d6000803e3d6000fd5b505050506040513d601f19601f82011682018060405250810190612bd89190613027565b604051632933f0eb60e11b81526001600160a01b038083166004830152919250600091861690635267e1d690602401602060405180830381865afa158015612c24573d6000803e3d6000fd5b505050506040513d601f19601f82011682018060405250810190612c489190613044565b905080600003612c59575050505050565b60008481526003602090815260408083206001600160a01b038781168552925291829020839055905163a697ecff60e01b81528382166004820181905260248201529086169063a697ecff90604401602060405180830381865afa158015612cc5573d6000803e3d6000fd5b505050506040513d601f19601f82011682018060405250810190612ce99190613044565b60009485526004602090815260408087206001600160a01b0390961687529490529290932091909155505050565b8115801590612d4857506040516001600160a01b0382169083156108fc029084906000818181858888f19350505050155b15611334578181604051612d5b90612d8e565b6001600160a01b0390911681526020016040518091039082f0905080158015612d88573d6000803e3d6000fd5b50505050565b6059806131d183390190565b634e487b7160e01b600052601160045260246000fd5b8082018082111561177457611774612d9a565b8015158114612dd157600080fd5b50565b600060208284031215612de657600080fd5b8135612df181612dc3565b9392505050565b6001600160a01b0381168114612dd157600080fd5b600060208284031215612e1f57600080fd5b8135612df181612df8565b60008060408385031215612e3d57600080fd5b823591506020830135612e4f81612df8565b809150509250929050565b600080600060608486031215612e6f57600080fd5b833592506020840135612e8181612df8565b929592945050506040919091013590565b60008060408385031215612ea557600080fd5b8235612eb081612df8565b91506020830135612e4f81612df8565b6020808252825182820181905260009190848201906040850190845b81811015612ef857835183529284019291840191600101612edc565b50909695505050505050565b600080600080600060a08688031215612f1c57600080fd5b505083359560208501359550604085013594606081013594506080013592509050565b60008060008060808587031215612f5557600080fd5b5050823594602084013594506040840135936060013592509050565b600060208284031215612f8357600080fd5b5035919050565b60008060408385031215612f9d57600080fd5b50508035926020909101359150565b600080600060608486031215612fc157600080fd5b8335612fcc81612df8565b9250602084013591506040840135612fe381612df8565b809150509250925092565b60008060006060848603121561300357600080fd5b83359250602084013591506040840135612fe381612df8565b8051610f7581612df8565b60006020828403121561303957600080fd5b8151612df181612df8565b60006020828403121561305657600080fd5b5051919050565b634e487b7160e01b600052604160045260246000fd5b6000602080838503121561308657600080fd5b825167ffffffffffffffff8082111561309e57600080fd5b818501915085601f8301126130b257600080fd5b8151818111156130c4576130c461305d565b8060051b604051601f19603f830116810181811085821117156130e9576130e961305d565b60405291825284820192508381018501918883111561310757600080fd5b938501935b8285101561312c5761311d8561301c565b8452938501939285019261310c565b98975050505050505050565b634e487b7160e01b600052603260045260246000fd5b60006001820161316057613160612d9a565b5060010190565b808202811582820484141761177457611774612d9a565b60006020828403121561319057600080fd5b8151612df181612dc3565b8181038181111561177457611774612d9a565b6000826131cb57634e487b7160e01b600052601260045260246000fd5b50049056fe608060405260405160593803806059833981016040819052601e91602a565b806001600160a01b0316ff5b600060208284031215603b57600080fd5b81516001600160a01b0381168114605157600080fd5b939250505056fea2646970667358221220b25fcb206b2c828e3477a8877d0ab425a84c383b6aef5021cdfd0df89ffc957364736f6c63430008110033",
  "linkReferences": {},
  "deployedLinkReferences": {}
}