{
  "_format": "hh-sol-artifact-1",
  "contractName": "BlockRewardHbbft",
  "sourceName": "contracts/BlockRewardHbbft.sol",
  "abi": [
    {
      "inputs": [],
      "stateMutability": "nonpayable",
      "type": "constructor"
    },
    {
      "inputs": [],
      "name": "GetterCallFailed",
      "type": "error"
    },
    {
      "inputs": [],
      "name": "InsufficientBalance",
      "type": "error"
    },
    {
      "inputs": [],
      "name": "InvalidInitialization",
      "type": "error"
    },
    {
      "inputs": [
        {
          "internalType": "uint256",
          "name": "_newVal",
          "type": "uint256"
        }
      ],
      "name": "NewValueOutOfRange",
      "type": "error"
    },
    {
      "inputs": [],
      "name": "NotInitializing",
      "type": "error"
    },
    {
      "inputs": [
        {
          "internalType": "address",
          "name": "owner",
          "type": "address"
        }
      ],
      "name": "OwnableInvalidOwner",
      "type": "error"
    },
    {
      "inputs": [
        {
          "internalType": "address",
          "name": "account",
          "type": "address"
        }
      ],
      "name": "OwnableUnauthorizedAccount",
      "type": "error"
    },
    {
      "inputs": [],
      "name": "ReentrancyGuardReentrantCall",
      "type": "error"
    },
    {
      "inputs": [
        {
          "internalType": "address",
          "name": "recipient",
          "type": "address"
        },
        {
          "internalType": "uint256",
          "name": "amount",
          "type": "uint256"
        }
      ],
      "name": "TransferFailed",
      "type": "error"
    },
    {
      "inputs": [],
      "name": "Unauthorized",
      "type": "error"
    },
    {
      "inputs": [],
      "name": "ValidatorsListEmpty",
      "type": "error"
    },
    {
      "inputs": [],
      "name": "ZeroAddress",
      "type": "error"
    },
    {
      "inputs": [],
      "name": "ZeroPayoutFraction",
      "type": "error"
    },
    {
      "anonymous": false,
      "inputs": [
        {
          "indexed": false,
          "internalType": "uint256",
          "name": "rewards",
          "type": "uint256"
        }
      ],
      "name": "CoinsRewarded",
      "type": "event"
    },
    {
      "anonymous": false,
      "inputs": [
        {
          "indexed": false,
          "internalType": "uint64",
          "name": "version",
          "type": "uint64"
        }
      ],
      "name": "Initialized",
      "type": "event"
    },
    {
      "anonymous": false,
      "inputs": [
        {
          "indexed": true,
          "internalType": "address",
          "name": "previousOwner",
          "type": "address"
        },
        {
          "indexed": true,
          "internalType": "address",
          "name": "newOwner",
          "type": "address"
        }
      ],
      "name": "OwnershipTransferred",
      "type": "event"
    },
    {
      "anonymous": false,
      "inputs": [
        {
          "indexed": false,
          "internalType": "string",
          "name": "funcSelector",
          "type": "string"
        }
      ],
      "name": "RemoveChangeAbleParameter",
      "type": "event"
    },
    {
      "anonymous": false,
      "inputs": [
        {
          "indexed": false,
          "internalType": "string",
          "name": "setter",
          "type": "string"
        },
        {
          "indexed": false,
          "internalType": "string",
          "name": "getter",
          "type": "string"
        },
        {
          "indexed": false,
          "internalType": "uint256[]",
          "name": "params",
          "type": "uint256[]"
        }
      ],
      "name": "SetChangeAbleParameter",
      "type": "event"
    },
    {
      "anonymous": false,
      "inputs": [
        {
          "indexed": false,
          "internalType": "address",
          "name": "_connectivityTracker",
          "type": "address"
        }
      ],
      "name": "SetConnectivityTracker",
      "type": "event"
    },
    {
      "anonymous": false,
      "inputs": [
        {
          "indexed": false,
          "internalType": "uint256",
          "name": "_fraction",
          "type": "uint256"
        }
      ],
      "name": "SetDeltaPotPayoutFraction",
      "type": "event"
    },
    {
      "anonymous": false,
      "inputs": [
        {
          "indexed": false,
          "internalType": "uint256",
          "name": "_fraction",
          "type": "uint256"
        }
      ],
      "name": "SetReinsertPotPayoutFraction",
      "type": "event"
    },
    {
      "inputs": [],
      "name": "REWARD_PERCENT_MULTIPLIER",
      "outputs": [
        {
          "internalType": "uint256",
          "name": "",
          "type": "uint256"
        }
      ],
      "stateMutability": "view",
      "type": "function"
    },
    {
      "inputs": [],
      "name": "VALIDATOR_MIN_REWARD_PERCENT",
      "outputs": [
        {
          "internalType": "uint256",
          "name": "",
          "type": "uint256"
        }
      ],
      "stateMutability": "view",
      "type": "function"
    },
    {
      "inputs": [],
      "name": "addToDeltaPot",
      "outputs": [],
      "stateMutability": "payable",
      "type": "function"
    },
    {
      "inputs": [],
      "name": "addToReinsertPot",
      "outputs": [],
      "stateMutability": "payable",
      "type": "function"
    },
    {
      "inputs": [
        {
          "internalType": "bytes4",
          "name": "",
          "type": "bytes4"
        }
      ],
      "name": "allowedParameterRange",
      "outputs": [
        {
          "internalType": "bytes4",
          "name": "getter",
          "type": "bytes4"
        }
      ],
      "stateMutability": "view",
      "type": "function"
    },
    {
      "inputs": [],
      "name": "connectivityTracker",
      "outputs": [
        {
          "internalType": "contract IConnectivityTrackerHbbft",
          "name": "",
          "type": "address"
        }
      ],
      "stateMutability": "view",
      "type": "function"
    },
    {
      "inputs": [],
      "name": "deltaPot",
      "outputs": [
        {
          "internalType": "uint256",
          "name": "",
          "type": "uint256"
        }
      ],
      "stateMutability": "view",
      "type": "function"
    },
    {
      "inputs": [],
      "name": "deltaPotPayoutFraction",
      "outputs": [
        {
          "internalType": "uint256",
          "name": "",
          "type": "uint256"
        }
      ],
      "stateMutability": "view",
      "type": "function"
    },
    {
      "inputs": [],
      "name": "earlyEpochEnd",
      "outputs": [
        {
          "internalType": "bool",
          "name": "",
          "type": "bool"
        }
      ],
      "stateMutability": "view",
      "type": "function"
    },
    {
      "inputs": [],
      "name": "epochPercentage",
      "outputs": [
        {
          "internalType": "uint256",
          "name": "",
          "type": "uint256"
        }
      ],
      "stateMutability": "view",
      "type": "function"
    },
    {
      "inputs": [
        {
          "internalType": "uint256",
          "name": "",
          "type": "uint256"
        },
        {
          "internalType": "address",
          "name": "",
          "type": "address"
        }
      ],
      "name": "epochPoolNativeReward",
      "outputs": [
        {
          "internalType": "uint256",
          "name": "",
          "type": "uint256"
        }
      ],
      "stateMutability": "view",
      "type": "function"
    },
    {
      "inputs": [
        {
          "internalType": "address",
          "name": "_miningAddress",
          "type": "address"
        }
      ],
      "name": "epochsPoolGotRewardFor",
      "outputs": [
        {
          "internalType": "uint256[]",
          "name": "",
          "type": "uint256[]"
        }
      ],
      "stateMutability": "view",
      "type": "function"
    },
    {
      "inputs": [
        {
          "internalType": "string",
          "name": "_selector",
          "type": "string"
        }
      ],
      "name": "getAllowedParamsRange",
      "outputs": [
        {
          "components": [
            {
              "internalType": "bytes4",
              "name": "getter",
              "type": "bytes4"
            },
            {
              "internalType": "uint256[]",
              "name": "range",
              "type": "uint256[]"
            }
          ],
          "internalType": "struct ValueGuards.ParameterRange",
          "name": "",
          "type": "tuple"
        }
      ],
      "stateMutability": "view",
      "type": "function"
    },
    {
      "inputs": [],
      "name": "getGovernanceAddress",
      "outputs": [
        {
          "internalType": "address",
          "name": "",
          "type": "address"
        }
      ],
      "stateMutability": "view",
      "type": "function"
    },
    {
      "inputs": [],
      "name": "governancePotAddress",
      "outputs": [
        {
          "internalType": "address payable",
          "name": "",
          "type": "address"
        }
      ],
      "stateMutability": "view",
      "type": "function"
    },
    {
      "inputs": [],
      "name": "governancePotShareDenominator",
      "outputs": [
        {
          "internalType": "uint256",
          "name": "",
          "type": "uint256"
        }
      ],
      "stateMutability": "view",
      "type": "function"
    },
    {
      "inputs": [],
      "name": "governancePotShareNominator",
      "outputs": [
        {
          "internalType": "uint256",
          "name": "",
          "type": "uint256"
        }
      ],
      "stateMutability": "view",
      "type": "function"
    },
    {
      "inputs": [
        {
          "internalType": "string",
          "name": "setter",
          "type": "string"
        },
        {
          "internalType": "string",
          "name": "getter",
          "type": "string"
        },
        {
          "internalType": "uint256[]",
          "name": "params",
          "type": "uint256[]"
        }
      ],
      "name": "initAllowedChangeableParameter",
      "outputs": [],
      "stateMutability": "nonpayable",
      "type": "function"
    },
    {
      "inputs": [
        {
          "internalType": "address",
          "name": "_contractOwner",
          "type": "address"
        },
        {
          "internalType": "address",
          "name": "_validatorSet",
          "type": "address"
        },
        {
          "internalType": "address",
          "name": "_connectivityTracker",
          "type": "address"
        }
      ],
      "name": "initialize",
      "outputs": [],
      "stateMutability": "nonpayable",
      "type": "function"
    },
    {
      "inputs": [
        {
          "internalType": "bytes4",
          "name": "funcSelector",
          "type": "bytes4"
        },
        {
          "internalType": "uint256",
          "name": "newVal",
          "type": "uint256"
        }
      ],
      "name": "isWithinAllowedRange",
      "outputs": [
        {
          "internalType": "bool",
          "name": "",
          "type": "bool"
        }
      ],
      "stateMutability": "view",
      "type": "function"
    },
    {
      "inputs": [],
      "name": "nativeRewardUndistributed",
      "outputs": [
        {
          "internalType": "uint256",
          "name": "",
          "type": "uint256"
        }
      ],
      "stateMutability": "view",
      "type": "function"
    },
    {
      "inputs": [],
      "name": "notifyEarlyEpochEnd",
      "outputs": [],
      "stateMutability": "nonpayable",
      "type": "function"
    },
    {
      "inputs": [],
      "name": "owner",
      "outputs": [
        {
          "internalType": "address",
          "name": "",
          "type": "address"
        }
      ],
      "stateMutability": "view",
      "type": "function"
    },
    {
      "inputs": [],
      "name": "reinsertPot",
      "outputs": [
        {
          "internalType": "uint256",
          "name": "",
          "type": "uint256"
        }
      ],
      "stateMutability": "view",
      "type": "function"
    },
    {
      "inputs": [],
      "name": "reinsertPotPayoutFraction",
      "outputs": [
        {
          "internalType": "uint256",
          "name": "",
          "type": "uint256"
        }
      ],
      "stateMutability": "view",
      "type": "function"
    },
    {
      "inputs": [
        {
          "internalType": "string",
          "name": "funcSelector",
          "type": "string"
        }
      ],
      "name": "removeAllowedChangeableParameter",
      "outputs": [],
      "stateMutability": "nonpayable",
      "type": "function"
    },
    {
      "inputs": [],
      "name": "renounceOwnership",
      "outputs": [],
      "stateMutability": "nonpayable",
      "type": "function"
    },
    {
      "inputs": [
        {
          "internalType": "bool",
          "name": "_isEpochEndBlock",
          "type": "bool"
        }
      ],
      "name": "reward",
      "outputs": [
        {
          "internalType": "uint256",
          "name": "rewardsNative",
          "type": "uint256"
        }
      ],
      "stateMutability": "nonpayable",
      "type": "function"
    },
    {
      "inputs": [
        {
          "internalType": "string",
          "name": "setter",
          "type": "string"
        },
        {
          "internalType": "string",
          "name": "getter",
          "type": "string"
        },
        {
          "internalType": "uint256[]",
          "name": "params",
          "type": "uint256[]"
        }
      ],
      "name": "setAllowedChangeableParameter",
      "outputs": [],
      "stateMutability": "nonpayable",
      "type": "function"
    },
    {
      "inputs": [
        {
          "internalType": "address",
          "name": "_connectivityTracker",
          "type": "address"
        }
      ],
      "name": "setConnectivityTracker",
      "outputs": [],
      "stateMutability": "nonpayable",
      "type": "function"
    },
    {
      "inputs": [
        {
          "internalType": "uint256",
          "name": "_shareNominator",
          "type": "uint256"
        }
      ],
      "name": "setGovernancePotShareNominator",
      "outputs": [],
      "stateMutability": "nonpayable",
      "type": "function"
    },
    {
      "inputs": [
        {
          "internalType": "uint256",
          "name": "_value",
          "type": "uint256"
        }
      ],
      "name": "setReinsertPotPayoutFraction",
      "outputs": [],
      "stateMutability": "nonpayable",
      "type": "function"
    },
    {
      "inputs": [
        {
          "internalType": "uint256",
          "name": "_value",
          "type": "uint256"
        }
      ],
      "name": "setdeltaPotPayoutFraction",
      "outputs": [],
      "stateMutability": "nonpayable",
      "type": "function"
    },
    {
      "inputs": [
        {
          "internalType": "address",
          "name": "newOwner",
          "type": "address"
        }
      ],
      "name": "transferOwnership",
      "outputs": [],
      "stateMutability": "nonpayable",
      "type": "function"
    },
    {
      "inputs": [
        {
          "internalType": "uint256",
          "name": "",
          "type": "uint256"
        }
      ],
      "name": "validatorMinRewardPercent",
      "outputs": [
        {
          "internalType": "uint256",
          "name": "",
          "type": "uint256"
        }
      ],
      "stateMutability": "view",
      "type": "function"
    },
    {
      "inputs": [],
      "name": "validatorSetContract",
      "outputs": [
        {
          "internalType": "contract IValidatorSetHbbft",
          "name": "",
          "type": "address"
        }
      ],
      "stateMutability": "view",
      "type": "function"
    },
    {
      "stateMutability": "payable",
      "type": "receive"
    }
  ],
  "bytecode": "0x6080604052348015600f57600080fd5b506016601a565b60ca565b7ff0c57e16840df040f15088dc2f81fe391c3923bec73e23a9662efc9c229c6a00805468010000000000000000900460ff161560695760405163f92ee8a960e01b815260040160405180910390fd5b80546001600160401b039081161460c75780546001600160401b0319166001600160401b0390811782556040519081527fc7f505b2f371ae2175ee4913f4499e1f2633a7b5936321eed1cdaeb6115181d29060200160405180910390a15b50565b612d08806100d96000396000f3fe6080604052600436106102525760003560e01c80639228363411610138578063ba08d237116100b0578063cdf7a0901161007f578063dfc8bf4e11610064578063dfc8bf4e146106b5578063e58edc38146106d5578063f2fde38b146106ec57600080fd5b8063cdf7a0901461065b578063dd03f5b91461068857600080fd5b8063ba08d237146105db578063c0c53b8b146105fb578063c6cc93331461061b578063cb68d1271461063b57600080fd5b8063a59546e211610107578063af182535116100ec578063af1825351461059e578063b10c7548146105a6578063b710c15d146105ae57600080fd5b8063a59546e214610573578063adc481a71461058857600080fd5b806392283634146104d45780639740f48d1461051d5780639a64ca2c1461053d5780639b9fb6d01461055357600080fd5b80635cb092a2116101cb578063732524941161019a57806378ff69d51161017f57806378ff69d5146104615780638da5cb5b1461048157806391b57986146104be57600080fd5b8063732524941461042d57806373f129581461044b57600080fd5b80635cb092a2146103a757806366955469146103c7578063674a7214146103e7578063715018a61461041857600080fd5b806333d69921116102225780633c2c943c116102075780633c2c943c14610366578063596208721461037c5780635c57a8011461039157600080fd5b806333d699211461030c57806336e98ca81461034457600080fd5b8062067a84146102765780630c0d4173146102a95780631274fa09146102be57806319cee897146102d457600080fd5b366102715734600760008282546102699190612694565b925050819055005b600080fd5b34801561028257600080fd5b506102966102913660046126b5565b61070c565b6040519081526020015b60405180910390f35b3480156102b557600080fd5b50610296601e81565b3480156102ca57600080fd5b5061029660085481565b3480156102e057600080fd5b50600a546102f4906001600160a01b031681565b6040516001600160a01b0390911681526020016102a0565b34801561031857600080fd5b506102966103273660046126ee565b600260209081526000928352604080842090915290825290205481565b34801561035057600080fd5b5061036461035f3660046127f9565b61085c565b005b34801561037257600080fd5b50610296600c5481565b34801561038857600080fd5b50610364610910565b34801561039d57600080fd5b5061029660055481565b3480156103b357600080fd5b506103646103c23660046127f9565b61094f565b3480156103d357600080fd5b50600d546102f4906001600160a01b031681565b3480156103f357600080fd5b50600d5461040890600160a01b900460ff1681565b60405190151581526020016102a0565b34801561042457600080fd5b50610364610957565b34801561043957600080fd5b50600a546001600160a01b03166102f4565b34801561045757600080fd5b5061029660075481565b34801561046d57600080fd5b5061036461047c3660046128dc565b61096b565b34801561048d57600080fd5b507f9016d09d72d40fdae2fd8ceac6b6234c7706214fd39c1cd1e609a0528c199300546001600160a01b03166102f4565b3480156104ca57600080fd5b50610296600b5481565b3480156104e057600080fd5b506105046104ef366004612911565b60006020819052908152604090205460e01b81565b6040516001600160e01b031990911681526020016102a0565b34801561052957600080fd5b5061036461053836600461292c565b6109fc565b34801561054957600080fd5b5061029660065481565b34801561055f57600080fd5b5061036461056e366004612945565b610a46565b34801561057f57600080fd5b50610296610aba565b34801561059457600080fd5b5061029660035481565b610364610d01565b610364610d1a565b3480156105ba57600080fd5b506105ce6105c9366004612945565b610d2c565b6040516102a09190612982565b3480156105e757600080fd5b506104086105f63660046129e4565b610dd4565b34801561060757600080fd5b50610364610616366004612a0e565b610fa5565b34801561062757600080fd5b5061036461063636600461292c565b6111bc565b34801561064757600080fd5b5061036461065636600461292c565b611233565b34801561066757600080fd5b5061029661067636600461292c565b60046020526000908152604090205481565b34801561069457600080fd5b506106a86106a33660046128dc565b6112aa565b6040516102a09190612a95565b3480156106c157600080fd5b506009546102f4906001600160a01b031681565b3480156106e157600080fd5b50610296620f424081565b3480156106f857600080fd5b506103646107073660046128dc565b611316565b60003373fffffffffffffffffffffffffffffffffffffffe14610741576040516282b42960e81b815260040160405180910390fd5b610749611354565b6009546040805163239a373960e21b815290516000926001600160a01b031691638e68dce49160048083019260209291908290030181865afa158015610793573d6000803e3d6000fd5b505050506040513d601f19601f820116820180604052508101906107b79190612aa8565b905082806107ce5750600d54600160a01b900460ff165b15610824576107dc8161139e565b600d805460ff60a01b191690556040518181529092507ff32b9551d3414b67f8e66e20ac15e62694b9d1230abb2e2e48f9dc2e1964c4299060200160405180910390a161082d565b61082d81611610565b5061085760017f9b779b17422d0df92223018b32b4d1fa46e071723d6817e2486d003becc55f0055565b919050565b610864611ad1565b60408051808201825283516020808601919091206001600160e01b031990811683528183018581528751888401209091166000908152808352939093208251815463ffffffff191660e09190911c178155925180519293926108cc9260018501920190612604565b509050507f3d45a310c5a076ea07aa2947ca3c06cc2a8b3571065867ad6f8e7096a2c9d50a83838360405161090393929190612b15565b60405180910390a1505050565b600d546001600160a01b0316331461093a576040516282b42960e81b815260040160405180910390fd5b600d805460ff60a01b1916600160a01b179055565b610864611b2c565b61095f611ad1565b6109696000611b7a565b565b610973611ad1565b6001600160a01b03811661099a5760405163d92e233d60e01b815260040160405180910390fd5b600d805473ffffffffffffffffffffffffffffffffffffffff19166001600160a01b0383169081179091556040519081527f387d29e18823e432432b6098ebeee33beebdb128d2234c7f486c26447b738edd906020015b60405180910390a150565b610a04611ad1565b80610a1b6000356001600160e01b03191682610dd4565b610a40576040516373330d9b60e01b8152600481018290526024015b60405180910390fd5b50600b55565b610a4e611ad1565b80516020808301919091206001600160e01b03191660009081529081905260408120805463ffffffff1916815590610a89600183018261264f565b50507f92d44565a40fe29702ffa146ddaa3bb133d4077f5312d682d0a2632a9bc73a8a816040516109f19190612b58565b600080600960009054906101000a90046001600160a01b03166001600160a01b0316638e68dce46040518163ffffffff1660e01b8152600401602060405180830381865afa158015610b10573d6000803e3d6000fd5b505050506040513d601f19601f82011682018060405250810190610b349190612aa8565b90506000816001600160a01b0316639b03d7446040518163ffffffff1660e01b8152600401602060405180830381865afa158015610b76573d6000803e3d6000fd5b505050506040513d601f19601f82011682018060405250810190610b9a9190612b6b565b826001600160a01b03166322e3d9866040518163ffffffff1660e01b8152600401602060405180830381865afa158015610bd8573d6000803e3d6000fd5b505050506040513d601f19601f82011682018060405250810190610bfc9190612b6b565b610c069190612b84565b9050816001600160a01b03166322e3d9866040518163ffffffff1660e01b8152600401602060405180830381865afa158015610c46573d6000803e3d6000fd5b505050506040513d601f19601f82011682018060405250810190610c6a9190612b6b565b4211610cf75780826001600160a01b0316639b03d7446040518163ffffffff1660e01b8152600401602060405180830381865afa158015610caf573d6000803e3d6000fd5b505050506040513d601f19601f82011682018060405250810190610cd39190612b6b565b610cdd9042612b84565b610ce8906064612b97565b610cf29190612bae565b610cfa565b60645b9250505090565b3460076000828254610d139190612694565b9091555050565b3460056000828254610d139190612694565b60408051808201909152600081526060602082015281516020808401919091206001600160e01b0319908116600090815280835260409081902081518083018352815460e01b9093168352600181018054835181870281018701909452808452939491938583019392830182828015610dc457602002820191906000526020600020905b815481526020019060010190808311610db0575b5050505050815250509050919050565b6001600160e01b031980831660009081526020818152604080832081518083018352815460e01b909516855260018101805483518186028101860190945280845294958695909492938584019390929190830182828015610e5457602002820191906000526020600020905b815481526020019060010190808311610e40575b5050505050815250509050806020015151600003610e76576000915050610f9f565b60208101518151600090610e8990611bf8565b905060005b8251811015610f965781838281518110610eaa57610eaa612bd0565b602002602001015103610f8e576000808211610ee05783600081518110610ed357610ed3612bd0565b6020026020010151610f05565b83610eec600184612b84565b81518110610efc57610efc612bd0565b60200260200101515b9050600060018551610f179190612b84565b8310610f49578460018651610f2c9190612b84565b81518110610f3c57610f3c612bd0565b6020026020010151610f6e565b84610f55846001612694565b81518110610f6557610f65612bd0565b60200260200101515b9050818814158015610f805750808814155b159650505050505050610f9f565b600101610e8e565b50600093505050505b92915050565b7ff0c57e16840df040f15088dc2f81fe391c3923bec73e23a9662efc9c229c6a00805468010000000000000000810460ff16159067ffffffffffffffff16600081158015610ff05750825b905060008267ffffffffffffffff16600114801561100d5750303b155b90508115801561101b575080155b156110395760405163f92ee8a960e01b815260040160405180910390fd5b845467ffffffffffffffff19166001178555831561106d57845468ff00000000000000001916680100000000000000001785555b6001600160a01b038816158061108a57506001600160a01b038716155b8061109c57506001600160a01b038616155b156110ba5760405163d92e233d60e01b815260040160405180910390fd5b6110c388611ccf565b6110cb611ce0565b600980546001600160a01b03808a1673ffffffffffffffffffffffffffffffffffffffff1992831617909255600d805492891692821692909217909155600080526004602052601e7f17ef568e3e12ab5b9c7254a8d58478811de00f9e6eb34345acd53bf8fd09d3ec556117706006819055600855600a805490911673da0da0da0da0da0da0da00da0da0da0da0da0da01781556001600b55600c5583156111b257845468ff000000000000000019168555604051600181527fc7f505b2f371ae2175ee4913f4499e1f2633a7b5936321eed1cdaeb6115181d29060200160405180910390a15b5050505050505050565b6111c4611ad1565b806000036111fe576040517fffcfec8400000000000000000000000000000000000000000000000000000000815260040160405180910390fd5b60088190556040518181527fb914176cecdd5906f3fd1eb6fcf471c39b33cdc7142a1d8c494487c31ff40f88906020016109f1565b61123b611ad1565b80600003611275576040517fffcfec8400000000000000000000000000000000000000000000000000000000815260040160405180910390fd5b60068190556040518181527f8ce02935a391d407d8b483203a4f3cd8465b62a45c7274471113a192f111eda0906020016109f1565b6001600160a01b03811660009081526001602090815260409182902080548351818402810184019094528084526060939283018282801561130a57602002820191906000526020600020905b8154815260200190600101908083116112f6575b50505050509050919050565b61131e611ad1565b6001600160a01b03811661134857604051631e4fbdf760e01b815260006004820152602401610a37565b61135181611b7a565b50565b7f9b779b17422d0df92223018b32b4d1fa46e071723d6817e2486d003becc55f0080546001190161139857604051633ee5aeb560e01b815260040160405180910390fd5b60029055565b600080826001600160a01b031663794c0c686040518163ffffffff1660e01b8152600401602060405180830381865afa1580156113df573d6000803e3d6000fd5b505050506040513d601f19601f820116820180604052508101906114039190612b6b565b600d5460405163245f8d5360e11b8152600481018390529192506001600160a01b0316906348bf1aa690602401600060405180830381600087803b15801561144a57600080fd5b505af115801561145e573d6000803e3d6000fd5b50505050600081600014611479576114768285611cf0565b90505b6000611486836001612694565b90506060600960009054906101000a90046001600160a01b03166001600160a01b031663eebc7a396040518163ffffffff1660e01b8152600401600060405180830381865afa1580156114dd573d6000803e3d6000fd5b505050506040513d6000823e601f3d908101601f191682016040526115059190810190612be6565b9050611512868383612020565b600960009054906101000a90046001600160a01b03166001600160a01b031663b7ab4db56040518163ffffffff1660e01b8152600401600060405180830381865afa158015611565573d6000803e3d6000fd5b505050506040513d6000823e601f3d908101601f1916820160405261158d9190810190612be6565b905061159a868383612020565b6000828152600460208190526040808320601e90556009548151637528621160e01b815291516001600160a01b03909116936375286211938381019391929182900301818387803b1580156115ee57600080fd5b505af1158015611602573d6000803e3d6000fd5b509498975050505050505050565b6000816001600160a01b031663c6912cc06040518163ffffffff1660e01b8152600401602060405180830381865afa158015611650573d6000803e3d6000fd5b505050506040513d601f19601f820116820180604052508101906116749190612b6b565b90506000600960009054906101000a90046001600160a01b03166001600160a01b031663b7ab4db56040518163ffffffff1660e01b8152600401600060405180830381865afa1580156116cb573d6000803e3d6000fd5b505050506040513d6000823e601f3d908101601f191682016040526116f39190810190612be6565b60095460408051630456292b60e11b8152905192935042851115926000926001600160a01b0316916308ac52569160048083019260209291908290030181865afa158015611745573d6000803e3d6000fd5b505050506040513d601f19601f820116820180604052508101906117699190612b6b565b611774906002612b97565b8351611781906003612b97565b11611879576000856001600160a01b031663a5d54f656040518163ffffffff1660e01b8152600401600060405180830381865afa1580156117c6573d6000803e3d6000fd5b505050506040513d6000823e601f3d908101601f191682016040526117ee9190810190612be6565b51905060008111801561186d5750835160095460405163efd0494760e01b8152600481018490526001600160a01b039091169063efd0494790602401602060405180830381865afa158015611847573d6000803e3d6000fd5b505050506040513d601f19601f8201168201806040525081019061186b9190612b6b565b115b1561187757600191505b505b81806118825750805b80156119075750600960009054906101000a90046001600160a01b03166001600160a01b031663eebc7a396040518163ffffffff1660e01b8152600401600060405180830381865afa1580156118dc573d6000803e3d6000fd5b505050506040513d6000823e601f3d908101601f191682016040526119049190810190612be6565b51155b1561197957600960009054906101000a90046001600160a01b03166001600160a01b0316635ccee1de6040518163ffffffff1660e01b8152600401600060405180830381600087803b15801561195c57600080fd5b505af1158015611970573d6000803e3d6000fd5b50505050611a4a565b846001600160a01b03166322e3d9866040518163ffffffff1660e01b8152600401602060405180830381865afa1580156119b7573d6000803e3d6000fd5b505050506040513d601f19601f820116820180604052508101906119db9190612b6b565b4210611a4a57600960009054906101000a90046001600160a01b03166001600160a01b031663ade1900a6040518163ffffffff1660e01b8152600401600060405180830381600087803b158015611a3157600080fd5b505af1158015611a45573d6000803e3d6000fd5b505050505b600a546040805163ab0eb62d60e01b815290516001600160a01b0390921691829163ab0eb62d91600480830192600092919082900301818387803b158015611a9157600080fd5b505af1925050508015611aa2575060015b50505050505050565b60017f9b779b17422d0df92223018b32b4d1fa46e071723d6817e2486d003becc55f0055565b33611b037f9016d09d72d40fdae2fd8ceac6b6234c7706214fd39c1cd1e609a0528c199300546001600160a01b031690565b6001600160a01b0316146109695760405163118cdaa760e01b8152336004820152602401610a37565b7ff0c57e16840df040f15088dc2f81fe391c3923bec73e23a9662efc9c229c6a005468010000000000000000900460ff1661096957604051631afcd79f60e31b815260040160405180910390fd5b7f9016d09d72d40fdae2fd8ceac6b6234c7706214fd39c1cd1e609a0528c199300805473ffffffffffffffffffffffffffffffffffffffff1981166001600160a01b03848116918217845560405192169182907f8be0079c531659141344cd1fd0a4f28419497f9722a3daafe3b4186f6b6457e090600090a3505050565b60408051600481526024810182526020810180517bffffffffffffffffffffffffffffffffffffffffffffffffffffffff166001600160e01b03198516179052905160009190829081903090611c4f908590612c80565b600060405180830381855afa9150503d8060008114611c8a576040519150601f19603f3d011682016040523d82523d6000602084013e611c8f565b606091505b509150915081611cb257604051635fbab09b60e11b815260040160405180910390fd5b80806020019051810190611cc69190612b6b565b95945050505050565b611cd7611b2c565b61135181612142565b611ce8611b2c565b61096961214a565b600080600960009054906101000a90046001600160a01b03166001600160a01b031663b7ab4db56040518163ffffffff1660e01b8152600401600060405180830381865afa158015611d46573d6000803e3d6000fd5b505050506040513d6000823e601f3d908101601f19168201604052611d6e9190810190612be6565b80519091506000819003611d95576040516322b8b72360e21b815260040160405180910390fd5b6000611da082612152565b9050806000015160056000828254611db89190612b84565b9091555050602081015160078054600090611dd4908490612b84565b90915550506060810151600003611df15760009350505050610f9f565b600a546040820151611e0c916001600160a01b0316906122f1565b60408101516060820151600090611e24908390612b84565b9050600080611e34898b8961239d565b9150915081600003611e50576000975050505050505050610f9f565b6000611e5c8385612bae565b60008c8152600460205260409020549091508115611ffd5760005b88811015611ffb57838181518110611e9157611e91612bd0565b602002602001015115611ff35760008a8281518110611eb257611eb2612bd0565b60209081029190910101516009546040516307b9342f60e21b81526001600160a01b03808416600483015292935060009290911690631ee4d0bc90602401602060405180830381865afa158015611f0d573d6000803e3d6000fd5b505050506040513d601f19601f82011682018060405250810190611f319190612aa8565b9050611f7e8f83876001600160a01b039091166000818152600160208181526040808420805493840181558452818420909201869055948252600285528082209282529190935290912055565b604051633f3afe0160e01b81526001600160a01b038281166004830152602482018690528f1690633f3afe019087906044016000604051808303818588803b158015611fc957600080fd5b505af1158015611fdd573d6000803e3d6000fd5b50505050508489611fee9190612694565b985050505b600101611e77565b505b85876060015161200d9190612b84565b60035550939a9950505050505050505050565b60005b815181101561213c5760095482516000916001600160a01b031690631ee4d0bc9085908590811061205657612056612bd0565b60200260200101516040518263ffffffff1660e01b815260040161208991906001600160a01b0391909116815260200190565b602060405180830381865afa1580156120a6573d6000803e3d6000fd5b505050506040513d601f19601f820116820180604052508101906120ca9190612aa8565b6040516368563b7b60e11b8152600481018690526001600160a01b0380831660248301529192509086169063d0ac76f690604401600060405180830381600087803b15801561211857600080fd5b505af115801561212c573d6000803e3d6000fd5b5050505050806001019050612023565b50505050565b61131e611b2c565b611aab611b2c565b61217d6040518060800160405280600081526020016000815260200160008152602001600081525090565b60095460408051630456292b60e11b815290516000926001600160a01b0316916308ac52569160048083019260209291908290030181865afa1580156121c7573d6000803e3d6000fd5b505050506040513d601f19601f820116820180604052508101906121eb9190612b6b565b905060006121f7610aba565b9050600060405180608001604052806000815260200160008152602001600081526020016000815250905060648360065484886005546122379190612b97565b6122419190612b97565b61224b9190612bae565b6122559190612bae565b61225f9190612bae565b815260085460075460649185918590612279908a90612b97565b6122839190612b97565b61228d9190612bae565b6122979190612bae565b6122a19190612bae565b6020820181905281516003546122b79190612694565b6122c19190612694565b60608201819052600c54600b5490916122da9190612b97565b6122e49190612bae565b6040820152949350505050565b8047101561231257604051631e9acf1760e31b815260040160405180910390fd5b6000826001600160a01b03168260405160006040518083038185875af1925050503d806000811461235f576040519150601f19603f3d011682016040523d82523d6000602084013e612364565b606091505b505090508061239857604051630e21dcbb60e11b81526001600160a01b038416600482015260248101839052604401610a37565b505050565b600060606000835167ffffffffffffffff8111156123bd576123bd61271e565b6040519080825280602002602001820160405280156123e6578160200160208202803683370190505b5090506000805b85518110156125f85760095486516001600160a01b039091169063a92252ae9088908490811061241f5761241f612bd0565b60200260200101516040518263ffffffff1660e01b815260040161245291906001600160a01b0391909116815260200190565b602060405180830381865afa15801561246f573d6000803e3d6000fd5b505050506040513d601f19601f820116820180604052508101906124939190612c9c565b6125f05760095486516000916001600160a01b03808c1692635b4eafe0928c921690631ee4d0bc908c90889081106124cd576124cd612bd0565b60200260200101516040518263ffffffff1660e01b815260040161250091906001600160a01b0391909116815260200190565b602060405180830381865afa15801561251d573d6000803e3d6000fd5b505050506040513d601f19601f820116820180604052508101906125419190612aa8565b6040516001600160e01b031960e085901b16815260048101929092526001600160a01b03166024820152604401602060405180830381865afa15801561258b573d6000803e3d6000fd5b505050506040513d601f19601f820116820180604052508101906125af9190612b6b565b9050806000036125bf57506125f0565b60018483815181106125d3576125d3612bd0565b911515602092830291909101909101526125ec83612cb9565b9250505b6001016123ed565b50969095509350505050565b82805482825590600052602060002090810192821561263f579160200282015b8281111561263f578251825591602001919060010190612624565b5061264b929150612669565b5090565b508054600082559060005260206000209081019061135191905b5b8082111561264b576000815560010161266a565b634e487b7160e01b600052601160045260246000fd5b80820180821115610f9f57610f9f61267e565b801515811461135157600080fd5b6000602082840312156126c757600080fd5b81356126d2816126a7565b9392505050565b6001600160a01b038116811461135157600080fd5b6000806040838503121561270157600080fd5b823591506020830135612713816126d9565b809150509250929050565b634e487b7160e01b600052604160045260246000fd5b604051601f8201601f1916810167ffffffffffffffff8111828210171561275d5761275d61271e565b604052919050565b600082601f83011261277657600080fd5b813567ffffffffffffffff8111156127905761279061271e565b6127a3601f8201601f1916602001612734565b8181528460208386010111156127b857600080fd5b816020850160208301376000918101602001919091529392505050565b600067ffffffffffffffff8211156127ef576127ef61271e565b5060051b60200190565b60008060006060848603121561280e57600080fd5b833567ffffffffffffffff8082111561282657600080fd5b61283287838801612765565b945060209150818601358181111561284957600080fd5b61285588828901612765565b94505060408601358181111561286a57600080fd5b86019050601f8101871361287d57600080fd5b803561289061288b826127d5565b612734565b81815260059190911b820183019083810190898311156128af57600080fd5b928401925b828410156128cd578335825292840192908401906128b4565b80955050505050509250925092565b6000602082840312156128ee57600080fd5b81356126d2816126d9565b80356001600160e01b03198116811461085757600080fd5b60006020828403121561292357600080fd5b6126d2826128f9565b60006020828403121561293e57600080fd5b5035919050565b60006020828403121561295757600080fd5b813567ffffffffffffffff81111561296e57600080fd5b61297a84828501612765565b949350505050565b602080825282516001600160e01b031916828201528281015160408084015280516060840181905260009291820190839060808601905b808310156129d957835182529284019260019290920191908401906129b9565b509695505050505050565b600080604083850312156129f757600080fd5b612a00836128f9565b946020939093013593505050565b600080600060608486031215612a2357600080fd5b8335612a2e816126d9565b92506020840135612a3e816126d9565b91506040840135612a4e816126d9565b809150509250925092565b60008151808452602080850194506020840160005b83811015612a8a57815187529582019590820190600101612a6e565b509495945050505050565b6020815260006126d26020830184612a59565b600060208284031215612aba57600080fd5b81516126d2816126d9565b60005b83811015612ae0578181015183820152602001612ac8565b50506000910152565b60008151808452612b01816020860160208601612ac5565b601f01601f19169290920160200192915050565b606081526000612b286060830186612ae9565b8281036020840152612b3a8186612ae9565b90508281036040840152612b4e8185612a59565b9695505050505050565b6020815260006126d26020830184612ae9565b600060208284031215612b7d57600080fd5b5051919050565b81810381811115610f9f57610f9f61267e565b8082028115828204841417610f9f57610f9f61267e565b600082612bcb57634e487b7160e01b600052601260045260246000fd5b500490565b634e487b7160e01b600052603260045260246000fd5b60006020808385031215612bf957600080fd5b825167ffffffffffffffff811115612c1057600080fd5b8301601f81018513612c2157600080fd5b8051612c2f61288b826127d5565b81815260059190911b82018301908381019087831115612c4e57600080fd5b928401925b82841015612c75578351612c66816126d9565b82529284019290840190612c53565b979650505050505050565b60008251612c92818460208701612ac5565b9190910192915050565b600060208284031215612cae57600080fd5b81516126d2816126a7565b600060018201612ccb57612ccb61267e565b506001019056fea26469706673582212201183a35b757d212aafe63610b1d380590625ccef3a6f4310614350c2fab7535664736f6c63430008190033",
  "linkReferences": {},
  "deployedLinkReferences": {}
}