{
  "_format": "hh-sol-artifact-1",
  "contractName": "BlockRewardHbbftMock",
  "sourceName": "contracts/mockContracts/BlockRewardHbbftMock.sol",
  "abi": [
    {
      "inputs": [],
      "name": "GetterCallFailed",
      "type": "error"
    },
    {
      "inputs": [],
      "name": "InsufficientBalance",
      "type": "error"
    },
    {
      "inputs": [],
      "name": "InvalidInitialization",
      "type": "error"
    },
    {
      "inputs": [
        {
          "internalType": "uint256",
          "name": "_newVal",
          "type": "uint256"
        }
      ],
      "name": "NewValueOutOfRange",
      "type": "error"
    },
    {
      "inputs": [],
      "name": "NotInitializing",
      "type": "error"
    },
    {
      "inputs": [
        {
          "internalType": "address",
          "name": "owner",
          "type": "address"
        }
      ],
      "name": "OwnableInvalidOwner",
      "type": "error"
    },
    {
      "inputs": [
        {
          "internalType": "address",
          "name": "account",
          "type": "address"
        }
      ],
      "name": "OwnableUnauthorizedAccount",
      "type": "error"
    },
    {
      "inputs": [],
      "name": "ReentrancyGuardReentrantCall",
      "type": "error"
    },
    {
      "inputs": [
        {
          "internalType": "address",
          "name": "recipient",
          "type": "address"
        },
        {
          "internalType": "uint256",
          "name": "amount",
          "type": "uint256"
        }
      ],
      "name": "TransferFailed",
      "type": "error"
    },
    {
      "inputs": [],
      "name": "Unauthorized",
      "type": "error"
    },
    {
      "inputs": [],
      "name": "ValidatorsListEmpty",
      "type": "error"
    },
    {
      "inputs": [],
      "name": "ZeroAddress",
      "type": "error"
    },
    {
      "anonymous": false,
      "inputs": [
        {
          "indexed": false,
          "internalType": "uint256",
          "name": "rewards",
          "type": "uint256"
        }
      ],
      "name": "CoinsRewarded",
      "type": "event"
    },
    {
      "anonymous": false,
      "inputs": [],
      "name": "EarlyEpochEndNotificationReceived",
      "type": "event"
    },
    {
      "anonymous": false,
      "inputs": [
        {
          "indexed": false,
          "internalType": "uint64",
          "name": "version",
          "type": "uint64"
        }
      ],
      "name": "Initialized",
      "type": "event"
    },
    {
      "anonymous": false,
      "inputs": [
        {
          "indexed": true,
          "internalType": "address",
          "name": "previousOwner",
          "type": "address"
        },
        {
          "indexed": true,
          "internalType": "address",
          "name": "newOwner",
          "type": "address"
        }
      ],
      "name": "OwnershipTransferred",
      "type": "event"
    },
    {
      "anonymous": false,
      "inputs": [
        {
          "indexed": false,
          "internalType": "bytes4",
          "name": "funcSelector",
          "type": "bytes4"
        }
      ],
      "name": "RemoveChangeableParameter",
      "type": "event"
    },
    {
      "anonymous": false,
      "inputs": [
        {
          "indexed": false,
          "internalType": "bytes4",
          "name": "setter",
          "type": "bytes4"
        },
        {
          "indexed": false,
          "internalType": "bytes4",
          "name": "getter",
          "type": "bytes4"
        },
        {
          "indexed": false,
          "internalType": "uint256[]",
          "name": "params",
          "type": "uint256[]"
        }
      ],
      "name": "SetChangeableParameter",
      "type": "event"
    },
    {
      "anonymous": false,
      "inputs": [
        {
          "indexed": false,
          "internalType": "uint256",
          "name": "value",
          "type": "uint256"
        }
      ],
      "name": "SetGovernancePotShareNominator",
      "type": "event"
    },
    {
      "inputs": [],
      "name": "VALIDATOR_FIXED_REWARD_PERCENT",
      "outputs": [
        {
          "internalType": "uint256",
          "name": "",
          "type": "uint256"
        }
      ],
      "stateMutability": "view",
      "type": "function"
    },
    {
      "inputs": [],
      "name": "addToDeltaPot",
      "outputs": [],
      "stateMutability": "payable",
      "type": "function"
    },
    {
      "inputs": [],
      "name": "connectivityTracker",
      "outputs": [
        {
          "internalType": "contract IConnectivityTrackerHbbft",
          "name": "",
          "type": "address"
        }
      ],
      "stateMutability": "view",
      "type": "function"
    },
    {
      "inputs": [],
      "name": "deltaPot",
      "outputs": [
        {
          "internalType": "uint256",
          "name": "",
          "type": "uint256"
        }
      ],
      "stateMutability": "view",
      "type": "function"
    },
    {
      "inputs": [],
      "name": "deltaPotPayoutFraction",
      "outputs": [
        {
          "internalType": "uint256",
          "name": "",
          "type": "uint256"
        }
      ],
      "stateMutability": "view",
      "type": "function"
    },
    {
      "inputs": [],
      "name": "earlyEpochEnd",
      "outputs": [
        {
          "internalType": "bool",
          "name": "",
          "type": "bool"
        }
      ],
      "stateMutability": "view",
      "type": "function"
    },
    {
      "inputs": [],
      "name": "epochPercentage",
      "outputs": [
        {
          "internalType": "uint256",
          "name": "",
          "type": "uint256"
        }
      ],
      "stateMutability": "view",
      "type": "function"
    },
    {
      "inputs": [
        {
          "internalType": "uint256",
          "name": "",
          "type": "uint256"
        },
        {
          "internalType": "address",
          "name": "",
          "type": "address"
        }
      ],
      "name": "epochPoolNativeReward",
      "outputs": [
        {
          "internalType": "uint256",
          "name": "",
          "type": "uint256"
        }
      ],
      "stateMutability": "view",
      "type": "function"
    },
    {
      "inputs": [
        {
          "internalType": "address",
          "name": "_miningAddress",
          "type": "address"
        }
      ],
      "name": "epochsPoolGotRewardFor",
      "outputs": [
        {
          "internalType": "uint256[]",
          "name": "",
          "type": "uint256[]"
        }
      ],
      "stateMutability": "view",
      "type": "function"
    },
    {
      "inputs": [
        {
          "internalType": "string",
          "name": "_selector",
          "type": "string"
        }
      ],
      "name": "getAllowedParamsRange",
      "outputs": [
        {
          "components": [
            {
              "internalType": "bytes4",
              "name": "getter",
              "type": "bytes4"
            },
            {
              "internalType": "uint256[]",
              "name": "range",
              "type": "uint256[]"
            }
          ],
          "internalType": "struct ValueGuards.ParameterRange",
          "name": "",
          "type": "tuple"
        }
      ],
      "stateMutability": "view",
      "type": "function"
    },
    {
      "inputs": [
        {
          "internalType": "bytes4",
          "name": "_selector",
          "type": "bytes4"
        }
      ],
      "name": "getAllowedParamsRangeWithSelector",
      "outputs": [
        {
          "components": [
            {
              "internalType": "bytes4",
              "name": "getter",
              "type": "bytes4"
            },
            {
              "internalType": "uint256[]",
              "name": "range",
              "type": "uint256[]"
            }
          ],
          "internalType": "struct ValueGuards.ParameterRange",
          "name": "",
          "type": "tuple"
        }
      ],
      "stateMutability": "view",
      "type": "function"
    },
    {
      "inputs": [],
      "name": "getGovernanceAddress",
      "outputs": [
        {
          "internalType": "address",
          "name": "",
          "type": "address"
        }
      ],
      "stateMutability": "view",
      "type": "function"
    },
    {
      "inputs": [
        {
          "internalType": "uint256",
          "name": "numValidators",
          "type": "uint256"
        }
      ],
      "name": "getPotsShares",
      "outputs": [
        {
          "components": [
            {
              "internalType": "uint256",
              "name": "deltaPotAmount",
              "type": "uint256"
            },
            {
              "internalType": "uint256",
              "name": "reinsertPotAmount",
              "type": "uint256"
            },
            {
              "internalType": "uint256",
              "name": "governancePotAmount",
              "type": "uint256"
            },
            {
              "internalType": "uint256",
              "name": "totalRewards",
              "type": "uint256"
            }
          ],
          "internalType": "struct BlockRewardHbbft.PotsShares",
          "name": "",
          "type": "tuple"
        }
      ],
      "stateMutability": "view",
      "type": "function"
    },
    {
      "inputs": [],
      "name": "governancePotAddress",
      "outputs": [
        {
          "internalType": "address payable",
          "name": "",
          "type": "address"
        }
      ],
      "stateMutability": "view",
      "type": "function"
    },
    {
      "inputs": [],
      "name": "governancePotShareDenominator",
      "outputs": [
        {
          "internalType": "uint256",
          "name": "",
          "type": "uint256"
        }
      ],
      "stateMutability": "view",
      "type": "function"
    },
    {
      "inputs": [],
      "name": "governancePotShareNominator",
      "outputs": [
        {
          "internalType": "uint256",
          "name": "",
          "type": "uint256"
        }
      ],
      "stateMutability": "view",
      "type": "function"
    },
    {
      "inputs": [
        {
          "internalType": "address",
          "name": "_contractOwner",
          "type": "address"
        },
        {
          "internalType": "address",
          "name": "_validatorSet",
          "type": "address"
        },
        {
          "internalType": "address",
          "name": "_connectivityTracker",
          "type": "address"
        }
      ],
      "name": "initialize",
      "outputs": [],
      "stateMutability": "nonpayable",
      "type": "function"
    },
    {
      "inputs": [
        {
          "internalType": "bytes4",
          "name": "funcSelector",
          "type": "bytes4"
        },
        {
          "internalType": "uint256",
          "name": "newVal",
          "type": "uint256"
        }
      ],
      "name": "isWithinAllowedRange",
      "outputs": [
        {
          "internalType": "bool",
          "name": "",
          "type": "bool"
        }
      ],
      "stateMutability": "view",
      "type": "function"
    },
    {
      "inputs": [],
      "name": "nativeRewardUndistributed",
      "outputs": [
        {
          "internalType": "uint256",
          "name": "",
          "type": "uint256"
        }
      ],
      "stateMutability": "view",
      "type": "function"
    },
    {
      "inputs": [],
      "name": "notifyEarlyEpochEnd",
      "outputs": [],
      "stateMutability": "nonpayable",
      "type": "function"
    },
    {
      "inputs": [],
      "name": "owner",
      "outputs": [
        {
          "internalType": "address",
          "name": "",
          "type": "address"
        }
      ],
      "stateMutability": "view",
      "type": "function"
    },
    {
      "inputs": [],
      "name": "reinsertPot",
      "outputs": [
        {
          "internalType": "uint256",
          "name": "",
          "type": "uint256"
        }
      ],
      "stateMutability": "view",
      "type": "function"
    },
    {
      "inputs": [],
      "name": "reinsertPotPayoutFraction",
      "outputs": [
        {
          "internalType": "uint256",
          "name": "",
          "type": "uint256"
        }
      ],
      "stateMutability": "view",
      "type": "function"
    },
    {
      "inputs": [
        {
          "internalType": "bytes4",
          "name": "funcSelector",
          "type": "bytes4"
        }
      ],
      "name": "removeAllowedChangeableParameter",
      "outputs": [],
      "stateMutability": "nonpayable",
      "type": "function"
    },
    {
      "inputs": [],
      "name": "renounceOwnership",
      "outputs": [],
      "stateMutability": "nonpayable",
      "type": "function"
    },
    {
      "inputs": [],
      "name": "resetEarlyEpochEnd",
      "outputs": [],
      "stateMutability": "nonpayable",
      "type": "function"
    },
    {
      "inputs": [
        {
          "internalType": "bool",
          "name": "_isEpochEndBlock",
          "type": "bool"
        }
      ],
      "name": "reward",
      "outputs": [
        {
          "internalType": "uint256",
          "name": "rewardsNative",
          "type": "uint256"
        }
      ],
      "stateMutability": "nonpayable",
      "type": "function"
    },
    {
      "inputs": [],
      "name": "sendCoins",
      "outputs": [],
      "stateMutability": "payable",
      "type": "function"
    },
    {
      "inputs": [
        {
          "internalType": "bytes4",
          "name": "setter",
          "type": "bytes4"
        },
        {
          "internalType": "bytes4",
          "name": "getter",
          "type": "bytes4"
        },
        {
          "internalType": "uint256[]",
          "name": "params",
          "type": "uint256[]"
        }
      ],
      "name": "setAllowedChangeableParameter",
      "outputs": [],
      "stateMutability": "nonpayable",
      "type": "function"
    },
    {
      "inputs": [
        {
          "internalType": "address",
          "name": "_connectivityTracker",
          "type": "address"
        }
      ],
      "name": "setConnectivityTracker",
      "outputs": [],
      "stateMutability": "nonpayable",
      "type": "function"
    },
    {
      "inputs": [
        {
          "internalType": "address",
          "name": "_address",
          "type": "address"
        }
      ],
      "name": "setGovernanceAddress",
      "outputs": [],
      "stateMutability": "nonpayable",
      "type": "function"
    },
    {
      "inputs": [
        {
          "internalType": "uint256",
          "name": "_shareNominator",
          "type": "uint256"
        }
      ],
      "name": "setGovernancePotShareNominator",
      "outputs": [],
      "stateMutability": "nonpayable",
      "type": "function"
    },
    {
      "inputs": [
        {
          "internalType": "address",
          "name": "newOwner",
          "type": "address"
        }
      ],
      "name": "transferOwnership",
      "outputs": [],
      "stateMutability": "nonpayable",
      "type": "function"
    },
    {
      "inputs": [
        {
          "internalType": "uint256",
          "name": "",
          "type": "uint256"
        }
      ],
      "name": "validatorMinRewardPercent",
      "outputs": [
        {
          "internalType": "uint256",
          "name": "",
          "type": "uint256"
        }
      ],
      "stateMutability": "view",
      "type": "function"
    },
    {
      "inputs": [],
      "name": "validatorSetContract",
      "outputs": [
        {
          "internalType": "contract IValidatorSetHbbft",
          "name": "",
          "type": "address"
        }
      ],
      "stateMutability": "view",
      "type": "function"
    },
    {
      "stateMutability": "payable",
      "type": "receive"
    }
  ],
  "bytecode": "0x6080604052348015600f57600080fd5b506016601a565b60ca565b7ff0c57e16840df040f15088dc2f81fe391c3923bec73e23a9662efc9c229c6a00805468010000000000000000900460ff161560695760405163f92ee8a960e01b815260040160405180910390fd5b80546001600160401b039081161460c75780546001600160401b0319166001600160401b0390811782556040519081527fc7f505b2f371ae2175ee4913f4499e1f2633a7b5936321eed1cdaeb6115181d29060200160405180910390a15b50565b612f91806100d96000396000f3fe6080604052600436106102375760003560e01c806391b5798611610138578063bf348f86116100b0578063dd03f5b91161007f578063dfc8bf4e11610064578063dfc8bf4e146106bc578063f2fde38b146106dc578063f302163d1461033257600080fd5b8063dd03f5b914610670578063dd0707d41461069d57600080fd5b8063bf348f86146105c6578063c0c53b8b146105e6578063cdf7a09014610606578063cfc162541461063357600080fd5b8063a59546e211610107578063b10c7548116100ec578063b10c754814610571578063b710c15d14610579578063ba08d237146105a657600080fd5b8063a59546e214610546578063adc481a71461055b57600080fd5b806391b57986146104e55780639740f48d146104fb5780639a06e2151461051b5780639a64ca2c1461053057600080fd5b80635cbc1a6f116101cb578063732524941161019a57806378ff69d51161017f57806378ff69d51461044b5780637d8149db146104885780638da5cb5b146104a857600080fd5b8063732524941461041857806373f129581461043657600080fd5b80635cbc1a6f1461035f57806366955469146103b2578063674a7214146103d2578063715018a61461040357600080fd5b80633c2c943c116102075780633c2c943c146102fc5780634346845f1461031257806359620872146103345780635c57a8011461034957600080fd5b8062067a84146102435780631274fa091461027657806319cee8971461028c57806333d69921146102c457600080fd5b3661023e57005b600080fd5b34801561024f57600080fd5b5061026361025e36600461299c565b6106fc565b6040519081526020015b60405180910390f35b34801561028257600080fd5b5061026360065481565b34801561029857600080fd5b506008546102ac906001600160a01b031681565b6040516001600160a01b03909116815260200161026d565b3480156102d057600080fd5b506102636102df3660046129da565b600160209081526000928352604080842090915290825290205481565b34801561030857600080fd5b50610263600a5481565b34801561031e57600080fd5b5061033261032d366004612a22565b610830565b005b34801561034057600080fd5b50610332610936565b34801561035557600080fd5b5061026360045481565b34801561036b57600080fd5b5061037f61037a366004612ab3565b61099e565b60405161026d91908151815260208083015190820152604080830151908201526060918201519181019190915260800190565b3480156103be57600080fd5b50600b546102ac906001600160a01b031681565b3480156103de57600080fd5b50600b546103f390600160a01b900460ff1681565b604051901515815260200161026d565b34801561040f57600080fd5b506103326109d8565b34801561042457600080fd5b506008546001600160a01b03166102ac565b34801561044257600080fd5b506102636109ec565b34801561045757600080fd5b50610332610466366004612acc565b600b80546001600160a01b0319166001600160a01b0392909216919091179055565b34801561049457600080fd5b506103326104a3366004612ae9565b610a01565b3480156104b457600080fd5b507f9016d09d72d40fdae2fd8ceac6b6234c7706214fd39c1cd1e609a0528c199300546001600160a01b03166102ac565b3480156104f157600080fd5b5061026360095481565b34801561050757600080fd5b50610332610516366004612ab3565b610a8b565b34801561052757600080fd5b50610263601481565b34801561053c57600080fd5b5061026360055481565b34801561055257600080fd5b50610263610b04565b34801561056757600080fd5b5061026360025481565b610332610d4b565b34801561058557600080fd5b50610599610594366004612b4b565b610d64565b60405161026d9190612be0565b3480156105b257600080fd5b506103f36105c1366004612c42565b610e14565b3480156105d257600080fd5b506105996105e1366004612ae9565b610fef565b3480156105f257600080fd5b50610332610601366004612c6c565b611094565b34801561061257600080fd5b50610263610621366004612ab3565b60036020526000908152604090205481565b34801561063f57600080fd5b5061033261064e366004612acc565b600880546001600160a01b0319166001600160a01b0392909216919091179055565b34801561067c57600080fd5b5061069061068b366004612acc565b61131d565b60405161026d9190612cf3565b3480156106a957600080fd5b50610332600b805460ff60a01b19169055565b3480156106c857600080fd5b506007546102ac906001600160a01b031681565b3480156106e857600080fd5b506103326106f7366004612acc565b611387565b60003373fffffffffffffffffffffffffffffffffffffffe14610731576040516282b42960e81b815260040160405180910390fd5b6107396113c5565b6007546040805163239a373960e21b815290516000926001600160a01b031691638e68dce49160048083019260209291908290030181865afa158015610783573d6000803e3d6000fd5b505050506040513d601f19601f820116820180604052508101906107a79190612d06565b905082156107f8576107b88161140f565b91507ff32b9551d3414b67f8e66e20ac15e62694b9d1230abb2e2e48f9dc2e1964c429826040516107eb91815260200190565b60405180910390a1610801565b6108018161168c565b5061082b60017f9b779b17422d0df92223018b32b4d1fa46e071723d6817e2486d003becc55f0055565b919050565b610838611c0c565b6000610842611c67565b90506040518060400160405280857bffffffffffffffffffffffffffffffffffffffffffffffffffffffff1916815260200184848080602002602001604051908101604052809392919081815260200183836020028082843760009201829052509390945250506001600160e01b031988168152602084815260409091208351815463ffffffff191660e09190911c1781558382015180519193506108ee926001850192910190612922565b509050507f3665bf9cd0ba4ddceeec259e21dcf8a4510f3b1130bd42e950828e69d85408ba858585856040516109279493929190612d23565b60405180910390a15050505050565b600b546001600160a01b03163314610960576040516282b42960e81b815260040160405180910390fd5b600b805460ff60a01b1916600160a01b1790556040517f9f7c6e71cec61c4bd3b4af384f8b8729af23a80826f33e1431d07a09a4904b1690600090a1565b6109c96040518060800160405280600081526020016000815260200160008152602001600081525090565b6109d282611cc9565b92915050565b6109e0611c0c565b6109ea6000611ecb565b565b6000600454476109fc9190612da6565b905090565b610a09611c0c565b6000610a13611c67565b6001600160e01b031983166000908152602082905260408120805463ffffffff19168155919250610a47600183018261296d565b50506040516001600160e01b0319831681527fed27cb02231782dadf13473a7828cb980c4d685791b7a3136dde00f8c3594cb6906020015b60405180910390a15050565b610a93611c0c565b80610aaa6000356001600160e01b03191682610e14565b610acf576040516373330d9b60e01b8152600481018290526024015b60405180910390fd5b60098290556040518281527f0bae48e5d1dc3568f32952ed3a75d66d27094f2e08f508808d86627eeef2290390602001610a7f565b600080600760009054906101000a90046001600160a01b03166001600160a01b0316638e68dce46040518163ffffffff1660e01b8152600401602060405180830381865afa158015610b5a573d6000803e3d6000fd5b505050506040513d601f19601f82011682018060405250810190610b7e9190612d06565b90506000816001600160a01b0316639b03d7446040518163ffffffff1660e01b8152600401602060405180830381865afa158015610bc0573d6000803e3d6000fd5b505050506040513d601f19601f82011682018060405250810190610be49190612db9565b826001600160a01b03166322e3d9866040518163ffffffff1660e01b8152600401602060405180830381865afa158015610c22573d6000803e3d6000fd5b505050506040513d601f19601f82011682018060405250810190610c469190612db9565b610c509190612da6565b9050816001600160a01b03166322e3d9866040518163ffffffff1660e01b8152600401602060405180830381865afa158015610c90573d6000803e3d6000fd5b505050506040513d601f19601f82011682018060405250810190610cb49190612db9565b4211610d415780826001600160a01b0316639b03d7446040518163ffffffff1660e01b8152600401602060405180830381865afa158015610cf9573d6000803e3d6000fd5b505050506040513d601f19601f82011682018060405250810190610d1d9190612db9565b610d279042612da6565b610d32906064612dd2565b610d3c9190612de9565b610d44565b60645b9250505090565b3460046000828254610d5d9190612e0b565b9091555050565b604080518082019091526000815260606020820152610d81611c67565b82516020808501919091206001600160e01b0319908116600090815292825260409283902083518085018552815460e01b9092168252600181018054855181860281018601909652808652929491938581019390830182828015610e0457602002820191906000526020600020905b815481526020019060010190808311610df0575b5050505050815250509050919050565b600080610e1f611c67565b6001600160e01b031980861660009081526020838152604080832081518083018352815460e01b90951685526001810180548351818602810186019094528084529697509395909385840193909190830182828015610e9d57602002820191906000526020600020905b815481526020019060010190808311610e89575b5050505050815250509050806020015151600003610ec0576000925050506109d2565b60208101518151600090610ed390611f3c565b905060005b8251811015610fe15781838281518110610ef457610ef4612e1e565b602002602001015103610fd9576000808211610f2a5783600081518110610f1d57610f1d612e1e565b6020026020010151610f4f565b83610f36600184612da6565b81518110610f4657610f46612e1e565b60200260200101515b9050600060018551610f619190612da6565b8310610f93578460018651610f769190612da6565b81518110610f8657610f86612e1e565b6020026020010151610fb8565b84610f9f846001612e0b565b81518110610faf57610faf612e1e565b60200260200101515b9050818914158015610fca5750808914155b159750505050505050506109d2565b600101610ed8565b506000979650505050505050565b60408051808201909152600081526060602082015261100c611c67565b6001600160e01b03198084166000908152602092835260409081902081518083018352815460e01b9093168352600181018054835181870281018701909452808452939491938583019392830182828015610e045760200282019190600052602060002090815481526020019060010190808311610df0575050505050815250509050919050565b7ff0c57e16840df040f15088dc2f81fe391c3923bec73e23a9662efc9c229c6a00805468010000000000000000810460ff16159067ffffffffffffffff166000811580156110df5750825b905060008267ffffffffffffffff1660011480156110fc5750303b155b90508115801561110a575080155b156111285760405163f92ee8a960e01b815260040160405180910390fd5b845467ffffffffffffffff19166001178555831561115c57845468ff00000000000000001916680100000000000000001785555b6001600160a01b038816158061117957506001600160a01b038716155b8061118b57506001600160a01b038616155b156111a95760405163d92e233d60e01b815260040160405180910390fd5b6111b288612013565b6111ba612024565b600780546001600160a01b038981166001600160a01b031992831617909255600b805492891692821692909217825560008080526003602090815260147f3617319a054d772f909f7c479a2cebe5066e836a939412e32403c99029b92eff5561177060058190556006556008805490931673da0da0da0da0da0da0da00da0da0da0da0da0da017909255600a6009819055606490556040805184815261018081019091529092909182016101608036833701905050905060005b81518110156112ad5761128881600a612e0b565b82828151811061129a5761129a612e1e565b6020908102919091010152600101611274565b506112c7639740f48d60e01b6348dabcc360e11b83612034565b50831561131357845468ff000000000000000019168555604051600181527fc7f505b2f371ae2175ee4913f4499e1f2633a7b5936321eed1cdaeb6115181d29060200160405180910390a15b5050505050505050565b6001600160a01b0381166000908152602081815260409182902080548351818402810184019094528084526060939283018282801561137b57602002820191906000526020600020905b815481526020019060010190808311611367575b50505050509050919050565b61138f611c0c565b6001600160a01b0381166113b957604051631e4fbdf760e01b815260006004820152602401610ac6565b6113c281611ecb565b50565b7f9b779b17422d0df92223018b32b4d1fa46e071723d6817e2486d003becc55f0080546001190161140957604051633ee5aeb560e01b815260040160405180910390fd5b60029055565b600080826001600160a01b031663794c0c686040518163ffffffff1660e01b8152600401602060405180830381865afa158015611450573d6000803e3d6000fd5b505050506040513d601f19601f820116820180604052508101906114749190612db9565b600b5460405163245f8d5360e11b8152600481018390529192506001600160a01b0316906348bf1aa690602401600060405180830381600087803b1580156114bb57600080fd5b505af11580156114cf573d6000803e3d6000fd5b505050506000816000146114ea576114e782856120e9565b90505b60006114f7836001612e0b565b90506060600760009054906101000a90046001600160a01b03166001600160a01b031663eebc7a396040518163ffffffff1660e01b8152600401600060405180830381865afa15801561154e573d6000803e3d6000fd5b505050506040513d6000823e601f3d908101601f191682016040526115769190810190612e34565b905061158386838361240e565b600760009054906101000a90046001600160a01b03166001600160a01b031663b7ab4db56040518163ffffffff1660e01b8152600401600060405180830381865afa1580156115d6573d6000803e3d6000fd5b505050506040513d6000823e601f3d908101601f191682016040526115fe9190810190612e34565b905061160b86838361240e565b600082815260036020526040808220601490556007548151637528621160e01b815291516001600160a01b03909116926375286211926004808201939182900301818387803b15801561165d57600080fd5b505af1158015611671573d6000803e3d6000fd5b5050600b805460ff60a01b1916905550929695505050505050565b6000816001600160a01b031663c6912cc06040518163ffffffff1660e01b8152600401602060405180830381865afa1580156116cc573d6000803e3d6000fd5b505050506040513d601f19601f820116820180604052508101906116f09190612db9565b90506000814210159050600080600760009054906101000a90046001600160a01b03166001600160a01b0316635d5fcbce6040518163ffffffff1660e01b8152600401602060405180830381865afa158015611750573d6000803e3d6000fd5b505050506040513d601f19601f820116820180604052508101906117749190612db9565b9050600760009054906101000a90046001600160a01b03166001600160a01b03166308ac52566040518163ffffffff1660e01b8152600401602060405180830381865afa1580156117c9573d6000803e3d6000fd5b505050506040513d601f19601f820116820180604052508101906117ed9190612db9565b6117f8906002612dd2565b611803826003612dd2565b116118f9576000856001600160a01b031663a5d54f656040518163ffffffff1660e01b8152600401600060405180830381865afa158015611848573d6000803e3d6000fd5b505050506040513d6000823e601f3d908101601f191682016040526118709190810190612e34565b5190506000811180156118ed575060075460405163efd0494760e01b81526004810183905283916001600160a01b03169063efd0494790602401602060405180830381865afa1580156118c7573d6000803e3d6000fd5b505050506040513d601f19601f820116820180604052508101906118eb9190612db9565b115b156118f757600192505b505b600083806119045750825b806119185750600b54600160a01b900460ff165b90506000600760009054906101000a90046001600160a01b03166001600160a01b031663eebc7a396040518163ffffffff1660e01b8152600401600060405180830381865afa15801561196f573d6000803e3d6000fd5b505050506040513d6000823e601f3d908101601f191682016040526119979190810190612e34565b5190508180156119a5575080155b15611a8357600760009054906101000a90046001600160a01b03166001600160a01b0316635ccee1de6040518163ffffffff1660e01b8152600401600060405180830381600087803b1580156119fa57600080fd5b505af1158015611a0e573d6000803e3d6000fd5b5050505084611a715760405163ed723ce160e01b81524260048201526001600160a01b0388169063ed723ce190602401600060405180830381600087803b158015611a5857600080fd5b505af1158015611a6c573d6000803e3d6000fd5b505050505b600b805460ff60a01b19169055611b54565b866001600160a01b031663bb57c8ac6040518163ffffffff1660e01b8152600401602060405180830381865afa158015611ac1573d6000803e3d6000fd5b505050506040513d601f19601f82011682018060405250810190611ae59190612db9565b4210611b5457600760009054906101000a90046001600160a01b03166001600160a01b031663ade1900a6040518163ffffffff1660e01b8152600401600060405180830381600087803b158015611b3b57600080fd5b505af1158015611b4f573d6000803e3d6000fd5b505050505b600b54600160a01b900460ff168015611b6c57508015155b15611b7f57600b805460ff60a01b191690555b6008546040805163ab0eb62d60e01b815290516001600160a01b0390921691829163ab0eb62d91600480830192600092919082900301818387803b158015611bc657600080fd5b505af1925050508015611bd7575060015b15611313575050505050505050565b60017f9b779b17422d0df92223018b32b4d1fa46e071723d6817e2486d003becc55f0055565b33611c3e7f9016d09d72d40fdae2fd8ceac6b6234c7706214fd39c1cd1e609a0528c199300546001600160a01b031690565b6001600160a01b0316146109ea5760405163118cdaa760e01b8152336004820152602401610ac6565b60008060ff19611c9860017fdace3fd3d1fbdfd33853f19ba191d28c617e373ec58fc73cf7b58db5aff2c2ab612da6565b604051602001611caa91815260200190565b60408051601f1981840301815291905280516020909101201692915050565b611cf46040518060800160405280600081526020016000815260200160008152602001600081525090565b60075460408051630456292b60e11b815290516000926001600160a01b0316916308ac52569160048083019260209291908290030181865afa158015611d3e573d6000803e3d6000fd5b505050506040513d601f19601f82011682018060405250810190611d629190612db9565b90506000611d6e610b04565b905060006040518060800160405280600081526020016000815260200160008152602001600081525090506064836005548488600454611dae9190612dd2565b611db89190612dd2565b611dc29190612de9565b611dcc9190612de9565b611dd69190612de9565b8160000181815250506064836006548488306001600160a01b03166373f129586040518163ffffffff1660e01b8152600401602060405180830381865afa158015611e25573d6000803e3d6000fd5b505050506040513d601f19601f82011682018060405250810190611e499190612db9565b611e539190612dd2565b611e5d9190612dd2565b611e679190612de9565b611e719190612de9565b611e7b9190612de9565b602082018190528151600254611e919190612e0b565b611e9b9190612e0b565b60608201819052600a546009549091611eb49190612dd2565b611ebe9190612de9565b6040820152949350505050565b7f9016d09d72d40fdae2fd8ceac6b6234c7706214fd39c1cd1e609a0528c19930080546001600160a01b031981166001600160a01b03848116918217845560405192169182907f8be0079c531659141344cd1fd0a4f28419497f9722a3daafe3b4186f6b6457e090600090a3505050565b60408051600481526024810182526020810180517bffffffffffffffffffffffffffffffffffffffffffffffffffffffff166001600160e01b03198516179052905160009190829081903090611f93908590612ee6565b600060405180830381855afa9150503d8060008114611fce576040519150601f19603f3d011682016040523d82523d6000602084013e611fd3565b606091505b509150915081611ff657604051635fbab09b60e11b815260040160405180910390fd5b8080602001905181019061200a9190612db9565b95945050505050565b61201b612530565b6113c28161257e565b61202c612530565b6109ea612586565b61203c612530565b6000612046611c67565b6040805180820182526001600160e01b0319868116825260208083018781529189166000908152858252939093208251815463ffffffff191660e09190911c17815590518051949550919390926120a4926001850192910190612922565b509050507f3665bf9cd0ba4ddceeec259e21dcf8a4510f3b1130bd42e950828e69d85408ba8484846040516120db93929190612f15565b60405180910390a150505050565b600080600760009054906101000a90046001600160a01b03166001600160a01b031663b7ab4db56040518163ffffffff1660e01b8152600401600060405180830381865afa15801561213f573d6000803e3d6000fd5b505050506040513d6000823e601f3d908101601f191682016040526121679190810190612e34565b8051909150600081900361218e576040516322b8b72360e21b815260040160405180910390fd5b600061219982611cc9565b905080606001516000036121b357600093505050506109d2565b8051600480546000906121c7908490612da6565b9091555050604081015160608201516000906121e4908390612da6565b90506000806121f4898b8961258e565b9150915081600003612224578385606001516122109190612da6565b60025550600096506109d295505050505050565b60006122308385612de9565b60008c81526003602052604090205490915081156123d05760005b888110156123ce5783818151811061226557612265612e1e565b6020026020010151156123c65760008a828151811061228657612286612e1e565b60209081029190910101516007546040516307b9342f60e21b81526001600160a01b03808416600483015292935060009290911690631ee4d0bc90602401602060405180830381865afa1580156122e1573d6000803e3d6000fd5b505050506040513d601f19601f820116820180604052508101906123059190612d06565b90506123518f83876001600160a01b0390911660008181526020818152604080832080546001818101835591855283852001879055958352948152848220928252919091529190912055565b61235b858a612e0b565b604051633f3afe0160e01b81526001600160a01b03838116600483015260248201879052919a50908f1690633f3afe019087906044016000604051808303818588803b1580156123aa57600080fd5b505af11580156123be573d6000803e3d6000fd5b505050505050505b60010161224b565b505b8587606001516123e09190612da6565b60025560085460408801516123fe916001600160a01b031690612876565b50939a9950505050505050505050565b60005b815181101561252a5760075482516000916001600160a01b031690631ee4d0bc9085908590811061244457612444612e1e565b60200260200101516040518263ffffffff1660e01b815260040161247791906001600160a01b0391909116815260200190565b602060405180830381865afa158015612494573d6000803e3d6000fd5b505050506040513d601f19601f820116820180604052508101906124b89190612d06565b6040516368563b7b60e11b8152600481018690526001600160a01b0380831660248301529192509086169063d0ac76f690604401600060405180830381600087803b15801561250657600080fd5b505af115801561251a573d6000803e3d6000fd5b5050505050806001019050612411565b50505050565b7ff0c57e16840df040f15088dc2f81fe391c3923bec73e23a9662efc9c229c6a005468010000000000000000900460ff166109ea57604051631afcd79f60e31b815260040160405180910390fd5b61138f612530565b611be6612530565b600060606000835167ffffffffffffffff8111156125ae576125ae612b04565b6040519080825280602002602001820160405280156125d7578160200160208202803683370190505b5090506000866001600160a01b0316639b03d7446040518163ffffffff1660e01b8152600401602060405180830381865afa15801561261a573d6000803e3d6000fd5b505050506040513d601f19601f8201168201806040525081019061263e9190612db9565b90506000805b86518110156128685760075487516000916001600160a01b03808d1692635b4eafe0928d921690631ee4d0bc908d908890811061268357612683612e1e565b60200260200101516040518263ffffffff1660e01b81526004016126b691906001600160a01b0391909116815260200190565b602060405180830381865afa1580156126d3573d6000803e3d6000fd5b505050506040513d601f19601f820116820180604052508101906126f79190612d06565b6040516001600160e01b031960e085901b16815260048101929092526001600160a01b03166024820152604401602060405180830381865afa158015612741573d6000803e3d6000fd5b505050506040513d601f19601f820116820180604052508101906127659190612db9565b9050806000036127755750612860565b60075488516000916001600160a01b0316906360e5c520908b908690811061279f5761279f612e1e565b60200260200101516040518263ffffffff1660e01b81526004016127d291906001600160a01b0391909116815260200190565b602060405180830381865afa1580156127ef573d6000803e3d6000fd5b505050506040513d601f19601f820116820180604052508101906128139190612db9565b90508015806128225750848110155b1561282e575050612860565b600186848151811061284257612842612e1e565b9115156020928302919091019091015261285b84612f42565b935050505b600101612644565b509791965090945050505050565b8047101561289757604051631e9acf1760e31b815260040160405180910390fd5b6000826001600160a01b03168260405160006040518083038185875af1925050503d80600081146128e4576040519150601f19603f3d011682016040523d82523d6000602084013e6128e9565b606091505b505090508061291d57604051630e21dcbb60e11b81526001600160a01b038416600482015260248101839052604401610ac6565b505050565b82805482825590600052602060002090810192821561295d579160200282015b8281111561295d578251825591602001919060010190612942565b50612969929150612987565b5090565b50805460008255906000526020600020908101906113c291905b5b808211156129695760008155600101612988565b6000602082840312156129ae57600080fd5b813580151581146129be57600080fd5b9392505050565b6001600160a01b03811681146113c257600080fd5b600080604083850312156129ed57600080fd5b8235915060208301356129ff816129c5565b809150509250929050565b80356001600160e01b03198116811461082b57600080fd5b60008060008060608587031215612a3857600080fd5b612a4185612a0a565b9350612a4f60208601612a0a565b9250604085013567ffffffffffffffff80821115612a6c57600080fd5b818701915087601f830112612a8057600080fd5b813581811115612a8f57600080fd5b8860208260051b8501011115612aa457600080fd5b95989497505060200194505050565b600060208284031215612ac557600080fd5b5035919050565b600060208284031215612ade57600080fd5b81356129be816129c5565b600060208284031215612afb57600080fd5b6129be82612a0a565b634e487b7160e01b600052604160045260246000fd5b604051601f8201601f1916810167ffffffffffffffff81118282101715612b4357612b43612b04565b604052919050565b60006020808385031215612b5e57600080fd5b823567ffffffffffffffff80821115612b7657600080fd5b818501915085601f830112612b8a57600080fd5b813581811115612b9c57612b9c612b04565b612bae601f8201601f19168501612b1a565b91508082528684828501011115612bc457600080fd5b8084840185840137600090820190930192909252509392505050565b602080825282516001600160e01b031916828201528281015160408084015280516060840181905260009291820190839060808601905b80831015612c375783518252928401926001929092019190840190612c17565b509695505050505050565b60008060408385031215612c5557600080fd5b612c5e83612a0a565b946020939093013593505050565b600080600060608486031215612c8157600080fd5b8335612c8c816129c5565b92506020840135612c9c816129c5565b91506040840135612cac816129c5565b809150509250925092565b60008151808452602080850194506020840160005b83811015612ce857815187529582019590820190600101612ccc565b509495945050505050565b6020815260006129be6020830184612cb7565b600060208284031215612d1857600080fd5b81516129be816129c5565b6001600160e01b0319858116825284166020820152606060408201819052810182905260007f07ffffffffffffffffffffffffffffffffffffffffffffffffffffffffffffff831115612d7557600080fd5b8260051b808560808501379190910160800195945050505050565b634e487b7160e01b600052601160045260246000fd5b818103818111156109d2576109d2612d90565b600060208284031215612dcb57600080fd5b5051919050565b80820281158282048414176109d2576109d2612d90565b600082612e0657634e487b7160e01b600052601260045260246000fd5b500490565b808201808211156109d2576109d2612d90565b634e487b7160e01b600052603260045260246000fd5b60006020808385031215612e4757600080fd5b825167ffffffffffffffff80821115612e5f57600080fd5b818501915085601f830112612e7357600080fd5b815181811115612e8557612e85612b04565b8060051b9150612e96848301612b1a565b8181529183018401918481019088841115612eb057600080fd5b938501935b83851015612eda5784519250612eca836129c5565b8282529385019390850190612eb5565b98975050505050505050565b6000825160005b81811015612f075760208186018101518583015201612eed565b506000920191825250919050565b6001600160e01b031984811682528316602082015260606040820181905260009061200a90830184612cb7565b600060018201612f5457612f54612d90565b506001019056fea26469706673582212207f80104ff01e43c1511156e79c4e8e73c12bda1ac27e007f03cf2715513bc36d64736f6c63430008190033",
  "linkReferences": {},
  "deployedLinkReferences": {}
}