{
  "_format": "hh-sol-artifact-1",
  "contractName": "BlockRewardHbbftMock",
  "sourceName": "contracts/mockContracts/BlockRewardHbbftMock.sol",
  "abi": [
    {
      "inputs": [],
      "name": "GetterCallFailed",
      "type": "error"
    },
    {
      "inputs": [],
      "name": "InsufficientBalance",
      "type": "error"
    },
    {
      "inputs": [],
      "name": "InvalidInitialization",
      "type": "error"
    },
    {
      "inputs": [
        {
          "internalType": "uint256",
          "name": "_newVal",
          "type": "uint256"
        }
      ],
      "name": "NewValueOutOfRange",
      "type": "error"
    },
    {
      "inputs": [],
      "name": "NotInitializing",
      "type": "error"
    },
    {
      "inputs": [
        {
          "internalType": "address",
          "name": "owner",
          "type": "address"
        }
      ],
      "name": "OwnableInvalidOwner",
      "type": "error"
    },
    {
      "inputs": [
        {
          "internalType": "address",
          "name": "account",
          "type": "address"
        }
      ],
      "name": "OwnableUnauthorizedAccount",
      "type": "error"
    },
    {
      "inputs": [],
      "name": "ReentrancyGuardReentrantCall",
      "type": "error"
    },
    {
      "inputs": [
        {
          "internalType": "address",
          "name": "recipient",
          "type": "address"
        },
        {
          "internalType": "uint256",
          "name": "amount",
          "type": "uint256"
        }
      ],
      "name": "TransferFailed",
      "type": "error"
    },
    {
      "inputs": [],
      "name": "Unauthorized",
      "type": "error"
    },
    {
      "inputs": [],
      "name": "ValidatorsListEmpty",
      "type": "error"
    },
    {
      "inputs": [],
      "name": "ZeroAddress",
      "type": "error"
    },
    {
      "inputs": [],
      "name": "ZeroPayoutFraction",
      "type": "error"
    },
    {
      "anonymous": false,
      "inputs": [
        {
          "indexed": false,
          "internalType": "uint256",
          "name": "rewards",
          "type": "uint256"
        }
      ],
      "name": "CoinsRewarded",
      "type": "event"
    },
    {
      "anonymous": false,
      "inputs": [
        {
          "indexed": false,
          "internalType": "uint64",
          "name": "version",
          "type": "uint64"
        }
      ],
      "name": "Initialized",
      "type": "event"
    },
    {
      "anonymous": false,
      "inputs": [
        {
          "indexed": true,
          "internalType": "address",
          "name": "previousOwner",
          "type": "address"
        },
        {
          "indexed": true,
          "internalType": "address",
          "name": "newOwner",
          "type": "address"
        }
      ],
      "name": "OwnershipTransferred",
      "type": "event"
    },
    {
      "anonymous": false,
      "inputs": [
        {
          "indexed": false,
          "internalType": "string",
          "name": "funcSelector",
          "type": "string"
        }
      ],
      "name": "RemoveChangeAbleParameter",
      "type": "event"
    },
    {
      "anonymous": false,
      "inputs": [
        {
          "indexed": false,
          "internalType": "string",
          "name": "setter",
          "type": "string"
        },
        {
          "indexed": false,
          "internalType": "string",
          "name": "getter",
          "type": "string"
        },
        {
          "indexed": false,
          "internalType": "uint256[]",
          "name": "params",
          "type": "uint256[]"
        }
      ],
      "name": "SetChangeAbleParameter",
      "type": "event"
    },
    {
      "anonymous": false,
      "inputs": [
        {
          "indexed": false,
          "internalType": "address",
          "name": "_connectivityTracker",
          "type": "address"
        }
      ],
      "name": "SetConnectivityTracker",
      "type": "event"
    },
    {
      "anonymous": false,
      "inputs": [
        {
          "indexed": false,
          "internalType": "uint256",
          "name": "_fraction",
          "type": "uint256"
        }
      ],
      "name": "SetDeltaPotPayoutFraction",
      "type": "event"
    },
    {
      "anonymous": false,
      "inputs": [
        {
          "indexed": false,
          "internalType": "uint256",
          "name": "_fraction",
          "type": "uint256"
        }
      ],
      "name": "SetReinsertPotPayoutFraction",
      "type": "event"
    },
    {
      "inputs": [],
      "name": "REWARD_PERCENT_MULTIPLIER",
      "outputs": [
        {
          "internalType": "uint256",
          "name": "",
          "type": "uint256"
        }
      ],
      "stateMutability": "view",
      "type": "function"
    },
    {
      "inputs": [],
      "name": "VALIDATOR_MIN_REWARD_PERCENT",
      "outputs": [
        {
          "internalType": "uint256",
          "name": "",
          "type": "uint256"
        }
      ],
      "stateMutability": "view",
      "type": "function"
    },
    {
      "inputs": [],
      "name": "addToDeltaPot",
      "outputs": [],
      "stateMutability": "payable",
      "type": "function"
    },
    {
      "inputs": [],
      "name": "addToReinsertPot",
      "outputs": [],
      "stateMutability": "payable",
      "type": "function"
    },
    {
      "inputs": [
        {
          "internalType": "bytes4",
          "name": "",
          "type": "bytes4"
        }
      ],
      "name": "allowedParameterRange",
      "outputs": [
        {
          "internalType": "bytes4",
          "name": "getter",
          "type": "bytes4"
        }
      ],
      "stateMutability": "view",
      "type": "function"
    },
    {
      "inputs": [],
      "name": "connectivityTracker",
      "outputs": [
        {
          "internalType": "contract IConnectivityTrackerHbbft",
          "name": "",
          "type": "address"
        }
      ],
      "stateMutability": "view",
      "type": "function"
    },
    {
      "inputs": [],
      "name": "deltaPot",
      "outputs": [
        {
          "internalType": "uint256",
          "name": "",
          "type": "uint256"
        }
      ],
      "stateMutability": "view",
      "type": "function"
    },
    {
      "inputs": [],
      "name": "deltaPotPayoutFraction",
      "outputs": [
        {
          "internalType": "uint256",
          "name": "",
          "type": "uint256"
        }
      ],
      "stateMutability": "view",
      "type": "function"
    },
    {
      "inputs": [],
      "name": "earlyEpochEnd",
      "outputs": [
        {
          "internalType": "bool",
          "name": "",
          "type": "bool"
        }
      ],
      "stateMutability": "view",
      "type": "function"
    },
    {
      "inputs": [],
      "name": "epochPercentage",
      "outputs": [
        {
          "internalType": "uint256",
          "name": "",
          "type": "uint256"
        }
      ],
      "stateMutability": "view",
      "type": "function"
    },
    {
      "inputs": [
        {
          "internalType": "uint256",
          "name": "",
          "type": "uint256"
        },
        {
          "internalType": "address",
          "name": "",
          "type": "address"
        }
      ],
      "name": "epochPoolNativeReward",
      "outputs": [
        {
          "internalType": "uint256",
          "name": "",
          "type": "uint256"
        }
      ],
      "stateMutability": "view",
      "type": "function"
    },
    {
      "inputs": [
        {
          "internalType": "address",
          "name": "_miningAddress",
          "type": "address"
        }
      ],
      "name": "epochsPoolGotRewardFor",
      "outputs": [
        {
          "internalType": "uint256[]",
          "name": "",
          "type": "uint256[]"
        }
      ],
      "stateMutability": "view",
      "type": "function"
    },
    {
      "inputs": [
        {
          "internalType": "string",
          "name": "_selector",
          "type": "string"
        }
      ],
      "name": "getAllowedParamsRange",
      "outputs": [
        {
          "components": [
            {
              "internalType": "bytes4",
              "name": "getter",
              "type": "bytes4"
            },
            {
              "internalType": "uint256[]",
              "name": "range",
              "type": "uint256[]"
            }
          ],
          "internalType": "struct ValueGuards.ParameterRange",
          "name": "",
          "type": "tuple"
        }
      ],
      "stateMutability": "view",
      "type": "function"
    },
    {
      "inputs": [],
      "name": "getGovernanceAddress",
      "outputs": [
        {
          "internalType": "address",
          "name": "",
          "type": "address"
        }
      ],
      "stateMutability": "view",
      "type": "function"
    },
    {
      "inputs": [
        {
          "internalType": "uint256",
          "name": "numValidators",
          "type": "uint256"
        }
      ],
      "name": "getPotsShares",
      "outputs": [
        {
          "components": [
            {
              "internalType": "uint256",
              "name": "deltaPotAmount",
              "type": "uint256"
            },
            {
              "internalType": "uint256",
              "name": "reinsertPotAmount",
              "type": "uint256"
            },
            {
              "internalType": "uint256",
              "name": "governancePotAmount",
              "type": "uint256"
            },
            {
              "internalType": "uint256",
              "name": "totalRewards",
              "type": "uint256"
            }
          ],
          "internalType": "struct BlockRewardHbbft.PotsShares",
          "name": "",
          "type": "tuple"
        }
      ],
      "stateMutability": "view",
      "type": "function"
    },
    {
      "inputs": [],
      "name": "governancePotAddress",
      "outputs": [
        {
          "internalType": "address payable",
          "name": "",
          "type": "address"
        }
      ],
      "stateMutability": "view",
      "type": "function"
    },
    {
      "inputs": [],
      "name": "governancePotShareDenominator",
      "outputs": [
        {
          "internalType": "uint256",
          "name": "",
          "type": "uint256"
        }
      ],
      "stateMutability": "view",
      "type": "function"
    },
    {
      "inputs": [],
      "name": "governancePotShareNominator",
      "outputs": [
        {
          "internalType": "uint256",
          "name": "",
          "type": "uint256"
        }
      ],
      "stateMutability": "view",
      "type": "function"
    },
    {
      "inputs": [
        {
          "internalType": "string",
          "name": "setter",
          "type": "string"
        },
        {
          "internalType": "string",
          "name": "getter",
          "type": "string"
        },
        {
          "internalType": "uint256[]",
          "name": "params",
          "type": "uint256[]"
        }
      ],
      "name": "initAllowedChangeableParameter",
      "outputs": [],
      "stateMutability": "nonpayable",
      "type": "function"
    },
    {
      "inputs": [
        {
          "internalType": "address",
          "name": "_contractOwner",
          "type": "address"
        },
        {
          "internalType": "address",
          "name": "_validatorSet",
          "type": "address"
        },
        {
          "internalType": "address",
          "name": "_connectivityTracker",
          "type": "address"
        }
      ],
      "name": "initialize",
      "outputs": [],
      "stateMutability": "nonpayable",
      "type": "function"
    },
    {
      "inputs": [
        {
          "internalType": "bytes4",
          "name": "funcSelector",
          "type": "bytes4"
        },
        {
          "internalType": "uint256",
          "name": "newVal",
          "type": "uint256"
        }
      ],
      "name": "isWithinAllowedRange",
      "outputs": [
        {
          "internalType": "bool",
          "name": "",
          "type": "bool"
        }
      ],
      "stateMutability": "view",
      "type": "function"
    },
    {
      "inputs": [],
      "name": "nativeRewardUndistributed",
      "outputs": [
        {
          "internalType": "uint256",
          "name": "",
          "type": "uint256"
        }
      ],
      "stateMutability": "view",
      "type": "function"
    },
    {
      "inputs": [],
      "name": "notifyEarlyEpochEnd",
      "outputs": [],
      "stateMutability": "nonpayable",
      "type": "function"
    },
    {
      "inputs": [],
      "name": "owner",
      "outputs": [
        {
          "internalType": "address",
          "name": "",
          "type": "address"
        }
      ],
      "stateMutability": "view",
      "type": "function"
    },
    {
      "inputs": [],
      "name": "reinsertPot",
      "outputs": [
        {
          "internalType": "uint256",
          "name": "",
          "type": "uint256"
        }
      ],
      "stateMutability": "view",
      "type": "function"
    },
    {
      "inputs": [],
      "name": "reinsertPotPayoutFraction",
      "outputs": [
        {
          "internalType": "uint256",
          "name": "",
          "type": "uint256"
        }
      ],
      "stateMutability": "view",
      "type": "function"
    },
    {
      "inputs": [
        {
          "internalType": "string",
          "name": "funcSelector",
          "type": "string"
        }
      ],
      "name": "removeAllowedChangeableParameter",
      "outputs": [],
      "stateMutability": "nonpayable",
      "type": "function"
    },
    {
      "inputs": [],
      "name": "renounceOwnership",
      "outputs": [],
      "stateMutability": "nonpayable",
      "type": "function"
    },
    {
      "inputs": [
        {
          "internalType": "bool",
          "name": "_isEpochEndBlock",
          "type": "bool"
        }
      ],
      "name": "reward",
      "outputs": [
        {
          "internalType": "uint256",
          "name": "rewardsNative",
          "type": "uint256"
        }
      ],
      "stateMutability": "nonpayable",
      "type": "function"
    },
    {
      "inputs": [],
      "name": "sendCoins",
      "outputs": [],
      "stateMutability": "payable",
      "type": "function"
    },
    {
      "inputs": [
        {
          "internalType": "string",
          "name": "setter",
          "type": "string"
        },
        {
          "internalType": "string",
          "name": "getter",
          "type": "string"
        },
        {
          "internalType": "uint256[]",
          "name": "params",
          "type": "uint256[]"
        }
      ],
      "name": "setAllowedChangeableParameter",
      "outputs": [],
      "stateMutability": "nonpayable",
      "type": "function"
    },
    {
      "inputs": [
        {
          "internalType": "address",
          "name": "_connectivityTracker",
          "type": "address"
        }
      ],
      "name": "setConnectivityTracker",
      "outputs": [],
      "stateMutability": "nonpayable",
      "type": "function"
    },
    {
      "inputs": [
        {
          "internalType": "address",
          "name": "_address",
          "type": "address"
        }
      ],
      "name": "setGovernanceAddress",
      "outputs": [],
      "stateMutability": "nonpayable",
      "type": "function"
    },
    {
      "inputs": [
        {
          "internalType": "uint256",
          "name": "_shareNominator",
          "type": "uint256"
        }
      ],
      "name": "setGovernancePotShareNominator",
      "outputs": [],
      "stateMutability": "nonpayable",
      "type": "function"
    },
    {
      "inputs": [
        {
          "internalType": "uint256",
          "name": "_value",
          "type": "uint256"
        }
      ],
      "name": "setReinsertPotPayoutFraction",
      "outputs": [],
      "stateMutability": "nonpayable",
      "type": "function"
    },
    {
      "inputs": [
        {
          "internalType": "uint256",
          "name": "_stakingEpoch",
          "type": "uint256"
        },
        {
          "internalType": "uint256",
          "name": "_percent",
          "type": "uint256"
        }
      ],
      "name": "setValidatorMinRewardPercent",
      "outputs": [],
      "stateMutability": "nonpayable",
      "type": "function"
    },
    {
      "inputs": [
        {
          "internalType": "uint256",
          "name": "_value",
          "type": "uint256"
        }
      ],
      "name": "setdeltaPotPayoutFraction",
      "outputs": [],
      "stateMutability": "nonpayable",
      "type": "function"
    },
    {
      "inputs": [
        {
          "internalType": "address",
          "name": "newOwner",
          "type": "address"
        }
      ],
      "name": "transferOwnership",
      "outputs": [],
      "stateMutability": "nonpayable",
      "type": "function"
    },
    {
      "inputs": [
        {
          "internalType": "uint256",
          "name": "",
          "type": "uint256"
        }
      ],
      "name": "validatorMinRewardPercent",
      "outputs": [
        {
          "internalType": "uint256",
          "name": "",
          "type": "uint256"
        }
      ],
      "stateMutability": "view",
      "type": "function"
    },
    {
      "inputs": [],
      "name": "validatorSetContract",
      "outputs": [
        {
          "internalType": "contract IValidatorSetHbbft",
          "name": "",
          "type": "address"
        }
      ],
      "stateMutability": "view",
      "type": "function"
    },
    {
      "stateMutability": "payable",
      "type": "receive"
    }
  ],
  "bytecode": "0x6080604052348015600f57600080fd5b506016601a565b60ca565b7ff0c57e16840df040f15088dc2f81fe391c3923bec73e23a9662efc9c229c6a00805468010000000000000000900460ff161560695760405163f92ee8a960e01b815260040160405180910390fd5b80546001600160401b039081161460c75780546001600160401b0319166001600160401b0390811782556040519081527fc7f505b2f371ae2175ee4913f4499e1f2633a7b5936321eed1cdaeb6115181d29060200160405180910390a15b50565b612e64806100d96000396000f3fe6080604052600436106102be5760003560e01c80639740f48d1161016e578063c6cc9333116100cb578063dd03f5b91161007f578063e58edc3811610064578063e58edc38146107fe578063f2fde38b14610815578063f302163d146103d057600080fd5b8063dd03f5b9146107b1578063dfc8bf4e146107de57600080fd5b8063cdf7a090116100b0578063cdf7a0901461071a578063cfc1625414610747578063d0899cb41461078457600080fd5b8063c6cc9333146106da578063cb68d127146106fa57600080fd5b8063af18253511610122578063b710c15d11610107578063b710c15d1461066d578063ba08d2371461069a578063c0c53b8b146106ba57600080fd5b8063af1825351461065d578063b10c75481461066557600080fd5b80639b9fb6d0116101535780639b9fb6d014610612578063a59546e214610632578063adc481a71461064757600080fd5b80639740f48d146105dc5780639a64ca2c146105fc57600080fd5b80635cbc1a6f1161021c57806373f12958116101d05780638da5cb5b116101b55780638da5cb5b1461054057806391b579861461057d578063922836341461059357600080fd5b806373f129581461050a57806378ff69d51461052057600080fd5b8063674a721411610201578063674a7214146104a6578063715018a6146104d757806373252494146104ec57600080fd5b80635cbc1a6f14610433578063669554691461048657600080fd5b806336e98ca811610273578063596208721161025857806359620872146103e85780635c57a801146103fd5780635cb092a21461041357600080fd5b806336e98ca8146103b05780633c2c943c146103d257600080fd5b80631274fa09116102a45780631274fa091461032a57806319cee8971461034057806333d699211461037857600080fd5b8062067a84146102e25780630c0d41731461031557600080fd5b366102dd5734600760008282546102d591906127ce565b925050819055005b600080fd5b3480156102ee57600080fd5b506103026102fd3660046127ef565b610835565b6040519081526020015b60405180910390f35b34801561032157600080fd5b50610302601e81565b34801561033657600080fd5b5061030260085481565b34801561034c57600080fd5b50600a54610360906001600160a01b031681565b6040516001600160a01b03909116815260200161030c565b34801561038457600080fd5b50610302610393366004612828565b600260209081526000928352604080842090915290825290205481565b3480156103bc57600080fd5b506103d06103cb366004612933565b610985565b005b3480156103de57600080fd5b50610302600c5481565b3480156103f457600080fd5b506103d0610a39565b34801561040957600080fd5b5061030260055481565b34801561041f57600080fd5b506103d061042e366004612933565b610a78565b34801561043f57600080fd5b5061045361044e366004612a16565b610a80565b60405161030c91908151815260208083015190820152604080830151908201526060918201519181019190915260800190565b34801561049257600080fd5b50600d54610360906001600160a01b031681565b3480156104b257600080fd5b50600d546104c790600160a01b900460ff1681565b604051901515815260200161030c565b3480156104e357600080fd5b506103d0610aba565b3480156104f857600080fd5b50600a546001600160a01b0316610360565b34801561051657600080fd5b5061030260075481565b34801561052c57600080fd5b506103d061053b366004612a2f565b610ace565b34801561054c57600080fd5b507f9016d09d72d40fdae2fd8ceac6b6234c7706214fd39c1cd1e609a0528c199300546001600160a01b0316610360565b34801561058957600080fd5b50610302600b5481565b34801561059f57600080fd5b506105c36105ae366004612a64565b60006020819052908152604090205460e01b81565b6040516001600160e01b0319909116815260200161030c565b3480156105e857600080fd5b506103d06105f7366004612a16565b610b52565b34801561060857600080fd5b5061030260065481565b34801561061e57600080fd5b506103d061062d366004612a7f565b610b9c565b34801561063e57600080fd5b50610302610c10565b34801561065357600080fd5b5061030260035481565b6103d0610e57565b6103d0610e70565b34801561067957600080fd5b5061068d610688366004612a7f565b610e82565b60405161030c9190612abc565b3480156106a657600080fd5b506104c76106b5366004612b1e565b610f2a565b3480156106c657600080fd5b506103d06106d5366004612b48565b6110f9565b3480156106e657600080fd5b506103d06106f5366004612a16565b611303565b34801561070657600080fd5b506103d0610715366004612a16565b61137a565b34801561072657600080fd5b50610302610735366004612a16565b60046020526000908152604090205481565b34801561075357600080fd5b506103d0610762366004612a2f565b600a80546001600160a01b0319166001600160a01b0392909216919091179055565b34801561079057600080fd5b506103d061079f366004612b93565b60009182526004602052604090912055565b3480156107bd57600080fd5b506107d16107cc366004612a2f565b6113f1565b60405161030c9190612bf1565b3480156107ea57600080fd5b50600954610360906001600160a01b031681565b34801561080a57600080fd5b50610302620f424081565b34801561082157600080fd5b506103d0610830366004612a2f565b61145d565b60003373fffffffffffffffffffffffffffffffffffffffe1461086a576040516282b42960e81b815260040160405180910390fd5b61087261149b565b6009546040805163239a373960e21b815290516000926001600160a01b031691638e68dce49160048083019260209291908290030181865afa1580156108bc573d6000803e3d6000fd5b505050506040513d601f19601f820116820180604052508101906108e09190612c04565b905082806108f75750600d54600160a01b900460ff165b1561094d57610905816114e5565b600d805460ff60a01b191690556040518181529092507ff32b9551d3414b67f8e66e20ac15e62694b9d1230abb2e2e48f9dc2e1964c4299060200160405180910390a1610956565b61095681611757565b5061098060017f9b779b17422d0df92223018b32b4d1fa46e071723d6817e2486d003becc55f0055565b919050565b61098d611c18565b60408051808201825283516020808601919091206001600160e01b031990811683528183018581528751888401209091166000908152808352939093208251815463ffffffff191660e09190911c178155925180519293926109f5926001850192019061273e565b509050507f3d45a310c5a076ea07aa2947ca3c06cc2a8b3571065867ad6f8e7096a2c9d50a838383604051610a2c93929190612c71565b60405180910390a1505050565b600d546001600160a01b03163314610a63576040516282b42960e81b815260040160405180910390fd5b600d805460ff60a01b1916600160a01b179055565b61098d611c73565b610aab6040518060800160405280600081526020016000815260200160008152602001600081525090565b610ab482611cc1565b92915050565b610ac2611c18565b610acc6000611e60565b565b610ad6611c18565b6001600160a01b038116610afd5760405163d92e233d60e01b815260040160405180910390fd5b600d80546001600160a01b0319166001600160a01b0383169081179091556040519081527f387d29e18823e432432b6098ebeee33beebdb128d2234c7f486c26447b738edd906020015b60405180910390a150565b610b5a611c18565b80610b716000356001600160e01b03191682610f2a565b610b96576040516373330d9b60e01b8152600481018290526024015b60405180910390fd5b50600b55565b610ba4611c18565b80516020808301919091206001600160e01b03191660009081529081905260408120805463ffffffff1916815590610bdf6001830182612789565b50507f92d44565a40fe29702ffa146ddaa3bb133d4077f5312d682d0a2632a9bc73a8a81604051610b479190612cb4565b600080600960009054906101000a90046001600160a01b03166001600160a01b0316638e68dce46040518163ffffffff1660e01b8152600401602060405180830381865afa158015610c66573d6000803e3d6000fd5b505050506040513d601f19601f82011682018060405250810190610c8a9190612c04565b90506000816001600160a01b0316639b03d7446040518163ffffffff1660e01b8152600401602060405180830381865afa158015610ccc573d6000803e3d6000fd5b505050506040513d601f19601f82011682018060405250810190610cf09190612cc7565b826001600160a01b03166322e3d9866040518163ffffffff1660e01b8152600401602060405180830381865afa158015610d2e573d6000803e3d6000fd5b505050506040513d601f19601f82011682018060405250810190610d529190612cc7565b610d5c9190612ce0565b9050816001600160a01b03166322e3d9866040518163ffffffff1660e01b8152600401602060405180830381865afa158015610d9c573d6000803e3d6000fd5b505050506040513d601f19601f82011682018060405250810190610dc09190612cc7565b4211610e4d5780826001600160a01b0316639b03d7446040518163ffffffff1660e01b8152600401602060405180830381865afa158015610e05573d6000803e3d6000fd5b505050506040513d601f19601f82011682018060405250810190610e299190612cc7565b610e339042612ce0565b610e3e906064612cf3565b610e489190612d0a565b610e50565b60645b9250505090565b3460076000828254610e6991906127ce565b9091555050565b3460056000828254610e6991906127ce565b60408051808201909152600081526060602082015281516020808401919091206001600160e01b0319908116600090815280835260409081902081518083018352815460e01b9093168352600181018054835181870281018701909452808452939491938583019392830182828015610f1a57602002820191906000526020600020905b815481526020019060010190808311610f06575b5050505050815250509050919050565b6001600160e01b031980831660009081526020818152604080832081518083018352815460e01b909516855260018101805483518186028101860190945280845294958695909492938584019390929190830182828015610faa57602002820191906000526020600020905b815481526020019060010190808311610f96575b5050505050815250509050806020015151600003610fcc576000915050610ab4565b60208101518151600090610fdf90611ed1565b905060005b82518110156110ec578183828151811061100057611000612d2c565b6020026020010151036110e4576000808211611036578360008151811061102957611029612d2c565b602002602001015161105b565b83611042600184612ce0565b8151811061105257611052612d2c565b60200260200101515b905060006001855161106d9190612ce0565b831061109f5784600186516110829190612ce0565b8151811061109257611092612d2c565b60200260200101516110c4565b846110ab8460016127ce565b815181106110bb576110bb612d2c565b60200260200101515b90508188141580156110d65750808814155b159650505050505050610ab4565b600101610fe4565b5060009695505050505050565b7ff0c57e16840df040f15088dc2f81fe391c3923bec73e23a9662efc9c229c6a00805468010000000000000000810460ff16159067ffffffffffffffff166000811580156111445750825b905060008267ffffffffffffffff1660011480156111615750303b155b90508115801561116f575080155b1561118d5760405163f92ee8a960e01b815260040160405180910390fd5b845467ffffffffffffffff1916600117855583156111c157845468ff00000000000000001916680100000000000000001785555b6001600160a01b03881615806111de57506001600160a01b038716155b806111f057506001600160a01b038616155b1561120e5760405163d92e233d60e01b815260040160405180910390fd5b61121788611fa8565b61121f611fb9565b600980546001600160a01b03808a166001600160a01b031992831617909255600d805492891692821692909217909155600080526004602052601e7f17ef568e3e12ab5b9c7254a8d58478811de00f9e6eb34345acd53bf8fd09d3ec556117706006819055600855600a805490911673da0da0da0da0da0da0da00da0da0da0da0da0da01781556001600b55600c5583156112f957845468ff000000000000000019168555604051600181527fc7f505b2f371ae2175ee4913f4499e1f2633a7b5936321eed1cdaeb6115181d29060200160405180910390a15b5050505050505050565b61130b611c18565b80600003611345576040517fffcfec8400000000000000000000000000000000000000000000000000000000815260040160405180910390fd5b60088190556040518181527fb914176cecdd5906f3fd1eb6fcf471c39b33cdc7142a1d8c494487c31ff40f8890602001610b47565b611382611c18565b806000036113bc576040517fffcfec8400000000000000000000000000000000000000000000000000000000815260040160405180910390fd5b60068190556040518181527f8ce02935a391d407d8b483203a4f3cd8465b62a45c7274471113a192f111eda090602001610b47565b6001600160a01b03811660009081526001602090815260409182902080548351818402810184019094528084526060939283018282801561145157602002820191906000526020600020905b81548152602001906001019080831161143d575b50505050509050919050565b611465611c18565b6001600160a01b03811661148f57604051631e4fbdf760e01b815260006004820152602401610b8d565b61149881611e60565b50565b7f9b779b17422d0df92223018b32b4d1fa46e071723d6817e2486d003becc55f008054600119016114df57604051633ee5aeb560e01b815260040160405180910390fd5b60029055565b600080826001600160a01b031663794c0c686040518163ffffffff1660e01b8152600401602060405180830381865afa158015611526573d6000803e3d6000fd5b505050506040513d601f19601f8201168201806040525081019061154a9190612cc7565b600d5460405163245f8d5360e11b8152600481018390529192506001600160a01b0316906348bf1aa690602401600060405180830381600087803b15801561159157600080fd5b505af11580156115a5573d6000803e3d6000fd5b505050506000816000146115c0576115bd8285611fc9565b90505b60006115cd8360016127ce565b90506060600960009054906101000a90046001600160a01b03166001600160a01b031663eebc7a396040518163ffffffff1660e01b8152600401600060405180830381865afa158015611624573d6000803e3d6000fd5b505050506040513d6000823e601f3d908101601f1916820160405261164c9190810190612d42565b90506116598683836122f9565b600960009054906101000a90046001600160a01b03166001600160a01b031663b7ab4db56040518163ffffffff1660e01b8152600401600060405180830381865afa1580156116ac573d6000803e3d6000fd5b505050506040513d6000823e601f3d908101601f191682016040526116d49190810190612d42565b90506116e18683836122f9565b6000828152600460208190526040808320601e90556009548151637528621160e01b815291516001600160a01b03909116936375286211938381019391929182900301818387803b15801561173557600080fd5b505af1158015611749573d6000803e3d6000fd5b509498975050505050505050565b6000816001600160a01b031663c6912cc06040518163ffffffff1660e01b8152600401602060405180830381865afa158015611797573d6000803e3d6000fd5b505050506040513d601f19601f820116820180604052508101906117bb9190612cc7565b90506000600960009054906101000a90046001600160a01b03166001600160a01b031663b7ab4db56040518163ffffffff1660e01b8152600401600060405180830381865afa158015611812573d6000803e3d6000fd5b505050506040513d6000823e601f3d908101601f1916820160405261183a9190810190612d42565b60095460408051630456292b60e11b8152905192935042851115926000926001600160a01b0316916308ac52569160048083019260209291908290030181865afa15801561188c573d6000803e3d6000fd5b505050506040513d601f19601f820116820180604052508101906118b09190612cc7565b6118bb906002612cf3565b83516118c8906003612cf3565b116119c0576000856001600160a01b031663a5d54f656040518163ffffffff1660e01b8152600401600060405180830381865afa15801561190d573d6000803e3d6000fd5b505050506040513d6000823e601f3d908101601f191682016040526119359190810190612d42565b5190506000811180156119b45750835160095460405163efd0494760e01b8152600481018490526001600160a01b039091169063efd0494790602401602060405180830381865afa15801561198e573d6000803e3d6000fd5b505050506040513d601f19601f820116820180604052508101906119b29190612cc7565b115b156119be57600191505b505b81806119c95750805b8015611a4e5750600960009054906101000a90046001600160a01b03166001600160a01b031663eebc7a396040518163ffffffff1660e01b8152600401600060405180830381865afa158015611a23573d6000803e3d6000fd5b505050506040513d6000823e601f3d908101601f19168201604052611a4b9190810190612d42565b51155b15611ac057600960009054906101000a90046001600160a01b03166001600160a01b0316635ccee1de6040518163ffffffff1660e01b8152600401600060405180830381600087803b158015611aa357600080fd5b505af1158015611ab7573d6000803e3d6000fd5b50505050611b91565b846001600160a01b03166322e3d9866040518163ffffffff1660e01b8152600401602060405180830381865afa158015611afe573d6000803e3d6000fd5b505050506040513d601f19601f82011682018060405250810190611b229190612cc7565b4210611b9157600960009054906101000a90046001600160a01b03166001600160a01b031663ade1900a6040518163ffffffff1660e01b8152600401600060405180830381600087803b158015611b7857600080fd5b505af1158015611b8c573d6000803e3d6000fd5b505050505b600a546040805163ab0eb62d60e01b815290516001600160a01b0390921691829163ab0eb62d91600480830192600092919082900301818387803b158015611bd857600080fd5b505af1925050508015611be9575060015b50505050505050565b60017f9b779b17422d0df92223018b32b4d1fa46e071723d6817e2486d003becc55f0055565b33611c4a7f9016d09d72d40fdae2fd8ceac6b6234c7706214fd39c1cd1e609a0528c199300546001600160a01b031690565b6001600160a01b031614610acc5760405163118cdaa760e01b8152336004820152602401610b8d565b7ff0c57e16840df040f15088dc2f81fe391c3923bec73e23a9662efc9c229c6a005468010000000000000000900460ff16610acc57604051631afcd79f60e31b815260040160405180910390fd5b611cec6040518060800160405280600081526020016000815260200160008152602001600081525090565b60095460408051630456292b60e11b815290516000926001600160a01b0316916308ac52569160048083019260209291908290030181865afa158015611d36573d6000803e3d6000fd5b505050506040513d601f19601f82011682018060405250810190611d5a9190612cc7565b90506000611d66610c10565b905060006040518060800160405280600081526020016000815260200160008152602001600081525090506064836006548488600554611da69190612cf3565b611db09190612cf3565b611dba9190612d0a565b611dc49190612d0a565b611dce9190612d0a565b815260085460075460649185918590611de8908a90612cf3565b611df29190612cf3565b611dfc9190612d0a565b611e069190612d0a565b611e109190612d0a565b602082018190528151600354611e2691906127ce565b611e3091906127ce565b60608201819052600c54600b549091611e499190612cf3565b611e539190612d0a565b6040820152949350505050565b7f9016d09d72d40fdae2fd8ceac6b6234c7706214fd39c1cd1e609a0528c19930080546001600160a01b031981166001600160a01b03848116918217845560405192169182907f8be0079c531659141344cd1fd0a4f28419497f9722a3daafe3b4186f6b6457e090600090a3505050565b60408051600481526024810182526020810180517bffffffffffffffffffffffffffffffffffffffffffffffffffffffff166001600160e01b03198516179052905160009190829081903090611f28908590612ddc565b600060405180830381855afa9150503d8060008114611f63576040519150601f19603f3d011682016040523d82523d6000602084013e611f68565b606091505b509150915081611f8b57604051635fbab09b60e11b815260040160405180910390fd5b80806020019051810190611f9f9190612cc7565b95945050505050565b611fb0611c73565b6114988161241b565b611fc1611c73565b610acc612423565b600080600960009054906101000a90046001600160a01b03166001600160a01b031663b7ab4db56040518163ffffffff1660e01b8152600401600060405180830381865afa15801561201f573d6000803e3d6000fd5b505050506040513d6000823e601f3d908101601f191682016040526120479190810190612d42565b8051909150600081900361206e576040516322b8b72360e21b815260040160405180910390fd5b600061207982611cc1565b90508060000151600560008282546120919190612ce0565b90915550506020810151600780546000906120ad908490612ce0565b909155505060608101516000036120ca5760009350505050610ab4565b600a5460408201516120e5916001600160a01b03169061242b565b604081015160608201516000906120fd908390612ce0565b905060008061210d898b896124d7565b9150915081600003612129576000975050505050505050610ab4565b60006121358385612d0a565b60008c81526004602052604090205490915081156122d65760005b888110156122d45783818151811061216a5761216a612d2c565b6020026020010151156122cc5760008a828151811061218b5761218b612d2c565b60209081029190910101516009546040516307b9342f60e21b81526001600160a01b03808416600483015292935060009290911690631ee4d0bc90602401602060405180830381865afa1580156121e6573d6000803e3d6000fd5b505050506040513d601f19601f8201168201806040525081019061220a9190612c04565b90506122578f83876001600160a01b039091166000818152600160208181526040808420805493840181558452818420909201869055948252600285528082209282529190935290912055565b604051633f3afe0160e01b81526001600160a01b038281166004830152602482018690528f1690633f3afe019087906044016000604051808303818588803b1580156122a257600080fd5b505af11580156122b6573d6000803e3d6000fd5b505050505084896122c791906127ce565b985050505b600101612150565b505b8587606001516122e69190612ce0565b60035550939a9950505050505050505050565b60005b81518110156124155760095482516000916001600160a01b031690631ee4d0bc9085908590811061232f5761232f612d2c565b60200260200101516040518263ffffffff1660e01b815260040161236291906001600160a01b0391909116815260200190565b602060405180830381865afa15801561237f573d6000803e3d6000fd5b505050506040513d601f19601f820116820180604052508101906123a39190612c04565b6040516368563b7b60e11b8152600481018690526001600160a01b0380831660248301529192509086169063d0ac76f690604401600060405180830381600087803b1580156123f157600080fd5b505af1158015612405573d6000803e3d6000fd5b50505050508060010190506122fc565b50505050565b611465611c73565b611bf2611c73565b8047101561244c57604051631e9acf1760e31b815260040160405180910390fd5b6000826001600160a01b03168260405160006040518083038185875af1925050503d8060008114612499576040519150601f19603f3d011682016040523d82523d6000602084013e61249e565b606091505b50509050806124d257604051630e21dcbb60e11b81526001600160a01b038416600482015260248101839052604401610b8d565b505050565b600060606000835167ffffffffffffffff8111156124f7576124f7612858565b604051908082528060200260200182016040528015612520578160200160208202803683370190505b5090506000805b85518110156127325760095486516001600160a01b039091169063a92252ae9088908490811061255957612559612d2c565b60200260200101516040518263ffffffff1660e01b815260040161258c91906001600160a01b0391909116815260200190565b602060405180830381865afa1580156125a9573d6000803e3d6000fd5b505050506040513d601f19601f820116820180604052508101906125cd9190612df8565b61272a5760095486516000916001600160a01b03808c1692635b4eafe0928c921690631ee4d0bc908c908890811061260757612607612d2c565b60200260200101516040518263ffffffff1660e01b815260040161263a91906001600160a01b0391909116815260200190565b602060405180830381865afa158015612657573d6000803e3d6000fd5b505050506040513d601f19601f8201168201806040525081019061267b9190612c04565b6040516001600160e01b031960e085901b16815260048101929092526001600160a01b03166024820152604401602060405180830381865afa1580156126c5573d6000803e3d6000fd5b505050506040513d601f19601f820116820180604052508101906126e99190612cc7565b9050806000036126f9575061272a565b600184838151811061270d5761270d612d2c565b9115156020928302919091019091015261272683612e15565b9250505b600101612527565b50969095509350505050565b828054828255906000526020600020908101928215612779579160200282015b8281111561277957825182559160200191906001019061275e565b506127859291506127a3565b5090565b508054600082559060005260206000209081019061149891905b5b8082111561278557600081556001016127a4565b634e487b7160e01b600052601160045260246000fd5b80820180821115610ab457610ab46127b8565b801515811461149857600080fd5b60006020828403121561280157600080fd5b813561280c816127e1565b9392505050565b6001600160a01b038116811461149857600080fd5b6000806040838503121561283b57600080fd5b82359150602083013561284d81612813565b809150509250929050565b634e487b7160e01b600052604160045260246000fd5b604051601f8201601f1916810167ffffffffffffffff8111828210171561289757612897612858565b604052919050565b600082601f8301126128b057600080fd5b813567ffffffffffffffff8111156128ca576128ca612858565b6128dd601f8201601f191660200161286e565b8181528460208386010111156128f257600080fd5b816020850160208301376000918101602001919091529392505050565b600067ffffffffffffffff82111561292957612929612858565b5060051b60200190565b60008060006060848603121561294857600080fd5b833567ffffffffffffffff8082111561296057600080fd5b61296c8783880161289f565b945060209150818601358181111561298357600080fd5b61298f8882890161289f565b9450506040860135818111156129a457600080fd5b86019050601f810187136129b757600080fd5b80356129ca6129c58261290f565b61286e565b81815260059190911b820183019083810190898311156129e957600080fd5b928401925b82841015612a07578335825292840192908401906129ee565b80955050505050509250925092565b600060208284031215612a2857600080fd5b5035919050565b600060208284031215612a4157600080fd5b813561280c81612813565b80356001600160e01b03198116811461098057600080fd5b600060208284031215612a7657600080fd5b61280c82612a4c565b600060208284031215612a9157600080fd5b813567ffffffffffffffff811115612aa857600080fd5b612ab48482850161289f565b949350505050565b602080825282516001600160e01b031916828201528281015160408084015280516060840181905260009291820190839060808601905b80831015612b135783518252928401926001929092019190840190612af3565b509695505050505050565b60008060408385031215612b3157600080fd5b612b3a83612a4c565b946020939093013593505050565b600080600060608486031215612b5d57600080fd5b8335612b6881612813565b92506020840135612b7881612813565b91506040840135612b8881612813565b809150509250925092565b60008060408385031215612ba657600080fd5b50508035926020909101359150565b60008151808452602080850194506020840160005b83811015612be657815187529582019590820190600101612bca565b509495945050505050565b60208152600061280c6020830184612bb5565b600060208284031215612c1657600080fd5b815161280c81612813565b60005b83811015612c3c578181015183820152602001612c24565b50506000910152565b60008151808452612c5d816020860160208601612c21565b601f01601f19169290920160200192915050565b606081526000612c846060830186612c45565b8281036020840152612c968186612c45565b90508281036040840152612caa8185612bb5565b9695505050505050565b60208152600061280c6020830184612c45565b600060208284031215612cd957600080fd5b5051919050565b81810381811115610ab457610ab46127b8565b8082028115828204841417610ab457610ab46127b8565b600082612d2757634e487b7160e01b600052601260045260246000fd5b500490565b634e487b7160e01b600052603260045260246000fd5b60006020808385031215612d5557600080fd5b825167ffffffffffffffff811115612d6c57600080fd5b8301601f81018513612d7d57600080fd5b8051612d8b6129c58261290f565b81815260059190911b82018301908381019087831115612daa57600080fd5b928401925b82841015612dd1578351612dc281612813565b82529284019290840190612daf565b979650505050505050565b60008251612dee818460208701612c21565b9190910192915050565b600060208284031215612e0a57600080fd5b815161280c816127e1565b600060018201612e2757612e276127b8565b506001019056fea26469706673582212204438a962f3f52a0e3d1aaff3d911dfdfac2fb090c4c1d4f5fd5a4bc420bf338164736f6c63430008190033",
  "linkReferences": {},
  "deployedLinkReferences": {}
}