{
  "_format": "hh-sol-artifact-1",
  "contractName": "BlockRewardHbbft",
  "sourceName": "contracts/BlockRewardHbbft.sol",
  "abi": [
    {
      "inputs": [],
      "stateMutability": "nonpayable",
      "type": "constructor"
    },
    {
      "inputs": [],
      "name": "GetterCallFailed",
      "type": "error"
    },
    {
      "inputs": [],
      "name": "InsufficientBalance",
      "type": "error"
    },
    {
      "inputs": [],
      "name": "InvalidInitialization",
      "type": "error"
    },
    {
      "inputs": [
        {
          "internalType": "uint256",
          "name": "_newVal",
          "type": "uint256"
        }
      ],
      "name": "NewValueOutOfRange",
      "type": "error"
    },
    {
      "inputs": [],
      "name": "NotInitializing",
      "type": "error"
    },
    {
      "inputs": [
        {
          "internalType": "address",
          "name": "owner",
          "type": "address"
        }
      ],
      "name": "OwnableInvalidOwner",
      "type": "error"
    },
    {
      "inputs": [
        {
          "internalType": "address",
          "name": "account",
          "type": "address"
        }
      ],
      "name": "OwnableUnauthorizedAccount",
      "type": "error"
    },
    {
      "inputs": [],
      "name": "ReentrancyGuardReentrantCall",
      "type": "error"
    },
    {
      "inputs": [
        {
          "internalType": "address",
          "name": "recipient",
          "type": "address"
        },
        {
          "internalType": "uint256",
          "name": "amount",
          "type": "uint256"
        }
      ],
      "name": "TransferFailed",
      "type": "error"
    },
    {
      "inputs": [],
      "name": "Unauthorized",
      "type": "error"
    },
    {
      "inputs": [],
      "name": "ValidatorsListEmpty",
      "type": "error"
    },
    {
      "inputs": [],
      "name": "ZeroAddress",
      "type": "error"
    },
    {
      "inputs": [],
      "name": "ZeroPayoutFraction",
      "type": "error"
    },
    {
      "anonymous": false,
      "inputs": [
        {
          "indexed": false,
          "internalType": "uint256",
          "name": "rewards",
          "type": "uint256"
        }
      ],
      "name": "CoinsRewarded",
      "type": "event"
    },
    {
      "anonymous": false,
      "inputs": [
        {
          "indexed": false,
          "internalType": "uint64",
          "name": "version",
          "type": "uint64"
        }
      ],
      "name": "Initialized",
      "type": "event"
    },
    {
      "anonymous": false,
      "inputs": [
        {
          "indexed": true,
          "internalType": "address",
          "name": "previousOwner",
          "type": "address"
        },
        {
          "indexed": true,
          "internalType": "address",
          "name": "newOwner",
          "type": "address"
        }
      ],
      "name": "OwnershipTransferred",
      "type": "event"
    },
    {
      "anonymous": false,
      "inputs": [
        {
          "indexed": false,
          "internalType": "string",
          "name": "funcSelector",
          "type": "string"
        }
      ],
      "name": "RemoveChangeAbleParameter",
      "type": "event"
    },
    {
      "anonymous": false,
      "inputs": [
        {
          "indexed": false,
          "internalType": "string",
          "name": "setter",
          "type": "string"
        },
        {
          "indexed": false,
          "internalType": "string",
          "name": "getter",
          "type": "string"
        },
        {
          "indexed": false,
          "internalType": "uint256[]",
          "name": "params",
          "type": "uint256[]"
        }
      ],
      "name": "SetChangeAbleParameter",
      "type": "event"
    },
    {
      "anonymous": false,
      "inputs": [
        {
          "indexed": false,
          "internalType": "address",
          "name": "_connectivityTracker",
          "type": "address"
        }
      ],
      "name": "SetConnectivityTracker",
      "type": "event"
    },
    {
      "anonymous": false,
      "inputs": [
        {
          "indexed": false,
          "internalType": "uint256",
          "name": "_fraction",
          "type": "uint256"
        }
      ],
      "name": "SetDeltaPotPayoutFraction",
      "type": "event"
    },
    {
      "anonymous": false,
      "inputs": [
        {
          "indexed": false,
          "internalType": "uint256",
          "name": "_fraction",
          "type": "uint256"
        }
      ],
      "name": "SetReinsertPotPayoutFraction",
      "type": "event"
    },
    {
      "inputs": [],
      "name": "REWARD_PERCENT_MULTIPLIER",
      "outputs": [
        {
          "internalType": "uint256",
          "name": "",
          "type": "uint256"
        }
      ],
      "stateMutability": "view",
      "type": "function"
    },
    {
      "inputs": [],
      "name": "VALIDATOR_MIN_REWARD_PERCENT",
      "outputs": [
        {
          "internalType": "uint256",
          "name": "",
          "type": "uint256"
        }
      ],
      "stateMutability": "view",
      "type": "function"
    },
    {
      "inputs": [],
      "name": "addToDeltaPot",
      "outputs": [],
      "stateMutability": "payable",
      "type": "function"
    },
    {
      "inputs": [],
      "name": "addToReinsertPot",
      "outputs": [],
      "stateMutability": "payable",
      "type": "function"
    },
    {
      "inputs": [
        {
          "internalType": "bytes4",
          "name": "",
          "type": "bytes4"
        }
      ],
      "name": "allowedParameterRange",
      "outputs": [
        {
          "internalType": "bytes4",
          "name": "getter",
          "type": "bytes4"
        }
      ],
      "stateMutability": "view",
      "type": "function"
    },
    {
      "inputs": [],
      "name": "connectivityTracker",
      "outputs": [
        {
          "internalType": "address",
          "name": "",
          "type": "address"
        }
      ],
      "stateMutability": "view",
      "type": "function"
    },
    {
      "inputs": [],
      "name": "deltaPot",
      "outputs": [
        {
          "internalType": "uint256",
          "name": "",
          "type": "uint256"
        }
      ],
      "stateMutability": "view",
      "type": "function"
    },
    {
      "inputs": [],
      "name": "deltaPotPayoutFraction",
      "outputs": [
        {
          "internalType": "uint256",
          "name": "",
          "type": "uint256"
        }
      ],
      "stateMutability": "view",
      "type": "function"
    },
    {
      "inputs": [],
      "name": "earlyEpochEnd",
      "outputs": [
        {
          "internalType": "bool",
          "name": "",
          "type": "bool"
        }
      ],
      "stateMutability": "view",
      "type": "function"
    },
    {
      "inputs": [],
      "name": "epochPercentage",
      "outputs": [
        {
          "internalType": "uint256",
          "name": "",
          "type": "uint256"
        }
      ],
      "stateMutability": "view",
      "type": "function"
    },
    {
      "inputs": [
        {
          "internalType": "uint256",
          "name": "",
          "type": "uint256"
        },
        {
          "internalType": "address",
          "name": "",
          "type": "address"
        }
      ],
      "name": "epochPoolNativeReward",
      "outputs": [
        {
          "internalType": "uint256",
          "name": "",
          "type": "uint256"
        }
      ],
      "stateMutability": "view",
      "type": "function"
    },
    {
      "inputs": [
        {
          "internalType": "address",
          "name": "_miningAddress",
          "type": "address"
        }
      ],
      "name": "epochsPoolGotRewardFor",
      "outputs": [
        {
          "internalType": "uint256[]",
          "name": "",
          "type": "uint256[]"
        }
      ],
      "stateMutability": "view",
      "type": "function"
    },
    {
      "inputs": [
        {
          "internalType": "string",
          "name": "_selector",
          "type": "string"
        }
      ],
      "name": "getAllowedParamsRange",
      "outputs": [
        {
          "components": [
            {
              "internalType": "bytes4",
              "name": "getter",
              "type": "bytes4"
            },
            {
              "internalType": "uint256[]",
              "name": "range",
              "type": "uint256[]"
            }
          ],
          "internalType": "struct ValueGuards.ParameterRange",
          "name": "",
          "type": "tuple"
        }
      ],
      "stateMutability": "view",
      "type": "function"
    },
    {
      "inputs": [],
      "name": "getGovernanceAddress",
      "outputs": [
        {
          "internalType": "address",
          "name": "",
          "type": "address"
        }
      ],
      "stateMutability": "view",
      "type": "function"
    },
    {
      "inputs": [],
      "name": "governancePotAddress",
      "outputs": [
        {
          "internalType": "address payable",
          "name": "",
          "type": "address"
        }
      ],
      "stateMutability": "view",
      "type": "function"
    },
    {
      "inputs": [],
      "name": "governancePotShareDenominator",
      "outputs": [
        {
          "internalType": "uint256",
          "name": "",
          "type": "uint256"
        }
      ],
      "stateMutability": "view",
      "type": "function"
    },
    {
      "inputs": [],
      "name": "governancePotShareNominator",
      "outputs": [
        {
          "internalType": "uint256",
          "name": "",
          "type": "uint256"
        }
      ],
      "stateMutability": "view",
      "type": "function"
    },
    {
      "inputs": [
        {
          "internalType": "string",
          "name": "setter",
          "type": "string"
        },
        {
          "internalType": "string",
          "name": "getter",
          "type": "string"
        },
        {
          "internalType": "uint256[]",
          "name": "params",
          "type": "uint256[]"
        }
      ],
      "name": "initAllowedChangeableParameter",
      "outputs": [],
      "stateMutability": "nonpayable",
      "type": "function"
    },
    {
      "inputs": [
        {
          "internalType": "address",
          "name": "_contractOwner",
          "type": "address"
        },
        {
          "internalType": "address",
          "name": "_validatorSet",
          "type": "address"
        },
        {
          "internalType": "address",
          "name": "_connectivityTracker",
          "type": "address"
        }
      ],
      "name": "initialize",
      "outputs": [],
      "stateMutability": "nonpayable",
      "type": "function"
    },
    {
      "inputs": [
        {
          "internalType": "bytes4",
          "name": "funcSelector",
          "type": "bytes4"
        },
        {
          "internalType": "uint256",
          "name": "newVal",
          "type": "uint256"
        }
      ],
      "name": "isWithinAllowedRange",
      "outputs": [
        {
          "internalType": "bool",
          "name": "",
          "type": "bool"
        }
      ],
      "stateMutability": "view",
      "type": "function"
    },
    {
      "inputs": [],
      "name": "nativeRewardUndistributed",
      "outputs": [
        {
          "internalType": "uint256",
          "name": "",
          "type": "uint256"
        }
      ],
      "stateMutability": "view",
      "type": "function"
    },
    {
      "inputs": [],
      "name": "notifyEarlyEpochEnd",
      "outputs": [],
      "stateMutability": "nonpayable",
      "type": "function"
    },
    {
      "inputs": [],
      "name": "owner",
      "outputs": [
        {
          "internalType": "address",
          "name": "",
          "type": "address"
        }
      ],
      "stateMutability": "view",
      "type": "function"
    },
    {
      "inputs": [],
      "name": "reinsertPot",
      "outputs": [
        {
          "internalType": "uint256",
          "name": "",
          "type": "uint256"
        }
      ],
      "stateMutability": "view",
      "type": "function"
    },
    {
      "inputs": [],
      "name": "reinsertPotPayoutFraction",
      "outputs": [
        {
          "internalType": "uint256",
          "name": "",
          "type": "uint256"
        }
      ],
      "stateMutability": "view",
      "type": "function"
    },
    {
      "inputs": [
        {
          "internalType": "string",
          "name": "funcSelector",
          "type": "string"
        }
      ],
      "name": "removeAllowedChangeableParameter",
      "outputs": [],
      "stateMutability": "nonpayable",
      "type": "function"
    },
    {
      "inputs": [],
      "name": "renounceOwnership",
      "outputs": [],
      "stateMutability": "nonpayable",
      "type": "function"
    },
    {
      "inputs": [
        {
          "internalType": "bool",
          "name": "_isEpochEndBlock",
          "type": "bool"
        }
      ],
      "name": "reward",
      "outputs": [
        {
          "internalType": "uint256",
          "name": "rewardsNative",
          "type": "uint256"
        }
      ],
      "stateMutability": "nonpayable",
      "type": "function"
    },
    {
      "inputs": [
        {
          "internalType": "string",
          "name": "setter",
          "type": "string"
        },
        {
          "internalType": "string",
          "name": "getter",
          "type": "string"
        },
        {
          "internalType": "uint256[]",
          "name": "params",
          "type": "uint256[]"
        }
      ],
      "name": "setAllowedChangeableParameter",
      "outputs": [],
      "stateMutability": "nonpayable",
      "type": "function"
    },
    {
      "inputs": [
        {
          "internalType": "address",
          "name": "_connectivityTracker",
          "type": "address"
        }
      ],
      "name": "setConnectivityTracker",
      "outputs": [],
      "stateMutability": "nonpayable",
      "type": "function"
    },
    {
      "inputs": [
        {
          "internalType": "uint256",
          "name": "_shareNominator",
          "type": "uint256"
        }
      ],
      "name": "setGovernancePotShareNominator",
      "outputs": [],
      "stateMutability": "nonpayable",
      "type": "function"
    },
    {
      "inputs": [
        {
          "internalType": "uint256",
          "name": "_value",
          "type": "uint256"
        }
      ],
      "name": "setReinsertPotPayoutFraction",
      "outputs": [],
      "stateMutability": "nonpayable",
      "type": "function"
    },
    {
      "inputs": [
        {
          "internalType": "uint256",
          "name": "_value",
          "type": "uint256"
        }
      ],
      "name": "setdeltaPotPayoutFraction",
      "outputs": [],
      "stateMutability": "nonpayable",
      "type": "function"
    },
    {
      "inputs": [
        {
          "internalType": "address",
          "name": "newOwner",
          "type": "address"
        }
      ],
      "name": "transferOwnership",
      "outputs": [],
      "stateMutability": "nonpayable",
      "type": "function"
    },
    {
      "inputs": [
        {
          "internalType": "uint256",
          "name": "",
          "type": "uint256"
        }
      ],
      "name": "validatorMinRewardPercent",
      "outputs": [
        {
          "internalType": "uint256",
          "name": "",
          "type": "uint256"
        }
      ],
      "stateMutability": "view",
      "type": "function"
    },
    {
      "inputs": [],
      "name": "validatorSetContract",
      "outputs": [
        {
          "internalType": "contract IValidatorSetHbbft",
          "name": "",
          "type": "address"
        }
      ],
      "stateMutability": "view",
      "type": "function"
    },
    {
      "stateMutability": "payable",
      "type": "receive"
    }
  ],
  "bytecode": "0x6080604052348015600f57600080fd5b506016601a565b60ca565b7ff0c57e16840df040f15088dc2f81fe391c3923bec73e23a9662efc9c229c6a00805468010000000000000000900460ff161560695760405163f92ee8a960e01b815260040160405180910390fd5b80546001600160401b039081161460c75780546001600160401b0319166001600160401b0390811782556040519081527fc7f505b2f371ae2175ee4913f4499e1f2633a7b5936321eed1cdaeb6115181d29060200160405180910390a15b50565b612c4f806100d96000396000f3fe6080604052600436106102525760003560e01c80639228363411610138578063ba08d237116100b0578063cdf7a0901161007f578063dfc8bf4e11610064578063dfc8bf4e146106b5578063e58edc38146106d5578063f2fde38b146106ec57600080fd5b8063cdf7a0901461065b578063dd03f5b91461068857600080fd5b8063ba08d237146105db578063c0c53b8b146105fb578063c6cc93331461061b578063cb68d1271461063b57600080fd5b8063a59546e211610107578063af182535116100ec578063af1825351461059e578063b10c7548146105a6578063b710c15d146105ae57600080fd5b8063a59546e214610573578063adc481a71461058857600080fd5b806392283634146104d45780639740f48d1461051d5780639a64ca2c1461053d5780639b9fb6d01461055357600080fd5b80635cb092a2116101cb578063732524941161019a57806378ff69d51161017f57806378ff69d5146104615780638da5cb5b1461048157806391b57986146104be57600080fd5b8063732524941461042d57806373f129581461044b57600080fd5b80635cb092a2146103a757806366955469146103c7578063674a7214146103e7578063715018a61461041857600080fd5b806333d69921116102225780633c2c943c116102075780633c2c943c14610366578063596208721461037c5780635c57a8011461039157600080fd5b806333d699211461030c57806336e98ca81461034457600080fd5b8062067a84146102765780630c0d4173146102a95780631274fa09146102be57806319cee897146102d457600080fd5b3661027157346007600082825461026991906125db565b925050819055005b600080fd5b34801561028257600080fd5b506102966102913660046125fc565b61070c565b6040519081526020015b60405180910390f35b3480156102b557600080fd5b50610296601e81565b3480156102ca57600080fd5b5061029660085481565b3480156102e057600080fd5b50600a546102f4906001600160a01b031681565b6040516001600160a01b0390911681526020016102a0565b34801561031857600080fd5b50610296610327366004612635565b600260209081526000928352604080842090915290825290205481565b34801561035057600080fd5b5061036461035f366004612740565b61085c565b005b34801561037257600080fd5b50610296600c5481565b34801561038857600080fd5b50610364610910565b34801561039d57600080fd5b5061029660055481565b3480156103b357600080fd5b506103646103c2366004612740565b61094f565b3480156103d357600080fd5b50600d546102f4906001600160a01b031681565b3480156103f357600080fd5b50600d5461040890600160a01b900460ff1681565b60405190151581526020016102a0565b34801561042457600080fd5b50610364610957565b34801561043957600080fd5b50600a546001600160a01b03166102f4565b34801561045757600080fd5b5061029660075481565b34801561046d57600080fd5b5061036461047c366004612823565b61096b565b34801561048d57600080fd5b507f9016d09d72d40fdae2fd8ceac6b6234c7706214fd39c1cd1e609a0528c199300546001600160a01b03166102f4565b3480156104ca57600080fd5b50610296600b5481565b3480156104e057600080fd5b506105046104ef366004612858565b60006020819052908152604090205460e01b81565b6040516001600160e01b031990911681526020016102a0565b34801561052957600080fd5b50610364610538366004612873565b6109fc565b34801561054957600080fd5b5061029660065481565b34801561055f57600080fd5b5061036461056e36600461288c565b610a46565b34801561057f57600080fd5b50610296610aba565b34801561059457600080fd5b5061029660035481565b610364610d01565b610364610d1a565b3480156105ba57600080fd5b506105ce6105c936600461288c565b610d2c565b6040516102a091906128c9565b3480156105e757600080fd5b506104086105f636600461292b565b610dd4565b34801561060757600080fd5b50610364610616366004612955565b610fa5565b34801561062757600080fd5b50610364610636366004612873565b6111bc565b34801561064757600080fd5b50610364610656366004612873565b611233565b34801561066757600080fd5b50610296610676366004612873565b60046020526000908152604090205481565b34801561069457600080fd5b506106a86106a3366004612823565b6112aa565b6040516102a091906129dc565b3480156106c157600080fd5b506009546102f4906001600160a01b031681565b3480156106e157600080fd5b50610296620f424081565b3480156106f857600080fd5b50610364610707366004612823565b611316565b60003373fffffffffffffffffffffffffffffffffffffffe14610741576040516282b42960e81b815260040160405180910390fd5b610749611354565b6009546040805163239a373960e21b815290516000926001600160a01b031691638e68dce49160048083019260209291908290030181865afa158015610793573d6000803e3d6000fd5b505050506040513d601f19601f820116820180604052508101906107b791906129ef565b905082806107ce5750600d54600160a01b900460ff165b15610824576107dc8161139e565b600d805460ff60a01b191690556040518181529092507ff32b9551d3414b67f8e66e20ac15e62694b9d1230abb2e2e48f9dc2e1964c4299060200160405180910390a161082d565b61082d816115b1565b5061085760017f9b779b17422d0df92223018b32b4d1fa46e071723d6817e2486d003becc55f0055565b919050565b610864611a18565b60408051808201825283516020808601919091206001600160e01b031990811683528183018581528751888401209091166000908152808352939093208251815463ffffffff191660e09190911c178155925180519293926108cc926001850192019061254b565b509050507f3d45a310c5a076ea07aa2947ca3c06cc2a8b3571065867ad6f8e7096a2c9d50a83838360405161090393929190612a5c565b60405180910390a1505050565b600d546001600160a01b0316331461093a576040516282b42960e81b815260040160405180910390fd5b600d805460ff60a01b1916600160a01b179055565b610864611a73565b61095f611a18565b6109696000611ac1565b565b610973611a18565b6001600160a01b03811661099a5760405163d92e233d60e01b815260040160405180910390fd5b600d805473ffffffffffffffffffffffffffffffffffffffff19166001600160a01b0383169081179091556040519081527f387d29e18823e432432b6098ebeee33beebdb128d2234c7f486c26447b738edd906020015b60405180910390a150565b610a04611a18565b80610a1b6000356001600160e01b03191682610dd4565b610a40576040516373330d9b60e01b8152600481018290526024015b60405180910390fd5b50600b55565b610a4e611a18565b80516020808301919091206001600160e01b03191660009081529081905260408120805463ffffffff1916815590610a896001830182612596565b50507f92d44565a40fe29702ffa146ddaa3bb133d4077f5312d682d0a2632a9bc73a8a816040516109f19190612a9f565b600080600960009054906101000a90046001600160a01b03166001600160a01b0316638e68dce46040518163ffffffff1660e01b8152600401602060405180830381865afa158015610b10573d6000803e3d6000fd5b505050506040513d601f19601f82011682018060405250810190610b3491906129ef565b90506000816001600160a01b0316639b03d7446040518163ffffffff1660e01b8152600401602060405180830381865afa158015610b76573d6000803e3d6000fd5b505050506040513d601f19601f82011682018060405250810190610b9a9190612ab2565b826001600160a01b03166322e3d9866040518163ffffffff1660e01b8152600401602060405180830381865afa158015610bd8573d6000803e3d6000fd5b505050506040513d601f19601f82011682018060405250810190610bfc9190612ab2565b610c069190612acb565b9050816001600160a01b03166322e3d9866040518163ffffffff1660e01b8152600401602060405180830381865afa158015610c46573d6000803e3d6000fd5b505050506040513d601f19601f82011682018060405250810190610c6a9190612ab2565b4211610cf75780826001600160a01b0316639b03d7446040518163ffffffff1660e01b8152600401602060405180830381865afa158015610caf573d6000803e3d6000fd5b505050506040513d601f19601f82011682018060405250810190610cd39190612ab2565b610cdd9042612acb565b610ce8906064612ade565b610cf29190612af5565b610cfa565b60645b9250505090565b3460076000828254610d1391906125db565b9091555050565b3460056000828254610d1391906125db565b60408051808201909152600081526060602082015281516020808401919091206001600160e01b0319908116600090815280835260409081902081518083018352815460e01b9093168352600181018054835181870281018701909452808452939491938583019392830182828015610dc457602002820191906000526020600020905b815481526020019060010190808311610db0575b5050505050815250509050919050565b6001600160e01b031980831660009081526020818152604080832081518083018352815460e01b909516855260018101805483518186028101860190945280845294958695909492938584019390929190830182828015610e5457602002820191906000526020600020905b815481526020019060010190808311610e40575b5050505050815250509050806020015151600003610e76576000915050610f9f565b60208101518151600090610e8990611b3f565b905060005b8251811015610f965781838281518110610eaa57610eaa612b17565b602002602001015103610f8e576000808211610ee05783600081518110610ed357610ed3612b17565b6020026020010151610f05565b83610eec600184612acb565b81518110610efc57610efc612b17565b60200260200101515b9050600060018551610f179190612acb565b8310610f49578460018651610f2c9190612acb565b81518110610f3c57610f3c612b17565b6020026020010151610f6e565b84610f558460016125db565b81518110610f6557610f65612b17565b60200260200101515b9050818814158015610f805750808814155b159650505050505050610f9f565b600101610e8e565b50600093505050505b92915050565b7ff0c57e16840df040f15088dc2f81fe391c3923bec73e23a9662efc9c229c6a00805468010000000000000000810460ff16159067ffffffffffffffff16600081158015610ff05750825b905060008267ffffffffffffffff16600114801561100d5750303b155b90508115801561101b575080155b156110395760405163f92ee8a960e01b815260040160405180910390fd5b845467ffffffffffffffff19166001178555831561106d57845468ff00000000000000001916680100000000000000001785555b6001600160a01b038816158061108a57506001600160a01b038716155b8061109c57506001600160a01b038616155b156110ba5760405163d92e233d60e01b815260040160405180910390fd5b6110c388611c16565b6110cb611c27565b600980546001600160a01b03808a1673ffffffffffffffffffffffffffffffffffffffff1992831617909255600d805492891692821692909217909155600080526004602052601e7f17ef568e3e12ab5b9c7254a8d58478811de00f9e6eb34345acd53bf8fd09d3ec556117706006819055600855600a805490911673da0da0da0da0da0da0da00da0da0da0da0da0da01781556001600b55600c5583156111b257845468ff000000000000000019168555604051600181527fc7f505b2f371ae2175ee4913f4499e1f2633a7b5936321eed1cdaeb6115181d29060200160405180910390a15b5050505050505050565b6111c4611a18565b806000036111fe576040517fffcfec8400000000000000000000000000000000000000000000000000000000815260040160405180910390fd5b60088190556040518181527fb914176cecdd5906f3fd1eb6fcf471c39b33cdc7142a1d8c494487c31ff40f88906020016109f1565b61123b611a18565b80600003611275576040517fffcfec8400000000000000000000000000000000000000000000000000000000815260040160405180910390fd5b60068190556040518181527f8ce02935a391d407d8b483203a4f3cd8465b62a45c7274471113a192f111eda0906020016109f1565b6001600160a01b03811660009081526001602090815260409182902080548351818402810184019094528084526060939283018282801561130a57602002820191906000526020600020905b8154815260200190600101908083116112f6575b50505050509050919050565b61131e611a18565b6001600160a01b03811661134857604051631e4fbdf760e01b815260006004820152602401610a37565b61135181611ac1565b50565b7f9b779b17422d0df92223018b32b4d1fa46e071723d6817e2486d003becc55f0080546001190161139857604051633ee5aeb560e01b815260040160405180910390fd5b60029055565b600080826001600160a01b031663794c0c686040518163ffffffff1660e01b8152600401602060405180830381865afa1580156113df573d6000803e3d6000fd5b505050506040513d601f19601f820116820180604052508101906114039190612ab2565b90506000811561141a576114178285611c37565b90505b60006114278360016125db565b90506060600960009054906101000a90046001600160a01b03166001600160a01b031663eebc7a396040518163ffffffff1660e01b8152600401600060405180830381865afa15801561147e573d6000803e3d6000fd5b505050506040513d6000823e601f3d908101601f191682016040526114a69190810190612b2d565b90506114b3868383611f67565b600960009054906101000a90046001600160a01b03166001600160a01b031663b7ab4db56040518163ffffffff1660e01b8152600401600060405180830381865afa158015611506573d6000803e3d6000fd5b505050506040513d6000823e601f3d908101601f1916820160405261152e9190810190612b2d565b905061153b868383611f67565b6000828152600460208190526040808320601e90556009548151637528621160e01b815291516001600160a01b03909116936375286211938381019391929182900301818387803b15801561158f57600080fd5b505af11580156115a3573d6000803e3d6000fd5b509498975050505050505050565b6000816001600160a01b031663c6912cc06040518163ffffffff1660e01b8152600401602060405180830381865afa1580156115f1573d6000803e3d6000fd5b505050506040513d601f19601f820116820180604052508101906116159190612ab2565b90506000600960009054906101000a90046001600160a01b03166001600160a01b031663b7ab4db56040518163ffffffff1660e01b8152600401600060405180830381865afa15801561166c573d6000803e3d6000fd5b505050506040513d6000823e601f3d908101601f191682016040526116949190810190612b2d565b60095460408051630456292b60e11b8152905192935042851115926000926001600160a01b0316916308ac52569160048083019260209291908290030181865afa1580156116e6573d6000803e3d6000fd5b505050506040513d601f19601f8201168201806040525081019061170a9190612ab2565b611715906002612ade565b8351611722906003612ade565b1161181a576000856001600160a01b031663a5d54f656040518163ffffffff1660e01b8152600401600060405180830381865afa158015611767573d6000803e3d6000fd5b505050506040513d6000823e601f3d908101601f1916820160405261178f9190810190612b2d565b51905060008111801561180e5750835160095460405163efd0494760e01b8152600481018490526001600160a01b039091169063efd0494790602401602060405180830381865afa1580156117e8573d6000803e3d6000fd5b505050506040513d601f19601f8201168201806040525081019061180c9190612ab2565b115b1561181857600191505b505b81806118235750805b80156118a85750600960009054906101000a90046001600160a01b03166001600160a01b031663eebc7a396040518163ffffffff1660e01b8152600401600060405180830381865afa15801561187d573d6000803e3d6000fd5b505050506040513d6000823e601f3d908101601f191682016040526118a59190810190612b2d565b51155b1561191a57600960009054906101000a90046001600160a01b03166001600160a01b0316635ccee1de6040518163ffffffff1660e01b8152600401600060405180830381600087803b1580156118fd57600080fd5b505af1158015611911573d6000803e3d6000fd5b505050506119eb565b846001600160a01b03166322e3d9866040518163ffffffff1660e01b8152600401602060405180830381865afa158015611958573d6000803e3d6000fd5b505050506040513d601f19601f8201168201806040525081019061197c9190612ab2565b42106119eb57600960009054906101000a90046001600160a01b03166001600160a01b031663ade1900a6040518163ffffffff1660e01b8152600401600060405180830381600087803b1580156119d257600080fd5b505af11580156119e6573d6000803e3d6000fd5b505050505b5050505050565b60017f9b779b17422d0df92223018b32b4d1fa46e071723d6817e2486d003becc55f0055565b33611a4a7f9016d09d72d40fdae2fd8ceac6b6234c7706214fd39c1cd1e609a0528c199300546001600160a01b031690565b6001600160a01b0316146109695760405163118cdaa760e01b8152336004820152602401610a37565b7ff0c57e16840df040f15088dc2f81fe391c3923bec73e23a9662efc9c229c6a005468010000000000000000900460ff1661096957604051631afcd79f60e31b815260040160405180910390fd5b7f9016d09d72d40fdae2fd8ceac6b6234c7706214fd39c1cd1e609a0528c199300805473ffffffffffffffffffffffffffffffffffffffff1981166001600160a01b03848116918217845560405192169182907f8be0079c531659141344cd1fd0a4f28419497f9722a3daafe3b4186f6b6457e090600090a3505050565b60408051600481526024810182526020810180517bffffffffffffffffffffffffffffffffffffffffffffffffffffffff166001600160e01b03198516179052905160009190829081903090611b96908590612bc7565b600060405180830381855afa9150503d8060008114611bd1576040519150601f19603f3d011682016040523d82523d6000602084013e611bd6565b606091505b509150915081611bf957604051635fbab09b60e11b815260040160405180910390fd5b80806020019051810190611c0d9190612ab2565b95945050505050565b611c1e611a73565b61135181612089565b611c2f611a73565b610969612091565b600080600960009054906101000a90046001600160a01b03166001600160a01b031663b7ab4db56040518163ffffffff1660e01b8152600401600060405180830381865afa158015611c8d573d6000803e3d6000fd5b505050506040513d6000823e601f3d908101601f19168201604052611cb59190810190612b2d565b80519091506000819003611cdc576040516322b8b72360e21b815260040160405180910390fd5b6000611ce782612099565b9050806000015160056000828254611cff9190612acb565b9091555050602081015160078054600090611d1b908490612acb565b90915550506060810151600003611d385760009350505050610f9f565b600a546040820151611d53916001600160a01b031690612238565b60408101516060820151600090611d6b908390612acb565b9050600080611d7b898b896122e4565b9150915081600003611d97576000975050505050505050610f9f565b6000611da38385612af5565b60008c8152600460205260409020549091508115611f445760005b88811015611f4257838181518110611dd857611dd8612b17565b602002602001015115611f3a5760008a8281518110611df957611df9612b17565b60209081029190910101516009546040516307b9342f60e21b81526001600160a01b03808416600483015292935060009290911690631ee4d0bc90602401602060405180830381865afa158015611e54573d6000803e3d6000fd5b505050506040513d601f19601f82011682018060405250810190611e7891906129ef565b9050611ec58f83876001600160a01b039091166000818152600160208181526040808420805493840181558452818420909201869055948252600285528082209282529190935290912055565b604051633f3afe0160e01b81526001600160a01b038281166004830152602482018690528f1690633f3afe019087906044016000604051808303818588803b158015611f1057600080fd5b505af1158015611f24573d6000803e3d6000fd5b50505050508489611f3591906125db565b985050505b600101611dbe565b505b858760600151611f549190612acb565b60035550939a9950505050505050505050565b60005b81518110156120835760095482516000916001600160a01b031690631ee4d0bc90859085908110611f9d57611f9d612b17565b60200260200101516040518263ffffffff1660e01b8152600401611fd091906001600160a01b0391909116815260200190565b602060405180830381865afa158015611fed573d6000803e3d6000fd5b505050506040513d601f19601f8201168201806040525081019061201191906129ef565b6040516368563b7b60e11b8152600481018690526001600160a01b0380831660248301529192509086169063d0ac76f690604401600060405180830381600087803b15801561205f57600080fd5b505af1158015612073573d6000803e3d6000fd5b5050505050806001019050611f6a565b50505050565b61131e611a73565b6119f2611a73565b6120c46040518060800160405280600081526020016000815260200160008152602001600081525090565b60095460408051630456292b60e11b815290516000926001600160a01b0316916308ac52569160048083019260209291908290030181865afa15801561210e573d6000803e3d6000fd5b505050506040513d601f19601f820116820180604052508101906121329190612ab2565b9050600061213e610aba565b90506000604051806080016040528060008152602001600081526020016000815260200160008152509050606483600654848860055461217e9190612ade565b6121889190612ade565b6121929190612af5565b61219c9190612af5565b6121a69190612af5565b8152600854600754606491859185906121c0908a90612ade565b6121ca9190612ade565b6121d49190612af5565b6121de9190612af5565b6121e89190612af5565b6020820181905281516003546121fe91906125db565b61220891906125db565b60608201819052600c54600b5490916122219190612ade565b61222b9190612af5565b6040820152949350505050565b8047101561225957604051631e9acf1760e31b815260040160405180910390fd5b6000826001600160a01b03168260405160006040518083038185875af1925050503d80600081146122a6576040519150601f19603f3d011682016040523d82523d6000602084013e6122ab565b606091505b50509050806122df57604051630e21dcbb60e11b81526001600160a01b038416600482015260248101839052604401610a37565b505050565b600060606000835167ffffffffffffffff81111561230457612304612665565b60405190808252806020026020018201604052801561232d578160200160208202803683370190505b5090506000805b855181101561253f5760095486516001600160a01b039091169063a92252ae9088908490811061236657612366612b17565b60200260200101516040518263ffffffff1660e01b815260040161239991906001600160a01b0391909116815260200190565b602060405180830381865afa1580156123b6573d6000803e3d6000fd5b505050506040513d601f19601f820116820180604052508101906123da9190612be3565b6125375760095486516000916001600160a01b03808c1692635b4eafe0928c921690631ee4d0bc908c908890811061241457612414612b17565b60200260200101516040518263ffffffff1660e01b815260040161244791906001600160a01b0391909116815260200190565b602060405180830381865afa158015612464573d6000803e3d6000fd5b505050506040513d601f19601f8201168201806040525081019061248891906129ef565b6040516001600160e01b031960e085901b16815260048101929092526001600160a01b03166024820152604401602060405180830381865afa1580156124d2573d6000803e3d6000fd5b505050506040513d601f19601f820116820180604052508101906124f69190612ab2565b9050806000036125065750612537565b600184838151811061251a5761251a612b17565b9115156020928302919091019091015261253383612c00565b9250505b600101612334565b50969095509350505050565b828054828255906000526020600020908101928215612586579160200282015b8281111561258657825182559160200191906001019061256b565b506125929291506125b0565b5090565b508054600082559060005260206000209081019061135191905b5b8082111561259257600081556001016125b1565b634e487b7160e01b600052601160045260246000fd5b80820180821115610f9f57610f9f6125c5565b801515811461135157600080fd5b60006020828403121561260e57600080fd5b8135612619816125ee565b9392505050565b6001600160a01b038116811461135157600080fd5b6000806040838503121561264857600080fd5b82359150602083013561265a81612620565b809150509250929050565b634e487b7160e01b600052604160045260246000fd5b604051601f8201601f1916810167ffffffffffffffff811182821017156126a4576126a4612665565b604052919050565b600082601f8301126126bd57600080fd5b813567ffffffffffffffff8111156126d7576126d7612665565b6126ea601f8201601f191660200161267b565b8181528460208386010111156126ff57600080fd5b816020850160208301376000918101602001919091529392505050565b600067ffffffffffffffff82111561273657612736612665565b5060051b60200190565b60008060006060848603121561275557600080fd5b833567ffffffffffffffff8082111561276d57600080fd5b612779878388016126ac565b945060209150818601358181111561279057600080fd5b61279c888289016126ac565b9450506040860135818111156127b157600080fd5b86019050601f810187136127c457600080fd5b80356127d76127d28261271c565b61267b565b81815260059190911b820183019083810190898311156127f657600080fd5b928401925b82841015612814578335825292840192908401906127fb565b80955050505050509250925092565b60006020828403121561283557600080fd5b813561261981612620565b80356001600160e01b03198116811461085757600080fd5b60006020828403121561286a57600080fd5b61261982612840565b60006020828403121561288557600080fd5b5035919050565b60006020828403121561289e57600080fd5b813567ffffffffffffffff8111156128b557600080fd5b6128c1848285016126ac565b949350505050565b602080825282516001600160e01b031916828201528281015160408084015280516060840181905260009291820190839060808601905b808310156129205783518252928401926001929092019190840190612900565b509695505050505050565b6000806040838503121561293e57600080fd5b61294783612840565b946020939093013593505050565b60008060006060848603121561296a57600080fd5b833561297581612620565b9250602084013561298581612620565b9150604084013561299581612620565b809150509250925092565b60008151808452602080850194506020840160005b838110156129d1578151875295820195908201906001016129b5565b509495945050505050565b60208152600061261960208301846129a0565b600060208284031215612a0157600080fd5b815161261981612620565b60005b83811015612a27578181015183820152602001612a0f565b50506000910152565b60008151808452612a48816020860160208601612a0c565b601f01601f19169290920160200192915050565b606081526000612a6f6060830186612a30565b8281036020840152612a818186612a30565b90508281036040840152612a9581856129a0565b9695505050505050565b6020815260006126196020830184612a30565b600060208284031215612ac457600080fd5b5051919050565b81810381811115610f9f57610f9f6125c5565b8082028115828204841417610f9f57610f9f6125c5565b600082612b1257634e487b7160e01b600052601260045260246000fd5b500490565b634e487b7160e01b600052603260045260246000fd5b60006020808385031215612b4057600080fd5b825167ffffffffffffffff811115612b5757600080fd5b8301601f81018513612b6857600080fd5b8051612b766127d28261271c565b81815260059190911b82018301908381019087831115612b9557600080fd5b928401925b82841015612bbc578351612bad81612620565b82529284019290840190612b9a565b979650505050505050565b60008251612bd9818460208701612a0c565b9190910192915050565b600060208284031215612bf557600080fd5b8151612619816125ee565b600060018201612c1257612c126125c5565b506001019056fea264697066735822122046a92d72af0325444091350f92303b956a64552e109b42892c8f1b2b439f204064736f6c63430008190033",
  "linkReferences": {},
  "deployedLinkReferences": {}
}