{
  "_format": "hh-sol-artifact-1",
  "contractName": "BlockRewardHbbftMock",
  "sourceName": "contracts/mockContracts/BlockRewardHbbftMock.sol",
  "abi": [
    {
      "anonymous": false,
      "inputs": [
        {
          "indexed": false,
          "internalType": "uint256",
          "name": "rewards",
          "type": "uint256"
        }
      ],
      "name": "CoinsRewarded",
      "type": "event"
    },
    {
      "anonymous": false,
      "inputs": [
        {
          "indexed": false,
          "internalType": "uint8",
          "name": "version",
          "type": "uint8"
        }
      ],
      "name": "Initialized",
      "type": "event"
    },
    {
      "anonymous": false,
      "inputs": [
        {
          "indexed": true,
          "internalType": "address",
          "name": "previousOwner",
          "type": "address"
        },
        {
          "indexed": true,
          "internalType": "address",
          "name": "newOwner",
          "type": "address"
        }
      ],
      "name": "OwnershipTransferred",
      "type": "event"
    },
    {
      "inputs": [],
      "name": "REWARD_PERCENT_MULTIPLIER",
      "outputs": [
        {
          "internalType": "uint256",
          "name": "",
          "type": "uint256"
        }
      ],
      "stateMutability": "view",
      "type": "function"
    },
    {
      "inputs": [],
      "name": "VALIDATOR_MIN_REWARD_PERCENT",
      "outputs": [
        {
          "internalType": "uint256",
          "name": "",
          "type": "uint256"
        }
      ],
      "stateMutability": "view",
      "type": "function"
    },
    {
      "inputs": [],
      "name": "addToDeltaPot",
      "outputs": [],
      "stateMutability": "payable",
      "type": "function"
    },
    {
      "inputs": [],
      "name": "addToReinsertPot",
      "outputs": [],
      "stateMutability": "payable",
      "type": "function"
    },
    {
      "inputs": [],
      "name": "connectivityTracker",
      "outputs": [
        {
          "internalType": "address",
          "name": "",
          "type": "address"
        }
      ],
      "stateMutability": "view",
      "type": "function"
    },
    {
      "inputs": [
        {
          "internalType": "uint256",
          "name": "_stakingEpoch",
          "type": "uint256"
        },
        {
          "internalType": "uint256",
          "name": "_delegatorStaked",
          "type": "uint256"
        },
        {
          "internalType": "uint256",
          "name": "_validatorStaked",
          "type": "uint256"
        },
        {
          "internalType": "uint256",
          "name": "_totalStaked",
          "type": "uint256"
        },
        {
          "internalType": "uint256",
          "name": "_poolReward",
          "type": "uint256"
        }
      ],
      "name": "delegatorShare",
      "outputs": [
        {
          "internalType": "uint256",
          "name": "",
          "type": "uint256"
        }
      ],
      "stateMutability": "view",
      "type": "function"
    },
    {
      "inputs": [],
      "name": "deltaPot",
      "outputs": [
        {
          "internalType": "uint256",
          "name": "",
          "type": "uint256"
        }
      ],
      "stateMutability": "view",
      "type": "function"
    },
    {
      "inputs": [],
      "name": "deltaPotPayoutFraction",
      "outputs": [
        {
          "internalType": "uint256",
          "name": "",
          "type": "uint256"
        }
      ],
      "stateMutability": "view",
      "type": "function"
    },
    {
      "inputs": [],
      "name": "earlyEpochEnd",
      "outputs": [
        {
          "internalType": "bool",
          "name": "",
          "type": "bool"
        }
      ],
      "stateMutability": "view",
      "type": "function"
    },
    {
      "inputs": [],
      "name": "epochPercentage",
      "outputs": [
        {
          "internalType": "uint256",
          "name": "",
          "type": "uint256"
        }
      ],
      "stateMutability": "view",
      "type": "function"
    },
    {
      "inputs": [
        {
          "internalType": "uint256",
          "name": "",
          "type": "uint256"
        },
        {
          "internalType": "address",
          "name": "",
          "type": "address"
        }
      ],
      "name": "epochPoolNativeReward",
      "outputs": [
        {
          "internalType": "uint256",
          "name": "",
          "type": "uint256"
        }
      ],
      "stateMutability": "view",
      "type": "function"
    },
    {
      "inputs": [
        {
          "internalType": "address",
          "name": "_miningAddress",
          "type": "address"
        }
      ],
      "name": "epochsPoolGotRewardFor",
      "outputs": [
        {
          "internalType": "uint256[]",
          "name": "",
          "type": "uint256[]"
        }
      ],
      "stateMutability": "view",
      "type": "function"
    },
    {
      "inputs": [
        {
          "internalType": "address",
          "name": "_poolStakingAddress",
          "type": "address"
        },
        {
          "internalType": "address",
          "name": "_staker",
          "type": "address"
        }
      ],
      "name": "epochsToClaimRewardFrom",
      "outputs": [
        {
          "internalType": "uint256[]",
          "name": "epochsToClaimFrom",
          "type": "uint256[]"
        }
      ],
      "stateMutability": "view",
      "type": "function"
    },
    {
      "inputs": [
        {
          "internalType": "uint256",
          "name": "_delegatorStake",
          "type": "uint256"
        },
        {
          "internalType": "uint256",
          "name": "_stakingEpoch",
          "type": "uint256"
        },
        {
          "internalType": "address",
          "name": "_poolMiningAddress",
          "type": "address"
        }
      ],
      "name": "getDelegatorReward",
      "outputs": [
        {
          "internalType": "uint256",
          "name": "nativeReward",
          "type": "uint256"
        }
      ],
      "stateMutability": "view",
      "type": "function"
    },
    {
      "inputs": [],
      "name": "getGovernanceAddress",
      "outputs": [
        {
          "internalType": "address",
          "name": "",
          "type": "address"
        }
      ],
      "stateMutability": "view",
      "type": "function"
    },
    {
      "inputs": [
        {
          "internalType": "uint256",
          "name": "_stakingEpoch",
          "type": "uint256"
        },
        {
          "internalType": "address",
          "name": "_poolMiningAddress",
          "type": "address"
        }
      ],
      "name": "getValidatorReward",
      "outputs": [
        {
          "internalType": "uint256",
          "name": "nativeReward",
          "type": "uint256"
        }
      ],
      "stateMutability": "view",
      "type": "function"
    },
    {
      "inputs": [],
      "name": "governancePotAddress",
      "outputs": [
        {
          "internalType": "address payable",
          "name": "",
          "type": "address"
        }
      ],
      "stateMutability": "view",
      "type": "function"
    },
    {
      "inputs": [],
      "name": "governancePotShareDenominator",
      "outputs": [
        {
          "internalType": "uint256",
          "name": "",
          "type": "uint256"
        }
      ],
      "stateMutability": "view",
      "type": "function"
    },
    {
      "inputs": [],
      "name": "governancePotShareNominator",
      "outputs": [
        {
          "internalType": "uint256",
          "name": "",
          "type": "uint256"
        }
      ],
      "stateMutability": "view",
      "type": "function"
    },
    {
      "inputs": [
        {
          "internalType": "address",
          "name": "_contractOwner",
          "type": "address"
        },
        {
          "internalType": "address",
          "name": "_validatorSet",
          "type": "address"
        },
        {
          "internalType": "address",
          "name": "_connectivityTracker",
          "type": "address"
        }
      ],
      "name": "initialize",
      "outputs": [],
      "stateMutability": "nonpayable",
      "type": "function"
    },
    {
      "inputs": [],
      "name": "nativeRewardUndistributed",
      "outputs": [
        {
          "internalType": "uint256",
          "name": "",
          "type": "uint256"
        }
      ],
      "stateMutability": "view",
      "type": "function"
    },
    {
      "inputs": [],
      "name": "notifyEarlyEpochEnd",
      "outputs": [],
      "stateMutability": "nonpayable",
      "type": "function"
    },
    {
      "inputs": [],
      "name": "owner",
      "outputs": [
        {
          "internalType": "address",
          "name": "",
          "type": "address"
        }
      ],
      "stateMutability": "view",
      "type": "function"
    },
    {
      "inputs": [],
      "name": "reinsertPot",
      "outputs": [
        {
          "internalType": "uint256",
          "name": "",
          "type": "uint256"
        }
      ],
      "stateMutability": "view",
      "type": "function"
    },
    {
      "inputs": [],
      "name": "reinsertPotPayoutFraction",
      "outputs": [
        {
          "internalType": "uint256",
          "name": "",
          "type": "uint256"
        }
      ],
      "stateMutability": "view",
      "type": "function"
    },
    {
      "inputs": [],
      "name": "renounceOwnership",
      "outputs": [],
      "stateMutability": "nonpayable",
      "type": "function"
    },
    {
      "inputs": [
        {
          "internalType": "bool",
          "name": "_isEpochEndBlock",
          "type": "bool"
        }
      ],
      "name": "reward",
      "outputs": [
        {
          "internalType": "uint256",
          "name": "rewardsNative",
          "type": "uint256"
        }
      ],
      "stateMutability": "nonpayable",
      "type": "function"
    },
    {
      "inputs": [],
      "name": "sendCoins",
      "outputs": [],
      "stateMutability": "payable",
      "type": "function"
    },
    {
      "inputs": [
        {
          "internalType": "address",
          "name": "_connectivityTracker",
          "type": "address"
        }
      ],
      "name": "setConnectivityTracker",
      "outputs": [],
      "stateMutability": "nonpayable",
      "type": "function"
    },
    {
      "inputs": [
        {
          "internalType": "uint256",
          "name": "_stakingEpoch",
          "type": "uint256"
        },
        {
          "internalType": "address",
          "name": "_poolMiningAddress",
          "type": "address"
        }
      ],
      "name": "setEpochPoolReward",
      "outputs": [],
      "stateMutability": "payable",
      "type": "function"
    },
    {
      "inputs": [
        {
          "internalType": "address",
          "name": "_address",
          "type": "address"
        }
      ],
      "name": "setGovernanceAddress",
      "outputs": [],
      "stateMutability": "nonpayable",
      "type": "function"
    },
    {
      "inputs": [
        {
          "internalType": "uint256",
          "name": "_value",
          "type": "uint256"
        }
      ],
      "name": "setReinsertPotPayoutFraction",
      "outputs": [],
      "stateMutability": "nonpayable",
      "type": "function"
    },
    {
      "inputs": [
        {
          "internalType": "uint256",
          "name": "_stakingEpoch",
          "type": "uint256"
        },
        {
          "internalType": "address",
          "name": "_poolMiningAddress",
          "type": "address"
        },
        {
          "internalType": "uint256",
          "name": "_amount",
          "type": "uint256"
        }
      ],
      "name": "setSnapshotPoolValidatorStakeAmount",
      "outputs": [],
      "stateMutability": "nonpayable",
      "type": "function"
    },
    {
      "inputs": [
        {
          "internalType": "address",
          "name": "_address",
          "type": "address"
        }
      ],
      "name": "setSystemAddress",
      "outputs": [],
      "stateMutability": "nonpayable",
      "type": "function"
    },
    {
      "inputs": [
        {
          "internalType": "uint256",
          "name": "_stakingEpoch",
          "type": "uint256"
        },
        {
          "internalType": "uint256",
          "name": "_percent",
          "type": "uint256"
        }
      ],
      "name": "setValidatorMinRewardPercent",
      "outputs": [],
      "stateMutability": "nonpayable",
      "type": "function"
    },
    {
      "inputs": [
        {
          "internalType": "uint256",
          "name": "_value",
          "type": "uint256"
        }
      ],
      "name": "setdeltaPotPayoutFraction",
      "outputs": [],
      "stateMutability": "nonpayable",
      "type": "function"
    },
    {
      "inputs": [
        {
          "internalType": "contract IStakingHbbft",
          "name": "_stakingContract",
          "type": "address"
        },
        {
          "internalType": "uint256",
          "name": "_stakingEpoch",
          "type": "uint256"
        },
        {
          "internalType": "address",
          "name": "_miningAddress",
          "type": "address"
        }
      ],
      "name": "snapshotPoolStakeAmounts",
      "outputs": [],
      "stateMutability": "nonpayable",
      "type": "function"
    },
    {
      "inputs": [
        {
          "internalType": "uint256",
          "name": "",
          "type": "uint256"
        },
        {
          "internalType": "address",
          "name": "",
          "type": "address"
        }
      ],
      "name": "snapshotPoolTotalStakeAmount",
      "outputs": [
        {
          "internalType": "uint256",
          "name": "",
          "type": "uint256"
        }
      ],
      "stateMutability": "view",
      "type": "function"
    },
    {
      "inputs": [
        {
          "internalType": "uint256",
          "name": "",
          "type": "uint256"
        },
        {
          "internalType": "address",
          "name": "",
          "type": "address"
        }
      ],
      "name": "snapshotPoolValidatorStakeAmount",
      "outputs": [
        {
          "internalType": "uint256",
          "name": "",
          "type": "uint256"
        }
      ],
      "stateMutability": "view",
      "type": "function"
    },
    {
      "inputs": [
        {
          "internalType": "address",
          "name": "newOwner",
          "type": "address"
        }
      ],
      "name": "transferOwnership",
      "outputs": [],
      "stateMutability": "nonpayable",
      "type": "function"
    },
    {
      "inputs": [
        {
          "internalType": "uint256",
          "name": "_nativeCoins",
          "type": "uint256"
        },
        {
          "internalType": "address payable",
          "name": "_to",
          "type": "address"
        }
      ],
      "name": "transferReward",
      "outputs": [],
      "stateMutability": "nonpayable",
      "type": "function"
    },
    {
      "inputs": [
        {
          "internalType": "uint256",
          "name": "",
          "type": "uint256"
        }
      ],
      "name": "validatorMinRewardPercent",
      "outputs": [
        {
          "internalType": "uint256",
          "name": "",
          "type": "uint256"
        }
      ],
      "stateMutability": "view",
      "type": "function"
    },
    {
      "inputs": [
        {
          "internalType": "address",
          "name": "_stakingAddress",
          "type": "address"
        }
      ],
      "name": "validatorRewardPercent",
      "outputs": [
        {
          "internalType": "uint256",
          "name": "",
          "type": "uint256"
        }
      ],
      "stateMutability": "view",
      "type": "function"
    },
    {
      "inputs": [],
      "name": "validatorSetContract",
      "outputs": [
        {
          "internalType": "contract IValidatorSetHbbft",
          "name": "",
          "type": "address"
        }
      ],
      "stateMutability": "view",
      "type": "function"
    },
    {
      "inputs": [
        {
          "internalType": "uint256",
          "name": "_stakingEpoch",
          "type": "uint256"
        },
        {
          "internalType": "uint256",
          "name": "_validatorStaked",
          "type": "uint256"
        },
        {
          "internalType": "uint256",
          "name": "_totalStaked",
          "type": "uint256"
        },
        {
          "internalType": "uint256",
          "name": "_poolReward",
          "type": "uint256"
        }
      ],
      "name": "validatorShare",
      "outputs": [
        {
          "internalType": "uint256",
          "name": "",
          "type": "uint256"
        }
      ],
      "stateMutability": "view",
      "type": "function"
    },
    {
      "stateMutability": "payable",
      "type": "receive"
    }
  ],
  "bytecode": "0x60806040523480156200001157600080fd5b506200001c62000022565b620000e3565b600054610100900460ff16156200008f5760405162461bcd60e51b815260206004820152602760248201527f496e697469616c697a61626c653a20636f6e747261637420697320696e697469604482015266616c697a696e6760c81b606482015260840160405180910390fd5b60005460ff90811614620000e1576000805460ff191660ff9081179091556040519081527f7f26b83ff96e1f2b6a682f133852f6798a09c465da95921460cefb38474024989060200160405180910390a15b565b61377b80620000f36000396000f3fe608060405260043610620003325760003560e01c806378ff69d511620001af578063c6cc933311620000f3578063dd03f5b91162000095578063e58edc38116200006c578063e58edc381462000985578063f2fde38b146200099e578063f302163d14620003d257600080fd5b8063dd03f5b91462000919578063dfc8bf4e146200093e578063e1ab96d8146200096057600080fd5b8063cfc1625411620000ca578063cfc162541462000882578063d0899cb414620008c3578063d88aebd714620008f457600080fd5b8063c6cc93331462000807578063cb68d127146200082c578063cdf7a090146200085157600080fd5b8063a59546e2116200015d578063b10c75481162000134578063b10c754814620007b3578063ba2d759714620007bd578063c0c53b8b14620007e257600080fd5b8063a59546e21462000779578063adc481a71462000791578063af18253514620007a957600080fd5b80638da5cb5b11620001925780638da5cb5b146200072957806391b5798614620007495780639a64ca2c146200076157600080fd5b806378ff69d514620006df5780638737929a146200070457600080fd5b80634de6c0361162000277578063669554691162000225578063728345db11620001fc578063728345db146200066b5780637325249414620006a757806373f1295814620006c757600080fd5b80636695546914620005fd578063674a7214146200061f578063715018a6146200065357600080fd5b806359620872116200025a5780635962087214620005a85780635c57a80114620005c05780635fba554e14620005d857600080fd5b80634de6c036146200054f578063527d8bc4146200058357600080fd5b80631274fa0911620002e157806333d6992111620002b857806333d6992114620004d65780633c2c943c1462000512578063469507c6146200052a57600080fd5b80631274fa0914620004475780631345b8a5146200045f57806319cee897146200049b57600080fd5b80630c0d417311620003165780630c0d417314620003d45780630c556d6614620003eb5780630dcbf155146200040257600080fd5b8062067a84146200035957806306210197146200039157600080fd5b36620003545734606d60008282546200034c919062003243565b925050819055005b600080fd5b3480156200036657600080fd5b506200037e6200037836600462003268565b620009c3565b6040519081526020015b60405180910390f35b3480156200039e57600080fd5b50620003d2620003b0366004620032a5565b60a580546001600160a01b0319166001600160a01b0392909216919091179055565b005b348015620003e157600080fd5b506200037e601e81565b620003d2620003fc366004620032c5565b620011c9565b3480156200040f57600080fd5b50620003d262000421366004620032f8565b60009283526069602090815260408085206001600160a01b039094168552929052912055565b3480156200045457600080fd5b506200037e606e5481565b3480156200046c57600080fd5b506200037e6200047e366004620032c5565b606960209081526000928352604080842090915290825290205481565b348015620004a857600080fd5b50607054620004bd906001600160a01b031681565b6040516001600160a01b03909116815260200162000388565b348015620004e357600080fd5b506200037e620004f5366004620032c5565b606660209081526000928352604080842090915290825290205481565b3480156200051f57600080fd5b506200037e60725481565b3480156200053757600080fd5b50620003d262000549366004620032c5565b620014fa565b3480156200055c57600080fd5b50620005746200056e36600462003333565b620015a2565b60405162000388919062003366565b3480156200059057600080fd5b506200037e620005a2366004620032a5565b62001a1b565b348015620005b557600080fd5b50620003d262001d43565b348015620005cd57600080fd5b506200037e606b5481565b348015620005e557600080fd5b506200037e620005f7366004620033ac565b62001d70565b3480156200060a57600080fd5b50607354620004bd906001600160a01b031681565b3480156200062c57600080fd5b506073546200064290600160a01b900460ff1681565b604051901515815260200162000388565b3480156200066057600080fd5b50620003d262001e64565b3480156200067857600080fd5b506200037e6200068a366004620032c5565b606860209081526000928352604080842090915290825290205481565b348015620006b457600080fd5b506070546001600160a01b0316620004bd565b348015620006d457600080fd5b506200037e606d5481565b348015620006ec57600080fd5b50620003d2620006fe366004620032a5565b62001e7c565b3480156200071157600080fd5b506200037e62000723366004620033e8565b62001ea8565b3480156200073657600080fd5b506033546001600160a01b0316620004bd565b3480156200075657600080fd5b506200037e60715481565b3480156200076e57600080fd5b506200037e606c5481565b3480156200078657600080fd5b506200037e62001f6f565b3480156200079e57600080fd5b506200037e60675481565b620003d2620021cf565b620003d2620021ea565b348015620007ca57600080fd5b506200037e620007dc366004620032c5565b620021fe565b348015620007ef57600080fd5b50620003d2620008013660046200341b565b6200225c565b3480156200081457600080fd5b50620003d2620008263660046200346d565b62002536565b3480156200083957600080fd5b50620003d26200084b3660046200346d565b62002597565b3480156200085e57600080fd5b506200037e620008703660046200346d565b606a6020526000908152604090205481565b3480156200088f57600080fd5b50620003d2620008a1366004620032a5565b607080546001600160a01b0319166001600160a01b0392909216919091179055565b348015620008d057600080fd5b50620003d2620008e236600462003487565b6000918252606a602052604090912055565b3480156200090157600080fd5b50620003d262000913366004620034aa565b620025f8565b3480156200092657600080fd5b506200057462000938366004620032a5565b6200260a565b3480156200094b57600080fd5b50606f54620004bd906001600160a01b031681565b3480156200096d57600080fd5b506200037e6200097f366004620034e6565b62002678565b3480156200099257600080fd5b506200037e620f424081565b348015620009ab57600080fd5b50620003d2620009bd366004620032a5565b620026e2565b6000620009d860a5546001600160a01b031690565b6001600160a01b0316336001600160a01b031614620009f657600080fd5b606f546040805163239a373960e21b815290516000926001600160a01b031691638e68dce49160048083019260209291908290030181865afa15801562000a41573d6000803e3d6000fd5b505050506040513d601f19601f8201168201806040525081019062000a67919062003524565b9050828062000a7f5750607354600160a01b900460ff165b1562000d5f576000816001600160a01b031663794c0c686040518163ffffffff1660e01b8152600401602060405180830381865afa15801562000ac6573d6000803e3d6000fd5b505050506040513d601f19601f8201168201806040525081019062000aec919062003544565b90506000811562000b055762000b028262002778565b90505b60008062000b1584600162003243565b90506060606f60009054906101000a90046001600160a01b03166001600160a01b031663eebc7a396040518163ffffffff1660e01b8152600401600060405180830381865afa15801562000b6d573d6000803e3d6000fd5b505050506040513d6000823e601f3d908101601f1916820160405262000b97919081019062003574565b9050600092505b805183101562000be65762000bd1868383868151811062000bc35762000bc362003647565b602002602001015162002e2d565b8262000bdd816200365d565b93505062000b9e565b606f60009054906101000a90046001600160a01b03166001600160a01b031663b7ab4db56040518163ffffffff1660e01b8152600401600060405180830381865afa15801562000c3a573d6000803e3d6000fd5b505050506040513d6000823e601f3d908101601f1916820160405262000c64919081019062003574565b9050600092505b805183101562000ca55762000c90868383868151811062000bc35762000bc362003647565b8262000c9c816200365d565b93505062000c6b565b6000828152606a6020526040808220601e9055606f548151637528621160e01b815291516001600160a01b03909116926375286211926004808201939182900301818387803b15801562000cf857600080fd5b505af115801562000d0d573d6000803e3d6000fd5b50506073805460ff60a01b1916905550506040518481527ff32b9551d3414b67f8e66e20ac15e62694b9d1230abb2e2e48f9dc2e1964c4299060200160405180910390a1506000979650505050505050565b6000816001600160a01b031663c6912cc06040518163ffffffff1660e01b8152600401602060405180830381865afa15801562000da0573d6000803e3d6000fd5b505050506040513d601f19601f8201168201806040525081019062000dc6919062003544565b90506000606f60009054906101000a90046001600160a01b03166001600160a01b031663b7ab4db56040518163ffffffff1660e01b8152600401600060405180830381865afa15801562000e1e573d6000803e3d6000fd5b505050506040513d6000823e601f3d908101601f1916820160405262000e48919081019062003574565b606f5460408051630456292b60e11b8152905192935042851115926000926001600160a01b0316916308ac52569160048083019260209291908290030181865afa15801562000e9b573d6000803e3d6000fd5b505050506040513d601f19601f8201168201806040525081019062000ec1919062003544565b62000ece90600262003679565b835162000edd90600362003679565b1162000fde576000856001600160a01b031663a5d54f656040518163ffffffff1660e01b8152600401600060405180830381865afa15801562000f24573d6000803e3d6000fd5b505050506040513d6000823e601f3d908101601f1916820160405262000f4e919081019062003574565b51905060008111801562000fd157508351606f5460405163efd0494760e01b8152600481018490526001600160a01b039091169063efd0494790602401602060405180830381865afa15801562000fa9573d6000803e3d6000fd5b505050506040513d601f19601f8201168201806040525081019062000fcf919062003544565b115b1562000fdc57600191505b505b818062000fe85750805b8015620010715750606f60009054906101000a90046001600160a01b03166001600160a01b031663eebc7a396040518163ffffffff1660e01b8152600401600060405180830381865afa15801562001044573d6000803e3d6000fd5b505050506040513d6000823e601f3d908101601f191682016040526200106e919081019062003574565b51155b15620010e757606f60009054906101000a90046001600160a01b03166001600160a01b0316635ccee1de6040518163ffffffff1660e01b8152600401600060405180830381600087803b158015620010c857600080fd5b505af1158015620010dd573d6000803e3d6000fd5b50505050620011be565b846001600160a01b03166322e3d9866040518163ffffffff1660e01b8152600401602060405180830381865afa15801562001126573d6000803e3d6000fd5b505050506040513d601f19601f820116820180604052508101906200114c919062003544565b4210620011be57606f60009054906101000a90046001600160a01b03166001600160a01b031663ade1900a6040518163ffffffff1660e01b8152600401600060405180830381600087803b158015620011a457600080fd5b505af1158015620011b9573d6000803e3d6000fd5b505050505b50505050505b919050565b816000036200122b5760405162461bcd60e51b8152602060048201526024808201527f53657445706f6368506f6f6c5265776172643a2065706f63682063616e2774206044820152630626520360e41b60648201526084015b60405180910390fd5b6001600160a01b0381166200128f5760405162461bcd60e51b8152602060048201526024808201527f53657445706f6368506f6f6c5265776172643a2065706f63682063616e2774206044820152630626520360e41b606482015260840162001222565b34600003620013075760405162461bcd60e51b815260206004820152602560248201527f53657445706f6368506f6f6c5265776172643a207265776172642063616e277460448201527f2062652030000000000000000000000000000000000000000000000000000000606482015260840162001222565b60008281526066602090815260408083206001600160a01b0385168452909152902054156200139f5760405162461bcd60e51b815260206004820152603560248201527f53657445706f6368506f6f6c5265776172643a2065706f6368506f6f6c4e617460448201527f69766552657761726420616c7265616479207365740000000000000000000000606482015260840162001222565b60008281526066602090815260408083206001600160a01b0385168452825280832034905560658252808320805482518185028101850190935280835291929091908301828280156200141257602002820191906000526020600020905b815481526020019060010190808311620013fd575b5050505050905060005b8151811015620014ce57838282815181106200143c576200143c62003647565b602002602001015103620014b95760405162461bcd60e51b815260206004820152603a60248201527f546865726520697320616c72656164792061205265776172642070656e64696e60448201527f6720666f722074686973206d696e696e67206164647265737321000000000000606482015260840162001222565b80620014c5816200365d565b9150506200141c565b50506001600160a01b031660009081526065602090815260408220805460018101825590835291200155565b606f60009054906101000a90046001600160a01b03166001600160a01b0316638e68dce46040518163ffffffff1660e01b8152600401602060405180830381865afa1580156200154e573d6000803e3d6000fd5b505050506040513d601f19601f8201168201806040525081019062001574919062003524565b6001600160a01b0316336001600160a01b0316146200159257600080fd5b6200159e828262003013565b5050565b606f546040516253517560e01b81526001600160a01b0384811660048301526060926000929116906253517590602401602060405180830381865afa158015620015f0573d6000803e3d6000fd5b505050506040513d601f19601f8201168201806040525081019062001616919062003524565b90506000606f60009054906101000a90046001600160a01b03166001600160a01b0316638e68dce46040518163ffffffff1660e01b8152600401602060405180830381865afa1580156200166e573d6000803e3d6000fd5b505050506040513d601f19601f8201168201806040525081019062001694919062003524565b90506000846001600160a01b0316866001600160a01b0316141590506000808215620017cf57604051632b2cdba160e11b81526001600160a01b0389811660048301528881166024830152851690635659b74290604401602060405180830381865afa15801562001709573d6000803e3d6000fd5b505050506040513d601f19601f820116820180604052508101906200172f919062003544565b91508160000362001757575050604080516000815260208101909152935062001a1592505050565b60405163bc9eb2c360e01b81526001600160a01b038981166004830152888116602483015285169063bc9eb2c390604401602060405180830381865afa158015620017a6573d6000803e3d6000fd5b505050506040513d601f19601f82011682018060405250810190620017cc919062003544565b90505b6001600160a01b0385166000908152606560205260408120805490918167ffffffffffffffff8111156200180757620018076200355e565b60405190808252806020026020018201604052801562001831578160200160208202803683370190505b5090506000805b838110156200196157600085828154811062001858576200185862003647565b9060005260206000200154905088156200189957878110156200187c57506200194c565b8087111580156200188c57508615155b1562001899575062001961565b604051630317277360e41b81526001600160a01b038f811660048301528e81166024830152604482018390528b1690633172773090606401602060405180830381865afa158015620018ef573d6000803e3d6000fd5b505050506040513d601f19601f8201168201806040525081019062001915919062003693565b6200194a5780848462001928816200365d565b9550815181106200193d576200193d62003647565b6020026020010181815250505b505b8062001958816200365d565b91505062001838565b8167ffffffffffffffff8111156200197d576200197d6200355e565b604051908082528060200260200182016040528015620019a7578160200160208202803683370190505b509a50600090505b8181101562001a0a57828181518110620019cd57620019cd62003647565b60200260200101518b8281518110620019ea57620019ea62003647565b60209081029190910101528062001a01816200365d565b915050620019af565b505050505050505050505b92915050565b600080606f60009054906101000a90046001600160a01b03166001600160a01b0316638e68dce46040518163ffffffff1660e01b8152600401602060405180830381865afa15801562001a72573d6000803e3d6000fd5b505050506040513d601f19601f8201168201806040525081019062001a98919062003524565b90506000816001600160a01b031663794c0c686040518163ffffffff1660e01b8152600401602060405180830381865afa15801562001adb573d6000803e3d6000fd5b505050506040513d601f19601f8201168201806040525081019062001b01919062003544565b90508060000362001b16575060009392505050565b606f546040516253517560e01b81526001600160a01b03868116600483015260009216906253517590602401602060405180830381865afa15801562001b60573d6000803e3d6000fd5b505050506040513d601f19601f8201168201806040525081019062001b86919062003524565b606f5460405163a0d16cad60e01b81526001600160a01b03808416600483015292935091169063a0d16cad90602401602060405180830381865afa15801562001bd3573d6000803e3d6000fd5b505050506040513d601f19601f8201168201806040525081019062001bf9919062003693565b1562001c515760008281526069602090815260408083206001600160a01b038516808552908352818420548685526068845282852091855292529091205462001c48918491620f424062001ea8565b95945050505050565b60405163a697ecff60e01b81526001600160a01b0386811660048301819052602483015262001c4891849186169063a697ecff90604401602060405180830381865afa15801562001ca6573d6000803e3d6000fd5b505050506040513d601f19601f8201168201806040525081019062001ccc919062003544565b604051632933f0eb60e11b81526001600160a01b038981166004830152871690635267e1d690602401602060405180830381865afa15801562001d13573d6000803e3d6000fd5b505050506040513d601f19601f8201168201806040525081019062001d39919062003544565b620f424062001ea8565b6073546001600160a01b0316331462001d5b57600080fd5b6073805460ff60a01b1916600160a01b179055565b600084158062001d7e575083155b8062001d88575082155b1562001d975750600062001c48565b6000808585101562001dab57600062001db7565b62001db78686620036b3565b6000898152606a602052604090205490915062001dd5818362003679565b62001de2826064620036b3565b62001dee908962003679565b111562001e16578562001e02898762003679565b62001e0e9190620036c9565b925062001e57565b62001e2382606462003679565b62001e30826064620036b3565b62001e3c8a8862003679565b62001e48919062003679565b62001e549190620036c9565b92505b5090979650505050505050565b62001e6e62003089565b62001e7a6000620030e5565b565b62001e8662003089565b607380546001600160a01b0319166001600160a01b0392909216919091179055565b600083158062001eb6575082155b1562001ec55750600062001f67565b6000808585101562001ed957600062001ee5565b62001ee58686620036b3565b6000888152606a602052604090205490915062001f03818362003679565b62001f10826064620036b3565b62001f1c908962003679565b111562001f44578562001f30888762003679565b62001f3c9190620036c9565b925062001f61565b606462001f52828762003679565b62001f5e9190620036c9565b92505b50909150505b949350505050565b600080606f60009054906101000a90046001600160a01b03166001600160a01b0316638e68dce46040518163ffffffff1660e01b8152600401602060405180830381865afa15801562001fc6573d6000803e3d6000fd5b505050506040513d601f19601f8201168201806040525081019062001fec919062003524565b90506000816001600160a01b0316639b03d7446040518163ffffffff1660e01b8152600401602060405180830381865afa1580156200202f573d6000803e3d6000fd5b505050506040513d601f19601f8201168201806040525081019062002055919062003544565b826001600160a01b03166322e3d9866040518163ffffffff1660e01b8152600401602060405180830381865afa15801562002094573d6000803e3d6000fd5b505050506040513d601f19601f82011682018060405250810190620020ba919062003544565b620020c69190620036b3565b9050816001600160a01b03166322e3d9866040518163ffffffff1660e01b8152600401602060405180830381865afa15801562002107573d6000803e3d6000fd5b505050506040513d601f19601f820116820180604052508101906200212d919062003544565b4211620021c55780826001600160a01b0316639b03d7446040518163ffffffff1660e01b8152600401602060405180830381865afa15801562002174573d6000803e3d6000fd5b505050506040513d601f19601f820116820180604052508101906200219a919062003544565b620021a69042620036b3565b620021b390606462003679565b620021bf9190620036c9565b620021c8565b60645b9250505090565b34606d6000828254620021e3919062003243565b9091555050565b34606b6000828254620021e3919062003243565b60008281526069602090815260408083206001600160a01b038516808552908352818420548685526068845282852082865284528285205487865260668552838620928652919093529083205462001c489086908490849062001ea8565b600054610100900460ff16158080156200227d5750600054600160ff909116105b80620022995750303b15801562002299575060005460ff166001145b6200230d5760405162461bcd60e51b815260206004820152602e60248201527f496e697469616c697a61626c653a20636f6e747261637420697320616c72656160448201527f647920696e697469616c697a6564000000000000000000000000000000000000606482015260840162001222565b6000805460ff19166001179055801562002331576000805461ff0019166101001790555b6001600160a01b038416620023895760405162461bcd60e51b815260206004820152601b60248201527f4f776e65722061646472657373206d757374206e6f7420626520300000000000604482015260640162001222565b6001600160a01b038316620023e15760405162461bcd60e51b815260206004820152601a60248201527f56616c696461746f72536574206d757374206e6f742062652030000000000000604482015260640162001222565b6001600160a01b038216620024435760405162461bcd60e51b815260206004820152602160248201527f436f6e6e6563746976697479547261636b6572206d757374206e6f74206265206044820152600360fc1b606482015260840162001222565b6200244d62003137565b6200245884620030e5565b606f80546001600160a01b038086166001600160a01b031992831617909255607380549285169282169290921790915560008052606a602052601e7f6021fa82de881996a3e5fd2d032f74dfe72746b8a66c5510d4ab1a3cb789150755611770606c819055606e556070805490911673da0da0da0da0da0da0da00da0da0da0da0da0da01790556001607155600a607255801562002530576000805461ff0019169055604051600181527f7f26b83ff96e1f2b6a682f133852f6798a09c465da95921460cefb38474024989060200160405180910390a15b50505050565b6200254062003089565b80600003620025925760405162461bcd60e51b815260206004820152601d60248201527f5061796f7574206672616374696f6e206d757374206e6f742062652030000000604482015260640162001222565b606e55565b620025a162003089565b80600003620025f35760405162461bcd60e51b815260206004820152601d60248201527f5061796f7574206672616374696f6e206d757374206e6f742062652030000000604482015260640162001222565b606c55565b6200260583838362002e2d565b505050565b6001600160a01b0381166000908152606560209081526040918290208054835181840281018401909452808452606093928301828280156200266c57602002820191906000526020600020905b81548152602001906001019080831162002657575b50505050509050919050565b60008281526069602090815260408083206001600160a01b0385168085529083528184205486855260688452828520828652845282852054878652606685528386209286529190935290832054620026d890869088908590859062001d70565b9695505050505050565b620026ec62003089565b6001600160a01b0381166200276a5760405162461bcd60e51b815260206004820152602660248201527f4f776e61626c653a206e6577206f776e657220697320746865207a65726f206160448201527f6464726573730000000000000000000000000000000000000000000000000000606482015260840162001222565b6200277581620030e5565b50565b600080606f60009054906101000a90046001600160a01b03166001600160a01b031663b7ab4db56040518163ffffffff1660e01b8152600401600060405180830381865afa158015620027cf573d6000803e3d6000fd5b505050506040513d6000823e601f3d908101601f19168201604052620027f9919081019062003574565b80519091506000819003620028515760405162461bcd60e51b815260206004820152601460248201527f456d7074792056616c696461746f72206c697374000000000000000000000000604482015260640162001222565b600080606f60009054906101000a90046001600160a01b03166001600160a01b03166308ac52566040518163ffffffff1660e01b8152600401602060405180830381865afa158015620028a8573d6000803e3d6000fd5b505050506040513d601f19601f82011682018060405250810190620028ce919062003544565b90506000606482606c54620028e262001f6f565b87606b54620028f2919062003679565b620028fe919062003679565b6200290a9190620036c9565b620029169190620036c9565b620029229190620036c9565b905080606b6000828254620029389190620036b3565b925050819055506000606483606e546200295162001f6f565b88606d5462002961919062003679565b6200296d919062003679565b620029799190620036c9565b620029859190620036c9565b620029919190620036c9565b905080606d6000828254620029a79190620036b3565b9091555050606754620029bb828462003243565b620029c7919062003243565b935050505080600003620029e057506000949350505050565b600060725460715483620029f5919062003679565b62002a019190620036c9565b6070546040519192506001600160a01b03169082156108fc029083906000818181858888f1935050505015801562002a3d573d6000803e3d6000fd5b50600062002a4c8284620036b3565b905060008467ffffffffffffffff81111562002a6c5762002a6c6200355e565b60405190808252806020026020018201604052801562002a96578160200160208202803683370190505b5090506000805b875181101562002bfe57606f5488516001600160a01b039091169063a92252ae908a908490811062002ad35762002ad362003647565b60200260200101516040518263ffffffff1660e01b815260040162002b0791906001600160a01b0391909116815260200190565b602060405180830381865afa15801562002b25573d6000803e3d6000fd5b505050506040513d601f19601f8201168201806040525081019062002b4b919062003693565b15801562002bac5750606960008b8152602001908152602001600020600089838151811062002b7e5762002b7e62003647565b60200260200101516001600160a01b03166001600160a01b0316815260200190815260200160002054600014155b1562002be957600183828151811062002bc95762002bc962003647565b911515602092830291909101909101528162002be5816200365d565b9250505b8062002bf5816200365d565b91505062002a9d565b508060000362002c175750600098975050505050505050565b600062002c258285620036c9565b9050801562002e105760005b8781101562002e0e5783818151811062002c4f5762002c4f62003647565b60200260200101511562002df957606660008c815260200190815260200160002060008a838151811062002c875762002c8762003647565b60200260200101516001600160a01b03166001600160a01b031681526020019081526020016000205460001462002d4d5760405162461bcd60e51b815260206004820152605c60248201527f63616e74206469737472696275746520726577617264733a207468657265206960448201527f7320616c7265616479206120706f6f6c2072657761726420646566696e65642060648201527f666f7220746869732065706f636820616e642076616c696461746f7200000000608482015260a40162001222565b60008b81526066602052604081208a518492908c908590811062002d755762002d7562003647565b6020908102919091018101516001600160a01b031682528101919091526040016000205562002da5828762003243565b9550606560008a838151811062002dc05762002dc062003647565b6020908102919091018101516001600160a01b031682528181019290925260400160009081208054600181018255908252919020018b90555b8062002e05816200365d565b91505062002c31565b505b62002e1c8587620036b3565b606755509298975050505050505050565b60008281526068602090815260408083206001600160a01b03851684529091529020541562002e5b57505050565b606f546040516307b9342f60e21b81526001600160a01b0383811660048301526000921690631ee4d0bc90602401602060405180830381865afa15801562002ea7573d6000803e3d6000fd5b505050506040513d601f19601f8201168201806040525081019062002ecd919062003524565b604051632933f0eb60e11b81526001600160a01b038083166004830152919250600091861690635267e1d690602401602060405180830381865afa15801562002f1a573d6000803e3d6000fd5b505050506040513d601f19601f8201168201806040525081019062002f40919062003544565b90508060000362002f52575050505050565b60008481526068602090815260408083206001600160a01b038781168552925291829020839055905163a697ecff60e01b81528382166004820181905260248201529086169063a697ecff90604401602060405180830381865afa15801562002fbf573d6000803e3d6000fd5b505050506040513d601f19601f8201168201806040525081019062002fe5919062003544565b60009485526069602090815260408087206001600160a01b0390961687529490529290932091909155505050565b81158015906200304557506040516001600160a01b0382169083156108fc029084906000818181858888f19350505050155b156200159e5781816040516200305b9062003220565b6001600160a01b0390911681526020016040518091039082f090508015801562002530573d6000803e3d6000fd5b6033546001600160a01b0316331462001e7a5760405162461bcd60e51b815260206004820181905260248201527f4f776e61626c653a2063616c6c6572206973206e6f7420746865206f776e6572604482015260640162001222565b603380546001600160a01b038381166001600160a01b0319831681179093556040519116919082907f8be0079c531659141344cd1fd0a4f28419497f9722a3daafe3b4186f6b6457e090600090a35050565b600054610100900460ff16620031a45760405162461bcd60e51b815260206004820152602b60248201527f496e697469616c697a61626c653a20636f6e7472616374206973206e6f74206960448201526a6e697469616c697a696e6760a81b606482015260840162001222565b62001e7a600054610100900460ff16620032155760405162461bcd60e51b815260206004820152602b60248201527f496e697469616c697a61626c653a20636f6e7472616374206973206e6f74206960448201526a6e697469616c697a696e6760a81b606482015260840162001222565b62001e7a33620030e5565b605980620036ed83390190565b634e487b7160e01b600052601160045260246000fd5b8082018082111562001a155762001a156200322d565b80151581146200277557600080fd5b6000602082840312156200327b57600080fd5b8135620032888162003259565b9392505050565b6001600160a01b03811681146200277557600080fd5b600060208284031215620032b857600080fd5b813562003288816200328f565b60008060408385031215620032d957600080fd5b823591506020830135620032ed816200328f565b809150509250929050565b6000806000606084860312156200330e57600080fd5b83359250602084013562003322816200328f565b929592945050506040919091013590565b600080604083850312156200334757600080fd5b823562003354816200328f565b91506020830135620032ed816200328f565b6020808252825182820181905260009190848201906040850190845b81811015620033a05783518352928401929184019160010162003382565b50909695505050505050565b600080600080600060a08688031215620033c557600080fd5b505083359560208501359550604085013594606081013594506080013592509050565b60008060008060808587031215620033ff57600080fd5b5050823594602084013594506040840135936060013592509050565b6000806000606084860312156200343157600080fd5b83356200343e816200328f565b9250602084013562003450816200328f565b9150604084013562003462816200328f565b809150509250925092565b6000602082840312156200348057600080fd5b5035919050565b600080604083850312156200349b57600080fd5b50508035926020909101359150565b600080600060608486031215620034c057600080fd5b8335620034cd816200328f565b925060208401359150604084013562003462816200328f565b600080600060608486031215620034fc57600080fd5b8335925060208401359150604084013562003462816200328f565b8051620011c4816200328f565b6000602082840312156200353757600080fd5b815162003288816200328f565b6000602082840312156200355757600080fd5b5051919050565b634e487b7160e01b600052604160045260246000fd5b600060208083850312156200358857600080fd5b825167ffffffffffffffff80821115620035a157600080fd5b818501915085601f830112620035b657600080fd5b815181811115620035cb57620035cb6200355e565b8060051b604051601f19603f83011681018181108582111715620035f357620035f36200355e565b6040529182528482019250838101850191888311156200361257600080fd5b938501935b828510156200363b576200362b8562003517565b8452938501939285019262003617565b98975050505050505050565b634e487b7160e01b600052603260045260246000fd5b6000600182016200367257620036726200322d565b5060010190565b808202811582820484141762001a155762001a156200322d565b600060208284031215620036a657600080fd5b8151620032888162003259565b8181038181111562001a155762001a156200322d565b600082620036e757634e487b7160e01b600052601260045260246000fd5b50049056fe608060405260405160593803806059833981016040819052601e91602a565b806001600160a01b0316ff5b600060208284031215603b57600080fd5b81516001600160a01b0381168114605157600080fd5b939250505056fea26469706673582212204265bb12acd244c01eecf7e5fdce2c854ec900e99f5227382b2317c78a9d7b5164736f6c63430008110033",
  "linkReferences": {},
  "deployedLinkReferences": {}
}