{
  "_format": "hh-sol-artifact-1",
  "contractName": "BlockRewardHbbft",
  "sourceName": "contracts/BlockRewardHbbft.sol",
  "abi": [
    {
      "inputs": [],
      "stateMutability": "nonpayable",
      "type": "constructor"
    },
    {
      "inputs": [],
      "name": "GetterCallFailed",
      "type": "error"
    },
    {
      "inputs": [],
      "name": "InsufficientBalance",
      "type": "error"
    },
    {
      "inputs": [],
      "name": "InvalidInitialization",
      "type": "error"
    },
    {
      "inputs": [
        {
          "internalType": "uint256",
          "name": "_newVal",
          "type": "uint256"
        }
      ],
      "name": "NewValueOutOfRange",
      "type": "error"
    },
    {
      "inputs": [],
      "name": "NotInitializing",
      "type": "error"
    },
    {
      "inputs": [
        {
          "internalType": "address",
          "name": "owner",
          "type": "address"
        }
      ],
      "name": "OwnableInvalidOwner",
      "type": "error"
    },
    {
      "inputs": [
        {
          "internalType": "address",
          "name": "account",
          "type": "address"
        }
      ],
      "name": "OwnableUnauthorizedAccount",
      "type": "error"
    },
    {
      "inputs": [],
      "name": "ReentrancyGuardReentrantCall",
      "type": "error"
    },
    {
      "inputs": [
        {
          "internalType": "address",
          "name": "recipient",
          "type": "address"
        },
        {
          "internalType": "uint256",
          "name": "amount",
          "type": "uint256"
        }
      ],
      "name": "TransferFailed",
      "type": "error"
    },
    {
      "inputs": [],
      "name": "Unauthorized",
      "type": "error"
    },
    {
      "inputs": [],
      "name": "ValidatorsListEmpty",
      "type": "error"
    },
    {
      "inputs": [],
      "name": "ZeroAddress",
      "type": "error"
    },
    {
      "inputs": [],
      "name": "ZeroPayoutFraction",
      "type": "error"
    },
    {
      "anonymous": false,
      "inputs": [
        {
          "indexed": false,
          "internalType": "uint256",
          "name": "rewards",
          "type": "uint256"
        }
      ],
      "name": "CoinsRewarded",
      "type": "event"
    },
    {
      "anonymous": false,
      "inputs": [
        {
          "indexed": false,
          "internalType": "uint64",
          "name": "version",
          "type": "uint64"
        }
      ],
      "name": "Initialized",
      "type": "event"
    },
    {
      "anonymous": false,
      "inputs": [
        {
          "indexed": true,
          "internalType": "address",
          "name": "previousOwner",
          "type": "address"
        },
        {
          "indexed": true,
          "internalType": "address",
          "name": "newOwner",
          "type": "address"
        }
      ],
      "name": "OwnershipTransferred",
      "type": "event"
    },
    {
      "anonymous": false,
      "inputs": [
        {
          "indexed": false,
          "internalType": "string",
          "name": "funcSelector",
          "type": "string"
        }
      ],
      "name": "RemoveChangeAbleParameter",
      "type": "event"
    },
    {
      "anonymous": false,
      "inputs": [
        {
          "indexed": false,
          "internalType": "string",
          "name": "setter",
          "type": "string"
        },
        {
          "indexed": false,
          "internalType": "string",
          "name": "getter",
          "type": "string"
        },
        {
          "indexed": false,
          "internalType": "uint256[]",
          "name": "params",
          "type": "uint256[]"
        }
      ],
      "name": "SetChangeAbleParameter",
      "type": "event"
    },
    {
      "anonymous": false,
      "inputs": [
        {
          "indexed": false,
          "internalType": "address",
          "name": "_connectivityTracker",
          "type": "address"
        }
      ],
      "name": "SetConnectivityTracker",
      "type": "event"
    },
    {
      "anonymous": false,
      "inputs": [
        {
          "indexed": false,
          "internalType": "uint256",
          "name": "_fraction",
          "type": "uint256"
        }
      ],
      "name": "SetDeltaPotPayoutFraction",
      "type": "event"
    },
    {
      "anonymous": false,
      "inputs": [
        {
          "indexed": false,
          "internalType": "uint256",
          "name": "_fraction",
          "type": "uint256"
        }
      ],
      "name": "SetReinsertPotPayoutFraction",
      "type": "event"
    },
    {
      "inputs": [],
      "name": "REWARD_PERCENT_MULTIPLIER",
      "outputs": [
        {
          "internalType": "uint256",
          "name": "",
          "type": "uint256"
        }
      ],
      "stateMutability": "view",
      "type": "function"
    },
    {
      "inputs": [],
      "name": "VALIDATOR_MIN_REWARD_PERCENT",
      "outputs": [
        {
          "internalType": "uint256",
          "name": "",
          "type": "uint256"
        }
      ],
      "stateMutability": "view",
      "type": "function"
    },
    {
      "inputs": [],
      "name": "addToDeltaPot",
      "outputs": [],
      "stateMutability": "payable",
      "type": "function"
    },
    {
      "inputs": [],
      "name": "addToReinsertPot",
      "outputs": [],
      "stateMutability": "payable",
      "type": "function"
    },
    {
      "inputs": [
        {
          "internalType": "bytes4",
          "name": "",
          "type": "bytes4"
        }
      ],
      "name": "allowedParameterRange",
      "outputs": [
        {
          "internalType": "bytes4",
          "name": "getter",
          "type": "bytes4"
        }
      ],
      "stateMutability": "view",
      "type": "function"
    },
    {
      "inputs": [],
      "name": "connectivityTracker",
      "outputs": [
        {
          "internalType": "contract IConnectivityTrackerHbbft",
          "name": "",
          "type": "address"
        }
      ],
      "stateMutability": "view",
      "type": "function"
    },
    {
      "inputs": [],
      "name": "deltaPot",
      "outputs": [
        {
          "internalType": "uint256",
          "name": "",
          "type": "uint256"
        }
      ],
      "stateMutability": "view",
      "type": "function"
    },
    {
      "inputs": [],
      "name": "deltaPotPayoutFraction",
      "outputs": [
        {
          "internalType": "uint256",
          "name": "",
          "type": "uint256"
        }
      ],
      "stateMutability": "view",
      "type": "function"
    },
    {
      "inputs": [],
      "name": "earlyEpochEnd",
      "outputs": [
        {
          "internalType": "bool",
          "name": "",
          "type": "bool"
        }
      ],
      "stateMutability": "view",
      "type": "function"
    },
    {
      "inputs": [],
      "name": "epochPercentage",
      "outputs": [
        {
          "internalType": "uint256",
          "name": "",
          "type": "uint256"
        }
      ],
      "stateMutability": "view",
      "type": "function"
    },
    {
      "inputs": [
        {
          "internalType": "uint256",
          "name": "",
          "type": "uint256"
        },
        {
          "internalType": "address",
          "name": "",
          "type": "address"
        }
      ],
      "name": "epochPoolNativeReward",
      "outputs": [
        {
          "internalType": "uint256",
          "name": "",
          "type": "uint256"
        }
      ],
      "stateMutability": "view",
      "type": "function"
    },
    {
      "inputs": [
        {
          "internalType": "address",
          "name": "_miningAddress",
          "type": "address"
        }
      ],
      "name": "epochsPoolGotRewardFor",
      "outputs": [
        {
          "internalType": "uint256[]",
          "name": "",
          "type": "uint256[]"
        }
      ],
      "stateMutability": "view",
      "type": "function"
    },
    {
      "inputs": [
        {
          "internalType": "string",
          "name": "_selector",
          "type": "string"
        }
      ],
      "name": "getAllowedParamsRange",
      "outputs": [
        {
          "components": [
            {
              "internalType": "bytes4",
              "name": "getter",
              "type": "bytes4"
            },
            {
              "internalType": "uint256[]",
              "name": "range",
              "type": "uint256[]"
            }
          ],
          "internalType": "struct ValueGuards.ParameterRange",
          "name": "",
          "type": "tuple"
        }
      ],
      "stateMutability": "view",
      "type": "function"
    },
    {
      "inputs": [
        {
          "internalType": "bytes4",
          "name": "_selector",
          "type": "bytes4"
        }
      ],
      "name": "getAllowedParamsRangeWithSelector",
      "outputs": [
        {
          "components": [
            {
              "internalType": "bytes4",
              "name": "getter",
              "type": "bytes4"
            },
            {
              "internalType": "uint256[]",
              "name": "range",
              "type": "uint256[]"
            }
          ],
          "internalType": "struct ValueGuards.ParameterRange",
          "name": "",
          "type": "tuple"
        }
      ],
      "stateMutability": "view",
      "type": "function"
    },
    {
      "inputs": [],
      "name": "getGovernanceAddress",
      "outputs": [
        {
          "internalType": "address",
          "name": "",
          "type": "address"
        }
      ],
      "stateMutability": "view",
      "type": "function"
    },
    {
      "inputs": [],
      "name": "governancePotAddress",
      "outputs": [
        {
          "internalType": "address payable",
          "name": "",
          "type": "address"
        }
      ],
      "stateMutability": "view",
      "type": "function"
    },
    {
      "inputs": [],
      "name": "governancePotShareDenominator",
      "outputs": [
        {
          "internalType": "uint256",
          "name": "",
          "type": "uint256"
        }
      ],
      "stateMutability": "view",
      "type": "function"
    },
    {
      "inputs": [],
      "name": "governancePotShareNominator",
      "outputs": [
        {
          "internalType": "uint256",
          "name": "",
          "type": "uint256"
        }
      ],
      "stateMutability": "view",
      "type": "function"
    },
    {
      "inputs": [
        {
          "internalType": "string",
          "name": "setter",
          "type": "string"
        },
        {
          "internalType": "string",
          "name": "getter",
          "type": "string"
        },
        {
          "internalType": "uint256[]",
          "name": "params",
          "type": "uint256[]"
        }
      ],
      "name": "initAllowedChangeableParameter",
      "outputs": [],
      "stateMutability": "nonpayable",
      "type": "function"
    },
    {
      "inputs": [
        {
          "internalType": "address",
          "name": "_contractOwner",
          "type": "address"
        },
        {
          "internalType": "address",
          "name": "_validatorSet",
          "type": "address"
        },
        {
          "internalType": "address",
          "name": "_connectivityTracker",
          "type": "address"
        }
      ],
      "name": "initialize",
      "outputs": [],
      "stateMutability": "nonpayable",
      "type": "function"
    },
    {
      "inputs": [
        {
          "internalType": "bytes4",
          "name": "funcSelector",
          "type": "bytes4"
        },
        {
          "internalType": "uint256",
          "name": "newVal",
          "type": "uint256"
        }
      ],
      "name": "isWithinAllowedRange",
      "outputs": [
        {
          "internalType": "bool",
          "name": "",
          "type": "bool"
        }
      ],
      "stateMutability": "view",
      "type": "function"
    },
    {
      "inputs": [],
      "name": "nativeRewardUndistributed",
      "outputs": [
        {
          "internalType": "uint256",
          "name": "",
          "type": "uint256"
        }
      ],
      "stateMutability": "view",
      "type": "function"
    },
    {
      "inputs": [],
      "name": "notifyEarlyEpochEnd",
      "outputs": [],
      "stateMutability": "nonpayable",
      "type": "function"
    },
    {
      "inputs": [],
      "name": "owner",
      "outputs": [
        {
          "internalType": "address",
          "name": "",
          "type": "address"
        }
      ],
      "stateMutability": "view",
      "type": "function"
    },
    {
      "inputs": [],
      "name": "reinsertPot",
      "outputs": [
        {
          "internalType": "uint256",
          "name": "",
          "type": "uint256"
        }
      ],
      "stateMutability": "view",
      "type": "function"
    },
    {
      "inputs": [],
      "name": "reinsertPotPayoutFraction",
      "outputs": [
        {
          "internalType": "uint256",
          "name": "",
          "type": "uint256"
        }
      ],
      "stateMutability": "view",
      "type": "function"
    },
    {
      "inputs": [
        {
          "internalType": "string",
          "name": "funcSelector",
          "type": "string"
        }
      ],
      "name": "removeAllowedChangeableParameter",
      "outputs": [],
      "stateMutability": "nonpayable",
      "type": "function"
    },
    {
      "inputs": [],
      "name": "renounceOwnership",
      "outputs": [],
      "stateMutability": "nonpayable",
      "type": "function"
    },
    {
      "inputs": [
        {
          "internalType": "bool",
          "name": "_isEpochEndBlock",
          "type": "bool"
        }
      ],
      "name": "reward",
      "outputs": [
        {
          "internalType": "uint256",
          "name": "rewardsNative",
          "type": "uint256"
        }
      ],
      "stateMutability": "nonpayable",
      "type": "function"
    },
    {
      "inputs": [
        {
          "internalType": "string",
          "name": "setter",
          "type": "string"
        },
        {
          "internalType": "string",
          "name": "getter",
          "type": "string"
        },
        {
          "internalType": "uint256[]",
          "name": "params",
          "type": "uint256[]"
        }
      ],
      "name": "setAllowedChangeableParameter",
      "outputs": [],
      "stateMutability": "nonpayable",
      "type": "function"
    },
    {
      "inputs": [
        {
          "internalType": "address",
          "name": "_connectivityTracker",
          "type": "address"
        }
      ],
      "name": "setConnectivityTracker",
      "outputs": [],
      "stateMutability": "nonpayable",
      "type": "function"
    },
    {
      "inputs": [
        {
          "internalType": "uint256",
          "name": "_shareNominator",
          "type": "uint256"
        }
      ],
      "name": "setGovernancePotShareNominator",
      "outputs": [],
      "stateMutability": "nonpayable",
      "type": "function"
    },
    {
      "inputs": [
        {
          "internalType": "uint256",
          "name": "_value",
          "type": "uint256"
        }
      ],
      "name": "setReinsertPotPayoutFraction",
      "outputs": [],
      "stateMutability": "nonpayable",
      "type": "function"
    },
    {
      "inputs": [
        {
          "internalType": "uint256",
          "name": "_value",
          "type": "uint256"
        }
      ],
      "name": "setdeltaPotPayoutFraction",
      "outputs": [],
      "stateMutability": "nonpayable",
      "type": "function"
    },
    {
      "inputs": [
        {
          "internalType": "address",
          "name": "newOwner",
          "type": "address"
        }
      ],
      "name": "transferOwnership",
      "outputs": [],
      "stateMutability": "nonpayable",
      "type": "function"
    },
    {
      "inputs": [
        {
          "internalType": "uint256",
          "name": "",
          "type": "uint256"
        }
      ],
      "name": "validatorMinRewardPercent",
      "outputs": [
        {
          "internalType": "uint256",
          "name": "",
          "type": "uint256"
        }
      ],
      "stateMutability": "view",
      "type": "function"
    },
    {
      "inputs": [],
      "name": "validatorSetContract",
      "outputs": [
        {
          "internalType": "contract IValidatorSetHbbft",
          "name": "",
          "type": "address"
        }
      ],
      "stateMutability": "view",
      "type": "function"
    },
    {
      "stateMutability": "payable",
      "type": "receive"
    }
  ],
  "bytecode": "0x6080604052348015600f57600080fd5b506016601a565b60ca565b7ff0c57e16840df040f15088dc2f81fe391c3923bec73e23a9662efc9c229c6a00805468010000000000000000900460ff161560695760405163f92ee8a960e01b815260040160405180910390fd5b80546001600160401b039081161460c75780546001600160401b0319166001600160401b0390811782556040519081527fc7f505b2f371ae2175ee4913f4499e1f2633a7b5936321eed1cdaeb6115181d29060200160405180910390a15b50565b612dff806100d96000396000f3fe60806040526004361061026d5760003560e01c80639228363411610153578063ba08d237116100cb578063cdf7a0901161007f578063dfc8bf4e11610064578063dfc8bf4e146106f0578063e58edc3814610710578063f2fde38b1461072757600080fd5b8063cdf7a09014610696578063dd03f5b9146106c357600080fd5b8063c0c53b8b116100b0578063c0c53b8b14610636578063c6cc933314610656578063cb68d1271461067657600080fd5b8063ba08d237146105f6578063bf348f861461061657600080fd5b8063a59546e211610122578063af18253511610107578063af182535146105b9578063b10c7548146105c1578063b710c15d146105c957600080fd5b8063a59546e21461058e578063adc481a7146105a357600080fd5b806392283634146104ef5780639740f48d146105385780639a64ca2c146105585780639b9fb6d01461056e57600080fd5b80635cb092a2116101e657806373252494116101b557806378ff69d51161019a57806378ff69d51461047c5780638da5cb5b1461049c57806391b57986146104d957600080fd5b8063732524941461044857806373f129581461046657600080fd5b80635cb092a2146103c257806366955469146103e2578063674a721414610402578063715018a61461043357600080fd5b806333d699211161023d5780633c2c943c116102225780633c2c943c1461038157806359620872146103975780635c57a801146103ac57600080fd5b806333d699211461032757806336e98ca81461035f57600080fd5b8062067a84146102915780630c0d4173146102c45780631274fa09146102d957806319cee897146102ef57600080fd5b3661028c573460076000828254610284919061278a565b925050819055005b600080fd5b34801561029d57600080fd5b506102b16102ac36600461279d565b610747565b6040519081526020015b60405180910390f35b3480156102d057600080fd5b506102b1601e81565b3480156102e557600080fd5b506102b160085481565b3480156102fb57600080fd5b50600a5461030f906001600160a01b031681565b6040516001600160a01b0390911681526020016102bb565b34801561033357600080fd5b506102b16103423660046127db565b600260209081526000928352604080842090915290825290205481565b34801561036b57600080fd5b5061037f61037a3660046128e6565b610897565b005b34801561038d57600080fd5b506102b1600c5481565b3480156103a357600080fd5b5061037f61094b565b3480156103b857600080fd5b506102b160055481565b3480156103ce57600080fd5b5061037f6103dd3660046128e6565b61098a565b3480156103ee57600080fd5b50600d5461030f906001600160a01b031681565b34801561040e57600080fd5b50600d5461042390600160a01b900460ff1681565b60405190151581526020016102bb565b34801561043f57600080fd5b5061037f610992565b34801561045457600080fd5b50600a546001600160a01b031661030f565b34801561047257600080fd5b506102b160075481565b34801561048857600080fd5b5061037f6104973660046129c9565b6109a6565b3480156104a857600080fd5b507f9016d09d72d40fdae2fd8ceac6b6234c7706214fd39c1cd1e609a0528c199300546001600160a01b031661030f565b3480156104e557600080fd5b506102b1600b5481565b3480156104fb57600080fd5b5061051f61050a3660046129fe565b60006020819052908152604090205460e01b81565b6040516001600160e01b031990911681526020016102bb565b34801561054457600080fd5b5061037f610553366004612a19565b610a37565b34801561056457600080fd5b506102b160065481565b34801561057a57600080fd5b5061037f610589366004612a32565b610a81565b34801561059a57600080fd5b506102b1610af5565b3480156105af57600080fd5b506102b160035481565b61037f610d3c565b61037f610d55565b3480156105d557600080fd5b506105e96105e4366004612a32565b610d67565b6040516102bb9190612a6f565b34801561060257600080fd5b50610423610611366004612ad1565b610e0f565b34801561062257600080fd5b506105e96106313660046129fe565b610fe0565b34801561064257600080fd5b5061037f610651366004612afb565b61107d565b34801561066257600080fd5b5061037f610671366004612a19565b611353565b34801561068257600080fd5b5061037f610691366004612a19565b6113ca565b3480156106a257600080fd5b506102b16106b1366004612a19565b60046020526000908152604090205481565b3480156106cf57600080fd5b506106e36106de3660046129c9565b611441565b6040516102bb9190612b82565b3480156106fc57600080fd5b5060095461030f906001600160a01b031681565b34801561071c57600080fd5b506102b1620f424081565b34801561073357600080fd5b5061037f6107423660046129c9565b6114ad565b60003373fffffffffffffffffffffffffffffffffffffffe1461077c576040516282b42960e81b815260040160405180910390fd5b6107846114eb565b6009546040805163239a373960e21b815290516000926001600160a01b031691638e68dce49160048083019260209291908290030181865afa1580156107ce573d6000803e3d6000fd5b505050506040513d601f19601f820116820180604052508101906107f29190612b95565b905082806108095750600d54600160a01b900460ff165b1561085f5761081781611535565b600d805460ff60a01b191690556040518181529092507ff32b9551d3414b67f8e66e20ac15e62694b9d1230abb2e2e48f9dc2e1964c4299060200160405180910390a1610868565b610868816117a7565b5061089260017f9b779b17422d0df92223018b32b4d1fa46e071723d6817e2486d003becc55f0055565b919050565b61089f611c68565b60408051808201825283516020808601919091206001600160e01b031990811683528183018581528751888401209091166000908152808352939093208251815463ffffffff191660e09190911c1781559251805192939261090792600185019201906126fa565b509050507f3d45a310c5a076ea07aa2947ca3c06cc2a8b3571065867ad6f8e7096a2c9d50a83838360405161093e93929190612c02565b60405180910390a1505050565b600d546001600160a01b03163314610975576040516282b42960e81b815260040160405180910390fd5b600d805460ff60a01b1916600160a01b179055565b61089f611cc3565b61099a611c68565b6109a46000611d11565b565b6109ae611c68565b6001600160a01b0381166109d55760405163d92e233d60e01b815260040160405180910390fd5b600d805473ffffffffffffffffffffffffffffffffffffffff19166001600160a01b0383169081179091556040519081527f387d29e18823e432432b6098ebeee33beebdb128d2234c7f486c26447b738edd906020015b60405180910390a150565b610a3f611c68565b80610a566000356001600160e01b03191682610e0f565b610a7b576040516373330d9b60e01b8152600481018290526024015b60405180910390fd5b50600b55565b610a89611c68565b80516020808301919091206001600160e01b03191660009081529081905260408120805463ffffffff1916815590610ac46001830182612745565b50507f92d44565a40fe29702ffa146ddaa3bb133d4077f5312d682d0a2632a9bc73a8a81604051610a2c9190612c45565b600080600960009054906101000a90046001600160a01b03166001600160a01b0316638e68dce46040518163ffffffff1660e01b8152600401602060405180830381865afa158015610b4b573d6000803e3d6000fd5b505050506040513d601f19601f82011682018060405250810190610b6f9190612b95565b90506000816001600160a01b0316639b03d7446040518163ffffffff1660e01b8152600401602060405180830381865afa158015610bb1573d6000803e3d6000fd5b505050506040513d601f19601f82011682018060405250810190610bd59190612c58565b826001600160a01b03166322e3d9866040518163ffffffff1660e01b8152600401602060405180830381865afa158015610c13573d6000803e3d6000fd5b505050506040513d601f19601f82011682018060405250810190610c379190612c58565b610c419190612c71565b9050816001600160a01b03166322e3d9866040518163ffffffff1660e01b8152600401602060405180830381865afa158015610c81573d6000803e3d6000fd5b505050506040513d601f19601f82011682018060405250810190610ca59190612c58565b4211610d325780826001600160a01b0316639b03d7446040518163ffffffff1660e01b8152600401602060405180830381865afa158015610cea573d6000803e3d6000fd5b505050506040513d601f19601f82011682018060405250810190610d0e9190612c58565b610d189042612c71565b610d23906064612c84565b610d2d9190612c9b565b610d35565b60645b9250505090565b3460076000828254610d4e919061278a565b9091555050565b3460056000828254610d4e919061278a565b60408051808201909152600081526060602082015281516020808401919091206001600160e01b0319908116600090815280835260409081902081518083018352815460e01b9093168352600181018054835181870281018701909452808452939491938583019392830182828015610dff57602002820191906000526020600020905b815481526020019060010190808311610deb575b5050505050815250509050919050565b6001600160e01b031980831660009081526020818152604080832081518083018352815460e01b909516855260018101805483518186028101860190945280845294958695909492938584019390929190830182828015610e8f57602002820191906000526020600020905b815481526020019060010190808311610e7b575b5050505050815250509050806020015151600003610eb1576000915050610fda565b60208101518151600090610ec490611d8f565b905060005b8251811015610fd15781838281518110610ee557610ee5612cbd565b602002602001015103610fc9576000808211610f1b5783600081518110610f0e57610f0e612cbd565b6020026020010151610f40565b83610f27600184612c71565b81518110610f3757610f37612cbd565b60200260200101515b9050600060018551610f529190612c71565b8310610f84578460018651610f679190612c71565b81518110610f7757610f77612cbd565b6020026020010151610fa9565b84610f9084600161278a565b81518110610fa057610fa0612cbd565b60200260200101515b9050818814158015610fbb5750808814155b159650505050505050610fda565b600101610ec9565b50600093505050505b92915050565b6040805180820190915260008152606060208201526001600160e01b03198083166000908152602081815260409182902082518084018452815460e01b9094168452600181018054845181850281018501909552808552919385840193909290830182828015610dff5760200282019190600052602060002090815481526020019060010190808311610deb575050505050815250509050919050565b7ff0c57e16840df040f15088dc2f81fe391c3923bec73e23a9662efc9c229c6a00805468010000000000000000810460ff16159067ffffffffffffffff166000811580156110c85750825b905060008267ffffffffffffffff1660011480156110e55750303b155b9050811580156110f3575080155b156111115760405163f92ee8a960e01b815260040160405180910390fd5b845467ffffffffffffffff19166001178555831561114557845468ff00000000000000001916680100000000000000001785555b6001600160a01b038816158061116257506001600160a01b038716155b8061117457506001600160a01b038616155b156111925760405163d92e233d60e01b815260040160405180910390fd5b61119b88611e66565b6111a3611e77565b600980546001600160a01b0389811673ffffffffffffffffffffffffffffffffffffffff1992831617909255600d805492891692821692909217909155600080805260046020908152601e7f17ef568e3e12ab5b9c7254a8d58478811de00f9e6eb34345acd53bf8fd09d3ec556117706006819055600855600a805490931673da0da0da0da0da0da0da00da0da0da0da0da0da01783556001600b908155600c9390935560408051848152610180810190915291929082016101608036833701905050905060005b81518110156112a45761127f81600a61278a565b82828151811061129157611291612cbd565b602090810291909101015260010161126b565b506112fd604051806060016040528060278152602001612da3602791396040518060400160405280601d81526020017f676f7665726e616e6365506f7453686172654e6f6d696e61746f7228290000008152508361098a565b50831561134957845468ff000000000000000019168555604051600181527fc7f505b2f371ae2175ee4913f4499e1f2633a7b5936321eed1cdaeb6115181d29060200160405180910390a15b5050505050505050565b61135b611c68565b80600003611395576040517fffcfec8400000000000000000000000000000000000000000000000000000000815260040160405180910390fd5b60088190556040518181527fb914176cecdd5906f3fd1eb6fcf471c39b33cdc7142a1d8c494487c31ff40f8890602001610a2c565b6113d2611c68565b8060000361140c576040517fffcfec8400000000000000000000000000000000000000000000000000000000815260040160405180910390fd5b60068190556040518181527f8ce02935a391d407d8b483203a4f3cd8465b62a45c7274471113a192f111eda090602001610a2c565b6001600160a01b0381166000908152600160209081526040918290208054835181840281018401909452808452606093928301828280156114a157602002820191906000526020600020905b81548152602001906001019080831161148d575b50505050509050919050565b6114b5611c68565b6001600160a01b0381166114df57604051631e4fbdf760e01b815260006004820152602401610a72565b6114e881611d11565b50565b7f9b779b17422d0df92223018b32b4d1fa46e071723d6817e2486d003becc55f0080546001190161152f57604051633ee5aeb560e01b815260040160405180910390fd5b60029055565b600080826001600160a01b031663794c0c686040518163ffffffff1660e01b8152600401602060405180830381865afa158015611576573d6000803e3d6000fd5b505050506040513d601f19601f8201168201806040525081019061159a9190612c58565b600d5460405163245f8d5360e11b8152600481018390529192506001600160a01b0316906348bf1aa690602401600060405180830381600087803b1580156115e157600080fd5b505af11580156115f5573d6000803e3d6000fd5b505050506000816000146116105761160d8285611e87565b90505b600061161d83600161278a565b90506060600960009054906101000a90046001600160a01b03166001600160a01b031663eebc7a396040518163ffffffff1660e01b8152600401600060405180830381865afa158015611674573d6000803e3d6000fd5b505050506040513d6000823e601f3d908101601f1916820160405261169c9190810190612cd3565b90506116a98683836121b7565b600960009054906101000a90046001600160a01b03166001600160a01b031663b7ab4db56040518163ffffffff1660e01b8152600401600060405180830381865afa1580156116fc573d6000803e3d6000fd5b505050506040513d6000823e601f3d908101601f191682016040526117249190810190612cd3565b90506117318683836121b7565b6000828152600460208190526040808320601e90556009548151637528621160e01b815291516001600160a01b03909116936375286211938381019391929182900301818387803b15801561178557600080fd5b505af1158015611799573d6000803e3d6000fd5b509498975050505050505050565b6000816001600160a01b031663c6912cc06040518163ffffffff1660e01b8152600401602060405180830381865afa1580156117e7573d6000803e3d6000fd5b505050506040513d601f19601f8201168201806040525081019061180b9190612c58565b90506000600960009054906101000a90046001600160a01b03166001600160a01b031663b7ab4db56040518163ffffffff1660e01b8152600401600060405180830381865afa158015611862573d6000803e3d6000fd5b505050506040513d6000823e601f3d908101601f1916820160405261188a9190810190612cd3565b60095460408051630456292b60e11b8152905192935042851115926000926001600160a01b0316916308ac52569160048083019260209291908290030181865afa1580156118dc573d6000803e3d6000fd5b505050506040513d601f19601f820116820180604052508101906119009190612c58565b61190b906002612c84565b8351611918906003612c84565b11611a10576000856001600160a01b031663a5d54f656040518163ffffffff1660e01b8152600401600060405180830381865afa15801561195d573d6000803e3d6000fd5b505050506040513d6000823e601f3d908101601f191682016040526119859190810190612cd3565b519050600081118015611a045750835160095460405163efd0494760e01b8152600481018490526001600160a01b039091169063efd0494790602401602060405180830381865afa1580156119de573d6000803e3d6000fd5b505050506040513d601f19601f82011682018060405250810190611a029190612c58565b115b15611a0e57600191505b505b8180611a195750805b8015611a9e5750600960009054906101000a90046001600160a01b03166001600160a01b031663eebc7a396040518163ffffffff1660e01b8152600401600060405180830381865afa158015611a73573d6000803e3d6000fd5b505050506040513d6000823e601f3d908101601f19168201604052611a9b9190810190612cd3565b51155b15611b1057600960009054906101000a90046001600160a01b03166001600160a01b0316635ccee1de6040518163ffffffff1660e01b8152600401600060405180830381600087803b158015611af357600080fd5b505af1158015611b07573d6000803e3d6000fd5b50505050611be1565b846001600160a01b03166322e3d9866040518163ffffffff1660e01b8152600401602060405180830381865afa158015611b4e573d6000803e3d6000fd5b505050506040513d601f19601f82011682018060405250810190611b729190612c58565b4210611be157600960009054906101000a90046001600160a01b03166001600160a01b031663ade1900a6040518163ffffffff1660e01b8152600401600060405180830381600087803b158015611bc857600080fd5b505af1158015611bdc573d6000803e3d6000fd5b505050505b600a546040805163ab0eb62d60e01b815290516001600160a01b0390921691829163ab0eb62d91600480830192600092919082900301818387803b158015611c2857600080fd5b505af1925050508015611c39575060015b50505050505050565b60017f9b779b17422d0df92223018b32b4d1fa46e071723d6817e2486d003becc55f0055565b33611c9a7f9016d09d72d40fdae2fd8ceac6b6234c7706214fd39c1cd1e609a0528c199300546001600160a01b031690565b6001600160a01b0316146109a45760405163118cdaa760e01b8152336004820152602401610a72565b7ff0c57e16840df040f15088dc2f81fe391c3923bec73e23a9662efc9c229c6a005468010000000000000000900460ff166109a457604051631afcd79f60e31b815260040160405180910390fd5b7f9016d09d72d40fdae2fd8ceac6b6234c7706214fd39c1cd1e609a0528c199300805473ffffffffffffffffffffffffffffffffffffffff1981166001600160a01b03848116918217845560405192169182907f8be0079c531659141344cd1fd0a4f28419497f9722a3daafe3b4186f6b6457e090600090a3505050565b60408051600481526024810182526020810180517bffffffffffffffffffffffffffffffffffffffffffffffffffffffff166001600160e01b03198516179052905160009190829081903090611de6908590612d6d565b600060405180830381855afa9150503d8060008114611e21576040519150601f19603f3d011682016040523d82523d6000602084013e611e26565b606091505b509150915081611e4957604051635fbab09b60e11b815260040160405180910390fd5b80806020019051810190611e5d9190612c58565b95945050505050565b611e6e611cc3565b6114e8816122d9565b611e7f611cc3565b6109a46122e1565b600080600960009054906101000a90046001600160a01b03166001600160a01b031663b7ab4db56040518163ffffffff1660e01b8152600401600060405180830381865afa158015611edd573d6000803e3d6000fd5b505050506040513d6000823e601f3d908101601f19168201604052611f059190810190612cd3565b80519091506000819003611f2c576040516322b8b72360e21b815260040160405180910390fd5b6000611f37826122e9565b9050806000015160056000828254611f4f9190612c71565b9091555050602081015160078054600090611f6b908490612c71565b90915550506060810151600003611f885760009350505050610fda565b600a546040820151611fa3916001600160a01b031690612488565b60408101516060820151600090611fbb908390612c71565b9050600080611fcb898b89612534565b9150915081600003611fe7576000975050505050505050610fda565b6000611ff38385612c9b565b60008c81526004602052604090205490915081156121945760005b888110156121925783818151811061202857612028612cbd565b60200260200101511561218a5760008a828151811061204957612049612cbd565b60209081029190910101516009546040516307b9342f60e21b81526001600160a01b03808416600483015292935060009290911690631ee4d0bc90602401602060405180830381865afa1580156120a4573d6000803e3d6000fd5b505050506040513d601f19601f820116820180604052508101906120c89190612b95565b90506121158f83876001600160a01b039091166000818152600160208181526040808420805493840181558452818420909201869055948252600285528082209282529190935290912055565b604051633f3afe0160e01b81526001600160a01b038281166004830152602482018690528f1690633f3afe019087906044016000604051808303818588803b15801561216057600080fd5b505af1158015612174573d6000803e3d6000fd5b50505050508489612185919061278a565b985050505b60010161200e565b505b8587606001516121a49190612c71565b60035550939a9950505050505050505050565b60005b81518110156122d35760095482516000916001600160a01b031690631ee4d0bc908590859081106121ed576121ed612cbd565b60200260200101516040518263ffffffff1660e01b815260040161222091906001600160a01b0391909116815260200190565b602060405180830381865afa15801561223d573d6000803e3d6000fd5b505050506040513d601f19601f820116820180604052508101906122619190612b95565b6040516368563b7b60e11b8152600481018690526001600160a01b0380831660248301529192509086169063d0ac76f690604401600060405180830381600087803b1580156122af57600080fd5b505af11580156122c3573d6000803e3d6000fd5b50505050508060010190506121ba565b50505050565b6114b5611cc3565b611c42611cc3565b6123146040518060800160405280600081526020016000815260200160008152602001600081525090565b60095460408051630456292b60e11b815290516000926001600160a01b0316916308ac52569160048083019260209291908290030181865afa15801561235e573d6000803e3d6000fd5b505050506040513d601f19601f820116820180604052508101906123829190612c58565b9050600061238e610af5565b9050600060405180608001604052806000815260200160008152602001600081526020016000815250905060648360065484886005546123ce9190612c84565b6123d89190612c84565b6123e29190612c9b565b6123ec9190612c9b565b6123f69190612c9b565b815260085460075460649185918590612410908a90612c84565b61241a9190612c84565b6124249190612c9b565b61242e9190612c9b565b6124389190612c9b565b60208201819052815160035461244e919061278a565b612458919061278a565b60608201819052600c54600b5490916124719190612c84565b61247b9190612c9b565b6040820152949350505050565b804710156124a957604051631e9acf1760e31b815260040160405180910390fd5b6000826001600160a01b03168260405160006040518083038185875af1925050503d80600081146124f6576040519150601f19603f3d011682016040523d82523d6000602084013e6124fb565b606091505b505090508061252f57604051630e21dcbb60e11b81526001600160a01b038416600482015260248101839052604401610a72565b505050565b600060606000835167ffffffffffffffff8111156125545761255461280b565b60405190808252806020026020018201604052801561257d578160200160208202803683370190505b5090506000805b85518110156126ee5760095486516000916001600160a01b03808c1692635b4eafe0928c921690631ee4d0bc908c90889081106125c3576125c3612cbd565b60200260200101516040518263ffffffff1660e01b81526004016125f691906001600160a01b0391909116815260200190565b602060405180830381865afa158015612613573d6000803e3d6000fd5b505050506040513d601f19601f820116820180604052508101906126379190612b95565b6040516001600160e01b031960e085901b16815260048101929092526001600160a01b03166024820152604401602060405180830381865afa158015612681573d6000803e3d6000fd5b505050506040513d601f19601f820116820180604052508101906126a59190612c58565b9050806000036126b557506126e6565b60018483815181106126c9576126c9612cbd565b911515602092830291909101909101526126e283612d89565b9250505b600101612584565b50969095509350505050565b828054828255906000526020600020908101928215612735579160200282015b8281111561273557825182559160200191906001019061271a565b5061274192915061275f565b5090565b50805460008255906000526020600020908101906114e891905b5b808211156127415760008155600101612760565b634e487b7160e01b600052601160045260246000fd5b80820180821115610fda57610fda612774565b6000602082840312156127af57600080fd5b813580151581146127bf57600080fd5b9392505050565b6001600160a01b03811681146114e857600080fd5b600080604083850312156127ee57600080fd5b823591506020830135612800816127c6565b809150509250929050565b634e487b7160e01b600052604160045260246000fd5b604051601f8201601f1916810167ffffffffffffffff8111828210171561284a5761284a61280b565b604052919050565b600082601f83011261286357600080fd5b813567ffffffffffffffff81111561287d5761287d61280b565b612890601f8201601f1916602001612821565b8181528460208386010111156128a557600080fd5b816020850160208301376000918101602001919091529392505050565b600067ffffffffffffffff8211156128dc576128dc61280b565b5060051b60200190565b6000806000606084860312156128fb57600080fd5b833567ffffffffffffffff8082111561291357600080fd5b61291f87838801612852565b945060209150818601358181111561293657600080fd5b61294288828901612852565b94505060408601358181111561295757600080fd5b86019050601f8101871361296a57600080fd5b803561297d612978826128c2565b612821565b81815260059190911b8201830190838101908983111561299c57600080fd5b928401925b828410156129ba578335825292840192908401906129a1565b80955050505050509250925092565b6000602082840312156129db57600080fd5b81356127bf816127c6565b80356001600160e01b03198116811461089257600080fd5b600060208284031215612a1057600080fd5b6127bf826129e6565b600060208284031215612a2b57600080fd5b5035919050565b600060208284031215612a4457600080fd5b813567ffffffffffffffff811115612a5b57600080fd5b612a6784828501612852565b949350505050565b602080825282516001600160e01b031916828201528281015160408084015280516060840181905260009291820190839060808601905b80831015612ac65783518252928401926001929092019190840190612aa6565b509695505050505050565b60008060408385031215612ae457600080fd5b612aed836129e6565b946020939093013593505050565b600080600060608486031215612b1057600080fd5b8335612b1b816127c6565b92506020840135612b2b816127c6565b91506040840135612b3b816127c6565b809150509250925092565b60008151808452602080850194506020840160005b83811015612b7757815187529582019590820190600101612b5b565b509495945050505050565b6020815260006127bf6020830184612b46565b600060208284031215612ba757600080fd5b81516127bf816127c6565b60005b83811015612bcd578181015183820152602001612bb5565b50506000910152565b60008151808452612bee816020860160208601612bb2565b601f01601f19169290920160200192915050565b606081526000612c156060830186612bd6565b8281036020840152612c278186612bd6565b90508281036040840152612c3b8185612b46565b9695505050505050565b6020815260006127bf6020830184612bd6565b600060208284031215612c6a57600080fd5b5051919050565b81810381811115610fda57610fda612774565b8082028115828204841417610fda57610fda612774565b600082612cb857634e487b7160e01b600052601260045260246000fd5b500490565b634e487b7160e01b600052603260045260246000fd5b60006020808385031215612ce657600080fd5b825167ffffffffffffffff811115612cfd57600080fd5b8301601f81018513612d0e57600080fd5b8051612d1c612978826128c2565b81815260059190911b82018301908381019087831115612d3b57600080fd5b928401925b82841015612d62578351612d53816127c6565b82529284019290840190612d40565b979650505050505050565b60008251612d7f818460208701612bb2565b9190910192915050565b600060018201612d9b57612d9b612774565b506001019056fe736574476f7665726e616e6365506f7453686172654e6f6d696e61746f722875696e7432353629a2646970667358221220a4ddef41b4748c3233f468836f70c5df6d8d83a72a26c5b93e095d46b45d511864736f6c63430008190033",
  "linkReferences": {},
  "deployedLinkReferences": {}
}