{
  "_format": "hh-sol-artifact-1",
  "contractName": "BlockRewardHbbft",
  "sourceName": "contracts/BlockRewardHbbft.sol",
  "abi": [
    {
      "inputs": [],
      "stateMutability": "nonpayable",
      "type": "constructor"
    },
    {
      "inputs": [],
      "name": "GetterCallFailed",
      "type": "error"
    },
    {
      "inputs": [],
      "name": "InsufficientBalance",
      "type": "error"
    },
    {
      "inputs": [],
      "name": "InvalidInitialization",
      "type": "error"
    },
    {
      "inputs": [
        {
          "internalType": "uint256",
          "name": "_newVal",
          "type": "uint256"
        }
      ],
      "name": "NewValueOutOfRange",
      "type": "error"
    },
    {
      "inputs": [],
      "name": "NotInitializing",
      "type": "error"
    },
    {
      "inputs": [
        {
          "internalType": "address",
          "name": "owner",
          "type": "address"
        }
      ],
      "name": "OwnableInvalidOwner",
      "type": "error"
    },
    {
      "inputs": [
        {
          "internalType": "address",
          "name": "account",
          "type": "address"
        }
      ],
      "name": "OwnableUnauthorizedAccount",
      "type": "error"
    },
    {
      "inputs": [],
      "name": "ReentrancyGuardReentrantCall",
      "type": "error"
    },
    {
      "inputs": [
        {
          "internalType": "address",
          "name": "recipient",
          "type": "address"
        },
        {
          "internalType": "uint256",
          "name": "amount",
          "type": "uint256"
        }
      ],
      "name": "TransferFailed",
      "type": "error"
    },
    {
      "inputs": [],
      "name": "Unauthorized",
      "type": "error"
    },
    {
      "inputs": [],
      "name": "ValidatorsListEmpty",
      "type": "error"
    },
    {
      "inputs": [],
      "name": "ZeroAddress",
      "type": "error"
    },
    {
      "anonymous": false,
      "inputs": [
        {
          "indexed": false,
          "internalType": "uint256",
          "name": "rewards",
          "type": "uint256"
        }
      ],
      "name": "CoinsRewarded",
      "type": "event"
    },
    {
      "anonymous": false,
      "inputs": [],
      "name": "EarlyEpochEndNotificationReceived",
      "type": "event"
    },
    {
      "anonymous": false,
      "inputs": [
        {
          "indexed": false,
          "internalType": "uint64",
          "name": "version",
          "type": "uint64"
        }
      ],
      "name": "Initialized",
      "type": "event"
    },
    {
      "anonymous": false,
      "inputs": [
        {
          "indexed": true,
          "internalType": "address",
          "name": "previousOwner",
          "type": "address"
        },
        {
          "indexed": true,
          "internalType": "address",
          "name": "newOwner",
          "type": "address"
        }
      ],
      "name": "OwnershipTransferred",
      "type": "event"
    },
    {
      "anonymous": false,
      "inputs": [
        {
          "indexed": false,
          "internalType": "bytes4",
          "name": "funcSelector",
          "type": "bytes4"
        }
      ],
      "name": "RemoveChangeableParameter",
      "type": "event"
    },
    {
      "anonymous": false,
      "inputs": [
        {
          "indexed": false,
          "internalType": "bytes4",
          "name": "setter",
          "type": "bytes4"
        },
        {
          "indexed": false,
          "internalType": "bytes4",
          "name": "getter",
          "type": "bytes4"
        },
        {
          "indexed": false,
          "internalType": "uint256[]",
          "name": "params",
          "type": "uint256[]"
        }
      ],
      "name": "SetChangeableParameter",
      "type": "event"
    },
    {
      "anonymous": false,
      "inputs": [
        {
          "indexed": false,
          "internalType": "uint256",
          "name": "value",
          "type": "uint256"
        }
      ],
      "name": "SetGovernancePotShareNominator",
      "type": "event"
    },
    {
      "inputs": [],
      "name": "VALIDATOR_FIXED_REWARD_PERCENT",
      "outputs": [
        {
          "internalType": "uint256",
          "name": "",
          "type": "uint256"
        }
      ],
      "stateMutability": "view",
      "type": "function"
    },
    {
      "inputs": [],
      "name": "addToDeltaPot",
      "outputs": [],
      "stateMutability": "payable",
      "type": "function"
    },
    {
      "inputs": [],
      "name": "connectivityTracker",
      "outputs": [
        {
          "internalType": "contract IConnectivityTrackerHbbft",
          "name": "",
          "type": "address"
        }
      ],
      "stateMutability": "view",
      "type": "function"
    },
    {
      "inputs": [],
      "name": "deltaPot",
      "outputs": [
        {
          "internalType": "uint256",
          "name": "",
          "type": "uint256"
        }
      ],
      "stateMutability": "view",
      "type": "function"
    },
    {
      "inputs": [],
      "name": "deltaPotPayoutFraction",
      "outputs": [
        {
          "internalType": "uint256",
          "name": "",
          "type": "uint256"
        }
      ],
      "stateMutability": "view",
      "type": "function"
    },
    {
      "inputs": [],
      "name": "earlyEpochEnd",
      "outputs": [
        {
          "internalType": "bool",
          "name": "",
          "type": "bool"
        }
      ],
      "stateMutability": "view",
      "type": "function"
    },
    {
      "inputs": [],
      "name": "epochPercentage",
      "outputs": [
        {
          "internalType": "uint256",
          "name": "",
          "type": "uint256"
        }
      ],
      "stateMutability": "view",
      "type": "function"
    },
    {
      "inputs": [
        {
          "internalType": "uint256",
          "name": "",
          "type": "uint256"
        },
        {
          "internalType": "address",
          "name": "",
          "type": "address"
        }
      ],
      "name": "epochPoolNativeReward",
      "outputs": [
        {
          "internalType": "uint256",
          "name": "",
          "type": "uint256"
        }
      ],
      "stateMutability": "view",
      "type": "function"
    },
    {
      "inputs": [
        {
          "internalType": "address",
          "name": "_miningAddress",
          "type": "address"
        }
      ],
      "name": "epochsPoolGotRewardFor",
      "outputs": [
        {
          "internalType": "uint256[]",
          "name": "",
          "type": "uint256[]"
        }
      ],
      "stateMutability": "view",
      "type": "function"
    },
    {
      "inputs": [
        {
          "internalType": "string",
          "name": "_selector",
          "type": "string"
        }
      ],
      "name": "getAllowedParamsRange",
      "outputs": [
        {
          "components": [
            {
              "internalType": "bytes4",
              "name": "getter",
              "type": "bytes4"
            },
            {
              "internalType": "uint256[]",
              "name": "range",
              "type": "uint256[]"
            }
          ],
          "internalType": "struct ValueGuards.ParameterRange",
          "name": "",
          "type": "tuple"
        }
      ],
      "stateMutability": "view",
      "type": "function"
    },
    {
      "inputs": [
        {
          "internalType": "bytes4",
          "name": "_selector",
          "type": "bytes4"
        }
      ],
      "name": "getAllowedParamsRangeWithSelector",
      "outputs": [
        {
          "components": [
            {
              "internalType": "bytes4",
              "name": "getter",
              "type": "bytes4"
            },
            {
              "internalType": "uint256[]",
              "name": "range",
              "type": "uint256[]"
            }
          ],
          "internalType": "struct ValueGuards.ParameterRange",
          "name": "",
          "type": "tuple"
        }
      ],
      "stateMutability": "view",
      "type": "function"
    },
    {
      "inputs": [],
      "name": "getGovernanceAddress",
      "outputs": [
        {
          "internalType": "address",
          "name": "",
          "type": "address"
        }
      ],
      "stateMutability": "view",
      "type": "function"
    },
    {
      "inputs": [],
      "name": "governancePotAddress",
      "outputs": [
        {
          "internalType": "address payable",
          "name": "",
          "type": "address"
        }
      ],
      "stateMutability": "view",
      "type": "function"
    },
    {
      "inputs": [],
      "name": "governancePotShareDenominator",
      "outputs": [
        {
          "internalType": "uint256",
          "name": "",
          "type": "uint256"
        }
      ],
      "stateMutability": "view",
      "type": "function"
    },
    {
      "inputs": [],
      "name": "governancePotShareNominator",
      "outputs": [
        {
          "internalType": "uint256",
          "name": "",
          "type": "uint256"
        }
      ],
      "stateMutability": "view",
      "type": "function"
    },
    {
      "inputs": [
        {
          "internalType": "address",
          "name": "_contractOwner",
          "type": "address"
        },
        {
          "internalType": "address",
          "name": "_validatorSet",
          "type": "address"
        },
        {
          "internalType": "address",
          "name": "_connectivityTracker",
          "type": "address"
        }
      ],
      "name": "initialize",
      "outputs": [],
      "stateMutability": "nonpayable",
      "type": "function"
    },
    {
      "inputs": [
        {
          "internalType": "bytes4",
          "name": "funcSelector",
          "type": "bytes4"
        },
        {
          "internalType": "uint256",
          "name": "newVal",
          "type": "uint256"
        }
      ],
      "name": "isWithinAllowedRange",
      "outputs": [
        {
          "internalType": "bool",
          "name": "",
          "type": "bool"
        }
      ],
      "stateMutability": "view",
      "type": "function"
    },
    {
      "inputs": [],
      "name": "nativeRewardUndistributed",
      "outputs": [
        {
          "internalType": "uint256",
          "name": "",
          "type": "uint256"
        }
      ],
      "stateMutability": "view",
      "type": "function"
    },
    {
      "inputs": [],
      "name": "notifyEarlyEpochEnd",
      "outputs": [],
      "stateMutability": "nonpayable",
      "type": "function"
    },
    {
      "inputs": [],
      "name": "owner",
      "outputs": [
        {
          "internalType": "address",
          "name": "",
          "type": "address"
        }
      ],
      "stateMutability": "view",
      "type": "function"
    },
    {
      "inputs": [],
      "name": "reinsertPot",
      "outputs": [
        {
          "internalType": "uint256",
          "name": "",
          "type": "uint256"
        }
      ],
      "stateMutability": "view",
      "type": "function"
    },
    {
      "inputs": [],
      "name": "reinsertPotPayoutFraction",
      "outputs": [
        {
          "internalType": "uint256",
          "name": "",
          "type": "uint256"
        }
      ],
      "stateMutability": "view",
      "type": "function"
    },
    {
      "inputs": [
        {
          "internalType": "bytes4",
          "name": "funcSelector",
          "type": "bytes4"
        }
      ],
      "name": "removeAllowedChangeableParameter",
      "outputs": [],
      "stateMutability": "nonpayable",
      "type": "function"
    },
    {
      "inputs": [],
      "name": "renounceOwnership",
      "outputs": [],
      "stateMutability": "nonpayable",
      "type": "function"
    },
    {
      "inputs": [
        {
          "internalType": "bool",
          "name": "_isEpochEndBlock",
          "type": "bool"
        }
      ],
      "name": "reward",
      "outputs": [
        {
          "internalType": "uint256",
          "name": "rewardsNative",
          "type": "uint256"
        }
      ],
      "stateMutability": "nonpayable",
      "type": "function"
    },
    {
      "inputs": [
        {
          "internalType": "bytes4",
          "name": "setter",
          "type": "bytes4"
        },
        {
          "internalType": "bytes4",
          "name": "getter",
          "type": "bytes4"
        },
        {
          "internalType": "uint256[]",
          "name": "params",
          "type": "uint256[]"
        }
      ],
      "name": "setAllowedChangeableParameter",
      "outputs": [],
      "stateMutability": "nonpayable",
      "type": "function"
    },
    {
      "inputs": [
        {
          "internalType": "uint256",
          "name": "_shareNominator",
          "type": "uint256"
        }
      ],
      "name": "setGovernancePotShareNominator",
      "outputs": [],
      "stateMutability": "nonpayable",
      "type": "function"
    },
    {
      "inputs": [
        {
          "internalType": "address",
          "name": "newOwner",
          "type": "address"
        }
      ],
      "name": "transferOwnership",
      "outputs": [],
      "stateMutability": "nonpayable",
      "type": "function"
    },
    {
      "inputs": [
        {
          "internalType": "uint256",
          "name": "",
          "type": "uint256"
        }
      ],
      "name": "validatorMinRewardPercent",
      "outputs": [
        {
          "internalType": "uint256",
          "name": "",
          "type": "uint256"
        }
      ],
      "stateMutability": "view",
      "type": "function"
    },
    {
      "inputs": [],
      "name": "validatorSetContract",
      "outputs": [
        {
          "internalType": "contract IValidatorSetHbbft",
          "name": "",
          "type": "address"
        }
      ],
      "stateMutability": "view",
      "type": "function"
    },
    {
      "stateMutability": "payable",
      "type": "receive"
    }
  ],
  "bytecode": "0x6080604052348015600f57600080fd5b506016601a565b60ca565b7ff0c57e16840df040f15088dc2f81fe391c3923bec73e23a9662efc9c229c6a00805468010000000000000000900460ff161560695760405163f92ee8a960e01b815260040160405180910390fd5b80546001600160401b039081161460c75780546001600160401b0319166001600160401b0390811782556040519081527fc7f505b2f371ae2175ee4913f4499e1f2633a7b5936321eed1cdaeb6115181d29060200160405180910390a15b50565b612e20806100d96000396000f3fe6080604052600436106101d05760003560e01c806391b57986116100f7578063b710c15d11610095578063cdf7a09011610064578063cdf7a0901461050f578063dd03f5b91461053c578063dfc8bf4e14610569578063f2fde38b1461058957600080fd5b8063b710c15d14610482578063ba08d237146104af578063bf348f86146104cf578063c0c53b8b146104ef57600080fd5b80639a64ca2c116100d15780639a64ca2c14610439578063a59546e21461044f578063adc481a714610464578063b10c75481461047a57600080fd5b806391b57986146103ee5780639740f48d146104045780639a06e2151461042457600080fd5b80635c57a8011161016f578063732524941161013e578063732524941461035e57806373f129581461037c5780637d8149db146103915780638da5cb5b146103b157600080fd5b80635c57a801146102e257806366955469146102f8578063674a721414610318578063715018a61461034957600080fd5b806333d69921116101ab57806333d699211461025d5780633c2c943c146102955780634346845f146102ab57806359620872146102cd57600080fd5b8062067a84146101dc5780631274fa091461020f57806319cee8971461022557600080fd5b366101d757005b600080fd5b3480156101e857600080fd5b506101fc6101f736600461282b565b6105a9565b6040519081526020015b60405180910390f35b34801561021b57600080fd5b506101fc60065481565b34801561023157600080fd5b50600854610245906001600160a01b031681565b6040516001600160a01b039091168152602001610206565b34801561026957600080fd5b506101fc610278366004612869565b600160209081526000928352604080842090915290825290205481565b3480156102a157600080fd5b506101fc600a5481565b3480156102b757600080fd5b506102cb6102c63660046128b1565b6106dd565b005b3480156102d957600080fd5b506102cb6107e3565b3480156102ee57600080fd5b506101fc60045481565b34801561030457600080fd5b50600b54610245906001600160a01b031681565b34801561032457600080fd5b50600b5461033990600160a01b900460ff1681565b6040519015158152602001610206565b34801561035557600080fd5b506102cb61084b565b34801561036a57600080fd5b506008546001600160a01b0316610245565b34801561038857600080fd5b506101fc61085f565b34801561039d57600080fd5b506102cb6103ac366004612942565b610874565b3480156103bd57600080fd5b507f9016d09d72d40fdae2fd8ceac6b6234c7706214fd39c1cd1e609a0528c199300546001600160a01b0316610245565b3480156103fa57600080fd5b506101fc60095481565b34801561041057600080fd5b506102cb61041f36600461295d565b6108fe565b34801561043057600080fd5b506101fc601481565b34801561044557600080fd5b506101fc60055481565b34801561045b57600080fd5b506101fc610977565b34801561047057600080fd5b506101fc60025481565b6102cb610bbe565b34801561048e57600080fd5b506104a261049d3660046129bd565b610bd7565b6040516102069190612a52565b3480156104bb57600080fd5b506103396104ca366004612ab4565b610c87565b3480156104db57600080fd5b506104a26104ea366004612942565b610e64565b3480156104fb57600080fd5b506102cb61050a366004612ade565b610f09565b34801561051b57600080fd5b506101fc61052a36600461295d565b60036020526000908152604090205481565b34801561054857600080fd5b5061055c610557366004612b29565b61119f565b6040516102069190612b82565b34801561057557600080fd5b50600754610245906001600160a01b031681565b34801561059557600080fd5b506102cb6105a4366004612b29565b611209565b60003373fffffffffffffffffffffffffffffffffffffffe146105de576040516282b42960e81b815260040160405180910390fd5b6105e6611247565b6007546040805163239a373960e21b815290516000926001600160a01b031691638e68dce49160048083019260209291908290030181865afa158015610630573d6000803e3d6000fd5b505050506040513d601f19601f820116820180604052508101906106549190612b95565b905082156106a55761066581611291565b91507ff32b9551d3414b67f8e66e20ac15e62694b9d1230abb2e2e48f9dc2e1964c4298260405161069891815260200190565b60405180910390a16106ae565b6106ae8161150e565b506106d860017f9b779b17422d0df92223018b32b4d1fa46e071723d6817e2486d003becc55f0055565b919050565b6106e5611a8e565b60006106ef611ae9565b90506040518060400160405280857bffffffffffffffffffffffffffffffffffffffffffffffffffffffff1916815260200184848080602002602001604051908101604052809392919081815260200183836020028082843760009201829052509390945250506001600160e01b031988168152602084815260409091208351815463ffffffff191660e09190911c17815583820151805191935061079b9260018501929101906127b1565b509050507f3665bf9cd0ba4ddceeec259e21dcf8a4510f3b1130bd42e950828e69d85408ba858585856040516107d49493929190612bb2565b60405180910390a15050505050565b600b546001600160a01b0316331461080d576040516282b42960e81b815260040160405180910390fd5b600b805460ff60a01b1916600160a01b1790556040517f9f7c6e71cec61c4bd3b4af384f8b8729af23a80826f33e1431d07a09a4904b1690600090a1565b610853611a8e565b61085d6000611b4b565b565b60006004544761086f9190612c35565b905090565b61087c611a8e565b6000610886611ae9565b6001600160e01b031983166000908152602082905260408120805463ffffffff191681559192506108ba60018301826127fc565b50506040516001600160e01b0319831681527fed27cb02231782dadf13473a7828cb980c4d685791b7a3136dde00f8c3594cb6906020015b60405180910390a15050565b610906611a8e565b8061091d6000356001600160e01b03191682610c87565b610942576040516373330d9b60e01b8152600481018290526024015b60405180910390fd5b60098290556040518281527f0bae48e5d1dc3568f32952ed3a75d66d27094f2e08f508808d86627eeef22903906020016108f2565b600080600760009054906101000a90046001600160a01b03166001600160a01b0316638e68dce46040518163ffffffff1660e01b8152600401602060405180830381865afa1580156109cd573d6000803e3d6000fd5b505050506040513d601f19601f820116820180604052508101906109f19190612b95565b90506000816001600160a01b0316639b03d7446040518163ffffffff1660e01b8152600401602060405180830381865afa158015610a33573d6000803e3d6000fd5b505050506040513d601f19601f82011682018060405250810190610a579190612c48565b826001600160a01b03166322e3d9866040518163ffffffff1660e01b8152600401602060405180830381865afa158015610a95573d6000803e3d6000fd5b505050506040513d601f19601f82011682018060405250810190610ab99190612c48565b610ac39190612c35565b9050816001600160a01b03166322e3d9866040518163ffffffff1660e01b8152600401602060405180830381865afa158015610b03573d6000803e3d6000fd5b505050506040513d601f19601f82011682018060405250810190610b279190612c48565b4211610bb45780826001600160a01b0316639b03d7446040518163ffffffff1660e01b8152600401602060405180830381865afa158015610b6c573d6000803e3d6000fd5b505050506040513d601f19601f82011682018060405250810190610b909190612c48565b610b9a9042612c35565b610ba5906064612c61565b610baf9190612c78565b610bb7565b60645b9250505090565b3460046000828254610bd09190612c9a565b9091555050565b604080518082019091526000815260606020820152610bf4611ae9565b82516020808501919091206001600160e01b0319908116600090815292825260409283902083518085018552815460e01b9092168252600181018054855181860281018601909652808652929491938581019390830182828015610c7757602002820191906000526020600020905b815481526020019060010190808311610c63575b5050505050815250509050919050565b600080610c92611ae9565b6001600160e01b031980861660009081526020838152604080832081518083018352815460e01b90951685526001810180548351818602810186019094528084529697509395909385840193909190830182828015610d1057602002820191906000526020600020905b815481526020019060010190808311610cfc575b5050505050815250509050806020015151600003610d3357600092505050610e5e565b60208101518151600090610d4690611bc9565b905060005b8251811015610e545781838281518110610d6757610d67612cad565b602002602001015103610e4c576000808211610d9d5783600081518110610d9057610d90612cad565b6020026020010151610dc2565b83610da9600184612c35565b81518110610db957610db9612cad565b60200260200101515b9050600060018551610dd49190612c35565b8310610e06578460018651610de99190612c35565b81518110610df957610df9612cad565b6020026020010151610e2b565b84610e12846001612c9a565b81518110610e2257610e22612cad565b60200260200101515b9050818914158015610e3d5750808914155b15975050505050505050610e5e565b600101610d4b565b5060009450505050505b92915050565b604080518082019091526000815260606020820152610e81611ae9565b6001600160e01b03198084166000908152602092835260409081902081518083018352815460e01b9093168352600181018054835181870281018701909452808452939491938583019392830182828015610c775760200282019190600052602060002090815481526020019060010190808311610c63575050505050815250509050919050565b7ff0c57e16840df040f15088dc2f81fe391c3923bec73e23a9662efc9c229c6a00805468010000000000000000810460ff16159067ffffffffffffffff16600081158015610f545750825b905060008267ffffffffffffffff166001148015610f715750303b155b905081158015610f7f575080155b15610f9d5760405163f92ee8a960e01b815260040160405180910390fd5b845467ffffffffffffffff191660011785558315610fd157845468ff00000000000000001916680100000000000000001785555b6001600160a01b0388161580610fee57506001600160a01b038716155b8061100057506001600160a01b038616155b1561101e5760405163d92e233d60e01b815260040160405180910390fd5b61102788611ca0565b61102f611cb1565b600780546001600160a01b0389811673ffffffffffffffffffffffffffffffffffffffff1992831617909255600b805492891692821692909217825560008080526003602090815260147f3617319a054d772f909f7c479a2cebe5066e836a939412e32403c99029b92eff5561177060058190556006556008805490931673da0da0da0da0da0da0da00da0da0da0da0da0da017909255600a6009819055606490556040805184815261018081019091529092909182016101608036833701905050905060005b815181101561112f5761110a81600a612c9a565b82828151811061111c5761111c612cad565b60209081029190910101526001016110f6565b50611149639740f48d60e01b6348dabcc360e11b83611cc1565b50831561119557845468ff000000000000000019168555604051600181527fc7f505b2f371ae2175ee4913f4499e1f2633a7b5936321eed1cdaeb6115181d29060200160405180910390a15b5050505050505050565b6001600160a01b038116600090815260208181526040918290208054835181840281018401909452808452606093928301828280156111fd57602002820191906000526020600020905b8154815260200190600101908083116111e9575b50505050509050919050565b611211611a8e565b6001600160a01b03811661123b57604051631e4fbdf760e01b815260006004820152602401610939565b61124481611b4b565b50565b7f9b779b17422d0df92223018b32b4d1fa46e071723d6817e2486d003becc55f0080546001190161128b57604051633ee5aeb560e01b815260040160405180910390fd5b60029055565b600080826001600160a01b031663794c0c686040518163ffffffff1660e01b8152600401602060405180830381865afa1580156112d2573d6000803e3d6000fd5b505050506040513d601f19601f820116820180604052508101906112f69190612c48565b600b5460405163245f8d5360e11b8152600481018390529192506001600160a01b0316906348bf1aa690602401600060405180830381600087803b15801561133d57600080fd5b505af1158015611351573d6000803e3d6000fd5b5050505060008160001461136c576113698285611d76565b90505b6000611379836001612c9a565b90506060600760009054906101000a90046001600160a01b03166001600160a01b031663eebc7a396040518163ffffffff1660e01b8152600401600060405180830381865afa1580156113d0573d6000803e3d6000fd5b505050506040513d6000823e601f3d908101601f191682016040526113f89190810190612cc3565b905061140586838361209b565b600760009054906101000a90046001600160a01b03166001600160a01b031663b7ab4db56040518163ffffffff1660e01b8152600401600060405180830381865afa158015611458573d6000803e3d6000fd5b505050506040513d6000823e601f3d908101601f191682016040526114809190810190612cc3565b905061148d86838361209b565b600082815260036020526040808220601490556007548151637528621160e01b815291516001600160a01b03909116926375286211926004808201939182900301818387803b1580156114df57600080fd5b505af11580156114f3573d6000803e3d6000fd5b5050600b805460ff60a01b1916905550929695505050505050565b6000816001600160a01b031663c6912cc06040518163ffffffff1660e01b8152600401602060405180830381865afa15801561154e573d6000803e3d6000fd5b505050506040513d601f19601f820116820180604052508101906115729190612c48565b90506000814210159050600080600760009054906101000a90046001600160a01b03166001600160a01b0316635d5fcbce6040518163ffffffff1660e01b8152600401602060405180830381865afa1580156115d2573d6000803e3d6000fd5b505050506040513d601f19601f820116820180604052508101906115f69190612c48565b9050600760009054906101000a90046001600160a01b03166001600160a01b03166308ac52566040518163ffffffff1660e01b8152600401602060405180830381865afa15801561164b573d6000803e3d6000fd5b505050506040513d601f19601f8201168201806040525081019061166f9190612c48565b61167a906002612c61565b611685826003612c61565b1161177b576000856001600160a01b031663a5d54f656040518163ffffffff1660e01b8152600401600060405180830381865afa1580156116ca573d6000803e3d6000fd5b505050506040513d6000823e601f3d908101601f191682016040526116f29190810190612cc3565b51905060008111801561176f575060075460405163efd0494760e01b81526004810183905283916001600160a01b03169063efd0494790602401602060405180830381865afa158015611749573d6000803e3d6000fd5b505050506040513d601f19601f8201168201806040525081019061176d9190612c48565b115b1561177957600192505b505b600083806117865750825b8061179a5750600b54600160a01b900460ff165b90506000600760009054906101000a90046001600160a01b03166001600160a01b031663eebc7a396040518163ffffffff1660e01b8152600401600060405180830381865afa1580156117f1573d6000803e3d6000fd5b505050506040513d6000823e601f3d908101601f191682016040526118199190810190612cc3565b519050818015611827575080155b1561190557600760009054906101000a90046001600160a01b03166001600160a01b0316635ccee1de6040518163ffffffff1660e01b8152600401600060405180830381600087803b15801561187c57600080fd5b505af1158015611890573d6000803e3d6000fd5b50505050846118f357604051633a1285cd60e21b81524260048201526001600160a01b0388169063e84a173490602401600060405180830381600087803b1580156118da57600080fd5b505af11580156118ee573d6000803e3d6000fd5b505050505b600b805460ff60a01b191690556119d6565b866001600160a01b031663bb57c8ac6040518163ffffffff1660e01b8152600401602060405180830381865afa158015611943573d6000803e3d6000fd5b505050506040513d601f19601f820116820180604052508101906119679190612c48565b42106119d657600760009054906101000a90046001600160a01b03166001600160a01b031663ade1900a6040518163ffffffff1660e01b8152600401600060405180830381600087803b1580156119bd57600080fd5b505af11580156119d1573d6000803e3d6000fd5b505050505b600b54600160a01b900460ff1680156119ee57508015155b15611a0157600b805460ff60a01b191690555b6008546040805163ab0eb62d60e01b815290516001600160a01b0390921691829163ab0eb62d91600480830192600092919082900301818387803b158015611a4857600080fd5b505af1925050508015611a59575060015b15611195575050505050505050565b60017f9b779b17422d0df92223018b32b4d1fa46e071723d6817e2486d003becc55f0055565b33611ac07f9016d09d72d40fdae2fd8ceac6b6234c7706214fd39c1cd1e609a0528c199300546001600160a01b031690565b6001600160a01b03161461085d5760405163118cdaa760e01b8152336004820152602401610939565b60008060ff19611b1a60017fdace3fd3d1fbdfd33853f19ba191d28c617e373ec58fc73cf7b58db5aff2c2ab612c35565b604051602001611b2c91815260200190565b60408051601f1981840301815291905280516020909101201692915050565b7f9016d09d72d40fdae2fd8ceac6b6234c7706214fd39c1cd1e609a0528c199300805473ffffffffffffffffffffffffffffffffffffffff1981166001600160a01b03848116918217845560405192169182907f8be0079c531659141344cd1fd0a4f28419497f9722a3daafe3b4186f6b6457e090600090a3505050565b60408051600481526024810182526020810180517bffffffffffffffffffffffffffffffffffffffffffffffffffffffff166001600160e01b03198516179052905160009190829081903090611c20908590612d75565b600060405180830381855afa9150503d8060008114611c5b576040519150601f19603f3d011682016040523d82523d6000602084013e611c60565b606091505b509150915081611c8357604051635fbab09b60e11b815260040160405180910390fd5b80806020019051810190611c979190612c48565b95945050505050565b611ca86121bd565b6112448161220b565b611cb96121bd565b61085d612213565b611cc96121bd565b6000611cd3611ae9565b6040805180820182526001600160e01b0319868116825260208083018781529189166000908152858252939093208251815463ffffffff191660e09190911c1781559051805194955091939092611d319260018501929101906127b1565b509050507f3665bf9cd0ba4ddceeec259e21dcf8a4510f3b1130bd42e950828e69d85408ba848484604051611d6893929190612da4565b60405180910390a150505050565b600080600760009054906101000a90046001600160a01b03166001600160a01b031663b7ab4db56040518163ffffffff1660e01b8152600401600060405180830381865afa158015611dcc573d6000803e3d6000fd5b505050506040513d6000823e601f3d908101601f19168201604052611df49190810190612cc3565b80519091506000819003611e1b576040516322b8b72360e21b815260040160405180910390fd5b6000611e268261221b565b90508060600151600003611e405760009350505050610e5e565b805160048054600090611e54908490612c35565b909155505060408101516060820151600090611e71908390612c35565b9050600080611e81898b8961241d565b9150915081600003611eb157838560600151611e9d9190612c35565b6002555060009650610e5e95505050505050565b6000611ebd8385612c78565b60008c815260036020526040902054909150811561205d5760005b8881101561205b57838181518110611ef257611ef2612cad565b6020026020010151156120535760008a8281518110611f1357611f13612cad565b60209081029190910101516007546040516307b9342f60e21b81526001600160a01b03808416600483015292935060009290911690631ee4d0bc90602401602060405180830381865afa158015611f6e573d6000803e3d6000fd5b505050506040513d601f19601f82011682018060405250810190611f929190612b95565b9050611fde8f83876001600160a01b0390911660008181526020818152604080832080546001818101835591855283852001879055958352948152848220928252919091529190912055565b611fe8858a612c9a565b604051633f3afe0160e01b81526001600160a01b03838116600483015260248201879052919a50908f1690633f3afe019087906044016000604051808303818588803b15801561203757600080fd5b505af115801561204b573d6000803e3d6000fd5b505050505050505b600101611ed8565b505b85876060015161206d9190612c35565b600255600854604088015161208b916001600160a01b031690612705565b50939a9950505050505050505050565b60005b81518110156121b75760075482516000916001600160a01b031690631ee4d0bc908590859081106120d1576120d1612cad565b60200260200101516040518263ffffffff1660e01b815260040161210491906001600160a01b0391909116815260200190565b602060405180830381865afa158015612121573d6000803e3d6000fd5b505050506040513d601f19601f820116820180604052508101906121459190612b95565b6040516368563b7b60e11b8152600481018690526001600160a01b0380831660248301529192509086169063d0ac76f690604401600060405180830381600087803b15801561219357600080fd5b505af11580156121a7573d6000803e3d6000fd5b505050505080600101905061209e565b50505050565b7ff0c57e16840df040f15088dc2f81fe391c3923bec73e23a9662efc9c229c6a005468010000000000000000900460ff1661085d57604051631afcd79f60e31b815260040160405180910390fd5b6112116121bd565b611a686121bd565b6122466040518060800160405280600081526020016000815260200160008152602001600081525090565b60075460408051630456292b60e11b815290516000926001600160a01b0316916308ac52569160048083019260209291908290030181865afa158015612290573d6000803e3d6000fd5b505050506040513d601f19601f820116820180604052508101906122b49190612c48565b905060006122c0610977565b9050600060405180608001604052806000815260200160008152602001600081526020016000815250905060648360055484886004546123009190612c61565b61230a9190612c61565b6123149190612c78565b61231e9190612c78565b6123289190612c78565b8160000181815250506064836006548488306001600160a01b03166373f129586040518163ffffffff1660e01b8152600401602060405180830381865afa158015612377573d6000803e3d6000fd5b505050506040513d601f19601f8201168201806040525081019061239b9190612c48565b6123a59190612c61565b6123af9190612c61565b6123b99190612c78565b6123c39190612c78565b6123cd9190612c78565b6020820181905281516002546123e39190612c9a565b6123ed9190612c9a565b60608201819052600a5460095490916124069190612c61565b6124109190612c78565b6040820152949350505050565b600060606000835167ffffffffffffffff81111561243d5761243d612976565b604051908082528060200260200182016040528015612466578160200160208202803683370190505b5090506000866001600160a01b0316639b03d7446040518163ffffffff1660e01b8152600401602060405180830381865afa1580156124a9573d6000803e3d6000fd5b505050506040513d601f19601f820116820180604052508101906124cd9190612c48565b90506000805b86518110156126f75760075487516000916001600160a01b03808d1692635b4eafe0928d921690631ee4d0bc908d908890811061251257612512612cad565b60200260200101516040518263ffffffff1660e01b815260040161254591906001600160a01b0391909116815260200190565b602060405180830381865afa158015612562573d6000803e3d6000fd5b505050506040513d601f19601f820116820180604052508101906125869190612b95565b6040516001600160e01b031960e085901b16815260048101929092526001600160a01b03166024820152604401602060405180830381865afa1580156125d0573d6000803e3d6000fd5b505050506040513d601f19601f820116820180604052508101906125f49190612c48565b90508060000361260457506126ef565b60075488516000916001600160a01b0316906360e5c520908b908690811061262e5761262e612cad565b60200260200101516040518263ffffffff1660e01b815260040161266191906001600160a01b0391909116815260200190565b602060405180830381865afa15801561267e573d6000803e3d6000fd5b505050506040513d601f19601f820116820180604052508101906126a29190612c48565b90508015806126b15750848110155b156126bd5750506126ef565b60018684815181106126d1576126d1612cad565b911515602092830291909101909101526126ea84612dd1565b935050505b6001016124d3565b509791965090945050505050565b8047101561272657604051631e9acf1760e31b815260040160405180910390fd5b6000826001600160a01b03168260405160006040518083038185875af1925050503d8060008114612773576040519150601f19603f3d011682016040523d82523d6000602084013e612778565b606091505b50509050806127ac57604051630e21dcbb60e11b81526001600160a01b038416600482015260248101839052604401610939565b505050565b8280548282559060005260206000209081019282156127ec579160200282015b828111156127ec5782518255916020019190600101906127d1565b506127f8929150612816565b5090565b508054600082559060005260206000209081019061124491905b5b808211156127f85760008155600101612817565b60006020828403121561283d57600080fd5b8135801515811461284d57600080fd5b9392505050565b6001600160a01b038116811461124457600080fd5b6000806040838503121561287c57600080fd5b82359150602083013561288e81612854565b809150509250929050565b80356001600160e01b0319811681146106d857600080fd5b600080600080606085870312156128c757600080fd5b6128d085612899565b93506128de60208601612899565b9250604085013567ffffffffffffffff808211156128fb57600080fd5b818701915087601f83011261290f57600080fd5b81358181111561291e57600080fd5b8860208260051b850101111561293357600080fd5b95989497505060200194505050565b60006020828403121561295457600080fd5b61284d82612899565b60006020828403121561296f57600080fd5b5035919050565b634e487b7160e01b600052604160045260246000fd5b604051601f8201601f1916810167ffffffffffffffff811182821017156129b5576129b5612976565b604052919050565b600060208083850312156129d057600080fd5b823567ffffffffffffffff808211156129e857600080fd5b818501915085601f8301126129fc57600080fd5b813581811115612a0e57612a0e612976565b612a20601f8201601f1916850161298c565b91508082528684828501011115612a3657600080fd5b8084840185840137600090820190930192909252509392505050565b602080825282516001600160e01b031916828201528281015160408084015280516060840181905260009291820190839060808601905b80831015612aa95783518252928401926001929092019190840190612a89565b509695505050505050565b60008060408385031215612ac757600080fd5b612ad083612899565b946020939093013593505050565b600080600060608486031215612af357600080fd5b8335612afe81612854565b92506020840135612b0e81612854565b91506040840135612b1e81612854565b809150509250925092565b600060208284031215612b3b57600080fd5b813561284d81612854565b60008151808452602080850194506020840160005b83811015612b7757815187529582019590820190600101612b5b565b509495945050505050565b60208152600061284d6020830184612b46565b600060208284031215612ba757600080fd5b815161284d81612854565b6001600160e01b0319858116825284166020820152606060408201819052810182905260007f07ffffffffffffffffffffffffffffffffffffffffffffffffffffffffffffff831115612c0457600080fd5b8260051b808560808501379190910160800195945050505050565b634e487b7160e01b600052601160045260246000fd5b81810381811115610e5e57610e5e612c1f565b600060208284031215612c5a57600080fd5b5051919050565b8082028115828204841417610e5e57610e5e612c1f565b600082612c9557634e487b7160e01b600052601260045260246000fd5b500490565b80820180821115610e5e57610e5e612c1f565b634e487b7160e01b600052603260045260246000fd5b60006020808385031215612cd657600080fd5b825167ffffffffffffffff80821115612cee57600080fd5b818501915085601f830112612d0257600080fd5b815181811115612d1457612d14612976565b8060051b9150612d2584830161298c565b8181529183018401918481019088841115612d3f57600080fd5b938501935b83851015612d695784519250612d5983612854565b8282529385019390850190612d44565b98975050505050505050565b6000825160005b81811015612d965760208186018101518583015201612d7c565b506000920191825250919050565b6001600160e01b0319848116825283166020820152606060408201819052600090611c9790830184612b46565b600060018201612de357612de3612c1f565b506001019056fea26469706673582212200df79d4545403222a4be0d3cd0e64a0354161064ea7408a48870f55a0edeb97464736f6c63430008190033",
  "linkReferences": {},
  "deployedLinkReferences": {}
}