{
  "_format": "hh-sol-artifact-1",
  "contractName": "BlockRewardHbbftMock",
  "sourceName": "contracts/mockContracts/BlockRewardHbbftMock.sol",
  "abi": [
    {
      "inputs": [],
      "name": "GetterCallFailed",
      "type": "error"
    },
    {
      "inputs": [],
      "name": "InsufficientBalance",
      "type": "error"
    },
    {
      "inputs": [],
      "name": "InvalidInitialization",
      "type": "error"
    },
    {
      "inputs": [
        {
          "internalType": "uint256",
          "name": "_newVal",
          "type": "uint256"
        }
      ],
      "name": "NewValueOutOfRange",
      "type": "error"
    },
    {
      "inputs": [],
      "name": "NotInitializing",
      "type": "error"
    },
    {
      "inputs": [
        {
          "internalType": "address",
          "name": "owner",
          "type": "address"
        }
      ],
      "name": "OwnableInvalidOwner",
      "type": "error"
    },
    {
      "inputs": [
        {
          "internalType": "address",
          "name": "account",
          "type": "address"
        }
      ],
      "name": "OwnableUnauthorizedAccount",
      "type": "error"
    },
    {
      "inputs": [],
      "name": "ReentrancyGuardReentrantCall",
      "type": "error"
    },
    {
      "inputs": [
        {
          "internalType": "address",
          "name": "recipient",
          "type": "address"
        },
        {
          "internalType": "uint256",
          "name": "amount",
          "type": "uint256"
        }
      ],
      "name": "TransferFailed",
      "type": "error"
    },
    {
      "inputs": [],
      "name": "Unauthorized",
      "type": "error"
    },
    {
      "inputs": [],
      "name": "ValidatorsListEmpty",
      "type": "error"
    },
    {
      "inputs": [],
      "name": "ZeroAddress",
      "type": "error"
    },
    {
      "anonymous": false,
      "inputs": [
        {
          "indexed": false,
          "internalType": "uint256",
          "name": "rewards",
          "type": "uint256"
        }
      ],
      "name": "CoinsRewarded",
      "type": "event"
    },
    {
      "anonymous": false,
      "inputs": [],
      "name": "EarlyEpochEndNotificationReceived",
      "type": "event"
    },
    {
      "anonymous": false,
      "inputs": [
        {
          "indexed": false,
          "internalType": "uint64",
          "name": "version",
          "type": "uint64"
        }
      ],
      "name": "Initialized",
      "type": "event"
    },
    {
      "anonymous": false,
      "inputs": [
        {
          "indexed": true,
          "internalType": "address",
          "name": "previousOwner",
          "type": "address"
        },
        {
          "indexed": true,
          "internalType": "address",
          "name": "newOwner",
          "type": "address"
        }
      ],
      "name": "OwnershipTransferred",
      "type": "event"
    },
    {
      "anonymous": false,
      "inputs": [
        {
          "indexed": false,
          "internalType": "bytes4",
          "name": "funcSelector",
          "type": "bytes4"
        }
      ],
      "name": "RemoveChangeableParameter",
      "type": "event"
    },
    {
      "anonymous": false,
      "inputs": [
        {
          "indexed": false,
          "internalType": "bytes4",
          "name": "setter",
          "type": "bytes4"
        },
        {
          "indexed": false,
          "internalType": "bytes4",
          "name": "getter",
          "type": "bytes4"
        },
        {
          "indexed": false,
          "internalType": "uint256[]",
          "name": "params",
          "type": "uint256[]"
        }
      ],
      "name": "SetChangeableParameter",
      "type": "event"
    },
    {
      "anonymous": false,
      "inputs": [
        {
          "indexed": false,
          "internalType": "uint256",
          "name": "value",
          "type": "uint256"
        }
      ],
      "name": "SetGovernancePotShareNominator",
      "type": "event"
    },
    {
      "inputs": [],
      "name": "VALIDATOR_FIXED_REWARD_PERCENT",
      "outputs": [
        {
          "internalType": "uint256",
          "name": "",
          "type": "uint256"
        }
      ],
      "stateMutability": "view",
      "type": "function"
    },
    {
      "inputs": [],
      "name": "addToDeltaPot",
      "outputs": [],
      "stateMutability": "payable",
      "type": "function"
    },
    {
      "inputs": [],
      "name": "addToReinsertPot",
      "outputs": [],
      "stateMutability": "payable",
      "type": "function"
    },
    {
      "inputs": [],
      "name": "connectivityTracker",
      "outputs": [
        {
          "internalType": "contract IConnectivityTrackerHbbft",
          "name": "",
          "type": "address"
        }
      ],
      "stateMutability": "view",
      "type": "function"
    },
    {
      "inputs": [],
      "name": "deltaPot",
      "outputs": [
        {
          "internalType": "uint256",
          "name": "",
          "type": "uint256"
        }
      ],
      "stateMutability": "view",
      "type": "function"
    },
    {
      "inputs": [],
      "name": "deltaPotPayoutFraction",
      "outputs": [
        {
          "internalType": "uint256",
          "name": "",
          "type": "uint256"
        }
      ],
      "stateMutability": "view",
      "type": "function"
    },
    {
      "inputs": [],
      "name": "earlyEpochEnd",
      "outputs": [
        {
          "internalType": "bool",
          "name": "",
          "type": "bool"
        }
      ],
      "stateMutability": "view",
      "type": "function"
    },
    {
      "inputs": [],
      "name": "epochPercentage",
      "outputs": [
        {
          "internalType": "uint256",
          "name": "",
          "type": "uint256"
        }
      ],
      "stateMutability": "view",
      "type": "function"
    },
    {
      "inputs": [
        {
          "internalType": "uint256",
          "name": "",
          "type": "uint256"
        },
        {
          "internalType": "address",
          "name": "",
          "type": "address"
        }
      ],
      "name": "epochPoolNativeReward",
      "outputs": [
        {
          "internalType": "uint256",
          "name": "",
          "type": "uint256"
        }
      ],
      "stateMutability": "view",
      "type": "function"
    },
    {
      "inputs": [
        {
          "internalType": "address",
          "name": "_miningAddress",
          "type": "address"
        }
      ],
      "name": "epochsPoolGotRewardFor",
      "outputs": [
        {
          "internalType": "uint256[]",
          "name": "",
          "type": "uint256[]"
        }
      ],
      "stateMutability": "view",
      "type": "function"
    },
    {
      "inputs": [
        {
          "internalType": "string",
          "name": "_selector",
          "type": "string"
        }
      ],
      "name": "getAllowedParamsRange",
      "outputs": [
        {
          "components": [
            {
              "internalType": "bytes4",
              "name": "getter",
              "type": "bytes4"
            },
            {
              "internalType": "uint256[]",
              "name": "range",
              "type": "uint256[]"
            }
          ],
          "internalType": "struct ValueGuards.ParameterRange",
          "name": "",
          "type": "tuple"
        }
      ],
      "stateMutability": "view",
      "type": "function"
    },
    {
      "inputs": [
        {
          "internalType": "bytes4",
          "name": "_selector",
          "type": "bytes4"
        }
      ],
      "name": "getAllowedParamsRangeWithSelector",
      "outputs": [
        {
          "components": [
            {
              "internalType": "bytes4",
              "name": "getter",
              "type": "bytes4"
            },
            {
              "internalType": "uint256[]",
              "name": "range",
              "type": "uint256[]"
            }
          ],
          "internalType": "struct ValueGuards.ParameterRange",
          "name": "",
          "type": "tuple"
        }
      ],
      "stateMutability": "view",
      "type": "function"
    },
    {
      "inputs": [],
      "name": "getGovernanceAddress",
      "outputs": [
        {
          "internalType": "address",
          "name": "",
          "type": "address"
        }
      ],
      "stateMutability": "view",
      "type": "function"
    },
    {
      "inputs": [
        {
          "internalType": "uint256",
          "name": "numValidators",
          "type": "uint256"
        }
      ],
      "name": "getPotsShares",
      "outputs": [
        {
          "components": [
            {
              "internalType": "uint256",
              "name": "deltaPotAmount",
              "type": "uint256"
            },
            {
              "internalType": "uint256",
              "name": "reinsertPotAmount",
              "type": "uint256"
            },
            {
              "internalType": "uint256",
              "name": "governancePotAmount",
              "type": "uint256"
            },
            {
              "internalType": "uint256",
              "name": "totalRewards",
              "type": "uint256"
            }
          ],
          "internalType": "struct BlockRewardHbbft.PotsShares",
          "name": "",
          "type": "tuple"
        }
      ],
      "stateMutability": "view",
      "type": "function"
    },
    {
      "inputs": [],
      "name": "governancePotAddress",
      "outputs": [
        {
          "internalType": "address payable",
          "name": "",
          "type": "address"
        }
      ],
      "stateMutability": "view",
      "type": "function"
    },
    {
      "inputs": [],
      "name": "governancePotShareDenominator",
      "outputs": [
        {
          "internalType": "uint256",
          "name": "",
          "type": "uint256"
        }
      ],
      "stateMutability": "view",
      "type": "function"
    },
    {
      "inputs": [],
      "name": "governancePotShareNominator",
      "outputs": [
        {
          "internalType": "uint256",
          "name": "",
          "type": "uint256"
        }
      ],
      "stateMutability": "view",
      "type": "function"
    },
    {
      "inputs": [
        {
          "internalType": "address",
          "name": "_contractOwner",
          "type": "address"
        },
        {
          "internalType": "address",
          "name": "_validatorSet",
          "type": "address"
        },
        {
          "internalType": "address",
          "name": "_connectivityTracker",
          "type": "address"
        }
      ],
      "name": "initialize",
      "outputs": [],
      "stateMutability": "nonpayable",
      "type": "function"
    },
    {
      "inputs": [
        {
          "internalType": "bytes4",
          "name": "funcSelector",
          "type": "bytes4"
        },
        {
          "internalType": "uint256",
          "name": "newVal",
          "type": "uint256"
        }
      ],
      "name": "isWithinAllowedRange",
      "outputs": [
        {
          "internalType": "bool",
          "name": "",
          "type": "bool"
        }
      ],
      "stateMutability": "view",
      "type": "function"
    },
    {
      "inputs": [],
      "name": "nativeRewardUndistributed",
      "outputs": [
        {
          "internalType": "uint256",
          "name": "",
          "type": "uint256"
        }
      ],
      "stateMutability": "view",
      "type": "function"
    },
    {
      "inputs": [],
      "name": "notifyEarlyEpochEnd",
      "outputs": [],
      "stateMutability": "nonpayable",
      "type": "function"
    },
    {
      "inputs": [],
      "name": "owner",
      "outputs": [
        {
          "internalType": "address",
          "name": "",
          "type": "address"
        }
      ],
      "stateMutability": "view",
      "type": "function"
    },
    {
      "inputs": [],
      "name": "reinsertPot",
      "outputs": [
        {
          "internalType": "uint256",
          "name": "",
          "type": "uint256"
        }
      ],
      "stateMutability": "view",
      "type": "function"
    },
    {
      "inputs": [],
      "name": "reinsertPotPayoutFraction",
      "outputs": [
        {
          "internalType": "uint256",
          "name": "",
          "type": "uint256"
        }
      ],
      "stateMutability": "view",
      "type": "function"
    },
    {
      "inputs": [
        {
          "internalType": "bytes4",
          "name": "funcSelector",
          "type": "bytes4"
        }
      ],
      "name": "removeAllowedChangeableParameter",
      "outputs": [],
      "stateMutability": "nonpayable",
      "type": "function"
    },
    {
      "inputs": [],
      "name": "renounceOwnership",
      "outputs": [],
      "stateMutability": "nonpayable",
      "type": "function"
    },
    {
      "inputs": [],
      "name": "resetEarlyEpochEnd",
      "outputs": [],
      "stateMutability": "nonpayable",
      "type": "function"
    },
    {
      "inputs": [
        {
          "internalType": "bool",
          "name": "_isEpochEndBlock",
          "type": "bool"
        }
      ],
      "name": "reward",
      "outputs": [
        {
          "internalType": "uint256",
          "name": "rewardsNative",
          "type": "uint256"
        }
      ],
      "stateMutability": "nonpayable",
      "type": "function"
    },
    {
      "inputs": [],
      "name": "sendCoins",
      "outputs": [],
      "stateMutability": "payable",
      "type": "function"
    },
    {
      "inputs": [
        {
          "internalType": "bytes4",
          "name": "setter",
          "type": "bytes4"
        },
        {
          "internalType": "bytes4",
          "name": "getter",
          "type": "bytes4"
        },
        {
          "internalType": "uint256[]",
          "name": "params",
          "type": "uint256[]"
        }
      ],
      "name": "setAllowedChangeableParameter",
      "outputs": [],
      "stateMutability": "nonpayable",
      "type": "function"
    },
    {
      "inputs": [
        {
          "internalType": "address",
          "name": "_connectivityTracker",
          "type": "address"
        }
      ],
      "name": "setConnectivityTracker",
      "outputs": [],
      "stateMutability": "nonpayable",
      "type": "function"
    },
    {
      "inputs": [
        {
          "internalType": "address",
          "name": "_address",
          "type": "address"
        }
      ],
      "name": "setGovernanceAddress",
      "outputs": [],
      "stateMutability": "nonpayable",
      "type": "function"
    },
    {
      "inputs": [
        {
          "internalType": "uint256",
          "name": "_shareNominator",
          "type": "uint256"
        }
      ],
      "name": "setGovernancePotShareNominator",
      "outputs": [],
      "stateMutability": "nonpayable",
      "type": "function"
    },
    {
      "inputs": [
        {
          "internalType": "address",
          "name": "newOwner",
          "type": "address"
        }
      ],
      "name": "transferOwnership",
      "outputs": [],
      "stateMutability": "nonpayable",
      "type": "function"
    },
    {
      "inputs": [
        {
          "internalType": "uint256",
          "name": "",
          "type": "uint256"
        }
      ],
      "name": "validatorMinRewardPercent",
      "outputs": [
        {
          "internalType": "uint256",
          "name": "",
          "type": "uint256"
        }
      ],
      "stateMutability": "view",
      "type": "function"
    },
    {
      "inputs": [],
      "name": "validatorSetContract",
      "outputs": [
        {
          "internalType": "contract IValidatorSetHbbft",
          "name": "",
          "type": "address"
        }
      ],
      "stateMutability": "view",
      "type": "function"
    },
    {
      "stateMutability": "payable",
      "type": "receive"
    }
  ],
  "bytecode": "0x6080604052348015600f57600080fd5b506016601a565b60ca565b7ff0c57e16840df040f15088dc2f81fe391c3923bec73e23a9662efc9c229c6a00805468010000000000000000900460ff161560695760405163f92ee8a960e01b815260040160405180910390fd5b80546001600160401b039081161460c75780546001600160401b0319166001600160401b0390811782556040519081527fc7f505b2f371ae2175ee4913f4499e1f2633a7b5936321eed1cdaeb6115181d29060200160405180910390a15b50565b612f20806100d96000396000f3fe6080604052600436106102525760003560e01c80639740f48d11610138578063bf348f86116100b0578063dd03f5b91161007f578063dfc8bf4e11610064578063dfc8bf4e146106f8578063f2fde38b14610718578063f302163d1461036557600080fd5b8063dd03f5b9146106ac578063dd0707d4146106d957600080fd5b8063bf348f8614610602578063c0c53b8b14610622578063cdf7a09014610642578063cfc162541461066f57600080fd5b8063adc481a711610107578063b10c7548116100ec578063b10c7548146105ad578063b710c15d146105b5578063ba08d237146105e257600080fd5b8063adc481a71461058f578063af182535146105a557600080fd5b80639740f48d1461052f5780639a06e2151461054f5780639a64ca2c14610564578063a59546e21461057a57600080fd5b806366955469116101cb57806373f129581161019a5780637d8149db1161017f5780637d8149db146104bc5780638da5cb5b146104dc57806391b579861461051957600080fd5b806373f129581461046957806378ff69d51461047f57600080fd5b806366955469146103e5578063674a721414610405578063715018a614610436578063732524941461044b57600080fd5b80633c2c943c11610222578063596208721161020757806359620872146103675780635c57a8011461037c5780635cbc1a6f1461039257600080fd5b80633c2c943c1461032f5780634346845f1461034557600080fd5b8062067a84146102765780631274fa09146102a957806319cee897146102bf57806333d69921146102f757600080fd5b366102715734600660008282546102699190612941565b925050819055005b600080fd5b34801561028257600080fd5b50610296610291366004612954565b610738565b6040519081526020015b60405180910390f35b3480156102b557600080fd5b5061029660075481565b3480156102cb57600080fd5b506009546102df906001600160a01b031681565b6040516001600160a01b0390911681526020016102a0565b34801561030357600080fd5b50610296610312366004612992565b600160209081526000928352604080842090915290825290205481565b34801561033b57600080fd5b50610296600b5481565b34801561035157600080fd5b506103656103603660046129da565b61086c565b005b34801561037357600080fd5b50610365610972565b34801561038857600080fd5b5061029660045481565b34801561039e57600080fd5b506103b26103ad366004612a6b565b6109da565b6040516102a091908151815260208083015190820152604080830151908201526060918201519181019190915260800190565b3480156103f157600080fd5b50600c546102df906001600160a01b031681565b34801561041157600080fd5b50600c5461042690600160a01b900460ff1681565b60405190151581526020016102a0565b34801561044257600080fd5b50610365610a14565b34801561045757600080fd5b506009546001600160a01b03166102df565b34801561047557600080fd5b5061029660065481565b34801561048b57600080fd5b5061036561049a366004612a84565b600c80546001600160a01b0319166001600160a01b0392909216919091179055565b3480156104c857600080fd5b506103656104d7366004612aa1565b610a28565b3480156104e857600080fd5b507f9016d09d72d40fdae2fd8ceac6b6234c7706214fd39c1cd1e609a0528c199300546001600160a01b03166102df565b34801561052557600080fd5b50610296600a5481565b34801561053b57600080fd5b5061036561054a366004612a6b565b610ab2565b34801561055b57600080fd5b50610296601481565b34801561057057600080fd5b5061029660055481565b34801561058657600080fd5b50610296610b2b565b34801561059b57600080fd5b5061029660025481565b610365610d72565b610365610d8b565b3480156105c157600080fd5b506105d56105d0366004612b03565b610d9d565b6040516102a09190612b98565b3480156105ee57600080fd5b506104266105fd366004612bfa565b610e4d565b34801561060e57600080fd5b506105d561061d366004612aa1565b611028565b34801561062e57600080fd5b5061036561063d366004612c24565b6110cd565b34801561064e57600080fd5b5061029661065d366004612a6b565b60036020526000908152604090205481565b34801561067b57600080fd5b5061036561068a366004612a84565b600980546001600160a01b0319166001600160a01b0392909216919091179055565b3480156106b857600080fd5b506106cc6106c7366004612a84565b611355565b6040516102a09190612cab565b3480156106e557600080fd5b50610365600c805460ff60a01b19169055565b34801561070457600080fd5b506008546102df906001600160a01b031681565b34801561072457600080fd5b50610365610733366004612a84565b6113bf565b60003373fffffffffffffffffffffffffffffffffffffffe1461076d576040516282b42960e81b815260040160405180910390fd5b6107756113fd565b6008546040805163239a373960e21b815290516000926001600160a01b031691638e68dce49160048083019260209291908290030181865afa1580156107bf573d6000803e3d6000fd5b505050506040513d601f19601f820116820180604052508101906107e39190612cbe565b90508215610834576107f481611447565b91507ff32b9551d3414b67f8e66e20ac15e62694b9d1230abb2e2e48f9dc2e1964c4298260405161082791815260200190565b60405180910390a161083d565b61083d816116c4565b5061086760017f9b779b17422d0df92223018b32b4d1fa46e071723d6817e2486d003becc55f0055565b919050565b610874611be2565b600061087e611c3d565b90506040518060400160405280857bffffffffffffffffffffffffffffffffffffffffffffffffffffffff1916815260200184848080602002602001604051908101604052809392919081815260200183836020028082843760009201829052509390945250506001600160e01b031988168152602084815260409091208351815463ffffffff191660e09190911c17815583820151805191935061092a9260018501929101906128b1565b509050507f3665bf9cd0ba4ddceeec259e21dcf8a4510f3b1130bd42e950828e69d85408ba858585856040516109639493929190612cdb565b60405180910390a15050505050565b600c546001600160a01b0316331461099c576040516282b42960e81b815260040160405180910390fd5b600c805460ff60a01b1916600160a01b1790556040517f9f7c6e71cec61c4bd3b4af384f8b8729af23a80826f33e1431d07a09a4904b1690600090a1565b610a056040518060800160405280600081526020016000815260200160008152602001600081525090565b610a0e82611c9f565b92915050565b610a1c611be2565b610a266000611e3e565b565b610a30611be2565b6000610a3a611c3d565b6001600160e01b031983166000908152602082905260408120805463ffffffff19168155919250610a6e60018301826128fc565b50506040516001600160e01b0319831681527fed27cb02231782dadf13473a7828cb980c4d685791b7a3136dde00f8c3594cb6906020015b60405180910390a15050565b610aba611be2565b80610ad16000356001600160e01b03191682610e4d565b610af6576040516373330d9b60e01b8152600481018290526024015b60405180910390fd5b600a8290556040518281527f0bae48e5d1dc3568f32952ed3a75d66d27094f2e08f508808d86627eeef2290390602001610aa6565b600080600860009054906101000a90046001600160a01b03166001600160a01b0316638e68dce46040518163ffffffff1660e01b8152600401602060405180830381865afa158015610b81573d6000803e3d6000fd5b505050506040513d601f19601f82011682018060405250810190610ba59190612cbe565b90506000816001600160a01b0316639b03d7446040518163ffffffff1660e01b8152600401602060405180830381865afa158015610be7573d6000803e3d6000fd5b505050506040513d601f19601f82011682018060405250810190610c0b9190612d48565b826001600160a01b03166322e3d9866040518163ffffffff1660e01b8152600401602060405180830381865afa158015610c49573d6000803e3d6000fd5b505050506040513d601f19601f82011682018060405250810190610c6d9190612d48565b610c779190612d61565b9050816001600160a01b03166322e3d9866040518163ffffffff1660e01b8152600401602060405180830381865afa158015610cb7573d6000803e3d6000fd5b505050506040513d601f19601f82011682018060405250810190610cdb9190612d48565b4211610d685780826001600160a01b0316639b03d7446040518163ffffffff1660e01b8152600401602060405180830381865afa158015610d20573d6000803e3d6000fd5b505050506040513d601f19601f82011682018060405250810190610d449190612d48565b610d4e9042612d61565b610d59906064612d74565b610d639190612d8b565b610d6b565b60645b9250505090565b3460066000828254610d849190612941565b9091555050565b3460046000828254610d849190612941565b604080518082019091526000815260606020820152610dba611c3d565b82516020808501919091206001600160e01b0319908116600090815292825260409283902083518085018552815460e01b9092168252600181018054855181860281018601909652808652929491938581019390830182828015610e3d57602002820191906000526020600020905b815481526020019060010190808311610e29575b5050505050815250509050919050565b600080610e58611c3d565b6001600160e01b031980861660009081526020838152604080832081518083018352815460e01b90951685526001810180548351818602810186019094528084529697509395909385840193909190830182828015610ed657602002820191906000526020600020905b815481526020019060010190808311610ec2575b5050505050815250509050806020015151600003610ef957600092505050610a0e565b60208101518151600090610f0c90611eaf565b905060005b825181101561101a5781838281518110610f2d57610f2d612dad565b602002602001015103611012576000808211610f635783600081518110610f5657610f56612dad565b6020026020010151610f88565b83610f6f600184612d61565b81518110610f7f57610f7f612dad565b60200260200101515b9050600060018551610f9a9190612d61565b8310610fcc578460018651610faf9190612d61565b81518110610fbf57610fbf612dad565b6020026020010151610ff1565b84610fd8846001612941565b81518110610fe857610fe8612dad565b60200260200101515b90508189141580156110035750808914155b15975050505050505050610a0e565b600101610f11565b506000979650505050505050565b604080518082019091526000815260606020820152611045611c3d565b6001600160e01b03198084166000908152602092835260409081902081518083018352815460e01b9093168352600181018054835181870281018701909452808452939491938583019392830182828015610e3d5760200282019190600052602060002090815481526020019060010190808311610e29575050505050815250509050919050565b7ff0c57e16840df040f15088dc2f81fe391c3923bec73e23a9662efc9c229c6a00805468010000000000000000810460ff16159067ffffffffffffffff166000811580156111185750825b905060008267ffffffffffffffff1660011480156111355750303b155b905081158015611143575080155b156111615760405163f92ee8a960e01b815260040160405180910390fd5b845467ffffffffffffffff19166001178555831561119557845468ff00000000000000001916680100000000000000001785555b6001600160a01b03881615806111b257506001600160a01b038716155b806111c457506001600160a01b038616155b156111e25760405163d92e233d60e01b815260040160405180910390fd5b6111eb88611f86565b6111f3611f97565b600880546001600160a01b038981166001600160a01b031992831617909255600c80549289169282169290921790915560008080526003602090815260147f3617319a054d772f909f7c479a2cebe5066e836a939412e32403c99029b92eff5561177060058190556007556009805490931673da0da0da0da0da0da0da00da0da0da0da0da0da017909255600a80556064600b908155604080518281526101808101909152919282016101608036833701905050905060005b81518110156112e5576112c081600a612941565b8282815181106112d2576112d2612dad565b60209081029190910101526001016112ac565b506112ff639740f48d60e01b6348dabcc360e11b83611fa7565b50831561134b57845468ff000000000000000019168555604051600181527fc7f505b2f371ae2175ee4913f4499e1f2633a7b5936321eed1cdaeb6115181d29060200160405180910390a15b5050505050505050565b6001600160a01b038116600090815260208181526040918290208054835181840281018401909452808452606093928301828280156113b357602002820191906000526020600020905b81548152602001906001019080831161139f575b50505050509050919050565b6113c7611be2565b6001600160a01b0381166113f157604051631e4fbdf760e01b815260006004820152602401610aed565b6113fa81611e3e565b50565b7f9b779b17422d0df92223018b32b4d1fa46e071723d6817e2486d003becc55f0080546001190161144157604051633ee5aeb560e01b815260040160405180910390fd5b60029055565b600080826001600160a01b031663794c0c686040518163ffffffff1660e01b8152600401602060405180830381865afa158015611488573d6000803e3d6000fd5b505050506040513d601f19601f820116820180604052508101906114ac9190612d48565b600c5460405163245f8d5360e11b8152600481018390529192506001600160a01b0316906348bf1aa690602401600060405180830381600087803b1580156114f357600080fd5b505af1158015611507573d6000803e3d6000fd5b505050506000816000146115225761151f828561205c565b90505b600061152f836001612941565b90506060600860009054906101000a90046001600160a01b03166001600160a01b031663eebc7a396040518163ffffffff1660e01b8152600401600060405180830381865afa158015611586573d6000803e3d6000fd5b505050506040513d6000823e601f3d908101601f191682016040526115ae9190810190612dc3565b90506115bb86838361239d565b600860009054906101000a90046001600160a01b03166001600160a01b031663b7ab4db56040518163ffffffff1660e01b8152600401600060405180830381865afa15801561160e573d6000803e3d6000fd5b505050506040513d6000823e601f3d908101601f191682016040526116369190810190612dc3565b905061164386838361239d565b600082815260036020526040808220601490556008548151637528621160e01b815291516001600160a01b03909116926375286211926004808201939182900301818387803b15801561169557600080fd5b505af11580156116a9573d6000803e3d6000fd5b5050600c805460ff60a01b1916905550929695505050505050565b6000816001600160a01b031663c6912cc06040518163ffffffff1660e01b8152600401602060405180830381865afa158015611704573d6000803e3d6000fd5b505050506040513d601f19601f820116820180604052508101906117289190612d48565b90506000600860009054906101000a90046001600160a01b03166001600160a01b031663b7ab4db56040518163ffffffff1660e01b8152600401600060405180830381865afa15801561177f573d6000803e3d6000fd5b505050506040513d6000823e601f3d908101601f191682016040526117a79190810190612dc3565b60085460408051630456292b60e11b8152905192935042851115926000926001600160a01b0316916308ac52569160048083019260209291908290030181865afa1580156117f9573d6000803e3d6000fd5b505050506040513d601f19601f8201168201806040525081019061181d9190612d48565b611828906002612d74565b8351611835906003612d74565b1161192d576000856001600160a01b031663a5d54f656040518163ffffffff1660e01b8152600401600060405180830381865afa15801561187a573d6000803e3d6000fd5b505050506040513d6000823e601f3d908101601f191682016040526118a29190810190612dc3565b5190506000811180156119215750835160085460405163efd0494760e01b8152600481018490526001600160a01b039091169063efd0494790602401602060405180830381865afa1580156118fb573d6000803e3d6000fd5b505050506040513d601f19601f8201168201806040525081019061191f9190612d48565b115b1561192b57600191505b505b600082806119385750815b8061194c5750600c54600160a01b900460ff165b90506000600860009054906101000a90046001600160a01b03166001600160a01b031663eebc7a396040518163ffffffff1660e01b8152600401600060405180830381865afa1580156119a3573d6000803e3d6000fd5b505050506040513d6000823e601f3d908101601f191682016040526119cb9190810190612dc3565b5190508180156119d9575080155b15611a5957600860009054906101000a90046001600160a01b03166001600160a01b0316635ccee1de6040518163ffffffff1660e01b8152600401600060405180830381600087803b158015611a2e57600080fd5b505af1158015611a42573d6000803e3d6000fd5b5050600c805460ff60a01b1916905550611b2a9050565b866001600160a01b03166322e3d9866040518163ffffffff1660e01b8152600401602060405180830381865afa158015611a97573d6000803e3d6000fd5b505050506040513d601f19601f82011682018060405250810190611abb9190612d48565b4210611b2a57600860009054906101000a90046001600160a01b03166001600160a01b031663ade1900a6040518163ffffffff1660e01b8152600401600060405180830381600087803b158015611b1157600080fd5b505af1158015611b25573d6000803e3d6000fd5b505050505b600c54600160a01b900460ff168015611b4257508015155b15611b5557600c805460ff60a01b191690555b6009546040805163ab0eb62d60e01b815290516001600160a01b0390921691829163ab0eb62d91600480830192600092919082900301818387803b158015611b9c57600080fd5b505af1925050508015611bad575060015b1561134b575050505050505050565b60017f9b779b17422d0df92223018b32b4d1fa46e071723d6817e2486d003becc55f0055565b33611c147f9016d09d72d40fdae2fd8ceac6b6234c7706214fd39c1cd1e609a0528c199300546001600160a01b031690565b6001600160a01b031614610a265760405163118cdaa760e01b8152336004820152602401610aed565b60008060ff19611c6e60017fdace3fd3d1fbdfd33853f19ba191d28c617e373ec58fc73cf7b58db5aff2c2ab612d61565b604051602001611c8091815260200190565b60408051601f1981840301815291905280516020909101201692915050565b611cca6040518060800160405280600081526020016000815260200160008152602001600081525090565b60085460408051630456292b60e11b815290516000926001600160a01b0316916308ac52569160048083019260209291908290030181865afa158015611d14573d6000803e3d6000fd5b505050506040513d601f19601f82011682018060405250810190611d389190612d48565b90506000611d44610b2b565b905060006040518060800160405280600081526020016000815260200160008152602001600081525090506064836005548488600454611d849190612d74565b611d8e9190612d74565b611d989190612d8b565b611da29190612d8b565b611dac9190612d8b565b815260075460065460649185918590611dc6908a90612d74565b611dd09190612d74565b611dda9190612d8b565b611de49190612d8b565b611dee9190612d8b565b602082018190528151600254611e049190612941565b611e0e9190612941565b60608201819052600b54600a549091611e279190612d74565b611e319190612d8b565b6040820152949350505050565b7f9016d09d72d40fdae2fd8ceac6b6234c7706214fd39c1cd1e609a0528c19930080546001600160a01b031981166001600160a01b03848116918217845560405192169182907f8be0079c531659141344cd1fd0a4f28419497f9722a3daafe3b4186f6b6457e090600090a3505050565b60408051600481526024810182526020810180517bffffffffffffffffffffffffffffffffffffffffffffffffffffffff166001600160e01b03198516179052905160009190829081903090611f06908590612e75565b600060405180830381855afa9150503d8060008114611f41576040519150601f19603f3d011682016040523d82523d6000602084013e611f46565b606091505b509150915081611f6957604051635fbab09b60e11b815260040160405180910390fd5b80806020019051810190611f7d9190612d48565b95945050505050565b611f8e6124bf565b6113fa8161250d565b611f9f6124bf565b610a26612515565b611faf6124bf565b6000611fb9611c3d565b6040805180820182526001600160e01b0319868116825260208083018781529189166000908152858252939093208251815463ffffffff191660e09190911c17815590518051949550919390926120179260018501929101906128b1565b509050507f3665bf9cd0ba4ddceeec259e21dcf8a4510f3b1130bd42e950828e69d85408ba84848460405161204e93929190612ea4565b60405180910390a150505050565b600080600860009054906101000a90046001600160a01b03166001600160a01b031663b7ab4db56040518163ffffffff1660e01b8152600401600060405180830381865afa1580156120b2573d6000803e3d6000fd5b505050506040513d6000823e601f3d908101601f191682016040526120da9190810190612dc3565b80519091506000819003612101576040516322b8b72360e21b815260040160405180910390fd5b600061210c82611c9f565b905080606001516000036121265760009350505050610a0e565b80516004805460009061213a908490612d61565b9091555050602081015160068054600090612156908490612d61565b90915550506009546040820151612176916001600160a01b03169061251d565b6040810151606082015160009061218e908390612d61565b905060008061219e898b896125c9565b91509150816000036121ce578385606001516121ba9190612d61565b6002555060009650610a0e95505050505050565b60006121da8385612d8b565b60008c815260036020526040902054909150811561237a5760005b888110156123785783818151811061220f5761220f612dad565b6020026020010151156123705760008a828151811061223057612230612dad565b60209081029190910101516008546040516307b9342f60e21b81526001600160a01b03808416600483015292935060009290911690631ee4d0bc90602401602060405180830381865afa15801561228b573d6000803e3d6000fd5b505050506040513d601f19601f820116820180604052508101906122af9190612cbe565b90506122fb8f83876001600160a01b0390911660008181526020818152604080832080546001818101835591855283852001879055958352948152848220928252919091529190912055565b604051633f3afe0160e01b81526001600160a01b038281166004830152602482018690528f1690633f3afe019087906044016000604051808303818588803b15801561234657600080fd5b505af115801561235a573d6000803e3d6000fd5b5050505050848961236b9190612941565b985050505b6001016121f5565b505b85876060015161238a9190612d61565b60025550939a9950505050505050505050565b60005b81518110156124b95760085482516000916001600160a01b031690631ee4d0bc908590859081106123d3576123d3612dad565b60200260200101516040518263ffffffff1660e01b815260040161240691906001600160a01b0391909116815260200190565b602060405180830381865afa158015612423573d6000803e3d6000fd5b505050506040513d601f19601f820116820180604052508101906124479190612cbe565b6040516368563b7b60e11b8152600481018690526001600160a01b0380831660248301529192509086169063d0ac76f690604401600060405180830381600087803b15801561249557600080fd5b505af11580156124a9573d6000803e3d6000fd5b50505050508060010190506123a0565b50505050565b7ff0c57e16840df040f15088dc2f81fe391c3923bec73e23a9662efc9c229c6a005468010000000000000000900460ff16610a2657604051631afcd79f60e31b815260040160405180910390fd5b6113c76124bf565b611bbc6124bf565b8047101561253e57604051631e9acf1760e31b815260040160405180910390fd5b6000826001600160a01b03168260405160006040518083038185875af1925050503d806000811461258b576040519150601f19603f3d011682016040523d82523d6000602084013e612590565b606091505b50509050806125c457604051630e21dcbb60e11b81526001600160a01b038416600482015260248101839052604401610aed565b505050565b600060606000835167ffffffffffffffff8111156125e9576125e9612abc565b604051908082528060200260200182016040528015612612578160200160208202803683370190505b5090506000866001600160a01b0316639b03d7446040518163ffffffff1660e01b8152600401602060405180830381865afa158015612655573d6000803e3d6000fd5b505050506040513d601f19601f820116820180604052508101906126799190612d48565b90506000805b86518110156128a35760085487516000916001600160a01b03808d1692635b4eafe0928d921690631ee4d0bc908d90889081106126be576126be612dad565b60200260200101516040518263ffffffff1660e01b81526004016126f191906001600160a01b0391909116815260200190565b602060405180830381865afa15801561270e573d6000803e3d6000fd5b505050506040513d601f19601f820116820180604052508101906127329190612cbe565b6040516001600160e01b031960e085901b16815260048101929092526001600160a01b03166024820152604401602060405180830381865afa15801561277c573d6000803e3d6000fd5b505050506040513d601f19601f820116820180604052508101906127a09190612d48565b9050806000036127b0575061289b565b60085488516000916001600160a01b0316906360e5c520908b90869081106127da576127da612dad565b60200260200101516040518263ffffffff1660e01b815260040161280d91906001600160a01b0391909116815260200190565b602060405180830381865afa15801561282a573d6000803e3d6000fd5b505050506040513d601f19601f8201168201806040525081019061284e9190612d48565b905080158061285d5750848110155b1561286957505061289b565b600186848151811061287d5761287d612dad565b9115156020928302919091019091015261289684612ed1565b935050505b60010161267f565b509791965090945050505050565b8280548282559060005260206000209081019282156128ec579160200282015b828111156128ec5782518255916020019190600101906128d1565b506128f8929150612916565b5090565b50805460008255906000526020600020908101906113fa91905b5b808211156128f85760008155600101612917565b634e487b7160e01b600052601160045260246000fd5b80820180821115610a0e57610a0e61292b565b60006020828403121561296657600080fd5b8135801515811461297657600080fd5b9392505050565b6001600160a01b03811681146113fa57600080fd5b600080604083850312156129a557600080fd5b8235915060208301356129b78161297d565b809150509250929050565b80356001600160e01b03198116811461086757600080fd5b600080600080606085870312156129f057600080fd5b6129f9856129c2565b9350612a07602086016129c2565b9250604085013567ffffffffffffffff80821115612a2457600080fd5b818701915087601f830112612a3857600080fd5b813581811115612a4757600080fd5b8860208260051b8501011115612a5c57600080fd5b95989497505060200194505050565b600060208284031215612a7d57600080fd5b5035919050565b600060208284031215612a9657600080fd5b81356129768161297d565b600060208284031215612ab357600080fd5b612976826129c2565b634e487b7160e01b600052604160045260246000fd5b604051601f8201601f1916810167ffffffffffffffff81118282101715612afb57612afb612abc565b604052919050565b60006020808385031215612b1657600080fd5b823567ffffffffffffffff80821115612b2e57600080fd5b818501915085601f830112612b4257600080fd5b813581811115612b5457612b54612abc565b612b66601f8201601f19168501612ad2565b91508082528684828501011115612b7c57600080fd5b8084840185840137600090820190930192909252509392505050565b602080825282516001600160e01b031916828201528281015160408084015280516060840181905260009291820190839060808601905b80831015612bef5783518252928401926001929092019190840190612bcf565b509695505050505050565b60008060408385031215612c0d57600080fd5b612c16836129c2565b946020939093013593505050565b600080600060608486031215612c3957600080fd5b8335612c448161297d565b92506020840135612c548161297d565b91506040840135612c648161297d565b809150509250925092565b60008151808452602080850194506020840160005b83811015612ca057815187529582019590820190600101612c84565b509495945050505050565b6020815260006129766020830184612c6f565b600060208284031215612cd057600080fd5b81516129768161297d565b6001600160e01b0319858116825284166020820152606060408201819052810182905260007f07ffffffffffffffffffffffffffffffffffffffffffffffffffffffffffffff831115612d2d57600080fd5b8260051b808560808501379190910160800195945050505050565b600060208284031215612d5a57600080fd5b5051919050565b81810381811115610a0e57610a0e61292b565b8082028115828204841417610a0e57610a0e61292b565b600082612da857634e487b7160e01b600052601260045260246000fd5b500490565b634e487b7160e01b600052603260045260246000fd5b60006020808385031215612dd657600080fd5b825167ffffffffffffffff80821115612dee57600080fd5b818501915085601f830112612e0257600080fd5b815181811115612e1457612e14612abc565b8060051b9150612e25848301612ad2565b8181529183018401918481019088841115612e3f57600080fd5b938501935b83851015612e695784519250612e598361297d565b8282529385019390850190612e44565b98975050505050505050565b6000825160005b81811015612e965760208186018101518583015201612e7c565b506000920191825250919050565b6001600160e01b0319848116825283166020820152606060408201819052600090611f7d90830184612c6f565b600060018201612ee357612ee361292b565b506001019056fea2646970667358221220b6b1cc1d4cd2b5cc40c2735ea7caa615d6daa38aeda5132badcf5b50b55e2f9e64736f6c63430008190033",
  "linkReferences": {},
  "deployedLinkReferences": {}
}