{
  "_format": "hh-sol-artifact-1",
  "contractName": "BlockRewardHbbftMock",
  "sourceName": "contracts/mockContracts/BlockRewardHbbftMock.sol",
  "abi": [
    {
      "inputs": [],
      "name": "GetterCallFailed",
      "type": "error"
    },
    {
      "inputs": [],
      "name": "InsufficientBalance",
      "type": "error"
    },
    {
      "inputs": [],
      "name": "InvalidInitialization",
      "type": "error"
    },
    {
      "inputs": [
        {
          "internalType": "uint256",
          "name": "_newVal",
          "type": "uint256"
        }
      ],
      "name": "NewValueOutOfRange",
      "type": "error"
    },
    {
      "inputs": [],
      "name": "NotInitializing",
      "type": "error"
    },
    {
      "inputs": [
        {
          "internalType": "address",
          "name": "owner",
          "type": "address"
        }
      ],
      "name": "OwnableInvalidOwner",
      "type": "error"
    },
    {
      "inputs": [
        {
          "internalType": "address",
          "name": "account",
          "type": "address"
        }
      ],
      "name": "OwnableUnauthorizedAccount",
      "type": "error"
    },
    {
      "inputs": [],
      "name": "ReentrancyGuardReentrantCall",
      "type": "error"
    },
    {
      "inputs": [
        {
          "internalType": "address",
          "name": "recipient",
          "type": "address"
        },
        {
          "internalType": "uint256",
          "name": "amount",
          "type": "uint256"
        }
      ],
      "name": "TransferFailed",
      "type": "error"
    },
    {
      "inputs": [],
      "name": "Unauthorized",
      "type": "error"
    },
    {
      "inputs": [],
      "name": "ValidatorsListEmpty",
      "type": "error"
    },
    {
      "inputs": [],
      "name": "ZeroAddress",
      "type": "error"
    },
    {
      "inputs": [],
      "name": "ZeroPayoutFraction",
      "type": "error"
    },
    {
      "anonymous": false,
      "inputs": [
        {
          "indexed": false,
          "internalType": "uint256",
          "name": "rewards",
          "type": "uint256"
        }
      ],
      "name": "CoinsRewarded",
      "type": "event"
    },
    {
      "anonymous": false,
      "inputs": [
        {
          "indexed": false,
          "internalType": "uint64",
          "name": "version",
          "type": "uint64"
        }
      ],
      "name": "Initialized",
      "type": "event"
    },
    {
      "anonymous": false,
      "inputs": [
        {
          "indexed": true,
          "internalType": "address",
          "name": "previousOwner",
          "type": "address"
        },
        {
          "indexed": true,
          "internalType": "address",
          "name": "newOwner",
          "type": "address"
        }
      ],
      "name": "OwnershipTransferred",
      "type": "event"
    },
    {
      "anonymous": false,
      "inputs": [
        {
          "indexed": false,
          "internalType": "string",
          "name": "funcSelector",
          "type": "string"
        }
      ],
      "name": "RemoveChangeAbleParameter",
      "type": "event"
    },
    {
      "anonymous": false,
      "inputs": [
        {
          "indexed": false,
          "internalType": "string",
          "name": "setter",
          "type": "string"
        },
        {
          "indexed": false,
          "internalType": "string",
          "name": "getter",
          "type": "string"
        },
        {
          "indexed": false,
          "internalType": "uint256[]",
          "name": "params",
          "type": "uint256[]"
        }
      ],
      "name": "SetChangeAbleParameter",
      "type": "event"
    },
    {
      "anonymous": false,
      "inputs": [
        {
          "indexed": false,
          "internalType": "address",
          "name": "_connectivityTracker",
          "type": "address"
        }
      ],
      "name": "SetConnectivityTracker",
      "type": "event"
    },
    {
      "anonymous": false,
      "inputs": [
        {
          "indexed": false,
          "internalType": "uint256",
          "name": "_fraction",
          "type": "uint256"
        }
      ],
      "name": "SetDeltaPotPayoutFraction",
      "type": "event"
    },
    {
      "anonymous": false,
      "inputs": [
        {
          "indexed": false,
          "internalType": "uint256",
          "name": "_fraction",
          "type": "uint256"
        }
      ],
      "name": "SetReinsertPotPayoutFraction",
      "type": "event"
    },
    {
      "inputs": [],
      "name": "REWARD_PERCENT_MULTIPLIER",
      "outputs": [
        {
          "internalType": "uint256",
          "name": "",
          "type": "uint256"
        }
      ],
      "stateMutability": "view",
      "type": "function"
    },
    {
      "inputs": [],
      "name": "VALIDATOR_MIN_REWARD_PERCENT",
      "outputs": [
        {
          "internalType": "uint256",
          "name": "",
          "type": "uint256"
        }
      ],
      "stateMutability": "view",
      "type": "function"
    },
    {
      "inputs": [],
      "name": "addToDeltaPot",
      "outputs": [],
      "stateMutability": "payable",
      "type": "function"
    },
    {
      "inputs": [],
      "name": "addToReinsertPot",
      "outputs": [],
      "stateMutability": "payable",
      "type": "function"
    },
    {
      "inputs": [
        {
          "internalType": "bytes4",
          "name": "",
          "type": "bytes4"
        }
      ],
      "name": "allowedParameterRange",
      "outputs": [
        {
          "internalType": "bytes4",
          "name": "getter",
          "type": "bytes4"
        }
      ],
      "stateMutability": "view",
      "type": "function"
    },
    {
      "inputs": [],
      "name": "connectivityTracker",
      "outputs": [
        {
          "internalType": "address",
          "name": "",
          "type": "address"
        }
      ],
      "stateMutability": "view",
      "type": "function"
    },
    {
      "inputs": [],
      "name": "deltaPot",
      "outputs": [
        {
          "internalType": "uint256",
          "name": "",
          "type": "uint256"
        }
      ],
      "stateMutability": "view",
      "type": "function"
    },
    {
      "inputs": [],
      "name": "deltaPotPayoutFraction",
      "outputs": [
        {
          "internalType": "uint256",
          "name": "",
          "type": "uint256"
        }
      ],
      "stateMutability": "view",
      "type": "function"
    },
    {
      "inputs": [],
      "name": "earlyEpochEnd",
      "outputs": [
        {
          "internalType": "bool",
          "name": "",
          "type": "bool"
        }
      ],
      "stateMutability": "view",
      "type": "function"
    },
    {
      "inputs": [],
      "name": "epochPercentage",
      "outputs": [
        {
          "internalType": "uint256",
          "name": "",
          "type": "uint256"
        }
      ],
      "stateMutability": "view",
      "type": "function"
    },
    {
      "inputs": [
        {
          "internalType": "uint256",
          "name": "",
          "type": "uint256"
        },
        {
          "internalType": "address",
          "name": "",
          "type": "address"
        }
      ],
      "name": "epochPoolNativeReward",
      "outputs": [
        {
          "internalType": "uint256",
          "name": "",
          "type": "uint256"
        }
      ],
      "stateMutability": "view",
      "type": "function"
    },
    {
      "inputs": [
        {
          "internalType": "address",
          "name": "_miningAddress",
          "type": "address"
        }
      ],
      "name": "epochsPoolGotRewardFor",
      "outputs": [
        {
          "internalType": "uint256[]",
          "name": "",
          "type": "uint256[]"
        }
      ],
      "stateMutability": "view",
      "type": "function"
    },
    {
      "inputs": [
        {
          "internalType": "string",
          "name": "_selector",
          "type": "string"
        }
      ],
      "name": "getAllowedParamsRange",
      "outputs": [
        {
          "components": [
            {
              "internalType": "bytes4",
              "name": "getter",
              "type": "bytes4"
            },
            {
              "internalType": "uint256[]",
              "name": "range",
              "type": "uint256[]"
            }
          ],
          "internalType": "struct ValueGuards.ParameterRange",
          "name": "",
          "type": "tuple"
        }
      ],
      "stateMutability": "view",
      "type": "function"
    },
    {
      "inputs": [],
      "name": "getGovernanceAddress",
      "outputs": [
        {
          "internalType": "address",
          "name": "",
          "type": "address"
        }
      ],
      "stateMutability": "view",
      "type": "function"
    },
    {
      "inputs": [
        {
          "internalType": "uint256",
          "name": "numValidators",
          "type": "uint256"
        }
      ],
      "name": "getPotsShares",
      "outputs": [
        {
          "components": [
            {
              "internalType": "uint256",
              "name": "deltaPotAmount",
              "type": "uint256"
            },
            {
              "internalType": "uint256",
              "name": "reinsertPotAmount",
              "type": "uint256"
            },
            {
              "internalType": "uint256",
              "name": "governancePotAmount",
              "type": "uint256"
            },
            {
              "internalType": "uint256",
              "name": "totalRewards",
              "type": "uint256"
            }
          ],
          "internalType": "struct BlockRewardHbbft.PotsShares",
          "name": "",
          "type": "tuple"
        }
      ],
      "stateMutability": "view",
      "type": "function"
    },
    {
      "inputs": [],
      "name": "governancePotAddress",
      "outputs": [
        {
          "internalType": "address payable",
          "name": "",
          "type": "address"
        }
      ],
      "stateMutability": "view",
      "type": "function"
    },
    {
      "inputs": [],
      "name": "governancePotShareDenominator",
      "outputs": [
        {
          "internalType": "uint256",
          "name": "",
          "type": "uint256"
        }
      ],
      "stateMutability": "view",
      "type": "function"
    },
    {
      "inputs": [],
      "name": "governancePotShareNominator",
      "outputs": [
        {
          "internalType": "uint256",
          "name": "",
          "type": "uint256"
        }
      ],
      "stateMutability": "view",
      "type": "function"
    },
    {
      "inputs": [
        {
          "internalType": "string",
          "name": "setter",
          "type": "string"
        },
        {
          "internalType": "string",
          "name": "getter",
          "type": "string"
        },
        {
          "internalType": "uint256[]",
          "name": "params",
          "type": "uint256[]"
        }
      ],
      "name": "initAllowedChangeableParameter",
      "outputs": [],
      "stateMutability": "nonpayable",
      "type": "function"
    },
    {
      "inputs": [
        {
          "internalType": "address",
          "name": "_contractOwner",
          "type": "address"
        },
        {
          "internalType": "address",
          "name": "_validatorSet",
          "type": "address"
        },
        {
          "internalType": "address",
          "name": "_connectivityTracker",
          "type": "address"
        }
      ],
      "name": "initialize",
      "outputs": [],
      "stateMutability": "nonpayable",
      "type": "function"
    },
    {
      "inputs": [
        {
          "internalType": "bytes4",
          "name": "funcSelector",
          "type": "bytes4"
        },
        {
          "internalType": "uint256",
          "name": "newVal",
          "type": "uint256"
        }
      ],
      "name": "isWithinAllowedRange",
      "outputs": [
        {
          "internalType": "bool",
          "name": "",
          "type": "bool"
        }
      ],
      "stateMutability": "view",
      "type": "function"
    },
    {
      "inputs": [],
      "name": "nativeRewardUndistributed",
      "outputs": [
        {
          "internalType": "uint256",
          "name": "",
          "type": "uint256"
        }
      ],
      "stateMutability": "view",
      "type": "function"
    },
    {
      "inputs": [],
      "name": "notifyEarlyEpochEnd",
      "outputs": [],
      "stateMutability": "nonpayable",
      "type": "function"
    },
    {
      "inputs": [],
      "name": "owner",
      "outputs": [
        {
          "internalType": "address",
          "name": "",
          "type": "address"
        }
      ],
      "stateMutability": "view",
      "type": "function"
    },
    {
      "inputs": [],
      "name": "reinsertPot",
      "outputs": [
        {
          "internalType": "uint256",
          "name": "",
          "type": "uint256"
        }
      ],
      "stateMutability": "view",
      "type": "function"
    },
    {
      "inputs": [],
      "name": "reinsertPotPayoutFraction",
      "outputs": [
        {
          "internalType": "uint256",
          "name": "",
          "type": "uint256"
        }
      ],
      "stateMutability": "view",
      "type": "function"
    },
    {
      "inputs": [
        {
          "internalType": "string",
          "name": "funcSelector",
          "type": "string"
        }
      ],
      "name": "removeAllowedChangeableParameter",
      "outputs": [],
      "stateMutability": "nonpayable",
      "type": "function"
    },
    {
      "inputs": [],
      "name": "renounceOwnership",
      "outputs": [],
      "stateMutability": "nonpayable",
      "type": "function"
    },
    {
      "inputs": [
        {
          "internalType": "bool",
          "name": "_isEpochEndBlock",
          "type": "bool"
        }
      ],
      "name": "reward",
      "outputs": [
        {
          "internalType": "uint256",
          "name": "rewardsNative",
          "type": "uint256"
        }
      ],
      "stateMutability": "nonpayable",
      "type": "function"
    },
    {
      "inputs": [],
      "name": "sendCoins",
      "outputs": [],
      "stateMutability": "payable",
      "type": "function"
    },
    {
      "inputs": [
        {
          "internalType": "string",
          "name": "setter",
          "type": "string"
        },
        {
          "internalType": "string",
          "name": "getter",
          "type": "string"
        },
        {
          "internalType": "uint256[]",
          "name": "params",
          "type": "uint256[]"
        }
      ],
      "name": "setAllowedChangeableParameter",
      "outputs": [],
      "stateMutability": "nonpayable",
      "type": "function"
    },
    {
      "inputs": [
        {
          "internalType": "address",
          "name": "_connectivityTracker",
          "type": "address"
        }
      ],
      "name": "setConnectivityTracker",
      "outputs": [],
      "stateMutability": "nonpayable",
      "type": "function"
    },
    {
      "inputs": [
        {
          "internalType": "address",
          "name": "_address",
          "type": "address"
        }
      ],
      "name": "setGovernanceAddress",
      "outputs": [],
      "stateMutability": "nonpayable",
      "type": "function"
    },
    {
      "inputs": [
        {
          "internalType": "uint256",
          "name": "_shareNominator",
          "type": "uint256"
        }
      ],
      "name": "setGovernancePotShareNominator",
      "outputs": [],
      "stateMutability": "nonpayable",
      "type": "function"
    },
    {
      "inputs": [
        {
          "internalType": "uint256",
          "name": "_value",
          "type": "uint256"
        }
      ],
      "name": "setReinsertPotPayoutFraction",
      "outputs": [],
      "stateMutability": "nonpayable",
      "type": "function"
    },
    {
      "inputs": [
        {
          "internalType": "uint256",
          "name": "_stakingEpoch",
          "type": "uint256"
        },
        {
          "internalType": "uint256",
          "name": "_percent",
          "type": "uint256"
        }
      ],
      "name": "setValidatorMinRewardPercent",
      "outputs": [],
      "stateMutability": "nonpayable",
      "type": "function"
    },
    {
      "inputs": [
        {
          "internalType": "uint256",
          "name": "_value",
          "type": "uint256"
        }
      ],
      "name": "setdeltaPotPayoutFraction",
      "outputs": [],
      "stateMutability": "nonpayable",
      "type": "function"
    },
    {
      "inputs": [
        {
          "internalType": "address",
          "name": "newOwner",
          "type": "address"
        }
      ],
      "name": "transferOwnership",
      "outputs": [],
      "stateMutability": "nonpayable",
      "type": "function"
    },
    {
      "inputs": [
        {
          "internalType": "uint256",
          "name": "",
          "type": "uint256"
        }
      ],
      "name": "validatorMinRewardPercent",
      "outputs": [
        {
          "internalType": "uint256",
          "name": "",
          "type": "uint256"
        }
      ],
      "stateMutability": "view",
      "type": "function"
    },
    {
      "inputs": [],
      "name": "validatorSetContract",
      "outputs": [
        {
          "internalType": "contract IValidatorSetHbbft",
          "name": "",
          "type": "address"
        }
      ],
      "stateMutability": "view",
      "type": "function"
    },
    {
      "stateMutability": "payable",
      "type": "receive"
    }
  ],
  "bytecode": "0x6080604052348015600f57600080fd5b506016601a565b60ca565b7ff0c57e16840df040f15088dc2f81fe391c3923bec73e23a9662efc9c229c6a00805468010000000000000000900460ff161560695760405163f92ee8a960e01b815260040160405180910390fd5b80546001600160401b039081161460c75780546001600160401b0319166001600160401b0390811782556040519081527fc7f505b2f371ae2175ee4913f4499e1f2633a7b5936321eed1cdaeb6115181d29060200160405180910390a15b50565b612dab806100d96000396000f3fe6080604052600436106102be5760003560e01c80639740f48d1161016e578063c6cc9333116100cb578063dd03f5b91161007f578063e58edc3811610064578063e58edc38146107fe578063f2fde38b14610815578063f302163d146103d057600080fd5b8063dd03f5b9146107b1578063dfc8bf4e146107de57600080fd5b8063cdf7a090116100b0578063cdf7a0901461071a578063cfc1625414610747578063d0899cb41461078457600080fd5b8063c6cc9333146106da578063cb68d127146106fa57600080fd5b8063af18253511610122578063b710c15d11610107578063b710c15d1461066d578063ba08d2371461069a578063c0c53b8b146106ba57600080fd5b8063af1825351461065d578063b10c75481461066557600080fd5b80639b9fb6d0116101535780639b9fb6d014610612578063a59546e214610632578063adc481a71461064757600080fd5b80639740f48d146105dc5780639a64ca2c146105fc57600080fd5b80635cbc1a6f1161021c57806373f12958116101d05780638da5cb5b116101b55780638da5cb5b1461054057806391b579861461057d578063922836341461059357600080fd5b806373f129581461050a57806378ff69d51461052057600080fd5b8063674a721411610201578063674a7214146104a6578063715018a6146104d757806373252494146104ec57600080fd5b80635cbc1a6f14610433578063669554691461048657600080fd5b806336e98ca811610273578063596208721161025857806359620872146103e85780635c57a801146103fd5780635cb092a21461041357600080fd5b806336e98ca8146103b05780633c2c943c146103d257600080fd5b80631274fa09116102a45780631274fa091461032a57806319cee8971461034057806333d699211461037857600080fd5b8062067a84146102e25780630c0d41731461031557600080fd5b366102dd5734600760008282546102d59190612715565b925050819055005b600080fd5b3480156102ee57600080fd5b506103026102fd366004612736565b610835565b6040519081526020015b60405180910390f35b34801561032157600080fd5b50610302601e81565b34801561033657600080fd5b5061030260085481565b34801561034c57600080fd5b50600a54610360906001600160a01b031681565b6040516001600160a01b03909116815260200161030c565b34801561038457600080fd5b5061030261039336600461276f565b600260209081526000928352604080842090915290825290205481565b3480156103bc57600080fd5b506103d06103cb36600461287a565b610985565b005b3480156103de57600080fd5b50610302600c5481565b3480156103f457600080fd5b506103d0610a39565b34801561040957600080fd5b5061030260055481565b34801561041f57600080fd5b506103d061042e36600461287a565b610a78565b34801561043f57600080fd5b5061045361044e36600461295d565b610a80565b60405161030c91908151815260208083015190820152604080830151908201526060918201519181019190915260800190565b34801561049257600080fd5b50600d54610360906001600160a01b031681565b3480156104b257600080fd5b50600d546104c790600160a01b900460ff1681565b604051901515815260200161030c565b3480156104e357600080fd5b506103d0610aba565b3480156104f857600080fd5b50600a546001600160a01b0316610360565b34801561051657600080fd5b5061030260075481565b34801561052c57600080fd5b506103d061053b366004612976565b610ace565b34801561054c57600080fd5b507f9016d09d72d40fdae2fd8ceac6b6234c7706214fd39c1cd1e609a0528c199300546001600160a01b0316610360565b34801561058957600080fd5b50610302600b5481565b34801561059f57600080fd5b506105c36105ae3660046129ab565b60006020819052908152604090205460e01b81565b6040516001600160e01b0319909116815260200161030c565b3480156105e857600080fd5b506103d06105f736600461295d565b610b52565b34801561060857600080fd5b5061030260065481565b34801561061e57600080fd5b506103d061062d3660046129c6565b610b9c565b34801561063e57600080fd5b50610302610c10565b34801561065357600080fd5b5061030260035481565b6103d0610e57565b6103d0610e70565b34801561067957600080fd5b5061068d6106883660046129c6565b610e82565b60405161030c9190612a03565b3480156106a657600080fd5b506104c76106b5366004612a65565b610f2a565b3480156106c657600080fd5b506103d06106d5366004612a8f565b6110f9565b3480156106e657600080fd5b506103d06106f536600461295d565b611303565b34801561070657600080fd5b506103d061071536600461295d565b61137a565b34801561072657600080fd5b5061030261073536600461295d565b60046020526000908152604090205481565b34801561075357600080fd5b506103d0610762366004612976565b600a80546001600160a01b0319166001600160a01b0392909216919091179055565b34801561079057600080fd5b506103d061079f366004612ada565b60009182526004602052604090912055565b3480156107bd57600080fd5b506107d16107cc366004612976565b6113f1565b60405161030c9190612b38565b3480156107ea57600080fd5b50600954610360906001600160a01b031681565b34801561080a57600080fd5b50610302620f424081565b34801561082157600080fd5b506103d0610830366004612976565b61145d565b60003373fffffffffffffffffffffffffffffffffffffffe1461086a576040516282b42960e81b815260040160405180910390fd5b61087261149b565b6009546040805163239a373960e21b815290516000926001600160a01b031691638e68dce49160048083019260209291908290030181865afa1580156108bc573d6000803e3d6000fd5b505050506040513d601f19601f820116820180604052508101906108e09190612b4b565b905082806108f75750600d54600160a01b900460ff165b1561094d57610905816114e5565b600d805460ff60a01b191690556040518181529092507ff32b9551d3414b67f8e66e20ac15e62694b9d1230abb2e2e48f9dc2e1964c4299060200160405180910390a1610956565b610956816116f8565b5061098060017f9b779b17422d0df92223018b32b4d1fa46e071723d6817e2486d003becc55f0055565b919050565b61098d611b5f565b60408051808201825283516020808601919091206001600160e01b031990811683528183018581528751888401209091166000908152808352939093208251815463ffffffff191660e09190911c178155925180519293926109f59260018501920190612685565b509050507f3d45a310c5a076ea07aa2947ca3c06cc2a8b3571065867ad6f8e7096a2c9d50a838383604051610a2c93929190612bb8565b60405180910390a1505050565b600d546001600160a01b03163314610a63576040516282b42960e81b815260040160405180910390fd5b600d805460ff60a01b1916600160a01b179055565b61098d611bba565b610aab6040518060800160405280600081526020016000815260200160008152602001600081525090565b610ab482611c08565b92915050565b610ac2611b5f565b610acc6000611da7565b565b610ad6611b5f565b6001600160a01b038116610afd5760405163d92e233d60e01b815260040160405180910390fd5b600d80546001600160a01b0319166001600160a01b0383169081179091556040519081527f387d29e18823e432432b6098ebeee33beebdb128d2234c7f486c26447b738edd906020015b60405180910390a150565b610b5a611b5f565b80610b716000356001600160e01b03191682610f2a565b610b96576040516373330d9b60e01b8152600481018290526024015b60405180910390fd5b50600b55565b610ba4611b5f565b80516020808301919091206001600160e01b03191660009081529081905260408120805463ffffffff1916815590610bdf60018301826126d0565b50507f92d44565a40fe29702ffa146ddaa3bb133d4077f5312d682d0a2632a9bc73a8a81604051610b479190612bfb565b600080600960009054906101000a90046001600160a01b03166001600160a01b0316638e68dce46040518163ffffffff1660e01b8152600401602060405180830381865afa158015610c66573d6000803e3d6000fd5b505050506040513d601f19601f82011682018060405250810190610c8a9190612b4b565b90506000816001600160a01b0316639b03d7446040518163ffffffff1660e01b8152600401602060405180830381865afa158015610ccc573d6000803e3d6000fd5b505050506040513d601f19601f82011682018060405250810190610cf09190612c0e565b826001600160a01b03166322e3d9866040518163ffffffff1660e01b8152600401602060405180830381865afa158015610d2e573d6000803e3d6000fd5b505050506040513d601f19601f82011682018060405250810190610d529190612c0e565b610d5c9190612c27565b9050816001600160a01b03166322e3d9866040518163ffffffff1660e01b8152600401602060405180830381865afa158015610d9c573d6000803e3d6000fd5b505050506040513d601f19601f82011682018060405250810190610dc09190612c0e565b4211610e4d5780826001600160a01b0316639b03d7446040518163ffffffff1660e01b8152600401602060405180830381865afa158015610e05573d6000803e3d6000fd5b505050506040513d601f19601f82011682018060405250810190610e299190612c0e565b610e339042612c27565b610e3e906064612c3a565b610e489190612c51565b610e50565b60645b9250505090565b3460076000828254610e699190612715565b9091555050565b3460056000828254610e699190612715565b60408051808201909152600081526060602082015281516020808401919091206001600160e01b0319908116600090815280835260409081902081518083018352815460e01b9093168352600181018054835181870281018701909452808452939491938583019392830182828015610f1a57602002820191906000526020600020905b815481526020019060010190808311610f06575b5050505050815250509050919050565b6001600160e01b031980831660009081526020818152604080832081518083018352815460e01b909516855260018101805483518186028101860190945280845294958695909492938584019390929190830182828015610faa57602002820191906000526020600020905b815481526020019060010190808311610f96575b5050505050815250509050806020015151600003610fcc576000915050610ab4565b60208101518151600090610fdf90611e18565b905060005b82518110156110ec578183828151811061100057611000612c73565b6020026020010151036110e4576000808211611036578360008151811061102957611029612c73565b602002602001015161105b565b83611042600184612c27565b8151811061105257611052612c73565b60200260200101515b905060006001855161106d9190612c27565b831061109f5784600186516110829190612c27565b8151811061109257611092612c73565b60200260200101516110c4565b846110ab846001612715565b815181106110bb576110bb612c73565b60200260200101515b90508188141580156110d65750808814155b159650505050505050610ab4565b600101610fe4565b5060009695505050505050565b7ff0c57e16840df040f15088dc2f81fe391c3923bec73e23a9662efc9c229c6a00805468010000000000000000810460ff16159067ffffffffffffffff166000811580156111445750825b905060008267ffffffffffffffff1660011480156111615750303b155b90508115801561116f575080155b1561118d5760405163f92ee8a960e01b815260040160405180910390fd5b845467ffffffffffffffff1916600117855583156111c157845468ff00000000000000001916680100000000000000001785555b6001600160a01b03881615806111de57506001600160a01b038716155b806111f057506001600160a01b038616155b1561120e5760405163d92e233d60e01b815260040160405180910390fd5b61121788611eef565b61121f611f00565b600980546001600160a01b03808a166001600160a01b031992831617909255600d805492891692821692909217909155600080526004602052601e7f17ef568e3e12ab5b9c7254a8d58478811de00f9e6eb34345acd53bf8fd09d3ec556117706006819055600855600a805490911673da0da0da0da0da0da0da00da0da0da0da0da0da01781556001600b55600c5583156112f957845468ff000000000000000019168555604051600181527fc7f505b2f371ae2175ee4913f4499e1f2633a7b5936321eed1cdaeb6115181d29060200160405180910390a15b5050505050505050565b61130b611b5f565b80600003611345576040517fffcfec8400000000000000000000000000000000000000000000000000000000815260040160405180910390fd5b60088190556040518181527fb914176cecdd5906f3fd1eb6fcf471c39b33cdc7142a1d8c494487c31ff40f8890602001610b47565b611382611b5f565b806000036113bc576040517fffcfec8400000000000000000000000000000000000000000000000000000000815260040160405180910390fd5b60068190556040518181527f8ce02935a391d407d8b483203a4f3cd8465b62a45c7274471113a192f111eda090602001610b47565b6001600160a01b03811660009081526001602090815260409182902080548351818402810184019094528084526060939283018282801561145157602002820191906000526020600020905b81548152602001906001019080831161143d575b50505050509050919050565b611465611b5f565b6001600160a01b03811661148f57604051631e4fbdf760e01b815260006004820152602401610b8d565b61149881611da7565b50565b7f9b779b17422d0df92223018b32b4d1fa46e071723d6817e2486d003becc55f008054600119016114df57604051633ee5aeb560e01b815260040160405180910390fd5b60029055565b600080826001600160a01b031663794c0c686040518163ffffffff1660e01b8152600401602060405180830381865afa158015611526573d6000803e3d6000fd5b505050506040513d601f19601f8201168201806040525081019061154a9190612c0e565b9050600081156115615761155e8285611f10565b90505b600061156e836001612715565b90506060600960009054906101000a90046001600160a01b03166001600160a01b031663eebc7a396040518163ffffffff1660e01b8152600401600060405180830381865afa1580156115c5573d6000803e3d6000fd5b505050506040513d6000823e601f3d908101601f191682016040526115ed9190810190612c89565b90506115fa868383612240565b600960009054906101000a90046001600160a01b03166001600160a01b031663b7ab4db56040518163ffffffff1660e01b8152600401600060405180830381865afa15801561164d573d6000803e3d6000fd5b505050506040513d6000823e601f3d908101601f191682016040526116759190810190612c89565b9050611682868383612240565b6000828152600460208190526040808320601e90556009548151637528621160e01b815291516001600160a01b03909116936375286211938381019391929182900301818387803b1580156116d657600080fd5b505af11580156116ea573d6000803e3d6000fd5b509498975050505050505050565b6000816001600160a01b031663c6912cc06040518163ffffffff1660e01b8152600401602060405180830381865afa158015611738573d6000803e3d6000fd5b505050506040513d601f19601f8201168201806040525081019061175c9190612c0e565b90506000600960009054906101000a90046001600160a01b03166001600160a01b031663b7ab4db56040518163ffffffff1660e01b8152600401600060405180830381865afa1580156117b3573d6000803e3d6000fd5b505050506040513d6000823e601f3d908101601f191682016040526117db9190810190612c89565b60095460408051630456292b60e11b8152905192935042851115926000926001600160a01b0316916308ac52569160048083019260209291908290030181865afa15801561182d573d6000803e3d6000fd5b505050506040513d601f19601f820116820180604052508101906118519190612c0e565b61185c906002612c3a565b8351611869906003612c3a565b11611961576000856001600160a01b031663a5d54f656040518163ffffffff1660e01b8152600401600060405180830381865afa1580156118ae573d6000803e3d6000fd5b505050506040513d6000823e601f3d908101601f191682016040526118d69190810190612c89565b5190506000811180156119555750835160095460405163efd0494760e01b8152600481018490526001600160a01b039091169063efd0494790602401602060405180830381865afa15801561192f573d6000803e3d6000fd5b505050506040513d601f19601f820116820180604052508101906119539190612c0e565b115b1561195f57600191505b505b818061196a5750805b80156119ef5750600960009054906101000a90046001600160a01b03166001600160a01b031663eebc7a396040518163ffffffff1660e01b8152600401600060405180830381865afa1580156119c4573d6000803e3d6000fd5b505050506040513d6000823e601f3d908101601f191682016040526119ec9190810190612c89565b51155b15611a6157600960009054906101000a90046001600160a01b03166001600160a01b0316635ccee1de6040518163ffffffff1660e01b8152600401600060405180830381600087803b158015611a4457600080fd5b505af1158015611a58573d6000803e3d6000fd5b50505050611b32565b846001600160a01b03166322e3d9866040518163ffffffff1660e01b8152600401602060405180830381865afa158015611a9f573d6000803e3d6000fd5b505050506040513d601f19601f82011682018060405250810190611ac39190612c0e565b4210611b3257600960009054906101000a90046001600160a01b03166001600160a01b031663ade1900a6040518163ffffffff1660e01b8152600401600060405180830381600087803b158015611b1957600080fd5b505af1158015611b2d573d6000803e3d6000fd5b505050505b5050505050565b60017f9b779b17422d0df92223018b32b4d1fa46e071723d6817e2486d003becc55f0055565b33611b917f9016d09d72d40fdae2fd8ceac6b6234c7706214fd39c1cd1e609a0528c199300546001600160a01b031690565b6001600160a01b031614610acc5760405163118cdaa760e01b8152336004820152602401610b8d565b7ff0c57e16840df040f15088dc2f81fe391c3923bec73e23a9662efc9c229c6a005468010000000000000000900460ff16610acc57604051631afcd79f60e31b815260040160405180910390fd5b611c336040518060800160405280600081526020016000815260200160008152602001600081525090565b60095460408051630456292b60e11b815290516000926001600160a01b0316916308ac52569160048083019260209291908290030181865afa158015611c7d573d6000803e3d6000fd5b505050506040513d601f19601f82011682018060405250810190611ca19190612c0e565b90506000611cad610c10565b905060006040518060800160405280600081526020016000815260200160008152602001600081525090506064836006548488600554611ced9190612c3a565b611cf79190612c3a565b611d019190612c51565b611d0b9190612c51565b611d159190612c51565b815260085460075460649185918590611d2f908a90612c3a565b611d399190612c3a565b611d439190612c51565b611d4d9190612c51565b611d579190612c51565b602082018190528151600354611d6d9190612715565b611d779190612715565b60608201819052600c54600b549091611d909190612c3a565b611d9a9190612c51565b6040820152949350505050565b7f9016d09d72d40fdae2fd8ceac6b6234c7706214fd39c1cd1e609a0528c19930080546001600160a01b031981166001600160a01b03848116918217845560405192169182907f8be0079c531659141344cd1fd0a4f28419497f9722a3daafe3b4186f6b6457e090600090a3505050565b60408051600481526024810182526020810180517bffffffffffffffffffffffffffffffffffffffffffffffffffffffff166001600160e01b03198516179052905160009190829081903090611e6f908590612d23565b600060405180830381855afa9150503d8060008114611eaa576040519150601f19603f3d011682016040523d82523d6000602084013e611eaf565b606091505b509150915081611ed257604051635fbab09b60e11b815260040160405180910390fd5b80806020019051810190611ee69190612c0e565b95945050505050565b611ef7611bba565b61149881612362565b611f08611bba565b610acc61236a565b600080600960009054906101000a90046001600160a01b03166001600160a01b031663b7ab4db56040518163ffffffff1660e01b8152600401600060405180830381865afa158015611f66573d6000803e3d6000fd5b505050506040513d6000823e601f3d908101601f19168201604052611f8e9190810190612c89565b80519091506000819003611fb5576040516322b8b72360e21b815260040160405180910390fd5b6000611fc082611c08565b9050806000015160056000828254611fd89190612c27565b9091555050602081015160078054600090611ff4908490612c27565b909155505060608101516000036120115760009350505050610ab4565b600a54604082015161202c916001600160a01b031690612372565b60408101516060820151600090612044908390612c27565b9050600080612054898b8961241e565b9150915081600003612070576000975050505050505050610ab4565b600061207c8385612c51565b60008c815260046020526040902054909150811561221d5760005b8881101561221b578381815181106120b1576120b1612c73565b6020026020010151156122135760008a82815181106120d2576120d2612c73565b60209081029190910101516009546040516307b9342f60e21b81526001600160a01b03808416600483015292935060009290911690631ee4d0bc90602401602060405180830381865afa15801561212d573d6000803e3d6000fd5b505050506040513d601f19601f820116820180604052508101906121519190612b4b565b905061219e8f83876001600160a01b039091166000818152600160208181526040808420805493840181558452818420909201869055948252600285528082209282529190935290912055565b604051633f3afe0160e01b81526001600160a01b038281166004830152602482018690528f1690633f3afe019087906044016000604051808303818588803b1580156121e957600080fd5b505af11580156121fd573d6000803e3d6000fd5b5050505050848961220e9190612715565b985050505b600101612097565b505b85876060015161222d9190612c27565b60035550939a9950505050505050505050565b60005b815181101561235c5760095482516000916001600160a01b031690631ee4d0bc9085908590811061227657612276612c73565b60200260200101516040518263ffffffff1660e01b81526004016122a991906001600160a01b0391909116815260200190565b602060405180830381865afa1580156122c6573d6000803e3d6000fd5b505050506040513d601f19601f820116820180604052508101906122ea9190612b4b565b6040516368563b7b60e11b8152600481018690526001600160a01b0380831660248301529192509086169063d0ac76f690604401600060405180830381600087803b15801561233857600080fd5b505af115801561234c573d6000803e3d6000fd5b5050505050806001019050612243565b50505050565b611465611bba565b611b39611bba565b8047101561239357604051631e9acf1760e31b815260040160405180910390fd5b6000826001600160a01b03168260405160006040518083038185875af1925050503d80600081146123e0576040519150601f19603f3d011682016040523d82523d6000602084013e6123e5565b606091505b505090508061241957604051630e21dcbb60e11b81526001600160a01b038416600482015260248101839052604401610b8d565b505050565b600060606000835167ffffffffffffffff81111561243e5761243e61279f565b604051908082528060200260200182016040528015612467578160200160208202803683370190505b5090506000805b85518110156126795760095486516001600160a01b039091169063a92252ae908890849081106124a0576124a0612c73565b60200260200101516040518263ffffffff1660e01b81526004016124d391906001600160a01b0391909116815260200190565b602060405180830381865afa1580156124f0573d6000803e3d6000fd5b505050506040513d601f19601f820116820180604052508101906125149190612d3f565b6126715760095486516000916001600160a01b03808c1692635b4eafe0928c921690631ee4d0bc908c908890811061254e5761254e612c73565b60200260200101516040518263ffffffff1660e01b815260040161258191906001600160a01b0391909116815260200190565b602060405180830381865afa15801561259e573d6000803e3d6000fd5b505050506040513d601f19601f820116820180604052508101906125c29190612b4b565b6040516001600160e01b031960e085901b16815260048101929092526001600160a01b03166024820152604401602060405180830381865afa15801561260c573d6000803e3d6000fd5b505050506040513d601f19601f820116820180604052508101906126309190612c0e565b9050806000036126405750612671565b600184838151811061265457612654612c73565b9115156020928302919091019091015261266d83612d5c565b9250505b60010161246e565b50969095509350505050565b8280548282559060005260206000209081019282156126c0579160200282015b828111156126c05782518255916020019190600101906126a5565b506126cc9291506126ea565b5090565b508054600082559060005260206000209081019061149891905b5b808211156126cc57600081556001016126eb565b634e487b7160e01b600052601160045260246000fd5b80820180821115610ab457610ab46126ff565b801515811461149857600080fd5b60006020828403121561274857600080fd5b813561275381612728565b9392505050565b6001600160a01b038116811461149857600080fd5b6000806040838503121561278257600080fd5b8235915060208301356127948161275a565b809150509250929050565b634e487b7160e01b600052604160045260246000fd5b604051601f8201601f1916810167ffffffffffffffff811182821017156127de576127de61279f565b604052919050565b600082601f8301126127f757600080fd5b813567ffffffffffffffff8111156128115761281161279f565b612824601f8201601f19166020016127b5565b81815284602083860101111561283957600080fd5b816020850160208301376000918101602001919091529392505050565b600067ffffffffffffffff8211156128705761287061279f565b5060051b60200190565b60008060006060848603121561288f57600080fd5b833567ffffffffffffffff808211156128a757600080fd5b6128b3878388016127e6565b94506020915081860135818111156128ca57600080fd5b6128d6888289016127e6565b9450506040860135818111156128eb57600080fd5b86019050601f810187136128fe57600080fd5b803561291161290c82612856565b6127b5565b81815260059190911b8201830190838101908983111561293057600080fd5b928401925b8284101561294e57833582529284019290840190612935565b80955050505050509250925092565b60006020828403121561296f57600080fd5b5035919050565b60006020828403121561298857600080fd5b81356127538161275a565b80356001600160e01b03198116811461098057600080fd5b6000602082840312156129bd57600080fd5b61275382612993565b6000602082840312156129d857600080fd5b813567ffffffffffffffff8111156129ef57600080fd5b6129fb848285016127e6565b949350505050565b602080825282516001600160e01b031916828201528281015160408084015280516060840181905260009291820190839060808601905b80831015612a5a5783518252928401926001929092019190840190612a3a565b509695505050505050565b60008060408385031215612a7857600080fd5b612a8183612993565b946020939093013593505050565b600080600060608486031215612aa457600080fd5b8335612aaf8161275a565b92506020840135612abf8161275a565b91506040840135612acf8161275a565b809150509250925092565b60008060408385031215612aed57600080fd5b50508035926020909101359150565b60008151808452602080850194506020840160005b83811015612b2d57815187529582019590820190600101612b11565b509495945050505050565b6020815260006127536020830184612afc565b600060208284031215612b5d57600080fd5b81516127538161275a565b60005b83811015612b83578181015183820152602001612b6b565b50506000910152565b60008151808452612ba4816020860160208601612b68565b601f01601f19169290920160200192915050565b606081526000612bcb6060830186612b8c565b8281036020840152612bdd8186612b8c565b90508281036040840152612bf18185612afc565b9695505050505050565b6020815260006127536020830184612b8c565b600060208284031215612c2057600080fd5b5051919050565b81810381811115610ab457610ab46126ff565b8082028115828204841417610ab457610ab46126ff565b600082612c6e57634e487b7160e01b600052601260045260246000fd5b500490565b634e487b7160e01b600052603260045260246000fd5b60006020808385031215612c9c57600080fd5b825167ffffffffffffffff811115612cb357600080fd5b8301601f81018513612cc457600080fd5b8051612cd261290c82612856565b81815260059190911b82018301908381019087831115612cf157600080fd5b928401925b82841015612d18578351612d098161275a565b82529284019290840190612cf6565b979650505050505050565b60008251612d35818460208701612b68565b9190910192915050565b600060208284031215612d5157600080fd5b815161275381612728565b600060018201612d6e57612d6e6126ff565b506001019056fea2646970667358221220956199549ddf0894edc8d2f73a8d04263484929c29fabb01b7f9ff52912412b964736f6c63430008190033",
  "linkReferences": {},
  "deployedLinkReferences": {}
}