{
  "_format": "hh-sol-artifact-1",
  "contractName": "BlockRewardHbbftMock",
  "sourceName": "contracts/mockContracts/BlockRewardHbbftMock.sol",
  "abi": [
    {
      "inputs": [],
      "name": "GetterCallFailed",
      "type": "error"
    },
    {
      "inputs": [],
      "name": "InsufficientBalance",
      "type": "error"
    },
    {
      "inputs": [],
      "name": "InvalidInitialization",
      "type": "error"
    },
    {
      "inputs": [
        {
          "internalType": "uint256",
          "name": "_newVal",
          "type": "uint256"
        }
      ],
      "name": "NewValueOutOfRange",
      "type": "error"
    },
    {
      "inputs": [],
      "name": "NotInitializing",
      "type": "error"
    },
    {
      "inputs": [
        {
          "internalType": "address",
          "name": "owner",
          "type": "address"
        }
      ],
      "name": "OwnableInvalidOwner",
      "type": "error"
    },
    {
      "inputs": [
        {
          "internalType": "address",
          "name": "account",
          "type": "address"
        }
      ],
      "name": "OwnableUnauthorizedAccount",
      "type": "error"
    },
    {
      "inputs": [],
      "name": "ReentrancyGuardReentrantCall",
      "type": "error"
    },
    {
      "inputs": [
        {
          "internalType": "address",
          "name": "recipient",
          "type": "address"
        },
        {
          "internalType": "uint256",
          "name": "amount",
          "type": "uint256"
        }
      ],
      "name": "TransferFailed",
      "type": "error"
    },
    {
      "inputs": [],
      "name": "Unauthorized",
      "type": "error"
    },
    {
      "inputs": [],
      "name": "ValidatorsListEmpty",
      "type": "error"
    },
    {
      "inputs": [],
      "name": "ZeroAddress",
      "type": "error"
    },
    {
      "inputs": [],
      "name": "ZeroPayoutFraction",
      "type": "error"
    },
    {
      "anonymous": false,
      "inputs": [
        {
          "indexed": false,
          "internalType": "uint256",
          "name": "rewards",
          "type": "uint256"
        }
      ],
      "name": "CoinsRewarded",
      "type": "event"
    },
    {
      "anonymous": false,
      "inputs": [],
      "name": "EarlyEpochEndNotificationReceived",
      "type": "event"
    },
    {
      "anonymous": false,
      "inputs": [
        {
          "indexed": false,
          "internalType": "uint64",
          "name": "version",
          "type": "uint64"
        }
      ],
      "name": "Initialized",
      "type": "event"
    },
    {
      "anonymous": false,
      "inputs": [
        {
          "indexed": true,
          "internalType": "address",
          "name": "previousOwner",
          "type": "address"
        },
        {
          "indexed": true,
          "internalType": "address",
          "name": "newOwner",
          "type": "address"
        }
      ],
      "name": "OwnershipTransferred",
      "type": "event"
    },
    {
      "anonymous": false,
      "inputs": [
        {
          "indexed": false,
          "internalType": "bytes4",
          "name": "funcSelector",
          "type": "bytes4"
        }
      ],
      "name": "RemoveChangeableParameter",
      "type": "event"
    },
    {
      "anonymous": false,
      "inputs": [
        {
          "indexed": false,
          "internalType": "bytes4",
          "name": "setter",
          "type": "bytes4"
        },
        {
          "indexed": false,
          "internalType": "bytes4",
          "name": "getter",
          "type": "bytes4"
        },
        {
          "indexed": false,
          "internalType": "uint256[]",
          "name": "params",
          "type": "uint256[]"
        }
      ],
      "name": "SetChangeableParameter",
      "type": "event"
    },
    {
      "anonymous": false,
      "inputs": [
        {
          "indexed": false,
          "internalType": "address",
          "name": "_connectivityTracker",
          "type": "address"
        }
      ],
      "name": "SetConnectivityTracker",
      "type": "event"
    },
    {
      "anonymous": false,
      "inputs": [
        {
          "indexed": false,
          "internalType": "uint256",
          "name": "_fraction",
          "type": "uint256"
        }
      ],
      "name": "SetDeltaPotPayoutFraction",
      "type": "event"
    },
    {
      "anonymous": false,
      "inputs": [
        {
          "indexed": false,
          "internalType": "uint256",
          "name": "value",
          "type": "uint256"
        }
      ],
      "name": "SetGovernancePotShareNominator",
      "type": "event"
    },
    {
      "anonymous": false,
      "inputs": [
        {
          "indexed": false,
          "internalType": "uint256",
          "name": "_fraction",
          "type": "uint256"
        }
      ],
      "name": "SetReinsertPotPayoutFraction",
      "type": "event"
    },
    {
      "inputs": [],
      "name": "VALIDATOR_FIXED_REWARD_PERCENT",
      "outputs": [
        {
          "internalType": "uint256",
          "name": "",
          "type": "uint256"
        }
      ],
      "stateMutability": "view",
      "type": "function"
    },
    {
      "inputs": [],
      "name": "addToDeltaPot",
      "outputs": [],
      "stateMutability": "payable",
      "type": "function"
    },
    {
      "inputs": [],
      "name": "addToReinsertPot",
      "outputs": [],
      "stateMutability": "payable",
      "type": "function"
    },
    {
      "inputs": [],
      "name": "connectivityTracker",
      "outputs": [
        {
          "internalType": "contract IConnectivityTrackerHbbft",
          "name": "",
          "type": "address"
        }
      ],
      "stateMutability": "view",
      "type": "function"
    },
    {
      "inputs": [],
      "name": "deltaPot",
      "outputs": [
        {
          "internalType": "uint256",
          "name": "",
          "type": "uint256"
        }
      ],
      "stateMutability": "view",
      "type": "function"
    },
    {
      "inputs": [],
      "name": "deltaPotPayoutFraction",
      "outputs": [
        {
          "internalType": "uint256",
          "name": "",
          "type": "uint256"
        }
      ],
      "stateMutability": "view",
      "type": "function"
    },
    {
      "inputs": [],
      "name": "earlyEpochEnd",
      "outputs": [
        {
          "internalType": "bool",
          "name": "",
          "type": "bool"
        }
      ],
      "stateMutability": "view",
      "type": "function"
    },
    {
      "inputs": [],
      "name": "epochPercentage",
      "outputs": [
        {
          "internalType": "uint256",
          "name": "",
          "type": "uint256"
        }
      ],
      "stateMutability": "view",
      "type": "function"
    },
    {
      "inputs": [
        {
          "internalType": "uint256",
          "name": "",
          "type": "uint256"
        },
        {
          "internalType": "address",
          "name": "",
          "type": "address"
        }
      ],
      "name": "epochPoolNativeReward",
      "outputs": [
        {
          "internalType": "uint256",
          "name": "",
          "type": "uint256"
        }
      ],
      "stateMutability": "view",
      "type": "function"
    },
    {
      "inputs": [
        {
          "internalType": "address",
          "name": "_miningAddress",
          "type": "address"
        }
      ],
      "name": "epochsPoolGotRewardFor",
      "outputs": [
        {
          "internalType": "uint256[]",
          "name": "",
          "type": "uint256[]"
        }
      ],
      "stateMutability": "view",
      "type": "function"
    },
    {
      "inputs": [
        {
          "internalType": "string",
          "name": "_selector",
          "type": "string"
        }
      ],
      "name": "getAllowedParamsRange",
      "outputs": [
        {
          "components": [
            {
              "internalType": "bytes4",
              "name": "getter",
              "type": "bytes4"
            },
            {
              "internalType": "uint256[]",
              "name": "range",
              "type": "uint256[]"
            }
          ],
          "internalType": "struct ValueGuards.ParameterRange",
          "name": "",
          "type": "tuple"
        }
      ],
      "stateMutability": "view",
      "type": "function"
    },
    {
      "inputs": [
        {
          "internalType": "bytes4",
          "name": "_selector",
          "type": "bytes4"
        }
      ],
      "name": "getAllowedParamsRangeWithSelector",
      "outputs": [
        {
          "components": [
            {
              "internalType": "bytes4",
              "name": "getter",
              "type": "bytes4"
            },
            {
              "internalType": "uint256[]",
              "name": "range",
              "type": "uint256[]"
            }
          ],
          "internalType": "struct ValueGuards.ParameterRange",
          "name": "",
          "type": "tuple"
        }
      ],
      "stateMutability": "view",
      "type": "function"
    },
    {
      "inputs": [],
      "name": "getGovernanceAddress",
      "outputs": [
        {
          "internalType": "address",
          "name": "",
          "type": "address"
        }
      ],
      "stateMutability": "view",
      "type": "function"
    },
    {
      "inputs": [
        {
          "internalType": "uint256",
          "name": "numValidators",
          "type": "uint256"
        }
      ],
      "name": "getPotsShares",
      "outputs": [
        {
          "components": [
            {
              "internalType": "uint256",
              "name": "deltaPotAmount",
              "type": "uint256"
            },
            {
              "internalType": "uint256",
              "name": "reinsertPotAmount",
              "type": "uint256"
            },
            {
              "internalType": "uint256",
              "name": "governancePotAmount",
              "type": "uint256"
            },
            {
              "internalType": "uint256",
              "name": "totalRewards",
              "type": "uint256"
            }
          ],
          "internalType": "struct BlockRewardHbbft.PotsShares",
          "name": "",
          "type": "tuple"
        }
      ],
      "stateMutability": "view",
      "type": "function"
    },
    {
      "inputs": [],
      "name": "governancePotAddress",
      "outputs": [
        {
          "internalType": "address payable",
          "name": "",
          "type": "address"
        }
      ],
      "stateMutability": "view",
      "type": "function"
    },
    {
      "inputs": [],
      "name": "governancePotShareDenominator",
      "outputs": [
        {
          "internalType": "uint256",
          "name": "",
          "type": "uint256"
        }
      ],
      "stateMutability": "view",
      "type": "function"
    },
    {
      "inputs": [],
      "name": "governancePotShareNominator",
      "outputs": [
        {
          "internalType": "uint256",
          "name": "",
          "type": "uint256"
        }
      ],
      "stateMutability": "view",
      "type": "function"
    },
    {
      "inputs": [
        {
          "internalType": "address",
          "name": "_contractOwner",
          "type": "address"
        },
        {
          "internalType": "address",
          "name": "_validatorSet",
          "type": "address"
        },
        {
          "internalType": "address",
          "name": "_connectivityTracker",
          "type": "address"
        }
      ],
      "name": "initialize",
      "outputs": [],
      "stateMutability": "nonpayable",
      "type": "function"
    },
    {
      "inputs": [
        {
          "internalType": "bytes4",
          "name": "funcSelector",
          "type": "bytes4"
        },
        {
          "internalType": "uint256",
          "name": "newVal",
          "type": "uint256"
        }
      ],
      "name": "isWithinAllowedRange",
      "outputs": [
        {
          "internalType": "bool",
          "name": "",
          "type": "bool"
        }
      ],
      "stateMutability": "view",
      "type": "function"
    },
    {
      "inputs": [],
      "name": "nativeRewardUndistributed",
      "outputs": [
        {
          "internalType": "uint256",
          "name": "",
          "type": "uint256"
        }
      ],
      "stateMutability": "view",
      "type": "function"
    },
    {
      "inputs": [],
      "name": "notifyEarlyEpochEnd",
      "outputs": [],
      "stateMutability": "nonpayable",
      "type": "function"
    },
    {
      "inputs": [],
      "name": "owner",
      "outputs": [
        {
          "internalType": "address",
          "name": "",
          "type": "address"
        }
      ],
      "stateMutability": "view",
      "type": "function"
    },
    {
      "inputs": [],
      "name": "reinsertPot",
      "outputs": [
        {
          "internalType": "uint256",
          "name": "",
          "type": "uint256"
        }
      ],
      "stateMutability": "view",
      "type": "function"
    },
    {
      "inputs": [],
      "name": "reinsertPotPayoutFraction",
      "outputs": [
        {
          "internalType": "uint256",
          "name": "",
          "type": "uint256"
        }
      ],
      "stateMutability": "view",
      "type": "function"
    },
    {
      "inputs": [
        {
          "internalType": "bytes4",
          "name": "funcSelector",
          "type": "bytes4"
        }
      ],
      "name": "removeAllowedChangeableParameter",
      "outputs": [],
      "stateMutability": "nonpayable",
      "type": "function"
    },
    {
      "inputs": [],
      "name": "renounceOwnership",
      "outputs": [],
      "stateMutability": "nonpayable",
      "type": "function"
    },
    {
      "inputs": [],
      "name": "resetEarlyEpochEnd",
      "outputs": [],
      "stateMutability": "nonpayable",
      "type": "function"
    },
    {
      "inputs": [
        {
          "internalType": "bool",
          "name": "_isEpochEndBlock",
          "type": "bool"
        }
      ],
      "name": "reward",
      "outputs": [
        {
          "internalType": "uint256",
          "name": "rewardsNative",
          "type": "uint256"
        }
      ],
      "stateMutability": "nonpayable",
      "type": "function"
    },
    {
      "inputs": [],
      "name": "sendCoins",
      "outputs": [],
      "stateMutability": "payable",
      "type": "function"
    },
    {
      "inputs": [
        {
          "internalType": "bytes4",
          "name": "setter",
          "type": "bytes4"
        },
        {
          "internalType": "bytes4",
          "name": "getter",
          "type": "bytes4"
        },
        {
          "internalType": "uint256[]",
          "name": "params",
          "type": "uint256[]"
        }
      ],
      "name": "setAllowedChangeableParameter",
      "outputs": [],
      "stateMutability": "nonpayable",
      "type": "function"
    },
    {
      "inputs": [
        {
          "internalType": "address",
          "name": "_connectivityTracker",
          "type": "address"
        }
      ],
      "name": "setConnectivityTracker",
      "outputs": [],
      "stateMutability": "nonpayable",
      "type": "function"
    },
    {
      "inputs": [
        {
          "internalType": "address",
          "name": "_address",
          "type": "address"
        }
      ],
      "name": "setGovernanceAddress",
      "outputs": [],
      "stateMutability": "nonpayable",
      "type": "function"
    },
    {
      "inputs": [
        {
          "internalType": "uint256",
          "name": "_shareNominator",
          "type": "uint256"
        }
      ],
      "name": "setGovernancePotShareNominator",
      "outputs": [],
      "stateMutability": "nonpayable",
      "type": "function"
    },
    {
      "inputs": [
        {
          "internalType": "uint256",
          "name": "_value",
          "type": "uint256"
        }
      ],
      "name": "setReinsertPotPayoutFraction",
      "outputs": [],
      "stateMutability": "nonpayable",
      "type": "function"
    },
    {
      "inputs": [
        {
          "internalType": "uint256",
          "name": "_value",
          "type": "uint256"
        }
      ],
      "name": "setdeltaPotPayoutFraction",
      "outputs": [],
      "stateMutability": "nonpayable",
      "type": "function"
    },
    {
      "inputs": [
        {
          "internalType": "address",
          "name": "newOwner",
          "type": "address"
        }
      ],
      "name": "transferOwnership",
      "outputs": [],
      "stateMutability": "nonpayable",
      "type": "function"
    },
    {
      "inputs": [
        {
          "internalType": "uint256",
          "name": "",
          "type": "uint256"
        }
      ],
      "name": "validatorMinRewardPercent",
      "outputs": [
        {
          "internalType": "uint256",
          "name": "",
          "type": "uint256"
        }
      ],
      "stateMutability": "view",
      "type": "function"
    },
    {
      "inputs": [],
      "name": "validatorSetContract",
      "outputs": [
        {
          "internalType": "contract IValidatorSetHbbft",
          "name": "",
          "type": "address"
        }
      ],
      "stateMutability": "view",
      "type": "function"
    },
    {
      "stateMutability": "payable",
      "type": "receive"
    }
  ],
  "bytecode": "0x6080604052348015600f57600080fd5b506016601a565b60ca565b7ff0c57e16840df040f15088dc2f81fe391c3923bec73e23a9662efc9c229c6a00805468010000000000000000900460ff161560695760405163f92ee8a960e01b815260040160405180910390fd5b80546001600160401b039081161460c75780546001600160401b0319166001600160401b0390811782556040519081527fc7f505b2f371ae2175ee4913f4499e1f2633a7b5936321eed1cdaeb6115181d29060200160405180910390a15b50565b6130eb806100d96000396000f3fe6080604052600436106102885760003560e01c80639a06e21511610153578063c0c53b8b116100cb578063dd03f5b91161007f578063dfc8bf4e11610064578063dfc8bf4e14610751578063f2fde38b14610771578063f302163d1461039b57600080fd5b8063dd03f5b914610705578063dd0707d41461073257600080fd5b8063cb68d127116100b0578063cb68d1271461067b578063cdf7a0901461069b578063cfc16254146106c857600080fd5b8063c0c53b8b1461063b578063c6cc93331461065b57600080fd5b8063af18253511610122578063b710c15d11610107578063b710c15d146105ce578063ba08d237146105fb578063bf348f861461061b57600080fd5b8063af182535146105be578063b10c7548146105c657600080fd5b80639a06e215146105685780639a64ca2c1461057d578063a59546e214610593578063adc481a7146105a857600080fd5b8063669554691161020157806378ff69d5116101b55780638da5cb5b1161019a5780638da5cb5b146104f557806391b57986146105325780639740f48d1461054857600080fd5b806378ff69d5146104b55780637d8149db146104d557600080fd5b8063715018a6116101e6578063715018a61461046c578063732524941461048157806373f129581461049f57600080fd5b8063669554691461041b578063674a72141461043b57600080fd5b80633c2c943c11610258578063596208721161023d578063596208721461039d5780635c57a801146103b25780635cbc1a6f146103c857600080fd5b80633c2c943c146103655780634346845f1461037b57600080fd5b8062067a84146102ac5780631274fa09146102df57806319cee897146102f557806333d699211461032d57600080fd5b366102a757346006600082825461029f9190612b0c565b925050819055005b600080fd5b3480156102b857600080fd5b506102cc6102c7366004612b1f565b610791565b6040519081526020015b60405180910390f35b3480156102eb57600080fd5b506102cc60075481565b34801561030157600080fd5b50600954610315906001600160a01b031681565b6040516001600160a01b0390911681526020016102d6565b34801561033957600080fd5b506102cc610348366004612b5d565b600160209081526000928352604080842090915290825290205481565b34801561037157600080fd5b506102cc600b5481565b34801561038757600080fd5b5061039b610396366004612ba5565b6108c5565b005b3480156103a957600080fd5b5061039b6109cb565b3480156103be57600080fd5b506102cc60045481565b3480156103d457600080fd5b506103e86103e3366004612c36565b610a33565b6040516102d691908151815260208083015190820152604080830151908201526060918201519181019190915260800190565b34801561042757600080fd5b50600c54610315906001600160a01b031681565b34801561044757600080fd5b50600c5461045c90600160a01b900460ff1681565b60405190151581526020016102d6565b34801561047857600080fd5b5061039b610a6d565b34801561048d57600080fd5b506009546001600160a01b0316610315565b3480156104ab57600080fd5b506102cc60065481565b3480156104c157600080fd5b5061039b6104d0366004612c4f565b610a81565b3480156104e157600080fd5b5061039b6104f0366004612c6c565b610b05565b34801561050157600080fd5b507f9016d09d72d40fdae2fd8ceac6b6234c7706214fd39c1cd1e609a0528c199300546001600160a01b0316610315565b34801561053e57600080fd5b506102cc600a5481565b34801561055457600080fd5b5061039b610563366004612c36565b610b8f565b34801561057457600080fd5b506102cc601481565b34801561058957600080fd5b506102cc60055481565b34801561059f57600080fd5b506102cc610c08565b3480156105b457600080fd5b506102cc60025481565b61039b610e4f565b61039b610e68565b3480156105da57600080fd5b506105ee6105e9366004612cce565b610e7a565b6040516102d69190612d63565b34801561060757600080fd5b5061045c610616366004612dc5565b610f2a565b34801561062757600080fd5b506105ee610636366004612c6c565b611105565b34801561064757600080fd5b5061039b610656366004612def565b6111aa565b34801561066757600080fd5b5061039b610676366004612c36565b611432565b34801561068757600080fd5b5061039b610696366004612c36565b6114a9565b3480156106a757600080fd5b506102cc6106b6366004612c36565b60036020526000908152604090205481565b3480156106d457600080fd5b5061039b6106e3366004612c4f565b600980546001600160a01b0319166001600160a01b0392909216919091179055565b34801561071157600080fd5b50610725610720366004612c4f565b611520565b6040516102d69190612e76565b34801561073e57600080fd5b5061039b600c805460ff60a01b19169055565b34801561075d57600080fd5b50600854610315906001600160a01b031681565b34801561077d57600080fd5b5061039b61078c366004612c4f565b61158a565b60003373fffffffffffffffffffffffffffffffffffffffe146107c6576040516282b42960e81b815260040160405180910390fd5b6107ce6115c8565b6008546040805163239a373960e21b815290516000926001600160a01b031691638e68dce49160048083019260209291908290030181865afa158015610818573d6000803e3d6000fd5b505050506040513d601f19601f8201168201806040525081019061083c9190612e89565b9050821561088d5761084d81611612565b91507ff32b9551d3414b67f8e66e20ac15e62694b9d1230abb2e2e48f9dc2e1964c4298260405161088091815260200190565b60405180910390a1610896565b6108968161188f565b506108c060017f9b779b17422d0df92223018b32b4d1fa46e071723d6817e2486d003becc55f0055565b919050565b6108cd611dad565b60006108d7611e08565b90506040518060400160405280857bffffffffffffffffffffffffffffffffffffffffffffffffffffffff1916815260200184848080602002602001604051908101604052809392919081815260200183836020028082843760009201829052509390945250506001600160e01b031988168152602084815260409091208351815463ffffffff191660e09190911c178155838201518051919350610983926001850192910190612a7c565b509050507f3665bf9cd0ba4ddceeec259e21dcf8a4510f3b1130bd42e950828e69d85408ba858585856040516109bc9493929190612ea6565b60405180910390a15050505050565b600c546001600160a01b031633146109f5576040516282b42960e81b815260040160405180910390fd5b600c805460ff60a01b1916600160a01b1790556040517f9f7c6e71cec61c4bd3b4af384f8b8729af23a80826f33e1431d07a09a4904b1690600090a1565b610a5e6040518060800160405280600081526020016000815260200160008152602001600081525090565b610a6782611e6a565b92915050565b610a75611dad565b610a7f6000612009565b565b610a89611dad565b6001600160a01b038116610ab05760405163d92e233d60e01b815260040160405180910390fd5b600c80546001600160a01b0319166001600160a01b0383169081179091556040519081527f387d29e18823e432432b6098ebeee33beebdb128d2234c7f486c26447b738edd906020015b60405180910390a150565b610b0d611dad565b6000610b17611e08565b6001600160e01b031983166000908152602082905260408120805463ffffffff19168155919250610b4b6001830182612ac7565b50506040516001600160e01b0319831681527fed27cb02231782dadf13473a7828cb980c4d685791b7a3136dde00f8c3594cb6906020015b60405180910390a15050565b610b97611dad565b80610bae6000356001600160e01b03191682610f2a565b610bd3576040516373330d9b60e01b8152600481018290526024015b60405180910390fd5b600a8290556040518281527f0bae48e5d1dc3568f32952ed3a75d66d27094f2e08f508808d86627eeef2290390602001610b83565b600080600860009054906101000a90046001600160a01b03166001600160a01b0316638e68dce46040518163ffffffff1660e01b8152600401602060405180830381865afa158015610c5e573d6000803e3d6000fd5b505050506040513d601f19601f82011682018060405250810190610c829190612e89565b90506000816001600160a01b0316639b03d7446040518163ffffffff1660e01b8152600401602060405180830381865afa158015610cc4573d6000803e3d6000fd5b505050506040513d601f19601f82011682018060405250810190610ce89190612f13565b826001600160a01b03166322e3d9866040518163ffffffff1660e01b8152600401602060405180830381865afa158015610d26573d6000803e3d6000fd5b505050506040513d601f19601f82011682018060405250810190610d4a9190612f13565b610d549190612f2c565b9050816001600160a01b03166322e3d9866040518163ffffffff1660e01b8152600401602060405180830381865afa158015610d94573d6000803e3d6000fd5b505050506040513d601f19601f82011682018060405250810190610db89190612f13565b4211610e455780826001600160a01b0316639b03d7446040518163ffffffff1660e01b8152600401602060405180830381865afa158015610dfd573d6000803e3d6000fd5b505050506040513d601f19601f82011682018060405250810190610e219190612f13565b610e2b9042612f2c565b610e36906064612f3f565b610e409190612f56565b610e48565b60645b9250505090565b3460066000828254610e619190612b0c565b9091555050565b3460046000828254610e619190612b0c565b604080518082019091526000815260606020820152610e97611e08565b82516020808501919091206001600160e01b0319908116600090815292825260409283902083518085018552815460e01b9092168252600181018054855181860281018601909652808652929491938581019390830182828015610f1a57602002820191906000526020600020905b815481526020019060010190808311610f06575b5050505050815250509050919050565b600080610f35611e08565b6001600160e01b031980861660009081526020838152604080832081518083018352815460e01b90951685526001810180548351818602810186019094528084529697509395909385840193909190830182828015610fb357602002820191906000526020600020905b815481526020019060010190808311610f9f575b5050505050815250509050806020015151600003610fd657600092505050610a67565b60208101518151600090610fe99061207a565b905060005b82518110156110f7578183828151811061100a5761100a612f78565b6020026020010151036110ef576000808211611040578360008151811061103357611033612f78565b6020026020010151611065565b8361104c600184612f2c565b8151811061105c5761105c612f78565b60200260200101515b90506000600185516110779190612f2c565b83106110a957846001865161108c9190612f2c565b8151811061109c5761109c612f78565b60200260200101516110ce565b846110b5846001612b0c565b815181106110c5576110c5612f78565b60200260200101515b90508189141580156110e05750808914155b15975050505050505050610a67565b600101610fee565b506000979650505050505050565b604080518082019091526000815260606020820152611122611e08565b6001600160e01b03198084166000908152602092835260409081902081518083018352815460e01b9093168352600181018054835181870281018701909452808452939491938583019392830182828015610f1a5760200282019190600052602060002090815481526020019060010190808311610f06575050505050815250509050919050565b7ff0c57e16840df040f15088dc2f81fe391c3923bec73e23a9662efc9c229c6a00805468010000000000000000810460ff16159067ffffffffffffffff166000811580156111f55750825b905060008267ffffffffffffffff1660011480156112125750303b155b905081158015611220575080155b1561123e5760405163f92ee8a960e01b815260040160405180910390fd5b845467ffffffffffffffff19166001178555831561127257845468ff00000000000000001916680100000000000000001785555b6001600160a01b038816158061128f57506001600160a01b038716155b806112a157506001600160a01b038616155b156112bf5760405163d92e233d60e01b815260040160405180910390fd5b6112c888612151565b6112d0612162565b600880546001600160a01b038981166001600160a01b031992831617909255600c80549289169282169290921790915560008080526003602090815260147f3617319a054d772f909f7c479a2cebe5066e836a939412e32403c99029b92eff5561177060058190556007556009805490931673da0da0da0da0da0da0da00da0da0da0da0da0da017909255600a80556064600b908155604080518281526101808101909152919282016101608036833701905050905060005b81518110156113c25761139d81600a612b0c565b8282815181106113af576113af612f78565b6020908102919091010152600101611389565b506113dc639740f48d60e01b6348dabcc360e11b83612172565b50831561142857845468ff000000000000000019168555604051600181527fc7f505b2f371ae2175ee4913f4499e1f2633a7b5936321eed1cdaeb6115181d29060200160405180910390a15b5050505050505050565b61143a611dad565b80600003611474576040517fffcfec8400000000000000000000000000000000000000000000000000000000815260040160405180910390fd5b60078190556040518181527fb914176cecdd5906f3fd1eb6fcf471c39b33cdc7142a1d8c494487c31ff40f8890602001610afa565b6114b1611dad565b806000036114eb576040517fffcfec8400000000000000000000000000000000000000000000000000000000815260040160405180910390fd5b60058190556040518181527f8ce02935a391d407d8b483203a4f3cd8465b62a45c7274471113a192f111eda090602001610afa565b6001600160a01b0381166000908152602081815260409182902080548351818402810184019094528084526060939283018282801561157e57602002820191906000526020600020905b81548152602001906001019080831161156a575b50505050509050919050565b611592611dad565b6001600160a01b0381166115bc57604051631e4fbdf760e01b815260006004820152602401610bca565b6115c581612009565b50565b7f9b779b17422d0df92223018b32b4d1fa46e071723d6817e2486d003becc55f0080546001190161160c57604051633ee5aeb560e01b815260040160405180910390fd5b60029055565b600080826001600160a01b031663794c0c686040518163ffffffff1660e01b8152600401602060405180830381865afa158015611653573d6000803e3d6000fd5b505050506040513d601f19601f820116820180604052508101906116779190612f13565b600c5460405163245f8d5360e11b8152600481018390529192506001600160a01b0316906348bf1aa690602401600060405180830381600087803b1580156116be57600080fd5b505af11580156116d2573d6000803e3d6000fd5b505050506000816000146116ed576116ea8285612227565b90505b60006116fa836001612b0c565b90506060600860009054906101000a90046001600160a01b03166001600160a01b031663eebc7a396040518163ffffffff1660e01b8152600401600060405180830381865afa158015611751573d6000803e3d6000fd5b505050506040513d6000823e601f3d908101601f191682016040526117799190810190612f8e565b9050611786868383612568565b600860009054906101000a90046001600160a01b03166001600160a01b031663b7ab4db56040518163ffffffff1660e01b8152600401600060405180830381865afa1580156117d9573d6000803e3d6000fd5b505050506040513d6000823e601f3d908101601f191682016040526118019190810190612f8e565b905061180e868383612568565b600082815260036020526040808220601490556008548151637528621160e01b815291516001600160a01b03909116926375286211926004808201939182900301818387803b15801561186057600080fd5b505af1158015611874573d6000803e3d6000fd5b5050600c805460ff60a01b1916905550929695505050505050565b6000816001600160a01b031663c6912cc06040518163ffffffff1660e01b8152600401602060405180830381865afa1580156118cf573d6000803e3d6000fd5b505050506040513d601f19601f820116820180604052508101906118f39190612f13565b90506000600860009054906101000a90046001600160a01b03166001600160a01b031663b7ab4db56040518163ffffffff1660e01b8152600401600060405180830381865afa15801561194a573d6000803e3d6000fd5b505050506040513d6000823e601f3d908101601f191682016040526119729190810190612f8e565b60085460408051630456292b60e11b8152905192935042851115926000926001600160a01b0316916308ac52569160048083019260209291908290030181865afa1580156119c4573d6000803e3d6000fd5b505050506040513d601f19601f820116820180604052508101906119e89190612f13565b6119f3906002612f3f565b8351611a00906003612f3f565b11611af8576000856001600160a01b031663a5d54f656040518163ffffffff1660e01b8152600401600060405180830381865afa158015611a45573d6000803e3d6000fd5b505050506040513d6000823e601f3d908101601f19168201604052611a6d9190810190612f8e565b519050600081118015611aec5750835160085460405163efd0494760e01b8152600481018490526001600160a01b039091169063efd0494790602401602060405180830381865afa158015611ac6573d6000803e3d6000fd5b505050506040513d601f19601f82011682018060405250810190611aea9190612f13565b115b15611af657600191505b505b60008280611b035750815b80611b175750600c54600160a01b900460ff165b90506000600860009054906101000a90046001600160a01b03166001600160a01b031663eebc7a396040518163ffffffff1660e01b8152600401600060405180830381865afa158015611b6e573d6000803e3d6000fd5b505050506040513d6000823e601f3d908101601f19168201604052611b969190810190612f8e565b519050818015611ba4575080155b15611c2457600860009054906101000a90046001600160a01b03166001600160a01b0316635ccee1de6040518163ffffffff1660e01b8152600401600060405180830381600087803b158015611bf957600080fd5b505af1158015611c0d573d6000803e3d6000fd5b5050600c805460ff60a01b1916905550611cf59050565b866001600160a01b03166322e3d9866040518163ffffffff1660e01b8152600401602060405180830381865afa158015611c62573d6000803e3d6000fd5b505050506040513d601f19601f82011682018060405250810190611c869190612f13565b4210611cf557600860009054906101000a90046001600160a01b03166001600160a01b031663ade1900a6040518163ffffffff1660e01b8152600401600060405180830381600087803b158015611cdc57600080fd5b505af1158015611cf0573d6000803e3d6000fd5b505050505b600c54600160a01b900460ff168015611d0d57508015155b15611d2057600c805460ff60a01b191690555b6009546040805163ab0eb62d60e01b815290516001600160a01b0390921691829163ab0eb62d91600480830192600092919082900301818387803b158015611d6757600080fd5b505af1925050508015611d78575060015b15611428575050505050505050565b60017f9b779b17422d0df92223018b32b4d1fa46e071723d6817e2486d003becc55f0055565b33611ddf7f9016d09d72d40fdae2fd8ceac6b6234c7706214fd39c1cd1e609a0528c199300546001600160a01b031690565b6001600160a01b031614610a7f5760405163118cdaa760e01b8152336004820152602401610bca565b60008060ff19611e3960017fdace3fd3d1fbdfd33853f19ba191d28c617e373ec58fc73cf7b58db5aff2c2ab612f2c565b604051602001611e4b91815260200190565b60408051601f1981840301815291905280516020909101201692915050565b611e956040518060800160405280600081526020016000815260200160008152602001600081525090565b60085460408051630456292b60e11b815290516000926001600160a01b0316916308ac52569160048083019260209291908290030181865afa158015611edf573d6000803e3d6000fd5b505050506040513d601f19601f82011682018060405250810190611f039190612f13565b90506000611f0f610c08565b905060006040518060800160405280600081526020016000815260200160008152602001600081525090506064836005548488600454611f4f9190612f3f565b611f599190612f3f565b611f639190612f56565b611f6d9190612f56565b611f779190612f56565b815260075460065460649185918590611f91908a90612f3f565b611f9b9190612f3f565b611fa59190612f56565b611faf9190612f56565b611fb99190612f56565b602082018190528151600254611fcf9190612b0c565b611fd99190612b0c565b60608201819052600b54600a549091611ff29190612f3f565b611ffc9190612f56565b6040820152949350505050565b7f9016d09d72d40fdae2fd8ceac6b6234c7706214fd39c1cd1e609a0528c19930080546001600160a01b031981166001600160a01b03848116918217845560405192169182907f8be0079c531659141344cd1fd0a4f28419497f9722a3daafe3b4186f6b6457e090600090a3505050565b60408051600481526024810182526020810180517bffffffffffffffffffffffffffffffffffffffffffffffffffffffff166001600160e01b031985161790529051600091908290819030906120d1908590613040565b600060405180830381855afa9150503d806000811461210c576040519150601f19603f3d011682016040523d82523d6000602084013e612111565b606091505b50915091508161213457604051635fbab09b60e11b815260040160405180910390fd5b808060200190518101906121489190612f13565b95945050505050565b61215961268a565b6115c5816126d8565b61216a61268a565b610a7f6126e0565b61217a61268a565b6000612184611e08565b6040805180820182526001600160e01b0319868116825260208083018781529189166000908152858252939093208251815463ffffffff191660e09190911c17815590518051949550919390926121e2926001850192910190612a7c565b509050507f3665bf9cd0ba4ddceeec259e21dcf8a4510f3b1130bd42e950828e69d85408ba8484846040516122199392919061306f565b60405180910390a150505050565b600080600860009054906101000a90046001600160a01b03166001600160a01b031663b7ab4db56040518163ffffffff1660e01b8152600401600060405180830381865afa15801561227d573d6000803e3d6000fd5b505050506040513d6000823e601f3d908101601f191682016040526122a59190810190612f8e565b805190915060008190036122cc576040516322b8b72360e21b815260040160405180910390fd5b60006122d782611e6a565b905080606001516000036122f15760009350505050610a67565b805160048054600090612305908490612f2c565b9091555050602081015160068054600090612321908490612f2c565b90915550506009546040820151612341916001600160a01b0316906126e8565b60408101516060820151600090612359908390612f2c565b9050600080612369898b89612794565b9150915081600003612399578385606001516123859190612f2c565b6002555060009650610a6795505050505050565b60006123a58385612f56565b60008c81526003602052604090205490915081156125455760005b88811015612543578381815181106123da576123da612f78565b60200260200101511561253b5760008a82815181106123fb576123fb612f78565b60209081029190910101516008546040516307b9342f60e21b81526001600160a01b03808416600483015292935060009290911690631ee4d0bc90602401602060405180830381865afa158015612456573d6000803e3d6000fd5b505050506040513d601f19601f8201168201806040525081019061247a9190612e89565b90506124c68f83876001600160a01b0390911660008181526020818152604080832080546001818101835591855283852001879055958352948152848220928252919091529190912055565b604051633f3afe0160e01b81526001600160a01b038281166004830152602482018690528f1690633f3afe019087906044016000604051808303818588803b15801561251157600080fd5b505af1158015612525573d6000803e3d6000fd5b505050505084896125369190612b0c565b985050505b6001016123c0565b505b8587606001516125559190612f2c565b60025550939a9950505050505050505050565b60005b81518110156126845760085482516000916001600160a01b031690631ee4d0bc9085908590811061259e5761259e612f78565b60200260200101516040518263ffffffff1660e01b81526004016125d191906001600160a01b0391909116815260200190565b602060405180830381865afa1580156125ee573d6000803e3d6000fd5b505050506040513d601f19601f820116820180604052508101906126129190612e89565b6040516368563b7b60e11b8152600481018690526001600160a01b0380831660248301529192509086169063d0ac76f690604401600060405180830381600087803b15801561266057600080fd5b505af1158015612674573d6000803e3d6000fd5b505050505080600101905061256b565b50505050565b7ff0c57e16840df040f15088dc2f81fe391c3923bec73e23a9662efc9c229c6a005468010000000000000000900460ff16610a7f57604051631afcd79f60e31b815260040160405180910390fd5b61159261268a565b611d8761268a565b8047101561270957604051631e9acf1760e31b815260040160405180910390fd5b6000826001600160a01b03168260405160006040518083038185875af1925050503d8060008114612756576040519150601f19603f3d011682016040523d82523d6000602084013e61275b565b606091505b505090508061278f57604051630e21dcbb60e11b81526001600160a01b038416600482015260248101839052604401610bca565b505050565b600060606000835167ffffffffffffffff8111156127b4576127b4612c87565b6040519080825280602002602001820160405280156127dd578160200160208202803683370190505b5090506000866001600160a01b0316639b03d7446040518163ffffffff1660e01b8152600401602060405180830381865afa158015612820573d6000803e3d6000fd5b505050506040513d601f19601f820116820180604052508101906128449190612f13565b90506000805b8651811015612a6e5760085487516000916001600160a01b03808d1692635b4eafe0928d921690631ee4d0bc908d908890811061288957612889612f78565b60200260200101516040518263ffffffff1660e01b81526004016128bc91906001600160a01b0391909116815260200190565b602060405180830381865afa1580156128d9573d6000803e3d6000fd5b505050506040513d601f19601f820116820180604052508101906128fd9190612e89565b6040516001600160e01b031960e085901b16815260048101929092526001600160a01b03166024820152604401602060405180830381865afa158015612947573d6000803e3d6000fd5b505050506040513d601f19601f8201168201806040525081019061296b9190612f13565b90508060000361297b5750612a66565b60085488516000916001600160a01b0316906360e5c520908b90869081106129a5576129a5612f78565b60200260200101516040518263ffffffff1660e01b81526004016129d891906001600160a01b0391909116815260200190565b602060405180830381865afa1580156129f5573d6000803e3d6000fd5b505050506040513d601f19601f82011682018060405250810190612a199190612f13565b9050801580612a285750848110155b15612a34575050612a66565b6001868481518110612a4857612a48612f78565b91151560209283029190910190910152612a618461309c565b935050505b60010161284a565b509791965090945050505050565b828054828255906000526020600020908101928215612ab7579160200282015b82811115612ab7578251825591602001919060010190612a9c565b50612ac3929150612ae1565b5090565b50805460008255906000526020600020908101906115c591905b5b80821115612ac35760008155600101612ae2565b634e487b7160e01b600052601160045260246000fd5b80820180821115610a6757610a67612af6565b600060208284031215612b3157600080fd5b81358015158114612b4157600080fd5b9392505050565b6001600160a01b03811681146115c557600080fd5b60008060408385031215612b7057600080fd5b823591506020830135612b8281612b48565b809150509250929050565b80356001600160e01b0319811681146108c057600080fd5b60008060008060608587031215612bbb57600080fd5b612bc485612b8d565b9350612bd260208601612b8d565b9250604085013567ffffffffffffffff80821115612bef57600080fd5b818701915087601f830112612c0357600080fd5b813581811115612c1257600080fd5b8860208260051b8501011115612c2757600080fd5b95989497505060200194505050565b600060208284031215612c4857600080fd5b5035919050565b600060208284031215612c6157600080fd5b8135612b4181612b48565b600060208284031215612c7e57600080fd5b612b4182612b8d565b634e487b7160e01b600052604160045260246000fd5b604051601f8201601f1916810167ffffffffffffffff81118282101715612cc657612cc6612c87565b604052919050565b60006020808385031215612ce157600080fd5b823567ffffffffffffffff80821115612cf957600080fd5b818501915085601f830112612d0d57600080fd5b813581811115612d1f57612d1f612c87565b612d31601f8201601f19168501612c9d565b91508082528684828501011115612d4757600080fd5b8084840185840137600090820190930192909252509392505050565b602080825282516001600160e01b031916828201528281015160408084015280516060840181905260009291820190839060808601905b80831015612dba5783518252928401926001929092019190840190612d9a565b509695505050505050565b60008060408385031215612dd857600080fd5b612de183612b8d565b946020939093013593505050565b600080600060608486031215612e0457600080fd5b8335612e0f81612b48565b92506020840135612e1f81612b48565b91506040840135612e2f81612b48565b809150509250925092565b60008151808452602080850194506020840160005b83811015612e6b57815187529582019590820190600101612e4f565b509495945050505050565b602081526000612b416020830184612e3a565b600060208284031215612e9b57600080fd5b8151612b4181612b48565b6001600160e01b0319858116825284166020820152606060408201819052810182905260007f07ffffffffffffffffffffffffffffffffffffffffffffffffffffffffffffff831115612ef857600080fd5b8260051b808560808501379190910160800195945050505050565b600060208284031215612f2557600080fd5b5051919050565b81810381811115610a6757610a67612af6565b8082028115828204841417610a6757610a67612af6565b600082612f7357634e487b7160e01b600052601260045260246000fd5b500490565b634e487b7160e01b600052603260045260246000fd5b60006020808385031215612fa157600080fd5b825167ffffffffffffffff80821115612fb957600080fd5b818501915085601f830112612fcd57600080fd5b815181811115612fdf57612fdf612c87565b8060051b9150612ff0848301612c9d565b818152918301840191848101908884111561300a57600080fd5b938501935b83851015613034578451925061302483612b48565b828252938501939085019061300f565b98975050505050505050565b6000825160005b818110156130615760208186018101518583015201613047565b506000920191825250919050565b6001600160e01b031984811682528316602082015260606040820181905260009061214890830184612e3a565b6000600182016130ae576130ae612af6565b506001019056fea2646970667358221220b659e8c72bc84224aa875f7b6db6e915b0f96a085dc81ac48b86e1b533bcf5c364736f6c63430008190033",
  "linkReferences": {},
  "deployedLinkReferences": {}
}