{
  "_format": "hh-sol-artifact-1",
  "contractName": "BlockRewardHbbft",
  "sourceName": "contracts/BlockRewardHbbft.sol",
  "abi": [
    {
      "inputs": [],
      "stateMutability": "nonpayable",
      "type": "constructor"
    },
    {
      "inputs": [],
      "name": "GetterCallFailed",
      "type": "error"
    },
    {
      "inputs": [],
      "name": "InsufficientBalance",
      "type": "error"
    },
    {
      "inputs": [],
      "name": "InvalidInitialization",
      "type": "error"
    },
    {
      "inputs": [
        {
          "internalType": "uint256",
          "name": "_newVal",
          "type": "uint256"
        }
      ],
      "name": "NewValueOutOfRange",
      "type": "error"
    },
    {
      "inputs": [],
      "name": "NotInitializing",
      "type": "error"
    },
    {
      "inputs": [
        {
          "internalType": "address",
          "name": "owner",
          "type": "address"
        }
      ],
      "name": "OwnableInvalidOwner",
      "type": "error"
    },
    {
      "inputs": [
        {
          "internalType": "address",
          "name": "account",
          "type": "address"
        }
      ],
      "name": "OwnableUnauthorizedAccount",
      "type": "error"
    },
    {
      "inputs": [],
      "name": "ReentrancyGuardReentrantCall",
      "type": "error"
    },
    {
      "inputs": [
        {
          "internalType": "address",
          "name": "recipient",
          "type": "address"
        },
        {
          "internalType": "uint256",
          "name": "amount",
          "type": "uint256"
        }
      ],
      "name": "TransferFailed",
      "type": "error"
    },
    {
      "inputs": [],
      "name": "Unauthorized",
      "type": "error"
    },
    {
      "inputs": [],
      "name": "ValidatorsListEmpty",
      "type": "error"
    },
    {
      "inputs": [],
      "name": "ZeroAddress",
      "type": "error"
    },
    {
      "anonymous": false,
      "inputs": [
        {
          "indexed": false,
          "internalType": "uint256",
          "name": "rewards",
          "type": "uint256"
        }
      ],
      "name": "CoinsRewarded",
      "type": "event"
    },
    {
      "anonymous": false,
      "inputs": [],
      "name": "EarlyEpochEndNotificationReceived",
      "type": "event"
    },
    {
      "anonymous": false,
      "inputs": [
        {
          "indexed": false,
          "internalType": "uint64",
          "name": "version",
          "type": "uint64"
        }
      ],
      "name": "Initialized",
      "type": "event"
    },
    {
      "anonymous": false,
      "inputs": [
        {
          "indexed": true,
          "internalType": "address",
          "name": "previousOwner",
          "type": "address"
        },
        {
          "indexed": true,
          "internalType": "address",
          "name": "newOwner",
          "type": "address"
        }
      ],
      "name": "OwnershipTransferred",
      "type": "event"
    },
    {
      "anonymous": false,
      "inputs": [
        {
          "indexed": false,
          "internalType": "bytes4",
          "name": "funcSelector",
          "type": "bytes4"
        }
      ],
      "name": "RemoveChangeableParameter",
      "type": "event"
    },
    {
      "anonymous": false,
      "inputs": [
        {
          "indexed": false,
          "internalType": "bytes4",
          "name": "setter",
          "type": "bytes4"
        },
        {
          "indexed": false,
          "internalType": "bytes4",
          "name": "getter",
          "type": "bytes4"
        },
        {
          "indexed": false,
          "internalType": "uint256[]",
          "name": "params",
          "type": "uint256[]"
        }
      ],
      "name": "SetChangeableParameter",
      "type": "event"
    },
    {
      "anonymous": false,
      "inputs": [
        {
          "indexed": false,
          "internalType": "uint256",
          "name": "value",
          "type": "uint256"
        }
      ],
      "name": "SetGovernancePotShareNominator",
      "type": "event"
    },
    {
      "inputs": [],
      "name": "VALIDATOR_FIXED_REWARD_PERCENT",
      "outputs": [
        {
          "internalType": "uint256",
          "name": "",
          "type": "uint256"
        }
      ],
      "stateMutability": "view",
      "type": "function"
    },
    {
      "inputs": [],
      "name": "addToDeltaPot",
      "outputs": [],
      "stateMutability": "payable",
      "type": "function"
    },
    {
      "inputs": [],
      "name": "addToReinsertPot",
      "outputs": [],
      "stateMutability": "payable",
      "type": "function"
    },
    {
      "inputs": [],
      "name": "connectivityTracker",
      "outputs": [
        {
          "internalType": "contract IConnectivityTrackerHbbft",
          "name": "",
          "type": "address"
        }
      ],
      "stateMutability": "view",
      "type": "function"
    },
    {
      "inputs": [],
      "name": "deltaPot",
      "outputs": [
        {
          "internalType": "uint256",
          "name": "",
          "type": "uint256"
        }
      ],
      "stateMutability": "view",
      "type": "function"
    },
    {
      "inputs": [],
      "name": "deltaPotPayoutFraction",
      "outputs": [
        {
          "internalType": "uint256",
          "name": "",
          "type": "uint256"
        }
      ],
      "stateMutability": "view",
      "type": "function"
    },
    {
      "inputs": [],
      "name": "earlyEpochEnd",
      "outputs": [
        {
          "internalType": "bool",
          "name": "",
          "type": "bool"
        }
      ],
      "stateMutability": "view",
      "type": "function"
    },
    {
      "inputs": [],
      "name": "epochPercentage",
      "outputs": [
        {
          "internalType": "uint256",
          "name": "",
          "type": "uint256"
        }
      ],
      "stateMutability": "view",
      "type": "function"
    },
    {
      "inputs": [
        {
          "internalType": "uint256",
          "name": "",
          "type": "uint256"
        },
        {
          "internalType": "address",
          "name": "",
          "type": "address"
        }
      ],
      "name": "epochPoolNativeReward",
      "outputs": [
        {
          "internalType": "uint256",
          "name": "",
          "type": "uint256"
        }
      ],
      "stateMutability": "view",
      "type": "function"
    },
    {
      "inputs": [
        {
          "internalType": "address",
          "name": "_miningAddress",
          "type": "address"
        }
      ],
      "name": "epochsPoolGotRewardFor",
      "outputs": [
        {
          "internalType": "uint256[]",
          "name": "",
          "type": "uint256[]"
        }
      ],
      "stateMutability": "view",
      "type": "function"
    },
    {
      "inputs": [
        {
          "internalType": "string",
          "name": "_selector",
          "type": "string"
        }
      ],
      "name": "getAllowedParamsRange",
      "outputs": [
        {
          "components": [
            {
              "internalType": "bytes4",
              "name": "getter",
              "type": "bytes4"
            },
            {
              "internalType": "uint256[]",
              "name": "range",
              "type": "uint256[]"
            }
          ],
          "internalType": "struct ValueGuards.ParameterRange",
          "name": "",
          "type": "tuple"
        }
      ],
      "stateMutability": "view",
      "type": "function"
    },
    {
      "inputs": [
        {
          "internalType": "bytes4",
          "name": "_selector",
          "type": "bytes4"
        }
      ],
      "name": "getAllowedParamsRangeWithSelector",
      "outputs": [
        {
          "components": [
            {
              "internalType": "bytes4",
              "name": "getter",
              "type": "bytes4"
            },
            {
              "internalType": "uint256[]",
              "name": "range",
              "type": "uint256[]"
            }
          ],
          "internalType": "struct ValueGuards.ParameterRange",
          "name": "",
          "type": "tuple"
        }
      ],
      "stateMutability": "view",
      "type": "function"
    },
    {
      "inputs": [],
      "name": "getGovernanceAddress",
      "outputs": [
        {
          "internalType": "address",
          "name": "",
          "type": "address"
        }
      ],
      "stateMutability": "view",
      "type": "function"
    },
    {
      "inputs": [],
      "name": "governancePotAddress",
      "outputs": [
        {
          "internalType": "address payable",
          "name": "",
          "type": "address"
        }
      ],
      "stateMutability": "view",
      "type": "function"
    },
    {
      "inputs": [],
      "name": "governancePotShareDenominator",
      "outputs": [
        {
          "internalType": "uint256",
          "name": "",
          "type": "uint256"
        }
      ],
      "stateMutability": "view",
      "type": "function"
    },
    {
      "inputs": [],
      "name": "governancePotShareNominator",
      "outputs": [
        {
          "internalType": "uint256",
          "name": "",
          "type": "uint256"
        }
      ],
      "stateMutability": "view",
      "type": "function"
    },
    {
      "inputs": [
        {
          "internalType": "address",
          "name": "_contractOwner",
          "type": "address"
        },
        {
          "internalType": "address",
          "name": "_validatorSet",
          "type": "address"
        },
        {
          "internalType": "address",
          "name": "_connectivityTracker",
          "type": "address"
        }
      ],
      "name": "initialize",
      "outputs": [],
      "stateMutability": "nonpayable",
      "type": "function"
    },
    {
      "inputs": [
        {
          "internalType": "bytes4",
          "name": "funcSelector",
          "type": "bytes4"
        },
        {
          "internalType": "uint256",
          "name": "newVal",
          "type": "uint256"
        }
      ],
      "name": "isWithinAllowedRange",
      "outputs": [
        {
          "internalType": "bool",
          "name": "",
          "type": "bool"
        }
      ],
      "stateMutability": "view",
      "type": "function"
    },
    {
      "inputs": [],
      "name": "nativeRewardUndistributed",
      "outputs": [
        {
          "internalType": "uint256",
          "name": "",
          "type": "uint256"
        }
      ],
      "stateMutability": "view",
      "type": "function"
    },
    {
      "inputs": [],
      "name": "notifyEarlyEpochEnd",
      "outputs": [],
      "stateMutability": "nonpayable",
      "type": "function"
    },
    {
      "inputs": [],
      "name": "owner",
      "outputs": [
        {
          "internalType": "address",
          "name": "",
          "type": "address"
        }
      ],
      "stateMutability": "view",
      "type": "function"
    },
    {
      "inputs": [],
      "name": "reinsertPot",
      "outputs": [
        {
          "internalType": "uint256",
          "name": "",
          "type": "uint256"
        }
      ],
      "stateMutability": "view",
      "type": "function"
    },
    {
      "inputs": [],
      "name": "reinsertPotPayoutFraction",
      "outputs": [
        {
          "internalType": "uint256",
          "name": "",
          "type": "uint256"
        }
      ],
      "stateMutability": "view",
      "type": "function"
    },
    {
      "inputs": [
        {
          "internalType": "bytes4",
          "name": "funcSelector",
          "type": "bytes4"
        }
      ],
      "name": "removeAllowedChangeableParameter",
      "outputs": [],
      "stateMutability": "nonpayable",
      "type": "function"
    },
    {
      "inputs": [],
      "name": "renounceOwnership",
      "outputs": [],
      "stateMutability": "nonpayable",
      "type": "function"
    },
    {
      "inputs": [
        {
          "internalType": "bool",
          "name": "_isEpochEndBlock",
          "type": "bool"
        }
      ],
      "name": "reward",
      "outputs": [
        {
          "internalType": "uint256",
          "name": "rewardsNative",
          "type": "uint256"
        }
      ],
      "stateMutability": "nonpayable",
      "type": "function"
    },
    {
      "inputs": [
        {
          "internalType": "bytes4",
          "name": "setter",
          "type": "bytes4"
        },
        {
          "internalType": "bytes4",
          "name": "getter",
          "type": "bytes4"
        },
        {
          "internalType": "uint256[]",
          "name": "params",
          "type": "uint256[]"
        }
      ],
      "name": "setAllowedChangeableParameter",
      "outputs": [],
      "stateMutability": "nonpayable",
      "type": "function"
    },
    {
      "inputs": [
        {
          "internalType": "uint256",
          "name": "_shareNominator",
          "type": "uint256"
        }
      ],
      "name": "setGovernancePotShareNominator",
      "outputs": [],
      "stateMutability": "nonpayable",
      "type": "function"
    },
    {
      "inputs": [
        {
          "internalType": "address",
          "name": "newOwner",
          "type": "address"
        }
      ],
      "name": "transferOwnership",
      "outputs": [],
      "stateMutability": "nonpayable",
      "type": "function"
    },
    {
      "inputs": [
        {
          "internalType": "uint256",
          "name": "",
          "type": "uint256"
        }
      ],
      "name": "validatorMinRewardPercent",
      "outputs": [
        {
          "internalType": "uint256",
          "name": "",
          "type": "uint256"
        }
      ],
      "stateMutability": "view",
      "type": "function"
    },
    {
      "inputs": [],
      "name": "validatorSetContract",
      "outputs": [
        {
          "internalType": "contract IValidatorSetHbbft",
          "name": "",
          "type": "address"
        }
      ],
      "stateMutability": "view",
      "type": "function"
    },
    {
      "stateMutability": "payable",
      "type": "receive"
    }
  ],
  "bytecode": "0x6080604052348015600f57600080fd5b506016601a565b60ca565b7ff0c57e16840df040f15088dc2f81fe391c3923bec73e23a9662efc9c229c6a00805468010000000000000000900460ff161560695760405163f92ee8a960e01b815260040160405180910390fd5b80546001600160401b039081161460c75780546001600160401b0319166001600160401b0390811782556040519081527fc7f505b2f371ae2175ee4913f4499e1f2633a7b5936321eed1cdaeb6115181d29060200160405180910390a15b50565b612d9f806100d96000396000f3fe6080604052600436106101db5760003560e01c806391b5798611610102578063b710c15d11610095578063cdf7a09011610064578063cdf7a0901461053b578063dd03f5b914610568578063dfc8bf4e14610595578063f2fde38b146105b557600080fd5b8063b710c15d146104ae578063ba08d237146104db578063bf348f86146104fb578063c0c53b8b1461051b57600080fd5b8063a59546e2116100d1578063a59546e214610473578063adc481a714610488578063af1825351461049e578063b10c7548146104a657600080fd5b806391b57986146104125780639740f48d146104285780639a06e215146104485780639a64ca2c1461045d57600080fd5b80635c57a8011161017a5780637325249411610149578063732524941461038157806373f129581461039f5780637d8149db146103b55780638da5cb5b146103d557600080fd5b80635c57a80114610305578063669554691461031b578063674a72141461033b578063715018a61461036c57600080fd5b806333d69921116101b657806333d69921146102805780633c2c943c146102b85780634346845f146102ce57806359620872146102f057600080fd5b8062067a84146101ff5780631274fa091461023257806319cee8971461024857600080fd5b366101fa5734600660008282546101f291906127c0565b925050819055005b600080fd5b34801561020b57600080fd5b5061021f61021a3660046127d3565b6105d5565b6040519081526020015b60405180910390f35b34801561023e57600080fd5b5061021f60075481565b34801561025457600080fd5b50600954610268906001600160a01b031681565b6040516001600160a01b039091168152602001610229565b34801561028c57600080fd5b5061021f61029b366004612811565b600160209081526000928352604080842090915290825290205481565b3480156102c457600080fd5b5061021f600b5481565b3480156102da57600080fd5b506102ee6102e9366004612859565b610709565b005b3480156102fc57600080fd5b506102ee61080f565b34801561031157600080fd5b5061021f60045481565b34801561032757600080fd5b50600c54610268906001600160a01b031681565b34801561034757600080fd5b50600c5461035c90600160a01b900460ff1681565b6040519015158152602001610229565b34801561037857600080fd5b506102ee610877565b34801561038d57600080fd5b506009546001600160a01b0316610268565b3480156103ab57600080fd5b5061021f60065481565b3480156103c157600080fd5b506102ee6103d03660046128ea565b61088b565b3480156103e157600080fd5b507f9016d09d72d40fdae2fd8ceac6b6234c7706214fd39c1cd1e609a0528c199300546001600160a01b0316610268565b34801561041e57600080fd5b5061021f600a5481565b34801561043457600080fd5b506102ee610443366004612905565b610915565b34801561045457600080fd5b5061021f601481565b34801561046957600080fd5b5061021f60055481565b34801561047f57600080fd5b5061021f61098e565b34801561049457600080fd5b5061021f60025481565b6102ee610bd5565b6102ee610bee565b3480156104ba57600080fd5b506104ce6104c9366004612965565b610c00565b60405161022991906129fa565b3480156104e757600080fd5b5061035c6104f6366004612a5c565b610cb0565b34801561050757600080fd5b506104ce6105163660046128ea565b610e8d565b34801561052757600080fd5b506102ee610536366004612a86565b610f32565b34801561054757600080fd5b5061021f610556366004612905565b60036020526000908152604090205481565b34801561057457600080fd5b50610588610583366004612ad1565b6111c7565b6040516102299190612b2a565b3480156105a157600080fd5b50600854610268906001600160a01b031681565b3480156105c157600080fd5b506102ee6105d0366004612ad1565b611231565b60003373fffffffffffffffffffffffffffffffffffffffe1461060a576040516282b42960e81b815260040160405180910390fd5b61061261126f565b6008546040805163239a373960e21b815290516000926001600160a01b031691638e68dce49160048083019260209291908290030181865afa15801561065c573d6000803e3d6000fd5b505050506040513d601f19601f820116820180604052508101906106809190612b3d565b905082156106d157610691816112b9565b91507ff32b9551d3414b67f8e66e20ac15e62694b9d1230abb2e2e48f9dc2e1964c429826040516106c491815260200190565b60405180910390a16106da565b6106da81611536565b5061070460017f9b779b17422d0df92223018b32b4d1fa46e071723d6817e2486d003becc55f0055565b919050565b610711611a54565b600061071b611aaf565b90506040518060400160405280857bffffffffffffffffffffffffffffffffffffffffffffffffffffffff1916815260200184848080602002602001604051908101604052809392919081815260200183836020028082843760009201829052509390945250506001600160e01b031988168152602084815260409091208351815463ffffffff191660e09190911c1781558382015180519193506107c7926001850192910190612730565b509050507f3665bf9cd0ba4ddceeec259e21dcf8a4510f3b1130bd42e950828e69d85408ba858585856040516108009493929190612b5a565b60405180910390a15050505050565b600c546001600160a01b03163314610839576040516282b42960e81b815260040160405180910390fd5b600c805460ff60a01b1916600160a01b1790556040517f9f7c6e71cec61c4bd3b4af384f8b8729af23a80826f33e1431d07a09a4904b1690600090a1565b61087f611a54565b6108896000611b11565b565b610893611a54565b600061089d611aaf565b6001600160e01b031983166000908152602082905260408120805463ffffffff191681559192506108d1600183018261277b565b50506040516001600160e01b0319831681527fed27cb02231782dadf13473a7828cb980c4d685791b7a3136dde00f8c3594cb6906020015b60405180910390a15050565b61091d611a54565b806109346000356001600160e01b03191682610cb0565b610959576040516373330d9b60e01b8152600481018290526024015b60405180910390fd5b600a8290556040518281527f0bae48e5d1dc3568f32952ed3a75d66d27094f2e08f508808d86627eeef2290390602001610909565b600080600860009054906101000a90046001600160a01b03166001600160a01b0316638e68dce46040518163ffffffff1660e01b8152600401602060405180830381865afa1580156109e4573d6000803e3d6000fd5b505050506040513d601f19601f82011682018060405250810190610a089190612b3d565b90506000816001600160a01b0316639b03d7446040518163ffffffff1660e01b8152600401602060405180830381865afa158015610a4a573d6000803e3d6000fd5b505050506040513d601f19601f82011682018060405250810190610a6e9190612bc7565b826001600160a01b03166322e3d9866040518163ffffffff1660e01b8152600401602060405180830381865afa158015610aac573d6000803e3d6000fd5b505050506040513d601f19601f82011682018060405250810190610ad09190612bc7565b610ada9190612be0565b9050816001600160a01b03166322e3d9866040518163ffffffff1660e01b8152600401602060405180830381865afa158015610b1a573d6000803e3d6000fd5b505050506040513d601f19601f82011682018060405250810190610b3e9190612bc7565b4211610bcb5780826001600160a01b0316639b03d7446040518163ffffffff1660e01b8152600401602060405180830381865afa158015610b83573d6000803e3d6000fd5b505050506040513d601f19601f82011682018060405250810190610ba79190612bc7565b610bb19042612be0565b610bbc906064612bf3565b610bc69190612c0a565b610bce565b60645b9250505090565b3460066000828254610be791906127c0565b9091555050565b3460046000828254610be791906127c0565b604080518082019091526000815260606020820152610c1d611aaf565b82516020808501919091206001600160e01b0319908116600090815292825260409283902083518085018552815460e01b9092168252600181018054855181860281018601909652808652929491938581019390830182828015610ca057602002820191906000526020600020905b815481526020019060010190808311610c8c575b5050505050815250509050919050565b600080610cbb611aaf565b6001600160e01b031980861660009081526020838152604080832081518083018352815460e01b90951685526001810180548351818602810186019094528084529697509395909385840193909190830182828015610d3957602002820191906000526020600020905b815481526020019060010190808311610d25575b5050505050815250509050806020015151600003610d5c57600092505050610e87565b60208101518151600090610d6f90611b8f565b905060005b8251811015610e7d5781838281518110610d9057610d90612c2c565b602002602001015103610e75576000808211610dc65783600081518110610db957610db9612c2c565b6020026020010151610deb565b83610dd2600184612be0565b81518110610de257610de2612c2c565b60200260200101515b9050600060018551610dfd9190612be0565b8310610e2f578460018651610e129190612be0565b81518110610e2257610e22612c2c565b6020026020010151610e54565b84610e3b8460016127c0565b81518110610e4b57610e4b612c2c565b60200260200101515b9050818914158015610e665750808914155b15975050505050505050610e87565b600101610d74565b5060009450505050505b92915050565b604080518082019091526000815260606020820152610eaa611aaf565b6001600160e01b03198084166000908152602092835260409081902081518083018352815460e01b9093168352600181018054835181870281018701909452808452939491938583019392830182828015610ca05760200282019190600052602060002090815481526020019060010190808311610c8c575050505050815250509050919050565b7ff0c57e16840df040f15088dc2f81fe391c3923bec73e23a9662efc9c229c6a00805468010000000000000000810460ff16159067ffffffffffffffff16600081158015610f7d5750825b905060008267ffffffffffffffff166001148015610f9a5750303b155b905081158015610fa8575080155b15610fc65760405163f92ee8a960e01b815260040160405180910390fd5b845467ffffffffffffffff191660011785558315610ffa57845468ff00000000000000001916680100000000000000001785555b6001600160a01b038816158061101757506001600160a01b038716155b8061102957506001600160a01b038616155b156110475760405163d92e233d60e01b815260040160405180910390fd5b61105088611c66565b611058611c77565b600880546001600160a01b0389811673ffffffffffffffffffffffffffffffffffffffff1992831617909255600c80549289169282169290921790915560008080526003602090815260147f3617319a054d772f909f7c479a2cebe5066e836a939412e32403c99029b92eff5561177060058190556007556009805490931673da0da0da0da0da0da0da00da0da0da0da0da0da017909255600a80556064600b908155604080518281526101808101909152919282016101608036833701905050905060005b81518110156111575761113281600a6127c0565b82828151811061114457611144612c2c565b602090810291909101015260010161111e565b50611171639740f48d60e01b6348dabcc360e11b83611c87565b5083156111bd57845468ff000000000000000019168555604051600181527fc7f505b2f371ae2175ee4913f4499e1f2633a7b5936321eed1cdaeb6115181d29060200160405180910390a15b5050505050505050565b6001600160a01b0381166000908152602081815260409182902080548351818402810184019094528084526060939283018282801561122557602002820191906000526020600020905b815481526020019060010190808311611211575b50505050509050919050565b611239611a54565b6001600160a01b03811661126357604051631e4fbdf760e01b815260006004820152602401610950565b61126c81611b11565b50565b7f9b779b17422d0df92223018b32b4d1fa46e071723d6817e2486d003becc55f008054600119016112b357604051633ee5aeb560e01b815260040160405180910390fd5b60029055565b600080826001600160a01b031663794c0c686040518163ffffffff1660e01b8152600401602060405180830381865afa1580156112fa573d6000803e3d6000fd5b505050506040513d601f19601f8201168201806040525081019061131e9190612bc7565b600c5460405163245f8d5360e11b8152600481018390529192506001600160a01b0316906348bf1aa690602401600060405180830381600087803b15801561136557600080fd5b505af1158015611379573d6000803e3d6000fd5b50505050600081600014611394576113918285611d3c565b90505b60006113a18360016127c0565b90506060600860009054906101000a90046001600160a01b03166001600160a01b031663eebc7a396040518163ffffffff1660e01b8152600401600060405180830381865afa1580156113f8573d6000803e3d6000fd5b505050506040513d6000823e601f3d908101601f191682016040526114209190810190612c42565b905061142d86838361207d565b600860009054906101000a90046001600160a01b03166001600160a01b031663b7ab4db56040518163ffffffff1660e01b8152600401600060405180830381865afa158015611480573d6000803e3d6000fd5b505050506040513d6000823e601f3d908101601f191682016040526114a89190810190612c42565b90506114b586838361207d565b600082815260036020526040808220601490556008548151637528621160e01b815291516001600160a01b03909116926375286211926004808201939182900301818387803b15801561150757600080fd5b505af115801561151b573d6000803e3d6000fd5b5050600c805460ff60a01b1916905550929695505050505050565b6000816001600160a01b031663c6912cc06040518163ffffffff1660e01b8152600401602060405180830381865afa158015611576573d6000803e3d6000fd5b505050506040513d601f19601f8201168201806040525081019061159a9190612bc7565b90506000600860009054906101000a90046001600160a01b03166001600160a01b031663b7ab4db56040518163ffffffff1660e01b8152600401600060405180830381865afa1580156115f1573d6000803e3d6000fd5b505050506040513d6000823e601f3d908101601f191682016040526116199190810190612c42565b60085460408051630456292b60e11b8152905192935042851115926000926001600160a01b0316916308ac52569160048083019260209291908290030181865afa15801561166b573d6000803e3d6000fd5b505050506040513d601f19601f8201168201806040525081019061168f9190612bc7565b61169a906002612bf3565b83516116a7906003612bf3565b1161179f576000856001600160a01b031663a5d54f656040518163ffffffff1660e01b8152600401600060405180830381865afa1580156116ec573d6000803e3d6000fd5b505050506040513d6000823e601f3d908101601f191682016040526117149190810190612c42565b5190506000811180156117935750835160085460405163efd0494760e01b8152600481018490526001600160a01b039091169063efd0494790602401602060405180830381865afa15801561176d573d6000803e3d6000fd5b505050506040513d601f19601f820116820180604052508101906117919190612bc7565b115b1561179d57600191505b505b600082806117aa5750815b806117be5750600c54600160a01b900460ff165b90506000600860009054906101000a90046001600160a01b03166001600160a01b031663eebc7a396040518163ffffffff1660e01b8152600401600060405180830381865afa158015611815573d6000803e3d6000fd5b505050506040513d6000823e601f3d908101601f1916820160405261183d9190810190612c42565b51905081801561184b575080155b156118cb57600860009054906101000a90046001600160a01b03166001600160a01b0316635ccee1de6040518163ffffffff1660e01b8152600401600060405180830381600087803b1580156118a057600080fd5b505af11580156118b4573d6000803e3d6000fd5b5050600c805460ff60a01b191690555061199c9050565b866001600160a01b03166322e3d9866040518163ffffffff1660e01b8152600401602060405180830381865afa158015611909573d6000803e3d6000fd5b505050506040513d601f19601f8201168201806040525081019061192d9190612bc7565b421061199c57600860009054906101000a90046001600160a01b03166001600160a01b031663ade1900a6040518163ffffffff1660e01b8152600401600060405180830381600087803b15801561198357600080fd5b505af1158015611997573d6000803e3d6000fd5b505050505b600c54600160a01b900460ff1680156119b457508015155b156119c757600c805460ff60a01b191690555b6009546040805163ab0eb62d60e01b815290516001600160a01b0390921691829163ab0eb62d91600480830192600092919082900301818387803b158015611a0e57600080fd5b505af1925050508015611a1f575060015b156111bd575050505050505050565b60017f9b779b17422d0df92223018b32b4d1fa46e071723d6817e2486d003becc55f0055565b33611a867f9016d09d72d40fdae2fd8ceac6b6234c7706214fd39c1cd1e609a0528c199300546001600160a01b031690565b6001600160a01b0316146108895760405163118cdaa760e01b8152336004820152602401610950565b60008060ff19611ae060017fdace3fd3d1fbdfd33853f19ba191d28c617e373ec58fc73cf7b58db5aff2c2ab612be0565b604051602001611af291815260200190565b60408051601f1981840301815291905280516020909101201692915050565b7f9016d09d72d40fdae2fd8ceac6b6234c7706214fd39c1cd1e609a0528c199300805473ffffffffffffffffffffffffffffffffffffffff1981166001600160a01b03848116918217845560405192169182907f8be0079c531659141344cd1fd0a4f28419497f9722a3daafe3b4186f6b6457e090600090a3505050565b60408051600481526024810182526020810180517bffffffffffffffffffffffffffffffffffffffffffffffffffffffff166001600160e01b03198516179052905160009190829081903090611be6908590612cf4565b600060405180830381855afa9150503d8060008114611c21576040519150601f19603f3d011682016040523d82523d6000602084013e611c26565b606091505b509150915081611c4957604051635fbab09b60e11b815260040160405180910390fd5b80806020019051810190611c5d9190612bc7565b95945050505050565b611c6e61219f565b61126c816121ed565b611c7f61219f565b6108896121f5565b611c8f61219f565b6000611c99611aaf565b6040805180820182526001600160e01b0319868116825260208083018781529189166000908152858252939093208251815463ffffffff191660e09190911c1781559051805194955091939092611cf7926001850192910190612730565b509050507f3665bf9cd0ba4ddceeec259e21dcf8a4510f3b1130bd42e950828e69d85408ba848484604051611d2e93929190612d23565b60405180910390a150505050565b600080600860009054906101000a90046001600160a01b03166001600160a01b031663b7ab4db56040518163ffffffff1660e01b8152600401600060405180830381865afa158015611d92573d6000803e3d6000fd5b505050506040513d6000823e601f3d908101601f19168201604052611dba9190810190612c42565b80519091506000819003611de1576040516322b8b72360e21b815260040160405180910390fd5b6000611dec826121fd565b90508060600151600003611e065760009350505050610e87565b805160048054600090611e1a908490612be0565b9091555050602081015160068054600090611e36908490612be0565b90915550506009546040820151611e56916001600160a01b03169061239c565b60408101516060820151600090611e6e908390612be0565b9050600080611e7e898b89612448565b9150915081600003611eae57838560600151611e9a9190612be0565b6002555060009650610e8795505050505050565b6000611eba8385612c0a565b60008c815260036020526040902054909150811561205a5760005b8881101561205857838181518110611eef57611eef612c2c565b6020026020010151156120505760008a8281518110611f1057611f10612c2c565b60209081029190910101516008546040516307b9342f60e21b81526001600160a01b03808416600483015292935060009290911690631ee4d0bc90602401602060405180830381865afa158015611f6b573d6000803e3d6000fd5b505050506040513d601f19601f82011682018060405250810190611f8f9190612b3d565b9050611fdb8f83876001600160a01b0390911660008181526020818152604080832080546001818101835591855283852001879055958352948152848220928252919091529190912055565b604051633f3afe0160e01b81526001600160a01b038281166004830152602482018690528f1690633f3afe019087906044016000604051808303818588803b15801561202657600080fd5b505af115801561203a573d6000803e3d6000fd5b5050505050848961204b91906127c0565b985050505b600101611ed5565b505b85876060015161206a9190612be0565b60025550939a9950505050505050505050565b60005b81518110156121995760085482516000916001600160a01b031690631ee4d0bc908590859081106120b3576120b3612c2c565b60200260200101516040518263ffffffff1660e01b81526004016120e691906001600160a01b0391909116815260200190565b602060405180830381865afa158015612103573d6000803e3d6000fd5b505050506040513d601f19601f820116820180604052508101906121279190612b3d565b6040516368563b7b60e11b8152600481018690526001600160a01b0380831660248301529192509086169063d0ac76f690604401600060405180830381600087803b15801561217557600080fd5b505af1158015612189573d6000803e3d6000fd5b5050505050806001019050612080565b50505050565b7ff0c57e16840df040f15088dc2f81fe391c3923bec73e23a9662efc9c229c6a005468010000000000000000900460ff1661088957604051631afcd79f60e31b815260040160405180910390fd5b61123961219f565b611a2e61219f565b6122286040518060800160405280600081526020016000815260200160008152602001600081525090565b60085460408051630456292b60e11b815290516000926001600160a01b0316916308ac52569160048083019260209291908290030181865afa158015612272573d6000803e3d6000fd5b505050506040513d601f19601f820116820180604052508101906122969190612bc7565b905060006122a261098e565b9050600060405180608001604052806000815260200160008152602001600081526020016000815250905060648360055484886004546122e29190612bf3565b6122ec9190612bf3565b6122f69190612c0a565b6123009190612c0a565b61230a9190612c0a565b815260075460065460649185918590612324908a90612bf3565b61232e9190612bf3565b6123389190612c0a565b6123429190612c0a565b61234c9190612c0a565b60208201819052815160025461236291906127c0565b61236c91906127c0565b60608201819052600b54600a5490916123859190612bf3565b61238f9190612c0a565b6040820152949350505050565b804710156123bd57604051631e9acf1760e31b815260040160405180910390fd5b6000826001600160a01b03168260405160006040518083038185875af1925050503d806000811461240a576040519150601f19603f3d011682016040523d82523d6000602084013e61240f565b606091505b505090508061244357604051630e21dcbb60e11b81526001600160a01b038416600482015260248101839052604401610950565b505050565b600060606000835167ffffffffffffffff8111156124685761246861291e565b604051908082528060200260200182016040528015612491578160200160208202803683370190505b5090506000866001600160a01b0316639b03d7446040518163ffffffff1660e01b8152600401602060405180830381865afa1580156124d4573d6000803e3d6000fd5b505050506040513d601f19601f820116820180604052508101906124f89190612bc7565b90506000805b86518110156127225760085487516000916001600160a01b03808d1692635b4eafe0928d921690631ee4d0bc908d908890811061253d5761253d612c2c565b60200260200101516040518263ffffffff1660e01b815260040161257091906001600160a01b0391909116815260200190565b602060405180830381865afa15801561258d573d6000803e3d6000fd5b505050506040513d601f19601f820116820180604052508101906125b19190612b3d565b6040516001600160e01b031960e085901b16815260048101929092526001600160a01b03166024820152604401602060405180830381865afa1580156125fb573d6000803e3d6000fd5b505050506040513d601f19601f8201168201806040525081019061261f9190612bc7565b90508060000361262f575061271a565b60085488516000916001600160a01b0316906360e5c520908b908690811061265957612659612c2c565b60200260200101516040518263ffffffff1660e01b815260040161268c91906001600160a01b0391909116815260200190565b602060405180830381865afa1580156126a9573d6000803e3d6000fd5b505050506040513d601f19601f820116820180604052508101906126cd9190612bc7565b90508015806126dc5750848110155b156126e857505061271a565b60018684815181106126fc576126fc612c2c565b9115156020928302919091019091015261271584612d50565b935050505b6001016124fe565b509791965090945050505050565b82805482825590600052602060002090810192821561276b579160200282015b8281111561276b578251825591602001919060010190612750565b50612777929150612795565b5090565b508054600082559060005260206000209081019061126c91905b5b808211156127775760008155600101612796565b634e487b7160e01b600052601160045260246000fd5b80820180821115610e8757610e876127aa565b6000602082840312156127e557600080fd5b813580151581146127f557600080fd5b9392505050565b6001600160a01b038116811461126c57600080fd5b6000806040838503121561282457600080fd5b823591506020830135612836816127fc565b809150509250929050565b80356001600160e01b03198116811461070457600080fd5b6000806000806060858703121561286f57600080fd5b61287885612841565b935061288660208601612841565b9250604085013567ffffffffffffffff808211156128a357600080fd5b818701915087601f8301126128b757600080fd5b8135818111156128c657600080fd5b8860208260051b85010111156128db57600080fd5b95989497505060200194505050565b6000602082840312156128fc57600080fd5b6127f582612841565b60006020828403121561291757600080fd5b5035919050565b634e487b7160e01b600052604160045260246000fd5b604051601f8201601f1916810167ffffffffffffffff8111828210171561295d5761295d61291e565b604052919050565b6000602080838503121561297857600080fd5b823567ffffffffffffffff8082111561299057600080fd5b818501915085601f8301126129a457600080fd5b8135818111156129b6576129b661291e565b6129c8601f8201601f19168501612934565b915080825286848285010111156129de57600080fd5b8084840185840137600090820190930192909252509392505050565b602080825282516001600160e01b031916828201528281015160408084015280516060840181905260009291820190839060808601905b80831015612a515783518252928401926001929092019190840190612a31565b509695505050505050565b60008060408385031215612a6f57600080fd5b612a7883612841565b946020939093013593505050565b600080600060608486031215612a9b57600080fd5b8335612aa6816127fc565b92506020840135612ab6816127fc565b91506040840135612ac6816127fc565b809150509250925092565b600060208284031215612ae357600080fd5b81356127f5816127fc565b60008151808452602080850194506020840160005b83811015612b1f57815187529582019590820190600101612b03565b509495945050505050565b6020815260006127f56020830184612aee565b600060208284031215612b4f57600080fd5b81516127f5816127fc565b6001600160e01b0319858116825284166020820152606060408201819052810182905260007f07ffffffffffffffffffffffffffffffffffffffffffffffffffffffffffffff831115612bac57600080fd5b8260051b808560808501379190910160800195945050505050565b600060208284031215612bd957600080fd5b5051919050565b81810381811115610e8757610e876127aa565b8082028115828204841417610e8757610e876127aa565b600082612c2757634e487b7160e01b600052601260045260246000fd5b500490565b634e487b7160e01b600052603260045260246000fd5b60006020808385031215612c5557600080fd5b825167ffffffffffffffff80821115612c6d57600080fd5b818501915085601f830112612c8157600080fd5b815181811115612c9357612c9361291e565b8060051b9150612ca4848301612934565b8181529183018401918481019088841115612cbe57600080fd5b938501935b83851015612ce85784519250612cd8836127fc565b8282529385019390850190612cc3565b98975050505050505050565b6000825160005b81811015612d155760208186018101518583015201612cfb565b506000920191825250919050565b6001600160e01b0319848116825283166020820152606060408201819052600090611c5d90830184612aee565b600060018201612d6257612d626127aa565b506001019056fea264697066735822122032377fcf9a44e3cb2d92f4605d9994840c30419aab3b004476e3f07347188e2464736f6c63430008190033",
  "linkReferences": {},
  "deployedLinkReferences": {}
}