{
  "_format": "hh-sol-artifact-1",
  "contractName": "BlockRewardHbbftBase",
  "sourceName": "contracts/base/BlockRewardHbbftBase.sol",
  "abi": [
    {
      "inputs": [],
      "stateMutability": "nonpayable",
      "type": "constructor"
    },
    {
      "anonymous": false,
      "inputs": [
        {
          "indexed": false,
          "internalType": "uint256",
          "name": "rewards",
          "type": "uint256"
        }
      ],
      "name": "CoinsRewarded",
      "type": "event"
    },
    {
      "anonymous": false,
      "inputs": [
        {
          "indexed": false,
          "internalType": "uint8",
          "name": "version",
          "type": "uint8"
        }
      ],
      "name": "Initialized",
      "type": "event"
    },
    {
      "anonymous": false,
      "inputs": [
        {
          "indexed": true,
          "internalType": "address",
          "name": "previousOwner",
          "type": "address"
        },
        {
          "indexed": true,
          "internalType": "address",
          "name": "newOwner",
          "type": "address"
        }
      ],
      "name": "OwnershipTransferred",
      "type": "event"
    },
    {
      "inputs": [],
      "name": "REWARD_PERCENT_MULTIPLIER",
      "outputs": [
        {
          "internalType": "uint256",
          "name": "",
          "type": "uint256"
        }
      ],
      "stateMutability": "view",
      "type": "function"
    },
    {
      "inputs": [],
      "name": "VALIDATOR_MIN_REWARD_PERCENT",
      "outputs": [
        {
          "internalType": "uint256",
          "name": "",
          "type": "uint256"
        }
      ],
      "stateMutability": "view",
      "type": "function"
    },
    {
      "inputs": [],
      "name": "addToDeltaPot",
      "outputs": [],
      "stateMutability": "payable",
      "type": "function"
    },
    {
      "inputs": [],
      "name": "addToReinsertPot",
      "outputs": [],
      "stateMutability": "payable",
      "type": "function"
    },
    {
      "inputs": [],
      "name": "connectivityTracker",
      "outputs": [
        {
          "internalType": "address",
          "name": "",
          "type": "address"
        }
      ],
      "stateMutability": "view",
      "type": "function"
    },
    {
      "inputs": [
        {
          "internalType": "uint256",
          "name": "_stakingEpoch",
          "type": "uint256"
        },
        {
          "internalType": "uint256",
          "name": "_delegatorStaked",
          "type": "uint256"
        },
        {
          "internalType": "uint256",
          "name": "_validatorStaked",
          "type": "uint256"
        },
        {
          "internalType": "uint256",
          "name": "_totalStaked",
          "type": "uint256"
        },
        {
          "internalType": "uint256",
          "name": "_poolReward",
          "type": "uint256"
        }
      ],
      "name": "delegatorShare",
      "outputs": [
        {
          "internalType": "uint256",
          "name": "",
          "type": "uint256"
        }
      ],
      "stateMutability": "view",
      "type": "function"
    },
    {
      "inputs": [],
      "name": "deltaPot",
      "outputs": [
        {
          "internalType": "uint256",
          "name": "",
          "type": "uint256"
        }
      ],
      "stateMutability": "view",
      "type": "function"
    },
    {
      "inputs": [],
      "name": "deltaPotPayoutFraction",
      "outputs": [
        {
          "internalType": "uint256",
          "name": "",
          "type": "uint256"
        }
      ],
      "stateMutability": "view",
      "type": "function"
    },
    {
      "inputs": [],
      "name": "earlyEpochEnd",
      "outputs": [
        {
          "internalType": "bool",
          "name": "",
          "type": "bool"
        }
      ],
      "stateMutability": "view",
      "type": "function"
    },
    {
      "inputs": [],
      "name": "epochPercentage",
      "outputs": [
        {
          "internalType": "uint256",
          "name": "",
          "type": "uint256"
        }
      ],
      "stateMutability": "view",
      "type": "function"
    },
    {
      "inputs": [
        {
          "internalType": "uint256",
          "name": "",
          "type": "uint256"
        },
        {
          "internalType": "address",
          "name": "",
          "type": "address"
        }
      ],
      "name": "epochPoolNativeReward",
      "outputs": [
        {
          "internalType": "uint256",
          "name": "",
          "type": "uint256"
        }
      ],
      "stateMutability": "view",
      "type": "function"
    },
    {
      "inputs": [
        {
          "internalType": "address",
          "name": "_miningAddress",
          "type": "address"
        }
      ],
      "name": "epochsPoolGotRewardFor",
      "outputs": [
        {
          "internalType": "uint256[]",
          "name": "",
          "type": "uint256[]"
        }
      ],
      "stateMutability": "view",
      "type": "function"
    },
    {
      "inputs": [
        {
          "internalType": "address",
          "name": "_poolStakingAddress",
          "type": "address"
        },
        {
          "internalType": "address",
          "name": "_staker",
          "type": "address"
        }
      ],
      "name": "epochsToClaimRewardFrom",
      "outputs": [
        {
          "internalType": "uint256[]",
          "name": "epochsToClaimFrom",
          "type": "uint256[]"
        }
      ],
      "stateMutability": "view",
      "type": "function"
    },
    {
      "inputs": [],
      "name": "getGovernanceAddress",
      "outputs": [
        {
          "internalType": "address",
          "name": "",
          "type": "address"
        }
      ],
      "stateMutability": "view",
      "type": "function"
    },
    {
      "inputs": [],
      "name": "governancePotAddress",
      "outputs": [
        {
          "internalType": "address payable",
          "name": "",
          "type": "address"
        }
      ],
      "stateMutability": "view",
      "type": "function"
    },
    {
      "inputs": [],
      "name": "governancePotShareDenominator",
      "outputs": [
        {
          "internalType": "uint256",
          "name": "",
          "type": "uint256"
        }
      ],
      "stateMutability": "view",
      "type": "function"
    },
    {
      "inputs": [],
      "name": "governancePotShareNominator",
      "outputs": [
        {
          "internalType": "uint256",
          "name": "",
          "type": "uint256"
        }
      ],
      "stateMutability": "view",
      "type": "function"
    },
    {
      "inputs": [
        {
          "internalType": "address",
          "name": "_contractOwner",
          "type": "address"
        },
        {
          "internalType": "address",
          "name": "_validatorSet",
          "type": "address"
        },
        {
          "internalType": "address",
          "name": "_connectivityTracker",
          "type": "address"
        }
      ],
      "name": "initialize",
      "outputs": [],
      "stateMutability": "nonpayable",
      "type": "function"
    },
    {
      "inputs": [],
      "name": "nativeRewardUndistributed",
      "outputs": [
        {
          "internalType": "uint256",
          "name": "",
          "type": "uint256"
        }
      ],
      "stateMutability": "view",
      "type": "function"
    },
    {
      "inputs": [],
      "name": "notifyEarlyEpochEnd",
      "outputs": [],
      "stateMutability": "nonpayable",
      "type": "function"
    },
    {
      "inputs": [],
      "name": "owner",
      "outputs": [
        {
          "internalType": "address",
          "name": "",
          "type": "address"
        }
      ],
      "stateMutability": "view",
      "type": "function"
    },
    {
      "inputs": [],
      "name": "reinsertPot",
      "outputs": [
        {
          "internalType": "uint256",
          "name": "",
          "type": "uint256"
        }
      ],
      "stateMutability": "view",
      "type": "function"
    },
    {
      "inputs": [],
      "name": "reinsertPotPayoutFraction",
      "outputs": [
        {
          "internalType": "uint256",
          "name": "",
          "type": "uint256"
        }
      ],
      "stateMutability": "view",
      "type": "function"
    },
    {
      "inputs": [],
      "name": "renounceOwnership",
      "outputs": [],
      "stateMutability": "nonpayable",
      "type": "function"
    },
    {
      "inputs": [
        {
          "internalType": "bool",
          "name": "_isEpochEndBlock",
          "type": "bool"
        }
      ],
      "name": "reward",
      "outputs": [
        {
          "internalType": "uint256",
          "name": "rewardsNative",
          "type": "uint256"
        }
      ],
      "stateMutability": "nonpayable",
      "type": "function"
    },
    {
      "inputs": [
        {
          "internalType": "address",
          "name": "_connectivityTracker",
          "type": "address"
        }
      ],
      "name": "setConnectivityTracker",
      "outputs": [],
      "stateMutability": "nonpayable",
      "type": "function"
    },
    {
      "inputs": [
        {
          "internalType": "uint256",
          "name": "_value",
          "type": "uint256"
        }
      ],
      "name": "setReinsertPotPayoutFraction",
      "outputs": [],
      "stateMutability": "nonpayable",
      "type": "function"
    },
    {
      "inputs": [
        {
          "internalType": "uint256",
          "name": "_value",
          "type": "uint256"
        }
      ],
      "name": "setdeltaPotPayoutFraction",
      "outputs": [],
      "stateMutability": "nonpayable",
      "type": "function"
    },
    {
      "inputs": [
        {
          "internalType": "uint256",
          "name": "",
          "type": "uint256"
        },
        {
          "internalType": "address",
          "name": "",
          "type": "address"
        }
      ],
      "name": "snapshotPoolTotalStakeAmount",
      "outputs": [
        {
          "internalType": "uint256",
          "name": "",
          "type": "uint256"
        }
      ],
      "stateMutability": "view",
      "type": "function"
    },
    {
      "inputs": [
        {
          "internalType": "uint256",
          "name": "",
          "type": "uint256"
        },
        {
          "internalType": "address",
          "name": "",
          "type": "address"
        }
      ],
      "name": "snapshotPoolValidatorStakeAmount",
      "outputs": [
        {
          "internalType": "uint256",
          "name": "",
          "type": "uint256"
        }
      ],
      "stateMutability": "view",
      "type": "function"
    },
    {
      "inputs": [
        {
          "internalType": "address",
          "name": "newOwner",
          "type": "address"
        }
      ],
      "name": "transferOwnership",
      "outputs": [],
      "stateMutability": "nonpayable",
      "type": "function"
    },
    {
      "inputs": [
        {
          "internalType": "uint256",
          "name": "",
          "type": "uint256"
        }
      ],
      "name": "validatorMinRewardPercent",
      "outputs": [
        {
          "internalType": "uint256",
          "name": "",
          "type": "uint256"
        }
      ],
      "stateMutability": "view",
      "type": "function"
    },
    {
      "inputs": [
        {
          "internalType": "address",
          "name": "_stakingAddress",
          "type": "address"
        }
      ],
      "name": "validatorRewardPercent",
      "outputs": [
        {
          "internalType": "uint256",
          "name": "",
          "type": "uint256"
        }
      ],
      "stateMutability": "view",
      "type": "function"
    },
    {
      "inputs": [],
      "name": "validatorSetContract",
      "outputs": [
        {
          "internalType": "contract IValidatorSetHbbft",
          "name": "",
          "type": "address"
        }
      ],
      "stateMutability": "view",
      "type": "function"
    },
    {
      "inputs": [
        {
          "internalType": "uint256",
          "name": "_stakingEpoch",
          "type": "uint256"
        },
        {
          "internalType": "uint256",
          "name": "_validatorStaked",
          "type": "uint256"
        },
        {
          "internalType": "uint256",
          "name": "_totalStaked",
          "type": "uint256"
        },
        {
          "internalType": "uint256",
          "name": "_poolReward",
          "type": "uint256"
        }
      ],
      "name": "validatorShare",
      "outputs": [
        {
          "internalType": "uint256",
          "name": "",
          "type": "uint256"
        }
      ],
      "stateMutability": "view",
      "type": "function"
    },
    {
      "stateMutability": "payable",
      "type": "receive"
    }
  ],
  "bytecode": "0x60806040523480156200001157600080fd5b506200001c62000022565b620000e3565b600054610100900460ff16156200008f5760405162461bcd60e51b815260206004820152602760248201527f496e697469616c697a61626c653a20636f6e747261637420697320696e697469604482015266616c697a696e6760c81b606482015260840160405180910390fd5b60005460ff90811614620000e1576000805460ff191660ff9081179091556040519081527f7f26b83ff96e1f2b6a682f133852f6798a09c465da95921460cefb38474024989060200160405180910390a15b565b612c5980620000f36000396000f3fe6080604052600436106102375760003560e01c806373f1295811610138578063b10c7548116100b0578063cdf7a0901161007f578063dfc8bf4e11610064578063dfc8bf4e14610655578063e58edc3814610675578063f2fde38b1461068c57600080fd5b8063cdf7a09014610608578063dd03f5b91461063557600080fd5b8063b10c7548146105a0578063c0c53b8b146105a8578063c6cc9333146105c8578063cb68d127146105e857600080fd5b806391b5798611610107578063a59546e2116100ec578063a59546e21461056d578063adc481a714610582578063af1825351461059857600080fd5b806391b57986146105415780639a64ca2c1461055757600080fd5b806373f12958146104cd57806378ff69d5146104e35780638737929a146105035780638da5cb5b1461052357600080fd5b8063527d8bc4116101cb578063669554691161019a578063715018a61161017f578063715018a614610462578063728345db1461047757806373252494146104af57600080fd5b80636695546914610411578063674a72141461043157600080fd5b8063527d8bc4146103a457806359620872146103c45780635c57a801146103db5780635fba554e146103f157600080fd5b806319cee8971161020757806319cee897146102f157806333d69921146103295780633c2c943c146103615780634de6c0361461037757600080fd5b8062067a841461025b5780630c0d41731461028e5780631274fa09146102a35780631345b8a5146102b957600080fd5b366102565734606d600082825461024e9190612885565b925050819055005b600080fd5b34801561026757600080fd5b5061027b6102763660046128a6565b6106ac565b6040519081526020015b60405180910390f35b34801561029a57600080fd5b5061027b601e81565b3480156102af57600080fd5b5061027b606e5481565b3480156102c557600080fd5b5061027b6102d43660046128df565b606960209081526000928352604080842090915290825290205481565b3480156102fd57600080fd5b50607054610311906001600160a01b031681565b6040516001600160a01b039091168152602001610285565b34801561033557600080fd5b5061027b6103443660046128df565b606660209081526000928352604080842090915290825290205481565b34801561036d57600080fd5b5061027b60725481565b34801561038357600080fd5b5061039761039236600461290f565b610e56565b604051610285919061293d565b3480156103b057600080fd5b5061027b6103bf366004612981565b611298565b3480156103d057600080fd5b506103d96115a8565b005b3480156103e757600080fd5b5061027b606b5481565b3480156103fd57600080fd5b5061027b61040c36600461299e565b6115d4565b34801561041d57600080fd5b50607354610311906001600160a01b031681565b34801561043d57600080fd5b5060735461045290600160a01b900460ff1681565b6040519015158152602001610285565b34801561046e57600080fd5b506103d96116aa565b34801561048357600080fd5b5061027b6104923660046128df565b606860209081526000928352604080842090915290825290205481565b3480156104bb57600080fd5b506070546001600160a01b0316610311565b3480156104d957600080fd5b5061027b606d5481565b3480156104ef57600080fd5b506103d96104fe366004612981565b6116be565b34801561050f57600080fd5b5061027b61051e3660046129d9565b6116f5565b34801561052f57600080fd5b506033546001600160a01b0316610311565b34801561054d57600080fd5b5061027b60715481565b34801561056357600080fd5b5061027b606c5481565b34801561057957600080fd5b5061027b6117a5565b34801561058e57600080fd5b5061027b60675481565b6103d96119ec565b6103d9611a05565b3480156105b457600080fd5b506103d96105c3366004612a0b565b611a17565b3480156105d457600080fd5b506103d96105e3366004612a56565b611cf2565b3480156105f457600080fd5b506103d9610603366004612a56565b611d4f565b34801561061457600080fd5b5061027b610623366004612a56565b606a6020526000908152604090205481565b34801561064157600080fd5b50610397610650366004612981565b611dac565b34801561066157600080fd5b50606f54610311906001600160a01b031681565b34801561068157600080fd5b5061027b620f424081565b34801561069857600080fd5b506103d96106a7366004612981565b611e18565b600073fffffffffffffffffffffffffffffffffffffffe33146106ce57600080fd5b606f546040805163239a373960e21b815290516000926001600160a01b031691638e68dce49160048083019260209291908290030181865afa158015610718573d6000803e3d6000fd5b505050506040513d601f19601f8201168201806040525081019061073c9190612a7a565b905082806107535750607354600160a01b900460ff165b15610a11576000816001600160a01b031663794c0c686040518163ffffffff1660e01b8152600401602060405180830381865afa158015610798573d6000803e3d6000fd5b505050506040513d601f19601f820116820180604052508101906107bc9190612a97565b9050600081156107d2576107cf82611ea8565b90505b6000806107e0846001612885565b90506060606f60009054906101000a90046001600160a01b03166001600160a01b031663eebc7a396040518163ffffffff1660e01b8152600401600060405180830381865afa158015610837573d6000803e3d6000fd5b505050506040513d6000823e601f3d908101601f1916820160405261085f9190810190612ac6565b9050600092505b80518310156108a557610893868383868151811061088657610886612b8b565b60200260200101516124f9565b8261089d81612ba1565b935050610866565b606f60009054906101000a90046001600160a01b03166001600160a01b031663b7ab4db56040518163ffffffff1660e01b8152600401600060405180830381865afa1580156108f8573d6000803e3d6000fd5b505050506040513d6000823e601f3d908101601f191682016040526109209190810190612ac6565b9050600092505b805183101561095957610947868383868151811061088657610886612b8b565b8261095181612ba1565b935050610927565b6000828152606a6020526040808220601e9055606f548151637528621160e01b815291516001600160a01b03909116926375286211926004808201939182900301818387803b1580156109ab57600080fd5b505af11580156109bf573d6000803e3d6000fd5b50506073805460ff60a01b1916905550506040518481527ff32b9551d3414b67f8e66e20ac15e62694b9d1230abb2e2e48f9dc2e1964c4299060200160405180910390a1506000979650505050505050565b6000816001600160a01b031663c6912cc06040518163ffffffff1660e01b8152600401602060405180830381865afa158015610a51573d6000803e3d6000fd5b505050506040513d601f19601f82011682018060405250810190610a759190612a97565b90506000606f60009054906101000a90046001600160a01b03166001600160a01b031663b7ab4db56040518163ffffffff1660e01b8152600401600060405180830381865afa158015610acc573d6000803e3d6000fd5b505050506040513d6000823e601f3d908101601f19168201604052610af49190810190612ac6565b606f5460408051630456292b60e11b8152905192935042851115926000926001600160a01b0316916308ac52569160048083019260209291908290030181865afa158015610b46573d6000803e3d6000fd5b505050506040513d601f19601f82011682018060405250810190610b6a9190612a97565b610b75906002612bba565b8351610b82906003612bba565b11610c7a576000856001600160a01b031663a5d54f656040518163ffffffff1660e01b8152600401600060405180830381865afa158015610bc7573d6000803e3d6000fd5b505050506040513d6000823e601f3d908101601f19168201604052610bef9190810190612ac6565b519050600081118015610c6e57508351606f5460405163efd0494760e01b8152600481018490526001600160a01b039091169063efd0494790602401602060405180830381865afa158015610c48573d6000803e3d6000fd5b505050506040513d601f19601f82011682018060405250810190610c6c9190612a97565b115b15610c7857600191505b505b8180610c835750805b8015610d085750606f60009054906101000a90046001600160a01b03166001600160a01b031663eebc7a396040518163ffffffff1660e01b8152600401600060405180830381865afa158015610cdd573d6000803e3d6000fd5b505050506040513d6000823e601f3d908101601f19168201604052610d059190810190612ac6565b51155b15610d7a57606f60009054906101000a90046001600160a01b03166001600160a01b0316635ccee1de6040518163ffffffff1660e01b8152600401600060405180830381600087803b158015610d5d57600080fd5b505af1158015610d71573d6000803e3d6000fd5b50505050610e4b565b846001600160a01b03166322e3d9866040518163ffffffff1660e01b8152600401602060405180830381865afa158015610db8573d6000803e3d6000fd5b505050506040513d601f19601f82011682018060405250810190610ddc9190612a97565b4210610e4b57606f60009054906101000a90046001600160a01b03166001600160a01b031663ade1900a6040518163ffffffff1660e01b8152600401600060405180830381600087803b158015610e3257600080fd5b505af1158015610e46573d6000803e3d6000fd5b505050505b50505050505b919050565b606f546040516253517560e01b81526001600160a01b0384811660048301526060926000929116906253517590602401602060405180830381865afa158015610ea3573d6000803e3d6000fd5b505050506040513d601f19601f82011682018060405250810190610ec79190612a7a565b90506000606f60009054906101000a90046001600160a01b03166001600160a01b0316638e68dce46040518163ffffffff1660e01b8152600401602060405180830381865afa158015610f1e573d6000803e3d6000fd5b505050506040513d601f19601f82011682018060405250810190610f429190612a7a565b90506000846001600160a01b0316866001600160a01b031614159050600080821561107457604051632b2cdba160e11b81526001600160a01b0389811660048301528881166024830152851690635659b74290604401602060405180830381865afa158015610fb5573d6000803e3d6000fd5b505050506040513d601f19601f82011682018060405250810190610fd99190612a97565b915081600003610fff575050604080516000815260208101909152935061129292505050565b60405163bc9eb2c360e01b81526001600160a01b038981166004830152888116602483015285169063bc9eb2c390604401602060405180830381865afa15801561104d573d6000803e3d6000fd5b505050506040513d601f19601f820116820180604052508101906110719190612a97565b90505b6001600160a01b0385166000908152606560205260408120805490918167ffffffffffffffff8111156110a9576110a9612ab0565b6040519080825280602002602001820160405280156110d2578160200160208202803683370190505b5090506000805b838110156111ec5760008582815481106110f5576110f5612b8b565b906000526020600020015490508815611130578781101561111657506111da565b80871115801561112557508615155b1561113057506111ec565b604051630317277360e41b81526001600160a01b038f811660048301528e81166024830152604482018390528b1690633172773090606401602060405180830381865afa158015611185573d6000803e3d6000fd5b505050506040513d601f19601f820116820180604052508101906111a99190612bd1565b6111d8578084846111b981612ba1565b9550815181106111cb576111cb612b8b565b6020026020010181815250505b505b806111e481612ba1565b9150506110d9565b8167ffffffffffffffff81111561120557611205612ab0565b60405190808252806020026020018201604052801561122e578160200160208202803683370190505b509a50600090505b818110156112875782818151811061125057611250612b8b565b60200260200101518b828151811061126a5761126a612b8b565b60209081029190910101528061127f81612ba1565b915050611236565b505050505050505050505b92915050565b600080606f60009054906101000a90046001600160a01b03166001600160a01b0316638e68dce46040518163ffffffff1660e01b8152600401602060405180830381865afa1580156112ee573d6000803e3d6000fd5b505050506040513d601f19601f820116820180604052508101906113129190612a7a565b90506000816001600160a01b031663794c0c686040518163ffffffff1660e01b8152600401602060405180830381865afa158015611354573d6000803e3d6000fd5b505050506040513d601f19601f820116820180604052508101906113789190612a97565b90508060000361138c575060009392505050565b606f546040516253517560e01b81526001600160a01b03868116600483015260009216906253517590602401602060405180830381865afa1580156113d5573d6000803e3d6000fd5b505050506040513d601f19601f820116820180604052508101906113f99190612a7a565b606f5460405163a0d16cad60e01b81526001600160a01b03808416600483015292935091169063a0d16cad90602401602060405180830381865afa158015611445573d6000803e3d6000fd5b505050506040513d601f19601f820116820180604052508101906114699190612bd1565b156114be5760008281526069602090815260408083206001600160a01b03851680855290835281842054868552606884528285209185529252909120546114b5918491620f42406116f5565b95945050505050565b60405163a697ecff60e01b81526001600160a01b038681166004830181905260248301526114b591849186169063a697ecff90604401602060405180830381865afa158015611511573d6000803e3d6000fd5b505050506040513d601f19601f820116820180604052508101906115359190612a97565b604051632933f0eb60e11b81526001600160a01b038981166004830152871690635267e1d690602401602060405180830381865afa15801561157b573d6000803e3d6000fd5b505050506040513d601f19601f8201168201806040525081019061159f9190612a97565b620f42406116f5565b6073546001600160a01b031633146115bf57600080fd5b6073805460ff60a01b1916600160a01b179055565b60008415806115e1575083155b806115ea575082155b156115f7575060006114b5565b60008085851015611609576000611613565b6116138686612bee565b6000898152606a602052604090205490915061162f8183612bba565b61163a826064612bee565b6116449089612bba565b111561166657856116558987612bba565b61165f9190612c01565b925061169d565b611671826064612bba565b61167c826064612bee565b6116868a88612bba565b6116909190612bba565b61169a9190612c01565b92505b5090979650505050505050565b6116b26126d4565b6116bc600061272e565b565b6116c66126d4565b6073805473ffffffffffffffffffffffffffffffffffffffff19166001600160a01b0392909216919091179055565b6000831580611702575082155b1561170f5750600061179d565b6000808585101561172157600061172b565b61172b8686612bee565b6000888152606a60205260409020549091506117478183612bba565b611752826064612bee565b61175c9089612bba565b111561177e578561176d8887612bba565b6117779190612c01565b9250611797565b606461178a8287612bba565b6117949190612c01565b92505b50909150505b949350505050565b600080606f60009054906101000a90046001600160a01b03166001600160a01b0316638e68dce46040518163ffffffff1660e01b8152600401602060405180830381865afa1580156117fb573d6000803e3d6000fd5b505050506040513d601f19601f8201168201806040525081019061181f9190612a7a565b90506000816001600160a01b0316639b03d7446040518163ffffffff1660e01b8152600401602060405180830381865afa158015611861573d6000803e3d6000fd5b505050506040513d601f19601f820116820180604052508101906118859190612a97565b826001600160a01b03166322e3d9866040518163ffffffff1660e01b8152600401602060405180830381865afa1580156118c3573d6000803e3d6000fd5b505050506040513d601f19601f820116820180604052508101906118e79190612a97565b6118f19190612bee565b9050816001600160a01b03166322e3d9866040518163ffffffff1660e01b8152600401602060405180830381865afa158015611931573d6000803e3d6000fd5b505050506040513d601f19601f820116820180604052508101906119559190612a97565b42116119e25780826001600160a01b0316639b03d7446040518163ffffffff1660e01b8152600401602060405180830381865afa15801561199a573d6000803e3d6000fd5b505050506040513d601f19601f820116820180604052508101906119be9190612a97565b6119c89042612bee565b6119d3906064612bba565b6119dd9190612c01565b6119e5565b60645b9250505090565b34606d60008282546119fe9190612885565b9091555050565b34606b60008282546119fe9190612885565b600054610100900460ff1615808015611a375750600054600160ff909116105b80611a515750303b158015611a51575060005460ff166001145b611ac85760405162461bcd60e51b815260206004820152602e60248201527f496e697469616c697a61626c653a20636f6e747261637420697320616c72656160448201527f647920696e697469616c697a656400000000000000000000000000000000000060648201526084015b60405180910390fd5b6000805460ff191660011790558015611aeb576000805461ff0019166101001790555b6001600160a01b038416611b415760405162461bcd60e51b815260206004820152601b60248201527f4f776e65722061646472657373206d757374206e6f74206265203000000000006044820152606401611abf565b6001600160a01b038316611b975760405162461bcd60e51b815260206004820152601a60248201527f56616c696461746f72536574206d757374206e6f7420626520300000000000006044820152606401611abf565b6001600160a01b038216611bf75760405162461bcd60e51b815260206004820152602160248201527f436f6e6e6563746976697479547261636b6572206d757374206e6f74206265206044820152600360fc1b6064820152608401611abf565b611bff61278d565b611c088461272e565b606f80546001600160a01b0380861673ffffffffffffffffffffffffffffffffffffffff1992831617909255607380549285169282169290921790915560008052606a602052601e7f6021fa82de881996a3e5fd2d032f74dfe72746b8a66c5510d4ab1a3cb789150755611770606c819055606e556070805490911673da0da0da0da0da0da0da00da0da0da0da0da0da01790556001607155600a6072558015611cec576000805461ff0019169055604051600181527f7f26b83ff96e1f2b6a682f133852f6798a09c465da95921460cefb38474024989060200160405180910390a15b50505050565b611cfa6126d4565b80600003611d4a5760405162461bcd60e51b815260206004820152601d60248201527f5061796f7574206672616374696f6e206d757374206e6f7420626520300000006044820152606401611abf565b606e55565b611d576126d4565b80600003611da75760405162461bcd60e51b815260206004820152601d60248201527f5061796f7574206672616374696f6e206d757374206e6f7420626520300000006044820152606401611abf565b606c55565b6001600160a01b038116600090815260656020908152604091829020805483518184028101840190945280845260609392830182828015611e0c57602002820191906000526020600020905b815481526020019060010190808311611df8575b50505050509050919050565b611e206126d4565b6001600160a01b038116611e9c5760405162461bcd60e51b815260206004820152602660248201527f4f776e61626c653a206e6577206f776e657220697320746865207a65726f206160448201527f64647265737300000000000000000000000000000000000000000000000000006064820152608401611abf565b611ea58161272e565b50565b600080606f60009054906101000a90046001600160a01b03166001600160a01b031663b7ab4db56040518163ffffffff1660e01b8152600401600060405180830381865afa158015611efe573d6000803e3d6000fd5b505050506040513d6000823e601f3d908101601f19168201604052611f269190810190612ac6565b80519091506000819003611f7c5760405162461bcd60e51b815260206004820152601460248201527f456d7074792056616c696461746f72206c6973740000000000000000000000006044820152606401611abf565b600080606f60009054906101000a90046001600160a01b03166001600160a01b03166308ac52566040518163ffffffff1660e01b8152600401602060405180830381865afa158015611fd2573d6000803e3d6000fd5b505050506040513d601f19601f82011682018060405250810190611ff69190612a97565b90506000606482606c546120086117a5565b87606b546120169190612bba565b6120209190612bba565b61202a9190612c01565b6120349190612c01565b61203e9190612c01565b905080606b60008282546120529190612bee565b925050819055506000606483606e546120696117a5565b88606d546120779190612bba565b6120819190612bba565b61208b9190612c01565b6120959190612c01565b61209f9190612c01565b905080606d60008282546120b39190612bee565b90915550506067546120c58284612885565b6120cf9190612885565b9350505050806000036120e757506000949350505050565b6000607254607154836120fa9190612bba565b6121049190612c01565b6070546040519192506001600160a01b03169082156108fc029083906000818181858888f1935050505015801561213f573d6000803e3d6000fd5b50600061214c8284612bee565b905060008467ffffffffffffffff81111561216957612169612ab0565b604051908082528060200260200182016040528015612192578160200160208202803683370190505b5090506000805b87518110156122e557606f5488516001600160a01b039091169063a92252ae908a90849081106121cb576121cb612b8b565b60200260200101516040518263ffffffff1660e01b81526004016121fe91906001600160a01b0391909116815260200190565b602060405180830381865afa15801561221b573d6000803e3d6000fd5b505050506040513d601f19601f8201168201806040525081019061223f9190612bd1565b15801561229c5750606960008b8152602001908152602001600020600089838151811061226e5761226e612b8b565b60200260200101516001600160a01b03166001600160a01b0316815260200190815260200160002054600014155b156122d35760018382815181106122b5576122b5612b8b565b91151560209283029190910190910152816122cf81612ba1565b9250505b806122dd81612ba1565b915050612199565b50806000036122fd5750600098975050505050505050565b60006123098285612c01565b905080156124de5760005b878110156124dc5783818151811061232e5761232e612b8b565b6020026020010151156124ca57606660008c815260200190815260200160002060008a838151811061236257612362612b8b565b60200260200101516001600160a01b03166001600160a01b03168152602001908152602001600020546000146124265760405162461bcd60e51b815260206004820152605c60248201527f63616e74206469737472696275746520726577617264733a207468657265206960448201527f7320616c7265616479206120706f6f6c2072657761726420646566696e65642060648201527f666f7220746869732065706f636820616e642076616c696461746f7200000000608482015260a401611abf565b60008b81526066602052604081208a518492908c908590811061244b5761244b612b8b565b6020908102919091018101516001600160a01b03168252810191909152604001600020556124798287612885565b9550606560008a838151811061249157612491612b8b565b6020908102919091018101516001600160a01b031682528181019290925260400160009081208054600181018255908252919020018b90555b806124d481612ba1565b915050612314565b505b6124e88587612bee565b606755509298975050505050505050565b60008281526068602090815260408083206001600160a01b03851684529091529020541561252657505050565b606f546040516307b9342f60e21b81526001600160a01b0383811660048301526000921690631ee4d0bc90602401602060405180830381865afa158015612571573d6000803e3d6000fd5b505050506040513d601f19601f820116820180604052508101906125959190612a7a565b604051632933f0eb60e11b81526001600160a01b038083166004830152919250600091861690635267e1d690602401602060405180830381865afa1580156125e1573d6000803e3d6000fd5b505050506040513d601f19601f820116820180604052508101906126059190612a97565b905080600003612616575050505050565b60008481526068602090815260408083206001600160a01b038781168552925291829020839055905163a697ecff60e01b81528382166004820181905260248201529086169063a697ecff90604401602060405180830381865afa158015612682573d6000803e3d6000fd5b505050506040513d601f19601f820116820180604052508101906126a69190612a97565b60009485526069602090815260408087206001600160a01b0390961687529490529290932091909155505050565b6033546001600160a01b031633146116bc5760405162461bcd60e51b815260206004820181905260248201527f4f776e61626c653a2063616c6c6572206973206e6f7420746865206f776e65726044820152606401611abf565b603380546001600160a01b0383811673ffffffffffffffffffffffffffffffffffffffff19831681179093556040519116919082907f8be0079c531659141344cd1fd0a4f28419497f9722a3daafe3b4186f6b6457e090600090a35050565b600054610100900460ff166127f85760405162461bcd60e51b815260206004820152602b60248201527f496e697469616c697a61626c653a20636f6e7472616374206973206e6f74206960448201526a6e697469616c697a696e6760a81b6064820152608401611abf565b6116bc600054610100900460ff166128665760405162461bcd60e51b815260206004820152602b60248201527f496e697469616c697a61626c653a20636f6e7472616374206973206e6f74206960448201526a6e697469616c697a696e6760a81b6064820152608401611abf565b6116bc3361272e565b634e487b7160e01b600052601160045260246000fd5b808201808211156112925761129261286f565b8015158114611ea557600080fd5b6000602082840312156128b857600080fd5b81356128c381612898565b9392505050565b6001600160a01b0381168114611ea557600080fd5b600080604083850312156128f257600080fd5b823591506020830135612904816128ca565b809150509250929050565b6000806040838503121561292257600080fd5b823561292d816128ca565b91506020830135612904816128ca565b6020808252825182820181905260009190848201906040850190845b8181101561297557835183529284019291840191600101612959565b50909695505050505050565b60006020828403121561299357600080fd5b81356128c3816128ca565b600080600080600060a086880312156129b657600080fd5b505083359560208501359550604085013594606081013594506080013592509050565b600080600080608085870312156129ef57600080fd5b5050823594602084013594506040840135936060013592509050565b600080600060608486031215612a2057600080fd5b8335612a2b816128ca565b92506020840135612a3b816128ca565b91506040840135612a4b816128ca565b809150509250925092565b600060208284031215612a6857600080fd5b5035919050565b8051610e51816128ca565b600060208284031215612a8c57600080fd5b81516128c3816128ca565b600060208284031215612aa957600080fd5b5051919050565b634e487b7160e01b600052604160045260246000fd5b60006020808385031215612ad957600080fd5b825167ffffffffffffffff80821115612af157600080fd5b818501915085601f830112612b0557600080fd5b815181811115612b1757612b17612ab0565b8060051b604051601f19603f83011681018181108582111715612b3c57612b3c612ab0565b604052918252848201925083810185019188831115612b5a57600080fd5b938501935b82851015612b7f57612b7085612a6f565b84529385019392850192612b5f565b98975050505050505050565b634e487b7160e01b600052603260045260246000fd5b600060018201612bb357612bb361286f565b5060010190565b80820281158282048414176112925761129261286f565b600060208284031215612be357600080fd5b81516128c381612898565b818103818111156112925761129261286f565b600082612c1e57634e487b7160e01b600052601260045260246000fd5b50049056fea26469706673582212205efb687dccebb4c2f1a18a3704e435c27c73002bdd01425e88f3d5fc5e4cb50464736f6c63430008110033",
  "linkReferences": {},
  "deployedLinkReferences": {}
}