{
  "_format": "hh-sol-artifact-1",
  "contractName": "BlockRewardHbbft",
  "sourceName": "contracts/BlockRewardHbbft.sol",
  "abi": [
    {
      "anonymous": false,
      "inputs": [
        {
          "indexed": false,
          "internalType": "uint256",
          "name": "rewards",
          "type": "uint256"
        }
      ],
      "name": "CoinsRewarded",
      "type": "event"
    },
    {
      "anonymous": false,
      "inputs": [
        {
          "indexed": false,
          "internalType": "uint8",
          "name": "version",
          "type": "uint8"
        }
      ],
      "name": "Initialized",
      "type": "event"
    },
    {
      "anonymous": false,
      "inputs": [
        {
          "indexed": true,
          "internalType": "address",
          "name": "previousOwner",
          "type": "address"
        },
        {
          "indexed": true,
          "internalType": "address",
          "name": "newOwner",
          "type": "address"
        }
      ],
      "name": "OwnershipTransferred",
      "type": "event"
    },
    {
      "inputs": [],
      "name": "REWARD_PERCENT_MULTIPLIER",
      "outputs": [
        {
          "internalType": "uint256",
          "name": "",
          "type": "uint256"
        }
      ],
      "stateMutability": "view",
      "type": "function"
    },
    {
      "inputs": [],
      "name": "VALIDATOR_MIN_REWARD_PERCENT",
      "outputs": [
        {
          "internalType": "uint256",
          "name": "",
          "type": "uint256"
        }
      ],
      "stateMutability": "view",
      "type": "function"
    },
    {
      "inputs": [],
      "name": "addToDeltaPot",
      "outputs": [],
      "stateMutability": "payable",
      "type": "function"
    },
    {
      "inputs": [],
      "name": "addToReinsertPot",
      "outputs": [],
      "stateMutability": "payable",
      "type": "function"
    },
    {
      "inputs": [],
      "name": "connectivityTracker",
      "outputs": [
        {
          "internalType": "address",
          "name": "",
          "type": "address"
        }
      ],
      "stateMutability": "view",
      "type": "function"
    },
    {
      "inputs": [
        {
          "internalType": "uint256",
          "name": "_stakingEpoch",
          "type": "uint256"
        },
        {
          "internalType": "uint256",
          "name": "_delegatorStaked",
          "type": "uint256"
        },
        {
          "internalType": "uint256",
          "name": "_validatorStaked",
          "type": "uint256"
        },
        {
          "internalType": "uint256",
          "name": "_totalStaked",
          "type": "uint256"
        },
        {
          "internalType": "uint256",
          "name": "_poolReward",
          "type": "uint256"
        }
      ],
      "name": "delegatorShare",
      "outputs": [
        {
          "internalType": "uint256",
          "name": "",
          "type": "uint256"
        }
      ],
      "stateMutability": "view",
      "type": "function"
    },
    {
      "inputs": [],
      "name": "deltaPot",
      "outputs": [
        {
          "internalType": "uint256",
          "name": "",
          "type": "uint256"
        }
      ],
      "stateMutability": "view",
      "type": "function"
    },
    {
      "inputs": [],
      "name": "deltaPotPayoutFraction",
      "outputs": [
        {
          "internalType": "uint256",
          "name": "",
          "type": "uint256"
        }
      ],
      "stateMutability": "view",
      "type": "function"
    },
    {
      "inputs": [],
      "name": "earlyEpochEnd",
      "outputs": [
        {
          "internalType": "bool",
          "name": "",
          "type": "bool"
        }
      ],
      "stateMutability": "view",
      "type": "function"
    },
    {
      "inputs": [],
      "name": "epochPercentage",
      "outputs": [
        {
          "internalType": "uint256",
          "name": "",
          "type": "uint256"
        }
      ],
      "stateMutability": "view",
      "type": "function"
    },
    {
      "inputs": [
        {
          "internalType": "uint256",
          "name": "",
          "type": "uint256"
        },
        {
          "internalType": "address",
          "name": "",
          "type": "address"
        }
      ],
      "name": "epochPoolNativeReward",
      "outputs": [
        {
          "internalType": "uint256",
          "name": "",
          "type": "uint256"
        }
      ],
      "stateMutability": "view",
      "type": "function"
    },
    {
      "inputs": [
        {
          "internalType": "address",
          "name": "_miningAddress",
          "type": "address"
        }
      ],
      "name": "epochsPoolGotRewardFor",
      "outputs": [
        {
          "internalType": "uint256[]",
          "name": "",
          "type": "uint256[]"
        }
      ],
      "stateMutability": "view",
      "type": "function"
    },
    {
      "inputs": [
        {
          "internalType": "address",
          "name": "_poolStakingAddress",
          "type": "address"
        },
        {
          "internalType": "address",
          "name": "_staker",
          "type": "address"
        }
      ],
      "name": "epochsToClaimRewardFrom",
      "outputs": [
        {
          "internalType": "uint256[]",
          "name": "epochsToClaimFrom",
          "type": "uint256[]"
        }
      ],
      "stateMutability": "view",
      "type": "function"
    },
    {
      "inputs": [
        {
          "internalType": "uint256",
          "name": "_delegatorStake",
          "type": "uint256"
        },
        {
          "internalType": "uint256",
          "name": "_stakingEpoch",
          "type": "uint256"
        },
        {
          "internalType": "address",
          "name": "_poolMiningAddress",
          "type": "address"
        }
      ],
      "name": "getDelegatorReward",
      "outputs": [
        {
          "internalType": "uint256",
          "name": "nativeReward",
          "type": "uint256"
        }
      ],
      "stateMutability": "view",
      "type": "function"
    },
    {
      "inputs": [],
      "name": "getGovernanceAddress",
      "outputs": [
        {
          "internalType": "address",
          "name": "",
          "type": "address"
        }
      ],
      "stateMutability": "view",
      "type": "function"
    },
    {
      "inputs": [
        {
          "internalType": "uint256",
          "name": "_stakingEpoch",
          "type": "uint256"
        },
        {
          "internalType": "address",
          "name": "_poolMiningAddress",
          "type": "address"
        }
      ],
      "name": "getValidatorReward",
      "outputs": [
        {
          "internalType": "uint256",
          "name": "nativeReward",
          "type": "uint256"
        }
      ],
      "stateMutability": "view",
      "type": "function"
    },
    {
      "inputs": [],
      "name": "governancePotAddress",
      "outputs": [
        {
          "internalType": "address payable",
          "name": "",
          "type": "address"
        }
      ],
      "stateMutability": "view",
      "type": "function"
    },
    {
      "inputs": [],
      "name": "governancePotShareDenominator",
      "outputs": [
        {
          "internalType": "uint256",
          "name": "",
          "type": "uint256"
        }
      ],
      "stateMutability": "view",
      "type": "function"
    },
    {
      "inputs": [],
      "name": "governancePotShareNominator",
      "outputs": [
        {
          "internalType": "uint256",
          "name": "",
          "type": "uint256"
        }
      ],
      "stateMutability": "view",
      "type": "function"
    },
    {
      "inputs": [
        {
          "internalType": "address",
          "name": "_contractOwner",
          "type": "address"
        },
        {
          "internalType": "address",
          "name": "_validatorSet",
          "type": "address"
        },
        {
          "internalType": "address",
          "name": "_connectivityTracker",
          "type": "address"
        }
      ],
      "name": "initialize",
      "outputs": [],
      "stateMutability": "nonpayable",
      "type": "function"
    },
    {
      "inputs": [],
      "name": "nativeRewardUndistributed",
      "outputs": [
        {
          "internalType": "uint256",
          "name": "",
          "type": "uint256"
        }
      ],
      "stateMutability": "view",
      "type": "function"
    },
    {
      "inputs": [],
      "name": "notifyEarlyEpochEnd",
      "outputs": [],
      "stateMutability": "nonpayable",
      "type": "function"
    },
    {
      "inputs": [],
      "name": "owner",
      "outputs": [
        {
          "internalType": "address",
          "name": "",
          "type": "address"
        }
      ],
      "stateMutability": "view",
      "type": "function"
    },
    {
      "inputs": [],
      "name": "reinsertPot",
      "outputs": [
        {
          "internalType": "uint256",
          "name": "",
          "type": "uint256"
        }
      ],
      "stateMutability": "view",
      "type": "function"
    },
    {
      "inputs": [],
      "name": "reinsertPotPayoutFraction",
      "outputs": [
        {
          "internalType": "uint256",
          "name": "",
          "type": "uint256"
        }
      ],
      "stateMutability": "view",
      "type": "function"
    },
    {
      "inputs": [],
      "name": "renounceOwnership",
      "outputs": [],
      "stateMutability": "nonpayable",
      "type": "function"
    },
    {
      "inputs": [
        {
          "internalType": "bool",
          "name": "_isEpochEndBlock",
          "type": "bool"
        }
      ],
      "name": "reward",
      "outputs": [
        {
          "internalType": "uint256",
          "name": "rewardsNative",
          "type": "uint256"
        }
      ],
      "stateMutability": "nonpayable",
      "type": "function"
    },
    {
      "inputs": [
        {
          "internalType": "address",
          "name": "_connectivityTracker",
          "type": "address"
        }
      ],
      "name": "setConnectivityTracker",
      "outputs": [],
      "stateMutability": "nonpayable",
      "type": "function"
    },
    {
      "inputs": [
        {
          "internalType": "uint256",
          "name": "_value",
          "type": "uint256"
        }
      ],
      "name": "setReinsertPotPayoutFraction",
      "outputs": [],
      "stateMutability": "nonpayable",
      "type": "function"
    },
    {
      "inputs": [
        {
          "internalType": "uint256",
          "name": "_value",
          "type": "uint256"
        }
      ],
      "name": "setdeltaPotPayoutFraction",
      "outputs": [],
      "stateMutability": "nonpayable",
      "type": "function"
    },
    {
      "inputs": [
        {
          "internalType": "uint256",
          "name": "",
          "type": "uint256"
        },
        {
          "internalType": "address",
          "name": "",
          "type": "address"
        }
      ],
      "name": "snapshotPoolTotalStakeAmount",
      "outputs": [
        {
          "internalType": "uint256",
          "name": "",
          "type": "uint256"
        }
      ],
      "stateMutability": "view",
      "type": "function"
    },
    {
      "inputs": [
        {
          "internalType": "uint256",
          "name": "",
          "type": "uint256"
        },
        {
          "internalType": "address",
          "name": "",
          "type": "address"
        }
      ],
      "name": "snapshotPoolValidatorStakeAmount",
      "outputs": [
        {
          "internalType": "uint256",
          "name": "",
          "type": "uint256"
        }
      ],
      "stateMutability": "view",
      "type": "function"
    },
    {
      "inputs": [
        {
          "internalType": "address",
          "name": "newOwner",
          "type": "address"
        }
      ],
      "name": "transferOwnership",
      "outputs": [],
      "stateMutability": "nonpayable",
      "type": "function"
    },
    {
      "inputs": [
        {
          "internalType": "uint256",
          "name": "_nativeCoins",
          "type": "uint256"
        },
        {
          "internalType": "address payable",
          "name": "_to",
          "type": "address"
        }
      ],
      "name": "transferReward",
      "outputs": [],
      "stateMutability": "nonpayable",
      "type": "function"
    },
    {
      "inputs": [
        {
          "internalType": "uint256",
          "name": "",
          "type": "uint256"
        }
      ],
      "name": "validatorMinRewardPercent",
      "outputs": [
        {
          "internalType": "uint256",
          "name": "",
          "type": "uint256"
        }
      ],
      "stateMutability": "view",
      "type": "function"
    },
    {
      "inputs": [
        {
          "internalType": "address",
          "name": "_stakingAddress",
          "type": "address"
        }
      ],
      "name": "validatorRewardPercent",
      "outputs": [
        {
          "internalType": "uint256",
          "name": "",
          "type": "uint256"
        }
      ],
      "stateMutability": "view",
      "type": "function"
    },
    {
      "inputs": [],
      "name": "validatorSetContract",
      "outputs": [
        {
          "internalType": "contract IValidatorSetHbbft",
          "name": "",
          "type": "address"
        }
      ],
      "stateMutability": "view",
      "type": "function"
    },
    {
      "inputs": [
        {
          "internalType": "uint256",
          "name": "_stakingEpoch",
          "type": "uint256"
        },
        {
          "internalType": "uint256",
          "name": "_validatorStaked",
          "type": "uint256"
        },
        {
          "internalType": "uint256",
          "name": "_totalStaked",
          "type": "uint256"
        },
        {
          "internalType": "uint256",
          "name": "_poolReward",
          "type": "uint256"
        }
      ],
      "name": "validatorShare",
      "outputs": [
        {
          "internalType": "uint256",
          "name": "",
          "type": "uint256"
        }
      ],
      "stateMutability": "view",
      "type": "function"
    },
    {
      "stateMutability": "payable",
      "type": "receive"
    }
  ],
  "bytecode": "0x60806040523480156200001157600080fd5b506200001c62000022565b620000e3565b600054610100900460ff16156200008f5760405162461bcd60e51b815260206004820152602760248201527f496e697469616c697a61626c653a20636f6e747261637420697320696e697469604482015266616c697a696e6760c81b606482015260840160405180910390fd5b60005460ff90811614620000e1576000805460ff191660ff9081179091556040519081527f7f26b83ff96e1f2b6a682f133852f6798a09c465da95921460cefb38474024989060200160405180910390a15b565b612f7480620000f36000396000f3fe6080604052600436106102885760003560e01c806378ff69d511610153578063ba2d7597116100cb578063dd03f5b91161007f578063e1ab96d811610064578063e1ab96d814610706578063e58edc3814610726578063f2fde38b1461073d57600080fd5b8063dd03f5b9146106c6578063dfc8bf4e146106e657600080fd5b8063c6cc9333116100b0578063c6cc933314610659578063cb68d12714610679578063cdf7a0901461069957600080fd5b8063ba2d759714610619578063c0c53b8b1461063957600080fd5b80639a64ca2c11610122578063adc481a711610107578063adc481a7146105f3578063af18253514610609578063b10c75481461061157600080fd5b80639a64ca2c146105c8578063a59546e2146105de57600080fd5b806378ff69d5146105545780638737929a146105745780638da5cb5b1461059457806391b57986146105b257600080fd5b8063527d8bc411610201578063674a7214116101b5578063728345db1161019a578063728345db146104e8578063732524941461052057806373f129581461053e57600080fd5b8063674a7214146104a2578063715018a6146104d357600080fd5b80635c57a801116101e65780635c57a8011461044c5780635fba554e14610462578063669554691461048257600080fd5b8063527d8bc414610417578063596208721461043757600080fd5b806319cee897116102585780633c2c943c1161023d5780633c2c943c146103b2578063469507c6146103c85780634de6c036146103ea57600080fd5b806319cee8971461034257806333d699211461037a57600080fd5b8062067a84146102ac5780630c0d4173146102df5780631274fa09146102f45780631345b8a51461030a57600080fd5b366102a75734606d600082825461029f9190612b19565b925050819055005b600080fd5b3480156102b857600080fd5b506102cc6102c7366004612b3a565b61075d565b6040519081526020015b60405180910390f35b3480156102eb57600080fd5b506102cc601e81565b34801561030057600080fd5b506102cc606e5481565b34801561031657600080fd5b506102cc610325366004612b73565b606960209081526000928352604080842090915290825290205481565b34801561034e57600080fd5b50607054610362906001600160a01b031681565b6040516001600160a01b0390911681526020016102d6565b34801561038657600080fd5b506102cc610395366004612b73565b606660209081526000928352604080842090915290825290205481565b3480156103be57600080fd5b506102cc60725481565b3480156103d457600080fd5b506103e86103e3366004612b73565b610f07565b005b3480156103f657600080fd5b5061040a610405366004612ba3565b610fa9565b6040516102d69190612bd1565b34801561042357600080fd5b506102cc610432366004612c15565b6113eb565b34801561044357600080fd5b506103e86116fb565b34801561045857600080fd5b506102cc606b5481565b34801561046e57600080fd5b506102cc61047d366004612c32565b611727565b34801561048e57600080fd5b50607354610362906001600160a01b031681565b3480156104ae57600080fd5b506073546104c390600160a01b900460ff1681565b60405190151581526020016102d6565b3480156104df57600080fd5b506103e86117fd565b3480156104f457600080fd5b506102cc610503366004612b73565b606860209081526000928352604080842090915290825290205481565b34801561052c57600080fd5b506070546001600160a01b0316610362565b34801561054a57600080fd5b506102cc606d5481565b34801561056057600080fd5b506103e861056f366004612c15565b611811565b34801561058057600080fd5b506102cc61058f366004612c6d565b611848565b3480156105a057600080fd5b506033546001600160a01b0316610362565b3480156105be57600080fd5b506102cc60715481565b3480156105d457600080fd5b506102cc606c5481565b3480156105ea57600080fd5b506102cc6118f8565b3480156105ff57600080fd5b506102cc60675481565b6103e8611b3f565b6103e8611b58565b34801561062557600080fd5b506102cc610634366004612b73565b611b6a565b34801561064557600080fd5b506103e8610654366004612c9f565b611bc6565b34801561066557600080fd5b506103e8610674366004612cea565b611ea1565b34801561068557600080fd5b506103e8610694366004612cea565b611efe565b3480156106a557600080fd5b506102cc6106b4366004612cea565b606a6020526000908152604090205481565b3480156106d257600080fd5b5061040a6106e1366004612c15565b611f5b565b3480156106f257600080fd5b50606f54610362906001600160a01b031681565b34801561071257600080fd5b506102cc610721366004612d03565b611fc7565b34801561073257600080fd5b506102cc620f424081565b34801561074957600080fd5b506103e8610758366004612c15565b61202f565b600073fffffffffffffffffffffffffffffffffffffffe331461077f57600080fd5b606f546040805163239a373960e21b815290516000926001600160a01b031691638e68dce49160048083019260209291908290030181865afa1580156107c9573d6000803e3d6000fd5b505050506040513d601f19601f820116820180604052508101906107ed9190612d3c565b905082806108045750607354600160a01b900460ff165b15610ac2576000816001600160a01b031663794c0c686040518163ffffffff1660e01b8152600401602060405180830381865afa158015610849573d6000803e3d6000fd5b505050506040513d601f19601f8201168201806040525081019061086d9190612d59565b90506000811561088357610880826120bf565b90505b600080610891846001612b19565b90506060606f60009054906101000a90046001600160a01b03166001600160a01b031663eebc7a396040518163ffffffff1660e01b8152600401600060405180830381865afa1580156108e8573d6000803e3d6000fd5b505050506040513d6000823e601f3d908101601f191682016040526109109190810190612d88565b9050600092505b805183101561095657610944868383868151811061093757610937612e4d565b6020026020010151612710565b8261094e81612e63565b935050610917565b606f60009054906101000a90046001600160a01b03166001600160a01b031663b7ab4db56040518163ffffffff1660e01b8152600401600060405180830381865afa1580156109a9573d6000803e3d6000fd5b505050506040513d6000823e601f3d908101601f191682016040526109d19190810190612d88565b9050600092505b8051831015610a0a576109f8868383868151811061093757610937612e4d565b82610a0281612e63565b9350506109d8565b6000828152606a6020526040808220601e9055606f548151637528621160e01b815291516001600160a01b03909116926375286211926004808201939182900301818387803b158015610a5c57600080fd5b505af1158015610a70573d6000803e3d6000fd5b50506073805460ff60a01b1916905550506040518481527ff32b9551d3414b67f8e66e20ac15e62694b9d1230abb2e2e48f9dc2e1964c4299060200160405180910390a1506000979650505050505050565b6000816001600160a01b031663c6912cc06040518163ffffffff1660e01b8152600401602060405180830381865afa158015610b02573d6000803e3d6000fd5b505050506040513d601f19601f82011682018060405250810190610b269190612d59565b90506000606f60009054906101000a90046001600160a01b03166001600160a01b031663b7ab4db56040518163ffffffff1660e01b8152600401600060405180830381865afa158015610b7d573d6000803e3d6000fd5b505050506040513d6000823e601f3d908101601f19168201604052610ba59190810190612d88565b606f5460408051630456292b60e11b8152905192935042851115926000926001600160a01b0316916308ac52569160048083019260209291908290030181865afa158015610bf7573d6000803e3d6000fd5b505050506040513d601f19601f82011682018060405250810190610c1b9190612d59565b610c26906002612e7c565b8351610c33906003612e7c565b11610d2b576000856001600160a01b031663a5d54f656040518163ffffffff1660e01b8152600401600060405180830381865afa158015610c78573d6000803e3d6000fd5b505050506040513d6000823e601f3d908101601f19168201604052610ca09190810190612d88565b519050600081118015610d1f57508351606f5460405163efd0494760e01b8152600481018490526001600160a01b039091169063efd0494790602401602060405180830381865afa158015610cf9573d6000803e3d6000fd5b505050506040513d601f19601f82011682018060405250810190610d1d9190612d59565b115b15610d2957600191505b505b8180610d345750805b8015610db95750606f60009054906101000a90046001600160a01b03166001600160a01b031663eebc7a396040518163ffffffff1660e01b8152600401600060405180830381865afa158015610d8e573d6000803e3d6000fd5b505050506040513d6000823e601f3d908101601f19168201604052610db69190810190612d88565b51155b15610e2b57606f60009054906101000a90046001600160a01b03166001600160a01b0316635ccee1de6040518163ffffffff1660e01b8152600401600060405180830381600087803b158015610e0e57600080fd5b505af1158015610e22573d6000803e3d6000fd5b50505050610efc565b846001600160a01b03166322e3d9866040518163ffffffff1660e01b8152600401602060405180830381865afa158015610e69573d6000803e3d6000fd5b505050506040513d601f19601f82011682018060405250810190610e8d9190612d59565b4210610efc57606f60009054906101000a90046001600160a01b03166001600160a01b031663ade1900a6040518163ffffffff1660e01b8152600401600060405180830381600087803b158015610ee357600080fd5b505af1158015610ef7573d6000803e3d6000fd5b505050505b50505050505b919050565b606f60009054906101000a90046001600160a01b03166001600160a01b0316638e68dce46040518163ffffffff1660e01b8152600401602060405180830381865afa158015610f5a573d6000803e3d6000fd5b505050506040513d601f19601f82011682018060405250810190610f7e9190612d3c565b6001600160a01b0316336001600160a01b031614610f9b57600080fd5b610fa582826128eb565b5050565b606f546040516253517560e01b81526001600160a01b0384811660048301526060926000929116906253517590602401602060405180830381865afa158015610ff6573d6000803e3d6000fd5b505050506040513d601f19601f8201168201806040525081019061101a9190612d3c565b90506000606f60009054906101000a90046001600160a01b03166001600160a01b0316638e68dce46040518163ffffffff1660e01b8152600401602060405180830381865afa158015611071573d6000803e3d6000fd5b505050506040513d601f19601f820116820180604052508101906110959190612d3c565b90506000846001600160a01b0316866001600160a01b03161415905060008082156111c757604051632b2cdba160e11b81526001600160a01b0389811660048301528881166024830152851690635659b74290604401602060405180830381865afa158015611108573d6000803e3d6000fd5b505050506040513d601f19601f8201168201806040525081019061112c9190612d59565b91508160000361115257505060408051600081526020810190915293506113e592505050565b60405163bc9eb2c360e01b81526001600160a01b038981166004830152888116602483015285169063bc9eb2c390604401602060405180830381865afa1580156111a0573d6000803e3d6000fd5b505050506040513d601f19601f820116820180604052508101906111c49190612d59565b90505b6001600160a01b0385166000908152606560205260408120805490918167ffffffffffffffff8111156111fc576111fc612d72565b604051908082528060200260200182016040528015611225578160200160208202803683370190505b5090506000805b8381101561133f57600085828154811061124857611248612e4d565b9060005260206000200154905088156112835787811015611269575061132d565b80871115801561127857508615155b15611283575061133f565b604051630317277360e41b81526001600160a01b038f811660048301528e81166024830152604482018390528b1690633172773090606401602060405180830381865afa1580156112d8573d6000803e3d6000fd5b505050506040513d601f19601f820116820180604052508101906112fc9190612e93565b61132b5780848461130c81612e63565b95508151811061131e5761131e612e4d565b6020026020010181815250505b505b8061133781612e63565b91505061122c565b8167ffffffffffffffff81111561135857611358612d72565b604051908082528060200260200182016040528015611381578160200160208202803683370190505b509a50600090505b818110156113da578281815181106113a3576113a3612e4d565b60200260200101518b82815181106113bd576113bd612e4d565b6020908102919091010152806113d281612e63565b915050611389565b505050505050505050505b92915050565b600080606f60009054906101000a90046001600160a01b03166001600160a01b0316638e68dce46040518163ffffffff1660e01b8152600401602060405180830381865afa158015611441573d6000803e3d6000fd5b505050506040513d601f19601f820116820180604052508101906114659190612d3c565b90506000816001600160a01b031663794c0c686040518163ffffffff1660e01b8152600401602060405180830381865afa1580156114a7573d6000803e3d6000fd5b505050506040513d601f19601f820116820180604052508101906114cb9190612d59565b9050806000036114df575060009392505050565b606f546040516253517560e01b81526001600160a01b03868116600483015260009216906253517590602401602060405180830381865afa158015611528573d6000803e3d6000fd5b505050506040513d601f19601f8201168201806040525081019061154c9190612d3c565b606f5460405163a0d16cad60e01b81526001600160a01b03808416600483015292935091169063a0d16cad90602401602060405180830381865afa158015611598573d6000803e3d6000fd5b505050506040513d601f19601f820116820180604052508101906115bc9190612e93565b156116115760008281526069602090815260408083206001600160a01b0385168085529083528184205486855260688452828520918552925290912054611608918491620f4240611848565b95945050505050565b60405163a697ecff60e01b81526001600160a01b0386811660048301819052602483015261160891849186169063a697ecff90604401602060405180830381865afa158015611664573d6000803e3d6000fd5b505050506040513d601f19601f820116820180604052508101906116889190612d59565b604051632933f0eb60e11b81526001600160a01b038981166004830152871690635267e1d690602401602060405180830381865afa1580156116ce573d6000803e3d6000fd5b505050506040513d601f19601f820116820180604052508101906116f29190612d59565b620f4240611848565b6073546001600160a01b0316331461171257600080fd5b6073805460ff60a01b1916600160a01b179055565b6000841580611734575083155b8061173d575082155b1561174a57506000611608565b6000808585101561175c576000611766565b6117668686612eb0565b6000898152606a60205260409020549091506117828183612e7c565b61178d826064612eb0565b6117979089612e7c565b11156117b957856117a88987612e7c565b6117b29190612ec3565b92506117f0565b6117c4826064612e7c565b6117cf826064612eb0565b6117d98a88612e7c565b6117e39190612e7c565b6117ed9190612ec3565b92505b5090979650505050505050565b61180561295c565b61180f60006129b6565b565b61181961295c565b6073805473ffffffffffffffffffffffffffffffffffffffff19166001600160a01b0392909216919091179055565b6000831580611855575082155b15611862575060006118f0565b6000808585101561187457600061187e565b61187e8686612eb0565b6000888152606a602052604090205490915061189a8183612e7c565b6118a5826064612eb0565b6118af9089612e7c565b11156118d157856118c08887612e7c565b6118ca9190612ec3565b92506118ea565b60646118dd8287612e7c565b6118e79190612ec3565b92505b50909150505b949350505050565b600080606f60009054906101000a90046001600160a01b03166001600160a01b0316638e68dce46040518163ffffffff1660e01b8152600401602060405180830381865afa15801561194e573d6000803e3d6000fd5b505050506040513d601f19601f820116820180604052508101906119729190612d3c565b90506000816001600160a01b0316639b03d7446040518163ffffffff1660e01b8152600401602060405180830381865afa1580156119b4573d6000803e3d6000fd5b505050506040513d601f19601f820116820180604052508101906119d89190612d59565b826001600160a01b03166322e3d9866040518163ffffffff1660e01b8152600401602060405180830381865afa158015611a16573d6000803e3d6000fd5b505050506040513d601f19601f82011682018060405250810190611a3a9190612d59565b611a449190612eb0565b9050816001600160a01b03166322e3d9866040518163ffffffff1660e01b8152600401602060405180830381865afa158015611a84573d6000803e3d6000fd5b505050506040513d601f19601f82011682018060405250810190611aa89190612d59565b4211611b355780826001600160a01b0316639b03d7446040518163ffffffff1660e01b8152600401602060405180830381865afa158015611aed573d6000803e3d6000fd5b505050506040513d601f19601f82011682018060405250810190611b119190612d59565b611b1b9042612eb0565b611b26906064612e7c565b611b309190612ec3565b611b38565b60645b9250505090565b34606d6000828254611b519190612b19565b9091555050565b34606b6000828254611b519190612b19565b60008281526069602090815260408083206001600160a01b038516808552908352818420548685526068845282852082865284528285205487865260668552838620928652919093529083205461160890869084908490611848565b600054610100900460ff1615808015611be65750600054600160ff909116105b80611c005750303b158015611c00575060005460ff166001145b611c775760405162461bcd60e51b815260206004820152602e60248201527f496e697469616c697a61626c653a20636f6e747261637420697320616c72656160448201527f647920696e697469616c697a656400000000000000000000000000000000000060648201526084015b60405180910390fd5b6000805460ff191660011790558015611c9a576000805461ff0019166101001790555b6001600160a01b038416611cf05760405162461bcd60e51b815260206004820152601b60248201527f4f776e65722061646472657373206d757374206e6f74206265203000000000006044820152606401611c6e565b6001600160a01b038316611d465760405162461bcd60e51b815260206004820152601a60248201527f56616c696461746f72536574206d757374206e6f7420626520300000000000006044820152606401611c6e565b6001600160a01b038216611da65760405162461bcd60e51b815260206004820152602160248201527f436f6e6e6563746976697479547261636b6572206d757374206e6f74206265206044820152600360fc1b6064820152608401611c6e565b611dae612a15565b611db7846129b6565b606f80546001600160a01b0380861673ffffffffffffffffffffffffffffffffffffffff1992831617909255607380549285169282169290921790915560008052606a602052601e7f6021fa82de881996a3e5fd2d032f74dfe72746b8a66c5510d4ab1a3cb789150755611770606c819055606e556070805490911673da0da0da0da0da0da0da00da0da0da0da0da0da01790556001607155600a6072558015611e9b576000805461ff0019169055604051600181527f7f26b83ff96e1f2b6a682f133852f6798a09c465da95921460cefb38474024989060200160405180910390a15b50505050565b611ea961295c565b80600003611ef95760405162461bcd60e51b815260206004820152601d60248201527f5061796f7574206672616374696f6e206d757374206e6f7420626520300000006044820152606401611c6e565b606e55565b611f0661295c565b80600003611f565760405162461bcd60e51b815260206004820152601d60248201527f5061796f7574206672616374696f6e206d757374206e6f7420626520300000006044820152606401611c6e565b606c55565b6001600160a01b038116600090815260656020908152604091829020805483518184028101840190945280845260609392830182828015611fbb57602002820191906000526020600020905b815481526020019060010190808311611fa7575b50505050509050919050565b60008281526069602090815260408083206001600160a01b0385168085529083528184205486855260688452828520828652845282852054878652606685528386209286529190935290832054612025908690889085908590611727565b9695505050505050565b61203761295c565b6001600160a01b0381166120b35760405162461bcd60e51b815260206004820152602660248201527f4f776e61626c653a206e6577206f776e657220697320746865207a65726f206160448201527f64647265737300000000000000000000000000000000000000000000000000006064820152608401611c6e565b6120bc816129b6565b50565b600080606f60009054906101000a90046001600160a01b03166001600160a01b031663b7ab4db56040518163ffffffff1660e01b8152600401600060405180830381865afa158015612115573d6000803e3d6000fd5b505050506040513d6000823e601f3d908101601f1916820160405261213d9190810190612d88565b805190915060008190036121935760405162461bcd60e51b815260206004820152601460248201527f456d7074792056616c696461746f72206c6973740000000000000000000000006044820152606401611c6e565b600080606f60009054906101000a90046001600160a01b03166001600160a01b03166308ac52566040518163ffffffff1660e01b8152600401602060405180830381865afa1580156121e9573d6000803e3d6000fd5b505050506040513d601f19601f8201168201806040525081019061220d9190612d59565b90506000606482606c5461221f6118f8565b87606b5461222d9190612e7c565b6122379190612e7c565b6122419190612ec3565b61224b9190612ec3565b6122559190612ec3565b905080606b60008282546122699190612eb0565b925050819055506000606483606e546122806118f8565b88606d5461228e9190612e7c565b6122989190612e7c565b6122a29190612ec3565b6122ac9190612ec3565b6122b69190612ec3565b905080606d60008282546122ca9190612eb0565b90915550506067546122dc8284612b19565b6122e69190612b19565b9350505050806000036122fe57506000949350505050565b6000607254607154836123119190612e7c565b61231b9190612ec3565b6070546040519192506001600160a01b03169082156108fc029083906000818181858888f19350505050158015612356573d6000803e3d6000fd5b5060006123638284612eb0565b905060008467ffffffffffffffff81111561238057612380612d72565b6040519080825280602002602001820160405280156123a9578160200160208202803683370190505b5090506000805b87518110156124fc57606f5488516001600160a01b039091169063a92252ae908a90849081106123e2576123e2612e4d565b60200260200101516040518263ffffffff1660e01b815260040161241591906001600160a01b0391909116815260200190565b602060405180830381865afa158015612432573d6000803e3d6000fd5b505050506040513d601f19601f820116820180604052508101906124569190612e93565b1580156124b35750606960008b8152602001908152602001600020600089838151811061248557612485612e4d565b60200260200101516001600160a01b03166001600160a01b0316815260200190815260200160002054600014155b156124ea5760018382815181106124cc576124cc612e4d565b91151560209283029190910190910152816124e681612e63565b9250505b806124f481612e63565b9150506123b0565b50806000036125145750600098975050505050505050565b60006125208285612ec3565b905080156126f55760005b878110156126f35783818151811061254557612545612e4d565b6020026020010151156126e157606660008c815260200190815260200160002060008a838151811061257957612579612e4d565b60200260200101516001600160a01b03166001600160a01b031681526020019081526020016000205460001461263d5760405162461bcd60e51b815260206004820152605c60248201527f63616e74206469737472696275746520726577617264733a207468657265206960448201527f7320616c7265616479206120706f6f6c2072657761726420646566696e65642060648201527f666f7220746869732065706f636820616e642076616c696461746f7200000000608482015260a401611c6e565b60008b81526066602052604081208a518492908c908590811061266257612662612e4d565b6020908102919091018101516001600160a01b03168252810191909152604001600020556126908287612b19565b9550606560008a83815181106126a8576126a8612e4d565b6020908102919091018101516001600160a01b031682528181019290925260400160009081208054600181018255908252919020018b90555b806126eb81612e63565b91505061252b565b505b6126ff8587612eb0565b606755509298975050505050505050565b60008281526068602090815260408083206001600160a01b03851684529091529020541561273d57505050565b606f546040516307b9342f60e21b81526001600160a01b0383811660048301526000921690631ee4d0bc90602401602060405180830381865afa158015612788573d6000803e3d6000fd5b505050506040513d601f19601f820116820180604052508101906127ac9190612d3c565b604051632933f0eb60e11b81526001600160a01b038083166004830152919250600091861690635267e1d690602401602060405180830381865afa1580156127f8573d6000803e3d6000fd5b505050506040513d601f19601f8201168201806040525081019061281c9190612d59565b90508060000361282d575050505050565b60008481526068602090815260408083206001600160a01b038781168552925291829020839055905163a697ecff60e01b81528382166004820181905260248201529086169063a697ecff90604401602060405180830381865afa158015612899573d6000803e3d6000fd5b505050506040513d601f19601f820116820180604052508101906128bd9190612d59565b60009485526069602090815260408087206001600160a01b0390961687529490529290932091909155505050565b811580159061291c57506040516001600160a01b0382169083156108fc029084906000818181858888f19350505050155b15610fa557818160405161292f90612af7565b6001600160a01b0390911681526020016040518091039082f0905080158015611e9b573d6000803e3d6000fd5b6033546001600160a01b0316331461180f5760405162461bcd60e51b815260206004820181905260248201527f4f776e61626c653a2063616c6c6572206973206e6f7420746865206f776e65726044820152606401611c6e565b603380546001600160a01b0383811673ffffffffffffffffffffffffffffffffffffffff19831681179093556040519116919082907f8be0079c531659141344cd1fd0a4f28419497f9722a3daafe3b4186f6b6457e090600090a35050565b600054610100900460ff16612a805760405162461bcd60e51b815260206004820152602b60248201527f496e697469616c697a61626c653a20636f6e7472616374206973206e6f74206960448201526a6e697469616c697a696e6760a81b6064820152608401611c6e565b61180f600054610100900460ff16612aee5760405162461bcd60e51b815260206004820152602b60248201527f496e697469616c697a61626c653a20636f6e7472616374206973206e6f74206960448201526a6e697469616c697a696e6760a81b6064820152608401611c6e565b61180f336129b6565b605980612ee683390190565b634e487b7160e01b600052601160045260246000fd5b808201808211156113e5576113e5612b03565b80151581146120bc57600080fd5b600060208284031215612b4c57600080fd5b8135612b5781612b2c565b9392505050565b6001600160a01b03811681146120bc57600080fd5b60008060408385031215612b8657600080fd5b823591506020830135612b9881612b5e565b809150509250929050565b60008060408385031215612bb657600080fd5b8235612bc181612b5e565b91506020830135612b9881612b5e565b6020808252825182820181905260009190848201906040850190845b81811015612c0957835183529284019291840191600101612bed565b50909695505050505050565b600060208284031215612c2757600080fd5b8135612b5781612b5e565b600080600080600060a08688031215612c4a57600080fd5b505083359560208501359550604085013594606081013594506080013592509050565b60008060008060808587031215612c8357600080fd5b5050823594602084013594506040840135936060013592509050565b600080600060608486031215612cb457600080fd5b8335612cbf81612b5e565b92506020840135612ccf81612b5e565b91506040840135612cdf81612b5e565b809150509250925092565b600060208284031215612cfc57600080fd5b5035919050565b600080600060608486031215612d1857600080fd5b83359250602084013591506040840135612cdf81612b5e565b8051610f0281612b5e565b600060208284031215612d4e57600080fd5b8151612b5781612b5e565b600060208284031215612d6b57600080fd5b5051919050565b634e487b7160e01b600052604160045260246000fd5b60006020808385031215612d9b57600080fd5b825167ffffffffffffffff80821115612db357600080fd5b818501915085601f830112612dc757600080fd5b815181811115612dd957612dd9612d72565b8060051b604051601f19603f83011681018181108582111715612dfe57612dfe612d72565b604052918252848201925083810185019188831115612e1c57600080fd5b938501935b82851015612e4157612e3285612d31565b84529385019392850192612e21565b98975050505050505050565b634e487b7160e01b600052603260045260246000fd5b600060018201612e7557612e75612b03565b5060010190565b80820281158282048414176113e5576113e5612b03565b600060208284031215612ea557600080fd5b8151612b5781612b2c565b818103818111156113e5576113e5612b03565b600082612ee057634e487b7160e01b600052601260045260246000fd5b50049056fe608060405260405160593803806059833981016040819052601e91602a565b806001600160a01b0316ff5b600060208284031215603b57600080fd5b81516001600160a01b0381168114605157600080fd5b939250505056fea2646970667358221220ff2bbb56861ef93ff13c728ab9347e00574ecfee63dccefcddf273c5e6c8a23d64736f6c63430008110033",
  "linkReferences": {},
  "deployedLinkReferences": {}
}