{
  "_format": "hh-sol-artifact-1",
  "contractName": "BlockRewardHbbftMock",
  "sourceName": "contracts/mockContracts/BlockRewardHbbftMock.sol",
  "abi": [
    {
      "inputs": [],
      "name": "GetterCallFailed",
      "type": "error"
    },
    {
      "inputs": [],
      "name": "InsufficientBalance",
      "type": "error"
    },
    {
      "inputs": [],
      "name": "InvalidInitialization",
      "type": "error"
    },
    {
      "inputs": [
        {
          "internalType": "uint256",
          "name": "_newVal",
          "type": "uint256"
        }
      ],
      "name": "NewValueOutOfRange",
      "type": "error"
    },
    {
      "inputs": [],
      "name": "NotInitializing",
      "type": "error"
    },
    {
      "inputs": [
        {
          "internalType": "address",
          "name": "owner",
          "type": "address"
        }
      ],
      "name": "OwnableInvalidOwner",
      "type": "error"
    },
    {
      "inputs": [
        {
          "internalType": "address",
          "name": "account",
          "type": "address"
        }
      ],
      "name": "OwnableUnauthorizedAccount",
      "type": "error"
    },
    {
      "inputs": [],
      "name": "ReentrancyGuardReentrantCall",
      "type": "error"
    },
    {
      "inputs": [
        {
          "internalType": "address",
          "name": "recipient",
          "type": "address"
        },
        {
          "internalType": "uint256",
          "name": "amount",
          "type": "uint256"
        }
      ],
      "name": "TransferFailed",
      "type": "error"
    },
    {
      "inputs": [],
      "name": "Unauthorized",
      "type": "error"
    },
    {
      "inputs": [],
      "name": "ValidatorsListEmpty",
      "type": "error"
    },
    {
      "inputs": [],
      "name": "ZeroAddress",
      "type": "error"
    },
    {
      "inputs": [],
      "name": "ZeroPayoutFraction",
      "type": "error"
    },
    {
      "anonymous": false,
      "inputs": [
        {
          "indexed": false,
          "internalType": "uint256",
          "name": "rewards",
          "type": "uint256"
        }
      ],
      "name": "CoinsRewarded",
      "type": "event"
    },
    {
      "anonymous": false,
      "inputs": [
        {
          "indexed": false,
          "internalType": "uint64",
          "name": "version",
          "type": "uint64"
        }
      ],
      "name": "Initialized",
      "type": "event"
    },
    {
      "anonymous": false,
      "inputs": [
        {
          "indexed": true,
          "internalType": "address",
          "name": "previousOwner",
          "type": "address"
        },
        {
          "indexed": true,
          "internalType": "address",
          "name": "newOwner",
          "type": "address"
        }
      ],
      "name": "OwnershipTransferred",
      "type": "event"
    },
    {
      "anonymous": false,
      "inputs": [
        {
          "indexed": false,
          "internalType": "string",
          "name": "funcSelector",
          "type": "string"
        }
      ],
      "name": "RemoveChangeAbleParameter",
      "type": "event"
    },
    {
      "anonymous": false,
      "inputs": [
        {
          "indexed": false,
          "internalType": "string",
          "name": "setter",
          "type": "string"
        },
        {
          "indexed": false,
          "internalType": "string",
          "name": "getter",
          "type": "string"
        },
        {
          "indexed": false,
          "internalType": "uint256[]",
          "name": "params",
          "type": "uint256[]"
        }
      ],
      "name": "SetChangeAbleParameter",
      "type": "event"
    },
    {
      "anonymous": false,
      "inputs": [
        {
          "indexed": false,
          "internalType": "address",
          "name": "_connectivityTracker",
          "type": "address"
        }
      ],
      "name": "SetConnectivityTracker",
      "type": "event"
    },
    {
      "anonymous": false,
      "inputs": [
        {
          "indexed": false,
          "internalType": "uint256",
          "name": "_fraction",
          "type": "uint256"
        }
      ],
      "name": "SetDeltaPotPayoutFraction",
      "type": "event"
    },
    {
      "anonymous": false,
      "inputs": [
        {
          "indexed": false,
          "internalType": "uint256",
          "name": "_fraction",
          "type": "uint256"
        }
      ],
      "name": "SetReinsertPotPayoutFraction",
      "type": "event"
    },
    {
      "inputs": [],
      "name": "REWARD_PERCENT_MULTIPLIER",
      "outputs": [
        {
          "internalType": "uint256",
          "name": "",
          "type": "uint256"
        }
      ],
      "stateMutability": "view",
      "type": "function"
    },
    {
      "inputs": [],
      "name": "VALIDATOR_MIN_REWARD_PERCENT",
      "outputs": [
        {
          "internalType": "uint256",
          "name": "",
          "type": "uint256"
        }
      ],
      "stateMutability": "view",
      "type": "function"
    },
    {
      "inputs": [],
      "name": "addToDeltaPot",
      "outputs": [],
      "stateMutability": "payable",
      "type": "function"
    },
    {
      "inputs": [],
      "name": "addToReinsertPot",
      "outputs": [],
      "stateMutability": "payable",
      "type": "function"
    },
    {
      "inputs": [
        {
          "internalType": "bytes4",
          "name": "",
          "type": "bytes4"
        }
      ],
      "name": "allowedParameterRange",
      "outputs": [
        {
          "internalType": "bytes4",
          "name": "getter",
          "type": "bytes4"
        }
      ],
      "stateMutability": "view",
      "type": "function"
    },
    {
      "inputs": [],
      "name": "connectivityTracker",
      "outputs": [
        {
          "internalType": "contract IConnectivityTrackerHbbft",
          "name": "",
          "type": "address"
        }
      ],
      "stateMutability": "view",
      "type": "function"
    },
    {
      "inputs": [],
      "name": "deltaPot",
      "outputs": [
        {
          "internalType": "uint256",
          "name": "",
          "type": "uint256"
        }
      ],
      "stateMutability": "view",
      "type": "function"
    },
    {
      "inputs": [],
      "name": "deltaPotPayoutFraction",
      "outputs": [
        {
          "internalType": "uint256",
          "name": "",
          "type": "uint256"
        }
      ],
      "stateMutability": "view",
      "type": "function"
    },
    {
      "inputs": [],
      "name": "earlyEpochEnd",
      "outputs": [
        {
          "internalType": "bool",
          "name": "",
          "type": "bool"
        }
      ],
      "stateMutability": "view",
      "type": "function"
    },
    {
      "inputs": [],
      "name": "epochPercentage",
      "outputs": [
        {
          "internalType": "uint256",
          "name": "",
          "type": "uint256"
        }
      ],
      "stateMutability": "view",
      "type": "function"
    },
    {
      "inputs": [
        {
          "internalType": "uint256",
          "name": "",
          "type": "uint256"
        },
        {
          "internalType": "address",
          "name": "",
          "type": "address"
        }
      ],
      "name": "epochPoolNativeReward",
      "outputs": [
        {
          "internalType": "uint256",
          "name": "",
          "type": "uint256"
        }
      ],
      "stateMutability": "view",
      "type": "function"
    },
    {
      "inputs": [
        {
          "internalType": "address",
          "name": "_miningAddress",
          "type": "address"
        }
      ],
      "name": "epochsPoolGotRewardFor",
      "outputs": [
        {
          "internalType": "uint256[]",
          "name": "",
          "type": "uint256[]"
        }
      ],
      "stateMutability": "view",
      "type": "function"
    },
    {
      "inputs": [
        {
          "internalType": "string",
          "name": "_selector",
          "type": "string"
        }
      ],
      "name": "getAllowedParamsRange",
      "outputs": [
        {
          "components": [
            {
              "internalType": "bytes4",
              "name": "getter",
              "type": "bytes4"
            },
            {
              "internalType": "uint256[]",
              "name": "range",
              "type": "uint256[]"
            }
          ],
          "internalType": "struct ValueGuards.ParameterRange",
          "name": "",
          "type": "tuple"
        }
      ],
      "stateMutability": "view",
      "type": "function"
    },
    {
      "inputs": [
        {
          "internalType": "bytes4",
          "name": "_selector",
          "type": "bytes4"
        }
      ],
      "name": "getAllowedParamsRangeWithSelector",
      "outputs": [
        {
          "components": [
            {
              "internalType": "bytes4",
              "name": "getter",
              "type": "bytes4"
            },
            {
              "internalType": "uint256[]",
              "name": "range",
              "type": "uint256[]"
            }
          ],
          "internalType": "struct ValueGuards.ParameterRange",
          "name": "",
          "type": "tuple"
        }
      ],
      "stateMutability": "view",
      "type": "function"
    },
    {
      "inputs": [],
      "name": "getGovernanceAddress",
      "outputs": [
        {
          "internalType": "address",
          "name": "",
          "type": "address"
        }
      ],
      "stateMutability": "view",
      "type": "function"
    },
    {
      "inputs": [
        {
          "internalType": "uint256",
          "name": "numValidators",
          "type": "uint256"
        }
      ],
      "name": "getPotsShares",
      "outputs": [
        {
          "components": [
            {
              "internalType": "uint256",
              "name": "deltaPotAmount",
              "type": "uint256"
            },
            {
              "internalType": "uint256",
              "name": "reinsertPotAmount",
              "type": "uint256"
            },
            {
              "internalType": "uint256",
              "name": "governancePotAmount",
              "type": "uint256"
            },
            {
              "internalType": "uint256",
              "name": "totalRewards",
              "type": "uint256"
            }
          ],
          "internalType": "struct BlockRewardHbbft.PotsShares",
          "name": "",
          "type": "tuple"
        }
      ],
      "stateMutability": "view",
      "type": "function"
    },
    {
      "inputs": [],
      "name": "governancePotAddress",
      "outputs": [
        {
          "internalType": "address payable",
          "name": "",
          "type": "address"
        }
      ],
      "stateMutability": "view",
      "type": "function"
    },
    {
      "inputs": [],
      "name": "governancePotShareDenominator",
      "outputs": [
        {
          "internalType": "uint256",
          "name": "",
          "type": "uint256"
        }
      ],
      "stateMutability": "view",
      "type": "function"
    },
    {
      "inputs": [],
      "name": "governancePotShareNominator",
      "outputs": [
        {
          "internalType": "uint256",
          "name": "",
          "type": "uint256"
        }
      ],
      "stateMutability": "view",
      "type": "function"
    },
    {
      "inputs": [
        {
          "internalType": "string",
          "name": "setter",
          "type": "string"
        },
        {
          "internalType": "string",
          "name": "getter",
          "type": "string"
        },
        {
          "internalType": "uint256[]",
          "name": "params",
          "type": "uint256[]"
        }
      ],
      "name": "initAllowedChangeableParameter",
      "outputs": [],
      "stateMutability": "nonpayable",
      "type": "function"
    },
    {
      "inputs": [
        {
          "internalType": "address",
          "name": "_contractOwner",
          "type": "address"
        },
        {
          "internalType": "address",
          "name": "_validatorSet",
          "type": "address"
        },
        {
          "internalType": "address",
          "name": "_connectivityTracker",
          "type": "address"
        }
      ],
      "name": "initialize",
      "outputs": [],
      "stateMutability": "nonpayable",
      "type": "function"
    },
    {
      "inputs": [
        {
          "internalType": "bytes4",
          "name": "funcSelector",
          "type": "bytes4"
        },
        {
          "internalType": "uint256",
          "name": "newVal",
          "type": "uint256"
        }
      ],
      "name": "isWithinAllowedRange",
      "outputs": [
        {
          "internalType": "bool",
          "name": "",
          "type": "bool"
        }
      ],
      "stateMutability": "view",
      "type": "function"
    },
    {
      "inputs": [],
      "name": "nativeRewardUndistributed",
      "outputs": [
        {
          "internalType": "uint256",
          "name": "",
          "type": "uint256"
        }
      ],
      "stateMutability": "view",
      "type": "function"
    },
    {
      "inputs": [],
      "name": "notifyEarlyEpochEnd",
      "outputs": [],
      "stateMutability": "nonpayable",
      "type": "function"
    },
    {
      "inputs": [],
      "name": "owner",
      "outputs": [
        {
          "internalType": "address",
          "name": "",
          "type": "address"
        }
      ],
      "stateMutability": "view",
      "type": "function"
    },
    {
      "inputs": [],
      "name": "reinsertPot",
      "outputs": [
        {
          "internalType": "uint256",
          "name": "",
          "type": "uint256"
        }
      ],
      "stateMutability": "view",
      "type": "function"
    },
    {
      "inputs": [],
      "name": "reinsertPotPayoutFraction",
      "outputs": [
        {
          "internalType": "uint256",
          "name": "",
          "type": "uint256"
        }
      ],
      "stateMutability": "view",
      "type": "function"
    },
    {
      "inputs": [
        {
          "internalType": "string",
          "name": "funcSelector",
          "type": "string"
        }
      ],
      "name": "removeAllowedChangeableParameter",
      "outputs": [],
      "stateMutability": "nonpayable",
      "type": "function"
    },
    {
      "inputs": [],
      "name": "renounceOwnership",
      "outputs": [],
      "stateMutability": "nonpayable",
      "type": "function"
    },
    {
      "inputs": [
        {
          "internalType": "bool",
          "name": "_isEpochEndBlock",
          "type": "bool"
        }
      ],
      "name": "reward",
      "outputs": [
        {
          "internalType": "uint256",
          "name": "rewardsNative",
          "type": "uint256"
        }
      ],
      "stateMutability": "nonpayable",
      "type": "function"
    },
    {
      "inputs": [],
      "name": "sendCoins",
      "outputs": [],
      "stateMutability": "payable",
      "type": "function"
    },
    {
      "inputs": [
        {
          "internalType": "string",
          "name": "setter",
          "type": "string"
        },
        {
          "internalType": "string",
          "name": "getter",
          "type": "string"
        },
        {
          "internalType": "uint256[]",
          "name": "params",
          "type": "uint256[]"
        }
      ],
      "name": "setAllowedChangeableParameter",
      "outputs": [],
      "stateMutability": "nonpayable",
      "type": "function"
    },
    {
      "inputs": [
        {
          "internalType": "address",
          "name": "_connectivityTracker",
          "type": "address"
        }
      ],
      "name": "setConnectivityTracker",
      "outputs": [],
      "stateMutability": "nonpayable",
      "type": "function"
    },
    {
      "inputs": [
        {
          "internalType": "address",
          "name": "_address",
          "type": "address"
        }
      ],
      "name": "setGovernanceAddress",
      "outputs": [],
      "stateMutability": "nonpayable",
      "type": "function"
    },
    {
      "inputs": [
        {
          "internalType": "uint256",
          "name": "_shareNominator",
          "type": "uint256"
        }
      ],
      "name": "setGovernancePotShareNominator",
      "outputs": [],
      "stateMutability": "nonpayable",
      "type": "function"
    },
    {
      "inputs": [
        {
          "internalType": "uint256",
          "name": "_value",
          "type": "uint256"
        }
      ],
      "name": "setReinsertPotPayoutFraction",
      "outputs": [],
      "stateMutability": "nonpayable",
      "type": "function"
    },
    {
      "inputs": [
        {
          "internalType": "uint256",
          "name": "_stakingEpoch",
          "type": "uint256"
        },
        {
          "internalType": "uint256",
          "name": "_percent",
          "type": "uint256"
        }
      ],
      "name": "setValidatorMinRewardPercent",
      "outputs": [],
      "stateMutability": "nonpayable",
      "type": "function"
    },
    {
      "inputs": [
        {
          "internalType": "uint256",
          "name": "_value",
          "type": "uint256"
        }
      ],
      "name": "setdeltaPotPayoutFraction",
      "outputs": [],
      "stateMutability": "nonpayable",
      "type": "function"
    },
    {
      "inputs": [
        {
          "internalType": "address",
          "name": "newOwner",
          "type": "address"
        }
      ],
      "name": "transferOwnership",
      "outputs": [],
      "stateMutability": "nonpayable",
      "type": "function"
    },
    {
      "inputs": [
        {
          "internalType": "uint256",
          "name": "",
          "type": "uint256"
        }
      ],
      "name": "validatorMinRewardPercent",
      "outputs": [
        {
          "internalType": "uint256",
          "name": "",
          "type": "uint256"
        }
      ],
      "stateMutability": "view",
      "type": "function"
    },
    {
      "inputs": [],
      "name": "validatorSetContract",
      "outputs": [
        {
          "internalType": "contract IValidatorSetHbbft",
          "name": "",
          "type": "address"
        }
      ],
      "stateMutability": "view",
      "type": "function"
    },
    {
      "stateMutability": "payable",
      "type": "receive"
    }
  ],
  "bytecode": "0x6080604052348015600f57600080fd5b506016601a565b60ca565b7ff0c57e16840df040f15088dc2f81fe391c3923bec73e23a9662efc9c229c6a00805468010000000000000000900460ff161560695760405163f92ee8a960e01b815260040160405180910390fd5b80546001600160401b039081161460c75780546001600160401b0319166001600160401b0390811782556040519081527fc7f505b2f371ae2175ee4913f4499e1f2633a7b5936321eed1cdaeb6115181d29060200160405180910390a15b50565b612f51806100d96000396000f3fe6080604052600436106102c95760003560e01c80639740f48d11610179578063c0c53b8b116100d6578063d0899cb41161008a578063e58edc3811610064578063e58edc3814610829578063f2fde38b14610840578063f302163d146103db57600080fd5b8063d0899cb4146107af578063dd03f5b9146107dc578063dfc8bf4e1461080957600080fd5b8063cb68d127116100bb578063cb68d12714610725578063cdf7a09014610745578063cfc162541461077257600080fd5b8063c0c53b8b146106e5578063c6cc93331461070557600080fd5b8063af1825351161012d578063b710c15d11610112578063b710c15d14610678578063ba08d237146106a5578063bf348f86146106c557600080fd5b8063af18253514610668578063b10c75481461067057600080fd5b80639b9fb6d01161015e5780639b9fb6d01461061d578063a59546e21461063d578063adc481a71461065257600080fd5b80639740f48d146105e75780639a64ca2c1461060757600080fd5b80635cbc1a6f1161022757806373f12958116101db5780638da5cb5b116101c05780638da5cb5b1461054b57806391b5798614610588578063922836341461059e57600080fd5b806373f129581461051557806378ff69d51461052b57600080fd5b8063674a72141161020c578063674a7214146104b1578063715018a6146104e257806373252494146104f757600080fd5b80635cbc1a6f1461043e578063669554691461049157600080fd5b806336e98ca81161027e578063596208721161026357806359620872146103f35780635c57a801146104085780635cb092a21461041e57600080fd5b806336e98ca8146103bb5780633c2c943c146103dd57600080fd5b80631274fa09116102af5780631274fa091461033557806319cee8971461034b57806333d699211461038357600080fd5b8062067a84146102ed5780630c0d41731461032057600080fd5b366102e85734600760008282546102e09190612897565b925050819055005b600080fd5b3480156102f957600080fd5b5061030d6103083660046128aa565b610860565b6040519081526020015b60405180910390f35b34801561032c57600080fd5b5061030d601e81565b34801561034157600080fd5b5061030d60085481565b34801561035757600080fd5b50600a5461036b906001600160a01b031681565b6040516001600160a01b039091168152602001610317565b34801561038f57600080fd5b5061030d61039e3660046128e8565b600260209081526000928352604080842090915290825290205481565b3480156103c757600080fd5b506103db6103d63660046129f3565b6109b0565b005b3480156103e957600080fd5b5061030d600c5481565b3480156103ff57600080fd5b506103db610a64565b34801561041457600080fd5b5061030d60055481565b34801561042a57600080fd5b506103db6104393660046129f3565b610aa3565b34801561044a57600080fd5b5061045e610459366004612ad6565b610aab565b60405161031791908151815260208083015190820152604080830151908201526060918201519181019190915260800190565b34801561049d57600080fd5b50600d5461036b906001600160a01b031681565b3480156104bd57600080fd5b50600d546104d290600160a01b900460ff1681565b6040519015158152602001610317565b3480156104ee57600080fd5b506103db610ae5565b34801561050357600080fd5b50600a546001600160a01b031661036b565b34801561052157600080fd5b5061030d60075481565b34801561053757600080fd5b506103db610546366004612aef565b610af9565b34801561055757600080fd5b507f9016d09d72d40fdae2fd8ceac6b6234c7706214fd39c1cd1e609a0528c199300546001600160a01b031661036b565b34801561059457600080fd5b5061030d600b5481565b3480156105aa57600080fd5b506105ce6105b9366004612b24565b60006020819052908152604090205460e01b81565b6040516001600160e01b03199091168152602001610317565b3480156105f357600080fd5b506103db610602366004612ad6565b610b7d565b34801561061357600080fd5b5061030d60065481565b34801561062957600080fd5b506103db610638366004612b3f565b610bc7565b34801561064957600080fd5b5061030d610c3b565b34801561065e57600080fd5b5061030d60035481565b6103db610e82565b6103db610e9b565b34801561068457600080fd5b50610698610693366004612b3f565b610ead565b6040516103179190612b7c565b3480156106b157600080fd5b506104d26106c0366004612bde565b610f55565b3480156106d157600080fd5b506106986106e0366004612b24565b611124565b3480156106f157600080fd5b506103db610700366004612c08565b6111c1565b34801561071157600080fd5b506103db610720366004612ad6565b61146d565b34801561073157600080fd5b506103db610740366004612ad6565b6114e4565b34801561075157600080fd5b5061030d610760366004612ad6565b60046020526000908152604090205481565b34801561077e57600080fd5b506103db61078d366004612aef565b600a80546001600160a01b0319166001600160a01b0392909216919091179055565b3480156107bb57600080fd5b506103db6107ca366004612c53565b60009182526004602052604090912055565b3480156107e857600080fd5b506107fc6107f7366004612aef565b61155b565b6040516103179190612cb1565b34801561081557600080fd5b5060095461036b906001600160a01b031681565b34801561083557600080fd5b5061030d620f424081565b34801561084c57600080fd5b506103db61085b366004612aef565b6115c7565b60003373fffffffffffffffffffffffffffffffffffffffe14610895576040516282b42960e81b815260040160405180910390fd5b61089d611605565b6009546040805163239a373960e21b815290516000926001600160a01b031691638e68dce49160048083019260209291908290030181865afa1580156108e7573d6000803e3d6000fd5b505050506040513d601f19601f8201168201806040525081019061090b9190612cc4565b905082806109225750600d54600160a01b900460ff165b15610978576109308161164f565b600d805460ff60a01b191690556040518181529092507ff32b9551d3414b67f8e66e20ac15e62694b9d1230abb2e2e48f9dc2e1964c4299060200160405180910390a1610981565b610981816118c1565b506109ab60017f9b779b17422d0df92223018b32b4d1fa46e071723d6817e2486d003becc55f0055565b919050565b6109b8611d82565b60408051808201825283516020808601919091206001600160e01b031990811683528183018581528751888401209091166000908152808352939093208251815463ffffffff191660e09190911c17815592518051929392610a209260018501920190612807565b509050507f3d45a310c5a076ea07aa2947ca3c06cc2a8b3571065867ad6f8e7096a2c9d50a838383604051610a5793929190612d31565b60405180910390a1505050565b600d546001600160a01b03163314610a8e576040516282b42960e81b815260040160405180910390fd5b600d805460ff60a01b1916600160a01b179055565b6109b8611ddd565b610ad66040518060800160405280600081526020016000815260200160008152602001600081525090565b610adf82611e2b565b92915050565b610aed611d82565b610af76000611fca565b565b610b01611d82565b6001600160a01b038116610b285760405163d92e233d60e01b815260040160405180910390fd5b600d80546001600160a01b0319166001600160a01b0383169081179091556040519081527f387d29e18823e432432b6098ebeee33beebdb128d2234c7f486c26447b738edd906020015b60405180910390a150565b610b85611d82565b80610b9c6000356001600160e01b03191682610f55565b610bc1576040516373330d9b60e01b8152600481018290526024015b60405180910390fd5b50600b55565b610bcf611d82565b80516020808301919091206001600160e01b03191660009081529081905260408120805463ffffffff1916815590610c0a6001830182612852565b50507f92d44565a40fe29702ffa146ddaa3bb133d4077f5312d682d0a2632a9bc73a8a81604051610b729190612d74565b600080600960009054906101000a90046001600160a01b03166001600160a01b0316638e68dce46040518163ffffffff1660e01b8152600401602060405180830381865afa158015610c91573d6000803e3d6000fd5b505050506040513d601f19601f82011682018060405250810190610cb59190612cc4565b90506000816001600160a01b0316639b03d7446040518163ffffffff1660e01b8152600401602060405180830381865afa158015610cf7573d6000803e3d6000fd5b505050506040513d601f19601f82011682018060405250810190610d1b9190612d87565b826001600160a01b03166322e3d9866040518163ffffffff1660e01b8152600401602060405180830381865afa158015610d59573d6000803e3d6000fd5b505050506040513d601f19601f82011682018060405250810190610d7d9190612d87565b610d879190612da0565b9050816001600160a01b03166322e3d9866040518163ffffffff1660e01b8152600401602060405180830381865afa158015610dc7573d6000803e3d6000fd5b505050506040513d601f19601f82011682018060405250810190610deb9190612d87565b4211610e785780826001600160a01b0316639b03d7446040518163ffffffff1660e01b8152600401602060405180830381865afa158015610e30573d6000803e3d6000fd5b505050506040513d601f19601f82011682018060405250810190610e549190612d87565b610e5e9042612da0565b610e69906064612db3565b610e739190612dca565b610e7b565b60645b9250505090565b3460076000828254610e949190612897565b9091555050565b3460056000828254610e949190612897565b60408051808201909152600081526060602082015281516020808401919091206001600160e01b0319908116600090815280835260409081902081518083018352815460e01b9093168352600181018054835181870281018701909452808452939491938583019392830182828015610f4557602002820191906000526020600020905b815481526020019060010190808311610f31575b5050505050815250509050919050565b6001600160e01b031980831660009081526020818152604080832081518083018352815460e01b909516855260018101805483518186028101860190945280845294958695909492938584019390929190830182828015610fd557602002820191906000526020600020905b815481526020019060010190808311610fc1575b5050505050815250509050806020015151600003610ff7576000915050610adf565b6020810151815160009061100a9061203b565b905060005b8251811015611117578183828151811061102b5761102b612dec565b60200260200101510361110f576000808211611061578360008151811061105457611054612dec565b6020026020010151611086565b8361106d600184612da0565b8151811061107d5761107d612dec565b60200260200101515b90506000600185516110989190612da0565b83106110ca5784600186516110ad9190612da0565b815181106110bd576110bd612dec565b60200260200101516110ef565b846110d6846001612897565b815181106110e6576110e6612dec565b60200260200101515b90508188141580156111015750808814155b159650505050505050610adf565b60010161100f565b5060009695505050505050565b6040805180820190915260008152606060208201526001600160e01b03198083166000908152602081815260409182902082518084018452815460e01b9094168452600181018054845181850281018501909552808552919385840193909290830182828015610f455760200282019190600052602060002090815481526020019060010190808311610f31575050505050815250509050919050565b7ff0c57e16840df040f15088dc2f81fe391c3923bec73e23a9662efc9c229c6a00805468010000000000000000810460ff16159067ffffffffffffffff1660008115801561120c5750825b905060008267ffffffffffffffff1660011480156112295750303b155b905081158015611237575080155b156112555760405163f92ee8a960e01b815260040160405180910390fd5b845467ffffffffffffffff19166001178555831561128957845468ff00000000000000001916680100000000000000001785555b6001600160a01b03881615806112a657506001600160a01b038716155b806112b857506001600160a01b038616155b156112d65760405163d92e233d60e01b815260040160405180910390fd5b6112df88612112565b6112e7612123565b600980546001600160a01b038981166001600160a01b031992831617909255600d805492891692821692909217909155600080805260046020908152601e7f17ef568e3e12ab5b9c7254a8d58478811de00f9e6eb34345acd53bf8fd09d3ec556117706006819055600855600a805490931673da0da0da0da0da0da0da00da0da0da0da0da0da01783556001600b908155600c9390935560408051848152610180810190915291929082016101608036833701905050905060005b81518110156113db576113b681600a612897565b8282815181106113c8576113c8612dec565b60209081029190910101526001016113a2565b50611417604051806060016040528060278152602001612ed260279139604051806060016040528060238152602001612ef96023913983610aa3565b50831561146357845468ff000000000000000019168555604051600181527fc7f505b2f371ae2175ee4913f4499e1f2633a7b5936321eed1cdaeb6115181d29060200160405180910390a15b5050505050505050565b611475611d82565b806000036114af576040517fffcfec8400000000000000000000000000000000000000000000000000000000815260040160405180910390fd5b60088190556040518181527fb914176cecdd5906f3fd1eb6fcf471c39b33cdc7142a1d8c494487c31ff40f8890602001610b72565b6114ec611d82565b80600003611526576040517fffcfec8400000000000000000000000000000000000000000000000000000000815260040160405180910390fd5b60068190556040518181527f8ce02935a391d407d8b483203a4f3cd8465b62a45c7274471113a192f111eda090602001610b72565b6001600160a01b0381166000908152600160209081526040918290208054835181840281018401909452808452606093928301828280156115bb57602002820191906000526020600020905b8154815260200190600101908083116115a7575b50505050509050919050565b6115cf611d82565b6001600160a01b0381166115f957604051631e4fbdf760e01b815260006004820152602401610bb8565b61160281611fca565b50565b7f9b779b17422d0df92223018b32b4d1fa46e071723d6817e2486d003becc55f0080546001190161164957604051633ee5aeb560e01b815260040160405180910390fd5b60029055565b600080826001600160a01b031663794c0c686040518163ffffffff1660e01b8152600401602060405180830381865afa158015611690573d6000803e3d6000fd5b505050506040513d601f19601f820116820180604052508101906116b49190612d87565b600d5460405163245f8d5360e11b8152600481018390529192506001600160a01b0316906348bf1aa690602401600060405180830381600087803b1580156116fb57600080fd5b505af115801561170f573d6000803e3d6000fd5b5050505060008160001461172a576117278285612133565b90505b6000611737836001612897565b90506060600960009054906101000a90046001600160a01b03166001600160a01b031663eebc7a396040518163ffffffff1660e01b8152600401600060405180830381865afa15801561178e573d6000803e3d6000fd5b505050506040513d6000823e601f3d908101601f191682016040526117b69190810190612e02565b90506117c3868383612463565b600960009054906101000a90046001600160a01b03166001600160a01b031663b7ab4db56040518163ffffffff1660e01b8152600401600060405180830381865afa158015611816573d6000803e3d6000fd5b505050506040513d6000823e601f3d908101601f1916820160405261183e9190810190612e02565b905061184b868383612463565b6000828152600460208190526040808320601e90556009548151637528621160e01b815291516001600160a01b03909116936375286211938381019391929182900301818387803b15801561189f57600080fd5b505af11580156118b3573d6000803e3d6000fd5b509498975050505050505050565b6000816001600160a01b031663c6912cc06040518163ffffffff1660e01b8152600401602060405180830381865afa158015611901573d6000803e3d6000fd5b505050506040513d601f19601f820116820180604052508101906119259190612d87565b90506000600960009054906101000a90046001600160a01b03166001600160a01b031663b7ab4db56040518163ffffffff1660e01b8152600401600060405180830381865afa15801561197c573d6000803e3d6000fd5b505050506040513d6000823e601f3d908101601f191682016040526119a49190810190612e02565b60095460408051630456292b60e11b8152905192935042851115926000926001600160a01b0316916308ac52569160048083019260209291908290030181865afa1580156119f6573d6000803e3d6000fd5b505050506040513d601f19601f82011682018060405250810190611a1a9190612d87565b611a25906002612db3565b8351611a32906003612db3565b11611b2a576000856001600160a01b031663a5d54f656040518163ffffffff1660e01b8152600401600060405180830381865afa158015611a77573d6000803e3d6000fd5b505050506040513d6000823e601f3d908101601f19168201604052611a9f9190810190612e02565b519050600081118015611b1e5750835160095460405163efd0494760e01b8152600481018490526001600160a01b039091169063efd0494790602401602060405180830381865afa158015611af8573d6000803e3d6000fd5b505050506040513d601f19601f82011682018060405250810190611b1c9190612d87565b115b15611b2857600191505b505b8180611b335750805b8015611bb85750600960009054906101000a90046001600160a01b03166001600160a01b031663eebc7a396040518163ffffffff1660e01b8152600401600060405180830381865afa158015611b8d573d6000803e3d6000fd5b505050506040513d6000823e601f3d908101601f19168201604052611bb59190810190612e02565b51155b15611c2a57600960009054906101000a90046001600160a01b03166001600160a01b0316635ccee1de6040518163ffffffff1660e01b8152600401600060405180830381600087803b158015611c0d57600080fd5b505af1158015611c21573d6000803e3d6000fd5b50505050611cfb565b846001600160a01b03166322e3d9866040518163ffffffff1660e01b8152600401602060405180830381865afa158015611c68573d6000803e3d6000fd5b505050506040513d601f19601f82011682018060405250810190611c8c9190612d87565b4210611cfb57600960009054906101000a90046001600160a01b03166001600160a01b031663ade1900a6040518163ffffffff1660e01b8152600401600060405180830381600087803b158015611ce257600080fd5b505af1158015611cf6573d6000803e3d6000fd5b505050505b600a546040805163ab0eb62d60e01b815290516001600160a01b0390921691829163ab0eb62d91600480830192600092919082900301818387803b158015611d4257600080fd5b505af1925050508015611d53575060015b50505050505050565b60017f9b779b17422d0df92223018b32b4d1fa46e071723d6817e2486d003becc55f0055565b33611db47f9016d09d72d40fdae2fd8ceac6b6234c7706214fd39c1cd1e609a0528c199300546001600160a01b031690565b6001600160a01b031614610af75760405163118cdaa760e01b8152336004820152602401610bb8565b7ff0c57e16840df040f15088dc2f81fe391c3923bec73e23a9662efc9c229c6a005468010000000000000000900460ff16610af757604051631afcd79f60e31b815260040160405180910390fd5b611e566040518060800160405280600081526020016000815260200160008152602001600081525090565b60095460408051630456292b60e11b815290516000926001600160a01b0316916308ac52569160048083019260209291908290030181865afa158015611ea0573d6000803e3d6000fd5b505050506040513d601f19601f82011682018060405250810190611ec49190612d87565b90506000611ed0610c3b565b905060006040518060800160405280600081526020016000815260200160008152602001600081525090506064836006548488600554611f109190612db3565b611f1a9190612db3565b611f249190612dca565b611f2e9190612dca565b611f389190612dca565b815260085460075460649185918590611f52908a90612db3565b611f5c9190612db3565b611f669190612dca565b611f709190612dca565b611f7a9190612dca565b602082018190528151600354611f909190612897565b611f9a9190612897565b60608201819052600c54600b549091611fb39190612db3565b611fbd9190612dca565b6040820152949350505050565b7f9016d09d72d40fdae2fd8ceac6b6234c7706214fd39c1cd1e609a0528c19930080546001600160a01b031981166001600160a01b03848116918217845560405192169182907f8be0079c531659141344cd1fd0a4f28419497f9722a3daafe3b4186f6b6457e090600090a3505050565b60408051600481526024810182526020810180517bffffffffffffffffffffffffffffffffffffffffffffffffffffffff166001600160e01b03198516179052905160009190829081903090612092908590612e9c565b600060405180830381855afa9150503d80600081146120cd576040519150601f19603f3d011682016040523d82523d6000602084013e6120d2565b606091505b5091509150816120f557604051635fbab09b60e11b815260040160405180910390fd5b808060200190518101906121099190612d87565b95945050505050565b61211a611ddd565b61160281612585565b61212b611ddd565b610af761258d565b600080600960009054906101000a90046001600160a01b03166001600160a01b031663b7ab4db56040518163ffffffff1660e01b8152600401600060405180830381865afa158015612189573d6000803e3d6000fd5b505050506040513d6000823e601f3d908101601f191682016040526121b19190810190612e02565b805190915060008190036121d8576040516322b8b72360e21b815260040160405180910390fd5b60006121e382611e2b565b90508060000151600560008282546121fb9190612da0565b9091555050602081015160078054600090612217908490612da0565b909155505060608101516000036122345760009350505050610adf565b600a54604082015161224f916001600160a01b031690612595565b60408101516060820151600090612267908390612da0565b9050600080612277898b89612641565b9150915081600003612293576000975050505050505050610adf565b600061229f8385612dca565b60008c81526004602052604090205490915081156124405760005b8881101561243e578381815181106122d4576122d4612dec565b6020026020010151156124365760008a82815181106122f5576122f5612dec565b60209081029190910101516009546040516307b9342f60e21b81526001600160a01b03808416600483015292935060009290911690631ee4d0bc90602401602060405180830381865afa158015612350573d6000803e3d6000fd5b505050506040513d601f19601f820116820180604052508101906123749190612cc4565b90506123c18f83876001600160a01b039091166000818152600160208181526040808420805493840181558452818420909201869055948252600285528082209282529190935290912055565b604051633f3afe0160e01b81526001600160a01b038281166004830152602482018690528f1690633f3afe019087906044016000604051808303818588803b15801561240c57600080fd5b505af1158015612420573d6000803e3d6000fd5b505050505084896124319190612897565b985050505b6001016122ba565b505b8587606001516124509190612da0565b60035550939a9950505050505050505050565b60005b815181101561257f5760095482516000916001600160a01b031690631ee4d0bc9085908590811061249957612499612dec565b60200260200101516040518263ffffffff1660e01b81526004016124cc91906001600160a01b0391909116815260200190565b602060405180830381865afa1580156124e9573d6000803e3d6000fd5b505050506040513d601f19601f8201168201806040525081019061250d9190612cc4565b6040516368563b7b60e11b8152600481018690526001600160a01b0380831660248301529192509086169063d0ac76f690604401600060405180830381600087803b15801561255b57600080fd5b505af115801561256f573d6000803e3d6000fd5b5050505050806001019050612466565b50505050565b6115cf611ddd565b611d5c611ddd565b804710156125b657604051631e9acf1760e31b815260040160405180910390fd5b6000826001600160a01b03168260405160006040518083038185875af1925050503d8060008114612603576040519150601f19603f3d011682016040523d82523d6000602084013e612608565b606091505b505090508061263c57604051630e21dcbb60e11b81526001600160a01b038416600482015260248101839052604401610bb8565b505050565b600060606000835167ffffffffffffffff81111561266157612661612918565b60405190808252806020026020018201604052801561268a578160200160208202803683370190505b5090506000805b85518110156127fb5760095486516000916001600160a01b03808c1692635b4eafe0928c921690631ee4d0bc908c90889081106126d0576126d0612dec565b60200260200101516040518263ffffffff1660e01b815260040161270391906001600160a01b0391909116815260200190565b602060405180830381865afa158015612720573d6000803e3d6000fd5b505050506040513d601f19601f820116820180604052508101906127449190612cc4565b6040516001600160e01b031960e085901b16815260048101929092526001600160a01b03166024820152604401602060405180830381865afa15801561278e573d6000803e3d6000fd5b505050506040513d601f19601f820116820180604052508101906127b29190612d87565b9050806000036127c257506127f3565b60018483815181106127d6576127d6612dec565b911515602092830291909101909101526127ef83612eb8565b9250505b600101612691565b50969095509350505050565b828054828255906000526020600020908101928215612842579160200282015b82811115612842578251825591602001919060010190612827565b5061284e92915061286c565b5090565b508054600082559060005260206000209081019061160291905b5b8082111561284e576000815560010161286d565b634e487b7160e01b600052601160045260246000fd5b80820180821115610adf57610adf612881565b6000602082840312156128bc57600080fd5b813580151581146128cc57600080fd5b9392505050565b6001600160a01b038116811461160257600080fd5b600080604083850312156128fb57600080fd5b82359150602083013561290d816128d3565b809150509250929050565b634e487b7160e01b600052604160045260246000fd5b604051601f8201601f1916810167ffffffffffffffff8111828210171561295757612957612918565b604052919050565b600082601f83011261297057600080fd5b813567ffffffffffffffff81111561298a5761298a612918565b61299d601f8201601f191660200161292e565b8181528460208386010111156129b257600080fd5b816020850160208301376000918101602001919091529392505050565b600067ffffffffffffffff8211156129e9576129e9612918565b5060051b60200190565b600080600060608486031215612a0857600080fd5b833567ffffffffffffffff80821115612a2057600080fd5b612a2c8783880161295f565b9450602091508186013581811115612a4357600080fd5b612a4f8882890161295f565b945050604086013581811115612a6457600080fd5b86019050601f81018713612a7757600080fd5b8035612a8a612a85826129cf565b61292e565b81815260059190911b82018301908381019089831115612aa957600080fd5b928401925b82841015612ac757833582529284019290840190612aae565b80955050505050509250925092565b600060208284031215612ae857600080fd5b5035919050565b600060208284031215612b0157600080fd5b81356128cc816128d3565b80356001600160e01b0319811681146109ab57600080fd5b600060208284031215612b3657600080fd5b6128cc82612b0c565b600060208284031215612b5157600080fd5b813567ffffffffffffffff811115612b6857600080fd5b612b748482850161295f565b949350505050565b602080825282516001600160e01b031916828201528281015160408084015280516060840181905260009291820190839060808601905b80831015612bd35783518252928401926001929092019190840190612bb3565b509695505050505050565b60008060408385031215612bf157600080fd5b612bfa83612b0c565b946020939093013593505050565b600080600060608486031215612c1d57600080fd5b8335612c28816128d3565b92506020840135612c38816128d3565b91506040840135612c48816128d3565b809150509250925092565b60008060408385031215612c6657600080fd5b50508035926020909101359150565b60008151808452602080850194506020840160005b83811015612ca657815187529582019590820190600101612c8a565b509495945050505050565b6020815260006128cc6020830184612c75565b600060208284031215612cd657600080fd5b81516128cc816128d3565b60005b83811015612cfc578181015183820152602001612ce4565b50506000910152565b60008151808452612d1d816020860160208601612ce1565b601f01601f19169290920160200192915050565b606081526000612d446060830186612d05565b8281036020840152612d568186612d05565b90508281036040840152612d6a8185612c75565b9695505050505050565b6020815260006128cc6020830184612d05565b600060208284031215612d9957600080fd5b5051919050565b81810381811115610adf57610adf612881565b8082028115828204841417610adf57610adf612881565b600082612de757634e487b7160e01b600052601260045260246000fd5b500490565b634e487b7160e01b600052603260045260246000fd5b60006020808385031215612e1557600080fd5b825167ffffffffffffffff811115612e2c57600080fd5b8301601f81018513612e3d57600080fd5b8051612e4b612a85826129cf565b81815260059190911b82018301908381019087831115612e6a57600080fd5b928401925b82841015612e91578351612e82816128d3565b82529284019290840190612e6f565b979650505050505050565b60008251612eae818460208701612ce1565b9190910192915050565b600060018201612eca57612eca612881565b506001019056fe736574476f7665726e616e6365506f7453686172654e6f6d696e61746f722875696e7432353629676f7665726e616e6365506f7453686172654e6f6d696e61746f72506172616d732829a26469706673582212201f94fe8ab624d7c26519e619497f0f5027ec087ce486464119333f1559f6c0cd64736f6c63430008190033",
  "linkReferences": {},
  "deployedLinkReferences": {}
}