{
  "_format": "hh-sol-artifact-1",
  "contractName": "BonusScoreSystem",
  "sourceName": "contracts/BonusScoreSystem.sol",
  "abi": [
    {
      "inputs": [],
      "name": "InvalidInitialization",
      "type": "error"
    },
    {
      "inputs": [],
      "name": "InvalidIntervalStartTimestamp",
      "type": "error"
    },
    {
      "inputs": [],
      "name": "InvalidScoringFactor",
      "type": "error"
    },
    {
      "inputs": [],
      "name": "NotInitializing",
      "type": "error"
    },
    {
      "inputs": [
        {
          "internalType": "address",
          "name": "owner",
          "type": "address"
        }
      ],
      "name": "OwnableInvalidOwner",
      "type": "error"
    },
    {
      "inputs": [
        {
          "internalType": "address",
          "name": "account",
          "type": "address"
        }
      ],
      "name": "OwnableUnauthorizedAccount",
      "type": "error"
    },
    {
      "inputs": [],
      "name": "ReentrancyGuardReentrantCall",
      "type": "error"
    },
    {
      "inputs": [],
      "name": "Unauthorized",
      "type": "error"
    },
    {
      "inputs": [],
      "name": "ZeroAddress",
      "type": "error"
    },
    {
      "inputs": [],
      "name": "ZeroFactorValue",
      "type": "error"
    },
    {
      "anonymous": false,
      "inputs": [
        {
          "indexed": false,
          "internalType": "uint64",
          "name": "version",
          "type": "uint64"
        }
      ],
      "name": "Initialized",
      "type": "event"
    },
    {
      "anonymous": false,
      "inputs": [
        {
          "indexed": true,
          "internalType": "address",
          "name": "previousOwner",
          "type": "address"
        },
        {
          "indexed": true,
          "internalType": "address",
          "name": "newOwner",
          "type": "address"
        }
      ],
      "name": "OwnershipTransferred",
      "type": "event"
    },
    {
      "anonymous": false,
      "inputs": [
        {
          "indexed": true,
          "internalType": "address",
          "name": "_connectivityTracker",
          "type": "address"
        }
      ],
      "name": "SetConnectivityTrackerContract",
      "type": "event"
    },
    {
      "anonymous": false,
      "inputs": [
        {
          "indexed": true,
          "internalType": "address",
          "name": "_staking",
          "type": "address"
        }
      ],
      "name": "SetStakingContract",
      "type": "event"
    },
    {
      "anonymous": false,
      "inputs": [
        {
          "indexed": true,
          "internalType": "address",
          "name": "_validatorSet",
          "type": "address"
        }
      ],
      "name": "SetValidatorSetContract",
      "type": "event"
    },
    {
      "anonymous": false,
      "inputs": [
        {
          "indexed": true,
          "internalType": "enum ScoringFactor",
          "name": "factor",
          "type": "uint8"
        },
        {
          "indexed": false,
          "internalType": "uint256",
          "name": "value",
          "type": "uint256"
        }
      ],
      "name": "UpdateScoringFactor",
      "type": "event"
    },
    {
      "anonymous": false,
      "inputs": [
        {
          "indexed": true,
          "internalType": "address",
          "name": "miningAddress",
          "type": "address"
        },
        {
          "indexed": true,
          "internalType": "enum ScoringFactor",
          "name": "factor",
          "type": "uint8"
        },
        {
          "indexed": false,
          "internalType": "uint256",
          "name": "newScore",
          "type": "uint256"
        }
      ],
      "name": "ValidatorScoreChanged",
      "type": "event"
    },
    {
      "inputs": [],
      "name": "DEFAULT_BAD_PERF_FACTOR",
      "outputs": [
        {
          "internalType": "uint256",
          "name": "",
          "type": "uint256"
        }
      ],
      "stateMutability": "view",
      "type": "function"
    },
    {
      "inputs": [],
      "name": "DEFAULT_NO_KEY_WRITE_FACTOR",
      "outputs": [
        {
          "internalType": "uint256",
          "name": "",
          "type": "uint256"
        }
      ],
      "stateMutability": "view",
      "type": "function"
    },
    {
      "inputs": [],
      "name": "DEFAULT_NO_STAND_BY_FACTOR",
      "outputs": [
        {
          "internalType": "uint256",
          "name": "",
          "type": "uint256"
        }
      ],
      "stateMutability": "view",
      "type": "function"
    },
    {
      "inputs": [],
      "name": "DEFAULT_STAND_BY_FACTOR",
      "outputs": [
        {
          "internalType": "uint256",
          "name": "",
          "type": "uint256"
        }
      ],
      "stateMutability": "view",
      "type": "function"
    },
    {
      "inputs": [],
      "name": "MAX_SCORE",
      "outputs": [
        {
          "internalType": "uint256",
          "name": "",
          "type": "uint256"
        }
      ],
      "stateMutability": "view",
      "type": "function"
    },
    {
      "inputs": [],
      "name": "MIN_SCORE",
      "outputs": [
        {
          "internalType": "uint256",
          "name": "",
          "type": "uint256"
        }
      ],
      "stateMutability": "view",
      "type": "function"
    },
    {
      "inputs": [],
      "name": "connectivityTracker",
      "outputs": [
        {
          "internalType": "address",
          "name": "",
          "type": "address"
        }
      ],
      "stateMutability": "view",
      "type": "function"
    },
    {
      "inputs": [
        {
          "internalType": "enum ScoringFactor",
          "name": "factor",
          "type": "uint8"
        }
      ],
      "name": "getScoringFactorValue",
      "outputs": [
        {
          "internalType": "uint256",
          "name": "",
          "type": "uint256"
        }
      ],
      "stateMutability": "view",
      "type": "function"
    },
    {
      "inputs": [
        {
          "internalType": "enum ScoringFactor",
          "name": "factor",
          "type": "uint8"
        }
      ],
      "name": "getTimePerScorePoint",
      "outputs": [
        {
          "internalType": "uint256",
          "name": "",
          "type": "uint256"
        }
      ],
      "stateMutability": "view",
      "type": "function"
    },
    {
      "inputs": [
        {
          "internalType": "address",
          "name": "mining",
          "type": "address"
        }
      ],
      "name": "getValidatorScore",
      "outputs": [
        {
          "internalType": "uint256",
          "name": "",
          "type": "uint256"
        }
      ],
      "stateMutability": "view",
      "type": "function"
    },
    {
      "inputs": [
        {
          "internalType": "address",
          "name": "_owner",
          "type": "address"
        },
        {
          "internalType": "address",
          "name": "_validatorSetHbbft",
          "type": "address"
        },
        {
          "internalType": "address",
          "name": "_connectivityTracker",
          "type": "address"
        },
        {
          "internalType": "address",
          "name": "_stakingHbbft",
          "type": "address"
        }
      ],
      "name": "initialize",
      "outputs": [],
      "stateMutability": "nonpayable",
      "type": "function"
    },
    {
      "inputs": [],
      "name": "owner",
      "outputs": [
        {
          "internalType": "address",
          "name": "",
          "type": "address"
        }
      ],
      "stateMutability": "view",
      "type": "function"
    },
    {
      "inputs": [
        {
          "internalType": "address",
          "name": "mining",
          "type": "address"
        },
        {
          "internalType": "uint256",
          "name": "time",
          "type": "uint256"
        }
      ],
      "name": "penaliseBadPerformance",
      "outputs": [],
      "stateMutability": "nonpayable",
      "type": "function"
    },
    {
      "inputs": [
        {
          "internalType": "address",
          "name": "mining",
          "type": "address"
        }
      ],
      "name": "penaliseNoKeyWrite",
      "outputs": [],
      "stateMutability": "nonpayable",
      "type": "function"
    },
    {
      "inputs": [
        {
          "internalType": "address",
          "name": "mining",
          "type": "address"
        },
        {
          "internalType": "uint256",
          "name": "unavailableSince",
          "type": "uint256"
        }
      ],
      "name": "penaliseNoStandBy",
      "outputs": [],
      "stateMutability": "nonpayable",
      "type": "function"
    },
    {
      "inputs": [],
      "name": "renounceOwnership",
      "outputs": [],
      "stateMutability": "nonpayable",
      "type": "function"
    },
    {
      "inputs": [
        {
          "internalType": "address",
          "name": "mining",
          "type": "address"
        },
        {
          "internalType": "uint256",
          "name": "availableSince",
          "type": "uint256"
        }
      ],
      "name": "rewardStandBy",
      "outputs": [],
      "stateMutability": "nonpayable",
      "type": "function"
    },
    {
      "inputs": [
        {
          "internalType": "address",
          "name": "_address",
          "type": "address"
        }
      ],
      "name": "setConnectivityTrackerContract",
      "outputs": [],
      "stateMutability": "nonpayable",
      "type": "function"
    },
    {
      "inputs": [
        {
          "internalType": "address",
          "name": "_staking",
          "type": "address"
        }
      ],
      "name": "setStakingContract",
      "outputs": [],
      "stateMutability": "nonpayable",
      "type": "function"
    },
    {
      "inputs": [
        {
          "internalType": "address",
          "name": "_validatorSet",
          "type": "address"
        }
      ],
      "name": "setValidatorSetContract",
      "outputs": [],
      "stateMutability": "nonpayable",
      "type": "function"
    },
    {
      "inputs": [],
      "name": "stakingHbbft",
      "outputs": [
        {
          "internalType": "contract IStakingHbbft",
          "name": "",
          "type": "address"
        }
      ],
      "stateMutability": "view",
      "type": "function"
    },
    {
      "inputs": [
        {
          "internalType": "address",
          "name": "newOwner",
          "type": "address"
        }
      ],
      "name": "transferOwnership",
      "outputs": [],
      "stateMutability": "nonpayable",
      "type": "function"
    },
    {
      "inputs": [
        {
          "internalType": "enum ScoringFactor",
          "name": "factor",
          "type": "uint8"
        },
        {
          "internalType": "uint256",
          "name": "value",
          "type": "uint256"
        }
      ],
      "name": "updateScoringFactor",
      "outputs": [],
      "stateMutability": "nonpayable",
      "type": "function"
    },
    {
      "inputs": [],
      "name": "validatorSetHbbft",
      "outputs": [
        {
          "internalType": "address",
          "name": "",
          "type": "address"
        }
      ],
      "stateMutability": "view",
      "type": "function"
    }
  ],
  "bytecode": "0x6080604052348015600f57600080fd5b5061105f8061001f6000396000f3fe608060405234801561001057600080fd5b50600436106101985760003560e01c8063715018a6116100e3578063c5ca3e131161008c578063f2fde38b11610066578063f2fde38b1461032d578063f8c8765e14610340578063fee5c6421461021c57600080fd5b8063c5ca3e13146102f4578063c66a07f114610307578063e5079ddc1461031a57600080fd5b80638da5cb5b116100bd5780638da5cb5b1461029e57806392f29443146102ce5780639dd373b9146102e157600080fd5b8063715018a614610283578063803615b81461028b578063881b56a6146101f957600080fd5b806347288cd7116101455780635d685ba41161011f5780635d685ba41461024a57806363b6dc481461025d578063669554691461027057600080fd5b806347288cd71461021c57806351150d571461022457806357bfcbee1461023757600080fd5b806336155c3d1161017657806336155c3d146101f95780633dc12d231461020157806340b892701461021457600080fd5b80631243e6cb1461019d57806327ff6223146101cd57806335af9f14146101e4575b600080fd5b6000546101b0906001600160a01b031681565b6040516001600160a01b0390911681526020015b60405180910390f35b6101d66103e881565b6040519081526020016101c4565b6101f76101f2366004610eb5565b610353565b005b6101d6606481565b6101f761020f366004610ef6565b6103fe565b6101d6600181565b6101d6600f81565b6101f7610232366004610ef6565b610469565b6101f7610245366004610f12565b6104a7565b6101f7610258366004610f12565b610512565b6101f761026b366004610f12565b61058d565b6002546101b0906001600160a01b031681565b6101f7610608565b6101d6610299366004610f2d565b61061c565b7f9016d09d72d40fdae2fd8ceac6b6234c7706214fd39c1cd1e609a0528c199300546001600160a01b03166101b0565b6101f76102dc366004610ef6565b6106a6565b6101f76102ef366004610f12565b6106e4565b6001546101b0906001600160a01b031681565b6101d6610315366004610f2d565b61075d565b6101d6610328366004610f12565b61079c565b6101f761033b366004610f12565b6107c6565b6101f761034e366004610f48565b610806565b61035b610a6a565b8060000361037c57604051634d913e1360e01b815260040160405180910390fd5b806003600084600381111561039357610393610f9c565b60038111156103a4576103a4610f9c565b81526020810191909152604001600020558160038111156103c7576103c7610f9c565b6040518281527f5c2332a892d5e5e1f73adc17ddd354688b4cc5940f5dcda0f2a7f096e2cd65849060200160405180910390a25050565b6002546001600160a01b03163314610428576040516282b42960e81b815260040160405180910390fd5b610430610ac5565b61043c82600383610b0f565b61046560017f9b779b17422d0df92223018b32b4d1fa46e071723d6817e2486d003becc55f0055565b5050565b6001546001600160a01b03163314610493576040516282b42960e81b815260040160405180910390fd5b61049b610ac5565b61043c82600183610c7b565b6001546001600160a01b031633146104d1576040516282b42960e81b815260040160405180910390fd5b6104d9610ac5565b6104e68160026000610b0f565b61050f60017f9b779b17422d0df92223018b32b4d1fa46e071723d6817e2486d003becc55f0055565b50565b61051a610a6a565b806001600160a01b0381166105425760405163d92e233d60e01b815260040160405180910390fd5b600180546001600160a01b0319166001600160a01b0384169081179091556040517f667e34ba274368385207f3063c219b1125e7351db629f15e5421ed8f4a79c36090600090a25050565b610595610a6a565b806001600160a01b0381166105bd5760405163d92e233d60e01b815260040160405180910390fd5b600280546001600160a01b0319166001600160a01b0384169081179091556040517f5e92eb268baa307ec16b695868a1baabf6cd6749fb91d07a6762f9153183959390600090a25050565b610610610a6a565b61061a6000610cf3565b565b6000805460408051634f9a8d8f60e01b8152905183926001600160a01b031691634f9a8d8f9160048083019260209291908290030181865afa158015610666573d6000803e3d6000fd5b505050506040513d601f19601f8201168201806040525081019061068a9190610fb2565b90506106958361075d565b61069f9082610fe1565b9392505050565b6001546001600160a01b031633146106d0576040516282b42960e81b815260040160405180910390fd5b6106d8610ac5565b61043c82600083610c7b565b6106ec610a6a565b806001600160a01b0381166107145760405163d92e233d60e01b815260040160405180910390fd5b600080546001600160a01b0319166001600160a01b038416908117825560405190917f77da29da4ba6bf0a49e709076c8fc946886ea566b52a1429ac484d59f879be3791a25050565b60006003600083600381111561077557610775610f9c565b600381111561078657610786610f9c565b8152602001908152602001600020549050919050565b6001600160a01b0381166000908152600460205260408120546107c0906001610d64565b92915050565b6107ce610a6a565b6001600160a01b0381166107fd57604051631e4fbdf760e01b8152600060048201526024015b60405180910390fd5b61050f81610cf3565b7ff0c57e16840df040f15088dc2f81fe391c3923bec73e23a9662efc9c229c6a00805468010000000000000000810460ff16159067ffffffffffffffff166000811580156108515750825b905060008267ffffffffffffffff16600114801561086e5750303b155b90508115801561087c575080155b1561089a5760405163f92ee8a960e01b815260040160405180910390fd5b845467ffffffffffffffff1916600117855583156108ce57845468ff00000000000000001916680100000000000000001785555b6001600160a01b03891615806108eb57506001600160a01b038816155b806108fd57506001600160a01b038716155b8061090f57506001600160a01b038616155b1561092d5760405163d92e233d60e01b815260040160405180910390fd5b61093689610d7a565b61093e610d8b565b600180546001600160a01b038a81166001600160a01b031992831617909255600280548a8416908316179055600080549289169290911691909117815560036020819052600f7f3617319a054d772f909f7c479a2cebe5066e836a939412e32403c99029b92eff8190557fa15bc60c955c405d20d9149c709e2460f1c2d9a497496a7f46004d1772c3054c5560647fc3a24b0501bd2c13a7e57f2db4369ec4c223447539fc0724a9d55ac4a06ebd4d81905591527fcbc4e5fb02c3d1de23a9f1e014b4d2ee5aeaea9505df5e855c9210bf472495af558315610a5f57845468ff000000000000000019168555604051600181527fc7f505b2f371ae2175ee4913f4499e1f2633a7b5936321eed1cdaeb6115181d29060200160405180910390a15b505050505050505050565b33610a9c7f9016d09d72d40fdae2fd8ceac6b6234c7706214fd39c1cd1e609a0528c199300546001600160a01b031690565b6001600160a01b03161461061a5760405163118cdaa760e01b81523360048201526024016107f4565b7f9b779b17422d0df92223018b32b4d1fa46e071723d6817e2486d003becc55f00805460011901610b0957604051633ee5aeb560e01b815260040160405180910390fd5b60029055565b6000610b1a83610d9b565b90506000610b288484610db7565b90506000610b358661079c565b905060008315610b5b57610b546103e8610b4f8585611003565b610e34565b9050610b7d565b610b658284610e34565b610b6f9083611016565b905080600003610b7d575060015b6001600160a01b03878116600081815260046020819052604080832086905591549151636357988d60e11b815290810192909252602482018490529091169063c6af311a90604401600060405180830381600087803b158015610bdf57600080fd5b505af1158015610bf3573d6000803e3d6000fd5b50505050856003811115610c0957610c09610f9c565b876001600160a01b03167f131b38d99bcb5ce5c25bcbb16d285fb7f60d1e0020b852e23ec21af42ba55eec83604051610c4491815260200190565b60405180910390a350505050505050565b60017f9b779b17422d0df92223018b32b4d1fa46e071723d6817e2486d003becc55f0055565b6001600160a01b038316600090815260056020526040812054610c9e9083610d64565b9050428110610cc05760405163d152074960e01b815260040160405180910390fd5b610cd48484610ccf8442611016565b610b0f565b5050506001600160a01b03166000908152600560205260409020429055565b7f9016d09d72d40fdae2fd8ceac6b6234c7706214fd39c1cd1e609a0528c19930080546001600160a01b031981166001600160a01b03848116918217845560405192169182907f8be0079c531659141344cd1fd0a4f28419497f9722a3daafe3b4186f6b6457e090600090a3505050565b6000818311610d73578161069f565b5090919050565b610d82610e43565b61050f81610e91565b610d93610e43565b61061a610e99565b600080826003811115610db057610db0610f9c565b1492915050565b600080610dc38461075d565b90506002846003811115610dd957610dd9610f9c565b03610de55790506107c0565b6003846003811115610df957610df9610f9c565b148015610e04575082155b15610e105790506107c0565b610e2c610e1c8561061c565b610e269085610fe1565b82610e34565b9150506107c0565b6000818310610d73578161069f565b7ff0c57e16840df040f15088dc2f81fe391c3923bec73e23a9662efc9c229c6a005468010000000000000000900460ff1661061a57604051631afcd79f60e31b815260040160405180910390fd5b6107ce610e43565b610c55610e43565b803560048110610eb057600080fd5b919050565b60008060408385031215610ec857600080fd5b610ed183610ea1565b946020939093013593505050565b80356001600160a01b0381168114610eb057600080fd5b60008060408385031215610f0957600080fd5b610ed183610edf565b600060208284031215610f2457600080fd5b61069f82610edf565b600060208284031215610f3f57600080fd5b61069f82610ea1565b60008060008060808587031215610f5e57600080fd5b610f6785610edf565b9350610f7560208601610edf565b9250610f8360408601610edf565b9150610f9160608601610edf565b905092959194509250565b634e487b7160e01b600052602160045260246000fd5b600060208284031215610fc457600080fd5b5051919050565b634e487b7160e01b600052601160045260246000fd5b600082610ffe57634e487b7160e01b600052601260045260246000fd5b500490565b808201808211156107c0576107c0610fcb565b818103818111156107c0576107c0610fcb56fea2646970667358221220f4696be81e81f0098f2228d4673d5a46ebd6db08c7e8f6c9b940a7da578d238964736f6c63430008190033",
  "linkReferences": {},
  "deployedLinkReferences": {}
}