{
  "_format": "hh-sol-artifact-1",
  "contractName": "BonusScoreSystem",
  "sourceName": "contracts/BonusScoreSystem.sol",
  "abi": [
    {
      "inputs": [],
      "name": "InvalidInitialization",
      "type": "error"
    },
    {
      "inputs": [],
      "name": "InvalidIntervalStartTimestamp",
      "type": "error"
    },
    {
      "inputs": [],
      "name": "InvalidScoringFactor",
      "type": "error"
    },
    {
      "inputs": [],
      "name": "NotInitializing",
      "type": "error"
    },
    {
      "inputs": [
        {
          "internalType": "address",
          "name": "owner",
          "type": "address"
        }
      ],
      "name": "OwnableInvalidOwner",
      "type": "error"
    },
    {
      "inputs": [
        {
          "internalType": "address",
          "name": "account",
          "type": "address"
        }
      ],
      "name": "OwnableUnauthorizedAccount",
      "type": "error"
    },
    {
      "inputs": [],
      "name": "ReentrancyGuardReentrantCall",
      "type": "error"
    },
    {
      "inputs": [],
      "name": "Unauthorized",
      "type": "error"
    },
    {
      "inputs": [],
      "name": "ZeroAddress",
      "type": "error"
    },
    {
      "inputs": [],
      "name": "ZeroFactorValue",
      "type": "error"
    },
    {
      "anonymous": false,
      "inputs": [
        {
          "indexed": false,
          "internalType": "uint64",
          "name": "version",
          "type": "uint64"
        }
      ],
      "name": "Initialized",
      "type": "event"
    },
    {
      "anonymous": false,
      "inputs": [
        {
          "indexed": true,
          "internalType": "address",
          "name": "previousOwner",
          "type": "address"
        },
        {
          "indexed": true,
          "internalType": "address",
          "name": "newOwner",
          "type": "address"
        }
      ],
      "name": "OwnershipTransferred",
      "type": "event"
    },
    {
      "anonymous": false,
      "inputs": [
        {
          "indexed": true,
          "internalType": "address",
          "name": "_connectivityTracker",
          "type": "address"
        }
      ],
      "name": "SetConnectivityTrackerContract",
      "type": "event"
    },
    {
      "anonymous": false,
      "inputs": [
        {
          "indexed": true,
          "internalType": "address",
          "name": "_staking",
          "type": "address"
        }
      ],
      "name": "SetStakingContract",
      "type": "event"
    },
    {
      "anonymous": false,
      "inputs": [
        {
          "indexed": true,
          "internalType": "address",
          "name": "_validatorSet",
          "type": "address"
        }
      ],
      "name": "SetValidatorSetContract",
      "type": "event"
    },
    {
      "anonymous": false,
      "inputs": [
        {
          "indexed": true,
          "internalType": "enum ScoringFactor",
          "name": "factor",
          "type": "uint8"
        },
        {
          "indexed": false,
          "internalType": "uint256",
          "name": "value",
          "type": "uint256"
        }
      ],
      "name": "UpdateScoringFactor",
      "type": "event"
    },
    {
      "anonymous": false,
      "inputs": [
        {
          "indexed": true,
          "internalType": "address",
          "name": "miningAddress",
          "type": "address"
        },
        {
          "indexed": true,
          "internalType": "enum ScoringFactor",
          "name": "factor",
          "type": "uint8"
        },
        {
          "indexed": false,
          "internalType": "uint256",
          "name": "newScore",
          "type": "uint256"
        }
      ],
      "name": "ValidatorScoreChanged",
      "type": "event"
    },
    {
      "inputs": [],
      "name": "DEFAULT_BAD_PERF_FACTOR",
      "outputs": [
        {
          "internalType": "uint256",
          "name": "",
          "type": "uint256"
        }
      ],
      "stateMutability": "view",
      "type": "function"
    },
    {
      "inputs": [],
      "name": "DEFAULT_NO_KEY_WRITE_FACTOR",
      "outputs": [
        {
          "internalType": "uint256",
          "name": "",
          "type": "uint256"
        }
      ],
      "stateMutability": "view",
      "type": "function"
    },
    {
      "inputs": [],
      "name": "DEFAULT_NO_STAND_BY_FACTOR",
      "outputs": [
        {
          "internalType": "uint256",
          "name": "",
          "type": "uint256"
        }
      ],
      "stateMutability": "view",
      "type": "function"
    },
    {
      "inputs": [],
      "name": "DEFAULT_STAND_BY_FACTOR",
      "outputs": [
        {
          "internalType": "uint256",
          "name": "",
          "type": "uint256"
        }
      ],
      "stateMutability": "view",
      "type": "function"
    },
    {
      "inputs": [],
      "name": "MAX_SCORE",
      "outputs": [
        {
          "internalType": "uint256",
          "name": "",
          "type": "uint256"
        }
      ],
      "stateMutability": "view",
      "type": "function"
    },
    {
      "inputs": [],
      "name": "MIN_SCORE",
      "outputs": [
        {
          "internalType": "uint256",
          "name": "",
          "type": "uint256"
        }
      ],
      "stateMutability": "view",
      "type": "function"
    },
    {
      "inputs": [],
      "name": "connectivityTracker",
      "outputs": [
        {
          "internalType": "address",
          "name": "",
          "type": "address"
        }
      ],
      "stateMutability": "view",
      "type": "function"
    },
    {
      "inputs": [
        {
          "internalType": "enum ScoringFactor",
          "name": "factor",
          "type": "uint8"
        }
      ],
      "name": "getScoringFactorValue",
      "outputs": [
        {
          "internalType": "uint256",
          "name": "",
          "type": "uint256"
        }
      ],
      "stateMutability": "view",
      "type": "function"
    },
    {
      "inputs": [
        {
          "internalType": "enum ScoringFactor",
          "name": "factor",
          "type": "uint8"
        }
      ],
      "name": "getTimePerScorePoint",
      "outputs": [
        {
          "internalType": "uint256",
          "name": "",
          "type": "uint256"
        }
      ],
      "stateMutability": "view",
      "type": "function"
    },
    {
      "inputs": [
        {
          "internalType": "address",
          "name": "mining",
          "type": "address"
        }
      ],
      "name": "getValidatorScore",
      "outputs": [
        {
          "internalType": "uint256",
          "name": "",
          "type": "uint256"
        }
      ],
      "stateMutability": "view",
      "type": "function"
    },
    {
      "inputs": [
        {
          "internalType": "address",
          "name": "_owner",
          "type": "address"
        },
        {
          "internalType": "address",
          "name": "_validatorSetHbbft",
          "type": "address"
        },
        {
          "internalType": "address",
          "name": "_connectivityTracker",
          "type": "address"
        },
        {
          "internalType": "address",
          "name": "_stakingHbbft",
          "type": "address"
        }
      ],
      "name": "initialize",
      "outputs": [],
      "stateMutability": "nonpayable",
      "type": "function"
    },
    {
      "inputs": [],
      "name": "owner",
      "outputs": [
        {
          "internalType": "address",
          "name": "",
          "type": "address"
        }
      ],
      "stateMutability": "view",
      "type": "function"
    },
    {
      "inputs": [
        {
          "internalType": "address",
          "name": "mining",
          "type": "address"
        },
        {
          "internalType": "uint256",
          "name": "time",
          "type": "uint256"
        }
      ],
      "name": "penaliseBadPerformance",
      "outputs": [],
      "stateMutability": "nonpayable",
      "type": "function"
    },
    {
      "inputs": [
        {
          "internalType": "address",
          "name": "mining",
          "type": "address"
        }
      ],
      "name": "penaliseNoKeyWrite",
      "outputs": [],
      "stateMutability": "nonpayable",
      "type": "function"
    },
    {
      "inputs": [
        {
          "internalType": "address",
          "name": "mining",
          "type": "address"
        },
        {
          "internalType": "uint256",
          "name": "unavailableSince",
          "type": "uint256"
        }
      ],
      "name": "penaliseNoStandBy",
      "outputs": [],
      "stateMutability": "nonpayable",
      "type": "function"
    },
    {
      "inputs": [],
      "name": "renounceOwnership",
      "outputs": [],
      "stateMutability": "nonpayable",
      "type": "function"
    },
    {
      "inputs": [
        {
          "internalType": "address",
          "name": "mining",
          "type": "address"
        },
        {
          "internalType": "uint256",
          "name": "availableSince",
          "type": "uint256"
        }
      ],
      "name": "rewardStandBy",
      "outputs": [],
      "stateMutability": "nonpayable",
      "type": "function"
    },
    {
      "inputs": [
        {
          "internalType": "address",
          "name": "_address",
          "type": "address"
        }
      ],
      "name": "setConnectivityTrackerContract",
      "outputs": [],
      "stateMutability": "nonpayable",
      "type": "function"
    },
    {
      "inputs": [
        {
          "internalType": "address",
          "name": "_staking",
          "type": "address"
        }
      ],
      "name": "setStakingContract",
      "outputs": [],
      "stateMutability": "nonpayable",
      "type": "function"
    },
    {
      "inputs": [
        {
          "internalType": "address",
          "name": "_validatorSet",
          "type": "address"
        }
      ],
      "name": "setValidatorSetContract",
      "outputs": [],
      "stateMutability": "nonpayable",
      "type": "function"
    },
    {
      "inputs": [],
      "name": "stakingHbbft",
      "outputs": [
        {
          "internalType": "contract IStakingHbbft",
          "name": "",
          "type": "address"
        }
      ],
      "stateMutability": "view",
      "type": "function"
    },
    {
      "inputs": [
        {
          "internalType": "address",
          "name": "newOwner",
          "type": "address"
        }
      ],
      "name": "transferOwnership",
      "outputs": [],
      "stateMutability": "nonpayable",
      "type": "function"
    },
    {
      "inputs": [
        {
          "internalType": "enum ScoringFactor",
          "name": "factor",
          "type": "uint8"
        },
        {
          "internalType": "uint256",
          "name": "value",
          "type": "uint256"
        }
      ],
      "name": "updateScoringFactor",
      "outputs": [],
      "stateMutability": "nonpayable",
      "type": "function"
    },
    {
      "inputs": [],
      "name": "validatorSetHbbft",
      "outputs": [
        {
          "internalType": "address",
          "name": "",
          "type": "address"
        }
      ],
      "stateMutability": "view",
      "type": "function"
    }
  ],
  "bytecode": "0x6080604052348015600f57600080fd5b50612c0f8061001f6000396000f3fe608060405234801561001057600080fd5b50600436106101985760003560e01c8063715018a6116100e3578063c5ca3e131161008c578063f2fde38b11610066578063f2fde38b14610425578063f8c8765e14610441578063fee5c6421461045d57610198565b8063c5ca3e13146103a7578063c66a07f1146103c5578063e5079ddc146103f557610198565b80638da5cb5b116100bd5780638da5cb5b1461035157806392f294431461036f5780639dd373b91461038b57610198565b8063715018a6146102f9578063803615b814610303578063881b56a61461033357610198565b806347288cd7116101455780635d685ba41161011f5780635d685ba4146102a357806363b6dc48146102bf57806366955469146102db57610198565b806347288cd71461024d57806351150d571461026b57806357bfcbee1461028757610198565b806336155c3d1161017657806336155c3d146101f55780633dc12d231461021357806340b892701461022f57610198565b80631243e6cb1461019d57806327ff6223146101bb57806335af9f14146101d9575b600080fd5b6101a561047b565b6040516101b2919061294e565b60405180910390f35b6101c361049f565b6040516101d09190612975565b60405180910390f35b6101f360048036038101906101ee919061299e565b6104a5565b005b6101fd61064d565b60405161020a9190612975565b60405180910390f35b61022d600480360381019061022891906129f7565b610652565b005b610237610811565b6040516102449190612975565b60405180910390f35b610255610816565b6040516102629190612975565b60405180910390f35b610285600480360381019061028091906129f7565b61081b565b005b6102a1600480360381019061029c9190612a23565b6109da565b005b6102bd60048036038101906102b89190612a23565b610b99565b005b6102d960048036038101906102d49190612a23565b610dbc565b005b6102e3610fdf565b6040516102f09190612a46565b60405180910390f35b610301611005565b005b61031d60048036038101906103189190612a6d565b611019565b60405161032a9190612975565b60405180910390f35b61033b61112f565b6040516103489190612975565b60405180910390f35b610359611134565b6040516103669190612a46565b60405180910390f35b610389600480360381019061038491906129f7565b61116c565b005b6103a560048036038101906103a09190612a23565b61132a565b005b6103af61154c565b6040516103bc9190612a46565b60405180910390f35b6103df60048036038101906103da9190612a6d565b611572565b6040516103ec9190612975565b60405180910390f35b61040f600480360381019061040a9190612a23565b6115ef565b60405161041c9190612975565b60405180910390f35b61043f600480360381019061043a9190612a23565b61167e565b005b61045b60048036038101906104569190612a90565b611704565b005b610465611c70565b6040516104729190612975565b60405180910390f35b60008054906101000a900473ffffffffffffffffffffffffffffffffffffffff1681565b6103e881565b6104b967bbaa20038c671a4f60c01b611c75565b6104c1611c78565b6104d567020c45ee11c955ab60c01b611c75565b6104e96734b4e9d4f6373df460c01b611c75565b6104fd67fee4325991e3414060c01b611c75565b61051167d8ac9d75445a46a760c01b611c75565b600081036105735761052d679db91d31e1f4f06a60c01b611c75565b61054167ffbd32e9615c58f460c01b611c75565b6040517f4d913e1300000000000000000000000000000000000000000000000000000000815260040160405180910390fd5b6105876729b7425c4910476360c01b611c75565b61059b67ed73bfaba1577ebd60c01b611c75565b80600360008460038111156105b3576105b2612ae4565b5b60038111156105c5576105c4612ae4565b5b8152602001908152602001600020819055506105eb6782fb9c8b5a0a565160c01b611c75565b6105ff67bb06ac0115d2fcb060c01b611c75565b81600381111561061257610611612ae4565b5b7f5c2332a892d5e5e1f73adc17ddd354688b4cc5940f5dcda0f2a7f096e2cd6584826040516106419190612975565b60405180910390a25050565b606481565b61066667cf179946e4b840ed60c01b611c75565b61067a679dc6fbddeec4476160c01b611c75565b61068e67fc785b1c0ebab90060c01b611c75565b6106a267156d4d697f8e637f60c01b611c75565b600260009054906101000a900473ffffffffffffffffffffffffffffffffffffffff1673ffffffffffffffffffffffffffffffffffffffff163373ffffffffffffffffffffffffffffffffffffffff16146107515761070b67132517e63db5284860c01b611c75565b61071f674603a56a7ea3edb660c01b611c75565b6040517f82b4290000000000000000000000000000000000000000000000000000000000815260040160405180910390fd5b61076567cd9882a6de73168160c01b611c75565b6107796717d9d2311918b53460c01b611c75565b61078d67fe21a930afe6d62460c01b611c75565b6107a1673f55ddec75369bdc60c01b611c75565b6107a9611cff565b6107bd677d53d73d45a044d760c01b611c75565b6107d167364c6dbe525eecc260c01b611c75565b6107e5674b374c5e498391ed60c01b611c75565b6107f967069bee063988205e60c01b611c75565b61080582600383611d56565b61080d6120fd565b5050565b600181565b600f81565b61082f67f89e79704030b05f60c01b611c75565b61084367f7512519bc5b442660c01b611c75565b610857671a6c59e0270f2d0560c01b611c75565b61086b67c950ad0752139cae60c01b611c75565b600160009054906101000a900473ffffffffffffffffffffffffffffffffffffffff1673ffffffffffffffffffffffffffffffffffffffff163373ffffffffffffffffffffffffffffffffffffffff161461091a576108d467cf24aac1fb8a54a260c01b611c75565b6108e8677861ef7fec0c563960c01b611c75565b6040517f82b4290000000000000000000000000000000000000000000000000000000000815260040160405180910390fd5b61092e6750d74f33f8ba67e960c01b611c75565b610942673f897658f9b2139460c01b611c75565b610956679d5863f4c75aa90060c01b611c75565b61096a6743da7eacf1129a1760c01b611c75565b610972611cff565b61098667f498227ef6888bf460c01b611c75565b61099a6711fe2b5cf72edec660c01b611c75565b6109ae67bf9475519bd0290c60c01b611c75565b6109c2675e911e7e7bf322bc60c01b611c75565b6109ce82600183612116565b6109d66120fd565b5050565b6109ee67670b1d7b6f59777060c01b611c75565b610a0267f7512519bc5b442660c01b611c75565b610a16671a6c59e0270f2d0560c01b611c75565b610a2a67c950ad0752139cae60c01b611c75565b600160009054906101000a900473ffffffffffffffffffffffffffffffffffffffff1673ffffffffffffffffffffffffffffffffffffffff163373ffffffffffffffffffffffffffffffffffffffff1614610ad957610a9367cf24aac1fb8a54a260c01b611c75565b610aa7677861ef7fec0c563960c01b611c75565b6040517f82b4290000000000000000000000000000000000000000000000000000000000815260040160405180910390fd5b610aed6750d74f33f8ba67e960c01b611c75565b610b01673f897658f9b2139460c01b611c75565b610b1567d006fb28c4d8fb3760c01b611c75565b610b2967a65791a5d17b3d5560c01b611c75565b610b31611cff565b610b4567fd140891cf17cd0e60c01b611c75565b610b5967308ee65b2ea64e2760c01b611c75565b610b6d6714f587d319937d7f60c01b611c75565b610b8167bb67ccb3b7efbb4560c01b611c75565b610b8e8160026000611d56565b610b966120fd565b50565b610bad678214ce76c26a6eea60c01b611c75565b610bb5611c78565b610bc9679d905570779fe0d260c01b611c75565b610bdd6732cc5403d4511ea760c01b611c75565b80610bf267a5a1ca6f00019d3c60c01b611c75565b610c06671e077d1c1528ca7160c01b611c75565b610c1a67cf1e0b86a14f498560c01b611c75565b600073ffffffffffffffffffffffffffffffffffffffff168173ffffffffffffffffffffffffffffffffffffffff1603610ca857610c6267ea6c7becea4bd54460c01b611c75565b610c7667b637a13da4eae25260c01b611c75565b6040517fd92e233d00000000000000000000000000000000000000000000000000000000815260040160405180910390fd5b610cbc67695c630821ea8d8460c01b611c75565b610cd067ba5119c894f5701860c01b611c75565b610ce467310384e48bc0f4d560c01b611c75565b610cf8676768a07fb004312760c01b611c75565b610d0c6727fae80ddaf1913d60c01b611c75565b81600160006101000a81548173ffffffffffffffffffffffffffffffffffffffff021916908373ffffffffffffffffffffffffffffffffffffffff160217905550610d616777a9f4e822400a8660c01b611c75565b610d75674d25f261ecadb73360c01b611c75565b8173ffffffffffffffffffffffffffffffffffffffff167f667e34ba274368385207f3063c219b1125e7351db629f15e5421ed8f4a79c36060405160405180910390a25050565b610dd067ca379f51e7b71eb760c01b611c75565b610dd8611c78565b610dec67d1a2bff69c0fdce860c01b611c75565b610e0067c07a745d9134c21660c01b611c75565b80610e1567a5a1ca6f00019d3c60c01b611c75565b610e29671e077d1c1528ca7160c01b611c75565b610e3d67cf1e0b86a14f498560c01b611c75565b600073ffffffffffffffffffffffffffffffffffffffff168173ffffffffffffffffffffffffffffffffffffffff1603610ecb57610e8567ea6c7becea4bd54460c01b611c75565b610e9967b637a13da4eae25260c01b611c75565b6040517fd92e233d00000000000000000000000000000000000000000000000000000000815260040160405180910390fd5b610edf67695c630821ea8d8460c01b611c75565b610ef367ba5119c894f5701860c01b611c75565b610f076727c09d412e7e630b60c01b611c75565b610f1b67013384249adac57860c01b611c75565b610f2f672878e4e288755c9d60c01b611c75565b81600260006101000a81548173ffffffffffffffffffffffffffffffffffffffff021916908373ffffffffffffffffffffffffffffffffffffffff160217905550610f8467af0e7262b516c87160c01b611c75565b610f9867b83917c35333b16960c01b611c75565b8173ffffffffffffffffffffffffffffffffffffffff167f5e92eb268baa307ec16b695868a1baabf6cd6749fb91d07a6762f9153183959360405160405180910390a25050565b600260009054906101000a900473ffffffffffffffffffffffffffffffffffffffff1681565b61100d611c78565b61101760006122d8565b565b600061102f678ee355219f44beb160c01b611c75565b6110436728aa4cd206723d7e60c01b611c75565b61105767e6ee20faae5223df60c01b611c75565b60008060009054906101000a900473ffffffffffffffffffffffffffffffffffffffff1673ffffffffffffffffffffffffffffffffffffffff16634f9a8d8f6040518163ffffffff1660e01b8152600401602060405180830381865afa1580156110c5573d6000803e3d6000fd5b505050506040513d601f19601f820116820180604052508101906110e99190612afa565b90506110ff671cdc2196bc21d21e60c01b611c75565b6111136764c3e3b66353909560c01b611c75565b61111c83611572565b816111279190612b2c565b915050919050565b606481565b60008061113f6123af565b90508060000160009054906101000a900473ffffffffffffffffffffffffffffffffffffffff1691505090565b611180671a9fe795078490f260c01b611c75565b61119467f7512519bc5b442660c01b611c75565b6111a8671a6c59e0270f2d0560c01b611c75565b6111bc67c950ad0752139cae60c01b611c75565b600160009054906101000a900473ffffffffffffffffffffffffffffffffffffffff1673ffffffffffffffffffffffffffffffffffffffff163373ffffffffffffffffffffffffffffffffffffffff161461126b5761122567cf24aac1fb8a54a260c01b611c75565b611239677861ef7fec0c563960c01b611c75565b6040517f82b4290000000000000000000000000000000000000000000000000000000000815260040160405180910390fd5b61127f6750d74f33f8ba67e960c01b611c75565b611293673f897658f9b2139460c01b611c75565b6112a7678ef1262d48acf02f60c01b611c75565b6112bb67b9d08b74ce2b023e60c01b611c75565b6112c3611cff565b6112d767142187166063d08760c01b611c75565b6112ea668fde30cef5be6e60c01b611c75565b6112fe67dc6dfcaf3860604160c01b611c75565b611312677101a64de5dcb36260c01b611c75565b61131e82600083612116565b6113266120fd565b5050565b61133e6746901163315e45a660c01b611c75565b611346611c78565b61135a67931e0f2f7c0b032360c01b611c75565b61136e67c03527f95c6ff9ad60c01b611c75565b8061138367a5a1ca6f00019d3c60c01b611c75565b611397671e077d1c1528ca7160c01b611c75565b6113ab67cf1e0b86a14f498560c01b611c75565b600073ffffffffffffffffffffffffffffffffffffffff168173ffffffffffffffffffffffffffffffffffffffff1603611439576113f367ea6c7becea4bd54460c01b611c75565b61140767b637a13da4eae25260c01b611c75565b6040517fd92e233d00000000000000000000000000000000000000000000000000000000815260040160405180910390fd5b61144d67695c630821ea8d8460c01b611c75565b61146167ba5119c894f5701860c01b611c75565b61147567e3bd2d7e91e33e5560c01b611c75565b61148967a00b770d9e23110760c01b611c75565b61149d67d96d1d7138af6d4460c01b611c75565b816000806101000a81548173ffffffffffffffffffffffffffffffffffffffff021916908373ffffffffffffffffffffffffffffffffffffffff1602179055506114f167b1992f70fc84585560c01b611c75565b61150567eae1a14f831a865160c01b611c75565b8173ffffffffffffffffffffffffffffffffffffffff167f77da29da4ba6bf0a49e709076c8fc946886ea566b52a1429ac484d59f879be3760405160405180910390a25050565b600160009054906101000a900473ffffffffffffffffffffffffffffffffffffffff1681565b6000611588677aacbdd8e5b4a66760c01b611c75565b61159c67b71f546e1aa401f760c01b611c75565b6115b06758fe0edaef37f05560c01b611c75565b600360008360038111156115c7576115c6612ae4565b5b60038111156115d9576115d8612ae4565b5b8152602001908152602001600020549050919050565b600061160567ae7ed8d44708d8d460c01b611c75565b6116196782e801328b21002060c01b611c75565b61162d670949703401f141d360c01b611c75565b611677600460008473ffffffffffffffffffffffffffffffffffffffff1673ffffffffffffffffffffffffffffffffffffffff1681526020019081526020016000205460016123d7565b9050919050565b611686611c78565b600073ffffffffffffffffffffffffffffffffffffffff168173ffffffffffffffffffffffffffffffffffffffff16036116f85760006040517f1e4fbdf70000000000000000000000000000000000000000000000000000000081526004016116ef9190612a46565b60405180910390fd5b611701816122d8565b50565b611718676553443c25cc62b360c01b611c75565b60006117226123f0565b905060008160000160089054906101000a900460ff1615905060008260000160009054906101000a900467ffffffffffffffff1690506000808267ffffffffffffffff161480156117705750825b9050600060018367ffffffffffffffff161480156117a5575060003073ffffffffffffffffffffffffffffffffffffffff163b145b9050811580156117b3575080155b156117ea576040517ff92ee8a900000000000000000000000000000000000000000000000000000000815260040160405180910390fd5b60018560000160006101000a81548167ffffffffffffffff021916908367ffffffffffffffff160217905550831561183a5760018560000160086101000a81548160ff0219169083151502179055505b61184e67774aa8af942dbe8760c01b611c75565b6118626744b0bb43caff0ed060c01b611c75565b61187667f0fd717cd26c378a60c01b611c75565b61188a672392572adc1b98cc60c01b611c75565b600073ffffffffffffffffffffffffffffffffffffffff168973ffffffffffffffffffffffffffffffffffffffff161480156118d657506118d567ba36dc7ee5f8b59160c01b612418565b5b806119455750600073ffffffffffffffffffffffffffffffffffffffff168873ffffffffffffffffffffffffffffffffffffffff1614801561192857506119276735fea63e0631ba3e60c01b612418565b5b80156119445750611943670f54ed3d3752730e60c01b612418565b5b5b806119b45750600073ffffffffffffffffffffffffffffffffffffffff168773ffffffffffffffffffffffffffffffffffffffff161480156119975750611996673b1de9efb141373d60c01b612418565b5b80156119b357506119b267e45ac170cf8bcaf060c01b612418565b5b5b80611a075750600073ffffffffffffffffffffffffffffffffffffffff168673ffffffffffffffffffffffffffffffffffffffff16148015611a065750611a05679cca9d311c3ed20460c01b612418565b5b5b15611a6657611a20673769072466ac451260c01b611c75565b611a34676d31dc7324410f9c60c01b611c75565b6040517fd92e233d00000000000000000000000000000000000000000000000000000000815260040160405180910390fd5b611a7a6788b540304e6a38c060c01b611c75565b611a8e67bec08c785eabc26360c01b611c75565b611aa267cb26653312e0d3d860c01b611c75565b611aab89612423565b611abf67d7b58f79251a6aa560c01b611c75565b611ad367e9f526083e73338260c01b611c75565b611adb612437565b611aef671fd63be1a0343ff160c01b611c75565b87600160006101000a81548173ffffffffffffffffffffffffffffffffffffffff021916908373ffffffffffffffffffffffffffffffffffffffff160217905550611b44674897af3f5967be2560c01b611c75565b86600260006101000a81548173ffffffffffffffffffffffffffffffffffffffff021916908373ffffffffffffffffffffffffffffffffffffffff160217905550611b9967f7cdfd0ffe0e943a60c01b611c75565b856000806101000a81548173ffffffffffffffffffffffffffffffffffffffff021916908373ffffffffffffffffffffffffffffffffffffffff160217905550611bed679b23f0c7fe30f85560c01b611c75565b611c01670a0f37e6bc55f95560c01b611c75565b611c09612449565b8315611c655760008560000160086101000a81548160ff0219169083151502179055507fc7f505b2f371ae2175ee4913f4499e1f2633a7b5936321eed1cdaeb6115181d26001604051611c5c9190612b54565b60405180910390a15b505050505050505050565b600f81565b50565b611c806125a5565b73ffffffffffffffffffffffffffffffffffffffff16611c9e611134565b73ffffffffffffffffffffffffffffffffffffffff1614611cfd57611cc16125a5565b6040517f118cdaa7000000000000000000000000000000000000000000000000000000008152600401611cf49190612a46565b60405180910390fd5b565b6000611d096125ad565b90506002816000015403611d49576040517f3ee5aeb500000000000000000000000000000000000000000000000000000000815260040160405180910390fd5b6002816000018190555050565b611d6a6792d3be1b0e36180360c01b611c75565b611d7e67873ee58ff529a9ff60c01b611c75565b611d9267be2bf771915e94a960c01b611c75565b6000611d9d836125d5565b9050611db36754c40878137ac1e160c01b611c75565b611dc76727c773361912ce5b60c01b611c75565b6000611dd38484612642565b9050611de967d0fe07273057a76660c01b611c75565b611dfd67b26c959350f43b2260c01b611c75565b6000611e08866115ef565b9050611e1e67f99aad243cae19c760c01b611c75565b611e32677c553a6fea2d192f60c01b611c75565b6000611e4867a88b2ed8c6a1cfb160c01b611c75565b611e5c679ea12d0a0b7ffac760c01b611c75565b8315611ea857611e76674bf97153074ff9c560c01b611c75565b611e8a6707c9a157e2e3d35c60c01b611c75565b611ea16103e88484611e9c9190612b6f565b61282e565b9050611f5e565b611ebc677fca72dfe550592a60c01b611c75565b611ed0677b1c0b83e0372dc160c01b611c75565b611eda828461282e565b82611ee59190612b8d565b9050611efb67be3db398c833245e60c01b611c75565b611f0f671d7dd991eefc8a0060c01b611c75565b60008103611f4857611f2b674528c96e27e886c160c01b611c75565b611f3f673b47a8d743d80aff60c01b611c75565b60019050611f5d565b611f5c67685082e22204087860c01b611c75565b5b5b611f7267e588ab08eac03b4e60c01b611c75565b80600460008973ffffffffffffffffffffffffffffffffffffffff1673ffffffffffffffffffffffffffffffffffffffff16815260200190815260200160002081905550611fca67dd8a451eab79ca2a60c01b611c75565b611fde676a8b89b046ceaf9460c01b611c75565b60008054906101000a900473ffffffffffffffffffffffffffffffffffffffff1673ffffffffffffffffffffffffffffffffffffffff1663c6af311a88836040518363ffffffff1660e01b8152600401612039929190612bab565b600060405180830381600087803b15801561205357600080fd5b505af1158015612067573d6000803e3d6000fd5b5050505061207f674d2ed9290c0bb22560c01b611c75565b61209367fd423d08eb4dfbd060c01b611c75565b8560038111156120a6576120a5612ae4565b5b8773ffffffffffffffffffffffffffffffffffffffff167f131b38d99bcb5ce5c25bcbb16d285fb7f60d1e0020b852e23ec21af42ba55eec836040516120ec9190612975565b60405180910390a350505050505050565b60006121076125ad565b90506001816000018190555050565b61212a677a25fc976fd46bfa60c01b611c75565b61213e67bb965204deffb31360c01b611c75565b6121526762ddc1636fc1048e60c01b611c75565b600061219d600560008673ffffffffffffffffffffffffffffffffffffffff1673ffffffffffffffffffffffffffffffffffffffff16815260200190815260200160002054836123d7565b90506121b367adc7427b5762d6be60c01b611c75565b6121c7678615ef79a190a09660c01b611c75565b428110612228576121e2677200541f6e9124fe60c01b611c75565b6121f667da6f93482910b11e60c01b611c75565b6040517fd152074900000000000000000000000000000000000000000000000000000000815260040160405180910390fd5b61223c675c905f7699bc7e4860c01b611c75565b61225067067717b167dbff9c60c01b611c75565b6122646759c3af992fd3c9f060c01b611c75565b61227a848483426122759190612b8d565b611d56565b61228e67bcbe106fcaf73d9960c01b611c75565b42600560008673ffffffffffffffffffffffffffffffffffffffff1673ffffffffffffffffffffffffffffffffffffffff1681526020019081526020016000208190555050505050565b60006122e26123af565b905060008160000160009054906101000a900473ffffffffffffffffffffffffffffffffffffffff169050828260000160006101000a81548173ffffffffffffffffffffffffffffffffffffffff021916908373ffffffffffffffffffffffffffffffffffffffff1602179055508273ffffffffffffffffffffffffffffffffffffffff168173ffffffffffffffffffffffffffffffffffffffff167f8be0079c531659141344cd1fd0a4f28419497f9722a3daafe3b4186f6b6457e060405160405180910390a3505050565b60007f9016d09d72d40fdae2fd8ceac6b6234c7706214fd39c1cd1e609a0528c199300905090565b60008183116123e657816123e8565b825b905092915050565b60007ff0c57e16840df040f15088dc2f81fe391c3923bec73e23a9662efc9c229c6a00905090565b600060019050919050565b61242b612847565b61243481612887565b50565b61243f612847565b61244761290d565b565b61245d67092da6408caf934560c01b611c75565b612471671c41288327bf31e260c01b611c75565b600f6003600080600381111561248a57612489612ae4565b5b600381111561249c5761249b612ae4565b5b8152602001908152602001600020819055506124c2670ef6f6de714e4a2360c01b611c75565b600f60036000600160038111156124dc576124db612ae4565b5b60038111156124ee576124ed612ae4565b5b815260200190815260200160002081905550612514672ef3229981db233260c01b611c75565b6064600360006002600381111561252e5761252d612ae4565b5b60038111156125405761253f612ae4565b5b8152602001908152602001600020819055506125666781b61ebf730a974760c01b611c75565b60646003600060038081111561257f5761257e612ae4565b5b600381111561259157612590612ae4565b5b815260200190815260200160002081905550565b600033905090565b60007f9b779b17422d0df92223018b32b4d1fa46e071723d6817e2486d003becc55f00905090565b60006125eb67b70eace7b487e81260c01b611c75565b6125ff67ae7641ad6b03073660c01b611c75565b6126136782c27043424a914b60c01b611c75565b6000600381111561262757612626612ae4565b5b82600381111561263a57612639612ae4565b5b149050919050565b600061265867be378c86e3afabdc60c01b611c75565b61266c67581f09b438fbba9c60c01b611c75565b61268067a85e0d1a2a88b59660c01b611c75565b600061268b84611572565b90506126a1670decf608affce8e560c01b611c75565b6126b567e9f86aebcd07beb060c01b611c75565b600260038111156126c9576126c8612ae4565b5b8460038111156126dc576126db612ae4565b5b03612726576126f567f4147d71d0ba4cc260c01b611c75565b612709674ca42e1982185b2e60c01b611c75565b61271d67bc9be412406dbced60c01b611c75565b80915050612828565b61273a6703d7e9222bcadee660c01b611c75565b61274e674dec732a26dcbf6b60c01b611c75565b60038081111561276157612760612ae4565b5b84600381111561277457612773612ae4565b5b1480156127815750600083145b156127cb5761279a674ddcf732e082dab960c01b611c75565b6127ae6751116679b3c15ce160c01b611c75565b6127c2676d037693e36d088d60c01b611c75565b80915050612828565b6127df67c853da22787d414f60c01b611c75565b6127f367fd5199a9d242677060c01b611c75565b61280767c832f7fe25ef55ad60c01b611c75565b61282461281385611019565b8461281e9190612b2c565b8261282e565b9150505b92915050565b600081831061283d578161283f565b825b905092915050565b61284f61292e565b612885576040517fd7e6bcf800000000000000000000000000000000000000000000000000000000815260040160405180910390fd5b565b61288f612847565b600073ffffffffffffffffffffffffffffffffffffffff168173ffffffffffffffffffffffffffffffffffffffff16036129015760006040517f1e4fbdf70000000000000000000000000000000000000000000000000000000081526004016128f89190612a46565b60405180910390fd5b61290a816122d8565b50565b612915612847565b600061291f6125ad565b90506001816000018190555050565b60006129386123f0565b60000160089054906101000a900460ff16905090565b600060208201905073ffffffffffffffffffffffffffffffffffffffff8316825292915050565b600060208201905082825292915050565b6000813590506004811061299957600080fd5b919050565b600080604083850312156129b157600080fd5b6129ba83612986565b9150602083013590509250929050565b60008135905073ffffffffffffffffffffffffffffffffffffffff811681146129f257600080fd5b919050565b60008060408385031215612a0a57600080fd5b612a13836129ca565b9150602083013590509250929050565b600060208284031215612a3557600080fd5b612a3e826129ca565b905092915050565b600060208201905073ffffffffffffffffffffffffffffffffffffffff8316825292915050565b600060208284031215612a7f57600080fd5b612a8882612986565b905092915050565b60008060008060808587031215612aa657600080fd5b612aaf856129ca565b9350612abd602086016129ca565b9250612acb604086016129ca565b9150612ad9606086016129ca565b905092959194509250565b634e487b7160e01b600052602160045260246000fd5b600060208284031215612b0c57600080fd5b8151905092915050565b634e487b7160e01b600052601160045260246000fd5b600082612b4957634e487b7160e01b600052601260045260246000fd5b828204905092915050565b600060208201905067ffffffffffffffff8316825292915050565b6000828201905080821115612b8757612b86612b16565b5b92915050565b6000828203905081811115612ba557612ba4612b16565b5b92915050565b600060408201905073ffffffffffffffffffffffffffffffffffffffff84168252826020830152939250505056fea264697066735822122095ceb17cecc4b5f7fa89b549dfbf7a64401e53610846aec6e51e82e63f7ec65d64736f6c63430008190033",
  "linkReferences": {},
  "deployedLinkReferences": {}
}