{
  "_format": "hh-sol-artifact-1",
  "contractName": "BonusScoreSystemMock",
  "sourceName": "contracts/mockContracts/BonusScoreSystemMock.sol",
  "abi": [
    {
      "inputs": [],
      "name": "DEFAULT_BAD_PERF_FACTOR",
      "outputs": [
        {
          "internalType": "uint256",
          "name": "",
          "type": "uint256"
        }
      ],
      "stateMutability": "view",
      "type": "function"
    },
    {
      "inputs": [],
      "name": "DEFAULT_NO_KEY_WRITE_FACTOR",
      "outputs": [
        {
          "internalType": "uint256",
          "name": "",
          "type": "uint256"
        }
      ],
      "stateMutability": "view",
      "type": "function"
    },
    {
      "inputs": [],
      "name": "DEFAULT_NO_STAND_BY_FACTOR",
      "outputs": [
        {
          "internalType": "uint256",
          "name": "",
          "type": "uint256"
        }
      ],
      "stateMutability": "view",
      "type": "function"
    },
    {
      "inputs": [],
      "name": "DEFAULT_STAND_BY_FACTOR",
      "outputs": [
        {
          "internalType": "uint256",
          "name": "",
          "type": "uint256"
        }
      ],
      "stateMutability": "view",
      "type": "function"
    },
    {
      "inputs": [],
      "name": "MAX_SCORE",
      "outputs": [
        {
          "internalType": "uint256",
          "name": "",
          "type": "uint256"
        }
      ],
      "stateMutability": "view",
      "type": "function"
    },
    {
      "inputs": [],
      "name": "MIN_SCORE",
      "outputs": [
        {
          "internalType": "uint256",
          "name": "",
          "type": "uint256"
        }
      ],
      "stateMutability": "view",
      "type": "function"
    },
    {
      "inputs": [
        {
          "internalType": "address",
          "name": "mining",
          "type": "address"
        }
      ],
      "name": "getValidatorScore",
      "outputs": [
        {
          "internalType": "uint256",
          "name": "",
          "type": "uint256"
        }
      ],
      "stateMutability": "view",
      "type": "function"
    },
    {
      "inputs": [
        {
          "internalType": "address",
          "name": "mining",
          "type": "address"
        },
        {
          "internalType": "uint256",
          "name": "",
          "type": "uint256"
        }
      ],
      "name": "penaliseBadPerformance",
      "outputs": [],
      "stateMutability": "nonpayable",
      "type": "function"
    },
    {
      "inputs": [
        {
          "internalType": "address",
          "name": "mining",
          "type": "address"
        }
      ],
      "name": "penaliseNoKeyWrite",
      "outputs": [],
      "stateMutability": "nonpayable",
      "type": "function"
    },
    {
      "inputs": [
        {
          "internalType": "address",
          "name": "mining",
          "type": "address"
        },
        {
          "internalType": "uint256",
          "name": "",
          "type": "uint256"
        }
      ],
      "name": "penaliseNoStandBy",
      "outputs": [],
      "stateMutability": "nonpayable",
      "type": "function"
    },
    {
      "inputs": [
        {
          "internalType": "address",
          "name": "mining",
          "type": "address"
        },
        {
          "internalType": "uint256",
          "name": "",
          "type": "uint256"
        }
      ],
      "name": "rewardStandBy",
      "outputs": [],
      "stateMutability": "nonpayable",
      "type": "function"
    },
    {
      "inputs": [
        {
          "internalType": "address",
          "name": "mining",
          "type": "address"
        },
        {
          "internalType": "uint256",
          "name": "value",
          "type": "uint256"
        }
      ],
      "name": "setValidatorScore",
      "outputs": [],
      "stateMutability": "nonpayable",
      "type": "function"
    },
    {
      "inputs": [
        {
          "internalType": "address",
          "name": "",
          "type": "address"
        }
      ],
      "name": "validatorScore",
      "outputs": [
        {
          "internalType": "uint256",
          "name": "",
          "type": "uint256"
        }
      ],
      "stateMutability": "view",
      "type": "function"
    },
    {
      "stateMutability": "payable",
      "type": "receive"
    }
  ],
  "bytecode": "0x6080604052348015600f57600080fd5b506104bd8061001f6000396000f3fe6080604052600436106100d65760003560e01c806357bfcbee1161007f57806392f294431161005957806392f29443146101d8578063e33e59d4146101f8578063e5079ddc1461022f578063fee5c6421461015657600080fd5b806357bfcbee1461018b5780635da8d087146101ab578063881b56a61461010a57600080fd5b806340b89270116100b057806340b892701461014157806347288cd71461015657806351150d571461016b57600080fd5b806327ff6223146100e257806336155c3d1461010a5780633dc12d231461011f57600080fd5b366100dd57005b600080fd5b3480156100ee57600080fd5b506100f86103e881565b60405190815260200160405180910390f35b34801561011657600080fd5b506100f8606481565b34801561012b57600080fd5b5061013f61013a366004610406565b61024f565b005b34801561014d57600080fd5b506100f8600181565b34801561016257600080fd5b506100f8600f81565b34801561017757600080fd5b5061013f610186366004610406565b6102b8565b34801561019757600080fd5b5061013f6101a6366004610430565b610303565b3480156101b757600080fd5b506100f86101c6366004610430565b60006020819052908152604090205481565b3480156101e457600080fd5b5061013f6101f3366004610406565b61036a565b34801561020457600080fd5b5061013f610213366004610406565b6001600160a01b03909116600090815260208190526040902055565b34801561023b57600080fd5b506100f861024a366004610430565b610399565b6001600160a01b0382166000908152602081905260409020546064811161028f5750506001600160a01b0316600090815260208190526040902060019055565b61029a606482610461565b6001600160a01b038416600090815260208190526040902055505050565b6001600160a01b038216600090815260208190526040902054600f81116102f85750506001600160a01b0316600090815260208190526040902060019055565b61029a600f82610461565b6001600160a01b0381166000908152602081905260409020546064811161034257506001600160a01b0316600090815260208190526040902060019055565b61034d606482610461565b6001600160a01b0383166000908152602081905260409020555050565b6001600160a01b03821660009081526020819052604090205461029a610391600f83610474565b6103e86103c3565b6001600160a01b0381166000908152602081905260408120546103bd9060016103db565b92915050565b60008183106103d257816103d4565b825b9392505050565b60008183116103d257816103d4565b80356001600160a01b038116811461040157600080fd5b919050565b6000806040838503121561041957600080fd5b610422836103ea565b946020939093013593505050565b60006020828403121561044257600080fd5b6103d4826103ea565b634e487b7160e01b600052601160045260246000fd5b818103818111156103bd576103bd61044b565b808201808211156103bd576103bd61044b56fea26469706673582212209eac0c5e31651fa2d0a7914b0d1a5e76879fa242c8147a41d29ff9ca277cef5964736f6c63430008190033",
  "linkReferences": {},
  "deployedLinkReferences": {}
}