{
  "_format": "hh-sol-artifact-1",
  "contractName": "BonusScoreSystemMock",
  "sourceName": "contracts/mockContracts/BonusScoreSystemMock.sol",
  "abi": [
    {
      "inputs": [],
      "name": "DEFAULT_BAD_PERF_FACTOR",
      "outputs": [
        {
          "internalType": "uint256",
          "name": "",
          "type": "uint256"
        }
      ],
      "stateMutability": "view",
      "type": "function"
    },
    {
      "inputs": [],
      "name": "DEFAULT_NO_KEY_WRITE_FACTOR",
      "outputs": [
        {
          "internalType": "uint256",
          "name": "",
          "type": "uint256"
        }
      ],
      "stateMutability": "view",
      "type": "function"
    },
    {
      "inputs": [],
      "name": "DEFAULT_NO_STAND_BY_FACTOR",
      "outputs": [
        {
          "internalType": "uint256",
          "name": "",
          "type": "uint256"
        }
      ],
      "stateMutability": "view",
      "type": "function"
    },
    {
      "inputs": [],
      "name": "DEFAULT_STAND_BY_FACTOR",
      "outputs": [
        {
          "internalType": "uint256",
          "name": "",
          "type": "uint256"
        }
      ],
      "stateMutability": "view",
      "type": "function"
    },
    {
      "inputs": [],
      "name": "MAX_SCORE",
      "outputs": [
        {
          "internalType": "uint256",
          "name": "",
          "type": "uint256"
        }
      ],
      "stateMutability": "view",
      "type": "function"
    },
    {
      "inputs": [],
      "name": "MIN_SCORE",
      "outputs": [
        {
          "internalType": "uint256",
          "name": "",
          "type": "uint256"
        }
      ],
      "stateMutability": "view",
      "type": "function"
    },
    {
      "inputs": [
        {
          "internalType": "address",
          "name": "mining",
          "type": "address"
        }
      ],
      "name": "getValidatorScore",
      "outputs": [
        {
          "internalType": "uint256",
          "name": "",
          "type": "uint256"
        }
      ],
      "stateMutability": "view",
      "type": "function"
    },
    {
      "inputs": [
        {
          "internalType": "address",
          "name": "mining",
          "type": "address"
        },
        {
          "internalType": "uint256",
          "name": "",
          "type": "uint256"
        }
      ],
      "name": "penaliseBadPerformance",
      "outputs": [],
      "stateMutability": "nonpayable",
      "type": "function"
    },
    {
      "inputs": [
        {
          "internalType": "address",
          "name": "mining",
          "type": "address"
        }
      ],
      "name": "penaliseNoKeyWrite",
      "outputs": [],
      "stateMutability": "nonpayable",
      "type": "function"
    },
    {
      "inputs": [
        {
          "internalType": "address",
          "name": "mining",
          "type": "address"
        },
        {
          "internalType": "uint256",
          "name": "",
          "type": "uint256"
        }
      ],
      "name": "penaliseNoStandBy",
      "outputs": [],
      "stateMutability": "nonpayable",
      "type": "function"
    },
    {
      "inputs": [
        {
          "internalType": "address",
          "name": "mining",
          "type": "address"
        },
        {
          "internalType": "uint256",
          "name": "",
          "type": "uint256"
        }
      ],
      "name": "rewardStandBy",
      "outputs": [],
      "stateMutability": "nonpayable",
      "type": "function"
    },
    {
      "inputs": [
        {
          "internalType": "address",
          "name": "mining",
          "type": "address"
        },
        {
          "internalType": "uint256",
          "name": "value",
          "type": "uint256"
        }
      ],
      "name": "setValidatorScore",
      "outputs": [],
      "stateMutability": "nonpayable",
      "type": "function"
    },
    {
      "inputs": [
        {
          "internalType": "address",
          "name": "",
          "type": "address"
        }
      ],
      "name": "validatorScore",
      "outputs": [
        {
          "internalType": "uint256",
          "name": "",
          "type": "uint256"
        }
      ],
      "stateMutability": "view",
      "type": "function"
    },
    {
      "stateMutability": "payable",
      "type": "receive"
    }
  ],
  "bytecode": "0x6080604052348015600f57600080fd5b5061089e8061001f6000396000f3fe6080604052600436106100d65760003560e01c806357bfcbee1161007f57806392f294431161005957806392f2944314610271578063e33e59d41461029a578063e5079ddc146102c3578063fee5c64214610300576100dd565b806357bfcbee146101e05780635da8d08714610209578063881b56a614610246576100dd565b806340b89270116100b057806340b892701461016157806347288cd71461018c57806351150d57146101b7576100dd565b806327ff6223146100e257806336155c3d1461010d5780633dc12d2314610138576100dd565b366100dd57005b600080fd5b3480156100ee57600080fd5b506100f761032b565b6040516101049190610789565b60405180910390f35b34801561011957600080fd5b50610122610331565b60405161012f9190610789565b60405180910390f35b34801561014457600080fd5b5061015f600480360381019061015a91906107c7565b610336565b005b34801561016d57600080fd5b5061017661041f565b6040516101839190610789565b60405180910390f35b34801561019857600080fd5b506101a1610424565b6040516101ae9190610789565b60405180910390f35b3480156101c357600080fd5b506101de60048036038101906101d991906107c7565b610429565b005b3480156101ec57600080fd5b50610207600480360381019061020291906107f3565b610512565b005b34801561021557600080fd5b50610230600480360381019061022b91906107f3565b6105fa565b60405161023d9190610789565b60405180910390f35b34801561025257600080fd5b5061025b610612565b6040516102689190610789565b60405180910390f35b34801561027d57600080fd5b50610298600480360381019061029391906107c7565b610617565b005b3480156102a657600080fd5b506102c160048036038101906102bc91906107c7565b6106b9565b005b3480156102cf57600080fd5b506102ea60048036038101906102e591906107f3565b610700565b6040516102f79190610789565b60405180910390f35b34801561030c57600080fd5b50610315610752565b6040516103229190610789565b60405180910390f35b6103e881565b606481565b60008060008473ffffffffffffffffffffffffffffffffffffffff1673ffffffffffffffffffffffffffffffffffffffff168152602001908152602001600020549050606481116103ca5760016000808573ffffffffffffffffffffffffffffffffffffffff1673ffffffffffffffffffffffffffffffffffffffff1681526020019081526020016000208190555061041a565b6064816103d7919061082c565b6000808573ffffffffffffffffffffffffffffffffffffffff1673ffffffffffffffffffffffffffffffffffffffff168152602001908152602001600020819055505b505050565b600181565b600f81565b60008060008473ffffffffffffffffffffffffffffffffffffffff1673ffffffffffffffffffffffffffffffffffffffff168152602001908152602001600020549050600f81116104bd5760016000808573ffffffffffffffffffffffffffffffffffffffff1673ffffffffffffffffffffffffffffffffffffffff1681526020019081526020016000208190555061050d565b600f816104ca919061082c565b6000808573ffffffffffffffffffffffffffffffffffffffff1673ffffffffffffffffffffffffffffffffffffffff168152602001908152602001600020819055505b505050565b60008060008373ffffffffffffffffffffffffffffffffffffffff1673ffffffffffffffffffffffffffffffffffffffff168152602001908152602001600020549050606481116105a65760016000808473ffffffffffffffffffffffffffffffffffffffff1673ffffffffffffffffffffffffffffffffffffffff168152602001908152602001600020819055506105f6565b6064816105b3919061082c565b6000808473ffffffffffffffffffffffffffffffffffffffff1673ffffffffffffffffffffffffffffffffffffffff168152602001908152602001600020819055505b5050565b60006020528060005260406000206000915090505481565b606481565b60008060008473ffffffffffffffffffffffffffffffffffffffff1673ffffffffffffffffffffffffffffffffffffffff168152602001908152602001600020549050610672600f8261066a919061084a565b6103e8610757565b6000808573ffffffffffffffffffffffffffffffffffffffff1673ffffffffffffffffffffffffffffffffffffffff16815260200190815260200160002081905550505050565b806000808473ffffffffffffffffffffffffffffffffffffffff1673ffffffffffffffffffffffffffffffffffffffff168152602001908152602001600020819055505050565b600061074b6000808473ffffffffffffffffffffffffffffffffffffffff1673ffffffffffffffffffffffffffffffffffffffff168152602001908152602001600020546001610770565b9050919050565b600f81565b60008183106107665781610768565b825b905092915050565b600081831161077f5781610781565b825b905092915050565b600060208201905082825292915050565b60008135905073ffffffffffffffffffffffffffffffffffffffff811681146107c257600080fd5b919050565b600080604083850312156107da57600080fd5b6107e38361079a565b9150602083013590509250929050565b60006020828403121561080557600080fd5b61080e8261079a565b905092915050565b634e487b7160e01b600052601160045260246000fd5b600082820390508181111561084457610843610816565b5b92915050565b600082820190508082111561086257610861610816565b5b9291505056fea2646970667358221220597752097bb93a7dca2ea74efcf79693f2feddb03ea98dabe8732ff996c6e8c164736f6c63430008190033",
  "linkReferences": {},
  "deployedLinkReferences": {}
}