{
  "_format": "hh-sol-artifact-1",
  "contractName": "BonusScoreSystem",
  "sourceName": "contracts/BonusScoreSystem.sol",
  "abi": [
    {
      "inputs": [],
      "name": "InvalidInitialization",
      "type": "error"
    },
    {
      "inputs": [],
      "name": "InvalidIntervalStartTimestamp",
      "type": "error"
    },
    {
      "inputs": [],
      "name": "NotInitializing",
      "type": "error"
    },
    {
      "inputs": [
        {
          "internalType": "address",
          "name": "owner",
          "type": "address"
        }
      ],
      "name": "OwnableInvalidOwner",
      "type": "error"
    },
    {
      "inputs": [
        {
          "internalType": "address",
          "name": "account",
          "type": "address"
        }
      ],
      "name": "OwnableUnauthorizedAccount",
      "type": "error"
    },
    {
      "inputs": [],
      "name": "ReentrancyGuardReentrantCall",
      "type": "error"
    },
    {
      "inputs": [],
      "name": "Unauthorized",
      "type": "error"
    },
    {
      "inputs": [],
      "name": "ZeroAddress",
      "type": "error"
    },
    {
      "anonymous": false,
      "inputs": [
        {
          "indexed": false,
          "internalType": "uint64",
          "name": "version",
          "type": "uint64"
        }
      ],
      "name": "Initialized",
      "type": "event"
    },
    {
      "anonymous": false,
      "inputs": [
        {
          "indexed": true,
          "internalType": "address",
          "name": "previousOwner",
          "type": "address"
        },
        {
          "indexed": true,
          "internalType": "address",
          "name": "newOwner",
          "type": "address"
        }
      ],
      "name": "OwnershipTransferred",
      "type": "event"
    },
    {
      "anonymous": false,
      "inputs": [
        {
          "indexed": true,
          "internalType": "enum ScoringFactor",
          "name": "factor",
          "type": "uint8"
        },
        {
          "indexed": false,
          "internalType": "uint256",
          "name": "value",
          "type": "uint256"
        }
      ],
      "name": "UpdateScoringFactor",
      "type": "event"
    },
    {
      "anonymous": false,
      "inputs": [
        {
          "indexed": true,
          "internalType": "address",
          "name": "miningAddress",
          "type": "address"
        },
        {
          "indexed": true,
          "internalType": "enum ScoringFactor",
          "name": "factor",
          "type": "uint8"
        },
        {
          "indexed": false,
          "internalType": "uint256",
          "name": "newScore",
          "type": "uint256"
        }
      ],
      "name": "ValidatorScoreChanged",
      "type": "event"
    },
    {
      "inputs": [],
      "name": "DEFAULT_BAD_PERF_FACTOR",
      "outputs": [
        {
          "internalType": "uint256",
          "name": "",
          "type": "uint256"
        }
      ],
      "stateMutability": "view",
      "type": "function"
    },
    {
      "inputs": [],
      "name": "DEFAULT_NO_KEY_WRITE_FACTOR",
      "outputs": [
        {
          "internalType": "uint256",
          "name": "",
          "type": "uint256"
        }
      ],
      "stateMutability": "view",
      "type": "function"
    },
    {
      "inputs": [],
      "name": "DEFAULT_NO_STAND_BY_FACTOR",
      "outputs": [
        {
          "internalType": "uint256",
          "name": "",
          "type": "uint256"
        }
      ],
      "stateMutability": "view",
      "type": "function"
    },
    {
      "inputs": [],
      "name": "DEFAULT_STAND_BY_FACTOR",
      "outputs": [
        {
          "internalType": "uint256",
          "name": "",
          "type": "uint256"
        }
      ],
      "stateMutability": "view",
      "type": "function"
    },
    {
      "inputs": [],
      "name": "MAX_SCORE",
      "outputs": [
        {
          "internalType": "uint256",
          "name": "",
          "type": "uint256"
        }
      ],
      "stateMutability": "view",
      "type": "function"
    },
    {
      "inputs": [],
      "name": "MIN_SCORE",
      "outputs": [
        {
          "internalType": "uint256",
          "name": "",
          "type": "uint256"
        }
      ],
      "stateMutability": "view",
      "type": "function"
    },
    {
      "inputs": [],
      "name": "connectivityTracker",
      "outputs": [
        {
          "internalType": "address",
          "name": "",
          "type": "address"
        }
      ],
      "stateMutability": "view",
      "type": "function"
    },
    {
      "inputs": [
        {
          "internalType": "enum ScoringFactor",
          "name": "factor",
          "type": "uint8"
        }
      ],
      "name": "getScoringFactorValue",
      "outputs": [
        {
          "internalType": "uint256",
          "name": "",
          "type": "uint256"
        }
      ],
      "stateMutability": "view",
      "type": "function"
    },
    {
      "inputs": [
        {
          "internalType": "enum ScoringFactor",
          "name": "factor",
          "type": "uint8"
        }
      ],
      "name": "getTimePerScorePoint",
      "outputs": [
        {
          "internalType": "uint256",
          "name": "",
          "type": "uint256"
        }
      ],
      "stateMutability": "view",
      "type": "function"
    },
    {
      "inputs": [
        {
          "internalType": "address",
          "name": "mining",
          "type": "address"
        }
      ],
      "name": "getValidatorScore",
      "outputs": [
        {
          "internalType": "uint256",
          "name": "",
          "type": "uint256"
        }
      ],
      "stateMutability": "view",
      "type": "function"
    },
    {
      "inputs": [
        {
          "internalType": "address",
          "name": "_owner",
          "type": "address"
        },
        {
          "internalType": "address",
          "name": "_validatorSetHbbft",
          "type": "address"
        },
        {
          "internalType": "address",
          "name": "_connectivityTracker",
          "type": "address"
        },
        {
          "internalType": "address",
          "name": "_stakingHbbft",
          "type": "address"
        }
      ],
      "name": "initialize",
      "outputs": [],
      "stateMutability": "nonpayable",
      "type": "function"
    },
    {
      "inputs": [],
      "name": "owner",
      "outputs": [
        {
          "internalType": "address",
          "name": "",
          "type": "address"
        }
      ],
      "stateMutability": "view",
      "type": "function"
    },
    {
      "inputs": [
        {
          "internalType": "address",
          "name": "mining",
          "type": "address"
        },
        {
          "internalType": "uint256",
          "name": "time",
          "type": "uint256"
        }
      ],
      "name": "penaliseBadPerformance",
      "outputs": [],
      "stateMutability": "nonpayable",
      "type": "function"
    },
    {
      "inputs": [
        {
          "internalType": "address",
          "name": "mining",
          "type": "address"
        }
      ],
      "name": "penaliseNoKeyWrite",
      "outputs": [],
      "stateMutability": "nonpayable",
      "type": "function"
    },
    {
      "inputs": [
        {
          "internalType": "address",
          "name": "mining",
          "type": "address"
        },
        {
          "internalType": "uint256",
          "name": "unavailableSince",
          "type": "uint256"
        }
      ],
      "name": "penaliseNoStandBy",
      "outputs": [],
      "stateMutability": "nonpayable",
      "type": "function"
    },
    {
      "inputs": [],
      "name": "renounceOwnership",
      "outputs": [],
      "stateMutability": "nonpayable",
      "type": "function"
    },
    {
      "inputs": [
        {
          "internalType": "address",
          "name": "mining",
          "type": "address"
        },
        {
          "internalType": "uint256",
          "name": "availableSince",
          "type": "uint256"
        }
      ],
      "name": "rewardStandBy",
      "outputs": [],
      "stateMutability": "nonpayable",
      "type": "function"
    },
    {
      "inputs": [],
      "name": "stakingHbbft",
      "outputs": [
        {
          "internalType": "contract IStakingHbbft",
          "name": "",
          "type": "address"
        }
      ],
      "stateMutability": "view",
      "type": "function"
    },
    {
      "inputs": [
        {
          "internalType": "address",
          "name": "newOwner",
          "type": "address"
        }
      ],
      "name": "transferOwnership",
      "outputs": [],
      "stateMutability": "nonpayable",
      "type": "function"
    },
    {
      "inputs": [],
      "name": "validatorSetHbbft",
      "outputs": [
        {
          "internalType": "address",
          "name": "",
          "type": "address"
        }
      ],
      "stateMutability": "view",
      "type": "function"
    }
  ],
  "bytecode": "0x6080604052348015600f57600080fd5b50610dc28061001f6000396000f3fe608060405234801561001057600080fd5b506004361061016c5760003560e01c8063803615b8116100cd578063c66a07f111610081578063f2fde38b11610066578063f2fde38b146102b5578063f8c8765e146102c8578063fee5c642146101dd57600080fd5b8063c66a07f11461028f578063e5079ddc146102a257600080fd5b80638da5cb5b116100b25780638da5cb5b1461023957806392f2944314610269578063c5ca3e131461027c57600080fd5b8063803615b814610226578063881b56a6146101b857600080fd5b806347288cd71161012457806357bfcbee1161010957806357bfcbee146101f8578063669554691461020b578063715018a61461021e57600080fd5b806347288cd7146101dd57806351150d57146101e557600080fd5b806336155c3d1161015557806336155c3d146101b85780633dc12d23146101c057806340b89270146101d557600080fd5b80631243e6cb1461017157806327ff6223146101a1575b600080fd5b600054610184906001600160a01b031681565b6040516001600160a01b0390911681526020015b60405180910390f35b6101aa6103e881565b604051908152602001610198565b6101aa606481565b6101d36101ce366004610c45565b6102db565b005b6101aa600181565b6101aa600f81565b6101d36101f3366004610c45565b610346565b6101d3610206366004610c6f565b610384565b600254610184906001600160a01b031681565b6101d36103ef565b6101aa610234366004610c8a565b610403565b7f9016d09d72d40fdae2fd8ceac6b6234c7706214fd39c1cd1e609a0528c199300546001600160a01b0316610184565b6101d3610277366004610c45565b61048d565b600154610184906001600160a01b031681565b6101aa61029d366004610c8a565b6104cb565b6101aa6102b0366004610c6f565b61050a565b6101d36102c3366004610c6f565b610534565b6101d36102d6366004610cab565b610574565b6002546001600160a01b03163314610305576040516282b42960e81b815260040160405180910390fd5b61030d6107e5565b6103198260038361082f565b61034260017f9b779b17422d0df92223018b32b4d1fa46e071723d6817e2486d003becc55f0055565b5050565b6001546001600160a01b03163314610370576040516282b42960e81b815260040160405180910390fd5b6103786107e5565b6103198260018361099b565b6001546001600160a01b031633146103ae576040516282b42960e81b815260040160405180910390fd5b6103b66107e5565b6103c3816002600061082f565b6103ec60017f9b779b17422d0df92223018b32b4d1fa46e071723d6817e2486d003becc55f0055565b50565b6103f7610a13565b6104016000610a6e565b565b6000805460408051634f9a8d8f60e01b8152905183926001600160a01b031691634f9a8d8f9160048083019260209291908290030181865afa15801561044d573d6000803e3d6000fd5b505050506040513d601f19601f820116820180604052508101906104719190610cff565b905061047c836104cb565b6104869082610d2e565b9392505050565b6001546001600160a01b031633146104b7576040516282b42960e81b815260040160405180910390fd5b6104bf6107e5565b6103198260008361099b565b6000600360008360038111156104e3576104e3610d50565b60038111156104f4576104f4610d50565b8152602001908152602001600020549050919050565b6001600160a01b03811660009081526004602052604081205461052e906001610aec565b92915050565b61053c610a13565b6001600160a01b03811661056b57604051631e4fbdf760e01b8152600060048201526024015b60405180910390fd5b6103ec81610a6e565b7ff0c57e16840df040f15088dc2f81fe391c3923bec73e23a9662efc9c229c6a00805468010000000000000000810460ff16159067ffffffffffffffff166000811580156105bf5750825b905060008267ffffffffffffffff1660011480156105dc5750303b155b9050811580156105ea575080155b156106085760405163f92ee8a960e01b815260040160405180910390fd5b845467ffffffffffffffff19166001178555831561063c57845468ff00000000000000001916680100000000000000001785555b6001600160a01b038916158061065957506001600160a01b038816155b8061066b57506001600160a01b038716155b8061067d57506001600160a01b038616155b1561069b5760405163d92e233d60e01b815260040160405180910390fd5b6106a489610b02565b6106ac610b13565b600180546001600160a01b038a811673ffffffffffffffffffffffffffffffffffffffff1992831617909255600280548a8416908316179055600080549289169290911691909117815560036020819052600f7f3617319a054d772f909f7c479a2cebe5066e836a939412e32403c99029b92eff8190557fa15bc60c955c405d20d9149c709e2460f1c2d9a497496a7f46004d1772c3054c5560647fc3a24b0501bd2c13a7e57f2db4369ec4c223447539fc0724a9d55ac4a06ebd4d81905591527fcbc4e5fb02c3d1de23a9f1e014b4d2ee5aeaea9505df5e855c9210bf472495af5583156107da57845468ff000000000000000019168555604051600181527fc7f505b2f371ae2175ee4913f4499e1f2633a7b5936321eed1cdaeb6115181d29060200160405180910390a15b505050505050505050565b7f9b779b17422d0df92223018b32b4d1fa46e071723d6817e2486d003becc55f0080546001190161082957604051633ee5aeb560e01b815260040160405180910390fd5b60029055565b600061083a83610b23565b905060006108488484610b3f565b905060006108558661050a565b90506000831561087b576108746103e861086f8585610d66565b610bbc565b905061089d565b6108858284610bbc565b61088f9083610d79565b90508060000361089d575060015b6001600160a01b03878116600081815260046020819052604080832086905591549151636357988d60e11b815290810192909252602482018490529091169063c6af311a90604401600060405180830381600087803b1580156108ff57600080fd5b505af1158015610913573d6000803e3d6000fd5b5050505085600381111561092957610929610d50565b876001600160a01b03167f131b38d99bcb5ce5c25bcbb16d285fb7f60d1e0020b852e23ec21af42ba55eec8360405161096491815260200190565b60405180910390a350505050505050565b60017f9b779b17422d0df92223018b32b4d1fa46e071723d6817e2486d003becc55f0055565b6001600160a01b0383166000908152600560205260408120546109be9083610aec565b90504281106109e05760405163d152074960e01b815260040160405180910390fd5b6109f484846109ef8442610d79565b61082f565b5050506001600160a01b03166000908152600560205260409020429055565b33610a457f9016d09d72d40fdae2fd8ceac6b6234c7706214fd39c1cd1e609a0528c199300546001600160a01b031690565b6001600160a01b0316146104015760405163118cdaa760e01b8152336004820152602401610562565b7f9016d09d72d40fdae2fd8ceac6b6234c7706214fd39c1cd1e609a0528c199300805473ffffffffffffffffffffffffffffffffffffffff1981166001600160a01b03848116918217845560405192169182907f8be0079c531659141344cd1fd0a4f28419497f9722a3daafe3b4186f6b6457e090600090a3505050565b6000818311610afb5781610486565b5090919050565b610b0a610bcb565b6103ec81610c19565b610b1b610bcb565b610401610c21565b600080826003811115610b3857610b38610d50565b1492915050565b600080610b4b846104cb565b90506002846003811115610b6157610b61610d50565b03610b6d57905061052e565b6003846003811115610b8157610b81610d50565b148015610b8c575082155b15610b9857905061052e565b610bb4610ba485610403565b610bae9085610d2e565b82610bbc565b91505061052e565b6000818310610afb5781610486565b7ff0c57e16840df040f15088dc2f81fe391c3923bec73e23a9662efc9c229c6a005468010000000000000000900460ff1661040157604051631afcd79f60e31b815260040160405180910390fd5b61053c610bcb565b610975610bcb565b80356001600160a01b0381168114610c4057600080fd5b919050565b60008060408385031215610c5857600080fd5b610c6183610c29565b946020939093013593505050565b600060208284031215610c8157600080fd5b61048682610c29565b600060208284031215610c9c57600080fd5b81356004811061048657600080fd5b60008060008060808587031215610cc157600080fd5b610cca85610c29565b9350610cd860208601610c29565b9250610ce660408601610c29565b9150610cf460608601610c29565b905092959194509250565b600060208284031215610d1157600080fd5b5051919050565b634e487b7160e01b600052601160045260246000fd5b600082610d4b57634e487b7160e01b600052601260045260246000fd5b500490565b634e487b7160e01b600052602160045260246000fd5b8082018082111561052e5761052e610d18565b8181038181111561052e5761052e610d1856fea26469706673582212202b63c9ea496d2f87b32f45bfde988bb75b42dbcf0e18a894a0526f546ec0a16064736f6c63430008190033",
  "linkReferences": {},
  "deployedLinkReferences": {}
}