{
  "_format": "hh-sol-artifact-1",
  "contractName": "BonusScoreSystem",
  "sourceName": "contracts/BonusScoreSystem.sol",
  "abi": [
    {
      "inputs": [],
      "name": "GetterCallFailed",
      "type": "error"
    },
    {
      "inputs": [],
      "name": "InvalidInitialization",
      "type": "error"
    },
    {
      "inputs": [],
      "name": "InvalidIntervalStartTimestamp",
      "type": "error"
    },
    {
      "inputs": [
        {
          "internalType": "uint256",
          "name": "_newVal",
          "type": "uint256"
        }
      ],
      "name": "NewValueOutOfRange",
      "type": "error"
    },
    {
      "inputs": [],
      "name": "NotInitializing",
      "type": "error"
    },
    {
      "inputs": [
        {
          "internalType": "address",
          "name": "owner",
          "type": "address"
        }
      ],
      "name": "OwnableInvalidOwner",
      "type": "error"
    },
    {
      "inputs": [
        {
          "internalType": "address",
          "name": "account",
          "type": "address"
        }
      ],
      "name": "OwnableUnauthorizedAccount",
      "type": "error"
    },
    {
      "inputs": [],
      "name": "ReentrancyGuardReentrantCall",
      "type": "error"
    },
    {
      "inputs": [],
      "name": "Unauthorized",
      "type": "error"
    },
    {
      "inputs": [],
      "name": "ZeroAddress",
      "type": "error"
    },
    {
      "anonymous": false,
      "inputs": [
        {
          "indexed": false,
          "internalType": "uint64",
          "name": "version",
          "type": "uint64"
        }
      ],
      "name": "Initialized",
      "type": "event"
    },
    {
      "anonymous": false,
      "inputs": [
        {
          "indexed": true,
          "internalType": "address",
          "name": "previousOwner",
          "type": "address"
        },
        {
          "indexed": true,
          "internalType": "address",
          "name": "newOwner",
          "type": "address"
        }
      ],
      "name": "OwnershipTransferred",
      "type": "event"
    },
    {
      "anonymous": false,
      "inputs": [
        {
          "indexed": false,
          "internalType": "bytes4",
          "name": "funcSelector",
          "type": "bytes4"
        }
      ],
      "name": "RemoveChangeableParameter",
      "type": "event"
    },
    {
      "anonymous": false,
      "inputs": [
        {
          "indexed": false,
          "internalType": "bytes4",
          "name": "setter",
          "type": "bytes4"
        },
        {
          "indexed": false,
          "internalType": "bytes4",
          "name": "getter",
          "type": "bytes4"
        },
        {
          "indexed": false,
          "internalType": "uint256[]",
          "name": "params",
          "type": "uint256[]"
        }
      ],
      "name": "SetChangeableParameter",
      "type": "event"
    },
    {
      "anonymous": false,
      "inputs": [
        {
          "indexed": false,
          "internalType": "uint256",
          "name": "standByFactor",
          "type": "uint256"
        }
      ],
      "name": "SetStandByFactor",
      "type": "event"
    },
    {
      "anonymous": false,
      "inputs": [
        {
          "indexed": true,
          "internalType": "enum ScoringFactor",
          "name": "factor",
          "type": "uint8"
        },
        {
          "indexed": false,
          "internalType": "uint256",
          "name": "value",
          "type": "uint256"
        }
      ],
      "name": "UpdateScoringFactor",
      "type": "event"
    },
    {
      "anonymous": false,
      "inputs": [
        {
          "indexed": true,
          "internalType": "address",
          "name": "miningAddress",
          "type": "address"
        },
        {
          "indexed": true,
          "internalType": "enum ScoringFactor",
          "name": "factor",
          "type": "uint8"
        },
        {
          "indexed": false,
          "internalType": "uint256",
          "name": "newScore",
          "type": "uint256"
        }
      ],
      "name": "ValidatorScoreChanged",
      "type": "event"
    },
    {
      "inputs": [],
      "name": "DEFAULT_BAD_PERF_FACTOR",
      "outputs": [
        {
          "internalType": "uint256",
          "name": "",
          "type": "uint256"
        }
      ],
      "stateMutability": "view",
      "type": "function"
    },
    {
      "inputs": [],
      "name": "DEFAULT_NO_KEY_WRITE_FACTOR",
      "outputs": [
        {
          "internalType": "uint256",
          "name": "",
          "type": "uint256"
        }
      ],
      "stateMutability": "view",
      "type": "function"
    },
    {
      "inputs": [],
      "name": "DEFAULT_NO_STAND_BY_FACTOR",
      "outputs": [
        {
          "internalType": "uint256",
          "name": "",
          "type": "uint256"
        }
      ],
      "stateMutability": "view",
      "type": "function"
    },
    {
      "inputs": [],
      "name": "MAX_SCORE",
      "outputs": [
        {
          "internalType": "uint256",
          "name": "",
          "type": "uint256"
        }
      ],
      "stateMutability": "view",
      "type": "function"
    },
    {
      "inputs": [],
      "name": "MIN_SCORE",
      "outputs": [
        {
          "internalType": "uint256",
          "name": "",
          "type": "uint256"
        }
      ],
      "stateMutability": "view",
      "type": "function"
    },
    {
      "inputs": [],
      "name": "connectivityTracker",
      "outputs": [
        {
          "internalType": "address",
          "name": "",
          "type": "address"
        }
      ],
      "stateMutability": "view",
      "type": "function"
    },
    {
      "inputs": [
        {
          "internalType": "string",
          "name": "_selector",
          "type": "string"
        }
      ],
      "name": "getAllowedParamsRange",
      "outputs": [
        {
          "components": [
            {
              "internalType": "bytes4",
              "name": "getter",
              "type": "bytes4"
            },
            {
              "internalType": "uint256[]",
              "name": "range",
              "type": "uint256[]"
            }
          ],
          "internalType": "struct ValueGuards.ParameterRange",
          "name": "",
          "type": "tuple"
        }
      ],
      "stateMutability": "view",
      "type": "function"
    },
    {
      "inputs": [
        {
          "internalType": "bytes4",
          "name": "_selector",
          "type": "bytes4"
        }
      ],
      "name": "getAllowedParamsRangeWithSelector",
      "outputs": [
        {
          "components": [
            {
              "internalType": "bytes4",
              "name": "getter",
              "type": "bytes4"
            },
            {
              "internalType": "uint256[]",
              "name": "range",
              "type": "uint256[]"
            }
          ],
          "internalType": "struct ValueGuards.ParameterRange",
          "name": "",
          "type": "tuple"
        }
      ],
      "stateMutability": "view",
      "type": "function"
    },
    {
      "inputs": [
        {
          "internalType": "enum ScoringFactor",
          "name": "factor",
          "type": "uint8"
        }
      ],
      "name": "getScoringFactorValue",
      "outputs": [
        {
          "internalType": "uint256",
          "name": "",
          "type": "uint256"
        }
      ],
      "stateMutability": "view",
      "type": "function"
    },
    {
      "inputs": [
        {
          "internalType": "enum ScoringFactor",
          "name": "factor",
          "type": "uint8"
        }
      ],
      "name": "getTimePerScorePoint",
      "outputs": [
        {
          "internalType": "uint256",
          "name": "",
          "type": "uint256"
        }
      ],
      "stateMutability": "view",
      "type": "function"
    },
    {
      "inputs": [
        {
          "internalType": "address",
          "name": "mining",
          "type": "address"
        }
      ],
      "name": "getValidatorScore",
      "outputs": [
        {
          "internalType": "uint256",
          "name": "",
          "type": "uint256"
        }
      ],
      "stateMutability": "view",
      "type": "function"
    },
    {
      "inputs": [
        {
          "internalType": "address",
          "name": "_owner",
          "type": "address"
        },
        {
          "internalType": "address",
          "name": "_validatorSetHbbft",
          "type": "address"
        },
        {
          "internalType": "address",
          "name": "_connectivityTracker",
          "type": "address"
        },
        {
          "internalType": "address",
          "name": "_stakingHbbft",
          "type": "address"
        }
      ],
      "name": "initialize",
      "outputs": [],
      "stateMutability": "nonpayable",
      "type": "function"
    },
    {
      "inputs": [
        {
          "internalType": "bytes4",
          "name": "funcSelector",
          "type": "bytes4"
        },
        {
          "internalType": "uint256",
          "name": "newVal",
          "type": "uint256"
        }
      ],
      "name": "isWithinAllowedRange",
      "outputs": [
        {
          "internalType": "bool",
          "name": "",
          "type": "bool"
        }
      ],
      "stateMutability": "view",
      "type": "function"
    },
    {
      "inputs": [],
      "name": "owner",
      "outputs": [
        {
          "internalType": "address",
          "name": "",
          "type": "address"
        }
      ],
      "stateMutability": "view",
      "type": "function"
    },
    {
      "inputs": [
        {
          "internalType": "address",
          "name": "mining",
          "type": "address"
        },
        {
          "internalType": "uint256",
          "name": "time",
          "type": "uint256"
        }
      ],
      "name": "penaliseBadPerformance",
      "outputs": [],
      "stateMutability": "nonpayable",
      "type": "function"
    },
    {
      "inputs": [
        {
          "internalType": "address",
          "name": "mining",
          "type": "address"
        }
      ],
      "name": "penaliseNoKeyWrite",
      "outputs": [],
      "stateMutability": "nonpayable",
      "type": "function"
    },
    {
      "inputs": [
        {
          "internalType": "address",
          "name": "mining",
          "type": "address"
        },
        {
          "internalType": "uint256",
          "name": "unavailableSince",
          "type": "uint256"
        }
      ],
      "name": "penaliseNoStandBy",
      "outputs": [],
      "stateMutability": "nonpayable",
      "type": "function"
    },
    {
      "inputs": [
        {
          "internalType": "bytes4",
          "name": "funcSelector",
          "type": "bytes4"
        }
      ],
      "name": "removeAllowedChangeableParameter",
      "outputs": [],
      "stateMutability": "nonpayable",
      "type": "function"
    },
    {
      "inputs": [],
      "name": "renounceOwnership",
      "outputs": [],
      "stateMutability": "nonpayable",
      "type": "function"
    },
    {
      "inputs": [
        {
          "internalType": "address",
          "name": "mining",
          "type": "address"
        },
        {
          "internalType": "uint256",
          "name": "availableSince",
          "type": "uint256"
        }
      ],
      "name": "rewardStandBy",
      "outputs": [],
      "stateMutability": "nonpayable",
      "type": "function"
    },
    {
      "inputs": [
        {
          "internalType": "bytes4",
          "name": "setter",
          "type": "bytes4"
        },
        {
          "internalType": "bytes4",
          "name": "getter",
          "type": "bytes4"
        },
        {
          "internalType": "uint256[]",
          "name": "params",
          "type": "uint256[]"
        }
      ],
      "name": "setAllowedChangeableParameter",
      "outputs": [],
      "stateMutability": "nonpayable",
      "type": "function"
    },
    {
      "inputs": [
        {
          "internalType": "uint256",
          "name": "_standByFactor",
          "type": "uint256"
        }
      ],
      "name": "setStandByFactor",
      "outputs": [],
      "stateMutability": "nonpayable",
      "type": "function"
    },
    {
      "inputs": [],
      "name": "stakingHbbft",
      "outputs": [
        {
          "internalType": "contract IStakingHbbft",
          "name": "",
          "type": "address"
        }
      ],
      "stateMutability": "view",
      "type": "function"
    },
    {
      "inputs": [],
      "name": "standByFactor",
      "outputs": [
        {
          "internalType": "uint256",
          "name": "",
          "type": "uint256"
        }
      ],
      "stateMutability": "view",
      "type": "function"
    },
    {
      "inputs": [
        {
          "internalType": "address",
          "name": "newOwner",
          "type": "address"
        }
      ],
      "name": "transferOwnership",
      "outputs": [],
      "stateMutability": "nonpayable",
      "type": "function"
    },
    {
      "inputs": [],
      "name": "validatorSetHbbft",
      "outputs": [
        {
          "internalType": "address",
          "name": "",
          "type": "address"
        }
      ],
      "stateMutability": "view",
      "type": "function"
    }
  ],
  "bytecode": "0x6080604052348015600f57600080fd5b50611a4e8061001f6000396000f3fe608060405234801561001057600080fd5b50600436106101ae5760003560e01c8063881b56a6116100ee578063bf348f8611610097578063e5079ddc11610071578063e5079ddc14610374578063f2fde38b14610387578063f8c8765e1461039a578063fee5c642146103ad57600080fd5b8063bf348f861461033b578063c5ca3e131461034e578063c66a07f11461036157600080fd5b8063b5b0ca64116100c8578063b5b0ca64146102e5578063b710c15d146102f8578063ba08d2371461031857600080fd5b8063881b56a6146102035780638da5cb5b146102a257806392f29443146102d257600080fd5b80634346845f1161015b57806366955469116101355780636695546914610261578063715018a6146102745780637d8149db1461027c578063803615b81461028f57600080fd5b80634346845f1461022857806351150d571461023b57806357bfcbee1461024e57600080fd5b806336155c3d1161018c57806336155c3d146102035780633dc12d231461020b57806340b892701461022057600080fd5b8063069fb159146101b35780631243e6cb146101cf57806327ff6223146101fa575b600080fd5b6101bc60005481565b6040519081526020015b60405180910390f35b6001546101e2906001600160a01b031681565b6040516001600160a01b0390911681526020016101c6565b6101bc6103e881565b6101bc606481565b61021e610219366004611583565b6103b5565b005b6101bc600181565b61021e6102363660046115c5565b610420565b61021e610249366004611583565b610526565b61021e61025c366004611656565b610564565b6003546101e2906001600160a01b031681565b61021e6105cf565b61021e61028a366004611671565b6105e3565b6101bc61029d36600461168c565b61066d565b7f9016d09d72d40fdae2fd8ceac6b6234c7706214fd39c1cd1e609a0528c199300546001600160a01b03166101e2565b61021e6102e0366004611583565b610703565b61021e6102f33660046116ad565b610741565b61030b6103063660046116dc565b6107e5565b6040516101c6919061178d565b61032b6103263660046117ef565b610895565b60405190151581526020016101c6565b61030b610349366004611671565b610a72565b6002546101e2906001600160a01b031681565b6101bc61036f36600461168c565b610b17565b6101bc610382366004611656565b610b56565b61021e610395366004611656565b610b7a565b61021e6103a836600461180b565b610bb5565b6101bc600f81565b6003546001600160a01b031633146103df576040516282b42960e81b815260040160405180910390fd5b6103e7610eba565b6103f382600383610f04565b61041c60017f9b779b17422d0df92223018b32b4d1fa46e071723d6817e2486d003becc55f0055565b5050565b610428611071565b60006104326110cc565b90506040518060400160405280857bffffffffffffffffffffffffffffffffffffffffffffffffffffffff1916815260200184848080602002602001604051908101604052809392919081815260200183836020028082843760009201829052509390945250506001600160e01b031988168152602084815260409091208351815463ffffffff191660e09190911c1781558382015180519193506104de9260018501929101906114ed565b509050507f3665bf9cd0ba4ddceeec259e21dcf8a4510f3b1130bd42e950828e69d85408ba85858585604051610517949392919061185f565b60405180910390a15050505050565b6002546001600160a01b03163314610550576040516282b42960e81b815260040160405180910390fd5b610558610eba565b6103f38260018361112e565b6002546001600160a01b0316331461058e576040516282b42960e81b815260040160405180910390fd5b610596610eba565b6105a38160026000610f04565b6105cc60017f9b779b17422d0df92223018b32b4d1fa46e071723d6817e2486d003becc55f0055565b50565b6105d7611071565b6105e160006111a6565b565b6105eb611071565b60006105f56110cc565b6001600160e01b031983166000908152602082905260408120805463ffffffff191681559192506106296001830182611538565b50506040516001600160e01b0319831681527fed27cb02231782dadf13473a7828cb980c4d685791b7a3136dde00f8c3594cb6906020015b60405180910390a15050565b600080600160009054906101000a90046001600160a01b03166001600160a01b0316634f9a8d8f6040518163ffffffff1660e01b8152600401602060405180830381865afa1580156106c3573d6000803e3d6000fd5b505050506040513d601f19601f820116820180604052508101906106e791906118cc565b90506106f283610b17565b6106fc90826118fb565b9392505050565b6002546001600160a01b0316331461072d576040516282b42960e81b815260040160405180910390fd5b610735610eba565b6103f38260008361112e565b610749611071565b806107606000356001600160e01b03191682610895565b610785576040516373330d9b60e01b8152600481018290526024015b60405180910390fd5b60008281558052600460209081527f17ef568e3e12ab5b9c7254a8d58478811de00f9e6eb34345acd53bf8fd09d3ec8390556040518381527f2821d32f510fa1d1418b38f7f054a5120c69f5cf7e56b0b9b2023305467b2c3f9101610661565b6040805180820190915260008152606060208201526108026110cc565b82516020808501919091206001600160e01b0319908116600090815292825260409283902083518085018552815460e01b909216825260018101805485518186028101860190965280865292949193858101939083018282801561088557602002820191906000526020600020905b815481526020019060010190808311610871575b5050505050815250509050919050565b6000806108a06110cc565b6001600160e01b031980861660009081526020838152604080832081518083018352815460e01b9095168552600181018054835181860281018601909452808452969750939590938584019390919083018282801561091e57602002820191906000526020600020905b81548152602001906001019080831161090a575b505050505081525050905080602001515160000361094157600092505050610a6c565b6020810151815160009061095490611224565b905060005b8251811015610a62578183828151811061097557610975611933565b602002602001015103610a5a5760008082116109ab578360008151811061099e5761099e611933565b60200260200101516109d0565b836109b7600184611949565b815181106109c7576109c7611933565b60200260200101515b90506000600185516109e29190611949565b8310610a145784600186516109f79190611949565b81518110610a0757610a07611933565b6020026020010151610a39565b84610a2084600161195c565b81518110610a3057610a30611933565b60200260200101515b9050818914158015610a4b5750808914155b15975050505050505050610a6c565b600101610959565b5060009450505050505b92915050565b604080518082019091526000815260606020820152610a8f6110cc565b6001600160e01b03198084166000908152602092835260409081902081518083018352815460e01b90931683526001810180548351818702810187019094528084529394919385830193928301828280156108855760200282019190600052602060002090815481526020019060010190808311610871575050505050815250509050919050565b600060046000836003811115610b2f57610b2f61191d565b6003811115610b4057610b4061191d565b8152602001908152602001600020549050919050565b6001600160a01b038116600090815260056020526040812054610a6c9060016112fb565b610b82611071565b6001600160a01b038116610bac57604051631e4fbdf760e01b81526000600482015260240161077c565b6105cc816111a6565b7ff0c57e16840df040f15088dc2f81fe391c3923bec73e23a9662efc9c229c6a00805468010000000000000000810460ff16159067ffffffffffffffff16600081158015610c005750825b905060008267ffffffffffffffff166001148015610c1d5750303b155b905081158015610c2b575080155b15610c495760405163f92ee8a960e01b815260040160405180910390fd5b845467ffffffffffffffff191660011785558315610c7d57845468ff00000000000000001916680100000000000000001785555b6001600160a01b0389161580610c9a57506001600160a01b038816155b80610cac57506001600160a01b038716155b80610cbe57506001600160a01b038616155b15610cdc5760405163d92e233d60e01b815260040160405180910390fd5b610ce589611311565b610ced611322565b6040805160098082526101408201909252600091602082016101208036833701905050905060005b8151811015610d5957610d2981600561196f565b610d3490600a61195c565b828281518110610d4657610d46611933565b6020908102919091010152600101610d15565b50610d73632d6c329960e21b63069fb15960e01b83611332565b6014600055600280546001600160a01b03808c1673ffffffffffffffffffffffffffffffffffffffff1992831617909255600380548b841690831617905560018054928a1692909116919091179055610e636000805460046020527f17ef568e3e12ab5b9c7254a8d58478811de00f9e6eb34345acd53bf8fd09d3ec55600f7fabd6e7cb50984ff9c2f3e18a2660c3353dadf4e3291deeb275dae2cd1e44fe055560647f91da3fd0782e51c6b3986e9e672fd566868e71f3dbc2d6c2cd6fbb3e361af2a781905560039091527f2e174c10e159ea99b867ce3205125c24a42d128804e4070ed6fcc8cc98166aa055565b508315610eaf57845468ff000000000000000019168555604051600181527fc7f505b2f371ae2175ee4913f4499e1f2633a7b5936321eed1cdaeb6115181d29060200160405180910390a15b505050505050505050565b7f9b779b17422d0df92223018b32b4d1fa46e071723d6817e2486d003becc55f00805460011901610efe57604051633ee5aeb560e01b815260040160405180910390fd5b60029055565b6000610f0f836113e7565b90506000610f1d8484611403565b90506000610f2a86610b56565b905060008315610f5057610f496103e8610f44858561195c565b611480565b9050610f72565b610f5a8284611480565b610f649083611949565b905080600003610f72575060015b6001600160a01b03878116600081815260056020526040908190208490556001549051636357988d60e11b81526004810192909252602482018490529091169063c6af311a90604401600060405180830381600087803b158015610fd557600080fd5b505af1158015610fe9573d6000803e3d6000fd5b50505050856003811115610fff57610fff61191d565b876001600160a01b03167f131b38d99bcb5ce5c25bcbb16d285fb7f60d1e0020b852e23ec21af42ba55eec8360405161103a91815260200190565b60405180910390a350505050505050565b60017f9b779b17422d0df92223018b32b4d1fa46e071723d6817e2486d003becc55f0055565b336110a37f9016d09d72d40fdae2fd8ceac6b6234c7706214fd39c1cd1e609a0528c199300546001600160a01b031690565b6001600160a01b0316146105e15760405163118cdaa760e01b815233600482015260240161077c565b60008060ff196110fd60017fdace3fd3d1fbdfd33853f19ba191d28c617e373ec58fc73cf7b58db5aff2c2ab611949565b60405160200161110f91815260200190565b60408051601f1981840301815291905280516020909101201692915050565b6001600160a01b03831660009081526006602052604081205461115190836112fb565b90504281106111735760405163d152074960e01b815260040160405180910390fd5b61118784846111828442611949565b610f04565b5050506001600160a01b03166000908152600660205260409020429055565b7f9016d09d72d40fdae2fd8ceac6b6234c7706214fd39c1cd1e609a0528c199300805473ffffffffffffffffffffffffffffffffffffffff1981166001600160a01b03848116918217845560405192169182907f8be0079c531659141344cd1fd0a4f28419497f9722a3daafe3b4186f6b6457e090600090a3505050565b60408051600481526024810182526020810180517bffffffffffffffffffffffffffffffffffffffffffffffffffffffff166001600160e01b0319851617905290516000919082908190309061127b908590611986565b600060405180830381855afa9150503d80600081146112b6576040519150601f19603f3d011682016040523d82523d6000602084013e6112bb565b606091505b5091509150816112de57604051635fbab09b60e11b815260040160405180910390fd5b808060200190518101906112f291906118cc565b95945050505050565b600081831161130a57816106fc565b5090919050565b61131961148f565b6105cc816114dd565b61132a61148f565b6105e16114e5565b61133a61148f565b60006113446110cc565b6040805180820182526001600160e01b0319868116825260208083018781529189166000908152858252939093208251815463ffffffff191660e09190911c17815590518051949550919390926113a29260018501929101906114ed565b509050507f3665bf9cd0ba4ddceeec259e21dcf8a4510f3b1130bd42e950828e69d85408ba8484846040516113d9939291906119b5565b60405180910390a150505050565b6000808260038111156113fc576113fc61191d565b1492915050565b60008061140f84610b17565b905060028460038111156114255761142561191d565b03611431579050610a6c565b60038460038111156114455761144561191d565b148015611450575082155b1561145c579050610a6c565b6114786114688561066d565b61147290856118fb565b82611480565b915050610a6c565b600081831061130a57816106fc565b7ff0c57e16840df040f15088dc2f81fe391c3923bec73e23a9662efc9c229c6a005468010000000000000000900460ff166105e157604051631afcd79f60e31b815260040160405180910390fd5b610b8261148f565b61104b61148f565b828054828255906000526020600020908101928215611528579160200282015b8281111561152857825182559160200191906001019061150d565b50611534929150611552565b5090565b50805460008255906000526020600020908101906105cc91905b5b808211156115345760008155600101611553565b80356001600160a01b038116811461157e57600080fd5b919050565b6000806040838503121561159657600080fd5b61159f83611567565b946020939093013593505050565b80356001600160e01b03198116811461157e57600080fd5b600080600080606085870312156115db57600080fd5b6115e4856115ad565b93506115f2602086016115ad565b9250604085013567ffffffffffffffff8082111561160f57600080fd5b818701915087601f83011261162357600080fd5b81358181111561163257600080fd5b8860208260051b850101111561164757600080fd5b95989497505060200194505050565b60006020828403121561166857600080fd5b6106fc82611567565b60006020828403121561168357600080fd5b6106fc826115ad565b60006020828403121561169e57600080fd5b8135600481106106fc57600080fd5b6000602082840312156116bf57600080fd5b5035919050565b634e487b7160e01b600052604160045260246000fd5b6000602082840312156116ee57600080fd5b813567ffffffffffffffff8082111561170657600080fd5b818401915084601f83011261171a57600080fd5b81358181111561172c5761172c6116c6565b604051601f8201601f19908116603f01168101908382118183101715611754576117546116c6565b8160405282815287602084870101111561176d57600080fd5b826020860160208301376000928101602001929092525095945050505050565b602080825282516001600160e01b031916828201528281015160408084015280516060840181905260009291820190839060808601905b808310156117e457835182529284019260019290920191908401906117c4565b509695505050505050565b6000806040838503121561180257600080fd5b61159f836115ad565b6000806000806080858703121561182157600080fd5b61182a85611567565b935061183860208601611567565b925061184660408601611567565b915061185460608601611567565b905092959194509250565b6001600160e01b0319858116825284166020820152606060408201819052810182905260007f07ffffffffffffffffffffffffffffffffffffffffffffffffffffffffffffff8311156118b157600080fd5b8260051b808560808501379190910160800195945050505050565b6000602082840312156118de57600080fd5b5051919050565b634e487b7160e01b600052601160045260246000fd5b60008261191857634e487b7160e01b600052601260045260246000fd5b500490565b634e487b7160e01b600052602160045260246000fd5b634e487b7160e01b600052603260045260246000fd5b81810381811115610a6c57610a6c6118e5565b80820180821115610a6c57610a6c6118e5565b8082028115828204841417610a6c57610a6c6118e5565b6000825160005b818110156119a7576020818601810151858301520161198d565b506000920191825250919050565b6001600160e01b031984811682528316602080830191909152606060408301819052835190830181905260009184810191608085019190845b81811015611a0a578451845293820193928201926001016119ee565b50919897505050505050505056fea2646970667358221220361f062651139fb529b058a8b78591f15e66c51ded26e870171fce1fc013eb3864736f6c63430008190033",
  "linkReferences": {},
  "deployedLinkReferences": {}
}