{
  "_format": "hh-sol-artifact-1",
  "contractName": "Bridge",
  "sourceName": "contracts/WowOtherChains.sol",
  "abi": [
    {
      "inputs": [],
      "stateMutability": "nonpayable",
      "type": "constructor"
    },
    {
      "inputs": [],
      "name": "InvalidInitialization",
      "type": "error"
    },
    {
      "inputs": [],
      "name": "NotInitializing",
      "type": "error"
    },
    {
      "inputs": [
        {
          "internalType": "address",
          "name": "owner",
          "type": "address"
        }
      ],
      "name": "OwnableInvalidOwner",
      "type": "error"
    },
    {
      "inputs": [
        {
          "internalType": "address",
          "name": "account",
          "type": "address"
        }
      ],
      "name": "OwnableUnauthorizedAccount",
      "type": "error"
    },
    {
      "anonymous": false,
      "inputs": [
        {
          "indexed": false,
          "internalType": "uint64",
          "name": "version",
          "type": "uint64"
        }
      ],
      "name": "Initialized",
      "type": "event"
    },
    {
      "anonymous": false,
      "inputs": [
        {
          "indexed": true,
          "internalType": "address",
          "name": "previousOwner",
          "type": "address"
        },
        {
          "indexed": true,
          "internalType": "address",
          "name": "newOwner",
          "type": "address"
        }
      ],
      "name": "OwnershipTransferred",
      "type": "event"
    },
    {
      "inputs": [
        {
          "internalType": "address",
          "name": "token",
          "type": "address"
        },
        {
          "internalType": "bool",
          "name": "allowed",
          "type": "bool"
        }
      ],
      "name": "changeTokenSupport",
      "outputs": [],
      "stateMutability": "nonpayable",
      "type": "function"
    },
    {
      "inputs": [
        {
          "internalType": "address",
          "name": "_to",
          "type": "address"
        },
        {
          "internalType": "address",
          "name": "tokenAddress",
          "type": "address"
        }
      ],
      "name": "emergencyWithdraw",
      "outputs": [],
      "stateMutability": "nonpayable",
      "type": "function"
    },
    {
      "inputs": [
        {
          "internalType": "address",
          "name": "initialOwner",
          "type": "address"
        }
      ],
      "name": "initialize",
      "outputs": [],
      "stateMutability": "nonpayable",
      "type": "function"
    },
    {
      "inputs": [],
      "name": "owner",
      "outputs": [
        {
          "internalType": "address",
          "name": "",
          "type": "address"
        }
      ],
      "stateMutability": "view",
      "type": "function"
    },
    {
      "inputs": [],
      "name": "renounceOwnership",
      "outputs": [],
      "stateMutability": "nonpayable",
      "type": "function"
    },
    {
      "inputs": [
        {
          "internalType": "address",
          "name": "",
          "type": "address"
        }
      ],
      "name": "supportedTokens",
      "outputs": [
        {
          "internalType": "bool",
          "name": "",
          "type": "bool"
        }
      ],
      "stateMutability": "view",
      "type": "function"
    },
    {
      "inputs": [
        {
          "internalType": "address",
          "name": "newOwner",
          "type": "address"
        }
      ],
      "name": "transferOwnership",
      "outputs": [],
      "stateMutability": "nonpayable",
      "type": "function"
    },
    {
      "inputs": [
        {
          "internalType": "uint256",
          "name": "amount",
          "type": "uint256"
        },
        {
          "internalType": "address",
          "name": "recipient",
          "type": "address"
        },
        {
          "internalType": "address",
          "name": "tokenAddress",
          "type": "address"
        }
      ],
      "name": "unlock",
      "outputs": [],
      "stateMutability": "nonpayable",
      "type": "function"
    }
  ],
  "bytecode": "0x6080604052348015600f57600080fd5b506016601a565b60ca565b7ff0c57e16840df040f15088dc2f81fe391c3923bec73e23a9662efc9c229c6a00805468010000000000000000900460ff161560695760405163f92ee8a960e01b815260040160405180910390fd5b80546001600160401b039081161460c75780546001600160401b0319166001600160401b0390811782556040519081527fc7f505b2f371ae2175ee4913f4499e1f2633a7b5936321eed1cdaeb6115181d29060200160405180910390a15b50565b6108af806100d96000396000f3fe608060405234801561001057600080fd5b50600436106100885760003560e01c80638da5cb5b1161005b5780638da5cb5b146100f5578063c4d66de81461012f578063dac13abe14610142578063f2fde38b1461015557600080fd5b806361b9cd1e1461008d5780636382d9ad146100a257806368c4ac26146100b5578063715018a6146100ed575b600080fd5b6100a061009b36600461073e565b610168565b005b6100a06100b036600461077a565b6101ed565b6100d86100c33660046107ad565b60006020819052908152604090205460ff1681565b60405190151581526020015b60405180910390f35b6100a0610368565b7f9016d09d72d40fdae2fd8ceac6b6234c7706214fd39c1cd1e609a0528c199300546040516001600160a01b0390911681526020016100e4565b6100a061013d3660046107ad565b61037c565b6100a06101503660046107dd565b610388565b6100a06101633660046107ad565b6103bb565b6101706103f6565b6001600160a01b03811660009081526020819052604090205460ff166101dd5760405162461bcd60e51b815260206004820152601660248201527f746f6b656e206973206e6f7420737570706f727465640000000000000000000060448201526064015b60405180910390fd5b6101e8838383610451565b505050565b6101f56103f6565b6001600160a01b038116610298576000826001600160a01b03164760405160006040518083038185875af1925050503d8060008114610250576040519150601f19603f3d011682016040523d82523d6000602084013e610255565b606091505b50509050806101e85760405162461bcd60e51b815260206004820152600f60248201526e151c985b9cd9995c8819985a5b1959608a1b60448201526064016101d4565b6040516370a0823160e01b815230600482015281906000906001600160a01b038316906370a0823190602401602060405180830381865afa1580156102e1573d6000803e3d6000fd5b505050506040513d601f19601f820116820180604052508101906103059190610814565b9050600081116103575760405162461bcd60e51b815260206004820152601560248201527f4e6f20746f6b656e7320746f207769746864726177000000000000000000000060448201526064016101d4565b610362818585610451565b50505050565b6103706103f6565b61037a6000610632565b565b610385816106bb565b50565b6103906103f6565b6001600160a01b03919091166000908152602081905260409020805460ff1916911515919091179055565b6103c36103f6565b6001600160a01b0381166103ed57604051631e4fbdf760e01b8152600060048201526024016101d4565b61038581610632565b336104287f9016d09d72d40fdae2fd8ceac6b6234c7706214fd39c1cd1e609a0528c199300546001600160a01b031690565b6001600160a01b03161461037a5760405163118cdaa760e01b81523360048201526024016101d4565b6040516370a0823160e01b815230600482015281906000906001600160a01b038316906370a0823190602401602060405180830381865afa15801561049a573d6000803e3d6000fd5b505050506040513d601f19601f820116820180604052508101906104be9190610814565b9050848110156105105760405162461bcd60e51b815260206004820152601f60248201527f496e73756666696369656e7420746f6b656e7320696e20636f6e74726163740060448201526064016101d4565b6040516001600160a01b03858116602483015260448201879052600091829186169060640160408051601f198184030181529181526020820180517bffffffffffffffffffffffffffffffffffffffffffffffffffffffff1663a9059cbb60e01b1790525161057f919061082d565b6000604051808303816000865af19150503d80600081146105bc576040519150601f19603f3d011682016040523d82523d6000602084013e6105c1565b606091505b50915091508180156105eb5750805115806105eb5750808060200190518101906105eb919061085c565b6106295760405162461bcd60e51b815260206004820152600f60248201526e151c985b9cd9995c8819985a5b1959608a1b60448201526064016101d4565b50505050505050565b7f9016d09d72d40fdae2fd8ceac6b6234c7706214fd39c1cd1e609a0528c19930080547fffffffffffffffffffffffff000000000000000000000000000000000000000081166001600160a01b03848116918217845560405192169182907f8be0079c531659141344cd1fd0a4f28419497f9722a3daafe3b4186f6b6457e090600090a3505050565b6106c36106cc565b6103858161071a565b7ff0c57e16840df040f15088dc2f81fe391c3923bec73e23a9662efc9c229c6a005468010000000000000000900460ff1661037a57604051631afcd79f60e31b815260040160405180910390fd5b6103c36106cc565b80356001600160a01b038116811461073957600080fd5b919050565b60008060006060848603121561075357600080fd5b8335925061076360208501610722565b915061077160408501610722565b90509250925092565b6000806040838503121561078d57600080fd5b61079683610722565b91506107a460208401610722565b90509250929050565b6000602082840312156107bf57600080fd5b6107c882610722565b9392505050565b801515811461038557600080fd5b600080604083850312156107f057600080fd5b6107f983610722565b91506020830135610809816107cf565b809150509250929050565b60006020828403121561082657600080fd5b5051919050565b6000825160005b8181101561084e5760208186018101518583015201610834565b506000920191825250919050565b60006020828403121561086e57600080fd5b81516107c8816107cf56fea2646970667358221220856b2f28838e24e5a45cb8088c69aa06ead8828fe4e8b8403b99b23051dc784364736f6c63430008190033",
  "linkReferences": {},
  "deployedLinkReferences": {}
}