{
  "_format": "hh-sol-artifact-1",
  "contractName": "CertifierHbbft",
  "sourceName": "contracts/CertifierHbbft.sol",
  "abi": [
    {
      "inputs": [],
      "stateMutability": "nonpayable",
      "type": "constructor"
    },
    {
      "inputs": [],
      "name": "InvalidInitialization",
      "type": "error"
    },
    {
      "inputs": [],
      "name": "NotInitializing",
      "type": "error"
    },
    {
      "inputs": [
        {
          "internalType": "address",
          "name": "owner",
          "type": "address"
        }
      ],
      "name": "OwnableInvalidOwner",
      "type": "error"
    },
    {
      "inputs": [
        {
          "internalType": "address",
          "name": "account",
          "type": "address"
        }
      ],
      "name": "OwnableUnauthorizedAccount",
      "type": "error"
    },
    {
      "inputs": [],
      "name": "ZeroAddress",
      "type": "error"
    },
    {
      "anonymous": false,
      "inputs": [
        {
          "indexed": true,
          "internalType": "address",
          "name": "who",
          "type": "address"
        }
      ],
      "name": "Confirmed",
      "type": "event"
    },
    {
      "anonymous": false,
      "inputs": [
        {
          "indexed": false,
          "internalType": "uint64",
          "name": "version",
          "type": "uint64"
        }
      ],
      "name": "Initialized",
      "type": "event"
    },
    {
      "anonymous": false,
      "inputs": [
        {
          "indexed": true,
          "internalType": "address",
          "name": "previousOwner",
          "type": "address"
        },
        {
          "indexed": true,
          "internalType": "address",
          "name": "newOwner",
          "type": "address"
        }
      ],
      "name": "OwnershipTransferred",
      "type": "event"
    },
    {
      "anonymous": false,
      "inputs": [
        {
          "indexed": true,
          "internalType": "address",
          "name": "who",
          "type": "address"
        }
      ],
      "name": "Revoked",
      "type": "event"
    },
    {
      "inputs": [
        {
          "internalType": "address",
          "name": "_who",
          "type": "address"
        }
      ],
      "name": "certified",
      "outputs": [
        {
          "internalType": "bool",
          "name": "",
          "type": "bool"
        }
      ],
      "stateMutability": "view",
      "type": "function"
    },
    {
      "inputs": [
        {
          "internalType": "address",
          "name": "_who",
          "type": "address"
        }
      ],
      "name": "certifiedExplicitly",
      "outputs": [
        {
          "internalType": "bool",
          "name": "",
          "type": "bool"
        }
      ],
      "stateMutability": "view",
      "type": "function"
    },
    {
      "inputs": [
        {
          "internalType": "address",
          "name": "_who",
          "type": "address"
        }
      ],
      "name": "certify",
      "outputs": [],
      "stateMutability": "nonpayable",
      "type": "function"
    },
    {
      "inputs": [
        {
          "internalType": "address[]",
          "name": "_certifiedAddresses",
          "type": "address[]"
        },
        {
          "internalType": "address",
          "name": "_validatorSet",
          "type": "address"
        },
        {
          "internalType": "address",
          "name": "_owner",
          "type": "address"
        }
      ],
      "name": "initialize",
      "outputs": [],
      "stateMutability": "nonpayable",
      "type": "function"
    },
    {
      "inputs": [],
      "name": "owner",
      "outputs": [
        {
          "internalType": "address",
          "name": "",
          "type": "address"
        }
      ],
      "stateMutability": "view",
      "type": "function"
    },
    {
      "inputs": [],
      "name": "renounceOwnership",
      "outputs": [],
      "stateMutability": "nonpayable",
      "type": "function"
    },
    {
      "inputs": [
        {
          "internalType": "address",
          "name": "_who",
          "type": "address"
        }
      ],
      "name": "revoke",
      "outputs": [],
      "stateMutability": "nonpayable",
      "type": "function"
    },
    {
      "inputs": [
        {
          "internalType": "address",
          "name": "newOwner",
          "type": "address"
        }
      ],
      "name": "transferOwnership",
      "outputs": [],
      "stateMutability": "nonpayable",
      "type": "function"
    },
    {
      "inputs": [],
      "name": "validatorSetContract",
      "outputs": [
        {
          "internalType": "contract IValidatorSetHbbft",
          "name": "",
          "type": "address"
        }
      ],
      "stateMutability": "view",
      "type": "function"
    }
  ],
  "bytecode": "0x6080604052348015600f57600080fd5b506016601a565b60ca565b7ff0c57e16840df040f15088dc2f81fe391c3923bec73e23a9662efc9c229c6a00805468010000000000000000900460ff161560695760405163f92ee8a960e01b815260040160405180910390fd5b80546001600160401b039081161460c75780546001600160401b0319166001600160401b0390811782556040519081527fc7f505b2f371ae2175ee4913f4499e1f2633a7b5936321eed1cdaeb6115181d29060200160405180910390a15b50565b6107e6806100d96000396000f3fe608060405234801561001057600080fd5b50600436106100a35760003560e01c806390482d7211610076578063dfc8bf4e1161005b578063dfc8bf4e14610157578063e8e23ac01461016a578063f2fde38b1461019657600080fd5b806390482d7214610121578063cc1d4c021461013457600080fd5b806314253887146100a8578063715018a6146100bd57806374a8f103146100c55780638da5cb5b146100d8575b600080fd5b6100bb6100b63660046106c2565b6101a9565b005b6100bb6101bd565b6100bb6100d33660046106c2565b6101d1565b7f9016d09d72d40fdae2fd8ceac6b6234c7706214fd39c1cd1e609a0528c199300546001600160a01b03165b6040516001600160a01b0390911681526020015b60405180910390f35b6100bb61012f3660046106e6565b610243565b6101476101423660046106c2565b610410565b6040519015158152602001610118565b600154610104906001600160a01b031681565b6101476101783660046106c2565b6001600160a01b031660009081526020819052604090205460ff1690565b6100bb6101a43660046106c2565b6104ba565b6101b16104fa565b6101ba81610555565b50565b6101c56104fa565b6101cf60006105c8565b565b6101d96104fa565b6001600160a01b03811660009081526020819052604090205460ff16156101ba576001600160a01b038116600081815260208190526040808220805460ff19169055517fb6fa8b8bd5eab60f292eca876e3ef90722275b785309d84b1de113ce0b8c4e749190a250565b7ff0c57e16840df040f15088dc2f81fe391c3923bec73e23a9662efc9c229c6a00805468010000000000000000810460ff16159067ffffffffffffffff1660008115801561028e5750825b905060008267ffffffffffffffff1660011480156102ab5750303b155b9050811580156102b9575080155b156102d75760405163f92ee8a960e01b815260040160405180910390fd5b845467ffffffffffffffff19166001178555831561030b57845468ff00000000000000001916680100000000000000001785555b6001600160a01b038616158061032857506001600160a01b038716155b156103465760405163d92e233d60e01b815260040160405180910390fd5b61034f86610646565b6001805473ffffffffffffffffffffffffffffffffffffffff19166001600160a01b03891617905560005b888110156103b9576103b18a8a838181106103975761039761077d565b90506020020160208101906103ac91906106c2565b610555565b60010161037a565b50831561040557845468ff000000000000000019168555604051600181527fc7f505b2f371ae2175ee4913f4499e1f2633a7b5936321eed1cdaeb6115181d29060200160405180910390a15b505050505050505050565b6001600160a01b03811660009081526020819052604081205460ff161561043957506001919050565b6001546040516307b9342f60e21b81526001600160a01b0384811660048301526000921690631ee4d0bc90602401602060405180830381865afa158015610484573d6000803e3d6000fd5b505050506040513d601f19601f820116820180604052508101906104a89190610793565b6001600160a01b031615159392505050565b6104c26104fa565b6001600160a01b0381166104f157604051631e4fbdf760e01b8152600060048201526024015b60405180910390fd5b6101ba816105c8565b3361052c7f9016d09d72d40fdae2fd8ceac6b6234c7706214fd39c1cd1e609a0528c199300546001600160a01b031690565b6001600160a01b0316146101cf5760405163118cdaa760e01b81523360048201526024016104e8565b6001600160a01b03811661057c5760405163d92e233d60e01b815260040160405180910390fd5b6001600160a01b038116600081815260208190526040808220805460ff19166001179055517fd415b905d4dd806bfba99a7a0e6351bd0c9db3a9912add21c0e6bef4479f673f9190a250565b7f9016d09d72d40fdae2fd8ceac6b6234c7706214fd39c1cd1e609a0528c199300805473ffffffffffffffffffffffffffffffffffffffff1981166001600160a01b03848116918217845560405192169182907f8be0079c531659141344cd1fd0a4f28419497f9722a3daafe3b4186f6b6457e090600090a3505050565b61064e610657565b6101ba816106a5565b7ff0c57e16840df040f15088dc2f81fe391c3923bec73e23a9662efc9c229c6a005468010000000000000000900460ff166101cf57604051631afcd79f60e31b815260040160405180910390fd5b6104c2610657565b6001600160a01b03811681146101ba57600080fd5b6000602082840312156106d457600080fd5b81356106df816106ad565b9392505050565b600080600080606085870312156106fc57600080fd5b843567ffffffffffffffff8082111561071457600080fd5b818701915087601f83011261072857600080fd5b81358181111561073757600080fd5b8860208260051b850101111561074c57600080fd5b60209283019650945050850135610762816106ad565b91506040850135610772816106ad565b939692955090935050565b634e487b7160e01b600052603260045260246000fd5b6000602082840312156107a557600080fd5b81516106df816106ad56fea264697066735822122028fef27da05dfaff67c91eab25e4e51cfc2a7795f681f66b7e4af220151c0cba64736f6c63430008190033",
  "linkReferences": {},
  "deployedLinkReferences": {}
}