{
  "_format": "hh-sol-artifact-1",
  "contractName": "ConnectivityTrackerHbbft",
  "sourceName": "contracts/ConnectivityTrackerHbbft.sol",
  "abi": [
    {
      "inputs": [],
      "stateMutability": "nonpayable",
      "type": "constructor"
    },
    {
      "inputs": [
        {
          "internalType": "address",
          "name": "reporter",
          "type": "address"
        },
        {
          "internalType": "address",
          "name": "validator",
          "type": "address"
        }
      ],
      "name": "AlreadyReported",
      "type": "error"
    },
    {
      "inputs": [
        {
          "internalType": "address",
          "name": "reporter",
          "type": "address"
        }
      ],
      "name": "CannotReportByFlaggedValidator",
      "type": "error"
    },
    {
      "inputs": [
        {
          "internalType": "uint256",
          "name": "epoch",
          "type": "uint256"
        }
      ],
      "name": "EpochPenaltiesAlreadySent",
      "type": "error"
    },
    {
      "inputs": [],
      "name": "InvalidBlock",
      "type": "error"
    },
    {
      "inputs": [],
      "name": "InvalidInitialization",
      "type": "error"
    },
    {
      "inputs": [],
      "name": "NotInitializing",
      "type": "error"
    },
    {
      "inputs": [],
      "name": "OnlyValidator",
      "type": "error"
    },
    {
      "inputs": [
        {
          "internalType": "address",
          "name": "owner",
          "type": "address"
        }
      ],
      "name": "OwnableInvalidOwner",
      "type": "error"
    },
    {
      "inputs": [
        {
          "internalType": "address",
          "name": "account",
          "type": "address"
        }
      ],
      "name": "OwnableUnauthorizedAccount",
      "type": "error"
    },
    {
      "inputs": [],
      "name": "ReportTooEarly",
      "type": "error"
    },
    {
      "inputs": [],
      "name": "Unauthorized",
      "type": "error"
    },
    {
      "inputs": [
        {
          "internalType": "address",
          "name": "reporter",
          "type": "address"
        },
        {
          "internalType": "address",
          "name": "validator",
          "type": "address"
        }
      ],
      "name": "UnknownReconnectReporter",
      "type": "error"
    },
    {
      "inputs": [],
      "name": "ZeroAddress",
      "type": "error"
    },
    {
      "anonymous": false,
      "inputs": [
        {
          "indexed": false,
          "internalType": "uint64",
          "name": "version",
          "type": "uint64"
        }
      ],
      "name": "Initialized",
      "type": "event"
    },
    {
      "anonymous": false,
      "inputs": [
        {
          "indexed": true,
          "internalType": "uint256",
          "name": "epoch",
          "type": "uint256"
        },
        {
          "indexed": true,
          "internalType": "uint256",
          "name": "blockNumber",
          "type": "uint256"
        }
      ],
      "name": "NotifyEarlyEpochEnd",
      "type": "event"
    },
    {
      "anonymous": false,
      "inputs": [
        {
          "indexed": true,
          "internalType": "address",
          "name": "previousOwner",
          "type": "address"
        },
        {
          "indexed": true,
          "internalType": "address",
          "name": "newOwner",
          "type": "address"
        }
      ],
      "name": "OwnershipTransferred",
      "type": "event"
    },
    {
      "anonymous": false,
      "inputs": [
        {
          "indexed": true,
          "internalType": "address",
          "name": "reporter",
          "type": "address"
        },
        {
          "indexed": true,
          "internalType": "address",
          "name": "validator",
          "type": "address"
        },
        {
          "indexed": true,
          "internalType": "uint256",
          "name": "blockNumber",
          "type": "uint256"
        }
      ],
      "name": "ReportMissingConnectivity",
      "type": "event"
    },
    {
      "anonymous": false,
      "inputs": [
        {
          "indexed": true,
          "internalType": "address",
          "name": "reporter",
          "type": "address"
        },
        {
          "indexed": true,
          "internalType": "address",
          "name": "validator",
          "type": "address"
        },
        {
          "indexed": true,
          "internalType": "uint256",
          "name": "blockNumber",
          "type": "uint256"
        }
      ],
      "name": "ReportReconnect",
      "type": "event"
    },
    {
      "anonymous": false,
      "inputs": [
        {
          "indexed": false,
          "internalType": "uint256",
          "name": "_level",
          "type": "uint256"
        }
      ],
      "name": "SetEarlyEpochEndToleranceLevel",
      "type": "event"
    },
    {
      "anonymous": false,
      "inputs": [
        {
          "indexed": false,
          "internalType": "uint256",
          "name": "_minReportAge",
          "type": "uint256"
        }
      ],
      "name": "SetMinReportAgeBlocks",
      "type": "event"
    },
    {
      "inputs": [],
      "name": "blockRewardContract",
      "outputs": [
        {
          "internalType": "contract IBlockRewardHbbft",
          "name": "",
          "type": "address"
        }
      ],
      "stateMutability": "view",
      "type": "function"
    },
    {
      "inputs": [],
      "name": "bonusScoreContract",
      "outputs": [
        {
          "internalType": "contract IBonusScoreSystem",
          "name": "",
          "type": "address"
        }
      ],
      "stateMutability": "view",
      "type": "function"
    },
    {
      "inputs": [
        {
          "internalType": "address",
          "name": "caller",
          "type": "address"
        },
        {
          "internalType": "address",
          "name": "validator",
          "type": "address"
        },
        {
          "internalType": "uint256",
          "name": "blockNumber",
          "type": "uint256"
        },
        {
          "internalType": "bytes32",
          "name": "blockHash",
          "type": "bytes32"
        }
      ],
      "name": "checkReportMissingConnectivityCallable",
      "outputs": [],
      "stateMutability": "view",
      "type": "function"
    },
    {
      "inputs": [
        {
          "internalType": "address",
          "name": "caller",
          "type": "address"
        },
        {
          "internalType": "address",
          "name": "validator",
          "type": "address"
        },
        {
          "internalType": "uint256",
          "name": "blockNumber",
          "type": "uint256"
        },
        {
          "internalType": "bytes32",
          "name": "blockHash",
          "type": "bytes32"
        }
      ],
      "name": "checkReportReconnectCallable",
      "outputs": [],
      "stateMutability": "view",
      "type": "function"
    },
    {
      "inputs": [
        {
          "internalType": "uint256",
          "name": "epoch",
          "type": "uint256"
        }
      ],
      "name": "countFaultyValidators",
      "outputs": [
        {
          "internalType": "uint256",
          "name": "",
          "type": "uint256"
        }
      ],
      "stateMutability": "view",
      "type": "function"
    },
    {
      "inputs": [],
      "name": "currentEpoch",
      "outputs": [
        {
          "internalType": "uint256",
          "name": "",
          "type": "uint256"
        }
      ],
      "stateMutability": "view",
      "type": "function"
    },
    {
      "inputs": [],
      "name": "earlyEpochEndThreshold",
      "outputs": [
        {
          "internalType": "uint256",
          "name": "",
          "type": "uint256"
        }
      ],
      "stateMutability": "view",
      "type": "function"
    },
    {
      "inputs": [],
      "name": "earlyEpochEndToleranceLevel",
      "outputs": [
        {
          "internalType": "uint256",
          "name": "",
          "type": "uint256"
        }
      ],
      "stateMutability": "view",
      "type": "function"
    },
    {
      "inputs": [],
      "name": "getFlaggedValidators",
      "outputs": [
        {
          "internalType": "address[]",
          "name": "",
          "type": "address[]"
        }
      ],
      "stateMutability": "view",
      "type": "function"
    },
    {
      "inputs": [
        {
          "internalType": "uint256",
          "name": "epoch",
          "type": "uint256"
        }
      ],
      "name": "getFlaggedValidatorsByEpoch",
      "outputs": [
        {
          "internalType": "address[]",
          "name": "",
          "type": "address[]"
        }
      ],
      "stateMutability": "view",
      "type": "function"
    },
    {
      "inputs": [
        {
          "internalType": "uint256",
          "name": "epoch",
          "type": "uint256"
        }
      ],
      "name": "getFlaggedValidatorsCount",
      "outputs": [
        {
          "internalType": "uint256",
          "name": "",
          "type": "uint256"
        }
      ],
      "stateMutability": "view",
      "type": "function"
    },
    {
      "inputs": [
        {
          "internalType": "uint256",
          "name": "epoch",
          "type": "uint256"
        },
        {
          "internalType": "address",
          "name": "validator",
          "type": "address"
        }
      ],
      "name": "getValidatorConnectivityScore",
      "outputs": [
        {
          "internalType": "uint256",
          "name": "",
          "type": "uint256"
        }
      ],
      "stateMutability": "view",
      "type": "function"
    },
    {
      "inputs": [
        {
          "internalType": "address",
          "name": "_contractOwner",
          "type": "address"
        },
        {
          "internalType": "address",
          "name": "_validatorSetContract",
          "type": "address"
        },
        {
          "internalType": "address",
          "name": "_stakingContract",
          "type": "address"
        },
        {
          "internalType": "address",
          "name": "_blockRewardContract",
          "type": "address"
        },
        {
          "internalType": "address",
          "name": "_bonusScoreContract",
          "type": "address"
        },
        {
          "internalType": "uint256",
          "name": "_minReportAgeBlocks",
          "type": "uint256"
        }
      ],
      "name": "initialize",
      "outputs": [],
      "stateMutability": "nonpayable",
      "type": "function"
    },
    {
      "inputs": [
        {
          "internalType": "uint256",
          "name": "",
          "type": "uint256"
        }
      ],
      "name": "isEarlyEpochEnd",
      "outputs": [
        {
          "internalType": "bool",
          "name": "",
          "type": "bool"
        }
      ],
      "stateMutability": "view",
      "type": "function"
    },
    {
      "inputs": [
        {
          "internalType": "address",
          "name": "validator",
          "type": "address"
        },
        {
          "internalType": "uint256",
          "name": "epoch",
          "type": "uint256"
        }
      ],
      "name": "isFaultyValidator",
      "outputs": [
        {
          "internalType": "bool",
          "name": "",
          "type": "bool"
        }
      ],
      "stateMutability": "view",
      "type": "function"
    },
    {
      "inputs": [
        {
          "internalType": "uint256",
          "name": "",
          "type": "uint256"
        },
        {
          "internalType": "address",
          "name": "validator",
          "type": "address"
        },
        {
          "internalType": "address",
          "name": "reporter",
          "type": "address"
        }
      ],
      "name": "isReported",
      "outputs": [
        {
          "internalType": "bool",
          "name": "",
          "type": "bool"
        }
      ],
      "stateMutability": "view",
      "type": "function"
    },
    {
      "inputs": [],
      "name": "minReportAgeBlocks",
      "outputs": [
        {
          "internalType": "uint256",
          "name": "",
          "type": "uint256"
        }
      ],
      "stateMutability": "view",
      "type": "function"
    },
    {
      "inputs": [],
      "name": "owner",
      "outputs": [
        {
          "internalType": "address",
          "name": "",
          "type": "address"
        }
      ],
      "stateMutability": "view",
      "type": "function"
    },
    {
      "inputs": [
        {
          "internalType": "uint256",
          "name": "epoch",
          "type": "uint256"
        }
      ],
      "name": "penaliseFaultyValidators",
      "outputs": [],
      "stateMutability": "nonpayable",
      "type": "function"
    },
    {
      "inputs": [],
      "name": "renounceOwnership",
      "outputs": [],
      "stateMutability": "nonpayable",
      "type": "function"
    },
    {
      "inputs": [
        {
          "internalType": "address",
          "name": "validator",
          "type": "address"
        },
        {
          "internalType": "uint256",
          "name": "blockNumber",
          "type": "uint256"
        },
        {
          "internalType": "bytes32",
          "name": "blockHash",
          "type": "bytes32"
        }
      ],
      "name": "reportMissingConnectivity",
      "outputs": [],
      "stateMutability": "nonpayable",
      "type": "function"
    },
    {
      "inputs": [
        {
          "internalType": "address",
          "name": "validator",
          "type": "address"
        },
        {
          "internalType": "uint256",
          "name": "blockNumber",
          "type": "uint256"
        },
        {
          "internalType": "bytes32",
          "name": "blockHash",
          "type": "bytes32"
        }
      ],
      "name": "reportReconnect",
      "outputs": [],
      "stateMutability": "nonpayable",
      "type": "function"
    },
    {
      "inputs": [
        {
          "internalType": "uint256",
          "name": "_level",
          "type": "uint256"
        }
      ],
      "name": "setEarlyEpochEndToleranceLevel",
      "outputs": [],
      "stateMutability": "nonpayable",
      "type": "function"
    },
    {
      "inputs": [
        {
          "internalType": "uint256",
          "name": "_minReportAge",
          "type": "uint256"
        }
      ],
      "name": "setMinReportAge",
      "outputs": [],
      "stateMutability": "nonpayable",
      "type": "function"
    },
    {
      "inputs": [],
      "name": "stakingContract",
      "outputs": [
        {
          "internalType": "contract IStakingHbbft",
          "name": "",
          "type": "address"
        }
      ],
      "stateMutability": "view",
      "type": "function"
    },
    {
      "inputs": [
        {
          "internalType": "address",
          "name": "newOwner",
          "type": "address"
        }
      ],
      "name": "transferOwnership",
      "outputs": [],
      "stateMutability": "nonpayable",
      "type": "function"
    },
    {
      "inputs": [],
      "name": "validatorSetContract",
      "outputs": [
        {
          "internalType": "contract IValidatorSetHbbft",
          "name": "",
          "type": "address"
        }
      ],
      "stateMutability": "view",
      "type": "function"
    }
  ],
  "bytecode": "0x6080604052348015600f57600080fd5b506016601a565b60ca565b7ff0c57e16840df040f15088dc2f81fe391c3923bec73e23a9662efc9c229c6a00805468010000000000000000900460ff161560695760405163f92ee8a960e01b815260040160405180910390fd5b80546001600160401b039081161460c75780546001600160401b0319166001600160401b0390811782556040519081527fc7f505b2f371ae2175ee4913f4499e1f2633a7b5936321eed1cdaeb6115181d29060200160405180910390a15b50565b6117aa806100d96000396000f3fe608060405234801561001057600080fd5b50600436106101b95760003560e01c8063911cee74116100f9578063c242869311610097578063e6de3f0311610071578063e6de3f03146103aa578063ee99205c146103bd578063f2fde38b146103d0578063f4064e17146103e357600080fd5b8063c24286931461036f578063dfc8bf4e14610382578063e2ed03301461039557600080fd5b8063b280c094116100d3578063b280c09414610323578063b2a6842114610336578063b2c3224914610349578063bed8968c1461035c57600080fd5b8063911cee74146102f557806395b6ef0c14610308578063a57c61531461031b57600080fd5b806338f2375d116101665780635cf03acb116101405780635cf03acb146102ac578063715018a6146102b557806376671808146102bd5780638da5cb5b146102c557600080fd5b806338f2375d1461027357806348bf1aa61461028657806356b54bae1461029957600080fd5b80631041215e116101975780631041215e14610236578063241f39131461024d57806329cf85641461026057600080fd5b8063060b2849146101be5780630b770cdf146101d35780630be0210914610203575b600080fd5b6101d16101cc36600461148a565b6103f6565b005b600a546101e6906001600160a01b031681565b6040516001600160a01b0390911681526020015b60405180910390f35b6102266102113660046114cc565b60056020526000908152604090205460ff1681565b60405190151581526020016101fa565b61023f60045481565b6040519081526020016101fa565b6101d161025b3660046114cc565b610477565b61023f61026e3660046114e5565b6104cb565b610226610281366004611511565b6104ff565b6101d16102943660046114cc565b61051d565b6002546101e6906001600160a01b031681565b61023f60035481565b6101d1610676565b61023f61068a565b7f9016d09d72d40fdae2fd8ceac6b6234c7706214fd39c1cd1e609a0528c199300546001600160a01b03166101e6565b6101d161030336600461153b565b6106fd565b6101d161031636600461156e565b6107e5565b61023f6109de565b61023f6103313660046114cc565b610a83565b6101d161034436600461153b565b610a8e565b6101d16103573660046114cc565b610c15565b6101d161036a36600461148a565b610c52565b61022661037d3660046115db565b610cc6565b6000546101e6906001600160a01b031681565b61039d610d0c565b6040516101fa9190611617565b61023f6103b83660046114cc565b610d19565b6001546101e6906001600160a01b031681565b6101d16103de366004611664565b610d30565b61039d6103f13660046114cc565b610d6e565b600061040061068a565b905061040e81868585610d88565b60008181526007602090815260408083206001600160a01b0388168452909152902061043a9086610f1f565b1561047057604051632c91ad2b60e11b81526001600160a01b038087166004830152851660248201526044015b60405180910390fd5b5050505050565b61047f610f41565b600481905561049461048f61068a565b610f9c565b6040518181527fac3628398dbf48961399872c95a3a6cad2988babf49dcfd40dab6fbef84b4970906020015b60405180910390a150565b60008281526007602090815260408083206001600160a01b038516845290915281206104f69061107f565b90505b92915050565b600061050a82611089565b61051483856104cb565b10159392505050565b6002546001600160a01b03163314610547576040516282b42960e81b815260040160405180910390fd5b60008181526009602052604090205460ff161561057a5760405163e711188160e01b815260048101829052602401610467565b6000818152600960205260408120805460ff1916600117905561059c82610d6e565b905060005b8151811015610671576105cd8282815181106105bf576105bf61167f565b6020026020010151846104ff565b1561066957600a5482516001600160a01b0390911690633dc12d23908490849081106105fb576105fb61167f565b602002602001015160006040518363ffffffff1660e01b81526004016106369291906001600160a01b03929092168252602082015260400190565b600060405180830381600087803b15801561065057600080fd5b505af1158015610664573d6000803e3d6000fd5b505050505b6001016105a1565b505050565b61067e610f41565b610688600061113f565b565b60015460408051630f29818d60e31b815290516000926001600160a01b03169163794c0c689160048083019260209291908290030181865afa1580156106d4573d6000803e3d6000fd5b505050506040513d601f19601f820116820180604052508101906106f89190611695565b905090565b610709338484846103f6565b600061071361068a565b9050600061072182866104cb565b90508060000361074557600082815260066020526040902061074390866111bd565b505b60008281526007602090815260408083206001600160a01b0389168452909152902061077190336111bd565b5061077c85836104ff565b1561079d576001600160a01b03851660009081526008602052604090204290555b6107a682610f9c565b60405184906001600160a01b0387169033907fe84fbfa7fbefb93358b3d7d314bc48b17f721c435443246047f93bbc7b8d0eef90600090a45050505050565b7ff0c57e16840df040f15088dc2f81fe391c3923bec73e23a9662efc9c229c6a00805468010000000000000000810460ff16159067ffffffffffffffff166000811580156108305750825b905060008267ffffffffffffffff16600114801561084d5750303b155b90508115801561085b575080155b156108795760405163f92ee8a960e01b815260040160405180910390fd5b845467ffffffffffffffff1916600117855583156108ad57845468ff00000000000000001916680100000000000000001785555b6001600160a01b038b1615806108ca57506001600160a01b038a16155b806108dc57506001600160a01b038916155b806108ee57506001600160a01b038816155b8061090057506001600160a01b038716155b1561091e5760405163d92e233d60e01b815260040160405180910390fd5b6109278b6111d2565b600080546001600160a01b03808d1673ffffffffffffffffffffffffffffffffffffffff1992831617909255600180548c8416908316179055600280548b8416908316178155600a8054938b1693909216929092179055600387905560045583156109d157845468ff000000000000000019168555604051600181527fc7f505b2f371ae2175ee4913f4499e1f2633a7b5936321eed1cdaeb6115181d29060200160405180910390a15b5050505050505050505050565b6000805460408051632eafe5e760e11b8152905183926001600160a01b031691635d5fcbce9160048083019260209291908290030181865afa158015610a28573d6000803e3d6000fd5b505050506040513d601f19601f82011682018060405250810190610a4c9190611695565b90506000610a5b6003836116c4565b90506004548111610a6f5760009250505090565b600454610a7c90826116e6565b9250505090565b60006104f9826111e3565b610a9a33848484610c52565b6000610aa461068a565b90506000610ab282866104cb565b90508015610ae85760008281526007602090815260408083206001600160a01b03891684529091529020610ae69033611258565b505b80600103610bcd576000828152600660205260409020610b089086611258565b506001600160a01b03851660009081526008602052604090205415610bcd576001600160a01b038516600090815260086020526040812054610b4a90426116e6565b600a54604051633dc12d2360e01b81526001600160a01b03898116600483015260248201849052929350911690633dc12d2390604401600060405180830381600087803b158015610b9a57600080fd5b505af1158015610bae573d6000803e3d6000fd5b5050506001600160a01b03871660009081526008602052604081205550505b610bd682610f9c565b60405184906001600160a01b0387169033907f392643b1c214ef857ada7fce1cd87c13940ad6883df76dba4808672b7d69c81590600090a45050505050565b610c1d610f41565b60038190556040518181527f2270122bbf8298f106abbe21d0488dbabb7f01c27b5872446452ae4c3a9d972b906020016104c0565b6000610c5c61068a565b9050610c6a81868585610d88565b60008181526007602090815260408083206001600160a01b03881684529091529020610c969086610f1f565b610470576040516315af88af60e31b81526001600160a01b03808716600483015285166024820152604401610467565b6000610d048260076000610cd861068a565b8152602080820192909252604090810160009081206001600160a01b0389168252909252902090610f1f565b949350505050565b60606106f86103f161068a565b60008181526006602052604081206104f99061107f565b610d38610f41565b6001600160a01b038116610d6257604051631e4fbdf760e01b815260006004820152602401610467565b610d6b8161113f565b50565b60008181526006602052604090206060906104f99061126d565b60005460405163facd743b60e01b81526001600160a01b0385811660048301529091169063facd743b90602401602060405180830381865afa158015610dd2573d6000803e3d6000fd5b505050506040513d601f19601f82011682018060405250810190610df691906116f9565b610e1357604051631aa1e81560e01b815260040160405180910390fd5b43821180610e22575080824014155b15610e405760405163be5a36cf60e01b815260040160405180910390fd5b6000848152600660205260409020610e589084610f1f565b15610e815760405163b3e1875160e01b81526001600160a01b0384166004820152602401610467565b60015460408051633834f3a360e11b815290516000926001600160a01b031691637069e7469160048083019260209291908290030181865afa158015610ecb573d6000803e3d6000fd5b505050506040513d601f19601f82011682018060405250810190610eef9190611695565b905060035481610eff919061171b565b431015610470576040516341c86e2f60e01b815260040160405180910390fd5b6001600160a01b038116600090815260018301602052604081205415156104f6565b33610f737f9016d09d72d40fdae2fd8ceac6b6234c7706214fd39c1cd1e609a0528c199300546001600160a01b031690565b6001600160a01b0316146106885760405163118cdaa760e01b8152336004820152602401610467565b60008181526005602052604090205460ff1615610fb65750565b6000610fc06109de565b90506000610fcd836111e3565b905081811015610fdc57505050565b600083815260056020526040808220805460ff191660011790556002548151632cb1043960e11b815291516001600160a01b03909116926359620872926004808201939182900301818387803b15801561103557600080fd5b505af1158015611049573d6000803e3d6000fd5b50506040514392508591507f56d37189df10957afc08d69b74c305bd8e82d9f3a6af80cc3a989a5c082b31ea90600090a3505050565b60006104f9825490565b60008061109583610d19565b60008054906101000a90046001600160a01b03166001600160a01b0316635d5fcbce6040518163ffffffff1660e01b8152600401602060405180830381865afa1580156110e6573d6000803e3d6000fd5b505050506040513d601f19601f8201168201806040525081019061110a9190611695565b61111491906116e6565b9050600361112382600261172e565b61112d91906116c4565b61113890600161171b565b9392505050565b7f9016d09d72d40fdae2fd8ceac6b6234c7706214fd39c1cd1e609a0528c199300805473ffffffffffffffffffffffffffffffffffffffff1981166001600160a01b03848116918217845560405192169182907f8be0079c531659141344cd1fd0a4f28419497f9722a3daafe3b4186f6b6457e090600090a3505050565b60006104f6836001600160a01b03841661127a565b6111da6112c9565b610d6b81611317565b6000806111ef83611089565b90506000806111fd85610d6e565b905060005b815181101561124e57600082828151811061121f5761121f61167f565b602002602001015190508461123488836104cb565b106112455761124284611745565b93505b50600101611202565b5090949350505050565b60006104f6836001600160a01b03841661131f565b6060600061113883611412565b60008181526001830160205260408120546112c1575081546001818101845560008481526020808220909301849055845484825282860190935260409020919091556104f9565b5060006104f9565b7ff0c57e16840df040f15088dc2f81fe391c3923bec73e23a9662efc9c229c6a005468010000000000000000900460ff1661068857604051631afcd79f60e31b815260040160405180910390fd5b610d386112c9565b600081815260018301602052604081205480156114085760006113436001836116e6565b8554909150600090611357906001906116e6565b90508082146113bc5760008660000182815481106113775761137761167f565b906000526020600020015490508087600001848154811061139a5761139a61167f565b6000918252602080832090910192909255918252600188019052604090208390555b85548690806113cd576113cd61175e565b6001900381819060005260206000200160009055905585600101600086815260200190815260200160002060009055600193505050506104f9565b60009150506104f9565b60608160000180548060200260200160405190810160405280929190818152602001828054801561146257602002820191906000526020600020905b81548152602001906001019080831161144e575b50505050509050919050565b80356001600160a01b038116811461148557600080fd5b919050565b600080600080608085870312156114a057600080fd5b6114a98561146e565b93506114b76020860161146e565b93969395505050506040820135916060013590565b6000602082840312156114de57600080fd5b5035919050565b600080604083850312156114f857600080fd5b823591506115086020840161146e565b90509250929050565b6000806040838503121561152457600080fd5b61152d8361146e565b946020939093013593505050565b60008060006060848603121561155057600080fd5b6115598461146e565b95602085013595506040909401359392505050565b60008060008060008060c0878903121561158757600080fd5b6115908761146e565b955061159e6020880161146e565b94506115ac6040880161146e565b93506115ba6060880161146e565b92506115c86080880161146e565b915060a087013590509295509295509295565b6000806000606084860312156115f057600080fd5b833592506116006020850161146e565b915061160e6040850161146e565b90509250925092565b6020808252825182820181905260009190848201906040850190845b818110156116585783516001600160a01b031683529284019291840191600101611633565b50909695505050505050565b60006020828403121561167657600080fd5b6104f68261146e565b634e487b7160e01b600052603260045260246000fd5b6000602082840312156116a757600080fd5b5051919050565b634e487b7160e01b600052601160045260246000fd5b6000826116e157634e487b7160e01b600052601260045260246000fd5b500490565b818103818111156104f9576104f96116ae565b60006020828403121561170b57600080fd5b8151801515811461113857600080fd5b808201808211156104f9576104f96116ae565b80820281158282048414176104f9576104f96116ae565b600060018201611757576117576116ae565b5060010190565b634e487b7160e01b600052603160045260246000fdfea2646970667358221220cb2de7f2a7a644071975ad1d9121da3202765c613a4f2359fb439f5454e3708b64736f6c63430008190033",
  "linkReferences": {},
  "deployedLinkReferences": {}
}