{
  "_format": "hh-sol-artifact-1",
  "contractName": "ConnectivityTrackerHbbftMock",
  "sourceName": "contracts/mockContracts/ConnectivityTrackerHbbftMock.sol",
  "abi": [
    {
      "inputs": [
        {
          "internalType": "uint256",
          "name": "",
          "type": "uint256"
        }
      ],
      "name": "earlyEpochEnd",
      "outputs": [
        {
          "internalType": "bool",
          "name": "",
          "type": "bool"
        }
      ],
      "stateMutability": "view",
      "type": "function"
    },
    {
      "inputs": [
        {
          "internalType": "uint256",
          "name": "",
          "type": "uint256"
        }
      ],
      "name": "epochPenaltiesSent",
      "outputs": [
        {
          "internalType": "bool",
          "name": "",
          "type": "bool"
        }
      ],
      "stateMutability": "view",
      "type": "function"
    },
    {
      "inputs": [
        {
          "internalType": "uint256",
          "name": "epoch",
          "type": "uint256"
        }
      ],
      "name": "isEarlyEpochEnd",
      "outputs": [
        {
          "internalType": "bool",
          "name": "",
          "type": "bool"
        }
      ],
      "stateMutability": "view",
      "type": "function"
    },
    {
      "inputs": [
        {
          "internalType": "uint256",
          "name": "epoch",
          "type": "uint256"
        }
      ],
      "name": "isEpochPenaltiesSent",
      "outputs": [
        {
          "internalType": "bool",
          "name": "",
          "type": "bool"
        }
      ],
      "stateMutability": "view",
      "type": "function"
    },
    {
      "inputs": [
        {
          "internalType": "uint256",
          "name": "epoch",
          "type": "uint256"
        }
      ],
      "name": "penaliseFaultyValidators",
      "outputs": [],
      "stateMutability": "nonpayable",
      "type": "function"
    },
    {
      "inputs": [
        {
          "internalType": "uint256",
          "name": "epoch",
          "type": "uint256"
        },
        {
          "internalType": "bool",
          "name": "set",
          "type": "bool"
        }
      ],
      "name": "setEarlyEpochEnd",
      "outputs": [],
      "stateMutability": "nonpayable",
      "type": "function"
    },
    {
      "stateMutability": "payable",
      "type": "receive"
    }
  ],
  "bytecode": "0x6080604052348015600f57600080fd5b506103448061001f6000396000f3fe6080604052600436106100695760003560e01c80635db6b545116100435780635db6b54514610118578063727828d214610155578063a41cda361461019257610070565b80630be021091461007557806323decdcd146100b257806348bf1aa6146100ef57610070565b3661007057005b600080fd5b34801561008157600080fd5b5061009c600480360381019061009791906102aa565b6101bb565b6040516100a991906102c6565b60405180910390f35b3480156100be57600080fd5b506100d960048036038101906100d491906102aa565b6101e4565b6040516100e691906102c6565b60405180910390f35b3480156100fb57600080fd5b50610116600480360381019061011191906102aa565b610204565b005b34801561012457600080fd5b5061013f600480360381019061013a91906102aa565b610232565b60405161014c91906102c6565b60405180910390f35b34801561016157600080fd5b5061017c600480360381019061017791906102aa565b610252565b60405161018991906102c6565b60405180910390f35b34801561019e57600080fd5b506101b960048036038101906101b491906102d9565b61027c565b005b600080600083815260200190815260200160002060009054906101000a900460ff169050919050565b60016020528060005260406000206000915054906101000a900460ff1681565b600180600083815260200190815260200160002060006101000a81548160ff02191690831515021790555050565b60006020528060005260406000206000915054906101000a900460ff1681565b60006001600083815260200190815260200160002060009054906101000a900460ff169050919050565b8060008084815260200190815260200160002060006101000a81548160ff0219169083151502179055505050565b6000602082840312156102bc57600080fd5b8135905092915050565b6000602082019050821515825292915050565b600080604083850312156102ec57600080fd5b823591506020830135801515811461030357600080fd5b80915050925092905056fea2646970667358221220049b4176f4114f843ad01191d303305fd345234a6775936de51b733f01ee0ad064736f6c63430008190033",
  "linkReferences": {},
  "deployedLinkReferences": {}
}