{
  "_format": "hh-sol-artifact-1",
  "contractName": "ConnectivityTrackerHbbft",
  "sourceName": "contracts/ConnectivityTrackerHbbft.sol",
  "abi": [
    {
      "inputs": [],
      "stateMutability": "nonpayable",
      "type": "constructor"
    },
    {
      "inputs": [
        {
          "internalType": "address",
          "name": "reporter",
          "type": "address"
        },
        {
          "internalType": "address",
          "name": "validator",
          "type": "address"
        }
      ],
      "name": "AlreadyReported",
      "type": "error"
    },
    {
      "inputs": [
        {
          "internalType": "address",
          "name": "reporter",
          "type": "address"
        }
      ],
      "name": "CannotReportByFlaggedValidator",
      "type": "error"
    },
    {
      "inputs": [
        {
          "internalType": "uint256",
          "name": "epoch",
          "type": "uint256"
        }
      ],
      "name": "EpochPenaltiesAlreadySent",
      "type": "error"
    },
    {
      "inputs": [],
      "name": "GetterCallFailed",
      "type": "error"
    },
    {
      "inputs": [],
      "name": "InvalidBlock",
      "type": "error"
    },
    {
      "inputs": [],
      "name": "InvalidInitialization",
      "type": "error"
    },
    {
      "inputs": [
        {
          "internalType": "uint256",
          "name": "_newVal",
          "type": "uint256"
        }
      ],
      "name": "NewValueOutOfRange",
      "type": "error"
    },
    {
      "inputs": [],
      "name": "NotInitializing",
      "type": "error"
    },
    {
      "inputs": [],
      "name": "OnlyValidator",
      "type": "error"
    },
    {
      "inputs": [
        {
          "internalType": "address",
          "name": "owner",
          "type": "address"
        }
      ],
      "name": "OwnableInvalidOwner",
      "type": "error"
    },
    {
      "inputs": [
        {
          "internalType": "address",
          "name": "account",
          "type": "address"
        }
      ],
      "name": "OwnableUnauthorizedAccount",
      "type": "error"
    },
    {
      "inputs": [],
      "name": "ReportTooEarly",
      "type": "error"
    },
    {
      "inputs": [],
      "name": "Unauthorized",
      "type": "error"
    },
    {
      "inputs": [
        {
          "internalType": "address",
          "name": "reporter",
          "type": "address"
        },
        {
          "internalType": "address",
          "name": "validator",
          "type": "address"
        }
      ],
      "name": "UnknownReconnectReporter",
      "type": "error"
    },
    {
      "inputs": [],
      "name": "ZeroAddress",
      "type": "error"
    },
    {
      "anonymous": false,
      "inputs": [
        {
          "indexed": false,
          "internalType": "uint64",
          "name": "version",
          "type": "uint64"
        }
      ],
      "name": "Initialized",
      "type": "event"
    },
    {
      "anonymous": false,
      "inputs": [
        {
          "indexed": true,
          "internalType": "uint256",
          "name": "epoch",
          "type": "uint256"
        },
        {
          "indexed": true,
          "internalType": "uint256",
          "name": "blockNumber",
          "type": "uint256"
        }
      ],
      "name": "NotifyEarlyEpochEnd",
      "type": "event"
    },
    {
      "anonymous": false,
      "inputs": [
        {
          "indexed": true,
          "internalType": "address",
          "name": "previousOwner",
          "type": "address"
        },
        {
          "indexed": true,
          "internalType": "address",
          "name": "newOwner",
          "type": "address"
        }
      ],
      "name": "OwnershipTransferred",
      "type": "event"
    },
    {
      "anonymous": false,
      "inputs": [
        {
          "indexed": false,
          "internalType": "bytes4",
          "name": "funcSelector",
          "type": "bytes4"
        }
      ],
      "name": "RemoveChangeableParameter",
      "type": "event"
    },
    {
      "anonymous": false,
      "inputs": [
        {
          "indexed": true,
          "internalType": "address",
          "name": "reporter",
          "type": "address"
        },
        {
          "indexed": true,
          "internalType": "address",
          "name": "validator",
          "type": "address"
        },
        {
          "indexed": true,
          "internalType": "uint256",
          "name": "blockNumber",
          "type": "uint256"
        }
      ],
      "name": "ReportMissingConnectivity",
      "type": "event"
    },
    {
      "anonymous": false,
      "inputs": [
        {
          "indexed": true,
          "internalType": "address",
          "name": "reporter",
          "type": "address"
        },
        {
          "indexed": true,
          "internalType": "address",
          "name": "validator",
          "type": "address"
        },
        {
          "indexed": true,
          "internalType": "uint256",
          "name": "blockNumber",
          "type": "uint256"
        }
      ],
      "name": "ReportReconnect",
      "type": "event"
    },
    {
      "anonymous": false,
      "inputs": [
        {
          "indexed": false,
          "internalType": "bytes4",
          "name": "setter",
          "type": "bytes4"
        },
        {
          "indexed": false,
          "internalType": "bytes4",
          "name": "getter",
          "type": "bytes4"
        },
        {
          "indexed": false,
          "internalType": "uint256[]",
          "name": "params",
          "type": "uint256[]"
        }
      ],
      "name": "SetChangeableParameter",
      "type": "event"
    },
    {
      "anonymous": false,
      "inputs": [
        {
          "indexed": false,
          "internalType": "uint256",
          "name": "_reportDisallowPeriodSeconds",
          "type": "uint256"
        }
      ],
      "name": "SetReportDisallowPeriod",
      "type": "event"
    },
    {
      "inputs": [],
      "name": "blockRewardContract",
      "outputs": [
        {
          "internalType": "contract IBlockRewardHbbft",
          "name": "",
          "type": "address"
        }
      ],
      "stateMutability": "view",
      "type": "function"
    },
    {
      "inputs": [],
      "name": "bonusScoreContract",
      "outputs": [
        {
          "internalType": "contract IBonusScoreSystem",
          "name": "",
          "type": "address"
        }
      ],
      "stateMutability": "view",
      "type": "function"
    },
    {
      "inputs": [
        {
          "internalType": "address",
          "name": "caller",
          "type": "address"
        },
        {
          "internalType": "address",
          "name": "validator",
          "type": "address"
        },
        {
          "internalType": "uint256",
          "name": "blockNumber",
          "type": "uint256"
        },
        {
          "internalType": "bytes32",
          "name": "blockHash",
          "type": "bytes32"
        }
      ],
      "name": "checkReportMissingConnectivityCallable",
      "outputs": [],
      "stateMutability": "view",
      "type": "function"
    },
    {
      "inputs": [
        {
          "internalType": "address",
          "name": "caller",
          "type": "address"
        },
        {
          "internalType": "address",
          "name": "validator",
          "type": "address"
        },
        {
          "internalType": "uint256",
          "name": "blockNumber",
          "type": "uint256"
        },
        {
          "internalType": "bytes32",
          "name": "blockHash",
          "type": "bytes32"
        }
      ],
      "name": "checkReportReconnectCallable",
      "outputs": [],
      "stateMutability": "view",
      "type": "function"
    },
    {
      "inputs": [
        {
          "internalType": "uint256",
          "name": "epoch",
          "type": "uint256"
        }
      ],
      "name": "countFaultyValidators",
      "outputs": [
        {
          "internalType": "uint256",
          "name": "",
          "type": "uint256"
        }
      ],
      "stateMutability": "view",
      "type": "function"
    },
    {
      "inputs": [],
      "name": "currentEpoch",
      "outputs": [
        {
          "internalType": "uint256",
          "name": "",
          "type": "uint256"
        }
      ],
      "stateMutability": "view",
      "type": "function"
    },
    {
      "inputs": [],
      "name": "earlyEpochEndThreshold",
      "outputs": [
        {
          "internalType": "uint256",
          "name": "",
          "type": "uint256"
        }
      ],
      "stateMutability": "view",
      "type": "function"
    },
    {
      "inputs": [],
      "name": "earlyEpochEndToleranceLevel",
      "outputs": [
        {
          "internalType": "uint256",
          "name": "",
          "type": "uint256"
        }
      ],
      "stateMutability": "view",
      "type": "function"
    },
    {
      "inputs": [
        {
          "internalType": "string",
          "name": "_selector",
          "type": "string"
        }
      ],
      "name": "getAllowedParamsRange",
      "outputs": [
        {
          "components": [
            {
              "internalType": "bytes4",
              "name": "getter",
              "type": "bytes4"
            },
            {
              "internalType": "uint256[]",
              "name": "range",
              "type": "uint256[]"
            }
          ],
          "internalType": "struct ValueGuards.ParameterRange",
          "name": "",
          "type": "tuple"
        }
      ],
      "stateMutability": "view",
      "type": "function"
    },
    {
      "inputs": [
        {
          "internalType": "bytes4",
          "name": "_selector",
          "type": "bytes4"
        }
      ],
      "name": "getAllowedParamsRangeWithSelector",
      "outputs": [
        {
          "components": [
            {
              "internalType": "bytes4",
              "name": "getter",
              "type": "bytes4"
            },
            {
              "internalType": "uint256[]",
              "name": "range",
              "type": "uint256[]"
            }
          ],
          "internalType": "struct ValueGuards.ParameterRange",
          "name": "",
          "type": "tuple"
        }
      ],
      "stateMutability": "view",
      "type": "function"
    },
    {
      "inputs": [],
      "name": "getFlaggedValidators",
      "outputs": [
        {
          "internalType": "address[]",
          "name": "",
          "type": "address[]"
        }
      ],
      "stateMutability": "view",
      "type": "function"
    },
    {
      "inputs": [
        {
          "internalType": "uint256",
          "name": "epoch",
          "type": "uint256"
        }
      ],
      "name": "getFlaggedValidatorsByEpoch",
      "outputs": [
        {
          "internalType": "address[]",
          "name": "",
          "type": "address[]"
        }
      ],
      "stateMutability": "view",
      "type": "function"
    },
    {
      "inputs": [
        {
          "internalType": "uint256",
          "name": "epoch",
          "type": "uint256"
        }
      ],
      "name": "getFlaggedValidatorsCount",
      "outputs": [
        {
          "internalType": "uint256",
          "name": "",
          "type": "uint256"
        }
      ],
      "stateMutability": "view",
      "type": "function"
    },
    {
      "inputs": [
        {
          "internalType": "uint256",
          "name": "epoch",
          "type": "uint256"
        },
        {
          "internalType": "address",
          "name": "validator",
          "type": "address"
        }
      ],
      "name": "getValidatorConnectivityScore",
      "outputs": [
        {
          "internalType": "uint256",
          "name": "",
          "type": "uint256"
        }
      ],
      "stateMutability": "view",
      "type": "function"
    },
    {
      "inputs": [
        {
          "internalType": "address",
          "name": "_contractOwner",
          "type": "address"
        },
        {
          "internalType": "address",
          "name": "_validatorSetContract",
          "type": "address"
        },
        {
          "internalType": "address",
          "name": "_stakingContract",
          "type": "address"
        },
        {
          "internalType": "address",
          "name": "_blockRewardContract",
          "type": "address"
        },
        {
          "internalType": "address",
          "name": "_bonusScoreContract",
          "type": "address"
        },
        {
          "internalType": "uint256",
          "name": "_reportDisallowPeriodSeconds",
          "type": "uint256"
        }
      ],
      "name": "initialize",
      "outputs": [],
      "stateMutability": "nonpayable",
      "type": "function"
    },
    {
      "inputs": [
        {
          "internalType": "uint256",
          "name": "",
          "type": "uint256"
        }
      ],
      "name": "isEarlyEpochEnd",
      "outputs": [
        {
          "internalType": "bool",
          "name": "",
          "type": "bool"
        }
      ],
      "stateMutability": "view",
      "type": "function"
    },
    {
      "inputs": [
        {
          "internalType": "uint256",
          "name": "epoch",
          "type": "uint256"
        },
        {
          "internalType": "address",
          "name": "validator",
          "type": "address"
        }
      ],
      "name": "isFaultyValidator",
      "outputs": [
        {
          "internalType": "bool",
          "name": "",
          "type": "bool"
        }
      ],
      "stateMutability": "view",
      "type": "function"
    },
    {
      "inputs": [
        {
          "internalType": "uint256",
          "name": "",
          "type": "uint256"
        },
        {
          "internalType": "address",
          "name": "validator",
          "type": "address"
        },
        {
          "internalType": "address",
          "name": "reporter",
          "type": "address"
        }
      ],
      "name": "isReported",
      "outputs": [
        {
          "internalType": "bool",
          "name": "",
          "type": "bool"
        }
      ],
      "stateMutability": "view",
      "type": "function"
    },
    {
      "inputs": [
        {
          "internalType": "bytes4",
          "name": "funcSelector",
          "type": "bytes4"
        },
        {
          "internalType": "uint256",
          "name": "newVal",
          "type": "uint256"
        }
      ],
      "name": "isWithinAllowedRange",
      "outputs": [
        {
          "internalType": "bool",
          "name": "",
          "type": "bool"
        }
      ],
      "stateMutability": "view",
      "type": "function"
    },
    {
      "inputs": [],
      "name": "owner",
      "outputs": [
        {
          "internalType": "address",
          "name": "",
          "type": "address"
        }
      ],
      "stateMutability": "view",
      "type": "function"
    },
    {
      "inputs": [
        {
          "internalType": "uint256",
          "name": "epoch",
          "type": "uint256"
        }
      ],
      "name": "penaliseFaultyValidators",
      "outputs": [],
      "stateMutability": "nonpayable",
      "type": "function"
    },
    {
      "inputs": [
        {
          "internalType": "bytes4",
          "name": "funcSelector",
          "type": "bytes4"
        }
      ],
      "name": "removeAllowedChangeableParameter",
      "outputs": [],
      "stateMutability": "nonpayable",
      "type": "function"
    },
    {
      "inputs": [],
      "name": "renounceOwnership",
      "outputs": [],
      "stateMutability": "nonpayable",
      "type": "function"
    },
    {
      "inputs": [],
      "name": "reportDisallowPeriod",
      "outputs": [
        {
          "internalType": "uint256",
          "name": "",
          "type": "uint256"
        }
      ],
      "stateMutability": "view",
      "type": "function"
    },
    {
      "inputs": [
        {
          "internalType": "address",
          "name": "validator",
          "type": "address"
        },
        {
          "internalType": "uint256",
          "name": "blockNumber",
          "type": "uint256"
        },
        {
          "internalType": "bytes32",
          "name": "blockHash",
          "type": "bytes32"
        }
      ],
      "name": "reportMissingConnectivity",
      "outputs": [],
      "stateMutability": "nonpayable",
      "type": "function"
    },
    {
      "inputs": [
        {
          "internalType": "address",
          "name": "validator",
          "type": "address"
        },
        {
          "internalType": "uint256",
          "name": "blockNumber",
          "type": "uint256"
        },
        {
          "internalType": "bytes32",
          "name": "blockHash",
          "type": "bytes32"
        }
      ],
      "name": "reportReconnect",
      "outputs": [],
      "stateMutability": "nonpayable",
      "type": "function"
    },
    {
      "inputs": [
        {
          "internalType": "bytes4",
          "name": "setter",
          "type": "bytes4"
        },
        {
          "internalType": "bytes4",
          "name": "getter",
          "type": "bytes4"
        },
        {
          "internalType": "uint256[]",
          "name": "params",
          "type": "uint256[]"
        }
      ],
      "name": "setAllowedChangeableParameter",
      "outputs": [],
      "stateMutability": "nonpayable",
      "type": "function"
    },
    {
      "inputs": [
        {
          "internalType": "uint256",
          "name": "_reportDisallowPeriodSeconds",
          "type": "uint256"
        }
      ],
      "name": "setReportDisallowPeriod",
      "outputs": [],
      "stateMutability": "nonpayable",
      "type": "function"
    },
    {
      "inputs": [],
      "name": "stakingContract",
      "outputs": [
        {
          "internalType": "contract IStakingHbbft",
          "name": "",
          "type": "address"
        }
      ],
      "stateMutability": "view",
      "type": "function"
    },
    {
      "inputs": [
        {
          "internalType": "address",
          "name": "newOwner",
          "type": "address"
        }
      ],
      "name": "transferOwnership",
      "outputs": [],
      "stateMutability": "nonpayable",
      "type": "function"
    },
    {
      "inputs": [],
      "name": "validatorSetContract",
      "outputs": [
        {
          "internalType": "contract IValidatorSetHbbft",
          "name": "",
          "type": "address"
        }
      ],
      "stateMutability": "view",
      "type": "function"
    }
  ],
  "bytecode": "0x6080604052348015600f57600080fd5b506016601a565b60ca565b7ff0c57e16840df040f15088dc2f81fe391c3923bec73e23a9662efc9c229c6a00805468010000000000000000900460ff161560695760405163f92ee8a960e01b815260040160405180910390fd5b80546001600160401b039081161460c75780546001600160401b0319166001600160401b0390811782556040519081527fc7f505b2f371ae2175ee4913f4499e1f2633a7b5936321eed1cdaeb6115181d29060200160405180910390a15b50565b61233a806100d96000396000f3fe608060405234801561001057600080fd5b50600436106101e55760003560e01c806395b6ef0c1161010f578063c2428693116100a2578063ee99205c11610071578063ee99205c14610439578063f2fde38b1461044c578063f4064e171461045f578063fb58b40e1461047257600080fd5b8063c2428693146103eb578063dfc8bf4e146103fe578063e2ed033014610411578063e6de3f031461042657600080fd5b8063b710c15d116100de578063b710c15d14610392578063ba08d237146103b2578063bed8968c146103c5578063bf348f86146103d857600080fd5b806395b6ef0c14610351578063a57c615314610364578063b280c0941461036c578063b2a684211461037f57600080fd5b80634346845f11610187578063766718081161015657806376671808146102f35780637d8149db146102fb5780638da5cb5b1461030e578063911cee741461033e57600080fd5b80634346845f146102b257806348bf1aa6146102c557806356b54bae146102d8578063715018a6146102eb57600080fd5b80631041215e116101c35780631041215e14610262578063116f114914610279578063161b07b21461028c57806329cf85641461029f57600080fd5b8063060b2849146101ea5780630b770cdf146101ff5780630be021091461022f575b600080fd5b6101fd6101f8366004611d2e565b61047b565b005b600954610212906001600160a01b031681565b6040516001600160a01b0390911681526020015b60405180910390f35b61025261023d366004611d70565b60056020526000908152604090205460ff1681565b6040519015158152602001610226565b61026b60045481565b604051908152602001610226565b6101fd610287366004611d70565b6104fc565b61025261029a366004611d89565b610578565b61026b6102ad366004611d89565b610598565b6101fd6102c0366004611dcd565b6105ca565b6101fd6102d3366004611d70565b6106d0565b600254610212906001600160a01b031681565b6101fd610829565b61026b61083d565b6101fd610309366004611e5e565b6108b0565b7f9016d09d72d40fdae2fd8ceac6b6234c7706214fd39c1cd1e609a0528c199300546001600160a01b0316610212565b6101fd61034c366004611e79565b610932565b6101fd61035f366004611eac565b610a08565b61026b610c88565b61026b61037a366004611d70565b610d2d565b6101fd61038d366004611e79565b610d38565b6103a56103a0366004611f2f565b610eb9565b6040516102269190611fe0565b6102526103c0366004612042565b610f69565b6101fd6103d3366004611d2e565b611144565b6103a56103e6366004611e5e565b6111b8565b6102526103f936600461206c565b61125d565b600054610212906001600160a01b031681565b6104196112a3565b60405161022691906120a8565b61026b610434366004611d70565b6112b0565b600154610212906001600160a01b031681565b6101fd61045a3660046120f5565b6112c7565b61041961046d366004611d70565b611305565b61026b60035481565b600061048561083d565b90506104938186858561131f565b60008181526007602090815260408083206001600160a01b038816845290915290206104bf90866114b6565b156104f557604051632c91ad2b60e11b81526001600160a01b038087166004830152851660248201526044015b60405180910390fd5b5050505050565b6105046114d8565b8061051b6000356001600160e01b03191682610f69565b61053b576040516373330d9b60e01b8152600481018290526024016104ec565b60038290556040518281527ff0ae05d1ef296238e04486dbfa703343cb8a565a7926535e21eebd26211d5154906020015b60405180910390a15050565b600061058383611533565b61058d8484610598565b101590505b92915050565b60008281526007602090815260408083206001600160a01b038516845290915281206105c3906115e2565b9392505050565b6105d26114d8565b60006105dc6115ec565b90506040518060400160405280857bffffffffffffffffffffffffffffffffffffffffffffffffffffffff1916815260200184848080602002602001604051908101604052809392919081815260200183836020028082843760009201829052509390945250506001600160e01b031988168152602084815260409091208351815463ffffffff191660e09190911c178155838201518051919350610688926001850192910190611c98565b509050507f3665bf9cd0ba4ddceeec259e21dcf8a4510f3b1130bd42e950828e69d85408ba858585856040516106c19493929190612110565b60405180910390a15050505050565b6002546001600160a01b031633146106fa576040516282b42960e81b815260040160405180910390fd5b60008181526008602052604090205460ff161561072d5760405163e711188160e01b8152600481018290526024016104ec565b6000818152600860205260408120805460ff1916600117905561074f82611305565b905060005b815181101561082457610780838383815181106107735761077361217d565b6020026020010151610578565b1561081c5760095482516001600160a01b0390911690633dc12d23908490849081106107ae576107ae61217d565b602002602001015160006040518363ffffffff1660e01b81526004016107e99291906001600160a01b03929092168252602082015260400190565b600060405180830381600087803b15801561080357600080fd5b505af1158015610817573d6000803e3d6000fd5b505050505b600101610754565b505050565b6108316114d8565b61083b600061164e565b565b60015460408051630f29818d60e31b815290516000926001600160a01b03169163794c0c689160048083019260209291908290030181865afa158015610887573d6000803e3d6000fd5b505050506040513d601f19601f820116820180604052508101906108ab9190612193565b905090565b6108b86114d8565b60006108c26115ec565b6001600160e01b031983166000908152602082905260408120805463ffffffff191681559192506108f66001830182611ce3565b50506040516001600160e01b0319831681527fed27cb02231782dadf13473a7828cb980c4d685791b7a3136dde00f8c3594cb69060200161056c565b61093e3384848461047b565b600061094861083d565b905060006109568286610598565b90508060000361097a57600082815260066020526040902061097890866116cc565b505b60008281526007602090815260408083206001600160a01b038916845290915290206109a690336116cc565b506109b18286610578565b156109c0576109c082866116e1565b6109c98261178d565b60405184906001600160a01b0387169033907fe84fbfa7fbefb93358b3d7d314bc48b17f721c435443246047f93bbc7b8d0eef90600090a45050505050565b7ff0c57e16840df040f15088dc2f81fe391c3923bec73e23a9662efc9c229c6a00805468010000000000000000810460ff16159067ffffffffffffffff16600081158015610a535750825b905060008267ffffffffffffffff166001148015610a705750303b155b905081158015610a7e575080155b15610a9c5760405163f92ee8a960e01b815260040160405180910390fd5b845467ffffffffffffffff191660011785558315610ad057845468ff00000000000000001916680100000000000000001785555b6001600160a01b038b161580610aed57506001600160a01b038a16155b80610aff57506001600160a01b038916155b80610b1157506001600160a01b038816155b80610b2357506001600160a01b038716155b15610b415760405163d92e233d60e01b815260040160405180910390fd5b610b4a8b611870565b600080546001600160a01b038c811673ffffffffffffffffffffffffffffffffffffffff19928316178355600180548d8316908416179055600280548c831690841617815560098054928c169290931691909117909155600388905560045560408051600a808252610160820190925260b49291602082016101408036833701905050905060005b600a811015610c1457610be583826121c2565b610bef90846121d9565b828281518110610c0157610c0161217d565b6020908102919091010152600101610bd2565b50610c2e63116f114960e01b637dac5a0760e11b83611881565b50508315610c7b57845468ff000000000000000019168555604051600181527fc7f505b2f371ae2175ee4913f4499e1f2633a7b5936321eed1cdaeb6115181d29060200160405180910390a15b5050505050505050505050565b6000805460408051632eafe5e760e11b8152905183926001600160a01b031691635d5fcbce9160048083019260209291908290030181865afa158015610cd2573d6000803e3d6000fd5b505050506040513d601f19601f82011682018060405250810190610cf69190612193565b90506000610d056003836121ec565b90506004548111610d195760009250505090565b600454610d26908261220e565b9250505090565b600061059282611936565b610d4433848484611144565b6000610d4e61083d565b90506000610d5c8286610598565b60008381526007602090815260408083206001600160a01b038a1684529091529020909150610d8b90336119ab565b5080600103610e71576000828152600660205260409020610dac90866119ab565b506000828152600a602090815260408083206001600160a01b03891684529091529020548015610e6f576000610de2824261220e565b600954604051633dc12d2360e01b81526001600160a01b038a8116600483015260248201849052929350911690633dc12d2390604401600060405180830381600087803b158015610e3257600080fd5b505af1158015610e46573d6000803e3d6000fd5b5050506000858152600a602090815260408083206001600160a01b038c16845290915281205550505b505b610e7a8261178d565b60405184906001600160a01b0387169033907f392643b1c214ef857ada7fce1cd87c13940ad6883df76dba4808672b7d69c81590600090a45050505050565b604080518082019091526000815260606020820152610ed66115ec565b82516020808501919091206001600160e01b0319908116600090815292825260409283902083518085018552815460e01b9092168252600181018054855181860281018601909652808652929491938581019390830182828015610f5957602002820191906000526020600020905b815481526020019060010190808311610f45575b5050505050815250509050919050565b600080610f746115ec565b6001600160e01b031980861660009081526020838152604080832081518083018352815460e01b90951685526001810180548351818602810186019094528084529697509395909385840193909190830182828015610ff257602002820191906000526020600020905b815481526020019060010190808311610fde575b505050505081525050905080602001515160000361101557600092505050610592565b60208101518151600090611028906119c0565b905060005b825181101561113657818382815181106110495761104961217d565b60200260200101510361112e57600080821161107f57836000815181106110725761107261217d565b60200260200101516110a4565b8361108b60018461220e565b8151811061109b5761109b61217d565b60200260200101515b90506000600185516110b6919061220e565b83106110e85784600186516110cb919061220e565b815181106110db576110db61217d565b602002602001015161110d565b846110f48460016121d9565b815181106111045761110461217d565b60200260200101515b905081891415801561111f5750808914155b15975050505050505050610592565b60010161102d565b506000979650505050505050565b600061114e61083d565b905061115c8186858561131f565b60008181526007602090815260408083206001600160a01b0388168452909152902061118890866114b6565b6104f5576040516315af88af60e31b81526001600160a01b038087166004830152851660248201526044016104ec565b6040805180820190915260008152606060208201526111d56115ec565b6001600160e01b03198084166000908152602092835260409081902081518083018352815460e01b9093168352600181018054835181870281018701909452808452939491938583019392830182828015610f595760200282019190600052602060002090815481526020019060010190808311610f45575050505050815250509050919050565b600061129b826007600061126f61083d565b8152602080820192909252604090810160009081206001600160a01b03891682529092529020906114b6565b949350505050565b60606108ab61046d61083d565b6000818152600660205260408120610592906115e2565b6112cf6114d8565b6001600160a01b0381166112f957604051631e4fbdf760e01b8152600060048201526024016104ec565b6113028161164e565b50565b600081815260066020526040902060609061059290611a97565b60005460405163facd743b60e01b81526001600160a01b0385811660048301529091169063facd743b90602401602060405180830381865afa158015611369573d6000803e3d6000fd5b505050506040513d601f19601f8201168201806040525081019061138d9190612221565b6113aa57604051631aa1e81560e01b815260040160405180910390fd5b438211806113b9575080824014155b156113d75760405163be5a36cf60e01b815260040160405180910390fd5b60008481526006602052604090206113ef90846114b6565b156114185760405163b3e1875160e01b81526001600160a01b03841660048201526024016104ec565b600154604080516326c0f5d160e21b815290516000926001600160a01b031691639b03d7449160048083019260209291908290030181865afa158015611462573d6000803e3d6000fd5b505050506040513d601f19601f820116820180604052508101906114869190612193565b90506003548161149691906121d9565b4210156104f5576040516341c86e2f60e01b815260040160405180910390fd5b6001600160a01b038116600090815260018301602052604081205415156105c3565b3361150a7f9016d09d72d40fdae2fd8ceac6b6234c7706214fd39c1cd1e609a0528c199300546001600160a01b031690565b6001600160a01b03161461083b5760405163118cdaa760e01b81523360048201526024016104ec565b60008061153f836112b0565b60008054906101000a90046001600160a01b03166001600160a01b0316635d5fcbce6040518163ffffffff1660e01b8152600401602060405180830381865afa158015611590573d6000803e3d6000fd5b505050506040513d601f19601f820116820180604052508101906115b49190612193565b6115be919061220e565b905060036115cd8260026121c2565b6115d791906121ec565b6105c39060016121d9565b6000610592825490565b60008060ff1961161d60017fdace3fd3d1fbdfd33853f19ba191d28c617e373ec58fc73cf7b58db5aff2c2ab61220e565b60405160200161162f91815260200190565b60408051601f1981840301815291905280516020909101201692915050565b7f9016d09d72d40fdae2fd8ceac6b6234c7706214fd39c1cd1e609a0528c199300805473ffffffffffffffffffffffffffffffffffffffff1981166001600160a01b03848116918217845560405192169182907f8be0079c531659141344cd1fd0a4f28419497f9722a3daafe3b4186f6b6457e090600090a3505050565b60006105c3836001600160a01b038416611aa4565b6000828152600a602090815260408083206001600160a01b03851684529091529020541561170d575050565b6000828152600a602090815260408083206001600160a01b0385811680865291909352818420429055925490516338bb317760e11b81526004810193909352169063717662ee90602401600060405180830381600087803b15801561177157600080fd5b505af1158015611785573d6000803e3d6000fd5b505050505050565b60008181526005602052604090205460ff16156117a75750565b60006117b1610c88565b905060006117be83611936565b9050818110156117cd57505050565b600083815260056020526040808220805460ff191660011790556002548151632cb1043960e11b815291516001600160a01b03909116926359620872926004808201939182900301818387803b15801561182657600080fd5b505af115801561183a573d6000803e3d6000fd5b50506040514392508591507f56d37189df10957afc08d69b74c305bd8e82d9f3a6af80cc3a989a5c082b31ea90600090a3505050565b611878611af3565b61130281611b41565b611889611af3565b60006118936115ec565b6040805180820182526001600160e01b0319868116825260208083018781529189166000908152858252939093208251815463ffffffff191660e09190911c17815590518051949550919390926118f1926001850192910190611c98565b509050507f3665bf9cd0ba4ddceeec259e21dcf8a4510f3b1130bd42e950828e69d85408ba84848460405161192893929190612243565b60405180910390a150505050565b60008061194283611533565b905060008061195085611305565b905060005b81518110156119a15760008282815181106119725761197261217d565b60200260200101519050846119878883610598565b1061199857611995846122a6565b93505b50600101611955565b5090949350505050565b60006105c3836001600160a01b038416611b49565b60408051600481526024810182526020810180517bffffffffffffffffffffffffffffffffffffffffffffffffffffffff166001600160e01b03198516179052905160009190829081903090611a179085906122bf565b600060405180830381855afa9150503d8060008114611a52576040519150601f19603f3d011682016040523d82523d6000602084013e611a57565b606091505b509150915081611a7a57604051635fbab09b60e11b815260040160405180910390fd5b80806020019051810190611a8e9190612193565b95945050505050565b606060006105c383611c3c565b6000818152600183016020526040812054611aeb57508154600181810184556000848152602080822090930184905584548482528286019093526040902091909155610592565b506000610592565b7ff0c57e16840df040f15088dc2f81fe391c3923bec73e23a9662efc9c229c6a005468010000000000000000900460ff1661083b57604051631afcd79f60e31b815260040160405180910390fd5b6112cf611af3565b60008181526001830160205260408120548015611c32576000611b6d60018361220e565b8554909150600090611b819060019061220e565b9050808214611be6576000866000018281548110611ba157611ba161217d565b9060005260206000200154905080876000018481548110611bc457611bc461217d565b6000918252602080832090910192909255918252600188019052604090208390555b8554869080611bf757611bf76122ee565b600190038181906000526020600020016000905590558560010160008681526020019081526020016000206000905560019350505050610592565b6000915050610592565b606081600001805480602002602001604051908101604052809291908181526020018280548015611c8c57602002820191906000526020600020905b815481526020019060010190808311611c78575b50505050509050919050565b828054828255906000526020600020908101928215611cd3579160200282015b82811115611cd3578251825591602001919060010190611cb8565b50611cdf929150611cfd565b5090565b508054600082559060005260206000209081019061130291905b5b80821115611cdf5760008155600101611cfe565b80356001600160a01b0381168114611d2957600080fd5b919050565b60008060008060808587031215611d4457600080fd5b611d4d85611d12565b9350611d5b60208601611d12565b93969395505050506040820135916060013590565b600060208284031215611d8257600080fd5b5035919050565b60008060408385031215611d9c57600080fd5b82359150611dac60208401611d12565b90509250929050565b80356001600160e01b031981168114611d2957600080fd5b60008060008060608587031215611de357600080fd5b611dec85611db5565b9350611dfa60208601611db5565b9250604085013567ffffffffffffffff80821115611e1757600080fd5b818701915087601f830112611e2b57600080fd5b813581811115611e3a57600080fd5b8860208260051b8501011115611e4f57600080fd5b95989497505060200194505050565b600060208284031215611e7057600080fd5b6105c382611db5565b600080600060608486031215611e8e57600080fd5b611e9784611d12565b95602085013595506040909401359392505050565b60008060008060008060c08789031215611ec557600080fd5b611ece87611d12565b9550611edc60208801611d12565b9450611eea60408801611d12565b9350611ef860608801611d12565b9250611f0660808801611d12565b915060a087013590509295509295509295565b634e487b7160e01b600052604160045260246000fd5b600060208284031215611f4157600080fd5b813567ffffffffffffffff80821115611f5957600080fd5b818401915084601f830112611f6d57600080fd5b813581811115611f7f57611f7f611f19565b604051601f8201601f19908116603f01168101908382118183101715611fa757611fa7611f19565b81604052828152876020848701011115611fc057600080fd5b826020860160208301376000928101602001929092525095945050505050565b602080825282516001600160e01b031916828201528281015160408084015280516060840181905260009291820190839060808601905b808310156120375783518252928401926001929092019190840190612017565b509695505050505050565b6000806040838503121561205557600080fd5b61205e83611db5565b946020939093013593505050565b60008060006060848603121561208157600080fd5b8335925061209160208501611d12565b915061209f60408501611d12565b90509250925092565b6020808252825182820181905260009190848201906040850190845b818110156120e95783516001600160a01b0316835292840192918401916001016120c4565b50909695505050505050565b60006020828403121561210757600080fd5b6105c382611d12565b6001600160e01b0319858116825284166020820152606060408201819052810182905260007f07ffffffffffffffffffffffffffffffffffffffffffffffffffffffffffffff83111561216257600080fd5b8260051b808560808501379190910160800195945050505050565b634e487b7160e01b600052603260045260246000fd5b6000602082840312156121a557600080fd5b5051919050565b634e487b7160e01b600052601160045260246000fd5b8082028115828204841417610592576105926121ac565b80820180821115610592576105926121ac565b60008261220957634e487b7160e01b600052601260045260246000fd5b500490565b81810381811115610592576105926121ac565b60006020828403121561223357600080fd5b815180151581146105c357600080fd5b6001600160e01b031984811682528316602080830191909152606060408301819052835190830181905260009184810191608085019190845b818110156122985784518452938201939282019260010161227c565b509198975050505050505050565b6000600182016122b8576122b86121ac565b5060010190565b6000825160005b818110156122e057602081860181015185830152016122c6565b506000920191825250919050565b634e487b7160e01b600052603160045260246000fdfea26469706673582212203f1dc3b0e3b58a32f5265823d533966149dc9d71ce2e0f33df8abf1bf162e72c64736f6c63430008190033",
  "linkReferences": {},
  "deployedLinkReferences": {}
}