{
  "_format": "hh-sol-artifact-1",
  "contractName": "ConnectivityTrackerHbbft",
  "sourceName": "contracts/ConnectivityTrackerHbbft.sol",
  "abi": [
    {
      "inputs": [],
      "stateMutability": "nonpayable",
      "type": "constructor"
    },
    {
      "inputs": [
        {
          "internalType": "address",
          "name": "reporter",
          "type": "address"
        },
        {
          "internalType": "address",
          "name": "validator",
          "type": "address"
        }
      ],
      "name": "AlreadyReported",
      "type": "error"
    },
    {
      "inputs": [
        {
          "internalType": "address",
          "name": "reporter",
          "type": "address"
        }
      ],
      "name": "CannotReportByFlaggedValidator",
      "type": "error"
    },
    {
      "inputs": [
        {
          "internalType": "uint256",
          "name": "epoch",
          "type": "uint256"
        }
      ],
      "name": "EpochPenaltiesAlreadySent",
      "type": "error"
    },
    {
      "inputs": [],
      "name": "GetterCallFailed",
      "type": "error"
    },
    {
      "inputs": [],
      "name": "InvalidBlock",
      "type": "error"
    },
    {
      "inputs": [],
      "name": "InvalidInitialization",
      "type": "error"
    },
    {
      "inputs": [
        {
          "internalType": "uint256",
          "name": "_newVal",
          "type": "uint256"
        }
      ],
      "name": "NewValueOutOfRange",
      "type": "error"
    },
    {
      "inputs": [],
      "name": "NotInitializing",
      "type": "error"
    },
    {
      "inputs": [],
      "name": "OnlyValidator",
      "type": "error"
    },
    {
      "inputs": [
        {
          "internalType": "address",
          "name": "owner",
          "type": "address"
        }
      ],
      "name": "OwnableInvalidOwner",
      "type": "error"
    },
    {
      "inputs": [
        {
          "internalType": "address",
          "name": "account",
          "type": "address"
        }
      ],
      "name": "OwnableUnauthorizedAccount",
      "type": "error"
    },
    {
      "inputs": [],
      "name": "ReportTooEarly",
      "type": "error"
    },
    {
      "inputs": [],
      "name": "Unauthorized",
      "type": "error"
    },
    {
      "inputs": [
        {
          "internalType": "address",
          "name": "reporter",
          "type": "address"
        },
        {
          "internalType": "address",
          "name": "validator",
          "type": "address"
        }
      ],
      "name": "UnknownReconnectReporter",
      "type": "error"
    },
    {
      "inputs": [],
      "name": "ZeroAddress",
      "type": "error"
    },
    {
      "anonymous": false,
      "inputs": [
        {
          "indexed": false,
          "internalType": "uint64",
          "name": "version",
          "type": "uint64"
        }
      ],
      "name": "Initialized",
      "type": "event"
    },
    {
      "anonymous": false,
      "inputs": [
        {
          "indexed": true,
          "internalType": "uint256",
          "name": "epoch",
          "type": "uint256"
        },
        {
          "indexed": true,
          "internalType": "uint256",
          "name": "blockNumber",
          "type": "uint256"
        }
      ],
      "name": "NotifyEarlyEpochEnd",
      "type": "event"
    },
    {
      "anonymous": false,
      "inputs": [
        {
          "indexed": true,
          "internalType": "address",
          "name": "previousOwner",
          "type": "address"
        },
        {
          "indexed": true,
          "internalType": "address",
          "name": "newOwner",
          "type": "address"
        }
      ],
      "name": "OwnershipTransferred",
      "type": "event"
    },
    {
      "anonymous": false,
      "inputs": [
        {
          "indexed": false,
          "internalType": "bytes4",
          "name": "funcSelector",
          "type": "bytes4"
        }
      ],
      "name": "RemoveChangeableParameter",
      "type": "event"
    },
    {
      "anonymous": false,
      "inputs": [
        {
          "indexed": true,
          "internalType": "address",
          "name": "reporter",
          "type": "address"
        },
        {
          "indexed": true,
          "internalType": "address",
          "name": "validator",
          "type": "address"
        },
        {
          "indexed": true,
          "internalType": "uint256",
          "name": "blockNumber",
          "type": "uint256"
        }
      ],
      "name": "ReportMissingConnectivity",
      "type": "event"
    },
    {
      "anonymous": false,
      "inputs": [
        {
          "indexed": true,
          "internalType": "address",
          "name": "reporter",
          "type": "address"
        },
        {
          "indexed": true,
          "internalType": "address",
          "name": "validator",
          "type": "address"
        },
        {
          "indexed": true,
          "internalType": "uint256",
          "name": "blockNumber",
          "type": "uint256"
        }
      ],
      "name": "ReportReconnect",
      "type": "event"
    },
    {
      "anonymous": false,
      "inputs": [
        {
          "indexed": false,
          "internalType": "bytes4",
          "name": "setter",
          "type": "bytes4"
        },
        {
          "indexed": false,
          "internalType": "bytes4",
          "name": "getter",
          "type": "bytes4"
        },
        {
          "indexed": false,
          "internalType": "uint256[]",
          "name": "params",
          "type": "uint256[]"
        }
      ],
      "name": "SetChangeableParameter",
      "type": "event"
    },
    {
      "anonymous": false,
      "inputs": [
        {
          "indexed": false,
          "internalType": "uint256",
          "name": "_level",
          "type": "uint256"
        }
      ],
      "name": "SetEarlyEpochEndToleranceLevel",
      "type": "event"
    },
    {
      "anonymous": false,
      "inputs": [
        {
          "indexed": false,
          "internalType": "uint256",
          "name": "_reportDisallowPeriodSeconds",
          "type": "uint256"
        }
      ],
      "name": "SetReportDisallowPeriod",
      "type": "event"
    },
    {
      "inputs": [],
      "name": "blockRewardContract",
      "outputs": [
        {
          "internalType": "contract IBlockRewardHbbft",
          "name": "",
          "type": "address"
        }
      ],
      "stateMutability": "view",
      "type": "function"
    },
    {
      "inputs": [],
      "name": "bonusScoreContract",
      "outputs": [
        {
          "internalType": "contract IBonusScoreSystem",
          "name": "",
          "type": "address"
        }
      ],
      "stateMutability": "view",
      "type": "function"
    },
    {
      "inputs": [
        {
          "internalType": "address",
          "name": "caller",
          "type": "address"
        },
        {
          "internalType": "address",
          "name": "validator",
          "type": "address"
        },
        {
          "internalType": "uint256",
          "name": "blockNumber",
          "type": "uint256"
        },
        {
          "internalType": "bytes32",
          "name": "blockHash",
          "type": "bytes32"
        }
      ],
      "name": "checkReportMissingConnectivityCallable",
      "outputs": [],
      "stateMutability": "view",
      "type": "function"
    },
    {
      "inputs": [
        {
          "internalType": "address",
          "name": "caller",
          "type": "address"
        },
        {
          "internalType": "address",
          "name": "validator",
          "type": "address"
        },
        {
          "internalType": "uint256",
          "name": "blockNumber",
          "type": "uint256"
        },
        {
          "internalType": "bytes32",
          "name": "blockHash",
          "type": "bytes32"
        }
      ],
      "name": "checkReportReconnectCallable",
      "outputs": [],
      "stateMutability": "view",
      "type": "function"
    },
    {
      "inputs": [
        {
          "internalType": "uint256",
          "name": "epoch",
          "type": "uint256"
        }
      ],
      "name": "countFaultyValidators",
      "outputs": [
        {
          "internalType": "uint256",
          "name": "",
          "type": "uint256"
        }
      ],
      "stateMutability": "view",
      "type": "function"
    },
    {
      "inputs": [],
      "name": "currentEpoch",
      "outputs": [
        {
          "internalType": "uint256",
          "name": "",
          "type": "uint256"
        }
      ],
      "stateMutability": "view",
      "type": "function"
    },
    {
      "inputs": [],
      "name": "earlyEpochEndThreshold",
      "outputs": [
        {
          "internalType": "uint256",
          "name": "",
          "type": "uint256"
        }
      ],
      "stateMutability": "view",
      "type": "function"
    },
    {
      "inputs": [],
      "name": "earlyEpochEndToleranceLevel",
      "outputs": [
        {
          "internalType": "uint256",
          "name": "",
          "type": "uint256"
        }
      ],
      "stateMutability": "view",
      "type": "function"
    },
    {
      "inputs": [
        {
          "internalType": "string",
          "name": "_selector",
          "type": "string"
        }
      ],
      "name": "getAllowedParamsRange",
      "outputs": [
        {
          "components": [
            {
              "internalType": "bytes4",
              "name": "getter",
              "type": "bytes4"
            },
            {
              "internalType": "uint256[]",
              "name": "range",
              "type": "uint256[]"
            }
          ],
          "internalType": "struct ValueGuards.ParameterRange",
          "name": "",
          "type": "tuple"
        }
      ],
      "stateMutability": "view",
      "type": "function"
    },
    {
      "inputs": [
        {
          "internalType": "bytes4",
          "name": "_selector",
          "type": "bytes4"
        }
      ],
      "name": "getAllowedParamsRangeWithSelector",
      "outputs": [
        {
          "components": [
            {
              "internalType": "bytes4",
              "name": "getter",
              "type": "bytes4"
            },
            {
              "internalType": "uint256[]",
              "name": "range",
              "type": "uint256[]"
            }
          ],
          "internalType": "struct ValueGuards.ParameterRange",
          "name": "",
          "type": "tuple"
        }
      ],
      "stateMutability": "view",
      "type": "function"
    },
    {
      "inputs": [],
      "name": "getFlaggedValidators",
      "outputs": [
        {
          "internalType": "address[]",
          "name": "",
          "type": "address[]"
        }
      ],
      "stateMutability": "view",
      "type": "function"
    },
    {
      "inputs": [
        {
          "internalType": "uint256",
          "name": "epoch",
          "type": "uint256"
        }
      ],
      "name": "getFlaggedValidatorsByEpoch",
      "outputs": [
        {
          "internalType": "address[]",
          "name": "",
          "type": "address[]"
        }
      ],
      "stateMutability": "view",
      "type": "function"
    },
    {
      "inputs": [
        {
          "internalType": "uint256",
          "name": "epoch",
          "type": "uint256"
        }
      ],
      "name": "getFlaggedValidatorsCount",
      "outputs": [
        {
          "internalType": "uint256",
          "name": "",
          "type": "uint256"
        }
      ],
      "stateMutability": "view",
      "type": "function"
    },
    {
      "inputs": [
        {
          "internalType": "uint256",
          "name": "epoch",
          "type": "uint256"
        },
        {
          "internalType": "address",
          "name": "validator",
          "type": "address"
        }
      ],
      "name": "getValidatorConnectivityScore",
      "outputs": [
        {
          "internalType": "uint256",
          "name": "",
          "type": "uint256"
        }
      ],
      "stateMutability": "view",
      "type": "function"
    },
    {
      "inputs": [
        {
          "internalType": "address",
          "name": "_contractOwner",
          "type": "address"
        },
        {
          "internalType": "address",
          "name": "_validatorSetContract",
          "type": "address"
        },
        {
          "internalType": "address",
          "name": "_stakingContract",
          "type": "address"
        },
        {
          "internalType": "address",
          "name": "_blockRewardContract",
          "type": "address"
        },
        {
          "internalType": "address",
          "name": "_bonusScoreContract",
          "type": "address"
        },
        {
          "internalType": "uint256",
          "name": "_reportDisallowPeriodSeconds",
          "type": "uint256"
        }
      ],
      "name": "initialize",
      "outputs": [],
      "stateMutability": "nonpayable",
      "type": "function"
    },
    {
      "inputs": [
        {
          "internalType": "uint256",
          "name": "",
          "type": "uint256"
        }
      ],
      "name": "isEarlyEpochEnd",
      "outputs": [
        {
          "internalType": "bool",
          "name": "",
          "type": "bool"
        }
      ],
      "stateMutability": "view",
      "type": "function"
    },
    {
      "inputs": [
        {
          "internalType": "uint256",
          "name": "epoch",
          "type": "uint256"
        },
        {
          "internalType": "address",
          "name": "validator",
          "type": "address"
        }
      ],
      "name": "isFaultyValidator",
      "outputs": [
        {
          "internalType": "bool",
          "name": "",
          "type": "bool"
        }
      ],
      "stateMutability": "view",
      "type": "function"
    },
    {
      "inputs": [
        {
          "internalType": "uint256",
          "name": "",
          "type": "uint256"
        },
        {
          "internalType": "address",
          "name": "validator",
          "type": "address"
        },
        {
          "internalType": "address",
          "name": "reporter",
          "type": "address"
        }
      ],
      "name": "isReported",
      "outputs": [
        {
          "internalType": "bool",
          "name": "",
          "type": "bool"
        }
      ],
      "stateMutability": "view",
      "type": "function"
    },
    {
      "inputs": [
        {
          "internalType": "bytes4",
          "name": "funcSelector",
          "type": "bytes4"
        },
        {
          "internalType": "uint256",
          "name": "newVal",
          "type": "uint256"
        }
      ],
      "name": "isWithinAllowedRange",
      "outputs": [
        {
          "internalType": "bool",
          "name": "",
          "type": "bool"
        }
      ],
      "stateMutability": "view",
      "type": "function"
    },
    {
      "inputs": [],
      "name": "owner",
      "outputs": [
        {
          "internalType": "address",
          "name": "",
          "type": "address"
        }
      ],
      "stateMutability": "view",
      "type": "function"
    },
    {
      "inputs": [
        {
          "internalType": "uint256",
          "name": "epoch",
          "type": "uint256"
        }
      ],
      "name": "penaliseFaultyValidators",
      "outputs": [],
      "stateMutability": "nonpayable",
      "type": "function"
    },
    {
      "inputs": [
        {
          "internalType": "bytes4",
          "name": "funcSelector",
          "type": "bytes4"
        }
      ],
      "name": "removeAllowedChangeableParameter",
      "outputs": [],
      "stateMutability": "nonpayable",
      "type": "function"
    },
    {
      "inputs": [],
      "name": "renounceOwnership",
      "outputs": [],
      "stateMutability": "nonpayable",
      "type": "function"
    },
    {
      "inputs": [],
      "name": "reportDisallowPeriod",
      "outputs": [
        {
          "internalType": "uint256",
          "name": "",
          "type": "uint256"
        }
      ],
      "stateMutability": "view",
      "type": "function"
    },
    {
      "inputs": [
        {
          "internalType": "address",
          "name": "validator",
          "type": "address"
        },
        {
          "internalType": "uint256",
          "name": "blockNumber",
          "type": "uint256"
        },
        {
          "internalType": "bytes32",
          "name": "blockHash",
          "type": "bytes32"
        }
      ],
      "name": "reportMissingConnectivity",
      "outputs": [],
      "stateMutability": "nonpayable",
      "type": "function"
    },
    {
      "inputs": [
        {
          "internalType": "address",
          "name": "validator",
          "type": "address"
        },
        {
          "internalType": "uint256",
          "name": "blockNumber",
          "type": "uint256"
        },
        {
          "internalType": "bytes32",
          "name": "blockHash",
          "type": "bytes32"
        }
      ],
      "name": "reportReconnect",
      "outputs": [],
      "stateMutability": "nonpayable",
      "type": "function"
    },
    {
      "inputs": [
        {
          "internalType": "bytes4",
          "name": "setter",
          "type": "bytes4"
        },
        {
          "internalType": "bytes4",
          "name": "getter",
          "type": "bytes4"
        },
        {
          "internalType": "uint256[]",
          "name": "params",
          "type": "uint256[]"
        }
      ],
      "name": "setAllowedChangeableParameter",
      "outputs": [],
      "stateMutability": "nonpayable",
      "type": "function"
    },
    {
      "inputs": [
        {
          "internalType": "uint256",
          "name": "_level",
          "type": "uint256"
        }
      ],
      "name": "setEarlyEpochEndToleranceLevel",
      "outputs": [],
      "stateMutability": "nonpayable",
      "type": "function"
    },
    {
      "inputs": [
        {
          "internalType": "uint256",
          "name": "_reportDisallowPeriodSeconds",
          "type": "uint256"
        }
      ],
      "name": "setReportDisallowPeriod",
      "outputs": [],
      "stateMutability": "nonpayable",
      "type": "function"
    },
    {
      "inputs": [],
      "name": "stakingContract",
      "outputs": [
        {
          "internalType": "contract IStakingHbbft",
          "name": "",
          "type": "address"
        }
      ],
      "stateMutability": "view",
      "type": "function"
    },
    {
      "inputs": [
        {
          "internalType": "address",
          "name": "newOwner",
          "type": "address"
        }
      ],
      "name": "transferOwnership",
      "outputs": [],
      "stateMutability": "nonpayable",
      "type": "function"
    },
    {
      "inputs": [],
      "name": "validatorSetContract",
      "outputs": [
        {
          "internalType": "contract IValidatorSetHbbft",
          "name": "",
          "type": "address"
        }
      ],
      "stateMutability": "view",
      "type": "function"
    }
  ],
  "bytecode": "0x6080604052348015600f57600080fd5b506016601a565b60ca565b7ff0c57e16840df040f15088dc2f81fe391c3923bec73e23a9662efc9c229c6a00805468010000000000000000900460ff161560695760405163f92ee8a960e01b815260040160405180910390fd5b80546001600160401b039081161460c75780546001600160401b0319166001600160401b0390811782556040519081527fc7f505b2f371ae2175ee4913f4499e1f2633a7b5936321eed1cdaeb6115181d29060200160405180910390a15b50565b6123ab806100d96000396000f3fe608060405234801561001057600080fd5b50600436106101f05760003560e01c806395b6ef0c1161010f578063c2428693116100a2578063ee99205c11610071578063ee99205c14610457578063f2fde38b1461046a578063f4064e171461047d578063fb58b40e1461049057600080fd5b8063c242869314610409578063dfc8bf4e1461041c578063e2ed03301461042f578063e6de3f031461044457600080fd5b8063b710c15d116100de578063b710c15d146103b0578063ba08d237146103d0578063bed8968c146103e3578063bf348f86146103f657600080fd5b806395b6ef0c1461036f578063a57c615314610382578063b280c0941461038a578063b2a684211461039d57600080fd5b80634346845f11610187578063766718081161015657806376671808146103115780637d8149db146103195780638da5cb5b1461032c578063911cee741461035c57600080fd5b80634346845f146102d057806348bf1aa6146102e357806356b54bae146102f6578063715018a61461030957600080fd5b8063116f1149116101c3578063116f114914610284578063161b07b214610297578063241f3913146102aa57806329cf8564146102bd57600080fd5b8063060b2849146101f55780630b770cdf1461020a5780630be021091461023a5780631041215e1461026d575b600080fd5b610208610203366004611d9f565b610499565b005b60095461021d906001600160a01b031681565b6040516001600160a01b0390911681526020015b60405180910390f35b61025d610248366004611de1565b60056020526000908152604090205460ff1681565b6040519015158152602001610231565b61027660045481565b604051908152602001610231565b610208610292366004611de1565b61051a565b61025d6102a5366004611dfa565b610596565b6102086102b8366004611de1565b6105b6565b6102766102cb366004611dfa565b610609565b6102086102de366004611e3e565b61063b565b6102086102f1366004611de1565b610741565b60025461021d906001600160a01b031681565b61020861089a565b6102766108ae565b610208610327366004611ecf565b610921565b7f9016d09d72d40fdae2fd8ceac6b6234c7706214fd39c1cd1e609a0528c199300546001600160a01b031661021d565b61020861036a366004611eea565b6109a3565b61020861037d366004611f1d565b610a79565b610276610cf9565b610276610398366004611de1565b610d9e565b6102086103ab366004611eea565b610da9565b6103c36103be366004611fa0565b610f2a565b6040516102319190612051565b61025d6103de3660046120b3565b610fda565b6102086103f1366004611d9f565b6111b5565b6103c3610404366004611ecf565b611229565b61025d6104173660046120dd565b6112ce565b60005461021d906001600160a01b031681565b610437611314565b6040516102319190612119565b610276610452366004611de1565b611321565b60015461021d906001600160a01b031681565b610208610478366004612166565b611338565b61043761048b366004611de1565b611376565b61027660035481565b60006104a36108ae565b90506104b181868585611390565b60008181526007602090815260408083206001600160a01b038816845290915290206104dd9086611527565b1561051357604051632c91ad2b60e11b81526001600160a01b038087166004830152851660248201526044015b60405180910390fd5b5050505050565b610522611549565b806105396000356001600160e01b03191682610fda565b610559576040516373330d9b60e01b81526004810182905260240161050a565b60038290556040518281527ff0ae05d1ef296238e04486dbfa703343cb8a565a7926535e21eebd26211d5154906020015b60405180910390a15050565b60006105a1836115a4565b6105ab8484610609565b101590505b92915050565b6105be611549565b60048190556105d36105ce6108ae565b611653565b6040518181527fac3628398dbf48961399872c95a3a6cad2988babf49dcfd40dab6fbef84b49709060200160405180910390a150565b60008281526007602090815260408083206001600160a01b0385168452909152812061063490611736565b9392505050565b610643611549565b600061064d611740565b90506040518060400160405280857bffffffffffffffffffffffffffffffffffffffffffffffffffffffff1916815260200184848080602002602001604051908101604052809392919081815260200183836020028082843760009201829052509390945250506001600160e01b031988168152602084815260409091208351815463ffffffff191660e09190911c1781558382015180519193506106f9926001850192910190611d09565b509050507f3665bf9cd0ba4ddceeec259e21dcf8a4510f3b1130bd42e950828e69d85408ba858585856040516107329493929190612181565b60405180910390a15050505050565b6002546001600160a01b0316331461076b576040516282b42960e81b815260040160405180910390fd5b60008181526008602052604090205460ff161561079e5760405163e711188160e01b81526004810182905260240161050a565b6000818152600860205260408120805460ff191660011790556107c082611376565b905060005b8151811015610895576107f1838383815181106107e4576107e46121ee565b6020026020010151610596565b1561088d5760095482516001600160a01b0390911690633dc12d239084908490811061081f5761081f6121ee565b602002602001015160006040518363ffffffff1660e01b815260040161085a9291906001600160a01b03929092168252602082015260400190565b600060405180830381600087803b15801561087457600080fd5b505af1158015610888573d6000803e3d6000fd5b505050505b6001016107c5565b505050565b6108a2611549565b6108ac60006117a2565b565b60015460408051630f29818d60e31b815290516000926001600160a01b03169163794c0c689160048083019260209291908290030181865afa1580156108f8573d6000803e3d6000fd5b505050506040513d601f19601f8201168201806040525081019061091c9190612204565b905090565b610929611549565b6000610933611740565b6001600160e01b031983166000908152602082905260408120805463ffffffff191681559192506109676001830182611d54565b50506040516001600160e01b0319831681527fed27cb02231782dadf13473a7828cb980c4d685791b7a3136dde00f8c3594cb69060200161058a565b6109af33848484610499565b60006109b96108ae565b905060006109c78286610609565b9050806000036109eb5760008281526006602052604090206109e99086611820565b505b60008281526007602090815260408083206001600160a01b03891684529091529020610a179033611820565b50610a228286610596565b15610a3157610a318286611835565b610a3a82611653565b60405184906001600160a01b0387169033907fe84fbfa7fbefb93358b3d7d314bc48b17f721c435443246047f93bbc7b8d0eef90600090a45050505050565b7ff0c57e16840df040f15088dc2f81fe391c3923bec73e23a9662efc9c229c6a00805468010000000000000000810460ff16159067ffffffffffffffff16600081158015610ac45750825b905060008267ffffffffffffffff166001148015610ae15750303b155b905081158015610aef575080155b15610b0d5760405163f92ee8a960e01b815260040160405180910390fd5b845467ffffffffffffffff191660011785558315610b4157845468ff00000000000000001916680100000000000000001785555b6001600160a01b038b161580610b5e57506001600160a01b038a16155b80610b7057506001600160a01b038916155b80610b8257506001600160a01b038816155b80610b9457506001600160a01b038716155b15610bb25760405163d92e233d60e01b815260040160405180910390fd5b610bbb8b6118e1565b600080546001600160a01b038c811673ffffffffffffffffffffffffffffffffffffffff19928316178355600180548d8316908416179055600280548c831690841617815560098054928c169290931691909117909155600388905560045560408051600a808252610160820190925260b49291602082016101408036833701905050905060005b600a811015610c8557610c568382612233565b610c60908461224a565b828281518110610c7257610c726121ee565b6020908102919091010152600101610c43565b50610c9f63116f114960e01b637dac5a0760e11b836118f2565b50508315610cec57845468ff000000000000000019168555604051600181527fc7f505b2f371ae2175ee4913f4499e1f2633a7b5936321eed1cdaeb6115181d29060200160405180910390a15b5050505050505050505050565b6000805460408051632eafe5e760e11b8152905183926001600160a01b031691635d5fcbce9160048083019260209291908290030181865afa158015610d43573d6000803e3d6000fd5b505050506040513d601f19601f82011682018060405250810190610d679190612204565b90506000610d7660038361225d565b90506004548111610d8a5760009250505090565b600454610d97908261227f565b9250505090565b60006105b0826119a7565b610db5338484846111b5565b6000610dbf6108ae565b90506000610dcd8286610609565b60008381526007602090815260408083206001600160a01b038a1684529091529020909150610dfc9033611a1c565b5080600103610ee2576000828152600660205260409020610e1d9086611a1c565b506000828152600a602090815260408083206001600160a01b03891684529091529020548015610ee0576000610e53824261227f565b600954604051633dc12d2360e01b81526001600160a01b038a8116600483015260248201849052929350911690633dc12d2390604401600060405180830381600087803b158015610ea357600080fd5b505af1158015610eb7573d6000803e3d6000fd5b5050506000858152600a602090815260408083206001600160a01b038c16845290915281205550505b505b610eeb82611653565b60405184906001600160a01b0387169033907f392643b1c214ef857ada7fce1cd87c13940ad6883df76dba4808672b7d69c81590600090a45050505050565b604080518082019091526000815260606020820152610f47611740565b82516020808501919091206001600160e01b0319908116600090815292825260409283902083518085018552815460e01b9092168252600181018054855181860281018601909652808652929491938581019390830182828015610fca57602002820191906000526020600020905b815481526020019060010190808311610fb6575b5050505050815250509050919050565b600080610fe5611740565b6001600160e01b031980861660009081526020838152604080832081518083018352815460e01b9095168552600181018054835181860281018601909452808452969750939590938584019390919083018282801561106357602002820191906000526020600020905b81548152602001906001019080831161104f575b5050505050815250509050806020015151600003611086576000925050506105b0565b6020810151815160009061109990611a31565b905060005b82518110156111a757818382815181106110ba576110ba6121ee565b60200260200101510361119f5760008082116110f057836000815181106110e3576110e36121ee565b6020026020010151611115565b836110fc60018461227f565b8151811061110c5761110c6121ee565b60200260200101515b9050600060018551611127919061227f565b831061115957846001865161113c919061227f565b8151811061114c5761114c6121ee565b602002602001015161117e565b8461116584600161224a565b81518110611175576111756121ee565b60200260200101515b90508189141580156111905750808914155b159750505050505050506105b0565b60010161109e565b506000979650505050505050565b60006111bf6108ae565b90506111cd81868585611390565b60008181526007602090815260408083206001600160a01b038816845290915290206111f99086611527565b610513576040516315af88af60e31b81526001600160a01b0380871660048301528516602482015260440161050a565b604080518082019091526000815260606020820152611246611740565b6001600160e01b03198084166000908152602092835260409081902081518083018352815460e01b9093168352600181018054835181870281018701909452808452939491938583019392830182828015610fca5760200282019190600052602060002090815481526020019060010190808311610fb6575050505050815250509050919050565b600061130c82600760006112e06108ae565b8152602080820192909252604090810160009081206001600160a01b0389168252909252902090611527565b949350505050565b606061091c61048b6108ae565b60008181526006602052604081206105b090611736565b611340611549565b6001600160a01b03811661136a57604051631e4fbdf760e01b81526000600482015260240161050a565b611373816117a2565b50565b60008181526006602052604090206060906105b090611b08565b60005460405163facd743b60e01b81526001600160a01b0385811660048301529091169063facd743b90602401602060405180830381865afa1580156113da573d6000803e3d6000fd5b505050506040513d601f19601f820116820180604052508101906113fe9190612292565b61141b57604051631aa1e81560e01b815260040160405180910390fd5b4382118061142a575080824014155b156114485760405163be5a36cf60e01b815260040160405180910390fd5b60008481526006602052604090206114609084611527565b156114895760405163b3e1875160e01b81526001600160a01b038416600482015260240161050a565b600154604080516326c0f5d160e21b815290516000926001600160a01b031691639b03d7449160048083019260209291908290030181865afa1580156114d3573d6000803e3d6000fd5b505050506040513d601f19601f820116820180604052508101906114f79190612204565b905060035481611507919061224a565b421015610513576040516341c86e2f60e01b815260040160405180910390fd5b6001600160a01b03811660009081526001830160205260408120541515610634565b3361157b7f9016d09d72d40fdae2fd8ceac6b6234c7706214fd39c1cd1e609a0528c199300546001600160a01b031690565b6001600160a01b0316146108ac5760405163118cdaa760e01b815233600482015260240161050a565b6000806115b083611321565b60008054906101000a90046001600160a01b03166001600160a01b0316635d5fcbce6040518163ffffffff1660e01b8152600401602060405180830381865afa158015611601573d6000803e3d6000fd5b505050506040513d601f19601f820116820180604052508101906116259190612204565b61162f919061227f565b9050600361163e826002612233565b611648919061225d565b61063490600161224a565b60008181526005602052604090205460ff161561166d5750565b6000611677610cf9565b90506000611684836119a7565b90508181101561169357505050565b600083815260056020526040808220805460ff191660011790556002548151632cb1043960e11b815291516001600160a01b03909116926359620872926004808201939182900301818387803b1580156116ec57600080fd5b505af1158015611700573d6000803e3d6000fd5b50506040514392508591507f56d37189df10957afc08d69b74c305bd8e82d9f3a6af80cc3a989a5c082b31ea90600090a3505050565b60006105b0825490565b60008060ff1961177160017fdace3fd3d1fbdfd33853f19ba191d28c617e373ec58fc73cf7b58db5aff2c2ab61227f565b60405160200161178391815260200190565b60408051601f1981840301815291905280516020909101201692915050565b7f9016d09d72d40fdae2fd8ceac6b6234c7706214fd39c1cd1e609a0528c199300805473ffffffffffffffffffffffffffffffffffffffff1981166001600160a01b03848116918217845560405192169182907f8be0079c531659141344cd1fd0a4f28419497f9722a3daafe3b4186f6b6457e090600090a3505050565b6000610634836001600160a01b038416611b15565b6000828152600a602090815260408083206001600160a01b038516845290915290205415611861575050565b6000828152600a602090815260408083206001600160a01b0385811680865291909352818420429055925490516338bb317760e11b81526004810193909352169063717662ee90602401600060405180830381600087803b1580156118c557600080fd5b505af11580156118d9573d6000803e3d6000fd5b505050505050565b6118e9611b64565b61137381611bb2565b6118fa611b64565b6000611904611740565b6040805180820182526001600160e01b0319868116825260208083018781529189166000908152858252939093208251815463ffffffff191660e09190911c1781559051805194955091939092611962926001850192910190611d09565b509050507f3665bf9cd0ba4ddceeec259e21dcf8a4510f3b1130bd42e950828e69d85408ba848484604051611999939291906122b4565b60405180910390a150505050565b6000806119b3836115a4565b90506000806119c185611376565b905060005b8151811015611a125760008282815181106119e3576119e36121ee565b60200260200101519050846119f88883610609565b10611a0957611a0684612317565b93505b506001016119c6565b5090949350505050565b6000610634836001600160a01b038416611bba565b60408051600481526024810182526020810180517bffffffffffffffffffffffffffffffffffffffffffffffffffffffff166001600160e01b03198516179052905160009190829081903090611a88908590612330565b600060405180830381855afa9150503d8060008114611ac3576040519150601f19603f3d011682016040523d82523d6000602084013e611ac8565b606091505b509150915081611aeb57604051635fbab09b60e11b815260040160405180910390fd5b80806020019051810190611aff9190612204565b95945050505050565b6060600061063483611cad565b6000818152600183016020526040812054611b5c575081546001818101845560008481526020808220909301849055845484825282860190935260409020919091556105b0565b5060006105b0565b7ff0c57e16840df040f15088dc2f81fe391c3923bec73e23a9662efc9c229c6a005468010000000000000000900460ff166108ac57604051631afcd79f60e31b815260040160405180910390fd5b611340611b64565b60008181526001830160205260408120548015611ca3576000611bde60018361227f565b8554909150600090611bf29060019061227f565b9050808214611c57576000866000018281548110611c1257611c126121ee565b9060005260206000200154905080876000018481548110611c3557611c356121ee565b6000918252602080832090910192909255918252600188019052604090208390555b8554869080611c6857611c6861235f565b6001900381819060005260206000200160009055905585600101600086815260200190815260200160002060009055600193505050506105b0565b60009150506105b0565b606081600001805480602002602001604051908101604052809291908181526020018280548015611cfd57602002820191906000526020600020905b815481526020019060010190808311611ce9575b50505050509050919050565b828054828255906000526020600020908101928215611d44579160200282015b82811115611d44578251825591602001919060010190611d29565b50611d50929150611d6e565b5090565b508054600082559060005260206000209081019061137391905b5b80821115611d505760008155600101611d6f565b80356001600160a01b0381168114611d9a57600080fd5b919050565b60008060008060808587031215611db557600080fd5b611dbe85611d83565b9350611dcc60208601611d83565b93969395505050506040820135916060013590565b600060208284031215611df357600080fd5b5035919050565b60008060408385031215611e0d57600080fd5b82359150611e1d60208401611d83565b90509250929050565b80356001600160e01b031981168114611d9a57600080fd5b60008060008060608587031215611e5457600080fd5b611e5d85611e26565b9350611e6b60208601611e26565b9250604085013567ffffffffffffffff80821115611e8857600080fd5b818701915087601f830112611e9c57600080fd5b813581811115611eab57600080fd5b8860208260051b8501011115611ec057600080fd5b95989497505060200194505050565b600060208284031215611ee157600080fd5b61063482611e26565b600080600060608486031215611eff57600080fd5b611f0884611d83565b95602085013595506040909401359392505050565b60008060008060008060c08789031215611f3657600080fd5b611f3f87611d83565b9550611f4d60208801611d83565b9450611f5b60408801611d83565b9350611f6960608801611d83565b9250611f7760808801611d83565b915060a087013590509295509295509295565b634e487b7160e01b600052604160045260246000fd5b600060208284031215611fb257600080fd5b813567ffffffffffffffff80821115611fca57600080fd5b818401915084601f830112611fde57600080fd5b813581811115611ff057611ff0611f8a565b604051601f8201601f19908116603f0116810190838211818310171561201857612018611f8a565b8160405282815287602084870101111561203157600080fd5b826020860160208301376000928101602001929092525095945050505050565b602080825282516001600160e01b031916828201528281015160408084015280516060840181905260009291820190839060808601905b808310156120a85783518252928401926001929092019190840190612088565b509695505050505050565b600080604083850312156120c657600080fd5b6120cf83611e26565b946020939093013593505050565b6000806000606084860312156120f257600080fd5b8335925061210260208501611d83565b915061211060408501611d83565b90509250925092565b6020808252825182820181905260009190848201906040850190845b8181101561215a5783516001600160a01b031683529284019291840191600101612135565b50909695505050505050565b60006020828403121561217857600080fd5b61063482611d83565b6001600160e01b0319858116825284166020820152606060408201819052810182905260007f07ffffffffffffffffffffffffffffffffffffffffffffffffffffffffffffff8311156121d357600080fd5b8260051b808560808501379190910160800195945050505050565b634e487b7160e01b600052603260045260246000fd5b60006020828403121561221657600080fd5b5051919050565b634e487b7160e01b600052601160045260246000fd5b80820281158282048414176105b0576105b061221d565b808201808211156105b0576105b061221d565b60008261227a57634e487b7160e01b600052601260045260246000fd5b500490565b818103818111156105b0576105b061221d565b6000602082840312156122a457600080fd5b8151801515811461063457600080fd5b6001600160e01b031984811682528316602080830191909152606060408301819052835190830181905260009184810191608085019190845b81811015612309578451845293820193928201926001016122ed565b509198975050505050505050565b6000600182016123295761232961221d565b5060010190565b6000825160005b818110156123515760208186018101518583015201612337565b506000920191825250919050565b634e487b7160e01b600052603160045260246000fdfea26469706673582212202c8ae80fb209706bab4b7b0e2b94041cb1e4d8d0c1ab53886b404a194fcbbe1464736f6c63430008190033",
  "linkReferences": {},
  "deployedLinkReferences": {}
}