{
  "_format": "hh-sol-artifact-1",
  "contractName": "ConnectivityTrackerHbbft",
  "sourceName": "contracts/ConnectivityTrackerHbbft.sol",
  "abi": [
    {
      "inputs": [],
      "stateMutability": "nonpayable",
      "type": "constructor"
    },
    {
      "inputs": [
        {
          "internalType": "address",
          "name": "reporter",
          "type": "address"
        },
        {
          "internalType": "address",
          "name": "validator",
          "type": "address"
        }
      ],
      "name": "AlreadyReported",
      "type": "error"
    },
    {
      "inputs": [
        {
          "internalType": "address",
          "name": "reporter",
          "type": "address"
        }
      ],
      "name": "CannotReportByFlaggedValidator",
      "type": "error"
    },
    {
      "inputs": [
        {
          "internalType": "uint256",
          "name": "epoch",
          "type": "uint256"
        }
      ],
      "name": "EpochPenaltiesAlreadySent",
      "type": "error"
    },
    {
      "inputs": [],
      "name": "GetterCallFailed",
      "type": "error"
    },
    {
      "inputs": [],
      "name": "InvalidBlock",
      "type": "error"
    },
    {
      "inputs": [],
      "name": "InvalidInitialization",
      "type": "error"
    },
    {
      "inputs": [
        {
          "internalType": "uint256",
          "name": "_newVal",
          "type": "uint256"
        }
      ],
      "name": "NewValueOutOfRange",
      "type": "error"
    },
    {
      "inputs": [],
      "name": "NotInitializing",
      "type": "error"
    },
    {
      "inputs": [],
      "name": "OnlyValidator",
      "type": "error"
    },
    {
      "inputs": [
        {
          "internalType": "address",
          "name": "owner",
          "type": "address"
        }
      ],
      "name": "OwnableInvalidOwner",
      "type": "error"
    },
    {
      "inputs": [
        {
          "internalType": "address",
          "name": "account",
          "type": "address"
        }
      ],
      "name": "OwnableUnauthorizedAccount",
      "type": "error"
    },
    {
      "inputs": [],
      "name": "ReportTooEarly",
      "type": "error"
    },
    {
      "inputs": [],
      "name": "Unauthorized",
      "type": "error"
    },
    {
      "inputs": [
        {
          "internalType": "address",
          "name": "reporter",
          "type": "address"
        },
        {
          "internalType": "address",
          "name": "validator",
          "type": "address"
        }
      ],
      "name": "UnknownReconnectReporter",
      "type": "error"
    },
    {
      "inputs": [],
      "name": "ZeroAddress",
      "type": "error"
    },
    {
      "anonymous": false,
      "inputs": [
        {
          "indexed": false,
          "internalType": "uint64",
          "name": "version",
          "type": "uint64"
        }
      ],
      "name": "Initialized",
      "type": "event"
    },
    {
      "anonymous": false,
      "inputs": [
        {
          "indexed": true,
          "internalType": "uint256",
          "name": "epoch",
          "type": "uint256"
        },
        {
          "indexed": true,
          "internalType": "uint256",
          "name": "blockNumber",
          "type": "uint256"
        }
      ],
      "name": "NotifyEarlyEpochEnd",
      "type": "event"
    },
    {
      "anonymous": false,
      "inputs": [
        {
          "indexed": true,
          "internalType": "address",
          "name": "previousOwner",
          "type": "address"
        },
        {
          "indexed": true,
          "internalType": "address",
          "name": "newOwner",
          "type": "address"
        }
      ],
      "name": "OwnershipTransferred",
      "type": "event"
    },
    {
      "anonymous": false,
      "inputs": [
        {
          "indexed": false,
          "internalType": "bytes4",
          "name": "funcSelector",
          "type": "bytes4"
        }
      ],
      "name": "RemoveChangeableParameter",
      "type": "event"
    },
    {
      "anonymous": false,
      "inputs": [
        {
          "indexed": true,
          "internalType": "address",
          "name": "reporter",
          "type": "address"
        },
        {
          "indexed": true,
          "internalType": "address",
          "name": "validator",
          "type": "address"
        },
        {
          "indexed": true,
          "internalType": "uint256",
          "name": "blockNumber",
          "type": "uint256"
        }
      ],
      "name": "ReportMissingConnectivity",
      "type": "event"
    },
    {
      "anonymous": false,
      "inputs": [
        {
          "indexed": true,
          "internalType": "address",
          "name": "reporter",
          "type": "address"
        },
        {
          "indexed": true,
          "internalType": "address",
          "name": "validator",
          "type": "address"
        },
        {
          "indexed": true,
          "internalType": "uint256",
          "name": "blockNumber",
          "type": "uint256"
        }
      ],
      "name": "ReportReconnect",
      "type": "event"
    },
    {
      "anonymous": false,
      "inputs": [
        {
          "indexed": false,
          "internalType": "bytes4",
          "name": "setter",
          "type": "bytes4"
        },
        {
          "indexed": false,
          "internalType": "bytes4",
          "name": "getter",
          "type": "bytes4"
        },
        {
          "indexed": false,
          "internalType": "uint256[]",
          "name": "params",
          "type": "uint256[]"
        }
      ],
      "name": "SetChangeableParameter",
      "type": "event"
    },
    {
      "anonymous": false,
      "inputs": [
        {
          "indexed": false,
          "internalType": "uint256",
          "name": "_level",
          "type": "uint256"
        }
      ],
      "name": "SetEarlyEpochEndToleranceLevel",
      "type": "event"
    },
    {
      "anonymous": false,
      "inputs": [
        {
          "indexed": false,
          "internalType": "uint256",
          "name": "_reportDisallowPeriodSeconds",
          "type": "uint256"
        }
      ],
      "name": "SetReportDisallowPeriod",
      "type": "event"
    },
    {
      "inputs": [
        {
          "internalType": "bytes4",
          "name": "",
          "type": "bytes4"
        }
      ],
      "name": "allowedParameterRange",
      "outputs": [
        {
          "internalType": "bytes4",
          "name": "getter",
          "type": "bytes4"
        }
      ],
      "stateMutability": "view",
      "type": "function"
    },
    {
      "inputs": [],
      "name": "blockRewardContract",
      "outputs": [
        {
          "internalType": "contract IBlockRewardHbbft",
          "name": "",
          "type": "address"
        }
      ],
      "stateMutability": "view",
      "type": "function"
    },
    {
      "inputs": [],
      "name": "bonusScoreContract",
      "outputs": [
        {
          "internalType": "contract IBonusScoreSystem",
          "name": "",
          "type": "address"
        }
      ],
      "stateMutability": "view",
      "type": "function"
    },
    {
      "inputs": [
        {
          "internalType": "address",
          "name": "caller",
          "type": "address"
        },
        {
          "internalType": "address",
          "name": "validator",
          "type": "address"
        },
        {
          "internalType": "uint256",
          "name": "blockNumber",
          "type": "uint256"
        },
        {
          "internalType": "bytes32",
          "name": "blockHash",
          "type": "bytes32"
        }
      ],
      "name": "checkReportMissingConnectivityCallable",
      "outputs": [],
      "stateMutability": "view",
      "type": "function"
    },
    {
      "inputs": [
        {
          "internalType": "address",
          "name": "caller",
          "type": "address"
        },
        {
          "internalType": "address",
          "name": "validator",
          "type": "address"
        },
        {
          "internalType": "uint256",
          "name": "blockNumber",
          "type": "uint256"
        },
        {
          "internalType": "bytes32",
          "name": "blockHash",
          "type": "bytes32"
        }
      ],
      "name": "checkReportReconnectCallable",
      "outputs": [],
      "stateMutability": "view",
      "type": "function"
    },
    {
      "inputs": [
        {
          "internalType": "uint256",
          "name": "epoch",
          "type": "uint256"
        }
      ],
      "name": "countFaultyValidators",
      "outputs": [
        {
          "internalType": "uint256",
          "name": "",
          "type": "uint256"
        }
      ],
      "stateMutability": "view",
      "type": "function"
    },
    {
      "inputs": [],
      "name": "currentEpoch",
      "outputs": [
        {
          "internalType": "uint256",
          "name": "",
          "type": "uint256"
        }
      ],
      "stateMutability": "view",
      "type": "function"
    },
    {
      "inputs": [],
      "name": "earlyEpochEndThreshold",
      "outputs": [
        {
          "internalType": "uint256",
          "name": "",
          "type": "uint256"
        }
      ],
      "stateMutability": "view",
      "type": "function"
    },
    {
      "inputs": [],
      "name": "earlyEpochEndToleranceLevel",
      "outputs": [
        {
          "internalType": "uint256",
          "name": "",
          "type": "uint256"
        }
      ],
      "stateMutability": "view",
      "type": "function"
    },
    {
      "inputs": [
        {
          "internalType": "string",
          "name": "_selector",
          "type": "string"
        }
      ],
      "name": "getAllowedParamsRange",
      "outputs": [
        {
          "components": [
            {
              "internalType": "bytes4",
              "name": "getter",
              "type": "bytes4"
            },
            {
              "internalType": "uint256[]",
              "name": "range",
              "type": "uint256[]"
            }
          ],
          "internalType": "struct ValueGuards.ParameterRange",
          "name": "",
          "type": "tuple"
        }
      ],
      "stateMutability": "view",
      "type": "function"
    },
    {
      "inputs": [
        {
          "internalType": "bytes4",
          "name": "_selector",
          "type": "bytes4"
        }
      ],
      "name": "getAllowedParamsRangeWithSelector",
      "outputs": [
        {
          "components": [
            {
              "internalType": "bytes4",
              "name": "getter",
              "type": "bytes4"
            },
            {
              "internalType": "uint256[]",
              "name": "range",
              "type": "uint256[]"
            }
          ],
          "internalType": "struct ValueGuards.ParameterRange",
          "name": "",
          "type": "tuple"
        }
      ],
      "stateMutability": "view",
      "type": "function"
    },
    {
      "inputs": [],
      "name": "getFlaggedValidators",
      "outputs": [
        {
          "internalType": "address[]",
          "name": "",
          "type": "address[]"
        }
      ],
      "stateMutability": "view",
      "type": "function"
    },
    {
      "inputs": [
        {
          "internalType": "uint256",
          "name": "epoch",
          "type": "uint256"
        }
      ],
      "name": "getFlaggedValidatorsByEpoch",
      "outputs": [
        {
          "internalType": "address[]",
          "name": "",
          "type": "address[]"
        }
      ],
      "stateMutability": "view",
      "type": "function"
    },
    {
      "inputs": [
        {
          "internalType": "uint256",
          "name": "epoch",
          "type": "uint256"
        }
      ],
      "name": "getFlaggedValidatorsCount",
      "outputs": [
        {
          "internalType": "uint256",
          "name": "",
          "type": "uint256"
        }
      ],
      "stateMutability": "view",
      "type": "function"
    },
    {
      "inputs": [
        {
          "internalType": "uint256",
          "name": "epoch",
          "type": "uint256"
        },
        {
          "internalType": "address",
          "name": "validator",
          "type": "address"
        }
      ],
      "name": "getValidatorConnectivityScore",
      "outputs": [
        {
          "internalType": "uint256",
          "name": "",
          "type": "uint256"
        }
      ],
      "stateMutability": "view",
      "type": "function"
    },
    {
      "inputs": [
        {
          "internalType": "address",
          "name": "_contractOwner",
          "type": "address"
        },
        {
          "internalType": "address",
          "name": "_validatorSetContract",
          "type": "address"
        },
        {
          "internalType": "address",
          "name": "_stakingContract",
          "type": "address"
        },
        {
          "internalType": "address",
          "name": "_blockRewardContract",
          "type": "address"
        },
        {
          "internalType": "address",
          "name": "_bonusScoreContract",
          "type": "address"
        },
        {
          "internalType": "uint256",
          "name": "_reportDisallowPeriodSeconds",
          "type": "uint256"
        }
      ],
      "name": "initialize",
      "outputs": [],
      "stateMutability": "nonpayable",
      "type": "function"
    },
    {
      "inputs": [
        {
          "internalType": "uint256",
          "name": "",
          "type": "uint256"
        }
      ],
      "name": "isEarlyEpochEnd",
      "outputs": [
        {
          "internalType": "bool",
          "name": "",
          "type": "bool"
        }
      ],
      "stateMutability": "view",
      "type": "function"
    },
    {
      "inputs": [
        {
          "internalType": "uint256",
          "name": "epoch",
          "type": "uint256"
        },
        {
          "internalType": "address",
          "name": "validator",
          "type": "address"
        }
      ],
      "name": "isFaultyValidator",
      "outputs": [
        {
          "internalType": "bool",
          "name": "",
          "type": "bool"
        }
      ],
      "stateMutability": "view",
      "type": "function"
    },
    {
      "inputs": [
        {
          "internalType": "uint256",
          "name": "",
          "type": "uint256"
        },
        {
          "internalType": "address",
          "name": "validator",
          "type": "address"
        },
        {
          "internalType": "address",
          "name": "reporter",
          "type": "address"
        }
      ],
      "name": "isReported",
      "outputs": [
        {
          "internalType": "bool",
          "name": "",
          "type": "bool"
        }
      ],
      "stateMutability": "view",
      "type": "function"
    },
    {
      "inputs": [
        {
          "internalType": "bytes4",
          "name": "funcSelector",
          "type": "bytes4"
        },
        {
          "internalType": "uint256",
          "name": "newVal",
          "type": "uint256"
        }
      ],
      "name": "isWithinAllowedRange",
      "outputs": [
        {
          "internalType": "bool",
          "name": "",
          "type": "bool"
        }
      ],
      "stateMutability": "view",
      "type": "function"
    },
    {
      "inputs": [],
      "name": "owner",
      "outputs": [
        {
          "internalType": "address",
          "name": "",
          "type": "address"
        }
      ],
      "stateMutability": "view",
      "type": "function"
    },
    {
      "inputs": [
        {
          "internalType": "uint256",
          "name": "epoch",
          "type": "uint256"
        }
      ],
      "name": "penaliseFaultyValidators",
      "outputs": [],
      "stateMutability": "nonpayable",
      "type": "function"
    },
    {
      "inputs": [
        {
          "internalType": "bytes4",
          "name": "funcSelector",
          "type": "bytes4"
        }
      ],
      "name": "removeAllowedChangeableParameter",
      "outputs": [],
      "stateMutability": "nonpayable",
      "type": "function"
    },
    {
      "inputs": [],
      "name": "renounceOwnership",
      "outputs": [],
      "stateMutability": "nonpayable",
      "type": "function"
    },
    {
      "inputs": [],
      "name": "reportDisallowPeriod",
      "outputs": [
        {
          "internalType": "uint256",
          "name": "",
          "type": "uint256"
        }
      ],
      "stateMutability": "view",
      "type": "function"
    },
    {
      "inputs": [
        {
          "internalType": "address",
          "name": "validator",
          "type": "address"
        },
        {
          "internalType": "uint256",
          "name": "blockNumber",
          "type": "uint256"
        },
        {
          "internalType": "bytes32",
          "name": "blockHash",
          "type": "bytes32"
        }
      ],
      "name": "reportMissingConnectivity",
      "outputs": [],
      "stateMutability": "nonpayable",
      "type": "function"
    },
    {
      "inputs": [
        {
          "internalType": "address",
          "name": "validator",
          "type": "address"
        },
        {
          "internalType": "uint256",
          "name": "blockNumber",
          "type": "uint256"
        },
        {
          "internalType": "bytes32",
          "name": "blockHash",
          "type": "bytes32"
        }
      ],
      "name": "reportReconnect",
      "outputs": [],
      "stateMutability": "nonpayable",
      "type": "function"
    },
    {
      "inputs": [
        {
          "internalType": "bytes4",
          "name": "setter",
          "type": "bytes4"
        },
        {
          "internalType": "bytes4",
          "name": "getter",
          "type": "bytes4"
        },
        {
          "internalType": "uint256[]",
          "name": "params",
          "type": "uint256[]"
        }
      ],
      "name": "setAllowedChangeableParameter",
      "outputs": [],
      "stateMutability": "nonpayable",
      "type": "function"
    },
    {
      "inputs": [
        {
          "internalType": "uint256",
          "name": "_level",
          "type": "uint256"
        }
      ],
      "name": "setEarlyEpochEndToleranceLevel",
      "outputs": [],
      "stateMutability": "nonpayable",
      "type": "function"
    },
    {
      "inputs": [
        {
          "internalType": "uint256",
          "name": "_reportDisallowPeriodSeconds",
          "type": "uint256"
        }
      ],
      "name": "setReportDisallowPeriod",
      "outputs": [],
      "stateMutability": "nonpayable",
      "type": "function"
    },
    {
      "inputs": [],
      "name": "stakingContract",
      "outputs": [
        {
          "internalType": "contract IStakingHbbft",
          "name": "",
          "type": "address"
        }
      ],
      "stateMutability": "view",
      "type": "function"
    },
    {
      "inputs": [
        {
          "internalType": "address",
          "name": "newOwner",
          "type": "address"
        }
      ],
      "name": "transferOwnership",
      "outputs": [],
      "stateMutability": "nonpayable",
      "type": "function"
    },
    {
      "inputs": [],
      "name": "validatorSetContract",
      "outputs": [
        {
          "internalType": "contract IValidatorSetHbbft",
          "name": "",
          "type": "address"
        }
      ],
      "stateMutability": "view",
      "type": "function"
    }
  ],
  "bytecode": "0x608060405234801561001057600080fd5b5061002b676a7311d193c6846e60c01b61007260201b60201c565b61004567c8d46a898dc23fc760c01b61007260201b60201c565b61005f675a574cbc750dea8e60c01b61007260201b60201c565b61006d61007560201b60201c565b6101ba565b50565b600061008561017960201b60201c565b90508060000160089054906101000a900460ff16156100d0576040517ff92ee8a900000000000000000000000000000000000000000000000000000000815260040160405180910390fd5b67ffffffffffffffff80168160000160009054906101000a900467ffffffffffffffff1667ffffffffffffffff16146101765767ffffffffffffffff8160000160006101000a81548167ffffffffffffffff021916908367ffffffffffffffff1602179055507fc7f505b2f371ae2175ee4913f4499e1f2633a7b5936321eed1cdaeb6115181d267ffffffffffffffff60405161016d91906101a1565b60405180910390a15b50565b60007ff0c57e16840df040f15088dc2f81fe391c3923bec73e23a9662efc9c229c6a00905090565b600060208201905060018060401b038316825292915050565b61516b806101c96000396000f3fe608060405234801561001057600080fd5b506004361061020b5760003560e01c8063922836341161012a578063bf348f86116100bd578063e6de3f031161008c578063f2fde38b11610071578063f2fde38b14610620578063f4064e171461063c578063fb58b40e1461066c5761020b565b8063e6de3f03146105d2578063ee99205c146106025761020b565b8063bf348f8614610536578063c242869314610566578063dfc8bf4e14610596578063e2ed0330146105b45761020b565b8063b2a68421116100f9578063b2a684211461049e578063b710c15d146104ba578063ba08d237146104ea578063bed8968c1461051a5761020b565b8063922836341461040457806395b6ef0c14610434578063a57c615314610450578063b280c0941461046e5761020b565b80634346845f116101a2578063766718081161017157806376671808146103905780637d8149db146103ae5780638da5cb5b146103ca578063911cee74146103e85761020b565b80634346845f1461033057806348bf1aa61461034c57806356b54bae14610368578063715018a6146103865761020b565b8063116f1149116101de578063116f114914610298578063161b07b2146102b4578063241f3913146102e457806329cf8564146103005761020b565b8063060b2849146102105780630b770cdf1461022c5780630be021091461024a5780631041215e1461027a575b600080fd5b61022a6004803603810190610225919061491b565b61068a565b005b610234610817565b6040516102419190614961565b60405180910390f35b610264600480360381019061025f9190614988565b61083d565b60405161027191906149a4565b60405180910390f35b61028261085d565b60405161028f91906149b7565b60405180910390f35b6102b260048036038101906102ad9190614988565b610863565b005b6102ce60048036038101906102c991906149c8565b610a49565b6040516102db91906149a4565b60405180910390f35b6102fe60048036038101906102f99190614988565b610aa4565b005b61031a600480360381019061031591906149c8565b610b9d565b60405161032791906149b7565b60405180910390f35b61034a60048036038101906103459190614a14565b610c3b565b005b61036660048036038101906103619190614988565b610e07565b005b61037061123a565b60405161037d9190614aab565b60405180910390f35b61038e611260565b005b610398611274565b6040516103a591906149b7565b60405180910390f35b6103c860048036038101906103c39190614ad2565b611348565b005b6103d261147c565b6040516103df9190614af5565b60405180910390f35b61040260048036038101906103fd9190614b1c565b6114b4565b005b61041e60048036038101906104199190614ad2565b6117ef565b60405161042b9190614b51565b60405180910390f35b61044e60048036038101906104499190614b6b565b61181a565b005b610458611f95565b60405161046591906149b7565b60405180910390f35b61048860048036038101906104839190614988565b61216b565b60405161049591906149b7565b60405180910390f35b6104b860048036038101906104b39190614b1c565b6121b9565b005b6104d460048036038101906104cf9190614bee565b612691565b6040516104e19190614ca3565b60405180910390f35b61050460048036038101906104ff9190614d0c565b6127eb565b60405161051191906149a4565b60405180910390f35b610534600480360381019061052f919061491b565b612cdb565b005b610550600480360381019061054b9190614ad2565b612e67565b60405161055d9190614ca3565b60405180910390f35b610580600480360381019061057b9190614d38565b612fba565b60405161058d91906149a4565b60405180910390f35b61059e61306a565b6040516105ab9190614d74565b60405180910390f35b6105bc613090565b6040516105c99190614d9b565b60405180910390f35b6105ec60048036038101906105e79190614988565b6130e3565b6040516105f991906149b7565b60405180910390f35b61060a613143565b6040516106179190614e00565b60405180910390f35b61063a60048036038101906106359190614e27565b613169565b005b61065660048036038101906106519190614988565b6131ef565b6040516106639190614d9b565b60405180910390f35b61067461324f565b60405161068191906149b7565b60405180910390f35b61069e67a861178e8b4e267e60c01b613255565b6106b267866dbf3bf5d5ab6060c01b613255565b6106c66785c75a7183820e1660c01b613255565b60006106d0611274565b90506106e667339d4d8c125eeffd60c01b613255565b6106fa67cc70350c3eedf2c060c01b613255565b61070681868585613258565b61071a67cbbbc0feb4de0a4d60c01b613255565b61072e67eb9f5deeb400b46860c01b613255565b610790856008600084815260200190815260200160002060008773ffffffffffffffffffffffffffffffffffffffff1673ffffffffffffffffffffffffffffffffffffffff1681526020019081526020016000206136be90919063ffffffff16565b156107fc576107a967253066218bec85e660c01b613255565b6107bd67f2967d68478b994260c01b613255565b84846040517f59235a560000000000000000000000000000000000000000000000000000000081526004016107f3929190614e4a565b60405180910390fd5b610810671423b6662f65e53560c01b613255565b5050505050565b600b60009054906101000a900473ffffffffffffffffffffffffffffffffffffffff1681565b60066020528060005260406000206000915054906101000a900460ff1681565b60055481565b61087767efc98cb13807465360c01b613255565b61087f6136ee565b61089367736ff6475223bf9d60c01b613255565b6108a767fcd7615a762db6d860c01b613255565b806108bc67288a20a40e8d1c5860c01b613775565b6108d067c91bd2adbddb69c960c01b613775565b6108e467e350faaca2e8f0c060c01b613775565b6109126000357fffffffff0000000000000000000000000000000000000000000000000000000016826127eb565b61097b5761092a67f321c0062a05753f60c01b613775565b61093e6710282e2f2d3001d760c01b613775565b806040517f73330d9b00000000000000000000000000000000000000000000000000000000815260040161097291906149b7565b60405180910390fd5b61098f677a834b40c8e841e560c01b613775565b6109a3678765015181e8c42860c01b613775565b6109b7671910f586d6c50c4060c01b613255565b6109cb67da980216adc4055b60c01b613255565b6109df67d2b1b7f89babaa1560c01b613255565b816004819055506109fa67efef2712f82965fd60c01b613255565b610a0e67ea335c4b6cafba5f60c01b613255565b7ff0ae05d1ef296238e04486dbfa703343cb8a565a7926535e21eebd26211d515482604051610a3d91906149b7565b60405180910390a15050565b6000610a5f67c6651968a7dbed4760c01b613255565b610a736737dda5dfecbf0dc260c01b613255565b610a876785dde71e585e29f460c01b613255565b610a9083613778565b610a9a8484610b9d565b1015905092915050565b610ab86742aaae399f62121a60c01b613255565b610ac06136ee565b610ad467813b70c841a7f5b860c01b613255565b610ae8676e50da7b851c91f160c01b613255565b610afc6703d70208be56184960c01b613255565b80600581905550610b17678b414fd37b08dae760c01b613255565b610b2b6701430d4dd26be59160c01b613255565b610b3b610b36611274565b6138b3565b610b4f67f258adf1eb27774960c01b613255565b610b636706b88d71d69686bf60c01b613255565b7fac3628398dbf48961399872c95a3a6cad2988babf49dcfd40dab6fbef84b497081604051610b9291906149b7565b60405180910390a150565b6000610bb367d892c02e8c77b25560c01b613255565b610bc767a21ad2a56cd3637760c01b613255565b610bdb6775c9f85fe9508d0560c01b613255565b610c336008600085815260200190815260200160002060008473ffffffffffffffffffffffffffffffffffffffff1673ffffffffffffffffffffffffffffffffffffffff168152602001908152602001600020613b9f565b905092915050565b610c4f67be0c833aa15c34c060c01b613775565b610c576136ee565b610c6b6732f8a94e78c23adf60c01b613775565b610c7f6788b6eef7519ee4f160c01b613775565b610c936716df033c7a667b6e60c01b613775565b6040518060400160405280847bffffffffffffffffffffffffffffffffffffffffffffffffffffffff19168152602001838380806020026020016040519081016040528093929190818152602001838360200280828437600081840152601f19601f82011690508083019250505050505050815250600080867bffffffffffffffffffffffffffffffffffffffffffffffffffffffff19167bffffffffffffffffffffffffffffffffffffffffffffffffffffffff1916815260200190815260200160002060008201518160000160006101000a81548163ffffffff021916908360e01c02179055506020820151816001019080519060200190610d9892919061482a565b50905050610db06755f08098c39d2f8260c01b613775565b610dc467bdeaf3791eacbded60c01b613775565b7f3665bf9cd0ba4ddceeec259e21dcf8a4510f3b1130bd42e950828e69d85408ba84848484604051610df99493929190614e7c565b60405180910390a150505050565b610e1b678e0135850b8e519660c01b613255565b610e2f672d14a73e02bd597960c01b613255565b610e4367344bce3ab274a35f60c01b613255565b610e576767232d82cdfee6c160c01b613255565b600360009054906101000a900473ffffffffffffffffffffffffffffffffffffffff1673ffffffffffffffffffffffffffffffffffffffff163373ffffffffffffffffffffffffffffffffffffffff1614610f0657610ec067d5c3675c691e294260c01b613255565b610ed46771f8390b5e00775660c01b613255565b6040517f82b4290000000000000000000000000000000000000000000000000000000000815260040160405180910390fd5b610f1a673136a0468509b90c60c01b613255565b610f2e67fd21025ad53fbd7a60c01b613255565b610f426738efde0a7d8ec98b60c01b613255565b610f56671bba5725e64e7d9460c01b613255565b610f6a67d3e2e79fabfa216f60c01b613255565b610f7e676ed9158d276bc99260c01b613255565b600a600082815260200190815260200160002060009054906101000a900460ff161561100957610fb867049ffa48cc87218960c01b613255565b610fcc6796b72f5d4dac3f0f60c01b613255565b806040517fe711188100000000000000000000000000000000000000000000000000000000815260040161100091906149b7565b60405180910390fd5b61101d678188fc1545ccafe460c01b613255565b611031672390c3ef11d8a3f860c01b613255565b6001600a600083815260200190815260200160002060006101000a81548160ff021916908315150217905550611071672940ad6fac1eed6660c01b613255565b61108567cd5929334359f13960c01b613255565b6000611090826131ef565b90506110a66737e38aeb3ee58cf460c01b613255565b6110ba67accd9b0a4255e5d760c01b613255565b60005b8151811015611235576110da6719eb3998f28b4aeb60c01b613255565b6110ee67a0079b5868f6846860c01b613255565b6111128383838151811061110557611104614eeb565b5b6020026020010151610a49565b6111435761112a674b1e865815648b4b60c01b613255565b61113e679a0284631fb5580e60c01b613255565b61122a565b611157670a028a1079d80b9360c01b613255565b61116b67c29bb019c6721ea760c01b613255565b61117f6792ae43e6d719bbd960c01b613255565b600b60009054906101000a900473ffffffffffffffffffffffffffffffffffffffff1673ffffffffffffffffffffffffffffffffffffffff16633dc12d238383815181106111d0576111cf614eeb565b5b602002602001015160006040518363ffffffff1660e01b81526004016111f7929190614f01565b600060405180830381600087803b15801561121157600080fd5b505af1158015611225573d6000803e3d6000fd5b505050505b8060010190506110bd565b505050565b600360009054906101000a900473ffffffffffffffffffffffffffffffffffffffff1681565b6112686136ee565b6112726000613bb4565b565b600061128a67321637535b0e46b760c01b613255565b61129e67c54fe8449a76ea0260c01b613255565b6112b267788d6ec2c7287ea360c01b613255565b600260009054906101000a900473ffffffffffffffffffffffffffffffffffffffff1673ffffffffffffffffffffffffffffffffffffffff1663794c0c686040518163ffffffff1660e01b8152600401602060405180830381865afa15801561131f573d6000803e3d6000fd5b505050506040513d601f19601f820116820180604052508101906113439190614f2f565b905090565b61135c678fe2115d6ce1cd2660c01b613775565b6113646136ee565b6113786709b862b227f1778560c01b613775565b61138c67423a90dea5f08d5f60c01b613775565b6113a06712d55d992cd616b860c01b613775565b600080827bffffffffffffffffffffffffffffffffffffffffffffffffffffffff19167bffffffffffffffffffffffffffffffffffffffffffffffffffffffff19168152602001908152602001600020600080820160006101000a81549063ffffffff02191690556001820160006114189190614877565b505061142e671c3795656335d30b60c01b613775565b61144267c0de44f930e2c4cb60c01b613775565b7fed27cb02231782dadf13473a7828cb980c4d685791b7a3136dde00f8c3594cb6816040516114719190614b51565b60405180910390a150565b600080611487613c8b565b90508060000160009054906101000a900473ffffffffffffffffffffffffffffffffffffffff1691505090565b6114c86739db92107def4de960c01b613255565b6114dc679fe5ff8c37674c1a60c01b613255565b6114f0673712db82f091bf4260c01b613255565b6114fc3384848461068a565b611510677c6f27781a08622a60c01b613255565b61152467625102b4df2c245160c01b613255565b600061152e611274565b9050611544672ab8bea26f007f4660c01b613255565b61155867e13aa8f2d294598b60c01b613255565b60006115648286610b9d565b905061157a67e61e1d7bfffb0fad60c01b613255565b61158e67d551d34fc116070860c01b613255565b600081036115fd576115aa67e2c4219d16187eea60c01b613255565b6115be675ffcdb62caab477460c01b613255565b6115d2677463454c2f758b1760c01b613255565b6115f78560076000858152602001908152602001600020613cb390919063ffffffff16565b50611612565b6116116794d23986ef4dcff260c01b613255565b5b61162667a44ef6a5a78372ba60c01b613255565b61163a67ccba947d62bd514060c01b613255565b61169c336008600085815260200190815260200160002060008873ffffffffffffffffffffffffffffffffffffffff1673ffffffffffffffffffffffffffffffffffffffff168152602001908152602001600020613cb390919063ffffffff16565b506116b1672820ba0c738d686c60c01b613255565b6116c5677a578d8371b68aaf60c01b613255565b6116cf8286610a49565b1561171f576116e8671a713d64748924d660c01b613255565b6116fc674ad4bd89ac3f5d5060c01b613255565b611710675785f8ea3767e62e60c01b613255565b61171a8286613ce3565b611734565b611733673a961713d50a9ec660c01b613255565b5b611748670b6fff813a09dc5e60c01b613255565b61175c679527b508b57e5eef60c01b613255565b611765826138b3565b6117796772f0151d70c3d23560c01b613255565b61178d67d65d8a1c1a92900860c01b613255565b838573ffffffffffffffffffffffffffffffffffffffff163373ffffffffffffffffffffffffffffffffffffffff167fe84fbfa7fbefb93358b3d7d314bc48b17f721c435443246047f93bbc7b8d0eef60405160405180910390a45050505050565b60006020528060005260406000206000915090508060000160009054906101000a900460e01b905081565b61182e671e8088920e6b22a060c01b613255565b6000611838613eef565b905060008160000160089054906101000a900460ff1615905060008260000160009054906101000a900467ffffffffffffffff1690506000808267ffffffffffffffff161480156118865750825b9050600060018367ffffffffffffffff161480156118bb575060003073ffffffffffffffffffffffffffffffffffffffff163b145b9050811580156118c9575080155b15611900576040517ff92ee8a900000000000000000000000000000000000000000000000000000000815260040160405180910390fd5b60018560000160006101000a81548167ffffffffffffffff021916908367ffffffffffffffff16021790555083156119505760018560000160086101000a81548160ff0219169083151502179055505b611964678fe36d6c98c5d9c660c01b613255565b611978674837dc4cae207fb060c01b613255565b61198c6705b31b56f34fdfdf60c01b613255565b6119a0677c10fa7e86d48a8560c01b613255565b600073ffffffffffffffffffffffffffffffffffffffff168b73ffffffffffffffffffffffffffffffffffffffff161480156119ec57506119eb67ef061aeb926c2bbd60c01b613f17565b5b80611a5b5750600073ffffffffffffffffffffffffffffffffffffffff168a73ffffffffffffffffffffffffffffffffffffffff16148015611a3e5750611a3d67199ce1115988f23760c01b613f17565b5b8015611a5a5750611a5967cb9515c79b1fbc6e60c01b613f17565b5b5b80611aca5750600073ffffffffffffffffffffffffffffffffffffffff168973ffffffffffffffffffffffffffffffffffffffff16148015611aad5750611aac67354873decb1bdf8360c01b613f17565b5b8015611ac95750611ac867de874205263e666760c01b613f17565b5b5b80611b385750600073ffffffffffffffffffffffffffffffffffffffff168873ffffffffffffffffffffffffffffffffffffffff16148015611b1c5750611b1b67443057ec0f3f6c7c60c01b613f17565b5b8015611b375750611b3666b7c70f6250d88d60c01b613f17565b5b5b80611b8b5750600073ffffffffffffffffffffffffffffffffffffffff168773ffffffffffffffffffffffffffffffffffffffff16148015611b8a5750611b8967a6e501fff5ff2a6c60c01b613f17565b5b5b15611bea57611ba467bcba8679f56d162760c01b613255565b611bb867e7b495928c54f27460c01b613255565b6040517fd92e233d00000000000000000000000000000000000000000000000000000000815260040160405180910390fd5b611bfe67122c1bc70106ef7b60c01b613255565b611c126762bf8a01b0723f7060c01b613255565b611c26674177f6da3d05980660c01b613255565b611c2f8b613f22565b611c4266829f034d859e1660c01b613255565b89600160006101000a81548173ffffffffffffffffffffffffffffffffffffffff021916908373ffffffffffffffffffffffffffffffffffffffff160217905550611c976777d7e0e2217a53bd60c01b613255565b88600260006101000a81548173ffffffffffffffffffffffffffffffffffffffff021916908373ffffffffffffffffffffffffffffffffffffffff160217905550611cec6797d03f45dfb7c50260c01b613255565b87600360006101000a81548173ffffffffffffffffffffffffffffffffffffffff021916908373ffffffffffffffffffffffffffffffffffffffff160217905550611d41678962783456966b9e60c01b613255565b86600b60006101000a81548173ffffffffffffffffffffffffffffffffffffffff021916908373ffffffffffffffffffffffffffffffffffffffff160217905550611d9667c95e2ae9490ef6c960c01b613255565b85600481905550611db167f121e8ce4a36034860c01b613255565b6002600581905550611dcd6703a873a39e0fd86360c01b613255565b611de167cedec4a9953799f760c01b613255565b600060b49050611dfb673532fdfe3acd9c1360c01b613255565b611e0f67339a5e7bff62e7cc60c01b613255565b6000600a67ffffffffffffffff811115611e2c57611e2b614bd8565b5b604051908082528060200260200182016040528015611e5a5781602001602082028036833780820191505090505b509050611e716735a99d834e633db060c01b613255565b611e8567f9a7a7faa260c02260c01b613255565b60005b600a811015611ee857611ea567e350447c2c5941e960c01b613255565b8281611eb19190614f61565b83611ebc9190614f83565b828281518110611ecf57611ece614eeb565b5b6020026020010181815250508080600101915050611e88565b50611efd673cde0e0ae14d992360c01b613255565b611f11677081c4c6f07b1db360c01b613255565b611f2a63116f114960e01b63fb58b40e60e01b83613f36565b50508315611f885760008560000160086101000a81548160ff0219169083151502179055507fc7f505b2f371ae2175ee4913f4499e1f2633a7b5936321eed1cdaeb6115181d26001604051611f7f9190614fa1565b60405180910390a15b5050505050505050505050565b6000611fab67ef499909518d9f0e60c01b613255565b611fbf67e4fdae50cb30567b60c01b613255565b611fd3674b26b6d5823dafd060c01b613255565b6000600160009054906101000a900473ffffffffffffffffffffffffffffffffffffffff1673ffffffffffffffffffffffffffffffffffffffff16635d5fcbce6040518163ffffffff1660e01b8152600401602060405180830381865afa158015612042573d6000803e3d6000fd5b505050506040513d601f19601f820116820180604052508101906120669190614f2f565b905061207c67614dd31a9d49e09c60c01b613255565b61209067aec3f9f6080e6ba460c01b613255565b600060038261209f9190614fbc565b90506120b567496541553bbf903660c01b613255565b6120c967fb32717b9cc9329b60c01b613255565b6005548111612119576120e6674289d38af13dcef460c01b613255565b6120fa6798cf427000aab99560c01b613255565b61210e675f5286cb1d39c4f660c01b613255565b600092505050612168565b61212d671c8a7f9aec4bd3aa60c01b613255565b61214167611471f58afaf73c60c01b613255565b6121556782236d181f98439360c01b613255565b600554816121639190614fe4565b925050505b90565b6000612181678f64031cc2e2395b60c01b613255565b6121956783a0ff4f88cc004c60c01b613255565b6121a967657d760299cdc40a60c01b613255565b6121b2826140be565b9050919050565b6121cd67d5e287464036dedb60c01b613255565b6121e167cca7096c41043db660c01b613255565b6121f567d86dac0529bd26ec60c01b613255565b61220133848484612cdb565b612215672cbd9b872eb801a560c01b613255565b6122296730f92f3bedebc3af60c01b613255565b6000612233611274565b905061224967627052902d11ce5d60c01b613255565b61225d670d36a47550a3a2e860c01b613255565b60006122698286610b9d565b905061227f6744e4945078da9d1560c01b613255565b61229367a83f8d937894ef8760c01b613255565b6122f5336008600085815260200190815260200160002060008873ffffffffffffffffffffffffffffffffffffffff1673ffffffffffffffffffffffffffffffffffffffff1681526020019081526020016000206142a990919063ffffffff16565b5061230a670dc4e9fc6bba008b60c01b613255565b61231e67d2410564005d4d4f60c01b613255565b600181036125c15761233a67dcb8af0f365dad1660c01b613255565b61234e673463a3827e16a78a60c01b613255565b61236267e9317bf0f0766e0160c01b613255565b61238785600760008581526020019081526020016000206142a990919063ffffffff16565b5061239c677918afc42027010960c01b613255565b6123b067418cee528730f37860c01b613255565b6000600c600084815260200190815260200160002060008773ffffffffffffffffffffffffffffffffffffffff1673ffffffffffffffffffffffffffffffffffffffff16815260200190815260200160002054905061241967a105a2000220e98c60c01b613255565b61242d673979a180628c6d7c60c01b613255565b600081146125a65761244967696fb8eb1d8ce84a60c01b613255565b61245d675cdfb961b7a7452f60c01b613255565b6124716746ab57eb2d50854960c01b613255565b6000814261247f9190614fe4565b90506124956775b8d21c848f5b3360c01b613255565b6124a9675f6cfdb95565977f60c01b613255565b600b60009054906101000a900473ffffffffffffffffffffffffffffffffffffffff1673ffffffffffffffffffffffffffffffffffffffff16633dc12d2388836040518363ffffffff1660e01b8152600401612506929190615002565b600060405180830381600087803b15801561252057600080fd5b505af1158015612534573d6000803e3d6000fd5b5050505061254c67e82a6a9ed571eb3a60c01b613255565b600c600085815260200190815260200160002060008873ffffffffffffffffffffffffffffffffffffffff1673ffffffffffffffffffffffffffffffffffffffff16815260200190815260200160002060009055506125bb565b6125ba670b92c9c135813d9960c01b613255565b5b506125d6565b6125d567d1324e5c306cf86c60c01b613255565b5b6125ea67c025264a138a902160c01b613255565b6125fe67245e3c35d118795660c01b613255565b612607826138b3565b61261b6777338821745f982060c01b613255565b61262f670436a69d3cc5d8b460c01b613255565b838573ffffffffffffffffffffffffffffffffffffffff163373ffffffffffffffffffffffffffffffffffffffff167f392643b1c214ef857ada7fce1cd87c13940ad6883df76dba4808672b7d69c81560405160405180910390a45050505050565b612699614898565b6126ad674619985d99bfc13a60c01b613775565b6126c167d3809ce56ffdd6c060c01b613775565b6126d567672ef63f17fd937760c01b613775565b60008083805190602001207bffffffffffffffffffffffffffffffffffffffffffffffffffffffff19167bffffffffffffffffffffffffffffffffffffffffffffffffffffffff191681526020019081526020016000206040518060400160405290816000820160009054906101000a900460e01b7bffffffffffffffffffffffffffffffffffffffffffffffffffffffff19167bffffffffffffffffffffffffffffffffffffffffffffffffffffffff19168152602001600182018054806020026020016040519081016040528092919081815260200182805480156127db57602002820191906000526020600020905b8154815260200190600101908083116127c7575b5050505050815250509050919050565b600061280167474e2d01d013ed0460c01b613775565b61281567a3dfb7f1a77f229760c01b613775565b61282967c84461f410b06e1d60c01b613775565b6000806000857bffffffffffffffffffffffffffffffffffffffffffffffffffffffff19167bffffffffffffffffffffffffffffffffffffffffffffffffffffffff191681526020019081526020016000206040518060400160405290816000820160009054906101000a900460e01b7bffffffffffffffffffffffffffffffffffffffffffffffffffffffff19167bffffffffffffffffffffffffffffffffffffffffffffffffffffffff191681526020016001820180548060200260200160405190810160405280929190818152602001828054801561292a57602002820191906000526020600020905b815481526020019060010190808311612916575b505050505081525050905061294967fceac404249b0d4760c01b613775565b61295d6780c820ae5d3863fa60c01b613775565b6000816020015151036129b05761297e67d3f7980aefae23f760c01b613775565b612992675178b7b9ce528bf860c01b613775565b6129a6672c12828ba0a53f0e60c01b613775565b6000915050612cd5565b6129c4679fbf9a05f8d8d3f260c01b613775565b6129d867ec1b37c91026e18c60c01b613775565b6129eb66575fac3fc8706960c01b613775565b600081602001519050612a0867e4ee101f22c6ceed60c01b613775565b612a1c67ccc0fb216cd0689c60c01b613775565b6000612a2b83600001516142d9565b9050612a4167bfc58c9d8e9c74b760c01b613775565b612a55679e58f8bb97a704b560c01b613775565b60005b8251811015612ca457612a75670ae3b9f28946ab1660c01b613775565b612a89674d79179b2b65b62460c01b613775565b81838281518110612a9d57612a9c614eeb565b5b602002602001015103612c8357612abe67e77d2e3f89e7a42860c01b613775565b612ad267b7842defb9da051d60c01b613775565b612ae6671547477c73ca15a160c01b613775565b600080821180612b065750612b0567cc01463c19fc8ba960c01b6144f5565b5b8015612b225750612b2167227034a55ba6c0a760c01b6144fc565b5b612b475783600081518110612b3a57612b39614eeb565b5b6020026020010151612b6f565b83600183612b559190614fe4565b81518110612b6657612b65614eeb565b5b60200260200101515b9050612b85677185030a1f64e21460c01b613775565b612b996778bafd4adda4b1c560c01b613775565b600060018551612ba99190614fe4565b831080612bc65750612bc5674f0cebdd4deab5ed60c01b6144f5565b5b8015612be25750612be167dc67d8968d02c22460c01b6144fc565b5b612c13578460018651612bf59190614fe4565b81518110612c0657612c05614eeb565b5b6020026020010151612c3b565b84600184612c219190614f83565b81518110612c3257612c31614eeb565b5b60200260200101515b9050612c51672e87edf58ed8962a60c01b613775565b612c65676973514a8df1a1ba60c01b613775565b818814158015612c755750808814155b159650505050505050612cd5565b612c97679ca04a6f8e3f0a1060c01b613775565b8080600101915050612a58565b50612cb967aa325e51b176b97060c01b613775565b612ccd674634c9165e74839160c01b613775565b600093505050505b92915050565b612cef67059329a224c86e6b60c01b613255565b612d036786fef781540a7ba560c01b613255565b612d176702d6939bdcc4c9e760c01b613255565b6000612d21611274565b9050612d376734e2f27742e09c9460c01b613255565b612d4b672eb0a89f3815674960c01b613255565b612d5781868585613258565b612d6b6781e2b5c0b2c4693260c01b613255565b612d7f67c643c6c4aedde05760c01b613255565b612de1856008600084815260200190815260200160002060008773ffffffffffffffffffffffffffffffffffffffff1673ffffffffffffffffffffffffffffffffffffffff1681526020019081526020016000206136be90919063ffffffff16565b612e4c57612df967bf12fb939d475b1660c01b613255565b612e0d67c7214e579aba133760c01b613255565b84846040517fad7c4578000000000000000000000000000000000000000000000000000000008152600401612e43929190614e4a565b60405180910390fd5b612e60674b72b5674dee8da560c01b613255565b5050505050565b612e6f614898565b612e83678d336dd70b28d88c60c01b613775565b612e97670ef5ff68e8bedddd60c01b613775565b612eab6787db0b959c67689d60c01b613775565b600080837bffffffffffffffffffffffffffffffffffffffffffffffffffffffff19167bffffffffffffffffffffffffffffffffffffffffffffffffffffffff191681526020019081526020016000206040518060400160405290816000820160009054906101000a900460e01b7bffffffffffffffffffffffffffffffffffffffffffffffffffffffff19167bffffffffffffffffffffffffffffffffffffffffffffffffffffffff1916815260200160018201805480602002602001604051908101604052809291908181526020018280548015612faa57602002820191906000526020600020905b815481526020019060010190808311612f96575b5050505050815250509050919050565b6000612fd0671d075d42184c842760c01b613255565b612fe467faea1dd879dc993160c01b613255565b612ff867c94ff65130206a5160c01b613255565b6130618260086000613008611274565b815260200190815260200160002060008673ffffffffffffffffffffffffffffffffffffffff1673ffffffffffffffffffffffffffffffffffffffff1681526020019081526020016000206136be90919063ffffffff16565b90509392505050565b600160009054906101000a900473ffffffffffffffffffffffffffffffffffffffff1681565b60606130a6673a9646cbcf77bba460c01b613255565b6130ba67aea8b54b998b281960c01b613255565b6130ce67656b29073693451060c01b613255565b6130de6130d9611274565b6131ef565b905090565b60006130f96767b44080e32aa84f60c01b613255565b61310d679341d692f8153d5860c01b613255565b61312167294a16cad92de01760c01b613255565b61313c60076000848152602001908152602001600020613b9f565b9050919050565b600260009054906101000a900473ffffffffffffffffffffffffffffffffffffffff1681565b6131716136ee565b600073ffffffffffffffffffffffffffffffffffffffff168173ffffffffffffffffffffffffffffffffffffffff16036131e35760006040517f1e4fbdf70000000000000000000000000000000000000000000000000000000081526004016131da9190614af5565b60405180910390fd5b6131ec81613bb4565b50565b60606132056724cf5a39ea52781d60c01b613255565b61321967063405e7db978c4c60c01b613255565b61322d67f3a2062acf25d7a160c01b613255565b61324860076000848152602001908152602001600020614507565b9050919050565b60045481565b50565b61326c677ee9eff33f3a4e0060c01b613255565b61328067829604704541340660c01b613255565b61329467b9e8de92e93c2c7060c01b613255565b600160009054906101000a900473ffffffffffffffffffffffffffffffffffffffff1673ffffffffffffffffffffffffffffffffffffffff1663facd743b846040518263ffffffff1660e01b81526004016132ef9190614af5565b602060405180830381865afa15801561330c573d6000803e3d6000fd5b505050506040513d601f19601f820116820180604052508101906133309190615030565b61338e57613348673e7f502f29189f2c60c01b613255565b61335c67896346c8027bddd660c01b613255565b6040517f1aa1e81500000000000000000000000000000000000000000000000000000000815260040160405180910390fd5b6133a267855fc40dd173b3b160c01b613255565b6133b667be219a31d5e0db7d60c01b613255565b6133ca67fc4431b05673a3d360c01b613255565b43821180156133e957506133e8673c8a6ff6da78a5b060c01b613f17565b5b80613411575080824014158015613410575061340f67535f7793bfdd94b660c01b613f17565b5b5b156134705761342a67e279a1974dc23d9f60c01b613255565b61343e67e680964db6814bfc60c01b613255565b6040517fbe5a36cf00000000000000000000000000000000000000000000000000000000815260040160405180910390fd5b61348467a315a0bf0bfe4e8c60c01b613255565b61349867dcd9202fbdd1084f60c01b613255565b6134ac67e1e316ac59bdcbfe60c01b613255565b6134d183600760008781526020019081526020016000206136be90919063ffffffff16565b1561353b576134ea67eae403d79d8900f560c01b613255565b6134fe674a20e628561e77df60c01b613255565b826040517fb3e187510000000000000000000000000000000000000000000000000000000081526004016135329190614af5565b60405180910390fd5b61354f67a075dbecdf1a416b60c01b613255565b6135636747d171ebe965b06160c01b613255565b613577670a2ba1eda300089e60c01b613255565b6000600260009054906101000a900473ffffffffffffffffffffffffffffffffffffffff1673ffffffffffffffffffffffffffffffffffffffff16639b03d7446040518163ffffffff1660e01b8152600401602060405180830381865afa1580156135e6573d6000803e3d6000fd5b505050506040513d601f19601f8201168201806040525081019061360a9190614f2f565b905061362067da0addcc41bb7fe060c01b613255565b61363467e95363a299978fd360c01b613255565b600454816136429190614f83565b4210156136a35761365d673e4d27506b4d385560c01b613255565b61367167cf3b53518c7ce56a60c01b613255565b6040517f41c86e2f00000000000000000000000000000000000000000000000000000000815260040160405180910390fd5b6136b767d834c35198bbcb4060c01b613255565b5050505050565b60006136e6836000018373ffffffffffffffffffffffffffffffffffffffff1660001b614528565b905092915050565b6136f661454b565b73ffffffffffffffffffffffffffffffffffffffff1661371461147c565b73ffffffffffffffffffffffffffffffffffffffff16146137735761373761454b565b6040517f118cdaa700000000000000000000000000000000000000000000000000000000815260040161376a9190614af5565b60405180910390fd5b565b50565b600061378e67c225c789297ec5d360c01b613255565b6137a267142e4dd4c20213e560c01b613255565b6137b667b800dec1301fa4fd60c01b613255565b60006137c1836130e3565b600160009054906101000a900473ffffffffffffffffffffffffffffffffffffffff1673ffffffffffffffffffffffffffffffffffffffff16635d5fcbce6040518163ffffffff1660e01b8152600401602060405180830381865afa15801561382e573d6000803e3d6000fd5b505050506040513d601f19601f820116820180604052508101906138529190614f2f565b61385c9190614fe4565b905061387267152b46347ac9271060c01b613255565b61388667b81000a4906432cb60c01b613255565b600160038260026138979190614f61565b6138a19190614fbc565b6138ab9190614f83565b915050919050565b6138c7670e4ff7bbc9af1d4260c01b613255565b6138db6718d58e453b144dcf60c01b613255565b6138ef67503a7fb9aa80a4f060c01b613255565b6006600082815260200190815260200160002060009054906101000a900460ff1615613956576139296714a0fdf4e2a4deb160c01b613255565b61393d677ddd84af3ed7415460c01b613255565b6139516742050b59427af92760c01b613255565b613b9c565b61396a67b6e64332833537d260c01b613255565b61397e67f38a1b4f3d41422060c01b613255565b61399267e9c7e1e56ae7293a60c01b613255565b600061399c611f95565b90506139b267c33996c14624d52160c01b613255565b6139c667dc2dc8ba32c46b7d60c01b613255565b60006139d1836140be565b90506139e7679f7610f040985c5b60c01b613255565b6139fb67a78e0b231d2ebf3a60c01b613255565b81811015613a4557613a1666d1c624a7925e8b60c01b613255565b613a2a67f5231593f9f83b6a60c01b613255565b613a3e67647b0e7f2b1dda4b60c01b613255565b5050613b9c565b613a5967e9a39a6289f370de60c01b613255565b613a6d674ff3cf5a471f85d360c01b613255565b60016006600085815260200190815260200160002060006101000a81548160ff021916908315150217905550613aad671bd4040f551176db60c01b613255565b613ac1676815a0ee948800a160c01b613255565b600360009054906101000a900473ffffffffffffffffffffffffffffffffffffffff1673ffffffffffffffffffffffffffffffffffffffff1663596208726040518163ffffffff1660e01b8152600401600060405180830381600087803b158015613b2b57600080fd5b505af1158015613b3f573d6000803e3d6000fd5b50505050613b57673b85cc9484ae3a1a60c01b613255565b613b6b675001c8a6295f6b4e60c01b613255565b43837f56d37189df10957afc08d69b74c305bd8e82d9f3a6af80cc3a989a5c082b31ea60405160405180910390a350505b50565b6000613bad82600001614553565b9050919050565b6000613bbe613c8b565b905060008160000160009054906101000a900473ffffffffffffffffffffffffffffffffffffffff169050828260000160006101000a81548173ffffffffffffffffffffffffffffffffffffffff021916908373ffffffffffffffffffffffffffffffffffffffff1602179055508273ffffffffffffffffffffffffffffffffffffffff168173ffffffffffffffffffffffffffffffffffffffff167f8be0079c531659141344cd1fd0a4f28419497f9722a3daafe3b4186f6b6457e060405160405180910390a3505050565b60007f9016d09d72d40fdae2fd8ceac6b6234c7706214fd39c1cd1e609a0528c199300905090565b6000613cdb836000018373ffffffffffffffffffffffffffffffffffffffff1660001b614564565b905092915050565b613cf76779997a806b79d9b160c01b613255565b613d0b67117857801a14556460c01b613255565b613d1f6792634c89183ba9e760c01b613255565b6000600c600084815260200190815260200160002060008373ffffffffffffffffffffffffffffffffffffffff1673ffffffffffffffffffffffffffffffffffffffff1681526020019081526020016000205414613db857613d8b672bd56b3c00cabf1060c01b613255565b613d9f67336d514640c6757c60c01b613255565b613db367ca36d315a8a5575260c01b613255565b613eeb565b613dcc6787e386c0f6037cb360c01b613255565b613de0672cd14e2c3017a65e60c01b613255565b42600c600084815260200190815260200160002060008373ffffffffffffffffffffffffffffffffffffffff1673ffffffffffffffffffffffffffffffffffffffff16815260200190815260200160002081905550613e4967dedc016910d0b60a60c01b613255565b613e5d67e309a0eefb2890de60c01b613255565b600160009054906101000a900473ffffffffffffffffffffffffffffffffffffffff1673ffffffffffffffffffffffffffffffffffffffff1663717662ee826040518263ffffffff1660e01b8152600401613eb89190614af5565b600060405180830381600087803b158015613ed257600080fd5b505af1158015613ee6573d6000803e3d6000fd5b505050505b5050565b60007ff0c57e16840df040f15088dc2f81fe391c3923bec73e23a9662efc9c229c6a00905090565b600060019050919050565b613f2a6145d4565b613f3381614614565b50565b613f4a67c79e4b348e6f39f460c01b613775565b613f526145d4565b613f6667b4a3fa81ec94c0b760c01b613775565b613f7a6779af0e9eed62f6a360c01b613775565b613f8e671d2f4cf255f3a3a260c01b613775565b6040518060400160405280837bffffffffffffffffffffffffffffffffffffffffffffffffffffffff1916815260200182815250600080857bffffffffffffffffffffffffffffffffffffffffffffffffffffffff19167bffffffffffffffffffffffffffffffffffffffffffffffffffffffff1916815260200190815260200160002060008201518160000160006101000a81548163ffffffff021916908360e01c0217905550602082015181600101908051906020019061405292919061482a565b5090505061406a6761754190fdc3bd4b60c01b613775565b61407e67ff18751ae25d0b5f60c01b613775565b7f3665bf9cd0ba4ddceeec259e21dcf8a4510f3b1130bd42e950828e69d85408ba8383836040516140b19392919061505c565b60405180910390a1505050565b60006140d46728b2b287b70b189d60c01b613255565b6140e867084b48c48877138f60c01b613255565b6140fc6711b486353291d29060c01b613255565b600061410783613778565b905061411d67a6da414ed234452e60c01b613255565b61413167aaf8457ff4ccd98460c01b613255565b6000614147676f8a85371e36c31b60c01b613255565b61415b675db66808eee8481860c01b613255565b6000614166856131ef565b905061417c67825f5d49d3bf72f560c01b613255565b61419067661e4efb54c6eb9e60c01b613255565b60005b8151811015614275576141b0674a52b58020430a8460c01b613255565b6141c467f2b8265df706dff960c01b613255565b60008282815181106141d9576141d8614eeb565b5b602002602001015190506141f767cfe6670d98e2826260c01b613255565b61420b67739bc256ba29af2760c01b613255565b846142168883610b9d565b106142545761422f67d496095290e5b46460c01b613255565b6142436716a8dd2dbf18d96560c01b613255565b8361424d906150c8565b9350614269565b614268679abff70fe055a0db60c01b613255565b5b50806001019050614193565b5061428a67638146ba37c2e3c860c01b613255565b61429e678decfad4f4305d3560c01b613255565b819350505050919050565b60006142d1836000018373ffffffffffffffffffffffffffffffffffffffff1660001b61469a565b905092915050565b60006142ef679e1fb7c1345f6d7560c01b613775565b614303676a464d35bf2f530e60c01b613775565b61431767bf3100cc1e8b9dfe60c01b613775565b600082604051602401604051602081830303815290604052907bffffffffffffffffffffffffffffffffffffffffffffffffffffffff19166020820180517bffffffffffffffffffffffffffffffffffffffffffffffffffffffff838183161783525050505090506143936796628452cad12c7f60c01b613775565b6143a7675ab273453a552a6660c01b613775565b6000803073ffffffffffffffffffffffffffffffffffffffff16836040516143cf91906150e6565b600060405180830381855afa9150503d806000811461440a576040519150601f19603f3d011682016040523d82523d6000602084013e61440f565b606091505b509150915061442867ddcfe0b4c19fd84c60c01b613775565b61443c67a914dc00efc72af160c01b613775565b8161449b5761445567cc0b2dfba033c08760c01b613775565b614469673b33da3d059e2f5160c01b613775565b6040517fbf75613600000000000000000000000000000000000000000000000000000000815260040160405180910390fd5b6144af670c45fced65fbfda160c01b613775565b6144c36783c55538565e133160c01b613775565b6144d7671651102527c6e0d860c01b613775565b808060200190518101906144eb9190614f2f565b9350505050919050565b6000919050565b600060019050919050565b60606000614517836000016147ae565b905060608190508092505050919050565b600080836001016000848152602001908152602001600020541415905092915050565b600033905090565b600081600001805490509050919050565b60006145708383614528565b6145c95782600001829080600181540180825580915050600190039060005260206000200160009091909190915055826000018054905083600101600084815260200190815260200160002081905550600190506145ce565b600090505b92915050565b6145dc61480a565b614612576040517fd7e6bcf800000000000000000000000000000000000000000000000000000000815260040160405180910390fd5b565b61461c6145d4565b600073ffffffffffffffffffffffffffffffffffffffff168173ffffffffffffffffffffffffffffffffffffffff160361468e5760006040517f1e4fbdf70000000000000000000000000000000000000000000000000000000081526004016146859190614af5565b60405180910390fd5b61469781613bb4565b50565b600080836001016000848152602001908152602001600020549050600081146147a25760006001826146cc9190614fe4565b90506000600186600001805490506146e49190614fe4565b905080821461475357600086600001828154811061470557614704614eeb565b5b906000526020600020015490508087600001848154811061472957614728614eeb565b5b90600052602060002001819055508387600101600083815260200190815260200160002081905550505b856000018054806147675761476661511f565b5b6001900381819060005260206000200160009055905585600101600086815260200190815260200160002060009055600193505050506147a8565b60009150505b92915050565b6060816000018054806020026020016040519081016040528092919081815260200182805480156147fe57602002820191906000526020600020905b8154815260200190600101908083116147ea575b50505050509050919050565b6000614814613eef565b60000160089054906101000a900460ff16905090565b828054828255906000526020600020908101928215614866579160200282015b8281111561486557825182559160200191906001019061484a565b5b50905061487391906148d1565b5090565b508054600082559060005260206000209081019061489591906148d1565b50565b604051806040016040528060007bffffffffffffffffffffffffffffffffffffffffffffffffffffffff19168152602001606081525090565b5b808211156148ea5760008160009055506001016148d2565b5090565b60008135905073ffffffffffffffffffffffffffffffffffffffff8116811461491657600080fd5b919050565b6000806000806080858703121561493157600080fd5b61493a856148ee565b9350614948602086016148ee565b9250604085013591506060850135905092959194509250565b600060208201905073ffffffffffffffffffffffffffffffffffffffff8316825292915050565b60006020828403121561499a57600080fd5b8135905092915050565b6000602082019050821515825292915050565b600060208201905082825292915050565b600080604083850312156149db57600080fd5b823591506149eb602084016148ee565b90509250929050565b60008135905063ffffffff60e01b81168114614a0f57600080fd5b919050565b60008060008060608587031215614a2a57600080fd5b614a33856149f4565b9350614a41602086016149f4565b9250604085013567ffffffffffffffff80821115614a5e57600080fd5b818701915087601f830112614a7257600080fd5b813581811115614a8157600080fd5b8860208260051b8501011115614a9657600080fd5b60208301945080935050505092959194509250565b600060208201905073ffffffffffffffffffffffffffffffffffffffff8316825292915050565b600060208284031215614ae457600080fd5b614aed826149f4565b905092915050565b600060208201905073ffffffffffffffffffffffffffffffffffffffff8316825292915050565b600080600060608486031215614b3157600080fd5b614b3a846148ee565b925060208401359150604084013590509250925092565b600060208201905063ffffffff60e01b8316825292915050565b60008060008060008060c08789031215614b8457600080fd5b614b8d876148ee565b9550614b9b602088016148ee565b9450614ba9604088016148ee565b9350614bb7606088016148ee565b9250614bc5608088016148ee565b915060a087013590509295509295509295565b634e487b7160e01b600052604160045260246000fd5b600060208284031215614c0057600080fd5b813567ffffffffffffffff80821115614c1857600080fd5b818401915084601f830112614c2c57600080fd5b813581811115614c3f57614c3e614bd8565b5b601f1960405181603f83601f8601160116810191508082108483111715614c6957614c68614bd8565b5b81604052828152876020848701011115614c8257600080fd5b82602086016020830137600060208483010152809550505050505092915050565b600060208083526060830163ffffffff60e01b85511682850152818501516040808601528181518084526080870191508483019350600092505b80831015614cfe578351825284820191508484019350600183019250614cdd565b508094505050505092915050565b60008060408385031215614d1f57600080fd5b614d28836149f4565b9150602083013590509250929050565b600080600060608486031215614d4d57600080fd5b83359250614d5d602085016148ee565b9150614d6b604085016148ee565b90509250925092565b600060208201905073ffffffffffffffffffffffffffffffffffffffff8316825292915050565b600060208083016020845280855180835260408601915060208701925060005b81811015614df25773ffffffffffffffffffffffffffffffffffffffff845116835284830192508484019350600181019050614dbb565b505080935050505092915050565b600060208201905073ffffffffffffffffffffffffffffffffffffffff8316825292915050565b600060208284031215614e3957600080fd5b614e42826148ee565b905092915050565b600060408201905073ffffffffffffffffffffffffffffffffffffffff80851683528084166020840152509392505050565b600063ffffffff60e01b8087168352808616602084015250606060408301528260608301527f07ffffffffffffffffffffffffffffffffffffffffffffffffffffffffffffff831115614ece57600080fd5b8260051b8085608085013760808184010191505095945050505050565b634e487b7160e01b600052603260045260246000fd5b600060408201905073ffffffffffffffffffffffffffffffffffffffff841682528260208301529392505050565b600060208284031215614f4157600080fd5b8151905092915050565b634e487b7160e01b600052601160045260246000fd5b600082820290508181048314821517614f7d57614f7c614f4b565b5b92915050565b6000828201905080821115614f9b57614f9a614f4b565b5b92915050565b600060208201905067ffffffffffffffff8316825292915050565b600082614fd957634e487b7160e01b600052601260045260246000fd5b828204905092915050565b6000828203905081811115614ffc57614ffb614f4b565b5b92915050565b600060408201905073ffffffffffffffffffffffffffffffffffffffff841682528260208301529392505050565b60006020828403121561504257600080fd5b8151801515811461505257600080fd5b8091505092915050565b60006060820163ffffffff60e01b80871684526020818716602086015260606040860152829150855180845260808601925060208701935060005b818110156150b8578451845282840193508285019450600181019050615097565b5050508092505050949350505050565b6000801982036150db576150da614f4b565b5b600182019050919050565b6000825160005b8181101561510b5760208186010151818501526020810190506150ed565b508083019050600081528091505092915050565b634e487b7160e01b600052603160045260246000fdfea26469706673582212206bc4eedb46ab768f559d2c29aac9ec545b4c1d85e5daec869a2745648506495b64736f6c63430008190033",
  "linkReferences": {},
  "deployedLinkReferences": {}
}