{
  "_format": "hh-sol-artifact-1",
  "contractName": "ConnectivityTrackerHbbft",
  "sourceName": "contracts/ConnectivityTrackerHbbft.sol",
  "abi": [
    {
      "inputs": [],
      "stateMutability": "nonpayable",
      "type": "constructor"
    },
    {
      "inputs": [
        {
          "internalType": "address",
          "name": "reporter",
          "type": "address"
        },
        {
          "internalType": "address",
          "name": "validator",
          "type": "address"
        }
      ],
      "name": "AlreadyReported",
      "type": "error"
    },
    {
      "inputs": [
        {
          "internalType": "address",
          "name": "reporter",
          "type": "address"
        }
      ],
      "name": "CannotReportByFlaggedValidator",
      "type": "error"
    },
    {
      "inputs": [],
      "name": "InvalidAddress",
      "type": "error"
    },
    {
      "inputs": [],
      "name": "InvalidBlock",
      "type": "error"
    },
    {
      "inputs": [],
      "name": "OnlyValidator",
      "type": "error"
    },
    {
      "inputs": [],
      "name": "ReportTooEarly",
      "type": "error"
    },
    {
      "inputs": [
        {
          "internalType": "address",
          "name": "reporter",
          "type": "address"
        },
        {
          "internalType": "address",
          "name": "validator",
          "type": "address"
        }
      ],
      "name": "UnknownReconnectReporter",
      "type": "error"
    },
    {
      "anonymous": false,
      "inputs": [
        {
          "indexed": false,
          "internalType": "uint8",
          "name": "version",
          "type": "uint8"
        }
      ],
      "name": "Initialized",
      "type": "event"
    },
    {
      "anonymous": false,
      "inputs": [
        {
          "indexed": true,
          "internalType": "uint256",
          "name": "epoch",
          "type": "uint256"
        },
        {
          "indexed": true,
          "internalType": "uint256",
          "name": "blockNumber",
          "type": "uint256"
        }
      ],
      "name": "NotifyEarlyEpochEnd",
      "type": "event"
    },
    {
      "anonymous": false,
      "inputs": [
        {
          "indexed": true,
          "internalType": "address",
          "name": "previousOwner",
          "type": "address"
        },
        {
          "indexed": true,
          "internalType": "address",
          "name": "newOwner",
          "type": "address"
        }
      ],
      "name": "OwnershipTransferred",
      "type": "event"
    },
    {
      "anonymous": false,
      "inputs": [
        {
          "indexed": true,
          "internalType": "address",
          "name": "reporter",
          "type": "address"
        },
        {
          "indexed": true,
          "internalType": "address",
          "name": "validator",
          "type": "address"
        },
        {
          "indexed": true,
          "internalType": "uint256",
          "name": "blockNumber",
          "type": "uint256"
        }
      ],
      "name": "ReportMissingConnectivity",
      "type": "event"
    },
    {
      "anonymous": false,
      "inputs": [
        {
          "indexed": true,
          "internalType": "address",
          "name": "reporter",
          "type": "address"
        },
        {
          "indexed": true,
          "internalType": "address",
          "name": "validator",
          "type": "address"
        },
        {
          "indexed": true,
          "internalType": "uint256",
          "name": "blockNumber",
          "type": "uint256"
        }
      ],
      "name": "ReportReconnect",
      "type": "event"
    },
    {
      "anonymous": false,
      "inputs": [
        {
          "indexed": false,
          "internalType": "uint256",
          "name": "_level",
          "type": "uint256"
        }
      ],
      "name": "SetEarlyEpochEndToleranceLevel",
      "type": "event"
    },
    {
      "anonymous": false,
      "inputs": [
        {
          "indexed": false,
          "internalType": "uint256",
          "name": "_minReportAge",
          "type": "uint256"
        }
      ],
      "name": "SetMinReportAgeBlocks",
      "type": "event"
    },
    {
      "inputs": [],
      "name": "blockRewardContract",
      "outputs": [
        {
          "internalType": "contract IBlockRewardHbbft",
          "name": "",
          "type": "address"
        }
      ],
      "stateMutability": "view",
      "type": "function"
    },
    {
      "inputs": [
        {
          "internalType": "address",
          "name": "caller",
          "type": "address"
        },
        {
          "internalType": "address",
          "name": "validator",
          "type": "address"
        },
        {
          "internalType": "uint256",
          "name": "blockNumber",
          "type": "uint256"
        },
        {
          "internalType": "bytes32",
          "name": "blockHash",
          "type": "bytes32"
        }
      ],
      "name": "checkReportMissingConnectivityCallable",
      "outputs": [],
      "stateMutability": "view",
      "type": "function"
    },
    {
      "inputs": [
        {
          "internalType": "address",
          "name": "caller",
          "type": "address"
        },
        {
          "internalType": "address",
          "name": "validator",
          "type": "address"
        },
        {
          "internalType": "uint256",
          "name": "blockNumber",
          "type": "uint256"
        },
        {
          "internalType": "bytes32",
          "name": "blockHash",
          "type": "bytes32"
        }
      ],
      "name": "checkReportReconnectCallable",
      "outputs": [],
      "stateMutability": "view",
      "type": "function"
    },
    {
      "inputs": [],
      "name": "currentEpoch",
      "outputs": [
        {
          "internalType": "uint256",
          "name": "",
          "type": "uint256"
        }
      ],
      "stateMutability": "view",
      "type": "function"
    },
    {
      "inputs": [],
      "name": "earlyEpochEndThreshold",
      "outputs": [
        {
          "internalType": "uint256",
          "name": "",
          "type": "uint256"
        }
      ],
      "stateMutability": "view",
      "type": "function"
    },
    {
      "inputs": [],
      "name": "earlyEpochEndToleranceLevel",
      "outputs": [
        {
          "internalType": "uint256",
          "name": "",
          "type": "uint256"
        }
      ],
      "stateMutability": "view",
      "type": "function"
    },
    {
      "inputs": [],
      "name": "getFlaggedValidators",
      "outputs": [
        {
          "internalType": "address[]",
          "name": "",
          "type": "address[]"
        }
      ],
      "stateMutability": "view",
      "type": "function"
    },
    {
      "inputs": [
        {
          "internalType": "uint256",
          "name": "epoch",
          "type": "uint256"
        },
        {
          "internalType": "address",
          "name": "validator",
          "type": "address"
        }
      ],
      "name": "getValidatorConnectivityScore",
      "outputs": [
        {
          "internalType": "uint256",
          "name": "",
          "type": "uint256"
        }
      ],
      "stateMutability": "view",
      "type": "function"
    },
    {
      "inputs": [
        {
          "internalType": "address",
          "name": "_contractOwner",
          "type": "address"
        },
        {
          "internalType": "address",
          "name": "_validatorSetContract",
          "type": "address"
        },
        {
          "internalType": "address",
          "name": "_stakingContract",
          "type": "address"
        },
        {
          "internalType": "address",
          "name": "_blockRewardContract",
          "type": "address"
        },
        {
          "internalType": "uint256",
          "name": "_minReportAgeBlocks",
          "type": "uint256"
        }
      ],
      "name": "initialize",
      "outputs": [],
      "stateMutability": "nonpayable",
      "type": "function"
    },
    {
      "inputs": [
        {
          "internalType": "uint256",
          "name": "",
          "type": "uint256"
        }
      ],
      "name": "isEarlyEpochEnd",
      "outputs": [
        {
          "internalType": "bool",
          "name": "",
          "type": "bool"
        }
      ],
      "stateMutability": "view",
      "type": "function"
    },
    {
      "inputs": [],
      "name": "minReportAgeBlocks",
      "outputs": [
        {
          "internalType": "uint256",
          "name": "",
          "type": "uint256"
        }
      ],
      "stateMutability": "view",
      "type": "function"
    },
    {
      "inputs": [],
      "name": "owner",
      "outputs": [
        {
          "internalType": "address",
          "name": "",
          "type": "address"
        }
      ],
      "stateMutability": "view",
      "type": "function"
    },
    {
      "inputs": [],
      "name": "renounceOwnership",
      "outputs": [],
      "stateMutability": "nonpayable",
      "type": "function"
    },
    {
      "inputs": [
        {
          "internalType": "address",
          "name": "validator",
          "type": "address"
        },
        {
          "internalType": "uint256",
          "name": "blockNumber",
          "type": "uint256"
        },
        {
          "internalType": "bytes32",
          "name": "blockHash",
          "type": "bytes32"
        }
      ],
      "name": "reportMissingConnectivity",
      "outputs": [],
      "stateMutability": "nonpayable",
      "type": "function"
    },
    {
      "inputs": [
        {
          "internalType": "address",
          "name": "validator",
          "type": "address"
        },
        {
          "internalType": "uint256",
          "name": "blockNumber",
          "type": "uint256"
        },
        {
          "internalType": "bytes32",
          "name": "blockHash",
          "type": "bytes32"
        }
      ],
      "name": "reportReconnect",
      "outputs": [],
      "stateMutability": "nonpayable",
      "type": "function"
    },
    {
      "inputs": [
        {
          "internalType": "uint256",
          "name": "_level",
          "type": "uint256"
        }
      ],
      "name": "setEarlyEpochEndToleranceLevel",
      "outputs": [],
      "stateMutability": "nonpayable",
      "type": "function"
    },
    {
      "inputs": [
        {
          "internalType": "uint256",
          "name": "_minReportAge",
          "type": "uint256"
        }
      ],
      "name": "setMinReportAge",
      "outputs": [],
      "stateMutability": "nonpayable",
      "type": "function"
    },
    {
      "inputs": [],
      "name": "stakingContract",
      "outputs": [
        {
          "internalType": "contract IStakingHbbft",
          "name": "",
          "type": "address"
        }
      ],
      "stateMutability": "view",
      "type": "function"
    },
    {
      "inputs": [
        {
          "internalType": "address",
          "name": "newOwner",
          "type": "address"
        }
      ],
      "name": "transferOwnership",
      "outputs": [],
      "stateMutability": "nonpayable",
      "type": "function"
    },
    {
      "inputs": [],
      "name": "validatorSetContract",
      "outputs": [
        {
          "internalType": "contract IValidatorSetHbbft",
          "name": "",
          "type": "address"
        }
      ],
      "stateMutability": "view",
      "type": "function"
    }
  ],
  "bytecode": "0x608060405234801561001057600080fd5b5061001961001e565b6100dd565b600054610100900460ff161561008a5760405162461bcd60e51b815260206004820152602760248201527f496e697469616c697a61626c653a20636f6e747261637420697320696e697469604482015266616c697a696e6760c81b606482015260840160405180910390fd5b60005460ff908116146100db576000805460ff191660ff9081179091556040519081527f7f26b83ff96e1f2b6a682f133852f6798a09c465da95921460cefb38474024989060200160405180910390a15b565b6113f5806100ec6000396000f3fe608060405234801561001057600080fd5b506004361061016c5760003560e01c8063911cee74116100cd578063dfc8bf4e11610081578063ee99205c11610066578063ee99205c146102cc578063f2fde38b146102df578063f7013ef6146102f257600080fd5b8063dfc8bf4e146102a4578063e2ed0330146102b757600080fd5b8063b2a68421116100b2578063b2a684211461026b578063b2c322491461027e578063bed8968c1461029157600080fd5b8063911cee7414610250578063a57c61531461026357600080fd5b806356b54bae11610124578063715018a611610109578063715018a61461022f57806376671808146102375780638da5cb5b1461023f57600080fd5b806356b54bae146101fb5780635cf03acb1461022657600080fd5b80631041215e116101555780631041215e146101be578063241f3913146101d557806329cf8564146101e857600080fd5b8063060b2849146101715780630be0210914610186575b600080fd5b61018461017f36600461114c565b610305565b005b6101a961019436600461118e565b606a6020526000908152604090205460ff1681565b60405190151581526020015b60405180910390f35b6101c760695481565b6040519081526020016101b5565b6101846101e336600461118e565b610386565b6101c76101f63660046111a7565b6103da565b60675461020e906001600160a01b031681565b6040516001600160a01b0390911681526020016101b5565b6101c760685481565b61018461040e565b6101c7610422565b6033546001600160a01b031661020e565b61018461025e3660046111d3565b610495565b6101c7610552565b6101846102793660046111d3565b610603565b61018461028c36600461118e565b6106c6565b61018461029f36600461114c565b610703565b60655461020e906001600160a01b031681565b6102bf610777565b6040516101b59190611206565b60665461020e906001600160a01b031681565b6101846102ed366004611253565b61079b565b61018461030036600461126e565b61082b565b600061030f610422565b905061031d81868585610a0c565b6000818152606c602090815260408083206001600160a01b038816845290915290206103499086610ba3565b1561037f57604051632c91ad2b60e11b81526001600160a01b038087166004830152851660248201526044015b60405180910390fd5b5050505050565b61038e610bc5565b60698190556103a361039e610422565b610c1f565b6040518181527fac3628398dbf48961399872c95a3a6cad2988babf49dcfd40dab6fbef84b4970906020015b60405180910390a150565b6000828152606c602090815260408083206001600160a01b0385168452909152812061040590610ce8565b90505b92915050565b610416610bc5565b6104206000610cf2565b565b60665460408051630f29818d60e31b815290516000926001600160a01b03169163794c0c689160048083019260209291908290030181865afa15801561046c573d6000803e3d6000fd5b505050506040513d601f19601f8201168201806040525081019061049091906112ca565b905090565b6104a133848484610305565b60006104ab610422565b905060006104b982866103da565b9050806000036104dd576000828152606b602052604090206104db9086610d51565b505b6000828152606c602090815260408083206001600160a01b038916845290915290206105099033610d51565b5061051382610c1f565b60405184906001600160a01b0387169033907fe84fbfa7fbefb93358b3d7d314bc48b17f721c435443246047f93bbc7b8d0eef90600090a45050505050565b600080606560009054906101000a90046001600160a01b03166001600160a01b0316635d5fcbce6040518163ffffffff1660e01b8152600401602060405180830381865afa1580156105a8573d6000803e3d6000fd5b505050506040513d601f19601f820116820180604052508101906105cc91906112ca565b905060006105db6003836112f9565b905060695481116105ef5760009250505090565b6069546105fc908261131b565b9250505090565b61060f33848484610703565b6000610619610422565b9050600061062782866103da565b9050801561067e576000828152606c602090815260408083206001600160a01b0389168452909152902061065b9033610d66565b508060010361067e576000828152606b6020526040902061067c9086610d66565b505b61068782610c1f565b60405184906001600160a01b0387169033907f392643b1c214ef857ada7fce1cd87c13940ad6883df76dba4808672b7d69c81590600090a45050505050565b6106ce610bc5565b60688190556040518181527f2270122bbf8298f106abbe21d0488dbabb7f01c27b5872446452ae4c3a9d972b906020016103cf565b600061070d610422565b905061071b81868585610a0c565b6000818152606c602090815260408083206001600160a01b038816845290915290206107479086610ba3565b61037f576040516315af88af60e31b81526001600160a01b03808716600483015285166024820152604401610376565b6060610490606b6000610788610422565b8152602001908152602001600020610d7b565b6107a3610bc5565b6001600160a01b03811661081f5760405162461bcd60e51b815260206004820152602660248201527f4f776e61626c653a206e6577206f776e657220697320746865207a65726f206160448201527f64647265737300000000000000000000000000000000000000000000000000006064820152608401610376565b61082881610cf2565b50565b600054610100900460ff161580801561084b5750600054600160ff909116105b806108655750303b158015610865575060005460ff166001145b6108d75760405162461bcd60e51b815260206004820152602e60248201527f496e697469616c697a61626c653a20636f6e747261637420697320616c72656160448201527f647920696e697469616c697a65640000000000000000000000000000000000006064820152608401610376565b6000805460ff1916600117905580156108fa576000805461ff0019166101001790555b6001600160a01b038616158061091757506001600160a01b038516155b8061092957506001600160a01b038416155b8061093b57506001600160a01b038316155b156109595760405163e6c4247b60e01b815260040160405180910390fd5b610961610d8f565b61096a86610cf2565b606580546001600160a01b0380881673ffffffffffffffffffffffffffffffffffffffff1992831617909255606680548784169083161790556067805492861692909116919091179055606882905560026069558015610a04576000805461ff0019169055604051600181527f7f26b83ff96e1f2b6a682f133852f6798a09c465da95921460cefb38474024989060200160405180910390a15b505050505050565b60655460405163facd743b60e01b81526001600160a01b0385811660048301529091169063facd743b90602401602060405180830381865afa158015610a56573d6000803e3d6000fd5b505050506040513d601f19601f82011682018060405250810190610a7a919061132e565b610a9757604051631aa1e81560e01b815260040160405180910390fd5b43821180610aa6575080824014155b15610ac45760405163be5a36cf60e01b815260040160405180910390fd5b6000848152606b60205260409020610adc9084610ba3565b15610b055760405163b3e1875160e01b81526001600160a01b0384166004820152602401610376565b60665460408051633834f3a360e11b815290516000926001600160a01b031691637069e7469160048083019260209291908290030181865afa158015610b4f573d6000803e3d6000fd5b505050506040513d601f19601f82011682018060405250810190610b7391906112ca565b905060685481610b839190611350565b43101561037f576040516341c86e2f60e01b815260040160405180910390fd5b6001600160a01b03811660009081526001830160205260408120541515610405565b6033546001600160a01b031633146104205760405162461bcd60e51b815260206004820181905260248201527f4f776e61626c653a2063616c6c6572206973206e6f7420746865206f776e65726044820152606401610376565b6000610c29610552565b90506000610c3683610e02565b905081811015610c4557505050565b6000838152606a6020526040808220805460ff191660011790556067548151632cb1043960e11b815291516001600160a01b03909116926359620872926004808201939182900301818387803b158015610c9e57600080fd5b505af1158015610cb2573d6000803e3d6000fd5b50506040514392508591507f56d37189df10957afc08d69b74c305bd8e82d9f3a6af80cc3a989a5c082b31ea90600090a3505050565b6000610408825490565b603380546001600160a01b0383811673ffffffffffffffffffffffffffffffffffffffff19831681179093556040519116919082907f8be0079c531659141344cd1fd0a4f28419497f9722a3daafe3b4186f6b6457e090600090a35050565b6000610405836001600160a01b038416610f1e565b6000610405836001600160a01b038416610f6d565b60606000610d8883611060565b9392505050565b600054610100900460ff16610dfa5760405162461bcd60e51b815260206004820152602b60248201527f496e697469616c697a61626c653a20636f6e7472616374206973206e6f74206960448201526a6e697469616c697a696e6760a81b6064820152608401610376565b6104206110bc565b600080610e0d610777565b905060008151606560009054906101000a90046001600160a01b03166001600160a01b0316635d5fcbce6040518163ffffffff1660e01b8152600401602060405180830381865afa158015610e66573d6000803e3d6000fd5b505050506040513d601f19601f82011682018060405250810190610e8a91906112ca565b610e94919061131b565b905060006003610ea5836002611363565b610eaf91906112f9565b610eba906001611350565b90506000805b8451811015610f14576000858281518110610edd57610edd61137a565b6020026020010151905083610ef289836103da565b10610f0357610f0083611390565b92505b50610f0d81611390565b9050610ec0565b5095945050505050565b6000818152600183016020526040812054610f6557508154600181810184556000848152602080822090930184905584548482528286019093526040902091909155610408565b506000610408565b60008181526001830160205260408120548015611056576000610f9160018361131b565b8554909150600090610fa59060019061131b565b905081811461100a576000866000018281548110610fc557610fc561137a565b9060005260206000200154905080876000018481548110610fe857610fe861137a565b6000918252602080832090910192909255918252600188019052604090208390555b855486908061101b5761101b6113a9565b600190038181906000526020600020016000905590558560010160008681526020019081526020016000206000905560019350505050610408565b6000915050610408565b6060816000018054806020026020016040519081016040528092919081815260200182805480156110b057602002820191906000526020600020905b81548152602001906001019080831161109c575b50505050509050919050565b600054610100900460ff166111275760405162461bcd60e51b815260206004820152602b60248201527f496e697469616c697a61626c653a20636f6e7472616374206973206e6f74206960448201526a6e697469616c697a696e6760a81b6064820152608401610376565b61042033610cf2565b80356001600160a01b038116811461114757600080fd5b919050565b6000806000806080858703121561116257600080fd5b61116b85611130565b935061117960208601611130565b93969395505050506040820135916060013590565b6000602082840312156111a057600080fd5b5035919050565b600080604083850312156111ba57600080fd5b823591506111ca60208401611130565b90509250929050565b6000806000606084860312156111e857600080fd5b6111f184611130565b95602085013595506040909401359392505050565b6020808252825182820181905260009190848201906040850190845b818110156112475783516001600160a01b031683529284019291840191600101611222565b50909695505050505050565b60006020828403121561126557600080fd5b61040582611130565b600080600080600060a0868803121561128657600080fd5b61128f86611130565b945061129d60208701611130565b93506112ab60408701611130565b92506112b960608701611130565b949793965091946080013592915050565b6000602082840312156112dc57600080fd5b5051919050565b634e487b7160e01b600052601160045260246000fd5b60008261131657634e487b7160e01b600052601260045260246000fd5b500490565b81810381811115610408576104086112e3565b60006020828403121561134057600080fd5b81518015158114610d8857600080fd5b80820180821115610408576104086112e3565b8082028115828204841417610408576104086112e3565b634e487b7160e01b600052603260045260246000fd5b6000600182016113a2576113a26112e3565b5060010190565b634e487b7160e01b600052603160045260246000fdfea264697066735822122010596512fd6d249c496d30fdea46cf8fe85a38874e9aabffc1b0f70acba957f864736f6c63430008110033",
  "linkReferences": {},
  "deployedLinkReferences": {}
}