{
  "_format": "hh-sol-artifact-1",
  "contractName": "ConnectivityTrackerHbbftMock",
  "sourceName": "contracts/mockContracts/ConnectivityTrackerHbbftMock.sol",
  "abi": [
    {
      "inputs": [
        {
          "internalType": "uint256",
          "name": "",
          "type": "uint256"
        }
      ],
      "name": "earlyEpochEnd",
      "outputs": [
        {
          "internalType": "bool",
          "name": "",
          "type": "bool"
        }
      ],
      "stateMutability": "view",
      "type": "function"
    },
    {
      "inputs": [
        {
          "internalType": "uint256",
          "name": "",
          "type": "uint256"
        }
      ],
      "name": "epochPenaltiesSent",
      "outputs": [
        {
          "internalType": "bool",
          "name": "",
          "type": "bool"
        }
      ],
      "stateMutability": "view",
      "type": "function"
    },
    {
      "inputs": [
        {
          "internalType": "uint256",
          "name": "epoch",
          "type": "uint256"
        }
      ],
      "name": "isEarlyEpochEnd",
      "outputs": [
        {
          "internalType": "bool",
          "name": "",
          "type": "bool"
        }
      ],
      "stateMutability": "view",
      "type": "function"
    },
    {
      "inputs": [
        {
          "internalType": "uint256",
          "name": "epoch",
          "type": "uint256"
        }
      ],
      "name": "isEpochPenaltiesSent",
      "outputs": [
        {
          "internalType": "bool",
          "name": "",
          "type": "bool"
        }
      ],
      "stateMutability": "view",
      "type": "function"
    },
    {
      "inputs": [
        {
          "internalType": "uint256",
          "name": "epoch",
          "type": "uint256"
        }
      ],
      "name": "penaliseFaultyValidators",
      "outputs": [],
      "stateMutability": "nonpayable",
      "type": "function"
    },
    {
      "inputs": [
        {
          "internalType": "uint256",
          "name": "epoch",
          "type": "uint256"
        },
        {
          "internalType": "bool",
          "name": "set",
          "type": "bool"
        }
      ],
      "name": "setEarlyEpochEnd",
      "outputs": [],
      "stateMutability": "nonpayable",
      "type": "function"
    },
    {
      "stateMutability": "payable",
      "type": "receive"
    }
  ],
  "bytecode": "0x6080604052348015600f57600080fd5b506102438061001f6000396000f3fe6080604052600436106100695760003560e01c80635db6b545116100435780635db6b54514610124578063727828d214610154578063a41cda361461018457600080fd5b80630be021091461007557806323decdcd146100b957806348bf1aa6146100e957600080fd5b3661007057005b600080fd5b34801561008157600080fd5b506100a56100903660046101bf565b60009081526020819052604090205460ff1690565b604051901515815260200160405180910390f35b3480156100c557600080fd5b506100a56100d43660046101bf565b60016020526000908152604090205460ff1681565b3480156100f557600080fd5b506101226101043660046101bf565b6000908152600160208190526040909120805460ff19169091179055565b005b34801561013057600080fd5b506100a561013f3660046101bf565b60006020819052908152604090205460ff1681565b34801561016057600080fd5b506100a561016f3660046101bf565b60009081526001602052604090205460ff1690565b34801561019057600080fd5b5061012261019f3660046101d8565b600091825260208290526040909120805460ff1916911515919091179055565b6000602082840312156101d157600080fd5b5035919050565b600080604083850312156101eb57600080fd5b823591506020830135801515811461020257600080fd5b80915050925092905056fea264697066735822122001456d6e3c605b6f9b922f7df477355d4420fb853d133a6159a9578f4576746d64736f6c63430008190033",
  "linkReferences": {},
  "deployedLinkReferences": {}
}