{
  "_format": "hh-sol-artifact-1",
  "contractName": "ConnectivityTrackerHbbft",
  "sourceName": "contracts/ConnectivityTrackerHbbft.sol",
  "abi": [
    {
      "inputs": [],
      "stateMutability": "nonpayable",
      "type": "constructor"
    },
    {
      "inputs": [
        {
          "internalType": "address",
          "name": "reporter",
          "type": "address"
        },
        {
          "internalType": "address",
          "name": "validator",
          "type": "address"
        }
      ],
      "name": "AlreadyReported",
      "type": "error"
    },
    {
      "inputs": [
        {
          "internalType": "address",
          "name": "reporter",
          "type": "address"
        }
      ],
      "name": "CannotReportByFlaggedValidator",
      "type": "error"
    },
    {
      "inputs": [],
      "name": "InvalidAddress",
      "type": "error"
    },
    {
      "inputs": [],
      "name": "InvalidBlock",
      "type": "error"
    },
    {
      "inputs": [],
      "name": "InvalidInitialization",
      "type": "error"
    },
    {
      "inputs": [],
      "name": "NotInitializing",
      "type": "error"
    },
    {
      "inputs": [],
      "name": "OnlyValidator",
      "type": "error"
    },
    {
      "inputs": [
        {
          "internalType": "address",
          "name": "owner",
          "type": "address"
        }
      ],
      "name": "OwnableInvalidOwner",
      "type": "error"
    },
    {
      "inputs": [
        {
          "internalType": "address",
          "name": "account",
          "type": "address"
        }
      ],
      "name": "OwnableUnauthorizedAccount",
      "type": "error"
    },
    {
      "inputs": [],
      "name": "ReportTooEarly",
      "type": "error"
    },
    {
      "inputs": [
        {
          "internalType": "address",
          "name": "reporter",
          "type": "address"
        },
        {
          "internalType": "address",
          "name": "validator",
          "type": "address"
        }
      ],
      "name": "UnknownReconnectReporter",
      "type": "error"
    },
    {
      "anonymous": false,
      "inputs": [
        {
          "indexed": false,
          "internalType": "uint64",
          "name": "version",
          "type": "uint64"
        }
      ],
      "name": "Initialized",
      "type": "event"
    },
    {
      "anonymous": false,
      "inputs": [
        {
          "indexed": true,
          "internalType": "uint256",
          "name": "epoch",
          "type": "uint256"
        },
        {
          "indexed": true,
          "internalType": "uint256",
          "name": "blockNumber",
          "type": "uint256"
        }
      ],
      "name": "NotifyEarlyEpochEnd",
      "type": "event"
    },
    {
      "anonymous": false,
      "inputs": [
        {
          "indexed": true,
          "internalType": "address",
          "name": "previousOwner",
          "type": "address"
        },
        {
          "indexed": true,
          "internalType": "address",
          "name": "newOwner",
          "type": "address"
        }
      ],
      "name": "OwnershipTransferred",
      "type": "event"
    },
    {
      "anonymous": false,
      "inputs": [
        {
          "indexed": true,
          "internalType": "address",
          "name": "reporter",
          "type": "address"
        },
        {
          "indexed": true,
          "internalType": "address",
          "name": "validator",
          "type": "address"
        },
        {
          "indexed": true,
          "internalType": "uint256",
          "name": "blockNumber",
          "type": "uint256"
        }
      ],
      "name": "ReportMissingConnectivity",
      "type": "event"
    },
    {
      "anonymous": false,
      "inputs": [
        {
          "indexed": true,
          "internalType": "address",
          "name": "reporter",
          "type": "address"
        },
        {
          "indexed": true,
          "internalType": "address",
          "name": "validator",
          "type": "address"
        },
        {
          "indexed": true,
          "internalType": "uint256",
          "name": "blockNumber",
          "type": "uint256"
        }
      ],
      "name": "ReportReconnect",
      "type": "event"
    },
    {
      "anonymous": false,
      "inputs": [
        {
          "indexed": false,
          "internalType": "uint256",
          "name": "_level",
          "type": "uint256"
        }
      ],
      "name": "SetEarlyEpochEndToleranceLevel",
      "type": "event"
    },
    {
      "anonymous": false,
      "inputs": [
        {
          "indexed": false,
          "internalType": "uint256",
          "name": "_minReportAge",
          "type": "uint256"
        }
      ],
      "name": "SetMinReportAgeBlocks",
      "type": "event"
    },
    {
      "inputs": [],
      "name": "blockRewardContract",
      "outputs": [
        {
          "internalType": "contract IBlockRewardHbbft",
          "name": "",
          "type": "address"
        }
      ],
      "stateMutability": "view",
      "type": "function"
    },
    {
      "inputs": [
        {
          "internalType": "address",
          "name": "caller",
          "type": "address"
        },
        {
          "internalType": "address",
          "name": "validator",
          "type": "address"
        },
        {
          "internalType": "uint256",
          "name": "blockNumber",
          "type": "uint256"
        },
        {
          "internalType": "bytes32",
          "name": "blockHash",
          "type": "bytes32"
        }
      ],
      "name": "checkReportMissingConnectivityCallable",
      "outputs": [],
      "stateMutability": "view",
      "type": "function"
    },
    {
      "inputs": [
        {
          "internalType": "address",
          "name": "caller",
          "type": "address"
        },
        {
          "internalType": "address",
          "name": "validator",
          "type": "address"
        },
        {
          "internalType": "uint256",
          "name": "blockNumber",
          "type": "uint256"
        },
        {
          "internalType": "bytes32",
          "name": "blockHash",
          "type": "bytes32"
        }
      ],
      "name": "checkReportReconnectCallable",
      "outputs": [],
      "stateMutability": "view",
      "type": "function"
    },
    {
      "inputs": [
        {
          "internalType": "uint256",
          "name": "epoch",
          "type": "uint256"
        }
      ],
      "name": "countFaultyValidators",
      "outputs": [
        {
          "internalType": "uint256",
          "name": "",
          "type": "uint256"
        }
      ],
      "stateMutability": "view",
      "type": "function"
    },
    {
      "inputs": [],
      "name": "currentEpoch",
      "outputs": [
        {
          "internalType": "uint256",
          "name": "",
          "type": "uint256"
        }
      ],
      "stateMutability": "view",
      "type": "function"
    },
    {
      "inputs": [],
      "name": "earlyEpochEndThreshold",
      "outputs": [
        {
          "internalType": "uint256",
          "name": "",
          "type": "uint256"
        }
      ],
      "stateMutability": "view",
      "type": "function"
    },
    {
      "inputs": [],
      "name": "earlyEpochEndToleranceLevel",
      "outputs": [
        {
          "internalType": "uint256",
          "name": "",
          "type": "uint256"
        }
      ],
      "stateMutability": "view",
      "type": "function"
    },
    {
      "inputs": [],
      "name": "getFlaggedValidators",
      "outputs": [
        {
          "internalType": "address[]",
          "name": "",
          "type": "address[]"
        }
      ],
      "stateMutability": "view",
      "type": "function"
    },
    {
      "inputs": [
        {
          "internalType": "uint256",
          "name": "epoch",
          "type": "uint256"
        },
        {
          "internalType": "address",
          "name": "validator",
          "type": "address"
        }
      ],
      "name": "getValidatorConnectivityScore",
      "outputs": [
        {
          "internalType": "uint256",
          "name": "",
          "type": "uint256"
        }
      ],
      "stateMutability": "view",
      "type": "function"
    },
    {
      "inputs": [
        {
          "internalType": "address",
          "name": "_contractOwner",
          "type": "address"
        },
        {
          "internalType": "address",
          "name": "_validatorSetContract",
          "type": "address"
        },
        {
          "internalType": "address",
          "name": "_stakingContract",
          "type": "address"
        },
        {
          "internalType": "address",
          "name": "_blockRewardContract",
          "type": "address"
        },
        {
          "internalType": "uint256",
          "name": "_minReportAgeBlocks",
          "type": "uint256"
        }
      ],
      "name": "initialize",
      "outputs": [],
      "stateMutability": "nonpayable",
      "type": "function"
    },
    {
      "inputs": [
        {
          "internalType": "uint256",
          "name": "",
          "type": "uint256"
        }
      ],
      "name": "isEarlyEpochEnd",
      "outputs": [
        {
          "internalType": "bool",
          "name": "",
          "type": "bool"
        }
      ],
      "stateMutability": "view",
      "type": "function"
    },
    {
      "inputs": [
        {
          "internalType": "uint256",
          "name": "",
          "type": "uint256"
        },
        {
          "internalType": "address",
          "name": "validator",
          "type": "address"
        },
        {
          "internalType": "address",
          "name": "reporter",
          "type": "address"
        }
      ],
      "name": "isReported",
      "outputs": [
        {
          "internalType": "bool",
          "name": "",
          "type": "bool"
        }
      ],
      "stateMutability": "view",
      "type": "function"
    },
    {
      "inputs": [],
      "name": "minReportAgeBlocks",
      "outputs": [
        {
          "internalType": "uint256",
          "name": "",
          "type": "uint256"
        }
      ],
      "stateMutability": "view",
      "type": "function"
    },
    {
      "inputs": [],
      "name": "owner",
      "outputs": [
        {
          "internalType": "address",
          "name": "",
          "type": "address"
        }
      ],
      "stateMutability": "view",
      "type": "function"
    },
    {
      "inputs": [],
      "name": "renounceOwnership",
      "outputs": [],
      "stateMutability": "nonpayable",
      "type": "function"
    },
    {
      "inputs": [
        {
          "internalType": "address",
          "name": "validator",
          "type": "address"
        },
        {
          "internalType": "uint256",
          "name": "blockNumber",
          "type": "uint256"
        },
        {
          "internalType": "bytes32",
          "name": "blockHash",
          "type": "bytes32"
        }
      ],
      "name": "reportMissingConnectivity",
      "outputs": [],
      "stateMutability": "nonpayable",
      "type": "function"
    },
    {
      "inputs": [
        {
          "internalType": "address",
          "name": "validator",
          "type": "address"
        },
        {
          "internalType": "uint256",
          "name": "blockNumber",
          "type": "uint256"
        },
        {
          "internalType": "bytes32",
          "name": "blockHash",
          "type": "bytes32"
        }
      ],
      "name": "reportReconnect",
      "outputs": [],
      "stateMutability": "nonpayable",
      "type": "function"
    },
    {
      "inputs": [
        {
          "internalType": "uint256",
          "name": "_level",
          "type": "uint256"
        }
      ],
      "name": "setEarlyEpochEndToleranceLevel",
      "outputs": [],
      "stateMutability": "nonpayable",
      "type": "function"
    },
    {
      "inputs": [
        {
          "internalType": "uint256",
          "name": "_minReportAge",
          "type": "uint256"
        }
      ],
      "name": "setMinReportAge",
      "outputs": [],
      "stateMutability": "nonpayable",
      "type": "function"
    },
    {
      "inputs": [],
      "name": "stakingContract",
      "outputs": [
        {
          "internalType": "contract IStakingHbbft",
          "name": "",
          "type": "address"
        }
      ],
      "stateMutability": "view",
      "type": "function"
    },
    {
      "inputs": [
        {
          "internalType": "address",
          "name": "newOwner",
          "type": "address"
        }
      ],
      "name": "transferOwnership",
      "outputs": [],
      "stateMutability": "nonpayable",
      "type": "function"
    },
    {
      "inputs": [],
      "name": "validatorSetContract",
      "outputs": [
        {
          "internalType": "contract IValidatorSetHbbft",
          "name": "",
          "type": "address"
        }
      ],
      "stateMutability": "view",
      "type": "function"
    }
  ],
  "bytecode": "0x6080604052348015600f57600080fd5b506016601a565b60ca565b7ff0c57e16840df040f15088dc2f81fe391c3923bec73e23a9662efc9c229c6a00805468010000000000000000900460ff161560695760405163f92ee8a960e01b815260040160405180910390fd5b80546001600160401b039081161460c75780546001600160401b0319166001600160401b0390811782556040519081527fc7f505b2f371ae2175ee4913f4499e1f2633a7b5936321eed1cdaeb6115181d29060200160405180910390a15b50565b61140d806100d96000396000f3fe608060405234801561001057600080fd5b50600436106101825760003560e01c8063a57c6153116100d8578063c24286931161008c578063ee99205c11610066578063ee99205c14610327578063f2fde38b1461033a578063f7013ef61461034d57600080fd5b8063c2428693146102ec578063dfc8bf4e146102ff578063e2ed03301461031257600080fd5b8063b2a68421116100bd578063b2a68421146102b3578063b2c32249146102c6578063bed8968c146102d957600080fd5b8063a57c615314610298578063b280c094146102a057600080fd5b806356b54bae1161013a5780637667180811610114578063766718081461024d5780638da5cb5b14610255578063911cee741461028557600080fd5b806356b54bae146102115780635cf03acb1461023c578063715018a61461024557600080fd5b80631041215e1161016b5780631041215e146101d4578063241f3913146101eb57806329cf8564146101fe57600080fd5b8063060b2849146101875780630be021091461019c575b600080fd5b61019a610195366004611128565b610360565b005b6101bf6101aa36600461116a565b60056020526000908152604090205460ff1681565b60405190151581526020015b60405180910390f35b6101dd60045481565b6040519081526020016101cb565b61019a6101f936600461116a565b6103e1565b6101dd61020c366004611183565b610435565b600254610224906001600160a01b031681565b6040516001600160a01b0390911681526020016101cb565b6101dd60035481565b61019a610469565b6101dd61047d565b7f9016d09d72d40fdae2fd8ceac6b6234c7706214fd39c1cd1e609a0528c199300546001600160a01b0316610224565b61019a6102933660046111af565b6104f0565b6101dd6105ad565b6101dd6102ae36600461116a565b610652565b61019a6102c13660046111af565b61065d565b61019a6102d436600461116a565b610720565b61019a6102e7366004611128565b61075d565b6101bf6102fa3660046111e2565b6107d1565b600054610224906001600160a01b031681565b61031a610817565b6040516101cb919061121e565b600154610224906001600160a01b031681565b61019a61034836600461126b565b61083b565b61019a61035b366004611286565b610879565b600061036a61047d565b905061037881868585610a52565b60008181526007602090815260408083206001600160a01b038816845290915290206103a49086610be9565b156103da57604051632c91ad2b60e11b81526001600160a01b038087166004830152851660248201526044015b60405180910390fd5b5050505050565b6103e9610c0b565b60048190556103fe6103f961047d565b610c66565b6040518181527fac3628398dbf48961399872c95a3a6cad2988babf49dcfd40dab6fbef84b4970906020015b60405180910390a150565b60008281526007602090815260408083206001600160a01b0385168452909152812061046090610d2f565b90505b92915050565b610471610c0b565b61047b6000610d39565b565b60015460408051630f29818d60e31b815290516000926001600160a01b03169163794c0c689160048083019260209291908290030181865afa1580156104c7573d6000803e3d6000fd5b505050506040513d601f19601f820116820180604052508101906104eb91906112e2565b905090565b6104fc33848484610360565b600061050661047d565b905060006105148286610435565b9050806000036105385760008281526006602052604090206105369086610db7565b505b60008281526007602090815260408083206001600160a01b038916845290915290206105649033610db7565b5061056e82610c66565b60405184906001600160a01b0387169033907fe84fbfa7fbefb93358b3d7d314bc48b17f721c435443246047f93bbc7b8d0eef90600090a45050505050565b6000805460408051632eafe5e760e11b8152905183926001600160a01b031691635d5fcbce9160048083019260209291908290030181865afa1580156105f7573d6000803e3d6000fd5b505050506040513d601f19601f8201168201806040525081019061061b91906112e2565b9050600061062a600383611311565b9050600454811161063e5760009250505090565b60045461064b9082611333565b9250505090565b600061046382610dcc565b6106693384848461075d565b600061067361047d565b905060006106818286610435565b905080156106d85760008281526007602090815260408083206001600160a01b038916845290915290206106b59033610ede565b50806001036106d85760008281526006602052604090206106d69086610ede565b505b6106e182610c66565b60405184906001600160a01b0387169033907f392643b1c214ef857ada7fce1cd87c13940ad6883df76dba4808672b7d69c81590600090a45050505050565b610728610c0b565b60038190556040518181527f2270122bbf8298f106abbe21d0488dbabb7f01c27b5872446452ae4c3a9d972b9060200161042a565b600061076761047d565b905061077581868585610a52565b60008181526007602090815260408083206001600160a01b038816845290915290206107a19086610be9565b6103da576040516315af88af60e31b81526001600160a01b038087166004830152851660248201526044016103d1565b600061080f82600760006107e361047d565b8152602080820192909252604090810160009081206001600160a01b0389168252909252902090610be9565b949350505050565b60606104eb6006600061082861047d565b8152602001908152602001600020610ef3565b610843610c0b565b6001600160a01b03811661086d57604051631e4fbdf760e01b8152600060048201526024016103d1565b61087681610d39565b50565b7ff0c57e16840df040f15088dc2f81fe391c3923bec73e23a9662efc9c229c6a00805468010000000000000000810460ff16159067ffffffffffffffff166000811580156108c45750825b905060008267ffffffffffffffff1660011480156108e15750303b155b9050811580156108ef575080155b1561090d5760405163f92ee8a960e01b815260040160405180910390fd5b845467ffffffffffffffff19166001178555831561094157845468ff00000000000000001916680100000000000000001785555b6001600160a01b038a16158061095e57506001600160a01b038916155b8061097057506001600160a01b038816155b8061098257506001600160a01b038716155b156109a05760405163e6c4247b60e01b815260040160405180910390fd5b6109a98a610f07565b600080546001600160a01b03808c1673ffffffffffffffffffffffffffffffffffffffff1992831617909255600180548b841690831617905560028054928a169290911691909117815560038790556004558315610a4657845468ff000000000000000019168555604051600181527fc7f505b2f371ae2175ee4913f4499e1f2633a7b5936321eed1cdaeb6115181d29060200160405180910390a15b50505050505050505050565b60005460405163facd743b60e01b81526001600160a01b0385811660048301529091169063facd743b90602401602060405180830381865afa158015610a9c573d6000803e3d6000fd5b505050506040513d601f19601f82011682018060405250810190610ac09190611346565b610add57604051631aa1e81560e01b815260040160405180910390fd5b43821180610aec575080824014155b15610b0a5760405163be5a36cf60e01b815260040160405180910390fd5b6000848152600660205260409020610b229084610be9565b15610b4b5760405163b3e1875160e01b81526001600160a01b03841660048201526024016103d1565b60015460408051633834f3a360e11b815290516000926001600160a01b031691637069e7469160048083019260209291908290030181865afa158015610b95573d6000803e3d6000fd5b505050506040513d601f19601f82011682018060405250810190610bb991906112e2565b905060035481610bc99190611368565b4310156103da576040516341c86e2f60e01b815260040160405180910390fd5b6001600160a01b03811660009081526001830160205260408120541515610460565b33610c3d7f9016d09d72d40fdae2fd8ceac6b6234c7706214fd39c1cd1e609a0528c199300546001600160a01b031690565b6001600160a01b03161461047b5760405163118cdaa760e01b81523360048201526024016103d1565b6000610c706105ad565b90506000610c7d83610dcc565b905081811015610c8c57505050565b600083815260056020526040808220805460ff191660011790556002548151632cb1043960e11b815291516001600160a01b03909116926359620872926004808201939182900301818387803b158015610ce557600080fd5b505af1158015610cf9573d6000803e3d6000fd5b50506040514392508591507f56d37189df10957afc08d69b74c305bd8e82d9f3a6af80cc3a989a5c082b31ea90600090a3505050565b6000610463825490565b7f9016d09d72d40fdae2fd8ceac6b6234c7706214fd39c1cd1e609a0528c199300805473ffffffffffffffffffffffffffffffffffffffff1981166001600160a01b03848116918217845560405192169182907f8be0079c531659141344cd1fd0a4f28419497f9722a3daafe3b4186f6b6457e090600090a3505050565b6000610460836001600160a01b038416610f18565b600080610dd7610817565b90506000815160008054906101000a90046001600160a01b03166001600160a01b0316635d5fcbce6040518163ffffffff1660e01b8152600401602060405180830381865afa158015610e2e573d6000803e3d6000fd5b505050506040513d601f19601f82011682018060405250810190610e5291906112e2565b610e5c9190611333565b905060006003610e6d83600261137b565b610e779190611311565b610e82906001611368565b90506000805b8451811015610ed4576000858281518110610ea557610ea5611392565b6020026020010151905083610eba8983610435565b10610ecb57610ec8836113a8565b92505b50600101610e88565b5095945050505050565b6000610460836001600160a01b038416610f67565b60606000610f008361105a565b9392505050565b610f0f6110b6565b61087681611104565b6000818152600183016020526040812054610f5f57508154600181810184556000848152602080822090930184905584548482528286019093526040902091909155610463565b506000610463565b60008181526001830160205260408120548015611050576000610f8b600183611333565b8554909150600090610f9f90600190611333565b9050808214611004576000866000018281548110610fbf57610fbf611392565b9060005260206000200154905080876000018481548110610fe257610fe2611392565b6000918252602080832090910192909255918252600188019052604090208390555b8554869080611015576110156113c1565b600190038181906000526020600020016000905590558560010160008681526020019081526020016000206000905560019350505050610463565b6000915050610463565b6060816000018054806020026020016040519081016040528092919081815260200182805480156110aa57602002820191906000526020600020905b815481526020019060010190808311611096575b50505050509050919050565b7ff0c57e16840df040f15088dc2f81fe391c3923bec73e23a9662efc9c229c6a005468010000000000000000900460ff1661047b57604051631afcd79f60e31b815260040160405180910390fd5b6108436110b6565b80356001600160a01b038116811461112357600080fd5b919050565b6000806000806080858703121561113e57600080fd5b6111478561110c565b93506111556020860161110c565b93969395505050506040820135916060013590565b60006020828403121561117c57600080fd5b5035919050565b6000806040838503121561119657600080fd5b823591506111a66020840161110c565b90509250929050565b6000806000606084860312156111c457600080fd5b6111cd8461110c565b95602085013595506040909401359392505050565b6000806000606084860312156111f757600080fd5b833592506112076020850161110c565b91506112156040850161110c565b90509250925092565b6020808252825182820181905260009190848201906040850190845b8181101561125f5783516001600160a01b03168352928401929184019160010161123a565b50909695505050505050565b60006020828403121561127d57600080fd5b6104608261110c565b600080600080600060a0868803121561129e57600080fd5b6112a78661110c565b94506112b56020870161110c565b93506112c36040870161110c565b92506112d16060870161110c565b949793965091946080013592915050565b6000602082840312156112f457600080fd5b5051919050565b634e487b7160e01b600052601160045260246000fd5b60008261132e57634e487b7160e01b600052601260045260246000fd5b500490565b81810381811115610463576104636112fb565b60006020828403121561135857600080fd5b81518015158114610f0057600080fd5b80820180821115610463576104636112fb565b8082028115828204841417610463576104636112fb565b634e487b7160e01b600052603260045260246000fd5b6000600182016113ba576113ba6112fb565b5060010190565b634e487b7160e01b600052603160045260246000fdfea2646970667358221220bd792a4680e8f38c5f433fa725c2cb9a2f5d4cfc15b1a4753f129d15c998772464736f6c63430008190033",
  "linkReferences": {},
  "deployedLinkReferences": {}
}