{
  "_format": "hh-sol-artifact-1",
  "contractName": "DaoMock",
  "sourceName": "contracts/mockContracts/DaoMock.sol",
  "abi": [
    {
      "inputs": [],
      "name": "SwitchPhaseReverted",
      "type": "error"
    },
    {
      "inputs": [],
      "name": "phaseCounter",
      "outputs": [
        {
          "internalType": "uint256",
          "name": "",
          "type": "uint256"
        }
      ],
      "stateMutability": "view",
      "type": "function"
    },
    {
      "inputs": [],
      "name": "switchPhase",
      "outputs": [],
      "stateMutability": "nonpayable",
      "type": "function"
    },
    {
      "stateMutability": "payable",
      "type": "receive"
    }
  ],
  "bytecode": "0x6080604052348015600f57600080fd5b5061014b8061001f6000396000f3fe60806040526004361061002d5760003560e01c8063ab0eb62d14610039578063d51064901461005057610034565b3661003457005b600080fd5b34801561004557600080fd5b5061004e61007b565b005b34801561005c57600080fd5b506100656100d3565b60405161007291906100d9565b60405180910390f35b600160008082825461008d91906100ea565b92505081905550600460005411156100d1576040517f0f12ed8a00000000000000000000000000000000000000000000000000000000815260040160405180910390fd5b565b60005481565b600060208201905082825292915050565b600082820190508082111561010f57634e487b7160e01b600052601160045260246000fd5b9291505056fea264697066735822122074a1dc1493269585e1883e6fb19ac8c278d087cb36bb892ea3bd911c027f3ccd64736f6c63430008190033",
  "linkReferences": {},
  "deployedLinkReferences": {}
}