{
  "_format": "hh-sol-artifact-1",
  "contractName": "DaoMock",
  "sourceName": "contracts/mockContracts/DaoMock.sol",
  "abi": [
    {
      "inputs": [],
      "name": "SwitchPhaseReverted",
      "type": "error"
    },
    {
      "inputs": [],
      "name": "phaseCounter",
      "outputs": [
        {
          "internalType": "uint256",
          "name": "",
          "type": "uint256"
        }
      ],
      "stateMutability": "view",
      "type": "function"
    },
    {
      "inputs": [],
      "name": "switchPhase",
      "outputs": [],
      "stateMutability": "nonpayable",
      "type": "function"
    },
    {
      "stateMutability": "payable",
      "type": "receive"
    }
  ],
  "bytecode": "0x6080604052348015600f57600080fd5b506101058061001f6000396000f3fe608060405260043610602a5760003560e01c8063ab0eb62d146035578063d510649014604957600080fd5b36603057005b600080fd5b348015604057600080fd5b506047606f565b005b348015605457600080fd5b50605d60005481565b60405190815260200160405180910390f35b6001600080828254607f919060a9565b90915550506000546004101560a75760405163078976c560e11b815260040160405180910390fd5b565b8082018082111560c957634e487b7160e01b600052601160045260246000fd5b9291505056fea2646970667358221220776de128f2b426d1ab9edd3ddd70e2c93545489d27f6a45a75664f77a621788864736f6c63430008190033",
  "linkReferences": {},
  "deployedLinkReferences": {}
}