{
  "_format": "hh-sol-artifact-1",
  "contractName": "DiamondDao",
  "sourceName": "contracts/DiamondDao.sol",
  "abi": [
    {
      "inputs": [],
      "stateMutability": "nonpayable",
      "type": "constructor"
    },
    {
      "inputs": [
        {
          "internalType": "bytes",
          "name": "funcSelector",
          "type": "bytes"
        },
        {
          "internalType": "address",
          "name": "targetContract",
          "type": "address"
        }
      ],
      "name": "ContractCallFailed",
      "type": "error"
    },
    {
      "inputs": [],
      "name": "FailedInnerCall",
      "type": "error"
    },
    {
      "inputs": [
        {
          "internalType": "bytes4",
          "name": "funcSelector",
          "type": "bytes4"
        },
        {
          "internalType": "address",
          "name": "targetContract",
          "type": "address"
        }
      ],
      "name": "FunctionUpgradeNotAllowed",
      "type": "error"
    },
    {
      "inputs": [],
      "name": "GetterCallFailed",
      "type": "error"
    },
    {
      "inputs": [],
      "name": "InsufficientFunds",
      "type": "error"
    },
    {
      "inputs": [],
      "name": "InvalidArgument",
      "type": "error"
    },
    {
      "inputs": [],
      "name": "InvalidInitialization",
      "type": "error"
    },
    {
      "inputs": [],
      "name": "InvalidStartTimestamp",
      "type": "error"
    },
    {
      "inputs": [
        {
          "internalType": "uint256",
          "name": "currentVal",
          "type": "uint256"
        },
        {
          "internalType": "uint256",
          "name": "newVal",
          "type": "uint256"
        }
      ],
      "name": "InvalidUpgradeValue",
      "type": "error"
    },
    {
      "inputs": [],
      "name": "NewProposalsLimitExceeded",
      "type": "error"
    },
    {
      "inputs": [
        {
          "internalType": "uint256",
          "name": "_newVal",
          "type": "uint256"
        }
      ],
      "name": "NewValueOutOfRange",
      "type": "error"
    },
    {
      "inputs": [],
      "name": "NotInitializing",
      "type": "error"
    },
    {
      "inputs": [
        {
          "internalType": "uint256",
          "name": "proposalId",
          "type": "uint256"
        },
        {
          "internalType": "address",
          "name": "caller",
          "type": "address"
        }
      ],
      "name": "NotProposer",
      "type": "error"
    },
    {
      "inputs": [],
      "name": "OnlyGovernance",
      "type": "error"
    },
    {
      "inputs": [],
      "name": "OnlyProposer",
      "type": "error"
    },
    {
      "inputs": [
        {
          "internalType": "address",
          "name": "caller",
          "type": "address"
        }
      ],
      "name": "OnlyValidators",
      "type": "error"
    },
    {
      "inputs": [],
      "name": "OutOfAllowedRange",
      "type": "error"
    },
    {
      "inputs": [
        {
          "internalType": "uint256",
          "name": "proposalId",
          "type": "uint256"
        }
      ],
      "name": "OutsideExecutionWindow",
      "type": "error"
    },
    {
      "inputs": [
        {
          "internalType": "address",
          "name": "owner",
          "type": "address"
        }
      ],
      "name": "OwnableInvalidOwner",
      "type": "error"
    },
    {
      "inputs": [
        {
          "internalType": "address",
          "name": "account",
          "type": "address"
        }
      ],
      "name": "OwnableUnauthorizedAccount",
      "type": "error"
    },
    {
      "inputs": [
        {
          "internalType": "uint256",
          "name": "proposalId",
          "type": "uint256"
        }
      ],
      "name": "ProposalAlreadyExist",
      "type": "error"
    },
    {
      "inputs": [
        {
          "internalType": "uint256",
          "name": "proposalId",
          "type": "uint256"
        }
      ],
      "name": "ProposalNotExist",
      "type": "error"
    },
    {
      "inputs": [],
      "name": "ReentrancyGuardReentrantCall",
      "type": "error"
    },
    {
      "inputs": [
        {
          "internalType": "address",
          "name": "from",
          "type": "address"
        },
        {
          "internalType": "address",
          "name": "to",
          "type": "address"
        },
        {
          "internalType": "uint256",
          "name": "amount",
          "type": "uint256"
        }
      ],
      "name": "TransferFailed",
      "type": "error"
    },
    {
      "inputs": [
        {
          "internalType": "enum Phase",
          "name": "phase",
          "type": "uint8"
        }
      ],
      "name": "UnavailableInCurrentPhase",
      "type": "error"
    },
    {
      "inputs": [
        {
          "internalType": "uint256",
          "name": "proposalId",
          "type": "uint256"
        },
        {
          "internalType": "enum ProposalState",
          "name": "state",
          "type": "uint8"
        }
      ],
      "name": "UnexpectedProposalState",
      "type": "error"
    },
    {
      "inputs": [],
      "name": "UnfinalizedProposalsExist",
      "type": "error"
    },
    {
      "anonymous": false,
      "inputs": [
        {
          "indexed": false,
          "internalType": "uint64",
          "name": "version",
          "type": "uint64"
        }
      ],
      "name": "Initialized",
      "type": "event"
    },
    {
      "anonymous": false,
      "inputs": [
        {
          "indexed": true,
          "internalType": "address",
          "name": "previousOwner",
          "type": "address"
        },
        {
          "indexed": true,
          "internalType": "address",
          "name": "newOwner",
          "type": "address"
        }
      ],
      "name": "OwnershipTransferred",
      "type": "event"
    },
    {
      "anonymous": false,
      "inputs": [
        {
          "indexed": true,
          "internalType": "address",
          "name": "proposer",
          "type": "address"
        },
        {
          "indexed": true,
          "internalType": "uint256",
          "name": "proposalId",
          "type": "uint256"
        },
        {
          "indexed": false,
          "internalType": "string",
          "name": "reason",
          "type": "string"
        }
      ],
      "name": "ProposalCanceled",
      "type": "event"
    },
    {
      "anonymous": false,
      "inputs": [
        {
          "indexed": true,
          "internalType": "address",
          "name": "proposer",
          "type": "address"
        },
        {
          "indexed": true,
          "internalType": "uint256",
          "name": "proposalId",
          "type": "uint256"
        },
        {
          "indexed": false,
          "internalType": "address[]",
          "name": "targets",
          "type": "address[]"
        },
        {
          "indexed": false,
          "internalType": "uint256[]",
          "name": "values",
          "type": "uint256[]"
        },
        {
          "indexed": false,
          "internalType": "bytes[]",
          "name": "calldatas",
          "type": "bytes[]"
        },
        {
          "indexed": false,
          "internalType": "string",
          "name": "title",
          "type": "string"
        },
        {
          "indexed": false,
          "internalType": "string",
          "name": "description",
          "type": "string"
        },
        {
          "indexed": false,
          "internalType": "string",
          "name": "discussionUrl",
          "type": "string"
        }
      ],
      "name": "ProposalCreated",
      "type": "event"
    },
    {
      "anonymous": false,
      "inputs": [
        {
          "indexed": true,
          "internalType": "address",
          "name": "caller",
          "type": "address"
        },
        {
          "indexed": true,
          "internalType": "uint256",
          "name": "proposalId",
          "type": "uint256"
        }
      ],
      "name": "ProposalExecuted",
      "type": "event"
    },
    {
      "anonymous": false,
      "inputs": [
        {
          "indexed": false,
          "internalType": "string",
          "name": "funcSelector",
          "type": "string"
        }
      ],
      "name": "RemoveChangeAbleParameter",
      "type": "event"
    },
    {
      "anonymous": false,
      "inputs": [
        {
          "indexed": false,
          "internalType": "string",
          "name": "setter",
          "type": "string"
        },
        {
          "indexed": false,
          "internalType": "string",
          "name": "getter",
          "type": "string"
        },
        {
          "indexed": false,
          "internalType": "uint256[]",
          "name": "params",
          "type": "uint256[]"
        }
      ],
      "name": "SetChangeAbleParameter",
      "type": "event"
    },
    {
      "anonymous": false,
      "inputs": [
        {
          "indexed": false,
          "internalType": "bool",
          "name": "allowed",
          "type": "bool"
        },
        {
          "indexed": false,
          "internalType": "string",
          "name": "setter",
          "type": "string"
        },
        {
          "indexed": false,
          "internalType": "string",
          "name": "getter",
          "type": "string"
        },
        {
          "indexed": false,
          "internalType": "uint256[]",
          "name": "params",
          "type": "uint256[]"
        }
      ],
      "name": "SetChangeAbleParameters",
      "type": "event"
    },
    {
      "anonymous": false,
      "inputs": [
        {
          "indexed": false,
          "internalType": "uint256",
          "name": "fee",
          "type": "uint256"
        }
      ],
      "name": "SetCreateProposalFee",
      "type": "event"
    },
    {
      "anonymous": false,
      "inputs": [
        {
          "indexed": false,
          "internalType": "address",
          "name": "contractAddress",
          "type": "address"
        },
        {
          "indexed": false,
          "internalType": "bool",
          "name": "isCore",
          "type": "bool"
        }
      ],
      "name": "SetIsCoreContract",
      "type": "event"
    },
    {
      "anonymous": false,
      "inputs": [
        {
          "indexed": true,
          "internalType": "address",
          "name": "voter",
          "type": "address"
        },
        {
          "indexed": true,
          "internalType": "uint256",
          "name": "proposalId",
          "type": "uint256"
        },
        {
          "indexed": false,
          "internalType": "enum Vote",
          "name": "vote",
          "type": "uint8"
        }
      ],
      "name": "SubmitVote",
      "type": "event"
    },
    {
      "anonymous": false,
      "inputs": [
        {
          "indexed": true,
          "internalType": "address",
          "name": "voter",
          "type": "address"
        },
        {
          "indexed": true,
          "internalType": "uint256",
          "name": "proposalId",
          "type": "uint256"
        },
        {
          "indexed": false,
          "internalType": "enum Vote",
          "name": "vote",
          "type": "uint8"
        },
        {
          "indexed": false,
          "internalType": "string",
          "name": "reason",
          "type": "string"
        }
      ],
      "name": "SubmitVoteWithReason",
      "type": "event"
    },
    {
      "anonymous": false,
      "inputs": [
        {
          "indexed": false,
          "internalType": "enum Phase",
          "name": "phase",
          "type": "uint8"
        },
        {
          "indexed": false,
          "internalType": "uint256",
          "name": "start",
          "type": "uint256"
        },
        {
          "indexed": false,
          "internalType": "uint256",
          "name": "end",
          "type": "uint256"
        }
      ],
      "name": "SwitchDaoPhase",
      "type": "event"
    },
    {
      "anonymous": false,
      "inputs": [
        {
          "indexed": true,
          "internalType": "address",
          "name": "caller",
          "type": "address"
        },
        {
          "indexed": true,
          "internalType": "uint256",
          "name": "proposalId",
          "type": "uint256"
        },
        {
          "indexed": false,
          "internalType": "bool",
          "name": "accepted",
          "type": "bool"
        }
      ],
      "name": "VotingFinalized",
      "type": "event"
    },
    {
      "inputs": [],
      "name": "DAO_PHASE_DURATION",
      "outputs": [
        {
          "internalType": "uint64",
          "name": "",
          "type": "uint64"
        }
      ],
      "stateMutability": "view",
      "type": "function"
    },
    {
      "inputs": [],
      "name": "MAX_NEW_PROPOSALS",
      "outputs": [
        {
          "internalType": "uint256",
          "name": "",
          "type": "uint256"
        }
      ],
      "stateMutability": "view",
      "type": "function"
    },
    {
      "inputs": [
        {
          "internalType": "bytes4",
          "name": "",
          "type": "bytes4"
        }
      ],
      "name": "allowedParameterRange",
      "outputs": [
        {
          "internalType": "bytes4",
          "name": "getter",
          "type": "bytes4"
        }
      ],
      "stateMutability": "view",
      "type": "function"
    },
    {
      "inputs": [
        {
          "internalType": "uint256",
          "name": "proposalId",
          "type": "uint256"
        },
        {
          "internalType": "string",
          "name": "reason",
          "type": "string"
        }
      ],
      "name": "cancel",
      "outputs": [],
      "stateMutability": "nonpayable",
      "type": "function"
    },
    {
      "inputs": [
        {
          "internalType": "uint256",
          "name": "proposalId",
          "type": "uint256"
        }
      ],
      "name": "countVotes",
      "outputs": [
        {
          "components": [
            {
              "internalType": "uint64",
              "name": "countYes",
              "type": "uint64"
            },
            {
              "internalType": "uint64",
              "name": "countNo",
              "type": "uint64"
            },
            {
              "internalType": "uint256",
              "name": "stakeYes",
              "type": "uint256"
            },
            {
              "internalType": "uint256",
              "name": "stakeNo",
              "type": "uint256"
            }
          ],
          "internalType": "struct VotingResult",
          "name": "",
          "type": "tuple"
        }
      ],
      "stateMutability": "view",
      "type": "function"
    },
    {
      "inputs": [],
      "name": "createProposalFee",
      "outputs": [
        {
          "internalType": "uint256",
          "name": "",
          "type": "uint256"
        }
      ],
      "stateMutability": "view",
      "type": "function"
    },
    {
      "inputs": [
        {
          "internalType": "uint256",
          "name": "",
          "type": "uint256"
        }
      ],
      "name": "currentPhaseProposals",
      "outputs": [
        {
          "internalType": "uint256",
          "name": "",
          "type": "uint256"
        }
      ],
      "stateMutability": "view",
      "type": "function"
    },
    {
      "inputs": [
        {
          "internalType": "uint256",
          "name": "",
          "type": "uint256"
        },
        {
          "internalType": "address",
          "name": "",
          "type": "address"
        }
      ],
      "name": "daoEpochStakeSnapshot",
      "outputs": [
        {
          "internalType": "uint256",
          "name": "",
          "type": "uint256"
        }
      ],
      "stateMutability": "view",
      "type": "function"
    },
    {
      "inputs": [],
      "name": "daoPhase",
      "outputs": [
        {
          "internalType": "uint64",
          "name": "start",
          "type": "uint64"
        },
        {
          "internalType": "uint64",
          "name": "end",
          "type": "uint64"
        },
        {
          "internalType": "uint64",
          "name": "daoEpoch",
          "type": "uint64"
        },
        {
          "internalType": "enum Phase",
          "name": "phase",
          "type": "uint8"
        }
      ],
      "stateMutability": "view",
      "type": "function"
    },
    {
      "inputs": [],
      "name": "daoPhaseCount",
      "outputs": [
        {
          "internalType": "uint256",
          "name": "",
          "type": "uint256"
        }
      ],
      "stateMutability": "view",
      "type": "function"
    },
    {
      "inputs": [
        {
          "internalType": "uint256",
          "name": "proposalId",
          "type": "uint256"
        }
      ],
      "name": "execute",
      "outputs": [],
      "stateMutability": "nonpayable",
      "type": "function"
    },
    {
      "inputs": [
        {
          "internalType": "uint256",
          "name": "proposalId",
          "type": "uint256"
        }
      ],
      "name": "finalize",
      "outputs": [],
      "stateMutability": "nonpayable",
      "type": "function"
    },
    {
      "inputs": [
        {
          "internalType": "string",
          "name": "_selector",
          "type": "string"
        }
      ],
      "name": "getAllowedParamsRange",
      "outputs": [
        {
          "components": [
            {
              "internalType": "bytes4",
              "name": "getter",
              "type": "bytes4"
            },
            {
              "internalType": "uint256[]",
              "name": "range",
              "type": "uint256[]"
            }
          ],
          "internalType": "struct ValueGuards.ParameterRange",
          "name": "",
          "type": "tuple"
        }
      ],
      "stateMutability": "view",
      "type": "function"
    },
    {
      "inputs": [],
      "name": "getCurrentPhaseProposals",
      "outputs": [
        {
          "internalType": "uint256[]",
          "name": "",
          "type": "uint256[]"
        }
      ],
      "stateMutability": "view",
      "type": "function"
    },
    {
      "inputs": [
        {
          "internalType": "uint256",
          "name": "proposalId",
          "type": "uint256"
        }
      ],
      "name": "getProposal",
      "outputs": [
        {
          "components": [
            {
              "internalType": "address",
              "name": "proposer",
              "type": "address"
            },
            {
              "internalType": "uint64",
              "name": "votingDaoEpoch",
              "type": "uint64"
            },
            {
              "internalType": "enum ProposalState",
              "name": "state",
              "type": "uint8"
            },
            {
              "internalType": "address[]",
              "name": "targets",
              "type": "address[]"
            },
            {
              "internalType": "uint256[]",
              "name": "values",
              "type": "uint256[]"
            },
            {
              "internalType": "bytes[]",
              "name": "calldatas",
              "type": "bytes[]"
            },
            {
              "internalType": "string",
              "name": "title",
              "type": "string"
            },
            {
              "internalType": "string",
              "name": "description",
              "type": "string"
            },
            {
              "internalType": "string",
              "name": "discussionUrl",
              "type": "string"
            },
            {
              "internalType": "uint256",
              "name": "daoPhaseCount",
              "type": "uint256"
            },
            {
              "internalType": "enum ProposalType",
              "name": "proposalType",
              "type": "uint8"
            }
          ],
          "internalType": "struct Proposal",
          "name": "",
          "type": "tuple"
        }
      ],
      "stateMutability": "view",
      "type": "function"
    },
    {
      "inputs": [
        {
          "internalType": "uint256",
          "name": "proposalId",
          "type": "uint256"
        }
      ],
      "name": "getProposalVoters",
      "outputs": [
        {
          "internalType": "address[]",
          "name": "",
          "type": "address[]"
        }
      ],
      "stateMutability": "view",
      "type": "function"
    },
    {
      "inputs": [
        {
          "internalType": "uint256",
          "name": "proposalId",
          "type": "uint256"
        }
      ],
      "name": "getProposalVotersCount",
      "outputs": [
        {
          "internalType": "uint256",
          "name": "",
          "type": "uint256"
        }
      ],
      "stateMutability": "view",
      "type": "function"
    },
    {
      "inputs": [],
      "name": "governancePot",
      "outputs": [
        {
          "internalType": "uint256",
          "name": "",
          "type": "uint256"
        }
      ],
      "stateMutability": "view",
      "type": "function"
    },
    {
      "inputs": [
        {
          "internalType": "address[]",
          "name": "targets",
          "type": "address[]"
        },
        {
          "internalType": "uint256[]",
          "name": "values",
          "type": "uint256[]"
        },
        {
          "internalType": "bytes[]",
          "name": "calldatas",
          "type": "bytes[]"
        },
        {
          "internalType": "string",
          "name": "description",
          "type": "string"
        }
      ],
      "name": "hashProposal",
      "outputs": [
        {
          "internalType": "uint256",
          "name": "",
          "type": "uint256"
        }
      ],
      "stateMutability": "pure",
      "type": "function"
    },
    {
      "inputs": [
        {
          "internalType": "string",
          "name": "setter",
          "type": "string"
        },
        {
          "internalType": "string",
          "name": "getter",
          "type": "string"
        },
        {
          "internalType": "uint256[]",
          "name": "params",
          "type": "uint256[]"
        }
      ],
      "name": "initAllowedChangeableParameter",
      "outputs": [],
      "stateMutability": "nonpayable",
      "type": "function"
    },
    {
      "inputs": [
        {
          "internalType": "address",
          "name": "_validatorSet",
          "type": "address"
        },
        {
          "internalType": "address",
          "name": "_stakingHbbft",
          "type": "address"
        },
        {
          "internalType": "address",
          "name": "_reinsertPot",
          "type": "address"
        },
        {
          "internalType": "uint256",
          "name": "_createProposalFee",
          "type": "uint256"
        },
        {
          "internalType": "uint64",
          "name": "_startTimestamp",
          "type": "uint64"
        }
      ],
      "name": "initialize",
      "outputs": [],
      "stateMutability": "nonpayable",
      "type": "function"
    },
    {
      "inputs": [
        {
          "internalType": "address",
          "name": "",
          "type": "address"
        }
      ],
      "name": "isCoreContract",
      "outputs": [
        {
          "internalType": "bool",
          "name": "",
          "type": "bool"
        }
      ],
      "stateMutability": "view",
      "type": "function"
    },
    {
      "inputs": [
        {
          "internalType": "bytes4",
          "name": "funcSelector",
          "type": "bytes4"
        },
        {
          "internalType": "uint256",
          "name": "newVal",
          "type": "uint256"
        }
      ],
      "name": "isWithinAllowedRange",
      "outputs": [
        {
          "internalType": "bool",
          "name": "",
          "type": "bool"
        }
      ],
      "stateMutability": "view",
      "type": "function"
    },
    {
      "inputs": [],
      "name": "lastDaoPhaseCount",
      "outputs": [
        {
          "internalType": "uint256",
          "name": "",
          "type": "uint256"
        }
      ],
      "stateMutability": "view",
      "type": "function"
    },
    {
      "inputs": [],
      "name": "owner",
      "outputs": [
        {
          "internalType": "address",
          "name": "",
          "type": "address"
        }
      ],
      "stateMutability": "view",
      "type": "function"
    },
    {
      "inputs": [
        {
          "internalType": "uint256",
          "name": "proposalId",
          "type": "uint256"
        }
      ],
      "name": "proposalExists",
      "outputs": [
        {
          "internalType": "bool",
          "name": "",
          "type": "bool"
        }
      ],
      "stateMutability": "view",
      "type": "function"
    },
    {
      "inputs": [
        {
          "internalType": "uint256",
          "name": "",
          "type": "uint256"
        }
      ],
      "name": "proposals",
      "outputs": [
        {
          "internalType": "address",
          "name": "proposer",
          "type": "address"
        },
        {
          "internalType": "uint64",
          "name": "votingDaoEpoch",
          "type": "uint64"
        },
        {
          "internalType": "enum ProposalState",
          "name": "state",
          "type": "uint8"
        },
        {
          "internalType": "string",
          "name": "title",
          "type": "string"
        },
        {
          "internalType": "string",
          "name": "description",
          "type": "string"
        },
        {
          "internalType": "string",
          "name": "discussionUrl",
          "type": "string"
        },
        {
          "internalType": "uint256",
          "name": "daoPhaseCount",
          "type": "uint256"
        },
        {
          "internalType": "enum ProposalType",
          "name": "proposalType",
          "type": "uint8"
        }
      ],
      "stateMutability": "view",
      "type": "function"
    },
    {
      "inputs": [
        {
          "internalType": "address[]",
          "name": "targets",
          "type": "address[]"
        },
        {
          "internalType": "uint256[]",
          "name": "values",
          "type": "uint256[]"
        },
        {
          "internalType": "bytes[]",
          "name": "calldatas",
          "type": "bytes[]"
        },
        {
          "internalType": "string",
          "name": "title",
          "type": "string"
        },
        {
          "internalType": "string",
          "name": "description",
          "type": "string"
        },
        {
          "internalType": "string",
          "name": "discussionUrl",
          "type": "string"
        }
      ],
      "name": "propose",
      "outputs": [],
      "stateMutability": "payable",
      "type": "function"
    },
    {
      "inputs": [
        {
          "internalType": "enum ProposalType",
          "name": "_type",
          "type": "uint8"
        },
        {
          "components": [
            {
              "internalType": "uint64",
              "name": "countYes",
              "type": "uint64"
            },
            {
              "internalType": "uint64",
              "name": "countNo",
              "type": "uint64"
            },
            {
              "internalType": "uint256",
              "name": "stakeYes",
              "type": "uint256"
            },
            {
              "internalType": "uint256",
              "name": "stakeNo",
              "type": "uint256"
            }
          ],
          "internalType": "struct VotingResult",
          "name": "result",
          "type": "tuple"
        }
      ],
      "name": "quorumReached",
      "outputs": [
        {
          "internalType": "bool",
          "name": "",
          "type": "bool"
        }
      ],
      "stateMutability": "view",
      "type": "function"
    },
    {
      "inputs": [],
      "name": "reinsertPot",
      "outputs": [
        {
          "internalType": "address",
          "name": "",
          "type": "address"
        }
      ],
      "stateMutability": "view",
      "type": "function"
    },
    {
      "inputs": [
        {
          "internalType": "string",
          "name": "funcSelector",
          "type": "string"
        }
      ],
      "name": "removeAllowedChangeableParameter",
      "outputs": [],
      "stateMutability": "nonpayable",
      "type": "function"
    },
    {
      "inputs": [],
      "name": "renounceOwnership",
      "outputs": [],
      "stateMutability": "nonpayable",
      "type": "function"
    },
    {
      "inputs": [
        {
          "internalType": "uint256",
          "name": "",
          "type": "uint256"
        }
      ],
      "name": "results",
      "outputs": [
        {
          "internalType": "uint64",
          "name": "countYes",
          "type": "uint64"
        },
        {
          "internalType": "uint64",
          "name": "countNo",
          "type": "uint64"
        },
        {
          "internalType": "uint256",
          "name": "stakeYes",
          "type": "uint256"
        },
        {
          "internalType": "uint256",
          "name": "stakeNo",
          "type": "uint256"
        }
      ],
      "stateMutability": "view",
      "type": "function"
    },
    {
      "inputs": [
        {
          "internalType": "string",
          "name": "setter",
          "type": "string"
        },
        {
          "internalType": "string",
          "name": "getter",
          "type": "string"
        },
        {
          "internalType": "uint256[]",
          "name": "params",
          "type": "uint256[]"
        }
      ],
      "name": "setAllowedChangeableParameter",
      "outputs": [],
      "stateMutability": "nonpayable",
      "type": "function"
    },
    {
      "inputs": [
        {
          "internalType": "uint256",
          "name": "_fee",
          "type": "uint256"
        }
      ],
      "name": "setCreateProposalFee",
      "outputs": [],
      "stateMutability": "nonpayable",
      "type": "function"
    },
    {
      "inputs": [
        {
          "internalType": "address",
          "name": "_add",
          "type": "address"
        },
        {
          "internalType": "bool",
          "name": "isCore",
          "type": "bool"
        }
      ],
      "name": "setIsCoreContract",
      "outputs": [],
      "stateMutability": "nonpayable",
      "type": "function"
    },
    {
      "inputs": [],
      "name": "stakingHbbft",
      "outputs": [
        {
          "internalType": "contract IStakingHbbft",
          "name": "",
          "type": "address"
        }
      ],
      "stateMutability": "view",
      "type": "function"
    },
    {
      "inputs": [],
      "name": "statistic",
      "outputs": [
        {
          "internalType": "uint64",
          "name": "total",
          "type": "uint64"
        },
        {
          "internalType": "uint64",
          "name": "accepted",
          "type": "uint64"
        },
        {
          "internalType": "uint64",
          "name": "declined",
          "type": "uint64"
        },
        {
          "internalType": "uint64",
          "name": "canceled",
          "type": "uint64"
        }
      ],
      "stateMutability": "view",
      "type": "function"
    },
    {
      "inputs": [],
      "name": "switchPhase",
      "outputs": [],
      "stateMutability": "nonpayable",
      "type": "function"
    },
    {
      "inputs": [
        {
          "internalType": "address",
          "name": "newOwner",
          "type": "address"
        }
      ],
      "name": "transferOwnership",
      "outputs": [],
      "stateMutability": "nonpayable",
      "type": "function"
    },
    {
      "inputs": [],
      "name": "unfinalizedProposals",
      "outputs": [
        {
          "internalType": "uint256",
          "name": "",
          "type": "uint256"
        }
      ],
      "stateMutability": "view",
      "type": "function"
    },
    {
      "inputs": [],
      "name": "unfinalizedProposalsExist",
      "outputs": [
        {
          "internalType": "bool",
          "name": "",
          "type": "bool"
        }
      ],
      "stateMutability": "view",
      "type": "function"
    },
    {
      "inputs": [],
      "name": "validatorSet",
      "outputs": [
        {
          "internalType": "contract IValidatorSetHbbft",
          "name": "",
          "type": "address"
        }
      ],
      "stateMutability": "view",
      "type": "function"
    },
    {
      "inputs": [
        {
          "internalType": "uint256",
          "name": "proposalId",
          "type": "uint256"
        },
        {
          "internalType": "enum Vote",
          "name": "_vote",
          "type": "uint8"
        }
      ],
      "name": "vote",
      "outputs": [],
      "stateMutability": "nonpayable",
      "type": "function"
    },
    {
      "inputs": [
        {
          "internalType": "uint256",
          "name": "proposalId",
          "type": "uint256"
        },
        {
          "internalType": "enum Vote",
          "name": "_vote",
          "type": "uint8"
        },
        {
          "internalType": "string",
          "name": "reason",
          "type": "string"
        }
      ],
      "name": "voteWithReason",
      "outputs": [],
      "stateMutability": "nonpayable",
      "type": "function"
    },
    {
      "inputs": [
        {
          "internalType": "uint256",
          "name": "",
          "type": "uint256"
        },
        {
          "internalType": "address",
          "name": "",
          "type": "address"
        }
      ],
      "name": "votes",
      "outputs": [
        {
          "internalType": "uint64",
          "name": "timestamp",
          "type": "uint64"
        },
        {
          "internalType": "enum Vote",
          "name": "vote",
          "type": "uint8"
        },
        {
          "internalType": "string",
          "name": "reason",
          "type": "string"
        }
      ],
      "stateMutability": "view",
      "type": "function"
    },
    {
      "stateMutability": "payable",
      "type": "receive"
    }
  ],
  "bytecode": "0x608060405234801561001057600080fd5b5061002b67670fa209e6423fda60c01b61007260201b60201c565b610045674657d21e6c4b61c960c01b61007260201b60201c565b61005f67c372d6da775b84b060c01b61007260201b60201c565b61006d61007560201b60201c565b6101ba565b50565b600061008561017960201b60201c565b90508060000160089054906101000a900460ff16156100d0576040517ff92ee8a900000000000000000000000000000000000000000000000000000000815260040160405180910390fd5b67ffffffffffffffff80168160000160009054906101000a900467ffffffffffffffff1667ffffffffffffffff16146101765767ffffffffffffffff8160000160006101000a81548167ffffffffffffffff021916908367ffffffffffffffff1602179055507fc7f505b2f371ae2175ee4913f4499e1f2633a7b5936321eed1cdaeb6115181d267ffffffffffffffff60405161016d91906101a1565b60405180910390a15b50565b60007ff0c57e16840df040f15088dc2f81fe391c3923bec73e23a9662efc9c229c6a00905090565b600060208201905060018060401b038316825292915050565b6194e8806101c96000396000f3fe6080604052600436106102815760003560e01c806395dd7fb91161014f578063c7f758a8116100c1578063efa65b481161007a578063efa65b4814610a58578063f22d232614610a83578063f2fde38b14610aae578063fa1f072714610ad7578063fe0d94c114610b02578063ff71d67714610b2b576102b4565b8063c7f758a81461090e578063d22a20cd1461094b578063d23254b414610988578063deec4e52146109c7578063ec47c471146109f0578063ed965ddc14610a1b576102b4565b8063ab266e1011610113578063ab266e10146107d5578063b131b6a5146107fe578063b710c15d1461082c578063ba08d23714610869578063be0a4e4b146108a6578063c3b66bed146108d1576102b4565b806395dd7fb9146107025780639b9fb6d01461072d578063a68f34f714610756578063aa72e3b914610793578063ab0eb62d146107be576102b4565b80633c5fc711116101f357806373f12958116101ac57806373f12958146105de5780638da5cb5b1461060957806392283634146106345780639426e22614610671578063943e82161461069c578063950e3e44146106c5576102b4565b80633c5fc711146104ee5780635cb092a21461051c5780635e8815f2146105455780636b6d33da1461056e578063715018a6146105ab5780637293368d146105c2576102b4565b80631536f472116102455780631536f472146103cb5780631840f0ca146103f45780631b0c27da146104315780632baffa3f1461047157806331e407331461049c57806336e98ca8146104c5576102b4565b8063013cf08b146102b957806305261aea146102fd57806311693b21146103265780631243e6cb146103635780631374b22d1461038e576102b4565b366102b45761029a67c0f27fd916c3808d60c01b610b56565b34600460008282546102ac9190617fd5565b925050819055005b600080fd5b3480156102c557600080fd5b506102e060048036038101906102db9190617ff3565b610b59565b6040516102f49897969594939291906180d9565b60405180910390f35b34801561030957600080fd5b50610324600480360381019061031f9190617ff3565b610d87565b005b34801561033257600080fd5b5061034d600480360381019061034891906181e4565b61120f565b60405161035a9190618281565b60405180910390f35b34801561036f57600080fd5b506103786113b0565b6040516103859190618294565b60405180910390f35b34801561039a57600080fd5b506103b560048036038101906103b09190617ff3565b6113d6565b6040516103c29190618281565b60405180910390f35b3480156103d757600080fd5b506103f260048036038101906103ed91906182f7565b611482565b005b34801561040057600080fd5b5061041b60048036038101906104169190617ff3565b611818565b6040516104289190618347565b60405180910390f35b34801561043d57600080fd5b5061045860048036038101906104539190617ff3565b611d32565b6040516104689493929190618385565b60405180910390f35b34801561047d57600080fd5b50610486611d8a565b60405161049391906183b9565b60405180910390f35b3480156104a857600080fd5b506104c360048036038101906104be91906183ca565b611d90565b005b3480156104d157600080fd5b506104ec60048036038101906104e7919061854f565b61220c565b005b3480156104fa57600080fd5b5061050361232a565b60405161051394939291906185d7565b60405180910390f35b34801561052857600080fd5b50610543600480360381019061053e919061854f565b612398565b005b34801561055157600080fd5b5061056c60048036038101906105679190618637565b6124b6565b005b34801561057a57600080fd5b5061059560048036038101906105909190618672565b6126b3565b6040516105a291906183b9565b60405180910390f35b3480156105b757600080fd5b506105c06126d8565b005b6105dc60048036038101906105d791906187d3565b6126ec565b005b3480156105ea57600080fd5b506105f3613408565b60405161060091906188c8565b60405180910390f35b34801561061557600080fd5b5061061e61342e565b60405161062b91906188c8565b60405180910390f35b34801561064057600080fd5b5061065b60048036038101906106569190618901565b613466565b6040516106689190618924565b60405180910390f35b34801561067d57600080fd5b50610686613491565b604051610693919061893e565b60405180910390f35b3480156106a857600080fd5b506106c360048036038101906106be9190618957565b6134b7565b005b3480156106d157600080fd5b506106ec60048036038101906106e79190618987565b6138f7565b6040516106f991906183b9565b60405180910390f35b34801561070e57600080fd5b506107176139a4565b6040516107249190618a77565b60405180910390f35b34801561073957600080fd5b50610754600480360381019061074f9190618a92565b613a38565b005b34801561076257600080fd5b5061077d60048036038101906107789190617ff3565b613afb565b60405161078a9190618b1b565b60405180910390f35b34801561079f57600080fd5b506107a8613b5b565b6040516107b59190618b36565b60405180910390f35b3480156107ca57600080fd5b506107d3613b61565b005b3480156107e157600080fd5b506107fc60048036038101906107f79190617ff3565b614303565b005b34801561080a57600080fd5b50610813614546565b6040516108239493929190618b69565b60405180910390f35b34801561083857600080fd5b50610853600480360381019061084e9190618a92565b6145ad565b6040516108609190618ba6565b60405180910390f35b34801561087557600080fd5b50610890600480360381019061088b9190618bdd565b6146cb565b60405161089d9190618281565b60405180910390f35b3480156108b257600080fd5b506108bb614931565b6040516108c891906183b9565b60405180910390f35b3480156108dd57600080fd5b506108f860048036038101906108f39190617ff3565b614937565b60405161090591906183b9565b60405180910390f35b34801561091a57600080fd5b5061093560048036038101906109309190617ff3565b614997565b6040516109429190618c6a565b60405180910390f35b34801561095757600080fd5b50610972600480360381019061096d9190618d87565b614e7e565b60405161097f9190618281565b60405180910390f35b34801561099457600080fd5b506109af60048036038101906109aa9190618672565b614e9e565b6040516109be93929190618dae565b60405180910390f35b3480156109d357600080fd5b506109ee60048036038101906109e99190618dea565b614f7e565b005b3480156109fc57600080fd5b50610a0561598e565b604051610a1291906183b9565b60405180910390f35b348015610a2757600080fd5b50610a426004803603810190610a3d9190617ff3565b615994565b604051610a4f91906183b9565b60405180910390f35b348015610a6457600080fd5b50610a6d6159b8565b604051610a7a9190618281565b60405180910390f35b348015610a8f57600080fd5b50610a98615a9a565b604051610aa591906183b9565b60405180910390f35b348015610aba57600080fd5b50610ad56004803603810190610ad09190618d87565b615aa0565b005b348015610ae357600080fd5b50610aec615b26565b604051610af991906183b9565b60405180910390f35b348015610b0e57600080fd5b50610b296004803603810190610b249190617ff3565b615b2c565b005b348015610b3757600080fd5b50610b40615fac565b604051610b4d91906183b9565b60405180910390f35b50565b600a6020528060005260406000206000915090508060000160009054906101000a900473ffffffffffffffffffffffffffffffffffffffff16908060000160149054906101000a900467ffffffffffffffff169080600001601c9054906101000a900460ff1690806004018054610bcf90618e54565b80601f0160208091040260200160405190810160405280929190818152602001828054610bfb90618e54565b8015610c485780601f10610c1d57610100808354040283529160200191610c48565b820191906000526020600020905b815481529060010190602001808311610c2b57829003601f168201915b505050505090806005018054610c5d90618e54565b80601f0160208091040260200160405190810160405280929190818152602001828054610c8990618e54565b8015610cd65780601f10610cab57610100808354040283529160200191610cd6565b820191906000526020600020905b815481529060010190602001808311610cb957829003601f168201915b505050505090806006018054610ceb90618e54565b80601f0160208091040260200160405190810160405280929190818152602001828054610d1790618e54565b8015610d645780601f10610d3957610100808354040283529160200191610d64565b820191906000526020600020905b815481529060010190602001808311610d4757829003601f168201915b5050505050908060070154908060080160009054906101000a900460ff16905088565b610d9b67eac585b57720ecc760c01b610b56565b80610db067fe867c441df75adc60c01b610b56565b610dc4670ac6f8b8a58cbe5060c01b610b56565b610dd867e4e7b4e17f47075a60c01b610b56565b610de1816113d6565b610e4a57610df9671bd5d837f6f141f460c01b610b56565b610e0d678e282d1a0d1eee9360c01b610b56565b806040517f986731a1000000000000000000000000000000000000000000000000000000008152600401610e4191906183b9565b60405180910390fd5b610e5e672738731a6cd452d560c01b610b56565b610e7267ab6ec35c842c9e2e60c01b610b56565b610e8667c7c02e7cf1d6b66960c01b610b56565b610e9a6722d0f05c1100a99160c01b610b56565b610eae6706edea2e506c92dd60c01b610b56565b610ec267f7eb4ff63274529960c01b610b56565b610ecd826003615fb2565b610ee1677ff5c5d9195e6c2c60c01b610b56565b610ef5674806c5e4b229abb460c01b610b56565b6000600a60008481526020019081526020016000209050610f2067363a743d31126d4360c01b610b56565b610f3467fda7955857725ab560c01b610b56565b6000610f418460016160d2565b9050610f57678a92fc61ada5846a60c01b610b56565b610f6b67ea80d7ef598fb27360c01b610b56565b610f75848261666f565b610f8967b1f095c458dfc66a60c01b610b56565b610f9d67f28801b9687cd54160c01b610b56565b6000610fba8360080160009054906101000a900460ff168361120f565b9050610fd067f7f0e5571d926ae060c01b610b56565b8080610fec5750610feb6772e2e37e0a838dc860c01b61678f565b5b8015611008575061100767b8508f152295b4ab60c01b616796565b5b611013576005611016565b60045b83600001601c6101000a81548160ff0219169083600681111561103c5761103b61802f565b5b0217905550611055679c62aa96015f18dd60c01b610b56565b61106967f651dbef6ba55aef60c01b610b56565b80156110eb57611083674cfe137be51a275160c01b610b56565b6110976705145fca7054a4b560c01b610b56565b6001600760000160088282829054906101000a900467ffffffffffffffff166110c09190618e92565b92506101000a81548167ffffffffffffffff021916908367ffffffffffffffff160217905550611163565b6110ff677ac30f6e1c291a5160c01b610b56565b6111136796b76566a5b2e30360c01b610b56565b6001600760000160108282829054906101000a900467ffffffffffffffff1661113c9190618e92565b92506101000a81548167ffffffffffffffff021916908367ffffffffffffffff1602179055505b611177675fd67df4c6b4469260c01b610b56565b60016011600082825461118a9190618ebe565b925050819055506111a567b6e0bcf56046350260c01b610b56565b6111b967724df4b874bd284460c01b610b56565b843373ffffffffffffffffffffffffffffffffffffffff167f4a82eb80f2a86beb92f5670422f698264b3511048a29b400a6a1ce684769581e836040516112009190618281565b60405180910390a35050505050565b600061122567bbaa399762b15e0d60c01b610b56565b61123967c17add4e9157579a60c01b610b56565b61124d67ded0343114c29e5e60c01b610b56565b600061126367896f847433504a1660c01b610b56565b611277673661c17315d449bd60c01b610b56565b60006112816167a1565b905061129767d012a9a4bd57189360c01b610b56565b6112ab6733d991f7ecfb978960c01b610b56565b600160028111156112bf576112be61802f565b5b8560028111156112d2576112d161802f565b5b03611321576112eb673186a36a1a4be39b60c01b610b56565b6112ff67286317078889ab1e60c01b610b56565b612710611388826113109190618edc565b61131a9190618efe565b9150611367565b6113356784ffa0ee5de3042b60c01b610b56565b6113496785e1d4648186448060c01b610b56565b612710610ce48261135a9190618edc565b6113649190618efe565b91505b61137b67be986a208a0f672860c01b610b56565b61138f67f0d609e10de29c2660c01b610b56565b81846060015161139f9190617fd5565b846040015110159250505092915050565b600660009054906101000a900473ffffffffffffffffffffffffffffffffffffffff1681565b60006113ec67a402f36ab741922760c01b610b56565b61140067688537a70ecfb8f560c01b610b56565b61141467a08203cc4bf371a060c01b610b56565b600073ffffffffffffffffffffffffffffffffffffffff16600a600084815260200190815260200160002060000160009054906101000a900473ffffffffffffffffffffffffffffffffffffffff1673ffffffffffffffffffffffffffffffffffffffff1614159050919050565b611496678e96e381819bcc6760c01b610b56565b826114ab67fe867c441df75adc60c01b610b56565b6114bf670ac6f8b8a58cbe5060c01b610b56565b6114d367e4e7b4e17f47075a60c01b610b56565b6114dc816113d6565b611545576114f4671bd5d837f6f141f460c01b610b56565b611508678e282d1a0d1eee9360c01b610b56565b806040517f986731a100000000000000000000000000000000000000000000000000000000815260040161153c91906183b9565b60405180910390fd5b611559672738731a6cd452d560c01b610b56565b61156d67ab6ec35c842c9e2e60c01b610b56565b61158167895f2ed61a17731c60c01b610b56565b611595675636aba2ca0d9fb360c01b610b56565b6115a967753c535f1cdf2a5c60c01b610b56565b6115bd6743beaae8cde4d83660c01b610b56565b6000600a600086815260200190815260200160002090506115e8675ca97f6062202d3d60c01b610b56565b6115fc671032f9ffde21eace60c01b610b56565b8060000160009054906101000a900473ffffffffffffffffffffffffffffffffffffffff1673ffffffffffffffffffffffffffffffffffffffff163373ffffffffffffffffffffffffffffffffffffffff16146116ad5761166767cad5c9ae734cd09160c01b610b56565b61167b67a1702090011d524060c01b610b56565b6040517fc118f92000000000000000000000000000000000000000000000000000000000815260040160405180910390fd5b6116c167904ce6d56cb7ccd460c01b610b56565b6116d5673ec7b51383a2115560c01b610b56565b6116e96779a142575368a22460c01b610b56565b6116f4856000615fb2565b61170867f4b60fdd000f775960c01b610b56565b600181600001601c6101000a81548160ff021916908360068111156117305761172f61802f565b5b0217905550611749676fb728b7411d696060c01b610b56565b6001600760000160188282829054906101000a900467ffffffffffffffff166117729190618e92565b92506101000a81548167ffffffffffffffff021916908367ffffffffffffffff1602179055506117ac67d13e8fa7ba1b265a60c01b610b56565b6117c0672b3b6161a3bfb18f60c01b610b56565b843373ffffffffffffffffffffffffffffffffffffffff167fd16ff8053e1476416f5be14c32305a3652ac0b182ac04ede8c101d867b75bd148686604051611809929190618f51565b60405180910390a35050505050565b611820617cda565b611834674c7c4671f0794f4260c01b610b56565b8161184967fe867c441df75adc60c01b610b56565b61185d670ac6f8b8a58cbe5060c01b610b56565b61187167e4e7b4e17f47075a60c01b610b56565b61187a816113d6565b6118e357611892671bd5d837f6f141f460c01b610b56565b6118a6678e282d1a0d1eee9360c01b610b56565b806040517f986731a10000000000000000000000000000000000000000000000000000000081526004016118da91906183b9565b60405180910390fd5b6118f7672738731a6cd452d560c01b610b56565b61190b67ab6ec35c842c9e2e60c01b610b56565b61191f6747da94ce2cb0f4c560c01b610b56565b61193367e4115b0212f25dec60c01b610b56565b6119476721106280f4f7c77f60c01b610b56565b61195b670809b5c4e1674e6260c01b610b56565b6000600a6000858152602001908152602001600020600001601c9054906101000a900460ff169050611997672508fd950a2718f260c01b610b56565b6119ab67c448d6991cfffda960c01b610b56565b600460068111156119bf576119be61802f565b5b8160068111156119d2576119d161802f565b5b1480156119ef57506119ee67b4d175d9b4f22d7260c01b616796565b5b80611a56575060056006811115611a0957611a0861802f565b5b816006811115611a1c57611a1b61802f565b5b148015611a395750611a3867fbe4946e0163f59560c01b616796565b5b8015611a555750611a5467d2f6bda0258ccc7e60c01b616796565b5b5b80611aa05750600680811115611a6f57611a6e61802f565b5b816006811115611a8257611a8161802f565b5b148015611a9f5750611a9e672a8fff78b3b46eb360c01b616796565b5b5b15611b7f57611ab967482b50f1a79c4e8160c01b610b56565b611acd67eb712ebfdde8454860c01b610b56565b611ae167bee4e06c6329dc4260c01b610b56565b600c60008581526020019081526020016000206040518060800160405290816000820160009054906101000a900467ffffffffffffffff1667ffffffffffffffff1667ffffffffffffffff1681526020016000820160089054906101000a900467ffffffffffffffff1667ffffffffffffffff1667ffffffffffffffff16815260200160018201548152602001600282015481525050925050611d2c565b611b93675ec80524d9137cea60c01b610b56565b611ba7672f84ae981657989560c01b610b56565b60036006811115611bbb57611bba61802f565b5b816006811115611bce57611bcd61802f565b5b03611c2257611be767fff84f51074a71c060c01b610b56565b611bfb67a7c41f4ffd30c2fe60c01b610b56565b611c0f67902017b90ee82ce160c01b610b56565b611c1a8460016160d2565b925050611d2c565b611c3667ac3d80ca2fe6641b60c01b610b56565b611c4a678c82780e07b60db360c01b610b56565b60026006811115611c5e57611c5d61802f565b5b816006811115611c7157611c7061802f565b5b03611cc557611c8a679fe0a075c4cfb8e760c01b610b56565b611c9e67ce46deced5e02f7860c01b610b56565b611cb267fc5203d87d48eb2c60c01b610b56565b611cbd8460006160d2565b925050611d2c565b611cd9679df2d8af49dc3eff60c01b610b56565b611ced677fd63e25270fa36560c01b610b56565b83816040517f605cfad5000000000000000000000000000000000000000000000000000000008152600401611d23929190618f6e565b60405180910390fd5b50919050565b600c6020528060005260406000206000915090508060000160009054906101000a900467ffffffffffffffff16908060000160089054906101000a900467ffffffffffffffff16908060010154908060020154905084565b60045481565b611da46725dc672c01d9305860c01b610b56565b83611db967fe867c441df75adc60c01b610b56565b611dcd670ac6f8b8a58cbe5060c01b610b56565b611de167e4e7b4e17f47075a60c01b610b56565b611dea816113d6565b611e5357611e02671bd5d837f6f141f460c01b610b56565b611e16678e282d1a0d1eee9360c01b610b56565b806040517f986731a1000000000000000000000000000000000000000000000000000000008152600401611e4a91906183b9565b60405180910390fd5b611e67672738731a6cd452d560c01b610b56565b611e7b67ab6ec35c842c9e2e60c01b610b56565b611e8f67cb286918ee55aeab60c01b610b56565b611ea367dc87a77da4ebed6660c01b610b56565b6001611eb96788ba82d84de797c160c01b610b56565b611ecd67c76ab0496366ee6a60c01b610b56565b611ee167cc34e72f5318638260c01b610b56565b806001811115611ef457611ef361802f565b5b600860000160189054906101000a900460ff166001811115611f1957611f1861802f565b5b14611f9557611f32673644841a4db10acc60c01b610b56565b611f4667f0a593a3ce2a848760c01b610b56565b600860000160189054906101000a900460ff166040517ff00615f2000000000000000000000000000000000000000000000000000000008152600401611f8c9190618f8d565b60405180910390fd5b611fa9676b205ab50eea3c1f60c01b610b56565b611fbd67fbdcc3f3803de98d60c01b610b56565b611fd1679804320cc45e67d660c01b610b56565b611fe567faef6e906a638f3260c01b610b56565b611ff967bbaada2e907f7c9e60c01b610b56565b61200d676dfb612c4d08fbfe60c01b610b56565b61202167ee024b0f3fb024fe60c01b610b56565b61202a33616875565b6120935761204267bb20460e5bd3107f60c01b610b56565b61205667b80491a82801ad9860c01b610b56565b336040517ffb426bed00000000000000000000000000000000000000000000000000000000815260040161208a91906188c8565b60405180910390fd5b6120a767f49767b2157bd43260c01b610b56565b6120bb674ef047a0be5e065f60c01b610b56565b6120cf6784b11e094d472f1260c01b610b56565b6120e3673ee5c571578aa0e160c01b610b56565b6120f767e52420f16c7283c560c01b610b56565b61210b6783ebaa30c544b92e60c01b610b56565b6000339050612124676208e459421e690c60c01b610b56565b61213867df4ba118f71dd97960c01b610b56565b61218881888888888080601f016020809104026020016040519081016040528093929190818152602001838380828437600081840152601f19601f82011690508083019250505050505050616ac3565b61219c67782cf44662e7224060c01b610b56565b6121b06702a8fe881710f43860c01b610b56565b868173ffffffffffffffffffffffffffffffffffffffff167fde85a12bb3f2d766e67cf54febc7c53ae9c500da072f8fdfb34aba5ca5525ebf8888886040516121fb93929190618fa5565b60405180910390a350505050505050565b612214616ce2565b604051806040016040528083805190602001207bffffffffffffffffffffffffffffffffffffffffffffffffffffffff191681526020018281525060008085805190602001207bffffffffffffffffffffffffffffffffffffffffffffffffffffffff19167bffffffffffffffffffffffffffffffffffffffffffffffffffffffff1916815260200190815260200160002060008201518160000160006101000a81548163ffffffff021916908360e01c021790555060208201518160010190805190602001906122e6929190617d16565b509050507f3d45a310c5a076ea07aa2947ca3c06cc2a8b3571065867ad6f8e7096a2c9d50a83838360405161231d93929190618fd2565b60405180910390a1505050565b60078060000160009054906101000a900467ffffffffffffffff16908060000160089054906101000a900467ffffffffffffffff16908060000160109054906101000a900467ffffffffffffffff16908060000160189054906101000a900467ffffffffffffffff16905084565b6123a0616d69565b604051806040016040528083805190602001207bffffffffffffffffffffffffffffffffffffffffffffffffffffffff191681526020018281525060008085805190602001207bffffffffffffffffffffffffffffffffffffffffffffffffffffffff19167bffffffffffffffffffffffffffffffffffffffffffffffffffffffff1916815260200190815260200160002060008201518160000160006101000a81548163ffffffff021916908360e01c02179055506020820151816001019080519060200190612472929190617d16565b509050507f3d45a310c5a076ea07aa2947ca3c06cc2a8b3571065867ad6f8e7096a2c9d50a8383836040516124a993929190618fd2565b60405180910390a1505050565b6124ca67f01bfbad0887d15360c01b610b56565b6124de6790d146cfdb4a700860c01b610b56565b6124f267a957d9dd9cfdcd8d60c01b610b56565b61250667baa531c98488096460c01b610b56565b3073ffffffffffffffffffffffffffffffffffffffff163373ffffffffffffffffffffffffffffffffffffffff16146125935761254d6771213607ea932ba360c01b610b56565b61256167a720dbe16b09c1ea60c01b610b56565b6040517f54348f0300000000000000000000000000000000000000000000000000000000815260040160405180910390fd5b6125a7677b1fb75ea9e0bd6360c01b610b56565b6125bb67219188842744002060c01b610b56565b6125cf67364b6f5b5f7307d860c01b610b56565b6125e3673ae2458c7bb1d48360c01b610b56565b6125f767ed15b3bc79351c9460c01b610b56565b80600b60008473ffffffffffffffffffffffffffffffffffffffff1673ffffffffffffffffffffffffffffffffffffffff16815260200190815260200160002060006101000a81548160ff02191690831515021790555061266267598626d90da81cd260c01b610b56565b612676674f870866641221ca60c01b610b56565b7fc73e95af540565c649d9453cb23b01f505752b94f04ff81b52ce528047232f2382826040516126a7929190619016565b60405180910390a15050565b600e602052816000526040600020602052806000526040600020600091509150505481565b6126e0616ce2565b6126ea6000616da9565b565b61270067ee6bcb89e56a718d60c01b610b56565b60006127166788ba82d84de797c160c01b610b56565b61272a67c76ab0496366ee6a60c01b610b56565b61273e67cc34e72f5318638260c01b610b56565b8060018111156127515761275061802f565b5b600860000160189054906101000a900460ff1660018111156127765761277561802f565b5b146127f25761278f673644841a4db10acc60c01b610b56565b6127a367f0a593a3ce2a848760c01b610b56565b600860000160189054906101000a900460ff166040517ff00615f20000000000000000000000000000000000000000000000000000000081526004016127e99190618f8d565b60405180910390fd5b612806676b205ab50eea3c1f60c01b610b56565b61281a67fbdcc3f3803de98d60c01b610b56565b61282e670d7383d6ed65741a60c01b610b56565b61284267bcc907f38cd662ea60c01b610b56565b86856128586798ffc593f68a482060c01b610b56565b61286c67a94d401b05d9f54c60c01b610b56565b612880675c6c9c062ac9944e60c01b610b56565b60005b8251811015612af0576128a067de42ea755f88c51760c01b610b56565b6128b467cb2d0a47b234ad5c60c01b610b56565b600b60008483815181106128cb576128ca619038565b5b602002602001015173ffffffffffffffffffffffffffffffffffffffff1673ffffffffffffffffffffffffffffffffffffffff16815260200190815260200160002060009054906101000a900460ff1661294c5761293367c934b137efa8ca8e60c01b610b56565b61294767c787911d1381e75560c01b610b56565b612ae5565b612960672b52e16688c131ef60c01b610b56565b6129746781fd95422113369660c01b610b56565b612988674f055484ab5e130260c01b610b56565b6000806129ae8484815181106129a1576129a0619038565b5b6020026020010151616e80565b915091506129c66786f6ebb2a13e67ea60c01b610b56565b6129da67dc56e681a1940faf60c01b610b56565b8483815181106129ed576129ec619038565b5b602002602001015173ffffffffffffffffffffffffffffffffffffffff1663ba08d23783836040518363ffffffff1660e01b8152600401612a2f92919061904e565b602060405180830381865afa158015612a4c573d6000803e3d6000fd5b505050506040513d601f19601f82011682018060405250810190612a70919061906f565b612ace57612a886779a18706ef4f5b5f60c01b610b56565b612a9c6716f311c8f75cd3d060c01b610b56565b6040517f8e0ad5c100000000000000000000000000000000000000000000000000000000815260040160405180910390fd5b612ae2675a7d6471aba4622460c01b610b56565b50505b806001019050612883565b50612b05678dc8618f8fbd44f160c01b610b56565b612b1967d28db8dd5639e27660c01b610b56565b612b2d67205f48069ae3997360c01b610b56565b612b4167bbe99607baa53ffb60c01b610b56565b612b5567df3d9f5ee6c1030e60c01b610b56565b612b696731ff7f4c78384ce960c01b610b56565b612b716159b8565b15612bd057612b8a6789cf8d4e88c1f69560c01b610b56565b612b9e67248ad6a21946cf6260c01b610b56565b6040517ffd081cf900000000000000000000000000000000000000000000000000000000815260040160405180910390fd5b612be46788a2478687be163060c01b610b56565b612bf86752938abfcdc557e960c01b610b56565b60015460125414612c3957612c17679d30ba79f9c0cbf860c01b610b56565b612c2b678746d8f251cb954e60c01b610b56565b600154601281905550612c4e565b612c4d67ffc11f60e7535c5860c01b610b56565b5b612c6267d13f141719df819060c01b610b56565b612c7667797f274e1033195a60c01b610b56565b612c8a67d45e5215cb3848c360c01b610b56565b612c9e67609550da571e96ea60c01b610b56565b612cb2677ba9ab07a375447960c01b610b56565b8751895114158015612cd45750612cd3677107f66db50facd660c01b616796565b5b80612d1957508651895114158015612cfc5750612cfb67063c961995c5bb0c60c01b616796565b5b8015612d185750612d17673ada587b04f4544560c01b616796565b5b5b80612d41575060008951148015612d405750612d3f676426093d832a59d660c01b616796565b5b5b15612da057612d5a6744d7f87c91a4b02960c01b610b56565b612d6e67bc001c694dde565360c01b610b56565b6040517fa9cb9e0d00000000000000000000000000000000000000000000000000000000815260040160405180910390fd5b612db46742421a4126f7291960c01b610b56565b612dc867827c4b1b90744e1b60c01b610b56565b612ddc672c63721ccdd5fa5760c01b610b56565b6003543414612e3f57612df9679d2f6a6441fc776e60c01b610b56565b612e0d6768d0271ed56ab3b560c01b610b56565b6040517f356680b700000000000000000000000000000000000000000000000000000000815260040160405180910390fd5b612e5367ea731faa58526fdb60c01b610b56565b612e67674e76dbde01698c8560c01b610b56565b612e7b67fb98beb29c9bbc3760c01b610b56565b6103e860098054905010612ee357612e9d67652339ce34aeb9fc60c01b610b56565b612eb1677c7b6457cc2a588660c01b610b56565b6040517f7e55a5c200000000000000000000000000000000000000000000000000000000815260040160405180910390fd5b612ef7670fc8683b9931f64060c01b610b56565b612f0b670cc595205223ef4460c01b610b56565b612f1f67e5ae353b31bdfb8260c01b610b56565b6000612f2d8a8a8a896138f7565b9050612f4367abe64fede6f279d560c01b610b56565b612f576732a9640314992f2860c01b610b56565b612f60816113d6565b15612fca57612f79677b26f79111cdb2af60c01b610b56565b612f8d67fa3e1d693560d04f60c01b610b56565b806040517fd3df4383000000000000000000000000000000000000000000000000000000008152600401612fc191906183b9565b60405180910390fd5b612fde67be83d2c1853b5e8360c01b610b56565b612ff2670a97be9ad9f2ce9260c01b610b56565b61300667b9ae968d2d4cef4260c01b610b56565b600033905061301f67867113007338d71060c01b610b56565b613033673a28cd64ad8ee9fd60c01b610b56565b6000600a6000848152602001908152602001600020905061305e67b1762ea0fa7a86e160c01b610b56565b818160000160006101000a81548173ffffffffffffffffffffffffffffffffffffffff021916908373ffffffffffffffffffffffffffffffffffffffff1602179055506130b56759744276c441d78960c01b610b56565b600081600001601c6101000a81548160ff021916908360068111156130dd576130dc61802f565b5b02179055506130f6673973310bf6bef49560c01b610b56565b8b81600101908051906020019061310e929190617d63565b506131236782e33ae9247ec78160c01b610b56565b8a81600201908051906020019061313b929190617d16565b5061315067a4c4f472bcf03ef560c01b610b56565b89816003019080519060200190613168929190617ded565b5061317d6761a92a355415998960c01b610b56565b8881600401908161318e9190619116565b506131a367876fd75cabdc5eac60c01b610b56565b878160050190816131b49190619116565b506131c967f8320f097991220060c01b610b56565b868160060190816131da9190619116565b506131ef67b438c374667cb82960c01b610b56565b600154816007018190555061320e67c23005ea238f1eb760c01b610b56565b6132188c8b616ed2565b8160080160006101000a81548160ff0219169083600281111561323e5761323d61802f565b5b021790555061325767c01562c431f59e9860c01b610b56565b61326b6721b44c4e1cec109960c01b610b56565b60098390806001815401808255809150506001900390600052602060002001600090919091909150556132a8677730d0aa1a8f2b3c60c01b610b56565b6001600760000160008282829054906101000a900467ffffffffffffffff166132d19190618e92565b92506101000a81548167ffffffffffffffff021916908367ffffffffffffffff16021790555061330b67ccd05a0b82215a2d60c01b610b56565b60016011600082825461331e9190617fd5565b92505081905550613339675b9a88a36b6a676560c01b610b56565b61334d676f13866a1535e5e260c01b610b56565b613379600260009054906101000a900473ffffffffffffffffffffffffffffffffffffffff16346170cd565b61338d67d70f72f382b17b6c60c01b610b56565b6133a167cd017711000f17f460c01b610b56565b828273ffffffffffffffffffffffffffffffffffffffff167f0862e0d24b6284416802acfafc53281043e0ef028202f20e81e6e3c133e78a888e8e8e8e8e8e6040516133f2969594939291906191e0565b60405180910390a3505050505050505050505050565b600260009054906101000a900473ffffffffffffffffffffffffffffffffffffffff1681565b600080613439617224565b90508060000160009054906101000a900473ffffffffffffffffffffffffffffffffffffffff1691505090565b60006020528060005260406000206000915090508060000160009054906101000a900460e01b905081565b600560009054906101000a900473ffffffffffffffffffffffffffffffffffffffff1681565b6134cb67a16f27813ad5bb2860c01b610b56565b816134e067fe867c441df75adc60c01b610b56565b6134f4670ac6f8b8a58cbe5060c01b610b56565b61350867e4e7b4e17f47075a60c01b610b56565b613511816113d6565b61357a57613529671bd5d837f6f141f460c01b610b56565b61353d678e282d1a0d1eee9360c01b610b56565b806040517f986731a100000000000000000000000000000000000000000000000000000000815260040161357191906183b9565b60405180910390fd5b61358e672738731a6cd452d560c01b610b56565b6135a267ab6ec35c842c9e2e60c01b610b56565b6135b667b1b040138a3b233460c01b610b56565b6135ca675f2cae6e63c5cc8d60c01b610b56565b60016135e06788ba82d84de797c160c01b610b56565b6135f467c76ab0496366ee6a60c01b610b56565b61360867cc34e72f5318638260c01b610b56565b80600181111561361b5761361a61802f565b5b600860000160189054906101000a900460ff1660018111156136405761363f61802f565b5b146136bc57613659673644841a4db10acc60c01b610b56565b61366d67f0a593a3ce2a848760c01b610b56565b600860000160189054906101000a900460ff166040517ff00615f20000000000000000000000000000000000000000000000000000000081526004016136b39190618f8d565b60405180910390fd5b6136d0676b205ab50eea3c1f60c01b610b56565b6136e467fbdcc3f3803de98d60c01b610b56565b6136f867e2e0cda2dadc6a9c60c01b610b56565b61370b66d7f605f136284760c01b610b56565b61371f67bbaada2e907f7c9e60c01b610b56565b613733676dfb612c4d08fbfe60c01b610b56565b61374767ee024b0f3fb024fe60c01b610b56565b61375033616875565b6137b95761376867bb20460e5bd3107f60c01b610b56565b61377c67b80491a82801ad9860c01b610b56565b336040517ffb426bed0000000000000000000000000000000000000000000000000000000081526004016137b091906188c8565b60405180910390fd5b6137cd67f49767b2157bd43260c01b610b56565b6137e1674ef047a0be5e065f60c01b610b56565b6137f5675644c2a5cd241af960c01b610b56565b6138096787553c7d6b81b3d860c01b610b56565b61381d67ec37067357b56f5460c01b610b56565b613831675b572bee907ee79160c01b610b56565b600033905061384a674d53a01b9c7f577060c01b610b56565b61385e6791f1ada4981423a960c01b610b56565b61387981868660405180602001604052806000815250616ac3565b61388d67641e11626f228a2060c01b610b56565b6138a1670ae4c6265ca4cd6a60c01b610b56565b848173ffffffffffffffffffffffffffffffffffffffff167f343f24b88bd3789b60993251090e2184e0e4ae199d79b14a510fc1a08b51f514866040516138e89190619263565b60405180910390a35050505050565b600061390d67ef0649aa0cb2565260c01b610b56565b613921677b18fbcb55b22cd960c01b610b56565b61393567f3bf6fc2eb4a821660c01b610b56565b600082805190602001209050613955674e9e3cd0dd27eb3660c01b610b56565b6139696761e86eb23e7c1bd160c01b610b56565b85858583604051602001613980949392919061927d565b6040516020818303038152906040528051906020012060001c915050949350505050565b60606139ba67e3fc04c6f056c59c60c01b610b56565b6139ce67109ec33c4886230b60c01b610b56565b6139e2677a86c51a4d8076a360c01b610b56565b6009805480602002602001604051908101604052809291908181526020018280548015613a2e57602002820191906000526020600020905b815481526020019060010190808311613a1a575b5050505050905090565b613a40616ce2565b60008082805190602001207bffffffffffffffffffffffffffffffffffffffffffffffffffffffff19167bffffffffffffffffffffffffffffffffffffffffffffffffffffffff19168152602001908152602001600020600080820160006101000a81549063ffffffff0219169055600182016000613abf9190617e46565b50507f92d44565a40fe29702ffa146ddaa3bb133d4077f5312d682d0a2632a9bc73a8a81604051613af091906192c8565b60405180910390a150565b6060613b1167870903374c6ff53260c01b610b56565b613b25677a9a8a0b49c6e64360c01b610b56565b613b396786545cc1df9bcd2460c01b610b56565b613b546010600084815260200190815260200160002061724c565b9050919050565b611c2081565b613b7567ec980a5fc02fdb2b60c01b610b56565b613b8967cd75c0d901523e6b60c01b610b56565b613b9d6723b2be60e514b6e560c01b610b56565b600860000160089054906101000a900467ffffffffffffffff1667ffffffffffffffff16421015613c0957613bdc6707478d7f15041bdf60c01b610b56565b613bf067a4f96c82c0a455c460c01b610b56565b613c0467c697f18f48c0561c60c01b610b56565b614301565b613c1d674cd49bf0c8ae7fca60c01b610b56565b613c31670c0152264ab0a96e60c01b610b56565b613c45675b895e53e3014c5360c01b610b56565b6000806001811115613c5a57613c5961802f565b5b600860000160189054906101000a900460ff166001811115613c7f57613c7e61802f565b5b1480613c9b5750613c9a673bd5279bb7a3c4f660c01b61678f565b5b8015613cb75750613cb6678a877aa78fb5322560c01b616796565b5b613cc2576000613cc5565b60015b9050613cdb67c6d96fa73cf2c2d260c01b610b56565b613cef67453345224a098c8d60c01b610b56565b60006001600860000160089054906101000a900467ffffffffffffffff16613d179190618e92565b9050613d2d67e5b36279cd63890560c01b610b56565b80600860000160006101000a81548167ffffffffffffffff021916908367ffffffffffffffff160217905550613d6d679d1f6f6b841c18eb60c01b610b56565b611c2081613d7b9190618e92565b600860000160086101000a81548167ffffffffffffffff021916908367ffffffffffffffff160217905550613dba67b6c5abedc46e3e0f60c01b610b56565b81600860000160186101000a81548160ff02191690836001811115613de257613de161802f565b5b0217905550613dfb673ea28d6d10d9218d60c01b610b56565b613e0f67d6f0f3b9e258722b60c01b610b56565b6000600180811115613e2457613e2361802f565b5b836001811115613e3757613e3661802f565b5b1480613e535750613e52677b8dd418a63b2fe860c01b61678f565b5b8015613e6f5750613e6e6797e5446628de9c3d60c01b616796565b5b613e7a576003613e7d565b60025b9050613e93672ee439b669715da660c01b610b56565b613ea767fe365a50d1cd38ed60c01b610b56565b600060036006811115613ebd57613ebc61802f565b5b826006811115613ed057613ecf61802f565b5b149050613ee7671306bfad49096edf60c01b610b56565b613efb67ea6ad139ad3fb2e060c01b610b56565b60005b60098054905081101561407a57613f1f67852beb8f4b463d1060c01b610b56565b613f336749f254dca8dfee5260c01b610b56565b600060098281548110613f4957613f48619038565b5b90600052602060002001549050613f6a67441d2dc6e4caf6dd60c01b610b56565b83600a6000838152602001908152602001600020600001601c6101000a81548160ff02191690836006811115613fa357613fa261802f565b5b0217905550613fbc678b5ebd44404196b260c01b610b56565b613fd067f5edd13a1c28bd6c60c01b610b56565b821561405957613fea6720c533f35a4d1fae60c01b610b56565b613ffe674ab38ac4b371e30160c01b610b56565b600860000160109054906101000a900467ffffffffffffffff16600a600083815260200190815260200160002060000160146101000a81548167ffffffffffffffff021916908367ffffffffffffffff16021790555061406e565b61406d679d8a544124c35e4160c01b610b56565b5b50806001019050613efe565b5061408f672dad2e458a86650660c01b610b56565b6140a3674822515cef93988060c01b610b56565b801561416f576140bd67bd50e09604c003f560c01b610b56565b6140d16774fa32a35c849f6360c01b610b56565b6140e5673a834e93f6a2038960c01b610b56565b614107600860000160109054906101000a900467ffffffffffffffff1661726d565b61411b67b509d45b1527799a60c01b610b56565b6001600860000160108282829054906101000a900467ffffffffffffffff166141449190618e92565b92506101000a81548167ffffffffffffffff021916908367ffffffffffffffff160217905550614184565b61418367710faa99c314788760c01b610b56565b5b61419867932bad4f82c6ad3460c01b610b56565b6141ac676132fcc697f5de2160c01b610b56565b600060018111156141c0576141bf61802f565b5b8460018111156141d3576141d261802f565b5b03614240576141ec677359462396603a7d60c01b610b56565b61420067876dbc0672651ba860c01b610b56565b60018060008282546142129190617fd5565b9250508190555061422d67a74456cd9d9c4d2760c01b610b56565b6009600061423b9190617e46565b614255565b61425467d9a962d5b0845c5b60c01b610b56565b5b614269676d683e4360db63c660c01b610b56565b61427d6717351045fab6aaaf60c01b610b56565b7f4887f063ba2113285aba0e893c372b65da5e458b463fb01fdf1fe0d266acff0e600860000160189054906101000a900460ff16600860000160009054906101000a900467ffffffffffffffff16600860000160089054906101000a900467ffffffffffffffff166040516142f4939291906192e3565b60405180910390a1505050505b565b614317677ce19075d9264fc760c01b610b56565b61432b6790d146cfdb4a700860c01b610b56565b61433f67a957d9dd9cfdcd8d60c01b610b56565b61435367baa531c98488096460c01b610b56565b3073ffffffffffffffffffffffffffffffffffffffff163373ffffffffffffffffffffffffffffffffffffffff16146143e05761439a6771213607ea932ba360c01b610b56565b6143ae67a720dbe16b09c1ea60c01b610b56565b6040517f54348f0300000000000000000000000000000000000000000000000000000000815260040160405180910390fd5b6143f4677b1fb75ea9e0bd6360c01b610b56565b61440867219188842744002060c01b610b56565b61441c6744f55be940b9d2e060c01b610b56565b6144306776535d6bb8d3bc2060c01b610b56565b8061445f6000357fffffffff0000000000000000000000000000000000000000000000000000000016826146cb565b6144a057806040517f73330d9b00000000000000000000000000000000000000000000000000000000815260040161449791906183b9565b60405180910390fd5b6144b467828f55ea4dfb873560c01b610b56565b6144c867ca0c89d92055b49060c01b610b56565b6144dc67ea34744f3a1a8bf560c01b610b56565b816003819055506144f767894d870e29b05a2860c01b610b56565b61450b67aac60ff94eddcac960c01b610b56565b7f7d6e1cf0de9a5ba39e02e05972eb08471682fc361b20458a3f200f7bf087b5358260405161453a91906183b9565b60405180910390a15050565b60088060000160009054906101000a900467ffffffffffffffff16908060000160089054906101000a900467ffffffffffffffff16908060000160109054906101000a900467ffffffffffffffff16908060000160189054906101000a900460ff16905084565b6145b5617e67565b60008083805190602001207bffffffffffffffffffffffffffffffffffffffffffffffffffffffff19167bffffffffffffffffffffffffffffffffffffffffffffffffffffffff191681526020019081526020016000206040518060400160405290816000820160009054906101000a900460e01b7bffffffffffffffffffffffffffffffffffffffffffffffffffffffff19167bffffffffffffffffffffffffffffffffffffffffffffffffffffffff19168152602001600182018054806020026020016040519081016040528092919081815260200182805480156146bb57602002820191906000526020600020905b8154815260200190600101908083116146a7575b5050505050815250509050919050565b600080600080857bffffffffffffffffffffffffffffffffffffffffffffffffffffffff19167bffffffffffffffffffffffffffffffffffffffffffffffffffffffff191681526020019081526020016000206040518060400160405290816000820160009054906101000a900460e01b7bffffffffffffffffffffffffffffffffffffffffffffffffffffffff19167bffffffffffffffffffffffffffffffffffffffffffffffffffffffff19168152602001600182018054806020026020016040519081016040528092919081815260200182805480156147cd57602002820191906000526020600020905b8154815260200190600101908083116147b9575b50505050508152505090506000816020015151036147ef57600091505061492b565b6000816020015190506000614807836000015161749a565b905060005b8251811015614922578183828151811061482957614828619038565b5b602002602001015103614915576000808211614860578360008151811061485357614852619038565b5b6020026020010151614888565b8360018361486e9190618ebe565b8151811061487f5761487e619038565b5b60200260200101515b905060006001855161489a9190618ebe565b83106148cd5784600186516148af9190618ebe565b815181106148c0576148bf619038565b5b60200260200101516148f5565b846001846148db9190617fd5565b815181106148ec576148eb619038565b5b60200260200101515b90508188141580156149075750808814155b15965050505050505061492b565b808060010191505061480c565b50600093505050505b92915050565b60125481565b600061494d6722e82749e5a3a3b860c01b610b56565b61496167c6ed58f0760be63860c01b610b56565b61497567f952d742734a5c2a60c01b610b56565b614990601060008481526020019081526020016000206175c5565b9050919050565b61499f617ea0565b6149b3671fc01eef85ac908a60c01b610b56565b6149c767f0badaf977c1fe9060c01b610b56565b6149db67b57fb881507da92c60c01b610b56565b600a6000838152602001908152602001600020604051806101600160405290816000820160009054906101000a900473ffffffffffffffffffffffffffffffffffffffff1673ffffffffffffffffffffffffffffffffffffffff1673ffffffffffffffffffffffffffffffffffffffff1681526020016000820160149054906101000a900467ffffffffffffffff1667ffffffffffffffff1667ffffffffffffffff16815260200160008201601c9054906101000a900460ff166006811115614aa757614aa661802f565b5b6006811115614ab957614ab861802f565b5b815260200160018201805480602002602001604051908101604052809291908181526020018280548015614b4257602002820191906000526020600020905b8160009054906101000a900473ffffffffffffffffffffffffffffffffffffffff1673ffffffffffffffffffffffffffffffffffffffff1681526020019060010190808311614af8575b5050505050815260200160028201805480602002602001604051908101604052809291908181526020018280548015614b9a57602002820191906000526020600020905b815481526020019060010190808311614b86575b5050505050815260200160038201805480602002602001604051908101604052809291908181526020016000905b82821015614c74578382906000526020600020018054614be790618e54565b80601f0160208091040260200160405190810160405280929190818152602001828054614c1390618e54565b8015614c605780601f10614c3557610100808354040283529160200191614c60565b820191906000526020600020905b815481529060010190602001808311614c4357829003601f168201915b505050505081526020019060010190614bc8565b505050508152602001600482018054614c8c90618e54565b80601f0160208091040260200160405190810160405280929190818152602001828054614cb890618e54565b8015614d055780601f10614cda57610100808354040283529160200191614d05565b820191906000526020600020905b815481529060010190602001808311614ce857829003601f168201915b50505050508152602001600582018054614d1e90618e54565b80601f0160208091040260200160405190810160405280929190818152602001828054614d4a90618e54565b8015614d975780601f10614d6c57610100808354040283529160200191614d97565b820191906000526020600020905b815481529060010190602001808311614d7a57829003601f168201915b50505050508152602001600682018054614db090618e54565b80601f0160208091040260200160405190810160405280929190818152602001828054614ddc90618e54565b8015614e295780601f10614dfe57610100808354040283529160200191614e29565b820191906000526020600020905b815481529060010190602001808311614e0c57829003601f168201915b50505050508152602001600782015481526020016008820160009054906101000a900460ff166002811115614e6157614e6061802f565b5b6002811115614e7357614e7261802f565b5b815250509050919050565b600b6020528060005260406000206000915054906101000a900460ff1681565b600d602052816000526040600020602052806000526040600020600091509150508060000160009054906101000a900467ffffffffffffffff16908060000160089054906101000a900460ff1690806001018054614efb90618e54565b80601f0160208091040260200160405190810160405280929190818152602001828054614f2790618e54565b8015614f745780601f10614f4957610100808354040283529160200191614f74565b820191906000526020600020905b815481529060010190602001808311614f5757829003601f168201915b5050505050905083565b614f9267a5b30134bd611d8b60c01b610b56565b6000614f9c6175da565b905060008160000160089054906101000a900460ff1615905060008260000160009054906101000a900467ffffffffffffffff1690506000808267ffffffffffffffff16148015614fea5750825b9050600060018367ffffffffffffffff1614801561501f575060003073ffffffffffffffffffffffffffffffffffffffff163b145b90508115801561502d575080155b15615064576040517ff92ee8a900000000000000000000000000000000000000000000000000000000815260040160405180910390fd5b60018560000160006101000a81548167ffffffffffffffff021916908367ffffffffffffffff16021790555083156150b45760018560000160086101000a81548160ff0219169083151502179055505b6150c86722f8cb2fb9858a6860c01b610b56565b6150dc67c426613ff9d8a07860c01b610b56565b6150f0670f36396cd95aa71160c01b610b56565b6151046792efe67e99b0a3d360c01b610b56565b600073ffffffffffffffffffffffffffffffffffffffff168a73ffffffffffffffffffffffffffffffffffffffff16148015615150575061514f67a88d602f6203820960c01b616796565b5b806151bf5750600073ffffffffffffffffffffffffffffffffffffffff168873ffffffffffffffffffffffffffffffffffffffff161480156151a257506151a1674f8df433baf9dcef60c01b616796565b5b80156151be57506151bd673ba120c5a919235660c01b616796565b5b5b8061522e5750600073ffffffffffffffffffffffffffffffffffffffff168973ffffffffffffffffffffffffffffffffffffffff16148015615211575061521067a191c0548ec89ff460c01b616796565b5b801561522d575061522c67d125725f51137f7b60c01b616796565b5b5b8061525557506000871480156152545750615253674c944dd8e198b8d160c01b616796565b5b5b156152b45761526e67a45e2529f780a37760c01b610b56565b61528267ff342048a0058bcd60c01b610b56565b6040517fa9cb9e0d00000000000000000000000000000000000000000000000000000000815260040160405180910390fd5b6152c8676b38787b748b4d6560c01b610b56565b6152dc6784ee3133b9654e9760c01b610b56565b6152f067c46504b7ecb477b360c01b610b56565b428667ffffffffffffffff16101561535c5761531667a88a4d5959ee551660c01b610b56565b61532a6766f58846e330fd3b60c01b610b56565b6040517ffebd12a000000000000000000000000000000000000000000000000000000000815260040160405180910390fd5b615370675d2e0d957533b85a60c01b610b56565b615384674fdd0e903c4f509860c01b610b56565b615398674a6b4c45057a139160c01b610b56565b6153a0617602565b6153b4671887d0f78fba48d060c01b610b56565b89600560006101000a81548173ffffffffffffffffffffffffffffffffffffffff021916908373ffffffffffffffffffffffffffffffffffffffff160217905550615409678c6f501a1cd77dc460c01b610b56565b88600660006101000a81548173ffffffffffffffffffffffffffffffffffffffff021916908373ffffffffffffffffffffffffffffffffffffffff16021790555061545e67eb1d2c32d9dec78460c01b610b56565b87600260006101000a81548173ffffffffffffffffffffffffffffffffffffffff021916908373ffffffffffffffffffffffffffffffffffffffff1602179055506154b3673a338455caddf2ab60c01b610b56565b866003819055506154ce677a7296fe4aa0d3b560c01b610b56565b85600860000160006101000a81548167ffffffffffffffff021916908367ffffffffffffffff16021790555061550e67b8a3bd87704fb9a860c01b610b56565b611c208661551c9190618e92565b600860000160086101000a81548167ffffffffffffffff021916908367ffffffffffffffff16021790555061555b676ab4d5ade74a57dc60c01b610b56565b6000600860000160186101000a81548160ff021916908360018111156155845761558361802f565b5b021790555061559d67c9ac41c85f0b6ee760c01b610b56565b6001600860000160106101000a81548167ffffffffffffffff021916908367ffffffffffffffff1602179055506155de675ae1a3e6c304239d60c01b610b56565b600180819055506155f967a0b0380bc571148d60c01b610b56565b61560d67a6bbe408d813ab4760c01b610b56565b6000600967ffffffffffffffff81111561562a57615629618175565b5b6040519080825280602002602001820160405280156156585781602001602082028036833780820191505090505b50905061566f672cc7bf0dae602a2260c01b610b56565b678ac7230489e800008160008151811061568c5761568b619038565b5b6020026020010181815250506156ac67ddbd2caabb0e3bb560c01b610b56565b6801158e460913d00000816001815181106156ca576156c9619038565b5b6020026020010181815250506156ea6725e04fa59c27fc6460c01b610b56565b6801a055690d9db800008160028151811061570857615707619038565b5b602002602001018181525050615728676faa9b345e85573e60c01b610b56565b68022b1c8c1227a000008160038151811061574657615745619038565b5b602002602001018181525050615766673a83dfc7af6f82c460c01b610b56565b6802b5e3af16b18800008160048151811061578457615783619038565b5b6020026020010181815250506157a467084a21fd34a6d54c60c01b610b56565b680340aad21b3b700000816005815181106157c2576157c1619038565b5b6020026020010181815250506157e267b0ca15f9d466284d60c01b610b56565b6803cb71f51fc558000081600681518110615800576157ff619038565b5b602002602001018181525050615820675b8fd007bb30a26b60c01b610b56565b6804563918244f4000008160078151811061583e5761583d619038565b5b60200260200101818152505061585e678ad7e8873609e6a060c01b610b56565b6804e1003b28d92800008160088151811061587c5761587b619038565b5b60200260200101818152505061589c67b0173bd08b18b93060c01b610b56565b6158b06763cb3ce6694a02d560c01b610b56565b6159256040518060400160405280601d81526020017f73657443726561746550726f706f73616c4665652875696e74323536290000008152506040518060400160405280601381526020017f63726561746550726f706f73616c46656528290000000000000000000000000081525083612398565b5083156159825760008560000160086101000a81548160ff0219169083151502179055507fc7f505b2f371ae2175ee4913f4499e1f2633a7b5936321eed1cdaeb6115181d260016040516159799190619317565b60405180910390a15b50505050505050505050565b6103e881565b600981815481106159a457600080fd5b906000526020600020016000915090505481565b60006159ce6725e474b673318d1860c01b610b56565b6159e2673a04244836d6c1ed60c01b610b56565b6159f6676759a4a67193e87d60c01b610b56565b60015460125414158015615a0c57506000601154115b15615a5657615a25678a84820f4e495a6160c01b610b56565b615a3967ce44926ce43b3f3460c01b610b56565b615a4d675f0302f30543594d60c01b610b56565b60019050615a97565b615a6a670b87b0145cd700b360c01b610b56565b615a7e677c59556848ba581a60c01b610b56565b615a92676226b44489524d0460c01b610b56565b600090505b90565b60035481565b615aa8616ce2565b600073ffffffffffffffffffffffffffffffffffffffff168173ffffffffffffffffffffffffffffffffffffffff1603615b1a5760006040517f1e4fbdf7000000000000000000000000000000000000000000000000000000008152600401615b1191906188c8565b60405180910390fd5b615b2381616da9565b50565b60115481565b615b40679b82146dc7dd225860c01b610b56565b615b48617614565b615b5c6795047c261b8c19ed60c01b610b56565b615b706795761b6cd13c2ceb60c01b610b56565b80615b8567fe867c441df75adc60c01b610b56565b615b99670ac6f8b8a58cbe5060c01b610b56565b615bad67e4e7b4e17f47075a60c01b610b56565b615bb6816113d6565b615c1f57615bce671bd5d837f6f141f460c01b610b56565b615be2678e282d1a0d1eee9360c01b610b56565b806040517f986731a1000000000000000000000000000000000000000000000000000000008152600401615c1691906183b9565b60405180910390fd5b615c33672738731a6cd452d560c01b610b56565b615c4767ab6ec35c842c9e2e60c01b610b56565b615c5b672273b5c6fb41f9a260c01b610b56565b615c6f6739332b33f2ebff5060c01b610b56565b615c8367c313de057b866f1c60c01b610b56565b615c9767649e5603d9f9112d60c01b610b56565b615ca2826004615fb2565b615cb66793e088af1c1c533160c01b610b56565b615cca67db7ce9228f7f877560c01b610b56565b615cd38261766b565b615ce7670c6d127e5874657260c01b610b56565b615cfb67b637281dba9015f260c01b610b56565b6000600a60008481526020019081526020016000209050615d26674885994ff969c52960c01b610b56565b600681600001601c6101000a81548160ff02191690836006811115615d4e57615d4d61802f565b5b0217905550615d6767707af6abb4af4f3a60c01b610b56565b615d7b6788c5f19531481cf260c01b610b56565b615f3381600101805480602002602001604051908101604052809291908181526020018280548015615e0257602002820191906000526020600020905b8160009054906101000a900473ffffffffffffffffffffffffffffffffffffffff1673ffffffffffffffffffffffffffffffffffffffff1681526020019060010190808311615db8575b505050505082600201805480602002602001604051908101604052809291908181526020018280548015615e5557602002820191906000526020600020905b815481526020019060010190808311615e41575b505050505083600301805480602002602001604051908101604052809291908181526020016000905b82821015615f2a578382906000526020600020018054615e9d90618e54565b80601f0160208091040260200160405190810160405280929190818152602001828054615ec990618e54565b8015615f165780601f10615eeb57610100808354040283529160200191615f16565b820191906000526020600020905b815481529060010190602001808311615ef957829003601f168201915b505050505081526020019060010190615e7e565b50505050617884565b615f476718d5373d7b6f1e7760c01b610b56565b615f5b67fad5492667ebd85060c01b610b56565b823373ffffffffffffffffffffffffffffffffffffffff167f7bfd03e44f31b1867e10c41d419cd8073b4719d321ccc5c3a3c79ac2babab3c360405160405180910390a35050615fa9617ab7565b50565b60015481565b615fc6671673af0eaeac9f8f60c01b610b56565b615fda6712d3fedc2649634b60c01b610b56565b615fee67dac7ff1127cfc1cf60c01b610b56565b6000615ff983614997565b60400151905061601367d63be2918e93002360c01b610b56565b616027673f3e00d5c8f23f7660c01b610b56565b81600681111561603a5761603961802f565b5b81600681111561604d5761604c61802f565b5b146160b9576160666716e5ad9660558c0260c01b610b56565b61607a6796679b23031f3e9160c01b610b56565b82816040517f605cfad50000000000000000000000000000000000000000000000000000000081526004016160b0929190618f6e565b60405180910390fd5b6160cd67a004c8bfb0b7907360c01b610b56565b505050565b6160da617cda565b6160ee675ce9e4702107316b60c01b610b56565b61610267b42994c391c0347660c01b610b56565b6161166715a16aa7d1d73fe860c01b610b56565b6000600a600085815260200190815260200160002060000160149054906101000a900467ffffffffffffffff169050616159673dbceb6add57da2760c01b610b56565b61616d678a3dbb0a4080c00f60c01b610b56565b616175617cda565b61618967e303b289110c4b0a60c01b610b56565b61619d676c90076ea130860660c01b610b56565b60006161a886613afb565b90506161be67cadd61e9a19686e060c01b610b56565b6161d2672c0e217b383c835960c01b610b56565b60005b815181101561663a576161f2679e42d893c8cbbfc260c01b610b56565b616206679f2acb13a5e18d1b60c01b610b56565b600082828151811061621b5761621a619038565b5b6020026020010151905061623967af9f16021944d3f960c01b610b56565b61624d67d59ad5147041cb5b60c01b610b56565b60006162636704cc588812e4095060c01b610b56565b616277673827fb9b70035fed60c01b610b56565b871561630757616291673b2bdc59a50c866360c01b610b56565b6162a567742cd7c0260e127860c01b610b56565b600e60008767ffffffffffffffff16815260200190815260200160002060008373ffffffffffffffffffffffffffffffffffffffff1673ffffffffffffffffffffffffffffffffffffffff1681526020019081526020016000205490506163ce565b61631b67cedaefd85155f03b60c01b610b56565b61632f67affdb9554c85cc8b60c01b610b56565b600660009054906101000a900473ffffffffffffffffffffffffffffffffffffffff1673ffffffffffffffffffffffffffffffffffffffff16635267e1d6836040518263ffffffff1660e01b815260040161638a91906188c8565b602060405180830381865afa1580156163a7573d6000803e3d6000fd5b505050506040513d601f19601f820116820180604052508101906163cb9190619332565b90505b6163e26761f3773d76ef4a8e60c01b610b56565b6163f667130d6eda0169f01660c01b610b56565b6000600d60008b815260200190815260200160002060008473ffffffffffffffffffffffffffffffffffffffff1673ffffffffffffffffffffffffffffffffffffffff16815260200190815260200160002060000160089054906101000a900460ff16905061646f672157d1c6e2c2751460c01b610b56565b616483675929a289984a711e60c01b610b56565b6002808111156164965761649561802f565b5b8160028111156164a9576164a861802f565b5b03616538576164c2677c56ce201666ef9360c01b610b56565b6164d667d2d4127f2eaf461360c01b610b56565b6001866000018181516164e99190618e92565b91509067ffffffffffffffff16908167ffffffffffffffff168152505061651a67e635791d129cd09560c01b610b56565b818660400181815161652c9190617fd5565b9150818152505061662c565b61654c67e95ee9d1d3c73ac160c01b610b56565b61656067d9346dc0cdab52af60c01b610b56565b600160028111156165745761657361802f565b5b8160028111156165875761658661802f565b5b03616616576165a067ef2dd4ad8eee7a3360c01b610b56565b6165b4673e4fd2e207933b5360c01b610b56565b6001866020018181516165c79190618e92565b91509067ffffffffffffffff16908167ffffffffffffffff16815250506165f867cc746c7ec8063f7d60c01b610b56565b818660600181815161660a9190617fd5565b9150818152505061662b565b61662a67aac24278dd7e61fd60c01b610b56565b5b5b5050508060010190506161d5565b5061664f67e6b8c861ff269b9b60c01b610b56565b6166636715a571f3f1d42ebd60c01b610b56565b81935050505092915050565b6166836788a7b0f57e1d09c260c01b610b56565b616697670eb0dd04905fc18660c01b610b56565b6166ab6750d1784fdb894f0e60c01b610b56565b6000600c600084815260200190815260200160002090506166d66723acc08368474a7d60c01b610b56565b81602001518160000160086101000a81548167ffffffffffffffff021916908367ffffffffffffffff16021790555061671967b8e551c28b7df5c160c01b610b56565b81600001518160000160006101000a81548167ffffffffffffffff021916908367ffffffffffffffff16021790555061675c67652e673fabcdc1c660c01b610b56565b8160600151816002018190555061677d67f9a45deba2d369f560c01b610b56565b81604001518160010181905550505050565b6000919050565b600060019050919050565b60006167b767c6dac15fc32ded0360c01b610b56565b6167cb6739ee14ce6d91c38060c01b610b56565b6167df671cd556df2e59538360c01b610b56565b600660009054906101000a900473ffffffffffffffffffffffffffffffffffffffff1673ffffffffffffffffffffffffffffffffffffffff1663567e98f96040518163ffffffff1660e01b8152600401602060405180830381865afa15801561684c573d6000803e3d6000fd5b505050506040513d601f19601f820116820180604052508101906168709190619332565b905090565b600061688b6749b8a07f9d53215560c01b610b56565b61689f67b3d64650533ba0e360c01b610b56565b6168b36787b55a1d44dee4f460c01b610b56565b6000600560009054906101000a900473ffffffffffffffffffffffffffffffffffffffff1673ffffffffffffffffffffffffffffffffffffffff1662535175846040518263ffffffff1660e01b815260040161690f91906188c8565b602060405180830381865afa15801561692c573d6000803e3d6000fd5b505050506040513d601f19601f82011682018060405250810190616950919061934e565b90506169666751efd911eac677a060c01b610b56565b61697a671e970085ba903db960c01b610b56565b600560009054906101000a900473ffffffffffffffffffffffffffffffffffffffff1673ffffffffffffffffffffffffffffffffffffffff1663a0d16cad826040518263ffffffff1660e01b81526004016169d591906188c8565b602060405180830381865afa1580156169f2573d6000803e3d6000fd5b505050506040513d601f19601f82011682018060405250810190616a16919061906f565b8015616abb5750600560009054906101000a900473ffffffffffffffffffffffffffffffffffffffff1673ffffffffffffffffffffffffffffffffffffffff1663a92252ae826040518263ffffffff1660e01b8152600401616a7891906188c8565b602060405180830381865afa158015616a95573d6000803e3d6000fd5b505050506040513d601f19601f82011682018060405250810190616ab9919061906f565b155b915050919050565b616ad767fdc2a317f3a8dcfb60c01b610b56565b616aeb673fbdc2b58b2ce6fa60c01b610b56565b616aff67115fa73e728c3c1160c01b610b56565b616b0a836002615fb2565b616b1e67a3d46196dc1ae8c860c01b610b56565b616b3267b99e77db64693f8c60c01b610b56565b616b7a84600f6000600860000160109054906101000a900467ffffffffffffffff1667ffffffffffffffff168152602001908152602001600020617ad090919063ffffffff16565b50616b8f67dbcd7741d57efb1b60c01b610b56565b616ba3672dc00f5ece0f731360c01b610b56565b616bc88460106000868152602001908152602001600020617ad090919063ffffffff16565b50616bdd6780a3c02d704c0eec60c01b610b56565b60405180606001604052804267ffffffffffffffff168152602001836002811115616c0b57616c0a61802f565b5b815260200182815250600d600085815260200190815260200160002060008673ffffffffffffffffffffffffffffffffffffffff1673ffffffffffffffffffffffffffffffffffffffff16815260200190815260200160002060008201518160000160006101000a81548167ffffffffffffffff021916908367ffffffffffffffff16021790555060208201518160000160086101000a81548160ff02191690836002811115616cbe57616cbd61802f565b5b02179055506040820151816001019081616cd89190619116565b5090505050505050565b616cea617b00565b73ffffffffffffffffffffffffffffffffffffffff16616d0861342e565b73ffffffffffffffffffffffffffffffffffffffff1614616d6757616d2b617b00565b6040517f118cdaa7000000000000000000000000000000000000000000000000000000008152600401616d5e91906188c8565b60405180910390fd5b565b616d71617b08565b616da7576040517fd7e6bcf800000000000000000000000000000000000000000000000000000000815260040160405180910390fd5b565b6000616db3617224565b905060008160000160009054906101000a900473ffffffffffffffffffffffffffffffffffffffff169050828260000160006101000a81548173ffffffffffffffffffffffffffffffffffffffff021916908373ffffffffffffffffffffffffffffffffffffffff1602179055508273ffffffffffffffffffffffffffffffffffffffff168173ffffffffffffffffffffffffffffffffffffffff167f8be0079c531659141344cd1fd0a4f28419497f9722a3daafe3b4186f6b6457e060405160405180910390a3505050565b600080616e9767c31fbf0e294f046a60c01b610b56565b616eab6749d6f358eb28377c60c01b610b56565b60208301519150616ec66760ca08ea53885bf460c01b610b56565b60248301519050915091565b6000616ee86773af8736b728aeca60c01b610b56565b616efc677eaa6e5d4f5a997b60c01b610b56565b60009050616f1467d3d9e6d95f06385a60c01b610b56565b616f28675021ce68f67e203360c01b610b56565b60005b82518110156170c557616f4867dbc66a1abcb1394860c01b610b56565b616f5c67c68c0e731c24b30d60c01b610b56565b6000838281518110616f7157616f70619038565b5b60200260200101515103616f9857616f93678382538c3a644cb960c01b610b56565b6170b8565b616fac67553b3bc69737c88960c01b610b56565b616fc067a9ac84980634f9c360c01b610b56565b616fd467ad7b610d0a25ffdf60c01b610b56565b600b6000858381518110616feb57616fea619038565b5b602002602001015173ffffffffffffffffffffffffffffffffffffffff1673ffffffffffffffffffffffffffffffffffffffff16815260200190815260200160002060009054906101000a900460ff161561707157617054672c76127276c7d66660c01b610b56565b6170686758da227c5404109060c01b610b56565b600291506170b7565b61708567c55e899eafe855a560c01b610b56565b61709967e62689a475984ac760c01b610b56565b6170ad67486366a56fc1244360c01b610b56565b60019150506170c7565b5b8080600101915050616f2b565b505b92915050565b6170e1675faed9f01580a71560c01b610b56565b6170f56702358151ddf5bd6460c01b610b56565b6171096770d9f284f8b8e51d60c01b610b56565b60008273ffffffffffffffffffffffffffffffffffffffff168260405161712f90619375565b60006040518083038185875af1925050503d806000811461716c576040519150601f19603f3d011682016040523d82523d6000602084013e617171565b606091505b5050905061718967983c3963f2ad2f6660c01b610b56565b61719d675519377d34091a2260c01b610b56565b8061720b576171b667aba8a849377a497960c01b610b56565b6171ca673d77922ae5a3229f60c01b610b56565b3083836040517fbf182be80000000000000000000000000000000000000000000000000000000081526004016172029392919061937f565b60405180910390fd5b61721f67a85068037c00c29060c01b610b56565b505050565b60007f9016d09d72d40fdae2fd8ceac6b6234c7706214fd39c1cd1e609a0528c199300905090565b6060600061725c83600001617b28565b905060608190508092505050919050565b61728167f2e3babef66f1fe860c01b610b56565b617295671dc5cfbd389c71ea60c01b610b56565b6172a967e4362703998a619e60c01b610b56565b60006172d0600f60008467ffffffffffffffff16815260200190815260200160002061724c565b90506172e66797524fc115e8560060c01b610b56565b6172fa67da206d0fcf87bb4a60c01b610b56565b60005b81518110156174955761731a67db22d68b43cea67160c01b610b56565b61732e674ff0d8a9f1541aa760c01b610b56565b600082828151811061734357617342619038565b5b60200260200101519050617361675202129a9451585960c01b610b56565b6173756726a917538cd70ed860c01b610b56565b6000600660009054906101000a900473ffffffffffffffffffffffffffffffffffffffff1673ffffffffffffffffffffffffffffffffffffffff16635267e1d6836040518263ffffffff1660e01b81526004016173d291906188c8565b602060405180830381865afa1580156173ef573d6000803e3d6000fd5b505050506040513d601f19601f820116820180604052508101906174139190619332565b905061742967ecaee837cc69006d60c01b610b56565b80600e60008767ffffffffffffffff16815260200190815260200160002060008473ffffffffffffffffffffffffffffffffffffffff1673ffffffffffffffffffffffffffffffffffffffff1681526020019081526020016000208190555050508060010190506172fd565b505050565b60008082604051602401604051602081830303815290604052907bffffffffffffffffffffffffffffffffffffffffffffffffffffffff19166020820180517bffffffffffffffffffffffffffffffffffffffffffffffffffffffff838183161783525050505090506000803073ffffffffffffffffffffffffffffffffffffffff168360405161752b91906193aa565b600060405180830381855afa9150503d8060008114617566576040519150601f19603f3d011682016040523d82523d6000602084013e61756b565b606091505b5091509150816175a7576040517fbf75613600000000000000000000000000000000000000000000000000000000815260040160405180910390fd5b808060200190518101906175bb9190619332565b9350505050919050565b60006175d382600001617b84565b9050919050565b60007ff0c57e16840df040f15088dc2f81fe391c3923bec73e23a9662efc9c229c6a00905090565b61760a616d69565b617612617b95565b565b600061761e617bb6565b9050600281600001540361765e576040517f3ee5aeb500000000000000000000000000000000000000000000000000000000815260040160405180910390fd5b6002816000018190555050565b61767f6743c8a0d6c6317d2960c01b610b56565b61769367f3bd975489a0d70e60c01b610b56565b6176a767e4aacc16b75014b560c01b610b56565b60006176b282614997565b90506176c867682f15b85095125a60c01b610b56565b6176dc67cb39888169b542cd60c01b610b56565b60015460018261012001516176f19190617fd5565b1461775b5761770a67588a932c0d4befb260c01b610b56565b61771e671cf87967ebaf4b8860c01b610b56565b816040517f1902d7cf00000000000000000000000000000000000000000000000000000000815260040161775291906183b9565b60405180910390fd5b61776f671a468f7f8aa2790760c01b610b56565b6177836705c466d939e3377e60c01b610b56565b61779767c980725f331eaf0560c01b610b56565b600160028111156177ab576177aa61802f565b5b81610140015160028111156177c3576177c261802f565b5b14801561780057503373ffffffffffffffffffffffffffffffffffffffff16816000015173ffffffffffffffffffffffffffffffffffffffff1614155b1561786c5761781967743e501a282497d760c01b610b56565b61782d677ec1efbe7c5abf8960c01b610b56565b81336040517fda1c10760000000000000000000000000000000000000000000000000000000081526004016178639291906193c8565b60405180910390fd5b61788067fa8fd8e971577a5960c01b610b56565b5050565b617898673ea32ca4810830f760c01b610b56565b6178ac67c92f1f19f10adffb60c01b610b56565b6178c067fc83b337cc7630b160c01b610b56565b60005b8351811015617ab1576178e06729299bab3bdfaf7c60c01b610b56565b6178f467de0c4038a16c2e8b60c01b610b56565b60008085838151811061790a57617909619038565b5b602002602001015173ffffffffffffffffffffffffffffffffffffffff1685848151811061793b5761793a619038565b5b602002602001015185858151811061795657617955619038565b5b602002602001015160405161796b91906193aa565b60006040518083038185875af1925050503d80600081146179a8576040519150601f19603f3d011682016040523d82523d6000602084013e6179ad565b606091505b50915091506179c667cb267a3f58759f8260c01b610b56565b6179da67130007f9cbbe096360c01b610b56565b6179e48282617bde565b506179f9672720078e657c8bdc60c01b610b56565b617a0d67e2fde6237dd1113a60c01b610b56565b6000858481518110617a2257617a21619038565b5b602002602001015114617a8f57617a4367702468529a6a4fb760c01b610b56565b617a57671fae270805d7d05f60c01b610b56565b848381518110617a6a57617a69619038565b5b602002602001015160046000828254617a839190618ebe565b92505081905550617aa4565b617aa367f0ba990480e32e6960c01b610b56565b5b50508060010190506178c3565b50505050565b6000617ac1617bb6565b90506001816000018190555050565b6000617af8836000018373ffffffffffffffffffffffffffffffffffffffff1660001b617c02565b905092915050565b600033905090565b6000617b126175da565b60000160089054906101000a900460ff16905090565b606081600001805480602002602001604051908101604052809291908181526020018280548015617b7857602002820191906000526020600020905b815481526020019060010190808311617b64575b50505050509050919050565b600081600001805490509050919050565b617b9d616d69565b6000617ba7617bb6565b90506001816000018190555050565b60007f9b779b17422d0df92223018b32b4d1fa46e071723d6817e2486d003becc55f00905090565b606082617bf357617bee82617c72565b617bfb565b819050617bfc565b5b92915050565b6000617c0e8383617cb7565b617c67578260000182908060018154018082558091505060019003906000526020600020016000909190919091505582600001805490508360010160008481526020019081526020016000208190555060019050617c6c565b600090505b92915050565b600081511115617c855780518082602001fd5b6040517f1425ea4200000000000000000000000000000000000000000000000000000000815260040160405180910390fd5b600080836001016000848152602001908152602001600020541415905092915050565b6040518060800160405280600067ffffffffffffffff168152602001600067ffffffffffffffff16815260200160008152602001600081525090565b828054828255906000526020600020908101928215617d52579160200282015b82811115617d51578251825591602001919060010190617d36565b5b509050617d5f9190617f3e565b5090565b828054828255906000526020600020908101928215617ddc579160200282015b82811115617ddb5782518260006101000a81548173ffffffffffffffffffffffffffffffffffffffff021916908373ffffffffffffffffffffffffffffffffffffffff16021790555091602001919060010190617d83565b5b509050617de99190617f3e565b5090565b828054828255906000526020600020908101928215617e35579160200282015b82811115617e34578251829081617e2491906193e8565b5091602001919060010190617e0d565b5b509050617e429190617f5b565b5090565b5080546000825590600052602060002090810190617e649190617f3e565b50565b604051806040016040528060007bffffffffffffffffffffffffffffffffffffffffffffffffffffffff19168152602001606081525090565b604051806101600160405280600073ffffffffffffffffffffffffffffffffffffffff168152602001600067ffffffffffffffff16815260200160006006811115617eee57617eed61802f565b5b81526020016060815260200160608152602001606081526020016060815260200160608152602001606081526020016000815260200160006002811115617f3857617f3761802f565b5b81525090565b5b80821115617f57576000816000905550600101617f3f565b5090565b5b80821115617f7b5760008181617f729190617f7f565b50600101617f5c565b5090565b508054617f8b90618e54565b6000825580601f10617f9d5750617fbc565b601f016020900490600052602060002090810190617fbb9190617f3e565b5b50565b634e487b7160e01b600052601160045260246000fd5b6000828201905080821115617fed57617fec617fbf565b5b92915050565b60006020828403121561800557600080fd5b8135905092915050565b60018060a01b03811682525050565b67ffffffffffffffff811682525050565b634e487b7160e01b600052602160045260246000fd5b600781106180565761805561802f565b5b8082525050565b60005b8381101561807b578082015181840152602081019050618060565b50600083830152505050565b6000815180845261809f81602086016020860161805d565b6020601f19601f83011685010191505092915050565b600381106180c6576180c561802f565b5b50565b6180d2816180b5565b8082525050565b600061010060018060a01b038b16835267ffffffffffffffff8a166020840152618106604084018a618045565b80606084015261811881840189618087565b9050828103608084015261812c8188618087565b905082810360a08401526181408187618087565b9150508360c0830152618152836180b5565b8260e08301529998505050505050505050565b6003811061817257600080fd5b50565b634e487b7160e01b600052604160045260246000fd5b60006040519050601f19601f830116810181811067ffffffffffffffff821117156181b9576181b8618175565b5b8060405250919050565b60008135905067ffffffffffffffff811681146181df57600080fd5b919050565b60008082840360a08112156181f857600080fd5b833561820381618165565b809350506080601f198201121561821957600080fd5b506040516080810181811067ffffffffffffffff8211171561823e5761823d618175565b5b806040525061824f602085016181c3565b815261825d604085016181c3565b60208201526060840135604082015260808401356060820152809150509250929050565b6000602082019050821515825292915050565b600060208201905060018060a01b038316825292915050565b60008083601f8401126182bf57600080fd5b8235905067ffffffffffffffff8111156182d857600080fd5b6020830191508360208285010111156182f057600080fd5b9250929050565b60008060006040848603121561830c57600080fd5b83359250602084013567ffffffffffffffff81111561832a57600080fd5b618336868287016182ad565b915080935050809150509250925092565b600060808201905067ffffffffffffffff80845116835280602085015116602084015250604083015160408301526060830151606083015292915050565b600060808201905067ffffffffffffffff808716835280861660208401525083604083015282606083015295945050505050565b600060208201905082825292915050565b600080600080606085870312156183e057600080fd5b8435935060208501356183f281618165565b80935050604085013567ffffffffffffffff81111561841057600080fd5b61841c878288016182ad565b9150809350508091505092959194509250565b600067ffffffffffffffff83111561844a57618449618175565b5b61845d6020601f19601f8601160161818b565b905082815283838301111561847157600080fd5b828260208301376000602084830101529392505050565b600082601f83011261849957600080fd5b6184a88383356020850161842f565b905092915050565b600067ffffffffffffffff8211156184cb576184ca618175565b5b60208260051b019050919050565b600082601f8301126184ea57600080fd5b813560206184ff6184fa836184b0565b61818b565b8083825260208201915060208460051b87010193508684111561852157600080fd5b602086015b84811015618541578035835283830192508381019050618526565b508094505050505092915050565b60008060006060848603121561856457600080fd5b833567ffffffffffffffff8082111561857c57600080fd5b61858887838801618488565b9450602086013591508082111561859e57600080fd5b6185aa87838801618488565b935060408601359150808211156185c057600080fd5b506185cd868287016184d9565b9150509250925092565b600060808201905067ffffffffffffffff80871683528086166020840152808516604084015280841660608401525095945050505050565b60018060a01b038116811461862357600080fd5b50565b801515811461863457600080fd5b50565b6000806040838503121561864a57600080fd5b82356186558161860f565b80925050602083013561866781618626565b809150509250929050565b6000806040838503121561868557600080fd5b8235915060208301356186978161860f565b809150509250929050565b600082601f8301126186b357600080fd5b813560206186c86186c3836184b0565b61818b565b8083825260208201915060208460051b8701019350868411156186ea57600080fd5b602086015b848110156187155780356187028161860f565b80845250838301925083810190506186ef565b508094505050505092915050565b600082601f83011261873457600080fd5b81356020618749618744836184b0565b61818b565b808382528282019150828460051b87010193508684111561876957600080fd5b8286015b848110156187c557803567ffffffffffffffff81111561878d5760008081fd5b808801905088603f8201126187a25760008081fd5b6187b389868301356040840161842f565b8452508383019250838101905061876d565b508094505050505092915050565b60008060008060008060c087890312156187ec57600080fd5b863567ffffffffffffffff8082111561880457600080fd5b6188108a838b016186a2565b9750602089013591508082111561882657600080fd5b6188328a838b016184d9565b9650604089013591508082111561884857600080fd5b6188548a838b01618723565b9550606089013591508082111561886a57600080fd5b6188768a838b01618488565b9450608089013591508082111561888c57600080fd5b6188988a838b01618488565b935060a08901359150808211156188ae57600080fd5b506188bb89828a01618488565b9150509295509295509295565b600060208201905060018060a01b038316825292915050565b60008135905063ffffffff60e01b811681146188fc57600080fd5b919050565b60006020828403121561891357600080fd5b61891c826188e1565b905092915050565b600060208201905063ffffffff60e01b8316825292915050565b600060208201905060018060a01b038316825292915050565b6000806040838503121561896a57600080fd5b82359150602083013561897c81618165565b809150509250929050565b6000806000806080858703121561899d57600080fd5b843567ffffffffffffffff808211156189b557600080fd5b6189c1888389016186a2565b955060208701359150808211156189d757600080fd5b6189e3888389016184d9565b945060408701359150808211156189f957600080fd5b618a0588838901618723565b93506060870135915080821115618a1b57600080fd5b50618a2887828801618488565b91505092959194509250565b60008151808452602080850194506020840160005b83811015618a6a578151875282870196508282019150600181019050618a49565b5050505082905092915050565b602081526000618a8a6020830184618a34565b905092915050565b600060208284031215618aa457600080fd5b813567ffffffffffffffff811115618abb57600080fd5b618ac784828501618488565b91505092915050565b60008151808452602080850194506020840160005b83811015618b0e5760018060a01b03825116875282870196508282019150600181019050618ae5565b5050505082905092915050565b602081526000618b2e6020830184618ad0565b905092915050565b600060208201905067ffffffffffffffff8316825292915050565b60028110618b6257618b6161802f565b5b8082525050565b600060808201905067ffffffffffffffff80871683528086166020840152808516604084015250618b9d6060830184618b51565b95945050505050565b6020815263ffffffff60e01b825116602082015260006020830151604080840152618bd46060840182618a34565b91505092915050565b60008060408385031215618bf057600080fd5b618bf9836188e1565b9150602083013590509250929050565b60008282518085526020808601955060208260051b8401016020860160005b84811015618c5b57601f19868403018952618c44838351618087565b925083820191508389019850600181019050618c28565b50508094505050505092915050565b60208152618c7c60208201835161800f565b60006020830151618c90604084018261801e565b506040830151618ca36060840182618045565b506060830151610160806080850152618cc0610180850183618ad0565b91506080850151601f19808685030160a0870152618cde8483618a34565b935060a08701519150808685030160c0870152618cfb8483618c09565b935060c08701519150808685030160e0870152618d188483618087565b935060e08701519150610100818786030181880152618d378584618087565b945080880151925050610120818786030181880152618d568584618087565b94508088015192505050610140818187015280870151915050618d7b828601826180c9565b50508091505092915050565b600060208284031215618d9957600080fd5b8135618da48161860f565b8091505092915050565b67ffffffffffffffff84168152618dc4836180b5565b826020820152606060408201526000618de06060830184618087565b9050949350505050565b600080600080600060a08688031215618e0257600080fd5b8535618e0d8161860f565b809550506020860135618e1f8161860f565b809450506040860135618e318161860f565b8093505060608601359150618e48608087016181c3565b90509295509295909350565b60008160011c90506001821680618e6c57607f821691505b602082108103618e8c57634e487b7160e01b600052602260045260246000fd5b50919050565b600067ffffffffffffffff80841681841601915080821115618eb757618eb6617fbf565b5b5092915050565b6000828203905081811115618ed657618ed5617fbf565b5b92915050565b600082820290508181048314821517618ef857618ef7617fbf565b5b92915050565b600082618f1b57634e487b7160e01b600052601260045260246000fd5b828204905092915050565b818352818160208501375060006020828401015260006020601f19601f840116840101905092915050565b602081526000618f65602083018486618f26565b90509392505050565b6000604082019050838252618f866020830184618045565b9392505050565b6000602082019050618f9f8284618b51565b92915050565b618fae846180b5565b838152604060208201526000618fc8604083018486618f26565b9050949350505050565b606081526000618fe56060830186618087565b8281036020840152618ff78186618087565b9050828103604084015261900b8185618a34565b915050949350505050565b600060408201905060018060a01b038416825282151560208301529392505050565b634e487b7160e01b600052603260045260246000fd5b600060408201905063ffffffff60e01b841682528260208301529392505050565b60006020828403121561908157600080fd5b815161908c81618626565b8091505092915050565b806000525060006020600020905090565b601f8211156190f7576000816000526020600020601f850160051c810160208610156190d1578190505b601f850160051c820191505b818110156190f3578281556001810190506190dd565b5050505b505050565b60008260011b6000198460031b1c19831617905092915050565b815167ffffffffffffffff81111561913157619130618175565b5b6191458161913f8454618e54565b846190a7565b60006020809150601f8311600181146191795760008415619167578387015190505b61917185826190fc565b8655506191d8565b601f19841661918786619096565b60005b828110156191ad578589015182556001820191508486019550848101905061918a565b50858210156191cc578488015160001960f88860031b161c1981168255505b505060018460011b0185555b505050505050565b60c0815260006191f360c0830189618ad0565b82810360208401526192058189618a34565b905082810360408401526192198188618c09565b9050828103606084015261922d8187618087565b905082810360808401526192418186618087565b905082810360a08401526192558185618087565b915050979650505050505050565b6000602082019050619274836180b5565b82825292915050565b6080815260006192906080830187618ad0565b82810360208401526192a28187618a34565b905082810360408401526192b68186618c09565b91505082606083015295945050505050565b6020815260006192db6020830184618087565b905092915050565b60006060820190506192f58286618b51565b67ffffffffffffffff8085166020840152808416604084015250949350505050565b600060208201905067ffffffffffffffff8316825292915050565b60006020828403121561934457600080fd5b8151905092915050565b60006020828403121561936057600080fd5b815161936b8161860f565b8091505092915050565b6000819050919050565b600060608201905060018060a01b038086168352808516602084015250826040830152949350505050565b600082516193bc81846020870161805d565b80830191505092915050565b600060408201905083825260018060a01b03831660208301529392505050565b815167ffffffffffffffff81111561940357619402618175565b5b619417816194118454618e54565b846190a7565b60006020809150601f83116001811461944b5760008415619439578387015190505b61944385826190fc565b8655506194aa565b601f19841661945986619096565b60005b8281101561947f578589015182556001820191508486019550848101905061945c565b508582101561949e578488015160001960f88860031b161c1981168255505b505060018460011b0185555b50505050505056fea264697066735822122025f67c192807e158647e71a1ba387ac14296cb23f789ae390ce6967b07f208c364736f6c63430008190033",
  "linkReferences": {},
  "deployedLinkReferences": {}
}