{
  "_format": "hh-sol-artifact-1",
  "contractName": "DiamondDao",
  "sourceName": "contracts/DiamondDao.sol",
  "abi": [
    {
      "inputs": [],
      "stateMutability": "nonpayable",
      "type": "constructor"
    },
    {
      "inputs": [
        {
          "internalType": "uint256",
          "name": "proposalId",
          "type": "uint256"
        },
        {
          "internalType": "address",
          "name": "voter",
          "type": "address"
        }
      ],
      "name": "AlreadyVoted",
      "type": "error"
    },
    {
      "inputs": [
        {
          "internalType": "bytes",
          "name": "funcSelector",
          "type": "bytes"
        },
        {
          "internalType": "address",
          "name": "targetContract",
          "type": "address"
        }
      ],
      "name": "ContractCallFailed",
      "type": "error"
    },
    {
      "inputs": [],
      "name": "FailedInnerCall",
      "type": "error"
    },
    {
      "inputs": [],
      "name": "GetterCallFailed",
      "type": "error"
    },
    {
      "inputs": [],
      "name": "InsufficientFunds",
      "type": "error"
    },
    {
      "inputs": [],
      "name": "InvalidArgument",
      "type": "error"
    },
    {
      "inputs": [],
      "name": "InvalidInitialization",
      "type": "error"
    },
    {
      "inputs": [],
      "name": "InvalidStartTimestamp",
      "type": "error"
    },
    {
      "inputs": [],
      "name": "NewProposalsLimitExceeded",
      "type": "error"
    },
    {
      "inputs": [
        {
          "internalType": "uint256",
          "name": "_newVal",
          "type": "uint256"
        }
      ],
      "name": "NewValueOutOfRange",
      "type": "error"
    },
    {
      "inputs": [
        {
          "internalType": "uint256",
          "name": "proposalId",
          "type": "uint256"
        },
        {
          "internalType": "address",
          "name": "voter",
          "type": "address"
        }
      ],
      "name": "NoVoteFound",
      "type": "error"
    },
    {
      "inputs": [],
      "name": "NotInitializing",
      "type": "error"
    },
    {
      "inputs": [
        {
          "internalType": "uint256",
          "name": "proposalId",
          "type": "uint256"
        },
        {
          "internalType": "address",
          "name": "caller",
          "type": "address"
        }
      ],
      "name": "NotProposer",
      "type": "error"
    },
    {
      "inputs": [],
      "name": "OnlyGovernance",
      "type": "error"
    },
    {
      "inputs": [],
      "name": "OnlyProposer",
      "type": "error"
    },
    {
      "inputs": [
        {
          "internalType": "address",
          "name": "caller",
          "type": "address"
        }
      ],
      "name": "OnlyValidators",
      "type": "error"
    },
    {
      "inputs": [
        {
          "internalType": "uint256",
          "name": "proposalId",
          "type": "uint256"
        }
      ],
      "name": "OutsideExecutionWindow",
      "type": "error"
    },
    {
      "inputs": [
        {
          "internalType": "address",
          "name": "owner",
          "type": "address"
        }
      ],
      "name": "OwnableInvalidOwner",
      "type": "error"
    },
    {
      "inputs": [
        {
          "internalType": "address",
          "name": "account",
          "type": "address"
        }
      ],
      "name": "OwnableUnauthorizedAccount",
      "type": "error"
    },
    {
      "inputs": [
        {
          "internalType": "uint256",
          "name": "proposalId",
          "type": "uint256"
        }
      ],
      "name": "ProposalAlreadyExist",
      "type": "error"
    },
    {
      "inputs": [
        {
          "internalType": "uint256",
          "name": "proposalId",
          "type": "uint256"
        }
      ],
      "name": "ProposalNotExist",
      "type": "error"
    },
    {
      "inputs": [],
      "name": "ReentrancyGuardReentrantCall",
      "type": "error"
    },
    {
      "inputs": [
        {
          "internalType": "uint256",
          "name": "proposalId",
          "type": "uint256"
        },
        {
          "internalType": "address",
          "name": "vote",
          "type": "address"
        },
        {
          "internalType": "enum Vote",
          "name": "_vote",
          "type": "uint8"
        }
      ],
      "name": "SameVote",
      "type": "error"
    },
    {
      "inputs": [
        {
          "internalType": "address",
          "name": "from",
          "type": "address"
        },
        {
          "internalType": "address",
          "name": "to",
          "type": "address"
        },
        {
          "internalType": "uint256",
          "name": "amount",
          "type": "uint256"
        }
      ],
      "name": "TransferFailed",
      "type": "error"
    },
    {
      "inputs": [
        {
          "internalType": "enum Phase",
          "name": "phase",
          "type": "uint8"
        }
      ],
      "name": "UnavailableInCurrentPhase",
      "type": "error"
    },
    {
      "inputs": [
        {
          "internalType": "uint256",
          "name": "proposalId",
          "type": "uint256"
        },
        {
          "internalType": "enum ProposalState",
          "name": "state",
          "type": "uint8"
        }
      ],
      "name": "UnexpectedProposalState",
      "type": "error"
    },
    {
      "inputs": [],
      "name": "UnfinalizedProposalsExist",
      "type": "error"
    },
    {
      "anonymous": false,
      "inputs": [
        {
          "indexed": true,
          "internalType": "address",
          "name": "voter",
          "type": "address"
        },
        {
          "indexed": true,
          "internalType": "uint256",
          "name": "proposalId",
          "type": "uint256"
        },
        {
          "indexed": true,
          "internalType": "enum Vote",
          "name": "vote",
          "type": "uint8"
        },
        {
          "indexed": false,
          "internalType": "string",
          "name": "reason",
          "type": "string"
        }
      ],
      "name": "ChangeVote",
      "type": "event"
    },
    {
      "anonymous": false,
      "inputs": [
        {
          "indexed": false,
          "internalType": "uint64",
          "name": "version",
          "type": "uint64"
        }
      ],
      "name": "Initialized",
      "type": "event"
    },
    {
      "anonymous": false,
      "inputs": [
        {
          "indexed": true,
          "internalType": "address",
          "name": "previousOwner",
          "type": "address"
        },
        {
          "indexed": true,
          "internalType": "address",
          "name": "newOwner",
          "type": "address"
        }
      ],
      "name": "OwnershipTransferred",
      "type": "event"
    },
    {
      "anonymous": false,
      "inputs": [
        {
          "indexed": true,
          "internalType": "address",
          "name": "proposer",
          "type": "address"
        },
        {
          "indexed": true,
          "internalType": "uint256",
          "name": "proposalId",
          "type": "uint256"
        },
        {
          "indexed": false,
          "internalType": "string",
          "name": "reason",
          "type": "string"
        }
      ],
      "name": "ProposalCanceled",
      "type": "event"
    },
    {
      "anonymous": false,
      "inputs": [
        {
          "indexed": true,
          "internalType": "address",
          "name": "proposer",
          "type": "address"
        },
        {
          "indexed": true,
          "internalType": "uint256",
          "name": "proposalId",
          "type": "uint256"
        },
        {
          "indexed": false,
          "internalType": "address[]",
          "name": "targets",
          "type": "address[]"
        },
        {
          "indexed": false,
          "internalType": "uint256[]",
          "name": "values",
          "type": "uint256[]"
        },
        {
          "indexed": false,
          "internalType": "bytes[]",
          "name": "calldatas",
          "type": "bytes[]"
        },
        {
          "indexed": false,
          "internalType": "string",
          "name": "title",
          "type": "string"
        },
        {
          "indexed": false,
          "internalType": "string",
          "name": "description",
          "type": "string"
        },
        {
          "indexed": false,
          "internalType": "string",
          "name": "discussionUrl",
          "type": "string"
        },
        {
          "indexed": false,
          "internalType": "uint256",
          "name": "proposalFee",
          "type": "uint256"
        }
      ],
      "name": "ProposalCreated",
      "type": "event"
    },
    {
      "anonymous": false,
      "inputs": [
        {
          "indexed": true,
          "internalType": "address",
          "name": "caller",
          "type": "address"
        },
        {
          "indexed": true,
          "internalType": "uint256",
          "name": "proposalId",
          "type": "uint256"
        }
      ],
      "name": "ProposalExecuted",
      "type": "event"
    },
    {
      "anonymous": false,
      "inputs": [
        {
          "indexed": false,
          "internalType": "bytes4",
          "name": "funcSelector",
          "type": "bytes4"
        }
      ],
      "name": "RemoveChangeableParameter",
      "type": "event"
    },
    {
      "anonymous": false,
      "inputs": [
        {
          "indexed": true,
          "internalType": "bool",
          "name": "allowed",
          "type": "bool"
        },
        {
          "indexed": false,
          "internalType": "string",
          "name": "setter",
          "type": "string"
        },
        {
          "indexed": false,
          "internalType": "string",
          "name": "getter",
          "type": "string"
        },
        {
          "indexed": false,
          "internalType": "uint256[]",
          "name": "params",
          "type": "uint256[]"
        }
      ],
      "name": "SetChangeAbleParameters",
      "type": "event"
    },
    {
      "anonymous": false,
      "inputs": [
        {
          "indexed": false,
          "internalType": "bytes4",
          "name": "setter",
          "type": "bytes4"
        },
        {
          "indexed": false,
          "internalType": "bytes4",
          "name": "getter",
          "type": "bytes4"
        },
        {
          "indexed": false,
          "internalType": "uint256[]",
          "name": "params",
          "type": "uint256[]"
        }
      ],
      "name": "SetChangeableParameter",
      "type": "event"
    },
    {
      "anonymous": false,
      "inputs": [
        {
          "indexed": true,
          "internalType": "uint256",
          "name": "fee",
          "type": "uint256"
        }
      ],
      "name": "SetCreateProposalFee",
      "type": "event"
    },
    {
      "anonymous": false,
      "inputs": [
        {
          "indexed": true,
          "internalType": "address",
          "name": "contractAddress",
          "type": "address"
        },
        {
          "indexed": true,
          "internalType": "bool",
          "name": "isCore",
          "type": "bool"
        }
      ],
      "name": "SetIsCoreContract",
      "type": "event"
    },
    {
      "anonymous": false,
      "inputs": [
        {
          "indexed": true,
          "internalType": "address",
          "name": "voter",
          "type": "address"
        },
        {
          "indexed": true,
          "internalType": "uint256",
          "name": "proposalId",
          "type": "uint256"
        },
        {
          "indexed": true,
          "internalType": "enum Vote",
          "name": "vote",
          "type": "uint8"
        }
      ],
      "name": "SubmitVote",
      "type": "event"
    },
    {
      "anonymous": false,
      "inputs": [
        {
          "indexed": true,
          "internalType": "address",
          "name": "voter",
          "type": "address"
        },
        {
          "indexed": true,
          "internalType": "uint256",
          "name": "proposalId",
          "type": "uint256"
        },
        {
          "indexed": true,
          "internalType": "enum Vote",
          "name": "vote",
          "type": "uint8"
        },
        {
          "indexed": false,
          "internalType": "string",
          "name": "reason",
          "type": "string"
        }
      ],
      "name": "SubmitVoteWithReason",
      "type": "event"
    },
    {
      "anonymous": false,
      "inputs": [
        {
          "indexed": true,
          "internalType": "enum Phase",
          "name": "phase",
          "type": "uint8"
        },
        {
          "indexed": true,
          "internalType": "uint256",
          "name": "start",
          "type": "uint256"
        },
        {
          "indexed": true,
          "internalType": "uint256",
          "name": "end",
          "type": "uint256"
        }
      ],
      "name": "SwitchDaoPhase",
      "type": "event"
    },
    {
      "anonymous": false,
      "inputs": [
        {
          "indexed": true,
          "internalType": "address",
          "name": "caller",
          "type": "address"
        },
        {
          "indexed": true,
          "internalType": "uint256",
          "name": "proposalId",
          "type": "uint256"
        },
        {
          "indexed": true,
          "internalType": "bool",
          "name": "accepted",
          "type": "bool"
        }
      ],
      "name": "VotingFinalized",
      "type": "event"
    },
    {
      "inputs": [],
      "name": "DAO_PHASE_DURATION",
      "outputs": [
        {
          "internalType": "uint64",
          "name": "",
          "type": "uint64"
        }
      ],
      "stateMutability": "view",
      "type": "function"
    },
    {
      "inputs": [],
      "name": "MAX_NEW_PROPOSALS",
      "outputs": [
        {
          "internalType": "uint256",
          "name": "",
          "type": "uint256"
        }
      ],
      "stateMutability": "view",
      "type": "function"
    },
    {
      "inputs": [
        {
          "internalType": "uint256",
          "name": "proposalId",
          "type": "uint256"
        },
        {
          "internalType": "string",
          "name": "reason",
          "type": "string"
        }
      ],
      "name": "cancel",
      "outputs": [],
      "stateMutability": "nonpayable",
      "type": "function"
    },
    {
      "inputs": [
        {
          "internalType": "uint256",
          "name": "proposalId",
          "type": "uint256"
        },
        {
          "internalType": "enum Vote",
          "name": "_vote",
          "type": "uint8"
        },
        {
          "internalType": "string",
          "name": "reason",
          "type": "string"
        }
      ],
      "name": "changeVote",
      "outputs": [],
      "stateMutability": "nonpayable",
      "type": "function"
    },
    {
      "inputs": [
        {
          "internalType": "uint256",
          "name": "proposalId",
          "type": "uint256"
        }
      ],
      "name": "countVotes",
      "outputs": [
        {
          "components": [
            {
              "internalType": "uint64",
              "name": "countYes",
              "type": "uint64"
            },
            {
              "internalType": "uint64",
              "name": "countNo",
              "type": "uint64"
            },
            {
              "internalType": "uint256",
              "name": "stakeYes",
              "type": "uint256"
            },
            {
              "internalType": "uint256",
              "name": "stakeNo",
              "type": "uint256"
            }
          ],
          "internalType": "struct VotingResult",
          "name": "",
          "type": "tuple"
        }
      ],
      "stateMutability": "view",
      "type": "function"
    },
    {
      "inputs": [],
      "name": "createProposalFee",
      "outputs": [
        {
          "internalType": "uint256",
          "name": "",
          "type": "uint256"
        }
      ],
      "stateMutability": "view",
      "type": "function"
    },
    {
      "inputs": [
        {
          "internalType": "uint256",
          "name": "",
          "type": "uint256"
        }
      ],
      "name": "currentPhaseProposals",
      "outputs": [
        {
          "internalType": "uint256",
          "name": "",
          "type": "uint256"
        }
      ],
      "stateMutability": "view",
      "type": "function"
    },
    {
      "inputs": [
        {
          "internalType": "uint256",
          "name": "",
          "type": "uint256"
        },
        {
          "internalType": "address",
          "name": "",
          "type": "address"
        }
      ],
      "name": "daoEpochStakeSnapshot",
      "outputs": [
        {
          "internalType": "uint256",
          "name": "",
          "type": "uint256"
        }
      ],
      "stateMutability": "view",
      "type": "function"
    },
    {
      "inputs": [
        {
          "internalType": "uint256",
          "name": "",
          "type": "uint256"
        }
      ],
      "name": "daoEpochTotalStakeSnapshot",
      "outputs": [
        {
          "internalType": "uint256",
          "name": "",
          "type": "uint256"
        }
      ],
      "stateMutability": "view",
      "type": "function"
    },
    {
      "inputs": [],
      "name": "daoPhase",
      "outputs": [
        {
          "internalType": "uint64",
          "name": "start",
          "type": "uint64"
        },
        {
          "internalType": "uint64",
          "name": "end",
          "type": "uint64"
        },
        {
          "internalType": "uint64",
          "name": "daoEpoch",
          "type": "uint64"
        },
        {
          "internalType": "enum Phase",
          "name": "phase",
          "type": "uint8"
        }
      ],
      "stateMutability": "view",
      "type": "function"
    },
    {
      "inputs": [],
      "name": "daoPhaseCount",
      "outputs": [
        {
          "internalType": "uint256",
          "name": "",
          "type": "uint256"
        }
      ],
      "stateMutability": "view",
      "type": "function"
    },
    {
      "inputs": [
        {
          "internalType": "uint256",
          "name": "",
          "type": "uint256"
        },
        {
          "internalType": "uint256",
          "name": "",
          "type": "uint256"
        }
      ],
      "name": "daoPhaseProposals",
      "outputs": [
        {
          "internalType": "uint256",
          "name": "",
          "type": "uint256"
        }
      ],
      "stateMutability": "view",
      "type": "function"
    },
    {
      "inputs": [
        {
          "internalType": "uint256",
          "name": "proposalId",
          "type": "uint256"
        }
      ],
      "name": "execute",
      "outputs": [],
      "stateMutability": "nonpayable",
      "type": "function"
    },
    {
      "inputs": [
        {
          "internalType": "uint256",
          "name": "proposalId",
          "type": "uint256"
        }
      ],
      "name": "finalize",
      "outputs": [],
      "stateMutability": "nonpayable",
      "type": "function"
    },
    {
      "inputs": [
        {
          "internalType": "string",
          "name": "_selector",
          "type": "string"
        }
      ],
      "name": "getAllowedParamsRange",
      "outputs": [
        {
          "components": [
            {
              "internalType": "bytes4",
              "name": "getter",
              "type": "bytes4"
            },
            {
              "internalType": "uint256[]",
              "name": "range",
              "type": "uint256[]"
            }
          ],
          "internalType": "struct ValueGuards.ParameterRange",
          "name": "",
          "type": "tuple"
        }
      ],
      "stateMutability": "view",
      "type": "function"
    },
    {
      "inputs": [
        {
          "internalType": "bytes4",
          "name": "_selector",
          "type": "bytes4"
        }
      ],
      "name": "getAllowedParamsRangeWithSelector",
      "outputs": [
        {
          "components": [
            {
              "internalType": "bytes4",
              "name": "getter",
              "type": "bytes4"
            },
            {
              "internalType": "uint256[]",
              "name": "range",
              "type": "uint256[]"
            }
          ],
          "internalType": "struct ValueGuards.ParameterRange",
          "name": "",
          "type": "tuple"
        }
      ],
      "stateMutability": "view",
      "type": "function"
    },
    {
      "inputs": [],
      "name": "getCurrentPhaseProposals",
      "outputs": [
        {
          "internalType": "uint256[]",
          "name": "",
          "type": "uint256[]"
        }
      ],
      "stateMutability": "view",
      "type": "function"
    },
    {
      "inputs": [
        {
          "internalType": "uint256",
          "name": "proposalId",
          "type": "uint256"
        }
      ],
      "name": "getProposal",
      "outputs": [
        {
          "components": [
            {
              "internalType": "address",
              "name": "proposer",
              "type": "address"
            },
            {
              "internalType": "uint64",
              "name": "votingDaoEpoch",
              "type": "uint64"
            },
            {
              "internalType": "enum ProposalState",
              "name": "state",
              "type": "uint8"
            },
            {
              "internalType": "address[]",
              "name": "targets",
              "type": "address[]"
            },
            {
              "internalType": "uint256[]",
              "name": "values",
              "type": "uint256[]"
            },
            {
              "internalType": "bytes[]",
              "name": "calldatas",
              "type": "bytes[]"
            },
            {
              "internalType": "string",
              "name": "title",
              "type": "string"
            },
            {
              "internalType": "string",
              "name": "description",
              "type": "string"
            },
            {
              "internalType": "string",
              "name": "discussionUrl",
              "type": "string"
            },
            {
              "internalType": "uint256",
              "name": "daoPhaseCount",
              "type": "uint256"
            },
            {
              "internalType": "uint256",
              "name": "proposalFee",
              "type": "uint256"
            },
            {
              "internalType": "enum ProposalType",
              "name": "proposalType",
              "type": "uint8"
            }
          ],
          "internalType": "struct Proposal",
          "name": "",
          "type": "tuple"
        }
      ],
      "stateMutability": "view",
      "type": "function"
    },
    {
      "inputs": [
        {
          "internalType": "uint256",
          "name": "proposalId",
          "type": "uint256"
        }
      ],
      "name": "getProposalVoters",
      "outputs": [
        {
          "internalType": "address[]",
          "name": "",
          "type": "address[]"
        }
      ],
      "stateMutability": "view",
      "type": "function"
    },
    {
      "inputs": [
        {
          "internalType": "uint256",
          "name": "proposalId",
          "type": "uint256"
        }
      ],
      "name": "getProposalVotersCount",
      "outputs": [
        {
          "internalType": "uint256",
          "name": "",
          "type": "uint256"
        }
      ],
      "stateMutability": "view",
      "type": "function"
    },
    {
      "inputs": [],
      "name": "governancePot",
      "outputs": [
        {
          "internalType": "uint256",
          "name": "",
          "type": "uint256"
        }
      ],
      "stateMutability": "view",
      "type": "function"
    },
    {
      "inputs": [
        {
          "internalType": "address[]",
          "name": "targets",
          "type": "address[]"
        },
        {
          "internalType": "uint256[]",
          "name": "values",
          "type": "uint256[]"
        },
        {
          "internalType": "bytes[]",
          "name": "calldatas",
          "type": "bytes[]"
        },
        {
          "internalType": "string",
          "name": "description",
          "type": "string"
        }
      ],
      "name": "hashProposal",
      "outputs": [
        {
          "internalType": "uint256",
          "name": "",
          "type": "uint256"
        }
      ],
      "stateMutability": "pure",
      "type": "function"
    },
    {
      "inputs": [
        {
          "internalType": "address",
          "name": "_contractOwner",
          "type": "address"
        },
        {
          "internalType": "address",
          "name": "_validatorSet",
          "type": "address"
        },
        {
          "internalType": "address",
          "name": "_stakingHbbft",
          "type": "address"
        },
        {
          "internalType": "address",
          "name": "_reinsertPot",
          "type": "address"
        },
        {
          "internalType": "address",
          "name": "_txPermission",
          "type": "address"
        },
        {
          "internalType": "address",
          "name": "_lowMajorityDao",
          "type": "address"
        },
        {
          "internalType": "uint256",
          "name": "_createProposalFee",
          "type": "uint256"
        },
        {
          "internalType": "uint64",
          "name": "_startTimestamp",
          "type": "uint64"
        }
      ],
      "name": "initialize",
      "outputs": [],
      "stateMutability": "nonpayable",
      "type": "function"
    },
    {
      "inputs": [
        {
          "internalType": "address",
          "name": "_contractOwner",
          "type": "address"
        },
        {
          "internalType": "address",
          "name": "_lowMajorityDao",
          "type": "address"
        }
      ],
      "name": "initializeV2",
      "outputs": [],
      "stateMutability": "nonpayable",
      "type": "function"
    },
    {
      "inputs": [
        {
          "internalType": "address",
          "name": "",
          "type": "address"
        }
      ],
      "name": "isCoreContract",
      "outputs": [
        {
          "internalType": "bool",
          "name": "",
          "type": "bool"
        }
      ],
      "stateMutability": "view",
      "type": "function"
    },
    {
      "inputs": [
        {
          "internalType": "bytes4",
          "name": "funcSelector",
          "type": "bytes4"
        },
        {
          "internalType": "uint256",
          "name": "newVal",
          "type": "uint256"
        }
      ],
      "name": "isWithinAllowedRange",
      "outputs": [
        {
          "internalType": "bool",
          "name": "",
          "type": "bool"
        }
      ],
      "stateMutability": "view",
      "type": "function"
    },
    {
      "inputs": [],
      "name": "lastDaoPhaseCount",
      "outputs": [
        {
          "internalType": "uint256",
          "name": "",
          "type": "uint256"
        }
      ],
      "stateMutability": "view",
      "type": "function"
    },
    {
      "inputs": [],
      "name": "lowMajorityDao",
      "outputs": [
        {
          "internalType": "contract IDiamondDaoLowMajority",
          "name": "",
          "type": "address"
        }
      ],
      "stateMutability": "view",
      "type": "function"
    },
    {
      "inputs": [],
      "name": "owner",
      "outputs": [
        {
          "internalType": "address",
          "name": "",
          "type": "address"
        }
      ],
      "stateMutability": "view",
      "type": "function"
    },
    {
      "inputs": [
        {
          "internalType": "uint256",
          "name": "proposalId",
          "type": "uint256"
        }
      ],
      "name": "proposalExists",
      "outputs": [
        {
          "internalType": "bool",
          "name": "",
          "type": "bool"
        }
      ],
      "stateMutability": "view",
      "type": "function"
    },
    {
      "inputs": [
        {
          "internalType": "uint256",
          "name": "",
          "type": "uint256"
        }
      ],
      "name": "proposals",
      "outputs": [
        {
          "internalType": "address",
          "name": "proposer",
          "type": "address"
        },
        {
          "internalType": "uint64",
          "name": "votingDaoEpoch",
          "type": "uint64"
        },
        {
          "internalType": "enum ProposalState",
          "name": "state",
          "type": "uint8"
        },
        {
          "internalType": "string",
          "name": "title",
          "type": "string"
        },
        {
          "internalType": "string",
          "name": "description",
          "type": "string"
        },
        {
          "internalType": "string",
          "name": "discussionUrl",
          "type": "string"
        },
        {
          "internalType": "uint256",
          "name": "daoPhaseCount",
          "type": "uint256"
        },
        {
          "internalType": "uint256",
          "name": "proposalFee",
          "type": "uint256"
        },
        {
          "internalType": "enum ProposalType",
          "name": "proposalType",
          "type": "uint8"
        }
      ],
      "stateMutability": "view",
      "type": "function"
    },
    {
      "inputs": [
        {
          "internalType": "address[]",
          "name": "targets",
          "type": "address[]"
        },
        {
          "internalType": "uint256[]",
          "name": "values",
          "type": "uint256[]"
        },
        {
          "internalType": "bytes[]",
          "name": "calldatas",
          "type": "bytes[]"
        },
        {
          "internalType": "string",
          "name": "title",
          "type": "string"
        },
        {
          "internalType": "string",
          "name": "description",
          "type": "string"
        },
        {
          "internalType": "string",
          "name": "discussionUrl",
          "type": "string"
        },
        {
          "internalType": "enum OpenProposalMajority",
          "name": "majority",
          "type": "uint8"
        }
      ],
      "name": "propose",
      "outputs": [],
      "stateMutability": "payable",
      "type": "function"
    },
    {
      "inputs": [
        {
          "internalType": "uint256",
          "name": "proposalId",
          "type": "uint256"
        },
        {
          "internalType": "enum ProposalType",
          "name": "_type",
          "type": "uint8"
        },
        {
          "components": [
            {
              "internalType": "uint64",
              "name": "countYes",
              "type": "uint64"
            },
            {
              "internalType": "uint64",
              "name": "countNo",
              "type": "uint64"
            },
            {
              "internalType": "uint256",
              "name": "stakeYes",
              "type": "uint256"
            },
            {
              "internalType": "uint256",
              "name": "stakeNo",
              "type": "uint256"
            }
          ],
          "internalType": "struct VotingResult",
          "name": "result",
          "type": "tuple"
        }
      ],
      "name": "quorumReached",
      "outputs": [
        {
          "internalType": "bool",
          "name": "",
          "type": "bool"
        }
      ],
      "stateMutability": "view",
      "type": "function"
    },
    {
      "inputs": [],
      "name": "reinsertPot",
      "outputs": [
        {
          "internalType": "address",
          "name": "",
          "type": "address"
        }
      ],
      "stateMutability": "view",
      "type": "function"
    },
    {
      "inputs": [
        {
          "internalType": "bytes4",
          "name": "funcSelector",
          "type": "bytes4"
        }
      ],
      "name": "removeAllowedChangeableParameter",
      "outputs": [],
      "stateMutability": "nonpayable",
      "type": "function"
    },
    {
      "inputs": [],
      "name": "renounceOwnership",
      "outputs": [],
      "stateMutability": "nonpayable",
      "type": "function"
    },
    {
      "inputs": [
        {
          "internalType": "uint256",
          "name": "",
          "type": "uint256"
        }
      ],
      "name": "results",
      "outputs": [
        {
          "internalType": "uint64",
          "name": "countYes",
          "type": "uint64"
        },
        {
          "internalType": "uint64",
          "name": "countNo",
          "type": "uint64"
        },
        {
          "internalType": "uint256",
          "name": "stakeYes",
          "type": "uint256"
        },
        {
          "internalType": "uint256",
          "name": "stakeNo",
          "type": "uint256"
        }
      ],
      "stateMutability": "view",
      "type": "function"
    },
    {
      "inputs": [
        {
          "internalType": "bytes4",
          "name": "setter",
          "type": "bytes4"
        },
        {
          "internalType": "bytes4",
          "name": "getter",
          "type": "bytes4"
        },
        {
          "internalType": "uint256[]",
          "name": "params",
          "type": "uint256[]"
        }
      ],
      "name": "setAllowedChangeableParameter",
      "outputs": [],
      "stateMutability": "nonpayable",
      "type": "function"
    },
    {
      "inputs": [
        {
          "internalType": "uint256",
          "name": "_fee",
          "type": "uint256"
        }
      ],
      "name": "setCreateProposalFee",
      "outputs": [],
      "stateMutability": "nonpayable",
      "type": "function"
    },
    {
      "inputs": [
        {
          "internalType": "address",
          "name": "_add",
          "type": "address"
        },
        {
          "internalType": "bool",
          "name": "isCore",
          "type": "bool"
        }
      ],
      "name": "setIsCoreContract",
      "outputs": [],
      "stateMutability": "nonpayable",
      "type": "function"
    },
    {
      "inputs": [],
      "name": "stakingHbbft",
      "outputs": [
        {
          "internalType": "contract IStakingHbbft",
          "name": "",
          "type": "address"
        }
      ],
      "stateMutability": "view",
      "type": "function"
    },
    {
      "inputs": [],
      "name": "statistic",
      "outputs": [
        {
          "internalType": "uint64",
          "name": "total",
          "type": "uint64"
        },
        {
          "internalType": "uint64",
          "name": "accepted",
          "type": "uint64"
        },
        {
          "internalType": "uint64",
          "name": "declined",
          "type": "uint64"
        },
        {
          "internalType": "uint64",
          "name": "canceled",
          "type": "uint64"
        }
      ],
      "stateMutability": "view",
      "type": "function"
    },
    {
      "inputs": [],
      "name": "switchPhase",
      "outputs": [],
      "stateMutability": "nonpayable",
      "type": "function"
    },
    {
      "inputs": [
        {
          "internalType": "address",
          "name": "newOwner",
          "type": "address"
        }
      ],
      "name": "transferOwnership",
      "outputs": [],
      "stateMutability": "nonpayable",
      "type": "function"
    },
    {
      "inputs": [],
      "name": "unfinalizedProposals",
      "outputs": [
        {
          "internalType": "uint256",
          "name": "",
          "type": "uint256"
        }
      ],
      "stateMutability": "view",
      "type": "function"
    },
    {
      "inputs": [],
      "name": "unfinalizedProposalsExist",
      "outputs": [
        {
          "internalType": "bool",
          "name": "",
          "type": "bool"
        }
      ],
      "stateMutability": "view",
      "type": "function"
    },
    {
      "inputs": [],
      "name": "validatorSet",
      "outputs": [
        {
          "internalType": "contract IValidatorSetHbbft",
          "name": "",
          "type": "address"
        }
      ],
      "stateMutability": "view",
      "type": "function"
    },
    {
      "inputs": [
        {
          "internalType": "uint256",
          "name": "proposalId",
          "type": "uint256"
        },
        {
          "internalType": "enum Vote",
          "name": "_vote",
          "type": "uint8"
        }
      ],
      "name": "vote",
      "outputs": [],
      "stateMutability": "nonpayable",
      "type": "function"
    },
    {
      "inputs": [
        {
          "internalType": "uint256",
          "name": "proposalId",
          "type": "uint256"
        },
        {
          "internalType": "enum Vote",
          "name": "_vote",
          "type": "uint8"
        },
        {
          "internalType": "string",
          "name": "reason",
          "type": "string"
        }
      ],
      "name": "voteWithReason",
      "outputs": [],
      "stateMutability": "nonpayable",
      "type": "function"
    },
    {
      "inputs": [
        {
          "internalType": "uint256",
          "name": "",
          "type": "uint256"
        },
        {
          "internalType": "address",
          "name": "",
          "type": "address"
        }
      ],
      "name": "votes",
      "outputs": [
        {
          "internalType": "uint64",
          "name": "timestamp",
          "type": "uint64"
        },
        {
          "internalType": "enum Vote",
          "name": "vote",
          "type": "uint8"
        },
        {
          "internalType": "string",
          "name": "reason",
          "type": "string"
        }
      ],
      "stateMutability": "view",
      "type": "function"
    },
    {
      "stateMutability": "payable",
      "type": "receive"
    }
  ],
  "bytecode": "0x6080604052348015600f57600080fd5b506016601a565b60ca565b7ff0c57e16840df040f15088dc2f81fe391c3923bec73e23a9662efc9c229c6a00805468010000000000000000900460ff161560695760405163f92ee8a960e01b815260040160405180910390fd5b80546001600160401b039081161460c75780546001600160401b0319166001600160401b0390811782556040519081527fc7f505b2f371ae2175ee4913f4499e1f2633a7b5936321eed1cdaeb6115181d29060200160405180910390a15b50565b615b2d806100d96000396000f3fe60806040526004361061032d5760003560e01c8063aa72e3b9116101a5578063c7f758a8116100ec578063efa65b4811610095578063f9d1a24b1161006f578063f9d1a24b14610ab9578063fa1f072714610acc578063fe0d94c114610ae2578063ff71d67714610b0257600080fd5b8063efa65b4814610a6e578063f22d232614610a83578063f2fde38b14610a9957600080fd5b8063d78386a1116100c6578063d78386a114610a18578063ec47c47114610a38578063ed965ddc14610a4e57600080fd5b8063c7f758a81461098c578063d22a20cd146109b9578063d23254b4146109e957600080fd5b8063b710c15d1161014e578063bf348f8611610128578063bf348f861461092c578063c3b66bed1461094c578063c52088bc1461096c57600080fd5b8063b710c15d146108c9578063ba08d237146108f6578063be0a4e4b1461091657600080fd5b8063b050bcf71161017f578063b050bcf714610839578063b131b6a514610859578063b1530dc7146108a957600080fd5b8063aa72e3b9146107d5578063ab0eb62d14610804578063ab266e101461081957600080fd5b8063525e03d5116102745780637d8149db1161021d578063943e8216116101f7578063943e821614610746578063950e3e441461076657806395dd7fb914610786578063a68f34f7146107a857600080fd5b80637d8149db146106c95780638da5cb5b146106e95780639426e2261461072657600080fd5b80636b6d33da1161024e5780636b6d33da1461065c578063715018a61461069457806373f12958146106a957600080fd5b8063525e03d5146105ef5780635e8815f21461061c57806366a862a11461063c57600080fd5b80631840f0ca116102d657806331e40733116102b057806331e407331461053d5780633c5fc7111461055d5780634346845f146105cf57600080fd5b80631840f0ca146104715780631b0c27da1461049e5780632baffa3f1461051957600080fd5b80631243e6cb116103075780631243e6cb146103d15780631374b22d146104095780631536f4721461045157600080fd5b8063013cf08b1461035157806305261aea1461038f5780630840ba72146103b157600080fd5b3661034c5734600360008282546103449190614636565b925050819055005b600080fd5b34801561035d57600080fd5b5061037161036c366004614649565b610b18565b604051610386999897969594939291906146ec565b60405180910390f35b34801561039b57600080fd5b506103af6103aa366004614649565b610d16565b005b3480156103bd57600080fd5b506103af6103cc36600461479a565b610f8c565b3480156103dd57600080fd5b506005546103f1906001600160a01b031681565b6040516001600160a01b039091168152602001610386565b34801561041557600080fd5b50610441610424366004614649565b6000908152600960205260409020546001600160a01b0316151590565b6040519015158152602001610386565b34801561045d57600080fd5b506103af61046c366004614815565b61110e565b34801561047d57600080fd5b5061049161048c366004614649565b611231565b6040516103869190614860565b3480156104aa57600080fd5b506104ee6104b9366004614649565b600b602052600090815260409020805460018201546002909201546001600160401b0380831693600160401b90930416919084565b604080516001600160401b039586168152949093166020850152918301526060820152608001610386565b34801561052557600080fd5b5061052f60035481565b604051908152602001610386565b34801561054957600080fd5b506103af6105583660046148b4565b6113c5565b34801561056957600080fd5b5060065461059c906001600160401b0380821691600160401b8104821691600160801b8204811691600160c01b90041684565b604080516001600160401b0395861681529385166020850152918416918301919091529091166060820152608001610386565b3480156105db57600080fd5b506103af6105ea366004614925565b61151a565b3480156105fb57600080fd5b5061052f61060a366004614649565b60126020526000908152604090205481565b34801561062857600080fd5b506103af6106373660046149c7565b61160b565b34801561064857600080fd5b5061052f6106573660046149fe565b61167f565b34801561066857600080fd5b5061052f610677366004614a20565b600d60209081526000928352604080842090915290825290205481565b3480156106a057600080fd5b506103af6116b0565b3480156106b557600080fd5b506001546103f1906001600160a01b031681565b3480156106d557600080fd5b506103af6106e4366004614a43565b6116c4565b3480156106f557600080fd5b507f9016d09d72d40fdae2fd8ceac6b6234c7706214fd39c1cd1e609a0528c199300546001600160a01b03166103f1565b34801561073257600080fd5b506004546103f1906001600160a01b031681565b34801561075257600080fd5b506103af610761366004614a60565b61174d565b34801561077257600080fd5b5061052f610781366004614cf6565b61186b565b34801561079257600080fd5b5061079b6118b1565b6040516103869190614dde565b3480156107b457600080fd5b506107c86107c3366004614649565b611909565b6040516103869190614e2b565b3480156107e157600080fd5b506107ec6201518081565b6040516001600160401b039091168152602001610386565b34801561081057600080fd5b506103af611929565b34801561082557600080fd5b506103af610834366004614649565b611ca9565b34801561084557600080fd5b50610441610854366004614e55565b611d34565b34801561086557600080fd5b50600754610899906001600160401b0380821691600160401b8104821691600160801b82041690600160c01b900460ff1684565b6040516103869493929190614f09565b3480156108b557600080fd5b506014546103f1906001600160a01b031681565b3480156108d557600080fd5b506108e96108e4366004614f41565b611e7a565b6040516103869190614f7d565b34801561090257600080fd5b50610441610911366004614fab565b611f2a565b34801561092257600080fd5b5061052f60115481565b34801561093857600080fd5b506108e9610947366004614a43565b612105565b34801561095857600080fd5b5061052f610967366004614649565b6121aa565b34801561097857600080fd5b506103af6109873660046148b4565b6121c1565b34801561099857600080fd5b506109ac6109a7366004614649565b612474565b6040516103869190615031565b3480156109c557600080fd5b506104416109d4366004615168565b600a6020526000908152604090205460ff1681565b3480156109f557600080fd5b50610a09610a04366004614a20565b612888565b60405161038693929190615183565b348015610a2457600080fd5b506103af610a333660046151b4565b61294e565b348015610a4457600080fd5b5061052f6103e881565b348015610a5a57600080fd5b5061052f610a69366004614649565b612cf7565b348015610a7a57600080fd5b50610441612d18565b348015610a8f57600080fd5b5061052f60025481565b348015610aa557600080fd5b506103af610ab4366004615168565b612d40565b6103af610ac7366004615244565b612d7b565b348015610ad857600080fd5b5061052f60105481565b348015610aee57600080fd5b506103af610afd366004614649565b61311d565b348015610b0e57600080fd5b5061052f60005481565b600960205260009081526040902080546004820180546001600160a01b03831693600160a01b84046001600160401b031693600160e01b900460ff16929091610b609061534a565b80601f0160208091040260200160405190810160405280929190818152602001828054610b8c9061534a565b8015610bd95780601f10610bae57610100808354040283529160200191610bd9565b820191906000526020600020905b815481529060010190602001808311610bbc57829003601f168201915b505050505090806005018054610bee9061534a565b80601f0160208091040260200160405190810160405280929190818152602001828054610c1a9061534a565b8015610c675780601f10610c3c57610100808354040283529160200191610c67565b820191906000526020600020905b815481529060010190602001808311610c4a57829003601f168201915b505050505090806006018054610c7c9061534a565b80601f0160208091040260200160405190810160405280929190818152602001828054610ca89061534a565b8015610cf55780601f10610cca57610100808354040283529160200191610cf5565b820191906000526020600020905b815481529060010190602001808311610cd857829003601f168201915b50505050600783015460088401546009909401549293909290915060ff1689565b610d1e61340e565b60008181526009602052604090205481906001600160a01b0316610d5d5760405163986731a160e01b8152600481018290526024015b60405180910390fd5b610d68826003613458565b600082815260096020526040812090610d828460016134b4565b6000858152600b602090815260409182902090830151815484516fffffffffffffffffffffffffffffffff19909116600160401b6001600160401b039384160267ffffffffffffffff1916179116178155606083015160028201559082015160019091015590506009820154600090610e0090869060ff1684611d34565b905080610e0e576005610e11565b60045b8354849060ff60e01b1916600160e01b836006811115610e3357610e33614662565b02179055508015610ea6576006805460019190600890610e64908490600160401b90046001600160401b031661537e565b82546001600160401b039182166101009390930a92830291909202199091161790555082546008840154610ea1916001600160a01b0316906136df565b610f13565b6006805460019190601090610ecc908490600160801b90046001600160401b031661537e565b92506101000a8154816001600160401b0302191690836001600160401b03160217905550610f13600160009054906101000a90046001600160a01b031684600801546136df565b600160106000828254610f26919061539e565b909155505060405181151590869033907f4a82eb80f2a86beb92f5670422f698264b3511048a29b400a6a1ce684769581e90600090a450505050610f8960017f9b779b17422d0df92223018b32b4d1fa46e071723d6817e2486d003becc55f0055565b50565b7ff0c57e16840df040f15088dc2f81fe391c3923bec73e23a9662efc9c229c6a00805460029190600160401b900460ff1680610fd5575080546001600160401b03808416911610155b15610ff35760405163f92ee8a960e01b815260040160405180910390fd5b805468ffffffffffffffffff19166001600160401b03831617600160401b1781556001600160a01b038416158061103157506001600160a01b038316155b1561104f5760405163a9cb9e0d60e01b815260040160405180910390fd5b61105884613791565b601480546001600160a01b0319166001600160a01b0385169081179091556000818152600a6020526040808220805460ff1916600190811790915590519092917fc73e95af540565c649d9453cb23b01f505752b94f04ff81b52ce528047232f2391a3805468ff0000000000000000191681556040516001600160401b03831681527fc7f505b2f371ae2175ee4913f4499e1f2633a7b5936321eed1cdaeb6115181d2906020015b60405180910390a150505050565b60008381526009602052604090205483906001600160a01b03166111485760405163986731a160e01b815260048101829052602401610d54565b600084815260096020526040902080546001600160a01b0316331461118057604051630608c7c960e51b815260040160405180910390fd5b61118b856000613458565b805460ff60e01b1916600160e01b17815560068054600191906018906111c2908490600160c01b90046001600160401b031661537e565b92506101000a8154816001600160401b0302191690836001600160401b0316021790555084336001600160a01b03167fd16ff8053e1476416f5be14c32305a3652ac0b182ac04ede8c101d867b75bd1486866040516112229291906153b1565b60405180910390a35050505050565b60408051608081018252600080825260208201819052918101829052606081019190915260008281526009602052604090205482906001600160a01b031661128f5760405163986731a160e01b815260048101829052602401610d54565b600083815260096020526040902054600160e01b900460ff1660048160068111156112bc576112bc614662565b14806112d9575060058160068111156112d7576112d7614662565b145b806112f5575060068160068111156112f3576112f3614662565b145b1561135257506000838152600b6020908152604091829020825160808101845281546001600160401b038082168352600160401b9091041692810192909252600181015492820192909252600290910154606082015291506113bf565b600381600681111561136657611366614662565b0361137e576113768460016134b4565b9250506113bf565b600281600681111561139257611392614662565b036113a2576113768460006134b4565b838160405163605cfad560e01b8152600401610d549291906153e0565b50919050565b60008481526009602052604090205484906001600160a01b03166113ff5760405163986731a160e01b815260048101829052602401610d54565b600180600754600160c01b900460ff16600181111561142057611420614662565b1461144c576007546040516378030af960e11b8152610d5491600160c01b900460ff16906004016153f4565b611455336137a2565b6114745760405163fb426bed60e01b8152336004820152602401610d54565b60003390506114bb81888888888080601f01602080910402602001604051908101604052809392919081815260200183838082843760009201919091525061381192505050565b8560018111156114cd576114cd614662565b87826001600160a01b03167fde85a12bb3f2d766e67cf54febc7c53ae9c500da072f8fdfb34aba5ca5525ebf88886040516115099291906153b1565b60405180910390a450505050505050565b611522613961565b600061152c6139bc565b90506040518060400160405280856001600160e01b031916815260200184848080602002602001604051908101604052809392919081815260200183836020028082843760009201829052509390945250506001600160e01b031988168152602084815260409091208351815463ffffffff191660e09190911c1781558382015180519193506115c39260018501929101906143f3565b509050507f3665bf9cd0ba4ddceeec259e21dcf8a4510f3b1130bd42e950828e69d85408ba858585856040516115fc9493929190615407565b60405180910390a15050505050565b33301461162b576040516354348f0360e01b815260040160405180910390fd5b6001600160a01b0382166000818152600a6020526040808220805460ff191685151590811790915590519092917fc73e95af540565c649d9453cb23b01f505752b94f04ff81b52ce528047232f2391a35050565b6013602052816000526040600020818154811061169b57600080fd5b90600052602060002001600091509150505481565b6116b8613961565b6116c26000613a1e565b565b6116cc613961565b60006116d66139bc565b6001600160e01b031983166000908152602082905260408120805463ffffffff1916815591925061170a600183018261443e565b50506040516001600160e01b0319831681527fed27cb02231782dadf13473a7828cb980c4d685791b7a3136dde00f8c3594cb69060200160405180910390a15050565b60008281526009602052604090205482906001600160a01b03166117875760405163986731a160e01b815260048101829052602401610d54565b600180600754600160c01b900460ff1660018111156117a8576117a8614662565b146117d4576007546040516378030af960e11b8152610d5491600160c01b900460ff16906004016153f4565b6117dd336137a2565b6117fc5760405163fb426bed60e01b8152336004820152602401610d54565b600033905061181c81868660405180602001604052806000815250613811565b83600181111561182e5761182e614662565b60405186906001600160a01b038416907f343f24b88bd3789b60993251090e2184e0e4ae199d79b14a510fc1a08b51f51490600090a45050505050565b600080828051906020012090508585858360405160200161188f9493929190615474565b60408051601f1981840301815291905280516020909101209695505050505050565b606060088054806020026020016040519081016040528092919081815260200182805480156118ff57602002820191906000526020600020905b8154815260200190600101908083116118eb575b5050505050905090565b6000818152600f6020526040902060609061192390613a8f565b92915050565b61193161340e565b60075442906001600160401b03600160401b909104811690821610156119575750611c80565b600080600754600160c01b900460ff16600181111561197857611978614662565b14611984576000611987565b60015b6007805467ffffffffffffffff19166001600160401b03851617905590506119b2620151808361537e565b600780546001600160401b0392909216600160401b026fffffffffffffffff00000000000000001983168117825583927fffffffffffffff00ffffffffffffffffffffffffffffffffffffffffffffffff9091167fffffffffffffff00ffffffffffffffff0000000000000000ffffffffffffffff90911617600160c01b836001811115611a4257611a42614662565b021790555060006001826001811115611a5d57611a5d614662565b14611a69576003611a6c565b60025b905060006003826006811115611a8457611a84614662565b6008549114915060005b81811015611b5257600060088281548110611aab57611aab6154bf565b6000918252602080832090910154808352600990915260409091208054919250869160ff60e01b1916600160e01b836006811115611aeb57611aeb614662565b02179055508315611b4957600754600082815260096020526040902080547fffffffff0000000000000000ffffffffffffffffffffffffffffffffffffffff16600160801b9092046001600160401b0316600160a01b029190911790555b50600101611a8e565b508115611bc057600754611b7590600160801b90046001600160401b0316613a9c565b6007805460019190601090611b9b908490600160801b90046001600160401b031661537e565b92506101000a8154816001600160401b0302191690836001600160401b031602179055505b6000846001811115611bd457611bd4614662565b03611c1c5760008054815260136020526040902060088054611bf792919061445c565b506001600080828254611c0a9190614636565b90915550611c1c90506008600061443e565b6007546001600160401b03600160401b82048116919081169060ff600160c01b909104166001811115611c5157611c51614662565b6040517f4887f063ba2113285aba0e893c372b65da5e458b463fb01fdf1fe0d266acff0e90600090a450505050505b6116c260017f9b779b17422d0df92223018b32b4d1fa46e071723d6817e2486d003becc55f0055565b333014611cc9576040516354348f0360e01b815260040160405180910390fd5b80611ce06000356001600160e01b03191682611f2a565b611d00576040516373330d9b60e01b815260048101829052602401610d54565b600282905560405182907f7d6e1cf0de9a5ba39e02e05972eb08471682fc361b20458a3f200f7bf087b53590600090a25050565b6000838152600f602052604081208190611d4d90613c32565b600086815260096020908152604080832054600160a01b90046001600160401b0316808452601290925282205492935091906001876003811115611d9357611d93614662565b1480611db057506003876003811115611dae57611dae614662565b145b15611dc657611dbf8683613c3c565b9050611e5f565b6000876003811115611dda57611dda614662565b03611e5257601454604051630d91813160e21b81526001600160a01b039091169063364604c490611e1190899086906004016154d5565b602060405180830381865afa158015611e2e573d6000803e3d6000fd5b505050506040513d601f19601f82011682018060405250810190611dbf919061551e565b611e5c8683613c82565b90505b600084118015611e6c5750805b9450505050505b9392505050565b604080518082019091526000815260606020820152611e976139bc565b82516020808501919091206001600160e01b0319908116600090815292825260409283902083518085018552815460e01b9092168252600181018054855181860281018601909652808652929491938581019390830182828015611f1a57602002820191906000526020600020905b815481526020019060010190808311611f06575b5050505050815250509050919050565b600080611f356139bc565b6001600160e01b031980861660009081526020838152604080832081518083018352815460e01b90951685526001810180548351818602810186019094528084529697509395909385840193909190830182828015611fb357602002820191906000526020600020905b815481526020019060010190808311611f9f575b5050505050815250509050806020015151600003611fd657600092505050611923565b60208101518151600090611fe990613c90565b905060005b82518110156120f7578183828151811061200a5761200a6154bf565b6020026020010151036120ef5760008082116120405783600081518110612033576120336154bf565b6020026020010151612065565b8361204c60018461539e565b8151811061205c5761205c6154bf565b60200260200101515b9050600060018551612077919061539e565b83106120a957846001865161208c919061539e565b8151811061209c5761209c6154bf565b60200260200101516120ce565b846120b5846001614636565b815181106120c5576120c56154bf565b60200260200101515b90508189141580156120e05750808914155b15975050505050505050611923565b600101611fee565b506000979650505050505050565b6040805180820190915260008152606060208201526121226139bc565b6001600160e01b03198084166000908152602092835260409081902081518083018352815460e01b9093168352600181018054835181870281018701909452808452939491938583019392830182828015611f1a5760200282019190600052602060002090815481526020019060010190808311611f06575050505050815250509050919050565b6000818152600f6020526040812061192390613c32565b60008481526009602052604090205484906001600160a01b03166121fb5760405163986731a160e01b815260048101829052602401610d54565b600180600754600160c01b900460ff16600181111561221c5761221c614662565b14612248576007546040516378030af960e11b8152610d5491600160c01b900460ff16906004016153f4565b612251336137a2565b6122705760405163fb426bed60e01b8152336004820152602401610d54565b6000868152600f602052604090206122889033613d52565b6122ae576040516328524c6760e01b815260048101879052336024820152604401610d54565b6000868152600960205260409020339060028154600160e01b900460ff1660068111156122dd576122dd614662565b1461230b57805460405163605cfad560e01b8152610d54918a91600160e01b90910460ff16906004016153e0565b6000888152600c602090815260408083206001600160a01b0386168452909152902087600181111561233f5761233f614662565b8154600160401b900460ff16600181111561235c5761235c614662565b1480156123975750868660405161237492919061553b565b60405180910390208160010160405161238d919061554b565b6040518091039020145b156123bb5788838960405163cdfb27f160e01b8152600401610d54939291906155c1565b80548890829068ff00000000000000001916600160401b8360018111156123e4576123e4614662565b0217905550600181016123f887898361563e565b50805467ffffffffffffffff1916426001600160401b031617815587600181111561242557612425614662565b89846001600160a01b03167f332b2b2ae5af09046352b7642c20055605109b483c9a3c7858df4c4e0c557ea98a8a6040516124619291906153b1565b60405180910390a4505050505050505050565b61247c61449c565b60008281526009602090815260409182902082516101808101845281546001600160a01b0381168252600160a01b81046001600160401b03169382019390935292909190830190600160e01b900460ff1660068111156124de576124de614662565b60068111156124ef576124ef614662565b81526020016001820180548060200260200160405190810160405280929190818152602001828054801561254c57602002820191906000526020600020905b81546001600160a01b0316815260019091019060200180831161252e575b50505050508152602001600282018054806020026020016040519081016040528092919081815260200182805480156125a457602002820191906000526020600020905b815481526020019060010190808311612590575b5050505050815260200160038201805480602002602001604051908101604052809291908181526020016000905b8282101561267e5783829060005260206000200180546125f19061534a565b80601f016020809104026020016040519081016040528092919081815260200182805461261d9061534a565b801561266a5780601f1061263f5761010080835404028352916020019161266a565b820191906000526020600020905b81548152906001019060200180831161264d57829003601f168201915b5050505050815260200190600101906125d2565b5050505081526020016004820180546126969061534a565b80601f01602080910402602001604051908101604052809291908181526020018280546126c29061534a565b801561270f5780601f106126e45761010080835404028352916020019161270f565b820191906000526020600020905b8154815290600101906020018083116126f257829003601f168201915b505050505081526020016005820180546127289061534a565b80601f01602080910402602001604051908101604052809291908181526020018280546127549061534a565b80156127a15780601f10612776576101008083540402835291602001916127a1565b820191906000526020600020905b81548152906001019060200180831161278457829003601f168201915b505050505081526020016006820180546127ba9061534a565b80601f01602080910402602001604051908101604052809291908181526020018280546127e69061534a565b80156128335780601f1061280857610100808354040283529160200191612833565b820191906000526020600020905b81548152906001019060200180831161281657829003601f168201915b50505091835250506007820154602082015260088201546040820152600982015460609091019060ff16600381111561286e5761286e614662565b600381111561287f5761287f614662565b90525092915050565b600c602090815260009283526040808420909152908252902080546001820180546001600160401b03831693600160401b90930460ff169291906128cb9061534a565b80601f01602080910402602001604051908101604052809291908181526020018280546128f79061534a565b80156129445780601f1061291957610100808354040283529160200191612944565b820191906000526020600020905b81548152906001019060200180831161292757829003601f168201915b5050505050905083565b7ff0c57e16840df040f15088dc2f81fe391c3923bec73e23a9662efc9c229c6a008054600160401b810460ff1615906001600160401b03166000811580156129935750825b90506000826001600160401b031660011480156129af5750303b155b9050811580156129bd575080155b156129db5760405163f92ee8a960e01b815260040160405180910390fd5b845467ffffffffffffffff191660011785558315612a0a57845468ff00000000000000001916600160401b1785555b6001600160a01b038d161580612a2757506001600160a01b038c16155b80612a3957506001600160a01b038a16155b80612a4b57506001600160a01b038b16155b80612a5d57506001600160a01b038916155b80612a6f57506001600160a01b038816155b80612a78575086155b15612a965760405163a9cb9e0d60e01b815260040160405180910390fd5b42866001600160401b03161015612ac0576040516307f5e89560e51b815260040160405180910390fd5b612ac98d613791565b612ad1613d74565b600480546001600160a01b03199081166001600160a01b038f8116919091179092556005805482168e84161790556014805482168b841617905560018054909116918c1691909117905560028790556007805467ffffffffffffffff19166001600160401b038816179055612b49620151808761537e565b600780546001600160401b0392909216600160401b027fffffffffffffff000000000000000000ffffffffffffffffffffffffffffffff167fffffffffffffff0000000000000000000000000000000000ffffffffffffffff90921691909117600160801b17905560016000908155604080516009808252610140820190925290602082016101208036833701905050905060005b6009811015612c2957612bf2816001614636565b612c0490678ac7230489e800006156fe565b828281518110612c1657612c166154bf565b6020908102919091010152600101612bde565b50612c43630ab266e160e41b637916919360e11b83613d84565b50306000908152600a60205260408082208054600160ff1991821681179092556001600160a01b038f8116855283852080548316841790558d8116855283852080548316841790558e16845291909220805490911690911790558315612ce857845468ff000000000000000019168555604051600181527fc7f505b2f371ae2175ee4913f4499e1f2633a7b5936321eed1cdaeb6115181d29060200160405180910390a15b50505050505050505050505050565b60088181548110612d0757600080fd5b600091825260209091200154905081565b6000805460115414158015612d2f57506000601054115b15612d3a5750600190565b50600090565b612d48613961565b6001600160a01b038116612d7257604051631e4fbdf760e01b815260006004820152602401610d54565b610f8981613a1e565b612d8361340e565b600080600754600160c01b900460ff166001811115612da457612da4614662565b14612dd0576007546040516378030af960e11b8152610d5491600160c01b900460ff16906004016153f4565b612dd8612d18565b15612df65760405163fd081cf960e01b815260040160405180910390fd5b60005460115414612e08576000546011555b86518851141580612e1b57508551885114155b80612e2557508751155b15612e435760405163a9cb9e0d60e01b815260040160405180910390fd5b6002543414612e655760405163356680b760e01b815260040160405180910390fd5b6008546103e811612e8957604051633f2ad2e160e11b815260040160405180910390fd5b6000612e958988613e2b565b90506000816003811115612eab57612eab614662565b148015612ec957506001836001811115612ec757612ec7614662565b145b15612ed2575060035b6000612ee08a8a8a8961186b565b6000818152600960205260409020549091506001600160a01b031615612f1c5760405163d3df438360e01b815260048101829052602401610d54565b600081815260096020908152604090912080547fffffff00ffffffffffffffff0000000000000000000000000000000000000000163360ff60e01b1981169190911782558c519092612f759160018401918f019061450d565b508a51612f8b90600283019060208e01906143f3565b508951612fa190600383019060208d0190614562565b5060048101612fb08a82615715565b5060058101612fbf8982615715565b5060068101612fce8882615715565b506000546007820155600254600882015560098101805485919060ff1916600183600381111561300057613000614662565b0217905550600880546001818101835560009283527ff3f7a9fe364faab93b216da50a3214154f22a0a2b415b23a84c8169e8b636ee390910185905560068054919290916130589084906001600160401b031661537e565b92506101000a8154816001600160401b0302191690836001600160401b0316021790555060016010600082825461308f9190614636565b9250508190555082826001600160a01b03167faae8433da93a34852459abcc29a350d01261db57a269e890b08bde55d4a9774c8e8e8e8e8e8e6002546040516130de97969594939291906157d4565b60405180910390a3505050505061311460017f9b779b17422d0df92223018b32b4d1fa46e071723d6817e2486d003becc55f0055565b50505050505050565b61312561340e565b60008181526009602052604090205481906001600160a01b031661315f5760405163986731a160e01b815260048101829052602401610d54565b61316a826004613458565b613173826140d1565b60008281526009602081905260408220805460ff60e01b1916600360e11b1781559081015490919060ff1660038111156131af576131af614662565b0361322a57601454604051634590239b60e01b81526001600160a01b0390911690634590239b906131f3908690600186019060028701906003880190600401615923565b600060405180830381600087803b15801561320d57600080fd5b505af1158015613221573d6000803e3d6000fd5b505050506133b6565b6133b68160010180548060200260200160405190810160405280929190818152602001828054801561328557602002820191906000526020600020905b81546001600160a01b03168152600190910190602001808311613267575b5050505050826002018054806020026020016040519081016040528092919081815260200182805480156132d857602002820191906000526020600020905b8154815260200190600101908083116132c4575b505050505083600301805480602002602001604051908101604052809291908181526020016000905b828210156133ad5783829060005260206000200180546133209061534a565b80601f016020809104026020016040519081016040528092919081815260200182805461334c9061534a565b80156133995780601f1061336e57610100808354040283529160200191613399565b820191906000526020600020905b81548152906001019060200180831161337c57829003601f168201915b505050505081526020019060010190613301565b5050505061416f565b604051839033907f7bfd03e44f31b1867e10c41d419cd8073b4719d321ccc5c3a3c79ac2babab3c390600090a35050610f8960017f9b779b17422d0df92223018b32b4d1fa46e071723d6817e2486d003becc55f0055565b7f9b779b17422d0df92223018b32b4d1fa46e071723d6817e2486d003becc55f0080546001190161345257604051633ee5aeb560e01b815260040160405180910390fd5b60029055565b600061346383612474565b60400151905081600681111561347b5761347b614662565b81600681111561348d5761348d614662565b146134af57828160405163605cfad560e01b8152600401610d549291906153e0565b505050565b60408051608080820183526000808352602080840182905283850182905260608085018390528783526009825285832054865194850187528385529184018390529483018290529382018190529192600160a01b90046001600160401b03169161351d86611909565b905060005b81518110156136d457600082828151811061353f5761353f6154bf565b602002602001015190506000871561358457506001600160401b0385166000908152600d602090815260408083206001600160a01b03851684529091529020546135f5565b600554604051632933f0eb60e11b81526001600160a01b03848116600483015290911690635267e1d690602401602060405180830381865afa1580156135ce573d6000803e3d6000fd5b505050506040513d601f19601f820116820180604052508101906135f291906159be565b90505b6000898152600c602090815260408083206001600160a01b0386168452909152902054600160401b900460ff16600181600181111561363657613636614662565b036136765760018660000181815161364e919061537e565b6001600160401b031690525060408601805183919061366e908390614636565b9052506136c6565b600081600181111561368a5761368a614662565b036136c6576001866020018181516136a2919061537e565b6001600160401b03169052506060860180518391906136c2908390614636565b9052505b505050806001019050613522565b509095945050505050565b6000826001600160a01b03168260405160006040518083038185875af1925050503d806000811461372c576040519150601f19603f3d011682016040523d82523d6000602084013e613731565b606091505b50509050806134af576040516317e3057d60e31b81523060048201526001600160a01b038416602482015260448101839052606401610d54565b60017f9b779b17422d0df92223018b32b4d1fa46e071723d6817e2486d003becc55f0055565b613799614295565b610f89816142de565b60055460405163f6c5786160e01b81526001600160a01b038381166004830152600092169063f6c5786190602401602060405180830381865afa1580156137ed573d6000803e3d6000fd5b505050506040513d601f19601f82011682018060405250810190611923919061551e565b61381c836002613458565b6000838152600f602052604090206138349085613d52565b15613864576040516304f9da6360e01b8152600481018490526001600160a01b0385166024820152604401610d54565b600754600160801b90046001600160401b03166000908152600e6020526040902061388f90856142e6565b506000838152600f602052604090206138a890856142e6565b506040518060600160405280426001600160401b031681526020018360018111156138d5576138d5614662565b815260209081018390526000858152600c825260408082206001600160a01b038916835283529020825181546001600160401b0390911667ffffffffffffffff19821681178355928401519192839168ffffffffffffffffff191617600160401b83600181111561394857613948614662565b0217905550604082015160018201906131149082615715565b336139937f9016d09d72d40fdae2fd8ceac6b6234c7706214fd39c1cd1e609a0528c199300546001600160a01b031690565b6001600160a01b0316146116c25760405163118cdaa760e01b8152336004820152602401610d54565b60008060ff196139ed60017fdace3fd3d1fbdfd33853f19ba191d28c617e373ec58fc73cf7b58db5aff2c2ab61539e565b6040516020016139ff91815260200190565b60408051601f1981840301815291905280516020909101201692915050565b7f9016d09d72d40fdae2fd8ceac6b6234c7706214fd39c1cd1e609a0528c19930080546001600160a01b031981166001600160a01b03848116918217845560405192169182907f8be0079c531659141344cd1fd0a4f28419497f9722a3daafe3b4186f6b6457e090600090a3505050565b60606000611e73836142fb565b6001600160401b0381166000908152600e60205260408120613abd90613a8f565b905060005b8151811015613b9a576000828281518110613adf57613adf6154bf565b6020908102919091010151600554604051632933f0eb60e11b81526001600160a01b03808416600483015292935060009290911690635267e1d690602401602060405180830381865afa158015613b3a573d6000803e3d6000fd5b505050506040513d601f19601f82011682018060405250810190613b5e91906159be565b6001600160401b0386166000908152600d602090815260408083206001600160a01b039096168352949052929092209190915550600101613ac2565b50600560009054906101000a90046001600160a01b03166001600160a01b031663567e98f96040518163ffffffff1660e01b8152600401602060405180830381865afa158015613bee573d6000803e3d6000fd5b505050506040513d601f19601f82011682018060405250810190613c1291906159be565b6001600160401b0390921660009081526012602052604090209190915550565b6000611923825490565b600080613c4a8360036156fe565b90508084606001516006613c5e91906156fe565b613c689190614636565b6040850151613c789060066156fe565b1015949350505050565b600080613c4a8360026156fe565b60408051600481526024810182526020810180516001600160e01b03166001600160e01b03198516179052905160009190829081903090613cd29085906159d7565b600060405180830381855afa9150503d8060008114613d0d576040519150601f19603f3d011682016040523d82523d6000602084013e613d12565b606091505b509150915081613d3557604051635fbab09b60e11b815260040160405180910390fd5b80806020019051810190613d4991906159be565b95945050505050565b6001600160a01b03811660009081526001830160205260408120541515611e73565b613d7c614295565b6116c2614357565b613d8c614295565b6000613d966139bc565b6040805180820182526001600160e01b0319868116825260208083018781529189166000908152858252939093208251815463ffffffff191660e09190911c1781559051805194955091939092613df49260018501929101906143f3565b509050507f3665bf9cd0ba4ddceeec259e21dcf8a4510f3b1130bd42e950828e69d85408ba848484604051611100939291906159f3565b6000805b82518110156140ca57828181518110613e4a57613e4a6154bf565b602002602001015151600003156140c257600080613e8a858481518110613e7357613e736154bf565b602002602001015160208101516024909101519091565b91509150600080878581518110613ea357613ea36154bf565b60200260200101516001600160a01b0316888681518110613ec657613ec66154bf565b5050604080516001600160e01b0319871660248083019190915282518083039091018152604490910182526020810180516001600160e01b0316635f9a47c360e11b1790529051613f1791906159d7565b600060405180830381855afa9150503d8060008114613f52576040519150601f19603f3d011682016040523d82523d6000602084013e613f57565b606091505b5091509150818015613f6a575060008151115b156140af57600081806020019051810190613f859190615a20565b9050600a60008a8881518110613f9d57613f9d6154bf565b6020908102919091018101516001600160a01b031682528101919091526040016000205460ff168015613fd557506000816020015151115b1561409a5760029650888681518110613ff057613ff06154bf565b602090810291909101015160405163ba08d23760e01b81526001600160e01b031987166004820152602481018690526001600160a01b039091169063ba08d23790604401602060405180830381865afa158015614051573d6000803e3d6000fd5b505050506040513d601f19601f82011682018060405250810190614075919061551e565b614095576040516373330d9b60e01b815260048101859052602401610d54565b6140a9565b60019650505050505050611923565b506140bd565b600195505050505050611923565b505050505b600101613e2f565b5092915050565b60006140dc82612474565b905060005481610120015160016140f39190614636565b1461411457604051631902d7cf60e01b815260048101839052602401610d54565b6001816101600151600381111561412d5761412d614662565b148015614144575080516001600160a01b03163314155b1561416b57604051636d0e083b60e11b815260048101839052336024820152604401610d54565b5050565b60005b835181101561428f57600082828151811061418f5761418f6154bf565b6020026020010151516000146141a65760006141c1565b8382815181106141b8576141b86154bf565b60200260200101515b90506000808684815181106141d8576141d86154bf565b60200260200101516001600160a01b0316838686815181106141fc576141fc6154bf565b602002602001015160405161421191906159d7565b60006040518083038185875af1925050503d806000811461424e576040519150601f19603f3d011682016040523d82523d6000602084013e614253565b606091505b5091509150614262828261435f565b50821561428157826003600082825461427b919061539e565b90915550505b505050806001019050614172565b50505050565b7ff0c57e16840df040f15088dc2f81fe391c3923bec73e23a9662efc9c229c6a0054600160401b900460ff166116c257604051631afcd79f60e31b815260040160405180910390fd5b612d48614295565b6000611e73836001600160a01b03841661437b565b60608160000180548060200260200160405190810160405280929190818152602001828054801561434b57602002820191906000526020600020905b815481526020019060010190808311614337575b50505050509050919050565b61376b614295565b6060826143745761436f826143ca565b611923565b5080611923565b60008181526001830160205260408120546143c257508154600181810184556000848152602080822090930184905584548482528286019093526040902091909155611923565b506000611923565b8051156143da5780518082602001fd5b604051630a12f52160e11b815260040160405180910390fd5b82805482825590600052602060002090810192821561442e579160200282015b8281111561442e578251825591602001919060010190614413565b5061443a9291506145b4565b5090565b5080546000825590600052602060002090810190610f8991906145b4565b82805482825590600052602060002090810192821561442e5760005260206000209182015b8281111561442e578254825591600101919060010190614481565b60408051610180810182526000808252602082018190529091820190815260200160608152602001606081526020016060815260200160608152602001606081526020016060815260200160008152602001600081526020016000600381111561450857614508614662565b905290565b82805482825590600052602060002090810192821561442e579160200282015b8281111561442e57825182546001600160a01b0319166001600160a01b0390911617825560209092019160019091019061452d565b8280548282559060005260206000209081019282156145a8579160200282015b828111156145a857825182906145989082615715565b5091602001919060010190614582565b5061443a9291506145c9565b5b8082111561443a57600081556001016145b5565b8082111561443a5760006145dd82826145e6565b506001016145c9565b5080546145f29061534a565b6000825580601f10614602575050565b601f016020900490600052602060002090810190610f8991906145b4565b634e487b7160e01b600052601160045260246000fd5b8082018082111561192357611923614620565b60006020828403121561465b57600080fd5b5035919050565b634e487b7160e01b600052602160045260246000fd5b6007811061468857614688614662565b9052565b60005b838110156146a757818101518382015260200161468f565b50506000910152565b600081518084526146c881602086016020860161468c565b601f01601f19169290920160200192915050565b6004811061468857614688614662565b60006101206001600160a01b038c1683526001600160401b038b166020840152614719604084018b614678565b80606084015261472b8184018a6146b0565b9050828103608084015261473f81896146b0565b905082810360a084015261475381886146b0565b9150508460c08301528360e08301526147706101008301846146dc565b9a9950505050505050505050565b80356001600160a01b038116811461479557600080fd5b919050565b600080604083850312156147ad57600080fd5b6147b68361477e565b91506147c46020840161477e565b90509250929050565b60008083601f8401126147df57600080fd5b5081356001600160401b038111156147f657600080fd5b60208301915083602082850101111561480e57600080fd5b9250929050565b60008060006040848603121561482a57600080fd5b8335925060208401356001600160401b0381111561484757600080fd5b614853868287016147cd565b9497909650939450505050565b6080810161192382846001600160401b038082511683528060208301511660208401525060408101516040830152606081015160608301525050565b60028110610f8957600080fd5b80356147958161489c565b600080600080606085870312156148ca57600080fd5b8435935060208501356148dc8161489c565b925060408501356001600160401b038111156148f757600080fd5b614903878288016147cd565b95989497509550505050565b6001600160e01b031981168114610f8957600080fd5b6000806000806060858703121561493b57600080fd5b84356149468161490f565b935060208501356149568161490f565b925060408501356001600160401b038082111561497257600080fd5b818701915087601f83011261498657600080fd5b81358181111561499557600080fd5b8860208260051b85010111156149aa57600080fd5b95989497505060200194505050565b8015158114610f8957600080fd5b600080604083850312156149da57600080fd5b6149e38361477e565b915060208301356149f3816149b9565b809150509250929050565b60008060408385031215614a1157600080fd5b50508035926020909101359150565b60008060408385031215614a3357600080fd5b823591506147c46020840161477e565b600060208284031215614a5557600080fd5b8135611e738161490f565b60008060408385031215614a7357600080fd5b8235915060208301356149f38161489c565b634e487b7160e01b600052604160045260246000fd5b604080519081016001600160401b0381118282101715614abd57614abd614a85565b60405290565b604051601f8201601f191681016001600160401b0381118282101715614aeb57614aeb614a85565b604052919050565b60006001600160401b03821115614b0c57614b0c614a85565b5060051b60200190565b600082601f830112614b2757600080fd5b81356020614b3c614b3783614af3565b614ac3565b8083825260208201915060208460051b870101935086841115614b5e57600080fd5b602086015b84811015614b8157614b748161477e565b8352918301918301614b63565b509695505050505050565b600082601f830112614b9d57600080fd5b81356020614bad614b3783614af3565b8083825260208201915060208460051b870101935086841115614bcf57600080fd5b602086015b84811015614b815780358352918301918301614bd4565b60006001600160401b03831115614c0457614c04614a85565b614c17601f8401601f1916602001614ac3565b9050828152838383011115614c2b57600080fd5b828260208301376000602084830101529392505050565b600082601f830112614c5357600080fd5b81356020614c63614b3783614af3565b82815260059290921b84018101918181019086841115614c8257600080fd5b8286015b84811015614b815780356001600160401b03811115614ca55760008081fd5b8701603f81018913614cb75760008081fd5b614cc8898683013560408401614beb565b845250918301918301614c86565b600082601f830112614ce757600080fd5b611e7383833560208501614beb565b60008060008060808587031215614d0c57600080fd5b84356001600160401b0380821115614d2357600080fd5b614d2f88838901614b16565b95506020870135915080821115614d4557600080fd5b614d5188838901614b8c565b94506040870135915080821115614d6757600080fd5b614d7388838901614c42565b93506060870135915080821115614d8957600080fd5b50614d9687828801614cd6565b91505092959194509250565b60008151808452602080850194506020840160005b83811015614dd357815187529582019590820190600101614db7565b509495945050505050565b602081526000611e736020830184614da2565b60008151808452602080850194506020840160005b83811015614dd35781516001600160a01b031687529582019590820190600101614e06565b602081526000611e736020830184614df1565b80356001600160401b038116811461479557600080fd5b600080600083850360c0811215614e6b57600080fd5b84359350602085013560048110614e8157600080fd5b92506080603f1982011215614e9557600080fd5b50604051608081018181106001600160401b0382111715614eb857614eb8614a85565b8060405250614ec960408601614e3e565b8152614ed760608601614e3e565b60208201526080850135604082015260a0909401356060850152509093909250565b60028110610f8957610f89614662565b6001600160401b03858116825284811660208301528316604082015260808101614f3283614ef9565b82606083015295945050505050565b600060208284031215614f5357600080fd5b81356001600160401b03811115614f6957600080fd5b614f7584828501614cd6565b949350505050565b602080825282516001600160e01b03191682820152820151604080830152600090614f756060840182614da2565b60008060408385031215614fbe57600080fd5b8235614fc98161490f565b946020939093013593505050565b60008282518085526020808601955060208260051b8401016020860160005b8481101561502457601f198684030189526150128383516146b0565b98840198925090830190600101614ff6565b5090979650505050505050565b6020815261504b6020820183516001600160a01b03169052565b6000602083015161506760408401826001600160401b03169052565b50604083015161507a6060840182614678565b5060608301516101808060808501526150976101a0850183614df1565b91506080850151601f19808685030160a08701526150b58483614da2565b935060a08701519150808685030160c08701526150d28483614fd7565b935060c08701519150808685030160e08701526150ef84836146b0565b935060e0870151915061010081878603018188015261510e85846146b0565b94508088015192505061012081878603018188015261512d85846146b0565b908801516101408881019190915288015161016080890191909152880151909450915061515e9050828601826146dc565b5090949350505050565b60006020828403121561517a57600080fd5b611e738261477e565b6001600160401b038416815261519883614ef9565b826020820152606060408201526000613d4960608301846146b0565b600080600080600080600080610100898b0312156151d157600080fd5b6151da8961477e565b97506151e860208a0161477e565b96506151f660408a0161477e565b955061520460608a0161477e565b945061521260808a0161477e565b935061522060a08a0161477e565b925060c0890135915061523560e08a01614e3e565b90509295985092959890939650565b600080600080600080600060e0888a03121561525f57600080fd5b87356001600160401b038082111561527657600080fd5b6152828b838c01614b16565b985060208a013591508082111561529857600080fd5b6152a48b838c01614b8c565b975060408a01359150808211156152ba57600080fd5b6152c68b838c01614c42565b965060608a01359150808211156152dc57600080fd5b6152e88b838c01614cd6565b955060808a01359150808211156152fe57600080fd5b61530a8b838c01614cd6565b945060a08a013591508082111561532057600080fd5b5061532d8a828b01614cd6565b92505061533c60c089016148a9565b905092959891949750929550565b600181811c9082168061535e57607f821691505b6020821081036113bf57634e487b7160e01b600052602260045260246000fd5b6001600160401b038181168382160190808211156140ca576140ca614620565b8181038181111561192357611923614620565b60208152816020820152818360408301376000818301604090810191909152601f909201601f19160101919050565b82815260408101611e736020830184614678565b6020810161540183614ef9565b91905290565b6001600160e01b0319858116825284166020820152606060408201819052810182905260007f07ffffffffffffffffffffffffffffffffffffffffffffffffffffffffffffff83111561545957600080fd5b8260051b808560808501379190910160800195945050505050565b6080815260006154876080830187614df1565b82810360208401526154998187614da2565b905082810360408401526154ad8186614fd7565b91505082606083015295945050505050565b634e487b7160e01b600052603260045260246000fd5b60a0810161551182856001600160401b038082511683528060208301511660208401525060408101516040830152606081015160608301525050565b8260808301529392505050565b60006020828403121561553057600080fd5b8151611e73816149b9565b8183823760009101908152919050565b60008083546155598161534a565b600182811680156155715760018114615586576155b5565b60ff19841687528215158302870194506155b5565b8760005260208060002060005b858110156155ac5781548a820152908401908201615593565b50505082870194505b50929695505050505050565b8381526001600160a01b0383166020820152606081016155e083614ef9565b826040830152949350505050565b601f8211156134af576000816000526020600020601f850160051c810160208610156156175750805b601f850160051c820191505b8181101561563657828155600101615623565b505050505050565b6001600160401b0383111561565557615655614a85565b61566983615663835461534a565b836155ee565b6000601f84116001811461569d57600085156156855750838201355b600019600387901b1c1916600186901b1783556156f7565b600083815260209020601f19861690835b828110156156ce57868501358255602094850194600190920191016156ae565b50868210156156eb5760001960f88860031b161c19848701351681555b505060018560011b0183555b5050505050565b808202811582820484141761192357611923614620565b81516001600160401b0381111561572e5761572e614a85565b6157428161573c845461534a565b846155ee565b602080601f831160018114615777576000841561575f5750858301515b600019600386901b1c1916600185901b178555615636565b600085815260208120601f198616915b828110156157a657888601518255948401946001909101908401615787565b50858210156157c45787850151600019600388901b60f8161c191681555b5050505050600190811b01905550565b60e0815260006157e760e083018a614df1565b82810360208401526157f9818a614da2565b9050828103604084015261580d8189614fd7565b9050828103606084015261582181886146b0565b9050828103608084015261583581876146b0565b905082810360a084015261584981866146b0565b9150508260c083015298975050505050505050565b6000828254808552602080860195506005818360051b8501016000878152838120815b8681101561591457601f19888503018b5282825461589e8161534a565b808752600182811680156158b957600181146158d2576158fd565b60ff198416898c01528215158a1b89018b0194506158fd565b8688528a8820885b848110156158f55781548b82018e0152908301908c016158da565b8a018c019550505b509d89019d92965050509190910190600101615881565b50919998505050505050505050565b600060808201868352602060808185015281875480845260a08601915060009350888452828420845b828110156159715781546001600160a01b03168452928401926001918201910161594c565b50505084810360408601528654808252878452828420918301905b808510156159ab5782548252600194850194909201919083019061598c565b508581036060870152614770818861585e565b6000602082840312156159d057600080fd5b5051919050565b600082516159e981846020870161468c565b9190910192915050565b6001600160e01b0319848116825283166020820152606060408201819052600090613d4990830184614da2565b60006020808385031215615a3357600080fd5b82516001600160401b0380821115615a4a57600080fd5b9084019060408287031215615a5e57600080fd5b615a66614a9b565b8251615a718161490f565b81528284015182811115615a8457600080fd5b80840193505086601f840112615a9957600080fd5b82519150615aa9614b3783614af3565b82815260059290921b83018401918481019088841115615ac857600080fd5b938501935b83851015615ae657845182529385019390850190615acd565b94820194909452969550505050505056fea26469706673582212205a394c2bf88143934fea2fef4b7843b84268297cfdc78df01944dc6d863644b564736f6c63430008190033",
  "linkReferences": {},
  "deployedLinkReferences": {}
}