{
  "_format": "hh-sol-artifact-1",
  "contractName": "DiamondDaoLowMajority",
  "sourceName": "contracts/DiamondDaoLowMajority.sol",
  "abi": [
    {
      "inputs": [],
      "stateMutability": "nonpayable",
      "type": "constructor"
    },
    {
      "inputs": [],
      "name": "FailedInnerCall",
      "type": "error"
    },
    {
      "inputs": [],
      "name": "InvalidArgument",
      "type": "error"
    },
    {
      "inputs": [],
      "name": "InvalidInitialization",
      "type": "error"
    },
    {
      "inputs": [],
      "name": "NotInitializing",
      "type": "error"
    },
    {
      "inputs": [],
      "name": "OnlyGovernance",
      "type": "error"
    },
    {
      "inputs": [],
      "name": "ReentrancyGuardReentrantCall",
      "type": "error"
    },
    {
      "anonymous": false,
      "inputs": [
        {
          "indexed": false,
          "internalType": "uint64",
          "name": "version",
          "type": "uint64"
        }
      ],
      "name": "Initialized",
      "type": "event"
    },
    {
      "anonymous": false,
      "inputs": [
        {
          "indexed": false,
          "internalType": "uint256",
          "name": "proposalId",
          "type": "uint256"
        }
      ],
      "name": "LowMajorityProposalExecuted",
      "type": "event"
    },
    {
      "inputs": [
        {
          "internalType": "uint256",
          "name": "proposalId",
          "type": "uint256"
        },
        {
          "internalType": "address[]",
          "name": "targets",
          "type": "address[]"
        },
        {
          "internalType": "uint256[]",
          "name": "values",
          "type": "uint256[]"
        },
        {
          "internalType": "bytes[]",
          "name": "calldatas",
          "type": "bytes[]"
        }
      ],
      "name": "execute",
      "outputs": [],
      "stateMutability": "nonpayable",
      "type": "function"
    },
    {
      "inputs": [
        {
          "internalType": "address",
          "name": "_mainDao",
          "type": "address"
        }
      ],
      "name": "initialize",
      "outputs": [],
      "stateMutability": "nonpayable",
      "type": "function"
    },
    {
      "inputs": [],
      "name": "lowMajorityPot",
      "outputs": [
        {
          "internalType": "uint256",
          "name": "",
          "type": "uint256"
        }
      ],
      "stateMutability": "view",
      "type": "function"
    },
    {
      "inputs": [],
      "name": "mainDao",
      "outputs": [
        {
          "internalType": "address",
          "name": "",
          "type": "address"
        }
      ],
      "stateMutability": "view",
      "type": "function"
    },
    {
      "inputs": [
        {
          "internalType": "address",
          "name": "",
          "type": "address"
        },
        {
          "internalType": "address",
          "name": "",
          "type": "address"
        },
        {
          "internalType": "uint256[]",
          "name": "",
          "type": "uint256[]"
        },
        {
          "internalType": "uint256[]",
          "name": "",
          "type": "uint256[]"
        },
        {
          "internalType": "bytes",
          "name": "",
          "type": "bytes"
        }
      ],
      "name": "onERC1155BatchReceived",
      "outputs": [
        {
          "internalType": "bytes4",
          "name": "",
          "type": "bytes4"
        }
      ],
      "stateMutability": "nonpayable",
      "type": "function"
    },
    {
      "inputs": [
        {
          "internalType": "address",
          "name": "",
          "type": "address"
        },
        {
          "internalType": "address",
          "name": "",
          "type": "address"
        },
        {
          "internalType": "uint256",
          "name": "",
          "type": "uint256"
        },
        {
          "internalType": "uint256",
          "name": "",
          "type": "uint256"
        },
        {
          "internalType": "bytes",
          "name": "",
          "type": "bytes"
        }
      ],
      "name": "onERC1155Received",
      "outputs": [
        {
          "internalType": "bytes4",
          "name": "",
          "type": "bytes4"
        }
      ],
      "stateMutability": "nonpayable",
      "type": "function"
    },
    {
      "inputs": [
        {
          "internalType": "address",
          "name": "",
          "type": "address"
        },
        {
          "internalType": "address",
          "name": "",
          "type": "address"
        },
        {
          "internalType": "uint256",
          "name": "",
          "type": "uint256"
        },
        {
          "internalType": "bytes",
          "name": "",
          "type": "bytes"
        }
      ],
      "name": "onERC721Received",
      "outputs": [
        {
          "internalType": "bytes4",
          "name": "",
          "type": "bytes4"
        }
      ],
      "stateMutability": "nonpayable",
      "type": "function"
    },
    {
      "inputs": [
        {
          "components": [
            {
              "internalType": "uint64",
              "name": "countYes",
              "type": "uint64"
            },
            {
              "internalType": "uint64",
              "name": "countNo",
              "type": "uint64"
            },
            {
              "internalType": "uint256",
              "name": "stakeYes",
              "type": "uint256"
            },
            {
              "internalType": "uint256",
              "name": "stakeNo",
              "type": "uint256"
            }
          ],
          "internalType": "struct VotingResult",
          "name": "result",
          "type": "tuple"
        },
        {
          "internalType": "uint256",
          "name": "totalStakedAmount",
          "type": "uint256"
        }
      ],
      "name": "quorumReached",
      "outputs": [
        {
          "internalType": "bool",
          "name": "",
          "type": "bool"
        }
      ],
      "stateMutability": "pure",
      "type": "function"
    },
    {
      "inputs": [
        {
          "internalType": "bytes4",
          "name": "interfaceId",
          "type": "bytes4"
        }
      ],
      "name": "supportsInterface",
      "outputs": [
        {
          "internalType": "bool",
          "name": "",
          "type": "bool"
        }
      ],
      "stateMutability": "view",
      "type": "function"
    },
    {
      "stateMutability": "payable",
      "type": "receive"
    }
  ],
  "bytecode": "0x6080604052348015600f57600080fd5b506016601a565b60ca565b7ff0c57e16840df040f15088dc2f81fe391c3923bec73e23a9662efc9c229c6a00805468010000000000000000900460ff161560695760405163f92ee8a960e01b815260040160405180910390fd5b80546001600160401b039081161460c75780546001600160401b0319166001600160401b0390811782556040519081527fc7f505b2f371ae2175ee4913f4499e1f2633a7b5936321eed1cdaeb6115181d29060200160405180910390a15b50565b610cd7806100d96000396000f3fe60806040526004361061009a5760003560e01c806352e9fe9711610069578063c4d66de81161004e578063c4d66de8146101dc578063c963d4ed146101fc578063f23a6e611461022057600080fd5b806352e9fe9714610178578063bc197c81146101b057600080fd5b806301ffc9a7146100bd578063150b7a02146100f2578063364604c4146101365780634590239b1461015657600080fd5b366100b857346000808282546100b0919061075a565b925050819055005b600080fd5b3480156100c957600080fd5b506100dd6100d836600461076d565b61024c565b60405190151581526020015b60405180910390f35b3480156100fe57600080fd5b5061011d61010d36600461086a565b630a85bd0160e11b949350505050565b6040516001600160e01b031990911681526020016100e9565b34801561014257600080fd5b506100dd6101513660046108ea565b610283565b34801561016257600080fd5b506101766101713660046109bc565b610296565b005b34801561018457600080fd5b50600154610198906001600160a01b031681565b6040516001600160a01b0390911681526020016100e9565b3480156101bc57600080fd5b5061011d6101cb366004610ae0565b63bc197c8160e01b95945050505050565b3480156101e857600080fd5b506101766101f7366004610b8a565b61044c565b34801561020857600080fd5b5061021260005481565b6040519081526020016100e9565b34801561022c57600080fd5b5061011d61023b366004610ba5565b63f23a6e6160e01b95945050505050565b60006001600160e01b03198216630271189760e51b148061027d57506301ffc9a760e01b6001600160e01b03198316145b92915050565b600061028f83836105d9565b9392505050565b61029e61061f565b6001546001600160a01b031633146102c9576040516354348f0360e01b815260040160405180910390fd5b60005b858110156103e65760008585838181106102e8576102e8610c0a565b90506020020135905060008089898581811061030657610306610c0a565b905060200201602081019061031b9190610b8a565b6001600160a01b031688888681811061033657610336610c0a565b9050602002013587878781811061034f5761034f610c0a565b90506020028101906103619190610c20565b60405161036f929190610c67565b60006040518083038185875af1925050503d80600081146103ac576040519150601f19603f3d011682016040523d82523d6000602084013e6103b1565b606091505b50915091506103c08282610669565b50826000808282546103d29190610c77565b9091555050600190930192506102cc915050565b506040518781527f3255bd4dce9d59065cf88c8550ab79cdf1a4bb7d6879df5a975d6229cdfaaa299060200160405180910390a161044360017f9b779b17422d0df92223018b32b4d1fa46e071723d6817e2486d003becc55f0055565b50505050505050565b7ff0c57e16840df040f15088dc2f81fe391c3923bec73e23a9662efc9c229c6a00805468010000000000000000810460ff16159067ffffffffffffffff166000811580156104975750825b905060008267ffffffffffffffff1660011480156104b45750303b155b9050811580156104c2575080155b156104e05760405163f92ee8a960e01b815260040160405180910390fd5b845467ffffffffffffffff19166001178555831561051457845468ff00000000000000001916680100000000000000001785555b6001600160a01b03861661053b5760405163a9cb9e0d60e01b815260040160405180910390fd5b6105436106ab565b61054b6106bd565b6105536106bd565b600180547fffffffffffffffffffffffff0000000000000000000000000000000000000000166001600160a01b03881617905583156105d157845468ff000000000000000019168555604051600181527fc7f505b2f371ae2175ee4913f4499e1f2633a7b5936321eed1cdaeb6115181d29060200160405180910390a15b505050505050565b6000806105e7836002610c8a565b905080846060015160066105fb9190610c8a565b610605919061075a565b6040850151610615906006610c8a565b1015949350505050565b7f9b779b17422d0df92223018b32b4d1fa46e071723d6817e2486d003becc55f0080546001190161066357604051633ee5aeb560e01b815260040160405180910390fd5b60029055565b60608261067e57610679826106c5565b61027d565b508061027d565b60017f9b779b17422d0df92223018b32b4d1fa46e071723d6817e2486d003becc55f0055565b6106b36106ee565b6106bb61073c565b565b6106bb6106ee565b8051156106d55780518082602001fd5b604051630a12f52160e11b815260040160405180910390fd5b7ff0c57e16840df040f15088dc2f81fe391c3923bec73e23a9662efc9c229c6a005468010000000000000000900460ff166106bb57604051631afcd79f60e31b815260040160405180910390fd5b6106856106ee565b634e487b7160e01b600052601160045260246000fd5b8082018082111561027d5761027d610744565b60006020828403121561077f57600080fd5b81356001600160e01b03198116811461028f57600080fd5b80356001600160a01b03811681146107ae57600080fd5b919050565b634e487b7160e01b600052604160045260246000fd5b604051601f8201601f1916810167ffffffffffffffff811182821017156107f2576107f26107b3565b604052919050565b600082601f83011261080b57600080fd5b813567ffffffffffffffff811115610825576108256107b3565b610838601f8201601f19166020016107c9565b81815284602083860101111561084d57600080fd5b816020850160208301376000918101602001919091529392505050565b6000806000806080858703121561088057600080fd5b61088985610797565b935061089760208601610797565b925060408501359150606085013567ffffffffffffffff8111156108ba57600080fd5b6108c6878288016107fa565b91505092959194509250565b803567ffffffffffffffff811681146107ae57600080fd5b60008082840360a08112156108fe57600080fd5b608081121561090c57600080fd5b506040516080810181811067ffffffffffffffff82111715610930576109306107b3565b60405261093c846108d2565b815261094a602085016108d2565b602082015260408481013590820152606080850135908201529460809093013593505050565b60008083601f84011261098257600080fd5b50813567ffffffffffffffff81111561099a57600080fd5b6020830191508360208260051b85010111156109b557600080fd5b9250929050565b60008060008060008060006080888a0312156109d757600080fd5b87359650602088013567ffffffffffffffff808211156109f657600080fd5b610a028b838c01610970565b909850965060408a0135915080821115610a1b57600080fd5b610a278b838c01610970565b909650945060608a0135915080821115610a4057600080fd5b50610a4d8a828b01610970565b989b979a50959850939692959293505050565b600082601f830112610a7157600080fd5b8135602067ffffffffffffffff821115610a8d57610a8d6107b3565b8160051b610a9c8282016107c9565b9283528481018201928281019087851115610ab657600080fd5b83870192505b84831015610ad557823582529183019190830190610abc565b979650505050505050565b600080600080600060a08688031215610af857600080fd5b610b0186610797565b9450610b0f60208701610797565b9350604086013567ffffffffffffffff80821115610b2c57600080fd5b610b3889838a01610a60565b94506060880135915080821115610b4e57600080fd5b610b5a89838a01610a60565b93506080880135915080821115610b7057600080fd5b50610b7d888289016107fa565b9150509295509295909350565b600060208284031215610b9c57600080fd5b61028f82610797565b600080600080600060a08688031215610bbd57600080fd5b610bc686610797565b9450610bd460208701610797565b93506040860135925060608601359150608086013567ffffffffffffffff811115610bfe57600080fd5b610b7d888289016107fa565b634e487b7160e01b600052603260045260246000fd5b6000808335601e19843603018112610c3757600080fd5b83018035915067ffffffffffffffff821115610c5257600080fd5b6020019150368190038213156109b557600080fd5b8183823760009101908152919050565b8181038181111561027d5761027d610744565b808202811582820484141761027d5761027d61074456fea264697066735822122094a518c1efb76361392bc56948e289add41f1aa4d8476e235ea7fb3108cfbee564736f6c63430008190033",
  "linkReferences": {},
  "deployedLinkReferences": {}
}