{
  "_format": "hh-sol-artifact-1",
  "contractName": "DiamondDao",
  "sourceName": "contracts/DiamondDao.sol",
  "abi": [
    {
      "inputs": [],
      "stateMutability": "nonpayable",
      "type": "constructor"
    },
    {
      "inputs": [
        {
          "internalType": "bytes",
          "name": "funcSelector",
          "type": "bytes"
        },
        {
          "internalType": "address",
          "name": "targetContract",
          "type": "address"
        }
      ],
      "name": "ContractCallFailed",
      "type": "error"
    },
    {
      "inputs": [],
      "name": "FailedInnerCall",
      "type": "error"
    },
    {
      "inputs": [
        {
          "internalType": "bytes4",
          "name": "funcSelector",
          "type": "bytes4"
        },
        {
          "internalType": "address",
          "name": "targetContract",
          "type": "address"
        }
      ],
      "name": "FunctionUpgradeNotAllowed",
      "type": "error"
    },
    {
      "inputs": [],
      "name": "GetterCallFailed",
      "type": "error"
    },
    {
      "inputs": [],
      "name": "InsufficientFunds",
      "type": "error"
    },
    {
      "inputs": [],
      "name": "InvalidArgument",
      "type": "error"
    },
    {
      "inputs": [],
      "name": "InvalidInitialization",
      "type": "error"
    },
    {
      "inputs": [],
      "name": "InvalidStartTimestamp",
      "type": "error"
    },
    {
      "inputs": [
        {
          "internalType": "uint256",
          "name": "currentVal",
          "type": "uint256"
        },
        {
          "internalType": "uint256",
          "name": "newVal",
          "type": "uint256"
        }
      ],
      "name": "InvalidUpgradeValue",
      "type": "error"
    },
    {
      "inputs": [],
      "name": "NewProposalsLimitExceeded",
      "type": "error"
    },
    {
      "inputs": [
        {
          "internalType": "uint256",
          "name": "_newVal",
          "type": "uint256"
        }
      ],
      "name": "NewValueOutOfRange",
      "type": "error"
    },
    {
      "inputs": [],
      "name": "NotInitializing",
      "type": "error"
    },
    {
      "inputs": [
        {
          "internalType": "uint256",
          "name": "proposalId",
          "type": "uint256"
        },
        {
          "internalType": "address",
          "name": "caller",
          "type": "address"
        }
      ],
      "name": "NotProposer",
      "type": "error"
    },
    {
      "inputs": [],
      "name": "OnlyGovernance",
      "type": "error"
    },
    {
      "inputs": [],
      "name": "OnlyProposer",
      "type": "error"
    },
    {
      "inputs": [
        {
          "internalType": "address",
          "name": "caller",
          "type": "address"
        }
      ],
      "name": "OnlyValidators",
      "type": "error"
    },
    {
      "inputs": [
        {
          "internalType": "uint256",
          "name": "proposalId",
          "type": "uint256"
        }
      ],
      "name": "OutsideExecutionWindow",
      "type": "error"
    },
    {
      "inputs": [
        {
          "internalType": "address",
          "name": "owner",
          "type": "address"
        }
      ],
      "name": "OwnableInvalidOwner",
      "type": "error"
    },
    {
      "inputs": [
        {
          "internalType": "address",
          "name": "account",
          "type": "address"
        }
      ],
      "name": "OwnableUnauthorizedAccount",
      "type": "error"
    },
    {
      "inputs": [
        {
          "internalType": "uint256",
          "name": "proposalId",
          "type": "uint256"
        }
      ],
      "name": "ProposalAlreadyExist",
      "type": "error"
    },
    {
      "inputs": [
        {
          "internalType": "uint256",
          "name": "proposalId",
          "type": "uint256"
        }
      ],
      "name": "ProposalNotExist",
      "type": "error"
    },
    {
      "inputs": [],
      "name": "ReentrancyGuardReentrantCall",
      "type": "error"
    },
    {
      "inputs": [
        {
          "internalType": "address",
          "name": "from",
          "type": "address"
        },
        {
          "internalType": "address",
          "name": "to",
          "type": "address"
        },
        {
          "internalType": "uint256",
          "name": "amount",
          "type": "uint256"
        }
      ],
      "name": "TransferFailed",
      "type": "error"
    },
    {
      "inputs": [
        {
          "internalType": "enum Phase",
          "name": "phase",
          "type": "uint8"
        }
      ],
      "name": "UnavailableInCurrentPhase",
      "type": "error"
    },
    {
      "inputs": [
        {
          "internalType": "uint256",
          "name": "proposalId",
          "type": "uint256"
        },
        {
          "internalType": "enum ProposalState",
          "name": "state",
          "type": "uint8"
        }
      ],
      "name": "UnexpectedProposalState",
      "type": "error"
    },
    {
      "inputs": [],
      "name": "UnfinalizedProposalsExist",
      "type": "error"
    },
    {
      "anonymous": false,
      "inputs": [
        {
          "indexed": false,
          "internalType": "uint64",
          "name": "version",
          "type": "uint64"
        }
      ],
      "name": "Initialized",
      "type": "event"
    },
    {
      "anonymous": false,
      "inputs": [
        {
          "indexed": true,
          "internalType": "address",
          "name": "previousOwner",
          "type": "address"
        },
        {
          "indexed": true,
          "internalType": "address",
          "name": "newOwner",
          "type": "address"
        }
      ],
      "name": "OwnershipTransferred",
      "type": "event"
    },
    {
      "anonymous": false,
      "inputs": [
        {
          "indexed": true,
          "internalType": "address",
          "name": "proposer",
          "type": "address"
        },
        {
          "indexed": true,
          "internalType": "uint256",
          "name": "proposalId",
          "type": "uint256"
        },
        {
          "indexed": false,
          "internalType": "string",
          "name": "reason",
          "type": "string"
        }
      ],
      "name": "ProposalCanceled",
      "type": "event"
    },
    {
      "anonymous": false,
      "inputs": [
        {
          "indexed": true,
          "internalType": "address",
          "name": "proposer",
          "type": "address"
        },
        {
          "indexed": true,
          "internalType": "uint256",
          "name": "proposalId",
          "type": "uint256"
        },
        {
          "indexed": false,
          "internalType": "address[]",
          "name": "targets",
          "type": "address[]"
        },
        {
          "indexed": false,
          "internalType": "uint256[]",
          "name": "values",
          "type": "uint256[]"
        },
        {
          "indexed": false,
          "internalType": "bytes[]",
          "name": "calldatas",
          "type": "bytes[]"
        },
        {
          "indexed": false,
          "internalType": "string",
          "name": "title",
          "type": "string"
        },
        {
          "indexed": false,
          "internalType": "string",
          "name": "description",
          "type": "string"
        },
        {
          "indexed": false,
          "internalType": "string",
          "name": "discussionUrl",
          "type": "string"
        }
      ],
      "name": "ProposalCreated",
      "type": "event"
    },
    {
      "anonymous": false,
      "inputs": [
        {
          "indexed": true,
          "internalType": "address",
          "name": "caller",
          "type": "address"
        },
        {
          "indexed": true,
          "internalType": "uint256",
          "name": "proposalId",
          "type": "uint256"
        }
      ],
      "name": "ProposalExecuted",
      "type": "event"
    },
    {
      "anonymous": false,
      "inputs": [
        {
          "indexed": false,
          "internalType": "string",
          "name": "funcSelector",
          "type": "string"
        }
      ],
      "name": "RemoveChangeAbleParameter",
      "type": "event"
    },
    {
      "anonymous": false,
      "inputs": [
        {
          "indexed": false,
          "internalType": "string",
          "name": "setter",
          "type": "string"
        },
        {
          "indexed": false,
          "internalType": "string",
          "name": "getter",
          "type": "string"
        },
        {
          "indexed": false,
          "internalType": "uint256[]",
          "name": "params",
          "type": "uint256[]"
        }
      ],
      "name": "SetChangeAbleParameter",
      "type": "event"
    },
    {
      "anonymous": false,
      "inputs": [
        {
          "indexed": false,
          "internalType": "bool",
          "name": "allowed",
          "type": "bool"
        },
        {
          "indexed": false,
          "internalType": "string",
          "name": "setter",
          "type": "string"
        },
        {
          "indexed": false,
          "internalType": "string",
          "name": "getter",
          "type": "string"
        },
        {
          "indexed": false,
          "internalType": "uint256[]",
          "name": "params",
          "type": "uint256[]"
        }
      ],
      "name": "SetChangeAbleParameters",
      "type": "event"
    },
    {
      "anonymous": false,
      "inputs": [
        {
          "indexed": false,
          "internalType": "uint256",
          "name": "fee",
          "type": "uint256"
        }
      ],
      "name": "SetCreateProposalFee",
      "type": "event"
    },
    {
      "anonymous": false,
      "inputs": [
        {
          "indexed": false,
          "internalType": "address",
          "name": "contractAddress",
          "type": "address"
        },
        {
          "indexed": false,
          "internalType": "bool",
          "name": "isCore",
          "type": "bool"
        }
      ],
      "name": "SetIsCoreContract",
      "type": "event"
    },
    {
      "anonymous": false,
      "inputs": [
        {
          "indexed": true,
          "internalType": "address",
          "name": "voter",
          "type": "address"
        },
        {
          "indexed": true,
          "internalType": "uint256",
          "name": "proposalId",
          "type": "uint256"
        },
        {
          "indexed": false,
          "internalType": "enum Vote",
          "name": "vote",
          "type": "uint8"
        }
      ],
      "name": "SubmitVote",
      "type": "event"
    },
    {
      "anonymous": false,
      "inputs": [
        {
          "indexed": true,
          "internalType": "address",
          "name": "voter",
          "type": "address"
        },
        {
          "indexed": true,
          "internalType": "uint256",
          "name": "proposalId",
          "type": "uint256"
        },
        {
          "indexed": false,
          "internalType": "enum Vote",
          "name": "vote",
          "type": "uint8"
        },
        {
          "indexed": false,
          "internalType": "string",
          "name": "reason",
          "type": "string"
        }
      ],
      "name": "SubmitVoteWithReason",
      "type": "event"
    },
    {
      "anonymous": false,
      "inputs": [
        {
          "indexed": false,
          "internalType": "enum Phase",
          "name": "phase",
          "type": "uint8"
        },
        {
          "indexed": false,
          "internalType": "uint256",
          "name": "start",
          "type": "uint256"
        },
        {
          "indexed": false,
          "internalType": "uint256",
          "name": "end",
          "type": "uint256"
        }
      ],
      "name": "SwitchDaoPhase",
      "type": "event"
    },
    {
      "anonymous": false,
      "inputs": [
        {
          "indexed": true,
          "internalType": "address",
          "name": "caller",
          "type": "address"
        },
        {
          "indexed": true,
          "internalType": "uint256",
          "name": "proposalId",
          "type": "uint256"
        },
        {
          "indexed": false,
          "internalType": "bool",
          "name": "accepted",
          "type": "bool"
        }
      ],
      "name": "VotingFinalized",
      "type": "event"
    },
    {
      "inputs": [],
      "name": "DAO_PHASE_DURATION",
      "outputs": [
        {
          "internalType": "uint64",
          "name": "",
          "type": "uint64"
        }
      ],
      "stateMutability": "view",
      "type": "function"
    },
    {
      "inputs": [],
      "name": "MAX_NEW_PROPOSALS",
      "outputs": [
        {
          "internalType": "uint256",
          "name": "",
          "type": "uint256"
        }
      ],
      "stateMutability": "view",
      "type": "function"
    },
    {
      "inputs": [
        {
          "internalType": "bytes4",
          "name": "",
          "type": "bytes4"
        }
      ],
      "name": "allowedParameterRange",
      "outputs": [
        {
          "internalType": "bytes4",
          "name": "getter",
          "type": "bytes4"
        }
      ],
      "stateMutability": "view",
      "type": "function"
    },
    {
      "inputs": [
        {
          "internalType": "uint256",
          "name": "proposalId",
          "type": "uint256"
        },
        {
          "internalType": "string",
          "name": "reason",
          "type": "string"
        }
      ],
      "name": "cancel",
      "outputs": [],
      "stateMutability": "nonpayable",
      "type": "function"
    },
    {
      "inputs": [
        {
          "internalType": "uint256",
          "name": "proposalId",
          "type": "uint256"
        }
      ],
      "name": "countVotes",
      "outputs": [
        {
          "components": [
            {
              "internalType": "uint64",
              "name": "countYes",
              "type": "uint64"
            },
            {
              "internalType": "uint64",
              "name": "countNo",
              "type": "uint64"
            },
            {
              "internalType": "uint256",
              "name": "stakeYes",
              "type": "uint256"
            },
            {
              "internalType": "uint256",
              "name": "stakeNo",
              "type": "uint256"
            }
          ],
          "internalType": "struct VotingResult",
          "name": "",
          "type": "tuple"
        }
      ],
      "stateMutability": "view",
      "type": "function"
    },
    {
      "inputs": [],
      "name": "createProposalFee",
      "outputs": [
        {
          "internalType": "uint256",
          "name": "",
          "type": "uint256"
        }
      ],
      "stateMutability": "view",
      "type": "function"
    },
    {
      "inputs": [
        {
          "internalType": "uint256",
          "name": "",
          "type": "uint256"
        }
      ],
      "name": "currentPhaseProposals",
      "outputs": [
        {
          "internalType": "uint256",
          "name": "",
          "type": "uint256"
        }
      ],
      "stateMutability": "view",
      "type": "function"
    },
    {
      "inputs": [
        {
          "internalType": "uint256",
          "name": "",
          "type": "uint256"
        },
        {
          "internalType": "address",
          "name": "",
          "type": "address"
        }
      ],
      "name": "daoEpochStakeSnapshot",
      "outputs": [
        {
          "internalType": "uint256",
          "name": "",
          "type": "uint256"
        }
      ],
      "stateMutability": "view",
      "type": "function"
    },
    {
      "inputs": [],
      "name": "daoPhase",
      "outputs": [
        {
          "internalType": "uint64",
          "name": "start",
          "type": "uint64"
        },
        {
          "internalType": "uint64",
          "name": "end",
          "type": "uint64"
        },
        {
          "internalType": "uint64",
          "name": "daoEpoch",
          "type": "uint64"
        },
        {
          "internalType": "enum Phase",
          "name": "phase",
          "type": "uint8"
        }
      ],
      "stateMutability": "view",
      "type": "function"
    },
    {
      "inputs": [],
      "name": "daoPhaseCount",
      "outputs": [
        {
          "internalType": "uint256",
          "name": "",
          "type": "uint256"
        }
      ],
      "stateMutability": "view",
      "type": "function"
    },
    {
      "inputs": [
        {
          "internalType": "uint256",
          "name": "proposalId",
          "type": "uint256"
        }
      ],
      "name": "execute",
      "outputs": [],
      "stateMutability": "nonpayable",
      "type": "function"
    },
    {
      "inputs": [
        {
          "internalType": "uint256",
          "name": "proposalId",
          "type": "uint256"
        }
      ],
      "name": "finalize",
      "outputs": [],
      "stateMutability": "nonpayable",
      "type": "function"
    },
    {
      "inputs": [
        {
          "internalType": "string",
          "name": "_selector",
          "type": "string"
        }
      ],
      "name": "getAllowedParamsRange",
      "outputs": [
        {
          "components": [
            {
              "internalType": "bytes4",
              "name": "getter",
              "type": "bytes4"
            },
            {
              "internalType": "uint256[]",
              "name": "range",
              "type": "uint256[]"
            }
          ],
          "internalType": "struct ValueGuards.ParameterRange",
          "name": "",
          "type": "tuple"
        }
      ],
      "stateMutability": "view",
      "type": "function"
    },
    {
      "inputs": [
        {
          "internalType": "bytes4",
          "name": "_selector",
          "type": "bytes4"
        }
      ],
      "name": "getAllowedParamsRangeWithSelector",
      "outputs": [
        {
          "components": [
            {
              "internalType": "bytes4",
              "name": "getter",
              "type": "bytes4"
            },
            {
              "internalType": "uint256[]",
              "name": "range",
              "type": "uint256[]"
            }
          ],
          "internalType": "struct ValueGuards.ParameterRange",
          "name": "",
          "type": "tuple"
        }
      ],
      "stateMutability": "view",
      "type": "function"
    },
    {
      "inputs": [],
      "name": "getCurrentPhaseProposals",
      "outputs": [
        {
          "internalType": "uint256[]",
          "name": "",
          "type": "uint256[]"
        }
      ],
      "stateMutability": "view",
      "type": "function"
    },
    {
      "inputs": [
        {
          "internalType": "uint256",
          "name": "proposalId",
          "type": "uint256"
        }
      ],
      "name": "getProposal",
      "outputs": [
        {
          "components": [
            {
              "internalType": "address",
              "name": "proposer",
              "type": "address"
            },
            {
              "internalType": "uint64",
              "name": "votingDaoEpoch",
              "type": "uint64"
            },
            {
              "internalType": "enum ProposalState",
              "name": "state",
              "type": "uint8"
            },
            {
              "internalType": "address[]",
              "name": "targets",
              "type": "address[]"
            },
            {
              "internalType": "uint256[]",
              "name": "values",
              "type": "uint256[]"
            },
            {
              "internalType": "bytes[]",
              "name": "calldatas",
              "type": "bytes[]"
            },
            {
              "internalType": "string",
              "name": "title",
              "type": "string"
            },
            {
              "internalType": "string",
              "name": "description",
              "type": "string"
            },
            {
              "internalType": "string",
              "name": "discussionUrl",
              "type": "string"
            },
            {
              "internalType": "uint256",
              "name": "daoPhaseCount",
              "type": "uint256"
            },
            {
              "internalType": "enum ProposalType",
              "name": "proposalType",
              "type": "uint8"
            }
          ],
          "internalType": "struct Proposal",
          "name": "",
          "type": "tuple"
        }
      ],
      "stateMutability": "view",
      "type": "function"
    },
    {
      "inputs": [
        {
          "internalType": "uint256",
          "name": "proposalId",
          "type": "uint256"
        }
      ],
      "name": "getProposalVoters",
      "outputs": [
        {
          "internalType": "address[]",
          "name": "",
          "type": "address[]"
        }
      ],
      "stateMutability": "view",
      "type": "function"
    },
    {
      "inputs": [
        {
          "internalType": "uint256",
          "name": "proposalId",
          "type": "uint256"
        }
      ],
      "name": "getProposalVotersCount",
      "outputs": [
        {
          "internalType": "uint256",
          "name": "",
          "type": "uint256"
        }
      ],
      "stateMutability": "view",
      "type": "function"
    },
    {
      "inputs": [],
      "name": "governancePot",
      "outputs": [
        {
          "internalType": "uint256",
          "name": "",
          "type": "uint256"
        }
      ],
      "stateMutability": "view",
      "type": "function"
    },
    {
      "inputs": [
        {
          "internalType": "address[]",
          "name": "targets",
          "type": "address[]"
        },
        {
          "internalType": "uint256[]",
          "name": "values",
          "type": "uint256[]"
        },
        {
          "internalType": "bytes[]",
          "name": "calldatas",
          "type": "bytes[]"
        },
        {
          "internalType": "string",
          "name": "description",
          "type": "string"
        }
      ],
      "name": "hashProposal",
      "outputs": [
        {
          "internalType": "uint256",
          "name": "",
          "type": "uint256"
        }
      ],
      "stateMutability": "pure",
      "type": "function"
    },
    {
      "inputs": [
        {
          "internalType": "string",
          "name": "setter",
          "type": "string"
        },
        {
          "internalType": "string",
          "name": "getter",
          "type": "string"
        },
        {
          "internalType": "uint256[]",
          "name": "params",
          "type": "uint256[]"
        }
      ],
      "name": "initAllowedChangeableParameter",
      "outputs": [],
      "stateMutability": "nonpayable",
      "type": "function"
    },
    {
      "inputs": [
        {
          "internalType": "address",
          "name": "_validatorSet",
          "type": "address"
        },
        {
          "internalType": "address",
          "name": "_stakingHbbft",
          "type": "address"
        },
        {
          "internalType": "address",
          "name": "_reinsertPot",
          "type": "address"
        },
        {
          "internalType": "address",
          "name": "_txPermission",
          "type": "address"
        },
        {
          "internalType": "uint256",
          "name": "_createProposalFee",
          "type": "uint256"
        },
        {
          "internalType": "uint64",
          "name": "_startTimestamp",
          "type": "uint64"
        }
      ],
      "name": "initialize",
      "outputs": [],
      "stateMutability": "nonpayable",
      "type": "function"
    },
    {
      "inputs": [
        {
          "internalType": "address",
          "name": "",
          "type": "address"
        }
      ],
      "name": "isCoreContract",
      "outputs": [
        {
          "internalType": "bool",
          "name": "",
          "type": "bool"
        }
      ],
      "stateMutability": "view",
      "type": "function"
    },
    {
      "inputs": [
        {
          "internalType": "bytes4",
          "name": "funcSelector",
          "type": "bytes4"
        },
        {
          "internalType": "uint256",
          "name": "newVal",
          "type": "uint256"
        }
      ],
      "name": "isWithinAllowedRange",
      "outputs": [
        {
          "internalType": "bool",
          "name": "",
          "type": "bool"
        }
      ],
      "stateMutability": "view",
      "type": "function"
    },
    {
      "inputs": [],
      "name": "lastDaoPhaseCount",
      "outputs": [
        {
          "internalType": "uint256",
          "name": "",
          "type": "uint256"
        }
      ],
      "stateMutability": "view",
      "type": "function"
    },
    {
      "inputs": [],
      "name": "owner",
      "outputs": [
        {
          "internalType": "address",
          "name": "",
          "type": "address"
        }
      ],
      "stateMutability": "view",
      "type": "function"
    },
    {
      "inputs": [
        {
          "internalType": "uint256",
          "name": "proposalId",
          "type": "uint256"
        }
      ],
      "name": "proposalExists",
      "outputs": [
        {
          "internalType": "bool",
          "name": "",
          "type": "bool"
        }
      ],
      "stateMutability": "view",
      "type": "function"
    },
    {
      "inputs": [
        {
          "internalType": "uint256",
          "name": "",
          "type": "uint256"
        }
      ],
      "name": "proposals",
      "outputs": [
        {
          "internalType": "address",
          "name": "proposer",
          "type": "address"
        },
        {
          "internalType": "uint64",
          "name": "votingDaoEpoch",
          "type": "uint64"
        },
        {
          "internalType": "enum ProposalState",
          "name": "state",
          "type": "uint8"
        },
        {
          "internalType": "string",
          "name": "title",
          "type": "string"
        },
        {
          "internalType": "string",
          "name": "description",
          "type": "string"
        },
        {
          "internalType": "string",
          "name": "discussionUrl",
          "type": "string"
        },
        {
          "internalType": "uint256",
          "name": "daoPhaseCount",
          "type": "uint256"
        },
        {
          "internalType": "enum ProposalType",
          "name": "proposalType",
          "type": "uint8"
        }
      ],
      "stateMutability": "view",
      "type": "function"
    },
    {
      "inputs": [
        {
          "internalType": "address[]",
          "name": "targets",
          "type": "address[]"
        },
        {
          "internalType": "uint256[]",
          "name": "values",
          "type": "uint256[]"
        },
        {
          "internalType": "bytes[]",
          "name": "calldatas",
          "type": "bytes[]"
        },
        {
          "internalType": "string",
          "name": "title",
          "type": "string"
        },
        {
          "internalType": "string",
          "name": "description",
          "type": "string"
        },
        {
          "internalType": "string",
          "name": "discussionUrl",
          "type": "string"
        }
      ],
      "name": "propose",
      "outputs": [],
      "stateMutability": "payable",
      "type": "function"
    },
    {
      "inputs": [
        {
          "internalType": "enum ProposalType",
          "name": "_type",
          "type": "uint8"
        },
        {
          "components": [
            {
              "internalType": "uint64",
              "name": "countYes",
              "type": "uint64"
            },
            {
              "internalType": "uint64",
              "name": "countNo",
              "type": "uint64"
            },
            {
              "internalType": "uint256",
              "name": "stakeYes",
              "type": "uint256"
            },
            {
              "internalType": "uint256",
              "name": "stakeNo",
              "type": "uint256"
            }
          ],
          "internalType": "struct VotingResult",
          "name": "result",
          "type": "tuple"
        }
      ],
      "name": "quorumReached",
      "outputs": [
        {
          "internalType": "bool",
          "name": "",
          "type": "bool"
        }
      ],
      "stateMutability": "view",
      "type": "function"
    },
    {
      "inputs": [],
      "name": "reinsertPot",
      "outputs": [
        {
          "internalType": "address",
          "name": "",
          "type": "address"
        }
      ],
      "stateMutability": "view",
      "type": "function"
    },
    {
      "inputs": [
        {
          "internalType": "string",
          "name": "funcSelector",
          "type": "string"
        }
      ],
      "name": "removeAllowedChangeableParameter",
      "outputs": [],
      "stateMutability": "nonpayable",
      "type": "function"
    },
    {
      "inputs": [],
      "name": "renounceOwnership",
      "outputs": [],
      "stateMutability": "nonpayable",
      "type": "function"
    },
    {
      "inputs": [
        {
          "internalType": "uint256",
          "name": "",
          "type": "uint256"
        }
      ],
      "name": "results",
      "outputs": [
        {
          "internalType": "uint64",
          "name": "countYes",
          "type": "uint64"
        },
        {
          "internalType": "uint64",
          "name": "countNo",
          "type": "uint64"
        },
        {
          "internalType": "uint256",
          "name": "stakeYes",
          "type": "uint256"
        },
        {
          "internalType": "uint256",
          "name": "stakeNo",
          "type": "uint256"
        }
      ],
      "stateMutability": "view",
      "type": "function"
    },
    {
      "inputs": [
        {
          "internalType": "string",
          "name": "setter",
          "type": "string"
        },
        {
          "internalType": "string",
          "name": "getter",
          "type": "string"
        },
        {
          "internalType": "uint256[]",
          "name": "params",
          "type": "uint256[]"
        }
      ],
      "name": "setAllowedChangeableParameter",
      "outputs": [],
      "stateMutability": "nonpayable",
      "type": "function"
    },
    {
      "inputs": [
        {
          "internalType": "uint256",
          "name": "_fee",
          "type": "uint256"
        }
      ],
      "name": "setCreateProposalFee",
      "outputs": [],
      "stateMutability": "nonpayable",
      "type": "function"
    },
    {
      "inputs": [
        {
          "internalType": "address",
          "name": "_add",
          "type": "address"
        },
        {
          "internalType": "bool",
          "name": "isCore",
          "type": "bool"
        }
      ],
      "name": "setIsCoreContract",
      "outputs": [],
      "stateMutability": "nonpayable",
      "type": "function"
    },
    {
      "inputs": [],
      "name": "stakingHbbft",
      "outputs": [
        {
          "internalType": "contract IStakingHbbft",
          "name": "",
          "type": "address"
        }
      ],
      "stateMutability": "view",
      "type": "function"
    },
    {
      "inputs": [],
      "name": "statistic",
      "outputs": [
        {
          "internalType": "uint64",
          "name": "total",
          "type": "uint64"
        },
        {
          "internalType": "uint64",
          "name": "accepted",
          "type": "uint64"
        },
        {
          "internalType": "uint64",
          "name": "declined",
          "type": "uint64"
        },
        {
          "internalType": "uint64",
          "name": "canceled",
          "type": "uint64"
        }
      ],
      "stateMutability": "view",
      "type": "function"
    },
    {
      "inputs": [],
      "name": "switchPhase",
      "outputs": [],
      "stateMutability": "nonpayable",
      "type": "function"
    },
    {
      "inputs": [
        {
          "internalType": "address",
          "name": "newOwner",
          "type": "address"
        }
      ],
      "name": "transferOwnership",
      "outputs": [],
      "stateMutability": "nonpayable",
      "type": "function"
    },
    {
      "inputs": [],
      "name": "unfinalizedProposals",
      "outputs": [
        {
          "internalType": "uint256",
          "name": "",
          "type": "uint256"
        }
      ],
      "stateMutability": "view",
      "type": "function"
    },
    {
      "inputs": [],
      "name": "unfinalizedProposalsExist",
      "outputs": [
        {
          "internalType": "bool",
          "name": "",
          "type": "bool"
        }
      ],
      "stateMutability": "view",
      "type": "function"
    },
    {
      "inputs": [],
      "name": "validatorSet",
      "outputs": [
        {
          "internalType": "contract IValidatorSetHbbft",
          "name": "",
          "type": "address"
        }
      ],
      "stateMutability": "view",
      "type": "function"
    },
    {
      "inputs": [
        {
          "internalType": "uint256",
          "name": "proposalId",
          "type": "uint256"
        },
        {
          "internalType": "enum Vote",
          "name": "_vote",
          "type": "uint8"
        }
      ],
      "name": "vote",
      "outputs": [],
      "stateMutability": "nonpayable",
      "type": "function"
    },
    {
      "inputs": [
        {
          "internalType": "uint256",
          "name": "proposalId",
          "type": "uint256"
        },
        {
          "internalType": "enum Vote",
          "name": "_vote",
          "type": "uint8"
        },
        {
          "internalType": "string",
          "name": "reason",
          "type": "string"
        }
      ],
      "name": "voteWithReason",
      "outputs": [],
      "stateMutability": "nonpayable",
      "type": "function"
    },
    {
      "inputs": [
        {
          "internalType": "uint256",
          "name": "",
          "type": "uint256"
        },
        {
          "internalType": "address",
          "name": "",
          "type": "address"
        }
      ],
      "name": "votes",
      "outputs": [
        {
          "internalType": "uint64",
          "name": "timestamp",
          "type": "uint64"
        },
        {
          "internalType": "enum Vote",
          "name": "vote",
          "type": "uint8"
        },
        {
          "internalType": "string",
          "name": "reason",
          "type": "string"
        }
      ],
      "stateMutability": "view",
      "type": "function"
    },
    {
      "stateMutability": "payable",
      "type": "receive"
    }
  ],
  "bytecode": "0x6080604052348015600f57600080fd5b506016601a565b60ca565b7ff0c57e16840df040f15088dc2f81fe391c3923bec73e23a9662efc9c229c6a00805468010000000000000000900460ff161560695760405163f92ee8a960e01b815260040160405180910390fd5b80546001600160401b039081161460c75780546001600160401b0319166001600160401b0390811782556040519081527fc7f505b2f371ae2175ee4913f4499e1f2633a7b5936321eed1cdaeb6115181d29060200160405180910390a15b50565b61502e806100d96000396000f3fe60806040526004361061030c5760003560e01c8063950e3e441161019a578063c3b66bed116100e1578063efa65b481161008a578063fa1f072711610064578063fa1f072714610a9d578063fe0d94c114610ab3578063ff71d67714610ad357600080fd5b8063efa65b4814610a52578063f22d232614610a67578063f2fde38b14610a7d57600080fd5b8063d23254b4116100bb578063d23254b4146109ed578063ec47c47114610a1c578063ed965ddc14610a3257600080fd5b8063c3b66bed14610970578063c7f758a814610990578063d22a20cd146109bd57600080fd5b8063ab266e1011610143578063ba08d2371161011d578063ba08d2371461091a578063be0a4e4b1461093a578063bf348f861461095057600080fd5b8063ab266e101461087d578063b131b6a51461089d578063b710c15d146108ed57600080fd5b8063a68f34f711610174578063a68f34f71461080d578063aa72e3b91461083a578063ab0eb62d1461086857600080fd5b8063950e3e44146107ab57806395dd7fb9146107cb5780639b9fb6d0146107ed57600080fd5b80633c5fc7111161025e5780637293368d1161020757806392283634116101e157806392283634146107225780639426e2261461076b578063943e82161461078b57600080fd5b80637293368d146106b257806373f12958146106c55780638da5cb5b146106e557600080fd5b80635e8815f2116102385780635e8815f2146106455780636b6d33da14610665578063715018a61461069d57600080fd5b80633c5fc711146105935780633de2598c146106055780635cb092a21461062557600080fd5b80631536f472116102c05780632baffa3f1161029a5780632baffa3f1461052f57806331e407331461055357806336e98ca81461057357600080fd5b80631536f4721461042f5780631840f0ca1461044f5780631b0c27da146104b457600080fd5b806311693b21116102f157806311693b211461038f5780631243e6cb146103bf5780631374b22d146103f757600080fd5b8063013cf08b1461033057806305261aea1461036d57600080fd5b3661032b5734600460008282546103239190613ee4565b925050819055005b600080fd5b34801561033c57600080fd5b5061035061034b366004613ef7565b610ae9565b604051610364989796959493929190613fa3565b60405180910390f35b34801561037957600080fd5b5061038d610388366004613ef7565b610ce0565b005b34801561039b57600080fd5b506103af6103aa3660046140c6565b610ef1565b6040519015158152602001610364565b3480156103cb57600080fd5b506006546103df906001600160a01b031681565b6040516001600160a01b039091168152602001610364565b34801561040357600080fd5b506103af610412366004613ef7565b6000908152600a60205260409020546001600160a01b0316151590565b34801561043b57600080fd5b5061038d61044a3660046141a5565b610f77565b34801561045b57600080fd5b5061046f61046a366004613ef7565b61108b565b604051610364919060006080820190506001600160401b0380845116835280602085015116602084015250604083015160408301526060830151606083015292915050565b3480156104c057600080fd5b506105046104cf366004613ef7565b600c602052600090815260409020805460018201546002909201546001600160401b0380831693600160401b90930416919084565b604080516001600160401b039586168152949093166020850152918301526060820152608001610364565b34801561053b57600080fd5b5061054560045481565b604051908152602001610364565b34801561055f57600080fd5b5061038d61056e3660046141f0565b61121f565b34801561057f57600080fd5b5061038d61058e366004614354565b611364565b34801561059f57600080fd5b506007546105d2906001600160401b0380821691600160401b8104821691600160801b8204811691600160c01b90041684565b604080516001600160401b0395861681529385166020850152918416918301919091529091166060820152608001610364565b34801561061157600080fd5b5061038d6106203660046143f0565b611418565b34801561063157600080fd5b5061038d610640366004614354565b6118fc565b34801561065157600080fd5b5061038d610660366004614473565b611904565b34801561067157600080fd5b506105456106803660046144ac565b600e60209081526000928352604080842090915290825290205481565b3480156106a957600080fd5b5061038d611988565b61038d6106c03660046145cd565b61199c565b3480156106d157600080fd5b506002546103df906001600160a01b031681565b3480156106f157600080fd5b507f9016d09d72d40fdae2fd8ceac6b6234c7706214fd39c1cd1e609a0528c199300546001600160a01b03166103df565b34801561072e57600080fd5b5061075261073d3660046146d7565b60006020819052908152604090205460e01b81565b6040516001600160e01b03199091168152602001610364565b34801561077757600080fd5b506005546103df906001600160a01b031681565b34801561079757600080fd5b5061038d6107a63660046146f4565b611cda565b3480156107b757600080fd5b506105456107c6366004614719565b611de3565b3480156107d757600080fd5b506107e0611e29565b6040516103649190614801565b3480156107f957600080fd5b5061038d610808366004614814565b611e81565b34801561081957600080fd5b5061082d610828366004613ef7565b611f00565b604051610364919061488a565b34801561084657600080fd5b50610850611c2081565b6040516001600160401b039091168152602001610364565b34801561087457600080fd5b5061038d611f1a565b34801561088957600080fd5b5061038d610898366004613ef7565b61225d565b3480156108a957600080fd5b506008546108dd906001600160401b0380821691600160401b8104821691600160801b82041690600160c01b900460ff1684565b60405161036494939291906148ad565b3480156108f957600080fd5b5061090d610908366004614814565b6122e9565b60405161036491906148da565b34801561092657600080fd5b506103af610935366004614908565b612391565b34801561094657600080fd5b5061054560125481565b34801561095c57600080fd5b5061090d61096b3660046146d7565b612560565b34801561097c57600080fd5b5061054561098b366004613ef7565b6125fd565b34801561099c57600080fd5b506109b06109ab366004613ef7565b612614565b604051610364919061498e565b3480156109c957600080fd5b506103af6109d8366004614ab8565b600b6020526000908152604090205460ff1681565b3480156109f957600080fd5b50610a0d610a083660046144ac565b612a1e565b60405161036493929190614ad5565b348015610a2857600080fd5b506105456103e881565b348015610a3e57600080fd5b50610545610a4d366004613ef7565b612ae4565b348015610a5e57600080fd5b506103af612b05565b348015610a7357600080fd5b5061054560035481565b348015610a8957600080fd5b5061038d610a98366004614ab8565b612b2e565b348015610aa957600080fd5b5061054560115481565b348015610abf57600080fd5b5061038d610ace366004613ef7565b612b6c565b348015610adf57600080fd5b5061054560015481565b600a60205260009081526040902080546004820180546001600160a01b03831693600160a01b84046001600160401b031693600160e01b900460ff16929091610b3190614b06565b80601f0160208091040260200160405190810160405280929190818152602001828054610b5d90614b06565b8015610baa5780601f10610b7f57610100808354040283529160200191610baa565b820191906000526020600020905b815481529060010190602001808311610b8d57829003601f168201915b505050505090806005018054610bbf90614b06565b80601f0160208091040260200160405190810160405280929190818152602001828054610beb90614b06565b8015610c385780601f10610c0d57610100808354040283529160200191610c38565b820191906000526020600020905b815481529060010190602001808311610c1b57829003601f168201915b505050505090806006018054610c4d90614b06565b80601f0160208091040260200160405190810160405280929190818152602001828054610c7990614b06565b8015610cc65780601f10610c9b57610100808354040283529160200191610cc6565b820191906000526020600020905b815481529060010190602001808311610ca957829003601f168201915b50505050600783015460089093015491929160ff16905088565b6000818152600a602052604090205481906001600160a01b0316610d1f5760405163986731a160e01b8152600481018290526024015b60405180910390fd5b610d2a826003612dd5565b6000828152600a6020526040812090610d44846001612e31565b6000858152600c602090815260409182902090830151815484516fffffffffffffffffffffffffffffffff19909116600160401b6001600160401b039384160267ffffffffffffffff1916179116178155606083015160028201559082015160019091015590506008820154600090610dc09060ff1683610ef1565b905080610dce576005610dd1565b60045b8354849060ff60e01b1916600160e01b836006811115610df357610df3613f10565b02179055508015610e4d576007805460019190600890610e24908490600160401b90046001600160401b0316614b3a565b92506101000a8154816001600160401b0302191690836001600160401b03160217905550610e98565b6007805460019190601090610e73908490600160801b90046001600160401b0316614b3a565b92506101000a8154816001600160401b0302191690836001600160401b031602179055505b600160116000828254610eab9190614b5a565b90915550506040518115158152859033907f4a82eb80f2a86beb92f5670422f698264b3511048a29b400a6a1ce684769581e906020015b60405180910390a35050505050565b6000806000610efe61305c565b90506001856002811115610f1457610f14613f10565b03610f3957612710610f2882611388614b6d565b610f329190614b84565b9150610f55565b612710610f4882610ce4614b6d565b610f529190614b84565b91505b818460600151610f659190613ee4565b84604001511015925050505b92915050565b6000838152600a602052604090205483906001600160a01b0316610fb15760405163986731a160e01b815260048101829052602401610d16565b6000848152600a6020526040902080546001600160a01b03163314610fe957604051630608c7c960e51b815260040160405180910390fd5b610ff4856000612dd5565b805460ff60e01b1916600160e01b178155600780546001919060189061102b908490600160c01b90046001600160401b0316614b3a565b92506101000a8154816001600160401b0302191690836001600160401b0316021790555084336001600160a01b03167fd16ff8053e1476416f5be14c32305a3652ac0b182ac04ede8c101d867b75bd148686604051610ee2929190614bcf565b6040805160808101825260008082526020820181905291810182905260608101919091526000828152600a602052604090205482906001600160a01b03166110e95760405163986731a160e01b815260048101829052602401610d16565b6000838152600a6020526040902054600160e01b900460ff16600481600681111561111657611116613f10565b14806111335750600581600681111561113157611131613f10565b145b8061114f5750600681600681111561114d5761114d613f10565b145b156111ac57506000838152600c6020908152604091829020825160808101845281546001600160401b038082168352600160401b909104169281019290925260018101549282019290925260029091015460608201529150611219565b60038160068111156111c0576111c0613f10565b036111d8576111d0846001612e31565b925050611219565b60028160068111156111ec576111ec613f10565b036111fc576111d0846000612e31565b838160405163605cfad560e01b8152600401610d16929190614be3565b50919050565b6000848152600a602052604090205484906001600160a01b03166112595760405163986731a160e01b815260048101829052602401610d16565b600180600854600160c01b900460ff16600181111561127a5761127a613f10565b146112a6576008546040516378030af960e11b8152610d1691600160c01b900460ff1690600401614bf7565b6112af336130cf565b6112ce5760405163fb426bed60e01b8152336004820152602401610d16565b600033905061131581888888888080601f01602080910402602001604051908101604052809392919081815260200183838082843760009201919091525061322d92505050565b86816001600160a01b03167fde85a12bb3f2d766e67cf54febc7c53ae9c500da072f8fdfb34aba5ca5525ebf88888860405161135393929190614c05565b60405180910390a350505050505050565b61136c61333e565b60408051808201825283516020808601919091206001600160e01b031990811683528183018581528751888401209091166000908152808352939093208251815463ffffffff191660e09190911c178155925180519293926113d49260018501920190613cdb565b509050507f3d45a310c5a076ea07aa2947ca3c06cc2a8b3571065867ad6f8e7096a2c9d50a83838360405161140b93929190614c28565b60405180910390a1505050565b7ff0c57e16840df040f15088dc2f81fe391c3923bec73e23a9662efc9c229c6a008054600160401b810460ff1615906001600160401b031660008115801561145d5750825b90506000826001600160401b031660011480156114795750303b155b905081158015611487575080155b156114a55760405163f92ee8a960e01b815260040160405180910390fd5b845467ffffffffffffffff1916600117855583156114d457845468ff00000000000000001916600160401b1785555b6001600160a01b038b1615806114f157506001600160a01b038916155b8061150357506001600160a01b038a16155b8061150c575086155b1561152a5760405163a9cb9e0d60e01b815260040160405180910390fd5b42866001600160401b03161015611554576040516307f5e89560e51b815260040160405180910390fd5b61155c613399565b6005805473ffffffffffffffffffffffffffffffffffffffff199081166001600160a01b038e8116919091179092556006805482168d841617905560028054909116918b1691909117905560038790556008805467ffffffffffffffff19166001600160401b0388161790556115d4611c2087614b3a565b600880546001600160401b0392909216600160401b027fffffffffffffff000000000000000000ffffffffffffffffffffffffffffffff167fffffffffffffff0000000000000000000000000000000000ffffffffffffffff90921691909117600160801b1790556001805560408051600980825261014082019092526000916020820161012080368337019050509050678ac7230489e800008160008151811061168157611681614c6b565b6020026020010181815250506801158e460913d00000816001815181106116aa576116aa614c6b565b6020026020010181815250506801a055690d9db80000816002815181106116d3576116d3614c6b565b60200260200101818152505068022b1c8c1227a00000816003815181106116fc576116fc614c6b565b6020026020010181815250506802b5e3af16b18800008160048151811061172557611725614c6b565b602002602001018181525050680340aad21b3b7000008160058151811061174e5761174e614c6b565b6020026020010181815250506803cb71f51fc55800008160068151811061177757611777614c6b565b6020026020010181815250506804563918244f400000816007815181106117a0576117a0614c6b565b6020026020010181815250506804e1003b28d9280000816008815181106117c9576117c9614c6b565b60200260200101818152505061184a6040518060400160405280601d81526020017f73657443726561746550726f706f73616c4665652875696e74323536290000008152506040518060400160405280601381526020017f63726561746550726f706f73616c466565282900000000000000000000000000815250836118fc565b50306000908152600b60205260408082208054600160ff1991821681179092556001600160a01b038e8116855283852080548316841790558c8116855283852080548316841790558d168452919092208054909116909117905583156118ef57845468ff000000000000000019168555604051600181527fc7f505b2f371ae2175ee4913f4499e1f2633a7b5936321eed1cdaeb6115181d29060200160405180910390a15b5050505050505050505050565b61136c6133a9565b333014611924576040516354348f0360e01b815260040160405180910390fd5b6001600160a01b0382166000818152600b6020908152604091829020805460ff19168515159081179091558251938452908301527fc73e95af540565c649d9453cb23b01f505752b94f04ff81b52ce528047232f2391015b60405180910390a15050565b61199061333e565b61199a60006133f2565b565b600080600854600160c01b900460ff1660018111156119bd576119bd613f10565b146119e9576008546040516378030af960e11b8152610d1691600160c01b900460ff1690600401614bf7565b6119f1612b05565b15611a0f5760405163fd081cf960e01b815260040160405180910390fd5b60015460125414611a21576001546012555b85518751141580611a3457508451875114155b80611a3e57508651155b15611a5c5760405163a9cb9e0d60e01b815260040160405180910390fd5b6003543414611a7e5760405163356680b760e01b815260040160405180910390fd5b6009546103e811611aa257604051633f2ad2e160e11b815260040160405180910390fd5b6000611aae8887613470565b90506000611abe89898988611de3565b6000818152600a60205260409020549091506001600160a01b031615611afa5760405163d3df438360e01b815260048101829052602401610d16565b6000818152600a6020908152604090912080547fffffff00ffffffffffffffff0000000000000000000000000000000000000000163360ff60e01b1981169190911782558b519092611b539160018401918e0190613d26565b508951611b6990600283019060208d0190613cdb565b508851611b7f90600383019060208c0190613d88565b5060048101611b8e8982614cd1565b5060058101611b9d8882614cd1565b5060068101611bac8782614cd1565b50600180546007830155600882018054869260ff1990911690836002811115611bd757611bd7613f10565b0217905550600980546001818101835560009283527f6e1540171b6c0c960b71a7020d9f60077f6af931a8bbf590da0223dacf75c7af9091018590556007805491929091611c2f9084906001600160401b0316614b3a565b92506101000a8154816001600160401b0302191690836001600160401b03160217905550600160116000828254611c669190613ee4565b9091555050600254611c81906001600160a01b03163461372b565b82826001600160a01b03167f0862e0d24b6284416802acfafc53281043e0ef028202f20e81e6e3c133e78a888d8d8d8d8d8d604051611cc596959493929190614d90565b60405180910390a35050505050505050505050565b6000828152600a602052604090205482906001600160a01b0316611d145760405163986731a160e01b815260048101829052602401610d16565b600180600854600160c01b900460ff166001811115611d3557611d35613f10565b14611d61576008546040516378030af960e11b8152610d1691600160c01b900460ff1690600401614bf7565b611d6a336130cf565b611d895760405163fb426bed60e01b8152336004820152602401610d16565b6000339050611da98186866040518060200160405280600081525061322d565b84816001600160a01b03167f343f24b88bd3789b60993251090e2184e0e4ae199d79b14a510fc1a08b51f51486604051610ee29190614e12565b6000808280519060200120905085858583604051602001611e079493929190614e25565b60408051601f1981840301815291905280516020909101209695505050505050565b60606009805480602002602001604051908101604052809291908181526020018280548015611e7757602002820191906000526020600020905b815481526020019060010190808311611e63575b5050505050905090565b611e8961333e565b80516020808301919091206001600160e01b03191660009081529081905260408120805463ffffffff1916815590611ec46001830182613dda565b50507f92d44565a40fe29702ffa146ddaa3bb133d4077f5312d682d0a2632a9bc73a8a81604051611ef59190614e70565b60405180910390a150565b6000818152601060205260409020606090610f71906137b7565b600854600160401b90046001600160401b0316421015611f3657565b600080600854600160c01b900460ff166001811115611f5757611f57613f10565b14611f63576000611f66565b60015b600854909150600090611f8a90600160401b90046001600160401b03166001614b3a565b6008805467ffffffffffffffff19166001600160401b0383161790559050611fb4611c2082614b3a565b600880546001600160401b0392909216600160401b026fffffffffffffffff00000000000000001983168117825584927fffffffffffffff00ffffffffffffffffffffffffffffffffffffffffffffffff9091167fffffffffffffff00ffffffffffffffff0000000000000000ffffffffffffffff90911617600160c01b83600181111561204457612044613f10565b02179055506000600183600181111561205f5761205f613f10565b1461206b57600361206e565b60025b90506000600382600681111561208657612086613f10565b14905060005b600954811015612152576000600982815481106120ab576120ab614c6b565b6000918252602080832090910154808352600a90915260409091208054919250859160ff60e01b1916600160e01b8360068111156120eb576120eb613f10565b02179055508215612149576008546000828152600a6020526040902080547fffffffff0000000000000000ffffffffffffffffffffffffffffffffffffffff16600160801b9092046001600160401b0316600160a01b029190911790555b5060010161208c565b5080156121c05760085461217590600160801b90046001600160401b03166137c4565b600880546001919060109061219b908490600160801b90046001600160401b0316614b3a565b92506101000a8154816001600160401b0302191690836001600160401b031602179055505b60008460018111156121d4576121d4613f10565b036121fd5760018060008282546121eb9190613ee4565b909155506121fd905060096000613dda565b6008546040517f4887f063ba2113285aba0e893c372b65da5e458b463fb01fdf1fe0d266acff0e9161224f9160ff600160c01b830416916001600160401b0380821692600160401b9092041690614e83565b60405180910390a150505050565b33301461227d576040516354348f0360e01b815260040160405180910390fd5b806122946000356001600160e01b03191682612391565b6122b4576040516373330d9b60e01b815260048101829052602401610d16565b60038290556040518281527f7d6e1cf0de9a5ba39e02e05972eb08471682fc361b20458a3f200f7bf087b5359060200161197c565b60408051808201909152600081526060602082015281516020808401919091206001600160e01b0319908116600090815280835260409081902081518083018352815460e01b909316835260018101805483518187028101870190945280845293949193858301939283018282801561238157602002820191906000526020600020905b81548152602001906001019080831161236d575b5050505050815250509050919050565b6001600160e01b031980831660009081526020818152604080832081518083018352815460e01b90951685526001810180548351818602810186019094528084529495869590949293858401939092919083018282801561241157602002820191906000526020600020905b8154815260200190600101908083116123fd575b5050505050815250509050806020015151600003612433576000915050610f71565b60208101518151600090612446906138c2565b905060005b8251811015612553578183828151811061246757612467614c6b565b60200260200101510361254b57600080821161249d578360008151811061249057612490614c6b565b60200260200101516124c2565b836124a9600184614b5a565b815181106124b9576124b9614c6b565b60200260200101515b90506000600185516124d49190614b5a565b83106125065784600186516124e99190614b5a565b815181106124f9576124f9614c6b565b602002602001015161252b565b84612512846001613ee4565b8151811061252257612522614c6b565b60200260200101515b905081881415801561253d5750808814155b159650505050505050610f71565b60010161244b565b5060009695505050505050565b6040805180820190915260008152606060208201526001600160e01b03198083166000908152602081815260409182902082518084018452815460e01b9094168452600181018054845181850281018501909552808552919385840193909290830182828015612381576020028201919060005260206000209081548152602001906001019080831161236d575050505050815250509050919050565b6000818152601060205260408120610f7190613999565b61261c613df8565b6000828152600a602090815260409182902082516101608101845281546001600160a01b0381168252600160a01b81046001600160401b03169382019390935292909190830190600160e01b900460ff16600681111561267e5761267e613f10565b600681111561268f5761268f613f10565b8152602001600182018054806020026020016040519081016040528092919081815260200182805480156126ec57602002820191906000526020600020905b81546001600160a01b031681526001909101906020018083116126ce575b505050505081526020016002820180548060200260200160405190810160405280929190818152602001828054801561274457602002820191906000526020600020905b815481526020019060010190808311612730575b5050505050815260200160038201805480602002602001604051908101604052809291908181526020016000905b8282101561281e57838290600052602060002001805461279190614b06565b80601f01602080910402602001604051908101604052809291908181526020018280546127bd90614b06565b801561280a5780601f106127df5761010080835404028352916020019161280a565b820191906000526020600020905b8154815290600101906020018083116127ed57829003601f168201915b505050505081526020019060010190612772565b50505050815260200160048201805461283690614b06565b80601f016020809104026020016040519081016040528092919081815260200182805461286290614b06565b80156128af5780601f10612884576101008083540402835291602001916128af565b820191906000526020600020905b81548152906001019060200180831161289257829003601f168201915b505050505081526020016005820180546128c890614b06565b80601f01602080910402602001604051908101604052809291908181526020018280546128f490614b06565b80156129415780601f1061291657610100808354040283529160200191612941565b820191906000526020600020905b81548152906001019060200180831161292457829003601f168201915b5050505050815260200160068201805461295a90614b06565b80601f016020809104026020016040519081016040528092919081815260200182805461298690614b06565b80156129d35780601f106129a8576101008083540402835291602001916129d3565b820191906000526020600020905b8154815290600101906020018083116129b657829003601f168201915b505050918352505060078201546020820152600882015460409091019060ff166002811115612a0457612a04613f10565b6002811115612a1557612a15613f10565b90525092915050565b600d602090815260009283526040808420909152908252902080546001820180546001600160401b03831693600160401b90930460ff16929190612a6190614b06565b80601f0160208091040260200160405190810160405280929190818152602001828054612a8d90614b06565b8015612ada5780601f10612aaf57610100808354040283529160200191612ada565b820191906000526020600020905b815481529060010190602001808311612abd57829003601f168201915b5050505050905083565b60098181548110612af457600080fd5b600091825260209091200154905081565b600060015460125414158015612b1d57506000601154115b15612b285750600190565b50600090565b612b3661333e565b6001600160a01b038116612b6057604051631e4fbdf760e01b815260006004820152602401610d16565b612b69816133f2565b50565b612b746139a3565b6000818152600a602052604090205481906001600160a01b0316612bae5760405163986731a160e01b815260048101829052602401610d16565b612bb9826004612dd5565b612bc2826139ed565b6000828152600a602052604090208054600690829060ff60e01b1916600160e01b830217905550612d7d81600101805480602002602001604051908101604052809291908181526020018280548015612c4457602002820191906000526020600020905b81546001600160a01b03168152600190910190602001808311612c26575b505050505082600201805480602002602001604051908101604052809291908181526020018280548015612c9757602002820191906000526020600020905b815481526020019060010190808311612c83575b505050505083600301805480602002602001604051908101604052809291908181526020016000905b82821015612d6c578382906000526020600020018054612cdf90614b06565b80601f0160208091040260200160405190810160405280929190818152602001828054612d0b90614b06565b8015612d585780601f10612d2d57610100808354040283529160200191612d58565b820191906000526020600020905b815481529060010190602001808311612d3b57829003601f168201915b505050505081526020019060010190612cc0565b50505050600885015460ff16613a8b565b604051839033907f7bfd03e44f31b1867e10c41d419cd8073b4719d321ccc5c3a3c79ac2babab3c390600090a35050612b6960017f9b779b17422d0df92223018b32b4d1fa46e071723d6817e2486d003becc55f0055565b6000612de083612614565b604001519050816006811115612df857612df8613f10565b816006811115612e0a57612e0a613f10565b14612e2c57828160405163605cfad560e01b8152600401610d16929190614be3565b505050565b6040805160808082018352600080835260208084018290528385018290526060808501839052878352600a825285832054865194850187528385529184018390529483018290529382018190529192600160a01b90046001600160401b031691612e9a86611f00565b905060005b8151811015613051576000828281518110612ebc57612ebc614c6b565b6020026020010151905060008715612f0157506001600160401b0385166000908152600e602090815260408083206001600160a01b0385168452909152902054612f72565b600654604051632933f0eb60e11b81526001600160a01b03848116600483015290911690635267e1d690602401602060405180830381865afa158015612f4b573d6000803e3d6000fd5b505050506040513d601f19601f82011682018060405250810190612f6f9190614eb2565b90505b6000898152600d602090815260408083206001600160a01b0386168452909152902054600160401b900460ff166002816002811115612fb357612fb3613f10565b03612ff357600186600001818151612fcb9190614b3a565b6001600160401b0316905250604086018051839190612feb908390613ee4565b905250613043565b600181600281111561300757613007613f10565b036130435760018660200181815161301f9190614b3a565b6001600160401b031690525060608601805183919061303f908390613ee4565b9052505b505050806001019050612e9f565b509095945050505050565b6006546040805163567e98f960e01b815290516000926001600160a01b03169163567e98f99160048083019260209291908290030181865afa1580156130a6573d6000803e3d6000fd5b505050506040513d601f19601f820116820180604052508101906130ca9190614eb2565b905090565b6005546040516253517560e01b81526001600160a01b03838116600483015260009283929116906253517590602401602060405180830381865afa15801561311b573d6000803e3d6000fd5b505050506040513d601f19601f8201168201806040525081019061313f9190614ecb565b60055460405163a0d16cad60e01b81526001600160a01b03808416600483015292935091169063a0d16cad90602401602060405180830381865afa15801561318b573d6000803e3d6000fd5b505050506040513d601f19601f820116820180604052508101906131af9190614ee8565b80156132265750600554604051635491295760e11b81526001600160a01b0383811660048301529091169063a92252ae90602401602060405180830381865afa158015613200573d6000803e3d6000fd5b505050506040513d601f19601f820116820180604052508101906132249190614ee8565b155b9392505050565b613238836002612dd5565b600854600160801b90046001600160401b03166000908152600f602052604090206132639085613bce565b50600083815260106020526040902061327c9085613bce565b506040518060600160405280426001600160401b031681526020018360028111156132a9576132a9613f10565b815260209081018390526000858152600d825260408082206001600160a01b038916835283529020825181546001600160401b0390911667ffffffffffffffff19821681178355928401519192839168ffffffffffffffffff191617600160401b83600281111561331c5761331c613f10565b0217905550604082015160018201906133359082614cd1565b50505050505050565b336133707f9016d09d72d40fdae2fd8ceac6b6234c7706214fd39c1cd1e609a0528c199300546001600160a01b031690565b6001600160a01b03161461199a5760405163118cdaa760e01b8152336004820152602401610d16565b6133a16133a9565b61199a613be3565b7ff0c57e16840df040f15088dc2f81fe391c3923bec73e23a9662efc9c229c6a0054600160401b900460ff1661199a57604051631afcd79f60e31b815260040160405180910390fd5b7f9016d09d72d40fdae2fd8ceac6b6234c7706214fd39c1cd1e609a0528c199300805473ffffffffffffffffffffffffffffffffffffffff1981166001600160a01b03848116918217845560405192169182907f8be0079c531659141344cd1fd0a4f28419497f9722a3daafe3b4186f6b6457e090600090a3505050565b6000805b82518110156137245782818151811061348f5761348f614c6b565b6020026020010151516000031561371c576000806134cf8584815181106134b8576134b8614c6b565b602002602001015160208101516024909101519091565b915091506000808785815181106134e8576134e8614c6b565b60200260200101516001600160a01b031688868151811061350b5761350b614c6b565b5050604080516001600160e01b0319871660248083019190915282518083039091018152604490910182526020810180517bffffffffffffffffffffffffffffffffffffffffffffffffffffffff16635f9a47c360e11b17905290516135719190614f05565b600060405180830381855afa9150503d80600081146135ac576040519150601f19603f3d011682016040523d82523d6000602084013e6135b1565b606091505b50915091508180156135c4575060008151115b15613709576000818060200190518101906135df9190614f21565b9050600b60008a88815181106135f7576135f7614c6b565b6020908102919091018101516001600160a01b031682528101919091526040016000205460ff16801561362f57506000816020015151115b156136f4576002965088868151811061364a5761364a614c6b565b602090810291909101015160405163ba08d23760e01b81526001600160e01b031987166004820152602481018690526001600160a01b039091169063ba08d23790604401602060405180830381865afa1580156136ab573d6000803e3d6000fd5b505050506040513d601f19601f820116820180604052508101906136cf9190614ee8565b6136ef576040516373330d9b60e01b815260048101859052602401610d16565b613703565b60019650505050505050610f71565b50613717565b600195505050505050610f71565b505050505b600101613474565b5092915050565b6000826001600160a01b03168260405160006040518083038185875af1925050503d8060008114613778576040519150601f19603f3d011682016040523d82523d6000602084013e61377d565b606091505b5050905080612e2c576040516317e3057d60e31b81523060048201526001600160a01b038416602482015260448101839052606401610d16565b6060600061322683613beb565b6001600160401b0381166000908152600f602052604081206137e5906137b7565b905060005b8151811015612e2c57600082828151811061380757613807614c6b565b6020908102919091010151600654604051632933f0eb60e11b81526001600160a01b03808416600483015292935060009290911690635267e1d690602401602060405180830381865afa158015613862573d6000803e3d6000fd5b505050506040513d601f19601f820116820180604052508101906138869190614eb2565b6001600160401b0386166000908152600e602090815260408083206001600160a01b0390961683529490529290922091909155506001016137ea565b60408051600481526024810182526020810180517bffffffffffffffffffffffffffffffffffffffffffffffffffffffff166001600160e01b03198516179052905160009190829081903090613919908590614f05565b600060405180830381855afa9150503d8060008114613954576040519150601f19603f3d011682016040523d82523d6000602084013e613959565b606091505b50915091508161397c57604051635fbab09b60e11b815260040160405180910390fd5b808060200190518101906139909190614eb2565b95945050505050565b6000610f71825490565b7f9b779b17422d0df92223018b32b4d1fa46e071723d6817e2486d003becc55f008054600119016139e757604051633ee5aeb560e01b815260040160405180910390fd5b60029055565b60006139f882612614565b90506001548161012001516001613a0f9190613ee4565b14613a3057604051631902d7cf60e01b815260048101839052602401610d16565b60018161014001516002811115613a4957613a49613f10565b148015613a60575080516001600160a01b03163314155b15613a8757604051636d0e083b60e11b815260048101839052336024820152604401610d16565b5050565b60005b8451811015613ba157600080836002811115613aac57613aac613f10565b14613ab8576000613ad3565b848281518110613aca57613aca614c6b565b60200260200101515b9050600080878481518110613aea57613aea614c6b565b60200260200101516001600160a01b031683878681518110613b0e57613b0e614c6b565b6020026020010151604051613b239190614f05565b60006040518083038185875af1925050503d8060008114613b60576040519150601f19603f3d011682016040523d82523d6000602084013e613b65565b606091505b5091509150613b748282613c47565b508215613b93578260046000828254613b8d9190614b5a565b90915550505b505050806001019050613a8e565b5050505050565b60017f9b779b17422d0df92223018b32b4d1fa46e071723d6817e2486d003becc55f0055565b6000613226836001600160a01b038416613c63565b613ba86133a9565b606081600001805480602002602001604051908101604052809291908181526020018280548015613c3b57602002820191906000526020600020905b815481526020019060010190808311613c27575b50505050509050919050565b606082613c5c57613c5782613cb2565b610f71565b5080610f71565b6000818152600183016020526040812054613caa57508154600181810184556000848152602080822090930184905584548482528286019093526040902091909155610f71565b506000610f71565b805115613cc25780518082602001fd5b604051630a12f52160e11b815260040160405180910390fd5b828054828255906000526020600020908101928215613d16579160200282015b82811115613d16578251825591602001919060010190613cfb565b50613d22929150613e62565b5090565b828054828255906000526020600020908101928215613d16579160200282015b82811115613d16578251825473ffffffffffffffffffffffffffffffffffffffff19166001600160a01b03909116178255602090920191600190910190613d46565b828054828255906000526020600020908101928215613dce579160200282015b82811115613dce5782518290613dbe9082614cd1565b5091602001919060010190613da8565b50613d22929150613e77565b5080546000825590600052602060002090810190612b699190613e62565b6040805161016081018252600080825260208201819052909182019081526020016060815260200160608152602001606081526020016060815260200160608152602001606081526020016000815260200160006002811115613e5d57613e5d613f10565b905290565b5b80821115613d225760008155600101613e63565b80821115613d22576000613e8b8282613e94565b50600101613e77565b508054613ea090614b06565b6000825580601f10613eb0575050565b601f016020900490600052602060002090810190612b699190613e62565b634e487b7160e01b600052601160045260246000fd5b80820180821115610f7157610f71613ece565b600060208284031215613f0957600080fd5b5035919050565b634e487b7160e01b600052602160045260246000fd5b60078110613f3657613f36613f10565b9052565b60005b83811015613f55578181015183820152602001613f3d565b50506000910152565b60008151808452613f76816020860160208601613f3a565b601f01601f19169290920160200192915050565b60038110612b6957612b69613f10565b613f3681613f8a565b60006101006001600160a01b038b1683526001600160401b038a166020840152613fd0604084018a613f26565b806060840152613fe281840189613f5e565b90508281036080840152613ff68188613f5e565b905082810360a084015261400a8187613f5e565b9150508360c083015261401c83613f8a565b8260e08301529998505050505050505050565b60038110612b6957600080fd5b634e487b7160e01b600052604160045260246000fd5b604080519081016001600160401b03811182821017156140745761407461403c565b60405290565b604051601f8201601f191681016001600160401b03811182821017156140a2576140a261403c565b604052919050565b80356001600160401b03811681146140c157600080fd5b919050565b60008082840360a08112156140da57600080fd5b83356140e58161402f565b92506080601f19820112156140f957600080fd5b50604051608081018181106001600160401b038211171561411c5761411c61403c565b60405261412b602085016140aa565b8152614139604085016140aa565b60208201526060840135604082015260808401356060820152809150509250929050565b60008083601f84011261416f57600080fd5b5081356001600160401b0381111561418657600080fd5b60208301915083602082850101111561419e57600080fd5b9250929050565b6000806000604084860312156141ba57600080fd5b8335925060208401356001600160401b038111156141d757600080fd5b6141e38682870161415d565b9497909650939450505050565b6000806000806060858703121561420657600080fd5b8435935060208501356142188161402f565b925060408501356001600160401b0381111561423357600080fd5b61423f8782880161415d565b95989497509550505050565b60006001600160401b038311156142645761426461403c565b614277601f8401601f191660200161407a565b905082815283838301111561428b57600080fd5b828260208301376000602084830101529392505050565b600082601f8301126142b357600080fd5b6132268383356020850161424b565b60006001600160401b038211156142db576142db61403c565b5060051b60200190565b600082601f8301126142f657600080fd5b8135602061430b614306836142c2565b61407a565b8083825260208201915060208460051b87010193508684111561432d57600080fd5b602086015b848110156143495780358352918301918301614332565b509695505050505050565b60008060006060848603121561436957600080fd5b83356001600160401b038082111561438057600080fd5b61438c878388016142a2565b945060208601359150808211156143a257600080fd5b6143ae878388016142a2565b935060408601359150808211156143c457600080fd5b506143d1868287016142e5565b9150509250925092565b6001600160a01b0381168114612b6957600080fd5b60008060008060008060c0878903121561440957600080fd5b8635614414816143db565b95506020870135614424816143db565b94506040870135614434816143db565b93506060870135614444816143db565b92506080870135915061445960a088016140aa565b90509295509295509295565b8015158114612b6957600080fd5b6000806040838503121561448657600080fd5b8235614491816143db565b915060208301356144a181614465565b809150509250929050565b600080604083850312156144bf57600080fd5b8235915060208301356144a1816143db565b600082601f8301126144e257600080fd5b813560206144f2614306836142c2565b8083825260208201915060208460051b87010193508684111561451457600080fd5b602086015b8481101561434957803561452c816143db565b8352918301918301614519565b600082601f83011261454a57600080fd5b8135602061455a614306836142c2565b82815260059290921b8401810191818101908684111561457957600080fd5b8286015b848110156143495780356001600160401b0381111561459c5760008081fd5b8701603f810189136145ae5760008081fd5b6145bf89868301356040840161424b565b84525091830191830161457d565b60008060008060008060c087890312156145e657600080fd5b86356001600160401b03808211156145fd57600080fd5b6146098a838b016144d1565b9750602089013591508082111561461f57600080fd5b61462b8a838b016142e5565b9650604089013591508082111561464157600080fd5b61464d8a838b01614539565b9550606089013591508082111561466357600080fd5b61466f8a838b016142a2565b9450608089013591508082111561468557600080fd5b6146918a838b016142a2565b935060a08901359150808211156146a757600080fd5b506146b489828a016142a2565b9150509295509295509295565b6001600160e01b031981168114612b6957600080fd5b6000602082840312156146e957600080fd5b8135613226816146c1565b6000806040838503121561470757600080fd5b8235915060208301356144a18161402f565b6000806000806080858703121561472f57600080fd5b84356001600160401b038082111561474657600080fd5b614752888389016144d1565b9550602087013591508082111561476857600080fd5b614774888389016142e5565b9450604087013591508082111561478a57600080fd5b61479688838901614539565b935060608701359150808211156147ac57600080fd5b506147b9878288016142a2565b91505092959194509250565b60008151808452602080850194506020840160005b838110156147f6578151875295820195908201906001016147da565b509495945050505050565b60208152600061322660208301846147c5565b60006020828403121561482657600080fd5b81356001600160401b0381111561483c57600080fd5b614848848285016142a2565b949350505050565b60008151808452602080850194506020840160005b838110156147f65781516001600160a01b031687529582019590820190600101614865565b6020815260006132266020830184614850565b60028110613f3657613f36613f10565b6001600160401b03858116825284811660208301528316604082015260808101613990606083018461489d565b602080825282516001600160e01b0319168282015282015160408083015260009061484860608401826147c5565b6000806040838503121561491b57600080fd5b8235614926816146c1565b946020939093013593505050565b60008282518085526020808601955060208260051b8401016020860160005b8481101561498157601f1986840301895261496f838351613f5e565b98840198925090830190600101614953565b5090979650505050505050565b602081526149a86020820183516001600160a01b03169052565b600060208301516149c460408401826001600160401b03169052565b5060408301516149d76060840182613f26565b5060608301516101608060808501526149f4610180850183614850565b91506080850151601f19808685030160a0870152614a1284836147c5565b935060a08701519150808685030160c0870152614a2f8483614934565b935060c08701519150808685030160e0870152614a4c8483613f5e565b935060e08701519150610100818786030181880152614a6b8584613f5e565b945080880151925050610120818786030181880152614a8a8584613f5e565b90880151610140888101919091528801519094509150614aae905082860182613f9a565b5090949350505050565b600060208284031215614aca57600080fd5b8135613226816143db565b6001600160401b0384168152614aea83613f8a565b8260208201526060604082015260006139906060830184613f5e565b600181811c90821680614b1a57607f821691505b60208210810361121957634e487b7160e01b600052602260045260246000fd5b6001600160401b0381811683821601908082111561372457613724613ece565b81810381811115610f7157610f71613ece565b8082028115828204841417610f7157610f71613ece565b600082614ba157634e487b7160e01b600052601260045260246000fd5b500490565b81835281816020850137506000828201602090810191909152601f909101601f19169091010190565b602081526000614848602083018486614ba6565b828152604081016132266020830184613f26565b60208101610f71828461489d565b614c0e84613f8a565b838152604060208201526000613990604083018486614ba6565b606081526000614c3b6060830186613f5e565b8281036020840152614c4d8186613f5e565b90508281036040840152614c6181856147c5565b9695505050505050565b634e487b7160e01b600052603260045260246000fd5b601f821115612e2c576000816000526020600020601f850160051c81016020861015614caa5750805b601f850160051c820191505b81811015614cc957828155600101614cb6565b505050505050565b81516001600160401b03811115614cea57614cea61403c565b614cfe81614cf88454614b06565b84614c81565b602080601f831160018114614d335760008415614d1b5750858301515b600019600386901b1c1916600185901b178555614cc9565b600085815260208120601f198616915b82811015614d6257888601518255948401946001909101908401614d43565b5085821015614d805787850151600019600388901b60f8161c191681555b5050505050600190811b01905550565b60c081526000614da360c0830189614850565b8281036020840152614db581896147c5565b90508281036040840152614dc98188614934565b90508281036060840152614ddd8187613f5e565b90508281036080840152614df18186613f5e565b905082810360a0840152614e058185613f5e565b9998505050505050505050565b60208101614e1f83613f8a565b91905290565b608081526000614e386080830187614850565b8281036020840152614e4a81876147c5565b90508281036040840152614e5e8186614934565b91505082606083015295945050505050565b6020815260006132266020830184613f5e565b60608101614e91828661489d565b6001600160401b038085166020840152808416604084015250949350505050565b600060208284031215614ec457600080fd5b5051919050565b600060208284031215614edd57600080fd5b8151613226816143db565b600060208284031215614efa57600080fd5b815161322681614465565b60008251614f17818460208701613f3a565b9190910192915050565b60006020808385031215614f3457600080fd5b82516001600160401b0380821115614f4b57600080fd5b9084019060408287031215614f5f57600080fd5b614f67614052565b8251614f72816146c1565b81528284015182811115614f8557600080fd5b80840193505086601f840112614f9a57600080fd5b82519150614faa614306836142c2565b82815260059290921b83018401918481019088841115614fc957600080fd5b938501935b83851015614fe757845182529385019390850190614fce565b94820194909452969550505050505056fea2646970667358221220794aacf1aa6c5fcdd274a12ddd375bf097fd86eb4e171cc9b994e0845cfe75eb64736f6c63430008190033",
  "linkReferences": {},
  "deployedLinkReferences": {}
}