{
  "_format": "hh-sol-artifact-1",
  "contractName": "DiamondDao",
  "sourceName": "contracts/DiamondDao.sol",
  "abi": [
    {
      "inputs": [],
      "stateMutability": "nonpayable",
      "type": "constructor"
    },
    {
      "inputs": [
        {
          "internalType": "uint256",
          "name": "proposalId",
          "type": "uint256"
        },
        {
          "internalType": "address",
          "name": "voter",
          "type": "address"
        }
      ],
      "name": "AlreadyVoted",
      "type": "error"
    },
    {
      "inputs": [
        {
          "internalType": "bytes",
          "name": "funcSelector",
          "type": "bytes"
        },
        {
          "internalType": "address",
          "name": "targetContract",
          "type": "address"
        }
      ],
      "name": "ContractCallFailed",
      "type": "error"
    },
    {
      "inputs": [],
      "name": "FailedInnerCall",
      "type": "error"
    },
    {
      "inputs": [],
      "name": "GetterCallFailed",
      "type": "error"
    },
    {
      "inputs": [],
      "name": "InsufficientFunds",
      "type": "error"
    },
    {
      "inputs": [],
      "name": "InvalidArgument",
      "type": "error"
    },
    {
      "inputs": [],
      "name": "InvalidInitialization",
      "type": "error"
    },
    {
      "inputs": [],
      "name": "InvalidStartTimestamp",
      "type": "error"
    },
    {
      "inputs": [],
      "name": "NewProposalsLimitExceeded",
      "type": "error"
    },
    {
      "inputs": [
        {
          "internalType": "uint256",
          "name": "_newVal",
          "type": "uint256"
        }
      ],
      "name": "NewValueOutOfRange",
      "type": "error"
    },
    {
      "inputs": [
        {
          "internalType": "uint256",
          "name": "proposalId",
          "type": "uint256"
        },
        {
          "internalType": "address",
          "name": "voter",
          "type": "address"
        }
      ],
      "name": "NoVoteFound",
      "type": "error"
    },
    {
      "inputs": [],
      "name": "NotInitializing",
      "type": "error"
    },
    {
      "inputs": [
        {
          "internalType": "uint256",
          "name": "proposalId",
          "type": "uint256"
        },
        {
          "internalType": "address",
          "name": "caller",
          "type": "address"
        }
      ],
      "name": "NotProposer",
      "type": "error"
    },
    {
      "inputs": [],
      "name": "OnlyGovernance",
      "type": "error"
    },
    {
      "inputs": [],
      "name": "OnlyProposer",
      "type": "error"
    },
    {
      "inputs": [
        {
          "internalType": "address",
          "name": "caller",
          "type": "address"
        }
      ],
      "name": "OnlyValidators",
      "type": "error"
    },
    {
      "inputs": [
        {
          "internalType": "uint256",
          "name": "proposalId",
          "type": "uint256"
        }
      ],
      "name": "OutsideExecutionWindow",
      "type": "error"
    },
    {
      "inputs": [
        {
          "internalType": "address",
          "name": "owner",
          "type": "address"
        }
      ],
      "name": "OwnableInvalidOwner",
      "type": "error"
    },
    {
      "inputs": [
        {
          "internalType": "address",
          "name": "account",
          "type": "address"
        }
      ],
      "name": "OwnableUnauthorizedAccount",
      "type": "error"
    },
    {
      "inputs": [
        {
          "internalType": "uint256",
          "name": "proposalId",
          "type": "uint256"
        }
      ],
      "name": "ProposalAlreadyExist",
      "type": "error"
    },
    {
      "inputs": [
        {
          "internalType": "uint256",
          "name": "proposalId",
          "type": "uint256"
        }
      ],
      "name": "ProposalNotExist",
      "type": "error"
    },
    {
      "inputs": [],
      "name": "ReentrancyGuardReentrantCall",
      "type": "error"
    },
    {
      "inputs": [
        {
          "internalType": "uint256",
          "name": "proposalId",
          "type": "uint256"
        },
        {
          "internalType": "address",
          "name": "vote",
          "type": "address"
        },
        {
          "internalType": "enum Vote",
          "name": "_vote",
          "type": "uint8"
        }
      ],
      "name": "SameVote",
      "type": "error"
    },
    {
      "inputs": [
        {
          "internalType": "address",
          "name": "from",
          "type": "address"
        },
        {
          "internalType": "address",
          "name": "to",
          "type": "address"
        },
        {
          "internalType": "uint256",
          "name": "amount",
          "type": "uint256"
        }
      ],
      "name": "TransferFailed",
      "type": "error"
    },
    {
      "inputs": [
        {
          "internalType": "enum Phase",
          "name": "phase",
          "type": "uint8"
        }
      ],
      "name": "UnavailableInCurrentPhase",
      "type": "error"
    },
    {
      "inputs": [
        {
          "internalType": "uint256",
          "name": "proposalId",
          "type": "uint256"
        },
        {
          "internalType": "enum ProposalState",
          "name": "state",
          "type": "uint8"
        }
      ],
      "name": "UnexpectedProposalState",
      "type": "error"
    },
    {
      "inputs": [],
      "name": "UnfinalizedProposalsExist",
      "type": "error"
    },
    {
      "anonymous": false,
      "inputs": [
        {
          "indexed": true,
          "internalType": "address",
          "name": "voter",
          "type": "address"
        },
        {
          "indexed": true,
          "internalType": "uint256",
          "name": "proposalId",
          "type": "uint256"
        },
        {
          "indexed": true,
          "internalType": "enum Vote",
          "name": "vote",
          "type": "uint8"
        },
        {
          "indexed": false,
          "internalType": "string",
          "name": "reason",
          "type": "string"
        }
      ],
      "name": "ChangeVote",
      "type": "event"
    },
    {
      "anonymous": false,
      "inputs": [
        {
          "indexed": false,
          "internalType": "uint64",
          "name": "version",
          "type": "uint64"
        }
      ],
      "name": "Initialized",
      "type": "event"
    },
    {
      "anonymous": false,
      "inputs": [
        {
          "indexed": true,
          "internalType": "address",
          "name": "previousOwner",
          "type": "address"
        },
        {
          "indexed": true,
          "internalType": "address",
          "name": "newOwner",
          "type": "address"
        }
      ],
      "name": "OwnershipTransferred",
      "type": "event"
    },
    {
      "anonymous": false,
      "inputs": [
        {
          "indexed": true,
          "internalType": "address",
          "name": "proposer",
          "type": "address"
        },
        {
          "indexed": true,
          "internalType": "uint256",
          "name": "proposalId",
          "type": "uint256"
        },
        {
          "indexed": false,
          "internalType": "string",
          "name": "reason",
          "type": "string"
        }
      ],
      "name": "ProposalCanceled",
      "type": "event"
    },
    {
      "anonymous": false,
      "inputs": [
        {
          "indexed": true,
          "internalType": "address",
          "name": "proposer",
          "type": "address"
        },
        {
          "indexed": true,
          "internalType": "uint256",
          "name": "proposalId",
          "type": "uint256"
        },
        {
          "indexed": false,
          "internalType": "address[]",
          "name": "targets",
          "type": "address[]"
        },
        {
          "indexed": false,
          "internalType": "uint256[]",
          "name": "values",
          "type": "uint256[]"
        },
        {
          "indexed": false,
          "internalType": "bytes[]",
          "name": "calldatas",
          "type": "bytes[]"
        },
        {
          "indexed": false,
          "internalType": "string",
          "name": "title",
          "type": "string"
        },
        {
          "indexed": false,
          "internalType": "string",
          "name": "description",
          "type": "string"
        },
        {
          "indexed": false,
          "internalType": "string",
          "name": "discussionUrl",
          "type": "string"
        },
        {
          "indexed": false,
          "internalType": "uint256",
          "name": "proposalFee",
          "type": "uint256"
        }
      ],
      "name": "ProposalCreated",
      "type": "event"
    },
    {
      "anonymous": false,
      "inputs": [
        {
          "indexed": true,
          "internalType": "address",
          "name": "caller",
          "type": "address"
        },
        {
          "indexed": true,
          "internalType": "uint256",
          "name": "proposalId",
          "type": "uint256"
        }
      ],
      "name": "ProposalExecuted",
      "type": "event"
    },
    {
      "anonymous": false,
      "inputs": [
        {
          "indexed": false,
          "internalType": "bytes4",
          "name": "funcSelector",
          "type": "bytes4"
        }
      ],
      "name": "RemoveChangeableParameter",
      "type": "event"
    },
    {
      "anonymous": false,
      "inputs": [
        {
          "indexed": true,
          "internalType": "bool",
          "name": "allowed",
          "type": "bool"
        },
        {
          "indexed": false,
          "internalType": "string",
          "name": "setter",
          "type": "string"
        },
        {
          "indexed": false,
          "internalType": "string",
          "name": "getter",
          "type": "string"
        },
        {
          "indexed": false,
          "internalType": "uint256[]",
          "name": "params",
          "type": "uint256[]"
        }
      ],
      "name": "SetChangeAbleParameters",
      "type": "event"
    },
    {
      "anonymous": false,
      "inputs": [
        {
          "indexed": false,
          "internalType": "bytes4",
          "name": "setter",
          "type": "bytes4"
        },
        {
          "indexed": false,
          "internalType": "bytes4",
          "name": "getter",
          "type": "bytes4"
        },
        {
          "indexed": false,
          "internalType": "uint256[]",
          "name": "params",
          "type": "uint256[]"
        }
      ],
      "name": "SetChangeableParameter",
      "type": "event"
    },
    {
      "anonymous": false,
      "inputs": [
        {
          "indexed": true,
          "internalType": "uint256",
          "name": "fee",
          "type": "uint256"
        }
      ],
      "name": "SetCreateProposalFee",
      "type": "event"
    },
    {
      "anonymous": false,
      "inputs": [
        {
          "indexed": true,
          "internalType": "address",
          "name": "contractAddress",
          "type": "address"
        },
        {
          "indexed": true,
          "internalType": "bool",
          "name": "isCore",
          "type": "bool"
        }
      ],
      "name": "SetIsCoreContract",
      "type": "event"
    },
    {
      "anonymous": false,
      "inputs": [
        {
          "indexed": true,
          "internalType": "address",
          "name": "voter",
          "type": "address"
        },
        {
          "indexed": true,
          "internalType": "uint256",
          "name": "proposalId",
          "type": "uint256"
        },
        {
          "indexed": true,
          "internalType": "enum Vote",
          "name": "vote",
          "type": "uint8"
        }
      ],
      "name": "SubmitVote",
      "type": "event"
    },
    {
      "anonymous": false,
      "inputs": [
        {
          "indexed": true,
          "internalType": "address",
          "name": "voter",
          "type": "address"
        },
        {
          "indexed": true,
          "internalType": "uint256",
          "name": "proposalId",
          "type": "uint256"
        },
        {
          "indexed": true,
          "internalType": "enum Vote",
          "name": "vote",
          "type": "uint8"
        },
        {
          "indexed": false,
          "internalType": "string",
          "name": "reason",
          "type": "string"
        }
      ],
      "name": "SubmitVoteWithReason",
      "type": "event"
    },
    {
      "anonymous": false,
      "inputs": [
        {
          "indexed": true,
          "internalType": "enum Phase",
          "name": "phase",
          "type": "uint8"
        },
        {
          "indexed": true,
          "internalType": "uint256",
          "name": "start",
          "type": "uint256"
        },
        {
          "indexed": true,
          "internalType": "uint256",
          "name": "end",
          "type": "uint256"
        }
      ],
      "name": "SwitchDaoPhase",
      "type": "event"
    },
    {
      "anonymous": false,
      "inputs": [
        {
          "indexed": true,
          "internalType": "address",
          "name": "caller",
          "type": "address"
        },
        {
          "indexed": true,
          "internalType": "uint256",
          "name": "proposalId",
          "type": "uint256"
        },
        {
          "indexed": true,
          "internalType": "bool",
          "name": "accepted",
          "type": "bool"
        }
      ],
      "name": "VotingFinalized",
      "type": "event"
    },
    {
      "inputs": [],
      "name": "DAO_PHASE_DURATION",
      "outputs": [
        {
          "internalType": "uint64",
          "name": "",
          "type": "uint64"
        }
      ],
      "stateMutability": "view",
      "type": "function"
    },
    {
      "inputs": [],
      "name": "MAX_NEW_PROPOSALS",
      "outputs": [
        {
          "internalType": "uint256",
          "name": "",
          "type": "uint256"
        }
      ],
      "stateMutability": "view",
      "type": "function"
    },
    {
      "inputs": [
        {
          "internalType": "uint256",
          "name": "proposalId",
          "type": "uint256"
        },
        {
          "internalType": "string",
          "name": "reason",
          "type": "string"
        }
      ],
      "name": "cancel",
      "outputs": [],
      "stateMutability": "nonpayable",
      "type": "function"
    },
    {
      "inputs": [
        {
          "internalType": "uint256",
          "name": "proposalId",
          "type": "uint256"
        },
        {
          "internalType": "enum Vote",
          "name": "_vote",
          "type": "uint8"
        },
        {
          "internalType": "string",
          "name": "reason",
          "type": "string"
        }
      ],
      "name": "changeVote",
      "outputs": [],
      "stateMutability": "nonpayable",
      "type": "function"
    },
    {
      "inputs": [
        {
          "internalType": "uint256",
          "name": "proposalId",
          "type": "uint256"
        }
      ],
      "name": "countVotes",
      "outputs": [
        {
          "components": [
            {
              "internalType": "uint64",
              "name": "countYes",
              "type": "uint64"
            },
            {
              "internalType": "uint64",
              "name": "countNo",
              "type": "uint64"
            },
            {
              "internalType": "uint256",
              "name": "stakeYes",
              "type": "uint256"
            },
            {
              "internalType": "uint256",
              "name": "stakeNo",
              "type": "uint256"
            }
          ],
          "internalType": "struct VotingResult",
          "name": "",
          "type": "tuple"
        }
      ],
      "stateMutability": "view",
      "type": "function"
    },
    {
      "inputs": [],
      "name": "createProposalFee",
      "outputs": [
        {
          "internalType": "uint256",
          "name": "",
          "type": "uint256"
        }
      ],
      "stateMutability": "view",
      "type": "function"
    },
    {
      "inputs": [
        {
          "internalType": "uint256",
          "name": "",
          "type": "uint256"
        }
      ],
      "name": "currentPhaseProposals",
      "outputs": [
        {
          "internalType": "uint256",
          "name": "",
          "type": "uint256"
        }
      ],
      "stateMutability": "view",
      "type": "function"
    },
    {
      "inputs": [
        {
          "internalType": "uint256",
          "name": "",
          "type": "uint256"
        },
        {
          "internalType": "address",
          "name": "",
          "type": "address"
        }
      ],
      "name": "daoEpochStakeSnapshot",
      "outputs": [
        {
          "internalType": "uint256",
          "name": "",
          "type": "uint256"
        }
      ],
      "stateMutability": "view",
      "type": "function"
    },
    {
      "inputs": [
        {
          "internalType": "uint256",
          "name": "",
          "type": "uint256"
        }
      ],
      "name": "daoEpochTotalStakeSnapshot",
      "outputs": [
        {
          "internalType": "uint256",
          "name": "",
          "type": "uint256"
        }
      ],
      "stateMutability": "view",
      "type": "function"
    },
    {
      "inputs": [],
      "name": "daoPhase",
      "outputs": [
        {
          "internalType": "uint64",
          "name": "start",
          "type": "uint64"
        },
        {
          "internalType": "uint64",
          "name": "end",
          "type": "uint64"
        },
        {
          "internalType": "uint64",
          "name": "daoEpoch",
          "type": "uint64"
        },
        {
          "internalType": "enum Phase",
          "name": "phase",
          "type": "uint8"
        }
      ],
      "stateMutability": "view",
      "type": "function"
    },
    {
      "inputs": [],
      "name": "daoPhaseCount",
      "outputs": [
        {
          "internalType": "uint256",
          "name": "",
          "type": "uint256"
        }
      ],
      "stateMutability": "view",
      "type": "function"
    },
    {
      "inputs": [
        {
          "internalType": "uint256",
          "name": "",
          "type": "uint256"
        },
        {
          "internalType": "uint256",
          "name": "",
          "type": "uint256"
        }
      ],
      "name": "daoPhaseProposals",
      "outputs": [
        {
          "internalType": "uint256",
          "name": "",
          "type": "uint256"
        }
      ],
      "stateMutability": "view",
      "type": "function"
    },
    {
      "inputs": [
        {
          "internalType": "uint256",
          "name": "proposalId",
          "type": "uint256"
        }
      ],
      "name": "execute",
      "outputs": [],
      "stateMutability": "nonpayable",
      "type": "function"
    },
    {
      "inputs": [
        {
          "internalType": "uint256",
          "name": "proposalId",
          "type": "uint256"
        }
      ],
      "name": "finalize",
      "outputs": [],
      "stateMutability": "nonpayable",
      "type": "function"
    },
    {
      "inputs": [
        {
          "internalType": "string",
          "name": "_selector",
          "type": "string"
        }
      ],
      "name": "getAllowedParamsRange",
      "outputs": [
        {
          "components": [
            {
              "internalType": "bytes4",
              "name": "getter",
              "type": "bytes4"
            },
            {
              "internalType": "uint256[]",
              "name": "range",
              "type": "uint256[]"
            }
          ],
          "internalType": "struct ValueGuards.ParameterRange",
          "name": "",
          "type": "tuple"
        }
      ],
      "stateMutability": "view",
      "type": "function"
    },
    {
      "inputs": [
        {
          "internalType": "bytes4",
          "name": "_selector",
          "type": "bytes4"
        }
      ],
      "name": "getAllowedParamsRangeWithSelector",
      "outputs": [
        {
          "components": [
            {
              "internalType": "bytes4",
              "name": "getter",
              "type": "bytes4"
            },
            {
              "internalType": "uint256[]",
              "name": "range",
              "type": "uint256[]"
            }
          ],
          "internalType": "struct ValueGuards.ParameterRange",
          "name": "",
          "type": "tuple"
        }
      ],
      "stateMutability": "view",
      "type": "function"
    },
    {
      "inputs": [],
      "name": "getCurrentPhaseProposals",
      "outputs": [
        {
          "internalType": "uint256[]",
          "name": "",
          "type": "uint256[]"
        }
      ],
      "stateMutability": "view",
      "type": "function"
    },
    {
      "inputs": [
        {
          "internalType": "uint256",
          "name": "proposalId",
          "type": "uint256"
        }
      ],
      "name": "getProposal",
      "outputs": [
        {
          "components": [
            {
              "internalType": "address",
              "name": "proposer",
              "type": "address"
            },
            {
              "internalType": "uint64",
              "name": "votingDaoEpoch",
              "type": "uint64"
            },
            {
              "internalType": "enum ProposalState",
              "name": "state",
              "type": "uint8"
            },
            {
              "internalType": "address[]",
              "name": "targets",
              "type": "address[]"
            },
            {
              "internalType": "uint256[]",
              "name": "values",
              "type": "uint256[]"
            },
            {
              "internalType": "bytes[]",
              "name": "calldatas",
              "type": "bytes[]"
            },
            {
              "internalType": "string",
              "name": "title",
              "type": "string"
            },
            {
              "internalType": "string",
              "name": "description",
              "type": "string"
            },
            {
              "internalType": "string",
              "name": "discussionUrl",
              "type": "string"
            },
            {
              "internalType": "uint256",
              "name": "daoPhaseCount",
              "type": "uint256"
            },
            {
              "internalType": "uint256",
              "name": "proposalFee",
              "type": "uint256"
            },
            {
              "internalType": "enum ProposalType",
              "name": "proposalType",
              "type": "uint8"
            }
          ],
          "internalType": "struct Proposal",
          "name": "",
          "type": "tuple"
        }
      ],
      "stateMutability": "view",
      "type": "function"
    },
    {
      "inputs": [
        {
          "internalType": "uint256",
          "name": "proposalId",
          "type": "uint256"
        }
      ],
      "name": "getProposalVoters",
      "outputs": [
        {
          "internalType": "address[]",
          "name": "",
          "type": "address[]"
        }
      ],
      "stateMutability": "view",
      "type": "function"
    },
    {
      "inputs": [
        {
          "internalType": "uint256",
          "name": "proposalId",
          "type": "uint256"
        }
      ],
      "name": "getProposalVotersCount",
      "outputs": [
        {
          "internalType": "uint256",
          "name": "",
          "type": "uint256"
        }
      ],
      "stateMutability": "view",
      "type": "function"
    },
    {
      "inputs": [],
      "name": "governancePot",
      "outputs": [
        {
          "internalType": "uint256",
          "name": "",
          "type": "uint256"
        }
      ],
      "stateMutability": "view",
      "type": "function"
    },
    {
      "inputs": [
        {
          "internalType": "address[]",
          "name": "targets",
          "type": "address[]"
        },
        {
          "internalType": "uint256[]",
          "name": "values",
          "type": "uint256[]"
        },
        {
          "internalType": "bytes[]",
          "name": "calldatas",
          "type": "bytes[]"
        },
        {
          "internalType": "string",
          "name": "description",
          "type": "string"
        }
      ],
      "name": "hashProposal",
      "outputs": [
        {
          "internalType": "uint256",
          "name": "",
          "type": "uint256"
        }
      ],
      "stateMutability": "pure",
      "type": "function"
    },
    {
      "inputs": [
        {
          "internalType": "address",
          "name": "_contractOwner",
          "type": "address"
        },
        {
          "internalType": "address",
          "name": "_validatorSet",
          "type": "address"
        },
        {
          "internalType": "address",
          "name": "_stakingHbbft",
          "type": "address"
        },
        {
          "internalType": "address",
          "name": "_reinsertPot",
          "type": "address"
        },
        {
          "internalType": "address",
          "name": "_txPermission",
          "type": "address"
        },
        {
          "internalType": "address",
          "name": "_bonusScore",
          "type": "address"
        },
        {
          "internalType": "address",
          "name": "_lowMajorityDao",
          "type": "address"
        },
        {
          "internalType": "uint256",
          "name": "_createProposalFee",
          "type": "uint256"
        },
        {
          "internalType": "uint64",
          "name": "_startTimestamp",
          "type": "uint64"
        }
      ],
      "name": "initialize",
      "outputs": [],
      "stateMutability": "nonpayable",
      "type": "function"
    },
    {
      "inputs": [
        {
          "internalType": "address",
          "name": "",
          "type": "address"
        }
      ],
      "name": "isCoreContract",
      "outputs": [
        {
          "internalType": "bool",
          "name": "",
          "type": "bool"
        }
      ],
      "stateMutability": "view",
      "type": "function"
    },
    {
      "inputs": [
        {
          "internalType": "bytes4",
          "name": "funcSelector",
          "type": "bytes4"
        },
        {
          "internalType": "uint256",
          "name": "newVal",
          "type": "uint256"
        }
      ],
      "name": "isWithinAllowedRange",
      "outputs": [
        {
          "internalType": "bool",
          "name": "",
          "type": "bool"
        }
      ],
      "stateMutability": "view",
      "type": "function"
    },
    {
      "inputs": [],
      "name": "lastDaoPhaseCount",
      "outputs": [
        {
          "internalType": "uint256",
          "name": "",
          "type": "uint256"
        }
      ],
      "stateMutability": "view",
      "type": "function"
    },
    {
      "inputs": [],
      "name": "lowMajorityDao",
      "outputs": [
        {
          "internalType": "contract IDiamondDaoLowMajority",
          "name": "",
          "type": "address"
        }
      ],
      "stateMutability": "view",
      "type": "function"
    },
    {
      "inputs": [],
      "name": "owner",
      "outputs": [
        {
          "internalType": "address",
          "name": "",
          "type": "address"
        }
      ],
      "stateMutability": "view",
      "type": "function"
    },
    {
      "inputs": [
        {
          "internalType": "uint256",
          "name": "proposalId",
          "type": "uint256"
        }
      ],
      "name": "proposalExists",
      "outputs": [
        {
          "internalType": "bool",
          "name": "",
          "type": "bool"
        }
      ],
      "stateMutability": "view",
      "type": "function"
    },
    {
      "inputs": [
        {
          "internalType": "uint256",
          "name": "",
          "type": "uint256"
        }
      ],
      "name": "proposals",
      "outputs": [
        {
          "internalType": "address",
          "name": "proposer",
          "type": "address"
        },
        {
          "internalType": "uint64",
          "name": "votingDaoEpoch",
          "type": "uint64"
        },
        {
          "internalType": "enum ProposalState",
          "name": "state",
          "type": "uint8"
        },
        {
          "internalType": "string",
          "name": "title",
          "type": "string"
        },
        {
          "internalType": "string",
          "name": "description",
          "type": "string"
        },
        {
          "internalType": "string",
          "name": "discussionUrl",
          "type": "string"
        },
        {
          "internalType": "uint256",
          "name": "daoPhaseCount",
          "type": "uint256"
        },
        {
          "internalType": "uint256",
          "name": "proposalFee",
          "type": "uint256"
        },
        {
          "internalType": "enum ProposalType",
          "name": "proposalType",
          "type": "uint8"
        }
      ],
      "stateMutability": "view",
      "type": "function"
    },
    {
      "inputs": [
        {
          "internalType": "address[]",
          "name": "targets",
          "type": "address[]"
        },
        {
          "internalType": "uint256[]",
          "name": "values",
          "type": "uint256[]"
        },
        {
          "internalType": "bytes[]",
          "name": "calldatas",
          "type": "bytes[]"
        },
        {
          "internalType": "string",
          "name": "title",
          "type": "string"
        },
        {
          "internalType": "string",
          "name": "description",
          "type": "string"
        },
        {
          "internalType": "string",
          "name": "discussionUrl",
          "type": "string"
        },
        {
          "internalType": "enum OpenProposalMajority",
          "name": "majority",
          "type": "uint8"
        }
      ],
      "name": "propose",
      "outputs": [],
      "stateMutability": "payable",
      "type": "function"
    },
    {
      "inputs": [
        {
          "internalType": "uint256",
          "name": "proposalId",
          "type": "uint256"
        },
        {
          "internalType": "enum ProposalType",
          "name": "_type",
          "type": "uint8"
        },
        {
          "components": [
            {
              "internalType": "uint64",
              "name": "countYes",
              "type": "uint64"
            },
            {
              "internalType": "uint64",
              "name": "countNo",
              "type": "uint64"
            },
            {
              "internalType": "uint256",
              "name": "stakeYes",
              "type": "uint256"
            },
            {
              "internalType": "uint256",
              "name": "stakeNo",
              "type": "uint256"
            }
          ],
          "internalType": "struct VotingResult",
          "name": "result",
          "type": "tuple"
        }
      ],
      "name": "quorumReached",
      "outputs": [
        {
          "internalType": "bool",
          "name": "",
          "type": "bool"
        }
      ],
      "stateMutability": "view",
      "type": "function"
    },
    {
      "inputs": [],
      "name": "reinsertPot",
      "outputs": [
        {
          "internalType": "address",
          "name": "",
          "type": "address"
        }
      ],
      "stateMutability": "view",
      "type": "function"
    },
    {
      "inputs": [
        {
          "internalType": "bytes4",
          "name": "funcSelector",
          "type": "bytes4"
        }
      ],
      "name": "removeAllowedChangeableParameter",
      "outputs": [],
      "stateMutability": "nonpayable",
      "type": "function"
    },
    {
      "inputs": [],
      "name": "renounceOwnership",
      "outputs": [],
      "stateMutability": "nonpayable",
      "type": "function"
    },
    {
      "inputs": [
        {
          "internalType": "uint256",
          "name": "",
          "type": "uint256"
        }
      ],
      "name": "results",
      "outputs": [
        {
          "internalType": "uint64",
          "name": "countYes",
          "type": "uint64"
        },
        {
          "internalType": "uint64",
          "name": "countNo",
          "type": "uint64"
        },
        {
          "internalType": "uint256",
          "name": "stakeYes",
          "type": "uint256"
        },
        {
          "internalType": "uint256",
          "name": "stakeNo",
          "type": "uint256"
        }
      ],
      "stateMutability": "view",
      "type": "function"
    },
    {
      "inputs": [
        {
          "internalType": "bytes4",
          "name": "setter",
          "type": "bytes4"
        },
        {
          "internalType": "bytes4",
          "name": "getter",
          "type": "bytes4"
        },
        {
          "internalType": "uint256[]",
          "name": "params",
          "type": "uint256[]"
        }
      ],
      "name": "setAllowedChangeableParameter",
      "outputs": [],
      "stateMutability": "nonpayable",
      "type": "function"
    },
    {
      "inputs": [
        {
          "internalType": "uint256",
          "name": "_fee",
          "type": "uint256"
        }
      ],
      "name": "setCreateProposalFee",
      "outputs": [],
      "stateMutability": "nonpayable",
      "type": "function"
    },
    {
      "inputs": [
        {
          "internalType": "address",
          "name": "_add",
          "type": "address"
        },
        {
          "internalType": "bool",
          "name": "isCore",
          "type": "bool"
        }
      ],
      "name": "setIsCoreContract",
      "outputs": [],
      "stateMutability": "nonpayable",
      "type": "function"
    },
    {
      "inputs": [],
      "name": "stakingHbbft",
      "outputs": [
        {
          "internalType": "contract IStakingHbbft",
          "name": "",
          "type": "address"
        }
      ],
      "stateMutability": "view",
      "type": "function"
    },
    {
      "inputs": [],
      "name": "statistic",
      "outputs": [
        {
          "internalType": "uint64",
          "name": "total",
          "type": "uint64"
        },
        {
          "internalType": "uint64",
          "name": "accepted",
          "type": "uint64"
        },
        {
          "internalType": "uint64",
          "name": "declined",
          "type": "uint64"
        },
        {
          "internalType": "uint64",
          "name": "canceled",
          "type": "uint64"
        }
      ],
      "stateMutability": "view",
      "type": "function"
    },
    {
      "inputs": [],
      "name": "switchPhase",
      "outputs": [],
      "stateMutability": "nonpayable",
      "type": "function"
    },
    {
      "inputs": [
        {
          "internalType": "address",
          "name": "newOwner",
          "type": "address"
        }
      ],
      "name": "transferOwnership",
      "outputs": [],
      "stateMutability": "nonpayable",
      "type": "function"
    },
    {
      "inputs": [],
      "name": "unfinalizedProposals",
      "outputs": [
        {
          "internalType": "uint256",
          "name": "",
          "type": "uint256"
        }
      ],
      "stateMutability": "view",
      "type": "function"
    },
    {
      "inputs": [],
      "name": "unfinalizedProposalsExist",
      "outputs": [
        {
          "internalType": "bool",
          "name": "",
          "type": "bool"
        }
      ],
      "stateMutability": "view",
      "type": "function"
    },
    {
      "inputs": [],
      "name": "validatorSet",
      "outputs": [
        {
          "internalType": "contract IValidatorSetHbbft",
          "name": "",
          "type": "address"
        }
      ],
      "stateMutability": "view",
      "type": "function"
    },
    {
      "inputs": [
        {
          "internalType": "uint256",
          "name": "proposalId",
          "type": "uint256"
        },
        {
          "internalType": "enum Vote",
          "name": "_vote",
          "type": "uint8"
        }
      ],
      "name": "vote",
      "outputs": [],
      "stateMutability": "nonpayable",
      "type": "function"
    },
    {
      "inputs": [
        {
          "internalType": "uint256",
          "name": "proposalId",
          "type": "uint256"
        },
        {
          "internalType": "enum Vote",
          "name": "_vote",
          "type": "uint8"
        },
        {
          "internalType": "string",
          "name": "reason",
          "type": "string"
        }
      ],
      "name": "voteWithReason",
      "outputs": [],
      "stateMutability": "nonpayable",
      "type": "function"
    },
    {
      "inputs": [
        {
          "internalType": "uint256",
          "name": "",
          "type": "uint256"
        },
        {
          "internalType": "address",
          "name": "",
          "type": "address"
        }
      ],
      "name": "votes",
      "outputs": [
        {
          "internalType": "uint64",
          "name": "timestamp",
          "type": "uint64"
        },
        {
          "internalType": "enum Vote",
          "name": "vote",
          "type": "uint8"
        },
        {
          "internalType": "string",
          "name": "reason",
          "type": "string"
        }
      ],
      "stateMutability": "view",
      "type": "function"
    },
    {
      "stateMutability": "payable",
      "type": "receive"
    }
  ],
  "bytecode": "0x6080604052348015600f57600080fd5b506016601a565b60ca565b7ff0c57e16840df040f15088dc2f81fe391c3923bec73e23a9662efc9c229c6a00805468010000000000000000900460ff161560695760405163f92ee8a960e01b815260040160405180910390fd5b80546001600160401b039081161460c75780546001600160401b0319166001600160401b0390811782556040519081527fc7f505b2f371ae2175ee4913f4499e1f2633a7b5936321eed1cdaeb6115181d29060200160405180910390a15b50565b615b21806100d96000396000f3fe6080604052600436106103225760003560e01c8063a68f34f7116101a5578063c52088bc116100ec578063efa65b4811610095578063f9d1a24b1161006f578063f9d1a24b14610a8e578063fa1f072714610aa1578063fe0d94c114610ab7578063ff71d67714610ad757600080fd5b8063efa65b4814610a43578063f22d232614610a58578063f2fde38b14610a6e57600080fd5b8063d23254b4116100c6578063d23254b4146109de578063ec47c47114610a0d578063ed965ddc14610a2357600080fd5b8063c52088bc14610961578063c7f758a814610981578063d22a20cd146109ae57600080fd5b8063b1530dc71161014e578063be0a4e4b11610128578063be0a4e4b1461090b578063bf348f8614610921578063c3b66bed1461094157600080fd5b8063b1530dc71461089e578063b710c15d146108be578063ba08d237146108eb57600080fd5b8063ab266e101161017f578063ab266e101461080e578063b050bcf71461082e578063b131b6a51461084e57600080fd5b8063a68f34f71461079d578063aa72e3b9146107ca578063ab0eb62d146107f957600080fd5b80635e8815f2116102695780638da5cb5b11610212578063950e3e44116101ec578063950e3e441461073b57806395dd7fb91461075b5780639ce25e301461077d57600080fd5b80638da5cb5b146106be5780639426e226146106fb578063943e82161461071b57600080fd5b8063715018a611610243578063715018a61461066957806373f129581461067e5780637d8149db1461069e57600080fd5b80635e8815f2146105f157806366a862a1146106115780636b6d33da1461063157600080fd5b80631b0c27da116102cb5780633c5fc711116102a55780633c5fc711146105325780634346845f146105a4578063525e03d5146105c457600080fd5b80631b0c27da146104735780632baffa3f146104ee57806331e407331461051257600080fd5b80631374b22d116102fc5780631374b22d146103de5780631536f472146104265780631840f0ca1461044657600080fd5b8063013cf08b1461034657806305261aea146103845780631243e6cb146103a657600080fd5b366103415734600360008282546103399190614643565b925050819055005b600080fd5b34801561035257600080fd5b50610366610361366004614656565b610aed565b60405161037b999897969594939291906146f9565b60405180910390f35b34801561039057600080fd5b506103a461039f366004614656565b610ceb565b005b3480156103b257600080fd5b506005546103c6906001600160a01b031681565b6040516001600160a01b03909116815260200161037b565b3480156103ea57600080fd5b506104166103f9366004614656565b6000908152600960205260409020546001600160a01b0316151590565b604051901515815260200161037b565b34801561043257600080fd5b506103a46104413660046147d3565b610f61565b34801561045257600080fd5b50610466610461366004614656565b611084565b60405161037b919061481e565b34801561047f57600080fd5b506104c361048e366004614656565b600b602052600090815260409020805460018201546002909201546001600160401b0380831693600160401b90930416919084565b604080516001600160401b03958616815294909316602085015291830152606082015260800161037b565b3480156104fa57600080fd5b5061050460035481565b60405190815260200161037b565b34801561051e57600080fd5b506103a461052d366004614877565b611218565b34801561053e57600080fd5b50600654610571906001600160401b0380821691600160401b8104821691600160801b8204811691600160c01b90041684565b604080516001600160401b039586168152938516602085015291841691830191909152909116606082015260800161037b565b3480156105b057600080fd5b506103a46105bf3660046148e8565b61136d565b3480156105d057600080fd5b506105046105df366004614656565b60126020526000908152604090205481565b3480156105fd57600080fd5b506103a461060c3660046149a1565b61145e565b34801561061d57600080fd5b5061050461062c3660046149d8565b6114d2565b34801561063d57600080fd5b5061050461064c3660046149fa565b600d60209081526000928352604080842090915290825290205481565b34801561067557600080fd5b506103a4611503565b34801561068a57600080fd5b506001546103c6906001600160a01b031681565b3480156106aa57600080fd5b506103a46106b9366004614a26565b611517565b3480156106ca57600080fd5b507f9016d09d72d40fdae2fd8ceac6b6234c7706214fd39c1cd1e609a0528c199300546001600160a01b03166103c6565b34801561070757600080fd5b506004546103c6906001600160a01b031681565b34801561072757600080fd5b506103a4610736366004614a43565b6115a0565b34801561074757600080fd5b50610504610756366004614cd9565b6116be565b34801561076757600080fd5b50610770611704565b60405161037b9190614dc1565b34801561078957600080fd5b506103a4610798366004614deb565b61175c565b3480156107a957600080fd5b506107bd6107b8366004614656565b611c97565b60405161037b9190614ec6565b3480156107d657600080fd5b506107e16212750081565b6040516001600160401b03909116815260200161037b565b34801561080557600080fd5b506103a4611cb7565b34801561081a57600080fd5b506103a4610829366004614656565b612037565b34801561083a57600080fd5b50610416610849366004614ed9565b6120c2565b34801561085a57600080fd5b5060075461088e906001600160401b0380821691600160401b8104821691600160801b82041690600160c01b900460ff1684565b60405161037b9493929190614f8d565b3480156108aa57600080fd5b506014546103c6906001600160a01b031681565b3480156108ca57600080fd5b506108de6108d9366004614fc5565b612208565b60405161037b9190615001565b3480156108f757600080fd5b5061041661090636600461502f565b6122b8565b34801561091757600080fd5b5061050460115481565b34801561092d57600080fd5b506108de61093c366004614a26565b612493565b34801561094d57600080fd5b5061050461095c366004614656565b612538565b34801561096d57600080fd5b506103a461097c366004614877565b61254f565b34801561098d57600080fd5b506109a161099c366004614656565b612802565b60405161037b91906150b5565b3480156109ba57600080fd5b506104166109c93660046151ec565b600a6020526000908152604090205460ff1681565b3480156109ea57600080fd5b506109fe6109f93660046149fa565b612c16565b60405161037b93929190615207565b348015610a1957600080fd5b506105046103e881565b348015610a2f57600080fd5b50610504610a3e366004614656565b612cdc565b348015610a4f57600080fd5b50610416612cfd565b348015610a6457600080fd5b5061050460025481565b348015610a7a57600080fd5b506103a4610a893660046151ec565b612d25565b6103a4610a9c366004615238565b612d60565b348015610aad57600080fd5b5061050460105481565b348015610ac357600080fd5b506103a4610ad2366004614656565b613102565b348015610ae357600080fd5b5061050460005481565b600960205260009081526040902080546004820180546001600160a01b03831693600160a01b84046001600160401b031693600160e01b900460ff16929091610b359061533e565b80601f0160208091040260200160405190810160405280929190818152602001828054610b619061533e565b8015610bae5780601f10610b8357610100808354040283529160200191610bae565b820191906000526020600020905b815481529060010190602001808311610b9157829003601f168201915b505050505090806005018054610bc39061533e565b80601f0160208091040260200160405190810160405280929190818152602001828054610bef9061533e565b8015610c3c5780601f10610c1157610100808354040283529160200191610c3c565b820191906000526020600020905b815481529060010190602001808311610c1f57829003601f168201915b505050505090806006018054610c519061533e565b80601f0160208091040260200160405190810160405280929190818152602001828054610c7d9061533e565b8015610cca5780601f10610c9f57610100808354040283529160200191610cca565b820191906000526020600020905b815481529060010190602001808311610cad57829003601f168201915b50505050600783015460088401546009909401549293909290915060ff1689565b610cf36133f3565b60008181526009602052604090205481906001600160a01b0316610d325760405163986731a160e01b8152600481018290526024015b60405180910390fd5b610d3d82600361343d565b600082815260096020526040812090610d57846001613499565b6000858152600b602090815260409182902090830151815484516fffffffffffffffffffffffffffffffff19909116600160401b6001600160401b039384160267ffffffffffffffff1916179116178155606083015160028201559082015160019091015590506009820154600090610dd590869060ff16846120c2565b905080610de3576005610de6565b60045b8354849060ff60e01b1916600160e01b836006811115610e0857610e0861466f565b02179055508015610e7b576006805460019190600890610e39908490600160401b90046001600160401b0316615372565b82546001600160401b039182166101009390930a92830291909202199091161790555082546008840154610e76916001600160a01b0316906136c4565b610ee8565b6006805460019190601090610ea1908490600160801b90046001600160401b0316615372565b92506101000a8154816001600160401b0302191690836001600160401b03160217905550610ee8600160009054906101000a90046001600160a01b031684600801546136c4565b600160106000828254610efb9190615392565b909155505060405181151590869033907f4a82eb80f2a86beb92f5670422f698264b3511048a29b400a6a1ce684769581e90600090a450505050610f5e60017f9b779b17422d0df92223018b32b4d1fa46e071723d6817e2486d003becc55f0055565b50565b60008381526009602052604090205483906001600160a01b0316610f9b5760405163986731a160e01b815260048101829052602401610d29565b600084815260096020526040902080546001600160a01b03163314610fd357604051630608c7c960e51b815260040160405180910390fd5b610fde85600061343d565b805460ff60e01b1916600160e01b1781556006805460019190601890611015908490600160c01b90046001600160401b0316615372565b92506101000a8154816001600160401b0302191690836001600160401b0316021790555084336001600160a01b03167fd16ff8053e1476416f5be14c32305a3652ac0b182ac04ede8c101d867b75bd1486866040516110759291906153a5565b60405180910390a35050505050565b60408051608081018252600080825260208201819052918101829052606081019190915260008281526009602052604090205482906001600160a01b03166110e25760405163986731a160e01b815260048101829052602401610d29565b600083815260096020526040902054600160e01b900460ff16600481600681111561110f5761110f61466f565b148061112c5750600581600681111561112a5761112a61466f565b145b80611148575060068160068111156111465761114661466f565b145b156111a557506000838152600b6020908152604091829020825160808101845281546001600160401b038082168352600160401b909104169281019290925260018101549282019290925260029091015460608201529150611212565b60038160068111156111b9576111b961466f565b036111d1576111c9846001613499565b925050611212565b60028160068111156111e5576111e561466f565b036111f5576111c9846000613499565b838160405163605cfad560e01b8152600401610d299291906153d4565b50919050565b60008481526009602052604090205484906001600160a01b03166112525760405163986731a160e01b815260048101829052602401610d29565b600180600754600160c01b900460ff1660018111156112735761127361466f565b1461129f576007546040516378030af960e11b8152610d2991600160c01b900460ff16906004016153e8565b6112a833613776565b6112c75760405163fb426bed60e01b8152336004820152602401610d29565b600033905061130e81888888888080601f0160208091040260200160405190810160405280939291908181526020018383808284376000920191909152506137e592505050565b8560018111156113205761132061466f565b87826001600160a01b03167fde85a12bb3f2d766e67cf54febc7c53ae9c500da072f8fdfb34aba5ca5525ebf888860405161135c9291906153a5565b60405180910390a450505050505050565b611375613935565b600061137f613990565b90506040518060400160405280856001600160e01b031916815260200184848080602002602001604051908101604052809392919081815260200183836020028082843760009201829052509390945250506001600160e01b031988168152602084815260409091208351815463ffffffff191660e09190911c1781558382015180519193506114169260018501929101906143f3565b509050507f3665bf9cd0ba4ddceeec259e21dcf8a4510f3b1130bd42e950828e69d85408ba8585858560405161144f94939291906153fb565b60405180910390a15050505050565b33301461147e576040516354348f0360e01b815260040160405180910390fd5b6001600160a01b0382166000818152600a6020526040808220805460ff191685151590811790915590519092917fc73e95af540565c649d9453cb23b01f505752b94f04ff81b52ce528047232f2391a35050565b601360205281600052604060002081815481106114ee57600080fd5b90600052602060002001600091509150505481565b61150b613935565b61151560006139f2565b565b61151f613935565b6000611529613990565b6001600160e01b031983166000908152602082905260408120805463ffffffff1916815591925061155d600183018261443e565b50506040516001600160e01b0319831681527fed27cb02231782dadf13473a7828cb980c4d685791b7a3136dde00f8c3594cb69060200160405180910390a15050565b60008281526009602052604090205482906001600160a01b03166115da5760405163986731a160e01b815260048101829052602401610d29565b600180600754600160c01b900460ff1660018111156115fb576115fb61466f565b14611627576007546040516378030af960e11b8152610d2991600160c01b900460ff16906004016153e8565b61163033613776565b61164f5760405163fb426bed60e01b8152336004820152602401610d29565b600033905061166f818686604051806020016040528060008152506137e5565b8360018111156116815761168161466f565b60405186906001600160a01b038416907f343f24b88bd3789b60993251090e2184e0e4ae199d79b14a510fc1a08b51f51490600090a45050505050565b60008082805190602001209050858585836040516020016116e29493929190615468565b60408051601f1981840301815291905280516020909101209695505050505050565b6060600880548060200260200160405190810160405280929190818152602001828054801561175257602002820191906000526020600020905b81548152602001906001019080831161173e575b5050505050905090565b7ff0c57e16840df040f15088dc2f81fe391c3923bec73e23a9662efc9c229c6a008054600160401b810460ff1615906001600160401b03166000811580156117a15750825b90506000826001600160401b031660011480156117bd5750303b155b9050811580156117cb575080155b156117e95760405163f92ee8a960e01b815260040160405180910390fd5b845467ffffffffffffffff19166001178555831561181857845468ff00000000000000001916600160401b1785555b6001600160a01b038e16158061183557506001600160a01b038d16155b8061184757506001600160a01b038b16155b8061185957506001600160a01b038c16155b8061186b57506001600160a01b038a16155b8061187d57506001600160a01b038816155b8061188f57506001600160a01b038916155b80611898575086155b156118b65760405163a9cb9e0d60e01b815260040160405180910390fd5b42866001600160401b031610156118e0576040516307f5e89560e51b815260040160405180910390fd5b6118e98e613a70565b6118f1613a81565b8c600460006101000a8154816001600160a01b0302191690836001600160a01b031602179055508b600560006101000a8154816001600160a01b0302191690836001600160a01b0316021790555087601460006101000a8154816001600160a01b0302191690836001600160a01b031602179055508a600160006101000a8154816001600160a01b0302191690836001600160a01b031602179055508660028190555085600760000160006101000a8154816001600160401b0302191690836001600160401b0316021790555062127500866119cd9190615372565b600780546001600160401b0392909216600160401b027fffffffffffffff000000000000000000ffffffffffffffffffffffffffffffff167fffffffffffffff0000000000000000000000000000000000ffffffffffffffff90921691909117600160801b17905560016000908155604080516009808252610140820190925290602082016101208036833701905050905060005b6009811015611aad57611a76816001614643565b611a8890678ac7230489e800006154b3565b828281518110611a9a57611a9a6154ca565b6020908102919091010152600101611a62565b50611ac7630ab266e160e41b637916919360e11b83613a91565b6001600a6000306001600160a01b03166001600160a01b0316815260200190815260200160002060006101000a81548160ff0219169083151502179055506001600a60008f6001600160a01b03166001600160a01b0316815260200190815260200160002060006101000a81548160ff0219169083151502179055506001600a60008d6001600160a01b03166001600160a01b0316815260200190815260200160002060006101000a81548160ff0219169083151502179055506001600a60008e6001600160a01b03166001600160a01b0316815260200190815260200160002060006101000a81548160ff0219169083151502179055506001600a60008b6001600160a01b03166001600160a01b0316815260200190815260200160002060006101000a81548160ff0219169083151502179055506001600a60008c6001600160a01b03166001600160a01b0316815260200190815260200160002060006101000a81548160ff021916908315150217905550508315611c8757845468ff000000000000000019168555604051600181527fc7f505b2f371ae2175ee4913f4499e1f2633a7b5936321eed1cdaeb6115181d29060200160405180910390a15b5050505050505050505050505050565b6000818152600f60205260409020606090611cb190613b46565b92915050565b611cbf6133f3565b60075442906001600160401b03600160401b90910481169082161015611ce5575061200e565b600080600754600160c01b900460ff166001811115611d0657611d0661466f565b14611d12576000611d15565b60015b6007805467ffffffffffffffff19166001600160401b0385161790559050611d406212750083615372565b600780546001600160401b0392909216600160401b026fffffffffffffffff00000000000000001983168117825583927fffffffffffffff00ffffffffffffffffffffffffffffffffffffffffffffffff9091167fffffffffffffff00ffffffffffffffff0000000000000000ffffffffffffffff90911617600160c01b836001811115611dd057611dd061466f565b021790555060006001826001811115611deb57611deb61466f565b14611df7576003611dfa565b60025b905060006003826006811115611e1257611e1261466f565b6008549114915060005b81811015611ee057600060088281548110611e3957611e396154ca565b6000918252602080832090910154808352600990915260409091208054919250869160ff60e01b1916600160e01b836006811115611e7957611e7961466f565b02179055508315611ed757600754600082815260096020526040902080547fffffffff0000000000000000ffffffffffffffffffffffffffffffffffffffff16600160801b9092046001600160401b0316600160a01b029190911790555b50600101611e1c565b508115611f4e57600754611f0390600160801b90046001600160401b0316613b53565b6007805460019190601090611f29908490600160801b90046001600160401b0316615372565b92506101000a8154816001600160401b0302191690836001600160401b031602179055505b6000846001811115611f6257611f6261466f565b03611faa5760008054815260136020526040902060088054611f8592919061445c565b506001600080828254611f989190614643565b90915550611faa90506008600061443e565b6007546001600160401b03600160401b82048116919081169060ff600160c01b909104166001811115611fdf57611fdf61466f565b6040517f4887f063ba2113285aba0e893c372b65da5e458b463fb01fdf1fe0d266acff0e90600090a450505050505b61151560017f9b779b17422d0df92223018b32b4d1fa46e071723d6817e2486d003becc55f0055565b333014612057576040516354348f0360e01b815260040160405180910390fd5b8061206e6000356001600160e01b031916826122b8565b61208e576040516373330d9b60e01b815260048101829052602401610d29565b600282905560405182907f7d6e1cf0de9a5ba39e02e05972eb08471682fc361b20458a3f200f7bf087b53590600090a25050565b6000838152600f6020526040812081906120db90613ce9565b600086815260096020908152604080832054600160a01b90046001600160401b03168084526012909252822054929350919060018760038111156121215761212161466f565b148061213e5750600387600381111561213c5761213c61466f565b145b156121545761214d8683613cf3565b90506121ed565b60008760038111156121685761216861466f565b036121e057601454604051630d91813160e21b81526001600160a01b039091169063364604c49061219f90899086906004016154e0565b602060405180830381865afa1580156121bc573d6000803e3d6000fd5b505050506040513d601f19601f8201168201806040525081019061214d9190615529565b6121ea8683613d39565b90505b6000841180156121fa5750805b9450505050505b9392505050565b604080518082019091526000815260606020820152612225613990565b82516020808501919091206001600160e01b0319908116600090815292825260409283902083518085018552815460e01b90921682526001810180548551818602810186019096528086529294919385810193908301828280156122a857602002820191906000526020600020905b815481526020019060010190808311612294575b5050505050815250509050919050565b6000806122c3613990565b6001600160e01b031980861660009081526020838152604080832081518083018352815460e01b9095168552600181018054835181860281018601909452808452969750939590938584019390919083018282801561234157602002820191906000526020600020905b81548152602001906001019080831161232d575b505050505081525050905080602001515160000361236457600092505050611cb1565b6020810151815160009061237790613d47565b905060005b82518110156124855781838281518110612398576123986154ca565b60200260200101510361247d5760008082116123ce57836000815181106123c1576123c16154ca565b60200260200101516123f3565b836123da600184615392565b815181106123ea576123ea6154ca565b60200260200101515b90506000600185516124059190615392565b831061243757846001865161241a9190615392565b8151811061242a5761242a6154ca565b602002602001015161245c565b84612443846001614643565b81518110612453576124536154ca565b60200260200101515b905081891415801561246e5750808914155b15975050505050505050611cb1565b60010161237c565b506000979650505050505050565b6040805180820190915260008152606060208201526124b0613990565b6001600160e01b03198084166000908152602092835260409081902081518083018352815460e01b90931683526001810180548351818702810187019094528084529394919385830193928301828280156122a85760200282019190600052602060002090815481526020019060010190808311612294575050505050815250509050919050565b6000818152600f60205260408120611cb190613ce9565b60008481526009602052604090205484906001600160a01b03166125895760405163986731a160e01b815260048101829052602401610d29565b600180600754600160c01b900460ff1660018111156125aa576125aa61466f565b146125d6576007546040516378030af960e11b8152610d2991600160c01b900460ff16906004016153e8565b6125df33613776565b6125fe5760405163fb426bed60e01b8152336004820152602401610d29565b6000868152600f602052604090206126169033613e09565b61263c576040516328524c6760e01b815260048101879052336024820152604401610d29565b6000868152600960205260409020339060028154600160e01b900460ff16600681111561266b5761266b61466f565b1461269957805460405163605cfad560e01b8152610d29918a91600160e01b90910460ff16906004016153d4565b6000888152600c602090815260408083206001600160a01b038616845290915290208760018111156126cd576126cd61466f565b8154600160401b900460ff1660018111156126ea576126ea61466f565b14801561272557508686604051612702929190615546565b60405180910390208160010160405161271b9190615556565b6040518091039020145b156127495788838960405163cdfb27f160e01b8152600401610d29939291906155cc565b80548890829068ff00000000000000001916600160401b8360018111156127725761277261466f565b021790555060018101612786878983615649565b50805467ffffffffffffffff1916426001600160401b03161781558760018111156127b3576127b361466f565b89846001600160a01b03167f332b2b2ae5af09046352b7642c20055605109b483c9a3c7858df4c4e0c557ea98a8a6040516127ef9291906153a5565b60405180910390a4505050505050505050565b61280a61449c565b60008281526009602090815260409182902082516101808101845281546001600160a01b0381168252600160a01b81046001600160401b03169382019390935292909190830190600160e01b900460ff16600681111561286c5761286c61466f565b600681111561287d5761287d61466f565b8152602001600182018054806020026020016040519081016040528092919081815260200182805480156128da57602002820191906000526020600020905b81546001600160a01b031681526001909101906020018083116128bc575b505050505081526020016002820180548060200260200160405190810160405280929190818152602001828054801561293257602002820191906000526020600020905b81548152602001906001019080831161291e575b5050505050815260200160038201805480602002602001604051908101604052809291908181526020016000905b82821015612a0c57838290600052602060002001805461297f9061533e565b80601f01602080910402602001604051908101604052809291908181526020018280546129ab9061533e565b80156129f85780601f106129cd576101008083540402835291602001916129f8565b820191906000526020600020905b8154815290600101906020018083116129db57829003601f168201915b505050505081526020019060010190612960565b505050508152602001600482018054612a249061533e565b80601f0160208091040260200160405190810160405280929190818152602001828054612a509061533e565b8015612a9d5780601f10612a7257610100808354040283529160200191612a9d565b820191906000526020600020905b815481529060010190602001808311612a8057829003601f168201915b50505050508152602001600582018054612ab69061533e565b80601f0160208091040260200160405190810160405280929190818152602001828054612ae29061533e565b8015612b2f5780601f10612b0457610100808354040283529160200191612b2f565b820191906000526020600020905b815481529060010190602001808311612b1257829003601f168201915b50505050508152602001600682018054612b489061533e565b80601f0160208091040260200160405190810160405280929190818152602001828054612b749061533e565b8015612bc15780601f10612b9657610100808354040283529160200191612bc1565b820191906000526020600020905b815481529060010190602001808311612ba457829003601f168201915b50505091835250506007820154602082015260088201546040820152600982015460609091019060ff166003811115612bfc57612bfc61466f565b6003811115612c0d57612c0d61466f565b90525092915050565b600c602090815260009283526040808420909152908252902080546001820180546001600160401b03831693600160401b90930460ff16929190612c599061533e565b80601f0160208091040260200160405190810160405280929190818152602001828054612c859061533e565b8015612cd25780601f10612ca757610100808354040283529160200191612cd2565b820191906000526020600020905b815481529060010190602001808311612cb557829003601f168201915b5050505050905083565b60088181548110612cec57600080fd5b600091825260209091200154905081565b6000805460115414158015612d1457506000601054115b15612d1f5750600190565b50600090565b612d2d613935565b6001600160a01b038116612d5757604051631e4fbdf760e01b815260006004820152602401610d29565b610f5e816139f2565b612d686133f3565b600080600754600160c01b900460ff166001811115612d8957612d8961466f565b14612db5576007546040516378030af960e11b8152610d2991600160c01b900460ff16906004016153e8565b612dbd612cfd565b15612ddb5760405163fd081cf960e01b815260040160405180910390fd5b60005460115414612ded576000546011555b86518851141580612e0057508551885114155b80612e0a57508751155b15612e285760405163a9cb9e0d60e01b815260040160405180910390fd5b6002543414612e4a5760405163356680b760e01b815260040160405180910390fd5b6008546103e811612e6e57604051633f2ad2e160e11b815260040160405180910390fd5b6000612e7a8988613e2b565b90506000816003811115612e9057612e9061466f565b148015612eae57506001836001811115612eac57612eac61466f565b145b15612eb7575060035b6000612ec58a8a8a896116be565b6000818152600960205260409020549091506001600160a01b031615612f015760405163d3df438360e01b815260048101829052602401610d29565b600081815260096020908152604090912080547fffffff00ffffffffffffffff0000000000000000000000000000000000000000163360ff60e01b1981169190911782558c519092612f5a9160018401918f019061450d565b508a51612f7090600283019060208e01906143f3565b508951612f8690600383019060208d019061456f565b5060048101612f958a82615709565b5060058101612fa48982615709565b5060068101612fb38882615709565b506000546007820155600254600882015560098101805485919060ff19166001836003811115612fe557612fe561466f565b0217905550600880546001818101835560009283527ff3f7a9fe364faab93b216da50a3214154f22a0a2b415b23a84c8169e8b636ee3909101859055600680549192909161303d9084906001600160401b0316615372565b92506101000a8154816001600160401b0302191690836001600160401b031602179055506001601060008282546130749190614643565b9250508190555082826001600160a01b03167faae8433da93a34852459abcc29a350d01261db57a269e890b08bde55d4a9774c8e8e8e8e8e8e6002546040516130c397969594939291906157c8565b60405180910390a350505050506130f960017f9b779b17422d0df92223018b32b4d1fa46e071723d6817e2486d003becc55f0055565b50505050505050565b61310a6133f3565b60008181526009602052604090205481906001600160a01b03166131445760405163986731a160e01b815260048101829052602401610d29565b61314f82600461343d565b613158826140d1565b60008281526009602081905260408220805460ff60e01b1916600360e11b1781559081015490919060ff1660038111156131945761319461466f565b0361320f57601454604051634590239b60e01b81526001600160a01b0390911690634590239b906131d8908690600186019060028701906003880190600401615917565b600060405180830381600087803b1580156131f257600080fd5b505af1158015613206573d6000803e3d6000fd5b5050505061339b565b61339b8160010180548060200260200160405190810160405280929190818152602001828054801561326a57602002820191906000526020600020905b81546001600160a01b0316815260019091019060200180831161324c575b5050505050826002018054806020026020016040519081016040528092919081815260200182805480156132bd57602002820191906000526020600020905b8154815260200190600101908083116132a9575b505050505083600301805480602002602001604051908101604052809291908181526020016000905b828210156133925783829060005260206000200180546133059061533e565b80601f01602080910402602001604051908101604052809291908181526020018280546133319061533e565b801561337e5780601f106133535761010080835404028352916020019161337e565b820191906000526020600020905b81548152906001019060200180831161336157829003601f168201915b5050505050815260200190600101906132e6565b5050505061416f565b604051839033907f7bfd03e44f31b1867e10c41d419cd8073b4719d321ccc5c3a3c79ac2babab3c390600090a35050610f5e60017f9b779b17422d0df92223018b32b4d1fa46e071723d6817e2486d003becc55f0055565b7f9b779b17422d0df92223018b32b4d1fa46e071723d6817e2486d003becc55f0080546001190161343757604051633ee5aeb560e01b815260040160405180910390fd5b60029055565b600061344883612802565b6040015190508160068111156134605761346061466f565b8160068111156134725761347261466f565b1461349457828160405163605cfad560e01b8152600401610d299291906153d4565b505050565b60408051608080820183526000808352602080840182905283850182905260608085018390528783526009825285832054865194850187528385529184018390529483018290529382018190529192600160a01b90046001600160401b03169161350286611c97565b905060005b81518110156136b9576000828281518110613524576135246154ca565b602002602001015190506000871561356957506001600160401b0385166000908152600d602090815260408083206001600160a01b03851684529091529020546135da565b600554604051632933f0eb60e11b81526001600160a01b03848116600483015290911690635267e1d690602401602060405180830381865afa1580156135b3573d6000803e3d6000fd5b505050506040513d601f19601f820116820180604052508101906135d791906159b2565b90505b6000898152600c602090815260408083206001600160a01b0386168452909152902054600160401b900460ff16600181600181111561361b5761361b61466f565b0361365b576001866000018181516136339190615372565b6001600160401b0316905250604086018051839190613653908390614643565b9052506136ab565b600081600181111561366f5761366f61466f565b036136ab576001866020018181516136879190615372565b6001600160401b03169052506060860180518391906136a7908390614643565b9052505b505050806001019050613507565b509095945050505050565b6000826001600160a01b03168260405160006040518083038185875af1925050503d8060008114613711576040519150601f19603f3d011682016040523d82523d6000602084013e613716565b606091505b5050905080613494576040516317e3057d60e31b81523060048201526001600160a01b038416602482015260448101839052606401610d29565b60017f9b779b17422d0df92223018b32b4d1fa46e071723d6817e2486d003becc55f0055565b60055460405163f6c5786160e01b81526001600160a01b038381166004830152600092169063f6c5786190602401602060405180830381865afa1580156137c1573d6000803e3d6000fd5b505050506040513d601f19601f82011682018060405250810190611cb19190615529565b6137f083600261343d565b6000838152600f602052604090206138089085613e09565b15613838576040516304f9da6360e01b8152600481018490526001600160a01b0385166024820152604401610d29565b600754600160801b90046001600160401b03166000908152600e602052604090206138639085614295565b506000838152600f6020526040902061387c9085614295565b506040518060600160405280426001600160401b031681526020018360018111156138a9576138a961466f565b815260209081018390526000858152600c825260408082206001600160a01b038916835283529020825181546001600160401b0390911667ffffffffffffffff19821681178355928401519192839168ffffffffffffffffff191617600160401b83600181111561391c5761391c61466f565b0217905550604082015160018201906130f99082615709565b336139677f9016d09d72d40fdae2fd8ceac6b6234c7706214fd39c1cd1e609a0528c199300546001600160a01b031690565b6001600160a01b0316146115155760405163118cdaa760e01b8152336004820152602401610d29565b60008060ff196139c160017fdace3fd3d1fbdfd33853f19ba191d28c617e373ec58fc73cf7b58db5aff2c2ab615392565b6040516020016139d391815260200190565b60408051601f1981840301815291905280516020909101201692915050565b7f9016d09d72d40fdae2fd8ceac6b6234c7706214fd39c1cd1e609a0528c199300805473ffffffffffffffffffffffffffffffffffffffff1981166001600160a01b03848116918217845560405192169182907f8be0079c531659141344cd1fd0a4f28419497f9722a3daafe3b4186f6b6457e090600090a3505050565b613a786142aa565b610f5e816142f3565b613a896142aa565b6115156142fb565b613a996142aa565b6000613aa3613990565b6040805180820182526001600160e01b0319868116825260208083018781529189166000908152858252939093208251815463ffffffff191660e09190911c1781559051805194955091939092613b019260018501929101906143f3565b509050507f3665bf9cd0ba4ddceeec259e21dcf8a4510f3b1130bd42e950828e69d85408ba848484604051613b38939291906159cb565b60405180910390a150505050565b6060600061220183614303565b6001600160401b0381166000908152600e60205260408120613b7490613b46565b905060005b8151811015613c51576000828281518110613b9657613b966154ca565b6020908102919091010151600554604051632933f0eb60e11b81526001600160a01b03808416600483015292935060009290911690635267e1d690602401602060405180830381865afa158015613bf1573d6000803e3d6000fd5b505050506040513d601f19601f82011682018060405250810190613c1591906159b2565b6001600160401b0386166000908152600d602090815260408083206001600160a01b039096168352949052929092209190915550600101613b79565b50600560009054906101000a90046001600160a01b03166001600160a01b031663567e98f96040518163ffffffff1660e01b8152600401602060405180830381865afa158015613ca5573d6000803e3d6000fd5b505050506040513d601f19601f82011682018060405250810190613cc991906159b2565b6001600160401b0390921660009081526012602052604090209190915550565b6000611cb1825490565b600080613d018360036154b3565b90508084606001516006613d1591906154b3565b613d1f9190614643565b6040850151613d2f9060066154b3565b1015949350505050565b600080613d018360026154b3565b60408051600481526024810182526020810180516001600160e01b03166001600160e01b03198516179052905160009190829081903090613d899085906159f8565b600060405180830381855afa9150503d8060008114613dc4576040519150601f19603f3d011682016040523d82523d6000602084013e613dc9565b606091505b509150915081613dec57604051635fbab09b60e11b815260040160405180910390fd5b80806020019051810190613e0091906159b2565b95945050505050565b6001600160a01b03811660009081526001830160205260408120541515612201565b6000805b82518110156140ca57828181518110613e4a57613e4a6154ca565b602002602001015151600003156140c257600080613e8a858481518110613e7357613e736154ca565b602002602001015160208101516024909101519091565b91509150600080878581518110613ea357613ea36154ca565b60200260200101516001600160a01b0316888681518110613ec657613ec66154ca565b5050604080516001600160e01b0319871660248083019190915282518083039091018152604490910182526020810180516001600160e01b0316635f9a47c360e11b1790529051613f1791906159f8565b600060405180830381855afa9150503d8060008114613f52576040519150601f19603f3d011682016040523d82523d6000602084013e613f57565b606091505b5091509150818015613f6a575060008151115b156140af57600081806020019051810190613f859190615a14565b9050600a60008a8881518110613f9d57613f9d6154ca565b6020908102919091018101516001600160a01b031682528101919091526040016000205460ff168015613fd557506000816020015151115b1561409a5760029650888681518110613ff057613ff06154ca565b602090810291909101015160405163ba08d23760e01b81526001600160e01b031987166004820152602481018690526001600160a01b039091169063ba08d23790604401602060405180830381865afa158015614051573d6000803e3d6000fd5b505050506040513d601f19601f820116820180604052508101906140759190615529565b614095576040516373330d9b60e01b815260048101859052602401610d29565b6140a9565b60019650505050505050611cb1565b506140bd565b600195505050505050611cb1565b505050505b600101613e2f565b5092915050565b60006140dc82612802565b905060005481610120015160016140f39190614643565b1461411457604051631902d7cf60e01b815260048101839052602401610d29565b6001816101600151600381111561412d5761412d61466f565b148015614144575080516001600160a01b03163314155b1561416b57604051636d0e083b60e11b815260048101839052336024820152604401610d29565b5050565b60005b835181101561428f57600082828151811061418f5761418f6154ca565b6020026020010151516000146141a65760006141c1565b8382815181106141b8576141b86154ca565b60200260200101515b90506000808684815181106141d8576141d86154ca565b60200260200101516001600160a01b0316838686815181106141fc576141fc6154ca565b602002602001015160405161421191906159f8565b60006040518083038185875af1925050503d806000811461424e576040519150601f19603f3d011682016040523d82523d6000602084013e614253565b606091505b5091509150614262828261435f565b50821561428157826003600082825461427b9190615392565b90915550505b505050806001019050614172565b50505050565b6000612201836001600160a01b03841661437b565b7ff0c57e16840df040f15088dc2f81fe391c3923bec73e23a9662efc9c229c6a0054600160401b900460ff1661151557604051631afcd79f60e31b815260040160405180910390fd5b612d2d6142aa565b6137506142aa565b60608160000180548060200260200160405190810160405280929190818152602001828054801561435357602002820191906000526020600020905b81548152602001906001019080831161433f575b50505050509050919050565b6060826143745761436f826143ca565b611cb1565b5080611cb1565b60008181526001830160205260408120546143c257508154600181810184556000848152602080822090930184905584548482528286019093526040902091909155611cb1565b506000611cb1565b8051156143da5780518082602001fd5b604051630a12f52160e11b815260040160405180910390fd5b82805482825590600052602060002090810192821561442e579160200282015b8281111561442e578251825591602001919060010190614413565b5061443a9291506145c1565b5090565b5080546000825590600052602060002090810190610f5e91906145c1565b82805482825590600052602060002090810192821561442e5760005260206000209182015b8281111561442e578254825591600101919060010190614481565b6040805161018081018252600080825260208201819052909182019081526020016060815260200160608152602001606081526020016060815260200160608152602001606081526020016000815260200160008152602001600060038111156145085761450861466f565b905290565b82805482825590600052602060002090810192821561442e579160200282015b8281111561442e578251825473ffffffffffffffffffffffffffffffffffffffff19166001600160a01b0390911617825560209092019160019091019061452d565b8280548282559060005260206000209081019282156145b5579160200282015b828111156145b557825182906145a59082615709565b509160200191906001019061458f565b5061443a9291506145d6565b5b8082111561443a57600081556001016145c2565b8082111561443a5760006145ea82826145f3565b506001016145d6565b5080546145ff9061533e565b6000825580601f1061460f575050565b601f016020900490600052602060002090810190610f5e91906145c1565b634e487b7160e01b600052601160045260246000fd5b80820180821115611cb157611cb161462d565b60006020828403121561466857600080fd5b5035919050565b634e487b7160e01b600052602160045260246000fd5b600781106146955761469561466f565b9052565b60005b838110156146b457818101518382015260200161469c565b50506000910152565b600081518084526146d5816020860160208601614699565b601f01601f19169290920160200192915050565b600481106146955761469561466f565b60006101206001600160a01b038c1683526001600160401b038b166020840152614726604084018b614685565b8060608401526147388184018a6146bd565b9050828103608084015261474c81896146bd565b905082810360a084015261476081886146bd565b9150508460c08301528360e083015261477d6101008301846146e9565b9a9950505050505050505050565b60008083601f84011261479d57600080fd5b5081356001600160401b038111156147b457600080fd5b6020830191508360208285010111156147cc57600080fd5b9250929050565b6000806000604084860312156147e857600080fd5b8335925060208401356001600160401b0381111561480557600080fd5b6148118682870161478b565b9497909650939450505050565b60808101611cb182846001600160401b038082511683528060208301511660208401525060408101516040830152606081015160608301525050565b60028110610f5e57600080fd5b80356148728161485a565b919050565b6000806000806060858703121561488d57600080fd5b84359350602085013561489f8161485a565b925060408501356001600160401b038111156148ba57600080fd5b6148c68782880161478b565b95989497509550505050565b6001600160e01b031981168114610f5e57600080fd5b600080600080606085870312156148fe57600080fd5b8435614909816148d2565b93506020850135614919816148d2565b925060408501356001600160401b038082111561493557600080fd5b818701915087601f83011261494957600080fd5b81358181111561495857600080fd5b8860208260051b850101111561496d57600080fd5b95989497505060200194505050565b80356001600160a01b038116811461487257600080fd5b8015158114610f5e57600080fd5b600080604083850312156149b457600080fd5b6149bd8361497c565b915060208301356149cd81614993565b809150509250929050565b600080604083850312156149eb57600080fd5b50508035926020909101359150565b60008060408385031215614a0d57600080fd5b82359150614a1d6020840161497c565b90509250929050565b600060208284031215614a3857600080fd5b8135612201816148d2565b60008060408385031215614a5657600080fd5b8235915060208301356149cd8161485a565b634e487b7160e01b600052604160045260246000fd5b604080519081016001600160401b0381118282101715614aa057614aa0614a68565b60405290565b604051601f8201601f191681016001600160401b0381118282101715614ace57614ace614a68565b604052919050565b60006001600160401b03821115614aef57614aef614a68565b5060051b60200190565b600082601f830112614b0a57600080fd5b81356020614b1f614b1a83614ad6565b614aa6565b8083825260208201915060208460051b870101935086841115614b4157600080fd5b602086015b84811015614b6457614b578161497c565b8352918301918301614b46565b509695505050505050565b600082601f830112614b8057600080fd5b81356020614b90614b1a83614ad6565b8083825260208201915060208460051b870101935086841115614bb257600080fd5b602086015b84811015614b645780358352918301918301614bb7565b60006001600160401b03831115614be757614be7614a68565b614bfa601f8401601f1916602001614aa6565b9050828152838383011115614c0e57600080fd5b828260208301376000602084830101529392505050565b600082601f830112614c3657600080fd5b81356020614c46614b1a83614ad6565b82815260059290921b84018101918181019086841115614c6557600080fd5b8286015b84811015614b645780356001600160401b03811115614c885760008081fd5b8701603f81018913614c9a5760008081fd5b614cab898683013560408401614bce565b845250918301918301614c69565b600082601f830112614cca57600080fd5b61220183833560208501614bce565b60008060008060808587031215614cef57600080fd5b84356001600160401b0380821115614d0657600080fd5b614d1288838901614af9565b95506020870135915080821115614d2857600080fd5b614d3488838901614b6f565b94506040870135915080821115614d4a57600080fd5b614d5688838901614c25565b93506060870135915080821115614d6c57600080fd5b50614d7987828801614cb9565b91505092959194509250565b60008151808452602080850194506020840160005b83811015614db657815187529582019590820190600101614d9a565b509495945050505050565b6020815260006122016020830184614d85565b80356001600160401b038116811461487257600080fd5b60008060008060008060008060006101208a8c031215614e0a57600080fd5b614e138a61497c565b9850614e2160208b0161497c565b9750614e2f60408b0161497c565b9650614e3d60608b0161497c565b9550614e4b60808b0161497c565b9450614e5960a08b0161497c565b9350614e6760c08b0161497c565b925060e08a01359150614e7d6101008b01614dd4565b90509295985092959850929598565b60008151808452602080850194506020840160005b83811015614db65781516001600160a01b031687529582019590820190600101614ea1565b6020815260006122016020830184614e8c565b600080600083850360c0811215614eef57600080fd5b84359350602085013560048110614f0557600080fd5b92506080603f1982011215614f1957600080fd5b50604051608081018181106001600160401b0382111715614f3c57614f3c614a68565b8060405250614f4d60408601614dd4565b8152614f5b60608601614dd4565b60208201526080850135604082015260a0909401356060850152509093909250565b60028110610f5e57610f5e61466f565b6001600160401b03858116825284811660208301528316604082015260808101614fb683614f7d565b82606083015295945050505050565b600060208284031215614fd757600080fd5b81356001600160401b03811115614fed57600080fd5b614ff984828501614cb9565b949350505050565b602080825282516001600160e01b03191682820152820151604080830152600090614ff96060840182614d85565b6000806040838503121561504257600080fd5b823561504d816148d2565b946020939093013593505050565b60008282518085526020808601955060208260051b8401016020860160005b848110156150a857601f198684030189526150968383516146bd565b9884019892509083019060010161507a565b5090979650505050505050565b602081526150cf6020820183516001600160a01b03169052565b600060208301516150eb60408401826001600160401b03169052565b5060408301516150fe6060840182614685565b50606083015161018080608085015261511b6101a0850183614e8c565b91506080850151601f19808685030160a08701526151398483614d85565b935060a08701519150808685030160c0870152615156848361505b565b935060c08701519150808685030160e087015261517384836146bd565b935060e0870151915061010081878603018188015261519285846146bd565b9450808801519250506101208187860301818801526151b185846146bd565b90880151610140888101919091528801516101608089019190915288015190945091506151e29050828601826146e9565b5090949350505050565b6000602082840312156151fe57600080fd5b6122018261497c565b6001600160401b038416815261521c83614f7d565b826020820152606060408201526000613e0060608301846146bd565b600080600080600080600060e0888a03121561525357600080fd5b87356001600160401b038082111561526a57600080fd5b6152768b838c01614af9565b985060208a013591508082111561528c57600080fd5b6152988b838c01614b6f565b975060408a01359150808211156152ae57600080fd5b6152ba8b838c01614c25565b965060608a01359150808211156152d057600080fd5b6152dc8b838c01614cb9565b955060808a01359150808211156152f257600080fd5b6152fe8b838c01614cb9565b945060a08a013591508082111561531457600080fd5b506153218a828b01614cb9565b92505061533060c08901614867565b905092959891949750929550565b600181811c9082168061535257607f821691505b60208210810361121257634e487b7160e01b600052602260045260246000fd5b6001600160401b038181168382160190808211156140ca576140ca61462d565b81810381811115611cb157611cb161462d565b60208152816020820152818360408301376000818301604090810191909152601f909201601f19160101919050565b828152604081016122016020830184614685565b602081016153f583614f7d565b91905290565b6001600160e01b0319858116825284166020820152606060408201819052810182905260007f07ffffffffffffffffffffffffffffffffffffffffffffffffffffffffffffff83111561544d57600080fd5b8260051b808560808501379190910160800195945050505050565b60808152600061547b6080830187614e8c565b828103602084015261548d8187614d85565b905082810360408401526154a1818661505b565b91505082606083015295945050505050565b8082028115828204841417611cb157611cb161462d565b634e487b7160e01b600052603260045260246000fd5b60a0810161551c82856001600160401b038082511683528060208301511660208401525060408101516040830152606081015160608301525050565b8260808301529392505050565b60006020828403121561553b57600080fd5b815161220181614993565b8183823760009101908152919050565b60008083546155648161533e565b6001828116801561557c5760018114615591576155c0565b60ff19841687528215158302870194506155c0565b8760005260208060002060005b858110156155b75781548a82015290840190820161559e565b50505082870194505b50929695505050505050565b8381526001600160a01b0383166020820152606081016155eb83614f7d565b826040830152949350505050565b601f821115613494576000816000526020600020601f850160051c810160208610156156225750805b601f850160051c820191505b818110156156415782815560010161562e565b505050505050565b6001600160401b0383111561566057615660614a68565b6156748361566e835461533e565b836155f9565b6000601f8411600181146156a857600085156156905750838201355b600019600387901b1c1916600186901b178355615702565b600083815260209020601f19861690835b828110156156d957868501358255602094850194600190920191016156b9565b50868210156156f65760001960f88860031b161c19848701351681555b505060018560011b0183555b5050505050565b81516001600160401b0381111561572257615722614a68565b61573681615730845461533e565b846155f9565b602080601f83116001811461576b57600084156157535750858301515b600019600386901b1c1916600185901b178555615641565b600085815260208120601f198616915b8281101561579a5788860151825594840194600190910190840161577b565b50858210156157b85787850151600019600388901b60f8161c191681555b5050505050600190811b01905550565b60e0815260006157db60e083018a614e8c565b82810360208401526157ed818a614d85565b90508281036040840152615801818961505b565b9050828103606084015261581581886146bd565b9050828103608084015261582981876146bd565b905082810360a084015261583d81866146bd565b9150508260c083015298975050505050505050565b6000828254808552602080860195506005818360051b8501016000878152838120815b8681101561590857601f19888503018b528282546158928161533e565b808752600182811680156158ad57600181146158c6576158f1565b60ff198416898c01528215158a1b89018b0194506158f1565b8688528a8820885b848110156158e95781548b82018e0152908301908c016158ce565b8a018c019550505b509d89019d92965050509190910190600101615875565b50919998505050505050505050565b600060808201868352602060808185015281875480845260a08601915060009350888452828420845b828110156159655781546001600160a01b031684529284019260019182019101615940565b50505084810360408601528654808252878452828420918301905b8085101561599f57825482526001948501949092019190830190615980565b50858103606087015261477d8188615852565b6000602082840312156159c457600080fd5b5051919050565b6001600160e01b0319848116825283166020820152606060408201819052600090613e0090830184614d85565b60008251615a0a818460208701614699565b9190910192915050565b60006020808385031215615a2757600080fd5b82516001600160401b0380821115615a3e57600080fd5b9084019060408287031215615a5257600080fd5b615a5a614a7e565b8251615a65816148d2565b81528284015182811115615a7857600080fd5b80840193505086601f840112615a8d57600080fd5b82519150615a9d614b1a83614ad6565b82815260059290921b83018401918481019088841115615abc57600080fd5b938501935b83851015615ada57845182529385019390850190615ac1565b94820194909452969550505050505056fea2646970667358221220dd0c9e094ddde5ffe42371de2d82f339d0cadfaf1109a77d4637da587cf1b9dc64736f6c63430008190033",
  "linkReferences": {},
  "deployedLinkReferences": {}
}