{
  "_format": "hh-sol-artifact-1",
  "contractName": "DiamondDao",
  "sourceName": "contracts/DiamondDao.sol",
  "abi": [
    {
      "inputs": [],
      "stateMutability": "nonpayable",
      "type": "constructor"
    },
    {
      "inputs": [
        {
          "internalType": "uint256",
          "name": "proposalId",
          "type": "uint256"
        },
        {
          "internalType": "address",
          "name": "voter",
          "type": "address"
        }
      ],
      "name": "AlreadyVoted",
      "type": "error"
    },
    {
      "inputs": [
        {
          "internalType": "bytes",
          "name": "funcSelector",
          "type": "bytes"
        },
        {
          "internalType": "address",
          "name": "targetContract",
          "type": "address"
        }
      ],
      "name": "ContractCallFailed",
      "type": "error"
    },
    {
      "inputs": [],
      "name": "FailedInnerCall",
      "type": "error"
    },
    {
      "inputs": [],
      "name": "GetterCallFailed",
      "type": "error"
    },
    {
      "inputs": [],
      "name": "InsufficientFunds",
      "type": "error"
    },
    {
      "inputs": [],
      "name": "InvalidArgument",
      "type": "error"
    },
    {
      "inputs": [],
      "name": "InvalidInitialization",
      "type": "error"
    },
    {
      "inputs": [],
      "name": "InvalidStartTimestamp",
      "type": "error"
    },
    {
      "inputs": [],
      "name": "NewProposalsLimitExceeded",
      "type": "error"
    },
    {
      "inputs": [
        {
          "internalType": "uint256",
          "name": "_newVal",
          "type": "uint256"
        }
      ],
      "name": "NewValueOutOfRange",
      "type": "error"
    },
    {
      "inputs": [
        {
          "internalType": "uint256",
          "name": "proposalId",
          "type": "uint256"
        },
        {
          "internalType": "address",
          "name": "voter",
          "type": "address"
        }
      ],
      "name": "NoVoteFound",
      "type": "error"
    },
    {
      "inputs": [],
      "name": "NotInitializing",
      "type": "error"
    },
    {
      "inputs": [
        {
          "internalType": "uint256",
          "name": "proposalId",
          "type": "uint256"
        },
        {
          "internalType": "address",
          "name": "caller",
          "type": "address"
        }
      ],
      "name": "NotProposer",
      "type": "error"
    },
    {
      "inputs": [],
      "name": "OnlyGovernance",
      "type": "error"
    },
    {
      "inputs": [],
      "name": "OnlyProposer",
      "type": "error"
    },
    {
      "inputs": [
        {
          "internalType": "address",
          "name": "caller",
          "type": "address"
        }
      ],
      "name": "OnlyValidators",
      "type": "error"
    },
    {
      "inputs": [
        {
          "internalType": "uint256",
          "name": "proposalId",
          "type": "uint256"
        }
      ],
      "name": "OutsideExecutionWindow",
      "type": "error"
    },
    {
      "inputs": [
        {
          "internalType": "address",
          "name": "owner",
          "type": "address"
        }
      ],
      "name": "OwnableInvalidOwner",
      "type": "error"
    },
    {
      "inputs": [
        {
          "internalType": "address",
          "name": "account",
          "type": "address"
        }
      ],
      "name": "OwnableUnauthorizedAccount",
      "type": "error"
    },
    {
      "inputs": [
        {
          "internalType": "uint256",
          "name": "proposalId",
          "type": "uint256"
        }
      ],
      "name": "ProposalAlreadyExist",
      "type": "error"
    },
    {
      "inputs": [
        {
          "internalType": "uint256",
          "name": "proposalId",
          "type": "uint256"
        }
      ],
      "name": "ProposalNotExist",
      "type": "error"
    },
    {
      "inputs": [],
      "name": "ReentrancyGuardReentrantCall",
      "type": "error"
    },
    {
      "inputs": [
        {
          "internalType": "uint256",
          "name": "proposalId",
          "type": "uint256"
        },
        {
          "internalType": "address",
          "name": "vote",
          "type": "address"
        },
        {
          "internalType": "enum Vote",
          "name": "_vote",
          "type": "uint8"
        }
      ],
      "name": "SameVote",
      "type": "error"
    },
    {
      "inputs": [
        {
          "internalType": "address",
          "name": "from",
          "type": "address"
        },
        {
          "internalType": "address",
          "name": "to",
          "type": "address"
        },
        {
          "internalType": "uint256",
          "name": "amount",
          "type": "uint256"
        }
      ],
      "name": "TransferFailed",
      "type": "error"
    },
    {
      "inputs": [
        {
          "internalType": "enum Phase",
          "name": "phase",
          "type": "uint8"
        }
      ],
      "name": "UnavailableInCurrentPhase",
      "type": "error"
    },
    {
      "inputs": [
        {
          "internalType": "uint256",
          "name": "proposalId",
          "type": "uint256"
        },
        {
          "internalType": "enum ProposalState",
          "name": "state",
          "type": "uint8"
        }
      ],
      "name": "UnexpectedProposalState",
      "type": "error"
    },
    {
      "inputs": [],
      "name": "UnfinalizedProposalsExist",
      "type": "error"
    },
    {
      "anonymous": false,
      "inputs": [
        {
          "indexed": true,
          "internalType": "address",
          "name": "voter",
          "type": "address"
        },
        {
          "indexed": true,
          "internalType": "uint256",
          "name": "proposalId",
          "type": "uint256"
        },
        {
          "indexed": true,
          "internalType": "enum Vote",
          "name": "vote",
          "type": "uint8"
        },
        {
          "indexed": false,
          "internalType": "string",
          "name": "reason",
          "type": "string"
        }
      ],
      "name": "ChangeVote",
      "type": "event"
    },
    {
      "anonymous": false,
      "inputs": [
        {
          "indexed": false,
          "internalType": "uint64",
          "name": "version",
          "type": "uint64"
        }
      ],
      "name": "Initialized",
      "type": "event"
    },
    {
      "anonymous": false,
      "inputs": [
        {
          "indexed": true,
          "internalType": "address",
          "name": "previousOwner",
          "type": "address"
        },
        {
          "indexed": true,
          "internalType": "address",
          "name": "newOwner",
          "type": "address"
        }
      ],
      "name": "OwnershipTransferred",
      "type": "event"
    },
    {
      "anonymous": false,
      "inputs": [
        {
          "indexed": true,
          "internalType": "address",
          "name": "proposer",
          "type": "address"
        },
        {
          "indexed": true,
          "internalType": "uint256",
          "name": "proposalId",
          "type": "uint256"
        },
        {
          "indexed": false,
          "internalType": "string",
          "name": "reason",
          "type": "string"
        }
      ],
      "name": "ProposalCanceled",
      "type": "event"
    },
    {
      "anonymous": false,
      "inputs": [
        {
          "indexed": true,
          "internalType": "address",
          "name": "proposer",
          "type": "address"
        },
        {
          "indexed": true,
          "internalType": "uint256",
          "name": "proposalId",
          "type": "uint256"
        },
        {
          "indexed": false,
          "internalType": "address[]",
          "name": "targets",
          "type": "address[]"
        },
        {
          "indexed": false,
          "internalType": "uint256[]",
          "name": "values",
          "type": "uint256[]"
        },
        {
          "indexed": false,
          "internalType": "bytes[]",
          "name": "calldatas",
          "type": "bytes[]"
        },
        {
          "indexed": false,
          "internalType": "string",
          "name": "title",
          "type": "string"
        },
        {
          "indexed": false,
          "internalType": "string",
          "name": "description",
          "type": "string"
        },
        {
          "indexed": false,
          "internalType": "string",
          "name": "discussionUrl",
          "type": "string"
        },
        {
          "indexed": false,
          "internalType": "uint256",
          "name": "proposalFee",
          "type": "uint256"
        }
      ],
      "name": "ProposalCreated",
      "type": "event"
    },
    {
      "anonymous": false,
      "inputs": [
        {
          "indexed": true,
          "internalType": "address",
          "name": "caller",
          "type": "address"
        },
        {
          "indexed": true,
          "internalType": "uint256",
          "name": "proposalId",
          "type": "uint256"
        }
      ],
      "name": "ProposalExecuted",
      "type": "event"
    },
    {
      "anonymous": false,
      "inputs": [
        {
          "indexed": false,
          "internalType": "bytes4",
          "name": "funcSelector",
          "type": "bytes4"
        }
      ],
      "name": "RemoveChangeableParameter",
      "type": "event"
    },
    {
      "anonymous": false,
      "inputs": [
        {
          "indexed": true,
          "internalType": "bool",
          "name": "allowed",
          "type": "bool"
        },
        {
          "indexed": false,
          "internalType": "string",
          "name": "setter",
          "type": "string"
        },
        {
          "indexed": false,
          "internalType": "string",
          "name": "getter",
          "type": "string"
        },
        {
          "indexed": false,
          "internalType": "uint256[]",
          "name": "params",
          "type": "uint256[]"
        }
      ],
      "name": "SetChangeAbleParameters",
      "type": "event"
    },
    {
      "anonymous": false,
      "inputs": [
        {
          "indexed": false,
          "internalType": "bytes4",
          "name": "setter",
          "type": "bytes4"
        },
        {
          "indexed": false,
          "internalType": "bytes4",
          "name": "getter",
          "type": "bytes4"
        },
        {
          "indexed": false,
          "internalType": "uint256[]",
          "name": "params",
          "type": "uint256[]"
        }
      ],
      "name": "SetChangeableParameter",
      "type": "event"
    },
    {
      "anonymous": false,
      "inputs": [
        {
          "indexed": true,
          "internalType": "uint256",
          "name": "fee",
          "type": "uint256"
        }
      ],
      "name": "SetCreateProposalFee",
      "type": "event"
    },
    {
      "anonymous": false,
      "inputs": [
        {
          "indexed": true,
          "internalType": "address",
          "name": "contractAddress",
          "type": "address"
        },
        {
          "indexed": true,
          "internalType": "bool",
          "name": "isCore",
          "type": "bool"
        }
      ],
      "name": "SetIsCoreContract",
      "type": "event"
    },
    {
      "anonymous": false,
      "inputs": [
        {
          "indexed": true,
          "internalType": "address",
          "name": "voter",
          "type": "address"
        },
        {
          "indexed": true,
          "internalType": "uint256",
          "name": "proposalId",
          "type": "uint256"
        },
        {
          "indexed": true,
          "internalType": "enum Vote",
          "name": "vote",
          "type": "uint8"
        }
      ],
      "name": "SubmitVote",
      "type": "event"
    },
    {
      "anonymous": false,
      "inputs": [
        {
          "indexed": true,
          "internalType": "address",
          "name": "voter",
          "type": "address"
        },
        {
          "indexed": true,
          "internalType": "uint256",
          "name": "proposalId",
          "type": "uint256"
        },
        {
          "indexed": true,
          "internalType": "enum Vote",
          "name": "vote",
          "type": "uint8"
        },
        {
          "indexed": false,
          "internalType": "string",
          "name": "reason",
          "type": "string"
        }
      ],
      "name": "SubmitVoteWithReason",
      "type": "event"
    },
    {
      "anonymous": false,
      "inputs": [
        {
          "indexed": true,
          "internalType": "enum Phase",
          "name": "phase",
          "type": "uint8"
        },
        {
          "indexed": true,
          "internalType": "uint256",
          "name": "start",
          "type": "uint256"
        },
        {
          "indexed": true,
          "internalType": "uint256",
          "name": "end",
          "type": "uint256"
        }
      ],
      "name": "SwitchDaoPhase",
      "type": "event"
    },
    {
      "anonymous": false,
      "inputs": [
        {
          "indexed": true,
          "internalType": "address",
          "name": "caller",
          "type": "address"
        },
        {
          "indexed": true,
          "internalType": "uint256",
          "name": "proposalId",
          "type": "uint256"
        },
        {
          "indexed": true,
          "internalType": "bool",
          "name": "accepted",
          "type": "bool"
        }
      ],
      "name": "VotingFinalized",
      "type": "event"
    },
    {
      "inputs": [],
      "name": "DAO_PHASE_DURATION",
      "outputs": [
        {
          "internalType": "uint64",
          "name": "",
          "type": "uint64"
        }
      ],
      "stateMutability": "view",
      "type": "function"
    },
    {
      "inputs": [],
      "name": "MAX_NEW_PROPOSALS",
      "outputs": [
        {
          "internalType": "uint256",
          "name": "",
          "type": "uint256"
        }
      ],
      "stateMutability": "view",
      "type": "function"
    },
    {
      "inputs": [
        {
          "internalType": "uint256",
          "name": "proposalId",
          "type": "uint256"
        },
        {
          "internalType": "string",
          "name": "reason",
          "type": "string"
        }
      ],
      "name": "cancel",
      "outputs": [],
      "stateMutability": "nonpayable",
      "type": "function"
    },
    {
      "inputs": [
        {
          "internalType": "uint256",
          "name": "proposalId",
          "type": "uint256"
        },
        {
          "internalType": "enum Vote",
          "name": "_vote",
          "type": "uint8"
        },
        {
          "internalType": "string",
          "name": "reason",
          "type": "string"
        }
      ],
      "name": "changeVote",
      "outputs": [],
      "stateMutability": "nonpayable",
      "type": "function"
    },
    {
      "inputs": [
        {
          "internalType": "uint256",
          "name": "proposalId",
          "type": "uint256"
        }
      ],
      "name": "countVotes",
      "outputs": [
        {
          "components": [
            {
              "internalType": "uint64",
              "name": "countYes",
              "type": "uint64"
            },
            {
              "internalType": "uint64",
              "name": "countNo",
              "type": "uint64"
            },
            {
              "internalType": "uint256",
              "name": "stakeYes",
              "type": "uint256"
            },
            {
              "internalType": "uint256",
              "name": "stakeNo",
              "type": "uint256"
            }
          ],
          "internalType": "struct VotingResult",
          "name": "",
          "type": "tuple"
        }
      ],
      "stateMutability": "view",
      "type": "function"
    },
    {
      "inputs": [],
      "name": "createProposalFee",
      "outputs": [
        {
          "internalType": "uint256",
          "name": "",
          "type": "uint256"
        }
      ],
      "stateMutability": "view",
      "type": "function"
    },
    {
      "inputs": [
        {
          "internalType": "uint256",
          "name": "",
          "type": "uint256"
        }
      ],
      "name": "currentPhaseProposals",
      "outputs": [
        {
          "internalType": "uint256",
          "name": "",
          "type": "uint256"
        }
      ],
      "stateMutability": "view",
      "type": "function"
    },
    {
      "inputs": [
        {
          "internalType": "uint256",
          "name": "",
          "type": "uint256"
        },
        {
          "internalType": "address",
          "name": "",
          "type": "address"
        }
      ],
      "name": "daoEpochStakeSnapshot",
      "outputs": [
        {
          "internalType": "uint256",
          "name": "",
          "type": "uint256"
        }
      ],
      "stateMutability": "view",
      "type": "function"
    },
    {
      "inputs": [
        {
          "internalType": "uint256",
          "name": "",
          "type": "uint256"
        }
      ],
      "name": "daoEpochTotalStakeSnapshot",
      "outputs": [
        {
          "internalType": "uint256",
          "name": "",
          "type": "uint256"
        }
      ],
      "stateMutability": "view",
      "type": "function"
    },
    {
      "inputs": [],
      "name": "daoPhase",
      "outputs": [
        {
          "internalType": "uint64",
          "name": "start",
          "type": "uint64"
        },
        {
          "internalType": "uint64",
          "name": "end",
          "type": "uint64"
        },
        {
          "internalType": "uint64",
          "name": "daoEpoch",
          "type": "uint64"
        },
        {
          "internalType": "enum Phase",
          "name": "phase",
          "type": "uint8"
        }
      ],
      "stateMutability": "view",
      "type": "function"
    },
    {
      "inputs": [],
      "name": "daoPhaseCount",
      "outputs": [
        {
          "internalType": "uint256",
          "name": "",
          "type": "uint256"
        }
      ],
      "stateMutability": "view",
      "type": "function"
    },
    {
      "inputs": [
        {
          "internalType": "uint256",
          "name": "",
          "type": "uint256"
        },
        {
          "internalType": "uint256",
          "name": "",
          "type": "uint256"
        }
      ],
      "name": "daoPhaseProposals",
      "outputs": [
        {
          "internalType": "uint256",
          "name": "",
          "type": "uint256"
        }
      ],
      "stateMutability": "view",
      "type": "function"
    },
    {
      "inputs": [
        {
          "internalType": "uint256",
          "name": "proposalId",
          "type": "uint256"
        }
      ],
      "name": "execute",
      "outputs": [],
      "stateMutability": "nonpayable",
      "type": "function"
    },
    {
      "inputs": [
        {
          "internalType": "uint256",
          "name": "proposalId",
          "type": "uint256"
        }
      ],
      "name": "finalize",
      "outputs": [],
      "stateMutability": "nonpayable",
      "type": "function"
    },
    {
      "inputs": [
        {
          "internalType": "string",
          "name": "_selector",
          "type": "string"
        }
      ],
      "name": "getAllowedParamsRange",
      "outputs": [
        {
          "components": [
            {
              "internalType": "bytes4",
              "name": "getter",
              "type": "bytes4"
            },
            {
              "internalType": "uint256[]",
              "name": "range",
              "type": "uint256[]"
            }
          ],
          "internalType": "struct ValueGuards.ParameterRange",
          "name": "",
          "type": "tuple"
        }
      ],
      "stateMutability": "view",
      "type": "function"
    },
    {
      "inputs": [
        {
          "internalType": "bytes4",
          "name": "_selector",
          "type": "bytes4"
        }
      ],
      "name": "getAllowedParamsRangeWithSelector",
      "outputs": [
        {
          "components": [
            {
              "internalType": "bytes4",
              "name": "getter",
              "type": "bytes4"
            },
            {
              "internalType": "uint256[]",
              "name": "range",
              "type": "uint256[]"
            }
          ],
          "internalType": "struct ValueGuards.ParameterRange",
          "name": "",
          "type": "tuple"
        }
      ],
      "stateMutability": "view",
      "type": "function"
    },
    {
      "inputs": [],
      "name": "getCurrentPhaseProposals",
      "outputs": [
        {
          "internalType": "uint256[]",
          "name": "",
          "type": "uint256[]"
        }
      ],
      "stateMutability": "view",
      "type": "function"
    },
    {
      "inputs": [
        {
          "internalType": "uint256",
          "name": "proposalId",
          "type": "uint256"
        }
      ],
      "name": "getProposal",
      "outputs": [
        {
          "components": [
            {
              "internalType": "address",
              "name": "proposer",
              "type": "address"
            },
            {
              "internalType": "uint64",
              "name": "votingDaoEpoch",
              "type": "uint64"
            },
            {
              "internalType": "enum ProposalState",
              "name": "state",
              "type": "uint8"
            },
            {
              "internalType": "address[]",
              "name": "targets",
              "type": "address[]"
            },
            {
              "internalType": "uint256[]",
              "name": "values",
              "type": "uint256[]"
            },
            {
              "internalType": "bytes[]",
              "name": "calldatas",
              "type": "bytes[]"
            },
            {
              "internalType": "string",
              "name": "title",
              "type": "string"
            },
            {
              "internalType": "string",
              "name": "description",
              "type": "string"
            },
            {
              "internalType": "string",
              "name": "discussionUrl",
              "type": "string"
            },
            {
              "internalType": "uint256",
              "name": "daoPhaseCount",
              "type": "uint256"
            },
            {
              "internalType": "uint256",
              "name": "proposalFee",
              "type": "uint256"
            },
            {
              "internalType": "enum ProposalType",
              "name": "proposalType",
              "type": "uint8"
            }
          ],
          "internalType": "struct Proposal",
          "name": "",
          "type": "tuple"
        }
      ],
      "stateMutability": "view",
      "type": "function"
    },
    {
      "inputs": [
        {
          "internalType": "uint256",
          "name": "proposalId",
          "type": "uint256"
        }
      ],
      "name": "getProposalVoters",
      "outputs": [
        {
          "internalType": "address[]",
          "name": "",
          "type": "address[]"
        }
      ],
      "stateMutability": "view",
      "type": "function"
    },
    {
      "inputs": [
        {
          "internalType": "uint256",
          "name": "proposalId",
          "type": "uint256"
        }
      ],
      "name": "getProposalVotersCount",
      "outputs": [
        {
          "internalType": "uint256",
          "name": "",
          "type": "uint256"
        }
      ],
      "stateMutability": "view",
      "type": "function"
    },
    {
      "inputs": [],
      "name": "governancePot",
      "outputs": [
        {
          "internalType": "uint256",
          "name": "",
          "type": "uint256"
        }
      ],
      "stateMutability": "view",
      "type": "function"
    },
    {
      "inputs": [
        {
          "internalType": "address[]",
          "name": "targets",
          "type": "address[]"
        },
        {
          "internalType": "uint256[]",
          "name": "values",
          "type": "uint256[]"
        },
        {
          "internalType": "bytes[]",
          "name": "calldatas",
          "type": "bytes[]"
        },
        {
          "internalType": "string",
          "name": "description",
          "type": "string"
        }
      ],
      "name": "hashProposal",
      "outputs": [
        {
          "internalType": "uint256",
          "name": "",
          "type": "uint256"
        }
      ],
      "stateMutability": "pure",
      "type": "function"
    },
    {
      "inputs": [
        {
          "internalType": "address",
          "name": "_contractOwner",
          "type": "address"
        },
        {
          "internalType": "address",
          "name": "_validatorSet",
          "type": "address"
        },
        {
          "internalType": "address",
          "name": "_stakingHbbft",
          "type": "address"
        },
        {
          "internalType": "address",
          "name": "_reinsertPot",
          "type": "address"
        },
        {
          "internalType": "address",
          "name": "_txPermission",
          "type": "address"
        },
        {
          "internalType": "address",
          "name": "_lowMajorityDao",
          "type": "address"
        },
        {
          "internalType": "uint256",
          "name": "_createProposalFee",
          "type": "uint256"
        },
        {
          "internalType": "uint64",
          "name": "_startTimestamp",
          "type": "uint64"
        }
      ],
      "name": "initialize",
      "outputs": [],
      "stateMutability": "nonpayable",
      "type": "function"
    },
    {
      "inputs": [
        {
          "internalType": "address",
          "name": "_lowMajorityDao",
          "type": "address"
        }
      ],
      "name": "initializeV2",
      "outputs": [],
      "stateMutability": "nonpayable",
      "type": "function"
    },
    {
      "inputs": [
        {
          "internalType": "address",
          "name": "",
          "type": "address"
        }
      ],
      "name": "isCoreContract",
      "outputs": [
        {
          "internalType": "bool",
          "name": "",
          "type": "bool"
        }
      ],
      "stateMutability": "view",
      "type": "function"
    },
    {
      "inputs": [
        {
          "internalType": "bytes4",
          "name": "funcSelector",
          "type": "bytes4"
        },
        {
          "internalType": "uint256",
          "name": "newVal",
          "type": "uint256"
        }
      ],
      "name": "isWithinAllowedRange",
      "outputs": [
        {
          "internalType": "bool",
          "name": "",
          "type": "bool"
        }
      ],
      "stateMutability": "view",
      "type": "function"
    },
    {
      "inputs": [],
      "name": "lastDaoPhaseCount",
      "outputs": [
        {
          "internalType": "uint256",
          "name": "",
          "type": "uint256"
        }
      ],
      "stateMutability": "view",
      "type": "function"
    },
    {
      "inputs": [],
      "name": "lowMajorityDao",
      "outputs": [
        {
          "internalType": "contract IDiamondDaoLowMajority",
          "name": "",
          "type": "address"
        }
      ],
      "stateMutability": "view",
      "type": "function"
    },
    {
      "inputs": [],
      "name": "owner",
      "outputs": [
        {
          "internalType": "address",
          "name": "",
          "type": "address"
        }
      ],
      "stateMutability": "view",
      "type": "function"
    },
    {
      "inputs": [
        {
          "internalType": "uint256",
          "name": "proposalId",
          "type": "uint256"
        }
      ],
      "name": "proposalExists",
      "outputs": [
        {
          "internalType": "bool",
          "name": "",
          "type": "bool"
        }
      ],
      "stateMutability": "view",
      "type": "function"
    },
    {
      "inputs": [
        {
          "internalType": "uint256",
          "name": "",
          "type": "uint256"
        }
      ],
      "name": "proposals",
      "outputs": [
        {
          "internalType": "address",
          "name": "proposer",
          "type": "address"
        },
        {
          "internalType": "uint64",
          "name": "votingDaoEpoch",
          "type": "uint64"
        },
        {
          "internalType": "enum ProposalState",
          "name": "state",
          "type": "uint8"
        },
        {
          "internalType": "string",
          "name": "title",
          "type": "string"
        },
        {
          "internalType": "string",
          "name": "description",
          "type": "string"
        },
        {
          "internalType": "string",
          "name": "discussionUrl",
          "type": "string"
        },
        {
          "internalType": "uint256",
          "name": "daoPhaseCount",
          "type": "uint256"
        },
        {
          "internalType": "uint256",
          "name": "proposalFee",
          "type": "uint256"
        },
        {
          "internalType": "enum ProposalType",
          "name": "proposalType",
          "type": "uint8"
        }
      ],
      "stateMutability": "view",
      "type": "function"
    },
    {
      "inputs": [
        {
          "internalType": "address[]",
          "name": "targets",
          "type": "address[]"
        },
        {
          "internalType": "uint256[]",
          "name": "values",
          "type": "uint256[]"
        },
        {
          "internalType": "bytes[]",
          "name": "calldatas",
          "type": "bytes[]"
        },
        {
          "internalType": "string",
          "name": "title",
          "type": "string"
        },
        {
          "internalType": "string",
          "name": "description",
          "type": "string"
        },
        {
          "internalType": "string",
          "name": "discussionUrl",
          "type": "string"
        },
        {
          "internalType": "enum OpenProposalMajority",
          "name": "majority",
          "type": "uint8"
        }
      ],
      "name": "propose",
      "outputs": [],
      "stateMutability": "payable",
      "type": "function"
    },
    {
      "inputs": [
        {
          "internalType": "uint256",
          "name": "proposalId",
          "type": "uint256"
        },
        {
          "internalType": "enum ProposalType",
          "name": "_type",
          "type": "uint8"
        },
        {
          "components": [
            {
              "internalType": "uint64",
              "name": "countYes",
              "type": "uint64"
            },
            {
              "internalType": "uint64",
              "name": "countNo",
              "type": "uint64"
            },
            {
              "internalType": "uint256",
              "name": "stakeYes",
              "type": "uint256"
            },
            {
              "internalType": "uint256",
              "name": "stakeNo",
              "type": "uint256"
            }
          ],
          "internalType": "struct VotingResult",
          "name": "result",
          "type": "tuple"
        }
      ],
      "name": "quorumReached",
      "outputs": [
        {
          "internalType": "bool",
          "name": "",
          "type": "bool"
        }
      ],
      "stateMutability": "view",
      "type": "function"
    },
    {
      "inputs": [],
      "name": "reinsertPot",
      "outputs": [
        {
          "internalType": "address",
          "name": "",
          "type": "address"
        }
      ],
      "stateMutability": "view",
      "type": "function"
    },
    {
      "inputs": [
        {
          "internalType": "bytes4",
          "name": "funcSelector",
          "type": "bytes4"
        }
      ],
      "name": "removeAllowedChangeableParameter",
      "outputs": [],
      "stateMutability": "nonpayable",
      "type": "function"
    },
    {
      "inputs": [],
      "name": "renounceOwnership",
      "outputs": [],
      "stateMutability": "nonpayable",
      "type": "function"
    },
    {
      "inputs": [
        {
          "internalType": "uint256",
          "name": "",
          "type": "uint256"
        }
      ],
      "name": "results",
      "outputs": [
        {
          "internalType": "uint64",
          "name": "countYes",
          "type": "uint64"
        },
        {
          "internalType": "uint64",
          "name": "countNo",
          "type": "uint64"
        },
        {
          "internalType": "uint256",
          "name": "stakeYes",
          "type": "uint256"
        },
        {
          "internalType": "uint256",
          "name": "stakeNo",
          "type": "uint256"
        }
      ],
      "stateMutability": "view",
      "type": "function"
    },
    {
      "inputs": [
        {
          "internalType": "bytes4",
          "name": "setter",
          "type": "bytes4"
        },
        {
          "internalType": "bytes4",
          "name": "getter",
          "type": "bytes4"
        },
        {
          "internalType": "uint256[]",
          "name": "params",
          "type": "uint256[]"
        }
      ],
      "name": "setAllowedChangeableParameter",
      "outputs": [],
      "stateMutability": "nonpayable",
      "type": "function"
    },
    {
      "inputs": [
        {
          "internalType": "uint256",
          "name": "_fee",
          "type": "uint256"
        }
      ],
      "name": "setCreateProposalFee",
      "outputs": [],
      "stateMutability": "nonpayable",
      "type": "function"
    },
    {
      "inputs": [
        {
          "internalType": "address",
          "name": "_add",
          "type": "address"
        },
        {
          "internalType": "bool",
          "name": "isCore",
          "type": "bool"
        }
      ],
      "name": "setIsCoreContract",
      "outputs": [],
      "stateMutability": "nonpayable",
      "type": "function"
    },
    {
      "inputs": [],
      "name": "stakingHbbft",
      "outputs": [
        {
          "internalType": "contract IStakingHbbft",
          "name": "",
          "type": "address"
        }
      ],
      "stateMutability": "view",
      "type": "function"
    },
    {
      "inputs": [],
      "name": "statistic",
      "outputs": [
        {
          "internalType": "uint64",
          "name": "total",
          "type": "uint64"
        },
        {
          "internalType": "uint64",
          "name": "accepted",
          "type": "uint64"
        },
        {
          "internalType": "uint64",
          "name": "declined",
          "type": "uint64"
        },
        {
          "internalType": "uint64",
          "name": "canceled",
          "type": "uint64"
        }
      ],
      "stateMutability": "view",
      "type": "function"
    },
    {
      "inputs": [],
      "name": "switchPhase",
      "outputs": [],
      "stateMutability": "nonpayable",
      "type": "function"
    },
    {
      "inputs": [
        {
          "internalType": "address",
          "name": "newOwner",
          "type": "address"
        }
      ],
      "name": "transferOwnership",
      "outputs": [],
      "stateMutability": "nonpayable",
      "type": "function"
    },
    {
      "inputs": [],
      "name": "unfinalizedProposals",
      "outputs": [
        {
          "internalType": "uint256",
          "name": "",
          "type": "uint256"
        }
      ],
      "stateMutability": "view",
      "type": "function"
    },
    {
      "inputs": [],
      "name": "unfinalizedProposalsExist",
      "outputs": [
        {
          "internalType": "bool",
          "name": "",
          "type": "bool"
        }
      ],
      "stateMutability": "view",
      "type": "function"
    },
    {
      "inputs": [],
      "name": "validatorSet",
      "outputs": [
        {
          "internalType": "contract IValidatorSetHbbft",
          "name": "",
          "type": "address"
        }
      ],
      "stateMutability": "view",
      "type": "function"
    },
    {
      "inputs": [
        {
          "internalType": "uint256",
          "name": "proposalId",
          "type": "uint256"
        },
        {
          "internalType": "enum Vote",
          "name": "_vote",
          "type": "uint8"
        }
      ],
      "name": "vote",
      "outputs": [],
      "stateMutability": "nonpayable",
      "type": "function"
    },
    {
      "inputs": [
        {
          "internalType": "uint256",
          "name": "proposalId",
          "type": "uint256"
        },
        {
          "internalType": "enum Vote",
          "name": "_vote",
          "type": "uint8"
        },
        {
          "internalType": "string",
          "name": "reason",
          "type": "string"
        }
      ],
      "name": "voteWithReason",
      "outputs": [],
      "stateMutability": "nonpayable",
      "type": "function"
    },
    {
      "inputs": [
        {
          "internalType": "uint256",
          "name": "",
          "type": "uint256"
        },
        {
          "internalType": "address",
          "name": "",
          "type": "address"
        }
      ],
      "name": "votes",
      "outputs": [
        {
          "internalType": "uint64",
          "name": "timestamp",
          "type": "uint64"
        },
        {
          "internalType": "enum Vote",
          "name": "vote",
          "type": "uint8"
        },
        {
          "internalType": "string",
          "name": "reason",
          "type": "string"
        }
      ],
      "stateMutability": "view",
      "type": "function"
    },
    {
      "stateMutability": "payable",
      "type": "receive"
    }
  ],
  "bytecode": "0x6080604052348015600f57600080fd5b506016601a565b60ca565b7ff0c57e16840df040f15088dc2f81fe391c3923bec73e23a9662efc9c229c6a00805468010000000000000000900460ff161560695760405163f92ee8a960e01b815260040160405180910390fd5b80546001600160401b039081161460c75780546001600160401b0319166001600160401b0390811782556040519081527fc7f505b2f371ae2175ee4913f4499e1f2633a7b5936321eed1cdaeb6115181d29060200160405180910390a15b50565b615af2806100d96000396000f3fe60806040526004361061032d5760003560e01c8063aa72e3b9116101a5578063c7f758a8116100ec578063efa65b4811610095578063f9d1a24b1161006f578063f9d1a24b14610ab9578063fa1f072714610acc578063fe0d94c114610ae2578063ff71d67714610b0257600080fd5b8063efa65b4814610a6e578063f22d232614610a83578063f2fde38b14610a9957600080fd5b8063d78386a1116100c6578063d78386a114610a18578063ec47c47114610a38578063ed965ddc14610a4e57600080fd5b8063c7f758a81461098c578063d22a20cd146109b9578063d23254b4146109e957600080fd5b8063b710c15d1161014e578063bf348f8611610128578063bf348f861461092c578063c3b66bed1461094c578063c52088bc1461096c57600080fd5b8063b710c15d146108c9578063ba08d237146108f6578063be0a4e4b1461091657600080fd5b8063b050bcf71161017f578063b050bcf714610839578063b131b6a514610859578063b1530dc7146108a957600080fd5b8063aa72e3b9146107d5578063ab0eb62d14610804578063ab266e101461081957600080fd5b8063525e03d5116102745780637d8149db1161021d578063943e8216116101f7578063943e821614610746578063950e3e441461076657806395dd7fb914610786578063a68f34f7146107a857600080fd5b80637d8149db146106c95780638da5cb5b146106e95780639426e2261461072657600080fd5b80636b6d33da1161024e5780636b6d33da1461065c578063715018a61461069457806373f12958146106a957600080fd5b8063525e03d5146105ef5780635e8815f21461061c57806366a862a11461063c57600080fd5b80631b0c27da116102d657806331e40733116102b057806331e407331461053d5780633c5fc7111461055d5780634346845f146105cf57600080fd5b80631b0c27da1461047e57806329b6eca9146104f95780632baffa3f1461051957600080fd5b80631374b22d116103075780631374b22d146103e95780631536f472146104315780631840f0ca1461045157600080fd5b8063013cf08b1461035157806305261aea1461038f5780631243e6cb146103b157600080fd5b3661034c5734600360008282546103449190614625565b925050819055005b600080fd5b34801561035d57600080fd5b5061037161036c366004614638565b610b18565b604051610386999897969594939291906146db565b60405180910390f35b34801561039b57600080fd5b506103af6103aa366004614638565b610d16565b005b3480156103bd57600080fd5b506005546103d1906001600160a01b031681565b6040516001600160a01b039091168152602001610386565b3480156103f557600080fd5b50610421610404366004614638565b6000908152600960205260409020546001600160a01b0316151590565b6040519015158152602001610386565b34801561043d57600080fd5b506103af61044c3660046147b5565b610f8c565b34801561045d57600080fd5b5061047161046c366004614638565b6110af565b6040516103869190614800565b34801561048a57600080fd5b506104ce610499366004614638565b600b602052600090815260409020805460018201546002909201546001600160401b0380831693600160401b90930416919084565b604080516001600160401b039586168152949093166020850152918301526060820152608001610386565b34801561050557600080fd5b506103af610514366004614858565b611243565b34801561052557600080fd5b5061052f60035481565b604051908152602001610386565b34801561054957600080fd5b506103af61055836600461488b565b6113a6565b34801561056957600080fd5b5060065461059c906001600160401b0380821691600160401b8104821691600160801b8204811691600160c01b90041684565b604080516001600160401b0395861681529385166020850152918416918301919091529091166060820152608001610386565b3480156105db57600080fd5b506103af6105ea3660046148fc565b6114fb565b3480156105fb57600080fd5b5061052f61060a366004614638565b60126020526000908152604090205481565b34801561062857600080fd5b506103af61063736600461499e565b6115ec565b34801561064857600080fd5b5061052f6106573660046149d5565b611660565b34801561066857600080fd5b5061052f6106773660046149f7565b600d60209081526000928352604080842090915290825290205481565b3480156106a057600080fd5b506103af611691565b3480156106b557600080fd5b506001546103d1906001600160a01b031681565b3480156106d557600080fd5b506103af6106e4366004614a23565b6116a5565b3480156106f557600080fd5b507f9016d09d72d40fdae2fd8ceac6b6234c7706214fd39c1cd1e609a0528c199300546001600160a01b03166103d1565b34801561073257600080fd5b506004546103d1906001600160a01b031681565b34801561075257600080fd5b506103af610761366004614a40565b61172e565b34801561077257600080fd5b5061052f610781366004614cd6565b61184c565b34801561079257600080fd5b5061079b611892565b6040516103869190614dbe565b3480156107b457600080fd5b506107c86107c3366004614638565b6118ea565b6040516103869190614e0b565b3480156107e157600080fd5b506107ec6201518081565b6040516001600160401b039091168152602001610386565b34801561081057600080fd5b506103af61190a565b34801561082557600080fd5b506103af610834366004614638565b611c8a565b34801561084557600080fd5b50610421610854366004614e35565b611d15565b34801561086557600080fd5b50600754610899906001600160401b0380821691600160401b8104821691600160801b82041690600160c01b900460ff1684565b6040516103869493929190614ee9565b3480156108b557600080fd5b506014546103d1906001600160a01b031681565b3480156108d557600080fd5b506108e96108e4366004614f21565b611e5b565b6040516103869190614f5d565b34801561090257600080fd5b50610421610911366004614f8b565b611f0b565b34801561092257600080fd5b5061052f60115481565b34801561093857600080fd5b506108e9610947366004614a23565b6120e6565b34801561095857600080fd5b5061052f610967366004614638565b61218b565b34801561097857600080fd5b506103af61098736600461488b565b6121a2565b34801561099857600080fd5b506109ac6109a7366004614638565b612455565b6040516103869190615011565b3480156109c557600080fd5b506104216109d4366004614858565b600a6020526000908152604090205460ff1681565b3480156109f557600080fd5b50610a09610a043660046149f7565b612869565b60405161038693929190615148565b348015610a2457600080fd5b506103af610a33366004615179565b61292f565b348015610a4457600080fd5b5061052f6103e881565b348015610a5a57600080fd5b5061052f610a69366004614638565b612cd8565b348015610a7a57600080fd5b50610421612cf9565b348015610a8f57600080fd5b5061052f60025481565b348015610aa557600080fd5b506103af610ab4366004614858565b612d21565b6103af610ac7366004615209565b612d5c565b348015610ad857600080fd5b5061052f60105481565b348015610aee57600080fd5b506103af610afd366004614638565b6130fe565b348015610b0e57600080fd5b5061052f60005481565b600960205260009081526040902080546004820180546001600160a01b03831693600160a01b84046001600160401b031693600160e01b900460ff16929091610b609061530f565b80601f0160208091040260200160405190810160405280929190818152602001828054610b8c9061530f565b8015610bd95780601f10610bae57610100808354040283529160200191610bd9565b820191906000526020600020905b815481529060010190602001808311610bbc57829003601f168201915b505050505090806005018054610bee9061530f565b80601f0160208091040260200160405190810160405280929190818152602001828054610c1a9061530f565b8015610c675780601f10610c3c57610100808354040283529160200191610c67565b820191906000526020600020905b815481529060010190602001808311610c4a57829003601f168201915b505050505090806006018054610c7c9061530f565b80601f0160208091040260200160405190810160405280929190818152602001828054610ca89061530f565b8015610cf55780601f10610cca57610100808354040283529160200191610cf5565b820191906000526020600020905b815481529060010190602001808311610cd857829003601f168201915b50505050600783015460088401546009909401549293909290915060ff1689565b610d1e6133ef565b60008181526009602052604090205481906001600160a01b0316610d5d5760405163986731a160e01b8152600481018290526024015b60405180910390fd5b610d68826003613439565b600082815260096020526040812090610d82846001613495565b6000858152600b602090815260409182902090830151815484516fffffffffffffffffffffffffffffffff19909116600160401b6001600160401b039384160267ffffffffffffffff1916179116178155606083015160028201559082015160019091015590506009820154600090610e0090869060ff1684611d15565b905080610e0e576005610e11565b60045b8354849060ff60e01b1916600160e01b836006811115610e3357610e33614651565b02179055508015610ea6576006805460019190600890610e64908490600160401b90046001600160401b0316615343565b82546001600160401b039182166101009390930a92830291909202199091161790555082546008840154610ea1916001600160a01b0316906136c0565b610f13565b6006805460019190601090610ecc908490600160801b90046001600160401b0316615343565b92506101000a8154816001600160401b0302191690836001600160401b03160217905550610f13600160009054906101000a90046001600160a01b031684600801546136c0565b600160106000828254610f269190615363565b909155505060405181151590869033907f4a82eb80f2a86beb92f5670422f698264b3511048a29b400a6a1ce684769581e90600090a450505050610f8960017f9b779b17422d0df92223018b32b4d1fa46e071723d6817e2486d003becc55f0055565b50565b60008381526009602052604090205483906001600160a01b0316610fc65760405163986731a160e01b815260048101829052602401610d54565b600084815260096020526040902080546001600160a01b03163314610ffe57604051630608c7c960e51b815260040160405180910390fd5b611009856000613439565b805460ff60e01b1916600160e01b1781556006805460019190601890611040908490600160c01b90046001600160401b0316615343565b92506101000a8154816001600160401b0302191690836001600160401b0316021790555084336001600160a01b03167fd16ff8053e1476416f5be14c32305a3652ac0b182ac04ede8c101d867b75bd1486866040516110a0929190615376565b60405180910390a35050505050565b60408051608081018252600080825260208201819052918101829052606081019190915260008281526009602052604090205482906001600160a01b031661110d5760405163986731a160e01b815260048101829052602401610d54565b600083815260096020526040902054600160e01b900460ff16600481600681111561113a5761113a614651565b14806111575750600581600681111561115557611155614651565b145b806111735750600681600681111561117157611171614651565b145b156111d057506000838152600b6020908152604091829020825160808101845281546001600160401b038082168352600160401b90910416928101929092526001810154928201929092526002909101546060820152915061123d565b60038160068111156111e4576111e4614651565b036111fc576111f4846001613495565b92505061123d565b600281600681111561121057611210614651565b03611220576111f4846000613495565b838160405163605cfad560e01b8152600401610d549291906153a5565b50919050565b7ff0c57e16840df040f15088dc2f81fe391c3923bec73e23a9662efc9c229c6a00805460029190600160401b900460ff168061128c575080546001600160401b03808416911610155b156112aa5760405163f92ee8a960e01b815260040160405180910390fd5b805468ffffffffffffffffff19166001600160401b03831617600160401b1781556001600160a01b0383166112f25760405163a9cb9e0d60e01b815260040160405180910390fd5b601480546001600160a01b0319166001600160a01b0385169081179091556000818152600a6020526040808220805460ff1916600190811790915590519092917fc73e95af540565c649d9453cb23b01f505752b94f04ff81b52ce528047232f2391a3805468ff0000000000000000191681556040516001600160401b03831681527fc7f505b2f371ae2175ee4913f4499e1f2633a7b5936321eed1cdaeb6115181d29060200160405180910390a1505050565b60008481526009602052604090205484906001600160a01b03166113e05760405163986731a160e01b815260048101829052602401610d54565b600180600754600160c01b900460ff16600181111561140157611401614651565b1461142d576007546040516378030af960e11b8152610d5491600160c01b900460ff16906004016153b9565b61143633613772565b6114555760405163fb426bed60e01b8152336004820152602401610d54565b600033905061149c81888888888080601f0160208091040260200160405190810160405280939291908181526020018383808284376000920191909152506137e192505050565b8560018111156114ae576114ae614651565b87826001600160a01b03167fde85a12bb3f2d766e67cf54febc7c53ae9c500da072f8fdfb34aba5ca5525ebf88886040516114ea929190615376565b60405180910390a450505050505050565b611503613931565b600061150d61398c565b90506040518060400160405280856001600160e01b031916815260200184848080602002602001604051908101604052809392919081815260200183836020028082843760009201829052509390945250506001600160e01b031988168152602084815260409091208351815463ffffffff191660e09190911c1781558382015180519193506115a49260018501929101906143e2565b509050507f3665bf9cd0ba4ddceeec259e21dcf8a4510f3b1130bd42e950828e69d85408ba858585856040516115dd94939291906153cc565b60405180910390a15050505050565b33301461160c576040516354348f0360e01b815260040160405180910390fd5b6001600160a01b0382166000818152600a6020526040808220805460ff191685151590811790915590519092917fc73e95af540565c649d9453cb23b01f505752b94f04ff81b52ce528047232f2391a35050565b6013602052816000526040600020818154811061167c57600080fd5b90600052602060002001600091509150505481565b611699613931565b6116a360006139ee565b565b6116ad613931565b60006116b761398c565b6001600160e01b031983166000908152602082905260408120805463ffffffff191681559192506116eb600183018261442d565b50506040516001600160e01b0319831681527fed27cb02231782dadf13473a7828cb980c4d685791b7a3136dde00f8c3594cb69060200160405180910390a15050565b60008281526009602052604090205482906001600160a01b03166117685760405163986731a160e01b815260048101829052602401610d54565b600180600754600160c01b900460ff16600181111561178957611789614651565b146117b5576007546040516378030af960e11b8152610d5491600160c01b900460ff16906004016153b9565b6117be33613772565b6117dd5760405163fb426bed60e01b8152336004820152602401610d54565b60003390506117fd818686604051806020016040528060008152506137e1565b83600181111561180f5761180f614651565b60405186906001600160a01b038416907f343f24b88bd3789b60993251090e2184e0e4ae199d79b14a510fc1a08b51f51490600090a45050505050565b60008082805190602001209050858585836040516020016118709493929190615439565b60408051601f1981840301815291905280516020909101209695505050505050565b606060088054806020026020016040519081016040528092919081815260200182805480156118e057602002820191906000526020600020905b8154815260200190600101908083116118cc575b5050505050905090565b6000818152600f6020526040902060609061190490613a5f565b92915050565b6119126133ef565b60075442906001600160401b03600160401b909104811690821610156119385750611c61565b600080600754600160c01b900460ff16600181111561195957611959614651565b14611965576000611968565b60015b6007805467ffffffffffffffff19166001600160401b03851617905590506119936201518083615343565b600780546001600160401b0392909216600160401b026fffffffffffffffff00000000000000001983168117825583927fffffffffffffff00ffffffffffffffffffffffffffffffffffffffffffffffff9091167fffffffffffffff00ffffffffffffffff0000000000000000ffffffffffffffff90911617600160c01b836001811115611a2357611a23614651565b021790555060006001826001811115611a3e57611a3e614651565b14611a4a576003611a4d565b60025b905060006003826006811115611a6557611a65614651565b6008549114915060005b81811015611b3357600060088281548110611a8c57611a8c615484565b6000918252602080832090910154808352600990915260409091208054919250869160ff60e01b1916600160e01b836006811115611acc57611acc614651565b02179055508315611b2a57600754600082815260096020526040902080547fffffffff0000000000000000ffffffffffffffffffffffffffffffffffffffff16600160801b9092046001600160401b0316600160a01b029190911790555b50600101611a6f565b508115611ba157600754611b5690600160801b90046001600160401b0316613a6c565b6007805460019190601090611b7c908490600160801b90046001600160401b0316615343565b92506101000a8154816001600160401b0302191690836001600160401b031602179055505b6000846001811115611bb557611bb5614651565b03611bfd5760008054815260136020526040902060088054611bd892919061444b565b506001600080828254611beb9190614625565b90915550611bfd90506008600061442d565b6007546001600160401b03600160401b82048116919081169060ff600160c01b909104166001811115611c3257611c32614651565b6040517f4887f063ba2113285aba0e893c372b65da5e458b463fb01fdf1fe0d266acff0e90600090a450505050505b6116a360017f9b779b17422d0df92223018b32b4d1fa46e071723d6817e2486d003becc55f0055565b333014611caa576040516354348f0360e01b815260040160405180910390fd5b80611cc16000356001600160e01b03191682611f0b565b611ce1576040516373330d9b60e01b815260048101829052602401610d54565b600282905560405182907f7d6e1cf0de9a5ba39e02e05972eb08471682fc361b20458a3f200f7bf087b53590600090a25050565b6000838152600f602052604081208190611d2e90613c02565b600086815260096020908152604080832054600160a01b90046001600160401b0316808452601290925282205492935091906001876003811115611d7457611d74614651565b1480611d9157506003876003811115611d8f57611d8f614651565b145b15611da757611da08683613c0c565b9050611e40565b6000876003811115611dbb57611dbb614651565b03611e3357601454604051630d91813160e21b81526001600160a01b039091169063364604c490611df2908990869060040161549a565b602060405180830381865afa158015611e0f573d6000803e3d6000fd5b505050506040513d601f19601f82011682018060405250810190611da091906154e3565b611e3d8683613c52565b90505b600084118015611e4d5750805b9450505050505b9392505050565b604080518082019091526000815260606020820152611e7861398c565b82516020808501919091206001600160e01b0319908116600090815292825260409283902083518085018552815460e01b9092168252600181018054855181860281018601909652808652929491938581019390830182828015611efb57602002820191906000526020600020905b815481526020019060010190808311611ee7575b5050505050815250509050919050565b600080611f1661398c565b6001600160e01b031980861660009081526020838152604080832081518083018352815460e01b90951685526001810180548351818602810186019094528084529697509395909385840193909190830182828015611f9457602002820191906000526020600020905b815481526020019060010190808311611f80575b5050505050815250509050806020015151600003611fb757600092505050611904565b60208101518151600090611fca90613c60565b905060005b82518110156120d85781838281518110611feb57611feb615484565b6020026020010151036120d0576000808211612021578360008151811061201457612014615484565b6020026020010151612046565b8361202d600184615363565b8151811061203d5761203d615484565b60200260200101515b90506000600185516120589190615363565b831061208a57846001865161206d9190615363565b8151811061207d5761207d615484565b60200260200101516120af565b84612096846001614625565b815181106120a6576120a6615484565b60200260200101515b90508189141580156120c15750808914155b15975050505050505050611904565b600101611fcf565b506000979650505050505050565b60408051808201909152600081526060602082015261210361398c565b6001600160e01b03198084166000908152602092835260409081902081518083018352815460e01b9093168352600181018054835181870281018701909452808452939491938583019392830182828015611efb5760200282019190600052602060002090815481526020019060010190808311611ee7575050505050815250509050919050565b6000818152600f6020526040812061190490613c02565b60008481526009602052604090205484906001600160a01b03166121dc5760405163986731a160e01b815260048101829052602401610d54565b600180600754600160c01b900460ff1660018111156121fd576121fd614651565b14612229576007546040516378030af960e11b8152610d5491600160c01b900460ff16906004016153b9565b61223233613772565b6122515760405163fb426bed60e01b8152336004820152602401610d54565b6000868152600f602052604090206122699033613d22565b61228f576040516328524c6760e01b815260048101879052336024820152604401610d54565b6000868152600960205260409020339060028154600160e01b900460ff1660068111156122be576122be614651565b146122ec57805460405163605cfad560e01b8152610d54918a91600160e01b90910460ff16906004016153a5565b6000888152600c602090815260408083206001600160a01b0386168452909152902087600181111561232057612320614651565b8154600160401b900460ff16600181111561233d5761233d614651565b14801561237857508686604051612355929190615500565b60405180910390208160010160405161236e9190615510565b6040518091039020145b1561239c5788838960405163cdfb27f160e01b8152600401610d5493929190615586565b80548890829068ff00000000000000001916600160401b8360018111156123c5576123c5614651565b0217905550600181016123d9878983615603565b50805467ffffffffffffffff1916426001600160401b031617815587600181111561240657612406614651565b89846001600160a01b03167f332b2b2ae5af09046352b7642c20055605109b483c9a3c7858df4c4e0c557ea98a8a604051612442929190615376565b60405180910390a4505050505050505050565b61245d61448b565b60008281526009602090815260409182902082516101808101845281546001600160a01b0381168252600160a01b81046001600160401b03169382019390935292909190830190600160e01b900460ff1660068111156124bf576124bf614651565b60068111156124d0576124d0614651565b81526020016001820180548060200260200160405190810160405280929190818152602001828054801561252d57602002820191906000526020600020905b81546001600160a01b0316815260019091019060200180831161250f575b505050505081526020016002820180548060200260200160405190810160405280929190818152602001828054801561258557602002820191906000526020600020905b815481526020019060010190808311612571575b5050505050815260200160038201805480602002602001604051908101604052809291908181526020016000905b8282101561265f5783829060005260206000200180546125d29061530f565b80601f01602080910402602001604051908101604052809291908181526020018280546125fe9061530f565b801561264b5780601f106126205761010080835404028352916020019161264b565b820191906000526020600020905b81548152906001019060200180831161262e57829003601f168201915b5050505050815260200190600101906125b3565b5050505081526020016004820180546126779061530f565b80601f01602080910402602001604051908101604052809291908181526020018280546126a39061530f565b80156126f05780601f106126c5576101008083540402835291602001916126f0565b820191906000526020600020905b8154815290600101906020018083116126d357829003601f168201915b505050505081526020016005820180546127099061530f565b80601f01602080910402602001604051908101604052809291908181526020018280546127359061530f565b80156127825780601f1061275757610100808354040283529160200191612782565b820191906000526020600020905b81548152906001019060200180831161276557829003601f168201915b5050505050815260200160068201805461279b9061530f565b80601f01602080910402602001604051908101604052809291908181526020018280546127c79061530f565b80156128145780601f106127e957610100808354040283529160200191612814565b820191906000526020600020905b8154815290600101906020018083116127f757829003601f168201915b50505091835250506007820154602082015260088201546040820152600982015460609091019060ff16600381111561284f5761284f614651565b600381111561286057612860614651565b90525092915050565b600c602090815260009283526040808420909152908252902080546001820180546001600160401b03831693600160401b90930460ff169291906128ac9061530f565b80601f01602080910402602001604051908101604052809291908181526020018280546128d89061530f565b80156129255780601f106128fa57610100808354040283529160200191612925565b820191906000526020600020905b81548152906001019060200180831161290857829003601f168201915b5050505050905083565b7ff0c57e16840df040f15088dc2f81fe391c3923bec73e23a9662efc9c229c6a008054600160401b810460ff1615906001600160401b03166000811580156129745750825b90506000826001600160401b031660011480156129905750303b155b90508115801561299e575080155b156129bc5760405163f92ee8a960e01b815260040160405180910390fd5b845467ffffffffffffffff1916600117855583156129eb57845468ff00000000000000001916600160401b1785555b6001600160a01b038d161580612a0857506001600160a01b038c16155b80612a1a57506001600160a01b038a16155b80612a2c57506001600160a01b038b16155b80612a3e57506001600160a01b038916155b80612a5057506001600160a01b038816155b80612a59575086155b15612a775760405163a9cb9e0d60e01b815260040160405180910390fd5b42866001600160401b03161015612aa1576040516307f5e89560e51b815260040160405180910390fd5b612aaa8d613d44565b612ab2613d55565b600480546001600160a01b03199081166001600160a01b038f8116919091179092556005805482168e84161790556014805482168b841617905560018054909116918c1691909117905560028790556007805467ffffffffffffffff19166001600160401b038816179055612b2a6201518087615343565b600780546001600160401b0392909216600160401b027fffffffffffffff000000000000000000ffffffffffffffffffffffffffffffff167fffffffffffffff0000000000000000000000000000000000ffffffffffffffff90921691909117600160801b17905560016000908155604080516009808252610140820190925290602082016101208036833701905050905060005b6009811015612c0a57612bd3816001614625565b612be590678ac7230489e800006156c3565b828281518110612bf757612bf7615484565b6020908102919091010152600101612bbf565b50612c24630ab266e160e41b637916919360e11b83613d65565b50306000908152600a60205260408082208054600160ff1991821681179092556001600160a01b038f8116855283852080548316841790558d8116855283852080548316841790558e16845291909220805490911690911790558315612cc957845468ff000000000000000019168555604051600181527fc7f505b2f371ae2175ee4913f4499e1f2633a7b5936321eed1cdaeb6115181d29060200160405180910390a15b50505050505050505050505050565b60088181548110612ce857600080fd5b600091825260209091200154905081565b6000805460115414158015612d1057506000601054115b15612d1b5750600190565b50600090565b612d29613931565b6001600160a01b038116612d5357604051631e4fbdf760e01b815260006004820152602401610d54565b610f89816139ee565b612d646133ef565b600080600754600160c01b900460ff166001811115612d8557612d85614651565b14612db1576007546040516378030af960e11b8152610d5491600160c01b900460ff16906004016153b9565b612db9612cf9565b15612dd75760405163fd081cf960e01b815260040160405180910390fd5b60005460115414612de9576000546011555b86518851141580612dfc57508551885114155b80612e0657508751155b15612e245760405163a9cb9e0d60e01b815260040160405180910390fd5b6002543414612e465760405163356680b760e01b815260040160405180910390fd5b6008546103e811612e6a57604051633f2ad2e160e11b815260040160405180910390fd5b6000612e768988613e1a565b90506000816003811115612e8c57612e8c614651565b148015612eaa57506001836001811115612ea857612ea8614651565b145b15612eb3575060035b6000612ec18a8a8a8961184c565b6000818152600960205260409020549091506001600160a01b031615612efd5760405163d3df438360e01b815260048101829052602401610d54565b600081815260096020908152604090912080547fffffff00ffffffffffffffff0000000000000000000000000000000000000000163360ff60e01b1981169190911782558c519092612f569160018401918f01906144fc565b508a51612f6c90600283019060208e01906143e2565b508951612f8290600383019060208d0190614551565b5060048101612f918a826156da565b5060058101612fa089826156da565b5060068101612faf88826156da565b506000546007820155600254600882015560098101805485919060ff19166001836003811115612fe157612fe1614651565b0217905550600880546001818101835560009283527ff3f7a9fe364faab93b216da50a3214154f22a0a2b415b23a84c8169e8b636ee390910185905560068054919290916130399084906001600160401b0316615343565b92506101000a8154816001600160401b0302191690836001600160401b031602179055506001601060008282546130709190614625565b9250508190555082826001600160a01b03167faae8433da93a34852459abcc29a350d01261db57a269e890b08bde55d4a9774c8e8e8e8e8e8e6002546040516130bf9796959493929190615799565b60405180910390a350505050506130f560017f9b779b17422d0df92223018b32b4d1fa46e071723d6817e2486d003becc55f0055565b50505050505050565b6131066133ef565b60008181526009602052604090205481906001600160a01b03166131405760405163986731a160e01b815260048101829052602401610d54565b61314b826004613439565b613154826140c0565b60008281526009602081905260408220805460ff60e01b1916600360e11b1781559081015490919060ff16600381111561319057613190614651565b0361320b57601454604051634590239b60e01b81526001600160a01b0390911690634590239b906131d49086906001860190600287019060038801906004016158e8565b600060405180830381600087803b1580156131ee57600080fd5b505af1158015613202573d6000803e3d6000fd5b50505050613397565b6133978160010180548060200260200160405190810160405280929190818152602001828054801561326657602002820191906000526020600020905b81546001600160a01b03168152600190910190602001808311613248575b5050505050826002018054806020026020016040519081016040528092919081815260200182805480156132b957602002820191906000526020600020905b8154815260200190600101908083116132a5575b505050505083600301805480602002602001604051908101604052809291908181526020016000905b8282101561338e5783829060005260206000200180546133019061530f565b80601f016020809104026020016040519081016040528092919081815260200182805461332d9061530f565b801561337a5780601f1061334f5761010080835404028352916020019161337a565b820191906000526020600020905b81548152906001019060200180831161335d57829003601f168201915b5050505050815260200190600101906132e2565b5050505061415e565b604051839033907f7bfd03e44f31b1867e10c41d419cd8073b4719d321ccc5c3a3c79ac2babab3c390600090a35050610f8960017f9b779b17422d0df92223018b32b4d1fa46e071723d6817e2486d003becc55f0055565b7f9b779b17422d0df92223018b32b4d1fa46e071723d6817e2486d003becc55f0080546001190161343357604051633ee5aeb560e01b815260040160405180910390fd5b60029055565b600061344483612455565b60400151905081600681111561345c5761345c614651565b81600681111561346e5761346e614651565b1461349057828160405163605cfad560e01b8152600401610d549291906153a5565b505050565b60408051608080820183526000808352602080840182905283850182905260608085018390528783526009825285832054865194850187528385529184018390529483018290529382018190529192600160a01b90046001600160401b0316916134fe866118ea565b905060005b81518110156136b557600082828151811061352057613520615484565b602002602001015190506000871561356557506001600160401b0385166000908152600d602090815260408083206001600160a01b03851684529091529020546135d6565b600554604051632933f0eb60e11b81526001600160a01b03848116600483015290911690635267e1d690602401602060405180830381865afa1580156135af573d6000803e3d6000fd5b505050506040513d601f19601f820116820180604052508101906135d39190615983565b90505b6000898152600c602090815260408083206001600160a01b0386168452909152902054600160401b900460ff16600181600181111561361757613617614651565b036136575760018660000181815161362f9190615343565b6001600160401b031690525060408601805183919061364f908390614625565b9052506136a7565b600081600181111561366b5761366b614651565b036136a7576001866020018181516136839190615343565b6001600160401b03169052506060860180518391906136a3908390614625565b9052505b505050806001019050613503565b509095945050505050565b6000826001600160a01b03168260405160006040518083038185875af1925050503d806000811461370d576040519150601f19603f3d011682016040523d82523d6000602084013e613712565b606091505b5050905080613490576040516317e3057d60e31b81523060048201526001600160a01b038416602482015260448101839052606401610d54565b60017f9b779b17422d0df92223018b32b4d1fa46e071723d6817e2486d003becc55f0055565b60055460405163f6c5786160e01b81526001600160a01b038381166004830152600092169063f6c5786190602401602060405180830381865afa1580156137bd573d6000803e3d6000fd5b505050506040513d601f19601f8201168201806040525081019061190491906154e3565b6137ec836002613439565b6000838152600f602052604090206138049085613d22565b15613834576040516304f9da6360e01b8152600481018490526001600160a01b0385166024820152604401610d54565b600754600160801b90046001600160401b03166000908152600e6020526040902061385f9085614284565b506000838152600f602052604090206138789085614284565b506040518060600160405280426001600160401b031681526020018360018111156138a5576138a5614651565b815260209081018390526000858152600c825260408082206001600160a01b038916835283529020825181546001600160401b0390911667ffffffffffffffff19821681178355928401519192839168ffffffffffffffffff191617600160401b83600181111561391857613918614651565b0217905550604082015160018201906130f590826156da565b336139637f9016d09d72d40fdae2fd8ceac6b6234c7706214fd39c1cd1e609a0528c199300546001600160a01b031690565b6001600160a01b0316146116a35760405163118cdaa760e01b8152336004820152602401610d54565b60008060ff196139bd60017fdace3fd3d1fbdfd33853f19ba191d28c617e373ec58fc73cf7b58db5aff2c2ab615363565b6040516020016139cf91815260200190565b60408051601f1981840301815291905280516020909101201692915050565b7f9016d09d72d40fdae2fd8ceac6b6234c7706214fd39c1cd1e609a0528c19930080546001600160a01b031981166001600160a01b03848116918217845560405192169182907f8be0079c531659141344cd1fd0a4f28419497f9722a3daafe3b4186f6b6457e090600090a3505050565b60606000611e5483614299565b6001600160401b0381166000908152600e60205260408120613a8d90613a5f565b905060005b8151811015613b6a576000828281518110613aaf57613aaf615484565b6020908102919091010151600554604051632933f0eb60e11b81526001600160a01b03808416600483015292935060009290911690635267e1d690602401602060405180830381865afa158015613b0a573d6000803e3d6000fd5b505050506040513d601f19601f82011682018060405250810190613b2e9190615983565b6001600160401b0386166000908152600d602090815260408083206001600160a01b039096168352949052929092209190915550600101613a92565b50600560009054906101000a90046001600160a01b03166001600160a01b031663567e98f96040518163ffffffff1660e01b8152600401602060405180830381865afa158015613bbe573d6000803e3d6000fd5b505050506040513d601f19601f82011682018060405250810190613be29190615983565b6001600160401b0390921660009081526012602052604090209190915550565b6000611904825490565b600080613c1a8360036156c3565b90508084606001516006613c2e91906156c3565b613c389190614625565b6040850151613c489060066156c3565b1015949350505050565b600080613c1a8360026156c3565b60408051600481526024810182526020810180516001600160e01b03166001600160e01b03198516179052905160009190829081903090613ca290859061599c565b600060405180830381855afa9150503d8060008114613cdd576040519150601f19603f3d011682016040523d82523d6000602084013e613ce2565b606091505b509150915081613d0557604051635fbab09b60e11b815260040160405180910390fd5b80806020019051810190613d199190615983565b95945050505050565b6001600160a01b03811660009081526001830160205260408120541515611e54565b613d4c6142f5565b610f898161433e565b613d5d6142f5565b6116a3614346565b613d6d6142f5565b6000613d7761398c565b6040805180820182526001600160e01b0319868116825260208083018781529189166000908152858252939093208251815463ffffffff191660e09190911c1781559051805194955091939092613dd59260018501929101906143e2565b509050507f3665bf9cd0ba4ddceeec259e21dcf8a4510f3b1130bd42e950828e69d85408ba848484604051613e0c939291906159b8565b60405180910390a150505050565b6000805b82518110156140b957828181518110613e3957613e39615484565b602002602001015151600003156140b157600080613e79858481518110613e6257613e62615484565b602002602001015160208101516024909101519091565b91509150600080878581518110613e9257613e92615484565b60200260200101516001600160a01b0316888681518110613eb557613eb5615484565b5050604080516001600160e01b0319871660248083019190915282518083039091018152604490910182526020810180516001600160e01b0316635f9a47c360e11b1790529051613f06919061599c565b600060405180830381855afa9150503d8060008114613f41576040519150601f19603f3d011682016040523d82523d6000602084013e613f46565b606091505b5091509150818015613f59575060008151115b1561409e57600081806020019051810190613f7491906159e5565b9050600a60008a8881518110613f8c57613f8c615484565b6020908102919091018101516001600160a01b031682528101919091526040016000205460ff168015613fc457506000816020015151115b156140895760029650888681518110613fdf57613fdf615484565b602090810291909101015160405163ba08d23760e01b81526001600160e01b031987166004820152602481018690526001600160a01b039091169063ba08d23790604401602060405180830381865afa158015614040573d6000803e3d6000fd5b505050506040513d601f19601f8201168201806040525081019061406491906154e3565b614084576040516373330d9b60e01b815260048101859052602401610d54565b614098565b60019650505050505050611904565b506140ac565b600195505050505050611904565b505050505b600101613e1e565b5092915050565b60006140cb82612455565b905060005481610120015160016140e29190614625565b1461410357604051631902d7cf60e01b815260048101839052602401610d54565b6001816101600151600381111561411c5761411c614651565b148015614133575080516001600160a01b03163314155b1561415a57604051636d0e083b60e11b815260048101839052336024820152604401610d54565b5050565b60005b835181101561427e57600082828151811061417e5761417e615484565b6020026020010151516000146141955760006141b0565b8382815181106141a7576141a7615484565b60200260200101515b90506000808684815181106141c7576141c7615484565b60200260200101516001600160a01b0316838686815181106141eb576141eb615484565b6020026020010151604051614200919061599c565b60006040518083038185875af1925050503d806000811461423d576040519150601f19603f3d011682016040523d82523d6000602084013e614242565b606091505b5091509150614251828261434e565b50821561427057826003600082825461426a9190615363565b90915550505b505050806001019050614161565b50505050565b6000611e54836001600160a01b03841661436a565b6060816000018054806020026020016040519081016040528092919081815260200182805480156142e957602002820191906000526020600020905b8154815260200190600101908083116142d5575b50505050509050919050565b7ff0c57e16840df040f15088dc2f81fe391c3923bec73e23a9662efc9c229c6a0054600160401b900460ff166116a357604051631afcd79f60e31b815260040160405180910390fd5b612d296142f5565b61374c6142f5565b6060826143635761435e826143b9565b611904565b5080611904565b60008181526001830160205260408120546143b157508154600181810184556000848152602080822090930184905584548482528286019093526040902091909155611904565b506000611904565b8051156143c95780518082602001fd5b604051630a12f52160e11b815260040160405180910390fd5b82805482825590600052602060002090810192821561441d579160200282015b8281111561441d578251825591602001919060010190614402565b506144299291506145a3565b5090565b5080546000825590600052602060002090810190610f8991906145a3565b82805482825590600052602060002090810192821561441d5760005260206000209182015b8281111561441d578254825591600101919060010190614470565b6040805161018081018252600080825260208201819052909182019081526020016060815260200160608152602001606081526020016060815260200160608152602001606081526020016000815260200160008152602001600060038111156144f7576144f7614651565b905290565b82805482825590600052602060002090810192821561441d579160200282015b8281111561441d57825182546001600160a01b0319166001600160a01b0390911617825560209092019160019091019061451c565b828054828255906000526020600020908101928215614597579160200282015b82811115614597578251829061458790826156da565b5091602001919060010190614571565b506144299291506145b8565b5b8082111561442957600081556001016145a4565b808211156144295760006145cc82826145d5565b506001016145b8565b5080546145e19061530f565b6000825580601f106145f1575050565b601f016020900490600052602060002090810190610f8991906145a3565b634e487b7160e01b600052601160045260246000fd5b808201808211156119045761190461460f565b60006020828403121561464a57600080fd5b5035919050565b634e487b7160e01b600052602160045260246000fd5b6007811061467757614677614651565b9052565b60005b8381101561469657818101518382015260200161467e565b50506000910152565b600081518084526146b781602086016020860161467b565b601f01601f19169290920160200192915050565b6004811061467757614677614651565b60006101206001600160a01b038c1683526001600160401b038b166020840152614708604084018b614667565b80606084015261471a8184018a61469f565b9050828103608084015261472e818961469f565b905082810360a0840152614742818861469f565b9150508460c08301528360e083015261475f6101008301846146cb565b9a9950505050505050505050565b60008083601f84011261477f57600080fd5b5081356001600160401b0381111561479657600080fd5b6020830191508360208285010111156147ae57600080fd5b9250929050565b6000806000604084860312156147ca57600080fd5b8335925060208401356001600160401b038111156147e757600080fd5b6147f38682870161476d565b9497909650939450505050565b6080810161190482846001600160401b038082511683528060208301511660208401525060408101516040830152606081015160608301525050565b80356001600160a01b038116811461485357600080fd5b919050565b60006020828403121561486a57600080fd5b611e548261483c565b60028110610f8957600080fd5b803561485381614873565b600080600080606085870312156148a157600080fd5b8435935060208501356148b381614873565b925060408501356001600160401b038111156148ce57600080fd5b6148da8782880161476d565b95989497509550505050565b6001600160e01b031981168114610f8957600080fd5b6000806000806060858703121561491257600080fd5b843561491d816148e6565b9350602085013561492d816148e6565b925060408501356001600160401b038082111561494957600080fd5b818701915087601f83011261495d57600080fd5b81358181111561496c57600080fd5b8860208260051b850101111561498157600080fd5b95989497505060200194505050565b8015158114610f8957600080fd5b600080604083850312156149b157600080fd5b6149ba8361483c565b915060208301356149ca81614990565b809150509250929050565b600080604083850312156149e857600080fd5b50508035926020909101359150565b60008060408385031215614a0a57600080fd5b82359150614a1a6020840161483c565b90509250929050565b600060208284031215614a3557600080fd5b8135611e54816148e6565b60008060408385031215614a5357600080fd5b8235915060208301356149ca81614873565b634e487b7160e01b600052604160045260246000fd5b604080519081016001600160401b0381118282101715614a9d57614a9d614a65565b60405290565b604051601f8201601f191681016001600160401b0381118282101715614acb57614acb614a65565b604052919050565b60006001600160401b03821115614aec57614aec614a65565b5060051b60200190565b600082601f830112614b0757600080fd5b81356020614b1c614b1783614ad3565b614aa3565b8083825260208201915060208460051b870101935086841115614b3e57600080fd5b602086015b84811015614b6157614b548161483c565b8352918301918301614b43565b509695505050505050565b600082601f830112614b7d57600080fd5b81356020614b8d614b1783614ad3565b8083825260208201915060208460051b870101935086841115614baf57600080fd5b602086015b84811015614b615780358352918301918301614bb4565b60006001600160401b03831115614be457614be4614a65565b614bf7601f8401601f1916602001614aa3565b9050828152838383011115614c0b57600080fd5b828260208301376000602084830101529392505050565b600082601f830112614c3357600080fd5b81356020614c43614b1783614ad3565b82815260059290921b84018101918181019086841115614c6257600080fd5b8286015b84811015614b615780356001600160401b03811115614c855760008081fd5b8701603f81018913614c975760008081fd5b614ca8898683013560408401614bcb565b845250918301918301614c66565b600082601f830112614cc757600080fd5b611e5483833560208501614bcb565b60008060008060808587031215614cec57600080fd5b84356001600160401b0380821115614d0357600080fd5b614d0f88838901614af6565b95506020870135915080821115614d2557600080fd5b614d3188838901614b6c565b94506040870135915080821115614d4757600080fd5b614d5388838901614c22565b93506060870135915080821115614d6957600080fd5b50614d7687828801614cb6565b91505092959194509250565b60008151808452602080850194506020840160005b83811015614db357815187529582019590820190600101614d97565b509495945050505050565b602081526000611e546020830184614d82565b60008151808452602080850194506020840160005b83811015614db35781516001600160a01b031687529582019590820190600101614de6565b602081526000611e546020830184614dd1565b80356001600160401b038116811461485357600080fd5b600080600083850360c0811215614e4b57600080fd5b84359350602085013560048110614e6157600080fd5b92506080603f1982011215614e7557600080fd5b50604051608081018181106001600160401b0382111715614e9857614e98614a65565b8060405250614ea960408601614e1e565b8152614eb760608601614e1e565b60208201526080850135604082015260a0909401356060850152509093909250565b60028110610f8957610f89614651565b6001600160401b03858116825284811660208301528316604082015260808101614f1283614ed9565b82606083015295945050505050565b600060208284031215614f3357600080fd5b81356001600160401b03811115614f4957600080fd5b614f5584828501614cb6565b949350505050565b602080825282516001600160e01b03191682820152820151604080830152600090614f556060840182614d82565b60008060408385031215614f9e57600080fd5b8235614fa9816148e6565b946020939093013593505050565b60008282518085526020808601955060208260051b8401016020860160005b8481101561500457601f19868403018952614ff283835161469f565b98840198925090830190600101614fd6565b5090979650505050505050565b6020815261502b6020820183516001600160a01b03169052565b6000602083015161504760408401826001600160401b03169052565b50604083015161505a6060840182614667565b5060608301516101808060808501526150776101a0850183614dd1565b91506080850151601f19808685030160a08701526150958483614d82565b935060a08701519150808685030160c08701526150b28483614fb7565b935060c08701519150808685030160e08701526150cf848361469f565b935060e087015191506101008187860301818801526150ee858461469f565b94508088015192505061012081878603018188015261510d858461469f565b908801516101408881019190915288015161016080890191909152880151909450915061513e9050828601826146cb565b5090949350505050565b6001600160401b038416815261515d83614ed9565b826020820152606060408201526000613d19606083018461469f565b600080600080600080600080610100898b03121561519657600080fd5b61519f8961483c565b97506151ad60208a0161483c565b96506151bb60408a0161483c565b95506151c960608a0161483c565b94506151d760808a0161483c565b93506151e560a08a0161483c565b925060c089013591506151fa60e08a01614e1e565b90509295985092959890939650565b600080600080600080600060e0888a03121561522457600080fd5b87356001600160401b038082111561523b57600080fd5b6152478b838c01614af6565b985060208a013591508082111561525d57600080fd5b6152698b838c01614b6c565b975060408a013591508082111561527f57600080fd5b61528b8b838c01614c22565b965060608a01359150808211156152a157600080fd5b6152ad8b838c01614cb6565b955060808a01359150808211156152c357600080fd5b6152cf8b838c01614cb6565b945060a08a01359150808211156152e557600080fd5b506152f28a828b01614cb6565b92505061530160c08901614880565b905092959891949750929550565b600181811c9082168061532357607f821691505b60208210810361123d57634e487b7160e01b600052602260045260246000fd5b6001600160401b038181168382160190808211156140b9576140b961460f565b818103818111156119045761190461460f565b60208152816020820152818360408301376000818301604090810191909152601f909201601f19160101919050565b82815260408101611e546020830184614667565b602081016153c683614ed9565b91905290565b6001600160e01b0319858116825284166020820152606060408201819052810182905260007f07ffffffffffffffffffffffffffffffffffffffffffffffffffffffffffffff83111561541e57600080fd5b8260051b808560808501379190910160800195945050505050565b60808152600061544c6080830187614dd1565b828103602084015261545e8187614d82565b905082810360408401526154728186614fb7565b91505082606083015295945050505050565b634e487b7160e01b600052603260045260246000fd5b60a081016154d682856001600160401b038082511683528060208301511660208401525060408101516040830152606081015160608301525050565b8260808301529392505050565b6000602082840312156154f557600080fd5b8151611e5481614990565b8183823760009101908152919050565b600080835461551e8161530f565b60018281168015615536576001811461554b5761557a565b60ff198416875282151583028701945061557a565b8760005260208060002060005b858110156155715781548a820152908401908201615558565b50505082870194505b50929695505050505050565b8381526001600160a01b0383166020820152606081016155a583614ed9565b826040830152949350505050565b601f821115613490576000816000526020600020601f850160051c810160208610156155dc5750805b601f850160051c820191505b818110156155fb578281556001016155e8565b505050505050565b6001600160401b0383111561561a5761561a614a65565b61562e83615628835461530f565b836155b3565b6000601f841160018114615662576000851561564a5750838201355b600019600387901b1c1916600186901b1783556156bc565b600083815260209020601f19861690835b828110156156935786850135825560209485019460019092019101615673565b50868210156156b05760001960f88860031b161c19848701351681555b505060018560011b0183555b5050505050565b80820281158282048414176119045761190461460f565b81516001600160401b038111156156f3576156f3614a65565b61570781615701845461530f565b846155b3565b602080601f83116001811461573c57600084156157245750858301515b600019600386901b1c1916600185901b1785556155fb565b600085815260208120601f198616915b8281101561576b5788860151825594840194600190910190840161574c565b50858210156157895787850151600019600388901b60f8161c191681555b5050505050600190811b01905550565b60e0815260006157ac60e083018a614dd1565b82810360208401526157be818a614d82565b905082810360408401526157d28189614fb7565b905082810360608401526157e6818861469f565b905082810360808401526157fa818761469f565b905082810360a084015261580e818661469f565b9150508260c083015298975050505050505050565b6000828254808552602080860195506005818360051b8501016000878152838120815b868110156158d957601f19888503018b528282546158638161530f565b8087526001828116801561587e5760018114615897576158c2565b60ff198416898c01528215158a1b89018b0194506158c2565b8688528a8820885b848110156158ba5781548b82018e0152908301908c0161589f565b8a018c019550505b509d89019d92965050509190910190600101615846565b50919998505050505050505050565b600060808201868352602060808185015281875480845260a08601915060009350888452828420845b828110156159365781546001600160a01b031684529284019260019182019101615911565b50505084810360408601528654808252878452828420918301905b8085101561597057825482526001948501949092019190830190615951565b50858103606087015261475f8188615823565b60006020828403121561599557600080fd5b5051919050565b600082516159ae81846020870161467b565b9190910192915050565b6001600160e01b0319848116825283166020820152606060408201819052600090613d1990830184614d82565b600060208083850312156159f857600080fd5b82516001600160401b0380821115615a0f57600080fd5b9084019060408287031215615a2357600080fd5b615a2b614a7b565b8251615a36816148e6565b81528284015182811115615a4957600080fd5b80840193505086601f840112615a5e57600080fd5b82519150615a6e614b1783614ad3565b82815260059290921b83018401918481019088841115615a8d57600080fd5b938501935b83851015615aab57845182529385019390850190615a92565b94820194909452969550505050505056fea26469706673582212204ec6240f69706a57bacbc7aa1b7c117dd21ce62d56d46f7eba4fab2e73f386c364736f6c63430008190033",
  "linkReferences": {},
  "deployedLinkReferences": {}
}