{
  "_format": "hh-sol-artifact-1",
  "contractName": "DiamondDaoTest",
  "sourceName": "contracts/DiamondDaoTest.sol",
  "abi": [
    {
      "inputs": [],
      "stateMutability": "nonpayable",
      "type": "constructor"
    },
    {
      "inputs": [
        {
          "internalType": "bytes",
          "name": "funcSelector",
          "type": "bytes"
        },
        {
          "internalType": "address",
          "name": "targetContract",
          "type": "address"
        }
      ],
      "name": "ContractCallFailed",
      "type": "error"
    },
    {
      "inputs": [
        {
          "internalType": "bytes4",
          "name": "funcSelector",
          "type": "bytes4"
        },
        {
          "internalType": "address",
          "name": "targetContract",
          "type": "address"
        }
      ],
      "name": "FunctionUpgradeNotAllowed",
      "type": "error"
    },
    {
      "inputs": [],
      "name": "InsufficientFunds",
      "type": "error"
    },
    {
      "inputs": [],
      "name": "InvalidArgument",
      "type": "error"
    },
    {
      "inputs": [],
      "name": "InvalidStartTimestamp",
      "type": "error"
    },
    {
      "inputs": [
        {
          "internalType": "uint256",
          "name": "currentVal",
          "type": "uint256"
        },
        {
          "internalType": "uint256",
          "name": "newVal",
          "type": "uint256"
        }
      ],
      "name": "InvalidUpgradeValue",
      "type": "error"
    },
    {
      "inputs": [],
      "name": "NewProposalsLimitExceeded",
      "type": "error"
    },
    {
      "inputs": [],
      "name": "OnlyGovernance",
      "type": "error"
    },
    {
      "inputs": [],
      "name": "OnlyProposer",
      "type": "error"
    },
    {
      "inputs": [
        {
          "internalType": "address",
          "name": "caller",
          "type": "address"
        }
      ],
      "name": "OnlyValidators",
      "type": "error"
    },
    {
      "inputs": [
        {
          "internalType": "uint256",
          "name": "proposalId",
          "type": "uint256"
        }
      ],
      "name": "ProposalAlreadyExist",
      "type": "error"
    },
    {
      "inputs": [
        {
          "internalType": "uint256",
          "name": "proposalId",
          "type": "uint256"
        }
      ],
      "name": "ProposalNotExist",
      "type": "error"
    },
    {
      "inputs": [
        {
          "internalType": "address",
          "name": "from",
          "type": "address"
        },
        {
          "internalType": "address",
          "name": "to",
          "type": "address"
        },
        {
          "internalType": "uint256",
          "name": "amount",
          "type": "uint256"
        }
      ],
      "name": "TransferFailed",
      "type": "error"
    },
    {
      "inputs": [
        {
          "internalType": "enum Phase",
          "name": "phase",
          "type": "uint8"
        }
      ],
      "name": "UnavailableInCurrentPhase",
      "type": "error"
    },
    {
      "inputs": [
        {
          "internalType": "uint256",
          "name": "proposalId",
          "type": "uint256"
        },
        {
          "internalType": "enum ProposalState",
          "name": "state",
          "type": "uint8"
        }
      ],
      "name": "UnexpectedProposalState",
      "type": "error"
    },
    {
      "anonymous": false,
      "inputs": [
        {
          "indexed": false,
          "internalType": "uint8",
          "name": "version",
          "type": "uint8"
        }
      ],
      "name": "Initialized",
      "type": "event"
    },
    {
      "anonymous": false,
      "inputs": [
        {
          "indexed": true,
          "internalType": "address",
          "name": "proposer",
          "type": "address"
        },
        {
          "indexed": true,
          "internalType": "uint256",
          "name": "proposalId",
          "type": "uint256"
        },
        {
          "indexed": false,
          "internalType": "string",
          "name": "reason",
          "type": "string"
        }
      ],
      "name": "ProposalCanceled",
      "type": "event"
    },
    {
      "anonymous": false,
      "inputs": [
        {
          "indexed": true,
          "internalType": "address",
          "name": "proposer",
          "type": "address"
        },
        {
          "indexed": true,
          "internalType": "uint256",
          "name": "proposalId",
          "type": "uint256"
        },
        {
          "indexed": false,
          "internalType": "address[]",
          "name": "targets",
          "type": "address[]"
        },
        {
          "indexed": false,
          "internalType": "uint256[]",
          "name": "values",
          "type": "uint256[]"
        },
        {
          "indexed": false,
          "internalType": "bytes[]",
          "name": "calldatas",
          "type": "bytes[]"
        },
        {
          "indexed": false,
          "internalType": "string",
          "name": "title",
          "type": "string"
        },
        {
          "indexed": false,
          "internalType": "string",
          "name": "description",
          "type": "string"
        },
        {
          "indexed": false,
          "internalType": "string",
          "name": "discussionUrl",
          "type": "string"
        }
      ],
      "name": "ProposalCreated",
      "type": "event"
    },
    {
      "anonymous": false,
      "inputs": [
        {
          "indexed": true,
          "internalType": "address",
          "name": "caller",
          "type": "address"
        },
        {
          "indexed": true,
          "internalType": "uint256",
          "name": "proposalId",
          "type": "uint256"
        }
      ],
      "name": "ProposalExecuted",
      "type": "event"
    },
    {
      "anonymous": false,
      "inputs": [
        {
          "indexed": false,
          "internalType": "bool",
          "name": "allowed",
          "type": "bool"
        },
        {
          "indexed": false,
          "internalType": "string",
          "name": "setter",
          "type": "string"
        },
        {
          "indexed": false,
          "internalType": "string",
          "name": "getter",
          "type": "string"
        },
        {
          "indexed": false,
          "internalType": "uint256[]",
          "name": "params",
          "type": "uint256[]"
        }
      ],
      "name": "SetChangeAbleParameters",
      "type": "event"
    },
    {
      "anonymous": false,
      "inputs": [
        {
          "indexed": false,
          "internalType": "uint256",
          "name": "fee",
          "type": "uint256"
        }
      ],
      "name": "SetCreateProposalFee",
      "type": "event"
    },
    {
      "anonymous": false,
      "inputs": [
        {
          "indexed": false,
          "internalType": "address",
          "name": "contractAddress",
          "type": "address"
        },
        {
          "indexed": false,
          "internalType": "bool",
          "name": "isCore",
          "type": "bool"
        }
      ],
      "name": "SetIsCoreContract",
      "type": "event"
    },
    {
      "anonymous": false,
      "inputs": [
        {
          "indexed": true,
          "internalType": "address",
          "name": "voter",
          "type": "address"
        },
        {
          "indexed": true,
          "internalType": "uint256",
          "name": "proposalId",
          "type": "uint256"
        },
        {
          "indexed": false,
          "internalType": "enum Vote",
          "name": "vote",
          "type": "uint8"
        }
      ],
      "name": "SubmitVote",
      "type": "event"
    },
    {
      "anonymous": false,
      "inputs": [
        {
          "indexed": true,
          "internalType": "address",
          "name": "voter",
          "type": "address"
        },
        {
          "indexed": true,
          "internalType": "uint256",
          "name": "proposalId",
          "type": "uint256"
        },
        {
          "indexed": false,
          "internalType": "enum Vote",
          "name": "vote",
          "type": "uint8"
        },
        {
          "indexed": false,
          "internalType": "string",
          "name": "reason",
          "type": "string"
        }
      ],
      "name": "SubmitVoteWithReason",
      "type": "event"
    },
    {
      "anonymous": false,
      "inputs": [
        {
          "indexed": false,
          "internalType": "enum Phase",
          "name": "phase",
          "type": "uint8"
        },
        {
          "indexed": false,
          "internalType": "uint256",
          "name": "start",
          "type": "uint256"
        },
        {
          "indexed": false,
          "internalType": "uint256",
          "name": "end",
          "type": "uint256"
        }
      ],
      "name": "SwitchDaoPhase",
      "type": "event"
    },
    {
      "anonymous": false,
      "inputs": [
        {
          "indexed": true,
          "internalType": "address",
          "name": "caller",
          "type": "address"
        },
        {
          "indexed": true,
          "internalType": "uint256",
          "name": "proposalId",
          "type": "uint256"
        },
        {
          "indexed": false,
          "internalType": "bool",
          "name": "accepted",
          "type": "bool"
        }
      ],
      "name": "VotingFinalized",
      "type": "event"
    },
    {
      "inputs": [],
      "name": "DAO_PHASE_DURATION",
      "outputs": [
        {
          "internalType": "uint64",
          "name": "",
          "type": "uint64"
        }
      ],
      "stateMutability": "view",
      "type": "function"
    },
    {
      "inputs": [],
      "name": "MAX_NEW_PROPOSALS",
      "outputs": [
        {
          "internalType": "uint256",
          "name": "",
          "type": "uint256"
        }
      ],
      "stateMutability": "view",
      "type": "function"
    },
    {
      "inputs": [
        {
          "internalType": "uint256",
          "name": "proposalId",
          "type": "uint256"
        },
        {
          "internalType": "string",
          "name": "reason",
          "type": "string"
        }
      ],
      "name": "cancel",
      "outputs": [],
      "stateMutability": "nonpayable",
      "type": "function"
    },
    {
      "inputs": [
        {
          "internalType": "uint256",
          "name": "proposalId",
          "type": "uint256"
        }
      ],
      "name": "countVotes",
      "outputs": [
        {
          "components": [
            {
              "internalType": "uint64",
              "name": "countYes",
              "type": "uint64"
            },
            {
              "internalType": "uint64",
              "name": "countNo",
              "type": "uint64"
            },
            {
              "internalType": "uint256",
              "name": "stakeYes",
              "type": "uint256"
            },
            {
              "internalType": "uint256",
              "name": "stakeNo",
              "type": "uint256"
            }
          ],
          "internalType": "struct VotingResult",
          "name": "",
          "type": "tuple"
        }
      ],
      "stateMutability": "view",
      "type": "function"
    },
    {
      "inputs": [],
      "name": "createProposalFee",
      "outputs": [
        {
          "internalType": "uint256",
          "name": "",
          "type": "uint256"
        }
      ],
      "stateMutability": "view",
      "type": "function"
    },
    {
      "inputs": [
        {
          "internalType": "uint256",
          "name": "",
          "type": "uint256"
        }
      ],
      "name": "currentPhaseProposals",
      "outputs": [
        {
          "internalType": "uint256",
          "name": "",
          "type": "uint256"
        }
      ],
      "stateMutability": "view",
      "type": "function"
    },
    {
      "inputs": [
        {
          "internalType": "uint256",
          "name": "",
          "type": "uint256"
        },
        {
          "internalType": "address",
          "name": "",
          "type": "address"
        }
      ],
      "name": "daoEpochStakeSnapshot",
      "outputs": [
        {
          "internalType": "uint256",
          "name": "",
          "type": "uint256"
        }
      ],
      "stateMutability": "view",
      "type": "function"
    },
    {
      "inputs": [],
      "name": "daoPhase",
      "outputs": [
        {
          "internalType": "uint64",
          "name": "start",
          "type": "uint64"
        },
        {
          "internalType": "uint64",
          "name": "end",
          "type": "uint64"
        },
        {
          "internalType": "uint64",
          "name": "daoEpoch",
          "type": "uint64"
        },
        {
          "internalType": "enum Phase",
          "name": "phase",
          "type": "uint8"
        }
      ],
      "stateMutability": "view",
      "type": "function"
    },
    {
      "inputs": [],
      "name": "daoPhaseCount",
      "outputs": [
        {
          "internalType": "uint256",
          "name": "",
          "type": "uint256"
        }
      ],
      "stateMutability": "view",
      "type": "function"
    },
    {
      "inputs": [
        {
          "internalType": "uint256",
          "name": "proposalId",
          "type": "uint256"
        }
      ],
      "name": "execute",
      "outputs": [],
      "stateMutability": "nonpayable",
      "type": "function"
    },
    {
      "inputs": [
        {
          "internalType": "uint256",
          "name": "proposalId",
          "type": "uint256"
        }
      ],
      "name": "finalize",
      "outputs": [],
      "stateMutability": "nonpayable",
      "type": "function"
    },
    {
      "inputs": [],
      "name": "getCurrentPhaseProposals",
      "outputs": [
        {
          "internalType": "uint256[]",
          "name": "",
          "type": "uint256[]"
        }
      ],
      "stateMutability": "view",
      "type": "function"
    },
    {
      "inputs": [
        {
          "internalType": "uint256",
          "name": "proposalId",
          "type": "uint256"
        }
      ],
      "name": "getProposal",
      "outputs": [
        {
          "components": [
            {
              "internalType": "address",
              "name": "proposer",
              "type": "address"
            },
            {
              "internalType": "uint64",
              "name": "votingDaoEpoch",
              "type": "uint64"
            },
            {
              "internalType": "enum ProposalState",
              "name": "state",
              "type": "uint8"
            },
            {
              "internalType": "address[]",
              "name": "targets",
              "type": "address[]"
            },
            {
              "internalType": "uint256[]",
              "name": "values",
              "type": "uint256[]"
            },
            {
              "internalType": "bytes[]",
              "name": "calldatas",
              "type": "bytes[]"
            },
            {
              "internalType": "string",
              "name": "title",
              "type": "string"
            },
            {
              "internalType": "string",
              "name": "description",
              "type": "string"
            },
            {
              "internalType": "string",
              "name": "discussionUrl",
              "type": "string"
            },
            {
              "internalType": "uint256",
              "name": "daoPhaseCount",
              "type": "uint256"
            },
            {
              "internalType": "enum ProposalType",
              "name": "proposalType",
              "type": "uint8"
            }
          ],
          "internalType": "struct Proposal",
          "name": "",
          "type": "tuple"
        }
      ],
      "stateMutability": "view",
      "type": "function"
    },
    {
      "inputs": [
        {
          "internalType": "uint256",
          "name": "proposalId",
          "type": "uint256"
        }
      ],
      "name": "getProposalVoters",
      "outputs": [
        {
          "internalType": "address[]",
          "name": "",
          "type": "address[]"
        }
      ],
      "stateMutability": "view",
      "type": "function"
    },
    {
      "inputs": [
        {
          "internalType": "uint256",
          "name": "proposalId",
          "type": "uint256"
        }
      ],
      "name": "getProposalVotersCount",
      "outputs": [
        {
          "internalType": "uint256",
          "name": "",
          "type": "uint256"
        }
      ],
      "stateMutability": "view",
      "type": "function"
    },
    {
      "inputs": [],
      "name": "governancePot",
      "outputs": [
        {
          "internalType": "uint256",
          "name": "",
          "type": "uint256"
        }
      ],
      "stateMutability": "view",
      "type": "function"
    },
    {
      "inputs": [
        {
          "internalType": "address[]",
          "name": "targets",
          "type": "address[]"
        },
        {
          "internalType": "uint256[]",
          "name": "values",
          "type": "uint256[]"
        },
        {
          "internalType": "bytes[]",
          "name": "calldatas",
          "type": "bytes[]"
        },
        {
          "internalType": "string",
          "name": "description",
          "type": "string"
        }
      ],
      "name": "hashProposal",
      "outputs": [
        {
          "internalType": "uint256",
          "name": "",
          "type": "uint256"
        }
      ],
      "stateMutability": "pure",
      "type": "function"
    },
    {
      "inputs": [
        {
          "internalType": "address",
          "name": "_validatorSet",
          "type": "address"
        },
        {
          "internalType": "address",
          "name": "_stakingHbbft",
          "type": "address"
        },
        {
          "internalType": "address",
          "name": "_reinsertPot",
          "type": "address"
        },
        {
          "internalType": "uint256",
          "name": "_createProposalFee",
          "type": "uint256"
        },
        {
          "internalType": "uint64",
          "name": "_startTimestamp",
          "type": "uint64"
        }
      ],
      "name": "initialize",
      "outputs": [],
      "stateMutability": "nonpayable",
      "type": "function"
    },
    {
      "inputs": [
        {
          "internalType": "address",
          "name": "",
          "type": "address"
        }
      ],
      "name": "isCoreContract",
      "outputs": [
        {
          "internalType": "bool",
          "name": "",
          "type": "bool"
        }
      ],
      "stateMutability": "view",
      "type": "function"
    },
    {
      "inputs": [
        {
          "internalType": "uint256",
          "name": "proposalId",
          "type": "uint256"
        }
      ],
      "name": "proposalExists",
      "outputs": [
        {
          "internalType": "bool",
          "name": "",
          "type": "bool"
        }
      ],
      "stateMutability": "view",
      "type": "function"
    },
    {
      "inputs": [
        {
          "internalType": "uint256",
          "name": "",
          "type": "uint256"
        }
      ],
      "name": "proposals",
      "outputs": [
        {
          "internalType": "address",
          "name": "proposer",
          "type": "address"
        },
        {
          "internalType": "uint64",
          "name": "votingDaoEpoch",
          "type": "uint64"
        },
        {
          "internalType": "enum ProposalState",
          "name": "state",
          "type": "uint8"
        },
        {
          "internalType": "string",
          "name": "title",
          "type": "string"
        },
        {
          "internalType": "string",
          "name": "description",
          "type": "string"
        },
        {
          "internalType": "string",
          "name": "discussionUrl",
          "type": "string"
        },
        {
          "internalType": "uint256",
          "name": "daoPhaseCount",
          "type": "uint256"
        },
        {
          "internalType": "enum ProposalType",
          "name": "proposalType",
          "type": "uint8"
        }
      ],
      "stateMutability": "view",
      "type": "function"
    },
    {
      "inputs": [
        {
          "internalType": "address[]",
          "name": "targets",
          "type": "address[]"
        },
        {
          "internalType": "uint256[]",
          "name": "values",
          "type": "uint256[]"
        },
        {
          "internalType": "bytes[]",
          "name": "calldatas",
          "type": "bytes[]"
        },
        {
          "internalType": "string",
          "name": "title",
          "type": "string"
        },
        {
          "internalType": "string",
          "name": "description",
          "type": "string"
        },
        {
          "internalType": "string",
          "name": "discussionUrl",
          "type": "string"
        }
      ],
      "name": "propose",
      "outputs": [],
      "stateMutability": "payable",
      "type": "function"
    },
    {
      "inputs": [
        {
          "internalType": "enum ProposalType",
          "name": "_type",
          "type": "uint8"
        },
        {
          "components": [
            {
              "internalType": "uint64",
              "name": "countYes",
              "type": "uint64"
            },
            {
              "internalType": "uint64",
              "name": "countNo",
              "type": "uint64"
            },
            {
              "internalType": "uint256",
              "name": "stakeYes",
              "type": "uint256"
            },
            {
              "internalType": "uint256",
              "name": "stakeNo",
              "type": "uint256"
            }
          ],
          "internalType": "struct VotingResult",
          "name": "result",
          "type": "tuple"
        }
      ],
      "name": "quorumReached",
      "outputs": [
        {
          "internalType": "bool",
          "name": "",
          "type": "bool"
        }
      ],
      "stateMutability": "view",
      "type": "function"
    },
    {
      "inputs": [],
      "name": "reinsertPot",
      "outputs": [
        {
          "internalType": "address",
          "name": "",
          "type": "address"
        }
      ],
      "stateMutability": "view",
      "type": "function"
    },
    {
      "inputs": [
        {
          "internalType": "uint256",
          "name": "",
          "type": "uint256"
        }
      ],
      "name": "results",
      "outputs": [
        {
          "internalType": "uint64",
          "name": "countYes",
          "type": "uint64"
        },
        {
          "internalType": "uint64",
          "name": "countNo",
          "type": "uint64"
        },
        {
          "internalType": "uint256",
          "name": "stakeYes",
          "type": "uint256"
        },
        {
          "internalType": "uint256",
          "name": "stakeNo",
          "type": "uint256"
        }
      ],
      "stateMutability": "view",
      "type": "function"
    },
    {
      "inputs": [
        {
          "internalType": "uint256",
          "name": "_fee",
          "type": "uint256"
        }
      ],
      "name": "setCreateProposalFee",
      "outputs": [],
      "stateMutability": "nonpayable",
      "type": "function"
    },
    {
      "inputs": [
        {
          "internalType": "address",
          "name": "_add",
          "type": "address"
        },
        {
          "internalType": "bool",
          "name": "isCore",
          "type": "bool"
        }
      ],
      "name": "setIsCoreContract",
      "outputs": [],
      "stateMutability": "nonpayable",
      "type": "function"
    },
    {
      "inputs": [],
      "name": "stakingHbbft",
      "outputs": [
        {
          "internalType": "contract IStakingHbbft",
          "name": "",
          "type": "address"
        }
      ],
      "stateMutability": "view",
      "type": "function"
    },
    {
      "inputs": [],
      "name": "statistic",
      "outputs": [
        {
          "internalType": "uint64",
          "name": "total",
          "type": "uint64"
        },
        {
          "internalType": "uint64",
          "name": "accepted",
          "type": "uint64"
        },
        {
          "internalType": "uint64",
          "name": "declined",
          "type": "uint64"
        },
        {
          "internalType": "uint64",
          "name": "canceled",
          "type": "uint64"
        }
      ],
      "stateMutability": "view",
      "type": "function"
    },
    {
      "inputs": [],
      "name": "switchPhase",
      "outputs": [],
      "stateMutability": "nonpayable",
      "type": "function"
    },
    {
      "inputs": [],
      "name": "validatorSet",
      "outputs": [
        {
          "internalType": "contract IValidatorSetHbbft",
          "name": "",
          "type": "address"
        }
      ],
      "stateMutability": "view",
      "type": "function"
    },
    {
      "inputs": [
        {
          "internalType": "uint256",
          "name": "proposalId",
          "type": "uint256"
        },
        {
          "internalType": "enum Vote",
          "name": "_vote",
          "type": "uint8"
        }
      ],
      "name": "vote",
      "outputs": [],
      "stateMutability": "nonpayable",
      "type": "function"
    },
    {
      "inputs": [
        {
          "internalType": "uint256",
          "name": "proposalId",
          "type": "uint256"
        },
        {
          "internalType": "enum Vote",
          "name": "_vote",
          "type": "uint8"
        },
        {
          "internalType": "string",
          "name": "reason",
          "type": "string"
        }
      ],
      "name": "voteWithReason",
      "outputs": [],
      "stateMutability": "nonpayable",
      "type": "function"
    },
    {
      "inputs": [
        {
          "internalType": "uint256",
          "name": "",
          "type": "uint256"
        },
        {
          "internalType": "address",
          "name": "",
          "type": "address"
        }
      ],
      "name": "votes",
      "outputs": [
        {
          "internalType": "uint64",
          "name": "timestamp",
          "type": "uint64"
        },
        {
          "internalType": "enum Vote",
          "name": "vote",
          "type": "uint8"
        },
        {
          "internalType": "string",
          "name": "reason",
          "type": "string"
        }
      ],
      "stateMutability": "view",
      "type": "function"
    },
    {
      "stateMutability": "payable",
      "type": "receive"
    }
  ],
  "bytecode": "0x60806040523480156200001157600080fd5b506200001c62000022565b620000e3565b600054610100900460ff16156200008f5760405162461bcd60e51b815260206004820152602760248201527f496e697469616c697a61626c653a20636f6e747261637420697320696e697469604482015266616c697a696e6760c81b606482015260840160405180910390fd5b60005460ff90811614620000e1576000805460ff191660ff9081179091556040519081527f7f26b83ff96e1f2b6a682f133852f6798a09c465da95921460cefb38474024989060200160405180910390a15b565b613eb280620000f36000396000f3fe60806040526004361061021d5760003560e01c8063950e3e441161011d578063c7f758a8116100b0578063ec47c4711161007f578063f22d232611610064578063f22d2326146107e1578063fe0d94c1146107f7578063ff71d6771461081757600080fd5b8063ec47c471146107ac578063ed965ddc146107c157600080fd5b8063c7f758a814610700578063d22a20cd1461072d578063d23254b41461075d578063deec4e521461078c57600080fd5b8063ab0eb62d116100ec578063ab0eb62d1461065b578063ab266e1014610670578063b131b6a514610690578063c3b66bed146106e057600080fd5b8063950e3e44146105be57806395dd7fb9146105de578063a68f34f714610600578063aa72e3b91461062d57600080fd5b80632baffa3f116101b05780636b6d33da1161017f57806373f129581161016457806373f129581461055e5780639426e2261461057e578063943e82161461059e57600080fd5b80636b6d33da146105165780637293368d1461054b57600080fd5b80632baffa3f1461044057806331e40733146104645780633c5fc711146104845780635e8815f2146104f657600080fd5b80631374b22d116101ec5780631374b22d146103085780631536f472146103405780631840f0ca146103605780631b0c27da146103c557600080fd5b8063013cf08b1461024157806305261aea1461027e57806311693b21146102a05780631243e6cb146102d057600080fd5b3661023c573460366000828254610234919061301a565b925050819055005b600080fd5b34801561024d57600080fd5b5061026161025c36600461302d565b61082d565b6040516102759897969594939291906130d9565b60405180910390f35b34801561028a57600080fd5b5061029e61029936600461302d565b610a24565b005b3480156102ac57600080fd5b506102c06102bb3660046131d4565b610c1d565b6040519015158152602001610275565b3480156102dc57600080fd5b506038546102f0906001600160a01b031681565b6040516001600160a01b039091168152602001610275565b34801561031457600080fd5b506102c061032336600461302d565b6000908152603c60205260409020546001600160a01b0316151590565b34801561034c57600080fd5b5061029e61035b3660046132b3565b610cae565b34801561036c57600080fd5b5061038061037b36600461302d565b610dc2565b604051610275919060006080820190506001600160401b0380845116835280602085015116602084015250604083015160408301526060830151606083015292915050565b3480156103d157600080fd5b506104156103e036600461302d565b603e602052600090815260409020805460018201546002909201546001600160401b0380831693600160401b90930416919084565b604080516001600160401b039586168152949093166020850152918301526060820152608001610275565b34801561044c57600080fd5b5061045660365481565b604051908152602001610275565b34801561047057600080fd5b5061029e61047f3660046132fe565b610f56565b34801561049057600080fd5b506039546104c3906001600160401b0380821691600160401b8104821691600160801b8204811691600160c01b90041684565b604080516001600160401b0395861681529385166020850152918416918301919091529091166060820152608001610275565b34801561050257600080fd5b5061029e61051136600461337e565b611073565b34801561052257600080fd5b506104566105313660046133b5565b604060208181526000938452818420905290825290205481565b61029e6105593660046135dc565b6110f6565b34801561056a57600080fd5b506034546102f0906001600160a01b031681565b34801561058a57600080fd5b506037546102f0906001600160a01b031681565b3480156105aa57600080fd5b5061029e6105b93660046136d0565b611584565b3480156105ca57600080fd5b506104566105d93660046136f5565b611665565b3480156105ea57600080fd5b506105f36116ab565b60405161027591906137dc565b34801561060c57600080fd5b5061062061061b36600461302d565b611703565b6040516102759190613828565b34801561063957600080fd5b50610643610e1081565b6040516001600160401b039091168152602001610275565b34801561066757600080fd5b5061029e61171d565b34801561067c57600080fd5b5061029e61068b36600461302d565b611a38565b34801561069c57600080fd5b50603a546106d0906001600160401b0380821691600160401b8104821691600160801b82041690600160c01b900460ff1684565b604051610275949392919061384b565b3480156106ec57600080fd5b506104566106fb36600461302d565b611ab4565b34801561070c57600080fd5b5061072061071b36600461302d565b611acb565b60405161027591906138d6565b34801561073957600080fd5b506102c0610748366004613a00565b603d6020526000908152604090205460ff1681565b34801561076957600080fd5b5061077d6107783660046133b5565b611ed5565b60405161027593929190613a1b565b34801561079857600080fd5b5061029e6107a7366004613a4c565b611f9b565b3480156107b857600080fd5b50610456606481565b3480156107cd57600080fd5b506104566107dc36600461302d565b612225565b3480156107ed57600080fd5b5061045660355481565b34801561080357600080fd5b5061029e61081236600461302d565b612246565b34801561082357600080fd5b5061045660335481565b603c60205260009081526040902080546004820180546001600160a01b03831693600160a01b84046001600160401b031693600160e01b900460ff1692909161087590613aaa565b80601f01602080910402602001604051908101604052809291908181526020018280546108a190613aaa565b80156108ee5780601f106108c3576101008083540402835291602001916108ee565b820191906000526020600020905b8154815290600101906020018083116108d157829003601f168201915b50505050509080600501805461090390613aaa565b80601f016020809104026020016040519081016040528092919081815260200182805461092f90613aaa565b801561097c5780601f106109515761010080835404028352916020019161097c565b820191906000526020600020905b81548152906001019060200180831161095f57829003601f168201915b50505050509080600601805461099190613aaa565b80601f01602080910402602001604051908101604052809291908181526020018280546109bd90613aaa565b8015610a0a5780601f106109df57610100808354040283529160200191610a0a565b820191906000526020600020905b8154815290600101906020018083116109ed57829003601f168201915b50505050600783015460089093015491929160ff16905088565b6000818152603c602052604090205481906001600160a01b0316610a635760405163986731a160e01b8152600481018290526024015b60405180910390fd5b610a6e826003612481565b6000828152603c6020526040812090610a888460016124dd565b6000858152603e602090815260409182902090830151815484516fffffffffffffffffffffffffffffffff19909116600160401b6001600160401b039384160267ffffffffffffffff1916179116178155606083015160028201559082015160019091015590506008820154600090610b049060ff1683610c1d565b905080610b12576005610b15565b60045b8354849060ff60e01b1916600160e01b836006811115610b3757610b37613046565b02179055508015610b91576039805460019190600890610b68908490600160401b90046001600160401b0316613ade565b92506101000a8154816001600160401b0302191690836001600160401b03160217905550610bdc565b6039805460019190601090610bb7908490600160801b90046001600160401b0316613ade565b92506101000a8154816001600160401b0302191690836001600160401b031602179055505b6040518115158152859033907f4a82eb80f2a86beb92f5670422f698264b3511048a29b400a6a1ce684769581e906020015b60405180910390a35050505050565b6000806000610c356038546001600160a01b03163190565b90506001856002811115610c4b57610c4b613046565b03610c7057612710610c5f82611388613afe565b610c699190613b15565b9150610c8c565b612710610c7f82610ce4613afe565b610c899190613b15565b91505b818460600151610c9c919061301a565b84604001511015925050505b92915050565b6000838152603c602052604090205483906001600160a01b0316610ce85760405163986731a160e01b815260048101829052602401610a5a565b6000848152603c6020526040902080546001600160a01b03163314610d2057604051630608c7c960e51b815260040160405180910390fd5b610d2b856000612481565b805460ff60e01b1916600160e01b1781556039805460019190601890610d62908490600160c01b90046001600160401b0316613ade565b92506101000a8154816001600160401b0302191690836001600160401b0316021790555084336001600160a01b03167fd16ff8053e1476416f5be14c32305a3652ac0b182ac04ede8c101d867b75bd148686604051610c0e929190613b60565b6040805160808101825260008082526020820181905291810182905260608101919091526000828152603c602052604090205482906001600160a01b0316610e205760405163986731a160e01b815260048101829052602401610a5a565b6000838152603c6020526040902054600160e01b900460ff166004816006811115610e4d57610e4d613046565b1480610e6a57506005816006811115610e6857610e68613046565b145b80610e8657506006816006811115610e8457610e84613046565b145b15610ee357506000838152603e6020908152604091829020825160808101845281546001600160401b038082168352600160401b909104169281019290925260018101549282019290925260029091015460608201529150610f50565b6003816006811115610ef757610ef7613046565b03610f0f57610f078460016124dd565b925050610f50565b6002816006811115610f2357610f23613046565b03610f3357610f078460006124dd565b838160405163605cfad560e01b8152600401610a5a929190613b7c565b50919050565b6000848152603c602052604090205484906001600160a01b0316610f905760405163986731a160e01b815260048101829052602401610a5a565b600180603a54600160c01b900460ff166001811115610fb157610fb1613046565b14610fdd57603a546040516378030af960e11b8152610a5a91600160c01b900460ff1690600401613b90565b600033905061102481888888888080601f01602080910402602001604051908101604052809392919081815260200183838082843760009201919091525061270b92505050565b86816001600160a01b03167fde85a12bb3f2d766e67cf54febc7c53ae9c500da072f8fdfb34aba5ca5525ebf88888860405161106293929190613b9e565b60405180910390a350505050505050565b333014611093576040516354348f0360e01b815260040160405180910390fd5b6001600160a01b0382166000818152603d6020908152604091829020805460ff19168515159081179091558251938452908301527fc73e95af540565c649d9453cb23b01f505752b94f04ff81b52ce528047232f23910160405180910390a15050565b600080603a54600160c01b900460ff16600181111561111757611117613046565b1461114357603a546040516378030af960e11b8152610a5a91600160c01b900460ff1690600401613b90565b868560005b82518110156112e157603d600084838151811061116757611167613bc1565b6020908102919091018101516001600160a01b031682528101919091526040016000205460ff16156112cf576000806111c28484815181106111ab576111ab613bc1565b602002602001015160208101516024909101519091565b915091508483815181106111d8576111d8613bc1565b602090810291909101015160405163ba08d23760e01b81527fffffffff0000000000000000000000000000000000000000000000000000000084166004820152602481018390526001600160a01b039091169063ba08d23790604401602060405180830381865afa158015611251573d6000803e3d6000fd5b505050506040513d601f19601f820116820180604052508101906112759190613bd7565b6112cc5760405162461bcd60e51b815260206004820152602260248201527f6e65772076616c7565206e6f742077697468696e20616c6c6f7765642072616e604482015261676560f01b6064820152608401610a5a565b50505b806112d981613bf4565b915050611148565b50875189511415806112f557508651895114155b806112ff57508851155b1561131d5760405163a9cb9e0d60e01b815260040160405180910390fd5b603554341461133f5760405163356680b760e01b815260040160405180910390fd5b603b5460641161136257604051633f2ad2e160e11b815260040160405180910390fd5b60006113708a8a8a89611665565b6000818152603c60205260409020549091506001600160a01b0316156113ac5760405163d3df438360e01b815260048101829052602401610a5a565b6000818152603c6020908152604090912080547fffffff00ffffffffffffffff0000000000000000000000000000000000000000163360ff60e01b1981169190911782558c5190926114059160018401918f0190612e11565b508a5161141b90600283019060208e0190612e83565b50895161143190600383019060208d0190612ebe565b50600481016114408a82613c53565b506005810161144f8982613c53565b506006810161145e8882613c53565b5060335460078201556114718c8b61281c565b60088201805460ff1916600183600281111561148f5761148f613046565b0217905550603b80546001818101835560009283527fbbe3212124853f8b0084a66a2d057c2966e251e132af3691db153ab65f0d1a4d90910185905560398054919290916114e79084906001600160401b0316613ade565b92506101000a8154816001600160401b0302191690836001600160401b0316021790555061152a603460009054906101000a90046001600160a01b0316346128ba565b82826001600160a01b03167f0862e0d24b6284416802acfafc53281043e0ef028202f20e81e6e3c133e78a888e8e8e8e8e8e60405161156e96959493929190613d12565b60405180910390a3505050505050505050505050565b6000828152603c602052604090205482906001600160a01b03166115be5760405163986731a160e01b815260048101829052602401610a5a565b600180603a54600160c01b900460ff1660018111156115df576115df613046565b1461160b57603a546040516378030af960e11b8152610a5a91600160c01b900460ff1690600401613b90565b600033905061162b8186866040518060200160405280600081525061270b565b84816001600160a01b03167f343f24b88bd3789b60993251090e2184e0e4ae199d79b14a510fc1a08b51f51486604051610c0e9190613d94565b60008082805190602001209050858585836040516020016116899493929190613da7565b60408051601f1981840301815291905280516020909101209695505050505050565b6060603b8054806020026020016040519081016040528092919081815260200182805480156116f957602002820191906000526020600020905b8154815260200190600101908083116116e5575b5050505050905090565b6000818152604260205260409020606090610ca890612946565b600080603a54600160c01b900460ff16600181111561173e5761173e613046565b1461174a57600061174d565b60015b9050600061175c426001613ade565b603a805467ffffffffffffffff19166001600160401b0383161790559050611786610e1082613ade565b603a80546001600160401b0392909216600160401b026fffffffffffffffff00000000000000001983168117825584927fffffffffffffff00ffffffffffffffffffffffffffffffffffffffffffffffff9091167fffffffffffffff00ffffffffffffffff0000000000000000ffffffffffffffff90911617600160c01b83600181111561181657611816613046565b02179055506000600183600181111561183157611831613046565b1461183d576003611840565b60025b90506000600382600681111561185857611858613046565b14905060005b603b5481101561192c576000603b828154811061187d5761187d613bc1565b6000918252602080832090910154808352603c90915260409091208054919250859160ff60e01b1916600160e01b8360068111156118bd576118bd613046565b0217905550821561191b57603a546000828152603c6020526040902080547fffffffff0000000000000000ffffffffffffffffffffffffffffffffffffffff16600160801b9092046001600160401b0316600160a01b029190911790555b5061192581613bf4565b905061185e565b50801561199a57603a5461194f90600160801b90046001600160401b031661295a565b603a805460019190601090611975908490600160801b90046001600160401b0316613ade565b92506101000a8154816001600160401b0302191690836001600160401b031602179055505b60008460018111156119ae576119ae613046565b036119d8576001603360008282546119c6919061301a565b909155506119d89050603b6000612f10565b603a546040517f4887f063ba2113285aba0e893c372b65da5e458b463fb01fdf1fe0d266acff0e91611a2a9160ff600160c01b830416916001600160401b0380821692600160401b9092041690613df2565b60405180910390a150505050565b333014611a58576040516354348f0360e01b815260040160405180910390fd5b80600003611a795760405163a9cb9e0d60e01b815260040160405180910390fd5b60358190556040518181527f7d6e1cf0de9a5ba39e02e05972eb08471682fc361b20458a3f200f7bf087b5359060200160405180910390a150565b6000818152604260205260408120610ca890612a5f565b611ad3612f2e565b6000828152603c602090815260409182902082516101608101845281546001600160a01b0381168252600160a01b81046001600160401b03169382019390935292909190830190600160e01b900460ff166006811115611b3557611b35613046565b6006811115611b4657611b46613046565b815260200160018201805480602002602001604051908101604052809291908181526020018280548015611ba357602002820191906000526020600020905b81546001600160a01b03168152600190910190602001808311611b85575b5050505050815260200160028201805480602002602001604051908101604052809291908181526020018280548015611bfb57602002820191906000526020600020905b815481526020019060010190808311611be7575b5050505050815260200160038201805480602002602001604051908101604052809291908181526020016000905b82821015611cd5578382906000526020600020018054611c4890613aaa565b80601f0160208091040260200160405190810160405280929190818152602001828054611c7490613aaa565b8015611cc15780601f10611c9657610100808354040283529160200191611cc1565b820191906000526020600020905b815481529060010190602001808311611ca457829003601f168201915b505050505081526020019060010190611c29565b505050508152602001600482018054611ced90613aaa565b80601f0160208091040260200160405190810160405280929190818152602001828054611d1990613aaa565b8015611d665780601f10611d3b57610100808354040283529160200191611d66565b820191906000526020600020905b815481529060010190602001808311611d4957829003601f168201915b50505050508152602001600582018054611d7f90613aaa565b80601f0160208091040260200160405190810160405280929190818152602001828054611dab90613aaa565b8015611df85780601f10611dcd57610100808354040283529160200191611df8565b820191906000526020600020905b815481529060010190602001808311611ddb57829003601f168201915b50505050508152602001600682018054611e1190613aaa565b80601f0160208091040260200160405190810160405280929190818152602001828054611e3d90613aaa565b8015611e8a5780601f10611e5f57610100808354040283529160200191611e8a565b820191906000526020600020905b815481529060010190602001808311611e6d57829003601f168201915b505050918352505060078201546020820152600882015460409091019060ff166002811115611ebb57611ebb613046565b6002811115611ecc57611ecc613046565b90525092915050565b603f602090815260009283526040808420909152908252902080546001820180546001600160401b03831693600160401b90930460ff16929190611f1890613aaa565b80601f0160208091040260200160405190810160405280929190818152602001828054611f4490613aaa565b8015611f915780601f10611f6657610100808354040283529160200191611f91565b820191906000526020600020905b815481529060010190602001808311611f7457829003601f168201915b5050505050905083565b600054610100900460ff1615808015611fbb5750600054600160ff909116105b80611fd55750303b158015611fd5575060005460ff166001145b6120475760405162461bcd60e51b815260206004820152602e60248201527f496e697469616c697a61626c653a20636f6e747261637420697320616c72656160448201527f647920696e697469616c697a65640000000000000000000000000000000000006064820152608401610a5a565b6000805460ff19166001179055801561206a576000805461ff0019166101001790555b6001600160a01b038616158061208757506001600160a01b038416155b8061209957506001600160a01b038516155b806120a2575082155b156120c05760405163a9cb9e0d60e01b815260040160405180910390fd5b42826001600160401b031610156120ea576040516307f5e89560e51b815260040160405180910390fd5b6120f2612a69565b6037805473ffffffffffffffffffffffffffffffffffffffff199081166001600160a01b0389811691909117909255603880548216888416179055603480549091169186169190911790556035839055603a805467ffffffffffffffff19166001600160401b03841617905561216a610e1083613ade565b603a80546001600160401b0392909216600160401b027fffffffffffffff000000000000000000ffffffffffffffffffffffffffffffff167fffffffffffffff0000000000000000000000000000000000ffffffffffffffff90921691909117600160801b1790556001603355801561221d576000805461ff0019169055604051600181527f7f26b83ff96e1f2b6a682f133852f6798a09c465da95921460cefb38474024989060200160405180910390a15b505050505050565b603b818154811061223557600080fd5b600091825260209091200154905081565b61224e612ade565b6000818152603c602052604090205481906001600160a01b03166122885760405163986731a160e01b815260048101829052602401610a5a565b612293826004612481565b6000828152603c602052604090208054600690829060ff60e01b1916600160e01b8302179055506124468160010180548060200260200160405190810160405280929190818152602001828054801561231557602002820191906000526020600020905b81546001600160a01b031681526001909101906020018083116122f7575b50505050508260020180548060200260200160405190810160405280929190818152602001828054801561236857602002820191906000526020600020905b815481526020019060010190808311612354575b505050505083600301805480602002602001604051908101604052809291908181526020016000905b8282101561243d5783829060005260206000200180546123b090613aaa565b80601f01602080910402602001604051908101604052809291908181526020018280546123dc90613aaa565b80156124295780601f106123fe57610100808354040283529160200191612429565b820191906000526020600020905b81548152906001019060200180831161240c57829003601f168201915b505050505081526020019060010190612391565b50505050612b37565b604051839033907f7bfd03e44f31b1867e10c41d419cd8073b4719d321ccc5c3a3c79ac2babab3c390600090a3505061247e60018055565b50565b600061248c83611acb565b6040015190508160068111156124a4576124a4613046565b8160068111156124b6576124b6613046565b146124d857828160405163605cfad560e01b8152600401610a5a929190613b7c565b505050565b6040805160808082018352600080835260208084018290528385018290526060808501839052878352603c825285832054865194850187528385529184018390529483018290529382018190529192600160a01b90046001600160401b03169161254686611703565b905060005b815181101561270057600082828151811061256857612568613bc1565b60200260200101519050600087156125aa57506001600160401b0385166000908152604060208181528183206001600160a01b0385168452905290205461261b565b603854604051632933f0eb60e11b81526001600160a01b03848116600483015290911690635267e1d690602401602060405180830381865afa1580156125f4573d6000803e3d6000fd5b505050506040513d601f19601f820116820180604052508101906126189190613e21565b90505b6000898152603f602090815260408083206001600160a01b0386168452909152902054600160401b900460ff16600281600281111561265c5761265c613046565b0361269c576001866000018181516126749190613ade565b6001600160401b031690525060408601805183919061269490839061301a565b9052506126ec565b60018160028111156126b0576126b0613046565b036126ec576001866020018181516126c89190613ade565b6001600160401b03169052506060860180518391906126e890839061301a565b9052505b505050806126f990613bf4565b905061254b565b509095945050505050565b612716836002612481565b603a54600160801b90046001600160401b031660009081526041602052604090206127419085612ca3565b50600083815260426020526040902061275a9085612ca3565b506040518060600160405280426001600160401b0316815260200183600281111561278757612787613046565b815260209081018390526000858152603f825260408082206001600160a01b038916835283529020825181546001600160401b0390911667ffffffffffffffff19821681178355928401519192839168ffffffffffffffffff191617600160401b8360028111156127fa576127fa613046565b0217905550604082015160018201906128139082613c53565b50505050505050565b6000805b82518110156128b35782818151811061283b5761283b613bc1565b602002602001015151600003156128a157603d600085838151811061286257612862613bc1565b6020908102919091018101516001600160a01b031682528101919091526040016000205460ff161561289757600291506128a1565b6001915050610ca8565b806128ab81613bf4565b915050612820565b5092915050565b6000826001600160a01b03168260405160006040518083038185875af1925050503d8060008114612907576040519150601f19603f3d011682016040523d82523d6000602084013e61290c565b606091505b50509050806124d8576040516317e3057d60e31b81523060048201526001600160a01b038416602482015260448101839052606401610a5a565b6060600061295383612cb8565b9392505050565b6001600160401b038116600090815260416020526040812061297b90612946565b905060005b81518110156124d857600082828151811061299d5761299d613bc1565b6020908102919091010151603854604051632933f0eb60e11b81526001600160a01b03808416600483015292935060009290911690635267e1d690602401602060405180830381865afa1580156129f8573d6000803e3d6000fd5b505050506040513d601f19601f82011682018060405250810190612a1c9190613e21565b6001600160401b0386166000908152604060208181528183206001600160a01b03909616835294909452929092209190915550612a5881613bf4565b9050612980565b6000610ca8825490565b600054610100900460ff16612ad45760405162461bcd60e51b815260206004820152602b60248201527f496e697469616c697a61626c653a20636f6e7472616374206973206e6f74206960448201526a6e697469616c697a696e6760a81b6064820152608401610a5a565b612adc612d14565b565b600260015403612b305760405162461bcd60e51b815260206004820152601f60248201527f5265656e7472616e637947756172643a207265656e7472616e742063616c6c006044820152606401610a5a565b6002600155565b60005b8351811015612c9757600080858381518110612b5857612b58613bc1565b60200260200101516001600160a01b0316858481518110612b7b57612b7b613bc1565b6020026020010151858581518110612b9557612b95613bc1565b6020026020010151604051612baa9190613e3a565b60006040518083038185875af1925050503d8060008114612be7576040519150601f19603f3d011682016040523d82523d6000602084013e612bec565b606091505b5091509150612c3182826040518060400160405280601581526020017f6c6f772d6c6576656c2063616c6c206661696c65640000000000000000000000815250612d7f565b50848381518110612c4457612c44613bc1565b6020026020010151600014612c8457848381518110612c6557612c65613bc1565b602002602001015160366000828254612c7e9190613e56565b90915550505b505080612c9090613bf4565b9050612b3a565b50505050565b60018055565b6000612953836001600160a01b038416612d98565b606081600001805480602002602001604051908101604052809291908181526020018280548015612d0857602002820191906000526020600020905b815481526020019060010190808311612cf4575b50505050509050919050565b600054610100900460ff16612c9d5760405162461bcd60e51b815260206004820152602b60248201527f496e697469616c697a61626c653a20636f6e7472616374206973206e6f74206960448201526a6e697469616c697a696e6760a81b6064820152608401610a5a565b60608315612d8e575081612953565b6129538383612de7565b6000818152600183016020526040812054612ddf57508154600181810184556000848152602080822090930184905584548482528286019093526040902091909155610ca8565b506000610ca8565b815115612df75781518083602001fd5b8060405162461bcd60e51b8152600401610a5a9190613e69565b828054828255906000526020600020908101928215612e73579160200282015b82811115612e73578251825473ffffffffffffffffffffffffffffffffffffffff19166001600160a01b03909116178255602090920191600190910190612e31565b50612e7f929150612f98565b5090565b828054828255906000526020600020908101928215612e73579160200282015b82811115612e73578251825591602001919060010190612ea3565b828054828255906000526020600020908101928215612f04579160200282015b82811115612f045782518290612ef49082613c53565b5091602001919060010190612ede565b50612e7f929150612fad565b508054600082559060005260206000209081019061247e9190612f98565b6040805161016081018252600080825260208201819052909182019081526020016060815260200160608152602001606081526020016060815260200160608152602001606081526020016000815260200160006002811115612f9357612f93613046565b905290565b5b80821115612e7f5760008155600101612f99565b80821115612e7f576000612fc18282612fca565b50600101612fad565b508054612fd690613aaa565b6000825580601f10612fe6575050565b601f01602090049060005260206000209081019061247e9190612f98565b634e487b7160e01b600052601160045260246000fd5b80820180821115610ca857610ca8613004565b60006020828403121561303f57600080fd5b5035919050565b634e487b7160e01b600052602160045260246000fd5b6007811061306c5761306c613046565b9052565b60005b8381101561308b578181015183820152602001613073565b50506000910152565b600081518084526130ac816020860160208601613070565b601f01601f19169290920160200192915050565b6003811061247e5761247e613046565b61306c816130c0565b60006101006001600160a01b038b1683526001600160401b038a166020840152613106604084018a61305c565b80606084015261311881840189613094565b9050828103608084015261312c8188613094565b905082810360a08401526131408187613094565b9150508360c0830152613152836130c0565b8260e08301529998505050505050505050565b6003811061247e57600080fd5b634e487b7160e01b600052604160045260246000fd5b604051601f8201601f191681016001600160401b03811182821017156131b0576131b0613172565b604052919050565b80356001600160401b03811681146131cf57600080fd5b919050565b60008082840360a08112156131e857600080fd5b83356131f381613165565b92506080601f198201121561320757600080fd5b50604051608081018181106001600160401b038211171561322a5761322a613172565b604052613239602085016131b8565b8152613247604085016131b8565b60208201526060840135604082015260808401356060820152809150509250929050565b60008083601f84011261327d57600080fd5b5081356001600160401b0381111561329457600080fd5b6020830191508360208285010111156132ac57600080fd5b9250929050565b6000806000604084860312156132c857600080fd5b8335925060208401356001600160401b038111156132e557600080fd5b6132f18682870161326b565b9497909650939450505050565b6000806000806060858703121561331457600080fd5b84359350602085013561332681613165565b925060408501356001600160401b0381111561334157600080fd5b61334d8782880161326b565b95989497509550505050565b80356001600160a01b03811681146131cf57600080fd5b801515811461247e57600080fd5b6000806040838503121561339157600080fd5b61339a83613359565b915060208301356133aa81613370565b809150509250929050565b600080604083850312156133c857600080fd5b823591506133d860208401613359565b90509250929050565b60006001600160401b038211156133fa576133fa613172565b5060051b60200190565b600082601f83011261341557600080fd5b8135602061342a613425836133e1565b613188565b82815260059290921b8401810191818101908684111561344957600080fd5b8286015b8481101561346b5761345e81613359565b835291830191830161344d565b509695505050505050565b600082601f83011261348757600080fd5b81356020613497613425836133e1565b82815260059290921b840181019181810190868411156134b657600080fd5b8286015b8481101561346b57803583529183019183016134ba565b60006001600160401b038311156134ea576134ea613172565b6134fd601f8401601f1916602001613188565b905082815283838301111561351157600080fd5b828260208301376000602084830101529392505050565b600082601f83011261353957600080fd5b81356020613549613425836133e1565b82815260059290921b8401810191818101908684111561356857600080fd5b8286015b8481101561346b5780356001600160401b0381111561358b5760008081fd5b8701603f8101891361359d5760008081fd5b6135ae8986830135604084016134d1565b84525091830191830161356c565b600082601f8301126135cd57600080fd5b612953838335602085016134d1565b60008060008060008060c087890312156135f557600080fd5b86356001600160401b038082111561360c57600080fd5b6136188a838b01613404565b9750602089013591508082111561362e57600080fd5b61363a8a838b01613476565b9650604089013591508082111561365057600080fd5b61365c8a838b01613528565b9550606089013591508082111561367257600080fd5b61367e8a838b016135bc565b9450608089013591508082111561369457600080fd5b6136a08a838b016135bc565b935060a08901359150808211156136b657600080fd5b506136c389828a016135bc565b9150509295509295509295565b600080604083850312156136e357600080fd5b8235915060208301356133aa81613165565b6000806000806080858703121561370b57600080fd5b84356001600160401b038082111561372257600080fd5b61372e88838901613404565b9550602087013591508082111561374457600080fd5b61375088838901613476565b9450604087013591508082111561376657600080fd5b61377288838901613528565b9350606087013591508082111561378857600080fd5b50613795878288016135bc565b91505092959194509250565b600081518084526020808501945080840160005b838110156137d1578151875295820195908201906001016137b5565b509495945050505050565b60208152600061295360208301846137a1565b600081518084526020808501945080840160005b838110156137d15781516001600160a01b031687529582019590820190600101613803565b60208152600061295360208301846137ef565b6002811061306c5761306c613046565b6001600160401b03858116825284811660208301528316604082015260808101613878606083018461383b565b95945050505050565b600081518084526020808501808196508360051b8101915082860160005b858110156138c95782840389526138b7848351613094565b9885019893509084019060010161389f565b5091979650505050505050565b602081526138f06020820183516001600160a01b03169052565b6000602083015161390c60408401826001600160401b03169052565b50604083015161391f606084018261305c565b50606083015161016080608085015261393c6101808501836137ef565b91506080850151601f19808685030160a087015261395a84836137a1565b935060a08701519150808685030160c08701526139778483613881565b935060c08701519150808685030160e08701526139948483613094565b935060e087015191506101008187860301818801526139b38584613094565b9450808801519250506101208187860301818801526139d28584613094565b908801516101408881019190915288015190945091506139f69050828601826130d0565b5090949350505050565b600060208284031215613a1257600080fd5b61295382613359565b6001600160401b0384168152613a30836130c0565b8260208201526060604082015260006138786060830184613094565b600080600080600060a08688031215613a6457600080fd5b613a6d86613359565b9450613a7b60208701613359565b9350613a8960408701613359565b925060608601359150613a9e608087016131b8565b90509295509295909350565b600181811c90821680613abe57607f821691505b602082108103610f5057634e487b7160e01b600052602260045260246000fd5b6001600160401b038181168382160190808211156128b3576128b3613004565b8082028115828204841417610ca857610ca8613004565b600082613b3257634e487b7160e01b600052601260045260246000fd5b500490565b81835281816020850137506000828201602090810191909152601f909101601f19169091010190565b602081526000613b74602083018486613b37565b949350505050565b82815260408101612953602083018461305c565b60208101610ca8828461383b565b613ba7846130c0565b838152604060208201526000613878604083018486613b37565b634e487b7160e01b600052603260045260246000fd5b600060208284031215613be957600080fd5b815161295381613370565b600060018201613c0657613c06613004565b5060010190565b601f8211156124d857600081815260208120601f850160051c81016020861015613c345750805b601f850160051c820191505b8181101561221d57828155600101613c40565b81516001600160401b03811115613c6c57613c6c613172565b613c8081613c7a8454613aaa565b84613c0d565b602080601f831160018114613cb55760008415613c9d5750858301515b600019600386901b1c1916600185901b17855561221d565b600085815260208120601f198616915b82811015613ce457888601518255948401946001909101908401613cc5565b5085821015613d025787850151600019600388901b60f8161c191681555b5050505050600190811b01905550565b60c081526000613d2560c08301896137ef565b8281036020840152613d3781896137a1565b90508281036040840152613d4b8188613881565b90508281036060840152613d5f8187613094565b90508281036080840152613d738186613094565b905082810360a0840152613d878185613094565b9998505050505050505050565b60208101613da1836130c0565b91905290565b608081526000613dba60808301876137ef565b8281036020840152613dcc81876137a1565b90508281036040840152613de08186613881565b91505082606083015295945050505050565b60608101613e00828661383b565b6001600160401b038085166020840152808416604084015250949350505050565b600060208284031215613e3357600080fd5b5051919050565b60008251613e4c818460208701613070565b9190910192915050565b81810381811115610ca857610ca8613004565b602081526000612953602083018461309456fea2646970667358221220968e9c2222337130f2a5c2b2052364e21a18ac38b91f6e178e2c645a1590490464736f6c63430008110033",
  "linkReferences": {},
  "deployedLinkReferences": {}
}