{
  "_format": "hh-sol-artifact-1",
  "contractName": "DiamondDao",
  "sourceName": "contracts/DiamondDao.sol",
  "abi": [
    {
      "inputs": [],
      "stateMutability": "nonpayable",
      "type": "constructor"
    },
    {
      "inputs": [
        {
          "internalType": "bytes",
          "name": "funcSelector",
          "type": "bytes"
        },
        {
          "internalType": "address",
          "name": "targetContract",
          "type": "address"
        }
      ],
      "name": "ContractCallFailed",
      "type": "error"
    },
    {
      "inputs": [],
      "name": "FailedInnerCall",
      "type": "error"
    },
    {
      "inputs": [
        {
          "internalType": "bytes4",
          "name": "funcSelector",
          "type": "bytes4"
        },
        {
          "internalType": "address",
          "name": "targetContract",
          "type": "address"
        }
      ],
      "name": "FunctionUpgradeNotAllowed",
      "type": "error"
    },
    {
      "inputs": [],
      "name": "GetterCallFailed",
      "type": "error"
    },
    {
      "inputs": [],
      "name": "InsufficientFunds",
      "type": "error"
    },
    {
      "inputs": [],
      "name": "InvalidArgument",
      "type": "error"
    },
    {
      "inputs": [],
      "name": "InvalidInitialization",
      "type": "error"
    },
    {
      "inputs": [],
      "name": "InvalidStartTimestamp",
      "type": "error"
    },
    {
      "inputs": [
        {
          "internalType": "uint256",
          "name": "currentVal",
          "type": "uint256"
        },
        {
          "internalType": "uint256",
          "name": "newVal",
          "type": "uint256"
        }
      ],
      "name": "InvalidUpgradeValue",
      "type": "error"
    },
    {
      "inputs": [],
      "name": "NewProposalsLimitExceeded",
      "type": "error"
    },
    {
      "inputs": [
        {
          "internalType": "uint256",
          "name": "_newVal",
          "type": "uint256"
        }
      ],
      "name": "NewValueOutOfRange",
      "type": "error"
    },
    {
      "inputs": [],
      "name": "NotInitializing",
      "type": "error"
    },
    {
      "inputs": [
        {
          "internalType": "uint256",
          "name": "proposalId",
          "type": "uint256"
        },
        {
          "internalType": "address",
          "name": "caller",
          "type": "address"
        }
      ],
      "name": "NotProposer",
      "type": "error"
    },
    {
      "inputs": [],
      "name": "OnlyGovernance",
      "type": "error"
    },
    {
      "inputs": [],
      "name": "OnlyProposer",
      "type": "error"
    },
    {
      "inputs": [
        {
          "internalType": "address",
          "name": "caller",
          "type": "address"
        }
      ],
      "name": "OnlyValidators",
      "type": "error"
    },
    {
      "inputs": [
        {
          "internalType": "uint256",
          "name": "proposalId",
          "type": "uint256"
        }
      ],
      "name": "OutsideExecutionWindow",
      "type": "error"
    },
    {
      "inputs": [
        {
          "internalType": "address",
          "name": "owner",
          "type": "address"
        }
      ],
      "name": "OwnableInvalidOwner",
      "type": "error"
    },
    {
      "inputs": [
        {
          "internalType": "address",
          "name": "account",
          "type": "address"
        }
      ],
      "name": "OwnableUnauthorizedAccount",
      "type": "error"
    },
    {
      "inputs": [
        {
          "internalType": "uint256",
          "name": "proposalId",
          "type": "uint256"
        }
      ],
      "name": "ProposalAlreadyExist",
      "type": "error"
    },
    {
      "inputs": [
        {
          "internalType": "uint256",
          "name": "proposalId",
          "type": "uint256"
        }
      ],
      "name": "ProposalNotExist",
      "type": "error"
    },
    {
      "inputs": [],
      "name": "ReentrancyGuardReentrantCall",
      "type": "error"
    },
    {
      "inputs": [
        {
          "internalType": "address",
          "name": "from",
          "type": "address"
        },
        {
          "internalType": "address",
          "name": "to",
          "type": "address"
        },
        {
          "internalType": "uint256",
          "name": "amount",
          "type": "uint256"
        }
      ],
      "name": "TransferFailed",
      "type": "error"
    },
    {
      "inputs": [
        {
          "internalType": "enum Phase",
          "name": "phase",
          "type": "uint8"
        }
      ],
      "name": "UnavailableInCurrentPhase",
      "type": "error"
    },
    {
      "inputs": [
        {
          "internalType": "uint256",
          "name": "proposalId",
          "type": "uint256"
        },
        {
          "internalType": "enum ProposalState",
          "name": "state",
          "type": "uint8"
        }
      ],
      "name": "UnexpectedProposalState",
      "type": "error"
    },
    {
      "inputs": [],
      "name": "UnfinalizedProposalsExist",
      "type": "error"
    },
    {
      "anonymous": false,
      "inputs": [
        {
          "indexed": false,
          "internalType": "uint64",
          "name": "version",
          "type": "uint64"
        }
      ],
      "name": "Initialized",
      "type": "event"
    },
    {
      "anonymous": false,
      "inputs": [
        {
          "indexed": true,
          "internalType": "address",
          "name": "previousOwner",
          "type": "address"
        },
        {
          "indexed": true,
          "internalType": "address",
          "name": "newOwner",
          "type": "address"
        }
      ],
      "name": "OwnershipTransferred",
      "type": "event"
    },
    {
      "anonymous": false,
      "inputs": [
        {
          "indexed": true,
          "internalType": "address",
          "name": "proposer",
          "type": "address"
        },
        {
          "indexed": true,
          "internalType": "uint256",
          "name": "proposalId",
          "type": "uint256"
        },
        {
          "indexed": false,
          "internalType": "string",
          "name": "reason",
          "type": "string"
        }
      ],
      "name": "ProposalCanceled",
      "type": "event"
    },
    {
      "anonymous": false,
      "inputs": [
        {
          "indexed": true,
          "internalType": "address",
          "name": "proposer",
          "type": "address"
        },
        {
          "indexed": true,
          "internalType": "uint256",
          "name": "proposalId",
          "type": "uint256"
        },
        {
          "indexed": false,
          "internalType": "address[]",
          "name": "targets",
          "type": "address[]"
        },
        {
          "indexed": false,
          "internalType": "uint256[]",
          "name": "values",
          "type": "uint256[]"
        },
        {
          "indexed": false,
          "internalType": "bytes[]",
          "name": "calldatas",
          "type": "bytes[]"
        },
        {
          "indexed": false,
          "internalType": "string",
          "name": "title",
          "type": "string"
        },
        {
          "indexed": false,
          "internalType": "string",
          "name": "description",
          "type": "string"
        },
        {
          "indexed": false,
          "internalType": "string",
          "name": "discussionUrl",
          "type": "string"
        },
        {
          "indexed": false,
          "internalType": "uint256",
          "name": "proposalFee",
          "type": "uint256"
        }
      ],
      "name": "ProposalCreated",
      "type": "event"
    },
    {
      "anonymous": false,
      "inputs": [
        {
          "indexed": true,
          "internalType": "address",
          "name": "caller",
          "type": "address"
        },
        {
          "indexed": true,
          "internalType": "uint256",
          "name": "proposalId",
          "type": "uint256"
        }
      ],
      "name": "ProposalExecuted",
      "type": "event"
    },
    {
      "anonymous": false,
      "inputs": [
        {
          "indexed": false,
          "internalType": "bytes4",
          "name": "funcSelector",
          "type": "bytes4"
        }
      ],
      "name": "RemoveChangeableParameter",
      "type": "event"
    },
    {
      "anonymous": false,
      "inputs": [
        {
          "indexed": false,
          "internalType": "bool",
          "name": "allowed",
          "type": "bool"
        },
        {
          "indexed": false,
          "internalType": "string",
          "name": "setter",
          "type": "string"
        },
        {
          "indexed": false,
          "internalType": "string",
          "name": "getter",
          "type": "string"
        },
        {
          "indexed": false,
          "internalType": "uint256[]",
          "name": "params",
          "type": "uint256[]"
        }
      ],
      "name": "SetChangeAbleParameters",
      "type": "event"
    },
    {
      "anonymous": false,
      "inputs": [
        {
          "indexed": false,
          "internalType": "bytes4",
          "name": "setter",
          "type": "bytes4"
        },
        {
          "indexed": false,
          "internalType": "bytes4",
          "name": "getter",
          "type": "bytes4"
        },
        {
          "indexed": false,
          "internalType": "uint256[]",
          "name": "params",
          "type": "uint256[]"
        }
      ],
      "name": "SetChangeableParameter",
      "type": "event"
    },
    {
      "anonymous": false,
      "inputs": [
        {
          "indexed": false,
          "internalType": "uint256",
          "name": "fee",
          "type": "uint256"
        }
      ],
      "name": "SetCreateProposalFee",
      "type": "event"
    },
    {
      "anonymous": false,
      "inputs": [
        {
          "indexed": false,
          "internalType": "address",
          "name": "contractAddress",
          "type": "address"
        },
        {
          "indexed": false,
          "internalType": "bool",
          "name": "isCore",
          "type": "bool"
        }
      ],
      "name": "SetIsCoreContract",
      "type": "event"
    },
    {
      "anonymous": false,
      "inputs": [
        {
          "indexed": true,
          "internalType": "address",
          "name": "voter",
          "type": "address"
        },
        {
          "indexed": true,
          "internalType": "uint256",
          "name": "proposalId",
          "type": "uint256"
        },
        {
          "indexed": false,
          "internalType": "enum Vote",
          "name": "vote",
          "type": "uint8"
        }
      ],
      "name": "SubmitVote",
      "type": "event"
    },
    {
      "anonymous": false,
      "inputs": [
        {
          "indexed": true,
          "internalType": "address",
          "name": "voter",
          "type": "address"
        },
        {
          "indexed": true,
          "internalType": "uint256",
          "name": "proposalId",
          "type": "uint256"
        },
        {
          "indexed": false,
          "internalType": "enum Vote",
          "name": "vote",
          "type": "uint8"
        },
        {
          "indexed": false,
          "internalType": "string",
          "name": "reason",
          "type": "string"
        }
      ],
      "name": "SubmitVoteWithReason",
      "type": "event"
    },
    {
      "anonymous": false,
      "inputs": [
        {
          "indexed": false,
          "internalType": "enum Phase",
          "name": "phase",
          "type": "uint8"
        },
        {
          "indexed": false,
          "internalType": "uint256",
          "name": "start",
          "type": "uint256"
        },
        {
          "indexed": false,
          "internalType": "uint256",
          "name": "end",
          "type": "uint256"
        }
      ],
      "name": "SwitchDaoPhase",
      "type": "event"
    },
    {
      "anonymous": false,
      "inputs": [
        {
          "indexed": true,
          "internalType": "address",
          "name": "caller",
          "type": "address"
        },
        {
          "indexed": true,
          "internalType": "uint256",
          "name": "proposalId",
          "type": "uint256"
        },
        {
          "indexed": false,
          "internalType": "bool",
          "name": "accepted",
          "type": "bool"
        }
      ],
      "name": "VotingFinalized",
      "type": "event"
    },
    {
      "inputs": [],
      "name": "DAO_PHASE_DURATION",
      "outputs": [
        {
          "internalType": "uint64",
          "name": "",
          "type": "uint64"
        }
      ],
      "stateMutability": "view",
      "type": "function"
    },
    {
      "inputs": [],
      "name": "MAX_NEW_PROPOSALS",
      "outputs": [
        {
          "internalType": "uint256",
          "name": "",
          "type": "uint256"
        }
      ],
      "stateMutability": "view",
      "type": "function"
    },
    {
      "inputs": [
        {
          "internalType": "uint256",
          "name": "proposalId",
          "type": "uint256"
        },
        {
          "internalType": "string",
          "name": "reason",
          "type": "string"
        }
      ],
      "name": "cancel",
      "outputs": [],
      "stateMutability": "nonpayable",
      "type": "function"
    },
    {
      "inputs": [
        {
          "internalType": "uint256",
          "name": "proposalId",
          "type": "uint256"
        }
      ],
      "name": "countVotes",
      "outputs": [
        {
          "components": [
            {
              "internalType": "uint64",
              "name": "countYes",
              "type": "uint64"
            },
            {
              "internalType": "uint64",
              "name": "countNo",
              "type": "uint64"
            },
            {
              "internalType": "uint256",
              "name": "stakeYes",
              "type": "uint256"
            },
            {
              "internalType": "uint256",
              "name": "stakeNo",
              "type": "uint256"
            }
          ],
          "internalType": "struct VotingResult",
          "name": "",
          "type": "tuple"
        }
      ],
      "stateMutability": "view",
      "type": "function"
    },
    {
      "inputs": [],
      "name": "createProposalFee",
      "outputs": [
        {
          "internalType": "uint256",
          "name": "",
          "type": "uint256"
        }
      ],
      "stateMutability": "view",
      "type": "function"
    },
    {
      "inputs": [
        {
          "internalType": "uint256",
          "name": "",
          "type": "uint256"
        }
      ],
      "name": "currentPhaseProposals",
      "outputs": [
        {
          "internalType": "uint256",
          "name": "",
          "type": "uint256"
        }
      ],
      "stateMutability": "view",
      "type": "function"
    },
    {
      "inputs": [
        {
          "internalType": "uint256",
          "name": "",
          "type": "uint256"
        },
        {
          "internalType": "address",
          "name": "",
          "type": "address"
        }
      ],
      "name": "daoEpochStakeSnapshot",
      "outputs": [
        {
          "internalType": "uint256",
          "name": "",
          "type": "uint256"
        }
      ],
      "stateMutability": "view",
      "type": "function"
    },
    {
      "inputs": [],
      "name": "daoPhase",
      "outputs": [
        {
          "internalType": "uint64",
          "name": "start",
          "type": "uint64"
        },
        {
          "internalType": "uint64",
          "name": "end",
          "type": "uint64"
        },
        {
          "internalType": "uint64",
          "name": "daoEpoch",
          "type": "uint64"
        },
        {
          "internalType": "enum Phase",
          "name": "phase",
          "type": "uint8"
        }
      ],
      "stateMutability": "view",
      "type": "function"
    },
    {
      "inputs": [],
      "name": "daoPhaseCount",
      "outputs": [
        {
          "internalType": "uint256",
          "name": "",
          "type": "uint256"
        }
      ],
      "stateMutability": "view",
      "type": "function"
    },
    {
      "inputs": [
        {
          "internalType": "uint256",
          "name": "proposalId",
          "type": "uint256"
        }
      ],
      "name": "execute",
      "outputs": [],
      "stateMutability": "nonpayable",
      "type": "function"
    },
    {
      "inputs": [
        {
          "internalType": "uint256",
          "name": "proposalId",
          "type": "uint256"
        }
      ],
      "name": "finalize",
      "outputs": [],
      "stateMutability": "nonpayable",
      "type": "function"
    },
    {
      "inputs": [
        {
          "internalType": "string",
          "name": "_selector",
          "type": "string"
        }
      ],
      "name": "getAllowedParamsRange",
      "outputs": [
        {
          "components": [
            {
              "internalType": "bytes4",
              "name": "getter",
              "type": "bytes4"
            },
            {
              "internalType": "uint256[]",
              "name": "range",
              "type": "uint256[]"
            }
          ],
          "internalType": "struct ValueGuards.ParameterRange",
          "name": "",
          "type": "tuple"
        }
      ],
      "stateMutability": "view",
      "type": "function"
    },
    {
      "inputs": [
        {
          "internalType": "bytes4",
          "name": "_selector",
          "type": "bytes4"
        }
      ],
      "name": "getAllowedParamsRangeWithSelector",
      "outputs": [
        {
          "components": [
            {
              "internalType": "bytes4",
              "name": "getter",
              "type": "bytes4"
            },
            {
              "internalType": "uint256[]",
              "name": "range",
              "type": "uint256[]"
            }
          ],
          "internalType": "struct ValueGuards.ParameterRange",
          "name": "",
          "type": "tuple"
        }
      ],
      "stateMutability": "view",
      "type": "function"
    },
    {
      "inputs": [],
      "name": "getCurrentPhaseProposals",
      "outputs": [
        {
          "internalType": "uint256[]",
          "name": "",
          "type": "uint256[]"
        }
      ],
      "stateMutability": "view",
      "type": "function"
    },
    {
      "inputs": [
        {
          "internalType": "uint256",
          "name": "proposalId",
          "type": "uint256"
        }
      ],
      "name": "getProposal",
      "outputs": [
        {
          "components": [
            {
              "internalType": "address",
              "name": "proposer",
              "type": "address"
            },
            {
              "internalType": "uint64",
              "name": "votingDaoEpoch",
              "type": "uint64"
            },
            {
              "internalType": "enum ProposalState",
              "name": "state",
              "type": "uint8"
            },
            {
              "internalType": "address[]",
              "name": "targets",
              "type": "address[]"
            },
            {
              "internalType": "uint256[]",
              "name": "values",
              "type": "uint256[]"
            },
            {
              "internalType": "bytes[]",
              "name": "calldatas",
              "type": "bytes[]"
            },
            {
              "internalType": "string",
              "name": "title",
              "type": "string"
            },
            {
              "internalType": "string",
              "name": "description",
              "type": "string"
            },
            {
              "internalType": "string",
              "name": "discussionUrl",
              "type": "string"
            },
            {
              "internalType": "uint256",
              "name": "daoPhaseCount",
              "type": "uint256"
            },
            {
              "internalType": "uint256",
              "name": "proposalFee",
              "type": "uint256"
            },
            {
              "internalType": "enum ProposalType",
              "name": "proposalType",
              "type": "uint8"
            }
          ],
          "internalType": "struct Proposal",
          "name": "",
          "type": "tuple"
        }
      ],
      "stateMutability": "view",
      "type": "function"
    },
    {
      "inputs": [
        {
          "internalType": "uint256",
          "name": "proposalId",
          "type": "uint256"
        }
      ],
      "name": "getProposalVoters",
      "outputs": [
        {
          "internalType": "address[]",
          "name": "",
          "type": "address[]"
        }
      ],
      "stateMutability": "view",
      "type": "function"
    },
    {
      "inputs": [
        {
          "internalType": "uint256",
          "name": "proposalId",
          "type": "uint256"
        }
      ],
      "name": "getProposalVotersCount",
      "outputs": [
        {
          "internalType": "uint256",
          "name": "",
          "type": "uint256"
        }
      ],
      "stateMutability": "view",
      "type": "function"
    },
    {
      "inputs": [],
      "name": "governancePot",
      "outputs": [
        {
          "internalType": "uint256",
          "name": "",
          "type": "uint256"
        }
      ],
      "stateMutability": "view",
      "type": "function"
    },
    {
      "inputs": [
        {
          "internalType": "address[]",
          "name": "targets",
          "type": "address[]"
        },
        {
          "internalType": "uint256[]",
          "name": "values",
          "type": "uint256[]"
        },
        {
          "internalType": "bytes[]",
          "name": "calldatas",
          "type": "bytes[]"
        },
        {
          "internalType": "string",
          "name": "description",
          "type": "string"
        }
      ],
      "name": "hashProposal",
      "outputs": [
        {
          "internalType": "uint256",
          "name": "",
          "type": "uint256"
        }
      ],
      "stateMutability": "pure",
      "type": "function"
    },
    {
      "inputs": [
        {
          "internalType": "address",
          "name": "_validatorSet",
          "type": "address"
        },
        {
          "internalType": "address",
          "name": "_stakingHbbft",
          "type": "address"
        },
        {
          "internalType": "address",
          "name": "_reinsertPot",
          "type": "address"
        },
        {
          "internalType": "address",
          "name": "_txPermission",
          "type": "address"
        },
        {
          "internalType": "uint256",
          "name": "_createProposalFee",
          "type": "uint256"
        },
        {
          "internalType": "uint64",
          "name": "_startTimestamp",
          "type": "uint64"
        }
      ],
      "name": "initialize",
      "outputs": [],
      "stateMutability": "nonpayable",
      "type": "function"
    },
    {
      "inputs": [
        {
          "internalType": "address",
          "name": "",
          "type": "address"
        }
      ],
      "name": "isCoreContract",
      "outputs": [
        {
          "internalType": "bool",
          "name": "",
          "type": "bool"
        }
      ],
      "stateMutability": "view",
      "type": "function"
    },
    {
      "inputs": [
        {
          "internalType": "bytes4",
          "name": "funcSelector",
          "type": "bytes4"
        },
        {
          "internalType": "uint256",
          "name": "newVal",
          "type": "uint256"
        }
      ],
      "name": "isWithinAllowedRange",
      "outputs": [
        {
          "internalType": "bool",
          "name": "",
          "type": "bool"
        }
      ],
      "stateMutability": "view",
      "type": "function"
    },
    {
      "inputs": [],
      "name": "lastDaoPhaseCount",
      "outputs": [
        {
          "internalType": "uint256",
          "name": "",
          "type": "uint256"
        }
      ],
      "stateMutability": "view",
      "type": "function"
    },
    {
      "inputs": [],
      "name": "owner",
      "outputs": [
        {
          "internalType": "address",
          "name": "",
          "type": "address"
        }
      ],
      "stateMutability": "view",
      "type": "function"
    },
    {
      "inputs": [
        {
          "internalType": "uint256",
          "name": "proposalId",
          "type": "uint256"
        }
      ],
      "name": "proposalExists",
      "outputs": [
        {
          "internalType": "bool",
          "name": "",
          "type": "bool"
        }
      ],
      "stateMutability": "view",
      "type": "function"
    },
    {
      "inputs": [
        {
          "internalType": "uint256",
          "name": "",
          "type": "uint256"
        }
      ],
      "name": "proposals",
      "outputs": [
        {
          "internalType": "address",
          "name": "proposer",
          "type": "address"
        },
        {
          "internalType": "uint64",
          "name": "votingDaoEpoch",
          "type": "uint64"
        },
        {
          "internalType": "enum ProposalState",
          "name": "state",
          "type": "uint8"
        },
        {
          "internalType": "string",
          "name": "title",
          "type": "string"
        },
        {
          "internalType": "string",
          "name": "description",
          "type": "string"
        },
        {
          "internalType": "string",
          "name": "discussionUrl",
          "type": "string"
        },
        {
          "internalType": "uint256",
          "name": "daoPhaseCount",
          "type": "uint256"
        },
        {
          "internalType": "uint256",
          "name": "proposalFee",
          "type": "uint256"
        },
        {
          "internalType": "enum ProposalType",
          "name": "proposalType",
          "type": "uint8"
        }
      ],
      "stateMutability": "view",
      "type": "function"
    },
    {
      "inputs": [
        {
          "internalType": "address[]",
          "name": "targets",
          "type": "address[]"
        },
        {
          "internalType": "uint256[]",
          "name": "values",
          "type": "uint256[]"
        },
        {
          "internalType": "bytes[]",
          "name": "calldatas",
          "type": "bytes[]"
        },
        {
          "internalType": "string",
          "name": "title",
          "type": "string"
        },
        {
          "internalType": "string",
          "name": "description",
          "type": "string"
        },
        {
          "internalType": "string",
          "name": "discussionUrl",
          "type": "string"
        }
      ],
      "name": "propose",
      "outputs": [],
      "stateMutability": "payable",
      "type": "function"
    },
    {
      "inputs": [
        {
          "internalType": "enum ProposalType",
          "name": "_type",
          "type": "uint8"
        },
        {
          "components": [
            {
              "internalType": "uint64",
              "name": "countYes",
              "type": "uint64"
            },
            {
              "internalType": "uint64",
              "name": "countNo",
              "type": "uint64"
            },
            {
              "internalType": "uint256",
              "name": "stakeYes",
              "type": "uint256"
            },
            {
              "internalType": "uint256",
              "name": "stakeNo",
              "type": "uint256"
            }
          ],
          "internalType": "struct VotingResult",
          "name": "result",
          "type": "tuple"
        }
      ],
      "name": "quorumReached",
      "outputs": [
        {
          "internalType": "bool",
          "name": "",
          "type": "bool"
        }
      ],
      "stateMutability": "view",
      "type": "function"
    },
    {
      "inputs": [],
      "name": "reinsertPot",
      "outputs": [
        {
          "internalType": "address",
          "name": "",
          "type": "address"
        }
      ],
      "stateMutability": "view",
      "type": "function"
    },
    {
      "inputs": [
        {
          "internalType": "bytes4",
          "name": "funcSelector",
          "type": "bytes4"
        }
      ],
      "name": "removeAllowedChangeableParameter",
      "outputs": [],
      "stateMutability": "nonpayable",
      "type": "function"
    },
    {
      "inputs": [],
      "name": "renounceOwnership",
      "outputs": [],
      "stateMutability": "nonpayable",
      "type": "function"
    },
    {
      "inputs": [
        {
          "internalType": "uint256",
          "name": "",
          "type": "uint256"
        }
      ],
      "name": "results",
      "outputs": [
        {
          "internalType": "uint64",
          "name": "countYes",
          "type": "uint64"
        },
        {
          "internalType": "uint64",
          "name": "countNo",
          "type": "uint64"
        },
        {
          "internalType": "uint256",
          "name": "stakeYes",
          "type": "uint256"
        },
        {
          "internalType": "uint256",
          "name": "stakeNo",
          "type": "uint256"
        }
      ],
      "stateMutability": "view",
      "type": "function"
    },
    {
      "inputs": [
        {
          "internalType": "bytes4",
          "name": "setter",
          "type": "bytes4"
        },
        {
          "internalType": "bytes4",
          "name": "getter",
          "type": "bytes4"
        },
        {
          "internalType": "uint256[]",
          "name": "params",
          "type": "uint256[]"
        }
      ],
      "name": "setAllowedChangeableParameter",
      "outputs": [],
      "stateMutability": "nonpayable",
      "type": "function"
    },
    {
      "inputs": [
        {
          "internalType": "uint256",
          "name": "_fee",
          "type": "uint256"
        }
      ],
      "name": "setCreateProposalFee",
      "outputs": [],
      "stateMutability": "nonpayable",
      "type": "function"
    },
    {
      "inputs": [
        {
          "internalType": "address",
          "name": "_add",
          "type": "address"
        },
        {
          "internalType": "bool",
          "name": "isCore",
          "type": "bool"
        }
      ],
      "name": "setIsCoreContract",
      "outputs": [],
      "stateMutability": "nonpayable",
      "type": "function"
    },
    {
      "inputs": [],
      "name": "stakingHbbft",
      "outputs": [
        {
          "internalType": "contract IStakingHbbft",
          "name": "",
          "type": "address"
        }
      ],
      "stateMutability": "view",
      "type": "function"
    },
    {
      "inputs": [],
      "name": "statistic",
      "outputs": [
        {
          "internalType": "uint64",
          "name": "total",
          "type": "uint64"
        },
        {
          "internalType": "uint64",
          "name": "accepted",
          "type": "uint64"
        },
        {
          "internalType": "uint64",
          "name": "declined",
          "type": "uint64"
        },
        {
          "internalType": "uint64",
          "name": "canceled",
          "type": "uint64"
        }
      ],
      "stateMutability": "view",
      "type": "function"
    },
    {
      "inputs": [],
      "name": "switchPhase",
      "outputs": [],
      "stateMutability": "nonpayable",
      "type": "function"
    },
    {
      "inputs": [
        {
          "internalType": "address",
          "name": "newOwner",
          "type": "address"
        }
      ],
      "name": "transferOwnership",
      "outputs": [],
      "stateMutability": "nonpayable",
      "type": "function"
    },
    {
      "inputs": [],
      "name": "unfinalizedProposals",
      "outputs": [
        {
          "internalType": "uint256",
          "name": "",
          "type": "uint256"
        }
      ],
      "stateMutability": "view",
      "type": "function"
    },
    {
      "inputs": [],
      "name": "unfinalizedProposalsExist",
      "outputs": [
        {
          "internalType": "bool",
          "name": "",
          "type": "bool"
        }
      ],
      "stateMutability": "view",
      "type": "function"
    },
    {
      "inputs": [],
      "name": "validatorSet",
      "outputs": [
        {
          "internalType": "contract IValidatorSetHbbft",
          "name": "",
          "type": "address"
        }
      ],
      "stateMutability": "view",
      "type": "function"
    },
    {
      "inputs": [
        {
          "internalType": "uint256",
          "name": "proposalId",
          "type": "uint256"
        },
        {
          "internalType": "enum Vote",
          "name": "_vote",
          "type": "uint8"
        }
      ],
      "name": "vote",
      "outputs": [],
      "stateMutability": "nonpayable",
      "type": "function"
    },
    {
      "inputs": [
        {
          "internalType": "uint256",
          "name": "proposalId",
          "type": "uint256"
        },
        {
          "internalType": "enum Vote",
          "name": "_vote",
          "type": "uint8"
        },
        {
          "internalType": "string",
          "name": "reason",
          "type": "string"
        }
      ],
      "name": "voteWithReason",
      "outputs": [],
      "stateMutability": "nonpayable",
      "type": "function"
    },
    {
      "inputs": [
        {
          "internalType": "uint256",
          "name": "",
          "type": "uint256"
        },
        {
          "internalType": "address",
          "name": "",
          "type": "address"
        }
      ],
      "name": "votes",
      "outputs": [
        {
          "internalType": "uint64",
          "name": "timestamp",
          "type": "uint64"
        },
        {
          "internalType": "enum Vote",
          "name": "vote",
          "type": "uint8"
        },
        {
          "internalType": "string",
          "name": "reason",
          "type": "string"
        }
      ],
      "stateMutability": "view",
      "type": "function"
    },
    {
      "stateMutability": "payable",
      "type": "receive"
    }
  ],
  "bytecode": "0x6080604052348015600f57600080fd5b506016601a565b60ca565b7ff0c57e16840df040f15088dc2f81fe391c3923bec73e23a9662efc9c229c6a00805468010000000000000000900460ff161560695760405163f92ee8a960e01b815260040160405180910390fd5b80546001600160401b039081161460c75780546001600160401b0319166001600160401b0390811782556040519081527fc7f505b2f371ae2175ee4913f4499e1f2633a7b5936321eed1cdaeb6115181d29060200160405180910390a15b50565b61503a806100d96000396000f3fe6080604052600436106102f65760003560e01c8063950e3e441161018f578063c3b66bed116100e1578063efa65b481161008a578063fa1f072711610064578063fa1f072714610a20578063fe0d94c114610a36578063ff71d67714610a5657600080fd5b8063efa65b48146109d5578063f22d2326146109ea578063f2fde38b14610a0057600080fd5b8063d23254b4116100bb578063d23254b414610970578063ec47c4711461099f578063ed965ddc146109b557600080fd5b8063c3b66bed146108f3578063c7f758a814610913578063d22a20cd1461094057600080fd5b8063ab266e1011610143578063ba08d2371161011d578063ba08d2371461089d578063be0a4e4b146108bd578063bf348f86146108d357600080fd5b8063ab266e1014610800578063b131b6a514610820578063b710c15d1461087057600080fd5b8063a68f34f711610174578063a68f34f71461078f578063aa72e3b9146107bc578063ab0eb62d146107eb57600080fd5b8063950e3e441461074d57806395dd7fb91461076d57600080fd5b80633de2598c116102485780637293368d116101fc5780638da5cb5b116101d65780638da5cb5b146106d05780639426e2261461070d578063943e82161461072d57600080fd5b80637293368d1461067d57806373f12958146106905780637d8149db146106b057600080fd5b80635e8815f21161022d5780635e8815f2146106105780636b6d33da14610630578063715018a61461066857600080fd5b80633de2598c146105d05780634346845f146105f057600080fd5b80631536f472116102aa5780632baffa3f116102845780632baffa3f1461051a57806331e407331461053e5780633c5fc7111461055e57600080fd5b80631536f4721461041a5780631840f0ca1461043a5780631b0c27da1461049f57600080fd5b806311693b21116102db57806311693b211461037a5780631243e6cb146103aa5780631374b22d146103e257600080fd5b8063013cf08b1461031a57806305261aea1461035857600080fd5b3661031557346003600082825461030d9190613ea4565b925050819055005b600080fd5b34801561032657600080fd5b5061033a610335366004613eb7565b610a6c565b60405161034f99989796959493929190613f63565b60405180910390f35b34801561036457600080fd5b50610378610373366004613eb7565b610c6a565b005b34801561038657600080fd5b5061039a61039536600461408e565b610eb6565b604051901515815260200161034f565b3480156103b657600080fd5b506005546103ca906001600160a01b031681565b6040516001600160a01b03909116815260200161034f565b3480156103ee57600080fd5b5061039a6103fd366004613eb7565b6000908152600960205260409020546001600160a01b0316151590565b34801561042657600080fd5b5061037861043536600461416d565b610f3c565b34801561044657600080fd5b5061045a610455366004613eb7565b611050565b60405161034f919060006080820190506001600160401b0380845116835280602085015116602084015250604083015160408301526060830151606083015292915050565b3480156104ab57600080fd5b506104ef6104ba366004613eb7565b600b602052600090815260409020805460018201546002909201546001600160401b0380831693600160401b90930416919084565b604080516001600160401b03958616815294909316602085015291830152606082015260800161034f565b34801561052657600080fd5b5061053060035481565b60405190815260200161034f565b34801561054a57600080fd5b506103786105593660046141b8565b6111e4565b34801561056a57600080fd5b5060065461059d906001600160401b0380821691600160401b8104821691600160801b8204811691600160c01b90041684565b604080516001600160401b039586168152938516602085015291841691830191909152909116606082015260800161034f565b3480156105dc57600080fd5b506103786105eb36600461422a565b611329565b3480156105fc57600080fd5b5061037861060b3660046142ad565b6117b2565b34801561061c57600080fd5b5061037861062b36600461434f565b6118a3565b34801561063c57600080fd5b5061053061064b366004614386565b600d60209081526000928352604080842090915290825290205481565b34801561067457600080fd5b50610378611927565b61037861068b3660046145b5565b61193b565b34801561069c57600080fd5b506001546103ca906001600160a01b031681565b3480156106bc57600080fd5b506103786106cb3660046146a9565b611c73565b3480156106dc57600080fd5b507f9016d09d72d40fdae2fd8ceac6b6234c7706214fd39c1cd1e609a0528c199300546001600160a01b03166103ca565b34801561071957600080fd5b506004546103ca906001600160a01b031681565b34801561073957600080fd5b506103786107483660046146c6565b611cf5565b34801561075957600080fd5b506105306107683660046146eb565b611dfe565b34801561077957600080fd5b50610782611e44565b60405161034f91906147d3565b34801561079b57600080fd5b506107af6107aa366004613eb7565b611e9c565b60405161034f9190614820565b3480156107c857600080fd5b506107d36201518081565b6040516001600160401b03909116815260200161034f565b3480156107f757600080fd5b50610378611eb6565b34801561080c57600080fd5b5061037861081b366004613eb7565b6121fa565b34801561082c57600080fd5b50600754610860906001600160401b0380821691600160401b8104821691600160801b82041690600160c01b900460ff1684565b60405161034f9493929190614843565b34801561087c57600080fd5b5061089061088b366004614870565b612286565b60405161034f91906148ac565b3480156108a957600080fd5b5061039a6108b83660046148da565b612336565b3480156108c957600080fd5b5061053060115481565b3480156108df57600080fd5b506108906108ee3660046146a9565b612511565b3480156108ff57600080fd5b5061053061090e366004613eb7565b6125b6565b34801561091f57600080fd5b5061093361092e366004613eb7565b6125cd565b60405161034f9190614960565b34801561094c57600080fd5b5061039a61095b366004614a97565b600a6020526000908152604090205460ff1681565b34801561097c57600080fd5b5061099061098b366004614386565b6129e1565b60405161034f93929190614ab2565b3480156109ab57600080fd5b506105306103e881565b3480156109c157600080fd5b506105306109d0366004613eb7565b612aa7565b3480156109e157600080fd5b5061039a612ac8565b3480156109f657600080fd5b5061053060025481565b348015610a0c57600080fd5b50610378610a1b366004614a97565b612af0565b348015610a2c57600080fd5b5061053060105481565b348015610a4257600080fd5b50610378610a51366004613eb7565b612b2e565b348015610a6257600080fd5b5061053060005481565b600960205260009081526040902080546004820180546001600160a01b03831693600160a01b84046001600160401b031693600160e01b900460ff16929091610ab490614ae3565b80601f0160208091040260200160405190810160405280929190818152602001828054610ae090614ae3565b8015610b2d5780601f10610b0257610100808354040283529160200191610b2d565b820191906000526020600020905b815481529060010190602001808311610b1057829003601f168201915b505050505090806005018054610b4290614ae3565b80601f0160208091040260200160405190810160405280929190818152602001828054610b6e90614ae3565b8015610bbb5780601f10610b9057610100808354040283529160200191610bbb565b820191906000526020600020905b815481529060010190602001808311610b9e57829003601f168201915b505050505090806006018054610bd090614ae3565b80601f0160208091040260200160405190810160405280929190818152602001828054610bfc90614ae3565b8015610c495780601f10610c1e57610100808354040283529160200191610c49565b820191906000526020600020905b815481529060010190602001808311610c2c57829003601f168201915b50505050600783015460088401546009909401549293909290915060ff1689565b60008181526009602052604090205481906001600160a01b0316610ca95760405163986731a160e01b8152600481018290526024015b60405180910390fd5b610cb4826003612d97565b600082815260096020526040812090610cce846001612df3565b6000858152600b602090815260409182902090830151815484516fffffffffffffffffffffffffffffffff19909116600160401b6001600160401b039384160267ffffffffffffffff1916179116178155606083015160028201559082015160019091015590506009820154600090610d4a9060ff1683610eb6565b905080610d58576005610d5b565b60045b8354849060ff60e01b1916600160e01b836006811115610d7d57610d7d613ed0565b02179055508015610df0576006805460019190600890610dae908490600160401b90046001600160401b0316614b17565b82546001600160401b039182166101009390930a92830291909202199091161790555082546008840154610deb916001600160a01b03169061301e565b610e5d565b6006805460019190601090610e16908490600160801b90046001600160401b0316614b17565b92506101000a8154816001600160401b0302191690836001600160401b03160217905550610e5d600160009054906101000a90046001600160a01b0316846008015461301e565b600160106000828254610e709190614b37565b90915550506040518115158152859033907f4a82eb80f2a86beb92f5670422f698264b3511048a29b400a6a1ce684769581e906020015b60405180910390a35050505050565b6000806000610ec36130aa565b90506001856002811115610ed957610ed9613ed0565b03610efe57612710610eed82611388614b4a565b610ef79190614b61565b9150610f1a565b612710610f0d82610ce4614b4a565b610f179190614b61565b91505b818460600151610f2a9190613ea4565b84604001511015925050505b92915050565b60008381526009602052604090205483906001600160a01b0316610f765760405163986731a160e01b815260048101829052602401610ca0565b600084815260096020526040902080546001600160a01b03163314610fae57604051630608c7c960e51b815260040160405180910390fd5b610fb9856000612d97565b805460ff60e01b1916600160e01b1781556006805460019190601890610ff0908490600160c01b90046001600160401b0316614b17565b92506101000a8154816001600160401b0302191690836001600160401b0316021790555084336001600160a01b03167fd16ff8053e1476416f5be14c32305a3652ac0b182ac04ede8c101d867b75bd148686604051610ea7929190614bac565b60408051608081018252600080825260208201819052918101829052606081019190915260008281526009602052604090205482906001600160a01b03166110ae5760405163986731a160e01b815260048101829052602401610ca0565b600083815260096020526040902054600160e01b900460ff1660048160068111156110db576110db613ed0565b14806110f8575060058160068111156110f6576110f6613ed0565b145b806111145750600681600681111561111257611112613ed0565b145b1561117157506000838152600b6020908152604091829020825160808101845281546001600160401b038082168352600160401b9091041692810192909252600181015492820192909252600290910154606082015291506111de565b600381600681111561118557611185613ed0565b0361119d57611195846001612df3565b9250506111de565b60028160068111156111b1576111b1613ed0565b036111c157611195846000612df3565b838160405163605cfad560e01b8152600401610ca0929190614bc0565b50919050565b60008481526009602052604090205484906001600160a01b031661121e5760405163986731a160e01b815260048101829052602401610ca0565b600180600754600160c01b900460ff16600181111561123f5761123f613ed0565b1461126b576007546040516378030af960e11b8152610ca091600160c01b900460ff1690600401614bd4565b6112743361311d565b6112935760405163fb426bed60e01b8152336004820152602401610ca0565b60003390506112da81888888888080601f01602080910402602001604051908101604052809392919081815260200183838082843760009201919091525061318c92505050565b86816001600160a01b03167fde85a12bb3f2d766e67cf54febc7c53ae9c500da072f8fdfb34aba5ca5525ebf88888860405161131893929190614be2565b60405180910390a350505050505050565b7ff0c57e16840df040f15088dc2f81fe391c3923bec73e23a9662efc9c229c6a008054600160401b810460ff1615906001600160401b031660008115801561136e5750825b90506000826001600160401b0316600114801561138a5750303b155b905081158015611398575080155b156113b65760405163f92ee8a960e01b815260040160405180910390fd5b845467ffffffffffffffff1916600117855583156113e557845468ff00000000000000001916600160401b1785555b6001600160a01b038b16158061140257506001600160a01b038916155b8061141457506001600160a01b038a16155b8061141d575086155b1561143b5760405163a9cb9e0d60e01b815260040160405180910390fd5b42866001600160401b03161015611465576040516307f5e89560e51b815260040160405180910390fd5b61146d61329d565b6004805473ffffffffffffffffffffffffffffffffffffffff199081166001600160a01b038e8116919091179092556005805482168d841617905560018054909116918b1691909117905560028790556007805467ffffffffffffffff19166001600160401b0388161790556114e66201518087614b17565b600780546001600160401b0392909216600160401b027fffffffffffffff000000000000000000ffffffffffffffffffffffffffffffff167fffffffffffffff0000000000000000000000000000000000ffffffffffffffff90921691909117600160801b179055600160009081556040805160098082526101408201909252906020820161012080368337019050509050678ac7230489e800008160008151811061159457611594614c05565b6020026020010181815250506801158e460913d00000816001815181106115bd576115bd614c05565b6020026020010181815250506801a055690d9db80000816002815181106115e6576115e6614c05565b60200260200101818152505068022b1c8c1227a000008160038151811061160f5761160f614c05565b6020026020010181815250506802b5e3af16b18800008160048151811061163857611638614c05565b602002602001018181525050680340aad21b3b7000008160058151811061166157611661614c05565b6020026020010181815250506803cb71f51fc55800008160068151811061168a5761168a614c05565b6020026020010181815250506804563918244f400000816007815181106116b3576116b3614c05565b6020026020010181815250506804e1003b28d9280000816008815181106116dc576116dc614c05565b6020908102919091010152611700630ab266e160e41b637916919360e11b836132ad565b50306000908152600a60205260408082208054600160ff1991821681179092556001600160a01b038e8116855283852080548316841790558c8116855283852080548316841790558d168452919092208054909116909117905583156117a557845468ff000000000000000019168555604051600181527fc7f505b2f371ae2175ee4913f4499e1f2633a7b5936321eed1cdaeb6115181d29060200160405180910390a15b5050505050505050505050565b6117ba613354565b60006117c46133af565b90506040518060400160405280856001600160e01b031916815260200184848080602002602001604051908101604052809392919081815260200183836020028082843760009201829052509390945250506001600160e01b031988168152602084815260409091208351815463ffffffff191660e09190911c17815583820151805191935061185b926001850192910190613c94565b509050507f3665bf9cd0ba4ddceeec259e21dcf8a4510f3b1130bd42e950828e69d85408ba858585856040516118949493929190614c1b565b60405180910390a15050505050565b3330146118c3576040516354348f0360e01b815260040160405180910390fd5b6001600160a01b0382166000818152600a6020908152604091829020805460ff19168515159081179091558251938452908301527fc73e95af540565c649d9453cb23b01f505752b94f04ff81b52ce528047232f2391015b60405180910390a15050565b61192f613354565b6119396000613411565b565b600080600754600160c01b900460ff16600181111561195c5761195c613ed0565b14611988576007546040516378030af960e11b8152610ca091600160c01b900460ff1690600401614bd4565b611990612ac8565b156119ae5760405163fd081cf960e01b815260040160405180910390fd5b600054601154146119c0576000546011555b855187511415806119d357508451875114155b806119dd57508651155b156119fb5760405163a9cb9e0d60e01b815260040160405180910390fd5b6002543414611a1d5760405163356680b760e01b815260040160405180910390fd5b6008546103e811611a4157604051633f2ad2e160e11b815260040160405180910390fd5b6000611a4d888761348f565b90506000611a5d89898988611dfe565b6000818152600960205260409020549091506001600160a01b031615611a995760405163d3df438360e01b815260048101829052602401610ca0565b600081815260096020908152604090912080547fffffff00ffffffffffffffff0000000000000000000000000000000000000000163360ff60e01b1981169190911782558b519092611af29160018401918e0190613cdf565b508951611b0890600283019060208d0190613c94565b508851611b1e90600383019060208c0190613d41565b5060048101611b2d8982614cd8565b5060058101611b3c8882614cd8565b5060068101611b4b8782614cd8565b506000546007820155600280546008830155600982018054869260ff19909116906001908490811115611b8057611b80613ed0565b0217905550600880546001818101835560009283527ff3f7a9fe364faab93b216da50a3214154f22a0a2b415b23a84c8169e8b636ee39091018590556006805491929091611bd89084906001600160401b0316614b17565b92506101000a8154816001600160401b0302191690836001600160401b03160217905550600160106000828254611c0f9190613ea4565b9250508190555082826001600160a01b03167faae8433da93a34852459abcc29a350d01261db57a269e890b08bde55d4a9774c8d8d8d8d8d8d600254604051611c5e9796959493929190614d97565b60405180910390a35050505050505050505050565b611c7b613354565b6000611c856133af565b6001600160e01b031983166000908152602082905260408120805463ffffffff19168155919250611cb96001830182613d93565b50506040516001600160e01b0319831681527fed27cb02231782dadf13473a7828cb980c4d685791b7a3136dde00f8c3594cb69060200161191b565b60008281526009602052604090205482906001600160a01b0316611d2f5760405163986731a160e01b815260048101829052602401610ca0565b600180600754600160c01b900460ff166001811115611d5057611d50613ed0565b14611d7c576007546040516378030af960e11b8152610ca091600160c01b900460ff1690600401614bd4565b611d853361311d565b611da45760405163fb426bed60e01b8152336004820152602401610ca0565b6000339050611dc48186866040518060200160405280600081525061318c565b84816001600160a01b03167f343f24b88bd3789b60993251090e2184e0e4ae199d79b14a510fc1a08b51f51486604051610ea79190614e21565b6000808280519060200120905085858583604051602001611e229493929190614e34565b60408051601f1981840301815291905280516020909101209695505050505050565b60606008805480602002602001604051908101604052809291908181526020018280548015611e9257602002820191906000526020600020905b815481526020019060010190808311611e7e575b5050505050905090565b6000818152600f60205260409020606090610f3690613735565b600754600160401b90046001600160401b0316421015611ed257565b600080600754600160c01b900460ff166001811115611ef357611ef3613ed0565b14611eff576000611f02565b60015b600754909150600090611f2690600160401b90046001600160401b03166001614b17565b6007805467ffffffffffffffff19166001600160401b0383161790559050611f516201518082614b17565b600780546001600160401b0392909216600160401b026fffffffffffffffff00000000000000001983168117825584927fffffffffffffff00ffffffffffffffffffffffffffffffffffffffffffffffff9091167fffffffffffffff00ffffffffffffffff0000000000000000ffffffffffffffff90911617600160c01b836001811115611fe157611fe1613ed0565b021790555060006001836001811115611ffc57611ffc613ed0565b1461200857600361200b565b60025b90506000600382600681111561202357612023613ed0565b14905060005b6008548110156120ef5760006008828154811061204857612048614c05565b6000918252602080832090910154808352600990915260409091208054919250859160ff60e01b1916600160e01b83600681111561208857612088613ed0565b021790555082156120e657600754600082815260096020526040902080547fffffffff0000000000000000ffffffffffffffffffffffffffffffffffffffff16600160801b9092046001600160401b0316600160a01b029190911790555b50600101612029565b50801561215d5760075461211290600160801b90046001600160401b0316613749565b6007805460019190601090612138908490600160801b90046001600160401b0316614b17565b92506101000a8154816001600160401b0302191690836001600160401b031602179055505b600084600181111561217157612171613ed0565b0361219a5760016000808282546121889190613ea4565b9091555061219a905060086000613d93565b6007546040517f4887f063ba2113285aba0e893c372b65da5e458b463fb01fdf1fe0d266acff0e916121ec9160ff600160c01b830416916001600160401b0380821692600160401b9092041690614e7f565b60405180910390a150505050565b33301461221a576040516354348f0360e01b815260040160405180910390fd5b806122316000356001600160e01b03191682612336565b612251576040516373330d9b60e01b815260048101829052602401610ca0565b60028290556040518281527f7d6e1cf0de9a5ba39e02e05972eb08471682fc361b20458a3f200f7bf087b5359060200161191b565b6040805180820190915260008152606060208201526122a36133af565b82516020808501919091206001600160e01b0319908116600090815292825260409283902083518085018552815460e01b909216825260018101805485518186028101860190965280865292949193858101939083018282801561232657602002820191906000526020600020905b815481526020019060010190808311612312575b5050505050815250509050919050565b6000806123416133af565b6001600160e01b031980861660009081526020838152604080832081518083018352815460e01b909516855260018101805483518186028101860190945280845296975093959093858401939091908301828280156123bf57602002820191906000526020600020905b8154815260200190600101908083116123ab575b50505050508152505090508060200151516000036123e257600092505050610f36565b602081015181516000906123f590613847565b905060005b8251811015612503578183828151811061241657612416614c05565b6020026020010151036124fb57600080821161244c578360008151811061243f5761243f614c05565b6020026020010151612471565b83612458600184614b37565b8151811061246857612468614c05565b60200260200101515b90506000600185516124839190614b37565b83106124b55784600186516124989190614b37565b815181106124a8576124a8614c05565b60200260200101516124da565b846124c1846001613ea4565b815181106124d1576124d1614c05565b60200260200101515b90508189141580156124ec5750808914155b15975050505050505050610f36565b6001016123fa565b506000979650505050505050565b60408051808201909152600081526060602082015261252e6133af565b6001600160e01b03198084166000908152602092835260409081902081518083018352815460e01b90931683526001810180548351818702810187019094528084529394919385830193928301828280156123265760200282019190600052602060002090815481526020019060010190808311612312575050505050815250509050919050565b6000818152600f60205260408120610f3690613909565b6125d5613db1565b60008281526009602090815260409182902082516101808101845281546001600160a01b0381168252600160a01b81046001600160401b03169382019390935292909190830190600160e01b900460ff16600681111561263757612637613ed0565b600681111561264857612648613ed0565b8152602001600182018054806020026020016040519081016040528092919081815260200182805480156126a557602002820191906000526020600020905b81546001600160a01b03168152600190910190602001808311612687575b50505050508152602001600282018054806020026020016040519081016040528092919081815260200182805480156126fd57602002820191906000526020600020905b8154815260200190600101908083116126e9575b5050505050815260200160038201805480602002602001604051908101604052809291908181526020016000905b828210156127d757838290600052602060002001805461274a90614ae3565b80601f016020809104026020016040519081016040528092919081815260200182805461277690614ae3565b80156127c35780601f10612798576101008083540402835291602001916127c3565b820191906000526020600020905b8154815290600101906020018083116127a657829003601f168201915b50505050508152602001906001019061272b565b5050505081526020016004820180546127ef90614ae3565b80601f016020809104026020016040519081016040528092919081815260200182805461281b90614ae3565b80156128685780601f1061283d57610100808354040283529160200191612868565b820191906000526020600020905b81548152906001019060200180831161284b57829003601f168201915b5050505050815260200160058201805461288190614ae3565b80601f01602080910402602001604051908101604052809291908181526020018280546128ad90614ae3565b80156128fa5780601f106128cf576101008083540402835291602001916128fa565b820191906000526020600020905b8154815290600101906020018083116128dd57829003601f168201915b5050505050815260200160068201805461291390614ae3565b80601f016020809104026020016040519081016040528092919081815260200182805461293f90614ae3565b801561298c5780601f106129615761010080835404028352916020019161298c565b820191906000526020600020905b81548152906001019060200180831161296f57829003601f168201915b50505091835250506007820154602082015260088201546040820152600982015460609091019060ff1660028111156129c7576129c7613ed0565b60028111156129d8576129d8613ed0565b90525092915050565b600c602090815260009283526040808420909152908252902080546001820180546001600160401b03831693600160401b90930460ff16929190612a2490614ae3565b80601f0160208091040260200160405190810160405280929190818152602001828054612a5090614ae3565b8015612a9d5780601f10612a7257610100808354040283529160200191612a9d565b820191906000526020600020905b815481529060010190602001808311612a8057829003601f168201915b5050505050905083565b60088181548110612ab757600080fd5b600091825260209091200154905081565b6000805460115414158015612adf57506000601054115b15612aea5750600190565b50600090565b612af8613354565b6001600160a01b038116612b2257604051631e4fbdf760e01b815260006004820152602401610ca0565b612b2b81613411565b50565b612b36613913565b60008181526009602052604090205481906001600160a01b0316612b705760405163986731a160e01b815260048101829052602401610ca0565b612b7b826004612d97565b612b848261395d565b60008281526009602052604090208054600690829060ff60e01b1916600160e01b830217905550612d3f81600101805480602002602001604051908101604052809291908181526020018280548015612c0657602002820191906000526020600020905b81546001600160a01b03168152600190910190602001808311612be8575b505050505082600201805480602002602001604051908101604052809291908181526020018280548015612c5957602002820191906000526020600020905b815481526020019060010190808311612c45575b505050505083600301805480602002602001604051908101604052809291908181526020016000905b82821015612d2e578382906000526020600020018054612ca190614ae3565b80601f0160208091040260200160405190810160405280929190818152602001828054612ccd90614ae3565b8015612d1a5780601f10612cef57610100808354040283529160200191612d1a565b820191906000526020600020905b815481529060010190602001808311612cfd57829003601f168201915b505050505081526020019060010190612c82565b50505050600985015460ff166139fb565b604051839033907f7bfd03e44f31b1867e10c41d419cd8073b4719d321ccc5c3a3c79ac2babab3c390600090a35050612b2b60017f9b779b17422d0df92223018b32b4d1fa46e071723d6817e2486d003becc55f0055565b6000612da2836125cd565b604001519050816006811115612dba57612dba613ed0565b816006811115612dcc57612dcc613ed0565b14612dee57828160405163605cfad560e01b8152600401610ca0929190614bc0565b505050565b60408051608080820183526000808352602080840182905283850182905260608085018390528783526009825285832054865194850187528385529184018390529483018290529382018190529192600160a01b90046001600160401b031691612e5c86611e9c565b905060005b8151811015613013576000828281518110612e7e57612e7e614c05565b6020026020010151905060008715612ec357506001600160401b0385166000908152600d602090815260408083206001600160a01b0385168452909152902054612f34565b600554604051632933f0eb60e11b81526001600160a01b03848116600483015290911690635267e1d690602401602060405180830381865afa158015612f0d573d6000803e3d6000fd5b505050506040513d601f19601f82011682018060405250810190612f319190614eae565b90505b6000898152600c602090815260408083206001600160a01b0386168452909152902054600160401b900460ff166002816002811115612f7557612f75613ed0565b03612fb557600186600001818151612f8d9190614b17565b6001600160401b0316905250604086018051839190612fad908390613ea4565b905250613005565b6001816002811115612fc957612fc9613ed0565b0361300557600186602001818151612fe19190614b17565b6001600160401b0316905250606086018051839190613001908390613ea4565b9052505b505050806001019050612e61565b509095945050505050565b6000826001600160a01b03168260405160006040518083038185875af1925050503d806000811461306b576040519150601f19603f3d011682016040523d82523d6000602084013e613070565b606091505b5050905080612dee576040516317e3057d60e31b81523060048201526001600160a01b038416602482015260448101839052606401610ca0565b6005546040805163567e98f960e01b815290516000926001600160a01b03169163567e98f99160048083019260209291908290030181865afa1580156130f4573d6000803e3d6000fd5b505050506040513d601f19601f820116820180604052508101906131189190614eae565b905090565b60055460405163f6c5786160e01b81526001600160a01b038381166004830152600092169063f6c5786190602401602060405180830381865afa158015613168573d6000803e3d6000fd5b505050506040513d601f19601f82011682018060405250810190610f369190614ec7565b613197836002612d97565b600754600160801b90046001600160401b03166000908152600e602052604090206131c29085613b3e565b506000838152600f602052604090206131db9085613b3e565b506040518060600160405280426001600160401b0316815260200183600281111561320857613208613ed0565b815260209081018390526000858152600c825260408082206001600160a01b038916835283529020825181546001600160401b0390911667ffffffffffffffff19821681178355928401519192839168ffffffffffffffffff191617600160401b83600281111561327b5761327b613ed0565b0217905550604082015160018201906132949082614cd8565b50505050505050565b6132a5613b53565b611939613b9c565b6132b5613b53565b60006132bf6133af565b6040805180820182526001600160e01b0319868116825260208083018781529189166000908152858252939093208251815463ffffffff191660e09190911c178155905180519495509193909261331d926001850192910190613c94565b509050507f3665bf9cd0ba4ddceeec259e21dcf8a4510f3b1130bd42e950828e69d85408ba8484846040516121ec93929190614ee4565b336133867f9016d09d72d40fdae2fd8ceac6b6234c7706214fd39c1cd1e609a0528c199300546001600160a01b031690565b6001600160a01b0316146119395760405163118cdaa760e01b8152336004820152602401610ca0565b60008060ff196133e060017fdace3fd3d1fbdfd33853f19ba191d28c617e373ec58fc73cf7b58db5aff2c2ab614b37565b6040516020016133f291815260200190565b60408051601f1981840301815291905280516020909101201692915050565b7f9016d09d72d40fdae2fd8ceac6b6234c7706214fd39c1cd1e609a0528c199300805473ffffffffffffffffffffffffffffffffffffffff1981166001600160a01b03848116918217845560405192169182907f8be0079c531659141344cd1fd0a4f28419497f9722a3daafe3b4186f6b6457e090600090a3505050565b6000805b825181101561372e578281815181106134ae576134ae614c05565b60200260200101515160000315613726576000806134ee8584815181106134d7576134d7614c05565b602002602001015160208101516024909101519091565b9150915060008087858151811061350757613507614c05565b60200260200101516001600160a01b031688868151811061352a5761352a614c05565b5050604080516001600160e01b0319871660248083019190915282518083039091018152604490910182526020810180516001600160e01b0316635f9a47c360e11b179052905161357b9190614f11565b600060405180830381855afa9150503d80600081146135b6576040519150601f19603f3d011682016040523d82523d6000602084013e6135bb565b606091505b50915091508180156135ce575060008151115b15613713576000818060200190518101906135e99190614f2d565b9050600a60008a888151811061360157613601614c05565b6020908102919091018101516001600160a01b031682528101919091526040016000205460ff16801561363957506000816020015151115b156136fe576002965088868151811061365457613654614c05565b602090810291909101015160405163ba08d23760e01b81526001600160e01b031987166004820152602481018690526001600160a01b039091169063ba08d23790604401602060405180830381865afa1580156136b5573d6000803e3d6000fd5b505050506040513d601f19601f820116820180604052508101906136d99190614ec7565b6136f9576040516373330d9b60e01b815260048101859052602401610ca0565b61370d565b60019650505050505050610f36565b50613721565b600195505050505050610f36565b505050505b600101613493565b5092915050565b6060600061374283613ba4565b9392505050565b6001600160401b0381166000908152600e6020526040812061376a90613735565b905060005b8151811015612dee57600082828151811061378c5761378c614c05565b6020908102919091010151600554604051632933f0eb60e11b81526001600160a01b03808416600483015292935060009290911690635267e1d690602401602060405180830381865afa1580156137e7573d6000803e3d6000fd5b505050506040513d601f19601f8201168201806040525081019061380b9190614eae565b6001600160401b0386166000908152600d602090815260408083206001600160a01b03909616835294905292909220919091555060010161376f565b60408051600481526024810182526020810180516001600160e01b03166001600160e01b03198516179052905160009190829081903090613889908590614f11565b600060405180830381855afa9150503d80600081146138c4576040519150601f19603f3d011682016040523d82523d6000602084013e6138c9565b606091505b5091509150816138ec57604051635fbab09b60e11b815260040160405180910390fd5b808060200190518101906139009190614eae565b95945050505050565b6000610f36825490565b7f9b779b17422d0df92223018b32b4d1fa46e071723d6817e2486d003becc55f0080546001190161395757604051633ee5aeb560e01b815260040160405180910390fd5b60029055565b6000613968826125cd565b9050600054816101200151600161397f9190613ea4565b146139a057604051631902d7cf60e01b815260048101839052602401610ca0565b600181610160015160028111156139b9576139b9613ed0565b1480156139d0575080516001600160a01b03163314155b156139f757604051636d0e083b60e11b815260048101839052336024820152604401610ca0565b5050565b60005b8451811015613b1157600080836002811115613a1c57613a1c613ed0565b14613a28576000613a43565b848281518110613a3a57613a3a614c05565b60200260200101515b9050600080878481518110613a5a57613a5a614c05565b60200260200101516001600160a01b031683878681518110613a7e57613a7e614c05565b6020026020010151604051613a939190614f11565b60006040518083038185875af1925050503d8060008114613ad0576040519150601f19603f3d011682016040523d82523d6000602084013e613ad5565b606091505b5091509150613ae48282613c00565b508215613b03578260036000828254613afd9190614b37565b90915550505b5050508060010190506139fe565b5050505050565b60017f9b779b17422d0df92223018b32b4d1fa46e071723d6817e2486d003becc55f0055565b6000613742836001600160a01b038416613c1c565b7ff0c57e16840df040f15088dc2f81fe391c3923bec73e23a9662efc9c229c6a0054600160401b900460ff1661193957604051631afcd79f60e31b815260040160405180910390fd5b613b18613b53565b606081600001805480602002602001604051908101604052809291908181526020018280548015613bf457602002820191906000526020600020905b815481526020019060010190808311613be0575b50505050509050919050565b606082613c1557613c1082613c6b565b610f36565b5080610f36565b6000818152600183016020526040812054613c6357508154600181810184556000848152602080822090930184905584548482528286019093526040902091909155610f36565b506000610f36565b805115613c7b5780518082602001fd5b604051630a12f52160e11b815260040160405180910390fd5b828054828255906000526020600020908101928215613ccf579160200282015b82811115613ccf578251825591602001919060010190613cb4565b50613cdb929150613e22565b5090565b828054828255906000526020600020908101928215613ccf579160200282015b82811115613ccf578251825473ffffffffffffffffffffffffffffffffffffffff19166001600160a01b03909116178255602090920191600190910190613cff565b828054828255906000526020600020908101928215613d87579160200282015b82811115613d875782518290613d779082614cd8565b5091602001919060010190613d61565b50613cdb929150613e37565b5080546000825590600052602060002090810190612b2b9190613e22565b604080516101808101825260008082526020820181905290918201908152602001606081526020016060815260200160608152602001606081526020016060815260200160608152602001600081526020016000815260200160006002811115613e1d57613e1d613ed0565b905290565b5b80821115613cdb5760008155600101613e23565b80821115613cdb576000613e4b8282613e54565b50600101613e37565b508054613e6090614ae3565b6000825580601f10613e70575050565b601f016020900490600052602060002090810190612b2b9190613e22565b634e487b7160e01b600052601160045260246000fd5b80820180821115610f3657610f36613e8e565b600060208284031215613ec957600080fd5b5035919050565b634e487b7160e01b600052602160045260246000fd5b60078110613ef657613ef6613ed0565b9052565b60005b83811015613f15578181015183820152602001613efd565b50506000910152565b60008151808452613f36816020860160208601613efa565b601f01601f19169290920160200192915050565b60038110612b2b57612b2b613ed0565b613ef681613f4a565b60006101206001600160a01b038c1683526001600160401b038b166020840152613f90604084018b613ee6565b806060840152613fa28184018a613f1e565b90508281036080840152613fb68189613f1e565b905082810360a0840152613fca8188613f1e565b9150508460c08301528360e0830152613fe283613f4a565b826101008301529a9950505050505050505050565b60038110612b2b57600080fd5b634e487b7160e01b600052604160045260246000fd5b604080519081016001600160401b038111828210171561403c5761403c614004565b60405290565b604051601f8201601f191681016001600160401b038111828210171561406a5761406a614004565b604052919050565b80356001600160401b038116811461408957600080fd5b919050565b60008082840360a08112156140a257600080fd5b83356140ad81613ff7565b92506080601f19820112156140c157600080fd5b50604051608081018181106001600160401b03821117156140e4576140e4614004565b6040526140f360208501614072565b815261410160408501614072565b60208201526060840135604082015260808401356060820152809150509250929050565b60008083601f84011261413757600080fd5b5081356001600160401b0381111561414e57600080fd5b60208301915083602082850101111561416657600080fd5b9250929050565b60008060006040848603121561418257600080fd5b8335925060208401356001600160401b0381111561419f57600080fd5b6141ab86828701614125565b9497909650939450505050565b600080600080606085870312156141ce57600080fd5b8435935060208501356141e081613ff7565b925060408501356001600160401b038111156141fb57600080fd5b61420787828801614125565b95989497509550505050565b80356001600160a01b038116811461408957600080fd5b60008060008060008060c0878903121561424357600080fd5b61424c87614213565b955061425a60208801614213565b945061426860408801614213565b935061427660608801614213565b92506080870135915061428b60a08801614072565b90509295509295509295565b6001600160e01b031981168114612b2b57600080fd5b600080600080606085870312156142c357600080fd5b84356142ce81614297565b935060208501356142de81614297565b925060408501356001600160401b03808211156142fa57600080fd5b818701915087601f83011261430e57600080fd5b81358181111561431d57600080fd5b8860208260051b850101111561433257600080fd5b95989497505060200194505050565b8015158114612b2b57600080fd5b6000806040838503121561436257600080fd5b61436b83614213565b9150602083013561437b81614341565b809150509250929050565b6000806040838503121561439957600080fd5b823591506143a960208401614213565b90509250929050565b60006001600160401b038211156143cb576143cb614004565b5060051b60200190565b600082601f8301126143e657600080fd5b813560206143fb6143f6836143b2565b614042565b8083825260208201915060208460051b87010193508684111561441d57600080fd5b602086015b848110156144405761443381614213565b8352918301918301614422565b509695505050505050565b600082601f83011261445c57600080fd5b8135602061446c6143f6836143b2565b8083825260208201915060208460051b87010193508684111561448e57600080fd5b602086015b848110156144405780358352918301918301614493565b60006001600160401b038311156144c3576144c3614004565b6144d6601f8401601f1916602001614042565b90508281528383830111156144ea57600080fd5b828260208301376000602084830101529392505050565b600082601f83011261451257600080fd5b813560206145226143f6836143b2565b82815260059290921b8401810191818101908684111561454157600080fd5b8286015b848110156144405780356001600160401b038111156145645760008081fd5b8701603f810189136145765760008081fd5b6145878986830135604084016144aa565b845250918301918301614545565b600082601f8301126145a657600080fd5b613742838335602085016144aa565b60008060008060008060c087890312156145ce57600080fd5b86356001600160401b03808211156145e557600080fd5b6145f18a838b016143d5565b9750602089013591508082111561460757600080fd5b6146138a838b0161444b565b9650604089013591508082111561462957600080fd5b6146358a838b01614501565b9550606089013591508082111561464b57600080fd5b6146578a838b01614595565b9450608089013591508082111561466d57600080fd5b6146798a838b01614595565b935060a089013591508082111561468f57600080fd5b5061469c89828a01614595565b9150509295509295509295565b6000602082840312156146bb57600080fd5b813561374281614297565b600080604083850312156146d957600080fd5b82359150602083013561437b81613ff7565b6000806000806080858703121561470157600080fd5b84356001600160401b038082111561471857600080fd5b614724888389016143d5565b9550602087013591508082111561473a57600080fd5b6147468883890161444b565b9450604087013591508082111561475c57600080fd5b61476888838901614501565b9350606087013591508082111561477e57600080fd5b5061478b87828801614595565b91505092959194509250565b60008151808452602080850194506020840160005b838110156147c8578151875295820195908201906001016147ac565b509495945050505050565b6020815260006137426020830184614797565b60008151808452602080850194506020840160005b838110156147c85781516001600160a01b0316875295820195908201906001016147fb565b60208152600061374260208301846147e6565b60028110613ef657613ef6613ed0565b6001600160401b038581168252848116602083015283166040820152608081016139006060830184614833565b60006020828403121561488257600080fd5b81356001600160401b0381111561489857600080fd5b6148a484828501614595565b949350505050565b602080825282516001600160e01b031916828201528201516040808301526000906148a46060840182614797565b600080604083850312156148ed57600080fd5b82356148f881614297565b946020939093013593505050565b60008282518085526020808601955060208260051b8401016020860160005b8481101561495357601f19868403018952614941838351613f1e565b98840198925090830190600101614925565b5090979650505050505050565b6020815261497a6020820183516001600160a01b03169052565b6000602083015161499660408401826001600160401b03169052565b5060408301516149a96060840182613ee6565b5060608301516101808060808501526149c66101a08501836147e6565b91506080850151601f19808685030160a08701526149e48483614797565b935060a08701519150808685030160c0870152614a018483614906565b935060c08701519150808685030160e0870152614a1e8483613f1e565b935060e08701519150610100818786030181880152614a3d8584613f1e565b945080880151925050610120818786030181880152614a5c8584613f1e565b9088015161014088810191909152880151610160808901919091528801519094509150614a8d905082860182613f5a565b5090949350505050565b600060208284031215614aa957600080fd5b61374282614213565b6001600160401b0384168152614ac783613f4a565b8260208201526060604082015260006139006060830184613f1e565b600181811c90821680614af757607f821691505b6020821081036111de57634e487b7160e01b600052602260045260246000fd5b6001600160401b0381811683821601908082111561372e5761372e613e8e565b81810381811115610f3657610f36613e8e565b8082028115828204841417610f3657610f36613e8e565b600082614b7e57634e487b7160e01b600052601260045260246000fd5b500490565b81835281816020850137506000828201602090810191909152601f909101601f19169091010190565b6020815260006148a4602083018486614b83565b828152604081016137426020830184613ee6565b60208101610f368284614833565b614beb84613f4a565b838152604060208201526000613900604083018486614b83565b634e487b7160e01b600052603260045260246000fd5b6001600160e01b0319858116825284166020820152606060408201819052810182905260007f07ffffffffffffffffffffffffffffffffffffffffffffffffffffffffffffff831115614c6d57600080fd5b8260051b808560808501379190910160800195945050505050565b601f821115612dee576000816000526020600020601f850160051c81016020861015614cb15750805b601f850160051c820191505b81811015614cd057828155600101614cbd565b505050505050565b81516001600160401b03811115614cf157614cf1614004565b614d0581614cff8454614ae3565b84614c88565b602080601f831160018114614d3a5760008415614d225750858301515b600019600386901b1c1916600185901b178555614cd0565b600085815260208120601f198616915b82811015614d6957888601518255948401946001909101908401614d4a565b5085821015614d875787850151600019600388901b60f8161c191681555b5050505050600190811b01905550565b60e081526000614daa60e083018a6147e6565b8281036020840152614dbc818a614797565b90508281036040840152614dd08189614906565b90508281036060840152614de48188613f1e565b90508281036080840152614df88187613f1e565b905082810360a0840152614e0c8186613f1e565b9150508260c083015298975050505050505050565b60208101614e2e83613f4a565b91905290565b608081526000614e4760808301876147e6565b8281036020840152614e598187614797565b90508281036040840152614e6d8186614906565b91505082606083015295945050505050565b60608101614e8d8286614833565b6001600160401b038085166020840152808416604084015250949350505050565b600060208284031215614ec057600080fd5b5051919050565b600060208284031215614ed957600080fd5b815161374281614341565b6001600160e01b031984811682528316602082015260606040820181905260009061390090830184614797565b60008251614f23818460208701613efa565b9190910192915050565b60006020808385031215614f4057600080fd5b82516001600160401b0380821115614f5757600080fd5b9084019060408287031215614f6b57600080fd5b614f7361401a565b8251614f7e81614297565b81528284015182811115614f9157600080fd5b80840193505086601f840112614fa657600080fd5b82519150614fb66143f6836143b2565b82815260059290921b83018401918481019088841115614fd557600080fd5b938501935b83851015614ff357845182529385019390850190614fda565b94820194909452969550505050505056fea2646970667358221220580ab23d4d09c2cb1bed3d97c63ddf7bf7946230e4ffb3b2fecefadabb41c2ef64736f6c63430008190033",
  "linkReferences": {},
  "deployedLinkReferences": {}
}