{
  "_format": "hh-sol-artifact-1",
  "contractName": "DiamondDao",
  "sourceName": "contracts/DiamondDao.sol",
  "abi": [
    {
      "inputs": [],
      "stateMutability": "nonpayable",
      "type": "constructor"
    },
    {
      "inputs": [
        {
          "internalType": "bytes",
          "name": "funcSelector",
          "type": "bytes"
        },
        {
          "internalType": "address",
          "name": "targetContract",
          "type": "address"
        }
      ],
      "name": "ContractCallFailed",
      "type": "error"
    },
    {
      "inputs": [
        {
          "internalType": "bytes4",
          "name": "funcSelector",
          "type": "bytes4"
        },
        {
          "internalType": "address",
          "name": "targetContract",
          "type": "address"
        }
      ],
      "name": "FunctionUpgradeNotAllowed",
      "type": "error"
    },
    {
      "inputs": [],
      "name": "InsufficientFunds",
      "type": "error"
    },
    {
      "inputs": [],
      "name": "InvalidArgument",
      "type": "error"
    },
    {
      "inputs": [],
      "name": "InvalidStartTimestamp",
      "type": "error"
    },
    {
      "inputs": [
        {
          "internalType": "uint256",
          "name": "currentVal",
          "type": "uint256"
        },
        {
          "internalType": "uint256",
          "name": "newVal",
          "type": "uint256"
        }
      ],
      "name": "InvalidUpgradeValue",
      "type": "error"
    },
    {
      "inputs": [],
      "name": "NewProposalsLimitExceeded",
      "type": "error"
    },
    {
      "inputs": [],
      "name": "OnlyGovernance",
      "type": "error"
    },
    {
      "inputs": [],
      "name": "OnlyProposer",
      "type": "error"
    },
    {
      "inputs": [
        {
          "internalType": "address",
          "name": "caller",
          "type": "address"
        }
      ],
      "name": "OnlyValidators",
      "type": "error"
    },
    {
      "inputs": [
        {
          "internalType": "uint256",
          "name": "proposalId",
          "type": "uint256"
        }
      ],
      "name": "ProposalAlreadyExist",
      "type": "error"
    },
    {
      "inputs": [
        {
          "internalType": "uint256",
          "name": "proposalId",
          "type": "uint256"
        }
      ],
      "name": "ProposalNotExist",
      "type": "error"
    },
    {
      "inputs": [
        {
          "internalType": "address",
          "name": "from",
          "type": "address"
        },
        {
          "internalType": "address",
          "name": "to",
          "type": "address"
        },
        {
          "internalType": "uint256",
          "name": "amount",
          "type": "uint256"
        }
      ],
      "name": "TransferFailed",
      "type": "error"
    },
    {
      "inputs": [
        {
          "internalType": "enum Phase",
          "name": "phase",
          "type": "uint8"
        }
      ],
      "name": "UnavailableInCurrentPhase",
      "type": "error"
    },
    {
      "inputs": [
        {
          "internalType": "uint256",
          "name": "proposalId",
          "type": "uint256"
        },
        {
          "internalType": "enum ProposalState",
          "name": "state",
          "type": "uint8"
        }
      ],
      "name": "UnexpectedProposalState",
      "type": "error"
    },
    {
      "anonymous": false,
      "inputs": [
        {
          "indexed": false,
          "internalType": "uint8",
          "name": "version",
          "type": "uint8"
        }
      ],
      "name": "Initialized",
      "type": "event"
    },
    {
      "anonymous": false,
      "inputs": [
        {
          "indexed": true,
          "internalType": "address",
          "name": "proposer",
          "type": "address"
        },
        {
          "indexed": true,
          "internalType": "uint256",
          "name": "proposalId",
          "type": "uint256"
        },
        {
          "indexed": false,
          "internalType": "string",
          "name": "reason",
          "type": "string"
        }
      ],
      "name": "ProposalCanceled",
      "type": "event"
    },
    {
      "anonymous": false,
      "inputs": [
        {
          "indexed": true,
          "internalType": "address",
          "name": "proposer",
          "type": "address"
        },
        {
          "indexed": true,
          "internalType": "uint256",
          "name": "proposalId",
          "type": "uint256"
        },
        {
          "indexed": false,
          "internalType": "address[]",
          "name": "targets",
          "type": "address[]"
        },
        {
          "indexed": false,
          "internalType": "uint256[]",
          "name": "values",
          "type": "uint256[]"
        },
        {
          "indexed": false,
          "internalType": "bytes[]",
          "name": "calldatas",
          "type": "bytes[]"
        },
        {
          "indexed": false,
          "internalType": "string",
          "name": "title",
          "type": "string"
        },
        {
          "indexed": false,
          "internalType": "string",
          "name": "description",
          "type": "string"
        },
        {
          "indexed": false,
          "internalType": "string",
          "name": "discussionUrl",
          "type": "string"
        }
      ],
      "name": "ProposalCreated",
      "type": "event"
    },
    {
      "anonymous": false,
      "inputs": [
        {
          "indexed": true,
          "internalType": "address",
          "name": "caller",
          "type": "address"
        },
        {
          "indexed": true,
          "internalType": "uint256",
          "name": "proposalId",
          "type": "uint256"
        }
      ],
      "name": "ProposalExecuted",
      "type": "event"
    },
    {
      "anonymous": false,
      "inputs": [
        {
          "indexed": false,
          "internalType": "bool",
          "name": "allowed",
          "type": "bool"
        },
        {
          "indexed": false,
          "internalType": "string",
          "name": "setter",
          "type": "string"
        },
        {
          "indexed": false,
          "internalType": "string",
          "name": "getter",
          "type": "string"
        },
        {
          "indexed": false,
          "internalType": "uint256[]",
          "name": "params",
          "type": "uint256[]"
        }
      ],
      "name": "SetChangeAbleParameters",
      "type": "event"
    },
    {
      "anonymous": false,
      "inputs": [
        {
          "indexed": false,
          "internalType": "uint256",
          "name": "fee",
          "type": "uint256"
        }
      ],
      "name": "SetCreateProposalFee",
      "type": "event"
    },
    {
      "anonymous": false,
      "inputs": [
        {
          "indexed": false,
          "internalType": "address",
          "name": "contractAddress",
          "type": "address"
        },
        {
          "indexed": false,
          "internalType": "bool",
          "name": "isCore",
          "type": "bool"
        }
      ],
      "name": "SetIsCoreContract",
      "type": "event"
    },
    {
      "anonymous": false,
      "inputs": [
        {
          "indexed": true,
          "internalType": "address",
          "name": "voter",
          "type": "address"
        },
        {
          "indexed": true,
          "internalType": "uint256",
          "name": "proposalId",
          "type": "uint256"
        },
        {
          "indexed": false,
          "internalType": "enum Vote",
          "name": "vote",
          "type": "uint8"
        }
      ],
      "name": "SubmitVote",
      "type": "event"
    },
    {
      "anonymous": false,
      "inputs": [
        {
          "indexed": true,
          "internalType": "address",
          "name": "voter",
          "type": "address"
        },
        {
          "indexed": true,
          "internalType": "uint256",
          "name": "proposalId",
          "type": "uint256"
        },
        {
          "indexed": false,
          "internalType": "enum Vote",
          "name": "vote",
          "type": "uint8"
        },
        {
          "indexed": false,
          "internalType": "string",
          "name": "reason",
          "type": "string"
        }
      ],
      "name": "SubmitVoteWithReason",
      "type": "event"
    },
    {
      "anonymous": false,
      "inputs": [
        {
          "indexed": false,
          "internalType": "enum Phase",
          "name": "phase",
          "type": "uint8"
        },
        {
          "indexed": false,
          "internalType": "uint256",
          "name": "start",
          "type": "uint256"
        },
        {
          "indexed": false,
          "internalType": "uint256",
          "name": "end",
          "type": "uint256"
        }
      ],
      "name": "SwitchDaoPhase",
      "type": "event"
    },
    {
      "anonymous": false,
      "inputs": [
        {
          "indexed": true,
          "internalType": "address",
          "name": "caller",
          "type": "address"
        },
        {
          "indexed": true,
          "internalType": "uint256",
          "name": "proposalId",
          "type": "uint256"
        },
        {
          "indexed": false,
          "internalType": "bool",
          "name": "accepted",
          "type": "bool"
        }
      ],
      "name": "VotingFinalized",
      "type": "event"
    },
    {
      "inputs": [],
      "name": "DAO_PHASE_DURATION",
      "outputs": [
        {
          "internalType": "uint64",
          "name": "",
          "type": "uint64"
        }
      ],
      "stateMutability": "view",
      "type": "function"
    },
    {
      "inputs": [],
      "name": "MAX_NEW_PROPOSALS",
      "outputs": [
        {
          "internalType": "uint256",
          "name": "",
          "type": "uint256"
        }
      ],
      "stateMutability": "view",
      "type": "function"
    },
    {
      "inputs": [
        {
          "internalType": "uint256",
          "name": "proposalId",
          "type": "uint256"
        },
        {
          "internalType": "string",
          "name": "reason",
          "type": "string"
        }
      ],
      "name": "cancel",
      "outputs": [],
      "stateMutability": "nonpayable",
      "type": "function"
    },
    {
      "inputs": [
        {
          "internalType": "uint256",
          "name": "proposalId",
          "type": "uint256"
        }
      ],
      "name": "countVotes",
      "outputs": [
        {
          "components": [
            {
              "internalType": "uint64",
              "name": "countYes",
              "type": "uint64"
            },
            {
              "internalType": "uint64",
              "name": "countNo",
              "type": "uint64"
            },
            {
              "internalType": "uint256",
              "name": "stakeYes",
              "type": "uint256"
            },
            {
              "internalType": "uint256",
              "name": "stakeNo",
              "type": "uint256"
            }
          ],
          "internalType": "struct VotingResult",
          "name": "",
          "type": "tuple"
        }
      ],
      "stateMutability": "view",
      "type": "function"
    },
    {
      "inputs": [],
      "name": "createProposalFee",
      "outputs": [
        {
          "internalType": "uint256",
          "name": "",
          "type": "uint256"
        }
      ],
      "stateMutability": "view",
      "type": "function"
    },
    {
      "inputs": [
        {
          "internalType": "uint256",
          "name": "",
          "type": "uint256"
        }
      ],
      "name": "currentPhaseProposals",
      "outputs": [
        {
          "internalType": "uint256",
          "name": "",
          "type": "uint256"
        }
      ],
      "stateMutability": "view",
      "type": "function"
    },
    {
      "inputs": [
        {
          "internalType": "uint256",
          "name": "",
          "type": "uint256"
        },
        {
          "internalType": "address",
          "name": "",
          "type": "address"
        }
      ],
      "name": "daoEpochStakeSnapshot",
      "outputs": [
        {
          "internalType": "uint256",
          "name": "",
          "type": "uint256"
        }
      ],
      "stateMutability": "view",
      "type": "function"
    },
    {
      "inputs": [],
      "name": "daoPhase",
      "outputs": [
        {
          "internalType": "uint64",
          "name": "start",
          "type": "uint64"
        },
        {
          "internalType": "uint64",
          "name": "end",
          "type": "uint64"
        },
        {
          "internalType": "uint64",
          "name": "daoEpoch",
          "type": "uint64"
        },
        {
          "internalType": "enum Phase",
          "name": "phase",
          "type": "uint8"
        }
      ],
      "stateMutability": "view",
      "type": "function"
    },
    {
      "inputs": [],
      "name": "daoPhaseCount",
      "outputs": [
        {
          "internalType": "uint256",
          "name": "",
          "type": "uint256"
        }
      ],
      "stateMutability": "view",
      "type": "function"
    },
    {
      "inputs": [
        {
          "internalType": "uint256",
          "name": "proposalId",
          "type": "uint256"
        }
      ],
      "name": "execute",
      "outputs": [],
      "stateMutability": "nonpayable",
      "type": "function"
    },
    {
      "inputs": [
        {
          "internalType": "uint256",
          "name": "proposalId",
          "type": "uint256"
        }
      ],
      "name": "finalize",
      "outputs": [],
      "stateMutability": "nonpayable",
      "type": "function"
    },
    {
      "inputs": [],
      "name": "getCurrentPhaseProposals",
      "outputs": [
        {
          "internalType": "uint256[]",
          "name": "",
          "type": "uint256[]"
        }
      ],
      "stateMutability": "view",
      "type": "function"
    },
    {
      "inputs": [
        {
          "internalType": "uint256",
          "name": "proposalId",
          "type": "uint256"
        }
      ],
      "name": "getProposal",
      "outputs": [
        {
          "components": [
            {
              "internalType": "address",
              "name": "proposer",
              "type": "address"
            },
            {
              "internalType": "uint64",
              "name": "votingDaoEpoch",
              "type": "uint64"
            },
            {
              "internalType": "enum ProposalState",
              "name": "state",
              "type": "uint8"
            },
            {
              "internalType": "address[]",
              "name": "targets",
              "type": "address[]"
            },
            {
              "internalType": "uint256[]",
              "name": "values",
              "type": "uint256[]"
            },
            {
              "internalType": "bytes[]",
              "name": "calldatas",
              "type": "bytes[]"
            },
            {
              "internalType": "string",
              "name": "title",
              "type": "string"
            },
            {
              "internalType": "string",
              "name": "description",
              "type": "string"
            },
            {
              "internalType": "string",
              "name": "discussionUrl",
              "type": "string"
            },
            {
              "internalType": "uint256",
              "name": "daoPhaseCount",
              "type": "uint256"
            },
            {
              "internalType": "enum ProposalType",
              "name": "proposalType",
              "type": "uint8"
            }
          ],
          "internalType": "struct Proposal",
          "name": "",
          "type": "tuple"
        }
      ],
      "stateMutability": "view",
      "type": "function"
    },
    {
      "inputs": [
        {
          "internalType": "uint256",
          "name": "proposalId",
          "type": "uint256"
        }
      ],
      "name": "getProposalVoters",
      "outputs": [
        {
          "internalType": "address[]",
          "name": "",
          "type": "address[]"
        }
      ],
      "stateMutability": "view",
      "type": "function"
    },
    {
      "inputs": [
        {
          "internalType": "uint256",
          "name": "proposalId",
          "type": "uint256"
        }
      ],
      "name": "getProposalVotersCount",
      "outputs": [
        {
          "internalType": "uint256",
          "name": "",
          "type": "uint256"
        }
      ],
      "stateMutability": "view",
      "type": "function"
    },
    {
      "inputs": [],
      "name": "governancePot",
      "outputs": [
        {
          "internalType": "uint256",
          "name": "",
          "type": "uint256"
        }
      ],
      "stateMutability": "view",
      "type": "function"
    },
    {
      "inputs": [
        {
          "internalType": "address[]",
          "name": "targets",
          "type": "address[]"
        },
        {
          "internalType": "uint256[]",
          "name": "values",
          "type": "uint256[]"
        },
        {
          "internalType": "bytes[]",
          "name": "calldatas",
          "type": "bytes[]"
        },
        {
          "internalType": "string",
          "name": "description",
          "type": "string"
        }
      ],
      "name": "hashProposal",
      "outputs": [
        {
          "internalType": "uint256",
          "name": "",
          "type": "uint256"
        }
      ],
      "stateMutability": "pure",
      "type": "function"
    },
    {
      "inputs": [
        {
          "internalType": "address",
          "name": "_validatorSet",
          "type": "address"
        },
        {
          "internalType": "address",
          "name": "_stakingHbbft",
          "type": "address"
        },
        {
          "internalType": "address",
          "name": "_reinsertPot",
          "type": "address"
        },
        {
          "internalType": "uint256",
          "name": "_createProposalFee",
          "type": "uint256"
        },
        {
          "internalType": "uint64",
          "name": "_startTimestamp",
          "type": "uint64"
        }
      ],
      "name": "initialize",
      "outputs": [],
      "stateMutability": "nonpayable",
      "type": "function"
    },
    {
      "inputs": [
        {
          "internalType": "address",
          "name": "",
          "type": "address"
        }
      ],
      "name": "isCoreContract",
      "outputs": [
        {
          "internalType": "bool",
          "name": "",
          "type": "bool"
        }
      ],
      "stateMutability": "view",
      "type": "function"
    },
    {
      "inputs": [
        {
          "internalType": "uint256",
          "name": "proposalId",
          "type": "uint256"
        }
      ],
      "name": "proposalExists",
      "outputs": [
        {
          "internalType": "bool",
          "name": "",
          "type": "bool"
        }
      ],
      "stateMutability": "view",
      "type": "function"
    },
    {
      "inputs": [
        {
          "internalType": "uint256",
          "name": "",
          "type": "uint256"
        }
      ],
      "name": "proposals",
      "outputs": [
        {
          "internalType": "address",
          "name": "proposer",
          "type": "address"
        },
        {
          "internalType": "uint64",
          "name": "votingDaoEpoch",
          "type": "uint64"
        },
        {
          "internalType": "enum ProposalState",
          "name": "state",
          "type": "uint8"
        },
        {
          "internalType": "string",
          "name": "title",
          "type": "string"
        },
        {
          "internalType": "string",
          "name": "description",
          "type": "string"
        },
        {
          "internalType": "string",
          "name": "discussionUrl",
          "type": "string"
        },
        {
          "internalType": "uint256",
          "name": "daoPhaseCount",
          "type": "uint256"
        },
        {
          "internalType": "enum ProposalType",
          "name": "proposalType",
          "type": "uint8"
        }
      ],
      "stateMutability": "view",
      "type": "function"
    },
    {
      "inputs": [
        {
          "internalType": "address[]",
          "name": "targets",
          "type": "address[]"
        },
        {
          "internalType": "uint256[]",
          "name": "values",
          "type": "uint256[]"
        },
        {
          "internalType": "bytes[]",
          "name": "calldatas",
          "type": "bytes[]"
        },
        {
          "internalType": "string",
          "name": "title",
          "type": "string"
        },
        {
          "internalType": "string",
          "name": "description",
          "type": "string"
        },
        {
          "internalType": "string",
          "name": "discussionUrl",
          "type": "string"
        }
      ],
      "name": "propose",
      "outputs": [],
      "stateMutability": "payable",
      "type": "function"
    },
    {
      "inputs": [
        {
          "internalType": "enum ProposalType",
          "name": "_type",
          "type": "uint8"
        },
        {
          "components": [
            {
              "internalType": "uint64",
              "name": "countYes",
              "type": "uint64"
            },
            {
              "internalType": "uint64",
              "name": "countNo",
              "type": "uint64"
            },
            {
              "internalType": "uint256",
              "name": "stakeYes",
              "type": "uint256"
            },
            {
              "internalType": "uint256",
              "name": "stakeNo",
              "type": "uint256"
            }
          ],
          "internalType": "struct VotingResult",
          "name": "result",
          "type": "tuple"
        }
      ],
      "name": "quorumReached",
      "outputs": [
        {
          "internalType": "bool",
          "name": "",
          "type": "bool"
        }
      ],
      "stateMutability": "view",
      "type": "function"
    },
    {
      "inputs": [],
      "name": "reinsertPot",
      "outputs": [
        {
          "internalType": "address",
          "name": "",
          "type": "address"
        }
      ],
      "stateMutability": "view",
      "type": "function"
    },
    {
      "inputs": [
        {
          "internalType": "uint256",
          "name": "",
          "type": "uint256"
        }
      ],
      "name": "results",
      "outputs": [
        {
          "internalType": "uint64",
          "name": "countYes",
          "type": "uint64"
        },
        {
          "internalType": "uint64",
          "name": "countNo",
          "type": "uint64"
        },
        {
          "internalType": "uint256",
          "name": "stakeYes",
          "type": "uint256"
        },
        {
          "internalType": "uint256",
          "name": "stakeNo",
          "type": "uint256"
        }
      ],
      "stateMutability": "view",
      "type": "function"
    },
    {
      "inputs": [
        {
          "internalType": "uint256",
          "name": "_fee",
          "type": "uint256"
        }
      ],
      "name": "setCreateProposalFee",
      "outputs": [],
      "stateMutability": "nonpayable",
      "type": "function"
    },
    {
      "inputs": [
        {
          "internalType": "address",
          "name": "_add",
          "type": "address"
        },
        {
          "internalType": "bool",
          "name": "isCore",
          "type": "bool"
        }
      ],
      "name": "setIsCoreContract",
      "outputs": [],
      "stateMutability": "nonpayable",
      "type": "function"
    },
    {
      "inputs": [],
      "name": "stakingHbbft",
      "outputs": [
        {
          "internalType": "contract IStakingHbbft",
          "name": "",
          "type": "address"
        }
      ],
      "stateMutability": "view",
      "type": "function"
    },
    {
      "inputs": [],
      "name": "statistic",
      "outputs": [
        {
          "internalType": "uint64",
          "name": "total",
          "type": "uint64"
        },
        {
          "internalType": "uint64",
          "name": "accepted",
          "type": "uint64"
        },
        {
          "internalType": "uint64",
          "name": "declined",
          "type": "uint64"
        },
        {
          "internalType": "uint64",
          "name": "canceled",
          "type": "uint64"
        }
      ],
      "stateMutability": "view",
      "type": "function"
    },
    {
      "inputs": [],
      "name": "switchPhase",
      "outputs": [],
      "stateMutability": "nonpayable",
      "type": "function"
    },
    {
      "inputs": [],
      "name": "validatorSet",
      "outputs": [
        {
          "internalType": "contract IValidatorSetHbbft",
          "name": "",
          "type": "address"
        }
      ],
      "stateMutability": "view",
      "type": "function"
    },
    {
      "inputs": [
        {
          "internalType": "uint256",
          "name": "proposalId",
          "type": "uint256"
        },
        {
          "internalType": "enum Vote",
          "name": "_vote",
          "type": "uint8"
        }
      ],
      "name": "vote",
      "outputs": [],
      "stateMutability": "nonpayable",
      "type": "function"
    },
    {
      "inputs": [
        {
          "internalType": "uint256",
          "name": "proposalId",
          "type": "uint256"
        },
        {
          "internalType": "enum Vote",
          "name": "_vote",
          "type": "uint8"
        },
        {
          "internalType": "string",
          "name": "reason",
          "type": "string"
        }
      ],
      "name": "voteWithReason",
      "outputs": [],
      "stateMutability": "nonpayable",
      "type": "function"
    },
    {
      "inputs": [
        {
          "internalType": "uint256",
          "name": "",
          "type": "uint256"
        },
        {
          "internalType": "address",
          "name": "",
          "type": "address"
        }
      ],
      "name": "votes",
      "outputs": [
        {
          "internalType": "uint64",
          "name": "timestamp",
          "type": "uint64"
        },
        {
          "internalType": "enum Vote",
          "name": "vote",
          "type": "uint8"
        },
        {
          "internalType": "string",
          "name": "reason",
          "type": "string"
        }
      ],
      "stateMutability": "view",
      "type": "function"
    },
    {
      "stateMutability": "payable",
      "type": "receive"
    }
  ],
  "bytecode": "0x60806040523480156200001157600080fd5b506200001c62000022565b620000e3565b600054610100900460ff16156200008f5760405162461bcd60e51b815260206004820152602760248201527f496e697469616c697a61626c653a20636f6e747261637420697320696e697469604482015266616c697a696e6760c81b606482015260840160405180910390fd5b60005460ff90811614620000e1576000805460ff191660ff9081179091556040519081527f7f26b83ff96e1f2b6a682f133852f6798a09c465da95921460cefb38474024989060200160405180910390a15b565b61404380620000f36000396000f3fe60806040526004361061021d5760003560e01c8063950e3e441161011d578063c7f758a8116100b0578063ec47c4711161007f578063f22d232611610064578063f22d2326146107e2578063fe0d94c1146107f8578063ff71d6771461081857600080fd5b8063ec47c471146107ad578063ed965ddc146107c257600080fd5b8063c7f758a814610701578063d22a20cd1461072e578063d23254b41461075e578063deec4e521461078d57600080fd5b8063ab0eb62d116100ec578063ab0eb62d1461065c578063ab266e1014610671578063b131b6a514610691578063c3b66bed146106e157600080fd5b8063950e3e44146105be57806395dd7fb9146105de578063a68f34f714610600578063aa72e3b91461062d57600080fd5b80632baffa3f116101b05780636b6d33da1161017f57806373f129581161016457806373f129581461055e5780639426e2261461057e578063943e82161461059e57600080fd5b80636b6d33da146105165780637293368d1461054b57600080fd5b80632baffa3f1461044057806331e40733146104645780633c5fc711146104845780635e8815f2146104f657600080fd5b80631374b22d116101ec5780631374b22d146103085780631536f472146103405780631840f0ca146103605780631b0c27da146103c557600080fd5b8063013cf08b1461024157806305261aea1461027e57806311693b21146102a05780631243e6cb146102d057600080fd5b3661023c573460366000828254610234919061319f565b925050819055005b600080fd5b34801561024d57600080fd5b5061026161025c3660046131b2565b61082e565b604051610275989796959493929190613255565b60405180910390f35b34801561028a57600080fd5b5061029e6102993660046131b2565b610a25565b005b3480156102ac57600080fd5b506102c06102bb366004613341565b610c1e565b6040519015158152602001610275565b3480156102dc57600080fd5b506038546102f0906001600160a01b031681565b6040516001600160a01b039091168152602001610275565b34801561031457600080fd5b506102c06103233660046131b2565b6000908152603c60205260409020546001600160a01b0316151590565b34801561034c57600080fd5b5061029e61035b366004613424565b610cbe565b34801561036c57600080fd5b5061038061037b3660046131b2565b610dd2565b604051610275919060006080820190506001600160401b0380845116835280602085015116602084015250604083015160408301526060830151606083015292915050565b3480156103d157600080fd5b506104156103e03660046131b2565b603e602052600090815260409020805460018201546002909201546001600160401b0380831693600160401b90930416919084565b604080516001600160401b039586168152949093166020850152918301526060820152608001610275565b34801561044c57600080fd5b5061045660365481565b604051908152602001610275565b34801561047057600080fd5b5061029e61047f36600461347e565b610f66565b34801561049057600080fd5b506039546104c3906001600160401b0380821691600160401b8104821691600160801b8204811691600160c01b90041684565b604080516001600160401b0395861681529385166020850152918416918301919091529091166060820152608001610275565b34801561050257600080fd5b5061029e6105113660046134fa565b6110ab565b34801561052257600080fd5b50610456610531366004613533565b604060208181526000938452818420905290825290205481565b61029e610559366004613755565b61112e565b34801561056a57600080fd5b506034546102f0906001600160a01b031681565b34801561058a57600080fd5b506037546102f0906001600160a01b031681565b3480156105aa57600080fd5b5061029e6105b9366004613849565b6115bc565b3480156105ca57600080fd5b506104566105d9366004613875565b6116c5565b3480156105ea57600080fd5b506105f361170b565b604051610275919061395c565b34801561060c57600080fd5b5061062061061b3660046131b2565b611763565b60405161027591906139a8565b34801561063957600080fd5b506106446212750081565b6040516001600160401b039091168152602001610275565b34801561066857600080fd5b5061029e61177d565b34801561067d57600080fd5b5061029e61068c3660046131b2565b611aca565b34801561069d57600080fd5b50603a546106d1906001600160401b0380821691600160401b8104821691600160801b82041690600160c01b900460ff1684565b60405161027594939291906139cb565b3480156106ed57600080fd5b506104566106fc3660046131b2565b611b46565b34801561070d57600080fd5b5061072161071c3660046131b2565b611b5d565b6040516102759190613a58565b34801561073a57600080fd5b506102c0610749366004613b82565b603d6020526000908152604090205460ff1681565b34801561076a57600080fd5b5061077e610779366004613533565b611f67565b60405161027593929190613b9f565b34801561079957600080fd5b5061029e6107a8366004613bd9565b61202d565b3480156107b957600080fd5b50610456606481565b3480156107ce57600080fd5b506104566107dd3660046131b2565b6122b8565b3480156107ee57600080fd5b5061045660355481565b34801561080457600080fd5b5061029e6108133660046131b2565b6122d9565b34801561082457600080fd5b5061045660335481565b603c60205260009081526040902080546004820180546001600160a01b03831693600160a01b84046001600160401b031693600160e01b900460ff1692909161087690613c3d565b80601f01602080910402602001604051908101604052809291908181526020018280546108a290613c3d565b80156108ef5780601f106108c4576101008083540402835291602001916108ef565b820191906000526020600020905b8154815290600101906020018083116108d257829003601f168201915b50505050509080600501805461090490613c3d565b80601f016020809104026020016040519081016040528092919081815260200182805461093090613c3d565b801561097d5780601f106109525761010080835404028352916020019161097d565b820191906000526020600020905b81548152906001019060200180831161096057829003601f168201915b50505050509080600601805461099290613c3d565b80601f01602080910402602001604051908101604052809291908181526020018280546109be90613c3d565b8015610a0b5780601f106109e057610100808354040283529160200191610a0b565b820191906000526020600020905b8154815290600101906020018083116109ee57829003601f168201915b50505050600783015460089093015491929160ff16905088565b6000818152603c602052604090205481906001600160a01b0316610a645760405163986731a160e01b8152600481018290526024015b60405180910390fd5b610a6f826003612514565b6000828152603c6020526040812090610a89846001612570565b6000858152603e602090815260409182902090830151815484516fffffffffffffffffffffffffffffffff19909116600160401b6001600160401b039384160267ffffffffffffffff1916179116178155606083015160028201559082015160019091015590506008820154600090610b059060ff1683610c1e565b905080610b13576005610b16565b60045b8354849060ff60e01b1916600160e01b836006811115610b3857610b386131cb565b02179055508015610b92576039805460019190600890610b69908490600160401b90046001600160401b0316613c71565b92506101000a8154816001600160401b0302191690836001600160401b03160217905550610bdd565b6039805460019190601090610bb8908490600160801b90046001600160401b0316613c71565b92506101000a8154816001600160401b0302191690836001600160401b031602179055505b6040518115158152859033907f4a82eb80f2a86beb92f5670422f698264b3511048a29b400a6a1ce684769581e906020015b60405180910390a35050505050565b6000806000610c366038546001600160a01b03163190565b90506001856002811115610c4c57610c4c6131cb565b03610c7157612710610c6082611388613c91565b610c6a9190613ca8565b9150610c8d565b612710610c8082610ce4613c91565b610c8a9190613ca8565b91505b8184602001516001600160401b0316610ca6919061319f565b84516001600160401b03161015925050505b92915050565b6000838152603c602052604090205483906001600160a01b0316610cf85760405163986731a160e01b815260048101829052602401610a5b565b6000848152603c6020526040902080546001600160a01b03163314610d3057604051630608c7c960e51b815260040160405180910390fd5b610d3b856000612514565b805460ff60e01b1916600160e01b1781556039805460019190601890610d72908490600160c01b90046001600160401b0316613c71565b92506101000a8154816001600160401b0302191690836001600160401b0316021790555084336001600160a01b03167fd16ff8053e1476416f5be14c32305a3652ac0b182ac04ede8c101d867b75bd148686604051610c0f929190613cf3565b6040805160808101825260008082526020820181905291810182905260608101919091526000828152603c602052604090205482906001600160a01b0316610e305760405163986731a160e01b815260048101829052602401610a5b565b6000838152603c6020526040902054600160e01b900460ff166004816006811115610e5d57610e5d6131cb565b1480610e7a57506005816006811115610e7857610e786131cb565b145b80610e9657506006816006811115610e9457610e946131cb565b145b15610ef357506000838152603e6020908152604091829020825160808101845281546001600160401b038082168352600160401b909104169281019290925260018101549282019290925260029091015460608201529150610f60565b6003816006811115610f0757610f076131cb565b03610f1f57610f17846001612570565b925050610f60565b6002816006811115610f3357610f336131cb565b03610f4357610f17846000612570565b838160405163605cfad560e01b8152600401610a5b929190613d0f565b50919050565b6000848152603c602052604090205484906001600160a01b0316610fa05760405163986731a160e01b815260048101829052602401610a5b565b600180603a54600160c01b900460ff166001811115610fc157610fc16131cb565b14610fed57603a546040516378030af960e11b8152610a5b91600160c01b900460ff1690600401613d23565b610ff63361279e565b6110155760405163fb426bed60e01b8152336004820152602401610a5b565b600033905061105c81888888888080601f01602080910402602001604051908101604052809392919081815260200183838082843760009201919091525061289b92505050565b86816001600160a01b03167fde85a12bb3f2d766e67cf54febc7c53ae9c500da072f8fdfb34aba5ca5525ebf88888860405161109a93929190613d36565b60405180910390a350505050505050565b3330146110cb576040516354348f0360e01b815260040160405180910390fd5b6001600160a01b0382166000818152603d6020908152604091829020805460ff19168515159081179091558251938452908301527fc73e95af540565c649d9453cb23b01f505752b94f04ff81b52ce528047232f23910160405180910390a15050565b600080603a54600160c01b900460ff16600181111561114f5761114f6131cb565b1461117b57603a546040516378030af960e11b8152610a5b91600160c01b900460ff1690600401613d23565b868560005b825181101561131957603d600084838151811061119f5761119f613d59565b6020908102919091018101516001600160a01b031682528101919091526040016000205460ff1615611307576000806111fa8484815181106111e3576111e3613d59565b602002602001015160208101516024909101519091565b9150915084838151811061121057611210613d59565b602090810291909101015160405163ba08d23760e01b81527fffffffff0000000000000000000000000000000000000000000000000000000084166004820152602481018390526001600160a01b039091169063ba08d23790604401602060405180830381865afa158015611289573d6000803e3d6000fd5b505050506040513d601f19601f820116820180604052508101906112ad9190613d6f565b6113045760405162461bcd60e51b815260206004820152602260248201527f6e65772076616c7565206e6f742077697468696e20616c6c6f7765642072616e604482015261676560f01b6064820152608401610a5b565b50505b8061131181613d8c565b915050611180565b508751895114158061132d57508651895114155b8061133757508851155b156113555760405163a9cb9e0d60e01b815260040160405180910390fd5b60355434146113775760405163356680b760e01b815260040160405180910390fd5b603b5460641161139a57604051633f2ad2e160e11b815260040160405180910390fd5b60006113a88a8a8a896116c5565b6000818152603c60205260409020549091506001600160a01b0316156113e45760405163d3df438360e01b815260048101829052602401610a5b565b6000818152603c6020908152604090912080547fffffff00ffffffffffffffff0000000000000000000000000000000000000000163360ff60e01b1981169190911782558c51909261143d9160018401918f0190612f96565b508a5161145390600283019060208e0190613008565b50895161146990600383019060208d0190613043565b50600481016114788a82613deb565b50600581016114878982613deb565b50600681016114968882613deb565b5060335460078201556114a98c8b6129ac565b60088201805460ff191660018360028111156114c7576114c76131cb565b0217905550603b80546001818101835560009283527fbbe3212124853f8b0084a66a2d057c2966e251e132af3691db153ab65f0d1a4d909101859055603980549192909161151f9084906001600160401b0316613c71565b92506101000a8154816001600160401b0302191690836001600160401b03160217905550611562603460009054906101000a90046001600160a01b031634612a46565b82826001600160a01b03167f0862e0d24b6284416802acfafc53281043e0ef028202f20e81e6e3c133e78a888e8e8e8e8e8e6040516115a696959493929190613eaa565b60405180910390a3505050505050505050505050565b6000828152603c602052604090205482906001600160a01b03166115f65760405163986731a160e01b815260048101829052602401610a5b565b600180603a54600160c01b900460ff166001811115611617576116176131cb565b1461164357603a546040516378030af960e11b8152610a5b91600160c01b900460ff1690600401613d23565b61164c3361279e565b61166b5760405163fb426bed60e01b8152336004820152602401610a5b565b600033905061168b8186866040518060200160405280600081525061289b565b84816001600160a01b03167f343f24b88bd3789b60993251090e2184e0e4ae199d79b14a510fc1a08b51f51486604051610c0f9190613d23565b60008082805190602001209050858585836040516020016116e99493929190613f1f565b60408051601f1981840301815291905280516020909101209695505050505050565b6060603b80548060200260200160405190810160405280929190818152602001828054801561175957602002820191906000526020600020905b815481526020019060010190808311611745575b5050505050905090565b6000818152604260205260409020606090610cb890612ad2565b603a54600160401b90046001600160401b031642101561179957565b600080603a54600160c01b900460ff1660018111156117ba576117ba6131cb565b146117c65760006117c9565b60015b603a549091506000906117ed90600160401b90046001600160401b03166001613c71565b603a805467ffffffffffffffff19166001600160401b03831617905590506118186212750082613c71565b603a80546001600160401b0392909216600160401b026fffffffffffffffff00000000000000001983168117825584927fffffffffffffff00ffffffffffffffffffffffffffffffffffffffffffffffff9091167fffffffffffffff00ffffffffffffffff0000000000000000ffffffffffffffff90911617600160c01b8360018111156118a8576118a86131cb565b0217905550600060018360018111156118c3576118c36131cb565b146118cf5760036118d2565b60025b9050600060038260068111156118ea576118ea6131cb565b14905060005b603b548110156119be576000603b828154811061190f5761190f613d59565b6000918252602080832090910154808352603c90915260409091208054919250859160ff60e01b1916600160e01b83600681111561194f5761194f6131cb565b021790555082156119ad57603a546000828152603c6020526040902080547fffffffff0000000000000000ffffffffffffffffffffffffffffffffffffffff16600160801b9092046001600160401b0316600160a01b029190911790555b506119b781613d8c565b90506118f0565b508015611a2c57603a546119e190600160801b90046001600160401b0316612adf565b603a805460019190601090611a07908490600160801b90046001600160401b0316613c71565b92506101000a8154816001600160401b0302191690836001600160401b031602179055505b6000846001811115611a4057611a406131cb565b03611a6a57600160336000828254611a58919061319f565b90915550611a6a9050603b6000613095565b603a546040517f4887f063ba2113285aba0e893c372b65da5e458b463fb01fdf1fe0d266acff0e91611abc9160ff600160c01b830416916001600160401b0380821692600160401b9092041690613f6a565b60405180910390a150505050565b333014611aea576040516354348f0360e01b815260040160405180910390fd5b80600003611b0b5760405163a9cb9e0d60e01b815260040160405180910390fd5b60358190556040518181527f7d6e1cf0de9a5ba39e02e05972eb08471682fc361b20458a3f200f7bf087b5359060200160405180910390a150565b6000818152604260205260408120610cb890612be4565b611b656130b3565b6000828152603c602090815260409182902082516101608101845281546001600160a01b0381168252600160a01b81046001600160401b03169382019390935292909190830190600160e01b900460ff166006811115611bc757611bc76131cb565b6006811115611bd857611bd86131cb565b815260200160018201805480602002602001604051908101604052809291908181526020018280548015611c3557602002820191906000526020600020905b81546001600160a01b03168152600190910190602001808311611c17575b5050505050815260200160028201805480602002602001604051908101604052809291908181526020018280548015611c8d57602002820191906000526020600020905b815481526020019060010190808311611c79575b5050505050815260200160038201805480602002602001604051908101604052809291908181526020016000905b82821015611d67578382906000526020600020018054611cda90613c3d565b80601f0160208091040260200160405190810160405280929190818152602001828054611d0690613c3d565b8015611d535780601f10611d2857610100808354040283529160200191611d53565b820191906000526020600020905b815481529060010190602001808311611d3657829003601f168201915b505050505081526020019060010190611cbb565b505050508152602001600482018054611d7f90613c3d565b80601f0160208091040260200160405190810160405280929190818152602001828054611dab90613c3d565b8015611df85780601f10611dcd57610100808354040283529160200191611df8565b820191906000526020600020905b815481529060010190602001808311611ddb57829003601f168201915b50505050508152602001600582018054611e1190613c3d565b80601f0160208091040260200160405190810160405280929190818152602001828054611e3d90613c3d565b8015611e8a5780601f10611e5f57610100808354040283529160200191611e8a565b820191906000526020600020905b815481529060010190602001808311611e6d57829003601f168201915b50505050508152602001600682018054611ea390613c3d565b80601f0160208091040260200160405190810160405280929190818152602001828054611ecf90613c3d565b8015611f1c5780601f10611ef157610100808354040283529160200191611f1c565b820191906000526020600020905b815481529060010190602001808311611eff57829003601f168201915b505050918352505060078201546020820152600882015460409091019060ff166002811115611f4d57611f4d6131cb565b6002811115611f5e57611f5e6131cb565b90525092915050565b603f602090815260009283526040808420909152908252902080546001820180546001600160401b03831693600160401b90930460ff16929190611faa90613c3d565b80601f0160208091040260200160405190810160405280929190818152602001828054611fd690613c3d565b80156120235780601f10611ff857610100808354040283529160200191612023565b820191906000526020600020905b81548152906001019060200180831161200657829003601f168201915b5050505050905083565b600054610100900460ff161580801561204d5750600054600160ff909116105b806120675750303b158015612067575060005460ff166001145b6120d95760405162461bcd60e51b815260206004820152602e60248201527f496e697469616c697a61626c653a20636f6e747261637420697320616c72656160448201527f647920696e697469616c697a65640000000000000000000000000000000000006064820152608401610a5b565b6000805460ff1916600117905580156120fc576000805461ff0019166101001790555b6001600160a01b038616158061211957506001600160a01b038416155b8061212b57506001600160a01b038516155b80612134575082155b156121525760405163a9cb9e0d60e01b815260040160405180910390fd5b42826001600160401b0316101561217c576040516307f5e89560e51b815260040160405180910390fd5b612184612bee565b6037805473ffffffffffffffffffffffffffffffffffffffff199081166001600160a01b0389811691909117909255603880548216888416179055603480549091169186169190911790556035839055603a805467ffffffffffffffff19166001600160401b0384161790556121fd6212750083613c71565b603a80546001600160401b0392909216600160401b027fffffffffffffff000000000000000000ffffffffffffffffffffffffffffffff167fffffffffffffff0000000000000000000000000000000000ffffffffffffffff90921691909117600160801b179055600160335580156122b0576000805461ff0019169055604051600181527f7f26b83ff96e1f2b6a682f133852f6798a09c465da95921460cefb38474024989060200160405180910390a15b505050505050565b603b81815481106122c857600080fd5b600091825260209091200154905081565b6122e1612c63565b6000818152603c602052604090205481906001600160a01b031661231b5760405163986731a160e01b815260048101829052602401610a5b565b612326826004612514565b6000828152603c602052604090208054600690829060ff60e01b1916600160e01b8302179055506124d9816001018054806020026020016040519081016040528092919081815260200182805480156123a857602002820191906000526020600020905b81546001600160a01b0316815260019091019060200180831161238a575b5050505050826002018054806020026020016040519081016040528092919081815260200182805480156123fb57602002820191906000526020600020905b8154815260200190600101908083116123e7575b505050505083600301805480602002602001604051908101604052809291908181526020016000905b828210156124d057838290600052602060002001805461244390613c3d565b80601f016020809104026020016040519081016040528092919081815260200182805461246f90613c3d565b80156124bc5780601f10612491576101008083540402835291602001916124bc565b820191906000526020600020905b81548152906001019060200180831161249f57829003601f168201915b505050505081526020019060010190612424565b50505050612cbc565b604051839033907f7bfd03e44f31b1867e10c41d419cd8073b4719d321ccc5c3a3c79ac2babab3c390600090a3505061251160018055565b50565b600061251f83611b5d565b604001519050816006811115612537576125376131cb565b816006811115612549576125496131cb565b1461256b57828160405163605cfad560e01b8152600401610a5b929190613d0f565b505050565b6040805160808082018352600080835260208084018290528385018290526060808501839052878352603c825285832054865194850187528385529184018390529483018290529382018190529192600160a01b90046001600160401b0316916125d986611763565b905060005b81518110156127935760008282815181106125fb576125fb613d59565b602002602001015190506000871561263d57506001600160401b0385166000908152604060208181528183206001600160a01b038516845290529020546126ae565b603854604051632933f0eb60e11b81526001600160a01b03848116600483015290911690635267e1d690602401602060405180830381865afa158015612687573d6000803e3d6000fd5b505050506040513d601f19601f820116820180604052508101906126ab9190613f95565b90505b6000898152603f602090815260408083206001600160a01b0386168452909152902054600160401b900460ff1660018160018111156126ef576126ef6131cb565b0361272f576001866000018181516127079190613c71565b6001600160401b031690525060408601805183919061272790839061319f565b90525061277f565b6000816001811115612743576127436131cb565b0361277f5760018660200181815161275b9190613c71565b6001600160401b031690525060608601805183919061277b90839061319f565b9052505b5050508061278c90613d8c565b90506125de565b509095945050505050565b6037546040516253517560e01b81526001600160a01b03838116600483015260009283929116906253517590602401602060405180830381865afa1580156127ea573d6000803e3d6000fd5b505050506040513d601f19601f8201168201806040525081019061280e9190613fae565b90506001600160a01b0381161580159061289457506037546040516303072e2960e51b81526001600160a01b038381166004830152909116906360e5c52090602401602060405180830381865afa15801561286d573d6000803e3d6000fd5b505050506040513d601f19601f820116820180604052508101906128919190613f95565b15155b9392505050565b6128a6836002612514565b603a54600160801b90046001600160401b031660009081526041602052604090206128d19085612e28565b5060008381526042602052604090206128ea9085612e28565b506040518060600160405280426001600160401b03168152602001836001811115612917576129176131cb565b815260209081018390526000858152603f825260408082206001600160a01b038916835283529020825181546001600160401b0390911667ffffffffffffffff19821681178355928401519192839168ffffffffffffffffff191617600160401b83600181111561298a5761298a6131cb565b0217905550604082015160018201906129a39082613deb565b50505050505050565b6000805b8251811015612a3f578281815181106129cb576129cb613d59565b60200260200101515160000315612a2d57603d60008583815181106129f2576129f2613d59565b6020908102919091018101516001600160a01b031682528101919091526040016000205460ff1615612a28576002915050610cb8565b600191505b80612a3781613d8c565b9150506129b0565b5092915050565b6000826001600160a01b03168260405160006040518083038185875af1925050503d8060008114612a93576040519150601f19603f3d011682016040523d82523d6000602084013e612a98565b606091505b505090508061256b576040516317e3057d60e31b81523060048201526001600160a01b038416602482015260448101839052606401610a5b565b6060600061289483612e3d565b6001600160401b0381166000908152604160205260408120612b0090612ad2565b905060005b815181101561256b576000828281518110612b2257612b22613d59565b6020908102919091010151603854604051632933f0eb60e11b81526001600160a01b03808416600483015292935060009290911690635267e1d690602401602060405180830381865afa158015612b7d573d6000803e3d6000fd5b505050506040513d601f19601f82011682018060405250810190612ba19190613f95565b6001600160401b0386166000908152604060208181528183206001600160a01b03909616835294909452929092209190915550612bdd81613d8c565b9050612b05565b6000610cb8825490565b600054610100900460ff16612c595760405162461bcd60e51b815260206004820152602b60248201527f496e697469616c697a61626c653a20636f6e7472616374206973206e6f74206960448201526a6e697469616c697a696e6760a81b6064820152608401610a5b565b612c61612e99565b565b600260015403612cb55760405162461bcd60e51b815260206004820152601f60248201527f5265656e7472616e637947756172643a207265656e7472616e742063616c6c006044820152606401610a5b565b6002600155565b60005b8351811015612e1c57600080858381518110612cdd57612cdd613d59565b60200260200101516001600160a01b0316858481518110612d0057612d00613d59565b6020026020010151858581518110612d1a57612d1a613d59565b6020026020010151604051612d2f9190613fcb565b60006040518083038185875af1925050503d8060008114612d6c576040519150601f19603f3d011682016040523d82523d6000602084013e612d71565b606091505b5091509150612db682826040518060400160405280601581526020017f6c6f772d6c6576656c2063616c6c206661696c65640000000000000000000000815250612f04565b50848381518110612dc957612dc9613d59565b6020026020010151600014612e0957848381518110612dea57612dea613d59565b602002602001015160366000828254612e039190613fe7565b90915550505b505080612e1590613d8c565b9050612cbf565b50505050565b60018055565b6000612894836001600160a01b038416612f1d565b606081600001805480602002602001604051908101604052809291908181526020018280548015612e8d57602002820191906000526020600020905b815481526020019060010190808311612e79575b50505050509050919050565b600054610100900460ff16612e225760405162461bcd60e51b815260206004820152602b60248201527f496e697469616c697a61626c653a20636f6e7472616374206973206e6f74206960448201526a6e697469616c697a696e6760a81b6064820152608401610a5b565b60608315612f13575081612894565b6128948383612f6c565b6000818152600183016020526040812054612f6457508154600181810184556000848152602080822090930184905584548482528286019093526040902091909155610cb8565b506000610cb8565b815115612f7c5781518083602001fd5b8060405162461bcd60e51b8152600401610a5b9190613ffa565b828054828255906000526020600020908101928215612ff8579160200282015b82811115612ff8578251825473ffffffffffffffffffffffffffffffffffffffff19166001600160a01b03909116178255602090920191600190910190612fb6565b5061300492915061311d565b5090565b828054828255906000526020600020908101928215612ff8579160200282015b82811115612ff8578251825591602001919060010190613028565b828054828255906000526020600020908101928215613089579160200282015b8281111561308957825182906130799082613deb565b5091602001919060010190613063565b50613004929150613132565b5080546000825590600052602060002090810190612511919061311d565b6040805161016081018252600080825260208201819052909182019081526020016060815260200160608152602001606081526020016060815260200160608152602001606081526020016000815260200160006002811115613118576131186131cb565b905290565b5b80821115613004576000815560010161311e565b80821115613004576000613146828261314f565b50600101613132565b50805461315b90613c3d565b6000825580601f1061316b575050565b601f016020900490600052602060002090810190612511919061311d565b634e487b7160e01b600052601160045260246000fd5b80820180821115610cb857610cb8613189565b6000602082840312156131c457600080fd5b5035919050565b634e487b7160e01b600052602160045260246000fd5b600781106131f1576131f16131cb565b9052565b60005b838110156132105781810151838201526020016131f8565b50506000910152565b600081518084526132318160208601602086016131f5565b601f01601f19169290920160200192915050565b600381106131f1576131f16131cb565b60006101006001600160a01b038b1683526001600160401b038a166020840152613282604084018a6131e1565b80606084015261329481840189613219565b905082810360808401526132a88188613219565b905082810360a08401526132bc8187613219565b9150508360c08301526132d260e0830184613245565b9998505050505050505050565b634e487b7160e01b600052604160045260246000fd5b604051601f8201601f191681016001600160401b038111828210171561331d5761331d6132df565b604052919050565b80356001600160401b038116811461333c57600080fd5b919050565b60008082840360a081121561335557600080fd5b83356003811061336457600080fd5b92506080601f198201121561337857600080fd5b50604051608081018181106001600160401b038211171561339b5761339b6132df565b6040526133aa60208501613325565b81526133b860408501613325565b60208201526060840135604082015260808401356060820152809150509250929050565b60008083601f8401126133ee57600080fd5b5081356001600160401b0381111561340557600080fd5b60208301915083602082850101111561341d57600080fd5b9250929050565b60008060006040848603121561343957600080fd5b8335925060208401356001600160401b0381111561345657600080fd5b613462868287016133dc565b9497909650939450505050565b80356002811061333c57600080fd5b6000806000806060858703121561349457600080fd5b843593506134a46020860161346f565b925060408501356001600160401b038111156134bf57600080fd5b6134cb878288016133dc565b95989497509550505050565b6001600160a01b038116811461251157600080fd5b801515811461251157600080fd5b6000806040838503121561350d57600080fd5b8235613518816134d7565b91506020830135613528816134ec565b809150509250929050565b6000806040838503121561354657600080fd5b823591506020830135613528816134d7565b60006001600160401b03821115613571576135716132df565b5060051b60200190565b600082601f83011261358c57600080fd5b813560206135a161359c83613558565b6132f5565b82815260059290921b840181019181810190868411156135c057600080fd5b8286015b848110156135e45780356135d7816134d7565b83529183019183016135c4565b509695505050505050565b600082601f83011261360057600080fd5b8135602061361061359c83613558565b82815260059290921b8401810191818101908684111561362f57600080fd5b8286015b848110156135e45780358352918301918301613633565b60006001600160401b03831115613663576136636132df565b613676601f8401601f19166020016132f5565b905082815283838301111561368a57600080fd5b828260208301376000602084830101529392505050565b600082601f8301126136b257600080fd5b813560206136c261359c83613558565b82815260059290921b840181019181810190868411156136e157600080fd5b8286015b848110156135e45780356001600160401b038111156137045760008081fd5b8701603f810189136137165760008081fd5b61372789868301356040840161364a565b8452509183019183016136e5565b600082601f83011261374657600080fd5b6128948383356020850161364a565b60008060008060008060c0878903121561376e57600080fd5b86356001600160401b038082111561378557600080fd5b6137918a838b0161357b565b975060208901359150808211156137a757600080fd5b6137b38a838b016135ef565b965060408901359150808211156137c957600080fd5b6137d58a838b016136a1565b955060608901359150808211156137eb57600080fd5b6137f78a838b01613735565b9450608089013591508082111561380d57600080fd5b6138198a838b01613735565b935060a089013591508082111561382f57600080fd5b5061383c89828a01613735565b9150509295509295509295565b6000806040838503121561385c57600080fd5b8235915061386c6020840161346f565b90509250929050565b6000806000806080858703121561388b57600080fd5b84356001600160401b03808211156138a257600080fd5b6138ae8883890161357b565b955060208701359150808211156138c457600080fd5b6138d0888389016135ef565b945060408701359150808211156138e657600080fd5b6138f2888389016136a1565b9350606087013591508082111561390857600080fd5b5061391587828801613735565b91505092959194509250565b600081518084526020808501945080840160005b8381101561395157815187529582019590820190600101613935565b509495945050505050565b6020815260006128946020830184613921565b600081518084526020808501945080840160005b838110156139515781516001600160a01b031687529582019590820190600101613983565b602081526000612894602083018461396f565b60028110612511576125116131cb565b6001600160401b038581168252848116602083015283166040820152608081016139f4836139bb565b82606083015295945050505050565b600081518084526020808501808196508360051b8101915082860160005b85811015613a4b578284038952613a39848351613219565b98850198935090840190600101613a21565b5091979650505050505050565b60208152613a726020820183516001600160a01b03169052565b60006020830151613a8e60408401826001600160401b03169052565b506040830151613aa160608401826131e1565b506060830151610160806080850152613abe61018085018361396f565b91506080850151601f19808685030160a0870152613adc8483613921565b935060a08701519150808685030160c0870152613af98483613a03565b935060c08701519150808685030160e0870152613b168483613219565b935060e08701519150610100818786030181880152613b358584613219565b945080880151925050610120818786030181880152613b548584613219565b90880151610140888101919091528801519094509150613b78905082860182613245565b5090949350505050565b600060208284031215613b9457600080fd5b8135612894816134d7565b6001600160401b0384168152613bb4836139bb565b826020820152606060408201526000613bd06060830184613219565b95945050505050565b600080600080600060a08688031215613bf157600080fd5b8535613bfc816134d7565b94506020860135613c0c816134d7565b93506040860135613c1c816134d7565b925060608601359150613c3160808701613325565b90509295509295909350565b600181811c90821680613c5157607f821691505b602082108103610f6057634e487b7160e01b600052602260045260246000fd5b6001600160401b03818116838216019080821115612a3f57612a3f613189565b8082028115828204841417610cb857610cb8613189565b600082613cc557634e487b7160e01b600052601260045260246000fd5b500490565b81835281816020850137506000828201602090810191909152601f909101601f19169091010190565b602081526000613d07602083018486613cca565b949350505050565b8281526040810161289460208301846131e1565b60208101613d30836139bb565b91905290565b613d3f846139bb565b838152604060208201526000613bd0604083018486613cca565b634e487b7160e01b600052603260045260246000fd5b600060208284031215613d8157600080fd5b8151612894816134ec565b600060018201613d9e57613d9e613189565b5060010190565b601f82111561256b57600081815260208120601f850160051c81016020861015613dcc5750805b601f850160051c820191505b818110156122b057828155600101613dd8565b81516001600160401b03811115613e0457613e046132df565b613e1881613e128454613c3d565b84613da5565b602080601f831160018114613e4d5760008415613e355750858301515b600019600386901b1c1916600185901b1785556122b0565b600085815260208120601f198616915b82811015613e7c57888601518255948401946001909101908401613e5d565b5085821015613e9a5787850151600019600388901b60f8161c191681555b5050505050600190811b01905550565b60c081526000613ebd60c083018961396f565b8281036020840152613ecf8189613921565b90508281036040840152613ee38188613a03565b90508281036060840152613ef78187613219565b90508281036080840152613f0b8186613219565b905082810360a08401526132d28185613219565b608081526000613f32608083018761396f565b8281036020840152613f448187613921565b90508281036040840152613f588186613a03565b91505082606083015295945050505050565b60608101613f77856139bb565b9381526001600160401b039283166020820152911660409091015290565b600060208284031215613fa757600080fd5b5051919050565b600060208284031215613fc057600080fd5b8151612894816134d7565b60008251613fdd8184602087016131f5565b9190910192915050565b81810381811115610cb857610cb8613189565b602081526000612894602083018461321956fea2646970667358221220650c56150ee09e60a9362cb60e0ee605524069627734089eade0c3448a52234a64736f6c63430008110033",
  "linkReferences": {},
  "deployedLinkReferences": {}
}