{
  "_format": "hh-sol-artifact-1",
  "contractName": "DiamondDao",
  "sourceName": "contracts/DiamondDao.sol",
  "abi": [
    {
      "inputs": [],
      "stateMutability": "nonpayable",
      "type": "constructor"
    },
    {
      "inputs": [
        {
          "internalType": "bytes",
          "name": "funcSelector",
          "type": "bytes"
        },
        {
          "internalType": "address",
          "name": "targetContract",
          "type": "address"
        }
      ],
      "name": "ContractCallFailed",
      "type": "error"
    },
    {
      "inputs": [],
      "name": "FailedInnerCall",
      "type": "error"
    },
    {
      "inputs": [
        {
          "internalType": "bytes4",
          "name": "funcSelector",
          "type": "bytes4"
        },
        {
          "internalType": "address",
          "name": "targetContract",
          "type": "address"
        }
      ],
      "name": "FunctionUpgradeNotAllowed",
      "type": "error"
    },
    {
      "inputs": [],
      "name": "GetterCallFailed",
      "type": "error"
    },
    {
      "inputs": [],
      "name": "InsufficientFunds",
      "type": "error"
    },
    {
      "inputs": [],
      "name": "InvalidArgument",
      "type": "error"
    },
    {
      "inputs": [],
      "name": "InvalidInitialization",
      "type": "error"
    },
    {
      "inputs": [],
      "name": "InvalidStartTimestamp",
      "type": "error"
    },
    {
      "inputs": [
        {
          "internalType": "uint256",
          "name": "currentVal",
          "type": "uint256"
        },
        {
          "internalType": "uint256",
          "name": "newVal",
          "type": "uint256"
        }
      ],
      "name": "InvalidUpgradeValue",
      "type": "error"
    },
    {
      "inputs": [],
      "name": "NewProposalsLimitExceeded",
      "type": "error"
    },
    {
      "inputs": [
        {
          "internalType": "uint256",
          "name": "_newVal",
          "type": "uint256"
        }
      ],
      "name": "NewValueOutOfRange",
      "type": "error"
    },
    {
      "inputs": [],
      "name": "NotInitializing",
      "type": "error"
    },
    {
      "inputs": [
        {
          "internalType": "uint256",
          "name": "proposalId",
          "type": "uint256"
        },
        {
          "internalType": "address",
          "name": "caller",
          "type": "address"
        }
      ],
      "name": "NotProposer",
      "type": "error"
    },
    {
      "inputs": [],
      "name": "OnlyGovernance",
      "type": "error"
    },
    {
      "inputs": [],
      "name": "OnlyProposer",
      "type": "error"
    },
    {
      "inputs": [
        {
          "internalType": "address",
          "name": "caller",
          "type": "address"
        }
      ],
      "name": "OnlyValidators",
      "type": "error"
    },
    {
      "inputs": [
        {
          "internalType": "uint256",
          "name": "proposalId",
          "type": "uint256"
        }
      ],
      "name": "OutsideExecutionWindow",
      "type": "error"
    },
    {
      "inputs": [
        {
          "internalType": "address",
          "name": "owner",
          "type": "address"
        }
      ],
      "name": "OwnableInvalidOwner",
      "type": "error"
    },
    {
      "inputs": [
        {
          "internalType": "address",
          "name": "account",
          "type": "address"
        }
      ],
      "name": "OwnableUnauthorizedAccount",
      "type": "error"
    },
    {
      "inputs": [
        {
          "internalType": "uint256",
          "name": "proposalId",
          "type": "uint256"
        }
      ],
      "name": "ProposalAlreadyExist",
      "type": "error"
    },
    {
      "inputs": [
        {
          "internalType": "uint256",
          "name": "proposalId",
          "type": "uint256"
        }
      ],
      "name": "ProposalNotExist",
      "type": "error"
    },
    {
      "inputs": [],
      "name": "ReentrancyGuardReentrantCall",
      "type": "error"
    },
    {
      "inputs": [
        {
          "internalType": "address",
          "name": "from",
          "type": "address"
        },
        {
          "internalType": "address",
          "name": "to",
          "type": "address"
        },
        {
          "internalType": "uint256",
          "name": "amount",
          "type": "uint256"
        }
      ],
      "name": "TransferFailed",
      "type": "error"
    },
    {
      "inputs": [
        {
          "internalType": "enum Phase",
          "name": "phase",
          "type": "uint8"
        }
      ],
      "name": "UnavailableInCurrentPhase",
      "type": "error"
    },
    {
      "inputs": [
        {
          "internalType": "uint256",
          "name": "proposalId",
          "type": "uint256"
        },
        {
          "internalType": "enum ProposalState",
          "name": "state",
          "type": "uint8"
        }
      ],
      "name": "UnexpectedProposalState",
      "type": "error"
    },
    {
      "inputs": [],
      "name": "UnfinalizedProposalsExist",
      "type": "error"
    },
    {
      "anonymous": false,
      "inputs": [
        {
          "indexed": false,
          "internalType": "uint64",
          "name": "version",
          "type": "uint64"
        }
      ],
      "name": "Initialized",
      "type": "event"
    },
    {
      "anonymous": false,
      "inputs": [
        {
          "indexed": true,
          "internalType": "address",
          "name": "previousOwner",
          "type": "address"
        },
        {
          "indexed": true,
          "internalType": "address",
          "name": "newOwner",
          "type": "address"
        }
      ],
      "name": "OwnershipTransferred",
      "type": "event"
    },
    {
      "anonymous": false,
      "inputs": [
        {
          "indexed": true,
          "internalType": "address",
          "name": "proposer",
          "type": "address"
        },
        {
          "indexed": true,
          "internalType": "uint256",
          "name": "proposalId",
          "type": "uint256"
        },
        {
          "indexed": false,
          "internalType": "string",
          "name": "reason",
          "type": "string"
        }
      ],
      "name": "ProposalCanceled",
      "type": "event"
    },
    {
      "anonymous": false,
      "inputs": [
        {
          "indexed": true,
          "internalType": "address",
          "name": "proposer",
          "type": "address"
        },
        {
          "indexed": true,
          "internalType": "uint256",
          "name": "proposalId",
          "type": "uint256"
        },
        {
          "indexed": false,
          "internalType": "address[]",
          "name": "targets",
          "type": "address[]"
        },
        {
          "indexed": false,
          "internalType": "uint256[]",
          "name": "values",
          "type": "uint256[]"
        },
        {
          "indexed": false,
          "internalType": "bytes[]",
          "name": "calldatas",
          "type": "bytes[]"
        },
        {
          "indexed": false,
          "internalType": "string",
          "name": "title",
          "type": "string"
        },
        {
          "indexed": false,
          "internalType": "string",
          "name": "description",
          "type": "string"
        },
        {
          "indexed": false,
          "internalType": "string",
          "name": "discussionUrl",
          "type": "string"
        },
        {
          "indexed": false,
          "internalType": "uint256",
          "name": "proposalFee",
          "type": "uint256"
        }
      ],
      "name": "ProposalCreated",
      "type": "event"
    },
    {
      "anonymous": false,
      "inputs": [
        {
          "indexed": true,
          "internalType": "address",
          "name": "caller",
          "type": "address"
        },
        {
          "indexed": true,
          "internalType": "uint256",
          "name": "proposalId",
          "type": "uint256"
        }
      ],
      "name": "ProposalExecuted",
      "type": "event"
    },
    {
      "anonymous": false,
      "inputs": [
        {
          "indexed": false,
          "internalType": "string",
          "name": "funcSelector",
          "type": "string"
        }
      ],
      "name": "RemoveChangeAbleParameter",
      "type": "event"
    },
    {
      "anonymous": false,
      "inputs": [
        {
          "indexed": false,
          "internalType": "string",
          "name": "setter",
          "type": "string"
        },
        {
          "indexed": false,
          "internalType": "string",
          "name": "getter",
          "type": "string"
        },
        {
          "indexed": false,
          "internalType": "uint256[]",
          "name": "params",
          "type": "uint256[]"
        }
      ],
      "name": "SetChangeAbleParameter",
      "type": "event"
    },
    {
      "anonymous": false,
      "inputs": [
        {
          "indexed": false,
          "internalType": "bool",
          "name": "allowed",
          "type": "bool"
        },
        {
          "indexed": false,
          "internalType": "string",
          "name": "setter",
          "type": "string"
        },
        {
          "indexed": false,
          "internalType": "string",
          "name": "getter",
          "type": "string"
        },
        {
          "indexed": false,
          "internalType": "uint256[]",
          "name": "params",
          "type": "uint256[]"
        }
      ],
      "name": "SetChangeAbleParameters",
      "type": "event"
    },
    {
      "anonymous": false,
      "inputs": [
        {
          "indexed": false,
          "internalType": "uint256",
          "name": "fee",
          "type": "uint256"
        }
      ],
      "name": "SetCreateProposalFee",
      "type": "event"
    },
    {
      "anonymous": false,
      "inputs": [
        {
          "indexed": false,
          "internalType": "address",
          "name": "contractAddress",
          "type": "address"
        },
        {
          "indexed": false,
          "internalType": "bool",
          "name": "isCore",
          "type": "bool"
        }
      ],
      "name": "SetIsCoreContract",
      "type": "event"
    },
    {
      "anonymous": false,
      "inputs": [
        {
          "indexed": true,
          "internalType": "address",
          "name": "voter",
          "type": "address"
        },
        {
          "indexed": true,
          "internalType": "uint256",
          "name": "proposalId",
          "type": "uint256"
        },
        {
          "indexed": false,
          "internalType": "enum Vote",
          "name": "vote",
          "type": "uint8"
        }
      ],
      "name": "SubmitVote",
      "type": "event"
    },
    {
      "anonymous": false,
      "inputs": [
        {
          "indexed": true,
          "internalType": "address",
          "name": "voter",
          "type": "address"
        },
        {
          "indexed": true,
          "internalType": "uint256",
          "name": "proposalId",
          "type": "uint256"
        },
        {
          "indexed": false,
          "internalType": "enum Vote",
          "name": "vote",
          "type": "uint8"
        },
        {
          "indexed": false,
          "internalType": "string",
          "name": "reason",
          "type": "string"
        }
      ],
      "name": "SubmitVoteWithReason",
      "type": "event"
    },
    {
      "anonymous": false,
      "inputs": [
        {
          "indexed": false,
          "internalType": "enum Phase",
          "name": "phase",
          "type": "uint8"
        },
        {
          "indexed": false,
          "internalType": "uint256",
          "name": "start",
          "type": "uint256"
        },
        {
          "indexed": false,
          "internalType": "uint256",
          "name": "end",
          "type": "uint256"
        }
      ],
      "name": "SwitchDaoPhase",
      "type": "event"
    },
    {
      "anonymous": false,
      "inputs": [
        {
          "indexed": true,
          "internalType": "address",
          "name": "caller",
          "type": "address"
        },
        {
          "indexed": true,
          "internalType": "uint256",
          "name": "proposalId",
          "type": "uint256"
        },
        {
          "indexed": false,
          "internalType": "bool",
          "name": "accepted",
          "type": "bool"
        }
      ],
      "name": "VotingFinalized",
      "type": "event"
    },
    {
      "inputs": [],
      "name": "DAO_PHASE_DURATION",
      "outputs": [
        {
          "internalType": "uint64",
          "name": "",
          "type": "uint64"
        }
      ],
      "stateMutability": "view",
      "type": "function"
    },
    {
      "inputs": [],
      "name": "MAX_NEW_PROPOSALS",
      "outputs": [
        {
          "internalType": "uint256",
          "name": "",
          "type": "uint256"
        }
      ],
      "stateMutability": "view",
      "type": "function"
    },
    {
      "inputs": [
        {
          "internalType": "bytes4",
          "name": "",
          "type": "bytes4"
        }
      ],
      "name": "allowedParameterRange",
      "outputs": [
        {
          "internalType": "bytes4",
          "name": "getter",
          "type": "bytes4"
        }
      ],
      "stateMutability": "view",
      "type": "function"
    },
    {
      "inputs": [
        {
          "internalType": "uint256",
          "name": "proposalId",
          "type": "uint256"
        },
        {
          "internalType": "string",
          "name": "reason",
          "type": "string"
        }
      ],
      "name": "cancel",
      "outputs": [],
      "stateMutability": "nonpayable",
      "type": "function"
    },
    {
      "inputs": [
        {
          "internalType": "uint256",
          "name": "proposalId",
          "type": "uint256"
        }
      ],
      "name": "countVotes",
      "outputs": [
        {
          "components": [
            {
              "internalType": "uint64",
              "name": "countYes",
              "type": "uint64"
            },
            {
              "internalType": "uint64",
              "name": "countNo",
              "type": "uint64"
            },
            {
              "internalType": "uint256",
              "name": "stakeYes",
              "type": "uint256"
            },
            {
              "internalType": "uint256",
              "name": "stakeNo",
              "type": "uint256"
            }
          ],
          "internalType": "struct VotingResult",
          "name": "",
          "type": "tuple"
        }
      ],
      "stateMutability": "view",
      "type": "function"
    },
    {
      "inputs": [],
      "name": "createProposalFee",
      "outputs": [
        {
          "internalType": "uint256",
          "name": "",
          "type": "uint256"
        }
      ],
      "stateMutability": "view",
      "type": "function"
    },
    {
      "inputs": [
        {
          "internalType": "uint256",
          "name": "",
          "type": "uint256"
        }
      ],
      "name": "currentPhaseProposals",
      "outputs": [
        {
          "internalType": "uint256",
          "name": "",
          "type": "uint256"
        }
      ],
      "stateMutability": "view",
      "type": "function"
    },
    {
      "inputs": [
        {
          "internalType": "uint256",
          "name": "",
          "type": "uint256"
        },
        {
          "internalType": "address",
          "name": "",
          "type": "address"
        }
      ],
      "name": "daoEpochStakeSnapshot",
      "outputs": [
        {
          "internalType": "uint256",
          "name": "",
          "type": "uint256"
        }
      ],
      "stateMutability": "view",
      "type": "function"
    },
    {
      "inputs": [],
      "name": "daoPhase",
      "outputs": [
        {
          "internalType": "uint64",
          "name": "start",
          "type": "uint64"
        },
        {
          "internalType": "uint64",
          "name": "end",
          "type": "uint64"
        },
        {
          "internalType": "uint64",
          "name": "daoEpoch",
          "type": "uint64"
        },
        {
          "internalType": "enum Phase",
          "name": "phase",
          "type": "uint8"
        }
      ],
      "stateMutability": "view",
      "type": "function"
    },
    {
      "inputs": [],
      "name": "daoPhaseCount",
      "outputs": [
        {
          "internalType": "uint256",
          "name": "",
          "type": "uint256"
        }
      ],
      "stateMutability": "view",
      "type": "function"
    },
    {
      "inputs": [
        {
          "internalType": "uint256",
          "name": "proposalId",
          "type": "uint256"
        }
      ],
      "name": "execute",
      "outputs": [],
      "stateMutability": "nonpayable",
      "type": "function"
    },
    {
      "inputs": [
        {
          "internalType": "uint256",
          "name": "proposalId",
          "type": "uint256"
        }
      ],
      "name": "finalize",
      "outputs": [],
      "stateMutability": "nonpayable",
      "type": "function"
    },
    {
      "inputs": [
        {
          "internalType": "string",
          "name": "_selector",
          "type": "string"
        }
      ],
      "name": "getAllowedParamsRange",
      "outputs": [
        {
          "components": [
            {
              "internalType": "bytes4",
              "name": "getter",
              "type": "bytes4"
            },
            {
              "internalType": "uint256[]",
              "name": "range",
              "type": "uint256[]"
            }
          ],
          "internalType": "struct ValueGuards.ParameterRange",
          "name": "",
          "type": "tuple"
        }
      ],
      "stateMutability": "view",
      "type": "function"
    },
    {
      "inputs": [
        {
          "internalType": "bytes4",
          "name": "_selector",
          "type": "bytes4"
        }
      ],
      "name": "getAllowedParamsRangeWithSelector",
      "outputs": [
        {
          "components": [
            {
              "internalType": "bytes4",
              "name": "getter",
              "type": "bytes4"
            },
            {
              "internalType": "uint256[]",
              "name": "range",
              "type": "uint256[]"
            }
          ],
          "internalType": "struct ValueGuards.ParameterRange",
          "name": "",
          "type": "tuple"
        }
      ],
      "stateMutability": "view",
      "type": "function"
    },
    {
      "inputs": [],
      "name": "getCurrentPhaseProposals",
      "outputs": [
        {
          "internalType": "uint256[]",
          "name": "",
          "type": "uint256[]"
        }
      ],
      "stateMutability": "view",
      "type": "function"
    },
    {
      "inputs": [
        {
          "internalType": "uint256",
          "name": "proposalId",
          "type": "uint256"
        }
      ],
      "name": "getProposal",
      "outputs": [
        {
          "components": [
            {
              "internalType": "address",
              "name": "proposer",
              "type": "address"
            },
            {
              "internalType": "uint64",
              "name": "votingDaoEpoch",
              "type": "uint64"
            },
            {
              "internalType": "enum ProposalState",
              "name": "state",
              "type": "uint8"
            },
            {
              "internalType": "address[]",
              "name": "targets",
              "type": "address[]"
            },
            {
              "internalType": "uint256[]",
              "name": "values",
              "type": "uint256[]"
            },
            {
              "internalType": "bytes[]",
              "name": "calldatas",
              "type": "bytes[]"
            },
            {
              "internalType": "string",
              "name": "title",
              "type": "string"
            },
            {
              "internalType": "string",
              "name": "description",
              "type": "string"
            },
            {
              "internalType": "string",
              "name": "discussionUrl",
              "type": "string"
            },
            {
              "internalType": "uint256",
              "name": "daoPhaseCount",
              "type": "uint256"
            },
            {
              "internalType": "enum ProposalType",
              "name": "proposalType",
              "type": "uint8"
            }
          ],
          "internalType": "struct Proposal",
          "name": "",
          "type": "tuple"
        }
      ],
      "stateMutability": "view",
      "type": "function"
    },
    {
      "inputs": [
        {
          "internalType": "uint256",
          "name": "proposalId",
          "type": "uint256"
        }
      ],
      "name": "getProposalVoters",
      "outputs": [
        {
          "internalType": "address[]",
          "name": "",
          "type": "address[]"
        }
      ],
      "stateMutability": "view",
      "type": "function"
    },
    {
      "inputs": [
        {
          "internalType": "uint256",
          "name": "proposalId",
          "type": "uint256"
        }
      ],
      "name": "getProposalVotersCount",
      "outputs": [
        {
          "internalType": "uint256",
          "name": "",
          "type": "uint256"
        }
      ],
      "stateMutability": "view",
      "type": "function"
    },
    {
      "inputs": [],
      "name": "governancePot",
      "outputs": [
        {
          "internalType": "uint256",
          "name": "",
          "type": "uint256"
        }
      ],
      "stateMutability": "view",
      "type": "function"
    },
    {
      "inputs": [
        {
          "internalType": "address[]",
          "name": "targets",
          "type": "address[]"
        },
        {
          "internalType": "uint256[]",
          "name": "values",
          "type": "uint256[]"
        },
        {
          "internalType": "bytes[]",
          "name": "calldatas",
          "type": "bytes[]"
        },
        {
          "internalType": "string",
          "name": "description",
          "type": "string"
        }
      ],
      "name": "hashProposal",
      "outputs": [
        {
          "internalType": "uint256",
          "name": "",
          "type": "uint256"
        }
      ],
      "stateMutability": "pure",
      "type": "function"
    },
    {
      "inputs": [
        {
          "internalType": "string",
          "name": "setter",
          "type": "string"
        },
        {
          "internalType": "string",
          "name": "getter",
          "type": "string"
        },
        {
          "internalType": "uint256[]",
          "name": "params",
          "type": "uint256[]"
        }
      ],
      "name": "initAllowedChangeableParameter",
      "outputs": [],
      "stateMutability": "nonpayable",
      "type": "function"
    },
    {
      "inputs": [
        {
          "internalType": "address",
          "name": "_validatorSet",
          "type": "address"
        },
        {
          "internalType": "address",
          "name": "_stakingHbbft",
          "type": "address"
        },
        {
          "internalType": "address",
          "name": "_reinsertPot",
          "type": "address"
        },
        {
          "internalType": "address",
          "name": "_txPermission",
          "type": "address"
        },
        {
          "internalType": "uint256",
          "name": "_createProposalFee",
          "type": "uint256"
        },
        {
          "internalType": "uint64",
          "name": "_startTimestamp",
          "type": "uint64"
        }
      ],
      "name": "initialize",
      "outputs": [],
      "stateMutability": "nonpayable",
      "type": "function"
    },
    {
      "inputs": [
        {
          "internalType": "address",
          "name": "",
          "type": "address"
        }
      ],
      "name": "isCoreContract",
      "outputs": [
        {
          "internalType": "bool",
          "name": "",
          "type": "bool"
        }
      ],
      "stateMutability": "view",
      "type": "function"
    },
    {
      "inputs": [
        {
          "internalType": "bytes4",
          "name": "funcSelector",
          "type": "bytes4"
        },
        {
          "internalType": "uint256",
          "name": "newVal",
          "type": "uint256"
        }
      ],
      "name": "isWithinAllowedRange",
      "outputs": [
        {
          "internalType": "bool",
          "name": "",
          "type": "bool"
        }
      ],
      "stateMutability": "view",
      "type": "function"
    },
    {
      "inputs": [],
      "name": "lastDaoPhaseCount",
      "outputs": [
        {
          "internalType": "uint256",
          "name": "",
          "type": "uint256"
        }
      ],
      "stateMutability": "view",
      "type": "function"
    },
    {
      "inputs": [],
      "name": "owner",
      "outputs": [
        {
          "internalType": "address",
          "name": "",
          "type": "address"
        }
      ],
      "stateMutability": "view",
      "type": "function"
    },
    {
      "inputs": [
        {
          "internalType": "uint256",
          "name": "proposalId",
          "type": "uint256"
        }
      ],
      "name": "proposalExists",
      "outputs": [
        {
          "internalType": "bool",
          "name": "",
          "type": "bool"
        }
      ],
      "stateMutability": "view",
      "type": "function"
    },
    {
      "inputs": [
        {
          "internalType": "uint256",
          "name": "",
          "type": "uint256"
        }
      ],
      "name": "proposalFee",
      "outputs": [
        {
          "internalType": "uint256",
          "name": "",
          "type": "uint256"
        }
      ],
      "stateMutability": "view",
      "type": "function"
    },
    {
      "inputs": [
        {
          "internalType": "uint256",
          "name": "",
          "type": "uint256"
        }
      ],
      "name": "proposals",
      "outputs": [
        {
          "internalType": "address",
          "name": "proposer",
          "type": "address"
        },
        {
          "internalType": "uint64",
          "name": "votingDaoEpoch",
          "type": "uint64"
        },
        {
          "internalType": "enum ProposalState",
          "name": "state",
          "type": "uint8"
        },
        {
          "internalType": "string",
          "name": "title",
          "type": "string"
        },
        {
          "internalType": "string",
          "name": "description",
          "type": "string"
        },
        {
          "internalType": "string",
          "name": "discussionUrl",
          "type": "string"
        },
        {
          "internalType": "uint256",
          "name": "daoPhaseCount",
          "type": "uint256"
        },
        {
          "internalType": "enum ProposalType",
          "name": "proposalType",
          "type": "uint8"
        }
      ],
      "stateMutability": "view",
      "type": "function"
    },
    {
      "inputs": [
        {
          "internalType": "address[]",
          "name": "targets",
          "type": "address[]"
        },
        {
          "internalType": "uint256[]",
          "name": "values",
          "type": "uint256[]"
        },
        {
          "internalType": "bytes[]",
          "name": "calldatas",
          "type": "bytes[]"
        },
        {
          "internalType": "string",
          "name": "title",
          "type": "string"
        },
        {
          "internalType": "string",
          "name": "description",
          "type": "string"
        },
        {
          "internalType": "string",
          "name": "discussionUrl",
          "type": "string"
        }
      ],
      "name": "propose",
      "outputs": [],
      "stateMutability": "payable",
      "type": "function"
    },
    {
      "inputs": [
        {
          "internalType": "enum ProposalType",
          "name": "_type",
          "type": "uint8"
        },
        {
          "components": [
            {
              "internalType": "uint64",
              "name": "countYes",
              "type": "uint64"
            },
            {
              "internalType": "uint64",
              "name": "countNo",
              "type": "uint64"
            },
            {
              "internalType": "uint256",
              "name": "stakeYes",
              "type": "uint256"
            },
            {
              "internalType": "uint256",
              "name": "stakeNo",
              "type": "uint256"
            }
          ],
          "internalType": "struct VotingResult",
          "name": "result",
          "type": "tuple"
        }
      ],
      "name": "quorumReached",
      "outputs": [
        {
          "internalType": "bool",
          "name": "",
          "type": "bool"
        }
      ],
      "stateMutability": "view",
      "type": "function"
    },
    {
      "inputs": [],
      "name": "reinsertPot",
      "outputs": [
        {
          "internalType": "address",
          "name": "",
          "type": "address"
        }
      ],
      "stateMutability": "view",
      "type": "function"
    },
    {
      "inputs": [
        {
          "internalType": "string",
          "name": "funcSelector",
          "type": "string"
        }
      ],
      "name": "removeAllowedChangeableParameter",
      "outputs": [],
      "stateMutability": "nonpayable",
      "type": "function"
    },
    {
      "inputs": [],
      "name": "renounceOwnership",
      "outputs": [],
      "stateMutability": "nonpayable",
      "type": "function"
    },
    {
      "inputs": [
        {
          "internalType": "uint256",
          "name": "",
          "type": "uint256"
        }
      ],
      "name": "results",
      "outputs": [
        {
          "internalType": "uint64",
          "name": "countYes",
          "type": "uint64"
        },
        {
          "internalType": "uint64",
          "name": "countNo",
          "type": "uint64"
        },
        {
          "internalType": "uint256",
          "name": "stakeYes",
          "type": "uint256"
        },
        {
          "internalType": "uint256",
          "name": "stakeNo",
          "type": "uint256"
        }
      ],
      "stateMutability": "view",
      "type": "function"
    },
    {
      "inputs": [
        {
          "internalType": "string",
          "name": "setter",
          "type": "string"
        },
        {
          "internalType": "string",
          "name": "getter",
          "type": "string"
        },
        {
          "internalType": "uint256[]",
          "name": "params",
          "type": "uint256[]"
        }
      ],
      "name": "setAllowedChangeableParameter",
      "outputs": [],
      "stateMutability": "nonpayable",
      "type": "function"
    },
    {
      "inputs": [
        {
          "internalType": "uint256",
          "name": "_fee",
          "type": "uint256"
        }
      ],
      "name": "setCreateProposalFee",
      "outputs": [],
      "stateMutability": "nonpayable",
      "type": "function"
    },
    {
      "inputs": [
        {
          "internalType": "address",
          "name": "_add",
          "type": "address"
        },
        {
          "internalType": "bool",
          "name": "isCore",
          "type": "bool"
        }
      ],
      "name": "setIsCoreContract",
      "outputs": [],
      "stateMutability": "nonpayable",
      "type": "function"
    },
    {
      "inputs": [],
      "name": "stakingHbbft",
      "outputs": [
        {
          "internalType": "contract IStakingHbbft",
          "name": "",
          "type": "address"
        }
      ],
      "stateMutability": "view",
      "type": "function"
    },
    {
      "inputs": [],
      "name": "statistic",
      "outputs": [
        {
          "internalType": "uint64",
          "name": "total",
          "type": "uint64"
        },
        {
          "internalType": "uint64",
          "name": "accepted",
          "type": "uint64"
        },
        {
          "internalType": "uint64",
          "name": "declined",
          "type": "uint64"
        },
        {
          "internalType": "uint64",
          "name": "canceled",
          "type": "uint64"
        }
      ],
      "stateMutability": "view",
      "type": "function"
    },
    {
      "inputs": [],
      "name": "switchPhase",
      "outputs": [],
      "stateMutability": "nonpayable",
      "type": "function"
    },
    {
      "inputs": [
        {
          "internalType": "address",
          "name": "newOwner",
          "type": "address"
        }
      ],
      "name": "transferOwnership",
      "outputs": [],
      "stateMutability": "nonpayable",
      "type": "function"
    },
    {
      "inputs": [],
      "name": "unfinalizedProposals",
      "outputs": [
        {
          "internalType": "uint256",
          "name": "",
          "type": "uint256"
        }
      ],
      "stateMutability": "view",
      "type": "function"
    },
    {
      "inputs": [],
      "name": "unfinalizedProposalsExist",
      "outputs": [
        {
          "internalType": "bool",
          "name": "",
          "type": "bool"
        }
      ],
      "stateMutability": "view",
      "type": "function"
    },
    {
      "inputs": [],
      "name": "validatorSet",
      "outputs": [
        {
          "internalType": "contract IValidatorSetHbbft",
          "name": "",
          "type": "address"
        }
      ],
      "stateMutability": "view",
      "type": "function"
    },
    {
      "inputs": [
        {
          "internalType": "uint256",
          "name": "proposalId",
          "type": "uint256"
        },
        {
          "internalType": "enum Vote",
          "name": "_vote",
          "type": "uint8"
        }
      ],
      "name": "vote",
      "outputs": [],
      "stateMutability": "nonpayable",
      "type": "function"
    },
    {
      "inputs": [
        {
          "internalType": "uint256",
          "name": "proposalId",
          "type": "uint256"
        },
        {
          "internalType": "enum Vote",
          "name": "_vote",
          "type": "uint8"
        },
        {
          "internalType": "string",
          "name": "reason",
          "type": "string"
        }
      ],
      "name": "voteWithReason",
      "outputs": [],
      "stateMutability": "nonpayable",
      "type": "function"
    },
    {
      "inputs": [
        {
          "internalType": "uint256",
          "name": "",
          "type": "uint256"
        },
        {
          "internalType": "address",
          "name": "",
          "type": "address"
        }
      ],
      "name": "votes",
      "outputs": [
        {
          "internalType": "uint64",
          "name": "timestamp",
          "type": "uint64"
        },
        {
          "internalType": "enum Vote",
          "name": "vote",
          "type": "uint8"
        },
        {
          "internalType": "string",
          "name": "reason",
          "type": "string"
        }
      ],
      "stateMutability": "view",
      "type": "function"
    },
    {
      "stateMutability": "payable",
      "type": "receive"
    }
  ],
  "bytecode": "0x6080604052348015600f57600080fd5b506016601a565b60ca565b7ff0c57e16840df040f15088dc2f81fe391c3923bec73e23a9662efc9c229c6a00805468010000000000000000900460ff161560695760405163f92ee8a960e01b815260040160405180910390fd5b80546001600160401b039081161460c75780546001600160401b0319166001600160401b0390811782556040519081527fc7f505b2f371ae2175ee4913f4499e1f2633a7b5936321eed1cdaeb6115181d29060200160405180910390a15b50565b614fb4806100d96000396000f3fe6080604052600436106103175760003560e01c806395dd7fb91161019a578063c7f758a8116100e1578063efa65b481161008a578063fa1f072711610064578063fa1f072714610ad5578063fe0d94c114610aeb578063ff71d67714610b0b57600080fd5b8063efa65b4814610a8a578063f22d232614610a9f578063f2fde38b14610ab557600080fd5b8063d272dd45116100bb578063d272dd4514610a27578063ec47c47114610a54578063ed965ddc14610a6a57600080fd5b8063c7f758a81461099b578063d22a20cd146109c8578063d23254b4146109f857600080fd5b8063b131b6a511610143578063be0a4e4b1161011d578063be0a4e4b14610945578063bf348f861461095b578063c3b66bed1461097b57600080fd5b8063b131b6a5146108a8578063b710c15d146108f8578063ba08d2371461092557600080fd5b8063aa72e3b911610174578063aa72e3b914610845578063ab0eb62d14610873578063ab266e101461088857600080fd5b806395dd7fb9146107d65780639b9fb6d0146107f8578063a68f34f71461081857600080fd5b80633de2598c1161025e57806373f12958116102075780639426e226116101e15780639426e22614610776578063943e821614610796578063950e3e44146107b657600080fd5b806373f12958146106d05780638da5cb5b146106f0578063922836341461072d57600080fd5b80636b6d33da116102385780636b6d33da14610670578063715018a6146106a85780637293368d146106bd57600080fd5b80633de2598c146106105780635cb092a2146106305780635e8815f21461065057600080fd5b80631840f0ca116102c057806331e407331161029a57806331e407331461055e57806336e98ca81461057e5780633c5fc7111461059e57600080fd5b80631840f0ca1461045a5780631b0c27da146104bf5780632baffa3f1461053a57600080fd5b80631243e6cb116102f15780631243e6cb146103ca5780631374b22d146104025780631536f4721461043a57600080fd5b8063013cf08b1461033b57806305261aea1461037857806311693b211461039a57600080fd5b3661033657346004600082825461032e9190613e84565b925050819055005b600080fd5b34801561034757600080fd5b5061035b610356366004613e97565b610b21565b60405161036f989796959493929190613f43565b60405180910390f35b34801561038457600080fd5b50610398610393366004613e97565b610d18565b005b3480156103a657600080fd5b506103ba6103b5366004614066565b610f6f565b604051901515815260200161036f565b3480156103d657600080fd5b506006546103ea906001600160a01b031681565b6040516001600160a01b03909116815260200161036f565b34801561040e57600080fd5b506103ba61041d366004613e97565b6000908152600a60205260409020546001600160a01b0316151590565b34801561044657600080fd5b50610398610455366004614145565b610ff5565b34801561046657600080fd5b5061047a610475366004613e97565b611109565b60405161036f919060006080820190506001600160401b0380845116835280602085015116602084015250604083015160408301526060830151606083015292915050565b3480156104cb57600080fd5b5061050f6104da366004613e97565b600c602052600090815260409020805460018201546002909201546001600160401b0380831693600160401b90930416919084565b604080516001600160401b03958616815294909316602085015291830152606082015260800161036f565b34801561054657600080fd5b5061055060045481565b60405190815260200161036f565b34801561056a57600080fd5b50610398610579366004614190565b61129d565b34801561058a57600080fd5b506103986105993660046142f4565b6113e2565b3480156105aa57600080fd5b506007546105dd906001600160401b0380821691600160401b8104821691600160801b8204811691600160c01b90041684565b604080516001600160401b039586168152938516602085015291841691830191909152909116606082015260800161036f565b34801561061c57600080fd5b5061039861062b366004614392565b611496565b34801561063c57600080fd5b5061039861064b3660046142f4565b61197a565b34801561065c57600080fd5b5061039861066b36600461440d565b611982565b34801561067c57600080fd5b5061055061068b366004614444565b600e60209081526000928352604080842090915290825290205481565b3480156106b457600080fd5b50610398611a06565b6103986106cb36600461456a565b611a1a565b3480156106dc57600080fd5b506002546103ea906001600160a01b031681565b3480156106fc57600080fd5b507f9016d09d72d40fdae2fd8ceac6b6234c7706214fd39c1cd1e609a0528c199300546001600160a01b03166103ea565b34801561073957600080fd5b5061075d610748366004614674565b60006020819052908152604090205460e01b81565b6040516001600160e01b0319909116815260200161036f565b34801561078257600080fd5b506005546103ea906001600160a01b031681565b3480156107a257600080fd5b506103986107b1366004614691565b611d62565b3480156107c257600080fd5b506105506107d13660046146b6565b611e6b565b3480156107e257600080fd5b506107eb611eb1565b60405161036f919061479e565b34801561080457600080fd5b506103986108133660046147b1565b611f09565b34801561082457600080fd5b50610838610833366004613e97565b611f88565b60405161036f9190614827565b34801561085157600080fd5b5061085b611c2081565b6040516001600160401b03909116815260200161036f565b34801561087f57600080fd5b50610398611fa2565b34801561089457600080fd5b506103986108a3366004613e97565b6122e5565b3480156108b457600080fd5b506008546108e8906001600160401b0380821691600160401b8104821691600160801b82041690600160c01b900460ff1684565b60405161036f949392919061484a565b34801561090457600080fd5b506109186109133660046147b1565b612371565b60405161036f9190614877565b34801561093157600080fd5b506103ba6109403660046148a5565b612419565b34801561095157600080fd5b5061055060125481565b34801561096757600080fd5b50610918610976366004614674565b6125e8565b34801561098757600080fd5b50610550610996366004613e97565b612685565b3480156109a757600080fd5b506109bb6109b6366004613e97565b61269c565b60405161036f919061492b565b3480156109d457600080fd5b506103ba6109e3366004614a55565b600b6020526000908152604090205460ff1681565b348015610a0457600080fd5b50610a18610a13366004614444565b612aa6565b60405161036f93929190614a70565b348015610a3357600080fd5b50610550610a42366004613e97565b60136020526000908152604090205481565b348015610a6057600080fd5b506105506103e881565b348015610a7657600080fd5b50610550610a85366004613e97565b612b6c565b348015610a9657600080fd5b506103ba612b8d565b348015610aab57600080fd5b5061055060035481565b348015610ac157600080fd5b50610398610ad0366004614a55565b612bb6565b348015610ae157600080fd5b5061055060115481565b348015610af757600080fd5b50610398610b06366004613e97565b612bf4565b348015610b1757600080fd5b5061055060015481565b600a60205260009081526040902080546004820180546001600160a01b03831693600160a01b84046001600160401b031693600160e01b900460ff16929091610b6990614aa1565b80601f0160208091040260200160405190810160405280929190818152602001828054610b9590614aa1565b8015610be25780601f10610bb757610100808354040283529160200191610be2565b820191906000526020600020905b815481529060010190602001808311610bc557829003601f168201915b505050505090806005018054610bf790614aa1565b80601f0160208091040260200160405190810160405280929190818152602001828054610c2390614aa1565b8015610c705780601f10610c4557610100808354040283529160200191610c70565b820191906000526020600020905b815481529060010190602001808311610c5357829003601f168201915b505050505090806006018054610c8590614aa1565b80601f0160208091040260200160405190810160405280929190818152602001828054610cb190614aa1565b8015610cfe5780601f10610cd357610100808354040283529160200191610cfe565b820191906000526020600020905b815481529060010190602001808311610ce157829003601f168201915b50505050600783015460089093015491929160ff16905088565b6000818152600a602052604090205481906001600160a01b0316610d575760405163986731a160e01b8152600481018290526024015b60405180910390fd5b610d62826003612e5d565b6000828152600a6020526040812090610d7c846001612eb9565b6000858152600c602090815260409182902090830151815484516fffffffffffffffffffffffffffffffff19909116600160401b6001600160401b039384160267ffffffffffffffff1916179116178155606083015160028201559082015160019091015590506008820154600090610df89060ff1683610f6f565b905080610e06576005610e09565b60045b8354849060ff60e01b1916600160e01b836006811115610e2b57610e2b613eb0565b02179055508015610ea8576007805460019190600890610e5c908490600160401b90046001600160401b0316614ad5565b82546001600160401b039182166101009390930a9283029190920219909116179055508254600086815260136020526040902054610ea3916001600160a01b0316906130e4565b610f16565b6007805460019190601090610ece908490600160801b90046001600160401b0316614ad5565b82546001600160401b039182166101009390930a928302919092021990911617905550600254600086815260136020526040902054610f16916001600160a01b0316906130e4565b600160116000828254610f299190614af5565b90915550506040518115158152859033907f4a82eb80f2a86beb92f5670422f698264b3511048a29b400a6a1ce684769581e906020015b60405180910390a35050505050565b6000806000610f7c613170565b90506001856002811115610f9257610f92613eb0565b03610fb757612710610fa682611388614b08565b610fb09190614b1f565b9150610fd3565b612710610fc682610ce4614b08565b610fd09190614b1f565b91505b818460600151610fe39190613e84565b84604001511015925050505b92915050565b6000838152600a602052604090205483906001600160a01b031661102f5760405163986731a160e01b815260048101829052602401610d4e565b6000848152600a6020526040902080546001600160a01b0316331461106757604051630608c7c960e51b815260040160405180910390fd5b611072856000612e5d565b805460ff60e01b1916600160e01b17815560078054600191906018906110a9908490600160c01b90046001600160401b0316614ad5565b92506101000a8154816001600160401b0302191690836001600160401b0316021790555084336001600160a01b03167fd16ff8053e1476416f5be14c32305a3652ac0b182ac04ede8c101d867b75bd148686604051610f60929190614b6a565b6040805160808101825260008082526020820181905291810182905260608101919091526000828152600a602052604090205482906001600160a01b03166111675760405163986731a160e01b815260048101829052602401610d4e565b6000838152600a6020526040902054600160e01b900460ff16600481600681111561119457611194613eb0565b14806111b1575060058160068111156111af576111af613eb0565b145b806111cd575060068160068111156111cb576111cb613eb0565b145b1561122a57506000838152600c6020908152604091829020825160808101845281546001600160401b038082168352600160401b909104169281019290925260018101549282019290925260029091015460608201529150611297565b600381600681111561123e5761123e613eb0565b036112565761124e846001612eb9565b925050611297565b600281600681111561126a5761126a613eb0565b0361127a5761124e846000612eb9565b838160405163605cfad560e01b8152600401610d4e929190614b7e565b50919050565b6000848152600a602052604090205484906001600160a01b03166112d75760405163986731a160e01b815260048101829052602401610d4e565b600180600854600160c01b900460ff1660018111156112f8576112f8613eb0565b14611324576008546040516378030af960e11b8152610d4e91600160c01b900460ff1690600401614b92565b61132d336131e3565b61134c5760405163fb426bed60e01b8152336004820152602401610d4e565b600033905061139381888888888080601f01602080910402602001604051908101604052809392919081815260200183838082843760009201919091525061325292505050565b86816001600160a01b03167fde85a12bb3f2d766e67cf54febc7c53ae9c500da072f8fdfb34aba5ca5525ebf8888886040516113d193929190614ba0565b60405180910390a350505050505050565b6113ea613363565b60408051808201825283516020808601919091206001600160e01b031990811683528183018581528751888401209091166000908152808352939093208251815463ffffffff191660e09190911c178155925180519293926114529260018501920190613c7b565b509050507f3d45a310c5a076ea07aa2947ca3c06cc2a8b3571065867ad6f8e7096a2c9d50a83838360405161148993929190614bc3565b60405180910390a1505050565b7ff0c57e16840df040f15088dc2f81fe391c3923bec73e23a9662efc9c229c6a008054600160401b810460ff1615906001600160401b03166000811580156114db5750825b90506000826001600160401b031660011480156114f75750303b155b905081158015611505575080155b156115235760405163f92ee8a960e01b815260040160405180910390fd5b845467ffffffffffffffff19166001178555831561155257845468ff00000000000000001916600160401b1785555b6001600160a01b038b16158061156f57506001600160a01b038916155b8061158157506001600160a01b038a16155b8061158a575086155b156115a85760405163a9cb9e0d60e01b815260040160405180910390fd5b42866001600160401b031610156115d2576040516307f5e89560e51b815260040160405180910390fd5b6115da6133be565b6005805473ffffffffffffffffffffffffffffffffffffffff199081166001600160a01b038e8116919091179092556006805482168d841617905560028054909116918b1691909117905560038790556008805467ffffffffffffffff19166001600160401b038816179055611652611c2087614ad5565b600880546001600160401b0392909216600160401b027fffffffffffffff000000000000000000ffffffffffffffffffffffffffffffff167fffffffffffffff0000000000000000000000000000000000ffffffffffffffff90921691909117600160801b1790556001805560408051600980825261014082019092526000916020820161012080368337019050509050678ac7230489e80000816000815181106116ff576116ff614c06565b6020026020010181815250506801158e460913d000008160018151811061172857611728614c06565b6020026020010181815250506801a055690d9db800008160028151811061175157611751614c06565b60200260200101818152505068022b1c8c1227a000008160038151811061177a5761177a614c06565b6020026020010181815250506802b5e3af16b1880000816004815181106117a3576117a3614c06565b602002602001018181525050680340aad21b3b700000816005815181106117cc576117cc614c06565b6020026020010181815250506803cb71f51fc5580000816006815181106117f5576117f5614c06565b6020026020010181815250506804563918244f4000008160078151811061181e5761181e614c06565b6020026020010181815250506804e1003b28d92800008160088151811061184757611847614c06565b6020026020010181815250506118c86040518060400160405280601d81526020017f73657443726561746550726f706f73616c4665652875696e74323536290000008152506040518060400160405280601381526020017f63726561746550726f706f73616c4665652829000000000000000000000000008152508361197a565b50306000908152600b60205260408082208054600160ff1991821681179092556001600160a01b038e8116855283852080548316841790558c8116855283852080548316841790558d1684529190922080549091169091179055831561196d57845468ff000000000000000019168555604051600181527fc7f505b2f371ae2175ee4913f4499e1f2633a7b5936321eed1cdaeb6115181d29060200160405180910390a15b5050505050505050505050565b6113ea6133ce565b3330146119a2576040516354348f0360e01b815260040160405180910390fd5b6001600160a01b0382166000818152600b6020908152604091829020805460ff19168515159081179091558251938452908301527fc73e95af540565c649d9453cb23b01f505752b94f04ff81b52ce528047232f2391015b60405180910390a15050565b611a0e613363565b611a186000613417565b565b600080600854600160c01b900460ff166001811115611a3b57611a3b613eb0565b14611a67576008546040516378030af960e11b8152610d4e91600160c01b900460ff1690600401614b92565b611a6f612b8d565b15611a8d5760405163fd081cf960e01b815260040160405180910390fd5b60015460125414611a9f576001546012555b85518751141580611ab257508451875114155b80611abc57508651155b15611ada5760405163a9cb9e0d60e01b815260040160405180910390fd5b6003543414611afc5760405163356680b760e01b815260040160405180910390fd5b6009546103e811611b2057604051633f2ad2e160e11b815260040160405180910390fd5b6000611b2c8887613495565b90506000611b3c89898988611e6b565b6000818152600a60205260409020549091506001600160a01b031615611b785760405163d3df438360e01b815260048101829052602401610d4e565b6000818152600a6020908152604090912080547fffffff00ffffffffffffffff0000000000000000000000000000000000000000163360ff60e01b1981169190911782558b519092611bd19160018401918e0190613cc6565b508951611be790600283019060208d0190613c7b565b508851611bfd90600383019060208c0190613d28565b5060048101611c0c8982614c6c565b5060058101611c1b8882614c6c565b5060068101611c2a8782614c6c565b50600180546007830155600882018054869260ff1990911690836002811115611c5557611c55613eb0565b0217905550600980546001818101835560009283527f6e1540171b6c0c960b71a7020d9f60077f6af931a8bbf590da0223dacf75c7af9091018590556007805491929091611cad9084906001600160401b0316614ad5565b92506101000a8154816001600160401b0302191690836001600160401b03160217905550600160116000828254611ce49190613e84565b92505081905550600354601360008581526020019081526020016000208190555082826001600160a01b03167faae8433da93a34852459abcc29a350d01261db57a269e890b08bde55d4a9774c8d8d8d8d8d8d600354604051611d4d9796959493929190614d2b565b60405180910390a35050505050505050505050565b6000828152600a602052604090205482906001600160a01b0316611d9c5760405163986731a160e01b815260048101829052602401610d4e565b600180600854600160c01b900460ff166001811115611dbd57611dbd613eb0565b14611de9576008546040516378030af960e11b8152610d4e91600160c01b900460ff1690600401614b92565b611df2336131e3565b611e115760405163fb426bed60e01b8152336004820152602401610d4e565b6000339050611e3181868660405180602001604052806000815250613252565b84816001600160a01b03167f343f24b88bd3789b60993251090e2184e0e4ae199d79b14a510fc1a08b51f51486604051610f609190614db5565b6000808280519060200120905085858583604051602001611e8f9493929190614dc8565b60408051601f1981840301815291905280516020909101209695505050505050565b60606009805480602002602001604051908101604052809291908181526020018280548015611eff57602002820191906000526020600020905b815481526020019060010190808311611eeb575b5050505050905090565b611f11613363565b80516020808301919091206001600160e01b03191660009081529081905260408120805463ffffffff1916815590611f4c6001830182613d7a565b50507f92d44565a40fe29702ffa146ddaa3bb133d4077f5312d682d0a2632a9bc73a8a81604051611f7d9190614e13565b60405180910390a150565b6000818152601060205260409020606090610fef90613750565b600854600160401b90046001600160401b0316421015611fbe57565b600080600854600160c01b900460ff166001811115611fdf57611fdf613eb0565b14611feb576000611fee565b60015b60085490915060009061201290600160401b90046001600160401b03166001614ad5565b6008805467ffffffffffffffff19166001600160401b038316179055905061203c611c2082614ad5565b600880546001600160401b0392909216600160401b026fffffffffffffffff00000000000000001983168117825584927fffffffffffffff00ffffffffffffffffffffffffffffffffffffffffffffffff9091167fffffffffffffff00ffffffffffffffff0000000000000000ffffffffffffffff90911617600160c01b8360018111156120cc576120cc613eb0565b0217905550600060018360018111156120e7576120e7613eb0565b146120f35760036120f6565b60025b90506000600382600681111561210e5761210e613eb0565b14905060005b6009548110156121da5760006009828154811061213357612133614c06565b6000918252602080832090910154808352600a90915260409091208054919250859160ff60e01b1916600160e01b83600681111561217357612173613eb0565b021790555082156121d1576008546000828152600a6020526040902080547fffffffff0000000000000000ffffffffffffffffffffffffffffffffffffffff16600160801b9092046001600160401b0316600160a01b029190911790555b50600101612114565b508015612248576008546121fd90600160801b90046001600160401b0316613764565b6008805460019190601090612223908490600160801b90046001600160401b0316614ad5565b92506101000a8154816001600160401b0302191690836001600160401b031602179055505b600084600181111561225c5761225c613eb0565b036122855760018060008282546122739190613e84565b90915550612285905060096000613d7a565b6008546040517f4887f063ba2113285aba0e893c372b65da5e458b463fb01fdf1fe0d266acff0e916122d79160ff600160c01b830416916001600160401b0380821692600160401b9092041690614e26565b60405180910390a150505050565b333014612305576040516354348f0360e01b815260040160405180910390fd5b8061231c6000356001600160e01b03191682612419565b61233c576040516373330d9b60e01b815260048101829052602401610d4e565b60038290556040518281527f7d6e1cf0de9a5ba39e02e05972eb08471682fc361b20458a3f200f7bf087b535906020016119fa565b60408051808201909152600081526060602082015281516020808401919091206001600160e01b0319908116600090815280835260409081902081518083018352815460e01b909316835260018101805483518187028101870190945280845293949193858301939283018282801561240957602002820191906000526020600020905b8154815260200190600101908083116123f5575b5050505050815250509050919050565b6001600160e01b031980831660009081526020818152604080832081518083018352815460e01b90951685526001810180548351818602810186019094528084529495869590949293858401939092919083018282801561249957602002820191906000526020600020905b815481526020019060010190808311612485575b50505050508152505090508060200151516000036124bb576000915050610fef565b602081015181516000906124ce90613862565b905060005b82518110156125db57818382815181106124ef576124ef614c06565b6020026020010151036125d3576000808211612525578360008151811061251857612518614c06565b602002602001015161254a565b83612531600184614af5565b8151811061254157612541614c06565b60200260200101515b905060006001855161255c9190614af5565b831061258e5784600186516125719190614af5565b8151811061258157612581614c06565b60200260200101516125b3565b8461259a846001613e84565b815181106125aa576125aa614c06565b60200260200101515b90508188141580156125c55750808814155b159650505050505050610fef565b6001016124d3565b5060009695505050505050565b6040805180820190915260008152606060208201526001600160e01b03198083166000908152602081815260409182902082518084018452815460e01b909416845260018101805484518185028101850190955280855291938584019390929083018282801561240957602002820191906000526020600020908154815260200190600101908083116123f5575050505050815250509050919050565b6000818152601060205260408120610fef90613939565b6126a4613d98565b6000828152600a602090815260409182902082516101608101845281546001600160a01b0381168252600160a01b81046001600160401b03169382019390935292909190830190600160e01b900460ff16600681111561270657612706613eb0565b600681111561271757612717613eb0565b81526020016001820180548060200260200160405190810160405280929190818152602001828054801561277457602002820191906000526020600020905b81546001600160a01b03168152600190910190602001808311612756575b50505050508152602001600282018054806020026020016040519081016040528092919081815260200182805480156127cc57602002820191906000526020600020905b8154815260200190600101908083116127b8575b5050505050815260200160038201805480602002602001604051908101604052809291908181526020016000905b828210156128a657838290600052602060002001805461281990614aa1565b80601f016020809104026020016040519081016040528092919081815260200182805461284590614aa1565b80156128925780601f1061286757610100808354040283529160200191612892565b820191906000526020600020905b81548152906001019060200180831161287557829003601f168201915b5050505050815260200190600101906127fa565b5050505081526020016004820180546128be90614aa1565b80601f01602080910402602001604051908101604052809291908181526020018280546128ea90614aa1565b80156129375780601f1061290c57610100808354040283529160200191612937565b820191906000526020600020905b81548152906001019060200180831161291a57829003601f168201915b5050505050815260200160058201805461295090614aa1565b80601f016020809104026020016040519081016040528092919081815260200182805461297c90614aa1565b80156129c95780601f1061299e576101008083540402835291602001916129c9565b820191906000526020600020905b8154815290600101906020018083116129ac57829003601f168201915b505050505081526020016006820180546129e290614aa1565b80601f0160208091040260200160405190810160405280929190818152602001828054612a0e90614aa1565b8015612a5b5780601f10612a3057610100808354040283529160200191612a5b565b820191906000526020600020905b815481529060010190602001808311612a3e57829003601f168201915b505050918352505060078201546020820152600882015460409091019060ff166002811115612a8c57612a8c613eb0565b6002811115612a9d57612a9d613eb0565b90525092915050565b600d602090815260009283526040808420909152908252902080546001820180546001600160401b03831693600160401b90930460ff16929190612ae990614aa1565b80601f0160208091040260200160405190810160405280929190818152602001828054612b1590614aa1565b8015612b625780601f10612b3757610100808354040283529160200191612b62565b820191906000526020600020905b815481529060010190602001808311612b4557829003601f168201915b5050505050905083565b60098181548110612b7c57600080fd5b600091825260209091200154905081565b600060015460125414158015612ba557506000601154115b15612bb05750600190565b50600090565b612bbe613363565b6001600160a01b038116612be857604051631e4fbdf760e01b815260006004820152602401610d4e565b612bf181613417565b50565b612bfc613943565b6000818152600a602052604090205481906001600160a01b0316612c365760405163986731a160e01b815260048101829052602401610d4e565b612c41826004612e5d565b612c4a8261398d565b6000828152600a602052604090208054600690829060ff60e01b1916600160e01b830217905550612e0581600101805480602002602001604051908101604052809291908181526020018280548015612ccc57602002820191906000526020600020905b81546001600160a01b03168152600190910190602001808311612cae575b505050505082600201805480602002602001604051908101604052809291908181526020018280548015612d1f57602002820191906000526020600020905b815481526020019060010190808311612d0b575b505050505083600301805480602002602001604051908101604052809291908181526020016000905b82821015612df4578382906000526020600020018054612d6790614aa1565b80601f0160208091040260200160405190810160405280929190818152602001828054612d9390614aa1565b8015612de05780601f10612db557610100808354040283529160200191612de0565b820191906000526020600020905b815481529060010190602001808311612dc357829003601f168201915b505050505081526020019060010190612d48565b50505050600885015460ff16613a2b565b604051839033907f7bfd03e44f31b1867e10c41d419cd8073b4719d321ccc5c3a3c79ac2babab3c390600090a35050612bf160017f9b779b17422d0df92223018b32b4d1fa46e071723d6817e2486d003becc55f0055565b6000612e688361269c565b604001519050816006811115612e8057612e80613eb0565b816006811115612e9257612e92613eb0565b14612eb457828160405163605cfad560e01b8152600401610d4e929190614b7e565b505050565b6040805160808082018352600080835260208084018290528385018290526060808501839052878352600a825285832054865194850187528385529184018390529483018290529382018190529192600160a01b90046001600160401b031691612f2286611f88565b905060005b81518110156130d9576000828281518110612f4457612f44614c06565b6020026020010151905060008715612f8957506001600160401b0385166000908152600e602090815260408083206001600160a01b0385168452909152902054612ffa565b600654604051632933f0eb60e11b81526001600160a01b03848116600483015290911690635267e1d690602401602060405180830381865afa158015612fd3573d6000803e3d6000fd5b505050506040513d601f19601f82011682018060405250810190612ff79190614e55565b90505b6000898152600d602090815260408083206001600160a01b0386168452909152902054600160401b900460ff16600281600281111561303b5761303b613eb0565b0361307b576001866000018181516130539190614ad5565b6001600160401b0316905250604086018051839190613073908390613e84565b9052506130cb565b600181600281111561308f5761308f613eb0565b036130cb576001866020018181516130a79190614ad5565b6001600160401b03169052506060860180518391906130c7908390613e84565b9052505b505050806001019050612f27565b509095945050505050565b6000826001600160a01b03168260405160006040518083038185875af1925050503d8060008114613131576040519150601f19603f3d011682016040523d82523d6000602084013e613136565b606091505b5050905080612eb4576040516317e3057d60e31b81523060048201526001600160a01b038416602482015260448101839052606401610d4e565b6006546040805163567e98f960e01b815290516000926001600160a01b03169163567e98f99160048083019260209291908290030181865afa1580156131ba573d6000803e3d6000fd5b505050506040513d601f19601f820116820180604052508101906131de9190614e55565b905090565b60065460405163f6c5786160e01b81526001600160a01b038381166004830152600092169063f6c5786190602401602060405180830381865afa15801561322e573d6000803e3d6000fd5b505050506040513d601f19601f82011682018060405250810190610fef9190614e6e565b61325d836002612e5d565b600854600160801b90046001600160401b03166000908152600f602052604090206132889085613b6e565b5060008381526010602052604090206132a19085613b6e565b506040518060600160405280426001600160401b031681526020018360028111156132ce576132ce613eb0565b815260209081018390526000858152600d825260408082206001600160a01b038916835283529020825181546001600160401b0390911667ffffffffffffffff19821681178355928401519192839168ffffffffffffffffff191617600160401b83600281111561334157613341613eb0565b02179055506040820151600182019061335a9082614c6c565b50505050505050565b336133957f9016d09d72d40fdae2fd8ceac6b6234c7706214fd39c1cd1e609a0528c199300546001600160a01b031690565b6001600160a01b031614611a185760405163118cdaa760e01b8152336004820152602401610d4e565b6133c66133ce565b611a18613b83565b7ff0c57e16840df040f15088dc2f81fe391c3923bec73e23a9662efc9c229c6a0054600160401b900460ff16611a1857604051631afcd79f60e31b815260040160405180910390fd5b7f9016d09d72d40fdae2fd8ceac6b6234c7706214fd39c1cd1e609a0528c199300805473ffffffffffffffffffffffffffffffffffffffff1981166001600160a01b03848116918217845560405192169182907f8be0079c531659141344cd1fd0a4f28419497f9722a3daafe3b4186f6b6457e090600090a3505050565b6000805b8251811015613749578281815181106134b4576134b4614c06565b60200260200101515160000315613741576000806134f48584815181106134dd576134dd614c06565b602002602001015160208101516024909101519091565b9150915060008087858151811061350d5761350d614c06565b60200260200101516001600160a01b031688868151811061353057613530614c06565b5050604080516001600160e01b0319871660248083019190915282518083039091018152604490910182526020810180517bffffffffffffffffffffffffffffffffffffffffffffffffffffffff16635f9a47c360e11b17905290516135969190614e8b565b600060405180830381855afa9150503d80600081146135d1576040519150601f19603f3d011682016040523d82523d6000602084013e6135d6565b606091505b50915091508180156135e9575060008151115b1561372e576000818060200190518101906136049190614ea7565b9050600b60008a888151811061361c5761361c614c06565b6020908102919091018101516001600160a01b031682528101919091526040016000205460ff16801561365457506000816020015151115b15613719576002965088868151811061366f5761366f614c06565b602090810291909101015160405163ba08d23760e01b81526001600160e01b031987166004820152602481018690526001600160a01b039091169063ba08d23790604401602060405180830381865afa1580156136d0573d6000803e3d6000fd5b505050506040513d601f19601f820116820180604052508101906136f49190614e6e565b613714576040516373330d9b60e01b815260048101859052602401610d4e565b613728565b60019650505050505050610fef565b5061373c565b600195505050505050610fef565b505050505b600101613499565b5092915050565b6060600061375d83613b8b565b9392505050565b6001600160401b0381166000908152600f6020526040812061378590613750565b905060005b8151811015612eb45760008282815181106137a7576137a7614c06565b6020908102919091010151600654604051632933f0eb60e11b81526001600160a01b03808416600483015292935060009290911690635267e1d690602401602060405180830381865afa158015613802573d6000803e3d6000fd5b505050506040513d601f19601f820116820180604052508101906138269190614e55565b6001600160401b0386166000908152600e602090815260408083206001600160a01b03909616835294905292909220919091555060010161378a565b60408051600481526024810182526020810180517bffffffffffffffffffffffffffffffffffffffffffffffffffffffff166001600160e01b031985161790529051600091908290819030906138b9908590614e8b565b600060405180830381855afa9150503d80600081146138f4576040519150601f19603f3d011682016040523d82523d6000602084013e6138f9565b606091505b50915091508161391c57604051635fbab09b60e11b815260040160405180910390fd5b808060200190518101906139309190614e55565b95945050505050565b6000610fef825490565b7f9b779b17422d0df92223018b32b4d1fa46e071723d6817e2486d003becc55f0080546001190161398757604051633ee5aeb560e01b815260040160405180910390fd5b60029055565b60006139988261269c565b905060015481610120015160016139af9190613e84565b146139d057604051631902d7cf60e01b815260048101839052602401610d4e565b600181610140015160028111156139e9576139e9613eb0565b148015613a00575080516001600160a01b03163314155b15613a2757604051636d0e083b60e11b815260048101839052336024820152604401610d4e565b5050565b60005b8451811015613b4157600080836002811115613a4c57613a4c613eb0565b14613a58576000613a73565b848281518110613a6a57613a6a614c06565b60200260200101515b9050600080878481518110613a8a57613a8a614c06565b60200260200101516001600160a01b031683878681518110613aae57613aae614c06565b6020026020010151604051613ac39190614e8b565b60006040518083038185875af1925050503d8060008114613b00576040519150601f19603f3d011682016040523d82523d6000602084013e613b05565b606091505b5091509150613b148282613be7565b508215613b33578260046000828254613b2d9190614af5565b90915550505b505050806001019050613a2e565b5050505050565b60017f9b779b17422d0df92223018b32b4d1fa46e071723d6817e2486d003becc55f0055565b600061375d836001600160a01b038416613c03565b613b486133ce565b606081600001805480602002602001604051908101604052809291908181526020018280548015613bdb57602002820191906000526020600020905b815481526020019060010190808311613bc7575b50505050509050919050565b606082613bfc57613bf782613c52565b610fef565b5080610fef565b6000818152600183016020526040812054613c4a57508154600181810184556000848152602080822090930184905584548482528286019093526040902091909155610fef565b506000610fef565b805115613c625780518082602001fd5b604051630a12f52160e11b815260040160405180910390fd5b828054828255906000526020600020908101928215613cb6579160200282015b82811115613cb6578251825591602001919060010190613c9b565b50613cc2929150613e02565b5090565b828054828255906000526020600020908101928215613cb6579160200282015b82811115613cb6578251825473ffffffffffffffffffffffffffffffffffffffff19166001600160a01b03909116178255602090920191600190910190613ce6565b828054828255906000526020600020908101928215613d6e579160200282015b82811115613d6e5782518290613d5e9082614c6c565b5091602001919060010190613d48565b50613cc2929150613e17565b5080546000825590600052602060002090810190612bf19190613e02565b6040805161016081018252600080825260208201819052909182019081526020016060815260200160608152602001606081526020016060815260200160608152602001606081526020016000815260200160006002811115613dfd57613dfd613eb0565b905290565b5b80821115613cc25760008155600101613e03565b80821115613cc2576000613e2b8282613e34565b50600101613e17565b508054613e4090614aa1565b6000825580601f10613e50575050565b601f016020900490600052602060002090810190612bf19190613e02565b634e487b7160e01b600052601160045260246000fd5b80820180821115610fef57610fef613e6e565b600060208284031215613ea957600080fd5b5035919050565b634e487b7160e01b600052602160045260246000fd5b60078110613ed657613ed6613eb0565b9052565b60005b83811015613ef5578181015183820152602001613edd565b50506000910152565b60008151808452613f16816020860160208601613eda565b601f01601f19169290920160200192915050565b60038110612bf157612bf1613eb0565b613ed681613f2a565b60006101006001600160a01b038b1683526001600160401b038a166020840152613f70604084018a613ec6565b806060840152613f8281840189613efe565b90508281036080840152613f968188613efe565b905082810360a0840152613faa8187613efe565b9150508360c0830152613fbc83613f2a565b8260e08301529998505050505050505050565b60038110612bf157600080fd5b634e487b7160e01b600052604160045260246000fd5b604080519081016001600160401b038111828210171561401457614014613fdc565b60405290565b604051601f8201601f191681016001600160401b038111828210171561404257614042613fdc565b604052919050565b80356001600160401b038116811461406157600080fd5b919050565b60008082840360a081121561407a57600080fd5b833561408581613fcf565b92506080601f198201121561409957600080fd5b50604051608081018181106001600160401b03821117156140bc576140bc613fdc565b6040526140cb6020850161404a565b81526140d96040850161404a565b60208201526060840135604082015260808401356060820152809150509250929050565b60008083601f84011261410f57600080fd5b5081356001600160401b0381111561412657600080fd5b60208301915083602082850101111561413e57600080fd5b9250929050565b60008060006040848603121561415a57600080fd5b8335925060208401356001600160401b0381111561417757600080fd5b614183868287016140fd565b9497909650939450505050565b600080600080606085870312156141a657600080fd5b8435935060208501356141b881613fcf565b925060408501356001600160401b038111156141d357600080fd5b6141df878288016140fd565b95989497509550505050565b60006001600160401b0383111561420457614204613fdc565b614217601f8401601f191660200161401a565b905082815283838301111561422b57600080fd5b828260208301376000602084830101529392505050565b600082601f83011261425357600080fd5b61375d838335602085016141eb565b60006001600160401b0382111561427b5761427b613fdc565b5060051b60200190565b600082601f83011261429657600080fd5b813560206142ab6142a683614262565b61401a565b8083825260208201915060208460051b8701019350868411156142cd57600080fd5b602086015b848110156142e957803583529183019183016142d2565b509695505050505050565b60008060006060848603121561430957600080fd5b83356001600160401b038082111561432057600080fd5b61432c87838801614242565b9450602086013591508082111561434257600080fd5b61434e87838801614242565b9350604086013591508082111561436457600080fd5b5061437186828701614285565b9150509250925092565b80356001600160a01b038116811461406157600080fd5b60008060008060008060c087890312156143ab57600080fd5b6143b48761437b565b95506143c26020880161437b565b94506143d06040880161437b565b93506143de6060880161437b565b9250608087013591506143f360a0880161404a565b90509295509295509295565b8015158114612bf157600080fd5b6000806040838503121561442057600080fd5b6144298361437b565b91506020830135614439816143ff565b809150509250929050565b6000806040838503121561445757600080fd5b823591506144676020840161437b565b90509250929050565b600082601f83011261448157600080fd5b813560206144916142a683614262565b8083825260208201915060208460051b8701019350868411156144b357600080fd5b602086015b848110156142e9576144c98161437b565b83529183019183016144b8565b600082601f8301126144e757600080fd5b813560206144f76142a683614262565b82815260059290921b8401810191818101908684111561451657600080fd5b8286015b848110156142e95780356001600160401b038111156145395760008081fd5b8701603f8101891361454b5760008081fd5b61455c8986830135604084016141eb565b84525091830191830161451a565b60008060008060008060c0878903121561458357600080fd5b86356001600160401b038082111561459a57600080fd5b6145a68a838b01614470565b975060208901359150808211156145bc57600080fd5b6145c88a838b01614285565b965060408901359150808211156145de57600080fd5b6145ea8a838b016144d6565b9550606089013591508082111561460057600080fd5b61460c8a838b01614242565b9450608089013591508082111561462257600080fd5b61462e8a838b01614242565b935060a089013591508082111561464457600080fd5b5061465189828a01614242565b9150509295509295509295565b6001600160e01b031981168114612bf157600080fd5b60006020828403121561468657600080fd5b813561375d8161465e565b600080604083850312156146a457600080fd5b82359150602083013561443981613fcf565b600080600080608085870312156146cc57600080fd5b84356001600160401b03808211156146e357600080fd5b6146ef88838901614470565b9550602087013591508082111561470557600080fd5b61471188838901614285565b9450604087013591508082111561472757600080fd5b614733888389016144d6565b9350606087013591508082111561474957600080fd5b5061475687828801614242565b91505092959194509250565b60008151808452602080850194506020840160005b8381101561479357815187529582019590820190600101614777565b509495945050505050565b60208152600061375d6020830184614762565b6000602082840312156147c357600080fd5b81356001600160401b038111156147d957600080fd5b6147e584828501614242565b949350505050565b60008151808452602080850194506020840160005b838110156147935781516001600160a01b031687529582019590820190600101614802565b60208152600061375d60208301846147ed565b60028110613ed657613ed6613eb0565b6001600160401b03858116825284811660208301528316604082015260808101613930606083018461483a565b602080825282516001600160e01b031916828201528201516040808301526000906147e56060840182614762565b600080604083850312156148b857600080fd5b82356148c38161465e565b946020939093013593505050565b60008282518085526020808601955060208260051b8401016020860160005b8481101561491e57601f1986840301895261490c838351613efe565b988401989250908301906001016148f0565b5090979650505050505050565b602081526149456020820183516001600160a01b03169052565b6000602083015161496160408401826001600160401b03169052565b5060408301516149746060840182613ec6565b5060608301516101608060808501526149916101808501836147ed565b91506080850151601f19808685030160a08701526149af8483614762565b935060a08701519150808685030160c08701526149cc84836148d1565b935060c08701519150808685030160e08701526149e98483613efe565b935060e08701519150610100818786030181880152614a088584613efe565b945080880151925050610120818786030181880152614a278584613efe565b90880151610140888101919091528801519094509150614a4b905082860182613f3a565b5090949350505050565b600060208284031215614a6757600080fd5b61375d8261437b565b6001600160401b0384168152614a8583613f2a565b8260208201526060604082015260006139306060830184613efe565b600181811c90821680614ab557607f821691505b60208210810361129757634e487b7160e01b600052602260045260246000fd5b6001600160401b0381811683821601908082111561374957613749613e6e565b81810381811115610fef57610fef613e6e565b8082028115828204841417610fef57610fef613e6e565b600082614b3c57634e487b7160e01b600052601260045260246000fd5b500490565b81835281816020850137506000828201602090810191909152601f909101601f19169091010190565b6020815260006147e5602083018486614b41565b8281526040810161375d6020830184613ec6565b60208101610fef828461483a565b614ba984613f2a565b838152604060208201526000613930604083018486614b41565b606081526000614bd66060830186613efe565b8281036020840152614be88186613efe565b90508281036040840152614bfc8185614762565b9695505050505050565b634e487b7160e01b600052603260045260246000fd5b601f821115612eb4576000816000526020600020601f850160051c81016020861015614c455750805b601f850160051c820191505b81811015614c6457828155600101614c51565b505050505050565b81516001600160401b03811115614c8557614c85613fdc565b614c9981614c938454614aa1565b84614c1c565b602080601f831160018114614cce5760008415614cb65750858301515b600019600386901b1c1916600185901b178555614c64565b600085815260208120601f198616915b82811015614cfd57888601518255948401946001909101908401614cde565b5085821015614d1b5787850151600019600388901b60f8161c191681555b5050505050600190811b01905550565b60e081526000614d3e60e083018a6147ed565b8281036020840152614d50818a614762565b90508281036040840152614d6481896148d1565b90508281036060840152614d788188613efe565b90508281036080840152614d8c8187613efe565b905082810360a0840152614da08186613efe565b9150508260c083015298975050505050505050565b60208101614dc283613f2a565b91905290565b608081526000614ddb60808301876147ed565b8281036020840152614ded8187614762565b90508281036040840152614e0181866148d1565b91505082606083015295945050505050565b60208152600061375d6020830184613efe565b60608101614e34828661483a565b6001600160401b038085166020840152808416604084015250949350505050565b600060208284031215614e6757600080fd5b5051919050565b600060208284031215614e8057600080fd5b815161375d816143ff565b60008251614e9d818460208701613eda565b9190910192915050565b60006020808385031215614eba57600080fd5b82516001600160401b0380821115614ed157600080fd5b9084019060408287031215614ee557600080fd5b614eed613ff2565b8251614ef88161465e565b81528284015182811115614f0b57600080fd5b80840193505086601f840112614f2057600080fd5b82519150614f306142a683614262565b82815260059290921b83018401918481019088841115614f4f57600080fd5b938501935b83851015614f6d57845182529385019390850190614f54565b94820194909452969550505050505056fea2646970667358221220936f8ea5e6feaafde93209f320da2de9877eb153cdcec75bfba6687240bab01e64736f6c63430008190033",
  "linkReferences": {},
  "deployedLinkReferences": {}
}