{
  "_format": "hh-sol-artifact-1",
  "contractName": "DiamondDao",
  "sourceName": "contracts/DiamondDao.sol",
  "abi": [
    {
      "inputs": [],
      "stateMutability": "nonpayable",
      "type": "constructor"
    },
    {
      "inputs": [
        {
          "internalType": "bytes",
          "name": "funcSelector",
          "type": "bytes"
        },
        {
          "internalType": "address",
          "name": "targetContract",
          "type": "address"
        }
      ],
      "name": "ContractCallFailed",
      "type": "error"
    },
    {
      "inputs": [],
      "name": "FailedInnerCall",
      "type": "error"
    },
    {
      "inputs": [
        {
          "internalType": "bytes4",
          "name": "funcSelector",
          "type": "bytes4"
        },
        {
          "internalType": "address",
          "name": "targetContract",
          "type": "address"
        }
      ],
      "name": "FunctionUpgradeNotAllowed",
      "type": "error"
    },
    {
      "inputs": [],
      "name": "InsufficientFunds",
      "type": "error"
    },
    {
      "inputs": [],
      "name": "InvalidArgument",
      "type": "error"
    },
    {
      "inputs": [],
      "name": "InvalidInitialization",
      "type": "error"
    },
    {
      "inputs": [],
      "name": "InvalidStartTimestamp",
      "type": "error"
    },
    {
      "inputs": [
        {
          "internalType": "uint256",
          "name": "currentVal",
          "type": "uint256"
        },
        {
          "internalType": "uint256",
          "name": "newVal",
          "type": "uint256"
        }
      ],
      "name": "InvalidUpgradeValue",
      "type": "error"
    },
    {
      "inputs": [],
      "name": "NewProposalsLimitExceeded",
      "type": "error"
    },
    {
      "inputs": [],
      "name": "NotInitializing",
      "type": "error"
    },
    {
      "inputs": [],
      "name": "OnlyGovernance",
      "type": "error"
    },
    {
      "inputs": [],
      "name": "OnlyProposer",
      "type": "error"
    },
    {
      "inputs": [
        {
          "internalType": "address",
          "name": "caller",
          "type": "address"
        }
      ],
      "name": "OnlyValidators",
      "type": "error"
    },
    {
      "inputs": [],
      "name": "OutOfAllowedRange",
      "type": "error"
    },
    {
      "inputs": [
        {
          "internalType": "uint256",
          "name": "proposalId",
          "type": "uint256"
        }
      ],
      "name": "ProposalAlreadyExist",
      "type": "error"
    },
    {
      "inputs": [
        {
          "internalType": "uint256",
          "name": "proposalId",
          "type": "uint256"
        }
      ],
      "name": "ProposalNotExist",
      "type": "error"
    },
    {
      "inputs": [],
      "name": "ReentrancyGuardReentrantCall",
      "type": "error"
    },
    {
      "inputs": [
        {
          "internalType": "address",
          "name": "from",
          "type": "address"
        },
        {
          "internalType": "address",
          "name": "to",
          "type": "address"
        },
        {
          "internalType": "uint256",
          "name": "amount",
          "type": "uint256"
        }
      ],
      "name": "TransferFailed",
      "type": "error"
    },
    {
      "inputs": [
        {
          "internalType": "enum Phase",
          "name": "phase",
          "type": "uint8"
        }
      ],
      "name": "UnavailableInCurrentPhase",
      "type": "error"
    },
    {
      "inputs": [
        {
          "internalType": "uint256",
          "name": "proposalId",
          "type": "uint256"
        },
        {
          "internalType": "enum ProposalState",
          "name": "state",
          "type": "uint8"
        }
      ],
      "name": "UnexpectedProposalState",
      "type": "error"
    },
    {
      "inputs": [],
      "name": "UnfinalizedProposalsExist",
      "type": "error"
    },
    {
      "anonymous": false,
      "inputs": [
        {
          "indexed": false,
          "internalType": "uint64",
          "name": "version",
          "type": "uint64"
        }
      ],
      "name": "Initialized",
      "type": "event"
    },
    {
      "anonymous": false,
      "inputs": [
        {
          "indexed": true,
          "internalType": "address",
          "name": "proposer",
          "type": "address"
        },
        {
          "indexed": true,
          "internalType": "uint256",
          "name": "proposalId",
          "type": "uint256"
        },
        {
          "indexed": false,
          "internalType": "string",
          "name": "reason",
          "type": "string"
        }
      ],
      "name": "ProposalCanceled",
      "type": "event"
    },
    {
      "anonymous": false,
      "inputs": [
        {
          "indexed": true,
          "internalType": "address",
          "name": "proposer",
          "type": "address"
        },
        {
          "indexed": true,
          "internalType": "uint256",
          "name": "proposalId",
          "type": "uint256"
        },
        {
          "indexed": false,
          "internalType": "address[]",
          "name": "targets",
          "type": "address[]"
        },
        {
          "indexed": false,
          "internalType": "uint256[]",
          "name": "values",
          "type": "uint256[]"
        },
        {
          "indexed": false,
          "internalType": "bytes[]",
          "name": "calldatas",
          "type": "bytes[]"
        },
        {
          "indexed": false,
          "internalType": "string",
          "name": "title",
          "type": "string"
        },
        {
          "indexed": false,
          "internalType": "string",
          "name": "description",
          "type": "string"
        },
        {
          "indexed": false,
          "internalType": "string",
          "name": "discussionUrl",
          "type": "string"
        }
      ],
      "name": "ProposalCreated",
      "type": "event"
    },
    {
      "anonymous": false,
      "inputs": [
        {
          "indexed": true,
          "internalType": "address",
          "name": "caller",
          "type": "address"
        },
        {
          "indexed": true,
          "internalType": "uint256",
          "name": "proposalId",
          "type": "uint256"
        }
      ],
      "name": "ProposalExecuted",
      "type": "event"
    },
    {
      "anonymous": false,
      "inputs": [
        {
          "indexed": false,
          "internalType": "bool",
          "name": "allowed",
          "type": "bool"
        },
        {
          "indexed": false,
          "internalType": "string",
          "name": "setter",
          "type": "string"
        },
        {
          "indexed": false,
          "internalType": "string",
          "name": "getter",
          "type": "string"
        },
        {
          "indexed": false,
          "internalType": "uint256[]",
          "name": "params",
          "type": "uint256[]"
        }
      ],
      "name": "SetChangeAbleParameters",
      "type": "event"
    },
    {
      "anonymous": false,
      "inputs": [
        {
          "indexed": false,
          "internalType": "uint256",
          "name": "fee",
          "type": "uint256"
        }
      ],
      "name": "SetCreateProposalFee",
      "type": "event"
    },
    {
      "anonymous": false,
      "inputs": [
        {
          "indexed": false,
          "internalType": "address",
          "name": "contractAddress",
          "type": "address"
        },
        {
          "indexed": false,
          "internalType": "bool",
          "name": "isCore",
          "type": "bool"
        }
      ],
      "name": "SetIsCoreContract",
      "type": "event"
    },
    {
      "anonymous": false,
      "inputs": [
        {
          "indexed": true,
          "internalType": "address",
          "name": "voter",
          "type": "address"
        },
        {
          "indexed": true,
          "internalType": "uint256",
          "name": "proposalId",
          "type": "uint256"
        },
        {
          "indexed": false,
          "internalType": "enum Vote",
          "name": "vote",
          "type": "uint8"
        }
      ],
      "name": "SubmitVote",
      "type": "event"
    },
    {
      "anonymous": false,
      "inputs": [
        {
          "indexed": true,
          "internalType": "address",
          "name": "voter",
          "type": "address"
        },
        {
          "indexed": true,
          "internalType": "uint256",
          "name": "proposalId",
          "type": "uint256"
        },
        {
          "indexed": false,
          "internalType": "enum Vote",
          "name": "vote",
          "type": "uint8"
        },
        {
          "indexed": false,
          "internalType": "string",
          "name": "reason",
          "type": "string"
        }
      ],
      "name": "SubmitVoteWithReason",
      "type": "event"
    },
    {
      "anonymous": false,
      "inputs": [
        {
          "indexed": false,
          "internalType": "enum Phase",
          "name": "phase",
          "type": "uint8"
        },
        {
          "indexed": false,
          "internalType": "uint256",
          "name": "start",
          "type": "uint256"
        },
        {
          "indexed": false,
          "internalType": "uint256",
          "name": "end",
          "type": "uint256"
        }
      ],
      "name": "SwitchDaoPhase",
      "type": "event"
    },
    {
      "anonymous": false,
      "inputs": [
        {
          "indexed": true,
          "internalType": "address",
          "name": "caller",
          "type": "address"
        },
        {
          "indexed": true,
          "internalType": "uint256",
          "name": "proposalId",
          "type": "uint256"
        },
        {
          "indexed": false,
          "internalType": "bool",
          "name": "accepted",
          "type": "bool"
        }
      ],
      "name": "VotingFinalized",
      "type": "event"
    },
    {
      "inputs": [],
      "name": "DAO_PHASE_DURATION",
      "outputs": [
        {
          "internalType": "uint64",
          "name": "",
          "type": "uint64"
        }
      ],
      "stateMutability": "view",
      "type": "function"
    },
    {
      "inputs": [],
      "name": "MAX_NEW_PROPOSALS",
      "outputs": [
        {
          "internalType": "uint256",
          "name": "",
          "type": "uint256"
        }
      ],
      "stateMutability": "view",
      "type": "function"
    },
    {
      "inputs": [
        {
          "internalType": "uint256",
          "name": "proposalId",
          "type": "uint256"
        },
        {
          "internalType": "string",
          "name": "reason",
          "type": "string"
        }
      ],
      "name": "cancel",
      "outputs": [],
      "stateMutability": "nonpayable",
      "type": "function"
    },
    {
      "inputs": [
        {
          "internalType": "uint256",
          "name": "proposalId",
          "type": "uint256"
        }
      ],
      "name": "countVotes",
      "outputs": [
        {
          "components": [
            {
              "internalType": "uint64",
              "name": "countYes",
              "type": "uint64"
            },
            {
              "internalType": "uint64",
              "name": "countNo",
              "type": "uint64"
            },
            {
              "internalType": "uint256",
              "name": "stakeYes",
              "type": "uint256"
            },
            {
              "internalType": "uint256",
              "name": "stakeNo",
              "type": "uint256"
            }
          ],
          "internalType": "struct VotingResult",
          "name": "",
          "type": "tuple"
        }
      ],
      "stateMutability": "view",
      "type": "function"
    },
    {
      "inputs": [],
      "name": "createProposalFee",
      "outputs": [
        {
          "internalType": "uint256",
          "name": "",
          "type": "uint256"
        }
      ],
      "stateMutability": "view",
      "type": "function"
    },
    {
      "inputs": [
        {
          "internalType": "uint256",
          "name": "",
          "type": "uint256"
        }
      ],
      "name": "currentPhaseProposals",
      "outputs": [
        {
          "internalType": "uint256",
          "name": "",
          "type": "uint256"
        }
      ],
      "stateMutability": "view",
      "type": "function"
    },
    {
      "inputs": [
        {
          "internalType": "uint256",
          "name": "",
          "type": "uint256"
        },
        {
          "internalType": "address",
          "name": "",
          "type": "address"
        }
      ],
      "name": "daoEpochStakeSnapshot",
      "outputs": [
        {
          "internalType": "uint256",
          "name": "",
          "type": "uint256"
        }
      ],
      "stateMutability": "view",
      "type": "function"
    },
    {
      "inputs": [],
      "name": "daoPhase",
      "outputs": [
        {
          "internalType": "uint64",
          "name": "start",
          "type": "uint64"
        },
        {
          "internalType": "uint64",
          "name": "end",
          "type": "uint64"
        },
        {
          "internalType": "uint64",
          "name": "daoEpoch",
          "type": "uint64"
        },
        {
          "internalType": "enum Phase",
          "name": "phase",
          "type": "uint8"
        }
      ],
      "stateMutability": "view",
      "type": "function"
    },
    {
      "inputs": [],
      "name": "daoPhaseCount",
      "outputs": [
        {
          "internalType": "uint256",
          "name": "",
          "type": "uint256"
        }
      ],
      "stateMutability": "view",
      "type": "function"
    },
    {
      "inputs": [
        {
          "internalType": "uint256",
          "name": "proposalId",
          "type": "uint256"
        }
      ],
      "name": "execute",
      "outputs": [],
      "stateMutability": "nonpayable",
      "type": "function"
    },
    {
      "inputs": [
        {
          "internalType": "uint256",
          "name": "proposalId",
          "type": "uint256"
        }
      ],
      "name": "finalize",
      "outputs": [],
      "stateMutability": "nonpayable",
      "type": "function"
    },
    {
      "inputs": [],
      "name": "getCurrentPhaseProposals",
      "outputs": [
        {
          "internalType": "uint256[]",
          "name": "",
          "type": "uint256[]"
        }
      ],
      "stateMutability": "view",
      "type": "function"
    },
    {
      "inputs": [
        {
          "internalType": "uint256",
          "name": "proposalId",
          "type": "uint256"
        }
      ],
      "name": "getProposal",
      "outputs": [
        {
          "components": [
            {
              "internalType": "address",
              "name": "proposer",
              "type": "address"
            },
            {
              "internalType": "uint64",
              "name": "votingDaoEpoch",
              "type": "uint64"
            },
            {
              "internalType": "enum ProposalState",
              "name": "state",
              "type": "uint8"
            },
            {
              "internalType": "address[]",
              "name": "targets",
              "type": "address[]"
            },
            {
              "internalType": "uint256[]",
              "name": "values",
              "type": "uint256[]"
            },
            {
              "internalType": "bytes[]",
              "name": "calldatas",
              "type": "bytes[]"
            },
            {
              "internalType": "string",
              "name": "title",
              "type": "string"
            },
            {
              "internalType": "string",
              "name": "description",
              "type": "string"
            },
            {
              "internalType": "string",
              "name": "discussionUrl",
              "type": "string"
            },
            {
              "internalType": "uint256",
              "name": "daoPhaseCount",
              "type": "uint256"
            },
            {
              "internalType": "enum ProposalType",
              "name": "proposalType",
              "type": "uint8"
            }
          ],
          "internalType": "struct Proposal",
          "name": "",
          "type": "tuple"
        }
      ],
      "stateMutability": "view",
      "type": "function"
    },
    {
      "inputs": [
        {
          "internalType": "uint256",
          "name": "proposalId",
          "type": "uint256"
        }
      ],
      "name": "getProposalVoters",
      "outputs": [
        {
          "internalType": "address[]",
          "name": "",
          "type": "address[]"
        }
      ],
      "stateMutability": "view",
      "type": "function"
    },
    {
      "inputs": [
        {
          "internalType": "uint256",
          "name": "proposalId",
          "type": "uint256"
        }
      ],
      "name": "getProposalVotersCount",
      "outputs": [
        {
          "internalType": "uint256",
          "name": "",
          "type": "uint256"
        }
      ],
      "stateMutability": "view",
      "type": "function"
    },
    {
      "inputs": [],
      "name": "governancePot",
      "outputs": [
        {
          "internalType": "uint256",
          "name": "",
          "type": "uint256"
        }
      ],
      "stateMutability": "view",
      "type": "function"
    },
    {
      "inputs": [
        {
          "internalType": "address[]",
          "name": "targets",
          "type": "address[]"
        },
        {
          "internalType": "uint256[]",
          "name": "values",
          "type": "uint256[]"
        },
        {
          "internalType": "bytes[]",
          "name": "calldatas",
          "type": "bytes[]"
        },
        {
          "internalType": "string",
          "name": "description",
          "type": "string"
        }
      ],
      "name": "hashProposal",
      "outputs": [
        {
          "internalType": "uint256",
          "name": "",
          "type": "uint256"
        }
      ],
      "stateMutability": "pure",
      "type": "function"
    },
    {
      "inputs": [
        {
          "internalType": "address",
          "name": "_validatorSet",
          "type": "address"
        },
        {
          "internalType": "address",
          "name": "_stakingHbbft",
          "type": "address"
        },
        {
          "internalType": "address",
          "name": "_reinsertPot",
          "type": "address"
        },
        {
          "internalType": "uint256",
          "name": "_createProposalFee",
          "type": "uint256"
        },
        {
          "internalType": "uint64",
          "name": "_startTimestamp",
          "type": "uint64"
        }
      ],
      "name": "initialize",
      "outputs": [],
      "stateMutability": "nonpayable",
      "type": "function"
    },
    {
      "inputs": [
        {
          "internalType": "address",
          "name": "",
          "type": "address"
        }
      ],
      "name": "isCoreContract",
      "outputs": [
        {
          "internalType": "bool",
          "name": "",
          "type": "bool"
        }
      ],
      "stateMutability": "view",
      "type": "function"
    },
    {
      "inputs": [],
      "name": "lastDaoPhaseCount",
      "outputs": [
        {
          "internalType": "uint256",
          "name": "",
          "type": "uint256"
        }
      ],
      "stateMutability": "view",
      "type": "function"
    },
    {
      "inputs": [
        {
          "internalType": "uint256",
          "name": "proposalId",
          "type": "uint256"
        }
      ],
      "name": "proposalExists",
      "outputs": [
        {
          "internalType": "bool",
          "name": "",
          "type": "bool"
        }
      ],
      "stateMutability": "view",
      "type": "function"
    },
    {
      "inputs": [
        {
          "internalType": "uint256",
          "name": "",
          "type": "uint256"
        }
      ],
      "name": "proposals",
      "outputs": [
        {
          "internalType": "address",
          "name": "proposer",
          "type": "address"
        },
        {
          "internalType": "uint64",
          "name": "votingDaoEpoch",
          "type": "uint64"
        },
        {
          "internalType": "enum ProposalState",
          "name": "state",
          "type": "uint8"
        },
        {
          "internalType": "string",
          "name": "title",
          "type": "string"
        },
        {
          "internalType": "string",
          "name": "description",
          "type": "string"
        },
        {
          "internalType": "string",
          "name": "discussionUrl",
          "type": "string"
        },
        {
          "internalType": "uint256",
          "name": "daoPhaseCount",
          "type": "uint256"
        },
        {
          "internalType": "enum ProposalType",
          "name": "proposalType",
          "type": "uint8"
        }
      ],
      "stateMutability": "view",
      "type": "function"
    },
    {
      "inputs": [
        {
          "internalType": "address[]",
          "name": "targets",
          "type": "address[]"
        },
        {
          "internalType": "uint256[]",
          "name": "values",
          "type": "uint256[]"
        },
        {
          "internalType": "bytes[]",
          "name": "calldatas",
          "type": "bytes[]"
        },
        {
          "internalType": "string",
          "name": "title",
          "type": "string"
        },
        {
          "internalType": "string",
          "name": "description",
          "type": "string"
        },
        {
          "internalType": "string",
          "name": "discussionUrl",
          "type": "string"
        }
      ],
      "name": "propose",
      "outputs": [],
      "stateMutability": "payable",
      "type": "function"
    },
    {
      "inputs": [
        {
          "internalType": "enum ProposalType",
          "name": "_type",
          "type": "uint8"
        },
        {
          "components": [
            {
              "internalType": "uint64",
              "name": "countYes",
              "type": "uint64"
            },
            {
              "internalType": "uint64",
              "name": "countNo",
              "type": "uint64"
            },
            {
              "internalType": "uint256",
              "name": "stakeYes",
              "type": "uint256"
            },
            {
              "internalType": "uint256",
              "name": "stakeNo",
              "type": "uint256"
            }
          ],
          "internalType": "struct VotingResult",
          "name": "result",
          "type": "tuple"
        }
      ],
      "name": "quorumReached",
      "outputs": [
        {
          "internalType": "bool",
          "name": "",
          "type": "bool"
        }
      ],
      "stateMutability": "view",
      "type": "function"
    },
    {
      "inputs": [],
      "name": "reinsertPot",
      "outputs": [
        {
          "internalType": "address",
          "name": "",
          "type": "address"
        }
      ],
      "stateMutability": "view",
      "type": "function"
    },
    {
      "inputs": [
        {
          "internalType": "uint256",
          "name": "",
          "type": "uint256"
        }
      ],
      "name": "results",
      "outputs": [
        {
          "internalType": "uint64",
          "name": "countYes",
          "type": "uint64"
        },
        {
          "internalType": "uint64",
          "name": "countNo",
          "type": "uint64"
        },
        {
          "internalType": "uint256",
          "name": "stakeYes",
          "type": "uint256"
        },
        {
          "internalType": "uint256",
          "name": "stakeNo",
          "type": "uint256"
        }
      ],
      "stateMutability": "view",
      "type": "function"
    },
    {
      "inputs": [
        {
          "internalType": "uint256",
          "name": "_fee",
          "type": "uint256"
        }
      ],
      "name": "setCreateProposalFee",
      "outputs": [],
      "stateMutability": "nonpayable",
      "type": "function"
    },
    {
      "inputs": [
        {
          "internalType": "address",
          "name": "_add",
          "type": "address"
        },
        {
          "internalType": "bool",
          "name": "isCore",
          "type": "bool"
        }
      ],
      "name": "setIsCoreContract",
      "outputs": [],
      "stateMutability": "nonpayable",
      "type": "function"
    },
    {
      "inputs": [],
      "name": "stakingHbbft",
      "outputs": [
        {
          "internalType": "contract IStakingHbbft",
          "name": "",
          "type": "address"
        }
      ],
      "stateMutability": "view",
      "type": "function"
    },
    {
      "inputs": [],
      "name": "statistic",
      "outputs": [
        {
          "internalType": "uint64",
          "name": "total",
          "type": "uint64"
        },
        {
          "internalType": "uint64",
          "name": "accepted",
          "type": "uint64"
        },
        {
          "internalType": "uint64",
          "name": "declined",
          "type": "uint64"
        },
        {
          "internalType": "uint64",
          "name": "canceled",
          "type": "uint64"
        }
      ],
      "stateMutability": "view",
      "type": "function"
    },
    {
      "inputs": [],
      "name": "switchPhase",
      "outputs": [],
      "stateMutability": "nonpayable",
      "type": "function"
    },
    {
      "inputs": [],
      "name": "unfinalizedProposals",
      "outputs": [
        {
          "internalType": "uint256",
          "name": "",
          "type": "uint256"
        }
      ],
      "stateMutability": "view",
      "type": "function"
    },
    {
      "inputs": [],
      "name": "unfinalizedProposalsExist",
      "outputs": [
        {
          "internalType": "bool",
          "name": "",
          "type": "bool"
        }
      ],
      "stateMutability": "view",
      "type": "function"
    },
    {
      "inputs": [],
      "name": "validatorSet",
      "outputs": [
        {
          "internalType": "contract IValidatorSetHbbft",
          "name": "",
          "type": "address"
        }
      ],
      "stateMutability": "view",
      "type": "function"
    },
    {
      "inputs": [
        {
          "internalType": "uint256",
          "name": "proposalId",
          "type": "uint256"
        },
        {
          "internalType": "enum Vote",
          "name": "_vote",
          "type": "uint8"
        }
      ],
      "name": "vote",
      "outputs": [],
      "stateMutability": "nonpayable",
      "type": "function"
    },
    {
      "inputs": [
        {
          "internalType": "uint256",
          "name": "proposalId",
          "type": "uint256"
        },
        {
          "internalType": "enum Vote",
          "name": "_vote",
          "type": "uint8"
        },
        {
          "internalType": "string",
          "name": "reason",
          "type": "string"
        }
      ],
      "name": "voteWithReason",
      "outputs": [],
      "stateMutability": "nonpayable",
      "type": "function"
    },
    {
      "inputs": [
        {
          "internalType": "uint256",
          "name": "",
          "type": "uint256"
        },
        {
          "internalType": "address",
          "name": "",
          "type": "address"
        }
      ],
      "name": "votes",
      "outputs": [
        {
          "internalType": "uint64",
          "name": "timestamp",
          "type": "uint64"
        },
        {
          "internalType": "enum Vote",
          "name": "vote",
          "type": "uint8"
        },
        {
          "internalType": "string",
          "name": "reason",
          "type": "string"
        }
      ],
      "stateMutability": "view",
      "type": "function"
    },
    {
      "stateMutability": "payable",
      "type": "receive"
    }
  ],
  "bytecode": "0x6080604052348015600f57600080fd5b506016601a565b60ca565b7ff0c57e16840df040f15088dc2f81fe391c3923bec73e23a9662efc9c229c6a00805468010000000000000000900460ff161560695760405163f92ee8a960e01b815260040160405180910390fd5b80546001600160401b039081161460c75780546001600160401b0319166001600160401b0390811782556040519081527fc7f505b2f371ae2175ee4913f4499e1f2633a7b5936321eed1cdaeb6115181d29060200160405180910390a15b50565b61412f806100d96000396000f3fe60806040526004361061026e5760003560e01c806395dd7fb911610153578063d22a20cd116100cb578063efa65b481161007f578063fa1f072711610064578063fa1f072714610877578063fe0d94c11461088d578063ff71d677146108ad57600080fd5b8063efa65b481461084c578063f22d23261461086157600080fd5b8063deec4e52116100b0578063deec4e52146107f6578063ec47c47114610816578063ed965ddc1461082c57600080fd5b8063d22a20cd14610797578063d23254b4146107c757600080fd5b8063ab266e1011610122578063be0a4e4b11610107578063be0a4e4b14610734578063c3b66bed1461074a578063c7f758a81461076a57600080fd5b8063ab266e10146106c4578063b131b6a5146106e457600080fd5b806395dd7fb914610632578063a68f34f714610654578063aa72e3b914610681578063ab0eb62d146106af57600080fd5b806331e40733116101e65780637293368d116101b55780639426e2261161019a5780639426e226146105d2578063943e8216146105f2578063950e3e441461061257600080fd5b80637293368d1461059f57806373f12958146105b257600080fd5b806331e40733146104b55780633c5fc711146104d55780635e8815f2146105475780636b6d33da1461056757600080fd5b80631374b22d1161023d5780631840f0ca116102225780631840f0ca146103b15780631b0c27da146104165780632baffa3f1461049157600080fd5b80631374b22d146103595780631536f4721461039157600080fd5b8063013cf08b1461029257806305261aea146102cf57806311693b21146102f15780631243e6cb1461032157600080fd5b3661028d573460036000828254610285919061328a565b925050819055005b600080fd5b34801561029e57600080fd5b506102b26102ad36600461329d565b6108c3565b6040516102c6989796959493929190613349565b60405180910390f35b3480156102db57600080fd5b506102ef6102ea36600461329d565b610aba565b005b3480156102fd57600080fd5b5061031161030c366004613444565b610ccb565b60405190151581526020016102c6565b34801561032d57600080fd5b50600554610341906001600160a01b031681565b6040516001600160a01b0390911681526020016102c6565b34801561036557600080fd5b5061031161037436600461329d565b6000908152600960205260409020546001600160a01b0316151590565b34801561039d57600080fd5b506102ef6103ac366004613523565b610d51565b3480156103bd57600080fd5b506103d16103cc36600461329d565b610e65565b6040516102c6919060006080820190506001600160401b0380845116835280602085015116602084015250604083015160408301526060830151606083015292915050565b34801561042257600080fd5b5061046661043136600461329d565b600b602052600090815260409020805460018201546002909201546001600160401b0380831693600160401b90930416919084565b604080516001600160401b0395861681529490931660208501529183015260608201526080016102c6565b34801561049d57600080fd5b506104a760035481565b6040519081526020016102c6565b3480156104c157600080fd5b506102ef6104d036600461356e565b610ff9565b3480156104e157600080fd5b50600654610514906001600160401b0380821691600160401b8104821691600160801b8204811691600160c01b90041684565b604080516001600160401b03958616815293851660208501529184169183019190915290911660608201526080016102c6565b34801561055357600080fd5b506102ef6105623660046135ec565b61113e565b34801561057357600080fd5b506104a7610582366004613625565b600d60209081526000928352604080842090915290825290205481565b6102ef6105ad36600461384f565b6111c1565b3480156105be57600080fd5b50600154610341906001600160a01b031681565b3480156105de57600080fd5b50600454610341906001600160a01b031681565b3480156105fe57600080fd5b506102ef61060d366004613943565b611653565b34801561061e57600080fd5b506104a761062d366004613968565b61175c565b34801561063e57600080fd5b506106476117a2565b6040516102c69190613a50565b34801561066057600080fd5b5061067461066f36600461329d565b6117fa565b6040516102c69190613a9d565b34801561068d57600080fd5b50610697611c2081565b6040516001600160401b0390911681526020016102c6565b3480156106bb57600080fd5b506102ef611814565b3480156106d057600080fd5b506102ef6106df36600461329d565b611b57565b3480156106f057600080fd5b50600754610724906001600160401b0380821691600160401b8104821691600160801b82041690600160c01b900460ff1684565b6040516102c69493929190613ac0565b34801561074057600080fd5b506104a760115481565b34801561075657600080fd5b506104a761076536600461329d565b611bd3565b34801561077657600080fd5b5061078a61078536600461329d565b611bea565b6040516102c69190613b50565b3480156107a357600080fd5b506103116107b2366004613c7a565b600a6020526000908152604090205460ff1681565b3480156107d357600080fd5b506107e76107e2366004613625565b611ff4565b6040516102c693929190613c97565b34801561080257600080fd5b506102ef610811366004613cc8565b6120ba565b34801561082257600080fd5b506104a76103e881565b34801561083857600080fd5b506104a761084736600461329d565b61233a565b34801561085857600080fd5b5061031161235b565b34801561086d57600080fd5b506104a760025481565b34801561088357600080fd5b506104a760105481565b34801561089957600080fd5b506102ef6108a836600461329d565b612383565b3480156108b957600080fd5b506104a760005481565b600960205260009081526040902080546004820180546001600160a01b03831693600160a01b84046001600160401b031693600160e01b900460ff1692909161090b90613d2c565b80601f016020809104026020016040519081016040528092919081815260200182805461093790613d2c565b80156109845780601f1061095957610100808354040283529160200191610984565b820191906000526020600020905b81548152906001019060200180831161096757829003601f168201915b50505050509080600501805461099990613d2c565b80601f01602080910402602001604051908101604052809291908181526020018280546109c590613d2c565b8015610a125780601f106109e757610100808354040283529160200191610a12565b820191906000526020600020905b8154815290600101906020018083116109f557829003601f168201915b505050505090806006018054610a2790613d2c565b80601f0160208091040260200160405190810160405280929190818152602001828054610a5390613d2c565b8015610aa05780601f10610a7557610100808354040283529160200191610aa0565b820191906000526020600020905b815481529060010190602001808311610a8357829003601f168201915b50505050600783015460089093015491929160ff16905088565b60008181526009602052604090205481906001600160a01b0316610af95760405163986731a160e01b8152600481018290526024015b60405180910390fd5b610b048260036125de565b600082815260096020526040812090610b1e84600161263a565b6000858152600b602090815260409182902090830151815484516fffffffffffffffffffffffffffffffff19909116600160401b6001600160401b039384160267ffffffffffffffff1916179116178155606083015160028201559082015160019091015590506008820154600090610b9a9060ff1683610ccb565b905080610ba8576005610bab565b60045b8354849060ff60e01b1916600160e01b836006811115610bcd57610bcd6132b6565b02179055508015610c27576006805460019190600890610bfe908490600160401b90046001600160401b0316613d60565b92506101000a8154816001600160401b0302191690836001600160401b03160217905550610c72565b6006805460019190601090610c4d908490600160801b90046001600160401b0316613d60565b92506101000a8154816001600160401b0302191690836001600160401b031602179055505b600160106000828254610c859190613d80565b90915550506040518115158152859033907f4a82eb80f2a86beb92f5670422f698264b3511048a29b400a6a1ce684769581e906020015b60405180910390a35050505050565b6000806000610cd8612865565b90506001856002811115610cee57610cee6132b6565b03610d1357612710610d0282611388613d93565b610d0c9190613daa565b9150610d2f565b612710610d2282610ce4613d93565b610d2c9190613daa565b91505b818460600151610d3f919061328a565b84604001511015925050505b92915050565b60008381526009602052604090205483906001600160a01b0316610d8b5760405163986731a160e01b815260048101829052602401610af0565b600084815260096020526040902080546001600160a01b03163314610dc357604051630608c7c960e51b815260040160405180910390fd5b610dce8560006125de565b805460ff60e01b1916600160e01b1781556006805460019190601890610e05908490600160c01b90046001600160401b0316613d60565b92506101000a8154816001600160401b0302191690836001600160401b0316021790555084336001600160a01b03167fd16ff8053e1476416f5be14c32305a3652ac0b182ac04ede8c101d867b75bd148686604051610cbc929190613df5565b60408051608081018252600080825260208201819052918101829052606081019190915260008281526009602052604090205482906001600160a01b0316610ec35760405163986731a160e01b815260048101829052602401610af0565b600083815260096020526040902054600160e01b900460ff166004816006811115610ef057610ef06132b6565b1480610f0d57506005816006811115610f0b57610f0b6132b6565b145b80610f2957506006816006811115610f2757610f276132b6565b145b15610f8657506000838152600b6020908152604091829020825160808101845281546001600160401b038082168352600160401b909104169281019290925260018101549282019290925260029091015460608201529150610ff3565b6003816006811115610f9a57610f9a6132b6565b03610fb257610faa84600161263a565b925050610ff3565b6002816006811115610fc657610fc66132b6565b03610fd657610faa84600061263a565b838160405163605cfad560e01b8152600401610af0929190613e11565b50919050565b60008481526009602052604090205484906001600160a01b03166110335760405163986731a160e01b815260048101829052602401610af0565b600180600754600160c01b900460ff166001811115611054576110546132b6565b14611080576007546040516378030af960e11b8152610af091600160c01b900460ff1690600401613e25565b611089336128d8565b6110a85760405163fb426bed60e01b8152336004820152602401610af0565b60003390506110ef81888888888080601f016020809104026020016040519081016040528093929190818152602001838380828437600092019190915250612a3c92505050565b86816001600160a01b03167fde85a12bb3f2d766e67cf54febc7c53ae9c500da072f8fdfb34aba5ca5525ebf88888860405161112d93929190613e33565b60405180910390a350505050505050565b33301461115e576040516354348f0360e01b815260040160405180910390fd5b6001600160a01b0382166000818152600a6020908152604091829020805460ff19168515159081179091558251938452908301527fc73e95af540565c649d9453cb23b01f505752b94f04ff81b52ce528047232f23910160405180910390a15050565b600080600754600160c01b900460ff1660018111156111e2576111e26132b6565b1461120e576007546040516378030af960e11b8152610af091600160c01b900460ff1690600401613e25565b868560005b825181101561136857600a600084838151811061123257611232613e56565b6020908102919091018101516001600160a01b031682528101919091526040016000205460ff16156113605760008061128d84848151811061127657611276613e56565b602002602001015160208101516024909101519091565b915091508483815181106112a3576112a3613e56565b602090810291909101015160405163ba08d23760e01b81527fffffffff0000000000000000000000000000000000000000000000000000000084166004820152602481018390526001600160a01b039091169063ba08d23790604401602060405180830381865afa15801561131c573d6000803e3d6000fd5b505050506040513d601f19601f820116820180604052508101906113409190613e6c565b61135d57604051638e0ad5c160e01b815260040160405180910390fd5b50505b600101611213565b5061137161235b565b1561138f5760405163fd081cf960e01b815260040160405180910390fd5b600054601154146113a1576000546011555b875189511415806113b457508651895114155b806113be57508851155b156113dc5760405163a9cb9e0d60e01b815260040160405180910390fd5b60025434146113fe5760405163356680b760e01b815260040160405180910390fd5b6008546103e81161142257604051633f2ad2e160e11b815260040160405180910390fd5b60006114308a8a8a8961175c565b6000818152600960205260409020549091506001600160a01b03161561146c5760405163d3df438360e01b815260048101829052602401610af0565b600081815260096020908152604090912080547fffffff00ffffffffffffffff0000000000000000000000000000000000000000163360ff60e01b1981169190911782558c5190926114c59160018401918f0190613081565b508a516114db90600283019060208e01906130f3565b5089516114f190600383019060208d019061312e565b50600481016115008a82613ed9565b506005810161150f8982613ed9565b506006810161151e8882613ed9565b5060005460078201556115318c8b612b4d565b60088201805460ff1916600183600281111561154f5761154f6132b6565b0217905550600880546001818101835560009283527ff3f7a9fe364faab93b216da50a3214154f22a0a2b415b23a84c8169e8b636ee390910185905560068054919290916115a79084906001600160401b0316613d60565b92506101000a8154816001600160401b0302191690836001600160401b031602179055506001601060008282546115de919061328a565b90915550506001546115f9906001600160a01b031634612be1565b82826001600160a01b03167f0862e0d24b6284416802acfafc53281043e0ef028202f20e81e6e3c133e78a888e8e8e8e8e8e60405161163d96959493929190613f98565b60405180910390a3505050505050505050505050565b60008281526009602052604090205482906001600160a01b031661168d5760405163986731a160e01b815260048101829052602401610af0565b600180600754600160c01b900460ff1660018111156116ae576116ae6132b6565b146116da576007546040516378030af960e11b8152610af091600160c01b900460ff1690600401613e25565b6116e3336128d8565b6117025760405163fb426bed60e01b8152336004820152602401610af0565b600033905061172281868660405180602001604052806000815250612a3c565b84816001600160a01b03167f343f24b88bd3789b60993251090e2184e0e4ae199d79b14a510fc1a08b51f51486604051610cbc919061401a565b6000808280519060200120905085858583604051602001611780949392919061402d565b60408051601f1981840301815291905280516020909101209695505050505050565b606060088054806020026020016040519081016040528092919081815260200182805480156117f057602002820191906000526020600020905b8154815260200190600101908083116117dc575b5050505050905090565b6000818152600f60205260409020606090610d4b90612c6d565b600754600160401b90046001600160401b031642101561183057565b600080600754600160c01b900460ff166001811115611851576118516132b6565b1461185d576000611860565b60015b60075490915060009061188490600160401b90046001600160401b03166001613d60565b6007805467ffffffffffffffff19166001600160401b03831617905590506118ae611c2082613d60565b600780546001600160401b0392909216600160401b026fffffffffffffffff00000000000000001983168117825584927fffffffffffffff00ffffffffffffffffffffffffffffffffffffffffffffffff9091167fffffffffffffff00ffffffffffffffff0000000000000000ffffffffffffffff90911617600160c01b83600181111561193e5761193e6132b6565b021790555060006001836001811115611959576119596132b6565b14611965576003611968565b60025b905060006003826006811115611980576119806132b6565b14905060005b600854811015611a4c576000600882815481106119a5576119a5613e56565b6000918252602080832090910154808352600990915260409091208054919250859160ff60e01b1916600160e01b8360068111156119e5576119e56132b6565b02179055508215611a4357600754600082815260096020526040902080547fffffffff0000000000000000ffffffffffffffffffffffffffffffffffffffff16600160801b9092046001600160401b0316600160a01b029190911790555b50600101611986565b508015611aba57600754611a6f90600160801b90046001600160401b0316612c7a565b6007805460019190601090611a95908490600160801b90046001600160401b0316613d60565b92506101000a8154816001600160401b0302191690836001600160401b031602179055505b6000846001811115611ace57611ace6132b6565b03611af7576001600080828254611ae5919061328a565b90915550611af7905060086000613180565b6007546040517f4887f063ba2113285aba0e893c372b65da5e458b463fb01fdf1fe0d266acff0e91611b499160ff600160c01b830416916001600160401b0380821692600160401b9092041690614078565b60405180910390a150505050565b333014611b77576040516354348f0360e01b815260040160405180910390fd5b80600003611b985760405163a9cb9e0d60e01b815260040160405180910390fd5b60028190556040518181527f7d6e1cf0de9a5ba39e02e05972eb08471682fc361b20458a3f200f7bf087b5359060200160405180910390a150565b6000818152600f60205260408120610d4b90612d78565b611bf261319e565b60008281526009602090815260409182902082516101608101845281546001600160a01b0381168252600160a01b81046001600160401b03169382019390935292909190830190600160e01b900460ff166006811115611c5457611c546132b6565b6006811115611c6557611c656132b6565b815260200160018201805480602002602001604051908101604052809291908181526020018280548015611cc257602002820191906000526020600020905b81546001600160a01b03168152600190910190602001808311611ca4575b5050505050815260200160028201805480602002602001604051908101604052809291908181526020018280548015611d1a57602002820191906000526020600020905b815481526020019060010190808311611d06575b5050505050815260200160038201805480602002602001604051908101604052809291908181526020016000905b82821015611df4578382906000526020600020018054611d6790613d2c565b80601f0160208091040260200160405190810160405280929190818152602001828054611d9390613d2c565b8015611de05780601f10611db557610100808354040283529160200191611de0565b820191906000526020600020905b815481529060010190602001808311611dc357829003601f168201915b505050505081526020019060010190611d48565b505050508152602001600482018054611e0c90613d2c565b80601f0160208091040260200160405190810160405280929190818152602001828054611e3890613d2c565b8015611e855780601f10611e5a57610100808354040283529160200191611e85565b820191906000526020600020905b815481529060010190602001808311611e6857829003601f168201915b50505050508152602001600582018054611e9e90613d2c565b80601f0160208091040260200160405190810160405280929190818152602001828054611eca90613d2c565b8015611f175780601f10611eec57610100808354040283529160200191611f17565b820191906000526020600020905b815481529060010190602001808311611efa57829003601f168201915b50505050508152602001600682018054611f3090613d2c565b80601f0160208091040260200160405190810160405280929190818152602001828054611f5c90613d2c565b8015611fa95780601f10611f7e57610100808354040283529160200191611fa9565b820191906000526020600020905b815481529060010190602001808311611f8c57829003601f168201915b505050918352505060078201546020820152600882015460409091019060ff166002811115611fda57611fda6132b6565b6002811115611feb57611feb6132b6565b90525092915050565b600c602090815260009283526040808420909152908252902080546001820180546001600160401b03831693600160401b90930460ff1692919061203790613d2c565b80601f016020809104026020016040519081016040528092919081815260200182805461206390613d2c565b80156120b05780601f10612085576101008083540402835291602001916120b0565b820191906000526020600020905b81548152906001019060200180831161209357829003601f168201915b5050505050905083565b7ff0c57e16840df040f15088dc2f81fe391c3923bec73e23a9662efc9c229c6a008054600160401b810460ff1615906001600160401b03166000811580156120ff5750825b90506000826001600160401b0316600114801561211b5750303b155b905081158015612129575080155b156121475760405163f92ee8a960e01b815260040160405180910390fd5b845467ffffffffffffffff19166001178555831561217657845468ff00000000000000001916600160401b1785555b6001600160a01b038a16158061219357506001600160a01b038816155b806121a557506001600160a01b038916155b806121ae575086155b156121cc5760405163a9cb9e0d60e01b815260040160405180910390fd5b42866001600160401b031610156121f6576040516307f5e89560e51b815260040160405180910390fd5b6121fe612d82565b6004805473ffffffffffffffffffffffffffffffffffffffff199081166001600160a01b038d8116919091179092556005805482168c841617905560018054909116918a1691909117905560028790556007805467ffffffffffffffff19166001600160401b038816179055612276611c2087613d60565b600780546001600160401b0392909216600160401b027fffffffffffffff000000000000000000ffffffffffffffffffffffffffffffff167fffffffffffffff0000000000000000000000000000000000ffffffffffffffff90921691909117600160801b1790556001600055831561232e57845468ff000000000000000019168555604051600181527fc7f505b2f371ae2175ee4913f4499e1f2633a7b5936321eed1cdaeb6115181d29060200160405180910390a15b50505050505050505050565b6008818154811061234a57600080fd5b600091825260209091200154905081565b600080546011541415801561237257506000601054115b1561237d5750600190565b50600090565b61238b612d94565b60008181526009602052604090205481906001600160a01b03166123c55760405163986731a160e01b815260048101829052602401610af0565b6123d08260046125de565b60008281526009602052604090208054600690829060ff60e01b1916600160e01b8302179055506125838160010180548060200260200160405190810160405280929190818152602001828054801561245257602002820191906000526020600020905b81546001600160a01b03168152600190910190602001808311612434575b5050505050826002018054806020026020016040519081016040528092919081815260200182805480156124a557602002820191906000526020600020905b815481526020019060010190808311612491575b505050505083600301805480602002602001604051908101604052809291908181526020016000905b8282101561257a5783829060005260206000200180546124ed90613d2c565b80601f016020809104026020016040519081016040528092919081815260200182805461251990613d2c565b80156125665780601f1061253b57610100808354040283529160200191612566565b820191906000526020600020905b81548152906001019060200180831161254957829003601f168201915b5050505050815260200190600101906124ce565b50505050612dde565b604051839033907f7bfd03e44f31b1867e10c41d419cd8073b4719d321ccc5c3a3c79ac2babab3c390600090a350506125db60017f9b779b17422d0df92223018b32b4d1fa46e071723d6817e2486d003becc55f0055565b50565b60006125e983611bea565b604001519050816006811115612601576126016132b6565b816006811115612613576126136132b6565b1461263557828160405163605cfad560e01b8152600401610af0929190613e11565b505050565b60408051608080820183526000808352602080840182905283850182905260608085018390528783526009825285832054865194850187528385529184018390529483018290529382018190529192600160a01b90046001600160401b0316916126a3866117fa565b905060005b815181101561285a5760008282815181106126c5576126c5613e56565b602002602001015190506000871561270a57506001600160401b0385166000908152600d602090815260408083206001600160a01b038516845290915290205461277b565b600554604051632933f0eb60e11b81526001600160a01b03848116600483015290911690635267e1d690602401602060405180830381865afa158015612754573d6000803e3d6000fd5b505050506040513d601f19601f8201168201806040525081019061277891906140a7565b90505b6000898152600c602090815260408083206001600160a01b0386168452909152902054600160401b900460ff1660028160028111156127bc576127bc6132b6565b036127fc576001866000018181516127d49190613d60565b6001600160401b03169052506040860180518391906127f490839061328a565b90525061284c565b6001816002811115612810576128106132b6565b0361284c576001866020018181516128289190613d60565b6001600160401b031690525060608601805183919061284890839061328a565b9052505b5050508060010190506126a8565b509095945050505050565b6005546040805163567e98f960e01b815290516000926001600160a01b03169163567e98f99160048083019260209291908290030181865afa1580156128af573d6000803e3d6000fd5b505050506040513d601f19601f820116820180604052508101906128d391906140a7565b905090565b600480546040516253517560e01b81526001600160a01b0384811693820193909352600092839216906253517590602401602060405180830381865afa158015612926573d6000803e3d6000fd5b505050506040513d601f19601f8201168201806040525081019061294a91906140c0565b6004805460405163a0d16cad60e01b81526001600160a01b0380851693820193909352929350169063a0d16cad90602401602060405180830381865afa158015612998573d6000803e3d6000fd5b505050506040513d601f19601f820116820180604052508101906129bc9190613e6c565b8015612a35575060048054604051635491295760e11b81526001600160a01b038481169382019390935291169063a92252ae90602401602060405180830381865afa158015612a0f573d6000803e3d6000fd5b505050506040513d601f19601f82011682018060405250810190612a339190613e6c565b155b9392505050565b612a478360026125de565b600754600160801b90046001600160401b03166000908152600e60205260409020612a729085612f2b565b506000838152600f60205260409020612a8b9085612f2b565b506040518060600160405280426001600160401b03168152602001836002811115612ab857612ab86132b6565b815260209081018390526000858152600c825260408082206001600160a01b038916835283529020825181546001600160401b0390911667ffffffffffffffff19821681178355928401519192839168ffffffffffffffffff191617600160401b836002811115612b2b57612b2b6132b6565b021790555060408201516001820190612b449082613ed9565b50505050505050565b6000805b8251811015612bda57828181518110612b6c57612b6c613e56565b60200260200101515160000315612bd257600a6000858381518110612b9357612b93613e56565b6020908102919091018101516001600160a01b031682528101919091526040016000205460ff1615612bc85760029150612bd2565b6001915050610d4b565b600101612b51565b5092915050565b6000826001600160a01b03168260405160006040518083038185875af1925050503d8060008114612c2e576040519150601f19603f3d011682016040523d82523d6000602084013e612c33565b606091505b5050905080612635576040516317e3057d60e31b81523060048201526001600160a01b038416602482015260448101839052606401610af0565b60606000612a3583612f40565b6001600160401b0381166000908152600e60205260408120612c9b90612c6d565b905060005b8151811015612635576000828281518110612cbd57612cbd613e56565b6020908102919091010151600554604051632933f0eb60e11b81526001600160a01b03808416600483015292935060009290911690635267e1d690602401602060405180830381865afa158015612d18573d6000803e3d6000fd5b505050506040513d601f19601f82011682018060405250810190612d3c91906140a7565b6001600160401b0386166000908152600d602090815260408083206001600160a01b039096168352949052929092209190915550600101612ca0565b6000610d4b825490565b612d8a612f9c565b612d92612fe5565b565b7f9b779b17422d0df92223018b32b4d1fa46e071723d6817e2486d003becc55f00805460011901612dd857604051633ee5aeb560e01b815260040160405180910390fd5b60029055565b60005b8351811015612eff57600080858381518110612dff57612dff613e56565b60200260200101516001600160a01b0316858481518110612e2257612e22613e56565b6020026020010151858581518110612e3c57612e3c613e56565b6020026020010151604051612e5191906140dd565b60006040518083038185875af1925050503d8060008114612e8e576040519150601f19603f3d011682016040523d82523d6000602084013e612e93565b606091505b5091509150612ea28282612fed565b50848381518110612eb557612eb5613e56565b6020026020010151600014612ef557848381518110612ed657612ed6613e56565b602002602001015160036000828254612eef9190613d80565b90915550505b5050600101612de1565b50505050565b60017f9b779b17422d0df92223018b32b4d1fa46e071723d6817e2486d003becc55f0055565b6000612a35836001600160a01b038416613009565b606081600001805480602002602001604051908101604052809291908181526020018280548015612f9057602002820191906000526020600020905b815481526020019060010190808311612f7c575b50505050509050919050565b7ff0c57e16840df040f15088dc2f81fe391c3923bec73e23a9662efc9c229c6a0054600160401b900460ff16612d9257604051631afcd79f60e31b815260040160405180910390fd5b612f05612f9c565b60608261300257612ffd82613058565b610d4b565b5080610d4b565b600081815260018301602052604081205461305057508154600181810184556000848152602080822090930184905584548482528286019093526040902091909155610d4b565b506000610d4b565b8051156130685780518082602001fd5b604051630a12f52160e11b815260040160405180910390fd5b8280548282559060005260206000209081019282156130e3579160200282015b828111156130e3578251825473ffffffffffffffffffffffffffffffffffffffff19166001600160a01b039091161782556020909201916001909101906130a1565b506130ef929150613208565b5090565b8280548282559060005260206000209081019282156130e3579160200282015b828111156130e3578251825591602001919060010190613113565b828054828255906000526020600020908101928215613174579160200282015b8281111561317457825182906131649082613ed9565b509160200191906001019061314e565b506130ef92915061321d565b50805460008255906000526020600020908101906125db9190613208565b6040805161016081018252600080825260208201819052909182019081526020016060815260200160608152602001606081526020016060815260200160608152602001606081526020016000815260200160006002811115613203576132036132b6565b905290565b5b808211156130ef5760008155600101613209565b808211156130ef576000613231828261323a565b5060010161321d565b50805461324690613d2c565b6000825580601f10613256575050565b601f0160209004906000526020600020908101906125db9190613208565b634e487b7160e01b600052601160045260246000fd5b80820180821115610d4b57610d4b613274565b6000602082840312156132af57600080fd5b5035919050565b634e487b7160e01b600052602160045260246000fd5b600781106132dc576132dc6132b6565b9052565b60005b838110156132fb5781810151838201526020016132e3565b50506000910152565b6000815180845261331c8160208601602086016132e0565b601f01601f19169290920160200192915050565b600381106125db576125db6132b6565b6132dc81613330565b60006101006001600160a01b038b1683526001600160401b038a166020840152613376604084018a6132cc565b80606084015261338881840189613304565b9050828103608084015261339c8188613304565b905082810360a08401526133b08187613304565b9150508360c08301526133c283613330565b8260e08301529998505050505050505050565b600381106125db57600080fd5b634e487b7160e01b600052604160045260246000fd5b604051601f8201601f191681016001600160401b0381118282101715613420576134206133e2565b604052919050565b80356001600160401b038116811461343f57600080fd5b919050565b60008082840360a081121561345857600080fd5b8335613463816133d5565b92506080601f198201121561347757600080fd5b50604051608081018181106001600160401b038211171561349a5761349a6133e2565b6040526134a960208501613428565b81526134b760408501613428565b60208201526060840135604082015260808401356060820152809150509250929050565b60008083601f8401126134ed57600080fd5b5081356001600160401b0381111561350457600080fd5b60208301915083602082850101111561351c57600080fd5b9250929050565b60008060006040848603121561353857600080fd5b8335925060208401356001600160401b0381111561355557600080fd5b613561868287016134db565b9497909650939450505050565b6000806000806060858703121561358457600080fd5b843593506020850135613596816133d5565b925060408501356001600160401b038111156135b157600080fd5b6135bd878288016134db565b95989497509550505050565b6001600160a01b03811681146125db57600080fd5b80151581146125db57600080fd5b600080604083850312156135ff57600080fd5b823561360a816135c9565b9150602083013561361a816135de565b809150509250929050565b6000806040838503121561363857600080fd5b82359150602083013561361a816135c9565b60006001600160401b03821115613663576136636133e2565b5060051b60200190565b600082601f83011261367e57600080fd5b8135602061369361368e8361364a565b6133f8565b8083825260208201915060208460051b8701019350868411156136b557600080fd5b602086015b848110156136da5780356136cd816135c9565b83529183019183016136ba565b509695505050505050565b600082601f8301126136f657600080fd5b8135602061370661368e8361364a565b8083825260208201915060208460051b87010193508684111561372857600080fd5b602086015b848110156136da578035835291830191830161372d565b60006001600160401b0383111561375d5761375d6133e2565b613770601f8401601f19166020016133f8565b905082815283838301111561378457600080fd5b828260208301376000602084830101529392505050565b600082601f8301126137ac57600080fd5b813560206137bc61368e8361364a565b82815260059290921b840181019181810190868411156137db57600080fd5b8286015b848110156136da5780356001600160401b038111156137fe5760008081fd5b8701603f810189136138105760008081fd5b613821898683013560408401613744565b8452509183019183016137df565b600082601f83011261384057600080fd5b612a3583833560208501613744565b60008060008060008060c0878903121561386857600080fd5b86356001600160401b038082111561387f57600080fd5b61388b8a838b0161366d565b975060208901359150808211156138a157600080fd5b6138ad8a838b016136e5565b965060408901359150808211156138c357600080fd5b6138cf8a838b0161379b565b955060608901359150808211156138e557600080fd5b6138f18a838b0161382f565b9450608089013591508082111561390757600080fd5b6139138a838b0161382f565b935060a089013591508082111561392957600080fd5b5061393689828a0161382f565b9150509295509295509295565b6000806040838503121561395657600080fd5b82359150602083013561361a816133d5565b6000806000806080858703121561397e57600080fd5b84356001600160401b038082111561399557600080fd5b6139a18883890161366d565b955060208701359150808211156139b757600080fd5b6139c3888389016136e5565b945060408701359150808211156139d957600080fd5b6139e58883890161379b565b935060608701359150808211156139fb57600080fd5b50613a088782880161382f565b91505092959194509250565b60008151808452602080850194506020840160005b83811015613a4557815187529582019590820190600101613a29565b509495945050505050565b602081526000612a356020830184613a14565b60008151808452602080850194506020840160005b83811015613a455781516001600160a01b031687529582019590820190600101613a78565b602081526000612a356020830184613a63565b600281106132dc576132dc6132b6565b6001600160401b03858116825284811660208301528316604082015260808101613aed6060830184613ab0565b95945050505050565b60008282518085526020808601955060208260051b8401016020860160005b84811015613b4357601f19868403018952613b31838351613304565b98840198925090830190600101613b15565b5090979650505050505050565b60208152613b6a6020820183516001600160a01b03169052565b60006020830151613b8660408401826001600160401b03169052565b506040830151613b9960608401826132cc565b506060830151610160806080850152613bb6610180850183613a63565b91506080850151601f19808685030160a0870152613bd48483613a14565b935060a08701519150808685030160c0870152613bf18483613af6565b935060c08701519150808685030160e0870152613c0e8483613304565b935060e08701519150610100818786030181880152613c2d8584613304565b945080880151925050610120818786030181880152613c4c8584613304565b90880151610140888101919091528801519094509150613c70905082860182613340565b5090949350505050565b600060208284031215613c8c57600080fd5b8135612a35816135c9565b6001600160401b0384168152613cac83613330565b826020820152606060408201526000613aed6060830184613304565b600080600080600060a08688031215613ce057600080fd5b8535613ceb816135c9565b94506020860135613cfb816135c9565b93506040860135613d0b816135c9565b925060608601359150613d2060808701613428565b90509295509295909350565b600181811c90821680613d4057607f821691505b602082108103610ff357634e487b7160e01b600052602260045260246000fd5b6001600160401b03818116838216019080821115612bda57612bda613274565b81810381811115610d4b57610d4b613274565b8082028115828204841417610d4b57610d4b613274565b600082613dc757634e487b7160e01b600052601260045260246000fd5b500490565b81835281816020850137506000828201602090810191909152601f909101601f19169091010190565b602081526000613e09602083018486613dcc565b949350505050565b82815260408101612a3560208301846132cc565b60208101610d4b8284613ab0565b613e3c84613330565b838152604060208201526000613aed604083018486613dcc565b634e487b7160e01b600052603260045260246000fd5b600060208284031215613e7e57600080fd5b8151612a35816135de565b601f821115612635576000816000526020600020601f850160051c81016020861015613eb25750805b601f850160051c820191505b81811015613ed157828155600101613ebe565b505050505050565b81516001600160401b03811115613ef257613ef26133e2565b613f0681613f008454613d2c565b84613e89565b602080601f831160018114613f3b5760008415613f235750858301515b600019600386901b1c1916600185901b178555613ed1565b600085815260208120601f198616915b82811015613f6a57888601518255948401946001909101908401613f4b565b5085821015613f885787850151600019600388901b60f8161c191681555b5050505050600190811b01905550565b60c081526000613fab60c0830189613a63565b8281036020840152613fbd8189613a14565b90508281036040840152613fd18188613af6565b90508281036060840152613fe58187613304565b90508281036080840152613ff98186613304565b905082810360a084015261400d8185613304565b9998505050505050505050565b6020810161402783613330565b91905290565b6080815260006140406080830187613a63565b82810360208401526140528187613a14565b905082810360408401526140668186613af6565b91505082606083015295945050505050565b606081016140868286613ab0565b6001600160401b038085166020840152808416604084015250949350505050565b6000602082840312156140b957600080fd5b5051919050565b6000602082840312156140d257600080fd5b8151612a35816135c9565b600082516140ef8184602087016132e0565b919091019291505056fea2646970667358221220891338e3c0ab6d0c333b86a4dd48793461071501832c64206934820a49818bb264736f6c63430008190033",
  "linkReferences": {},
  "deployedLinkReferences": {}
}