{
    "_format": "hh-sol-artifact-1",
    "contractName": "DMDAggregator",
    "sourceName": "contracts/Aggregator.sol",
    "abi": [
        {
            "inputs": [
                {
                    "internalType": "address",
                    "name": "initialOwner",
                    "type": "address"
                },
                {
                    "internalType": "address",
                    "name": "_st",
                    "type": "address"
                },
                {
                    "internalType": "address",
                    "name": "_vs",
                    "type": "address"
                },
                {
                    "internalType": "address",
                    "name": "_tp",
                    "type": "address"
                }
            ],
            "stateMutability": "nonpayable",
            "type": "constructor"
        },
        {
            "inputs": [
                {
                    "internalType": "address",
                    "name": "owner",
                    "type": "address"
                }
            ],
            "name": "OwnableInvalidOwner",
            "type": "error"
        },
        {
            "inputs": [
                {
                    "internalType": "address",
                    "name": "account",
                    "type": "address"
                }
            ],
            "name": "OwnableUnauthorizedAccount",
            "type": "error"
        },
        {
            "anonymous": false,
            "inputs": [
                {
                    "indexed": true,
                    "internalType": "address",
                    "name": "previousOwner",
                    "type": "address"
                },
                {
                    "indexed": true,
                    "internalType": "address",
                    "name": "newOwner",
                    "type": "address"
                }
            ],
            "name": "OwnershipTransferred",
            "type": "event"
        },
        {
            "inputs": [],
            "name": "getAllPools",
            "outputs": [
                {
                    "components": [
                        {
                            "internalType": "address[]",
                            "name": "stActivePools",
                            "type": "address[]"
                        },
                        {
                            "internalType": "address[]",
                            "name": "stInActivePools",
                            "type": "address[]"
                        },
                        {
                            "internalType": "address[]",
                            "name": "stPoolsToBeElected",
                            "type": "address[]"
                        },
                        {
                            "internalType": "address[]",
                            "name": "vsValidatorsMiningAddresses",
                            "type": "address[]"
                        },
                        {
                            "internalType": "address[]",
                            "name": "vsValidatorsStakingAddresses",
                            "type": "address[]"
                        },
                        {
                            "internalType": "address[]",
                            "name": "vsPendingValidatorsMiningAddresses",
                            "type": "address[]"
                        },
                        {
                            "internalType": "address[]",
                            "name": "vsPendingValidatorsStakingAddresses",
                            "type": "address[]"
                        }
                    ],
                    "internalType": "struct DMDAggregator.Pools",
                    "name": "pools",
                    "type": "tuple"
                }
            ],
            "stateMutability": "view",
            "type": "function"
        },
        {
            "inputs": [
                {
                    "internalType": "address[]",
                    "name": "delegators",
                    "type": "address[]"
                },
                {
                    "internalType": "address",
                    "name": "poolAddress",
                    "type": "address"
                }
            ],
            "name": "getDelegationsData",
            "outputs": [
                {
                    "components": [
                        {
                            "internalType": "address",
                            "name": "delegator",
                            "type": "address"
                        },
                        {
                            "internalType": "uint256",
                            "name": "delegatedAmount",
                            "type": "uint256"
                        }
                    ],
                    "internalType": "struct DMDAggregator.DelegateData[]",
                    "name": "_delegatesData",
                    "type": "tuple[]"
                },
                {
                    "internalType": "uint256",
                    "name": "_ownStake",
                    "type": "uint256"
                },
                {
                    "internalType": "uint256",
                    "name": "_candidateStake",
                    "type": "uint256"
                }
            ],
            "stateMutability": "view",
            "type": "function"
        },
        {
            "inputs": [],
            "name": "getGlobals",
            "outputs": [
                {
                    "components": [
                        {
                            "internalType": "uint256",
                            "name": "deltaPot",
                            "type": "uint256"
                        },
                        {
                            "internalType": "uint256",
                            "name": "reinsertPot",
                            "type": "uint256"
                        },
                        {
                            "internalType": "uint256",
                            "name": "keygenRound",
                            "type": "uint256"
                        },
                        {
                            "internalType": "uint256",
                            "name": "stakingEpoch",
                            "type": "uint256"
                        },
                        {
                            "internalType": "uint256",
                            "name": "minimumGasPrice",
                            "type": "uint256"
                        },
                        {
                            "internalType": "uint256",
                            "name": "candidateMinStake",
                            "type": "uint256"
                        },
                        {
                            "internalType": "uint256",
                            "name": "delegatorMinStake",
                            "type": "uint256"
                        },
                        {
                            "internalType": "uint256",
                            "name": "stakingEpochStartTime",
                            "type": "uint256"
                        },
                        {
                            "internalType": "uint256",
                            "name": "stakingEpochStartBlock",
                            "type": "uint256"
                        },
                        {
                            "internalType": "bool",
                            "name": "areStakeAndWithdrawAllowed",
                            "type": "bool"
                        },
                        {
                            "internalType": "uint256",
                            "name": "stakingFixedEpochEndTime",
                            "type": "uint256"
                        },
                        {
                            "internalType": "uint256",
                            "name": "stakingFixedEpochDuration",
                            "type": "uint256"
                        },
                        {
                            "internalType": "uint256",
                            "name": "stakingWithdrawDisallowPeriod",
                            "type": "uint256"
                        }
                    ],
                    "internalType": "struct DMDAggregator.GlobalsData",
                    "name": "_globalsData",
                    "type": "tuple"
                }
            ],
            "stateMutability": "view",
            "type": "function"
        },
        {
            "inputs": [
                {
                    "internalType": "address[]",
                    "name": "_sAs",
                    "type": "address[]"
                }
            ],
            "name": "getPoolsData",
            "outputs": [
                {
                    "components": [
                        {
                            "internalType": "address",
                            "name": "miningAddress",
                            "type": "address"
                        },
                        {
                            "internalType": "uint256",
                            "name": "availableSince",
                            "type": "uint256"
                        },
                        {
                            "internalType": "bytes",
                            "name": "publicKey",
                            "type": "bytes"
                        },
                        {
                            "internalType": "address[]",
                            "name": "delegators",
                            "type": "address[]"
                        },
                        {
                            "internalType": "enum IValidatorSetHbbft.KeyGenMode",
                            "name": "keygenMode",
                            "type": "uint8"
                        },
                        {
                            "internalType": "uint256",
                            "name": "stakedAmountTotal",
                            "type": "uint256"
                        }
                    ],
                    "internalType": "struct DMDAggregator.PoolData[]",
                    "name": "poolsData",
                    "type": "tuple[]"
                }
            ],
            "stateMutability": "view",
            "type": "function"
        },
        {
            "inputs": [
                {
                    "internalType": "address[]",
                    "name": "miningAddresses",
                    "type": "address[]"
                }
            ],
            "name": "getStakingAddresses",
            "outputs": [
                {
                    "internalType": "address[]",
                    "name": "",
                    "type": "address[]"
                }
            ],
            "stateMutability": "view",
            "type": "function"
        },
        {
            "inputs": [
                {
                    "internalType": "address",
                    "name": "_user",
                    "type": "address"
                },
                {
                    "internalType": "address[]",
                    "name": "_pools",
                    "type": "address[]"
                }
            ],
            "name": "getUserOrderedWithdraws",
            "outputs": [
                {
                    "components": [
                        {
                            "internalType": "address",
                            "name": "pool",
                            "type": "address"
                        },
                        {
                            "internalType": "uint256",
                            "name": "orderedAmount",
                            "type": "uint256"
                        },
                        {
                            "internalType": "uint256",
                            "name": "withdrawEpoch",
                            "type": "uint256"
                        }
                    ],
                    "internalType": "struct DMDAggregator.OrderedWithdrawData[]",
                    "name": "_stakesData",
                    "type": "tuple[]"
                }
            ],
            "stateMutability": "view",
            "type": "function"
        },
        {
            "inputs": [
                {
                    "internalType": "address",
                    "name": "_user",
                    "type": "address"
                },
                {
                    "internalType": "address[]",
                    "name": "_pools",
                    "type": "address[]"
                }
            ],
            "name": "getUserStakes",
            "outputs": [
                {
                    "components": [
                        {
                            "internalType": "address",
                            "name": "pool",
                            "type": "address"
                        },
                        {
                            "internalType": "uint256",
                            "name": "myStakedAmount",
                            "type": "uint256"
                        },
                        {
                            "internalType": "uint256",
                            "name": "stakedAmountTotal",
                            "type": "uint256"
                        }
                    ],
                    "internalType": "struct DMDAggregator.StakeData[]",
                    "name": "_stakesData",
                    "type": "tuple[]"
                }
            ],
            "stateMutability": "view",
            "type": "function"
        },
        {
            "inputs": [],
            "name": "owner",
            "outputs": [
                {
                    "internalType": "address",
                    "name": "",
                    "type": "address"
                }
            ],
            "stateMutability": "view",
            "type": "function"
        },
        {
            "inputs": [],
            "name": "renounceOwnership",
            "outputs": [],
            "stateMutability": "nonpayable",
            "type": "function"
        },
        {
            "inputs": [
                {
                    "internalType": "address",
                    "name": "_br",
                    "type": "address"
                }
            ],
            "name": "setBlockRewardContract",
            "outputs": [],
            "stateMutability": "nonpayable",
            "type": "function"
        },
        {
            "inputs": [
                {
                    "internalType": "address",
                    "name": "_kh",
                    "type": "address"
                }
            ],
            "name": "setKeygenHistoryContract",
            "outputs": [],
            "stateMutability": "nonpayable",
            "type": "function"
        },
        {
            "inputs": [
                {
                    "internalType": "address",
                    "name": "_st",
                    "type": "address"
                }
            ],
            "name": "setStakingContract",
            "outputs": [],
            "stateMutability": "nonpayable",
            "type": "function"
        },
        {
            "inputs": [
                {
                    "internalType": "address",
                    "name": "_tp",
                    "type": "address"
                }
            ],
            "name": "setTxPermissionContract",
            "outputs": [],
            "stateMutability": "nonpayable",
            "type": "function"
        },
        {
            "inputs": [
                {
                    "internalType": "address",
                    "name": "_vs",
                    "type": "address"
                }
            ],
            "name": "setValidatorsSetContract",
            "outputs": [],
            "stateMutability": "nonpayable",
            "type": "function"
        },
        {
            "inputs": [
                {
                    "internalType": "address",
                    "name": "newOwner",
                    "type": "address"
                }
            ],
            "name": "transferOwnership",
            "outputs": [],
            "stateMutability": "nonpayable",
            "type": "function"
        }
    ],
    "bytecode": "0x608060405234801561001057600080fd5b5060405161371f38038061371f8339818101604052810190610032919061044a565b83600073ffffffffffffffffffffffffffffffffffffffff168173ffffffffffffffffffffffffffffffffffffffff16036100a55760006040517f1e4fbdf700000000000000000000000000000000000000000000000000000000815260040161009c91906104c0565b60405180910390fd5b6100b48161032360201b60201c565b5082600160006101000a81548173ffffffffffffffffffffffffffffffffffffffff021916908373ffffffffffffffffffffffffffffffffffffffff16021790555080600260006101000a81548173ffffffffffffffffffffffffffffffffffffffff021916908373ffffffffffffffffffffffffffffffffffffffff16021790555081600560006101000a81548173ffffffffffffffffffffffffffffffffffffffff021916908373ffffffffffffffffffffffffffffffffffffffff160217905550600560009054906101000a900473ffffffffffffffffffffffffffffffffffffffff1673ffffffffffffffffffffffffffffffffffffffff1663b47aef1f6040518163ffffffff1660e01b8152600401602060405180830381865afa1580156101e5573d6000803e3d6000fd5b505050506040513d601f19601f8201168201806040525081019061020991906104db565b600360006101000a81548173ffffffffffffffffffffffffffffffffffffffff021916908373ffffffffffffffffffffffffffffffffffffffff160217905550600560009054906101000a900473ffffffffffffffffffffffffffffffffffffffff1673ffffffffffffffffffffffffffffffffffffffff166356b54bae6040518163ffffffff1660e01b8152600401602060405180830381865afa1580156102b6573d6000803e3d6000fd5b505050506040513d601f19601f820116820180604052508101906102da91906104db565b600460006101000a81548173ffffffffffffffffffffffffffffffffffffffff021916908373ffffffffffffffffffffffffffffffffffffffff16021790555050505050610508565b60008060009054906101000a900473ffffffffffffffffffffffffffffffffffffffff169050816000806101000a81548173ffffffffffffffffffffffffffffffffffffffff021916908373ffffffffffffffffffffffffffffffffffffffff1602179055508173ffffffffffffffffffffffffffffffffffffffff168173ffffffffffffffffffffffffffffffffffffffff167f8be0079c531659141344cd1fd0a4f28419497f9722a3daafe3b4186f6b6457e060405160405180910390a35050565b600080fd5b600073ffffffffffffffffffffffffffffffffffffffff82169050919050565b6000610417826103ec565b9050919050565b6104278161040c565b811461043257600080fd5b50565b6000815190506104448161041e565b92915050565b60008060008060808587031215610464576104636103e7565b5b600061047287828801610435565b945050602061048387828801610435565b935050604061049487828801610435565b92505060606104a587828801610435565b91505092959194509250565b6104ba8161040c565b82525050565b60006020820190506104d560008301846104b1565b92915050565b6000602082840312156104f1576104f06103e7565b5b60006104ff84828501610435565b91505092915050565b613208806105176000396000f3fe608060405234801561001057600080fd5b50600436106100f55760003560e01c8063a1ae3fb811610097578063d88ff1f411610066578063d88ff1f414610270578063d9f38c991461028e578063f2fde38b146102ac578063fb372a8f146102c8576100f5565b8063a1ae3fb8146101c2578063b4432cea146101f2578063b55efa5e14610222578063c1b9a95214610254576100f5565b8063715018a6116100d3578063715018a61461014e5780638da5cb5b1461015857806391c55c3d146101765780639dd373b9146101a6576100f5565b806327a3e16b146100fa5780634cfbab00146101165780634f51413414610132575b600080fd5b610114600480360381019061010f9190612171565b6102f8565b005b610130600480360381019061012b9190612171565b610344565b005b61014c60048036038101906101479190612171565b610390565b005b6101566103dc565b005b6101606103f0565b60405161016d91906121ad565b60405180910390f35b610190600480360381019061018b9190612321565b610419565b60405161019d9190612689565b60405180910390f35b6101c060048036038101906101bb9190612171565b610903565b005b6101dc60048036038101906101d79190612706565b61094f565b6040516101e99190612857565b60405180910390f35b61020c60048036038101906102079190612706565b610bc9565b604051610219919061296a565b60405180910390f35b61023c6004803603810190610237919061298c565b610e45565b60405161024b93929190612ad5565b60405180910390f35b61026e60048036038101906102699190612171565b6110b9565b005b610278611105565b6040516102859190612bd9565b60405180910390f35b610296611456565b6040516102a39190612d21565b60405180910390f35b6102c660048036038101906102c19190612171565b611c0d565b005b6102e260048036038101906102dd9190612321565b611c93565b6040516102ef9190612dac565b60405180910390f35b610300611e09565b80600460006101000a81548173ffffffffffffffffffffffffffffffffffffffff021916908373ffffffffffffffffffffffffffffffffffffffff16021790555050565b61034c611e09565b80600360006101000a81548173ffffffffffffffffffffffffffffffffffffffff021916908373ffffffffffffffffffffffffffffffffffffffff16021790555050565b610398611e09565b80600560006101000a81548173ffffffffffffffffffffffffffffffffffffffff021916908373ffffffffffffffffffffffffffffffffffffffff16021790555050565b6103e4611e09565b6103ee6000611e90565b565b60008060009054906101000a900473ffffffffffffffffffffffffffffffffffffffff16905090565b6060815167ffffffffffffffff811115610436576104356121de565b5b60405190808252806020026020018201604052801561046f57816020015b61045c611f5c565b8152602001906001900390816104545790505b50905060005b82518110156108fd576000600560009054906101000a900473ffffffffffffffffffffffffffffffffffffffff1673ffffffffffffffffffffffffffffffffffffffff16625351758584815181106104d0576104cf612dce565b5b60200260200101516040518263ffffffff1660e01b81526004016104f491906121ad565b602060405180830381865afa158015610511573d6000803e3d6000fd5b505050506040513d601f19601f820116820180604052508101906105359190612e12565b90506040518060c001604052808273ffffffffffffffffffffffffffffffffffffffff168152602001600560009054906101000a900473ffffffffffffffffffffffffffffffffffffffff1673ffffffffffffffffffffffffffffffffffffffff166360e5c520846040518263ffffffff1660e01b81526004016105b991906121ad565b602060405180830381865afa1580156105d6573d6000803e3d6000fd5b505050506040513d601f19601f820116820180604052508101906105fa9190612e6b565b8152602001600560009054906101000a900473ffffffffffffffffffffffffffffffffffffffff1673ffffffffffffffffffffffffffffffffffffffff1663857cdbb8846040518263ffffffff1660e01b815260040161065a91906121ad565b600060405180830381865afa158015610677573d6000803e3d6000fd5b505050506040513d6000823e3d601f19601f820116820180604052508101906106a09190612f3e565b8152602001600160009054906101000a900473ffffffffffffffffffffffffffffffffffffffff1673ffffffffffffffffffffffffffffffffffffffff16639ea8082b8786815181106106f6576106f5612dce565b5b60200260200101516040518263ffffffff1660e01b815260040161071a91906121ad565b600060405180830381865afa158015610737573d6000803e3d6000fd5b505050506040513d6000823e3d601f19601f82011682018060405250810190610760919061301e565b8152602001600560009054906101000a900473ffffffffffffffffffffffffffffffffffffffff1673ffffffffffffffffffffffffffffffffffffffff166314e28d90846040518263ffffffff1660e01b81526004016107c091906121ad565b602060405180830381865afa1580156107dd573d6000803e3d6000fd5b505050506040513d601f19601f82011682018060405250810190610801919061308c565b6005811115610813576108126124ec565b5b8152602001600160009054906101000a900473ffffffffffffffffffffffffffffffffffffffff1673ffffffffffffffffffffffffffffffffffffffff16635267e1d687868151811061086957610868612dce565b5b60200260200101516040518263ffffffff1660e01b815260040161088d91906121ad565b602060405180830381865afa1580156108aa573d6000803e3d6000fd5b505050506040513d601f19601f820116820180604052508101906108ce9190612e6b565b8152508383815181106108e4576108e3612dce565b5b6020026020010181905250508080600101915050610475565b50919050565b61090b611e09565b80600160006101000a81548173ffffffffffffffffffffffffffffffffffffffff021916908373ffffffffffffffffffffffffffffffffffffffff16021790555050565b60608282905067ffffffffffffffff81111561096e5761096d6121de565b5b6040519080825280602002602001820160405280156109a757816020015b610994611fba565b81526020019060019003908161098c5790505b50905060005b83839050811015610bc15760405180606001604052808585848181106109d6576109d5612dce565b5b90506020020160208101906109eb9190612171565b73ffffffffffffffffffffffffffffffffffffffff168152602001600160009054906101000a900473ffffffffffffffffffffffffffffffffffffffff1673ffffffffffffffffffffffffffffffffffffffff1663a697ecff878786818110610a5757610a56612dce565b5b9050602002016020810190610a6c9190612171565b896040518363ffffffff1660e01b8152600401610a8a9291906130b9565b602060405180830381865afa158015610aa7573d6000803e3d6000fd5b505050506040513d601f19601f82011682018060405250810190610acb9190612e6b565b8152602001600160009054906101000a900473ffffffffffffffffffffffffffffffffffffffff1673ffffffffffffffffffffffffffffffffffffffff16635267e1d6878786818110610b2157610b20612dce565b5b9050602002016020810190610b369190612171565b6040518263ffffffff1660e01b8152600401610b5291906121ad565b602060405180830381865afa158015610b6f573d6000803e3d6000fd5b505050506040513d601f19601f82011682018060405250810190610b939190612e6b565b815250828281518110610ba957610ba8612dce565b5b602002602001018190525080806001019150506109ad565b509392505050565b60608282905067ffffffffffffffff811115610be857610be76121de565b5b604051908082528060200260200182016040528015610c2157816020015b610c0e611ff1565b815260200190600190039081610c065790505b50905060005b83839050811015610e3d576040518060600160405280858584818110610c5057610c4f612dce565b5b9050602002016020810190610c659190612171565b73ffffffffffffffffffffffffffffffffffffffff168152602001600160009054906101000a900473ffffffffffffffffffffffffffffffffffffffff1673ffffffffffffffffffffffffffffffffffffffff1663e9ab0300878786818110610cd157610cd0612dce565b5b9050602002016020810190610ce69190612171565b896040518363ffffffff1660e01b8152600401610d049291906130b9565b602060405180830381865afa158015610d21573d6000803e3d6000fd5b505050506040513d601f19601f82011682018060405250810190610d459190612e6b565b8152602001600160009054906101000a900473ffffffffffffffffffffffffffffffffffffffff1673ffffffffffffffffffffffffffffffffffffffff1663a4205967878786818110610d9b57610d9a612dce565b5b9050602002016020810190610db09190612171565b896040518363ffffffff1660e01b8152600401610dce9291906130b9565b602060405180830381865afa158015610deb573d6000803e3d6000fd5b505050506040513d601f19601f82011682018060405250810190610e0f9190612e6b565b815250828281518110610e2557610e24612dce565b5b60200260200101819052508080600101915050610c27565b509392505050565b6060600080845167ffffffffffffffff811115610e6557610e646121de565b5b604051908082528060200260200182016040528015610e9e57816020015b610e8b612028565b815260200190600190039081610e835790505b50925060005b8551811015611008576000868281518110610ec257610ec1612dce565b5b602002602001015190506000600160009054906101000a900473ffffffffffffffffffffffffffffffffffffffff1673ffffffffffffffffffffffffffffffffffffffff1663a697ecff88846040518363ffffffff1660e01b8152600401610f2b9291906130b9565b602060405180830381865afa158015610f48573d6000803e3d6000fd5b505050506040513d601f19601f82011682018060405250810190610f6c9190612e6b565b905060405180604001604052808373ffffffffffffffffffffffffffffffffffffffff16815260200182815250868481518110610fac57610fab612dce565b5b60200260200101819052508173ffffffffffffffffffffffffffffffffffffffff168773ffffffffffffffffffffffffffffffffffffffff1614610ff9578084610ff69190613111565b93505b50508080600101915050610ea4565b5080600160009054906101000a900473ffffffffffffffffffffffffffffffffffffffff1673ffffffffffffffffffffffffffffffffffffffff16635267e1d6866040518263ffffffff1660e01b815260040161106591906121ad565b602060405180830381865afa158015611082573d6000803e3d6000fd5b505050506040513d601f19601f820116820180604052508101906110a69190612e6b565b6110b09190613145565b91509250925092565b6110c1611e09565b80600260006101000a81548173ffffffffffffffffffffffffffffffffffffffff021916908373ffffffffffffffffffffffffffffffffffffffff16021790555050565b61110d612058565b6000600560009054906101000a900473ffffffffffffffffffffffffffffffffffffffff1673ffffffffffffffffffffffffffffffffffffffff1663b7ab4db56040518163ffffffff1660e01b8152600401600060405180830381865afa15801561117c573d6000803e3d6000fd5b505050506040513d6000823e3d601f19601f820116820180604052508101906111a5919061301e565b90506000600560009054906101000a900473ffffffffffffffffffffffffffffffffffffffff1673ffffffffffffffffffffffffffffffffffffffff1663eebc7a396040518163ffffffff1660e01b8152600401600060405180830381865afa158015611216573d6000803e3d6000fd5b505050506040513d6000823e3d601f19601f8201168201806040525081019061123f919061301e565b9050600061124c83611c93565b9050600061125983611c93565b90506040518060e00160405280600160009054906101000a900473ffffffffffffffffffffffffffffffffffffffff1673ffffffffffffffffffffffffffffffffffffffff1663673a2a1f6040518163ffffffff1660e01b8152600401600060405180830381865afa1580156112d3573d6000803e3d6000fd5b505050506040513d6000823e3d601f19601f820116820180604052508101906112fc919061301e565b8152602001600160009054906101000a900473ffffffffffffffffffffffffffffffffffffffff1673ffffffffffffffffffffffffffffffffffffffff1663df6f55f56040518163ffffffff1660e01b8152600401600060405180830381865afa15801561136e573d6000803e3d6000fd5b505050506040513d6000823e3d601f19601f82011682018060405250810190611397919061301e565b8152602001600160009054906101000a900473ffffffffffffffffffffffffffffffffffffffff1673ffffffffffffffffffffffffffffffffffffffff1663a5d54f656040518163ffffffff1660e01b8152600401600060405180830381865afa158015611409573d6000803e3d6000fd5b505050506040513d6000823e3d601f19601f82011682018060405250810190611432919061301e565b81526020018581526020018381526020018481526020018281525094505050505090565b61145e612095565b604051806101a00160405280600460009054906101000a900473ffffffffffffffffffffffffffffffffffffffff1673ffffffffffffffffffffffffffffffffffffffff16635c57a8016040518163ffffffff1660e01b8152600401602060405180830381865afa1580156114d7573d6000803e3d6000fd5b505050506040513d601f19601f820116820180604052508101906114fb9190612e6b565b8152602001600460009054906101000a900473ffffffffffffffffffffffffffffffffffffffff1673ffffffffffffffffffffffffffffffffffffffff166373f129586040518163ffffffff1660e01b8152600401602060405180830381865afa15801561156d573d6000803e3d6000fd5b505050506040513d601f19601f820116820180604052508101906115919190612e6b565b8152602001600360009054906101000a900473ffffffffffffffffffffffffffffffffffffffff1673ffffffffffffffffffffffffffffffffffffffff166348bb1b2d6040518163ffffffff1660e01b8152600401602060405180830381865afa158015611603573d6000803e3d6000fd5b505050506040513d601f19601f820116820180604052508101906116279190612e6b565b8152602001600160009054906101000a900473ffffffffffffffffffffffffffffffffffffffff1673ffffffffffffffffffffffffffffffffffffffff1663794c0c686040518163ffffffff1660e01b8152600401602060405180830381865afa158015611699573d6000803e3d6000fd5b505050506040513d601f19601f820116820180604052508101906116bd9190612e6b565b8152602001600260009054906101000a900473ffffffffffffffffffffffffffffffffffffffff1673ffffffffffffffffffffffffffffffffffffffff1663df3cecf66040518163ffffffff1660e01b8152600401602060405180830381865afa15801561172f573d6000803e3d6000fd5b505050506040513d601f19601f820116820180604052508101906117539190612e6b565b8152602001600160009054906101000a900473ffffffffffffffffffffffffffffffffffffffff1673ffffffffffffffffffffffffffffffffffffffff16635fef76436040518163ffffffff1660e01b8152600401602060405180830381865afa1580156117c5573d6000803e3d6000fd5b505050506040513d601f19601f820116820180604052508101906117e99190612e6b565b8152602001600160009054906101000a900473ffffffffffffffffffffffffffffffffffffffff1673ffffffffffffffffffffffffffffffffffffffff1663da7a9b6a6040518163ffffffff1660e01b8152600401602060405180830381865afa15801561185b573d6000803e3d6000fd5b505050506040513d601f19601f8201168201806040525081019061187f9190612e6b565b8152602001600160009054906101000a900473ffffffffffffffffffffffffffffffffffffffff1673ffffffffffffffffffffffffffffffffffffffff16639b03d7446040518163ffffffff1660e01b8152600401602060405180830381865afa1580156118f1573d6000803e3d6000fd5b505050506040513d601f19601f820116820180604052508101906119159190612e6b565b8152602001600160009054906101000a900473ffffffffffffffffffffffffffffffffffffffff1673ffffffffffffffffffffffffffffffffffffffff16637069e7466040518163ffffffff1660e01b8152600401602060405180830381865afa158015611987573d6000803e3d6000fd5b505050506040513d601f19601f820116820180604052508101906119ab9190612e6b565b8152602001600160009054906101000a900473ffffffffffffffffffffffffffffffffffffffff1673ffffffffffffffffffffffffffffffffffffffff1663f49425016040518163ffffffff1660e01b8152600401602060405180830381865afa158015611a1d573d6000803e3d6000fd5b505050506040513d601f19601f82011682018060405250810190611a4191906131a5565b15158152602001600160009054906101000a900473ffffffffffffffffffffffffffffffffffffffff1673ffffffffffffffffffffffffffffffffffffffff166322e3d9866040518163ffffffff1660e01b8152600401602060405180830381865afa158015611ab5573d6000803e3d6000fd5b505050506040513d601f19601f82011682018060405250810190611ad99190612e6b565b8152602001600160009054906101000a900473ffffffffffffffffffffffffffffffffffffffff1673ffffffffffffffffffffffffffffffffffffffff16634f9a8d8f6040518163ffffffff1660e01b8152600401602060405180830381865afa158015611b4b573d6000803e3d6000fd5b505050506040513d601f19601f82011682018060405250810190611b6f9190612e6b565b8152602001600160009054906101000a900473ffffffffffffffffffffffffffffffffffffffff1673ffffffffffffffffffffffffffffffffffffffff1663028b8bdb6040518163ffffffff1660e01b8152600401602060405180830381865afa158015611be1573d6000803e3d6000fd5b505050506040513d601f19601f82011682018060405250810190611c059190612e6b565b815250905090565b611c15611e09565b600073ffffffffffffffffffffffffffffffffffffffff168173ffffffffffffffffffffffffffffffffffffffff1603611c875760006040517f1e4fbdf7000000000000000000000000000000000000000000000000000000008152600401611c7e91906121ad565b60405180910390fd5b611c9081611e90565b50565b60606000825167ffffffffffffffff811115611cb257611cb16121de565b5b604051908082528060200260200182016040528015611ce05781602001602082028036833780820191505090505b50905060005b8351811015611dff57600560009054906101000a900473ffffffffffffffffffffffffffffffffffffffff1673ffffffffffffffffffffffffffffffffffffffff16631ee4d0bc858381518110611d4057611d3f612dce565b5b60200260200101516040518263ffffffff1660e01b8152600401611d6491906121ad565b602060405180830381865afa158015611d81573d6000803e3d6000fd5b505050506040513d601f19601f82011682018060405250810190611da59190612e12565b828281518110611db857611db7612dce565b5b602002602001019073ffffffffffffffffffffffffffffffffffffffff16908173ffffffffffffffffffffffffffffffffffffffff16815250508080600101915050611ce6565b5080915050919050565b611e11611f54565b73ffffffffffffffffffffffffffffffffffffffff16611e2f6103f0565b73ffffffffffffffffffffffffffffffffffffffff1614611e8e57611e52611f54565b6040517f118cdaa7000000000000000000000000000000000000000000000000000000008152600401611e8591906121ad565b60405180910390fd5b565b60008060009054906101000a900473ffffffffffffffffffffffffffffffffffffffff169050816000806101000a81548173ffffffffffffffffffffffffffffffffffffffff021916908373ffffffffffffffffffffffffffffffffffffffff1602179055508173ffffffffffffffffffffffffffffffffffffffff168173ffffffffffffffffffffffffffffffffffffffff167f8be0079c531659141344cd1fd0a4f28419497f9722a3daafe3b4186f6b6457e060405160405180910390a35050565b600033905090565b6040518060c00160405280600073ffffffffffffffffffffffffffffffffffffffff16815260200160008152602001606081526020016060815260200160006005811115611fad57611fac6124ec565b5b8152602001600081525090565b6040518060600160405280600073ffffffffffffffffffffffffffffffffffffffff16815260200160008152602001600081525090565b6040518060600160405280600073ffffffffffffffffffffffffffffffffffffffff16815260200160008152602001600081525090565b6040518060400160405280600073ffffffffffffffffffffffffffffffffffffffff168152602001600081525090565b6040518060e00160405280606081526020016060815260200160608152602001606081526020016060815260200160608152602001606081525090565b604051806101a001604052806000815260200160008152602001600081526020016000815260200160008152602001600081526020016000815260200160008152602001600081526020016000151581526020016000815260200160008152602001600081525090565b6000604051905090565b600080fd5b600080fd5b600073ffffffffffffffffffffffffffffffffffffffff82169050919050565b600061213e82612113565b9050919050565b61214e81612133565b811461215957600080fd5b50565b60008135905061216b81612145565b92915050565b60006020828403121561218757612186612109565b5b60006121958482850161215c565b91505092915050565b6121a781612133565b82525050565b60006020820190506121c2600083018461219e565b92915050565b600080fd5b6000601f19601f8301169050919050565b7f4e487b7100000000000000000000000000000000000000000000000000000000600052604160045260246000fd5b612216826121cd565b810181811067ffffffffffffffff82111715612235576122346121de565b5b80604052505050565b60006122486120ff565b9050612254828261220d565b919050565b600067ffffffffffffffff821115612274576122736121de565b5b602082029050602081019050919050565b600080fd5b600061229d61229884612259565b61223e565b905080838252602082019050602084028301858111156122c0576122bf612285565b5b835b818110156122e957806122d5888261215c565b8452602084019350506020810190506122c2565b5050509392505050565b600082601f830112612308576123076121c8565b5b813561231884826020860161228a565b91505092915050565b60006020828403121561233757612336612109565b5b600082013567ffffffffffffffff8111156123555761235461210e565b5b612361848285016122f3565b91505092915050565b600081519050919050565b600082825260208201905092915050565b6000819050602082019050919050565b61239f81612133565b82525050565b6000819050919050565b6123b8816123a5565b82525050565b600081519050919050565b600082825260208201905092915050565b60005b838110156123f85780820151818401526020810190506123dd565b60008484015250505050565b600061240f826123be565b61241981856123c9565b93506124298185602086016123da565b612432816121cd565b840191505092915050565b600081519050919050565b600082825260208201905092915050565b6000819050602082019050919050565b60006124758383612396565b60208301905092915050565b6000602082019050919050565b60006124998261243d565b6124a38185612448565b93506124ae83612459565b8060005b838110156124df5781516124c68882612469565b97506124d183612481565b9250506001810190506124b2565b5085935050505092915050565b7f4e487b7100000000000000000000000000000000000000000000000000000000600052602160045260246000fd5b6006811061252c5761252b6124ec565b5b50565b600081905061253d8261251b565b919050565b600061254d8261252f565b9050919050565b61255d81612542565b82525050565b600060c08301600083015161257b6000860182612396565b50602083015161258e60208601826123af565b50604083015184820360408601526125a68282612404565b915050606083015184820360608601526125c0828261248e565b91505060808301516125d56080860182612554565b5060a08301516125e860a08601826123af565b508091505092915050565b60006125ff8383612563565b905092915050565b6000602082019050919050565b600061261f8261236a565b6126298185612375565b93508360208202850161263b85612386565b8060005b85811015612677578484038952815161265885826125f3565b945061266383612607565b925060208a0199505060018101905061263f565b50829750879550505050505092915050565b600060208201905081810360008301526126a38184612614565b905092915050565b600080fd5b60008083601f8401126126c6576126c56121c8565b5b8235905067ffffffffffffffff8111156126e3576126e26126ab565b5b6020830191508360208202830111156126ff576126fe612285565b5b9250929050565b60008060006040848603121561271f5761271e612109565b5b600061272d8682870161215c565b935050602084013567ffffffffffffffff81111561274e5761274d61210e565b5b61275a868287016126b0565b92509250509250925092565b600081519050919050565b600082825260208201905092915050565b6000819050602082019050919050565b6060820160008201516127a86000850182612396565b5060208201516127bb60208501826123af565b5060408201516127ce60408501826123af565b50505050565b60006127e08383612792565b60608301905092915050565b6000602082019050919050565b600061280482612766565b61280e8185612771565b935061281983612782565b8060005b8381101561284a57815161283188826127d4565b975061283c836127ec565b92505060018101905061281d565b5085935050505092915050565b6000602082019050818103600083015261287181846127f9565b905092915050565b600081519050919050565b600082825260208201905092915050565b6000819050602082019050919050565b6060820160008201516128bb6000850182612396565b5060208201516128ce60208501826123af565b5060408201516128e160408501826123af565b50505050565b60006128f383836128a5565b60608301905092915050565b6000602082019050919050565b600061291782612879565b6129218185612884565b935061292c83612895565b8060005b8381101561295d57815161294488826128e7565b975061294f836128ff565b925050600181019050612930565b5085935050505092915050565b60006020820190508181036000830152612984818461290c565b905092915050565b600080604083850312156129a3576129a2612109565b5b600083013567ffffffffffffffff8111156129c1576129c061210e565b5b6129cd858286016122f3565b92505060206129de8582860161215c565b9150509250929050565b600081519050919050565b600082825260208201905092915050565b6000819050602082019050919050565b604082016000820151612a2a6000850182612396565b506020820151612a3d60208501826123af565b50505050565b6000612a4f8383612a14565b60408301905092915050565b6000602082019050919050565b6000612a73826129e8565b612a7d81856129f3565b9350612a8883612a04565b8060005b83811015612ab9578151612aa08882612a43565b9750612aab83612a5b565b925050600181019050612a8c565b5085935050505092915050565b612acf816123a5565b82525050565b60006060820190508181036000830152612aef8186612a68565b9050612afe6020830185612ac6565b612b0b6040830184612ac6565b949350505050565b600060e0830160008301518482036000860152612b30828261248e565b91505060208301518482036020860152612b4a828261248e565b91505060408301518482036040860152612b64828261248e565b91505060608301518482036060860152612b7e828261248e565b91505060808301518482036080860152612b98828261248e565b91505060a083015184820360a0860152612bb2828261248e565b91505060c083015184820360c0860152612bcc828261248e565b9150508091505092915050565b60006020820190508181036000830152612bf38184612b13565b905092915050565b60008115159050919050565b612c1081612bfb565b82525050565b6101a082016000820151612c2d60008501826123af565b506020820151612c4060208501826123af565b506040820151612c5360408501826123af565b506060820151612c6660608501826123af565b506080820151612c7960808501826123af565b5060a0820151612c8c60a08501826123af565b5060c0820151612c9f60c08501826123af565b5060e0820151612cb260e08501826123af565b50610100820151612cc76101008501826123af565b50610120820151612cdc610120850182612c07565b50610140820151612cf16101408501826123af565b50610160820151612d066101608501826123af565b50610180820151612d1b6101808501826123af565b50505050565b60006101a082019050612d376000830184612c16565b92915050565b600082825260208201905092915050565b6000612d598261243d565b612d638185612d3d565b9350612d6e83612459565b8060005b83811015612d9f578151612d868882612469565b9750612d9183612481565b925050600181019050612d72565b5085935050505092915050565b60006020820190508181036000830152612dc68184612d4e565b905092915050565b7f4e487b7100000000000000000000000000000000000000000000000000000000600052603260045260246000fd5b600081519050612e0c81612145565b92915050565b600060208284031215612e2857612e27612109565b5b6000612e3684828501612dfd565b91505092915050565b612e48816123a5565b8114612e5357600080fd5b50565b600081519050612e6581612e3f565b92915050565b600060208284031215612e8157612e80612109565b5b6000612e8f84828501612e56565b91505092915050565b600080fd5b600067ffffffffffffffff821115612eb857612eb76121de565b5b612ec1826121cd565b9050602081019050919050565b6000612ee1612edc84612e9d565b61223e565b905082815260208101848484011115612efd57612efc612e98565b5b612f088482856123da565b509392505050565b600082601f830112612f2557612f246121c8565b5b8151612f35848260208601612ece565b91505092915050565b600060208284031215612f5457612f53612109565b5b600082015167ffffffffffffffff811115612f7257612f7161210e565b5b612f7e84828501612f10565b91505092915050565b6000612f9a612f9584612259565b61223e565b90508083825260208201905060208402830185811115612fbd57612fbc612285565b5b835b81811015612fe65780612fd28882612dfd565b845260208401935050602081019050612fbf565b5050509392505050565b600082601f830112613005576130046121c8565b5b8151613015848260208601612f87565b91505092915050565b60006020828403121561303457613033612109565b5b600082015167ffffffffffffffff8111156130525761305161210e565b5b61305e84828501612ff0565b91505092915050565b6006811061307457600080fd5b50565b60008151905061308681613067565b92915050565b6000602082840312156130a2576130a1612109565b5b60006130b084828501613077565b91505092915050565b60006040820190506130ce600083018561219e565b6130db602083018461219e565b9392505050565b7f4e487b7100000000000000000000000000000000000000000000000000000000600052601160045260246000fd5b600061311c826123a5565b9150613127836123a5565b925082820190508082111561313f5761313e6130e2565b5b92915050565b6000613150826123a5565b915061315b836123a5565b9250828203905081811115613173576131726130e2565b5b92915050565b61318281612bfb565b811461318d57600080fd5b50565b60008151905061319f81613179565b92915050565b6000602082840312156131bb576131ba612109565b5b60006131c984828501613190565b9150509291505056fea26469706673582212208a33dd9f6dd0a826e754588e2b7f3f3071aaa1c618ab30f60bc9071296a6f43364736f6c63430008190033",
    "linkReferences": {},
    "deployedLinkReferences": {}
}