{
    "_format": "hh-sol-artifact-1",
    "contractName": "HbbftAggregator",
    "sourceName": "contracts/HbbftAggregator.sol",
    "abi": [
        {
            "inputs": [
                {
                    "internalType": "address",
                    "name": "_st",
                    "type": "address"
                },
                {
                    "internalType": "address",
                    "name": "_vs",
                    "type": "address"
                },
                {
                    "internalType": "address",
                    "name": "_tp",
                    "type": "address"
                }
            ],
            "stateMutability": "nonpayable",
            "type": "constructor"
        },
        {
            "inputs": [],
            "name": "br",
            "outputs": [
                {
                    "internalType": "contract IBlockRewardHbbft",
                    "name": "",
                    "type": "address"
                }
            ],
            "stateMutability": "view",
            "type": "function"
        },
        {
            "inputs": [],
            "name": "getAllPools",
            "outputs": [
                {
                    "components": [
                        {
                            "internalType": "address[]",
                            "name": "activePools",
                            "type": "address[]"
                        },
                        {
                            "internalType": "address[]",
                            "name": "validators",
                            "type": "address[]"
                        },
                        {
                            "internalType": "address[]",
                            "name": "inActivePools",
                            "type": "address[]"
                        },
                        {
                            "internalType": "address[]",
                            "name": "poolsToBeElected",
                            "type": "address[]"
                        },
                        {
                            "internalType": "address[]",
                            "name": "pendingValidators",
                            "type": "address[]"
                        }
                    ],
                    "internalType": "struct HbbftAggregator.Pools",
                    "name": "pools",
                    "type": "tuple"
                }
            ],
            "stateMutability": "view",
            "type": "function"
        },
        {
            "inputs": [
                {
                    "internalType": "address[]",
                    "name": "delegators",
                    "type": "address[]"
                },
                {
                    "internalType": "address",
                    "name": "poolAddress",
                    "type": "address"
                }
            ],
            "name": "getDelegationsData",
            "outputs": [
                {
                    "components": [
                        {
                            "internalType": "address",
                            "name": "delegator",
                            "type": "address"
                        },
                        {
                            "internalType": "uint256",
                            "name": "delegatedAmount",
                            "type": "uint256"
                        }
                    ],
                    "internalType": "struct HbbftAggregator.DelegateData[]",
                    "name": "_delegatesData",
                    "type": "tuple[]"
                },
                {
                    "internalType": "uint256",
                    "name": "_ownStake",
                    "type": "uint256"
                },
                {
                    "internalType": "uint256",
                    "name": "_candidateStake",
                    "type": "uint256"
                }
            ],
            "stateMutability": "view",
            "type": "function"
        },
        {
            "inputs": [],
            "name": "getGlobals",
            "outputs": [
                {
                    "components": [
                        {
                            "internalType": "uint256",
                            "name": "deltaPot",
                            "type": "uint256"
                        },
                        {
                            "internalType": "uint256",
                            "name": "reinsertPot",
                            "type": "uint256"
                        },
                        {
                            "internalType": "uint256",
                            "name": "keygenRound",
                            "type": "uint256"
                        },
                        {
                            "internalType": "uint256",
                            "name": "stakingEpoch",
                            "type": "uint256"
                        },
                        {
                            "internalType": "uint256",
                            "name": "minimumGasPrice",
                            "type": "uint256"
                        },
                        {
                            "internalType": "uint256",
                            "name": "candidateMinStake",
                            "type": "uint256"
                        },
                        {
                            "internalType": "uint256",
                            "name": "delegatorMinStake",
                            "type": "uint256"
                        },
                        {
                            "internalType": "uint256",
                            "name": "stakingEpochStartTime",
                            "type": "uint256"
                        },
                        {
                            "internalType": "uint256",
                            "name": "stakingEpochStartBlock",
                            "type": "uint256"
                        },
                        {
                            "internalType": "bool",
                            "name": "areStakeAndWithdrawAllowed",
                            "type": "bool"
                        },
                        {
                            "internalType": "uint256",
                            "name": "stakingFixedEpochEndTime",
                            "type": "uint256"
                        },
                        {
                            "internalType": "uint256",
                            "name": "stakingFixedEpochDuration",
                            "type": "uint256"
                        },
                        {
                            "internalType": "uint256",
                            "name": "stakingWithdrawDisallowPeriod",
                            "type": "uint256"
                        }
                    ],
                    "internalType": "struct HbbftAggregator.GlobalsData",
                    "name": "_globalsData",
                    "type": "tuple"
                }
            ],
            "stateMutability": "view",
            "type": "function"
        },
        {
            "inputs": [
                {
                    "internalType": "address[]",
                    "name": "_sAs",
                    "type": "address[]"
                }
            ],
            "name": "getPoolsData",
            "outputs": [
                {
                    "components": [
                        {
                            "internalType": "address",
                            "name": "miningAddress",
                            "type": "address"
                        },
                        {
                            "internalType": "uint256",
                            "name": "banCount",
                            "type": "uint256"
                        },
                        {
                            "internalType": "uint256",
                            "name": "bannedUntil",
                            "type": "uint256"
                        },
                        {
                            "internalType": "uint256",
                            "name": "availableSince",
                            "type": "uint256"
                        },
                        {
                            "internalType": "bytes",
                            "name": "publicKey",
                            "type": "bytes"
                        },
                        {
                            "internalType": "address[]",
                            "name": "delegators",
                            "type": "address[]"
                        },
                        {
                            "internalType": "enum IValidatorSetHbbft.KeyGenMode",
                            "name": "keygenMode",
                            "type": "uint8"
                        },
                        {
                            "internalType": "uint256",
                            "name": "stakedAmountTotal",
                            "type": "uint256"
                        }
                    ],
                    "internalType": "struct HbbftAggregator.PoolData[]",
                    "name": "poolsData",
                    "type": "tuple[]"
                }
            ],
            "stateMutability": "view",
            "type": "function"
        },
        {
            "inputs": [
                {
                    "internalType": "address",
                    "name": "_user",
                    "type": "address"
                },
                {
                    "internalType": "address[]",
                    "name": "_pools",
                    "type": "address[]"
                }
            ],
            "name": "getUserOrderedWithdraws",
            "outputs": [
                {
                    "components": [
                        {
                            "internalType": "address",
                            "name": "pool",
                            "type": "address"
                        },
                        {
                            "internalType": "uint256",
                            "name": "orderedAmount",
                            "type": "uint256"
                        },
                        {
                            "internalType": "uint256",
                            "name": "withdrawEpoch",
                            "type": "uint256"
                        }
                    ],
                    "internalType": "struct HbbftAggregator.OrderedWithdrawData[]",
                    "name": "_stakesData",
                    "type": "tuple[]"
                }
            ],
            "stateMutability": "view",
            "type": "function"
        },
        {
            "inputs": [
                {
                    "internalType": "address",
                    "name": "_user",
                    "type": "address"
                },
                {
                    "internalType": "address[]",
                    "name": "_pools",
                    "type": "address[]"
                }
            ],
            "name": "getUserStakes",
            "outputs": [
                {
                    "components": [
                        {
                            "internalType": "address",
                            "name": "pool",
                            "type": "address"
                        },
                        {
                            "internalType": "uint256",
                            "name": "myStakedAmount",
                            "type": "uint256"
                        },
                        {
                            "internalType": "uint256",
                            "name": "stakedAmountTotal",
                            "type": "uint256"
                        }
                    ],
                    "internalType": "struct HbbftAggregator.StakeData[]",
                    "name": "_stakesData",
                    "type": "tuple[]"
                }
            ],
            "stateMutability": "view",
            "type": "function"
        },
        {
            "inputs": [],
            "name": "kh",
            "outputs": [
                {
                    "internalType": "contract IKeyGenHistory",
                    "name": "",
                    "type": "address"
                }
            ],
            "stateMutability": "view",
            "type": "function"
        },
        {
            "inputs": [],
            "name": "owner",
            "outputs": [
                {
                    "internalType": "address",
                    "name": "",
                    "type": "address"
                }
            ],
            "stateMutability": "view",
            "type": "function"
        },
        {
            "inputs": [
                {
                    "internalType": "address",
                    "name": "_br",
                    "type": "address"
                }
            ],
            "name": "setBlockRewardContract",
            "outputs": [],
            "stateMutability": "nonpayable",
            "type": "function"
        },
        {
            "inputs": [
                {
                    "internalType": "address",
                    "name": "_kh",
                    "type": "address"
                }
            ],
            "name": "setKeygenHistoryContract",
            "outputs": [],
            "stateMutability": "nonpayable",
            "type": "function"
        },
        {
            "inputs": [
                {
                    "internalType": "address",
                    "name": "_st",
                    "type": "address"
                }
            ],
            "name": "setStakingContract",
            "outputs": [],
            "stateMutability": "nonpayable",
            "type": "function"
        },
        {
            "inputs": [
                {
                    "internalType": "address",
                    "name": "_tp",
                    "type": "address"
                }
            ],
            "name": "setTxPermissionContract",
            "outputs": [],
            "stateMutability": "nonpayable",
            "type": "function"
        },
        {
            "inputs": [
                {
                    "internalType": "address",
                    "name": "_vs",
                    "type": "address"
                }
            ],
            "name": "setValidatorsSetContract",
            "outputs": [],
            "stateMutability": "nonpayable",
            "type": "function"
        },
        {
            "inputs": [],
            "name": "st",
            "outputs": [
                {
                    "internalType": "contract IStakingHbbft",
                    "name": "",
                    "type": "address"
                }
            ],
            "stateMutability": "view",
            "type": "function"
        },
        {
            "inputs": [],
            "name": "tp",
            "outputs": [
                {
                    "internalType": "contract ITxPermission",
                    "name": "",
                    "type": "address"
                }
            ],
            "stateMutability": "view",
            "type": "function"
        },
        {
            "inputs": [],
            "name": "vs",
            "outputs": [
                {
                    "internalType": "contract IValidatorSetHbbft",
                    "name": "",
                    "type": "address"
                }
            ],
            "stateMutability": "view",
            "type": "function"
        }
    ],
    "bytecode": "0x60806040523480156200001157600080fd5b5060405162002081380380620020818339810160408190526200003491620001ab565b60008054336001600160a01b0319918216179091556001805482166001600160a01b0386811691909117909155600280548316848316179055600580549092169084169081179091556040805163b47aef1f60e01b8152905163b47aef1f916004808201926020929091908290030181865afa158015620000b9573d6000803e3d6000fd5b505050506040513d601f19601f82011682018060405250810190620000df9190620001f5565b600380546001600160a01b0319166001600160a01b0392831617905560055460408051632b5aa5d760e11b8152905191909216916356b54bae9160048083019260209291908290030181865afa1580156200013e573d6000803e3d6000fd5b505050506040513d601f19601f82011682018060405250810190620001649190620001f5565b600480546001600160a01b0319166001600160a01b0392909216919091179055506200021a915050565b80516001600160a01b0381168114620001a657600080fd5b919050565b600080600060608486031215620001c157600080fd5b620001cc846200018e565b9250620001dc602085016200018e565b9150620001ec604085016200018e565b90509250925092565b6000602082840312156200020857600080fd5b62000213826200018e565b9392505050565b611e57806200022a6000396000f3fe608060405234801561001057600080fd5b50600436106101005760003560e01c8063944de24611610097578063c1b9a95211610066578063c1b9a9521461022f578063d88ff1f414610242578063d9f38c9914610257578063f02a72f51461026c57600080fd5b8063944de246146101c95780639dd373b9146101dc578063a1ae3fb8146101ef578063b4432cea1461020f57600080fd5b80634f514134116100d35780634f5141341461017057806373f0cc2d146101835780638da5cb5b1461019657806391c55c3d146101a957600080fd5b80630691cc6a1461010557806327a3e16b14610135578063336ca2521461014a5780634cfbab001461015d575b600080fd5b600454610118906001600160a01b031681565b6040516001600160a01b0390911681526020015b60405180910390f35b610148610143366004611702565b61027f565b005b600354610118906001600160a01b031681565b61014861016b366004611702565b6102ec565b61014861017e366004611702565b610354565b600154610118906001600160a01b031681565b600054610118906001600160a01b031681565b6101bc6101b7366004611791565b6103bc565b60405161012c91906118d0565b600254610118906001600160a01b031681565b6101486101ea366004611702565b61081e565b6102026101fd3660046119be565b610886565b60405161012c9190611a46565b61022261021d3660046119be565b610ad5565b60405161012c9190611ab1565b61014861023d366004611702565b610d24565b61024a610d8c565b60405161012c9190611b10565b61025f61104b565b60405161012c9190611bab565b600554610118906001600160a01b031681565b6000546001600160a01b031633146102ca5760405162461bcd60e51b81526020600482015260096024820152682737ba1037bbb732b960b91b60448201526064015b60405180910390fd5b600480546001600160a01b0319166001600160a01b0392909216919091179055565b6000546001600160a01b031633146103325760405162461bcd60e51b81526020600482015260096024820152682737ba1037bbb732b960b91b60448201526064016102c1565b600380546001600160a01b0319166001600160a01b0392909216919091179055565b6000546001600160a01b0316331461039a5760405162461bcd60e51b81526020600482015260096024820152682737ba1037bbb732b960b91b60448201526064016102c1565b600580546001600160a01b0319166001600160a01b0392909216919091179055565b6060815167ffffffffffffffff8111156103d8576103d8611726565b60405190808252806020026020018201604052801561041157816020015b6103fe611694565b8152602001906001900390816103f65790505b50905060005b82518110156108185760055483516000916001600160a01b031690625351759086908590811061044957610449611c48565b60200260200101516040518263ffffffff1660e01b815260040161047c91906001600160a01b0391909116815260200190565b602060405180830381865afa158015610499573d6000803e3d6000fd5b505050506040513d601f19601f820116820180604052508101906104bd9190611c5e565b6040805160e0810182526001600160a01b038381168083526005549351630e866a6360e11b815260048101919091529394509092602084019290911690631d0cd4c690602401602060405180830381865afa158015610520573d6000803e3d6000fd5b505050506040513d601f19601f820116820180604052508101906105449190611c7b565b8152600554604051632c1b684560e11b81526001600160a01b03858116600483015260209093019290911690635836d08a90602401602060405180830381865afa158015610596573d6000803e3d6000fd5b505050506040513d601f19601f820116820180604052508101906105ba9190611c7b565b81526005546040516303072e2960e51b81526001600160a01b038581166004830152602090930192909116906360e5c52090602401602060405180830381865afa15801561060c573d6000803e3d6000fd5b505050506040513d601f19601f820116820180604052508101906106309190611c7b565b81526005546040516310af9b7760e31b81526001600160a01b0385811660048301526020909301929091169063857cdbb890602401600060405180830381865afa158015610682573d6000803e3d6000fd5b505050506040513d6000823e601f3d908101601f191682016040526106aa9190810190611c94565b8152602001600160009054906101000a90046001600160a01b03166001600160a01b0316639ea8082b8786815181106106e5576106e5611c48565b60200260200101516040518263ffffffff1660e01b815260040161071891906001600160a01b0391909116815260200190565b600060405180830381865afa158015610735573d6000803e3d6000fd5b505050506040513d6000823e601f3d908101601f1916820160405261075d9190810190611d28565b815260055460405163014e28d960e41b81526001600160a01b038581166004830152602090930192909116906314e28d9090602401602060405180830381865afa1580156107af573d6000803e3d6000fd5b505050506040513d601f19601f820116820180604052508101906107d39190611db7565b60058111156107e4576107e4611898565b8152508383815181106107f9576107f9611c48565b602002602001018190525050808061081090611dd8565b915050610417565b50919050565b6000546001600160a01b031633146108645760405162461bcd60e51b81526020600482015260096024820152682737ba1037bbb732b960b91b60448201526064016102c1565b600180546001600160a01b0319166001600160a01b0392909216919091179055565b60608167ffffffffffffffff8111156108a1576108a1611726565b6040519080825280602002602001820160405280156108ff57816020015b6108ec604051806060016040528060006001600160a01b0316815260200160008152602001600081525090565b8152602001906001900390816108bf5790505b50905060005b82811015610acd57604051806060016040528085858481811061092a5761092a611c48565b905060200201602081019061093f9190611702565b6001600160a01b0390811682526001546020909201911663a697ecff87878681811061096d5761096d611c48565b90506020020160208101906109829190611702565b6040516001600160e01b031960e084901b1681526001600160a01b039182166004820152908a166024820152604401602060405180830381865afa1580156109ce573d6000803e3d6000fd5b505050506040513d601f19601f820116820180604052508101906109f29190611c7b565b81526001546020909101906001600160a01b0316635267e1d6878786818110610a1d57610a1d611c48565b9050602002016020810190610a329190611702565b6040516001600160e01b031960e084901b1681526001600160a01b039091166004820152602401602060405180830381865afa158015610a76573d6000803e3d6000fd5b505050506040513d601f19601f82011682018060405250810190610a9a9190611c7b565b815250828281518110610aaf57610aaf611c48565b60200260200101819052508080610ac590611dd8565b915050610905565b509392505050565b60608167ffffffffffffffff811115610af057610af0611726565b604051908082528060200260200182016040528015610b4e57816020015b610b3b604051806060016040528060006001600160a01b0316815260200160008152602001600081525090565b815260200190600190039081610b0e5790505b50905060005b82811015610acd576040518060600160405280858584818110610b7957610b79611c48565b9050602002016020810190610b8e9190611702565b6001600160a01b0390811682526001546020909201911663e9ab0300878786818110610bbc57610bbc611c48565b9050602002016020810190610bd19190611702565b6040516001600160e01b031960e084901b1681526001600160a01b039182166004820152908a166024820152604401602060405180830381865afa158015610c1d573d6000803e3d6000fd5b505050506040513d601f19601f82011682018060405250810190610c419190611c7b565b81526001546020909101906001600160a01b031663a4205967878786818110610c6c57610c6c611c48565b9050602002016020810190610c819190611702565b6040516001600160e01b031960e084901b1681526001600160a01b039182166004820152908a166024820152604401602060405180830381865afa158015610ccd573d6000803e3d6000fd5b505050506040513d601f19601f82011682018060405250810190610cf19190611c7b565b815250828281518110610d0657610d06611c48565b60200260200101819052508080610d1c90611dd8565b915050610b54565b6000546001600160a01b03163314610d6a5760405162461bcd60e51b81526020600482015260096024820152682737ba1037bbb732b960b91b60448201526064016102c1565b600280546001600160a01b0319166001600160a01b0392909216919091179055565b610dbe6040518060a0016040528060608152602001606081526020016060815260200160608152602001606081525090565b6040518060a00160405280600160009054906101000a90046001600160a01b03166001600160a01b031663673a2a1f6040518163ffffffff1660e01b8152600401600060405180830381865afa158015610e1c573d6000803e3d6000fd5b505050506040513d6000823e601f3d908101601f19168201604052610e449190810190611d28565b8152602001600560009054906101000a90046001600160a01b03166001600160a01b031663b7ab4db56040518163ffffffff1660e01b8152600401600060405180830381865afa158015610e9c573d6000803e3d6000fd5b505050506040513d6000823e601f3d908101601f19168201604052610ec49190810190611d28565b8152602001600160009054906101000a90046001600160a01b03166001600160a01b031663df6f55f56040518163ffffffff1660e01b8152600401600060405180830381865afa158015610f1c573d6000803e3d6000fd5b505050506040513d6000823e601f3d908101601f19168201604052610f449190810190611d28565b8152602001600160009054906101000a90046001600160a01b03166001600160a01b031663a5d54f656040518163ffffffff1660e01b8152600401600060405180830381865afa158015610f9c573d6000803e3d6000fd5b505050506040513d6000823e601f3d908101601f19168201604052610fc49190810190611d28565b8152602001600560009054906101000a90046001600160a01b03166001600160a01b031663eebc7a396040518163ffffffff1660e01b8152600401600060405180830381865afa15801561101c573d6000803e3d6000fd5b505050506040513d6000823e601f3d908101601f191682016040526110449190810190611d28565b9052919050565b6110b8604051806101a001604052806000815260200160008152602001600081526020016000815260200160008152602001600081526020016000815260200160008152602001600081526020016000151581526020016000815260200160008152602001600081525090565b604051806101a00160405280600460009054906101000a90046001600160a01b03166001600160a01b0316635c57a8016040518163ffffffff1660e01b8152600401602060405180830381865afa158015611117573d6000803e3d6000fd5b505050506040513d601f19601f8201168201806040525081019061113b9190611c7b565b8152602001600460009054906101000a90046001600160a01b03166001600160a01b03166373f129586040518163ffffffff1660e01b8152600401602060405180830381865afa158015611193573d6000803e3d6000fd5b505050506040513d601f19601f820116820180604052508101906111b79190611c7b565b8152600354604080516348bb1b2d60e01b815290516020938401936001600160a01b03909316926348bb1b2d92600480820193918290030181865afa158015611204573d6000803e3d6000fd5b505050506040513d601f19601f820116820180604052508101906112289190611c7b565b815260015460408051630f29818d60e31b815290516020938401936001600160a01b039093169263794c0c6892600480820193918290030181865afa158015611275573d6000803e3d6000fd5b505050506040513d601f19601f820116820180604052508101906112999190611c7b565b815260025460408051636f9e767b60e11b815290516020938401936001600160a01b039093169263df3cecf692600480820193918290030181865afa1580156112e6573d6000803e3d6000fd5b505050506040513d601f19601f8201168201806040525081019061130a9190611c7b565b815260015460408051635fef764360e01b815290516020938401936001600160a01b0390931692635fef764392600480820193918290030181865afa158015611357573d6000803e3d6000fd5b505050506040513d601f19601f8201168201806040525081019061137b9190611c7b565b815260015460408051636d3d4db560e11b815290516020938401936001600160a01b039093169263da7a9b6a92600480820193918290030181865afa1580156113c8573d6000803e3d6000fd5b505050506040513d601f19601f820116820180604052508101906113ec9190611c7b565b8152600154604080516326c0f5d160e21b815290516020938401936001600160a01b0390931692639b03d74492600480820193918290030181865afa158015611439573d6000803e3d6000fd5b505050506040513d601f19601f8201168201806040525081019061145d9190611c7b565b815260015460408051633834f3a360e11b815290516020938401936001600160a01b0390931692637069e74692600480820193918290030181865afa1580156114aa573d6000803e3d6000fd5b505050506040513d601f19601f820116820180604052508101906114ce9190611c7b565b81526001546040805163f494250160e01b815290516020938401936001600160a01b039093169263f494250192600480820193918290030181865afa15801561151b573d6000803e3d6000fd5b505050506040513d601f19601f8201168201806040525081019061153f9190611dff565b1515815260015460408051631171ecc360e11b815290516020938401936001600160a01b03909316926322e3d98692600480820193918290030181865afa15801561158e573d6000803e3d6000fd5b505050506040513d601f19601f820116820180604052508101906115b29190611c7b565b815260015460408051634f9a8d8f60e01b815290516020938401936001600160a01b0390931692634f9a8d8f92600480820193918290030181865afa1580156115ff573d6000803e3d6000fd5b505050506040513d601f19601f820116820180604052508101906116239190611c7b565b81526001546040805163028b8bdb60e01b815290516020938401936001600160a01b039093169263028b8bdb92600480820193918290030181865afa158015611670573d6000803e3d6000fd5b505050506040513d601f19601f820116820180604052508101906110449190611c7b565b6040518060e0016040528060006001600160a01b031681526020016000815260200160008152602001600081526020016060815260200160608152602001600060058111156116e5576116e5611898565b905290565b6001600160a01b03811681146116ff57600080fd5b50565b60006020828403121561171457600080fd5b813561171f816116ea565b9392505050565b634e487b7160e01b600052604160045260246000fd5b604051601f8201601f1916810167ffffffffffffffff8111828210171561176557611765611726565b604052919050565b600067ffffffffffffffff82111561178757611787611726565b5060051b60200190565b600060208083850312156117a457600080fd5b823567ffffffffffffffff8111156117bb57600080fd5b8301601f810185136117cc57600080fd5b80356117df6117da8261176d565b61173c565b81815260059190911b820183019083810190878311156117fe57600080fd5b928401925b82841015611825578335611816816116ea565b82529284019290840190611803565b979650505050505050565b60005b8381101561184b578181015183820152602001611833565b50506000910152565b600081518084526020808501945080840160005b8381101561188d5781516001600160a01b031687529582019590820190600101611868565b509495945050505050565b634e487b7160e01b600052602160045260246000fd5b600681106118cc57634e487b7160e01b600052602160045260246000fd5b9052565b60006020808301818452808551808352604092508286019150828160051b87010184880160005b838110156119b057888303603f19018552815180516001600160a01b03168452878101518885015286810151878501526060808201519085015260808082015160e09186018290528051918601829052610100919061195b82848901838e01611830565b50601f19601f8201168601905060a08084015183888403018289015261198384840182611854565b935050505060c080830151925061199c818701846118ae565b5095880195935050908601906001016118f7565b509098975050505050505050565b6000806000604084860312156119d357600080fd5b83356119de816116ea565b9250602084013567ffffffffffffffff808211156119fb57600080fd5b818601915086601f830112611a0f57600080fd5b813581811115611a1e57600080fd5b8760208260051b8501011115611a3357600080fd5b6020830194508093505050509250925092565b6020808252825182820181905260009190848201906040850190845b81811015611aa557611a9283855180516001600160a01b0316825260208082015190830152604090810151910152565b9284019260609290920191600101611a62565b50909695505050505050565b6020808252825182820181905260009190848201906040850190845b81811015611aa557611afd83855180516001600160a01b0316825260208082015190830152604090810151910152565b9284019260609290920191600101611acd565b602081526000825160a06020840152611b2c60c0840182611854565b90506020840151601f1980858403016040860152611b4a8383611854565b92506040860151915080858403016060860152611b678383611854565b92506060860151915080858403016080860152611b848383611854565b925060808601519150808584030160a086015250611ba28282611854565b95945050505050565b60006101a082019050825182526020830151602083015260408301516040830152606083015160608301526080830151608083015260a083015160a083015260c083015160c083015260e083015160e083015261010080840151818401525061012080840151611c1e8285018215159052565b50506101408381015190830152610160808401519083015261018092830151929091019190915290565b634e487b7160e01b600052603260045260246000fd5b600060208284031215611c7057600080fd5b815161171f816116ea565b600060208284031215611c8d57600080fd5b5051919050565b600060208284031215611ca657600080fd5b815167ffffffffffffffff80821115611cbe57600080fd5b818401915084601f830112611cd257600080fd5b815181811115611ce457611ce4611726565b611cf7601f8201601f191660200161173c565b9150808252856020828501011115611d0e57600080fd5b611d1f816020840160208601611830565b50949350505050565b60006020808385031215611d3b57600080fd5b825167ffffffffffffffff811115611d5257600080fd5b8301601f81018513611d6357600080fd5b8051611d716117da8261176d565b81815260059190911b82018301908381019087831115611d9057600080fd5b928401925b82841015611825578351611da8816116ea565b82529284019290840190611d95565b600060208284031215611dc957600080fd5b81516006811061171f57600080fd5b600060018201611df857634e487b7160e01b600052601160045260246000fd5b5060010190565b600060208284031215611e1157600080fd5b8151801515811461171f57600080fdfea2646970667358221220b8811a96415cba184e197a4a05c3ef9a45bf74c3ba4cf647e717a1d55ff4ce7764736f6c63430008110033",
    "linkReferences": {},
    "deployedLinkReferences": {}
}