{
    "_format": "hh-sol-artifact-1",
    "contractName": "HbbftAggregator",
    "sourceName": "contracts/HbbftAggregator.sol",
    "abi": [
        {
            "inputs": [
                {
                    "internalType": "address",
                    "name": "_st",
                    "type": "address"
                },
                {
                    "internalType": "address",
                    "name": "_vs",
                    "type": "address"
                },
                {
                    "internalType": "address",
                    "name": "_tp",
                    "type": "address"
                }
            ],
            "stateMutability": "nonpayable",
            "type": "constructor"
        },
        {
            "inputs": [],
            "name": "br",
            "outputs": [
                {
                    "internalType": "contract IBlockRewardHbbft",
                    "name": "",
                    "type": "address"
                }
            ],
            "stateMutability": "view",
            "type": "function"
        },
        {
            "inputs": [],
            "name": "getAllPools",
            "outputs": [
                {
                    "components": [
                        {
                            "internalType": "address[]",
                            "name": "activePools",
                            "type": "address[]"
                        },
                        {
                            "internalType": "address[]",
                            "name": "validators",
                            "type": "address[]"
                        },
                        {
                            "internalType": "address[]",
                            "name": "inActivePools",
                            "type": "address[]"
                        },
                        {
                            "internalType": "address[]",
                            "name": "poolsToBeElected",
                            "type": "address[]"
                        },
                        {
                            "internalType": "address[]",
                            "name": "pendingValidators",
                            "type": "address[]"
                        }
                    ],
                    "internalType": "struct HbbftAggregator.Pools",
                    "name": "pools",
                    "type": "tuple"
                }
            ],
            "stateMutability": "view",
            "type": "function"
        },
        {
            "inputs": [],
            "name": "getGlobals",
            "outputs": [
                {
                    "components": [
                        {
                            "internalType": "uint256",
                            "name": "deltaPot",
                            "type": "uint256"
                        },
                        {
                            "internalType": "uint256",
                            "name": "reinsertPot",
                            "type": "uint256"
                        },
                        {
                            "internalType": "uint256",
                            "name": "keygenRound",
                            "type": "uint256"
                        },
                        {
                            "internalType": "uint256",
                            "name": "stakingEpoch",
                            "type": "uint256"
                        },
                        {
                            "internalType": "uint256",
                            "name": "minimumGasPrice",
                            "type": "uint256"
                        },
                        {
                            "internalType": "uint256",
                            "name": "candidateMinStake",
                            "type": "uint256"
                        },
                        {
                            "internalType": "uint256",
                            "name": "delegatorMinStake",
                            "type": "uint256"
                        },
                        {
                            "internalType": "uint256",
                            "name": "stakingEpochStartTime",
                            "type": "uint256"
                        },
                        {
                            "internalType": "uint256",
                            "name": "stakingEpochStartBlock",
                            "type": "uint256"
                        },
                        {
                            "internalType": "bool",
                            "name": "areStakeAndWithdrawAllowed",
                            "type": "bool"
                        },
                        {
                            "internalType": "uint256",
                            "name": "stakingFixedEpochEndTime",
                            "type": "uint256"
                        },
                        {
                            "internalType": "uint256",
                            "name": "stakingFixedEpochDuration",
                            "type": "uint256"
                        },
                        {
                            "internalType": "uint256",
                            "name": "stakingWithdrawDisallowPeriod",
                            "type": "uint256"
                        }
                    ],
                    "internalType": "struct HbbftAggregator.GlobalsData",
                    "name": "_globalsData",
                    "type": "tuple"
                }
            ],
            "stateMutability": "view",
            "type": "function"
        },
        {
            "inputs": [
                {
                    "internalType": "address[]",
                    "name": "_sAs",
                    "type": "address[]"
                }
            ],
            "name": "getPoolsData",
            "outputs": [
                {
                    "components": [
                        {
                            "internalType": "uint256",
                            "name": "banCount",
                            "type": "uint256"
                        },
                        {
                            "internalType": "uint256",
                            "name": "bannedUntil",
                            "type": "uint256"
                        },
                        {
                            "internalType": "uint256",
                            "name": "availableSince",
                            "type": "uint256"
                        }
                    ],
                    "internalType": "struct HbbftAggregator.PoolData[]",
                    "name": "poolsData",
                    "type": "tuple[]"
                }
            ],
            "stateMutability": "view",
            "type": "function"
        },
        {
            "inputs": [
                {
                    "internalType": "address",
                    "name": "_user",
                    "type": "address"
                },
                {
                    "internalType": "address[]",
                    "name": "_pools",
                    "type": "address[]"
                }
            ],
            "name": "getUserOrderedWithdraws",
            "outputs": [
                {
                    "components": [
                        {
                            "internalType": "address",
                            "name": "pool",
                            "type": "address"
                        },
                        {
                            "internalType": "uint256",
                            "name": "orderedAmount",
                            "type": "uint256"
                        },
                        {
                            "internalType": "uint256",
                            "name": "withdrawEpoch",
                            "type": "uint256"
                        }
                    ],
                    "internalType": "struct HbbftAggregator.OrderedWithdrawData[]",
                    "name": "_stakesData",
                    "type": "tuple[]"
                }
            ],
            "stateMutability": "view",
            "type": "function"
        },
        {
            "inputs": [
                {
                    "internalType": "address",
                    "name": "_user",
                    "type": "address"
                },
                {
                    "internalType": "address[]",
                    "name": "_pools",
                    "type": "address[]"
                }
            ],
            "name": "getUserStakes",
            "outputs": [
                {
                    "components": [
                        {
                            "internalType": "address",
                            "name": "pool",
                            "type": "address"
                        },
                        {
                            "internalType": "uint256",
                            "name": "myStakedAmount",
                            "type": "uint256"
                        },
                        {
                            "internalType": "uint256",
                            "name": "stakedAmountTotal",
                            "type": "uint256"
                        }
                    ],
                    "internalType": "struct HbbftAggregator.StakeData[]",
                    "name": "_stakesData",
                    "type": "tuple[]"
                }
            ],
            "stateMutability": "view",
            "type": "function"
        },
        {
            "inputs": [],
            "name": "kh",
            "outputs": [
                {
                    "internalType": "contract IKeyGenHistory",
                    "name": "",
                    "type": "address"
                }
            ],
            "stateMutability": "view",
            "type": "function"
        },
        {
            "inputs": [],
            "name": "owner",
            "outputs": [
                {
                    "internalType": "address",
                    "name": "",
                    "type": "address"
                }
            ],
            "stateMutability": "view",
            "type": "function"
        },
        {
            "inputs": [
                {
                    "internalType": "address",
                    "name": "_br",
                    "type": "address"
                }
            ],
            "name": "setBlockRewardContract",
            "outputs": [],
            "stateMutability": "nonpayable",
            "type": "function"
        },
        {
            "inputs": [
                {
                    "internalType": "address",
                    "name": "_kh",
                    "type": "address"
                }
            ],
            "name": "setKeygenHistoryContract",
            "outputs": [],
            "stateMutability": "nonpayable",
            "type": "function"
        },
        {
            "inputs": [
                {
                    "internalType": "address",
                    "name": "_st",
                    "type": "address"
                }
            ],
            "name": "setStakingContract",
            "outputs": [],
            "stateMutability": "nonpayable",
            "type": "function"
        },
        {
            "inputs": [
                {
                    "internalType": "address",
                    "name": "_tp",
                    "type": "address"
                }
            ],
            "name": "setTxPermissionContract",
            "outputs": [],
            "stateMutability": "nonpayable",
            "type": "function"
        },
        {
            "inputs": [
                {
                    "internalType": "address",
                    "name": "_vs",
                    "type": "address"
                }
            ],
            "name": "setValidatorsSetContract",
            "outputs": [],
            "stateMutability": "nonpayable",
            "type": "function"
        },
        {
            "inputs": [],
            "name": "st",
            "outputs": [
                {
                    "internalType": "contract IStakingHbbft",
                    "name": "",
                    "type": "address"
                }
            ],
            "stateMutability": "view",
            "type": "function"
        },
        {
            "inputs": [],
            "name": "tp",
            "outputs": [
                {
                    "internalType": "contract ITxPermission",
                    "name": "",
                    "type": "address"
                }
            ],
            "stateMutability": "view",
            "type": "function"
        },
        {
            "inputs": [],
            "name": "vs",
            "outputs": [
                {
                    "internalType": "contract IValidatorSetHbbft",
                    "name": "",
                    "type": "address"
                }
            ],
            "stateMutability": "view",
            "type": "function"
        }
    ],
    "bytecode": "0x60806040523480156200001157600080fd5b5060405162001ce138038062001ce18339810160408190526200003491620001ab565b60008054336001600160a01b0319918216179091556001805482166001600160a01b0386811691909117909155600280548316848316179055600580549092169084169081179091556040805163b47aef1f60e01b8152905163b47aef1f916004808201926020929091908290030181865afa158015620000b9573d6000803e3d6000fd5b505050506040513d601f19601f82011682018060405250810190620000df9190620001f5565b600380546001600160a01b0319166001600160a01b0392831617905560055460408051632b5aa5d760e11b8152905191909216916356b54bae9160048083019260209291908290030181865afa1580156200013e573d6000803e3d6000fd5b505050506040513d601f19601f82011682018060405250810190620001649190620001f5565b600480546001600160a01b0319166001600160a01b0392909216919091179055506200021a915050565b80516001600160a01b0381168114620001a657600080fd5b919050565b600080600060608486031215620001c157600080fd5b620001cc846200018e565b9250620001dc602085016200018e565b9150620001ec604085016200018e565b90509250925092565b6000602082840312156200020857600080fd5b62000213826200018e565b9392505050565b611ab7806200022a6000396000f3fe608060405234801561001057600080fd5b50600436106101005760003560e01c8063944de24611610097578063c1b9a95211610066578063c1b9a9521461022f578063d88ff1f414610242578063d9f38c9914610257578063f02a72f51461026c57600080fd5b8063944de246146101c95780639dd373b9146101dc578063a1ae3fb8146101ef578063b4432cea1461020f57600080fd5b80634f514134116100d35780634f5141341461017057806373f0cc2d146101835780638da5cb5b1461019657806391c55c3d146101a957600080fd5b80630691cc6a1461010557806327a3e16b14610135578063336ca2521461014a5780634cfbab001461015d575b600080fd5b600454610118906001600160a01b031681565b6040516001600160a01b0390911681526020015b60405180910390f35b610148610143366004611508565b61027f565b005b600354610118906001600160a01b031681565b61014861016b366004611508565b6102ec565b61014861017e366004611508565b610354565b600154610118906001600160a01b031681565b600054610118906001600160a01b031681565b6101bc6101b7366004611597565b6103bc565b60405161012c9190611636565b600254610118906001600160a01b031681565b6101486101ea366004611508565b61067a565b6102026101fd36600461168f565b6106e2565b60405161012c9190611717565b61022261021d36600461168f565b610931565b60405161012c9190611782565b61014861023d366004611508565b610b80565b61024a610be8565b60405161012c9190611825565b61025f610ea7565b60405161012c91906118c0565b600554610118906001600160a01b031681565b6000546001600160a01b031633146102ca5760405162461bcd60e51b81526020600482015260096024820152682737ba1037bbb732b960b91b60448201526064015b60405180910390fd5b600480546001600160a01b0319166001600160a01b0392909216919091179055565b6000546001600160a01b031633146103325760405162461bcd60e51b81526020600482015260096024820152682737ba1037bbb732b960b91b60448201526064016102c1565b600380546001600160a01b0319166001600160a01b0392909216919091179055565b6000546001600160a01b0316331461039a5760405162461bcd60e51b81526020600482015260096024820152682737ba1037bbb732b960b91b60448201526064016102c1565b600580546001600160a01b0319166001600160a01b0392909216919091179055565b6060815167ffffffffffffffff8111156103d8576103d861152c565b60405190808252806020026020018201604052801561042d57816020015b61041a60405180606001604052806000815260200160008152602001600081525090565b8152602001906001900390816103f65790505b50905060005b82518110156106745760055483516000916001600160a01b03169062535175908690859081106104655761046561195d565b60200260200101516040518263ffffffff1660e01b815260040161049891906001600160a01b0391909116815260200190565b602060405180830381865afa1580156104b5573d6000803e3d6000fd5b505050506040513d601f19601f820116820180604052508101906104d99190611973565b604080516060810191829052600554630e866a6360e11b9092526001600160a01b03808416606483015292935091829116631d0cd4c660848301602060405180830381865afa158015610530573d6000803e3d6000fd5b505050506040513d601f19601f820116820180604052508101906105549190611990565b8152600554604051632c1b684560e11b81526001600160a01b03858116600483015260209093019290911690635836d08a90602401602060405180830381865afa1580156105a6573d6000803e3d6000fd5b505050506040513d601f19601f820116820180604052508101906105ca9190611990565b81526005546040516303072e2960e51b81526001600160a01b038581166004830152602090930192909116906360e5c52090602401602060405180830381865afa15801561061c573d6000803e3d6000fd5b505050506040513d601f19601f820116820180604052508101906106409190611990565b8152508383815181106106555761065561195d565b602002602001018190525050808061066c906119a9565b915050610433565b50919050565b6000546001600160a01b031633146106c05760405162461bcd60e51b81526020600482015260096024820152682737ba1037bbb732b960b91b60448201526064016102c1565b600180546001600160a01b0319166001600160a01b0392909216919091179055565b60608167ffffffffffffffff8111156106fd576106fd61152c565b60405190808252806020026020018201604052801561075b57816020015b610748604051806060016040528060006001600160a01b0316815260200160008152602001600081525090565b81526020019060019003908161071b5790505b50905060005b828110156109295760405180606001604052808585848181106107865761078661195d565b905060200201602081019061079b9190611508565b6001600160a01b0390811682526001546020909201911663a697ecff8787868181106107c9576107c961195d565b90506020020160208101906107de9190611508565b6040516001600160e01b031960e084901b1681526001600160a01b039182166004820152908a166024820152604401602060405180830381865afa15801561082a573d6000803e3d6000fd5b505050506040513d601f19601f8201168201806040525081019061084e9190611990565b81526001546020909101906001600160a01b0316635267e1d68787868181106108795761087961195d565b905060200201602081019061088e9190611508565b6040516001600160e01b031960e084901b1681526001600160a01b039091166004820152602401602060405180830381865afa1580156108d2573d6000803e3d6000fd5b505050506040513d601f19601f820116820180604052508101906108f69190611990565b81525082828151811061090b5761090b61195d565b60200260200101819052508080610921906119a9565b915050610761565b509392505050565b60608167ffffffffffffffff81111561094c5761094c61152c565b6040519080825280602002602001820160405280156109aa57816020015b610997604051806060016040528060006001600160a01b0316815260200160008152602001600081525090565b81526020019060019003908161096a5790505b50905060005b828110156109295760405180606001604052808585848181106109d5576109d561195d565b90506020020160208101906109ea9190611508565b6001600160a01b0390811682526001546020909201911663e9ab0300878786818110610a1857610a1861195d565b9050602002016020810190610a2d9190611508565b6040516001600160e01b031960e084901b1681526001600160a01b039182166004820152908a166024820152604401602060405180830381865afa158015610a79573d6000803e3d6000fd5b505050506040513d601f19601f82011682018060405250810190610a9d9190611990565b81526001546020909101906001600160a01b031663a4205967878786818110610ac857610ac861195d565b9050602002016020810190610add9190611508565b6040516001600160e01b031960e084901b1681526001600160a01b039182166004820152908a166024820152604401602060405180830381865afa158015610b29573d6000803e3d6000fd5b505050506040513d601f19601f82011682018060405250810190610b4d9190611990565b815250828281518110610b6257610b6261195d565b60200260200101819052508080610b78906119a9565b9150506109b0565b6000546001600160a01b03163314610bc65760405162461bcd60e51b81526020600482015260096024820152682737ba1037bbb732b960b91b60448201526064016102c1565b600280546001600160a01b0319166001600160a01b0392909216919091179055565b610c1a6040518060a0016040528060608152602001606081526020016060815260200160608152602001606081525090565b6040518060a00160405280600160009054906101000a90046001600160a01b03166001600160a01b031663673a2a1f6040518163ffffffff1660e01b8152600401600060405180830381865afa158015610c78573d6000803e3d6000fd5b505050506040513d6000823e601f3d908101601f19168201604052610ca091908101906119d0565b8152602001600560009054906101000a90046001600160a01b03166001600160a01b031663b7ab4db56040518163ffffffff1660e01b8152600401600060405180830381865afa158015610cf8573d6000803e3d6000fd5b505050506040513d6000823e601f3d908101601f19168201604052610d2091908101906119d0565b8152602001600160009054906101000a90046001600160a01b03166001600160a01b031663df6f55f56040518163ffffffff1660e01b8152600401600060405180830381865afa158015610d78573d6000803e3d6000fd5b505050506040513d6000823e601f3d908101601f19168201604052610da091908101906119d0565b8152602001600160009054906101000a90046001600160a01b03166001600160a01b031663a5d54f656040518163ffffffff1660e01b8152600401600060405180830381865afa158015610df8573d6000803e3d6000fd5b505050506040513d6000823e601f3d908101601f19168201604052610e2091908101906119d0565b8152602001600560009054906101000a90046001600160a01b03166001600160a01b031663eebc7a396040518163ffffffff1660e01b8152600401600060405180830381865afa158015610e78573d6000803e3d6000fd5b505050506040513d6000823e601f3d908101601f19168201604052610ea091908101906119d0565b9052919050565b610f14604051806101a001604052806000815260200160008152602001600081526020016000815260200160008152602001600081526020016000815260200160008152602001600081526020016000151581526020016000815260200160008152602001600081525090565b604051806101a00160405280600460009054906101000a90046001600160a01b03166001600160a01b0316635c57a8016040518163ffffffff1660e01b8152600401602060405180830381865afa158015610f73573d6000803e3d6000fd5b505050506040513d601f19601f82011682018060405250810190610f979190611990565b8152602001600460009054906101000a90046001600160a01b03166001600160a01b03166373f129586040518163ffffffff1660e01b8152600401602060405180830381865afa158015610fef573d6000803e3d6000fd5b505050506040513d601f19601f820116820180604052508101906110139190611990565b8152600354604080516348bb1b2d60e01b815290516020938401936001600160a01b03909316926348bb1b2d92600480820193918290030181865afa158015611060573d6000803e3d6000fd5b505050506040513d601f19601f820116820180604052508101906110849190611990565b815260015460408051636d3d4db560e11b815290516020938401936001600160a01b039093169263da7a9b6a92600480820193918290030181865afa1580156110d1573d6000803e3d6000fd5b505050506040513d601f19601f820116820180604052508101906110f59190611990565b815260025460408051636f9e767b60e11b815290516020938401936001600160a01b039093169263df3cecf692600480820193918290030181865afa158015611142573d6000803e3d6000fd5b505050506040513d601f19601f820116820180604052508101906111669190611990565b815260015460408051635fef764360e01b815290516020938401936001600160a01b0390931692635fef764392600480820193918290030181865afa1580156111b3573d6000803e3d6000fd5b505050506040513d601f19601f820116820180604052508101906111d79190611990565b815260015460408051636d3d4db560e11b815290516020938401936001600160a01b039093169263da7a9b6a92600480820193918290030181865afa158015611224573d6000803e3d6000fd5b505050506040513d601f19601f820116820180604052508101906112489190611990565b8152600154604080516326c0f5d160e21b815290516020938401936001600160a01b0390931692639b03d74492600480820193918290030181865afa158015611295573d6000803e3d6000fd5b505050506040513d601f19601f820116820180604052508101906112b99190611990565b815260015460408051633834f3a360e11b815290516020938401936001600160a01b0390931692637069e74692600480820193918290030181865afa158015611306573d6000803e3d6000fd5b505050506040513d601f19601f8201168201806040525081019061132a9190611990565b81526001546040805163f494250160e01b815290516020938401936001600160a01b039093169263f494250192600480820193918290030181865afa158015611377573d6000803e3d6000fd5b505050506040513d601f19601f8201168201806040525081019061139b9190611a5f565b1515815260015460408051631171ecc360e11b815290516020938401936001600160a01b03909316926322e3d98692600480820193918290030181865afa1580156113ea573d6000803e3d6000fd5b505050506040513d601f19601f8201168201806040525081019061140e9190611990565b815260015460408051634f9a8d8f60e01b815290516020938401936001600160a01b0390931692634f9a8d8f92600480820193918290030181865afa15801561145b573d6000803e3d6000fd5b505050506040513d601f19601f8201168201806040525081019061147f9190611990565b81526001546040805163028b8bdb60e01b815290516020938401936001600160a01b039093169263028b8bdb92600480820193918290030181865afa1580156114cc573d6000803e3d6000fd5b505050506040513d601f19601f82011682018060405250810190610ea09190611990565b6001600160a01b038116811461150557600080fd5b50565b60006020828403121561151a57600080fd5b8135611525816114f0565b9392505050565b634e487b7160e01b600052604160045260246000fd5b604051601f8201601f1916810167ffffffffffffffff8111828210171561156b5761156b61152c565b604052919050565b600067ffffffffffffffff82111561158d5761158d61152c565b5060051b60200190565b600060208083850312156115aa57600080fd5b823567ffffffffffffffff8111156115c157600080fd5b8301601f810185136115d257600080fd5b80356115e56115e082611573565b611542565b81815260059190911b8201830190838101908783111561160457600080fd5b928401925b8284101561162b57833561161c816114f0565b82529284019290840190611609565b979650505050505050565b602080825282518282018190526000919060409081850190868401855b828110156116825781518051855286810151878601528501518585015260609093019290850190600101611653565b5091979650505050505050565b6000806000604084860312156116a457600080fd5b83356116af816114f0565b9250602084013567ffffffffffffffff808211156116cc57600080fd5b818601915086601f8301126116e057600080fd5b8135818111156116ef57600080fd5b8760208260051b850101111561170457600080fd5b6020830194508093505050509250925092565b6020808252825182820181905260009190848201906040850190845b818110156117765761176383855180516001600160a01b0316825260208082015190830152604090810151910152565b9284019260609290920191600101611733565b50909695505050505050565b6020808252825182820181905260009190848201906040850190845b81811015611776576117ce83855180516001600160a01b0316825260208082015190830152604090810151910152565b928401926060929092019160010161179e565b600081518084526020808501945080840160005b8381101561181a5781516001600160a01b0316875295820195908201906001016117f5565b509495945050505050565b602081526000825160a0602084015261184160c08401826117e1565b90506020840151601f198085840301604086015261185f83836117e1565b9250604086015191508085840301606086015261187c83836117e1565b9250606086015191508085840301608086015261189983836117e1565b925060808601519150808584030160a0860152506118b782826117e1565b95945050505050565b60006101a082019050825182526020830151602083015260408301516040830152606083015160608301526080830151608083015260a083015160a083015260c083015160c083015260e083015160e0830152610100808401518184015250610120808401516119338285018215159052565b50506101408381015190830152610160808401519083015261018092830151929091019190915290565b634e487b7160e01b600052603260045260246000fd5b60006020828403121561198557600080fd5b8151611525816114f0565b6000602082840312156119a257600080fd5b5051919050565b6000600182016119c957634e487b7160e01b600052601160045260246000fd5b5060010190565b600060208083850312156119e357600080fd5b825167ffffffffffffffff8111156119fa57600080fd5b8301601f81018513611a0b57600080fd5b8051611a196115e082611573565b81815260059190911b82018301908381019087831115611a3857600080fd5b928401925b8284101561162b578351611a50816114f0565b82529284019290840190611a3d565b600060208284031215611a7157600080fd5b8151801515811461152557600080fdfea2646970667358221220e55d85e7ffd8207bfdfb52f5842c08d22902d17bebfb74857f61426b8ac8d46464736f6c63430008110033",
    "linkReferences": {},
    "deployedLinkReferences": {}
}