{
  "_format": "hh-sol-artifact-1",
  "contractName": "DMDAggregator",
  "sourceName": "contracts/Aggregator.sol",
  "abi": [
    {
      "inputs": [
        {
          "internalType": "address",
          "name": "_st",
          "type": "address"
        },
        {
          "internalType": "address",
          "name": "_vs",
          "type": "address"
        },
        {
          "internalType": "address",
          "name": "_tp",
          "type": "address"
        }
      ],
      "stateMutability": "nonpayable",
      "type": "constructor"
    },
    {
      "inputs": [],
      "name": "br",
      "outputs": [
        {
          "internalType": "contract IBlockRewardHbbft",
          "name": "",
          "type": "address"
        }
      ],
      "stateMutability": "view",
      "type": "function"
    },
    {
      "inputs": [],
      "name": "getAllPools",
      "outputs": [
        {
          "components": [
            {
              "internalType": "address[]",
              "name": "activePools",
              "type": "address[]"
            },
            {
              "internalType": "address[]",
              "name": "validators",
              "type": "address[]"
            },
            {
              "internalType": "address[]",
              "name": "inActivePools",
              "type": "address[]"
            },
            {
              "internalType": "address[]",
              "name": "poolsToBeElected",
              "type": "address[]"
            },
            {
              "internalType": "address[]",
              "name": "pendingValidators",
              "type": "address[]"
            }
          ],
          "internalType": "struct DMDAggregator.Pools",
          "name": "pools",
          "type": "tuple"
        }
      ],
      "stateMutability": "view",
      "type": "function"
    },
    {
      "inputs": [
        {
          "internalType": "address[]",
          "name": "delegators",
          "type": "address[]"
        },
        {
          "internalType": "address",
          "name": "poolAddress",
          "type": "address"
        }
      ],
      "name": "getDelegationsData",
      "outputs": [
        {
          "components": [
            {
              "internalType": "address",
              "name": "delegator",
              "type": "address"
            },
            {
              "internalType": "uint256",
              "name": "delegatedAmount",
              "type": "uint256"
            }
          ],
          "internalType": "struct DMDAggregator.DelegateData[]",
          "name": "_delegatesData",
          "type": "tuple[]"
        },
        {
          "internalType": "uint256",
          "name": "_ownStake",
          "type": "uint256"
        },
        {
          "internalType": "uint256",
          "name": "_candidateStake",
          "type": "uint256"
        }
      ],
      "stateMutability": "view",
      "type": "function"
    },
    {
      "inputs": [],
      "name": "getGlobals",
      "outputs": [
        {
          "components": [
            {
              "internalType": "uint256",
              "name": "deltaPot",
              "type": "uint256"
            },
            {
              "internalType": "uint256",
              "name": "reinsertPot",
              "type": "uint256"
            },
            {
              "internalType": "uint256",
              "name": "keygenRound",
              "type": "uint256"
            },
            {
              "internalType": "uint256",
              "name": "stakingEpoch",
              "type": "uint256"
            },
            {
              "internalType": "uint256",
              "name": "minimumGasPrice",
              "type": "uint256"
            },
            {
              "internalType": "uint256",
              "name": "candidateMinStake",
              "type": "uint256"
            },
            {
              "internalType": "uint256",
              "name": "delegatorMinStake",
              "type": "uint256"
            },
            {
              "internalType": "uint256",
              "name": "stakingEpochStartTime",
              "type": "uint256"
            },
            {
              "internalType": "uint256",
              "name": "stakingEpochStartBlock",
              "type": "uint256"
            },
            {
              "internalType": "bool",
              "name": "areStakeAndWithdrawAllowed",
              "type": "bool"
            },
            {
              "internalType": "uint256",
              "name": "stakingFixedEpochEndTime",
              "type": "uint256"
            },
            {
              "internalType": "uint256",
              "name": "stakingFixedEpochDuration",
              "type": "uint256"
            },
            {
              "internalType": "uint256",
              "name": "stakingWithdrawDisallowPeriod",
              "type": "uint256"
            }
          ],
          "internalType": "struct DMDAggregator.GlobalsData",
          "name": "_globalsData",
          "type": "tuple"
        }
      ],
      "stateMutability": "view",
      "type": "function"
    },
    {
      "inputs": [
        {
          "internalType": "address[]",
          "name": "_sAs",
          "type": "address[]"
        }
      ],
      "name": "getPoolsData",
      "outputs": [
        {
          "components": [
            {
              "internalType": "address",
              "name": "miningAddress",
              "type": "address"
            },
            {
              "internalType": "uint256",
              "name": "availableSince",
              "type": "uint256"
            },
            {
              "internalType": "bytes",
              "name": "publicKey",
              "type": "bytes"
            },
            {
              "internalType": "address[]",
              "name": "delegators",
              "type": "address[]"
            },
            {
              "internalType": "enum IValidatorSetHbbft.KeyGenMode",
              "name": "keygenMode",
              "type": "uint8"
            },
            {
              "internalType": "uint256",
              "name": "stakedAmountTotal",
              "type": "uint256"
            }
          ],
          "internalType": "struct DMDAggregator.PoolData[]",
          "name": "poolsData",
          "type": "tuple[]"
        }
      ],
      "stateMutability": "view",
      "type": "function"
    },
    {
      "inputs": [
        {
          "internalType": "address",
          "name": "_user",
          "type": "address"
        },
        {
          "internalType": "address[]",
          "name": "_pools",
          "type": "address[]"
        }
      ],
      "name": "getUserOrderedWithdraws",
      "outputs": [
        {
          "components": [
            {
              "internalType": "address",
              "name": "pool",
              "type": "address"
            },
            {
              "internalType": "uint256",
              "name": "orderedAmount",
              "type": "uint256"
            },
            {
              "internalType": "uint256",
              "name": "withdrawEpoch",
              "type": "uint256"
            }
          ],
          "internalType": "struct DMDAggregator.OrderedWithdrawData[]",
          "name": "_stakesData",
          "type": "tuple[]"
        }
      ],
      "stateMutability": "view",
      "type": "function"
    },
    {
      "inputs": [
        {
          "internalType": "address",
          "name": "_user",
          "type": "address"
        },
        {
          "internalType": "address[]",
          "name": "_pools",
          "type": "address[]"
        }
      ],
      "name": "getUserStakes",
      "outputs": [
        {
          "components": [
            {
              "internalType": "address",
              "name": "pool",
              "type": "address"
            },
            {
              "internalType": "uint256",
              "name": "myStakedAmount",
              "type": "uint256"
            },
            {
              "internalType": "uint256",
              "name": "stakedAmountTotal",
              "type": "uint256"
            }
          ],
          "internalType": "struct DMDAggregator.StakeData[]",
          "name": "_stakesData",
          "type": "tuple[]"
        }
      ],
      "stateMutability": "view",
      "type": "function"
    },
    {
      "inputs": [],
      "name": "kh",
      "outputs": [
        {
          "internalType": "contract IKeyGenHistory",
          "name": "",
          "type": "address"
        }
      ],
      "stateMutability": "view",
      "type": "function"
    },
    {
      "inputs": [],
      "name": "owner",
      "outputs": [
        {
          "internalType": "address",
          "name": "",
          "type": "address"
        }
      ],
      "stateMutability": "view",
      "type": "function"
    },
    {
      "inputs": [
        {
          "internalType": "address",
          "name": "_br",
          "type": "address"
        }
      ],
      "name": "setBlockRewardContract",
      "outputs": [],
      "stateMutability": "nonpayable",
      "type": "function"
    },
    {
      "inputs": [
        {
          "internalType": "address",
          "name": "_kh",
          "type": "address"
        }
      ],
      "name": "setKeygenHistoryContract",
      "outputs": [],
      "stateMutability": "nonpayable",
      "type": "function"
    },
    {
      "inputs": [
        {
          "internalType": "address",
          "name": "_st",
          "type": "address"
        }
      ],
      "name": "setStakingContract",
      "outputs": [],
      "stateMutability": "nonpayable",
      "type": "function"
    },
    {
      "inputs": [
        {
          "internalType": "address",
          "name": "_tp",
          "type": "address"
        }
      ],
      "name": "setTxPermissionContract",
      "outputs": [],
      "stateMutability": "nonpayable",
      "type": "function"
    },
    {
      "inputs": [
        {
          "internalType": "address",
          "name": "_vs",
          "type": "address"
        }
      ],
      "name": "setValidatorsSetContract",
      "outputs": [],
      "stateMutability": "nonpayable",
      "type": "function"
    },
    {
      "inputs": [],
      "name": "st",
      "outputs": [
        {
          "internalType": "contract IStakingHbbft",
          "name": "",
          "type": "address"
        }
      ],
      "stateMutability": "view",
      "type": "function"
    },
    {
      "inputs": [],
      "name": "tp",
      "outputs": [
        {
          "internalType": "contract ITxPermission",
          "name": "",
          "type": "address"
        }
      ],
      "stateMutability": "view",
      "type": "function"
    },
    {
      "inputs": [],
      "name": "vs",
      "outputs": [
        {
          "internalType": "contract IValidatorSetHbbft",
          "name": "",
          "type": "address"
        }
      ],
      "stateMutability": "view",
      "type": "function"
    }
  ],
  "bytecode": "0x60806040523480156200001157600080fd5b506040516200378538038062003785833981810160405281019062000037919062000355565b336000806101000a81548173ffffffffffffffffffffffffffffffffffffffff021916908373ffffffffffffffffffffffffffffffffffffffff16021790555082600160006101000a81548173ffffffffffffffffffffffffffffffffffffffff021916908373ffffffffffffffffffffffffffffffffffffffff16021790555080600260006101000a81548173ffffffffffffffffffffffffffffffffffffffff021916908373ffffffffffffffffffffffffffffffffffffffff16021790555081600560006101000a81548173ffffffffffffffffffffffffffffffffffffffff021916908373ffffffffffffffffffffffffffffffffffffffff160217905550600560009054906101000a900473ffffffffffffffffffffffffffffffffffffffff1673ffffffffffffffffffffffffffffffffffffffff1663b47aef1f6040518163ffffffff1660e01b8152600401602060405180830381865afa158015620001a8573d6000803e3d6000fd5b505050506040513d601f19601f82011682018060405250810190620001ce9190620003b1565b600360006101000a81548173ffffffffffffffffffffffffffffffffffffffff021916908373ffffffffffffffffffffffffffffffffffffffff160217905550600560009054906101000a900473ffffffffffffffffffffffffffffffffffffffff1673ffffffffffffffffffffffffffffffffffffffff166356b54bae6040518163ffffffff1660e01b8152600401602060405180830381865afa1580156200027c573d6000803e3d6000fd5b505050506040513d601f19601f82011682018060405250810190620002a29190620003b1565b600460006101000a81548173ffffffffffffffffffffffffffffffffffffffff021916908373ffffffffffffffffffffffffffffffffffffffff160217905550505050620003e3565b600080fd5b600073ffffffffffffffffffffffffffffffffffffffff82169050919050565b60006200031d82620002f0565b9050919050565b6200032f8162000310565b81146200033b57600080fd5b50565b6000815190506200034f8162000324565b92915050565b600080600060608486031215620003715762000370620002eb565b5b600062000381868287016200033e565b935050602062000394868287016200033e565b9250506040620003a7868287016200033e565b9150509250925092565b600060208284031215620003ca57620003c9620002eb565b5b6000620003da848285016200033e565b91505092915050565b61339280620003f36000396000f3fe608060405234801561001057600080fd5b506004361061010b5760003560e01c8063944de246116100a2578063b55efa5e11610071578063b55efa5e146102a6578063c1b9a952146102d8578063d88ff1f4146102f4578063d9f38c9914610312578063f02a72f5146103305761010b565b8063944de2461461020c5780639dd373b91461022a578063a1ae3fb814610246578063b4432cea146102765761010b565b80634f514134116100de5780634f5141341461018457806373f0cc2d146101a05780638da5cb5b146101be57806391c55c3d146101dc5761010b565b80630691cc6a1461011057806327a3e16b1461012e578063336ca2521461014a5780634cfbab0014610168575b600080fd5b61011861034e565b604051610125919061219e565b60405180910390f35b6101486004803603810190610143919061220b565b610374565b005b610152610446565b60405161015f9190612259565b60405180910390f35b610182600480360381019061017d919061220b565b61046c565b005b61019e6004803603810190610199919061220b565b61053e565b005b6101a8610610565b6040516101b59190612295565b60405180910390f35b6101c6610636565b6040516101d391906122bf565b60405180910390f35b6101f660048036038101906101f19190612433565b61065a565b604051610203919061279b565b60405180910390f35b610214610b4a565b60405161022191906127de565b60405180910390f35b610244600480360381019061023f919061220b565b610b70565b005b610260600480360381019061025b9190612854565b610c42565b60405161026d91906129a5565b60405180910390f35b610290600480360381019061028b9190612854565b610ec2565b60405161029d9190612ab8565b60405180910390f35b6102c060048036038101906102bb9190612ada565b611144565b6040516102cf93929190612c23565b60405180910390f35b6102f260048036038101906102ed919061220b565b6113be565b005b6102fc611490565b6040516103099190612cf3565b60405180910390f35b61031a6117ad565b6040516103279190612e3b565b60405180910390f35b610338611f64565b6040516103459190612e78565b60405180910390f35b600460009054906101000a900473ffffffffffffffffffffffffffffffffffffffff1681565b60008054906101000a900473ffffffffffffffffffffffffffffffffffffffff1673ffffffffffffffffffffffffffffffffffffffff163373ffffffffffffffffffffffffffffffffffffffff1614610402576040517f08c379a00000000000000000000000000000000000000000000000000000000081526004016103f990612ef0565b60405180910390fd5b80600460006101000a81548173ffffffffffffffffffffffffffffffffffffffff021916908373ffffffffffffffffffffffffffffffffffffffff16021790555050565b600360009054906101000a900473ffffffffffffffffffffffffffffffffffffffff1681565b60008054906101000a900473ffffffffffffffffffffffffffffffffffffffff1673ffffffffffffffffffffffffffffffffffffffff163373ffffffffffffffffffffffffffffffffffffffff16146104fa576040517f08c379a00000000000000000000000000000000000000000000000000000000081526004016104f190612ef0565b60405180910390fd5b80600360006101000a81548173ffffffffffffffffffffffffffffffffffffffff021916908373ffffffffffffffffffffffffffffffffffffffff16021790555050565b60008054906101000a900473ffffffffffffffffffffffffffffffffffffffff1673ffffffffffffffffffffffffffffffffffffffff163373ffffffffffffffffffffffffffffffffffffffff16146105cc576040517f08c379a00000000000000000000000000000000000000000000000000000000081526004016105c390612ef0565b60405180910390fd5b80600560006101000a81548173ffffffffffffffffffffffffffffffffffffffff021916908373ffffffffffffffffffffffffffffffffffffffff16021790555050565b600160009054906101000a900473ffffffffffffffffffffffffffffffffffffffff1681565b60008054906101000a900473ffffffffffffffffffffffffffffffffffffffff1681565b6060815167ffffffffffffffff811115610677576106766122f0565b5b6040519080825280602002602001820160405280156106b057816020015b61069d611f8a565b8152602001906001900390816106955790505b50905060005b8251811015610b44576000600560009054906101000a900473ffffffffffffffffffffffffffffffffffffffff1673ffffffffffffffffffffffffffffffffffffffff166253517585848151811061071157610710612f10565b5b60200260200101516040518263ffffffff1660e01b815260040161073591906122bf565b602060405180830381865afa158015610752573d6000803e3d6000fd5b505050506040513d601f19601f820116820180604052508101906107769190612f54565b90506040518060c001604052808273ffffffffffffffffffffffffffffffffffffffff168152602001600560009054906101000a900473ffffffffffffffffffffffffffffffffffffffff1673ffffffffffffffffffffffffffffffffffffffff166360e5c520846040518263ffffffff1660e01b81526004016107fa91906122bf565b602060405180830381865afa158015610817573d6000803e3d6000fd5b505050506040513d601f19601f8201168201806040525081019061083b9190612fad565b8152602001600560009054906101000a900473ffffffffffffffffffffffffffffffffffffffff1673ffffffffffffffffffffffffffffffffffffffff1663857cdbb8846040518263ffffffff1660e01b815260040161089b91906122bf565b600060405180830381865afa1580156108b8573d6000803e3d6000fd5b505050506040513d6000823e3d601f19601f820116820180604052508101906108e19190613080565b8152602001600160009054906101000a900473ffffffffffffffffffffffffffffffffffffffff1673ffffffffffffffffffffffffffffffffffffffff16639ea8082b87868151811061093757610936612f10565b5b60200260200101516040518263ffffffff1660e01b815260040161095b91906122bf565b600060405180830381865afa158015610978573d6000803e3d6000fd5b505050506040513d6000823e3d601f19601f820116820180604052508101906109a19190613160565b8152602001600560009054906101000a900473ffffffffffffffffffffffffffffffffffffffff1673ffffffffffffffffffffffffffffffffffffffff166314e28d90846040518263ffffffff1660e01b8152600401610a0191906122bf565b602060405180830381865afa158015610a1e573d6000803e3d6000fd5b505050506040513d601f19601f82011682018060405250810190610a4291906131ce565b6005811115610a5457610a536125fe565b5b8152602001600160009054906101000a900473ffffffffffffffffffffffffffffffffffffffff1673ffffffffffffffffffffffffffffffffffffffff16635267e1d6878681518110610aaa57610aa9612f10565b5b60200260200101516040518263ffffffff1660e01b8152600401610ace91906122bf565b602060405180830381865afa158015610aeb573d6000803e3d6000fd5b505050506040513d601f19601f82011682018060405250810190610b0f9190612fad565b815250838381518110610b2557610b24612f10565b5b6020026020010181905250508080610b3c9061322a565b9150506106b6565b50919050565b600260009054906101000a900473ffffffffffffffffffffffffffffffffffffffff1681565b60008054906101000a900473ffffffffffffffffffffffffffffffffffffffff1673ffffffffffffffffffffffffffffffffffffffff163373ffffffffffffffffffffffffffffffffffffffff1614610bfe576040517f08c379a0000000000000000000000000000000000000000000000000000000008152600401610bf590612ef0565b60405180910390fd5b80600160006101000a81548173ffffffffffffffffffffffffffffffffffffffff021916908373ffffffffffffffffffffffffffffffffffffffff16021790555050565b60608282905067ffffffffffffffff811115610c6157610c606122f0565b5b604051908082528060200260200182016040528015610c9a57816020015b610c87611fe8565b815260200190600190039081610c7f5790505b50905060005b83839050811015610eba576040518060600160405280858584818110610cc957610cc8612f10565b5b9050602002016020810190610cde919061220b565b73ffffffffffffffffffffffffffffffffffffffff168152602001600160009054906101000a900473ffffffffffffffffffffffffffffffffffffffff1673ffffffffffffffffffffffffffffffffffffffff1663a697ecff878786818110610d4a57610d49612f10565b5b9050602002016020810190610d5f919061220b565b896040518363ffffffff1660e01b8152600401610d7d929190613272565b602060405180830381865afa158015610d9a573d6000803e3d6000fd5b505050506040513d601f19601f82011682018060405250810190610dbe9190612fad565b8152602001600160009054906101000a900473ffffffffffffffffffffffffffffffffffffffff1673ffffffffffffffffffffffffffffffffffffffff16635267e1d6878786818110610e1457610e13612f10565b5b9050602002016020810190610e29919061220b565b6040518263ffffffff1660e01b8152600401610e4591906122bf565b602060405180830381865afa158015610e62573d6000803e3d6000fd5b505050506040513d601f19601f82011682018060405250810190610e869190612fad565b815250828281518110610e9c57610e9b612f10565b5b60200260200101819052508080610eb29061322a565b915050610ca0565b509392505050565b60608282905067ffffffffffffffff811115610ee157610ee06122f0565b5b604051908082528060200260200182016040528015610f1a57816020015b610f0761201f565b815260200190600190039081610eff5790505b50905060005b8383905081101561113c576040518060600160405280858584818110610f4957610f48612f10565b5b9050602002016020810190610f5e919061220b565b73ffffffffffffffffffffffffffffffffffffffff168152602001600160009054906101000a900473ffffffffffffffffffffffffffffffffffffffff1673ffffffffffffffffffffffffffffffffffffffff1663e9ab0300878786818110610fca57610fc9612f10565b5b9050602002016020810190610fdf919061220b565b896040518363ffffffff1660e01b8152600401610ffd929190613272565b602060405180830381865afa15801561101a573d6000803e3d6000fd5b505050506040513d601f19601f8201168201806040525081019061103e9190612fad565b8152602001600160009054906101000a900473ffffffffffffffffffffffffffffffffffffffff1673ffffffffffffffffffffffffffffffffffffffff1663a420596787878681811061109457611093612f10565b5b90506020020160208101906110a9919061220b565b896040518363ffffffff1660e01b81526004016110c7929190613272565b602060405180830381865afa1580156110e4573d6000803e3d6000fd5b505050506040513d601f19601f820116820180604052508101906111089190612fad565b81525082828151811061111e5761111d612f10565b5b602002602001018190525080806111349061322a565b915050610f20565b509392505050565b6060600080845167ffffffffffffffff811115611164576111636122f0565b5b60405190808252806020026020018201604052801561119d57816020015b61118a612056565b8152602001906001900390816111825790505b50925060005b855181101561130d5760008682815181106111c1576111c0612f10565b5b602002602001015190506000600160009054906101000a900473ffffffffffffffffffffffffffffffffffffffff1673ffffffffffffffffffffffffffffffffffffffff1663a697ecff88846040518363ffffffff1660e01b815260040161122a929190613272565b602060405180830381865afa158015611247573d6000803e3d6000fd5b505050506040513d601f19601f8201168201806040525081019061126b9190612fad565b905060405180604001604052808373ffffffffffffffffffffffffffffffffffffffff168152602001828152508684815181106112ab576112aa612f10565b5b60200260200101819052508173ffffffffffffffffffffffffffffffffffffffff168773ffffffffffffffffffffffffffffffffffffffff16146112f85780846112f5919061329b565b93505b505080806113059061322a565b9150506111a3565b5080600160009054906101000a900473ffffffffffffffffffffffffffffffffffffffff1673ffffffffffffffffffffffffffffffffffffffff16635267e1d6866040518263ffffffff1660e01b815260040161136a91906122bf565b602060405180830381865afa158015611387573d6000803e3d6000fd5b505050506040513d601f19601f820116820180604052508101906113ab9190612fad565b6113b591906132cf565b91509250925092565b60008054906101000a900473ffffffffffffffffffffffffffffffffffffffff1673ffffffffffffffffffffffffffffffffffffffff163373ffffffffffffffffffffffffffffffffffffffff161461144c576040517f08c379a000000000000000000000000000000000000000000000000000000000815260040161144390612ef0565b60405180910390fd5b80600260006101000a81548173ffffffffffffffffffffffffffffffffffffffff021916908373ffffffffffffffffffffffffffffffffffffffff16021790555050565b611498612086565b6040518060a00160405280600160009054906101000a900473ffffffffffffffffffffffffffffffffffffffff1673ffffffffffffffffffffffffffffffffffffffff1663673a2a1f6040518163ffffffff1660e01b8152600401600060405180830381865afa158015611510573d6000803e3d6000fd5b505050506040513d6000823e3d601f19601f820116820180604052508101906115399190613160565b8152602001600560009054906101000a900473ffffffffffffffffffffffffffffffffffffffff1673ffffffffffffffffffffffffffffffffffffffff1663b7ab4db56040518163ffffffff1660e01b8152600401600060405180830381865afa1580156115ab573d6000803e3d6000fd5b505050506040513d6000823e3d601f19601f820116820180604052508101906115d49190613160565b8152602001600160009054906101000a900473ffffffffffffffffffffffffffffffffffffffff1673ffffffffffffffffffffffffffffffffffffffff1663df6f55f56040518163ffffffff1660e01b8152600401600060405180830381865afa158015611646573d6000803e3d6000fd5b505050506040513d6000823e3d601f19601f8201168201806040525081019061166f9190613160565b8152602001600160009054906101000a900473ffffffffffffffffffffffffffffffffffffffff1673ffffffffffffffffffffffffffffffffffffffff1663a5d54f656040518163ffffffff1660e01b8152600401600060405180830381865afa1580156116e1573d6000803e3d6000fd5b505050506040513d6000823e3d601f19601f8201168201806040525081019061170a9190613160565b8152602001600560009054906101000a900473ffffffffffffffffffffffffffffffffffffffff1673ffffffffffffffffffffffffffffffffffffffff1663eebc7a396040518163ffffffff1660e01b8152600401600060405180830381865afa15801561177c573d6000803e3d6000fd5b505050506040513d6000823e3d601f19601f820116820180604052508101906117a59190613160565b815250905090565b6117b56120b5565b604051806101a00160405280600460009054906101000a900473ffffffffffffffffffffffffffffffffffffffff1673ffffffffffffffffffffffffffffffffffffffff16635c57a8016040518163ffffffff1660e01b8152600401602060405180830381865afa15801561182e573d6000803e3d6000fd5b505050506040513d601f19601f820116820180604052508101906118529190612fad565b8152602001600460009054906101000a900473ffffffffffffffffffffffffffffffffffffffff1673ffffffffffffffffffffffffffffffffffffffff166373f129586040518163ffffffff1660e01b8152600401602060405180830381865afa1580156118c4573d6000803e3d6000fd5b505050506040513d601f19601f820116820180604052508101906118e89190612fad565b8152602001600360009054906101000a900473ffffffffffffffffffffffffffffffffffffffff1673ffffffffffffffffffffffffffffffffffffffff166348bb1b2d6040518163ffffffff1660e01b8152600401602060405180830381865afa15801561195a573d6000803e3d6000fd5b505050506040513d601f19601f8201168201806040525081019061197e9190612fad565b8152602001600160009054906101000a900473ffffffffffffffffffffffffffffffffffffffff1673ffffffffffffffffffffffffffffffffffffffff1663794c0c686040518163ffffffff1660e01b8152600401602060405180830381865afa1580156119f0573d6000803e3d6000fd5b505050506040513d601f19601f82011682018060405250810190611a149190612fad565b8152602001600260009054906101000a900473ffffffffffffffffffffffffffffffffffffffff1673ffffffffffffffffffffffffffffffffffffffff1663df3cecf66040518163ffffffff1660e01b8152600401602060405180830381865afa158015611a86573d6000803e3d6000fd5b505050506040513d601f19601f82011682018060405250810190611aaa9190612fad565b8152602001600160009054906101000a900473ffffffffffffffffffffffffffffffffffffffff1673ffffffffffffffffffffffffffffffffffffffff16635fef76436040518163ffffffff1660e01b8152600401602060405180830381865afa158015611b1c573d6000803e3d6000fd5b505050506040513d601f19601f82011682018060405250810190611b409190612fad565b8152602001600160009054906101000a900473ffffffffffffffffffffffffffffffffffffffff1673ffffffffffffffffffffffffffffffffffffffff1663da7a9b6a6040518163ffffffff1660e01b8152600401602060405180830381865afa158015611bb2573d6000803e3d6000fd5b505050506040513d601f19601f82011682018060405250810190611bd69190612fad565b8152602001600160009054906101000a900473ffffffffffffffffffffffffffffffffffffffff1673ffffffffffffffffffffffffffffffffffffffff16639b03d7446040518163ffffffff1660e01b8152600401602060405180830381865afa158015611c48573d6000803e3d6000fd5b505050506040513d601f19601f82011682018060405250810190611c6c9190612fad565b8152602001600160009054906101000a900473ffffffffffffffffffffffffffffffffffffffff1673ffffffffffffffffffffffffffffffffffffffff16637069e7466040518163ffffffff1660e01b8152600401602060405180830381865afa158015611cde573d6000803e3d6000fd5b505050506040513d601f19601f82011682018060405250810190611d029190612fad565b8152602001600160009054906101000a900473ffffffffffffffffffffffffffffffffffffffff1673ffffffffffffffffffffffffffffffffffffffff1663f49425016040518163ffffffff1660e01b8152600401602060405180830381865afa158015611d74573d6000803e3d6000fd5b505050506040513d601f19601f82011682018060405250810190611d98919061332f565b15158152602001600160009054906101000a900473ffffffffffffffffffffffffffffffffffffffff1673ffffffffffffffffffffffffffffffffffffffff166322e3d9866040518163ffffffff1660e01b8152600401602060405180830381865afa158015611e0c573d6000803e3d6000fd5b505050506040513d601f19601f82011682018060405250810190611e309190612fad565b8152602001600160009054906101000a900473ffffffffffffffffffffffffffffffffffffffff1673ffffffffffffffffffffffffffffffffffffffff16634f9a8d8f6040518163ffffffff1660e01b8152600401602060405180830381865afa158015611ea2573d6000803e3d6000fd5b505050506040513d601f19601f82011682018060405250810190611ec69190612fad565b8152602001600160009054906101000a900473ffffffffffffffffffffffffffffffffffffffff1673ffffffffffffffffffffffffffffffffffffffff1663028b8bdb6040518163ffffffff1660e01b8152600401602060405180830381865afa158015611f38573d6000803e3d6000fd5b505050506040513d601f19601f82011682018060405250810190611f5c9190612fad565b815250905090565b600560009054906101000a900473ffffffffffffffffffffffffffffffffffffffff1681565b6040518060c00160405280600073ffffffffffffffffffffffffffffffffffffffff16815260200160008152602001606081526020016060815260200160006005811115611fdb57611fda6125fe565b5b8152602001600081525090565b6040518060600160405280600073ffffffffffffffffffffffffffffffffffffffff16815260200160008152602001600081525090565b6040518060600160405280600073ffffffffffffffffffffffffffffffffffffffff16815260200160008152602001600081525090565b6040518060400160405280600073ffffffffffffffffffffffffffffffffffffffff168152602001600081525090565b6040518060a0016040528060608152602001606081526020016060815260200160608152602001606081525090565b604051806101a001604052806000815260200160008152602001600081526020016000815260200160008152602001600081526020016000815260200160008152602001600081526020016000151581526020016000815260200160008152602001600081525090565b600073ffffffffffffffffffffffffffffffffffffffff82169050919050565b6000819050919050565b600061216461215f61215a8461211f565b61213f565b61211f565b9050919050565b600061217682612149565b9050919050565b60006121888261216b565b9050919050565b6121988161217d565b82525050565b60006020820190506121b3600083018461218f565b92915050565b6000604051905090565b600080fd5b600080fd5b60006121d88261211f565b9050919050565b6121e8816121cd565b81146121f357600080fd5b50565b600081359050612205816121df565b92915050565b600060208284031215612221576122206121c3565b5b600061222f848285016121f6565b91505092915050565b60006122438261216b565b9050919050565b61225381612238565b82525050565b600060208201905061226e600083018461224a565b92915050565b600061227f8261216b565b9050919050565b61228f81612274565b82525050565b60006020820190506122aa6000830184612286565b92915050565b6122b9816121cd565b82525050565b60006020820190506122d460008301846122b0565b92915050565b600080fd5b6000601f19601f8301169050919050565b7f4e487b7100000000000000000000000000000000000000000000000000000000600052604160045260246000fd5b612328826122df565b810181811067ffffffffffffffff82111715612347576123466122f0565b5b80604052505050565b600061235a6121b9565b9050612366828261231f565b919050565b600067ffffffffffffffff821115612386576123856122f0565b5b602082029050602081019050919050565b600080fd5b60006123af6123aa8461236b565b612350565b905080838252602082019050602084028301858111156123d2576123d1612397565b5b835b818110156123fb57806123e788826121f6565b8452602084019350506020810190506123d4565b5050509392505050565b600082601f83011261241a576124196122da565b5b813561242a84826020860161239c565b91505092915050565b600060208284031215612449576124486121c3565b5b600082013567ffffffffffffffff811115612467576124666121c8565b5b61247384828501612405565b91505092915050565b600081519050919050565b600082825260208201905092915050565b6000819050602082019050919050565b6124b1816121cd565b82525050565b6000819050919050565b6124ca816124b7565b82525050565b600081519050919050565b600082825260208201905092915050565b60005b8381101561250a5780820151818401526020810190506124ef565b60008484015250505050565b6000612521826124d0565b61252b81856124db565b935061253b8185602086016124ec565b612544816122df565b840191505092915050565b600081519050919050565b600082825260208201905092915050565b6000819050602082019050919050565b600061258783836124a8565b60208301905092915050565b6000602082019050919050565b60006125ab8261254f565b6125b5818561255a565b93506125c08361256b565b8060005b838110156125f15781516125d8888261257b565b97506125e383612593565b9250506001810190506125c4565b5085935050505092915050565b7f4e487b7100000000000000000000000000000000000000000000000000000000600052602160045260246000fd5b6006811061263e5761263d6125fe565b5b50565b600081905061264f8261262d565b919050565b600061265f82612641565b9050919050565b61266f81612654565b82525050565b600060c08301600083015161268d60008601826124a8565b5060208301516126a060208601826124c1565b50604083015184820360408601526126b88282612516565b915050606083015184820360608601526126d282826125a0565b91505060808301516126e76080860182612666565b5060a08301516126fa60a08601826124c1565b508091505092915050565b60006127118383612675565b905092915050565b6000602082019050919050565b60006127318261247c565b61273b8185612487565b93508360208202850161274d85612498565b8060005b85811015612789578484038952815161276a8582612705565b945061277583612719565b925060208a01995050600181019050612751565b50829750879550505050505092915050565b600060208201905081810360008301526127b58184612726565b905092915050565b60006127c88261216b565b9050919050565b6127d8816127bd565b82525050565b60006020820190506127f360008301846127cf565b92915050565b600080fd5b60008083601f840112612814576128136122da565b5b8235905067ffffffffffffffff811115612831576128306127f9565b5b60208301915083602082028301111561284d5761284c612397565b5b9250929050565b60008060006040848603121561286d5761286c6121c3565b5b600061287b868287016121f6565b935050602084013567ffffffffffffffff81111561289c5761289b6121c8565b5b6128a8868287016127fe565b92509250509250925092565b600081519050919050565b600082825260208201905092915050565b6000819050602082019050919050565b6060820160008201516128f660008501826124a8565b50602082015161290960208501826124c1565b50604082015161291c60408501826124c1565b50505050565b600061292e83836128e0565b60608301905092915050565b6000602082019050919050565b6000612952826128b4565b61295c81856128bf565b9350612967836128d0565b8060005b8381101561299857815161297f8882612922565b975061298a8361293a565b92505060018101905061296b565b5085935050505092915050565b600060208201905081810360008301526129bf8184612947565b905092915050565b600081519050919050565b600082825260208201905092915050565b6000819050602082019050919050565b606082016000820151612a0960008501826124a8565b506020820151612a1c60208501826124c1565b506040820151612a2f60408501826124c1565b50505050565b6000612a4183836129f3565b60608301905092915050565b6000602082019050919050565b6000612a65826129c7565b612a6f81856129d2565b9350612a7a836129e3565b8060005b83811015612aab578151612a928882612a35565b9750612a9d83612a4d565b925050600181019050612a7e565b5085935050505092915050565b60006020820190508181036000830152612ad28184612a5a565b905092915050565b60008060408385031215612af157612af06121c3565b5b600083013567ffffffffffffffff811115612b0f57612b0e6121c8565b5b612b1b85828601612405565b9250506020612b2c858286016121f6565b9150509250929050565b600081519050919050565b600082825260208201905092915050565b6000819050602082019050919050565b604082016000820151612b7860008501826124a8565b506020820151612b8b60208501826124c1565b50505050565b6000612b9d8383612b62565b60408301905092915050565b6000602082019050919050565b6000612bc182612b36565b612bcb8185612b41565b9350612bd683612b52565b8060005b83811015612c07578151612bee8882612b91565b9750612bf983612ba9565b925050600181019050612bda565b5085935050505092915050565b612c1d816124b7565b82525050565b60006060820190508181036000830152612c3d8186612bb6565b9050612c4c6020830185612c14565b612c596040830184612c14565b949350505050565b600060a0830160008301518482036000860152612c7e82826125a0565b91505060208301518482036020860152612c9882826125a0565b91505060408301518482036040860152612cb282826125a0565b91505060608301518482036060860152612ccc82826125a0565b91505060808301518482036080860152612ce682826125a0565b9150508091505092915050565b60006020820190508181036000830152612d0d8184612c61565b905092915050565b60008115159050919050565b612d2a81612d15565b82525050565b6101a082016000820151612d4760008501826124c1565b506020820151612d5a60208501826124c1565b506040820151612d6d60408501826124c1565b506060820151612d8060608501826124c1565b506080820151612d9360808501826124c1565b5060a0820151612da660a08501826124c1565b5060c0820151612db960c08501826124c1565b5060e0820151612dcc60e08501826124c1565b50610100820151612de16101008501826124c1565b50610120820151612df6610120850182612d21565b50610140820151612e0b6101408501826124c1565b50610160820151612e206101608501826124c1565b50610180820151612e356101808501826124c1565b50505050565b60006101a082019050612e516000830184612d30565b92915050565b6000612e628261216b565b9050919050565b612e7281612e57565b82525050565b6000602082019050612e8d6000830184612e69565b92915050565b600082825260208201905092915050565b7f4e6f74206f776e65720000000000000000000000000000000000000000000000600082015250565b6000612eda600983612e93565b9150612ee582612ea4565b602082019050919050565b60006020820190508181036000830152612f0981612ecd565b9050919050565b7f4e487b7100000000000000000000000000000000000000000000000000000000600052603260045260246000fd5b600081519050612f4e816121df565b92915050565b600060208284031215612f6a57612f696121c3565b5b6000612f7884828501612f3f565b91505092915050565b612f8a816124b7565b8114612f9557600080fd5b50565b600081519050612fa781612f81565b92915050565b600060208284031215612fc357612fc26121c3565b5b6000612fd184828501612f98565b91505092915050565b600080fd5b600067ffffffffffffffff821115612ffa57612ff96122f0565b5b613003826122df565b9050602081019050919050565b600061302361301e84612fdf565b612350565b90508281526020810184848401111561303f5761303e612fda565b5b61304a8482856124ec565b509392505050565b600082601f830112613067576130666122da565b5b8151613077848260208601613010565b91505092915050565b600060208284031215613096576130956121c3565b5b600082015167ffffffffffffffff8111156130b4576130b36121c8565b5b6130c084828501613052565b91505092915050565b60006130dc6130d78461236b565b612350565b905080838252602082019050602084028301858111156130ff576130fe612397565b5b835b8181101561312857806131148882612f3f565b845260208401935050602081019050613101565b5050509392505050565b600082601f830112613147576131466122da565b5b81516131578482602086016130c9565b91505092915050565b600060208284031215613176576131756121c3565b5b600082015167ffffffffffffffff811115613194576131936121c8565b5b6131a084828501613132565b91505092915050565b600681106131b657600080fd5b50565b6000815190506131c8816131a9565b92915050565b6000602082840312156131e4576131e36121c3565b5b60006131f2848285016131b9565b91505092915050565b7f4e487b7100000000000000000000000000000000000000000000000000000000600052601160045260246000fd5b6000613235826124b7565b91507fffffffffffffffffffffffffffffffffffffffffffffffffffffffffffffffff8203613267576132666131fb565b5b600182019050919050565b600060408201905061328760008301856122b0565b61329460208301846122b0565b9392505050565b60006132a6826124b7565b91506132b1836124b7565b92508282019050808211156132c9576132c86131fb565b5b92915050565b60006132da826124b7565b91506132e5836124b7565b92508282039050818111156132fd576132fc6131fb565b5b92915050565b61330c81612d15565b811461331757600080fd5b50565b60008151905061332981613303565b92915050565b600060208284031215613345576133446121c3565b5b60006133538482850161331a565b9150509291505056fea2646970667358221220df22e0aa4f9eeb04f6821f7d4761023529e1380a94d15d60ebe047d300ec4bcc64736f6c63430008110033",
  "linkReferences": {},
  "deployedLinkReferences": {}
}