{
  "_format": "hh-sol-artifact-1",
  "contractName": "KeyGenHistory",
  "sourceName": "contracts/KeyGenHistory.sol",
  "abi": [
    {
      "inputs": [],
      "stateMutability": "nonpayable",
      "type": "constructor"
    },
    {
      "inputs": [],
      "name": "AcksAlreadySubmitted",
      "type": "error"
    },
    {
      "inputs": [],
      "name": "IncorrectEpoch",
      "type": "error"
    },
    {
      "inputs": [
        {
          "internalType": "uint256",
          "name": "expected",
          "type": "uint256"
        },
        {
          "internalType": "uint256",
          "name": "submited",
          "type": "uint256"
        }
      ],
      "name": "IncorrectRound",
      "type": "error"
    },
    {
      "inputs": [],
      "name": "InvalidInitialization",
      "type": "error"
    },
    {
      "inputs": [],
      "name": "NotInitializing",
      "type": "error"
    },
    {
      "inputs": [
        {
          "internalType": "address",
          "name": "validator",
          "type": "address"
        }
      ],
      "name": "NotPendingValidator",
      "type": "error"
    },
    {
      "inputs": [
        {
          "internalType": "address",
          "name": "owner",
          "type": "address"
        }
      ],
      "name": "OwnableInvalidOwner",
      "type": "error"
    },
    {
      "inputs": [
        {
          "internalType": "address",
          "name": "account",
          "type": "address"
        }
      ],
      "name": "OwnableUnauthorizedAccount",
      "type": "error"
    },
    {
      "inputs": [],
      "name": "PartsAlreadySubmitted",
      "type": "error"
    },
    {
      "inputs": [],
      "name": "Unauthorized",
      "type": "error"
    },
    {
      "inputs": [],
      "name": "ValidatorsListEmpty",
      "type": "error"
    },
    {
      "inputs": [],
      "name": "WrongAcksNumber",
      "type": "error"
    },
    {
      "inputs": [],
      "name": "WrongEpoch",
      "type": "error"
    },
    {
      "inputs": [],
      "name": "WrongPartsNumber",
      "type": "error"
    },
    {
      "inputs": [],
      "name": "ZeroAddress",
      "type": "error"
    },
    {
      "anonymous": false,
      "inputs": [
        {
          "indexed": false,
          "internalType": "uint64",
          "name": "version",
          "type": "uint64"
        }
      ],
      "name": "Initialized",
      "type": "event"
    },
    {
      "anonymous": false,
      "inputs": [
        {
          "indexed": true,
          "internalType": "address",
          "name": "previousOwner",
          "type": "address"
        },
        {
          "indexed": true,
          "internalType": "address",
          "name": "newOwner",
          "type": "address"
        }
      ],
      "name": "OwnershipTransferred",
      "type": "event"
    },
    {
      "inputs": [
        {
          "internalType": "address",
          "name": "",
          "type": "address"
        },
        {
          "internalType": "uint256",
          "name": "",
          "type": "uint256"
        }
      ],
      "name": "acks",
      "outputs": [
        {
          "internalType": "bytes",
          "name": "",
          "type": "bytes"
        }
      ],
      "stateMutability": "view",
      "type": "function"
    },
    {
      "inputs": [
        {
          "internalType": "address[]",
          "name": "_prevValidators",
          "type": "address[]"
        }
      ],
      "name": "clearPrevKeyGenState",
      "outputs": [],
      "stateMutability": "nonpayable",
      "type": "function"
    },
    {
      "inputs": [],
      "name": "currentKeyGenRound",
      "outputs": [
        {
          "internalType": "uint256",
          "name": "",
          "type": "uint256"
        }
      ],
      "stateMutability": "view",
      "type": "function"
    },
    {
      "inputs": [
        {
          "internalType": "address",
          "name": "val",
          "type": "address"
        }
      ],
      "name": "getAcksLength",
      "outputs": [
        {
          "internalType": "uint256",
          "name": "",
          "type": "uint256"
        }
      ],
      "stateMutability": "view",
      "type": "function"
    },
    {
      "inputs": [],
      "name": "getCurrentKeyGenRound",
      "outputs": [
        {
          "internalType": "uint256",
          "name": "",
          "type": "uint256"
        }
      ],
      "stateMutability": "view",
      "type": "function"
    },
    {
      "inputs": [],
      "name": "getNumberOfKeyFragmentsWritten",
      "outputs": [
        {
          "internalType": "uint128",
          "name": "",
          "type": "uint128"
        },
        {
          "internalType": "uint128",
          "name": "",
          "type": "uint128"
        }
      ],
      "stateMutability": "view",
      "type": "function"
    },
    {
      "inputs": [
        {
          "internalType": "address",
          "name": "_val",
          "type": "address"
        }
      ],
      "name": "getPart",
      "outputs": [
        {
          "internalType": "bytes",
          "name": "",
          "type": "bytes"
        }
      ],
      "stateMutability": "view",
      "type": "function"
    },
    {
      "inputs": [
        {
          "internalType": "address",
          "name": "_contractOwner",
          "type": "address"
        },
        {
          "internalType": "address",
          "name": "_validatorSetContract",
          "type": "address"
        },
        {
          "internalType": "address[]",
          "name": "_validators",
          "type": "address[]"
        },
        {
          "internalType": "bytes[]",
          "name": "_parts",
          "type": "bytes[]"
        },
        {
          "internalType": "bytes[][]",
          "name": "_acks",
          "type": "bytes[][]"
        }
      ],
      "name": "initialize",
      "outputs": [],
      "stateMutability": "nonpayable",
      "type": "function"
    },
    {
      "inputs": [],
      "name": "notifyKeyGenFailed",
      "outputs": [],
      "stateMutability": "nonpayable",
      "type": "function"
    },
    {
      "inputs": [],
      "name": "notifyNewEpoch",
      "outputs": [],
      "stateMutability": "nonpayable",
      "type": "function"
    },
    {
      "inputs": [],
      "name": "numberOfAcksWritten",
      "outputs": [
        {
          "internalType": "uint128",
          "name": "",
          "type": "uint128"
        }
      ],
      "stateMutability": "view",
      "type": "function"
    },
    {
      "inputs": [],
      "name": "numberOfPartsWritten",
      "outputs": [
        {
          "internalType": "uint128",
          "name": "",
          "type": "uint128"
        }
      ],
      "stateMutability": "view",
      "type": "function"
    },
    {
      "inputs": [],
      "name": "owner",
      "outputs": [
        {
          "internalType": "address",
          "name": "",
          "type": "address"
        }
      ],
      "stateMutability": "view",
      "type": "function"
    },
    {
      "inputs": [
        {
          "internalType": "address",
          "name": "",
          "type": "address"
        }
      ],
      "name": "parts",
      "outputs": [
        {
          "internalType": "bytes",
          "name": "",
          "type": "bytes"
        }
      ],
      "stateMutability": "view",
      "type": "function"
    },
    {
      "inputs": [],
      "name": "renounceOwnership",
      "outputs": [],
      "stateMutability": "nonpayable",
      "type": "function"
    },
    {
      "inputs": [
        {
          "internalType": "address",
          "name": "newOwner",
          "type": "address"
        }
      ],
      "name": "transferOwnership",
      "outputs": [],
      "stateMutability": "nonpayable",
      "type": "function"
    },
    {
      "inputs": [
        {
          "internalType": "uint256",
          "name": "",
          "type": "uint256"
        }
      ],
      "name": "validatorSet",
      "outputs": [
        {
          "internalType": "address",
          "name": "",
          "type": "address"
        }
      ],
      "stateMutability": "view",
      "type": "function"
    },
    {
      "inputs": [],
      "name": "validatorSetContract",
      "outputs": [
        {
          "internalType": "contract IValidatorSetHbbft",
          "name": "",
          "type": "address"
        }
      ],
      "stateMutability": "view",
      "type": "function"
    },
    {
      "inputs": [
        {
          "internalType": "uint256",
          "name": "_upcommingEpoch",
          "type": "uint256"
        },
        {
          "internalType": "uint256",
          "name": "_roundCounter",
          "type": "uint256"
        },
        {
          "internalType": "bytes[]",
          "name": "_acks",
          "type": "bytes[]"
        }
      ],
      "name": "writeAcks",
      "outputs": [],
      "stateMutability": "nonpayable",
      "type": "function"
    },
    {
      "inputs": [
        {
          "internalType": "uint256",
          "name": "_upcommingEpoch",
          "type": "uint256"
        },
        {
          "internalType": "uint256",
          "name": "_roundCounter",
          "type": "uint256"
        },
        {
          "internalType": "bytes",
          "name": "_part",
          "type": "bytes"
        }
      ],
      "name": "writePart",
      "outputs": [],
      "stateMutability": "nonpayable",
      "type": "function"
    }
  ],
  "bytecode": "0x6080604052348015600f57600080fd5b506016601a565b60ca565b7ff0c57e16840df040f15088dc2f81fe391c3923bec73e23a9662efc9c229c6a00805468010000000000000000900460ff161560695760405163f92ee8a960e01b815260040160405180910390fd5b80546001600160401b039081161460c75780546001600160401b0319166001600160401b0390811782556040519081527fc7f505b2f371ae2175ee4913f4499e1f2633a7b5936321eed1cdaeb6115181d29060200160405180910390a15b50565b611733806100d96000396000f3fe608060405234801561001057600080fd5b506004361061016c5760003560e01c8063827d467d116100cd578063dd7761f811610081578063e64808f311610066578063e64808f31461031d578063f2fde38b14610330578063f36275331461034357600080fd5b8063dd7761f8146102e1578063dfc8bf4e1461030a57600080fd5b806399de1a43116100b257806399de1a43146102b3578063adddc0cf146102c6578063ca3edc81146102ce57600080fd5b8063827d467d1461023d5780638da5cb5b1461026f57600080fd5b80635623208e11610124578063715018a611610109578063715018a6146101eb578063778b8a15146101f35780637be02c2b1461021357600080fd5b80635623208e146101c55780635f17497e146101d857600080fd5b80632c6f194d116101555780632c6f194d146101a25780632d4de124146101aa57806348bb1b2d146101bd57600080fd5b80630e4a629814610171578063122a721614610186575b600080fd5b61018461017f36600461121e565b610356565b005b61018f60055481565b6040519081526020015b60405180910390f35b610184610632565b6101846101b836600461132c565b610663565b60055461018f565b6101846101d336600461137c565b6108b4565b6101846101e63660046113c2565b610ad6565b610184610bcb565b610206610201366004611437565b610bdf565b604051610199919061145b565b600354604080516001600160801b038084168252600160801b909304909216602083015201610199565b60035461025790600160801b90046001600160801b031681565b6040516001600160801b039091168152602001610199565b7f9016d09d72d40fdae2fd8ceac6b6234c7706214fd39c1cd1e609a0528c199300546001600160a01b03165b6040516001600160a01b039091168152602001610199565b6102066102c1366004611437565b610c79565b610184610d25565b6102066102dc3660046114aa565b610d62565b61018f6102ef366004611437565b6001600160a01b031660009081526002602052604090205490565b60045461029b906001600160a01b031681565b61029b61032b3660046114d6565b610d9a565b61018461033e366004611437565b610dc4565b600354610257906001600160801b031681565b7ff0c57e16840df040f15088dc2f81fe391c3923bec73e23a9662efc9c229c6a00805468010000000000000000810460ff16159067ffffffffffffffff166000811580156103a15750825b905060008267ffffffffffffffff1660011480156103be5750303b155b9050811580156103cc575080155b156103ea5760405163f92ee8a960e01b815260040160405180910390fd5b845467ffffffffffffffff19166001178555831561041e57845468ff00000000000000001916680100000000000000001785555b6001600160a01b038a16158061043b57506001600160a01b038916155b156104595760405163d92e233d60e01b815260040160405180910390fd5b875160000361047b576040516322b8b72360e21b815260040160405180910390fd5b865188511461049d57604051632029024760e11b815260040160405180910390fd5b85518851146104bf57604051634adac49960e01b815260040160405180910390fd5b6104c88a610e02565b6004805473ffffffffffffffffffffffffffffffffffffffff19166001600160a01b038b1617905560005b88518110156105d55787818151811061050e5761050e6114ef565b6020026020010151600160008b848151811061052c5761052c6114ef565b60200260200101516001600160a01b03166001600160a01b0316815260200190815260200160002090816105609190611590565b50868181518110610573576105736114ef565b6020026020010151600260008b8481518110610591576105916114ef565b60200260200101516001600160a01b03166001600160a01b0316815260200190815260200160002090805190602001906105cc929190610f42565b506001016104f3565b506001600555831561062657845468ff000000000000000019168555604051600181527fc7f505b2f371ae2175ee4913f4499e1f2633a7b5936321eed1cdaeb6115181d29060200160405180910390a15b50505050505050505050565b6004546001600160a01b0316331461065c576040516282b42960e81b815260040160405180910390fd5b6001600555565b600480546040805163239a373960e21b81529051869384936001600160a01b031692638e68dce492818301926020928290030181865afa1580156106ab573d6000803e3d6000fd5b505050506040513d601f19601f820116820180604052508101906106cf9190611650565b6001600160a01b031663794c0c686040518163ffffffff1660e01b8152600401602060405180830381865afa15801561070c573d6000803e3d6000fd5b505050506040513d601f19601f82011682018060405250810190610730919061166d565b61073b90600161169c565b1461075957604051630b8297d160e41b815260040160405180910390fd5b82806005541461078f576005546040516343a010e160e01b81526004810191909152602481018290526044015b60405180910390fd5b6004805460405163fb64aac160e01b815233928101929092526001600160a01b03169063fb64aac190602401602060405180830381865afa1580156107d8573d6000803e3d6000fd5b505050506040513d601f19601f820116820180604052508101906107fc91906116b5565b61081b5760405163403f6f6f60e11b8152336004820152602401610786565b336000908152600160205260409020805461083590611505565b159050610855576040516365db711560e01b815260040160405180910390fd5b33600090815260016020526040902061086e8482611590565b50600380546001600160801b0316906000610888836116d7565b91906101000a8154816001600160801b0302191690836001600160801b03160217905550505050505050565b600480546040805163239a373960e21b81529051869384936001600160a01b031692638e68dce492818301926020928290030181865afa1580156108fc573d6000803e3d6000fd5b505050506040513d601f19601f820116820180604052508101906109209190611650565b6001600160a01b031663794c0c686040518163ffffffff1660e01b8152600401602060405180830381865afa15801561095d573d6000803e3d6000fd5b505050506040513d601f19601f82011682018060405250810190610981919061166d565b61098c90600161169c565b146109aa57604051630b8297d160e41b815260040160405180910390fd5b8280600554146109db576005546040516343a010e160e01b8152600481019190915260248101829052604401610786565b6004805460405163fb64aac160e01b815233928101929092526001600160a01b03169063fb64aac190602401602060405180830381865afa158015610a24573d6000803e3d6000fd5b505050506040513d601f19601f82011682018060405250810190610a4891906116b5565b610a675760405163403f6f6f60e11b8152336004820152602401610786565b3360009081526002602052604090205415610a955760405163024d8d3d60e11b815260040160405180910390fd5b3360009081526002602090815260409091208451610ab592860190610f42565b5060038054600160801b90046001600160801b0316906010610888836116d7565b6004546001600160a01b03163314610b00576040516282b42960e81b815260040160405180910390fd5b60005b81811015610bc15760016000848484818110610b2157610b216114ef565b9050602002016020810190610b369190611437565b6001600160a01b03166001600160a01b031681526020019081526020016000206000610b629190610f98565b60026000848484818110610b7857610b786114ef565b9050602002016020810190610b8d9190611437565b6001600160a01b03166001600160a01b031681526020019081526020016000206000610bb99190610fd2565b600101610b03565b5050600060035550565b610bd3610e13565b610bdd6000610e6e565b565b60016020526000908152604090208054610bf890611505565b80601f0160208091040260200160405190810160405280929190818152602001828054610c2490611505565b8015610c715780601f10610c4657610100808354040283529160200191610c71565b820191906000526020600020905b815481529060010190602001808311610c5457829003601f168201915b505050505081565b6001600160a01b0381166000908152600160205260409020805460609190610ca090611505565b80601f0160208091040260200160405190810160405280929190818152602001828054610ccc90611505565b8015610d195780601f10610cee57610100808354040283529160200191610d19565b820191906000526020600020905b815481529060010190602001808311610cfc57829003601f168201915b50505050509050919050565b6004546001600160a01b03163314610d4f576040516282b42960e81b815260040160405180910390fd5b600554610d5d90600161169c565b600555565b60026020528160005260406000208181548110610d7e57600080fd5b90600052602060002001600091509150508054610bf890611505565b60008181548110610daa57600080fd5b6000918252602090912001546001600160a01b0316905081565b610dcc610e13565b6001600160a01b038116610df657604051631e4fbdf760e01b815260006004820152602401610786565b610dff81610e6e565b50565b610e0a610eec565b610dff81610f3a565b33610e457f9016d09d72d40fdae2fd8ceac6b6234c7706214fd39c1cd1e609a0528c199300546001600160a01b031690565b6001600160a01b031614610bdd5760405163118cdaa760e01b8152336004820152602401610786565b7f9016d09d72d40fdae2fd8ceac6b6234c7706214fd39c1cd1e609a0528c199300805473ffffffffffffffffffffffffffffffffffffffff1981166001600160a01b03848116918217845560405192169182907f8be0079c531659141344cd1fd0a4f28419497f9722a3daafe3b4186f6b6457e090600090a3505050565b7ff0c57e16840df040f15088dc2f81fe391c3923bec73e23a9662efc9c229c6a005468010000000000000000900460ff16610bdd57604051631afcd79f60e31b815260040160405180910390fd5b610dcc610eec565b828054828255906000526020600020908101928215610f88579160200282015b82811115610f885782518290610f789082611590565b5091602001919060010190610f62565b50610f94929150610fec565b5090565b508054610fa490611505565b6000825580601f10610fb4575050565b601f016020900490600052602060002090810190610dff9190611009565b5080546000825590600052602060002090810190610dff91905b80821115610f945760006110008282610f98565b50600101610fec565b5b80821115610f94576000815560010161100a565b6001600160a01b0381168114610dff57600080fd5b634e487b7160e01b600052604160045260246000fd5b604051601f8201601f1916810167ffffffffffffffff8111828210171561107257611072611033565b604052919050565b600067ffffffffffffffff82111561109457611094611033565b5060051b60200190565b600082601f8301126110af57600080fd5b813567ffffffffffffffff8111156110c9576110c9611033565b6110dc601f8201601f1916602001611049565b8181528460208386010111156110f157600080fd5b816020850160208301376000918101602001919091529392505050565b600082601f83011261111f57600080fd5b8135602061113461112f8361107a565b611049565b82815260059290921b8401810191818101908684111561115357600080fd5b8286015b8481101561119357803567ffffffffffffffff8111156111775760008081fd5b6111858986838b010161109e565b845250918301918301611157565b509695505050505050565b600082601f8301126111af57600080fd5b813560206111bf61112f8361107a565b82815260059290921b840181019181810190868411156111de57600080fd5b8286015b8481101561119357803567ffffffffffffffff8111156112025760008081fd5b6112108986838b010161110e565b8452509183019183016111e2565b600080600080600060a0868803121561123657600080fd5b85356112418161101e565b94506020868101356112528161101e565b9450604087013567ffffffffffffffff8082111561126f57600080fd5b818901915089601f83011261128357600080fd5b813561129161112f8261107a565b81815260059190911b8301840190848101908c8311156112b057600080fd5b938501935b828510156112d75784356112c88161101e565b825293850193908501906112b5565b9750505060608901359250808311156112ef57600080fd5b6112fb8a848b0161110e565b9450608089013592508083111561131157600080fd5b505061131f8882890161119e565b9150509295509295909350565b60008060006060848603121561134157600080fd5b8335925060208401359150604084013567ffffffffffffffff81111561136657600080fd5b6113728682870161109e565b9150509250925092565b60008060006060848603121561139157600080fd5b8335925060208401359150604084013567ffffffffffffffff8111156113b657600080fd5b6113728682870161110e565b600080602083850312156113d557600080fd5b823567ffffffffffffffff808211156113ed57600080fd5b818501915085601f83011261140157600080fd5b81358181111561141057600080fd5b8660208260051b850101111561142557600080fd5b60209290920196919550909350505050565b60006020828403121561144957600080fd5b81356114548161101e565b9392505050565b60006020808352835180602085015260005b818110156114895785810183015185820160400152820161146d565b506000604082860101526040601f19601f8301168501019250505092915050565b600080604083850312156114bd57600080fd5b82356114c88161101e565b946020939093013593505050565b6000602082840312156114e857600080fd5b5035919050565b634e487b7160e01b600052603260045260246000fd5b600181811c9082168061151957607f821691505b60208210810361153957634e487b7160e01b600052602260045260246000fd5b50919050565b601f82111561158b576000816000526020600020601f850160051c810160208610156115685750805b601f850160051c820191505b8181101561158757828155600101611574565b5050505b505050565b815167ffffffffffffffff8111156115aa576115aa611033565b6115be816115b88454611505565b8461153f565b602080601f8311600181146115f357600084156115db5750858301515b600019600386901b1c1916600185901b178555611587565b600085815260208120601f198616915b8281101561162257888601518255948401946001909101908401611603565b50858210156116405787850151600019600388901b60f8161c191681555b5050505050600190811b01905550565b60006020828403121561166257600080fd5b81516114548161101e565b60006020828403121561167f57600080fd5b5051919050565b634e487b7160e01b600052601160045260246000fd5b808201808211156116af576116af611686565b92915050565b6000602082840312156116c757600080fd5b8151801515811461145457600080fd5b60006001600160801b038083168181036116f3576116f3611686565b600101939250505056fea26469706673582212202ca05b8725f97fa06cd8d863d5372d8170e60416b40c7e764f79706c963ec60964736f6c63430008190033",
  "linkReferences": {},
  "deployedLinkReferences": {}
}