{
  "_format": "hh-sol-artifact-1",
  "contractName": "KeyGenHistory",
  "sourceName": "contracts/KeyGenHistory.sol",
  "abi": [
    {
      "inputs": [],
      "stateMutability": "nonpayable",
      "type": "constructor"
    },
    {
      "inputs": [],
      "name": "AcksAlreadySubmitted",
      "type": "error"
    },
    {
      "inputs": [],
      "name": "IncorrectEpoch",
      "type": "error"
    },
    {
      "inputs": [
        {
          "internalType": "uint256",
          "name": "expected",
          "type": "uint256"
        },
        {
          "internalType": "uint256",
          "name": "submited",
          "type": "uint256"
        }
      ],
      "name": "IncorrectRound",
      "type": "error"
    },
    {
      "inputs": [],
      "name": "InvalidInitialization",
      "type": "error"
    },
    {
      "inputs": [],
      "name": "NotInitializing",
      "type": "error"
    },
    {
      "inputs": [
        {
          "internalType": "address",
          "name": "validator",
          "type": "address"
        }
      ],
      "name": "NotPendingValidator",
      "type": "error"
    },
    {
      "inputs": [
        {
          "internalType": "address",
          "name": "owner",
          "type": "address"
        }
      ],
      "name": "OwnableInvalidOwner",
      "type": "error"
    },
    {
      "inputs": [
        {
          "internalType": "address",
          "name": "account",
          "type": "address"
        }
      ],
      "name": "OwnableUnauthorizedAccount",
      "type": "error"
    },
    {
      "inputs": [],
      "name": "PartsAlreadySubmitted",
      "type": "error"
    },
    {
      "inputs": [],
      "name": "Unauthorized",
      "type": "error"
    },
    {
      "inputs": [],
      "name": "ValidatorsListEmpty",
      "type": "error"
    },
    {
      "inputs": [],
      "name": "WrongAcksNumber",
      "type": "error"
    },
    {
      "inputs": [],
      "name": "WrongEpoch",
      "type": "error"
    },
    {
      "inputs": [],
      "name": "WrongPartsNumber",
      "type": "error"
    },
    {
      "inputs": [],
      "name": "ZeroAddress",
      "type": "error"
    },
    {
      "anonymous": false,
      "inputs": [
        {
          "indexed": false,
          "internalType": "uint64",
          "name": "version",
          "type": "uint64"
        }
      ],
      "name": "Initialized",
      "type": "event"
    },
    {
      "anonymous": false,
      "inputs": [
        {
          "indexed": true,
          "internalType": "address",
          "name": "previousOwner",
          "type": "address"
        },
        {
          "indexed": true,
          "internalType": "address",
          "name": "newOwner",
          "type": "address"
        }
      ],
      "name": "OwnershipTransferred",
      "type": "event"
    },
    {
      "inputs": [
        {
          "internalType": "address",
          "name": "",
          "type": "address"
        },
        {
          "internalType": "uint256",
          "name": "",
          "type": "uint256"
        }
      ],
      "name": "acks",
      "outputs": [
        {
          "internalType": "bytes",
          "name": "",
          "type": "bytes"
        }
      ],
      "stateMutability": "view",
      "type": "function"
    },
    {
      "inputs": [
        {
          "internalType": "address[]",
          "name": "_prevValidators",
          "type": "address[]"
        }
      ],
      "name": "clearPrevKeyGenState",
      "outputs": [],
      "stateMutability": "nonpayable",
      "type": "function"
    },
    {
      "inputs": [],
      "name": "currentKeyGenRound",
      "outputs": [
        {
          "internalType": "uint256",
          "name": "",
          "type": "uint256"
        }
      ],
      "stateMutability": "view",
      "type": "function"
    },
    {
      "inputs": [
        {
          "internalType": "address",
          "name": "val",
          "type": "address"
        }
      ],
      "name": "getAcksLength",
      "outputs": [
        {
          "internalType": "uint256",
          "name": "",
          "type": "uint256"
        }
      ],
      "stateMutability": "view",
      "type": "function"
    },
    {
      "inputs": [],
      "name": "getCurrentKeyGenRound",
      "outputs": [
        {
          "internalType": "uint256",
          "name": "",
          "type": "uint256"
        }
      ],
      "stateMutability": "view",
      "type": "function"
    },
    {
      "inputs": [],
      "name": "getNumberOfKeyFragmentsWritten",
      "outputs": [
        {
          "internalType": "uint128",
          "name": "",
          "type": "uint128"
        },
        {
          "internalType": "uint128",
          "name": "",
          "type": "uint128"
        }
      ],
      "stateMutability": "view",
      "type": "function"
    },
    {
      "inputs": [
        {
          "internalType": "address",
          "name": "_val",
          "type": "address"
        }
      ],
      "name": "getPart",
      "outputs": [
        {
          "internalType": "bytes",
          "name": "",
          "type": "bytes"
        }
      ],
      "stateMutability": "view",
      "type": "function"
    },
    {
      "inputs": [
        {
          "internalType": "address",
          "name": "_contractOwner",
          "type": "address"
        },
        {
          "internalType": "address",
          "name": "_validatorSetContract",
          "type": "address"
        },
        {
          "internalType": "address[]",
          "name": "_validators",
          "type": "address[]"
        },
        {
          "internalType": "bytes[]",
          "name": "_parts",
          "type": "bytes[]"
        },
        {
          "internalType": "bytes[][]",
          "name": "_acks",
          "type": "bytes[][]"
        }
      ],
      "name": "initialize",
      "outputs": [],
      "stateMutability": "nonpayable",
      "type": "function"
    },
    {
      "inputs": [],
      "name": "notifyKeyGenFailed",
      "outputs": [],
      "stateMutability": "nonpayable",
      "type": "function"
    },
    {
      "inputs": [],
      "name": "notifyNewEpoch",
      "outputs": [],
      "stateMutability": "nonpayable",
      "type": "function"
    },
    {
      "inputs": [],
      "name": "numberOfAcksWritten",
      "outputs": [
        {
          "internalType": "uint128",
          "name": "",
          "type": "uint128"
        }
      ],
      "stateMutability": "view",
      "type": "function"
    },
    {
      "inputs": [],
      "name": "numberOfPartsWritten",
      "outputs": [
        {
          "internalType": "uint128",
          "name": "",
          "type": "uint128"
        }
      ],
      "stateMutability": "view",
      "type": "function"
    },
    {
      "inputs": [],
      "name": "owner",
      "outputs": [
        {
          "internalType": "address",
          "name": "",
          "type": "address"
        }
      ],
      "stateMutability": "view",
      "type": "function"
    },
    {
      "inputs": [
        {
          "internalType": "address",
          "name": "",
          "type": "address"
        }
      ],
      "name": "parts",
      "outputs": [
        {
          "internalType": "bytes",
          "name": "",
          "type": "bytes"
        }
      ],
      "stateMutability": "view",
      "type": "function"
    },
    {
      "inputs": [],
      "name": "renounceOwnership",
      "outputs": [],
      "stateMutability": "nonpayable",
      "type": "function"
    },
    {
      "inputs": [
        {
          "internalType": "address",
          "name": "newOwner",
          "type": "address"
        }
      ],
      "name": "transferOwnership",
      "outputs": [],
      "stateMutability": "nonpayable",
      "type": "function"
    },
    {
      "inputs": [
        {
          "internalType": "uint256",
          "name": "",
          "type": "uint256"
        }
      ],
      "name": "validatorSet",
      "outputs": [
        {
          "internalType": "address",
          "name": "",
          "type": "address"
        }
      ],
      "stateMutability": "view",
      "type": "function"
    },
    {
      "inputs": [],
      "name": "validatorSetContract",
      "outputs": [
        {
          "internalType": "contract IValidatorSetHbbft",
          "name": "",
          "type": "address"
        }
      ],
      "stateMutability": "view",
      "type": "function"
    },
    {
      "inputs": [
        {
          "internalType": "uint256",
          "name": "_upcomingEpoch",
          "type": "uint256"
        },
        {
          "internalType": "uint256",
          "name": "_roundCounter",
          "type": "uint256"
        },
        {
          "internalType": "bytes[]",
          "name": "_acks",
          "type": "bytes[]"
        }
      ],
      "name": "writeAcks",
      "outputs": [],
      "stateMutability": "nonpayable",
      "type": "function"
    },
    {
      "inputs": [
        {
          "internalType": "uint256",
          "name": "_upcomingEpoch",
          "type": "uint256"
        },
        {
          "internalType": "uint256",
          "name": "_roundCounter",
          "type": "uint256"
        },
        {
          "internalType": "bytes",
          "name": "_part",
          "type": "bytes"
        }
      ],
      "name": "writePart",
      "outputs": [],
      "stateMutability": "nonpayable",
      "type": "function"
    }
  ],
  "bytecode": "0x6080604052348015600f57600080fd5b506016601a565b60ca565b7ff0c57e16840df040f15088dc2f81fe391c3923bec73e23a9662efc9c229c6a00805468010000000000000000900460ff161560695760405163f92ee8a960e01b815260040160405180910390fd5b80546001600160401b039081161460c75780546001600160401b0319166001600160401b0390811782556040519081527fc7f505b2f371ae2175ee4913f4499e1f2633a7b5936321eed1cdaeb6115181d29060200160405180910390a15b50565b611749806100d96000396000f3fe608060405234801561001057600080fd5b506004361061016c5760003560e01c8063827d467d116100cd578063dd7761f811610081578063e64808f311610066578063e64808f31461031d578063f2fde38b14610330578063f36275331461034357600080fd5b8063dd7761f8146102e1578063dfc8bf4e1461030a57600080fd5b806399de1a43116100b257806399de1a43146102b3578063adddc0cf146102c6578063ca3edc81146102ce57600080fd5b8063827d467d1461023d5780638da5cb5b1461026f57600080fd5b80635623208e11610124578063715018a611610109578063715018a6146101eb578063778b8a15146101f35780637be02c2b1461021357600080fd5b80635623208e146101c55780635f17497e146101d857600080fd5b80632c6f194d116101555780632c6f194d146101a25780632d4de124146101aa57806348bb1b2d146101bd57600080fd5b80630e4a629814610171578063122a721614610186575b600080fd5b61018461017f366004611234565b610356565b005b61018f60055481565b6040519081526020015b60405180910390f35b610184610648565b6101846101b8366004611342565b610679565b60055461018f565b6101846101d3366004611392565b6108ca565b6101846101e63660046113d8565b610aec565b610184610be1565b61020661020136600461144d565b610bf5565b6040516101999190611471565b600354604080516001600160801b038084168252600160801b909304909216602083015201610199565b60035461025790600160801b90046001600160801b031681565b6040516001600160801b039091168152602001610199565b7f9016d09d72d40fdae2fd8ceac6b6234c7706214fd39c1cd1e609a0528c199300546001600160a01b03165b6040516001600160a01b039091168152602001610199565b6102066102c136600461144d565b610c8f565b610184610d3b565b6102066102dc3660046114c0565b610d78565b61018f6102ef36600461144d565b6001600160a01b031660009081526002602052604090205490565b60045461029b906001600160a01b031681565b61029b61032b3660046114ec565b610db0565b61018461033e36600461144d565b610dda565b600354610257906001600160801b031681565b7ff0c57e16840df040f15088dc2f81fe391c3923bec73e23a9662efc9c229c6a00805468010000000000000000810460ff16159067ffffffffffffffff166000811580156103a15750825b905060008267ffffffffffffffff1660011480156103be5750303b155b9050811580156103cc575080155b156103ea5760405163f92ee8a960e01b815260040160405180910390fd5b845467ffffffffffffffff19166001178555831561041e57845468ff00000000000000001916680100000000000000001785555b6001600160a01b038a16158061043b57506001600160a01b038916155b156104595760405163d92e233d60e01b815260040160405180910390fd5b875160000361047b576040516322b8b72360e21b815260040160405180910390fd5b865188511461049d57604051632029024760e11b815260040160405180910390fd5b85518851146104bf57604051634adac49960e01b815260040160405180910390fd5b6104c88a610e18565b6004805473ffffffffffffffffffffffffffffffffffffffff19166001600160a01b038b1617905560005b88518110156105d55787818151811061050e5761050e611505565b6020026020010151600160008b848151811061052c5761052c611505565b60200260200101516001600160a01b03166001600160a01b03168152602001908152602001600020908161056091906115a6565b5086818151811061057357610573611505565b6020026020010151600260008b848151811061059157610591611505565b60200260200101516001600160a01b03166001600160a01b0316815260200190815260200160002090805190602001906105cc929190610f58565b506001016104f3565b50600160055587516001600160801b0316600160801b810217600355831561063c57845468ff000000000000000019168555604051600181527fc7f505b2f371ae2175ee4913f4499e1f2633a7b5936321eed1cdaeb6115181d29060200160405180910390a15b50505050505050505050565b6004546001600160a01b03163314610672576040516282b42960e81b815260040160405180910390fd5b6001600555565b600480546040805163239a373960e21b81529051869384936001600160a01b031692638e68dce492818301926020928290030181865afa1580156106c1573d6000803e3d6000fd5b505050506040513d601f19601f820116820180604052508101906106e59190611666565b6001600160a01b031663794c0c686040518163ffffffff1660e01b8152600401602060405180830381865afa158015610722573d6000803e3d6000fd5b505050506040513d601f19601f820116820180604052508101906107469190611683565b6107519060016116b2565b1461076f57604051630b8297d160e41b815260040160405180910390fd5b8280600554146107a5576005546040516343a010e160e01b81526004810191909152602481018290526044015b60405180910390fd5b6004805460405163fb64aac160e01b815233928101929092526001600160a01b03169063fb64aac190602401602060405180830381865afa1580156107ee573d6000803e3d6000fd5b505050506040513d601f19601f8201168201806040525081019061081291906116cb565b6108315760405163403f6f6f60e11b815233600482015260240161079c565b336000908152600160205260409020805461084b9061151b565b15905061086b576040516365db711560e01b815260040160405180910390fd5b33600090815260016020526040902061088484826115a6565b50600380546001600160801b031690600061089e836116ed565b91906101000a8154816001600160801b0302191690836001600160801b03160217905550505050505050565b600480546040805163239a373960e21b81529051869384936001600160a01b031692638e68dce492818301926020928290030181865afa158015610912573d6000803e3d6000fd5b505050506040513d601f19601f820116820180604052508101906109369190611666565b6001600160a01b031663794c0c686040518163ffffffff1660e01b8152600401602060405180830381865afa158015610973573d6000803e3d6000fd5b505050506040513d601f19601f820116820180604052508101906109979190611683565b6109a29060016116b2565b146109c057604051630b8297d160e41b815260040160405180910390fd5b8280600554146109f1576005546040516343a010e160e01b815260048101919091526024810182905260440161079c565b6004805460405163fb64aac160e01b815233928101929092526001600160a01b03169063fb64aac190602401602060405180830381865afa158015610a3a573d6000803e3d6000fd5b505050506040513d601f19601f82011682018060405250810190610a5e91906116cb565b610a7d5760405163403f6f6f60e11b815233600482015260240161079c565b3360009081526002602052604090205415610aab5760405163024d8d3d60e11b815260040160405180910390fd5b3360009081526002602090815260409091208451610acb92860190610f58565b5060038054600160801b90046001600160801b031690601061089e836116ed565b6004546001600160a01b03163314610b16576040516282b42960e81b815260040160405180910390fd5b60005b81811015610bd75760016000848484818110610b3757610b37611505565b9050602002016020810190610b4c919061144d565b6001600160a01b03166001600160a01b031681526020019081526020016000206000610b789190610fae565b60026000848484818110610b8e57610b8e611505565b9050602002016020810190610ba3919061144d565b6001600160a01b03166001600160a01b031681526020019081526020016000206000610bcf9190610fe8565b600101610b19565b5050600060035550565b610be9610e29565b610bf36000610e84565b565b60016020526000908152604090208054610c0e9061151b565b80601f0160208091040260200160405190810160405280929190818152602001828054610c3a9061151b565b8015610c875780601f10610c5c57610100808354040283529160200191610c87565b820191906000526020600020905b815481529060010190602001808311610c6a57829003601f168201915b505050505081565b6001600160a01b0381166000908152600160205260409020805460609190610cb69061151b565b80601f0160208091040260200160405190810160405280929190818152602001828054610ce29061151b565b8015610d2f5780601f10610d0457610100808354040283529160200191610d2f565b820191906000526020600020905b815481529060010190602001808311610d1257829003601f168201915b50505050509050919050565b6004546001600160a01b03163314610d65576040516282b42960e81b815260040160405180910390fd5b600554610d739060016116b2565b600555565b60026020528160005260406000208181548110610d9457600080fd5b90600052602060002001600091509150508054610c0e9061151b565b60008181548110610dc057600080fd5b6000918252602090912001546001600160a01b0316905081565b610de2610e29565b6001600160a01b038116610e0c57604051631e4fbdf760e01b81526000600482015260240161079c565b610e1581610e84565b50565b610e20610f02565b610e1581610f50565b33610e5b7f9016d09d72d40fdae2fd8ceac6b6234c7706214fd39c1cd1e609a0528c199300546001600160a01b031690565b6001600160a01b031614610bf35760405163118cdaa760e01b815233600482015260240161079c565b7f9016d09d72d40fdae2fd8ceac6b6234c7706214fd39c1cd1e609a0528c199300805473ffffffffffffffffffffffffffffffffffffffff1981166001600160a01b03848116918217845560405192169182907f8be0079c531659141344cd1fd0a4f28419497f9722a3daafe3b4186f6b6457e090600090a3505050565b7ff0c57e16840df040f15088dc2f81fe391c3923bec73e23a9662efc9c229c6a005468010000000000000000900460ff16610bf357604051631afcd79f60e31b815260040160405180910390fd5b610de2610f02565b828054828255906000526020600020908101928215610f9e579160200282015b82811115610f9e5782518290610f8e90826115a6565b5091602001919060010190610f78565b50610faa929150611002565b5090565b508054610fba9061151b565b6000825580601f10610fca575050565b601f016020900490600052602060002090810190610e15919061101f565b5080546000825590600052602060002090810190610e1591905b80821115610faa5760006110168282610fae565b50600101611002565b5b80821115610faa5760008155600101611020565b6001600160a01b0381168114610e1557600080fd5b634e487b7160e01b600052604160045260246000fd5b604051601f8201601f1916810167ffffffffffffffff8111828210171561108857611088611049565b604052919050565b600067ffffffffffffffff8211156110aa576110aa611049565b5060051b60200190565b600082601f8301126110c557600080fd5b813567ffffffffffffffff8111156110df576110df611049565b6110f2601f8201601f191660200161105f565b81815284602083860101111561110757600080fd5b816020850160208301376000918101602001919091529392505050565b600082601f83011261113557600080fd5b8135602061114a61114583611090565b61105f565b82815260059290921b8401810191818101908684111561116957600080fd5b8286015b848110156111a957803567ffffffffffffffff81111561118d5760008081fd5b61119b8986838b01016110b4565b84525091830191830161116d565b509695505050505050565b600082601f8301126111c557600080fd5b813560206111d561114583611090565b82815260059290921b840181019181810190868411156111f457600080fd5b8286015b848110156111a957803567ffffffffffffffff8111156112185760008081fd5b6112268986838b0101611124565b8452509183019183016111f8565b600080600080600060a0868803121561124c57600080fd5b853561125781611034565b945060208681013561126881611034565b9450604087013567ffffffffffffffff8082111561128557600080fd5b818901915089601f83011261129957600080fd5b81356112a761114582611090565b81815260059190911b8301840190848101908c8311156112c657600080fd5b938501935b828510156112ed5784356112de81611034565b825293850193908501906112cb565b97505050606089013592508083111561130557600080fd5b6113118a848b01611124565b9450608089013592508083111561132757600080fd5b5050611335888289016111b4565b9150509295509295909350565b60008060006060848603121561135757600080fd5b8335925060208401359150604084013567ffffffffffffffff81111561137c57600080fd5b611388868287016110b4565b9150509250925092565b6000806000606084860312156113a757600080fd5b8335925060208401359150604084013567ffffffffffffffff8111156113cc57600080fd5b61138886828701611124565b600080602083850312156113eb57600080fd5b823567ffffffffffffffff8082111561140357600080fd5b818501915085601f83011261141757600080fd5b81358181111561142657600080fd5b8660208260051b850101111561143b57600080fd5b60209290920196919550909350505050565b60006020828403121561145f57600080fd5b813561146a81611034565b9392505050565b60006020808352835180602085015260005b8181101561149f57858101830151858201604001528201611483565b506000604082860101526040601f19601f8301168501019250505092915050565b600080604083850312156114d357600080fd5b82356114de81611034565b946020939093013593505050565b6000602082840312156114fe57600080fd5b5035919050565b634e487b7160e01b600052603260045260246000fd5b600181811c9082168061152f57607f821691505b60208210810361154f57634e487b7160e01b600052602260045260246000fd5b50919050565b601f8211156115a1576000816000526020600020601f850160051c8101602086101561157e5750805b601f850160051c820191505b8181101561159d5782815560010161158a565b5050505b505050565b815167ffffffffffffffff8111156115c0576115c0611049565b6115d4816115ce845461151b565b84611555565b602080601f83116001811461160957600084156115f15750858301515b600019600386901b1c1916600185901b17855561159d565b600085815260208120601f198616915b8281101561163857888601518255948401946001909101908401611619565b50858210156116565787850151600019600388901b60f8161c191681555b5050505050600190811b01905550565b60006020828403121561167857600080fd5b815161146a81611034565b60006020828403121561169557600080fd5b5051919050565b634e487b7160e01b600052601160045260246000fd5b808201808211156116c5576116c561169c565b92915050565b6000602082840312156116dd57600080fd5b8151801515811461146a57600080fd5b60006001600160801b038083168181036117095761170961169c565b600101939250505056fea264697066735822122097047c6e152443a91be49620894dd0e2c669fe8786ef5307f46476cd4e7e453e64736f6c63430008190033",
  "linkReferences": {},
  "deployedLinkReferences": {}
}