{
  "_format": "hh-sol-artifact-1",
  "contractName": "MockValidatorSetHbbft",
  "sourceName": "contracts/mocks/MockValidatorSetHbbft.sol",
  "abi": [
    {
      "inputs": [],
      "stateMutability": "nonpayable",
      "type": "constructor"
    },
    {
      "inputs": [
        {
          "internalType": "address",
          "name": "staking",
          "type": "address"
        },
        {
          "internalType": "address",
          "name": "mining",
          "type": "address"
        },
        {
          "internalType": "bool",
          "name": "available",
          "type": "bool"
        }
      ],
      "name": "add",
      "outputs": [],
      "stateMutability": "nonpayable",
      "type": "function"
    },
    {
      "inputs": [
        {
          "internalType": "address",
          "name": "_miningAddress",
          "type": "address"
        },
        {
          "internalType": "uint256",
          "name": "_bannedUntil",
          "type": "uint256"
        }
      ],
      "name": "addBanned",
      "outputs": [],
      "stateMutability": "nonpayable",
      "type": "function"
    },
    {
      "inputs": [
        {
          "internalType": "address",
          "name": "",
          "type": "address"
        }
      ],
      "name": "bannedUntil",
      "outputs": [
        {
          "internalType": "uint256",
          "name": "",
          "type": "uint256"
        }
      ],
      "stateMutability": "view",
      "type": "function"
    },
    {
      "inputs": [
        {
          "internalType": "address",
          "name": "mining",
          "type": "address"
        }
      ],
      "name": "isValidator",
      "outputs": [
        {
          "internalType": "bool",
          "name": "",
          "type": "bool"
        }
      ],
      "stateMutability": "view",
      "type": "function"
    },
    {
      "inputs": [
        {
          "internalType": "address",
          "name": "_miningAddress",
          "type": "address"
        }
      ],
      "name": "isValidatorBanned",
      "outputs": [
        {
          "internalType": "bool",
          "name": "",
          "type": "bool"
        }
      ],
      "stateMutability": "view",
      "type": "function"
    },
    {
      "inputs": [
        {
          "internalType": "address",
          "name": "_miningAddress",
          "type": "address"
        }
      ],
      "name": "isValidatorOrPending",
      "outputs": [
        {
          "internalType": "bool",
          "name": "",
          "type": "bool"
        }
      ],
      "stateMutability": "view",
      "type": "function"
    },
    {
      "inputs": [
        {
          "internalType": "address",
          "name": "staking",
          "type": "address"
        }
      ],
      "name": "miningByStakingAddress",
      "outputs": [
        {
          "internalType": "address",
          "name": "",
          "type": "address"
        }
      ],
      "stateMutability": "view",
      "type": "function"
    },
    {
      "inputs": [
        {
          "internalType": "address",
          "name": "staking",
          "type": "address"
        }
      ],
      "name": "remove",
      "outputs": [],
      "stateMutability": "nonpayable",
      "type": "function"
    },
    {
      "inputs": [
        {
          "internalType": "address",
          "name": "staking",
          "type": "address"
        },
        {
          "internalType": "bool",
          "name": "available",
          "type": "bool"
        }
      ],
      "name": "toggleAvailability",
      "outputs": [],
      "stateMutability": "nonpayable",
      "type": "function"
    },
    {
      "inputs": [
        {
          "internalType": "address",
          "name": "mining",
          "type": "address"
        }
      ],
      "name": "validatorAvailableSince",
      "outputs": [
        {
          "internalType": "uint256",
          "name": "",
          "type": "uint256"
        }
      ],
      "stateMutability": "view",
      "type": "function"
    },
    {
      "stateMutability": "payable",
      "type": "receive"
    }
  ],
  "bytecode": "0x6080604052348015600f57600080fd5b506104da8061001f6000396000f3fe6080604052600436106100b45760003560e01c806360e5c52011610069578063a4f7c3f31161004e578063a4f7c3f314610317578063a92252ae1461034e578063facd743b146102ce57600080fd5b806360e5c520146102ae578063a0d16cad146102ce57600080fd5b80632fdf39eb1161009a5780632fdf39eb14610199578063475b10f9146101ed5780635836d08a1461027357600080fd5b8062535175146100c357806329092d0e1461011957600080fd5b366100be57600080fd5b600080fd5b3480156100cf57600080fd5b506100fc6100de3660046103d2565b6001600160a01b039081166000908152602081905260409020541690565b6040516001600160a01b0390911681526020015b60405180910390f35b34801561012557600080fd5b506101976101343660046103d2565b6001600160a01b039081166000818152602081815260408083208054909516835260018252808320805460ff1990811690915560028352908320805490911690559181529052805473ffffffffffffffffffffffffffffffffffffffff19169055565b005b3480156101a557600080fd5b506101976101b4366004610404565b6001600160a01b039182166000908152602081815260408083205490941682526002905291909120805460ff1916911515919091179055565b3480156101f957600080fd5b50610197610208366004610437565b6001600160a01b039182166000818152600160208181526040808420805460ff199081169094179055969095168252818552858220805473ffffffffffffffffffffffffffffffffffffffff1916841790559181526002909352929091208054909216901515179055565b34801561027f57600080fd5b506102a061028e3660046103d2565b60036020526000908152604090205481565b604051908152602001610110565b3480156102ba57600080fd5b506102a06102c93660046103d2565b610387565b3480156102da57600080fd5b506103076102e93660046103d2565b6001600160a01b031660009081526001602052604090205460ff1690565b6040519015158152602001610110565b34801561032357600080fd5b5061019761033236600461047a565b6001600160a01b03909116600090815260036020526040902055565b34801561035a57600080fd5b506103076103693660046103d2565b6001600160a01b031660009081526003602052604090205442111590565b6001600160a01b03811660009081526002602052604081205460ff166103ae5760006103b0565b435b92915050565b80356001600160a01b03811681146103cd57600080fd5b919050565b6000602082840312156103e457600080fd5b6103ed826103b6565b9392505050565b803580151581146103cd57600080fd5b6000806040838503121561041757600080fd5b610420836103b6565b915061042e602084016103f4565b90509250929050565b60008060006060848603121561044c57600080fd5b610455846103b6565b9250610463602085016103b6565b9150610471604085016103f4565b90509250925092565b6000806040838503121561048d57600080fd5b610496836103b6565b94602093909301359350505056fea264697066735822122081ae43ef191df0074cfbfda70bb8b05d99493ddd74453d37c78872b4754e2d8164736f6c63430008190033",
  "linkReferences": {},
  "deployedLinkReferences": {}
}