{
  "_format": "hh-sol-artifact-1",
  "contractName": "MockValidatorSet",
  "sourceName": "contracts/mockContracts/TxPermissionHbbftMock.sol",
  "abi": [
    {
      "inputs": [
        {
          "internalType": "address",
          "name": "",
          "type": "address"
        }
      ],
      "name": "getPendingValidatorKeyGenerationMode",
      "outputs": [
        {
          "internalType": "enum IValidatorSetHbbft.KeyGenMode",
          "name": "",
          "type": "uint8"
        }
      ],
      "stateMutability": "view",
      "type": "function"
    },
    {
      "inputs": [],
      "name": "getStakingContract",
      "outputs": [
        {
          "internalType": "address",
          "name": "",
          "type": "address"
        }
      ],
      "stateMutability": "view",
      "type": "function"
    },
    {
      "inputs": [
        {
          "internalType": "address",
          "name": "",
          "type": "address"
        }
      ],
      "name": "isValidator",
      "outputs": [
        {
          "internalType": "bool",
          "name": "",
          "type": "bool"
        }
      ],
      "stateMutability": "view",
      "type": "function"
    },
    {
      "inputs": [],
      "name": "keyGenMode",
      "outputs": [
        {
          "internalType": "enum IValidatorSetHbbft.KeyGenMode",
          "name": "",
          "type": "uint8"
        }
      ],
      "stateMutability": "view",
      "type": "function"
    },
    {
      "inputs": [
        {
          "internalType": "enum IValidatorSetHbbft.KeyGenMode",
          "name": "_mode",
          "type": "uint8"
        }
      ],
      "name": "setKeyGenMode",
      "outputs": [],
      "stateMutability": "nonpayable",
      "type": "function"
    },
    {
      "inputs": [
        {
          "internalType": "address",
          "name": "_address",
          "type": "address"
        }
      ],
      "name": "setStakingContract",
      "outputs": [],
      "stateMutability": "nonpayable",
      "type": "function"
    },
    {
      "inputs": [
        {
          "internalType": "address",
          "name": "mining",
          "type": "address"
        },
        {
          "internalType": "bool",
          "name": "val",
          "type": "bool"
        }
      ],
      "name": "setValidator",
      "outputs": [],
      "stateMutability": "nonpayable",
      "type": "function"
    },
    {
      "inputs": [],
      "name": "stakingContract",
      "outputs": [
        {
          "internalType": "address",
          "name": "",
          "type": "address"
        }
      ],
      "stateMutability": "view",
      "type": "function"
    }
  ],
  "bytecode": "0x6080604052348015600f57600080fd5b5061046a8061001f6000396000f3fe608060405234801561001057600080fd5b50600436106100885760003560e01c80639dd373b91161005b5780639dd373b914610115578063b95d32c314610131578063ee99205c1461014d578063facd743b1461016b57610088565b806314e28d901461008d5780632b783756146100bd5780634623c91d146100db5780638e68dce4146100f7575b600080fd5b6100a760048036038101906100a2919061032b565b61019b565b6040516100b49190610364565b60405180910390f35b6100c56101b3565b6040516100d29190610364565b60405180910390f35b6100f560048036038101906100f09190610393565b6101c4565b005b6100ff61021f565b60405161010c91906103cf565b60405180910390f35b61012f600480360381019061012a919061032b565b610248565b005b61014b600480360381019061014691906103f6565b61028c565b005b6101556102b8565b60405161016291906103cf565b60405180910390f35b6101856004803603810190610180919061032b565b6102de565b6040516101929190610421565b60405180910390f35b60008060009054906101000a900460ff169050919050565b60008054906101000a900460ff1681565b80600160008473ffffffffffffffffffffffffffffffffffffffff1673ffffffffffffffffffffffffffffffffffffffff16815260200190815260200160002060006101000a81548160ff0219169083151502179055505050565b60008060019054906101000a900473ffffffffffffffffffffffffffffffffffffffff16905090565b80600060016101000a81548173ffffffffffffffffffffffffffffffffffffffff021916908373ffffffffffffffffffffffffffffffffffffffff16021790555050565b806000806101000a81548160ff021916908360058111156102b0576102af61034e565b5b021790555050565b600060019054906101000a900473ffffffffffffffffffffffffffffffffffffffff1681565b60016020528060005260406000206000915054906101000a900460ff1681565b60008135905073ffffffffffffffffffffffffffffffffffffffff8116811461032657600080fd5b919050565b60006020828403121561033d57600080fd5b610346826102fe565b905092915050565b634e487b7160e01b600052602160045260246000fd5b60006020820190506006831061038a57634e487b7160e01b600052602160045260246000fd5b82825292915050565b600080604083850312156103a657600080fd5b6103af836102fe565b9150602083013580151581146103c457600080fd5b809150509250929050565b600060208201905073ffffffffffffffffffffffffffffffffffffffff8316825292915050565b60006020828403121561040857600080fd5b81356006811061041757600080fd5b8091505092915050565b600060208201905082151582529291505056fea2646970667358221220db63262852a63497fbd7caf357cf8f421469539527a5da1a30568f5de3c8934764736f6c63430008190033",
  "linkReferences": {},
  "deployedLinkReferences": {}
}