{
  "_format": "hh-sol-artifact-1",
  "contractName": "MockValidatorSetHbbft",
  "sourceName": "contracts/mocks/MockValidatorSetHbbft.sol",
  "abi": [
    {
      "inputs": [],
      "stateMutability": "nonpayable",
      "type": "constructor"
    },
    {
      "inputs": [
        {
          "internalType": "address",
          "name": "staking",
          "type": "address"
        },
        {
          "internalType": "address",
          "name": "mining",
          "type": "address"
        },
        {
          "internalType": "bool",
          "name": "available",
          "type": "bool"
        }
      ],
      "name": "add",
      "outputs": [],
      "stateMutability": "nonpayable",
      "type": "function"
    },
    {
      "inputs": [
        {
          "internalType": "address",
          "name": "mining",
          "type": "address"
        }
      ],
      "name": "isValidator",
      "outputs": [
        {
          "internalType": "bool",
          "name": "",
          "type": "bool"
        }
      ],
      "stateMutability": "view",
      "type": "function"
    },
    {
      "inputs": [
        {
          "internalType": "address",
          "name": "_miningAddress",
          "type": "address"
        }
      ],
      "name": "isValidatorOrPending",
      "outputs": [
        {
          "internalType": "bool",
          "name": "",
          "type": "bool"
        }
      ],
      "stateMutability": "view",
      "type": "function"
    },
    {
      "inputs": [
        {
          "internalType": "address",
          "name": "staking",
          "type": "address"
        }
      ],
      "name": "miningByStakingAddress",
      "outputs": [
        {
          "internalType": "address",
          "name": "",
          "type": "address"
        }
      ],
      "stateMutability": "view",
      "type": "function"
    },
    {
      "inputs": [
        {
          "internalType": "address",
          "name": "staking",
          "type": "address"
        }
      ],
      "name": "remove",
      "outputs": [],
      "stateMutability": "nonpayable",
      "type": "function"
    },
    {
      "inputs": [
        {
          "internalType": "address",
          "name": "staking",
          "type": "address"
        },
        {
          "internalType": "bool",
          "name": "available",
          "type": "bool"
        }
      ],
      "name": "toggleAvailability",
      "outputs": [],
      "stateMutability": "nonpayable",
      "type": "function"
    },
    {
      "inputs": [
        {
          "internalType": "address",
          "name": "mining",
          "type": "address"
        }
      ],
      "name": "validatorAvailableSince",
      "outputs": [
        {
          "internalType": "uint256",
          "name": "",
          "type": "uint256"
        }
      ],
      "stateMutability": "view",
      "type": "function"
    },
    {
      "stateMutability": "payable",
      "type": "receive"
    }
  ],
  "bytecode": "0x6080604052348015600f57600080fd5b506103d28061001f6000396000f3fe6080604052600436106100735760003560e01c8063475b10f91161004e578063475b10f9146101ac57806360e5c52014610232578063a0d16cad14610260578063facd743b1461026057600080fd5b80625351751461008257806329092d0e146100d85780632fdf39eb1461015857600080fd5b3661007d57600080fd5b600080fd5b34801561008e57600080fd5b506100bb61009d3660046102f4565b6001600160a01b039081166000908152602081905260409020541690565b6040516001600160a01b0390911681526020015b60405180910390f35b3480156100e457600080fd5b506101566100f33660046102f4565b6001600160a01b039081166000818152602081815260408083208054909516835260018252808320805460ff1990811690915560028352908320805490911690559181529052805473ffffffffffffffffffffffffffffffffffffffff19169055565b005b34801561016457600080fd5b50610156610173366004610326565b6001600160a01b039182166000908152602081815260408083205490941682526002905291909120805460ff1916911515919091179055565b3480156101b857600080fd5b506101566101c7366004610359565b6001600160a01b039182166000818152600160208181526040808420805460ff199081169094179055969095168252818552858220805473ffffffffffffffffffffffffffffffffffffffff1916841790559181526002909352929091208054909216901515179055565b34801561023e57600080fd5b5061025261024d3660046102f4565b6102a9565b6040519081526020016100cf565b34801561026c57600080fd5b5061029961027b3660046102f4565b6001600160a01b031660009081526001602052604090205460ff1690565b60405190151581526020016100cf565b6001600160a01b03811660009081526002602052604081205460ff166102d05760006102d2565b435b92915050565b80356001600160a01b03811681146102ef57600080fd5b919050565b60006020828403121561030657600080fd5b61030f826102d8565b9392505050565b803580151581146102ef57600080fd5b6000806040838503121561033957600080fd5b610342836102d8565b915061035060208401610316565b90509250929050565b60008060006060848603121561036e57600080fd5b610377846102d8565b9250610385602085016102d8565b915061039360408501610316565b9050925092509256fea26469706673582212209b096e34872dd21ec230c9f9282053b0279b8c5031db2811e3a10a5dcab5403664736f6c63430008190033",
  "linkReferences": {},
  "deployedLinkReferences": {}
}