{
  "_format": "hh-sol-artifact-1",
  "contractName": "MockStakingHbbft",
  "sourceName": "contracts/mocks/MockStakingHbbft.sol",
  "abi": [
    {
      "inputs": [
        {
          "internalType": "address",
          "name": "_vs",
          "type": "address"
        }
      ],
      "stateMutability": "nonpayable",
      "type": "constructor"
    },
    {
      "anonymous": false,
      "inputs": [
        {
          "indexed": false,
          "internalType": "string",
          "name": "funcSelector",
          "type": "string"
        }
      ],
      "name": "RemoveChangeAbleParameter",
      "type": "event"
    },
    {
      "anonymous": false,
      "inputs": [
        {
          "indexed": false,
          "internalType": "string",
          "name": "setter",
          "type": "string"
        },
        {
          "indexed": false,
          "internalType": "string",
          "name": "getter",
          "type": "string"
        },
        {
          "indexed": false,
          "internalType": "uint256[]",
          "name": "params",
          "type": "uint256[]"
        }
      ],
      "name": "SetChangeAbleParameter",
      "type": "event"
    },
    {
      "anonymous": false,
      "inputs": [
        {
          "indexed": false,
          "internalType": "uint256",
          "name": "minStake",
          "type": "uint256"
        }
      ],
      "name": "SetDelegatorMinStake",
      "type": "event"
    },
    {
      "inputs": [
        {
          "internalType": "bytes4",
          "name": "",
          "type": "bytes4"
        }
      ],
      "name": "allowedParameterRange",
      "outputs": [
        {
          "internalType": "bytes4",
          "name": "getter",
          "type": "bytes4"
        }
      ],
      "stateMutability": "view",
      "type": "function"
    },
    {
      "inputs": [],
      "name": "delegatorMinStake",
      "outputs": [
        {
          "internalType": "uint256",
          "name": "",
          "type": "uint256"
        }
      ],
      "stateMutability": "view",
      "type": "function"
    },
    {
      "inputs": [
        {
          "internalType": "bytes4",
          "name": "_selector",
          "type": "bytes4"
        }
      ],
      "name": "getAllowedParamsRangeWithSelector",
      "outputs": [
        {
          "components": [
            {
              "internalType": "bytes4",
              "name": "getter",
              "type": "bytes4"
            },
            {
              "internalType": "uint256[]",
              "name": "range",
              "type": "uint256[]"
            }
          ],
          "internalType": "struct MockStakingHbbft.ParameterRange",
          "name": "",
          "type": "tuple"
        }
      ],
      "stateMutability": "view",
      "type": "function"
    },
    {
      "inputs": [
        {
          "internalType": "address",
          "name": "_stakingAddress",
          "type": "address"
        }
      ],
      "name": "isPoolValid",
      "outputs": [
        {
          "internalType": "bool",
          "name": "",
          "type": "bool"
        }
      ],
      "stateMutability": "view",
      "type": "function"
    },
    {
      "inputs": [
        {
          "internalType": "bytes4",
          "name": "funcSelector",
          "type": "bytes4"
        },
        {
          "internalType": "uint256",
          "name": "newVal",
          "type": "uint256"
        }
      ],
      "name": "isWithinAllowedRange",
      "outputs": [
        {
          "internalType": "bool",
          "name": "",
          "type": "bool"
        }
      ],
      "stateMutability": "view",
      "type": "function"
    },
    {
      "inputs": [
        {
          "internalType": "string",
          "name": "funcSelector",
          "type": "string"
        }
      ],
      "name": "removeAllowedChangeableParameter",
      "outputs": [],
      "stateMutability": "nonpayable",
      "type": "function"
    },
    {
      "inputs": [
        {
          "internalType": "string",
          "name": "setter",
          "type": "string"
        },
        {
          "internalType": "string",
          "name": "getter",
          "type": "string"
        },
        {
          "internalType": "uint256[]",
          "name": "params",
          "type": "uint256[]"
        }
      ],
      "name": "setAllowedChangeableParameter",
      "outputs": [],
      "stateMutability": "nonpayable",
      "type": "function"
    },
    {
      "inputs": [
        {
          "internalType": "uint256",
          "name": "_minStake",
          "type": "uint256"
        }
      ],
      "name": "setDelegatorMinStake",
      "outputs": [],
      "stateMutability": "nonpayable",
      "type": "function"
    },
    {
      "inputs": [
        {
          "internalType": "address",
          "name": "staking",
          "type": "address"
        },
        {
          "internalType": "uint256",
          "name": "stakeAmount",
          "type": "uint256"
        }
      ],
      "name": "setStake",
      "outputs": [],
      "stateMutability": "nonpayable",
      "type": "function"
    },
    {
      "inputs": [
        {
          "internalType": "address",
          "name": "staking",
          "type": "address"
        }
      ],
      "name": "stakeAmountTotal",
      "outputs": [
        {
          "internalType": "uint256",
          "name": "",
          "type": "uint256"
        }
      ],
      "stateMutability": "view",
      "type": "function"
    },
    {
      "inputs": [],
      "name": "totalStakedAmount",
      "outputs": [
        {
          "internalType": "uint256",
          "name": "",
          "type": "uint256"
        }
      ],
      "stateMutability": "view",
      "type": "function"
    },
    {
      "inputs": [],
      "name": "validatorSet",
      "outputs": [
        {
          "internalType": "contract IValidatorSetHbbft",
          "name": "",
          "type": "address"
        }
      ],
      "stateMutability": "view",
      "type": "function"
    }
  ],
  "bytecode": "0x608060405268056bc75e2d63100000600255348015601c57600080fd5b50604051610e1a380380610e1a833981016040819052603991605d565b600080546001600160a01b0319166001600160a01b0392909216919091179055608b565b600060208284031215606e57600080fd5b81516001600160a01b0381168114608457600080fd5b9392505050565b610d808061009a6000396000f3fe608060405234801561001057600080fd5b50600436106100d45760003560e01c80639b9fb6d011610081578063bf348f861161005b578063bf348f86146101f6578063da7a9b6a14610216578063f6c578611461021f57600080fd5b80639b9fb6d0146101ad578063ba08d237146101c0578063bd3cd525146101e357600080fd5b8063567e98f9116100b2578063567e98f91461013d57806392283634146101465780639426e2261461018257600080fd5b80632bafde8d146100d957806336e98ca8146100ee5780635267e1d614610101575b600080fd5b6100ec6100e73660046108b2565b610232565b005b6100ec6100fc366004610982565b61026e565b61012a61010f366004610a84565b6001600160a01b031660009081526003602052604090205490565b6040519081526020015b60405180910390f35b61012a60015481565b610169610154366004610abe565b60046020526000908152604090205460e01b81565b6040516001600160e01b03199091168152602001610134565b600054610195906001600160a01b031681565b6040516001600160a01b039091168152602001610134565b6100ec6101bb366004610ad9565b61031b565b6101d36101ce366004610b16565b610388565b6040519015158152602001610134565b6100ec6101f1366004610b40565b61056c565b610209610204366004610abe565b6105a2565b6040516101349190610b5e565b61012a60025481565b6101d361022d366004610a84565b610643565b60028190556040518181527ffee02ce7aa40f9c49eaabd26d404fa88714b97cb209af8954cfd5eeb8213b93e906020015b60405180910390a150565b60408051808201825283516020808601919091206001600160e01b03199081168352818301858152875188840120909116600090815260048352939093208251815463ffffffff191660e09190911c178155925180519293926102d79260018501920190610831565b509050507f3d45a310c5a076ea07aa2947ca3c06cc2a8b3571065867ad6f8e7096a2c9d50a83838360405161030e93929190610c05565b60405180910390a1505050565b80516020808301919091206001600160e01b0319166000908152600490915260408120805463ffffffff1916815590610357600183018261087c565b50507f92d44565a40fe29702ffa146ddaa3bb133d4077f5312d682d0a2632a9bc73a8a816040516102639190610c71565b6001600160e01b0319808316600090815260046020908152604080832081518083018352815460e01b90951685526001810180548351818602810186019094528084529495869590949293858401939092919083018282801561040a57602002820191906000526020600020905b8154815260200190600101908083116103f6575b505050505081525050905080602001515160000361042c576000915050610566565b6020810151815160009061043f90610727565b90506000805b835181101561055f578284828151811061046157610461610c84565b6020026020010151036105575760019150600080821161049b578460008151811061048e5761048e610c84565b60200260200101516104c0565b846104a7600184610cb0565b815181106104b7576104b7610c84565b60200260200101515b90506000600186516104d29190610cb0565b83106105045785600187516104e79190610cb0565b815181106104f7576104f7610c84565b6020026020010151610529565b85610510846001610cc3565b8151811061052057610520610c84565b60200260200101515b905081891415801561053b5750808914155b15610550576000975050505050505050610566565b505061055f565b600101610445565b5093505050505b92915050565b6001600160a01b038216600090815260036020526040812082905560018054839290610599908490610cc3565b90915550505050565b6040805180820190915260008152606060208201526001600160e01b031980831660009081526004602090815260409182902082518084018452815460e01b909416845260018101805484518185028101850190955280855291938584019390929083018282801561063357602002820191906000526020600020905b81548152602001906001019080831161061f575b5050505050815250509050919050565b600080546040516253517560e01b81526001600160a01b038481166004830152839216906253517590602401602060405180830381865afa15801561068c573d6000803e3d6000fd5b505050506040513d601f19601f820116820180604052508101906106b09190610cd6565b60005460405163facd743b60e01b81526001600160a01b03808416600483015292935091169063facd743b90602401602060405180830381865afa1580156106fc573d6000803e3d6000fd5b505050506040513d601f19601f820116820180604052508101906107209190610cf3565b9392505050565b60408051600481526024810182526020810180517bffffffffffffffffffffffffffffffffffffffffffffffffffffffff166001600160e01b0319851617905290516000919082908190309061077e908590610d15565b600060405180830381855afa9150503d80600081146107b9576040519150601f19603f3d011682016040523d82523d6000602084013e6107be565b606091505b5091509150816108145760405162461bcd60e51b815260206004820152601260248201527f4765747465722063616c6c206661696c65640000000000000000000000000000604482015260640160405180910390fd5b808060200190518101906108289190610d31565b95945050505050565b82805482825590600052602060002090810192821561086c579160200282015b8281111561086c578251825591602001919060010190610851565b5061087892915061089d565b5090565b508054600082559060005260206000209081019061089a919061089d565b50565b5b80821115610878576000815560010161089e565b6000602082840312156108c457600080fd5b5035919050565b634e487b7160e01b600052604160045260246000fd5b604051601f8201601f1916810167ffffffffffffffff8111828210171561090a5761090a6108cb565b604052919050565b600082601f83011261092357600080fd5b813567ffffffffffffffff81111561093d5761093d6108cb565b610950601f8201601f19166020016108e1565b81815284602083860101111561096557600080fd5b816020850160208301376000918101602001919091529392505050565b60008060006060848603121561099757600080fd5b833567ffffffffffffffff808211156109af57600080fd5b6109bb87838801610912565b94506020915081860135818111156109d257600080fd5b6109de88828901610912565b9450506040860135818111156109f357600080fd5b8601601f81018813610a0457600080fd5b803582811115610a1657610a166108cb565b8060051b9250610a278484016108e1565b818152928201840192848101908a851115610a4157600080fd5b928501925b84841015610a5f57833582529285019290850190610a46565b8096505050505050509250925092565b6001600160a01b038116811461089a57600080fd5b600060208284031215610a9657600080fd5b813561072081610a6f565b80356001600160e01b031981168114610ab957600080fd5b919050565b600060208284031215610ad057600080fd5b61072082610aa1565b600060208284031215610aeb57600080fd5b813567ffffffffffffffff811115610b0257600080fd5b610b0e84828501610912565b949350505050565b60008060408385031215610b2957600080fd5b610b3283610aa1565b946020939093013593505050565b60008060408385031215610b5357600080fd5b8235610b3281610a6f565b602080825282516001600160e01b031916828201528281015160408084015280516060840181905260009291820190839060808601905b8083101561055f5783518252928401926001929092019190840190610b95565b60005b83811015610bd0578181015183820152602001610bb8565b50506000910152565b60008151808452610bf1816020860160208601610bb5565b601f01601f19169290920160200192915050565b606081526000610c186060830186610bd9565b60208382036020850152610c2c8287610bd9565b84810360408601528551808252602080880194509091019060005b81811015610c6357845183529383019391830191600101610c47565b509098975050505050505050565b6020815260006107206020830184610bd9565b634e487b7160e01b600052603260045260246000fd5b634e487b7160e01b600052601160045260246000fd5b8181038181111561056657610566610c9a565b8082018082111561056657610566610c9a565b600060208284031215610ce857600080fd5b815161072081610a6f565b600060208284031215610d0557600080fd5b8151801515811461072057600080fd5b60008251610d27818460208701610bb5565b9190910192915050565b600060208284031215610d4357600080fd5b505191905056fea2646970667358221220948bdbc53e5fcabac70f6cd8a32b33388ea1332d7d22829da9407b65f1da80a964736f6c63430008190033",
  "linkReferences": {},
  "deployedLinkReferences": {}
}