{
  "_format": "hh-sol-artifact-1",
  "contractName": "MockStakingHbbft",
  "sourceName": "contracts/mocks/MockStakingHbbft.sol",
  "abi": [
    {
      "inputs": [],
      "stateMutability": "nonpayable",
      "type": "constructor"
    },
    {
      "anonymous": false,
      "inputs": [
        {
          "indexed": false,
          "internalType": "string",
          "name": "funcSelector",
          "type": "string"
        }
      ],
      "name": "RemoveChangeAbleParameter",
      "type": "event"
    },
    {
      "anonymous": false,
      "inputs": [
        {
          "indexed": false,
          "internalType": "string",
          "name": "setter",
          "type": "string"
        },
        {
          "indexed": false,
          "internalType": "string",
          "name": "getter",
          "type": "string"
        },
        {
          "indexed": false,
          "internalType": "uint256[]",
          "name": "params",
          "type": "uint256[]"
        }
      ],
      "name": "SetChangeAbleParameter",
      "type": "event"
    },
    {
      "anonymous": false,
      "inputs": [
        {
          "indexed": false,
          "internalType": "uint256",
          "name": "minStake",
          "type": "uint256"
        }
      ],
      "name": "SetDelegatorMinStake",
      "type": "event"
    },
    {
      "inputs": [
        {
          "internalType": "bytes4",
          "name": "",
          "type": "bytes4"
        }
      ],
      "name": "allowedParameterRange",
      "outputs": [
        {
          "internalType": "bytes4",
          "name": "getter",
          "type": "bytes4"
        }
      ],
      "stateMutability": "view",
      "type": "function"
    },
    {
      "inputs": [],
      "name": "delegatorMinStake",
      "outputs": [
        {
          "internalType": "uint256",
          "name": "",
          "type": "uint256"
        }
      ],
      "stateMutability": "view",
      "type": "function"
    },
    {
      "inputs": [
        {
          "internalType": "bytes4",
          "name": "_selector",
          "type": "bytes4"
        }
      ],
      "name": "getAllowedParamsRangeWithSelector",
      "outputs": [
        {
          "components": [
            {
              "internalType": "bytes4",
              "name": "getter",
              "type": "bytes4"
            },
            {
              "internalType": "uint256[]",
              "name": "range",
              "type": "uint256[]"
            }
          ],
          "internalType": "struct MockStakingHbbft.ParameterRange",
          "name": "",
          "type": "tuple"
        }
      ],
      "stateMutability": "view",
      "type": "function"
    },
    {
      "inputs": [
        {
          "internalType": "bytes4",
          "name": "funcSelector",
          "type": "bytes4"
        },
        {
          "internalType": "uint256",
          "name": "newVal",
          "type": "uint256"
        }
      ],
      "name": "isWithinAllowedRange",
      "outputs": [
        {
          "internalType": "bool",
          "name": "",
          "type": "bool"
        }
      ],
      "stateMutability": "view",
      "type": "function"
    },
    {
      "inputs": [
        {
          "internalType": "string",
          "name": "funcSelector",
          "type": "string"
        }
      ],
      "name": "removeAllowedChangeableParameter",
      "outputs": [],
      "stateMutability": "nonpayable",
      "type": "function"
    },
    {
      "inputs": [
        {
          "internalType": "string",
          "name": "setter",
          "type": "string"
        },
        {
          "internalType": "string",
          "name": "getter",
          "type": "string"
        },
        {
          "internalType": "uint256[]",
          "name": "params",
          "type": "uint256[]"
        }
      ],
      "name": "setAllowedChangeableParameter",
      "outputs": [],
      "stateMutability": "nonpayable",
      "type": "function"
    },
    {
      "inputs": [
        {
          "internalType": "uint256",
          "name": "_minStake",
          "type": "uint256"
        }
      ],
      "name": "setDelegatorMinStake",
      "outputs": [],
      "stateMutability": "nonpayable",
      "type": "function"
    },
    {
      "inputs": [
        {
          "internalType": "address",
          "name": "staking",
          "type": "address"
        },
        {
          "internalType": "uint256",
          "name": "stakeAmount",
          "type": "uint256"
        }
      ],
      "name": "setStake",
      "outputs": [],
      "stateMutability": "nonpayable",
      "type": "function"
    },
    {
      "inputs": [
        {
          "internalType": "address",
          "name": "staking",
          "type": "address"
        }
      ],
      "name": "stakeAmountTotal",
      "outputs": [
        {
          "internalType": "uint256",
          "name": "",
          "type": "uint256"
        }
      ],
      "stateMutability": "view",
      "type": "function"
    },
    {
      "inputs": [],
      "name": "totalStakedAmount",
      "outputs": [
        {
          "internalType": "uint256",
          "name": "",
          "type": "uint256"
        }
      ],
      "stateMutability": "view",
      "type": "function"
    }
  ],
  "bytecode": "0x608060405268056bc75e2d63100000600155348015601c57600080fd5b50610c358061002c6000396000f3fe608060405234801561001057600080fd5b50600436106100be5760003560e01c80639b9fb6d011610076578063bd3cd5251161005b578063bd3cd525146101af578063bf348f86146101c2578063da7a9b6a146101e257600080fd5b80639b9fb6d014610179578063ba08d2371461018c57600080fd5b80635267e1d6116100a75780635267e1d6146100eb578063567e98f914610134578063922836341461013d57600080fd5b80632bafde8d146100c357806336e98ca8146100d8575b600080fd5b6100d66100d1366004610794565b6101eb565b005b6100d66100e6366004610864565b610227565b6101216100f936600461097a565b73ffffffffffffffffffffffffffffffffffffffff1660009081526002602052604090205490565b6040519081526020015b60405180910390f35b61012160005481565b61016061014b3660046109b4565b60036020526000908152604090205460e01b81565b6040516001600160e01b0319909116815260200161012b565b6100d66101873660046109cf565b6102d4565b61019f61019a366004610a0c565b610341565b604051901515815260200161012b565b6100d66101bd366004610a36565b610525565b6101d56101d03660046109b4565b610568565b60405161012b9190610a52565b61012160015481565b60018190556040518181527ffee02ce7aa40f9c49eaabd26d404fa88714b97cb209af8954cfd5eeb8213b93e906020015b60405180910390a150565b60408051808201825283516020808601919091206001600160e01b03199081168352818301858152875188840120909116600090815260038352939093208251815463ffffffff191660e09190911c178155925180519293926102909260018501920190610713565b509050507f3d45a310c5a076ea07aa2947ca3c06cc2a8b3571065867ad6f8e7096a2c9d50a8383836040516102c793929190610af9565b60405180910390a1505050565b80516020808301919091206001600160e01b0319166000908152600390915260408120805463ffffffff1916815590610310600183018261075e565b50507f92d44565a40fe29702ffa146ddaa3bb133d4077f5312d682d0a2632a9bc73a8a8160405161021c9190610b65565b6001600160e01b0319808316600090815260036020908152604080832081518083018352815460e01b9095168552600181018054835181860281018601909452808452949586959094929385840193909291908301828280156103c357602002820191906000526020600020905b8154815260200190600101908083116103af575b50505050508152505090508060200151516000036103e557600091505061051f565b602081015181516000906103f890610609565b90506000805b8351811015610518578284828151811061041a5761041a610b78565b60200260200101510361051057600191506000808211610454578460008151811061044757610447610b78565b6020026020010151610479565b84610460600184610ba4565b8151811061047057610470610b78565b60200260200101515b905060006001865161048b9190610ba4565b83106104bd5785600187516104a09190610ba4565b815181106104b0576104b0610b78565b60200260200101516104e2565b856104c9846001610bb7565b815181106104d9576104d9610b78565b60200260200101515b90508189141580156104f45750808914155b1561050957600097505050505050505061051f565b5050610518565b6001016103fe565b5093505050505b92915050565b73ffffffffffffffffffffffffffffffffffffffff821660009081526002602052604081208290558054829190819061055f908490610bb7565b90915550505050565b6040805180820190915260008152606060208201526001600160e01b031980831660009081526003602090815260409182902082518084018452815460e01b90941684526001810180548451818502810185019095528085529193858401939092908301828280156105f957602002820191906000526020600020905b8154815260200190600101908083116105e5575b5050505050815250509050919050565b60408051600481526024810182526020810180517bffffffffffffffffffffffffffffffffffffffffffffffffffffffff166001600160e01b03198516179052905160009190829081903090610660908590610bca565b600060405180830381855afa9150503d806000811461069b576040519150601f19603f3d011682016040523d82523d6000602084013e6106a0565b606091505b5091509150816106f65760405162461bcd60e51b815260206004820152601260248201527f4765747465722063616c6c206661696c65640000000000000000000000000000604482015260640160405180910390fd5b8080602001905181019061070a9190610be6565b95945050505050565b82805482825590600052602060002090810192821561074e579160200282015b8281111561074e578251825591602001919060010190610733565b5061075a92915061077f565b5090565b508054600082559060005260206000209081019061077c919061077f565b50565b5b8082111561075a5760008155600101610780565b6000602082840312156107a657600080fd5b5035919050565b634e487b7160e01b600052604160045260246000fd5b604051601f8201601f1916810167ffffffffffffffff811182821017156107ec576107ec6107ad565b604052919050565b600082601f83011261080557600080fd5b813567ffffffffffffffff81111561081f5761081f6107ad565b610832601f8201601f19166020016107c3565b81815284602083860101111561084757600080fd5b816020850160208301376000918101602001919091529392505050565b60008060006060848603121561087957600080fd5b833567ffffffffffffffff8082111561089157600080fd5b61089d878388016107f4565b94506020915081860135818111156108b457600080fd5b6108c0888289016107f4565b9450506040860135818111156108d557600080fd5b8601601f810188136108e657600080fd5b8035828111156108f8576108f86107ad565b8060051b92506109098484016107c3565b818152928201840192848101908a85111561092357600080fd5b928501925b8484101561094157833582529285019290850190610928565b8096505050505050509250925092565b803573ffffffffffffffffffffffffffffffffffffffff8116811461097557600080fd5b919050565b60006020828403121561098c57600080fd5b61099582610951565b9392505050565b80356001600160e01b03198116811461097557600080fd5b6000602082840312156109c657600080fd5b6109958261099c565b6000602082840312156109e157600080fd5b813567ffffffffffffffff8111156109f857600080fd5b610a04848285016107f4565b949350505050565b60008060408385031215610a1f57600080fd5b610a288361099c565b946020939093013593505050565b60008060408385031215610a4957600080fd5b610a2883610951565b602080825282516001600160e01b031916828201528281015160408084015280516060840181905260009291820190839060808601905b808310156105185783518252928401926001929092019190840190610a89565b60005b83811015610ac4578181015183820152602001610aac565b50506000910152565b60008151808452610ae5816020860160208601610aa9565b601f01601f19169290920160200192915050565b606081526000610b0c6060830186610acd565b60208382036020850152610b208287610acd565b84810360408601528551808252602080880194509091019060005b81811015610b5757845183529383019391830191600101610b3b565b509098975050505050505050565b6020815260006109956020830184610acd565b634e487b7160e01b600052603260045260246000fd5b634e487b7160e01b600052601160045260246000fd5b8181038181111561051f5761051f610b8e565b8082018082111561051f5761051f610b8e565b60008251610bdc818460208701610aa9565b9190910192915050565b600060208284031215610bf857600080fd5b505191905056fea26469706673582212201c843af704c6b1d3eb4cbe6c56e1e569b9f897abd7987ecb6bc038c1a6682ceb64736f6c63430008190033",
  "linkReferences": {},
  "deployedLinkReferences": {}
}