{
  "_format": "hh-sol-artifact-1",
  "contractName": "MockDiamondDaoLowMajority",
  "sourceName": "contracts/mocks/MockDiamondDaoLowMajority.sol",
  "abi": [
    {
      "inputs": [],
      "name": "FailedInnerCall",
      "type": "error"
    },
    {
      "inputs": [],
      "name": "InvalidArgument",
      "type": "error"
    },
    {
      "inputs": [],
      "name": "InvalidInitialization",
      "type": "error"
    },
    {
      "inputs": [],
      "name": "NotInitializing",
      "type": "error"
    },
    {
      "inputs": [],
      "name": "OnlyGovernance",
      "type": "error"
    },
    {
      "inputs": [],
      "name": "ReentrancyGuardReentrantCall",
      "type": "error"
    },
    {
      "anonymous": false,
      "inputs": [
        {
          "indexed": false,
          "internalType": "uint64",
          "name": "version",
          "type": "uint64"
        }
      ],
      "name": "Initialized",
      "type": "event"
    },
    {
      "anonymous": false,
      "inputs": [
        {
          "indexed": false,
          "internalType": "uint256",
          "name": "proposalId",
          "type": "uint256"
        }
      ],
      "name": "LowMajorityProposalExecuted",
      "type": "event"
    },
    {
      "inputs": [
        {
          "internalType": "uint256",
          "name": "proposalId",
          "type": "uint256"
        },
        {
          "internalType": "address[]",
          "name": "targets",
          "type": "address[]"
        },
        {
          "internalType": "uint256[]",
          "name": "values",
          "type": "uint256[]"
        },
        {
          "internalType": "bytes[]",
          "name": "calldatas",
          "type": "bytes[]"
        }
      ],
      "name": "execute",
      "outputs": [],
      "stateMutability": "nonpayable",
      "type": "function"
    },
    {
      "inputs": [
        {
          "internalType": "address",
          "name": "_mainDao",
          "type": "address"
        }
      ],
      "name": "initialize",
      "outputs": [],
      "stateMutability": "nonpayable",
      "type": "function"
    },
    {
      "inputs": [],
      "name": "lowMajorityPot",
      "outputs": [
        {
          "internalType": "uint256",
          "name": "",
          "type": "uint256"
        }
      ],
      "stateMutability": "view",
      "type": "function"
    },
    {
      "inputs": [],
      "name": "mainDao",
      "outputs": [
        {
          "internalType": "address",
          "name": "",
          "type": "address"
        }
      ],
      "stateMutability": "view",
      "type": "function"
    },
    {
      "inputs": [
        {
          "internalType": "address",
          "name": "",
          "type": "address"
        },
        {
          "internalType": "address",
          "name": "",
          "type": "address"
        },
        {
          "internalType": "uint256[]",
          "name": "",
          "type": "uint256[]"
        },
        {
          "internalType": "uint256[]",
          "name": "",
          "type": "uint256[]"
        },
        {
          "internalType": "bytes",
          "name": "",
          "type": "bytes"
        }
      ],
      "name": "onERC1155BatchReceived",
      "outputs": [
        {
          "internalType": "bytes4",
          "name": "",
          "type": "bytes4"
        }
      ],
      "stateMutability": "nonpayable",
      "type": "function"
    },
    {
      "inputs": [
        {
          "internalType": "address",
          "name": "",
          "type": "address"
        },
        {
          "internalType": "address",
          "name": "",
          "type": "address"
        },
        {
          "internalType": "uint256",
          "name": "",
          "type": "uint256"
        },
        {
          "internalType": "uint256",
          "name": "",
          "type": "uint256"
        },
        {
          "internalType": "bytes",
          "name": "",
          "type": "bytes"
        }
      ],
      "name": "onERC1155Received",
      "outputs": [
        {
          "internalType": "bytes4",
          "name": "",
          "type": "bytes4"
        }
      ],
      "stateMutability": "nonpayable",
      "type": "function"
    },
    {
      "inputs": [
        {
          "internalType": "address",
          "name": "",
          "type": "address"
        },
        {
          "internalType": "address",
          "name": "",
          "type": "address"
        },
        {
          "internalType": "uint256",
          "name": "",
          "type": "uint256"
        },
        {
          "internalType": "bytes",
          "name": "",
          "type": "bytes"
        }
      ],
      "name": "onERC721Received",
      "outputs": [
        {
          "internalType": "bytes4",
          "name": "",
          "type": "bytes4"
        }
      ],
      "stateMutability": "nonpayable",
      "type": "function"
    },
    {
      "inputs": [
        {
          "components": [
            {
              "internalType": "uint64",
              "name": "countYes",
              "type": "uint64"
            },
            {
              "internalType": "uint64",
              "name": "countNo",
              "type": "uint64"
            },
            {
              "internalType": "uint256",
              "name": "stakeYes",
              "type": "uint256"
            },
            {
              "internalType": "uint256",
              "name": "stakeNo",
              "type": "uint256"
            }
          ],
          "internalType": "struct VotingResult",
          "name": "result",
          "type": "tuple"
        },
        {
          "internalType": "uint256",
          "name": "totalStakedAmount",
          "type": "uint256"
        }
      ],
      "name": "quorumReached",
      "outputs": [
        {
          "internalType": "bool",
          "name": "",
          "type": "bool"
        }
      ],
      "stateMutability": "pure",
      "type": "function"
    },
    {
      "inputs": [
        {
          "internalType": "address",
          "name": "_mainDao",
          "type": "address"
        }
      ],
      "name": "setMainDaoAddress",
      "outputs": [],
      "stateMutability": "nonpayable",
      "type": "function"
    },
    {
      "inputs": [
        {
          "internalType": "bytes4",
          "name": "interfaceId",
          "type": "bytes4"
        }
      ],
      "name": "supportsInterface",
      "outputs": [
        {
          "internalType": "bool",
          "name": "",
          "type": "bool"
        }
      ],
      "stateMutability": "view",
      "type": "function"
    },
    {
      "stateMutability": "payable",
      "type": "receive"
    }
  ],
  "bytecode": "0x6080604052348015600f57600080fd5b506016601a565b60ca565b7ff0c57e16840df040f15088dc2f81fe391c3923bec73e23a9662efc9c229c6a00805468010000000000000000900460ff161560695760405163f92ee8a960e01b815260040160405180910390fd5b80546001600160401b039081161460c75780546001600160401b0319166001600160401b0390811782556040519081527fc7f505b2f371ae2175ee4913f4499e1f2633a7b5936321eed1cdaeb6115181d29060200160405180910390a15b50565b610d31806100d96000396000f3fe6080604052600436106100b55760003560e01c806352e9fe9711610069578063c4d66de81161004e578063c4d66de814610241578063c963d4ed14610261578063f23a6e611461028557600080fd5b806352e9fe97146101dd578063bc197c811461021557600080fd5b8063364604c41161009a578063364604c4146101515780633aad1c7a146101715780634590239b146101bd57600080fd5b806301ffc9a7146100d8578063150b7a021461010d57600080fd5b366100d357346000808282546100cb91906107b4565b925050819055005b600080fd5b3480156100e457600080fd5b506100f86100f33660046107c7565b6102b1565b60405190151581526020015b60405180910390f35b34801561011957600080fd5b506101386101283660046108c4565b630a85bd0160e11b949350505050565b6040516001600160e01b03199091168152602001610104565b34801561015d57600080fd5b506100f861016c366004610944565b6102e8565b34801561017d57600080fd5b506101bb61018c3660046109ca565b6001805473ffffffffffffffffffffffffffffffffffffffff19166001600160a01b0392909216919091179055565b005b3480156101c957600080fd5b506101bb6101d8366004610a31565b6102fb565b3480156101e957600080fd5b506001546101fd906001600160a01b031681565b6040516001600160a01b039091168152602001610104565b34801561022157600080fd5b50610138610230366004610b55565b63bc197c8160e01b95945050505050565b34801561024d57600080fd5b506101bb61025c3660046109ca565b6104b1565b34801561026d57600080fd5b5061027760005481565b604051908152602001610104565b34801561029157600080fd5b506101386102a0366004610bff565b63f23a6e6160e01b95945050505050565b60006001600160e01b03198216630271189760e51b14806102e257506301ffc9a760e01b6001600160e01b03198316145b92915050565b60006102f48383610633565b9392505050565b610303610679565b6001546001600160a01b0316331461032e576040516354348f0360e01b815260040160405180910390fd5b60005b8581101561044b57600085858381811061034d5761034d610c64565b90506020020135905060008089898581811061036b5761036b610c64565b905060200201602081019061038091906109ca565b6001600160a01b031688888681811061039b5761039b610c64565b905060200201358787878181106103b4576103b4610c64565b90506020028101906103c69190610c7a565b6040516103d4929190610cc1565b60006040518083038185875af1925050503d8060008114610411576040519150601f19603f3d011682016040523d82523d6000602084013e610416565b606091505b509150915061042582826106c3565b50826000808282546104379190610cd1565b909155505060019093019250610331915050565b506040518781527f3255bd4dce9d59065cf88c8550ab79cdf1a4bb7d6879df5a975d6229cdfaaa299060200160405180910390a16104a860017f9b779b17422d0df92223018b32b4d1fa46e071723d6817e2486d003becc55f0055565b50505050505050565b7ff0c57e16840df040f15088dc2f81fe391c3923bec73e23a9662efc9c229c6a00805468010000000000000000810460ff16159067ffffffffffffffff166000811580156104fc5750825b905060008267ffffffffffffffff1660011480156105195750303b155b905081158015610527575080155b156105455760405163f92ee8a960e01b815260040160405180910390fd5b845467ffffffffffffffff19166001178555831561057957845468ff00000000000000001916680100000000000000001785555b6001600160a01b0386166105a05760405163a9cb9e0d60e01b815260040160405180910390fd5b6105a8610705565b6105b0610717565b6105b8610717565b6001805473ffffffffffffffffffffffffffffffffffffffff19166001600160a01b038816179055831561062b57845468ff000000000000000019168555604051600181527fc7f505b2f371ae2175ee4913f4499e1f2633a7b5936321eed1cdaeb6115181d29060200160405180910390a15b505050505050565b600080610641836002610ce4565b905080846060015160066106559190610ce4565b61065f91906107b4565b604085015161066f906006610ce4565b1015949350505050565b7f9b779b17422d0df92223018b32b4d1fa46e071723d6817e2486d003becc55f008054600119016106bd57604051633ee5aeb560e01b815260040160405180910390fd5b60029055565b6060826106d8576106d38261071f565b6102e2565b50806102e2565b60017f9b779b17422d0df92223018b32b4d1fa46e071723d6817e2486d003becc55f0055565b61070d610748565b610715610796565b565b610715610748565b80511561072f5780518082602001fd5b604051630a12f52160e11b815260040160405180910390fd5b7ff0c57e16840df040f15088dc2f81fe391c3923bec73e23a9662efc9c229c6a005468010000000000000000900460ff1661071557604051631afcd79f60e31b815260040160405180910390fd5b6106df610748565b634e487b7160e01b600052601160045260246000fd5b808201808211156102e2576102e261079e565b6000602082840312156107d957600080fd5b81356001600160e01b0319811681146102f457600080fd5b80356001600160a01b038116811461080857600080fd5b919050565b634e487b7160e01b600052604160045260246000fd5b604051601f8201601f1916810167ffffffffffffffff8111828210171561084c5761084c61080d565b604052919050565b600082601f83011261086557600080fd5b813567ffffffffffffffff81111561087f5761087f61080d565b610892601f8201601f1916602001610823565b8181528460208386010111156108a757600080fd5b816020850160208301376000918101602001919091529392505050565b600080600080608085870312156108da57600080fd5b6108e3856107f1565b93506108f1602086016107f1565b925060408501359150606085013567ffffffffffffffff81111561091457600080fd5b61092087828801610854565b91505092959194509250565b803567ffffffffffffffff8116811461080857600080fd5b60008082840360a081121561095857600080fd5b608081121561096657600080fd5b506040516080810181811067ffffffffffffffff8211171561098a5761098a61080d565b6040526109968461092c565b81526109a46020850161092c565b602082015260408481013590820152606080850135908201529460809093013593505050565b6000602082840312156109dc57600080fd5b6102f4826107f1565b60008083601f8401126109f757600080fd5b50813567ffffffffffffffff811115610a0f57600080fd5b6020830191508360208260051b8501011115610a2a57600080fd5b9250929050565b60008060008060008060006080888a031215610a4c57600080fd5b87359650602088013567ffffffffffffffff80821115610a6b57600080fd5b610a778b838c016109e5565b909850965060408a0135915080821115610a9057600080fd5b610a9c8b838c016109e5565b909650945060608a0135915080821115610ab557600080fd5b50610ac28a828b016109e5565b989b979a50959850939692959293505050565b600082601f830112610ae657600080fd5b8135602067ffffffffffffffff821115610b0257610b0261080d565b8160051b610b11828201610823565b9283528481018201928281019087851115610b2b57600080fd5b83870192505b84831015610b4a57823582529183019190830190610b31565b979650505050505050565b600080600080600060a08688031215610b6d57600080fd5b610b76866107f1565b9450610b84602087016107f1565b9350604086013567ffffffffffffffff80821115610ba157600080fd5b610bad89838a01610ad5565b94506060880135915080821115610bc357600080fd5b610bcf89838a01610ad5565b93506080880135915080821115610be557600080fd5b50610bf288828901610854565b9150509295509295909350565b600080600080600060a08688031215610c1757600080fd5b610c20866107f1565b9450610c2e602087016107f1565b93506040860135925060608601359150608086013567ffffffffffffffff811115610c5857600080fd5b610bf288828901610854565b634e487b7160e01b600052603260045260246000fd5b6000808335601e19843603018112610c9157600080fd5b83018035915067ffffffffffffffff821115610cac57600080fd5b602001915036819003821315610a2a57600080fd5b8183823760009101908152919050565b818103818111156102e2576102e261079e565b80820281158282048414176102e2576102e261079e56fea26469706673582212205be3ed0b4fdf6e7bbabda4e89bddb9d763ec48d7df782165bd87f51e12a71f5964736f6c63430008190033",
  "linkReferences": {},
  "deployedLinkReferences": {}
}