{
  "_format": "hh-sol-artifact-1",
  "contractName": "MockERC1155",
  "sourceName": "contracts/mocks/MockTokens.sol",
  "abi": [
    {
      "inputs": [],
      "stateMutability": "nonpayable",
      "type": "constructor"
    },
    {
      "inputs": [
        {
          "internalType": "address",
          "name": "sender",
          "type": "address"
        },
        {
          "internalType": "uint256",
          "name": "balance",
          "type": "uint256"
        },
        {
          "internalType": "uint256",
          "name": "needed",
          "type": "uint256"
        },
        {
          "internalType": "uint256",
          "name": "tokenId",
          "type": "uint256"
        }
      ],
      "name": "ERC1155InsufficientBalance",
      "type": "error"
    },
    {
      "inputs": [
        {
          "internalType": "address",
          "name": "approver",
          "type": "address"
        }
      ],
      "name": "ERC1155InvalidApprover",
      "type": "error"
    },
    {
      "inputs": [
        {
          "internalType": "uint256",
          "name": "idsLength",
          "type": "uint256"
        },
        {
          "internalType": "uint256",
          "name": "valuesLength",
          "type": "uint256"
        }
      ],
      "name": "ERC1155InvalidArrayLength",
      "type": "error"
    },
    {
      "inputs": [
        {
          "internalType": "address",
          "name": "operator",
          "type": "address"
        }
      ],
      "name": "ERC1155InvalidOperator",
      "type": "error"
    },
    {
      "inputs": [
        {
          "internalType": "address",
          "name": "receiver",
          "type": "address"
        }
      ],
      "name": "ERC1155InvalidReceiver",
      "type": "error"
    },
    {
      "inputs": [
        {
          "internalType": "address",
          "name": "sender",
          "type": "address"
        }
      ],
      "name": "ERC1155InvalidSender",
      "type": "error"
    },
    {
      "inputs": [
        {
          "internalType": "address",
          "name": "operator",
          "type": "address"
        },
        {
          "internalType": "address",
          "name": "owner",
          "type": "address"
        }
      ],
      "name": "ERC1155MissingApprovalForAll",
      "type": "error"
    },
    {
      "anonymous": false,
      "inputs": [
        {
          "indexed": true,
          "internalType": "address",
          "name": "account",
          "type": "address"
        },
        {
          "indexed": true,
          "internalType": "address",
          "name": "operator",
          "type": "address"
        },
        {
          "indexed": false,
          "internalType": "bool",
          "name": "approved",
          "type": "bool"
        }
      ],
      "name": "ApprovalForAll",
      "type": "event"
    },
    {
      "anonymous": false,
      "inputs": [
        {
          "indexed": true,
          "internalType": "address",
          "name": "operator",
          "type": "address"
        },
        {
          "indexed": true,
          "internalType": "address",
          "name": "from",
          "type": "address"
        },
        {
          "indexed": true,
          "internalType": "address",
          "name": "to",
          "type": "address"
        },
        {
          "indexed": false,
          "internalType": "uint256[]",
          "name": "ids",
          "type": "uint256[]"
        },
        {
          "indexed": false,
          "internalType": "uint256[]",
          "name": "values",
          "type": "uint256[]"
        }
      ],
      "name": "TransferBatch",
      "type": "event"
    },
    {
      "anonymous": false,
      "inputs": [
        {
          "indexed": true,
          "internalType": "address",
          "name": "operator",
          "type": "address"
        },
        {
          "indexed": true,
          "internalType": "address",
          "name": "from",
          "type": "address"
        },
        {
          "indexed": true,
          "internalType": "address",
          "name": "to",
          "type": "address"
        },
        {
          "indexed": false,
          "internalType": "uint256",
          "name": "id",
          "type": "uint256"
        },
        {
          "indexed": false,
          "internalType": "uint256",
          "name": "value",
          "type": "uint256"
        }
      ],
      "name": "TransferSingle",
      "type": "event"
    },
    {
      "anonymous": false,
      "inputs": [
        {
          "indexed": false,
          "internalType": "string",
          "name": "value",
          "type": "string"
        },
        {
          "indexed": true,
          "internalType": "uint256",
          "name": "id",
          "type": "uint256"
        }
      ],
      "name": "URI",
      "type": "event"
    },
    {
      "inputs": [
        {
          "internalType": "address",
          "name": "account",
          "type": "address"
        },
        {
          "internalType": "uint256",
          "name": "id",
          "type": "uint256"
        }
      ],
      "name": "balanceOf",
      "outputs": [
        {
          "internalType": "uint256",
          "name": "",
          "type": "uint256"
        }
      ],
      "stateMutability": "view",
      "type": "function"
    },
    {
      "inputs": [
        {
          "internalType": "address[]",
          "name": "accounts",
          "type": "address[]"
        },
        {
          "internalType": "uint256[]",
          "name": "ids",
          "type": "uint256[]"
        }
      ],
      "name": "balanceOfBatch",
      "outputs": [
        {
          "internalType": "uint256[]",
          "name": "",
          "type": "uint256[]"
        }
      ],
      "stateMutability": "view",
      "type": "function"
    },
    {
      "inputs": [
        {
          "internalType": "address",
          "name": "account",
          "type": "address"
        },
        {
          "internalType": "address",
          "name": "operator",
          "type": "address"
        }
      ],
      "name": "isApprovedForAll",
      "outputs": [
        {
          "internalType": "bool",
          "name": "",
          "type": "bool"
        }
      ],
      "stateMutability": "view",
      "type": "function"
    },
    {
      "inputs": [
        {
          "internalType": "address",
          "name": "to",
          "type": "address"
        },
        {
          "internalType": "uint256",
          "name": "tokenId",
          "type": "uint256"
        },
        {
          "internalType": "uint256",
          "name": "amount",
          "type": "uint256"
        }
      ],
      "name": "mint",
      "outputs": [],
      "stateMutability": "nonpayable",
      "type": "function"
    },
    {
      "inputs": [
        {
          "internalType": "address",
          "name": "from",
          "type": "address"
        },
        {
          "internalType": "address",
          "name": "to",
          "type": "address"
        },
        {
          "internalType": "uint256[]",
          "name": "ids",
          "type": "uint256[]"
        },
        {
          "internalType": "uint256[]",
          "name": "values",
          "type": "uint256[]"
        },
        {
          "internalType": "bytes",
          "name": "data",
          "type": "bytes"
        }
      ],
      "name": "safeBatchTransferFrom",
      "outputs": [],
      "stateMutability": "nonpayable",
      "type": "function"
    },
    {
      "inputs": [
        {
          "internalType": "address",
          "name": "from",
          "type": "address"
        },
        {
          "internalType": "address",
          "name": "to",
          "type": "address"
        },
        {
          "internalType": "uint256",
          "name": "id",
          "type": "uint256"
        },
        {
          "internalType": "uint256",
          "name": "value",
          "type": "uint256"
        },
        {
          "internalType": "bytes",
          "name": "data",
          "type": "bytes"
        }
      ],
      "name": "safeTransferFrom",
      "outputs": [],
      "stateMutability": "nonpayable",
      "type": "function"
    },
    {
      "inputs": [
        {
          "internalType": "address",
          "name": "operator",
          "type": "address"
        },
        {
          "internalType": "bool",
          "name": "approved",
          "type": "bool"
        }
      ],
      "name": "setApprovalForAll",
      "outputs": [],
      "stateMutability": "nonpayable",
      "type": "function"
    },
    {
      "inputs": [
        {
          "internalType": "bytes4",
          "name": "interfaceId",
          "type": "bytes4"
        }
      ],
      "name": "supportsInterface",
      "outputs": [
        {
          "internalType": "bool",
          "name": "",
          "type": "bool"
        }
      ],
      "stateMutability": "view",
      "type": "function"
    },
    {
      "inputs": [
        {
          "internalType": "uint256",
          "name": "",
          "type": "uint256"
        }
      ],
      "name": "uri",
      "outputs": [
        {
          "internalType": "string",
          "name": "",
          "type": "string"
        }
      ],
      "stateMutability": "view",
      "type": "function"
    }
  ],
  "bytecode": "0x608060405234801561001057600080fd5b5060408051808201909152600781526666696c653a2f2f60c81b60208201526100388161003e565b506101ae565b600261004a82826100ef565b5050565b634e487b7160e01b600052604160045260246000fd5b600181811c9082168061007857607f821691505b60208210810361009857634e487b7160e01b600052602260045260246000fd5b50919050565b601f8211156100ea576000816000526020600020601f850160051c810160208610156100c75750805b601f850160051c820191505b818110156100e6578281556001016100d3565b5050505b505050565b81516001600160401b038111156101085761010861004e565b61011c816101168454610064565b8461009e565b602080601f83116001811461015157600084156101395750858301515b600019600386901b1c1916600185901b1785556100e6565b600085815260208120601f198616915b8281101561018057888601518255948401946001909101908401610161565b508582101561019e5787850151600019600388901b60f8161c191681555b5050505050600190811b01905550565b6111b9806101bd6000396000f3fe608060405234801561001057600080fd5b50600436106100a25760003560e01c80632eb2c2d611610076578063a22cb4651161005b578063a22cb46514610158578063e985e9c51461016b578063f242432a146101a757600080fd5b80632eb2c2d6146101255780634e1273f41461013857600080fd5b8062fdd58e146100a757806301ffc9a7146100cd5780630e89341c146100f0578063156e29f614610110575b600080fd5b6100ba6100b5366004610b43565b6101ba565b6040519081526020015b60405180910390f35b6100e06100db366004610b86565b6101e2565b60405190151581526020016100c4565b6101036100fe366004610baa565b610232565b6040516100c49190610c09565b61012361011e366004610c1c565b6102c6565b005b610123610133366004610d99565b6102e6565b61014b610146366004610e43565b610371565b6040516100c49190610f3f565b610123610166366004610f52565b61043e565b6100e0610179366004610f8e565b6001600160a01b03918216600090815260016020908152604080832093909416825291909152205460ff1690565b6101236101b5366004610fc1565b61044d565b6000818152602081815260408083206001600160a01b03861684529091529020545b92915050565b60006001600160e01b03198216636cdb3d1360e11b148061021357506001600160e01b031982166303a24d0760e21b145b806101dc57506301ffc9a760e01b6001600160e01b03198316146101dc565b60606002805461024190611026565b80601f016020809104026020016040519081016040528092919081815260200182805461026d90611026565b80156102ba5780601f1061028f576101008083540402835291602001916102ba565b820191906000526020600020905b81548152906001019060200180831161029d57829003601f168201915b50505050509050919050565b6102e1838383604051806020016040528060008152506104cb565b505050565b336001600160a01b038616811480159061032657506001600160a01b0380871660009081526001602090815260408083209385168352929052205460ff16155b1561035c5760405163711bec9160e11b81526001600160a01b038083166004830152871660248201526044015b60405180910390fd5b6103698686868686610528565b505050505050565b606081518351146103a25781518351604051635b05999160e01b815260048101929092526024820152604401610353565b6000835167ffffffffffffffff8111156103be576103be610c4f565b6040519080825280602002602001820160405280156103e7578160200160208202803683370190505b50905060005b845181101561043657602080820286010151610411906020808402870101516101ba565b82828151811061042357610423611060565b60209081029190910101526001016103ed565b509392505050565b61044933838361058f565b5050565b336001600160a01b038616811480159061048d57506001600160a01b0380871660009081526001602090815260408083209385168352929052205460ff16155b156104be5760405163711bec9160e11b81526001600160a01b03808316600483015287166024820152604401610353565b6103698686868686610625565b6001600160a01b0384166104f557604051632bfa23e760e11b815260006004820152602401610353565b604080516001808252602082018690528183019081526060820185905260808201909252906103696000878484876106b3565b6001600160a01b03841661055257604051632bfa23e760e11b815260006004820152602401610353565b6001600160a01b03851661057b57604051626a0d4560e21b815260006004820152602401610353565b61058885858585856106b3565b5050505050565b6001600160a01b0382166105b85760405162ced3e160e81b815260006004820152602401610353565b6001600160a01b03838116600081815260016020908152604080832094871680845294825291829020805460ff191686151590811790915591519182527f17307eab39ab6107e8899845ad3d59bd9653f200f220920489ca2b5937696c31910160405180910390a3505050565b6001600160a01b03841661064f57604051632bfa23e760e11b815260006004820152602401610353565b6001600160a01b03851661067857604051626a0d4560e21b815260006004820152602401610353565b604080516001808252602082018690528183019081526060820185905260808201909252906106aa87878484876106b3565b50505050505050565b6106bf85858585610706565b6001600160a01b0384161561058857825133906001036106f857602084810151908401516106f183898985858961091a565b5050610369565b610369818787878787610a3e565b80518251146107355781518151604051635b05999160e01b815260048101929092526024820152604401610353565b3360005b835181101561083b576020818102858101820151908501909101516001600160a01b038816156107ec576000828152602081815260408083206001600160a01b038c168452909152902054818110156107c5576040516303dee4c560e01b81526001600160a01b038a166004820152602481018290526044810183905260648101849052608401610353565b6000838152602081815260408083206001600160a01b038d16845290915290209082900390555b6001600160a01b03871615610831576000828152602081815260408083206001600160a01b038b1684529091528120805483929061082b908490611076565b90915550505b5050600101610739565b5082516001036108bc5760208301516000906020840151909150856001600160a01b0316876001600160a01b0316846001600160a01b03167fc3d58168c5ae7397731d063d5bbf3d657854427343f4c083240f7aacaa2d0f6285856040516108ad929190918252602082015260400190565b60405180910390a45050610588565b836001600160a01b0316856001600160a01b0316826001600160a01b03167f4a39dc06d4c0dbc64b70af90fd698a233a518aa5d07e595d983b8c0526c8f7fb868660405161090b929190611097565b60405180910390a45050505050565b6001600160a01b0384163b156103695760405163f23a6e6160e01b81526001600160a01b0385169063f23a6e619061095e90899089908890889088906004016110c5565b6020604051808303816000875af1925050508015610999575060408051601f3d908101601f1916820190925261099691810190611108565b60015b610a02573d8080156109c7576040519150601f19603f3d011682016040523d82523d6000602084013e6109cc565b606091505b5080516000036109fa57604051632bfa23e760e11b81526001600160a01b0386166004820152602401610353565b805181602001fd5b6001600160e01b0319811663f23a6e6160e01b146106aa57604051632bfa23e760e11b81526001600160a01b0386166004820152602401610353565b6001600160a01b0384163b156103695760405163bc197c8160e01b81526001600160a01b0385169063bc197c8190610a829089908990889088908890600401611125565b6020604051808303816000875af1925050508015610abd575060408051601f3d908101601f19168201909252610aba91810190611108565b60015b610aeb573d8080156109c7576040519150601f19603f3d011682016040523d82523d6000602084013e6109cc565b6001600160e01b0319811663bc197c8160e01b146106aa57604051632bfa23e760e11b81526001600160a01b0386166004820152602401610353565b80356001600160a01b0381168114610b3e57600080fd5b919050565b60008060408385031215610b5657600080fd5b610b5f83610b27565b946020939093013593505050565b6001600160e01b031981168114610b8357600080fd5b50565b600060208284031215610b9857600080fd5b8135610ba381610b6d565b9392505050565b600060208284031215610bbc57600080fd5b5035919050565b6000815180845260005b81811015610be957602081850181015186830182015201610bcd565b506000602082860101526020601f19601f83011685010191505092915050565b602081526000610ba36020830184610bc3565b600080600060608486031215610c3157600080fd5b610c3a84610b27565b95602085013595506040909401359392505050565b634e487b7160e01b600052604160045260246000fd5b604051601f8201601f1916810167ffffffffffffffff81118282101715610c8e57610c8e610c4f565b604052919050565b600067ffffffffffffffff821115610cb057610cb0610c4f565b5060051b60200190565b600082601f830112610ccb57600080fd5b81356020610ce0610cdb83610c96565b610c65565b8083825260208201915060208460051b870101935086841115610d0257600080fd5b602086015b84811015610d1e5780358352918301918301610d07565b509695505050505050565b600082601f830112610d3a57600080fd5b813567ffffffffffffffff811115610d5457610d54610c4f565b610d67601f8201601f1916602001610c65565b818152846020838601011115610d7c57600080fd5b816020850160208301376000918101602001919091529392505050565b600080600080600060a08688031215610db157600080fd5b610dba86610b27565b9450610dc860208701610b27565b9350604086013567ffffffffffffffff80821115610de557600080fd5b610df189838a01610cba565b94506060880135915080821115610e0757600080fd5b610e1389838a01610cba565b93506080880135915080821115610e2957600080fd5b50610e3688828901610d29565b9150509295509295909350565b60008060408385031215610e5657600080fd5b823567ffffffffffffffff80821115610e6e57600080fd5b818501915085601f830112610e8257600080fd5b81356020610e92610cdb83610c96565b82815260059290921b84018101918181019089841115610eb157600080fd5b948201945b83861015610ed657610ec786610b27565b82529482019490820190610eb6565b96505086013592505080821115610eec57600080fd5b50610ef985828601610cba565b9150509250929050565b60008151808452602080850194506020840160005b83811015610f3457815187529582019590820190600101610f18565b509495945050505050565b602081526000610ba36020830184610f03565b60008060408385031215610f6557600080fd5b610f6e83610b27565b915060208301358015158114610f8357600080fd5b809150509250929050565b60008060408385031215610fa157600080fd5b610faa83610b27565b9150610fb860208401610b27565b90509250929050565b600080600080600060a08688031215610fd957600080fd5b610fe286610b27565b9450610ff060208701610b27565b93506040860135925060608601359150608086013567ffffffffffffffff81111561101a57600080fd5b610e3688828901610d29565b600181811c9082168061103a57607f821691505b60208210810361105a57634e487b7160e01b600052602260045260246000fd5b50919050565b634e487b7160e01b600052603260045260246000fd5b808201808211156101dc57634e487b7160e01b600052601160045260246000fd5b6040815260006110aa6040830185610f03565b82810360208401526110bc8185610f03565b95945050505050565b60006001600160a01b03808816835280871660208401525084604083015283606083015260a060808301526110fd60a0830184610bc3565b979650505050505050565b60006020828403121561111a57600080fd5b8151610ba381610b6d565b60006001600160a01b03808816835280871660208401525060a0604083015261115160a0830186610f03565b82810360608401526111638186610f03565b905082810360808401526111778185610bc3565b9897505050505050505056fea2646970667358221220f5f42545c67e9eeadb08ba8c10500c7d9163eb1e752b690bf8c0c4d66efabe1964736f6c63430008190033",
  "linkReferences": {},
  "deployedLinkReferences": {}
}