{
  "_format": "hh-sol-artifact-1",
  "contractName": "MockValidatorSet",
  "sourceName": "contracts/mockContracts/TxPermissionHbbftMock.sol",
  "abi": [
    {
      "inputs": [
        {
          "internalType": "address",
          "name": "",
          "type": "address"
        }
      ],
      "name": "getPendingValidatorKeyGenerationMode",
      "outputs": [
        {
          "internalType": "enum IValidatorSetHbbft.KeyGenMode",
          "name": "",
          "type": "uint8"
        }
      ],
      "stateMutability": "view",
      "type": "function"
    },
    {
      "inputs": [],
      "name": "getStakingContract",
      "outputs": [
        {
          "internalType": "address",
          "name": "",
          "type": "address"
        }
      ],
      "stateMutability": "view",
      "type": "function"
    },
    {
      "inputs": [
        {
          "internalType": "address",
          "name": "",
          "type": "address"
        }
      ],
      "name": "isValidator",
      "outputs": [
        {
          "internalType": "bool",
          "name": "",
          "type": "bool"
        }
      ],
      "stateMutability": "view",
      "type": "function"
    },
    {
      "inputs": [],
      "name": "keyGenMode",
      "outputs": [
        {
          "internalType": "enum IValidatorSetHbbft.KeyGenMode",
          "name": "",
          "type": "uint8"
        }
      ],
      "stateMutability": "view",
      "type": "function"
    },
    {
      "inputs": [
        {
          "internalType": "enum IValidatorSetHbbft.KeyGenMode",
          "name": "_mode",
          "type": "uint8"
        }
      ],
      "name": "setKeyGenMode",
      "outputs": [],
      "stateMutability": "nonpayable",
      "type": "function"
    },
    {
      "inputs": [
        {
          "internalType": "address",
          "name": "_address",
          "type": "address"
        }
      ],
      "name": "setStakingContract",
      "outputs": [],
      "stateMutability": "nonpayable",
      "type": "function"
    },
    {
      "inputs": [
        {
          "internalType": "address",
          "name": "mining",
          "type": "address"
        },
        {
          "internalType": "bool",
          "name": "val",
          "type": "bool"
        }
      ],
      "name": "setValidator",
      "outputs": [],
      "stateMutability": "nonpayable",
      "type": "function"
    },
    {
      "inputs": [],
      "name": "stakingContract",
      "outputs": [
        {
          "internalType": "address",
          "name": "",
          "type": "address"
        }
      ],
      "stateMutability": "view",
      "type": "function"
    }
  ],
  "bytecode": "0x6080604052348015600f57600080fd5b5061030e8061001f6000396000f3fe608060405234801561001057600080fd5b50600436106100885760003560e01c80639dd373b91161005b5780639dd373b91461012d578063b95d32c31461017a578063ee99205c1461018d578063facd743b146101a557600080fd5b806314e28d901461008d5780632b783756146100bb5780634623c91d146100c85780638e68dce414610103575b600080fd5b6100a561009b36600461021b565b5060005460ff1690565b6040516100b29190610253565b60405180910390f35b6000546100a59060ff1681565b6101016100d636600461027b565b6001600160a01b03919091166000908152600160205260409020805460ff1916911515919091179055565b005b60005461010090046001600160a01b03165b6040516001600160a01b0390911681526020016100b2565b61010161013b36600461021b565b600080546001600160a01b03909216610100027fffffffffffffffffffffff0000000000000000000000000000000000000000ff909216919091179055565b6101016101883660046102b7565b6101d8565b6000546101159061010090046001600160a01b031681565b6101c86101b336600461021b565b60016020526000908152604090205460ff1681565b60405190151581526020016100b2565b6000805482919060ff191660018360058111156101f7576101f761023d565b021790555050565b80356001600160a01b038116811461021657600080fd5b919050565b60006020828403121561022d57600080fd5b610236826101ff565b9392505050565b634e487b7160e01b600052602160045260246000fd5b602081016006831061027557634e487b7160e01b600052602160045260246000fd5b91905290565b6000806040838503121561028e57600080fd5b610297836101ff565b9150602083013580151581146102ac57600080fd5b809150509250929050565b6000602082840312156102c957600080fd5b81356006811061023657600080fdfea264697066735822122045b3cd873bc38b6084eaf1f1f669c661ee7e4b35c4c1f3ae7a9eb77526e412c664736f6c63430008190033",
  "linkReferences": {},
  "deployedLinkReferences": {}
}