{
  "_format": "hh-sol-artifact-1",
  "contractName": "RandomHbbft",
  "sourceName": "contracts/RandomHbbft.sol",
  "abi": [
    {
      "inputs": [],
      "stateMutability": "nonpayable",
      "type": "constructor"
    },
    {
      "inputs": [],
      "name": "InvalidInitialization",
      "type": "error"
    },
    {
      "inputs": [],
      "name": "NotInitializing",
      "type": "error"
    },
    {
      "inputs": [
        {
          "internalType": "address",
          "name": "owner",
          "type": "address"
        }
      ],
      "name": "OwnableInvalidOwner",
      "type": "error"
    },
    {
      "inputs": [
        {
          "internalType": "address",
          "name": "account",
          "type": "address"
        }
      ],
      "name": "OwnableUnauthorizedAccount",
      "type": "error"
    },
    {
      "inputs": [],
      "name": "Unauthorized",
      "type": "error"
    },
    {
      "inputs": [],
      "name": "ZeroAddress",
      "type": "error"
    },
    {
      "anonymous": false,
      "inputs": [
        {
          "indexed": false,
          "internalType": "uint64",
          "name": "version",
          "type": "uint64"
        }
      ],
      "name": "Initialized",
      "type": "event"
    },
    {
      "anonymous": false,
      "inputs": [
        {
          "indexed": true,
          "internalType": "address",
          "name": "previousOwner",
          "type": "address"
        },
        {
          "indexed": true,
          "internalType": "address",
          "name": "newOwner",
          "type": "address"
        }
      ],
      "name": "OwnershipTransferred",
      "type": "event"
    },
    {
      "anonymous": false,
      "inputs": [
        {
          "indexed": true,
          "internalType": "uint256",
          "name": "blockNum",
          "type": "uint256"
        },
        {
          "indexed": true,
          "internalType": "uint256",
          "name": "seed",
          "type": "uint256"
        },
        {
          "indexed": true,
          "internalType": "bool",
          "name": "healthy",
          "type": "bool"
        }
      ],
      "name": "SetCurrentSeed",
      "type": "event"
    },
    {
      "inputs": [],
      "name": "currentSeed",
      "outputs": [
        {
          "internalType": "uint256",
          "name": "",
          "type": "uint256"
        }
      ],
      "stateMutability": "view",
      "type": "function"
    },
    {
      "inputs": [
        {
          "internalType": "uint256",
          "name": "_blocknumber",
          "type": "uint256"
        }
      ],
      "name": "getSeedHistoric",
      "outputs": [
        {
          "internalType": "uint256",
          "name": "",
          "type": "uint256"
        }
      ],
      "stateMutability": "view",
      "type": "function"
    },
    {
      "inputs": [
        {
          "internalType": "uint256[]",
          "name": "_blocknumbers",
          "type": "uint256[]"
        }
      ],
      "name": "getSeedsHistoric",
      "outputs": [
        {
          "internalType": "uint256[]",
          "name": "",
          "type": "uint256[]"
        }
      ],
      "stateMutability": "view",
      "type": "function"
    },
    {
      "inputs": [
        {
          "internalType": "address",
          "name": "_contractOwner",
          "type": "address"
        },
        {
          "internalType": "address",
          "name": "_validatorSet",
          "type": "address"
        }
      ],
      "name": "initialize",
      "outputs": [],
      "stateMutability": "nonpayable",
      "type": "function"
    },
    {
      "inputs": [],
      "name": "isFullHealth",
      "outputs": [
        {
          "internalType": "bool",
          "name": "",
          "type": "bool"
        }
      ],
      "stateMutability": "view",
      "type": "function"
    },
    {
      "inputs": [
        {
          "internalType": "uint256",
          "name": "_blocknumber",
          "type": "uint256"
        }
      ],
      "name": "isFullHealthHistoric",
      "outputs": [
        {
          "internalType": "bool",
          "name": "",
          "type": "bool"
        }
      ],
      "stateMutability": "view",
      "type": "function"
    },
    {
      "inputs": [
        {
          "internalType": "uint256[]",
          "name": "_blocknumbers",
          "type": "uint256[]"
        }
      ],
      "name": "isFullHealthsHistoric",
      "outputs": [
        {
          "internalType": "bool[]",
          "name": "",
          "type": "bool[]"
        }
      ],
      "stateMutability": "view",
      "type": "function"
    },
    {
      "inputs": [],
      "name": "owner",
      "outputs": [
        {
          "internalType": "address",
          "name": "",
          "type": "address"
        }
      ],
      "stateMutability": "view",
      "type": "function"
    },
    {
      "inputs": [],
      "name": "renounceOwnership",
      "outputs": [],
      "stateMutability": "nonpayable",
      "type": "function"
    },
    {
      "inputs": [
        {
          "internalType": "uint256",
          "name": "_currentSeed",
          "type": "uint256"
        }
      ],
      "name": "setCurrentSeed",
      "outputs": [],
      "stateMutability": "nonpayable",
      "type": "function"
    },
    {
      "inputs": [
        {
          "internalType": "address",
          "name": "newOwner",
          "type": "address"
        }
      ],
      "name": "transferOwnership",
      "outputs": [],
      "stateMutability": "nonpayable",
      "type": "function"
    },
    {
      "inputs": [],
      "name": "validatorSetContract",
      "outputs": [
        {
          "internalType": "contract IValidatorSetHbbft",
          "name": "",
          "type": "address"
        }
      ],
      "stateMutability": "view",
      "type": "function"
    }
  ],
  "bytecode": "0x6080604052348015600f57600080fd5b506016601a565b60ca565b7ff0c57e16840df040f15088dc2f81fe391c3923bec73e23a9662efc9c229c6a00805468010000000000000000900460ff161560695760405163f92ee8a960e01b815260040160405180910390fd5b80546001600160401b039081161460c75780546001600160401b0319166001600160401b0390811782556040519081527fc7f505b2f371ae2175ee4913f4499e1f2633a7b5936321eed1cdaeb6115181d29060200160405180910390a15b50565b610a98806100d96000396000f3fe608060405234801561001057600080fd5b50600436106100d45760003560e01c8063919cc19c11610081578063dfc8bf4e1161005b578063dfc8bf4e146101ff578063e45006d614610212578063f2fde38b1461023257600080fd5b8063919cc19c146101c4578063a49904e5146101d7578063d9ba8eef146101df57600080fd5b8063715018a6116100b2578063715018a614610163578063832206261461016b5780638da5cb5b1461018057600080fd5b8063015e2315146100d957806330842eeb1461010c578063485cc9551461014e575b600080fd5b6100f96100e7366004610870565b60009081526001602052604090205490565b6040519081526020015b60405180910390f35b61013e61011a366004610870565b600881901c600090815260026020526040902054600160ff9092169190911b161590565b6040519015158152602001610103565b61016161015c3660046108a5565b610245565b005b6101616103cd565b436000908152600160205260409020546100f9565b7f9016d09d72d40fdae2fd8ceac6b6234c7706214fd39c1cd1e609a0528c199300546001600160a01b03165b6040516001600160a01b039091168152602001610103565b6101616101d2366004610870565b6103e1565b61013e6104f3565b6101f26101ed3660046108d8565b610566565b604051610103919061094d565b6003546101ac906001600160a01b031681565b6102256102203660046108d8565b610615565b6040516101039190610991565b6101616102403660046109cb565b6106c9565b7ff0c57e16840df040f15088dc2f81fe391c3923bec73e23a9662efc9c229c6a00805468010000000000000000810460ff16159067ffffffffffffffff166000811580156102905750825b905060008267ffffffffffffffff1660011480156102ad5750303b155b9050811580156102bb575080155b156102d95760405163f92ee8a960e01b815260040160405180910390fd5b845467ffffffffffffffff19166001178555831561030d57845468ff00000000000000001916680100000000000000001785555b6001600160a01b038616158061032a57506001600160a01b038716155b156103485760405163d92e233d60e01b815260040160405180910390fd5b61035187610730565b6003805473ffffffffffffffffffffffffffffffffffffffff19166001600160a01b03881617905583156103c457845468ff000000000000000019168555604051600181527fc7f505b2f371ae2175ee4913f4499e1f2633a7b5936321eed1cdaeb6115181d29060200160405180910390a15b50505050505050565b6103d5610741565b6103df600061079c565b565b3373fffffffffffffffffffffffffffffffffffffffe14610414576040516282b42960e81b815260040160405180910390fd5b436000908152600160209081526040808320849055600354815163a49904e560e01b815291516001600160a01b039091169263a49904e592600480820193918290030181865afa15801561046c573d6000803e3d6000fd5b505050506040513d601f19601f8201168201806040525081019061049091906109ed565b9050806104be5743600881901c60009081526002602052604090208054600160ff9093169290921b90911790555b80151582437f720bee82788b271fd3def4c664be5e6672e4a88b516604303177c62d74e477ed60405160405180910390a45050565b6003546040805163a49904e560e01b815290516000926001600160a01b03169163a49904e59160048083019260209291908290030181865afa15801561053d573d6000803e3d6000fd5b505050506040513d601f19601f8201168201806040525081019061056191906109ed565b905090565b60608160008167ffffffffffffffff81111561058457610584610a0f565b6040519080825280602002602001820160405280156105ad578160200160208202803683370190505b50905060005b8281101561060c57600160008787848181106105d1576105d1610a25565b905060200201358152602001908152602001600020548282815181106105f9576105f9610a25565b60209081029190910101526001016105b3565b50949350505050565b60608160008167ffffffffffffffff81111561063357610633610a0f565b60405190808252806020026020018201604052801561065c578160200160208202803683370190505b50905060005b8281101561060c5761069686868381811061067f5761067f610a25565b90506020020135600261070c90919063ffffffff16565b158282815181106106a9576106a9610a25565b911515602092830291909101909101526106c281610a3b565b9050610662565b6106d1610741565b6001600160a01b03811661070057604051631e4fbdf760e01b8152600060048201526024015b60405180910390fd5b6107098161079c565b50565b600881901c600090815260208390526040902054600160ff83161b16151592915050565b61073861081a565b61070981610868565b336107737f9016d09d72d40fdae2fd8ceac6b6234c7706214fd39c1cd1e609a0528c199300546001600160a01b031690565b6001600160a01b0316146103df5760405163118cdaa760e01b81523360048201526024016106f7565b7f9016d09d72d40fdae2fd8ceac6b6234c7706214fd39c1cd1e609a0528c199300805473ffffffffffffffffffffffffffffffffffffffff1981166001600160a01b03848116918217845560405192169182907f8be0079c531659141344cd1fd0a4f28419497f9722a3daafe3b4186f6b6457e090600090a3505050565b7ff0c57e16840df040f15088dc2f81fe391c3923bec73e23a9662efc9c229c6a005468010000000000000000900460ff166103df57604051631afcd79f60e31b815260040160405180910390fd5b6106d161081a565b60006020828403121561088257600080fd5b5035919050565b80356001600160a01b03811681146108a057600080fd5b919050565b600080604083850312156108b857600080fd5b6108c183610889565b91506108cf60208401610889565b90509250929050565b600080602083850312156108eb57600080fd5b823567ffffffffffffffff8082111561090357600080fd5b818501915085601f83011261091757600080fd5b81358181111561092657600080fd5b8660208260051b850101111561093b57600080fd5b60209290920196919550909350505050565b6020808252825182820181905260009190848201906040850190845b8181101561098557835183529284019291840191600101610969565b50909695505050505050565b6020808252825182820181905260009190848201906040850190845b818110156109855783511515835292840192918401916001016109ad565b6000602082840312156109dd57600080fd5b6109e682610889565b9392505050565b6000602082840312156109ff57600080fd5b815180151581146109e657600080fd5b634e487b7160e01b600052604160045260246000fd5b634e487b7160e01b600052603260045260246000fd5b600060018201610a5b57634e487b7160e01b600052601160045260246000fd5b506001019056fea2646970667358221220755095d67802474d726e1b092fb851c9fdeba1e178b811700a87f46f72069f2964736f6c63430008190033",
  "linkReferences": {},
  "deployedLinkReferences": {}
}