{
  "_format": "hh-sol-artifact-1",
  "contractName": "RandomHbbft",
  "sourceName": "contracts/RandomHbbft.sol",
  "abi": [
    {
      "inputs": [],
      "stateMutability": "nonpayable",
      "type": "constructor"
    },
    {
      "inputs": [],
      "name": "InvalidInitialization",
      "type": "error"
    },
    {
      "inputs": [],
      "name": "NotInitializing",
      "type": "error"
    },
    {
      "inputs": [
        {
          "internalType": "address",
          "name": "owner",
          "type": "address"
        }
      ],
      "name": "OwnableInvalidOwner",
      "type": "error"
    },
    {
      "inputs": [
        {
          "internalType": "address",
          "name": "account",
          "type": "address"
        }
      ],
      "name": "OwnableUnauthorizedAccount",
      "type": "error"
    },
    {
      "inputs": [],
      "name": "Unauthorized",
      "type": "error"
    },
    {
      "inputs": [],
      "name": "ZeroAddress",
      "type": "error"
    },
    {
      "anonymous": false,
      "inputs": [
        {
          "indexed": false,
          "internalType": "uint64",
          "name": "version",
          "type": "uint64"
        }
      ],
      "name": "Initialized",
      "type": "event"
    },
    {
      "anonymous": false,
      "inputs": [
        {
          "indexed": true,
          "internalType": "address",
          "name": "previousOwner",
          "type": "address"
        },
        {
          "indexed": true,
          "internalType": "address",
          "name": "newOwner",
          "type": "address"
        }
      ],
      "name": "OwnershipTransferred",
      "type": "event"
    },
    {
      "inputs": [],
      "name": "currentSeed",
      "outputs": [
        {
          "internalType": "uint256",
          "name": "",
          "type": "uint256"
        }
      ],
      "stateMutability": "view",
      "type": "function"
    },
    {
      "inputs": [
        {
          "internalType": "uint256",
          "name": "_blocknumber",
          "type": "uint256"
        }
      ],
      "name": "getSeedHistoric",
      "outputs": [
        {
          "internalType": "uint256",
          "name": "",
          "type": "uint256"
        }
      ],
      "stateMutability": "view",
      "type": "function"
    },
    {
      "inputs": [
        {
          "internalType": "uint256[]",
          "name": "_blocknumbers",
          "type": "uint256[]"
        }
      ],
      "name": "getSeedsHistoric",
      "outputs": [
        {
          "internalType": "uint256[]",
          "name": "",
          "type": "uint256[]"
        }
      ],
      "stateMutability": "view",
      "type": "function"
    },
    {
      "inputs": [
        {
          "internalType": "address",
          "name": "_contractOwner",
          "type": "address"
        },
        {
          "internalType": "address",
          "name": "_validatorSet",
          "type": "address"
        }
      ],
      "name": "initialize",
      "outputs": [],
      "stateMutability": "nonpayable",
      "type": "function"
    },
    {
      "inputs": [],
      "name": "isFullHealth",
      "outputs": [
        {
          "internalType": "bool",
          "name": "",
          "type": "bool"
        }
      ],
      "stateMutability": "view",
      "type": "function"
    },
    {
      "inputs": [
        {
          "internalType": "uint256",
          "name": "_blocknumber",
          "type": "uint256"
        }
      ],
      "name": "isFullHealthHistoric",
      "outputs": [
        {
          "internalType": "bool",
          "name": "",
          "type": "bool"
        }
      ],
      "stateMutability": "view",
      "type": "function"
    },
    {
      "inputs": [
        {
          "internalType": "uint256[]",
          "name": "_blocknumbers",
          "type": "uint256[]"
        }
      ],
      "name": "isFullHealthsHistoric",
      "outputs": [
        {
          "internalType": "bool[]",
          "name": "",
          "type": "bool[]"
        }
      ],
      "stateMutability": "view",
      "type": "function"
    },
    {
      "inputs": [],
      "name": "owner",
      "outputs": [
        {
          "internalType": "address",
          "name": "",
          "type": "address"
        }
      ],
      "stateMutability": "view",
      "type": "function"
    },
    {
      "inputs": [],
      "name": "renounceOwnership",
      "outputs": [],
      "stateMutability": "nonpayable",
      "type": "function"
    },
    {
      "inputs": [
        {
          "internalType": "uint256",
          "name": "_currentSeed",
          "type": "uint256"
        }
      ],
      "name": "setCurrentSeed",
      "outputs": [],
      "stateMutability": "nonpayable",
      "type": "function"
    },
    {
      "inputs": [
        {
          "internalType": "address",
          "name": "newOwner",
          "type": "address"
        }
      ],
      "name": "transferOwnership",
      "outputs": [],
      "stateMutability": "nonpayable",
      "type": "function"
    },
    {
      "inputs": [],
      "name": "validatorSetContract",
      "outputs": [
        {
          "internalType": "contract IValidatorSetHbbft",
          "name": "",
          "type": "address"
        }
      ],
      "stateMutability": "view",
      "type": "function"
    }
  ],
  "bytecode": "0x6080604052348015600f57600080fd5b506016601a565b60ca565b7ff0c57e16840df040f15088dc2f81fe391c3923bec73e23a9662efc9c229c6a00805468010000000000000000900460ff161560695760405163f92ee8a960e01b815260040160405180910390fd5b80546001600160401b039081161460c75780546001600160401b0319166001600160401b0390811782556040519081527fc7f505b2f371ae2175ee4913f4499e1f2633a7b5936321eed1cdaeb6115181d29060200160405180910390a15b50565b610a64806100d96000396000f3fe608060405234801561001057600080fd5b50600436106100d45760003560e01c8063919cc19c11610081578063dfc8bf4e1161005b578063dfc8bf4e146101ff578063e45006d614610212578063f2fde38b1461023257600080fd5b8063919cc19c146101c4578063a49904e5146101d7578063d9ba8eef146101df57600080fd5b8063715018a6116100b2578063715018a614610163578063832206261461016b5780638da5cb5b1461018057600080fd5b8063015e2315146100d957806330842eeb1461010c578063485cc9551461014e575b600080fd5b6100f96100e736600461083c565b60009081526001602052604090205490565b6040519081526020015b60405180910390f35b61013e61011a36600461083c565b600881901c600090815260026020526040902054600160ff9092169190911b161590565b6040519015158152602001610103565b61016161015c366004610871565b610245565b005b6101616103cd565b436000908152600160205260409020546100f9565b7f9016d09d72d40fdae2fd8ceac6b6234c7706214fd39c1cd1e609a0528c199300546001600160a01b03165b6040516001600160a01b039091168152602001610103565b6101616101d236600461083c565b6103e1565b61013e6104c2565b6101f26101ed3660046108a4565b610535565b6040516101039190610919565b6003546101ac906001600160a01b031681565b6102256102203660046108a4565b6105e4565b604051610103919061095d565b610161610240366004610997565b610698565b7ff0c57e16840df040f15088dc2f81fe391c3923bec73e23a9662efc9c229c6a00805468010000000000000000810460ff16159067ffffffffffffffff166000811580156102905750825b905060008267ffffffffffffffff1660011480156102ad5750303b155b9050811580156102bb575080155b156102d95760405163f92ee8a960e01b815260040160405180910390fd5b845467ffffffffffffffff19166001178555831561030d57845468ff00000000000000001916680100000000000000001785555b6001600160a01b038616158061032a57506001600160a01b038716155b156103485760405163d92e233d60e01b815260040160405180910390fd5b610351876106fc565b6003805473ffffffffffffffffffffffffffffffffffffffff19166001600160a01b03881617905583156103c457845468ff000000000000000019168555604051600181527fc7f505b2f371ae2175ee4913f4499e1f2633a7b5936321eed1cdaeb6115181d29060200160405180910390a15b50505050505050565b6103d561070d565b6103df6000610768565b565b3373fffffffffffffffffffffffffffffffffffffffe14610414576040516282b42960e81b815260040160405180910390fd5b43600090815260016020908152604091829020839055600354825163a49904e560e01b815292516001600160a01b039091169263a49904e59260048083019391928290030181865afa15801561046e573d6000803e3d6000fd5b505050506040513d601f19601f8201168201806040525081019061049291906109b9565b6104bf5743600881901c60009081526002602052604090208054600160ff9093169290921b909117905550565b50565b6003546040805163a49904e560e01b815290516000926001600160a01b03169163a49904e59160048083019260209291908290030181865afa15801561050c573d6000803e3d6000fd5b505050506040513d601f19601f8201168201806040525081019061053091906109b9565b905090565b60608160008167ffffffffffffffff811115610553576105536109db565b60405190808252806020026020018201604052801561057c578160200160208202803683370190505b50905060005b828110156105db57600160008787848181106105a0576105a06109f1565b905060200201358152602001908152602001600020548282815181106105c8576105c86109f1565b6020908102919091010152600101610582565b50949350505050565b60608160008167ffffffffffffffff811115610602576106026109db565b60405190808252806020026020018201604052801561062b578160200160208202803683370190505b50905060005b828110156105db5761066586868381811061064e5761064e6109f1565b9050602002013560026106d890919063ffffffff16565b15828281518110610678576106786109f1565b9115156020928302919091019091015261069181610a07565b9050610631565b6106a061070d565b6001600160a01b0381166106cf57604051631e4fbdf760e01b8152600060048201526024015b60405180910390fd5b6104bf81610768565b600881901c600090815260208390526040902054600160ff83161b16151592915050565b6107046107e6565b6104bf81610834565b3361073f7f9016d09d72d40fdae2fd8ceac6b6234c7706214fd39c1cd1e609a0528c199300546001600160a01b031690565b6001600160a01b0316146103df5760405163118cdaa760e01b81523360048201526024016106c6565b7f9016d09d72d40fdae2fd8ceac6b6234c7706214fd39c1cd1e609a0528c199300805473ffffffffffffffffffffffffffffffffffffffff1981166001600160a01b03848116918217845560405192169182907f8be0079c531659141344cd1fd0a4f28419497f9722a3daafe3b4186f6b6457e090600090a3505050565b7ff0c57e16840df040f15088dc2f81fe391c3923bec73e23a9662efc9c229c6a005468010000000000000000900460ff166103df57604051631afcd79f60e31b815260040160405180910390fd5b6106a06107e6565b60006020828403121561084e57600080fd5b5035919050565b80356001600160a01b038116811461086c57600080fd5b919050565b6000806040838503121561088457600080fd5b61088d83610855565b915061089b60208401610855565b90509250929050565b600080602083850312156108b757600080fd5b823567ffffffffffffffff808211156108cf57600080fd5b818501915085601f8301126108e357600080fd5b8135818111156108f257600080fd5b8660208260051b850101111561090757600080fd5b60209290920196919550909350505050565b6020808252825182820181905260009190848201906040850190845b8181101561095157835183529284019291840191600101610935565b50909695505050505050565b6020808252825182820181905260009190848201906040850190845b81811015610951578351151583529284019291840191600101610979565b6000602082840312156109a957600080fd5b6109b282610855565b9392505050565b6000602082840312156109cb57600080fd5b815180151581146109b257600080fd5b634e487b7160e01b600052604160045260246000fd5b634e487b7160e01b600052603260045260246000fd5b600060018201610a2757634e487b7160e01b600052601160045260246000fd5b506001019056fea2646970667358221220125ee0732d48d88b64c37bda189f4c55aef4f386d4209cf524edbf0a749df11964736f6c63430008190033",
  "linkReferences": {},
  "deployedLinkReferences": {}
}