{
  "_format": "hh-sol-artifact-1",
  "contractName": "ReentrancyAttacker",
  "sourceName": "contracts/mocks/ReentrancyAttacker.sol",
  "abi": [
    {
      "inputs": [
        {
          "internalType": "address",
          "name": "_dao",
          "type": "address"
        }
      ],
      "stateMutability": "nonpayable",
      "type": "constructor"
    },
    {
      "inputs": [],
      "name": "attack",
      "outputs": [],
      "stateMutability": "nonpayable",
      "type": "function"
    },
    {
      "inputs": [],
      "name": "calls",
      "outputs": [
        {
          "internalType": "uint256",
          "name": "",
          "type": "uint256"
        }
      ],
      "stateMutability": "view",
      "type": "function"
    },
    {
      "inputs": [],
      "name": "dao",
      "outputs": [
        {
          "internalType": "contract IDiamondDao",
          "name": "",
          "type": "address"
        }
      ],
      "stateMutability": "view",
      "type": "function"
    },
    {
      "inputs": [],
      "name": "getBalance",
      "outputs": [
        {
          "internalType": "uint256",
          "name": "",
          "type": "uint256"
        }
      ],
      "stateMutability": "view",
      "type": "function"
    },
    {
      "inputs": [],
      "name": "proposalId",
      "outputs": [
        {
          "internalType": "uint256",
          "name": "",
          "type": "uint256"
        }
      ],
      "stateMutability": "view",
      "type": "function"
    },
    {
      "inputs": [
        {
          "internalType": "uint256",
          "name": "_proposalId",
          "type": "uint256"
        }
      ],
      "name": "setId",
      "outputs": [],
      "stateMutability": "nonpayable",
      "type": "function"
    },
    {
      "stateMutability": "payable",
      "type": "receive"
    }
  ],
  "bytecode": "0x6080604052348015600f57600080fd5b50604051610324380380610324833981016040819052602c916053565b600080546001600160a01b0319166001600160a01b03929092169190911781556002556081565b600060208284031215606457600080fd5b81516001600160a01b0381168114607a57600080fd5b9392505050565b610294806100906000396000f3fe6080604052600436106100695760003560e01c80634162169f116100435780634162169f146101485780639e5faafc14610180578063d0e0ba951461019557600080fd5b806312065fe0146100fa5780632dfca4451461011c578063305f72b71461013257600080fd5b366100f5576002546005146100f35760005460015460405163fe0d94c160e01b81526001600160a01b039092169163fe0d94c1916100ad9160040190815260200190565b600060405180830381600087803b1580156100c757600080fd5b505af11580156100db573d6000803e3d6000fd5b505050506002600081546100ee9061021e565b909155505b005b600080fd5b34801561010657600080fd5b50475b6040519081526020015b60405180910390f35b34801561012857600080fd5b5061010960015481565b34801561013e57600080fd5b5061010960025481565b34801561015457600080fd5b50600054610168906001600160a01b031681565b6040516001600160a01b039091168152602001610113565b34801561018c57600080fd5b506100f36101b5565b3480156101a157600080fd5b506100f36101b0366004610245565b600155565b60005460015460405163fe0d94c160e01b81526001600160a01b039092169163fe0d94c1916101ea9160040190815260200190565b600060405180830381600087803b15801561020457600080fd5b505af1158015610218573d6000803e3d6000fd5b50505050565b60006001820161023e57634e487b7160e01b600052601160045260246000fd5b5060010190565b60006020828403121561025757600080fd5b503591905056fea26469706673582212205cf45b105b80b8939f9648bf66e0d4b3fd6d6bf4e76eab8a63e0808be40eac1564736f6c63430008190033",
  "linkReferences": {},
  "deployedLinkReferences": {}
}