{
  "_format": "hh-sol-artifact-1",
  "contractName": "ReentrancyAttacker",
  "sourceName": "contracts/mockContracts/ReentrancyAttacker.sol",
  "abi": [
    {
      "inputs": [
        {
          "internalType": "address",
          "name": "_bonusScoreSystem",
          "type": "address"
        }
      ],
      "stateMutability": "nonpayable",
      "type": "constructor"
    },
    {
      "inputs": [
        {
          "internalType": "address",
          "name": "mining",
          "type": "address"
        },
        {
          "internalType": "uint256",
          "name": "time",
          "type": "uint256"
        }
      ],
      "name": "attack",
      "outputs": [],
      "stateMutability": "nonpayable",
      "type": "function"
    },
    {
      "inputs": [],
      "name": "bonusScoreSystem",
      "outputs": [
        {
          "internalType": "contract IBonusScoreSystem",
          "name": "",
          "type": "address"
        }
      ],
      "stateMutability": "view",
      "type": "function"
    },
    {
      "inputs": [],
      "name": "funcId",
      "outputs": [
        {
          "internalType": "bytes4",
          "name": "",
          "type": "bytes4"
        }
      ],
      "stateMutability": "view",
      "type": "function"
    },
    {
      "inputs": [
        {
          "internalType": "bytes4",
          "name": "id",
          "type": "bytes4"
        }
      ],
      "name": "setFuncId",
      "outputs": [],
      "stateMutability": "nonpayable",
      "type": "function"
    },
    {
      "inputs": [],
      "name": "stakingFixedEpochDuration",
      "outputs": [
        {
          "internalType": "uint256",
          "name": "",
          "type": "uint256"
        }
      ],
      "stateMutability": "pure",
      "type": "function"
    },
    {
      "inputs": [],
      "name": "timeArgValue",
      "outputs": [
        {
          "internalType": "uint256",
          "name": "",
          "type": "uint256"
        }
      ],
      "stateMutability": "view",
      "type": "function"
    },
    {
      "inputs": [
        {
          "internalType": "address",
          "name": "mining",
          "type": "address"
        },
        {
          "internalType": "uint256",
          "name": "",
          "type": "uint256"
        }
      ],
      "name": "updatePoolLikelihood",
      "outputs": [],
      "stateMutability": "nonpayable",
      "type": "function"
    }
  ],
  "bytecode": "0x6080604052348015600f57600080fd5b50604051610a87380380610a878339818101604052810190602f91906074565b806000806101000a81548173ffffffffffffffffffffffffffffffffffffffff021916908373ffffffffffffffffffffffffffffffffffffffff1602179055505060a4565b600060208284031215608557600080fd5b815160018060a01b0381168114609a57600080fd5b8091505092915050565b6109d4806100b36000396000f3fe608060405234801561001057600080fd5b506004361061007d5760003560e01c80637764beae1161005b5780637764beae146100da578063c3a8dd08146100f8578063c6af311a14610114578063df336ac2146101305761007d565b80633da74fc6146100825780634f9a8d8f146100a057806352fba25c146100be575b600080fd5b61008a61014e565b604051610097919061087b565b60405180910390f35b6100a8610172565b6040516100b591906108a2565b60405180910390f35b6100d860048036038101906100d391906108b3565b61017c565b005b6100e26104e2565b6040516100ef91906108fc565b60405180910390f35b610112600480360381019061010d9190610916565b6104f5565b005b61012e600480360381019061012991906108b3565b610516565b005b610138610875565b60405161014591906108a2565b60405180910390f35b60008054906101000a900473ffffffffffffffffffffffffffffffffffffffff1681565b600061a8c0905090565b806001819055506392f2944360e01b7bffffffffffffffffffffffffffffffffffffffffffffffffffffffff1916600260009054906101000a900460e01b7bffffffffffffffffffffffffffffffffffffffffffffffffffffffff1916036102725760008054906101000a900473ffffffffffffffffffffffffffffffffffffffff1673ffffffffffffffffffffffffffffffffffffffff166392f29443836001546040518363ffffffff1660e01b815260040161023b929190610949565b600060405180830381600087803b15801561025557600080fd5b505af1158015610269573d6000803e3d6000fd5b505050506104de565b6351150d5760e01b7bffffffffffffffffffffffffffffffffffffffffffffffffffffffff1916600260009054906101000a900460e01b7bffffffffffffffffffffffffffffffffffffffffffffffffffffffff1916036103615760008054906101000a900473ffffffffffffffffffffffffffffffffffffffff1673ffffffffffffffffffffffffffffffffffffffff166351150d57836001546040518363ffffffff1660e01b815260040161032a929190610949565b600060405180830381600087803b15801561034457600080fd5b505af1158015610358573d6000803e3d6000fd5b505050506104dd565b633dc12d2360e01b7bffffffffffffffffffffffffffffffffffffffffffffffffffffffff1916600260009054906101000a900460e01b7bffffffffffffffffffffffffffffffffffffffffffffffffffffffff1916036104505760008054906101000a900473ffffffffffffffffffffffffffffffffffffffff1673ffffffffffffffffffffffffffffffffffffffff16633dc12d23836001546040518363ffffffff1660e01b8152600401610419929190610949565b600060405180830381600087803b15801561043357600080fd5b505af1158015610447573d6000803e3d6000fd5b505050506104dc565b60008054906101000a900473ffffffffffffffffffffffffffffffffffffffff1673ffffffffffffffffffffffffffffffffffffffff166357bfcbee836040518263ffffffff1660e01b81526004016104a99190610977565b600060405180830381600087803b1580156104c357600080fd5b505af11580156104d7573d6000803e3d6000fd5b505050505b5b5b5050565b600260009054906101000a900460e01b81565b80600260006101000a81548163ffffffff021916908360e01c021790555050565b6392f2944360e01b7bffffffffffffffffffffffffffffffffffffffffffffffffffffffff1916600260009054906101000a900460e01b7bffffffffffffffffffffffffffffffffffffffffffffffffffffffff1916036106055760008054906101000a900473ffffffffffffffffffffffffffffffffffffffff1673ffffffffffffffffffffffffffffffffffffffff166392f29443836001546040518363ffffffff1660e01b81526004016105ce929190610949565b600060405180830381600087803b1580156105e857600080fd5b505af11580156105fc573d6000803e3d6000fd5b50505050610871565b6351150d5760e01b7bffffffffffffffffffffffffffffffffffffffffffffffffffffffff1916600260009054906101000a900460e01b7bffffffffffffffffffffffffffffffffffffffffffffffffffffffff1916036106f45760008054906101000a900473ffffffffffffffffffffffffffffffffffffffff1673ffffffffffffffffffffffffffffffffffffffff166351150d57836001546040518363ffffffff1660e01b81526004016106bd929190610949565b600060405180830381600087803b1580156106d757600080fd5b505af11580156106eb573d6000803e3d6000fd5b50505050610870565b633dc12d2360e01b7bffffffffffffffffffffffffffffffffffffffffffffffffffffffff1916600260009054906101000a900460e01b7bffffffffffffffffffffffffffffffffffffffffffffffffffffffff1916036107e35760008054906101000a900473ffffffffffffffffffffffffffffffffffffffff1673ffffffffffffffffffffffffffffffffffffffff16633dc12d23836001546040518363ffffffff1660e01b81526004016107ac929190610949565b600060405180830381600087803b1580156107c657600080fd5b505af11580156107da573d6000803e3d6000fd5b5050505061086f565b60008054906101000a900473ffffffffffffffffffffffffffffffffffffffff1673ffffffffffffffffffffffffffffffffffffffff166357bfcbee836040518263ffffffff1660e01b815260040161083c9190610977565b600060405180830381600087803b15801561085657600080fd5b505af115801561086a573d6000803e3d6000fd5b505050505b5b5b5050565b60015481565b600060208201905073ffffffffffffffffffffffffffffffffffffffff8316825292915050565b600060208201905082825292915050565b600080604083850312156108c657600080fd5b823573ffffffffffffffffffffffffffffffffffffffff811681146108ea57600080fd5b80925050602083013590509250929050565b600060208201905063ffffffff60e01b8316825292915050565b60006020828403121561092857600080fd5b813563ffffffff60e01b8116811461093f57600080fd5b8091505092915050565b600060408201905073ffffffffffffffffffffffffffffffffffffffff841682528260208301529392505050565b600060208201905073ffffffffffffffffffffffffffffffffffffffff831682529291505056fea2646970667358221220f04bb43820fd99e0e6ea4a07a0a73a5ce1f31b02d6f77536a6dde2ce129d21bf64736f6c63430008190033",
  "linkReferences": {},
  "deployedLinkReferences": {}
}