{
  "_format": "hh-sol-artifact-1",
  "contractName": "ReentrancyAttackerLowMajority",
  "sourceName": "contracts/mocks/ReentrancyAttacker.sol",
  "abi": [
    {
      "inputs": [],
      "stateMutability": "nonpayable",
      "type": "constructor"
    },
    {
      "inputs": [],
      "name": "calls",
      "outputs": [
        {
          "internalType": "uint256",
          "name": "",
          "type": "uint256"
        }
      ],
      "stateMutability": "view",
      "type": "function"
    },
    {
      "inputs": [],
      "name": "getBalance",
      "outputs": [
        {
          "internalType": "uint256",
          "name": "",
          "type": "uint256"
        }
      ],
      "stateMutability": "view",
      "type": "function"
    },
    {
      "stateMutability": "payable",
      "type": "receive"
    }
  ],
  "bytecode": "0x6080604052348015600f57600080fd5b50600080556103af806100236000396000f3fe60806040526004361061002d5760003560e01c806312065fe0146101ce578063305f72b7146101ef57600080fd5b366101c95760408051600180825281830190925233916000919060208083019080368337019050509050308160008151811061006b5761006b610205565b73ffffffffffffffffffffffffffffffffffffffff9290921660209283029190910190910152604080516001808252818301909252600091816020016020820280368337019050509050678ac7230489e80000816000815181106100d1576100d1610205565b6020908102919091010152604080516001808252818301909252600091816020015b60608152602001906001900390816100f3579050509050604051806020016040528060008152508160008151811061012d5761012d610205565b60200260200101819052506000546005146101c757604051634590239b60e01b815273ffffffffffffffffffffffffffffffffffffffff851690634590239b90610182906001908790879087906004016102a3565b600060405180830381600087803b15801561019c57600080fd5b505af11580156101b0573d6000803e3d6000fd5b5050505060008081546101c290610352565b909155505b005b600080fd5b3480156101da57600080fd5b50475b60405190815260200160405180910390f35b3480156101fb57600080fd5b506101dd60005481565b634e487b7160e01b600052603260045260246000fd5b600082825180855260208086019550808260051b8401018186016000805b8581101561029557601f1980888603018b5283518051808752845b8181101561026f578281018901518882018a01528801610254565b5086810188018590529b87019b601f019091169094018501935091840191600101610239565b509198975050505050505050565b600060808201868352602060808185015281875180845260a086019150828901935060005b818110156102fa57845173ffffffffffffffffffffffffffffffffffffffff16835293830193918301916001016102c8565b50508481036040860152865180825290820192508187019060005b8181101561033157825185529383019391830191600101610315565b505050508281036060840152610347818561021b565b979650505050505050565b60006001820161037257634e487b7160e01b600052601160045260246000fd5b506001019056fea26469706673582212204ea0ee36bf08ee25a300d953813cd6c7b4e6b45eabaea704393e414b572460a464736f6c63430008190033",
  "linkReferences": {},
  "deployedLinkReferences": {}
}