{
  "_format": "hh-sol-artifact-1",
  "contractName": "ReentrancyAttacker",
  "sourceName": "contracts/mockContracts/ReentrancyAttacker.sol",
  "abi": [
    {
      "inputs": [
        {
          "internalType": "address",
          "name": "mining",
          "type": "address"
        },
        {
          "internalType": "uint256",
          "name": "time",
          "type": "uint256"
        }
      ],
      "name": "attack",
      "outputs": [],
      "stateMutability": "nonpayable",
      "type": "function"
    },
    {
      "inputs": [],
      "name": "bonusScoreSystem",
      "outputs": [
        {
          "internalType": "contract IBonusScoreSystem",
          "name": "",
          "type": "address"
        }
      ],
      "stateMutability": "view",
      "type": "function"
    },
    {
      "inputs": [],
      "name": "funcId",
      "outputs": [
        {
          "internalType": "bytes4",
          "name": "",
          "type": "bytes4"
        }
      ],
      "stateMutability": "view",
      "type": "function"
    },
    {
      "inputs": [
        {
          "internalType": "address",
          "name": "_bonusScoreSystem",
          "type": "address"
        }
      ],
      "name": "setBonusScoreContract",
      "outputs": [],
      "stateMutability": "nonpayable",
      "type": "function"
    },
    {
      "inputs": [
        {
          "internalType": "bytes4",
          "name": "id",
          "type": "bytes4"
        }
      ],
      "name": "setFuncId",
      "outputs": [],
      "stateMutability": "nonpayable",
      "type": "function"
    },
    {
      "inputs": [],
      "name": "stakingFixedEpochDuration",
      "outputs": [
        {
          "internalType": "uint256",
          "name": "",
          "type": "uint256"
        }
      ],
      "stateMutability": "pure",
      "type": "function"
    },
    {
      "inputs": [],
      "name": "timeArgValue",
      "outputs": [
        {
          "internalType": "uint256",
          "name": "",
          "type": "uint256"
        }
      ],
      "stateMutability": "view",
      "type": "function"
    },
    {
      "inputs": [
        {
          "internalType": "address",
          "name": "mining",
          "type": "address"
        },
        {
          "internalType": "uint256",
          "name": "",
          "type": "uint256"
        }
      ],
      "name": "updatePoolLikelihood",
      "outputs": [],
      "stateMutability": "nonpayable",
      "type": "function"
    }
  ],
  "bytecode": "0x6080604052348015600f57600080fd5b5061044b8061001f6000396000f3fe608060405234801561001057600080fd5b50600436106100885760003560e01c80637764beae1161005b5780637764beae1461012c578063c3a8dd0814610152578063c6af311a14610179578063df336ac21461018c57600080fd5b8063159e0a951461008d5780633da74fc6146100d75780634f9a8d8f1461010757806352fba25c14610119575b600080fd5b6100d561009b36600461039f565b600080547fffffffffffffffffffffffff0000000000000000000000000000000000000000166001600160a01b0392909216919091179055565b005b6000546100ea906001600160a01b031681565b6040516001600160a01b0390911681526020015b60405180910390f35b61a8c05b6040519081526020016100fe565b6100d56101273660046103c1565b610195565b6002546101399060e01b81565b6040516001600160e01b031990911681526020016100fe565b6100d56101603660046103eb565b6002805463ffffffff191660e09290921c919091179055565b6100d56101873660046103c1565b610327565b61010b60015481565b6001819055600254636d0d6bbd60e01b60e09190911b6001600160e01b03191601610228576000546001546040516392f2944360e01b81526001600160a01b03858116600483015260248201929092529116906392f29443906044015b600060405180830381600087803b15801561020c57600080fd5b505af1158015610220573d6000803e3d6000fd5b505050505050565b60025463aeeaf2a960e01b60e09190911b6001600160e01b03191601610284576000546001546040516351150d5760e01b81526001600160a01b03858116600483015260248201929092529116906351150d57906044016101f2565b60025463c23ed2dd60e01b60e09190911b6001600160e01b031916016102e057600054600154604051633dc12d2360e01b81526001600160a01b0385811660048301526024820192909252911690633dc12d23906044016101f2565b600054604051632bdfe5f760e11b81526001600160a01b038481166004830152909116906357bfcbee90602401600060405180830381600087803b15801561020c57600080fd5b600254636d0d6bbd60e01b60e09190911b6001600160e01b03191601610228576000546001546040516392f2944360e01b81526001600160a01b03858116600483015260248201929092529116906392f29443906044016101f2565b80356001600160a01b038116811461039a57600080fd5b919050565b6000602082840312156103b157600080fd5b6103ba82610383565b9392505050565b600080604083850312156103d457600080fd5b6103dd83610383565b946020939093013593505050565b6000602082840312156103fd57600080fd5b81356001600160e01b0319811681146103ba57600080fdfea26469706673582212201376edcd4775e07a48dbcf0b998422464a1176737828e4f3ef15941840410b8864736f6c63430008190033",
  "linkReferences": {},
  "deployedLinkReferences": {}
}