{
  "_format": "hh-sol-artifact-1",
  "contractName": "ReentrancyAttacker",
  "sourceName": "contracts/mockContracts/ReentrancyAttacker.sol",
  "abi": [
    {
      "inputs": [
        {
          "internalType": "address",
          "name": "_bonusScoreSystem",
          "type": "address"
        }
      ],
      "stateMutability": "nonpayable",
      "type": "constructor"
    },
    {
      "inputs": [
        {
          "internalType": "address",
          "name": "mining",
          "type": "address"
        },
        {
          "internalType": "uint256",
          "name": "time",
          "type": "uint256"
        }
      ],
      "name": "attack",
      "outputs": [],
      "stateMutability": "nonpayable",
      "type": "function"
    },
    {
      "inputs": [],
      "name": "bonusScoreSystem",
      "outputs": [
        {
          "internalType": "contract IBonusScoreSystem",
          "name": "",
          "type": "address"
        }
      ],
      "stateMutability": "view",
      "type": "function"
    },
    {
      "inputs": [],
      "name": "funcId",
      "outputs": [
        {
          "internalType": "bytes4",
          "name": "",
          "type": "bytes4"
        }
      ],
      "stateMutability": "view",
      "type": "function"
    },
    {
      "inputs": [
        {
          "internalType": "bytes4",
          "name": "id",
          "type": "bytes4"
        }
      ],
      "name": "setFuncId",
      "outputs": [],
      "stateMutability": "nonpayable",
      "type": "function"
    },
    {
      "inputs": [],
      "name": "stakingFixedEpochDuration",
      "outputs": [
        {
          "internalType": "uint256",
          "name": "",
          "type": "uint256"
        }
      ],
      "stateMutability": "pure",
      "type": "function"
    },
    {
      "inputs": [],
      "name": "timeArgValue",
      "outputs": [
        {
          "internalType": "uint256",
          "name": "",
          "type": "uint256"
        }
      ],
      "stateMutability": "view",
      "type": "function"
    },
    {
      "inputs": [
        {
          "internalType": "address",
          "name": "mining",
          "type": "address"
        },
        {
          "internalType": "uint256",
          "name": "",
          "type": "uint256"
        }
      ],
      "name": "updatePoolLikelihood",
      "outputs": [],
      "stateMutability": "nonpayable",
      "type": "function"
    }
  ],
  "bytecode": "0x6080604052348015600f57600080fd5b5060405161045c38038061045c833981016040819052602c916050565b600080546001600160a01b0319166001600160a01b0392909216919091179055607e565b600060208284031215606157600080fd5b81516001600160a01b0381168114607757600080fd5b9392505050565b6103cf8061008d6000396000f3fe608060405234801561001057600080fd5b506004361061007d5760003560e01c80637764beae1161005b5780637764beae146100d9578063c3a8dd08146100ff578063c6af311a14610126578063df336ac21461013957600080fd5b80633da74fc6146100825780634f9a8d8f146100b257806352fba25c146100c4575b600080fd5b600054610095906001600160a01b031681565b6040516001600160a01b0390911681526020015b60405180910390f35b61a8c05b6040519081526020016100a9565b6100d76100d2366004610330565b610142565b005b6002546100e69060e01b81565b6040516001600160e01b031990911681526020016100a9565b6100d761010d366004610368565b6002805463ffffffff191660e09290921c919091179055565b6100d7610134366004610330565b6102d4565b6100b660015481565b6001819055600254636d0d6bbd60e01b60e09190911b6001600160e01b031916016101d5576000546001546040516392f2944360e01b81526001600160a01b03858116600483015260248201929092529116906392f29443906044015b600060405180830381600087803b1580156101b957600080fd5b505af11580156101cd573d6000803e3d6000fd5b505050505050565b60025463aeeaf2a960e01b60e09190911b6001600160e01b03191601610231576000546001546040516351150d5760e01b81526001600160a01b03858116600483015260248201929092529116906351150d579060440161019f565b60025463c23ed2dd60e01b60e09190911b6001600160e01b0319160161028d57600054600154604051633dc12d2360e01b81526001600160a01b0385811660048301526024820192909252911690633dc12d239060440161019f565b600054604051632bdfe5f760e11b81526001600160a01b038481166004830152909116906357bfcbee90602401600060405180830381600087803b1580156101b957600080fd5b600254636d0d6bbd60e01b60e09190911b6001600160e01b031916016101d5576000546001546040516392f2944360e01b81526001600160a01b03858116600483015260248201929092529116906392f294439060440161019f565b6000806040838503121561034357600080fd5b82356001600160a01b038116811461035a57600080fd5b946020939093013593505050565b60006020828403121561037a57600080fd5b81356001600160e01b03198116811461039257600080fd5b939250505056fea2646970667358221220ea1e63d21eee41ade7d4e4560b79b870c03f3833feb65fda5cb32b3f8a931b8364736f6c63430008190033",
  "linkReferences": {},
  "deployedLinkReferences": {}
}