{
  "_format": "hh-sol-artifact-1",
  "contractName": "Registry",
  "sourceName": "contracts/Registry.sol",
  "abi": [
    {
      "inputs": [
        {
          "internalType": "address",
          "name": "_certifierContract",
          "type": "address"
        },
        {
          "internalType": "address",
          "name": "_contractOwner",
          "type": "address"
        }
      ],
      "stateMutability": "nonpayable",
      "type": "constructor"
    },
    {
      "inputs": [],
      "name": "InsufficientValue",
      "type": "error"
    },
    {
      "inputs": [
        {
          "internalType": "bytes32",
          "name": "_name",
          "type": "bytes32"
        }
      ],
      "name": "NameAlreadyReserved",
      "type": "error"
    },
    {
      "inputs": [
        {
          "internalType": "bytes32",
          "name": "_name",
          "type": "bytes32"
        }
      ],
      "name": "NameNotExist",
      "type": "error"
    },
    {
      "inputs": [],
      "name": "NotAnOwner",
      "type": "error"
    },
    {
      "inputs": [
        {
          "internalType": "address",
          "name": "owner",
          "type": "address"
        }
      ],
      "name": "OwnableInvalidOwner",
      "type": "error"
    },
    {
      "inputs": [
        {
          "internalType": "address",
          "name": "account",
          "type": "address"
        }
      ],
      "name": "OwnableUnauthorizedAccount",
      "type": "error"
    },
    {
      "inputs": [],
      "name": "ReverseNotProposed",
      "type": "error"
    },
    {
      "inputs": [],
      "name": "ZeroAddress",
      "type": "error"
    },
    {
      "anonymous": false,
      "inputs": [
        {
          "indexed": true,
          "internalType": "bytes32",
          "name": "name",
          "type": "bytes32"
        },
        {
          "indexed": false,
          "internalType": "string",
          "name": "key",
          "type": "string"
        },
        {
          "indexed": false,
          "internalType": "string",
          "name": "plainKey",
          "type": "string"
        }
      ],
      "name": "DataChanged",
      "type": "event"
    },
    {
      "anonymous": false,
      "inputs": [
        {
          "indexed": false,
          "internalType": "uint256",
          "name": "amount",
          "type": "uint256"
        }
      ],
      "name": "Drained",
      "type": "event"
    },
    {
      "anonymous": false,
      "inputs": [
        {
          "indexed": true,
          "internalType": "bytes32",
          "name": "name",
          "type": "bytes32"
        },
        {
          "indexed": true,
          "internalType": "address",
          "name": "owner",
          "type": "address"
        }
      ],
      "name": "Dropped",
      "type": "event"
    },
    {
      "anonymous": false,
      "inputs": [
        {
          "indexed": false,
          "internalType": "uint256",
          "name": "amount",
          "type": "uint256"
        }
      ],
      "name": "FeeChanged",
      "type": "event"
    },
    {
      "anonymous": false,
      "inputs": [
        {
          "indexed": true,
          "internalType": "address",
          "name": "previousOwner",
          "type": "address"
        },
        {
          "indexed": true,
          "internalType": "address",
          "name": "newOwner",
          "type": "address"
        }
      ],
      "name": "OwnershipTransferred",
      "type": "event"
    },
    {
      "anonymous": false,
      "inputs": [
        {
          "indexed": true,
          "internalType": "bytes32",
          "name": "name",
          "type": "bytes32"
        },
        {
          "indexed": true,
          "internalType": "address",
          "name": "owner",
          "type": "address"
        }
      ],
      "name": "Reserved",
      "type": "event"
    },
    {
      "anonymous": false,
      "inputs": [
        {
          "indexed": false,
          "internalType": "string",
          "name": "name",
          "type": "string"
        },
        {
          "indexed": true,
          "internalType": "address",
          "name": "reverse",
          "type": "address"
        }
      ],
      "name": "ReverseConfirmed",
      "type": "event"
    },
    {
      "anonymous": false,
      "inputs": [
        {
          "indexed": false,
          "internalType": "string",
          "name": "name",
          "type": "string"
        },
        {
          "indexed": true,
          "internalType": "address",
          "name": "reverse",
          "type": "address"
        }
      ],
      "name": "ReverseProposed",
      "type": "event"
    },
    {
      "anonymous": false,
      "inputs": [
        {
          "indexed": false,
          "internalType": "string",
          "name": "name",
          "type": "string"
        },
        {
          "indexed": true,
          "internalType": "address",
          "name": "reverse",
          "type": "address"
        }
      ],
      "name": "ReverseRemoved",
      "type": "event"
    },
    {
      "anonymous": false,
      "inputs": [
        {
          "indexed": true,
          "internalType": "bytes32",
          "name": "name",
          "type": "bytes32"
        },
        {
          "indexed": true,
          "internalType": "address",
          "name": "oldOwner",
          "type": "address"
        },
        {
          "indexed": true,
          "internalType": "address",
          "name": "newOwner",
          "type": "address"
        }
      ],
      "name": "Transferred",
      "type": "event"
    },
    {
      "inputs": [
        {
          "internalType": "address",
          "name": "_data",
          "type": "address"
        }
      ],
      "name": "canReverse",
      "outputs": [
        {
          "internalType": "bool",
          "name": "",
          "type": "bool"
        }
      ],
      "stateMutability": "view",
      "type": "function"
    },
    {
      "inputs": [
        {
          "internalType": "string",
          "name": "_name",
          "type": "string"
        }
      ],
      "name": "confirmReverse",
      "outputs": [
        {
          "internalType": "bool",
          "name": "success",
          "type": "bool"
        }
      ],
      "stateMutability": "nonpayable",
      "type": "function"
    },
    {
      "inputs": [
        {
          "internalType": "string",
          "name": "_name",
          "type": "string"
        },
        {
          "internalType": "address",
          "name": "_who",
          "type": "address"
        }
      ],
      "name": "confirmReverseAs",
      "outputs": [
        {
          "internalType": "bool",
          "name": "success",
          "type": "bool"
        }
      ],
      "stateMutability": "nonpayable",
      "type": "function"
    },
    {
      "inputs": [],
      "name": "drain",
      "outputs": [
        {
          "internalType": "bool",
          "name": "",
          "type": "bool"
        }
      ],
      "stateMutability": "nonpayable",
      "type": "function"
    },
    {
      "inputs": [
        {
          "internalType": "bytes32",
          "name": "_name",
          "type": "bytes32"
        }
      ],
      "name": "drop",
      "outputs": [
        {
          "internalType": "bool",
          "name": "success",
          "type": "bool"
        }
      ],
      "stateMutability": "nonpayable",
      "type": "function"
    },
    {
      "inputs": [],
      "name": "fee",
      "outputs": [
        {
          "internalType": "uint256",
          "name": "",
          "type": "uint256"
        }
      ],
      "stateMutability": "view",
      "type": "function"
    },
    {
      "inputs": [
        {
          "internalType": "bytes32",
          "name": "_name",
          "type": "bytes32"
        },
        {
          "internalType": "string",
          "name": "_key",
          "type": "string"
        }
      ],
      "name": "getAddress",
      "outputs": [
        {
          "internalType": "address",
          "name": "",
          "type": "address"
        }
      ],
      "stateMutability": "view",
      "type": "function"
    },
    {
      "inputs": [
        {
          "internalType": "bytes32",
          "name": "_name",
          "type": "bytes32"
        },
        {
          "internalType": "string",
          "name": "_key",
          "type": "string"
        }
      ],
      "name": "getData",
      "outputs": [
        {
          "internalType": "bytes32",
          "name": "",
          "type": "bytes32"
        }
      ],
      "stateMutability": "view",
      "type": "function"
    },
    {
      "inputs": [
        {
          "internalType": "bytes32",
          "name": "_name",
          "type": "bytes32"
        }
      ],
      "name": "getOwner",
      "outputs": [
        {
          "internalType": "address",
          "name": "",
          "type": "address"
        }
      ],
      "stateMutability": "view",
      "type": "function"
    },
    {
      "inputs": [
        {
          "internalType": "bytes32",
          "name": "_name",
          "type": "bytes32"
        }
      ],
      "name": "getReverse",
      "outputs": [
        {
          "internalType": "address",
          "name": "",
          "type": "address"
        }
      ],
      "stateMutability": "view",
      "type": "function"
    },
    {
      "inputs": [
        {
          "internalType": "bytes32",
          "name": "_name",
          "type": "bytes32"
        },
        {
          "internalType": "string",
          "name": "_key",
          "type": "string"
        }
      ],
      "name": "getUint",
      "outputs": [
        {
          "internalType": "uint256",
          "name": "",
          "type": "uint256"
        }
      ],
      "stateMutability": "view",
      "type": "function"
    },
    {
      "inputs": [
        {
          "internalType": "bytes32",
          "name": "_name",
          "type": "bytes32"
        }
      ],
      "name": "hasReverse",
      "outputs": [
        {
          "internalType": "bool",
          "name": "",
          "type": "bool"
        }
      ],
      "stateMutability": "view",
      "type": "function"
    },
    {
      "inputs": [],
      "name": "owner",
      "outputs": [
        {
          "internalType": "address",
          "name": "",
          "type": "address"
        }
      ],
      "stateMutability": "view",
      "type": "function"
    },
    {
      "inputs": [
        {
          "internalType": "string",
          "name": "_name",
          "type": "string"
        },
        {
          "internalType": "address",
          "name": "_who",
          "type": "address"
        }
      ],
      "name": "proposeReverse",
      "outputs": [
        {
          "internalType": "bool",
          "name": "success",
          "type": "bool"
        }
      ],
      "stateMutability": "nonpayable",
      "type": "function"
    },
    {
      "inputs": [],
      "name": "removeReverse",
      "outputs": [],
      "stateMutability": "nonpayable",
      "type": "function"
    },
    {
      "inputs": [],
      "name": "renounceOwnership",
      "outputs": [],
      "stateMutability": "nonpayable",
      "type": "function"
    },
    {
      "inputs": [
        {
          "internalType": "bytes32",
          "name": "_name",
          "type": "bytes32"
        }
      ],
      "name": "reserve",
      "outputs": [
        {
          "internalType": "bool",
          "name": "success",
          "type": "bool"
        }
      ],
      "stateMutability": "payable",
      "type": "function"
    },
    {
      "inputs": [
        {
          "internalType": "bytes32",
          "name": "_name",
          "type": "bytes32"
        }
      ],
      "name": "reserved",
      "outputs": [
        {
          "internalType": "bool",
          "name": "",
          "type": "bool"
        }
      ],
      "stateMutability": "view",
      "type": "function"
    },
    {
      "inputs": [
        {
          "internalType": "address",
          "name": "_data",
          "type": "address"
        }
      ],
      "name": "reverse",
      "outputs": [
        {
          "internalType": "string",
          "name": "",
          "type": "string"
        }
      ],
      "stateMutability": "view",
      "type": "function"
    },
    {
      "inputs": [
        {
          "internalType": "bytes32",
          "name": "_name",
          "type": "bytes32"
        },
        {
          "internalType": "string",
          "name": "_key",
          "type": "string"
        },
        {
          "internalType": "address",
          "name": "_value",
          "type": "address"
        }
      ],
      "name": "setAddress",
      "outputs": [
        {
          "internalType": "bool",
          "name": "success",
          "type": "bool"
        }
      ],
      "stateMutability": "nonpayable",
      "type": "function"
    },
    {
      "inputs": [
        {
          "internalType": "bytes32",
          "name": "_name",
          "type": "bytes32"
        },
        {
          "internalType": "string",
          "name": "_key",
          "type": "string"
        },
        {
          "internalType": "bytes32",
          "name": "_value",
          "type": "bytes32"
        }
      ],
      "name": "setData",
      "outputs": [
        {
          "internalType": "bool",
          "name": "success",
          "type": "bool"
        }
      ],
      "stateMutability": "nonpayable",
      "type": "function"
    },
    {
      "inputs": [
        {
          "internalType": "uint256",
          "name": "_amount",
          "type": "uint256"
        }
      ],
      "name": "setFee",
      "outputs": [
        {
          "internalType": "bool",
          "name": "",
          "type": "bool"
        }
      ],
      "stateMutability": "nonpayable",
      "type": "function"
    },
    {
      "inputs": [
        {
          "internalType": "bytes32",
          "name": "_name",
          "type": "bytes32"
        },
        {
          "internalType": "string",
          "name": "_key",
          "type": "string"
        },
        {
          "internalType": "uint256",
          "name": "_value",
          "type": "uint256"
        }
      ],
      "name": "setUint",
      "outputs": [
        {
          "internalType": "bool",
          "name": "success",
          "type": "bool"
        }
      ],
      "stateMutability": "nonpayable",
      "type": "function"
    },
    {
      "inputs": [
        {
          "internalType": "bytes32",
          "name": "_name",
          "type": "bytes32"
        },
        {
          "internalType": "address",
          "name": "_to",
          "type": "address"
        }
      ],
      "name": "transfer",
      "outputs": [
        {
          "internalType": "bool",
          "name": "success",
          "type": "bool"
        }
      ],
      "stateMutability": "nonpayable",
      "type": "function"
    },
    {
      "inputs": [
        {
          "internalType": "address",
          "name": "newOwner",
          "type": "address"
        }
      ],
      "name": "transferOwnership",
      "outputs": [],
      "stateMutability": "nonpayable",
      "type": "function"
    }
  ],
  "bytecode": "0x6080604052670de0b6b3a764000060035534801561001c57600080fd5b5060405161210338038061210383398101604081905261003b91610243565b806001600160a01b03811661006a57604051631e4fbdf760e01b81526000600482015260240160405180910390fd5b610073816101d7565b506001600160a01b038216158061009157506001600160a01b038116155b156100af5760405163d92e233d60e01b815260040160405180910390fd5b7f6d3815e6a4f3c7fcec92b83d73dda2754a69c601f07723ec5a2274bd6e81e1556000819052600160208190527fc861706395149fc36bfa789f195b7333747d7319818fa049a9a45186a5bdc92a80546001600160a01b0319166001600160a01b038516179055604051604160f81b8152606085901b6001600160601b031916917fc861706395149fc36bfa789f195b7333747d7319818fa049a9a45186a5bdc92c9101908152604051908190036020018120919091556001600160a01b0383169082907f4963513eca575aba66fdcd25f267aae85958fe6fb97e75fa25d783f1a091a22190600090a3807fb829c3e412537bbe794c048ccb9e4605bb4aaaa8e4d4c15c1a6e0c2adc1716ea6040516101c790610276565b60405180910390a25050506102be565b600080546001600160a01b038381166001600160a01b0319831681178455604051919092169283917f8be0079c531659141344cd1fd0a4f28419497f9722a3daafe3b4186f6b6457e09190a35050565b80516001600160a01b038116811461023e57600080fd5b919050565b6000806040838503121561025657600080fd5b61025f83610227565b915061026d60208401610227565b90509250929050565b6040815260006102976040830160018152604160f81b602082015260400190565b82810360208401526102b78160018152604160f81b602082015260400190565b9392505050565b611e36806102cd6000396000f3fe6080604052600436106101965760003560e01c80639890220b116100e1578063df57b7421161008a578063ef5454d611610064578063ef5454d614610456578063f25eb5c114610476578063f2fde38b1461048b578063f6d339e4146104ab57600080fd5b8063df57b742146103e9578063e30bd74014610409578063eadf97601461043657600080fd5b8063c3a35825116100bb578063c3a3582514610393578063ddca3f43146103b3578063deb931a2146103c957600080fd5b80639890220b1461033e578063ac4e73f914610353578063ac72c1201461037357600080fd5b806369fe0e2d116101435780638da5cb5b1161011d5780638da5cb5b146102d257806390b97fc1146102f0578063926988141461031e57600080fd5b806369fe0e2d1461027b578063715018a61461029b57806379ce9fac146102b257600080fd5b8063432ced0411610174578063432ced04146102105780634f39ca59146102235780636795dbcd1461024357600080fd5b806306b2ff471461019b57806319362a28146101d05780633f3935d1146101f0575b600080fd5b3480156101a757600080fd5b506101bb6101b6366004611885565b6104cb565b60405190151581526020015b60405180910390f35b3480156101dc57600080fd5b506101bb6101eb3660046118f0565b6104f7565b3480156101fc57600080fd5b506101bb61020b366004611943565b610618565b6101bb61021e366004611985565b61079c565b34801561022f57600080fd5b506101bb61023e366004611985565b610876565b34801561024f57600080fd5b5061026361025e36600461199e565b610a51565b6040516001600160a01b0390911681526020016101c7565b34801561028757600080fd5b506101bb610296366004611985565b610af2565b3480156102a757600080fd5b506102b0610b3d565b005b3480156102be57600080fd5b506101bb6102cd3660046119ea565b610b51565b3480156102de57600080fd5b506000546001600160a01b0316610263565b3480156102fc57600080fd5b5061031061030b36600461199e565b610c4a565b6040519081526020016101c7565b34801561032a57600080fd5b506101bb610339366004611985565b610ce8565b34801561034a57600080fd5b506101bb610d66565b34801561035f57600080fd5b506101bb61036e366004611a16565b610dd7565b34801561037f57600080fd5b506101bb61038e366004611985565b611052565b34801561039f57600080fd5b506103106103ae36600461199e565b6110d4565b3480156103bf57600080fd5b5061031060035481565b3480156103d557600080fd5b506102636103e4366004611985565b611173565b3480156103f557600080fd5b50610263610404366004611985565b6111ef565b34801561041557600080fd5b50610429610424366004611885565b61126f565b6040516101c79190611a6a565b34801561044257600080fd5b506101bb6104513660046118f0565b61131b565b34801561046257600080fd5b506101bb610471366004611a16565b6113d8565b34801561048257600080fd5b506102b06114e0565b34801561049757600080fd5b506102b06104a6366004611885565b611694565b3480156104b757600080fd5b506101bb6104c6366004611ab9565b6116d2565b6001600160a01b038116600090815260026020526040812080546104ee90611b17565b15159392505050565b6000848152600160208190526040822001548590600160a01b900460ff168061053557506000818152600160205260409020546001600160a01b0316155b1561055b576040516302de445760e61b8152600481018290526024015b60405180910390fd5b60008681526001602052604090205486906001600160a01b0316331461059457604051631dd523ff60e31b815260040160405180910390fd5b836001600089815260200190815260200160002060020187876040516105bb929190611b4b565b908152602001604051809103902081905550867fb829c3e412537bbe794c048ccb9e4605bb4aaaa8e4d4c15c1a6e0c2adc1716ea878789896040516106039493929190611b84565b60405180910390a25060019695505050505050565b600082828080601f0160208091040260200160405190810160405280939291908181526020018383808284376000920182905250845160208087019190912080835260019182905260409092200154909350600160a01b900460ff16915081905061069857506000818152600160205260409020546001600160a01b0316155b156106b9576040516302de445760e61b815260048101829052602401610552565b84848080601f016020809104026020016040519081016040528093929190818152602001838380828437600092018290525084516020808701919091208252600190819052604090912001546001600160a01b03163314925061073291505057604051632e18cfc760e01b815260040160405180910390fd5b33600090815260026020526040902061074c868883611c1d565b50336001600160a01b03167f098ae8581bb8bd9af1beaf7f2e9f51f31a8e5a8bfada4e303a645d71d9c919208787604051610788929190611cde565b60405180910390a250600195945050505050565b6000818152600160208190526040822001548290600160a01b900460ff16806107db57506000818152600160205260409020546001600160a01b031615155b156107fc576040516304ef7e6560e31b815260048101829052602401610552565b60035434101561081f5760405163044044a560e21b815260040160405180910390fd5b60008381526001602052604080822080546001600160a01b031916339081179091559051909185917f4963513eca575aba66fdcd25f267aae85958fe6fb97e75fa25d783f1a091a2219190a3600191505b50919050565b6000818152600160208190526040822001548290600160a01b900460ff16806108b457506000818152600160205260409020546001600160a01b0316155b156108d5576040516302de445760e61b815260048101829052602401610552565b60008381526001602052604090205483906001600160a01b0316331461090e57604051631dd523ff60e31b815260040160405180910390fd5b6000848152600160208181526040808420909201546001600160a01b0316835260029052908190209051859161094391611cfa565b6040518091039020036109de576000848152600160208181526040808420909201546001600160a01b031680845260029091529181902090517f12491ad95fd945e444d88a894ffad3c21959880a4dcd8af99d4ae4ffc71d4abd916109a791611d70565b60405180910390a26000848152600160208181526040808420909201546001600160a01b031683526002905281206109de91611820565b600084815260016020819052604080832090910180547fffffffffffffffffffffff00ffffffffffffffffffffffffffffffffffffffff16600160a01b17905551339186917fef1961b4d2909dc23643b309bfe5c3e5646842d98c3a58517037ef3871185af39190a35060019392505050565b6000838152600160208190526040822001548490600160a01b900460ff1680610a8f57506000818152600160205260409020546001600160a01b0316155b15610ab0576040516302de445760e61b815260048101829052602401610552565b600160008681526020019081526020016000206002018484604051610ad6929190611b4b565b90815260200160405180910390205460601c9150509392505050565b6000610afc6117a3565b60038290556040518281527f6bbc57480a46553fa4d156ce702beef5f3ad66303b0ed1a5d4cb44966c6584c39060200160405180910390a15060015b919050565b610b456117a3565b610b4f60006117d0565b565b6000828152600160208190526040822001548390600160a01b900460ff1680610b8f57506000818152600160205260409020546001600160a01b0316155b15610bb0576040516302de445760e61b815260048101829052602401610552565b60008481526001602052604090205484906001600160a01b03163314610be957604051631dd523ff60e31b815260040160405180910390fd5b60008581526001602052604080822080546001600160a01b0319166001600160a01b03881690811790915590519091339188917f7b97c62130aa09acbbcbf7482630e756592496f1759eaf702f469cf64dfb779491a4506001949350505050565b6000838152600160208190526040822001548490600160a01b900460ff1680610c8857506000818152600160205260409020546001600160a01b0316155b15610ca9576040516302de445760e61b815260048101829052602401610552565b600160008681526020019081526020016000206002018484604051610ccf929190611b4b565b9081526020016040518091039020549150509392505050565b6000818152600160208190526040822001548290600160a01b900460ff1680610d2657506000818152600160205260409020546001600160a01b0316155b15610d47576040516302de445760e61b815260048101829052602401610552565b50506000908152600160205260409020546001600160a01b0316151590565b6000610d706117a3565b6040514781527fdef931299fe61d176f949118058530c1f3f539dcb6950b4e372c9b835c33ca079060200160405180910390a160405133904780156108fc02916000818181858888f19350505050158015610dcf573d6000803e3d6000fd5b506001905090565b600083838080601f0160208091040260200160405190810160405280939291908181526020018383808284376000920182905250845160208087019190912080835260019182905260409092200154909350600160a01b900460ff169150819050610e5757506000818152600160205260409020546001600160a01b0316155b15610e78576040516302de445760e61b815260048101829052602401610552565b8585604051610e88929190611b4b565b60408051918290039091206000818152600160205291909120546001600160a01b03163314610eca57604051631dd523ff60e31b815260040160405180910390fd5b60008787604051610edc929190611b4b565b6040805191829003909120600081815260016020819052929020909101549091506001600160a01b031615801590610f4e57506000818152600160208181526040808420909201546001600160a01b03168352600290529081902090518291610f4491611cfa565b6040518091039020145b15610fdc576000818152600160208181526040808420909201546001600160a01b03168352600290528120610f8291611820565b600081815260016020819052604091829020015490516001600160a01b03909116907f12491ad95fd945e444d88a894ffad3c21959880a4dcd8af99d4ae4ffc71d4abd90610fd3908b908b90611cde565b60405180910390a25b6000818152600160208190526040918290200180546001600160a01b0319166001600160a01b03891690811790915590517f728435a0031f6a04538fcdd24922a7e06bc7bc945db03e83d22122d1bc5f28df9061103c908b908b90611cde565b60405180910390a2506001979650505050505050565b6000818152600160208190526040822001548290600160a01b900460ff168061109057506000818152600160205260409020546001600160a01b0316155b156110b1576040516302de445760e61b815260048101829052602401610552565b5050600090815260016020819052604090912001546001600160a01b0316151590565b6000838152600160208190526040822001548490600160a01b900460ff168061111257506000818152600160205260409020546001600160a01b0316155b15611133576040516302de445760e61b815260048101829052602401610552565b600160008681526020019081526020016000206002018484604051611159929190611b4b565b908152604051908190036020019020549150509392505050565b6000818152600160208190526040822001548290600160a01b900460ff16806111b157506000818152600160205260409020546001600160a01b0316155b156111d2576040516302de445760e61b815260048101829052602401610552565b50506000908152600160205260409020546001600160a01b031690565b6000818152600160208190526040822001548290600160a01b900460ff168061122d57506000818152600160205260409020546001600160a01b0316155b1561124e576040516302de445760e61b815260048101829052602401610552565b5050600090815260016020819052604090912001546001600160a01b031690565b6001600160a01b038116600090815260026020526040902080546060919061129690611b17565b80601f01602080910402602001604051908101604052809291908181526020018280546112c290611b17565b801561130f5780601f106112e45761010080835404028352916020019161130f565b820191906000526020600020905b8154815290600101906020018083116112f257829003601f168201915b50505050509050919050565b6000848152600160208190526040822001548590600160a01b900460ff168061135957506000818152600160205260409020546001600160a01b0316155b1561137a576040516302de445760e61b815260048101829052602401610552565b60008681526001602052604090205486906001600160a01b031633146113b357604051631dd523ff60e31b815260040160405180910390fd5b6000878152600160205260409081902090518591600201906105bb9089908990611b4b565b600083838080601f0160208091040260200160405190810160405280939291908181526020018383808284376000920182905250845160208087019190912080835260019182905260409092200154909350600160a01b900460ff16915081905061145857506000818152600160205260409020546001600160a01b0316155b15611479576040516302de445760e61b815260048101829052602401610552565b6114816117a3565b6001600160a01b03841660009081526002602052604090206114a4868883611c1d565b50836001600160a01b03167f098ae8581bb8bd9af1beaf7f2e9f51f31a8e5a8bfada4e303a645d71d9c919208787604051610788929190611cde565b33600090815260026020526040902080546114fa90611b17565b80601f016020809104026020016040519081016040528092919081815260200182805461152690611b17565b80156115735780601f1061154857610100808354040283529160200191611573565b820191906000526020600020905b81548152906001019060200180831161155657829003601f168201915b50505050506000818051906020012090506001600082815260200190815260200160002060010160149054906101000a900460ff16806115c857506000818152600160205260409020546001600160a01b0316155b156115e9576040516302de445760e61b815260048101829052602401610552565b336000818152600260205260409081902090517f12491ad95fd945e444d88a894ffad3c21959880a4dcd8af99d4ae4ffc71d4abd9161162791611d70565b60405180910390a23360009081526002602052604080822090516001929161164e91611cfa565b60408051918290039091208252602080830193909352908101600090812060010180546001600160a01b03191690553381526002909252812061169091611820565b5050565b61169c6117a3565b6001600160a01b0381166116c657604051631e4fbdf760e01b815260006004820152602401610552565b6116cf816117d0565b50565b6000848152600160208190526040822001548590600160a01b900460ff168061171057506000818152600160205260409020546001600160a01b0316155b15611731576040516302de445760e61b815260048101829052602401610552565b60008681526001602052604090205486906001600160a01b0316331461176a57604051631dd523ff60e31b815260040160405180910390fd5b8360601b6bffffffffffffffffffffffff19166001600089815260200190815260200160002060020187876040516105bb929190611b4b565b6000546001600160a01b03163314610b4f5760405163118cdaa760e01b8152336004820152602401610552565b600080546001600160a01b038381166001600160a01b0319831681178455604051919092169283917f8be0079c531659141344cd1fd0a4f28419497f9722a3daafe3b4186f6b6457e09190a35050565b50805461182c90611b17565b6000825580601f1061183c575050565b601f0160209004906000526020600020908101906116cf91905b8082111561186a5760008155600101611856565b5090565b80356001600160a01b0381168114610b3857600080fd5b60006020828403121561189757600080fd5b6118a08261186e565b9392505050565b60008083601f8401126118b957600080fd5b50813567ffffffffffffffff8111156118d157600080fd5b6020830191508360208285010111156118e957600080fd5b9250929050565b6000806000806060858703121561190657600080fd5b84359350602085013567ffffffffffffffff81111561192457600080fd5b611930878288016118a7565b9598909750949560400135949350505050565b6000806020838503121561195657600080fd5b823567ffffffffffffffff81111561196d57600080fd5b611979858286016118a7565b90969095509350505050565b60006020828403121561199757600080fd5b5035919050565b6000806000604084860312156119b357600080fd5b83359250602084013567ffffffffffffffff8111156119d157600080fd5b6119dd868287016118a7565b9497909650939450505050565b600080604083850312156119fd57600080fd5b82359150611a0d6020840161186e565b90509250929050565b600080600060408486031215611a2b57600080fd5b833567ffffffffffffffff811115611a4257600080fd5b611a4e868287016118a7565b9094509250611a6190506020850161186e565b90509250925092565b60006020808352835180602085015260005b81811015611a9857858101830151858201604001528201611a7c565b506000604082860101526040601f19601f8301168501019250505092915050565b60008060008060608587031215611acf57600080fd5b84359350602085013567ffffffffffffffff811115611aed57600080fd5b611af9878288016118a7565b9094509250611b0c90506040860161186e565b905092959194509250565b600181811c90821680611b2b57607f821691505b60208210810361087057634e487b7160e01b600052602260045260246000fd5b8183823760009101908152919050565b81835281816020850137506000828201602090810191909152601f909101601f19169091010190565b604081526000611b98604083018688611b5b565b8281036020840152611bab818587611b5b565b979650505050505050565b634e487b7160e01b600052604160045260246000fd5b601f821115611c18576000816000526020600020601f850160051c81016020861015611bf55750805b601f850160051c820191505b81811015611c1457828155600101611c01565b5050505b505050565b67ffffffffffffffff831115611c3557611c35611bb6565b611c4983611c438354611b17565b83611bcc565b6000601f841160018114611c7d5760008515611c655750838201355b600019600387901b1c1916600186901b178355611cd7565b600083815260209020601f19861690835b82811015611cae5786850135825560209485019460019092019101611c8e565b5086821015611ccb5760001960f88860031b161c19848701351681555b505060018560011b0183555b5050505050565b602081526000611cf2602083018486611b5b565b949350505050565b6000808354611d0881611b17565b60018281168015611d205760018114611d3557611d64565b60ff1984168752821515830287019450611d64565b8760005260208060002060005b85811015611d5b5781548a820152908401908201611d42565b50505082870194505b50929695505050505050565b6000602080835260008454611d8481611b17565b8060208701526040600180841660008114611da65760018114611dc257611df2565b60ff19851660408a0152604084151560051b8a01019550611df2565b89600052602060002060005b85811015611de95781548b8201860152908301908801611dce565b8a016040019650505b50939897505050505050505056fea2646970667358221220522099d8baf34ae50694b01e307c594e8afd7d142897b41132c2c569054563d164736f6c63430008190033",
  "linkReferences": {},
  "deployedLinkReferences": {}
}