{
  "_format": "hh-sol-artifact-1",
  "contractName": "Secp256k1UtilsMock",
  "sourceName": "contracts/mockContracts/Secp256k1UtilsMock.sol",
  "abi": [
    {
      "inputs": [],
      "name": "InvalidPointsValue",
      "type": "error"
    },
    {
      "inputs": [],
      "name": "InvalidPublicKeyLength",
      "type": "error"
    },
    {
      "inputs": [
        {
          "internalType": "bytes",
          "name": "publicKey",
          "type": "bytes"
        }
      ],
      "name": "computeAddress",
      "outputs": [
        {
          "internalType": "address",
          "name": "",
          "type": "address"
        }
      ],
      "stateMutability": "pure",
      "type": "function"
    },
    {
      "inputs": [
        {
          "internalType": "bytes",
          "name": "publicKey",
          "type": "bytes"
        }
      ],
      "name": "isValidPublicKey",
      "outputs": [
        {
          "internalType": "bool",
          "name": "",
          "type": "bool"
        }
      ],
      "stateMutability": "pure",
      "type": "function"
    }
  ],
  "bytecode": "0x6080604052348015600f57600080fd5b506102668061001f6000396000f3fe608060405234801561001057600080fd5b50600436106100365760003560e01c806315359a061461003b578063c4c1cf5414610078575b600080fd5b61004e61004936600461017f565b61009b565b60405173ffffffffffffffffffffffffffffffffffffffff90911681526020015b60405180910390f35b61008b61008636600461017f565b6100ac565b604051901515815260200161006f565b805160208201206000905b92915050565b60006100a682600060408251146100d6576040516318dca5e960e21b815260040160405180910390fd5b6020820151604083015181818115806100f557506401000003d0198210155b806100fe575080155b8061010f57506401000003d0198110155b1561012d576040516379eb528360e11b815260040160405180910390fd5b60006401000003d019828309905060006401000003d01960076401000003d019866401000003d019888909090891909114979650505050505050565b634e487b7160e01b600052604160045260246000fd5b60006020828403121561019157600080fd5b813567ffffffffffffffff808211156101a957600080fd5b818401915084601f8301126101bd57600080fd5b8135818111156101cf576101cf610169565b604051601f8201601f19908116603f011681019083821181831017156101f7576101f7610169565b8160405282815287602084870101111561021057600080fd5b82602086016020830137600092810160200192909252509594505050505056fea2646970667358221220eb04f23ee6bcb2ae35819055e3970cbad2ef11cf30ee6028bf7992a41d376ff764736f6c63430008190033",
  "linkReferences": {},
  "deployedLinkReferences": {}
}