{
  "_format": "hh-sol-artifact-1",
  "contractName": "StakingHbbft",
  "sourceName": "contracts/StakingHbbft.sol",
  "abi": [
    {
      "inputs": [],
      "stateMutability": "nonpayable",
      "type": "constructor"
    },
    {
      "inputs": [
        {
          "internalType": "address",
          "name": "pool",
          "type": "address"
        },
        {
          "internalType": "address",
          "name": "staker",
          "type": "address"
        }
      ],
      "name": "CannotClaimWithdrawOrderYet",
      "type": "error"
    },
    {
      "inputs": [],
      "name": "GetterCallFailed",
      "type": "error"
    },
    {
      "inputs": [],
      "name": "InitialStakingPoolsListEmpty",
      "type": "error"
    },
    {
      "inputs": [],
      "name": "InsufficientBalance",
      "type": "error"
    },
    {
      "inputs": [
        {
          "internalType": "address",
          "name": "pool",
          "type": "address"
        },
        {
          "internalType": "address",
          "name": "delegator",
          "type": "address"
        }
      ],
      "name": "InsufficientStakeAmount",
      "type": "error"
    },
    {
      "inputs": [],
      "name": "InvalidFixedEpochDuration",
      "type": "error"
    },
    {
      "inputs": [
        {
          "internalType": "uint256",
          "name": "candidateStake",
          "type": "uint256"
        },
        {
          "internalType": "uint256",
          "name": "delegatorStake",
          "type": "uint256"
        }
      ],
      "name": "InvalidInitialStakeAmount",
      "type": "error"
    },
    {
      "inputs": [],
      "name": "InvalidInitialization",
      "type": "error"
    },
    {
      "inputs": [],
      "name": "InvalidIpAddressesCount",
      "type": "error"
    },
    {
      "inputs": [],
      "name": "InvalidMaxStakeAmount",
      "type": "error"
    },
    {
      "inputs": [],
      "name": "InvalidMoveStakePoolsAddress",
      "type": "error"
    },
    {
      "inputs": [
        {
          "internalType": "address",
          "name": "pool",
          "type": "address"
        },
        {
          "internalType": "address",
          "name": "delegator",
          "type": "address"
        },
        {
          "internalType": "int256",
          "name": "amount",
          "type": "int256"
        }
      ],
      "name": "InvalidOrderWithdrawAmount",
      "type": "error"
    },
    {
      "inputs": [],
      "name": "InvalidPublicKeysCount",
      "type": "error"
    },
    {
      "inputs": [],
      "name": "InvalidStakingFixedEpochDuration",
      "type": "error"
    },
    {
      "inputs": [],
      "name": "InvalidStakingTransitionTimeframe",
      "type": "error"
    },
    {
      "inputs": [],
      "name": "InvalidTransitionTimeFrame",
      "type": "error"
    },
    {
      "inputs": [
        {
          "internalType": "address",
          "name": "pool",
          "type": "address"
        },
        {
          "internalType": "address",
          "name": "delegator",
          "type": "address"
        },
        {
          "internalType": "uint256",
          "name": "amount",
          "type": "uint256"
        }
      ],
      "name": "InvalidWithdrawAmount",
      "type": "error"
    },
    {
      "inputs": [
        {
          "internalType": "uint256",
          "name": "allowed",
          "type": "uint256"
        },
        {
          "internalType": "uint256",
          "name": "desired",
          "type": "uint256"
        }
      ],
      "name": "MaxAllowedWithdrawExceeded",
      "type": "error"
    },
    {
      "inputs": [],
      "name": "MaxPoolsCountExceeded",
      "type": "error"
    },
    {
      "inputs": [
        {
          "internalType": "uint256",
          "name": "_newVal",
          "type": "uint256"
        }
      ],
      "name": "NewValueOutOfRange",
      "type": "error"
    },
    {
      "inputs": [],
      "name": "NoStakesToRecover",
      "type": "error"
    },
    {
      "inputs": [],
      "name": "NotInitializing",
      "type": "error"
    },
    {
      "inputs": [],
      "name": "NotPayable",
      "type": "error"
    },
    {
      "inputs": [
        {
          "internalType": "address",
          "name": "owner",
          "type": "address"
        }
      ],
      "name": "OwnableInvalidOwner",
      "type": "error"
    },
    {
      "inputs": [
        {
          "internalType": "address",
          "name": "account",
          "type": "address"
        }
      ],
      "name": "OwnableUnauthorizedAccount",
      "type": "error"
    },
    {
      "inputs": [
        {
          "internalType": "address",
          "name": "pool",
          "type": "address"
        }
      ],
      "name": "PoolAbandoned",
      "type": "error"
    },
    {
      "inputs": [
        {
          "internalType": "address",
          "name": "pool",
          "type": "address"
        }
      ],
      "name": "PoolCannotBeRemoved",
      "type": "error"
    },
    {
      "inputs": [
        {
          "internalType": "address",
          "name": "pool",
          "type": "address"
        }
      ],
      "name": "PoolEmpty",
      "type": "error"
    },
    {
      "inputs": [
        {
          "internalType": "address",
          "name": "pool",
          "type": "address"
        }
      ],
      "name": "PoolNotExist",
      "type": "error"
    },
    {
      "inputs": [
        {
          "internalType": "address",
          "name": "pool",
          "type": "address"
        },
        {
          "internalType": "address",
          "name": "delegator",
          "type": "address"
        }
      ],
      "name": "PoolStakeLimitExceeded",
      "type": "error"
    },
    {
      "inputs": [],
      "name": "ReentrancyGuardReentrantCall",
      "type": "error"
    },
    {
      "inputs": [
        {
          "internalType": "address",
          "name": "recipient",
          "type": "address"
        },
        {
          "internalType": "uint256",
          "name": "amount",
          "type": "uint256"
        }
      ],
      "name": "TransferFailed",
      "type": "error"
    },
    {
      "inputs": [],
      "name": "Unauthorized",
      "type": "error"
    },
    {
      "inputs": [],
      "name": "WithdrawNotAllowed",
      "type": "error"
    },
    {
      "inputs": [],
      "name": "ZeroAddress",
      "type": "error"
    },
    {
      "inputs": [],
      "name": "ZeroGasPrice",
      "type": "error"
    },
    {
      "inputs": [],
      "name": "ZeroWidthrawAmount",
      "type": "error"
    },
    {
      "inputs": [],
      "name": "ZeroWidthrawDisallowPeriod",
      "type": "error"
    },
    {
      "anonymous": false,
      "inputs": [
        {
          "indexed": true,
          "internalType": "address",
          "name": "fromPoolStakingAddress",
          "type": "address"
        },
        {
          "indexed": true,
          "internalType": "address",
          "name": "staker",
          "type": "address"
        },
        {
          "indexed": true,
          "internalType": "uint256",
          "name": "stakingEpoch",
          "type": "uint256"
        },
        {
          "indexed": false,
          "internalType": "uint256",
          "name": "amount",
          "type": "uint256"
        }
      ],
      "name": "ClaimedOrderedWithdrawal",
      "type": "event"
    },
    {
      "anonymous": false,
      "inputs": [
        {
          "indexed": true,
          "internalType": "address",
          "name": "caller",
          "type": "address"
        },
        {
          "indexed": true,
          "internalType": "address",
          "name": "stakingAddress",
          "type": "address"
        },
        {
          "indexed": false,
          "internalType": "uint256",
          "name": "gatheredFunds",
          "type": "uint256"
        }
      ],
      "name": "GatherAbandonedStakes",
      "type": "event"
    },
    {
      "anonymous": false,
      "inputs": [
        {
          "indexed": false,
          "internalType": "uint64",
          "name": "version",
          "type": "uint64"
        }
      ],
      "name": "Initialized",
      "type": "event"
    },
    {
      "anonymous": false,
      "inputs": [
        {
          "indexed": false,
          "internalType": "address",
          "name": "fromPoolStakingAddress",
          "type": "address"
        },
        {
          "indexed": true,
          "internalType": "address",
          "name": "toPoolStakingAddress",
          "type": "address"
        },
        {
          "indexed": true,
          "internalType": "address",
          "name": "staker",
          "type": "address"
        },
        {
          "indexed": true,
          "internalType": "uint256",
          "name": "stakingEpoch",
          "type": "uint256"
        },
        {
          "indexed": false,
          "internalType": "uint256",
          "name": "amount",
          "type": "uint256"
        }
      ],
      "name": "MovedStake",
      "type": "event"
    },
    {
      "anonymous": false,
      "inputs": [
        {
          "indexed": true,
          "internalType": "address",
          "name": "fromPoolStakingAddress",
          "type": "address"
        },
        {
          "indexed": true,
          "internalType": "address",
          "name": "staker",
          "type": "address"
        },
        {
          "indexed": true,
          "internalType": "uint256",
          "name": "stakingEpoch",
          "type": "uint256"
        },
        {
          "indexed": false,
          "internalType": "int256",
          "name": "amount",
          "type": "int256"
        }
      ],
      "name": "OrderedWithdrawal",
      "type": "event"
    },
    {
      "anonymous": false,
      "inputs": [
        {
          "indexed": true,
          "internalType": "address",
          "name": "previousOwner",
          "type": "address"
        },
        {
          "indexed": true,
          "internalType": "address",
          "name": "newOwner",
          "type": "address"
        }
      ],
      "name": "OwnershipTransferred",
      "type": "event"
    },
    {
      "anonymous": false,
      "inputs": [
        {
          "indexed": true,
          "internalType": "address",
          "name": "toPoolStakingAddress",
          "type": "address"
        },
        {
          "indexed": true,
          "internalType": "address",
          "name": "staker",
          "type": "address"
        },
        {
          "indexed": true,
          "internalType": "uint256",
          "name": "stakingEpoch",
          "type": "uint256"
        },
        {
          "indexed": false,
          "internalType": "uint256",
          "name": "amount",
          "type": "uint256"
        }
      ],
      "name": "PlacedStake",
      "type": "event"
    },
    {
      "anonymous": false,
      "inputs": [
        {
          "indexed": true,
          "internalType": "address",
          "name": "caller",
          "type": "address"
        },
        {
          "indexed": false,
          "internalType": "uint256",
          "name": "reinsertShare",
          "type": "uint256"
        },
        {
          "indexed": false,
          "internalType": "uint256",
          "name": "governanceShare",
          "type": "uint256"
        }
      ],
      "name": "RecoverAbandonedStakes",
      "type": "event"
    },
    {
      "anonymous": false,
      "inputs": [
        {
          "indexed": false,
          "internalType": "string",
          "name": "funcSelector",
          "type": "string"
        }
      ],
      "name": "RemoveChangeAbleParameter",
      "type": "event"
    },
    {
      "anonymous": false,
      "inputs": [
        {
          "indexed": true,
          "internalType": "address",
          "name": "poolStakingAddress",
          "type": "address"
        },
        {
          "indexed": true,
          "internalType": "uint256",
          "name": "stakingEpoch",
          "type": "uint256"
        },
        {
          "indexed": false,
          "internalType": "uint256",
          "name": "validatorReward",
          "type": "uint256"
        },
        {
          "indexed": false,
          "internalType": "uint256",
          "name": "delegatorsReward",
          "type": "uint256"
        }
      ],
      "name": "RestakeReward",
      "type": "event"
    },
    {
      "anonymous": false,
      "inputs": [
        {
          "indexed": false,
          "internalType": "address",
          "name": "_address",
          "type": "address"
        }
      ],
      "name": "SetBonusScoreContract",
      "type": "event"
    },
    {
      "anonymous": false,
      "inputs": [
        {
          "indexed": false,
          "internalType": "string",
          "name": "setter",
          "type": "string"
        },
        {
          "indexed": false,
          "internalType": "string",
          "name": "getter",
          "type": "string"
        },
        {
          "indexed": false,
          "internalType": "uint256[]",
          "name": "params",
          "type": "uint256[]"
        }
      ],
      "name": "SetChangeAbleParameter",
      "type": "event"
    },
    {
      "anonymous": false,
      "inputs": [
        {
          "indexed": false,
          "internalType": "uint256",
          "name": "minStake",
          "type": "uint256"
        }
      ],
      "name": "SetDelegatorMinStake",
      "type": "event"
    },
    {
      "anonymous": false,
      "inputs": [
        {
          "indexed": true,
          "internalType": "address",
          "name": "fromPoolStakingAddress",
          "type": "address"
        },
        {
          "indexed": true,
          "internalType": "address",
          "name": "staker",
          "type": "address"
        },
        {
          "indexed": true,
          "internalType": "uint256",
          "name": "stakingEpoch",
          "type": "uint256"
        },
        {
          "indexed": false,
          "internalType": "uint256",
          "name": "amount",
          "type": "uint256"
        }
      ],
      "name": "WithdrewStake",
      "type": "event"
    },
    {
      "inputs": [],
      "name": "MAX_CANDIDATES",
      "outputs": [
        {
          "internalType": "uint256",
          "name": "",
          "type": "uint256"
        }
      ],
      "stateMutability": "view",
      "type": "function"
    },
    {
      "inputs": [
        {
          "internalType": "address",
          "name": "",
          "type": "address"
        }
      ],
      "name": "abandonedAndRemoved",
      "outputs": [
        {
          "internalType": "bool",
          "name": "",
          "type": "bool"
        }
      ],
      "stateMutability": "view",
      "type": "function"
    },
    {
      "inputs": [
        {
          "internalType": "address",
          "name": "_miningAddress",
          "type": "address"
        },
        {
          "internalType": "bytes",
          "name": "_publicKey",
          "type": "bytes"
        },
        {
          "internalType": "bytes16",
          "name": "_ip",
          "type": "bytes16"
        }
      ],
      "name": "addPool",
      "outputs": [],
      "stateMutability": "payable",
      "type": "function"
    },
    {
      "inputs": [
        {
          "internalType": "bytes4",
          "name": "",
          "type": "bytes4"
        }
      ],
      "name": "allowedParameterRange",
      "outputs": [
        {
          "internalType": "bytes4",
          "name": "getter",
          "type": "bytes4"
        }
      ],
      "stateMutability": "view",
      "type": "function"
    },
    {
      "inputs": [],
      "name": "areStakeAndWithdrawAllowed",
      "outputs": [
        {
          "internalType": "bool",
          "name": "",
          "type": "bool"
        }
      ],
      "stateMutability": "pure",
      "type": "function"
    },
    {
      "inputs": [],
      "name": "bonusScoreContract",
      "outputs": [
        {
          "internalType": "contract IBonusScoreSystem",
          "name": "",
          "type": "address"
        }
      ],
      "stateMutability": "view",
      "type": "function"
    },
    {
      "inputs": [],
      "name": "candidateMinStake",
      "outputs": [
        {
          "internalType": "uint256",
          "name": "",
          "type": "uint256"
        }
      ],
      "stateMutability": "view",
      "type": "function"
    },
    {
      "inputs": [
        {
          "internalType": "address",
          "name": "_poolStakingAddress",
          "type": "address"
        }
      ],
      "name": "claimOrderedWithdraw",
      "outputs": [],
      "stateMutability": "nonpayable",
      "type": "function"
    },
    {
      "inputs": [],
      "name": "currentKeyGenExtraTimeWindow",
      "outputs": [
        {
          "internalType": "uint256",
          "name": "",
          "type": "uint256"
        }
      ],
      "stateMutability": "view",
      "type": "function"
    },
    {
      "inputs": [],
      "name": "delegatorMinStake",
      "outputs": [
        {
          "internalType": "uint256",
          "name": "",
          "type": "uint256"
        }
      ],
      "stateMutability": "view",
      "type": "function"
    },
    {
      "inputs": [
        {
          "internalType": "string",
          "name": "_selector",
          "type": "string"
        }
      ],
      "name": "getAllowedParamsRange",
      "outputs": [
        {
          "components": [
            {
              "internalType": "bytes4",
              "name": "getter",
              "type": "bytes4"
            },
            {
              "internalType": "uint256[]",
              "name": "range",
              "type": "uint256[]"
            }
          ],
          "internalType": "struct ValueGuards.ParameterRange",
          "name": "",
          "type": "tuple"
        }
      ],
      "stateMutability": "view",
      "type": "function"
    },
    {
      "inputs": [
        {
          "internalType": "bytes4",
          "name": "_selector",
          "type": "bytes4"
        }
      ],
      "name": "getAllowedParamsRangeWithSelector",
      "outputs": [
        {
          "components": [
            {
              "internalType": "bytes4",
              "name": "getter",
              "type": "bytes4"
            },
            {
              "internalType": "uint256[]",
              "name": "range",
              "type": "uint256[]"
            }
          ],
          "internalType": "struct ValueGuards.ParameterRange",
          "name": "",
          "type": "tuple"
        }
      ],
      "stateMutability": "view",
      "type": "function"
    },
    {
      "inputs": [
        {
          "internalType": "address",
          "name": "_poolAddress",
          "type": "address"
        }
      ],
      "name": "getPoolInternetAddress",
      "outputs": [
        {
          "internalType": "bytes16",
          "name": "",
          "type": "bytes16"
        },
        {
          "internalType": "bytes2",
          "name": "",
          "type": "bytes2"
        }
      ],
      "stateMutability": "view",
      "type": "function"
    },
    {
      "inputs": [
        {
          "internalType": "address",
          "name": "_poolAddress",
          "type": "address"
        }
      ],
      "name": "getPoolPublicKey",
      "outputs": [
        {
          "internalType": "bytes",
          "name": "",
          "type": "bytes"
        }
      ],
      "stateMutability": "view",
      "type": "function"
    },
    {
      "inputs": [
        {
          "internalType": "uint256",
          "name": "_epoch",
          "type": "uint256"
        },
        {
          "internalType": "address",
          "name": "_stakingPool",
          "type": "address"
        }
      ],
      "name": "getPoolValidatorStakeAmount",
      "outputs": [
        {
          "internalType": "uint256",
          "name": "",
          "type": "uint256"
        }
      ],
      "stateMutability": "view",
      "type": "function"
    },
    {
      "inputs": [],
      "name": "getPools",
      "outputs": [
        {
          "internalType": "address[]",
          "name": "",
          "type": "address[]"
        }
      ],
      "stateMutability": "view",
      "type": "function"
    },
    {
      "inputs": [],
      "name": "getPoolsInactive",
      "outputs": [
        {
          "internalType": "address[]",
          "name": "",
          "type": "address[]"
        }
      ],
      "stateMutability": "view",
      "type": "function"
    },
    {
      "inputs": [],
      "name": "getPoolsLikelihood",
      "outputs": [
        {
          "internalType": "uint256[]",
          "name": "likelihoods",
          "type": "uint256[]"
        },
        {
          "internalType": "uint256",
          "name": "sum",
          "type": "uint256"
        }
      ],
      "stateMutability": "view",
      "type": "function"
    },
    {
      "inputs": [],
      "name": "getPoolsToBeElected",
      "outputs": [
        {
          "internalType": "address[]",
          "name": "",
          "type": "address[]"
        }
      ],
      "stateMutability": "view",
      "type": "function"
    },
    {
      "inputs": [],
      "name": "getPoolsToBeRemoved",
      "outputs": [
        {
          "internalType": "address[]",
          "name": "",
          "type": "address[]"
        }
      ],
      "stateMutability": "view",
      "type": "function"
    },
    {
      "inputs": [],
      "name": "incrementStakingEpoch",
      "outputs": [],
      "stateMutability": "nonpayable",
      "type": "function"
    },
    {
      "inputs": [
        {
          "internalType": "string",
          "name": "setter",
          "type": "string"
        },
        {
          "internalType": "string",
          "name": "getter",
          "type": "string"
        },
        {
          "internalType": "uint256[]",
          "name": "params",
          "type": "uint256[]"
        }
      ],
      "name": "initAllowedChangeableParameter",
      "outputs": [],
      "stateMutability": "nonpayable",
      "type": "function"
    },
    {
      "inputs": [
        {
          "internalType": "address",
          "name": "_contractOwner",
          "type": "address"
        },
        {
          "components": [
            {
              "internalType": "address",
              "name": "_validatorSetContract",
              "type": "address"
            },
            {
              "internalType": "address",
              "name": "_bonusScoreContract",
              "type": "address"
            },
            {
              "internalType": "address[]",
              "name": "_initialStakingAddresses",
              "type": "address[]"
            },
            {
              "internalType": "uint256",
              "name": "_delegatorMinStake",
              "type": "uint256"
            },
            {
              "internalType": "uint256",
              "name": "_candidateMinStake",
              "type": "uint256"
            },
            {
              "internalType": "uint256",
              "name": "_maxStake",
              "type": "uint256"
            },
            {
              "internalType": "uint256",
              "name": "_stakingFixedEpochDuration",
              "type": "uint256"
            },
            {
              "internalType": "uint256",
              "name": "_stakingTransitionTimeframeLength",
              "type": "uint256"
            },
            {
              "internalType": "uint256",
              "name": "_stakingWithdrawDisallowPeriod",
              "type": "uint256"
            }
          ],
          "internalType": "struct IStakingHbbft.StakingParams",
          "name": "stakingParams",
          "type": "tuple"
        },
        {
          "internalType": "bytes32[]",
          "name": "_publicKeys",
          "type": "bytes32[]"
        },
        {
          "internalType": "bytes16[]",
          "name": "_internetAddresses",
          "type": "bytes16[]"
        }
      ],
      "name": "initialize",
      "outputs": [],
      "stateMutability": "nonpayable",
      "type": "function"
    },
    {
      "inputs": [
        {
          "internalType": "address",
          "name": "_stakingAddress",
          "type": "address"
        }
      ],
      "name": "isPoolActive",
      "outputs": [
        {
          "internalType": "bool",
          "name": "",
          "type": "bool"
        }
      ],
      "stateMutability": "view",
      "type": "function"
    },
    {
      "inputs": [
        {
          "internalType": "bytes4",
          "name": "funcSelector",
          "type": "bytes4"
        },
        {
          "internalType": "uint256",
          "name": "newVal",
          "type": "uint256"
        }
      ],
      "name": "isWithinAllowedRange",
      "outputs": [
        {
          "internalType": "bool",
          "name": "",
          "type": "bool"
        }
      ],
      "stateMutability": "view",
      "type": "function"
    },
    {
      "inputs": [],
      "name": "maxStakeAmount",
      "outputs": [
        {
          "internalType": "uint256",
          "name": "",
          "type": "uint256"
        }
      ],
      "stateMutability": "view",
      "type": "function"
    },
    {
      "inputs": [
        {
          "internalType": "address",
          "name": "_poolStakingAddress",
          "type": "address"
        },
        {
          "internalType": "address",
          "name": "_staker",
          "type": "address"
        }
      ],
      "name": "maxWithdrawAllowed",
      "outputs": [
        {
          "internalType": "uint256",
          "name": "",
          "type": "uint256"
        }
      ],
      "stateMutability": "view",
      "type": "function"
    },
    {
      "inputs": [
        {
          "internalType": "address",
          "name": "_poolStakingAddress",
          "type": "address"
        },
        {
          "internalType": "address",
          "name": "_staker",
          "type": "address"
        }
      ],
      "name": "maxWithdrawOrderAllowed",
      "outputs": [
        {
          "internalType": "uint256",
          "name": "",
          "type": "uint256"
        }
      ],
      "stateMutability": "view",
      "type": "function"
    },
    {
      "inputs": [
        {
          "internalType": "address",
          "name": "_fromPoolStakingAddress",
          "type": "address"
        },
        {
          "internalType": "address",
          "name": "_toPoolStakingAddress",
          "type": "address"
        },
        {
          "internalType": "uint256",
          "name": "_amount",
          "type": "uint256"
        }
      ],
      "name": "moveStake",
      "outputs": [],
      "stateMutability": "nonpayable",
      "type": "function"
    },
    {
      "inputs": [
        {
          "internalType": "address",
          "name": "_stakingAddress",
          "type": "address"
        }
      ],
      "name": "notifyAvailability",
      "outputs": [],
      "stateMutability": "nonpayable",
      "type": "function"
    },
    {
      "inputs": [],
      "name": "notifyKeyGenFailed",
      "outputs": [],
      "stateMutability": "nonpayable",
      "type": "function"
    },
    {
      "inputs": [
        {
          "internalType": "uint256",
          "name": "detectedOfflineTime",
          "type": "uint256"
        }
      ],
      "name": "notifyNetworkOfftimeDetected",
      "outputs": [],
      "stateMutability": "nonpayable",
      "type": "function"
    },
    {
      "inputs": [
        {
          "internalType": "address",
          "name": "_poolStakingAddress",
          "type": "address"
        },
        {
          "internalType": "int256",
          "name": "_amount",
          "type": "int256"
        }
      ],
      "name": "orderWithdraw",
      "outputs": [],
      "stateMutability": "nonpayable",
      "type": "function"
    },
    {
      "inputs": [
        {
          "internalType": "address",
          "name": "",
          "type": "address"
        },
        {
          "internalType": "address",
          "name": "",
          "type": "address"
        }
      ],
      "name": "orderWithdrawEpoch",
      "outputs": [
        {
          "internalType": "uint256",
          "name": "",
          "type": "uint256"
        }
      ],
      "stateMutability": "view",
      "type": "function"
    },
    {
      "inputs": [
        {
          "internalType": "address",
          "name": "",
          "type": "address"
        },
        {
          "internalType": "address",
          "name": "",
          "type": "address"
        }
      ],
      "name": "orderedWithdrawAmount",
      "outputs": [
        {
          "internalType": "uint256",
          "name": "",
          "type": "uint256"
        }
      ],
      "stateMutability": "view",
      "type": "function"
    },
    {
      "inputs": [
        {
          "internalType": "address",
          "name": "",
          "type": "address"
        }
      ],
      "name": "orderedWithdrawAmountTotal",
      "outputs": [
        {
          "internalType": "uint256",
          "name": "",
          "type": "uint256"
        }
      ],
      "stateMutability": "view",
      "type": "function"
    },
    {
      "inputs": [],
      "name": "owner",
      "outputs": [
        {
          "internalType": "address",
          "name": "",
          "type": "address"
        }
      ],
      "stateMutability": "view",
      "type": "function"
    },
    {
      "inputs": [
        {
          "internalType": "address",
          "name": "_poolStakingAddress",
          "type": "address"
        }
      ],
      "name": "poolDelegators",
      "outputs": [
        {
          "internalType": "address[]",
          "name": "",
          "type": "address[]"
        }
      ],
      "stateMutability": "view",
      "type": "function"
    },
    {
      "inputs": [
        {
          "internalType": "address",
          "name": "_poolStakingAddress",
          "type": "address"
        }
      ],
      "name": "poolDelegatorsInactive",
      "outputs": [
        {
          "internalType": "address[]",
          "name": "",
          "type": "address[]"
        }
      ],
      "stateMutability": "view",
      "type": "function"
    },
    {
      "inputs": [
        {
          "internalType": "address",
          "name": "",
          "type": "address"
        }
      ],
      "name": "poolInfo",
      "outputs": [
        {
          "internalType": "bytes",
          "name": "publicKey",
          "type": "bytes"
        },
        {
          "internalType": "bytes16",
          "name": "internetAddress",
          "type": "bytes16"
        },
        {
          "internalType": "bytes2",
          "name": "port",
          "type": "bytes2"
        }
      ],
      "stateMutability": "view",
      "type": "function"
    },
    {
      "inputs": [
        {
          "internalType": "address",
          "name": "",
          "type": "address"
        }
      ],
      "name": "poolToBeElectedIndex",
      "outputs": [
        {
          "internalType": "uint256",
          "name": "",
          "type": "uint256"
        }
      ],
      "stateMutability": "view",
      "type": "function"
    },
    {
      "inputs": [],
      "name": "recoverAbandonedStakes",
      "outputs": [],
      "stateMutability": "nonpayable",
      "type": "function"
    },
    {
      "inputs": [
        {
          "internalType": "string",
          "name": "funcSelector",
          "type": "string"
        }
      ],
      "name": "removeAllowedChangeableParameter",
      "outputs": [],
      "stateMutability": "nonpayable",
      "type": "function"
    },
    {
      "inputs": [],
      "name": "removeMyPool",
      "outputs": [],
      "stateMutability": "nonpayable",
      "type": "function"
    },
    {
      "inputs": [
        {
          "internalType": "address",
          "name": "_stakingAddress",
          "type": "address"
        }
      ],
      "name": "removePool",
      "outputs": [],
      "stateMutability": "nonpayable",
      "type": "function"
    },
    {
      "inputs": [],
      "name": "removePools",
      "outputs": [],
      "stateMutability": "nonpayable",
      "type": "function"
    },
    {
      "inputs": [],
      "name": "renounceOwnership",
      "outputs": [],
      "stateMutability": "nonpayable",
      "type": "function"
    },
    {
      "inputs": [
        {
          "internalType": "address",
          "name": "_poolStakingAddress",
          "type": "address"
        },
        {
          "internalType": "uint256",
          "name": "_validatorMinRewardPercent",
          "type": "uint256"
        }
      ],
      "name": "restake",
      "outputs": [],
      "stateMutability": "payable",
      "type": "function"
    },
    {
      "inputs": [
        {
          "internalType": "string",
          "name": "setter",
          "type": "string"
        },
        {
          "internalType": "string",
          "name": "getter",
          "type": "string"
        },
        {
          "internalType": "uint256[]",
          "name": "params",
          "type": "uint256[]"
        }
      ],
      "name": "setAllowedChangeableParameter",
      "outputs": [],
      "stateMutability": "nonpayable",
      "type": "function"
    },
    {
      "inputs": [
        {
          "internalType": "address",
          "name": "_bonusScoreContract",
          "type": "address"
        }
      ],
      "name": "setBonusScoreContract",
      "outputs": [],
      "stateMutability": "nonpayable",
      "type": "function"
    },
    {
      "inputs": [
        {
          "internalType": "uint256",
          "name": "_minStake",
          "type": "uint256"
        }
      ],
      "name": "setDelegatorMinStake",
      "outputs": [],
      "stateMutability": "nonpayable",
      "type": "function"
    },
    {
      "inputs": [
        {
          "internalType": "bytes",
          "name": "_publicKey",
          "type": "bytes"
        },
        {
          "internalType": "bytes16",
          "name": "_ip",
          "type": "bytes16"
        },
        {
          "internalType": "bytes2",
          "name": "_port",
          "type": "bytes2"
        }
      ],
      "name": "setPoolInfo",
      "outputs": [],
      "stateMutability": "nonpayable",
      "type": "function"
    },
    {
      "inputs": [
        {
          "internalType": "uint256",
          "name": "_timestamp",
          "type": "uint256"
        }
      ],
      "name": "setStakingEpochStartTime",
      "outputs": [],
      "stateMutability": "nonpayable",
      "type": "function"
    },
    {
      "inputs": [
        {
          "internalType": "uint256",
          "name": "_value",
          "type": "uint256"
        }
      ],
      "name": "setStakingFixedEpochDuration",
      "outputs": [],
      "stateMutability": "nonpayable",
      "type": "function"
    },
    {
      "inputs": [
        {
          "internalType": "uint256",
          "name": "_value",
          "type": "uint256"
        }
      ],
      "name": "setStakingTransitionTimeframeLength",
      "outputs": [],
      "stateMutability": "nonpayable",
      "type": "function"
    },
    {
      "inputs": [
        {
          "internalType": "address",
          "name": "_validatorAddress",
          "type": "address"
        },
        {
          "internalType": "bytes16",
          "name": "_ip",
          "type": "bytes16"
        },
        {
          "internalType": "bytes2",
          "name": "_port",
          "type": "bytes2"
        }
      ],
      "name": "setValidatorInternetAddress",
      "outputs": [],
      "stateMutability": "nonpayable",
      "type": "function"
    },
    {
      "inputs": [
        {
          "internalType": "uint256",
          "name": "_epoch",
          "type": "uint256"
        },
        {
          "internalType": "address",
          "name": "_stakingPool",
          "type": "address"
        }
      ],
      "name": "snapshotPoolStakeAmounts",
      "outputs": [],
      "stateMutability": "nonpayable",
      "type": "function"
    },
    {
      "inputs": [
        {
          "internalType": "uint256",
          "name": "",
          "type": "uint256"
        },
        {
          "internalType": "address",
          "name": "",
          "type": "address"
        }
      ],
      "name": "snapshotPoolTotalStakeAmount",
      "outputs": [
        {
          "internalType": "uint256",
          "name": "",
          "type": "uint256"
        }
      ],
      "stateMutability": "view",
      "type": "function"
    },
    {
      "inputs": [
        {
          "internalType": "uint256",
          "name": "",
          "type": "uint256"
        },
        {
          "internalType": "address",
          "name": "",
          "type": "address"
        }
      ],
      "name": "snapshotPoolValidatorStakeAmount",
      "outputs": [
        {
          "internalType": "uint256",
          "name": "",
          "type": "uint256"
        }
      ],
      "stateMutability": "view",
      "type": "function"
    },
    {
      "inputs": [
        {
          "internalType": "address",
          "name": "_toPoolStakingAddress",
          "type": "address"
        }
      ],
      "name": "stake",
      "outputs": [],
      "stateMutability": "payable",
      "type": "function"
    },
    {
      "inputs": [
        {
          "internalType": "address",
          "name": "",
          "type": "address"
        },
        {
          "internalType": "address",
          "name": "",
          "type": "address"
        }
      ],
      "name": "stakeAmount",
      "outputs": [
        {
          "internalType": "uint256",
          "name": "",
          "type": "uint256"
        }
      ],
      "stateMutability": "view",
      "type": "function"
    },
    {
      "inputs": [
        {
          "internalType": "address",
          "name": "_poolStakingAddress",
          "type": "address"
        },
        {
          "internalType": "address",
          "name": "_staker",
          "type": "address"
        }
      ],
      "name": "stakeAmountByCurrentEpoch",
      "outputs": [
        {
          "internalType": "uint256",
          "name": "",
          "type": "uint256"
        }
      ],
      "stateMutability": "view",
      "type": "function"
    },
    {
      "inputs": [
        {
          "internalType": "address",
          "name": "",
          "type": "address"
        }
      ],
      "name": "stakeAmountTotal",
      "outputs": [
        {
          "internalType": "uint256",
          "name": "",
          "type": "uint256"
        }
      ],
      "stateMutability": "view",
      "type": "function"
    },
    {
      "inputs": [],
      "name": "stakingEpoch",
      "outputs": [
        {
          "internalType": "uint256",
          "name": "",
          "type": "uint256"
        }
      ],
      "stateMutability": "view",
      "type": "function"
    },
    {
      "inputs": [],
      "name": "stakingEpochStartBlock",
      "outputs": [
        {
          "internalType": "uint256",
          "name": "",
          "type": "uint256"
        }
      ],
      "stateMutability": "view",
      "type": "function"
    },
    {
      "inputs": [],
      "name": "stakingEpochStartTime",
      "outputs": [
        {
          "internalType": "uint256",
          "name": "",
          "type": "uint256"
        }
      ],
      "stateMutability": "view",
      "type": "function"
    },
    {
      "inputs": [],
      "name": "stakingFixedEpochDuration",
      "outputs": [
        {
          "internalType": "uint256",
          "name": "",
          "type": "uint256"
        }
      ],
      "stateMutability": "view",
      "type": "function"
    },
    {
      "inputs": [],
      "name": "stakingFixedEpochEndTime",
      "outputs": [
        {
          "internalType": "uint256",
          "name": "",
          "type": "uint256"
        }
      ],
      "stateMutability": "view",
      "type": "function"
    },
    {
      "inputs": [],
      "name": "stakingTransitionTimeframeLength",
      "outputs": [
        {
          "internalType": "uint256",
          "name": "",
          "type": "uint256"
        }
      ],
      "stateMutability": "view",
      "type": "function"
    },
    {
      "inputs": [],
      "name": "stakingWithdrawDisallowPeriod",
      "outputs": [
        {
          "internalType": "uint256",
          "name": "",
          "type": "uint256"
        }
      ],
      "stateMutability": "view",
      "type": "function"
    },
    {
      "inputs": [],
      "name": "startTimeOfNextPhaseTransition",
      "outputs": [
        {
          "internalType": "uint256",
          "name": "",
          "type": "uint256"
        }
      ],
      "stateMutability": "view",
      "type": "function"
    },
    {
      "inputs": [],
      "name": "totalStakedAmount",
      "outputs": [
        {
          "internalType": "uint256",
          "name": "",
          "type": "uint256"
        }
      ],
      "stateMutability": "view",
      "type": "function"
    },
    {
      "inputs": [
        {
          "internalType": "address",
          "name": "newOwner",
          "type": "address"
        }
      ],
      "name": "transferOwnership",
      "outputs": [],
      "stateMutability": "nonpayable",
      "type": "function"
    },
    {
      "inputs": [
        {
          "internalType": "address",
          "name": "mining",
          "type": "address"
        },
        {
          "internalType": "uint256",
          "name": "validatorScore",
          "type": "uint256"
        }
      ],
      "name": "updatePoolLikelihood",
      "outputs": [],
      "stateMutability": "nonpayable",
      "type": "function"
    },
    {
      "inputs": [],
      "name": "validatorSetContract",
      "outputs": [
        {
          "internalType": "contract IValidatorSetHbbft",
          "name": "",
          "type": "address"
        }
      ],
      "stateMutability": "view",
      "type": "function"
    },
    {
      "inputs": [
        {
          "internalType": "address",
          "name": "_fromPoolStakingAddress",
          "type": "address"
        },
        {
          "internalType": "uint256",
          "name": "_amount",
          "type": "uint256"
        }
      ],
      "name": "withdraw",
      "outputs": [],
      "stateMutability": "nonpayable",
      "type": "function"
    },
    {
      "stateMutability": "payable",
      "type": "receive"
    }
  ],
  "bytecode": "0x6080604052348015600f57600080fd5b506016601a565b60ca565b7ff0c57e16840df040f15088dc2f81fe391c3923bec73e23a9662efc9c229c6a00805468010000000000000000900460ff161560695760405163f92ee8a960e01b815260040160405180910390fd5b80546001600160401b039081161460c75780546001600160401b0319166001600160401b0390811782556040519081527fc7f505b2f371ae2175ee4913f4499e1f2633a7b5936321eed1cdaeb6115181d29060200160405180910390a15b50565b615a93806100d96000396000f3fe60806040526004361061050b5760003560e01c8063862be28711610294578063ba08d2371161015e578063df6f55f5116100d6578063f07860961161008a578063f3fef3a31161006f578063f3fef3a314610f14578063f494250114610f34578063fa4aaf4714610f4857600080fd5b8063f078609614610ede578063f2fde38b14610ef457600080fd5b8063e9ab0300116100bb578063e9ab030014610e7c578063edd7db7514610eb4578063ee435f5514610ec957600080fd5b8063df6f55f514610e47578063dfc8bf4e14610e5c57600080fd5b8063cfef14411161012d578063d290c21d11610112578063d290c21d14610def578063da7a9b6a14610e04578063dadee88a14610e1a57600080fd5b8063cfef144114610daf578063d0ac76f614610dcf57600080fd5b8063ba08d23714610d3a578063bf348f8614610d5a578063c6912cc014610d7a578063c6af311a14610d8f57600080fd5b80639ea8082b1161020c578063adddc0cf116101c0578063b0bd5e9e116101a5578063b0bd5e9e14610ccd578063b61ed63a14610ced578063b710c15d14610d0d57600080fd5b8063adddc0cf14610ca2578063ae1aaf8014610cb757600080fd5b8063a5d54f65116101f1578063a5d54f6514610c35578063a697ecff14610c4a578063a711e6a114610c8257600080fd5b80639ea8082b14610bdd578063a420596714610bfd57600080fd5b8063957950a7116102635780639b03d744116102485780639b03d74414610b875780639b9fb6d014610b9d5780639e72c63514610bbd57600080fd5b8063957950a714610b355780639a7b5f1114610b5857600080fd5b8063862be28714610a6f5780638da5cb5b14610a8f5780639228363414610acc578063950a651314610b1557600080fd5b80634f9a8d8f116103d55780636bda15771161034d578063750dd2a1116103015780637b0a0f9b116102e65780637b0a0f9b14610a0f5780637b15b94c14610a2f5780638247a23914610a4f57600080fd5b8063750dd2a1146109a9578063794c0c68146109f957600080fd5b8063715018a611610332578063715018a61461093c578063728345db1461095157806373c218031461098957600080fd5b80636bda1577146109065780637069e7461461092657600080fd5b80635b4eafe0116103a45780635d80ca32116103895780635d80ca32146108b85780635fef7643146108ce578063673a2a1f146108e457600080fd5b80635b4eafe0146108785780635cb092a21461089857600080fd5b80634f9a8d8f1461080c5780635267e1d614610822578063567e98f91461084f57806356e4d6c21461086557600080fd5b8063251441a91161048357806337154263116104375780633b7d09461161041c5780633b7d0946146107ac5780633f3afe01146107cc5780634e9b426d146107df57600080fd5b80633715426314610781578063379b046a1461079657600080fd5b80632bafde8d116104685780632bafde8d146107025780633219d6001461072257806336e98ca81461076157600080fd5b8063251441a9146106cf57806326476204146106ef57600080fd5b80631555371c116104da5780631fb31e43116104bf5780631fb31e431461061e57806322704bdd1461069a57806322e3d986146106ba57600080fd5b80631555371c146105e9578063159e0a95146105fe57600080fd5b8063028b8bdb1461052e5780630ac6e291146105575780630b770cdf146105795780631345b8a5146105b157600080fd5b3661052957604051631574f9f360e01b815260040160405180910390fd5b600080fd5b34801561053a57600080fd5b5061054460155481565b6040519081526020015b60405180910390f35b34801561056357600080fd5b50610577610572366004614f72565b610f75565b005b34801561058557600080fd5b50602554610599906001600160a01b031681565b6040516001600160a01b03909116815260200161054e565b3480156105bd57600080fd5b506105446105cc366004615022565b602260209081526000928352604080842090915290825290205481565b3480156105f557600080fd5b50610577611569565b34801561060a57600080fd5b50610577610619366004615052565b6115db565b34801561062a57600080fd5b50610668610639366004615052565b6001600160a01b03166000908152601f6020526040902060010154608081901b91600160801b90910460f01b90565b604080516fffffffffffffffffffffffffffffffff1990931683526001600160f01b031990911660208301520161054e565b3480156106a657600080fd5b506105776106b536600461506f565b61165f565b3480156106c657600080fd5b5061054461169c565b3480156106db57600080fd5b506105776106ea366004615088565b6116e3565b6105776106fd366004615052565b6117a1565b34801561070e57600080fd5b5061057761071d36600461506f565b611824565b34801561072e57600080fd5b5061075161073d366004615052565b602080526000908152604090205460ff1681565b604051901515815260200161054e565b34801561076d57600080fd5b5061057761077c366004615180565b6118a4565b34801561078d57600080fd5b50610577611958565b3480156107a257600080fd5b50610544601b5481565b3480156107b857600080fd5b506105776107c7366004615052565b611d51565b6105776107da36600461526d565b611d87565b3480156107eb57600080fd5b506107ff6107fa366004615052565b6120f2565b60405161054e91906152e9565b34801561081857600080fd5b5061054460175481565b34801561082e57600080fd5b5061054461083d366004615052565b601c6020526000908152604090205481565b34801561085b57600080fd5b50610544601d5481565b610577610873366004615364565b61219e565b34801561088457600080fd5b50610544610893366004615022565b6122d3565b3480156108a457600080fd5b506105776108b3366004615180565b6122fd565b3480156108c457600080fd5b50610544600f5481565b3480156108da57600080fd5b50610544600d5481565b3480156108f057600080fd5b506108f9612305565b60405161054e91906153cb565b34801561091257600080fd5b50610544610921366004615418565b612316565b34801561093257600080fd5b50610544601a5481565b34801561094857600080fd5b50610577612495565b34801561095d57600080fd5b5061054461096c366004615022565b602160209081526000928352604080842090915290825290205481565b34801561099557600080fd5b506108f96109a4366004615052565b6124a9565b3480156109b557600080fd5b506105446109c4366004615418565b6001600160a01b039182166000908152600c602090815260408083209390941682529182528281206016548252909152205490565b348015610a0557600080fd5b5061054460165481565b348015610a1b57600080fd5b50610577610a2a36600461545e565b6124cd565b348015610a3b57600080fd5b50610577610a4a366004615052565b61254a565b348015610a5b57600080fd5b50610577610a6a36600461506f565b6125b1565b348015610a7b57600080fd5b50610577610a8a3660046154a3565b6125e4565b348015610a9b57600080fd5b507f9016d09d72d40fdae2fd8ceac6b6234c7706214fd39c1cd1e609a0528c199300546001600160a01b0316610599565b348015610ad857600080fd5b50610afc610ae7366004615515565b60006020819052908152604090205460e01b81565b6040516001600160e01b0319909116815260200161054e565b348015610b2157600080fd5b50610544610b30366004615418565b612647565b348015610b4157600080fd5b50610b4a61278f565b60405161054e92919061556c565b348015610b6457600080fd5b50610b78610b73366004615052565b6127f2565b60405161054e9392919061558e565b348015610b9357600080fd5b5061054460195481565b348015610ba957600080fd5b50610577610bb83660046155d5565b6128a6565b348015610bc957600080fd5b50610577610bd836600461506f565b61291a565b348015610be957600080fd5b506108f9610bf8366004615052565b612965565b348015610c0957600080fd5b50610544610c18366004615418565b601260209081526000928352604080842090915290825290205481565b348015610c4157600080fd5b506108f9612989565b348015610c5657600080fd5b50610544610c65366004615418565b601460209081526000928352604080842090915290825290205481565b348015610c8e57600080fd5b50610751610c9d366004615052565b6129eb565b348015610cae57600080fd5b506105776129f8565b348015610cc357600080fd5b5061054460185481565b348015610cd957600080fd5b50610577610ce836600461506f565b612a3d565b348015610cf957600080fd5b50610577610d0836600461526d565b612a6c565b348015610d1957600080fd5b50610d2d610d283660046155d5565b612dd3565b60405161054e919061560a565b348015610d4657600080fd5b50610751610d55366004615638565b612e7b565b348015610d6657600080fd5b50610d2d610d75366004615515565b61304a565b348015610d8657600080fd5b506105446130e7565b348015610d9b57600080fd5b50610577610daa36600461526d565b613106565b348015610dbb57600080fd5b50610577610dca366004615052565b6131b0565b348015610ddb57600080fd5b50610577610dea366004615022565b613383565b348015610dfb57600080fd5b506108f96134c6565b348015610e1057600080fd5b50610544600e5481565b348015610e2657600080fd5b50610544610e35366004615052565b60116020526000908152604090205481565b348015610e5357600080fd5b506108f96134d2565b348015610e6857600080fd5b50601e54610599906001600160a01b031681565b348015610e8857600080fd5b50610544610e97366004615418565b601060209081526000928352604080842090915290825290205481565b348015610ec057600080fd5b506105776134de565b348015610ed557600080fd5b5061057761361e565b348015610eea57600080fd5b50610544610bb881565b348015610f0057600080fd5b50610577610f0f366004615052565b613664565b348015610f2057600080fd5b50610577610f2f36600461526d565b61369f565b348015610f4057600080fd5b506001610751565b348015610f5457600080fd5b50610544610f63366004615052565b60136020526000908152604090205481565b7ff0c57e16840df040f15088dc2f81fe391c3923bec73e23a9662efc9c229c6a00805468010000000000000000810460ff16159067ffffffffffffffff16600081158015610fc05750825b905060008267ffffffffffffffff166001148015610fdd5750303b155b905081158015610feb575080155b156110095760405163f92ee8a960e01b815260040160405180910390fd5b845467ffffffffffffffff19166001178555831561103d57845468ff00000000000000001916680100000000000000001785555b6001600160a01b038b166110645760405163d92e233d60e01b815260040160405180910390fd5b61106d8a613758565b8761107b60408c018c615654565b611087915060026156b4565b146110a45760405162d6988760e81b815260040160405180910390fd5b856110b260408c018c615654565b9050146110d2576040516320041afd60e01b815260040160405180910390fd5b6110db8b6138bb565b6110e36138cc565b6110f060208b018b615052565b601e80546001600160a01b0319166001600160a01b039290921691909117905561112060408b0160208c01615052565b602580546001600160a01b0319166001600160a01b039290921691909117905536600061115060408d018d615654565b9150915060005b81811015611373576000838383818110611173576111736156cb565b90506020020160208101906111889190615052565b6001600160a01b0316036111af5760405163d92e233d60e01b815260040160405180910390fd5b6111e08383838181106111c4576111c46156cb565b90506020020160208101906111d99190615052565b60006138dc565b61120f8383838181106111f5576111f56156cb565b905060200201602081019061120a9190615052565b61393c565b8b8b61121c8360026156b4565b81811061122b5761122b6156cb565b905060200201358c8c83600261124191906156b4565b61124c9060016156e1565b81811061125b5761125b6156cb565b9050602002013560405160200161127c929190918252602082015260400190565b604051602081830303815290604052601f60008585858181106112a1576112a16156cb565b90506020020160208101906112b69190615052565b6001600160a01b031681526020810191909152604001600020906112da908261577e565b508989828181106112ed576112ed6156cb565b9050602002016020810190611302919061583e565b601f6000858585818110611318576113186156cb565b905060200201602081019061132d9190615052565b6001600160a01b031681526020810191909152604001600020600190810180546fffffffffffffffffffffffffffffffff191660809390931c9290921790915501611157565b5060408051600580825260c082019092526000916020820160a0803683370190505090506802b5e3af16b1880000816000815181106113b4576113b46156cb565b60200260200101818152505068056bc75e2d63100000816001815181106113dd576113dd6156cb565b602002602001018181525050680821ab0d441498000081600281518110611406576114066156cb565b602002602001018181525050680ad78ebc5ac62000008160038151811061142f5761142f6156cb565b602002602001018181525050680d8d726b7177a8000081600481518110611458576114586156cb565b6020026020010181815250506114d96040518060400160405280601d81526020017f73657444656c656761746f724d696e5374616b652875696e74323536290000008152506040518060400160405280601381526020017f64656c656761746f724d696e5374616b65282900000000000000000000000000815250836122fd565b50505060608a0135600e5560808a0135600d5560a08a0135600f5560c08a01356017556101008a01356015554260195560e08a0135601855831561155c57845468ff000000000000000019168555604051600181527fc7f505b2f371ae2175ee4913f4499e1f2633a7b5936321eed1cdaeb6115181d29060200160405180910390a15b5050505050505050505050565b601e546001600160a01b03163314611593576040516282b42960e81b815260040160405180910390fd5b600061159f6005613951565b905060005b81518110156115d7576115cf8282815181106115c2576115c26156cb565b6020026020010151613965565b6001016115a4565b5050565b6115e36139ab565b6001600160a01b03811661160a5760405163d92e233d60e01b815260040160405180910390fd5b602580546001600160a01b0319166001600160a01b0383169081179091556040519081527fd4244d1f8acb4860e17399636c6b7875c75656aafb5cb3d0163d7305eace7172906020015b60405180910390a150565b6116676139ab565b600a8111158061167957506017548110155b1561169757604051638826666f60e01b815260040160405180910390fd5b601855565b60195460175460009190156116b25760016116b5565b60005b60ff16601b54601754836116c991906156e1565b6116d391906156e1565b6116dd9190615859565b91505090565b3a60000361170457604051630e661aed60e41b815260040160405180910390fd5b816001600160a01b0316836001600160a01b03160361173657604051630a5eddd560e01b815260040160405180910390fd5b33611742848284613a06565b61174d838284613cb4565b601654604080516001600160a01b0387811682526020820186905280851692908716917f4480d8e4b1e9095b94bf513961d26fe1d32386ebdd103d18fe8738cf4b2223ff910160405180910390a450505050565b3a6000036117c257604051630e661aed60e41b815260040160405180910390fd5b33346117cf838383613cb4565b601654826001600160a01b0316846001600160a01b03167f2273de02cb1f69ba6259d22c4bc22c60e4c94c193265ef6afee324a04a9b6d228460405161181791815260200190565b60405180910390a4505050565b61182c6139ab565b806118436000356001600160e01b03191682612e7b565b611868576040516373330d9b60e01b8152600481018290526024015b60405180910390fd5b600e8290556040518281527ffee02ce7aa40f9c49eaabd26d404fa88714b97cb209af8954cfd5eeb8213b93e9060200160405180910390a15050565b6118ac6139ab565b60408051808201825283516020808601919091206001600160e01b031990811683528183018581528751888401209091166000908152808352939093208251815463ffffffff191660e09190911c178155925180519293926119149260018501920190614e97565b509050507f3d45a310c5a076ea07aa2947ca3c06cc2a8b3571065867ad6f8e7096a2c9d50a83838360405161194b9392919061586c565b60405180910390a1505050565b3a60000361197957604051630e661aed60e41b815260040160405180910390fd5b6000806119866003613951565b905080516000036119aa57604051631c369b4560e21b815260040160405180910390fd5b60005b8151811015611b905760008282815181106119ca576119ca6156cb565b602002602001015190506119dd81614004565b80611a535750601e54604051639d6fc1d160e01b81526001600160a01b03838116600483015290911690639d6fc1d190602401602060405180830381865afa158015611a2d573d6000803e3d6000fd5b505050506040513d601f19601f82011682018060405250810190611a5191906158a5565b155b15611a5e5750611b88565b611a69600382614042565b506001600160a01b038116600090815260208080526040808320805460ff19166001179055601c9091528120805490829055601d805491928392611aae908490615859565b9091555060009050611abf83612965565b905060005b8151811015611b2a576000828281518110611ae157611ae16156cb565b6020908102919091018101516001600160a01b0380881660009081526014845260408082209284168252919093528220919091559050611b218582614057565b50600101611ac4565b50611b3582876156e1565b9550826001600160a01b0316336001600160a01b03167f8e6a4ccd7dccdca9ac211d00fcc3fa7c71be75ff73d3a35f63ea023173cc100484604051611b7c91815260200190565b60405180910390a35050505b6001016119ad565b5081600003611bb257604051631c369b4560e21b815260040160405180910390fd5b6000611bbf6002846158dd565b90506000611bcd8285615859565b90506000601e60009054906101000a90046001600160a01b03166001600160a01b03166356b54bae6040518163ffffffff1660e01b8152600401602060405180830381865afa158015611c24573d6000803e3d6000fd5b505050506040513d601f19601f82011682018060405250810190611c4891906158ff565b90506000816001600160a01b031663732524946040518163ffffffff1660e01b8152600401602060405180830381865afa158015611c8a573d6000803e3d6000fd5b505050506040513d601f19601f82011682018060405250810190611cae91906158ff565b9050816001600160a01b031663af182535846040518263ffffffff1660e01b81526004016000604051808303818588803b158015611ceb57600080fd5b505af1158015611cff573d6000803e3d6000fd5b5050505050611d0e81856140b9565b604080518481526020810186905233917f1c113e6bae9530fea40323e612aeb0cb7817dedb5a0b0f6bdfbff97d55920dc7910160405180910390a2505050505050565b601e546001600160a01b03163314611d7b576040516282b42960e81b815260040160405180910390fd5b611d8481613965565b50565b601e60009054906101000a90046001600160a01b03166001600160a01b03166356b54bae6040518163ffffffff1660e01b8152600401602060405180830381865afa158015611dda573d6000803e3d6000fd5b505050506040513d601f19601f82011682018060405250810190611dfe91906158ff565b6001600160a01b0316336001600160a01b031614611e2e576040516282b42960e81b815260040160405180910390fd5b34156115d75760165460008181526021602090815260408083206001600160a01b038716808552908352818420549484526022835281842090845290915281205434929181831115612011576000611e8587612965565b90506000611e938486615859565b90506000611ea188836156b4565b611eac896064615859565b611eb690876156b4565b119050611ec68186888a8c614160565b935060005b8351811015612008576000611f098389611f016016548f8a8881518110611ef457611ef46156cb565b60200260200101516141af565b878d8f614250565b905080601460008d6001600160a01b03166001600160a01b031681526020019081526020016000206000878581518110611f4557611f456156cb565b60200260200101516001600160a01b03166001600160a01b031681526020019081526020016000206000828254611f7c91906156e1565b90915550506001600160a01b038b166000908152600c602052604081208651839290889086908110611fb057611fb06156cb565b60200260200101516001600160a01b03166001600160a01b03168152602001908152602001600020600060165481526020019081526020016000206000828254611ffa91906156e1565b909155505050600101611ecb565b50505050612014565b50825b6001600160a01b0386166000908152601460209081526040808320909152812080548392906120449084906156e1565b90915550506001600160a01b0386166000908152601c6020526040812080548692906120719084906156e1565b9250508190555083601d600082825461208a91906156e1565b909155506120999050866142be565b6016546001600160a01b0387167f72093068b9f28053bd924ac15d7710b987f9b6ef1e0f89f47d8b4bd7cac776dc836120d28189615859565b6040805192835260208301919091520160405180910390a3505050505050565b6001600160a01b0381166000908152601f60205260409020805460609190612119906156f4565b80601f0160208091040260200160405190810160405280929190818152602001828054612145906156f4565b80156121925780601f1061216757610100808354040283529160200191612192565b820191906000526020600020905b81548152906001019060200180831161217557829003601f168201915b50505050509050919050565b3a6000036121bf57604051630e661aed60e41b815260040160405180910390fd5b601e54604051630526083960e11b81526001600160a01b0386811660048301523360248301819052923492911690630a4c107290604401600060405180830381600087803b15801561221057600080fd5b505af1158015612224573d6000803e3d6000fd5b50505050612233828383613cb4565b6001600160a01b0382166000908152601f6020526040902061225685878361591c565b506001600160a01b0382166000818152601f602090815260409182902060010180546fffffffffffffffffffffffffffffffff1916608088901c179055601654915184815291929182917f2273de02cb1f69ba6259d22c4bc22c60e4c94c193265ef6afee324a04a9b6d22910160405180910390a4505050505050565b60008281526022602090815260408083206001600160a01b03851684529091529020545b92915050565b6118ac6143ab565b60606123116001613951565b905090565b601e546040516253517560e01b81526001600160a01b03848116600483015260009283929116906253517590602401602060405180830381865afa158015612362573d6000803e3d6000fd5b505050506040513d601f19601f8201168201806040525081019061238691906158ff565b90506001600160a01b038416600090815260208052604090205460ff16156123b25760009150506122f7565b6001600160a01b03848116600090815260146020908152604080832087851684529091529081902054601e54915163a0d16cad60e01b815284841660048201529092919091169063a0d16cad90602401602060405180830381865afa15801561241f573d6000803e3d6000fd5b505050506040513d601f19601f8201168201806040525081019061244391906158a5565b6124505791506122f79050565b6001600160a01b038581166000908152600c6020908152604080832093881683529281528282206016548352905220548082111561248c578091505b50949350505050565b61249d6139ab565b6124a760006143f9565b565b6001600160a01b0381166000908152600b602052604090206060906122f790613951565b601e546001600160a01b031633146124f7576040516282b42960e81b815260040160405180910390fd5b6001600160a01b039092166000908152601f60205260409020600101805460f09390931c600160801b0271ffffffffffffffffffffffffffffffffffff1990931660809290921c91909117919091179055565b601e546001600160a01b03163314612574576040516282b42960e81b815260040160405180910390fd5b600d546001600160a01b038216600090815260146020908152604080832090915290205410611d84576125a88160016138dc565b611d84816142be565b601e546001600160a01b031633146125db576040516282b42960e81b815260040160405180910390fd5b60195543601a55565b336000908152601f602052604090206125fe84868361591c565b50336000908152601f60205260409020600101805460f09290921c600160801b0271ffffffffffffffffffffffffffffffffffff1990921660809390931c929092171790555050565b601e546040516253517560e01b81526001600160a01b03848116600483015260009283929116906253517590602401602060405180830381865afa158015612693573d6000803e3d6000fd5b505050506040513d601f19601f820116820180604052508101906126b791906158ff565b9050601e5460405163a0d16cad60e01b81526001600160a01b0383811660048301529091169063a0d16cad90602401602060405180830381865afa158015612703573d6000803e3d6000fd5b505050506040513d601f19601f8201168201806040525081019061272791906158a5565b6127355760009150506122f7565b6001600160a01b038481166000818152600c6020908152604080832094881680845294825280832060165484528252808320549383526014825280832094835293905291909120546127879190615859565b949350505050565b606060006008600954818054806020026020016040519081016040528092919081815260200182805480156127e357602002820191906000526020600020905b8154815260200190600101908083116127cf575b50505050509150915091509091565b601f6020526000908152604090208054819061280d906156f4565b80601f0160208091040260200160405190810160405280929190818152602001828054612839906156f4565b80156128865780601f1061285b57610100808354040283529160200191612886565b820191906000526020600020905b81548152906001019060200180831161286957829003601f168201915b50505060019093015491925050608081901b90600160801b900460f01b83565b6128ae6139ab565b80516020808301919091206001600160e01b03191660009081529081905260408120805463ffffffff19168155906128e96001830182614ee2565b50507f92d44565a40fe29702ffa146ddaa3bb133d4077f5312d682d0a2632a9bc73a8a8160405161165491906152e9565b601e546001600160a01b03163314612944576040516282b42960e81b815260040160405180910390fd5b60185481601b5461295591906156e1565b61295f91906156e1565b601b5550565b6001600160a01b0381166000908152600a602052604090206060906122f790613951565b606060078054806020026020016040519081016040528092919081815260200182805480156129e157602002820191906000526020600020905b81546001600160a01b031681526001909101906020018083116129c3575b5050505050905090565b60006122f760018361446a565b601e546001600160a01b03163314612a22576040516282b42960e81b815260040160405180910390fd5b601854601b6000828254612a3691906156e1565b9091555050565b612a456139ab565b6018548111612a675760405163160ac89160e31b815260040160405180910390fd5b601755565b3a600003612a8d57604051630e661aed60e41b815260040160405180910390fd5b6001600160a01b038216612ab45760405163d92e233d60e01b815260040160405180910390fd5b80600003612ad557604051633ca0029d60e01b815260040160405180910390fd5b6001600160a01b03821660008181526010602090815260408083203380855290835281842054858552601184528285205460148552838620838752855283862054968652601c9094529184205490949193861315612bdf57856000612b3a8988612647565b905080821115612b6757604051632de4882160e01b8152600481018290526024810183905260440161185f565b612b7182876156e1565b9550612b7d82866156e1565b9450612b898285615859565b9350612b958284615859565b925081601d6000828254612ba99190615859565b90915550506016546001600160a01b03808b166000908152601260209081526040808320938c168352929052205550612c359050565b6000612bea876159dd565b9050612bf68186615859565b9450612c028185615859565b9350612c0e81846156e1565b9250612c1a81836156e1565b915080601d6000828254612c2e91906156e1565b9091555050505b6001600160a01b038088166000818152601060209081526040808320948a1680845294825280832089905583835260118252808320889055601482528083208584528252808320879055838352601c90915290208390559003612d04578115801590612ca25750600d5482105b15612cda57604051636fe84f3d60e01b81526001600160a01b038089166004830152861660248201526044810187905260640161185f565b6000861315612cf95781600003612cf457612cf48761393c565b612d71565b612cf48760016138dc565b8115801590612d145750600e5482105b15612d4c57604051636fe84f3d60e01b81526001600160a01b038089166004830152861660248201526044810187905260640161185f565b6000861315612d675781600003612cf457612cf48786614057565b612d71878661448c565b612d7a876142be565b601654856001600160a01b0316886001600160a01b03167f80d5c777e5f7ac6ee89723223803ca5c0ec0204f89e99c1b0cde973c66a6459489604051612dc291815260200190565b60405180910390a450505050505050565b60408051808201909152600081526060602082015281516020808401919091206001600160e01b0319908116600090815280835260409081902081518083018352815460e01b9093168352600181018054835181870281018701909452808452939491938583019392830182828015612e6b57602002820191906000526020600020905b815481526020019060010190808311612e57575b5050505050815250509050919050565b6001600160e01b031980831660009081526020818152604080832081518083018352815460e01b909516855260018101805483518186028101860190945280845294958695909492938584019390929190830182828015612efb57602002820191906000526020600020905b815481526020019060010190808311612ee7575b5050505050815250509050806020015151600003612f1d5760009150506122f7565b60208101518151600090612f30906144b9565b905060005b825181101561303d5781838281518110612f5157612f516156cb565b602002602001015103613035576000808211612f875783600081518110612f7a57612f7a6156cb565b6020026020010151612fac565b83612f93600184615859565b81518110612fa357612fa36156cb565b60200260200101515b9050600060018551612fbe9190615859565b8310612ff0578460018651612fd39190615859565b81518110612fe357612fe36156cb565b6020026020010151613015565b84612ffc8460016156e1565b8151811061300c5761300c6156cb565b60200260200101515b90508188141580156130275750808814155b1596505050505050506122f7565b600101612f35565b5060009695505050505050565b6040805180820190915260008152606060208201526001600160e01b03198083166000908152602081815260409182902082518084018452815460e01b9094168452600181018054845181850281018501909552808552919385840193909290830182828015612e6b5760200282019190600052602060002090815481526020019060010190808311612e57575050505050815250509050919050565b60006018546017546019546130fc91906156e1565b6123119190615859565b6025546001600160a01b03163314613130576040516282b42960e81b815260040160405180910390fd5b601e546040516307b9342f60e21b81526001600160a01b0384811660048301526000921690631ee4d0bc90602401602060405180830381865afa15801561317b573d6000803e3d6000fd5b505050506040513d601f19601f8201168201806040525081019061319f91906158ff565b90506131ab8183614587565b505050565b3a6000036131d157604051630e661aed60e41b815260040160405180910390fd5b6131d9614631565b6001600160a01b0381166000908152601260209081526040808320338085529252909120546016541161323257604051630b06352b60e31b81526001600160a01b0380841660048301528216602482015260440161185f565b6001600160a01b0380831660009081526010602090815260408083209385168352929052908120549081900361327b57604051633ca0029d60e01b815260040160405180910390fd5b6001600160a01b0380841660008181526010602090815260408083209487168352938152838220829055918152601190915220546132ba908290615859565b6001600160a01b03808516600090815260116020908152604080832094909455601481528382209286168252919091529081205490036132fe576132fe838361467b565b61330882826140b9565b601654826001600160a01b0316846001600160a01b03167ff380b0bc887e00f5b50d3c9d4eaaf5c9a0afd97b956316b995159384c4ede9b38460405161335091815260200190565b60405180910390a45050611d8460017f9b779b17422d0df92223018b32b4d1fa46e071723d6817e2486d003becc55f0055565b601e60009054906101000a90046001600160a01b03166001600160a01b03166356b54bae6040518163ffffffff1660e01b8152600401602060405180830381865afa1580156133d6573d6000803e3d6000fd5b505050506040513d601f19601f820116820180604052508101906133fa91906158ff565b6001600160a01b0316336001600160a01b03161461342a576040516282b42960e81b815260040160405180910390fd5b60008281526021602090815260408083206001600160a01b038516845290915281205490036115d7576001600160a01b0381166000908152601c60205260408120549081900361347957505050565b60008381526021602090815260408083206001600160a01b038616808552908352818420949094556014825280832082528083205486845260228352818420948452939091529020555050565b60606123116005613951565b60606123116003613951565b3a6000036134ff57604051630e661aed60e41b815260040160405180910390fd5b601e546040516253517560e01b81523360048201819052916000916001600160a01b03909116906253517590602401602060405180830381865afa15801561354b573d6000803e3d6000fd5b505050506040513d601f19601f8201168201806040525081019061356f91906158ff565b905060165460001480156135ec5750601e5460405163facd743b60e01b81526001600160a01b0383811660048301529091169063facd743b90602401602060405180830381865afa1580156135c8573d6000803e3d6000fd5b505050506040513d601f19601f820116820180604052508101906135ec91906158a5565b15613615576040516303d71f2d60e51b81526001600160a01b038316600482015260240161185f565b6115d782613965565b601e546001600160a01b03163314613648576040516282b42960e81b815260040160405180910390fd5b60168054906000613658836159f9565b90915550506000601b55565b61366c6139ab565b6001600160a01b03811661369657604051631e4fbdf760e01b81526000600482015260240161185f565b611d84816143f9565b3a6000036136c057604051630e661aed60e41b815260040160405180910390fd5b6136c8614631565b336136d4838284613a06565b6136de81836140b9565b601654816001600160a01b0316846001600160a01b03167fa7c0f0cac6bd4d18042007706c84a8abe823751cf289b69c01e83eef7b5915c78560405161372691815260200190565b60405180910390a4506115d760017f9b779b17422d0df92223018b32b4d1fa46e071723d6817e2486d003becc55f0055565b60c0810135158061377257508061010001358160c0013511155b156137905760405163c671116b60e01b815260040160405180910390fd5b8061010001356000036137b6576040516332154b4760e01b815260040160405180910390fd5b60e081013515806137cf57508060c001358160e0013510155b156137ed57604051630685efe960e01b815260040160405180910390fd5b60006137fc6020830183615052565b6001600160a01b0316036138235760405163d92e233d60e01b815260040160405180910390fd5b6138306040820182615654565b905060000361385257604051635c9a24ed60e11b815260040160405180910390fd5b6060810135158061386557506080810135155b156138935760405163633373e160e11b8152608082013560048201526060820135602482015260440161185f565b80608001358160a0013511611d8457604051631c6d3b1560e01b815260040160405180910390fd5b6138c36143ab565b611d84816147d1565b6138d46143ab565b6124a76147d9565b6138e5826129eb565b613921576138f46001836147e1565b50610bb861390260016147f6565b11156139215760405163398dcd9d60e21b815260040160405180910390fd5b61392c600383614042565b5080156115d7576115d782614800565b6139476005826147e1565b50611d84816148f5565b6060600061395e83614b12565b9392505050565b613970600182614042565b5061397a81614004565b156139905761398a600382614042565b50613999565b61399981614b6d565b6139a2816148f5565b611d8481614b78565b336139dd7f9016d09d72d40fdae2fd8ceac6b6234c7706214fd39c1cd1e609a0528c199300546001600160a01b031690565b6001600160a01b0316146124a75760405163118cdaa760e01b815233600482015260240161185f565b6001600160a01b038316613a2d5760405163d92e233d60e01b815260040160405180910390fd5b80600003613a4e57604051633ca0029d60e01b815260040160405180910390fd5b6000613a5a8484612316565b905080821115613a8757604051632de4882160e01b8152600481018290526024810183905260440161185f565b6001600160a01b038085166000908152601460209081526040808320938716835292905290812054613aba908490615859565b90506000846001600160a01b0316866001600160a01b031614613adf57600e54613ae3565b600d545b90508115801590613af357508082105b15613b2b57604051639e612d5760e01b81526001600160a01b038088166004830152861660248201526044810185905260640161185f565b856001600160a01b0316856001600160a01b031614613bc057601e546040516253517560e01b81526001600160a01b03888116600483015260009216906253517590602401602060405180830381865afa158015613b8d573d6000803e3d6000fd5b505050506040513d601f19601f82011682018060405250810190613bb191906158ff565b9050613bbe878288614b83565b505b6001600160a01b038681166000818152601460209081526040808320948a16808452948252808320879055928252600c8152828220938252928352818120601654825290925290205484811015613c18576000613c22565b613c228582615859565b6001600160a01b038089166000818152600c60209081526040808320948c1683529381528382206016548352815283822094909455908152601c90925281208054879290613c71908490615859565b9250508190555084601d6000828254613c8a9190615859565b90915550506000839003613ca257613ca2878761467b565b613cab876142be565b50505050505050565b6001600160a01b038316613cdb5760405163d92e233d60e01b815260040160405180910390fd5b601e546040516253517560e01b81526001600160a01b03858116600483015260009216906253517590602401602060405180830381865afa158015613d24573d6000803e3d6000fd5b505050506040513d601f19601f82011682018060405250810190613d4891906158ff565b90506001600160a01b038116613d7c57604051632670461960e11b81526001600160a01b038516600482015260240161185f565b81600003613db05760405163e59f5c3960e01b81526001600160a01b0380861660048301528416602482015260440161185f565b6001600160a01b038416600090815260208052604090205460ff1615613df45760405163078137eb60e41b81526001600160a01b038516600482015260240161185f565b6001600160a01b038085166000818152601460209081526040808320948816808452949091528120549290911491613e2d9085906156e1565b905060008215613e405750600d54613e8f565b50600e546001600160a01b03871660009081526014602090815260408083209091528120549003613e8f5760405163cbbeb0bd60e01b81526001600160a01b038816600482015260240161185f565b80821015613ec35760405163e59f5c3960e01b81526001600160a01b0380891660048301528716602482015260440161185f565b600f546001600160a01b0388166000908152601c6020526040902054613eea9087906156e1565b1115613f1c57604051632c2b174160e21b81526001600160a01b0380891660048301528716602482015260440161185f565b6001600160a01b038088166000908152600c60209081526040808320938a168352928152828220601654835290529081208054879290613f5d9084906156e1565b90915550506001600160a01b0387166000908152601c602052604081208054879290613f8a9084906156e1565b9250508190555084601d6000828254613fa391906156e1565b90915550508215613fbe57613fb98760016138dc565b613fd3565b613fc8878761448c565b613fd3878588614b83565b6001600160a01b038088166000908152601460209081526040808320938a16835292905220829055613cab876142be565b6001600160a01b0381166000908152601c60205260408120541580156122f75750506001600160a01b03166000908152601160205260409020541590565b600061395e836001600160a01b038416614c9f565b6001600160a01b0382166000908152600a602052604090206140799082614042565b506001600160a01b03808316600090815260106020908152604080832093851683529290522054156140af576115d78282614d92565b6115d78282614db4565b804710156140da57604051631e9acf1760e31b815260040160405180910390fd5b6000826001600160a01b03168260405160006040518083038185875af1925050503d8060008114614127576040519150601f19603f3d011682016040523d82523d6000602084013e61412c565b606091505b50509050806131ab57604051630e21dcbb60e11b81526001600160a01b03841660048201526024810183905260440161185f565b600084158061416d575083155b1561417a575060006141a6565b6000861561419b578486850281614193576141936158c7565b0490506141a3565b506064828402045b90505b95945050505050565b6000836000036141c15750600061395e565b6001600160a01b0380841660009081526024602090815260408083209386168352929052205484900361422257506001600160a01b03808316600090815260236020908152604080832093851683529281528282208683529052205461395e565b506001600160a01b038083166000908152601460209081526040808320938516835292905220549392505050565b600084158061425d575083155b80614266575085155b15614273575060006142b4565b6000871561429457868685028161428c5761428c6158c7565b0490506142b1565b846064028360640387860202816142ad576142ad6158c7565b0490505b90505b9695505050505050565b601e546040516253517560e01b81526001600160a01b03838116600483015260009216906253517590602401602060405180830381865afa158015614307573d6000803e3d6000fd5b505050506040513d601f19601f8201168201806040525081019061432b91906158ff565b602554604051633941e77760e21b81526001600160a01b0380841660048301529293506000929091169063e5079ddc90602401602060405180830381865afa15801561437b573d6000803e3d6000fd5b505050506040513d601f19601f8201168201806040525081019061439f9190615a12565b90506131ab8382614587565b7ff0c57e16840df040f15088dc2f81fe391c3923bec73e23a9662efc9c229c6a005468010000000000000000900460ff166124a757604051631afcd79f60e31b815260040160405180910390fd5b7f9016d09d72d40fdae2fd8ceac6b6234c7706214fd39c1cd1e609a0528c19930080546001600160a01b031981166001600160a01b03848116918217845560405192169182907f8be0079c531659141344cd1fd0a4f28419497f9722a3daafe3b4186f6b6457e090600090a3505050565b6001600160a01b0381166000908152600183016020526040812054151561395e565b6001600160a01b0382166000908152600a602052604090206144ae90826147e1565b506115d78282614db4565b60408051600481526024810182526020810180517bffffffffffffffffffffffffffffffffffffffffffffffffffffffff166001600160e01b03198516179052905160009190829081903090614510908590615a2b565b600060405180830381855afa9150503d806000811461454b576040519150601f19603f3d011682016040523d82523d6000602084013e614550565b606091505b50915091508161457357604051635fbab09b60e11b815260040160405180910390fd5b808060200190518101906141a69190615a12565b60008061459384614dd6565b91509150816145a25750505050565b6000600882815481106145b7576145b76156cb565b60009182526020808320909101546001600160a01b0388168352601c90915260408220549092506145e99086906156b4565b905080600884815481106145ff576145ff6156cb565b9060005260206000200181905550808260095461461c9190615859565b61462691906156e1565b600955505050505050565b7f9b779b17422d0df92223018b32b4d1fa46e071723d6817e2486d003becc55f0080546001190161467557604051633ee5aeb560e01b815260040160405180910390fd5b60029055565b816001600160a01b0316816001600160a01b03160361478857601e546040516253517560e01b81526001600160a01b03848116600483015260009216906253517590602401602060405180830381865afa1580156146dd573d6000803e3d6000fd5b505050506040513d601f19601f8201168201806040525081019061470191906158ff565b601e5460405163facd743b60e01b81526001600160a01b03808416600483015292935091169063facd743b90602401602060405180830381865afa15801561474d573d6000803e3d6000fd5b505050506040513d601f19601f8201168201806040525081019061477191906158a5565b1561477f576131ab8361393c565b6131ab83613965565b6147928282614057565b61479b82614004565b156115d7576131ab600383614042565b60017f9b779b17422d0df92223018b32b4d1fa46e071723d6817e2486d003becc55f0055565b61366c6143ab565b6147ab6143ab565b600061395e836001600160a01b038416614e48565b60006122f7825490565b6001600160a01b038116600090815260136020526040902054600754808210158061485b5750826001600160a01b031660078381548110614843576148436156cb565b6000918252602090912001546001600160a01b031614155b156148ec576001600160a01b03831660008181526013602052604081208390556007805460018181019092557fa66cc928b5edb82af9bd49922954155ab7b0942694bea4ce44661d9a8736c6880180546001600160a01b03191690931790925560088054928301815581527ff3f7a9fe364faab93b216da50a3214154f22a0a2b415b23a84c8169e8b636ee3909101555b6131ab83614b78565b600854600754146149035750565b6001600160a01b0381166000908152601360205260409020546007548110801561495c5750816001600160a01b031660078281548110614945576149456156cb565b6000918252602090912001546001600160a01b0316145b156115d75760088181548110614974576149746156cb565b9060005260206000200154600954106149c1576008818154811061499a5761499a6156cb565b9060005260206000200154600960008282546149b69190615859565b909155506149c79050565b60006009555b6007546000906149d990600190615859565b90506000600782815481106149f0576149f06156cb565b600091825260209091200154600780546001600160a01b039092169250829185908110614a1f57614a1f6156cb565b9060005260206000200160006101000a8154816001600160a01b0302191690836001600160a01b0316021790555060088281548110614a6057614a606156cb565b906000526020600020015460088481548110614a7e57614a7e6156cb565b60009182526020808320909101929092556001600160a01b038084168252601390925260408082208690559186168152908120556007805480614ac357614ac3615a47565b600082815260209020810160001990810180546001600160a01b03191690550190556008805480614af657614af6615a47565b6001900381819060005260206000200160009055905550505050565b60608160000180548060200260200160405190810160405280929190818152602001828054801561219257602002820191906000526020600020905b815481526020019060010190808311614b4e5750505050509050919050565b6115d76003826147e1565b6115d7600582614042565b601e5460405163a0d16cad60e01b81526001600160a01b0384811660048301529091169063a0d16cad90602401602060405180830381865afa158015614bcd573d6000803e3d6000fd5b505050506040513d601f19601f82011682018060405250810190614bf191906158a5565b1580614bfd5750601654155b15614c0757505050565b6001600160a01b03808416600090815260246020908152604080832093851683529290522054601654811015614c99576001600160a01b0380851660008181526014602090815260408083209487168084529482528083205484845260238352818420868552835281842060168054865290845282852091909155549383526024825280832094835293905291909120555b50505050565b60008181526001830160205260408120548015614d88576000614cc3600183615859565b8554909150600090614cd790600190615859565b9050808214614d3c576000866000018281548110614cf757614cf76156cb565b9060005260206000200154905080876000018481548110614d1a57614d1a6156cb565b6000918252602080832090910192909255918252600188019052604090208390555b8554869080614d4d57614d4d615a47565b6001900381819060005260206000200160009055905585600101600086815260200190815260200160002060009055600193505050506122f7565b60009150506122f7565b6001600160a01b0382166000908152600b602052604090206131ab90826147e1565b6001600160a01b0382166000908152600b602052604090206131ab9082614042565b6001600160a01b03811660009081526013602052604081205460075481108015614e2f5750826001600160a01b031660078281548110614e1857614e186156cb565b6000918252602090912001546001600160a01b0316145b15614e3d5760019150915091565b506000928392509050565b6000818152600183016020526040812054614e8f575081546001818101845560008481526020808220909301849055845484825282860190935260409020919091556122f7565b5060006122f7565b828054828255906000526020600020908101928215614ed2579160200282015b82811115614ed2578251825591602001919060010190614eb7565b50614ede929150614efc565b5090565b5080546000825590600052602060002090810190611d8491905b5b80821115614ede5760008155600101614efd565b6001600160a01b0381168114611d8457600080fd5b60008083601f840112614f3857600080fd5b50813567ffffffffffffffff811115614f5057600080fd5b6020830191508360208260051b8501011115614f6b57600080fd5b9250929050565b60008060008060008060808789031215614f8b57600080fd5b8635614f9681614f11565b9550602087013567ffffffffffffffff80821115614fb357600080fd5b90880190610120828b031215614fc857600080fd5b90955060408801359080821115614fde57600080fd5b614fea8a838b01614f26565b9096509450606089013591508082111561500357600080fd5b5061501089828a01614f26565b979a9699509497509295939492505050565b6000806040838503121561503557600080fd5b82359150602083013561504781614f11565b809150509250929050565b60006020828403121561506457600080fd5b813561395e81614f11565b60006020828403121561508157600080fd5b5035919050565b60008060006060848603121561509d57600080fd5b83356150a881614f11565b925060208401356150b881614f11565b929592945050506040919091013590565b634e487b7160e01b600052604160045260246000fd5b604051601f8201601f1916810167ffffffffffffffff81118282101715615108576151086150c9565b604052919050565b600082601f83011261512157600080fd5b813567ffffffffffffffff81111561513b5761513b6150c9565b61514e601f8201601f19166020016150df565b81815284602083860101111561516357600080fd5b816020850160208301376000918101602001919091529392505050565b60008060006060848603121561519557600080fd5b833567ffffffffffffffff808211156151ad57600080fd5b6151b987838801615110565b94506020915081860135818111156151d057600080fd5b6151dc88828901615110565b9450506040860135818111156151f157600080fd5b8601601f8101881361520257600080fd5b803582811115615214576152146150c9565b8060051b92506152258484016150df565b818152928201840192848101908a85111561523f57600080fd5b928501925b8484101561525d57833582529285019290850190615244565b8096505050505050509250925092565b6000806040838503121561528057600080fd5b823561528b81614f11565b946020939093013593505050565b60005b838110156152b457818101518382015260200161529c565b50506000910152565b600081518084526152d5816020860160208601615299565b601f01601f19169290920160200192915050565b60208152600061395e60208301846152bd565b60008083601f84011261530e57600080fd5b50813567ffffffffffffffff81111561532657600080fd5b602083019150836020828501011115614f6b57600080fd5b80356fffffffffffffffffffffffffffffffff198116811461535f57600080fd5b919050565b6000806000806060858703121561537a57600080fd5b843561538581614f11565b9350602085013567ffffffffffffffff8111156153a157600080fd5b6153ad878288016152fc565b90945092506153c090506040860161533e565b905092959194509250565b6020808252825182820181905260009190848201906040850190845b8181101561540c5783516001600160a01b0316835292840192918401916001016153e7565b50909695505050505050565b6000806040838503121561542b57600080fd5b823561543681614f11565b9150602083013561504781614f11565b80356001600160f01b03198116811461535f57600080fd5b60008060006060848603121561547357600080fd5b833561547e81614f11565b925061548c6020850161533e565b915061549a60408501615446565b90509250925092565b600080600080606085870312156154b957600080fd5b843567ffffffffffffffff8111156154d057600080fd5b6154dc878288016152fc565b90955093506154ef90506020860161533e565b91506153c060408601615446565b80356001600160e01b03198116811461535f57600080fd5b60006020828403121561552757600080fd5b61395e826154fd565b60008151808452602080850194506020840160005b8381101561556157815187529582019590820190600101615545565b509495945050505050565b60408152600061557f6040830185615530565b90508260208301529392505050565b6060815260006155a160608301866152bd565b6fffffffffffffffffffffffffffffffff19949094166020830152506001600160f01b031991909116604090910152919050565b6000602082840312156155e757600080fd5b813567ffffffffffffffff8111156155fe57600080fd5b61278784828501615110565b602080825282516001600160e01b031916828201528201516040808301526000906127876060840182615530565b6000806040838503121561564b57600080fd5b61528b836154fd565b6000808335601e1984360301811261566b57600080fd5b83018035915067ffffffffffffffff82111561568657600080fd5b6020019150600581901b3603821315614f6b57600080fd5b634e487b7160e01b600052601160045260246000fd5b80820281158282048414176122f7576122f761569e565b634e487b7160e01b600052603260045260246000fd5b808201808211156122f7576122f761569e565b600181811c9082168061570857607f821691505b60208210810361572857634e487b7160e01b600052602260045260246000fd5b50919050565b601f8211156131ab576000816000526020600020601f850160051c810160208610156157575750805b601f850160051c820191505b8181101561577657828155600101615763565b505050505050565b815167ffffffffffffffff811115615798576157986150c9565b6157ac816157a684546156f4565b8461572e565b602080601f8311600181146157e157600084156157c95750858301515b600019600386901b1c1916600185901b178555615776565b600085815260208120601f198616915b82811015615810578886015182559484019460019091019084016157f1565b508582101561582e5787850151600019600388901b60f8161c191681555b5050505050600190811b01905550565b60006020828403121561585057600080fd5b61395e8261533e565b818103818111156122f7576122f761569e565b60608152600061587f60608301866152bd565b828103602084015261589181866152bd565b905082810360408401526142b48185615530565b6000602082840312156158b757600080fd5b8151801515811461395e57600080fd5b634e487b7160e01b600052601260045260246000fd5b6000826158fa57634e487b7160e01b600052601260045260246000fd5b500490565b60006020828403121561591157600080fd5b815161395e81614f11565b67ffffffffffffffff831115615934576159346150c9565b6159488361594283546156f4565b8361572e565b6000601f84116001811461597c57600085156159645750838201355b600019600387901b1c1916600186901b1783556159d6565b600083815260209020601f19861690835b828110156159ad578685013582556020948501946001909201910161598d565b50868210156159ca5760001960f88860031b161c19848701351681555b505060018560011b0183555b5050505050565b6000600160ff1b82016159f2576159f261569e565b5060000390565b600060018201615a0b57615a0b61569e565b5060010190565b600060208284031215615a2457600080fd5b5051919050565b60008251615a3d818460208701615299565b9190910192915050565b634e487b7160e01b600052603160045260246000fdfea2646970667358221220b64a1818f27e374003444d0143394d1239b2306c93b57303089aff600b2db0be64736f6c63430008190033",
  "linkReferences": {},
  "deployedLinkReferences": {}
}