{
  "_format": "hh-sol-artifact-1",
  "contractName": "StakingHbbft",
  "sourceName": "contracts/StakingHbbft.sol",
  "abi": [
    {
      "inputs": [],
      "stateMutability": "nonpayable",
      "type": "constructor"
    },
    {
      "inputs": [
        {
          "internalType": "address",
          "name": "pool",
          "type": "address"
        },
        {
          "internalType": "address",
          "name": "staker",
          "type": "address"
        }
      ],
      "name": "CannotClaimWithdrawOrderYet",
      "type": "error"
    },
    {
      "inputs": [],
      "name": "GetterCallFailed",
      "type": "error"
    },
    {
      "inputs": [],
      "name": "InitialStakingPoolsListEmpty",
      "type": "error"
    },
    {
      "inputs": [],
      "name": "InsufficientBalance",
      "type": "error"
    },
    {
      "inputs": [
        {
          "internalType": "address",
          "name": "pool",
          "type": "address"
        },
        {
          "internalType": "address",
          "name": "delegator",
          "type": "address"
        }
      ],
      "name": "InsufficientStakeAmount",
      "type": "error"
    },
    {
      "inputs": [],
      "name": "InvalidFixedEpochDuration",
      "type": "error"
    },
    {
      "inputs": [
        {
          "internalType": "uint256",
          "name": "candidateStake",
          "type": "uint256"
        },
        {
          "internalType": "uint256",
          "name": "delegatorStake",
          "type": "uint256"
        }
      ],
      "name": "InvalidInitialStakeAmount",
      "type": "error"
    },
    {
      "inputs": [],
      "name": "InvalidInitialization",
      "type": "error"
    },
    {
      "inputs": [],
      "name": "InvalidIpAddressesCount",
      "type": "error"
    },
    {
      "inputs": [],
      "name": "InvalidMaxStakeAmount",
      "type": "error"
    },
    {
      "inputs": [],
      "name": "InvalidMoveStakePoolsAddress",
      "type": "error"
    },
    {
      "inputs": [
        {
          "internalType": "address",
          "name": "_operator",
          "type": "address"
        },
        {
          "internalType": "uint256",
          "name": "_share",
          "type": "uint256"
        }
      ],
      "name": "InvalidNodeOperatorConfiguration",
      "type": "error"
    },
    {
      "inputs": [
        {
          "internalType": "uint256",
          "name": "_share",
          "type": "uint256"
        }
      ],
      "name": "InvalidNodeOperatorShare",
      "type": "error"
    },
    {
      "inputs": [
        {
          "internalType": "address",
          "name": "pool",
          "type": "address"
        },
        {
          "internalType": "address",
          "name": "delegator",
          "type": "address"
        },
        {
          "internalType": "int256",
          "name": "amount",
          "type": "int256"
        }
      ],
      "name": "InvalidOrderWithdrawAmount",
      "type": "error"
    },
    {
      "inputs": [],
      "name": "InvalidPointsValue",
      "type": "error"
    },
    {
      "inputs": [],
      "name": "InvalidPublicKey",
      "type": "error"
    },
    {
      "inputs": [],
      "name": "InvalidPublicKeyLength",
      "type": "error"
    },
    {
      "inputs": [],
      "name": "InvalidPublicKeysCount",
      "type": "error"
    },
    {
      "inputs": [],
      "name": "InvalidTransitionTimeFrame",
      "type": "error"
    },
    {
      "inputs": [
        {
          "internalType": "address",
          "name": "pool",
          "type": "address"
        },
        {
          "internalType": "address",
          "name": "delegator",
          "type": "address"
        },
        {
          "internalType": "uint256",
          "name": "amount",
          "type": "uint256"
        }
      ],
      "name": "InvalidWithdrawAmount",
      "type": "error"
    },
    {
      "inputs": [
        {
          "internalType": "uint256",
          "name": "allowed",
          "type": "uint256"
        },
        {
          "internalType": "uint256",
          "name": "desired",
          "type": "uint256"
        }
      ],
      "name": "MaxAllowedWithdrawExceeded",
      "type": "error"
    },
    {
      "inputs": [],
      "name": "MaxPoolsCountExceeded",
      "type": "error"
    },
    {
      "inputs": [],
      "name": "MiningAddressPublicKeyMismatch",
      "type": "error"
    },
    {
      "inputs": [
        {
          "internalType": "uint256",
          "name": "_newVal",
          "type": "uint256"
        }
      ],
      "name": "NewValueOutOfRange",
      "type": "error"
    },
    {
      "inputs": [],
      "name": "NoStakesToRecover",
      "type": "error"
    },
    {
      "inputs": [],
      "name": "NotInitializing",
      "type": "error"
    },
    {
      "inputs": [],
      "name": "NotPayable",
      "type": "error"
    },
    {
      "inputs": [
        {
          "internalType": "uint256",
          "name": "_epoch",
          "type": "uint256"
        }
      ],
      "name": "OnlyOncePerEpoch",
      "type": "error"
    },
    {
      "inputs": [
        {
          "internalType": "address",
          "name": "owner",
          "type": "address"
        }
      ],
      "name": "OwnableInvalidOwner",
      "type": "error"
    },
    {
      "inputs": [
        {
          "internalType": "address",
          "name": "account",
          "type": "address"
        }
      ],
      "name": "OwnableUnauthorizedAccount",
      "type": "error"
    },
    {
      "inputs": [
        {
          "internalType": "address",
          "name": "pool",
          "type": "address"
        }
      ],
      "name": "PoolAbandoned",
      "type": "error"
    },
    {
      "inputs": [
        {
          "internalType": "address",
          "name": "pool",
          "type": "address"
        }
      ],
      "name": "PoolCannotBeRemoved",
      "type": "error"
    },
    {
      "inputs": [
        {
          "internalType": "address",
          "name": "pool",
          "type": "address"
        }
      ],
      "name": "PoolEmpty",
      "type": "error"
    },
    {
      "inputs": [
        {
          "internalType": "address",
          "name": "pool",
          "type": "address"
        }
      ],
      "name": "PoolNotExist",
      "type": "error"
    },
    {
      "inputs": [
        {
          "internalType": "address",
          "name": "pool",
          "type": "address"
        },
        {
          "internalType": "address",
          "name": "delegator",
          "type": "address"
        }
      ],
      "name": "PoolStakeLimitExceeded",
      "type": "error"
    },
    {
      "inputs": [],
      "name": "ReentrancyGuardReentrantCall",
      "type": "error"
    },
    {
      "inputs": [
        {
          "internalType": "address",
          "name": "recipient",
          "type": "address"
        },
        {
          "internalType": "uint256",
          "name": "amount",
          "type": "uint256"
        }
      ],
      "name": "TransferFailed",
      "type": "error"
    },
    {
      "inputs": [],
      "name": "Unauthorized",
      "type": "error"
    },
    {
      "inputs": [],
      "name": "ZeroAddress",
      "type": "error"
    },
    {
      "inputs": [],
      "name": "ZeroGasPrice",
      "type": "error"
    },
    {
      "inputs": [],
      "name": "ZeroWidthrawAmount",
      "type": "error"
    },
    {
      "anonymous": false,
      "inputs": [
        {
          "indexed": true,
          "internalType": "address",
          "name": "fromPoolStakingAddress",
          "type": "address"
        },
        {
          "indexed": true,
          "internalType": "address",
          "name": "staker",
          "type": "address"
        },
        {
          "indexed": true,
          "internalType": "uint256",
          "name": "stakingEpoch",
          "type": "uint256"
        },
        {
          "indexed": false,
          "internalType": "uint256",
          "name": "amount",
          "type": "uint256"
        }
      ],
      "name": "ClaimedOrderedWithdrawal",
      "type": "event"
    },
    {
      "anonymous": false,
      "inputs": [
        {
          "indexed": true,
          "internalType": "address",
          "name": "caller",
          "type": "address"
        },
        {
          "indexed": true,
          "internalType": "address",
          "name": "stakingAddress",
          "type": "address"
        },
        {
          "indexed": false,
          "internalType": "uint256",
          "name": "gatheredFunds",
          "type": "uint256"
        }
      ],
      "name": "GatherAbandonedStakes",
      "type": "event"
    },
    {
      "anonymous": false,
      "inputs": [
        {
          "indexed": false,
          "internalType": "uint64",
          "name": "version",
          "type": "uint64"
        }
      ],
      "name": "Initialized",
      "type": "event"
    },
    {
      "anonymous": false,
      "inputs": [
        {
          "indexed": false,
          "internalType": "address",
          "name": "fromPoolStakingAddress",
          "type": "address"
        },
        {
          "indexed": true,
          "internalType": "address",
          "name": "toPoolStakingAddress",
          "type": "address"
        },
        {
          "indexed": true,
          "internalType": "address",
          "name": "staker",
          "type": "address"
        },
        {
          "indexed": true,
          "internalType": "uint256",
          "name": "stakingEpoch",
          "type": "uint256"
        },
        {
          "indexed": false,
          "internalType": "uint256",
          "name": "amount",
          "type": "uint256"
        }
      ],
      "name": "MovedStake",
      "type": "event"
    },
    {
      "anonymous": false,
      "inputs": [
        {
          "indexed": true,
          "internalType": "address",
          "name": "fromPoolStakingAddress",
          "type": "address"
        },
        {
          "indexed": true,
          "internalType": "address",
          "name": "staker",
          "type": "address"
        },
        {
          "indexed": true,
          "internalType": "uint256",
          "name": "stakingEpoch",
          "type": "uint256"
        },
        {
          "indexed": false,
          "internalType": "int256",
          "name": "amount",
          "type": "int256"
        }
      ],
      "name": "OrderedWithdrawal",
      "type": "event"
    },
    {
      "anonymous": false,
      "inputs": [
        {
          "indexed": true,
          "internalType": "address",
          "name": "previousOwner",
          "type": "address"
        },
        {
          "indexed": true,
          "internalType": "address",
          "name": "newOwner",
          "type": "address"
        }
      ],
      "name": "OwnershipTransferred",
      "type": "event"
    },
    {
      "anonymous": false,
      "inputs": [
        {
          "indexed": true,
          "internalType": "address",
          "name": "toPoolStakingAddress",
          "type": "address"
        },
        {
          "indexed": true,
          "internalType": "address",
          "name": "staker",
          "type": "address"
        },
        {
          "indexed": true,
          "internalType": "uint256",
          "name": "stakingEpoch",
          "type": "uint256"
        },
        {
          "indexed": false,
          "internalType": "uint256",
          "name": "amount",
          "type": "uint256"
        }
      ],
      "name": "PlacedStake",
      "type": "event"
    },
    {
      "anonymous": false,
      "inputs": [
        {
          "indexed": true,
          "internalType": "address",
          "name": "caller",
          "type": "address"
        },
        {
          "indexed": false,
          "internalType": "uint256",
          "name": "reinsertShare",
          "type": "uint256"
        },
        {
          "indexed": false,
          "internalType": "uint256",
          "name": "governanceShare",
          "type": "uint256"
        }
      ],
      "name": "RecoverAbandonedStakes",
      "type": "event"
    },
    {
      "anonymous": false,
      "inputs": [
        {
          "indexed": false,
          "internalType": "bytes4",
          "name": "funcSelector",
          "type": "bytes4"
        }
      ],
      "name": "RemoveChangeableParameter",
      "type": "event"
    },
    {
      "anonymous": false,
      "inputs": [
        {
          "indexed": true,
          "internalType": "address",
          "name": "poolStakingAddress",
          "type": "address"
        },
        {
          "indexed": true,
          "internalType": "uint256",
          "name": "stakingEpoch",
          "type": "uint256"
        },
        {
          "indexed": false,
          "internalType": "uint256",
          "name": "validatorReward",
          "type": "uint256"
        },
        {
          "indexed": false,
          "internalType": "uint256",
          "name": "delegatorsReward",
          "type": "uint256"
        }
      ],
      "name": "RestakeReward",
      "type": "event"
    },
    {
      "anonymous": false,
      "inputs": [
        {
          "indexed": false,
          "internalType": "bytes4",
          "name": "setter",
          "type": "bytes4"
        },
        {
          "indexed": false,
          "internalType": "bytes4",
          "name": "getter",
          "type": "bytes4"
        },
        {
          "indexed": false,
          "internalType": "uint256[]",
          "name": "params",
          "type": "uint256[]"
        }
      ],
      "name": "SetChangeableParameter",
      "type": "event"
    },
    {
      "anonymous": false,
      "inputs": [
        {
          "indexed": false,
          "internalType": "uint256",
          "name": "minStake",
          "type": "uint256"
        }
      ],
      "name": "SetDelegatorMinStake",
      "type": "event"
    },
    {
      "anonymous": false,
      "inputs": [
        {
          "indexed": true,
          "internalType": "address",
          "name": "poolStakingAddress",
          "type": "address"
        },
        {
          "indexed": true,
          "internalType": "address",
          "name": "nodeOperatorAddress",
          "type": "address"
        },
        {
          "indexed": false,
          "internalType": "uint256",
          "name": "operatorShare",
          "type": "uint256"
        }
      ],
      "name": "SetNodeOperator",
      "type": "event"
    },
    {
      "anonymous": false,
      "inputs": [
        {
          "indexed": true,
          "internalType": "address",
          "name": "fromPoolStakingAddress",
          "type": "address"
        },
        {
          "indexed": true,
          "internalType": "address",
          "name": "staker",
          "type": "address"
        },
        {
          "indexed": true,
          "internalType": "uint256",
          "name": "stakingEpoch",
          "type": "uint256"
        },
        {
          "indexed": false,
          "internalType": "uint256",
          "name": "amount",
          "type": "uint256"
        }
      ],
      "name": "WithdrewStake",
      "type": "event"
    },
    {
      "inputs": [],
      "name": "MAX_CANDIDATES",
      "outputs": [
        {
          "internalType": "uint256",
          "name": "",
          "type": "uint256"
        }
      ],
      "stateMutability": "view",
      "type": "function"
    },
    {
      "inputs": [],
      "name": "MAX_NODE_OPERATOR_SHARE_PERCENT",
      "outputs": [
        {
          "internalType": "uint256",
          "name": "",
          "type": "uint256"
        }
      ],
      "stateMutability": "view",
      "type": "function"
    },
    {
      "inputs": [],
      "name": "PERCENT_DENOMINATOR",
      "outputs": [
        {
          "internalType": "uint256",
          "name": "",
          "type": "uint256"
        }
      ],
      "stateMutability": "view",
      "type": "function"
    },
    {
      "inputs": [
        {
          "internalType": "address",
          "name": "",
          "type": "address"
        }
      ],
      "name": "abandonedAndRemoved",
      "outputs": [
        {
          "internalType": "bool",
          "name": "",
          "type": "bool"
        }
      ],
      "stateMutability": "view",
      "type": "function"
    },
    {
      "inputs": [],
      "name": "actualEpochEndTime",
      "outputs": [
        {
          "internalType": "uint256",
          "name": "",
          "type": "uint256"
        }
      ],
      "stateMutability": "view",
      "type": "function"
    },
    {
      "inputs": [
        {
          "internalType": "address",
          "name": "_miningAddress",
          "type": "address"
        },
        {
          "internalType": "address",
          "name": "_nodeOperatorAddress",
          "type": "address"
        },
        {
          "internalType": "uint256",
          "name": "_operatorShare",
          "type": "uint256"
        },
        {
          "internalType": "bytes",
          "name": "_publicKey",
          "type": "bytes"
        },
        {
          "internalType": "bytes16",
          "name": "_ip",
          "type": "bytes16"
        }
      ],
      "name": "addPool",
      "outputs": [],
      "stateMutability": "payable",
      "type": "function"
    },
    {
      "inputs": [],
      "name": "bonusScoreContract",
      "outputs": [
        {
          "internalType": "contract IBonusScoreSystem",
          "name": "",
          "type": "address"
        }
      ],
      "stateMutability": "view",
      "type": "function"
    },
    {
      "inputs": [],
      "name": "candidateMinStake",
      "outputs": [
        {
          "internalType": "uint256",
          "name": "",
          "type": "uint256"
        }
      ],
      "stateMutability": "view",
      "type": "function"
    },
    {
      "inputs": [
        {
          "internalType": "address",
          "name": "_poolStakingAddress",
          "type": "address"
        }
      ],
      "name": "claimOrderedWithdraw",
      "outputs": [],
      "stateMutability": "nonpayable",
      "type": "function"
    },
    {
      "inputs": [],
      "name": "currentKeyGenExtraTimeWindow",
      "outputs": [
        {
          "internalType": "uint256",
          "name": "",
          "type": "uint256"
        }
      ],
      "stateMutability": "view",
      "type": "function"
    },
    {
      "inputs": [],
      "name": "delegatorMinStake",
      "outputs": [
        {
          "internalType": "uint256",
          "name": "",
          "type": "uint256"
        }
      ],
      "stateMutability": "view",
      "type": "function"
    },
    {
      "inputs": [],
      "name": "earlyEpochEndTime",
      "outputs": [
        {
          "internalType": "uint256",
          "name": "",
          "type": "uint256"
        }
      ],
      "stateMutability": "view",
      "type": "function"
    },
    {
      "inputs": [],
      "name": "earlyEpochEndTriggerTime",
      "outputs": [
        {
          "internalType": "uint256",
          "name": "",
          "type": "uint256"
        }
      ],
      "stateMutability": "view",
      "type": "function"
    },
    {
      "inputs": [
        {
          "internalType": "string",
          "name": "_selector",
          "type": "string"
        }
      ],
      "name": "getAllowedParamsRange",
      "outputs": [
        {
          "components": [
            {
              "internalType": "bytes4",
              "name": "getter",
              "type": "bytes4"
            },
            {
              "internalType": "uint256[]",
              "name": "range",
              "type": "uint256[]"
            }
          ],
          "internalType": "struct ValueGuards.ParameterRange",
          "name": "",
          "type": "tuple"
        }
      ],
      "stateMutability": "view",
      "type": "function"
    },
    {
      "inputs": [
        {
          "internalType": "bytes4",
          "name": "_selector",
          "type": "bytes4"
        }
      ],
      "name": "getAllowedParamsRangeWithSelector",
      "outputs": [
        {
          "components": [
            {
              "internalType": "bytes4",
              "name": "getter",
              "type": "bytes4"
            },
            {
              "internalType": "uint256[]",
              "name": "range",
              "type": "uint256[]"
            }
          ],
          "internalType": "struct ValueGuards.ParameterRange",
          "name": "",
          "type": "tuple"
        }
      ],
      "stateMutability": "view",
      "type": "function"
    },
    {
      "inputs": [
        {
          "internalType": "address",
          "name": "_poolAddress",
          "type": "address"
        }
      ],
      "name": "getPoolInternetAddress",
      "outputs": [
        {
          "internalType": "bytes16",
          "name": "",
          "type": "bytes16"
        },
        {
          "internalType": "bytes2",
          "name": "",
          "type": "bytes2"
        }
      ],
      "stateMutability": "view",
      "type": "function"
    },
    {
      "inputs": [
        {
          "internalType": "address",
          "name": "_poolAddress",
          "type": "address"
        }
      ],
      "name": "getPoolPublicKey",
      "outputs": [
        {
          "internalType": "bytes",
          "name": "",
          "type": "bytes"
        }
      ],
      "stateMutability": "view",
      "type": "function"
    },
    {
      "inputs": [
        {
          "internalType": "uint256",
          "name": "_epoch",
          "type": "uint256"
        },
        {
          "internalType": "address",
          "name": "_stakingPool",
          "type": "address"
        }
      ],
      "name": "getPoolValidatorStakeAmount",
      "outputs": [
        {
          "internalType": "uint256",
          "name": "",
          "type": "uint256"
        }
      ],
      "stateMutability": "view",
      "type": "function"
    },
    {
      "inputs": [],
      "name": "getPools",
      "outputs": [
        {
          "internalType": "address[]",
          "name": "",
          "type": "address[]"
        }
      ],
      "stateMutability": "view",
      "type": "function"
    },
    {
      "inputs": [],
      "name": "getPoolsInactive",
      "outputs": [
        {
          "internalType": "address[]",
          "name": "",
          "type": "address[]"
        }
      ],
      "stateMutability": "view",
      "type": "function"
    },
    {
      "inputs": [],
      "name": "getPoolsLikelihood",
      "outputs": [
        {
          "internalType": "uint256[]",
          "name": "likelihoods",
          "type": "uint256[]"
        },
        {
          "internalType": "uint256",
          "name": "sum",
          "type": "uint256"
        }
      ],
      "stateMutability": "view",
      "type": "function"
    },
    {
      "inputs": [],
      "name": "getPoolsToBeElected",
      "outputs": [
        {
          "internalType": "address[]",
          "name": "",
          "type": "address[]"
        }
      ],
      "stateMutability": "view",
      "type": "function"
    },
    {
      "inputs": [],
      "name": "getPoolsToBeRemoved",
      "outputs": [
        {
          "internalType": "address[]",
          "name": "",
          "type": "address[]"
        }
      ],
      "stateMutability": "view",
      "type": "function"
    },
    {
      "inputs": [],
      "name": "incrementStakingEpoch",
      "outputs": [],
      "stateMutability": "nonpayable",
      "type": "function"
    },
    {
      "inputs": [
        {
          "internalType": "address",
          "name": "_contractOwner",
          "type": "address"
        },
        {
          "components": [
            {
              "internalType": "address",
              "name": "_validatorSetContract",
              "type": "address"
            },
            {
              "internalType": "address",
              "name": "_bonusScoreContract",
              "type": "address"
            },
            {
              "internalType": "address[]",
              "name": "_initialStakingAddresses",
              "type": "address[]"
            },
            {
              "internalType": "uint256",
              "name": "_delegatorMinStake",
              "type": "uint256"
            },
            {
              "internalType": "uint256",
              "name": "_candidateMinStake",
              "type": "uint256"
            },
            {
              "internalType": "uint256",
              "name": "_maxStake",
              "type": "uint256"
            },
            {
              "internalType": "uint256",
              "name": "_stakingFixedEpochDuration",
              "type": "uint256"
            },
            {
              "internalType": "uint256",
              "name": "_stakingTransitionTimeframeLength",
              "type": "uint256"
            },
            {
              "internalType": "uint256",
              "name": "_stakingWithdrawDisallowPeriod",
              "type": "uint256"
            }
          ],
          "internalType": "struct IStakingHbbft.StakingParams",
          "name": "stakingParams",
          "type": "tuple"
        },
        {
          "internalType": "bytes32[]",
          "name": "_publicKeys",
          "type": "bytes32[]"
        },
        {
          "internalType": "bytes16[]",
          "name": "_internetAddresses",
          "type": "bytes16[]"
        }
      ],
      "name": "initialize",
      "outputs": [],
      "stateMutability": "nonpayable",
      "type": "function"
    },
    {
      "inputs": [
        {
          "internalType": "address",
          "name": "_stakingAddress",
          "type": "address"
        }
      ],
      "name": "isPoolActive",
      "outputs": [
        {
          "internalType": "bool",
          "name": "",
          "type": "bool"
        }
      ],
      "stateMutability": "view",
      "type": "function"
    },
    {
      "inputs": [
        {
          "internalType": "address",
          "name": "_stakingAddress",
          "type": "address"
        }
      ],
      "name": "isPoolValid",
      "outputs": [
        {
          "internalType": "bool",
          "name": "",
          "type": "bool"
        }
      ],
      "stateMutability": "view",
      "type": "function"
    },
    {
      "inputs": [
        {
          "internalType": "bytes4",
          "name": "funcSelector",
          "type": "bytes4"
        },
        {
          "internalType": "uint256",
          "name": "newVal",
          "type": "uint256"
        }
      ],
      "name": "isWithinAllowedRange",
      "outputs": [
        {
          "internalType": "bool",
          "name": "",
          "type": "bool"
        }
      ],
      "stateMutability": "view",
      "type": "function"
    },
    {
      "inputs": [],
      "name": "maxStakeAmount",
      "outputs": [
        {
          "internalType": "uint256",
          "name": "",
          "type": "uint256"
        }
      ],
      "stateMutability": "view",
      "type": "function"
    },
    {
      "inputs": [
        {
          "internalType": "address",
          "name": "_poolStakingAddress",
          "type": "address"
        },
        {
          "internalType": "address",
          "name": "_staker",
          "type": "address"
        }
      ],
      "name": "maxWithdrawAllowed",
      "outputs": [
        {
          "internalType": "uint256",
          "name": "",
          "type": "uint256"
        }
      ],
      "stateMutability": "view",
      "type": "function"
    },
    {
      "inputs": [
        {
          "internalType": "address",
          "name": "_poolStakingAddress",
          "type": "address"
        },
        {
          "internalType": "address",
          "name": "_staker",
          "type": "address"
        }
      ],
      "name": "maxWithdrawOrderAllowed",
      "outputs": [
        {
          "internalType": "uint256",
          "name": "",
          "type": "uint256"
        }
      ],
      "stateMutability": "view",
      "type": "function"
    },
    {
      "inputs": [
        {
          "internalType": "address",
          "name": "_fromPoolStakingAddress",
          "type": "address"
        },
        {
          "internalType": "address",
          "name": "_toPoolStakingAddress",
          "type": "address"
        },
        {
          "internalType": "uint256",
          "name": "_amount",
          "type": "uint256"
        }
      ],
      "name": "moveStake",
      "outputs": [],
      "stateMutability": "nonpayable",
      "type": "function"
    },
    {
      "inputs": [
        {
          "internalType": "address",
          "name": "_stakingAddress",
          "type": "address"
        }
      ],
      "name": "notifyAvailability",
      "outputs": [],
      "stateMutability": "nonpayable",
      "type": "function"
    },
    {
      "inputs": [
        {
          "internalType": "uint256",
          "name": "timestamp",
          "type": "uint256"
        }
      ],
      "name": "notifyEarlyEpochEnd",
      "outputs": [],
      "stateMutability": "nonpayable",
      "type": "function"
    },
    {
      "inputs": [],
      "name": "notifyKeyGenFailed",
      "outputs": [],
      "stateMutability": "nonpayable",
      "type": "function"
    },
    {
      "inputs": [
        {
          "internalType": "uint256",
          "name": "detectedOfflineTime",
          "type": "uint256"
        }
      ],
      "name": "notifyNetworkOfftimeDetected",
      "outputs": [],
      "stateMutability": "nonpayable",
      "type": "function"
    },
    {
      "inputs": [
        {
          "internalType": "address",
          "name": "_poolStakingAddress",
          "type": "address"
        },
        {
          "internalType": "int256",
          "name": "_amount",
          "type": "int256"
        }
      ],
      "name": "orderWithdraw",
      "outputs": [],
      "stateMutability": "nonpayable",
      "type": "function"
    },
    {
      "inputs": [
        {
          "internalType": "address",
          "name": "",
          "type": "address"
        },
        {
          "internalType": "address",
          "name": "",
          "type": "address"
        }
      ],
      "name": "orderWithdrawEpoch",
      "outputs": [
        {
          "internalType": "uint256",
          "name": "",
          "type": "uint256"
        }
      ],
      "stateMutability": "view",
      "type": "function"
    },
    {
      "inputs": [
        {
          "internalType": "address",
          "name": "",
          "type": "address"
        },
        {
          "internalType": "address",
          "name": "",
          "type": "address"
        }
      ],
      "name": "orderedWithdrawAmount",
      "outputs": [
        {
          "internalType": "uint256",
          "name": "",
          "type": "uint256"
        }
      ],
      "stateMutability": "view",
      "type": "function"
    },
    {
      "inputs": [
        {
          "internalType": "address",
          "name": "",
          "type": "address"
        }
      ],
      "name": "orderedWithdrawAmountTotal",
      "outputs": [
        {
          "internalType": "uint256",
          "name": "",
          "type": "uint256"
        }
      ],
      "stateMutability": "view",
      "type": "function"
    },
    {
      "inputs": [],
      "name": "owner",
      "outputs": [
        {
          "internalType": "address",
          "name": "",
          "type": "address"
        }
      ],
      "stateMutability": "view",
      "type": "function"
    },
    {
      "inputs": [
        {
          "internalType": "address",
          "name": "_poolStakingAddress",
          "type": "address"
        }
      ],
      "name": "poolDelegators",
      "outputs": [
        {
          "internalType": "address[]",
          "name": "",
          "type": "address[]"
        }
      ],
      "stateMutability": "view",
      "type": "function"
    },
    {
      "inputs": [
        {
          "internalType": "address",
          "name": "_poolStakingAddress",
          "type": "address"
        }
      ],
      "name": "poolDelegatorsInactive",
      "outputs": [
        {
          "internalType": "address[]",
          "name": "",
          "type": "address[]"
        }
      ],
      "stateMutability": "view",
      "type": "function"
    },
    {
      "inputs": [
        {
          "internalType": "address",
          "name": "",
          "type": "address"
        }
      ],
      "name": "poolInfo",
      "outputs": [
        {
          "internalType": "bytes",
          "name": "publicKey",
          "type": "bytes"
        },
        {
          "internalType": "bytes16",
          "name": "internetAddress",
          "type": "bytes16"
        },
        {
          "internalType": "bytes2",
          "name": "port",
          "type": "bytes2"
        }
      ],
      "stateMutability": "view",
      "type": "function"
    },
    {
      "inputs": [
        {
          "internalType": "address",
          "name": "",
          "type": "address"
        }
      ],
      "name": "poolNodeOperator",
      "outputs": [
        {
          "internalType": "address",
          "name": "",
          "type": "address"
        }
      ],
      "stateMutability": "view",
      "type": "function"
    },
    {
      "inputs": [
        {
          "internalType": "address",
          "name": "",
          "type": "address"
        }
      ],
      "name": "poolNodeOperatorLastChangeEpoch",
      "outputs": [
        {
          "internalType": "uint256",
          "name": "",
          "type": "uint256"
        }
      ],
      "stateMutability": "view",
      "type": "function"
    },
    {
      "inputs": [
        {
          "internalType": "address",
          "name": "",
          "type": "address"
        }
      ],
      "name": "poolNodeOperatorShare",
      "outputs": [
        {
          "internalType": "uint256",
          "name": "",
          "type": "uint256"
        }
      ],
      "stateMutability": "view",
      "type": "function"
    },
    {
      "inputs": [
        {
          "internalType": "address",
          "name": "",
          "type": "address"
        }
      ],
      "name": "poolToBeElectedIndex",
      "outputs": [
        {
          "internalType": "uint256",
          "name": "",
          "type": "uint256"
        }
      ],
      "stateMutability": "view",
      "type": "function"
    },
    {
      "inputs": [],
      "name": "recoverAbandonedStakes",
      "outputs": [],
      "stateMutability": "nonpayable",
      "type": "function"
    },
    {
      "inputs": [
        {
          "internalType": "bytes4",
          "name": "funcSelector",
          "type": "bytes4"
        }
      ],
      "name": "removeAllowedChangeableParameter",
      "outputs": [],
      "stateMutability": "nonpayable",
      "type": "function"
    },
    {
      "inputs": [],
      "name": "removeMyPool",
      "outputs": [],
      "stateMutability": "nonpayable",
      "type": "function"
    },
    {
      "inputs": [
        {
          "internalType": "address",
          "name": "_stakingAddress",
          "type": "address"
        }
      ],
      "name": "removePool",
      "outputs": [],
      "stateMutability": "nonpayable",
      "type": "function"
    },
    {
      "inputs": [],
      "name": "removePools",
      "outputs": [],
      "stateMutability": "nonpayable",
      "type": "function"
    },
    {
      "inputs": [],
      "name": "renounceOwnership",
      "outputs": [],
      "stateMutability": "nonpayable",
      "type": "function"
    },
    {
      "inputs": [
        {
          "internalType": "address",
          "name": "_poolStakingAddress",
          "type": "address"
        },
        {
          "internalType": "uint256",
          "name": "_validatorMinRewardPercent",
          "type": "uint256"
        }
      ],
      "name": "restake",
      "outputs": [],
      "stateMutability": "payable",
      "type": "function"
    },
    {
      "inputs": [
        {
          "internalType": "bytes4",
          "name": "setter",
          "type": "bytes4"
        },
        {
          "internalType": "bytes4",
          "name": "getter",
          "type": "bytes4"
        },
        {
          "internalType": "uint256[]",
          "name": "params",
          "type": "uint256[]"
        }
      ],
      "name": "setAllowedChangeableParameter",
      "outputs": [],
      "stateMutability": "nonpayable",
      "type": "function"
    },
    {
      "inputs": [
        {
          "internalType": "uint256",
          "name": "_minStake",
          "type": "uint256"
        }
      ],
      "name": "setDelegatorMinStake",
      "outputs": [],
      "stateMutability": "nonpayable",
      "type": "function"
    },
    {
      "inputs": [
        {
          "internalType": "address",
          "name": "_operatorAddress",
          "type": "address"
        },
        {
          "internalType": "uint256",
          "name": "_operatorShare",
          "type": "uint256"
        }
      ],
      "name": "setNodeOperator",
      "outputs": [],
      "stateMutability": "nonpayable",
      "type": "function"
    },
    {
      "inputs": [
        {
          "internalType": "bytes",
          "name": "_publicKey",
          "type": "bytes"
        },
        {
          "internalType": "bytes16",
          "name": "_ip",
          "type": "bytes16"
        },
        {
          "internalType": "bytes2",
          "name": "_port",
          "type": "bytes2"
        }
      ],
      "name": "setPoolInfo",
      "outputs": [],
      "stateMutability": "nonpayable",
      "type": "function"
    },
    {
      "inputs": [
        {
          "internalType": "uint256",
          "name": "_timestamp",
          "type": "uint256"
        }
      ],
      "name": "setStakingEpochStartTime",
      "outputs": [],
      "stateMutability": "nonpayable",
      "type": "function"
    },
    {
      "inputs": [
        {
          "internalType": "address",
          "name": "_validatorAddress",
          "type": "address"
        },
        {
          "internalType": "bytes16",
          "name": "_ip",
          "type": "bytes16"
        },
        {
          "internalType": "bytes2",
          "name": "_port",
          "type": "bytes2"
        }
      ],
      "name": "setValidatorInternetAddress",
      "outputs": [],
      "stateMutability": "nonpayable",
      "type": "function"
    },
    {
      "inputs": [
        {
          "internalType": "uint256",
          "name": "_epoch",
          "type": "uint256"
        },
        {
          "internalType": "address",
          "name": "_stakingPool",
          "type": "address"
        }
      ],
      "name": "snapshotPoolStakeAmounts",
      "outputs": [],
      "stateMutability": "nonpayable",
      "type": "function"
    },
    {
      "inputs": [
        {
          "internalType": "uint256",
          "name": "",
          "type": "uint256"
        },
        {
          "internalType": "address",
          "name": "",
          "type": "address"
        }
      ],
      "name": "snapshotPoolTotalStakeAmount",
      "outputs": [
        {
          "internalType": "uint256",
          "name": "",
          "type": "uint256"
        }
      ],
      "stateMutability": "view",
      "type": "function"
    },
    {
      "inputs": [
        {
          "internalType": "uint256",
          "name": "",
          "type": "uint256"
        },
        {
          "internalType": "address",
          "name": "",
          "type": "address"
        }
      ],
      "name": "snapshotPoolValidatorStakeAmount",
      "outputs": [
        {
          "internalType": "uint256",
          "name": "",
          "type": "uint256"
        }
      ],
      "stateMutability": "view",
      "type": "function"
    },
    {
      "inputs": [
        {
          "internalType": "address",
          "name": "_toPoolStakingAddress",
          "type": "address"
        }
      ],
      "name": "stake",
      "outputs": [],
      "stateMutability": "payable",
      "type": "function"
    },
    {
      "inputs": [
        {
          "internalType": "address",
          "name": "",
          "type": "address"
        },
        {
          "internalType": "address",
          "name": "",
          "type": "address"
        }
      ],
      "name": "stakeAmount",
      "outputs": [
        {
          "internalType": "uint256",
          "name": "",
          "type": "uint256"
        }
      ],
      "stateMutability": "view",
      "type": "function"
    },
    {
      "inputs": [
        {
          "internalType": "address",
          "name": "_poolStakingAddress",
          "type": "address"
        },
        {
          "internalType": "address",
          "name": "_staker",
          "type": "address"
        }
      ],
      "name": "stakeAmountByCurrentEpoch",
      "outputs": [
        {
          "internalType": "uint256",
          "name": "",
          "type": "uint256"
        }
      ],
      "stateMutability": "view",
      "type": "function"
    },
    {
      "inputs": [
        {
          "internalType": "address",
          "name": "",
          "type": "address"
        }
      ],
      "name": "stakeAmountTotal",
      "outputs": [
        {
          "internalType": "uint256",
          "name": "",
          "type": "uint256"
        }
      ],
      "stateMutability": "view",
      "type": "function"
    },
    {
      "inputs": [],
      "name": "stakingEpoch",
      "outputs": [
        {
          "internalType": "uint256",
          "name": "",
          "type": "uint256"
        }
      ],
      "stateMutability": "view",
      "type": "function"
    },
    {
      "inputs": [],
      "name": "stakingEpochStartBlock",
      "outputs": [
        {
          "internalType": "uint256",
          "name": "",
          "type": "uint256"
        }
      ],
      "stateMutability": "view",
      "type": "function"
    },
    {
      "inputs": [],
      "name": "stakingEpochStartTime",
      "outputs": [
        {
          "internalType": "uint256",
          "name": "",
          "type": "uint256"
        }
      ],
      "stateMutability": "view",
      "type": "function"
    },
    {
      "inputs": [],
      "name": "stakingFixedEpochDuration",
      "outputs": [
        {
          "internalType": "uint256",
          "name": "",
          "type": "uint256"
        }
      ],
      "stateMutability": "view",
      "type": "function"
    },
    {
      "inputs": [],
      "name": "stakingFixedEpochEndTime",
      "outputs": [
        {
          "internalType": "uint256",
          "name": "",
          "type": "uint256"
        }
      ],
      "stateMutability": "view",
      "type": "function"
    },
    {
      "inputs": [],
      "name": "stakingTransitionTimeframeLength",
      "outputs": [
        {
          "internalType": "uint256",
          "name": "",
          "type": "uint256"
        }
      ],
      "stateMutability": "view",
      "type": "function"
    },
    {
      "inputs": [],
      "name": "stakingWithdrawDisallowPeriod",
      "outputs": [
        {
          "internalType": "uint256",
          "name": "",
          "type": "uint256"
        }
      ],
      "stateMutability": "view",
      "type": "function"
    },
    {
      "inputs": [],
      "name": "startTimeOfNextPhaseTransition",
      "outputs": [
        {
          "internalType": "uint256",
          "name": "",
          "type": "uint256"
        }
      ],
      "stateMutability": "view",
      "type": "function"
    },
    {
      "inputs": [],
      "name": "totalStakedAmount",
      "outputs": [
        {
          "internalType": "uint256",
          "name": "",
          "type": "uint256"
        }
      ],
      "stateMutability": "view",
      "type": "function"
    },
    {
      "inputs": [
        {
          "internalType": "address",
          "name": "newOwner",
          "type": "address"
        }
      ],
      "name": "transferOwnership",
      "outputs": [],
      "stateMutability": "nonpayable",
      "type": "function"
    },
    {
      "inputs": [
        {
          "internalType": "address",
          "name": "mining",
          "type": "address"
        },
        {
          "internalType": "uint256",
          "name": "validatorScore",
          "type": "uint256"
        }
      ],
      "name": "updatePoolLikelihood",
      "outputs": [],
      "stateMutability": "nonpayable",
      "type": "function"
    },
    {
      "inputs": [],
      "name": "updateStakingTransitionTimeframeLength",
      "outputs": [],
      "stateMutability": "nonpayable",
      "type": "function"
    },
    {
      "inputs": [],
      "name": "validatorSetContract",
      "outputs": [
        {
          "internalType": "contract IValidatorSetHbbft",
          "name": "",
          "type": "address"
        }
      ],
      "stateMutability": "view",
      "type": "function"
    },
    {
      "inputs": [
        {
          "internalType": "address",
          "name": "_fromPoolStakingAddress",
          "type": "address"
        },
        {
          "internalType": "uint256",
          "name": "_amount",
          "type": "uint256"
        }
      ],
      "name": "withdraw",
      "outputs": [],
      "stateMutability": "nonpayable",
      "type": "function"
    },
    {
      "stateMutability": "payable",
      "type": "receive"
    }
  ],
  "bytecode": "0x6080604052348015600f57600080fd5b506016601a565b60ca565b7ff0c57e16840df040f15088dc2f81fe391c3923bec73e23a9662efc9c229c6a00805468010000000000000000900460ff161560695760405163f92ee8a960e01b815260040160405180910390fd5b80546001600160401b039081161460c75780546001600160401b0319166001600160401b0390811782556040519081527fc7f505b2f371ae2175ee4913f4499e1f2633a7b5936321eed1cdaeb6115181d29060200160405180910390a15b50565b61612d806100d96000396000f3fe60806040526004361061058d5760003560e01c80638da5cb5b116102d5578063c6912cc011610184578063e9ab0300116100e1578063f078609611610095578063f6c578611161006f578063f6c5786114611013578063f9d4d54414611033578063fa4aaf471461106057600080fd5b8063f078609614610fbd578063f2fde38b14610fd3578063f3fef3a314610ff357600080fd5b8063edd7db75116100c6578063edd7db7514610f7d578063ee435f5514610f92578063f075664214610fa757600080fd5b8063e9ab030014610f25578063ed723ce114610f5d57600080fd5b8063d5c4b08a11610138578063dadee88a1161011d578063dadee88a14610ec3578063df6f55f514610ef0578063dfc8bf4e14610f0557600080fd5b8063d5c4b08a14610e95578063da7a9b6a14610ead57600080fd5b8063cfef144111610169578063cfef144114610e40578063d0ac76f614610e60578063d290c21d14610e8057600080fd5b8063c6912cc014610e0b578063c6af311a14610e2057600080fd5b8063a5d54f6511610232578063b61ed63a116101e6578063ba08d237116101cb578063ba08d23714610db6578063bb57c8ac14610dd6578063bf348f8614610deb57600080fd5b8063b61ed63a14610d69578063b710c15d14610d8957600080fd5b8063a711e6a111610217578063a711e6a114610d1e578063adddc0cf14610d3e578063ae1aaf8014610d5357600080fd5b8063a5d54f6514610cd1578063a697ecff14610ce657600080fd5b80639b03d744116102895780639e72c6351161026e5780639e72c63514610c595780639ea8082b14610c79578063a420596714610c9957600080fd5b80639b03d74414610c2d5780639e6c295914610c4357600080fd5b8063950a6513116102ba578063950a651314610bbb578063957950a714610bdb5780639a7b5f1114610bfe57600080fd5b80638da5cb5b14610b6b578063921e274b14610ba857600080fd5b80634f9a8d8f1161043c578063715018a6116103995780637b0a0f9b1161034d5780638247a239116103275780638247a23914610afe57806384725c7614610b1e578063862be28714610b4b57600080fd5b80637b0a0f9b14610a9e5780637b15b94c14610abe5780637d8149db14610ade57600080fd5b806373c218031161037e57806373c2180314610a18578063750dd2a114610a38578063794c0c6814610a8857600080fd5b8063715018a6146109cd578063728345db146109e257600080fd5b80635fef7643116103f0578063673a2a1f116103d5578063673a2a1f146109755780636bda1577146109975780637069e746146109b757600080fd5b80635fef764314610929578063615f2b711461093f57600080fd5b8063567e98f911610421578063567e98f9146108dd5780635b4eafe0146108f35780635d80ca321461091357600080fd5b80634f9a8d8f1461089a5780635267e1d6146108b057600080fd5b806326476204116104ea5780633b7d09461161049e5780634160d386116104835780634160d3861461082d5780634346845f1461084d5780634e9b426d1461086d57600080fd5b80633b7d0946146107fa5780633f3afe011461081a57600080fd5b80633219d600116104cf5780633219d6001461078f57806337154263146107cf578063379b046a146107e457600080fd5b8063264762041461075c5780632bafde8d1461076f57600080fd5b80631fb31e431161054157806322e3d9861161052657806322e3d9861461071257806322ffa02614610727578063251441a91461073c57600080fd5b80631fb31e431461068057806320c07cd8146106fc57600080fd5b80630b770cdf116105725780630b770cdf146105fb5780631345b8a5146106335780631555371c1461066b57600080fd5b8063028b8bdb146105b05780630ac6e291146105d957600080fd5b366105ab57604051631574f9f360e01b815260040160405180910390fd5b600080fd5b3480156105bc57600080fd5b506105c660145481565b6040519081526020015b60405180910390f35b3480156105e557600080fd5b506105f96105f436600461564c565b61108d565b005b34801561060757600080fd5b5060245461061b906001600160a01b031681565b6040516001600160a01b0390911681526020016105d0565b34801561063f57600080fd5b506105c661064e3660046156fc565b602160209081526000928352604080842090915290825290205481565b34801561067757600080fd5b506105f961161b565b34801561068c57600080fd5b506106ca61069b36600461572c565b6001600160a01b03166000908152601e6020526040902060010154608081901b91600160801b90910460f01b90565b604080516fffffffffffffffffffffffffffffffff1990931683526001600160f01b03199091166020830152016105d0565b34801561070857600080fd5b506105c66107d081565b34801561071e57600080fd5b506105c661168d565b34801561073357600080fd5b506105c66116d4565b34801561074857600080fd5b506105f9610757366004615749565b611708565b6105f961076a36600461572c565b6117c6565b34801561077b57600080fd5b506105f961078a36600461578a565b611849565b34801561079b57600080fd5b506107bf6107aa36600461572c565b601f6020526000908152604090205460ff1681565b60405190151581526020016105d0565b3480156107db57600080fd5b506105f96118ca565b3480156107f057600080fd5b506105c6601a5481565b34801561080657600080fd5b506105f961081536600461572c565b611cf7565b6105f96108283660046157a3565b611d2d565b34801561083957600080fd5b506105f96108483660046157a3565b612063565b34801561085957600080fd5b506105f96108683660046157ec565b612102565b34801561087957600080fd5b5061088d61088836600461572c565b612208565b6040516105d0919061589d565b3480156108a657600080fd5b506105c660165481565b3480156108bc57600080fd5b506105c66108cb36600461572c565b601b6020526000908152604090205481565b3480156108e957600080fd5b506105c6601c5481565b3480156108ff57600080fd5b506105c661090e3660046156fc565b6122b4565b34801561091f57600080fd5b506105c6600e5481565b34801561093557600080fd5b506105c6600c5481565b34801561094b57600080fd5b5061061b61095a36600461572c565b6025602052600090815260409020546001600160a01b031681565b34801561098157600080fd5b5061098a6122de565b6040516105d091906158b0565b3480156109a357600080fd5b506105c66109b23660046158fd565b6122ea565b3480156109c357600080fd5b506105c660195481565b3480156109d957600080fd5b506105f961246b565b3480156109ee57600080fd5b506105c66109fd3660046156fc565b60208080526000928352604080842090915290825290205481565b348015610a2457600080fd5b5061098a610a3336600461572c565b61247f565b348015610a4457600080fd5b506105c6610a533660046158fd565b6001600160a01b039182166000908152600b602090815260408083209390941682529182528281206015548252909152205490565b348015610a9457600080fd5b506105c660155481565b348015610aaa57600080fd5b506105f9610ab9366004615964565b6124a3565b348015610aca57600080fd5b506105f9610ad936600461572c565b612520565b348015610aea57600080fd5b506105f9610af93660046159a9565b612587565b348015610b0a57600080fd5b506105f9610b1936600461578a565b612609565b348015610b2a57600080fd5b506105c6610b3936600461572c565b60266020526000908152604090205481565b348015610b5757600080fd5b506105f9610b66366004615a06565b61263c565b348015610b7757600080fd5b507f9016d09d72d40fdae2fd8ceac6b6234c7706214fd39c1cd1e609a0528c199300546001600160a01b031661061b565b6105f9610bb6366004615a6b565b61269f565b348015610bc757600080fd5b506105c6610bd63660046158fd565b6128b4565b348015610be757600080fd5b50610bf06129fc565b6040516105d0929190615b29565b348015610c0a57600080fd5b50610c1e610c1936600461572c565b612a5f565b6040516105d093929190615b4b565b348015610c3957600080fd5b506105c660185481565b348015610c4f57600080fd5b506105c661271081565b348015610c6557600080fd5b506105f9610c7436600461578a565b612b13565b348015610c8557600080fd5b5061098a610c9436600461572c565b612b63565b348015610ca557600080fd5b506105c6610cb43660046158fd565b601160209081526000928352604080842090915290825290205481565b348015610cdd57600080fd5b5061098a612b87565b348015610cf257600080fd5b506105c6610d013660046158fd565b601360209081526000928352604080842090915290825290205481565b348015610d2a57600080fd5b506107bf610d3936600461572c565b612be9565b348015610d4a57600080fd5b506105f9612bf5565b348015610d5f57600080fd5b506105c660175481565b348015610d7557600080fd5b506105f9610d843660046157a3565b612c3a565b348015610d9557600080fd5b50610da9610da4366004615ba8565b612fa1565b6040516105d09190615c59565b348015610dc257600080fd5b506107bf610dd1366004615c87565b613051565b348015610de257600080fd5b506105c661322c565b348015610df757600080fd5b50610da9610e063660046159a9565b613248565b348015610e1757600080fd5b506105c66132ed565b348015610e2c57600080fd5b506105f9610e3b3660046157a3565b61330c565b348015610e4c57600080fd5b506105f9610e5b36600461572c565b6133b6565b348015610e6c57600080fd5b506105f9610e7b3660046156fc565b613589565b348015610e8c57600080fd5b5061098a6136c8565b348015610ea157600080fd5b506105f9610384601755565b348015610eb957600080fd5b506105c6600d5481565b348015610ecf57600080fd5b506105c6610ede36600461572c565b60106020526000908152604090205481565b348015610efc57600080fd5b5061098a6136d4565b348015610f1157600080fd5b50601d5461061b906001600160a01b031681565b348015610f3157600080fd5b506105c6610f403660046158fd565b600f60209081526000928352604080842090915290825290205481565b348015610f6957600080fd5b506105f9610f7836600461578a565b6136e0565b348015610f8957600080fd5b506105f961378c565b348015610f9e57600080fd5b506105f96138cc565b348015610fb357600080fd5b506105c660285481565b348015610fc957600080fd5b506105c6610bb881565b348015610fdf57600080fd5b506105f9610fee36600461572c565b613917565b348015610fff57600080fd5b506105f961100e3660046157a3565b613952565b34801561101f57600080fd5b506107bf61102e36600461572c565b613a0b565b34801561103f57600080fd5b506105c661104e36600461572c565b60276020526000908152604090205481565b34801561106c57600080fd5b506105c661107b36600461572c565b60126020526000908152604090205481565b7ff0c57e16840df040f15088dc2f81fe391c3923bec73e23a9662efc9c229c6a00805468010000000000000000810460ff16159067ffffffffffffffff166000811580156110d85750825b905060008267ffffffffffffffff1660011480156110f55750303b155b905081158015611103575080155b156111215760405163f92ee8a960e01b815260040160405180910390fd5b845467ffffffffffffffff19166001178555831561115557845468ff00000000000000001916680100000000000000001785555b6001600160a01b038b1661117c5760405163d92e233d60e01b815260040160405180910390fd5b6111858a613a28565b8761119360408c018c615ca3565b61119f91506002615d03565b146111bc5760405162d6988760e81b815260040160405180910390fd5b856111ca60408c018c615ca3565b9050146111ea576040516320041afd60e01b815260040160405180910390fd5b6111f38b613b52565b6111fb613b63565b61120860208b018b61572c565b601d80546001600160a01b0319166001600160a01b039290921691909117905561123860408b0160208c0161572c565b602480546001600160a01b0319166001600160a01b039290921691909117905536600061126860408d018d615ca3565b9150915060005b8181101561148b57600083838381811061128b5761128b615d1a565b90506020020160208101906112a0919061572c565b6001600160a01b0316036112c75760405163d92e233d60e01b815260040160405180910390fd5b6112f88383838181106112dc576112dc615d1a565b90506020020160208101906112f1919061572c565b6000613b73565b61132783838381811061130d5761130d615d1a565b9050602002016020810190611322919061572c565b613bd3565b8b8b611334836002615d03565b81811061134357611343615d1a565b905060200201358c8c8360026113599190615d03565b611364906001615d30565b81811061137357611373615d1a565b90506020020135604051602001611394929190918252602082015260400190565b604051602081830303815290604052601e60008585858181106113b9576113b9615d1a565b90506020020160208101906113ce919061572c565b6001600160a01b031681526020810191909152604001600020906113f29082615dcd565b5089898281811061140557611405615d1a565b905060200201602081019061141a9190615e8d565b601e600085858581811061143057611430615d1a565b9050602002016020810190611445919061572c565b6001600160a01b031681526020810191909152604001600020600190810180546fffffffffffffffffffffffffffffffff191660809390931c929092179091550161126f565b5060408051600580825260c082019092526000916020820160a0803683370190505090506802b5e3af16b1880000816000815181106114cc576114cc615d1a565b60200260200101818152505068056bc75e2d63100000816001815181106114f5576114f5615d1a565b602002602001018181525050680821ab0d44149800008160028151811061151e5761151e615d1a565b602002602001018181525050680ad78ebc5ac62000008160038151811061154757611547615d1a565b602002602001018181525050680d8d726b7177a800008160048151811061157057611570615d1a565b6020908102919091010152611594632bafde8d60e01b636d3d4db560e11b83613be8565b50505060608a0135600d5560808a0135600c5560a08a0135600e5560c08a01356016554260185560e08a0135601755831561160e57845468ff000000000000000019168555604051600181527fc7f505b2f371ae2175ee4913f4499e1f2633a7b5936321eed1cdaeb6115181d29060200160405180910390a15b5050505050505050505050565b601d546001600160a01b03163314611645576040516282b42960e81b815260040160405180910390fd5b60006116516004613c9d565b905060005b81518110156116895761168182828151811061167457611674615d1a565b6020026020010151613cb1565b600101611656565b5050565b60185460165460009190156116a35760016116a6565b60005b60ff16601a54601654836116ba9190615d30565b6116c49190615d30565b6116ce9190615ea8565b91505090565b600060285460001461170257601a546017546028546116f39190615d30565b6116fd9190615d30565b905090565b50600090565b3a60000361172957604051630e661aed60e41b815260040160405180910390fd5b816001600160a01b0316836001600160a01b03160361175b57604051630a5eddd560e01b815260040160405180910390fd5b33611767848284613cf7565b611772838284613fa5565b601554604080516001600160a01b0387811682526020820186905280851692908716917f4480d8e4b1e9095b94bf513961d26fe1d32386ebdd103d18fe8738cf4b2223ff910160405180910390a450505050565b3a6000036117e757604051630e661aed60e41b815260040160405180910390fd5b33346117f4838383613fa5565b601554826001600160a01b0316846001600160a01b03167f2273de02cb1f69ba6259d22c4bc22c60e4c94c193265ef6afee324a04a9b6d228460405161183c91815260200190565b60405180910390a4505050565b6118516142f6565b806118686000356001600160e01b03191682613051565b61188d576040516373330d9b60e01b8152600481018290526024015b60405180910390fd5b600d8290556040518281527ffee02ce7aa40f9c49eaabd26d404fa88714b97cb209af8954cfd5eeb8213b93e906020015b60405180910390a15050565b3a6000036118eb57604051630e661aed60e41b815260040160405180910390fd5b6000806118f86002613c9d565b9050805160000361191c57604051631c369b4560e21b815260040160405180910390fd5b60005b8151811015611b0457600082828151811061193c5761193c615d1a565b6020026020010151905061194f81614351565b806119c55750601d54604051639d6fc1d160e01b81526001600160a01b03838116600483015290911690639d6fc1d190602401602060405180830381865afa15801561199f573d6000803e3d6000fd5b505050506040513d601f19601f820116820180604052508101906119c39190615ebb565b155b156119d05750611afc565b6119db60028261438f565b506001600160a01b0381166000908152601f60209081526040808320805460ff19166001179055601b9091528120805490829055601c805491928392611a22908490615ea8565b9091555060009050611a3383612b63565b905060005b8151811015611a9e576000828281518110611a5557611a55615d1a565b6020908102919091018101516001600160a01b0380881660009081526013845260408082209284168252919093528220919091559050611a9585826143a4565b50600101611a38565b50611aa98287615d30565b9550826001600160a01b0316336001600160a01b03167f8e6a4ccd7dccdca9ac211d00fcc3fa7c71be75ff73d3a35f63ea023173cc100484604051611af091815260200190565b60405180910390a35050505b60010161191f565b5081600003611b2657604051631c369b4560e21b815260040160405180910390fd5b6000611b33600284615edd565b90506000611b418285615ea8565b90506000601d60009054906101000a90046001600160a01b03166001600160a01b03166356b54bae6040518163ffffffff1660e01b8152600401602060405180830381865afa158015611b98573d6000803e3d6000fd5b505050506040513d601f19601f82011682018060405250810190611bbc9190615eff565b90506000601d60009054906101000a90046001600160a01b03166001600160a01b03166356b54bae6040518163ffffffff1660e01b8152600401602060405180830381865afa158015611c13573d6000803e3d6000fd5b505050506040513d601f19601f82011682018060405250810190611c379190615eff565b90506000816001600160a01b031663732524946040518163ffffffff1660e01b8152600401602060405180830381865afa158015611c79573d6000803e3d6000fd5b505050506040513d601f19601f82011682018060405250810190611c9d9190615eff565b9050611ca98385614406565b611cb38186614406565b604080518581526020810187905233917f1c113e6bae9530fea40323e612aeb0cb7817dedb5a0b0f6bdfbff97d55920dc7910160405180910390a250505050505050565b601d546001600160a01b03163314611d21576040516282b42960e81b815260040160405180910390fd5b611d2a81613cb1565b50565b601d60009054906101000a90046001600160a01b03166001600160a01b03166356b54bae6040518163ffffffff1660e01b8152600401602060405180830381865afa158015611d80573d6000803e3d6000fd5b505050506040513d601f19601f82011682018060405250810190611da49190615eff565b6001600160a01b0316336001600160a01b031614611dd4576040516282b42960e81b815260040160405180910390fd5b3415611689576015546000908152602080805260408083206001600160a01b03861684529091528120543491611e0b8584866144ad565b90506000611e1886612b63565b905060005b8151811015611f6757600084611e4f6015548a868681518110611e4257611e42615d1a565b60200260200101516145cc565b8560400151611e5e9190615d03565b611e689190615edd565b905080601360008a6001600160a01b03166001600160a01b031681526020019081526020016000206000858581518110611ea457611ea4615d1a565b60200260200101516001600160a01b03166001600160a01b031681526020019081526020016000206000828254611edb9190615d30565b90915550506001600160a01b0388166000908152600b602052604081208451839290869086908110611f0f57611f0f615d1a565b60200260200101516001600160a01b03166001600160a01b03168152602001908152602001600020600060155481526020019081526020016000206000828254611f599190615d30565b909155505050600101611e1d565b50602082015115611f8057611f8086836020015161466d565b81516001600160a01b038716600090815260136020908152604080832090915281208054909190611fb2908490615d30565b90915550506001600160a01b0386166000908152601b602052604081208054869290611fdf908490615d30565b9250508190555083601c6000828254611ff89190615d30565b90915550612007905086614734565b60155482516001600160a01b038816907f72093068b9f28053bd924ac15d7710b987f9b6ef1e0f89f47d8b4bd7cac776dc906120438189615ea8565b6040805192835260208301919091520160405180910390a3505050505050565b601d546040516253517560e01b81523360048201526000916001600160a01b0316906253517590602401602060405180830381865afa1580156120aa573d6000803e3d6000fd5b505050506040513d601f19601f820116820180604052508101906120ce9190615eff565b6001600160a01b0316036120f757604051632670461960e11b8152336004820152602401611884565b611689338383614820565b61210a6142f6565b6000612114614958565b90506040518060400160405280857bffffffffffffffffffffffffffffffffffffffffffffffffffffffff1916815260200184848080602002602001604051908101604052809392919081815260200183836020028082843760009201829052509390945250506001600160e01b031988168152602084815260409091208351815463ffffffff191660e09190911c1781558382015180519193506121c0926001850192910190615571565b509050507f3665bf9cd0ba4ddceeec259e21dcf8a4510f3b1130bd42e950828e69d85408ba858585856040516121f99493929190615f1c565b60405180910390a15050505050565b6001600160a01b0381166000908152601e6020526040902080546060919061222f90615d43565b80601f016020809104026020016040519081016040528092919081815260200182805461225b90615d43565b80156122a85780601f1061227d576101008083540402835291602001916122a8565b820191906000526020600020905b81548152906001019060200180831161228b57829003601f168201915b50505050509050919050565b60008281526021602090815260408083206001600160a01b03851684529091529020545b92915050565b60606116fd6000613c9d565b601d546040516253517560e01b81526001600160a01b03848116600483015260009283929116906253517590602401602060405180830381865afa158015612336573d6000803e3d6000fd5b505050506040513d601f19601f8201168201806040525081019061235a9190615eff565b6001600160a01b0385166000908152601f602052604090205490915060ff16156123885760009150506122d8565b6001600160a01b03848116600090815260136020908152604080832087851684529091529081902054601d54915163a0d16cad60e01b815284841660048201529092919091169063a0d16cad90602401602060405180830381865afa1580156123f5573d6000803e3d6000fd5b505050506040513d601f19601f820116820180604052508101906124199190615ebb565b6124265791506122d89050565b6001600160a01b038581166000908152600b60209081526040808320938816835292815282822060155483529052205480821115612462578091505b50949350505050565b6124736142f6565b61247d60006149ba565b565b6001600160a01b0381166000908152600a602052604090206060906122d890613c9d565b601d546001600160a01b031633146124cd576040516282b42960e81b815260040160405180910390fd5b6001600160a01b039092166000908152601e60205260409020600101805460f09390931c600160801b0271ffffffffffffffffffffffffffffffffffff1990931660809290921c91909117919091179055565b601d546001600160a01b0316331461254a576040516282b42960e81b815260040160405180910390fd5b600c546001600160a01b038216600090815260136020908152604080832090915290205410611d2a5761257e816001613b73565b611d2a81614734565b61258f6142f6565b6000612599614958565b6001600160e01b031983166000908152602082905260408120805463ffffffff191681559192506125cd60018301826155bc565b50506040516001600160e01b0319831681527fed27cb02231782dadf13473a7828cb980c4d685791b7a3136dde00f8c3594cb6906020016118be565b601d546001600160a01b03163314612633576040516282b42960e81b815260040160405180910390fd5b60185543601955565b336000908152601e60205260409020612656848683615f89565b50336000908152601e60205260409020600101805460f09290921c600160801b0271ffffffffffffffffffffffffffffffffffff1990921660809390931c929092171790555050565b3a6000036126c057604051630e661aed60e41b815260040160405180910390fd5b601d54604051630526083960e11b81526001600160a01b0388811660048301523360248301819052923492911690630a4c107290604401600060405180830381600087803b15801561271157600080fd5b505af1158015612725573d6000803e3d6000fd5b5050505061276885858080601f016020809104026020016040519081016040528093929190818152602001838380828437600092019190915250614a2b92505050565b6127855760405163145a1fdd60e31b815260040160405180910390fd5b876001600160a01b03166127ce86868080601f016020809104026020016040519081016040528093929190818152602001838380828437600092019190915250614ae292505050565b6001600160a01b0316146127f557604051631e5abf9560e01b815260040160405180910390fd5b6001600160a01b0382166000908152601e60205260409020612818858783615f89565b506001600160a01b0382166000908152601e6020526040902060010180546fffffffffffffffffffffffffffffffff1916608085901c17905561285c828888614820565b612867828383613fa5565b6015546040518281526001600160a01b0384169081907f2273de02cb1f69ba6259d22c4bc22c60e4c94c193265ef6afee324a04a9b6d229060200160405180910390a45050505050505050565b601d546040516253517560e01b81526001600160a01b03848116600483015260009283929116906253517590602401602060405180830381865afa158015612900573d6000803e3d6000fd5b505050506040513d601f19601f820116820180604052508101906129249190615eff565b601d5460405163a0d16cad60e01b81526001600160a01b03808416600483015292935091169063a0d16cad90602401602060405180830381865afa158015612970573d6000803e3d6000fd5b505050506040513d601f19601f820116820180604052508101906129949190615ebb565b6129a25760009150506122d8565b6001600160a01b038481166000818152600b6020908152604080832094881680845294825280832060155484528252808320549383526013825280832094835293905291909120546129f49190615ea8565b949350505050565b60606000600760085481805480602002602001604051908101604052809291908181526020018280548015612a5057602002820191906000526020600020905b815481526020019060010190808311612a3c575b50505050509150915091509091565b601e60205260009081526040902080548190612a7a90615d43565b80601f0160208091040260200160405190810160405280929190818152602001828054612aa690615d43565b8015612af35780601f10612ac857610100808354040283529160200191612af3565b820191906000526020600020905b815481529060010190602001808311612ad657829003601f168201915b50505060019093015491925050608081901b90600160801b900460f01b83565b601d546001600160a01b03163314612b3d576040516282b42960e81b815260040160405180910390fd5b601754612b4a9082615d30565b601a6000828254612b5b9190615d30565b909155505050565b6001600160a01b03811660009081526009602052604090206060906122d890613c9d565b60606006805480602002602001604051908101604052809291908181526020018280548015612bdf57602002820191906000526020600020905b81546001600160a01b03168152600190910190602001808311612bc1575b5050505050905090565b60006122d88183614aed565b601d546001600160a01b03163314612c1f576040516282b42960e81b815260040160405180910390fd5b601754601a6000828254612c339190615d30565b9091555050565b3a600003612c5b57604051630e661aed60e41b815260040160405180910390fd5b6001600160a01b038216612c825760405163d92e233d60e01b815260040160405180910390fd5b80600003612ca357604051633ca0029d60e01b815260040160405180910390fd5b6001600160a01b0382166000818152600f602090815260408083203380855290835281842054858552601084528285205460138552838620838752855283862054968652601b9094529184205490949193861315612dad57856000612d0889886128b4565b905080821115612d3557604051632de4882160e01b81526004810182905260248101839052604401611884565b612d3f8287615d30565b9550612d4b8286615d30565b9450612d578285615ea8565b9350612d638284615ea8565b925081601c6000828254612d779190615ea8565b90915550506015546001600160a01b03808b166000908152601160209081526040808320938c168352929052205550612e039050565b6000612db88761604a565b9050612dc48186615ea8565b9450612dd08185615ea8565b9350612ddc8184615d30565b9250612de88183615d30565b915080601c6000828254612dfc9190615d30565b9091555050505b6001600160a01b038088166000818152600f60209081526040808320948a1680845294825280832089905583835260108252808320889055601382528083208584528252808320879055838352601b90915290208390559003612ed2578115801590612e705750600c5482105b15612ea857604051636fe84f3d60e01b81526001600160a01b0380891660048301528616602482015260448101879052606401611884565b6000861315612ec75781600003612ec257612ec287613bd3565b612f3f565b612ec2876001613b73565b8115801590612ee25750600d5482105b15612f1a57604051636fe84f3d60e01b81526001600160a01b0380891660048301528616602482015260448101879052606401611884565b6000861315612f355781600003612ec257612ec287866143a4565b612f3f8786614b0f565b612f4887614734565b601554856001600160a01b0316886001600160a01b03167f80d5c777e5f7ac6ee89723223803ca5c0ec0204f89e99c1b0cde973c66a6459489604051612f9091815260200190565b60405180910390a450505050505050565b604080518082019091526000815260606020820152612fbe614958565b82516020808501919091206001600160e01b0319908116600090815292825260409283902083518085018552815460e01b909216825260018101805485518186028101860190965280865292949193858101939083018282801561304157602002820191906000526020600020905b81548152602001906001019080831161302d575b5050505050815250509050919050565b60008061305c614958565b6001600160e01b031980861660009081526020838152604080832081518083018352815460e01b909516855260018101805483518186028101860190945280845296975093959093858401939091908301828280156130da57602002820191906000526020600020905b8154815260200190600101908083116130c6575b50505050508152505090508060200151516000036130fd576000925050506122d8565b6020810151815160009061311090614b3c565b905060005b825181101561321e578183828151811061313157613131615d1a565b602002602001015103613216576000808211613167578360008151811061315a5761315a615d1a565b602002602001015161318c565b83613173600184615ea8565b8151811061318357613183615d1a565b60200260200101515b905060006001855161319e9190615ea8565b83106131d05784600186516131b39190615ea8565b815181106131c3576131c3615d1a565b60200260200101516131f5565b846131dc846001615d30565b815181106131ec576131ec615d1a565b60200260200101515b90508189141580156132075750808914155b159750505050505050506122d8565b600101613115565b506000979650505050505050565b6000602854600014613240576116fd6116d4565b6116fd61168d565b604080518082019091526000815260606020820152613265614958565b6001600160e01b03198084166000908152602092835260409081902081518083018352815460e01b9093168352600181018054835181870281018701909452808452939491938583019392830182828015613041576020028201919060005260206000209081548152602001906001019080831161302d575050505050815250509050919050565b60006017546016546018546133029190615d30565b6116fd9190615ea8565b6024546001600160a01b03163314613336576040516282b42960e81b815260040160405180910390fd5b601d546040516307b9342f60e21b81526001600160a01b0384811660048301526000921690631ee4d0bc90602401602060405180830381865afa158015613381573d6000803e3d6000fd5b505050506040513d601f19601f820116820180604052508101906133a59190615eff565b90506133b18183614c13565b505050565b3a6000036133d757604051630e661aed60e41b815260040160405180910390fd5b6133df614cbd565b6001600160a01b0381166000908152601160209081526040808320338085529252909120546015541161343857604051630b06352b60e31b81526001600160a01b03808416600483015282166024820152604401611884565b6001600160a01b038083166000908152600f602090815260408083209385168352929052908120549081900361348157604051633ca0029d60e01b815260040160405180910390fd5b6001600160a01b038084166000818152600f602090815260408083209487168352938152838220829055918152601090915220546134c0908290615ea8565b6001600160a01b0380851660009081526010602090815260408083209490945560138152838220928616825291909152908120549003613504576135048383614d07565b61350e8282614406565b601554826001600160a01b0316846001600160a01b03167ff380b0bc887e00f5b50d3c9d4eaaf5c9a0afd97b956316b995159384c4ede9b38460405161355691815260200190565b60405180910390a45050611d2a60017f9b779b17422d0df92223018b32b4d1fa46e071723d6817e2486d003becc55f0055565b601d60009054906101000a90046001600160a01b03166001600160a01b03166356b54bae6040518163ffffffff1660e01b8152600401602060405180830381865afa1580156135dc573d6000803e3d6000fd5b505050506040513d601f19601f820116820180604052508101906136009190615eff565b6001600160a01b0316336001600160a01b031614613630576040516282b42960e81b815260040160405180910390fd5b6000828152602080805260408083206001600160a01b03851684529091528120549003611689576001600160a01b0381166000908152601b60205260408120549081900361367d57505050565b6000838152602080805260408083206001600160a01b038616808552908352818420949094556013825280832082528083205486845260218352818420948452939091529020555050565b60606116fd6004613c9d565b60606116fd6002613c9d565b601d60009054906101000a90046001600160a01b03166001600160a01b03166356b54bae6040518163ffffffff1660e01b8152600401602060405180830381865afa158015613733573d6000803e3d6000fd5b505050506040513d601f19601f820116820180604052508101906137579190615eff565b6001600160a01b0316336001600160a01b031614613787576040516282b42960e81b815260040160405180910390fd5b602855565b3a6000036137ad57604051630e661aed60e41b815260040160405180910390fd5b601d546040516253517560e01b81523360048201819052916000916001600160a01b03909116906253517590602401602060405180830381865afa1580156137f9573d6000803e3d6000fd5b505050506040513d601f19601f8201168201806040525081019061381d9190615eff565b9050601554600014801561389a5750601d5460405163facd743b60e01b81526001600160a01b0383811660048301529091169063facd743b90602401602060405180830381865afa158015613876573d6000803e3d6000fd5b505050506040513d601f19601f8201168201806040525081019061389a9190615ebb565b156138c3576040516303d71f2d60e51b81526001600160a01b0383166004820152602401611884565b61168982613cb1565b601d546001600160a01b031633146138f6576040516282b42960e81b815260040160405180910390fd5b6015805490600061390683616066565b90915550506000601a819055602855565b61391f6142f6565b6001600160a01b03811661394957604051631e4fbdf760e01b815260006004820152602401611884565b611d2a816149ba565b3a60000361397357604051630e661aed60e41b815260040160405180910390fd5b61397b614cbd565b33613987838284613cf7565b6139918183614406565b601554816001600160a01b0316846001600160a01b03167fa7c0f0cac6bd4d18042007706c84a8abe823751cf289b69c01e83eef7b5915c7856040516139d991815260200190565b60405180910390a45061168960017f9b779b17422d0df92223018b32b4d1fa46e071723d6817e2486d003becc55f0055565b6000613a178183614aed565b806122d857506122d8600283614aed565b8060c00135600003613a4d5760405163c671116b60e01b815260040160405180910390fd5b60e08101351580613a6657508060c001358160e0013510155b15613a8457604051630685efe960e01b815260040160405180910390fd5b6000613a93602083018361572c565b6001600160a01b031603613aba5760405163d92e233d60e01b815260040160405180910390fd5b613ac76040820182615ca3565b9050600003613ae957604051635c9a24ed60e11b815260040160405180910390fd5b60608101351580613afc57506080810135155b15613b2a5760405163633373e160e11b81526080820135600482015260608201356024820152604401611884565b80608001358160a0013511611d2a57604051631c6d3b1560e01b815260040160405180910390fd5b613b5a614e5d565b611d2a81614eab565b613b6b614e5d565b61247d614eb3565b613b7c82612be9565b613bb857613b8b600083614ebb565b50610bb8613b996000614ed0565b1115613bb85760405163398dcd9d60e21b815260040160405180910390fd5b613bc360028361438f565b5080156116895761168982614eda565b613bde600482614ebb565b50611d2a81614fcf565b613bf0614e5d565b6000613bfa614958565b6040805180820182526001600160e01b0319868116825260208083018781529189166000908152858252939093208251815463ffffffff191660e09190911c1781559051805194955091939092613c58926001850192910190615571565b509050507f3665bf9cd0ba4ddceeec259e21dcf8a4510f3b1130bd42e950828e69d85408ba848484604051613c8f9392919061607f565b60405180910390a150505050565b60606000613caa836151ec565b9392505050565b613cbc60008261438f565b50613cc681614351565b15613cdc57613cd660028261438f565b50613ce5565b613ce581615247565b613cee81614fcf565b611d2a81615252565b6001600160a01b038316613d1e5760405163d92e233d60e01b815260040160405180910390fd5b80600003613d3f57604051633ca0029d60e01b815260040160405180910390fd5b6000613d4b84846122ea565b905080821115613d7857604051632de4882160e01b81526004810182905260248101839052604401611884565b6001600160a01b038085166000908152601360209081526040808320938716835292905290812054613dab908490615ea8565b90506000846001600160a01b0316866001600160a01b031614613dd057600d54613dd4565b600c545b90508115801590613de457508082105b15613e1c57604051639e612d5760e01b81526001600160a01b0380881660048301528616602482015260448101859052606401611884565b856001600160a01b0316856001600160a01b031614613eb157601d546040516253517560e01b81526001600160a01b03888116600483015260009216906253517590602401602060405180830381865afa158015613e7e573d6000803e3d6000fd5b505050506040513d601f19601f82011682018060405250810190613ea29190615eff565b9050613eaf87828861525d565b505b6001600160a01b038681166000818152601360209081526040808320948a16808452948252808320879055928252600b8152828220938252928352818120601554825290925290205484811015613f09576000613f13565b613f138582615ea8565b6001600160a01b038089166000818152600b60209081526040808320948c1683529381528382206015548352815283822094909455908152601b90925281208054879290613f62908490615ea8565b9250508190555084601c6000828254613f7b9190615ea8565b90915550506000839003613f9357613f938787614d07565b613f9c87614734565b50505050505050565b6001600160a01b038316613fcc5760405163d92e233d60e01b815260040160405180910390fd5b601d546040516253517560e01b81526001600160a01b03858116600483015260009216906253517590602401602060405180830381865afa158015614015573d6000803e3d6000fd5b505050506040513d601f19601f820116820180604052508101906140399190615eff565b90506001600160a01b03811661406d57604051632670461960e11b81526001600160a01b0385166004820152602401611884565b816000036140a15760405163e59f5c3960e01b81526001600160a01b03808616600483015284166024820152604401611884565b6001600160a01b0384166000908152601f602052604090205460ff16156140e65760405163078137eb60e41b81526001600160a01b0385166004820152602401611884565b6001600160a01b03808516600081815260136020908152604080832094881680845294909152812054929091149161411f908590615d30565b9050600082156141325750600c54614181565b50600d546001600160a01b038716600090815260136020908152604080832090915281205490036141815760405163cbbeb0bd60e01b81526001600160a01b0388166004820152602401611884565b808210156141b55760405163e59f5c3960e01b81526001600160a01b03808916600483015287166024820152604401611884565b600e546001600160a01b0388166000908152601b60205260409020546141dc908790615d30565b111561420e57604051632c2b174160e21b81526001600160a01b03808916600483015287166024820152604401611884565b6001600160a01b038088166000908152600b60209081526040808320938a16835292815282822060155483529052908120805487929061424f908490615d30565b90915550506001600160a01b0387166000908152601b60205260408120805487929061427c908490615d30565b9250508190555084601c60008282546142959190615d30565b909155505082156142b0576142ab876001613b73565b6142c5565b6142ba8787614b0f565b6142c587858861525d565b6001600160a01b038088166000908152601360209081526040808320938a16835292905220829055613f9c87614734565b336143287f9016d09d72d40fdae2fd8ceac6b6234c7706214fd39c1cd1e609a0528c199300546001600160a01b031690565b6001600160a01b03161461247d5760405163118cdaa760e01b8152336004820152602401611884565b6001600160a01b0381166000908152601b60205260408120541580156122d85750506001600160a01b03166000908152601060205260409020541590565b6000613caa836001600160a01b038416615379565b6001600160a01b03821660009081526009602052604090206143c6908261438f565b506001600160a01b038083166000908152600f6020908152604080832093851683529290522054156143fc57611689828261546c565b611689828261548e565b8047101561442757604051631e9acf1760e31b815260040160405180910390fd5b6000826001600160a01b03168260405160006040518083038185875af1925050503d8060008114614474576040519150601f19603f3d011682016040523d82523d6000602084013e614479565b606091505b50509050806133b157604051630e21dcbb60e11b81526001600160a01b038416600482015260248101839052604401611884565b6144d160405180606001604052806000815260200160008152602001600081525090565b6015546000818152602080805260408083206001600160a01b03891680855290835281842054948452602183528184209084529091528120549060646145178688615d03565b6145219190615edd565b905061452d8187615ea8565b6040808601919091526001600160a01b0380891660009081526026602090815283822054602590915292902054161580159061456857508015155b1561458a5761271061457a8289615d03565b6145849190615edd565b60208601525b8383866040015161459b9190615d03565b6145a59190615edd565b60208601516145b49084615ea8565b6145be9190615d30565b855250929695505050505050565b6000836000036145de57506000613caa565b6001600160a01b0380841660009081526023602090815260408083209386168352929052205484900361463f57506001600160a01b038083166000908152602260209081526040808320938516835292815282822086835290522054613caa565b506001600160a01b038083166000908152601360209081526040808320938516835292905220549392505050565b6001600160a01b03808316600090815260256020908152604080832054600990925290912091169061469f9082614aed565b6146ad576146ad8382614b0f565b6001600160a01b038084166000908152601360209081526040808320938516835292905290812080548492906146e4908490615d30565b90915550506001600160a01b038084166000908152600b60209081526040808320938516835292815282822060155483529052908120805484929061472a908490615d30565b9091555050505050565b601d546040516253517560e01b81526001600160a01b03838116600483015260009216906253517590602401602060405180830381865afa15801561477d573d6000803e3d6000fd5b505050506040513d601f19601f820116820180604052508101906147a19190615eff565b60248054604051633941e77760e21b81526001600160a01b0380851660048301529394506000939091169163e5079ddc9101602060405180830381865afa1580156147f0573d6000803e3d6000fd5b505050506040513d601f19601f8201168201806040525081019061481491906160ac565b90506133b18382614c13565b6107d08111156148465760405163e429b69160e01b815260048101829052602401611884565b6001600160a01b03821615801561485c57508015155b1561488c5760405163073c315960e11b81526001600160a01b038316600482015260248101829052604401611884565b6001600160a01b03831660009081526027602052604090205480158015906148b5575060155481145b156148d95760155460405163e7cbc70160e01b815260040161188491815260200190565b6001600160a01b03848116600081815260256020908152604080832080546001600160a01b03191695891695861790556026825280832087905560155460278352928190209290925590518581527fd6ae57aa2cc060d4094c47d20c672afe0e53963e6459c15cab215abb8c88b863910160405180910390a350505050565b60008060ff1961498960017fdace3fd3d1fbdfd33853f19ba191d28c617e373ec58fc73cf7b58db5aff2c2ab615ea8565b60405160200161499b91815260200190565b60408051601f1981840301815291905280516020909101201692915050565b7f9016d09d72d40fdae2fd8ceac6b6234c7706214fd39c1cd1e609a0528c19930080546001600160a01b031981166001600160a01b03848116918217845560405192169182907f8be0079c531659141344cd1fd0a4f28419497f9722a3daafe3b4186f6b6457e090600090a3505050565b60006040825114614a4f576040516318dca5e960e21b815260040160405180910390fd5b602082015160408301518181811580614a6e57506401000003d0198210155b80614a77575080155b80614a8857506401000003d0198110155b15614aa6576040516379eb528360e11b815260040160405180910390fd5b60006401000003d019828309905060006401000003d01960076401000003d019866401000003d019888909090891909114979650505050505050565b805160209091012090565b6001600160a01b03811660009081526001830160205260408120541515613caa565b6001600160a01b0382166000908152600960205260409020614b319082614ebb565b50611689828261548e565b60408051600481526024810182526020810180517bffffffffffffffffffffffffffffffffffffffffffffffffffffffff166001600160e01b03198516179052905160009190829081903090614b939085906160c5565b600060405180830381855afa9150503d8060008114614bce576040519150601f19603f3d011682016040523d82523d6000602084013e614bd3565b606091505b509150915081614bf657604051635fbab09b60e11b815260040160405180910390fd5b80806020019051810190614c0a91906160ac565b95945050505050565b600080614c1f846154b0565b9150915081614c2e5750505050565b600060078281548110614c4357614c43615d1a565b60009182526020808320909101546001600160a01b0388168352601b9091526040822054909250614c75908690615d03565b90508060078481548110614c8b57614c8b615d1a565b90600052602060002001819055508082600854614ca89190615ea8565b614cb29190615d30565b600855505050505050565b7f9b779b17422d0df92223018b32b4d1fa46e071723d6817e2486d003becc55f00805460011901614d0157604051633ee5aeb560e01b815260040160405180910390fd5b60029055565b816001600160a01b0316816001600160a01b031603614e1457601d546040516253517560e01b81526001600160a01b03848116600483015260009216906253517590602401602060405180830381865afa158015614d69573d6000803e3d6000fd5b505050506040513d601f19601f82011682018060405250810190614d8d9190615eff565b601d5460405163facd743b60e01b81526001600160a01b03808416600483015292935091169063facd743b90602401602060405180830381865afa158015614dd9573d6000803e3d6000fd5b505050506040513d601f19601f82011682018060405250810190614dfd9190615ebb565b15614e0b576133b183613bd3565b6133b183613cb1565b614e1e82826143a4565b614e2782614351565b15611689576133b160028361438f565b60017f9b779b17422d0df92223018b32b4d1fa46e071723d6817e2486d003becc55f0055565b7ff0c57e16840df040f15088dc2f81fe391c3923bec73e23a9662efc9c229c6a005468010000000000000000900460ff1661247d57604051631afcd79f60e31b815260040160405180910390fd5b61391f614e5d565b614e37614e5d565b6000613caa836001600160a01b038416615522565b60006122d8825490565b6001600160a01b0381166000908152601260205260409020546006548082101580614f355750826001600160a01b031660068381548110614f1d57614f1d615d1a565b6000918252602090912001546001600160a01b031614155b15614fc6576001600160a01b03831660008181526012602052604081208390556006805460018181019092557ff652222313e28459528d920b65115c16c04f3efc82aaedc97be59f3f377c0d3f0180546001600160a01b03191690931790925560078054928301815581527fa66cc928b5edb82af9bd49922954155ab7b0942694bea4ce44661d9a8736c688909101555b6133b183615252565b60075460065414614fdd5750565b6001600160a01b038116600090815260126020526040902054600654811080156150365750816001600160a01b03166006828154811061501f5761501f615d1a565b6000918252602090912001546001600160a01b0316145b15611689576007818154811061504e5761504e615d1a565b90600052602060002001546008541061509b576007818154811061507457615074615d1a565b9060005260206000200154600860008282546150909190615ea8565b909155506150a19050565b60006008555b6006546000906150b390600190615ea8565b90506000600682815481106150ca576150ca615d1a565b600091825260209091200154600680546001600160a01b0390921692508291859081106150f9576150f9615d1a565b9060005260206000200160006101000a8154816001600160a01b0302191690836001600160a01b031602179055506007828154811061513a5761513a615d1a565b90600052602060002001546007848154811061515857615158615d1a565b60009182526020808320909101929092556001600160a01b03808416825260129092526040808220869055918616815290812055600680548061519d5761519d6160e1565b600082815260209020810160001990810180546001600160a01b031916905501905560078054806151d0576151d06160e1565b6001900381819060005260206000200160009055905550505050565b6060816000018054806020026020016040519081016040528092919081815260200182805480156122a857602002820191906000526020600020905b8154815260200190600101908083116152285750505050509050919050565b611689600282614ebb565b61168960048261438f565b601d5460405163a0d16cad60e01b81526001600160a01b0384811660048301529091169063a0d16cad90602401602060405180830381865afa1580156152a7573d6000803e3d6000fd5b505050506040513d601f19601f820116820180604052508101906152cb9190615ebb565b15806152d75750601554155b156152e157505050565b6001600160a01b03808416600090815260236020908152604080832093851683529290522054601554811015615373576001600160a01b0380851660008181526013602090815260408083209487168084529482528083205484845260228352818420868552835281842060158054865290845282852091909155549383526023825280832094835293905291909120555b50505050565b6000818152600183016020526040812054801561546257600061539d600183615ea8565b85549091506000906153b190600190615ea8565b90508082146154165760008660000182815481106153d1576153d1615d1a565b90600052602060002001549050808760000184815481106153f4576153f4615d1a565b6000918252602080832090910192909255918252600188019052604090208390555b8554869080615427576154276160e1565b6001900381819060005260206000200160009055905585600101600086815260200190815260200160002060009055600193505050506122d8565b60009150506122d8565b6001600160a01b0382166000908152600a602052604090206133b19082614ebb565b6001600160a01b0382166000908152600a602052604090206133b1908261438f565b6001600160a01b038116600090815260126020526040812054600654811080156155095750826001600160a01b0316600682815481106154f2576154f2615d1a565b6000918252602090912001546001600160a01b0316145b156155175760019150915091565b506000928392509050565b6000818152600183016020526040812054615569575081546001818101845560008481526020808220909301849055845484825282860190935260409020919091556122d8565b5060006122d8565b8280548282559060005260206000209081019282156155ac579160200282015b828111156155ac578251825591602001919060010190615591565b506155b89291506155d6565b5090565b5080546000825590600052602060002090810190611d2a91905b5b808211156155b857600081556001016155d7565b6001600160a01b0381168114611d2a57600080fd5b60008083601f84011261561257600080fd5b50813567ffffffffffffffff81111561562a57600080fd5b6020830191508360208260051b850101111561564557600080fd5b9250929050565b6000806000806000806080878903121561566557600080fd5b8635615670816155eb565b9550602087013567ffffffffffffffff8082111561568d57600080fd5b90880190610120828b0312156156a257600080fd5b909550604088013590808211156156b857600080fd5b6156c48a838b01615600565b909650945060608901359150808211156156dd57600080fd5b506156ea89828a01615600565b979a9699509497509295939492505050565b6000806040838503121561570f57600080fd5b823591506020830135615721816155eb565b809150509250929050565b60006020828403121561573e57600080fd5b8135613caa816155eb565b60008060006060848603121561575e57600080fd5b8335615769816155eb565b92506020840135615779816155eb565b929592945050506040919091013590565b60006020828403121561579c57600080fd5b5035919050565b600080604083850312156157b657600080fd5b82356157c1816155eb565b946020939093013593505050565b80356001600160e01b0319811681146157e757600080fd5b919050565b6000806000806060858703121561580257600080fd5b61580b856157cf565b9350615819602086016157cf565b9250604085013567ffffffffffffffff81111561583557600080fd5b61584187828801615600565b95989497509550505050565b60005b83811015615868578181015183820152602001615850565b50506000910152565b6000815180845261588981602086016020860161584d565b601f01601f19169290920160200192915050565b602081526000613caa6020830184615871565b6020808252825182820181905260009190848201906040850190845b818110156158f15783516001600160a01b0316835292840192918401916001016158cc565b50909695505050505050565b6000806040838503121561591057600080fd5b823561591b816155eb565b91506020830135615721816155eb565b80356fffffffffffffffffffffffffffffffff19811681146157e757600080fd5b80356001600160f01b0319811681146157e757600080fd5b60008060006060848603121561597957600080fd5b8335615984816155eb565b92506159926020850161592b565b91506159a06040850161594c565b90509250925092565b6000602082840312156159bb57600080fd5b613caa826157cf565b60008083601f8401126159d657600080fd5b50813567ffffffffffffffff8111156159ee57600080fd5b60208301915083602082850101111561564557600080fd5b60008060008060608587031215615a1c57600080fd5b843567ffffffffffffffff811115615a3357600080fd5b615a3f878288016159c4565b9095509350615a5290506020860161592b565b9150615a606040860161594c565b905092959194509250565b60008060008060008060a08789031215615a8457600080fd5b8635615a8f816155eb565b95506020870135615a9f816155eb565b945060408701359350606087013567ffffffffffffffff811115615ac257600080fd5b615ace89828a016159c4565b9094509250615ae190506080880161592b565b90509295509295509295565b60008151808452602080850194506020840160005b83811015615b1e57815187529582019590820190600101615b02565b509495945050505050565b604081526000615b3c6040830185615aed565b90508260208301529392505050565b606081526000615b5e6060830186615871565b6fffffffffffffffffffffffffffffffff19949094166020830152506001600160f01b031991909116604090910152919050565b634e487b7160e01b600052604160045260246000fd5b600060208284031215615bba57600080fd5b813567ffffffffffffffff80821115615bd257600080fd5b818401915084601f830112615be657600080fd5b813581811115615bf857615bf8615b92565b604051601f8201601f19908116603f01168101908382118183101715615c2057615c20615b92565b81604052828152876020848701011115615c3957600080fd5b826020860160208301376000928101602001929092525095945050505050565b602080825282516001600160e01b031916828201528201516040808301526000906129f46060840182615aed565b60008060408385031215615c9a57600080fd5b6157c1836157cf565b6000808335601e19843603018112615cba57600080fd5b83018035915067ffffffffffffffff821115615cd557600080fd5b6020019150600581901b360382131561564557600080fd5b634e487b7160e01b600052601160045260246000fd5b80820281158282048414176122d8576122d8615ced565b634e487b7160e01b600052603260045260246000fd5b808201808211156122d8576122d8615ced565b600181811c90821680615d5757607f821691505b602082108103615d7757634e487b7160e01b600052602260045260246000fd5b50919050565b601f8211156133b1576000816000526020600020601f850160051c81016020861015615da65750805b601f850160051c820191505b81811015615dc557828155600101615db2565b505050505050565b815167ffffffffffffffff811115615de757615de7615b92565b615dfb81615df58454615d43565b84615d7d565b602080601f831160018114615e305760008415615e185750858301515b600019600386901b1c1916600185901b178555615dc5565b600085815260208120601f198616915b82811015615e5f57888601518255948401946001909101908401615e40565b5085821015615e7d5787850151600019600388901b60f8161c191681555b5050505050600190811b01905550565b600060208284031215615e9f57600080fd5b613caa8261592b565b818103818111156122d8576122d8615ced565b600060208284031215615ecd57600080fd5b81518015158114613caa57600080fd5b600082615efa57634e487b7160e01b600052601260045260246000fd5b500490565b600060208284031215615f1157600080fd5b8151613caa816155eb565b6001600160e01b0319858116825284166020820152606060408201819052810182905260007f07ffffffffffffffffffffffffffffffffffffffffffffffffffffffffffffff831115615f6e57600080fd5b8260051b808560808501379190910160800195945050505050565b67ffffffffffffffff831115615fa157615fa1615b92565b615fb583615faf8354615d43565b83615d7d565b6000601f841160018114615fe95760008515615fd15750838201355b600019600387901b1c1916600186901b178355616043565b600083815260209020601f19861690835b8281101561601a5786850135825560209485019460019092019101615ffa565b50868210156160375760001960f88860031b161c19848701351681555b505060018560011b0183555b5050505050565b6000600160ff1b820161605f5761605f615ced565b5060000390565b60006001820161607857616078615ced565b5060010190565b6001600160e01b0319848116825283166020820152606060408201819052600090614c0a90830184615aed565b6000602082840312156160be57600080fd5b5051919050565b600082516160d781846020870161584d565b9190910192915050565b634e487b7160e01b600052603160045260246000fdfea26469706673582212203e8d92ef23522f30f7efa1ee608035e31ca32dfdf2ae6f91d2f986b799d2e17e64736f6c63430008190033",
  "linkReferences": {},
  "deployedLinkReferences": {}
}