{
  "_format": "hh-sol-artifact-1",
  "contractName": "StakingHbbftMock",
  "sourceName": "contracts/mockContracts/StakingHbbftMock.sol",
  "abi": [
    {
      "inputs": [
        {
          "internalType": "address",
          "name": "pool",
          "type": "address"
        },
        {
          "internalType": "address",
          "name": "staker",
          "type": "address"
        }
      ],
      "name": "CannotClaimWithdrawOrderYet",
      "type": "error"
    },
    {
      "inputs": [],
      "name": "GetterCallFailed",
      "type": "error"
    },
    {
      "inputs": [],
      "name": "InitialStakingPoolsListEmpty",
      "type": "error"
    },
    {
      "inputs": [],
      "name": "InsufficientBalance",
      "type": "error"
    },
    {
      "inputs": [
        {
          "internalType": "address",
          "name": "pool",
          "type": "address"
        },
        {
          "internalType": "address",
          "name": "delegator",
          "type": "address"
        }
      ],
      "name": "InsufficientStakeAmount",
      "type": "error"
    },
    {
      "inputs": [],
      "name": "InvalidFixedEpochDuration",
      "type": "error"
    },
    {
      "inputs": [
        {
          "internalType": "uint256",
          "name": "candidateStake",
          "type": "uint256"
        },
        {
          "internalType": "uint256",
          "name": "delegatorStake",
          "type": "uint256"
        }
      ],
      "name": "InvalidInitialStakeAmount",
      "type": "error"
    },
    {
      "inputs": [],
      "name": "InvalidInitialization",
      "type": "error"
    },
    {
      "inputs": [],
      "name": "InvalidIpAddressesCount",
      "type": "error"
    },
    {
      "inputs": [],
      "name": "InvalidMaxStakeAmount",
      "type": "error"
    },
    {
      "inputs": [],
      "name": "InvalidMoveStakePoolsAddress",
      "type": "error"
    },
    {
      "inputs": [
        {
          "internalType": "address",
          "name": "pool",
          "type": "address"
        },
        {
          "internalType": "address",
          "name": "delegator",
          "type": "address"
        },
        {
          "internalType": "int256",
          "name": "amount",
          "type": "int256"
        }
      ],
      "name": "InvalidOrderWithdrawAmount",
      "type": "error"
    },
    {
      "inputs": [],
      "name": "InvalidPublicKeysCount",
      "type": "error"
    },
    {
      "inputs": [],
      "name": "InvalidStakingFixedEpochDuration",
      "type": "error"
    },
    {
      "inputs": [],
      "name": "InvalidStakingTransitionTimeframe",
      "type": "error"
    },
    {
      "inputs": [],
      "name": "InvalidTransitionTimeFrame",
      "type": "error"
    },
    {
      "inputs": [
        {
          "internalType": "address",
          "name": "pool",
          "type": "address"
        },
        {
          "internalType": "address",
          "name": "delegator",
          "type": "address"
        },
        {
          "internalType": "uint256",
          "name": "amount",
          "type": "uint256"
        }
      ],
      "name": "InvalidWithdrawAmount",
      "type": "error"
    },
    {
      "inputs": [
        {
          "internalType": "uint256",
          "name": "allowed",
          "type": "uint256"
        },
        {
          "internalType": "uint256",
          "name": "desired",
          "type": "uint256"
        }
      ],
      "name": "MaxAllowedWithdrawExceeded",
      "type": "error"
    },
    {
      "inputs": [],
      "name": "MaxPoolsCountExceeded",
      "type": "error"
    },
    {
      "inputs": [
        {
          "internalType": "uint256",
          "name": "_newVal",
          "type": "uint256"
        }
      ],
      "name": "NewValueOutOfRange",
      "type": "error"
    },
    {
      "inputs": [],
      "name": "NoStakesToRecover",
      "type": "error"
    },
    {
      "inputs": [],
      "name": "NotInitializing",
      "type": "error"
    },
    {
      "inputs": [],
      "name": "NotPayable",
      "type": "error"
    },
    {
      "inputs": [
        {
          "internalType": "address",
          "name": "owner",
          "type": "address"
        }
      ],
      "name": "OwnableInvalidOwner",
      "type": "error"
    },
    {
      "inputs": [
        {
          "internalType": "address",
          "name": "account",
          "type": "address"
        }
      ],
      "name": "OwnableUnauthorizedAccount",
      "type": "error"
    },
    {
      "inputs": [
        {
          "internalType": "address",
          "name": "pool",
          "type": "address"
        }
      ],
      "name": "PoolAbandoned",
      "type": "error"
    },
    {
      "inputs": [
        {
          "internalType": "address",
          "name": "pool",
          "type": "address"
        }
      ],
      "name": "PoolCannotBeRemoved",
      "type": "error"
    },
    {
      "inputs": [
        {
          "internalType": "address",
          "name": "pool",
          "type": "address"
        }
      ],
      "name": "PoolEmpty",
      "type": "error"
    },
    {
      "inputs": [
        {
          "internalType": "address",
          "name": "pool",
          "type": "address"
        }
      ],
      "name": "PoolMiningBanned",
      "type": "error"
    },
    {
      "inputs": [
        {
          "internalType": "address",
          "name": "pool",
          "type": "address"
        }
      ],
      "name": "PoolNotExist",
      "type": "error"
    },
    {
      "inputs": [
        {
          "internalType": "address",
          "name": "pool",
          "type": "address"
        },
        {
          "internalType": "address",
          "name": "delegator",
          "type": "address"
        }
      ],
      "name": "PoolStakeLimitExceeded",
      "type": "error"
    },
    {
      "inputs": [],
      "name": "ReentrancyGuardReentrantCall",
      "type": "error"
    },
    {
      "inputs": [
        {
          "internalType": "address",
          "name": "recipient",
          "type": "address"
        },
        {
          "internalType": "uint256",
          "name": "amount",
          "type": "uint256"
        }
      ],
      "name": "TransferFailed",
      "type": "error"
    },
    {
      "inputs": [],
      "name": "Unauthorized",
      "type": "error"
    },
    {
      "inputs": [],
      "name": "WithdrawNotAllowed",
      "type": "error"
    },
    {
      "inputs": [],
      "name": "ZeroAddress",
      "type": "error"
    },
    {
      "inputs": [],
      "name": "ZeroGasPrice",
      "type": "error"
    },
    {
      "inputs": [],
      "name": "ZeroWidthrawAmount",
      "type": "error"
    },
    {
      "inputs": [],
      "name": "ZeroWidthrawDisallowPeriod",
      "type": "error"
    },
    {
      "anonymous": false,
      "inputs": [
        {
          "indexed": true,
          "internalType": "address",
          "name": "fromPoolStakingAddress",
          "type": "address"
        },
        {
          "indexed": true,
          "internalType": "address",
          "name": "staker",
          "type": "address"
        },
        {
          "indexed": true,
          "internalType": "uint256",
          "name": "stakingEpoch",
          "type": "uint256"
        },
        {
          "indexed": false,
          "internalType": "uint256",
          "name": "amount",
          "type": "uint256"
        }
      ],
      "name": "ClaimedOrderedWithdrawal",
      "type": "event"
    },
    {
      "anonymous": false,
      "inputs": [
        {
          "indexed": true,
          "internalType": "address",
          "name": "caller",
          "type": "address"
        },
        {
          "indexed": true,
          "internalType": "address",
          "name": "stakingAddress",
          "type": "address"
        },
        {
          "indexed": false,
          "internalType": "uint256",
          "name": "gatheredFunds",
          "type": "uint256"
        }
      ],
      "name": "GatherAbandonedStakes",
      "type": "event"
    },
    {
      "anonymous": false,
      "inputs": [
        {
          "indexed": false,
          "internalType": "uint64",
          "name": "version",
          "type": "uint64"
        }
      ],
      "name": "Initialized",
      "type": "event"
    },
    {
      "anonymous": false,
      "inputs": [
        {
          "indexed": false,
          "internalType": "address",
          "name": "fromPoolStakingAddress",
          "type": "address"
        },
        {
          "indexed": true,
          "internalType": "address",
          "name": "toPoolStakingAddress",
          "type": "address"
        },
        {
          "indexed": true,
          "internalType": "address",
          "name": "staker",
          "type": "address"
        },
        {
          "indexed": true,
          "internalType": "uint256",
          "name": "stakingEpoch",
          "type": "uint256"
        },
        {
          "indexed": false,
          "internalType": "uint256",
          "name": "amount",
          "type": "uint256"
        }
      ],
      "name": "MovedStake",
      "type": "event"
    },
    {
      "anonymous": false,
      "inputs": [
        {
          "indexed": true,
          "internalType": "address",
          "name": "fromPoolStakingAddress",
          "type": "address"
        },
        {
          "indexed": true,
          "internalType": "address",
          "name": "staker",
          "type": "address"
        },
        {
          "indexed": true,
          "internalType": "uint256",
          "name": "stakingEpoch",
          "type": "uint256"
        },
        {
          "indexed": false,
          "internalType": "int256",
          "name": "amount",
          "type": "int256"
        }
      ],
      "name": "OrderedWithdrawal",
      "type": "event"
    },
    {
      "anonymous": false,
      "inputs": [
        {
          "indexed": true,
          "internalType": "address",
          "name": "previousOwner",
          "type": "address"
        },
        {
          "indexed": true,
          "internalType": "address",
          "name": "newOwner",
          "type": "address"
        }
      ],
      "name": "OwnershipTransferred",
      "type": "event"
    },
    {
      "anonymous": false,
      "inputs": [
        {
          "indexed": true,
          "internalType": "address",
          "name": "toPoolStakingAddress",
          "type": "address"
        },
        {
          "indexed": true,
          "internalType": "address",
          "name": "staker",
          "type": "address"
        },
        {
          "indexed": true,
          "internalType": "uint256",
          "name": "stakingEpoch",
          "type": "uint256"
        },
        {
          "indexed": false,
          "internalType": "uint256",
          "name": "amount",
          "type": "uint256"
        }
      ],
      "name": "PlacedStake",
      "type": "event"
    },
    {
      "anonymous": false,
      "inputs": [
        {
          "indexed": true,
          "internalType": "address",
          "name": "caller",
          "type": "address"
        },
        {
          "indexed": false,
          "internalType": "uint256",
          "name": "reinsertShare",
          "type": "uint256"
        },
        {
          "indexed": false,
          "internalType": "uint256",
          "name": "governanceShare",
          "type": "uint256"
        }
      ],
      "name": "RecoverAbandonedStakes",
      "type": "event"
    },
    {
      "anonymous": false,
      "inputs": [
        {
          "indexed": false,
          "internalType": "string",
          "name": "funcSelector",
          "type": "string"
        }
      ],
      "name": "RemoveChangeAbleParameter",
      "type": "event"
    },
    {
      "anonymous": false,
      "inputs": [
        {
          "indexed": true,
          "internalType": "address",
          "name": "poolStakingAddress",
          "type": "address"
        },
        {
          "indexed": true,
          "internalType": "uint256",
          "name": "stakingEpoch",
          "type": "uint256"
        },
        {
          "indexed": false,
          "internalType": "uint256",
          "name": "validatorReward",
          "type": "uint256"
        },
        {
          "indexed": false,
          "internalType": "uint256",
          "name": "delegatorsReward",
          "type": "uint256"
        }
      ],
      "name": "RestakeReward",
      "type": "event"
    },
    {
      "anonymous": false,
      "inputs": [
        {
          "indexed": false,
          "internalType": "string",
          "name": "setter",
          "type": "string"
        },
        {
          "indexed": false,
          "internalType": "string",
          "name": "getter",
          "type": "string"
        },
        {
          "indexed": false,
          "internalType": "uint256[]",
          "name": "params",
          "type": "uint256[]"
        }
      ],
      "name": "SetChangeAbleParameter",
      "type": "event"
    },
    {
      "anonymous": false,
      "inputs": [
        {
          "indexed": false,
          "internalType": "uint256",
          "name": "minStake",
          "type": "uint256"
        }
      ],
      "name": "SetDelegatorMinStake",
      "type": "event"
    },
    {
      "anonymous": false,
      "inputs": [
        {
          "indexed": true,
          "internalType": "address",
          "name": "fromPoolStakingAddress",
          "type": "address"
        },
        {
          "indexed": true,
          "internalType": "address",
          "name": "staker",
          "type": "address"
        },
        {
          "indexed": true,
          "internalType": "uint256",
          "name": "stakingEpoch",
          "type": "uint256"
        },
        {
          "indexed": false,
          "internalType": "uint256",
          "name": "amount",
          "type": "uint256"
        }
      ],
      "name": "WithdrewStake",
      "type": "event"
    },
    {
      "inputs": [],
      "name": "MAX_CANDIDATES",
      "outputs": [
        {
          "internalType": "uint256",
          "name": "",
          "type": "uint256"
        }
      ],
      "stateMutability": "view",
      "type": "function"
    },
    {
      "inputs": [
        {
          "internalType": "address",
          "name": "",
          "type": "address"
        }
      ],
      "name": "abandonedAndRemoved",
      "outputs": [
        {
          "internalType": "bool",
          "name": "",
          "type": "bool"
        }
      ],
      "stateMutability": "view",
      "type": "function"
    },
    {
      "inputs": [],
      "name": "addBalance",
      "outputs": [],
      "stateMutability": "payable",
      "type": "function"
    },
    {
      "inputs": [
        {
          "internalType": "address",
          "name": "_miningAddress",
          "type": "address"
        },
        {
          "internalType": "bytes",
          "name": "_publicKey",
          "type": "bytes"
        },
        {
          "internalType": "bytes16",
          "name": "_ip",
          "type": "bytes16"
        }
      ],
      "name": "addPool",
      "outputs": [],
      "stateMutability": "payable",
      "type": "function"
    },
    {
      "inputs": [
        {
          "internalType": "address",
          "name": "_stakingAddress",
          "type": "address"
        }
      ],
      "name": "addPoolActiveMock",
      "outputs": [],
      "stateMutability": "nonpayable",
      "type": "function"
    },
    {
      "inputs": [
        {
          "internalType": "address",
          "name": "_stakingAddress",
          "type": "address"
        }
      ],
      "name": "addPoolInactiveMock",
      "outputs": [],
      "stateMutability": "nonpayable",
      "type": "function"
    },
    {
      "inputs": [
        {
          "internalType": "bytes4",
          "name": "",
          "type": "bytes4"
        }
      ],
      "name": "allowedParameterRange",
      "outputs": [
        {
          "internalType": "bytes4",
          "name": "getter",
          "type": "bytes4"
        }
      ],
      "stateMutability": "view",
      "type": "function"
    },
    {
      "inputs": [],
      "name": "areStakeAndWithdrawAllowed",
      "outputs": [
        {
          "internalType": "bool",
          "name": "",
          "type": "bool"
        }
      ],
      "stateMutability": "pure",
      "type": "function"
    },
    {
      "inputs": [],
      "name": "candidateMinStake",
      "outputs": [
        {
          "internalType": "uint256",
          "name": "",
          "type": "uint256"
        }
      ],
      "stateMutability": "view",
      "type": "function"
    },
    {
      "inputs": [
        {
          "internalType": "address",
          "name": "_poolStakingAddress",
          "type": "address"
        }
      ],
      "name": "claimOrderedWithdraw",
      "outputs": [],
      "stateMutability": "nonpayable",
      "type": "function"
    },
    {
      "inputs": [
        {
          "internalType": "address",
          "name": "pool",
          "type": "address"
        },
        {
          "internalType": "address",
          "name": "delegator",
          "type": "address"
        },
        {
          "internalType": "uint256",
          "name": "epoch",
          "type": "uint256"
        }
      ],
      "name": "clearDelegatorStakeSnapshot",
      "outputs": [],
      "stateMutability": "nonpayable",
      "type": "function"
    },
    {
      "inputs": [],
      "name": "currentKeyGenExtraTimeWindow",
      "outputs": [
        {
          "internalType": "uint256",
          "name": "",
          "type": "uint256"
        }
      ],
      "stateMutability": "view",
      "type": "function"
    },
    {
      "inputs": [],
      "name": "delegatorMinStake",
      "outputs": [
        {
          "internalType": "uint256",
          "name": "",
          "type": "uint256"
        }
      ],
      "stateMutability": "view",
      "type": "function"
    },
    {
      "inputs": [
        {
          "internalType": "string",
          "name": "_selector",
          "type": "string"
        }
      ],
      "name": "getAllowedParamsRange",
      "outputs": [
        {
          "components": [
            {
              "internalType": "bytes4",
              "name": "getter",
              "type": "bytes4"
            },
            {
              "internalType": "uint256[]",
              "name": "range",
              "type": "uint256[]"
            }
          ],
          "internalType": "struct ValueGuards.ParameterRange",
          "name": "",
          "type": "tuple"
        }
      ],
      "stateMutability": "view",
      "type": "function"
    },
    {
      "inputs": [
        {
          "internalType": "address",
          "name": "pool",
          "type": "address"
        },
        {
          "internalType": "address",
          "name": "delegator",
          "type": "address"
        },
        {
          "internalType": "uint256",
          "name": "epoch",
          "type": "uint256"
        }
      ],
      "name": "getDelegatorStakeSnapshot",
      "outputs": [
        {
          "internalType": "uint256",
          "name": "",
          "type": "uint256"
        }
      ],
      "stateMutability": "view",
      "type": "function"
    },
    {
      "inputs": [],
      "name": "getMaxCandidates",
      "outputs": [
        {
          "internalType": "uint256",
          "name": "",
          "type": "uint256"
        }
      ],
      "stateMutability": "pure",
      "type": "function"
    },
    {
      "inputs": [
        {
          "internalType": "address",
          "name": "_poolAddress",
          "type": "address"
        }
      ],
      "name": "getPoolInternetAddress",
      "outputs": [
        {
          "internalType": "bytes16",
          "name": "",
          "type": "bytes16"
        },
        {
          "internalType": "bytes2",
          "name": "",
          "type": "bytes2"
        }
      ],
      "stateMutability": "view",
      "type": "function"
    },
    {
      "inputs": [
        {
          "internalType": "address",
          "name": "_poolAddress",
          "type": "address"
        }
      ],
      "name": "getPoolPublicKey",
      "outputs": [
        {
          "internalType": "bytes",
          "name": "",
          "type": "bytes"
        }
      ],
      "stateMutability": "view",
      "type": "function"
    },
    {
      "inputs": [
        {
          "internalType": "uint256",
          "name": "_epoch",
          "type": "uint256"
        },
        {
          "internalType": "address",
          "name": "_stakingPool",
          "type": "address"
        }
      ],
      "name": "getPoolValidatorStakeAmount",
      "outputs": [
        {
          "internalType": "uint256",
          "name": "",
          "type": "uint256"
        }
      ],
      "stateMutability": "view",
      "type": "function"
    },
    {
      "inputs": [],
      "name": "getPools",
      "outputs": [
        {
          "internalType": "address[]",
          "name": "",
          "type": "address[]"
        }
      ],
      "stateMutability": "view",
      "type": "function"
    },
    {
      "inputs": [],
      "name": "getPoolsInactive",
      "outputs": [
        {
          "internalType": "address[]",
          "name": "",
          "type": "address[]"
        }
      ],
      "stateMutability": "view",
      "type": "function"
    },
    {
      "inputs": [],
      "name": "getPoolsLikelihood",
      "outputs": [
        {
          "internalType": "uint256[]",
          "name": "likelihoods",
          "type": "uint256[]"
        },
        {
          "internalType": "uint256",
          "name": "sum",
          "type": "uint256"
        }
      ],
      "stateMutability": "view",
      "type": "function"
    },
    {
      "inputs": [],
      "name": "getPoolsToBeElected",
      "outputs": [
        {
          "internalType": "address[]",
          "name": "",
          "type": "address[]"
        }
      ],
      "stateMutability": "view",
      "type": "function"
    },
    {
      "inputs": [],
      "name": "getPoolsToBeRemoved",
      "outputs": [
        {
          "internalType": "address[]",
          "name": "",
          "type": "address[]"
        }
      ],
      "stateMutability": "view",
      "type": "function"
    },
    {
      "inputs": [
        {
          "internalType": "address",
          "name": "pool",
          "type": "address"
        },
        {
          "internalType": "address",
          "name": "delegator",
          "type": "address"
        }
      ],
      "name": "getStakeSnapshotLastEpoch",
      "outputs": [
        {
          "internalType": "uint256",
          "name": "",
          "type": "uint256"
        }
      ],
      "stateMutability": "view",
      "type": "function"
    },
    {
      "inputs": [],
      "name": "incrementStakingEpoch",
      "outputs": [],
      "stateMutability": "nonpayable",
      "type": "function"
    },
    {
      "inputs": [
        {
          "internalType": "string",
          "name": "setter",
          "type": "string"
        },
        {
          "internalType": "string",
          "name": "getter",
          "type": "string"
        },
        {
          "internalType": "uint256[]",
          "name": "params",
          "type": "uint256[]"
        }
      ],
      "name": "initAllowedChangeableParameter",
      "outputs": [],
      "stateMutability": "nonpayable",
      "type": "function"
    },
    {
      "inputs": [
        {
          "internalType": "address",
          "name": "_contractOwner",
          "type": "address"
        },
        {
          "components": [
            {
              "internalType": "address",
              "name": "_validatorSetContract",
              "type": "address"
            },
            {
              "internalType": "address[]",
              "name": "_initialStakingAddresses",
              "type": "address[]"
            },
            {
              "internalType": "uint256",
              "name": "_delegatorMinStake",
              "type": "uint256"
            },
            {
              "internalType": "uint256",
              "name": "_candidateMinStake",
              "type": "uint256"
            },
            {
              "internalType": "uint256",
              "name": "_maxStake",
              "type": "uint256"
            },
            {
              "internalType": "uint256",
              "name": "_stakingFixedEpochDuration",
              "type": "uint256"
            },
            {
              "internalType": "uint256",
              "name": "_stakingTransitionTimeframeLength",
              "type": "uint256"
            },
            {
              "internalType": "uint256",
              "name": "_stakingWithdrawDisallowPeriod",
              "type": "uint256"
            }
          ],
          "internalType": "struct IStakingHbbft.StakingParams",
          "name": "stakingParams",
          "type": "tuple"
        },
        {
          "internalType": "bytes32[]",
          "name": "_publicKeys",
          "type": "bytes32[]"
        },
        {
          "internalType": "bytes16[]",
          "name": "_internetAddresses",
          "type": "bytes16[]"
        }
      ],
      "name": "initialize",
      "outputs": [],
      "stateMutability": "nonpayable",
      "type": "function"
    },
    {
      "inputs": [
        {
          "internalType": "address",
          "name": "_stakingAddress",
          "type": "address"
        }
      ],
      "name": "isPoolActive",
      "outputs": [
        {
          "internalType": "bool",
          "name": "",
          "type": "bool"
        }
      ],
      "stateMutability": "view",
      "type": "function"
    },
    {
      "inputs": [
        {
          "internalType": "bytes4",
          "name": "funcSelector",
          "type": "bytes4"
        },
        {
          "internalType": "uint256",
          "name": "newVal",
          "type": "uint256"
        }
      ],
      "name": "isWithinAllowedRange",
      "outputs": [
        {
          "internalType": "bool",
          "name": "",
          "type": "bool"
        }
      ],
      "stateMutability": "view",
      "type": "function"
    },
    {
      "inputs": [],
      "name": "maxStakeAmount",
      "outputs": [
        {
          "internalType": "uint256",
          "name": "",
          "type": "uint256"
        }
      ],
      "stateMutability": "view",
      "type": "function"
    },
    {
      "inputs": [
        {
          "internalType": "address",
          "name": "_poolStakingAddress",
          "type": "address"
        },
        {
          "internalType": "address",
          "name": "_staker",
          "type": "address"
        }
      ],
      "name": "maxWithdrawAllowed",
      "outputs": [
        {
          "internalType": "uint256",
          "name": "",
          "type": "uint256"
        }
      ],
      "stateMutability": "view",
      "type": "function"
    },
    {
      "inputs": [
        {
          "internalType": "address",
          "name": "_poolStakingAddress",
          "type": "address"
        },
        {
          "internalType": "address",
          "name": "_staker",
          "type": "address"
        }
      ],
      "name": "maxWithdrawOrderAllowed",
      "outputs": [
        {
          "internalType": "uint256",
          "name": "",
          "type": "uint256"
        }
      ],
      "stateMutability": "view",
      "type": "function"
    },
    {
      "inputs": [
        {
          "internalType": "address",
          "name": "_fromPoolStakingAddress",
          "type": "address"
        },
        {
          "internalType": "address",
          "name": "_toPoolStakingAddress",
          "type": "address"
        },
        {
          "internalType": "uint256",
          "name": "_amount",
          "type": "uint256"
        }
      ],
      "name": "moveStake",
      "outputs": [],
      "stateMutability": "nonpayable",
      "type": "function"
    },
    {
      "inputs": [
        {
          "internalType": "address",
          "name": "_stakingAddress",
          "type": "address"
        }
      ],
      "name": "notifyAvailability",
      "outputs": [],
      "stateMutability": "nonpayable",
      "type": "function"
    },
    {
      "inputs": [],
      "name": "notifyKeyGenFailed",
      "outputs": [],
      "stateMutability": "nonpayable",
      "type": "function"
    },
    {
      "inputs": [
        {
          "internalType": "uint256",
          "name": "detectedOfflineTime",
          "type": "uint256"
        }
      ],
      "name": "notifyNetworkOfftimeDetected",
      "outputs": [],
      "stateMutability": "nonpayable",
      "type": "function"
    },
    {
      "inputs": [
        {
          "internalType": "address",
          "name": "_poolStakingAddress",
          "type": "address"
        },
        {
          "internalType": "int256",
          "name": "_amount",
          "type": "int256"
        }
      ],
      "name": "orderWithdraw",
      "outputs": [],
      "stateMutability": "nonpayable",
      "type": "function"
    },
    {
      "inputs": [
        {
          "internalType": "address",
          "name": "",
          "type": "address"
        },
        {
          "internalType": "address",
          "name": "",
          "type": "address"
        }
      ],
      "name": "orderWithdrawEpoch",
      "outputs": [
        {
          "internalType": "uint256",
          "name": "",
          "type": "uint256"
        }
      ],
      "stateMutability": "view",
      "type": "function"
    },
    {
      "inputs": [
        {
          "internalType": "address",
          "name": "",
          "type": "address"
        },
        {
          "internalType": "address",
          "name": "",
          "type": "address"
        }
      ],
      "name": "orderedWithdrawAmount",
      "outputs": [
        {
          "internalType": "uint256",
          "name": "",
          "type": "uint256"
        }
      ],
      "stateMutability": "view",
      "type": "function"
    },
    {
      "inputs": [
        {
          "internalType": "address",
          "name": "",
          "type": "address"
        }
      ],
      "name": "orderedWithdrawAmountTotal",
      "outputs": [
        {
          "internalType": "uint256",
          "name": "",
          "type": "uint256"
        }
      ],
      "stateMutability": "view",
      "type": "function"
    },
    {
      "inputs": [],
      "name": "owner",
      "outputs": [
        {
          "internalType": "address",
          "name": "",
          "type": "address"
        }
      ],
      "stateMutability": "view",
      "type": "function"
    },
    {
      "inputs": [
        {
          "internalType": "address",
          "name": "_poolStakingAddress",
          "type": "address"
        }
      ],
      "name": "poolDelegators",
      "outputs": [
        {
          "internalType": "address[]",
          "name": "",
          "type": "address[]"
        }
      ],
      "stateMutability": "view",
      "type": "function"
    },
    {
      "inputs": [
        {
          "internalType": "address",
          "name": "_poolStakingAddress",
          "type": "address"
        }
      ],
      "name": "poolDelegatorsInactive",
      "outputs": [
        {
          "internalType": "address[]",
          "name": "",
          "type": "address[]"
        }
      ],
      "stateMutability": "view",
      "type": "function"
    },
    {
      "inputs": [
        {
          "internalType": "address",
          "name": "",
          "type": "address"
        }
      ],
      "name": "poolInfo",
      "outputs": [
        {
          "internalType": "bytes",
          "name": "publicKey",
          "type": "bytes"
        },
        {
          "internalType": "bytes16",
          "name": "internetAddress",
          "type": "bytes16"
        },
        {
          "internalType": "bytes2",
          "name": "port",
          "type": "bytes2"
        }
      ],
      "stateMutability": "view",
      "type": "function"
    },
    {
      "inputs": [
        {
          "internalType": "address",
          "name": "",
          "type": "address"
        }
      ],
      "name": "poolToBeElectedIndex",
      "outputs": [
        {
          "internalType": "uint256",
          "name": "",
          "type": "uint256"
        }
      ],
      "stateMutability": "view",
      "type": "function"
    },
    {
      "inputs": [],
      "name": "recoverAbandonedStakes",
      "outputs": [],
      "stateMutability": "nonpayable",
      "type": "function"
    },
    {
      "inputs": [
        {
          "internalType": "string",
          "name": "funcSelector",
          "type": "string"
        }
      ],
      "name": "removeAllowedChangeableParameter",
      "outputs": [],
      "stateMutability": "nonpayable",
      "type": "function"
    },
    {
      "inputs": [],
      "name": "removeMyPool",
      "outputs": [],
      "stateMutability": "nonpayable",
      "type": "function"
    },
    {
      "inputs": [
        {
          "internalType": "address",
          "name": "_stakingAddress",
          "type": "address"
        }
      ],
      "name": "removePool",
      "outputs": [],
      "stateMutability": "nonpayable",
      "type": "function"
    },
    {
      "inputs": [],
      "name": "removePools",
      "outputs": [],
      "stateMutability": "nonpayable",
      "type": "function"
    },
    {
      "inputs": [],
      "name": "renounceOwnership",
      "outputs": [],
      "stateMutability": "nonpayable",
      "type": "function"
    },
    {
      "inputs": [
        {
          "internalType": "address",
          "name": "_poolStakingAddress",
          "type": "address"
        },
        {
          "internalType": "uint256",
          "name": "_validatorMinRewardPercent",
          "type": "uint256"
        }
      ],
      "name": "restake",
      "outputs": [],
      "stateMutability": "payable",
      "type": "function"
    },
    {
      "inputs": [
        {
          "internalType": "string",
          "name": "setter",
          "type": "string"
        },
        {
          "internalType": "string",
          "name": "getter",
          "type": "string"
        },
        {
          "internalType": "uint256[]",
          "name": "params",
          "type": "uint256[]"
        }
      ],
      "name": "setAllowedChangeableParameter",
      "outputs": [],
      "stateMutability": "nonpayable",
      "type": "function"
    },
    {
      "inputs": [
        {
          "internalType": "uint256",
          "name": "_minStake",
          "type": "uint256"
        }
      ],
      "name": "setDelegatorMinStake",
      "outputs": [],
      "stateMutability": "nonpayable",
      "type": "function"
    },
    {
      "inputs": [
        {
          "internalType": "bytes",
          "name": "_publicKey",
          "type": "bytes"
        },
        {
          "internalType": "bytes16",
          "name": "_ip",
          "type": "bytes16"
        },
        {
          "internalType": "bytes2",
          "name": "_port",
          "type": "bytes2"
        }
      ],
      "name": "setPoolInfo",
      "outputs": [],
      "stateMutability": "nonpayable",
      "type": "function"
    },
    {
      "inputs": [
        {
          "internalType": "address",
          "name": "_poolStakingAddress",
          "type": "address"
        },
        {
          "internalType": "uint256",
          "name": "_amount",
          "type": "uint256"
        }
      ],
      "name": "setStakeAmountTotal",
      "outputs": [],
      "stateMutability": "nonpayable",
      "type": "function"
    },
    {
      "inputs": [
        {
          "internalType": "uint256",
          "name": "_stakingEpoch",
          "type": "uint256"
        }
      ],
      "name": "setStakingEpoch",
      "outputs": [],
      "stateMutability": "nonpayable",
      "type": "function"
    },
    {
      "inputs": [
        {
          "internalType": "uint256",
          "name": "_timestamp",
          "type": "uint256"
        }
      ],
      "name": "setStakingEpochStartTime",
      "outputs": [],
      "stateMutability": "nonpayable",
      "type": "function"
    },
    {
      "inputs": [
        {
          "internalType": "uint256",
          "name": "_value",
          "type": "uint256"
        }
      ],
      "name": "setStakingFixedEpochDuration",
      "outputs": [],
      "stateMutability": "nonpayable",
      "type": "function"
    },
    {
      "inputs": [
        {
          "internalType": "uint256",
          "name": "_value",
          "type": "uint256"
        }
      ],
      "name": "setStakingTransitionTimeframeLength",
      "outputs": [],
      "stateMutability": "nonpayable",
      "type": "function"
    },
    {
      "inputs": [
        {
          "internalType": "address",
          "name": "_validatorAddress",
          "type": "address"
        },
        {
          "internalType": "bytes16",
          "name": "_ip",
          "type": "bytes16"
        },
        {
          "internalType": "bytes2",
          "name": "_port",
          "type": "bytes2"
        }
      ],
      "name": "setValidatorInternetAddress",
      "outputs": [],
      "stateMutability": "nonpayable",
      "type": "function"
    },
    {
      "inputs": [
        {
          "internalType": "contract IValidatorSetHbbft",
          "name": "_validatorSetAddress",
          "type": "address"
        }
      ],
      "name": "setValidatorMockSetAddress",
      "outputs": [],
      "stateMutability": "nonpayable",
      "type": "function"
    },
    {
      "inputs": [
        {
          "internalType": "contract IValidatorSetHbbft",
          "name": "_validatorSetAddress",
          "type": "address"
        }
      ],
      "name": "setValidatorSetAddress",
      "outputs": [],
      "stateMutability": "nonpayable",
      "type": "function"
    },
    {
      "inputs": [
        {
          "internalType": "uint256",
          "name": "_epoch",
          "type": "uint256"
        },
        {
          "internalType": "address",
          "name": "_stakingPool",
          "type": "address"
        }
      ],
      "name": "snapshotPoolStakeAmounts",
      "outputs": [],
      "stateMutability": "nonpayable",
      "type": "function"
    },
    {
      "inputs": [
        {
          "internalType": "uint256",
          "name": "",
          "type": "uint256"
        },
        {
          "internalType": "address",
          "name": "",
          "type": "address"
        }
      ],
      "name": "snapshotPoolTotalStakeAmount",
      "outputs": [
        {
          "internalType": "uint256",
          "name": "",
          "type": "uint256"
        }
      ],
      "stateMutability": "view",
      "type": "function"
    },
    {
      "inputs": [
        {
          "internalType": "uint256",
          "name": "",
          "type": "uint256"
        },
        {
          "internalType": "address",
          "name": "",
          "type": "address"
        }
      ],
      "name": "snapshotPoolValidatorStakeAmount",
      "outputs": [
        {
          "internalType": "uint256",
          "name": "",
          "type": "uint256"
        }
      ],
      "stateMutability": "view",
      "type": "function"
    },
    {
      "inputs": [
        {
          "internalType": "address",
          "name": "_toPoolStakingAddress",
          "type": "address"
        }
      ],
      "name": "stake",
      "outputs": [],
      "stateMutability": "payable",
      "type": "function"
    },
    {
      "inputs": [
        {
          "internalType": "address",
          "name": "",
          "type": "address"
        },
        {
          "internalType": "address",
          "name": "",
          "type": "address"
        }
      ],
      "name": "stakeAmount",
      "outputs": [
        {
          "internalType": "uint256",
          "name": "",
          "type": "uint256"
        }
      ],
      "stateMutability": "view",
      "type": "function"
    },
    {
      "inputs": [
        {
          "internalType": "address",
          "name": "_poolStakingAddress",
          "type": "address"
        },
        {
          "internalType": "address",
          "name": "_staker",
          "type": "address"
        }
      ],
      "name": "stakeAmountByCurrentEpoch",
      "outputs": [
        {
          "internalType": "uint256",
          "name": "",
          "type": "uint256"
        }
      ],
      "stateMutability": "view",
      "type": "function"
    },
    {
      "inputs": [
        {
          "internalType": "address",
          "name": "",
          "type": "address"
        }
      ],
      "name": "stakeAmountTotal",
      "outputs": [
        {
          "internalType": "uint256",
          "name": "",
          "type": "uint256"
        }
      ],
      "stateMutability": "view",
      "type": "function"
    },
    {
      "inputs": [],
      "name": "stakingEpoch",
      "outputs": [
        {
          "internalType": "uint256",
          "name": "",
          "type": "uint256"
        }
      ],
      "stateMutability": "view",
      "type": "function"
    },
    {
      "inputs": [],
      "name": "stakingEpochStartBlock",
      "outputs": [
        {
          "internalType": "uint256",
          "name": "",
          "type": "uint256"
        }
      ],
      "stateMutability": "view",
      "type": "function"
    },
    {
      "inputs": [],
      "name": "stakingEpochStartTime",
      "outputs": [
        {
          "internalType": "uint256",
          "name": "",
          "type": "uint256"
        }
      ],
      "stateMutability": "view",
      "type": "function"
    },
    {
      "inputs": [],
      "name": "stakingFixedEpochDuration",
      "outputs": [
        {
          "internalType": "uint256",
          "name": "",
          "type": "uint256"
        }
      ],
      "stateMutability": "view",
      "type": "function"
    },
    {
      "inputs": [],
      "name": "stakingFixedEpochEndTime",
      "outputs": [
        {
          "internalType": "uint256",
          "name": "",
          "type": "uint256"
        }
      ],
      "stateMutability": "view",
      "type": "function"
    },
    {
      "inputs": [],
      "name": "stakingTransitionTimeframeLength",
      "outputs": [
        {
          "internalType": "uint256",
          "name": "",
          "type": "uint256"
        }
      ],
      "stateMutability": "view",
      "type": "function"
    },
    {
      "inputs": [],
      "name": "stakingWithdrawDisallowPeriod",
      "outputs": [
        {
          "internalType": "uint256",
          "name": "",
          "type": "uint256"
        }
      ],
      "stateMutability": "view",
      "type": "function"
    },
    {
      "inputs": [],
      "name": "startTimeOfNextPhaseTransition",
      "outputs": [
        {
          "internalType": "uint256",
          "name": "",
          "type": "uint256"
        }
      ],
      "stateMutability": "view",
      "type": "function"
    },
    {
      "inputs": [
        {
          "internalType": "address",
          "name": "newOwner",
          "type": "address"
        }
      ],
      "name": "transferOwnership",
      "outputs": [],
      "stateMutability": "nonpayable",
      "type": "function"
    },
    {
      "inputs": [],
      "name": "validatorSetContract",
      "outputs": [
        {
          "internalType": "contract IValidatorSetHbbft",
          "name": "",
          "type": "address"
        }
      ],
      "stateMutability": "view",
      "type": "function"
    },
    {
      "inputs": [
        {
          "internalType": "address",
          "name": "_fromPoolStakingAddress",
          "type": "address"
        },
        {
          "internalType": "uint256",
          "name": "_amount",
          "type": "uint256"
        }
      ],
      "name": "withdraw",
      "outputs": [],
      "stateMutability": "nonpayable",
      "type": "function"
    },
    {
      "stateMutability": "payable",
      "type": "receive"
    }
  ],
  "bytecode": "0x6080604052348015600f57600080fd5b506016601a565b60ca565b7ff0c57e16840df040f15088dc2f81fe391c3923bec73e23a9662efc9c229c6a00805468010000000000000000900460ff161560695760405163f92ee8a960e01b815260040160405180910390fd5b80546001600160401b039081161460c75780546001600160401b0319166001600160401b0390811782556040519081527fc7f505b2f371ae2175ee4913f4499e1f2633a7b5936321eed1cdaeb6115181d29060200160405180910390a15b50565b615d55806100d96000396000f3fe60806040526004361061058d5760003560e01c806392283634116102d5578063c7fe832611610184578063e9ab0300116100e1578063f2de669911610095578063f49425011161006f578063f4942501146110d1578063fa4aaf47146110e5578063ffada8621461111257600080fd5b8063f2de66991461107d578063f2fde38b14611091578063f3fef3a3146110b157600080fd5b8063edd7db75116100c6578063edd7db751461103d578063ee435f5514611052578063f07860961461106757600080fd5b8063e9ab030014610fc8578063eb3efa161461100057600080fd5b8063dadee88a11610138578063dfc8bf4e1161011d578063dfc8bf4e14610f34578063e2a43cd914610f54578063e5b1d59314610f8b57600080fd5b8063dadee88a14610ef2578063df6f55f514610f1f57600080fd5b8063d0ac76f611610169578063d0ac76f614610ea7578063d290c21d14610ec7578063da7a9b6a14610edc57600080fd5b8063c7fe832614610e67578063cfef144114610e8757600080fd5b8063a697ecff11610232578063b163cc38116101e6578063b710c15d116101cb578063b710c15d14610e05578063ba08d23714610e32578063c6912cc014610e5257600080fd5b8063b163cc3814610627578063b61ed63a14610de557600080fd5b8063adddc0cf11610217578063adddc0cf14610d9a578063ae1aaf8014610daf578063b0bd5e9e14610dc557600080fd5b8063a697ecff14610d42578063a711e6a114610d7a57600080fd5b80639b9fb6d0116102895780639ea8082b1161026e5780639ea8082b14610cd5578063a420596714610cf5578063a5d54f6514610d2d57600080fd5b80639b9fb6d014610c955780639e72c63514610cb557600080fd5b8063957950a7116102ba578063957950a714610c2d5780639a7b5f1114610c505780639b03d74414610c7f57600080fd5b80639228363414610bc4578063950a651314610c0d57600080fd5b80635267e1d61161043c5780637069e74611610399578063794c0c681161034d5780638247a239116103275780638247a23914610b33578063862be28714610b535780638da5cb5b14610b7357600080fd5b8063794c0c6814610add5780637b0a0f9b14610af35780637b15b94c14610b1357600080fd5b8063728345db1161037e578063728345db14610a3757806373c2180314610a6d578063750dd2a114610a8d57600080fd5b80637069e74614610a0c578063715018a614610a2257600080fd5b80635d80ca32116103f0578063611d760c116103d5578063611d760c146109aa578063673a2a1f146109ca5780636bda1577146109ec57600080fd5b80635d80ca321461097e5780635fef76431461099457600080fd5b80635b4eafe0116104215780635b4eafe0146108fb5780635ca2b6501461093e5780635cb092a21461095e57600080fd5b80635267e1d6146108bb57806356e4d6c2146108e857600080fd5b806326476204116104ea578063379b046a1161049e5780633f3afe01116104835780633f3afe01146108655780634e9b426d146108785780634f9a8d8f146108a557600080fd5b8063379b046a1461082f5780633b7d09461461084557600080fd5b80633219d600116104cf5780633219d600146107ba57806336e98ca8146107fa578063371542631461081a57600080fd5b806326476204146107875780632bafde8d1461079a57600080fd5b80631555371c1161054157806322704bdd1161052657806322704bdd1461073257806322e3d98614610752578063251441a91461076757600080fd5b80631555371c146106a15780631fb31e43146106b657600080fd5b806311f86c991161057257806311f86c9914610629578063129bd128146106495780631345b8a51461066957600080fd5b8063028b8bdb146105b057806303a81065146105d957600080fd5b366105ab57604051631574f9f360e01b815260040160405180910390fd5b600080fd5b3480156105bc57600080fd5b506105c660145481565b6040519081526020015b60405180910390f35b3480156105e557600080fd5b506106276105f43660046151e9565b6001600160a01b039283166000908152602260209081526040808320949095168252928352838120918152915290812055565b005b34801561063557600080fd5b506105c66106443660046151e9565b611132565b34801561065557600080fd5b506105c661066436600461522a565b611168565b34801561067557600080fd5b506105c6610684366004615263565b602160209081526000928352604080842090915290825290205481565b3480156106ad57600080fd5b50610627611195565b3480156106c257600080fd5b506107006106d1366004615288565b6001600160a01b03166000908152601d6020526040902060010154608081901b91600160801b90910460f01b90565b604080516fffffffffffffffffffffffffffffffff1990931683526001600160f01b03199091166020830152016105d0565b34801561073e57600080fd5b5061062761074d3660046152a5565b611220565b34801561075e57600080fd5b506105c661125d565b34801561077357600080fd5b506106276107823660046151e9565b6112a4565b610627610795366004615288565b611362565b3480156107a657600080fd5b506106276107b53660046152a5565b6113e5565b3480156107c657600080fd5b506107ea6107d5366004615288565b601f6020526000908152604090205460ff1681565b60405190151581526020016105d0565b34801561080657600080fd5b50610627610815366004615375565b611465565b34801561082657600080fd5b50610627611519565b34801561083b57600080fd5b506105c6601a5481565b34801561085157600080fd5b50610627610860366004615288565b6118fa565b610627610873366004615462565b611949565b34801561088457600080fd5b50610898610893366004615288565b611c99565b6040516105d091906154de565b3480156108b157600080fd5b506105c660165481565b3480156108c757600080fd5b506105c66108d6366004615288565b601b6020526000908152604090205481565b6106276108f6366004615560565b611d45565b34801561090757600080fd5b506105c6610916366004615263565b60009182526021602090815260408084206001600160a01b0393909316845291905290205490565b34801561094a57600080fd5b506106276109593660046152a5565b601555565b34801561096a57600080fd5b50610627610979366004615375565b611e7a565b34801561098a57600080fd5b506105c6601e5481565b3480156109a057600080fd5b506105c6600d5481565b3480156109b657600080fd5b506106276109c5366004615288565b611e82565b3480156109d657600080fd5b506109df611e8d565b6040516105d091906155c7565b3480156109f857600080fd5b506105c6610a0736600461522a565b611e9e565b348015610a1857600080fd5b506105c660195481565b348015610a2e57600080fd5b50610627612045565b348015610a4357600080fd5b506105c6610a52366004615263565b60208080526000928352604080842090915290825290205481565b348015610a7957600080fd5b506109df610a88366004615288565b612059565b348015610a9957600080fd5b506105c6610aa836600461522a565b6001600160a01b039182166000908152600c602090815260408083209390941682529182528281206015548252909152205490565b348015610ae957600080fd5b506105c660155481565b348015610aff57600080fd5b50610627610b0e36600461562c565b61207d565b348015610b1f57600080fd5b50610627610b2e366004615288565b612113565b348015610b3f57600080fd5b50610627610b4e3660046152a5565b612193565b348015610b5f57600080fd5b50610627610b6e366004615671565b6121df565b348015610b7f57600080fd5b507f9016d09d72d40fdae2fd8ceac6b6234c7706214fd39c1cd1e609a0528c199300546001600160a01b03165b6040516001600160a01b0390911681526020016105d0565b348015610bd057600080fd5b50610bf4610bdf3660046156e3565b60006020819052908152604090205460e01b81565b6040516001600160e01b031990911681526020016105d0565b348015610c1957600080fd5b506105c6610c2836600461522a565b612242565b348015610c3957600080fd5b50610c426123b7565b6040516105d092919061573a565b348015610c5c57600080fd5b50610c70610c6b366004615288565b61241a565b6040516105d09392919061575c565b348015610c8b57600080fd5b506105c660185481565b348015610ca157600080fd5b50610627610cb03660046157a3565b6124ce565b348015610cc157600080fd5b50610627610cd03660046152a5565b61254d565b348015610ce157600080fd5b506109df610cf0366004615288565b6125b1565b348015610d0157600080fd5b506105c6610d1036600461522a565b601160209081526000928352604080842090915290825290205481565b348015610d3957600080fd5b506109df6125d5565b348015610d4e57600080fd5b506105c6610d5d36600461522a565b601360209081526000928352604080842090915290825290205481565b348015610d8657600080fd5b506107ea610d95366004615288565b612637565b348015610da657600080fd5b50610627612644565b348015610dbb57600080fd5b506105c660175481565b348015610dd157600080fd5b50610627610de03660046152a5565b6126a2565b348015610df157600080fd5b50610627610e00366004615462565b6126d1565b348015610e1157600080fd5b50610e25610e203660046157a3565b612ab6565b6040516105d091906157d8565b348015610e3e57600080fd5b506107ea610e4d366004615806565b612b5e565b348015610e5e57600080fd5b506105c6612d2d565b348015610e7357600080fd5b50610627610e82366004615867565b612d4c565b348015610e9357600080fd5b50610627610ea2366004615288565b61330f565b348015610eb357600080fd5b50610627610ec2366004615263565b613588565b348015610ed357600080fd5b506109df6136c7565b348015610ee857600080fd5b506105c6600e5481565b348015610efe57600080fd5b506105c6610f0d366004615288565b60106020526000908152604090205481565b348015610f2b57600080fd5b506109df6136d3565b348015610f4057600080fd5b50601c54610bac906001600160a01b031681565b348015610f6057600080fd5b50610627610f6f366004615462565b6001600160a01b039091166000908152601b6020526040902055565b348015610f9757600080fd5b50610627610fa6366004615288565b602480546001600160a01b0319166001600160a01b0392909216919091179055565b348015610fd457600080fd5b506105c6610fe336600461522a565b600f60209081526000928352604080842090915290825290205481565b34801561100c57600080fd5b5061062761101b366004615288565b601c80546001600160a01b0319166001600160a01b0392909216919091179055565b34801561104957600080fd5b506106276136df565b34801561105e57600080fd5b5061062761381f565b34801561107357600080fd5b506105c6610bb881565b34801561108957600080fd5b5060646105c6565b34801561109d57600080fd5b506106276110ac366004615288565b61387e565b3480156110bd57600080fd5b506106276110cc366004615462565b6138b9565b3480156110dd57600080fd5b5060016107ea565b3480156110f157600080fd5b506105c6611100366004615288565b60126020526000908152604090205481565b34801561111e57600080fd5b5061062761112d366004615288565b613972565b6001600160a01b0380841660009081526022602090815260408083209386168352928152828220848352905220545b9392505050565b6001600160a01b038083166000908152602360209081526040808320938516835292905220545b92915050565b601c546001600160a01b031633148015906111bb57506024546001600160a01b03163314155b156111d8576040516282b42960e81b815260040160405180910390fd5b60006111e4600561397b565b905060005b815181101561121c5761121482828151811061120757611207615917565b6020026020010151613988565b6001016111e9565b5050565b6112286139ce565b600a8111158061123a57506016548110155b1561125857604051638826666f60e01b815260040160405180910390fd5b601755565b6018546016546000919015611273576001611276565b60005b60ff16601a546016548361128a9190615943565b6112949190615943565b61129e9190615956565b91505090565b3a6000036112c557604051630e661aed60e41b815260040160405180910390fd5b816001600160a01b0316836001600160a01b0316036112f757604051630a5eddd560e01b815260040160405180910390fd5b33611303848284613a29565b61130e838284613cbe565b601554604080516001600160a01b0387811682526020820186905280851692908716917f4480d8e4b1e9095b94bf513961d26fe1d32386ebdd103d18fe8738cf4b2223ff910160405180910390a450505050565b3a60000361138357604051630e661aed60e41b815260040160405180910390fd5b3334611390838383613cbe565b601554826001600160a01b0316846001600160a01b03167f2273de02cb1f69ba6259d22c4bc22c60e4c94c193265ef6afee324a04a9b6d22846040516113d891815260200190565b60405180910390a4505050565b6113ed6139ce565b806114046000356001600160e01b03191682612b5e565b611429576040516373330d9b60e01b8152600481018290526024015b60405180910390fd5b600e8290556040518281527ffee02ce7aa40f9c49eaabd26d404fa88714b97cb209af8954cfd5eeb8213b93e9060200160405180910390a15050565b61146d6139ce565b60408051808201825283516020808601919091206001600160e01b031990811683528183018581528751888401209091166000908152808352939093208251815463ffffffff191660e09190911c178155925180519293926114d5926001850192019061515a565b509050507f3d45a310c5a076ea07aa2947ca3c06cc2a8b3571065867ad6f8e7096a2c9d50a83838360405161150c93929190615969565b60405180910390a1505050565b3a60000361153a57604051630e661aed60e41b815260040160405180910390fd5b600080611547600361397b565b9050805160000361156b57604051631c369b4560e21b815260040160405180910390fd5b60005b815181101561173957600082828151811061158b5761158b615917565b6020026020010151905061159e8161408d565b806116145750601c54604051639d6fc1d160e01b81526001600160a01b03838116600483015290911690639d6fc1d190602401602060405180830381865afa1580156115ee573d6000803e3d6000fd5b505050506040513d601f19601f8201168201806040525081019061161291906159a2565b155b1561161f5750611731565b61162a6003826140cb565b506001600160a01b0381166000908152601f60209081526040808320805460ff19166001179055601b909152812080549082905590611668836125b1565b905060005b81518110156116d357600082828151811061168a5761168a615917565b6020908102919091018101516001600160a01b03808816600090815260138452604080822092841682529190935282209190915590506116ca85826140e0565b5060010161166d565b506116de8287615943565b9550826001600160a01b0316336001600160a01b03167f8e6a4ccd7dccdca9ac211d00fcc3fa7c71be75ff73d3a35f63ea023173cc10048460405161172591815260200190565b60405180910390a35050505b60010161156e565b508160000361175b57604051631c369b4560e21b815260040160405180910390fd5b60006117686002846159da565b905060006117768285615956565b90506000601c60009054906101000a90046001600160a01b03166001600160a01b03166356b54bae6040518163ffffffff1660e01b8152600401602060405180830381865afa1580156117cd573d6000803e3d6000fd5b505050506040513d601f19601f820116820180604052508101906117f191906159fc565b90506000816001600160a01b031663732524946040518163ffffffff1660e01b8152600401602060405180830381865afa158015611833573d6000803e3d6000fd5b505050506040513d601f19601f8201168201806040525081019061185791906159fc565b9050816001600160a01b031663af182535846040518263ffffffff1660e01b81526004016000604051808303818588803b15801561189457600080fd5b505af11580156118a8573d6000803e3d6000fd5b50505050506118b78185614142565b604080518481526020810186905233917f1c113e6bae9530fea40323e612aeb0cb7817dedb5a0b0f6bdfbff97d55920dc7910160405180910390a2505050505050565b601c546001600160a01b0316331480159061192057506024546001600160a01b03163314155b1561193d576040516282b42960e81b815260040160405180910390fd5b61194681613988565b50565b601c60009054906101000a90046001600160a01b03166001600160a01b03166356b54bae6040518163ffffffff1660e01b8152600401602060405180830381865afa15801561199c573d6000803e3d6000fd5b505050506040513d601f19601f820116820180604052508101906119c091906159fc565b6001600160a01b0316336001600160a01b0316146119f0576040516282b42960e81b815260040160405180910390fd5b341561121c576015546000818152602080805260408083206001600160a01b038716808552908352818420549484526021835281842090845290915281205434929181831115611bd1576000611a45876125b1565b90506000611a538486615956565b90506000611a618883615a19565b611a6c896064615956565b611a769087615a19565b119050611a868186888a8c6141ee565b935060005b8351811015611bc8576000611ac98389611ac16015548f8a8881518110611ab457611ab4615917565b602002602001015161423d565b878d8f6142dc565b905080601360008d6001600160a01b03166001600160a01b031681526020019081526020016000206000878581518110611b0557611b05615917565b60200260200101516001600160a01b03166001600160a01b031681526020019081526020016000206000828254611b3c9190615943565b90915550506001600160a01b038b166000908152600c602052604081208651839290889086908110611b7057611b70615917565b60200260200101516001600160a01b03166001600160a01b03168152602001908152602001600020600060155481526020019081526020016000206000828254611bba9190615943565b909155505050600101611a8b565b50505050611bd4565b50825b6001600160a01b038616600090815260136020908152604080832090915281208054839290611c04908490615943565b90915550506001600160a01b0386166000908152601b602052604081208054869290611c31908490615943565b90915550611c4090508661434a565b6015546001600160a01b0387167f72093068b9f28053bd924ac15d7710b987f9b6ef1e0f89f47d8b4bd7cac776dc83611c798189615956565b6040805192835260208301919091520160405180910390a3505050505050565b6001600160a01b0381166000908152601d60205260409020805460609190611cc090615a30565b80601f0160208091040260200160405190810160405280929190818152602001828054611cec90615a30565b8015611d395780601f10611d0e57610100808354040283529160200191611d39565b820191906000526020600020905b815481529060010190602001808311611d1c57829003601f168201915b50505050509050919050565b3a600003611d6657604051630e661aed60e41b815260040160405180910390fd5b601c54604051630526083960e11b81526001600160a01b0386811660048301523360248301819052923492911690630a4c107290604401600060405180830381600087803b158015611db757600080fd5b505af1158015611dcb573d6000803e3d6000fd5b50505050611dda828383613cbe565b6001600160a01b0382166000908152601d60205260409020611dfd858783615aba565b506001600160a01b0382166000818152601d602090815260409182902060010180546fffffffffffffffffffffffffffffffff1916608088901c179055601554915184815291929182917f2273de02cb1f69ba6259d22c4bc22c60e4c94c193265ef6afee324a04a9b6d22910160405180910390a4505050505050565b61146d614418565b611946816001614466565b6060611e99600161397b565b905090565b601c546040516253517560e01b81526001600160a01b03848116600483015260009283929116906253517590602401602060405180830381865afa158015611eea573d6000803e3d6000fd5b505050506040513d601f19601f82011682018060405250810190611f0e91906159fc565b9050611f2f81846001600160a01b0316866001600160a01b031614156144c5565b1580611f5357506001600160a01b0384166000908152601f602052604090205460ff165b15611f6257600091505061118f565b6001600160a01b03848116600090815260136020908152604080832087851684529091529081902054601c54915163a0d16cad60e01b815284841660048201529092919091169063a0d16cad90602401602060405180830381865afa158015611fcf573d6000803e3d6000fd5b505050506040513d601f19601f82011682018060405250810190611ff391906159a2565b61200057915061118f9050565b6001600160a01b038581166000908152600c6020908152604080832093881683529281528282206015548352905220548082111561203c578091505b50949350505050565b61204d6139ce565b61205760006145cf565b565b6001600160a01b0381166000908152600b6020526040902060609061118f9061397b565b601c546001600160a01b031633148015906120a357506024546001600160a01b03163314155b156120c0576040516282b42960e81b815260040160405180910390fd5b6001600160a01b039092166000908152601d60205260409020600101805460f09390931c600160801b0271ffffffffffffffffffffffffffffffffffff1990931660809290921c91909117919091179055565b601c546001600160a01b0316331480159061213957506024546001600160a01b03163314155b15612156576040516282b42960e81b815260040160405180910390fd5b600d546001600160a01b0382166000908152601360209081526040808320909152902054106119465761218a816001614466565b6119468161434a565b601c546001600160a01b031633148015906121b957506024546001600160a01b03163314155b156121d6576040516282b42960e81b815260040160405180910390fd5b60185543601955565b336000908152601d602052604090206121f9848683615aba565b50336000908152601d60205260409020600101805460f09290921c600160801b0271ffffffffffffffffffffffffffffffffffff1990921660809390931c929092171790555050565b601c546040516253517560e01b81526001600160a01b03848116600483015260009283929116906253517590602401602060405180830381865afa15801561228e573d6000803e3d6000fd5b505050506040513d601f19601f820116820180604052508101906122b291906159fc565b90506122d381846001600160a01b0316866001600160a01b031614156144c5565b6122e157600091505061118f565b601c5460405163a0d16cad60e01b81526001600160a01b0383811660048301529091169063a0d16cad90602401602060405180830381865afa15801561232b573d6000803e3d6000fd5b505050506040513d601f19601f8201168201806040525081019061234f91906159a2565b61235d57600091505061118f565b6001600160a01b038481166000818152600c6020908152604080832094881680845294825280832060155484528252808320549383526013825280832094835293905291909120546123af9190615956565b949350505050565b6060600060086009548180548060200260200160405190810160405280929190818152602001828054801561240b57602002820191906000526020600020905b8154815260200190600101908083116123f7575b50505050509150915091509091565b601d6020526000908152604090208054819061243590615a30565b80601f016020809104026020016040519081016040528092919081815260200182805461246190615a30565b80156124ae5780601f10612483576101008083540402835291602001916124ae565b820191906000526020600020905b81548152906001019060200180831161249157829003601f168201915b50505060019093015491925050608081901b90600160801b900460f01b83565b6124d66139ce565b80516020808301919091206001600160e01b03191660009081529081905260408120805463ffffffff191681559061251160018301826151a5565b50507f92d44565a40fe29702ffa146ddaa3bb133d4077f5312d682d0a2632a9bc73a8a8160405161254291906154de565b60405180910390a150565b601c546001600160a01b0316331480159061257357506024546001600160a01b03163314155b15612590576040516282b42960e81b815260040160405180910390fd5b60175481601a546125a19190615943565b6125ab9190615943565b601a5550565b6001600160a01b0381166000908152600a6020526040902060609061118f9061397b565b6060600780548060200260200160405190810160405280929190818152602001828054801561262d57602002820191906000526020600020905b81546001600160a01b0316815260019091019060200180831161260f575b5050505050905090565b600061118f600183614640565b601c546001600160a01b0316331480159061266a57506024546001600160a01b03163314155b15612687576040516282b42960e81b815260040160405180910390fd5b601754601a600082825461269b9190615943565b9091555050565b6126aa6139ce565b60175481116126cc5760405163160ac89160e31b815260040160405180910390fd5b601655565b3a6000036126f257604051630e661aed60e41b815260040160405180910390fd5b6001600160a01b0382166127195760405163d92e233d60e01b815260040160405180910390fd5b8060000361273a57604051633ca0029d60e01b815260040160405180910390fd5b601c546040516253517560e01b81526001600160a01b03848116600483015233926127c6929116906253517590602401602060405180830381865afa158015612787573d6000803e3d6000fd5b505050506040513d601f19601f820116820180604052508101906127ab91906159fc565b846001600160a01b0316836001600160a01b031614156144c5565b6127e3576040516315e34e0560e01b815260040160405180910390fd5b6001600160a01b038084166000818152600f602090815260408083209486168084529482528083205484845260108352818420546013845282852096855295835281842054948452601b909252822054909392918613156128d95785600061284b8988612242565b90508082111561287857604051632de4882160e01b81526004810182905260248101839052604401611420565b6128828287615943565b955061288e8286615943565b945061289a8285615956565b93506128a68284615956565b6015546001600160a01b03808c166000908152601160209081526040808320938d16835292905220559250612918915050565b60006128e487615b7a565b90506128f08186615956565b94506128fc8185615956565b93506129088184615943565b92506129148183615943565b9150505b6001600160a01b038088166000818152600f60209081526040808320948a1680845294825280832089905583835260108252808320889055601382528083208584528252808320879055838352601b909152902083905590036129e75781158015906129855750600d5482105b156129bd57604051636fe84f3d60e01b81526001600160a01b0380891660048301528616602482015260448101879052606401611420565b60008613156129dc57816000036129d7576129d787614662565b612a54565b6129d7876001614466565b81158015906129f75750600e5482105b15612a2f57604051636fe84f3d60e01b81526001600160a01b0380891660048301528616602482015260448101879052606401611420565b6000861315612a4a57816000036129d7576129d787866140e0565b612a548786614677565b612a5d8761434a565b601554856001600160a01b0316886001600160a01b03167f80d5c777e5f7ac6ee89723223803ca5c0ec0204f89e99c1b0cde973c66a6459489604051612aa591815260200190565b60405180910390a450505050505050565b60408051808201909152600081526060602082015281516020808401919091206001600160e01b0319908116600090815280835260409081902081518083018352815460e01b9093168352600181018054835181870281018701909452808452939491938583019392830182828015612b4e57602002820191906000526020600020905b815481526020019060010190808311612b3a575b5050505050815250509050919050565b6001600160e01b031980831660009081526020818152604080832081518083018352815460e01b909516855260018101805483518186028101860190945280845294958695909492938584019390929190830182828015612bde57602002820191906000526020600020905b815481526020019060010190808311612bca575b5050505050815250509050806020015151600003612c0057600091505061118f565b60208101518151600090612c13906146a4565b905060005b8251811015612d205781838281518110612c3457612c34615917565b602002602001015103612d18576000808211612c6a5783600081518110612c5d57612c5d615917565b6020026020010151612c8f565b83612c76600184615956565b81518110612c8657612c86615917565b60200260200101515b9050600060018551612ca19190615956565b8310612cd3578460018651612cb69190615956565b81518110612cc657612cc6615917565b6020026020010151612cf8565b84612cdf846001615943565b81518110612cef57612cef615917565b60200260200101515b9050818814158015612d0a5750808814155b15965050505050505061118f565b600101612c18565b5060009695505050505050565b6000601754601654601854612d429190615943565b611e999190615956565b7ff0c57e16840df040f15088dc2f81fe391c3923bec73e23a9662efc9c229c6a00805468010000000000000000810460ff16159067ffffffffffffffff16600081158015612d975750825b905060008267ffffffffffffffff166001148015612db45750303b155b905081158015612dc2575080155b15612de05760405163f92ee8a960e01b815260040160405180910390fd5b845467ffffffffffffffff191660011785558315612e1457845468ff00000000000000001916680100000000000000001785555b6001600160a01b038b16612e3b5760405163d92e233d60e01b815260040160405180910390fd5b612e448a614772565b87612e5260208c018c615b96565b612e5e91506002615a19565b14612e7b5760405162d6988760e81b815260040160405180910390fd5b85612e8960208c018c615b96565b905014612ea9576040516320041afd60e01b815260040160405180910390fd5b612eb28b6148d3565b612eba6148e4565b612ec760208b018b615288565b601c80546001600160a01b0319166001600160a01b0392909216919091179055366000612ef760208d018d615b96565b9150915060005b8181101561311a576000838383818110612f1a57612f1a615917565b9050602002016020810190612f2f9190615288565b6001600160a01b031603612f565760405163d92e233d60e01b815260040160405180910390fd5b612f87838383818110612f6b57612f6b615917565b9050602002016020810190612f809190615288565b6000614466565b612fb6838383818110612f9c57612f9c615917565b9050602002016020810190612fb19190615288565b614662565b8b8b612fc3836002615a19565b818110612fd257612fd2615917565b905060200201358c8c836002612fe89190615a19565b612ff3906001615943565b81811061300257613002615917565b90506020020135604051602001613023929190918252602082015260400190565b604051602081830303815290604052601d600085858581811061304857613048615917565b905060200201602081019061305d9190615288565b6001600160a01b031681526020810191909152604001600020906130819082615be0565b5089898281811061309457613094615917565b90506020020160208101906130a99190615ca0565b601d60008585858181106130bf576130bf615917565b90506020020160208101906130d49190615288565b6001600160a01b031681526020810191909152604001600020600190810180546fffffffffffffffffffffffffffffffff191660809390931c9290921790915501612efe565b5060408051600580825260c082019092526000916020820160a0803683370190505090506802b5e3af16b18800008160008151811061315b5761315b615917565b60200260200101818152505068056bc75e2d631000008160018151811061318457613184615917565b602002602001018181525050680821ab0d4414980000816002815181106131ad576131ad615917565b602002602001018181525050680ad78ebc5ac6200000816003815181106131d6576131d6615917565b602002602001018181525050680d8d726b7177a80000816004815181106131ff576131ff615917565b6020026020010181815250506132806040518060400160405280601d81526020017f73657444656c656761746f724d696e5374616b652875696e74323536290000008152506040518060400160405280601381526020017f64656c656761746f724d696e5374616b6528290000000000000000000000000081525083611e7a565b50505060408a0135600e5560608a0135600d5560808a0135601e5560a08a013560165560e08a01356014554260185560c08a0135601755831561330257845468ff000000000000000019168555604051600181527fc7f505b2f371ae2175ee4913f4499e1f2633a7b5936321eed1cdaeb6115181d29060200160405180910390a15b5050505050505050505050565b3a60000361333057604051630e661aed60e41b815260040160405180910390fd5b6133386148f4565b6001600160a01b0381166000908152601160209081526040808320338085529252909120546015541161339157604051630b06352b60e31b81526001600160a01b03808416600483015282166024820152604401611420565b601c546040516253517560e01b81526001600160a01b03848116600483015261341a9216906253517590602401602060405180830381865afa1580156133db573d6000803e3d6000fd5b505050506040513d601f19601f820116820180604052508101906133ff91906159fc565b836001600160a01b0316836001600160a01b031614156144c5565b613437576040516315e34e0560e01b815260040160405180910390fd5b6001600160a01b038083166000908152600f602090815260408083209385168352929052908120549081900361348057604051633ca0029d60e01b815260040160405180910390fd5b6001600160a01b038084166000818152600f602090815260408083209487168352938152838220829055918152601090915220546134bf908290615956565b6001600160a01b038085166000908152601060209081526040808320949094556013815283822092861682529190915290812054900361350357613503838361493e565b61350d8282614142565b601554826001600160a01b0316846001600160a01b03167ff380b0bc887e00f5b50d3c9d4eaaf5c9a0afd97b956316b995159384c4ede9b38460405161355591815260200190565b60405180910390a4505061194660017f9b779b17422d0df92223018b32b4d1fa46e071723d6817e2486d003becc55f0055565b601c60009054906101000a90046001600160a01b03166001600160a01b03166356b54bae6040518163ffffffff1660e01b8152600401602060405180830381865afa1580156135db573d6000803e3d6000fd5b505050506040513d601f19601f820116820180604052508101906135ff91906159fc565b6001600160a01b0316336001600160a01b03161461362f576040516282b42960e81b815260040160405180910390fd5b6000828152602080805260408083206001600160a01b0385168452909152812054900361121c576001600160a01b0381166000908152601b60205260408120549081900361367c57505050565b6000838152602080805260408083206001600160a01b038616808552908352818420949094556013825280832082528083205486845260218352818420948452939091529020555050565b6060611e99600561397b565b6060611e99600361397b565b3a60000361370057604051630e661aed60e41b815260040160405180910390fd5b601c546040516253517560e01b81523360048201819052916000916001600160a01b03909116906253517590602401602060405180830381865afa15801561374c573d6000803e3d6000fd5b505050506040513d601f19601f8201168201806040525081019061377091906159fc565b905060155460001480156137ed5750601c5460405163facd743b60e01b81526001600160a01b0383811660048301529091169063facd743b90602401602060405180830381865afa1580156137c9573d6000803e3d6000fd5b505050506040513d601f19601f820116820180604052508101906137ed91906159a2565b15613816576040516303d71f2d60e51b81526001600160a01b0383166004820152602401611420565b61121c82613988565b601c546001600160a01b0316331480159061384557506024546001600160a01b03163314155b15613862576040516282b42960e81b815260040160405180910390fd5b6015805490600061387283615cbb565b90915550506000601a55565b6138866139ce565b6001600160a01b0381166138b057604051631e4fbdf760e01b815260006004820152602401611420565b611946816145cf565b3a6000036138da57604051630e661aed60e41b815260040160405180910390fd5b6138e26148f4565b336138ee838284613a29565b6138f88183614142565b601554816001600160a01b0316846001600160a01b03167fa7c0f0cac6bd4d18042007706c84a8abe823751cf289b69c01e83eef7b5915c78560405161394091815260200190565b60405180910390a45061121c60017f9b779b17422d0df92223018b32b4d1fa46e071723d6817e2486d003becc55f0055565b61194681614a94565b6060600061116183614a9f565b6139936001826140cb565b5061399d8161408d565b156139b3576139ad6003826140cb565b506139bc565b6139bc81614a94565b6139c581614afa565b61194681614d17565b33613a007f9016d09d72d40fdae2fd8ceac6b6234c7706214fd39c1cd1e609a0528c199300546001600160a01b031690565b6001600160a01b0316146120575760405163118cdaa760e01b8152336004820152602401611420565b6001600160a01b038316613a505760405163d92e233d60e01b815260040160405180910390fd5b80600003613a7157604051633ca0029d60e01b815260040160405180910390fd5b6000613a7d8484611e9e565b905080821115613aaa57604051632de4882160e01b81526004810182905260248101839052604401611420565b6001600160a01b038085166000908152601360209081526040808320938716835292905290812054613add908490615956565b90506000846001600160a01b0316866001600160a01b031614613b0257600e54613b06565b600d545b90508115801590613b1657508082105b15613b4e57604051639e612d5760e01b81526001600160a01b0380881660048301528616602482015260448101859052606401611420565b856001600160a01b0316856001600160a01b031614613be357601c546040516253517560e01b81526001600160a01b03888116600483015260009216906253517590602401602060405180830381865afa158015613bb0573d6000803e3d6000fd5b505050506040513d601f19601f82011682018060405250810190613bd491906159fc565b9050613be1878288614d22565b505b6001600160a01b038681166000818152601360209081526040808320948a16808452948252808320879055928252600c8152828220938252928352818120601554825290925290205484811015613c3b576000613c45565b613c458582615956565b6001600160a01b038089166000818152600c60209081526040808320948c1683529381528382206015548352815283822094909455908152601b90925281208054879290613c94908490615956565b90915550506000839003613cac57613cac878761493e565b613cb58761434a565b50505050505050565b6001600160a01b038316613ce55760405163d92e233d60e01b815260040160405180910390fd5b601c546040516253517560e01b81526001600160a01b03858116600483015260009216906253517590602401602060405180830381865afa158015613d2e573d6000803e3d6000fd5b505050506040513d601f19601f82011682018060405250810190613d5291906159fc565b90506001600160a01b038116613d8657604051632670461960e11b81526001600160a01b0385166004820152602401611420565b81600003613dba5760405163e59f5c3960e01b81526001600160a01b03808616600483015284166024820152604401611420565b601c54604051635491295760e11b81526001600160a01b0383811660048301529091169063a92252ae90602401602060405180830381865afa158015613e04573d6000803e3d6000fd5b505050506040513d601f19601f82011682018060405250810190613e2891906159a2565b15613e5157604051631ccf966d60e21b81526001600160a01b0385166004820152602401611420565b6001600160a01b0384166000908152601f602052604090205460ff1615613e965760405163078137eb60e41b81526001600160a01b0385166004820152602401611420565b6001600160a01b038085166000818152601360209081526040808320948816808452949091528120549290911491613ecf908590615943565b905060008215613ee25750600d54613f31565b50600e546001600160a01b03871660009081526013602090815260408083209091528120549003613f315760405163cbbeb0bd60e01b81526001600160a01b0388166004820152602401611420565b80821015613f655760405163e59f5c3960e01b81526001600160a01b03808916600483015287166024820152604401611420565b601e546001600160a01b0388166000908152601b6020526040902054613f8c908790615943565b1115613fbe57604051632c2b174160e21b81526001600160a01b03808916600483015287166024820152604401611420565b6001600160a01b038088166000908152600c60209081526040808320938a168352928152828220601554835290529081208054879290613fff908490615943565b90915550506001600160a01b0387166000908152601b60205260408120805487929061402c908490615943565b9091555050821561404757614042876001614466565b61405c565b6140518787614677565b61405c878588614d22565b6001600160a01b038088166000908152601360209081526040808320938a16835292905220829055613cb58761434a565b6001600160a01b0381166000908152601b602052604081205415801561118f5750506001600160a01b03166000908152601060205260409020541590565b6000611161836001600160a01b038416614e3e565b6001600160a01b0382166000908152600a6020526040902061410290826140cb565b506001600160a01b038083166000908152600f6020908152604080832093851683529290522054156141385761121c8282614f31565b61121c8282614f53565b8047101561416357604051631e9acf1760e31b815260040160405180910390fd5b6000826001600160a01b03168260405160006040518083038185875af1925050503d80600081146141b0576040519150601f19603f3d011682016040523d82523d6000602084013e6141b5565b606091505b50509050806141e957604051630e21dcbb60e11b81526001600160a01b038416600482015260248101839052604401611420565b505050565b60008415806141fb575083155b1561420857506000614234565b60008615614229578486850281614221576142216159c4565b049050614231565b506064828402045b90505b95945050505050565b60008360000361424f57506000611161565b6001600160a01b038084166000908152602360209081526040808320938616835292905220548490036142b057506001600160a01b038083166000908152602260209081526040808320938516835292815282822086835290522054611161565b506001600160a01b03808316600090815260136020908152604080832093851683529290522054611161565b60008415806142e9575083155b806142f2575085155b156142ff57506000614340565b60008715614320578686850281614318576143186159c4565b04905061433d565b84606402836064038786020281614339576143396159c4565b0490505b90505b9695505050505050565b60008061435683614f75565b915091508161436457505050565b60006008828154811061437957614379615917565b906000526020600020015490506000601b6000866001600160a01b03166001600160a01b0316815260200190815260200160002054905080600884815481106143c4576143c4615917565b6000918252602090912001558181106143f6576143e18282615956565b6009546143ee9190615943565b600955614411565b6144008183615956565b60095461440d9190615956565b6009555b5050505050565b7ff0c57e16840df040f15088dc2f81fe391c3923bec73e23a9662efc9c229c6a005468010000000000000000900460ff1661205757604051631afcd79f60e31b815260040160405180910390fd5b61446f82612637565b6144aa5761447e600183614fe7565b50606461448b6001614ffc565b11156144aa5760405163398dcd9d60e21b815260040160405180910390fd5b6144b56003836140cb565b50801561121c5761121c82615006565b6000811561454d57601c5460405163a881c5fd60e01b81526001600160a01b0385811660048301529091169063a881c5fd90602401602060405180830381865afa158015614517573d6000803e3d6000fd5b505050506040513d601f19601f8201168201806040525081019061453b91906159a2565b156145485750600061118f565b6145c8565b601c54604051635491295760e11b81526001600160a01b0385811660048301529091169063a92252ae90602401602060405180830381865afa158015614597573d6000803e3d6000fd5b505050506040513d601f19601f820116820180604052508101906145bb91906159a2565b156145c85750600061118f565b6001611161565b7f9016d09d72d40fdae2fd8ceac6b6234c7706214fd39c1cd1e609a0528c19930080546001600160a01b031981166001600160a01b03848116918217845560405192169182907f8be0079c531659141344cd1fd0a4f28419497f9722a3daafe3b4186f6b6457e090600090a3505050565b6001600160a01b03811660009081526001830160205260408120541515611161565b61466d600582614fe7565b5061194681614afa565b6001600160a01b0382166000908152600a602052604090206146999082614fe7565b5061121c8282614f53565b60408051600481526024810182526020810180517bffffffffffffffffffffffffffffffffffffffffffffffffffffffff166001600160e01b031985161790529051600091908290819030906146fb908590615cd4565b600060405180830381855afa9150503d8060008114614736576040519150601f19603f3d011682016040523d82523d6000602084013e61473b565b606091505b50915091508161475e57604051635fbab09b60e11b815260040160405180910390fd5b808060200190518101906142349190615cf0565b60a0810135158061478b57508060e001358160a0013511155b156147a95760405163c671116b60e01b815260040160405180910390fd5b8060e001356000036147ce576040516332154b4760e01b815260040160405180910390fd5b60c081013515806147e757508060a001358160c0013510155b1561480557604051630685efe960e01b815260040160405180910390fd5b60006148146020830183615288565b6001600160a01b03160361483b5760405163d92e233d60e01b815260040160405180910390fd5b6148486020820182615b96565b905060000361486a57604051635c9a24ed60e11b815260040160405180910390fd5b6040810135158061487d57506060810135155b156148ab576040805163633373e160e11b815260608301356004820152908201356024820152604401611420565b806060013581608001351161194657604051631c6d3b1560e01b815260040160405180910390fd5b6148db614418565b611946816150fb565b6148ec614418565b612057615103565b7f9b779b17422d0df92223018b32b4d1fa46e071723d6817e2486d003becc55f0080546001190161493857604051633ee5aeb560e01b815260040160405180910390fd5b60029055565b816001600160a01b0316816001600160a01b031603614a4b57601c546040516253517560e01b81526001600160a01b03848116600483015260009216906253517590602401602060405180830381865afa1580156149a0573d6000803e3d6000fd5b505050506040513d601f19601f820116820180604052508101906149c491906159fc565b601c5460405163facd743b60e01b81526001600160a01b03808416600483015292935091169063facd743b90602401602060405180830381865afa158015614a10573d6000803e3d6000fd5b505050506040513d601f19601f82011682018060405250810190614a3491906159a2565b15614a42576141e983614662565b6141e983613988565b614a5582826140e0565b614a5e8261408d565b1561121c576141e96003836140cb565b60017f9b779b17422d0df92223018b32b4d1fa46e071723d6817e2486d003becc55f0055565b61121c600382614fe7565b606081600001805480602002602001604051908101604052809291908181526020018280548015611d3957602002820191906000526020600020905b815481526020019060010190808311614adb5750505050509050919050565b60085460075414614b085750565b6001600160a01b03811660009081526012602052604090205460075481108015614b615750816001600160a01b031660078281548110614b4a57614b4a615917565b6000918252602090912001546001600160a01b0316145b1561121c5760088181548110614b7957614b79615917565b906000526020600020015460095410614bc65760088181548110614b9f57614b9f615917565b906000526020600020015460096000828254614bbb9190615956565b90915550614bcc9050565b60006009555b600754600090614bde90600190615956565b9050600060078281548110614bf557614bf5615917565b600091825260209091200154600780546001600160a01b039092169250829185908110614c2457614c24615917565b9060005260206000200160006101000a8154816001600160a01b0302191690836001600160a01b0316021790555060088281548110614c6557614c65615917565b906000526020600020015460088481548110614c8357614c83615917565b60009182526020808320909101929092556001600160a01b038084168252601290925260408082208690559186168152908120556007805480614cc857614cc8615d09565b600082815260209020810160001990810180546001600160a01b03191690550190556008805480614cfb57614cfb615d09565b6001900381819060005260206000200160009055905550505050565b61121c6005826140cb565b601c5460405163a0d16cad60e01b81526001600160a01b0384811660048301529091169063a0d16cad90602401602060405180830381865afa158015614d6c573d6000803e3d6000fd5b505050506040513d601f19601f82011682018060405250810190614d9091906159a2565b1580614d9c5750601554155b15614da657505050565b6001600160a01b03808416600090815260236020908152604080832093851683529290522054601554811015614e38576001600160a01b0380851660008181526013602090815260408083209487168084529482528083205484845260228352818420868552835281842060158054865290845282852091909155549383526023825280832094835293905291909120555b50505050565b60008181526001830160205260408120548015614f27576000614e62600183615956565b8554909150600090614e7690600190615956565b9050808214614edb576000866000018281548110614e9657614e96615917565b9060005260206000200154905080876000018481548110614eb957614eb9615917565b6000918252602080832090910192909255918252600188019052604090208390555b8554869080614eec57614eec615d09565b60019003818190600052602060002001600090559055856001016000868152602001908152602001600020600090556001935050505061118f565b600091505061118f565b6001600160a01b0382166000908152600b602052604090206141e99082614fe7565b6001600160a01b0382166000908152600b602052604090206141e990826140cb565b6001600160a01b03811660009081526012602052604081205460075481108015614fce5750826001600160a01b031660078281548110614fb757614fb7615917565b6000918252602090912001546001600160a01b0316145b15614fdc5760019150915091565b506000928392509050565b6000611161836001600160a01b03841661510b565b600061118f825490565b6001600160a01b03811660009081526012602052604090205460075480821015806150615750826001600160a01b03166007838154811061504957615049615917565b6000918252602090912001546001600160a01b031614155b156150f2576001600160a01b03831660008181526012602052604081208390556007805460018181019092557fa66cc928b5edb82af9bd49922954155ab7b0942694bea4ce44661d9a8736c6880180546001600160a01b03191690931790925560088054928301815581527ff3f7a9fe364faab93b216da50a3214154f22a0a2b415b23a84c8169e8b636ee3909101555b6141e983614d17565b613886614418565b614a6e614418565b60008181526001830160205260408120546151525750815460018181018455600084815260208082209093018490558454848252828601909352604090209190915561118f565b50600061118f565b828054828255906000526020600020908101928215615195579160200282015b8281111561519557825182559160200191906001019061517a565b506151a19291506151bf565b5090565b508054600082559060005260206000209081019061194691905b5b808211156151a157600081556001016151c0565b6001600160a01b038116811461194657600080fd5b6000806000606084860312156151fe57600080fd5b8335615209816151d4565b92506020840135615219816151d4565b929592945050506040919091013590565b6000806040838503121561523d57600080fd5b8235615248816151d4565b91506020830135615258816151d4565b809150509250929050565b6000806040838503121561527657600080fd5b823591506020830135615258816151d4565b60006020828403121561529a57600080fd5b8135611161816151d4565b6000602082840312156152b757600080fd5b5035919050565b634e487b7160e01b600052604160045260246000fd5b604051601f8201601f1916810167ffffffffffffffff811182821017156152fd576152fd6152be565b604052919050565b600082601f83011261531657600080fd5b813567ffffffffffffffff811115615330576153306152be565b615343601f8201601f19166020016152d4565b81815284602083860101111561535857600080fd5b816020850160208301376000918101602001919091529392505050565b60008060006060848603121561538a57600080fd5b833567ffffffffffffffff808211156153a257600080fd5b6153ae87838801615305565b94506020915081860135818111156153c557600080fd5b6153d188828901615305565b9450506040860135818111156153e657600080fd5b8601601f810188136153f757600080fd5b803582811115615409576154096152be565b8060051b925061541a8484016152d4565b818152928201840192848101908a85111561543457600080fd5b928501925b8484101561545257833582529285019290850190615439565b8096505050505050509250925092565b6000806040838503121561547557600080fd5b8235615480816151d4565b946020939093013593505050565b60005b838110156154a9578181015183820152602001615491565b50506000910152565b600081518084526154ca81602086016020860161548e565b601f01601f19169290920160200192915050565b60208152600061116160208301846154b2565b60008083601f84011261550357600080fd5b50813567ffffffffffffffff81111561551b57600080fd5b60208301915083602082850101111561553357600080fd5b9250929050565b80356fffffffffffffffffffffffffffffffff198116811461555b57600080fd5b919050565b6000806000806060858703121561557657600080fd5b8435615581816151d4565b9350602085013567ffffffffffffffff81111561559d57600080fd5b6155a9878288016154f1565b90945092506155bc90506040860161553a565b905092959194509250565b6020808252825182820181905260009190848201906040850190845b818110156156085783516001600160a01b0316835292840192918401916001016155e3565b50909695505050505050565b80356001600160f01b03198116811461555b57600080fd5b60008060006060848603121561564157600080fd5b833561564c816151d4565b925061565a6020850161553a565b915061566860408501615614565b90509250925092565b6000806000806060858703121561568757600080fd5b843567ffffffffffffffff81111561569e57600080fd5b6156aa878288016154f1565b90955093506156bd90506020860161553a565b91506155bc60408601615614565b80356001600160e01b03198116811461555b57600080fd5b6000602082840312156156f557600080fd5b611161826156cb565b60008151808452602080850194506020840160005b8381101561572f57815187529582019590820190600101615713565b509495945050505050565b60408152600061574d60408301856156fe565b90508260208301529392505050565b60608152600061576f60608301866154b2565b6fffffffffffffffffffffffffffffffff19949094166020830152506001600160f01b031991909116604090910152919050565b6000602082840312156157b557600080fd5b813567ffffffffffffffff8111156157cc57600080fd5b6123af84828501615305565b602080825282516001600160e01b031916828201528201516040808301526000906123af60608401826156fe565b6000806040838503121561581957600080fd5b615480836156cb565b60008083601f84011261583457600080fd5b50813567ffffffffffffffff81111561584c57600080fd5b6020830191508360208260051b850101111561553357600080fd5b6000806000806000806080878903121561588057600080fd5b863561588b816151d4565b9550602087013567ffffffffffffffff808211156158a857600080fd5b90880190610100828b0312156158bd57600080fd5b909550604088013590808211156158d357600080fd5b6158df8a838b01615822565b909650945060608901359150808211156158f857600080fd5b5061590589828a01615822565b979a9699509497509295939492505050565b634e487b7160e01b600052603260045260246000fd5b634e487b7160e01b600052601160045260246000fd5b8082018082111561118f5761118f61592d565b8181038181111561118f5761118f61592d565b60608152600061597c60608301866154b2565b828103602084015261598e81866154b2565b9050828103604084015261434081856156fe565b6000602082840312156159b457600080fd5b8151801515811461116157600080fd5b634e487b7160e01b600052601260045260246000fd5b6000826159f757634e487b7160e01b600052601260045260246000fd5b500490565b600060208284031215615a0e57600080fd5b8151611161816151d4565b808202811582820484141761118f5761118f61592d565b600181811c90821680615a4457607f821691505b602082108103615a6457634e487b7160e01b600052602260045260246000fd5b50919050565b601f8211156141e9576000816000526020600020601f850160051c81016020861015615a935750805b601f850160051c820191505b81811015615ab257828155600101615a9f565b505050505050565b67ffffffffffffffff831115615ad257615ad26152be565b615ae683615ae08354615a30565b83615a6a565b6000601f841160018114615b1a5760008515615b025750838201355b600019600387901b1c1916600186901b178355614411565b600083815260209020601f19861690835b82811015615b4b5786850135825560209485019460019092019101615b2b565b5086821015615b685760001960f88860031b161c19848701351681555b505060018560011b0183555050505050565b6000600160ff1b8201615b8f57615b8f61592d565b5060000390565b6000808335601e19843603018112615bad57600080fd5b83018035915067ffffffffffffffff821115615bc857600080fd5b6020019150600581901b360382131561553357600080fd5b815167ffffffffffffffff811115615bfa57615bfa6152be565b615c0e81615c088454615a30565b84615a6a565b602080601f831160018114615c435760008415615c2b5750858301515b600019600386901b1c1916600185901b178555615ab2565b600085815260208120601f198616915b82811015615c7257888601518255948401946001909101908401615c53565b5085821015615c905787850151600019600388901b60f8161c191681555b5050505050600190811b01905550565b600060208284031215615cb257600080fd5b6111618261553a565b600060018201615ccd57615ccd61592d565b5060010190565b60008251615ce681846020870161548e565b9190910192915050565b600060208284031215615d0257600080fd5b5051919050565b634e487b7160e01b600052603160045260246000fdfea2646970667358221220d2946ad59d5fb5ab0e7c50c80a996a12db4cd5a416bb3e5ac7c6853cfd3ad78564736f6c63430008190033",
  "linkReferences": {},
  "deployedLinkReferences": {}
}