{
  "_format": "hh-sol-artifact-1",
  "contractName": "StakingHbbftMock",
  "sourceName": "contracts/mockContracts/StakingHbbftMock.sol",
  "abi": [
    {
      "inputs": [
        {
          "internalType": "address",
          "name": "pool",
          "type": "address"
        },
        {
          "internalType": "address",
          "name": "staker",
          "type": "address"
        }
      ],
      "name": "CannotClaimWithdrawOrderYet",
      "type": "error"
    },
    {
      "inputs": [],
      "name": "GetterCallFailed",
      "type": "error"
    },
    {
      "inputs": [],
      "name": "InitialStakingPoolsListEmpty",
      "type": "error"
    },
    {
      "inputs": [],
      "name": "InsufficientBalance",
      "type": "error"
    },
    {
      "inputs": [
        {
          "internalType": "address",
          "name": "pool",
          "type": "address"
        },
        {
          "internalType": "address",
          "name": "delegator",
          "type": "address"
        }
      ],
      "name": "InsufficientStakeAmount",
      "type": "error"
    },
    {
      "inputs": [],
      "name": "InvalidFixedEpochDuration",
      "type": "error"
    },
    {
      "inputs": [
        {
          "internalType": "uint256",
          "name": "candidateStake",
          "type": "uint256"
        },
        {
          "internalType": "uint256",
          "name": "delegatorStake",
          "type": "uint256"
        }
      ],
      "name": "InvalidInitialStakeAmount",
      "type": "error"
    },
    {
      "inputs": [],
      "name": "InvalidInitialization",
      "type": "error"
    },
    {
      "inputs": [],
      "name": "InvalidIpAddressesCount",
      "type": "error"
    },
    {
      "inputs": [],
      "name": "InvalidMaxStakeAmount",
      "type": "error"
    },
    {
      "inputs": [],
      "name": "InvalidMoveStakePoolsAddress",
      "type": "error"
    },
    {
      "inputs": [
        {
          "internalType": "address",
          "name": "pool",
          "type": "address"
        },
        {
          "internalType": "address",
          "name": "delegator",
          "type": "address"
        },
        {
          "internalType": "int256",
          "name": "amount",
          "type": "int256"
        }
      ],
      "name": "InvalidOrderWithdrawAmount",
      "type": "error"
    },
    {
      "inputs": [],
      "name": "InvalidPublicKeysCount",
      "type": "error"
    },
    {
      "inputs": [],
      "name": "InvalidStakingFixedEpochDuration",
      "type": "error"
    },
    {
      "inputs": [],
      "name": "InvalidStakingTransitionTimeframe",
      "type": "error"
    },
    {
      "inputs": [],
      "name": "InvalidTransitionTimeFrame",
      "type": "error"
    },
    {
      "inputs": [
        {
          "internalType": "address",
          "name": "pool",
          "type": "address"
        },
        {
          "internalType": "address",
          "name": "delegator",
          "type": "address"
        },
        {
          "internalType": "uint256",
          "name": "amount",
          "type": "uint256"
        }
      ],
      "name": "InvalidWithdrawAmount",
      "type": "error"
    },
    {
      "inputs": [
        {
          "internalType": "uint256",
          "name": "allowed",
          "type": "uint256"
        },
        {
          "internalType": "uint256",
          "name": "desired",
          "type": "uint256"
        }
      ],
      "name": "MaxAllowedWithdrawExceeded",
      "type": "error"
    },
    {
      "inputs": [],
      "name": "MaxPoolsCountExceeded",
      "type": "error"
    },
    {
      "inputs": [
        {
          "internalType": "uint256",
          "name": "_newVal",
          "type": "uint256"
        }
      ],
      "name": "NewValueOutOfRange",
      "type": "error"
    },
    {
      "inputs": [],
      "name": "NoStakesToRecover",
      "type": "error"
    },
    {
      "inputs": [],
      "name": "NotInitializing",
      "type": "error"
    },
    {
      "inputs": [],
      "name": "NotPayable",
      "type": "error"
    },
    {
      "inputs": [
        {
          "internalType": "address",
          "name": "owner",
          "type": "address"
        }
      ],
      "name": "OwnableInvalidOwner",
      "type": "error"
    },
    {
      "inputs": [
        {
          "internalType": "address",
          "name": "account",
          "type": "address"
        }
      ],
      "name": "OwnableUnauthorizedAccount",
      "type": "error"
    },
    {
      "inputs": [
        {
          "internalType": "address",
          "name": "pool",
          "type": "address"
        }
      ],
      "name": "PoolAbandoned",
      "type": "error"
    },
    {
      "inputs": [
        {
          "internalType": "address",
          "name": "pool",
          "type": "address"
        }
      ],
      "name": "PoolCannotBeRemoved",
      "type": "error"
    },
    {
      "inputs": [
        {
          "internalType": "address",
          "name": "pool",
          "type": "address"
        }
      ],
      "name": "PoolEmpty",
      "type": "error"
    },
    {
      "inputs": [
        {
          "internalType": "address",
          "name": "pool",
          "type": "address"
        }
      ],
      "name": "PoolNotExist",
      "type": "error"
    },
    {
      "inputs": [
        {
          "internalType": "address",
          "name": "pool",
          "type": "address"
        },
        {
          "internalType": "address",
          "name": "delegator",
          "type": "address"
        }
      ],
      "name": "PoolStakeLimitExceeded",
      "type": "error"
    },
    {
      "inputs": [],
      "name": "ReentrancyGuardReentrantCall",
      "type": "error"
    },
    {
      "inputs": [
        {
          "internalType": "address",
          "name": "recipient",
          "type": "address"
        },
        {
          "internalType": "uint256",
          "name": "amount",
          "type": "uint256"
        }
      ],
      "name": "TransferFailed",
      "type": "error"
    },
    {
      "inputs": [],
      "name": "Unauthorized",
      "type": "error"
    },
    {
      "inputs": [],
      "name": "WithdrawNotAllowed",
      "type": "error"
    },
    {
      "inputs": [],
      "name": "ZeroAddress",
      "type": "error"
    },
    {
      "inputs": [],
      "name": "ZeroGasPrice",
      "type": "error"
    },
    {
      "inputs": [],
      "name": "ZeroWidthrawAmount",
      "type": "error"
    },
    {
      "inputs": [],
      "name": "ZeroWidthrawDisallowPeriod",
      "type": "error"
    },
    {
      "anonymous": false,
      "inputs": [
        {
          "indexed": true,
          "internalType": "address",
          "name": "fromPoolStakingAddress",
          "type": "address"
        },
        {
          "indexed": true,
          "internalType": "address",
          "name": "staker",
          "type": "address"
        },
        {
          "indexed": true,
          "internalType": "uint256",
          "name": "stakingEpoch",
          "type": "uint256"
        },
        {
          "indexed": false,
          "internalType": "uint256",
          "name": "amount",
          "type": "uint256"
        }
      ],
      "name": "ClaimedOrderedWithdrawal",
      "type": "event"
    },
    {
      "anonymous": false,
      "inputs": [
        {
          "indexed": true,
          "internalType": "address",
          "name": "caller",
          "type": "address"
        },
        {
          "indexed": true,
          "internalType": "address",
          "name": "stakingAddress",
          "type": "address"
        },
        {
          "indexed": false,
          "internalType": "uint256",
          "name": "gatheredFunds",
          "type": "uint256"
        }
      ],
      "name": "GatherAbandonedStakes",
      "type": "event"
    },
    {
      "anonymous": false,
      "inputs": [
        {
          "indexed": false,
          "internalType": "uint64",
          "name": "version",
          "type": "uint64"
        }
      ],
      "name": "Initialized",
      "type": "event"
    },
    {
      "anonymous": false,
      "inputs": [
        {
          "indexed": false,
          "internalType": "address",
          "name": "fromPoolStakingAddress",
          "type": "address"
        },
        {
          "indexed": true,
          "internalType": "address",
          "name": "toPoolStakingAddress",
          "type": "address"
        },
        {
          "indexed": true,
          "internalType": "address",
          "name": "staker",
          "type": "address"
        },
        {
          "indexed": true,
          "internalType": "uint256",
          "name": "stakingEpoch",
          "type": "uint256"
        },
        {
          "indexed": false,
          "internalType": "uint256",
          "name": "amount",
          "type": "uint256"
        }
      ],
      "name": "MovedStake",
      "type": "event"
    },
    {
      "anonymous": false,
      "inputs": [
        {
          "indexed": true,
          "internalType": "address",
          "name": "fromPoolStakingAddress",
          "type": "address"
        },
        {
          "indexed": true,
          "internalType": "address",
          "name": "staker",
          "type": "address"
        },
        {
          "indexed": true,
          "internalType": "uint256",
          "name": "stakingEpoch",
          "type": "uint256"
        },
        {
          "indexed": false,
          "internalType": "int256",
          "name": "amount",
          "type": "int256"
        }
      ],
      "name": "OrderedWithdrawal",
      "type": "event"
    },
    {
      "anonymous": false,
      "inputs": [
        {
          "indexed": true,
          "internalType": "address",
          "name": "previousOwner",
          "type": "address"
        },
        {
          "indexed": true,
          "internalType": "address",
          "name": "newOwner",
          "type": "address"
        }
      ],
      "name": "OwnershipTransferred",
      "type": "event"
    },
    {
      "anonymous": false,
      "inputs": [
        {
          "indexed": true,
          "internalType": "address",
          "name": "toPoolStakingAddress",
          "type": "address"
        },
        {
          "indexed": true,
          "internalType": "address",
          "name": "staker",
          "type": "address"
        },
        {
          "indexed": true,
          "internalType": "uint256",
          "name": "stakingEpoch",
          "type": "uint256"
        },
        {
          "indexed": false,
          "internalType": "uint256",
          "name": "amount",
          "type": "uint256"
        }
      ],
      "name": "PlacedStake",
      "type": "event"
    },
    {
      "anonymous": false,
      "inputs": [
        {
          "indexed": true,
          "internalType": "address",
          "name": "caller",
          "type": "address"
        },
        {
          "indexed": false,
          "internalType": "uint256",
          "name": "reinsertShare",
          "type": "uint256"
        },
        {
          "indexed": false,
          "internalType": "uint256",
          "name": "governanceShare",
          "type": "uint256"
        }
      ],
      "name": "RecoverAbandonedStakes",
      "type": "event"
    },
    {
      "anonymous": false,
      "inputs": [
        {
          "indexed": false,
          "internalType": "string",
          "name": "funcSelector",
          "type": "string"
        }
      ],
      "name": "RemoveChangeAbleParameter",
      "type": "event"
    },
    {
      "anonymous": false,
      "inputs": [
        {
          "indexed": true,
          "internalType": "address",
          "name": "poolStakingAddress",
          "type": "address"
        },
        {
          "indexed": true,
          "internalType": "uint256",
          "name": "stakingEpoch",
          "type": "uint256"
        },
        {
          "indexed": false,
          "internalType": "uint256",
          "name": "validatorReward",
          "type": "uint256"
        },
        {
          "indexed": false,
          "internalType": "uint256",
          "name": "delegatorsReward",
          "type": "uint256"
        }
      ],
      "name": "RestakeReward",
      "type": "event"
    },
    {
      "anonymous": false,
      "inputs": [
        {
          "indexed": false,
          "internalType": "address",
          "name": "_address",
          "type": "address"
        }
      ],
      "name": "SetBonusScoreContract",
      "type": "event"
    },
    {
      "anonymous": false,
      "inputs": [
        {
          "indexed": false,
          "internalType": "string",
          "name": "setter",
          "type": "string"
        },
        {
          "indexed": false,
          "internalType": "string",
          "name": "getter",
          "type": "string"
        },
        {
          "indexed": false,
          "internalType": "uint256[]",
          "name": "params",
          "type": "uint256[]"
        }
      ],
      "name": "SetChangeAbleParameter",
      "type": "event"
    },
    {
      "anonymous": false,
      "inputs": [
        {
          "indexed": false,
          "internalType": "uint256",
          "name": "minStake",
          "type": "uint256"
        }
      ],
      "name": "SetDelegatorMinStake",
      "type": "event"
    },
    {
      "anonymous": false,
      "inputs": [
        {
          "indexed": true,
          "internalType": "address",
          "name": "fromPoolStakingAddress",
          "type": "address"
        },
        {
          "indexed": true,
          "internalType": "address",
          "name": "staker",
          "type": "address"
        },
        {
          "indexed": true,
          "internalType": "uint256",
          "name": "stakingEpoch",
          "type": "uint256"
        },
        {
          "indexed": false,
          "internalType": "uint256",
          "name": "amount",
          "type": "uint256"
        }
      ],
      "name": "WithdrewStake",
      "type": "event"
    },
    {
      "inputs": [],
      "name": "MAX_CANDIDATES",
      "outputs": [
        {
          "internalType": "uint256",
          "name": "",
          "type": "uint256"
        }
      ],
      "stateMutability": "view",
      "type": "function"
    },
    {
      "inputs": [
        {
          "internalType": "address",
          "name": "",
          "type": "address"
        }
      ],
      "name": "abandonedAndRemoved",
      "outputs": [
        {
          "internalType": "bool",
          "name": "",
          "type": "bool"
        }
      ],
      "stateMutability": "view",
      "type": "function"
    },
    {
      "inputs": [],
      "name": "addBalance",
      "outputs": [],
      "stateMutability": "payable",
      "type": "function"
    },
    {
      "inputs": [
        {
          "internalType": "address",
          "name": "_miningAddress",
          "type": "address"
        },
        {
          "internalType": "bytes",
          "name": "_publicKey",
          "type": "bytes"
        },
        {
          "internalType": "bytes16",
          "name": "_ip",
          "type": "bytes16"
        }
      ],
      "name": "addPool",
      "outputs": [],
      "stateMutability": "payable",
      "type": "function"
    },
    {
      "inputs": [
        {
          "internalType": "address",
          "name": "_stakingAddress",
          "type": "address"
        }
      ],
      "name": "addPoolActiveMock",
      "outputs": [],
      "stateMutability": "nonpayable",
      "type": "function"
    },
    {
      "inputs": [
        {
          "internalType": "address",
          "name": "_stakingAddress",
          "type": "address"
        }
      ],
      "name": "addPoolInactiveMock",
      "outputs": [],
      "stateMutability": "nonpayable",
      "type": "function"
    },
    {
      "inputs": [
        {
          "internalType": "bytes4",
          "name": "",
          "type": "bytes4"
        }
      ],
      "name": "allowedParameterRange",
      "outputs": [
        {
          "internalType": "bytes4",
          "name": "getter",
          "type": "bytes4"
        }
      ],
      "stateMutability": "view",
      "type": "function"
    },
    {
      "inputs": [],
      "name": "areStakeAndWithdrawAllowed",
      "outputs": [
        {
          "internalType": "bool",
          "name": "",
          "type": "bool"
        }
      ],
      "stateMutability": "pure",
      "type": "function"
    },
    {
      "inputs": [],
      "name": "bonusScoreContract",
      "outputs": [
        {
          "internalType": "contract IBonusScoreSystem",
          "name": "",
          "type": "address"
        }
      ],
      "stateMutability": "view",
      "type": "function"
    },
    {
      "inputs": [],
      "name": "candidateMinStake",
      "outputs": [
        {
          "internalType": "uint256",
          "name": "",
          "type": "uint256"
        }
      ],
      "stateMutability": "view",
      "type": "function"
    },
    {
      "inputs": [
        {
          "internalType": "address",
          "name": "_poolStakingAddress",
          "type": "address"
        }
      ],
      "name": "claimOrderedWithdraw",
      "outputs": [],
      "stateMutability": "nonpayable",
      "type": "function"
    },
    {
      "inputs": [
        {
          "internalType": "address",
          "name": "pool",
          "type": "address"
        },
        {
          "internalType": "address",
          "name": "delegator",
          "type": "address"
        },
        {
          "internalType": "uint256",
          "name": "epoch",
          "type": "uint256"
        }
      ],
      "name": "clearDelegatorStakeSnapshot",
      "outputs": [],
      "stateMutability": "nonpayable",
      "type": "function"
    },
    {
      "inputs": [],
      "name": "currentKeyGenExtraTimeWindow",
      "outputs": [
        {
          "internalType": "uint256",
          "name": "",
          "type": "uint256"
        }
      ],
      "stateMutability": "view",
      "type": "function"
    },
    {
      "inputs": [],
      "name": "delegatorMinStake",
      "outputs": [
        {
          "internalType": "uint256",
          "name": "",
          "type": "uint256"
        }
      ],
      "stateMutability": "view",
      "type": "function"
    },
    {
      "inputs": [
        {
          "internalType": "string",
          "name": "_selector",
          "type": "string"
        }
      ],
      "name": "getAllowedParamsRange",
      "outputs": [
        {
          "components": [
            {
              "internalType": "bytes4",
              "name": "getter",
              "type": "bytes4"
            },
            {
              "internalType": "uint256[]",
              "name": "range",
              "type": "uint256[]"
            }
          ],
          "internalType": "struct ValueGuards.ParameterRange",
          "name": "",
          "type": "tuple"
        }
      ],
      "stateMutability": "view",
      "type": "function"
    },
    {
      "inputs": [
        {
          "internalType": "bytes4",
          "name": "_selector",
          "type": "bytes4"
        }
      ],
      "name": "getAllowedParamsRangeWithSelector",
      "outputs": [
        {
          "components": [
            {
              "internalType": "bytes4",
              "name": "getter",
              "type": "bytes4"
            },
            {
              "internalType": "uint256[]",
              "name": "range",
              "type": "uint256[]"
            }
          ],
          "internalType": "struct ValueGuards.ParameterRange",
          "name": "",
          "type": "tuple"
        }
      ],
      "stateMutability": "view",
      "type": "function"
    },
    {
      "inputs": [
        {
          "internalType": "address",
          "name": "pool",
          "type": "address"
        },
        {
          "internalType": "address",
          "name": "delegator",
          "type": "address"
        },
        {
          "internalType": "uint256",
          "name": "epoch",
          "type": "uint256"
        }
      ],
      "name": "getDelegatorStakeSnapshot",
      "outputs": [
        {
          "internalType": "uint256",
          "name": "",
          "type": "uint256"
        }
      ],
      "stateMutability": "view",
      "type": "function"
    },
    {
      "inputs": [],
      "name": "getMaxCandidates",
      "outputs": [
        {
          "internalType": "uint256",
          "name": "",
          "type": "uint256"
        }
      ],
      "stateMutability": "pure",
      "type": "function"
    },
    {
      "inputs": [
        {
          "internalType": "address",
          "name": "_poolAddress",
          "type": "address"
        }
      ],
      "name": "getPoolInternetAddress",
      "outputs": [
        {
          "internalType": "bytes16",
          "name": "",
          "type": "bytes16"
        },
        {
          "internalType": "bytes2",
          "name": "",
          "type": "bytes2"
        }
      ],
      "stateMutability": "view",
      "type": "function"
    },
    {
      "inputs": [
        {
          "internalType": "address",
          "name": "_poolAddress",
          "type": "address"
        }
      ],
      "name": "getPoolPublicKey",
      "outputs": [
        {
          "internalType": "bytes",
          "name": "",
          "type": "bytes"
        }
      ],
      "stateMutability": "view",
      "type": "function"
    },
    {
      "inputs": [
        {
          "internalType": "uint256",
          "name": "_epoch",
          "type": "uint256"
        },
        {
          "internalType": "address",
          "name": "_stakingPool",
          "type": "address"
        }
      ],
      "name": "getPoolValidatorStakeAmount",
      "outputs": [
        {
          "internalType": "uint256",
          "name": "",
          "type": "uint256"
        }
      ],
      "stateMutability": "view",
      "type": "function"
    },
    {
      "inputs": [],
      "name": "getPools",
      "outputs": [
        {
          "internalType": "address[]",
          "name": "",
          "type": "address[]"
        }
      ],
      "stateMutability": "view",
      "type": "function"
    },
    {
      "inputs": [],
      "name": "getPoolsInactive",
      "outputs": [
        {
          "internalType": "address[]",
          "name": "",
          "type": "address[]"
        }
      ],
      "stateMutability": "view",
      "type": "function"
    },
    {
      "inputs": [],
      "name": "getPoolsLikelihood",
      "outputs": [
        {
          "internalType": "uint256[]",
          "name": "likelihoods",
          "type": "uint256[]"
        },
        {
          "internalType": "uint256",
          "name": "sum",
          "type": "uint256"
        }
      ],
      "stateMutability": "view",
      "type": "function"
    },
    {
      "inputs": [],
      "name": "getPoolsToBeElected",
      "outputs": [
        {
          "internalType": "address[]",
          "name": "",
          "type": "address[]"
        }
      ],
      "stateMutability": "view",
      "type": "function"
    },
    {
      "inputs": [],
      "name": "getPoolsToBeRemoved",
      "outputs": [
        {
          "internalType": "address[]",
          "name": "",
          "type": "address[]"
        }
      ],
      "stateMutability": "view",
      "type": "function"
    },
    {
      "inputs": [
        {
          "internalType": "address",
          "name": "pool",
          "type": "address"
        },
        {
          "internalType": "address",
          "name": "delegator",
          "type": "address"
        }
      ],
      "name": "getStakeSnapshotLastEpoch",
      "outputs": [
        {
          "internalType": "uint256",
          "name": "",
          "type": "uint256"
        }
      ],
      "stateMutability": "view",
      "type": "function"
    },
    {
      "inputs": [],
      "name": "incrementStakingEpoch",
      "outputs": [],
      "stateMutability": "nonpayable",
      "type": "function"
    },
    {
      "inputs": [
        {
          "internalType": "string",
          "name": "setter",
          "type": "string"
        },
        {
          "internalType": "string",
          "name": "getter",
          "type": "string"
        },
        {
          "internalType": "uint256[]",
          "name": "params",
          "type": "uint256[]"
        }
      ],
      "name": "initAllowedChangeableParameter",
      "outputs": [],
      "stateMutability": "nonpayable",
      "type": "function"
    },
    {
      "inputs": [
        {
          "internalType": "address",
          "name": "_contractOwner",
          "type": "address"
        },
        {
          "components": [
            {
              "internalType": "address",
              "name": "_validatorSetContract",
              "type": "address"
            },
            {
              "internalType": "address",
              "name": "_bonusScoreContract",
              "type": "address"
            },
            {
              "internalType": "address[]",
              "name": "_initialStakingAddresses",
              "type": "address[]"
            },
            {
              "internalType": "uint256",
              "name": "_delegatorMinStake",
              "type": "uint256"
            },
            {
              "internalType": "uint256",
              "name": "_candidateMinStake",
              "type": "uint256"
            },
            {
              "internalType": "uint256",
              "name": "_maxStake",
              "type": "uint256"
            },
            {
              "internalType": "uint256",
              "name": "_stakingFixedEpochDuration",
              "type": "uint256"
            },
            {
              "internalType": "uint256",
              "name": "_stakingTransitionTimeframeLength",
              "type": "uint256"
            },
            {
              "internalType": "uint256",
              "name": "_stakingWithdrawDisallowPeriod",
              "type": "uint256"
            }
          ],
          "internalType": "struct IStakingHbbft.StakingParams",
          "name": "stakingParams",
          "type": "tuple"
        },
        {
          "internalType": "bytes32[]",
          "name": "_publicKeys",
          "type": "bytes32[]"
        },
        {
          "internalType": "bytes16[]",
          "name": "_internetAddresses",
          "type": "bytes16[]"
        }
      ],
      "name": "initialize",
      "outputs": [],
      "stateMutability": "nonpayable",
      "type": "function"
    },
    {
      "inputs": [
        {
          "internalType": "address",
          "name": "_stakingAddress",
          "type": "address"
        }
      ],
      "name": "isPoolActive",
      "outputs": [
        {
          "internalType": "bool",
          "name": "",
          "type": "bool"
        }
      ],
      "stateMutability": "view",
      "type": "function"
    },
    {
      "inputs": [
        {
          "internalType": "bytes4",
          "name": "funcSelector",
          "type": "bytes4"
        },
        {
          "internalType": "uint256",
          "name": "newVal",
          "type": "uint256"
        }
      ],
      "name": "isWithinAllowedRange",
      "outputs": [
        {
          "internalType": "bool",
          "name": "",
          "type": "bool"
        }
      ],
      "stateMutability": "view",
      "type": "function"
    },
    {
      "inputs": [],
      "name": "maxStakeAmount",
      "outputs": [
        {
          "internalType": "uint256",
          "name": "",
          "type": "uint256"
        }
      ],
      "stateMutability": "view",
      "type": "function"
    },
    {
      "inputs": [
        {
          "internalType": "address",
          "name": "_poolStakingAddress",
          "type": "address"
        },
        {
          "internalType": "address",
          "name": "_staker",
          "type": "address"
        }
      ],
      "name": "maxWithdrawAllowed",
      "outputs": [
        {
          "internalType": "uint256",
          "name": "",
          "type": "uint256"
        }
      ],
      "stateMutability": "view",
      "type": "function"
    },
    {
      "inputs": [
        {
          "internalType": "address",
          "name": "_poolStakingAddress",
          "type": "address"
        },
        {
          "internalType": "address",
          "name": "_staker",
          "type": "address"
        }
      ],
      "name": "maxWithdrawOrderAllowed",
      "outputs": [
        {
          "internalType": "uint256",
          "name": "",
          "type": "uint256"
        }
      ],
      "stateMutability": "view",
      "type": "function"
    },
    {
      "inputs": [
        {
          "internalType": "address",
          "name": "_fromPoolStakingAddress",
          "type": "address"
        },
        {
          "internalType": "address",
          "name": "_toPoolStakingAddress",
          "type": "address"
        },
        {
          "internalType": "uint256",
          "name": "_amount",
          "type": "uint256"
        }
      ],
      "name": "moveStake",
      "outputs": [],
      "stateMutability": "nonpayable",
      "type": "function"
    },
    {
      "inputs": [
        {
          "internalType": "address",
          "name": "_stakingAddress",
          "type": "address"
        }
      ],
      "name": "notifyAvailability",
      "outputs": [],
      "stateMutability": "nonpayable",
      "type": "function"
    },
    {
      "inputs": [],
      "name": "notifyKeyGenFailed",
      "outputs": [],
      "stateMutability": "nonpayable",
      "type": "function"
    },
    {
      "inputs": [
        {
          "internalType": "uint256",
          "name": "detectedOfflineTime",
          "type": "uint256"
        }
      ],
      "name": "notifyNetworkOfftimeDetected",
      "outputs": [],
      "stateMutability": "nonpayable",
      "type": "function"
    },
    {
      "inputs": [
        {
          "internalType": "address",
          "name": "_poolStakingAddress",
          "type": "address"
        },
        {
          "internalType": "int256",
          "name": "_amount",
          "type": "int256"
        }
      ],
      "name": "orderWithdraw",
      "outputs": [],
      "stateMutability": "nonpayable",
      "type": "function"
    },
    {
      "inputs": [
        {
          "internalType": "address",
          "name": "",
          "type": "address"
        },
        {
          "internalType": "address",
          "name": "",
          "type": "address"
        }
      ],
      "name": "orderWithdrawEpoch",
      "outputs": [
        {
          "internalType": "uint256",
          "name": "",
          "type": "uint256"
        }
      ],
      "stateMutability": "view",
      "type": "function"
    },
    {
      "inputs": [
        {
          "internalType": "address",
          "name": "",
          "type": "address"
        },
        {
          "internalType": "address",
          "name": "",
          "type": "address"
        }
      ],
      "name": "orderedWithdrawAmount",
      "outputs": [
        {
          "internalType": "uint256",
          "name": "",
          "type": "uint256"
        }
      ],
      "stateMutability": "view",
      "type": "function"
    },
    {
      "inputs": [
        {
          "internalType": "address",
          "name": "",
          "type": "address"
        }
      ],
      "name": "orderedWithdrawAmountTotal",
      "outputs": [
        {
          "internalType": "uint256",
          "name": "",
          "type": "uint256"
        }
      ],
      "stateMutability": "view",
      "type": "function"
    },
    {
      "inputs": [],
      "name": "owner",
      "outputs": [
        {
          "internalType": "address",
          "name": "",
          "type": "address"
        }
      ],
      "stateMutability": "view",
      "type": "function"
    },
    {
      "inputs": [
        {
          "internalType": "address",
          "name": "_poolStakingAddress",
          "type": "address"
        }
      ],
      "name": "poolDelegators",
      "outputs": [
        {
          "internalType": "address[]",
          "name": "",
          "type": "address[]"
        }
      ],
      "stateMutability": "view",
      "type": "function"
    },
    {
      "inputs": [
        {
          "internalType": "address",
          "name": "_poolStakingAddress",
          "type": "address"
        }
      ],
      "name": "poolDelegatorsInactive",
      "outputs": [
        {
          "internalType": "address[]",
          "name": "",
          "type": "address[]"
        }
      ],
      "stateMutability": "view",
      "type": "function"
    },
    {
      "inputs": [
        {
          "internalType": "address",
          "name": "",
          "type": "address"
        }
      ],
      "name": "poolInfo",
      "outputs": [
        {
          "internalType": "bytes",
          "name": "publicKey",
          "type": "bytes"
        },
        {
          "internalType": "bytes16",
          "name": "internetAddress",
          "type": "bytes16"
        },
        {
          "internalType": "bytes2",
          "name": "port",
          "type": "bytes2"
        }
      ],
      "stateMutability": "view",
      "type": "function"
    },
    {
      "inputs": [
        {
          "internalType": "address",
          "name": "",
          "type": "address"
        }
      ],
      "name": "poolToBeElectedIndex",
      "outputs": [
        {
          "internalType": "uint256",
          "name": "",
          "type": "uint256"
        }
      ],
      "stateMutability": "view",
      "type": "function"
    },
    {
      "inputs": [],
      "name": "recoverAbandonedStakes",
      "outputs": [],
      "stateMutability": "nonpayable",
      "type": "function"
    },
    {
      "inputs": [
        {
          "internalType": "string",
          "name": "funcSelector",
          "type": "string"
        }
      ],
      "name": "removeAllowedChangeableParameter",
      "outputs": [],
      "stateMutability": "nonpayable",
      "type": "function"
    },
    {
      "inputs": [],
      "name": "removeMyPool",
      "outputs": [],
      "stateMutability": "nonpayable",
      "type": "function"
    },
    {
      "inputs": [
        {
          "internalType": "address",
          "name": "_stakingAddress",
          "type": "address"
        }
      ],
      "name": "removePool",
      "outputs": [],
      "stateMutability": "nonpayable",
      "type": "function"
    },
    {
      "inputs": [],
      "name": "removePools",
      "outputs": [],
      "stateMutability": "nonpayable",
      "type": "function"
    },
    {
      "inputs": [],
      "name": "renounceOwnership",
      "outputs": [],
      "stateMutability": "nonpayable",
      "type": "function"
    },
    {
      "inputs": [
        {
          "internalType": "address",
          "name": "_poolStakingAddress",
          "type": "address"
        },
        {
          "internalType": "uint256",
          "name": "_validatorMinRewardPercent",
          "type": "uint256"
        }
      ],
      "name": "restake",
      "outputs": [],
      "stateMutability": "payable",
      "type": "function"
    },
    {
      "inputs": [
        {
          "internalType": "string",
          "name": "setter",
          "type": "string"
        },
        {
          "internalType": "string",
          "name": "getter",
          "type": "string"
        },
        {
          "internalType": "uint256[]",
          "name": "params",
          "type": "uint256[]"
        }
      ],
      "name": "setAllowedChangeableParameter",
      "outputs": [],
      "stateMutability": "nonpayable",
      "type": "function"
    },
    {
      "inputs": [
        {
          "internalType": "address",
          "name": "_bonusScoreContract",
          "type": "address"
        }
      ],
      "name": "setBonusScoreContract",
      "outputs": [],
      "stateMutability": "nonpayable",
      "type": "function"
    },
    {
      "inputs": [
        {
          "internalType": "uint256",
          "name": "_minStake",
          "type": "uint256"
        }
      ],
      "name": "setDelegatorMinStake",
      "outputs": [],
      "stateMutability": "nonpayable",
      "type": "function"
    },
    {
      "inputs": [
        {
          "internalType": "bytes",
          "name": "_publicKey",
          "type": "bytes"
        },
        {
          "internalType": "bytes16",
          "name": "_ip",
          "type": "bytes16"
        },
        {
          "internalType": "bytes2",
          "name": "_port",
          "type": "bytes2"
        }
      ],
      "name": "setPoolInfo",
      "outputs": [],
      "stateMutability": "nonpayable",
      "type": "function"
    },
    {
      "inputs": [
        {
          "internalType": "address",
          "name": "_poolStakingAddress",
          "type": "address"
        },
        {
          "internalType": "uint256",
          "name": "_amount",
          "type": "uint256"
        }
      ],
      "name": "setStakeAmountTotal",
      "outputs": [],
      "stateMutability": "nonpayable",
      "type": "function"
    },
    {
      "inputs": [
        {
          "internalType": "uint256",
          "name": "_stakingEpoch",
          "type": "uint256"
        }
      ],
      "name": "setStakingEpoch",
      "outputs": [],
      "stateMutability": "nonpayable",
      "type": "function"
    },
    {
      "inputs": [
        {
          "internalType": "uint256",
          "name": "_timestamp",
          "type": "uint256"
        }
      ],
      "name": "setStakingEpochStartTime",
      "outputs": [],
      "stateMutability": "nonpayable",
      "type": "function"
    },
    {
      "inputs": [
        {
          "internalType": "uint256",
          "name": "_value",
          "type": "uint256"
        }
      ],
      "name": "setStakingFixedEpochDuration",
      "outputs": [],
      "stateMutability": "nonpayable",
      "type": "function"
    },
    {
      "inputs": [
        {
          "internalType": "uint256",
          "name": "_value",
          "type": "uint256"
        }
      ],
      "name": "setStakingTransitionTimeframeLength",
      "outputs": [],
      "stateMutability": "nonpayable",
      "type": "function"
    },
    {
      "inputs": [
        {
          "internalType": "address",
          "name": "_validatorAddress",
          "type": "address"
        },
        {
          "internalType": "bytes16",
          "name": "_ip",
          "type": "bytes16"
        },
        {
          "internalType": "bytes2",
          "name": "_port",
          "type": "bytes2"
        }
      ],
      "name": "setValidatorInternetAddress",
      "outputs": [],
      "stateMutability": "nonpayable",
      "type": "function"
    },
    {
      "inputs": [
        {
          "internalType": "contract IValidatorSetHbbft",
          "name": "_validatorSetAddress",
          "type": "address"
        }
      ],
      "name": "setValidatorMockSetAddress",
      "outputs": [],
      "stateMutability": "nonpayable",
      "type": "function"
    },
    {
      "inputs": [
        {
          "internalType": "contract IValidatorSetHbbft",
          "name": "_validatorSetAddress",
          "type": "address"
        }
      ],
      "name": "setValidatorSetAddress",
      "outputs": [],
      "stateMutability": "nonpayable",
      "type": "function"
    },
    {
      "inputs": [
        {
          "internalType": "uint256",
          "name": "_epoch",
          "type": "uint256"
        },
        {
          "internalType": "address",
          "name": "_stakingPool",
          "type": "address"
        }
      ],
      "name": "snapshotPoolStakeAmounts",
      "outputs": [],
      "stateMutability": "nonpayable",
      "type": "function"
    },
    {
      "inputs": [
        {
          "internalType": "uint256",
          "name": "",
          "type": "uint256"
        },
        {
          "internalType": "address",
          "name": "",
          "type": "address"
        }
      ],
      "name": "snapshotPoolTotalStakeAmount",
      "outputs": [
        {
          "internalType": "uint256",
          "name": "",
          "type": "uint256"
        }
      ],
      "stateMutability": "view",
      "type": "function"
    },
    {
      "inputs": [
        {
          "internalType": "uint256",
          "name": "",
          "type": "uint256"
        },
        {
          "internalType": "address",
          "name": "",
          "type": "address"
        }
      ],
      "name": "snapshotPoolValidatorStakeAmount",
      "outputs": [
        {
          "internalType": "uint256",
          "name": "",
          "type": "uint256"
        }
      ],
      "stateMutability": "view",
      "type": "function"
    },
    {
      "inputs": [
        {
          "internalType": "address",
          "name": "_toPoolStakingAddress",
          "type": "address"
        }
      ],
      "name": "stake",
      "outputs": [],
      "stateMutability": "payable",
      "type": "function"
    },
    {
      "inputs": [
        {
          "internalType": "address",
          "name": "",
          "type": "address"
        },
        {
          "internalType": "address",
          "name": "",
          "type": "address"
        }
      ],
      "name": "stakeAmount",
      "outputs": [
        {
          "internalType": "uint256",
          "name": "",
          "type": "uint256"
        }
      ],
      "stateMutability": "view",
      "type": "function"
    },
    {
      "inputs": [
        {
          "internalType": "address",
          "name": "_poolStakingAddress",
          "type": "address"
        },
        {
          "internalType": "address",
          "name": "_staker",
          "type": "address"
        }
      ],
      "name": "stakeAmountByCurrentEpoch",
      "outputs": [
        {
          "internalType": "uint256",
          "name": "",
          "type": "uint256"
        }
      ],
      "stateMutability": "view",
      "type": "function"
    },
    {
      "inputs": [
        {
          "internalType": "address",
          "name": "",
          "type": "address"
        }
      ],
      "name": "stakeAmountTotal",
      "outputs": [
        {
          "internalType": "uint256",
          "name": "",
          "type": "uint256"
        }
      ],
      "stateMutability": "view",
      "type": "function"
    },
    {
      "inputs": [],
      "name": "stakingEpoch",
      "outputs": [
        {
          "internalType": "uint256",
          "name": "",
          "type": "uint256"
        }
      ],
      "stateMutability": "view",
      "type": "function"
    },
    {
      "inputs": [],
      "name": "stakingEpochStartBlock",
      "outputs": [
        {
          "internalType": "uint256",
          "name": "",
          "type": "uint256"
        }
      ],
      "stateMutability": "view",
      "type": "function"
    },
    {
      "inputs": [],
      "name": "stakingEpochStartTime",
      "outputs": [
        {
          "internalType": "uint256",
          "name": "",
          "type": "uint256"
        }
      ],
      "stateMutability": "view",
      "type": "function"
    },
    {
      "inputs": [],
      "name": "stakingFixedEpochDuration",
      "outputs": [
        {
          "internalType": "uint256",
          "name": "",
          "type": "uint256"
        }
      ],
      "stateMutability": "view",
      "type": "function"
    },
    {
      "inputs": [],
      "name": "stakingFixedEpochEndTime",
      "outputs": [
        {
          "internalType": "uint256",
          "name": "",
          "type": "uint256"
        }
      ],
      "stateMutability": "view",
      "type": "function"
    },
    {
      "inputs": [],
      "name": "stakingTransitionTimeframeLength",
      "outputs": [
        {
          "internalType": "uint256",
          "name": "",
          "type": "uint256"
        }
      ],
      "stateMutability": "view",
      "type": "function"
    },
    {
      "inputs": [],
      "name": "stakingWithdrawDisallowPeriod",
      "outputs": [
        {
          "internalType": "uint256",
          "name": "",
          "type": "uint256"
        }
      ],
      "stateMutability": "view",
      "type": "function"
    },
    {
      "inputs": [],
      "name": "startTimeOfNextPhaseTransition",
      "outputs": [
        {
          "internalType": "uint256",
          "name": "",
          "type": "uint256"
        }
      ],
      "stateMutability": "view",
      "type": "function"
    },
    {
      "inputs": [],
      "name": "totalStakedAmount",
      "outputs": [
        {
          "internalType": "uint256",
          "name": "",
          "type": "uint256"
        }
      ],
      "stateMutability": "view",
      "type": "function"
    },
    {
      "inputs": [
        {
          "internalType": "address",
          "name": "newOwner",
          "type": "address"
        }
      ],
      "name": "transferOwnership",
      "outputs": [],
      "stateMutability": "nonpayable",
      "type": "function"
    },
    {
      "inputs": [
        {
          "internalType": "address",
          "name": "mining",
          "type": "address"
        },
        {
          "internalType": "uint256",
          "name": "validatorScore",
          "type": "uint256"
        }
      ],
      "name": "updatePoolLikelihood",
      "outputs": [],
      "stateMutability": "nonpayable",
      "type": "function"
    },
    {
      "inputs": [],
      "name": "validatorSetContract",
      "outputs": [
        {
          "internalType": "contract IValidatorSetHbbft",
          "name": "",
          "type": "address"
        }
      ],
      "stateMutability": "view",
      "type": "function"
    },
    {
      "inputs": [
        {
          "internalType": "address",
          "name": "_fromPoolStakingAddress",
          "type": "address"
        },
        {
          "internalType": "uint256",
          "name": "_amount",
          "type": "uint256"
        }
      ],
      "name": "withdraw",
      "outputs": [],
      "stateMutability": "nonpayable",
      "type": "function"
    },
    {
      "stateMutability": "payable",
      "type": "receive"
    }
  ],
  "bytecode": "0x6080604052348015600f57600080fd5b506016601a565b60ca565b7ff0c57e16840df040f15088dc2f81fe391c3923bec73e23a9662efc9c229c6a00805468010000000000000000900460ff161560695760405163f92ee8a960e01b815260040160405180910390fd5b80546001600160401b039081161460c75780546001600160401b0319166001600160401b0390811782556040519081527fc7f505b2f371ae2175ee4913f4499e1f2633a7b5936321eed1cdaeb6115181d29060200160405180910390a15b50565b615e2d806100d96000396000f3fe6080604052600436106105c45760003560e01c8063862be287116102f6578063c6912cc01161018f578063e9ab0300116100e1578063f2de669911610095578063f49425011161006f578063f4942501146111a3578063fa4aaf47146111b7578063ffada862146111e457600080fd5b8063f2de66991461114f578063f2fde38b14611163578063f3fef3a31461118357600080fd5b8063edd7db75116100c6578063edd7db751461110f578063ee435f5514611124578063f07860961461113957600080fd5b8063e9ab03001461109a578063eb3efa16146110d257600080fd5b8063da7a9b6a11610143578063dfc8bf4e1161011d578063dfc8bf4e14611006578063e2a43cd914611026578063e5b1d5931461105d57600080fd5b8063da7a9b6a14610fae578063dadee88a14610fc4578063df6f55f514610ff157600080fd5b8063cfef144111610174578063cfef144114610f59578063d0ac76f614610f79578063d290c21d14610f9957600080fd5b8063c6912cc014610f24578063c6af311a14610f3957600080fd5b8063a5d54f6511610248578063b0bd5e9e116101fc578063b710c15d116101d6578063b710c15d14610eb7578063ba08d23714610ee4578063bf348f8614610f0457600080fd5b8063b0bd5e9e14610e77578063b163cc381461065e578063b61ed63a14610e9757600080fd5b8063a711e6a11161022d578063a711e6a114610e2c578063adddc0cf14610e4c578063ae1aaf8014610e6157600080fd5b8063a5d54f6514610ddf578063a697ecff14610df457600080fd5b80639a7b5f11116102aa5780639e72c635116102845780639e72c63514610d675780639ea8082b14610d87578063a420596714610da757600080fd5b80639a7b5f1114610d025780639b03d74414610d315780639b9fb6d014610d4757600080fd5b806392283634116102db5780639228363414610c76578063950a651314610cbf578063957950a714610cdf57600080fd5b8063862be28714610c195780638da5cb5b14610c3957600080fd5b80634e9b426d11610468578063673a2a1f116103ba57806373c218031161036e5780637b0a0f9b116103485780637b0a0f9b14610bb95780637b15b94c14610bd95780638247a23914610bf957600080fd5b806373c2180314610b33578063750dd2a114610b53578063794c0c6814610ba357600080fd5b80637069e7461161039f5780637069e74614610ad0578063715018a614610ae6578063728345db14610afb57600080fd5b8063673a2a1f14610a8e5780636bda157714610ab057600080fd5b80635b4eafe01161041c5780635d80ca32116103f65780635d80ca3214610a425780635fef764314610a58578063611d760c14610a6e57600080fd5b80635b4eafe0146109bf5780635ca2b65014610a025780635cb092a214610a2257600080fd5b80635267e1d61161044d5780635267e1d614610969578063567e98f91461099657806356e4d6c2146109ac57600080fd5b80634e9b426d146109265780634f9a8d8f1461095357600080fd5b806322704bdd116105215780633219d600116104d5578063379b046a116104af578063379b046a146108dd5780633b7d0946146108f35780633f3afe011461091357600080fd5b80633219d6001461086957806336e98ca8146108a857806337154263146108c857600080fd5b8063251441a911610506578063251441a91461081657806326476204146108365780632bafde8d1461084957600080fd5b806322704bdd146107e157806322e3d9861461080157600080fd5b8063129bd128116105785780631555371c1161055d5780631555371c14610730578063159e0a95146107455780631fb31e431461076557600080fd5b8063129bd128146106d85780631345b8a5146106f857600080fd5b80630ac6e291116105a95780630ac6e291146106605780630b770cdf1461068057806311f86c99146106b857600080fd5b8063028b8bdb146105e757806303a810651461061057600080fd5b366105e257604051631574f9f360e01b815260040160405180910390fd5b600080fd5b3480156105f357600080fd5b506105fd60155481565b6040519081526020015b60405180910390f35b34801561061c57600080fd5b5061065e61062b3660046152c0565b6001600160a01b039283166000908152602360209081526040808320949095168252928352838120918152915290812055565b005b34801561066c57600080fd5b5061065e61067b36600461534d565b611204565b34801561068c57600080fd5b506025546106a0906001600160a01b031681565b6040516001600160a01b039091168152602001610607565b3480156106c457600080fd5b506105fd6106d33660046152c0565b6117f8565b3480156106e457600080fd5b506105fd6106f33660046153fd565b61182e565b34801561070457600080fd5b506105fd610713366004615436565b602260209081526000928352604080842090915290825290205481565b34801561073c57600080fd5b5061065e61185b565b34801561075157600080fd5b5061065e61076036600461545b565b6118e6565b34801561077157600080fd5b506107af61078036600461545b565b6001600160a01b03166000908152601f6020526040902060010154608081901b91600160801b90910460f01b90565b604080516fffffffffffffffffffffffffffffffff1990931683526001600160f01b0319909116602083015201610607565b3480156107ed57600080fd5b5061065e6107fc366004615478565b61196a565b34801561080d57600080fd5b506105fd6119a7565b34801561082257600080fd5b5061065e6108313660046152c0565b6119ee565b61065e61084436600461545b565b611aac565b34801561085557600080fd5b5061065e610864366004615478565b611b2f565b34801561087557600080fd5b5061089861088436600461545b565b602080526000908152604090205460ff1681565b6040519015158152602001610607565b3480156108b457600080fd5b5061065e6108c3366004615548565b611baf565b3480156108d457600080fd5b5061065e611c63565b3480156108e957600080fd5b506105fd601b5481565b3480156108ff57600080fd5b5061065e61090e36600461545b565b61205c565b61065e610921366004615635565b6120ab565b34801561093257600080fd5b5061094661094136600461545b565b612416565b60405161060791906156b1565b34801561095f57600080fd5b506105fd60175481565b34801561097557600080fd5b506105fd61098436600461545b565b601c6020526000908152604090205481565b3480156109a257600080fd5b506105fd601d5481565b61065e6109ba36600461572c565b6124c2565b3480156109cb57600080fd5b506105fd6109da366004615436565b60009182526022602090815260408084206001600160a01b0393909316845291905290205490565b348015610a0e57600080fd5b5061065e610a1d366004615478565b601655565b348015610a2e57600080fd5b5061065e610a3d366004615548565b6125f7565b348015610a4e57600080fd5b506105fd600f5481565b348015610a6457600080fd5b506105fd600d5481565b348015610a7a57600080fd5b5061065e610a8936600461545b565b6125ff565b348015610a9a57600080fd5b50610aa361260a565b6040516106079190615793565b348015610abc57600080fd5b506105fd610acb3660046153fd565b61261b565b348015610adc57600080fd5b506105fd601a5481565b348015610af257600080fd5b5061065e61279a565b348015610b0757600080fd5b506105fd610b16366004615436565b602160209081526000928352604080842090915290825290205481565b348015610b3f57600080fd5b50610aa3610b4e36600461545b565b6127ae565b348015610b5f57600080fd5b506105fd610b6e3660046153fd565b6001600160a01b039182166000908152600c602090815260408083209390941682529182528281206016548252909152205490565b348015610baf57600080fd5b506105fd60165481565b348015610bc557600080fd5b5061065e610bd43660046157f8565b6127d2565b348015610be557600080fd5b5061065e610bf436600461545b565b612868565b348015610c0557600080fd5b5061065e610c14366004615478565b6128e8565b348015610c2557600080fd5b5061065e610c3436600461583d565b612934565b348015610c4557600080fd5b507f9016d09d72d40fdae2fd8ceac6b6234c7706214fd39c1cd1e609a0528c199300546001600160a01b03166106a0565b348015610c8257600080fd5b50610ca6610c913660046158af565b60006020819052908152604090205460e01b81565b6040516001600160e01b03199091168152602001610607565b348015610ccb57600080fd5b506105fd610cda3660046153fd565b612997565b348015610ceb57600080fd5b50610cf4612adf565b604051610607929190615906565b348015610d0e57600080fd5b50610d22610d1d36600461545b565b612b42565b60405161060793929190615928565b348015610d3d57600080fd5b506105fd60195481565b348015610d5357600080fd5b5061065e610d6236600461596f565b612bf6565b348015610d7357600080fd5b5061065e610d82366004615478565b612c6a565b348015610d9357600080fd5b50610aa3610da236600461545b565b612cce565b348015610db357600080fd5b506105fd610dc23660046153fd565b601260209081526000928352604080842090915290825290205481565b348015610deb57600080fd5b50610aa3612cf2565b348015610e0057600080fd5b506105fd610e0f3660046153fd565b601460209081526000928352604080842090915290825290205481565b348015610e3857600080fd5b50610898610e4736600461545b565b612d54565b348015610e5857600080fd5b5061065e612d61565b348015610e6d57600080fd5b506105fd60185481565b348015610e8357600080fd5b5061065e610e92366004615478565b612dbf565b348015610ea357600080fd5b5061065e610eb2366004615635565b612dee565b348015610ec357600080fd5b50610ed7610ed236600461596f565b613155565b60405161060791906159a4565b348015610ef057600080fd5b50610898610eff3660046159d2565b6131fd565b348015610f1057600080fd5b50610ed7610f1f3660046158af565b6133cc565b348015610f3057600080fd5b506105fd613469565b348015610f4557600080fd5b5061065e610f54366004615635565b613488565b348015610f6557600080fd5b5061065e610f7436600461545b565b613532565b348015610f8557600080fd5b5061065e610f94366004615436565b613705565b348015610fa557600080fd5b50610aa3613848565b348015610fba57600080fd5b506105fd600e5481565b348015610fd057600080fd5b506105fd610fdf36600461545b565b60116020526000908152604090205481565b348015610ffd57600080fd5b50610aa3613854565b34801561101257600080fd5b50601e546106a0906001600160a01b031681565b34801561103257600080fd5b5061065e611041366004615635565b6001600160a01b039091166000908152601c6020526040902055565b34801561106957600080fd5b5061065e61107836600461545b565b602680546001600160a01b0319166001600160a01b0392909216919091179055565b3480156110a657600080fd5b506105fd6110b53660046153fd565b601060209081526000928352604080842090915290825290205481565b3480156110de57600080fd5b5061065e6110ed36600461545b565b601e80546001600160a01b0319166001600160a01b0392909216919091179055565b34801561111b57600080fd5b5061065e613860565b34801561113057600080fd5b5061065e6139a0565b34801561114557600080fd5b506105fd610bb881565b34801561115b57600080fd5b5060646105fd565b34801561116f57600080fd5b5061065e61117e36600461545b565b6139ff565b34801561118f57600080fd5b5061065e61119e366004615635565b613a3a565b3480156111af57600080fd5b506001610898565b3480156111c357600080fd5b506105fd6111d236600461545b565b60136020526000908152604090205481565b3480156111f057600080fd5b5061065e6111ff36600461545b565b613af3565b7ff0c57e16840df040f15088dc2f81fe391c3923bec73e23a9662efc9c229c6a00805468010000000000000000810460ff16159067ffffffffffffffff1660008115801561124f5750825b905060008267ffffffffffffffff16600114801561126c5750303b155b90508115801561127a575080155b156112985760405163f92ee8a960e01b815260040160405180910390fd5b845467ffffffffffffffff1916600117855583156112cc57845468ff00000000000000001916680100000000000000001785555b6001600160a01b038b166112f35760405163d92e233d60e01b815260040160405180910390fd5b6112fc8a613afc565b8761130a60408c018c6159ee565b61131691506002615a4e565b146113335760405162d6988760e81b815260040160405180910390fd5b8561134160408c018c6159ee565b905014611361576040516320041afd60e01b815260040160405180910390fd5b61136a8b613c5f565b611372613c70565b61137f60208b018b61545b565b601e80546001600160a01b0319166001600160a01b03929092169190911790556113af60408b0160208c0161545b565b602580546001600160a01b0319166001600160a01b03929092169190911790553660006113df60408d018d6159ee565b9150915060005b8181101561160257600083838381811061140257611402615a65565b9050602002016020810190611417919061545b565b6001600160a01b03160361143e5760405163d92e233d60e01b815260040160405180910390fd5b61146f83838381811061145357611453615a65565b9050602002016020810190611468919061545b565b6000613c80565b61149e83838381811061148457611484615a65565b9050602002016020810190611499919061545b565b613cdf565b8b8b6114ab836002615a4e565b8181106114ba576114ba615a65565b905060200201358c8c8360026114d09190615a4e565b6114db906001615a7b565b8181106114ea576114ea615a65565b9050602002013560405160200161150b929190918252602082015260400190565b604051602081830303815290604052601f600085858581811061153057611530615a65565b9050602002016020810190611545919061545b565b6001600160a01b031681526020810191909152604001600020906115699082615b18565b5089898281811061157c5761157c615a65565b90506020020160208101906115919190615bd8565b601f60008585858181106115a7576115a7615a65565b90506020020160208101906115bc919061545b565b6001600160a01b031681526020810191909152604001600020600190810180546fffffffffffffffffffffffffffffffff191660809390931c92909217909155016113e6565b5060408051600580825260c082019092526000916020820160a0803683370190505090506802b5e3af16b18800008160008151811061164357611643615a65565b60200260200101818152505068056bc75e2d631000008160018151811061166c5761166c615a65565b602002602001018181525050680821ab0d44149800008160028151811061169557611695615a65565b602002602001018181525050680ad78ebc5ac6200000816003815181106116be576116be615a65565b602002602001018181525050680d8d726b7177a80000816004815181106116e7576116e7615a65565b6020026020010181815250506117686040518060400160405280601d81526020017f73657444656c656761746f724d696e5374616b652875696e74323536290000008152506040518060400160405280601381526020017f64656c656761746f724d696e5374616b65282900000000000000000000000000815250836125f7565b50505060608a0135600e5560808a0135600d5560a08a0135600f5560c08a01356017556101008a01356015554260195560e08a013560185583156117eb57845468ff000000000000000019168555604051600181527fc7f505b2f371ae2175ee4913f4499e1f2633a7b5936321eed1cdaeb6115181d29060200160405180910390a15b5050505050505050505050565b6001600160a01b0380841660009081526023602090815260408083209386168352928152828220848352905220545b9392505050565b6001600160a01b038083166000908152602460209081526040808320938516835292905220545b92915050565b601e546001600160a01b0316331480159061188157506026546001600160a01b03163314155b1561189e576040516282b42960e81b815260040160405180910390fd5b60006118aa6005613cf4565b905060005b81518110156118e2576118da8282815181106118cd576118cd615a65565b6020026020010151613d01565b6001016118af565b5050565b6118ee613d47565b6001600160a01b0381166119155760405163d92e233d60e01b815260040160405180910390fd5b602580546001600160a01b0319166001600160a01b0383169081179091556040519081527fd4244d1f8acb4860e17399636c6b7875c75656aafb5cb3d0163d7305eace7172906020015b60405180910390a150565b611972613d47565b600a8111158061198457506017548110155b156119a257604051638826666f60e01b815260040160405180910390fd5b601855565b60195460175460009190156119bd5760016119c0565b60005b60ff16601b54601754836119d49190615a7b565b6119de9190615a7b565b6119e89190615bf3565b91505090565b3a600003611a0f57604051630e661aed60e41b815260040160405180910390fd5b816001600160a01b0316836001600160a01b031603611a4157604051630a5eddd560e01b815260040160405180910390fd5b33611a4d848284613da2565b611a58838284614050565b601654604080516001600160a01b0387811682526020820186905280851692908716917f4480d8e4b1e9095b94bf513961d26fe1d32386ebdd103d18fe8738cf4b2223ff910160405180910390a450505050565b3a600003611acd57604051630e661aed60e41b815260040160405180910390fd5b3334611ada838383614050565b601654826001600160a01b0316846001600160a01b03167f2273de02cb1f69ba6259d22c4bc22c60e4c94c193265ef6afee324a04a9b6d2284604051611b2291815260200190565b60405180910390a4505050565b611b37613d47565b80611b4e6000356001600160e01b031916826131fd565b611b73576040516373330d9b60e01b8152600481018290526024015b60405180910390fd5b600e8290556040518281527ffee02ce7aa40f9c49eaabd26d404fa88714b97cb209af8954cfd5eeb8213b93e9060200160405180910390a15050565b611bb7613d47565b60408051808201825283516020808601919091206001600160e01b031990811683528183018581528751888401209091166000908152808352939093208251815463ffffffff191660e09190911c17815592518051929392611c1f9260018501920190615231565b509050507f3d45a310c5a076ea07aa2947ca3c06cc2a8b3571065867ad6f8e7096a2c9d50a838383604051611c5693929190615c06565b60405180910390a1505050565b3a600003611c8457604051630e661aed60e41b815260040160405180910390fd5b600080611c916003613cf4565b90508051600003611cb557604051631c369b4560e21b815260040160405180910390fd5b60005b8151811015611e9b576000828281518110611cd557611cd5615a65565b60200260200101519050611ce8816143a0565b80611d5e5750601e54604051639d6fc1d160e01b81526001600160a01b03838116600483015290911690639d6fc1d190602401602060405180830381865afa158015611d38573d6000803e3d6000fd5b505050506040513d601f19601f82011682018060405250810190611d5c9190615c3f565b155b15611d695750611e93565b611d746003826143de565b506001600160a01b038116600090815260208080526040808320805460ff19166001179055601c9091528120805490829055601d805491928392611db9908490615bf3565b9091555060009050611dca83612cce565b905060005b8151811015611e35576000828281518110611dec57611dec615a65565b6020908102919091018101516001600160a01b0380881660009081526014845260408082209284168252919093528220919091559050611e2c85826143f3565b50600101611dcf565b50611e408287615a7b565b9550826001600160a01b0316336001600160a01b03167f8e6a4ccd7dccdca9ac211d00fcc3fa7c71be75ff73d3a35f63ea023173cc100484604051611e8791815260200190565b60405180910390a35050505b600101611cb8565b5081600003611ebd57604051631c369b4560e21b815260040160405180910390fd5b6000611eca600284615c77565b90506000611ed88285615bf3565b90506000601e60009054906101000a90046001600160a01b03166001600160a01b03166356b54bae6040518163ffffffff1660e01b8152600401602060405180830381865afa158015611f2f573d6000803e3d6000fd5b505050506040513d601f19601f82011682018060405250810190611f539190615c99565b90506000816001600160a01b031663732524946040518163ffffffff1660e01b8152600401602060405180830381865afa158015611f95573d6000803e3d6000fd5b505050506040513d601f19601f82011682018060405250810190611fb99190615c99565b9050816001600160a01b031663af182535846040518263ffffffff1660e01b81526004016000604051808303818588803b158015611ff657600080fd5b505af115801561200a573d6000803e3d6000fd5b50505050506120198185614455565b604080518481526020810186905233917f1c113e6bae9530fea40323e612aeb0cb7817dedb5a0b0f6bdfbff97d55920dc7910160405180910390a2505050505050565b601e546001600160a01b0316331480159061208257506026546001600160a01b03163314155b1561209f576040516282b42960e81b815260040160405180910390fd5b6120a881613d01565b50565b601e60009054906101000a90046001600160a01b03166001600160a01b03166356b54bae6040518163ffffffff1660e01b8152600401602060405180830381865afa1580156120fe573d6000803e3d6000fd5b505050506040513d601f19601f820116820180604052508101906121229190615c99565b6001600160a01b0316336001600160a01b031614612152576040516282b42960e81b815260040160405180910390fd5b34156118e25760165460008181526021602090815260408083206001600160a01b0387168085529083528184205494845260228352818420908452909152812054349291818311156123355760006121a987612cce565b905060006121b78486615bf3565b905060006121c58883615a4e565b6121d0896064615bf3565b6121da9087615a4e565b1190506121ea8186888a8c6144fc565b935060005b835181101561232c57600061222d83896122256016548f8a888151811061221857612218615a65565b602002602001015161454b565b878d8f6145ea565b905080601460008d6001600160a01b03166001600160a01b03168152602001908152602001600020600087858151811061226957612269615a65565b60200260200101516001600160a01b03166001600160a01b0316815260200190815260200160002060008282546122a09190615a7b565b90915550506001600160a01b038b166000908152600c6020526040812086518392908890869081106122d4576122d4615a65565b60200260200101516001600160a01b03166001600160a01b0316815260200190815260200160002060006016548152602001908152602001600020600082825461231e9190615a7b565b9091555050506001016121ef565b50505050612338565b50825b6001600160a01b038616600090815260146020908152604080832090915281208054839290612368908490615a7b565b90915550506001600160a01b0386166000908152601c602052604081208054869290612395908490615a7b565b9250508190555083601d60008282546123ae9190615a7b565b909155506123bd905086614658565b6016546001600160a01b0387167f72093068b9f28053bd924ac15d7710b987f9b6ef1e0f89f47d8b4bd7cac776dc836123f68189615bf3565b6040805192835260208301919091520160405180910390a3505050505050565b6001600160a01b0381166000908152601f6020526040902080546060919061243d90615a8e565b80601f016020809104026020016040519081016040528092919081815260200182805461246990615a8e565b80156124b65780601f1061248b576101008083540402835291602001916124b6565b820191906000526020600020905b81548152906001019060200180831161249957829003601f168201915b50505050509050919050565b3a6000036124e357604051630e661aed60e41b815260040160405180910390fd5b601e54604051630526083960e11b81526001600160a01b0386811660048301523360248301819052923492911690630a4c107290604401600060405180830381600087803b15801561253457600080fd5b505af1158015612548573d6000803e3d6000fd5b50505050612557828383614050565b6001600160a01b0382166000908152601f6020526040902061257a858783615cb6565b506001600160a01b0382166000818152601f602090815260409182902060010180546fffffffffffffffffffffffffffffffff1916608088901c179055601654915184815291929182917f2273de02cb1f69ba6259d22c4bc22c60e4c94c193265ef6afee324a04a9b6d22910160405180910390a4505050505050565b611bb7614745565b6120a8816001613c80565b60606126166001613cf4565b905090565b601e546040516253517560e01b81526001600160a01b03848116600483015260009283929116906253517590602401602060405180830381865afa158015612667573d6000803e3d6000fd5b505050506040513d601f19601f8201168201806040525081019061268b9190615c99565b90506001600160a01b038416600090815260208052604090205460ff16156126b7576000915050611855565b6001600160a01b03848116600090815260146020908152604080832087851684529091529081902054601e54915163a0d16cad60e01b815284841660048201529092919091169063a0d16cad90602401602060405180830381865afa158015612724573d6000803e3d6000fd5b505050506040513d601f19601f820116820180604052508101906127489190615c3f565b6127555791506118559050565b6001600160a01b038581166000908152600c60209081526040808320938816835292815282822060165483529052205480821115612791578091505b50949350505050565b6127a2613d47565b6127ac6000614793565b565b6001600160a01b0381166000908152600b6020526040902060609061185590613cf4565b601e546001600160a01b031633148015906127f857506026546001600160a01b03163314155b15612815576040516282b42960e81b815260040160405180910390fd5b6001600160a01b039092166000908152601f60205260409020600101805460f09390931c600160801b0271ffffffffffffffffffffffffffffffffffff1990931660809290921c91909117919091179055565b601e546001600160a01b0316331480159061288e57506026546001600160a01b03163314155b156128ab576040516282b42960e81b815260040160405180910390fd5b600d546001600160a01b0382166000908152601460209081526040808320909152902054106120a8576128df816001613c80565b6120a881614658565b601e546001600160a01b0316331480159061290e57506026546001600160a01b03163314155b1561292b576040516282b42960e81b815260040160405180910390fd5b60195543601a55565b336000908152601f6020526040902061294e848683615cb6565b50336000908152601f60205260409020600101805460f09290921c600160801b0271ffffffffffffffffffffffffffffffffffff1990921660809390931c929092171790555050565b601e546040516253517560e01b81526001600160a01b03848116600483015260009283929116906253517590602401602060405180830381865afa1580156129e3573d6000803e3d6000fd5b505050506040513d601f19601f82011682018060405250810190612a079190615c99565b9050601e5460405163a0d16cad60e01b81526001600160a01b0383811660048301529091169063a0d16cad90602401602060405180830381865afa158015612a53573d6000803e3d6000fd5b505050506040513d601f19601f82011682018060405250810190612a779190615c3f565b612a85576000915050611855565b6001600160a01b038481166000818152600c602090815260408083209488168084529482528083206016548452825280832054938352601482528083209483529390529190912054612ad79190615bf3565b949350505050565b60606000600860095481805480602002602001604051908101604052809291908181526020018280548015612b3357602002820191906000526020600020905b815481526020019060010190808311612b1f575b50505050509150915091509091565b601f60205260009081526040902080548190612b5d90615a8e565b80601f0160208091040260200160405190810160405280929190818152602001828054612b8990615a8e565b8015612bd65780601f10612bab57610100808354040283529160200191612bd6565b820191906000526020600020905b815481529060010190602001808311612bb957829003601f168201915b50505060019093015491925050608081901b90600160801b900460f01b83565b612bfe613d47565b80516020808301919091206001600160e01b03191660009081529081905260408120805463ffffffff1916815590612c39600183018261527c565b50507f92d44565a40fe29702ffa146ddaa3bb133d4077f5312d682d0a2632a9bc73a8a8160405161195f91906156b1565b601e546001600160a01b03163314801590612c9057506026546001600160a01b03163314155b15612cad576040516282b42960e81b815260040160405180910390fd5b60185481601b54612cbe9190615a7b565b612cc89190615a7b565b601b5550565b6001600160a01b0381166000908152600a6020526040902060609061185590613cf4565b60606007805480602002602001604051908101604052809291908181526020018280548015612d4a57602002820191906000526020600020905b81546001600160a01b03168152600190910190602001808311612d2c575b5050505050905090565b6000611855600183614804565b601e546001600160a01b03163314801590612d8757506026546001600160a01b03163314155b15612da4576040516282b42960e81b815260040160405180910390fd5b601854601b6000828254612db89190615a7b565b9091555050565b612dc7613d47565b6018548111612de95760405163160ac89160e31b815260040160405180910390fd5b601755565b3a600003612e0f57604051630e661aed60e41b815260040160405180910390fd5b6001600160a01b038216612e365760405163d92e233d60e01b815260040160405180910390fd5b80600003612e5757604051633ca0029d60e01b815260040160405180910390fd5b6001600160a01b03821660008181526010602090815260408083203380855290835281842054858552601184528285205460148552838620838752855283862054968652601c9094529184205490949193861315612f6157856000612ebc8988612997565b905080821115612ee957604051632de4882160e01b81526004810182905260248101839052604401611b6a565b612ef38287615a7b565b9550612eff8286615a7b565b9450612f0b8285615bf3565b9350612f178284615bf3565b925081601d6000828254612f2b9190615bf3565b90915550506016546001600160a01b03808b166000908152601260209081526040808320938c168352929052205550612fb79050565b6000612f6c87615d77565b9050612f788186615bf3565b9450612f848185615bf3565b9350612f908184615a7b565b9250612f9c8183615a7b565b915080601d6000828254612fb09190615a7b565b9091555050505b6001600160a01b038088166000818152601060209081526040808320948a1680845294825280832089905583835260118252808320889055601482528083208584528252808320879055838352601c909152902083905590036130865781158015906130245750600d5482105b1561305c57604051636fe84f3d60e01b81526001600160a01b0380891660048301528616602482015260448101879052606401611b6a565b600086131561307b57816000036130765761307687613cdf565b6130f3565b613076876001613c80565b81158015906130965750600e5482105b156130ce57604051636fe84f3d60e01b81526001600160a01b0380891660048301528616602482015260448101879052606401611b6a565b60008613156130e957816000036130765761307687866143f3565b6130f38786614826565b6130fc87614658565b601654856001600160a01b0316886001600160a01b03167f80d5c777e5f7ac6ee89723223803ca5c0ec0204f89e99c1b0cde973c66a645948960405161314491815260200190565b60405180910390a450505050505050565b60408051808201909152600081526060602082015281516020808401919091206001600160e01b0319908116600090815280835260409081902081518083018352815460e01b90931683526001810180548351818702810187019094528084529394919385830193928301828280156131ed57602002820191906000526020600020905b8154815260200190600101908083116131d9575b5050505050815250509050919050565b6001600160e01b031980831660009081526020818152604080832081518083018352815460e01b90951685526001810180548351818602810186019094528084529495869590949293858401939092919083018282801561327d57602002820191906000526020600020905b815481526020019060010190808311613269575b505050505081525050905080602001515160000361329f576000915050611855565b602081015181516000906132b290614853565b905060005b82518110156133bf57818382815181106132d3576132d3615a65565b6020026020010151036133b757600080821161330957836000815181106132fc576132fc615a65565b602002602001015161332e565b83613315600184615bf3565b8151811061332557613325615a65565b60200260200101515b90506000600185516133409190615bf3565b83106133725784600186516133559190615bf3565b8151811061336557613365615a65565b6020026020010151613397565b8461337e846001615a7b565b8151811061338e5761338e615a65565b60200260200101515b90508188141580156133a95750808814155b159650505050505050611855565b6001016132b7565b5060009695505050505050565b6040805180820190915260008152606060208201526001600160e01b03198083166000908152602081815260409182902082518084018452815460e01b90941684526001810180548451818502810185019095528085529193858401939092908301828280156131ed57602002820191906000526020600020908154815260200190600101908083116131d9575050505050815250509050919050565b600060185460175460195461347e9190615a7b565b6126169190615bf3565b6025546001600160a01b031633146134b2576040516282b42960e81b815260040160405180910390fd5b601e546040516307b9342f60e21b81526001600160a01b0384811660048301526000921690631ee4d0bc90602401602060405180830381865afa1580156134fd573d6000803e3d6000fd5b505050506040513d601f19601f820116820180604052508101906135219190615c99565b905061352d8183614921565b505050565b3a60000361355357604051630e661aed60e41b815260040160405180910390fd5b61355b6149cb565b6001600160a01b038116600090815260126020908152604080832033808552925290912054601654116135b457604051630b06352b60e31b81526001600160a01b03808416600483015282166024820152604401611b6a565b6001600160a01b038083166000908152601060209081526040808320938516835292905290812054908190036135fd57604051633ca0029d60e01b815260040160405180910390fd5b6001600160a01b03808416600081815260106020908152604080832094871683529381528382208290559181526011909152205461363c908290615bf3565b6001600160a01b0380851660009081526011602090815260408083209490945560148152838220928616825291909152908120549003613680576136808383614a15565b61368a8282614455565b601654826001600160a01b0316846001600160a01b03167ff380b0bc887e00f5b50d3c9d4eaaf5c9a0afd97b956316b995159384c4ede9b3846040516136d291815260200190565b60405180910390a450506120a860017f9b779b17422d0df92223018b32b4d1fa46e071723d6817e2486d003becc55f0055565b601e60009054906101000a90046001600160a01b03166001600160a01b03166356b54bae6040518163ffffffff1660e01b8152600401602060405180830381865afa158015613758573d6000803e3d6000fd5b505050506040513d601f19601f8201168201806040525081019061377c9190615c99565b6001600160a01b0316336001600160a01b0316146137ac576040516282b42960e81b815260040160405180910390fd5b60008281526021602090815260408083206001600160a01b038516845290915281205490036118e2576001600160a01b0381166000908152601c6020526040812054908190036137fb57505050565b60008381526021602090815260408083206001600160a01b038616808552908352818420949094556014825280832082528083205486845260228352818420948452939091529020555050565b60606126166005613cf4565b60606126166003613cf4565b3a60000361388157604051630e661aed60e41b815260040160405180910390fd5b601e546040516253517560e01b81523360048201819052916000916001600160a01b03909116906253517590602401602060405180830381865afa1580156138cd573d6000803e3d6000fd5b505050506040513d601f19601f820116820180604052508101906138f19190615c99565b9050601654600014801561396e5750601e5460405163facd743b60e01b81526001600160a01b0383811660048301529091169063facd743b90602401602060405180830381865afa15801561394a573d6000803e3d6000fd5b505050506040513d601f19601f8201168201806040525081019061396e9190615c3f565b15613997576040516303d71f2d60e51b81526001600160a01b0383166004820152602401611b6a565b6118e282613d01565b601e546001600160a01b031633148015906139c657506026546001600160a01b03163314155b156139e3576040516282b42960e81b815260040160405180910390fd5b601680549060006139f383615d93565b90915550506000601b55565b613a07613d47565b6001600160a01b038116613a3157604051631e4fbdf760e01b815260006004820152602401611b6a565b6120a881614793565b3a600003613a5b57604051630e661aed60e41b815260040160405180910390fd5b613a636149cb565b33613a6f838284613da2565b613a798183614455565b601654816001600160a01b0316846001600160a01b03167fa7c0f0cac6bd4d18042007706c84a8abe823751cf289b69c01e83eef7b5915c785604051613ac191815260200190565b60405180910390a4506118e260017f9b779b17422d0df92223018b32b4d1fa46e071723d6817e2486d003becc55f0055565b6120a881614b6b565b60c08101351580613b1657508061010001358160c0013511155b15613b345760405163c671116b60e01b815260040160405180910390fd5b806101000135600003613b5a576040516332154b4760e01b815260040160405180910390fd5b60e08101351580613b7357508060c001358160e0013510155b15613b9157604051630685efe960e01b815260040160405180910390fd5b6000613ba0602083018361545b565b6001600160a01b031603613bc75760405163d92e233d60e01b815260040160405180910390fd5b613bd460408201826159ee565b9050600003613bf657604051635c9a24ed60e11b815260040160405180910390fd5b60608101351580613c0957506080810135155b15613c375760405163633373e160e11b81526080820135600482015260608201356024820152604401611b6a565b80608001358160a00135116120a857604051631c6d3b1560e01b815260040160405180910390fd5b613c67614745565b6120a881614b76565b613c78614745565b6127ac614b7e565b613c8982612d54565b613cc457613c98600183614b86565b506064613ca56001614b9b565b1115613cc45760405163398dcd9d60e21b815260040160405180910390fd5b613ccf6003836143de565b5080156118e2576118e282614ba5565b613cea600582614b86565b506120a881614c9a565b6060600061182783614eb7565b613d0c6001826143de565b50613d16816143a0565b15613d2c57613d266003826143de565b50613d35565b613d3581614b6b565b613d3e81614c9a565b6120a881614f12565b33613d797f9016d09d72d40fdae2fd8ceac6b6234c7706214fd39c1cd1e609a0528c199300546001600160a01b031690565b6001600160a01b0316146127ac5760405163118cdaa760e01b8152336004820152602401611b6a565b6001600160a01b038316613dc95760405163d92e233d60e01b815260040160405180910390fd5b80600003613dea57604051633ca0029d60e01b815260040160405180910390fd5b6000613df6848461261b565b905080821115613e2357604051632de4882160e01b81526004810182905260248101839052604401611b6a565b6001600160a01b038085166000908152601460209081526040808320938716835292905290812054613e56908490615bf3565b90506000846001600160a01b0316866001600160a01b031614613e7b57600e54613e7f565b600d545b90508115801590613e8f57508082105b15613ec757604051639e612d5760e01b81526001600160a01b0380881660048301528616602482015260448101859052606401611b6a565b856001600160a01b0316856001600160a01b031614613f5c57601e546040516253517560e01b81526001600160a01b03888116600483015260009216906253517590602401602060405180830381865afa158015613f29573d6000803e3d6000fd5b505050506040513d601f19601f82011682018060405250810190613f4d9190615c99565b9050613f5a878288614f1d565b505b6001600160a01b038681166000818152601460209081526040808320948a16808452948252808320879055928252600c8152828220938252928352818120601654825290925290205484811015613fb4576000613fbe565b613fbe8582615bf3565b6001600160a01b038089166000818152600c60209081526040808320948c1683529381528382206016548352815283822094909455908152601c9092528120805487929061400d908490615bf3565b9250508190555084601d60008282546140269190615bf3565b9091555050600083900361403e5761403e8787614a15565b61404787614658565b50505050505050565b6001600160a01b0383166140775760405163d92e233d60e01b815260040160405180910390fd5b601e546040516253517560e01b81526001600160a01b03858116600483015260009216906253517590602401602060405180830381865afa1580156140c0573d6000803e3d6000fd5b505050506040513d601f19601f820116820180604052508101906140e49190615c99565b90506001600160a01b03811661411857604051632670461960e11b81526001600160a01b0385166004820152602401611b6a565b8160000361414c5760405163e59f5c3960e01b81526001600160a01b03808616600483015284166024820152604401611b6a565b6001600160a01b038416600090815260208052604090205460ff16156141905760405163078137eb60e41b81526001600160a01b0385166004820152602401611b6a565b6001600160a01b0380851660008181526014602090815260408083209488168084529490915281205492909114916141c9908590615a7b565b9050600082156141dc5750600d5461422b565b50600e546001600160a01b0387166000908152601460209081526040808320909152812054900361422b5760405163cbbeb0bd60e01b81526001600160a01b0388166004820152602401611b6a565b8082101561425f5760405163e59f5c3960e01b81526001600160a01b03808916600483015287166024820152604401611b6a565b600f546001600160a01b0388166000908152601c6020526040902054614286908790615a7b565b11156142b857604051632c2b174160e21b81526001600160a01b03808916600483015287166024820152604401611b6a565b6001600160a01b038088166000908152600c60209081526040808320938a1683529281528282206016548352905290812080548792906142f9908490615a7b565b90915550506001600160a01b0387166000908152601c602052604081208054879290614326908490615a7b565b9250508190555084601d600082825461433f9190615a7b565b9091555050821561435a57614355876001613c80565b61436f565b6143648787614826565b61436f878588614f1d565b6001600160a01b038088166000908152601460209081526040808320938a1683529290522082905561404787614658565b6001600160a01b0381166000908152601c60205260408120541580156118555750506001600160a01b03166000908152601160205260409020541590565b6000611827836001600160a01b038416615039565b6001600160a01b0382166000908152600a6020526040902061441590826143de565b506001600160a01b038083166000908152601060209081526040808320938516835292905220541561444b576118e2828261512c565b6118e2828261514e565b8047101561447657604051631e9acf1760e31b815260040160405180910390fd5b6000826001600160a01b03168260405160006040518083038185875af1925050503d80600081146144c3576040519150601f19603f3d011682016040523d82523d6000602084013e6144c8565b606091505b505090508061352d57604051630e21dcbb60e11b81526001600160a01b038416600482015260248101839052604401611b6a565b6000841580614509575083155b1561451657506000614542565b6000861561453757848685028161452f5761452f615c61565b04905061453f565b506064828402045b90505b95945050505050565b60008360000361455d57506000611827565b6001600160a01b038084166000908152602460209081526040808320938616835292905220548490036145be57506001600160a01b038083166000908152602360209081526040808320938516835292815282822086835290522054611827565b506001600160a01b03808316600090815260146020908152604080832093851683529290522054611827565b60008415806145f7575083155b80614600575085155b1561460d5750600061464e565b6000871561462e57868685028161462657614626615c61565b04905061464b565b8460640283606403878602028161464757614647615c61565b0490505b90505b9695505050505050565b601e546040516253517560e01b81526001600160a01b03838116600483015260009216906253517590602401602060405180830381865afa1580156146a1573d6000803e3d6000fd5b505050506040513d601f19601f820116820180604052508101906146c59190615c99565b602554604051633941e77760e21b81526001600160a01b0380841660048301529293506000929091169063e5079ddc90602401602060405180830381865afa158015614715573d6000803e3d6000fd5b505050506040513d601f19601f820116820180604052508101906147399190615dac565b905061352d8382614921565b7ff0c57e16840df040f15088dc2f81fe391c3923bec73e23a9662efc9c229c6a005468010000000000000000900460ff166127ac57604051631afcd79f60e31b815260040160405180910390fd5b7f9016d09d72d40fdae2fd8ceac6b6234c7706214fd39c1cd1e609a0528c19930080546001600160a01b031981166001600160a01b03848116918217845560405192169182907f8be0079c531659141344cd1fd0a4f28419497f9722a3daafe3b4186f6b6457e090600090a3505050565b6001600160a01b03811660009081526001830160205260408120541515611827565b6001600160a01b0382166000908152600a602052604090206148489082614b86565b506118e2828261514e565b60408051600481526024810182526020810180517bffffffffffffffffffffffffffffffffffffffffffffffffffffffff166001600160e01b031985161790529051600091908290819030906148aa908590615dc5565b600060405180830381855afa9150503d80600081146148e5576040519150601f19603f3d011682016040523d82523d6000602084013e6148ea565b606091505b50915091508161490d57604051635fbab09b60e11b815260040160405180910390fd5b808060200190518101906145429190615dac565b60008061492d84615170565b915091508161493c5750505050565b60006008828154811061495157614951615a65565b60009182526020808320909101546001600160a01b0388168352601c9091526040822054909250614983908690615a4e565b9050806008848154811061499957614999615a65565b906000526020600020018190555080826009546149b69190615bf3565b6149c09190615a7b565b600955505050505050565b7f9b779b17422d0df92223018b32b4d1fa46e071723d6817e2486d003becc55f00805460011901614a0f57604051633ee5aeb560e01b815260040160405180910390fd5b60029055565b816001600160a01b0316816001600160a01b031603614b2257601e546040516253517560e01b81526001600160a01b03848116600483015260009216906253517590602401602060405180830381865afa158015614a77573d6000803e3d6000fd5b505050506040513d601f19601f82011682018060405250810190614a9b9190615c99565b601e5460405163facd743b60e01b81526001600160a01b03808416600483015292935091169063facd743b90602401602060405180830381865afa158015614ae7573d6000803e3d6000fd5b505050506040513d601f19601f82011682018060405250810190614b0b9190615c3f565b15614b195761352d83613cdf565b61352d83613d01565b614b2c82826143f3565b614b35826143a0565b156118e25761352d6003836143de565b60017f9b779b17422d0df92223018b32b4d1fa46e071723d6817e2486d003becc55f0055565b6118e2600382614b86565b613a07614745565b614b45614745565b6000611827836001600160a01b0384166151e2565b6000611855825490565b6001600160a01b0381166000908152601360205260409020546007548082101580614c005750826001600160a01b031660078381548110614be857614be8615a65565b6000918252602090912001546001600160a01b031614155b15614c91576001600160a01b03831660008181526013602052604081208390556007805460018181019092557fa66cc928b5edb82af9bd49922954155ab7b0942694bea4ce44661d9a8736c6880180546001600160a01b03191690931790925560088054928301815581527ff3f7a9fe364faab93b216da50a3214154f22a0a2b415b23a84c8169e8b636ee3909101555b61352d83614f12565b60085460075414614ca85750565b6001600160a01b03811660009081526013602052604090205460075481108015614d015750816001600160a01b031660078281548110614cea57614cea615a65565b6000918252602090912001546001600160a01b0316145b156118e25760088181548110614d1957614d19615a65565b906000526020600020015460095410614d665760088181548110614d3f57614d3f615a65565b906000526020600020015460096000828254614d5b9190615bf3565b90915550614d6c9050565b60006009555b600754600090614d7e90600190615bf3565b9050600060078281548110614d9557614d95615a65565b600091825260209091200154600780546001600160a01b039092169250829185908110614dc457614dc4615a65565b9060005260206000200160006101000a8154816001600160a01b0302191690836001600160a01b0316021790555060088281548110614e0557614e05615a65565b906000526020600020015460088481548110614e2357614e23615a65565b60009182526020808320909101929092556001600160a01b038084168252601390925260408082208690559186168152908120556007805480614e6857614e68615de1565b600082815260209020810160001990810180546001600160a01b03191690550190556008805480614e9b57614e9b615de1565b6001900381819060005260206000200160009055905550505050565b6060816000018054806020026020016040519081016040528092919081815260200182805480156124b657602002820191906000526020600020905b815481526020019060010190808311614ef35750505050509050919050565b6118e26005826143de565b601e5460405163a0d16cad60e01b81526001600160a01b0384811660048301529091169063a0d16cad90602401602060405180830381865afa158015614f67573d6000803e3d6000fd5b505050506040513d601f19601f82011682018060405250810190614f8b9190615c3f565b1580614f975750601654155b15614fa157505050565b6001600160a01b03808416600090815260246020908152604080832093851683529290522054601654811015615033576001600160a01b0380851660008181526014602090815260408083209487168084529482528083205484845260238352818420868552835281842060168054865290845282852091909155549383526024825280832094835293905291909120555b50505050565b6000818152600183016020526040812054801561512257600061505d600183615bf3565b855490915060009061507190600190615bf3565b90508082146150d657600086600001828154811061509157615091615a65565b90600052602060002001549050808760000184815481106150b4576150b4615a65565b6000918252602080832090910192909255918252600188019052604090208390555b85548690806150e7576150e7615de1565b600190038181906000526020600020016000905590558560010160008681526020019081526020016000206000905560019350505050611855565b6000915050611855565b6001600160a01b0382166000908152600b6020526040902061352d9082614b86565b6001600160a01b0382166000908152600b6020526040902061352d90826143de565b6001600160a01b038116600090815260136020526040812054600754811080156151c95750826001600160a01b0316600782815481106151b2576151b2615a65565b6000918252602090912001546001600160a01b0316145b156151d75760019150915091565b506000928392509050565b600081815260018301602052604081205461522957508154600181810184556000848152602080822090930184905584548482528286019093526040902091909155611855565b506000611855565b82805482825590600052602060002090810192821561526c579160200282015b8281111561526c578251825591602001919060010190615251565b50615278929150615296565b5090565b50805460008255906000526020600020908101906120a891905b5b808211156152785760008155600101615297565b6001600160a01b03811681146120a857600080fd5b6000806000606084860312156152d557600080fd5b83356152e0816152ab565b925060208401356152f0816152ab565b929592945050506040919091013590565b60008083601f84011261531357600080fd5b50813567ffffffffffffffff81111561532b57600080fd5b6020830191508360208260051b850101111561534657600080fd5b9250929050565b6000806000806000806080878903121561536657600080fd5b8635615371816152ab565b9550602087013567ffffffffffffffff8082111561538e57600080fd5b90880190610120828b0312156153a357600080fd5b909550604088013590808211156153b957600080fd5b6153c58a838b01615301565b909650945060608901359150808211156153de57600080fd5b506153eb89828a01615301565b979a9699509497509295939492505050565b6000806040838503121561541057600080fd5b823561541b816152ab565b9150602083013561542b816152ab565b809150509250929050565b6000806040838503121561544957600080fd5b82359150602083013561542b816152ab565b60006020828403121561546d57600080fd5b8135611827816152ab565b60006020828403121561548a57600080fd5b5035919050565b634e487b7160e01b600052604160045260246000fd5b604051601f8201601f1916810167ffffffffffffffff811182821017156154d0576154d0615491565b604052919050565b600082601f8301126154e957600080fd5b813567ffffffffffffffff81111561550357615503615491565b615516601f8201601f19166020016154a7565b81815284602083860101111561552b57600080fd5b816020850160208301376000918101602001919091529392505050565b60008060006060848603121561555d57600080fd5b833567ffffffffffffffff8082111561557557600080fd5b615581878388016154d8565b945060209150818601358181111561559857600080fd5b6155a4888289016154d8565b9450506040860135818111156155b957600080fd5b8601601f810188136155ca57600080fd5b8035828111156155dc576155dc615491565b8060051b92506155ed8484016154a7565b818152928201840192848101908a85111561560757600080fd5b928501925b848410156156255783358252928501929085019061560c565b8096505050505050509250925092565b6000806040838503121561564857600080fd5b8235615653816152ab565b946020939093013593505050565b60005b8381101561567c578181015183820152602001615664565b50506000910152565b6000815180845261569d816020860160208601615661565b601f01601f19169290920160200192915050565b6020815260006118276020830184615685565b60008083601f8401126156d657600080fd5b50813567ffffffffffffffff8111156156ee57600080fd5b60208301915083602082850101111561534657600080fd5b80356fffffffffffffffffffffffffffffffff198116811461572757600080fd5b919050565b6000806000806060858703121561574257600080fd5b843561574d816152ab565b9350602085013567ffffffffffffffff81111561576957600080fd5b615775878288016156c4565b9094509250615788905060408601615706565b905092959194509250565b6020808252825182820181905260009190848201906040850190845b818110156157d45783516001600160a01b0316835292840192918401916001016157af565b50909695505050505050565b80356001600160f01b03198116811461572757600080fd5b60008060006060848603121561580d57600080fd5b8335615818816152ab565b925061582660208501615706565b9150615834604085016157e0565b90509250925092565b6000806000806060858703121561585357600080fd5b843567ffffffffffffffff81111561586a57600080fd5b615876878288016156c4565b9095509350615889905060208601615706565b9150615788604086016157e0565b80356001600160e01b03198116811461572757600080fd5b6000602082840312156158c157600080fd5b61182782615897565b60008151808452602080850194506020840160005b838110156158fb578151875295820195908201906001016158df565b509495945050505050565b60408152600061591960408301856158ca565b90508260208301529392505050565b60608152600061593b6060830186615685565b6fffffffffffffffffffffffffffffffff19949094166020830152506001600160f01b031991909116604090910152919050565b60006020828403121561598157600080fd5b813567ffffffffffffffff81111561599857600080fd5b612ad7848285016154d8565b602080825282516001600160e01b03191682820152820151604080830152600090612ad760608401826158ca565b600080604083850312156159e557600080fd5b61565383615897565b6000808335601e19843603018112615a0557600080fd5b83018035915067ffffffffffffffff821115615a2057600080fd5b6020019150600581901b360382131561534657600080fd5b634e487b7160e01b600052601160045260246000fd5b808202811582820484141761185557611855615a38565b634e487b7160e01b600052603260045260246000fd5b8082018082111561185557611855615a38565b600181811c90821680615aa257607f821691505b602082108103615ac257634e487b7160e01b600052602260045260246000fd5b50919050565b601f82111561352d576000816000526020600020601f850160051c81016020861015615af15750805b601f850160051c820191505b81811015615b1057828155600101615afd565b505050505050565b815167ffffffffffffffff811115615b3257615b32615491565b615b4681615b408454615a8e565b84615ac8565b602080601f831160018114615b7b5760008415615b635750858301515b600019600386901b1c1916600185901b178555615b10565b600085815260208120601f198616915b82811015615baa57888601518255948401946001909101908401615b8b565b5085821015615bc85787850151600019600388901b60f8161c191681555b5050505050600190811b01905550565b600060208284031215615bea57600080fd5b61182782615706565b8181038181111561185557611855615a38565b606081526000615c196060830186615685565b8281036020840152615c2b8186615685565b9050828103604084015261464e81856158ca565b600060208284031215615c5157600080fd5b8151801515811461182757600080fd5b634e487b7160e01b600052601260045260246000fd5b600082615c9457634e487b7160e01b600052601260045260246000fd5b500490565b600060208284031215615cab57600080fd5b8151611827816152ab565b67ffffffffffffffff831115615cce57615cce615491565b615ce283615cdc8354615a8e565b83615ac8565b6000601f841160018114615d165760008515615cfe5750838201355b600019600387901b1c1916600186901b178355615d70565b600083815260209020601f19861690835b82811015615d475786850135825560209485019460019092019101615d27565b5086821015615d645760001960f88860031b161c19848701351681555b505060018560011b0183555b5050505050565b6000600160ff1b8201615d8c57615d8c615a38565b5060000390565b600060018201615da557615da5615a38565b5060010190565b600060208284031215615dbe57600080fd5b5051919050565b60008251615dd7818460208701615661565b9190910192915050565b634e487b7160e01b600052603160045260246000fdfea264697066735822122050f99d5bf57ef5210266da176f0327be97f7d0551ce63bdd852bf45d8e286b1364736f6c63430008190033",
  "linkReferences": {},
  "deployedLinkReferences": {}
}