{
  "_format": "hh-sol-artifact-1",
  "contractName": "StakingHbbftMock",
  "sourceName": "contracts/mockContracts/StakingHbbftMock.sol",
  "abi": [
    {
      "inputs": [
        {
          "internalType": "address",
          "name": "pool",
          "type": "address"
        },
        {
          "internalType": "address",
          "name": "staker",
          "type": "address"
        }
      ],
      "name": "CannotClaimWithdrawOrderYet",
      "type": "error"
    },
    {
      "inputs": [],
      "name": "GetterCallFailed",
      "type": "error"
    },
    {
      "inputs": [],
      "name": "InitialStakingPoolsListEmpty",
      "type": "error"
    },
    {
      "inputs": [],
      "name": "InsufficientBalance",
      "type": "error"
    },
    {
      "inputs": [
        {
          "internalType": "address",
          "name": "pool",
          "type": "address"
        },
        {
          "internalType": "address",
          "name": "delegator",
          "type": "address"
        }
      ],
      "name": "InsufficientStakeAmount",
      "type": "error"
    },
    {
      "inputs": [],
      "name": "InvalidFixedEpochDuration",
      "type": "error"
    },
    {
      "inputs": [
        {
          "internalType": "uint256",
          "name": "candidateStake",
          "type": "uint256"
        },
        {
          "internalType": "uint256",
          "name": "delegatorStake",
          "type": "uint256"
        }
      ],
      "name": "InvalidInitialStakeAmount",
      "type": "error"
    },
    {
      "inputs": [],
      "name": "InvalidInitialization",
      "type": "error"
    },
    {
      "inputs": [],
      "name": "InvalidIpAddressesCount",
      "type": "error"
    },
    {
      "inputs": [],
      "name": "InvalidMaxStakeAmount",
      "type": "error"
    },
    {
      "inputs": [],
      "name": "InvalidMoveStakePoolsAddress",
      "type": "error"
    },
    {
      "inputs": [
        {
          "internalType": "address",
          "name": "_operator",
          "type": "address"
        },
        {
          "internalType": "uint256",
          "name": "_share",
          "type": "uint256"
        }
      ],
      "name": "InvalidNodeOperatorConfiguration",
      "type": "error"
    },
    {
      "inputs": [
        {
          "internalType": "uint256",
          "name": "_share",
          "type": "uint256"
        }
      ],
      "name": "InvalidNodeOperatorShare",
      "type": "error"
    },
    {
      "inputs": [
        {
          "internalType": "address",
          "name": "pool",
          "type": "address"
        },
        {
          "internalType": "address",
          "name": "delegator",
          "type": "address"
        },
        {
          "internalType": "int256",
          "name": "amount",
          "type": "int256"
        }
      ],
      "name": "InvalidOrderWithdrawAmount",
      "type": "error"
    },
    {
      "inputs": [],
      "name": "InvalidPublicKeysCount",
      "type": "error"
    },
    {
      "inputs": [],
      "name": "InvalidStakingFixedEpochDuration",
      "type": "error"
    },
    {
      "inputs": [],
      "name": "InvalidStakingTransitionTimeframe",
      "type": "error"
    },
    {
      "inputs": [],
      "name": "InvalidTransitionTimeFrame",
      "type": "error"
    },
    {
      "inputs": [
        {
          "internalType": "address",
          "name": "pool",
          "type": "address"
        },
        {
          "internalType": "address",
          "name": "delegator",
          "type": "address"
        },
        {
          "internalType": "uint256",
          "name": "amount",
          "type": "uint256"
        }
      ],
      "name": "InvalidWithdrawAmount",
      "type": "error"
    },
    {
      "inputs": [
        {
          "internalType": "uint256",
          "name": "allowed",
          "type": "uint256"
        },
        {
          "internalType": "uint256",
          "name": "desired",
          "type": "uint256"
        }
      ],
      "name": "MaxAllowedWithdrawExceeded",
      "type": "error"
    },
    {
      "inputs": [],
      "name": "MaxPoolsCountExceeded",
      "type": "error"
    },
    {
      "inputs": [
        {
          "internalType": "uint256",
          "name": "_newVal",
          "type": "uint256"
        }
      ],
      "name": "NewValueOutOfRange",
      "type": "error"
    },
    {
      "inputs": [],
      "name": "NoStakesToRecover",
      "type": "error"
    },
    {
      "inputs": [],
      "name": "NotInitializing",
      "type": "error"
    },
    {
      "inputs": [],
      "name": "NotPayable",
      "type": "error"
    },
    {
      "inputs": [
        {
          "internalType": "uint256",
          "name": "_epoch",
          "type": "uint256"
        }
      ],
      "name": "OnlyOncePerEpoch",
      "type": "error"
    },
    {
      "inputs": [
        {
          "internalType": "address",
          "name": "owner",
          "type": "address"
        }
      ],
      "name": "OwnableInvalidOwner",
      "type": "error"
    },
    {
      "inputs": [
        {
          "internalType": "address",
          "name": "account",
          "type": "address"
        }
      ],
      "name": "OwnableUnauthorizedAccount",
      "type": "error"
    },
    {
      "inputs": [
        {
          "internalType": "address",
          "name": "pool",
          "type": "address"
        }
      ],
      "name": "PoolAbandoned",
      "type": "error"
    },
    {
      "inputs": [
        {
          "internalType": "address",
          "name": "pool",
          "type": "address"
        }
      ],
      "name": "PoolCannotBeRemoved",
      "type": "error"
    },
    {
      "inputs": [
        {
          "internalType": "address",
          "name": "pool",
          "type": "address"
        }
      ],
      "name": "PoolEmpty",
      "type": "error"
    },
    {
      "inputs": [
        {
          "internalType": "address",
          "name": "pool",
          "type": "address"
        }
      ],
      "name": "PoolNotExist",
      "type": "error"
    },
    {
      "inputs": [
        {
          "internalType": "address",
          "name": "pool",
          "type": "address"
        },
        {
          "internalType": "address",
          "name": "delegator",
          "type": "address"
        }
      ],
      "name": "PoolStakeLimitExceeded",
      "type": "error"
    },
    {
      "inputs": [],
      "name": "ReentrancyGuardReentrantCall",
      "type": "error"
    },
    {
      "inputs": [
        {
          "internalType": "address",
          "name": "recipient",
          "type": "address"
        },
        {
          "internalType": "uint256",
          "name": "amount",
          "type": "uint256"
        }
      ],
      "name": "TransferFailed",
      "type": "error"
    },
    {
      "inputs": [],
      "name": "Unauthorized",
      "type": "error"
    },
    {
      "inputs": [],
      "name": "WithdrawNotAllowed",
      "type": "error"
    },
    {
      "inputs": [],
      "name": "ZeroAddress",
      "type": "error"
    },
    {
      "inputs": [],
      "name": "ZeroGasPrice",
      "type": "error"
    },
    {
      "inputs": [],
      "name": "ZeroWidthrawAmount",
      "type": "error"
    },
    {
      "inputs": [],
      "name": "ZeroWidthrawDisallowPeriod",
      "type": "error"
    },
    {
      "anonymous": false,
      "inputs": [
        {
          "indexed": true,
          "internalType": "address",
          "name": "fromPoolStakingAddress",
          "type": "address"
        },
        {
          "indexed": true,
          "internalType": "address",
          "name": "staker",
          "type": "address"
        },
        {
          "indexed": true,
          "internalType": "uint256",
          "name": "stakingEpoch",
          "type": "uint256"
        },
        {
          "indexed": false,
          "internalType": "uint256",
          "name": "amount",
          "type": "uint256"
        }
      ],
      "name": "ClaimedOrderedWithdrawal",
      "type": "event"
    },
    {
      "anonymous": false,
      "inputs": [
        {
          "indexed": true,
          "internalType": "address",
          "name": "caller",
          "type": "address"
        },
        {
          "indexed": true,
          "internalType": "address",
          "name": "stakingAddress",
          "type": "address"
        },
        {
          "indexed": false,
          "internalType": "uint256",
          "name": "gatheredFunds",
          "type": "uint256"
        }
      ],
      "name": "GatherAbandonedStakes",
      "type": "event"
    },
    {
      "anonymous": false,
      "inputs": [
        {
          "indexed": false,
          "internalType": "uint64",
          "name": "version",
          "type": "uint64"
        }
      ],
      "name": "Initialized",
      "type": "event"
    },
    {
      "anonymous": false,
      "inputs": [
        {
          "indexed": false,
          "internalType": "address",
          "name": "fromPoolStakingAddress",
          "type": "address"
        },
        {
          "indexed": true,
          "internalType": "address",
          "name": "toPoolStakingAddress",
          "type": "address"
        },
        {
          "indexed": true,
          "internalType": "address",
          "name": "staker",
          "type": "address"
        },
        {
          "indexed": true,
          "internalType": "uint256",
          "name": "stakingEpoch",
          "type": "uint256"
        },
        {
          "indexed": false,
          "internalType": "uint256",
          "name": "amount",
          "type": "uint256"
        }
      ],
      "name": "MovedStake",
      "type": "event"
    },
    {
      "anonymous": false,
      "inputs": [
        {
          "indexed": true,
          "internalType": "address",
          "name": "fromPoolStakingAddress",
          "type": "address"
        },
        {
          "indexed": true,
          "internalType": "address",
          "name": "staker",
          "type": "address"
        },
        {
          "indexed": true,
          "internalType": "uint256",
          "name": "stakingEpoch",
          "type": "uint256"
        },
        {
          "indexed": false,
          "internalType": "int256",
          "name": "amount",
          "type": "int256"
        }
      ],
      "name": "OrderedWithdrawal",
      "type": "event"
    },
    {
      "anonymous": false,
      "inputs": [
        {
          "indexed": true,
          "internalType": "address",
          "name": "previousOwner",
          "type": "address"
        },
        {
          "indexed": true,
          "internalType": "address",
          "name": "newOwner",
          "type": "address"
        }
      ],
      "name": "OwnershipTransferred",
      "type": "event"
    },
    {
      "anonymous": false,
      "inputs": [
        {
          "indexed": true,
          "internalType": "address",
          "name": "toPoolStakingAddress",
          "type": "address"
        },
        {
          "indexed": true,
          "internalType": "address",
          "name": "staker",
          "type": "address"
        },
        {
          "indexed": true,
          "internalType": "uint256",
          "name": "stakingEpoch",
          "type": "uint256"
        },
        {
          "indexed": false,
          "internalType": "uint256",
          "name": "amount",
          "type": "uint256"
        }
      ],
      "name": "PlacedStake",
      "type": "event"
    },
    {
      "anonymous": false,
      "inputs": [
        {
          "indexed": true,
          "internalType": "address",
          "name": "caller",
          "type": "address"
        },
        {
          "indexed": false,
          "internalType": "uint256",
          "name": "reinsertShare",
          "type": "uint256"
        },
        {
          "indexed": false,
          "internalType": "uint256",
          "name": "governanceShare",
          "type": "uint256"
        }
      ],
      "name": "RecoverAbandonedStakes",
      "type": "event"
    },
    {
      "anonymous": false,
      "inputs": [
        {
          "indexed": false,
          "internalType": "bytes4",
          "name": "funcSelector",
          "type": "bytes4"
        }
      ],
      "name": "RemoveChangeableParameter",
      "type": "event"
    },
    {
      "anonymous": false,
      "inputs": [
        {
          "indexed": true,
          "internalType": "address",
          "name": "poolStakingAddress",
          "type": "address"
        },
        {
          "indexed": true,
          "internalType": "uint256",
          "name": "stakingEpoch",
          "type": "uint256"
        },
        {
          "indexed": false,
          "internalType": "uint256",
          "name": "validatorReward",
          "type": "uint256"
        },
        {
          "indexed": false,
          "internalType": "uint256",
          "name": "delegatorsReward",
          "type": "uint256"
        }
      ],
      "name": "RestakeReward",
      "type": "event"
    },
    {
      "anonymous": false,
      "inputs": [
        {
          "indexed": false,
          "internalType": "address",
          "name": "_address",
          "type": "address"
        }
      ],
      "name": "SetBonusScoreContract",
      "type": "event"
    },
    {
      "anonymous": false,
      "inputs": [
        {
          "indexed": false,
          "internalType": "bytes4",
          "name": "setter",
          "type": "bytes4"
        },
        {
          "indexed": false,
          "internalType": "bytes4",
          "name": "getter",
          "type": "bytes4"
        },
        {
          "indexed": false,
          "internalType": "uint256[]",
          "name": "params",
          "type": "uint256[]"
        }
      ],
      "name": "SetChangeableParameter",
      "type": "event"
    },
    {
      "anonymous": false,
      "inputs": [
        {
          "indexed": false,
          "internalType": "uint256",
          "name": "minStake",
          "type": "uint256"
        }
      ],
      "name": "SetDelegatorMinStake",
      "type": "event"
    },
    {
      "anonymous": false,
      "inputs": [
        {
          "indexed": true,
          "internalType": "address",
          "name": "poolStakingAddress",
          "type": "address"
        },
        {
          "indexed": true,
          "internalType": "address",
          "name": "nodeOperatorAddress",
          "type": "address"
        },
        {
          "indexed": false,
          "internalType": "uint256",
          "name": "operatorShare",
          "type": "uint256"
        }
      ],
      "name": "SetNodeOperator",
      "type": "event"
    },
    {
      "anonymous": false,
      "inputs": [
        {
          "indexed": true,
          "internalType": "address",
          "name": "fromPoolStakingAddress",
          "type": "address"
        },
        {
          "indexed": true,
          "internalType": "address",
          "name": "staker",
          "type": "address"
        },
        {
          "indexed": true,
          "internalType": "uint256",
          "name": "stakingEpoch",
          "type": "uint256"
        },
        {
          "indexed": false,
          "internalType": "uint256",
          "name": "amount",
          "type": "uint256"
        }
      ],
      "name": "WithdrewStake",
      "type": "event"
    },
    {
      "inputs": [],
      "name": "MAX_CANDIDATES",
      "outputs": [
        {
          "internalType": "uint256",
          "name": "",
          "type": "uint256"
        }
      ],
      "stateMutability": "view",
      "type": "function"
    },
    {
      "inputs": [],
      "name": "MAX_NODE_OPERATOR_SHARE_PERCENT",
      "outputs": [
        {
          "internalType": "uint256",
          "name": "",
          "type": "uint256"
        }
      ],
      "stateMutability": "view",
      "type": "function"
    },
    {
      "inputs": [],
      "name": "PERCENT_DENOMINATOR",
      "outputs": [
        {
          "internalType": "uint256",
          "name": "",
          "type": "uint256"
        }
      ],
      "stateMutability": "view",
      "type": "function"
    },
    {
      "inputs": [
        {
          "internalType": "address",
          "name": "",
          "type": "address"
        }
      ],
      "name": "abandonedAndRemoved",
      "outputs": [
        {
          "internalType": "bool",
          "name": "",
          "type": "bool"
        }
      ],
      "stateMutability": "view",
      "type": "function"
    },
    {
      "inputs": [],
      "name": "addBalance",
      "outputs": [],
      "stateMutability": "payable",
      "type": "function"
    },
    {
      "inputs": [
        {
          "internalType": "address",
          "name": "_miningAddress",
          "type": "address"
        },
        {
          "internalType": "address",
          "name": "_nodeOperatorAddress",
          "type": "address"
        },
        {
          "internalType": "uint256",
          "name": "_operatorShare",
          "type": "uint256"
        },
        {
          "internalType": "bytes",
          "name": "_publicKey",
          "type": "bytes"
        },
        {
          "internalType": "bytes16",
          "name": "_ip",
          "type": "bytes16"
        }
      ],
      "name": "addPool",
      "outputs": [],
      "stateMutability": "payable",
      "type": "function"
    },
    {
      "inputs": [
        {
          "internalType": "address",
          "name": "_stakingAddress",
          "type": "address"
        }
      ],
      "name": "addPoolActiveMock",
      "outputs": [],
      "stateMutability": "nonpayable",
      "type": "function"
    },
    {
      "inputs": [
        {
          "internalType": "address",
          "name": "_stakingAddress",
          "type": "address"
        }
      ],
      "name": "addPoolInactiveMock",
      "outputs": [],
      "stateMutability": "nonpayable",
      "type": "function"
    },
    {
      "inputs": [],
      "name": "areStakeAndWithdrawAllowed",
      "outputs": [
        {
          "internalType": "bool",
          "name": "",
          "type": "bool"
        }
      ],
      "stateMutability": "pure",
      "type": "function"
    },
    {
      "inputs": [],
      "name": "bonusScoreContract",
      "outputs": [
        {
          "internalType": "contract IBonusScoreSystem",
          "name": "",
          "type": "address"
        }
      ],
      "stateMutability": "view",
      "type": "function"
    },
    {
      "inputs": [],
      "name": "candidateMinStake",
      "outputs": [
        {
          "internalType": "uint256",
          "name": "",
          "type": "uint256"
        }
      ],
      "stateMutability": "view",
      "type": "function"
    },
    {
      "inputs": [
        {
          "internalType": "address",
          "name": "_poolStakingAddress",
          "type": "address"
        }
      ],
      "name": "claimOrderedWithdraw",
      "outputs": [],
      "stateMutability": "nonpayable",
      "type": "function"
    },
    {
      "inputs": [
        {
          "internalType": "address",
          "name": "pool",
          "type": "address"
        },
        {
          "internalType": "address",
          "name": "delegator",
          "type": "address"
        },
        {
          "internalType": "uint256",
          "name": "epoch",
          "type": "uint256"
        }
      ],
      "name": "clearDelegatorStakeSnapshot",
      "outputs": [],
      "stateMutability": "nonpayable",
      "type": "function"
    },
    {
      "inputs": [],
      "name": "currentKeyGenExtraTimeWindow",
      "outputs": [
        {
          "internalType": "uint256",
          "name": "",
          "type": "uint256"
        }
      ],
      "stateMutability": "view",
      "type": "function"
    },
    {
      "inputs": [],
      "name": "delegatorMinStake",
      "outputs": [
        {
          "internalType": "uint256",
          "name": "",
          "type": "uint256"
        }
      ],
      "stateMutability": "view",
      "type": "function"
    },
    {
      "inputs": [
        {
          "internalType": "string",
          "name": "_selector",
          "type": "string"
        }
      ],
      "name": "getAllowedParamsRange",
      "outputs": [
        {
          "components": [
            {
              "internalType": "bytes4",
              "name": "getter",
              "type": "bytes4"
            },
            {
              "internalType": "uint256[]",
              "name": "range",
              "type": "uint256[]"
            }
          ],
          "internalType": "struct ValueGuards.ParameterRange",
          "name": "",
          "type": "tuple"
        }
      ],
      "stateMutability": "view",
      "type": "function"
    },
    {
      "inputs": [
        {
          "internalType": "bytes4",
          "name": "_selector",
          "type": "bytes4"
        }
      ],
      "name": "getAllowedParamsRangeWithSelector",
      "outputs": [
        {
          "components": [
            {
              "internalType": "bytes4",
              "name": "getter",
              "type": "bytes4"
            },
            {
              "internalType": "uint256[]",
              "name": "range",
              "type": "uint256[]"
            }
          ],
          "internalType": "struct ValueGuards.ParameterRange",
          "name": "",
          "type": "tuple"
        }
      ],
      "stateMutability": "view",
      "type": "function"
    },
    {
      "inputs": [
        {
          "internalType": "address",
          "name": "pool",
          "type": "address"
        },
        {
          "internalType": "address",
          "name": "delegator",
          "type": "address"
        },
        {
          "internalType": "uint256",
          "name": "epoch",
          "type": "uint256"
        }
      ],
      "name": "getDelegatorStakeSnapshot",
      "outputs": [
        {
          "internalType": "uint256",
          "name": "",
          "type": "uint256"
        }
      ],
      "stateMutability": "view",
      "type": "function"
    },
    {
      "inputs": [],
      "name": "getMaxCandidates",
      "outputs": [
        {
          "internalType": "uint256",
          "name": "",
          "type": "uint256"
        }
      ],
      "stateMutability": "pure",
      "type": "function"
    },
    {
      "inputs": [
        {
          "internalType": "address",
          "name": "_poolAddress",
          "type": "address"
        }
      ],
      "name": "getPoolInternetAddress",
      "outputs": [
        {
          "internalType": "bytes16",
          "name": "",
          "type": "bytes16"
        },
        {
          "internalType": "bytes2",
          "name": "",
          "type": "bytes2"
        }
      ],
      "stateMutability": "view",
      "type": "function"
    },
    {
      "inputs": [
        {
          "internalType": "address",
          "name": "_poolAddress",
          "type": "address"
        }
      ],
      "name": "getPoolPublicKey",
      "outputs": [
        {
          "internalType": "bytes",
          "name": "",
          "type": "bytes"
        }
      ],
      "stateMutability": "view",
      "type": "function"
    },
    {
      "inputs": [
        {
          "internalType": "uint256",
          "name": "_epoch",
          "type": "uint256"
        },
        {
          "internalType": "address",
          "name": "_stakingPool",
          "type": "address"
        }
      ],
      "name": "getPoolValidatorStakeAmount",
      "outputs": [
        {
          "internalType": "uint256",
          "name": "",
          "type": "uint256"
        }
      ],
      "stateMutability": "view",
      "type": "function"
    },
    {
      "inputs": [],
      "name": "getPools",
      "outputs": [
        {
          "internalType": "address[]",
          "name": "",
          "type": "address[]"
        }
      ],
      "stateMutability": "view",
      "type": "function"
    },
    {
      "inputs": [],
      "name": "getPoolsInactive",
      "outputs": [
        {
          "internalType": "address[]",
          "name": "",
          "type": "address[]"
        }
      ],
      "stateMutability": "view",
      "type": "function"
    },
    {
      "inputs": [],
      "name": "getPoolsLikelihood",
      "outputs": [
        {
          "internalType": "uint256[]",
          "name": "likelihoods",
          "type": "uint256[]"
        },
        {
          "internalType": "uint256",
          "name": "sum",
          "type": "uint256"
        }
      ],
      "stateMutability": "view",
      "type": "function"
    },
    {
      "inputs": [],
      "name": "getPoolsToBeElected",
      "outputs": [
        {
          "internalType": "address[]",
          "name": "",
          "type": "address[]"
        }
      ],
      "stateMutability": "view",
      "type": "function"
    },
    {
      "inputs": [],
      "name": "getPoolsToBeRemoved",
      "outputs": [
        {
          "internalType": "address[]",
          "name": "",
          "type": "address[]"
        }
      ],
      "stateMutability": "view",
      "type": "function"
    },
    {
      "inputs": [
        {
          "internalType": "address",
          "name": "pool",
          "type": "address"
        },
        {
          "internalType": "address",
          "name": "delegator",
          "type": "address"
        }
      ],
      "name": "getStakeSnapshotLastEpoch",
      "outputs": [
        {
          "internalType": "uint256",
          "name": "",
          "type": "uint256"
        }
      ],
      "stateMutability": "view",
      "type": "function"
    },
    {
      "inputs": [],
      "name": "incrementStakingEpoch",
      "outputs": [],
      "stateMutability": "nonpayable",
      "type": "function"
    },
    {
      "inputs": [
        {
          "internalType": "address",
          "name": "_contractOwner",
          "type": "address"
        },
        {
          "components": [
            {
              "internalType": "address",
              "name": "_validatorSetContract",
              "type": "address"
            },
            {
              "internalType": "address",
              "name": "_bonusScoreContract",
              "type": "address"
            },
            {
              "internalType": "address[]",
              "name": "_initialStakingAddresses",
              "type": "address[]"
            },
            {
              "internalType": "uint256",
              "name": "_delegatorMinStake",
              "type": "uint256"
            },
            {
              "internalType": "uint256",
              "name": "_candidateMinStake",
              "type": "uint256"
            },
            {
              "internalType": "uint256",
              "name": "_maxStake",
              "type": "uint256"
            },
            {
              "internalType": "uint256",
              "name": "_stakingFixedEpochDuration",
              "type": "uint256"
            },
            {
              "internalType": "uint256",
              "name": "_stakingTransitionTimeframeLength",
              "type": "uint256"
            },
            {
              "internalType": "uint256",
              "name": "_stakingWithdrawDisallowPeriod",
              "type": "uint256"
            }
          ],
          "internalType": "struct IStakingHbbft.StakingParams",
          "name": "stakingParams",
          "type": "tuple"
        },
        {
          "internalType": "bytes32[]",
          "name": "_publicKeys",
          "type": "bytes32[]"
        },
        {
          "internalType": "bytes16[]",
          "name": "_internetAddresses",
          "type": "bytes16[]"
        }
      ],
      "name": "initialize",
      "outputs": [],
      "stateMutability": "nonpayable",
      "type": "function"
    },
    {
      "inputs": [
        {
          "internalType": "address",
          "name": "_stakingAddress",
          "type": "address"
        }
      ],
      "name": "isPoolActive",
      "outputs": [
        {
          "internalType": "bool",
          "name": "",
          "type": "bool"
        }
      ],
      "stateMutability": "view",
      "type": "function"
    },
    {
      "inputs": [
        {
          "internalType": "address",
          "name": "_stakingAddress",
          "type": "address"
        }
      ],
      "name": "isPoolValid",
      "outputs": [
        {
          "internalType": "bool",
          "name": "",
          "type": "bool"
        }
      ],
      "stateMutability": "view",
      "type": "function"
    },
    {
      "inputs": [
        {
          "internalType": "bytes4",
          "name": "funcSelector",
          "type": "bytes4"
        },
        {
          "internalType": "uint256",
          "name": "newVal",
          "type": "uint256"
        }
      ],
      "name": "isWithinAllowedRange",
      "outputs": [
        {
          "internalType": "bool",
          "name": "",
          "type": "bool"
        }
      ],
      "stateMutability": "view",
      "type": "function"
    },
    {
      "inputs": [],
      "name": "maxStakeAmount",
      "outputs": [
        {
          "internalType": "uint256",
          "name": "",
          "type": "uint256"
        }
      ],
      "stateMutability": "view",
      "type": "function"
    },
    {
      "inputs": [
        {
          "internalType": "address",
          "name": "_poolStakingAddress",
          "type": "address"
        },
        {
          "internalType": "address",
          "name": "_staker",
          "type": "address"
        }
      ],
      "name": "maxWithdrawAllowed",
      "outputs": [
        {
          "internalType": "uint256",
          "name": "",
          "type": "uint256"
        }
      ],
      "stateMutability": "view",
      "type": "function"
    },
    {
      "inputs": [
        {
          "internalType": "address",
          "name": "_poolStakingAddress",
          "type": "address"
        },
        {
          "internalType": "address",
          "name": "_staker",
          "type": "address"
        }
      ],
      "name": "maxWithdrawOrderAllowed",
      "outputs": [
        {
          "internalType": "uint256",
          "name": "",
          "type": "uint256"
        }
      ],
      "stateMutability": "view",
      "type": "function"
    },
    {
      "inputs": [
        {
          "internalType": "address",
          "name": "_fromPoolStakingAddress",
          "type": "address"
        },
        {
          "internalType": "address",
          "name": "_toPoolStakingAddress",
          "type": "address"
        },
        {
          "internalType": "uint256",
          "name": "_amount",
          "type": "uint256"
        }
      ],
      "name": "moveStake",
      "outputs": [],
      "stateMutability": "nonpayable",
      "type": "function"
    },
    {
      "inputs": [
        {
          "internalType": "address",
          "name": "_stakingAddress",
          "type": "address"
        }
      ],
      "name": "notifyAvailability",
      "outputs": [],
      "stateMutability": "nonpayable",
      "type": "function"
    },
    {
      "inputs": [],
      "name": "notifyKeyGenFailed",
      "outputs": [],
      "stateMutability": "nonpayable",
      "type": "function"
    },
    {
      "inputs": [
        {
          "internalType": "uint256",
          "name": "detectedOfflineTime",
          "type": "uint256"
        }
      ],
      "name": "notifyNetworkOfftimeDetected",
      "outputs": [],
      "stateMutability": "nonpayable",
      "type": "function"
    },
    {
      "inputs": [
        {
          "internalType": "address",
          "name": "_poolStakingAddress",
          "type": "address"
        },
        {
          "internalType": "int256",
          "name": "_amount",
          "type": "int256"
        }
      ],
      "name": "orderWithdraw",
      "outputs": [],
      "stateMutability": "nonpayable",
      "type": "function"
    },
    {
      "inputs": [
        {
          "internalType": "address",
          "name": "",
          "type": "address"
        },
        {
          "internalType": "address",
          "name": "",
          "type": "address"
        }
      ],
      "name": "orderWithdrawEpoch",
      "outputs": [
        {
          "internalType": "uint256",
          "name": "",
          "type": "uint256"
        }
      ],
      "stateMutability": "view",
      "type": "function"
    },
    {
      "inputs": [
        {
          "internalType": "address",
          "name": "",
          "type": "address"
        },
        {
          "internalType": "address",
          "name": "",
          "type": "address"
        }
      ],
      "name": "orderedWithdrawAmount",
      "outputs": [
        {
          "internalType": "uint256",
          "name": "",
          "type": "uint256"
        }
      ],
      "stateMutability": "view",
      "type": "function"
    },
    {
      "inputs": [
        {
          "internalType": "address",
          "name": "",
          "type": "address"
        }
      ],
      "name": "orderedWithdrawAmountTotal",
      "outputs": [
        {
          "internalType": "uint256",
          "name": "",
          "type": "uint256"
        }
      ],
      "stateMutability": "view",
      "type": "function"
    },
    {
      "inputs": [],
      "name": "owner",
      "outputs": [
        {
          "internalType": "address",
          "name": "",
          "type": "address"
        }
      ],
      "stateMutability": "view",
      "type": "function"
    },
    {
      "inputs": [
        {
          "internalType": "address",
          "name": "_poolStakingAddress",
          "type": "address"
        }
      ],
      "name": "poolDelegators",
      "outputs": [
        {
          "internalType": "address[]",
          "name": "",
          "type": "address[]"
        }
      ],
      "stateMutability": "view",
      "type": "function"
    },
    {
      "inputs": [
        {
          "internalType": "address",
          "name": "_poolStakingAddress",
          "type": "address"
        }
      ],
      "name": "poolDelegatorsInactive",
      "outputs": [
        {
          "internalType": "address[]",
          "name": "",
          "type": "address[]"
        }
      ],
      "stateMutability": "view",
      "type": "function"
    },
    {
      "inputs": [
        {
          "internalType": "address",
          "name": "",
          "type": "address"
        }
      ],
      "name": "poolInfo",
      "outputs": [
        {
          "internalType": "bytes",
          "name": "publicKey",
          "type": "bytes"
        },
        {
          "internalType": "bytes16",
          "name": "internetAddress",
          "type": "bytes16"
        },
        {
          "internalType": "bytes2",
          "name": "port",
          "type": "bytes2"
        }
      ],
      "stateMutability": "view",
      "type": "function"
    },
    {
      "inputs": [
        {
          "internalType": "address",
          "name": "",
          "type": "address"
        }
      ],
      "name": "poolNodeOperator",
      "outputs": [
        {
          "internalType": "address",
          "name": "",
          "type": "address"
        }
      ],
      "stateMutability": "view",
      "type": "function"
    },
    {
      "inputs": [
        {
          "internalType": "address",
          "name": "",
          "type": "address"
        }
      ],
      "name": "poolNodeOperatorLastChangeEpoch",
      "outputs": [
        {
          "internalType": "uint256",
          "name": "",
          "type": "uint256"
        }
      ],
      "stateMutability": "view",
      "type": "function"
    },
    {
      "inputs": [
        {
          "internalType": "address",
          "name": "",
          "type": "address"
        }
      ],
      "name": "poolNodeOperatorShare",
      "outputs": [
        {
          "internalType": "uint256",
          "name": "",
          "type": "uint256"
        }
      ],
      "stateMutability": "view",
      "type": "function"
    },
    {
      "inputs": [
        {
          "internalType": "address",
          "name": "",
          "type": "address"
        }
      ],
      "name": "poolToBeElectedIndex",
      "outputs": [
        {
          "internalType": "uint256",
          "name": "",
          "type": "uint256"
        }
      ],
      "stateMutability": "view",
      "type": "function"
    },
    {
      "inputs": [],
      "name": "recoverAbandonedStakes",
      "outputs": [],
      "stateMutability": "nonpayable",
      "type": "function"
    },
    {
      "inputs": [
        {
          "internalType": "bytes4",
          "name": "funcSelector",
          "type": "bytes4"
        }
      ],
      "name": "removeAllowedChangeableParameter",
      "outputs": [],
      "stateMutability": "nonpayable",
      "type": "function"
    },
    {
      "inputs": [],
      "name": "removeMyPool",
      "outputs": [],
      "stateMutability": "nonpayable",
      "type": "function"
    },
    {
      "inputs": [
        {
          "internalType": "address",
          "name": "_stakingAddress",
          "type": "address"
        }
      ],
      "name": "removePool",
      "outputs": [],
      "stateMutability": "nonpayable",
      "type": "function"
    },
    {
      "inputs": [],
      "name": "removePools",
      "outputs": [],
      "stateMutability": "nonpayable",
      "type": "function"
    },
    {
      "inputs": [],
      "name": "renounceOwnership",
      "outputs": [],
      "stateMutability": "nonpayable",
      "type": "function"
    },
    {
      "inputs": [
        {
          "internalType": "address",
          "name": "_poolStakingAddress",
          "type": "address"
        },
        {
          "internalType": "uint256",
          "name": "_validatorMinRewardPercent",
          "type": "uint256"
        }
      ],
      "name": "restake",
      "outputs": [],
      "stateMutability": "payable",
      "type": "function"
    },
    {
      "inputs": [
        {
          "internalType": "bytes4",
          "name": "setter",
          "type": "bytes4"
        },
        {
          "internalType": "bytes4",
          "name": "getter",
          "type": "bytes4"
        },
        {
          "internalType": "uint256[]",
          "name": "params",
          "type": "uint256[]"
        }
      ],
      "name": "setAllowedChangeableParameter",
      "outputs": [],
      "stateMutability": "nonpayable",
      "type": "function"
    },
    {
      "inputs": [
        {
          "internalType": "address",
          "name": "_bonusScoreContract",
          "type": "address"
        }
      ],
      "name": "setBonusScoreContract",
      "outputs": [],
      "stateMutability": "nonpayable",
      "type": "function"
    },
    {
      "inputs": [
        {
          "internalType": "uint256",
          "name": "_minStake",
          "type": "uint256"
        }
      ],
      "name": "setDelegatorMinStake",
      "outputs": [],
      "stateMutability": "nonpayable",
      "type": "function"
    },
    {
      "inputs": [
        {
          "internalType": "address",
          "name": "_operatorAddress",
          "type": "address"
        },
        {
          "internalType": "uint256",
          "name": "_operatorShare",
          "type": "uint256"
        }
      ],
      "name": "setNodeOperator",
      "outputs": [],
      "stateMutability": "nonpayable",
      "type": "function"
    },
    {
      "inputs": [
        {
          "internalType": "bytes",
          "name": "_publicKey",
          "type": "bytes"
        },
        {
          "internalType": "bytes16",
          "name": "_ip",
          "type": "bytes16"
        },
        {
          "internalType": "bytes2",
          "name": "_port",
          "type": "bytes2"
        }
      ],
      "name": "setPoolInfo",
      "outputs": [],
      "stateMutability": "nonpayable",
      "type": "function"
    },
    {
      "inputs": [
        {
          "internalType": "address",
          "name": "_poolStakingAddress",
          "type": "address"
        },
        {
          "internalType": "uint256",
          "name": "_amount",
          "type": "uint256"
        }
      ],
      "name": "setStakeAmountTotal",
      "outputs": [],
      "stateMutability": "nonpayable",
      "type": "function"
    },
    {
      "inputs": [
        {
          "internalType": "uint256",
          "name": "_stakingEpoch",
          "type": "uint256"
        }
      ],
      "name": "setStakingEpoch",
      "outputs": [],
      "stateMutability": "nonpayable",
      "type": "function"
    },
    {
      "inputs": [
        {
          "internalType": "uint256",
          "name": "_timestamp",
          "type": "uint256"
        }
      ],
      "name": "setStakingEpochStartTime",
      "outputs": [],
      "stateMutability": "nonpayable",
      "type": "function"
    },
    {
      "inputs": [
        {
          "internalType": "uint256",
          "name": "_value",
          "type": "uint256"
        }
      ],
      "name": "setStakingFixedEpochDuration",
      "outputs": [],
      "stateMutability": "nonpayable",
      "type": "function"
    },
    {
      "inputs": [
        {
          "internalType": "uint256",
          "name": "_value",
          "type": "uint256"
        }
      ],
      "name": "setStakingTransitionTimeframeLength",
      "outputs": [],
      "stateMutability": "nonpayable",
      "type": "function"
    },
    {
      "inputs": [
        {
          "internalType": "address",
          "name": "_validatorAddress",
          "type": "address"
        },
        {
          "internalType": "bytes16",
          "name": "_ip",
          "type": "bytes16"
        },
        {
          "internalType": "bytes2",
          "name": "_port",
          "type": "bytes2"
        }
      ],
      "name": "setValidatorInternetAddress",
      "outputs": [],
      "stateMutability": "nonpayable",
      "type": "function"
    },
    {
      "inputs": [
        {
          "internalType": "contract IValidatorSetHbbft",
          "name": "_validatorSetAddress",
          "type": "address"
        }
      ],
      "name": "setValidatorMockSetAddress",
      "outputs": [],
      "stateMutability": "nonpayable",
      "type": "function"
    },
    {
      "inputs": [
        {
          "internalType": "contract IValidatorSetHbbft",
          "name": "_validatorSetAddress",
          "type": "address"
        }
      ],
      "name": "setValidatorSetAddress",
      "outputs": [],
      "stateMutability": "nonpayable",
      "type": "function"
    },
    {
      "inputs": [
        {
          "internalType": "uint256",
          "name": "_epoch",
          "type": "uint256"
        },
        {
          "internalType": "address",
          "name": "_stakingPool",
          "type": "address"
        }
      ],
      "name": "snapshotPoolStakeAmounts",
      "outputs": [],
      "stateMutability": "nonpayable",
      "type": "function"
    },
    {
      "inputs": [
        {
          "internalType": "uint256",
          "name": "",
          "type": "uint256"
        },
        {
          "internalType": "address",
          "name": "",
          "type": "address"
        }
      ],
      "name": "snapshotPoolTotalStakeAmount",
      "outputs": [
        {
          "internalType": "uint256",
          "name": "",
          "type": "uint256"
        }
      ],
      "stateMutability": "view",
      "type": "function"
    },
    {
      "inputs": [
        {
          "internalType": "uint256",
          "name": "",
          "type": "uint256"
        },
        {
          "internalType": "address",
          "name": "",
          "type": "address"
        }
      ],
      "name": "snapshotPoolValidatorStakeAmount",
      "outputs": [
        {
          "internalType": "uint256",
          "name": "",
          "type": "uint256"
        }
      ],
      "stateMutability": "view",
      "type": "function"
    },
    {
      "inputs": [
        {
          "internalType": "address",
          "name": "_toPoolStakingAddress",
          "type": "address"
        }
      ],
      "name": "stake",
      "outputs": [],
      "stateMutability": "payable",
      "type": "function"
    },
    {
      "inputs": [
        {
          "internalType": "address",
          "name": "",
          "type": "address"
        },
        {
          "internalType": "address",
          "name": "",
          "type": "address"
        }
      ],
      "name": "stakeAmount",
      "outputs": [
        {
          "internalType": "uint256",
          "name": "",
          "type": "uint256"
        }
      ],
      "stateMutability": "view",
      "type": "function"
    },
    {
      "inputs": [
        {
          "internalType": "address",
          "name": "_poolStakingAddress",
          "type": "address"
        },
        {
          "internalType": "address",
          "name": "_staker",
          "type": "address"
        }
      ],
      "name": "stakeAmountByCurrentEpoch",
      "outputs": [
        {
          "internalType": "uint256",
          "name": "",
          "type": "uint256"
        }
      ],
      "stateMutability": "view",
      "type": "function"
    },
    {
      "inputs": [
        {
          "internalType": "address",
          "name": "",
          "type": "address"
        }
      ],
      "name": "stakeAmountTotal",
      "outputs": [
        {
          "internalType": "uint256",
          "name": "",
          "type": "uint256"
        }
      ],
      "stateMutability": "view",
      "type": "function"
    },
    {
      "inputs": [],
      "name": "stakingEpoch",
      "outputs": [
        {
          "internalType": "uint256",
          "name": "",
          "type": "uint256"
        }
      ],
      "stateMutability": "view",
      "type": "function"
    },
    {
      "inputs": [],
      "name": "stakingEpochStartBlock",
      "outputs": [
        {
          "internalType": "uint256",
          "name": "",
          "type": "uint256"
        }
      ],
      "stateMutability": "view",
      "type": "function"
    },
    {
      "inputs": [],
      "name": "stakingEpochStartTime",
      "outputs": [
        {
          "internalType": "uint256",
          "name": "",
          "type": "uint256"
        }
      ],
      "stateMutability": "view",
      "type": "function"
    },
    {
      "inputs": [],
      "name": "stakingFixedEpochDuration",
      "outputs": [
        {
          "internalType": "uint256",
          "name": "",
          "type": "uint256"
        }
      ],
      "stateMutability": "view",
      "type": "function"
    },
    {
      "inputs": [],
      "name": "stakingFixedEpochEndTime",
      "outputs": [
        {
          "internalType": "uint256",
          "name": "",
          "type": "uint256"
        }
      ],
      "stateMutability": "view",
      "type": "function"
    },
    {
      "inputs": [],
      "name": "stakingTransitionTimeframeLength",
      "outputs": [
        {
          "internalType": "uint256",
          "name": "",
          "type": "uint256"
        }
      ],
      "stateMutability": "view",
      "type": "function"
    },
    {
      "inputs": [],
      "name": "stakingWithdrawDisallowPeriod",
      "outputs": [
        {
          "internalType": "uint256",
          "name": "",
          "type": "uint256"
        }
      ],
      "stateMutability": "view",
      "type": "function"
    },
    {
      "inputs": [],
      "name": "startTimeOfNextPhaseTransition",
      "outputs": [
        {
          "internalType": "uint256",
          "name": "",
          "type": "uint256"
        }
      ],
      "stateMutability": "view",
      "type": "function"
    },
    {
      "inputs": [],
      "name": "totalStakedAmount",
      "outputs": [
        {
          "internalType": "uint256",
          "name": "",
          "type": "uint256"
        }
      ],
      "stateMutability": "view",
      "type": "function"
    },
    {
      "inputs": [
        {
          "internalType": "address",
          "name": "newOwner",
          "type": "address"
        }
      ],
      "name": "transferOwnership",
      "outputs": [],
      "stateMutability": "nonpayable",
      "type": "function"
    },
    {
      "inputs": [
        {
          "internalType": "address",
          "name": "mining",
          "type": "address"
        },
        {
          "internalType": "uint256",
          "name": "validatorScore",
          "type": "uint256"
        }
      ],
      "name": "updatePoolLikelihood",
      "outputs": [],
      "stateMutability": "nonpayable",
      "type": "function"
    },
    {
      "inputs": [],
      "name": "validatorSetContract",
      "outputs": [
        {
          "internalType": "contract IValidatorSetHbbft",
          "name": "",
          "type": "address"
        }
      ],
      "stateMutability": "view",
      "type": "function"
    },
    {
      "inputs": [
        {
          "internalType": "address",
          "name": "_fromPoolStakingAddress",
          "type": "address"
        },
        {
          "internalType": "uint256",
          "name": "_amount",
          "type": "uint256"
        }
      ],
      "name": "withdraw",
      "outputs": [],
      "stateMutability": "nonpayable",
      "type": "function"
    },
    {
      "stateMutability": "payable",
      "type": "receive"
    }
  ],
  "bytecode": "0x6080604052348015600f57600080fd5b506016601a565b60ca565b7ff0c57e16840df040f15088dc2f81fe391c3923bec73e23a9662efc9c229c6a00805468010000000000000000900460ff161560695760405163f92ee8a960e01b815260040160405180910390fd5b80546001600160401b039081161460c75780546001600160401b0319166001600160401b0390811782556040519081527fc7f505b2f371ae2175ee4913f4499e1f2633a7b5936321eed1cdaeb6115181d29060200160405180910390a15b50565b6162e7806100d96000396000f3fe6080604052600436106105fb5760003560e01c8063862be2871161030c578063c6af311a1161019a578063eb3efa16116100ec578063f3fef3a311610095578063f9d4d5441161006f578063f9d4d54414611253578063fa4aaf4714611280578063ffada862146112ad57600080fd5b8063f3fef3a3146111ff578063f49425011461121f578063f6c578611461123357600080fd5b8063f0786096116100c6578063f0786096146111b5578063f2de6699146111cb578063f2fde38b146111df57600080fd5b8063eb3efa161461114e578063edd7db751461118b578063ee435f55146111a057600080fd5b8063dadee88a1161014e578063e2a43cd911610128578063e2a43cd9146110a2578063e5b1d593146110d9578063e9ab03001461111657600080fd5b8063dadee88a14611040578063df6f55f51461106d578063dfc8bf4e1461108257600080fd5b8063d0ac76f61161017f578063d0ac76f614610ff5578063d290c21d14611015578063da7a9b6a1461102a57600080fd5b8063c6af311a14610fb5578063cfef144114610fd557600080fd5b8063a5d54f651161025e578063b163cc3811610207578063ba08d237116101e1578063ba08d23714610f60578063bf348f8614610f80578063c6912cc014610fa057600080fd5b8063b163cc3814610695578063b61ed63a14610f13578063b710c15d14610f3357600080fd5b8063adddc0cf11610238578063adddc0cf14610ec8578063ae1aaf8014610edd578063b0bd5e9e14610ef357600080fd5b8063a5d54f6514610e5b578063a697ecff14610e70578063a711e6a114610ea857600080fd5b80639a7b5f11116102c05780639e72c6351161029a5780639e72c63514610de35780639ea8082b14610e03578063a420596714610e2357600080fd5b80639a7b5f1114610d885780639b03d74414610db75780639e6c295914610dcd57600080fd5b8063921e274b116102f1578063921e274b14610d32578063950a651314610d45578063957950a714610d6557600080fd5b8063862be28714610cd55780638da5cb5b14610cf557600080fd5b80634e9b426d116104895780636bda1577116103db578063794c0c68116103845780637d8149db1161035e5780637d8149db14610c685780638247a23914610c8857806384725c7614610ca857600080fd5b8063794c0c6814610c125780637b0a0f9b14610c285780637b15b94c14610c4857600080fd5b8063728345db116103b5578063728345db14610b6c57806373c2180314610ba2578063750dd2a114610bc257600080fd5b80636bda157714610b215780637069e74614610b41578063715018a614610b5757600080fd5b80635ca2b6501161043d578063611d760c11610417578063611d760c14610aa9578063615f2b7114610ac9578063673a2a1f14610aff57600080fd5b80635ca2b65014610a5d5780635d80ca3214610a7d5780635fef764314610a9357600080fd5b80635267e1d61161046e5780635267e1d6146109d7578063567e98f914610a045780635b4eafe014610a1a57600080fd5b80634e9b426d146109945780634f9a8d8f146109c157600080fd5b806322704bdd1161054d57806337154263116104f65780633f3afe01116104d05780633f3afe01146109415780634160d386146109545780634346845f1461097457600080fd5b806337154263146108f6578063379b046a1461090b5780633b7d09461461092157600080fd5b8063264762041161052757806326476204146108835780632bafde8d146108965780633219d600146108b657600080fd5b806322704bdd1461082e57806322e3d9861461084e578063251441a91461086357600080fd5b8063129bd128116105af578063159e0a9511610589578063159e0a951461077c5780631fb31e431461079c57806320c07cd81461081857600080fd5b8063129bd1281461070f5780631345b8a51461072f5780631555371c1461076757600080fd5b80630ac6e291116105e05780630ac6e291146106975780630b770cdf146106b757806311f86c99146106ef57600080fd5b8063028b8bdb1461061e57806303a810651461064757600080fd5b3661061957604051631574f9f360e01b815260040160405180910390fd5b600080fd5b34801561062a57600080fd5b5061063460145481565b6040519081526020015b60405180910390f35b34801561065357600080fd5b506106956106623660046157ba565b6001600160a01b039283166000908152602260209081526040808320949095168252928352838120918152915290812055565b005b3480156106a357600080fd5b506106956106b2366004615847565b6112cd565b3480156106c357600080fd5b506024546106d7906001600160a01b031681565b6040516001600160a01b03909116815260200161063e565b3480156106fb57600080fd5b5061063461070a3660046157ba565b611864565b34801561071b57600080fd5b5061063461072a3660046158f7565b61189a565b34801561073b57600080fd5b5061063461074a366004615930565b602160209081526000928352604080842090915290825290205481565b34801561077357600080fd5b506106956118c7565b34801561078857600080fd5b50610695610797366004615955565b611952565b3480156107a857600080fd5b506107e66107b7366004615955565b6001600160a01b03166000908152601e6020526040902060010154608081901b91600160801b90910460f01b90565b604080516fffffffffffffffffffffffffffffffff1990931683526001600160f01b031990911660208301520161063e565b34801561082457600080fd5b506106346107d081565b34801561083a57600080fd5b50610695610849366004615972565b6119d5565b34801561085a57600080fd5b50610634611a12565b34801561086f57600080fd5b5061069561087e3660046157ba565b611a59565b610695610891366004615955565b611b17565b3480156108a257600080fd5b506106956108b1366004615972565b611b9a565b3480156108c257600080fd5b506108e66108d1366004615955565b601f6020526000908152604090205460ff1681565b604051901515815260200161063e565b34801561090257600080fd5b50610695611c1b565b34801561091757600080fd5b50610634601a5481565b34801561092d57600080fd5b5061069561093c366004615955565b612016565b61069561094f36600461598b565b612065565b34801561096057600080fd5b5061069561096f36600461598b565b61239b565b34801561098057600080fd5b5061069561098f3660046159d4565b61243a565b3480156109a057600080fd5b506109b46109af366004615955565b612540565b60405161063e9190615a85565b3480156109cd57600080fd5b5061063460165481565b3480156109e357600080fd5b506106346109f2366004615955565b601b6020526000908152604090205481565b348015610a1057600080fd5b50610634601c5481565b348015610a2657600080fd5b50610634610a35366004615930565b60009182526021602090815260408084206001600160a01b0393909316845291905290205490565b348015610a6957600080fd5b50610695610a78366004615972565b601555565b348015610a8957600080fd5b50610634600e5481565b348015610a9f57600080fd5b50610634600c5481565b348015610ab557600080fd5b50610695610ac4366004615955565b6125ec565b348015610ad557600080fd5b506106d7610ae4366004615955565b6025602052600090815260409020546001600160a01b031681565b348015610b0b57600080fd5b50610b146125f7565b60405161063e9190615a98565b348015610b2d57600080fd5b50610634610b3c3660046158f7565b612608565b348015610b4d57600080fd5b5061063460195481565b348015610b6357600080fd5b50610695612788565b348015610b7857600080fd5b50610634610b87366004615930565b60208080526000928352604080842090915290825290205481565b348015610bae57600080fd5b50610b14610bbd366004615955565b61279c565b348015610bce57600080fd5b50610634610bdd3660046158f7565b6001600160a01b039182166000908152600b602090815260408083209390941682529182528281206015548252909152205490565b348015610c1e57600080fd5b5061063460155481565b348015610c3457600080fd5b50610695610c43366004615b1e565b6127c0565b348015610c5457600080fd5b50610695610c63366004615955565b612856565b348015610c7457600080fd5b50610695610c83366004615b63565b6128d6565b348015610c9457600080fd5b50610695610ca3366004615972565b612958565b348015610cb457600080fd5b50610634610cc3366004615955565b60266020526000908152604090205481565b348015610ce157600080fd5b50610695610cf0366004615bc0565b6129a4565b348015610d0157600080fd5b507f9016d09d72d40fdae2fd8ceac6b6234c7706214fd39c1cd1e609a0528c199300546001600160a01b03166106d7565b610695610d40366004615c25565b612a07565b348015610d5157600080fd5b50610634610d603660046158f7565b612b50565b348015610d7157600080fd5b50610d7a612c98565b60405161063e929190615ce3565b348015610d9457600080fd5b50610da8610da3366004615955565b612cfb565b60405161063e93929190615d05565b348015610dc357600080fd5b5061063460185481565b348015610dd957600080fd5b5061063461271081565b348015610def57600080fd5b50610695610dfe366004615972565b612daf565b348015610e0f57600080fd5b50610b14610e1e366004615955565b612e13565b348015610e2f57600080fd5b50610634610e3e3660046158f7565b601160209081526000928352604080842090915290825290205481565b348015610e6757600080fd5b50610b14612e37565b348015610e7c57600080fd5b50610634610e8b3660046158f7565b601360209081526000928352604080842090915290825290205481565b348015610eb457600080fd5b506108e6610ec3366004615955565b612e99565b348015610ed457600080fd5b50610695612ea5565b348015610ee957600080fd5b5061063460175481565b348015610eff57600080fd5b50610695610f0e366004615972565b612f03565b348015610f1f57600080fd5b50610695610f2e36600461598b565b612f32565b348015610f3f57600080fd5b50610f53610f4e366004615d62565b613299565b60405161063e9190615e13565b348015610f6c57600080fd5b506108e6610f7b366004615e41565b613349565b348015610f8c57600080fd5b50610f53610f9b366004615b63565b613524565b348015610fac57600080fd5b506106346135c9565b348015610fc157600080fd5b50610695610fd036600461598b565b6135e8565b348015610fe157600080fd5b50610695610ff0366004615955565b613692565b34801561100157600080fd5b50610695611010366004615930565b613865565b34801561102157600080fd5b50610b146139a4565b34801561103657600080fd5b50610634600d5481565b34801561104c57600080fd5b5061063461105b366004615955565b60106020526000908152604090205481565b34801561107957600080fd5b50610b146139b0565b34801561108e57600080fd5b50601d546106d7906001600160a01b031681565b3480156110ae57600080fd5b506106956110bd36600461598b565b6001600160a01b039091166000908152601b6020526040902055565b3480156110e557600080fd5b506106956110f4366004615955565b602880546001600160a01b0319166001600160a01b0392909216919091179055565b34801561112257600080fd5b506106346111313660046158f7565b600f60209081526000928352604080842090915290825290205481565b34801561115a57600080fd5b50610695611169366004615955565b601d80546001600160a01b0319166001600160a01b0392909216919091179055565b34801561119757600080fd5b506106956139bc565b3480156111ac57600080fd5b50610695613afc565b3480156111c157600080fd5b50610634610bb881565b3480156111d757600080fd5b506064610634565b3480156111eb57600080fd5b506106956111fa366004615955565b613b5b565b34801561120b57600080fd5b5061069561121a36600461598b565b613b96565b34801561122b57600080fd5b5060016108e6565b34801561123f57600080fd5b506108e661124e366004615955565b613c4f565b34801561125f57600080fd5b5061063461126e366004615955565b60276020526000908152604090205481565b34801561128c57600080fd5b5061063461129b366004615955565b60126020526000908152604090205481565b3480156112b957600080fd5b506106956112c8366004615955565b613c6c565b7ff0c57e16840df040f15088dc2f81fe391c3923bec73e23a9662efc9c229c6a00805468010000000000000000810460ff16159067ffffffffffffffff166000811580156113185750825b905060008267ffffffffffffffff1660011480156113355750303b155b905081158015611343575080155b156113615760405163f92ee8a960e01b815260040160405180910390fd5b845467ffffffffffffffff19166001178555831561139557845468ff00000000000000001916680100000000000000001785555b6001600160a01b038b166113bc5760405163d92e233d60e01b815260040160405180910390fd5b6113c58a613c75565b876113d360408c018c615e5d565b6113df91506002615ebd565b146113fc5760405162d6988760e81b815260040160405180910390fd5b8561140a60408c018c615e5d565b90501461142a576040516320041afd60e01b815260040160405180910390fd5b6114338b613dd8565b61143b613de9565b61144860208b018b615955565b601d80546001600160a01b0319166001600160a01b039290921691909117905561147860408b0160208c01615955565b602480546001600160a01b0319166001600160a01b03929092169190911790553660006114a860408d018d615e5d565b9150915060005b818110156116cb5760008383838181106114cb576114cb615ed4565b90506020020160208101906114e09190615955565b6001600160a01b0316036115075760405163d92e233d60e01b815260040160405180910390fd5b61153883838381811061151c5761151c615ed4565b90506020020160208101906115319190615955565b6000613df9565b61156783838381811061154d5761154d615ed4565b90506020020160208101906115629190615955565b613e58565b8b8b611574836002615ebd565b81811061158357611583615ed4565b905060200201358c8c8360026115999190615ebd565b6115a4906001615eea565b8181106115b3576115b3615ed4565b905060200201356040516020016115d4929190918252602082015260400190565b604051602081830303815290604052601e60008585858181106115f9576115f9615ed4565b905060200201602081019061160e9190615955565b6001600160a01b031681526020810191909152604001600020906116329082615f87565b5089898281811061164557611645615ed4565b905060200201602081019061165a9190616047565b601e600085858581811061167057611670615ed4565b90506020020160208101906116859190615955565b6001600160a01b031681526020810191909152604001600020600190810180546fffffffffffffffffffffffffffffffff191660809390931c92909217909155016114af565b5060408051600580825260c082019092526000916020820160a0803683370190505090506802b5e3af16b18800008160008151811061170c5761170c615ed4565b60200260200101818152505068056bc75e2d631000008160018151811061173557611735615ed4565b602002602001018181525050680821ab0d44149800008160028151811061175e5761175e615ed4565b602002602001018181525050680ad78ebc5ac62000008160038151811061178757611787615ed4565b602002602001018181525050680d8d726b7177a80000816004815181106117b0576117b0615ed4565b60209081029190910101526117d4632bafde8d60e01b636d3d4db560e11b83613e6d565b50505060608a0135600d5560808a0135600c5560a08a0135600e5560c08a01356016556101008a01356014554260185560e08a0135601755831561185757845468ff000000000000000019168555604051600181527fc7f505b2f371ae2175ee4913f4499e1f2633a7b5936321eed1cdaeb6115181d29060200160405180910390a15b5050505050505050505050565b6001600160a01b0380841660009081526022602090815260408083209386168352928152828220848352905220545b9392505050565b6001600160a01b038083166000908152602360209081526040808320938516835292905220545b92915050565b601d546001600160a01b031633148015906118ed57506028546001600160a01b03163314155b1561190a576040516282b42960e81b815260040160405180910390fd5b60006119166004613f22565b905060005b815181101561194e5761194682828151811061193957611939615ed4565b6020026020010151613f2f565b60010161191b565b5050565b61195a613f75565b6001600160a01b0381166119815760405163d92e233d60e01b815260040160405180910390fd5b602480546001600160a01b0319166001600160a01b0383169081179091556040519081527fd4244d1f8acb4860e17399636c6b7875c75656aafb5cb3d0163d7305eace71729060200160405180910390a150565b6119dd613f75565b600a811115806119ef57506016548110155b15611a0d57604051638826666f60e01b815260040160405180910390fd5b601755565b6018546016546000919015611a28576001611a2b565b60005b60ff16601a5460165483611a3f9190615eea565b611a499190615eea565b611a539190616062565b91505090565b3a600003611a7a57604051630e661aed60e41b815260040160405180910390fd5b816001600160a01b0316836001600160a01b031603611aac57604051630a5eddd560e01b815260040160405180910390fd5b33611ab8848284613fd0565b611ac383828461427e565b601554604080516001600160a01b0387811682526020820186905280851692908716917f4480d8e4b1e9095b94bf513961d26fe1d32386ebdd103d18fe8738cf4b2223ff910160405180910390a450505050565b3a600003611b3857604051630e661aed60e41b815260040160405180910390fd5b3334611b4583838361427e565b601554826001600160a01b0316846001600160a01b03167f2273de02cb1f69ba6259d22c4bc22c60e4c94c193265ef6afee324a04a9b6d2284604051611b8d91815260200190565b60405180910390a4505050565b611ba2613f75565b80611bb96000356001600160e01b03191682613349565b611bde576040516373330d9b60e01b8152600481018290526024015b60405180910390fd5b600d8290556040518281527ffee02ce7aa40f9c49eaabd26d404fa88714b97cb209af8954cfd5eeb8213b93e906020015b60405180910390a15050565b3a600003611c3c57604051630e661aed60e41b815260040160405180910390fd5b600080611c496002613f22565b90508051600003611c6d57604051631c369b4560e21b815260040160405180910390fd5b60005b8151811015611e55576000828281518110611c8d57611c8d615ed4565b60200260200101519050611ca0816145cf565b80611d165750601d54604051639d6fc1d160e01b81526001600160a01b03838116600483015290911690639d6fc1d190602401602060405180830381865afa158015611cf0573d6000803e3d6000fd5b505050506040513d601f19601f82011682018060405250810190611d149190616075565b155b15611d215750611e4d565b611d2c60028261460d565b506001600160a01b0381166000908152601f60209081526040808320805460ff19166001179055601b9091528120805490829055601c805491928392611d73908490616062565b9091555060009050611d8483612e13565b905060005b8151811015611def576000828281518110611da657611da6615ed4565b6020908102919091018101516001600160a01b0380881660009081526013845260408082209284168252919093528220919091559050611de68582614622565b50600101611d89565b50611dfa8287615eea565b9550826001600160a01b0316336001600160a01b03167f8e6a4ccd7dccdca9ac211d00fcc3fa7c71be75ff73d3a35f63ea023173cc100484604051611e4191815260200190565b60405180910390a35050505b600101611c70565b5081600003611e7757604051631c369b4560e21b815260040160405180910390fd5b6000611e84600284616097565b90506000611e928285616062565b90506000601d60009054906101000a90046001600160a01b03166001600160a01b03166356b54bae6040518163ffffffff1660e01b8152600401602060405180830381865afa158015611ee9573d6000803e3d6000fd5b505050506040513d601f19601f82011682018060405250810190611f0d91906160b9565b90506000816001600160a01b031663732524946040518163ffffffff1660e01b8152600401602060405180830381865afa158015611f4f573d6000803e3d6000fd5b505050506040513d601f19601f82011682018060405250810190611f7391906160b9565b9050816001600160a01b031663af182535846040518263ffffffff1660e01b81526004016000604051808303818588803b158015611fb057600080fd5b505af1158015611fc4573d6000803e3d6000fd5b5050505050611fd38185614684565b604080518481526020810186905233917f1c113e6bae9530fea40323e612aeb0cb7817dedb5a0b0f6bdfbff97d55920dc7910160405180910390a2505050505050565b601d546001600160a01b0316331480159061203c57506028546001600160a01b03163314155b15612059576040516282b42960e81b815260040160405180910390fd5b61206281613f2f565b50565b601d60009054906101000a90046001600160a01b03166001600160a01b03166356b54bae6040518163ffffffff1660e01b8152600401602060405180830381865afa1580156120b8573d6000803e3d6000fd5b505050506040513d601f19601f820116820180604052508101906120dc91906160b9565b6001600160a01b0316336001600160a01b03161461210c576040516282b42960e81b815260040160405180910390fd5b341561194e576015546000908152602080805260408083206001600160a01b0386168452909152812054349161214385848661472b565b9050600061215086612e13565b905060005b815181101561229f576000846121876015548a86868151811061217a5761217a615ed4565b602002602001015161484a565b85604001516121969190615ebd565b6121a09190616097565b905080601360008a6001600160a01b03166001600160a01b0316815260200190815260200160002060008585815181106121dc576121dc615ed4565b60200260200101516001600160a01b03166001600160a01b0316815260200190815260200160002060008282546122139190615eea565b90915550506001600160a01b0388166000908152600b60205260408120845183929086908690811061224757612247615ed4565b60200260200101516001600160a01b03166001600160a01b031681526020019081526020016000206000601554815260200190815260200160002060008282546122919190615eea565b909155505050600101612155565b506020820151156122b8576122b88683602001516148e9565b81516001600160a01b0387166000908152601360209081526040808320909152812080549091906122ea908490615eea565b90915550506001600160a01b0386166000908152601b602052604081208054869290612317908490615eea565b9250508190555083601c60008282546123309190615eea565b9091555061233f9050866149b0565b60155482516001600160a01b038816907f72093068b9f28053bd924ac15d7710b987f9b6ef1e0f89f47d8b4bd7cac776dc9061237b8189616062565b6040805192835260208301919091520160405180910390a3505050505050565b601d546040516253517560e01b81523360048201526000916001600160a01b0316906253517590602401602060405180830381865afa1580156123e2573d6000803e3d6000fd5b505050506040513d601f19601f8201168201806040525081019061240691906160b9565b6001600160a01b03160361242f57604051632670461960e11b8152336004820152602401611bd5565b61194e338383614a9c565b612442613f75565b600061244c614bd4565b90506040518060400160405280857bffffffffffffffffffffffffffffffffffffffffffffffffffffffff1916815260200184848080602002602001604051908101604052809392919081815260200183836020028082843760009201829052509390945250506001600160e01b031988168152602084815260409091208351815463ffffffff191660e09190911c1781558382015180519193506124f892600185019291019061572b565b509050507f3665bf9cd0ba4ddceeec259e21dcf8a4510f3b1130bd42e950828e69d85408ba8585858560405161253194939291906160d6565b60405180910390a15050505050565b6001600160a01b0381166000908152601e6020526040902080546060919061256790615efd565b80601f016020809104026020016040519081016040528092919081815260200182805461259390615efd565b80156125e05780601f106125b5576101008083540402835291602001916125e0565b820191906000526020600020905b8154815290600101906020018083116125c357829003601f168201915b50505050509050919050565b612062816001613df9565b60606126036000613f22565b905090565b601d546040516253517560e01b81526001600160a01b03848116600483015260009283929116906253517590602401602060405180830381865afa158015612654573d6000803e3d6000fd5b505050506040513d601f19601f8201168201806040525081019061267891906160b9565b90506001600160a01b0384166000908152601f602052604090205460ff16156126a55760009150506118c1565b6001600160a01b03848116600090815260136020908152604080832087851684529091529081902054601d54915163a0d16cad60e01b815284841660048201529092919091169063a0d16cad90602401602060405180830381865afa158015612712573d6000803e3d6000fd5b505050506040513d601f19601f820116820180604052508101906127369190616075565b6127435791506118c19050565b6001600160a01b038581166000908152600b6020908152604080832093881683529281528282206015548352905220548082111561277f578091505b50949350505050565b612790613f75565b61279a6000614c36565b565b6001600160a01b0381166000908152600a602052604090206060906118c190613f22565b601d546001600160a01b031633148015906127e657506028546001600160a01b03163314155b15612803576040516282b42960e81b815260040160405180910390fd5b6001600160a01b039092166000908152601e60205260409020600101805460f09390931c600160801b0271ffffffffffffffffffffffffffffffffffff1990931660809290921c91909117919091179055565b601d546001600160a01b0316331480159061287c57506028546001600160a01b03163314155b15612899576040516282b42960e81b815260040160405180910390fd5b600c546001600160a01b038216600090815260136020908152604080832090915290205410612062576128cd816001613df9565b612062816149b0565b6128de613f75565b60006128e8614bd4565b6001600160e01b031983166000908152602082905260408120805463ffffffff1916815591925061291c6001830182615776565b50506040516001600160e01b0319831681527fed27cb02231782dadf13473a7828cb980c4d685791b7a3136dde00f8c3594cb690602001611c0f565b601d546001600160a01b0316331480159061297e57506028546001600160a01b03163314155b1561299b576040516282b42960e81b815260040160405180910390fd5b60185543601955565b336000908152601e602052604090206129be848683616143565b50336000908152601e60205260409020600101805460f09290921c600160801b0271ffffffffffffffffffffffffffffffffffff1990921660809390931c929092171790555050565b3a600003612a2857604051630e661aed60e41b815260040160405180910390fd5b601d54604051630526083960e11b81526001600160a01b0388811660048301523360248301819052923492911690630a4c107290604401600060405180830381600087803b158015612a7957600080fd5b505af1158015612a8d573d6000803e3d6000fd5b505050506001600160a01b0382166000908152601e60205260409020612ab4858783616143565b506001600160a01b0382166000908152601e6020526040902060010180546fffffffffffffffffffffffffffffffff1916608085901c179055612af8828888614a9c565b612b0382838361427e565b6015546040518281526001600160a01b0384169081907f2273de02cb1f69ba6259d22c4bc22c60e4c94c193265ef6afee324a04a9b6d229060200160405180910390a45050505050505050565b601d546040516253517560e01b81526001600160a01b03848116600483015260009283929116906253517590602401602060405180830381865afa158015612b9c573d6000803e3d6000fd5b505050506040513d601f19601f82011682018060405250810190612bc091906160b9565b9050601d5460405163a0d16cad60e01b81526001600160a01b0383811660048301529091169063a0d16cad90602401602060405180830381865afa158015612c0c573d6000803e3d6000fd5b505050506040513d601f19601f82011682018060405250810190612c309190616075565b612c3e5760009150506118c1565b6001600160a01b038481166000818152600b602090815260408083209488168084529482528083206015548452825280832054938352601382528083209483529390529190912054612c909190616062565b949350505050565b60606000600760085481805480602002602001604051908101604052809291908181526020018280548015612cec57602002820191906000526020600020905b815481526020019060010190808311612cd8575b50505050509150915091509091565b601e60205260009081526040902080548190612d1690615efd565b80601f0160208091040260200160405190810160405280929190818152602001828054612d4290615efd565b8015612d8f5780601f10612d6457610100808354040283529160200191612d8f565b820191906000526020600020905b815481529060010190602001808311612d7257829003601f168201915b50505060019093015491925050608081901b90600160801b900460f01b83565b601d546001600160a01b03163314801590612dd557506028546001600160a01b03163314155b15612df2576040516282b42960e81b815260040160405180910390fd5b60175481601a54612e039190615eea565b612e0d9190615eea565b601a5550565b6001600160a01b03811660009081526009602052604090206060906118c190613f22565b60606006805480602002602001604051908101604052809291908181526020018280548015612e8f57602002820191906000526020600020905b81546001600160a01b03168152600190910190602001808311612e71575b5050505050905090565b60006118c18183614ca7565b601d546001600160a01b03163314801590612ecb57506028546001600160a01b03163314155b15612ee8576040516282b42960e81b815260040160405180910390fd5b601754601a6000828254612efc9190615eea565b9091555050565b612f0b613f75565b6017548111612f2d5760405163160ac89160e31b815260040160405180910390fd5b601655565b3a600003612f5357604051630e661aed60e41b815260040160405180910390fd5b6001600160a01b038216612f7a5760405163d92e233d60e01b815260040160405180910390fd5b80600003612f9b57604051633ca0029d60e01b815260040160405180910390fd5b6001600160a01b0382166000818152600f602090815260408083203380855290835281842054858552601084528285205460138552838620838752855283862054968652601b90945291842054909491938613156130a5578560006130008988612b50565b90508082111561302d57604051632de4882160e01b81526004810182905260248101839052604401611bd5565b6130378287615eea565b95506130438286615eea565b945061304f8285616062565b935061305b8284616062565b925081601c600082825461306f9190616062565b90915550506015546001600160a01b03808b166000908152601160209081526040808320938c1683529290522055506130fb9050565b60006130b087616204565b90506130bc8186616062565b94506130c88185616062565b93506130d48184615eea565b92506130e08183615eea565b915080601c60008282546130f49190615eea565b9091555050505b6001600160a01b038088166000818152600f60209081526040808320948a1680845294825280832089905583835260108252808320889055601382528083208584528252808320879055838352601b909152902083905590036131ca5781158015906131685750600c5482105b156131a057604051636fe84f3d60e01b81526001600160a01b0380891660048301528616602482015260448101879052606401611bd5565b60008613156131bf57816000036131ba576131ba87613e58565b613237565b6131ba876001613df9565b81158015906131da5750600d5482105b1561321257604051636fe84f3d60e01b81526001600160a01b0380891660048301528616602482015260448101879052606401611bd5565b600086131561322d57816000036131ba576131ba8786614622565b6132378786614cc9565b613240876149b0565b601554856001600160a01b0316886001600160a01b03167f80d5c777e5f7ac6ee89723223803ca5c0ec0204f89e99c1b0cde973c66a645948960405161328891815260200190565b60405180910390a450505050505050565b6040805180820190915260008152606060208201526132b6614bd4565b82516020808501919091206001600160e01b0319908116600090815292825260409283902083518085018552815460e01b909216825260018101805485518186028101860190965280865292949193858101939083018282801561333957602002820191906000526020600020905b815481526020019060010190808311613325575b5050505050815250509050919050565b600080613354614bd4565b6001600160e01b031980861660009081526020838152604080832081518083018352815460e01b909516855260018101805483518186028101860190945280845296975093959093858401939091908301828280156133d257602002820191906000526020600020905b8154815260200190600101908083116133be575b50505050508152505090508060200151516000036133f5576000925050506118c1565b6020810151815160009061340890614cf6565b905060005b8251811015613516578183828151811061342957613429615ed4565b60200260200101510361350e57600080821161345f578360008151811061345257613452615ed4565b6020026020010151613484565b8361346b600184616062565b8151811061347b5761347b615ed4565b60200260200101515b90506000600185516134969190616062565b83106134c85784600186516134ab9190616062565b815181106134bb576134bb615ed4565b60200260200101516134ed565b846134d4846001615eea565b815181106134e4576134e4615ed4565b60200260200101515b90508189141580156134ff5750808914155b159750505050505050506118c1565b60010161340d565b506000979650505050505050565b604080518082019091526000815260606020820152613541614bd4565b6001600160e01b03198084166000908152602092835260409081902081518083018352815460e01b90931683526001810180548351818702810187019094528084529394919385830193928301828280156133395760200282019190600052602060002090815481526020019060010190808311613325575050505050815250509050919050565b60006017546016546018546135de9190615eea565b6126039190616062565b6024546001600160a01b03163314613612576040516282b42960e81b815260040160405180910390fd5b601d546040516307b9342f60e21b81526001600160a01b0384811660048301526000921690631ee4d0bc90602401602060405180830381865afa15801561365d573d6000803e3d6000fd5b505050506040513d601f19601f8201168201806040525081019061368191906160b9565b905061368d8183614dcd565b505050565b3a6000036136b357604051630e661aed60e41b815260040160405180910390fd5b6136bb614e77565b6001600160a01b0381166000908152601160209081526040808320338085529252909120546015541161371457604051630b06352b60e31b81526001600160a01b03808416600483015282166024820152604401611bd5565b6001600160a01b038083166000908152600f602090815260408083209385168352929052908120549081900361375d57604051633ca0029d60e01b815260040160405180910390fd5b6001600160a01b038084166000818152600f6020908152604080832094871683529381528382208290559181526010909152205461379c908290616062565b6001600160a01b03808516600090815260106020908152604080832094909455601381528382209286168252919091529081205490036137e0576137e08383614ec1565b6137ea8282614684565b601554826001600160a01b0316846001600160a01b03167ff380b0bc887e00f5b50d3c9d4eaaf5c9a0afd97b956316b995159384c4ede9b38460405161383291815260200190565b60405180910390a4505061206260017f9b779b17422d0df92223018b32b4d1fa46e071723d6817e2486d003becc55f0055565b601d60009054906101000a90046001600160a01b03166001600160a01b03166356b54bae6040518163ffffffff1660e01b8152600401602060405180830381865afa1580156138b8573d6000803e3d6000fd5b505050506040513d601f19601f820116820180604052508101906138dc91906160b9565b6001600160a01b0316336001600160a01b03161461390c576040516282b42960e81b815260040160405180910390fd5b6000828152602080805260408083206001600160a01b0385168452909152812054900361194e576001600160a01b0381166000908152601b60205260408120549081900361395957505050565b6000838152602080805260408083206001600160a01b038616808552908352818420949094556013825280832082528083205486845260218352818420948452939091529020555050565b60606126036004613f22565b60606126036002613f22565b3a6000036139dd57604051630e661aed60e41b815260040160405180910390fd5b601d546040516253517560e01b81523360048201819052916000916001600160a01b03909116906253517590602401602060405180830381865afa158015613a29573d6000803e3d6000fd5b505050506040513d601f19601f82011682018060405250810190613a4d91906160b9565b90506015546000148015613aca5750601d5460405163facd743b60e01b81526001600160a01b0383811660048301529091169063facd743b90602401602060405180830381865afa158015613aa6573d6000803e3d6000fd5b505050506040513d601f19601f82011682018060405250810190613aca9190616075565b15613af3576040516303d71f2d60e51b81526001600160a01b0383166004820152602401611bd5565b61194e82613f2f565b601d546001600160a01b03163314801590613b2257506028546001600160a01b03163314155b15613b3f576040516282b42960e81b815260040160405180910390fd5b60158054906000613b4f83616220565b90915550506000601a55565b613b63613f75565b6001600160a01b038116613b8d57604051631e4fbdf760e01b815260006004820152602401611bd5565b61206281614c36565b3a600003613bb757604051630e661aed60e41b815260040160405180910390fd5b613bbf614e77565b33613bcb838284613fd0565b613bd58183614684565b601554816001600160a01b0316846001600160a01b03167fa7c0f0cac6bd4d18042007706c84a8abe823751cf289b69c01e83eef7b5915c785604051613c1d91815260200190565b60405180910390a45061194e60017f9b779b17422d0df92223018b32b4d1fa46e071723d6817e2486d003becc55f0055565b6000613c5b8183614ca7565b806118c157506118c1600283614ca7565b61206281615017565b60c08101351580613c8f57508061010001358160c0013511155b15613cad5760405163c671116b60e01b815260040160405180910390fd5b806101000135600003613cd3576040516332154b4760e01b815260040160405180910390fd5b60e08101351580613cec57508060c001358160e0013510155b15613d0a57604051630685efe960e01b815260040160405180910390fd5b6000613d196020830183615955565b6001600160a01b031603613d405760405163d92e233d60e01b815260040160405180910390fd5b613d4d6040820182615e5d565b9050600003613d6f57604051635c9a24ed60e11b815260040160405180910390fd5b60608101351580613d8257506080810135155b15613db05760405163633373e160e11b81526080820135600482015260608201356024820152604401611bd5565b80608001358160a001351161206257604051631c6d3b1560e01b815260040160405180910390fd5b613de0615022565b61206281615070565b613df1615022565b61279a615078565b613e0282612e99565b613e3d57613e11600083615080565b506064613e1e6000615095565b1115613e3d5760405163398dcd9d60e21b815260040160405180910390fd5b613e4860028361460d565b50801561194e5761194e8261509f565b613e63600482615080565b5061206281615194565b613e75615022565b6000613e7f614bd4565b6040805180820182526001600160e01b0319868116825260208083018781529189166000908152858252939093208251815463ffffffff191660e09190911c1781559051805194955091939092613edd92600185019291019061572b565b509050507f3665bf9cd0ba4ddceeec259e21dcf8a4510f3b1130bd42e950828e69d85408ba848484604051613f1493929190616239565b60405180910390a150505050565b60606000611893836153b1565b613f3a60008261460d565b50613f44816145cf565b15613f5a57613f5460028261460d565b50613f63565b613f6381615017565b613f6c81615194565b6120628161540c565b33613fa77f9016d09d72d40fdae2fd8ceac6b6234c7706214fd39c1cd1e609a0528c199300546001600160a01b031690565b6001600160a01b03161461279a5760405163118cdaa760e01b8152336004820152602401611bd5565b6001600160a01b038316613ff75760405163d92e233d60e01b815260040160405180910390fd5b8060000361401857604051633ca0029d60e01b815260040160405180910390fd5b60006140248484612608565b90508082111561405157604051632de4882160e01b81526004810182905260248101839052604401611bd5565b6001600160a01b038085166000908152601360209081526040808320938716835292905290812054614084908490616062565b90506000846001600160a01b0316866001600160a01b0316146140a957600d546140ad565b600c545b905081158015906140bd57508082105b156140f557604051639e612d5760e01b81526001600160a01b0380881660048301528616602482015260448101859052606401611bd5565b856001600160a01b0316856001600160a01b03161461418a57601d546040516253517560e01b81526001600160a01b03888116600483015260009216906253517590602401602060405180830381865afa158015614157573d6000803e3d6000fd5b505050506040513d601f19601f8201168201806040525081019061417b91906160b9565b9050614188878288615417565b505b6001600160a01b038681166000818152601360209081526040808320948a16808452948252808320879055928252600b81528282209382529283528181206015548252909252902054848110156141e25760006141ec565b6141ec8582616062565b6001600160a01b038089166000818152600b60209081526040808320948c1683529381528382206015548352815283822094909455908152601b9092528120805487929061423b908490616062565b9250508190555084601c60008282546142549190616062565b9091555050600083900361426c5761426c8787614ec1565b614275876149b0565b50505050505050565b6001600160a01b0383166142a55760405163d92e233d60e01b815260040160405180910390fd5b601d546040516253517560e01b81526001600160a01b03858116600483015260009216906253517590602401602060405180830381865afa1580156142ee573d6000803e3d6000fd5b505050506040513d601f19601f8201168201806040525081019061431291906160b9565b90506001600160a01b03811661434657604051632670461960e11b81526001600160a01b0385166004820152602401611bd5565b8160000361437a5760405163e59f5c3960e01b81526001600160a01b03808616600483015284166024820152604401611bd5565b6001600160a01b0384166000908152601f602052604090205460ff16156143bf5760405163078137eb60e41b81526001600160a01b0385166004820152602401611bd5565b6001600160a01b0380851660008181526013602090815260408083209488168084529490915281205492909114916143f8908590615eea565b90506000821561440b5750600c5461445a565b50600d546001600160a01b0387166000908152601360209081526040808320909152812054900361445a5760405163cbbeb0bd60e01b81526001600160a01b0388166004820152602401611bd5565b8082101561448e5760405163e59f5c3960e01b81526001600160a01b03808916600483015287166024820152604401611bd5565b600e546001600160a01b0388166000908152601b60205260409020546144b5908790615eea565b11156144e757604051632c2b174160e21b81526001600160a01b03808916600483015287166024820152604401611bd5565b6001600160a01b038088166000908152600b60209081526040808320938a168352928152828220601554835290529081208054879290614528908490615eea565b90915550506001600160a01b0387166000908152601b602052604081208054879290614555908490615eea565b9250508190555084601c600082825461456e9190615eea565b9091555050821561458957614584876001613df9565b61459e565b6145938787614cc9565b61459e878588615417565b6001600160a01b038088166000908152601360209081526040808320938a16835292905220829055614275876149b0565b6001600160a01b0381166000908152601b60205260408120541580156118c15750506001600160a01b03166000908152601060205260409020541590565b6000611893836001600160a01b038416615533565b6001600160a01b0382166000908152600960205260409020614644908261460d565b506001600160a01b038083166000908152600f60209081526040808320938516835292905220541561467a5761194e8282615626565b61194e8282615648565b804710156146a557604051631e9acf1760e31b815260040160405180910390fd5b6000826001600160a01b03168260405160006040518083038185875af1925050503d80600081146146f2576040519150601f19603f3d011682016040523d82523d6000602084013e6146f7565b606091505b505090508061368d57604051630e21dcbb60e11b81526001600160a01b038416600482015260248101839052604401611bd5565b61474f60405180606001604052806000815260200160008152602001600081525090565b6015546000818152602080805260408083206001600160a01b03891680855290835281842054948452602183528184209084529091528120549060646147958688615ebd565b61479f9190616097565b90506147ab8187616062565b6040808601919091526001600160a01b038089166000908152602660209081528382205460259091529290205416158015906147e657508015155b15614808576127106147f88289615ebd565b6148029190616097565b60208601525b838386604001516148199190615ebd565b6148239190616097565b60208601516148329084616062565b61483c9190615eea565b855250929695505050505050565b60008360000361485c57506000611893565b6001600160a01b038084166000908152602360209081526040808320938616835292905220548490036148bd57506001600160a01b038083166000908152602260209081526040808320938516835292815282822086835290522054611893565b506001600160a01b03808316600090815260136020908152604080832093851683529290522054611893565b6001600160a01b03808316600090815260256020908152604080832054600990925290912091169061491b9082614ca7565b614929576149298382614cc9565b6001600160a01b03808416600090815260136020908152604080832093851683529290529081208054849290614960908490615eea565b90915550506001600160a01b038084166000908152600b6020908152604080832093851683529281528282206015548352905290812080548492906149a6908490615eea565b9091555050505050565b601d546040516253517560e01b81526001600160a01b03838116600483015260009216906253517590602401602060405180830381865afa1580156149f9573d6000803e3d6000fd5b505050506040513d601f19601f82011682018060405250810190614a1d91906160b9565b60248054604051633941e77760e21b81526001600160a01b0380851660048301529394506000939091169163e5079ddc9101602060405180830381865afa158015614a6c573d6000803e3d6000fd5b505050506040513d601f19601f82011682018060405250810190614a909190616266565b905061368d8382614dcd565b6107d0811115614ac25760405163e429b69160e01b815260048101829052602401611bd5565b6001600160a01b038216158015614ad857508015155b15614b085760405163073c315960e11b81526001600160a01b038316600482015260248101829052604401611bd5565b6001600160a01b0383166000908152602760205260409020548015801590614b31575060155481145b15614b555760155460405163e7cbc70160e01b8152600401611bd591815260200190565b6001600160a01b03848116600081815260256020908152604080832080546001600160a01b03191695891695861790556026825280832087905560155460278352928190209290925590518581527fd6ae57aa2cc060d4094c47d20c672afe0e53963e6459c15cab215abb8c88b863910160405180910390a350505050565b60008060ff19614c0560017fdace3fd3d1fbdfd33853f19ba191d28c617e373ec58fc73cf7b58db5aff2c2ab616062565b604051602001614c1791815260200190565b60408051601f1981840301815291905280516020909101201692915050565b7f9016d09d72d40fdae2fd8ceac6b6234c7706214fd39c1cd1e609a0528c19930080546001600160a01b031981166001600160a01b03848116918217845560405192169182907f8be0079c531659141344cd1fd0a4f28419497f9722a3daafe3b4186f6b6457e090600090a3505050565b6001600160a01b03811660009081526001830160205260408120541515611893565b6001600160a01b0382166000908152600960205260409020614ceb9082615080565b5061194e8282615648565b60408051600481526024810182526020810180517bffffffffffffffffffffffffffffffffffffffffffffffffffffffff166001600160e01b03198516179052905160009190829081903090614d4d90859061627f565b600060405180830381855afa9150503d8060008114614d88576040519150601f19603f3d011682016040523d82523d6000602084013e614d8d565b606091505b509150915081614db057604051635fbab09b60e11b815260040160405180910390fd5b80806020019051810190614dc49190616266565b95945050505050565b600080614dd98461566a565b9150915081614de85750505050565b600060078281548110614dfd57614dfd615ed4565b60009182526020808320909101546001600160a01b0388168352601b9091526040822054909250614e2f908690615ebd565b90508060078481548110614e4557614e45615ed4565b90600052602060002001819055508082600854614e629190616062565b614e6c9190615eea565b600855505050505050565b7f9b779b17422d0df92223018b32b4d1fa46e071723d6817e2486d003becc55f00805460011901614ebb57604051633ee5aeb560e01b815260040160405180910390fd5b60029055565b816001600160a01b0316816001600160a01b031603614fce57601d546040516253517560e01b81526001600160a01b03848116600483015260009216906253517590602401602060405180830381865afa158015614f23573d6000803e3d6000fd5b505050506040513d601f19601f82011682018060405250810190614f4791906160b9565b601d5460405163facd743b60e01b81526001600160a01b03808416600483015292935091169063facd743b90602401602060405180830381865afa158015614f93573d6000803e3d6000fd5b505050506040513d601f19601f82011682018060405250810190614fb79190616075565b15614fc55761368d83613e58565b61368d83613f2f565b614fd88282614622565b614fe1826145cf565b1561194e5761368d60028361460d565b60017f9b779b17422d0df92223018b32b4d1fa46e071723d6817e2486d003becc55f0055565b61194e600282615080565b7ff0c57e16840df040f15088dc2f81fe391c3923bec73e23a9662efc9c229c6a005468010000000000000000900460ff1661279a57604051631afcd79f60e31b815260040160405180910390fd5b613b63615022565b614ff1615022565b6000611893836001600160a01b0384166156dc565b60006118c1825490565b6001600160a01b03811660009081526012602052604090205460065480821015806150fa5750826001600160a01b0316600683815481106150e2576150e2615ed4565b6000918252602090912001546001600160a01b031614155b1561518b576001600160a01b03831660008181526012602052604081208390556006805460018181019092557ff652222313e28459528d920b65115c16c04f3efc82aaedc97be59f3f377c0d3f0180546001600160a01b03191690931790925560078054928301815581527fa66cc928b5edb82af9bd49922954155ab7b0942694bea4ce44661d9a8736c688909101555b61368d8361540c565b600754600654146151a25750565b6001600160a01b038116600090815260126020526040902054600654811080156151fb5750816001600160a01b0316600682815481106151e4576151e4615ed4565b6000918252602090912001546001600160a01b0316145b1561194e576007818154811061521357615213615ed4565b906000526020600020015460085410615260576007818154811061523957615239615ed4565b9060005260206000200154600860008282546152559190616062565b909155506152669050565b60006008555b60065460009061527890600190616062565b905060006006828154811061528f5761528f615ed4565b600091825260209091200154600680546001600160a01b0390921692508291859081106152be576152be615ed4565b9060005260206000200160006101000a8154816001600160a01b0302191690836001600160a01b03160217905550600782815481106152ff576152ff615ed4565b90600052602060002001546007848154811061531d5761531d615ed4565b60009182526020808320909101929092556001600160a01b0380841682526012909252604080822086905591861681529081205560068054806153625761536261629b565b600082815260209020810160001990810180546001600160a01b031916905501905560078054806153955761539561629b565b6001900381819060005260206000200160009055905550505050565b6060816000018054806020026020016040519081016040528092919081815260200182805480156125e057602002820191906000526020600020905b8154815260200190600101908083116153ed5750505050509050919050565b61194e60048261460d565b601d5460405163a0d16cad60e01b81526001600160a01b0384811660048301529091169063a0d16cad90602401602060405180830381865afa158015615461573d6000803e3d6000fd5b505050506040513d601f19601f820116820180604052508101906154859190616075565b15806154915750601554155b1561549b57505050565b6001600160a01b0380841660009081526023602090815260408083209385168352929052205460155481101561552d576001600160a01b0380851660008181526013602090815260408083209487168084529482528083205484845260228352818420868552835281842060158054865290845282852091909155549383526023825280832094835293905291909120555b50505050565b6000818152600183016020526040812054801561561c576000615557600183616062565b855490915060009061556b90600190616062565b90508082146155d057600086600001828154811061558b5761558b615ed4565b90600052602060002001549050808760000184815481106155ae576155ae615ed4565b6000918252602080832090910192909255918252600188019052604090208390555b85548690806155e1576155e161629b565b6001900381819060005260206000200160009055905585600101600086815260200190815260200160002060009055600193505050506118c1565b60009150506118c1565b6001600160a01b0382166000908152600a6020526040902061368d9082615080565b6001600160a01b0382166000908152600a6020526040902061368d908261460d565b6001600160a01b038116600090815260126020526040812054600654811080156156c35750826001600160a01b0316600682815481106156ac576156ac615ed4565b6000918252602090912001546001600160a01b0316145b156156d15760019150915091565b506000928392509050565b6000818152600183016020526040812054615723575081546001818101845560008481526020808220909301849055845484825282860190935260409020919091556118c1565b5060006118c1565b828054828255906000526020600020908101928215615766579160200282015b8281111561576657825182559160200191906001019061574b565b50615772929150615790565b5090565b508054600082559060005260206000209081019061206291905b5b808211156157725760008155600101615791565b6001600160a01b038116811461206257600080fd5b6000806000606084860312156157cf57600080fd5b83356157da816157a5565b925060208401356157ea816157a5565b929592945050506040919091013590565b60008083601f84011261580d57600080fd5b50813567ffffffffffffffff81111561582557600080fd5b6020830191508360208260051b850101111561584057600080fd5b9250929050565b6000806000806000806080878903121561586057600080fd5b863561586b816157a5565b9550602087013567ffffffffffffffff8082111561588857600080fd5b90880190610120828b03121561589d57600080fd5b909550604088013590808211156158b357600080fd5b6158bf8a838b016157fb565b909650945060608901359150808211156158d857600080fd5b506158e589828a016157fb565b979a9699509497509295939492505050565b6000806040838503121561590a57600080fd5b8235615915816157a5565b91506020830135615925816157a5565b809150509250929050565b6000806040838503121561594357600080fd5b823591506020830135615925816157a5565b60006020828403121561596757600080fd5b8135611893816157a5565b60006020828403121561598457600080fd5b5035919050565b6000806040838503121561599e57600080fd5b82356159a9816157a5565b946020939093013593505050565b80356001600160e01b0319811681146159cf57600080fd5b919050565b600080600080606085870312156159ea57600080fd5b6159f3856159b7565b9350615a01602086016159b7565b9250604085013567ffffffffffffffff811115615a1d57600080fd5b615a29878288016157fb565b95989497509550505050565b60005b83811015615a50578181015183820152602001615a38565b50506000910152565b60008151808452615a71816020860160208601615a35565b601f01601f19169290920160200192915050565b6020815260006118936020830184615a59565b6020808252825182820181905260009190848201906040850190845b81811015615ad95783516001600160a01b031683529284019291840191600101615ab4565b50909695505050505050565b80356fffffffffffffffffffffffffffffffff19811681146159cf57600080fd5b80356001600160f01b0319811681146159cf57600080fd5b600080600060608486031215615b3357600080fd5b8335615b3e816157a5565b9250615b4c60208501615ae5565b9150615b5a60408501615b06565b90509250925092565b600060208284031215615b7557600080fd5b611893826159b7565b60008083601f840112615b9057600080fd5b50813567ffffffffffffffff811115615ba857600080fd5b60208301915083602082850101111561584057600080fd5b60008060008060608587031215615bd657600080fd5b843567ffffffffffffffff811115615bed57600080fd5b615bf987828801615b7e565b9095509350615c0c905060208601615ae5565b9150615c1a60408601615b06565b905092959194509250565b60008060008060008060a08789031215615c3e57600080fd5b8635615c49816157a5565b95506020870135615c59816157a5565b945060408701359350606087013567ffffffffffffffff811115615c7c57600080fd5b615c8889828a01615b7e565b9094509250615c9b905060808801615ae5565b90509295509295509295565b60008151808452602080850194506020840160005b83811015615cd857815187529582019590820190600101615cbc565b509495945050505050565b604081526000615cf66040830185615ca7565b90508260208301529392505050565b606081526000615d186060830186615a59565b6fffffffffffffffffffffffffffffffff19949094166020830152506001600160f01b031991909116604090910152919050565b634e487b7160e01b600052604160045260246000fd5b600060208284031215615d7457600080fd5b813567ffffffffffffffff80821115615d8c57600080fd5b818401915084601f830112615da057600080fd5b813581811115615db257615db2615d4c565b604051601f8201601f19908116603f01168101908382118183101715615dda57615dda615d4c565b81604052828152876020848701011115615df357600080fd5b826020860160208301376000928101602001929092525095945050505050565b602080825282516001600160e01b03191682820152820151604080830152600090612c906060840182615ca7565b60008060408385031215615e5457600080fd5b6159a9836159b7565b6000808335601e19843603018112615e7457600080fd5b83018035915067ffffffffffffffff821115615e8f57600080fd5b6020019150600581901b360382131561584057600080fd5b634e487b7160e01b600052601160045260246000fd5b80820281158282048414176118c1576118c1615ea7565b634e487b7160e01b600052603260045260246000fd5b808201808211156118c1576118c1615ea7565b600181811c90821680615f1157607f821691505b602082108103615f3157634e487b7160e01b600052602260045260246000fd5b50919050565b601f82111561368d576000816000526020600020601f850160051c81016020861015615f605750805b601f850160051c820191505b81811015615f7f57828155600101615f6c565b505050505050565b815167ffffffffffffffff811115615fa157615fa1615d4c565b615fb581615faf8454615efd565b84615f37565b602080601f831160018114615fea5760008415615fd25750858301515b600019600386901b1c1916600185901b178555615f7f565b600085815260208120601f198616915b8281101561601957888601518255948401946001909101908401615ffa565b50858210156160375787850151600019600388901b60f8161c191681555b5050505050600190811b01905550565b60006020828403121561605957600080fd5b61189382615ae5565b818103818111156118c1576118c1615ea7565b60006020828403121561608757600080fd5b8151801515811461189357600080fd5b6000826160b457634e487b7160e01b600052601260045260246000fd5b500490565b6000602082840312156160cb57600080fd5b8151611893816157a5565b6001600160e01b0319858116825284166020820152606060408201819052810182905260007f07ffffffffffffffffffffffffffffffffffffffffffffffffffffffffffffff83111561612857600080fd5b8260051b808560808501379190910160800195945050505050565b67ffffffffffffffff83111561615b5761615b615d4c565b61616f836161698354615efd565b83615f37565b6000601f8411600181146161a3576000851561618b5750838201355b600019600387901b1c1916600186901b1783556161fd565b600083815260209020601f19861690835b828110156161d457868501358255602094850194600190920191016161b4565b50868210156161f15760001960f88860031b161c19848701351681555b505060018560011b0183555b5050505050565b6000600160ff1b820161621957616219615ea7565b5060000390565b60006001820161623257616232615ea7565b5060010190565b6001600160e01b0319848116825283166020820152606060408201819052600090614dc490830184615ca7565b60006020828403121561627857600080fd5b5051919050565b60008251616291818460208701615a35565b9190910192915050565b634e487b7160e01b600052603160045260246000fdfea2646970667358221220e437ffa80f395bdc90a5c8057f045b0e2e447b8d01fa1b1fabb9b1dc924c8a5264736f6c63430008190033",
  "linkReferences": {},
  "deployedLinkReferences": {}
}