{
  "_format": "hh-sol-artifact-1",
  "contractName": "StakingHbbft",
  "sourceName": "contracts/StakingHbbft.sol",
  "abi": [
    {
      "inputs": [],
      "stateMutability": "nonpayable",
      "type": "constructor"
    },
    {
      "inputs": [
        {
          "internalType": "address",
          "name": "pool",
          "type": "address"
        },
        {
          "internalType": "address",
          "name": "staker",
          "type": "address"
        }
      ],
      "name": "CannotClaimWithdrawOrderYet",
      "type": "error"
    },
    {
      "inputs": [],
      "name": "GetterCallFailed",
      "type": "error"
    },
    {
      "inputs": [],
      "name": "InitialStakingPoolsListEmpty",
      "type": "error"
    },
    {
      "inputs": [],
      "name": "InsufficientBalance",
      "type": "error"
    },
    {
      "inputs": [
        {
          "internalType": "address",
          "name": "pool",
          "type": "address"
        },
        {
          "internalType": "address",
          "name": "delegator",
          "type": "address"
        }
      ],
      "name": "InsufficientStakeAmount",
      "type": "error"
    },
    {
      "inputs": [],
      "name": "InvalidFixedEpochDuration",
      "type": "error"
    },
    {
      "inputs": [
        {
          "internalType": "uint256",
          "name": "candidateStake",
          "type": "uint256"
        },
        {
          "internalType": "uint256",
          "name": "delegatorStake",
          "type": "uint256"
        }
      ],
      "name": "InvalidInitialStakeAmount",
      "type": "error"
    },
    {
      "inputs": [],
      "name": "InvalidInitialization",
      "type": "error"
    },
    {
      "inputs": [],
      "name": "InvalidIpAddressesCount",
      "type": "error"
    },
    {
      "inputs": [],
      "name": "InvalidMaxStakeAmount",
      "type": "error"
    },
    {
      "inputs": [],
      "name": "InvalidMoveStakePoolsAddress",
      "type": "error"
    },
    {
      "inputs": [
        {
          "internalType": "address",
          "name": "_operator",
          "type": "address"
        },
        {
          "internalType": "uint256",
          "name": "_share",
          "type": "uint256"
        }
      ],
      "name": "InvalidNodeOperatorConfiguration",
      "type": "error"
    },
    {
      "inputs": [
        {
          "internalType": "uint256",
          "name": "_share",
          "type": "uint256"
        }
      ],
      "name": "InvalidNodeOperatorShare",
      "type": "error"
    },
    {
      "inputs": [
        {
          "internalType": "address",
          "name": "pool",
          "type": "address"
        },
        {
          "internalType": "address",
          "name": "delegator",
          "type": "address"
        },
        {
          "internalType": "int256",
          "name": "amount",
          "type": "int256"
        }
      ],
      "name": "InvalidOrderWithdrawAmount",
      "type": "error"
    },
    {
      "inputs": [],
      "name": "InvalidPublicKeysCount",
      "type": "error"
    },
    {
      "inputs": [],
      "name": "InvalidStakingFixedEpochDuration",
      "type": "error"
    },
    {
      "inputs": [],
      "name": "InvalidStakingTransitionTimeframe",
      "type": "error"
    },
    {
      "inputs": [],
      "name": "InvalidTransitionTimeFrame",
      "type": "error"
    },
    {
      "inputs": [
        {
          "internalType": "address",
          "name": "pool",
          "type": "address"
        },
        {
          "internalType": "address",
          "name": "delegator",
          "type": "address"
        },
        {
          "internalType": "uint256",
          "name": "amount",
          "type": "uint256"
        }
      ],
      "name": "InvalidWithdrawAmount",
      "type": "error"
    },
    {
      "inputs": [
        {
          "internalType": "uint256",
          "name": "allowed",
          "type": "uint256"
        },
        {
          "internalType": "uint256",
          "name": "desired",
          "type": "uint256"
        }
      ],
      "name": "MaxAllowedWithdrawExceeded",
      "type": "error"
    },
    {
      "inputs": [],
      "name": "MaxPoolsCountExceeded",
      "type": "error"
    },
    {
      "inputs": [
        {
          "internalType": "uint256",
          "name": "_newVal",
          "type": "uint256"
        }
      ],
      "name": "NewValueOutOfRange",
      "type": "error"
    },
    {
      "inputs": [],
      "name": "NoStakesToRecover",
      "type": "error"
    },
    {
      "inputs": [],
      "name": "NotInitializing",
      "type": "error"
    },
    {
      "inputs": [],
      "name": "NotPayable",
      "type": "error"
    },
    {
      "inputs": [
        {
          "internalType": "uint256",
          "name": "_epoch",
          "type": "uint256"
        }
      ],
      "name": "OnlyOncePerEpoch",
      "type": "error"
    },
    {
      "inputs": [
        {
          "internalType": "address",
          "name": "owner",
          "type": "address"
        }
      ],
      "name": "OwnableInvalidOwner",
      "type": "error"
    },
    {
      "inputs": [
        {
          "internalType": "address",
          "name": "account",
          "type": "address"
        }
      ],
      "name": "OwnableUnauthorizedAccount",
      "type": "error"
    },
    {
      "inputs": [
        {
          "internalType": "address",
          "name": "pool",
          "type": "address"
        }
      ],
      "name": "PoolAbandoned",
      "type": "error"
    },
    {
      "inputs": [
        {
          "internalType": "address",
          "name": "pool",
          "type": "address"
        }
      ],
      "name": "PoolCannotBeRemoved",
      "type": "error"
    },
    {
      "inputs": [
        {
          "internalType": "address",
          "name": "pool",
          "type": "address"
        }
      ],
      "name": "PoolEmpty",
      "type": "error"
    },
    {
      "inputs": [
        {
          "internalType": "address",
          "name": "pool",
          "type": "address"
        }
      ],
      "name": "PoolNotExist",
      "type": "error"
    },
    {
      "inputs": [
        {
          "internalType": "address",
          "name": "pool",
          "type": "address"
        },
        {
          "internalType": "address",
          "name": "delegator",
          "type": "address"
        }
      ],
      "name": "PoolStakeLimitExceeded",
      "type": "error"
    },
    {
      "inputs": [],
      "name": "ReentrancyGuardReentrantCall",
      "type": "error"
    },
    {
      "inputs": [
        {
          "internalType": "address",
          "name": "recipient",
          "type": "address"
        },
        {
          "internalType": "uint256",
          "name": "amount",
          "type": "uint256"
        }
      ],
      "name": "TransferFailed",
      "type": "error"
    },
    {
      "inputs": [],
      "name": "Unauthorized",
      "type": "error"
    },
    {
      "inputs": [],
      "name": "WithdrawNotAllowed",
      "type": "error"
    },
    {
      "inputs": [],
      "name": "ZeroAddress",
      "type": "error"
    },
    {
      "inputs": [],
      "name": "ZeroGasPrice",
      "type": "error"
    },
    {
      "inputs": [],
      "name": "ZeroWidthrawAmount",
      "type": "error"
    },
    {
      "inputs": [],
      "name": "ZeroWidthrawDisallowPeriod",
      "type": "error"
    },
    {
      "anonymous": false,
      "inputs": [
        {
          "indexed": true,
          "internalType": "address",
          "name": "fromPoolStakingAddress",
          "type": "address"
        },
        {
          "indexed": true,
          "internalType": "address",
          "name": "staker",
          "type": "address"
        },
        {
          "indexed": true,
          "internalType": "uint256",
          "name": "stakingEpoch",
          "type": "uint256"
        },
        {
          "indexed": false,
          "internalType": "uint256",
          "name": "amount",
          "type": "uint256"
        }
      ],
      "name": "ClaimedOrderedWithdrawal",
      "type": "event"
    },
    {
      "anonymous": false,
      "inputs": [
        {
          "indexed": true,
          "internalType": "address",
          "name": "caller",
          "type": "address"
        },
        {
          "indexed": true,
          "internalType": "address",
          "name": "stakingAddress",
          "type": "address"
        },
        {
          "indexed": false,
          "internalType": "uint256",
          "name": "gatheredFunds",
          "type": "uint256"
        }
      ],
      "name": "GatherAbandonedStakes",
      "type": "event"
    },
    {
      "anonymous": false,
      "inputs": [
        {
          "indexed": false,
          "internalType": "uint64",
          "name": "version",
          "type": "uint64"
        }
      ],
      "name": "Initialized",
      "type": "event"
    },
    {
      "anonymous": false,
      "inputs": [
        {
          "indexed": false,
          "internalType": "address",
          "name": "fromPoolStakingAddress",
          "type": "address"
        },
        {
          "indexed": true,
          "internalType": "address",
          "name": "toPoolStakingAddress",
          "type": "address"
        },
        {
          "indexed": true,
          "internalType": "address",
          "name": "staker",
          "type": "address"
        },
        {
          "indexed": true,
          "internalType": "uint256",
          "name": "stakingEpoch",
          "type": "uint256"
        },
        {
          "indexed": false,
          "internalType": "uint256",
          "name": "amount",
          "type": "uint256"
        }
      ],
      "name": "MovedStake",
      "type": "event"
    },
    {
      "anonymous": false,
      "inputs": [
        {
          "indexed": true,
          "internalType": "address",
          "name": "fromPoolStakingAddress",
          "type": "address"
        },
        {
          "indexed": true,
          "internalType": "address",
          "name": "staker",
          "type": "address"
        },
        {
          "indexed": true,
          "internalType": "uint256",
          "name": "stakingEpoch",
          "type": "uint256"
        },
        {
          "indexed": false,
          "internalType": "int256",
          "name": "amount",
          "type": "int256"
        }
      ],
      "name": "OrderedWithdrawal",
      "type": "event"
    },
    {
      "anonymous": false,
      "inputs": [
        {
          "indexed": true,
          "internalType": "address",
          "name": "previousOwner",
          "type": "address"
        },
        {
          "indexed": true,
          "internalType": "address",
          "name": "newOwner",
          "type": "address"
        }
      ],
      "name": "OwnershipTransferred",
      "type": "event"
    },
    {
      "anonymous": false,
      "inputs": [
        {
          "indexed": true,
          "internalType": "address",
          "name": "toPoolStakingAddress",
          "type": "address"
        },
        {
          "indexed": true,
          "internalType": "address",
          "name": "staker",
          "type": "address"
        },
        {
          "indexed": true,
          "internalType": "uint256",
          "name": "stakingEpoch",
          "type": "uint256"
        },
        {
          "indexed": false,
          "internalType": "uint256",
          "name": "amount",
          "type": "uint256"
        }
      ],
      "name": "PlacedStake",
      "type": "event"
    },
    {
      "anonymous": false,
      "inputs": [
        {
          "indexed": true,
          "internalType": "address",
          "name": "caller",
          "type": "address"
        },
        {
          "indexed": false,
          "internalType": "uint256",
          "name": "reinsertShare",
          "type": "uint256"
        },
        {
          "indexed": false,
          "internalType": "uint256",
          "name": "governanceShare",
          "type": "uint256"
        }
      ],
      "name": "RecoverAbandonedStakes",
      "type": "event"
    },
    {
      "anonymous": false,
      "inputs": [
        {
          "indexed": false,
          "internalType": "bytes4",
          "name": "funcSelector",
          "type": "bytes4"
        }
      ],
      "name": "RemoveChangeableParameter",
      "type": "event"
    },
    {
      "anonymous": false,
      "inputs": [
        {
          "indexed": true,
          "internalType": "address",
          "name": "poolStakingAddress",
          "type": "address"
        },
        {
          "indexed": true,
          "internalType": "uint256",
          "name": "stakingEpoch",
          "type": "uint256"
        },
        {
          "indexed": false,
          "internalType": "uint256",
          "name": "validatorReward",
          "type": "uint256"
        },
        {
          "indexed": false,
          "internalType": "uint256",
          "name": "delegatorsReward",
          "type": "uint256"
        }
      ],
      "name": "RestakeReward",
      "type": "event"
    },
    {
      "anonymous": false,
      "inputs": [
        {
          "indexed": false,
          "internalType": "address",
          "name": "_address",
          "type": "address"
        }
      ],
      "name": "SetBonusScoreContract",
      "type": "event"
    },
    {
      "anonymous": false,
      "inputs": [
        {
          "indexed": false,
          "internalType": "bytes4",
          "name": "setter",
          "type": "bytes4"
        },
        {
          "indexed": false,
          "internalType": "bytes4",
          "name": "getter",
          "type": "bytes4"
        },
        {
          "indexed": false,
          "internalType": "uint256[]",
          "name": "params",
          "type": "uint256[]"
        }
      ],
      "name": "SetChangeableParameter",
      "type": "event"
    },
    {
      "anonymous": false,
      "inputs": [
        {
          "indexed": false,
          "internalType": "uint256",
          "name": "minStake",
          "type": "uint256"
        }
      ],
      "name": "SetDelegatorMinStake",
      "type": "event"
    },
    {
      "anonymous": false,
      "inputs": [
        {
          "indexed": true,
          "internalType": "address",
          "name": "poolStakingAddress",
          "type": "address"
        },
        {
          "indexed": true,
          "internalType": "address",
          "name": "nodeOperatorAddress",
          "type": "address"
        },
        {
          "indexed": false,
          "internalType": "uint256",
          "name": "operatorShare",
          "type": "uint256"
        }
      ],
      "name": "SetNodeOperator",
      "type": "event"
    },
    {
      "anonymous": false,
      "inputs": [
        {
          "indexed": true,
          "internalType": "address",
          "name": "fromPoolStakingAddress",
          "type": "address"
        },
        {
          "indexed": true,
          "internalType": "address",
          "name": "staker",
          "type": "address"
        },
        {
          "indexed": true,
          "internalType": "uint256",
          "name": "stakingEpoch",
          "type": "uint256"
        },
        {
          "indexed": false,
          "internalType": "uint256",
          "name": "amount",
          "type": "uint256"
        }
      ],
      "name": "WithdrewStake",
      "type": "event"
    },
    {
      "inputs": [],
      "name": "MAX_CANDIDATES",
      "outputs": [
        {
          "internalType": "uint256",
          "name": "",
          "type": "uint256"
        }
      ],
      "stateMutability": "view",
      "type": "function"
    },
    {
      "inputs": [],
      "name": "MAX_NODE_OPERATOR_SHARE_PERCENT",
      "outputs": [
        {
          "internalType": "uint256",
          "name": "",
          "type": "uint256"
        }
      ],
      "stateMutability": "view",
      "type": "function"
    },
    {
      "inputs": [],
      "name": "PERCENT_DENOMINATOR",
      "outputs": [
        {
          "internalType": "uint256",
          "name": "",
          "type": "uint256"
        }
      ],
      "stateMutability": "view",
      "type": "function"
    },
    {
      "inputs": [
        {
          "internalType": "address",
          "name": "",
          "type": "address"
        }
      ],
      "name": "abandonedAndRemoved",
      "outputs": [
        {
          "internalType": "bool",
          "name": "",
          "type": "bool"
        }
      ],
      "stateMutability": "view",
      "type": "function"
    },
    {
      "inputs": [
        {
          "internalType": "address",
          "name": "_miningAddress",
          "type": "address"
        },
        {
          "internalType": "address",
          "name": "_nodeOperatorAddress",
          "type": "address"
        },
        {
          "internalType": "uint256",
          "name": "_operatorShare",
          "type": "uint256"
        },
        {
          "internalType": "bytes",
          "name": "_publicKey",
          "type": "bytes"
        },
        {
          "internalType": "bytes16",
          "name": "_ip",
          "type": "bytes16"
        }
      ],
      "name": "addPool",
      "outputs": [],
      "stateMutability": "payable",
      "type": "function"
    },
    {
      "inputs": [],
      "name": "areStakeAndWithdrawAllowed",
      "outputs": [
        {
          "internalType": "bool",
          "name": "",
          "type": "bool"
        }
      ],
      "stateMutability": "pure",
      "type": "function"
    },
    {
      "inputs": [],
      "name": "bonusScoreContract",
      "outputs": [
        {
          "internalType": "contract IBonusScoreSystem",
          "name": "",
          "type": "address"
        }
      ],
      "stateMutability": "view",
      "type": "function"
    },
    {
      "inputs": [],
      "name": "candidateMinStake",
      "outputs": [
        {
          "internalType": "uint256",
          "name": "",
          "type": "uint256"
        }
      ],
      "stateMutability": "view",
      "type": "function"
    },
    {
      "inputs": [
        {
          "internalType": "address",
          "name": "_poolStakingAddress",
          "type": "address"
        }
      ],
      "name": "claimOrderedWithdraw",
      "outputs": [],
      "stateMutability": "nonpayable",
      "type": "function"
    },
    {
      "inputs": [],
      "name": "currentKeyGenExtraTimeWindow",
      "outputs": [
        {
          "internalType": "uint256",
          "name": "",
          "type": "uint256"
        }
      ],
      "stateMutability": "view",
      "type": "function"
    },
    {
      "inputs": [],
      "name": "delegatorMinStake",
      "outputs": [
        {
          "internalType": "uint256",
          "name": "",
          "type": "uint256"
        }
      ],
      "stateMutability": "view",
      "type": "function"
    },
    {
      "inputs": [
        {
          "internalType": "string",
          "name": "_selector",
          "type": "string"
        }
      ],
      "name": "getAllowedParamsRange",
      "outputs": [
        {
          "components": [
            {
              "internalType": "bytes4",
              "name": "getter",
              "type": "bytes4"
            },
            {
              "internalType": "uint256[]",
              "name": "range",
              "type": "uint256[]"
            }
          ],
          "internalType": "struct ValueGuards.ParameterRange",
          "name": "",
          "type": "tuple"
        }
      ],
      "stateMutability": "view",
      "type": "function"
    },
    {
      "inputs": [
        {
          "internalType": "bytes4",
          "name": "_selector",
          "type": "bytes4"
        }
      ],
      "name": "getAllowedParamsRangeWithSelector",
      "outputs": [
        {
          "components": [
            {
              "internalType": "bytes4",
              "name": "getter",
              "type": "bytes4"
            },
            {
              "internalType": "uint256[]",
              "name": "range",
              "type": "uint256[]"
            }
          ],
          "internalType": "struct ValueGuards.ParameterRange",
          "name": "",
          "type": "tuple"
        }
      ],
      "stateMutability": "view",
      "type": "function"
    },
    {
      "inputs": [
        {
          "internalType": "address",
          "name": "_poolAddress",
          "type": "address"
        }
      ],
      "name": "getPoolInternetAddress",
      "outputs": [
        {
          "internalType": "bytes16",
          "name": "",
          "type": "bytes16"
        },
        {
          "internalType": "bytes2",
          "name": "",
          "type": "bytes2"
        }
      ],
      "stateMutability": "view",
      "type": "function"
    },
    {
      "inputs": [
        {
          "internalType": "address",
          "name": "_poolAddress",
          "type": "address"
        }
      ],
      "name": "getPoolPublicKey",
      "outputs": [
        {
          "internalType": "bytes",
          "name": "",
          "type": "bytes"
        }
      ],
      "stateMutability": "view",
      "type": "function"
    },
    {
      "inputs": [
        {
          "internalType": "uint256",
          "name": "_epoch",
          "type": "uint256"
        },
        {
          "internalType": "address",
          "name": "_stakingPool",
          "type": "address"
        }
      ],
      "name": "getPoolValidatorStakeAmount",
      "outputs": [
        {
          "internalType": "uint256",
          "name": "",
          "type": "uint256"
        }
      ],
      "stateMutability": "view",
      "type": "function"
    },
    {
      "inputs": [],
      "name": "getPools",
      "outputs": [
        {
          "internalType": "address[]",
          "name": "",
          "type": "address[]"
        }
      ],
      "stateMutability": "view",
      "type": "function"
    },
    {
      "inputs": [],
      "name": "getPoolsInactive",
      "outputs": [
        {
          "internalType": "address[]",
          "name": "",
          "type": "address[]"
        }
      ],
      "stateMutability": "view",
      "type": "function"
    },
    {
      "inputs": [],
      "name": "getPoolsLikelihood",
      "outputs": [
        {
          "internalType": "uint256[]",
          "name": "likelihoods",
          "type": "uint256[]"
        },
        {
          "internalType": "uint256",
          "name": "sum",
          "type": "uint256"
        }
      ],
      "stateMutability": "view",
      "type": "function"
    },
    {
      "inputs": [],
      "name": "getPoolsToBeElected",
      "outputs": [
        {
          "internalType": "address[]",
          "name": "",
          "type": "address[]"
        }
      ],
      "stateMutability": "view",
      "type": "function"
    },
    {
      "inputs": [],
      "name": "getPoolsToBeRemoved",
      "outputs": [
        {
          "internalType": "address[]",
          "name": "",
          "type": "address[]"
        }
      ],
      "stateMutability": "view",
      "type": "function"
    },
    {
      "inputs": [],
      "name": "incrementStakingEpoch",
      "outputs": [],
      "stateMutability": "nonpayable",
      "type": "function"
    },
    {
      "inputs": [
        {
          "internalType": "address",
          "name": "_contractOwner",
          "type": "address"
        },
        {
          "components": [
            {
              "internalType": "address",
              "name": "_validatorSetContract",
              "type": "address"
            },
            {
              "internalType": "address",
              "name": "_bonusScoreContract",
              "type": "address"
            },
            {
              "internalType": "address[]",
              "name": "_initialStakingAddresses",
              "type": "address[]"
            },
            {
              "internalType": "uint256",
              "name": "_delegatorMinStake",
              "type": "uint256"
            },
            {
              "internalType": "uint256",
              "name": "_candidateMinStake",
              "type": "uint256"
            },
            {
              "internalType": "uint256",
              "name": "_maxStake",
              "type": "uint256"
            },
            {
              "internalType": "uint256",
              "name": "_stakingFixedEpochDuration",
              "type": "uint256"
            },
            {
              "internalType": "uint256",
              "name": "_stakingTransitionTimeframeLength",
              "type": "uint256"
            },
            {
              "internalType": "uint256",
              "name": "_stakingWithdrawDisallowPeriod",
              "type": "uint256"
            }
          ],
          "internalType": "struct IStakingHbbft.StakingParams",
          "name": "stakingParams",
          "type": "tuple"
        },
        {
          "internalType": "bytes32[]",
          "name": "_publicKeys",
          "type": "bytes32[]"
        },
        {
          "internalType": "bytes16[]",
          "name": "_internetAddresses",
          "type": "bytes16[]"
        }
      ],
      "name": "initialize",
      "outputs": [],
      "stateMutability": "nonpayable",
      "type": "function"
    },
    {
      "inputs": [
        {
          "internalType": "address",
          "name": "_stakingAddress",
          "type": "address"
        }
      ],
      "name": "isPoolActive",
      "outputs": [
        {
          "internalType": "bool",
          "name": "",
          "type": "bool"
        }
      ],
      "stateMutability": "view",
      "type": "function"
    },
    {
      "inputs": [
        {
          "internalType": "address",
          "name": "_stakingAddress",
          "type": "address"
        }
      ],
      "name": "isPoolValid",
      "outputs": [
        {
          "internalType": "bool",
          "name": "",
          "type": "bool"
        }
      ],
      "stateMutability": "view",
      "type": "function"
    },
    {
      "inputs": [
        {
          "internalType": "bytes4",
          "name": "funcSelector",
          "type": "bytes4"
        },
        {
          "internalType": "uint256",
          "name": "newVal",
          "type": "uint256"
        }
      ],
      "name": "isWithinAllowedRange",
      "outputs": [
        {
          "internalType": "bool",
          "name": "",
          "type": "bool"
        }
      ],
      "stateMutability": "view",
      "type": "function"
    },
    {
      "inputs": [],
      "name": "maxStakeAmount",
      "outputs": [
        {
          "internalType": "uint256",
          "name": "",
          "type": "uint256"
        }
      ],
      "stateMutability": "view",
      "type": "function"
    },
    {
      "inputs": [
        {
          "internalType": "address",
          "name": "_poolStakingAddress",
          "type": "address"
        },
        {
          "internalType": "address",
          "name": "_staker",
          "type": "address"
        }
      ],
      "name": "maxWithdrawAllowed",
      "outputs": [
        {
          "internalType": "uint256",
          "name": "",
          "type": "uint256"
        }
      ],
      "stateMutability": "view",
      "type": "function"
    },
    {
      "inputs": [
        {
          "internalType": "address",
          "name": "_poolStakingAddress",
          "type": "address"
        },
        {
          "internalType": "address",
          "name": "_staker",
          "type": "address"
        }
      ],
      "name": "maxWithdrawOrderAllowed",
      "outputs": [
        {
          "internalType": "uint256",
          "name": "",
          "type": "uint256"
        }
      ],
      "stateMutability": "view",
      "type": "function"
    },
    {
      "inputs": [
        {
          "internalType": "address",
          "name": "_fromPoolStakingAddress",
          "type": "address"
        },
        {
          "internalType": "address",
          "name": "_toPoolStakingAddress",
          "type": "address"
        },
        {
          "internalType": "uint256",
          "name": "_amount",
          "type": "uint256"
        }
      ],
      "name": "moveStake",
      "outputs": [],
      "stateMutability": "nonpayable",
      "type": "function"
    },
    {
      "inputs": [
        {
          "internalType": "address",
          "name": "_stakingAddress",
          "type": "address"
        }
      ],
      "name": "notifyAvailability",
      "outputs": [],
      "stateMutability": "nonpayable",
      "type": "function"
    },
    {
      "inputs": [],
      "name": "notifyKeyGenFailed",
      "outputs": [],
      "stateMutability": "nonpayable",
      "type": "function"
    },
    {
      "inputs": [
        {
          "internalType": "uint256",
          "name": "detectedOfflineTime",
          "type": "uint256"
        }
      ],
      "name": "notifyNetworkOfftimeDetected",
      "outputs": [],
      "stateMutability": "nonpayable",
      "type": "function"
    },
    {
      "inputs": [
        {
          "internalType": "address",
          "name": "_poolStakingAddress",
          "type": "address"
        },
        {
          "internalType": "int256",
          "name": "_amount",
          "type": "int256"
        }
      ],
      "name": "orderWithdraw",
      "outputs": [],
      "stateMutability": "nonpayable",
      "type": "function"
    },
    {
      "inputs": [
        {
          "internalType": "address",
          "name": "",
          "type": "address"
        },
        {
          "internalType": "address",
          "name": "",
          "type": "address"
        }
      ],
      "name": "orderWithdrawEpoch",
      "outputs": [
        {
          "internalType": "uint256",
          "name": "",
          "type": "uint256"
        }
      ],
      "stateMutability": "view",
      "type": "function"
    },
    {
      "inputs": [
        {
          "internalType": "address",
          "name": "",
          "type": "address"
        },
        {
          "internalType": "address",
          "name": "",
          "type": "address"
        }
      ],
      "name": "orderedWithdrawAmount",
      "outputs": [
        {
          "internalType": "uint256",
          "name": "",
          "type": "uint256"
        }
      ],
      "stateMutability": "view",
      "type": "function"
    },
    {
      "inputs": [
        {
          "internalType": "address",
          "name": "",
          "type": "address"
        }
      ],
      "name": "orderedWithdrawAmountTotal",
      "outputs": [
        {
          "internalType": "uint256",
          "name": "",
          "type": "uint256"
        }
      ],
      "stateMutability": "view",
      "type": "function"
    },
    {
      "inputs": [],
      "name": "owner",
      "outputs": [
        {
          "internalType": "address",
          "name": "",
          "type": "address"
        }
      ],
      "stateMutability": "view",
      "type": "function"
    },
    {
      "inputs": [
        {
          "internalType": "address",
          "name": "_poolStakingAddress",
          "type": "address"
        }
      ],
      "name": "poolDelegators",
      "outputs": [
        {
          "internalType": "address[]",
          "name": "",
          "type": "address[]"
        }
      ],
      "stateMutability": "view",
      "type": "function"
    },
    {
      "inputs": [
        {
          "internalType": "address",
          "name": "_poolStakingAddress",
          "type": "address"
        }
      ],
      "name": "poolDelegatorsInactive",
      "outputs": [
        {
          "internalType": "address[]",
          "name": "",
          "type": "address[]"
        }
      ],
      "stateMutability": "view",
      "type": "function"
    },
    {
      "inputs": [
        {
          "internalType": "address",
          "name": "",
          "type": "address"
        }
      ],
      "name": "poolInfo",
      "outputs": [
        {
          "internalType": "bytes",
          "name": "publicKey",
          "type": "bytes"
        },
        {
          "internalType": "bytes16",
          "name": "internetAddress",
          "type": "bytes16"
        },
        {
          "internalType": "bytes2",
          "name": "port",
          "type": "bytes2"
        }
      ],
      "stateMutability": "view",
      "type": "function"
    },
    {
      "inputs": [
        {
          "internalType": "address",
          "name": "",
          "type": "address"
        }
      ],
      "name": "poolNodeOperator",
      "outputs": [
        {
          "internalType": "address",
          "name": "",
          "type": "address"
        }
      ],
      "stateMutability": "view",
      "type": "function"
    },
    {
      "inputs": [
        {
          "internalType": "address",
          "name": "",
          "type": "address"
        }
      ],
      "name": "poolNodeOperatorShare",
      "outputs": [
        {
          "internalType": "uint256",
          "name": "",
          "type": "uint256"
        }
      ],
      "stateMutability": "view",
      "type": "function"
    },
    {
      "inputs": [
        {
          "internalType": "address",
          "name": "",
          "type": "address"
        }
      ],
      "name": "poolToBeElectedIndex",
      "outputs": [
        {
          "internalType": "uint256",
          "name": "",
          "type": "uint256"
        }
      ],
      "stateMutability": "view",
      "type": "function"
    },
    {
      "inputs": [],
      "name": "recoverAbandonedStakes",
      "outputs": [],
      "stateMutability": "nonpayable",
      "type": "function"
    },
    {
      "inputs": [
        {
          "internalType": "bytes4",
          "name": "funcSelector",
          "type": "bytes4"
        }
      ],
      "name": "removeAllowedChangeableParameter",
      "outputs": [],
      "stateMutability": "nonpayable",
      "type": "function"
    },
    {
      "inputs": [],
      "name": "removeMyPool",
      "outputs": [],
      "stateMutability": "nonpayable",
      "type": "function"
    },
    {
      "inputs": [
        {
          "internalType": "address",
          "name": "_stakingAddress",
          "type": "address"
        }
      ],
      "name": "removePool",
      "outputs": [],
      "stateMutability": "nonpayable",
      "type": "function"
    },
    {
      "inputs": [],
      "name": "removePools",
      "outputs": [],
      "stateMutability": "nonpayable",
      "type": "function"
    },
    {
      "inputs": [],
      "name": "renounceOwnership",
      "outputs": [],
      "stateMutability": "nonpayable",
      "type": "function"
    },
    {
      "inputs": [
        {
          "internalType": "address",
          "name": "_poolStakingAddress",
          "type": "address"
        },
        {
          "internalType": "uint256",
          "name": "_validatorMinRewardPercent",
          "type": "uint256"
        }
      ],
      "name": "restake",
      "outputs": [],
      "stateMutability": "payable",
      "type": "function"
    },
    {
      "inputs": [
        {
          "internalType": "bytes4",
          "name": "setter",
          "type": "bytes4"
        },
        {
          "internalType": "bytes4",
          "name": "getter",
          "type": "bytes4"
        },
        {
          "internalType": "uint256[]",
          "name": "params",
          "type": "uint256[]"
        }
      ],
      "name": "setAllowedChangeableParameter",
      "outputs": [],
      "stateMutability": "nonpayable",
      "type": "function"
    },
    {
      "inputs": [
        {
          "internalType": "address",
          "name": "_bonusScoreContract",
          "type": "address"
        }
      ],
      "name": "setBonusScoreContract",
      "outputs": [],
      "stateMutability": "nonpayable",
      "type": "function"
    },
    {
      "inputs": [
        {
          "internalType": "uint256",
          "name": "_minStake",
          "type": "uint256"
        }
      ],
      "name": "setDelegatorMinStake",
      "outputs": [],
      "stateMutability": "nonpayable",
      "type": "function"
    },
    {
      "inputs": [
        {
          "internalType": "address",
          "name": "_operatorAddress",
          "type": "address"
        },
        {
          "internalType": "uint256",
          "name": "_operatorShare",
          "type": "uint256"
        }
      ],
      "name": "setNodeOperator",
      "outputs": [],
      "stateMutability": "nonpayable",
      "type": "function"
    },
    {
      "inputs": [
        {
          "internalType": "bytes",
          "name": "_publicKey",
          "type": "bytes"
        },
        {
          "internalType": "bytes16",
          "name": "_ip",
          "type": "bytes16"
        },
        {
          "internalType": "bytes2",
          "name": "_port",
          "type": "bytes2"
        }
      ],
      "name": "setPoolInfo",
      "outputs": [],
      "stateMutability": "nonpayable",
      "type": "function"
    },
    {
      "inputs": [
        {
          "internalType": "uint256",
          "name": "_timestamp",
          "type": "uint256"
        }
      ],
      "name": "setStakingEpochStartTime",
      "outputs": [],
      "stateMutability": "nonpayable",
      "type": "function"
    },
    {
      "inputs": [
        {
          "internalType": "uint256",
          "name": "_value",
          "type": "uint256"
        }
      ],
      "name": "setStakingFixedEpochDuration",
      "outputs": [],
      "stateMutability": "nonpayable",
      "type": "function"
    },
    {
      "inputs": [
        {
          "internalType": "uint256",
          "name": "_value",
          "type": "uint256"
        }
      ],
      "name": "setStakingTransitionTimeframeLength",
      "outputs": [],
      "stateMutability": "nonpayable",
      "type": "function"
    },
    {
      "inputs": [
        {
          "internalType": "address",
          "name": "_validatorAddress",
          "type": "address"
        },
        {
          "internalType": "bytes16",
          "name": "_ip",
          "type": "bytes16"
        },
        {
          "internalType": "bytes2",
          "name": "_port",
          "type": "bytes2"
        }
      ],
      "name": "setValidatorInternetAddress",
      "outputs": [],
      "stateMutability": "nonpayable",
      "type": "function"
    },
    {
      "inputs": [
        {
          "internalType": "uint256",
          "name": "_epoch",
          "type": "uint256"
        },
        {
          "internalType": "address",
          "name": "_stakingPool",
          "type": "address"
        }
      ],
      "name": "snapshotPoolStakeAmounts",
      "outputs": [],
      "stateMutability": "nonpayable",
      "type": "function"
    },
    {
      "inputs": [
        {
          "internalType": "uint256",
          "name": "",
          "type": "uint256"
        },
        {
          "internalType": "address",
          "name": "",
          "type": "address"
        }
      ],
      "name": "snapshotPoolTotalStakeAmount",
      "outputs": [
        {
          "internalType": "uint256",
          "name": "",
          "type": "uint256"
        }
      ],
      "stateMutability": "view",
      "type": "function"
    },
    {
      "inputs": [
        {
          "internalType": "uint256",
          "name": "",
          "type": "uint256"
        },
        {
          "internalType": "address",
          "name": "",
          "type": "address"
        }
      ],
      "name": "snapshotPoolValidatorStakeAmount",
      "outputs": [
        {
          "internalType": "uint256",
          "name": "",
          "type": "uint256"
        }
      ],
      "stateMutability": "view",
      "type": "function"
    },
    {
      "inputs": [
        {
          "internalType": "address",
          "name": "_toPoolStakingAddress",
          "type": "address"
        }
      ],
      "name": "stake",
      "outputs": [],
      "stateMutability": "payable",
      "type": "function"
    },
    {
      "inputs": [
        {
          "internalType": "address",
          "name": "",
          "type": "address"
        },
        {
          "internalType": "address",
          "name": "",
          "type": "address"
        }
      ],
      "name": "stakeAmount",
      "outputs": [
        {
          "internalType": "uint256",
          "name": "",
          "type": "uint256"
        }
      ],
      "stateMutability": "view",
      "type": "function"
    },
    {
      "inputs": [
        {
          "internalType": "address",
          "name": "_poolStakingAddress",
          "type": "address"
        },
        {
          "internalType": "address",
          "name": "_staker",
          "type": "address"
        }
      ],
      "name": "stakeAmountByCurrentEpoch",
      "outputs": [
        {
          "internalType": "uint256",
          "name": "",
          "type": "uint256"
        }
      ],
      "stateMutability": "view",
      "type": "function"
    },
    {
      "inputs": [
        {
          "internalType": "address",
          "name": "",
          "type": "address"
        }
      ],
      "name": "stakeAmountTotal",
      "outputs": [
        {
          "internalType": "uint256",
          "name": "",
          "type": "uint256"
        }
      ],
      "stateMutability": "view",
      "type": "function"
    },
    {
      "inputs": [],
      "name": "stakingEpoch",
      "outputs": [
        {
          "internalType": "uint256",
          "name": "",
          "type": "uint256"
        }
      ],
      "stateMutability": "view",
      "type": "function"
    },
    {
      "inputs": [],
      "name": "stakingEpochStartBlock",
      "outputs": [
        {
          "internalType": "uint256",
          "name": "",
          "type": "uint256"
        }
      ],
      "stateMutability": "view",
      "type": "function"
    },
    {
      "inputs": [],
      "name": "stakingEpochStartTime",
      "outputs": [
        {
          "internalType": "uint256",
          "name": "",
          "type": "uint256"
        }
      ],
      "stateMutability": "view",
      "type": "function"
    },
    {
      "inputs": [],
      "name": "stakingFixedEpochDuration",
      "outputs": [
        {
          "internalType": "uint256",
          "name": "",
          "type": "uint256"
        }
      ],
      "stateMutability": "view",
      "type": "function"
    },
    {
      "inputs": [],
      "name": "stakingFixedEpochEndTime",
      "outputs": [
        {
          "internalType": "uint256",
          "name": "",
          "type": "uint256"
        }
      ],
      "stateMutability": "view",
      "type": "function"
    },
    {
      "inputs": [],
      "name": "stakingTransitionTimeframeLength",
      "outputs": [
        {
          "internalType": "uint256",
          "name": "",
          "type": "uint256"
        }
      ],
      "stateMutability": "view",
      "type": "function"
    },
    {
      "inputs": [],
      "name": "stakingWithdrawDisallowPeriod",
      "outputs": [
        {
          "internalType": "uint256",
          "name": "",
          "type": "uint256"
        }
      ],
      "stateMutability": "view",
      "type": "function"
    },
    {
      "inputs": [],
      "name": "startTimeOfNextPhaseTransition",
      "outputs": [
        {
          "internalType": "uint256",
          "name": "",
          "type": "uint256"
        }
      ],
      "stateMutability": "view",
      "type": "function"
    },
    {
      "inputs": [],
      "name": "totalStakedAmount",
      "outputs": [
        {
          "internalType": "uint256",
          "name": "",
          "type": "uint256"
        }
      ],
      "stateMutability": "view",
      "type": "function"
    },
    {
      "inputs": [
        {
          "internalType": "address",
          "name": "newOwner",
          "type": "address"
        }
      ],
      "name": "transferOwnership",
      "outputs": [],
      "stateMutability": "nonpayable",
      "type": "function"
    },
    {
      "inputs": [
        {
          "internalType": "address",
          "name": "mining",
          "type": "address"
        },
        {
          "internalType": "uint256",
          "name": "validatorScore",
          "type": "uint256"
        }
      ],
      "name": "updatePoolLikelihood",
      "outputs": [],
      "stateMutability": "nonpayable",
      "type": "function"
    },
    {
      "inputs": [],
      "name": "validatorSetContract",
      "outputs": [
        {
          "internalType": "contract IValidatorSetHbbft",
          "name": "",
          "type": "address"
        }
      ],
      "stateMutability": "view",
      "type": "function"
    },
    {
      "inputs": [
        {
          "internalType": "address",
          "name": "_fromPoolStakingAddress",
          "type": "address"
        },
        {
          "internalType": "uint256",
          "name": "_amount",
          "type": "uint256"
        }
      ],
      "name": "withdraw",
      "outputs": [],
      "stateMutability": "nonpayable",
      "type": "function"
    },
    {
      "stateMutability": "payable",
      "type": "receive"
    }
  ],
  "bytecode": "0x6080604052348015600f57600080fd5b506016601a565b60ca565b7ff0c57e16840df040f15088dc2f81fe391c3923bec73e23a9662efc9c229c6a00805468010000000000000000900460ff161560695760405163f92ee8a960e01b815260040160405180910390fd5b80546001600160401b039081161460c75780546001600160401b0319166001600160401b0390811782556040519081527fc7f505b2f371ae2175ee4913f4499e1f2633a7b5936321eed1cdaeb6115181d29060200160405180910390a15b50565b615f55806100d96000396000f3fe6080604052600436106105775760003560e01c806384725c76116102ca578063ba08d23711610179578063dfc8bf4e116100d6578063f2fde38b1161008a578063f49425011161006f578063f494250114610fe5578063f6c5786114610ff9578063fa4aaf471461101957600080fd5b8063f2fde38b14610fa5578063f3fef3a314610fc557600080fd5b8063edd7db75116100bb578063edd7db7514610f65578063ee435f5514610f7a578063f078609614610f8f57600080fd5b8063dfc8bf4e14610f0d578063e9ab030014610f2d57600080fd5b8063d0ac76f61161012d578063da7a9b6a11610112578063da7a9b6a14610eb5578063dadee88a14610ecb578063df6f55f514610ef857600080fd5b8063d0ac76f614610e80578063d290c21d14610ea057600080fd5b8063c6912cc01161015e578063c6912cc014610e2b578063c6af311a14610e40578063cfef144114610e6057600080fd5b8063ba08d23714610deb578063bf348f8614610e0b57600080fd5b80639ea8082b11610227578063adddc0cf116101db578063b0bd5e9e116101c0578063b0bd5e9e14610d7e578063b61ed63a14610d9e578063b710c15d14610dbe57600080fd5b8063adddc0cf14610d53578063ae1aaf8014610d6857600080fd5b8063a5d54f651161020c578063a5d54f6514610ce6578063a697ecff14610cfb578063a711e6a114610d3357600080fd5b80639ea8082b14610c8e578063a420596714610cae57600080fd5b8063957950a71161027e5780639b03d744116102635780639b03d74414610c425780639e6c295914610c585780639e72c63514610c6e57600080fd5b8063957950a714610bf05780639a7b5f1114610c1357600080fd5b80638da5cb5b116102af5780638da5cb5b14610b80578063921e274b14610bbd578063950a651314610bd057600080fd5b806384725c7614610b33578063862be28714610b6057600080fd5b80634e9b426d116104265780637069e74611610383578063794c0c68116103375780637b15b94c1161031c5780637b15b94c14610ad35780637d8149db14610af35780638247a23914610b1357600080fd5b8063794c0c6814610a9d5780637b0a0f9b14610ab357600080fd5b8063728345db11610368578063728345db146109f757806373c2180314610a2d578063750dd2a114610a4d57600080fd5b80637069e746146109cc578063715018a6146109e257600080fd5b80635d80ca32116103da578063615f2b71116103bf578063615f2b7114610954578063673a2a1f1461098a5780636bda1577146109ac57600080fd5b80635d80ca32146109285780635fef76431461093e57600080fd5b80635267e1d61161040b5780635267e1d6146108c5578063567e98f9146108f25780635b4eafe01461090857600080fd5b80634e9b426d146108825780634f9a8d8f146108af57600080fd5b8063251441a9116104d4578063379b046a116104885780633f3afe011161046d5780633f3afe011461082f5780634160d386146108425780634346845f1461086257600080fd5b8063379b046a146107f95780633b7d09461461080f57600080fd5b80632bafde8d116104b95780632bafde8d146107845780633219d600146107a457806337154263146107e457600080fd5b8063251441a914610751578063264762041461077157600080fd5b8063159e0a951161052b57806320c07cd81161051057806320c07cd81461070657806322704bdd1461071c57806322e3d9861461073c57600080fd5b8063159e0a951461066a5780631fb31e431461068a57600080fd5b80630b770cdf1161055c5780630b770cdf146105e55780631345b8a51461061d5780631555371c1461065557600080fd5b8063028b8bdb1461059a5780630ac6e291146105c357600080fd5b3661059557604051631574f9f360e01b815260040160405180910390fd5b600080fd5b3480156105a657600080fd5b506105b060145481565b6040519081526020015b60405180910390f35b3480156105cf57600080fd5b506105e36105de366004615474565b611046565b005b3480156105f157600080fd5b50602454610605906001600160a01b031681565b6040516001600160a01b0390911681526020016105ba565b34801561062957600080fd5b506105b0610638366004615524565b602160209081526000928352604080842090915290825290205481565b34801561066157600080fd5b506105e36115dd565b34801561067657600080fd5b506105e3610685366004615554565b61164f565b34801561069657600080fd5b506106d46106a5366004615554565b6001600160a01b03166000908152601e6020526040902060010154608081901b91600160801b90910460f01b90565b604080516fffffffffffffffffffffffffffffffff1990931683526001600160f01b03199091166020830152016105ba565b34801561071257600080fd5b506105b06107d081565b34801561072857600080fd5b506105e3610737366004615571565b6116d2565b34801561074857600080fd5b506105b061170f565b34801561075d57600080fd5b506105e361076c36600461558a565b611756565b6105e361077f366004615554565b611814565b34801561079057600080fd5b506105e361079f366004615571565b611897565b3480156107b057600080fd5b506107d46107bf366004615554565b601f6020526000908152604090205460ff1681565b60405190151581526020016105ba565b3480156107f057600080fd5b506105e3611918565b34801561080557600080fd5b506105b0601a5481565b34801561081b57600080fd5b506105e361082a366004615554565b611d13565b6105e361083d3660046155cb565b611d49565b34801561084e57600080fd5b506105e361085d3660046155cb565b61207f565b34801561086e57600080fd5b506105e361087d366004615614565b61211e565b34801561088e57600080fd5b506108a261089d366004615554565b612224565b6040516105ba91906156c5565b3480156108bb57600080fd5b506105b060165481565b3480156108d157600080fd5b506105b06108e0366004615554565b601b6020526000908152604090205481565b3480156108fe57600080fd5b506105b0601c5481565b34801561091457600080fd5b506105b0610923366004615524565b6122d0565b34801561093457600080fd5b506105b0600e5481565b34801561094a57600080fd5b506105b0600c5481565b34801561096057600080fd5b5061060561096f366004615554565b6025602052600090815260409020546001600160a01b031681565b34801561099657600080fd5b5061099f6122fa565b6040516105ba91906156d8565b3480156109b857600080fd5b506105b06109c7366004615725565b61230b565b3480156109d857600080fd5b506105b060195481565b3480156109ee57600080fd5b506105e361248b565b348015610a0357600080fd5b506105b0610a12366004615524565b60208080526000928352604080842090915290825290205481565b348015610a3957600080fd5b5061099f610a48366004615554565b61249f565b348015610a5957600080fd5b506105b0610a68366004615725565b6001600160a01b039182166000908152600b602090815260408083209390941682529182528281206015548252909152205490565b348015610aa957600080fd5b506105b060155481565b348015610abf57600080fd5b506105e3610ace36600461578c565b6124c3565b348015610adf57600080fd5b506105e3610aee366004615554565b612540565b348015610aff57600080fd5b506105e3610b0e3660046157d1565b6125a7565b348015610b1f57600080fd5b506105e3610b2e366004615571565b612629565b348015610b3f57600080fd5b506105b0610b4e366004615554565b60266020526000908152604090205481565b348015610b6c57600080fd5b506105e3610b7b36600461582e565b61265c565b348015610b8c57600080fd5b507f9016d09d72d40fdae2fd8ceac6b6234c7706214fd39c1cd1e609a0528c199300546001600160a01b0316610605565b6105e3610bcb366004615893565b6126bf565b348015610bdc57600080fd5b506105b0610beb366004615725565b612808565b348015610bfc57600080fd5b50610c05612950565b6040516105ba929190615951565b348015610c1f57600080fd5b50610c33610c2e366004615554565b6129b3565b6040516105ba93929190615973565b348015610c4e57600080fd5b506105b060185481565b348015610c6457600080fd5b506105b061271081565b348015610c7a57600080fd5b506105e3610c89366004615571565b612a67565b348015610c9a57600080fd5b5061099f610ca9366004615554565b612ab2565b348015610cba57600080fd5b506105b0610cc9366004615725565b601160209081526000928352604080842090915290825290205481565b348015610cf257600080fd5b5061099f612ad6565b348015610d0757600080fd5b506105b0610d16366004615725565b601360209081526000928352604080842090915290825290205481565b348015610d3f57600080fd5b506107d4610d4e366004615554565b612b38565b348015610d5f57600080fd5b506105e3612b44565b348015610d7457600080fd5b506105b060175481565b348015610d8a57600080fd5b506105e3610d99366004615571565b612b89565b348015610daa57600080fd5b506105e3610db93660046155cb565b612bb8565b348015610dca57600080fd5b50610dde610dd93660046159d0565b612f1f565b6040516105ba9190615a81565b348015610df757600080fd5b506107d4610e06366004615aaf565b612fcf565b348015610e1757600080fd5b50610dde610e263660046157d1565b6131aa565b348015610e3757600080fd5b506105b061324f565b348015610e4c57600080fd5b506105e3610e5b3660046155cb565b61326e565b348015610e6c57600080fd5b506105e3610e7b366004615554565b613318565b348015610e8c57600080fd5b506105e3610e9b366004615524565b6134eb565b348015610eac57600080fd5b5061099f61362a565b348015610ec157600080fd5b506105b0600d5481565b348015610ed757600080fd5b506105b0610ee6366004615554565b60106020526000908152604090205481565b348015610f0457600080fd5b5061099f613636565b348015610f1957600080fd5b50601d54610605906001600160a01b031681565b348015610f3957600080fd5b506105b0610f48366004615725565b600f60209081526000928352604080842090915290825290205481565b348015610f7157600080fd5b506105e3613642565b348015610f8657600080fd5b506105e3613782565b348015610f9b57600080fd5b506105b0610bb881565b348015610fb157600080fd5b506105e3610fc0366004615554565b6137c8565b348015610fd157600080fd5b506105e3610fe03660046155cb565b613803565b348015610ff157600080fd5b5060016107d4565b34801561100557600080fd5b506107d4611014366004615554565b6138bc565b34801561102557600080fd5b506105b0611034366004615554565b60126020526000908152604090205481565b7ff0c57e16840df040f15088dc2f81fe391c3923bec73e23a9662efc9c229c6a00805468010000000000000000810460ff16159067ffffffffffffffff166000811580156110915750825b905060008267ffffffffffffffff1660011480156110ae5750303b155b9050811580156110bc575080155b156110da5760405163f92ee8a960e01b815260040160405180910390fd5b845467ffffffffffffffff19166001178555831561110e57845468ff00000000000000001916680100000000000000001785555b6001600160a01b038b166111355760405163d92e233d60e01b815260040160405180910390fd5b61113e8a6138d9565b8761114c60408c018c615acb565b61115891506002615b2b565b146111755760405162d6988760e81b815260040160405180910390fd5b8561118360408c018c615acb565b9050146111a3576040516320041afd60e01b815260040160405180910390fd5b6111ac8b613a3c565b6111b4613a4d565b6111c160208b018b615554565b601d80546001600160a01b0319166001600160a01b03929092169190911790556111f160408b0160208c01615554565b602480546001600160a01b0319166001600160a01b039290921691909117905536600061122160408d018d615acb565b9150915060005b8181101561144457600083838381811061124457611244615b42565b90506020020160208101906112599190615554565b6001600160a01b0316036112805760405163d92e233d60e01b815260040160405180910390fd5b6112b183838381811061129557611295615b42565b90506020020160208101906112aa9190615554565b6000613a5d565b6112e08383838181106112c6576112c6615b42565b90506020020160208101906112db9190615554565b613abd565b8b8b6112ed836002615b2b565b8181106112fc576112fc615b42565b905060200201358c8c8360026113129190615b2b565b61131d906001615b58565b81811061132c5761132c615b42565b9050602002013560405160200161134d929190918252602082015260400190565b604051602081830303815290604052601e600085858581811061137257611372615b42565b90506020020160208101906113879190615554565b6001600160a01b031681526020810191909152604001600020906113ab9082615bf5565b508989828181106113be576113be615b42565b90506020020160208101906113d39190615cb5565b601e60008585858181106113e9576113e9615b42565b90506020020160208101906113fe9190615554565b6001600160a01b031681526020810191909152604001600020600190810180546fffffffffffffffffffffffffffffffff191660809390931c9290921790915501611228565b5060408051600580825260c082019092526000916020820160a0803683370190505090506802b5e3af16b18800008160008151811061148557611485615b42565b60200260200101818152505068056bc75e2d63100000816001815181106114ae576114ae615b42565b602002602001018181525050680821ab0d4414980000816002815181106114d7576114d7615b42565b602002602001018181525050680ad78ebc5ac62000008160038151811061150057611500615b42565b602002602001018181525050680d8d726b7177a800008160048151811061152957611529615b42565b602090810291909101015261154d632bafde8d60e01b636d3d4db560e11b83613ad2565b50505060608a0135600d5560808a0135600c5560a08a0135600e5560c08a01356016556101008a01356014554260185560e08a013560175583156115d057845468ff000000000000000019168555604051600181527fc7f505b2f371ae2175ee4913f4499e1f2633a7b5936321eed1cdaeb6115181d29060200160405180910390a15b5050505050505050505050565b601d546001600160a01b03163314611607576040516282b42960e81b815260040160405180910390fd5b60006116136004613b87565b905060005b815181101561164b5761164382828151811061163657611636615b42565b6020026020010151613b9b565b600101611618565b5050565b611657613be1565b6001600160a01b03811661167e5760405163d92e233d60e01b815260040160405180910390fd5b602480546001600160a01b0319166001600160a01b0383169081179091556040519081527fd4244d1f8acb4860e17399636c6b7875c75656aafb5cb3d0163d7305eace71729060200160405180910390a150565b6116da613be1565b600a811115806116ec57506016548110155b1561170a57604051638826666f60e01b815260040160405180910390fd5b601755565b6018546016546000919015611725576001611728565b60005b60ff16601a546016548361173c9190615b58565b6117469190615b58565b6117509190615cd0565b91505090565b3a60000361177757604051630e661aed60e41b815260040160405180910390fd5b816001600160a01b0316836001600160a01b0316036117a957604051630a5eddd560e01b815260040160405180910390fd5b336117b5848284613c3c565b6117c0838284613eea565b601554604080516001600160a01b0387811682526020820186905280851692908716917f4480d8e4b1e9095b94bf513961d26fe1d32386ebdd103d18fe8738cf4b2223ff910160405180910390a450505050565b3a60000361183557604051630e661aed60e41b815260040160405180910390fd5b3334611842838383613eea565b601554826001600160a01b0316846001600160a01b03167f2273de02cb1f69ba6259d22c4bc22c60e4c94c193265ef6afee324a04a9b6d228460405161188a91815260200190565b60405180910390a4505050565b61189f613be1565b806118b66000356001600160e01b03191682612fcf565b6118db576040516373330d9b60e01b8152600481018290526024015b60405180910390fd5b600d8290556040518281527ffee02ce7aa40f9c49eaabd26d404fa88714b97cb209af8954cfd5eeb8213b93e906020015b60405180910390a15050565b3a60000361193957604051630e661aed60e41b815260040160405180910390fd5b6000806119466002613b87565b9050805160000361196a57604051631c369b4560e21b815260040160405180910390fd5b60005b8151811015611b5257600082828151811061198a5761198a615b42565b6020026020010151905061199d8161423b565b80611a135750601d54604051639d6fc1d160e01b81526001600160a01b03838116600483015290911690639d6fc1d190602401602060405180830381865afa1580156119ed573d6000803e3d6000fd5b505050506040513d601f19601f82011682018060405250810190611a119190615ce3565b155b15611a1e5750611b4a565b611a29600282614279565b506001600160a01b0381166000908152601f60209081526040808320805460ff19166001179055601b9091528120805490829055601c805491928392611a70908490615cd0565b9091555060009050611a8183612ab2565b905060005b8151811015611aec576000828281518110611aa357611aa3615b42565b6020908102919091018101516001600160a01b0380881660009081526013845260408082209284168252919093528220919091559050611ae3858261428e565b50600101611a86565b50611af78287615b58565b9550826001600160a01b0316336001600160a01b03167f8e6a4ccd7dccdca9ac211d00fcc3fa7c71be75ff73d3a35f63ea023173cc100484604051611b3e91815260200190565b60405180910390a35050505b60010161196d565b5081600003611b7457604051631c369b4560e21b815260040160405180910390fd5b6000611b81600284615d05565b90506000611b8f8285615cd0565b90506000601d60009054906101000a90046001600160a01b03166001600160a01b03166356b54bae6040518163ffffffff1660e01b8152600401602060405180830381865afa158015611be6573d6000803e3d6000fd5b505050506040513d601f19601f82011682018060405250810190611c0a9190615d27565b90506000816001600160a01b031663732524946040518163ffffffff1660e01b8152600401602060405180830381865afa158015611c4c573d6000803e3d6000fd5b505050506040513d601f19601f82011682018060405250810190611c709190615d27565b9050816001600160a01b031663af182535846040518263ffffffff1660e01b81526004016000604051808303818588803b158015611cad57600080fd5b505af1158015611cc1573d6000803e3d6000fd5b5050505050611cd081856142f0565b604080518481526020810186905233917f1c113e6bae9530fea40323e612aeb0cb7817dedb5a0b0f6bdfbff97d55920dc7910160405180910390a2505050505050565b601d546001600160a01b03163314611d3d576040516282b42960e81b815260040160405180910390fd5b611d4681613b9b565b50565b601d60009054906101000a90046001600160a01b03166001600160a01b03166356b54bae6040518163ffffffff1660e01b8152600401602060405180830381865afa158015611d9c573d6000803e3d6000fd5b505050506040513d601f19601f82011682018060405250810190611dc09190615d27565b6001600160a01b0316336001600160a01b031614611df0576040516282b42960e81b815260040160405180910390fd5b341561164b576015546000908152602080805260408083206001600160a01b03861684529091528120543491611e27858486614397565b90506000611e3486612ab2565b905060005b8151811015611f8357600084611e6b6015548a868681518110611e5e57611e5e615b42565b60200260200101516144b6565b8560400151611e7a9190615b2b565b611e849190615d05565b905080601360008a6001600160a01b03166001600160a01b031681526020019081526020016000206000858581518110611ec057611ec0615b42565b60200260200101516001600160a01b03166001600160a01b031681526020019081526020016000206000828254611ef79190615b58565b90915550506001600160a01b0388166000908152600b602052604081208451839290869086908110611f2b57611f2b615b42565b60200260200101516001600160a01b03166001600160a01b03168152602001908152602001600020600060155481526020019081526020016000206000828254611f759190615b58565b909155505050600101611e39565b50602082015115611f9c57611f9c868360200151614557565b81516001600160a01b038716600090815260136020908152604080832090915281208054909190611fce908490615b58565b90915550506001600160a01b0386166000908152601b602052604081208054869290611ffb908490615b58565b9250508190555083601c60008282546120149190615b58565b9091555061202390508661461e565b60155482516001600160a01b038816907f72093068b9f28053bd924ac15d7710b987f9b6ef1e0f89f47d8b4bd7cac776dc9061205f8189615cd0565b6040805192835260208301919091520160405180910390a3505050505050565b601d546040516253517560e01b81523360048201526000916001600160a01b0316906253517590602401602060405180830381865afa1580156120c6573d6000803e3d6000fd5b505050506040513d601f19601f820116820180604052508101906120ea9190615d27565b6001600160a01b03160361211357604051632670461960e11b81523360048201526024016118d2565b61164b33838361470a565b612126613be1565b6000612130614842565b90506040518060400160405280857bffffffffffffffffffffffffffffffffffffffffffffffffffffffff1916815260200184848080602002602001604051908101604052809392919081815260200183836020028082843760009201829052509390945250506001600160e01b031988168152602084815260409091208351815463ffffffff191660e09190911c1781558382015180519193506121dc926001850192910190615399565b509050507f3665bf9cd0ba4ddceeec259e21dcf8a4510f3b1130bd42e950828e69d85408ba858585856040516122159493929190615d44565b60405180910390a15050505050565b6001600160a01b0381166000908152601e6020526040902080546060919061224b90615b6b565b80601f016020809104026020016040519081016040528092919081815260200182805461227790615b6b565b80156122c45780601f10612299576101008083540402835291602001916122c4565b820191906000526020600020905b8154815290600101906020018083116122a757829003601f168201915b50505050509050919050565b60008281526021602090815260408083206001600160a01b03851684529091529020545b92915050565b60606123066000613b87565b905090565b601d546040516253517560e01b81526001600160a01b03848116600483015260009283929116906253517590602401602060405180830381865afa158015612357573d6000803e3d6000fd5b505050506040513d601f19601f8201168201806040525081019061237b9190615d27565b90506001600160a01b0384166000908152601f602052604090205460ff16156123a85760009150506122f4565b6001600160a01b03848116600090815260136020908152604080832087851684529091529081902054601d54915163a0d16cad60e01b815284841660048201529092919091169063a0d16cad90602401602060405180830381865afa158015612415573d6000803e3d6000fd5b505050506040513d601f19601f820116820180604052508101906124399190615ce3565b6124465791506122f49050565b6001600160a01b038581166000908152600b60209081526040808320938816835292815282822060155483529052205480821115612482578091505b50949350505050565b612493613be1565b61249d60006148a4565b565b6001600160a01b0381166000908152600a602052604090206060906122f490613b87565b601d546001600160a01b031633146124ed576040516282b42960e81b815260040160405180910390fd5b6001600160a01b039092166000908152601e60205260409020600101805460f09390931c600160801b0271ffffffffffffffffffffffffffffffffffff1990931660809290921c91909117919091179055565b601d546001600160a01b0316331461256a576040516282b42960e81b815260040160405180910390fd5b600c546001600160a01b038216600090815260136020908152604080832090915290205410611d465761259e816001613a5d565b611d468161461e565b6125af613be1565b60006125b9614842565b6001600160e01b031983166000908152602082905260408120805463ffffffff191681559192506125ed60018301826153e4565b50506040516001600160e01b0319831681527fed27cb02231782dadf13473a7828cb980c4d685791b7a3136dde00f8c3594cb69060200161190c565b601d546001600160a01b03163314612653576040516282b42960e81b815260040160405180910390fd5b60185543601955565b336000908152601e60205260409020612676848683615db1565b50336000908152601e60205260409020600101805460f09290921c600160801b0271ffffffffffffffffffffffffffffffffffff1990921660809390931c929092171790555050565b3a6000036126e057604051630e661aed60e41b815260040160405180910390fd5b601d54604051630526083960e11b81526001600160a01b0388811660048301523360248301819052923492911690630a4c107290604401600060405180830381600087803b15801561273157600080fd5b505af1158015612745573d6000803e3d6000fd5b505050506001600160a01b0382166000908152601e6020526040902061276c858783615db1565b506001600160a01b0382166000908152601e6020526040902060010180546fffffffffffffffffffffffffffffffff1916608085901c1790556127b082888861470a565b6127bb828383613eea565b6015546040518281526001600160a01b0384169081907f2273de02cb1f69ba6259d22c4bc22c60e4c94c193265ef6afee324a04a9b6d229060200160405180910390a45050505050505050565b601d546040516253517560e01b81526001600160a01b03848116600483015260009283929116906253517590602401602060405180830381865afa158015612854573d6000803e3d6000fd5b505050506040513d601f19601f820116820180604052508101906128789190615d27565b9050601d5460405163a0d16cad60e01b81526001600160a01b0383811660048301529091169063a0d16cad90602401602060405180830381865afa1580156128c4573d6000803e3d6000fd5b505050506040513d601f19601f820116820180604052508101906128e89190615ce3565b6128f65760009150506122f4565b6001600160a01b038481166000818152600b6020908152604080832094881680845294825280832060155484528252808320549383526013825280832094835293905291909120546129489190615cd0565b949350505050565b606060006007600854818054806020026020016040519081016040528092919081815260200182805480156129a457602002820191906000526020600020905b815481526020019060010190808311612990575b50505050509150915091509091565b601e602052600090815260409020805481906129ce90615b6b565b80601f01602080910402602001604051908101604052809291908181526020018280546129fa90615b6b565b8015612a475780601f10612a1c57610100808354040283529160200191612a47565b820191906000526020600020905b815481529060010190602001808311612a2a57829003601f168201915b50505060019093015491925050608081901b90600160801b900460f01b83565b601d546001600160a01b03163314612a91576040516282b42960e81b815260040160405180910390fd5b60175481601a54612aa29190615b58565b612aac9190615b58565b601a5550565b6001600160a01b03811660009081526009602052604090206060906122f490613b87565b60606006805480602002602001604051908101604052809291908181526020018280548015612b2e57602002820191906000526020600020905b81546001600160a01b03168152600190910190602001808311612b10575b5050505050905090565b60006122f48183614915565b601d546001600160a01b03163314612b6e576040516282b42960e81b815260040160405180910390fd5b601754601a6000828254612b829190615b58565b9091555050565b612b91613be1565b6017548111612bb35760405163160ac89160e31b815260040160405180910390fd5b601655565b3a600003612bd957604051630e661aed60e41b815260040160405180910390fd5b6001600160a01b038216612c005760405163d92e233d60e01b815260040160405180910390fd5b80600003612c2157604051633ca0029d60e01b815260040160405180910390fd5b6001600160a01b0382166000818152600f602090815260408083203380855290835281842054858552601084528285205460138552838620838752855283862054968652601b9094529184205490949193861315612d2b57856000612c868988612808565b905080821115612cb357604051632de4882160e01b815260048101829052602481018390526044016118d2565b612cbd8287615b58565b9550612cc98286615b58565b9450612cd58285615cd0565b9350612ce18284615cd0565b925081601c6000828254612cf59190615cd0565b90915550506015546001600160a01b03808b166000908152601160209081526040808320938c168352929052205550612d819050565b6000612d3687615e72565b9050612d428186615cd0565b9450612d4e8185615cd0565b9350612d5a8184615b58565b9250612d668183615b58565b915080601c6000828254612d7a9190615b58565b9091555050505b6001600160a01b038088166000818152600f60209081526040808320948a1680845294825280832089905583835260108252808320889055601382528083208584528252808320879055838352601b90915290208390559003612e50578115801590612dee5750600c5482105b15612e2657604051636fe84f3d60e01b81526001600160a01b03808916600483015286166024820152604481018790526064016118d2565b6000861315612e455781600003612e4057612e4087613abd565b612ebd565b612e40876001613a5d565b8115801590612e605750600d5482105b15612e9857604051636fe84f3d60e01b81526001600160a01b03808916600483015286166024820152604481018790526064016118d2565b6000861315612eb35781600003612e4057612e40878661428e565b612ebd8786614937565b612ec68761461e565b601554856001600160a01b0316886001600160a01b03167f80d5c777e5f7ac6ee89723223803ca5c0ec0204f89e99c1b0cde973c66a6459489604051612f0e91815260200190565b60405180910390a450505050505050565b604080518082019091526000815260606020820152612f3c614842565b82516020808501919091206001600160e01b0319908116600090815292825260409283902083518085018552815460e01b9092168252600181018054855181860281018601909652808652929491938581019390830182828015612fbf57602002820191906000526020600020905b815481526020019060010190808311612fab575b5050505050815250509050919050565b600080612fda614842565b6001600160e01b031980861660009081526020838152604080832081518083018352815460e01b9095168552600181018054835181860281018601909452808452969750939590938584019390919083018282801561305857602002820191906000526020600020905b815481526020019060010190808311613044575b505050505081525050905080602001515160000361307b576000925050506122f4565b6020810151815160009061308e90614964565b905060005b825181101561319c57818382815181106130af576130af615b42565b6020026020010151036131945760008082116130e557836000815181106130d8576130d8615b42565b602002602001015161310a565b836130f1600184615cd0565b8151811061310157613101615b42565b60200260200101515b905060006001855161311c9190615cd0565b831061314e5784600186516131319190615cd0565b8151811061314157613141615b42565b6020026020010151613173565b8461315a846001615b58565b8151811061316a5761316a615b42565b60200260200101515b90508189141580156131855750808914155b159750505050505050506122f4565b600101613093565b506000979650505050505050565b6040805180820190915260008152606060208201526131c7614842565b6001600160e01b03198084166000908152602092835260409081902081518083018352815460e01b9093168352600181018054835181870281018701909452808452939491938583019392830182828015612fbf5760200282019190600052602060002090815481526020019060010190808311612fab575050505050815250509050919050565b60006017546016546018546132649190615b58565b6123069190615cd0565b6024546001600160a01b03163314613298576040516282b42960e81b815260040160405180910390fd5b601d546040516307b9342f60e21b81526001600160a01b0384811660048301526000921690631ee4d0bc90602401602060405180830381865afa1580156132e3573d6000803e3d6000fd5b505050506040513d601f19601f820116820180604052508101906133079190615d27565b90506133138183614a3b565b505050565b3a60000361333957604051630e661aed60e41b815260040160405180910390fd5b613341614ae5565b6001600160a01b0381166000908152601160209081526040808320338085529252909120546015541161339a57604051630b06352b60e31b81526001600160a01b038084166004830152821660248201526044016118d2565b6001600160a01b038083166000908152600f60209081526040808320938516835292905290812054908190036133e357604051633ca0029d60e01b815260040160405180910390fd5b6001600160a01b038084166000818152600f60209081526040808320948716835293815283822082905591815260109091522054613422908290615cd0565b6001600160a01b0380851660009081526010602090815260408083209490945560138152838220928616825291909152908120549003613466576134668383614b2f565b61347082826142f0565b601554826001600160a01b0316846001600160a01b03167ff380b0bc887e00f5b50d3c9d4eaaf5c9a0afd97b956316b995159384c4ede9b3846040516134b891815260200190565b60405180910390a45050611d4660017f9b779b17422d0df92223018b32b4d1fa46e071723d6817e2486d003becc55f0055565b601d60009054906101000a90046001600160a01b03166001600160a01b03166356b54bae6040518163ffffffff1660e01b8152600401602060405180830381865afa15801561353e573d6000803e3d6000fd5b505050506040513d601f19601f820116820180604052508101906135629190615d27565b6001600160a01b0316336001600160a01b031614613592576040516282b42960e81b815260040160405180910390fd5b6000828152602080805260408083206001600160a01b0385168452909152812054900361164b576001600160a01b0381166000908152601b6020526040812054908190036135df57505050565b6000838152602080805260408083206001600160a01b038616808552908352818420949094556013825280832082528083205486845260218352818420948452939091529020555050565b60606123066004613b87565b60606123066002613b87565b3a60000361366357604051630e661aed60e41b815260040160405180910390fd5b601d546040516253517560e01b81523360048201819052916000916001600160a01b03909116906253517590602401602060405180830381865afa1580156136af573d6000803e3d6000fd5b505050506040513d601f19601f820116820180604052508101906136d39190615d27565b905060155460001480156137505750601d5460405163facd743b60e01b81526001600160a01b0383811660048301529091169063facd743b90602401602060405180830381865afa15801561372c573d6000803e3d6000fd5b505050506040513d601f19601f820116820180604052508101906137509190615ce3565b15613779576040516303d71f2d60e51b81526001600160a01b03831660048201526024016118d2565b61164b82613b9b565b601d546001600160a01b031633146137ac576040516282b42960e81b815260040160405180910390fd5b601580549060006137bc83615e8e565b90915550506000601a55565b6137d0613be1565b6001600160a01b0381166137fa57604051631e4fbdf760e01b8152600060048201526024016118d2565b611d46816148a4565b3a60000361382457604051630e661aed60e41b815260040160405180910390fd5b61382c614ae5565b33613838838284613c3c565b61384281836142f0565b601554816001600160a01b0316846001600160a01b03167fa7c0f0cac6bd4d18042007706c84a8abe823751cf289b69c01e83eef7b5915c78560405161388a91815260200190565b60405180910390a45061164b60017f9b779b17422d0df92223018b32b4d1fa46e071723d6817e2486d003becc55f0055565b60006138c88183614915565b806122f457506122f4600283614915565b60c081013515806138f357508061010001358160c0013511155b156139115760405163c671116b60e01b815260040160405180910390fd5b806101000135600003613937576040516332154b4760e01b815260040160405180910390fd5b60e0810135158061395057508060c001358160e0013510155b1561396e57604051630685efe960e01b815260040160405180910390fd5b600061397d6020830183615554565b6001600160a01b0316036139a45760405163d92e233d60e01b815260040160405180910390fd5b6139b16040820182615acb565b90506000036139d357604051635c9a24ed60e11b815260040160405180910390fd5b606081013515806139e657506080810135155b15613a145760405163633373e160e11b815260808201356004820152606082013560248201526044016118d2565b80608001358160a0013511611d4657604051631c6d3b1560e01b815260040160405180910390fd5b613a44614c85565b611d4681614cd3565b613a55614c85565b61249d614cdb565b613a6682612b38565b613aa257613a75600083614ce3565b50610bb8613a836000614cf8565b1115613aa25760405163398dcd9d60e21b815260040160405180910390fd5b613aad600283614279565b50801561164b5761164b82614d02565b613ac8600482614ce3565b50611d4681614df7565b613ada614c85565b6000613ae4614842565b6040805180820182526001600160e01b0319868116825260208083018781529189166000908152858252939093208251815463ffffffff191660e09190911c1781559051805194955091939092613b42926001850192910190615399565b509050507f3665bf9cd0ba4ddceeec259e21dcf8a4510f3b1130bd42e950828e69d85408ba848484604051613b7993929190615ea7565b60405180910390a150505050565b60606000613b9483615014565b9392505050565b613ba6600082614279565b50613bb08161423b565b15613bc657613bc0600282614279565b50613bcf565b613bcf8161506f565b613bd881614df7565b611d468161507a565b33613c137f9016d09d72d40fdae2fd8ceac6b6234c7706214fd39c1cd1e609a0528c199300546001600160a01b031690565b6001600160a01b03161461249d5760405163118cdaa760e01b81523360048201526024016118d2565b6001600160a01b038316613c635760405163d92e233d60e01b815260040160405180910390fd5b80600003613c8457604051633ca0029d60e01b815260040160405180910390fd5b6000613c90848461230b565b905080821115613cbd57604051632de4882160e01b815260048101829052602481018390526044016118d2565b6001600160a01b038085166000908152601360209081526040808320938716835292905290812054613cf0908490615cd0565b90506000846001600160a01b0316866001600160a01b031614613d1557600d54613d19565b600c545b90508115801590613d2957508082105b15613d6157604051639e612d5760e01b81526001600160a01b03808816600483015286166024820152604481018590526064016118d2565b856001600160a01b0316856001600160a01b031614613df657601d546040516253517560e01b81526001600160a01b03888116600483015260009216906253517590602401602060405180830381865afa158015613dc3573d6000803e3d6000fd5b505050506040513d601f19601f82011682018060405250810190613de79190615d27565b9050613df4878288615085565b505b6001600160a01b038681166000818152601360209081526040808320948a16808452948252808320879055928252600b8152828220938252928352818120601554825290925290205484811015613e4e576000613e58565b613e588582615cd0565b6001600160a01b038089166000818152600b60209081526040808320948c1683529381528382206015548352815283822094909455908152601b90925281208054879290613ea7908490615cd0565b9250508190555084601c6000828254613ec09190615cd0565b90915550506000839003613ed857613ed88787614b2f565b613ee18761461e565b50505050505050565b6001600160a01b038316613f115760405163d92e233d60e01b815260040160405180910390fd5b601d546040516253517560e01b81526001600160a01b03858116600483015260009216906253517590602401602060405180830381865afa158015613f5a573d6000803e3d6000fd5b505050506040513d601f19601f82011682018060405250810190613f7e9190615d27565b90506001600160a01b038116613fb257604051632670461960e11b81526001600160a01b03851660048201526024016118d2565b81600003613fe65760405163e59f5c3960e01b81526001600160a01b038086166004830152841660248201526044016118d2565b6001600160a01b0384166000908152601f602052604090205460ff161561402b5760405163078137eb60e41b81526001600160a01b03851660048201526024016118d2565b6001600160a01b038085166000818152601360209081526040808320948816808452949091528120549290911491614064908590615b58565b9050600082156140775750600c546140c6565b50600d546001600160a01b038716600090815260136020908152604080832090915281205490036140c65760405163cbbeb0bd60e01b81526001600160a01b03881660048201526024016118d2565b808210156140fa5760405163e59f5c3960e01b81526001600160a01b038089166004830152871660248201526044016118d2565b600e546001600160a01b0388166000908152601b6020526040902054614121908790615b58565b111561415357604051632c2b174160e21b81526001600160a01b038089166004830152871660248201526044016118d2565b6001600160a01b038088166000908152600b60209081526040808320938a168352928152828220601554835290529081208054879290614194908490615b58565b90915550506001600160a01b0387166000908152601b6020526040812080548792906141c1908490615b58565b9250508190555084601c60008282546141da9190615b58565b909155505082156141f5576141f0876001613a5d565b61420a565b6141ff8787614937565b61420a878588615085565b6001600160a01b038088166000908152601360209081526040808320938a16835292905220829055613ee18761461e565b6001600160a01b0381166000908152601b60205260408120541580156122f45750506001600160a01b03166000908152601060205260409020541590565b6000613b94836001600160a01b0384166151a1565b6001600160a01b03821660009081526009602052604090206142b09082614279565b506001600160a01b038083166000908152600f6020908152604080832093851683529290522054156142e65761164b8282615294565b61164b82826152b6565b8047101561431157604051631e9acf1760e31b815260040160405180910390fd5b6000826001600160a01b03168260405160006040518083038185875af1925050503d806000811461435e576040519150601f19603f3d011682016040523d82523d6000602084013e614363565b606091505b505090508061331357604051630e21dcbb60e11b81526001600160a01b0384166004820152602481018390526044016118d2565b6143bb60405180606001604052806000815260200160008152602001600081525090565b6015546000818152602080805260408083206001600160a01b03891680855290835281842054948452602183528184209084529091528120549060646144018688615b2b565b61440b9190615d05565b90506144178187615cd0565b6040808601919091526001600160a01b0380891660009081526026602090815283822054602590915292902054161580159061445257508015155b15614474576127106144648289615b2b565b61446e9190615d05565b60208601525b838386604001516144859190615b2b565b61448f9190615d05565b602086015161449e9084615cd0565b6144a89190615b58565b855250929695505050505050565b6000836000036144c857506000613b94565b6001600160a01b0380841660009081526023602090815260408083209386168352929052205484900361452957506001600160a01b038083166000908152602260209081526040808320938516835292815282822086835290522054613b94565b506001600160a01b038083166000908152601360209081526040808320938516835292905220549392505050565b6001600160a01b0380831660009081526025602090815260408083205460099092529091209116906145899082614915565b614597576145978382614937565b6001600160a01b038084166000908152601360209081526040808320938516835292905290812080548492906145ce908490615b58565b90915550506001600160a01b038084166000908152600b602090815260408083209385168352928152828220601554835290529081208054849290614614908490615b58565b9091555050505050565b601d546040516253517560e01b81526001600160a01b03838116600483015260009216906253517590602401602060405180830381865afa158015614667573d6000803e3d6000fd5b505050506040513d601f19601f8201168201806040525081019061468b9190615d27565b60248054604051633941e77760e21b81526001600160a01b0380851660048301529394506000939091169163e5079ddc9101602060405180830381865afa1580156146da573d6000803e3d6000fd5b505050506040513d601f19601f820116820180604052508101906146fe9190615ed4565b90506133138382614a3b565b6107d08111156147305760405163e429b69160e01b8152600481018290526024016118d2565b6001600160a01b03821615801561474657508015155b156147765760405163073c315960e11b81526001600160a01b0383166004820152602481018290526044016118d2565b6001600160a01b038316600090815260276020526040902054801580159061479f575060155481145b156147c35760155460405163e7cbc70160e01b81526004016118d291815260200190565b6001600160a01b03848116600081815260256020908152604080832080546001600160a01b03191695891695861790556026825280832087905560155460278352928190209290925590518581527fd6ae57aa2cc060d4094c47d20c672afe0e53963e6459c15cab215abb8c88b863910160405180910390a350505050565b60008060ff1961487360017fdace3fd3d1fbdfd33853f19ba191d28c617e373ec58fc73cf7b58db5aff2c2ab615cd0565b60405160200161488591815260200190565b60408051601f1981840301815291905280516020909101201692915050565b7f9016d09d72d40fdae2fd8ceac6b6234c7706214fd39c1cd1e609a0528c19930080546001600160a01b031981166001600160a01b03848116918217845560405192169182907f8be0079c531659141344cd1fd0a4f28419497f9722a3daafe3b4186f6b6457e090600090a3505050565b6001600160a01b03811660009081526001830160205260408120541515613b94565b6001600160a01b03821660009081526009602052604090206149599082614ce3565b5061164b82826152b6565b60408051600481526024810182526020810180517bffffffffffffffffffffffffffffffffffffffffffffffffffffffff166001600160e01b031985161790529051600091908290819030906149bb908590615eed565b600060405180830381855afa9150503d80600081146149f6576040519150601f19603f3d011682016040523d82523d6000602084013e6149fb565b606091505b509150915081614a1e57604051635fbab09b60e11b815260040160405180910390fd5b80806020019051810190614a329190615ed4565b95945050505050565b600080614a47846152d8565b9150915081614a565750505050565b600060078281548110614a6b57614a6b615b42565b60009182526020808320909101546001600160a01b0388168352601b9091526040822054909250614a9d908690615b2b565b90508060078481548110614ab357614ab3615b42565b90600052602060002001819055508082600854614ad09190615cd0565b614ada9190615b58565b600855505050505050565b7f9b779b17422d0df92223018b32b4d1fa46e071723d6817e2486d003becc55f00805460011901614b2957604051633ee5aeb560e01b815260040160405180910390fd5b60029055565b816001600160a01b0316816001600160a01b031603614c3c57601d546040516253517560e01b81526001600160a01b03848116600483015260009216906253517590602401602060405180830381865afa158015614b91573d6000803e3d6000fd5b505050506040513d601f19601f82011682018060405250810190614bb59190615d27565b601d5460405163facd743b60e01b81526001600160a01b03808416600483015292935091169063facd743b90602401602060405180830381865afa158015614c01573d6000803e3d6000fd5b505050506040513d601f19601f82011682018060405250810190614c259190615ce3565b15614c335761331383613abd565b61331383613b9b565b614c46828261428e565b614c4f8261423b565b1561164b57613313600283614279565b60017f9b779b17422d0df92223018b32b4d1fa46e071723d6817e2486d003becc55f0055565b7ff0c57e16840df040f15088dc2f81fe391c3923bec73e23a9662efc9c229c6a005468010000000000000000900460ff1661249d57604051631afcd79f60e31b815260040160405180910390fd5b6137d0614c85565b614c5f614c85565b6000613b94836001600160a01b03841661534a565b60006122f4825490565b6001600160a01b0381166000908152601260205260409020546006548082101580614d5d5750826001600160a01b031660068381548110614d4557614d45615b42565b6000918252602090912001546001600160a01b031614155b15614dee576001600160a01b03831660008181526012602052604081208390556006805460018181019092557ff652222313e28459528d920b65115c16c04f3efc82aaedc97be59f3f377c0d3f0180546001600160a01b03191690931790925560078054928301815581527fa66cc928b5edb82af9bd49922954155ab7b0942694bea4ce44661d9a8736c688909101555b6133138361507a565b60075460065414614e055750565b6001600160a01b03811660009081526012602052604090205460065481108015614e5e5750816001600160a01b031660068281548110614e4757614e47615b42565b6000918252602090912001546001600160a01b0316145b1561164b5760078181548110614e7657614e76615b42565b906000526020600020015460085410614ec35760078181548110614e9c57614e9c615b42565b906000526020600020015460086000828254614eb89190615cd0565b90915550614ec99050565b60006008555b600654600090614edb90600190615cd0565b9050600060068281548110614ef257614ef2615b42565b600091825260209091200154600680546001600160a01b039092169250829185908110614f2157614f21615b42565b9060005260206000200160006101000a8154816001600160a01b0302191690836001600160a01b0316021790555060078281548110614f6257614f62615b42565b906000526020600020015460078481548110614f8057614f80615b42565b60009182526020808320909101929092556001600160a01b038084168252601290925260408082208690559186168152908120556006805480614fc557614fc5615f09565b600082815260209020810160001990810180546001600160a01b03191690550190556007805480614ff857614ff8615f09565b6001900381819060005260206000200160009055905550505050565b6060816000018054806020026020016040519081016040528092919081815260200182805480156122c457602002820191906000526020600020905b8154815260200190600101908083116150505750505050509050919050565b61164b600282614ce3565b61164b600482614279565b601d5460405163a0d16cad60e01b81526001600160a01b0384811660048301529091169063a0d16cad90602401602060405180830381865afa1580156150cf573d6000803e3d6000fd5b505050506040513d601f19601f820116820180604052508101906150f39190615ce3565b15806150ff5750601554155b1561510957505050565b6001600160a01b0380841660009081526023602090815260408083209385168352929052205460155481101561519b576001600160a01b0380851660008181526013602090815260408083209487168084529482528083205484845260228352818420868552835281842060158054865290845282852091909155549383526023825280832094835293905291909120555b50505050565b6000818152600183016020526040812054801561528a5760006151c5600183615cd0565b85549091506000906151d990600190615cd0565b905080821461523e5760008660000182815481106151f9576151f9615b42565b906000526020600020015490508087600001848154811061521c5761521c615b42565b6000918252602080832090910192909255918252600188019052604090208390555b855486908061524f5761524f615f09565b6001900381819060005260206000200160009055905585600101600086815260200190815260200160002060009055600193505050506122f4565b60009150506122f4565b6001600160a01b0382166000908152600a602052604090206133139082614ce3565b6001600160a01b0382166000908152600a602052604090206133139082614279565b6001600160a01b038116600090815260126020526040812054600654811080156153315750826001600160a01b03166006828154811061531a5761531a615b42565b6000918252602090912001546001600160a01b0316145b1561533f5760019150915091565b506000928392509050565b6000818152600183016020526040812054615391575081546001818101845560008481526020808220909301849055845484825282860190935260409020919091556122f4565b5060006122f4565b8280548282559060005260206000209081019282156153d4579160200282015b828111156153d45782518255916020019190600101906153b9565b506153e09291506153fe565b5090565b5080546000825590600052602060002090810190611d4691905b5b808211156153e057600081556001016153ff565b6001600160a01b0381168114611d4657600080fd5b60008083601f84011261543a57600080fd5b50813567ffffffffffffffff81111561545257600080fd5b6020830191508360208260051b850101111561546d57600080fd5b9250929050565b6000806000806000806080878903121561548d57600080fd5b863561549881615413565b9550602087013567ffffffffffffffff808211156154b557600080fd5b90880190610120828b0312156154ca57600080fd5b909550604088013590808211156154e057600080fd5b6154ec8a838b01615428565b9096509450606089013591508082111561550557600080fd5b5061551289828a01615428565b979a9699509497509295939492505050565b6000806040838503121561553757600080fd5b82359150602083013561554981615413565b809150509250929050565b60006020828403121561556657600080fd5b8135613b9481615413565b60006020828403121561558357600080fd5b5035919050565b60008060006060848603121561559f57600080fd5b83356155aa81615413565b925060208401356155ba81615413565b929592945050506040919091013590565b600080604083850312156155de57600080fd5b82356155e981615413565b946020939093013593505050565b80356001600160e01b03198116811461560f57600080fd5b919050565b6000806000806060858703121561562a57600080fd5b615633856155f7565b9350615641602086016155f7565b9250604085013567ffffffffffffffff81111561565d57600080fd5b61566987828801615428565b95989497509550505050565b60005b83811015615690578181015183820152602001615678565b50506000910152565b600081518084526156b1816020860160208601615675565b601f01601f19169290920160200192915050565b602081526000613b946020830184615699565b6020808252825182820181905260009190848201906040850190845b818110156157195783516001600160a01b0316835292840192918401916001016156f4565b50909695505050505050565b6000806040838503121561573857600080fd5b823561574381615413565b9150602083013561554981615413565b80356fffffffffffffffffffffffffffffffff198116811461560f57600080fd5b80356001600160f01b03198116811461560f57600080fd5b6000806000606084860312156157a157600080fd5b83356157ac81615413565b92506157ba60208501615753565b91506157c860408501615774565b90509250925092565b6000602082840312156157e357600080fd5b613b94826155f7565b60008083601f8401126157fe57600080fd5b50813567ffffffffffffffff81111561581657600080fd5b60208301915083602082850101111561546d57600080fd5b6000806000806060858703121561584457600080fd5b843567ffffffffffffffff81111561585b57600080fd5b615867878288016157ec565b909550935061587a905060208601615753565b915061588860408601615774565b905092959194509250565b60008060008060008060a087890312156158ac57600080fd5b86356158b781615413565b955060208701356158c781615413565b945060408701359350606087013567ffffffffffffffff8111156158ea57600080fd5b6158f689828a016157ec565b9094509250615909905060808801615753565b90509295509295509295565b60008151808452602080850194506020840160005b838110156159465781518752958201959082019060010161592a565b509495945050505050565b6040815260006159646040830185615915565b90508260208301529392505050565b6060815260006159866060830186615699565b6fffffffffffffffffffffffffffffffff19949094166020830152506001600160f01b031991909116604090910152919050565b634e487b7160e01b600052604160045260246000fd5b6000602082840312156159e257600080fd5b813567ffffffffffffffff808211156159fa57600080fd5b818401915084601f830112615a0e57600080fd5b813581811115615a2057615a206159ba565b604051601f8201601f19908116603f01168101908382118183101715615a4857615a486159ba565b81604052828152876020848701011115615a6157600080fd5b826020860160208301376000928101602001929092525095945050505050565b602080825282516001600160e01b031916828201528201516040808301526000906129486060840182615915565b60008060408385031215615ac257600080fd5b6155e9836155f7565b6000808335601e19843603018112615ae257600080fd5b83018035915067ffffffffffffffff821115615afd57600080fd5b6020019150600581901b360382131561546d57600080fd5b634e487b7160e01b600052601160045260246000fd5b80820281158282048414176122f4576122f4615b15565b634e487b7160e01b600052603260045260246000fd5b808201808211156122f4576122f4615b15565b600181811c90821680615b7f57607f821691505b602082108103615b9f57634e487b7160e01b600052602260045260246000fd5b50919050565b601f821115613313576000816000526020600020601f850160051c81016020861015615bce5750805b601f850160051c820191505b81811015615bed57828155600101615bda565b505050505050565b815167ffffffffffffffff811115615c0f57615c0f6159ba565b615c2381615c1d8454615b6b565b84615ba5565b602080601f831160018114615c585760008415615c405750858301515b600019600386901b1c1916600185901b178555615bed565b600085815260208120601f198616915b82811015615c8757888601518255948401946001909101908401615c68565b5085821015615ca55787850151600019600388901b60f8161c191681555b5050505050600190811b01905550565b600060208284031215615cc757600080fd5b613b9482615753565b818103818111156122f4576122f4615b15565b600060208284031215615cf557600080fd5b81518015158114613b9457600080fd5b600082615d2257634e487b7160e01b600052601260045260246000fd5b500490565b600060208284031215615d3957600080fd5b8151613b9481615413565b6001600160e01b0319858116825284166020820152606060408201819052810182905260007f07ffffffffffffffffffffffffffffffffffffffffffffffffffffffffffffff831115615d9657600080fd5b8260051b808560808501379190910160800195945050505050565b67ffffffffffffffff831115615dc957615dc96159ba565b615ddd83615dd78354615b6b565b83615ba5565b6000601f841160018114615e115760008515615df95750838201355b600019600387901b1c1916600186901b178355615e6b565b600083815260209020601f19861690835b82811015615e425786850135825560209485019460019092019101615e22565b5086821015615e5f5760001960f88860031b161c19848701351681555b505060018560011b0183555b5050505050565b6000600160ff1b8201615e8757615e87615b15565b5060000390565b600060018201615ea057615ea0615b15565b5060010190565b6001600160e01b0319848116825283166020820152606060408201819052600090614a3290830184615915565b600060208284031215615ee657600080fd5b5051919050565b60008251615eff818460208701615675565b9190910192915050565b634e487b7160e01b600052603160045260246000fdfea2646970667358221220db369cc54d4fee4d51e2172d735c44c68235fa54f1bf99fdc74e3dff1c6fea9e64736f6c63430008190033",
  "linkReferences": {},
  "deployedLinkReferences": {}
}