{
  "_format": "hh-sol-artifact-1",
  "contractName": "StakingHbbftBase",
  "sourceName": "contracts/base/StakingHbbftBase.sol",
  "abi": [
    {
      "inputs": [],
      "stateMutability": "nonpayable",
      "type": "constructor"
    },
    {
      "anonymous": false,
      "inputs": [
        {
          "indexed": true,
          "internalType": "address",
          "name": "fromPoolStakingAddress",
          "type": "address"
        },
        {
          "indexed": true,
          "internalType": "address",
          "name": "staker",
          "type": "address"
        },
        {
          "indexed": true,
          "internalType": "uint256",
          "name": "stakingEpoch",
          "type": "uint256"
        },
        {
          "indexed": false,
          "internalType": "uint256",
          "name": "amount",
          "type": "uint256"
        }
      ],
      "name": "ClaimedOrderedWithdrawal",
      "type": "event"
    },
    {
      "anonymous": false,
      "inputs": [
        {
          "indexed": true,
          "internalType": "address",
          "name": "caller",
          "type": "address"
        },
        {
          "indexed": true,
          "internalType": "address",
          "name": "stakingAddress",
          "type": "address"
        },
        {
          "indexed": false,
          "internalType": "uint256",
          "name": "gatheredFunds",
          "type": "uint256"
        }
      ],
      "name": "GatherAbandonedStakes",
      "type": "event"
    },
    {
      "anonymous": false,
      "inputs": [
        {
          "indexed": false,
          "internalType": "uint8",
          "name": "version",
          "type": "uint8"
        }
      ],
      "name": "Initialized",
      "type": "event"
    },
    {
      "anonymous": false,
      "inputs": [
        {
          "indexed": false,
          "internalType": "address",
          "name": "fromPoolStakingAddress",
          "type": "address"
        },
        {
          "indexed": true,
          "internalType": "address",
          "name": "toPoolStakingAddress",
          "type": "address"
        },
        {
          "indexed": true,
          "internalType": "address",
          "name": "staker",
          "type": "address"
        },
        {
          "indexed": true,
          "internalType": "uint256",
          "name": "stakingEpoch",
          "type": "uint256"
        },
        {
          "indexed": false,
          "internalType": "uint256",
          "name": "amount",
          "type": "uint256"
        }
      ],
      "name": "MovedStake",
      "type": "event"
    },
    {
      "anonymous": false,
      "inputs": [
        {
          "indexed": true,
          "internalType": "address",
          "name": "fromPoolStakingAddress",
          "type": "address"
        },
        {
          "indexed": true,
          "internalType": "address",
          "name": "staker",
          "type": "address"
        },
        {
          "indexed": true,
          "internalType": "uint256",
          "name": "stakingEpoch",
          "type": "uint256"
        },
        {
          "indexed": false,
          "internalType": "int256",
          "name": "amount",
          "type": "int256"
        }
      ],
      "name": "OrderedWithdrawal",
      "type": "event"
    },
    {
      "anonymous": false,
      "inputs": [
        {
          "indexed": true,
          "internalType": "address",
          "name": "previousOwner",
          "type": "address"
        },
        {
          "indexed": true,
          "internalType": "address",
          "name": "newOwner",
          "type": "address"
        }
      ],
      "name": "OwnershipTransferred",
      "type": "event"
    },
    {
      "anonymous": false,
      "inputs": [
        {
          "indexed": true,
          "internalType": "address",
          "name": "toPoolStakingAddress",
          "type": "address"
        },
        {
          "indexed": true,
          "internalType": "address",
          "name": "staker",
          "type": "address"
        },
        {
          "indexed": true,
          "internalType": "uint256",
          "name": "stakingEpoch",
          "type": "uint256"
        },
        {
          "indexed": false,
          "internalType": "uint256",
          "name": "amount",
          "type": "uint256"
        }
      ],
      "name": "PlacedStake",
      "type": "event"
    },
    {
      "anonymous": false,
      "inputs": [
        {
          "indexed": true,
          "internalType": "address",
          "name": "caller",
          "type": "address"
        },
        {
          "indexed": false,
          "internalType": "uint256",
          "name": "reinsertShare",
          "type": "uint256"
        },
        {
          "indexed": false,
          "internalType": "uint256",
          "name": "governanceShare",
          "type": "uint256"
        }
      ],
      "name": "RecoverAbandonedStakes",
      "type": "event"
    },
    {
      "anonymous": false,
      "inputs": [
        {
          "indexed": true,
          "internalType": "address",
          "name": "fromPoolStakingAddress",
          "type": "address"
        },
        {
          "indexed": true,
          "internalType": "address",
          "name": "staker",
          "type": "address"
        },
        {
          "indexed": true,
          "internalType": "uint256",
          "name": "stakingEpoch",
          "type": "uint256"
        },
        {
          "indexed": false,
          "internalType": "uint256",
          "name": "amount",
          "type": "uint256"
        }
      ],
      "name": "WithdrewStake",
      "type": "event"
    },
    {
      "inputs": [],
      "name": "MAX_CANDIDATES",
      "outputs": [
        {
          "internalType": "uint256",
          "name": "",
          "type": "uint256"
        }
      ],
      "stateMutability": "view",
      "type": "function"
    },
    {
      "inputs": [
        {
          "internalType": "address",
          "name": "",
          "type": "address"
        }
      ],
      "name": "abandonedAndRemoved",
      "outputs": [
        {
          "internalType": "bool",
          "name": "",
          "type": "bool"
        }
      ],
      "stateMutability": "view",
      "type": "function"
    },
    {
      "inputs": [
        {
          "internalType": "address",
          "name": "_miningAddress",
          "type": "address"
        },
        {
          "internalType": "bytes",
          "name": "_publicKey",
          "type": "bytes"
        },
        {
          "internalType": "bytes16",
          "name": "_ip",
          "type": "bytes16"
        }
      ],
      "name": "addPool",
      "outputs": [],
      "stateMutability": "payable",
      "type": "function"
    },
    {
      "inputs": [],
      "name": "areStakeAndWithdrawAllowed",
      "outputs": [
        {
          "internalType": "bool",
          "name": "",
          "type": "bool"
        }
      ],
      "stateMutability": "view",
      "type": "function"
    },
    {
      "inputs": [],
      "name": "candidateMinStake",
      "outputs": [
        {
          "internalType": "uint256",
          "name": "",
          "type": "uint256"
        }
      ],
      "stateMutability": "view",
      "type": "function"
    },
    {
      "inputs": [
        {
          "internalType": "address",
          "name": "_poolStakingAddress",
          "type": "address"
        }
      ],
      "name": "claimOrderedWithdraw",
      "outputs": [],
      "stateMutability": "nonpayable",
      "type": "function"
    },
    {
      "inputs": [],
      "name": "currentKeyGenExtraTimeWindow",
      "outputs": [
        {
          "internalType": "uint256",
          "name": "",
          "type": "uint256"
        }
      ],
      "stateMutability": "view",
      "type": "function"
    },
    {
      "inputs": [],
      "name": "delegatorMinStake",
      "outputs": [
        {
          "internalType": "uint256",
          "name": "",
          "type": "uint256"
        }
      ],
      "stateMutability": "view",
      "type": "function"
    },
    {
      "inputs": [
        {
          "internalType": "address",
          "name": "",
          "type": "address"
        },
        {
          "internalType": "address",
          "name": "",
          "type": "address"
        },
        {
          "internalType": "uint256",
          "name": "",
          "type": "uint256"
        }
      ],
      "name": "delegatorStakeSnapshot",
      "outputs": [
        {
          "internalType": "uint256",
          "name": "",
          "type": "uint256"
        }
      ],
      "stateMutability": "view",
      "type": "function"
    },
    {
      "inputs": [
        {
          "internalType": "address",
          "name": "_poolAddress",
          "type": "address"
        }
      ],
      "name": "getPoolInternetAddress",
      "outputs": [
        {
          "internalType": "bytes16",
          "name": "",
          "type": "bytes16"
        },
        {
          "internalType": "bytes2",
          "name": "",
          "type": "bytes2"
        }
      ],
      "stateMutability": "view",
      "type": "function"
    },
    {
      "inputs": [
        {
          "internalType": "address",
          "name": "_poolAddress",
          "type": "address"
        }
      ],
      "name": "getPoolPublicKey",
      "outputs": [
        {
          "internalType": "bytes",
          "name": "",
          "type": "bytes"
        }
      ],
      "stateMutability": "view",
      "type": "function"
    },
    {
      "inputs": [],
      "name": "getPools",
      "outputs": [
        {
          "internalType": "address[]",
          "name": "",
          "type": "address[]"
        }
      ],
      "stateMutability": "view",
      "type": "function"
    },
    {
      "inputs": [],
      "name": "getPoolsInactive",
      "outputs": [
        {
          "internalType": "address[]",
          "name": "",
          "type": "address[]"
        }
      ],
      "stateMutability": "view",
      "type": "function"
    },
    {
      "inputs": [],
      "name": "getPoolsLikelihood",
      "outputs": [
        {
          "internalType": "uint256[]",
          "name": "likelihoods",
          "type": "uint256[]"
        },
        {
          "internalType": "uint256",
          "name": "sum",
          "type": "uint256"
        }
      ],
      "stateMutability": "view",
      "type": "function"
    },
    {
      "inputs": [],
      "name": "getPoolsToBeElected",
      "outputs": [
        {
          "internalType": "address[]",
          "name": "",
          "type": "address[]"
        }
      ],
      "stateMutability": "view",
      "type": "function"
    },
    {
      "inputs": [],
      "name": "getPoolsToBeRemoved",
      "outputs": [
        {
          "internalType": "address[]",
          "name": "",
          "type": "address[]"
        }
      ],
      "stateMutability": "view",
      "type": "function"
    },
    {
      "inputs": [],
      "name": "incrementStakingEpoch",
      "outputs": [],
      "stateMutability": "nonpayable",
      "type": "function"
    },
    {
      "inputs": [
        {
          "internalType": "address",
          "name": "_contractOwner",
          "type": "address"
        },
        {
          "components": [
            {
              "internalType": "address",
              "name": "_validatorSetContract",
              "type": "address"
            },
            {
              "internalType": "address[]",
              "name": "_initialStakingAddresses",
              "type": "address[]"
            },
            {
              "internalType": "uint256",
              "name": "_delegatorMinStake",
              "type": "uint256"
            },
            {
              "internalType": "uint256",
              "name": "_candidateMinStake",
              "type": "uint256"
            },
            {
              "internalType": "uint256",
              "name": "_maxStake",
              "type": "uint256"
            },
            {
              "internalType": "uint256",
              "name": "_stakingFixedEpochDuration",
              "type": "uint256"
            },
            {
              "internalType": "uint256",
              "name": "_stakingTransitionTimeframeLength",
              "type": "uint256"
            },
            {
              "internalType": "uint256",
              "name": "_stakingWithdrawDisallowPeriod",
              "type": "uint256"
            }
          ],
          "internalType": "struct IStakingHbbft.StakingParams",
          "name": "stakingParams",
          "type": "tuple"
        },
        {
          "internalType": "bytes32[]",
          "name": "_publicKeys",
          "type": "bytes32[]"
        },
        {
          "internalType": "bytes16[]",
          "name": "_internetAddresses",
          "type": "bytes16[]"
        }
      ],
      "name": "initialize",
      "outputs": [],
      "stateMutability": "nonpayable",
      "type": "function"
    },
    {
      "inputs": [
        {
          "internalType": "address",
          "name": "_stakingAddress",
          "type": "address"
        }
      ],
      "name": "isPoolActive",
      "outputs": [
        {
          "internalType": "bool",
          "name": "",
          "type": "bool"
        }
      ],
      "stateMutability": "view",
      "type": "function"
    },
    {
      "inputs": [],
      "name": "maxStakeAmount",
      "outputs": [
        {
          "internalType": "uint256",
          "name": "",
          "type": "uint256"
        }
      ],
      "stateMutability": "view",
      "type": "function"
    },
    {
      "inputs": [
        {
          "internalType": "address",
          "name": "_poolStakingAddress",
          "type": "address"
        },
        {
          "internalType": "address",
          "name": "_staker",
          "type": "address"
        }
      ],
      "name": "maxWithdrawAllowed",
      "outputs": [
        {
          "internalType": "uint256",
          "name": "",
          "type": "uint256"
        }
      ],
      "stateMutability": "view",
      "type": "function"
    },
    {
      "inputs": [
        {
          "internalType": "address",
          "name": "_poolStakingAddress",
          "type": "address"
        },
        {
          "internalType": "address",
          "name": "_staker",
          "type": "address"
        }
      ],
      "name": "maxWithdrawOrderAllowed",
      "outputs": [
        {
          "internalType": "uint256",
          "name": "",
          "type": "uint256"
        }
      ],
      "stateMutability": "view",
      "type": "function"
    },
    {
      "inputs": [
        {
          "internalType": "address",
          "name": "_fromPoolStakingAddress",
          "type": "address"
        },
        {
          "internalType": "address",
          "name": "_toPoolStakingAddress",
          "type": "address"
        },
        {
          "internalType": "uint256",
          "name": "_amount",
          "type": "uint256"
        }
      ],
      "name": "moveStake",
      "outputs": [],
      "stateMutability": "nonpayable",
      "type": "function"
    },
    {
      "inputs": [
        {
          "internalType": "address",
          "name": "_stakingAddress",
          "type": "address"
        }
      ],
      "name": "notifyAvailability",
      "outputs": [],
      "stateMutability": "nonpayable",
      "type": "function"
    },
    {
      "inputs": [],
      "name": "notifyKeyGenFailed",
      "outputs": [],
      "stateMutability": "nonpayable",
      "type": "function"
    },
    {
      "inputs": [
        {
          "internalType": "uint256",
          "name": "detectedOfflineTime",
          "type": "uint256"
        }
      ],
      "name": "notifyNetworkOfftimeDetected",
      "outputs": [],
      "stateMutability": "nonpayable",
      "type": "function"
    },
    {
      "inputs": [
        {
          "internalType": "address",
          "name": "_poolStakingAddress",
          "type": "address"
        },
        {
          "internalType": "int256",
          "name": "_amount",
          "type": "int256"
        }
      ],
      "name": "orderWithdraw",
      "outputs": [],
      "stateMutability": "nonpayable",
      "type": "function"
    },
    {
      "inputs": [
        {
          "internalType": "address",
          "name": "",
          "type": "address"
        },
        {
          "internalType": "address",
          "name": "",
          "type": "address"
        }
      ],
      "name": "orderWithdrawEpoch",
      "outputs": [
        {
          "internalType": "uint256",
          "name": "",
          "type": "uint256"
        }
      ],
      "stateMutability": "view",
      "type": "function"
    },
    {
      "inputs": [
        {
          "internalType": "address",
          "name": "",
          "type": "address"
        },
        {
          "internalType": "address",
          "name": "",
          "type": "address"
        }
      ],
      "name": "orderedWithdrawAmount",
      "outputs": [
        {
          "internalType": "uint256",
          "name": "",
          "type": "uint256"
        }
      ],
      "stateMutability": "view",
      "type": "function"
    },
    {
      "inputs": [
        {
          "internalType": "address",
          "name": "",
          "type": "address"
        }
      ],
      "name": "orderedWithdrawAmountTotal",
      "outputs": [
        {
          "internalType": "uint256",
          "name": "",
          "type": "uint256"
        }
      ],
      "stateMutability": "view",
      "type": "function"
    },
    {
      "inputs": [],
      "name": "owner",
      "outputs": [
        {
          "internalType": "address",
          "name": "",
          "type": "address"
        }
      ],
      "stateMutability": "view",
      "type": "function"
    },
    {
      "inputs": [
        {
          "internalType": "address",
          "name": "",
          "type": "address"
        },
        {
          "internalType": "address",
          "name": "",
          "type": "address"
        }
      ],
      "name": "poolDelegatorInactiveIndex",
      "outputs": [
        {
          "internalType": "uint256",
          "name": "",
          "type": "uint256"
        }
      ],
      "stateMutability": "view",
      "type": "function"
    },
    {
      "inputs": [
        {
          "internalType": "address",
          "name": "",
          "type": "address"
        },
        {
          "internalType": "address",
          "name": "",
          "type": "address"
        }
      ],
      "name": "poolDelegatorIndex",
      "outputs": [
        {
          "internalType": "uint256",
          "name": "",
          "type": "uint256"
        }
      ],
      "stateMutability": "view",
      "type": "function"
    },
    {
      "inputs": [
        {
          "internalType": "address",
          "name": "_poolStakingAddress",
          "type": "address"
        }
      ],
      "name": "poolDelegators",
      "outputs": [
        {
          "internalType": "address[]",
          "name": "",
          "type": "address[]"
        }
      ],
      "stateMutability": "view",
      "type": "function"
    },
    {
      "inputs": [
        {
          "internalType": "address",
          "name": "_poolStakingAddress",
          "type": "address"
        }
      ],
      "name": "poolDelegatorsInactive",
      "outputs": [
        {
          "internalType": "address[]",
          "name": "",
          "type": "address[]"
        }
      ],
      "stateMutability": "view",
      "type": "function"
    },
    {
      "inputs": [
        {
          "internalType": "address",
          "name": "",
          "type": "address"
        }
      ],
      "name": "poolInactiveIndex",
      "outputs": [
        {
          "internalType": "uint256",
          "name": "",
          "type": "uint256"
        }
      ],
      "stateMutability": "view",
      "type": "function"
    },
    {
      "inputs": [
        {
          "internalType": "address",
          "name": "",
          "type": "address"
        }
      ],
      "name": "poolIndex",
      "outputs": [
        {
          "internalType": "uint256",
          "name": "",
          "type": "uint256"
        }
      ],
      "stateMutability": "view",
      "type": "function"
    },
    {
      "inputs": [
        {
          "internalType": "address",
          "name": "",
          "type": "address"
        }
      ],
      "name": "poolInfo",
      "outputs": [
        {
          "internalType": "bytes",
          "name": "publicKey",
          "type": "bytes"
        },
        {
          "internalType": "bytes16",
          "name": "internetAddress",
          "type": "bytes16"
        },
        {
          "internalType": "bytes2",
          "name": "port",
          "type": "bytes2"
        }
      ],
      "stateMutability": "view",
      "type": "function"
    },
    {
      "inputs": [
        {
          "internalType": "address",
          "name": "",
          "type": "address"
        }
      ],
      "name": "poolToBeElectedIndex",
      "outputs": [
        {
          "internalType": "uint256",
          "name": "",
          "type": "uint256"
        }
      ],
      "stateMutability": "view",
      "type": "function"
    },
    {
      "inputs": [
        {
          "internalType": "address",
          "name": "",
          "type": "address"
        }
      ],
      "name": "poolToBeRemovedIndex",
      "outputs": [
        {
          "internalType": "uint256",
          "name": "",
          "type": "uint256"
        }
      ],
      "stateMutability": "view",
      "type": "function"
    },
    {
      "inputs": [],
      "name": "recoverAbandonedStakes",
      "outputs": [],
      "stateMutability": "nonpayable",
      "type": "function"
    },
    {
      "inputs": [],
      "name": "removeMyPool",
      "outputs": [],
      "stateMutability": "nonpayable",
      "type": "function"
    },
    {
      "inputs": [
        {
          "internalType": "address",
          "name": "_stakingAddress",
          "type": "address"
        }
      ],
      "name": "removePool",
      "outputs": [],
      "stateMutability": "nonpayable",
      "type": "function"
    },
    {
      "inputs": [],
      "name": "removePools",
      "outputs": [],
      "stateMutability": "nonpayable",
      "type": "function"
    },
    {
      "inputs": [],
      "name": "renounceOwnership",
      "outputs": [],
      "stateMutability": "nonpayable",
      "type": "function"
    },
    {
      "inputs": [
        {
          "internalType": "address",
          "name": "",
          "type": "address"
        },
        {
          "internalType": "address",
          "name": "",
          "type": "address"
        },
        {
          "internalType": "uint256",
          "name": "",
          "type": "uint256"
        }
      ],
      "name": "rewardWasTaken",
      "outputs": [
        {
          "internalType": "bool",
          "name": "",
          "type": "bool"
        }
      ],
      "stateMutability": "view",
      "type": "function"
    },
    {
      "inputs": [
        {
          "internalType": "uint256",
          "name": "_minStake",
          "type": "uint256"
        }
      ],
      "name": "setCandidateMinStake",
      "outputs": [],
      "stateMutability": "nonpayable",
      "type": "function"
    },
    {
      "inputs": [
        {
          "internalType": "uint256",
          "name": "_minStake",
          "type": "uint256"
        }
      ],
      "name": "setDelegatorMinStake",
      "outputs": [],
      "stateMutability": "nonpayable",
      "type": "function"
    },
    {
      "inputs": [
        {
          "internalType": "bytes",
          "name": "_publicKey",
          "type": "bytes"
        },
        {
          "internalType": "bytes16",
          "name": "_ip",
          "type": "bytes16"
        },
        {
          "internalType": "bytes2",
          "name": "_port",
          "type": "bytes2"
        }
      ],
      "name": "setPoolInfo",
      "outputs": [],
      "stateMutability": "nonpayable",
      "type": "function"
    },
    {
      "inputs": [
        {
          "internalType": "uint256",
          "name": "_timestamp",
          "type": "uint256"
        }
      ],
      "name": "setStakingEpochStartTime",
      "outputs": [],
      "stateMutability": "nonpayable",
      "type": "function"
    },
    {
      "inputs": [
        {
          "internalType": "uint256",
          "name": "_value",
          "type": "uint256"
        }
      ],
      "name": "setStakingFixedEpochDuration",
      "outputs": [],
      "stateMutability": "nonpayable",
      "type": "function"
    },
    {
      "inputs": [
        {
          "internalType": "uint256",
          "name": "_value",
          "type": "uint256"
        }
      ],
      "name": "setStakingTransitionTimeframeLength",
      "outputs": [],
      "stateMutability": "nonpayable",
      "type": "function"
    },
    {
      "inputs": [
        {
          "internalType": "address",
          "name": "_validatorAddress",
          "type": "address"
        },
        {
          "internalType": "bytes16",
          "name": "_ip",
          "type": "bytes16"
        },
        {
          "internalType": "bytes2",
          "name": "_port",
          "type": "bytes2"
        }
      ],
      "name": "setValidatorInternetAddress",
      "outputs": [],
      "stateMutability": "nonpayable",
      "type": "function"
    },
    {
      "inputs": [
        {
          "internalType": "address",
          "name": "_toPoolStakingAddress",
          "type": "address"
        }
      ],
      "name": "stake",
      "outputs": [],
      "stateMutability": "payable",
      "type": "function"
    },
    {
      "inputs": [
        {
          "internalType": "address",
          "name": "",
          "type": "address"
        },
        {
          "internalType": "address",
          "name": "",
          "type": "address"
        }
      ],
      "name": "stakeAmount",
      "outputs": [
        {
          "internalType": "uint256",
          "name": "",
          "type": "uint256"
        }
      ],
      "stateMutability": "view",
      "type": "function"
    },
    {
      "inputs": [
        {
          "internalType": "address",
          "name": "_poolStakingAddress",
          "type": "address"
        },
        {
          "internalType": "address",
          "name": "_staker",
          "type": "address"
        }
      ],
      "name": "stakeAmountByCurrentEpoch",
      "outputs": [
        {
          "internalType": "uint256",
          "name": "",
          "type": "uint256"
        }
      ],
      "stateMutability": "view",
      "type": "function"
    },
    {
      "inputs": [
        {
          "internalType": "address",
          "name": "",
          "type": "address"
        }
      ],
      "name": "stakeAmountTotal",
      "outputs": [
        {
          "internalType": "uint256",
          "name": "",
          "type": "uint256"
        }
      ],
      "stateMutability": "view",
      "type": "function"
    },
    {
      "inputs": [
        {
          "internalType": "address",
          "name": "",
          "type": "address"
        },
        {
          "internalType": "address",
          "name": "",
          "type": "address"
        }
      ],
      "name": "stakeFirstEpoch",
      "outputs": [
        {
          "internalType": "uint256",
          "name": "",
          "type": "uint256"
        }
      ],
      "stateMutability": "view",
      "type": "function"
    },
    {
      "inputs": [
        {
          "internalType": "address",
          "name": "",
          "type": "address"
        },
        {
          "internalType": "address",
          "name": "",
          "type": "address"
        }
      ],
      "name": "stakeLastEpoch",
      "outputs": [
        {
          "internalType": "uint256",
          "name": "",
          "type": "uint256"
        }
      ],
      "stateMutability": "view",
      "type": "function"
    },
    {
      "inputs": [],
      "name": "stakingEpoch",
      "outputs": [
        {
          "internalType": "uint256",
          "name": "",
          "type": "uint256"
        }
      ],
      "stateMutability": "view",
      "type": "function"
    },
    {
      "inputs": [],
      "name": "stakingEpochStartBlock",
      "outputs": [
        {
          "internalType": "uint256",
          "name": "",
          "type": "uint256"
        }
      ],
      "stateMutability": "view",
      "type": "function"
    },
    {
      "inputs": [],
      "name": "stakingEpochStartTime",
      "outputs": [
        {
          "internalType": "uint256",
          "name": "",
          "type": "uint256"
        }
      ],
      "stateMutability": "view",
      "type": "function"
    },
    {
      "inputs": [],
      "name": "stakingFixedEpochDuration",
      "outputs": [
        {
          "internalType": "uint256",
          "name": "",
          "type": "uint256"
        }
      ],
      "stateMutability": "view",
      "type": "function"
    },
    {
      "inputs": [],
      "name": "stakingFixedEpochEndTime",
      "outputs": [
        {
          "internalType": "uint256",
          "name": "",
          "type": "uint256"
        }
      ],
      "stateMutability": "view",
      "type": "function"
    },
    {
      "inputs": [],
      "name": "stakingTransitionTimeframeLength",
      "outputs": [
        {
          "internalType": "uint256",
          "name": "",
          "type": "uint256"
        }
      ],
      "stateMutability": "view",
      "type": "function"
    },
    {
      "inputs": [],
      "name": "stakingWithdrawDisallowPeriod",
      "outputs": [
        {
          "internalType": "uint256",
          "name": "",
          "type": "uint256"
        }
      ],
      "stateMutability": "view",
      "type": "function"
    },
    {
      "inputs": [],
      "name": "startTimeOfNextPhaseTransition",
      "outputs": [
        {
          "internalType": "uint256",
          "name": "",
          "type": "uint256"
        }
      ],
      "stateMutability": "view",
      "type": "function"
    },
    {
      "inputs": [
        {
          "internalType": "address",
          "name": "newOwner",
          "type": "address"
        }
      ],
      "name": "transferOwnership",
      "outputs": [],
      "stateMutability": "nonpayable",
      "type": "function"
    },
    {
      "inputs": [],
      "name": "validatorSetContract",
      "outputs": [
        {
          "internalType": "contract IValidatorSetHbbft",
          "name": "",
          "type": "address"
        }
      ],
      "stateMutability": "view",
      "type": "function"
    },
    {
      "inputs": [
        {
          "internalType": "address",
          "name": "_fromPoolStakingAddress",
          "type": "address"
        },
        {
          "internalType": "uint256",
          "name": "_amount",
          "type": "uint256"
        }
      ],
      "name": "withdraw",
      "outputs": [],
      "stateMutability": "nonpayable",
      "type": "function"
    },
    {
      "stateMutability": "payable",
      "type": "receive"
    }
  ],
  "bytecode": "0x60806040523480156200001157600080fd5b506200001c62000022565b620000e3565b600054610100900460ff16156200008f5760405162461bcd60e51b815260206004820152602760248201527f496e697469616c697a61626c653a20636f6e747261637420697320696e697469604482015266616c697a696e6760c81b606482015260840160405180910390fd5b60005460ff90811614620000e1576000805460ff191660ff9081179091556040519081527f7f26b83ff96e1f2b6a682f133852f6798a09c465da95921460cefb38474024989060200160405180910390a15b565b61602580620000f36000396000f3fe6080604052600436106104685760003560e01c80638da5cb5b11610243578063bc9eb2c311610143578063e9ab0300116100bb578063f07860961161008a578063f3fef3a31161006f578063f3fef3a314610e3a578063f494250114610e5a578063fa4aaf4714610e6e57600080fd5b8063f078609614610e04578063f2fde38b14610e1a57600080fd5b8063e9ab030014610d75578063edd7db7514610dad578063edf94b8214610dc2578063ee435f5514610def57600080fd5b8063d290c21d11610112578063dadee88a116100f7578063dadee88a14610d13578063df6f55f514610d40578063dfc8bf4e14610d5557600080fd5b8063d290c21d14610ce8578063da7a9b6a14610cfd57600080fd5b8063bc9eb2c314610c5b578063c6912cc014610c93578063c7fe832614610ca8578063cfef144114610cc857600080fd5b8063a4205967116101d6578063adddc0cf116101a5578063b0bd5e9e1161018a578063b0bd5e9e14610bee578063b42754a514610c0e578063b61ed63a14610c3b57600080fd5b8063adddc0cf14610bc3578063ae1aaf8014610bd857600080fd5b8063a420596714610b1e578063a5d54f6514610b56578063a697ecff14610b6b578063a711e6a114610ba357600080fd5b80639a7b5f11116102125780639a7b5f1114610a995780639b03d74414610ac85780639e72c63514610ade5780639ea8082b14610afe57600080fd5b80638da5cb5b146109ec578063950a651314610a1e5780639518c48114610a3e578063957950a714610a7657600080fd5b80634f9a8d8f116103695780637069e746116102e1578063794c0c68116102b05780637b15b94c116102955780637b15b94c1461098c5780638247a239146109ac578063862be287146109cc57600080fd5b8063794c0c68146109565780637b0a0f9b1461096c57600080fd5b80637069e746146108bb578063715018a6146108d157806373c21803146108e6578063750dd2a11461090657600080fd5b80635d80ca3211610338578063651139181161031d578063651139181461084c578063673a2a1f146108795780636bda15771461089b57600080fd5b80635d80ca32146108205780635fef76431461083657600080fd5b80634f9a8d8f146107925780635267e1d6146107a85780635659b742146107d557806356e4d6c21461080d57600080fd5b806326476204116103fc57806337154263116103cb5780633b7d0946116103b05780633b7d09461461072557806348aaa4a2146107455780634e9b426d1461076557600080fd5b806337154263146106fa578063379b046a1461070f57600080fd5b806326476204146106465780632bafde8d1461065957806331727730146106795780633219d600146106ca57600080fd5b80631fb31e43116104385780631fb31e431461057557806322704bdd146105f157806322e3d98614610611578063251441a91461062657600080fd5b80622ceebc146104bf578063028b8bdb146105105780630868c0d6146105265780631555371c1461055e57600080fd5b366104ba5760405162461bcd60e51b815260206004820152600b60248201527f4e6f742070617961626c6500000000000000000000000000000000000000000060448201526064015b60405180910390fd5b600080fd5b3480156104cb57600080fd5b506104fd6104da3660046157e7565b607060209081526000938452604080852082529284528284209052825290205481565b6040519081526020015b60405180910390f35b34801561051c57600080fd5b506104fd607e5481565b34801561053257600080fd5b506104fd610541366004615828565b607460209081526000928352604080842090915290825290205481565b34801561056a57600080fd5b50610573610e9b565b005b34801561058157600080fd5b506105bf610590366004615861565b6001600160a01b0316600090815260876020526040902060010154608081901b91600160801b90910460f01b90565b604080516fffffffffffffffffffffffffffffffff1990931683526001600160f01b0319909116602083015201610507565b3480156105fd57600080fd5b5061057361060c36600461587e565b610f8c565b34801561061d57600080fd5b506104fd611088565b34801561063257600080fd5b506105736106413660046157e7565b6110cf565b610573610654366004615861565b611201565b34801561066557600080fd5b5061057361067436600461587e565b6112a3565b34801561068557600080fd5b506106ba6106943660046157e7565b607a60209081526000938452604080852082529284528284209052825290205460ff1681565b6040519015158152602001610507565b3480156106d657600080fd5b506106ba6106e5366004615861565b60896020526000908152604090205460ff1681565b34801561070657600080fd5b506105736112b0565b34801561071b57600080fd5b506104fd60845481565b34801561073157600080fd5b50610573610740366004615861565b61176c565b34801561075157600080fd5b5061057361076036600461587e565b6117c6565b34801561077157600080fd5b50610785610780366004615861565b6117d3565b60405161050791906158dd565b34801561079e57600080fd5b506104fd60805481565b3480156107b457600080fd5b506104fd6107c3366004615861565b60856020526000908152604090205481565b3480156107e157600080fd5b506104fd6107f0366004615828565b607c60209081526000928352604080842090915290825290205481565b61057361081b36600461595f565b61187f565b34801561082c57600080fd5b506104fd60885481565b34801561084257600080fd5b506104fd606e5481565b34801561085857600080fd5b506104fd610867366004615861565b60766020526000908152604090205481565b34801561088557600080fd5b5061088e6119d3565b60405161050791906159c6565b3480156108a757600080fd5b506104fd6108b6366004615828565b611a35565b3480156108c757600080fd5b506104fd60835481565b3480156108dd57600080fd5b50610573611bde565b3480156108f257600080fd5b5061088e610901366004615861565b611bf2565b34801561091257600080fd5b506104fd610921366004615828565b6001600160a01b039182166000908152606d60209081526040808320939094168252918252828120607f548252909152205490565b34801561096257600080fd5b506104fd607f5481565b34801561097857600080fd5b50610573610987366004615a2b565b611c67565b34801561099857600080fd5b506105736109a7366004615861565b611d08565b3480156109b857600080fd5b506105736109c736600461587e565b611d93565b3480156109d857600080fd5b506105736109e7366004615a70565b611dea565b3480156109f857600080fd5b506033546001600160a01b03165b6040516001600160a01b039091168152602001610507565b348015610a2a57600080fd5b506104fd610a39366004615828565b611e4d565b348015610a4a57600080fd5b506104fd610a59366004615828565b607560209081526000928352604080842090915290825290205481565b348015610a8257600080fd5b50610a8b611fc2565b604051610507929190615aca565b348015610aa557600080fd5b50610ab9610ab4366004615861565b612025565b60405161050793929190615b12565b348015610ad457600080fd5b506104fd60825481565b348015610aea57600080fd5b50610573610af936600461587e565b6120d9565b348015610b0a57600080fd5b5061088e610b19366004615861565b612148565b348015610b2a57600080fd5b506104fd610b39366004615828565b607360209081526000928352604080842090915290825290205481565b348015610b6257600080fd5b5061088e6121bc565b348015610b7757600080fd5b506104fd610b86366004615828565b607b60209081526000928352604080842090915290825290205481565b348015610baf57600080fd5b506106ba610bbe366004615861565b61221c565b348015610bcf57600080fd5b5061057361227c565b348015610be457600080fd5b506104fd60815481565b348015610bfa57600080fd5b50610573610c0936600461587e565b6122e5565b348015610c1a57600080fd5b506104fd610c29366004615861565b60776020526000908152604090205481565b348015610c4757600080fd5b50610573610c56366004615b59565b61238f565b348015610c6757600080fd5b506104fd610c76366004615828565b607d60209081526000928352604080842090915290825290205481565b348015610c9f57600080fd5b506104fd612917565b348015610cb457600080fd5b50610573610cc3366004615bca565b61293b565b348015610cd457600080fd5b50610573610ce3366004615861565b612dbe565b348015610cf457600080fd5b5061088e6130d7565b348015610d0957600080fd5b506104fd606f5481565b348015610d1f57600080fd5b506104fd610d2e366004615861565b60726020526000908152604090205481565b348015610d4c57600080fd5b5061088e613137565b348015610d6157600080fd5b50608654610a06906001600160a01b031681565b348015610d8157600080fd5b506104fd610d90366004615828565b607160209081526000928352604080842090915290825290205481565b348015610db957600080fd5b50610573613197565b348015610dce57600080fd5b506104fd610ddd366004615861565b60796020526000908152604090205481565b348015610dfb57600080fd5b50610573613340565b348015610e1057600080fd5b506104fd610bb881565b348015610e2657600080fd5b50610573610e35366004615861565b6133aa565b348015610e4657600080fd5b50610573610e55366004615b59565b613437565b348015610e6657600080fd5b5060016106ba565b348015610e7a57600080fd5b506104fd610e89366004615861565b60786020526000908152604090205481565b6086546001600160a01b03163314610ee95760405162461bcd60e51b815260206004820152601160248201527013db9b1e4815985b1a59185d1bdc94d95d607a1b60448201526064016104b1565b60006068805480602002602001604051908101604052809291908181526020018280548015610f4157602002820191906000526020600020905b81546001600160a01b03168152600190910190602001808311610f23575b5050505050905060005b8151811015610f8857610f76828281518110610f6957610f69615c7a565b60200260200101516134cb565b80610f8081615ca6565b915050610f4b565b5050565b610f9461362a565b600a811161100a5760405162461bcd60e51b815260206004820152602f60248201527f546865207472616e736974696f6e2074696d656672616d65206d75737420626560448201527f206c6f6e676572207468616e203130000000000000000000000000000000000060648201526084016104b1565b6080548110611083576040805162461bcd60e51b81526020600482015260248101919091527f546865207472616e736974696f6e2074696d656672616d65206d75737420626560448201527f20736d616c6c6572207468616e207468652065706f6368206475726174696f6e60648201526084016104b1565b608155565b608254608054600091901561109e5760016110a1565b60005b60ff16608454608054836110b59190615cbf565b6110bf9190615cbf565b6110c99190615cd2565b91505090565b3a60000361110f5760405162461bcd60e51b815260206004820152600d60248201526c04761735072696365206973203609c1b60448201526064016104b1565b816001600160a01b0316836001600160a01b0316036111965760405162461bcd60e51b815260206004820152602760248201527f4d6f76655374616b653a2073726320616e642064737420706f6f6c206973207460448201527f68652073616d650000000000000000000000000000000000000000000000000060648201526084016104b1565b336111a2848284613684565b6111ad8382846139ba565b607f54604080516001600160a01b0387811682526020820186905280851692908716917f4480d8e4b1e9095b94bf513961d26fe1d32386ebdd103d18fe8738cf4b2223ff910160405180910390a450505050565b3a6000036112415760405162461bcd60e51b815260206004820152600d60248201526c04761735072696365206973203609c1b60448201526064016104b1565b333461124e8383836139ba565b607f54826001600160a01b0316846001600160a01b03167f2273de02cb1f69ba6259d22c4bc22c60e4c94c193265ef6afee324a04a9b6d228460405161129691815260200190565b60405180910390a4505050565b6112ab61362a565b606f55565b3a6000036112f05760405162461bcd60e51b815260206004820152600d60248201526c04761735072696365206973203609c1b60448201526064016104b1565b600080606680548060200260200160405190810160405280929190818152602001828054801561134957602002820191906000526020600020905b81546001600160a01b0316815260019091019060200180831161132b575b5050505050905080516000036113a15760405162461bcd60e51b815260206004820152601260248201527f6e6f7468696e6720746f207265636f766572000000000000000000000000000060448201526064016104b1565b60005b815181101561157c5760008282815181106113c1576113c1615c7a565b602002602001015190506113d481613f9b565b8061144a5750608654604051639d6fc1d160e01b81526001600160a01b03838116600483015290911690639d6fc1d190602401602060405180830381865afa158015611424573d6000803e3d6000fd5b505050506040513d601f19601f820116820180604052508101906114489190615ce5565b155b15611455575061156c565b61145e81613fd9565b6001600160a01b0381166000908152608960209081526040808320805460ff19166001179055608590915281208054908290559061149b83612148565b905060005b815181101561150e5760008282815181106114bd576114bd615c7a565b6020908102919091018101516001600160a01b038088166000908152607b8452604080822092841682529190935282209190915590506114fd8582614104565b5061150781615ca6565b90506114a0565b506115198287615cbf565b9550826001600160a01b0316336001600160a01b03167f8e6a4ccd7dccdca9ac211d00fcc3fa7c71be75ff73d3a35f63ea023173cc10048460405161156091815260200190565b60405180910390a35050505b61157581615ca6565b90506113a4565b50816000036115cd5760405162461bcd60e51b815260206004820152601260248201527f6e6f7468696e6720746f207265636f766572000000000000000000000000000060448201526064016104b1565b60006115da600284615d07565b905060006115e88285615cd2565b90506000608660009054906101000a90046001600160a01b03166001600160a01b03166356b54bae6040518163ffffffff1660e01b8152600401602060405180830381865afa15801561163f573d6000803e3d6000fd5b505050506040513d601f19601f820116820180604052508101906116639190615d29565b90506000816001600160a01b031663732524946040518163ffffffff1660e01b8152600401602060405180830381865afa1580156116a5573d6000803e3d6000fd5b505050506040513d601f19601f820116820180604052508101906116c99190615d29565b9050816001600160a01b031663af182535846040518263ffffffff1660e01b81526004016000604051808303818588803b15801561170657600080fd5b505af115801561171a573d6000803e3d6000fd5b50505050506117298185614298565b604080518481526020810186905233917f1c113e6bae9530fea40323e612aeb0cb7817dedb5a0b0f6bdfbff97d55920dc7910160405180910390a2505050505050565b6086546001600160a01b031633146117ba5760405162461bcd60e51b815260206004820152601160248201527013db9b1e4815985b1a59185d1bdc94d95d607a1b60448201526064016104b1565b6117c3816134cb565b50565b6117ce61362a565b606e55565b6001600160a01b03811660009081526087602052604090208054606091906117fa90615d46565b80601f016020809104026020016040519081016040528092919081815260200182805461182690615d46565b80156118735780601f1061184857610100808354040283529160200191611873565b820191906000526020600020905b81548152906001019060200180831161185657829003601f168201915b50505050509050919050565b3a6000036118bf5760405162461bcd60e51b815260206004820152600d60248201526c04761735072696365206973203609c1b60448201526064016104b1565b608654604051630526083960e11b81526001600160a01b0386811660048301523360248301819052923492911690630a4c107290604401600060405180830381600087803b15801561191057600080fd5b505af1158015611924573d6000803e3d6000fd5b505050506119338283836139ba565b6001600160a01b0382166000908152608760205260409020611956858783615ddc565b506001600160a01b03821660008181526087602090815260409182902060010180546fffffffffffffffffffffffffffffffff1916608088901c179055607f54915184815291929182917f2273de02cb1f69ba6259d22c4bc22c60e4c94c193265ef6afee324a04a9b6d22910160405180910390a4505050505050565b60606065805480602002602001604051908101604052809291908181526020018280548015611a2b57602002820191906000526020600020905b81546001600160a01b03168152600190910190602001808311611a0d575b5050505050905090565b6086546040516253517560e01b81526001600160a01b03848116600483015260009283929116906253517590602401602060405180830381865afa158015611a81573d6000803e3d6000fd5b505050506040513d601f19601f82011682018060405250810190611aa59190615d29565b9050611ac681846001600160a01b0316866001600160a01b03161415614390565b1580611aea57506001600160a01b03841660009081526089602052604090205460ff165b15611af9576000915050611bd8565b6001600160a01b038481166000908152607b6020908152604080832087851684529091529081902054608654915163a0d16cad60e01b815284841660048201529092919091169063a0d16cad90602401602060405180830381865afa158015611b66573d6000803e3d6000fd5b505050506040513d601f19601f82011682018060405250810190611b8a9190615ce5565b611b97579150611bd89050565b6001600160a01b038581166000908152606d602090815260408083209388168352928152828220607f5483529052205480821115611bd3578091505b509150505b92915050565b611be661362a565b611bf0600061449c565b565b6001600160a01b0381166000908152606c602090815260409182902080548351818402810184019094528084526060939283018282801561187357602002820191906000526020600020905b81546001600160a01b03168152600190910190602001808311611c3e5750505050509050919050565b6086546001600160a01b03163314611cb55760405162461bcd60e51b815260206004820152601160248201527013db9b1e4815985b1a59185d1bdc94d95d607a1b60448201526064016104b1565b6001600160a01b039092166000908152608760205260409020600101805460f09390931c600160801b0271ffffffffffffffffffffffffffffffffffff1990931660809290921c91909117919091179055565b6086546001600160a01b03163314611d565760405162461bcd60e51b815260206004820152601160248201527013db9b1e4815985b1a59185d1bdc94d95d607a1b60448201526064016104b1565b606e546001600160a01b0382166000908152607b60209081526040808320909152902054106117c357611d8a8160016144ee565b6117c3816145c3565b6086546001600160a01b03163314611de15760405162461bcd60e51b815260206004820152601160248201527013db9b1e4815985b1a59185d1bdc94d95d607a1b60448201526064016104b1565b60825543608355565b336000908152608760205260409020611e04848683615ddc565b50336000908152608760205260409020600101805460f09290921c600160801b0271ffffffffffffffffffffffffffffffffffff1990921660809390931c929092171790555050565b6086546040516253517560e01b81526001600160a01b03848116600483015260009283929116906253517590602401602060405180830381865afa158015611e99573d6000803e3d6000fd5b505050506040513d601f19601f82011682018060405250810190611ebd9190615d29565b9050611ede81846001600160a01b0316866001600160a01b03161415614390565b611eec576000915050611bd8565b60865460405163a0d16cad60e01b81526001600160a01b0383811660048301529091169063a0d16cad90602401602060405180830381865afa158015611f36573d6000803e3d6000fd5b505050506040513d601f19601f82011682018060405250810190611f5a9190615ce5565b611f68576000915050611bd8565b6001600160a01b038481166000818152606d60209081526040808320948816808452948252808320607f548452825280832054938352607b82528083209483529390529190912054611fba9190615cd2565b949350505050565b606060006069606a548180548060200260200160405190810160405280929190818152602001828054801561201657602002820191906000526020600020905b815481526020019060010190808311612002575b50505050509150915091509091565b60876020526000908152604090208054819061204090615d46565b80601f016020809104026020016040519081016040528092919081815260200182805461206c90615d46565b80156120b95780601f1061208e576101008083540402835291602001916120b9565b820191906000526020600020905b81548152906001019060200180831161209c57829003601f168201915b50505060019093015491925050608081901b90600160801b900460f01b83565b6086546001600160a01b031633146121275760405162461bcd60e51b815260206004820152601160248201527013db9b1e4815985b1a59185d1bdc94d95d607a1b60448201526064016104b1565b608154816084546121389190615cbf565b6121429190615cbf565b60845550565b6001600160a01b0381166000908152606b6020908152604091829020805483518184028101840190945280845260609392830182828015611873576020028201919060005260206000209081546001600160a01b03168152600190910190602001808311611c3e5750505050509050919050565b60606067805480602002602001604051908101604052809291908181526020018280548015611a2b576020028201919060005260206000209081546001600160a01b03168152600190910190602001808311611a0d575050505050905090565b6001600160a01b038116600090815260776020526040812054606554811080156122755750826001600160a01b03166065828154811061225e5761225e615c7a565b6000918252602090912001546001600160a01b0316145b9392505050565b6086546001600160a01b031633146122ca5760405162461bcd60e51b815260206004820152601160248201527013db9b1e4815985b1a59185d1bdc94d95d607a1b60448201526064016104b1565b608154608460008282546122de9190615cbf565b9091555050565b6122ed61362a565b608154811161238a5760405162461bcd60e51b815260206004820152605760248201527f5468652066697865642065706f6368206475726174696f6e2074696d6566726160448201527f6d65206d7573742062652067726561746572207468616e20746865207472616e60648201527f736974696f6e2074696d656672616d65206c656e677468000000000000000000608482015260a4016104b1565b608055565b3a6000036123cf5760405162461bcd60e51b815260206004820152600d60248201526c04761735072696365206973203609c1b60448201526064016104b1565b6001600160a01b0382166124305760405162461bcd60e51b815260206004820152602260248201527f706f6f6c5374616b696e6741646472657373206d757374206e6f742062652030604482015261078360f41b60648201526084016104b1565b806000036124a65760405162461bcd60e51b815260206004820152602560248201527f6f72646572656420776974686472617720616d6f756e74206d757374206e6f7460448201527f206265203000000000000000000000000000000000000000000000000000000060648201526084016104b1565b6086546040516253517560e01b81526001600160a01b0384811660048301523392612532929116906253517590602401602060405180830381865afa1580156124f3573d6000803e3d6000fd5b505050506040513d601f19601f820116820180604052508101906125179190615d29565b846001600160a01b0316836001600160a01b03161415614390565b61257e5760405162461bcd60e51b815260206004820152601a60248201527f4f7264657257697468647261773a206e6f7420616c6c6f77656400000000000060448201526064016104b1565b6001600160a01b038084166000818152607160209081526040808320948616808452948252808320548484526072835281842054607b8452828520968552958352818420549484526085909252822054909392918613156126b957856125e48887611e4d565b8111156126595760405162461bcd60e51b815260206004820152602f60248201527f4f7264657257697468647261773a206d617857697468647261774f726465724160448201527f6c6c6f776564206578636565646564000000000000000000000000000000000060648201526084016104b1565b6126638186615cbf565b945061266f8185615cbf565b935061267b8184615cd2565b92506126878183615cd2565b607f546001600160a01b03808b166000908152607360209081526040808320938c168352929052205591506126f89050565b60006126c487615e9c565b90506126d08186615cd2565b94506126dc8185615cd2565b93506126e88184615cbf565b92506126f48183615cbf565b9150505b6001600160a01b038088166000818152607160209081526040808320948a1680845294825280832089905583835260728252808320889055607b82528083208584528252808320879055838352608590915290208390559003612800578115806127645750606e548210155b6127d65760405162461bcd60e51b815260206004820152603360248201527f6e65775374616b6520416d6f756e74206d75737420626520677265617465722060448201527f7468616e20746865206d696e207374616b652e0000000000000000000000000060648201526084016104b1565b60008613156127f557816000036127f0576127f087614690565b6128b5565b6127f08760016144ee565b81158061280f5750606f548210155b6128815760405162461bcd60e51b815260206004820152603360248201527f6e65775374616b6520416d6f756e74206d75737420626520677265617465722060448201527f7468616e20746865206d696e207374616b652e0000000000000000000000000060648201526084016104b1565b60008613156128a1578160000361289c5761289c8786614104565b6128ab565b6128ab8786614754565b6128b5878661481c565b6128be876145c3565b607f54856001600160a01b0316886001600160a01b03167f80d5c777e5f7ac6ee89723223803ca5c0ec0204f89e99c1b0cde973c66a645948960405161290691815260200190565b60405180910390a450505050505050565b600060815460805460825461292c9190615cbf565b6129369190615cd2565b905090565b600054610100900460ff161580801561295b5750600054600160ff909116105b806129755750303b158015612975575060005460ff166001145b6129e75760405162461bcd60e51b815260206004820152602e60248201527f496e697469616c697a61626c653a20636f6e747261637420697320616c72656160448201527f647920696e697469616c697a656400000000000000000000000000000000000060648201526084016104b1565b6000805460ff191660011790558015612a0a576000805461ff0019166101001790555b6001600160a01b038716612a605760405162461bcd60e51b815260206004820152601960248201527f4f776e657220616464726573732063616e6e6f7420626520300000000000000060448201526064016104b1565b8560a00135600003612ab45760405162461bcd60e51b815260206004820152601760248201527f466978656445706f63684475726174696f6e206973203000000000000000000060448201526064016104b1565b8560e001358660a0013511612b315760405162461bcd60e51b815260206004820152603d60248201527f466978656445706f63684475726174696f6e206d757374206265206c6f6e676560448201527f72207468616e207769746864726177446973616c6c6f77506572696f6400000060648201526084016104b1565b8560e00135600003612b855760405162461bcd60e51b815260206004820152601b60248201527f5769746864726177446973616c6c6f77506572696f642069732030000000000060448201526064016104b1565b8560c00135600003612bff5760405162461bcd60e51b815260206004820152602e60248201527f546865207472616e736974696f6e2074696d656672616d65206d75737420626560448201527f206c6f6e676572207468616e203000000000000000000000000000000000000060648201526084016104b1565b8560a001358660c0013510612c7e576040805162461bcd60e51b81526020600482015260248101919091527f546865207472616e736974696f6e2074696d656672616d65206d75737420626560448201527f2073686f72746572207468656e207468652065706f6368206475726174696f6e60648201526084016104b1565b612c86614921565b612c8f8761449c565b612d53612c9f6020880188615861565b612cac6020890189615eb8565b8080602002602001604051908101604052809392919081815260200183836020028082843760009201919091525050604080516020808c02828101820184528c8352928e0135945060608e0135935060808e0135928d918d91829185019084908082843760009201919091525050604080516020808e0282810182019093528d82529093508d92508c91829185019084908082843760009201919091525061499492505050565b60a086013560805560e0860135607e554260825560c08601356081558015612db5576000805461ff0019169055604051600181527f7f26b83ff96e1f2b6a682f133852f6798a09c465da95921460cefb38474024989060200160405180910390a15b50505050505050565b3a600003612dfe5760405162461bcd60e51b815260206004820152600d60248201526c04761735072696365206973203609c1b60448201526064016104b1565b6001600160a01b038116600090815260736020908152604080832033808552925290912054607f5411612e995760405162461bcd60e51b815260206004820152603f60248201527f63616e6e6f7420636c61696d206f72646572656420776974686472617720696e60448201527f207468652073616d652065706f636820697420776173206f7264657265642e0060648201526084016104b1565b6086546040516253517560e01b81526001600160a01b038481166004830152612f229216906253517590602401602060405180830381865afa158015612ee3573d6000803e3d6000fd5b505050506040513d601f19601f82011682018060405250810190612f079190615d29565b836001600160a01b0316836001600160a01b03161415614390565b612f945760405162461bcd60e51b815260206004820152602a60248201527f436c61696d4f72646572656457697468647261773a205769746864726177206e60448201527f6f7420616c6c6f7765640000000000000000000000000000000000000000000060648201526084016104b1565b6001600160a01b0380831660009081526071602090815260408083209385168352929052908120549081900361300c5760405162461bcd60e51b815260206004820152601a60248201527f636c61696d20616d6f756e74206d757374206e6f74206265203000000000000060448201526064016104b1565b6001600160a01b03808416600081815260716020908152604080832094871683529381528382208290559181526072909152205461304b908290615cd2565b6001600160a01b03808516600090815260726020908152604080832094909455607b815283822092861682529190915290812054900361308f5761308f8383614ed6565b607f54826001600160a01b0316846001600160a01b03167ff380b0bc887e00f5b50d3c9d4eaaf5c9a0afd97b956316b995159384c4ede9b38460405161129691815260200190565b60606068805480602002602001604051908101604052809291908181526020018280548015611a2b576020028201919060005260206000209081546001600160a01b03168152600190910190602001808311611a0d575050505050905090565b60606066805480602002602001604051908101604052809291908181526020018280548015611a2b576020028201919060005260206000209081546001600160a01b03168152600190910190602001808311611a0d575050505050905090565b3a6000036131d75760405162461bcd60e51b815260206004820152600d60248201526c04761735072696365206973203609c1b60448201526064016104b1565b6086546040516253517560e01b81523360048201819052916000916001600160a01b03909116906253517590602401602060405180830381865afa158015613223573d6000803e3d6000fd5b505050506040513d601f19601f820116820180604052508101906132479190615d29565b90506000607f5411806132c5575060865460405163facd743b60e01b81526001600160a01b0383811660048301529091169063facd743b90602401602060405180830381865afa15801561329f573d6000803e3d6000fd5b505050506040513d601f19601f820116820180604052508101906132c39190615ce5565b155b6133375760405162461bcd60e51b815260206004820152602a60248201527f43616e27742072656d6f766520706f6f6c20647572696e67203173742073746160448201527f6b696e672065706f63680000000000000000000000000000000000000000000060648201526084016104b1565b610f88826134cb565b6086546001600160a01b0316331461338e5760405162461bcd60e51b815260206004820152601160248201527013db9b1e4815985b1a59185d1bdc94d95d607a1b60448201526064016104b1565b607f805490600061339e83615ca6565b90915550506000608455565b6133b261362a565b6001600160a01b03811661342e5760405162461bcd60e51b815260206004820152602660248201527f4f776e61626c653a206e6577206f776e657220697320746865207a65726f206160448201527f646472657373000000000000000000000000000000000000000000000000000060648201526084016104b1565b6117c38161449c565b3a6000036134775760405162461bcd60e51b815260206004820152600d60248201526c04761735072696365206973203609c1b60448201526064016104b1565b33613483838284613684565b607f54816001600160a01b0316846001600160a01b03167fa7c0f0cac6bd4d18042007706c84a8abe823751cf289b69c01e83eef7b5915c78560405161129691815260200190565b6001600160a01b038116600090815260776020526040902054606554811080156135245750816001600160a01b03166065828154811061350d5761350d615c7a565b6000918252602090912001546001600160a01b0316145b156135f357606580546000919061353d90600190615cd2565b8154811061354d5761354d615c7a565b600091825260209091200154606580546001600160a01b03909216925082918490811061357c5761357c615c7a565b600091825260208083209190910180546001600160a01b0319166001600160a01b03948516179055838316825260779052604080822085905591851681529081205560658054806135cf576135cf615f02565b600082815260209020810160001990810180546001600160a01b0319169055019055505b6135fc82613f9b565b1561360f5761360a82613fd9565b613618565b61361882615004565b613621826150c3565b610f88826152e0565b6033546001600160a01b03163314611bf05760405162461bcd60e51b815260206004820181905260248201527f4f776e61626c653a2063616c6c6572206973206e6f7420746865206f776e657260448201526064016104b1565b6001600160a01b0383166137005760405162461bcd60e51b815260206004820152602e60248201527f576974686472617720706f6f6c207374616b696e672061646472657373206d7560448201527f7374206e6f74206265206e756c6c00000000000000000000000000000000000060648201526084016104b1565b806000036137505760405162461bcd60e51b815260206004820181905260248201527f616d6f756e7420746f207769746864726177206d757374206e6f74206265203060448201526064016104b1565b61375a8383611a35565b8111156137cf5760405162461bcd60e51b815260206004820152602560248201527f57697468647261773a206d61785769746864726177416c6c6f7765642065786360448201527f656564656400000000000000000000000000000000000000000000000000000060648201526084016104b1565b6001600160a01b038084166000908152607b60209081526040808320938616835292905290812054613802908390615cd2565b90506000836001600160a01b0316856001600160a01b03161461382757606f5461382b565b606e545b905081158061383a5750808210155b6138ac5760405162461bcd60e51b815260206004820152603960248201527f6e65775374616b6520616d6f756e74206d75737420626520677265617465722060448201527f657175616c207468616e20746865206d696e207374616b652e0000000000000060648201526084016104b1565b6001600160a01b038581166000818152607b60209081526040808320948916808452948252808320879055928252606d8152828220938252928352818120607f5482529092529020548381101561390457600061390e565b61390e8482615cd2565b6001600160a01b038088166000818152606d60209081526040808320948b168352938152838220607f5483528152838220949094559081526085909252902054613959908590615cd2565b6001600160a01b038716600090815260856020526040812091909155839003613986576139868686614ed6565b856001600160a01b0316856001600160a01b0316146139a9576139a9868661481c565b6139b2866145c3565b505050505050565b6086546040516253517560e01b81526001600160a01b03858116600483015260009216906253517590602401602060405180830381865afa158015613a03573d6000803e3d6000fd5b505050506040513d601f19601f82011682018060405250810190613a279190615d29565b90506001600160a01b038116613aa7576040805162461bcd60e51b81526020600482015260248101919091527f506f6f6c20646f6573206e6f742065786973742e206d696e696e67416464726560448201527f737320666f722074686174207374616b696e672061646472657373206973203060648201526084016104b1565b6001600160a01b038416613afd5760405162461bcd60e51b815260206004820152601a60248201527f5374616b653a207374616b696e6741646472657373206973203000000000000060448201526064016104b1565b81600003613b4d5760405162461bcd60e51b815260206004820152601960248201527f5374616b653a207374616b696e67416d6f756e7420697320300000000000000060448201526064016104b1565b608654604051635491295760e11b81526001600160a01b0383811660048301529091169063a92252ae90602401602060405180830381865afa158015613b97573d6000803e3d6000fd5b505050506040513d601f19601f82011682018060405250810190613bbb9190615ce5565b15613c085760405162461bcd60e51b815260206004820152601f60248201527f5374616b653a204d696e696e6720616464726573732069732062616e6e65640060448201526064016104b1565b6001600160a01b03841660009081526089602052604090205460ff1615613c715760405162461bcd60e51b815260206004820152601560248201527f5374616b653a20706f6f6c206162616e646f6e6564000000000000000000000060448201526064016104b1565b6001600160a01b038085166000908152607b60209081526040808320938716835292905290812054613ca4908490615cbf565b9050846001600160a01b0316846001600160a01b031603613d3c57606e54811015613d375760405162461bcd60e51b815260206004820152603160248201527f5374616b653a2063616e6469646174655374616b65206c657373207468616e2060448201527f63616e6469646174654d696e5374616b6500000000000000000000000000000060648201526084016104b1565b613e2f565b606f54811015613db45760405162461bcd60e51b815260206004820152603460248201527f5374616b653a2064656c656761746f725374616b65206973206c65737320746860448201527f616e2064656c656761746f724d696e5374616b6500000000000000000000000060648201526084016104b1565b6001600160a01b0385166000908152607b602090815260408083209091528120549003613e2f5760405162461bcd60e51b815260206004820152602360248201527f5374616b653a2063616e27742064656c656761746520696e20656d70747920706044820152621bdbdb60ea1b60648201526084016104b1565b6088546001600160a01b038616600090815260856020526040902054613e56908590615cbf565b1115613ea45760405162461bcd60e51b815260206004820152601d60248201527f7374616b65206c696d697420686173206265656e20657863656564656400000060448201526064016104b1565b6001600160a01b038581166000818152607b60209081526040808320948916808452948252808320869055928252606d8152828220938252928352818120607f548252909252902054613ef8908490615cbf565b6001600160a01b038087166000818152606d60209081526040808320948a168352938152838220607f5483528152838220949094559081526085909252902054613f43908490615cbf565b6001600160a01b03808716600081815260856020526040902092909255851603613f7757613f728560016144ee565b613f8b565b613f818585614754565b613f8b858561481c565b613f94856145c3565b5050505050565b6001600160a01b038116600090815260856020526040812054158015611bd85750506001600160a01b03166000908152607260205260409020541590565b6001600160a01b038116600090815260766020526040902054606654811080156140325750816001600160a01b03166066828154811061401b5761401b615c7a565b6000918252602090912001546001600160a01b0316145b15610f8857606680546000919061404b90600190615cd2565b8154811061405b5761405b615c7a565b600091825260209091200154606680546001600160a01b03909216925082918490811061408a5761408a615c7a565b600091825260208083209190910180546001600160a01b0319166001600160a01b03948516179055838316825260769052604080822085905591851681529081205560668054806140dd576140dd615f02565b600082815260209020810160001990810180546001600160a01b0319169055019055505050565b6001600160a01b038083166000908152606b60209081526040808320607483528184209486168452939091529020548154811080156141715750826001600160a01b031682828154811061415a5761415a615c7a565b6000918252602090912001546001600160a01b0316145b1561424e578154600090839061418990600190615cd2565b8154811061419957614199615c7a565b9060005260206000200160009054906101000a90046001600160a01b03169050808383815481106141cc576141cc615c7a565b600091825260208083209190910180546001600160a01b0319166001600160a01b0394851617905587831682526074815260408083208585168452909152808220859055918616815290812055825483908061422a5761422a615f02565b600082815260209020810160001990810180546001600160a01b0319169055019055505b6001600160a01b03808516600090815260716020908152604080832093871683529290522054156142885761428384846153e4565b614292565b61429284846154a8565b50505050565b804710156142e85760405162461bcd60e51b815260206004820152601460248201527f496e73756666696369656e742062616c616e636500000000000000000000000060448201526064016104b1565b6000826001600160a01b03168260405160006040518083038185875af1925050503d8060008114614335576040519150601f19603f3d011682016040523d82523d6000602084013e61433a565b606091505b505090508061438b5760405162461bcd60e51b815260206004820152600f60248201527f5472616e73666572206661696c6564000000000000000000000000000000000060448201526064016104b1565b505050565b600081156144185760865460405163a881c5fd60e01b81526001600160a01b0385811660048301529091169063a881c5fd90602401602060405180830381865afa1580156143e2573d6000803e3d6000fd5b505050506040513d601f19601f820116820180604052508101906144069190615ce5565b1561441357506000611bd8565b614493565b608654604051635491295760e11b81526001600160a01b0385811660048301529091169063a92252ae90602401602060405180830381865afa158015614462573d6000803e3d6000fd5b505050506040513d601f19601f820116820180604052508101906144869190615ce5565b1561449357506000611bd8565b50600192915050565b603380546001600160a01b038381166001600160a01b0319831681179093556040519116919082907f8be0079c531659141344cd1fd0a4f28419497f9722a3daafe3b4186f6b6457e090600090a35050565b6144f78261221c565b6145ab57606580546001600160a01b0384166000818152607760205260408120839055600183018455929092527f8ff97419363ffd7000167f130ef7168fbea05faf9251824ca5043f113cc6a7c70180546001600160a01b0319169091179055610bb860655411156145ab5760405162461bcd60e51b815260206004820152601d60248201527f4d41585f43414e4449444154455320706f6f6c7320657863656564656400000060448201526064016104b1565b6145b482613fd9565b8015610f8857610f88826155f7565b6000806145cf836156ec565b91509150816145dd57505050565b6000606982815481106145f2576145f2615c7a565b90600052602060002001549050600060856000866001600160a01b03166001600160a01b03168152602001908152602001600020549050806069848154811061463d5761463d615c7a565b60009182526020909120015581811061466f5761465a8282615cd2565b606a546146679190615cbf565b606a55613f94565b6146798183615cd2565b606a546146869190615cd2565b606a555050505050565b6001600160a01b03811660009081526079602052604090205460685480821015806146eb5750826001600160a01b0316606883815481106146d3576146d3615c7a565b6000918252602090912001546001600160a01b031614155b1561474b576001600160a01b03831660008181526079602052604081208390556068805460018101825591527fa2153420d844928b4421650203c77babc8b33d7f2e7b450e2966db0c220977530180546001600160a01b03191690911790555b61438b836150c3565b6001600160a01b038083166000908152606b6020908152604080832060748352818420948616845293909152902054815480821015806147c35750836001600160a01b03168383815481106147ab576147ab615c7a565b6000918252602090912001546001600160a01b031614155b15614812576001600160a01b0380861660009081526074602090815260408083209388168084529382528220849055855460018101875586835291200180546001600160a01b03191690911790555b613f9485856154a8565b6000607f54600161482d9190615cbf565b6001600160a01b038085166000908152607b6020908152604080832093871683529290529081205491925081900361486757600019614869565b805b6001600160a01b038086166000818152607060209081526040808320948916808452948252808320888452825280832095909555918152607c82528381209281529190529081205490036148e0576001600160a01b038085166000908152607c602090815260408083209387168352929052208290555b80156148ed5760006148ef565b815b6001600160a01b039485166000908152607d602090815260408083209690971682529490945293909220929092555050565b600054610100900460ff1661498c5760405162461bcd60e51b815260206004820152602b60248201527f496e697469616c697a61626c653a20636f6e7472616374206973206e6f74206960448201526a6e697469616c697a696e6760a81b60648201526084016104b1565b611bf061575e565b6001600160a01b0387166149ea5760405162461bcd60e51b815260206004820152601760248201527f56616c696461746f725365742063616e2774206265203000000000000000000060448201526064016104b1565b6000865111614a615760405162461bcd60e51b815260206004820152602560248201527f4d7573742070726f7669646520696e697469616c206d696e696e67206164647260448201527f657373657300000000000000000000000000000000000000000000000000000060648201526084016104b1565b81518651614a70906002615f18565b14614ae35760405162461bcd60e51b815260206004820152602960248201527f4d7573742070726f7669646520636f7272656374206e756d626572206f66207060448201527f75626c69634b657973000000000000000000000000000000000000000000000060648201526084016104b1565b8051865114614b5a5760405162461bcd60e51b815260206004820152602a60248201527f4d7573742070726f7669646520636f7272656374206e756d626572206f66204960448201527f502061647265737365730000000000000000000000000000000000000000000060648201526084016104b1565b84600003614baa5760405162461bcd60e51b815260206004820152601660248201527f44656c656761746f724d696e5374616b6520697320300000000000000000000060448201526064016104b1565b83600003614bfa5760405162461bcd60e51b815260206004820152601660248201527f43616e6469646174654d696e5374616b6520697320300000000000000000000060448201526064016104b1565b838311614c6f5760405162461bcd60e51b815260206004820152603160248201527f6d6178696d756d207374616b65206d757374206265206772656174657220746860448201527f656e206d696e696d756d207374616b652e00000000000000000000000000000060648201526084016104b1565b608680546001600160a01b0319166001600160a01b03891617905560005b8651811015614ec35760006001600160a01b0316878281518110614cb357614cb3615c7a565b60200260200101516001600160a01b031603614d1c5760405162461bcd60e51b815260206004820152602260248201527f496e697469616c5374616b696e674164647265737365732063616e2774206265604482015261020360f41b60648201526084016104b1565b614d40878281518110614d3157614d31615c7a565b602002602001015160006144ee565b614d62878281518110614d5557614d55615c7a565b6020026020010151614690565b82614d6e826002615f18565b81518110614d7e57614d7e615c7a565b602002602001015183826002614d949190615f18565b614d9f906001615cbf565b81518110614daf57614daf615c7a565b6020026020010151604051602001614dd1929190918252602082015260400190565b60405160208183030381529060405260876000898481518110614df657614df6615c7a565b60200260200101516001600160a01b03166001600160a01b031681526020019081526020016000206000019081614e2d9190615f2f565b50818181518110614e4057614e40615c7a565b602002602001015160876000898481518110614e5e57614e5e615c7a565b60200260200101516001600160a01b03166001600160a01b0316815260200190815260200160002060010160006101000a8154816fffffffffffffffffffffffffffffffff021916908360801c02179055508080614ebb90615ca6565b915050614c8d565b505050606f92909255606e556088555050565b816001600160a01b0316816001600160a01b031603614fe3576086546040516253517560e01b81526001600160a01b03848116600483015260009216906253517590602401602060405180830381865afa158015614f38573d6000803e3d6000fd5b505050506040513d601f19601f82011682018060405250810190614f5c9190615d29565b60865460405163facd743b60e01b81526001600160a01b03808416600483015292935091169063facd743b90602401602060405180830381865afa158015614fa8573d6000803e3d6000fd5b505050506040513d601f19601f82011682018060405250810190614fcc9190615ce5565b15614fda5761438b83614690565b61438b836134cb565b614fed8282614104565b614ff682613f9b565b15610f8857610f8882613fd9565b6001600160a01b038116600090815260766020526040902054606654808210158061505f5750826001600160a01b03166066838154811061504757615047615c7a565b6000918252602090912001546001600160a01b031614155b1561438b576001600160a01b03831660008181526076602052604081208390556066805460018101825591527f46501879b8ca8525e8c2fd519e2fbfcfa2ebea26501294aa02cbfcfb12e943540180546001600160a01b0319169091179055505050565b606954606754146150d15750565b6001600160a01b0381166000908152607860205260409020546067548110801561512a5750816001600160a01b03166067828154811061511357615113615c7a565b6000918252602090912001546001600160a01b0316145b15610f88576069818154811061514257615142615c7a565b9060005260206000200154606a541061518f576069818154811061516857615168615c7a565b9060005260206000200154606a60008282546151849190615cd2565b909155506151959050565b6000606a555b6067546000906151a790600190615cd2565b90506000606782815481106151be576151be615c7a565b600091825260209091200154606780546001600160a01b0390921692508291859081106151ed576151ed615c7a565b9060005260206000200160006101000a8154816001600160a01b0302191690836001600160a01b031602179055506069828154811061522e5761522e615c7a565b90600052602060002001546069848154811061524c5761524c615c7a565b60009182526020808320909101929092556001600160a01b03808416825260789092526040808220869055918616815290812055606780548061529157615291615f02565b600082815260209020810160001990810180546001600160a01b031916905501905560698054806152c4576152c4615f02565b6001900381819060005260206000200160009055905550505050565b6001600160a01b038116600090815260796020526040902054606854811080156153395750816001600160a01b03166068828154811061532257615322615c7a565b6000918252602090912001546001600160a01b0316145b15610f8857606880546000919061535290600190615cd2565b8154811061536257615362615c7a565b600091825260209091200154606880546001600160a01b03909216925082918490811061539157615391615c7a565b600091825260208083209190910180546001600160a01b0319166001600160a01b03948516179055838316825260799052604080822085905591851681529081205560688054806140dd576140dd615f02565b6001600160a01b038083166000908152606c6020908152604080832060758352818420948616845293909152902054815480821015806154535750836001600160a01b031683838154811061543b5761543b615c7a565b6000918252602090912001546001600160a01b031614155b15613f94576001600160a01b0380861660009081526075602090815260408083209388168084529382528220849055855460018101875586835291200180546001600160a01b03191690911790555050505050565b6001600160a01b038083166000908152606c60209081526040808320607583528184209486168452939091529020548154811080156155155750826001600160a01b03168282815481106154fe576154fe615c7a565b6000918252602090912001546001600160a01b0316145b15614292578154600090839061552d90600190615cd2565b8154811061553d5761553d615c7a565b9060005260206000200160009054906101000a90046001600160a01b031690508083838154811061557057615570615c7a565b600091825260208083209190910180546001600160a01b0319166001600160a01b039485161790558783168252607581526040808320858516845290915280822085905591861681529081205582548390806155ce576155ce615f02565b600082815260209020810160001990810180546001600160a01b03191690550190555050505050565b6001600160a01b03811660009081526078602052604090205460675480821015806156525750826001600160a01b03166067838154811061563a5761563a615c7a565b6000918252602090912001546001600160a01b031614155b156156e3576001600160a01b03831660008181526078602052604081208390556067805460018181019092557f9787eeb91fe3101235e4a76063c7023ecb40f923f97916639c598592fa30d6ae0180546001600160a01b03191690931790925560698054928301815581527f7fb4302e8e91f9110a6554c2c0a24601252c2a42c2220ca988efcfe399914308909101555b61438b836152e0565b6001600160a01b038116600090815260786020526040812054606754811080156157455750826001600160a01b03166067828154811061572e5761572e615c7a565b6000918252602090912001546001600160a01b0316145b156157535760019150915091565b506000928392509050565b600054610100900460ff166157c95760405162461bcd60e51b815260206004820152602b60248201527f496e697469616c697a61626c653a20636f6e7472616374206973206e6f74206960448201526a6e697469616c697a696e6760a81b60648201526084016104b1565b611bf03361449c565b6001600160a01b03811681146117c357600080fd5b6000806000606084860312156157fc57600080fd5b8335615807816157d2565b92506020840135615817816157d2565b929592945050506040919091013590565b6000806040838503121561583b57600080fd5b8235615846816157d2565b91506020830135615856816157d2565b809150509250929050565b60006020828403121561587357600080fd5b8135612275816157d2565b60006020828403121561589057600080fd5b5035919050565b6000815180845260005b818110156158bd576020818501810151868301820152016158a1565b506000602082860101526020601f19601f83011685010191505092915050565b6020815260006122756020830184615897565b60008083601f84011261590257600080fd5b50813567ffffffffffffffff81111561591a57600080fd5b60208301915083602082850101111561593257600080fd5b9250929050565b80356fffffffffffffffffffffffffffffffff198116811461595a57600080fd5b919050565b6000806000806060858703121561597557600080fd5b8435615980816157d2565b9350602085013567ffffffffffffffff81111561599c57600080fd5b6159a8878288016158f0565b90945092506159bb905060408601615939565b905092959194509250565b6020808252825182820181905260009190848201906040850190845b81811015615a075783516001600160a01b0316835292840192918401916001016159e2565b50909695505050505050565b80356001600160f01b03198116811461595a57600080fd5b600080600060608486031215615a4057600080fd5b8335615a4b816157d2565b9250615a5960208501615939565b9150615a6760408501615a13565b90509250925092565b60008060008060608587031215615a8657600080fd5b843567ffffffffffffffff811115615a9d57600080fd5b615aa9878288016158f0565b9095509350615abc905060208601615939565b91506159bb60408601615a13565b604080825283519082018190526000906020906060840190828701845b82811015615b0357815184529284019290840190600101615ae7565b50505092019290925292915050565b606081526000615b256060830186615897565b6fffffffffffffffffffffffffffffffff19949094166020830152506001600160f01b031991909116604090910152919050565b60008060408385031215615b6c57600080fd5b8235615b77816157d2565b946020939093013593505050565b60008083601f840112615b9757600080fd5b50813567ffffffffffffffff811115615baf57600080fd5b6020830191508360208260051b850101111561593257600080fd5b60008060008060008060808789031215615be357600080fd5b8635615bee816157d2565b9550602087013567ffffffffffffffff80821115615c0b57600080fd5b90880190610100828b031215615c2057600080fd5b90955060408801359080821115615c3657600080fd5b615c428a838b01615b85565b90965094506060890135915080821115615c5b57600080fd5b50615c6889828a01615b85565b979a9699509497509295939492505050565b634e487b7160e01b600052603260045260246000fd5b634e487b7160e01b600052601160045260246000fd5b600060018201615cb857615cb8615c90565b5060010190565b80820180821115611bd857611bd8615c90565b81810381811115611bd857611bd8615c90565b600060208284031215615cf757600080fd5b8151801515811461227557600080fd5b600082615d2457634e487b7160e01b600052601260045260246000fd5b500490565b600060208284031215615d3b57600080fd5b8151612275816157d2565b600181811c90821680615d5a57607f821691505b602082108103615d7a57634e487b7160e01b600052602260045260246000fd5b50919050565b634e487b7160e01b600052604160045260246000fd5b601f82111561438b57600081815260208120601f850160051c81016020861015615dbd5750805b601f850160051c820191505b818110156139b257828155600101615dc9565b67ffffffffffffffff831115615df457615df4615d80565b615e0883615e028354615d46565b83615d96565b6000601f841160018114615e3c5760008515615e245750838201355b600019600387901b1c1916600186901b178355613f94565b600083815260209020601f19861690835b82811015615e6d5786850135825560209485019460019092019101615e4d565b5086821015615e8a5760001960f88860031b161c19848701351681555b505060018560011b0183555050505050565b6000600160ff1b8201615eb157615eb1615c90565b5060000390565b6000808335601e19843603018112615ecf57600080fd5b83018035915067ffffffffffffffff821115615eea57600080fd5b6020019150600581901b360382131561593257600080fd5b634e487b7160e01b600052603160045260246000fd5b8082028115828204841417611bd857611bd8615c90565b815167ffffffffffffffff811115615f4957615f49615d80565b615f5d81615f578454615d46565b84615d96565b602080601f831160018114615f925760008415615f7a5750858301515b600019600386901b1c1916600185901b1785556139b2565b600085815260208120601f198616915b82811015615fc157888601518255948401946001909101908401615fa2565b5085821015615fdf5787850151600019600388901b60f8161c191681555b5050505050600190811b0190555056fea2646970667358221220762e9a1950892e999d777a1b0e2a2cb7fe386948d3e71df46edc9a389bb28f1664736f6c63430008110033",
  "linkReferences": {},
  "deployedLinkReferences": {}
}