{
  "_format": "hh-sol-artifact-1",
  "contractName": "StakingHbbft",
  "sourceName": "contracts/StakingHbbft.sol",
  "abi": [
    {
      "anonymous": false,
      "inputs": [
        {
          "indexed": true,
          "internalType": "address",
          "name": "fromPoolStakingAddress",
          "type": "address"
        },
        {
          "indexed": true,
          "internalType": "address",
          "name": "staker",
          "type": "address"
        },
        {
          "indexed": true,
          "internalType": "uint256",
          "name": "stakingEpoch",
          "type": "uint256"
        },
        {
          "indexed": false,
          "internalType": "uint256",
          "name": "amount",
          "type": "uint256"
        }
      ],
      "name": "ClaimedOrderedWithdrawal",
      "type": "event"
    },
    {
      "anonymous": false,
      "inputs": [
        {
          "indexed": true,
          "internalType": "address",
          "name": "fromPoolStakingAddress",
          "type": "address"
        },
        {
          "indexed": true,
          "internalType": "address",
          "name": "staker",
          "type": "address"
        },
        {
          "indexed": true,
          "internalType": "uint256",
          "name": "stakingEpoch",
          "type": "uint256"
        },
        {
          "indexed": false,
          "internalType": "uint256",
          "name": "nativeCoinsAmount",
          "type": "uint256"
        }
      ],
      "name": "ClaimedReward",
      "type": "event"
    },
    {
      "anonymous": false,
      "inputs": [
        {
          "indexed": true,
          "internalType": "address",
          "name": "caller",
          "type": "address"
        },
        {
          "indexed": true,
          "internalType": "address",
          "name": "stakingAddress",
          "type": "address"
        },
        {
          "indexed": false,
          "internalType": "uint256",
          "name": "gatheredFunds",
          "type": "uint256"
        }
      ],
      "name": "GatherAbandonedStakes",
      "type": "event"
    },
    {
      "anonymous": false,
      "inputs": [
        {
          "indexed": false,
          "internalType": "uint8",
          "name": "version",
          "type": "uint8"
        }
      ],
      "name": "Initialized",
      "type": "event"
    },
    {
      "anonymous": false,
      "inputs": [
        {
          "indexed": false,
          "internalType": "address",
          "name": "fromPoolStakingAddress",
          "type": "address"
        },
        {
          "indexed": true,
          "internalType": "address",
          "name": "toPoolStakingAddress",
          "type": "address"
        },
        {
          "indexed": true,
          "internalType": "address",
          "name": "staker",
          "type": "address"
        },
        {
          "indexed": true,
          "internalType": "uint256",
          "name": "stakingEpoch",
          "type": "uint256"
        },
        {
          "indexed": false,
          "internalType": "uint256",
          "name": "amount",
          "type": "uint256"
        }
      ],
      "name": "MovedStake",
      "type": "event"
    },
    {
      "anonymous": false,
      "inputs": [
        {
          "indexed": true,
          "internalType": "address",
          "name": "fromPoolStakingAddress",
          "type": "address"
        },
        {
          "indexed": true,
          "internalType": "address",
          "name": "staker",
          "type": "address"
        },
        {
          "indexed": true,
          "internalType": "uint256",
          "name": "stakingEpoch",
          "type": "uint256"
        },
        {
          "indexed": false,
          "internalType": "int256",
          "name": "amount",
          "type": "int256"
        }
      ],
      "name": "OrderedWithdrawal",
      "type": "event"
    },
    {
      "anonymous": false,
      "inputs": [
        {
          "indexed": true,
          "internalType": "address",
          "name": "previousOwner",
          "type": "address"
        },
        {
          "indexed": true,
          "internalType": "address",
          "name": "newOwner",
          "type": "address"
        }
      ],
      "name": "OwnershipTransferred",
      "type": "event"
    },
    {
      "anonymous": false,
      "inputs": [
        {
          "indexed": true,
          "internalType": "address",
          "name": "toPoolStakingAddress",
          "type": "address"
        },
        {
          "indexed": true,
          "internalType": "address",
          "name": "staker",
          "type": "address"
        },
        {
          "indexed": true,
          "internalType": "uint256",
          "name": "stakingEpoch",
          "type": "uint256"
        },
        {
          "indexed": false,
          "internalType": "uint256",
          "name": "amount",
          "type": "uint256"
        }
      ],
      "name": "PlacedStake",
      "type": "event"
    },
    {
      "anonymous": false,
      "inputs": [
        {
          "indexed": true,
          "internalType": "address",
          "name": "caller",
          "type": "address"
        },
        {
          "indexed": false,
          "internalType": "uint256",
          "name": "reinsertShare",
          "type": "uint256"
        },
        {
          "indexed": false,
          "internalType": "uint256",
          "name": "governanceShare",
          "type": "uint256"
        }
      ],
      "name": "RecoverAbandonedStakes",
      "type": "event"
    },
    {
      "anonymous": false,
      "inputs": [
        {
          "indexed": true,
          "internalType": "address",
          "name": "fromPoolStakingAddress",
          "type": "address"
        },
        {
          "indexed": true,
          "internalType": "address",
          "name": "staker",
          "type": "address"
        },
        {
          "indexed": true,
          "internalType": "uint256",
          "name": "stakingEpoch",
          "type": "uint256"
        },
        {
          "indexed": false,
          "internalType": "uint256",
          "name": "amount",
          "type": "uint256"
        }
      ],
      "name": "WithdrewStake",
      "type": "event"
    },
    {
      "inputs": [],
      "name": "MAX_CANDIDATES",
      "outputs": [
        {
          "internalType": "uint256",
          "name": "",
          "type": "uint256"
        }
      ],
      "stateMutability": "view",
      "type": "function"
    },
    {
      "inputs": [
        {
          "internalType": "address",
          "name": "",
          "type": "address"
        }
      ],
      "name": "abandonedAndRemoved",
      "outputs": [
        {
          "internalType": "bool",
          "name": "",
          "type": "bool"
        }
      ],
      "stateMutability": "view",
      "type": "function"
    },
    {
      "inputs": [
        {
          "internalType": "address",
          "name": "_miningAddress",
          "type": "address"
        },
        {
          "internalType": "bytes",
          "name": "_publicKey",
          "type": "bytes"
        },
        {
          "internalType": "bytes16",
          "name": "_ip",
          "type": "bytes16"
        }
      ],
      "name": "addPool",
      "outputs": [],
      "stateMutability": "payable",
      "type": "function"
    },
    {
      "inputs": [],
      "name": "areStakeAndWithdrawAllowed",
      "outputs": [
        {
          "internalType": "bool",
          "name": "",
          "type": "bool"
        }
      ],
      "stateMutability": "view",
      "type": "function"
    },
    {
      "inputs": [],
      "name": "candidateMinStake",
      "outputs": [
        {
          "internalType": "uint256",
          "name": "",
          "type": "uint256"
        }
      ],
      "stateMutability": "view",
      "type": "function"
    },
    {
      "inputs": [
        {
          "internalType": "address",
          "name": "_poolStakingAddress",
          "type": "address"
        }
      ],
      "name": "claimOrderedWithdraw",
      "outputs": [],
      "stateMutability": "nonpayable",
      "type": "function"
    },
    {
      "inputs": [
        {
          "internalType": "uint256[]",
          "name": "_stakingEpochs",
          "type": "uint256[]"
        },
        {
          "internalType": "address",
          "name": "_poolStakingAddress",
          "type": "address"
        }
      ],
      "name": "claimReward",
      "outputs": [],
      "stateMutability": "nonpayable",
      "type": "function"
    },
    {
      "inputs": [],
      "name": "currentKeyGenExtraTimeWindow",
      "outputs": [
        {
          "internalType": "uint256",
          "name": "",
          "type": "uint256"
        }
      ],
      "stateMutability": "view",
      "type": "function"
    },
    {
      "inputs": [],
      "name": "delegatorMinStake",
      "outputs": [
        {
          "internalType": "uint256",
          "name": "",
          "type": "uint256"
        }
      ],
      "stateMutability": "view",
      "type": "function"
    },
    {
      "inputs": [
        {
          "internalType": "address",
          "name": "",
          "type": "address"
        },
        {
          "internalType": "address",
          "name": "",
          "type": "address"
        },
        {
          "internalType": "uint256",
          "name": "",
          "type": "uint256"
        }
      ],
      "name": "delegatorStakeSnapshot",
      "outputs": [
        {
          "internalType": "uint256",
          "name": "",
          "type": "uint256"
        }
      ],
      "stateMutability": "view",
      "type": "function"
    },
    {
      "inputs": [
        {
          "internalType": "address",
          "name": "_poolAddress",
          "type": "address"
        }
      ],
      "name": "getPoolInternetAddress",
      "outputs": [
        {
          "internalType": "bytes16",
          "name": "",
          "type": "bytes16"
        },
        {
          "internalType": "bytes2",
          "name": "",
          "type": "bytes2"
        }
      ],
      "stateMutability": "view",
      "type": "function"
    },
    {
      "inputs": [
        {
          "internalType": "address",
          "name": "_poolAddress",
          "type": "address"
        }
      ],
      "name": "getPoolPublicKey",
      "outputs": [
        {
          "internalType": "bytes",
          "name": "",
          "type": "bytes"
        }
      ],
      "stateMutability": "view",
      "type": "function"
    },
    {
      "inputs": [],
      "name": "getPools",
      "outputs": [
        {
          "internalType": "address[]",
          "name": "",
          "type": "address[]"
        }
      ],
      "stateMutability": "view",
      "type": "function"
    },
    {
      "inputs": [],
      "name": "getPoolsInactive",
      "outputs": [
        {
          "internalType": "address[]",
          "name": "",
          "type": "address[]"
        }
      ],
      "stateMutability": "view",
      "type": "function"
    },
    {
      "inputs": [],
      "name": "getPoolsLikelihood",
      "outputs": [
        {
          "internalType": "uint256[]",
          "name": "likelihoods",
          "type": "uint256[]"
        },
        {
          "internalType": "uint256",
          "name": "sum",
          "type": "uint256"
        }
      ],
      "stateMutability": "view",
      "type": "function"
    },
    {
      "inputs": [],
      "name": "getPoolsToBeElected",
      "outputs": [
        {
          "internalType": "address[]",
          "name": "",
          "type": "address[]"
        }
      ],
      "stateMutability": "view",
      "type": "function"
    },
    {
      "inputs": [],
      "name": "getPoolsToBeRemoved",
      "outputs": [
        {
          "internalType": "address[]",
          "name": "",
          "type": "address[]"
        }
      ],
      "stateMutability": "view",
      "type": "function"
    },
    {
      "inputs": [
        {
          "internalType": "uint256[]",
          "name": "_stakingEpochs",
          "type": "uint256[]"
        },
        {
          "internalType": "address",
          "name": "_poolStakingAddress",
          "type": "address"
        },
        {
          "internalType": "address",
          "name": "_staker",
          "type": "address"
        }
      ],
      "name": "getRewardAmount",
      "outputs": [
        {
          "internalType": "uint256",
          "name": "",
          "type": "uint256"
        }
      ],
      "stateMutability": "view",
      "type": "function"
    },
    {
      "inputs": [],
      "name": "incrementStakingEpoch",
      "outputs": [],
      "stateMutability": "nonpayable",
      "type": "function"
    },
    {
      "inputs": [
        {
          "internalType": "address",
          "name": "_contractOwner",
          "type": "address"
        },
        {
          "components": [
            {
              "internalType": "address",
              "name": "_validatorSetContract",
              "type": "address"
            },
            {
              "internalType": "address[]",
              "name": "_initialStakingAddresses",
              "type": "address[]"
            },
            {
              "internalType": "uint256",
              "name": "_delegatorMinStake",
              "type": "uint256"
            },
            {
              "internalType": "uint256",
              "name": "_candidateMinStake",
              "type": "uint256"
            },
            {
              "internalType": "uint256",
              "name": "_maxStake",
              "type": "uint256"
            },
            {
              "internalType": "uint256",
              "name": "_stakingFixedEpochDuration",
              "type": "uint256"
            },
            {
              "internalType": "uint256",
              "name": "_stakingTransitionTimeframeLength",
              "type": "uint256"
            },
            {
              "internalType": "uint256",
              "name": "_stakingWithdrawDisallowPeriod",
              "type": "uint256"
            }
          ],
          "internalType": "struct IStakingHbbft.StakingParams",
          "name": "stakingParams",
          "type": "tuple"
        },
        {
          "internalType": "bytes32[]",
          "name": "_publicKeys",
          "type": "bytes32[]"
        },
        {
          "internalType": "bytes16[]",
          "name": "_internetAddresses",
          "type": "bytes16[]"
        }
      ],
      "name": "initialize",
      "outputs": [],
      "stateMutability": "nonpayable",
      "type": "function"
    },
    {
      "inputs": [
        {
          "internalType": "address",
          "name": "_stakingAddress",
          "type": "address"
        }
      ],
      "name": "isPoolActive",
      "outputs": [
        {
          "internalType": "bool",
          "name": "",
          "type": "bool"
        }
      ],
      "stateMutability": "view",
      "type": "function"
    },
    {
      "inputs": [],
      "name": "maxStakeAmount",
      "outputs": [
        {
          "internalType": "uint256",
          "name": "",
          "type": "uint256"
        }
      ],
      "stateMutability": "view",
      "type": "function"
    },
    {
      "inputs": [
        {
          "internalType": "address",
          "name": "_poolStakingAddress",
          "type": "address"
        },
        {
          "internalType": "address",
          "name": "_staker",
          "type": "address"
        }
      ],
      "name": "maxWithdrawAllowed",
      "outputs": [
        {
          "internalType": "uint256",
          "name": "",
          "type": "uint256"
        }
      ],
      "stateMutability": "view",
      "type": "function"
    },
    {
      "inputs": [
        {
          "internalType": "address",
          "name": "_poolStakingAddress",
          "type": "address"
        },
        {
          "internalType": "address",
          "name": "_staker",
          "type": "address"
        }
      ],
      "name": "maxWithdrawOrderAllowed",
      "outputs": [
        {
          "internalType": "uint256",
          "name": "",
          "type": "uint256"
        }
      ],
      "stateMutability": "view",
      "type": "function"
    },
    {
      "inputs": [
        {
          "internalType": "address",
          "name": "_fromPoolStakingAddress",
          "type": "address"
        },
        {
          "internalType": "address",
          "name": "_toPoolStakingAddress",
          "type": "address"
        },
        {
          "internalType": "uint256",
          "name": "_amount",
          "type": "uint256"
        }
      ],
      "name": "moveStake",
      "outputs": [],
      "stateMutability": "nonpayable",
      "type": "function"
    },
    {
      "inputs": [
        {
          "internalType": "address",
          "name": "_stakingAddress",
          "type": "address"
        }
      ],
      "name": "notifyAvailability",
      "outputs": [],
      "stateMutability": "nonpayable",
      "type": "function"
    },
    {
      "inputs": [],
      "name": "notifyKeyGenFailed",
      "outputs": [],
      "stateMutability": "nonpayable",
      "type": "function"
    },
    {
      "inputs": [
        {
          "internalType": "uint256",
          "name": "detectedOfflineTime",
          "type": "uint256"
        }
      ],
      "name": "notifyNetworkOfftimeDetected",
      "outputs": [],
      "stateMutability": "nonpayable",
      "type": "function"
    },
    {
      "inputs": [
        {
          "internalType": "address",
          "name": "_poolStakingAddress",
          "type": "address"
        },
        {
          "internalType": "int256",
          "name": "_amount",
          "type": "int256"
        }
      ],
      "name": "orderWithdraw",
      "outputs": [],
      "stateMutability": "nonpayable",
      "type": "function"
    },
    {
      "inputs": [
        {
          "internalType": "address",
          "name": "",
          "type": "address"
        },
        {
          "internalType": "address",
          "name": "",
          "type": "address"
        }
      ],
      "name": "orderWithdrawEpoch",
      "outputs": [
        {
          "internalType": "uint256",
          "name": "",
          "type": "uint256"
        }
      ],
      "stateMutability": "view",
      "type": "function"
    },
    {
      "inputs": [
        {
          "internalType": "address",
          "name": "",
          "type": "address"
        },
        {
          "internalType": "address",
          "name": "",
          "type": "address"
        }
      ],
      "name": "orderedWithdrawAmount",
      "outputs": [
        {
          "internalType": "uint256",
          "name": "",
          "type": "uint256"
        }
      ],
      "stateMutability": "view",
      "type": "function"
    },
    {
      "inputs": [
        {
          "internalType": "address",
          "name": "",
          "type": "address"
        }
      ],
      "name": "orderedWithdrawAmountTotal",
      "outputs": [
        {
          "internalType": "uint256",
          "name": "",
          "type": "uint256"
        }
      ],
      "stateMutability": "view",
      "type": "function"
    },
    {
      "inputs": [],
      "name": "owner",
      "outputs": [
        {
          "internalType": "address",
          "name": "",
          "type": "address"
        }
      ],
      "stateMutability": "view",
      "type": "function"
    },
    {
      "inputs": [
        {
          "internalType": "address",
          "name": "",
          "type": "address"
        },
        {
          "internalType": "address",
          "name": "",
          "type": "address"
        }
      ],
      "name": "poolDelegatorInactiveIndex",
      "outputs": [
        {
          "internalType": "uint256",
          "name": "",
          "type": "uint256"
        }
      ],
      "stateMutability": "view",
      "type": "function"
    },
    {
      "inputs": [
        {
          "internalType": "address",
          "name": "",
          "type": "address"
        },
        {
          "internalType": "address",
          "name": "",
          "type": "address"
        }
      ],
      "name": "poolDelegatorIndex",
      "outputs": [
        {
          "internalType": "uint256",
          "name": "",
          "type": "uint256"
        }
      ],
      "stateMutability": "view",
      "type": "function"
    },
    {
      "inputs": [
        {
          "internalType": "address",
          "name": "_poolStakingAddress",
          "type": "address"
        }
      ],
      "name": "poolDelegators",
      "outputs": [
        {
          "internalType": "address[]",
          "name": "",
          "type": "address[]"
        }
      ],
      "stateMutability": "view",
      "type": "function"
    },
    {
      "inputs": [
        {
          "internalType": "address",
          "name": "_poolStakingAddress",
          "type": "address"
        }
      ],
      "name": "poolDelegatorsInactive",
      "outputs": [
        {
          "internalType": "address[]",
          "name": "",
          "type": "address[]"
        }
      ],
      "stateMutability": "view",
      "type": "function"
    },
    {
      "inputs": [
        {
          "internalType": "address",
          "name": "",
          "type": "address"
        }
      ],
      "name": "poolInactiveIndex",
      "outputs": [
        {
          "internalType": "uint256",
          "name": "",
          "type": "uint256"
        }
      ],
      "stateMutability": "view",
      "type": "function"
    },
    {
      "inputs": [
        {
          "internalType": "address",
          "name": "",
          "type": "address"
        }
      ],
      "name": "poolIndex",
      "outputs": [
        {
          "internalType": "uint256",
          "name": "",
          "type": "uint256"
        }
      ],
      "stateMutability": "view",
      "type": "function"
    },
    {
      "inputs": [
        {
          "internalType": "address",
          "name": "",
          "type": "address"
        }
      ],
      "name": "poolInfo",
      "outputs": [
        {
          "internalType": "bytes",
          "name": "publicKey",
          "type": "bytes"
        },
        {
          "internalType": "bytes16",
          "name": "internetAddress",
          "type": "bytes16"
        },
        {
          "internalType": "bytes2",
          "name": "port",
          "type": "bytes2"
        }
      ],
      "stateMutability": "view",
      "type": "function"
    },
    {
      "inputs": [
        {
          "internalType": "address",
          "name": "",
          "type": "address"
        }
      ],
      "name": "poolToBeElectedIndex",
      "outputs": [
        {
          "internalType": "uint256",
          "name": "",
          "type": "uint256"
        }
      ],
      "stateMutability": "view",
      "type": "function"
    },
    {
      "inputs": [
        {
          "internalType": "address",
          "name": "",
          "type": "address"
        }
      ],
      "name": "poolToBeRemovedIndex",
      "outputs": [
        {
          "internalType": "uint256",
          "name": "",
          "type": "uint256"
        }
      ],
      "stateMutability": "view",
      "type": "function"
    },
    {
      "inputs": [],
      "name": "recoverAbandonedStakes",
      "outputs": [],
      "stateMutability": "nonpayable",
      "type": "function"
    },
    {
      "inputs": [],
      "name": "removeMyPool",
      "outputs": [],
      "stateMutability": "nonpayable",
      "type": "function"
    },
    {
      "inputs": [
        {
          "internalType": "address",
          "name": "_stakingAddress",
          "type": "address"
        }
      ],
      "name": "removePool",
      "outputs": [],
      "stateMutability": "nonpayable",
      "type": "function"
    },
    {
      "inputs": [],
      "name": "removePools",
      "outputs": [],
      "stateMutability": "nonpayable",
      "type": "function"
    },
    {
      "inputs": [],
      "name": "renounceOwnership",
      "outputs": [],
      "stateMutability": "nonpayable",
      "type": "function"
    },
    {
      "inputs": [
        {
          "internalType": "address",
          "name": "",
          "type": "address"
        },
        {
          "internalType": "address",
          "name": "",
          "type": "address"
        },
        {
          "internalType": "uint256",
          "name": "",
          "type": "uint256"
        }
      ],
      "name": "rewardWasTaken",
      "outputs": [
        {
          "internalType": "bool",
          "name": "",
          "type": "bool"
        }
      ],
      "stateMutability": "view",
      "type": "function"
    },
    {
      "inputs": [
        {
          "internalType": "uint256",
          "name": "_minStake",
          "type": "uint256"
        }
      ],
      "name": "setCandidateMinStake",
      "outputs": [],
      "stateMutability": "nonpayable",
      "type": "function"
    },
    {
      "inputs": [
        {
          "internalType": "uint256",
          "name": "_minStake",
          "type": "uint256"
        }
      ],
      "name": "setDelegatorMinStake",
      "outputs": [],
      "stateMutability": "nonpayable",
      "type": "function"
    },
    {
      "inputs": [
        {
          "internalType": "bytes",
          "name": "_publicKey",
          "type": "bytes"
        },
        {
          "internalType": "bytes16",
          "name": "_ip",
          "type": "bytes16"
        },
        {
          "internalType": "bytes2",
          "name": "_port",
          "type": "bytes2"
        }
      ],
      "name": "setPoolInfo",
      "outputs": [],
      "stateMutability": "nonpayable",
      "type": "function"
    },
    {
      "inputs": [
        {
          "internalType": "uint256",
          "name": "_timestamp",
          "type": "uint256"
        }
      ],
      "name": "setStakingEpochStartTime",
      "outputs": [],
      "stateMutability": "nonpayable",
      "type": "function"
    },
    {
      "inputs": [
        {
          "internalType": "uint256",
          "name": "_value",
          "type": "uint256"
        }
      ],
      "name": "setStakingFixedEpochDuration",
      "outputs": [],
      "stateMutability": "nonpayable",
      "type": "function"
    },
    {
      "inputs": [
        {
          "internalType": "uint256",
          "name": "_value",
          "type": "uint256"
        }
      ],
      "name": "setStakingTransitionTimeframeLength",
      "outputs": [],
      "stateMutability": "nonpayable",
      "type": "function"
    },
    {
      "inputs": [
        {
          "internalType": "address",
          "name": "_validatorAddress",
          "type": "address"
        },
        {
          "internalType": "bytes16",
          "name": "_ip",
          "type": "bytes16"
        },
        {
          "internalType": "bytes2",
          "name": "_port",
          "type": "bytes2"
        }
      ],
      "name": "setValidatorInternetAddress",
      "outputs": [],
      "stateMutability": "nonpayable",
      "type": "function"
    },
    {
      "inputs": [
        {
          "internalType": "address",
          "name": "_toPoolStakingAddress",
          "type": "address"
        }
      ],
      "name": "stake",
      "outputs": [],
      "stateMutability": "payable",
      "type": "function"
    },
    {
      "inputs": [
        {
          "internalType": "address",
          "name": "",
          "type": "address"
        },
        {
          "internalType": "address",
          "name": "",
          "type": "address"
        }
      ],
      "name": "stakeAmount",
      "outputs": [
        {
          "internalType": "uint256",
          "name": "",
          "type": "uint256"
        }
      ],
      "stateMutability": "view",
      "type": "function"
    },
    {
      "inputs": [
        {
          "internalType": "address",
          "name": "_poolStakingAddress",
          "type": "address"
        },
        {
          "internalType": "address",
          "name": "_staker",
          "type": "address"
        }
      ],
      "name": "stakeAmountByCurrentEpoch",
      "outputs": [
        {
          "internalType": "uint256",
          "name": "",
          "type": "uint256"
        }
      ],
      "stateMutability": "view",
      "type": "function"
    },
    {
      "inputs": [
        {
          "internalType": "address",
          "name": "",
          "type": "address"
        }
      ],
      "name": "stakeAmountTotal",
      "outputs": [
        {
          "internalType": "uint256",
          "name": "",
          "type": "uint256"
        }
      ],
      "stateMutability": "view",
      "type": "function"
    },
    {
      "inputs": [
        {
          "internalType": "address",
          "name": "",
          "type": "address"
        },
        {
          "internalType": "address",
          "name": "",
          "type": "address"
        }
      ],
      "name": "stakeFirstEpoch",
      "outputs": [
        {
          "internalType": "uint256",
          "name": "",
          "type": "uint256"
        }
      ],
      "stateMutability": "view",
      "type": "function"
    },
    {
      "inputs": [
        {
          "internalType": "address",
          "name": "",
          "type": "address"
        },
        {
          "internalType": "address",
          "name": "",
          "type": "address"
        }
      ],
      "name": "stakeLastEpoch",
      "outputs": [
        {
          "internalType": "uint256",
          "name": "",
          "type": "uint256"
        }
      ],
      "stateMutability": "view",
      "type": "function"
    },
    {
      "inputs": [],
      "name": "stakingEpoch",
      "outputs": [
        {
          "internalType": "uint256",
          "name": "",
          "type": "uint256"
        }
      ],
      "stateMutability": "view",
      "type": "function"
    },
    {
      "inputs": [],
      "name": "stakingEpochStartBlock",
      "outputs": [
        {
          "internalType": "uint256",
          "name": "",
          "type": "uint256"
        }
      ],
      "stateMutability": "view",
      "type": "function"
    },
    {
      "inputs": [],
      "name": "stakingEpochStartTime",
      "outputs": [
        {
          "internalType": "uint256",
          "name": "",
          "type": "uint256"
        }
      ],
      "stateMutability": "view",
      "type": "function"
    },
    {
      "inputs": [],
      "name": "stakingFixedEpochDuration",
      "outputs": [
        {
          "internalType": "uint256",
          "name": "",
          "type": "uint256"
        }
      ],
      "stateMutability": "view",
      "type": "function"
    },
    {
      "inputs": [],
      "name": "stakingFixedEpochEndTime",
      "outputs": [
        {
          "internalType": "uint256",
          "name": "",
          "type": "uint256"
        }
      ],
      "stateMutability": "view",
      "type": "function"
    },
    {
      "inputs": [],
      "name": "stakingTransitionTimeframeLength",
      "outputs": [
        {
          "internalType": "uint256",
          "name": "",
          "type": "uint256"
        }
      ],
      "stateMutability": "view",
      "type": "function"
    },
    {
      "inputs": [],
      "name": "stakingWithdrawDisallowPeriod",
      "outputs": [
        {
          "internalType": "uint256",
          "name": "",
          "type": "uint256"
        }
      ],
      "stateMutability": "view",
      "type": "function"
    },
    {
      "inputs": [],
      "name": "startTimeOfNextPhaseTransition",
      "outputs": [
        {
          "internalType": "uint256",
          "name": "",
          "type": "uint256"
        }
      ],
      "stateMutability": "view",
      "type": "function"
    },
    {
      "inputs": [
        {
          "internalType": "address",
          "name": "newOwner",
          "type": "address"
        }
      ],
      "name": "transferOwnership",
      "outputs": [],
      "stateMutability": "nonpayable",
      "type": "function"
    },
    {
      "inputs": [],
      "name": "validatorSetContract",
      "outputs": [
        {
          "internalType": "contract IValidatorSetHbbft",
          "name": "",
          "type": "address"
        }
      ],
      "stateMutability": "view",
      "type": "function"
    },
    {
      "inputs": [
        {
          "internalType": "address",
          "name": "_fromPoolStakingAddress",
          "type": "address"
        },
        {
          "internalType": "uint256",
          "name": "_amount",
          "type": "uint256"
        }
      ],
      "name": "withdraw",
      "outputs": [],
      "stateMutability": "nonpayable",
      "type": "function"
    },
    {
      "stateMutability": "payable",
      "type": "receive"
    }
  ],
  "bytecode": "0x60806040523480156200001157600080fd5b506200001c62000022565b620000e3565b600054610100900460ff16156200008f5760405162461bcd60e51b815260206004820152602760248201527f496e697469616c697a61626c653a20636f6e747261637420697320696e697469604482015266616c697a696e6760c81b606482015260840160405180910390fd5b60005460ff90811614620000e1576000805460ff191660ff9081179091556040519081527f7f26b83ff96e1f2b6a682f133852f6798a09c465da95921460cefb38474024989060200160405180910390a15b565b61752d80620000f36000396000f3fe608060405260043610620004fe5760003560e01c80638da5cb5b116200028f578063c6912cc0116200015d578063edd7db7511620000ca578063f2fde38b1162000095578063f49425011162000078578063f49425011462001020578063fa4aaf471462001036578063fb367a9b146200106757600080fd5b8063f2fde38b1462000fd6578063f3fef3a31462000ffb57600080fd5b8063edd7db751462000f5d578063edf94b821462000f75578063ee435f551462000fa6578063f07860961462000fbe57600080fd5b8063da7a9b6a1162000128578063df6f55f5116200010b578063df6f55f51462000ee7578063dfc8bf4e1462000eff578063e9ab03001462000f2157600080fd5b8063da7a9b6a1462000e9e578063dadee88a1462000eb657600080fd5b8063c6912cc01462000e24578063c7fe83261462000e3c578063cfef14411462000e61578063d290c21d1462000e8657600080fd5b8063a5d54f6511620001fc578063ae1aaf8011620001c7578063b42754a511620001aa578063b42754a51462000d92578063b61ed63a1462000dc3578063bc9eb2c31462000de857600080fd5b8063ae1aaf801462000d55578063b0bd5e9e1462000d6d57600080fd5b8063a5d54f651462000cc4578063a697ecff1462000cdc578063a711e6a11462000d18578063adddc0cf1462000d3d57600080fd5b80639a7b5f11116200025a5780639e72c635116200023d5780639e72c6351462000c3e5780639ea8082b1462000c63578063a42059671462000c8857600080fd5b80639a7b5f111462000bf05780639b03d7441462000c2657600080fd5b80638da5cb5b1462000b33578063950a65131462000b675780639518c4811462000b8c578063957950a71462000bc857600080fd5b80634f9a8d8f11620003cd5780637069e746116200033a578063794c0c6811620003055780637b15b94c11620002e85780637b15b94c1462000ac45780638247a2391462000ae9578063862be2871462000b0e57600080fd5b8063794c0c681462000a875780637b0a0f9b1462000a9f57600080fd5b80637069e74614620009de578063715018a614620009f657806373c218031462000a0e578063750dd2a11462000a3357600080fd5b80635d80ca32116200039857806365113918116200037b578063651139181462000961578063673a2a1f14620009925780636bda157714620009b957600080fd5b80635d80ca3214620009315780635fef7643146200094957600080fd5b80634f9a8d8f14620008955780635267e1d614620008ad5780635659b74214620008de57806356e4d6c2146200091a57600080fd5b80632bafde8d116200046c578063379b046a11620004375780633ea15d62116200041a5780633ea15d62146200081757806348aaa4a2146200083c5780634e9b426d146200086157600080fd5b8063379b046a14620007da5780633b7d094614620007f257600080fd5b80632bafde8d14620007135780633172773014620007385780633219d600146200078e5780633715426314620007c257600080fd5b80631fb31e4311620004ca57806322e3d98611620004ad57806322e3d98614620006bf578063251441a914620006d75780632647620414620006fc57600080fd5b80631fb31e43146200061957806322704bdd146200069a57600080fd5b80622ceebc1462000556578063028b8bdb14620005ab5780630868c0d614620005c35780631555371c14620005ff57600080fd5b36620005515760405162461bcd60e51b815260206004820152600b60248201527f4e6f742070617961626c6500000000000000000000000000000000000000000060448201526064015b60405180910390fd5b600080fd5b3480156200056357600080fd5b506200059862000575366004620069c4565b607060209081526000938452604080852082529284528284209052825290205481565b6040519081526020015b60405180910390f35b348015620005b857600080fd5b5062000598607e5481565b348015620005d057600080fd5b5062000598620005e236600462006a0a565b607460209081526000928352604080842090915290825290205481565b3480156200060c57600080fd5b50620006176200108c565b005b3480156200062657600080fd5b50620006676200063836600462006a48565b6001600160a01b0316600090815260876020526040902060010154608081901b91600160801b90910460f01b90565b604080516fffffffffffffffffffffffffffffffff1990931683526001600160f01b0319909116602083015201620005a2565b348015620006a757600080fd5b5062000617620006b936600462006a68565b6200118a565b348015620006cc57600080fd5b50620005986200128c565b348015620006e457600080fd5b5062000617620006f6366004620069c4565b620012db565b620006176200070d36600462006a48565b62001415565b3480156200072057600080fd5b50620006176200073236600462006a68565b620014bc565b3480156200074557600080fd5b506200077d62000757366004620069c4565b607a60209081526000938452604080852082529284528284209052825290205460ff1681565b6040519015158152602001620005a2565b3480156200079b57600080fd5b506200077d620007ad36600462006a48565b60896020526000908152604090205460ff1681565b348015620007cf57600080fd5b5062000617620014cb565b348015620007e757600080fd5b506200059860845481565b348015620007ff57600080fd5b50620006176200081136600462006a48565b620019bc565b3480156200082457600080fd5b50620006176200083636600462006b66565b62001a1a565b3480156200084957600080fd5b50620006176200085b36600462006a68565b620020a5565b3480156200086e57600080fd5b50620008866200088036600462006a48565b620020b4565b604051620005a2919062006bfb565b348015620008a257600080fd5b506200059860805481565b348015620008ba57600080fd5b5062000598620008cc36600462006a48565b60856020526000908152604090205481565b348015620008eb57600080fd5b5062000598620008fd36600462006a0a565b607c60209081526000928352604080842090915290825290205481565b620006176200092b36600462006c83565b62002168565b3480156200093e57600080fd5b506200059860885481565b3480156200095657600080fd5b5062000598606e5481565b3480156200096e57600080fd5b50620005986200098036600462006a48565b60766020526000908152604090205481565b3480156200099f57600080fd5b50620009aa620022c4565b604051620005a2919062006cf2565b348015620009c657600080fd5b5062000598620009d836600462006a0a565b62002328565b348015620009eb57600080fd5b506200059860835481565b34801562000a0357600080fd5b5062000617620024df565b34801562000a1b57600080fd5b50620009aa62000a2d36600462006a48565b620024f7565b34801562000a4057600080fd5b506200059862000a5236600462006a0a565b6001600160a01b039182166000908152606d60209081526040808320939094168252918252828120607f548252909152205490565b34801562000a9457600080fd5b5062000598607f5481565b34801562000aac57600080fd5b506200061762000abe36600462006d5a565b6200256e565b34801562000ad157600080fd5b506200061762000ae336600462006a48565b62002611565b34801562000af657600080fd5b506200061762000b0836600462006a68565b620026a3565b34801562000b1b57600080fd5b506200061762000b2d36600462006da6565b620026fc565b34801562000b4057600080fd5b506033546001600160a01b03165b6040516001600160a01b039091168152602001620005a2565b34801562000b7457600080fd5b506200059862000b8636600462006a0a565b62002761565b34801562000b9957600080fd5b506200059862000bab36600462006a0a565b607560209081526000928352604080842090915290825290205481565b34801562000bd557600080fd5b5062000be0620028e4565b604051620005a292919062006e08565b34801562000bfd57600080fd5b5062000c1562000c0f36600462006a48565b62002949565b604051620005a29392919062006e52565b34801562000c3357600080fd5b506200059860825481565b34801562000c4b57600080fd5b506200061762000c5d36600462006a68565b62002a05565b34801562000c7057600080fd5b50620009aa62000c8236600462006a48565b62002a7a565b34801562000c9557600080fd5b506200059862000ca736600462006a0a565b607360209081526000928352604080842090915290825290205481565b34801562000cd157600080fd5b50620009aa62002af0565b34801562000ce957600080fd5b506200059862000cfb36600462006a0a565b607b60209081526000928352604080842090915290825290205481565b34801562000d2557600080fd5b506200077d62000d3736600462006a48565b62002b52565b34801562000d4a57600080fd5b506200061762002bb6565b34801562000d6257600080fd5b506200059860815481565b34801562000d7a57600080fd5b506200061762000d8c36600462006a68565b62002c23565b34801562000d9f57600080fd5b506200059862000db136600462006a48565b60776020526000908152604090205481565b34801562000dd057600080fd5b506200061762000de236600462006e9b565b62002cd1565b34801562000df557600080fd5b506200059862000e0736600462006a0a565b607d60209081526000928352604080842090915290825290205481565b34801562000e3157600080fd5b506200059862003298565b34801562000e4957600080fd5b506200061762000e5b36600462006f12565b620032c0565b34801562000e6e57600080fd5b506200061762000e8036600462006a48565b62003760565b34801562000e9357600080fd5b50620009aa62003a98565b34801562000eab57600080fd5b5062000598606f5481565b34801562000ec357600080fd5b506200059862000ed536600462006a48565b60726020526000908152604090205481565b34801562000ef457600080fd5b50620009aa62003afa565b34801562000f0c57600080fd5b5060865462000b4e906001600160a01b031681565b34801562000f2e57600080fd5b506200059862000f4036600462006a0a565b607160209081526000928352604080842090915290825290205481565b34801562000f6a57600080fd5b506200061762003b5c565b34801562000f8257600080fd5b506200059862000f9436600462006a48565b60796020526000908152604090205481565b34801562000fb357600080fd5b506200061762003d12565b34801562000fcb57600080fd5b5062000598610bb881565b34801562000fe357600080fd5b506200061762000ff536600462006a48565b62003d80565b3480156200100857600080fd5b50620006176200101a36600462006e9b565b62003e13565b3480156200102d57600080fd5b5060016200077d565b3480156200104357600080fd5b50620005986200105536600462006a48565b60786020526000908152604090205481565b3480156200107457600080fd5b50620005986200108636600462006fcd565b62003eb8565b6086546001600160a01b03163314620010dc5760405162461bcd60e51b815260206004820152601160248201527013db9b1e4815985b1a59185d1bdc94d95d607a1b604482015260640162000548565b600060688054806020026020016040519081016040528092919081815260200182805480156200113657602002820191906000526020600020905b81546001600160a01b0316815260019091019060200180831162001117575b5050505050905060005b815181101562001186576200117182828151811062001163576200116362007039565b60200260200101516200442d565b806200117d8162007065565b91505062001140565b5050565b62001194620045a8565b600a81116200120c5760405162461bcd60e51b815260206004820152602f60248201527f546865207472616e736974696f6e2074696d656672616d65206d75737420626560448201527f206c6f6e676572207468616e2031300000000000000000000000000000000000606482015260840162000548565b608054811062001287576040805162461bcd60e51b81526020600482015260248101919091527f546865207472616e736974696f6e2074696d656672616d65206d75737420626560448201527f20736d616c6c6572207468616e207468652065706f6368206475726174696f6e606482015260840162000548565b608155565b6082546080546000919015620012a4576001620012a7565b60005b60ff1660845460805483620012bd919062007081565b620012c9919062007081565b620012d5919062007097565b91505090565b3a6000036200131d5760405162461bcd60e51b815260206004820152600d60248201526c04761735072696365206973203609c1b604482015260640162000548565b816001600160a01b0316836001600160a01b031603620013a65760405162461bcd60e51b815260206004820152602760248201527f4d6f76655374616b653a2073726320616e642064737420706f6f6c206973207460448201527f68652073616d6500000000000000000000000000000000000000000000000000606482015260840162000548565b33620013b484828462004604565b620013c183828462004957565b607f54604080516001600160a01b0387811682526020820186905280851692908716917f4480d8e4b1e9095b94bf513961d26fe1d32386ebdd103d18fe8738cf4b2223ff910160405180910390a450505050565b3a600003620014575760405162461bcd60e51b815260206004820152600d60248201526c04761735072696365206973203609c1b604482015260640162000548565b33346200146683838362004957565b607f54826001600160a01b0316846001600160a01b03167f2273de02cb1f69ba6259d22c4bc22c60e4c94c193265ef6afee324a04a9b6d2284604051620014af91815260200190565b60405180910390a4505050565b620014c6620045a8565b606f55565b3a6000036200150d5760405162461bcd60e51b815260206004820152600d60248201526c04761735072696365206973203609c1b604482015260640162000548565b60008060668054806020026020016040519081016040528092919081815260200182805480156200156857602002820191906000526020600020905b81546001600160a01b0316815260019091019060200180831162001549575b505050505090508051600003620015c25760405162461bcd60e51b815260206004820152601260248201527f6e6f7468696e6720746f207265636f7665720000000000000000000000000000604482015260640162000548565b60005b8151811015620017bc576000828281518110620015e657620015e662007039565b60200260200101519050620015fb8162004f64565b80620016755750608654604051639d6fc1d160e01b81526001600160a01b03838116600483015290911690639d6fc1d190602401602060405180830381865afa1580156200164d573d6000803e3d6000fd5b505050506040513d601f19601f82011682018060405250810190620016739190620070ad565b155b15620016825750620017a9565b6200168d8162004fa3565b6001600160a01b0381166000908152608960209081526040808320805460ff191660011790556085909152812080549082905590620016cc8362002a7a565b905060005b815181101562001748576000828281518110620016f257620016f262007039565b6020908102919091018101516001600160a01b038088166000908152607b845260408082209284168252919093528220919091559050620017348582620050de565b50620017408162007065565b9050620016d1565b5062001755828762007081565b9550826001600160a01b0316336001600160a01b03167f8e6a4ccd7dccdca9ac211d00fcc3fa7c71be75ff73d3a35f63ea023173cc1004846040516200179d91815260200190565b60405180910390a35050505b620017b48162007065565b9050620015c5565b50816000036200180f5760405162461bcd60e51b815260206004820152601260248201527f6e6f7468696e6720746f207265636f7665720000000000000000000000000000604482015260640162000548565b60006200181e600284620070d1565b905060006200182e828562007097565b90506000608660009054906101000a90046001600160a01b03166001600160a01b03166356b54bae6040518163ffffffff1660e01b8152600401602060405180830381865afa15801562001886573d6000803e3d6000fd5b505050506040513d601f19601f82011682018060405250810190620018ac9190620070f4565b90506000816001600160a01b031663732524946040518163ffffffff1660e01b8152600401602060405180830381865afa158015620018ef573d6000803e3d6000fd5b505050506040513d601f19601f82011682018060405250810190620019159190620070f4565b9050816001600160a01b031663af182535846040518263ffffffff1660e01b81526004016000604051808303818588803b1580156200195357600080fd5b505af115801562001968573d6000803e3d6000fd5b505050505062001979818562005288565b604080518481526020810186905233917f1c113e6bae9530fea40323e612aeb0cb7817dedb5a0b0f6bdfbff97d55920dc7910160405180910390a2505050505050565b6086546001600160a01b0316331462001a0c5760405162461bcd60e51b815260206004820152601160248201527013db9b1e4815985b1a59185d1bdc94d95d607a1b604482015260640162000548565b62001a17816200442d565b50565b3a60000362001a5c5760405162461bcd60e51b815260206004820152600d60248201526c04761735072696365206973203609c1b604482015260640162000548565b336000806001600160a01b038416831462001b14576001600160a01b038085166000908152607c60209081526040808320938716835292905290812054925082900362001aec5760405162461bcd60e51b815260206004820152601d60248201527f436c61696d3a2066697273742065706f63682063616e27742062652030000000604482015260640162000548565b506001600160a01b038084166000908152607d60209081526040808320938616835292905220545b60865460408051632b5aa5d760e11b815290516000926001600160a01b0316916356b54bae9160048083019260209291908290030181865afa15801562001b5f573d6000803e3d6000fd5b505050506040513d601f19601f8201168201806040525081019062001b859190620070f4565b6086546040516253517560e01b81526001600160a01b038881166004830152929350600092909116906253517590602401602060405180830381865afa15801562001bd4573d6000803e3d6000fd5b505050506040513d601f19601f8201168201806040525081019062001bfa9190620070f4565b9050600080885160000362001c7d5760405163dd03f5b960e01b81526001600160a01b03848116600483015285169063dd03f5b990602401600060405180830381865afa15801562001c50573d6000803e3d6000fd5b505050506040513d6000823e601f3d908101601f1916820160405262001c7a919081019062007114565b98505b60005b8951811015620020355760008a828151811062001ca15762001ca162007039565b60200260200101519050816000148062001ce257508a62001cc460018462007097565b8151811062001cd75762001cd762007039565b602002602001015181115b62001d565760405162461bcd60e51b815260206004820152602560248201527f436c61696d3a206e656564207374726963746c7920696e6372656173696e672060448201527f6f72646572000000000000000000000000000000000000000000000000000000606482015260840162000548565b607f54811062001da95760405162461bcd60e51b815260206004820181905260248201527f436c61696d3a206f6e6c79206265666f72652063757272656e742065706f6368604482015260640162000548565b6001600160a01b03808b166000908152607a60209081526040808320938d1683529281528282208483529052205460ff161562001de7575062002020565b6000896001600160a01b03168b6001600160a01b03161462001ed7578882101562001e1457505062002020565b81881115801562001e2457508715155b1562001e3257505062002035565b62001e41828a868e8e62005386565b935062001e5082600162007081565b604051631c3572db60e31b815260048101869052602481018490526001600160a01b038881166044830152919a509088169063e1ab96d890606401602060405180830381865afa15801562001ea9573d6000803e3d6000fd5b505050506040513d601f19601f8201168201806040525081019062001ecf9190620071ae565b905062001f4e565b60405163ba2d759760e01b8152600481018390526001600160a01b03878116602483015288169063ba2d759790604401602060405180830381865afa15801562001f25573d6000803e3d6000fd5b505050506040513d601f19601f8201168201806040525081019062001f4b9190620071ae565b90505b62001f5a818662007081565b94506001607a60008d6001600160a01b03166001600160a01b0316815260200190815260200160002060008c6001600160a01b03166001600160a01b03168152602001908152602001600020600084815260200190815260200160002060006101000a81548160ff021916908315150217905550818a6001600160a01b03168c6001600160a01b03167fd3208fd5300db64b97bc442f47ade72b7ebcd9272aaecdcc04c777bb762861b9846040516200201591815260200190565b60405180910390a450505b806200202c8162007065565b91505062001c80565b5060405163234a83e360e11b8152600481018390526001600160a01b03888116602483015285169063469507c690604401600060405180830381600087803b1580156200208157600080fd5b505af115801562002096573d6000803e3d6000fd5b50505050505050505050505050565b620020af620045a8565b606e55565b6001600160a01b0381166000908152608760205260409020805460609190620020dd90620071c8565b80601f01602080910402602001604051908101604052809291908181526020018280546200210b90620071c8565b80156200215c5780601f1062002130576101008083540402835291602001916200215c565b820191906000526020600020905b8154815290600101906020018083116200213e57829003601f168201915b50505050509050919050565b3a600003620021aa5760405162461bcd60e51b815260206004820152600d60248201526c04761735072696365206973203609c1b604482015260640162000548565b608654604051630526083960e11b81526001600160a01b0386811660048301523360248301819052923492911690630a4c107290604401600060405180830381600087803b158015620021fc57600080fd5b505af115801562002211573d6000803e3d6000fd5b505050506200222282838362004957565b6001600160a01b0382166000908152608760205260409020620022478587836200724e565b506001600160a01b03821660008181526087602090815260409182902060010180546fffffffffffffffffffffffffffffffff1916608088901c179055607f54915184815291929182917f2273de02cb1f69ba6259d22c4bc22c60e4c94c193265ef6afee324a04a9b6d22910160405180910390a4505050505050565b606060658054806020026020016040519081016040528092919081815260200182805480156200231e57602002820191906000526020600020905b81546001600160a01b03168152600190910190602001808311620022ff575b5050505050905090565b6086546040516253517560e01b81526001600160a01b03848116600483015260009283929116906253517590602401602060405180830381865afa15801562002375573d6000803e3d6000fd5b505050506040513d601f19601f820116820180604052508101906200239b9190620070f4565b9050620023be81846001600160a01b0316866001600160a01b0316141562005409565b1580620023e357506001600160a01b03841660009081526089602052604090205460ff165b15620023f4576000915050620024d9565b6001600160a01b038481166000908152607b6020908152604080832087851684529091529081902054608654915163a0d16cad60e01b815284841660048201529092919091169063a0d16cad90602401602060405180830381865afa15801562002462573d6000803e3d6000fd5b505050506040513d601f19601f82011682018060405250810190620024889190620070ad565b62002497579150620024d99050565b6001600160a01b038581166000908152606d602090815260408083209388168352928152828220607f5483529052205480821115620024d4578091505b509150505b92915050565b620024e9620045a8565b620024f5600062005521565b565b6001600160a01b0381166000908152606c60209081526040918290208054835181840281018401909452808452606093928301828280156200215c57602002820191906000526020600020905b81546001600160a01b03168152600190910190602001808311620025445750505050509050919050565b6086546001600160a01b03163314620025be5760405162461bcd60e51b815260206004820152601160248201527013db9b1e4815985b1a59185d1bdc94d95d607a1b604482015260640162000548565b6001600160a01b039092166000908152608760205260409020600101805460f09390931c600160801b0271ffffffffffffffffffffffffffffffffffff1990931660809290921c91909117919091179055565b6086546001600160a01b03163314620026615760405162461bcd60e51b815260206004820152601160248201527013db9b1e4815985b1a59185d1bdc94d95d607a1b604482015260640162000548565b606e546001600160a01b0382166000908152607b602090815260408083209091529020541062001a17576200269881600162005573565b62001a178162005652565b6086546001600160a01b03163314620026f35760405162461bcd60e51b815260206004820152601160248201527013db9b1e4815985b1a59185d1bdc94d95d607a1b604482015260640162000548565b60825543608355565b336000908152608760205260409020620027188486836200724e565b50336000908152608760205260409020600101805460f09290921c600160801b0271ffffffffffffffffffffffffffffffffffff1990921660809390931c929092171790555050565b6086546040516253517560e01b81526001600160a01b03848116600483015260009283929116906253517590602401602060405180830381865afa158015620027ae573d6000803e3d6000fd5b505050506040513d601f19601f82011682018060405250810190620027d49190620070f4565b9050620027f781846001600160a01b0316866001600160a01b0316141562005409565b62002807576000915050620024d9565b60865460405163a0d16cad60e01b81526001600160a01b0383811660048301529091169063a0d16cad90602401602060405180830381865afa15801562002852573d6000803e3d6000fd5b505050506040513d601f19601f82011682018060405250810190620028789190620070ad565b62002888576000915050620024d9565b6001600160a01b038481166000818152606d60209081526040808320948816808452948252808320607f548452825280832054938352607b82528083209483529390529190912054620028dc919062007097565b949350505050565b606060006069606a54818054806020026020016040519081016040528092919081815260200182805480156200293a57602002820191906000526020600020905b81548152602001906001019080831162002925575b50505050509150915091509091565b6087602052600090815260409020805481906200296690620071c8565b80601f01602080910402602001604051908101604052809291908181526020018280546200299490620071c8565b8015620029e55780601f10620029b957610100808354040283529160200191620029e5565b820191906000526020600020905b815481529060010190602001808311620029c757829003601f168201915b50505060019093015491925050608081901b90600160801b900460f01b83565b6086546001600160a01b0316331462002a555760405162461bcd60e51b815260206004820152601160248201527013db9b1e4815985b1a59185d1bdc94d95d607a1b604482015260640162000548565b6081548160845462002a68919062007081565b62002a74919062007081565b60845550565b6001600160a01b0381166000908152606b60209081526040918290208054835181840281018401909452808452606093928301828280156200215c576020028201919060005260206000209081546001600160a01b03168152600190910190602001808311620025445750505050509050919050565b606060678054806020026020016040519081016040528092919081815260200182805480156200231e576020028201919060005260206000209081546001600160a01b03168152600190910190602001808311620022ff575050505050905090565b6001600160a01b0381166000908152607760205260408120546065548110801562002baf5750826001600160a01b03166065828154811062002b985762002b9862007039565b6000918252602090912001546001600160a01b0316145b9392505050565b6086546001600160a01b0316331462002c065760405162461bcd60e51b815260206004820152601160248201527013db9b1e4815985b1a59185d1bdc94d95d607a1b604482015260640162000548565b6081546084600082825462002c1c919062007081565b9091555050565b62002c2d620045a8565b608154811162002ccc5760405162461bcd60e51b815260206004820152605760248201527f5468652066697865642065706f6368206475726174696f6e2074696d6566726160448201527f6d65206d7573742062652067726561746572207468616e20746865207472616e60648201527f736974696f6e2074696d656672616d65206c656e677468000000000000000000608482015260a40162000548565b608055565b3a60000362002d135760405162461bcd60e51b815260206004820152600d60248201526c04761735072696365206973203609c1b604482015260640162000548565b6001600160a01b03821662002d765760405162461bcd60e51b815260206004820152602260248201527f706f6f6c5374616b696e6741646472657373206d757374206e6f742062652030604482015261078360f41b606482015260840162000548565b8060000362002dee5760405162461bcd60e51b815260206004820152602560248201527f6f72646572656420776974686472617720616d6f756e74206d757374206e6f7460448201527f2062652030000000000000000000000000000000000000000000000000000000606482015260840162000548565b6086546040516253517560e01b81526001600160a01b038481166004830152339262002e7f929116906253517590602401602060405180830381865afa15801562002e3d573d6000803e3d6000fd5b505050506040513d601f19601f8201168201806040525081019062002e639190620070f4565b846001600160a01b0316836001600160a01b0316141562005409565b62002ecd5760405162461bcd60e51b815260206004820152601a60248201527f4f7264657257697468647261773a206e6f7420616c6c6f776564000000000000604482015260640162000548565b6001600160a01b038084166000818152607160209081526040808320948616808452948252808320548484526072835281842054607b84528285209685529583528184205494845260859092528220549093929186131562003016578562002f36888762002761565b81111562002fad5760405162461bcd60e51b815260206004820152602f60248201527f4f7264657257697468647261773a206d617857697468647261774f726465724160448201527f6c6c6f7765642065786365656465640000000000000000000000000000000000606482015260840162000548565b62002fb9818662007081565b945062002fc7818562007081565b935062002fd5818462007097565b925062002fe3818362007097565b607f546001600160a01b03808b166000908152607360209081526040808320938c168352929052205591506200305f9050565b600062003023876200731b565b905062003031818662007097565b94506200303f818562007097565b93506200304d818462007081565b92506200305b818362007081565b9150505b6001600160a01b038088166000818152607160209081526040808320948a1680845294825280832089905583835260728252808320889055607b825280832085845282528083208790558383526085909152902083905590036200317257811580620030cd5750606e548210155b620031415760405162461bcd60e51b815260206004820152603360248201527f6e65775374616b6520416d6f756e74206d75737420626520677265617465722060448201527f7468616e20746865206d696e207374616b652e00000000000000000000000000606482015260840162000548565b60008613156200316557816000036200315f576200315f8762005732565b62003233565b6200315f87600162005573565b811580620031825750606f548210155b620031f65760405162461bcd60e51b815260206004820152603360248201527f6e65775374616b6520416d6f756e74206d75737420626520677265617465722060448201527f7468616e20746865206d696e207374616b652e00000000000000000000000000606482015260840162000548565b60008613156200321b57816000036200321557620032158786620050de565b62003227565b620032278786620057fd565b620032338786620058cc565b6200323e8762005652565b607f54856001600160a01b0316886001600160a01b03167f80d5c777e5f7ac6ee89723223803ca5c0ec0204f89e99c1b0cde973c66a64594896040516200328791815260200190565b60405180910390a450505050505050565b6000608154608054608254620032af919062007081565b620032bb919062007097565b905090565b600054610100900460ff1615808015620032e15750600054600160ff909116105b80620032fd5750303b158015620032fd575060005460ff166001145b620033715760405162461bcd60e51b815260206004820152602e60248201527f496e697469616c697a61626c653a20636f6e747261637420697320616c72656160448201527f647920696e697469616c697a6564000000000000000000000000000000000000606482015260840162000548565b6000805460ff19166001179055801562003395576000805461ff0019166101001790555b6001600160a01b038716620033ed5760405162461bcd60e51b815260206004820152601960248201527f4f776e657220616464726573732063616e6e6f74206265203000000000000000604482015260640162000548565b8560a00135600003620034435760405162461bcd60e51b815260206004820152601760248201527f466978656445706f63684475726174696f6e2069732030000000000000000000604482015260640162000548565b8560e001358660a0013511620034c25760405162461bcd60e51b815260206004820152603d60248201527f466978656445706f63684475726174696f6e206d757374206265206c6f6e676560448201527f72207468616e207769746864726177446973616c6c6f77506572696f64000000606482015260840162000548565b8560e00135600003620035185760405162461bcd60e51b815260206004820152601b60248201527f5769746864726177446973616c6c6f77506572696f6420697320300000000000604482015260640162000548565b8560c00135600003620035945760405162461bcd60e51b815260206004820152602e60248201527f546865207472616e736974696f6e2074696d656672616d65206d75737420626560448201527f206c6f6e676572207468616e2030000000000000000000000000000000000000606482015260840162000548565b8560a001358660c001351062003615576040805162461bcd60e51b81526020600482015260248101919091527f546865207472616e736974696f6e2074696d656672616d65206d75737420626560448201527f2073686f72746572207468656e207468652065706f6368206475726174696f6e606482015260840162000548565b6200361f620059d8565b6200362a8762005521565b620036f46200363d602088018862006a48565b6200364c60208901896200733a565b8080602002602001604051908101604052809392919081815260200183836020028082843760009201919091525050604080516020808c02828101820184528c8352928e0135945060608e0135935060808e0135928d918d91829185019084908082843760009201919091525050604080516020808e0282810182019093528d82529093508d92508c91829185019084908082843760009201919091525062005a4f92505050565b60a086013560805560e0860135607e554260825560c0860135608155801562003757576000805461ff0019169055604051600181527f7f26b83ff96e1f2b6a682f133852f6798a09c465da95921460cefb38474024989060200160405180910390a15b50505050505050565b3a600003620037a25760405162461bcd60e51b815260206004820152600d60248201526c04761735072696365206973203609c1b604482015260640162000548565b6001600160a01b038116600090815260736020908152604080832033808552925290912054607f54116200383f5760405162461bcd60e51b815260206004820152603f60248201527f63616e6e6f7420636c61696d206f72646572656420776974686472617720696e60448201527f207468652073616d652065706f636820697420776173206f7264657265642e00606482015260840162000548565b6086546040516253517560e01b81526001600160a01b038481166004830152620038cd9216906253517590602401602060405180830381865afa1580156200388b573d6000803e3d6000fd5b505050506040513d601f19601f82011682018060405250810190620038b19190620070f4565b836001600160a01b0316836001600160a01b0316141562005409565b620039415760405162461bcd60e51b815260206004820152602a60248201527f436c61696d4f72646572656457697468647261773a205769746864726177206e60448201527f6f7420616c6c6f77656400000000000000000000000000000000000000000000606482015260840162000548565b6001600160a01b03808316600090815260716020908152604080832093851683529290529081205490819003620039bb5760405162461bcd60e51b815260206004820152601a60248201527f636c61696d20616d6f756e74206d757374206e6f742062652030000000000000604482015260640162000548565b6001600160a01b038084166000818152607160209081526040808320948716835293815283822082905591815260729091522054620039fc90829062007097565b6001600160a01b03808516600090815260726020908152604080832094909455607b815283822092861682529190915290812054900362003a435762003a43838362005fcc565b62003a4f82826200610d565b607f54826001600160a01b0316846001600160a01b03167ff380b0bc887e00f5b50d3c9d4eaaf5c9a0afd97b956316b995159384c4ede9b384604051620014af91815260200190565b606060688054806020026020016040519081016040528092919081815260200182805480156200231e576020028201919060005260206000209081546001600160a01b03168152600190910190602001808311620022ff575050505050905090565b606060668054806020026020016040519081016040528092919081815260200182805480156200231e576020028201919060005260206000209081546001600160a01b03168152600190910190602001808311620022ff575050505050905090565b3a60000362003b9e5760405162461bcd60e51b815260206004820152600d60248201526c04761735072696365206973203609c1b604482015260640162000548565b6086546040516253517560e01b81523360048201819052916000916001600160a01b03909116906253517590602401602060405180830381865afa15801562003beb573d6000803e3d6000fd5b505050506040513d601f19601f8201168201806040525081019062003c119190620070f4565b90506000607f54118062003c93575060865460405163facd743b60e01b81526001600160a01b0383811660048301529091169063facd743b90602401602060405180830381865afa15801562003c6b573d6000803e3d6000fd5b505050506040513d601f19601f8201168201806040525081019062003c919190620070ad565b155b62003d075760405162461bcd60e51b815260206004820152602a60248201527f43616e27742072656d6f766520706f6f6c20647572696e67203173742073746160448201527f6b696e672065706f636800000000000000000000000000000000000000000000606482015260840162000548565b62001186826200442d565b6086546001600160a01b0316331462003d625760405162461bcd60e51b815260206004820152601160248201527013db9b1e4815985b1a59185d1bdc94d95d607a1b604482015260640162000548565b607f805490600062003d748362007065565b90915550506000608455565b62003d8a620045a8565b6001600160a01b03811662003e085760405162461bcd60e51b815260206004820152602660248201527f4f776e61626c653a206e6577206f776e657220697320746865207a65726f206160448201527f6464726573730000000000000000000000000000000000000000000000000000606482015260840162000548565b62001a178162005521565b3a60000362003e555760405162461bcd60e51b815260206004820152600d60248201526c04761735072696365206973203609c1b604482015260640162000548565b3362003e6383828462004604565b62003e6f81836200610d565b607f54816001600160a01b0316846001600160a01b03167fa7c0f0cac6bd4d18042007706c84a8abe823751cf289b69c01e83eef7b5915c785604051620014af91815260200190565b600080806001600160a01b038581169085161462003f99576001600160a01b038086166000908152607c60209081526040808320938816835292905290812054925082900362003f715760405162461bcd60e51b815260206004820152602e60248201527f556e61626c6520746f206765742072657761726420616d6f756e74206966206e60448201527f6f2066697273742065706f63682e000000000000000000000000000000000000606482015260840162000548565b506001600160a01b038085166000908152607d60209081526040808320938716835292905220545b60865460408051632b5aa5d760e11b815290516000926001600160a01b0316916356b54bae9160048083019260209291908290030181865afa15801562003fe4573d6000803e3d6000fd5b505050506040513d601f19601f820116820180604052508101906200400a9190620070f4565b6086546040516253517560e01b81526001600160a01b038981166004830152929350600092909116906253517590602401602060405180830381865afa15801562004059573d6000803e3d6000fd5b505050506040513d601f19601f820116820180604052508101906200407f9190620070f4565b90506000808951600003620041025760405163dd03f5b960e01b81526001600160a01b03848116600483015285169063dd03f5b990602401600060405180830381865afa158015620040d5573d6000803e3d6000fd5b505050506040513d6000823e601f3d908101601f19168201604052620040ff919081019062007114565b99505b60005b8a518110156200441f5760008b828151811062004126576200412662007039565b6020026020010151905081600014806200416757508b6200414960018462007097565b815181106200415c576200415c62007039565b602002602001015181115b620041db5760405162461bcd60e51b815260206004820152603660248201527f696e7465726e616c204572726f723a205374616b696e672045706f636873207260448201527f6571756972656420746f206265206f7264657265642e00000000000000000000606482015260840162000548565b607f548110620042545760405162461bcd60e51b815260206004820152603c60248201527f696e7465726e616c204572726f723a2065706f6368206d757374206e6f74206260448201527f65206c6573736572207468616e2063757272656e742065706f63682e00000000606482015260840162000548565b6001600160a01b03808c166000908152607a60209081526040808320938e1683529281528282208483529052205460ff16156200429257506200440a565b60008a6001600160a01b03168c6001600160a01b031614620043825788821015620042bf5750506200440a565b818811158015620042cf57508715155b15620042dd5750506200441f565b620042ec828a878f8f62005386565b9450620042fb82600162007081565b604051631c3572db60e31b815260048101879052602481018490526001600160a01b038881166044830152919a509088169063e1ab96d890606401602060405180830381865afa15801562004354573d6000803e3d6000fd5b505050506040513d601f19601f820116820180604052508101906200437a9190620071ae565b9050620043f9565b60405163ba2d759760e01b8152600481018390526001600160a01b03878116602483015288169063ba2d759790604401602060405180830381865afa158015620043d0573d6000803e3d6000fd5b505050506040513d601f19601f82011682018060405250810190620043f69190620071ae565b90505b62004405818562007081565b935050505b80620044168162007065565b91505062004105565b509998505050505050505050565b6001600160a01b038116600090815260776020526040902054606554811080156200448a5750816001600160a01b03166065828154811062004473576200447362007039565b6000918252602090912001546001600160a01b0316145b1562004565576065805460009190620044a69060019062007097565b81548110620044b957620044b962007039565b600091825260209091200154606580546001600160a01b039092169250829184908110620044eb57620044eb62007039565b600091825260208083209190910180546001600160a01b0319166001600160a01b039485161790558383168252607790526040808220859055918516815290812055606580548062004541576200454162007387565b600082815260209020810160001990810180546001600160a01b0319169055019055505b620045708262004f64565b156200458757620045818262004fa3565b62004592565b620045928262006175565b6200459d8262006239565b62001186826200647a565b6033546001600160a01b03163314620024f55760405162461bcd60e51b815260206004820181905260248201527f4f776e61626c653a2063616c6c6572206973206e6f7420746865206f776e6572604482015260640162000548565b6001600160a01b038316620046825760405162461bcd60e51b815260206004820152602e60248201527f576974686472617720706f6f6c207374616b696e672061646472657373206d7560448201527f7374206e6f74206265206e756c6c000000000000000000000000000000000000606482015260840162000548565b80600003620046d45760405162461bcd60e51b815260206004820181905260248201527f616d6f756e7420746f207769746864726177206d757374206e6f742062652030604482015260640162000548565b620046e0838362002328565b811115620047575760405162461bcd60e51b815260206004820152602560248201527f57697468647261773a206d61785769746864726177416c6c6f7765642065786360448201527f6565646564000000000000000000000000000000000000000000000000000000606482015260840162000548565b6001600160a01b038084166000908152607b602090815260408083209386168352929052908120546200478c90839062007097565b90506000836001600160a01b0316856001600160a01b031614620047b357606f54620047b7565b606e545b9050811580620047c75750808210155b6200483b5760405162461bcd60e51b815260206004820152603960248201527f6e65775374616b6520616d6f756e74206d75737420626520677265617465722060448201527f657175616c207468616e20746865206d696e207374616b652e00000000000000606482015260840162000548565b6001600160a01b038581166000818152607b60209081526040808320948916808452948252808320879055928252606d8152828220938252928352818120607f5482529092529020548381101562004895576000620048a1565b620048a1848262007097565b6001600160a01b038088166000818152606d60209081526040808320948b168352938152838220607f5483528152838220949094559081526085909252902054620048ee90859062007097565b6001600160a01b0387166000908152608560205260408120919091558390036200491e576200491e868662005fcc565b856001600160a01b0316856001600160a01b0316146200494457620049448686620058cc565b6200494f8662005652565b505050505050565b6086546040516253517560e01b81526001600160a01b03858116600483015260009216906253517590602401602060405180830381865afa158015620049a1573d6000803e3d6000fd5b505050506040513d601f19601f82011682018060405250810190620049c79190620070f4565b90506001600160a01b03811662004a49576040805162461bcd60e51b81526020600482015260248101919091527f506f6f6c20646f6573206e6f742065786973742e206d696e696e67416464726560448201527f737320666f722074686174207374616b696e6720616464726573732069732030606482015260840162000548565b6001600160a01b03841662004aa15760405162461bcd60e51b815260206004820152601a60248201527f5374616b653a207374616b696e67416464726573732069732030000000000000604482015260640162000548565b8160000362004af35760405162461bcd60e51b815260206004820152601960248201527f5374616b653a207374616b696e67416d6f756e74206973203000000000000000604482015260640162000548565b608654604051635491295760e11b81526001600160a01b0383811660048301529091169063a92252ae90602401602060405180830381865afa15801562004b3e573d6000803e3d6000fd5b505050506040513d601f19601f8201168201806040525081019062004b649190620070ad565b1562004bb35760405162461bcd60e51b815260206004820152601f60248201527f5374616b653a204d696e696e6720616464726573732069732062616e6e656400604482015260640162000548565b6001600160a01b03841660009081526089602052604090205460ff161562004c1e5760405162461bcd60e51b815260206004820152601560248201527f5374616b653a20706f6f6c206162616e646f6e65640000000000000000000000604482015260640162000548565b6001600160a01b038085166000908152607b6020908152604080832093871683529290529081205462004c5390849062007081565b9050846001600160a01b0316846001600160a01b03160362004cef57606e5481101562004ce95760405162461bcd60e51b815260206004820152603160248201527f5374616b653a2063616e6469646174655374616b65206c657373207468616e2060448201527f63616e6469646174654d696e5374616b65000000000000000000000000000000606482015260840162000548565b62004de6565b606f5481101562004d695760405162461bcd60e51b815260206004820152603460248201527f5374616b653a2064656c656761746f725374616b65206973206c65737320746860448201527f616e2064656c656761746f724d696e5374616b65000000000000000000000000606482015260840162000548565b6001600160a01b0385166000908152607b60209081526040808320909152812054900362004de65760405162461bcd60e51b815260206004820152602360248201527f5374616b653a2063616e27742064656c656761746520696e20656d70747920706044820152621bdbdb60ea1b606482015260840162000548565b6088546001600160a01b03861660009081526085602052604090205462004e0f90859062007081565b111562004e5f5760405162461bcd60e51b815260206004820152601d60248201527f7374616b65206c696d697420686173206265656e206578636565646564000000604482015260640162000548565b6001600160a01b038581166000818152607b60209081526040808320948916808452948252808320869055928252606d8152828220938252928352818120607f54825290925290205462004eb590849062007081565b6001600160a01b038087166000818152606d60209081526040808320948a168352938152838220607f548352815283822094909455908152608590925290205462004f0290849062007081565b6001600160a01b0380871660008181526085602052604090209290925585160362004f3a5762004f3485600162005573565b62004f52565b62004f468585620057fd565b62004f528585620058cc565b62004f5d8562005652565b5050505050565b6001600160a01b038116600090815260856020526040812054158015620024d95750506001600160a01b03166000908152607260205260409020541590565b6001600160a01b03811660009081526076602052604090205460665481108015620050005750816001600160a01b03166066828154811062004fe95762004fe962007039565b6000918252602090912001546001600160a01b0316145b15620011865760668054600091906200501c9060019062007097565b815481106200502f576200502f62007039565b600091825260209091200154606680546001600160a01b03909216925082918490811062005061576200506162007039565b600091825260208083209190910180546001600160a01b0319166001600160a01b0394851617905583831682526076905260408082208590559185168152908120556066805480620050b757620050b762007387565b600082815260209020810160001990810180546001600160a01b0319169055019055505050565b6001600160a01b038083166000908152606b60209081526040808320607483528184209486168452939091529020548154811080156200514f5750826001600160a01b031682828154811062005138576200513862007039565b6000918252602090912001546001600160a01b0316145b156200523857815460009083906200516a9060019062007097565b815481106200517d576200517d62007039565b9060005260206000200160009054906101000a90046001600160a01b0316905080838381548110620051b357620051b362007039565b600091825260208083209190910180546001600160a01b0319166001600160a01b0394851617905587831682526074815260408083208585168452909152808220859055918616815290812055825483908062005214576200521462007387565b600082815260209020810160001990810180546001600160a01b0319169055019055505b6001600160a01b038085166000908152607160209081526040808320938716835292905220541562005276576200527084846200658e565b62005282565b62005282848462006657565b50505050565b80471015620052da5760405162461bcd60e51b815260206004820152601460248201527f496e73756666696369656e742062616c616e6365000000000000000000000000604482015260640162000548565b6000826001600160a01b03168260405160006040518083038185875af1925050503d806000811462005329576040519150601f19603f3d011682016040523d82523d6000602084013e6200532e565b606091505b5050905080620053815760405162461bcd60e51b815260206004820152600f60248201527f5472616e73666572206661696c65640000000000000000000000000000000000604482015260640162000548565b505050565b60005b506001600160a01b0380831660009081526070602090815260408083209385168352928152828220888352905220548015620053db576000198114620053d05780620053d3565b60005b905062005400565b848603620053eb57508262005400565b85620053f7816200739d565b96505062005389565b95945050505050565b60008115620054985760865460405163a881c5fd60e01b81526001600160a01b0385811660048301529091169063a881c5fd90602401602060405180830381865afa1580156200545d573d6000803e3d6000fd5b505050506040513d601f19601f82011682018060405250810190620054839190620070ad565b156200549257506000620024d9565b62005518565b608654604051635491295760e11b81526001600160a01b0385811660048301529091169063a92252ae90602401602060405180830381865afa158015620054e3573d6000803e3d6000fd5b505050506040513d601f19601f82011682018060405250810190620055099190620070ad565b156200551857506000620024d9565b50600192915050565b603380546001600160a01b038381166001600160a01b0319831681179093556040519116919082907f8be0079c531659141344cd1fd0a4f28419497f9722a3daafe3b4186f6b6457e090600090a35050565b6200557e8262002b52565b6200563557606580546001600160a01b0384166000818152607760205260408120839055600183018455929092527f8ff97419363ffd7000167f130ef7168fbea05faf9251824ca5043f113cc6a7c70180546001600160a01b0319169091179055610bb86065541115620056355760405162461bcd60e51b815260206004820152601d60248201527f4d41585f43414e4449444154455320706f6f6c73206578636565646564000000604482015260640162000548565b620056408262004fa3565b801562001186576200118682620067b6565b6000806200566083620068b2565b91509150816200566f57505050565b60006069828154811062005687576200568762007039565b90600052602060002001549050600060856000866001600160a01b03166001600160a01b031681526020019081526020016000205490508060698481548110620056d557620056d562007039565b6000918252602090912001558181106200570d57620056f5828262007097565b606a5462005704919062007081565b606a5562004f5d565b62005719818362007097565b606a5462005728919062007097565b606a555050505050565b6001600160a01b0381166000908152607960205260409020546068548082101580620057915750826001600160a01b03166068838154811062005779576200577962007039565b6000918252602090912001546001600160a01b031614155b15620057f2576001600160a01b03831660008181526079602052604081208390556068805460018101825591527fa2153420d844928b4421650203c77babc8b33d7f2e7b450e2966db0c220977530180546001600160a01b03191690911790555b620053818362006239565b6001600160a01b038083166000908152606b602090815260408083206074835281842094861684529390915290205481548082101580620058705750836001600160a01b031683838154811062005858576200585862007039565b6000918252602090912001546001600160a01b031614155b15620058c0576001600160a01b0380861660009081526074602090815260408083209388168084529382528220849055855460018101875586835291200180546001600160a01b03191690911790555b62004f5d858562006657565b6000607f546001620058df919062007081565b6001600160a01b038085166000908152607b602090815260408083209387168352929052908120549192508190036200591b576000196200591d565b805b6001600160a01b038086166000818152607060209081526040808320948916808452948252808320888452825280832095909555918152607c825283812092815291905290812054900362005995576001600160a01b038085166000908152607c602090815260408083209387168352929052208290555b8015620059a4576000620059a6565b815b6001600160a01b039485166000908152607d602090815260408083209690971682529490945293909220929092555050565b600054610100900460ff1662005a455760405162461bcd60e51b815260206004820152602b60248201527f496e697469616c697a61626c653a20636f6e7472616374206973206e6f74206960448201526a6e697469616c697a696e6760a81b606482015260840162000548565b620024f562006929565b6001600160a01b03871662005aa75760405162461bcd60e51b815260206004820152601760248201527f56616c696461746f725365742063616e27742062652030000000000000000000604482015260640162000548565b600086511162005b205760405162461bcd60e51b815260206004820152602560248201527f4d7573742070726f7669646520696e697469616c206d696e696e67206164647260448201527f6573736573000000000000000000000000000000000000000000000000000000606482015260840162000548565b8151865162005b31906002620073b7565b1462005ba65760405162461bcd60e51b815260206004820152602960248201527f4d7573742070726f7669646520636f7272656374206e756d626572206f66207060448201527f75626c69634b6579730000000000000000000000000000000000000000000000606482015260840162000548565b805186511462005c1f5760405162461bcd60e51b815260206004820152602a60248201527f4d7573742070726f7669646520636f7272656374206e756d626572206f66204960448201527f5020616472657373657300000000000000000000000000000000000000000000606482015260840162000548565b8460000362005c715760405162461bcd60e51b815260206004820152601660248201527f44656c656761746f724d696e5374616b65206973203000000000000000000000604482015260640162000548565b8360000362005cc35760405162461bcd60e51b815260206004820152601660248201527f43616e6469646174654d696e5374616b65206973203000000000000000000000604482015260640162000548565b83831162005d3a5760405162461bcd60e51b815260206004820152603160248201527f6d6178696d756d207374616b65206d757374206265206772656174657220746860448201527f656e206d696e696d756d207374616b652e000000000000000000000000000000606482015260840162000548565b608680546001600160a01b0319166001600160a01b03891617905560005b865181101562005fb95760006001600160a01b031687828151811062005d825762005d8262007039565b60200260200101516001600160a01b03160362005ded5760405162461bcd60e51b815260206004820152602260248201527f496e697469616c5374616b696e674164647265737365732063616e2774206265604482015261020360f41b606482015260840162000548565b62005e1687828151811062005e065762005e0662007039565b6020026020010151600062005573565b62005e3d87828151811062005e2f5762005e2f62007039565b602002602001015162005732565b8262005e4b826002620073b7565b8151811062005e5e5762005e5e62007039565b60200260200101518382600262005e769190620073b7565b62005e8390600162007081565b8151811062005e965762005e9662007039565b602002602001015160405160200162005eb9929190918252602082015260400190565b6040516020818303038152906040526087600089848151811062005ee15762005ee162007039565b60200260200101516001600160a01b03166001600160a01b03168152602001908152602001600020600001908162005f1a9190620073d1565b5081818151811062005f305762005f3062007039565b60200260200101516087600089848151811062005f515762005f5162007039565b60200260200101516001600160a01b03166001600160a01b0316815260200190815260200160002060010160006101000a8154816fffffffffffffffffffffffffffffffff021916908360801c0217905550808062005fb09062007065565b91505062005d58565b505050606f92909255606e556088555050565b816001600160a01b0316816001600160a01b031603620060e5576086546040516253517560e01b81526001600160a01b03848116600483015260009216906253517590602401602060405180830381865afa15801562006030573d6000803e3d6000fd5b505050506040513d601f19601f82011682018060405250810190620060569190620070f4565b60865460405163facd743b60e01b81526001600160a01b03808416600483015292935091169063facd743b90602401602060405180830381865afa158015620060a3573d6000803e3d6000fd5b505050506040513d601f19601f82011682018060405250810190620060c99190620070ad565b15620060da57620053818362005732565b62005381836200442d565b620060f18282620050de565b620060fc8262004f64565b156200118657620011868262004fa3565b6040516001600160a01b0383169082156108fc029083906000818181858888f19350505050620011865780826040516200614790620069a1565b6001600160a01b0390911681526020016040518091039082f090508015801562005282573d6000803e3d6000fd5b6001600160a01b0381166000908152607660205260409020546066548082101580620061d45750826001600160a01b031660668381548110620061bc57620061bc62007039565b6000918252602090912001546001600160a01b031614155b1562005381576001600160a01b03831660008181526076602052604081208390556066805460018101825591527f46501879b8ca8525e8c2fd519e2fbfcfa2ebea26501294aa02cbfcfb12e943540180546001600160a01b0319169091179055505050565b60695460675414620062485750565b6001600160a01b03811660009081526078602052604090205460675481108015620062a55750816001600160a01b0316606782815481106200628e576200628e62007039565b6000918252602090912001546001600160a01b0316145b15620011865760698181548110620062c157620062c162007039565b9060005260206000200154606a5410620063155760698181548110620062eb57620062eb62007039565b9060005260206000200154606a600082825462006309919062007097565b909155506200631b9050565b6000606a555b6067546000906200632f9060019062007097565b905060006067828154811062006349576200634962007039565b600091825260209091200154606780546001600160a01b0390921692508291859081106200637b576200637b62007039565b9060005260206000200160006101000a8154816001600160a01b0302191690836001600160a01b0316021790555060698281548110620063bf57620063bf62007039565b906000526020600020015460698481548110620063e057620063e062007039565b60009182526020808320909101929092556001600160a01b03808416825260789092526040808220869055918616815290812055606780548062006428576200642862007387565b600082815260209020810160001990810180546001600160a01b031916905501905560698054806200645e576200645e62007387565b6001900381819060005260206000200160009055905550505050565b6001600160a01b03811660009081526079602052604090205460685481108015620064d75750816001600160a01b031660688281548110620064c057620064c062007039565b6000918252602090912001546001600160a01b0316145b1562001186576068805460009190620064f39060019062007097565b8154811062006506576200650662007039565b600091825260209091200154606880546001600160a01b03909216925082918490811062006538576200653862007039565b600091825260208083209190910180546001600160a01b0319166001600160a01b0394851617905583831682526079905260408082208590559185168152908120556068805480620050b757620050b762007387565b6001600160a01b038083166000908152606c602090815260408083206075835281842094861684529390915290205481548082101580620066015750836001600160a01b0316838381548110620065e957620065e962007039565b6000918252602090912001546001600160a01b031614155b1562004f5d576001600160a01b0380861660009081526075602090815260408083209388168084529382528220849055855460018101875586835291200180546001600160a01b03191690911790555050505050565b6001600160a01b038083166000908152606c6020908152604080832060758352818420948616845293909152902054815481108015620066c85750826001600160a01b0316828281548110620066b157620066b162007039565b6000918252602090912001546001600160a01b0316145b15620052825781546000908390620066e39060019062007097565b81548110620066f657620066f662007039565b9060005260206000200160009054906101000a90046001600160a01b03169050808383815481106200672c576200672c62007039565b600091825260208083209190910180546001600160a01b0319166001600160a01b039485161790558783168252607581526040808320858516845290915280822085905591861681529081205582548390806200678d576200678d62007387565b600082815260209020810160001990810180546001600160a01b03191690550190555050505050565b6001600160a01b0381166000908152607860205260409020546067548082101580620068155750826001600160a01b031660678381548110620067fd57620067fd62007039565b6000918252602090912001546001600160a01b031614155b15620068a7576001600160a01b03831660008181526078602052604081208390556067805460018181019092557f9787eeb91fe3101235e4a76063c7023ecb40f923f97916639c598592fa30d6ae0180546001600160a01b03191690931790925560698054928301815581527f7fb4302e8e91f9110a6554c2c0a24601252c2a42c2220ca988efcfe399914308909101555b62005381836200647a565b6001600160a01b038116600090815260786020526040812054606754811080156200690f5750826001600160a01b031660678281548110620068f857620068f862007039565b6000918252602090912001546001600160a01b0316145b156200691e5760019150915091565b506000928392509050565b600054610100900460ff16620069965760405162461bcd60e51b815260206004820152602b60248201527f496e697469616c697a61626c653a20636f6e7472616374206973206e6f74206960448201526a6e697469616c697a696e6760a81b606482015260840162000548565b620024f53362005521565b6059806200749f83390190565b6001600160a01b038116811462001a1757600080fd5b600080600060608486031215620069da57600080fd5b8335620069e781620069ae565b92506020840135620069f981620069ae565b929592945050506040919091013590565b6000806040838503121562006a1e57600080fd5b823562006a2b81620069ae565b9150602083013562006a3d81620069ae565b809150509250929050565b60006020828403121562006a5b57600080fd5b813562002baf81620069ae565b60006020828403121562006a7b57600080fd5b5035919050565b634e487b7160e01b600052604160045260246000fd5b604051601f8201601f1916810167ffffffffffffffff8111828210171562006ac45762006ac462006a82565b604052919050565b600067ffffffffffffffff82111562006ae95762006ae962006a82565b5060051b60200190565b600082601f83011262006b0557600080fd5b8135602062006b1e62006b188362006acc565b62006a98565b82815260059290921b8401810191818101908684111562006b3e57600080fd5b8286015b8481101562006b5b578035835291830191830162006b42565b509695505050505050565b6000806040838503121562006b7a57600080fd5b823567ffffffffffffffff81111562006b9257600080fd5b62006ba08582860162006af3565b925050602083013562006a3d81620069ae565b6000815180845260005b8181101562006bdb5760208185018101518683018201520162006bbd565b506000602082860101526020601f19601f83011685010191505092915050565b60208152600062002baf602083018462006bb3565b60008083601f84011262006c2357600080fd5b50813567ffffffffffffffff81111562006c3c57600080fd5b60208301915083602082850101111562006c5557600080fd5b9250929050565b80356fffffffffffffffffffffffffffffffff198116811462006c7e57600080fd5b919050565b6000806000806060858703121562006c9a57600080fd5b843562006ca781620069ae565b9350602085013567ffffffffffffffff81111562006cc457600080fd5b62006cd28782880162006c10565b909450925062006ce790506040860162006c5c565b905092959194509250565b6020808252825182820181905260009190848201906040850190845b8181101562006d355783516001600160a01b03168352928401929184019160010162006d0e565b50909695505050505050565b80356001600160f01b03198116811462006c7e57600080fd5b60008060006060848603121562006d7057600080fd5b833562006d7d81620069ae565b925062006d8d6020850162006c5c565b915062006d9d6040850162006d41565b90509250925092565b6000806000806060858703121562006dbd57600080fd5b843567ffffffffffffffff81111562006dd557600080fd5b62006de38782880162006c10565b909550935062006df890506020860162006c5c565b915062006ce76040860162006d41565b604080825283519082018190526000906020906060840190828701845b8281101562006e435781518452928401929084019060010162006e25565b50505092019290925292915050565b60608152600062006e67606083018662006bb3565b6fffffffffffffffffffffffffffffffff19949094166020830152506001600160f01b031991909116604090910152919050565b6000806040838503121562006eaf57600080fd5b823562006ebc81620069ae565b946020939093013593505050565b60008083601f84011262006edd57600080fd5b50813567ffffffffffffffff81111562006ef657600080fd5b6020830191508360208260051b850101111562006c5557600080fd5b6000806000806000806080878903121562006f2c57600080fd5b863562006f3981620069ae565b9550602087013567ffffffffffffffff8082111562006f5757600080fd5b90880190610100828b03121562006f6d57600080fd5b9095506040880135908082111562006f8457600080fd5b62006f928a838b0162006eca565b9096509450606089013591508082111562006fac57600080fd5b5062006fbb89828a0162006eca565b979a9699509497509295939492505050565b60008060006060848603121562006fe357600080fd5b833567ffffffffffffffff81111562006ffb57600080fd5b620070098682870162006af3565b93505060208401356200701c81620069ae565b915060408401356200702e81620069ae565b809150509250925092565b634e487b7160e01b600052603260045260246000fd5b634e487b7160e01b600052601160045260246000fd5b6000600182016200707a576200707a6200704f565b5060010190565b80820180821115620024d957620024d96200704f565b81810381811115620024d957620024d96200704f565b600060208284031215620070c057600080fd5b8151801515811462002baf57600080fd5b600082620070ef57634e487b7160e01b600052601260045260246000fd5b500490565b6000602082840312156200710757600080fd5b815162002baf81620069ae565b600060208083850312156200712857600080fd5b825167ffffffffffffffff8111156200714057600080fd5b8301601f810185136200715257600080fd5b80516200716362006b188262006acc565b81815260059190911b820183019083810190878311156200718357600080fd5b928401925b82841015620071a35783518252928401929084019062007188565b979650505050505050565b600060208284031215620071c157600080fd5b5051919050565b600181811c90821680620071dd57607f821691505b602082108103620071fe57634e487b7160e01b600052602260045260246000fd5b50919050565b601f8211156200538157600081815260208120601f850160051c810160208610156200722d5750805b601f850160051c820191505b818110156200494f5782815560010162007239565b67ffffffffffffffff83111562007269576200726962006a82565b62007281836200727a8354620071c8565b8362007204565b6000601f841160018114620072b857600085156200729f5750838201355b600019600387901b1c1916600186901b17835562004f5d565b600083815260209020601f19861690835b82811015620072eb5786850135825560209485019460019092019101620072c9565b5086821015620073095760001960f88860031b161c19848701351681555b505060018560011b0183555050505050565b6000600160ff1b82016200733357620073336200704f565b5060000390565b6000808335601e198436030181126200735257600080fd5b83018035915067ffffffffffffffff8211156200736e57600080fd5b6020019150600581901b360382131562006c5557600080fd5b634e487b7160e01b600052603160045260246000fd5b600081620073af57620073af6200704f565b506000190190565b8082028115828204841417620024d957620024d96200704f565b815167ffffffffffffffff811115620073ee57620073ee62006a82565b6200740681620073ff8454620071c8565b8462007204565b602080601f8311600181146200743e5760008415620074255750858301515b600019600386901b1c1916600185901b1785556200494f565b600085815260208120601f198616915b828110156200746f578886015182559484019460019091019084016200744e565b50858210156200748e5787850151600019600388901b60f8161c191681555b5050505050600190811b0190555056fe608060405260405160593803806059833981016040819052601e91602a565b806001600160a01b0316ff5b600060208284031215603b57600080fd5b81516001600160a01b0381168114605157600080fd5b939250505056fea2646970667358221220a7b150f5c32e4a18b078a611ed04f88d9399043b0a46cf20695b5d9a6fb32cff64736f6c63430008110033",
  "linkReferences": {},
  "deployedLinkReferences": {}
}