{
  "_format": "hh-sol-artifact-1",
  "contractName": "StakingHbbft",
  "sourceName": "contracts/StakingHbbft.sol",
  "abi": [
    {
      "anonymous": false,
      "inputs": [
        {
          "indexed": true,
          "internalType": "address",
          "name": "fromPoolStakingAddress",
          "type": "address"
        },
        {
          "indexed": true,
          "internalType": "address",
          "name": "staker",
          "type": "address"
        },
        {
          "indexed": true,
          "internalType": "uint256",
          "name": "stakingEpoch",
          "type": "uint256"
        },
        {
          "indexed": false,
          "internalType": "uint256",
          "name": "amount",
          "type": "uint256"
        }
      ],
      "name": "ClaimedOrderedWithdrawal",
      "type": "event"
    },
    {
      "anonymous": false,
      "inputs": [
        {
          "indexed": true,
          "internalType": "address",
          "name": "fromPoolStakingAddress",
          "type": "address"
        },
        {
          "indexed": true,
          "internalType": "address",
          "name": "staker",
          "type": "address"
        },
        {
          "indexed": true,
          "internalType": "uint256",
          "name": "stakingEpoch",
          "type": "uint256"
        },
        {
          "indexed": false,
          "internalType": "uint256",
          "name": "nativeCoinsAmount",
          "type": "uint256"
        }
      ],
      "name": "ClaimedReward",
      "type": "event"
    },
    {
      "anonymous": false,
      "inputs": [
        {
          "indexed": true,
          "internalType": "address",
          "name": "caller",
          "type": "address"
        },
        {
          "indexed": true,
          "internalType": "address",
          "name": "stakingAddress",
          "type": "address"
        },
        {
          "indexed": false,
          "internalType": "uint256",
          "name": "gatheredFunds",
          "type": "uint256"
        }
      ],
      "name": "GatherAbandonedStakes",
      "type": "event"
    },
    {
      "anonymous": false,
      "inputs": [
        {
          "indexed": false,
          "internalType": "uint8",
          "name": "version",
          "type": "uint8"
        }
      ],
      "name": "Initialized",
      "type": "event"
    },
    {
      "anonymous": false,
      "inputs": [
        {
          "indexed": false,
          "internalType": "address",
          "name": "fromPoolStakingAddress",
          "type": "address"
        },
        {
          "indexed": true,
          "internalType": "address",
          "name": "toPoolStakingAddress",
          "type": "address"
        },
        {
          "indexed": true,
          "internalType": "address",
          "name": "staker",
          "type": "address"
        },
        {
          "indexed": true,
          "internalType": "uint256",
          "name": "stakingEpoch",
          "type": "uint256"
        },
        {
          "indexed": false,
          "internalType": "uint256",
          "name": "amount",
          "type": "uint256"
        }
      ],
      "name": "MovedStake",
      "type": "event"
    },
    {
      "anonymous": false,
      "inputs": [
        {
          "indexed": true,
          "internalType": "address",
          "name": "fromPoolStakingAddress",
          "type": "address"
        },
        {
          "indexed": true,
          "internalType": "address",
          "name": "staker",
          "type": "address"
        },
        {
          "indexed": true,
          "internalType": "uint256",
          "name": "stakingEpoch",
          "type": "uint256"
        },
        {
          "indexed": false,
          "internalType": "int256",
          "name": "amount",
          "type": "int256"
        }
      ],
      "name": "OrderedWithdrawal",
      "type": "event"
    },
    {
      "anonymous": false,
      "inputs": [
        {
          "indexed": true,
          "internalType": "address",
          "name": "previousOwner",
          "type": "address"
        },
        {
          "indexed": true,
          "internalType": "address",
          "name": "newOwner",
          "type": "address"
        }
      ],
      "name": "OwnershipTransferred",
      "type": "event"
    },
    {
      "anonymous": false,
      "inputs": [
        {
          "indexed": true,
          "internalType": "address",
          "name": "toPoolStakingAddress",
          "type": "address"
        },
        {
          "indexed": true,
          "internalType": "address",
          "name": "staker",
          "type": "address"
        },
        {
          "indexed": true,
          "internalType": "uint256",
          "name": "stakingEpoch",
          "type": "uint256"
        },
        {
          "indexed": false,
          "internalType": "uint256",
          "name": "amount",
          "type": "uint256"
        }
      ],
      "name": "PlacedStake",
      "type": "event"
    },
    {
      "anonymous": false,
      "inputs": [
        {
          "indexed": true,
          "internalType": "address",
          "name": "caller",
          "type": "address"
        },
        {
          "indexed": false,
          "internalType": "uint256",
          "name": "reinsertShare",
          "type": "uint256"
        },
        {
          "indexed": false,
          "internalType": "uint256",
          "name": "governanceShare",
          "type": "uint256"
        }
      ],
      "name": "RecoverAbandonedStakes",
      "type": "event"
    },
    {
      "anonymous": false,
      "inputs": [
        {
          "indexed": false,
          "internalType": "string",
          "name": "funcSelector",
          "type": "string"
        }
      ],
      "name": "RemoveChangeAbleParameter",
      "type": "event"
    },
    {
      "anonymous": false,
      "inputs": [
        {
          "indexed": false,
          "internalType": "string",
          "name": "setter",
          "type": "string"
        },
        {
          "indexed": false,
          "internalType": "string",
          "name": "getter",
          "type": "string"
        },
        {
          "indexed": false,
          "internalType": "uint256[]",
          "name": "params",
          "type": "uint256[]"
        }
      ],
      "name": "SetChangeAbleParameter",
      "type": "event"
    },
    {
      "anonymous": false,
      "inputs": [
        {
          "indexed": false,
          "internalType": "uint256",
          "name": "minStake",
          "type": "uint256"
        }
      ],
      "name": "SetDelegatorMinStake",
      "type": "event"
    },
    {
      "anonymous": false,
      "inputs": [
        {
          "indexed": true,
          "internalType": "address",
          "name": "fromPoolStakingAddress",
          "type": "address"
        },
        {
          "indexed": true,
          "internalType": "address",
          "name": "staker",
          "type": "address"
        },
        {
          "indexed": true,
          "internalType": "uint256",
          "name": "stakingEpoch",
          "type": "uint256"
        },
        {
          "indexed": false,
          "internalType": "uint256",
          "name": "amount",
          "type": "uint256"
        }
      ],
      "name": "WithdrewStake",
      "type": "event"
    },
    {
      "inputs": [],
      "name": "MAX_CANDIDATES",
      "outputs": [
        {
          "internalType": "uint256",
          "name": "",
          "type": "uint256"
        }
      ],
      "stateMutability": "view",
      "type": "function"
    },
    {
      "inputs": [
        {
          "internalType": "address",
          "name": "",
          "type": "address"
        }
      ],
      "name": "abandonedAndRemoved",
      "outputs": [
        {
          "internalType": "bool",
          "name": "",
          "type": "bool"
        }
      ],
      "stateMutability": "view",
      "type": "function"
    },
    {
      "inputs": [
        {
          "internalType": "address",
          "name": "_miningAddress",
          "type": "address"
        },
        {
          "internalType": "bytes",
          "name": "_publicKey",
          "type": "bytes"
        },
        {
          "internalType": "bytes16",
          "name": "_ip",
          "type": "bytes16"
        }
      ],
      "name": "addPool",
      "outputs": [],
      "stateMutability": "payable",
      "type": "function"
    },
    {
      "inputs": [
        {
          "internalType": "bytes4",
          "name": "",
          "type": "bytes4"
        }
      ],
      "name": "allowedParameterRange",
      "outputs": [
        {
          "internalType": "bytes4",
          "name": "getter",
          "type": "bytes4"
        }
      ],
      "stateMutability": "view",
      "type": "function"
    },
    {
      "inputs": [],
      "name": "areStakeAndWithdrawAllowed",
      "outputs": [
        {
          "internalType": "bool",
          "name": "",
          "type": "bool"
        }
      ],
      "stateMutability": "view",
      "type": "function"
    },
    {
      "inputs": [],
      "name": "candidateMinStake",
      "outputs": [
        {
          "internalType": "uint256",
          "name": "",
          "type": "uint256"
        }
      ],
      "stateMutability": "view",
      "type": "function"
    },
    {
      "inputs": [
        {
          "internalType": "address",
          "name": "_poolStakingAddress",
          "type": "address"
        }
      ],
      "name": "claimOrderedWithdraw",
      "outputs": [],
      "stateMutability": "nonpayable",
      "type": "function"
    },
    {
      "inputs": [
        {
          "internalType": "uint256[]",
          "name": "_stakingEpochs",
          "type": "uint256[]"
        },
        {
          "internalType": "address",
          "name": "_poolStakingAddress",
          "type": "address"
        }
      ],
      "name": "claimReward",
      "outputs": [],
      "stateMutability": "nonpayable",
      "type": "function"
    },
    {
      "inputs": [],
      "name": "currentKeyGenExtraTimeWindow",
      "outputs": [
        {
          "internalType": "uint256",
          "name": "",
          "type": "uint256"
        }
      ],
      "stateMutability": "view",
      "type": "function"
    },
    {
      "inputs": [],
      "name": "delegatorMinStake",
      "outputs": [
        {
          "internalType": "uint256",
          "name": "",
          "type": "uint256"
        }
      ],
      "stateMutability": "view",
      "type": "function"
    },
    {
      "inputs": [
        {
          "internalType": "address",
          "name": "",
          "type": "address"
        },
        {
          "internalType": "address",
          "name": "",
          "type": "address"
        },
        {
          "internalType": "uint256",
          "name": "",
          "type": "uint256"
        }
      ],
      "name": "delegatorStakeSnapshot",
      "outputs": [
        {
          "internalType": "uint256",
          "name": "",
          "type": "uint256"
        }
      ],
      "stateMutability": "view",
      "type": "function"
    },
    {
      "inputs": [
        {
          "internalType": "address",
          "name": "_poolAddress",
          "type": "address"
        }
      ],
      "name": "getPoolInternetAddress",
      "outputs": [
        {
          "internalType": "bytes16",
          "name": "",
          "type": "bytes16"
        },
        {
          "internalType": "bytes2",
          "name": "",
          "type": "bytes2"
        }
      ],
      "stateMutability": "view",
      "type": "function"
    },
    {
      "inputs": [
        {
          "internalType": "address",
          "name": "_poolAddress",
          "type": "address"
        }
      ],
      "name": "getPoolPublicKey",
      "outputs": [
        {
          "internalType": "bytes",
          "name": "",
          "type": "bytes"
        }
      ],
      "stateMutability": "view",
      "type": "function"
    },
    {
      "inputs": [],
      "name": "getPools",
      "outputs": [
        {
          "internalType": "address[]",
          "name": "",
          "type": "address[]"
        }
      ],
      "stateMutability": "view",
      "type": "function"
    },
    {
      "inputs": [],
      "name": "getPoolsInactive",
      "outputs": [
        {
          "internalType": "address[]",
          "name": "",
          "type": "address[]"
        }
      ],
      "stateMutability": "view",
      "type": "function"
    },
    {
      "inputs": [],
      "name": "getPoolsLikelihood",
      "outputs": [
        {
          "internalType": "uint256[]",
          "name": "likelihoods",
          "type": "uint256[]"
        },
        {
          "internalType": "uint256",
          "name": "sum",
          "type": "uint256"
        }
      ],
      "stateMutability": "view",
      "type": "function"
    },
    {
      "inputs": [],
      "name": "getPoolsToBeElected",
      "outputs": [
        {
          "internalType": "address[]",
          "name": "",
          "type": "address[]"
        }
      ],
      "stateMutability": "view",
      "type": "function"
    },
    {
      "inputs": [],
      "name": "getPoolsToBeRemoved",
      "outputs": [
        {
          "internalType": "address[]",
          "name": "",
          "type": "address[]"
        }
      ],
      "stateMutability": "view",
      "type": "function"
    },
    {
      "inputs": [
        {
          "internalType": "uint256[]",
          "name": "_stakingEpochs",
          "type": "uint256[]"
        },
        {
          "internalType": "address",
          "name": "_poolStakingAddress",
          "type": "address"
        },
        {
          "internalType": "address",
          "name": "_staker",
          "type": "address"
        }
      ],
      "name": "getRewardAmount",
      "outputs": [
        {
          "internalType": "uint256",
          "name": "",
          "type": "uint256"
        }
      ],
      "stateMutability": "view",
      "type": "function"
    },
    {
      "inputs": [],
      "name": "incrementStakingEpoch",
      "outputs": [],
      "stateMutability": "nonpayable",
      "type": "function"
    },
    {
      "inputs": [
        {
          "internalType": "address",
          "name": "_contractOwner",
          "type": "address"
        },
        {
          "components": [
            {
              "internalType": "address",
              "name": "_validatorSetContract",
              "type": "address"
            },
            {
              "internalType": "address[]",
              "name": "_initialStakingAddresses",
              "type": "address[]"
            },
            {
              "internalType": "uint256",
              "name": "_delegatorMinStake",
              "type": "uint256"
            },
            {
              "internalType": "uint256",
              "name": "_candidateMinStake",
              "type": "uint256"
            },
            {
              "internalType": "uint256",
              "name": "_maxStake",
              "type": "uint256"
            },
            {
              "internalType": "uint256",
              "name": "_stakingFixedEpochDuration",
              "type": "uint256"
            },
            {
              "internalType": "uint256",
              "name": "_stakingTransitionTimeframeLength",
              "type": "uint256"
            },
            {
              "internalType": "uint256",
              "name": "_stakingWithdrawDisallowPeriod",
              "type": "uint256"
            }
          ],
          "internalType": "struct IStakingHbbft.StakingParams",
          "name": "stakingParams",
          "type": "tuple"
        },
        {
          "internalType": "bytes32[]",
          "name": "_publicKeys",
          "type": "bytes32[]"
        },
        {
          "internalType": "bytes16[]",
          "name": "_internetAddresses",
          "type": "bytes16[]"
        }
      ],
      "name": "initialize",
      "outputs": [],
      "stateMutability": "nonpayable",
      "type": "function"
    },
    {
      "inputs": [
        {
          "internalType": "address",
          "name": "_stakingAddress",
          "type": "address"
        }
      ],
      "name": "isPoolActive",
      "outputs": [
        {
          "internalType": "bool",
          "name": "",
          "type": "bool"
        }
      ],
      "stateMutability": "view",
      "type": "function"
    },
    {
      "inputs": [
        {
          "internalType": "bytes4",
          "name": "funcSelector",
          "type": "bytes4"
        },
        {
          "internalType": "uint256",
          "name": "newVal",
          "type": "uint256"
        }
      ],
      "name": "isWithinAllowedRange",
      "outputs": [
        {
          "internalType": "bool",
          "name": "",
          "type": "bool"
        }
      ],
      "stateMutability": "view",
      "type": "function"
    },
    {
      "inputs": [],
      "name": "maxStakeAmount",
      "outputs": [
        {
          "internalType": "uint256",
          "name": "",
          "type": "uint256"
        }
      ],
      "stateMutability": "view",
      "type": "function"
    },
    {
      "inputs": [
        {
          "internalType": "address",
          "name": "_poolStakingAddress",
          "type": "address"
        },
        {
          "internalType": "address",
          "name": "_staker",
          "type": "address"
        }
      ],
      "name": "maxWithdrawAllowed",
      "outputs": [
        {
          "internalType": "uint256",
          "name": "",
          "type": "uint256"
        }
      ],
      "stateMutability": "view",
      "type": "function"
    },
    {
      "inputs": [
        {
          "internalType": "address",
          "name": "_poolStakingAddress",
          "type": "address"
        },
        {
          "internalType": "address",
          "name": "_staker",
          "type": "address"
        }
      ],
      "name": "maxWithdrawOrderAllowed",
      "outputs": [
        {
          "internalType": "uint256",
          "name": "",
          "type": "uint256"
        }
      ],
      "stateMutability": "view",
      "type": "function"
    },
    {
      "inputs": [
        {
          "internalType": "address",
          "name": "_fromPoolStakingAddress",
          "type": "address"
        },
        {
          "internalType": "address",
          "name": "_toPoolStakingAddress",
          "type": "address"
        },
        {
          "internalType": "uint256",
          "name": "_amount",
          "type": "uint256"
        }
      ],
      "name": "moveStake",
      "outputs": [],
      "stateMutability": "nonpayable",
      "type": "function"
    },
    {
      "inputs": [
        {
          "internalType": "address",
          "name": "_stakingAddress",
          "type": "address"
        }
      ],
      "name": "notifyAvailability",
      "outputs": [],
      "stateMutability": "nonpayable",
      "type": "function"
    },
    {
      "inputs": [],
      "name": "notifyKeyGenFailed",
      "outputs": [],
      "stateMutability": "nonpayable",
      "type": "function"
    },
    {
      "inputs": [
        {
          "internalType": "uint256",
          "name": "detectedOfflineTime",
          "type": "uint256"
        }
      ],
      "name": "notifyNetworkOfftimeDetected",
      "outputs": [],
      "stateMutability": "nonpayable",
      "type": "function"
    },
    {
      "inputs": [
        {
          "internalType": "address",
          "name": "_poolStakingAddress",
          "type": "address"
        },
        {
          "internalType": "int256",
          "name": "_amount",
          "type": "int256"
        }
      ],
      "name": "orderWithdraw",
      "outputs": [],
      "stateMutability": "nonpayable",
      "type": "function"
    },
    {
      "inputs": [
        {
          "internalType": "address",
          "name": "",
          "type": "address"
        },
        {
          "internalType": "address",
          "name": "",
          "type": "address"
        }
      ],
      "name": "orderWithdrawEpoch",
      "outputs": [
        {
          "internalType": "uint256",
          "name": "",
          "type": "uint256"
        }
      ],
      "stateMutability": "view",
      "type": "function"
    },
    {
      "inputs": [
        {
          "internalType": "address",
          "name": "",
          "type": "address"
        },
        {
          "internalType": "address",
          "name": "",
          "type": "address"
        }
      ],
      "name": "orderedWithdrawAmount",
      "outputs": [
        {
          "internalType": "uint256",
          "name": "",
          "type": "uint256"
        }
      ],
      "stateMutability": "view",
      "type": "function"
    },
    {
      "inputs": [
        {
          "internalType": "address",
          "name": "",
          "type": "address"
        }
      ],
      "name": "orderedWithdrawAmountTotal",
      "outputs": [
        {
          "internalType": "uint256",
          "name": "",
          "type": "uint256"
        }
      ],
      "stateMutability": "view",
      "type": "function"
    },
    {
      "inputs": [],
      "name": "owner",
      "outputs": [
        {
          "internalType": "address",
          "name": "",
          "type": "address"
        }
      ],
      "stateMutability": "view",
      "type": "function"
    },
    {
      "inputs": [
        {
          "internalType": "address",
          "name": "",
          "type": "address"
        },
        {
          "internalType": "address",
          "name": "",
          "type": "address"
        }
      ],
      "name": "poolDelegatorInactiveIndex",
      "outputs": [
        {
          "internalType": "uint256",
          "name": "",
          "type": "uint256"
        }
      ],
      "stateMutability": "view",
      "type": "function"
    },
    {
      "inputs": [
        {
          "internalType": "address",
          "name": "",
          "type": "address"
        },
        {
          "internalType": "address",
          "name": "",
          "type": "address"
        }
      ],
      "name": "poolDelegatorIndex",
      "outputs": [
        {
          "internalType": "uint256",
          "name": "",
          "type": "uint256"
        }
      ],
      "stateMutability": "view",
      "type": "function"
    },
    {
      "inputs": [
        {
          "internalType": "address",
          "name": "_poolStakingAddress",
          "type": "address"
        }
      ],
      "name": "poolDelegators",
      "outputs": [
        {
          "internalType": "address[]",
          "name": "",
          "type": "address[]"
        }
      ],
      "stateMutability": "view",
      "type": "function"
    },
    {
      "inputs": [
        {
          "internalType": "address",
          "name": "_poolStakingAddress",
          "type": "address"
        }
      ],
      "name": "poolDelegatorsInactive",
      "outputs": [
        {
          "internalType": "address[]",
          "name": "",
          "type": "address[]"
        }
      ],
      "stateMutability": "view",
      "type": "function"
    },
    {
      "inputs": [
        {
          "internalType": "address",
          "name": "",
          "type": "address"
        }
      ],
      "name": "poolInactiveIndex",
      "outputs": [
        {
          "internalType": "uint256",
          "name": "",
          "type": "uint256"
        }
      ],
      "stateMutability": "view",
      "type": "function"
    },
    {
      "inputs": [
        {
          "internalType": "address",
          "name": "",
          "type": "address"
        }
      ],
      "name": "poolIndex",
      "outputs": [
        {
          "internalType": "uint256",
          "name": "",
          "type": "uint256"
        }
      ],
      "stateMutability": "view",
      "type": "function"
    },
    {
      "inputs": [
        {
          "internalType": "address",
          "name": "",
          "type": "address"
        }
      ],
      "name": "poolInfo",
      "outputs": [
        {
          "internalType": "bytes",
          "name": "publicKey",
          "type": "bytes"
        },
        {
          "internalType": "bytes16",
          "name": "internetAddress",
          "type": "bytes16"
        },
        {
          "internalType": "bytes2",
          "name": "port",
          "type": "bytes2"
        }
      ],
      "stateMutability": "view",
      "type": "function"
    },
    {
      "inputs": [
        {
          "internalType": "address",
          "name": "",
          "type": "address"
        }
      ],
      "name": "poolToBeElectedIndex",
      "outputs": [
        {
          "internalType": "uint256",
          "name": "",
          "type": "uint256"
        }
      ],
      "stateMutability": "view",
      "type": "function"
    },
    {
      "inputs": [
        {
          "internalType": "address",
          "name": "",
          "type": "address"
        }
      ],
      "name": "poolToBeRemovedIndex",
      "outputs": [
        {
          "internalType": "uint256",
          "name": "",
          "type": "uint256"
        }
      ],
      "stateMutability": "view",
      "type": "function"
    },
    {
      "inputs": [],
      "name": "recoverAbandonedStakes",
      "outputs": [],
      "stateMutability": "nonpayable",
      "type": "function"
    },
    {
      "inputs": [
        {
          "internalType": "string",
          "name": "funcSelector",
          "type": "string"
        }
      ],
      "name": "removeAllowedChangeableParameter",
      "outputs": [],
      "stateMutability": "nonpayable",
      "type": "function"
    },
    {
      "inputs": [],
      "name": "removeMyPool",
      "outputs": [],
      "stateMutability": "nonpayable",
      "type": "function"
    },
    {
      "inputs": [
        {
          "internalType": "address",
          "name": "_stakingAddress",
          "type": "address"
        }
      ],
      "name": "removePool",
      "outputs": [],
      "stateMutability": "nonpayable",
      "type": "function"
    },
    {
      "inputs": [],
      "name": "removePools",
      "outputs": [],
      "stateMutability": "nonpayable",
      "type": "function"
    },
    {
      "inputs": [],
      "name": "renounceOwnership",
      "outputs": [],
      "stateMutability": "nonpayable",
      "type": "function"
    },
    {
      "inputs": [
        {
          "internalType": "address",
          "name": "",
          "type": "address"
        },
        {
          "internalType": "address",
          "name": "",
          "type": "address"
        },
        {
          "internalType": "uint256",
          "name": "",
          "type": "uint256"
        }
      ],
      "name": "rewardWasTaken",
      "outputs": [
        {
          "internalType": "bool",
          "name": "",
          "type": "bool"
        }
      ],
      "stateMutability": "view",
      "type": "function"
    },
    {
      "inputs": [
        {
          "internalType": "string",
          "name": "setter",
          "type": "string"
        },
        {
          "internalType": "string",
          "name": "getter",
          "type": "string"
        },
        {
          "internalType": "uint256[]",
          "name": "params",
          "type": "uint256[]"
        }
      ],
      "name": "setAllowedChangeableParameter",
      "outputs": [],
      "stateMutability": "nonpayable",
      "type": "function"
    },
    {
      "inputs": [
        {
          "internalType": "uint256",
          "name": "_minStake",
          "type": "uint256"
        }
      ],
      "name": "setCandidateMinStake",
      "outputs": [],
      "stateMutability": "nonpayable",
      "type": "function"
    },
    {
      "inputs": [
        {
          "internalType": "uint256",
          "name": "_minStake",
          "type": "uint256"
        }
      ],
      "name": "setDelegatorMinStake",
      "outputs": [],
      "stateMutability": "nonpayable",
      "type": "function"
    },
    {
      "inputs": [
        {
          "internalType": "bytes",
          "name": "_publicKey",
          "type": "bytes"
        },
        {
          "internalType": "bytes16",
          "name": "_ip",
          "type": "bytes16"
        },
        {
          "internalType": "bytes2",
          "name": "_port",
          "type": "bytes2"
        }
      ],
      "name": "setPoolInfo",
      "outputs": [],
      "stateMutability": "nonpayable",
      "type": "function"
    },
    {
      "inputs": [
        {
          "internalType": "uint256",
          "name": "_timestamp",
          "type": "uint256"
        }
      ],
      "name": "setStakingEpochStartTime",
      "outputs": [],
      "stateMutability": "nonpayable",
      "type": "function"
    },
    {
      "inputs": [
        {
          "internalType": "uint256",
          "name": "_value",
          "type": "uint256"
        }
      ],
      "name": "setStakingFixedEpochDuration",
      "outputs": [],
      "stateMutability": "nonpayable",
      "type": "function"
    },
    {
      "inputs": [
        {
          "internalType": "uint256",
          "name": "_value",
          "type": "uint256"
        }
      ],
      "name": "setStakingTransitionTimeframeLength",
      "outputs": [],
      "stateMutability": "nonpayable",
      "type": "function"
    },
    {
      "inputs": [
        {
          "internalType": "address",
          "name": "_validatorAddress",
          "type": "address"
        },
        {
          "internalType": "bytes16",
          "name": "_ip",
          "type": "bytes16"
        },
        {
          "internalType": "bytes2",
          "name": "_port",
          "type": "bytes2"
        }
      ],
      "name": "setValidatorInternetAddress",
      "outputs": [],
      "stateMutability": "nonpayable",
      "type": "function"
    },
    {
      "inputs": [
        {
          "internalType": "address",
          "name": "_toPoolStakingAddress",
          "type": "address"
        }
      ],
      "name": "stake",
      "outputs": [],
      "stateMutability": "payable",
      "type": "function"
    },
    {
      "inputs": [
        {
          "internalType": "address",
          "name": "",
          "type": "address"
        },
        {
          "internalType": "address",
          "name": "",
          "type": "address"
        }
      ],
      "name": "stakeAmount",
      "outputs": [
        {
          "internalType": "uint256",
          "name": "",
          "type": "uint256"
        }
      ],
      "stateMutability": "view",
      "type": "function"
    },
    {
      "inputs": [
        {
          "internalType": "address",
          "name": "_poolStakingAddress",
          "type": "address"
        },
        {
          "internalType": "address",
          "name": "_staker",
          "type": "address"
        }
      ],
      "name": "stakeAmountByCurrentEpoch",
      "outputs": [
        {
          "internalType": "uint256",
          "name": "",
          "type": "uint256"
        }
      ],
      "stateMutability": "view",
      "type": "function"
    },
    {
      "inputs": [
        {
          "internalType": "address",
          "name": "",
          "type": "address"
        }
      ],
      "name": "stakeAmountTotal",
      "outputs": [
        {
          "internalType": "uint256",
          "name": "",
          "type": "uint256"
        }
      ],
      "stateMutability": "view",
      "type": "function"
    },
    {
      "inputs": [
        {
          "internalType": "address",
          "name": "",
          "type": "address"
        },
        {
          "internalType": "address",
          "name": "",
          "type": "address"
        }
      ],
      "name": "stakeFirstEpoch",
      "outputs": [
        {
          "internalType": "uint256",
          "name": "",
          "type": "uint256"
        }
      ],
      "stateMutability": "view",
      "type": "function"
    },
    {
      "inputs": [
        {
          "internalType": "address",
          "name": "",
          "type": "address"
        },
        {
          "internalType": "address",
          "name": "",
          "type": "address"
        }
      ],
      "name": "stakeLastEpoch",
      "outputs": [
        {
          "internalType": "uint256",
          "name": "",
          "type": "uint256"
        }
      ],
      "stateMutability": "view",
      "type": "function"
    },
    {
      "inputs": [],
      "name": "stakingEpoch",
      "outputs": [
        {
          "internalType": "uint256",
          "name": "",
          "type": "uint256"
        }
      ],
      "stateMutability": "view",
      "type": "function"
    },
    {
      "inputs": [],
      "name": "stakingEpochStartBlock",
      "outputs": [
        {
          "internalType": "uint256",
          "name": "",
          "type": "uint256"
        }
      ],
      "stateMutability": "view",
      "type": "function"
    },
    {
      "inputs": [],
      "name": "stakingEpochStartTime",
      "outputs": [
        {
          "internalType": "uint256",
          "name": "",
          "type": "uint256"
        }
      ],
      "stateMutability": "view",
      "type": "function"
    },
    {
      "inputs": [],
      "name": "stakingFixedEpochDuration",
      "outputs": [
        {
          "internalType": "uint256",
          "name": "",
          "type": "uint256"
        }
      ],
      "stateMutability": "view",
      "type": "function"
    },
    {
      "inputs": [],
      "name": "stakingFixedEpochEndTime",
      "outputs": [
        {
          "internalType": "uint256",
          "name": "",
          "type": "uint256"
        }
      ],
      "stateMutability": "view",
      "type": "function"
    },
    {
      "inputs": [],
      "name": "stakingTransitionTimeframeLength",
      "outputs": [
        {
          "internalType": "uint256",
          "name": "",
          "type": "uint256"
        }
      ],
      "stateMutability": "view",
      "type": "function"
    },
    {
      "inputs": [],
      "name": "stakingWithdrawDisallowPeriod",
      "outputs": [
        {
          "internalType": "uint256",
          "name": "",
          "type": "uint256"
        }
      ],
      "stateMutability": "view",
      "type": "function"
    },
    {
      "inputs": [],
      "name": "startTimeOfNextPhaseTransition",
      "outputs": [
        {
          "internalType": "uint256",
          "name": "",
          "type": "uint256"
        }
      ],
      "stateMutability": "view",
      "type": "function"
    },
    {
      "inputs": [
        {
          "internalType": "address",
          "name": "newOwner",
          "type": "address"
        }
      ],
      "name": "transferOwnership",
      "outputs": [],
      "stateMutability": "nonpayable",
      "type": "function"
    },
    {
      "inputs": [],
      "name": "validatorSetContract",
      "outputs": [
        {
          "internalType": "contract IValidatorSetHbbft",
          "name": "",
          "type": "address"
        }
      ],
      "stateMutability": "view",
      "type": "function"
    },
    {
      "inputs": [
        {
          "internalType": "address",
          "name": "_fromPoolStakingAddress",
          "type": "address"
        },
        {
          "internalType": "uint256",
          "name": "_amount",
          "type": "uint256"
        }
      ],
      "name": "withdraw",
      "outputs": [],
      "stateMutability": "nonpayable",
      "type": "function"
    },
    {
      "stateMutability": "payable",
      "type": "receive"
    }
  ],
  "bytecode": "0x60806040523480156200001157600080fd5b506200001c62000022565b620000e3565b600054610100900460ff16156200008f5760405162461bcd60e51b815260206004820152602760248201527f496e697469616c697a61626c653a20636f6e747261637420697320696e697469604482015266616c697a696e6760c81b606482015260840160405180910390fd5b60005460ff90811614620000e1576000805460ff191660ff9081179091556040519081527f7f26b83ff96e1f2b6a682f133852f6798a09c465da95921460cefb38474024989060200160405180910390a15b565b617e0180620000f36000396000f3fe608060405260043610620005725760003560e01c80639228363411620002c9578063bc9eb2c3116200017a578063e9ab030011620000e7578063f2fde38b1162000095578063f49425011162000078578063f49425011462001151578063fa4aaf471462001167578063fb367a9b146200119857600080fd5b8063f2fde38b1462001107578063f3fef3a3146200112c57600080fd5b8063edf94b8211620000ca578063edf94b8214620010a6578063ee435f5514620010d7578063f078609614620010ef57600080fd5b8063e9ab03001462001052578063edd7db75146200108e57600080fd5b8063d290c21d1162000145578063dadee88a1162000128578063dadee88a1462000fe7578063df6f55f51462001018578063dfc8bf4e146200103057600080fd5b8063d290c21d1462000fb7578063da7a9b6a1462000fcf57600080fd5b8063bc9eb2c31462000f19578063c6912cc01462000f55578063c7fe83261462000f6d578063cfef14411462000f9257600080fd5b8063a42059671162000236578063ae1aaf8011620001e4578063b42754a511620001c7578063b42754a51462000e9e578063b61ed63a1462000ecf578063ba08d2371462000ef457600080fd5b8063ae1aaf801462000e61578063b0bd5e9e1462000e7957600080fd5b8063a697ecff1162000219578063a697ecff1462000de8578063a711e6a11462000e24578063adddc0cf1462000e4957600080fd5b8063a42059671462000d94578063a5d54f651462000dd057600080fd5b80639a7b5f1111620002945780639b9fb6d011620002775780639b9fb6d01462000d255780639e72c6351462000d4a5780639ea8082b1462000d6f57600080fd5b80639a7b5f111462000cd75780639b03d7441462000d0d57600080fd5b8063922836341462000c00578063950a65131462000c4e5780639518c4811462000c73578063957950a71462000caf57600080fd5b80634f9a8d8f11620004245780637069e74611620003915780637b0a0f9b116200033f5780638247a23911620003225780638247a2391462000b82578063862be2871462000ba75780638da5cb5b1462000bcc57600080fd5b80637b0a0f9b1462000b385780637b15b94c1462000b5d57600080fd5b806373c21803116200037457806373c218031462000aa7578063750dd2a11462000acc578063794c0c681462000b2057600080fd5b80637069e7461462000a77578063715018a61462000a8f57600080fd5b80635d80ca3211620003ef5780636511391811620003d25780636511391814620009fa578063673a2a1f1462000a2b5780636bda15771462000a5257600080fd5b80635d80ca3214620009ca5780635fef764314620009e257600080fd5b80634f9a8d8f146200092e5780635267e1d614620009465780635659b742146200097757806356e4d6c214620009b357600080fd5b80632bafde8d11620004e0578063379b046a116200048e5780633ea15d6211620004715780633ea15d6214620008b057806348aaa4a214620008d55780634e9b426d14620008fa57600080fd5b8063379b046a14620008735780633b7d0946146200088b57600080fd5b80633219d60011620004c35780633219d600146200080257806336e98ca8146200083657806337154263146200085b57600080fd5b80632bafde8d14620007875780633172773014620007ac57600080fd5b80631fb31e43116200053e57806322e3d986116200052157806322e3d9861462000733578063251441a9146200074b57806326476204146200077057600080fd5b80631fb31e43146200068d57806322704bdd146200070e57600080fd5b80622ceebc14620005ca578063028b8bdb146200061f5780630868c0d614620006375780631555371c146200067357600080fd5b36620005c55760405162461bcd60e51b815260206004820152600b60248201527f4e6f742070617961626c6500000000000000000000000000000000000000000060448201526064015b60405180910390fd5b600080fd5b348015620005d757600080fd5b506200060c620005e936600462007081565b607060209081526000938452604080852082529284528284209052825290205481565b6040519081526020015b60405180910390f35b3480156200062c57600080fd5b506200060c607e5481565b3480156200064457600080fd5b506200060c62000656366004620070c7565b607460209081526000928352604080842090915290825290205481565b3480156200068057600080fd5b506200068b620011bd565b005b3480156200069a57600080fd5b50620006db620006ac36600462007105565b6001600160a01b0316600090815260876020526040902060010154608081901b91600160801b90910460f01b90565b604080516fffffffffffffffffffffffffffffffff1990931683526001600160f01b031990911660208301520162000616565b3480156200071b57600080fd5b506200068b6200072d36600462007125565b620012bb565b3480156200074057600080fd5b506200060c620013bd565b3480156200075857600080fd5b506200068b6200076a36600462007081565b6200140c565b6200068b6200078136600462007105565b62001546565b3480156200079457600080fd5b506200068b620007a636600462007125565b620015ed565b348015620007b957600080fd5b50620007f1620007cb36600462007081565b607a60209081526000938452604080852082529284528284209052825290205460ff1681565b604051901515815260200162000616565b3480156200080f57600080fd5b50620007f16200082136600462007105565b60896020526000908152604090205460ff1681565b3480156200084357600080fd5b506200068b620008553660046200728f565b620016a5565b3480156200086857600080fd5b506200068b62001760565b3480156200088057600080fd5b506200060c60845481565b3480156200089857600080fd5b506200068b620008aa36600462007105565b62001c51565b348015620008bd57600080fd5b506200068b620008cf36600462007321565b62001caf565b348015620008e257600080fd5b506200068b620008f436600462007125565b6200233a565b3480156200090757600080fd5b506200091f6200091936600462007105565b62002349565b604051620006169190620073c2565b3480156200093b57600080fd5b506200060c60805481565b3480156200095357600080fd5b506200060c6200096536600462007105565b60856020526000908152604090205481565b3480156200098457600080fd5b506200060c62000996366004620070c7565b607c60209081526000928352604080842090915290825290205481565b6200068b620009c43660046200744a565b620023fd565b348015620009d757600080fd5b506200060c60885481565b348015620009ef57600080fd5b506200060c606e5481565b34801562000a0757600080fd5b506200060c62000a1936600462007105565b60766020526000908152604090205481565b34801562000a3857600080fd5b5062000a4362002559565b604051620006169190620074b9565b34801562000a5f57600080fd5b506200060c62000a71366004620070c7565b620025bd565b34801562000a8457600080fd5b506200060c60835481565b34801562000a9c57600080fd5b506200068b62002774565b34801562000ab457600080fd5b5062000a4362000ac636600462007105565b6200278c565b34801562000ad957600080fd5b506200060c62000aeb366004620070c7565b6001600160a01b039182166000908152606d60209081526040808320939094168252918252828120607f548252909152205490565b34801562000b2d57600080fd5b506200060c607f5481565b34801562000b4557600080fd5b506200068b62000b5736600462007521565b62002803565b34801562000b6a57600080fd5b506200068b62000b7c36600462007105565b620028a6565b34801562000b8f57600080fd5b506200068b62000ba136600462007125565b62002938565b34801562000bb457600080fd5b506200068b62000bc63660046200756d565b62002991565b34801562000bd957600080fd5b506033546001600160a01b03165b6040516001600160a01b03909116815260200162000616565b34801562000c0d57600080fd5b5062000c3462000c1f366004620075e8565b60bc6020526000908152604090205460e01b81565b6040516001600160e01b0319909116815260200162000616565b34801562000c5b57600080fd5b506200060c62000c6d366004620070c7565b620029f6565b34801562000c8057600080fd5b506200060c62000c92366004620070c7565b607560209081526000928352604080842090915290825290205481565b34801562000cbc57600080fd5b5062000cc762002b79565b6040516200061692919062007643565b34801562000ce457600080fd5b5062000cfc62000cf636600462007105565b62002bde565b604051620006169392919062007667565b34801562000d1a57600080fd5b506200060c60825481565b34801562000d3257600080fd5b506200068b62000d44366004620076b0565b62002c9a565b34801562000d5757600080fd5b506200068b62000d6936600462007125565b62002d20565b34801562000d7c57600080fd5b5062000a4362000d8e36600462007105565b62002d95565b34801562000da157600080fd5b506200060c62000db3366004620070c7565b607360209081526000928352604080842090915290825290205481565b34801562000ddd57600080fd5b5062000a4362002e0b565b34801562000df557600080fd5b506200060c62000e07366004620070c7565b607b60209081526000928352604080842090915290825290205481565b34801562000e3157600080fd5b50620007f162000e4336600462007105565b62002e6d565b34801562000e5657600080fd5b506200068b62002ed1565b34801562000e6e57600080fd5b506200060c60815481565b34801562000e8657600080fd5b506200068b62000e9836600462007125565b62002f3e565b34801562000eab57600080fd5b506200060c62000ebd36600462007105565b60776020526000908152604090205481565b34801562000edc57600080fd5b506200068b62000eee366004620076e9565b62002fec565b34801562000f0157600080fd5b50620007f162000f1336600462007718565b620035b3565b34801562000f2657600080fd5b506200060c62000f38366004620070c7565b607d60209081526000928352604080842090915290825290205481565b34801562000f6257600080fd5b506200060c620037c9565b34801562000f7a57600080fd5b506200068b62000f8c3660046200777f565b620037f1565b34801562000f9f57600080fd5b506200068b62000fb136600462007105565b62003c91565b34801562000fc457600080fd5b5062000a4362003fc9565b34801562000fdc57600080fd5b506200060c606f5481565b34801562000ff457600080fd5b506200060c6200100636600462007105565b60726020526000908152604090205481565b3480156200102557600080fd5b5062000a436200402b565b3480156200103d57600080fd5b5060865462000be7906001600160a01b031681565b3480156200105f57600080fd5b506200060c62001071366004620070c7565b607160209081526000928352604080842090915290825290205481565b3480156200109b57600080fd5b506200068b6200408d565b348015620010b357600080fd5b506200060c620010c536600462007105565b60796020526000908152604090205481565b348015620010e457600080fd5b506200068b62004243565b348015620010fc57600080fd5b506200060c610bb881565b3480156200111457600080fd5b506200068b6200112636600462007105565b620042b1565b3480156200113957600080fd5b506200068b6200114b366004620076e9565b62004344565b3480156200115e57600080fd5b506001620007f1565b3480156200117457600080fd5b506200060c6200118636600462007105565b60786020526000908152604090205481565b348015620011a557600080fd5b506200060c620011b73660046200783a565b620043e9565b6086546001600160a01b031633146200120d5760405162461bcd60e51b815260206004820152601160248201527013db9b1e4815985b1a59185d1bdc94d95d607a1b6044820152606401620005bc565b600060688054806020026020016040519081016040528092919081815260200182805480156200126757602002820191906000526020600020905b81546001600160a01b0316815260019091019060200180831162001248575b5050505050905060005b8151811015620012b757620012a2828281518110620012945762001294620078a6565b60200260200101516200495e565b80620012ae81620078d2565b91505062001271565b5050565b620012c562004ad9565b600a81116200133d5760405162461bcd60e51b815260206004820152602f60248201527f546865207472616e736974696f6e2074696d656672616d65206d75737420626560448201527f206c6f6e676572207468616e20313000000000000000000000000000000000006064820152608401620005bc565b6080548110620013b8576040805162461bcd60e51b81526020600482015260248101919091527f546865207472616e736974696f6e2074696d656672616d65206d75737420626560448201527f20736d616c6c6572207468616e207468652065706f6368206475726174696f6e6064820152608401620005bc565b608155565b6082546080546000919015620013d5576001620013d8565b60005b60ff1660845460805483620013ee9190620078ee565b620013fa9190620078ee565b62001406919062007904565b91505090565b3a6000036200144e5760405162461bcd60e51b815260206004820152600d60248201526c04761735072696365206973203609c1b6044820152606401620005bc565b816001600160a01b0316836001600160a01b031603620014d75760405162461bcd60e51b815260206004820152602760248201527f4d6f76655374616b653a2073726320616e642064737420706f6f6c206973207460448201527f68652073616d65000000000000000000000000000000000000000000000000006064820152608401620005bc565b33620014e584828462004b35565b620014f283828462004e88565b607f54604080516001600160a01b0387811682526020820186905280851692908716917f4480d8e4b1e9095b94bf513961d26fe1d32386ebdd103d18fe8738cf4b2223ff910160405180910390a450505050565b3a600003620015885760405162461bcd60e51b815260206004820152600d60248201526c04761735072696365206973203609c1b6044820152606401620005bc565b33346200159783838362004e88565b607f54826001600160a01b0316846001600160a01b03167f2273de02cb1f69ba6259d22c4bc22c60e4c94c193265ef6afee324a04a9b6d2284604051620015e091815260200190565b60405180910390a4505050565b620015f762004ad9565b80620016106000356001600160e01b03191682620035b3565b620016695760405162461bcd60e51b815260206004820152602260248201527f6e65772076616c7565206e6f742077697468696e20616c6c6f7765642072616e604482015261676560f01b6064820152608401620005bc565b606f8290556040518281527ffee02ce7aa40f9c49eaabd26d404fa88714b97cb209af8954cfd5eeb8213b93e9060200160405180910390a15050565b620016af62004ad9565b60408051808201825283516020808601919091206001600160e01b03199081168352818301858152875188840120909116600090815260bc8352939093208251815463ffffffff191660e09190911c178155925180519293926200171a926001850192019062006fd7565b509050507f3d45a310c5a076ea07aa2947ca3c06cc2a8b3571065867ad6f8e7096a2c9d50a83838360405162001753939291906200791a565b60405180910390a1505050565b3a600003620017a25760405162461bcd60e51b815260206004820152600d60248201526c04761735072696365206973203609c1b6044820152606401620005bc565b6000806066805480602002602001604051908101604052809291908181526020018280548015620017fd57602002820191906000526020600020905b81546001600160a01b03168152600190910190602001808311620017de575b505050505090508051600003620018575760405162461bcd60e51b815260206004820152601260248201527f6e6f7468696e6720746f207265636f76657200000000000000000000000000006044820152606401620005bc565b60005b815181101562001a515760008282815181106200187b576200187b620078a6565b60200260200101519050620018908162005495565b806200190a5750608654604051639d6fc1d160e01b81526001600160a01b03838116600483015290911690639d6fc1d190602401602060405180830381865afa158015620018e2573d6000803e3d6000fd5b505050506040513d601f19601f8201168201806040525081019062001908919062007963565b155b1562001917575062001a3e565b6200192281620054d4565b6001600160a01b0381166000908152608960209081526040808320805460ff191660011790556085909152812080549082905590620019618362002d95565b905060005b8151811015620019dd576000828281518110620019875762001987620078a6565b6020908102919091018101516001600160a01b038088166000908152607b845260408082209284168252919093528220919091559050620019c985826200560f565b50620019d581620078d2565b905062001966565b50620019ea8287620078ee565b9550826001600160a01b0316336001600160a01b03167f8e6a4ccd7dccdca9ac211d00fcc3fa7c71be75ff73d3a35f63ea023173cc10048460405162001a3291815260200190565b60405180910390a35050505b62001a4981620078d2565b90506200185a565b508160000362001aa45760405162461bcd60e51b815260206004820152601260248201527f6e6f7468696e6720746f207265636f76657200000000000000000000000000006044820152606401620005bc565b600062001ab360028462007987565b9050600062001ac3828562007904565b90506000608660009054906101000a90046001600160a01b03166001600160a01b03166356b54bae6040518163ffffffff1660e01b8152600401602060405180830381865afa15801562001b1b573d6000803e3d6000fd5b505050506040513d601f19601f8201168201806040525081019062001b419190620079aa565b90506000816001600160a01b031663732524946040518163ffffffff1660e01b8152600401602060405180830381865afa15801562001b84573d6000803e3d6000fd5b505050506040513d601f19601f8201168201806040525081019062001baa9190620079aa565b9050816001600160a01b031663af182535846040518263ffffffff1660e01b81526004016000604051808303818588803b15801562001be857600080fd5b505af115801562001bfd573d6000803e3d6000fd5b505050505062001c0e8185620057b9565b604080518481526020810186905233917f1c113e6bae9530fea40323e612aeb0cb7817dedb5a0b0f6bdfbff97d55920dc7910160405180910390a2505050505050565b6086546001600160a01b0316331462001ca15760405162461bcd60e51b815260206004820152601160248201527013db9b1e4815985b1a59185d1bdc94d95d607a1b6044820152606401620005bc565b62001cac816200495e565b50565b3a60000362001cf15760405162461bcd60e51b815260206004820152600d60248201526c04761735072696365206973203609c1b6044820152606401620005bc565b336000806001600160a01b038416831462001da9576001600160a01b038085166000908152607c60209081526040808320938716835292905290812054925082900362001d815760405162461bcd60e51b815260206004820152601d60248201527f436c61696d3a2066697273742065706f63682063616e277420626520300000006044820152606401620005bc565b506001600160a01b038084166000908152607d60209081526040808320938616835292905220545b60865460408051632b5aa5d760e11b815290516000926001600160a01b0316916356b54bae9160048083019260209291908290030181865afa15801562001df4573d6000803e3d6000fd5b505050506040513d601f19601f8201168201806040525081019062001e1a9190620079aa565b6086546040516253517560e01b81526001600160a01b038881166004830152929350600092909116906253517590602401602060405180830381865afa15801562001e69573d6000803e3d6000fd5b505050506040513d601f19601f8201168201806040525081019062001e8f9190620079aa565b9050600080885160000362001f125760405163dd03f5b960e01b81526001600160a01b03848116600483015285169063dd03f5b990602401600060405180830381865afa15801562001ee5573d6000803e3d6000fd5b505050506040513d6000823e601f3d908101601f1916820160405262001f0f9190810190620079ca565b98505b60005b8951811015620022ca5760008a828151811062001f365762001f36620078a6565b60200260200101519050816000148062001f7757508a62001f5960018462007904565b8151811062001f6c5762001f6c620078a6565b602002602001015181115b62001feb5760405162461bcd60e51b815260206004820152602560248201527f436c61696d3a206e656564207374726963746c7920696e6372656173696e672060448201527f6f726465720000000000000000000000000000000000000000000000000000006064820152608401620005bc565b607f5481106200203e5760405162461bcd60e51b815260206004820181905260248201527f436c61696d3a206f6e6c79206265666f72652063757272656e742065706f63686044820152606401620005bc565b6001600160a01b03808b166000908152607a60209081526040808320938d1683529281528282208483529052205460ff16156200207c5750620022b5565b6000896001600160a01b03168b6001600160a01b0316146200216c5788821015620020a9575050620022b5565b818811158015620020b957508715155b15620020c7575050620022ca565b620020d6828a868e8e620058b7565b9350620020e5826001620078ee565b604051631c3572db60e31b815260048101869052602481018490526001600160a01b038881166044830152919a509088169063e1ab96d890606401602060405180830381865afa1580156200213e573d6000803e3d6000fd5b505050506040513d601f19601f8201168201806040525081019062002164919062007a64565b9050620021e3565b60405163ba2d759760e01b8152600481018390526001600160a01b03878116602483015288169063ba2d759790604401602060405180830381865afa158015620021ba573d6000803e3d6000fd5b505050506040513d601f19601f82011682018060405250810190620021e0919062007a64565b90505b620021ef8186620078ee565b94506001607a60008d6001600160a01b03166001600160a01b0316815260200190815260200160002060008c6001600160a01b03166001600160a01b03168152602001908152602001600020600084815260200190815260200160002060006101000a81548160ff021916908315150217905550818a6001600160a01b03168c6001600160a01b03167fd3208fd5300db64b97bc442f47ade72b7ebcd9272aaecdcc04c777bb762861b984604051620022aa91815260200190565b60405180910390a450505b80620022c181620078d2565b91505062001f15565b5060405163234a83e360e11b8152600481018390526001600160a01b03888116602483015285169063469507c690604401600060405180830381600087803b1580156200231657600080fd5b505af11580156200232b573d6000803e3d6000fd5b50505050505050505050505050565b6200234462004ad9565b606e55565b6001600160a01b0381166000908152608760205260409020805460609190620023729062007a7e565b80601f0160208091040260200160405190810160405280929190818152602001828054620023a09062007a7e565b8015620023f15780601f10620023c557610100808354040283529160200191620023f1565b820191906000526020600020905b815481529060010190602001808311620023d357829003601f168201915b50505050509050919050565b3a6000036200243f5760405162461bcd60e51b815260206004820152600d60248201526c04761735072696365206973203609c1b6044820152606401620005bc565b608654604051630526083960e11b81526001600160a01b0386811660048301523360248301819052923492911690630a4c107290604401600060405180830381600087803b1580156200249157600080fd5b505af1158015620024a6573d6000803e3d6000fd5b50505050620024b782838362004e88565b6001600160a01b0382166000908152608760205260409020620024dc85878362007b04565b506001600160a01b03821660008181526087602090815260409182902060010180546fffffffffffffffffffffffffffffffff1916608088901c179055607f54915184815291929182917f2273de02cb1f69ba6259d22c4bc22c60e4c94c193265ef6afee324a04a9b6d22910160405180910390a4505050505050565b60606065805480602002602001604051908101604052809291908181526020018280548015620025b357602002820191906000526020600020905b81546001600160a01b0316815260019091019060200180831162002594575b5050505050905090565b6086546040516253517560e01b81526001600160a01b03848116600483015260009283929116906253517590602401602060405180830381865afa1580156200260a573d6000803e3d6000fd5b505050506040513d601f19601f82011682018060405250810190620026309190620079aa565b90506200265381846001600160a01b0316866001600160a01b031614156200593a565b15806200267857506001600160a01b03841660009081526089602052604090205460ff165b15620026895760009150506200276e565b6001600160a01b038481166000908152607b6020908152604080832087851684529091529081902054608654915163a0d16cad60e01b815284841660048201529092919091169063a0d16cad90602401602060405180830381865afa158015620026f7573d6000803e3d6000fd5b505050506040513d601f19601f820116820180604052508101906200271d919062007963565b6200272c5791506200276e9050565b6001600160a01b038581166000908152606d602090815260408083209388168352928152828220607f548352905220548082111562002769578091505b509150505b92915050565b6200277e62004ad9565b6200278a600062005a52565b565b6001600160a01b0381166000908152606c6020908152604091829020805483518184028101840190945280845260609392830182828015620023f157602002820191906000526020600020905b81546001600160a01b03168152600190910190602001808311620027d95750505050509050919050565b6086546001600160a01b03163314620028535760405162461bcd60e51b815260206004820152601160248201527013db9b1e4815985b1a59185d1bdc94d95d607a1b6044820152606401620005bc565b6001600160a01b039092166000908152608760205260409020600101805460f09390931c600160801b0271ffffffffffffffffffffffffffffffffffff1990931660809290921c91909117919091179055565b6086546001600160a01b03163314620028f65760405162461bcd60e51b815260206004820152601160248201527013db9b1e4815985b1a59185d1bdc94d95d607a1b6044820152606401620005bc565b606e546001600160a01b0382166000908152607b602090815260408083209091529020541062001cac576200292d81600162005aa4565b62001cac8162005b83565b6086546001600160a01b03163314620029885760405162461bcd60e51b815260206004820152601160248201527013db9b1e4815985b1a59185d1bdc94d95d607a1b6044820152606401620005bc565b60825543608355565b336000908152608760205260409020620029ad84868362007b04565b50336000908152608760205260409020600101805460f09290921c600160801b0271ffffffffffffffffffffffffffffffffffff1990921660809390931c929092171790555050565b6086546040516253517560e01b81526001600160a01b03848116600483015260009283929116906253517590602401602060405180830381865afa15801562002a43573d6000803e3d6000fd5b505050506040513d601f19601f8201168201806040525081019062002a699190620079aa565b905062002a8c81846001600160a01b0316866001600160a01b031614156200593a565b62002a9c5760009150506200276e565b60865460405163a0d16cad60e01b81526001600160a01b0383811660048301529091169063a0d16cad90602401602060405180830381865afa15801562002ae7573d6000803e3d6000fd5b505050506040513d601f19601f8201168201806040525081019062002b0d919062007963565b62002b1d5760009150506200276e565b6001600160a01b038481166000818152606d60209081526040808320948816808452948252808320607f548452825280832054938352607b8252808320948352939052919091205462002b71919062007904565b949350505050565b606060006069606a548180548060200260200160405190810160405280929190818152602001828054801562002bcf57602002820191906000526020600020905b81548152602001906001019080831162002bba575b50505050509150915091509091565b60876020526000908152604090208054819062002bfb9062007a7e565b80601f016020809104026020016040519081016040528092919081815260200182805462002c299062007a7e565b801562002c7a5780601f1062002c4e5761010080835404028352916020019162002c7a565b820191906000526020600020905b81548152906001019060200180831162002c5c57829003601f168201915b50505060019093015491925050608081901b90600160801b900460f01b83565b62002ca462004ad9565b80516020808301919091206001600160e01b031916600090815260bc90915260408120805463ffffffff191681559062002ce2600183018262007027565b50507f92d44565a40fe29702ffa146ddaa3bb133d4077f5312d682d0a2632a9bc73a8a8160405162002d159190620073c2565b60405180910390a150565b6086546001600160a01b0316331462002d705760405162461bcd60e51b815260206004820152601160248201527013db9b1e4815985b1a59185d1bdc94d95d607a1b6044820152606401620005bc565b6081548160845462002d839190620078ee565b62002d8f9190620078ee565b60845550565b6001600160a01b0381166000908152606b6020908152604091829020805483518184028101840190945280845260609392830182828015620023f1576020028201919060005260206000209081546001600160a01b03168152600190910190602001808311620027d95750505050509050919050565b60606067805480602002602001604051908101604052809291908181526020018280548015620025b3576020028201919060005260206000209081546001600160a01b0316815260019091019060200180831162002594575050505050905090565b6001600160a01b0381166000908152607760205260408120546065548110801562002eca5750826001600160a01b03166065828154811062002eb35762002eb3620078a6565b6000918252602090912001546001600160a01b0316145b9392505050565b6086546001600160a01b0316331462002f215760405162461bcd60e51b815260206004820152601160248201527013db9b1e4815985b1a59185d1bdc94d95d607a1b6044820152606401620005bc565b6081546084600082825462002f379190620078ee565b9091555050565b62002f4862004ad9565b608154811162002fe75760405162461bcd60e51b815260206004820152605760248201527f5468652066697865642065706f6368206475726174696f6e2074696d6566726160448201527f6d65206d7573742062652067726561746572207468616e20746865207472616e60648201527f736974696f6e2074696d656672616d65206c656e677468000000000000000000608482015260a401620005bc565b608055565b3a6000036200302e5760405162461bcd60e51b815260206004820152600d60248201526c04761735072696365206973203609c1b6044820152606401620005bc565b6001600160a01b038216620030915760405162461bcd60e51b815260206004820152602260248201527f706f6f6c5374616b696e6741646472657373206d757374206e6f742062652030604482015261078360f41b6064820152608401620005bc565b80600003620031095760405162461bcd60e51b815260206004820152602560248201527f6f72646572656420776974686472617720616d6f756e74206d757374206e6f7460448201527f20626520300000000000000000000000000000000000000000000000000000006064820152608401620005bc565b6086546040516253517560e01b81526001600160a01b03848116600483015233926200319a929116906253517590602401602060405180830381865afa15801562003158573d6000803e3d6000fd5b505050506040513d601f19601f820116820180604052508101906200317e9190620079aa565b846001600160a01b0316836001600160a01b031614156200593a565b620031e85760405162461bcd60e51b815260206004820152601a60248201527f4f7264657257697468647261773a206e6f7420616c6c6f7765640000000000006044820152606401620005bc565b6001600160a01b038084166000818152607160209081526040808320948616808452948252808320548484526072835281842054607b845282852096855295835281842054948452608590925282205490939291861315620033315785620032518887620029f6565b811115620032c85760405162461bcd60e51b815260206004820152602f60248201527f4f7264657257697468647261773a206d617857697468647261774f726465724160448201527f6c6c6f77656420657863656564656400000000000000000000000000000000006064820152608401620005bc565b620032d48186620078ee565b9450620032e28185620078ee565b9350620032f0818462007904565b9250620032fe818362007904565b607f546001600160a01b03808b166000908152607360209081526040808320938c168352929052205591506200337a9050565b60006200333e8762007bd1565b90506200334c818662007904565b94506200335a818562007904565b9350620033688184620078ee565b9250620033768183620078ee565b9150505b6001600160a01b038088166000818152607160209081526040808320948a1680845294825280832089905583835260728252808320889055607b825280832085845282528083208790558383526085909152902083905590036200348d57811580620033e85750606e548210155b6200345c5760405162461bcd60e51b815260206004820152603360248201527f6e65775374616b6520416d6f756e74206d75737420626520677265617465722060448201527f7468616e20746865206d696e207374616b652e000000000000000000000000006064820152608401620005bc565b60008613156200348057816000036200347a576200347a8762005c63565b6200354e565b6200347a87600162005aa4565b8115806200349d5750606f548210155b620035115760405162461bcd60e51b815260206004820152603360248201527f6e65775374616b6520416d6f756e74206d75737420626520677265617465722060448201527f7468616e20746865206d696e207374616b652e000000000000000000000000006064820152608401620005bc565b600086131562003536578160000362003530576200353087866200560f565b62003542565b62003542878662005d2e565b6200354e878662005dfd565b620035598762005b83565b607f54856001600160a01b0316886001600160a01b03167f80d5c777e5f7ac6ee89723223803ca5c0ec0204f89e99c1b0cde973c66a6459489604051620035a291815260200190565b60405180910390a450505050505050565b6001600160e01b0319808316600090815260bc6020908152604080832081518083018352815460e01b9095168552600181018054835181860281018601909452808452949586959094929385840193909291908301828280156200363757602002820191906000526020600020905b81548152602001906001019080831162003622575b50505050508152505090508060200151516000036200365b5760009150506200276e565b60208101518151600090620036709062005f09565b90506000805b8351811015620037be5782848281518110620036965762003696620078a6565b602002602001015103620037a957600191506000808211620036d65784600081518110620036c857620036c8620078a6565b602002602001015162003700565b84620036e460018462007904565b81518110620036f757620036f7620078a6565b60200260200101515b905060006001865162003714919062007904565b83106200374d5785600187516200372c919062007904565b815181106200373f576200373f620078a6565b602002602001015162003777565b856200375b846001620078ee565b815181106200376e576200376e620078a6565b60200260200101515b90508189141580156200378a5750808914155b15620037a15760009750505050505050506200276e565b5050620037be565b80620037b581620078d2565b91505062003676565b509695505050505050565b6000608154608054608254620037e09190620078ee565b620037ec919062007904565b905090565b600054610100900460ff1615808015620038125750600054600160ff909116105b806200382e5750303b1580156200382e575060005460ff166001145b620038a25760405162461bcd60e51b815260206004820152602e60248201527f496e697469616c697a61626c653a20636f6e747261637420697320616c72656160448201527f647920696e697469616c697a65640000000000000000000000000000000000006064820152608401620005bc565b6000805460ff191660011790558015620038c6576000805461ff0019166101001790555b6001600160a01b0387166200391e5760405162461bcd60e51b815260206004820152601960248201527f4f776e657220616464726573732063616e6e6f742062652030000000000000006044820152606401620005bc565b8560a00135600003620039745760405162461bcd60e51b815260206004820152601760248201527f466978656445706f63684475726174696f6e20697320300000000000000000006044820152606401620005bc565b8560e001358660a0013511620039f35760405162461bcd60e51b815260206004820152603d60248201527f466978656445706f63684475726174696f6e206d757374206265206c6f6e676560448201527f72207468616e207769746864726177446973616c6c6f77506572696f640000006064820152608401620005bc565b8560e0013560000362003a495760405162461bcd60e51b815260206004820152601b60248201527f5769746864726177446973616c6c6f77506572696f64206973203000000000006044820152606401620005bc565b8560c0013560000362003ac55760405162461bcd60e51b815260206004820152602e60248201527f546865207472616e736974696f6e2074696d656672616d65206d75737420626560448201527f206c6f6e676572207468616e20300000000000000000000000000000000000006064820152608401620005bc565b8560a001358660c001351062003b46576040805162461bcd60e51b81526020600482015260248101919091527f546865207472616e736974696f6e2074696d656672616d65206d75737420626560448201527f2073686f72746572207468656e207468652065706f6368206475726174696f6e6064820152608401620005bc565b62003b506200600e565b62003b5b8762005a52565b62003c2562003b6e602088018862007105565b62003b7d602089018962007bf0565b8080602002602001604051908101604052809392919081815260200183836020028082843760009201919091525050604080516020808c02828101820184528c8352928e0135945060608e0135935060808e0135928d918d91829185019084908082843760009201919091525050604080516020808e0282810182019093528d82529093508d92508c9182918501908490808284376000920191909152506200608592505050565b60a086013560805560e0860135607e554260825560c0860135608155801562003c88576000805461ff0019169055604051600181527f7f26b83ff96e1f2b6a682f133852f6798a09c465da95921460cefb38474024989060200160405180910390a15b50505050505050565b3a60000362003cd35760405162461bcd60e51b815260206004820152600d60248201526c04761735072696365206973203609c1b6044820152606401620005bc565b6001600160a01b038116600090815260736020908152604080832033808552925290912054607f541162003d705760405162461bcd60e51b815260206004820152603f60248201527f63616e6e6f7420636c61696d206f72646572656420776974686472617720696e60448201527f207468652073616d652065706f636820697420776173206f7264657265642e006064820152608401620005bc565b6086546040516253517560e01b81526001600160a01b03848116600483015262003dfe9216906253517590602401602060405180830381865afa15801562003dbc573d6000803e3d6000fd5b505050506040513d601f19601f8201168201806040525081019062003de29190620079aa565b836001600160a01b0316836001600160a01b031614156200593a565b62003e725760405162461bcd60e51b815260206004820152602a60248201527f436c61696d4f72646572656457697468647261773a205769746864726177206e60448201527f6f7420616c6c6f776564000000000000000000000000000000000000000000006064820152608401620005bc565b6001600160a01b0380831660009081526071602090815260408083209385168352929052908120549081900362003eec5760405162461bcd60e51b815260206004820152601a60248201527f636c61696d20616d6f756e74206d757374206e6f7420626520300000000000006044820152606401620005bc565b6001600160a01b03808416600081815260716020908152604080832094871683529381528382208290559181526072909152205462003f2d90829062007904565b6001600160a01b03808516600090815260726020908152604080832094909455607b815283822092861682529190915290812054900362003f745762003f74838362006602565b62003f80828262006743565b607f54826001600160a01b0316846001600160a01b03167ff380b0bc887e00f5b50d3c9d4eaaf5c9a0afd97b956316b995159384c4ede9b384604051620015e091815260200190565b60606068805480602002602001604051908101604052809291908181526020018280548015620025b3576020028201919060005260206000209081546001600160a01b0316815260019091019060200180831162002594575050505050905090565b60606066805480602002602001604051908101604052809291908181526020018280548015620025b3576020028201919060005260206000209081546001600160a01b0316815260019091019060200180831162002594575050505050905090565b3a600003620040cf5760405162461bcd60e51b815260206004820152600d60248201526c04761735072696365206973203609c1b6044820152606401620005bc565b6086546040516253517560e01b81523360048201819052916000916001600160a01b03909116906253517590602401602060405180830381865afa1580156200411c573d6000803e3d6000fd5b505050506040513d601f19601f82011682018060405250810190620041429190620079aa565b90506000607f541180620041c4575060865460405163facd743b60e01b81526001600160a01b0383811660048301529091169063facd743b90602401602060405180830381865afa1580156200419c573d6000803e3d6000fd5b505050506040513d601f19601f82011682018060405250810190620041c2919062007963565b155b620042385760405162461bcd60e51b815260206004820152602a60248201527f43616e27742072656d6f766520706f6f6c20647572696e67203173742073746160448201527f6b696e672065706f6368000000000000000000000000000000000000000000006064820152608401620005bc565b620012b7826200495e565b6086546001600160a01b03163314620042935760405162461bcd60e51b815260206004820152601160248201527013db9b1e4815985b1a59185d1bdc94d95d607a1b6044820152606401620005bc565b607f8054906000620042a583620078d2565b90915550506000608455565b620042bb62004ad9565b6001600160a01b038116620043395760405162461bcd60e51b815260206004820152602660248201527f4f776e61626c653a206e6577206f776e657220697320746865207a65726f206160448201527f64647265737300000000000000000000000000000000000000000000000000006064820152608401620005bc565b62001cac8162005a52565b3a600003620043865760405162461bcd60e51b815260206004820152600d60248201526c04761735072696365206973203609c1b6044820152606401620005bc565b336200439483828462004b35565b620043a0818362006743565b607f54816001600160a01b0316846001600160a01b03167fa7c0f0cac6bd4d18042007706c84a8abe823751cf289b69c01e83eef7b5915c785604051620015e091815260200190565b600080806001600160a01b0385811690851614620044ca576001600160a01b038086166000908152607c602090815260408083209388168352929052908120549250829003620044a25760405162461bcd60e51b815260206004820152602e60248201527f556e61626c6520746f206765742072657761726420616d6f756e74206966206e60448201527f6f2066697273742065706f63682e0000000000000000000000000000000000006064820152608401620005bc565b506001600160a01b038085166000908152607d60209081526040808320938716835292905220545b60865460408051632b5aa5d760e11b815290516000926001600160a01b0316916356b54bae9160048083019260209291908290030181865afa15801562004515573d6000803e3d6000fd5b505050506040513d601f19601f820116820180604052508101906200453b9190620079aa565b6086546040516253517560e01b81526001600160a01b038981166004830152929350600092909116906253517590602401602060405180830381865afa1580156200458a573d6000803e3d6000fd5b505050506040513d601f19601f82011682018060405250810190620045b09190620079aa565b90506000808951600003620046335760405163dd03f5b960e01b81526001600160a01b03848116600483015285169063dd03f5b990602401600060405180830381865afa15801562004606573d6000803e3d6000fd5b505050506040513d6000823e601f3d908101601f19168201604052620046309190810190620079ca565b99505b60005b8a51811015620049505760008b8281518110620046575762004657620078a6565b6020026020010151905081600014806200469857508b6200467a60018462007904565b815181106200468d576200468d620078a6565b602002602001015181115b6200470c5760405162461bcd60e51b815260206004820152603660248201527f696e7465726e616c204572726f723a205374616b696e672045706f636873207260448201527f6571756972656420746f206265206f7264657265642e000000000000000000006064820152608401620005bc565b607f548110620047855760405162461bcd60e51b815260206004820152603c60248201527f696e7465726e616c204572726f723a2065706f6368206d757374206e6f74206260448201527f65206c6573736572207468616e2063757272656e742065706f63682e000000006064820152608401620005bc565b6001600160a01b03808c166000908152607a60209081526040808320938e1683529281528282208483529052205460ff1615620047c357506200493b565b60008a6001600160a01b03168c6001600160a01b031614620048b35788821015620047f05750506200493b565b8188111580156200480057508715155b156200480e57505062004950565b6200481d828a878f8f620058b7565b94506200482c826001620078ee565b604051631c3572db60e31b815260048101879052602481018490526001600160a01b038881166044830152919a509088169063e1ab96d890606401602060405180830381865afa15801562004885573d6000803e3d6000fd5b505050506040513d601f19601f82011682018060405250810190620048ab919062007a64565b90506200492a565b60405163ba2d759760e01b8152600481018390526001600160a01b03878116602483015288169063ba2d759790604401602060405180830381865afa15801562004901573d6000803e3d6000fd5b505050506040513d601f19601f8201168201806040525081019062004927919062007a64565b90505b620049368185620078ee565b935050505b806200494781620078d2565b91505062004636565b509998505050505050505050565b6001600160a01b03811660009081526077602052604090205460655481108015620049bb5750816001600160a01b031660658281548110620049a457620049a4620078a6565b6000918252602090912001546001600160a01b0316145b1562004a96576065805460009190620049d79060019062007904565b81548110620049ea57620049ea620078a6565b600091825260209091200154606580546001600160a01b03909216925082918490811062004a1c5762004a1c620078a6565b600091825260208083209190910180546001600160a01b0319166001600160a01b039485161790558383168252607790526040808220859055918516815290812055606580548062004a725762004a7262007c3d565b600082815260209020810160001990810180546001600160a01b0319169055019055505b62004aa18262005495565b1562004ab85762004ab282620054d4565b62004ac3565b62004ac382620067ab565b62004ace826200686f565b620012b78262006ab0565b6033546001600160a01b031633146200278a5760405162461bcd60e51b815260206004820181905260248201527f4f776e61626c653a2063616c6c6572206973206e6f7420746865206f776e65726044820152606401620005bc565b6001600160a01b03831662004bb35760405162461bcd60e51b815260206004820152602e60248201527f576974686472617720706f6f6c207374616b696e672061646472657373206d7560448201527f7374206e6f74206265206e756c6c0000000000000000000000000000000000006064820152608401620005bc565b8060000362004c055760405162461bcd60e51b815260206004820181905260248201527f616d6f756e7420746f207769746864726177206d757374206e6f7420626520306044820152606401620005bc565b62004c118383620025bd565b81111562004c885760405162461bcd60e51b815260206004820152602560248201527f57697468647261773a206d61785769746864726177416c6c6f7765642065786360448201527f65656465640000000000000000000000000000000000000000000000000000006064820152608401620005bc565b6001600160a01b038084166000908152607b6020908152604080832093861683529290529081205462004cbd90839062007904565b90506000836001600160a01b0316856001600160a01b03161462004ce457606f5462004ce8565b606e545b905081158062004cf85750808210155b62004d6c5760405162461bcd60e51b815260206004820152603960248201527f6e65775374616b6520616d6f756e74206d75737420626520677265617465722060448201527f657175616c207468616e20746865206d696e207374616b652e000000000000006064820152608401620005bc565b6001600160a01b038581166000818152607b60209081526040808320948916808452948252808320879055928252606d8152828220938252928352818120607f5482529092529020548381101562004dc657600062004dd2565b62004dd2848262007904565b6001600160a01b038088166000818152606d60209081526040808320948b168352938152838220607f548352815283822094909455908152608590925290205462004e1f90859062007904565b6001600160a01b03871660009081526085602052604081209190915583900362004e4f5762004e4f868662006602565b856001600160a01b0316856001600160a01b03161462004e755762004e75868662005dfd565b62004e808662005b83565b505050505050565b6086546040516253517560e01b81526001600160a01b03858116600483015260009216906253517590602401602060405180830381865afa15801562004ed2573d6000803e3d6000fd5b505050506040513d601f19601f8201168201806040525081019062004ef89190620079aa565b90506001600160a01b03811662004f7a576040805162461bcd60e51b81526020600482015260248101919091527f506f6f6c20646f6573206e6f742065786973742e206d696e696e67416464726560448201527f737320666f722074686174207374616b696e67206164647265737320697320306064820152608401620005bc565b6001600160a01b03841662004fd25760405162461bcd60e51b815260206004820152601a60248201527f5374616b653a207374616b696e674164647265737320697320300000000000006044820152606401620005bc565b81600003620050245760405162461bcd60e51b815260206004820152601960248201527f5374616b653a207374616b696e67416d6f756e742069732030000000000000006044820152606401620005bc565b608654604051635491295760e11b81526001600160a01b0383811660048301529091169063a92252ae90602401602060405180830381865afa1580156200506f573d6000803e3d6000fd5b505050506040513d601f19601f8201168201806040525081019062005095919062007963565b15620050e45760405162461bcd60e51b815260206004820152601f60248201527f5374616b653a204d696e696e6720616464726573732069732062616e6e6564006044820152606401620005bc565b6001600160a01b03841660009081526089602052604090205460ff16156200514f5760405162461bcd60e51b815260206004820152601560248201527f5374616b653a20706f6f6c206162616e646f6e656400000000000000000000006044820152606401620005bc565b6001600160a01b038085166000908152607b6020908152604080832093871683529290529081205462005184908490620078ee565b9050846001600160a01b0316846001600160a01b0316036200522057606e548110156200521a5760405162461bcd60e51b815260206004820152603160248201527f5374616b653a2063616e6469646174655374616b65206c657373207468616e2060448201527f63616e6469646174654d696e5374616b650000000000000000000000000000006064820152608401620005bc565b62005317565b606f548110156200529a5760405162461bcd60e51b815260206004820152603460248201527f5374616b653a2064656c656761746f725374616b65206973206c65737320746860448201527f616e2064656c656761746f724d696e5374616b650000000000000000000000006064820152608401620005bc565b6001600160a01b0385166000908152607b602090815260408083209091528120549003620053175760405162461bcd60e51b815260206004820152602360248201527f5374616b653a2063616e27742064656c656761746520696e20656d70747920706044820152621bdbdb60ea1b6064820152608401620005bc565b6088546001600160a01b03861660009081526085602052604090205462005340908590620078ee565b1115620053905760405162461bcd60e51b815260206004820152601d60248201527f7374616b65206c696d697420686173206265656e2065786365656465640000006044820152606401620005bc565b6001600160a01b038581166000818152607b60209081526040808320948916808452948252808320869055928252606d8152828220938252928352818120607f548252909252902054620053e6908490620078ee565b6001600160a01b038087166000818152606d60209081526040808320948a168352938152838220607f548352815283822094909455908152608590925290205462005433908490620078ee565b6001600160a01b038087166000818152608560205260409020929092558516036200546b576200546585600162005aa4565b62005483565b62005477858562005d2e565b62005483858562005dfd565b6200548e8562005b83565b5050505050565b6001600160a01b0381166000908152608560205260408120541580156200276e5750506001600160a01b03166000908152607260205260409020541590565b6001600160a01b03811660009081526076602052604090205460665481108015620055315750816001600160a01b0316606682815481106200551a576200551a620078a6565b6000918252602090912001546001600160a01b0316145b15620012b75760668054600091906200554d9060019062007904565b81548110620055605762005560620078a6565b600091825260209091200154606680546001600160a01b039092169250829184908110620055925762005592620078a6565b600091825260208083209190910180546001600160a01b0319166001600160a01b0394851617905583831682526076905260408082208590559185168152908120556066805480620055e857620055e862007c3d565b600082815260209020810160001990810180546001600160a01b0319169055019055505050565b6001600160a01b038083166000908152606b6020908152604080832060748352818420948616845293909152902054815481108015620056805750826001600160a01b0316828281548110620056695762005669620078a6565b6000918252602090912001546001600160a01b0316145b156200576957815460009083906200569b9060019062007904565b81548110620056ae57620056ae620078a6565b9060005260206000200160009054906101000a90046001600160a01b0316905080838381548110620056e457620056e4620078a6565b600091825260208083209190910180546001600160a01b0319166001600160a01b0394851617905587831682526074815260408083208585168452909152808220859055918616815290812055825483908062005745576200574562007c3d565b600082815260209020810160001990810180546001600160a01b0319169055019055505b6001600160a01b0380851660009081526071602090815260408083209387168352929052205415620057a757620057a1848462006bc4565b620057b3565b620057b3848462006c8d565b50505050565b804710156200580b5760405162461bcd60e51b815260206004820152601460248201527f496e73756666696369656e742062616c616e63650000000000000000000000006044820152606401620005bc565b6000826001600160a01b03168260405160006040518083038185875af1925050503d80600081146200585a576040519150601f19603f3d011682016040523d82523d6000602084013e6200585f565b606091505b5050905080620058b25760405162461bcd60e51b815260206004820152600f60248201527f5472616e73666572206661696c656400000000000000000000000000000000006044820152606401620005bc565b505050565b60005b506001600160a01b03808316600090815260706020908152604080832093851683529281528282208883529052205480156200590c57600019811462005901578062005904565b60005b905062005931565b8486036200591c57508262005931565b85620059288162007c53565b965050620058ba565b95945050505050565b60008115620059c95760865460405163a881c5fd60e01b81526001600160a01b0385811660048301529091169063a881c5fd90602401602060405180830381865afa1580156200598e573d6000803e3d6000fd5b505050506040513d601f19601f82011682018060405250810190620059b4919062007963565b15620059c3575060006200276e565b62005a49565b608654604051635491295760e11b81526001600160a01b0385811660048301529091169063a92252ae90602401602060405180830381865afa15801562005a14573d6000803e3d6000fd5b505050506040513d601f19601f8201168201806040525081019062005a3a919062007963565b1562005a49575060006200276e565b50600192915050565b603380546001600160a01b038381166001600160a01b0319831681179093556040519116919082907f8be0079c531659141344cd1fd0a4f28419497f9722a3daafe3b4186f6b6457e090600090a35050565b62005aaf8262002e6d565b62005b6657606580546001600160a01b0384166000818152607760205260408120839055600183018455929092527f8ff97419363ffd7000167f130ef7168fbea05faf9251824ca5043f113cc6a7c70180546001600160a01b0319169091179055610bb8606554111562005b665760405162461bcd60e51b815260206004820152601d60248201527f4d41585f43414e4449444154455320706f6f6c732065786365656465640000006044820152606401620005bc565b62005b7182620054d4565b8015620012b757620012b78262006dec565b60008062005b918362006ee8565b915091508162005ba057505050565b60006069828154811062005bb85762005bb8620078a6565b90600052602060002001549050600060856000866001600160a01b03166001600160a01b03168152602001908152602001600020549050806069848154811062005c065762005c06620078a6565b60009182526020909120015581811062005c3e5762005c26828262007904565b606a5462005c359190620078ee565b606a556200548e565b62005c4a818362007904565b606a5462005c59919062007904565b606a555050505050565b6001600160a01b038116600090815260796020526040902054606854808210158062005cc25750826001600160a01b03166068838154811062005caa5762005caa620078a6565b6000918252602090912001546001600160a01b031614155b1562005d23576001600160a01b03831660008181526079602052604081208390556068805460018101825591527fa2153420d844928b4421650203c77babc8b33d7f2e7b450e2966db0c220977530180546001600160a01b03191690911790555b620058b2836200686f565b6001600160a01b038083166000908152606b60209081526040808320607483528184209486168452939091529020548154808210158062005da15750836001600160a01b031683838154811062005d895762005d89620078a6565b6000918252602090912001546001600160a01b031614155b1562005df1576001600160a01b0380861660009081526074602090815260408083209388168084529382528220849055855460018101875586835291200180546001600160a01b03191690911790555b6200548e858562006c8d565b6000607f54600162005e109190620078ee565b6001600160a01b038085166000908152607b6020908152604080832093871683529290529081205491925081900362005e4c5760001962005e4e565b805b6001600160a01b038086166000818152607060209081526040808320948916808452948252808320888452825280832095909555918152607c825283812092815291905290812054900362005ec6576001600160a01b038085166000908152607c602090815260408083209387168352929052208290555b801562005ed557600062005ed7565b815b6001600160a01b039485166000908152607d602090815260408083209690971682529490945293909220929092555050565b60408051600481526024810182526020810180517bffffffffffffffffffffffffffffffffffffffffffffffffffffffff166001600160e01b0319851617905290516000919082908190309062005f6290859062007c6d565b600060405180830381855afa9150503d806000811462005f9f576040519150601f19603f3d011682016040523d82523d6000602084013e62005fa4565b606091505b50915091508162005ff85760405162461bcd60e51b815260206004820152601260248201527f4765747465722063616c6c206661696c656400000000000000000000000000006044820152606401620005bc565b8080602001905181019062005931919062007a64565b600054610100900460ff166200607b5760405162461bcd60e51b815260206004820152602b60248201527f496e697469616c697a61626c653a20636f6e7472616374206973206e6f74206960448201526a6e697469616c697a696e6760a81b6064820152608401620005bc565b6200278a62006f5f565b6001600160a01b038716620060dd5760405162461bcd60e51b815260206004820152601760248201527f56616c696461746f725365742063616e277420626520300000000000000000006044820152606401620005bc565b6000865111620061565760405162461bcd60e51b815260206004820152602560248201527f4d7573742070726f7669646520696e697469616c206d696e696e67206164647260448201527f65737365730000000000000000000000000000000000000000000000000000006064820152608401620005bc565b815186516200616790600262007c8b565b14620061dc5760405162461bcd60e51b815260206004820152602960248201527f4d7573742070726f7669646520636f7272656374206e756d626572206f66207060448201527f75626c69634b65797300000000000000000000000000000000000000000000006064820152608401620005bc565b8051865114620062555760405162461bcd60e51b815260206004820152602a60248201527f4d7573742070726f7669646520636f7272656374206e756d626572206f66204960448201527f50206164726573736573000000000000000000000000000000000000000000006064820152608401620005bc565b84600003620062a75760405162461bcd60e51b815260206004820152601660248201527f44656c656761746f724d696e5374616b652069732030000000000000000000006044820152606401620005bc565b83600003620062f95760405162461bcd60e51b815260206004820152601660248201527f43616e6469646174654d696e5374616b652069732030000000000000000000006044820152606401620005bc565b838311620063705760405162461bcd60e51b815260206004820152603160248201527f6d6178696d756d207374616b65206d757374206265206772656174657220746860448201527f656e206d696e696d756d207374616b652e0000000000000000000000000000006064820152608401620005bc565b608680546001600160a01b0319166001600160a01b03891617905560005b8651811015620065ef5760006001600160a01b0316878281518110620063b857620063b8620078a6565b60200260200101516001600160a01b031603620064235760405162461bcd60e51b815260206004820152602260248201527f496e697469616c5374616b696e674164647265737365732063616e2774206265604482015261020360f41b6064820152608401620005bc565b6200644c8782815181106200643c576200643c620078a6565b6020026020010151600062005aa4565b62006473878281518110620064655762006465620078a6565b602002602001015162005c63565b826200648182600262007c8b565b81518110620064945762006494620078a6565b602002602001015183826002620064ac919062007c8b565b620064b9906001620078ee565b81518110620064cc57620064cc620078a6565b6020026020010151604051602001620064ef929190918252602082015260400190565b60405160208183030381529060405260876000898481518110620065175762006517620078a6565b60200260200101516001600160a01b03166001600160a01b03168152602001908152602001600020600001908162006550919062007ca5565b50818181518110620065665762006566620078a6565b602002602001015160876000898481518110620065875762006587620078a6565b60200260200101516001600160a01b03166001600160a01b0316815260200190815260200160002060010160006101000a8154816fffffffffffffffffffffffffffffffff021916908360801c02179055508080620065e690620078d2565b9150506200638e565b505050606f92909255606e556088555050565b816001600160a01b0316816001600160a01b0316036200671b576086546040516253517560e01b81526001600160a01b03848116600483015260009216906253517590602401602060405180830381865afa15801562006666573d6000803e3d6000fd5b505050506040513d601f19601f820116820180604052508101906200668c9190620079aa565b60865460405163facd743b60e01b81526001600160a01b03808416600483015292935091169063facd743b90602401602060405180830381865afa158015620066d9573d6000803e3d6000fd5b505050506040513d601f19601f82011682018060405250810190620066ff919062007963565b156200671057620058b28362005c63565b620058b2836200495e565b6200672782826200560f565b620067328262005495565b15620012b757620012b782620054d4565b6040516001600160a01b0383169082156108fc029083906000818181858888f19350505050620012b75780826040516200677d9062007047565b6001600160a01b0390911681526020016040518091039082f0905080158015620057b3573d6000803e3d6000fd5b6001600160a01b03811660009081526076602052604090205460665480821015806200680a5750826001600160a01b031660668381548110620067f257620067f2620078a6565b6000918252602090912001546001600160a01b031614155b15620058b2576001600160a01b03831660008181526076602052604081208390556066805460018101825591527f46501879b8ca8525e8c2fd519e2fbfcfa2ebea26501294aa02cbfcfb12e943540180546001600160a01b0319169091179055505050565b606954606754146200687e5750565b6001600160a01b03811660009081526078602052604090205460675481108015620068db5750816001600160a01b031660678281548110620068c457620068c4620078a6565b6000918252602090912001546001600160a01b0316145b15620012b75760698181548110620068f757620068f7620078a6565b9060005260206000200154606a54106200694b5760698181548110620069215762006921620078a6565b9060005260206000200154606a60008282546200693f919062007904565b90915550620069519050565b6000606a555b606754600090620069659060019062007904565b90506000606782815481106200697f576200697f620078a6565b600091825260209091200154606780546001600160a01b039092169250829185908110620069b157620069b1620078a6565b9060005260206000200160006101000a8154816001600160a01b0302191690836001600160a01b0316021790555060698281548110620069f557620069f5620078a6565b90600052602060002001546069848154811062006a165762006a16620078a6565b60009182526020808320909101929092556001600160a01b03808416825260789092526040808220869055918616815290812055606780548062006a5e5762006a5e62007c3d565b600082815260209020810160001990810180546001600160a01b0319169055019055606980548062006a945762006a9462007c3d565b6001900381819060005260206000200160009055905550505050565b6001600160a01b0381166000908152607960205260409020546068548110801562006b0d5750816001600160a01b03166068828154811062006af65762006af6620078a6565b6000918252602090912001546001600160a01b0316145b15620012b757606880546000919062006b299060019062007904565b8154811062006b3c5762006b3c620078a6565b600091825260209091200154606880546001600160a01b03909216925082918490811062006b6e5762006b6e620078a6565b600091825260208083209190910180546001600160a01b0319166001600160a01b0394851617905583831682526079905260408082208590559185168152908120556068805480620055e857620055e862007c3d565b6001600160a01b038083166000908152606c60209081526040808320607583528184209486168452939091529020548154808210158062006c375750836001600160a01b031683838154811062006c1f5762006c1f620078a6565b6000918252602090912001546001600160a01b031614155b156200548e576001600160a01b0380861660009081526075602090815260408083209388168084529382528220849055855460018101875586835291200180546001600160a01b03191690911790555050505050565b6001600160a01b038083166000908152606c602090815260408083206075835281842094861684529390915290205481548110801562006cfe5750826001600160a01b031682828154811062006ce75762006ce7620078a6565b6000918252602090912001546001600160a01b0316145b15620057b3578154600090839062006d199060019062007904565b8154811062006d2c5762006d2c620078a6565b9060005260206000200160009054906101000a90046001600160a01b031690508083838154811062006d625762006d62620078a6565b600091825260208083209190910180546001600160a01b0319166001600160a01b0394851617905587831682526075815260408083208585168452909152808220859055918616815290812055825483908062006dc35762006dc362007c3d565b600082815260209020810160001990810180546001600160a01b03191690550190555050505050565b6001600160a01b038116600090815260786020526040902054606754808210158062006e4b5750826001600160a01b03166067838154811062006e335762006e33620078a6565b6000918252602090912001546001600160a01b031614155b1562006edd576001600160a01b03831660008181526078602052604081208390556067805460018181019092557f9787eeb91fe3101235e4a76063c7023ecb40f923f97916639c598592fa30d6ae0180546001600160a01b03191690931790925560698054928301815581527f7fb4302e8e91f9110a6554c2c0a24601252c2a42c2220ca988efcfe399914308909101555b620058b28362006ab0565b6001600160a01b0381166000908152607860205260408120546067548110801562006f455750826001600160a01b03166067828154811062006f2e5762006f2e620078a6565b6000918252602090912001546001600160a01b0316145b1562006f545760019150915091565b506000928392509050565b600054610100900460ff1662006fcc5760405162461bcd60e51b815260206004820152602b60248201527f496e697469616c697a61626c653a20636f6e7472616374206973206e6f74206960448201526a6e697469616c697a696e6760a81b6064820152608401620005bc565b6200278a3362005a52565b82805482825590600052602060002090810192821562007015579160200282015b828111156200701557825182559160200191906001019062006ff8565b506200702392915062007054565b5090565b508054600082559060005260206000209081019062001cac919062007054565b60598062007d7383390190565b5b8082111562007023576000815560010162007055565b6001600160a01b038116811462001cac57600080fd5b6000806000606084860312156200709757600080fd5b8335620070a4816200706b565b92506020840135620070b6816200706b565b929592945050506040919091013590565b60008060408385031215620070db57600080fd5b8235620070e8816200706b565b91506020830135620070fa816200706b565b809150509250929050565b6000602082840312156200711857600080fd5b813562002eca816200706b565b6000602082840312156200713857600080fd5b5035919050565b634e487b7160e01b600052604160045260246000fd5b604051601f8201601f1916810167ffffffffffffffff811182821017156200718157620071816200713f565b604052919050565b600082601f8301126200719b57600080fd5b813567ffffffffffffffff811115620071b857620071b86200713f565b620071cd601f8201601f191660200162007155565b818152846020838601011115620071e357600080fd5b816020850160208301376000918101602001919091529392505050565b600067ffffffffffffffff8211156200721d576200721d6200713f565b5060051b60200190565b600082601f8301126200723957600080fd5b81356020620072526200724c8362007200565b62007155565b82815260059290921b840181019181810190868411156200727257600080fd5b8286015b84811015620037be578035835291830191830162007276565b600080600060608486031215620072a557600080fd5b833567ffffffffffffffff80821115620072be57600080fd5b620072cc8783880162007189565b94506020860135915080821115620072e357600080fd5b620072f18783880162007189565b935060408601359150808211156200730857600080fd5b50620073178682870162007227565b9150509250925092565b600080604083850312156200733557600080fd5b823567ffffffffffffffff8111156200734d57600080fd5b6200735b8582860162007227565b9250506020830135620070fa816200706b565b60005b838110156200738b57818101518382015260200162007371565b50506000910152565b60008151808452620073ae8160208601602086016200736e565b601f01601f19169290920160200192915050565b60208152600062002eca602083018462007394565b60008083601f840112620073ea57600080fd5b50813567ffffffffffffffff8111156200740357600080fd5b6020830191508360208285010111156200741c57600080fd5b9250929050565b80356fffffffffffffffffffffffffffffffff19811681146200744557600080fd5b919050565b600080600080606085870312156200746157600080fd5b84356200746e816200706b565b9350602085013567ffffffffffffffff8111156200748b57600080fd5b6200749987828801620073d7565b9094509250620074ae90506040860162007423565b905092959194509250565b6020808252825182820181905260009190848201906040850190845b81811015620074fc5783516001600160a01b031683529284019291840191600101620074d5565b50909695505050505050565b80356001600160f01b0319811681146200744557600080fd5b6000806000606084860312156200753757600080fd5b833562007544816200706b565b9250620075546020850162007423565b9150620075646040850162007508565b90509250925092565b600080600080606085870312156200758457600080fd5b843567ffffffffffffffff8111156200759c57600080fd5b620075aa87828801620073d7565b9095509350620075bf90506020860162007423565b9150620074ae6040860162007508565b80356001600160e01b0319811681146200744557600080fd5b600060208284031215620075fb57600080fd5b62002eca82620075cf565b600081518084526020808501945080840160005b8381101562007638578151875295820195908201906001016200761a565b509495945050505050565b60408152600062007658604083018562007606565b90508260208301529392505050565b6060815260006200767c606083018662007394565b6fffffffffffffffffffffffffffffffff19949094166020830152506001600160f01b031991909116604090910152919050565b600060208284031215620076c357600080fd5b813567ffffffffffffffff811115620076db57600080fd5b62002b718482850162007189565b60008060408385031215620076fd57600080fd5b82356200770a816200706b565b946020939093013593505050565b600080604083850312156200772c57600080fd5b6200770a83620075cf565b60008083601f8401126200774a57600080fd5b50813567ffffffffffffffff8111156200776357600080fd5b6020830191508360208260051b85010111156200741c57600080fd5b600080600080600080608087890312156200779957600080fd5b8635620077a6816200706b565b9550602087013567ffffffffffffffff80821115620077c457600080fd5b90880190610100828b031215620077da57600080fd5b90955060408801359080821115620077f157600080fd5b620077ff8a838b0162007737565b909650945060608901359150808211156200781957600080fd5b506200782889828a0162007737565b979a9699509497509295939492505050565b6000806000606084860312156200785057600080fd5b833567ffffffffffffffff8111156200786857600080fd5b620078768682870162007227565b935050602084013562007889816200706b565b915060408401356200789b816200706b565b809150509250925092565b634e487b7160e01b600052603260045260246000fd5b634e487b7160e01b600052601160045260246000fd5b600060018201620078e757620078e7620078bc565b5060010190565b808201808211156200276e576200276e620078bc565b818103818111156200276e576200276e620078bc565b6060815260006200792f606083018662007394565b828103602084015262007943818662007394565b9050828103604084015262007959818562007606565b9695505050505050565b6000602082840312156200797657600080fd5b8151801515811462002eca57600080fd5b600082620079a557634e487b7160e01b600052601260045260246000fd5b500490565b600060208284031215620079bd57600080fd5b815162002eca816200706b565b60006020808385031215620079de57600080fd5b825167ffffffffffffffff811115620079f657600080fd5b8301601f8101851362007a0857600080fd5b805162007a196200724c8262007200565b81815260059190911b8201830190838101908783111562007a3957600080fd5b928401925b8284101562007a595783518252928401929084019062007a3e565b979650505050505050565b60006020828403121562007a7757600080fd5b5051919050565b600181811c9082168062007a9357607f821691505b60208210810362007ab457634e487b7160e01b600052602260045260246000fd5b50919050565b601f821115620058b257600081815260208120601f850160051c8101602086101562007ae35750805b601f850160051c820191505b8181101562004e805782815560010162007aef565b67ffffffffffffffff83111562007b1f5762007b1f6200713f565b62007b378362007b30835462007a7e565b8362007aba565b6000601f84116001811462007b6e576000851562007b555750838201355b600019600387901b1c1916600186901b1783556200548e565b600083815260209020601f19861690835b8281101562007ba1578685013582556020948501946001909201910162007b7f565b508682101562007bbf5760001960f88860031b161c19848701351681555b505060018560011b0183555050505050565b6000600160ff1b820162007be95762007be9620078bc565b5060000390565b6000808335601e1984360301811262007c0857600080fd5b83018035915067ffffffffffffffff82111562007c2457600080fd5b6020019150600581901b36038213156200741c57600080fd5b634e487b7160e01b600052603160045260246000fd5b60008162007c655762007c65620078bc565b506000190190565b6000825162007c818184602087016200736e565b9190910192915050565b80820281158282048414176200276e576200276e620078bc565b815167ffffffffffffffff81111562007cc25762007cc26200713f565b62007cda8162007cd3845462007a7e565b8462007aba565b602080601f83116001811462007d12576000841562007cf95750858301515b600019600386901b1c1916600185901b17855562004e80565b600085815260208120601f198616915b8281101562007d435788860151825594840194600190910190840162007d22565b508582101562007d625787850151600019600388901b60f8161c191681555b5050505050600190811b0190555056fe608060405260405160593803806059833981016040819052601e91602a565b806001600160a01b0316ff5b600060208284031215603b57600080fd5b81516001600160a01b0381168114605157600080fd5b939250505056fea264697066735822122087ce0f1fe08a1e25ef8294a5bcee6d18748b1ccf0ae80dfa1442fb7b6277971964736f6c63430008110033",
  "linkReferences": {},
  "deployedLinkReferences": {}
}