{
  "_format": "hh-sol-artifact-1",
  "contractName": "StakingHbbftMock",
  "sourceName": "contracts/mockContracts/StakingHbbftMock.sol",
  "abi": [
    {
      "inputs": [
        {
          "internalType": "address",
          "name": "pool",
          "type": "address"
        },
        {
          "internalType": "address",
          "name": "staker",
          "type": "address"
        }
      ],
      "name": "CannotClaimWithdrawOrderYet",
      "type": "error"
    },
    {
      "inputs": [],
      "name": "GetterCallFailed",
      "type": "error"
    },
    {
      "inputs": [],
      "name": "InitialStakingPoolsListEmpty",
      "type": "error"
    },
    {
      "inputs": [],
      "name": "InsufficientBalance",
      "type": "error"
    },
    {
      "inputs": [
        {
          "internalType": "address",
          "name": "pool",
          "type": "address"
        },
        {
          "internalType": "address",
          "name": "delegator",
          "type": "address"
        }
      ],
      "name": "InsufficientStakeAmount",
      "type": "error"
    },
    {
      "inputs": [],
      "name": "InvalidFixedEpochDuration",
      "type": "error"
    },
    {
      "inputs": [
        {
          "internalType": "uint256",
          "name": "candidateStake",
          "type": "uint256"
        },
        {
          "internalType": "uint256",
          "name": "delegatorStake",
          "type": "uint256"
        }
      ],
      "name": "InvalidInitialStakeAmount",
      "type": "error"
    },
    {
      "inputs": [],
      "name": "InvalidInitialization",
      "type": "error"
    },
    {
      "inputs": [],
      "name": "InvalidIpAddressesCount",
      "type": "error"
    },
    {
      "inputs": [],
      "name": "InvalidMaxStakeAmount",
      "type": "error"
    },
    {
      "inputs": [],
      "name": "InvalidMoveStakePoolsAddress",
      "type": "error"
    },
    {
      "inputs": [
        {
          "internalType": "address",
          "name": "pool",
          "type": "address"
        },
        {
          "internalType": "address",
          "name": "delegator",
          "type": "address"
        },
        {
          "internalType": "int256",
          "name": "amount",
          "type": "int256"
        }
      ],
      "name": "InvalidOrderWithdrawAmount",
      "type": "error"
    },
    {
      "inputs": [],
      "name": "InvalidPublicKeysCount",
      "type": "error"
    },
    {
      "inputs": [],
      "name": "InvalidStakingFixedEpochDuration",
      "type": "error"
    },
    {
      "inputs": [],
      "name": "InvalidStakingTransitionTimeframe",
      "type": "error"
    },
    {
      "inputs": [],
      "name": "InvalidTransitionTimeFrame",
      "type": "error"
    },
    {
      "inputs": [
        {
          "internalType": "address",
          "name": "pool",
          "type": "address"
        },
        {
          "internalType": "address",
          "name": "delegator",
          "type": "address"
        },
        {
          "internalType": "uint256",
          "name": "amount",
          "type": "uint256"
        }
      ],
      "name": "InvalidWithdrawAmount",
      "type": "error"
    },
    {
      "inputs": [
        {
          "internalType": "uint256",
          "name": "allowed",
          "type": "uint256"
        },
        {
          "internalType": "uint256",
          "name": "desired",
          "type": "uint256"
        }
      ],
      "name": "MaxAllowedWithdrawExceeded",
      "type": "error"
    },
    {
      "inputs": [],
      "name": "MaxPoolsCountExceeded",
      "type": "error"
    },
    {
      "inputs": [
        {
          "internalType": "uint256",
          "name": "_newVal",
          "type": "uint256"
        }
      ],
      "name": "NewValueOutOfRange",
      "type": "error"
    },
    {
      "inputs": [],
      "name": "NoStakesToRecover",
      "type": "error"
    },
    {
      "inputs": [],
      "name": "NotInitializing",
      "type": "error"
    },
    {
      "inputs": [],
      "name": "NotPayable",
      "type": "error"
    },
    {
      "inputs": [
        {
          "internalType": "address",
          "name": "owner",
          "type": "address"
        }
      ],
      "name": "OwnableInvalidOwner",
      "type": "error"
    },
    {
      "inputs": [
        {
          "internalType": "address",
          "name": "account",
          "type": "address"
        }
      ],
      "name": "OwnableUnauthorizedAccount",
      "type": "error"
    },
    {
      "inputs": [
        {
          "internalType": "address",
          "name": "pool",
          "type": "address"
        }
      ],
      "name": "PoolAbandoned",
      "type": "error"
    },
    {
      "inputs": [
        {
          "internalType": "address",
          "name": "pool",
          "type": "address"
        }
      ],
      "name": "PoolCannotBeRemoved",
      "type": "error"
    },
    {
      "inputs": [
        {
          "internalType": "address",
          "name": "pool",
          "type": "address"
        }
      ],
      "name": "PoolEmpty",
      "type": "error"
    },
    {
      "inputs": [
        {
          "internalType": "address",
          "name": "pool",
          "type": "address"
        }
      ],
      "name": "PoolNotExist",
      "type": "error"
    },
    {
      "inputs": [
        {
          "internalType": "address",
          "name": "pool",
          "type": "address"
        },
        {
          "internalType": "address",
          "name": "delegator",
          "type": "address"
        }
      ],
      "name": "PoolStakeLimitExceeded",
      "type": "error"
    },
    {
      "inputs": [],
      "name": "ReentrancyGuardReentrantCall",
      "type": "error"
    },
    {
      "inputs": [
        {
          "internalType": "address",
          "name": "recipient",
          "type": "address"
        },
        {
          "internalType": "uint256",
          "name": "amount",
          "type": "uint256"
        }
      ],
      "name": "TransferFailed",
      "type": "error"
    },
    {
      "inputs": [],
      "name": "Unauthorized",
      "type": "error"
    },
    {
      "inputs": [],
      "name": "WithdrawNotAllowed",
      "type": "error"
    },
    {
      "inputs": [],
      "name": "ZeroAddress",
      "type": "error"
    },
    {
      "inputs": [],
      "name": "ZeroGasPrice",
      "type": "error"
    },
    {
      "inputs": [],
      "name": "ZeroWidthrawAmount",
      "type": "error"
    },
    {
      "inputs": [],
      "name": "ZeroWidthrawDisallowPeriod",
      "type": "error"
    },
    {
      "anonymous": false,
      "inputs": [
        {
          "indexed": true,
          "internalType": "address",
          "name": "fromPoolStakingAddress",
          "type": "address"
        },
        {
          "indexed": true,
          "internalType": "address",
          "name": "staker",
          "type": "address"
        },
        {
          "indexed": true,
          "internalType": "uint256",
          "name": "stakingEpoch",
          "type": "uint256"
        },
        {
          "indexed": false,
          "internalType": "uint256",
          "name": "amount",
          "type": "uint256"
        }
      ],
      "name": "ClaimedOrderedWithdrawal",
      "type": "event"
    },
    {
      "anonymous": false,
      "inputs": [
        {
          "indexed": true,
          "internalType": "address",
          "name": "caller",
          "type": "address"
        },
        {
          "indexed": true,
          "internalType": "address",
          "name": "stakingAddress",
          "type": "address"
        },
        {
          "indexed": false,
          "internalType": "uint256",
          "name": "gatheredFunds",
          "type": "uint256"
        }
      ],
      "name": "GatherAbandonedStakes",
      "type": "event"
    },
    {
      "anonymous": false,
      "inputs": [
        {
          "indexed": false,
          "internalType": "uint64",
          "name": "version",
          "type": "uint64"
        }
      ],
      "name": "Initialized",
      "type": "event"
    },
    {
      "anonymous": false,
      "inputs": [
        {
          "indexed": false,
          "internalType": "address",
          "name": "fromPoolStakingAddress",
          "type": "address"
        },
        {
          "indexed": true,
          "internalType": "address",
          "name": "toPoolStakingAddress",
          "type": "address"
        },
        {
          "indexed": true,
          "internalType": "address",
          "name": "staker",
          "type": "address"
        },
        {
          "indexed": true,
          "internalType": "uint256",
          "name": "stakingEpoch",
          "type": "uint256"
        },
        {
          "indexed": false,
          "internalType": "uint256",
          "name": "amount",
          "type": "uint256"
        }
      ],
      "name": "MovedStake",
      "type": "event"
    },
    {
      "anonymous": false,
      "inputs": [
        {
          "indexed": true,
          "internalType": "address",
          "name": "fromPoolStakingAddress",
          "type": "address"
        },
        {
          "indexed": true,
          "internalType": "address",
          "name": "staker",
          "type": "address"
        },
        {
          "indexed": true,
          "internalType": "uint256",
          "name": "stakingEpoch",
          "type": "uint256"
        },
        {
          "indexed": false,
          "internalType": "int256",
          "name": "amount",
          "type": "int256"
        }
      ],
      "name": "OrderedWithdrawal",
      "type": "event"
    },
    {
      "anonymous": false,
      "inputs": [
        {
          "indexed": true,
          "internalType": "address",
          "name": "previousOwner",
          "type": "address"
        },
        {
          "indexed": true,
          "internalType": "address",
          "name": "newOwner",
          "type": "address"
        }
      ],
      "name": "OwnershipTransferred",
      "type": "event"
    },
    {
      "anonymous": false,
      "inputs": [
        {
          "indexed": true,
          "internalType": "address",
          "name": "toPoolStakingAddress",
          "type": "address"
        },
        {
          "indexed": true,
          "internalType": "address",
          "name": "staker",
          "type": "address"
        },
        {
          "indexed": true,
          "internalType": "uint256",
          "name": "stakingEpoch",
          "type": "uint256"
        },
        {
          "indexed": false,
          "internalType": "uint256",
          "name": "amount",
          "type": "uint256"
        }
      ],
      "name": "PlacedStake",
      "type": "event"
    },
    {
      "anonymous": false,
      "inputs": [
        {
          "indexed": true,
          "internalType": "address",
          "name": "caller",
          "type": "address"
        },
        {
          "indexed": false,
          "internalType": "uint256",
          "name": "reinsertShare",
          "type": "uint256"
        },
        {
          "indexed": false,
          "internalType": "uint256",
          "name": "governanceShare",
          "type": "uint256"
        }
      ],
      "name": "RecoverAbandonedStakes",
      "type": "event"
    },
    {
      "anonymous": false,
      "inputs": [
        {
          "indexed": false,
          "internalType": "bytes4",
          "name": "funcSelector",
          "type": "bytes4"
        }
      ],
      "name": "RemoveChangeableParameter",
      "type": "event"
    },
    {
      "anonymous": false,
      "inputs": [
        {
          "indexed": true,
          "internalType": "address",
          "name": "poolStakingAddress",
          "type": "address"
        },
        {
          "indexed": true,
          "internalType": "uint256",
          "name": "stakingEpoch",
          "type": "uint256"
        },
        {
          "indexed": false,
          "internalType": "uint256",
          "name": "validatorReward",
          "type": "uint256"
        },
        {
          "indexed": false,
          "internalType": "uint256",
          "name": "delegatorsReward",
          "type": "uint256"
        }
      ],
      "name": "RestakeReward",
      "type": "event"
    },
    {
      "anonymous": false,
      "inputs": [
        {
          "indexed": false,
          "internalType": "address",
          "name": "_address",
          "type": "address"
        }
      ],
      "name": "SetBonusScoreContract",
      "type": "event"
    },
    {
      "anonymous": false,
      "inputs": [
        {
          "indexed": false,
          "internalType": "bytes4",
          "name": "setter",
          "type": "bytes4"
        },
        {
          "indexed": false,
          "internalType": "bytes4",
          "name": "getter",
          "type": "bytes4"
        },
        {
          "indexed": false,
          "internalType": "uint256[]",
          "name": "params",
          "type": "uint256[]"
        }
      ],
      "name": "SetChangeableParameter",
      "type": "event"
    },
    {
      "anonymous": false,
      "inputs": [
        {
          "indexed": false,
          "internalType": "uint256",
          "name": "minStake",
          "type": "uint256"
        }
      ],
      "name": "SetDelegatorMinStake",
      "type": "event"
    },
    {
      "anonymous": false,
      "inputs": [
        {
          "indexed": true,
          "internalType": "address",
          "name": "fromPoolStakingAddress",
          "type": "address"
        },
        {
          "indexed": true,
          "internalType": "address",
          "name": "staker",
          "type": "address"
        },
        {
          "indexed": true,
          "internalType": "uint256",
          "name": "stakingEpoch",
          "type": "uint256"
        },
        {
          "indexed": false,
          "internalType": "uint256",
          "name": "amount",
          "type": "uint256"
        }
      ],
      "name": "WithdrewStake",
      "type": "event"
    },
    {
      "inputs": [],
      "name": "MAX_CANDIDATES",
      "outputs": [
        {
          "internalType": "uint256",
          "name": "",
          "type": "uint256"
        }
      ],
      "stateMutability": "view",
      "type": "function"
    },
    {
      "inputs": [
        {
          "internalType": "address",
          "name": "",
          "type": "address"
        }
      ],
      "name": "abandonedAndRemoved",
      "outputs": [
        {
          "internalType": "bool",
          "name": "",
          "type": "bool"
        }
      ],
      "stateMutability": "view",
      "type": "function"
    },
    {
      "inputs": [],
      "name": "addBalance",
      "outputs": [],
      "stateMutability": "payable",
      "type": "function"
    },
    {
      "inputs": [
        {
          "internalType": "address",
          "name": "_miningAddress",
          "type": "address"
        },
        {
          "internalType": "bytes",
          "name": "_publicKey",
          "type": "bytes"
        },
        {
          "internalType": "bytes16",
          "name": "_ip",
          "type": "bytes16"
        }
      ],
      "name": "addPool",
      "outputs": [],
      "stateMutability": "payable",
      "type": "function"
    },
    {
      "inputs": [
        {
          "internalType": "address",
          "name": "_stakingAddress",
          "type": "address"
        }
      ],
      "name": "addPoolActiveMock",
      "outputs": [],
      "stateMutability": "nonpayable",
      "type": "function"
    },
    {
      "inputs": [
        {
          "internalType": "address",
          "name": "_stakingAddress",
          "type": "address"
        }
      ],
      "name": "addPoolInactiveMock",
      "outputs": [],
      "stateMutability": "nonpayable",
      "type": "function"
    },
    {
      "inputs": [
        {
          "internalType": "bytes4",
          "name": "",
          "type": "bytes4"
        }
      ],
      "name": "allowedParameterRange",
      "outputs": [
        {
          "internalType": "bytes4",
          "name": "getter",
          "type": "bytes4"
        }
      ],
      "stateMutability": "view",
      "type": "function"
    },
    {
      "inputs": [],
      "name": "areStakeAndWithdrawAllowed",
      "outputs": [
        {
          "internalType": "bool",
          "name": "",
          "type": "bool"
        }
      ],
      "stateMutability": "pure",
      "type": "function"
    },
    {
      "inputs": [],
      "name": "bonusScoreContract",
      "outputs": [
        {
          "internalType": "contract IBonusScoreSystem",
          "name": "",
          "type": "address"
        }
      ],
      "stateMutability": "view",
      "type": "function"
    },
    {
      "inputs": [],
      "name": "candidateMinStake",
      "outputs": [
        {
          "internalType": "uint256",
          "name": "",
          "type": "uint256"
        }
      ],
      "stateMutability": "view",
      "type": "function"
    },
    {
      "inputs": [
        {
          "internalType": "address",
          "name": "_poolStakingAddress",
          "type": "address"
        }
      ],
      "name": "claimOrderedWithdraw",
      "outputs": [],
      "stateMutability": "nonpayable",
      "type": "function"
    },
    {
      "inputs": [
        {
          "internalType": "address",
          "name": "pool",
          "type": "address"
        },
        {
          "internalType": "address",
          "name": "delegator",
          "type": "address"
        },
        {
          "internalType": "uint256",
          "name": "epoch",
          "type": "uint256"
        }
      ],
      "name": "clearDelegatorStakeSnapshot",
      "outputs": [],
      "stateMutability": "nonpayable",
      "type": "function"
    },
    {
      "inputs": [],
      "name": "currentKeyGenExtraTimeWindow",
      "outputs": [
        {
          "internalType": "uint256",
          "name": "",
          "type": "uint256"
        }
      ],
      "stateMutability": "view",
      "type": "function"
    },
    {
      "inputs": [],
      "name": "delegatorMinStake",
      "outputs": [
        {
          "internalType": "uint256",
          "name": "",
          "type": "uint256"
        }
      ],
      "stateMutability": "view",
      "type": "function"
    },
    {
      "inputs": [
        {
          "internalType": "string",
          "name": "_selector",
          "type": "string"
        }
      ],
      "name": "getAllowedParamsRange",
      "outputs": [
        {
          "components": [
            {
              "internalType": "bytes4",
              "name": "getter",
              "type": "bytes4"
            },
            {
              "internalType": "uint256[]",
              "name": "range",
              "type": "uint256[]"
            }
          ],
          "internalType": "struct ValueGuards.ParameterRange",
          "name": "",
          "type": "tuple"
        }
      ],
      "stateMutability": "view",
      "type": "function"
    },
    {
      "inputs": [
        {
          "internalType": "bytes4",
          "name": "_selector",
          "type": "bytes4"
        }
      ],
      "name": "getAllowedParamsRangeWithSelector",
      "outputs": [
        {
          "components": [
            {
              "internalType": "bytes4",
              "name": "getter",
              "type": "bytes4"
            },
            {
              "internalType": "uint256[]",
              "name": "range",
              "type": "uint256[]"
            }
          ],
          "internalType": "struct ValueGuards.ParameterRange",
          "name": "",
          "type": "tuple"
        }
      ],
      "stateMutability": "view",
      "type": "function"
    },
    {
      "inputs": [
        {
          "internalType": "address",
          "name": "pool",
          "type": "address"
        },
        {
          "internalType": "address",
          "name": "delegator",
          "type": "address"
        },
        {
          "internalType": "uint256",
          "name": "epoch",
          "type": "uint256"
        }
      ],
      "name": "getDelegatorStakeSnapshot",
      "outputs": [
        {
          "internalType": "uint256",
          "name": "",
          "type": "uint256"
        }
      ],
      "stateMutability": "view",
      "type": "function"
    },
    {
      "inputs": [],
      "name": "getMaxCandidates",
      "outputs": [
        {
          "internalType": "uint256",
          "name": "",
          "type": "uint256"
        }
      ],
      "stateMutability": "pure",
      "type": "function"
    },
    {
      "inputs": [
        {
          "internalType": "address",
          "name": "_poolAddress",
          "type": "address"
        }
      ],
      "name": "getPoolInternetAddress",
      "outputs": [
        {
          "internalType": "bytes16",
          "name": "",
          "type": "bytes16"
        },
        {
          "internalType": "bytes2",
          "name": "",
          "type": "bytes2"
        }
      ],
      "stateMutability": "view",
      "type": "function"
    },
    {
      "inputs": [
        {
          "internalType": "address",
          "name": "_poolAddress",
          "type": "address"
        }
      ],
      "name": "getPoolPublicKey",
      "outputs": [
        {
          "internalType": "bytes",
          "name": "",
          "type": "bytes"
        }
      ],
      "stateMutability": "view",
      "type": "function"
    },
    {
      "inputs": [
        {
          "internalType": "uint256",
          "name": "_epoch",
          "type": "uint256"
        },
        {
          "internalType": "address",
          "name": "_stakingPool",
          "type": "address"
        }
      ],
      "name": "getPoolValidatorStakeAmount",
      "outputs": [
        {
          "internalType": "uint256",
          "name": "",
          "type": "uint256"
        }
      ],
      "stateMutability": "view",
      "type": "function"
    },
    {
      "inputs": [],
      "name": "getPools",
      "outputs": [
        {
          "internalType": "address[]",
          "name": "",
          "type": "address[]"
        }
      ],
      "stateMutability": "view",
      "type": "function"
    },
    {
      "inputs": [],
      "name": "getPoolsInactive",
      "outputs": [
        {
          "internalType": "address[]",
          "name": "",
          "type": "address[]"
        }
      ],
      "stateMutability": "view",
      "type": "function"
    },
    {
      "inputs": [],
      "name": "getPoolsLikelihood",
      "outputs": [
        {
          "internalType": "uint256[]",
          "name": "likelihoods",
          "type": "uint256[]"
        },
        {
          "internalType": "uint256",
          "name": "sum",
          "type": "uint256"
        }
      ],
      "stateMutability": "view",
      "type": "function"
    },
    {
      "inputs": [],
      "name": "getPoolsToBeElected",
      "outputs": [
        {
          "internalType": "address[]",
          "name": "",
          "type": "address[]"
        }
      ],
      "stateMutability": "view",
      "type": "function"
    },
    {
      "inputs": [],
      "name": "getPoolsToBeRemoved",
      "outputs": [
        {
          "internalType": "address[]",
          "name": "",
          "type": "address[]"
        }
      ],
      "stateMutability": "view",
      "type": "function"
    },
    {
      "inputs": [
        {
          "internalType": "address",
          "name": "pool",
          "type": "address"
        },
        {
          "internalType": "address",
          "name": "delegator",
          "type": "address"
        }
      ],
      "name": "getStakeSnapshotLastEpoch",
      "outputs": [
        {
          "internalType": "uint256",
          "name": "",
          "type": "uint256"
        }
      ],
      "stateMutability": "view",
      "type": "function"
    },
    {
      "inputs": [],
      "name": "incrementStakingEpoch",
      "outputs": [],
      "stateMutability": "nonpayable",
      "type": "function"
    },
    {
      "inputs": [
        {
          "internalType": "address",
          "name": "_contractOwner",
          "type": "address"
        },
        {
          "components": [
            {
              "internalType": "address",
              "name": "_validatorSetContract",
              "type": "address"
            },
            {
              "internalType": "address",
              "name": "_bonusScoreContract",
              "type": "address"
            },
            {
              "internalType": "address[]",
              "name": "_initialStakingAddresses",
              "type": "address[]"
            },
            {
              "internalType": "uint256",
              "name": "_delegatorMinStake",
              "type": "uint256"
            },
            {
              "internalType": "uint256",
              "name": "_candidateMinStake",
              "type": "uint256"
            },
            {
              "internalType": "uint256",
              "name": "_maxStake",
              "type": "uint256"
            },
            {
              "internalType": "uint256",
              "name": "_stakingFixedEpochDuration",
              "type": "uint256"
            },
            {
              "internalType": "uint256",
              "name": "_stakingTransitionTimeframeLength",
              "type": "uint256"
            },
            {
              "internalType": "uint256",
              "name": "_stakingWithdrawDisallowPeriod",
              "type": "uint256"
            }
          ],
          "internalType": "struct IStakingHbbft.StakingParams",
          "name": "stakingParams",
          "type": "tuple"
        },
        {
          "internalType": "bytes32[]",
          "name": "_publicKeys",
          "type": "bytes32[]"
        },
        {
          "internalType": "bytes16[]",
          "name": "_internetAddresses",
          "type": "bytes16[]"
        }
      ],
      "name": "initialize",
      "outputs": [],
      "stateMutability": "nonpayable",
      "type": "function"
    },
    {
      "inputs": [
        {
          "internalType": "address",
          "name": "_stakingAddress",
          "type": "address"
        }
      ],
      "name": "isPoolActive",
      "outputs": [
        {
          "internalType": "bool",
          "name": "",
          "type": "bool"
        }
      ],
      "stateMutability": "view",
      "type": "function"
    },
    {
      "inputs": [
        {
          "internalType": "address",
          "name": "_stakingAddress",
          "type": "address"
        }
      ],
      "name": "isPoolValid",
      "outputs": [
        {
          "internalType": "bool",
          "name": "",
          "type": "bool"
        }
      ],
      "stateMutability": "view",
      "type": "function"
    },
    {
      "inputs": [
        {
          "internalType": "bytes4",
          "name": "funcSelector",
          "type": "bytes4"
        },
        {
          "internalType": "uint256",
          "name": "newVal",
          "type": "uint256"
        }
      ],
      "name": "isWithinAllowedRange",
      "outputs": [
        {
          "internalType": "bool",
          "name": "",
          "type": "bool"
        }
      ],
      "stateMutability": "view",
      "type": "function"
    },
    {
      "inputs": [],
      "name": "maxStakeAmount",
      "outputs": [
        {
          "internalType": "uint256",
          "name": "",
          "type": "uint256"
        }
      ],
      "stateMutability": "view",
      "type": "function"
    },
    {
      "inputs": [
        {
          "internalType": "address",
          "name": "_poolStakingAddress",
          "type": "address"
        },
        {
          "internalType": "address",
          "name": "_staker",
          "type": "address"
        }
      ],
      "name": "maxWithdrawAllowed",
      "outputs": [
        {
          "internalType": "uint256",
          "name": "",
          "type": "uint256"
        }
      ],
      "stateMutability": "view",
      "type": "function"
    },
    {
      "inputs": [
        {
          "internalType": "address",
          "name": "_poolStakingAddress",
          "type": "address"
        },
        {
          "internalType": "address",
          "name": "_staker",
          "type": "address"
        }
      ],
      "name": "maxWithdrawOrderAllowed",
      "outputs": [
        {
          "internalType": "uint256",
          "name": "",
          "type": "uint256"
        }
      ],
      "stateMutability": "view",
      "type": "function"
    },
    {
      "inputs": [
        {
          "internalType": "address",
          "name": "_fromPoolStakingAddress",
          "type": "address"
        },
        {
          "internalType": "address",
          "name": "_toPoolStakingAddress",
          "type": "address"
        },
        {
          "internalType": "uint256",
          "name": "_amount",
          "type": "uint256"
        }
      ],
      "name": "moveStake",
      "outputs": [],
      "stateMutability": "nonpayable",
      "type": "function"
    },
    {
      "inputs": [
        {
          "internalType": "address",
          "name": "_stakingAddress",
          "type": "address"
        }
      ],
      "name": "notifyAvailability",
      "outputs": [],
      "stateMutability": "nonpayable",
      "type": "function"
    },
    {
      "inputs": [],
      "name": "notifyKeyGenFailed",
      "outputs": [],
      "stateMutability": "nonpayable",
      "type": "function"
    },
    {
      "inputs": [
        {
          "internalType": "uint256",
          "name": "detectedOfflineTime",
          "type": "uint256"
        }
      ],
      "name": "notifyNetworkOfftimeDetected",
      "outputs": [],
      "stateMutability": "nonpayable",
      "type": "function"
    },
    {
      "inputs": [
        {
          "internalType": "address",
          "name": "_poolStakingAddress",
          "type": "address"
        },
        {
          "internalType": "int256",
          "name": "_amount",
          "type": "int256"
        }
      ],
      "name": "orderWithdraw",
      "outputs": [],
      "stateMutability": "nonpayable",
      "type": "function"
    },
    {
      "inputs": [
        {
          "internalType": "address",
          "name": "",
          "type": "address"
        },
        {
          "internalType": "address",
          "name": "",
          "type": "address"
        }
      ],
      "name": "orderWithdrawEpoch",
      "outputs": [
        {
          "internalType": "uint256",
          "name": "",
          "type": "uint256"
        }
      ],
      "stateMutability": "view",
      "type": "function"
    },
    {
      "inputs": [
        {
          "internalType": "address",
          "name": "",
          "type": "address"
        },
        {
          "internalType": "address",
          "name": "",
          "type": "address"
        }
      ],
      "name": "orderedWithdrawAmount",
      "outputs": [
        {
          "internalType": "uint256",
          "name": "",
          "type": "uint256"
        }
      ],
      "stateMutability": "view",
      "type": "function"
    },
    {
      "inputs": [
        {
          "internalType": "address",
          "name": "",
          "type": "address"
        }
      ],
      "name": "orderedWithdrawAmountTotal",
      "outputs": [
        {
          "internalType": "uint256",
          "name": "",
          "type": "uint256"
        }
      ],
      "stateMutability": "view",
      "type": "function"
    },
    {
      "inputs": [],
      "name": "owner",
      "outputs": [
        {
          "internalType": "address",
          "name": "",
          "type": "address"
        }
      ],
      "stateMutability": "view",
      "type": "function"
    },
    {
      "inputs": [
        {
          "internalType": "address",
          "name": "_poolStakingAddress",
          "type": "address"
        }
      ],
      "name": "poolDelegators",
      "outputs": [
        {
          "internalType": "address[]",
          "name": "",
          "type": "address[]"
        }
      ],
      "stateMutability": "view",
      "type": "function"
    },
    {
      "inputs": [
        {
          "internalType": "address",
          "name": "_poolStakingAddress",
          "type": "address"
        }
      ],
      "name": "poolDelegatorsInactive",
      "outputs": [
        {
          "internalType": "address[]",
          "name": "",
          "type": "address[]"
        }
      ],
      "stateMutability": "view",
      "type": "function"
    },
    {
      "inputs": [
        {
          "internalType": "address",
          "name": "",
          "type": "address"
        }
      ],
      "name": "poolInfo",
      "outputs": [
        {
          "internalType": "bytes",
          "name": "publicKey",
          "type": "bytes"
        },
        {
          "internalType": "bytes16",
          "name": "internetAddress",
          "type": "bytes16"
        },
        {
          "internalType": "bytes2",
          "name": "port",
          "type": "bytes2"
        }
      ],
      "stateMutability": "view",
      "type": "function"
    },
    {
      "inputs": [
        {
          "internalType": "address",
          "name": "",
          "type": "address"
        }
      ],
      "name": "poolToBeElectedIndex",
      "outputs": [
        {
          "internalType": "uint256",
          "name": "",
          "type": "uint256"
        }
      ],
      "stateMutability": "view",
      "type": "function"
    },
    {
      "inputs": [],
      "name": "recoverAbandonedStakes",
      "outputs": [],
      "stateMutability": "nonpayable",
      "type": "function"
    },
    {
      "inputs": [
        {
          "internalType": "bytes4",
          "name": "funcSelector",
          "type": "bytes4"
        }
      ],
      "name": "removeAllowedChangeableParameter",
      "outputs": [],
      "stateMutability": "nonpayable",
      "type": "function"
    },
    {
      "inputs": [],
      "name": "removeMyPool",
      "outputs": [],
      "stateMutability": "nonpayable",
      "type": "function"
    },
    {
      "inputs": [
        {
          "internalType": "address",
          "name": "_stakingAddress",
          "type": "address"
        }
      ],
      "name": "removePool",
      "outputs": [],
      "stateMutability": "nonpayable",
      "type": "function"
    },
    {
      "inputs": [],
      "name": "removePools",
      "outputs": [],
      "stateMutability": "nonpayable",
      "type": "function"
    },
    {
      "inputs": [],
      "name": "renounceOwnership",
      "outputs": [],
      "stateMutability": "nonpayable",
      "type": "function"
    },
    {
      "inputs": [
        {
          "internalType": "address",
          "name": "_poolStakingAddress",
          "type": "address"
        },
        {
          "internalType": "uint256",
          "name": "_validatorMinRewardPercent",
          "type": "uint256"
        }
      ],
      "name": "restake",
      "outputs": [],
      "stateMutability": "payable",
      "type": "function"
    },
    {
      "inputs": [
        {
          "internalType": "bytes4",
          "name": "setter",
          "type": "bytes4"
        },
        {
          "internalType": "bytes4",
          "name": "getter",
          "type": "bytes4"
        },
        {
          "internalType": "uint256[]",
          "name": "params",
          "type": "uint256[]"
        }
      ],
      "name": "setAllowedChangeableParameter",
      "outputs": [],
      "stateMutability": "nonpayable",
      "type": "function"
    },
    {
      "inputs": [
        {
          "internalType": "address",
          "name": "_bonusScoreContract",
          "type": "address"
        }
      ],
      "name": "setBonusScoreContract",
      "outputs": [],
      "stateMutability": "nonpayable",
      "type": "function"
    },
    {
      "inputs": [
        {
          "internalType": "uint256",
          "name": "_minStake",
          "type": "uint256"
        }
      ],
      "name": "setDelegatorMinStake",
      "outputs": [],
      "stateMutability": "nonpayable",
      "type": "function"
    },
    {
      "inputs": [
        {
          "internalType": "bytes",
          "name": "_publicKey",
          "type": "bytes"
        },
        {
          "internalType": "bytes16",
          "name": "_ip",
          "type": "bytes16"
        },
        {
          "internalType": "bytes2",
          "name": "_port",
          "type": "bytes2"
        }
      ],
      "name": "setPoolInfo",
      "outputs": [],
      "stateMutability": "nonpayable",
      "type": "function"
    },
    {
      "inputs": [
        {
          "internalType": "address",
          "name": "_poolStakingAddress",
          "type": "address"
        },
        {
          "internalType": "uint256",
          "name": "_amount",
          "type": "uint256"
        }
      ],
      "name": "setStakeAmountTotal",
      "outputs": [],
      "stateMutability": "nonpayable",
      "type": "function"
    },
    {
      "inputs": [
        {
          "internalType": "uint256",
          "name": "_stakingEpoch",
          "type": "uint256"
        }
      ],
      "name": "setStakingEpoch",
      "outputs": [],
      "stateMutability": "nonpayable",
      "type": "function"
    },
    {
      "inputs": [
        {
          "internalType": "uint256",
          "name": "_timestamp",
          "type": "uint256"
        }
      ],
      "name": "setStakingEpochStartTime",
      "outputs": [],
      "stateMutability": "nonpayable",
      "type": "function"
    },
    {
      "inputs": [
        {
          "internalType": "uint256",
          "name": "_value",
          "type": "uint256"
        }
      ],
      "name": "setStakingFixedEpochDuration",
      "outputs": [],
      "stateMutability": "nonpayable",
      "type": "function"
    },
    {
      "inputs": [
        {
          "internalType": "uint256",
          "name": "_value",
          "type": "uint256"
        }
      ],
      "name": "setStakingTransitionTimeframeLength",
      "outputs": [],
      "stateMutability": "nonpayable",
      "type": "function"
    },
    {
      "inputs": [
        {
          "internalType": "address",
          "name": "_validatorAddress",
          "type": "address"
        },
        {
          "internalType": "bytes16",
          "name": "_ip",
          "type": "bytes16"
        },
        {
          "internalType": "bytes2",
          "name": "_port",
          "type": "bytes2"
        }
      ],
      "name": "setValidatorInternetAddress",
      "outputs": [],
      "stateMutability": "nonpayable",
      "type": "function"
    },
    {
      "inputs": [
        {
          "internalType": "contract IValidatorSetHbbft",
          "name": "_validatorSetAddress",
          "type": "address"
        }
      ],
      "name": "setValidatorMockSetAddress",
      "outputs": [],
      "stateMutability": "nonpayable",
      "type": "function"
    },
    {
      "inputs": [
        {
          "internalType": "contract IValidatorSetHbbft",
          "name": "_validatorSetAddress",
          "type": "address"
        }
      ],
      "name": "setValidatorSetAddress",
      "outputs": [],
      "stateMutability": "nonpayable",
      "type": "function"
    },
    {
      "inputs": [
        {
          "internalType": "uint256",
          "name": "_epoch",
          "type": "uint256"
        },
        {
          "internalType": "address",
          "name": "_stakingPool",
          "type": "address"
        }
      ],
      "name": "snapshotPoolStakeAmounts",
      "outputs": [],
      "stateMutability": "nonpayable",
      "type": "function"
    },
    {
      "inputs": [
        {
          "internalType": "uint256",
          "name": "",
          "type": "uint256"
        },
        {
          "internalType": "address",
          "name": "",
          "type": "address"
        }
      ],
      "name": "snapshotPoolTotalStakeAmount",
      "outputs": [
        {
          "internalType": "uint256",
          "name": "",
          "type": "uint256"
        }
      ],
      "stateMutability": "view",
      "type": "function"
    },
    {
      "inputs": [
        {
          "internalType": "uint256",
          "name": "",
          "type": "uint256"
        },
        {
          "internalType": "address",
          "name": "",
          "type": "address"
        }
      ],
      "name": "snapshotPoolValidatorStakeAmount",
      "outputs": [
        {
          "internalType": "uint256",
          "name": "",
          "type": "uint256"
        }
      ],
      "stateMutability": "view",
      "type": "function"
    },
    {
      "inputs": [
        {
          "internalType": "address",
          "name": "_toPoolStakingAddress",
          "type": "address"
        }
      ],
      "name": "stake",
      "outputs": [],
      "stateMutability": "payable",
      "type": "function"
    },
    {
      "inputs": [
        {
          "internalType": "address",
          "name": "",
          "type": "address"
        },
        {
          "internalType": "address",
          "name": "",
          "type": "address"
        }
      ],
      "name": "stakeAmount",
      "outputs": [
        {
          "internalType": "uint256",
          "name": "",
          "type": "uint256"
        }
      ],
      "stateMutability": "view",
      "type": "function"
    },
    {
      "inputs": [
        {
          "internalType": "address",
          "name": "_poolStakingAddress",
          "type": "address"
        },
        {
          "internalType": "address",
          "name": "_staker",
          "type": "address"
        }
      ],
      "name": "stakeAmountByCurrentEpoch",
      "outputs": [
        {
          "internalType": "uint256",
          "name": "",
          "type": "uint256"
        }
      ],
      "stateMutability": "view",
      "type": "function"
    },
    {
      "inputs": [
        {
          "internalType": "address",
          "name": "",
          "type": "address"
        }
      ],
      "name": "stakeAmountTotal",
      "outputs": [
        {
          "internalType": "uint256",
          "name": "",
          "type": "uint256"
        }
      ],
      "stateMutability": "view",
      "type": "function"
    },
    {
      "inputs": [],
      "name": "stakingEpoch",
      "outputs": [
        {
          "internalType": "uint256",
          "name": "",
          "type": "uint256"
        }
      ],
      "stateMutability": "view",
      "type": "function"
    },
    {
      "inputs": [],
      "name": "stakingEpochStartBlock",
      "outputs": [
        {
          "internalType": "uint256",
          "name": "",
          "type": "uint256"
        }
      ],
      "stateMutability": "view",
      "type": "function"
    },
    {
      "inputs": [],
      "name": "stakingEpochStartTime",
      "outputs": [
        {
          "internalType": "uint256",
          "name": "",
          "type": "uint256"
        }
      ],
      "stateMutability": "view",
      "type": "function"
    },
    {
      "inputs": [],
      "name": "stakingFixedEpochDuration",
      "outputs": [
        {
          "internalType": "uint256",
          "name": "",
          "type": "uint256"
        }
      ],
      "stateMutability": "view",
      "type": "function"
    },
    {
      "inputs": [],
      "name": "stakingFixedEpochEndTime",
      "outputs": [
        {
          "internalType": "uint256",
          "name": "",
          "type": "uint256"
        }
      ],
      "stateMutability": "view",
      "type": "function"
    },
    {
      "inputs": [],
      "name": "stakingTransitionTimeframeLength",
      "outputs": [
        {
          "internalType": "uint256",
          "name": "",
          "type": "uint256"
        }
      ],
      "stateMutability": "view",
      "type": "function"
    },
    {
      "inputs": [],
      "name": "stakingWithdrawDisallowPeriod",
      "outputs": [
        {
          "internalType": "uint256",
          "name": "",
          "type": "uint256"
        }
      ],
      "stateMutability": "view",
      "type": "function"
    },
    {
      "inputs": [],
      "name": "startTimeOfNextPhaseTransition",
      "outputs": [
        {
          "internalType": "uint256",
          "name": "",
          "type": "uint256"
        }
      ],
      "stateMutability": "view",
      "type": "function"
    },
    {
      "inputs": [],
      "name": "totalStakedAmount",
      "outputs": [
        {
          "internalType": "uint256",
          "name": "",
          "type": "uint256"
        }
      ],
      "stateMutability": "view",
      "type": "function"
    },
    {
      "inputs": [
        {
          "internalType": "address",
          "name": "newOwner",
          "type": "address"
        }
      ],
      "name": "transferOwnership",
      "outputs": [],
      "stateMutability": "nonpayable",
      "type": "function"
    },
    {
      "inputs": [
        {
          "internalType": "address",
          "name": "mining",
          "type": "address"
        },
        {
          "internalType": "uint256",
          "name": "validatorScore",
          "type": "uint256"
        }
      ],
      "name": "updatePoolLikelihood",
      "outputs": [],
      "stateMutability": "nonpayable",
      "type": "function"
    },
    {
      "inputs": [],
      "name": "validatorSetContract",
      "outputs": [
        {
          "internalType": "contract IValidatorSetHbbft",
          "name": "",
          "type": "address"
        }
      ],
      "stateMutability": "view",
      "type": "function"
    },
    {
      "inputs": [
        {
          "internalType": "address",
          "name": "_fromPoolStakingAddress",
          "type": "address"
        },
        {
          "internalType": "uint256",
          "name": "_amount",
          "type": "uint256"
        }
      ],
      "name": "withdraw",
      "outputs": [],
      "stateMutability": "nonpayable",
      "type": "function"
    },
    {
      "stateMutability": "payable",
      "type": "receive"
    }
  ],
  "bytecode": "0x608060405234801561001057600080fd5b5061002b67bf201e071b87e99060c01b61007260201b60201c565b610045673dba7822037c411660c01b61007260201b60201c565b61005f67402639eacef535af60c01b61007260201b60201c565b61006d61007560201b60201c565b6101ba565b50565b600061008561017960201b60201c565b90508060000160089054906101000a900460ff16156100d0576040517ff92ee8a900000000000000000000000000000000000000000000000000000000815260040160405180910390fd5b67ffffffffffffffff80168160000160009054906101000a900467ffffffffffffffff1667ffffffffffffffff16146101765767ffffffffffffffff8160000160006101000a81548167ffffffffffffffff021916908367ffffffffffffffff1602179055507fc7f505b2f371ae2175ee4913f4499e1f2633a7b5936321eed1cdaeb6115181d267ffffffffffffffff60405161016d91906101a1565b60405180910390a15b50565b60007ff0c57e16840df040f15088dc2f81fe391c3923bec73e23a9662efc9c229c6a00905090565b600060208201905060018060401b038316825292915050565b61f312806101c96000396000f3fe6080604052600436106105c45760003560e01c8063862be287116102f6578063c6af311a1161018f578063eb3efa16116100e1578063f2fde38b11610095578063f6c578611161006f578063f6c57861146114ea578063fa4aaf4714611527578063ffada862146115645761060f565b8063f2fde38b1461146d578063f3fef3a314611496578063f4942501146114bf5761060f565b8063ee435f55116100c6578063ee435f5514611400578063f078609614611417578063f2de6699146114425761060f565b8063eb3efa16146113c0578063edd7db75146113e95761060f565b8063dadee88a11610143578063e2a43cd91161011d578063e2a43cd914611331578063e5b1d5931461135a578063e9ab0300146113835761060f565b8063dadee88a1461129e578063df6f55f5146112db578063dfc8bf4e146113065761060f565b8063d0ac76f611610174578063d0ac76f61461121f578063d290c21d14611248578063da7a9b6a146112735761060f565b8063c6af311a146111cd578063cfef1441146111f65761060f565b8063a697ecff11610248578063b163cc38116101fc578063ba08d237116101d6578063ba08d23714611128578063bf348f8614611165578063c6912cc0146111a25761060f565b8063b163cc38146110b8578063b61ed63a146110c2578063b710c15d146110eb5761060f565b8063adddc0cf1161022d578063adddc0cf1461104d578063ae1aaf8014611064578063b0bd5e9e1461108f5761060f565b8063a697ecff14610fd3578063a711e6a1146110105761060f565b80639a7b5f11116102aa5780639ea8082b116102845780639ea8082b14610f2e578063a420596714610f6b578063a5d54f6514610fa85761060f565b80639a7b5f1114610e9b5780639b03d74414610eda5780639e72c63514610f055761060f565b806392283634116102db5780639228363414610df5578063950a651314610e32578063957950a714610e6f5761060f565b8063862be28714610da15780638da5cb5b14610dca5761060f565b80634e9b426d116104685780636bda1577116103ba578063750dd2a11161036e5780637b15b94c116103485780637b15b94c14610d265780637d8149db14610d4f5780638247a23914610d785761060f565b8063750dd2a114610c95578063794c0c6814610cd25780637b0a0f9b14610cfd5761060f565b8063715018a61161039f578063715018a614610c04578063728345db14610c1b57806373c2180314610c585761060f565b80636bda157714610b9c5780637069e74614610bd95761060f565b80635b4eafe01161041c5780635fef7643116103f65780635fef764314610b1d578063611d760c14610b48578063673a2a1f14610b715761060f565b80635b4eafe014610a8c5780635ca2b65014610ac95780635d80ca3214610af25761060f565b80635267e1d61161044d5780635267e1d614610a08578063567e98f914610a4557806356e4d6c214610a705761060f565b80634e9b426d146109a05780634f9a8d8f146109dd5761060f565b806322704bdd116105215780633219d600116104d55780633b7d0946116104af5780633b7d0946146109325780633f3afe011461095b5780634346845f146109775761060f565b80633219d600146108b357806337154263146108f0578063379b046a146109075761060f565b8063251441a911610506578063251441a914610845578063264762041461086e5780632bafde8d1461088a5761060f565b806322704bdd146107f157806322e3d9861461081a5761060f565b8063129bd128116105785780631555371c1161055d5780631555371c14610773578063159e0a951461078a5780631fb31e43146107b35761060f565b8063129bd128146106f95780631345b8a5146107365761060f565b80630ac6e291116105a95780630ac6e291146106685780630b770cdf1461069157806311f86c99146106bc5761060f565b8063028b8bdb1461061457806303a810651461063f5761060f565b3661060f576105dd672a533c32bcfbd3f660c01b61158d565b6040517f1574f9f300000000000000000000000000000000000000000000000000000000815260040160405180910390fd5b600080fd5b34801561062057600080fd5b50610629611590565b604051610636919061e3e8565b60405180910390f35b34801561064b57600080fd5b506106666004803603810190610661919061e41e565b611596565b005b34801561067457600080fd5b5061068f600480360381019061068a919061e4af565b61162e565b005b34801561069d57600080fd5b506106a6612242565b6040516106b3919061e569565b60405180910390f35b3480156106c857600080fd5b506106e360048036038101906106de919061e41e565b612268565b6040516106f0919061e3e8565b60405180910390f35b34801561070557600080fd5b50610720600480360381019061071b919061e590565b612301565b60405161072d919061e3e8565b60405180910390f35b34801561074257600080fd5b5061075d6004803603810190610758919061e5cb565b612388565b60405161076a919061e3e8565b60405180910390f35b34801561077f57600080fd5b506107886123ad565b005b34801561079657600080fd5b506107b160048036038101906107ac919061e5fb565b612592565b005b3480156107bf57600080fd5b506107da60048036038101906107d5919061e5fb565b612757565b6040516107e892919061e622565b60405180910390f35b3480156107fd57600080fd5b506108186004803603810190610813919061e654565b61283f565b005b34801561082657600080fd5b5061082f612986565b60405161083c919061e3e8565b60405180910390f35b34801561085157600080fd5b5061086c6004803603810190610867919061e41e565b612a6c565b005b6108886004803603810190610883919061e5fb565b612d62565b005b34801561089657600080fd5b506108b160048036038101906108ac919061e654565b612f86565b005b3480156108bf57600080fd5b506108da60048036038101906108d5919061e5fb565b61316c565b6040516108e7919061e670565b60405180910390f35b3480156108fc57600080fd5b5061090561318b565b005b34801561091357600080fd5b5061091c613cdb565b604051610929919061e3e8565b60405180910390f35b34801561093e57600080fd5b506109596004803603810190610954919061e5fb565b613ce1565b005b6109756004803603810190610970919061e683565b613e34565b005b34801561098357600080fd5b5061099e6004803603810190610999919061e6d3565b614769565b005b3480156109ac57600080fd5b506109c760048036038101906109c2919061e5fb565b614935565b6040516109d4919061e793565b60405180910390f35b3480156109e957600080fd5b506109f2614a45565b6040516109ff919061e3e8565b60405180910390f35b348015610a1457600080fd5b50610a2f6004803603810190610a2a919061e5fb565b614a4b565b604051610a3c919061e3e8565b60405180910390f35b348015610a5157600080fd5b50610a5a614a63565b604051610a67919061e3e8565b60405180910390f35b610a8a6004803603810190610a85919061e822565b614a69565b005b348015610a9857600080fd5b50610ab36004803603810190610aae919061e5cb565b614e2b565b604051610ac0919061e3e8565b60405180910390f35b348015610ad557600080fd5b50610af06004803603810190610aeb919061e654565b614ec2565b005b348015610afe57600080fd5b50610b07614ecc565b604051610b14919061e3e8565b60405180910390f35b348015610b2957600080fd5b50610b32614ed2565b604051610b3f919061e3e8565b60405180910390f35b348015610b5457600080fd5b50610b6f6004803603810190610b6a919061e5fb565b614ed8565b005b348015610b7d57600080fd5b50610b86614ee6565b604051610b93919061e88e565b60405180910390f35b348015610ba857600080fd5b50610bc36004803603810190610bbe919061e590565b614f33565b604051610bd0919061e3e8565b60405180910390f35b348015610be557600080fd5b50610bee6153d7565b604051610bfb919061e3e8565b60405180910390f35b348015610c1057600080fd5b50610c196153dd565b005b348015610c2757600080fd5b50610c426004803603810190610c3d919061e5cb565b6153f1565b604051610c4f919061e3e8565b60405180910390f35b348015610c6457600080fd5b50610c7f6004803603810190610c7a919061e5fb565b615416565b604051610c8c919061e88e565b60405180910390f35b348015610ca157600080fd5b50610cbc6004803603810190610cb7919061e590565b6154a2565b604051610cc9919061e3e8565b60405180910390f35b348015610cde57600080fd5b50610ce7615578565b604051610cf4919061e3e8565b60405180910390f35b348015610d0957600080fd5b50610d246004803603810190610d1f919061e911565b61557e565b005b348015610d3257600080fd5b50610d4d6004803603810190610d48919061e5fb565b615790565b005b348015610d5b57600080fd5b50610d766004803603810190610d71919061e958565b6159f1565b005b348015610d8457600080fd5b50610d9f6004803603810190610d9a919061e654565b615b25565b005b348015610dad57600080fd5b50610dc86004803603810190610dc3919061e97b565b615c7d565b005b348015610dd657600080fd5b50610ddf615deb565b604051610dec919061e9e3565b60405180910390f35b348015610e0157600080fd5b50610e1c6004803603810190610e17919061e958565b615e23565b604051610e29919061ea0a565b60405180910390f35b348015610e3e57600080fd5b50610e596004803603810190610e54919061e590565b615e4e565b604051610e66919061e3e8565b60405180910390f35b348015610e7b57600080fd5b50610e8461619e565b604051610e9292919061ea67565b60405180910390f35b348015610ea757600080fd5b50610ec26004803603810190610ebd919061e5fb565b61623d565b604051610ed19392919061ea89565b60405180910390f35b348015610ee657600080fd5b50610eef616309565b604051610efc919061e3e8565b60405180910390f35b348015610f1157600080fd5b50610f2c6004803603810190610f27919061e654565b61630f565b005b348015610f3a57600080fd5b50610f556004803603810190610f50919061e5fb565b616466565b604051610f62919061e88e565b60405180910390f35b348015610f7757600080fd5b50610f926004803603810190610f8d919061e590565b6164f2565b604051610f9f919061e3e8565b60405180910390f35b348015610fb457600080fd5b50610fbd616517565b604051610fca919061e88e565b60405180910390f35b348015610fdf57600080fd5b50610ffa6004803603810190610ff5919061e590565b6165e1565b604051611007919061e3e8565b60405180910390f35b34801561101c57600080fd5b506110376004803603810190611032919061e5fb565b616606565b604051611044919061e670565b60405180910390f35b34801561105957600080fd5b5061106261665f565b005b34801561107057600080fd5b506110796167af565b604051611086919061e3e8565b60405180910390f35b34801561109b57600080fd5b506110b660048036038101906110b1919061e654565b6167b5565b005b6110c06168b6565b005b3480156110ce57600080fd5b506110e960048036038101906110e4919061eacc565b6168b8565b005b3480156110f757600080fd5b50611112600480360381019061110d919061eb12565b6178a8565b60405161111f919061ebc7565b60405180910390f35b34801561113457600080fd5b5061114f600480360381019061114a919061ebfe565b617a02565b60405161115c919061e670565b60405180910390f35b34801561117157600080fd5b5061118c6004803603810190611187919061e958565b617ef2565b604051611199919061ebc7565b60405180910390f35b3480156111ae57600080fd5b506111b7618045565b6040516111c4919061e3e8565b60405180910390f35b3480156111d957600080fd5b506111f460048036038101906111ef919061e683565b6180a5565b005b34801561120257600080fd5b5061121d6004803603810190611218919061e5fb565b6182f3565b005b34801561122b57600080fd5b506112466004803603810190611241919061e5cb565b618a76565b005b34801561125457600080fd5b5061125d618f4e565b60405161126a919061e88e565b60405180910390f35b34801561127f57600080fd5b50611288618f9b565b604051611295919061e3e8565b60405180910390f35b3480156112aa57600080fd5b506112c560048036038101906112c0919061e5fb565b618fa1565b6040516112d2919061e3e8565b60405180910390f35b3480156112e757600080fd5b506112f0618fb9565b6040516112fd919061e88e565b60405180910390f35b34801561131257600080fd5b5061131b619006565b604051611328919061ec2a565b60405180910390f35b34801561133d57600080fd5b506113586004803603810190611353919061e683565b61902c565b005b34801561136657600080fd5b50611381600480360381019061137c919061ec51565b619074565b005b34801561138f57600080fd5b506113aa60048036038101906113a5919061e590565b6190b8565b6040516113b7919061e3e8565b60405180910390f35b3480156113cc57600080fd5b506113e760048036038101906113e2919061ec51565b6190dd565b005b3480156113f557600080fd5b506113fe619121565b005b34801561140c57600080fd5b5061141561949c565b005b34801561142357600080fd5b5061142c619605565b604051611439919061e3e8565b60405180910390f35b34801561144e57600080fd5b5061145761960b565b604051611464919061e3e8565b60405180910390f35b34801561147957600080fd5b50611494600480360381019061148f919061e5fb565b61961a565b005b3480156114a257600080fd5b506114bd60048036038101906114b8919061e683565b6196a0565b005b3480156114cb57600080fd5b506114d4619901565b6040516114e1919061e670565b60405180910390f35b3480156114f657600080fd5b50611511600480360381019061150c919061e5fb565b619946565b60405161151e919061e670565b60405180910390f35b34801561153357600080fd5b5061154e6004803603810190611549919061e5fb565b6199f2565b60405161155b919061e3e8565b60405180910390f35b34801561157057600080fd5b5061158b6004803603810190611586919061e5fb565b619a0a565b005b50565b60155481565b6000602360008573ffffffffffffffffffffffffffffffffffffffff1673ffffffffffffffffffffffffffffffffffffffff16815260200190815260200160002060008473ffffffffffffffffffffffffffffffffffffffff1673ffffffffffffffffffffffffffffffffffffffff168152602001908152602001600020600083815260200190815260200160002081905550505050565b61164267e8e2a910af12b22960c01b61158d565b600061164c619a16565b905060008160000160089054906101000a900460ff1615905060008260000160009054906101000a900467ffffffffffffffff1690506000808267ffffffffffffffff1614801561169a5750825b9050600060018367ffffffffffffffff161480156116cf575060003073ffffffffffffffffffffffffffffffffffffffff163b145b9050811580156116dd575080155b15611714576040517ff92ee8a900000000000000000000000000000000000000000000000000000000815260040160405180910390fd5b60018560000160006101000a81548167ffffffffffffffff021916908367ffffffffffffffff16021790555083156117645760018560000160086101000a81548160ff0219169083151502179055505b6117786795772f4e70d987d760c01b61158d565b61178c67664d0835d67af6a860c01b61158d565b6117a067580bd6f89c067d9260c01b61158d565b6117b4670698d6982d5f22f860c01b61158d565b600073ffffffffffffffffffffffffffffffffffffffff168b73ffffffffffffffffffffffffffffffffffffffff1603611842576117fc67229f374c985821db60c01b61158d565b61181067f2210719a2247b8960c01b61158d565b6040517fd92e233d00000000000000000000000000000000000000000000000000000000815260040160405180910390fd5b61185667d2b774107c777f1660c01b61158d565b61186a67468e6f8752e9139960c01b61158d565b61187e6703515f95e3e3fcdb60c01b61158d565b6118878a619a3e565b61189b6737a0787744218fae60c01b61158d565b6118af67c27d8c4c0cc22e4360c01b61158d565b8888905060028b80604001906118c5919061ec78565b90506118d1919061ece3565b14611930576118ea676658cac85f95215960c01b61158d565b6118fe67706c3ece4c0e18c760c01b61158d565b6040517fd698870000000000000000000000000000000000000000000000000000000000815260040160405180910390fd5b611944675dc6784cc396ed6a60c01b61158d565b61195867a20965993dfa400660c01b61158d565b61196c67725da3e45857160b60c01b61158d565b868690508a8060400190611980919061ec78565b9050146119e15761199b6753dd788eba3896fd60c01b61158d565b6119af6725c6364a4bcabe3360c01b61158d565b6040517f20041afd00000000000000000000000000000000000000000000000000000000815260040160405180910390fd5b6119f567de73abcd4881989160c01b61158d565b611a09675efeeed6ecec1f1960c01b61158d565b611a1d677ac9c6b51691783e60c01b61158d565b611a268b61a004565b611a3a67231e94698aa7a35360c01b61158d565b611a4d6692715a17c685a560c01b61158d565b611a5561a018565b611a6967bfe3c92451f925b560c01b61158d565b896000016020810190611a7c919061e5fb565b601e60006101000a81548173ffffffffffffffffffffffffffffffffffffffff021916908373ffffffffffffffffffffffffffffffffffffffff160217905550611ad06734a96fa5c3fd9ef060c01b61158d565b896020016020810190611ae3919061e5fb565b602560006101000a81548173ffffffffffffffffffffffffffffffffffffffff021916908373ffffffffffffffffffffffffffffffffffffffff160217905550611b3767560a80e981cb426960c01b61158d565b611b4b676ed0ff6305b779fb60c01b61158d565b3660008b8060400190611b5e919061ec78565b91509150611b76677fd09837e8d7e33e60c01b61158d565b611b8a67278762d9774a743260c01b61158d565b60005b82829050811015611f1257611bac67f2332352486e4cd960c01b61158d565b611bbf665cc562a11f4ced60c01b61158d565b600073ffffffffffffffffffffffffffffffffffffffff16838383818110611bea57611be961ed05565b5b9050602002016020810190611bff919061e5fb565b73ffffffffffffffffffffffffffffffffffffffff1603611c7357611c2d664d5bacfcfcce9e60c01b61158d565b611c4167d12b02c0e4649a4c60c01b61158d565b6040517fd92e233d00000000000000000000000000000000000000000000000000000000815260040160405180910390fd5b611c876763fdaf0563ec325d60c01b61158d565b611c9b67654f64737986b32e60c01b61158d565b611caf6747d62a3e10f8de2560c01b61158d565b611ce1838383818110611cc557611cc461ed05565b5b9050602002016020810190611cda919061e5fb565b600061a02a565b611cf567826a79132dc6b03a60c01b61158d565b611d0967e23383936eee681460c01b61158d565b611d39838383818110611d1f57611d1e61ed05565b5b9050602002016020810190611d34919061e5fb565b61a25a565b611d4d67f4ea0d546b7dd68160c01b61158d565b8b8b600283611d5c919061ece3565b818110611d6c57611d6b61ed05565b5b905060200201358c8c6001600285611d84919061ece3565b611d8e919061ed1b565b818110611d9e57611d9d61ed05565b5b90506020020135604051602001611db692919061ed39565b604051602081830303815290604052601f6000858585818110611ddc57611ddb61ed05565b5b9050602002016020810190611df1919061e5fb565b73ffffffffffffffffffffffffffffffffffffffff1673ffffffffffffffffffffffffffffffffffffffff1681526020019081526020016000206000019081611e3a919061ee0f565b50611e4f67a5413211d84de29960c01b61158d565b898982818110611e6257611e6161ed05565b5b9050602002016020810190611e77919061eed9565b601f6000858585818110611e8e57611e8d61ed05565b5b9050602002016020810190611ea3919061e5fb565b73ffffffffffffffffffffffffffffffffffffffff1673ffffffffffffffffffffffffffffffffffffffff16815260200190815260200160002060010160006101000a8154816fffffffffffffffffffffffffffffffff021916908360801c0217905550806001019050611b8d565b50611f276711e9de931bc75b7f60c01b61158d565b611f3b67f233ffbb266ad0d160c01b61158d565b6000600567ffffffffffffffff811115611f5857611f5761eafc565b5b604051908082528060200260200182016040528015611f865781602001602082028036833780820191505090505b509050611f9d67620ee52ab467124460c01b61158d565b6802b5e3af16b188000081600081518110611fbb57611fba61ed05565b5b602002602001018181525050611fdb67b9e3796ac7edab9f60c01b61158d565b68056bc75e2d6310000081600181518110611ff957611ff861ed05565b5b60200260200101818152505061201967850b27057e53801060c01b61158d565b680821ab0d4414980000816002815181106120375761203661ed05565b5b60200260200101818152505061205767d342906e79ffe46c60c01b61158d565b680ad78ebc5ac6200000816003815181106120755761207461ed05565b5b60200260200101818152505061209567ebb3b75c9ada9a6460c01b61158d565b680d8d726b7177a80000816004815181106120b3576120b261ed05565b5b6020026020010181815250506120d3679f235fedc29d749160c01b61158d565b6120e767e7257d81ae2314b860c01b61158d565b612100632bafde8d60e01b63da7a9b6a60e01b8361a2df565b612114672a4f4f391c9e471c60c01b61158d565b8c60600135600e8190555061213367d359c514149f95eb60c01b61158d565b8c60800135600d8190555061215267dabcf5733afecb1660c01b61158d565b8c60a00135600f81905550612171678ef21677745a5d1a60c01b61158d565b8c60c0013560178190555061219067b298d96fd821e91460c01b61158d565b8c61010001356015819055506121b0677f52ff3b87649a0360c01b61158d565b426019819055506121cb67b3585f6e084829f660c01b61158d565b8c60e0013560188190555050505083156122355760008560000160086101000a81548160ff0219169083151502179055507fc7f505b2f371ae2175ee4913f4499e1f2633a7b5936321eed1cdaeb6115181d2600160405161222c919061eefc565b60405180910390a15b5050505050505050505050565b602560009054906101000a900473ffffffffffffffffffffffffffffffffffffffff1681565b6000602360008573ffffffffffffffffffffffffffffffffffffffff1673ffffffffffffffffffffffffffffffffffffffff16815260200190815260200160002060008473ffffffffffffffffffffffffffffffffffffffff1673ffffffffffffffffffffffffffffffffffffffff16815260200190815260200160002060008381526020019081526020016000205490509392505050565b6000602460008473ffffffffffffffffffffffffffffffffffffffff1673ffffffffffffffffffffffffffffffffffffffff16815260200190815260200160002060008373ffffffffffffffffffffffffffffffffffffffff1673ffffffffffffffffffffffffffffffffffffffff16815260200190815260200160002054905092915050565b6022602052816000526040600020602052806000526040600020600091509150505481565b6123c1675c4685911453752060c01b61158d565b601e60009054906101000a900473ffffffffffffffffffffffffffffffffffffffff1673ffffffffffffffffffffffffffffffffffffffff163373ffffffffffffffffffffffffffffffffffffffff161415801561246d5750602660009054906101000a900473ffffffffffffffffffffffffffffffffffffffff1673ffffffffffffffffffffffffffffffffffffffff163373ffffffffffffffffffffffffffffffffffffffff1614155b156124a4576040517f82b4290000000000000000000000000000000000000000000000000000000000815260040160405180910390fd5b6124b8677e0e57323f40d17660c01b61158d565b6124cc671affbcc94564dd2b60c01b61158d565b6124e06779fa993908bc6ef360c01b61158d565b6124f4676fe222fbc7207ca560c01b61158d565b6000612500600561a467565b90506125166775197f012c09f32b60c01b61158d565b61252a67d6f909b72074b8eb60c01b61158d565b60005b815181101561258e5761254a67b9be0f7de1fba52b60c01b61158d565b61255e673d15898ef77517aa60c01b61158d565b6125818282815181106125745761257361ed05565b5b602002602001015161a488565b808060010191505061252d565b5050565b6125a66758b5dbbda0687b8b60c01b61158d565b6125ae61a610565b6125c2674f789af647dfae5560c01b61158d565b6125d667edbfdfb62a82a1a260c01b61158d565b6125ea6724085356fad0a1b860c01b61158d565b6125fe67df2beee18157b31a60c01b61158d565b600073ffffffffffffffffffffffffffffffffffffffff168173ffffffffffffffffffffffffffffffffffffffff160361268c5761264667716965c1ba4b44e860c01b61158d565b61265a67632cc5bf46d4886b60c01b61158d565b6040517fd92e233d00000000000000000000000000000000000000000000000000000000815260040160405180910390fd5b6126a067cef81283e898d27460c01b61158d565b6126b467dc6517a1ef729f8f60c01b61158d565b80602560006101000a81548173ffffffffffffffffffffffffffffffffffffffff021916908373ffffffffffffffffffffffffffffffffffffffff16021790555061270967e0cb458395359c9860c01b61158d565b61271d67b7af90201bca14f360c01b61158d565b7fd4244d1f8acb4860e17399636c6b7875c75656aafb5cb3d0163d7305eace71728160405161274c919061e9e3565b60405180910390a150565b60008061276e674c3e3d4f564756a560c01b61158d565b612782674821c2539c07422960c01b61158d565b61279667932d767547c6ea1760c01b61158d565b601f60008473ffffffffffffffffffffffffffffffffffffffff1673ffffffffffffffffffffffffffffffffffffffff16815260200190815260200160002060010160009054906101000a900460801b601f60008573ffffffffffffffffffffffffffffffffffffffff1673ffffffffffffffffffffffffffffffffffffffff16815260200190815260200160002060010160109054906101000a900460f01b91509150915091565b61285367ef281715e09f9b6460c01b61158d565b61285b61a610565b61286f67dcb2490886e1fef660c01b61158d565b6128836755e484694d1034d660c01b61158d565b61289767547777f9f70733d960c01b61158d565b6128ab67ea1caefc33d18cab60c01b61158d565b600a81111580156128cc57506128cb6751738365f7b88b5760c01b61a697565b5b806128f5575060175481101580156128f457506128f36721c761dbf259248060c01b61a697565b5b5b156129545761290e67e44fb9885512b4a660c01b61158d565b612922670245193a93dfa17960c01b61158d565b6040517f8826666f00000000000000000000000000000000000000000000000000000000815260040160405180910390fd5b6129686703d75f00755c500e60c01b61158d565b61297c67d2c8c3cab5a9372a60c01b61158d565b8060188190555050565b600061299c67d81789f90c6f27cd60c01b61158d565b6129b0675e52e289523bd55760c01b61158d565b6129c46736ba1dfff371217360c01b61158d565b600060195490506129df67d097e4dc70fd345d60c01b61158d565b6129f367467870e5372fc1f660c01b61158d565b60006017541480612a145750612a136773d3b382719e58dc60c01b61a6a2565b5b8015612a305750612a2f671d846ecc2ae73c2860c01b61a697565b5b612a3b576001612a3e565b60005b60ff16601b5460175483612a52919061ed1b565b612a5c919061ed1b565b612a66919061ef17565b91505090565b612a8067ab62ed463bfdc7c060c01b61158d565b612a9467819a3c6447273cd260c01b61158d565b612aa867c23cea195263a6c260c01b61158d565b612abc671fb21d9e2d10e15360c01b61158d565b60003a03612b1e57612ad867e55dc19b3fdff44e60c01b61158d565b612aec6762b55f3e83a5ae8f60c01b61158d565b6040517fe661aed000000000000000000000000000000000000000000000000000000000815260040160405180910390fd5b612b32677f6d53ee642f87fc60c01b61158d565b612b46678de8bbee4fc831c260c01b61158d565b612b5a673adf644584f777d960c01b61158d565b612b6e67d396ecdd1f6b0fd160c01b61158d565b612b8267d50330de1c95127460c01b61158d565b612b96677360b2c6894ad3fd60c01b61158d565b8173ffffffffffffffffffffffffffffffffffffffff168373ffffffffffffffffffffffffffffffffffffffff1603612c2357612bdd679bb958251d035e1360c01b61158d565b612bf167722ee5649a448ba360c01b61158d565b6040517f0a5eddd500000000000000000000000000000000000000000000000000000000815260040160405180910390fd5b612c37671f23e4911cb1ef3760c01b61158d565b612c4b676c8eb9a84d34af6c60c01b61158d565b612c5f67a1b689a44604c5ef60c01b61158d565b6000339050612c78674aa12c9d61ddc32660c01b61158d565b612c8c67ddae594261eb2b9960c01b61158d565b612c9784828461a6a9565b612cab671420d8feeccc8fc360c01b61158d565b612cbf67d52dce121caa197a60c01b61158d565b612cca83828461afc0565b612cde67bfdd5325672f864460c01b61158d565b612cf2671a6c17c4eac609c060c01b61158d565b6016548173ffffffffffffffffffffffffffffffffffffffff168473ffffffffffffffffffffffffffffffffffffffff167f4480d8e4b1e9095b94bf513961d26fe1d32386ebdd103d18fe8738cf4b2223ff8786604051612d5492919061ef35565b60405180910390a450505050565b612d76676662242b631394dc60c01b61158d565b612d8a67819a3c6447273cd260c01b61158d565b612d9e67c23cea195263a6c260c01b61158d565b612db2671fb21d9e2d10e15360c01b61158d565b60003a03612e1457612dce67e55dc19b3fdff44e60c01b61158d565b612de26762b55f3e83a5ae8f60c01b61158d565b6040517fe661aed000000000000000000000000000000000000000000000000000000000815260040160405180910390fd5b612e28677f6d53ee642f87fc60c01b61158d565b612e3c678de8bbee4fc831c260c01b61158d565b612e506715b4c8cbdcdc3c8860c01b61158d565b612e646749a8428dd4bd2f7660c01b61158d565b612e7867ddcaf891a417532260c01b61158d565b612e8c67f9a4db42b3091e7c60c01b61158d565b6000339050612ea56755021b86f6a2128a60c01b61158d565b612eb967df10dd31fe6e8ab360c01b61158d565b6000349050612ed2679a3615e20da3f18e60c01b61158d565b612ee6678858a3eaff23853360c01b61158d565b612ef183838361afc0565b612f0567f8eae6eaeb5a83f660c01b61158d565b612f1967d0146af52483c6eb60c01b61158d565b6016548273ffffffffffffffffffffffffffffffffffffffff168473ffffffffffffffffffffffffffffffffffffffff167f2273de02cb1f69ba6259d22c4bc22c60e4c94c193265ef6afee324a04a9b6d2284604051612f79919061e3e8565b60405180910390a4505050565b612f9a67936795e94ff0294a60c01b61158d565b612fa261a610565b612fb6673be9c27d41700e7e60c01b61158d565b612fca670aaf9f0422e8b1bf60c01b61158d565b80612fdf67288a20a40e8d1c5860c01b61bb79565b612ff367c91bd2adbddb69c960c01b61bb79565b61300767e350faaca2e8f0c060c01b61bb79565b6130356000357fffffffff000000000000000000000000000000000000000000000000000000001682617a02565b61309e5761304d67f321c0062a05753f60c01b61bb79565b6130616710282e2f2d3001d760c01b61bb79565b806040517f73330d9b000000000000000000000000000000000000000000000000000000008152600401613095919061e3e8565b60405180910390fd5b6130b2677a834b40c8e841e560c01b61bb79565b6130c6678765015181e8c42860c01b61bb79565b6130da671ba82d4011c51a8260c01b61158d565b6130ee671dd8c00337e99f9460c01b61158d565b6131026716fed0dc05d542f060c01b61158d565b81600e8190555061311d67b146300bb6f6853460c01b61158d565b61313167bfb96aad513382ed60c01b61158d565b7ffee02ce7aa40f9c49eaabd26d404fa88714b97cb209af8954cfd5eeb8213b93e82604051613160919061e3e8565b60405180910390a15050565b602080528060005260406000206000915054906101000a900460ff1681565b61319f6702ea89b15cc3096960c01b61158d565b6131b367819a3c6447273cd260c01b61158d565b6131c767c23cea195263a6c260c01b61158d565b6131db671fb21d9e2d10e15360c01b61158d565b60003a0361323d576131f767e55dc19b3fdff44e60c01b61158d565b61320b6762b55f3e83a5ae8f60c01b61158d565b6040517fe661aed000000000000000000000000000000000000000000000000000000000815260040160405180910390fd5b613251677f6d53ee642f87fc60c01b61158d565b613265678de8bbee4fc831c260c01b61158d565b613279672022efd41c50281260c01b61158d565b61328d67295fa8b90cdc2ce760c01b61158d565b6132a167449b47673c85758f60c01b61158d565b6132b567ad6d38278af45a9960c01b61158d565b60006132cb6789992c619629fd8260c01b61158d565b6132df670da0eaddae50aa1360c01b61158d565b60006132eb600361a467565b905061330167278ab82c5f0dfa5d60c01b61158d565b61331567e12ba885a10c97f960c01b61158d565b600081510361337857613332671843e46d5f4db44160c01b61158d565b613346678a2bbfbd94d3956c60c01b61158d565b6040517f70da6d1400000000000000000000000000000000000000000000000000000000815260040160405180910390fd5b61338c679f806404611ec1a960c01b61158d565b6133a06721e15c01bab9343660c01b61158d565b6133b467f03003a32185452f60c01b61158d565b60005b8151811015613939576133d46746c705e97e3a471e60c01b61158d565b6133e8670a90bca0e4fb254e60c01b61158d565b60008282815181106133fd576133fc61ed05565b5b6020026020010151905061341b675c65210903cf7c8260c01b61158d565b61342f6762d4a9b3d20b1b4660c01b61158d565b6134388161bb7c565b801561345457506134536731e0a7ad349993d660c01b61a697565b5b806135145750601e60009054906101000a900473ffffffffffffffffffffffffffffffffffffffff1673ffffffffffffffffffffffffffffffffffffffff16639d6fc1d1826040518263ffffffff1660e01b81526004016134b5919061e9e3565b602060405180830381865afa1580156134d2573d6000803e3d6000fd5b505050506040513d601f19601f820116820180604052508101906134f6919061ef63565b158015613513575061351267449cb848d4b91c2160c01b61a697565b5b5b156135475761352d67a6ad17b4352872ff60c01b61158d565b61354167088e11aaa412879160c01b61158d565b5061392e565b61355b67e5f73d480640195960c01b61158d565b61356f6775b54fe5fc1f5ebe60c01b61158d565b613583677b50165de189d9c560c01b61158d565b61359781600361bc4f90919063ffffffff16565b506135ac677ef1ea443085084060c01b61158d565b6001602060008373ffffffffffffffffffffffffffffffffffffffff1673ffffffffffffffffffffffffffffffffffffffff16815260200190815260200160002060006101000a81548160ff02191690831515021790555061361867f79bb801a29e354c60c01b61158d565b61362c6716a76baf30c9f3e260c01b61158d565b6000601c60008373ffffffffffffffffffffffffffffffffffffffff1673ffffffffffffffffffffffffffffffffffffffff1681526020019081526020016000205490506136846791ffc38211a473ff60c01b61158d565b6000601c60008473ffffffffffffffffffffffffffffffffffffffff1673ffffffffffffffffffffffffffffffffffffffff168152602001908152602001600020819055506136dd67dcdfde953ad1836760c01b61158d565b80601d60008282546136ef919061ef17565b9250508190555061370a67e576c5c4a9171f0360c01b61158d565b61371e6797f2d50bb10a55b860c01b61158d565b600061372983616466565b905061373f6773ce593850060eee60c01b61158d565b6137536774f47221155c4e9660c01b61158d565b60005b815181101561387a5761377367c18b169f8d9a3d1560c01b61158d565b613787679db73c39a0d77c7960c01b61158d565b600082828151811061379c5761379b61ed05565b5b602002602001015190506137ba6759638f4a60f1ba3060c01b61158d565b6000601460008773ffffffffffffffffffffffffffffffffffffffff1673ffffffffffffffffffffffffffffffffffffffff16815260200190815260200160002060008373ffffffffffffffffffffffffffffffffffffffff1673ffffffffffffffffffffffffffffffffffffffff16815260200190815260200160002081905550613850676c0ebaf3be2d039960c01b61158d565b613864679c74b72c504f4f9d60c01b61158d565b61386e858261bc7f565b50806001019050613756565b5061388f678005c10af28db4e360c01b61158d565b818661389b919061ed1b565b95506138b16771a3080e9dee3eb860c01b61158d565b6138c567591b06740c1c568f60c01b61158d565b8273ffffffffffffffffffffffffffffffffffffffff163373ffffffffffffffffffffffffffffffffffffffff167f8e6a4ccd7dccdca9ac211d00fcc3fa7c71be75ff73d3a35f63ea023173cc100484604051613922919061e3e8565b60405180910390a35050505b8060010190506133b7565b5061394e67f709dcf5c4d739cc60c01b61158d565b6139626771ba625a241414e560c01b61158d565b600082036139c45761397e67369e0cc8c6cbf9f360c01b61158d565b613992678725daa5bea2ca0660c01b61158d565b6040517f70da6d1400000000000000000000000000000000000000000000000000000000815260040160405180910390fd5b6139d867f5ecda9534b32c5660c01b61158d565b6139ec67d92dddec2086e4e860c01b61158d565b613a00671eacf6b3b634b6dd60c01b61158d565b6000600283613a0f919061ef8f565b9050613a2567d1729e0cf95c492060c01b61158d565b613a39670dde406f51adf32960c01b61158d565b60008184613a47919061ef17565b9050613a5d6788fb31ce84662f2a60c01b61158d565b613a71675494a9b2b4481e2d60c01b61158d565b6000601e60009054906101000a900473ffffffffffffffffffffffffffffffffffffffff1673ffffffffffffffffffffffffffffffffffffffff166356b54bae6040518163ffffffff1660e01b8152600401602060405180830381865afa158015613ae0573d6000803e3d6000fd5b505050506040513d601f19601f82011682018060405250810190613b04919061efb7565b9050613b1a67119e4e230f199a0760c01b61158d565b613b2d668433ba0d780cdf60c01b61158d565b60008173ffffffffffffffffffffffffffffffffffffffff1663732524946040518163ffffffff1660e01b8152600401602060405180830381865afa158015613b7a573d6000803e3d6000fd5b505050506040513d601f19601f82011682018060405250810190613b9e919061efb7565b9050613bb467dae723bd5ed7187960c01b61158d565b613bc867443f0556f7ad7b0a60c01b61158d565b8173ffffffffffffffffffffffffffffffffffffffff1663af182535846040518263ffffffff1660e01b81526004016000604051808303818588803b158015613c1057600080fd5b505af1158015613c24573d6000803e3d6000fd5b5050505050613c3d67ab64dbac0fc65c1d60c01b61158d565b613c51673948bfe6423cb30960c01b61158d565b613c5b818561be4f565b613c6f67a1271eee1cf285cf60c01b61158d565b613c8367b24751eb41a3057360c01b61158d565b3373ffffffffffffffffffffffffffffffffffffffff167f1c113e6bae9530fea40323e612aeb0cb7817dedb5a0b0f6bdfbff97d55920dc78486604051613ccb92919061efde565b60405180910390a2505050505050565b601b5481565b613cf567555484ea495449d160c01b61158d565b601e60009054906101000a900473ffffffffffffffffffffffffffffffffffffffff1673ffffffffffffffffffffffffffffffffffffffff163373ffffffffffffffffffffffffffffffffffffffff1614158015613da15750602660009054906101000a900473ffffffffffffffffffffffffffffffffffffffff1673ffffffffffffffffffffffffffffffffffffffff163373ffffffffffffffffffffffffffffffffffffffff1614155b15613dd8576040517f82b4290000000000000000000000000000000000000000000000000000000000815260040160405180910390fd5b613dec67ff215318459bef7760c01b61158d565b613e00677b55eed13de2eee560c01b61158d565b613e1467210192db51e6854360c01b61158d565b613e2867cb7590990e26637660c01b61158d565b613e318161a488565b50565b613e4867211efbfc5611b17d60c01b61158d565b613e5c67c19e59382a6deb9b60c01b61158d565b613e706746dcd2b9209945fd60c01b61158d565b613e84674f1562aedd3c6fe660c01b61158d565b601e60009054906101000a900473ffffffffffffffffffffffffffffffffffffffff1673ffffffffffffffffffffffffffffffffffffffff166356b54bae6040518163ffffffff1660e01b8152600401602060405180830381865afa158015613ef1573d6000803e3d6000fd5b505050506040513d601f19601f82011682018060405250810190613f15919061efb7565b73ffffffffffffffffffffffffffffffffffffffff163373ffffffffffffffffffffffffffffffffffffffff1614613fa157613f5b6760a418cd05179f2760c01b61158d565b613f6f67b231bf47c8e5b2d160c01b61158d565b6040517f82b4290000000000000000000000000000000000000000000000000000000000815260040160405180910390fd5b613fb567ba4a032948b5ed1660c01b61158d565b613fc967968327826dda860660c01b61158d565b613fdd6785490b590fc08c7660c01b61158d565b613ff1674be869d2743e1bf260c01b61158d565b6140056728f9b852c13ab3a560c01b61158d565b61401967f41e1c7733fbb3ce60c01b61158d565b600034036140625761403567f9ec58cab31cf2e460c01b61158d565b61404967eca4679b11f6601e60c01b61158d565b61405d6717ed398d80b187ec60c01b61158d565b614765565b614076679d32e6363daa054460c01b61158d565b61408a6720445940895c9b3960c01b61158d565b61409e67a15557611b24f94a60c01b61158d565b60003490506140b767ee2aee9fd1e8633660c01b61158d565b6140cb677009c8812de07e1060c01b61158d565b600060216000601654815260200190815260200160002060008573ffffffffffffffffffffffffffffffffffffffff1673ffffffffffffffffffffffffffffffffffffffff16815260200190815260200160002054905061413667c4d17bef859328f460c01b61158d565b61414a67c142c80548286bc260c01b61158d565b600060226000601654815260200190815260200160002060008673ffffffffffffffffffffffffffffffffffffffff1673ffffffffffffffffffffffffffffffffffffffff1681526020019081526020016000205490506141b567f71383cb2f8c7ac260c01b61158d565b6141c967be50ff307448081560c01b61158d565b60006141df67e8470bfe229e6e2060c01b61158d565b6141f367380925987015297160c01b61158d565b8183111561453f5761420f6780b68159301be85560c01b61158d565b61422367d4024233809e35d560c01b61158d565b61423767956f86db6921a78d60c01b61158d565b600061424287616466565b9050614258673840ead74a5ebaac60c01b61158d565b61426c67f5a5e631052416b660c01b61158d565b60006064878761427c919061ece3565b614286919061ef8f565b905061429c675ef848818fb53b2660c01b61158d565b6142b067f53b7bf0f40e9bda60c01b61158d565b600081876142be919061ef17565b90506142d4670dee020abd3e520b60c01b61158d565b8585826142e1919061ece3565b6142eb919061ef8f565b826142f6919061ed1b565b935061430c678d692c47a64799fc60c01b61158d565b61432067c94491891cd8905f60c01b61158d565b60005b8351811015614536576143406717ef5522c624cd9860c01b61158d565b6143546796b6756366374b8660c01b61158d565b60008761437e6016548d8886815181106143715761437061ed05565b5b602002602001015161c042565b84614389919061ece3565b614393919061ef8f565b90506143a9679a4cb04b20bb6b4e60c01b61158d565b80601460008d73ffffffffffffffffffffffffffffffffffffffff1673ffffffffffffffffffffffffffffffffffffffff16815260200190815260200160002060008785815181106143fe576143fd61ed05565b5b602002602001015173ffffffffffffffffffffffffffffffffffffffff1673ffffffffffffffffffffffffffffffffffffffff168152602001908152602001600020600082825461444f919061ed1b565b9250508190555061446a675ad7d78bd854c5fc60c01b61158d565b80600c60008d73ffffffffffffffffffffffffffffffffffffffff1673ffffffffffffffffffffffffffffffffffffffff16815260200190815260200160002060008785815181106144bf576144be61ed05565b5b602002602001015173ffffffffffffffffffffffffffffffffffffffff1673ffffffffffffffffffffffffffffffffffffffff168152602001908152602001600020600060165481526020019081526020016000206000828254614523919061ed1b565b9250508190555050806001019050614323565b5050505061456b565b614553673d7693030d335adc60c01b61158d565b61456767a8399d68eda9307860c01b61158d565b8390505b61457f67be7c372895b2db4760c01b61158d565b80601460008873ffffffffffffffffffffffffffffffffffffffff1673ffffffffffffffffffffffffffffffffffffffff16815260200190815260200160002060008873ffffffffffffffffffffffffffffffffffffffff1673ffffffffffffffffffffffffffffffffffffffff168152602001908152602001600020600082825461460b919061ed1b565b925050819055506146266799ebf69f7e83247660c01b61158d565b83601c60008873ffffffffffffffffffffffffffffffffffffffff1673ffffffffffffffffffffffffffffffffffffffff1681526020019081526020016000206000828254614675919061ed1b565b92505081905550614690670d8932cce79877b160c01b61158d565b83601d60008282546146a2919061ed1b565b925050819055506146bd67823a11dc0dd46b1f60c01b61158d565b6146d167ddce7cf736c7fbe260c01b61158d565b6146da8661c320565b6146ee679168b48b0bd4bf9b60c01b61158d565b6147026701101eaee8dd1f3560c01b61158d565b6016548673ffffffffffffffffffffffffffffffffffffffff167f72093068b9f28053bd924ac15d7710b987f9b6ef1e0f89f47d8b4bd7cac776dc83848861474a919061ef17565b60405161475892919061efde565b60405180910390a3505050505b5050565b61477d67be0c833aa15c34c060c01b61bb79565b61478561a610565b6147996732f8a94e78c23adf60c01b61bb79565b6147ad6788b6eef7519ee4f160c01b61bb79565b6147c16716df033c7a667b6e60c01b61bb79565b6040518060400160405280847bffffffffffffffffffffffffffffffffffffffffffffffffffffffff19168152602001838380806020026020016040519081016040528093929190818152602001838360200280828437600081840152601f19601f82011690508083019250505050505050815250600080867bffffffffffffffffffffffffffffffffffffffffffffffffffffffff19167bffffffffffffffffffffffffffffffffffffffffffffffffffffffff1916815260200190815260200160002060008201518160000160006101000a81548163ffffffff021916908360e01c021790555060208201518160010190805190602001906148c692919061e324565b509050506148de6755f08098c39d2f8260c01b61bb79565b6148f267bdeaf3791eacbded60c01b61bb79565b7f3665bf9cd0ba4ddceeec259e21dcf8a4510f3b1130bd42e950828e69d85408ba84848484604051614927949392919061eff6565b60405180910390a150505050565b606061494b67075e0b254c7f5b9e60c01b61158d565b61495f67521b3b24154b1a9660c01b61158d565b61497367936e33b0b593015860c01b61158d565b601f60008373ffffffffffffffffffffffffffffffffffffffff1673ffffffffffffffffffffffffffffffffffffffff16815260200190815260200160002060000180546149c09061ed51565b80601f01602080910402602001604051908101604052809291908181526020018280546149ec9061ed51565b8015614a395780601f10614a0e57610100808354040283529160200191614a39565b820191906000526020600020905b815481529060010190602001808311614a1c57829003601f168201915b50505050509050919050565b60175481565b601c6020528060005260406000206000915090505481565b601d5481565b614a7d6793785f883a6130c660c01b61158d565b614a9167819a3c6447273cd260c01b61158d565b614aa567c23cea195263a6c260c01b61158d565b614ab9671fb21d9e2d10e15360c01b61158d565b60003a03614b1b57614ad567e55dc19b3fdff44e60c01b61158d565b614ae96762b55f3e83a5ae8f60c01b61158d565b6040517fe661aed000000000000000000000000000000000000000000000000000000000815260040160405180910390fd5b614b2f677f6d53ee642f87fc60c01b61158d565b614b43678de8bbee4fc831c260c01b61158d565b614b57670c7ebedca148ea9160c01b61158d565b614b6b67ae97237961f351d160c01b61158d565b614b7f67d755877656d0e68b60c01b61158d565b614b9367e2e4c4e27c82a46f60c01b61158d565b6000339050614bac6703f70a2bd51282dd60c01b61158d565b614bc0674de0dc588a83e03c60c01b61158d565b6000349050614bd967d713b801fb33bd6c60c01b61158d565b614bed67dcacc62b6a9470a660c01b61158d565b601e60009054906101000a900473ffffffffffffffffffffffffffffffffffffffff1673ffffffffffffffffffffffffffffffffffffffff16630a4c107287846040518363ffffffff1660e01b8152600401614c4a92919061f065565b600060405180830381600087803b158015614c6457600080fd5b505af1158015614c78573d6000803e3d6000fd5b50505050614c9067eceefb30aaf1ebc560c01b61158d565b614ca46755b9a52c96e9613060c01b61158d565b614caf82838361afc0565b614cc367775e52653225e3db60c01b61158d565b8484601f60008573ffffffffffffffffffffffffffffffffffffffff1673ffffffffffffffffffffffffffffffffffffffff1681526020019081526020016000206000019182614d1492919061f097565b50614d296717ab4458786e71fc60c01b61158d565b82601f60008473ffffffffffffffffffffffffffffffffffffffff1673ffffffffffffffffffffffffffffffffffffffff16815260200190815260200160002060010160006101000a8154816fffffffffffffffffffffffffffffffff021916908360801c0217905550614da767f2c935569909e4cd60c01b61158d565b614dbb672ed67123f50ff07160c01b61158d565b6016548273ffffffffffffffffffffffffffffffffffffffff168373ffffffffffffffffffffffffffffffffffffffff167f2273de02cb1f69ba6259d22c4bc22c60e4c94c193265ef6afee324a04a9b6d2284604051614e1b919061e3e8565b60405180910390a4505050505050565b6000614e416720029dc7e2271f6460c01b61158d565b614e5567e6564604451b5c6f60c01b61158d565b614e69671bda33a48263ede360c01b61158d565b6022600084815260200190815260200160002060008373ffffffffffffffffffffffffffffffffffffffff1673ffffffffffffffffffffffffffffffffffffffff16815260200190815260200160002054905092915050565b8060168190555050565b600f5481565b600d5481565b614ee381600161a02a565b50565b6060614efc677a40392cdcd0b48f60c01b61158d565b614f10674669d720ac1fba8560c01b61158d565b614f246760372323b14778f060c01b61158d565b614f2e600161a467565b905090565b6000614f49679f1902a92107e6c260c01b61158d565b614f5d6712edfb436dcc232d60c01b61158d565b614f716749efc79be038489e60c01b61158d565b6000601e60009054906101000a900473ffffffffffffffffffffffffffffffffffffffff1673ffffffffffffffffffffffffffffffffffffffff1662535175856040518263ffffffff1660e01b8152600401614fcd919061e9e3565b602060405180830381865afa158015614fea573d6000803e3d6000fd5b505050506040513d601f19601f8201168201806040525081019061500e919061efb7565b90506150246714e002f36501e98560c01b61158d565b61503867f9afe6863953cad660c01b61158d565b615040619901565b15801561505d575061505c678131abe3eebeebc060c01b61a697565b5b806150cd5750602060008573ffffffffffffffffffffffffffffffffffffffff1673ffffffffffffffffffffffffffffffffffffffff16815260200190815260200160002060009054906101000a900460ff1680156150cc57506150cb6751e5d8da6dda8b2060c01b61a697565b5b5b15615118576150e66793757d715427c01760c01b61158d565b6150fa67ccfb7edb71f6bcae60c01b61158d565b61510e67ba05bb684bf162d260c01b61158d565b60009150506153d1565b61512c677af00e00ae10d42460c01b61158d565b61514067dc67598a2f167e4360c01b61158d565b61515467950e62c6ce8f5fe960c01b61158d565b6000601460008673ffffffffffffffffffffffffffffffffffffffff1673ffffffffffffffffffffffffffffffffffffffff16815260200190815260200160002060008573ffffffffffffffffffffffffffffffffffffffff1673ffffffffffffffffffffffffffffffffffffffff1681526020019081526020016000205490506151e967890fc4235bf71a1560c01b61158d565b6151fd67e2ced4f0b826872260c01b61158d565b601e60009054906101000a900473ffffffffffffffffffffffffffffffffffffffff1673ffffffffffffffffffffffffffffffffffffffff1663a0d16cad836040518263ffffffff1660e01b8152600401615258919061e9e3565b602060405180830381865afa158015615275573d6000803e3d6000fd5b505050506040513d601f19601f82011682018060405250810190615299919061ef63565b6152e3576152b16753c4a36f32e8af5460c01b61158d565b6152c5679df8db9d43859f2a60c01b61158d565b6152d967fa2eedb0e8553f4e60c01b61158d565b80925050506153d1565b6152f767d4275d9d27523e7f60c01b61158d565b61530b671697fff997f9dff960c01b61158d565b61531f672ca0f9d32056492d60c01b61158d565b600061532b86866154a2565b90506153416714cd59f89804e72e60c01b61158d565b615355675a568078dd14435e60c01b61158d565b8082111561538d5761537167219c19fb5c5506e860c01b61158d565b615385672688b985857128fc60c01b61158d565b8091506153a2565b6153a167bc13e68bd423f49c60c01b61158d565b5b6153b6677d69444da89e713960c01b61158d565b6153ca67b81af50ad1e3f2aa60c01b61158d565b8193505050505b92915050565b601a5481565b6153e561a610565b6153ef600061c4fa565b565b6021602052816000526040600020602052806000526040600020600091509150505481565b606061542c671f4b1187538e35fd60c01b61158d565b61544067d8a7d0b9b896074560c01b61158d565b615454670236f9c6ba8394c260c01b61158d565b61549b600b60008473ffffffffffffffffffffffffffffffffffffffff1673ffffffffffffffffffffffffffffffffffffffff16815260200190815260200160002061a467565b9050919050565b60006154b867e64bee992df64e0460c01b61158d565b6154cc679837c489cc40dcfb60c01b61158d565b6154e067df33d97971c46a5460c01b61158d565b600c60008473ffffffffffffffffffffffffffffffffffffffff1673ffffffffffffffffffffffffffffffffffffffff16815260200190815260200160002060008373ffffffffffffffffffffffffffffffffffffffff1673ffffffffffffffffffffffffffffffffffffffff1681526020019081526020016000206000601654815260200190815260200160002054905092915050565b60165481565b6155926785fa7b395d5be89560c01b61158d565b601e60009054906101000a900473ffffffffffffffffffffffffffffffffffffffff1673ffffffffffffffffffffffffffffffffffffffff163373ffffffffffffffffffffffffffffffffffffffff161415801561563e5750602660009054906101000a900473ffffffffffffffffffffffffffffffffffffffff1673ffffffffffffffffffffffffffffffffffffffff163373ffffffffffffffffffffffffffffffffffffffff1614155b15615675576040517f82b4290000000000000000000000000000000000000000000000000000000000815260040160405180910390fd5b6156896721a8f1ce11b2066260c01b61158d565b61569d6763b46a76e442507f60c01b61158d565b6156b167cdaf7847fc9011dd60c01b61158d565b81601f60008573ffffffffffffffffffffffffffffffffffffffff1673ffffffffffffffffffffffffffffffffffffffff16815260200190815260200160002060010160006101000a8154816fffffffffffffffffffffffffffffffff021916908360801c021790555061572f67820e57abd93a719360c01b61158d565b80601f60008573ffffffffffffffffffffffffffffffffffffffff1673ffffffffffffffffffffffffffffffffffffffff16815260200190815260200160002060010160106101000a81548161ffff021916908360f01c0217905550505050565b6157a4679eec9044b9c0462c60c01b61158d565b601e60009054906101000a900473ffffffffffffffffffffffffffffffffffffffff1673ffffffffffffffffffffffffffffffffffffffff163373ffffffffffffffffffffffffffffffffffffffff16141580156158505750602660009054906101000a900473ffffffffffffffffffffffffffffffffffffffff1673ffffffffffffffffffffffffffffffffffffffff163373ffffffffffffffffffffffffffffffffffffffff1614155b15615887576040517f82b4290000000000000000000000000000000000000000000000000000000000815260040160405180910390fd5b61589b6724035923ca977d0560c01b61158d565b6158af67f67f426e3e6b371060c01b61158d565b6158c367511aa899e6eb4d6760c01b61158d565b6158d767f5471960fb2f6f9460c01b61158d565b600d54601460008373ffffffffffffffffffffffffffffffffffffffff1673ffffffffffffffffffffffffffffffffffffffff16815260200190815260200160002060008373ffffffffffffffffffffffffffffffffffffffff1673ffffffffffffffffffffffffffffffffffffffff16815260200190815260200160002054106159d95761597067e2f419a7a698013060c01b61158d565b61598467b5dd99f846daac2760c01b61158d565b615998677067ed355c6ccc7f60c01b61158d565b6159a381600161a02a565b6159b7670f0b87963cd213ac60c01b61158d565b6159cb67c71bd7861845a87c60c01b61158d565b6159d48161c320565b6159ee565b6159ed6718f0a4a28cf4425560c01b61158d565b5b50565b615a05678fe2115d6ce1cd2660c01b61bb79565b615a0d61a610565b615a216709b862b227f1778560c01b61bb79565b615a3567423a90dea5f08d5f60c01b61bb79565b615a496712d55d992cd616b860c01b61bb79565b600080827bffffffffffffffffffffffffffffffffffffffffffffffffffffffff19167bffffffffffffffffffffffffffffffffffffffffffffffffffffffff19168152602001908152602001600020600080820160006101000a81549063ffffffff0219169055600182016000615ac1919061e371565b5050615ad7671c3795656335d30b60c01b61bb79565b615aeb67c0de44f930e2c4cb60c01b61bb79565b7fed27cb02231782dadf13473a7828cb980c4d685791b7a3136dde00f8c3594cb681604051615b1a919061ea0a565b60405180910390a150565b615b396790789c7859d6782460c01b61158d565b601e60009054906101000a900473ffffffffffffffffffffffffffffffffffffffff1673ffffffffffffffffffffffffffffffffffffffff163373ffffffffffffffffffffffffffffffffffffffff1614158015615be55750602660009054906101000a900473ffffffffffffffffffffffffffffffffffffffff1673ffffffffffffffffffffffffffffffffffffffff163373ffffffffffffffffffffffffffffffffffffffff1614155b15615c1c576040517f82b4290000000000000000000000000000000000000000000000000000000000815260040160405180910390fd5b615c30672359c4fbba81657560c01b61158d565b615c4467947eeee94fca0aaa60c01b61158d565b615c5867273c24bb72851d4c60c01b61158d565b80601981905550615c73678efe70545cab1c0360c01b61158d565b43601a8190555050565b615c916772deab8c9537877b60c01b61158d565b615ca567debbb0d32f2c8d4660c01b61158d565b8383601f60003373ffffffffffffffffffffffffffffffffffffffff1673ffffffffffffffffffffffffffffffffffffffff1681526020019081526020016000206000019182615cf692919061f097565b50615d0b67657c361e76a150e960c01b61158d565b81601f60003373ffffffffffffffffffffffffffffffffffffffff1673ffffffffffffffffffffffffffffffffffffffff16815260200190815260200160002060010160006101000a8154816fffffffffffffffffffffffffffffffff021916908360801c0217905550615d896753a698b3e547691760c01b61158d565b80601f60003373ffffffffffffffffffffffffffffffffffffffff1673ffffffffffffffffffffffffffffffffffffffff16815260200190815260200160002060010160106101000a81548161ffff021916908360f01c021790555050505050565b600080615df661c5d1565b90508060000160009054906101000a900473ffffffffffffffffffffffffffffffffffffffff1691505090565b60006020528060005260406000206000915090508060000160009054906101000a900460e01b905081565b6000615e646795454513f45e782360c01b61158d565b615e7867ebf4fd7cf3bd4c4b60c01b61158d565b615e8c670aaa68e980ac0b4160c01b61158d565b6000601e60009054906101000a900473ffffffffffffffffffffffffffffffffffffffff1673ffffffffffffffffffffffffffffffffffffffff1662535175856040518263ffffffff1660e01b8152600401615ee8919061e9e3565b602060405180830381865afa158015615f05573d6000803e3d6000fd5b505050506040513d601f19601f82011682018060405250810190615f29919061efb7565b9050615f3f679dc5e0f751d380aa60c01b61158d565b615f5367c320da0e1291c64e60c01b61158d565b615f5b619901565b615fa557615f736799f9885c50533d9160c01b61158d565b615f8767aec3d8e5f37e3c2960c01b61158d565b615f9b6729f682c3a290a08f60c01b61158d565b6000915050616198565b615fb967b8094cab83c05bc260c01b61158d565b615fcd677d58f2c9a9a1f25560c01b61158d565b615fe16727727c73a5c73f0360c01b61158d565b601e60009054906101000a900473ffffffffffffffffffffffffffffffffffffffff1673ffffffffffffffffffffffffffffffffffffffff1663a0d16cad826040518263ffffffff1660e01b815260040161603c919061e9e3565b602060405180830381865afa158015616059573d6000803e3d6000fd5b505050506040513d601f19601f8201168201806040525081019061607d919061ef63565b6160c75761609567d647d0a9663fbf0960c01b61158d565b6160a9677e8f80d95002a9ed60c01b61158d565b6160bd67886d28b8cc55b65260c01b61158d565b6000915050616198565b6160db67594c5670f5c2c24360c01b61158d565b6160ef67583e6f50effbbe8660c01b61158d565b616103677aae907e3dfd9c2560c01b61158d565b61610d84846154a2565b601460008673ffffffffffffffffffffffffffffffffffffffff1673ffffffffffffffffffffffffffffffffffffffff16815260200190815260200160002060008573ffffffffffffffffffffffffffffffffffffffff1673ffffffffffffffffffffffffffffffffffffffff16815260200190815260200160002054616194919061ef17565b9150505b92915050565b606060006161b66798a11f19cdc7813560c01b61158d565b6161ca6764ad1907c60ddaca60c01b61158d565b6161de6742ee47e51961afaf60c01b61158d565b60086009548180548060200260200160405190810160405280929190818152602001828054801561622e57602002820191906000526020600020905b81548152602001906001019080831161621a575b50505050509150915091509091565b601f6020528060005260406000206000915090508060000180546162609061ed51565b80601f016020809104026020016040519081016040528092919081815260200182805461628c9061ed51565b80156162d95780601f106162ae576101008083540402835291602001916162d9565b820191906000526020600020905b8154815290600101906020018083116162bc57829003601f168201915b5050505050908060010160009054906101000a900460801b908060010160109054906101000a900460f01b905083565b60195481565b61632367a362ba248db22e9060c01b61158d565b601e60009054906101000a900473ffffffffffffffffffffffffffffffffffffffff1673ffffffffffffffffffffffffffffffffffffffff163373ffffffffffffffffffffffffffffffffffffffff16141580156163cf5750602660009054906101000a900473ffffffffffffffffffffffffffffffffffffffff1673ffffffffffffffffffffffffffffffffffffffff163373ffffffffffffffffffffffffffffffffffffffff1614155b15616406576040517f82b4290000000000000000000000000000000000000000000000000000000000815260040160405180910390fd5b61641a67ac634bfe7d95997760c01b61158d565b61642e672c6ee707741730c760c01b61158d565b61644267b4df1d5aad69774160c01b61158d565b60185481601b54616453919061ed1b565b61645d919061ed1b565b601b8190555050565b606061647c670e1ebfbce14934c960c01b61158d565b61649067da8c4c4c0581007a60c01b61158d565b6164a467a8e32982db25c03860c01b61158d565b6164eb600a60008473ffffffffffffffffffffffffffffffffffffffff1673ffffffffffffffffffffffffffffffffffffffff16815260200190815260200160002061a467565b9050919050565b6012602052816000526040600020602052806000526040600020600091509150505481565b606061652d67b27f8857d09f711660c01b61158d565b6165416798c4fd5f9c38859660c01b61158d565b61655567e004b78480d52c9060c01b61158d565b60078054806020026020016040519081016040528092919081815260200182805480156165d757602002820191906000526020600020905b8160009054906101000a900473ffffffffffffffffffffffffffffffffffffffff1673ffffffffffffffffffffffffffffffffffffffff168152602001906001019080831161658d575b5050505050905090565b6014602052816000526040600020602052806000526040600020600091509150505481565b600061661c67936522026e3d1a1260c01b61158d565b616630675aea191cf199a59b60c01b61158d565b6166446709d961102d7d737760c01b61158d565b61665882600161c5f990919063ffffffff16565b9050919050565b616673671466e75a93d1465060c01b61158d565b601e60009054906101000a900473ffffffffffffffffffffffffffffffffffffffff1673ffffffffffffffffffffffffffffffffffffffff163373ffffffffffffffffffffffffffffffffffffffff161415801561671f5750602660009054906101000a900473ffffffffffffffffffffffffffffffffffffffff1673ffffffffffffffffffffffffffffffffffffffff163373ffffffffffffffffffffffffffffffffffffffff1614155b15616756576040517f82b4290000000000000000000000000000000000000000000000000000000000815260040160405180910390fd5b61676a677fd47da2164035a960c01b61158d565b61677e6759febfa2bf3084dd60c01b61158d565b61679267c06f9bb01a8ce72160c01b61158d565b601854601b60008282546167a6919061ed1b565b92505081905550565b60185481565b6167c967427591390002f30460c01b61158d565b6167d161a610565b6167e56733693385eca1532260c01b61158d565b6167f9670a59cb2ad3a445f860c01b61158d565b61680d6722204df511afaffe60c01b61158d565b61682167959064bfb53b059760c01b61158d565b60185481116168845761683e671947347d7833ff4c60c01b61158d565b616852674320f0af700643f060c01b61158d565b6040517fb056448800000000000000000000000000000000000000000000000000000000815260040160405180910390fd5b616898676dbac2f4543418b660c01b61158d565b6168ac6769ca06f52e0393aa60c01b61158d565b8060178190555050565b565b6168cc6748a8dd549c160d8a60c01b61158d565b6168e067819a3c6447273cd260c01b61158d565b6168f467c23cea195263a6c260c01b61158d565b616908671fb21d9e2d10e15360c01b61158d565b60003a0361696a5761692467e55dc19b3fdff44e60c01b61158d565b6169386762b55f3e83a5ae8f60c01b61158d565b6040517fe661aed000000000000000000000000000000000000000000000000000000000815260040160405180910390fd5b61697e677f6d53ee642f87fc60c01b61158d565b616992678de8bbee4fc831c260c01b61158d565b6169a667452a68293875331660c01b61158d565b6169ba674aacec2d719f03dc60c01b61158d565b6169ce6782ce26852ec9d6ee60c01b61158d565b6169e267ed79613cccb3c74b60c01b61158d565b600073ffffffffffffffffffffffffffffffffffffffff168273ffffffffffffffffffffffffffffffffffffffff1603616a7057616a2a67e990a436a2ec2def60c01b61158d565b616a3e67841c20f6653a62d060c01b61158d565b6040517fd92e233d00000000000000000000000000000000000000000000000000000000815260040160405180910390fd5b616a8467f700e8d8d7529c0260c01b61158d565b616a98671951f0a673dc5d5160c01b61158d565b616aac677475c61e4f9243ad60c01b61158d565b60008103616b0e57616ac8671963f9582f2de17160c01b61158d565b616adc672dc96ace0c49f9c160c01b61158d565b6040517f3ca0029d00000000000000000000000000000000000000000000000000000000815260040160405180910390fd5b616b22670cb9a9ec3e485bc760c01b61158d565b616b3667ee007709fa8af30e60c01b61158d565b616b4a67521312d9b795c2a960c01b61158d565b6000339050616b636789d1a26b5ed60f9260c01b61158d565b616b7767f83bebe3571d84d560c01b61158d565b616b7f619901565b616bdd57616b9767b430d066006004f260c01b61158d565b616bab676757fde2cf8285dc60c01b61158d565b6040517f15e34e0500000000000000000000000000000000000000000000000000000000815260040160405180910390fd5b616bf16791c3d27ebe9f68aa60c01b61158d565b616c0567cf78bb2ba4ee23b660c01b61158d565b616c1967d9755cfe674333e360c01b61158d565b6000601060008573ffffffffffffffffffffffffffffffffffffffff1673ffffffffffffffffffffffffffffffffffffffff16815260200190815260200160002060008373ffffffffffffffffffffffffffffffffffffffff1673ffffffffffffffffffffffffffffffffffffffff168152602001908152602001600020549050616cae67e7518aac383c45ce60c01b61158d565b616cc2675f8a4b1b8d78f9fe60c01b61158d565b6000601160008673ffffffffffffffffffffffffffffffffffffffff1673ffffffffffffffffffffffffffffffffffffffff168152602001908152602001600020549050616d1a678cc6ec2361b18b1260c01b61158d565b616d2e6728c6dd143891f98560c01b61158d565b6000601460008773ffffffffffffffffffffffffffffffffffffffff1673ffffffffffffffffffffffffffffffffffffffff16815260200190815260200160002060008573ffffffffffffffffffffffffffffffffffffffff1673ffffffffffffffffffffffffffffffffffffffff168152602001908152602001600020549050616dc266364cf153d7a99360c01b61158d565b616dd6671ca22c7755fc66c960c01b61158d565b6000601c60008873ffffffffffffffffffffffffffffffffffffffff1673ffffffffffffffffffffffffffffffffffffffff168152602001908152602001600020549050616e2e6767047d28af8e6fa560c01b61158d565b616e426746f70fe127e53b2260c01b61158d565b60008613156170c057616e5f678c85593171e2082860c01b61158d565b616e736785bc0617b3f3a75460c01b61158d565b616e87670c6a108a3ad67c0260c01b61158d565b6000869050616ea067033695bee4c929d860c01b61158d565b616eb46746eb5fae36e6b53a60c01b61158d565b6000616ec08988615e4e565b9050616ed667d64e2c56c5472bbe60c01b61158d565b616eea67089b22f7afa6a50860c01b61158d565b80821115616f5957616f0667bae463a1a0241ed460c01b61158d565b616f1a67229aa023365dcd2460c01b61158d565b80826040517f2de48821000000000000000000000000000000000000000000000000000000008152600401616f5092919061efde565b60405180910390fd5b616f6d679dfe72ad4767aed160c01b61158d565b616f8167700eb88407fb055160c01b61158d565b8186616f8d919061ed1b565b9550616fa367255a107de252da0c60c01b61158d565b8185616faf919061ed1b565b9450616fc567de78ffe89cc9c8db60c01b61158d565b8184616fd1919061ef17565b9350616fe7673629867fdc54ce5c60c01b61158d565b8183616ff3919061ef17565b9250617009679fa342565d37060460c01b61158d565b81601d600082825461701b919061ef17565b9250508190555061703667f00c46458fb7883160c01b61158d565b601654601260008b73ffffffffffffffffffffffffffffffffffffffff1673ffffffffffffffffffffffffffffffffffffffff16815260200190815260200160002060008973ffffffffffffffffffffffffffffffffffffffff1673ffffffffffffffffffffffffffffffffffffffff1681526020019081526020016000208190555050506171c1565b6170d46771a2db4f0e363fc560c01b61158d565b6170e86732c651886252160760c01b61158d565b6170fc67a5f573d33067d88660c01b61158d565b6000866171089061f158565b905061711e674c46a3d12aeeadda60c01b61158d565b808561712a919061ef17565b94506171406736c481d93f04807360c01b61158d565b808461714c919061ef17565b935061716267f7d5f1cd5fc4ee9760c01b61158d565b808361716e919061ed1b565b9250617184677b90e49b7bd42b0560c01b61158d565b8082617190919061ed1b565b91506171a667adea95754db5b32160c01b61158d565b80601d60008282546171b8919061ed1b565b92505081905550505b6171d567ecd45875701123e860c01b61158d565b83601060008973ffffffffffffffffffffffffffffffffffffffff1673ffffffffffffffffffffffffffffffffffffffff16815260200190815260200160002060008773ffffffffffffffffffffffffffffffffffffffff1673ffffffffffffffffffffffffffffffffffffffff1681526020019081526020016000208190555061726a67abce6968b43f8ecf60c01b61158d565b82601160008973ffffffffffffffffffffffffffffffffffffffff1673ffffffffffffffffffffffffffffffffffffffff168152602001908152602001600020819055506172c2674a7aca3cdc81f0b660c01b61158d565b81601460008973ffffffffffffffffffffffffffffffffffffffff1673ffffffffffffffffffffffffffffffffffffffff16815260200190815260200160002060008773ffffffffffffffffffffffffffffffffffffffff1673ffffffffffffffffffffffffffffffffffffffff16815260200190815260200160002081905550617357671b133143438b8b2b60c01b61158d565b80601c60008973ffffffffffffffffffffffffffffffffffffffff1673ffffffffffffffffffffffffffffffffffffffff168152602001908152602001600020819055506173af67ee304e2b717a0fb160c01b61158d565b6173c3679357e46e28a0f7fc60c01b61158d565b8673ffffffffffffffffffffffffffffffffffffffff168573ffffffffffffffffffffffffffffffffffffffff16036175ec5761740a67a9765666a4cf3dd960c01b61158d565b61741e6771baad291b154e7560c01b61158d565b61743267ec0e0573ac564f3160c01b61158d565b600082141580156174445750600d5482105b156174b25761745d674b04f33a0d8b4f6e60c01b61158d565b61747167b41002eceabc0f6e60c01b61158d565b8685876040517f6fe84f3d0000000000000000000000000000000000000000000000000000000081526004016174a99392919061f179565b60405180910390fd5b6174c667ae5d8c430a3209c160c01b61158d565b6174da67ea975ceb00c9385a60c01b61158d565b6174ee67c15eb8491293b20d60c01b61158d565b600086131561759f5761750b67f5fa71fdc466b96260c01b61158d565b61751f6749fb8580b307951260c01b61158d565b61753367ed8ae093796f18ec60c01b61158d565b600082036175855761754f676b2be3331071028b60c01b61158d565b61756367f0e133656c11d84060c01b61158d565b617577677ab0992c85b116ba60c01b61158d565b6175808761a25a565b61759a565b61759967133f0409202c21a060c01b61158d565b5b6175e7565b6175b3679257f0b6fc64cff060c01b61158d565b6175c7675b47d6da742ac6d060c01b61158d565b6175db676e152c08b7dbb3a560c01b61158d565b6175e687600161a02a565b5b6177de565b6176006765f502f64a2c011d60c01b61158d565b61761467f2b3dca55d7b846a60c01b61158d565b617628677c02e3453867783060c01b61158d565b6000821415801561763a5750600e5482105b156176a857617653674b6919e885eff5fa60c01b61158d565b617667674e5509ef4238992260c01b61158d565b8685876040517f6fe84f3d00000000000000000000000000000000000000000000000000000000815260040161769f9392919061f179565b60405180910390fd5b6176bc6746bb0411ab3c7dc860c01b61158d565b6176d06729a6c7fbbebf5f3760c01b61158d565b6176e4673e4d4f382c624c3f60c01b61158d565b6000861315617796576177016715597697f7dd981160c01b61158d565b617715670f3e814566b162c360c01b61158d565b61772967a418c7ba0f15b88060c01b61158d565b6000820361777c57617745670f39b8ae47f56ed760c01b61158d565b6177596719fb10543ba2139f60c01b61158d565b61776d6795aa869052c86f9660c01b61158d565b617777878661bc7f565b617791565b617790672d98bc2dee45ca6860c01b61158d565b5b6177dd565b6177aa67f65430e3f4989d5e60c01b61158d565b6177be67692ef6790afbae7860c01b61158d565b6177d267cf1de79154df20db60c01b61158d565b6177dc878661c629565b5b5b6177f267a5f3d991c943035e60c01b61158d565b61780667f569bf00bb602a9a60c01b61158d565b61780f8761c320565b617823675c6cded3bbc48f7c60c01b61158d565b61783767a141ecae1f1540ab60c01b61158d565b6016548573ffffffffffffffffffffffffffffffffffffffff168873ffffffffffffffffffffffffffffffffffffffff167f80d5c777e5f7ac6ee89723223803ca5c0ec0204f89e99c1b0cde973c66a6459489604051617897919061f1b2565b60405180910390a450505050505050565b6178b061e392565b6178c4674619985d99bfc13a60c01b61bb79565b6178d867d3809ce56ffdd6c060c01b61bb79565b6178ec67672ef63f17fd937760c01b61bb79565b60008083805190602001207bffffffffffffffffffffffffffffffffffffffffffffffffffffffff19167bffffffffffffffffffffffffffffffffffffffffffffffffffffffff191681526020019081526020016000206040518060400160405290816000820160009054906101000a900460e01b7bffffffffffffffffffffffffffffffffffffffffffffffffffffffff19167bffffffffffffffffffffffffffffffffffffffffffffffffffffffff19168152602001600182018054806020026020016040519081016040528092919081815260200182805480156179f257602002820191906000526020600020905b8154815260200190600101908083116179de575b5050505050815250509050919050565b6000617a1867474e2d01d013ed0460c01b61bb79565b617a2c67a3dfb7f1a77f229760c01b61bb79565b617a4067c84461f410b06e1d60c01b61bb79565b6000806000857bffffffffffffffffffffffffffffffffffffffffffffffffffffffff19167bffffffffffffffffffffffffffffffffffffffffffffffffffffffff191681526020019081526020016000206040518060400160405290816000820160009054906101000a900460e01b7bffffffffffffffffffffffffffffffffffffffffffffffffffffffff19167bffffffffffffffffffffffffffffffffffffffffffffffffffffffff1916815260200160018201805480602002602001604051908101604052809291908181526020018280548015617b4157602002820191906000526020600020905b815481526020019060010190808311617b2d575b5050505050815250509050617b6067fceac404249b0d4760c01b61bb79565b617b746780c820ae5d3863fa60c01b61bb79565b600081602001515103617bc757617b9567d3f7980aefae23f760c01b61bb79565b617ba9675178b7b9ce528bf860c01b61bb79565b617bbd672c12828ba0a53f0e60c01b61bb79565b6000915050617eec565b617bdb679fbf9a05f8d8d3f260c01b61bb79565b617bef67ec1b37c91026e18c60c01b61bb79565b617c0266575fac3fc8706960c01b61bb79565b600081602001519050617c1f67e4ee101f22c6ceed60c01b61bb79565b617c3367ccc0fb216cd0689c60c01b61bb79565b6000617c42836000015161c6ed565b9050617c5867bfc58c9d8e9c74b760c01b61bb79565b617c6c679e58f8bb97a704b560c01b61bb79565b60005b8251811015617ebb57617c8c670ae3b9f28946ab1660c01b61bb79565b617ca0674d79179b2b65b62460c01b61bb79565b81838281518110617cb457617cb361ed05565b5b602002602001015103617e9a57617cd567e77d2e3f89e7a42860c01b61bb79565b617ce967b7842defb9da051d60c01b61bb79565b617cfd671547477c73ca15a160c01b61bb79565b600080821180617d1d5750617d1c67cc01463c19fc8ba960c01b61c909565b5b8015617d395750617d3867227034a55ba6c0a760c01b61c910565b5b617d5e5783600081518110617d5157617d5061ed05565b5b6020026020010151617d86565b83600183617d6c919061ef17565b81518110617d7d57617d7c61ed05565b5b60200260200101515b9050617d9c677185030a1f64e21460c01b61bb79565b617db06778bafd4adda4b1c560c01b61bb79565b600060018551617dc0919061ef17565b831080617ddd5750617ddc674f0cebdd4deab5ed60c01b61c909565b5b8015617df95750617df867dc67d8968d02c22460c01b61c910565b5b617e2a578460018651617e0c919061ef17565b81518110617e1d57617e1c61ed05565b5b6020026020010151617e52565b84600184617e38919061ed1b565b81518110617e4957617e4861ed05565b5b60200260200101515b9050617e68672e87edf58ed8962a60c01b61bb79565b617e7c676973514a8df1a1ba60c01b61bb79565b818814158015617e8c5750808814155b159650505050505050617eec565b617eae679ca04a6f8e3f0a1060c01b61bb79565b8080600101915050617c6f565b50617ed067aa325e51b176b97060c01b61bb79565b617ee4674634c9165e74839160c01b61bb79565b600093505050505b92915050565b617efa61e392565b617f0e678d336dd70b28d88c60c01b61bb79565b617f22670ef5ff68e8bedddd60c01b61bb79565b617f366787db0b959c67689d60c01b61bb79565b600080837bffffffffffffffffffffffffffffffffffffffffffffffffffffffff19167bffffffffffffffffffffffffffffffffffffffffffffffffffffffff191681526020019081526020016000206040518060400160405290816000820160009054906101000a900460e01b7bffffffffffffffffffffffffffffffffffffffffffffffffffffffff19167bffffffffffffffffffffffffffffffffffffffffffffffffffffffff191681526020016001820180548060200260200160405190810160405280929190818152602001828054801561803557602002820191906000526020600020905b815481526020019060010190808311618021575b5050505050815250509050919050565b600061805b67e296759e01e3a0af60c01b61158d565b61806f67eee852c8bb52c3aa60c01b61158d565b61808367f798c6bc165571fe60c01b61158d565b601854601754601954618096919061ed1b565b6180a0919061ef17565b905090565b6180b9671ff62f411d86ce4b60c01b61158d565b6180cd67093531622579856a60c01b61158d565b6180e167cbf888a7d916093b60c01b61158d565b6180f567c0db9982ac228f0c60c01b61158d565b602560009054906101000a900473ffffffffffffffffffffffffffffffffffffffff1673ffffffffffffffffffffffffffffffffffffffff163373ffffffffffffffffffffffffffffffffffffffff16146181a45761815e6783c7adeaa6f44cd660c01b61158d565b618172673c387d9205b2a18560c01b61158d565b6040517f82b4290000000000000000000000000000000000000000000000000000000000815260040160405180910390fd5b6181b86717ba79221d29a15160c01b61158d565b6181cc67ef191f0fa528152960c01b61158d565b6181e067607163613dd6bc2260c01b61158d565b6181f4679383bcf8544719e160c01b61158d565b618208670a2152e886b440fc60c01b61158d565b61821c67e8edd71534e0ca5760c01b61158d565b6000601e60009054906101000a900473ffffffffffffffffffffffffffffffffffffffff1673ffffffffffffffffffffffffffffffffffffffff16631ee4d0bc846040518263ffffffff1660e01b8152600401618279919061e9e3565b602060405180830381865afa158015618296573d6000803e3d6000fd5b505050506040513d601f19601f820116820180604052508101906182ba919061efb7565b90506182d0671b0f7ebca8a9469260c01b61158d565b6182e4673b82a328ecb53ff560c01b61158d565b6182ee818361c91b565b505050565b61830767a28674acf1a6b67b60c01b61158d565b61831b67819a3c6447273cd260c01b61158d565b61832f67c23cea195263a6c260c01b61158d565b618343671fb21d9e2d10e15360c01b61158d565b60003a036183a55761835f67e55dc19b3fdff44e60c01b61158d565b6183736762b55f3e83a5ae8f60c01b61158d565b6040517fe661aed000000000000000000000000000000000000000000000000000000000815260040160405180910390fd5b6183b9677f6d53ee642f87fc60c01b61158d565b6183cd678de8bbee4fc831c260c01b61158d565b6183e1677cfc482ca5924b8160c01b61158d565b6183f5671aae9304424d993160c01b61158d565b6183fd61cb0c565b618411673b9b26c974f37e9660c01b61158d565b618425671d417b8a2dd02a8160c01b61158d565b61843967695a39c96317877760c01b61158d565b61844d67327863730e389e7a60c01b61158d565b600033905061846667bd54627bce930ebf60c01b61158d565b61847a67fe524f98b1c827b760c01b61158d565b601260008373ffffffffffffffffffffffffffffffffffffffff1673ffffffffffffffffffffffffffffffffffffffff16815260200190815260200160002060008273ffffffffffffffffffffffffffffffffffffffff1673ffffffffffffffffffffffffffffffffffffffff16815260200190815260200160002054601654116185665761851367136b8b0d0e21a90c60c01b61158d565b61852767f2604b31ef86298860c01b61158d565b81816040517f5831a95800000000000000000000000000000000000000000000000000000000815260040161855d92919061f1c3565b60405180910390fd5b61857a676c8ccf99aaa5cd4560c01b61158d565b61858e673cafadd94acfe56760c01b61158d565b6185a267c2f38464e7123e9b60c01b61158d565b6185aa619901565b618608576185c2679a9bfd4bc79e720660c01b61158d565b6185d667ae131f012181354060c01b61158d565b6040517f15e34e0500000000000000000000000000000000000000000000000000000000815260040160405180910390fd5b61861c67fc6636ca83a7d9fd60c01b61158d565b6186306778bc40013f89ee5560c01b61158d565b618644679807e8b751f0d75e60c01b61158d565b6000601060008473ffffffffffffffffffffffffffffffffffffffff1673ffffffffffffffffffffffffffffffffffffffff16815260200190815260200160002060008373ffffffffffffffffffffffffffffffffffffffff1673ffffffffffffffffffffffffffffffffffffffff1681526020019081526020016000205490506186d967f6d833ac3b8fdfd360c01b61158d565b6186ed676f883ae0947efc3660c01b61158d565b6000810361874f57618709675b7be52b680b785060c01b61158d565b61871d67b2267794561bff7260c01b61158d565b6040517f3ca0029d00000000000000000000000000000000000000000000000000000000815260040160405180910390fd5b618763672fdd2e14b3562a2e60c01b61158d565b6187776769396d3994e2c30660c01b61158d565b6000601060008573ffffffffffffffffffffffffffffffffffffffff1673ffffffffffffffffffffffffffffffffffffffff16815260200190815260200160002060008473ffffffffffffffffffffffffffffffffffffffff1673ffffffffffffffffffffffffffffffffffffffff1681526020019081526020016000208190555061880d67e9dd1ceb3fc19e7e60c01b61158d565b80601160008573ffffffffffffffffffffffffffffffffffffffff1673ffffffffffffffffffffffffffffffffffffffff16815260200190815260200160002054618858919061ef17565b601160008573ffffffffffffffffffffffffffffffffffffffff1673ffffffffffffffffffffffffffffffffffffffff168152602001908152602001600020819055506188af6772ee821e746bf62a60c01b61158d565b6188c3672a73ca6608751df060c01b61158d565b6000601460008573ffffffffffffffffffffffffffffffffffffffff1673ffffffffffffffffffffffffffffffffffffffff16815260200190815260200160002060008473ffffffffffffffffffffffffffffffffffffffff1673ffffffffffffffffffffffffffffffffffffffff16815260200190815260200160002054036189925761895b6789975cdd25439c2f60c01b61158d565b61896f677126213b23a9f33160c01b61158d565b61898367b0d4b2f80ca8d9b160c01b61158d565b61898d838361cb63565b6189a7565b6189a6675488a1693569961e60c01b61158d565b5b6189bb67e6e96be27afbcaa960c01b61158d565b6189cf6725e7e4788ba8893860c01b61158d565b6189d9828261be4f565b6189ed678027d0ce4fdd1d6760c01b61158d565b618a0167345135824084436f60c01b61158d565b6016548273ffffffffffffffffffffffffffffffffffffffff168473ffffffffffffffffffffffffffffffffffffffff167ff380b0bc887e00f5b50d3c9d4eaaf5c9a0afd97b956316b995159384c4ede9b384604051618a61919061e3e8565b60405180910390a45050618a7361cef8565b50565b618a8a67414df2d3ba4fd06260c01b61158d565b618a9e67c19e59382a6deb9b60c01b61158d565b618ab26746dcd2b9209945fd60c01b61158d565b618ac6674f1562aedd3c6fe660c01b61158d565b601e60009054906101000a900473ffffffffffffffffffffffffffffffffffffffff1673ffffffffffffffffffffffffffffffffffffffff166356b54bae6040518163ffffffff1660e01b8152600401602060405180830381865afa158015618b33573d6000803e3d6000fd5b505050506040513d601f19601f82011682018060405250810190618b57919061efb7565b73ffffffffffffffffffffffffffffffffffffffff163373ffffffffffffffffffffffffffffffffffffffff1614618be357618b9d6760a418cd05179f2760c01b61158d565b618bb167b231bf47c8e5b2d160c01b61158d565b6040517f82b4290000000000000000000000000000000000000000000000000000000000815260040160405180910390fd5b618bf767ba4a032948b5ed1660c01b61158d565b618c0b67968327826dda860660c01b61158d565b618c1f67b4d9270b3beb8fa660c01b61158d565b618c33676fd005beae21757c60c01b61158d565b618c47670d2e182f76cc490e60c01b61158d565b618c5b67c572c3d7506b843160c01b61158d565b60006021600084815260200190815260200160002060008373ffffffffffffffffffffffffffffffffffffffff1673ffffffffffffffffffffffffffffffffffffffff1681526020019081526020016000205414618cf457618cc7673018add34977a8d060c01b61158d565b618cdb675a1f3ad53777135c60c01b61158d565b618cef67d9d76fb0f37df8de60c01b61158d565b618f4a565b618d0867d1e4d942e0a6f6d560c01b61158d565b618d1c67c66534db33be6efb60c01b61158d565b618d3067c425c6376a90539460c01b61158d565b6000601c60008373ffffffffffffffffffffffffffffffffffffffff1673ffffffffffffffffffffffffffffffffffffffff168152602001908152602001600020549050618d88671ea813d91779414f60c01b61158d565b618d9c67ee439c1292eacf5d60c01b61158d565b60008103618de657618db867372581ab44fb39f360c01b61158d565b618dcc670c01ddbd1c82fa1b60c01b61158d565b618de067dd56d917a70cec5460c01b61158d565b50618f4a565b618dfa6766dc73291d92554960c01b61158d565b618e0e67b800f00f9a1e7e9660c01b61158d565b806021600085815260200190815260200160002060008473ffffffffffffffffffffffffffffffffffffffff1673ffffffffffffffffffffffffffffffffffffffff16815260200190815260200160002081905550618e7767377196278027706a60c01b61158d565b601460008373ffffffffffffffffffffffffffffffffffffffff1673ffffffffffffffffffffffffffffffffffffffff16815260200190815260200160002060008373ffffffffffffffffffffffffffffffffffffffff1673ffffffffffffffffffffffffffffffffffffffff168152602001908152602001600020546022600085815260200190815260200160002060008473ffffffffffffffffffffffffffffffffffffffff1673ffffffffffffffffffffffffffffffffffffffff16815260200190815260200160002081905550505b5050565b6060618f64671b43e3994d13be1860c01b61158d565b618f78674d54bf503f50262360c01b61158d565b618f8c6795eb137ecfc3bc6060c01b61158d565b618f96600561a467565b905090565b600e5481565b60116020528060005260406000206000915090505481565b6060618fcf67845742fb767a38a360c01b61158d565b618fe367620df29e13a6b4cb60c01b61158d565b618ff767d1a026d304bc442f60c01b61158d565b619001600361a467565b905090565b601e60009054906101000a900473ffffffffffffffffffffffffffffffffffffffff1681565b80601c60008473ffffffffffffffffffffffffffffffffffffffff1673ffffffffffffffffffffffffffffffffffffffff168152602001908152602001600020819055505050565b80602660006101000a81548173ffffffffffffffffffffffffffffffffffffffff021916908373ffffffffffffffffffffffffffffffffffffffff16021790555050565b6010602052816000526040600020602052806000526040600020600091509150505481565b80601e60006101000a81548173ffffffffffffffffffffffffffffffffffffffff021916908373ffffffffffffffffffffffffffffffffffffffff16021790555050565b619135674fb9121f8c85306a60c01b61158d565b61914967819a3c6447273cd260c01b61158d565b61915d67c23cea195263a6c260c01b61158d565b619171671fb21d9e2d10e15360c01b61158d565b60003a036191d35761918d67e55dc19b3fdff44e60c01b61158d565b6191a16762b55f3e83a5ae8f60c01b61158d565b6040517fe661aed000000000000000000000000000000000000000000000000000000000815260040160405180910390fd5b6191e7677f6d53ee642f87fc60c01b61158d565b6191fb678de8bbee4fc831c260c01b61158d565b61920f67f12ec0ab4f52518960c01b61158d565b61922367d68a31f8fe97b8b160c01b61158d565b61923767f1065054c95a4ef960c01b61158d565b61924b67914f9c66f0c4561a60c01b61158d565b6000339050619264670fcc88378044fbec60c01b61158d565b61927867cfa76b51612e7ec960c01b61158d565b6000601e60009054906101000a900473ffffffffffffffffffffffffffffffffffffffff1673ffffffffffffffffffffffffffffffffffffffff1662535175836040518263ffffffff1660e01b81526004016192d4919061e9e3565b602060405180830381865afa1580156192f1573d6000803e3d6000fd5b505050506040513d601f19601f82011682018060405250810190619315919061efb7565b905061932b674b12042c94ae433b60c01b61158d565b61933f67458247728a500cc260c01b61158d565b60006016541480156193e95750601e60009054906101000a900473ffffffffffffffffffffffffffffffffffffffff1673ffffffffffffffffffffffffffffffffffffffff1663facd743b826040518263ffffffff1660e01b81526004016193a7919061e9e3565b602060405180830381865afa1580156193c4573d6000803e3d6000fd5b505050506040513d601f19601f820116820180604052508101906193e8919061ef63565b5b156194535761940267903ca3d958ebc79760c01b61158d565b61941667b4e033bf280690ff60c01b61158d565b816040517f7ae3e5a000000000000000000000000000000000000000000000000000000000815260040161944a919061e9e3565b60405180910390fd5b61946767c2c8ab62a51bf63460c01b61158d565b61947b672c63d6bea06887f460c01b61158d565b61948f677e222ea43713dd9760c01b61158d565b6194988261a488565b5050565b6194b067c2fd9f10f69f56eb60c01b61158d565b601e60009054906101000a900473ffffffffffffffffffffffffffffffffffffffff1673ffffffffffffffffffffffffffffffffffffffff163373ffffffffffffffffffffffffffffffffffffffff161415801561955c5750602660009054906101000a900473ffffffffffffffffffffffffffffffffffffffff1673ffffffffffffffffffffffffffffffffffffffff163373ffffffffffffffffffffffffffffffffffffffff1614155b15619593576040517f82b4290000000000000000000000000000000000000000000000000000000000815260040160405180910390fd5b6195a767d661f63d9f3238ea60c01b61158d565b6195bb679aa2d8fc2353652e60c01b61158d565b6195cf6754a5f491094dfc7f60c01b61158d565b601660008154809291906195e29061f1f5565b91905055506195fb6748fa814df8b1021a60c01b61158d565b6000601b81905550565b610bb881565b600061961561cf11565b905090565b61962261a610565b600073ffffffffffffffffffffffffffffffffffffffff168173ffffffffffffffffffffffffffffffffffffffff16036196945760006040517f1e4fbdf700000000000000000000000000000000000000000000000000000000815260040161968b919061e9e3565b60405180910390fd5b61969d8161c4fa565b50565b6196b4671925871822c8d82460c01b61158d565b6196c867819a3c6447273cd260c01b61158d565b6196dc67c23cea195263a6c260c01b61158d565b6196f0671fb21d9e2d10e15360c01b61158d565b60003a036197525761970c67e55dc19b3fdff44e60c01b61158d565b6197206762b55f3e83a5ae8f60c01b61158d565b6040517fe661aed000000000000000000000000000000000000000000000000000000000815260040160405180910390fd5b619766677f6d53ee642f87fc60c01b61158d565b61977a678de8bbee4fc831c260c01b61158d565b61978e674a123b851b37642d60c01b61158d565b6197a2676fb693f591250b9a60c01b61158d565b6197aa61cb0c565b6197be6793c63d466e690b7060c01b61158d565b6197d2673e3abf927ede772e60c01b61158d565b6197e6672f1484002185b05c60c01b61158d565b6197fa67c7063466b5f7cacb60c01b61158d565b600033905061981367c0425c874f89d6dc60c01b61158d565b619827671b22e600ac871a9e60c01b61158d565b61983283828461a6a9565b619846672bd5dda74e0e466560c01b61158d565b61985a674d2b4dbf3f97a77560c01b61158d565b619864818361be4f565b619878677b85fa1c516e337160c01b61158d565b61988c6701a4e7a82d94af4460c01b61158d565b6016548173ffffffffffffffffffffffffffffffffffffffff168473ffffffffffffffffffffffffffffffffffffffff167fa7c0f0cac6bd4d18042007706c84a8abe823751cf289b69c01e83eef7b5915c7856040516198ec919061e3e8565b60405180910390a4506198fd61cef8565b5050565b600061991767d1f7990a4a83ccc760c01b61158d565b61992b67be71e8cb9860d7fd60c01b61158d565b61993f6788e2e6356ad5dbce60c01b61158d565b6001905090565b600061995c67efd54c7fb23509f660c01b61158d565b619970675e0b94f28a2f07b160c01b61158d565b6199846726bd8725dab3e50760c01b61158d565b61999882600161c5f990919063ffffffff16565b80156199b457506199b3671536ee593b40855260c01b61a697565b5b806199eb57506199ce82600361c5f990919063ffffffff16565b80156199ea57506199e9676877da346e37d7f960c01b61a697565b5b5b9050919050565b60136020528060005260406000206000915090505481565b619a138161cf1a565b50565b60007ff0c57e16840df040f15088dc2f81fe391c3923bec73e23a9662efc9c229c6a00905090565b619a5267b0af8fef10363c3360c01b61158d565b619a666707e3a14e04f87f9560c01b61158d565b619a7a67b17499d3c21b635560c01b61158d565b60008160c00135148015619a9e5750619a9d67921758003c63fdf760c01b61a697565b5b80619ace57508061010001358160c0013511158015619acd5750619acc679f6f1fc3e36183de60c01b61a697565b5b5b15619b2d57619ae767f670d6fb2afef4d260c01b61158d565b619afb67550737a3e65ced9860c01b61158d565b6040517fc671116b00000000000000000000000000000000000000000000000000000000815260040160405180910390fd5b619b4167a6a6724b060efa6b60c01b61158d565b619b55673e7547dbadad770b60c01b61158d565b619b6967fd04f09736e9742160c01b61158d565b600081610100013503619bd057619b8a67aae7c7524473268c60c01b61158d565b619b9e677cc9a2d9106ac2b460c01b61158d565b6040517f32154b4700000000000000000000000000000000000000000000000000000000815260040160405180910390fd5b619be467ecd2a0ea5001322e60c01b61158d565b619bf8675971be8f2c3b63e460c01b61158d565b619c0c6724f58d82373f06da60c01b61158d565b60008160e00135148015619c305750619c2f6792bc4f144f918c3160c01b61a697565b5b80619c5f57508060c001358160e0013510158015619c5e5750619c5d67a5c7ab34926603df60c01b61a697565b5b5b15619cbe57619c7867b5f70ab44ccd109f60c01b61158d565b619c8c67969c3075a9da39d060c01b61158d565b6040517f0685efe900000000000000000000000000000000000000000000000000000000815260040160405180910390fd5b619cd2678057b4ebdbba2cd560c01b61158d565b619ce6675e38b4e9aeb8b1eb60c01b61158d565b619cfa672a27309e98195ae560c01b61158d565b600073ffffffffffffffffffffffffffffffffffffffff16816000016020810190619d25919061e5fb565b73ffffffffffffffffffffffffffffffffffffffff1603619d9a57619d5467233226614ca6716960c01b61158d565b619d686748f190b55d0d4f9860c01b61158d565b6040517fd92e233d00000000000000000000000000000000000000000000000000000000815260040160405180910390fd5b619dae67d517cd933220ef6660c01b61158d565b619dc267ff9f554e130c547260c01b61158d565b619dd6678c2bc3a5c631037160c01b61158d565b6000818060400190619de8919061ec78565b905003619e4957619e0367fd38977f59d8b16060c01b61158d565b619e1767c72e182fcdb3e6f760c01b61158d565b6040517fb93449da00000000000000000000000000000000000000000000000000000000815260040160405180910390fd5b619e5d6762be84e9a64d63e460c01b61158d565b619e7167acd96c96513a70b360c01b61158d565b619e8567bcd628dd3df7aeb760c01b61158d565b60008160600135148015619ea95750619ea867c39d3aa8c51731b560c01b61a697565b5b80619ed4575060008160800135148015619ed35750619ed26753fc291ff0bbbe3560c01b61a697565b5b5b15619f4857619eed672a21e418e055204e60c01b61158d565b619f016774b3d3827f62c69a60c01b61158d565b806080013581606001356040517fc666e7c2000000000000000000000000000000000000000000000000000000008152600401619f3f92919061efde565b60405180910390fd5b619f5c6730af98772ebd500860c01b61158d565b619f7067518b87a962d1c00a60c01b61158d565b619f8467288f46721a5856a360c01b61158d565b80608001358160a0013511619fed57619fa76790a41463533cff6d60c01b61158d565b619fbb67b5b84cc8c29946e160c01b61158d565b6040517f1c6d3b1500000000000000000000000000000000000000000000000000000000815260040160405180910390fd5b61a0016733342adc94f5febf60c01b61158d565b50565b61a00c61cf6e565b61a0158161cfae565b50565b61a02061cf6e565b61a02861d034565b565b61a03e67f58210dbed0e15ac60c01b61158d565b61a052670de2119c0cdf3b4d60c01b61158d565b61a06667ae849c07e6666c3060c01b61158d565b61a06f82616606565b61a1775761a08767b1252c1b1459254760c01b61158d565b61a09b67c7297c91d1e9e03d60c01b61158d565b61a0af676121f824655f3a9f60c01b61158d565b61a0c382600161d05590919063ffffffff16565b5061a0d867831fec40ea22ef6a60c01b61158d565b61a0ec67ed25c9634abd427c60c01b61158d565b61a0f461cf11565b61a0fe600161d085565b111561a15e5761a1186718023818a76050fe60c01b61158d565b61a12c67c4affd91a01a9ef960c01b61158d565b6040517fe637367400000000000000000000000000000000000000000000000000000000815260040160405180910390fd5b61a172678c96fec3c648659560c01b61158d565b61a18c565b61a18b676e4dfe86c7fc4a4860c01b61158d565b5b61a1a067337a8f7141f92ec560c01b61158d565b61a1b46701763d4c906a171f60c01b61158d565b61a1c882600361bc4f90919063ffffffff16565b5061a1dd67a1fe94e5b4fd9c7160c01b61158d565b61a1f167c9d1cd61af554c6460c01b61158d565b801561a2415761a20b670d3e89f7db6ffc2660c01b61158d565b61a21f677248c99d3f8bc29c60c01b61158d565b61a23367cdb15eb62a84368560c01b61158d565b61a23c8261d09a565b61a256565b61a2556784dd63aaeca2c91a60c01b61158d565b5b5050565b61a26e678ff7dbd1e0b61f4760c01b61158d565b61a2826773a787a1f806686060c01b61158d565b61a296678e7ad6c2fd44471560c01b61158d565b61a2aa81600561d05590919063ffffffff16565b5061a2bf67c741beb73a92958060c01b61158d565b61a2d367d3fd3b33fa438ec360c01b61158d565b61a2dc8161d3c2565b50565b61a2f367c79e4b348e6f39f460c01b61bb79565b61a2fb61cf6e565b61a30f67b4a3fa81ec94c0b760c01b61bb79565b61a3236779af0e9eed62f6a360c01b61bb79565b61a337671d2f4cf255f3a3a260c01b61bb79565b6040518060400160405280837bffffffffffffffffffffffffffffffffffffffffffffffffffffffff1916815260200182815250600080857bffffffffffffffffffffffffffffffffffffffffffffffffffffffff19167bffffffffffffffffffffffffffffffffffffffffffffffffffffffff1916815260200190815260200160002060008201518160000160006101000a81548163ffffffff021916908360e01c0217905550602082015181600101908051906020019061a3fb92919061e324565b5090505061a4136761754190fdc3bd4b60c01b61bb79565b61a42767ff18751ae25d0b5f60c01b61bb79565b7f3665bf9cd0ba4ddceeec259e21dcf8a4510f3b1130bd42e950828e69d85408ba83838360405161a45a9392919061f213565b60405180910390a1505050565b6060600061a4778360000161d95e565b905060608190508092505050919050565b61a49c67c58a5df3038e72cc60c01b61158d565b61a4b067ab160c212c93414a60c01b61158d565b61a4c467fd8c9d5c35cd06b060c01b61158d565b61a4d881600161bc4f90919063ffffffff16565b5061a4ed67e73fc4edbc49b25960c01b61158d565b61a501675a5109256e25d51d60c01b61158d565b61a50a8161bb7c565b1561a5655761a52367f5660cef1417d59f60c01b61158d565b61a53767150d956f0583a7cd60c01b61158d565b61a54b670d8eb696947fc1c160c01b61158d565b61a55f81600361bc4f90919063ffffffff16565b5061a5ab565b61a579679c9033be8190cc3660c01b61158d565b61a58d676bc2b0bf8bd14a8860c01b61158d565b61a5a1673050752388e02f8260c01b61158d565b61a5aa8161cf1a565b5b61a5bf679e3290344fa2496560c01b61158d565b61a5d367902c3b3a221131c860c01b61158d565b61a5dc8161d3c2565b61a5f067692975f1e11095e260c01b61158d565b61a6046718c96b96cd73484760c01b61158d565b61a60d8161d9ba565b50565b61a61861da0d565b73ffffffffffffffffffffffffffffffffffffffff1661a636615deb565b73ffffffffffffffffffffffffffffffffffffffff161461a6955761a65961da0d565b6040517f118cdaa700000000000000000000000000000000000000000000000000000000815260040161a68c919061e9e3565b60405180910390fd5b565b600060019050919050565b6000919050565b61a6bd67a737b8386207254560c01b61158d565b61a6d167a6f26c5cf2d0335f60c01b61158d565b61a6e567d0a7afc29d7066c160c01b61158d565b600073ffffffffffffffffffffffffffffffffffffffff168373ffffffffffffffffffffffffffffffffffffffff160361a7735761a72d67d5c45265fc5f906060c01b61158d565b61a74167e1608922684cc99c60c01b61158d565b6040517fd92e233d00000000000000000000000000000000000000000000000000000000815260040160405180910390fd5b61a78767f8528f1d1f21121560c01b61158d565b61a79b6771430030413ed0e760c01b61158d565b61a7af67ac2115d0b6f3ab1760c01b61158d565b6000810361a8115761a7cb6767318aa08f13b6cc60c01b61158d565b61a7df67d6c45c056b32d24260c01b61158d565b6040517f3ca0029d00000000000000000000000000000000000000000000000000000000815260040160405180910390fd5b61a82567697e1cff7a55420960c01b61158d565b61a839679fd0cc59b92feedd60c01b61158d565b61a84d67d00715dcb5ce96c360c01b61158d565b600061a8598484614f33565b905061a86f671d57a8a35ec84c1f60c01b61158d565b61a88367bc84d02798df403260c01b61158d565b8082111561a8f25761a89f67faf02a1e505728f560c01b61158d565b61a8b3675a37db263cf9c2ab60c01b61158d565b80826040517f2de4882100000000000000000000000000000000000000000000000000000000815260040161a8e992919061efde565b60405180910390fd5b61a90667a61ce92b4489b14760c01b61158d565b61a91a672d3a1e29c766aa5b60c01b61158d565b61a92e674762e1b361521faa60c01b61158d565b600082601460008773ffffffffffffffffffffffffffffffffffffffff1673ffffffffffffffffffffffffffffffffffffffff16815260200190815260200160002060008673ffffffffffffffffffffffffffffffffffffffff1673ffffffffffffffffffffffffffffffffffffffff1681526020019081526020016000205461a9b8919061ef17565b905061a9ce67b0f3a99e0436bc2260c01b61158d565b61a9e2678c586e28df31978b60c01b61158d565b60008473ffffffffffffffffffffffffffffffffffffffff168673ffffffffffffffffffffffffffffffffffffffff16148061aa2e575061aa2d67ec26b36c0c71230460c01b61a6a2565b5b801561aa4a575061aa4967490ff878a43bc1df60c01b61a697565b5b61aa5657600e5461aa5a565b600d545b905061aa70679fe66957284cdfc860c01b61158d565b61aa8467d8e32d762bf3dc1f60c01b61158d565b6000821415801561aa9457508082105b1561ab025761aaad677f1437a44057338d60c01b61158d565b61aac167d06d464738f6755160c01b61158d565b8585856040517f9e612d5700000000000000000000000000000000000000000000000000000000815260040161aaf99392919061f249565b60405180910390fd5b61ab16672d1ba2fe4533e97260c01b61158d565b61ab2a67f453cb20623b353660c01b61158d565b61ab3e6741849e24fa91c78960c01b61158d565b8573ffffffffffffffffffffffffffffffffffffffff168573ffffffffffffffffffffffffffffffffffffffff161461ac855761ab8567db571fdf833786fe60c01b61158d565b61ab99672bb4593f177a33fa60c01b61158d565b61abad67a6b407f23d8472db60c01b61158d565b6000601e60009054906101000a900473ffffffffffffffffffffffffffffffffffffffff1673ffffffffffffffffffffffffffffffffffffffff1662535175886040518263ffffffff1660e01b815260040161ac09919061e9e3565b602060405180830381865afa15801561ac26573d6000803e3d6000fd5b505050506040513d601f19601f8201168201806040525081019061ac4a919061efb7565b905061ac6067a880dbdf1f1968bd60c01b61158d565b61ac7467eab9ccb17b3037c960c01b61158d565b61ac7f87828861da15565b5061ac9a565b61ac99679407bb1f0fe84ee160c01b61158d565b5b61acae679a6b54ac73169fa560c01b61158d565b81601460008873ffffffffffffffffffffffffffffffffffffffff1673ffffffffffffffffffffffffffffffffffffffff16815260200190815260200160002060008773ffffffffffffffffffffffffffffffffffffffff1673ffffffffffffffffffffffffffffffffffffffff1681526020019081526020016000208190555061ad4367093a6fac533d78e960c01b61158d565b61ad57675ff4cf7609893a2f60c01b61158d565b600061ad6387876154a2565b905061ad796781a14753312c4e1b60c01b61158d565b848110158061ad98575061ad9767fdf6ba204b2f81b160c01b61a6a2565b5b801561adb4575061adb367c9aaf053a3e4072260c01b61a697565b5b61adbf57600061adcc565b848161adcb919061ef17565b5b600c60008973ffffffffffffffffffffffffffffffffffffffff1673ffffffffffffffffffffffffffffffffffffffff16815260200190815260200160002060008873ffffffffffffffffffffffffffffffffffffffff1673ffffffffffffffffffffffffffffffffffffffff168152602001908152602001600020600060165481526020019081526020016000208190555061ae73670d0bcfa79e51c84c60c01b61158d565b84601c60008973ffffffffffffffffffffffffffffffffffffffff1673ffffffffffffffffffffffffffffffffffffffff168152602001908152602001600020600082825461aec2919061ef17565b9250508190555061aedd67a8efa7cde2d9c31d60c01b61158d565b84601d600082825461aeef919061ef17565b9250508190555061af0a67206da5c8ad0062b260c01b61158d565b61af1e671dd18e652e02b17e60c01b61158d565b6000830361af715761af3a671c6bfa9f814c00e560c01b61158d565b61af4e67aef62f9edc96e06760c01b61158d565b61af62670c88ef5b112d89e660c01b61158d565b61af6c878761cb63565b61af86565b61af85676f01223e4cadfe9960c01b61158d565b5b61af9a67b6ec0171cfbd3d9360c01b61158d565b61afae67d982e4acb41ecef660c01b61158d565b61afb78761c320565b50505050505050565b61afd467f49b93bfc94230be60c01b61158d565b61afe8674c352e7c99c65c6460c01b61158d565b61affc67d2e4853cd06ea83560c01b61158d565b600073ffffffffffffffffffffffffffffffffffffffff168373ffffffffffffffffffffffffffffffffffffffff160361b08a5761b04467c4e90cb693a8658260c01b61158d565b61b05867feda06b6a1f67f5d60c01b61158d565b6040517fd92e233d00000000000000000000000000000000000000000000000000000000815260040160405180910390fd5b61b09e676702a1af63ce545660c01b61158d565b61b0b267e1e6b4b924248d5160c01b61158d565b61b0c66736576c509eee531d60c01b61158d565b6000601e60009054906101000a900473ffffffffffffffffffffffffffffffffffffffff1673ffffffffffffffffffffffffffffffffffffffff1662535175856040518263ffffffff1660e01b815260040161b122919061e9e3565b602060405180830381865afa15801561b13f573d6000803e3d6000fd5b505050506040513d601f19601f8201168201806040525081019061b163919061efb7565b905061b17967297b12b49456c5c460c01b61158d565b61b18d6714e6887508f619a460c01b61158d565b600073ffffffffffffffffffffffffffffffffffffffff168173ffffffffffffffffffffffffffffffffffffffff160361b2265761b1d5677f32b553ebb3619960c01b61158d565b61b1e9674bc2c02e8e67c24960c01b61158d565b836040517f4ce08c3200000000000000000000000000000000000000000000000000000000815260040161b21d919061e9e3565b60405180910390fd5b61b23a67fd94ebc75e41c29260c01b61158d565b61b24e67dd9d3efe6d6fe14960c01b61158d565b61b26267eb0f5f2accdf8e9260c01b61158d565b6000820361b2d15761b27e67a5f21c5229326c7960c01b61158d565b61b29267405b3afe52c7ab5b60c01b61158d565b83836040517fe59f5c3900000000000000000000000000000000000000000000000000000000815260040161b2c892919061f065565b60405180910390fd5b61b2e567aab9aa8e1ec9d12560c01b61158d565b61b2f96713dbf6cf5b7e982d60c01b61158d565b61b30d67f264dd537f614df960c01b61158d565b602060008573ffffffffffffffffffffffffffffffffffffffff1673ffffffffffffffffffffffffffffffffffffffff16815260200190815260200160002060009054906101000a900460ff161561b3c45761b373678c051ff05c6c047b60c01b61158d565b61b387672c7ffda109bea2cb60c01b61158d565b836040517f78137eb000000000000000000000000000000000000000000000000000000000815260040161b3bb919061e9e3565b60405180910390fd5b61b3d867308d048e751ce8ec60c01b61158d565b61b3ec673ff6c6f1d7e2bc4160c01b61158d565b61b40067b1ad51a52997740660c01b61158d565b60008473ffffffffffffffffffffffffffffffffffffffff168473ffffffffffffffffffffffffffffffffffffffff1614905061b44767eb66540618e196c360c01b61158d565b61b45b67597bacefd3f5434260c01b61158d565b600083601460008873ffffffffffffffffffffffffffffffffffffffff1673ffffffffffffffffffffffffffffffffffffffff16815260200190815260200160002060008773ffffffffffffffffffffffffffffffffffffffff1673ffffffffffffffffffffffffffffffffffffffff1681526020019081526020016000205461b4e5919061ed1b565b905061b4fb677812f6d00259006060c01b61158d565b61b50f67f9f7ee9a31d4a22260c01b61158d565b600061b525672dba62c067040a3660c01b61158d565b61b53967c1d03a6b72bdf8a460c01b61158d565b821561b5715761b553679f8981e981b7a33560c01b61158d565b61b56767279c7985fc7dacba60c01b61158d565b600d54905061b6c4565b61b58567ecb907689b3ffdc360c01b61158d565b61b5996772a417a1f414acfa60c01b61158d565b600e54905061b5b267888195b3198a4a1660c01b61158d565b61b5c66762997992a11fd22060c01b61158d565b6000601460008973ffffffffffffffffffffffffffffffffffffffff1673ffffffffffffffffffffffffffffffffffffffff16815260200190815260200160002060008973ffffffffffffffffffffffffffffffffffffffff1673ffffffffffffffffffffffffffffffffffffffff168152602001908152602001600020540361b6af5761b65e67cd351bcc2367803160c01b61158d565b61b67267b46ec3f67628d70360c01b61158d565b866040517fcbbeb0bd00000000000000000000000000000000000000000000000000000000815260040161b6a6919061e9e3565b60405180910390fd5b61b6c367f45b6cf51b4b6ad560c01b61158d565b5b61b6d8674ff19ac36191ce9660c01b61158d565b61b6eb662133a1642c196260c01b61158d565b8082101561b75a5761b70767847a4df591b34e9060c01b61158d565b61b71b67c9165c32a73b575c60c01b61158d565b86866040517fe59f5c3900000000000000000000000000000000000000000000000000000000815260040161b75192919061f065565b60405180910390fd5b61b76e67445ecd8fba959d3a60c01b61158d565b61b78267a72aa08e960ab59e60c01b61158d565b61b79667c6977108ea2e00ee60c01b61158d565b600f5485601c60008a73ffffffffffffffffffffffffffffffffffffffff1673ffffffffffffffffffffffffffffffffffffffff1681526020019081526020016000205461b7e4919061ed1b565b111561b8515761b7fe67c7e6435f73d1000a60c01b61158d565b61b81267dc24481dc6f5f14060c01b61158d565b86866040517fb0ac5d0400000000000000000000000000000000000000000000000000000000815260040161b84892919061f065565b60405180910390fd5b61b86567816c5ac772f3923d60c01b61158d565b61b879670cac190876a2cd3c60c01b61158d565b84600c60008973ffffffffffffffffffffffffffffffffffffffff1673ffffffffffffffffffffffffffffffffffffffff16815260200190815260200160002060008873ffffffffffffffffffffffffffffffffffffffff1673ffffffffffffffffffffffffffffffffffffffff16815260200190815260200160002060006016548152602001908152602001600020600082825461b918919061ed1b565b9250508190555061b93367d2a02d8c90bfd24360c01b61158d565b84601c60008973ffffffffffffffffffffffffffffffffffffffff1673ffffffffffffffffffffffffffffffffffffffff168152602001908152602001600020600082825461b982919061ed1b565b9250508190555061b99d677814c23008925de860c01b61158d565b84601d600082825461b9af919061ed1b565b9250508190555061b9ca6721ca25bc3146755160c01b61158d565b61b9de67dd5277b38780b3bd60c01b61158d565b821561ba305761b9f8670f4572eeefdda8b660c01b61158d565b61ba0c6797017e32d945bb1260c01b61158d565b61ba20671dfc37692b4995fb60c01b61158d565b61ba2b87600161a02a565b61baaa565b61ba446781cf7d3545557bf960c01b61158d565b61ba586764d5c1a8689f032d60c01b61158d565b61ba6c673c020354b8d09a3460c01b61158d565b61ba76878761c629565b61ba8a67dae010a9839d11d960c01b61158d565b61ba9e678d75036e4b69d56f60c01b61158d565b61baa987858861da15565b5b61babe676f4f3dd11cb629cd60c01b61158d565b81601460008973ffffffffffffffffffffffffffffffffffffffff1673ffffffffffffffffffffffffffffffffffffffff16815260200190815260200160002060008873ffffffffffffffffffffffffffffffffffffffff1673ffffffffffffffffffffffffffffffffffffffff1681526020019081526020016000208190555061bb536775d29ed46bd9a9b060c01b61158d565b61bb67675dd06ec8aaa53b8a60c01b61158d565b61bb708761c320565b50505050505050565b50565b600061bb926713c1890f1af78cd760c01b61158d565b61bba6678264dc9153bf556c60c01b61158d565b61bbba67ecf853904b7a308060c01b61158d565b6000601c60008473ffffffffffffffffffffffffffffffffffffffff1673ffffffffffffffffffffffffffffffffffffffff1681526020019081526020016000205414801561bc4857506000601160008473ffffffffffffffffffffffffffffffffffffffff1673ffffffffffffffffffffffffffffffffffffffff16815260200190815260200160002054145b9050919050565b600061bc77836000018373ffffffffffffffffffffffffffffffffffffffff1660001b61de58565b905092915050565b61bc9367047a1b78af0071e660c01b61158d565b61bca767079f4da4c9fad50060c01b61158d565b61bcbb6721ec3ca0b2ee922460c01b61158d565b61bd0c81600a60008573ffffffffffffffffffffffffffffffffffffffff1673ffffffffffffffffffffffffffffffffffffffff16815260200190815260200160002061bc4f90919063ffffffff16565b5061bd2167ffb7245e8eaead2360c01b61158d565b61bd3567a282089c49dfa73b60c01b61158d565b6000601060008473ffffffffffffffffffffffffffffffffffffffff1673ffffffffffffffffffffffffffffffffffffffff16815260200190815260200160002060008373ffffffffffffffffffffffffffffffffffffffff1673ffffffffffffffffffffffffffffffffffffffff168152602001908152602001600020541461be045761bdcd6732e908fd1aad489560c01b61158d565b61bde16793a01270e9ed177960c01b61158d565b61bdf567844549537285505260c01b61158d565b61bdff828261df6c565b61be4b565b61be18671b4da504649caf4360c01b61158d565b61be2c67ce4f33ad0194592960c01b61158d565b61be4067600ddf2c4cdbea7b60c01b61158d565b61be4a828261dffe565b5b5050565b61be6367dfdfeb7a55abce6160c01b61e090565b61be776761f3f0049f1c7d9e60c01b61e090565b61be8b673a2d11865c82ba6260c01b61e090565b8047101561beed5761bea7673e3cc30fadd86a0b60c01b61e090565b61bebb6714768395b3bcd0e960c01b61e090565b6040517ff4d678b800000000000000000000000000000000000000000000000000000000815260040160405180910390fd5b61bf016792aabfcece04644660c01b61e090565b61bf1567508cd9553768724a60c01b61e090565b61bf296731c29fce7419230760c01b61e090565b60008273ffffffffffffffffffffffffffffffffffffffff168260405161bf4f9061f282565b60006040518083038185875af1925050503d806000811461bf8c576040519150601f19603f3d011682016040523d82523d6000602084013e61bf91565b606091505b5050905061bfa96765d3253b7b3dc27260c01b61e090565b61bfbd67d80fb7d1a14a129760c01b61e090565b8061c0295761bfd667d38149d84994225960c01b61e090565b61bfea677f1dcc6df667d61d60c01b61e090565b82826040517f1c43b97600000000000000000000000000000000000000000000000000000000815260040161c02092919061ef35565b60405180910390fd5b61c03d6727f915e38bffa7d360c01b61e090565b505050565b600061c058674cabd9803e2a2b0260c01b61158d565b61c06c67eaa32d088120bcec60c01b61158d565b61c080675f737675bda474e860c01b61158d565b6000840361c0cd5761c09c670f4f9d21a0df614d60c01b61158d565b61c0b067cd68fc5f00476e4c60c01b61158d565b61c0c467dd30879e7b753e6a60c01b61158d565b6000905061c319565b61c0e1676e3b5d68524f612a60c01b61158d565b61c0f567f74c414b55c5eeba60c01b61158d565b61c109673070ab2a0eb1edfd60c01b61158d565b83602460008573ffffffffffffffffffffffffffffffffffffffff1673ffffffffffffffffffffffffffffffffffffffff16815260200190815260200160002060008473ffffffffffffffffffffffffffffffffffffffff1673ffffffffffffffffffffffffffffffffffffffff168152602001908152602001600020540361c25d5761c1a067bc4f2b1f3cb0448360c01b61158d565b61c1b46778710004a419648060c01b61158d565b61c1c8675d089e430193997d60c01b61158d565b602360008473ffffffffffffffffffffffffffffffffffffffff1673ffffffffffffffffffffffffffffffffffffffff16815260200190815260200160002060008373ffffffffffffffffffffffffffffffffffffffff1673ffffffffffffffffffffffffffffffffffffffff168152602001908152602001600020600085815260200190815260200160002054905061c319565b61c271679aeaef37fbd3574260c01b61158d565b61c28567a182055d41373acd60c01b61158d565b61c299673edf685547c32b2b60c01b61158d565b601460008473ffffffffffffffffffffffffffffffffffffffff1673ffffffffffffffffffffffffffffffffffffffff16815260200190815260200160002060008373ffffffffffffffffffffffffffffffffffffffff1673ffffffffffffffffffffffffffffffffffffffff1681526020019081526020016000205490505b9392505050565b61c33467f6de9970440f6bc760c01b61158d565b61c34867e1f6ffefaa53081860c01b61158d565b61c35c675adb88588f8e3d4b60c01b61158d565b6000601e60009054906101000a900473ffffffffffffffffffffffffffffffffffffffff1673ffffffffffffffffffffffffffffffffffffffff1662535175836040518263ffffffff1660e01b815260040161c3b8919061e9e3565b602060405180830381865afa15801561c3d5573d6000803e3d6000fd5b505050506040513d601f19601f8201168201806040525081019061c3f9919061efb7565b905061c40f673a9d81277e6f28b260c01b61158d565b61c42367fb9429dc01e8c82e60c01b61158d565b6000602560009054906101000a900473ffffffffffffffffffffffffffffffffffffffff1673ffffffffffffffffffffffffffffffffffffffff1663e5079ddc836040518263ffffffff1660e01b815260040161c480919061e9e3565b602060405180830381865afa15801561c49d573d6000803e3d6000fd5b505050506040513d601f19601f8201168201806040525081019061c4c1919061f28c565b905061c4d76787da804ab5e55ca760c01b61158d565b61c4eb67dfb6e0f034a2fe8660c01b61158d565b61c4f5838261c91b565b505050565b600061c50461c5d1565b905060008160000160009054906101000a900473ffffffffffffffffffffffffffffffffffffffff169050828260000160006101000a81548173ffffffffffffffffffffffffffffffffffffffff021916908373ffffffffffffffffffffffffffffffffffffffff1602179055508273ffffffffffffffffffffffffffffffffffffffff168173ffffffffffffffffffffffffffffffffffffffff167f8be0079c531659141344cd1fd0a4f28419497f9722a3daafe3b4186f6b6457e060405160405180910390a3505050565b60007f9016d09d72d40fdae2fd8ceac6b6234c7706214fd39c1cd1e609a0528c199300905090565b600061c621836000018373ffffffffffffffffffffffffffffffffffffffff1660001b61e093565b905092915050565b61c63d670d94714e1b62b2c160c01b61158d565b61c651677271e018848f3a7660c01b61158d565b61c66567b52f0c03424f9e7260c01b61158d565b61c6b681600a60008573ffffffffffffffffffffffffffffffffffffffff1673ffffffffffffffffffffffffffffffffffffffff16815260200190815260200160002061d05590919063ffffffff16565b5061c6cb6768c6ab8ab8ac89c860c01b61158d565b61c6df67d468008b99bc4e5860c01b61158d565b61c6e9828261dffe565b5050565b600061c703679e1fb7c1345f6d7560c01b61bb79565b61c717676a464d35bf2f530e60c01b61bb79565b61c72b67bf3100cc1e8b9dfe60c01b61bb79565b600082604051602401604051602081830303815290604052907bffffffffffffffffffffffffffffffffffffffffffffffffffffffff19166020820180517bffffffffffffffffffffffffffffffffffffffffffffffffffffffff8381831617835250505050905061c7a76796628452cad12c7f60c01b61bb79565b61c7bb675ab273453a552a6660c01b61bb79565b6000803073ffffffffffffffffffffffffffffffffffffffff168360405161c7e3919061f2a8565b600060405180830381855afa9150503d806000811461c81e576040519150601f19603f3d011682016040523d82523d6000602084013e61c823565b606091505b509150915061c83c67ddcfe0b4c19fd84c60c01b61bb79565b61c85067a914dc00efc72af160c01b61bb79565b8161c8af5761c86967cc0b2dfba033c08760c01b61bb79565b61c87d673b33da3d059e2f5160c01b61bb79565b6040517fbf75613600000000000000000000000000000000000000000000000000000000815260040160405180910390fd5b61c8c3670c45fced65fbfda160c01b61bb79565b61c8d76783c55538565e133160c01b61bb79565b61c8eb671651102527c6e0d860c01b61bb79565b8080602001905181019061c8ff919061f28c565b9350505050919050565b6000919050565b600060019050919050565b61c92f67eca7224c3e5cad3360c01b61158d565b61c94367567032d7efe3957d60c01b61158d565b61c957672960ae717447627660c01b61158d565b60008061c9638461e0b6565b9150915061c97b67c080ba0ec5f649fd60c01b61158d565b61c98f6733499bb24e9a346660c01b61158d565b8161c9c35761c9a867de7de02db33750a060c01b61158d565b61c9bc67337f05b357666d4660c01b61158d565b505061cb08565b61c9d7677e89bd72663a722f60c01b61158d565b61c9eb67cfbc4725e8890b7c60c01b61158d565b61c9ff6774dc84cb421d35a060c01b61158d565b60006008828154811061ca155761ca1461ed05565b5b9060005260206000200154905061ca3667be31cb26fda55c8160c01b61158d565b61ca4a671cc5cbfa07e3e57d60c01b61158d565b600084601c60008873ffffffffffffffffffffffffffffffffffffffff1673ffffffffffffffffffffffffffffffffffffffff1681526020019081526020016000205461ca97919061ece3565b905061caad67a45d0590ba5f0e8960c01b61158d565b806008848154811061cac25761cac161ed05565b5b906000526020600020018190555061cae467914d6d0ba62840f260c01b61158d565b808260095461caf3919061ef17565b61cafd919061ed1b565b600981905550505050505b5050565b600061cb1661e25b565b9050600281600001540361cb56576040517f3ee5aeb500000000000000000000000000000000000000000000000000000000815260040160405180910390fd5b6002816000018190555050565b61cb77672626ccaf102ce45460c01b61158d565b61cb8b675376dc9b719d497e60c01b61158d565b61cb9f67a5b2e0d1600a65eb60c01b61158d565b8173ffffffffffffffffffffffffffffffffffffffff168173ffffffffffffffffffffffffffffffffffffffff160361ce0c5761cbe667e5fa5c648a5518d360c01b61158d565b61cbfa678c09c4fe520bf1f760c01b61158d565b61cc0e67abc0a437f57dc19260c01b61158d565b6000601e60009054906101000a900473ffffffffffffffffffffffffffffffffffffffff1673ffffffffffffffffffffffffffffffffffffffff1662535175846040518263ffffffff1660e01b815260040161cc6a919061e9e3565b602060405180830381865afa15801561cc87573d6000803e3d6000fd5b505050506040513d601f19601f8201168201806040525081019061ccab919061efb7565b905061ccc16773c4840ae7d1653a60c01b61158d565b61ccd567239bbde3e756bc5860c01b61158d565b601e60009054906101000a900473ffffffffffffffffffffffffffffffffffffffff1673ffffffffffffffffffffffffffffffffffffffff1663facd743b826040518263ffffffff1660e01b815260040161cd30919061e9e3565b602060405180830381865afa15801561cd4d573d6000803e3d6000fd5b505050506040513d601f19601f8201168201806040525081019061cd71919061ef63565b1561cdc05761cd8a67b17cd2a2cdc360c060c01b61158d565b61cd9e674c07e71a8e1d0cf460c01b61158d565b61cdb267314d0e083aea854260c01b61158d565b61cdbb8361a25a565b61ce06565b61cdd467609dcfc0197e504060c01b61158d565b61cde86712d11dc751e9368a60c01b61158d565b61cdfc6762a7223790f7bd3360c01b61158d565b61ce058361a488565b5b5061cef4565b61ce2067f0fa161ee85479aa60c01b61158d565b61ce3467e502711f36447e9060c01b61158d565b61ce48674bbb1d9615490dc360c01b61158d565b61ce52828261bc7f565b61ce6667b835ace99d24ad4960c01b61158d565b61ce7a673e296d6f30b9ba3560c01b61158d565b61ce838261bb7c565b1561cede5761ce9c6737db9f4ebb90fe1a60c01b61158d565b61ceb0677faaf48af88edf5860c01b61158d565b61cec46768cf1925990804b060c01b61158d565b61ced882600361bc4f90919063ffffffff16565b5061cef3565b61cef26754881e053ab52cf460c01b61158d565b5b5b5050565b600061cf0261e25b565b90506001816000018190555050565b60006064905090565b61cf2e677d50b1db6cb2a9c360c01b61158d565b61cf426716fd80480fcf531560c01b61158d565b61cf5667c378c4b6a48db5eb60c01b61158d565b61cf6a81600361d05590919063ffffffff16565b5050565b61cf7661e283565b61cfac576040517fd7e6bcf800000000000000000000000000000000000000000000000000000000815260040160405180910390fd5b565b61cfb661cf6e565b600073ffffffffffffffffffffffffffffffffffffffff168173ffffffffffffffffffffffffffffffffffffffff160361d0285760006040517f1e4fbdf700000000000000000000000000000000000000000000000000000000815260040161d01f919061e9e3565b60405180910390fd5b61d0318161c4fa565b50565b61d03c61cf6e565b600061d04661e25b565b90506001816000018190555050565b600061d07d836000018373ffffffffffffffffffffffffffffffffffffffff1660001b61e2a3565b905092915050565b600061d0938260000161e313565b9050919050565b61d0ae67a0b82fe2e2d345e960c01b61158d565b61d0c267288c2d0a64cd8f4d60c01b61158d565b61d0d6670449f76839a35f3c60c01b61158d565b6000601360008373ffffffffffffffffffffffffffffffffffffffff1673ffffffffffffffffffffffffffffffffffffffff16815260200190815260200160002054905061d12d66a0101d06f5930460c01b61158d565b61d1416724e8f4ed8395a12460c01b61158d565b6000600780549050905061d15f676c2d41b57d673c1b60c01b61158d565b61d17367480268fa993786a160c01b61158d565b80821015801561d193575061d19267c2cd5265e908c2c860c01b61a697565b5b8061d22457508273ffffffffffffffffffffffffffffffffffffffff166007838154811061d1c45761d1c361ed05565b5b9060005260206000200160009054906101000a900473ffffffffffffffffffffffffffffffffffffffff1673ffffffffffffffffffffffffffffffffffffffff161415801561d223575061d22267541515ce91936b1f60c01b61a697565b5b5b1561d3775761d23d6773b0b0d9c9f01af760c01b61158d565b61d251671f359c1a4057ae9c60c01b61158d565b80601360008573ffffffffffffffffffffffffffffffffffffffff1673ffffffffffffffffffffffffffffffffffffffff1681526020019081526020016000208190555061d2a9671ef55aa52a87dc8b60c01b61158d565b61d2bd672287f41fa5c60b7160c01b61158d565b6007839080600181540180825580915050600190039060005260206000200160009091909190916101000a81548173ffffffffffffffffffffffffffffffffffffffff021916908373ffffffffffffffffffffffffffffffffffffffff16021790555061d3346781e07e6355c1a4be60c01b61158d565b61d348672e46b1da4dfc963c60c01b61158d565b60086000908060018154018082558091505060019003906000526020600020016000909190919091505561d38c565b61d38b675a879bd44a1fe26460c01b61158d565b5b61d3a067f0bba2b145451b1160c01b61158d565b61d3b4670eaa87ca18a67c5660c01b61158d565b61d3bd8361d9ba565b505050565b61d3d667fef9225c9b89e6d160c01b61158d565b61d3ea676b7cf579db3b249e60c01b61158d565b61d3fe670f8b3c50fa4540d660c01b61158d565b6008805490506007805490501461d43c5761d42367dd94cf4ce4fc2b1160c01b61158d565b61d43767501c0ed682d034ab60c01b61158d565b61d95b565b61d45067a833c09238aaaa7360c01b61158d565b61d4646774194320b341a9eb60c01b61158d565b61d47867545d30030feddd7e60c01b61158d565b6000601360008373ffffffffffffffffffffffffffffffffffffffff1673ffffffffffffffffffffffffffffffffffffffff16815260200190815260200160002054905061d4d067b05035dde0f0259060c01b61158d565b61d4e467606b84953d49652260c01b61158d565b8060078054905011801561d56157508173ffffffffffffffffffffffffffffffffffffffff166007828154811061d51e5761d51d61ed05565b5b9060005260206000200160009054906101000a900473ffffffffffffffffffffffffffffffffffffffff1673ffffffffffffffffffffffffffffffffffffffff16145b1561d9445761d57a67405cc8e50ec6bb6a60c01b61158d565b61d58e679270a507939f6dea60c01b61158d565b61d5a2671079666292e8ce6060c01b61158d565b6008818154811061d5b65761d5b561ed05565b5b90600052602060002001546009541061d62d5761d5dd67f529c1128eb1d1ea60c01b61158d565b61d5f1670ec0b68cc04e0c6660c01b61158d565b6008818154811061d6055761d60461ed05565b5b90600052602060002001546009600082825461d621919061ef17565b9250508190555061d65e565b61d64167e70d89492d76ba8c60c01b61158d565b61d65567dc862b863b3f4ee760c01b61158d565b60006009819055505b61d6726794d7738115441fe360c01b61158d565b61d6866799286f9d699b1ef860c01b61158d565b6000600160078054905061d69a919061ef17565b905061d6b067342242f0d969e26560c01b61158d565b61d6c46798b81151c13536e460c01b61158d565b60006007828154811061d6da5761d6d961ed05565b5b9060005260206000200160009054906101000a900473ffffffffffffffffffffffffffffffffffffffff16905061d71b6718cc5e247104454260c01b61158d565b806007848154811061d7305761d72f61ed05565b5b9060005260206000200160006101000a81548173ffffffffffffffffffffffffffffffffffffffff021916908373ffffffffffffffffffffffffffffffffffffffff16021790555061d78c67939b66d1d150351260c01b61158d565b6008828154811061d7a05761d79f61ed05565b5b90600052602060002001546008848154811061d7bf5761d7be61ed05565b5b906000526020600020018190555061d7e1673b94f71c08829a5e60c01b61158d565b82601360008373ffffffffffffffffffffffffffffffffffffffff1673ffffffffffffffffffffffffffffffffffffffff1681526020019081526020016000208190555061d83967a8bee9979f55279360c01b61158d565b6000601360008673ffffffffffffffffffffffffffffffffffffffff1673ffffffffffffffffffffffffffffffffffffffff1681526020019081526020016000208190555061d892674c87115b01c7666b60c01b61158d565b61d8a6670554c7a2066499b360c01b61158d565b600780548061d8b85761d8b761f2c6565b5b6001900381819060005260206000200160006101000a81549073ffffffffffffffffffffffffffffffffffffffff0219169055905561d901671bce4bdccbb25fec60c01b61158d565b61d915679c469867bf17938360c01b61158d565b600880548061d9275761d92661f2c6565b5b60019003818190600052602060002001600090559055505061d959565b61d9586732685e56d81e797860c01b61158d565b5b505b50565b60608160000180548060200260200160405190810160405280929190818152602001828054801561d9ae57602002820191906000526020600020905b81548152602001906001019080831161d99a575b50505050509050919050565b61d9ce67e625f7c4e85082fe60c01b61158d565b61d9e26727231056799b1c3a60c01b61158d565b61d9f566660f0e7297efc560c01b61158d565b61da0981600561bc4f90919063ffffffff16565b5050565b600033905090565b61da296757d19862d9e9df7060c01b61158d565b61da3d67e1f94e845b2ea3c460c01b61158d565b61da5167a8aa1a55ac7cb32560c01b61158d565b601e60009054906101000a900473ffffffffffffffffffffffffffffffffffffffff1673ffffffffffffffffffffffffffffffffffffffff1663a0d16cad836040518263ffffffff1660e01b815260040161daac919061e9e3565b602060405180830381865afa15801561dac9573d6000803e3d6000fd5b505050506040513d601f19601f8201168201806040525081019061daed919061ef63565b15801561db0a575061db0967e9fde41fb6d02ff360c01b61a697565b5b8061db335750600060165414801561db32575061db3167245900fba7aa472960c01b61a697565b5b5b1561db795761db4c67de864fea88bf473260c01b61158d565b61db6067a531a40b4e8fbe9060c01b61158d565b61db74673bde6fd0810a390d60c01b61158d565b61de53565b61db8d673e8473f217e0459260c01b61158d565b61dba167e9289e418625782060c01b61158d565b61dbb5672ee4adc55bf1e61660c01b61158d565b6000602460008573ffffffffffffffffffffffffffffffffffffffff1673ffffffffffffffffffffffffffffffffffffffff16815260200190815260200160002060008373ffffffffffffffffffffffffffffffffffffffff1673ffffffffffffffffffffffffffffffffffffffff16815260200190815260200160002054905061dc4a6754e5b2d6ed19b2d860c01b61158d565b61dc5e671099078ede13327160c01b61158d565b60165481101561de3c5761dc7c676430dac5639c8b3a60c01b61158d565b61dc906757ab26a21923c6c460c01b61158d565b601460008573ffffffffffffffffffffffffffffffffffffffff1673ffffffffffffffffffffffffffffffffffffffff16815260200190815260200160002060008373ffffffffffffffffffffffffffffffffffffffff1673ffffffffffffffffffffffffffffffffffffffff16815260200190815260200160002054602360008673ffffffffffffffffffffffffffffffffffffffff1673ffffffffffffffffffffffffffffffffffffffff16815260200190815260200160002060008473ffffffffffffffffffffffffffffffffffffffff1673ffffffffffffffffffffffffffffffffffffffff168152602001908152602001600020600060165481526020019081526020016000208190555061ddb467cc0f06b42fb9e0e360c01b61158d565b601654602460008673ffffffffffffffffffffffffffffffffffffffff1673ffffffffffffffffffffffffffffffffffffffff16815260200190815260200160002060008473ffffffffffffffffffffffffffffffffffffffff1673ffffffffffffffffffffffffffffffffffffffff1681526020019081526020016000208190555061de51565b61de506726d432bc212ab47c60c01b61158d565b5b505b505050565b6000808360010160008481526020019081526020016000205490506000811461df6057600060018261de8a919061ef17565b905060006001866000018054905061dea2919061ef17565b905080821461df1157600086600001828154811061dec35761dec261ed05565b5b906000526020600020015490508087600001848154811061dee75761dee661ed05565b5b90600052602060002001819055508387600101600083815260200190815260200160002081905550505b8560000180548061df255761df2461f2c6565b5b60019003818190600052602060002001600090559055856001016000868152602001908152602001600020600090556001935050505061df66565b60009150505b92915050565b61df8067982c6d4800421d0360c01b61158d565b61df9467d2bc78658c0ea1a260c01b61158d565b61dfa8678598c72d9b45e68b60c01b61158d565b61dff981600b60008573ffffffffffffffffffffffffffffffffffffffff1673ffffffffffffffffffffffffffffffffffffffff16815260200190815260200160002061d05590919063ffffffff16565b505050565b61e0126799187e550e6c909c60c01b61158d565b61e026675ed3e48c987e57ca60c01b61158d565b61e03a67ea31afaf77ca90e260c01b61158d565b61e08b81600b60008573ffffffffffffffffffffffffffffffffffffffff1673ffffffffffffffffffffffffffffffffffffffff16815260200190815260200160002061bc4f90919063ffffffff16565b505050565b50565b600080836001016000848152602001908152602001600020541415905092915050565b60008061e0cd67c76b5fc2b474688260c01b61158d565b61e0e167ca4ca0a443db659f60c01b61158d565b601360008473ffffffffffffffffffffffffffffffffffffffff1673ffffffffffffffffffffffffffffffffffffffff16815260200190815260200160002054905061e13767d0d643c61a412cdd60c01b61158d565b61e14b675c2109b27fb7c8fa60c01b61158d565b8060078054905011801561e1c857508273ffffffffffffffffffffffffffffffffffffffff166007828154811061e1855761e18461ed05565b5b9060005260206000200160009054906101000a900473ffffffffffffffffffffffffffffffffffffffff1673ffffffffffffffffffffffffffffffffffffffff16145b1561e2125761e1e167458d8c351a24409660c01b61158d565b61e1f56762944668bdcf61c060c01b61158d565b61e209673c0dc36a4d8c7cc260c01b61158d565b6001915061e256565b61e226672cb7153677479cb460c01b61158d565b61e23a67df8e343aef04e1f960c01b61158d565b61e24e67ffd13a22adc92e8d60c01b61158d565b600080915091505b915091565b60007f9b779b17422d0df92223018b32b4d1fa46e071723d6817e2486d003becc55f00905090565b600061e28d619a16565b60000160089054906101000a900460ff16905090565b600061e2af838361e093565b61e30857826000018290806001815401808255809150506001900390600052602060002001600090919091909150558260000180549050836001016000848152602001908152602001600020819055506001905061e30d565b600090505b92915050565b600081600001805490509050919050565b82805482825590600052602060002090810192821561e360579160200282015b8281111561e35f57825182559160200191906001019061e344565b5b50905061e36d919061e3cb565b5090565b508054600082559060005260206000209081019061e38f919061e3cb565b50565b604051806040016040528060007bffffffffffffffffffffffffffffffffffffffffffffffffffffffff19168152602001606081525090565b5b8082111561e3e457600081600090555060010161e3cc565b5090565b600060208201905082825292915050565b73ffffffffffffffffffffffffffffffffffffffff8116811461e41b57600080fd5b50565b60008060006060848603121561e43357600080fd5b833561e43e8161e3f9565b80935050602084013561e4508161e3f9565b80925050604084013590509250925092565b60008083601f84011261e47457600080fd5b8235905067ffffffffffffffff81111561e48d57600080fd5b6020830191508360208260051b850101111561e4a857600080fd5b9250929050565b6000806000806000806080878903121561e4c857600080fd5b863561e4d38161e3f9565b80965050602087013567ffffffffffffffff8082111561e4f257600080fd5b8189019150610120828b03121561e50857600080fd5b819650604089013591508082111561e51f57600080fd5b61e52b8a838b0161e462565b925080965050819450606089013591508082111561e54857600080fd5b5061e55589828a0161e462565b915080935050809150509295509295509295565b600060208201905073ffffffffffffffffffffffffffffffffffffffff8316825292915050565b6000806040838503121561e5a357600080fd5b823561e5ae8161e3f9565b80925050602083013561e5c08161e3f9565b809150509250929050565b6000806040838503121561e5de57600080fd5b82359150602083013561e5f08161e3f9565b809150509250929050565b60006020828403121561e60d57600080fd5b813561e6188161e3f9565b8091505092915050565b60006040820190506fffffffffffffffffffffffffffffffff198416825261ffff60f01b831660208301529392505050565b60006020828403121561e66657600080fd5b8135905092915050565b6000602082019050821515825292915050565b6000806040838503121561e69657600080fd5b823561e6a18161e3f9565b80925050602083013590509250929050565b60008135905063ffffffff60e01b8116811461e6ce57600080fd5b919050565b6000806000806060858703121561e6e957600080fd5b61e6f28561e6b3565b935061e7006020860161e6b3565b9250604085013567ffffffffffffffff81111561e71c57600080fd5b61e7288782880161e462565b9150809350508091505092959194509250565b60005b8381101561e75957808201518184015260208101905061e73e565b50600083830152505050565b6000815180845261e77d81602086016020860161e73b565b6020601f19601f83011685010191505092915050565b60208152600061e7a6602083018461e765565b905092915050565b60008083601f84011261e7c057600080fd5b8235905067ffffffffffffffff81111561e7d957600080fd5b60208301915083602082850101111561e7f157600080fd5b9250929050565b6000813590506fffffffffffffffffffffffffffffffff198116811461e81d57600080fd5b919050565b6000806000806060858703121561e83857600080fd5b843561e8438161e3f9565b80945050602085013567ffffffffffffffff81111561e86157600080fd5b61e86d8782880161e7ae565b9150809450508092505061e8836040860161e7f8565b905092959194509250565b600060208083016020845280855180835260408601915060208701925060005b8181101561e8e55773ffffffffffffffffffffffffffffffffffffffff84511683528483019250848401935060018101905061e8ae565b505080935050505092915050565b60008135905061ffff60f01b8116811461e90c57600080fd5b919050565b60008060006060848603121561e92657600080fd5b833561e9318161e3f9565b8093505061e9416020850161e7f8565b915061e94f6040850161e8f3565b90509250925092565b60006020828403121561e96a57600080fd5b61e9738261e6b3565b905092915050565b6000806000806060858703121561e99157600080fd5b843567ffffffffffffffff81111561e9a857600080fd5b61e9b48782880161e7ae565b9150809550508093505061e9ca6020860161e7f8565b915061e9d86040860161e8f3565b905092959194509250565b600060208201905073ffffffffffffffffffffffffffffffffffffffff8316825292915050565b600060208201905063ffffffff60e01b8316825292915050565b60008151808452602080850194506020840160005b8381101561ea5a57815187528287019650828201915060018101905061ea39565b5050505082905092915050565b60408152600061ea7a604083018561ea24565b90508260208301529392505050565b60608152600061ea9c606083018661e765565b90506fffffffffffffffffffffffffffffffff198416602083015261ffff60f01b83166040830152949350505050565b6000806040838503121561eadf57600080fd5b823561eaea8161e3f9565b80925050602083013590509250929050565b634e487b7160e01b600052604160045260246000fd5b60006020828403121561eb2457600080fd5b813567ffffffffffffffff8082111561eb3c57600080fd5b818401915084601f83011261eb5057600080fd5b81358181111561eb635761eb6261eafc565b5b601f1960405181603f83601f860116011681019150808210848311171561eb8d5761eb8c61eafc565b5b8160405282815287602084870101111561eba657600080fd5b82602086016020830137600060208483010152809550505050505092915050565b6020815263ffffffff60e01b82511660208201526000602083015160408084015261ebf5606084018261ea24565b91505092915050565b6000806040838503121561ec1157600080fd5b61ec1a8361e6b3565b9150602083013590509250929050565b600060208201905073ffffffffffffffffffffffffffffffffffffffff8316825292915050565b60006020828403121561ec6357600080fd5b813561ec6e8161e3f9565b8091505092915050565b6000808335601e1984360301811261ec8f57600080fd5b80840190508035915067ffffffffffffffff82111561ecad57600080fd5b602081019250508060051b360382131561ecc657600080fd5b9250929050565b634e487b7160e01b600052601160045260246000fd5b60008282029050818104831482151761ecff5761ecfe61eccd565b5b92915050565b634e487b7160e01b600052603260045260246000fd5b600082820190508082111561ed335761ed3261eccd565b5b92915050565b82815281602082015260006040820190509392505050565b60008160011c9050600182168061ed6957607f821691505b60208210810361ed8957634e487b7160e01b600052602260045260246000fd5b50919050565b806000525060006020600020905090565b601f82111561edf0576000816000526020600020601f850160051c8101602086101561edca578190505b601f850160051c820191505b8181101561edec5782815560018101905061edd6565b5050505b505050565b60008260011b6000198460031b1c19831617905092915050565b815167ffffffffffffffff81111561ee2a5761ee2961eafc565b5b61ee3e8161ee38845461ed51565b8461eda0565b60006020809150601f83116001811461ee72576000841561ee60578387015190505b61ee6a858261edf5565b86555061eed1565b601f19841661ee808661ed8f565b60005b8281101561eea6578589015182556001820191508486019550848101905061ee83565b508582101561eec5578488015160001960f88860031b161c1981168255505b505060018460011b0185555b505050505050565b60006020828403121561eeeb57600080fd5b61eef48261e7f8565b905092915050565b600060208201905067ffffffffffffffff8316825292915050565b600082820390508181111561ef2f5761ef2e61eccd565b5b92915050565b600060408201905073ffffffffffffffffffffffffffffffffffffffff841682528260208301529392505050565b60006020828403121561ef7557600080fd5b8151801515811461ef8557600080fd5b8091505092915050565b60008261efac57634e487b7160e01b600052601260045260246000fd5b828204905092915050565b60006020828403121561efc957600080fd5b815161efd48161e3f9565b8091505092915050565b60006040820190508382528260208301529392505050565b600063ffffffff60e01b8087168352808616602084015250606060408301528260608301527f07ffffffffffffffffffffffffffffffffffffffffffffffffffffffffffffff83111561f04857600080fd5b8260051b8085608085013760808184010191505095945050505050565b600060408201905073ffffffffffffffffffffffffffffffffffffffff80851683528084166020840152509392505050565b67ffffffffffffffff83111561f0b05761f0af61eafc565b5b61f0c48361f0be835461ed51565b8361eda0565b6000601f84116001811461f0f3576000851561f0e1578285013590505b61f0eb868261edf5565b84555061f151565b601f19851661f1018461ed8f565b835b8281101561f1285784870135825560018201915060208501945060208101905061f103565b508682101561f1455760001960f88860031b161c19848701351681555b505060018560011b0183555b5050505050565b6000600160ff1b820361f16e5761f16d61eccd565b5b816000039050919050565b600060608201905073ffffffffffffffffffffffffffffffffffffffff8086168352808516602084015250826040830152949350505050565b600060208201905082825292915050565b600060408201905073ffffffffffffffffffffffffffffffffffffffff80851683528084166020840152509392505050565b60008019820361f2085761f20761eccd565b5b600182019050919050565b600063ffffffff60e01b80861683528085166020840152506060604083015261f23f606083018461ea24565b9050949350505050565b600060608201905073ffffffffffffffffffffffffffffffffffffffff8086168352808516602084015250826040830152949350505050565b6000819050919050565b60006020828403121561f29e57600080fd5b8151905092915050565b6000825161f2ba81846020870161e73b565b80830191505092915050565b634e487b7160e01b600052603160045260246000fdfea2646970667358221220363abe37db2d1f2e295da3949231c0aa23b70fc6ab44a5eef480c8f598228cb264736f6c63430008190033",
  "linkReferences": {},
  "deployedLinkReferences": {}
}