{
  "_format": "hh-sol-artifact-1",
  "contractName": "StakingHbbft",
  "sourceName": "contracts/StakingHbbft.sol",
  "abi": [
    {
      "inputs": [],
      "stateMutability": "nonpayable",
      "type": "constructor"
    },
    {
      "inputs": [
        {
          "internalType": "address",
          "name": "pool",
          "type": "address"
        },
        {
          "internalType": "address",
          "name": "staker",
          "type": "address"
        }
      ],
      "name": "CannotClaimWithdrawOrderYet",
      "type": "error"
    },
    {
      "inputs": [],
      "name": "GetterCallFailed",
      "type": "error"
    },
    {
      "inputs": [],
      "name": "InitialStakingPoolsListEmpty",
      "type": "error"
    },
    {
      "inputs": [],
      "name": "InsufficientBalance",
      "type": "error"
    },
    {
      "inputs": [
        {
          "internalType": "address",
          "name": "pool",
          "type": "address"
        },
        {
          "internalType": "address",
          "name": "delegator",
          "type": "address"
        }
      ],
      "name": "InsufficientStakeAmount",
      "type": "error"
    },
    {
      "inputs": [],
      "name": "InvalidFixedEpochDuration",
      "type": "error"
    },
    {
      "inputs": [
        {
          "internalType": "uint256",
          "name": "candidateStake",
          "type": "uint256"
        },
        {
          "internalType": "uint256",
          "name": "delegatorStake",
          "type": "uint256"
        }
      ],
      "name": "InvalidInitialStakeAmount",
      "type": "error"
    },
    {
      "inputs": [],
      "name": "InvalidInitialization",
      "type": "error"
    },
    {
      "inputs": [],
      "name": "InvalidIpAddressesCount",
      "type": "error"
    },
    {
      "inputs": [],
      "name": "InvalidMaxStakeAmount",
      "type": "error"
    },
    {
      "inputs": [],
      "name": "InvalidMoveStakePoolsAddress",
      "type": "error"
    },
    {
      "inputs": [
        {
          "internalType": "address",
          "name": "_operator",
          "type": "address"
        },
        {
          "internalType": "uint256",
          "name": "_share",
          "type": "uint256"
        }
      ],
      "name": "InvalidNodeOperatorConfiguration",
      "type": "error"
    },
    {
      "inputs": [
        {
          "internalType": "uint256",
          "name": "_share",
          "type": "uint256"
        }
      ],
      "name": "InvalidNodeOperatorShare",
      "type": "error"
    },
    {
      "inputs": [
        {
          "internalType": "address",
          "name": "pool",
          "type": "address"
        },
        {
          "internalType": "address",
          "name": "delegator",
          "type": "address"
        },
        {
          "internalType": "int256",
          "name": "amount",
          "type": "int256"
        }
      ],
      "name": "InvalidOrderWithdrawAmount",
      "type": "error"
    },
    {
      "inputs": [],
      "name": "InvalidPublicKeysCount",
      "type": "error"
    },
    {
      "inputs": [],
      "name": "InvalidStakingFixedEpochDuration",
      "type": "error"
    },
    {
      "inputs": [],
      "name": "InvalidStakingTransitionTimeframe",
      "type": "error"
    },
    {
      "inputs": [],
      "name": "InvalidTransitionTimeFrame",
      "type": "error"
    },
    {
      "inputs": [
        {
          "internalType": "address",
          "name": "pool",
          "type": "address"
        },
        {
          "internalType": "address",
          "name": "delegator",
          "type": "address"
        },
        {
          "internalType": "uint256",
          "name": "amount",
          "type": "uint256"
        }
      ],
      "name": "InvalidWithdrawAmount",
      "type": "error"
    },
    {
      "inputs": [
        {
          "internalType": "uint256",
          "name": "allowed",
          "type": "uint256"
        },
        {
          "internalType": "uint256",
          "name": "desired",
          "type": "uint256"
        }
      ],
      "name": "MaxAllowedWithdrawExceeded",
      "type": "error"
    },
    {
      "inputs": [],
      "name": "MaxPoolsCountExceeded",
      "type": "error"
    },
    {
      "inputs": [
        {
          "internalType": "uint256",
          "name": "_newVal",
          "type": "uint256"
        }
      ],
      "name": "NewValueOutOfRange",
      "type": "error"
    },
    {
      "inputs": [],
      "name": "NoStakesToRecover",
      "type": "error"
    },
    {
      "inputs": [],
      "name": "NotInitializing",
      "type": "error"
    },
    {
      "inputs": [],
      "name": "NotPayable",
      "type": "error"
    },
    {
      "inputs": [
        {
          "internalType": "uint256",
          "name": "_epoch",
          "type": "uint256"
        }
      ],
      "name": "OnlyOncePerEpoch",
      "type": "error"
    },
    {
      "inputs": [
        {
          "internalType": "address",
          "name": "owner",
          "type": "address"
        }
      ],
      "name": "OwnableInvalidOwner",
      "type": "error"
    },
    {
      "inputs": [
        {
          "internalType": "address",
          "name": "account",
          "type": "address"
        }
      ],
      "name": "OwnableUnauthorizedAccount",
      "type": "error"
    },
    {
      "inputs": [
        {
          "internalType": "address",
          "name": "pool",
          "type": "address"
        }
      ],
      "name": "PoolAbandoned",
      "type": "error"
    },
    {
      "inputs": [
        {
          "internalType": "address",
          "name": "pool",
          "type": "address"
        }
      ],
      "name": "PoolCannotBeRemoved",
      "type": "error"
    },
    {
      "inputs": [
        {
          "internalType": "address",
          "name": "pool",
          "type": "address"
        }
      ],
      "name": "PoolEmpty",
      "type": "error"
    },
    {
      "inputs": [
        {
          "internalType": "address",
          "name": "pool",
          "type": "address"
        }
      ],
      "name": "PoolNotExist",
      "type": "error"
    },
    {
      "inputs": [
        {
          "internalType": "address",
          "name": "pool",
          "type": "address"
        },
        {
          "internalType": "address",
          "name": "delegator",
          "type": "address"
        }
      ],
      "name": "PoolStakeLimitExceeded",
      "type": "error"
    },
    {
      "inputs": [],
      "name": "ReentrancyGuardReentrantCall",
      "type": "error"
    },
    {
      "inputs": [
        {
          "internalType": "address",
          "name": "recipient",
          "type": "address"
        },
        {
          "internalType": "uint256",
          "name": "amount",
          "type": "uint256"
        }
      ],
      "name": "TransferFailed",
      "type": "error"
    },
    {
      "inputs": [],
      "name": "Unauthorized",
      "type": "error"
    },
    {
      "inputs": [],
      "name": "WithdrawNotAllowed",
      "type": "error"
    },
    {
      "inputs": [],
      "name": "ZeroAddress",
      "type": "error"
    },
    {
      "inputs": [],
      "name": "ZeroGasPrice",
      "type": "error"
    },
    {
      "inputs": [],
      "name": "ZeroWidthrawAmount",
      "type": "error"
    },
    {
      "inputs": [],
      "name": "ZeroWidthrawDisallowPeriod",
      "type": "error"
    },
    {
      "anonymous": false,
      "inputs": [
        {
          "indexed": true,
          "internalType": "address",
          "name": "fromPoolStakingAddress",
          "type": "address"
        },
        {
          "indexed": true,
          "internalType": "address",
          "name": "staker",
          "type": "address"
        },
        {
          "indexed": true,
          "internalType": "uint256",
          "name": "stakingEpoch",
          "type": "uint256"
        },
        {
          "indexed": false,
          "internalType": "uint256",
          "name": "amount",
          "type": "uint256"
        }
      ],
      "name": "ClaimedOrderedWithdrawal",
      "type": "event"
    },
    {
      "anonymous": false,
      "inputs": [
        {
          "indexed": true,
          "internalType": "address",
          "name": "caller",
          "type": "address"
        },
        {
          "indexed": true,
          "internalType": "address",
          "name": "stakingAddress",
          "type": "address"
        },
        {
          "indexed": false,
          "internalType": "uint256",
          "name": "gatheredFunds",
          "type": "uint256"
        }
      ],
      "name": "GatherAbandonedStakes",
      "type": "event"
    },
    {
      "anonymous": false,
      "inputs": [
        {
          "indexed": false,
          "internalType": "uint64",
          "name": "version",
          "type": "uint64"
        }
      ],
      "name": "Initialized",
      "type": "event"
    },
    {
      "anonymous": false,
      "inputs": [
        {
          "indexed": false,
          "internalType": "address",
          "name": "fromPoolStakingAddress",
          "type": "address"
        },
        {
          "indexed": true,
          "internalType": "address",
          "name": "toPoolStakingAddress",
          "type": "address"
        },
        {
          "indexed": true,
          "internalType": "address",
          "name": "staker",
          "type": "address"
        },
        {
          "indexed": true,
          "internalType": "uint256",
          "name": "stakingEpoch",
          "type": "uint256"
        },
        {
          "indexed": false,
          "internalType": "uint256",
          "name": "amount",
          "type": "uint256"
        }
      ],
      "name": "MovedStake",
      "type": "event"
    },
    {
      "anonymous": false,
      "inputs": [
        {
          "indexed": true,
          "internalType": "address",
          "name": "fromPoolStakingAddress",
          "type": "address"
        },
        {
          "indexed": true,
          "internalType": "address",
          "name": "staker",
          "type": "address"
        },
        {
          "indexed": true,
          "internalType": "uint256",
          "name": "stakingEpoch",
          "type": "uint256"
        },
        {
          "indexed": false,
          "internalType": "int256",
          "name": "amount",
          "type": "int256"
        }
      ],
      "name": "OrderedWithdrawal",
      "type": "event"
    },
    {
      "anonymous": false,
      "inputs": [
        {
          "indexed": true,
          "internalType": "address",
          "name": "previousOwner",
          "type": "address"
        },
        {
          "indexed": true,
          "internalType": "address",
          "name": "newOwner",
          "type": "address"
        }
      ],
      "name": "OwnershipTransferred",
      "type": "event"
    },
    {
      "anonymous": false,
      "inputs": [
        {
          "indexed": true,
          "internalType": "address",
          "name": "toPoolStakingAddress",
          "type": "address"
        },
        {
          "indexed": true,
          "internalType": "address",
          "name": "staker",
          "type": "address"
        },
        {
          "indexed": true,
          "internalType": "uint256",
          "name": "stakingEpoch",
          "type": "uint256"
        },
        {
          "indexed": false,
          "internalType": "uint256",
          "name": "amount",
          "type": "uint256"
        }
      ],
      "name": "PlacedStake",
      "type": "event"
    },
    {
      "anonymous": false,
      "inputs": [
        {
          "indexed": true,
          "internalType": "address",
          "name": "caller",
          "type": "address"
        },
        {
          "indexed": false,
          "internalType": "uint256",
          "name": "reinsertShare",
          "type": "uint256"
        },
        {
          "indexed": false,
          "internalType": "uint256",
          "name": "governanceShare",
          "type": "uint256"
        }
      ],
      "name": "RecoverAbandonedStakes",
      "type": "event"
    },
    {
      "anonymous": false,
      "inputs": [
        {
          "indexed": false,
          "internalType": "bytes4",
          "name": "funcSelector",
          "type": "bytes4"
        }
      ],
      "name": "RemoveChangeableParameter",
      "type": "event"
    },
    {
      "anonymous": false,
      "inputs": [
        {
          "indexed": true,
          "internalType": "address",
          "name": "poolStakingAddress",
          "type": "address"
        },
        {
          "indexed": true,
          "internalType": "uint256",
          "name": "stakingEpoch",
          "type": "uint256"
        },
        {
          "indexed": false,
          "internalType": "uint256",
          "name": "validatorReward",
          "type": "uint256"
        },
        {
          "indexed": false,
          "internalType": "uint256",
          "name": "delegatorsReward",
          "type": "uint256"
        }
      ],
      "name": "RestakeReward",
      "type": "event"
    },
    {
      "anonymous": false,
      "inputs": [
        {
          "indexed": false,
          "internalType": "address",
          "name": "_address",
          "type": "address"
        }
      ],
      "name": "SetBonusScoreContract",
      "type": "event"
    },
    {
      "anonymous": false,
      "inputs": [
        {
          "indexed": false,
          "internalType": "bytes4",
          "name": "setter",
          "type": "bytes4"
        },
        {
          "indexed": false,
          "internalType": "bytes4",
          "name": "getter",
          "type": "bytes4"
        },
        {
          "indexed": false,
          "internalType": "uint256[]",
          "name": "params",
          "type": "uint256[]"
        }
      ],
      "name": "SetChangeableParameter",
      "type": "event"
    },
    {
      "anonymous": false,
      "inputs": [
        {
          "indexed": false,
          "internalType": "uint256",
          "name": "minStake",
          "type": "uint256"
        }
      ],
      "name": "SetDelegatorMinStake",
      "type": "event"
    },
    {
      "anonymous": false,
      "inputs": [
        {
          "indexed": true,
          "internalType": "address",
          "name": "poolStakingAddress",
          "type": "address"
        },
        {
          "indexed": true,
          "internalType": "address",
          "name": "nodeOperatorAddress",
          "type": "address"
        },
        {
          "indexed": false,
          "internalType": "uint256",
          "name": "operatorShare",
          "type": "uint256"
        }
      ],
      "name": "SetNodeOperator",
      "type": "event"
    },
    {
      "anonymous": false,
      "inputs": [
        {
          "indexed": true,
          "internalType": "address",
          "name": "fromPoolStakingAddress",
          "type": "address"
        },
        {
          "indexed": true,
          "internalType": "address",
          "name": "staker",
          "type": "address"
        },
        {
          "indexed": true,
          "internalType": "uint256",
          "name": "stakingEpoch",
          "type": "uint256"
        },
        {
          "indexed": false,
          "internalType": "uint256",
          "name": "amount",
          "type": "uint256"
        }
      ],
      "name": "WithdrewStake",
      "type": "event"
    },
    {
      "inputs": [],
      "name": "MAX_CANDIDATES",
      "outputs": [
        {
          "internalType": "uint256",
          "name": "",
          "type": "uint256"
        }
      ],
      "stateMutability": "view",
      "type": "function"
    },
    {
      "inputs": [],
      "name": "MAX_NODE_OPERATOR_SHARE_PERCENT",
      "outputs": [
        {
          "internalType": "uint256",
          "name": "",
          "type": "uint256"
        }
      ],
      "stateMutability": "view",
      "type": "function"
    },
    {
      "inputs": [],
      "name": "PERCENT_DENOMINATOR",
      "outputs": [
        {
          "internalType": "uint256",
          "name": "",
          "type": "uint256"
        }
      ],
      "stateMutability": "view",
      "type": "function"
    },
    {
      "inputs": [
        {
          "internalType": "address",
          "name": "",
          "type": "address"
        }
      ],
      "name": "abandonedAndRemoved",
      "outputs": [
        {
          "internalType": "bool",
          "name": "",
          "type": "bool"
        }
      ],
      "stateMutability": "view",
      "type": "function"
    },
    {
      "inputs": [
        {
          "internalType": "address",
          "name": "_miningAddress",
          "type": "address"
        },
        {
          "internalType": "address",
          "name": "_nodeOperatorAddress",
          "type": "address"
        },
        {
          "internalType": "uint256",
          "name": "_operatorShare",
          "type": "uint256"
        },
        {
          "internalType": "bytes",
          "name": "_publicKey",
          "type": "bytes"
        },
        {
          "internalType": "bytes16",
          "name": "_ip",
          "type": "bytes16"
        }
      ],
      "name": "addPool",
      "outputs": [],
      "stateMutability": "payable",
      "type": "function"
    },
    {
      "inputs": [],
      "name": "areStakeAndWithdrawAllowed",
      "outputs": [
        {
          "internalType": "bool",
          "name": "",
          "type": "bool"
        }
      ],
      "stateMutability": "pure",
      "type": "function"
    },
    {
      "inputs": [],
      "name": "bonusScoreContract",
      "outputs": [
        {
          "internalType": "contract IBonusScoreSystem",
          "name": "",
          "type": "address"
        }
      ],
      "stateMutability": "view",
      "type": "function"
    },
    {
      "inputs": [],
      "name": "candidateMinStake",
      "outputs": [
        {
          "internalType": "uint256",
          "name": "",
          "type": "uint256"
        }
      ],
      "stateMutability": "view",
      "type": "function"
    },
    {
      "inputs": [
        {
          "internalType": "address",
          "name": "_poolStakingAddress",
          "type": "address"
        }
      ],
      "name": "claimOrderedWithdraw",
      "outputs": [],
      "stateMutability": "nonpayable",
      "type": "function"
    },
    {
      "inputs": [],
      "name": "currentKeyGenExtraTimeWindow",
      "outputs": [
        {
          "internalType": "uint256",
          "name": "",
          "type": "uint256"
        }
      ],
      "stateMutability": "view",
      "type": "function"
    },
    {
      "inputs": [],
      "name": "delegatorMinStake",
      "outputs": [
        {
          "internalType": "uint256",
          "name": "",
          "type": "uint256"
        }
      ],
      "stateMutability": "view",
      "type": "function"
    },
    {
      "inputs": [
        {
          "internalType": "string",
          "name": "_selector",
          "type": "string"
        }
      ],
      "name": "getAllowedParamsRange",
      "outputs": [
        {
          "components": [
            {
              "internalType": "bytes4",
              "name": "getter",
              "type": "bytes4"
            },
            {
              "internalType": "uint256[]",
              "name": "range",
              "type": "uint256[]"
            }
          ],
          "internalType": "struct ValueGuards.ParameterRange",
          "name": "",
          "type": "tuple"
        }
      ],
      "stateMutability": "view",
      "type": "function"
    },
    {
      "inputs": [
        {
          "internalType": "bytes4",
          "name": "_selector",
          "type": "bytes4"
        }
      ],
      "name": "getAllowedParamsRangeWithSelector",
      "outputs": [
        {
          "components": [
            {
              "internalType": "bytes4",
              "name": "getter",
              "type": "bytes4"
            },
            {
              "internalType": "uint256[]",
              "name": "range",
              "type": "uint256[]"
            }
          ],
          "internalType": "struct ValueGuards.ParameterRange",
          "name": "",
          "type": "tuple"
        }
      ],
      "stateMutability": "view",
      "type": "function"
    },
    {
      "inputs": [
        {
          "internalType": "address",
          "name": "_poolAddress",
          "type": "address"
        }
      ],
      "name": "getPoolInternetAddress",
      "outputs": [
        {
          "internalType": "bytes16",
          "name": "",
          "type": "bytes16"
        },
        {
          "internalType": "bytes2",
          "name": "",
          "type": "bytes2"
        }
      ],
      "stateMutability": "view",
      "type": "function"
    },
    {
      "inputs": [
        {
          "internalType": "address",
          "name": "_poolAddress",
          "type": "address"
        }
      ],
      "name": "getPoolPublicKey",
      "outputs": [
        {
          "internalType": "bytes",
          "name": "",
          "type": "bytes"
        }
      ],
      "stateMutability": "view",
      "type": "function"
    },
    {
      "inputs": [
        {
          "internalType": "uint256",
          "name": "_epoch",
          "type": "uint256"
        },
        {
          "internalType": "address",
          "name": "_stakingPool",
          "type": "address"
        }
      ],
      "name": "getPoolValidatorStakeAmount",
      "outputs": [
        {
          "internalType": "uint256",
          "name": "",
          "type": "uint256"
        }
      ],
      "stateMutability": "view",
      "type": "function"
    },
    {
      "inputs": [],
      "name": "getPools",
      "outputs": [
        {
          "internalType": "address[]",
          "name": "",
          "type": "address[]"
        }
      ],
      "stateMutability": "view",
      "type": "function"
    },
    {
      "inputs": [],
      "name": "getPoolsInactive",
      "outputs": [
        {
          "internalType": "address[]",
          "name": "",
          "type": "address[]"
        }
      ],
      "stateMutability": "view",
      "type": "function"
    },
    {
      "inputs": [],
      "name": "getPoolsLikelihood",
      "outputs": [
        {
          "internalType": "uint256[]",
          "name": "likelihoods",
          "type": "uint256[]"
        },
        {
          "internalType": "uint256",
          "name": "sum",
          "type": "uint256"
        }
      ],
      "stateMutability": "view",
      "type": "function"
    },
    {
      "inputs": [],
      "name": "getPoolsToBeElected",
      "outputs": [
        {
          "internalType": "address[]",
          "name": "",
          "type": "address[]"
        }
      ],
      "stateMutability": "view",
      "type": "function"
    },
    {
      "inputs": [],
      "name": "getPoolsToBeRemoved",
      "outputs": [
        {
          "internalType": "address[]",
          "name": "",
          "type": "address[]"
        }
      ],
      "stateMutability": "view",
      "type": "function"
    },
    {
      "inputs": [],
      "name": "incrementStakingEpoch",
      "outputs": [],
      "stateMutability": "nonpayable",
      "type": "function"
    },
    {
      "inputs": [
        {
          "internalType": "address",
          "name": "_contractOwner",
          "type": "address"
        },
        {
          "components": [
            {
              "internalType": "address",
              "name": "_validatorSetContract",
              "type": "address"
            },
            {
              "internalType": "address",
              "name": "_bonusScoreContract",
              "type": "address"
            },
            {
              "internalType": "address[]",
              "name": "_initialStakingAddresses",
              "type": "address[]"
            },
            {
              "internalType": "uint256",
              "name": "_delegatorMinStake",
              "type": "uint256"
            },
            {
              "internalType": "uint256",
              "name": "_candidateMinStake",
              "type": "uint256"
            },
            {
              "internalType": "uint256",
              "name": "_maxStake",
              "type": "uint256"
            },
            {
              "internalType": "uint256",
              "name": "_stakingFixedEpochDuration",
              "type": "uint256"
            },
            {
              "internalType": "uint256",
              "name": "_stakingTransitionTimeframeLength",
              "type": "uint256"
            },
            {
              "internalType": "uint256",
              "name": "_stakingWithdrawDisallowPeriod",
              "type": "uint256"
            }
          ],
          "internalType": "struct IStakingHbbft.StakingParams",
          "name": "stakingParams",
          "type": "tuple"
        },
        {
          "internalType": "bytes32[]",
          "name": "_publicKeys",
          "type": "bytes32[]"
        },
        {
          "internalType": "bytes16[]",
          "name": "_internetAddresses",
          "type": "bytes16[]"
        }
      ],
      "name": "initialize",
      "outputs": [],
      "stateMutability": "nonpayable",
      "type": "function"
    },
    {
      "inputs": [
        {
          "internalType": "address",
          "name": "_stakingAddress",
          "type": "address"
        }
      ],
      "name": "isPoolActive",
      "outputs": [
        {
          "internalType": "bool",
          "name": "",
          "type": "bool"
        }
      ],
      "stateMutability": "view",
      "type": "function"
    },
    {
      "inputs": [
        {
          "internalType": "address",
          "name": "_stakingAddress",
          "type": "address"
        }
      ],
      "name": "isPoolValid",
      "outputs": [
        {
          "internalType": "bool",
          "name": "",
          "type": "bool"
        }
      ],
      "stateMutability": "view",
      "type": "function"
    },
    {
      "inputs": [
        {
          "internalType": "bytes4",
          "name": "funcSelector",
          "type": "bytes4"
        },
        {
          "internalType": "uint256",
          "name": "newVal",
          "type": "uint256"
        }
      ],
      "name": "isWithinAllowedRange",
      "outputs": [
        {
          "internalType": "bool",
          "name": "",
          "type": "bool"
        }
      ],
      "stateMutability": "view",
      "type": "function"
    },
    {
      "inputs": [],
      "name": "maxStakeAmount",
      "outputs": [
        {
          "internalType": "uint256",
          "name": "",
          "type": "uint256"
        }
      ],
      "stateMutability": "view",
      "type": "function"
    },
    {
      "inputs": [
        {
          "internalType": "address",
          "name": "_poolStakingAddress",
          "type": "address"
        },
        {
          "internalType": "address",
          "name": "_staker",
          "type": "address"
        }
      ],
      "name": "maxWithdrawAllowed",
      "outputs": [
        {
          "internalType": "uint256",
          "name": "",
          "type": "uint256"
        }
      ],
      "stateMutability": "view",
      "type": "function"
    },
    {
      "inputs": [
        {
          "internalType": "address",
          "name": "_poolStakingAddress",
          "type": "address"
        },
        {
          "internalType": "address",
          "name": "_staker",
          "type": "address"
        }
      ],
      "name": "maxWithdrawOrderAllowed",
      "outputs": [
        {
          "internalType": "uint256",
          "name": "",
          "type": "uint256"
        }
      ],
      "stateMutability": "view",
      "type": "function"
    },
    {
      "inputs": [
        {
          "internalType": "address",
          "name": "_fromPoolStakingAddress",
          "type": "address"
        },
        {
          "internalType": "address",
          "name": "_toPoolStakingAddress",
          "type": "address"
        },
        {
          "internalType": "uint256",
          "name": "_amount",
          "type": "uint256"
        }
      ],
      "name": "moveStake",
      "outputs": [],
      "stateMutability": "nonpayable",
      "type": "function"
    },
    {
      "inputs": [
        {
          "internalType": "address",
          "name": "_stakingAddress",
          "type": "address"
        }
      ],
      "name": "notifyAvailability",
      "outputs": [],
      "stateMutability": "nonpayable",
      "type": "function"
    },
    {
      "inputs": [],
      "name": "notifyKeyGenFailed",
      "outputs": [],
      "stateMutability": "nonpayable",
      "type": "function"
    },
    {
      "inputs": [
        {
          "internalType": "uint256",
          "name": "detectedOfflineTime",
          "type": "uint256"
        }
      ],
      "name": "notifyNetworkOfftimeDetected",
      "outputs": [],
      "stateMutability": "nonpayable",
      "type": "function"
    },
    {
      "inputs": [
        {
          "internalType": "address",
          "name": "_poolStakingAddress",
          "type": "address"
        },
        {
          "internalType": "int256",
          "name": "_amount",
          "type": "int256"
        }
      ],
      "name": "orderWithdraw",
      "outputs": [],
      "stateMutability": "nonpayable",
      "type": "function"
    },
    {
      "inputs": [
        {
          "internalType": "address",
          "name": "",
          "type": "address"
        },
        {
          "internalType": "address",
          "name": "",
          "type": "address"
        }
      ],
      "name": "orderWithdrawEpoch",
      "outputs": [
        {
          "internalType": "uint256",
          "name": "",
          "type": "uint256"
        }
      ],
      "stateMutability": "view",
      "type": "function"
    },
    {
      "inputs": [
        {
          "internalType": "address",
          "name": "",
          "type": "address"
        },
        {
          "internalType": "address",
          "name": "",
          "type": "address"
        }
      ],
      "name": "orderedWithdrawAmount",
      "outputs": [
        {
          "internalType": "uint256",
          "name": "",
          "type": "uint256"
        }
      ],
      "stateMutability": "view",
      "type": "function"
    },
    {
      "inputs": [
        {
          "internalType": "address",
          "name": "",
          "type": "address"
        }
      ],
      "name": "orderedWithdrawAmountTotal",
      "outputs": [
        {
          "internalType": "uint256",
          "name": "",
          "type": "uint256"
        }
      ],
      "stateMutability": "view",
      "type": "function"
    },
    {
      "inputs": [],
      "name": "owner",
      "outputs": [
        {
          "internalType": "address",
          "name": "",
          "type": "address"
        }
      ],
      "stateMutability": "view",
      "type": "function"
    },
    {
      "inputs": [
        {
          "internalType": "address",
          "name": "_poolStakingAddress",
          "type": "address"
        }
      ],
      "name": "poolDelegators",
      "outputs": [
        {
          "internalType": "address[]",
          "name": "",
          "type": "address[]"
        }
      ],
      "stateMutability": "view",
      "type": "function"
    },
    {
      "inputs": [
        {
          "internalType": "address",
          "name": "_poolStakingAddress",
          "type": "address"
        }
      ],
      "name": "poolDelegatorsInactive",
      "outputs": [
        {
          "internalType": "address[]",
          "name": "",
          "type": "address[]"
        }
      ],
      "stateMutability": "view",
      "type": "function"
    },
    {
      "inputs": [
        {
          "internalType": "address",
          "name": "",
          "type": "address"
        }
      ],
      "name": "poolInfo",
      "outputs": [
        {
          "internalType": "bytes",
          "name": "publicKey",
          "type": "bytes"
        },
        {
          "internalType": "bytes16",
          "name": "internetAddress",
          "type": "bytes16"
        },
        {
          "internalType": "bytes2",
          "name": "port",
          "type": "bytes2"
        }
      ],
      "stateMutability": "view",
      "type": "function"
    },
    {
      "inputs": [
        {
          "internalType": "address",
          "name": "",
          "type": "address"
        }
      ],
      "name": "poolNodeOperator",
      "outputs": [
        {
          "internalType": "address",
          "name": "",
          "type": "address"
        }
      ],
      "stateMutability": "view",
      "type": "function"
    },
    {
      "inputs": [
        {
          "internalType": "address",
          "name": "",
          "type": "address"
        }
      ],
      "name": "poolNodeOperatorLastChangeEpoch",
      "outputs": [
        {
          "internalType": "uint256",
          "name": "",
          "type": "uint256"
        }
      ],
      "stateMutability": "view",
      "type": "function"
    },
    {
      "inputs": [
        {
          "internalType": "address",
          "name": "",
          "type": "address"
        }
      ],
      "name": "poolNodeOperatorShare",
      "outputs": [
        {
          "internalType": "uint256",
          "name": "",
          "type": "uint256"
        }
      ],
      "stateMutability": "view",
      "type": "function"
    },
    {
      "inputs": [
        {
          "internalType": "address",
          "name": "",
          "type": "address"
        }
      ],
      "name": "poolToBeElectedIndex",
      "outputs": [
        {
          "internalType": "uint256",
          "name": "",
          "type": "uint256"
        }
      ],
      "stateMutability": "view",
      "type": "function"
    },
    {
      "inputs": [],
      "name": "recoverAbandonedStakes",
      "outputs": [],
      "stateMutability": "nonpayable",
      "type": "function"
    },
    {
      "inputs": [
        {
          "internalType": "bytes4",
          "name": "funcSelector",
          "type": "bytes4"
        }
      ],
      "name": "removeAllowedChangeableParameter",
      "outputs": [],
      "stateMutability": "nonpayable",
      "type": "function"
    },
    {
      "inputs": [],
      "name": "removeMyPool",
      "outputs": [],
      "stateMutability": "nonpayable",
      "type": "function"
    },
    {
      "inputs": [
        {
          "internalType": "address",
          "name": "_stakingAddress",
          "type": "address"
        }
      ],
      "name": "removePool",
      "outputs": [],
      "stateMutability": "nonpayable",
      "type": "function"
    },
    {
      "inputs": [],
      "name": "removePools",
      "outputs": [],
      "stateMutability": "nonpayable",
      "type": "function"
    },
    {
      "inputs": [],
      "name": "renounceOwnership",
      "outputs": [],
      "stateMutability": "nonpayable",
      "type": "function"
    },
    {
      "inputs": [
        {
          "internalType": "address",
          "name": "_poolStakingAddress",
          "type": "address"
        },
        {
          "internalType": "uint256",
          "name": "_validatorMinRewardPercent",
          "type": "uint256"
        }
      ],
      "name": "restake",
      "outputs": [],
      "stateMutability": "payable",
      "type": "function"
    },
    {
      "inputs": [
        {
          "internalType": "bytes4",
          "name": "setter",
          "type": "bytes4"
        },
        {
          "internalType": "bytes4",
          "name": "getter",
          "type": "bytes4"
        },
        {
          "internalType": "uint256[]",
          "name": "params",
          "type": "uint256[]"
        }
      ],
      "name": "setAllowedChangeableParameter",
      "outputs": [],
      "stateMutability": "nonpayable",
      "type": "function"
    },
    {
      "inputs": [
        {
          "internalType": "address",
          "name": "_bonusScoreContract",
          "type": "address"
        }
      ],
      "name": "setBonusScoreContract",
      "outputs": [],
      "stateMutability": "nonpayable",
      "type": "function"
    },
    {
      "inputs": [
        {
          "internalType": "uint256",
          "name": "_minStake",
          "type": "uint256"
        }
      ],
      "name": "setDelegatorMinStake",
      "outputs": [],
      "stateMutability": "nonpayable",
      "type": "function"
    },
    {
      "inputs": [
        {
          "internalType": "address",
          "name": "_operatorAddress",
          "type": "address"
        },
        {
          "internalType": "uint256",
          "name": "_operatorShare",
          "type": "uint256"
        }
      ],
      "name": "setNodeOperator",
      "outputs": [],
      "stateMutability": "nonpayable",
      "type": "function"
    },
    {
      "inputs": [
        {
          "internalType": "bytes",
          "name": "_publicKey",
          "type": "bytes"
        },
        {
          "internalType": "bytes16",
          "name": "_ip",
          "type": "bytes16"
        },
        {
          "internalType": "bytes2",
          "name": "_port",
          "type": "bytes2"
        }
      ],
      "name": "setPoolInfo",
      "outputs": [],
      "stateMutability": "nonpayable",
      "type": "function"
    },
    {
      "inputs": [
        {
          "internalType": "uint256",
          "name": "_timestamp",
          "type": "uint256"
        }
      ],
      "name": "setStakingEpochStartTime",
      "outputs": [],
      "stateMutability": "nonpayable",
      "type": "function"
    },
    {
      "inputs": [
        {
          "internalType": "uint256",
          "name": "_value",
          "type": "uint256"
        }
      ],
      "name": "setStakingFixedEpochDuration",
      "outputs": [],
      "stateMutability": "nonpayable",
      "type": "function"
    },
    {
      "inputs": [
        {
          "internalType": "uint256",
          "name": "_value",
          "type": "uint256"
        }
      ],
      "name": "setStakingTransitionTimeframeLength",
      "outputs": [],
      "stateMutability": "nonpayable",
      "type": "function"
    },
    {
      "inputs": [
        {
          "internalType": "address",
          "name": "_validatorAddress",
          "type": "address"
        },
        {
          "internalType": "bytes16",
          "name": "_ip",
          "type": "bytes16"
        },
        {
          "internalType": "bytes2",
          "name": "_port",
          "type": "bytes2"
        }
      ],
      "name": "setValidatorInternetAddress",
      "outputs": [],
      "stateMutability": "nonpayable",
      "type": "function"
    },
    {
      "inputs": [
        {
          "internalType": "uint256",
          "name": "_epoch",
          "type": "uint256"
        },
        {
          "internalType": "address",
          "name": "_stakingPool",
          "type": "address"
        }
      ],
      "name": "snapshotPoolStakeAmounts",
      "outputs": [],
      "stateMutability": "nonpayable",
      "type": "function"
    },
    {
      "inputs": [
        {
          "internalType": "uint256",
          "name": "",
          "type": "uint256"
        },
        {
          "internalType": "address",
          "name": "",
          "type": "address"
        }
      ],
      "name": "snapshotPoolTotalStakeAmount",
      "outputs": [
        {
          "internalType": "uint256",
          "name": "",
          "type": "uint256"
        }
      ],
      "stateMutability": "view",
      "type": "function"
    },
    {
      "inputs": [
        {
          "internalType": "uint256",
          "name": "",
          "type": "uint256"
        },
        {
          "internalType": "address",
          "name": "",
          "type": "address"
        }
      ],
      "name": "snapshotPoolValidatorStakeAmount",
      "outputs": [
        {
          "internalType": "uint256",
          "name": "",
          "type": "uint256"
        }
      ],
      "stateMutability": "view",
      "type": "function"
    },
    {
      "inputs": [
        {
          "internalType": "address",
          "name": "_toPoolStakingAddress",
          "type": "address"
        }
      ],
      "name": "stake",
      "outputs": [],
      "stateMutability": "payable",
      "type": "function"
    },
    {
      "inputs": [
        {
          "internalType": "address",
          "name": "",
          "type": "address"
        },
        {
          "internalType": "address",
          "name": "",
          "type": "address"
        }
      ],
      "name": "stakeAmount",
      "outputs": [
        {
          "internalType": "uint256",
          "name": "",
          "type": "uint256"
        }
      ],
      "stateMutability": "view",
      "type": "function"
    },
    {
      "inputs": [
        {
          "internalType": "address",
          "name": "_poolStakingAddress",
          "type": "address"
        },
        {
          "internalType": "address",
          "name": "_staker",
          "type": "address"
        }
      ],
      "name": "stakeAmountByCurrentEpoch",
      "outputs": [
        {
          "internalType": "uint256",
          "name": "",
          "type": "uint256"
        }
      ],
      "stateMutability": "view",
      "type": "function"
    },
    {
      "inputs": [
        {
          "internalType": "address",
          "name": "",
          "type": "address"
        }
      ],
      "name": "stakeAmountTotal",
      "outputs": [
        {
          "internalType": "uint256",
          "name": "",
          "type": "uint256"
        }
      ],
      "stateMutability": "view",
      "type": "function"
    },
    {
      "inputs": [],
      "name": "stakingEpoch",
      "outputs": [
        {
          "internalType": "uint256",
          "name": "",
          "type": "uint256"
        }
      ],
      "stateMutability": "view",
      "type": "function"
    },
    {
      "inputs": [],
      "name": "stakingEpochStartBlock",
      "outputs": [
        {
          "internalType": "uint256",
          "name": "",
          "type": "uint256"
        }
      ],
      "stateMutability": "view",
      "type": "function"
    },
    {
      "inputs": [],
      "name": "stakingEpochStartTime",
      "outputs": [
        {
          "internalType": "uint256",
          "name": "",
          "type": "uint256"
        }
      ],
      "stateMutability": "view",
      "type": "function"
    },
    {
      "inputs": [],
      "name": "stakingFixedEpochDuration",
      "outputs": [
        {
          "internalType": "uint256",
          "name": "",
          "type": "uint256"
        }
      ],
      "stateMutability": "view",
      "type": "function"
    },
    {
      "inputs": [],
      "name": "stakingFixedEpochEndTime",
      "outputs": [
        {
          "internalType": "uint256",
          "name": "",
          "type": "uint256"
        }
      ],
      "stateMutability": "view",
      "type": "function"
    },
    {
      "inputs": [],
      "name": "stakingTransitionTimeframeLength",
      "outputs": [
        {
          "internalType": "uint256",
          "name": "",
          "type": "uint256"
        }
      ],
      "stateMutability": "view",
      "type": "function"
    },
    {
      "inputs": [],
      "name": "stakingWithdrawDisallowPeriod",
      "outputs": [
        {
          "internalType": "uint256",
          "name": "",
          "type": "uint256"
        }
      ],
      "stateMutability": "view",
      "type": "function"
    },
    {
      "inputs": [],
      "name": "startTimeOfNextPhaseTransition",
      "outputs": [
        {
          "internalType": "uint256",
          "name": "",
          "type": "uint256"
        }
      ],
      "stateMutability": "view",
      "type": "function"
    },
    {
      "inputs": [],
      "name": "totalStakedAmount",
      "outputs": [
        {
          "internalType": "uint256",
          "name": "",
          "type": "uint256"
        }
      ],
      "stateMutability": "view",
      "type": "function"
    },
    {
      "inputs": [
        {
          "internalType": "address",
          "name": "newOwner",
          "type": "address"
        }
      ],
      "name": "transferOwnership",
      "outputs": [],
      "stateMutability": "nonpayable",
      "type": "function"
    },
    {
      "inputs": [
        {
          "internalType": "address",
          "name": "mining",
          "type": "address"
        },
        {
          "internalType": "uint256",
          "name": "validatorScore",
          "type": "uint256"
        }
      ],
      "name": "updatePoolLikelihood",
      "outputs": [],
      "stateMutability": "nonpayable",
      "type": "function"
    },
    {
      "inputs": [],
      "name": "validatorSetContract",
      "outputs": [
        {
          "internalType": "contract IValidatorSetHbbft",
          "name": "",
          "type": "address"
        }
      ],
      "stateMutability": "view",
      "type": "function"
    },
    {
      "inputs": [
        {
          "internalType": "address",
          "name": "_fromPoolStakingAddress",
          "type": "address"
        },
        {
          "internalType": "uint256",
          "name": "_amount",
          "type": "uint256"
        }
      ],
      "name": "withdraw",
      "outputs": [],
      "stateMutability": "nonpayable",
      "type": "function"
    },
    {
      "stateMutability": "payable",
      "type": "receive"
    }
  ],
  "bytecode": "0x6080604052348015600f57600080fd5b506016601a565b60ca565b7ff0c57e16840df040f15088dc2f81fe391c3923bec73e23a9662efc9c229c6a00805468010000000000000000900460ff161560695760405163f92ee8a960e01b815260040160405180910390fd5b80546001600160401b039081161460c75780546001600160401b0319166001600160401b0390811782556040519081527fc7f505b2f371ae2175ee4913f4499e1f2633a7b5936321eed1cdaeb6115181d29060200160405180910390a15b50565b615f8d806100d96000396000f3fe6080604052600436106105825760003560e01c806384725c76116102d5578063ba08d23711610184578063dfc8bf4e116100e1578063f2fde38b11610095578063f6c578611161006f578063f6c5786114611004578063f9d4d54414611024578063fa4aaf471461105157600080fd5b8063f2fde38b14610fb0578063f3fef3a314610fd0578063f494250114610ff057600080fd5b8063edd7db75116100c6578063edd7db7514610f70578063ee435f5514610f85578063f078609614610f9a57600080fd5b8063dfc8bf4e14610f18578063e9ab030014610f3857600080fd5b8063d0ac76f611610138578063da7a9b6a1161011d578063da7a9b6a14610ec0578063dadee88a14610ed6578063df6f55f514610f0357600080fd5b8063d0ac76f614610e8b578063d290c21d14610eab57600080fd5b8063c6912cc011610169578063c6912cc014610e36578063c6af311a14610e4b578063cfef144114610e6b57600080fd5b8063ba08d23714610df6578063bf348f8614610e1657600080fd5b80639ea8082b11610232578063adddc0cf116101e6578063b0bd5e9e116101cb578063b0bd5e9e14610d89578063b61ed63a14610da9578063b710c15d14610dc957600080fd5b8063adddc0cf14610d5e578063ae1aaf8014610d7357600080fd5b8063a5d54f6511610217578063a5d54f6514610cf1578063a697ecff14610d06578063a711e6a114610d3e57600080fd5b80639ea8082b14610c99578063a420596714610cb957600080fd5b8063957950a7116102895780639b03d7441161026e5780639b03d74414610c4d5780639e6c295914610c635780639e72c63514610c7957600080fd5b8063957950a714610bfb5780639a7b5f1114610c1e57600080fd5b80638da5cb5b116102ba5780638da5cb5b14610b8b578063921e274b14610bc8578063950a651314610bdb57600080fd5b806384725c7614610b3e578063862be28714610b6b57600080fd5b80634e9b426d116104315780637069e7461161038e578063794c0c68116103425780637b15b94c116103275780637b15b94c14610ade5780637d8149db14610afe5780638247a23914610b1e57600080fd5b8063794c0c6814610aa85780637b0a0f9b14610abe57600080fd5b8063728345db11610373578063728345db14610a0257806373c2180314610a38578063750dd2a114610a5857600080fd5b80637069e746146109d7578063715018a6146109ed57600080fd5b80635d80ca32116103e5578063615f2b71116103ca578063615f2b711461095f578063673a2a1f146109955780636bda1577146109b757600080fd5b80635d80ca32146109335780635fef76431461094957600080fd5b80635267e1d6116104165780635267e1d6146108d0578063567e98f9146108fd5780635b4eafe01461091357600080fd5b80634e9b426d1461088d5780634f9a8d8f146108ba57600080fd5b8063251441a9116104df578063379b046a116104935780633f3afe01116104785780633f3afe011461083a5780634160d3861461084d5780634346845f1461086d57600080fd5b8063379b046a146108045780633b7d09461461081a57600080fd5b80632bafde8d116104c45780632bafde8d1461078f5780633219d600146107af57806337154263146107ef57600080fd5b8063251441a91461075c578063264762041461077c57600080fd5b8063159e0a951161053657806320c07cd81161051b57806320c07cd81461071157806322704bdd1461072757806322e3d9861461074757600080fd5b8063159e0a95146106755780631fb31e431461069557600080fd5b80630b770cdf116105675780630b770cdf146105f05780631345b8a5146106285780631555371c1461066057600080fd5b8063028b8bdb146105a55780630ac6e291146105ce57600080fd5b366105a057604051631574f9f360e01b815260040160405180910390fd5b600080fd5b3480156105b157600080fd5b506105bb60145481565b6040519081526020015b60405180910390f35b3480156105da57600080fd5b506105ee6105e93660046154ac565b61107e565b005b3480156105fc57600080fd5b50602454610610906001600160a01b031681565b6040516001600160a01b0390911681526020016105c5565b34801561063457600080fd5b506105bb61064336600461555c565b602160209081526000928352604080842090915290825290205481565b34801561066c57600080fd5b506105ee611615565b34801561068157600080fd5b506105ee61069036600461558c565b611687565b3480156106a157600080fd5b506106df6106b036600461558c565b6001600160a01b03166000908152601e6020526040902060010154608081901b91600160801b90910460f01b90565b604080516fffffffffffffffffffffffffffffffff1990931683526001600160f01b03199091166020830152016105c5565b34801561071d57600080fd5b506105bb6107d081565b34801561073357600080fd5b506105ee6107423660046155a9565b61170a565b34801561075357600080fd5b506105bb611747565b34801561076857600080fd5b506105ee6107773660046155c2565b61178e565b6105ee61078a36600461558c565b61184c565b34801561079b57600080fd5b506105ee6107aa3660046155a9565b6118cf565b3480156107bb57600080fd5b506107df6107ca36600461558c565b601f6020526000908152604090205460ff1681565b60405190151581526020016105c5565b3480156107fb57600080fd5b506105ee611950565b34801561081057600080fd5b506105bb601a5481565b34801561082657600080fd5b506105ee61083536600461558c565b611d4b565b6105ee610848366004615603565b611d81565b34801561085957600080fd5b506105ee610868366004615603565b6120b7565b34801561087957600080fd5b506105ee61088836600461564c565b612156565b34801561089957600080fd5b506108ad6108a836600461558c565b61225c565b6040516105c591906156fd565b3480156108c657600080fd5b506105bb60165481565b3480156108dc57600080fd5b506105bb6108eb36600461558c565b601b6020526000908152604090205481565b34801561090957600080fd5b506105bb601c5481565b34801561091f57600080fd5b506105bb61092e36600461555c565b612308565b34801561093f57600080fd5b506105bb600e5481565b34801561095557600080fd5b506105bb600c5481565b34801561096b57600080fd5b5061061061097a36600461558c565b6025602052600090815260409020546001600160a01b031681565b3480156109a157600080fd5b506109aa612332565b6040516105c59190615710565b3480156109c357600080fd5b506105bb6109d236600461575d565b612343565b3480156109e357600080fd5b506105bb60195481565b3480156109f957600080fd5b506105ee6124c3565b348015610a0e57600080fd5b506105bb610a1d36600461555c565b60208080526000928352604080842090915290825290205481565b348015610a4457600080fd5b506109aa610a5336600461558c565b6124d7565b348015610a6457600080fd5b506105bb610a7336600461575d565b6001600160a01b039182166000908152600b602090815260408083209390941682529182528281206015548252909152205490565b348015610ab457600080fd5b506105bb60155481565b348015610aca57600080fd5b506105ee610ad93660046157c4565b6124fb565b348015610aea57600080fd5b506105ee610af936600461558c565b612578565b348015610b0a57600080fd5b506105ee610b19366004615809565b6125df565b348015610b2a57600080fd5b506105ee610b393660046155a9565b612661565b348015610b4a57600080fd5b506105bb610b5936600461558c565b60266020526000908152604090205481565b348015610b7757600080fd5b506105ee610b86366004615866565b612694565b348015610b9757600080fd5b507f9016d09d72d40fdae2fd8ceac6b6234c7706214fd39c1cd1e609a0528c199300546001600160a01b0316610610565b6105ee610bd63660046158cb565b6126f7565b348015610be757600080fd5b506105bb610bf636600461575d565b612840565b348015610c0757600080fd5b50610c10612988565b6040516105c5929190615989565b348015610c2a57600080fd5b50610c3e610c3936600461558c565b6129eb565b6040516105c5939291906159ab565b348015610c5957600080fd5b506105bb60185481565b348015610c6f57600080fd5b506105bb61271081565b348015610c8557600080fd5b506105ee610c943660046155a9565b612a9f565b348015610ca557600080fd5b506109aa610cb436600461558c565b612aea565b348015610cc557600080fd5b506105bb610cd436600461575d565b601160209081526000928352604080842090915290825290205481565b348015610cfd57600080fd5b506109aa612b0e565b348015610d1257600080fd5b506105bb610d2136600461575d565b601360209081526000928352604080842090915290825290205481565b348015610d4a57600080fd5b506107df610d5936600461558c565b612b70565b348015610d6a57600080fd5b506105ee612b7c565b348015610d7f57600080fd5b506105bb60175481565b348015610d9557600080fd5b506105ee610da43660046155a9565b612bc1565b348015610db557600080fd5b506105ee610dc4366004615603565b612bf0565b348015610dd557600080fd5b50610de9610de4366004615a08565b612f57565b6040516105c59190615ab9565b348015610e0257600080fd5b506107df610e11366004615ae7565b613007565b348015610e2257600080fd5b50610de9610e31366004615809565b6131e2565b348015610e4257600080fd5b506105bb613287565b348015610e5757600080fd5b506105ee610e66366004615603565b6132a6565b348015610e7757600080fd5b506105ee610e8636600461558c565b613350565b348015610e9757600080fd5b506105ee610ea636600461555c565b613523565b348015610eb757600080fd5b506109aa613662565b348015610ecc57600080fd5b506105bb600d5481565b348015610ee257600080fd5b506105bb610ef136600461558c565b60106020526000908152604090205481565b348015610f0f57600080fd5b506109aa61366e565b348015610f2457600080fd5b50601d54610610906001600160a01b031681565b348015610f4457600080fd5b506105bb610f5336600461575d565b600f60209081526000928352604080842090915290825290205481565b348015610f7c57600080fd5b506105ee61367a565b348015610f9157600080fd5b506105ee6137ba565b348015610fa657600080fd5b506105bb610bb881565b348015610fbc57600080fd5b506105ee610fcb36600461558c565b613800565b348015610fdc57600080fd5b506105ee610feb366004615603565b61383b565b348015610ffc57600080fd5b5060016107df565b34801561101057600080fd5b506107df61101f36600461558c565b6138f4565b34801561103057600080fd5b506105bb61103f36600461558c565b60276020526000908152604090205481565b34801561105d57600080fd5b506105bb61106c36600461558c565b60126020526000908152604090205481565b7ff0c57e16840df040f15088dc2f81fe391c3923bec73e23a9662efc9c229c6a00805468010000000000000000810460ff16159067ffffffffffffffff166000811580156110c95750825b905060008267ffffffffffffffff1660011480156110e65750303b155b9050811580156110f4575080155b156111125760405163f92ee8a960e01b815260040160405180910390fd5b845467ffffffffffffffff19166001178555831561114657845468ff00000000000000001916680100000000000000001785555b6001600160a01b038b1661116d5760405163d92e233d60e01b815260040160405180910390fd5b6111768a613911565b8761118460408c018c615b03565b61119091506002615b63565b146111ad5760405162d6988760e81b815260040160405180910390fd5b856111bb60408c018c615b03565b9050146111db576040516320041afd60e01b815260040160405180910390fd5b6111e48b613a74565b6111ec613a85565b6111f960208b018b61558c565b601d80546001600160a01b0319166001600160a01b039290921691909117905561122960408b0160208c0161558c565b602480546001600160a01b0319166001600160a01b039290921691909117905536600061125960408d018d615b03565b9150915060005b8181101561147c57600083838381811061127c5761127c615b7a565b9050602002016020810190611291919061558c565b6001600160a01b0316036112b85760405163d92e233d60e01b815260040160405180910390fd5b6112e98383838181106112cd576112cd615b7a565b90506020020160208101906112e2919061558c565b6000613a95565b6113188383838181106112fe576112fe615b7a565b9050602002016020810190611313919061558c565b613af5565b8b8b611325836002615b63565b81811061133457611334615b7a565b905060200201358c8c83600261134a9190615b63565b611355906001615b90565b81811061136457611364615b7a565b90506020020135604051602001611385929190918252602082015260400190565b604051602081830303815290604052601e60008585858181106113aa576113aa615b7a565b90506020020160208101906113bf919061558c565b6001600160a01b031681526020810191909152604001600020906113e39082615c2d565b508989828181106113f6576113f6615b7a565b905060200201602081019061140b9190615ced565b601e600085858581811061142157611421615b7a565b9050602002016020810190611436919061558c565b6001600160a01b031681526020810191909152604001600020600190810180546fffffffffffffffffffffffffffffffff191660809390931c9290921790915501611260565b5060408051600580825260c082019092526000916020820160a0803683370190505090506802b5e3af16b1880000816000815181106114bd576114bd615b7a565b60200260200101818152505068056bc75e2d63100000816001815181106114e6576114e6615b7a565b602002602001018181525050680821ab0d44149800008160028151811061150f5761150f615b7a565b602002602001018181525050680ad78ebc5ac62000008160038151811061153857611538615b7a565b602002602001018181525050680d8d726b7177a800008160048151811061156157611561615b7a565b6020908102919091010152611585632bafde8d60e01b636d3d4db560e11b83613b0a565b50505060608a0135600d5560808a0135600c5560a08a0135600e5560c08a01356016556101008a01356014554260185560e08a0135601755831561160857845468ff000000000000000019168555604051600181527fc7f505b2f371ae2175ee4913f4499e1f2633a7b5936321eed1cdaeb6115181d29060200160405180910390a15b5050505050505050505050565b601d546001600160a01b0316331461163f576040516282b42960e81b815260040160405180910390fd5b600061164b6004613bbf565b905060005b81518110156116835761167b82828151811061166e5761166e615b7a565b6020026020010151613bd3565b600101611650565b5050565b61168f613c19565b6001600160a01b0381166116b65760405163d92e233d60e01b815260040160405180910390fd5b602480546001600160a01b0319166001600160a01b0383169081179091556040519081527fd4244d1f8acb4860e17399636c6b7875c75656aafb5cb3d0163d7305eace71729060200160405180910390a150565b611712613c19565b600a8111158061172457506016548110155b1561174257604051638826666f60e01b815260040160405180910390fd5b601755565b601854601654600091901561175d576001611760565b60005b60ff16601a54601654836117749190615b90565b61177e9190615b90565b6117889190615d08565b91505090565b3a6000036117af57604051630e661aed60e41b815260040160405180910390fd5b816001600160a01b0316836001600160a01b0316036117e157604051630a5eddd560e01b815260040160405180910390fd5b336117ed848284613c74565b6117f8838284613f22565b601554604080516001600160a01b0387811682526020820186905280851692908716917f4480d8e4b1e9095b94bf513961d26fe1d32386ebdd103d18fe8738cf4b2223ff910160405180910390a450505050565b3a60000361186d57604051630e661aed60e41b815260040160405180910390fd5b333461187a838383613f22565b601554826001600160a01b0316846001600160a01b03167f2273de02cb1f69ba6259d22c4bc22c60e4c94c193265ef6afee324a04a9b6d22846040516118c291815260200190565b60405180910390a4505050565b6118d7613c19565b806118ee6000356001600160e01b03191682613007565b611913576040516373330d9b60e01b8152600481018290526024015b60405180910390fd5b600d8290556040518281527ffee02ce7aa40f9c49eaabd26d404fa88714b97cb209af8954cfd5eeb8213b93e906020015b60405180910390a15050565b3a60000361197157604051630e661aed60e41b815260040160405180910390fd5b60008061197e6002613bbf565b905080516000036119a257604051631c369b4560e21b815260040160405180910390fd5b60005b8151811015611b8a5760008282815181106119c2576119c2615b7a565b602002602001015190506119d581614273565b80611a4b5750601d54604051639d6fc1d160e01b81526001600160a01b03838116600483015290911690639d6fc1d190602401602060405180830381865afa158015611a25573d6000803e3d6000fd5b505050506040513d601f19601f82011682018060405250810190611a499190615d1b565b155b15611a565750611b82565b611a616002826142b1565b506001600160a01b0381166000908152601f60209081526040808320805460ff19166001179055601b9091528120805490829055601c805491928392611aa8908490615d08565b9091555060009050611ab983612aea565b905060005b8151811015611b24576000828281518110611adb57611adb615b7a565b6020908102919091018101516001600160a01b0380881660009081526013845260408082209284168252919093528220919091559050611b1b85826142c6565b50600101611abe565b50611b2f8287615b90565b9550826001600160a01b0316336001600160a01b03167f8e6a4ccd7dccdca9ac211d00fcc3fa7c71be75ff73d3a35f63ea023173cc100484604051611b7691815260200190565b60405180910390a35050505b6001016119a5565b5081600003611bac57604051631c369b4560e21b815260040160405180910390fd5b6000611bb9600284615d3d565b90506000611bc78285615d08565b90506000601d60009054906101000a90046001600160a01b03166001600160a01b03166356b54bae6040518163ffffffff1660e01b8152600401602060405180830381865afa158015611c1e573d6000803e3d6000fd5b505050506040513d601f19601f82011682018060405250810190611c429190615d5f565b90506000816001600160a01b031663732524946040518163ffffffff1660e01b8152600401602060405180830381865afa158015611c84573d6000803e3d6000fd5b505050506040513d601f19601f82011682018060405250810190611ca89190615d5f565b9050816001600160a01b031663af182535846040518263ffffffff1660e01b81526004016000604051808303818588803b158015611ce557600080fd5b505af1158015611cf9573d6000803e3d6000fd5b5050505050611d088185614328565b604080518481526020810186905233917f1c113e6bae9530fea40323e612aeb0cb7817dedb5a0b0f6bdfbff97d55920dc7910160405180910390a2505050505050565b601d546001600160a01b03163314611d75576040516282b42960e81b815260040160405180910390fd5b611d7e81613bd3565b50565b601d60009054906101000a90046001600160a01b03166001600160a01b03166356b54bae6040518163ffffffff1660e01b8152600401602060405180830381865afa158015611dd4573d6000803e3d6000fd5b505050506040513d601f19601f82011682018060405250810190611df89190615d5f565b6001600160a01b0316336001600160a01b031614611e28576040516282b42960e81b815260040160405180910390fd5b3415611683576015546000908152602080805260408083206001600160a01b03861684529091528120543491611e5f8584866143cf565b90506000611e6c86612aea565b905060005b8151811015611fbb57600084611ea36015548a868681518110611e9657611e96615b7a565b60200260200101516144ee565b8560400151611eb29190615b63565b611ebc9190615d3d565b905080601360008a6001600160a01b03166001600160a01b031681526020019081526020016000206000858581518110611ef857611ef8615b7a565b60200260200101516001600160a01b03166001600160a01b031681526020019081526020016000206000828254611f2f9190615b90565b90915550506001600160a01b0388166000908152600b602052604081208451839290869086908110611f6357611f63615b7a565b60200260200101516001600160a01b03166001600160a01b03168152602001908152602001600020600060155481526020019081526020016000206000828254611fad9190615b90565b909155505050600101611e71565b50602082015115611fd457611fd486836020015161458f565b81516001600160a01b038716600090815260136020908152604080832090915281208054909190612006908490615b90565b90915550506001600160a01b0386166000908152601b602052604081208054869290612033908490615b90565b9250508190555083601c600082825461204c9190615b90565b9091555061205b905086614656565b60155482516001600160a01b038816907f72093068b9f28053bd924ac15d7710b987f9b6ef1e0f89f47d8b4bd7cac776dc906120978189615d08565b6040805192835260208301919091520160405180910390a3505050505050565b601d546040516253517560e01b81523360048201526000916001600160a01b0316906253517590602401602060405180830381865afa1580156120fe573d6000803e3d6000fd5b505050506040513d601f19601f820116820180604052508101906121229190615d5f565b6001600160a01b03160361214b57604051632670461960e11b815233600482015260240161190a565b611683338383614742565b61215e613c19565b600061216861487a565b90506040518060400160405280857bffffffffffffffffffffffffffffffffffffffffffffffffffffffff1916815260200184848080602002602001604051908101604052809392919081815260200183836020028082843760009201829052509390945250506001600160e01b031988168152602084815260409091208351815463ffffffff191660e09190911c1781558382015180519193506122149260018501929101906153d1565b509050507f3665bf9cd0ba4ddceeec259e21dcf8a4510f3b1130bd42e950828e69d85408ba8585858560405161224d9493929190615d7c565b60405180910390a15050505050565b6001600160a01b0381166000908152601e6020526040902080546060919061228390615ba3565b80601f01602080910402602001604051908101604052809291908181526020018280546122af90615ba3565b80156122fc5780601f106122d1576101008083540402835291602001916122fc565b820191906000526020600020905b8154815290600101906020018083116122df57829003601f168201915b50505050509050919050565b60008281526021602090815260408083206001600160a01b03851684529091529020545b92915050565b606061233e6000613bbf565b905090565b601d546040516253517560e01b81526001600160a01b03848116600483015260009283929116906253517590602401602060405180830381865afa15801561238f573d6000803e3d6000fd5b505050506040513d601f19601f820116820180604052508101906123b39190615d5f565b90506001600160a01b0384166000908152601f602052604090205460ff16156123e057600091505061232c565b6001600160a01b03848116600090815260136020908152604080832087851684529091529081902054601d54915163a0d16cad60e01b815284841660048201529092919091169063a0d16cad90602401602060405180830381865afa15801561244d573d6000803e3d6000fd5b505050506040513d601f19601f820116820180604052508101906124719190615d1b565b61247e57915061232c9050565b6001600160a01b038581166000908152600b602090815260408083209388168352928152828220601554835290522054808211156124ba578091505b50949350505050565b6124cb613c19565b6124d560006148dc565b565b6001600160a01b0381166000908152600a6020526040902060609061232c90613bbf565b601d546001600160a01b03163314612525576040516282b42960e81b815260040160405180910390fd5b6001600160a01b039092166000908152601e60205260409020600101805460f09390931c600160801b0271ffffffffffffffffffffffffffffffffffff1990931660809290921c91909117919091179055565b601d546001600160a01b031633146125a2576040516282b42960e81b815260040160405180910390fd5b600c546001600160a01b038216600090815260136020908152604080832090915290205410611d7e576125d6816001613a95565b611d7e81614656565b6125e7613c19565b60006125f161487a565b6001600160e01b031983166000908152602082905260408120805463ffffffff19168155919250612625600183018261541c565b50506040516001600160e01b0319831681527fed27cb02231782dadf13473a7828cb980c4d685791b7a3136dde00f8c3594cb690602001611944565b601d546001600160a01b0316331461268b576040516282b42960e81b815260040160405180910390fd5b60185543601955565b336000908152601e602052604090206126ae848683615de9565b50336000908152601e60205260409020600101805460f09290921c600160801b0271ffffffffffffffffffffffffffffffffffff1990921660809390931c929092171790555050565b3a60000361271857604051630e661aed60e41b815260040160405180910390fd5b601d54604051630526083960e11b81526001600160a01b0388811660048301523360248301819052923492911690630a4c107290604401600060405180830381600087803b15801561276957600080fd5b505af115801561277d573d6000803e3d6000fd5b505050506001600160a01b0382166000908152601e602052604090206127a4858783615de9565b506001600160a01b0382166000908152601e6020526040902060010180546fffffffffffffffffffffffffffffffff1916608085901c1790556127e8828888614742565b6127f3828383613f22565b6015546040518281526001600160a01b0384169081907f2273de02cb1f69ba6259d22c4bc22c60e4c94c193265ef6afee324a04a9b6d229060200160405180910390a45050505050505050565b601d546040516253517560e01b81526001600160a01b03848116600483015260009283929116906253517590602401602060405180830381865afa15801561288c573d6000803e3d6000fd5b505050506040513d601f19601f820116820180604052508101906128b09190615d5f565b9050601d5460405163a0d16cad60e01b81526001600160a01b0383811660048301529091169063a0d16cad90602401602060405180830381865afa1580156128fc573d6000803e3d6000fd5b505050506040513d601f19601f820116820180604052508101906129209190615d1b565b61292e57600091505061232c565b6001600160a01b038481166000818152600b6020908152604080832094881680845294825280832060155484528252808320549383526013825280832094835293905291909120546129809190615d08565b949350505050565b606060006007600854818054806020026020016040519081016040528092919081815260200182805480156129dc57602002820191906000526020600020905b8154815260200190600101908083116129c8575b50505050509150915091509091565b601e60205260009081526040902080548190612a0690615ba3565b80601f0160208091040260200160405190810160405280929190818152602001828054612a3290615ba3565b8015612a7f5780601f10612a5457610100808354040283529160200191612a7f565b820191906000526020600020905b815481529060010190602001808311612a6257829003601f168201915b50505060019093015491925050608081901b90600160801b900460f01b83565b601d546001600160a01b03163314612ac9576040516282b42960e81b815260040160405180910390fd5b60175481601a54612ada9190615b90565b612ae49190615b90565b601a5550565b6001600160a01b038116600090815260096020526040902060609061232c90613bbf565b60606006805480602002602001604051908101604052809291908181526020018280548015612b6657602002820191906000526020600020905b81546001600160a01b03168152600190910190602001808311612b48575b5050505050905090565b600061232c818361494d565b601d546001600160a01b03163314612ba6576040516282b42960e81b815260040160405180910390fd5b601754601a6000828254612bba9190615b90565b9091555050565b612bc9613c19565b6017548111612beb5760405163160ac89160e31b815260040160405180910390fd5b601655565b3a600003612c1157604051630e661aed60e41b815260040160405180910390fd5b6001600160a01b038216612c385760405163d92e233d60e01b815260040160405180910390fd5b80600003612c5957604051633ca0029d60e01b815260040160405180910390fd5b6001600160a01b0382166000818152600f602090815260408083203380855290835281842054858552601084528285205460138552838620838752855283862054968652601b9094529184205490949193861315612d6357856000612cbe8988612840565b905080821115612ceb57604051632de4882160e01b8152600481018290526024810183905260440161190a565b612cf58287615b90565b9550612d018286615b90565b9450612d0d8285615d08565b9350612d198284615d08565b925081601c6000828254612d2d9190615d08565b90915550506015546001600160a01b03808b166000908152601160209081526040808320938c168352929052205550612db99050565b6000612d6e87615eaa565b9050612d7a8186615d08565b9450612d868185615d08565b9350612d928184615b90565b9250612d9e8183615b90565b915080601c6000828254612db29190615b90565b9091555050505b6001600160a01b038088166000818152600f60209081526040808320948a1680845294825280832089905583835260108252808320889055601382528083208584528252808320879055838352601b90915290208390559003612e88578115801590612e265750600c5482105b15612e5e57604051636fe84f3d60e01b81526001600160a01b038089166004830152861660248201526044810187905260640161190a565b6000861315612e7d5781600003612e7857612e7887613af5565b612ef5565b612e78876001613a95565b8115801590612e985750600d5482105b15612ed057604051636fe84f3d60e01b81526001600160a01b038089166004830152861660248201526044810187905260640161190a565b6000861315612eeb5781600003612e7857612e7887866142c6565b612ef5878661496f565b612efe87614656565b601554856001600160a01b0316886001600160a01b03167f80d5c777e5f7ac6ee89723223803ca5c0ec0204f89e99c1b0cde973c66a6459489604051612f4691815260200190565b60405180910390a450505050505050565b604080518082019091526000815260606020820152612f7461487a565b82516020808501919091206001600160e01b0319908116600090815292825260409283902083518085018552815460e01b9092168252600181018054855181860281018601909652808652929491938581019390830182828015612ff757602002820191906000526020600020905b815481526020019060010190808311612fe3575b5050505050815250509050919050565b60008061301261487a565b6001600160e01b031980861660009081526020838152604080832081518083018352815460e01b9095168552600181018054835181860281018601909452808452969750939590938584019390919083018282801561309057602002820191906000526020600020905b81548152602001906001019080831161307c575b50505050508152505090508060200151516000036130b35760009250505061232c565b602081015181516000906130c69061499c565b905060005b82518110156131d457818382815181106130e7576130e7615b7a565b6020026020010151036131cc57600080821161311d578360008151811061311057613110615b7a565b6020026020010151613142565b83613129600184615d08565b8151811061313957613139615b7a565b60200260200101515b90506000600185516131549190615d08565b83106131865784600186516131699190615d08565b8151811061317957613179615b7a565b60200260200101516131ab565b84613192846001615b90565b815181106131a2576131a2615b7a565b60200260200101515b90508189141580156131bd5750808914155b1597505050505050505061232c565b6001016130cb565b506000979650505050505050565b6040805180820190915260008152606060208201526131ff61487a565b6001600160e01b03198084166000908152602092835260409081902081518083018352815460e01b9093168352600181018054835181870281018701909452808452939491938583019392830182828015612ff75760200282019190600052602060002090815481526020019060010190808311612fe3575050505050815250509050919050565b600060175460165460185461329c9190615b90565b61233e9190615d08565b6024546001600160a01b031633146132d0576040516282b42960e81b815260040160405180910390fd5b601d546040516307b9342f60e21b81526001600160a01b0384811660048301526000921690631ee4d0bc90602401602060405180830381865afa15801561331b573d6000803e3d6000fd5b505050506040513d601f19601f8201168201806040525081019061333f9190615d5f565b905061334b8183614a73565b505050565b3a60000361337157604051630e661aed60e41b815260040160405180910390fd5b613379614b1d565b6001600160a01b038116600090815260116020908152604080832033808552925290912054601554116133d257604051630b06352b60e31b81526001600160a01b0380841660048301528216602482015260440161190a565b6001600160a01b038083166000908152600f602090815260408083209385168352929052908120549081900361341b57604051633ca0029d60e01b815260040160405180910390fd5b6001600160a01b038084166000818152600f6020908152604080832094871683529381528382208290559181526010909152205461345a908290615d08565b6001600160a01b038085166000908152601060209081526040808320949094556013815283822092861682529190915290812054900361349e5761349e8383614b67565b6134a88282614328565b601554826001600160a01b0316846001600160a01b03167ff380b0bc887e00f5b50d3c9d4eaaf5c9a0afd97b956316b995159384c4ede9b3846040516134f091815260200190565b60405180910390a45050611d7e60017f9b779b17422d0df92223018b32b4d1fa46e071723d6817e2486d003becc55f0055565b601d60009054906101000a90046001600160a01b03166001600160a01b03166356b54bae6040518163ffffffff1660e01b8152600401602060405180830381865afa158015613576573d6000803e3d6000fd5b505050506040513d601f19601f8201168201806040525081019061359a9190615d5f565b6001600160a01b0316336001600160a01b0316146135ca576040516282b42960e81b815260040160405180910390fd5b6000828152602080805260408083206001600160a01b03851684529091528120549003611683576001600160a01b0381166000908152601b60205260408120549081900361361757505050565b6000838152602080805260408083206001600160a01b038616808552908352818420949094556013825280832082528083205486845260218352818420948452939091529020555050565b606061233e6004613bbf565b606061233e6002613bbf565b3a60000361369b57604051630e661aed60e41b815260040160405180910390fd5b601d546040516253517560e01b81523360048201819052916000916001600160a01b03909116906253517590602401602060405180830381865afa1580156136e7573d6000803e3d6000fd5b505050506040513d601f19601f8201168201806040525081019061370b9190615d5f565b905060155460001480156137885750601d5460405163facd743b60e01b81526001600160a01b0383811660048301529091169063facd743b90602401602060405180830381865afa158015613764573d6000803e3d6000fd5b505050506040513d601f19601f820116820180604052508101906137889190615d1b565b156137b1576040516303d71f2d60e51b81526001600160a01b038316600482015260240161190a565b61168382613bd3565b601d546001600160a01b031633146137e4576040516282b42960e81b815260040160405180910390fd5b601580549060006137f483615ec6565b90915550506000601a55565b613808613c19565b6001600160a01b03811661383257604051631e4fbdf760e01b81526000600482015260240161190a565b611d7e816148dc565b3a60000361385c57604051630e661aed60e41b815260040160405180910390fd5b613864614b1d565b33613870838284613c74565b61387a8183614328565b601554816001600160a01b0316846001600160a01b03167fa7c0f0cac6bd4d18042007706c84a8abe823751cf289b69c01e83eef7b5915c7856040516138c291815260200190565b60405180910390a45061168360017f9b779b17422d0df92223018b32b4d1fa46e071723d6817e2486d003becc55f0055565b6000613900818361494d565b8061232c575061232c60028361494d565b60c0810135158061392b57508061010001358160c0013511155b156139495760405163c671116b60e01b815260040160405180910390fd5b80610100013560000361396f576040516332154b4760e01b815260040160405180910390fd5b60e0810135158061398857508060c001358160e0013510155b156139a657604051630685efe960e01b815260040160405180910390fd5b60006139b5602083018361558c565b6001600160a01b0316036139dc5760405163d92e233d60e01b815260040160405180910390fd5b6139e96040820182615b03565b9050600003613a0b57604051635c9a24ed60e11b815260040160405180910390fd5b60608101351580613a1e57506080810135155b15613a4c5760405163633373e160e11b8152608082013560048201526060820135602482015260440161190a565b80608001358160a0013511611d7e57604051631c6d3b1560e01b815260040160405180910390fd5b613a7c614cbd565b611d7e81614d0b565b613a8d614cbd565b6124d5614d13565b613a9e82612b70565b613ada57613aad600083614d1b565b50610bb8613abb6000614d30565b1115613ada5760405163398dcd9d60e21b815260040160405180910390fd5b613ae56002836142b1565b5080156116835761168382614d3a565b613b00600482614d1b565b50611d7e81614e2f565b613b12614cbd565b6000613b1c61487a565b6040805180820182526001600160e01b0319868116825260208083018781529189166000908152858252939093208251815463ffffffff191660e09190911c1781559051805194955091939092613b7a9260018501929101906153d1565b509050507f3665bf9cd0ba4ddceeec259e21dcf8a4510f3b1130bd42e950828e69d85408ba848484604051613bb193929190615edf565b60405180910390a150505050565b60606000613bcc8361504c565b9392505050565b613bde6000826142b1565b50613be881614273565b15613bfe57613bf86002826142b1565b50613c07565b613c07816150a7565b613c1081614e2f565b611d7e816150b2565b33613c4b7f9016d09d72d40fdae2fd8ceac6b6234c7706214fd39c1cd1e609a0528c199300546001600160a01b031690565b6001600160a01b0316146124d55760405163118cdaa760e01b815233600482015260240161190a565b6001600160a01b038316613c9b5760405163d92e233d60e01b815260040160405180910390fd5b80600003613cbc57604051633ca0029d60e01b815260040160405180910390fd5b6000613cc88484612343565b905080821115613cf557604051632de4882160e01b8152600481018290526024810183905260440161190a565b6001600160a01b038085166000908152601360209081526040808320938716835292905290812054613d28908490615d08565b90506000846001600160a01b0316866001600160a01b031614613d4d57600d54613d51565b600c545b90508115801590613d6157508082105b15613d9957604051639e612d5760e01b81526001600160a01b038088166004830152861660248201526044810185905260640161190a565b856001600160a01b0316856001600160a01b031614613e2e57601d546040516253517560e01b81526001600160a01b03888116600483015260009216906253517590602401602060405180830381865afa158015613dfb573d6000803e3d6000fd5b505050506040513d601f19601f82011682018060405250810190613e1f9190615d5f565b9050613e2c8782886150bd565b505b6001600160a01b038681166000818152601360209081526040808320948a16808452948252808320879055928252600b8152828220938252928352818120601554825290925290205484811015613e86576000613e90565b613e908582615d08565b6001600160a01b038089166000818152600b60209081526040808320948c1683529381528382206015548352815283822094909455908152601b90925281208054879290613edf908490615d08565b9250508190555084601c6000828254613ef89190615d08565b90915550506000839003613f1057613f108787614b67565b613f1987614656565b50505050505050565b6001600160a01b038316613f495760405163d92e233d60e01b815260040160405180910390fd5b601d546040516253517560e01b81526001600160a01b03858116600483015260009216906253517590602401602060405180830381865afa158015613f92573d6000803e3d6000fd5b505050506040513d601f19601f82011682018060405250810190613fb69190615d5f565b90506001600160a01b038116613fea57604051632670461960e11b81526001600160a01b038516600482015260240161190a565b8160000361401e5760405163e59f5c3960e01b81526001600160a01b0380861660048301528416602482015260440161190a565b6001600160a01b0384166000908152601f602052604090205460ff16156140635760405163078137eb60e41b81526001600160a01b038516600482015260240161190a565b6001600160a01b03808516600081815260136020908152604080832094881680845294909152812054929091149161409c908590615b90565b9050600082156140af5750600c546140fe565b50600d546001600160a01b038716600090815260136020908152604080832090915281205490036140fe5760405163cbbeb0bd60e01b81526001600160a01b038816600482015260240161190a565b808210156141325760405163e59f5c3960e01b81526001600160a01b0380891660048301528716602482015260440161190a565b600e546001600160a01b0388166000908152601b6020526040902054614159908790615b90565b111561418b57604051632c2b174160e21b81526001600160a01b0380891660048301528716602482015260440161190a565b6001600160a01b038088166000908152600b60209081526040808320938a1683529281528282206015548352905290812080548792906141cc908490615b90565b90915550506001600160a01b0387166000908152601b6020526040812080548792906141f9908490615b90565b9250508190555084601c60008282546142129190615b90565b9091555050821561422d57614228876001613a95565b614242565b614237878761496f565b6142428785886150bd565b6001600160a01b038088166000908152601360209081526040808320938a16835292905220829055613f1987614656565b6001600160a01b0381166000908152601b602052604081205415801561232c5750506001600160a01b03166000908152601060205260409020541590565b6000613bcc836001600160a01b0384166151d9565b6001600160a01b03821660009081526009602052604090206142e890826142b1565b506001600160a01b038083166000908152600f60209081526040808320938516835292905220541561431e5761168382826152cc565b61168382826152ee565b8047101561434957604051631e9acf1760e31b815260040160405180910390fd5b6000826001600160a01b03168260405160006040518083038185875af1925050503d8060008114614396576040519150601f19603f3d011682016040523d82523d6000602084013e61439b565b606091505b505090508061334b57604051630e21dcbb60e11b81526001600160a01b03841660048201526024810183905260440161190a565b6143f360405180606001604052806000815260200160008152602001600081525090565b6015546000818152602080805260408083206001600160a01b03891680855290835281842054948452602183528184209084529091528120549060646144398688615b63565b6144439190615d3d565b905061444f8187615d08565b6040808601919091526001600160a01b0380891660009081526026602090815283822054602590915292902054161580159061448a57508015155b156144ac5761271061449c8289615b63565b6144a69190615d3d565b60208601525b838386604001516144bd9190615b63565b6144c79190615d3d565b60208601516144d69084615d08565b6144e09190615b90565b855250929695505050505050565b60008360000361450057506000613bcc565b6001600160a01b0380841660009081526023602090815260408083209386168352929052205484900361456157506001600160a01b038083166000908152602260209081526040808320938516835292815282822086835290522054613bcc565b506001600160a01b038083166000908152601360209081526040808320938516835292905220549392505050565b6001600160a01b0380831660009081526025602090815260408083205460099092529091209116906145c1908261494d565b6145cf576145cf838261496f565b6001600160a01b03808416600090815260136020908152604080832093851683529290529081208054849290614606908490615b90565b90915550506001600160a01b038084166000908152600b60209081526040808320938516835292815282822060155483529052908120805484929061464c908490615b90565b9091555050505050565b601d546040516253517560e01b81526001600160a01b03838116600483015260009216906253517590602401602060405180830381865afa15801561469f573d6000803e3d6000fd5b505050506040513d601f19601f820116820180604052508101906146c39190615d5f565b60248054604051633941e77760e21b81526001600160a01b0380851660048301529394506000939091169163e5079ddc9101602060405180830381865afa158015614712573d6000803e3d6000fd5b505050506040513d601f19601f820116820180604052508101906147369190615f0c565b905061334b8382614a73565b6107d08111156147685760405163e429b69160e01b81526004810182905260240161190a565b6001600160a01b03821615801561477e57508015155b156147ae5760405163073c315960e11b81526001600160a01b03831660048201526024810182905260440161190a565b6001600160a01b03831660009081526027602052604090205480158015906147d7575060155481145b156147fb5760155460405163e7cbc70160e01b815260040161190a91815260200190565b6001600160a01b03848116600081815260256020908152604080832080546001600160a01b03191695891695861790556026825280832087905560155460278352928190209290925590518581527fd6ae57aa2cc060d4094c47d20c672afe0e53963e6459c15cab215abb8c88b863910160405180910390a350505050565b60008060ff196148ab60017fdace3fd3d1fbdfd33853f19ba191d28c617e373ec58fc73cf7b58db5aff2c2ab615d08565b6040516020016148bd91815260200190565b60408051601f1981840301815291905280516020909101201692915050565b7f9016d09d72d40fdae2fd8ceac6b6234c7706214fd39c1cd1e609a0528c19930080546001600160a01b031981166001600160a01b03848116918217845560405192169182907f8be0079c531659141344cd1fd0a4f28419497f9722a3daafe3b4186f6b6457e090600090a3505050565b6001600160a01b03811660009081526001830160205260408120541515613bcc565b6001600160a01b03821660009081526009602052604090206149919082614d1b565b5061168382826152ee565b60408051600481526024810182526020810180517bffffffffffffffffffffffffffffffffffffffffffffffffffffffff166001600160e01b031985161790529051600091908290819030906149f3908590615f25565b600060405180830381855afa9150503d8060008114614a2e576040519150601f19603f3d011682016040523d82523d6000602084013e614a33565b606091505b509150915081614a5657604051635fbab09b60e11b815260040160405180910390fd5b80806020019051810190614a6a9190615f0c565b95945050505050565b600080614a7f84615310565b9150915081614a8e5750505050565b600060078281548110614aa357614aa3615b7a565b60009182526020808320909101546001600160a01b0388168352601b9091526040822054909250614ad5908690615b63565b90508060078481548110614aeb57614aeb615b7a565b90600052602060002001819055508082600854614b089190615d08565b614b129190615b90565b600855505050505050565b7f9b779b17422d0df92223018b32b4d1fa46e071723d6817e2486d003becc55f00805460011901614b6157604051633ee5aeb560e01b815260040160405180910390fd5b60029055565b816001600160a01b0316816001600160a01b031603614c7457601d546040516253517560e01b81526001600160a01b03848116600483015260009216906253517590602401602060405180830381865afa158015614bc9573d6000803e3d6000fd5b505050506040513d601f19601f82011682018060405250810190614bed9190615d5f565b601d5460405163facd743b60e01b81526001600160a01b03808416600483015292935091169063facd743b90602401602060405180830381865afa158015614c39573d6000803e3d6000fd5b505050506040513d601f19601f82011682018060405250810190614c5d9190615d1b565b15614c6b5761334b83613af5565b61334b83613bd3565b614c7e82826142c6565b614c8782614273565b156116835761334b6002836142b1565b60017f9b779b17422d0df92223018b32b4d1fa46e071723d6817e2486d003becc55f0055565b7ff0c57e16840df040f15088dc2f81fe391c3923bec73e23a9662efc9c229c6a005468010000000000000000900460ff166124d557604051631afcd79f60e31b815260040160405180910390fd5b613808614cbd565b614c97614cbd565b6000613bcc836001600160a01b038416615382565b600061232c825490565b6001600160a01b0381166000908152601260205260409020546006548082101580614d955750826001600160a01b031660068381548110614d7d57614d7d615b7a565b6000918252602090912001546001600160a01b031614155b15614e26576001600160a01b03831660008181526012602052604081208390556006805460018181019092557ff652222313e28459528d920b65115c16c04f3efc82aaedc97be59f3f377c0d3f0180546001600160a01b03191690931790925560078054928301815581527fa66cc928b5edb82af9bd49922954155ab7b0942694bea4ce44661d9a8736c688909101555b61334b836150b2565b60075460065414614e3d5750565b6001600160a01b03811660009081526012602052604090205460065481108015614e965750816001600160a01b031660068281548110614e7f57614e7f615b7a565b6000918252602090912001546001600160a01b0316145b156116835760078181548110614eae57614eae615b7a565b906000526020600020015460085410614efb5760078181548110614ed457614ed4615b7a565b906000526020600020015460086000828254614ef09190615d08565b90915550614f019050565b60006008555b600654600090614f1390600190615d08565b9050600060068281548110614f2a57614f2a615b7a565b600091825260209091200154600680546001600160a01b039092169250829185908110614f5957614f59615b7a565b9060005260206000200160006101000a8154816001600160a01b0302191690836001600160a01b0316021790555060078281548110614f9a57614f9a615b7a565b906000526020600020015460078481548110614fb857614fb8615b7a565b60009182526020808320909101929092556001600160a01b038084168252601290925260408082208690559186168152908120556006805480614ffd57614ffd615f41565b600082815260209020810160001990810180546001600160a01b0319169055019055600780548061503057615030615f41565b6001900381819060005260206000200160009055905550505050565b6060816000018054806020026020016040519081016040528092919081815260200182805480156122fc57602002820191906000526020600020905b8154815260200190600101908083116150885750505050509050919050565b611683600282614d1b565b6116836004826142b1565b601d5460405163a0d16cad60e01b81526001600160a01b0384811660048301529091169063a0d16cad90602401602060405180830381865afa158015615107573d6000803e3d6000fd5b505050506040513d601f19601f8201168201806040525081019061512b9190615d1b565b15806151375750601554155b1561514157505050565b6001600160a01b038084166000908152602360209081526040808320938516835292905220546015548110156151d3576001600160a01b0380851660008181526013602090815260408083209487168084529482528083205484845260228352818420868552835281842060158054865290845282852091909155549383526023825280832094835293905291909120555b50505050565b600081815260018301602052604081205480156152c25760006151fd600183615d08565b855490915060009061521190600190615d08565b905080821461527657600086600001828154811061523157615231615b7a565b906000526020600020015490508087600001848154811061525457615254615b7a565b6000918252602080832090910192909255918252600188019052604090208390555b855486908061528757615287615f41565b60019003818190600052602060002001600090559055856001016000868152602001908152602001600020600090556001935050505061232c565b600091505061232c565b6001600160a01b0382166000908152600a6020526040902061334b9082614d1b565b6001600160a01b0382166000908152600a6020526040902061334b90826142b1565b6001600160a01b038116600090815260126020526040812054600654811080156153695750826001600160a01b03166006828154811061535257615352615b7a565b6000918252602090912001546001600160a01b0316145b156153775760019150915091565b506000928392509050565b60008181526001830160205260408120546153c95750815460018181018455600084815260208082209093018490558454848252828601909352604090209190915561232c565b50600061232c565b82805482825590600052602060002090810192821561540c579160200282015b8281111561540c5782518255916020019190600101906153f1565b50615418929150615436565b5090565b5080546000825590600052602060002090810190611d7e91905b5b808211156154185760008155600101615437565b6001600160a01b0381168114611d7e57600080fd5b60008083601f84011261547257600080fd5b50813567ffffffffffffffff81111561548a57600080fd5b6020830191508360208260051b85010111156154a557600080fd5b9250929050565b600080600080600080608087890312156154c557600080fd5b86356154d08161544b565b9550602087013567ffffffffffffffff808211156154ed57600080fd5b90880190610120828b03121561550257600080fd5b9095506040880135908082111561551857600080fd5b6155248a838b01615460565b9096509450606089013591508082111561553d57600080fd5b5061554a89828a01615460565b979a9699509497509295939492505050565b6000806040838503121561556f57600080fd5b8235915060208301356155818161544b565b809150509250929050565b60006020828403121561559e57600080fd5b8135613bcc8161544b565b6000602082840312156155bb57600080fd5b5035919050565b6000806000606084860312156155d757600080fd5b83356155e28161544b565b925060208401356155f28161544b565b929592945050506040919091013590565b6000806040838503121561561657600080fd5b82356156218161544b565b946020939093013593505050565b80356001600160e01b03198116811461564757600080fd5b919050565b6000806000806060858703121561566257600080fd5b61566b8561562f565b93506156796020860161562f565b9250604085013567ffffffffffffffff81111561569557600080fd5b6156a187828801615460565b95989497509550505050565b60005b838110156156c85781810151838201526020016156b0565b50506000910152565b600081518084526156e98160208601602086016156ad565b601f01601f19169290920160200192915050565b602081526000613bcc60208301846156d1565b6020808252825182820181905260009190848201906040850190845b818110156157515783516001600160a01b03168352928401929184019160010161572c565b50909695505050505050565b6000806040838503121561577057600080fd5b823561577b8161544b565b915060208301356155818161544b565b80356fffffffffffffffffffffffffffffffff198116811461564757600080fd5b80356001600160f01b03198116811461564757600080fd5b6000806000606084860312156157d957600080fd5b83356157e48161544b565b92506157f26020850161578b565b9150615800604085016157ac565b90509250925092565b60006020828403121561581b57600080fd5b613bcc8261562f565b60008083601f84011261583657600080fd5b50813567ffffffffffffffff81111561584e57600080fd5b6020830191508360208285010111156154a557600080fd5b6000806000806060858703121561587c57600080fd5b843567ffffffffffffffff81111561589357600080fd5b61589f87828801615824565b90955093506158b290506020860161578b565b91506158c0604086016157ac565b905092959194509250565b60008060008060008060a087890312156158e457600080fd5b86356158ef8161544b565b955060208701356158ff8161544b565b945060408701359350606087013567ffffffffffffffff81111561592257600080fd5b61592e89828a01615824565b909450925061594190506080880161578b565b90509295509295509295565b60008151808452602080850194506020840160005b8381101561597e57815187529582019590820190600101615962565b509495945050505050565b60408152600061599c604083018561594d565b90508260208301529392505050565b6060815260006159be60608301866156d1565b6fffffffffffffffffffffffffffffffff19949094166020830152506001600160f01b031991909116604090910152919050565b634e487b7160e01b600052604160045260246000fd5b600060208284031215615a1a57600080fd5b813567ffffffffffffffff80821115615a3257600080fd5b818401915084601f830112615a4657600080fd5b813581811115615a5857615a586159f2565b604051601f8201601f19908116603f01168101908382118183101715615a8057615a806159f2565b81604052828152876020848701011115615a9957600080fd5b826020860160208301376000928101602001929092525095945050505050565b602080825282516001600160e01b03191682820152820151604080830152600090612980606084018261594d565b60008060408385031215615afa57600080fd5b6156218361562f565b6000808335601e19843603018112615b1a57600080fd5b83018035915067ffffffffffffffff821115615b3557600080fd5b6020019150600581901b36038213156154a557600080fd5b634e487b7160e01b600052601160045260246000fd5b808202811582820484141761232c5761232c615b4d565b634e487b7160e01b600052603260045260246000fd5b8082018082111561232c5761232c615b4d565b600181811c90821680615bb757607f821691505b602082108103615bd757634e487b7160e01b600052602260045260246000fd5b50919050565b601f82111561334b576000816000526020600020601f850160051c81016020861015615c065750805b601f850160051c820191505b81811015615c2557828155600101615c12565b505050505050565b815167ffffffffffffffff811115615c4757615c476159f2565b615c5b81615c558454615ba3565b84615bdd565b602080601f831160018114615c905760008415615c785750858301515b600019600386901b1c1916600185901b178555615c25565b600085815260208120601f198616915b82811015615cbf57888601518255948401946001909101908401615ca0565b5085821015615cdd5787850151600019600388901b60f8161c191681555b5050505050600190811b01905550565b600060208284031215615cff57600080fd5b613bcc8261578b565b8181038181111561232c5761232c615b4d565b600060208284031215615d2d57600080fd5b81518015158114613bcc57600080fd5b600082615d5a57634e487b7160e01b600052601260045260246000fd5b500490565b600060208284031215615d7157600080fd5b8151613bcc8161544b565b6001600160e01b0319858116825284166020820152606060408201819052810182905260007f07ffffffffffffffffffffffffffffffffffffffffffffffffffffffffffffff831115615dce57600080fd5b8260051b808560808501379190910160800195945050505050565b67ffffffffffffffff831115615e0157615e016159f2565b615e1583615e0f8354615ba3565b83615bdd565b6000601f841160018114615e495760008515615e315750838201355b600019600387901b1c1916600186901b178355615ea3565b600083815260209020601f19861690835b82811015615e7a5786850135825560209485019460019092019101615e5a565b5086821015615e975760001960f88860031b161c19848701351681555b505060018560011b0183555b5050505050565b6000600160ff1b8201615ebf57615ebf615b4d565b5060000390565b600060018201615ed857615ed8615b4d565b5060010190565b6001600160e01b0319848116825283166020820152606060408201819052600090614a6a9083018461594d565b600060208284031215615f1e57600080fd5b5051919050565b60008251615f378184602087016156ad565b9190910192915050565b634e487b7160e01b600052603160045260246000fdfea2646970667358221220a064de873bbac81a879b8ea97bfc46da4f6d1c7f5a0d4cf8752ae0d7c1a4f10b64736f6c63430008190033",
  "linkReferences": {},
  "deployedLinkReferences": {}
}