{
  "_format": "hh-sol-artifact-1",
  "contractName": "StakingHbbftMock",
  "sourceName": "contracts/mockContracts/StakingHbbftMock.sol",
  "abi": [
    {
      "inputs": [
        {
          "internalType": "address",
          "name": "pool",
          "type": "address"
        },
        {
          "internalType": "address",
          "name": "staker",
          "type": "address"
        }
      ],
      "name": "CannotClaimWithdrawOrderYet",
      "type": "error"
    },
    {
      "inputs": [],
      "name": "GetterCallFailed",
      "type": "error"
    },
    {
      "inputs": [],
      "name": "InitialStakingPoolsListEmpty",
      "type": "error"
    },
    {
      "inputs": [],
      "name": "InsufficientBalance",
      "type": "error"
    },
    {
      "inputs": [
        {
          "internalType": "address",
          "name": "pool",
          "type": "address"
        },
        {
          "internalType": "address",
          "name": "delegator",
          "type": "address"
        }
      ],
      "name": "InsufficientStakeAmount",
      "type": "error"
    },
    {
      "inputs": [],
      "name": "InvalidFixedEpochDuration",
      "type": "error"
    },
    {
      "inputs": [
        {
          "internalType": "uint256",
          "name": "candidateStake",
          "type": "uint256"
        },
        {
          "internalType": "uint256",
          "name": "delegatorStake",
          "type": "uint256"
        }
      ],
      "name": "InvalidInitialStakeAmount",
      "type": "error"
    },
    {
      "inputs": [],
      "name": "InvalidInitialization",
      "type": "error"
    },
    {
      "inputs": [],
      "name": "InvalidIpAddressesCount",
      "type": "error"
    },
    {
      "inputs": [],
      "name": "InvalidMaxStakeAmount",
      "type": "error"
    },
    {
      "inputs": [],
      "name": "InvalidMoveStakePoolsAddress",
      "type": "error"
    },
    {
      "inputs": [
        {
          "internalType": "address",
          "name": "_operator",
          "type": "address"
        },
        {
          "internalType": "uint256",
          "name": "_share",
          "type": "uint256"
        }
      ],
      "name": "InvalidNodeOperatorConfiguration",
      "type": "error"
    },
    {
      "inputs": [
        {
          "internalType": "uint256",
          "name": "_share",
          "type": "uint256"
        }
      ],
      "name": "InvalidNodeOperatorShare",
      "type": "error"
    },
    {
      "inputs": [
        {
          "internalType": "address",
          "name": "pool",
          "type": "address"
        },
        {
          "internalType": "address",
          "name": "delegator",
          "type": "address"
        },
        {
          "internalType": "int256",
          "name": "amount",
          "type": "int256"
        }
      ],
      "name": "InvalidOrderWithdrawAmount",
      "type": "error"
    },
    {
      "inputs": [],
      "name": "InvalidPointsValue",
      "type": "error"
    },
    {
      "inputs": [],
      "name": "InvalidPublicKey",
      "type": "error"
    },
    {
      "inputs": [],
      "name": "InvalidPublicKeyLength",
      "type": "error"
    },
    {
      "inputs": [],
      "name": "InvalidPublicKeysCount",
      "type": "error"
    },
    {
      "inputs": [],
      "name": "InvalidTransitionTimeFrame",
      "type": "error"
    },
    {
      "inputs": [
        {
          "internalType": "address",
          "name": "pool",
          "type": "address"
        },
        {
          "internalType": "address",
          "name": "delegator",
          "type": "address"
        },
        {
          "internalType": "uint256",
          "name": "amount",
          "type": "uint256"
        }
      ],
      "name": "InvalidWithdrawAmount",
      "type": "error"
    },
    {
      "inputs": [
        {
          "internalType": "uint256",
          "name": "allowed",
          "type": "uint256"
        },
        {
          "internalType": "uint256",
          "name": "desired",
          "type": "uint256"
        }
      ],
      "name": "MaxAllowedWithdrawExceeded",
      "type": "error"
    },
    {
      "inputs": [],
      "name": "MaxPoolsCountExceeded",
      "type": "error"
    },
    {
      "inputs": [],
      "name": "MiningAddressPublicKeyMismatch",
      "type": "error"
    },
    {
      "inputs": [
        {
          "internalType": "uint256",
          "name": "_newVal",
          "type": "uint256"
        }
      ],
      "name": "NewValueOutOfRange",
      "type": "error"
    },
    {
      "inputs": [],
      "name": "NoStakesToRecover",
      "type": "error"
    },
    {
      "inputs": [],
      "name": "NotInitializing",
      "type": "error"
    },
    {
      "inputs": [],
      "name": "NotPayable",
      "type": "error"
    },
    {
      "inputs": [
        {
          "internalType": "uint256",
          "name": "_epoch",
          "type": "uint256"
        }
      ],
      "name": "OnlyOncePerEpoch",
      "type": "error"
    },
    {
      "inputs": [
        {
          "internalType": "address",
          "name": "owner",
          "type": "address"
        }
      ],
      "name": "OwnableInvalidOwner",
      "type": "error"
    },
    {
      "inputs": [
        {
          "internalType": "address",
          "name": "account",
          "type": "address"
        }
      ],
      "name": "OwnableUnauthorizedAccount",
      "type": "error"
    },
    {
      "inputs": [
        {
          "internalType": "address",
          "name": "pool",
          "type": "address"
        }
      ],
      "name": "PoolAbandoned",
      "type": "error"
    },
    {
      "inputs": [
        {
          "internalType": "address",
          "name": "pool",
          "type": "address"
        }
      ],
      "name": "PoolCannotBeRemoved",
      "type": "error"
    },
    {
      "inputs": [
        {
          "internalType": "address",
          "name": "pool",
          "type": "address"
        }
      ],
      "name": "PoolEmpty",
      "type": "error"
    },
    {
      "inputs": [
        {
          "internalType": "address",
          "name": "pool",
          "type": "address"
        }
      ],
      "name": "PoolNotExist",
      "type": "error"
    },
    {
      "inputs": [
        {
          "internalType": "address",
          "name": "pool",
          "type": "address"
        },
        {
          "internalType": "address",
          "name": "delegator",
          "type": "address"
        }
      ],
      "name": "PoolStakeLimitExceeded",
      "type": "error"
    },
    {
      "inputs": [],
      "name": "ReentrancyGuardReentrantCall",
      "type": "error"
    },
    {
      "inputs": [
        {
          "internalType": "address",
          "name": "recipient",
          "type": "address"
        },
        {
          "internalType": "uint256",
          "name": "amount",
          "type": "uint256"
        }
      ],
      "name": "TransferFailed",
      "type": "error"
    },
    {
      "inputs": [],
      "name": "Unauthorized",
      "type": "error"
    },
    {
      "inputs": [],
      "name": "ZeroAddress",
      "type": "error"
    },
    {
      "inputs": [],
      "name": "ZeroGasPrice",
      "type": "error"
    },
    {
      "inputs": [],
      "name": "ZeroWidthrawAmount",
      "type": "error"
    },
    {
      "anonymous": false,
      "inputs": [
        {
          "indexed": true,
          "internalType": "address",
          "name": "fromPoolStakingAddress",
          "type": "address"
        },
        {
          "indexed": true,
          "internalType": "address",
          "name": "staker",
          "type": "address"
        },
        {
          "indexed": true,
          "internalType": "uint256",
          "name": "stakingEpoch",
          "type": "uint256"
        },
        {
          "indexed": false,
          "internalType": "uint256",
          "name": "amount",
          "type": "uint256"
        }
      ],
      "name": "ClaimedOrderedWithdrawal",
      "type": "event"
    },
    {
      "anonymous": false,
      "inputs": [
        {
          "indexed": true,
          "internalType": "address",
          "name": "caller",
          "type": "address"
        },
        {
          "indexed": true,
          "internalType": "address",
          "name": "stakingAddress",
          "type": "address"
        },
        {
          "indexed": false,
          "internalType": "uint256",
          "name": "gatheredFunds",
          "type": "uint256"
        }
      ],
      "name": "GatherAbandonedStakes",
      "type": "event"
    },
    {
      "anonymous": false,
      "inputs": [
        {
          "indexed": false,
          "internalType": "uint64",
          "name": "version",
          "type": "uint64"
        }
      ],
      "name": "Initialized",
      "type": "event"
    },
    {
      "anonymous": false,
      "inputs": [
        {
          "indexed": false,
          "internalType": "address",
          "name": "fromPoolStakingAddress",
          "type": "address"
        },
        {
          "indexed": true,
          "internalType": "address",
          "name": "toPoolStakingAddress",
          "type": "address"
        },
        {
          "indexed": true,
          "internalType": "address",
          "name": "staker",
          "type": "address"
        },
        {
          "indexed": true,
          "internalType": "uint256",
          "name": "stakingEpoch",
          "type": "uint256"
        },
        {
          "indexed": false,
          "internalType": "uint256",
          "name": "amount",
          "type": "uint256"
        }
      ],
      "name": "MovedStake",
      "type": "event"
    },
    {
      "anonymous": false,
      "inputs": [
        {
          "indexed": true,
          "internalType": "address",
          "name": "fromPoolStakingAddress",
          "type": "address"
        },
        {
          "indexed": true,
          "internalType": "address",
          "name": "staker",
          "type": "address"
        },
        {
          "indexed": true,
          "internalType": "uint256",
          "name": "stakingEpoch",
          "type": "uint256"
        },
        {
          "indexed": false,
          "internalType": "int256",
          "name": "amount",
          "type": "int256"
        }
      ],
      "name": "OrderedWithdrawal",
      "type": "event"
    },
    {
      "anonymous": false,
      "inputs": [
        {
          "indexed": true,
          "internalType": "address",
          "name": "previousOwner",
          "type": "address"
        },
        {
          "indexed": true,
          "internalType": "address",
          "name": "newOwner",
          "type": "address"
        }
      ],
      "name": "OwnershipTransferred",
      "type": "event"
    },
    {
      "anonymous": false,
      "inputs": [
        {
          "indexed": true,
          "internalType": "address",
          "name": "toPoolStakingAddress",
          "type": "address"
        },
        {
          "indexed": true,
          "internalType": "address",
          "name": "staker",
          "type": "address"
        },
        {
          "indexed": true,
          "internalType": "uint256",
          "name": "stakingEpoch",
          "type": "uint256"
        },
        {
          "indexed": false,
          "internalType": "uint256",
          "name": "amount",
          "type": "uint256"
        }
      ],
      "name": "PlacedStake",
      "type": "event"
    },
    {
      "anonymous": false,
      "inputs": [
        {
          "indexed": true,
          "internalType": "address",
          "name": "caller",
          "type": "address"
        },
        {
          "indexed": false,
          "internalType": "uint256",
          "name": "reinsertShare",
          "type": "uint256"
        },
        {
          "indexed": false,
          "internalType": "uint256",
          "name": "governanceShare",
          "type": "uint256"
        }
      ],
      "name": "RecoverAbandonedStakes",
      "type": "event"
    },
    {
      "anonymous": false,
      "inputs": [
        {
          "indexed": false,
          "internalType": "bytes4",
          "name": "funcSelector",
          "type": "bytes4"
        }
      ],
      "name": "RemoveChangeableParameter",
      "type": "event"
    },
    {
      "anonymous": false,
      "inputs": [
        {
          "indexed": true,
          "internalType": "address",
          "name": "poolStakingAddress",
          "type": "address"
        },
        {
          "indexed": true,
          "internalType": "uint256",
          "name": "stakingEpoch",
          "type": "uint256"
        },
        {
          "indexed": false,
          "internalType": "uint256",
          "name": "validatorReward",
          "type": "uint256"
        },
        {
          "indexed": false,
          "internalType": "uint256",
          "name": "delegatorsReward",
          "type": "uint256"
        }
      ],
      "name": "RestakeReward",
      "type": "event"
    },
    {
      "anonymous": false,
      "inputs": [
        {
          "indexed": false,
          "internalType": "bytes4",
          "name": "setter",
          "type": "bytes4"
        },
        {
          "indexed": false,
          "internalType": "bytes4",
          "name": "getter",
          "type": "bytes4"
        },
        {
          "indexed": false,
          "internalType": "uint256[]",
          "name": "params",
          "type": "uint256[]"
        }
      ],
      "name": "SetChangeableParameter",
      "type": "event"
    },
    {
      "anonymous": false,
      "inputs": [
        {
          "indexed": false,
          "internalType": "uint256",
          "name": "minStake",
          "type": "uint256"
        }
      ],
      "name": "SetDelegatorMinStake",
      "type": "event"
    },
    {
      "anonymous": false,
      "inputs": [
        {
          "indexed": true,
          "internalType": "address",
          "name": "poolStakingAddress",
          "type": "address"
        },
        {
          "indexed": true,
          "internalType": "address",
          "name": "nodeOperatorAddress",
          "type": "address"
        },
        {
          "indexed": false,
          "internalType": "uint256",
          "name": "operatorShare",
          "type": "uint256"
        }
      ],
      "name": "SetNodeOperator",
      "type": "event"
    },
    {
      "anonymous": false,
      "inputs": [
        {
          "indexed": true,
          "internalType": "address",
          "name": "fromPoolStakingAddress",
          "type": "address"
        },
        {
          "indexed": true,
          "internalType": "address",
          "name": "staker",
          "type": "address"
        },
        {
          "indexed": true,
          "internalType": "uint256",
          "name": "stakingEpoch",
          "type": "uint256"
        },
        {
          "indexed": false,
          "internalType": "uint256",
          "name": "amount",
          "type": "uint256"
        }
      ],
      "name": "WithdrewStake",
      "type": "event"
    },
    {
      "inputs": [],
      "name": "MAX_CANDIDATES",
      "outputs": [
        {
          "internalType": "uint256",
          "name": "",
          "type": "uint256"
        }
      ],
      "stateMutability": "view",
      "type": "function"
    },
    {
      "inputs": [],
      "name": "MAX_NODE_OPERATOR_SHARE_PERCENT",
      "outputs": [
        {
          "internalType": "uint256",
          "name": "",
          "type": "uint256"
        }
      ],
      "stateMutability": "view",
      "type": "function"
    },
    {
      "inputs": [],
      "name": "PERCENT_DENOMINATOR",
      "outputs": [
        {
          "internalType": "uint256",
          "name": "",
          "type": "uint256"
        }
      ],
      "stateMutability": "view",
      "type": "function"
    },
    {
      "inputs": [
        {
          "internalType": "address",
          "name": "",
          "type": "address"
        }
      ],
      "name": "abandonedAndRemoved",
      "outputs": [
        {
          "internalType": "bool",
          "name": "",
          "type": "bool"
        }
      ],
      "stateMutability": "view",
      "type": "function"
    },
    {
      "inputs": [],
      "name": "actualEpochEndTime",
      "outputs": [
        {
          "internalType": "uint256",
          "name": "",
          "type": "uint256"
        }
      ],
      "stateMutability": "view",
      "type": "function"
    },
    {
      "inputs": [],
      "name": "addBalance",
      "outputs": [],
      "stateMutability": "payable",
      "type": "function"
    },
    {
      "inputs": [
        {
          "internalType": "address",
          "name": "_miningAddress",
          "type": "address"
        },
        {
          "internalType": "address",
          "name": "_nodeOperatorAddress",
          "type": "address"
        },
        {
          "internalType": "uint256",
          "name": "_operatorShare",
          "type": "uint256"
        },
        {
          "internalType": "bytes",
          "name": "_publicKey",
          "type": "bytes"
        },
        {
          "internalType": "bytes16",
          "name": "_ip",
          "type": "bytes16"
        }
      ],
      "name": "addPool",
      "outputs": [],
      "stateMutability": "payable",
      "type": "function"
    },
    {
      "inputs": [
        {
          "internalType": "address",
          "name": "_stakingAddress",
          "type": "address"
        }
      ],
      "name": "addPoolActiveMock",
      "outputs": [],
      "stateMutability": "nonpayable",
      "type": "function"
    },
    {
      "inputs": [
        {
          "internalType": "address",
          "name": "_stakingAddress",
          "type": "address"
        }
      ],
      "name": "addPoolInactiveMock",
      "outputs": [],
      "stateMutability": "nonpayable",
      "type": "function"
    },
    {
      "inputs": [],
      "name": "bonusScoreContract",
      "outputs": [
        {
          "internalType": "contract IBonusScoreSystem",
          "name": "",
          "type": "address"
        }
      ],
      "stateMutability": "view",
      "type": "function"
    },
    {
      "inputs": [],
      "name": "candidateMinStake",
      "outputs": [
        {
          "internalType": "uint256",
          "name": "",
          "type": "uint256"
        }
      ],
      "stateMutability": "view",
      "type": "function"
    },
    {
      "inputs": [
        {
          "internalType": "address",
          "name": "_poolStakingAddress",
          "type": "address"
        }
      ],
      "name": "claimOrderedWithdraw",
      "outputs": [],
      "stateMutability": "nonpayable",
      "type": "function"
    },
    {
      "inputs": [
        {
          "internalType": "address",
          "name": "pool",
          "type": "address"
        },
        {
          "internalType": "address",
          "name": "delegator",
          "type": "address"
        },
        {
          "internalType": "uint256",
          "name": "epoch",
          "type": "uint256"
        }
      ],
      "name": "clearDelegatorStakeSnapshot",
      "outputs": [],
      "stateMutability": "nonpayable",
      "type": "function"
    },
    {
      "inputs": [],
      "name": "currentKeyGenExtraTimeWindow",
      "outputs": [
        {
          "internalType": "uint256",
          "name": "",
          "type": "uint256"
        }
      ],
      "stateMutability": "view",
      "type": "function"
    },
    {
      "inputs": [],
      "name": "delegatorMinStake",
      "outputs": [
        {
          "internalType": "uint256",
          "name": "",
          "type": "uint256"
        }
      ],
      "stateMutability": "view",
      "type": "function"
    },
    {
      "inputs": [],
      "name": "earlyEpochEndTime",
      "outputs": [
        {
          "internalType": "uint256",
          "name": "",
          "type": "uint256"
        }
      ],
      "stateMutability": "view",
      "type": "function"
    },
    {
      "inputs": [],
      "name": "earlyEpochEndTriggerTime",
      "outputs": [
        {
          "internalType": "uint256",
          "name": "",
          "type": "uint256"
        }
      ],
      "stateMutability": "view",
      "type": "function"
    },
    {
      "inputs": [
        {
          "internalType": "string",
          "name": "_selector",
          "type": "string"
        }
      ],
      "name": "getAllowedParamsRange",
      "outputs": [
        {
          "components": [
            {
              "internalType": "bytes4",
              "name": "getter",
              "type": "bytes4"
            },
            {
              "internalType": "uint256[]",
              "name": "range",
              "type": "uint256[]"
            }
          ],
          "internalType": "struct ValueGuards.ParameterRange",
          "name": "",
          "type": "tuple"
        }
      ],
      "stateMutability": "view",
      "type": "function"
    },
    {
      "inputs": [
        {
          "internalType": "bytes4",
          "name": "_selector",
          "type": "bytes4"
        }
      ],
      "name": "getAllowedParamsRangeWithSelector",
      "outputs": [
        {
          "components": [
            {
              "internalType": "bytes4",
              "name": "getter",
              "type": "bytes4"
            },
            {
              "internalType": "uint256[]",
              "name": "range",
              "type": "uint256[]"
            }
          ],
          "internalType": "struct ValueGuards.ParameterRange",
          "name": "",
          "type": "tuple"
        }
      ],
      "stateMutability": "view",
      "type": "function"
    },
    {
      "inputs": [
        {
          "internalType": "address",
          "name": "pool",
          "type": "address"
        },
        {
          "internalType": "address",
          "name": "delegator",
          "type": "address"
        },
        {
          "internalType": "uint256",
          "name": "epoch",
          "type": "uint256"
        }
      ],
      "name": "getDelegatorStakeSnapshot",
      "outputs": [
        {
          "internalType": "uint256",
          "name": "",
          "type": "uint256"
        }
      ],
      "stateMutability": "view",
      "type": "function"
    },
    {
      "inputs": [],
      "name": "getMaxCandidates",
      "outputs": [
        {
          "internalType": "uint256",
          "name": "",
          "type": "uint256"
        }
      ],
      "stateMutability": "pure",
      "type": "function"
    },
    {
      "inputs": [
        {
          "internalType": "address",
          "name": "_poolAddress",
          "type": "address"
        }
      ],
      "name": "getPoolInternetAddress",
      "outputs": [
        {
          "internalType": "bytes16",
          "name": "",
          "type": "bytes16"
        },
        {
          "internalType": "bytes2",
          "name": "",
          "type": "bytes2"
        }
      ],
      "stateMutability": "view",
      "type": "function"
    },
    {
      "inputs": [
        {
          "internalType": "address",
          "name": "_poolAddress",
          "type": "address"
        }
      ],
      "name": "getPoolPublicKey",
      "outputs": [
        {
          "internalType": "bytes",
          "name": "",
          "type": "bytes"
        }
      ],
      "stateMutability": "view",
      "type": "function"
    },
    {
      "inputs": [
        {
          "internalType": "uint256",
          "name": "_epoch",
          "type": "uint256"
        },
        {
          "internalType": "address",
          "name": "_stakingPool",
          "type": "address"
        }
      ],
      "name": "getPoolValidatorStakeAmount",
      "outputs": [
        {
          "internalType": "uint256",
          "name": "",
          "type": "uint256"
        }
      ],
      "stateMutability": "view",
      "type": "function"
    },
    {
      "inputs": [],
      "name": "getPools",
      "outputs": [
        {
          "internalType": "address[]",
          "name": "",
          "type": "address[]"
        }
      ],
      "stateMutability": "view",
      "type": "function"
    },
    {
      "inputs": [],
      "name": "getPoolsInactive",
      "outputs": [
        {
          "internalType": "address[]",
          "name": "",
          "type": "address[]"
        }
      ],
      "stateMutability": "view",
      "type": "function"
    },
    {
      "inputs": [],
      "name": "getPoolsLikelihood",
      "outputs": [
        {
          "internalType": "uint256[]",
          "name": "likelihoods",
          "type": "uint256[]"
        },
        {
          "internalType": "uint256",
          "name": "sum",
          "type": "uint256"
        }
      ],
      "stateMutability": "view",
      "type": "function"
    },
    {
      "inputs": [],
      "name": "getPoolsToBeElected",
      "outputs": [
        {
          "internalType": "address[]",
          "name": "",
          "type": "address[]"
        }
      ],
      "stateMutability": "view",
      "type": "function"
    },
    {
      "inputs": [],
      "name": "getPoolsToBeRemoved",
      "outputs": [
        {
          "internalType": "address[]",
          "name": "",
          "type": "address[]"
        }
      ],
      "stateMutability": "view",
      "type": "function"
    },
    {
      "inputs": [
        {
          "internalType": "address",
          "name": "pool",
          "type": "address"
        },
        {
          "internalType": "address",
          "name": "delegator",
          "type": "address"
        }
      ],
      "name": "getStakeSnapshotLastEpoch",
      "outputs": [
        {
          "internalType": "uint256",
          "name": "",
          "type": "uint256"
        }
      ],
      "stateMutability": "view",
      "type": "function"
    },
    {
      "inputs": [],
      "name": "incrementStakingEpoch",
      "outputs": [],
      "stateMutability": "nonpayable",
      "type": "function"
    },
    {
      "inputs": [
        {
          "internalType": "address",
          "name": "_contractOwner",
          "type": "address"
        },
        {
          "components": [
            {
              "internalType": "address",
              "name": "_validatorSetContract",
              "type": "address"
            },
            {
              "internalType": "address",
              "name": "_bonusScoreContract",
              "type": "address"
            },
            {
              "internalType": "address[]",
              "name": "_initialStakingAddresses",
              "type": "address[]"
            },
            {
              "internalType": "uint256",
              "name": "_delegatorMinStake",
              "type": "uint256"
            },
            {
              "internalType": "uint256",
              "name": "_candidateMinStake",
              "type": "uint256"
            },
            {
              "internalType": "uint256",
              "name": "_maxStake",
              "type": "uint256"
            },
            {
              "internalType": "uint256",
              "name": "_stakingFixedEpochDuration",
              "type": "uint256"
            },
            {
              "internalType": "uint256",
              "name": "_stakingTransitionTimeframeLength",
              "type": "uint256"
            },
            {
              "internalType": "uint256",
              "name": "_stakingWithdrawDisallowPeriod",
              "type": "uint256"
            }
          ],
          "internalType": "struct IStakingHbbft.StakingParams",
          "name": "stakingParams",
          "type": "tuple"
        },
        {
          "internalType": "bytes32[]",
          "name": "_publicKeys",
          "type": "bytes32[]"
        },
        {
          "internalType": "bytes16[]",
          "name": "_internetAddresses",
          "type": "bytes16[]"
        }
      ],
      "name": "initialize",
      "outputs": [],
      "stateMutability": "nonpayable",
      "type": "function"
    },
    {
      "inputs": [
        {
          "internalType": "address",
          "name": "_stakingAddress",
          "type": "address"
        }
      ],
      "name": "isPoolActive",
      "outputs": [
        {
          "internalType": "bool",
          "name": "",
          "type": "bool"
        }
      ],
      "stateMutability": "view",
      "type": "function"
    },
    {
      "inputs": [
        {
          "internalType": "address",
          "name": "_stakingAddress",
          "type": "address"
        }
      ],
      "name": "isPoolValid",
      "outputs": [
        {
          "internalType": "bool",
          "name": "",
          "type": "bool"
        }
      ],
      "stateMutability": "view",
      "type": "function"
    },
    {
      "inputs": [
        {
          "internalType": "bytes4",
          "name": "funcSelector",
          "type": "bytes4"
        },
        {
          "internalType": "uint256",
          "name": "newVal",
          "type": "uint256"
        }
      ],
      "name": "isWithinAllowedRange",
      "outputs": [
        {
          "internalType": "bool",
          "name": "",
          "type": "bool"
        }
      ],
      "stateMutability": "view",
      "type": "function"
    },
    {
      "inputs": [],
      "name": "maxStakeAmount",
      "outputs": [
        {
          "internalType": "uint256",
          "name": "",
          "type": "uint256"
        }
      ],
      "stateMutability": "view",
      "type": "function"
    },
    {
      "inputs": [
        {
          "internalType": "address",
          "name": "_poolStakingAddress",
          "type": "address"
        },
        {
          "internalType": "address",
          "name": "_staker",
          "type": "address"
        }
      ],
      "name": "maxWithdrawAllowed",
      "outputs": [
        {
          "internalType": "uint256",
          "name": "",
          "type": "uint256"
        }
      ],
      "stateMutability": "view",
      "type": "function"
    },
    {
      "inputs": [
        {
          "internalType": "address",
          "name": "_poolStakingAddress",
          "type": "address"
        },
        {
          "internalType": "address",
          "name": "_staker",
          "type": "address"
        }
      ],
      "name": "maxWithdrawOrderAllowed",
      "outputs": [
        {
          "internalType": "uint256",
          "name": "",
          "type": "uint256"
        }
      ],
      "stateMutability": "view",
      "type": "function"
    },
    {
      "inputs": [
        {
          "internalType": "address",
          "name": "_fromPoolStakingAddress",
          "type": "address"
        },
        {
          "internalType": "address",
          "name": "_toPoolStakingAddress",
          "type": "address"
        },
        {
          "internalType": "uint256",
          "name": "_amount",
          "type": "uint256"
        }
      ],
      "name": "moveStake",
      "outputs": [],
      "stateMutability": "nonpayable",
      "type": "function"
    },
    {
      "inputs": [
        {
          "internalType": "address",
          "name": "_stakingAddress",
          "type": "address"
        }
      ],
      "name": "notifyAvailability",
      "outputs": [],
      "stateMutability": "nonpayable",
      "type": "function"
    },
    {
      "inputs": [
        {
          "internalType": "uint256",
          "name": "timestamp",
          "type": "uint256"
        }
      ],
      "name": "notifyEarlyEpochEnd",
      "outputs": [],
      "stateMutability": "nonpayable",
      "type": "function"
    },
    {
      "inputs": [],
      "name": "notifyKeyGenFailed",
      "outputs": [],
      "stateMutability": "nonpayable",
      "type": "function"
    },
    {
      "inputs": [
        {
          "internalType": "uint256",
          "name": "detectedOfflineTime",
          "type": "uint256"
        }
      ],
      "name": "notifyNetworkOfftimeDetected",
      "outputs": [],
      "stateMutability": "nonpayable",
      "type": "function"
    },
    {
      "inputs": [
        {
          "internalType": "address",
          "name": "_poolStakingAddress",
          "type": "address"
        },
        {
          "internalType": "int256",
          "name": "_amount",
          "type": "int256"
        }
      ],
      "name": "orderWithdraw",
      "outputs": [],
      "stateMutability": "nonpayable",
      "type": "function"
    },
    {
      "inputs": [
        {
          "internalType": "address",
          "name": "",
          "type": "address"
        },
        {
          "internalType": "address",
          "name": "",
          "type": "address"
        }
      ],
      "name": "orderWithdrawEpoch",
      "outputs": [
        {
          "internalType": "uint256",
          "name": "",
          "type": "uint256"
        }
      ],
      "stateMutability": "view",
      "type": "function"
    },
    {
      "inputs": [
        {
          "internalType": "address",
          "name": "",
          "type": "address"
        },
        {
          "internalType": "address",
          "name": "",
          "type": "address"
        }
      ],
      "name": "orderedWithdrawAmount",
      "outputs": [
        {
          "internalType": "uint256",
          "name": "",
          "type": "uint256"
        }
      ],
      "stateMutability": "view",
      "type": "function"
    },
    {
      "inputs": [
        {
          "internalType": "address",
          "name": "",
          "type": "address"
        }
      ],
      "name": "orderedWithdrawAmountTotal",
      "outputs": [
        {
          "internalType": "uint256",
          "name": "",
          "type": "uint256"
        }
      ],
      "stateMutability": "view",
      "type": "function"
    },
    {
      "inputs": [],
      "name": "owner",
      "outputs": [
        {
          "internalType": "address",
          "name": "",
          "type": "address"
        }
      ],
      "stateMutability": "view",
      "type": "function"
    },
    {
      "inputs": [
        {
          "internalType": "address",
          "name": "_poolStakingAddress",
          "type": "address"
        }
      ],
      "name": "poolDelegators",
      "outputs": [
        {
          "internalType": "address[]",
          "name": "",
          "type": "address[]"
        }
      ],
      "stateMutability": "view",
      "type": "function"
    },
    {
      "inputs": [
        {
          "internalType": "address",
          "name": "_poolStakingAddress",
          "type": "address"
        }
      ],
      "name": "poolDelegatorsInactive",
      "outputs": [
        {
          "internalType": "address[]",
          "name": "",
          "type": "address[]"
        }
      ],
      "stateMutability": "view",
      "type": "function"
    },
    {
      "inputs": [
        {
          "internalType": "address",
          "name": "",
          "type": "address"
        }
      ],
      "name": "poolInfo",
      "outputs": [
        {
          "internalType": "bytes",
          "name": "publicKey",
          "type": "bytes"
        },
        {
          "internalType": "bytes16",
          "name": "internetAddress",
          "type": "bytes16"
        },
        {
          "internalType": "bytes2",
          "name": "port",
          "type": "bytes2"
        }
      ],
      "stateMutability": "view",
      "type": "function"
    },
    {
      "inputs": [
        {
          "internalType": "address",
          "name": "",
          "type": "address"
        }
      ],
      "name": "poolNodeOperator",
      "outputs": [
        {
          "internalType": "address",
          "name": "",
          "type": "address"
        }
      ],
      "stateMutability": "view",
      "type": "function"
    },
    {
      "inputs": [
        {
          "internalType": "address",
          "name": "",
          "type": "address"
        }
      ],
      "name": "poolNodeOperatorLastChangeEpoch",
      "outputs": [
        {
          "internalType": "uint256",
          "name": "",
          "type": "uint256"
        }
      ],
      "stateMutability": "view",
      "type": "function"
    },
    {
      "inputs": [
        {
          "internalType": "address",
          "name": "",
          "type": "address"
        }
      ],
      "name": "poolNodeOperatorShare",
      "outputs": [
        {
          "internalType": "uint256",
          "name": "",
          "type": "uint256"
        }
      ],
      "stateMutability": "view",
      "type": "function"
    },
    {
      "inputs": [
        {
          "internalType": "address",
          "name": "",
          "type": "address"
        }
      ],
      "name": "poolToBeElectedIndex",
      "outputs": [
        {
          "internalType": "uint256",
          "name": "",
          "type": "uint256"
        }
      ],
      "stateMutability": "view",
      "type": "function"
    },
    {
      "inputs": [],
      "name": "recoverAbandonedStakes",
      "outputs": [],
      "stateMutability": "nonpayable",
      "type": "function"
    },
    {
      "inputs": [
        {
          "internalType": "bytes4",
          "name": "funcSelector",
          "type": "bytes4"
        }
      ],
      "name": "removeAllowedChangeableParameter",
      "outputs": [],
      "stateMutability": "nonpayable",
      "type": "function"
    },
    {
      "inputs": [],
      "name": "removeMyPool",
      "outputs": [],
      "stateMutability": "nonpayable",
      "type": "function"
    },
    {
      "inputs": [
        {
          "internalType": "address",
          "name": "_stakingAddress",
          "type": "address"
        }
      ],
      "name": "removePool",
      "outputs": [],
      "stateMutability": "nonpayable",
      "type": "function"
    },
    {
      "inputs": [],
      "name": "removePools",
      "outputs": [],
      "stateMutability": "nonpayable",
      "type": "function"
    },
    {
      "inputs": [],
      "name": "renounceOwnership",
      "outputs": [],
      "stateMutability": "nonpayable",
      "type": "function"
    },
    {
      "inputs": [
        {
          "internalType": "address",
          "name": "_poolStakingAddress",
          "type": "address"
        },
        {
          "internalType": "uint256",
          "name": "_validatorMinRewardPercent",
          "type": "uint256"
        }
      ],
      "name": "restake",
      "outputs": [],
      "stateMutability": "payable",
      "type": "function"
    },
    {
      "inputs": [
        {
          "internalType": "bytes4",
          "name": "setter",
          "type": "bytes4"
        },
        {
          "internalType": "bytes4",
          "name": "getter",
          "type": "bytes4"
        },
        {
          "internalType": "uint256[]",
          "name": "params",
          "type": "uint256[]"
        }
      ],
      "name": "setAllowedChangeableParameter",
      "outputs": [],
      "stateMutability": "nonpayable",
      "type": "function"
    },
    {
      "inputs": [
        {
          "internalType": "address",
          "name": "_bonusScoreContract",
          "type": "address"
        }
      ],
      "name": "setBonusScoreContract",
      "outputs": [],
      "stateMutability": "nonpayable",
      "type": "function"
    },
    {
      "inputs": [
        {
          "internalType": "uint256",
          "name": "_minStake",
          "type": "uint256"
        }
      ],
      "name": "setDelegatorMinStake",
      "outputs": [],
      "stateMutability": "nonpayable",
      "type": "function"
    },
    {
      "inputs": [
        {
          "internalType": "address",
          "name": "_operatorAddress",
          "type": "address"
        },
        {
          "internalType": "uint256",
          "name": "_operatorShare",
          "type": "uint256"
        }
      ],
      "name": "setNodeOperator",
      "outputs": [],
      "stateMutability": "nonpayable",
      "type": "function"
    },
    {
      "inputs": [
        {
          "internalType": "bytes",
          "name": "_publicKey",
          "type": "bytes"
        },
        {
          "internalType": "bytes16",
          "name": "_ip",
          "type": "bytes16"
        },
        {
          "internalType": "bytes2",
          "name": "_port",
          "type": "bytes2"
        }
      ],
      "name": "setPoolInfo",
      "outputs": [],
      "stateMutability": "nonpayable",
      "type": "function"
    },
    {
      "inputs": [
        {
          "internalType": "address",
          "name": "_poolStakingAddress",
          "type": "address"
        },
        {
          "internalType": "uint256",
          "name": "_amount",
          "type": "uint256"
        }
      ],
      "name": "setStakeAmountTotal",
      "outputs": [],
      "stateMutability": "nonpayable",
      "type": "function"
    },
    {
      "inputs": [
        {
          "internalType": "uint256",
          "name": "_stakingEpoch",
          "type": "uint256"
        }
      ],
      "name": "setStakingEpoch",
      "outputs": [],
      "stateMutability": "nonpayable",
      "type": "function"
    },
    {
      "inputs": [
        {
          "internalType": "uint256",
          "name": "_timestamp",
          "type": "uint256"
        }
      ],
      "name": "setStakingEpochStartTime",
      "outputs": [],
      "stateMutability": "nonpayable",
      "type": "function"
    },
    {
      "inputs": [
        {
          "internalType": "address",
          "name": "_validatorAddress",
          "type": "address"
        },
        {
          "internalType": "bytes16",
          "name": "_ip",
          "type": "bytes16"
        },
        {
          "internalType": "bytes2",
          "name": "_port",
          "type": "bytes2"
        }
      ],
      "name": "setValidatorInternetAddress",
      "outputs": [],
      "stateMutability": "nonpayable",
      "type": "function"
    },
    {
      "inputs": [
        {
          "internalType": "contract IValidatorSetHbbft",
          "name": "_validatorSetAddress",
          "type": "address"
        }
      ],
      "name": "setValidatorMockSetAddress",
      "outputs": [],
      "stateMutability": "nonpayable",
      "type": "function"
    },
    {
      "inputs": [
        {
          "internalType": "contract IValidatorSetHbbft",
          "name": "_validatorSetAddress",
          "type": "address"
        }
      ],
      "name": "setValidatorSetAddress",
      "outputs": [],
      "stateMutability": "nonpayable",
      "type": "function"
    },
    {
      "inputs": [
        {
          "internalType": "uint256",
          "name": "_epoch",
          "type": "uint256"
        },
        {
          "internalType": "address",
          "name": "_stakingPool",
          "type": "address"
        }
      ],
      "name": "snapshotPoolStakeAmounts",
      "outputs": [],
      "stateMutability": "nonpayable",
      "type": "function"
    },
    {
      "inputs": [
        {
          "internalType": "uint256",
          "name": "",
          "type": "uint256"
        },
        {
          "internalType": "address",
          "name": "",
          "type": "address"
        }
      ],
      "name": "snapshotPoolTotalStakeAmount",
      "outputs": [
        {
          "internalType": "uint256",
          "name": "",
          "type": "uint256"
        }
      ],
      "stateMutability": "view",
      "type": "function"
    },
    {
      "inputs": [
        {
          "internalType": "uint256",
          "name": "",
          "type": "uint256"
        },
        {
          "internalType": "address",
          "name": "",
          "type": "address"
        }
      ],
      "name": "snapshotPoolValidatorStakeAmount",
      "outputs": [
        {
          "internalType": "uint256",
          "name": "",
          "type": "uint256"
        }
      ],
      "stateMutability": "view",
      "type": "function"
    },
    {
      "inputs": [
        {
          "internalType": "address",
          "name": "_toPoolStakingAddress",
          "type": "address"
        }
      ],
      "name": "stake",
      "outputs": [],
      "stateMutability": "payable",
      "type": "function"
    },
    {
      "inputs": [
        {
          "internalType": "address",
          "name": "",
          "type": "address"
        },
        {
          "internalType": "address",
          "name": "",
          "type": "address"
        }
      ],
      "name": "stakeAmount",
      "outputs": [
        {
          "internalType": "uint256",
          "name": "",
          "type": "uint256"
        }
      ],
      "stateMutability": "view",
      "type": "function"
    },
    {
      "inputs": [
        {
          "internalType": "address",
          "name": "_poolStakingAddress",
          "type": "address"
        },
        {
          "internalType": "address",
          "name": "_staker",
          "type": "address"
        }
      ],
      "name": "stakeAmountByCurrentEpoch",
      "outputs": [
        {
          "internalType": "uint256",
          "name": "",
          "type": "uint256"
        }
      ],
      "stateMutability": "view",
      "type": "function"
    },
    {
      "inputs": [
        {
          "internalType": "address",
          "name": "",
          "type": "address"
        }
      ],
      "name": "stakeAmountTotal",
      "outputs": [
        {
          "internalType": "uint256",
          "name": "",
          "type": "uint256"
        }
      ],
      "stateMutability": "view",
      "type": "function"
    },
    {
      "inputs": [],
      "name": "stakingEpoch",
      "outputs": [
        {
          "internalType": "uint256",
          "name": "",
          "type": "uint256"
        }
      ],
      "stateMutability": "view",
      "type": "function"
    },
    {
      "inputs": [],
      "name": "stakingEpochStartBlock",
      "outputs": [
        {
          "internalType": "uint256",
          "name": "",
          "type": "uint256"
        }
      ],
      "stateMutability": "view",
      "type": "function"
    },
    {
      "inputs": [],
      "name": "stakingEpochStartTime",
      "outputs": [
        {
          "internalType": "uint256",
          "name": "",
          "type": "uint256"
        }
      ],
      "stateMutability": "view",
      "type": "function"
    },
    {
      "inputs": [],
      "name": "stakingFixedEpochDuration",
      "outputs": [
        {
          "internalType": "uint256",
          "name": "",
          "type": "uint256"
        }
      ],
      "stateMutability": "view",
      "type": "function"
    },
    {
      "inputs": [],
      "name": "stakingFixedEpochEndTime",
      "outputs": [
        {
          "internalType": "uint256",
          "name": "",
          "type": "uint256"
        }
      ],
      "stateMutability": "view",
      "type": "function"
    },
    {
      "inputs": [],
      "name": "stakingTransitionTimeframeLength",
      "outputs": [
        {
          "internalType": "uint256",
          "name": "",
          "type": "uint256"
        }
      ],
      "stateMutability": "view",
      "type": "function"
    },
    {
      "inputs": [],
      "name": "stakingWithdrawDisallowPeriod",
      "outputs": [
        {
          "internalType": "uint256",
          "name": "",
          "type": "uint256"
        }
      ],
      "stateMutability": "view",
      "type": "function"
    },
    {
      "inputs": [],
      "name": "startTimeOfNextPhaseTransition",
      "outputs": [
        {
          "internalType": "uint256",
          "name": "",
          "type": "uint256"
        }
      ],
      "stateMutability": "view",
      "type": "function"
    },
    {
      "inputs": [],
      "name": "totalStakedAmount",
      "outputs": [
        {
          "internalType": "uint256",
          "name": "",
          "type": "uint256"
        }
      ],
      "stateMutability": "view",
      "type": "function"
    },
    {
      "inputs": [
        {
          "internalType": "address",
          "name": "newOwner",
          "type": "address"
        }
      ],
      "name": "transferOwnership",
      "outputs": [],
      "stateMutability": "nonpayable",
      "type": "function"
    },
    {
      "inputs": [
        {
          "internalType": "address",
          "name": "mining",
          "type": "address"
        },
        {
          "internalType": "uint256",
          "name": "validatorScore",
          "type": "uint256"
        }
      ],
      "name": "updatePoolLikelihood",
      "outputs": [],
      "stateMutability": "nonpayable",
      "type": "function"
    },
    {
      "inputs": [],
      "name": "updateStakingTransitionTimeframeLength",
      "outputs": [],
      "stateMutability": "nonpayable",
      "type": "function"
    },
    {
      "inputs": [],
      "name": "validatorSetContract",
      "outputs": [
        {
          "internalType": "contract IValidatorSetHbbft",
          "name": "",
          "type": "address"
        }
      ],
      "stateMutability": "view",
      "type": "function"
    },
    {
      "inputs": [
        {
          "internalType": "address",
          "name": "_fromPoolStakingAddress",
          "type": "address"
        },
        {
          "internalType": "uint256",
          "name": "_amount",
          "type": "uint256"
        }
      ],
      "name": "withdraw",
      "outputs": [],
      "stateMutability": "nonpayable",
      "type": "function"
    },
    {
      "stateMutability": "payable",
      "type": "receive"
    }
  ],
  "bytecode": "0x6080604052348015600f57600080fd5b506016601a565b60ca565b7ff0c57e16840df040f15088dc2f81fe391c3923bec73e23a9662efc9c229c6a00805468010000000000000000900460ff161560695760405163f92ee8a960e01b815260040160405180910390fd5b80546001600160401b039081161460c75780546001600160401b0319166001600160401b0390811782556040519081527fc7f505b2f371ae2175ee4913f4499e1f2633a7b5936321eed1cdaeb6115181d29060200160405180910390a15b50565b6164cf806100d96000396000f3fe6080604052600436106106115760003560e01c80638da5cb5b11610317578063cfef1441116101a5578063ed723ce1116100ec578063f2fde38b11610095578063f9d4d5441161006f578063f9d4d544146112aa578063fa4aaf47146112d7578063ffada8621461130457600080fd5b8063f2fde38b1461124a578063f3fef3a31461126a578063f6c578611461128a57600080fd5b8063f0756642116100c6578063f07566421461120a578063f078609614611220578063f2de66991461123657600080fd5b8063ed723ce1146111c0578063edd7db75146111e0578063ee435f55146111f557600080fd5b8063df6f55f51161014e578063e5b1d59311610128578063e5b1d5931461110e578063e9ab03001461114b578063eb3efa161461118357600080fd5b8063df6f55f5146110a2578063dfc8bf4e146110b7578063e2a43cd9146110d757600080fd5b8063d5c4b08a1161017f578063d5c4b08a14611047578063da7a9b6a1461105f578063dadee88a1461107557600080fd5b8063cfef144114610ff2578063d0ac76f614611012578063d290c21d1461103257600080fd5b8063a697ecff11610269578063b710c15d11610212578063bf348f86116101ec578063bf348f8614610f9d578063c6912cc014610fbd578063c6af311a14610fd257600080fd5b8063b710c15d14610f3b578063ba08d23714610f68578063bb57c8ac14610f8857600080fd5b8063ae1aaf8011610243578063ae1aaf8014610f05578063b163cc38146106ab578063b61ed63a14610f1b57600080fd5b8063a697ecff14610e98578063a711e6a114610ed0578063adddc0cf14610ef057600080fd5b80639b03d744116102cb5780639ea8082b116102a55780639ea8082b14610e2b578063a420596714610e4b578063a5d54f6514610e8357600080fd5b80639b03d74414610ddf5780639e6c295914610df55780639e72c63514610e0b57600080fd5b8063950a6513116102fc578063950a651314610d6d578063957950a714610d8d5780639a7b5f1114610db057600080fd5b80638da5cb5b14610d1d578063921e274b14610d5a57600080fd5b80634e9b426d1161049f5780637069e746116103e65780637b0a0f9b1161038f5780638247a239116103695780638247a23914610cb057806384725c7614610cd0578063862be28714610cfd57600080fd5b80637b0a0f9b14610c505780637b15b94c14610c705780637d8149db14610c9057600080fd5b806373c21803116103c057806373c2180314610bca578063750dd2a114610bea578063794c0c6814610c3a57600080fd5b80637069e74614610b69578063715018a614610b7f578063728345db14610b9457600080fd5b80635d80ca3211610448578063615f2b7111610422578063615f2b7114610af1578063673a2a1f14610b275780636bda157714610b4957600080fd5b80635d80ca3214610aa55780635fef764314610abb578063611d760c14610ad157600080fd5b8063567e98f911610479578063567e98f914610a2c5780635b4eafe014610a425780635ca2b65014610a8557600080fd5b80634e9b426d146109bc5780634f9a8d8f146109e95780635267e1d6146109ff57600080fd5b806322e3d98611610563578063371542631161050c5780633f3afe01116104e65780633f3afe01146109695780634160d3861461097c5780634346845f1461099c57600080fd5b8063371542631461091e578063379b046a146109335780633b7d09461461094957600080fd5b8063264762041161053d57806326476204146108ab5780632bafde8d146108be5780633219d600146108de57600080fd5b806322e3d9861461086157806322ffa02614610876578063251441a91461088b57600080fd5b8063129bd128116105c5578063159e0a951161059f578063159e0a95146107925780631fb31e43146107cf57806320c07cd81461084b57600080fd5b8063129bd128146107255780631345b8a5146107455780631555371c1461077d57600080fd5b80630ac6e291116105f65780630ac6e291146106ad5780630b770cdf146106cd57806311f86c991461070557600080fd5b8063028b8bdb1461063457806303a810651461065d57600080fd5b3661062f57604051631574f9f360e01b815260040160405180910390fd5b600080fd5b34801561064057600080fd5b5061064a60145481565b6040519081526020015b60405180910390f35b34801561066957600080fd5b506106ab6106783660046159a2565b6001600160a01b039283166000908152602260209081526040808320949095168252928352838120918152915290812055565b005b3480156106b957600080fd5b506106ab6106c8366004615a2f565b611324565b3480156106d957600080fd5b506024546106ed906001600160a01b031681565b6040516001600160a01b039091168152602001610654565b34801561071157600080fd5b5061064a6107203660046159a2565b6118b2565b34801561073157600080fd5b5061064a610740366004615adf565b6118e8565b34801561075157600080fd5b5061064a610760366004615b18565b602160209081526000928352604080842090915290825290205481565b34801561078957600080fd5b506106ab611915565b34801561079e57600080fd5b506106ab6107ad366004615b3d565b602480546001600160a01b0319166001600160a01b0392909216919091179055565b3480156107db57600080fd5b506108196107ea366004615b3d565b6001600160a01b03166000908152601e6020526040902060010154608081901b91600160801b90910460f01b90565b604080516fffffffffffffffffffffffffffffffff1990931683526001600160f01b0319909116602083015201610654565b34801561085757600080fd5b5061064a6107d081565b34801561086d57600080fd5b5061064a6119a0565b34801561088257600080fd5b5061064a6119e7565b34801561089757600080fd5b506106ab6108a63660046159a2565b611a1b565b6106ab6108b9366004615b3d565b611ad9565b3480156108ca57600080fd5b506106ab6108d9366004615b5a565b611b5c565b3480156108ea57600080fd5b5061090e6108f9366004615b3d565b601f6020526000908152604090205460ff1681565b6040519015158152602001610654565b34801561092a57600080fd5b506106ab611bdd565b34801561093f57600080fd5b5061064a601a5481565b34801561095557600080fd5b506106ab610964366004615b3d565b61200a565b6106ab610977366004615b73565b612059565b34801561098857600080fd5b506106ab610997366004615b73565b61238f565b3480156109a857600080fd5b506106ab6109b7366004615bbc565b61242e565b3480156109c857600080fd5b506109dc6109d7366004615b3d565b612534565b6040516106549190615c6d565b3480156109f557600080fd5b5061064a60165481565b348015610a0b57600080fd5b5061064a610a1a366004615b3d565b601b6020526000908152604090205481565b348015610a3857600080fd5b5061064a601c5481565b348015610a4e57600080fd5b5061064a610a5d366004615b18565b60009182526021602090815260408084206001600160a01b0393909316845291905290205490565b348015610a9157600080fd5b506106ab610aa0366004615b5a565b601555565b348015610ab157600080fd5b5061064a600e5481565b348015610ac757600080fd5b5061064a600c5481565b348015610add57600080fd5b506106ab610aec366004615b3d565b6125e0565b348015610afd57600080fd5b506106ed610b0c366004615b3d565b6025602052600090815260409020546001600160a01b031681565b348015610b3357600080fd5b50610b3c6125eb565b6040516106549190615c80565b348015610b5557600080fd5b5061064a610b64366004615adf565b6125f7565b348015610b7557600080fd5b5061064a60195481565b348015610b8b57600080fd5b506106ab612778565b348015610ba057600080fd5b5061064a610baf366004615b18565b60208080526000928352604080842090915290825290205481565b348015610bd657600080fd5b50610b3c610be5366004615b3d565b61278c565b348015610bf657600080fd5b5061064a610c05366004615adf565b6001600160a01b039182166000908152600b602090815260408083209390941682529182528281206015548252909152205490565b348015610c4657600080fd5b5061064a60155481565b348015610c5c57600080fd5b506106ab610c6b366004615d06565b6127b0565b348015610c7c57600080fd5b506106ab610c8b366004615b3d565b612846565b348015610c9c57600080fd5b506106ab610cab366004615d4b565b6128c6565b348015610cbc57600080fd5b506106ab610ccb366004615b5a565b612948565b348015610cdc57600080fd5b5061064a610ceb366004615b3d565b60266020526000908152604090205481565b348015610d0957600080fd5b506106ab610d18366004615da8565b612994565b348015610d2957600080fd5b507f9016d09d72d40fdae2fd8ceac6b6234c7706214fd39c1cd1e609a0528c199300546001600160a01b03166106ed565b6106ab610d68366004615e0d565b6129f7565b348015610d7957600080fd5b5061064a610d88366004615adf565b612c0c565b348015610d9957600080fd5b50610da2612d54565b604051610654929190615ecb565b348015610dbc57600080fd5b50610dd0610dcb366004615b3d565b612db7565b60405161065493929190615eed565b348015610deb57600080fd5b5061064a60185481565b348015610e0157600080fd5b5061064a61271081565b348015610e1757600080fd5b506106ab610e26366004615b5a565b612e6b565b348015610e3757600080fd5b50610b3c610e46366004615b3d565b612ed4565b348015610e5757600080fd5b5061064a610e66366004615adf565b601160209081526000928352604080842090915290825290205481565b348015610e8f57600080fd5b50610b3c612ef8565b348015610ea457600080fd5b5061064a610eb3366004615adf565b601360209081526000928352604080842090915290825290205481565b348015610edc57600080fd5b5061090e610eeb366004615b3d565b612f5a565b348015610efc57600080fd5b506106ab612f66565b348015610f1157600080fd5b5061064a60175481565b348015610f2757600080fd5b506106ab610f36366004615b73565b612fc4565b348015610f4757600080fd5b50610f5b610f56366004615f4a565b61332b565b6040516106549190615ffb565b348015610f7457600080fd5b5061090e610f83366004616029565b6133db565b348015610f9457600080fd5b5061064a6135b6565b348015610fa957600080fd5b50610f5b610fb8366004615d4b565b6135d2565b348015610fc957600080fd5b5061064a613677565b348015610fde57600080fd5b506106ab610fed366004615b73565b613696565b348015610ffe57600080fd5b506106ab61100d366004615b3d565b613740565b34801561101e57600080fd5b506106ab61102d366004615b18565b613913565b34801561103e57600080fd5b50610b3c613a52565b34801561105357600080fd5b506106ab610384601755565b34801561106b57600080fd5b5061064a600d5481565b34801561108157600080fd5b5061064a611090366004615b3d565b60106020526000908152604090205481565b3480156110ae57600080fd5b50610b3c613a5e565b3480156110c357600080fd5b50601d546106ed906001600160a01b031681565b3480156110e357600080fd5b506106ab6110f2366004615b73565b6001600160a01b039091166000908152601b6020526040902055565b34801561111a57600080fd5b506106ab611129366004615b3d565b602980546001600160a01b0319166001600160a01b0392909216919091179055565b34801561115757600080fd5b5061064a611166366004615adf565b600f60209081526000928352604080842090915290825290205481565b34801561118f57600080fd5b506106ab61119e366004615b3d565b601d80546001600160a01b0319166001600160a01b0392909216919091179055565b3480156111cc57600080fd5b506106ab6111db366004615b5a565b613a6a565b3480156111ec57600080fd5b506106ab613b16565b34801561120157600080fd5b506106ab613c56565b34801561121657600080fd5b5061064a60285481565b34801561122c57600080fd5b5061064a610bb881565b34801561124257600080fd5b50606461064a565b34801561125657600080fd5b506106ab611265366004615b3d565b613cba565b34801561127657600080fd5b506106ab611285366004615b73565b613cf5565b34801561129657600080fd5b5061090e6112a5366004615b3d565b613dae565b3480156112b657600080fd5b5061064a6112c5366004615b3d565b60276020526000908152604090205481565b3480156112e357600080fd5b5061064a6112f2366004615b3d565b60126020526000908152604090205481565b34801561131057600080fd5b506106ab61131f366004615b3d565b613dcb565b7ff0c57e16840df040f15088dc2f81fe391c3923bec73e23a9662efc9c229c6a00805468010000000000000000810460ff16159067ffffffffffffffff1660008115801561136f5750825b905060008267ffffffffffffffff16600114801561138c5750303b155b90508115801561139a575080155b156113b85760405163f92ee8a960e01b815260040160405180910390fd5b845467ffffffffffffffff1916600117855583156113ec57845468ff00000000000000001916680100000000000000001785555b6001600160a01b038b166114135760405163d92e233d60e01b815260040160405180910390fd5b61141c8a613dd4565b8761142a60408c018c616045565b611436915060026160a5565b146114535760405162d6988760e81b815260040160405180910390fd5b8561146160408c018c616045565b905014611481576040516320041afd60e01b815260040160405180910390fd5b61148a8b613efe565b611492613f0f565b61149f60208b018b615b3d565b601d80546001600160a01b0319166001600160a01b03929092169190911790556114cf60408b0160208c01615b3d565b602480546001600160a01b0319166001600160a01b03929092169190911790553660006114ff60408d018d616045565b9150915060005b81811015611722576000838383818110611522576115226160bc565b90506020020160208101906115379190615b3d565b6001600160a01b03160361155e5760405163d92e233d60e01b815260040160405180910390fd5b61158f838383818110611573576115736160bc565b90506020020160208101906115889190615b3d565b6000613f1f565b6115be8383838181106115a4576115a46160bc565b90506020020160208101906115b99190615b3d565b613f7e565b8b8b6115cb8360026160a5565b8181106115da576115da6160bc565b905060200201358c8c8360026115f091906160a5565b6115fb9060016160d2565b81811061160a5761160a6160bc565b9050602002013560405160200161162b929190918252602082015260400190565b604051602081830303815290604052601e6000858585818110611650576116506160bc565b90506020020160208101906116659190615b3d565b6001600160a01b03168152602081019190915260400160002090611689908261616f565b5089898281811061169c5761169c6160bc565b90506020020160208101906116b1919061622f565b601e60008585858181106116c7576116c76160bc565b90506020020160208101906116dc9190615b3d565b6001600160a01b031681526020810191909152604001600020600190810180546fffffffffffffffffffffffffffffffff191660809390931c9290921790915501611506565b5060408051600580825260c082019092526000916020820160a0803683370190505090506802b5e3af16b188000081600081518110611763576117636160bc565b60200260200101818152505068056bc75e2d631000008160018151811061178c5761178c6160bc565b602002602001018181525050680821ab0d4414980000816002815181106117b5576117b56160bc565b602002602001018181525050680ad78ebc5ac6200000816003815181106117de576117de6160bc565b602002602001018181525050680d8d726b7177a8000081600481518110611807576118076160bc565b602090810291909101015261182b632bafde8d60e01b636d3d4db560e11b83613f93565b50505060608a0135600d5560808a0135600c5560a08a0135600e5560c08a01356016554260185560e08a013560175583156118a557845468ff000000000000000019168555604051600181527fc7f505b2f371ae2175ee4913f4499e1f2633a7b5936321eed1cdaeb6115181d29060200160405180910390a15b5050505050505050505050565b6001600160a01b0380841660009081526022602090815260408083209386168352928152828220848352905220545b9392505050565b6001600160a01b038083166000908152602360209081526040808320938516835292905220545b92915050565b601d546001600160a01b0316331480159061193b57506029546001600160a01b03163314155b15611958576040516282b42960e81b815260040160405180910390fd5b60006119646004614048565b905060005b815181101561199c57611994828281518110611987576119876160bc565b6020026020010151614055565b600101611969565b5050565b60185460165460009190156119b65760016119b9565b60005b60ff16601a54601654836119cd91906160d2565b6119d791906160d2565b6119e1919061624a565b91505090565b6000602854600014611a1557601a54601754602854611a0691906160d2565b611a1091906160d2565b905090565b50600090565b3a600003611a3c57604051630e661aed60e41b815260040160405180910390fd5b816001600160a01b0316836001600160a01b031603611a6e57604051630a5eddd560e01b815260040160405180910390fd5b33611a7a84828461409b565b611a85838284614349565b601554604080516001600160a01b0387811682526020820186905280851692908716917f4480d8e4b1e9095b94bf513961d26fe1d32386ebdd103d18fe8738cf4b2223ff910160405180910390a450505050565b3a600003611afa57604051630e661aed60e41b815260040160405180910390fd5b3334611b07838383614349565b601554826001600160a01b0316846001600160a01b03167f2273de02cb1f69ba6259d22c4bc22c60e4c94c193265ef6afee324a04a9b6d2284604051611b4f91815260200190565b60405180910390a4505050565b611b6461469a565b80611b7b6000356001600160e01b031916826133db565b611ba0576040516373330d9b60e01b8152600481018290526024015b60405180910390fd5b600d8290556040518281527ffee02ce7aa40f9c49eaabd26d404fa88714b97cb209af8954cfd5eeb8213b93e906020015b60405180910390a15050565b3a600003611bfe57604051630e661aed60e41b815260040160405180910390fd5b600080611c0b6002614048565b90508051600003611c2f57604051631c369b4560e21b815260040160405180910390fd5b60005b8151811015611e17576000828281518110611c4f57611c4f6160bc565b60200260200101519050611c62816146f5565b80611cd85750601d54604051639d6fc1d160e01b81526001600160a01b03838116600483015290911690639d6fc1d190602401602060405180830381865afa158015611cb2573d6000803e3d6000fd5b505050506040513d601f19601f82011682018060405250810190611cd6919061625d565b155b15611ce35750611e0f565b611cee600282614733565b506001600160a01b0381166000908152601f60209081526040808320805460ff19166001179055601b9091528120805490829055601c805491928392611d3590849061624a565b9091555060009050611d4683612ed4565b905060005b8151811015611db1576000828281518110611d6857611d686160bc565b6020908102919091018101516001600160a01b0380881660009081526013845260408082209284168252919093528220919091559050611da88582614748565b50600101611d4b565b50611dbc82876160d2565b9550826001600160a01b0316336001600160a01b03167f8e6a4ccd7dccdca9ac211d00fcc3fa7c71be75ff73d3a35f63ea023173cc100484604051611e0391815260200190565b60405180910390a35050505b600101611c32565b5081600003611e3957604051631c369b4560e21b815260040160405180910390fd5b6000611e4660028461627f565b90506000611e54828561624a565b90506000601d60009054906101000a90046001600160a01b03166001600160a01b03166356b54bae6040518163ffffffff1660e01b8152600401602060405180830381865afa158015611eab573d6000803e3d6000fd5b505050506040513d601f19601f82011682018060405250810190611ecf91906162a1565b90506000601d60009054906101000a90046001600160a01b03166001600160a01b03166356b54bae6040518163ffffffff1660e01b8152600401602060405180830381865afa158015611f26573d6000803e3d6000fd5b505050506040513d601f19601f82011682018060405250810190611f4a91906162a1565b90506000816001600160a01b031663732524946040518163ffffffff1660e01b8152600401602060405180830381865afa158015611f8c573d6000803e3d6000fd5b505050506040513d601f19601f82011682018060405250810190611fb091906162a1565b9050611fbc83856147aa565b611fc681866147aa565b604080518581526020810187905233917f1c113e6bae9530fea40323e612aeb0cb7817dedb5a0b0f6bdfbff97d55920dc7910160405180910390a250505050505050565b601d546001600160a01b0316331480159061203057506029546001600160a01b03163314155b1561204d576040516282b42960e81b815260040160405180910390fd5b61205681614055565b50565b601d60009054906101000a90046001600160a01b03166001600160a01b03166356b54bae6040518163ffffffff1660e01b8152600401602060405180830381865afa1580156120ac573d6000803e3d6000fd5b505050506040513d601f19601f820116820180604052508101906120d091906162a1565b6001600160a01b0316336001600160a01b031614612100576040516282b42960e81b815260040160405180910390fd5b341561199c576015546000908152602080805260408083206001600160a01b03861684529091528120543491612137858486614851565b9050600061214486612ed4565b905060005b81518110156122935760008461217b6015548a86868151811061216e5761216e6160bc565b6020026020010151614970565b856040015161218a91906160a5565b612194919061627f565b905080601360008a6001600160a01b03166001600160a01b0316815260200190815260200160002060008585815181106121d0576121d06160bc565b60200260200101516001600160a01b03166001600160a01b03168152602001908152602001600020600082825461220791906160d2565b90915550506001600160a01b0388166000908152600b60205260408120845183929086908690811061223b5761223b6160bc565b60200260200101516001600160a01b03166001600160a01b0316815260200190815260200160002060006015548152602001908152602001600020600082825461228591906160d2565b909155505050600101612149565b506020820151156122ac576122ac868360200151614a0f565b81516001600160a01b0387166000908152601360209081526040808320909152812080549091906122de9084906160d2565b90915550506001600160a01b0386166000908152601b60205260408120805486929061230b9084906160d2565b9250508190555083601c600082825461232491906160d2565b90915550612333905086614ad6565b60155482516001600160a01b038816907f72093068b9f28053bd924ac15d7710b987f9b6ef1e0f89f47d8b4bd7cac776dc9061236f818961624a565b6040805192835260208301919091520160405180910390a3505050505050565b601d546040516253517560e01b81523360048201526000916001600160a01b0316906253517590602401602060405180830381865afa1580156123d6573d6000803e3d6000fd5b505050506040513d601f19601f820116820180604052508101906123fa91906162a1565b6001600160a01b03160361242357604051632670461960e11b8152336004820152602401611b97565b61199c338383614bc2565b61243661469a565b6000612440614cfa565b90506040518060400160405280857bffffffffffffffffffffffffffffffffffffffffffffffffffffffff1916815260200184848080602002602001604051908101604052809392919081815260200183836020028082843760009201829052509390945250506001600160e01b031988168152602084815260409091208351815463ffffffff191660e09190911c1781558382015180519193506124ec926001850192910190615913565b509050507f3665bf9cd0ba4ddceeec259e21dcf8a4510f3b1130bd42e950828e69d85408ba8585858560405161252594939291906162be565b60405180910390a15050505050565b6001600160a01b0381166000908152601e6020526040902080546060919061255b906160e5565b80601f0160208091040260200160405190810160405280929190818152602001828054612587906160e5565b80156125d45780601f106125a9576101008083540402835291602001916125d4565b820191906000526020600020905b8154815290600101906020018083116125b757829003601f168201915b50505050509050919050565b612056816001613f1f565b6060611a106000614048565b601d546040516253517560e01b81526001600160a01b03848116600483015260009283929116906253517590602401602060405180830381865afa158015612643573d6000803e3d6000fd5b505050506040513d601f19601f8201168201806040525081019061266791906162a1565b6001600160a01b0385166000908152601f602052604090205490915060ff161561269557600091505061190f565b6001600160a01b03848116600090815260136020908152604080832087851684529091529081902054601d54915163a0d16cad60e01b815284841660048201529092919091169063a0d16cad90602401602060405180830381865afa158015612702573d6000803e3d6000fd5b505050506040513d601f19601f82011682018060405250810190612726919061625d565b61273357915061190f9050565b6001600160a01b038581166000908152600b6020908152604080832093881683529281528282206015548352905220548082111561276f578091505b50949350505050565b61278061469a565b61278a6000614d5c565b565b6001600160a01b0381166000908152600a6020526040902060609061190f90614048565b601d546001600160a01b031633148015906127d657506029546001600160a01b03163314155b156127f3576040516282b42960e81b815260040160405180910390fd5b6001600160a01b039092166000908152601e60205260409020600101805460f09390931c600160801b0271ffffffffffffffffffffffffffffffffffff1990931660809290921c91909117919091179055565b601d546001600160a01b0316331480159061286c57506029546001600160a01b03163314155b15612889576040516282b42960e81b815260040160405180910390fd5b600c546001600160a01b038216600090815260136020908152604080832090915290205410612056576128bd816001613f1f565b61205681614ad6565b6128ce61469a565b60006128d8614cfa565b6001600160e01b031983166000908152602082905260408120805463ffffffff1916815591925061290c600183018261595e565b50506040516001600160e01b0319831681527fed27cb02231782dadf13473a7828cb980c4d685791b7a3136dde00f8c3594cb690602001611bd1565b601d546001600160a01b0316331480159061296e57506029546001600160a01b03163314155b1561298b576040516282b42960e81b815260040160405180910390fd5b60185543601955565b336000908152601e602052604090206129ae84868361632b565b50336000908152601e60205260409020600101805460f09290921c600160801b0271ffffffffffffffffffffffffffffffffffff1990921660809390931c929092171790555050565b3a600003612a1857604051630e661aed60e41b815260040160405180910390fd5b601d54604051630526083960e11b81526001600160a01b0388811660048301523360248301819052923492911690630a4c107290604401600060405180830381600087803b158015612a6957600080fd5b505af1158015612a7d573d6000803e3d6000fd5b50505050612ac085858080601f016020809104026020016040519081016040528093929190818152602001838380828437600092019190915250614dcd92505050565b612add5760405163145a1fdd60e31b815260040160405180910390fd5b876001600160a01b0316612b2686868080601f016020809104026020016040519081016040528093929190818152602001838380828437600092019190915250614e8492505050565b6001600160a01b031614612b4d57604051631e5abf9560e01b815260040160405180910390fd5b6001600160a01b0382166000908152601e60205260409020612b7085878361632b565b506001600160a01b0382166000908152601e6020526040902060010180546fffffffffffffffffffffffffffffffff1916608085901c179055612bb4828888614bc2565b612bbf828383614349565b6015546040518281526001600160a01b0384169081907f2273de02cb1f69ba6259d22c4bc22c60e4c94c193265ef6afee324a04a9b6d229060200160405180910390a45050505050505050565b601d546040516253517560e01b81526001600160a01b03848116600483015260009283929116906253517590602401602060405180830381865afa158015612c58573d6000803e3d6000fd5b505050506040513d601f19601f82011682018060405250810190612c7c91906162a1565b601d5460405163a0d16cad60e01b81526001600160a01b03808416600483015292935091169063a0d16cad90602401602060405180830381865afa158015612cc8573d6000803e3d6000fd5b505050506040513d601f19601f82011682018060405250810190612cec919061625d565b612cfa57600091505061190f565b6001600160a01b038481166000818152600b602090815260408083209488168084529482528083206015548452825280832054938352601382528083209483529390529190912054612d4c919061624a565b949350505050565b60606000600760085481805480602002602001604051908101604052809291908181526020018280548015612da857602002820191906000526020600020905b815481526020019060010190808311612d94575b50505050509150915091509091565b601e60205260009081526040902080548190612dd2906160e5565b80601f0160208091040260200160405190810160405280929190818152602001828054612dfe906160e5565b8015612e4b5780601f10612e2057610100808354040283529160200191612e4b565b820191906000526020600020905b815481529060010190602001808311612e2e57829003601f168201915b50505060019093015491925050608081901b90600160801b900460f01b83565b601d546001600160a01b03163314801590612e9157506029546001600160a01b03163314155b15612eae576040516282b42960e81b815260040160405180910390fd5b601754612ebb90826160d2565b601a6000828254612ecc91906160d2565b909155505050565b6001600160a01b038116600090815260096020526040902060609061190f90614048565b60606006805480602002602001604051908101604052809291908181526020018280548015612f5057602002820191906000526020600020905b81546001600160a01b03168152600190910190602001808311612f32575b5050505050905090565b600061190f8183614e8f565b601d546001600160a01b03163314801590612f8c57506029546001600160a01b03163314155b15612fa9576040516282b42960e81b815260040160405180910390fd5b601754601a6000828254612fbd91906160d2565b9091555050565b3a600003612fe557604051630e661aed60e41b815260040160405180910390fd5b6001600160a01b03821661300c5760405163d92e233d60e01b815260040160405180910390fd5b8060000361302d57604051633ca0029d60e01b815260040160405180910390fd5b6001600160a01b0382166000818152600f602090815260408083203380855290835281842054858552601084528285205460138552838620838752855283862054968652601b9094529184205490949193861315613137578560006130928988612c0c565b9050808211156130bf57604051632de4882160e01b81526004810182905260248101839052604401611b97565b6130c982876160d2565b95506130d582866160d2565b94506130e1828561624a565b93506130ed828461624a565b925081601c6000828254613101919061624a565b90915550506015546001600160a01b03808b166000908152601160209081526040808320938c16835292905220555061318d9050565b6000613142876163ec565b905061314e818661624a565b945061315a818561624a565b935061316681846160d2565b925061317281836160d2565b915080601c600082825461318691906160d2565b9091555050505b6001600160a01b038088166000818152600f60209081526040808320948a1680845294825280832089905583835260108252808320889055601382528083208584528252808320879055838352601b9091529020839055900361325c5781158015906131fa5750600c5482105b1561323257604051636fe84f3d60e01b81526001600160a01b0380891660048301528616602482015260448101879052606401611b97565b6000861315613251578160000361324c5761324c87613f7e565b6132c9565b61324c876001613f1f565b811580159061326c5750600d5482105b156132a457604051636fe84f3d60e01b81526001600160a01b0380891660048301528616602482015260448101879052606401611b97565b60008613156132bf578160000361324c5761324c8786614748565b6132c98786614eb1565b6132d287614ad6565b601554856001600160a01b0316886001600160a01b03167f80d5c777e5f7ac6ee89723223803ca5c0ec0204f89e99c1b0cde973c66a645948960405161331a91815260200190565b60405180910390a450505050505050565b604080518082019091526000815260606020820152613348614cfa565b82516020808501919091206001600160e01b0319908116600090815292825260409283902083518085018552815460e01b90921682526001810180548551818602810186019096528086529294919385810193908301828280156133cb57602002820191906000526020600020905b8154815260200190600101908083116133b7575b5050505050815250509050919050565b6000806133e6614cfa565b6001600160e01b031980861660009081526020838152604080832081518083018352815460e01b9095168552600181018054835181860281018601909452808452969750939590938584019390919083018282801561346457602002820191906000526020600020905b815481526020019060010190808311613450575b50505050508152505090508060200151516000036134875760009250505061190f565b6020810151815160009061349a90614ede565b905060005b82518110156135a857818382815181106134bb576134bb6160bc565b6020026020010151036135a05760008082116134f157836000815181106134e4576134e46160bc565b6020026020010151613516565b836134fd60018461624a565b8151811061350d5761350d6160bc565b60200260200101515b9050600060018551613528919061624a565b831061355a57846001865161353d919061624a565b8151811061354d5761354d6160bc565b602002602001015161357f565b846135668460016160d2565b81518110613576576135766160bc565b60200260200101515b90508189141580156135915750808914155b1597505050505050505061190f565b60010161349f565b506000979650505050505050565b60006028546000146135ca57611a106119e7565b611a106119a0565b6040805180820190915260008152606060208201526135ef614cfa565b6001600160e01b03198084166000908152602092835260409081902081518083018352815460e01b90931683526001810180548351818702810187019094528084529394919385830193928301828280156133cb57602002820191906000526020600020908154815260200190600101908083116133b7575050505050815250509050919050565b600060175460165460185461368c91906160d2565b611a10919061624a565b6024546001600160a01b031633146136c0576040516282b42960e81b815260040160405180910390fd5b601d546040516307b9342f60e21b81526001600160a01b0384811660048301526000921690631ee4d0bc90602401602060405180830381865afa15801561370b573d6000803e3d6000fd5b505050506040513d601f19601f8201168201806040525081019061372f91906162a1565b905061373b8183614fb5565b505050565b3a60000361376157604051630e661aed60e41b815260040160405180910390fd5b61376961505f565b6001600160a01b038116600090815260116020908152604080832033808552925290912054601554116137c257604051630b06352b60e31b81526001600160a01b03808416600483015282166024820152604401611b97565b6001600160a01b038083166000908152600f602090815260408083209385168352929052908120549081900361380b57604051633ca0029d60e01b815260040160405180910390fd5b6001600160a01b038084166000818152600f6020908152604080832094871683529381528382208290559181526010909152205461384a90829061624a565b6001600160a01b038085166000908152601060209081526040808320949094556013815283822092861682529190915290812054900361388e5761388e83836150a9565b61389882826147aa565b601554826001600160a01b0316846001600160a01b03167ff380b0bc887e00f5b50d3c9d4eaaf5c9a0afd97b956316b995159384c4ede9b3846040516138e091815260200190565b60405180910390a4505061205660017f9b779b17422d0df92223018b32b4d1fa46e071723d6817e2486d003becc55f0055565b601d60009054906101000a90046001600160a01b03166001600160a01b03166356b54bae6040518163ffffffff1660e01b8152600401602060405180830381865afa158015613966573d6000803e3d6000fd5b505050506040513d601f19601f8201168201806040525081019061398a91906162a1565b6001600160a01b0316336001600160a01b0316146139ba576040516282b42960e81b815260040160405180910390fd5b6000828152602080805260408083206001600160a01b0385168452909152812054900361199c576001600160a01b0381166000908152601b602052604081205490819003613a0757505050565b6000838152602080805260408083206001600160a01b038616808552908352818420949094556013825280832082528083205486845260218352818420948452939091529020555050565b6060611a106004614048565b6060611a106002614048565b601d60009054906101000a90046001600160a01b03166001600160a01b03166356b54bae6040518163ffffffff1660e01b8152600401602060405180830381865afa158015613abd573d6000803e3d6000fd5b505050506040513d601f19601f82011682018060405250810190613ae191906162a1565b6001600160a01b0316336001600160a01b031614613b11576040516282b42960e81b815260040160405180910390fd5b602855565b3a600003613b3757604051630e661aed60e41b815260040160405180910390fd5b601d546040516253517560e01b81523360048201819052916000916001600160a01b03909116906253517590602401602060405180830381865afa158015613b83573d6000803e3d6000fd5b505050506040513d601f19601f82011682018060405250810190613ba791906162a1565b90506015546000148015613c245750601d5460405163facd743b60e01b81526001600160a01b0383811660048301529091169063facd743b90602401602060405180830381865afa158015613c00573d6000803e3d6000fd5b505050506040513d601f19601f82011682018060405250810190613c24919061625d565b15613c4d576040516303d71f2d60e51b81526001600160a01b0383166004820152602401611b97565b61199c82614055565b601d546001600160a01b03163314801590613c7c57506029546001600160a01b03163314155b15613c99576040516282b42960e81b815260040160405180910390fd5b60158054906000613ca983616408565b90915550506000601a819055602855565b613cc261469a565b6001600160a01b038116613cec57604051631e4fbdf760e01b815260006004820152602401611b97565b61205681614d5c565b3a600003613d1657604051630e661aed60e41b815260040160405180910390fd5b613d1e61505f565b33613d2a83828461409b565b613d3481836147aa565b601554816001600160a01b0316846001600160a01b03167fa7c0f0cac6bd4d18042007706c84a8abe823751cf289b69c01e83eef7b5915c785604051613d7c91815260200190565b60405180910390a45061199c60017f9b779b17422d0df92223018b32b4d1fa46e071723d6817e2486d003becc55f0055565b6000613dba8183614e8f565b8061190f575061190f600283614e8f565b612056816151ff565b8060c00135600003613df95760405163c671116b60e01b815260040160405180910390fd5b60e08101351580613e1257508060c001358160e0013510155b15613e3057604051630685efe960e01b815260040160405180910390fd5b6000613e3f6020830183615b3d565b6001600160a01b031603613e665760405163d92e233d60e01b815260040160405180910390fd5b613e736040820182616045565b9050600003613e9557604051635c9a24ed60e11b815260040160405180910390fd5b60608101351580613ea857506080810135155b15613ed65760405163633373e160e11b81526080820135600482015260608201356024820152604401611b97565b80608001358160a001351161205657604051631c6d3b1560e01b815260040160405180910390fd5b613f0661520a565b61205681615258565b613f1761520a565b61278a615260565b613f2882612f5a565b613f6357613f37600083615268565b506064613f44600061527d565b1115613f635760405163398dcd9d60e21b815260040160405180910390fd5b613f6e600283614733565b50801561199c5761199c82615287565b613f89600482615268565b506120568161537c565b613f9b61520a565b6000613fa5614cfa565b6040805180820182526001600160e01b0319868116825260208083018781529189166000908152858252939093208251815463ffffffff191660e09190911c1781559051805194955091939092614003926001850192910190615913565b509050507f3665bf9cd0ba4ddceeec259e21dcf8a4510f3b1130bd42e950828e69d85408ba84848460405161403a93929190616421565b60405180910390a150505050565b606060006118e183615599565b614060600082614733565b5061406a816146f5565b156140805761407a600282614733565b50614089565b614089816151ff565b6140928161537c565b612056816155f4565b6001600160a01b0383166140c25760405163d92e233d60e01b815260040160405180910390fd5b806000036140e357604051633ca0029d60e01b815260040160405180910390fd5b60006140ef84846125f7565b90508082111561411c57604051632de4882160e01b81526004810182905260248101839052604401611b97565b6001600160a01b03808516600090815260136020908152604080832093871683529290529081205461414f90849061624a565b90506000846001600160a01b0316866001600160a01b03161461417457600d54614178565b600c545b9050811580159061418857508082105b156141c057604051639e612d5760e01b81526001600160a01b0380881660048301528616602482015260448101859052606401611b97565b856001600160a01b0316856001600160a01b03161461425557601d546040516253517560e01b81526001600160a01b03888116600483015260009216906253517590602401602060405180830381865afa158015614222573d6000803e3d6000fd5b505050506040513d601f19601f8201168201806040525081019061424691906162a1565b90506142538782886155ff565b505b6001600160a01b038681166000818152601360209081526040808320948a16808452948252808320879055928252600b81528282209382529283528181206015548252909252902054848110156142ad5760006142b7565b6142b7858261624a565b6001600160a01b038089166000818152600b60209081526040808320948c1683529381528382206015548352815283822094909455908152601b9092528120805487929061430690849061624a565b9250508190555084601c600082825461431f919061624a565b909155505060008390036143375761433787876150a9565b61434087614ad6565b50505050505050565b6001600160a01b0383166143705760405163d92e233d60e01b815260040160405180910390fd5b601d546040516253517560e01b81526001600160a01b03858116600483015260009216906253517590602401602060405180830381865afa1580156143b9573d6000803e3d6000fd5b505050506040513d601f19601f820116820180604052508101906143dd91906162a1565b90506001600160a01b03811661441157604051632670461960e11b81526001600160a01b0385166004820152602401611b97565b816000036144455760405163e59f5c3960e01b81526001600160a01b03808616600483015284166024820152604401611b97565b6001600160a01b0384166000908152601f602052604090205460ff161561448a5760405163078137eb60e41b81526001600160a01b0385166004820152602401611b97565b6001600160a01b0380851660008181526013602090815260408083209488168084529490915281205492909114916144c39085906160d2565b9050600082156144d65750600c54614525565b50600d546001600160a01b038716600090815260136020908152604080832090915281205490036145255760405163cbbeb0bd60e01b81526001600160a01b0388166004820152602401611b97565b808210156145595760405163e59f5c3960e01b81526001600160a01b03808916600483015287166024820152604401611b97565b600e546001600160a01b0388166000908152601b60205260409020546145809087906160d2565b11156145b257604051632c2b174160e21b81526001600160a01b03808916600483015287166024820152604401611b97565b6001600160a01b038088166000908152600b60209081526040808320938a1683529281528282206015548352905290812080548792906145f39084906160d2565b90915550506001600160a01b0387166000908152601b6020526040812080548792906146209084906160d2565b9250508190555084601c600082825461463991906160d2565b909155505082156146545761464f876001613f1f565b614669565b61465e8787614eb1565b6146698785886155ff565b6001600160a01b038088166000908152601360209081526040808320938a1683529290522082905561434087614ad6565b336146cc7f9016d09d72d40fdae2fd8ceac6b6234c7706214fd39c1cd1e609a0528c199300546001600160a01b031690565b6001600160a01b03161461278a5760405163118cdaa760e01b8152336004820152602401611b97565b6001600160a01b0381166000908152601b602052604081205415801561190f5750506001600160a01b03166000908152601060205260409020541590565b60006118e1836001600160a01b03841661571b565b6001600160a01b038216600090815260096020526040902061476a9082614733565b506001600160a01b038083166000908152600f6020908152604080832093851683529290522054156147a05761199c828261580e565b61199c8282615830565b804710156147cb57604051631e9acf1760e31b815260040160405180910390fd5b6000826001600160a01b03168260405160006040518083038185875af1925050503d8060008114614818576040519150601f19603f3d011682016040523d82523d6000602084013e61481d565b606091505b505090508061373b57604051630e21dcbb60e11b81526001600160a01b038416600482015260248101839052604401611b97565b61487560405180606001604052806000815260200160008152602001600081525090565b6015546000818152602080805260408083206001600160a01b03891680855290835281842054948452602183528184209084529091528120549060646148bb86886160a5565b6148c5919061627f565b90506148d1818761624a565b6040808601919091526001600160a01b0380891660009081526026602090815283822054602590915292902054161580159061490c57508015155b1561492e5761271061491e82896160a5565b614928919061627f565b60208601525b8383866040015161493f91906160a5565b614949919061627f565b6020860151614958908461624a565b61496291906160d2565b855250929695505050505050565b600083600003614982575060006118e1565b6001600160a01b038084166000908152602360209081526040808320938616835292905220548490036149e357506001600160a01b0380831660009081526022602090815260408083209385168352928152828220868352905220546118e1565b506001600160a01b038083166000908152601360209081526040808320938516835292905220546118e1565b6001600160a01b038083166000908152602560209081526040808320546009909252909120911690614a419082614e8f565b614a4f57614a4f8382614eb1565b6001600160a01b03808416600090815260136020908152604080832093851683529290529081208054849290614a869084906160d2565b90915550506001600160a01b038084166000908152600b602090815260408083209385168352928152828220601554835290529081208054849290614acc9084906160d2565b9091555050505050565b601d546040516253517560e01b81526001600160a01b03838116600483015260009216906253517590602401602060405180830381865afa158015614b1f573d6000803e3d6000fd5b505050506040513d601f19601f82011682018060405250810190614b4391906162a1565b60248054604051633941e77760e21b81526001600160a01b0380851660048301529394506000939091169163e5079ddc9101602060405180830381865afa158015614b92573d6000803e3d6000fd5b505050506040513d601f19601f82011682018060405250810190614bb6919061644e565b905061373b8382614fb5565b6107d0811115614be85760405163e429b69160e01b815260048101829052602401611b97565b6001600160a01b038216158015614bfe57508015155b15614c2e5760405163073c315960e11b81526001600160a01b038316600482015260248101829052604401611b97565b6001600160a01b0383166000908152602760205260409020548015801590614c57575060155481145b15614c7b5760155460405163e7cbc70160e01b8152600401611b9791815260200190565b6001600160a01b03848116600081815260256020908152604080832080546001600160a01b03191695891695861790556026825280832087905560155460278352928190209290925590518581527fd6ae57aa2cc060d4094c47d20c672afe0e53963e6459c15cab215abb8c88b863910160405180910390a350505050565b60008060ff19614d2b60017fdace3fd3d1fbdfd33853f19ba191d28c617e373ec58fc73cf7b58db5aff2c2ab61624a565b604051602001614d3d91815260200190565b60408051601f1981840301815291905280516020909101201692915050565b7f9016d09d72d40fdae2fd8ceac6b6234c7706214fd39c1cd1e609a0528c19930080546001600160a01b031981166001600160a01b03848116918217845560405192169182907f8be0079c531659141344cd1fd0a4f28419497f9722a3daafe3b4186f6b6457e090600090a3505050565b60006040825114614df1576040516318dca5e960e21b815260040160405180910390fd5b602082015160408301518181811580614e1057506401000003d0198210155b80614e19575080155b80614e2a57506401000003d0198110155b15614e48576040516379eb528360e11b815260040160405180910390fd5b60006401000003d019828309905060006401000003d01960076401000003d019866401000003d019888909090891909114979650505050505050565b805160209091012090565b6001600160a01b038116600090815260018301602052604081205415156118e1565b6001600160a01b0382166000908152600960205260409020614ed39082615268565b5061199c8282615830565b60408051600481526024810182526020810180517bffffffffffffffffffffffffffffffffffffffffffffffffffffffff166001600160e01b03198516179052905160009190829081903090614f35908590616467565b600060405180830381855afa9150503d8060008114614f70576040519150601f19603f3d011682016040523d82523d6000602084013e614f75565b606091505b509150915081614f9857604051635fbab09b60e11b815260040160405180910390fd5b80806020019051810190614fac919061644e565b95945050505050565b600080614fc184615852565b9150915081614fd05750505050565b600060078281548110614fe557614fe56160bc565b60009182526020808320909101546001600160a01b0388168352601b90915260408220549092506150179086906160a5565b9050806007848154811061502d5761502d6160bc565b9060005260206000200181905550808260085461504a919061624a565b61505491906160d2565b600855505050505050565b7f9b779b17422d0df92223018b32b4d1fa46e071723d6817e2486d003becc55f008054600119016150a357604051633ee5aeb560e01b815260040160405180910390fd5b60029055565b816001600160a01b0316816001600160a01b0316036151b657601d546040516253517560e01b81526001600160a01b03848116600483015260009216906253517590602401602060405180830381865afa15801561510b573d6000803e3d6000fd5b505050506040513d601f19601f8201168201806040525081019061512f91906162a1565b601d5460405163facd743b60e01b81526001600160a01b03808416600483015292935091169063facd743b90602401602060405180830381865afa15801561517b573d6000803e3d6000fd5b505050506040513d601f19601f8201168201806040525081019061519f919061625d565b156151ad5761373b83613f7e565b61373b83614055565b6151c08282614748565b6151c9826146f5565b1561199c5761373b600283614733565b60017f9b779b17422d0df92223018b32b4d1fa46e071723d6817e2486d003becc55f0055565b61199c600282615268565b7ff0c57e16840df040f15088dc2f81fe391c3923bec73e23a9662efc9c229c6a005468010000000000000000900460ff1661278a57604051631afcd79f60e31b815260040160405180910390fd5b613cc261520a565b6151d961520a565b60006118e1836001600160a01b0384166158c4565b600061190f825490565b6001600160a01b03811660009081526012602052604090205460065480821015806152e25750826001600160a01b0316600683815481106152ca576152ca6160bc565b6000918252602090912001546001600160a01b031614155b15615373576001600160a01b03831660008181526012602052604081208390556006805460018181019092557ff652222313e28459528d920b65115c16c04f3efc82aaedc97be59f3f377c0d3f0180546001600160a01b03191690931790925560078054928301815581527fa66cc928b5edb82af9bd49922954155ab7b0942694bea4ce44661d9a8736c688909101555b61373b836155f4565b6007546006541461538a5750565b6001600160a01b038116600090815260126020526040902054600654811080156153e35750816001600160a01b0316600682815481106153cc576153cc6160bc565b6000918252602090912001546001600160a01b0316145b1561199c57600781815481106153fb576153fb6160bc565b9060005260206000200154600854106154485760078181548110615421576154216160bc565b90600052602060002001546008600082825461543d919061624a565b9091555061544e9050565b60006008555b6006546000906154609060019061624a565b9050600060068281548110615477576154776160bc565b600091825260209091200154600680546001600160a01b0390921692508291859081106154a6576154a66160bc565b9060005260206000200160006101000a8154816001600160a01b0302191690836001600160a01b03160217905550600782815481106154e7576154e76160bc565b906000526020600020015460078481548110615505576155056160bc565b60009182526020808320909101929092556001600160a01b03808416825260129092526040808220869055918616815290812055600680548061554a5761554a616483565b600082815260209020810160001990810180546001600160a01b0319169055019055600780548061557d5761557d616483565b6001900381819060005260206000200160009055905550505050565b6060816000018054806020026020016040519081016040528092919081815260200182805480156125d457602002820191906000526020600020905b8154815260200190600101908083116155d55750505050509050919050565b61199c600482614733565b601d5460405163a0d16cad60e01b81526001600160a01b0384811660048301529091169063a0d16cad90602401602060405180830381865afa158015615649573d6000803e3d6000fd5b505050506040513d601f19601f8201168201806040525081019061566d919061625d565b15806156795750601554155b1561568357505050565b6001600160a01b03808416600090815260236020908152604080832093851683529290522054601554811015615715576001600160a01b0380851660008181526013602090815260408083209487168084529482528083205484845260228352818420868552835281842060158054865290845282852091909155549383526023825280832094835293905291909120555b50505050565b6000818152600183016020526040812054801561580457600061573f60018361624a565b85549091506000906157539060019061624a565b90508082146157b8576000866000018281548110615773576157736160bc565b9060005260206000200154905080876000018481548110615796576157966160bc565b6000918252602080832090910192909255918252600188019052604090208390555b85548690806157c9576157c9616483565b60019003818190600052602060002001600090559055856001016000868152602001908152602001600020600090556001935050505061190f565b600091505061190f565b6001600160a01b0382166000908152600a6020526040902061373b9082615268565b6001600160a01b0382166000908152600a6020526040902061373b9082614733565b6001600160a01b038116600090815260126020526040812054600654811080156158ab5750826001600160a01b031660068281548110615894576158946160bc565b6000918252602090912001546001600160a01b0316145b156158b95760019150915091565b506000928392509050565b600081815260018301602052604081205461590b5750815460018181018455600084815260208082209093018490558454848252828601909352604090209190915561190f565b50600061190f565b82805482825590600052602060002090810192821561594e579160200282015b8281111561594e578251825591602001919060010190615933565b5061595a929150615978565b5090565b508054600082559060005260206000209081019061205691905b5b8082111561595a5760008155600101615979565b6001600160a01b038116811461205657600080fd5b6000806000606084860312156159b757600080fd5b83356159c28161598d565b925060208401356159d28161598d565b929592945050506040919091013590565b60008083601f8401126159f557600080fd5b50813567ffffffffffffffff811115615a0d57600080fd5b6020830191508360208260051b8501011115615a2857600080fd5b9250929050565b60008060008060008060808789031215615a4857600080fd5b8635615a538161598d565b9550602087013567ffffffffffffffff80821115615a7057600080fd5b90880190610120828b031215615a8557600080fd5b90955060408801359080821115615a9b57600080fd5b615aa78a838b016159e3565b90965094506060890135915080821115615ac057600080fd5b50615acd89828a016159e3565b979a9699509497509295939492505050565b60008060408385031215615af257600080fd5b8235615afd8161598d565b91506020830135615b0d8161598d565b809150509250929050565b60008060408385031215615b2b57600080fd5b823591506020830135615b0d8161598d565b600060208284031215615b4f57600080fd5b81356118e18161598d565b600060208284031215615b6c57600080fd5b5035919050565b60008060408385031215615b8657600080fd5b8235615b918161598d565b946020939093013593505050565b80356001600160e01b031981168114615bb757600080fd5b919050565b60008060008060608587031215615bd257600080fd5b615bdb85615b9f565b9350615be960208601615b9f565b9250604085013567ffffffffffffffff811115615c0557600080fd5b615c11878288016159e3565b95989497509550505050565b60005b83811015615c38578181015183820152602001615c20565b50506000910152565b60008151808452615c59816020860160208601615c1d565b601f01601f19169290920160200192915050565b6020815260006118e16020830184615c41565b6020808252825182820181905260009190848201906040850190845b81811015615cc15783516001600160a01b031683529284019291840191600101615c9c565b50909695505050505050565b80356fffffffffffffffffffffffffffffffff1981168114615bb757600080fd5b80356001600160f01b031981168114615bb757600080fd5b600080600060608486031215615d1b57600080fd5b8335615d268161598d565b9250615d3460208501615ccd565b9150615d4260408501615cee565b90509250925092565b600060208284031215615d5d57600080fd5b6118e182615b9f565b60008083601f840112615d7857600080fd5b50813567ffffffffffffffff811115615d9057600080fd5b602083019150836020828501011115615a2857600080fd5b60008060008060608587031215615dbe57600080fd5b843567ffffffffffffffff811115615dd557600080fd5b615de187828801615d66565b9095509350615df4905060208601615ccd565b9150615e0260408601615cee565b905092959194509250565b60008060008060008060a08789031215615e2657600080fd5b8635615e318161598d565b95506020870135615e418161598d565b945060408701359350606087013567ffffffffffffffff811115615e6457600080fd5b615e7089828a01615d66565b9094509250615e83905060808801615ccd565b90509295509295509295565b60008151808452602080850194506020840160005b83811015615ec057815187529582019590820190600101615ea4565b509495945050505050565b604081526000615ede6040830185615e8f565b90508260208301529392505050565b606081526000615f006060830186615c41565b6fffffffffffffffffffffffffffffffff19949094166020830152506001600160f01b031991909116604090910152919050565b634e487b7160e01b600052604160045260246000fd5b600060208284031215615f5c57600080fd5b813567ffffffffffffffff80821115615f7457600080fd5b818401915084601f830112615f8857600080fd5b813581811115615f9a57615f9a615f34565b604051601f8201601f19908116603f01168101908382118183101715615fc257615fc2615f34565b81604052828152876020848701011115615fdb57600080fd5b826020860160208301376000928101602001929092525095945050505050565b602080825282516001600160e01b03191682820152820151604080830152600090612d4c6060840182615e8f565b6000806040838503121561603c57600080fd5b615b9183615b9f565b6000808335601e1984360301811261605c57600080fd5b83018035915067ffffffffffffffff82111561607757600080fd5b6020019150600581901b3603821315615a2857600080fd5b634e487b7160e01b600052601160045260246000fd5b808202811582820484141761190f5761190f61608f565b634e487b7160e01b600052603260045260246000fd5b8082018082111561190f5761190f61608f565b600181811c908216806160f957607f821691505b60208210810361611957634e487b7160e01b600052602260045260246000fd5b50919050565b601f82111561373b576000816000526020600020601f850160051c810160208610156161485750805b601f850160051c820191505b8181101561616757828155600101616154565b505050505050565b815167ffffffffffffffff81111561618957616189615f34565b61619d8161619784546160e5565b8461611f565b602080601f8311600181146161d257600084156161ba5750858301515b600019600386901b1c1916600185901b178555616167565b600085815260208120601f198616915b82811015616201578886015182559484019460019091019084016161e2565b508582101561621f5787850151600019600388901b60f8161c191681555b5050505050600190811b01905550565b60006020828403121561624157600080fd5b6118e182615ccd565b8181038181111561190f5761190f61608f565b60006020828403121561626f57600080fd5b815180151581146118e157600080fd5b60008261629c57634e487b7160e01b600052601260045260246000fd5b500490565b6000602082840312156162b357600080fd5b81516118e18161598d565b6001600160e01b0319858116825284166020820152606060408201819052810182905260007f07ffffffffffffffffffffffffffffffffffffffffffffffffffffffffffffff83111561631057600080fd5b8260051b808560808501379190910160800195945050505050565b67ffffffffffffffff83111561634357616343615f34565b6163578361635183546160e5565b8361611f565b6000601f84116001811461638b57600085156163735750838201355b600019600387901b1c1916600186901b1783556163e5565b600083815260209020601f19861690835b828110156163bc578685013582556020948501946001909201910161639c565b50868210156163d95760001960f88860031b161c19848701351681555b505060018560011b0183555b5050505050565b6000600160ff1b82016164015761640161608f565b5060000390565b60006001820161641a5761641a61608f565b5060010190565b6001600160e01b0319848116825283166020820152606060408201819052600090614fac90830184615e8f565b60006020828403121561646057600080fd5b5051919050565b60008251616479818460208701615c1d565b9190910192915050565b634e487b7160e01b600052603160045260246000fdfea26469706673582212201c6675b97ec2a327e135843c691578da9c6fdc0123dc29ccb5046920003a535464736f6c63430008190033",
  "linkReferences": {},
  "deployedLinkReferences": {}
}