{
  "_format": "hh-sol-artifact-1",
  "contractName": "StakingHbbft",
  "sourceName": "contracts/StakingHbbft.sol",
  "abi": [
    {
      "inputs": [],
      "stateMutability": "nonpayable",
      "type": "constructor"
    },
    {
      "inputs": [
        {
          "internalType": "address",
          "name": "pool",
          "type": "address"
        },
        {
          "internalType": "address",
          "name": "staker",
          "type": "address"
        }
      ],
      "name": "CannotClaimWithdrawOrderYet",
      "type": "error"
    },
    {
      "inputs": [],
      "name": "GetterCallFailed",
      "type": "error"
    },
    {
      "inputs": [],
      "name": "InitialStakingPoolsListEmpty",
      "type": "error"
    },
    {
      "inputs": [],
      "name": "InsufficientBalance",
      "type": "error"
    },
    {
      "inputs": [
        {
          "internalType": "address",
          "name": "pool",
          "type": "address"
        },
        {
          "internalType": "address",
          "name": "delegator",
          "type": "address"
        }
      ],
      "name": "InsufficientStakeAmount",
      "type": "error"
    },
    {
      "inputs": [],
      "name": "InvalidFixedEpochDuration",
      "type": "error"
    },
    {
      "inputs": [
        {
          "internalType": "uint256",
          "name": "candidateStake",
          "type": "uint256"
        },
        {
          "internalType": "uint256",
          "name": "delegatorStake",
          "type": "uint256"
        }
      ],
      "name": "InvalidInitialStakeAmount",
      "type": "error"
    },
    {
      "inputs": [],
      "name": "InvalidInitialization",
      "type": "error"
    },
    {
      "inputs": [],
      "name": "InvalidIpAddressesCount",
      "type": "error"
    },
    {
      "inputs": [],
      "name": "InvalidMaxStakeAmount",
      "type": "error"
    },
    {
      "inputs": [],
      "name": "InvalidMoveStakePoolsAddress",
      "type": "error"
    },
    {
      "inputs": [
        {
          "internalType": "address",
          "name": "_operator",
          "type": "address"
        },
        {
          "internalType": "uint256",
          "name": "_share",
          "type": "uint256"
        }
      ],
      "name": "InvalidNodeOperatorConfiguration",
      "type": "error"
    },
    {
      "inputs": [
        {
          "internalType": "uint256",
          "name": "_share",
          "type": "uint256"
        }
      ],
      "name": "InvalidNodeOperatorShare",
      "type": "error"
    },
    {
      "inputs": [
        {
          "internalType": "address",
          "name": "pool",
          "type": "address"
        },
        {
          "internalType": "address",
          "name": "delegator",
          "type": "address"
        },
        {
          "internalType": "int256",
          "name": "amount",
          "type": "int256"
        }
      ],
      "name": "InvalidOrderWithdrawAmount",
      "type": "error"
    },
    {
      "inputs": [],
      "name": "InvalidPointsValue",
      "type": "error"
    },
    {
      "inputs": [],
      "name": "InvalidPublicKey",
      "type": "error"
    },
    {
      "inputs": [],
      "name": "InvalidPublicKeyLength",
      "type": "error"
    },
    {
      "inputs": [],
      "name": "InvalidPublicKeysCount",
      "type": "error"
    },
    {
      "inputs": [],
      "name": "InvalidStakingFixedEpochDuration",
      "type": "error"
    },
    {
      "inputs": [],
      "name": "InvalidStakingTransitionTimeframe",
      "type": "error"
    },
    {
      "inputs": [],
      "name": "InvalidTransitionTimeFrame",
      "type": "error"
    },
    {
      "inputs": [
        {
          "internalType": "address",
          "name": "pool",
          "type": "address"
        },
        {
          "internalType": "address",
          "name": "delegator",
          "type": "address"
        },
        {
          "internalType": "uint256",
          "name": "amount",
          "type": "uint256"
        }
      ],
      "name": "InvalidWithdrawAmount",
      "type": "error"
    },
    {
      "inputs": [
        {
          "internalType": "uint256",
          "name": "allowed",
          "type": "uint256"
        },
        {
          "internalType": "uint256",
          "name": "desired",
          "type": "uint256"
        }
      ],
      "name": "MaxAllowedWithdrawExceeded",
      "type": "error"
    },
    {
      "inputs": [],
      "name": "MaxPoolsCountExceeded",
      "type": "error"
    },
    {
      "inputs": [],
      "name": "MiningAddressPublicKeyMismatch",
      "type": "error"
    },
    {
      "inputs": [
        {
          "internalType": "uint256",
          "name": "_newVal",
          "type": "uint256"
        }
      ],
      "name": "NewValueOutOfRange",
      "type": "error"
    },
    {
      "inputs": [],
      "name": "NoStakesToRecover",
      "type": "error"
    },
    {
      "inputs": [],
      "name": "NotInitializing",
      "type": "error"
    },
    {
      "inputs": [],
      "name": "NotPayable",
      "type": "error"
    },
    {
      "inputs": [
        {
          "internalType": "uint256",
          "name": "_epoch",
          "type": "uint256"
        }
      ],
      "name": "OnlyOncePerEpoch",
      "type": "error"
    },
    {
      "inputs": [
        {
          "internalType": "address",
          "name": "owner",
          "type": "address"
        }
      ],
      "name": "OwnableInvalidOwner",
      "type": "error"
    },
    {
      "inputs": [
        {
          "internalType": "address",
          "name": "account",
          "type": "address"
        }
      ],
      "name": "OwnableUnauthorizedAccount",
      "type": "error"
    },
    {
      "inputs": [
        {
          "internalType": "address",
          "name": "pool",
          "type": "address"
        }
      ],
      "name": "PoolAbandoned",
      "type": "error"
    },
    {
      "inputs": [
        {
          "internalType": "address",
          "name": "pool",
          "type": "address"
        }
      ],
      "name": "PoolCannotBeRemoved",
      "type": "error"
    },
    {
      "inputs": [
        {
          "internalType": "address",
          "name": "pool",
          "type": "address"
        }
      ],
      "name": "PoolEmpty",
      "type": "error"
    },
    {
      "inputs": [
        {
          "internalType": "address",
          "name": "pool",
          "type": "address"
        }
      ],
      "name": "PoolNotExist",
      "type": "error"
    },
    {
      "inputs": [
        {
          "internalType": "address",
          "name": "pool",
          "type": "address"
        },
        {
          "internalType": "address",
          "name": "delegator",
          "type": "address"
        }
      ],
      "name": "PoolStakeLimitExceeded",
      "type": "error"
    },
    {
      "inputs": [],
      "name": "ReentrancyGuardReentrantCall",
      "type": "error"
    },
    {
      "inputs": [
        {
          "internalType": "address",
          "name": "recipient",
          "type": "address"
        },
        {
          "internalType": "uint256",
          "name": "amount",
          "type": "uint256"
        }
      ],
      "name": "TransferFailed",
      "type": "error"
    },
    {
      "inputs": [],
      "name": "Unauthorized",
      "type": "error"
    },
    {
      "inputs": [],
      "name": "WithdrawNotAllowed",
      "type": "error"
    },
    {
      "inputs": [],
      "name": "ZeroAddress",
      "type": "error"
    },
    {
      "inputs": [],
      "name": "ZeroGasPrice",
      "type": "error"
    },
    {
      "inputs": [],
      "name": "ZeroWidthrawAmount",
      "type": "error"
    },
    {
      "inputs": [],
      "name": "ZeroWidthrawDisallowPeriod",
      "type": "error"
    },
    {
      "anonymous": false,
      "inputs": [
        {
          "indexed": true,
          "internalType": "address",
          "name": "fromPoolStakingAddress",
          "type": "address"
        },
        {
          "indexed": true,
          "internalType": "address",
          "name": "staker",
          "type": "address"
        },
        {
          "indexed": true,
          "internalType": "uint256",
          "name": "stakingEpoch",
          "type": "uint256"
        },
        {
          "indexed": false,
          "internalType": "uint256",
          "name": "amount",
          "type": "uint256"
        }
      ],
      "name": "ClaimedOrderedWithdrawal",
      "type": "event"
    },
    {
      "anonymous": false,
      "inputs": [
        {
          "indexed": true,
          "internalType": "address",
          "name": "caller",
          "type": "address"
        },
        {
          "indexed": true,
          "internalType": "address",
          "name": "stakingAddress",
          "type": "address"
        },
        {
          "indexed": false,
          "internalType": "uint256",
          "name": "gatheredFunds",
          "type": "uint256"
        }
      ],
      "name": "GatherAbandonedStakes",
      "type": "event"
    },
    {
      "anonymous": false,
      "inputs": [
        {
          "indexed": false,
          "internalType": "uint64",
          "name": "version",
          "type": "uint64"
        }
      ],
      "name": "Initialized",
      "type": "event"
    },
    {
      "anonymous": false,
      "inputs": [
        {
          "indexed": false,
          "internalType": "address",
          "name": "fromPoolStakingAddress",
          "type": "address"
        },
        {
          "indexed": true,
          "internalType": "address",
          "name": "toPoolStakingAddress",
          "type": "address"
        },
        {
          "indexed": true,
          "internalType": "address",
          "name": "staker",
          "type": "address"
        },
        {
          "indexed": true,
          "internalType": "uint256",
          "name": "stakingEpoch",
          "type": "uint256"
        },
        {
          "indexed": false,
          "internalType": "uint256",
          "name": "amount",
          "type": "uint256"
        }
      ],
      "name": "MovedStake",
      "type": "event"
    },
    {
      "anonymous": false,
      "inputs": [
        {
          "indexed": true,
          "internalType": "address",
          "name": "fromPoolStakingAddress",
          "type": "address"
        },
        {
          "indexed": true,
          "internalType": "address",
          "name": "staker",
          "type": "address"
        },
        {
          "indexed": true,
          "internalType": "uint256",
          "name": "stakingEpoch",
          "type": "uint256"
        },
        {
          "indexed": false,
          "internalType": "int256",
          "name": "amount",
          "type": "int256"
        }
      ],
      "name": "OrderedWithdrawal",
      "type": "event"
    },
    {
      "anonymous": false,
      "inputs": [
        {
          "indexed": true,
          "internalType": "address",
          "name": "previousOwner",
          "type": "address"
        },
        {
          "indexed": true,
          "internalType": "address",
          "name": "newOwner",
          "type": "address"
        }
      ],
      "name": "OwnershipTransferred",
      "type": "event"
    },
    {
      "anonymous": false,
      "inputs": [
        {
          "indexed": true,
          "internalType": "address",
          "name": "toPoolStakingAddress",
          "type": "address"
        },
        {
          "indexed": true,
          "internalType": "address",
          "name": "staker",
          "type": "address"
        },
        {
          "indexed": true,
          "internalType": "uint256",
          "name": "stakingEpoch",
          "type": "uint256"
        },
        {
          "indexed": false,
          "internalType": "uint256",
          "name": "amount",
          "type": "uint256"
        }
      ],
      "name": "PlacedStake",
      "type": "event"
    },
    {
      "anonymous": false,
      "inputs": [
        {
          "indexed": true,
          "internalType": "address",
          "name": "caller",
          "type": "address"
        },
        {
          "indexed": false,
          "internalType": "uint256",
          "name": "reinsertShare",
          "type": "uint256"
        },
        {
          "indexed": false,
          "internalType": "uint256",
          "name": "governanceShare",
          "type": "uint256"
        }
      ],
      "name": "RecoverAbandonedStakes",
      "type": "event"
    },
    {
      "anonymous": false,
      "inputs": [
        {
          "indexed": false,
          "internalType": "bytes4",
          "name": "funcSelector",
          "type": "bytes4"
        }
      ],
      "name": "RemoveChangeableParameter",
      "type": "event"
    },
    {
      "anonymous": false,
      "inputs": [
        {
          "indexed": true,
          "internalType": "address",
          "name": "poolStakingAddress",
          "type": "address"
        },
        {
          "indexed": true,
          "internalType": "uint256",
          "name": "stakingEpoch",
          "type": "uint256"
        },
        {
          "indexed": false,
          "internalType": "uint256",
          "name": "validatorReward",
          "type": "uint256"
        },
        {
          "indexed": false,
          "internalType": "uint256",
          "name": "delegatorsReward",
          "type": "uint256"
        }
      ],
      "name": "RestakeReward",
      "type": "event"
    },
    {
      "anonymous": false,
      "inputs": [
        {
          "indexed": false,
          "internalType": "bytes4",
          "name": "setter",
          "type": "bytes4"
        },
        {
          "indexed": false,
          "internalType": "bytes4",
          "name": "getter",
          "type": "bytes4"
        },
        {
          "indexed": false,
          "internalType": "uint256[]",
          "name": "params",
          "type": "uint256[]"
        }
      ],
      "name": "SetChangeableParameter",
      "type": "event"
    },
    {
      "anonymous": false,
      "inputs": [
        {
          "indexed": false,
          "internalType": "uint256",
          "name": "minStake",
          "type": "uint256"
        }
      ],
      "name": "SetDelegatorMinStake",
      "type": "event"
    },
    {
      "anonymous": false,
      "inputs": [
        {
          "indexed": true,
          "internalType": "address",
          "name": "poolStakingAddress",
          "type": "address"
        },
        {
          "indexed": true,
          "internalType": "address",
          "name": "nodeOperatorAddress",
          "type": "address"
        },
        {
          "indexed": false,
          "internalType": "uint256",
          "name": "operatorShare",
          "type": "uint256"
        }
      ],
      "name": "SetNodeOperator",
      "type": "event"
    },
    {
      "anonymous": false,
      "inputs": [
        {
          "indexed": true,
          "internalType": "address",
          "name": "fromPoolStakingAddress",
          "type": "address"
        },
        {
          "indexed": true,
          "internalType": "address",
          "name": "staker",
          "type": "address"
        },
        {
          "indexed": true,
          "internalType": "uint256",
          "name": "stakingEpoch",
          "type": "uint256"
        },
        {
          "indexed": false,
          "internalType": "uint256",
          "name": "amount",
          "type": "uint256"
        }
      ],
      "name": "WithdrewStake",
      "type": "event"
    },
    {
      "inputs": [],
      "name": "MAX_CANDIDATES",
      "outputs": [
        {
          "internalType": "uint256",
          "name": "",
          "type": "uint256"
        }
      ],
      "stateMutability": "view",
      "type": "function"
    },
    {
      "inputs": [],
      "name": "MAX_NODE_OPERATOR_SHARE_PERCENT",
      "outputs": [
        {
          "internalType": "uint256",
          "name": "",
          "type": "uint256"
        }
      ],
      "stateMutability": "view",
      "type": "function"
    },
    {
      "inputs": [],
      "name": "PERCENT_DENOMINATOR",
      "outputs": [
        {
          "internalType": "uint256",
          "name": "",
          "type": "uint256"
        }
      ],
      "stateMutability": "view",
      "type": "function"
    },
    {
      "inputs": [
        {
          "internalType": "address",
          "name": "",
          "type": "address"
        }
      ],
      "name": "abandonedAndRemoved",
      "outputs": [
        {
          "internalType": "bool",
          "name": "",
          "type": "bool"
        }
      ],
      "stateMutability": "view",
      "type": "function"
    },
    {
      "inputs": [],
      "name": "actualEpochEndTime",
      "outputs": [
        {
          "internalType": "uint256",
          "name": "",
          "type": "uint256"
        }
      ],
      "stateMutability": "view",
      "type": "function"
    },
    {
      "inputs": [
        {
          "internalType": "address",
          "name": "_miningAddress",
          "type": "address"
        },
        {
          "internalType": "address",
          "name": "_nodeOperatorAddress",
          "type": "address"
        },
        {
          "internalType": "uint256",
          "name": "_operatorShare",
          "type": "uint256"
        },
        {
          "internalType": "bytes",
          "name": "_publicKey",
          "type": "bytes"
        },
        {
          "internalType": "bytes16",
          "name": "_ip",
          "type": "bytes16"
        }
      ],
      "name": "addPool",
      "outputs": [],
      "stateMutability": "payable",
      "type": "function"
    },
    {
      "inputs": [],
      "name": "areStakeAndWithdrawAllowed",
      "outputs": [
        {
          "internalType": "bool",
          "name": "",
          "type": "bool"
        }
      ],
      "stateMutability": "pure",
      "type": "function"
    },
    {
      "inputs": [],
      "name": "bonusScoreContract",
      "outputs": [
        {
          "internalType": "contract IBonusScoreSystem",
          "name": "",
          "type": "address"
        }
      ],
      "stateMutability": "view",
      "type": "function"
    },
    {
      "inputs": [],
      "name": "candidateMinStake",
      "outputs": [
        {
          "internalType": "uint256",
          "name": "",
          "type": "uint256"
        }
      ],
      "stateMutability": "view",
      "type": "function"
    },
    {
      "inputs": [
        {
          "internalType": "address",
          "name": "_poolStakingAddress",
          "type": "address"
        }
      ],
      "name": "claimOrderedWithdraw",
      "outputs": [],
      "stateMutability": "nonpayable",
      "type": "function"
    },
    {
      "inputs": [],
      "name": "currentKeyGenExtraTimeWindow",
      "outputs": [
        {
          "internalType": "uint256",
          "name": "",
          "type": "uint256"
        }
      ],
      "stateMutability": "view",
      "type": "function"
    },
    {
      "inputs": [],
      "name": "delegatorMinStake",
      "outputs": [
        {
          "internalType": "uint256",
          "name": "",
          "type": "uint256"
        }
      ],
      "stateMutability": "view",
      "type": "function"
    },
    {
      "inputs": [],
      "name": "earlyEpochEndTime",
      "outputs": [
        {
          "internalType": "uint256",
          "name": "",
          "type": "uint256"
        }
      ],
      "stateMutability": "view",
      "type": "function"
    },
    {
      "inputs": [],
      "name": "earlyEpochEndTriggerTime",
      "outputs": [
        {
          "internalType": "uint256",
          "name": "",
          "type": "uint256"
        }
      ],
      "stateMutability": "view",
      "type": "function"
    },
    {
      "inputs": [
        {
          "internalType": "string",
          "name": "_selector",
          "type": "string"
        }
      ],
      "name": "getAllowedParamsRange",
      "outputs": [
        {
          "components": [
            {
              "internalType": "bytes4",
              "name": "getter",
              "type": "bytes4"
            },
            {
              "internalType": "uint256[]",
              "name": "range",
              "type": "uint256[]"
            }
          ],
          "internalType": "struct ValueGuards.ParameterRange",
          "name": "",
          "type": "tuple"
        }
      ],
      "stateMutability": "view",
      "type": "function"
    },
    {
      "inputs": [
        {
          "internalType": "bytes4",
          "name": "_selector",
          "type": "bytes4"
        }
      ],
      "name": "getAllowedParamsRangeWithSelector",
      "outputs": [
        {
          "components": [
            {
              "internalType": "bytes4",
              "name": "getter",
              "type": "bytes4"
            },
            {
              "internalType": "uint256[]",
              "name": "range",
              "type": "uint256[]"
            }
          ],
          "internalType": "struct ValueGuards.ParameterRange",
          "name": "",
          "type": "tuple"
        }
      ],
      "stateMutability": "view",
      "type": "function"
    },
    {
      "inputs": [
        {
          "internalType": "address",
          "name": "_poolAddress",
          "type": "address"
        }
      ],
      "name": "getPoolInternetAddress",
      "outputs": [
        {
          "internalType": "bytes16",
          "name": "",
          "type": "bytes16"
        },
        {
          "internalType": "bytes2",
          "name": "",
          "type": "bytes2"
        }
      ],
      "stateMutability": "view",
      "type": "function"
    },
    {
      "inputs": [
        {
          "internalType": "address",
          "name": "_poolAddress",
          "type": "address"
        }
      ],
      "name": "getPoolPublicKey",
      "outputs": [
        {
          "internalType": "bytes",
          "name": "",
          "type": "bytes"
        }
      ],
      "stateMutability": "view",
      "type": "function"
    },
    {
      "inputs": [
        {
          "internalType": "uint256",
          "name": "_epoch",
          "type": "uint256"
        },
        {
          "internalType": "address",
          "name": "_stakingPool",
          "type": "address"
        }
      ],
      "name": "getPoolValidatorStakeAmount",
      "outputs": [
        {
          "internalType": "uint256",
          "name": "",
          "type": "uint256"
        }
      ],
      "stateMutability": "view",
      "type": "function"
    },
    {
      "inputs": [],
      "name": "getPools",
      "outputs": [
        {
          "internalType": "address[]",
          "name": "",
          "type": "address[]"
        }
      ],
      "stateMutability": "view",
      "type": "function"
    },
    {
      "inputs": [],
      "name": "getPoolsInactive",
      "outputs": [
        {
          "internalType": "address[]",
          "name": "",
          "type": "address[]"
        }
      ],
      "stateMutability": "view",
      "type": "function"
    },
    {
      "inputs": [],
      "name": "getPoolsLikelihood",
      "outputs": [
        {
          "internalType": "uint256[]",
          "name": "likelihoods",
          "type": "uint256[]"
        },
        {
          "internalType": "uint256",
          "name": "sum",
          "type": "uint256"
        }
      ],
      "stateMutability": "view",
      "type": "function"
    },
    {
      "inputs": [],
      "name": "getPoolsToBeElected",
      "outputs": [
        {
          "internalType": "address[]",
          "name": "",
          "type": "address[]"
        }
      ],
      "stateMutability": "view",
      "type": "function"
    },
    {
      "inputs": [],
      "name": "getPoolsToBeRemoved",
      "outputs": [
        {
          "internalType": "address[]",
          "name": "",
          "type": "address[]"
        }
      ],
      "stateMutability": "view",
      "type": "function"
    },
    {
      "inputs": [],
      "name": "incrementStakingEpoch",
      "outputs": [],
      "stateMutability": "nonpayable",
      "type": "function"
    },
    {
      "inputs": [
        {
          "internalType": "address",
          "name": "_contractOwner",
          "type": "address"
        },
        {
          "components": [
            {
              "internalType": "address",
              "name": "_validatorSetContract",
              "type": "address"
            },
            {
              "internalType": "address",
              "name": "_bonusScoreContract",
              "type": "address"
            },
            {
              "internalType": "address[]",
              "name": "_initialStakingAddresses",
              "type": "address[]"
            },
            {
              "internalType": "uint256",
              "name": "_delegatorMinStake",
              "type": "uint256"
            },
            {
              "internalType": "uint256",
              "name": "_candidateMinStake",
              "type": "uint256"
            },
            {
              "internalType": "uint256",
              "name": "_maxStake",
              "type": "uint256"
            },
            {
              "internalType": "uint256",
              "name": "_stakingFixedEpochDuration",
              "type": "uint256"
            },
            {
              "internalType": "uint256",
              "name": "_stakingTransitionTimeframeLength",
              "type": "uint256"
            },
            {
              "internalType": "uint256",
              "name": "_stakingWithdrawDisallowPeriod",
              "type": "uint256"
            }
          ],
          "internalType": "struct IStakingHbbft.StakingParams",
          "name": "stakingParams",
          "type": "tuple"
        },
        {
          "internalType": "bytes32[]",
          "name": "_publicKeys",
          "type": "bytes32[]"
        },
        {
          "internalType": "bytes16[]",
          "name": "_internetAddresses",
          "type": "bytes16[]"
        }
      ],
      "name": "initialize",
      "outputs": [],
      "stateMutability": "nonpayable",
      "type": "function"
    },
    {
      "inputs": [
        {
          "internalType": "address",
          "name": "_stakingAddress",
          "type": "address"
        }
      ],
      "name": "isPoolActive",
      "outputs": [
        {
          "internalType": "bool",
          "name": "",
          "type": "bool"
        }
      ],
      "stateMutability": "view",
      "type": "function"
    },
    {
      "inputs": [
        {
          "internalType": "address",
          "name": "_stakingAddress",
          "type": "address"
        }
      ],
      "name": "isPoolValid",
      "outputs": [
        {
          "internalType": "bool",
          "name": "",
          "type": "bool"
        }
      ],
      "stateMutability": "view",
      "type": "function"
    },
    {
      "inputs": [
        {
          "internalType": "bytes4",
          "name": "funcSelector",
          "type": "bytes4"
        },
        {
          "internalType": "uint256",
          "name": "newVal",
          "type": "uint256"
        }
      ],
      "name": "isWithinAllowedRange",
      "outputs": [
        {
          "internalType": "bool",
          "name": "",
          "type": "bool"
        }
      ],
      "stateMutability": "view",
      "type": "function"
    },
    {
      "inputs": [],
      "name": "maxStakeAmount",
      "outputs": [
        {
          "internalType": "uint256",
          "name": "",
          "type": "uint256"
        }
      ],
      "stateMutability": "view",
      "type": "function"
    },
    {
      "inputs": [
        {
          "internalType": "address",
          "name": "_poolStakingAddress",
          "type": "address"
        },
        {
          "internalType": "address",
          "name": "_staker",
          "type": "address"
        }
      ],
      "name": "maxWithdrawAllowed",
      "outputs": [
        {
          "internalType": "uint256",
          "name": "",
          "type": "uint256"
        }
      ],
      "stateMutability": "view",
      "type": "function"
    },
    {
      "inputs": [
        {
          "internalType": "address",
          "name": "_poolStakingAddress",
          "type": "address"
        },
        {
          "internalType": "address",
          "name": "_staker",
          "type": "address"
        }
      ],
      "name": "maxWithdrawOrderAllowed",
      "outputs": [
        {
          "internalType": "uint256",
          "name": "",
          "type": "uint256"
        }
      ],
      "stateMutability": "view",
      "type": "function"
    },
    {
      "inputs": [
        {
          "internalType": "address",
          "name": "_fromPoolStakingAddress",
          "type": "address"
        },
        {
          "internalType": "address",
          "name": "_toPoolStakingAddress",
          "type": "address"
        },
        {
          "internalType": "uint256",
          "name": "_amount",
          "type": "uint256"
        }
      ],
      "name": "moveStake",
      "outputs": [],
      "stateMutability": "nonpayable",
      "type": "function"
    },
    {
      "inputs": [
        {
          "internalType": "uint256",
          "name": "timestamp",
          "type": "uint256"
        }
      ],
      "name": "notifiyEarlyEpochEnd",
      "outputs": [],
      "stateMutability": "nonpayable",
      "type": "function"
    },
    {
      "inputs": [
        {
          "internalType": "address",
          "name": "_stakingAddress",
          "type": "address"
        }
      ],
      "name": "notifyAvailability",
      "outputs": [],
      "stateMutability": "nonpayable",
      "type": "function"
    },
    {
      "inputs": [],
      "name": "notifyKeyGenFailed",
      "outputs": [],
      "stateMutability": "nonpayable",
      "type": "function"
    },
    {
      "inputs": [
        {
          "internalType": "uint256",
          "name": "detectedOfflineTime",
          "type": "uint256"
        }
      ],
      "name": "notifyNetworkOfftimeDetected",
      "outputs": [],
      "stateMutability": "nonpayable",
      "type": "function"
    },
    {
      "inputs": [
        {
          "internalType": "address",
          "name": "_poolStakingAddress",
          "type": "address"
        },
        {
          "internalType": "int256",
          "name": "_amount",
          "type": "int256"
        }
      ],
      "name": "orderWithdraw",
      "outputs": [],
      "stateMutability": "nonpayable",
      "type": "function"
    },
    {
      "inputs": [
        {
          "internalType": "address",
          "name": "",
          "type": "address"
        },
        {
          "internalType": "address",
          "name": "",
          "type": "address"
        }
      ],
      "name": "orderWithdrawEpoch",
      "outputs": [
        {
          "internalType": "uint256",
          "name": "",
          "type": "uint256"
        }
      ],
      "stateMutability": "view",
      "type": "function"
    },
    {
      "inputs": [
        {
          "internalType": "address",
          "name": "",
          "type": "address"
        },
        {
          "internalType": "address",
          "name": "",
          "type": "address"
        }
      ],
      "name": "orderedWithdrawAmount",
      "outputs": [
        {
          "internalType": "uint256",
          "name": "",
          "type": "uint256"
        }
      ],
      "stateMutability": "view",
      "type": "function"
    },
    {
      "inputs": [
        {
          "internalType": "address",
          "name": "",
          "type": "address"
        }
      ],
      "name": "orderedWithdrawAmountTotal",
      "outputs": [
        {
          "internalType": "uint256",
          "name": "",
          "type": "uint256"
        }
      ],
      "stateMutability": "view",
      "type": "function"
    },
    {
      "inputs": [],
      "name": "owner",
      "outputs": [
        {
          "internalType": "address",
          "name": "",
          "type": "address"
        }
      ],
      "stateMutability": "view",
      "type": "function"
    },
    {
      "inputs": [
        {
          "internalType": "address",
          "name": "_poolStakingAddress",
          "type": "address"
        }
      ],
      "name": "poolDelegators",
      "outputs": [
        {
          "internalType": "address[]",
          "name": "",
          "type": "address[]"
        }
      ],
      "stateMutability": "view",
      "type": "function"
    },
    {
      "inputs": [
        {
          "internalType": "address",
          "name": "_poolStakingAddress",
          "type": "address"
        }
      ],
      "name": "poolDelegatorsInactive",
      "outputs": [
        {
          "internalType": "address[]",
          "name": "",
          "type": "address[]"
        }
      ],
      "stateMutability": "view",
      "type": "function"
    },
    {
      "inputs": [
        {
          "internalType": "address",
          "name": "",
          "type": "address"
        }
      ],
      "name": "poolInfo",
      "outputs": [
        {
          "internalType": "bytes",
          "name": "publicKey",
          "type": "bytes"
        },
        {
          "internalType": "bytes16",
          "name": "internetAddress",
          "type": "bytes16"
        },
        {
          "internalType": "bytes2",
          "name": "port",
          "type": "bytes2"
        }
      ],
      "stateMutability": "view",
      "type": "function"
    },
    {
      "inputs": [
        {
          "internalType": "address",
          "name": "",
          "type": "address"
        }
      ],
      "name": "poolNodeOperator",
      "outputs": [
        {
          "internalType": "address",
          "name": "",
          "type": "address"
        }
      ],
      "stateMutability": "view",
      "type": "function"
    },
    {
      "inputs": [
        {
          "internalType": "address",
          "name": "",
          "type": "address"
        }
      ],
      "name": "poolNodeOperatorLastChangeEpoch",
      "outputs": [
        {
          "internalType": "uint256",
          "name": "",
          "type": "uint256"
        }
      ],
      "stateMutability": "view",
      "type": "function"
    },
    {
      "inputs": [
        {
          "internalType": "address",
          "name": "",
          "type": "address"
        }
      ],
      "name": "poolNodeOperatorShare",
      "outputs": [
        {
          "internalType": "uint256",
          "name": "",
          "type": "uint256"
        }
      ],
      "stateMutability": "view",
      "type": "function"
    },
    {
      "inputs": [
        {
          "internalType": "address",
          "name": "",
          "type": "address"
        }
      ],
      "name": "poolToBeElectedIndex",
      "outputs": [
        {
          "internalType": "uint256",
          "name": "",
          "type": "uint256"
        }
      ],
      "stateMutability": "view",
      "type": "function"
    },
    {
      "inputs": [],
      "name": "recoverAbandonedStakes",
      "outputs": [],
      "stateMutability": "nonpayable",
      "type": "function"
    },
    {
      "inputs": [
        {
          "internalType": "bytes4",
          "name": "funcSelector",
          "type": "bytes4"
        }
      ],
      "name": "removeAllowedChangeableParameter",
      "outputs": [],
      "stateMutability": "nonpayable",
      "type": "function"
    },
    {
      "inputs": [],
      "name": "removeMyPool",
      "outputs": [],
      "stateMutability": "nonpayable",
      "type": "function"
    },
    {
      "inputs": [
        {
          "internalType": "address",
          "name": "_stakingAddress",
          "type": "address"
        }
      ],
      "name": "removePool",
      "outputs": [],
      "stateMutability": "nonpayable",
      "type": "function"
    },
    {
      "inputs": [],
      "name": "removePools",
      "outputs": [],
      "stateMutability": "nonpayable",
      "type": "function"
    },
    {
      "inputs": [],
      "name": "renounceOwnership",
      "outputs": [],
      "stateMutability": "nonpayable",
      "type": "function"
    },
    {
      "inputs": [
        {
          "internalType": "address",
          "name": "_poolStakingAddress",
          "type": "address"
        },
        {
          "internalType": "uint256",
          "name": "_validatorMinRewardPercent",
          "type": "uint256"
        }
      ],
      "name": "restake",
      "outputs": [],
      "stateMutability": "payable",
      "type": "function"
    },
    {
      "inputs": [
        {
          "internalType": "bytes4",
          "name": "setter",
          "type": "bytes4"
        },
        {
          "internalType": "bytes4",
          "name": "getter",
          "type": "bytes4"
        },
        {
          "internalType": "uint256[]",
          "name": "params",
          "type": "uint256[]"
        }
      ],
      "name": "setAllowedChangeableParameter",
      "outputs": [],
      "stateMutability": "nonpayable",
      "type": "function"
    },
    {
      "inputs": [
        {
          "internalType": "uint256",
          "name": "_minStake",
          "type": "uint256"
        }
      ],
      "name": "setDelegatorMinStake",
      "outputs": [],
      "stateMutability": "nonpayable",
      "type": "function"
    },
    {
      "inputs": [
        {
          "internalType": "address",
          "name": "_operatorAddress",
          "type": "address"
        },
        {
          "internalType": "uint256",
          "name": "_operatorShare",
          "type": "uint256"
        }
      ],
      "name": "setNodeOperator",
      "outputs": [],
      "stateMutability": "nonpayable",
      "type": "function"
    },
    {
      "inputs": [
        {
          "internalType": "bytes",
          "name": "_publicKey",
          "type": "bytes"
        },
        {
          "internalType": "bytes16",
          "name": "_ip",
          "type": "bytes16"
        },
        {
          "internalType": "bytes2",
          "name": "_port",
          "type": "bytes2"
        }
      ],
      "name": "setPoolInfo",
      "outputs": [],
      "stateMutability": "nonpayable",
      "type": "function"
    },
    {
      "inputs": [
        {
          "internalType": "uint256",
          "name": "_timestamp",
          "type": "uint256"
        }
      ],
      "name": "setStakingEpochStartTime",
      "outputs": [],
      "stateMutability": "nonpayable",
      "type": "function"
    },
    {
      "inputs": [
        {
          "internalType": "address",
          "name": "_validatorAddress",
          "type": "address"
        },
        {
          "internalType": "bytes16",
          "name": "_ip",
          "type": "bytes16"
        },
        {
          "internalType": "bytes2",
          "name": "_port",
          "type": "bytes2"
        }
      ],
      "name": "setValidatorInternetAddress",
      "outputs": [],
      "stateMutability": "nonpayable",
      "type": "function"
    },
    {
      "inputs": [
        {
          "internalType": "uint256",
          "name": "_epoch",
          "type": "uint256"
        },
        {
          "internalType": "address",
          "name": "_stakingPool",
          "type": "address"
        }
      ],
      "name": "snapshotPoolStakeAmounts",
      "outputs": [],
      "stateMutability": "nonpayable",
      "type": "function"
    },
    {
      "inputs": [
        {
          "internalType": "uint256",
          "name": "",
          "type": "uint256"
        },
        {
          "internalType": "address",
          "name": "",
          "type": "address"
        }
      ],
      "name": "snapshotPoolTotalStakeAmount",
      "outputs": [
        {
          "internalType": "uint256",
          "name": "",
          "type": "uint256"
        }
      ],
      "stateMutability": "view",
      "type": "function"
    },
    {
      "inputs": [
        {
          "internalType": "uint256",
          "name": "",
          "type": "uint256"
        },
        {
          "internalType": "address",
          "name": "",
          "type": "address"
        }
      ],
      "name": "snapshotPoolValidatorStakeAmount",
      "outputs": [
        {
          "internalType": "uint256",
          "name": "",
          "type": "uint256"
        }
      ],
      "stateMutability": "view",
      "type": "function"
    },
    {
      "inputs": [
        {
          "internalType": "address",
          "name": "_toPoolStakingAddress",
          "type": "address"
        }
      ],
      "name": "stake",
      "outputs": [],
      "stateMutability": "payable",
      "type": "function"
    },
    {
      "inputs": [
        {
          "internalType": "address",
          "name": "",
          "type": "address"
        },
        {
          "internalType": "address",
          "name": "",
          "type": "address"
        }
      ],
      "name": "stakeAmount",
      "outputs": [
        {
          "internalType": "uint256",
          "name": "",
          "type": "uint256"
        }
      ],
      "stateMutability": "view",
      "type": "function"
    },
    {
      "inputs": [
        {
          "internalType": "address",
          "name": "_poolStakingAddress",
          "type": "address"
        },
        {
          "internalType": "address",
          "name": "_staker",
          "type": "address"
        }
      ],
      "name": "stakeAmountByCurrentEpoch",
      "outputs": [
        {
          "internalType": "uint256",
          "name": "",
          "type": "uint256"
        }
      ],
      "stateMutability": "view",
      "type": "function"
    },
    {
      "inputs": [
        {
          "internalType": "address",
          "name": "",
          "type": "address"
        }
      ],
      "name": "stakeAmountTotal",
      "outputs": [
        {
          "internalType": "uint256",
          "name": "",
          "type": "uint256"
        }
      ],
      "stateMutability": "view",
      "type": "function"
    },
    {
      "inputs": [],
      "name": "stakingEpoch",
      "outputs": [
        {
          "internalType": "uint256",
          "name": "",
          "type": "uint256"
        }
      ],
      "stateMutability": "view",
      "type": "function"
    },
    {
      "inputs": [],
      "name": "stakingEpochStartBlock",
      "outputs": [
        {
          "internalType": "uint256",
          "name": "",
          "type": "uint256"
        }
      ],
      "stateMutability": "view",
      "type": "function"
    },
    {
      "inputs": [],
      "name": "stakingEpochStartTime",
      "outputs": [
        {
          "internalType": "uint256",
          "name": "",
          "type": "uint256"
        }
      ],
      "stateMutability": "view",
      "type": "function"
    },
    {
      "inputs": [],
      "name": "stakingFixedEpochDuration",
      "outputs": [
        {
          "internalType": "uint256",
          "name": "",
          "type": "uint256"
        }
      ],
      "stateMutability": "view",
      "type": "function"
    },
    {
      "inputs": [],
      "name": "stakingFixedEpochEndTime",
      "outputs": [
        {
          "internalType": "uint256",
          "name": "",
          "type": "uint256"
        }
      ],
      "stateMutability": "view",
      "type": "function"
    },
    {
      "inputs": [],
      "name": "stakingTransitionTimeframeLength",
      "outputs": [
        {
          "internalType": "uint256",
          "name": "",
          "type": "uint256"
        }
      ],
      "stateMutability": "view",
      "type": "function"
    },
    {
      "inputs": [],
      "name": "stakingWithdrawDisallowPeriod",
      "outputs": [
        {
          "internalType": "uint256",
          "name": "",
          "type": "uint256"
        }
      ],
      "stateMutability": "view",
      "type": "function"
    },
    {
      "inputs": [],
      "name": "startTimeOfNextPhaseTransition",
      "outputs": [
        {
          "internalType": "uint256",
          "name": "",
          "type": "uint256"
        }
      ],
      "stateMutability": "view",
      "type": "function"
    },
    {
      "inputs": [],
      "name": "totalStakedAmount",
      "outputs": [
        {
          "internalType": "uint256",
          "name": "",
          "type": "uint256"
        }
      ],
      "stateMutability": "view",
      "type": "function"
    },
    {
      "inputs": [
        {
          "internalType": "address",
          "name": "newOwner",
          "type": "address"
        }
      ],
      "name": "transferOwnership",
      "outputs": [],
      "stateMutability": "nonpayable",
      "type": "function"
    },
    {
      "inputs": [
        {
          "internalType": "address",
          "name": "mining",
          "type": "address"
        },
        {
          "internalType": "uint256",
          "name": "validatorScore",
          "type": "uint256"
        }
      ],
      "name": "updatePoolLikelihood",
      "outputs": [],
      "stateMutability": "nonpayable",
      "type": "function"
    },
    {
      "inputs": [],
      "name": "updateStakingTransitionTimeframeLength",
      "outputs": [],
      "stateMutability": "nonpayable",
      "type": "function"
    },
    {
      "inputs": [],
      "name": "validatorSetContract",
      "outputs": [
        {
          "internalType": "contract IValidatorSetHbbft",
          "name": "",
          "type": "address"
        }
      ],
      "stateMutability": "view",
      "type": "function"
    },
    {
      "inputs": [
        {
          "internalType": "address",
          "name": "_fromPoolStakingAddress",
          "type": "address"
        },
        {
          "internalType": "uint256",
          "name": "_amount",
          "type": "uint256"
        }
      ],
      "name": "withdraw",
      "outputs": [],
      "stateMutability": "nonpayable",
      "type": "function"
    },
    {
      "stateMutability": "payable",
      "type": "receive"
    }
  ],
  "bytecode": "0x6080604052348015600f57600080fd5b506016601a565b60ca565b7ff0c57e16840df040f15088dc2f81fe391c3923bec73e23a9662efc9c229c6a00805468010000000000000000900460ff161560695760405163f92ee8a960e01b815260040160405180910390fd5b80546001600160401b039081161460c75780546001600160401b0319166001600160401b0390811782556040519081527fc7f505b2f371ae2175ee4913f4499e1f2633a7b5936321eed1cdaeb6115181d29060200160405180910390a15b50565b61618d806100d96000396000f3fe6080604052600436106105985760003560e01c80638da5cb5b116102e0578063c6af311a11610184578063e9ab0300116100e1578063f2fde38b11610095578063f6c578611161006f578063f6c5786114611032578063f9d4d54414611052578063fa4aaf471461107f57600080fd5b8063f2fde38b14610fde578063f3fef3a314610ffe578063f49425011461101e57600080fd5b8063ee435f55116100c6578063ee435f5514610f9d578063f075664214610fb2578063f078609614610fc857600080fd5b8063e9ab030014610f50578063edd7db7514610f8857600080fd5b8063da7a9b6a11610138578063df6f55f51161011d578063df6f55f514610efb578063dfc8bf4e14610f10578063e84a173414610f3057600080fd5b8063da7a9b6a14610eb8578063dadee88a14610ece57600080fd5b8063d0ac76f611610169578063d0ac76f614610e6b578063d290c21d14610e8b578063d5c4b08a14610ea057600080fd5b8063c6af311a14610e2b578063cfef144114610e4b57600080fd5b8063a5d54f651161023d578063b61ed63a116101f1578063bb57c8ac116101cb578063bb57c8ac14610de1578063bf348f8614610df6578063c6912cc014610e1657600080fd5b8063b61ed63a14610d74578063b710c15d14610d94578063ba08d23714610dc157600080fd5b8063a711e6a111610222578063a711e6a114610d29578063adddc0cf14610d49578063ae1aaf8014610d5e57600080fd5b8063a5d54f6514610cdc578063a697ecff14610cf157600080fd5b80639b03d744116102945780639e72c635116102795780639e72c63514610c645780639ea8082b14610c84578063a420596714610ca457600080fd5b80639b03d74414610c385780639e6c295914610c4e57600080fd5b8063950a6513116102c5578063950a651314610bc6578063957950a714610be65780639a7b5f1114610c0957600080fd5b80638da5cb5b14610b76578063921e274b14610bb357600080fd5b80634f9a8d8f11610447578063715018a6116103a45780637b0a0f9b116103585780638247a239116103325780638247a23914610b0957806384725c7614610b29578063862be28714610b5657600080fd5b80637b0a0f9b14610aa95780637b15b94c14610ac95780637d8149db14610ae957600080fd5b806373c218031161038957806373c2180314610a23578063750dd2a114610a43578063794c0c6814610a9357600080fd5b8063715018a6146109d8578063728345db146109ed57600080fd5b80635fef7643116103fb578063673a2a1f116103e0578063673a2a1f146109805780636bda1577146109a25780637069e746146109c257600080fd5b80635fef764314610934578063615f2b711461094a57600080fd5b8063567e98f91161042c578063567e98f9146108e85780635b4eafe0146108fe5780635d80ca321461091e57600080fd5b80634f9a8d8f146108a55780635267e1d6146108bb57600080fd5b806326476204116104f55780633b7d0946116104a95780634160d3861161048e5780634160d386146108385780634346845f146108585780634e9b426d1461087857600080fd5b80633b7d0946146108055780633f3afe011461082557600080fd5b80633219d600116104da5780633219d6001461079a57806337154263146107da578063379b046a146107ef57600080fd5b806326476204146107675780632bafde8d1461077a57600080fd5b80631fb31e431161054c57806322e3d9861161053157806322e3d9861461071d57806322ffa02614610732578063251441a91461074757600080fd5b80631fb31e431461068b57806320c07cd81461070757600080fd5b80630b770cdf1161057d5780630b770cdf146106065780631345b8a51461063e5780631555371c1461067657600080fd5b8063028b8bdb146105bb5780630ac6e291146105e457600080fd5b366105b657604051631574f9f360e01b815260040160405180910390fd5b600080fd5b3480156105c757600080fd5b506105d160145481565b6040519081526020015b60405180910390f35b3480156105f057600080fd5b506106046105ff3660046156ac565b6110ac565b005b34801561061257600080fd5b50602454610626906001600160a01b031681565b6040516001600160a01b0390911681526020016105db565b34801561064a57600080fd5b506105d161065936600461575c565b602160209081526000928352604080842090915290825290205481565b34801561068257600080fd5b50610604611643565b34801561069757600080fd5b506106d56106a636600461578c565b6001600160a01b03166000908152601e6020526040902060010154608081901b91600160801b90910460f01b90565b604080516fffffffffffffffffffffffffffffffff1990931683526001600160f01b03199091166020830152016105db565b34801561071357600080fd5b506105d16107d081565b34801561072957600080fd5b506105d16116b5565b34801561073e57600080fd5b506105d16116fc565b34801561075357600080fd5b506106046107623660046157a9565b611730565b61060461077536600461578c565b6117ee565b34801561078657600080fd5b506106046107953660046157ea565b611871565b3480156107a657600080fd5b506107ca6107b536600461578c565b601f6020526000908152604090205460ff1681565b60405190151581526020016105db565b3480156107e657600080fd5b506106046118f2565b3480156107fb57600080fd5b506105d1601a5481565b34801561081157600080fd5b5061060461082036600461578c565b611d1f565b610604610833366004615803565b611d55565b34801561084457600080fd5b50610604610853366004615803565b61208b565b34801561086457600080fd5b5061060461087336600461584c565b61212a565b34801561088457600080fd5b5061089861089336600461578c565b612230565b6040516105db91906158fd565b3480156108b157600080fd5b506105d160165481565b3480156108c757600080fd5b506105d16108d636600461578c565b601b6020526000908152604090205481565b3480156108f457600080fd5b506105d1601c5481565b34801561090a57600080fd5b506105d161091936600461575c565b6122dc565b34801561092a57600080fd5b506105d1600e5481565b34801561094057600080fd5b506105d1600c5481565b34801561095657600080fd5b5061062661096536600461578c565b6025602052600090815260409020546001600160a01b031681565b34801561098c57600080fd5b50610995612306565b6040516105db9190615910565b3480156109ae57600080fd5b506105d16109bd36600461595d565b612312565b3480156109ce57600080fd5b506105d160195481565b3480156109e457600080fd5b50610604612492565b3480156109f957600080fd5b506105d1610a0836600461575c565b60208080526000928352604080842090915290825290205481565b348015610a2f57600080fd5b50610995610a3e36600461578c565b6124a6565b348015610a4f57600080fd5b506105d1610a5e36600461595d565b6001600160a01b039182166000908152600b602090815260408083209390941682529182528281206015548252909152205490565b348015610a9f57600080fd5b506105d160155481565b348015610ab557600080fd5b50610604610ac43660046159c4565b6124ca565b348015610ad557600080fd5b50610604610ae436600461578c565b612547565b348015610af557600080fd5b50610604610b04366004615a09565b6125ae565b348015610b1557600080fd5b50610604610b243660046157ea565b612630565b348015610b3557600080fd5b506105d1610b4436600461578c565b60266020526000908152604090205481565b348015610b6257600080fd5b50610604610b71366004615a66565b612663565b348015610b8257600080fd5b507f9016d09d72d40fdae2fd8ceac6b6234c7706214fd39c1cd1e609a0528c199300546001600160a01b0316610626565b610604610bc1366004615acb565b6126c6565b348015610bd257600080fd5b506105d1610be136600461595d565b6128db565b348015610bf257600080fd5b50610bfb612a23565b6040516105db929190615b89565b348015610c1557600080fd5b50610c29610c2436600461578c565b612a86565b6040516105db93929190615bab565b348015610c4457600080fd5b506105d160185481565b348015610c5a57600080fd5b506105d161271081565b348015610c7057600080fd5b50610604610c7f3660046157ea565b612b3a565b348015610c9057600080fd5b50610995610c9f36600461578c565b612b8a565b348015610cb057600080fd5b506105d1610cbf36600461595d565b601160209081526000928352604080842090915290825290205481565b348015610ce857600080fd5b50610995612bae565b348015610cfd57600080fd5b506105d1610d0c36600461595d565b601360209081526000928352604080842090915290825290205481565b348015610d3557600080fd5b506107ca610d4436600461578c565b612c10565b348015610d5557600080fd5b50610604612c1c565b348015610d6a57600080fd5b506105d160175481565b348015610d8057600080fd5b50610604610d8f366004615803565b612c61565b348015610da057600080fd5b50610db4610daf366004615c08565b612fc8565b6040516105db9190615cb9565b348015610dcd57600080fd5b506107ca610ddc366004615ce7565b613078565b348015610ded57600080fd5b506105d1613253565b348015610e0257600080fd5b50610db4610e11366004615a09565b61326f565b348015610e2257600080fd5b506105d1613314565b348015610e3757600080fd5b50610604610e46366004615803565b613333565b348015610e5757600080fd5b50610604610e6636600461578c565b6133dd565b348015610e7757600080fd5b50610604610e8636600461575c565b6135b0565b348015610e9757600080fd5b506109956136ef565b348015610eac57600080fd5b50610604610384601755565b348015610ec457600080fd5b506105d1600d5481565b348015610eda57600080fd5b506105d1610ee936600461578c565b60106020526000908152604090205481565b348015610f0757600080fd5b506109956136fb565b348015610f1c57600080fd5b50601d54610626906001600160a01b031681565b348015610f3c57600080fd5b50610604610f4b3660046157ea565b613707565b348015610f5c57600080fd5b506105d1610f6b36600461595d565b600f60209081526000928352604080842090915290825290205481565b348015610f9457600080fd5b506106046137b3565b348015610fa957600080fd5b506106046138f3565b348015610fbe57600080fd5b506105d160285481565b348015610fd457600080fd5b506105d1610bb881565b348015610fea57600080fd5b50610604610ff936600461578c565b61393e565b34801561100a57600080fd5b50610604611019366004615803565b613979565b34801561102a57600080fd5b5060016107ca565b34801561103e57600080fd5b506107ca61104d36600461578c565b613a32565b34801561105e57600080fd5b506105d161106d36600461578c565b60276020526000908152604090205481565b34801561108b57600080fd5b506105d161109a36600461578c565b60126020526000908152604090205481565b7ff0c57e16840df040f15088dc2f81fe391c3923bec73e23a9662efc9c229c6a00805468010000000000000000810460ff16159067ffffffffffffffff166000811580156110f75750825b905060008267ffffffffffffffff1660011480156111145750303b155b905081158015611122575080155b156111405760405163f92ee8a960e01b815260040160405180910390fd5b845467ffffffffffffffff19166001178555831561117457845468ff00000000000000001916680100000000000000001785555b6001600160a01b038b1661119b5760405163d92e233d60e01b815260040160405180910390fd5b6111a48a613a4f565b876111b260408c018c615d03565b6111be91506002615d63565b146111db5760405162d6988760e81b815260040160405180910390fd5b856111e960408c018c615d03565b905014611209576040516320041afd60e01b815260040160405180910390fd5b6112128b613bb2565b61121a613bc3565b61122760208b018b61578c565b601d80546001600160a01b0319166001600160a01b039290921691909117905561125760408b0160208c0161578c565b602480546001600160a01b0319166001600160a01b039290921691909117905536600061128760408d018d615d03565b9150915060005b818110156114aa5760008383838181106112aa576112aa615d7a565b90506020020160208101906112bf919061578c565b6001600160a01b0316036112e65760405163d92e233d60e01b815260040160405180910390fd5b6113178383838181106112fb576112fb615d7a565b9050602002016020810190611310919061578c565b6000613bd3565b61134683838381811061132c5761132c615d7a565b9050602002016020810190611341919061578c565b613c33565b8b8b611353836002615d63565b81811061136257611362615d7a565b905060200201358c8c8360026113789190615d63565b611383906001615d90565b81811061139257611392615d7a565b905060200201356040516020016113b3929190918252602082015260400190565b604051602081830303815290604052601e60008585858181106113d8576113d8615d7a565b90506020020160208101906113ed919061578c565b6001600160a01b031681526020810191909152604001600020906114119082615e2d565b5089898281811061142457611424615d7a565b90506020020160208101906114399190615eed565b601e600085858581811061144f5761144f615d7a565b9050602002016020810190611464919061578c565b6001600160a01b031681526020810191909152604001600020600190810180546fffffffffffffffffffffffffffffffff191660809390931c929092179091550161128e565b5060408051600580825260c082019092526000916020820160a0803683370190505090506802b5e3af16b1880000816000815181106114eb576114eb615d7a565b60200260200101818152505068056bc75e2d631000008160018151811061151457611514615d7a565b602002602001018181525050680821ab0d44149800008160028151811061153d5761153d615d7a565b602002602001018181525050680ad78ebc5ac62000008160038151811061156657611566615d7a565b602002602001018181525050680d8d726b7177a800008160048151811061158f5761158f615d7a565b60209081029190910101526115b3632bafde8d60e01b636d3d4db560e11b83613c48565b50505060608a0135600d5560808a0135600c5560a08a0135600e5560c08a01356016556101008a01356014554260185560e08a0135601755831561163657845468ff000000000000000019168555604051600181527fc7f505b2f371ae2175ee4913f4499e1f2633a7b5936321eed1cdaeb6115181d29060200160405180910390a15b5050505050505050505050565b601d546001600160a01b0316331461166d576040516282b42960e81b815260040160405180910390fd5b60006116796004613cfd565b905060005b81518110156116b1576116a982828151811061169c5761169c615d7a565b6020026020010151613d11565b60010161167e565b5050565b60185460165460009190156116cb5760016116ce565b60005b60ff16601a54601654836116e29190615d90565b6116ec9190615d90565b6116f69190615f08565b91505090565b600060285460001461172a57601a5460175460285461171b9190615d90565b6117259190615d90565b905090565b50600090565b3a60000361175157604051630e661aed60e41b815260040160405180910390fd5b816001600160a01b0316836001600160a01b03160361178357604051630a5eddd560e01b815260040160405180910390fd5b3361178f848284613d57565b61179a838284614005565b601554604080516001600160a01b0387811682526020820186905280851692908716917f4480d8e4b1e9095b94bf513961d26fe1d32386ebdd103d18fe8738cf4b2223ff910160405180910390a450505050565b3a60000361180f57604051630e661aed60e41b815260040160405180910390fd5b333461181c838383614005565b601554826001600160a01b0316846001600160a01b03167f2273de02cb1f69ba6259d22c4bc22c60e4c94c193265ef6afee324a04a9b6d228460405161186491815260200190565b60405180910390a4505050565b611879614356565b806118906000356001600160e01b03191682613078565b6118b5576040516373330d9b60e01b8152600481018290526024015b60405180910390fd5b600d8290556040518281527ffee02ce7aa40f9c49eaabd26d404fa88714b97cb209af8954cfd5eeb8213b93e906020015b60405180910390a15050565b3a60000361191357604051630e661aed60e41b815260040160405180910390fd5b6000806119206002613cfd565b9050805160000361194457604051631c369b4560e21b815260040160405180910390fd5b60005b8151811015611b2c57600082828151811061196457611964615d7a565b60200260200101519050611977816143b1565b806119ed5750601d54604051639d6fc1d160e01b81526001600160a01b03838116600483015290911690639d6fc1d190602401602060405180830381865afa1580156119c7573d6000803e3d6000fd5b505050506040513d601f19601f820116820180604052508101906119eb9190615f1b565b155b156119f85750611b24565b611a036002826143ef565b506001600160a01b0381166000908152601f60209081526040808320805460ff19166001179055601b9091528120805490829055601c805491928392611a4a908490615f08565b9091555060009050611a5b83612b8a565b905060005b8151811015611ac6576000828281518110611a7d57611a7d615d7a565b6020908102919091018101516001600160a01b0380881660009081526013845260408082209284168252919093528220919091559050611abd8582614404565b50600101611a60565b50611ad18287615d90565b9550826001600160a01b0316336001600160a01b03167f8e6a4ccd7dccdca9ac211d00fcc3fa7c71be75ff73d3a35f63ea023173cc100484604051611b1891815260200190565b60405180910390a35050505b600101611947565b5081600003611b4e57604051631c369b4560e21b815260040160405180910390fd5b6000611b5b600284615f3d565b90506000611b698285615f08565b90506000601d60009054906101000a90046001600160a01b03166001600160a01b03166356b54bae6040518163ffffffff1660e01b8152600401602060405180830381865afa158015611bc0573d6000803e3d6000fd5b505050506040513d601f19601f82011682018060405250810190611be49190615f5f565b90506000601d60009054906101000a90046001600160a01b03166001600160a01b03166356b54bae6040518163ffffffff1660e01b8152600401602060405180830381865afa158015611c3b573d6000803e3d6000fd5b505050506040513d601f19601f82011682018060405250810190611c5f9190615f5f565b90506000816001600160a01b031663732524946040518163ffffffff1660e01b8152600401602060405180830381865afa158015611ca1573d6000803e3d6000fd5b505050506040513d601f19601f82011682018060405250810190611cc59190615f5f565b9050611cd18385614466565b611cdb8186614466565b604080518581526020810187905233917f1c113e6bae9530fea40323e612aeb0cb7817dedb5a0b0f6bdfbff97d55920dc7910160405180910390a250505050505050565b601d546001600160a01b03163314611d49576040516282b42960e81b815260040160405180910390fd5b611d5281613d11565b50565b601d60009054906101000a90046001600160a01b03166001600160a01b03166356b54bae6040518163ffffffff1660e01b8152600401602060405180830381865afa158015611da8573d6000803e3d6000fd5b505050506040513d601f19601f82011682018060405250810190611dcc9190615f5f565b6001600160a01b0316336001600160a01b031614611dfc576040516282b42960e81b815260040160405180910390fd5b34156116b1576015546000908152602080805260408083206001600160a01b03861684529091528120543491611e3385848661450d565b90506000611e4086612b8a565b905060005b8151811015611f8f57600084611e776015548a868681518110611e6a57611e6a615d7a565b602002602001015161462c565b8560400151611e869190615d63565b611e909190615f3d565b905080601360008a6001600160a01b03166001600160a01b031681526020019081526020016000206000858581518110611ecc57611ecc615d7a565b60200260200101516001600160a01b03166001600160a01b031681526020019081526020016000206000828254611f039190615d90565b90915550506001600160a01b0388166000908152600b602052604081208451839290869086908110611f3757611f37615d7a565b60200260200101516001600160a01b03166001600160a01b03168152602001908152602001600020600060155481526020019081526020016000206000828254611f819190615d90565b909155505050600101611e45565b50602082015115611fa857611fa88683602001516146cd565b81516001600160a01b038716600090815260136020908152604080832090915281208054909190611fda908490615d90565b90915550506001600160a01b0386166000908152601b602052604081208054869290612007908490615d90565b9250508190555083601c60008282546120209190615d90565b9091555061202f905086614794565b60155482516001600160a01b038816907f72093068b9f28053bd924ac15d7710b987f9b6ef1e0f89f47d8b4bd7cac776dc9061206b8189615f08565b6040805192835260208301919091520160405180910390a3505050505050565b601d546040516253517560e01b81523360048201526000916001600160a01b0316906253517590602401602060405180830381865afa1580156120d2573d6000803e3d6000fd5b505050506040513d601f19601f820116820180604052508101906120f69190615f5f565b6001600160a01b03160361211f57604051632670461960e11b81523360048201526024016118ac565b6116b1338383614880565b612132614356565b600061213c6149b8565b90506040518060400160405280857bffffffffffffffffffffffffffffffffffffffffffffffffffffffff1916815260200184848080602002602001604051908101604052809392919081815260200183836020028082843760009201829052509390945250506001600160e01b031988168152602084815260409091208351815463ffffffff191660e09190911c1781558382015180519193506121e89260018501929101906155d1565b509050507f3665bf9cd0ba4ddceeec259e21dcf8a4510f3b1130bd42e950828e69d85408ba858585856040516122219493929190615f7c565b60405180910390a15050505050565b6001600160a01b0381166000908152601e6020526040902080546060919061225790615da3565b80601f016020809104026020016040519081016040528092919081815260200182805461228390615da3565b80156122d05780601f106122a5576101008083540402835291602001916122d0565b820191906000526020600020905b8154815290600101906020018083116122b357829003601f168201915b50505050509050919050565b60008281526021602090815260408083206001600160a01b03851684529091529020545b92915050565b60606117256000613cfd565b601d546040516253517560e01b81526001600160a01b03848116600483015260009283929116906253517590602401602060405180830381865afa15801561235e573d6000803e3d6000fd5b505050506040513d601f19601f820116820180604052508101906123829190615f5f565b90506001600160a01b0384166000908152601f602052604090205460ff16156123af576000915050612300565b6001600160a01b03848116600090815260136020908152604080832087851684529091529081902054601d54915163a0d16cad60e01b815284841660048201529092919091169063a0d16cad90602401602060405180830381865afa15801561241c573d6000803e3d6000fd5b505050506040513d601f19601f820116820180604052508101906124409190615f1b565b61244d5791506123009050565b6001600160a01b038581166000908152600b60209081526040808320938816835292815282822060155483529052205480821115612489578091505b50949350505050565b61249a614356565b6124a46000614a1a565b565b6001600160a01b0381166000908152600a6020526040902060609061230090613cfd565b601d546001600160a01b031633146124f4576040516282b42960e81b815260040160405180910390fd5b6001600160a01b039092166000908152601e60205260409020600101805460f09390931c600160801b0271ffffffffffffffffffffffffffffffffffff1990931660809290921c91909117919091179055565b601d546001600160a01b03163314612571576040516282b42960e81b815260040160405180910390fd5b600c546001600160a01b038216600090815260136020908152604080832090915290205410611d52576125a5816001613bd3565b611d5281614794565b6125b6614356565b60006125c06149b8565b6001600160e01b031983166000908152602082905260408120805463ffffffff191681559192506125f4600183018261561c565b50506040516001600160e01b0319831681527fed27cb02231782dadf13473a7828cb980c4d685791b7a3136dde00f8c3594cb6906020016118e6565b601d546001600160a01b0316331461265a576040516282b42960e81b815260040160405180910390fd5b60185543601955565b336000908152601e6020526040902061267d848683615fe9565b50336000908152601e60205260409020600101805460f09290921c600160801b0271ffffffffffffffffffffffffffffffffffff1990921660809390931c929092171790555050565b3a6000036126e757604051630e661aed60e41b815260040160405180910390fd5b601d54604051630526083960e11b81526001600160a01b0388811660048301523360248301819052923492911690630a4c107290604401600060405180830381600087803b15801561273857600080fd5b505af115801561274c573d6000803e3d6000fd5b5050505061278f85858080601f016020809104026020016040519081016040528093929190818152602001838380828437600092019190915250614a8b92505050565b6127ac5760405163145a1fdd60e31b815260040160405180910390fd5b876001600160a01b03166127f586868080601f016020809104026020016040519081016040528093929190818152602001838380828437600092019190915250614b4292505050565b6001600160a01b03161461281c57604051631e5abf9560e01b815260040160405180910390fd5b6001600160a01b0382166000908152601e6020526040902061283f858783615fe9565b506001600160a01b0382166000908152601e6020526040902060010180546fffffffffffffffffffffffffffffffff1916608085901c179055612883828888614880565b61288e828383614005565b6015546040518281526001600160a01b0384169081907f2273de02cb1f69ba6259d22c4bc22c60e4c94c193265ef6afee324a04a9b6d229060200160405180910390a45050505050505050565b601d546040516253517560e01b81526001600160a01b03848116600483015260009283929116906253517590602401602060405180830381865afa158015612927573d6000803e3d6000fd5b505050506040513d601f19601f8201168201806040525081019061294b9190615f5f565b9050601d5460405163a0d16cad60e01b81526001600160a01b0383811660048301529091169063a0d16cad90602401602060405180830381865afa158015612997573d6000803e3d6000fd5b505050506040513d601f19601f820116820180604052508101906129bb9190615f1b565b6129c9576000915050612300565b6001600160a01b038481166000818152600b602090815260408083209488168084529482528083206015548452825280832054938352601382528083209483529390529190912054612a1b9190615f08565b949350505050565b60606000600760085481805480602002602001604051908101604052809291908181526020018280548015612a7757602002820191906000526020600020905b815481526020019060010190808311612a63575b50505050509150915091509091565b601e60205260009081526040902080548190612aa190615da3565b80601f0160208091040260200160405190810160405280929190818152602001828054612acd90615da3565b8015612b1a5780601f10612aef57610100808354040283529160200191612b1a565b820191906000526020600020905b815481529060010190602001808311612afd57829003601f168201915b50505060019093015491925050608081901b90600160801b900460f01b83565b601d546001600160a01b03163314612b64576040516282b42960e81b815260040160405180910390fd5b601754612b719082615d90565b601a6000828254612b829190615d90565b909155505050565b6001600160a01b038116600090815260096020526040902060609061230090613cfd565b60606006805480602002602001604051908101604052809291908181526020018280548015612c0657602002820191906000526020600020905b81546001600160a01b03168152600190910190602001808311612be8575b5050505050905090565b60006123008183614b4d565b601d546001600160a01b03163314612c46576040516282b42960e81b815260040160405180910390fd5b601754601a6000828254612c5a9190615d90565b9091555050565b3a600003612c8257604051630e661aed60e41b815260040160405180910390fd5b6001600160a01b038216612ca95760405163d92e233d60e01b815260040160405180910390fd5b80600003612cca57604051633ca0029d60e01b815260040160405180910390fd5b6001600160a01b0382166000818152600f602090815260408083203380855290835281842054858552601084528285205460138552838620838752855283862054968652601b9094529184205490949193861315612dd457856000612d2f89886128db565b905080821115612d5c57604051632de4882160e01b815260048101829052602481018390526044016118ac565b612d668287615d90565b9550612d728286615d90565b9450612d7e8285615f08565b9350612d8a8284615f08565b925081601c6000828254612d9e9190615f08565b90915550506015546001600160a01b03808b166000908152601160209081526040808320938c168352929052205550612e2a9050565b6000612ddf876160aa565b9050612deb8186615f08565b9450612df78185615f08565b9350612e038184615d90565b9250612e0f8183615d90565b915080601c6000828254612e239190615d90565b9091555050505b6001600160a01b038088166000818152600f60209081526040808320948a1680845294825280832089905583835260108252808320889055601382528083208584528252808320879055838352601b90915290208390559003612ef9578115801590612e975750600c5482105b15612ecf57604051636fe84f3d60e01b81526001600160a01b03808916600483015286166024820152604481018790526064016118ac565b6000861315612eee5781600003612ee957612ee987613c33565b612f66565b612ee9876001613bd3565b8115801590612f095750600d5482105b15612f4157604051636fe84f3d60e01b81526001600160a01b03808916600483015286166024820152604481018790526064016118ac565b6000861315612f5c5781600003612ee957612ee98786614404565b612f668786614b6f565b612f6f87614794565b601554856001600160a01b0316886001600160a01b03167f80d5c777e5f7ac6ee89723223803ca5c0ec0204f89e99c1b0cde973c66a6459489604051612fb791815260200190565b60405180910390a450505050505050565b604080518082019091526000815260606020820152612fe56149b8565b82516020808501919091206001600160e01b0319908116600090815292825260409283902083518085018552815460e01b909216825260018101805485518186028101860190965280865292949193858101939083018282801561306857602002820191906000526020600020905b815481526020019060010190808311613054575b5050505050815250509050919050565b6000806130836149b8565b6001600160e01b031980861660009081526020838152604080832081518083018352815460e01b9095168552600181018054835181860281018601909452808452969750939590938584019390919083018282801561310157602002820191906000526020600020905b8154815260200190600101908083116130ed575b505050505081525050905080602001515160000361312457600092505050612300565b6020810151815160009061313790614b9c565b905060005b8251811015613245578183828151811061315857613158615d7a565b60200260200101510361323d57600080821161318e578360008151811061318157613181615d7a565b60200260200101516131b3565b8361319a600184615f08565b815181106131aa576131aa615d7a565b60200260200101515b90506000600185516131c59190615f08565b83106131f75784600186516131da9190615f08565b815181106131ea576131ea615d7a565b602002602001015161321c565b84613203846001615d90565b8151811061321357613213615d7a565b60200260200101515b905081891415801561322e5750808914155b15975050505050505050612300565b60010161313c565b506000979650505050505050565b6000602854600014613267576117256116fc565b6117256116b5565b60408051808201909152600081526060602082015261328c6149b8565b6001600160e01b03198084166000908152602092835260409081902081518083018352815460e01b90931683526001810180548351818702810187019094528084529394919385830193928301828280156130685760200282019190600052602060002090815481526020019060010190808311613054575050505050815250509050919050565b60006017546016546018546133299190615d90565b6117259190615f08565b6024546001600160a01b0316331461335d576040516282b42960e81b815260040160405180910390fd5b601d546040516307b9342f60e21b81526001600160a01b0384811660048301526000921690631ee4d0bc90602401602060405180830381865afa1580156133a8573d6000803e3d6000fd5b505050506040513d601f19601f820116820180604052508101906133cc9190615f5f565b90506133d88183614c73565b505050565b3a6000036133fe57604051630e661aed60e41b815260040160405180910390fd5b613406614d1d565b6001600160a01b0381166000908152601160209081526040808320338085529252909120546015541161345f57604051630b06352b60e31b81526001600160a01b038084166004830152821660248201526044016118ac565b6001600160a01b038083166000908152600f60209081526040808320938516835292905290812054908190036134a857604051633ca0029d60e01b815260040160405180910390fd5b6001600160a01b038084166000818152600f602090815260408083209487168352938152838220829055918152601090915220546134e7908290615f08565b6001600160a01b038085166000908152601060209081526040808320949094556013815283822092861682529190915290812054900361352b5761352b8383614d67565b6135358282614466565b601554826001600160a01b0316846001600160a01b03167ff380b0bc887e00f5b50d3c9d4eaaf5c9a0afd97b956316b995159384c4ede9b38460405161357d91815260200190565b60405180910390a45050611d5260017f9b779b17422d0df92223018b32b4d1fa46e071723d6817e2486d003becc55f0055565b601d60009054906101000a90046001600160a01b03166001600160a01b03166356b54bae6040518163ffffffff1660e01b8152600401602060405180830381865afa158015613603573d6000803e3d6000fd5b505050506040513d601f19601f820116820180604052508101906136279190615f5f565b6001600160a01b0316336001600160a01b031614613657576040516282b42960e81b815260040160405180910390fd5b6000828152602080805260408083206001600160a01b038516845290915281205490036116b1576001600160a01b0381166000908152601b6020526040812054908190036136a457505050565b6000838152602080805260408083206001600160a01b038616808552908352818420949094556013825280832082528083205486845260218352818420948452939091529020555050565b60606117256004613cfd565b60606117256002613cfd565b601d60009054906101000a90046001600160a01b03166001600160a01b03166356b54bae6040518163ffffffff1660e01b8152600401602060405180830381865afa15801561375a573d6000803e3d6000fd5b505050506040513d601f19601f8201168201806040525081019061377e9190615f5f565b6001600160a01b0316336001600160a01b0316146137ae576040516282b42960e81b815260040160405180910390fd5b602855565b3a6000036137d457604051630e661aed60e41b815260040160405180910390fd5b601d546040516253517560e01b81523360048201819052916000916001600160a01b03909116906253517590602401602060405180830381865afa158015613820573d6000803e3d6000fd5b505050506040513d601f19601f820116820180604052508101906138449190615f5f565b905060155460001480156138c15750601d5460405163facd743b60e01b81526001600160a01b0383811660048301529091169063facd743b90602401602060405180830381865afa15801561389d573d6000803e3d6000fd5b505050506040513d601f19601f820116820180604052508101906138c19190615f1b565b156138ea576040516303d71f2d60e51b81526001600160a01b03831660048201526024016118ac565b6116b182613d11565b601d546001600160a01b0316331461391d576040516282b42960e81b815260040160405180910390fd5b6015805490600061392d836160c6565b90915550506000601a819055602855565b613946614356565b6001600160a01b03811661397057604051631e4fbdf760e01b8152600060048201526024016118ac565b611d5281614a1a565b3a60000361399a57604051630e661aed60e41b815260040160405180910390fd5b6139a2614d1d565b336139ae838284613d57565b6139b88183614466565b601554816001600160a01b0316846001600160a01b03167fa7c0f0cac6bd4d18042007706c84a8abe823751cf289b69c01e83eef7b5915c785604051613a0091815260200190565b60405180910390a4506116b160017f9b779b17422d0df92223018b32b4d1fa46e071723d6817e2486d003becc55f0055565b6000613a3e8183614b4d565b806123005750612300600283614b4d565b60c08101351580613a6957508061010001358160c0013511155b15613a875760405163c671116b60e01b815260040160405180910390fd5b806101000135600003613aad576040516332154b4760e01b815260040160405180910390fd5b60e08101351580613ac657508060c001358160e0013510155b15613ae457604051630685efe960e01b815260040160405180910390fd5b6000613af3602083018361578c565b6001600160a01b031603613b1a5760405163d92e233d60e01b815260040160405180910390fd5b613b276040820182615d03565b9050600003613b4957604051635c9a24ed60e11b815260040160405180910390fd5b60608101351580613b5c57506080810135155b15613b8a5760405163633373e160e11b815260808201356004820152606082013560248201526044016118ac565b80608001358160a0013511611d5257604051631c6d3b1560e01b815260040160405180910390fd5b613bba614ebd565b611d5281614f0b565b613bcb614ebd565b6124a4614f13565b613bdc82612c10565b613c1857613beb600083614f1b565b50610bb8613bf96000614f30565b1115613c185760405163398dcd9d60e21b815260040160405180910390fd5b613c236002836143ef565b5080156116b1576116b182614f3a565b613c3e600482614f1b565b50611d528161502f565b613c50614ebd565b6000613c5a6149b8565b6040805180820182526001600160e01b0319868116825260208083018781529189166000908152858252939093208251815463ffffffff191660e09190911c1781559051805194955091939092613cb89260018501929101906155d1565b509050507f3665bf9cd0ba4ddceeec259e21dcf8a4510f3b1130bd42e950828e69d85408ba848484604051613cef939291906160df565b60405180910390a150505050565b60606000613d0a8361524c565b9392505050565b613d1c6000826143ef565b50613d26816143b1565b15613d3c57613d366002826143ef565b50613d45565b613d45816152a7565b613d4e8161502f565b611d52816152b2565b6001600160a01b038316613d7e5760405163d92e233d60e01b815260040160405180910390fd5b80600003613d9f57604051633ca0029d60e01b815260040160405180910390fd5b6000613dab8484612312565b905080821115613dd857604051632de4882160e01b815260048101829052602481018390526044016118ac565b6001600160a01b038085166000908152601360209081526040808320938716835292905290812054613e0b908490615f08565b90506000846001600160a01b0316866001600160a01b031614613e3057600d54613e34565b600c545b90508115801590613e4457508082105b15613e7c57604051639e612d5760e01b81526001600160a01b03808816600483015286166024820152604481018590526064016118ac565b856001600160a01b0316856001600160a01b031614613f1157601d546040516253517560e01b81526001600160a01b03888116600483015260009216906253517590602401602060405180830381865afa158015613ede573d6000803e3d6000fd5b505050506040513d601f19601f82011682018060405250810190613f029190615f5f565b9050613f0f8782886152bd565b505b6001600160a01b038681166000818152601360209081526040808320948a16808452948252808320879055928252600b8152828220938252928352818120601554825290925290205484811015613f69576000613f73565b613f738582615f08565b6001600160a01b038089166000818152600b60209081526040808320948c1683529381528382206015548352815283822094909455908152601b90925281208054879290613fc2908490615f08565b9250508190555084601c6000828254613fdb9190615f08565b90915550506000839003613ff357613ff38787614d67565b613ffc87614794565b50505050505050565b6001600160a01b03831661402c5760405163d92e233d60e01b815260040160405180910390fd5b601d546040516253517560e01b81526001600160a01b03858116600483015260009216906253517590602401602060405180830381865afa158015614075573d6000803e3d6000fd5b505050506040513d601f19601f820116820180604052508101906140999190615f5f565b90506001600160a01b0381166140cd57604051632670461960e11b81526001600160a01b03851660048201526024016118ac565b816000036141015760405163e59f5c3960e01b81526001600160a01b038086166004830152841660248201526044016118ac565b6001600160a01b0384166000908152601f602052604090205460ff16156141465760405163078137eb60e41b81526001600160a01b03851660048201526024016118ac565b6001600160a01b03808516600081815260136020908152604080832094881680845294909152812054929091149161417f908590615d90565b9050600082156141925750600c546141e1565b50600d546001600160a01b038716600090815260136020908152604080832090915281205490036141e15760405163cbbeb0bd60e01b81526001600160a01b03881660048201526024016118ac565b808210156142155760405163e59f5c3960e01b81526001600160a01b038089166004830152871660248201526044016118ac565b600e546001600160a01b0388166000908152601b602052604090205461423c908790615d90565b111561426e57604051632c2b174160e21b81526001600160a01b038089166004830152871660248201526044016118ac565b6001600160a01b038088166000908152600b60209081526040808320938a1683529281528282206015548352905290812080548792906142af908490615d90565b90915550506001600160a01b0387166000908152601b6020526040812080548792906142dc908490615d90565b9250508190555084601c60008282546142f59190615d90565b909155505082156143105761430b876001613bd3565b614325565b61431a8787614b6f565b6143258785886152bd565b6001600160a01b038088166000908152601360209081526040808320938a16835292905220829055613ffc87614794565b336143887f9016d09d72d40fdae2fd8ceac6b6234c7706214fd39c1cd1e609a0528c199300546001600160a01b031690565b6001600160a01b0316146124a45760405163118cdaa760e01b81523360048201526024016118ac565b6001600160a01b0381166000908152601b60205260408120541580156123005750506001600160a01b03166000908152601060205260409020541590565b6000613d0a836001600160a01b0384166153d9565b6001600160a01b038216600090815260096020526040902061442690826143ef565b506001600160a01b038083166000908152600f60209081526040808320938516835292905220541561445c576116b182826154cc565b6116b182826154ee565b8047101561448757604051631e9acf1760e31b815260040160405180910390fd5b6000826001600160a01b03168260405160006040518083038185875af1925050503d80600081146144d4576040519150601f19603f3d011682016040523d82523d6000602084013e6144d9565b606091505b50509050806133d857604051630e21dcbb60e11b81526001600160a01b0384166004820152602481018390526044016118ac565b61453160405180606001604052806000815260200160008152602001600081525090565b6015546000818152602080805260408083206001600160a01b03891680855290835281842054948452602183528184209084529091528120549060646145778688615d63565b6145819190615f3d565b905061458d8187615f08565b6040808601919091526001600160a01b038089166000908152602660209081528382205460259091529290205416158015906145c857508015155b156145ea576127106145da8289615d63565b6145e49190615f3d565b60208601525b838386604001516145fb9190615d63565b6146059190615f3d565b60208601516146149084615f08565b61461e9190615d90565b855250929695505050505050565b60008360000361463e57506000613d0a565b6001600160a01b0380841660009081526023602090815260408083209386168352929052205484900361469f57506001600160a01b038083166000908152602260209081526040808320938516835292815282822086835290522054613d0a565b506001600160a01b038083166000908152601360209081526040808320938516835292905220549392505050565b6001600160a01b0380831660009081526025602090815260408083205460099092529091209116906146ff9082614b4d565b61470d5761470d8382614b6f565b6001600160a01b03808416600090815260136020908152604080832093851683529290529081208054849290614744908490615d90565b90915550506001600160a01b038084166000908152600b60209081526040808320938516835292815282822060155483529052908120805484929061478a908490615d90565b9091555050505050565b601d546040516253517560e01b81526001600160a01b03838116600483015260009216906253517590602401602060405180830381865afa1580156147dd573d6000803e3d6000fd5b505050506040513d601f19601f820116820180604052508101906148019190615f5f565b60248054604051633941e77760e21b81526001600160a01b0380851660048301529394506000939091169163e5079ddc9101602060405180830381865afa158015614850573d6000803e3d6000fd5b505050506040513d601f19601f82011682018060405250810190614874919061610c565b90506133d88382614c73565b6107d08111156148a65760405163e429b69160e01b8152600481018290526024016118ac565b6001600160a01b0382161580156148bc57508015155b156148ec5760405163073c315960e11b81526001600160a01b0383166004820152602481018290526044016118ac565b6001600160a01b0383166000908152602760205260409020548015801590614915575060155481145b156149395760155460405163e7cbc70160e01b81526004016118ac91815260200190565b6001600160a01b03848116600081815260256020908152604080832080546001600160a01b03191695891695861790556026825280832087905560155460278352928190209290925590518581527fd6ae57aa2cc060d4094c47d20c672afe0e53963e6459c15cab215abb8c88b863910160405180910390a350505050565b60008060ff196149e960017fdace3fd3d1fbdfd33853f19ba191d28c617e373ec58fc73cf7b58db5aff2c2ab615f08565b6040516020016149fb91815260200190565b60408051601f1981840301815291905280516020909101201692915050565b7f9016d09d72d40fdae2fd8ceac6b6234c7706214fd39c1cd1e609a0528c19930080546001600160a01b031981166001600160a01b03848116918217845560405192169182907f8be0079c531659141344cd1fd0a4f28419497f9722a3daafe3b4186f6b6457e090600090a3505050565b60006040825114614aaf576040516318dca5e960e21b815260040160405180910390fd5b602082015160408301518181811580614ace57506401000003d0198210155b80614ad7575080155b80614ae857506401000003d0198110155b15614b06576040516379eb528360e11b815260040160405180910390fd5b60006401000003d019828309905060006401000003d01960076401000003d019866401000003d019888909090891909114979650505050505050565b805160209091012090565b6001600160a01b03811660009081526001830160205260408120541515613d0a565b6001600160a01b0382166000908152600960205260409020614b919082614f1b565b506116b182826154ee565b60408051600481526024810182526020810180517bffffffffffffffffffffffffffffffffffffffffffffffffffffffff166001600160e01b03198516179052905160009190829081903090614bf3908590616125565b600060405180830381855afa9150503d8060008114614c2e576040519150601f19603f3d011682016040523d82523d6000602084013e614c33565b606091505b509150915081614c5657604051635fbab09b60e11b815260040160405180910390fd5b80806020019051810190614c6a919061610c565b95945050505050565b600080614c7f84615510565b9150915081614c8e5750505050565b600060078281548110614ca357614ca3615d7a565b60009182526020808320909101546001600160a01b0388168352601b9091526040822054909250614cd5908690615d63565b90508060078481548110614ceb57614ceb615d7a565b90600052602060002001819055508082600854614d089190615f08565b614d129190615d90565b600855505050505050565b7f9b779b17422d0df92223018b32b4d1fa46e071723d6817e2486d003becc55f00805460011901614d6157604051633ee5aeb560e01b815260040160405180910390fd5b60029055565b816001600160a01b0316816001600160a01b031603614e7457601d546040516253517560e01b81526001600160a01b03848116600483015260009216906253517590602401602060405180830381865afa158015614dc9573d6000803e3d6000fd5b505050506040513d601f19601f82011682018060405250810190614ded9190615f5f565b601d5460405163facd743b60e01b81526001600160a01b03808416600483015292935091169063facd743b90602401602060405180830381865afa158015614e39573d6000803e3d6000fd5b505050506040513d601f19601f82011682018060405250810190614e5d9190615f1b565b15614e6b576133d883613c33565b6133d883613d11565b614e7e8282614404565b614e87826143b1565b156116b1576133d86002836143ef565b60017f9b779b17422d0df92223018b32b4d1fa46e071723d6817e2486d003becc55f0055565b7ff0c57e16840df040f15088dc2f81fe391c3923bec73e23a9662efc9c229c6a005468010000000000000000900460ff166124a457604051631afcd79f60e31b815260040160405180910390fd5b613946614ebd565b614e97614ebd565b6000613d0a836001600160a01b038416615582565b6000612300825490565b6001600160a01b0381166000908152601260205260409020546006548082101580614f955750826001600160a01b031660068381548110614f7d57614f7d615d7a565b6000918252602090912001546001600160a01b031614155b15615026576001600160a01b03831660008181526012602052604081208390556006805460018181019092557ff652222313e28459528d920b65115c16c04f3efc82aaedc97be59f3f377c0d3f0180546001600160a01b03191690931790925560078054928301815581527fa66cc928b5edb82af9bd49922954155ab7b0942694bea4ce44661d9a8736c688909101555b6133d8836152b2565b6007546006541461503d5750565b6001600160a01b038116600090815260126020526040902054600654811080156150965750816001600160a01b03166006828154811061507f5761507f615d7a565b6000918252602090912001546001600160a01b0316145b156116b157600781815481106150ae576150ae615d7a565b9060005260206000200154600854106150fb57600781815481106150d4576150d4615d7a565b9060005260206000200154600860008282546150f09190615f08565b909155506151019050565b60006008555b60065460009061511390600190615f08565b905060006006828154811061512a5761512a615d7a565b600091825260209091200154600680546001600160a01b03909216925082918590811061515957615159615d7a565b9060005260206000200160006101000a8154816001600160a01b0302191690836001600160a01b031602179055506007828154811061519a5761519a615d7a565b9060005260206000200154600784815481106151b8576151b8615d7a565b60009182526020808320909101929092556001600160a01b0380841682526012909252604080822086905591861681529081205560068054806151fd576151fd616141565b600082815260209020810160001990810180546001600160a01b0319169055019055600780548061523057615230616141565b6001900381819060005260206000200160009055905550505050565b6060816000018054806020026020016040519081016040528092919081815260200182805480156122d057602002820191906000526020600020905b8154815260200190600101908083116152885750505050509050919050565b6116b1600282614f1b565b6116b16004826143ef565b601d5460405163a0d16cad60e01b81526001600160a01b0384811660048301529091169063a0d16cad90602401602060405180830381865afa158015615307573d6000803e3d6000fd5b505050506040513d601f19601f8201168201806040525081019061532b9190615f1b565b15806153375750601554155b1561534157505050565b6001600160a01b038084166000908152602360209081526040808320938516835292905220546015548110156153d3576001600160a01b0380851660008181526013602090815260408083209487168084529482528083205484845260228352818420868552835281842060158054865290845282852091909155549383526023825280832094835293905291909120555b50505050565b600081815260018301602052604081205480156154c25760006153fd600183615f08565b855490915060009061541190600190615f08565b905080821461547657600086600001828154811061543157615431615d7a565b906000526020600020015490508087600001848154811061545457615454615d7a565b6000918252602080832090910192909255918252600188019052604090208390555b855486908061548757615487616141565b600190038181906000526020600020016000905590558560010160008681526020019081526020016000206000905560019350505050612300565b6000915050612300565b6001600160a01b0382166000908152600a602052604090206133d89082614f1b565b6001600160a01b0382166000908152600a602052604090206133d890826143ef565b6001600160a01b038116600090815260126020526040812054600654811080156155695750826001600160a01b03166006828154811061555257615552615d7a565b6000918252602090912001546001600160a01b0316145b156155775760019150915091565b506000928392509050565b60008181526001830160205260408120546155c957508154600181810184556000848152602080822090930184905584548482528286019093526040902091909155612300565b506000612300565b82805482825590600052602060002090810192821561560c579160200282015b8281111561560c5782518255916020019190600101906155f1565b50615618929150615636565b5090565b5080546000825590600052602060002090810190611d5291905b5b808211156156185760008155600101615637565b6001600160a01b0381168114611d5257600080fd5b60008083601f84011261567257600080fd5b50813567ffffffffffffffff81111561568a57600080fd5b6020830191508360208260051b85010111156156a557600080fd5b9250929050565b600080600080600080608087890312156156c557600080fd5b86356156d08161564b565b9550602087013567ffffffffffffffff808211156156ed57600080fd5b90880190610120828b03121561570257600080fd5b9095506040880135908082111561571857600080fd5b6157248a838b01615660565b9096509450606089013591508082111561573d57600080fd5b5061574a89828a01615660565b979a9699509497509295939492505050565b6000806040838503121561576f57600080fd5b8235915060208301356157818161564b565b809150509250929050565b60006020828403121561579e57600080fd5b8135613d0a8161564b565b6000806000606084860312156157be57600080fd5b83356157c98161564b565b925060208401356157d98161564b565b929592945050506040919091013590565b6000602082840312156157fc57600080fd5b5035919050565b6000806040838503121561581657600080fd5b82356158218161564b565b946020939093013593505050565b80356001600160e01b03198116811461584757600080fd5b919050565b6000806000806060858703121561586257600080fd5b61586b8561582f565b93506158796020860161582f565b9250604085013567ffffffffffffffff81111561589557600080fd5b6158a187828801615660565b95989497509550505050565b60005b838110156158c85781810151838201526020016158b0565b50506000910152565b600081518084526158e98160208601602086016158ad565b601f01601f19169290920160200192915050565b602081526000613d0a60208301846158d1565b6020808252825182820181905260009190848201906040850190845b818110156159515783516001600160a01b03168352928401929184019160010161592c565b50909695505050505050565b6000806040838503121561597057600080fd5b823561597b8161564b565b915060208301356157818161564b565b80356fffffffffffffffffffffffffffffffff198116811461584757600080fd5b80356001600160f01b03198116811461584757600080fd5b6000806000606084860312156159d957600080fd5b83356159e48161564b565b92506159f26020850161598b565b9150615a00604085016159ac565b90509250925092565b600060208284031215615a1b57600080fd5b613d0a8261582f565b60008083601f840112615a3657600080fd5b50813567ffffffffffffffff811115615a4e57600080fd5b6020830191508360208285010111156156a557600080fd5b60008060008060608587031215615a7c57600080fd5b843567ffffffffffffffff811115615a9357600080fd5b615a9f87828801615a24565b9095509350615ab290506020860161598b565b9150615ac0604086016159ac565b905092959194509250565b60008060008060008060a08789031215615ae457600080fd5b8635615aef8161564b565b95506020870135615aff8161564b565b945060408701359350606087013567ffffffffffffffff811115615b2257600080fd5b615b2e89828a01615a24565b9094509250615b4190506080880161598b565b90509295509295509295565b60008151808452602080850194506020840160005b83811015615b7e57815187529582019590820190600101615b62565b509495945050505050565b604081526000615b9c6040830185615b4d565b90508260208301529392505050565b606081526000615bbe60608301866158d1565b6fffffffffffffffffffffffffffffffff19949094166020830152506001600160f01b031991909116604090910152919050565b634e487b7160e01b600052604160045260246000fd5b600060208284031215615c1a57600080fd5b813567ffffffffffffffff80821115615c3257600080fd5b818401915084601f830112615c4657600080fd5b813581811115615c5857615c58615bf2565b604051601f8201601f19908116603f01168101908382118183101715615c8057615c80615bf2565b81604052828152876020848701011115615c9957600080fd5b826020860160208301376000928101602001929092525095945050505050565b602080825282516001600160e01b03191682820152820151604080830152600090612a1b6060840182615b4d565b60008060408385031215615cfa57600080fd5b6158218361582f565b6000808335601e19843603018112615d1a57600080fd5b83018035915067ffffffffffffffff821115615d3557600080fd5b6020019150600581901b36038213156156a557600080fd5b634e487b7160e01b600052601160045260246000fd5b808202811582820484141761230057612300615d4d565b634e487b7160e01b600052603260045260246000fd5b8082018082111561230057612300615d4d565b600181811c90821680615db757607f821691505b602082108103615dd757634e487b7160e01b600052602260045260246000fd5b50919050565b601f8211156133d8576000816000526020600020601f850160051c81016020861015615e065750805b601f850160051c820191505b81811015615e2557828155600101615e12565b505050505050565b815167ffffffffffffffff811115615e4757615e47615bf2565b615e5b81615e558454615da3565b84615ddd565b602080601f831160018114615e905760008415615e785750858301515b600019600386901b1c1916600185901b178555615e25565b600085815260208120601f198616915b82811015615ebf57888601518255948401946001909101908401615ea0565b5085821015615edd5787850151600019600388901b60f8161c191681555b5050505050600190811b01905550565b600060208284031215615eff57600080fd5b613d0a8261598b565b8181038181111561230057612300615d4d565b600060208284031215615f2d57600080fd5b81518015158114613d0a57600080fd5b600082615f5a57634e487b7160e01b600052601260045260246000fd5b500490565b600060208284031215615f7157600080fd5b8151613d0a8161564b565b6001600160e01b0319858116825284166020820152606060408201819052810182905260007f07ffffffffffffffffffffffffffffffffffffffffffffffffffffffffffffff831115615fce57600080fd5b8260051b808560808501379190910160800195945050505050565b67ffffffffffffffff83111561600157616001615bf2565b6160158361600f8354615da3565b83615ddd565b6000601f84116001811461604957600085156160315750838201355b600019600387901b1c1916600186901b1783556160a3565b600083815260209020601f19861690835b8281101561607a578685013582556020948501946001909201910161605a565b50868210156160975760001960f88860031b161c19848701351681555b505060018560011b0183555b5050505050565b6000600160ff1b82016160bf576160bf615d4d565b5060000390565b6000600182016160d8576160d8615d4d565b5060010190565b6001600160e01b0319848116825283166020820152606060408201819052600090614c6a90830184615b4d565b60006020828403121561611e57600080fd5b5051919050565b600082516161378184602087016158ad565b9190910192915050565b634e487b7160e01b600052603160045260246000fdfea264697066735822122013d8518b54d60c5b834ad48acd0ca62efc67bc6ff16a5277129511852afce00b64736f6c63430008190033",
  "linkReferences": {},
  "deployedLinkReferences": {}
}