{
  "_format": "hh-sol-artifact-1",
  "contractName": "StakingHbbftMock",
  "sourceName": "contracts/mockContracts/StakingHbbftMock.sol",
  "abi": [
    {
      "inputs": [
        {
          "internalType": "address",
          "name": "pool",
          "type": "address"
        },
        {
          "internalType": "address",
          "name": "staker",
          "type": "address"
        }
      ],
      "name": "CannotClaimWithdrawOrderYet",
      "type": "error"
    },
    {
      "inputs": [],
      "name": "GetterCallFailed",
      "type": "error"
    },
    {
      "inputs": [],
      "name": "InitialStakingPoolsListEmpty",
      "type": "error"
    },
    {
      "inputs": [],
      "name": "InsufficientBalance",
      "type": "error"
    },
    {
      "inputs": [
        {
          "internalType": "address",
          "name": "pool",
          "type": "address"
        },
        {
          "internalType": "address",
          "name": "delegator",
          "type": "address"
        }
      ],
      "name": "InsufficientStakeAmount",
      "type": "error"
    },
    {
      "inputs": [],
      "name": "InvalidFixedEpochDuration",
      "type": "error"
    },
    {
      "inputs": [
        {
          "internalType": "uint256",
          "name": "candidateStake",
          "type": "uint256"
        },
        {
          "internalType": "uint256",
          "name": "delegatorStake",
          "type": "uint256"
        }
      ],
      "name": "InvalidInitialStakeAmount",
      "type": "error"
    },
    {
      "inputs": [],
      "name": "InvalidInitialization",
      "type": "error"
    },
    {
      "inputs": [],
      "name": "InvalidIpAddressesCount",
      "type": "error"
    },
    {
      "inputs": [],
      "name": "InvalidMaxStakeAmount",
      "type": "error"
    },
    {
      "inputs": [],
      "name": "InvalidMoveStakePoolsAddress",
      "type": "error"
    },
    {
      "inputs": [
        {
          "internalType": "address",
          "name": "_operator",
          "type": "address"
        },
        {
          "internalType": "uint256",
          "name": "_share",
          "type": "uint256"
        }
      ],
      "name": "InvalidNodeOperatorConfiguration",
      "type": "error"
    },
    {
      "inputs": [
        {
          "internalType": "uint256",
          "name": "_share",
          "type": "uint256"
        }
      ],
      "name": "InvalidNodeOperatorShare",
      "type": "error"
    },
    {
      "inputs": [
        {
          "internalType": "address",
          "name": "pool",
          "type": "address"
        },
        {
          "internalType": "address",
          "name": "delegator",
          "type": "address"
        },
        {
          "internalType": "int256",
          "name": "amount",
          "type": "int256"
        }
      ],
      "name": "InvalidOrderWithdrawAmount",
      "type": "error"
    },
    {
      "inputs": [],
      "name": "InvalidPublicKeysCount",
      "type": "error"
    },
    {
      "inputs": [],
      "name": "InvalidStakingFixedEpochDuration",
      "type": "error"
    },
    {
      "inputs": [],
      "name": "InvalidStakingTransitionTimeframe",
      "type": "error"
    },
    {
      "inputs": [],
      "name": "InvalidTransitionTimeFrame",
      "type": "error"
    },
    {
      "inputs": [
        {
          "internalType": "address",
          "name": "pool",
          "type": "address"
        },
        {
          "internalType": "address",
          "name": "delegator",
          "type": "address"
        },
        {
          "internalType": "uint256",
          "name": "amount",
          "type": "uint256"
        }
      ],
      "name": "InvalidWithdrawAmount",
      "type": "error"
    },
    {
      "inputs": [
        {
          "internalType": "uint256",
          "name": "allowed",
          "type": "uint256"
        },
        {
          "internalType": "uint256",
          "name": "desired",
          "type": "uint256"
        }
      ],
      "name": "MaxAllowedWithdrawExceeded",
      "type": "error"
    },
    {
      "inputs": [],
      "name": "MaxPoolsCountExceeded",
      "type": "error"
    },
    {
      "inputs": [
        {
          "internalType": "uint256",
          "name": "_newVal",
          "type": "uint256"
        }
      ],
      "name": "NewValueOutOfRange",
      "type": "error"
    },
    {
      "inputs": [],
      "name": "NoStakesToRecover",
      "type": "error"
    },
    {
      "inputs": [],
      "name": "NotInitializing",
      "type": "error"
    },
    {
      "inputs": [],
      "name": "NotPayable",
      "type": "error"
    },
    {
      "inputs": [
        {
          "internalType": "uint256",
          "name": "_epoch",
          "type": "uint256"
        }
      ],
      "name": "OnlyOncePerEpoch",
      "type": "error"
    },
    {
      "inputs": [
        {
          "internalType": "address",
          "name": "owner",
          "type": "address"
        }
      ],
      "name": "OwnableInvalidOwner",
      "type": "error"
    },
    {
      "inputs": [
        {
          "internalType": "address",
          "name": "account",
          "type": "address"
        }
      ],
      "name": "OwnableUnauthorizedAccount",
      "type": "error"
    },
    {
      "inputs": [
        {
          "internalType": "address",
          "name": "pool",
          "type": "address"
        }
      ],
      "name": "PoolAbandoned",
      "type": "error"
    },
    {
      "inputs": [
        {
          "internalType": "address",
          "name": "pool",
          "type": "address"
        }
      ],
      "name": "PoolCannotBeRemoved",
      "type": "error"
    },
    {
      "inputs": [
        {
          "internalType": "address",
          "name": "pool",
          "type": "address"
        }
      ],
      "name": "PoolEmpty",
      "type": "error"
    },
    {
      "inputs": [
        {
          "internalType": "address",
          "name": "pool",
          "type": "address"
        }
      ],
      "name": "PoolNotExist",
      "type": "error"
    },
    {
      "inputs": [
        {
          "internalType": "address",
          "name": "pool",
          "type": "address"
        },
        {
          "internalType": "address",
          "name": "delegator",
          "type": "address"
        }
      ],
      "name": "PoolStakeLimitExceeded",
      "type": "error"
    },
    {
      "inputs": [],
      "name": "ReentrancyGuardReentrantCall",
      "type": "error"
    },
    {
      "inputs": [
        {
          "internalType": "address",
          "name": "recipient",
          "type": "address"
        },
        {
          "internalType": "uint256",
          "name": "amount",
          "type": "uint256"
        }
      ],
      "name": "TransferFailed",
      "type": "error"
    },
    {
      "inputs": [],
      "name": "Unauthorized",
      "type": "error"
    },
    {
      "inputs": [],
      "name": "WithdrawNotAllowed",
      "type": "error"
    },
    {
      "inputs": [],
      "name": "ZeroAddress",
      "type": "error"
    },
    {
      "inputs": [],
      "name": "ZeroGasPrice",
      "type": "error"
    },
    {
      "inputs": [],
      "name": "ZeroWidthrawAmount",
      "type": "error"
    },
    {
      "inputs": [],
      "name": "ZeroWidthrawDisallowPeriod",
      "type": "error"
    },
    {
      "anonymous": false,
      "inputs": [
        {
          "indexed": true,
          "internalType": "address",
          "name": "fromPoolStakingAddress",
          "type": "address"
        },
        {
          "indexed": true,
          "internalType": "address",
          "name": "staker",
          "type": "address"
        },
        {
          "indexed": true,
          "internalType": "uint256",
          "name": "stakingEpoch",
          "type": "uint256"
        },
        {
          "indexed": false,
          "internalType": "uint256",
          "name": "amount",
          "type": "uint256"
        }
      ],
      "name": "ClaimedOrderedWithdrawal",
      "type": "event"
    },
    {
      "anonymous": false,
      "inputs": [
        {
          "indexed": true,
          "internalType": "address",
          "name": "caller",
          "type": "address"
        },
        {
          "indexed": true,
          "internalType": "address",
          "name": "stakingAddress",
          "type": "address"
        },
        {
          "indexed": false,
          "internalType": "uint256",
          "name": "gatheredFunds",
          "type": "uint256"
        }
      ],
      "name": "GatherAbandonedStakes",
      "type": "event"
    },
    {
      "anonymous": false,
      "inputs": [
        {
          "indexed": false,
          "internalType": "uint64",
          "name": "version",
          "type": "uint64"
        }
      ],
      "name": "Initialized",
      "type": "event"
    },
    {
      "anonymous": false,
      "inputs": [
        {
          "indexed": false,
          "internalType": "address",
          "name": "fromPoolStakingAddress",
          "type": "address"
        },
        {
          "indexed": true,
          "internalType": "address",
          "name": "toPoolStakingAddress",
          "type": "address"
        },
        {
          "indexed": true,
          "internalType": "address",
          "name": "staker",
          "type": "address"
        },
        {
          "indexed": true,
          "internalType": "uint256",
          "name": "stakingEpoch",
          "type": "uint256"
        },
        {
          "indexed": false,
          "internalType": "uint256",
          "name": "amount",
          "type": "uint256"
        }
      ],
      "name": "MovedStake",
      "type": "event"
    },
    {
      "anonymous": false,
      "inputs": [
        {
          "indexed": true,
          "internalType": "address",
          "name": "fromPoolStakingAddress",
          "type": "address"
        },
        {
          "indexed": true,
          "internalType": "address",
          "name": "staker",
          "type": "address"
        },
        {
          "indexed": true,
          "internalType": "uint256",
          "name": "stakingEpoch",
          "type": "uint256"
        },
        {
          "indexed": false,
          "internalType": "int256",
          "name": "amount",
          "type": "int256"
        }
      ],
      "name": "OrderedWithdrawal",
      "type": "event"
    },
    {
      "anonymous": false,
      "inputs": [
        {
          "indexed": true,
          "internalType": "address",
          "name": "previousOwner",
          "type": "address"
        },
        {
          "indexed": true,
          "internalType": "address",
          "name": "newOwner",
          "type": "address"
        }
      ],
      "name": "OwnershipTransferred",
      "type": "event"
    },
    {
      "anonymous": false,
      "inputs": [
        {
          "indexed": true,
          "internalType": "address",
          "name": "toPoolStakingAddress",
          "type": "address"
        },
        {
          "indexed": true,
          "internalType": "address",
          "name": "staker",
          "type": "address"
        },
        {
          "indexed": true,
          "internalType": "uint256",
          "name": "stakingEpoch",
          "type": "uint256"
        },
        {
          "indexed": false,
          "internalType": "uint256",
          "name": "amount",
          "type": "uint256"
        }
      ],
      "name": "PlacedStake",
      "type": "event"
    },
    {
      "anonymous": false,
      "inputs": [
        {
          "indexed": true,
          "internalType": "address",
          "name": "caller",
          "type": "address"
        },
        {
          "indexed": false,
          "internalType": "uint256",
          "name": "reinsertShare",
          "type": "uint256"
        },
        {
          "indexed": false,
          "internalType": "uint256",
          "name": "governanceShare",
          "type": "uint256"
        }
      ],
      "name": "RecoverAbandonedStakes",
      "type": "event"
    },
    {
      "anonymous": false,
      "inputs": [
        {
          "indexed": false,
          "internalType": "bytes4",
          "name": "funcSelector",
          "type": "bytes4"
        }
      ],
      "name": "RemoveChangeableParameter",
      "type": "event"
    },
    {
      "anonymous": false,
      "inputs": [
        {
          "indexed": true,
          "internalType": "address",
          "name": "poolStakingAddress",
          "type": "address"
        },
        {
          "indexed": true,
          "internalType": "uint256",
          "name": "stakingEpoch",
          "type": "uint256"
        },
        {
          "indexed": false,
          "internalType": "uint256",
          "name": "validatorReward",
          "type": "uint256"
        },
        {
          "indexed": false,
          "internalType": "uint256",
          "name": "delegatorsReward",
          "type": "uint256"
        }
      ],
      "name": "RestakeReward",
      "type": "event"
    },
    {
      "anonymous": false,
      "inputs": [
        {
          "indexed": false,
          "internalType": "address",
          "name": "_address",
          "type": "address"
        }
      ],
      "name": "SetBonusScoreContract",
      "type": "event"
    },
    {
      "anonymous": false,
      "inputs": [
        {
          "indexed": false,
          "internalType": "bytes4",
          "name": "setter",
          "type": "bytes4"
        },
        {
          "indexed": false,
          "internalType": "bytes4",
          "name": "getter",
          "type": "bytes4"
        },
        {
          "indexed": false,
          "internalType": "uint256[]",
          "name": "params",
          "type": "uint256[]"
        }
      ],
      "name": "SetChangeableParameter",
      "type": "event"
    },
    {
      "anonymous": false,
      "inputs": [
        {
          "indexed": false,
          "internalType": "uint256",
          "name": "minStake",
          "type": "uint256"
        }
      ],
      "name": "SetDelegatorMinStake",
      "type": "event"
    },
    {
      "anonymous": false,
      "inputs": [
        {
          "indexed": true,
          "internalType": "address",
          "name": "poolStakingAddress",
          "type": "address"
        },
        {
          "indexed": true,
          "internalType": "address",
          "name": "nodeOperatorAddress",
          "type": "address"
        },
        {
          "indexed": false,
          "internalType": "uint256",
          "name": "operatorShare",
          "type": "uint256"
        }
      ],
      "name": "SetNodeOperator",
      "type": "event"
    },
    {
      "anonymous": false,
      "inputs": [
        {
          "indexed": true,
          "internalType": "address",
          "name": "fromPoolStakingAddress",
          "type": "address"
        },
        {
          "indexed": true,
          "internalType": "address",
          "name": "staker",
          "type": "address"
        },
        {
          "indexed": true,
          "internalType": "uint256",
          "name": "stakingEpoch",
          "type": "uint256"
        },
        {
          "indexed": false,
          "internalType": "uint256",
          "name": "amount",
          "type": "uint256"
        }
      ],
      "name": "WithdrewStake",
      "type": "event"
    },
    {
      "inputs": [],
      "name": "MAX_CANDIDATES",
      "outputs": [
        {
          "internalType": "uint256",
          "name": "",
          "type": "uint256"
        }
      ],
      "stateMutability": "view",
      "type": "function"
    },
    {
      "inputs": [],
      "name": "MAX_NODE_OPERATOR_SHARE_PERCENT",
      "outputs": [
        {
          "internalType": "uint256",
          "name": "",
          "type": "uint256"
        }
      ],
      "stateMutability": "view",
      "type": "function"
    },
    {
      "inputs": [],
      "name": "PERCENT_DENOMINATOR",
      "outputs": [
        {
          "internalType": "uint256",
          "name": "",
          "type": "uint256"
        }
      ],
      "stateMutability": "view",
      "type": "function"
    },
    {
      "inputs": [
        {
          "internalType": "address",
          "name": "",
          "type": "address"
        }
      ],
      "name": "abandonedAndRemoved",
      "outputs": [
        {
          "internalType": "bool",
          "name": "",
          "type": "bool"
        }
      ],
      "stateMutability": "view",
      "type": "function"
    },
    {
      "inputs": [],
      "name": "addBalance",
      "outputs": [],
      "stateMutability": "payable",
      "type": "function"
    },
    {
      "inputs": [
        {
          "internalType": "address",
          "name": "_miningAddress",
          "type": "address"
        },
        {
          "internalType": "address",
          "name": "_nodeOperatorAddress",
          "type": "address"
        },
        {
          "internalType": "uint256",
          "name": "_operatorShare",
          "type": "uint256"
        },
        {
          "internalType": "bytes",
          "name": "_publicKey",
          "type": "bytes"
        },
        {
          "internalType": "bytes16",
          "name": "_ip",
          "type": "bytes16"
        }
      ],
      "name": "addPool",
      "outputs": [],
      "stateMutability": "payable",
      "type": "function"
    },
    {
      "inputs": [
        {
          "internalType": "address",
          "name": "_stakingAddress",
          "type": "address"
        }
      ],
      "name": "addPoolActiveMock",
      "outputs": [],
      "stateMutability": "nonpayable",
      "type": "function"
    },
    {
      "inputs": [
        {
          "internalType": "address",
          "name": "_stakingAddress",
          "type": "address"
        }
      ],
      "name": "addPoolInactiveMock",
      "outputs": [],
      "stateMutability": "nonpayable",
      "type": "function"
    },
    {
      "inputs": [],
      "name": "areStakeAndWithdrawAllowed",
      "outputs": [
        {
          "internalType": "bool",
          "name": "",
          "type": "bool"
        }
      ],
      "stateMutability": "pure",
      "type": "function"
    },
    {
      "inputs": [],
      "name": "bonusScoreContract",
      "outputs": [
        {
          "internalType": "contract IBonusScoreSystem",
          "name": "",
          "type": "address"
        }
      ],
      "stateMutability": "view",
      "type": "function"
    },
    {
      "inputs": [],
      "name": "candidateMinStake",
      "outputs": [
        {
          "internalType": "uint256",
          "name": "",
          "type": "uint256"
        }
      ],
      "stateMutability": "view",
      "type": "function"
    },
    {
      "inputs": [
        {
          "internalType": "address",
          "name": "_poolStakingAddress",
          "type": "address"
        }
      ],
      "name": "claimOrderedWithdraw",
      "outputs": [],
      "stateMutability": "nonpayable",
      "type": "function"
    },
    {
      "inputs": [
        {
          "internalType": "address",
          "name": "pool",
          "type": "address"
        },
        {
          "internalType": "address",
          "name": "delegator",
          "type": "address"
        },
        {
          "internalType": "uint256",
          "name": "epoch",
          "type": "uint256"
        }
      ],
      "name": "clearDelegatorStakeSnapshot",
      "outputs": [],
      "stateMutability": "nonpayable",
      "type": "function"
    },
    {
      "inputs": [],
      "name": "currentKeyGenExtraTimeWindow",
      "outputs": [
        {
          "internalType": "uint256",
          "name": "",
          "type": "uint256"
        }
      ],
      "stateMutability": "view",
      "type": "function"
    },
    {
      "inputs": [],
      "name": "delegatorMinStake",
      "outputs": [
        {
          "internalType": "uint256",
          "name": "",
          "type": "uint256"
        }
      ],
      "stateMutability": "view",
      "type": "function"
    },
    {
      "inputs": [
        {
          "internalType": "string",
          "name": "_selector",
          "type": "string"
        }
      ],
      "name": "getAllowedParamsRange",
      "outputs": [
        {
          "components": [
            {
              "internalType": "bytes4",
              "name": "getter",
              "type": "bytes4"
            },
            {
              "internalType": "uint256[]",
              "name": "range",
              "type": "uint256[]"
            }
          ],
          "internalType": "struct ValueGuards.ParameterRange",
          "name": "",
          "type": "tuple"
        }
      ],
      "stateMutability": "view",
      "type": "function"
    },
    {
      "inputs": [
        {
          "internalType": "bytes4",
          "name": "_selector",
          "type": "bytes4"
        }
      ],
      "name": "getAllowedParamsRangeWithSelector",
      "outputs": [
        {
          "components": [
            {
              "internalType": "bytes4",
              "name": "getter",
              "type": "bytes4"
            },
            {
              "internalType": "uint256[]",
              "name": "range",
              "type": "uint256[]"
            }
          ],
          "internalType": "struct ValueGuards.ParameterRange",
          "name": "",
          "type": "tuple"
        }
      ],
      "stateMutability": "view",
      "type": "function"
    },
    {
      "inputs": [
        {
          "internalType": "address",
          "name": "pool",
          "type": "address"
        },
        {
          "internalType": "address",
          "name": "delegator",
          "type": "address"
        },
        {
          "internalType": "uint256",
          "name": "epoch",
          "type": "uint256"
        }
      ],
      "name": "getDelegatorStakeSnapshot",
      "outputs": [
        {
          "internalType": "uint256",
          "name": "",
          "type": "uint256"
        }
      ],
      "stateMutability": "view",
      "type": "function"
    },
    {
      "inputs": [],
      "name": "getMaxCandidates",
      "outputs": [
        {
          "internalType": "uint256",
          "name": "",
          "type": "uint256"
        }
      ],
      "stateMutability": "pure",
      "type": "function"
    },
    {
      "inputs": [
        {
          "internalType": "address",
          "name": "_poolAddress",
          "type": "address"
        }
      ],
      "name": "getPoolInternetAddress",
      "outputs": [
        {
          "internalType": "bytes16",
          "name": "",
          "type": "bytes16"
        },
        {
          "internalType": "bytes2",
          "name": "",
          "type": "bytes2"
        }
      ],
      "stateMutability": "view",
      "type": "function"
    },
    {
      "inputs": [
        {
          "internalType": "address",
          "name": "_poolAddress",
          "type": "address"
        }
      ],
      "name": "getPoolPublicKey",
      "outputs": [
        {
          "internalType": "bytes",
          "name": "",
          "type": "bytes"
        }
      ],
      "stateMutability": "view",
      "type": "function"
    },
    {
      "inputs": [
        {
          "internalType": "uint256",
          "name": "_epoch",
          "type": "uint256"
        },
        {
          "internalType": "address",
          "name": "_stakingPool",
          "type": "address"
        }
      ],
      "name": "getPoolValidatorStakeAmount",
      "outputs": [
        {
          "internalType": "uint256",
          "name": "",
          "type": "uint256"
        }
      ],
      "stateMutability": "view",
      "type": "function"
    },
    {
      "inputs": [],
      "name": "getPools",
      "outputs": [
        {
          "internalType": "address[]",
          "name": "",
          "type": "address[]"
        }
      ],
      "stateMutability": "view",
      "type": "function"
    },
    {
      "inputs": [],
      "name": "getPoolsInactive",
      "outputs": [
        {
          "internalType": "address[]",
          "name": "",
          "type": "address[]"
        }
      ],
      "stateMutability": "view",
      "type": "function"
    },
    {
      "inputs": [],
      "name": "getPoolsLikelihood",
      "outputs": [
        {
          "internalType": "uint256[]",
          "name": "likelihoods",
          "type": "uint256[]"
        },
        {
          "internalType": "uint256",
          "name": "sum",
          "type": "uint256"
        }
      ],
      "stateMutability": "view",
      "type": "function"
    },
    {
      "inputs": [],
      "name": "getPoolsToBeElected",
      "outputs": [
        {
          "internalType": "address[]",
          "name": "",
          "type": "address[]"
        }
      ],
      "stateMutability": "view",
      "type": "function"
    },
    {
      "inputs": [],
      "name": "getPoolsToBeRemoved",
      "outputs": [
        {
          "internalType": "address[]",
          "name": "",
          "type": "address[]"
        }
      ],
      "stateMutability": "view",
      "type": "function"
    },
    {
      "inputs": [
        {
          "internalType": "address",
          "name": "pool",
          "type": "address"
        },
        {
          "internalType": "address",
          "name": "delegator",
          "type": "address"
        }
      ],
      "name": "getStakeSnapshotLastEpoch",
      "outputs": [
        {
          "internalType": "uint256",
          "name": "",
          "type": "uint256"
        }
      ],
      "stateMutability": "view",
      "type": "function"
    },
    {
      "inputs": [],
      "name": "incrementStakingEpoch",
      "outputs": [],
      "stateMutability": "nonpayable",
      "type": "function"
    },
    {
      "inputs": [
        {
          "internalType": "address",
          "name": "_contractOwner",
          "type": "address"
        },
        {
          "components": [
            {
              "internalType": "address",
              "name": "_validatorSetContract",
              "type": "address"
            },
            {
              "internalType": "address",
              "name": "_bonusScoreContract",
              "type": "address"
            },
            {
              "internalType": "address[]",
              "name": "_initialStakingAddresses",
              "type": "address[]"
            },
            {
              "internalType": "uint256",
              "name": "_delegatorMinStake",
              "type": "uint256"
            },
            {
              "internalType": "uint256",
              "name": "_candidateMinStake",
              "type": "uint256"
            },
            {
              "internalType": "uint256",
              "name": "_maxStake",
              "type": "uint256"
            },
            {
              "internalType": "uint256",
              "name": "_stakingFixedEpochDuration",
              "type": "uint256"
            },
            {
              "internalType": "uint256",
              "name": "_stakingTransitionTimeframeLength",
              "type": "uint256"
            },
            {
              "internalType": "uint256",
              "name": "_stakingWithdrawDisallowPeriod",
              "type": "uint256"
            }
          ],
          "internalType": "struct IStakingHbbft.StakingParams",
          "name": "stakingParams",
          "type": "tuple"
        },
        {
          "internalType": "bytes32[]",
          "name": "_publicKeys",
          "type": "bytes32[]"
        },
        {
          "internalType": "bytes16[]",
          "name": "_internetAddresses",
          "type": "bytes16[]"
        }
      ],
      "name": "initialize",
      "outputs": [],
      "stateMutability": "nonpayable",
      "type": "function"
    },
    {
      "inputs": [
        {
          "internalType": "address",
          "name": "_stakingAddress",
          "type": "address"
        }
      ],
      "name": "isPoolActive",
      "outputs": [
        {
          "internalType": "bool",
          "name": "",
          "type": "bool"
        }
      ],
      "stateMutability": "view",
      "type": "function"
    },
    {
      "inputs": [
        {
          "internalType": "address",
          "name": "_stakingAddress",
          "type": "address"
        }
      ],
      "name": "isPoolValid",
      "outputs": [
        {
          "internalType": "bool",
          "name": "",
          "type": "bool"
        }
      ],
      "stateMutability": "view",
      "type": "function"
    },
    {
      "inputs": [
        {
          "internalType": "bytes4",
          "name": "funcSelector",
          "type": "bytes4"
        },
        {
          "internalType": "uint256",
          "name": "newVal",
          "type": "uint256"
        }
      ],
      "name": "isWithinAllowedRange",
      "outputs": [
        {
          "internalType": "bool",
          "name": "",
          "type": "bool"
        }
      ],
      "stateMutability": "view",
      "type": "function"
    },
    {
      "inputs": [],
      "name": "maxStakeAmount",
      "outputs": [
        {
          "internalType": "uint256",
          "name": "",
          "type": "uint256"
        }
      ],
      "stateMutability": "view",
      "type": "function"
    },
    {
      "inputs": [
        {
          "internalType": "address",
          "name": "_poolStakingAddress",
          "type": "address"
        },
        {
          "internalType": "address",
          "name": "_staker",
          "type": "address"
        }
      ],
      "name": "maxWithdrawAllowed",
      "outputs": [
        {
          "internalType": "uint256",
          "name": "",
          "type": "uint256"
        }
      ],
      "stateMutability": "view",
      "type": "function"
    },
    {
      "inputs": [
        {
          "internalType": "address",
          "name": "_poolStakingAddress",
          "type": "address"
        },
        {
          "internalType": "address",
          "name": "_staker",
          "type": "address"
        }
      ],
      "name": "maxWithdrawOrderAllowed",
      "outputs": [
        {
          "internalType": "uint256",
          "name": "",
          "type": "uint256"
        }
      ],
      "stateMutability": "view",
      "type": "function"
    },
    {
      "inputs": [
        {
          "internalType": "address",
          "name": "_fromPoolStakingAddress",
          "type": "address"
        },
        {
          "internalType": "address",
          "name": "_toPoolStakingAddress",
          "type": "address"
        },
        {
          "internalType": "uint256",
          "name": "_amount",
          "type": "uint256"
        }
      ],
      "name": "moveStake",
      "outputs": [],
      "stateMutability": "nonpayable",
      "type": "function"
    },
    {
      "inputs": [
        {
          "internalType": "address",
          "name": "_stakingAddress",
          "type": "address"
        }
      ],
      "name": "notifyAvailability",
      "outputs": [],
      "stateMutability": "nonpayable",
      "type": "function"
    },
    {
      "inputs": [],
      "name": "notifyKeyGenFailed",
      "outputs": [],
      "stateMutability": "nonpayable",
      "type": "function"
    },
    {
      "inputs": [
        {
          "internalType": "uint256",
          "name": "detectedOfflineTime",
          "type": "uint256"
        }
      ],
      "name": "notifyNetworkOfftimeDetected",
      "outputs": [],
      "stateMutability": "nonpayable",
      "type": "function"
    },
    {
      "inputs": [
        {
          "internalType": "address",
          "name": "_poolStakingAddress",
          "type": "address"
        },
        {
          "internalType": "int256",
          "name": "_amount",
          "type": "int256"
        }
      ],
      "name": "orderWithdraw",
      "outputs": [],
      "stateMutability": "nonpayable",
      "type": "function"
    },
    {
      "inputs": [
        {
          "internalType": "address",
          "name": "",
          "type": "address"
        },
        {
          "internalType": "address",
          "name": "",
          "type": "address"
        }
      ],
      "name": "orderWithdrawEpoch",
      "outputs": [
        {
          "internalType": "uint256",
          "name": "",
          "type": "uint256"
        }
      ],
      "stateMutability": "view",
      "type": "function"
    },
    {
      "inputs": [
        {
          "internalType": "address",
          "name": "",
          "type": "address"
        },
        {
          "internalType": "address",
          "name": "",
          "type": "address"
        }
      ],
      "name": "orderedWithdrawAmount",
      "outputs": [
        {
          "internalType": "uint256",
          "name": "",
          "type": "uint256"
        }
      ],
      "stateMutability": "view",
      "type": "function"
    },
    {
      "inputs": [
        {
          "internalType": "address",
          "name": "",
          "type": "address"
        }
      ],
      "name": "orderedWithdrawAmountTotal",
      "outputs": [
        {
          "internalType": "uint256",
          "name": "",
          "type": "uint256"
        }
      ],
      "stateMutability": "view",
      "type": "function"
    },
    {
      "inputs": [],
      "name": "owner",
      "outputs": [
        {
          "internalType": "address",
          "name": "",
          "type": "address"
        }
      ],
      "stateMutability": "view",
      "type": "function"
    },
    {
      "inputs": [
        {
          "internalType": "address",
          "name": "_poolStakingAddress",
          "type": "address"
        }
      ],
      "name": "poolDelegators",
      "outputs": [
        {
          "internalType": "address[]",
          "name": "",
          "type": "address[]"
        }
      ],
      "stateMutability": "view",
      "type": "function"
    },
    {
      "inputs": [
        {
          "internalType": "address",
          "name": "_poolStakingAddress",
          "type": "address"
        }
      ],
      "name": "poolDelegatorsInactive",
      "outputs": [
        {
          "internalType": "address[]",
          "name": "",
          "type": "address[]"
        }
      ],
      "stateMutability": "view",
      "type": "function"
    },
    {
      "inputs": [
        {
          "internalType": "address",
          "name": "",
          "type": "address"
        }
      ],
      "name": "poolInfo",
      "outputs": [
        {
          "internalType": "bytes",
          "name": "publicKey",
          "type": "bytes"
        },
        {
          "internalType": "bytes16",
          "name": "internetAddress",
          "type": "bytes16"
        },
        {
          "internalType": "bytes2",
          "name": "port",
          "type": "bytes2"
        }
      ],
      "stateMutability": "view",
      "type": "function"
    },
    {
      "inputs": [
        {
          "internalType": "address",
          "name": "",
          "type": "address"
        }
      ],
      "name": "poolNodeOperator",
      "outputs": [
        {
          "internalType": "address",
          "name": "",
          "type": "address"
        }
      ],
      "stateMutability": "view",
      "type": "function"
    },
    {
      "inputs": [
        {
          "internalType": "address",
          "name": "",
          "type": "address"
        }
      ],
      "name": "poolNodeOperatorShare",
      "outputs": [
        {
          "internalType": "uint256",
          "name": "",
          "type": "uint256"
        }
      ],
      "stateMutability": "view",
      "type": "function"
    },
    {
      "inputs": [
        {
          "internalType": "address",
          "name": "",
          "type": "address"
        }
      ],
      "name": "poolToBeElectedIndex",
      "outputs": [
        {
          "internalType": "uint256",
          "name": "",
          "type": "uint256"
        }
      ],
      "stateMutability": "view",
      "type": "function"
    },
    {
      "inputs": [],
      "name": "recoverAbandonedStakes",
      "outputs": [],
      "stateMutability": "nonpayable",
      "type": "function"
    },
    {
      "inputs": [
        {
          "internalType": "bytes4",
          "name": "funcSelector",
          "type": "bytes4"
        }
      ],
      "name": "removeAllowedChangeableParameter",
      "outputs": [],
      "stateMutability": "nonpayable",
      "type": "function"
    },
    {
      "inputs": [],
      "name": "removeMyPool",
      "outputs": [],
      "stateMutability": "nonpayable",
      "type": "function"
    },
    {
      "inputs": [
        {
          "internalType": "address",
          "name": "_stakingAddress",
          "type": "address"
        }
      ],
      "name": "removePool",
      "outputs": [],
      "stateMutability": "nonpayable",
      "type": "function"
    },
    {
      "inputs": [],
      "name": "removePools",
      "outputs": [],
      "stateMutability": "nonpayable",
      "type": "function"
    },
    {
      "inputs": [],
      "name": "renounceOwnership",
      "outputs": [],
      "stateMutability": "nonpayable",
      "type": "function"
    },
    {
      "inputs": [
        {
          "internalType": "address",
          "name": "_poolStakingAddress",
          "type": "address"
        },
        {
          "internalType": "uint256",
          "name": "_validatorMinRewardPercent",
          "type": "uint256"
        }
      ],
      "name": "restake",
      "outputs": [],
      "stateMutability": "payable",
      "type": "function"
    },
    {
      "inputs": [
        {
          "internalType": "bytes4",
          "name": "setter",
          "type": "bytes4"
        },
        {
          "internalType": "bytes4",
          "name": "getter",
          "type": "bytes4"
        },
        {
          "internalType": "uint256[]",
          "name": "params",
          "type": "uint256[]"
        }
      ],
      "name": "setAllowedChangeableParameter",
      "outputs": [],
      "stateMutability": "nonpayable",
      "type": "function"
    },
    {
      "inputs": [
        {
          "internalType": "address",
          "name": "_bonusScoreContract",
          "type": "address"
        }
      ],
      "name": "setBonusScoreContract",
      "outputs": [],
      "stateMutability": "nonpayable",
      "type": "function"
    },
    {
      "inputs": [
        {
          "internalType": "uint256",
          "name": "_minStake",
          "type": "uint256"
        }
      ],
      "name": "setDelegatorMinStake",
      "outputs": [],
      "stateMutability": "nonpayable",
      "type": "function"
    },
    {
      "inputs": [
        {
          "internalType": "address",
          "name": "_operatorAddress",
          "type": "address"
        },
        {
          "internalType": "uint256",
          "name": "_operatorShare",
          "type": "uint256"
        }
      ],
      "name": "setNodeOperator",
      "outputs": [],
      "stateMutability": "nonpayable",
      "type": "function"
    },
    {
      "inputs": [
        {
          "internalType": "bytes",
          "name": "_publicKey",
          "type": "bytes"
        },
        {
          "internalType": "bytes16",
          "name": "_ip",
          "type": "bytes16"
        },
        {
          "internalType": "bytes2",
          "name": "_port",
          "type": "bytes2"
        }
      ],
      "name": "setPoolInfo",
      "outputs": [],
      "stateMutability": "nonpayable",
      "type": "function"
    },
    {
      "inputs": [
        {
          "internalType": "address",
          "name": "_poolStakingAddress",
          "type": "address"
        },
        {
          "internalType": "uint256",
          "name": "_amount",
          "type": "uint256"
        }
      ],
      "name": "setStakeAmountTotal",
      "outputs": [],
      "stateMutability": "nonpayable",
      "type": "function"
    },
    {
      "inputs": [
        {
          "internalType": "uint256",
          "name": "_stakingEpoch",
          "type": "uint256"
        }
      ],
      "name": "setStakingEpoch",
      "outputs": [],
      "stateMutability": "nonpayable",
      "type": "function"
    },
    {
      "inputs": [
        {
          "internalType": "uint256",
          "name": "_timestamp",
          "type": "uint256"
        }
      ],
      "name": "setStakingEpochStartTime",
      "outputs": [],
      "stateMutability": "nonpayable",
      "type": "function"
    },
    {
      "inputs": [
        {
          "internalType": "uint256",
          "name": "_value",
          "type": "uint256"
        }
      ],
      "name": "setStakingFixedEpochDuration",
      "outputs": [],
      "stateMutability": "nonpayable",
      "type": "function"
    },
    {
      "inputs": [
        {
          "internalType": "uint256",
          "name": "_value",
          "type": "uint256"
        }
      ],
      "name": "setStakingTransitionTimeframeLength",
      "outputs": [],
      "stateMutability": "nonpayable",
      "type": "function"
    },
    {
      "inputs": [
        {
          "internalType": "address",
          "name": "_validatorAddress",
          "type": "address"
        },
        {
          "internalType": "bytes16",
          "name": "_ip",
          "type": "bytes16"
        },
        {
          "internalType": "bytes2",
          "name": "_port",
          "type": "bytes2"
        }
      ],
      "name": "setValidatorInternetAddress",
      "outputs": [],
      "stateMutability": "nonpayable",
      "type": "function"
    },
    {
      "inputs": [
        {
          "internalType": "contract IValidatorSetHbbft",
          "name": "_validatorSetAddress",
          "type": "address"
        }
      ],
      "name": "setValidatorMockSetAddress",
      "outputs": [],
      "stateMutability": "nonpayable",
      "type": "function"
    },
    {
      "inputs": [
        {
          "internalType": "contract IValidatorSetHbbft",
          "name": "_validatorSetAddress",
          "type": "address"
        }
      ],
      "name": "setValidatorSetAddress",
      "outputs": [],
      "stateMutability": "nonpayable",
      "type": "function"
    },
    {
      "inputs": [
        {
          "internalType": "uint256",
          "name": "_epoch",
          "type": "uint256"
        },
        {
          "internalType": "address",
          "name": "_stakingPool",
          "type": "address"
        }
      ],
      "name": "snapshotPoolStakeAmounts",
      "outputs": [],
      "stateMutability": "nonpayable",
      "type": "function"
    },
    {
      "inputs": [
        {
          "internalType": "uint256",
          "name": "",
          "type": "uint256"
        },
        {
          "internalType": "address",
          "name": "",
          "type": "address"
        }
      ],
      "name": "snapshotPoolTotalStakeAmount",
      "outputs": [
        {
          "internalType": "uint256",
          "name": "",
          "type": "uint256"
        }
      ],
      "stateMutability": "view",
      "type": "function"
    },
    {
      "inputs": [
        {
          "internalType": "uint256",
          "name": "",
          "type": "uint256"
        },
        {
          "internalType": "address",
          "name": "",
          "type": "address"
        }
      ],
      "name": "snapshotPoolValidatorStakeAmount",
      "outputs": [
        {
          "internalType": "uint256",
          "name": "",
          "type": "uint256"
        }
      ],
      "stateMutability": "view",
      "type": "function"
    },
    {
      "inputs": [
        {
          "internalType": "address",
          "name": "_toPoolStakingAddress",
          "type": "address"
        }
      ],
      "name": "stake",
      "outputs": [],
      "stateMutability": "payable",
      "type": "function"
    },
    {
      "inputs": [
        {
          "internalType": "address",
          "name": "",
          "type": "address"
        },
        {
          "internalType": "address",
          "name": "",
          "type": "address"
        }
      ],
      "name": "stakeAmount",
      "outputs": [
        {
          "internalType": "uint256",
          "name": "",
          "type": "uint256"
        }
      ],
      "stateMutability": "view",
      "type": "function"
    },
    {
      "inputs": [
        {
          "internalType": "address",
          "name": "_poolStakingAddress",
          "type": "address"
        },
        {
          "internalType": "address",
          "name": "_staker",
          "type": "address"
        }
      ],
      "name": "stakeAmountByCurrentEpoch",
      "outputs": [
        {
          "internalType": "uint256",
          "name": "",
          "type": "uint256"
        }
      ],
      "stateMutability": "view",
      "type": "function"
    },
    {
      "inputs": [
        {
          "internalType": "address",
          "name": "",
          "type": "address"
        }
      ],
      "name": "stakeAmountTotal",
      "outputs": [
        {
          "internalType": "uint256",
          "name": "",
          "type": "uint256"
        }
      ],
      "stateMutability": "view",
      "type": "function"
    },
    {
      "inputs": [],
      "name": "stakingEpoch",
      "outputs": [
        {
          "internalType": "uint256",
          "name": "",
          "type": "uint256"
        }
      ],
      "stateMutability": "view",
      "type": "function"
    },
    {
      "inputs": [],
      "name": "stakingEpochStartBlock",
      "outputs": [
        {
          "internalType": "uint256",
          "name": "",
          "type": "uint256"
        }
      ],
      "stateMutability": "view",
      "type": "function"
    },
    {
      "inputs": [],
      "name": "stakingEpochStartTime",
      "outputs": [
        {
          "internalType": "uint256",
          "name": "",
          "type": "uint256"
        }
      ],
      "stateMutability": "view",
      "type": "function"
    },
    {
      "inputs": [],
      "name": "stakingFixedEpochDuration",
      "outputs": [
        {
          "internalType": "uint256",
          "name": "",
          "type": "uint256"
        }
      ],
      "stateMutability": "view",
      "type": "function"
    },
    {
      "inputs": [],
      "name": "stakingFixedEpochEndTime",
      "outputs": [
        {
          "internalType": "uint256",
          "name": "",
          "type": "uint256"
        }
      ],
      "stateMutability": "view",
      "type": "function"
    },
    {
      "inputs": [],
      "name": "stakingTransitionTimeframeLength",
      "outputs": [
        {
          "internalType": "uint256",
          "name": "",
          "type": "uint256"
        }
      ],
      "stateMutability": "view",
      "type": "function"
    },
    {
      "inputs": [],
      "name": "stakingWithdrawDisallowPeriod",
      "outputs": [
        {
          "internalType": "uint256",
          "name": "",
          "type": "uint256"
        }
      ],
      "stateMutability": "view",
      "type": "function"
    },
    {
      "inputs": [],
      "name": "startTimeOfNextPhaseTransition",
      "outputs": [
        {
          "internalType": "uint256",
          "name": "",
          "type": "uint256"
        }
      ],
      "stateMutability": "view",
      "type": "function"
    },
    {
      "inputs": [],
      "name": "totalStakedAmount",
      "outputs": [
        {
          "internalType": "uint256",
          "name": "",
          "type": "uint256"
        }
      ],
      "stateMutability": "view",
      "type": "function"
    },
    {
      "inputs": [
        {
          "internalType": "address",
          "name": "newOwner",
          "type": "address"
        }
      ],
      "name": "transferOwnership",
      "outputs": [],
      "stateMutability": "nonpayable",
      "type": "function"
    },
    {
      "inputs": [
        {
          "internalType": "address",
          "name": "mining",
          "type": "address"
        },
        {
          "internalType": "uint256",
          "name": "validatorScore",
          "type": "uint256"
        }
      ],
      "name": "updatePoolLikelihood",
      "outputs": [],
      "stateMutability": "nonpayable",
      "type": "function"
    },
    {
      "inputs": [],
      "name": "validatorSetContract",
      "outputs": [
        {
          "internalType": "contract IValidatorSetHbbft",
          "name": "",
          "type": "address"
        }
      ],
      "stateMutability": "view",
      "type": "function"
    },
    {
      "inputs": [
        {
          "internalType": "address",
          "name": "_fromPoolStakingAddress",
          "type": "address"
        },
        {
          "internalType": "uint256",
          "name": "_amount",
          "type": "uint256"
        }
      ],
      "name": "withdraw",
      "outputs": [],
      "stateMutability": "nonpayable",
      "type": "function"
    },
    {
      "stateMutability": "payable",
      "type": "receive"
    }
  ],
  "bytecode": "0x6080604052348015600f57600080fd5b506016601a565b60ca565b7ff0c57e16840df040f15088dc2f81fe391c3923bec73e23a9662efc9c229c6a00805468010000000000000000900460ff161560695760405163f92ee8a960e01b815260040160405180910390fd5b80546001600160401b039081161460c75780546001600160401b0319166001600160401b0390811782556040519081527fc7f505b2f371ae2175ee4913f4499e1f2633a7b5936321eed1cdaeb6115181d29060200160405180910390a15b50565b6162af806100d96000396000f3fe6080604052600436106105f05760003560e01c806384725c761161030c578063c6912cc01161019a578063e9ab0300116100ec578063f2fde38b11610095578063f6c578611161006f578063f6c5786114611228578063fa4aaf4714611248578063ffada8621461127557600080fd5b8063f2fde38b146111d4578063f3fef3a3146111f4578063f49425011461121457600080fd5b8063ee435f55116100c6578063ee435f5514611195578063f0786096146111aa578063f2de6699146111c057600080fd5b8063e9ab03001461110b578063eb3efa1614611143578063edd7db751461118057600080fd5b8063da7a9b6a1161014e578063dfc8bf4e11610128578063dfc8bf4e14611077578063e2a43cd914611097578063e5b1d593146110ce57600080fd5b8063da7a9b6a1461101f578063dadee88a14611035578063df6f55f51461106257600080fd5b8063cfef14411161017f578063cfef144114610fca578063d0ac76f614610fea578063d290c21d1461100a57600080fd5b8063c6912cc014610f95578063c6af311a14610faa57600080fd5b8063a42059671161025e578063b0bd5e9e11610207578063b710c15d116101e1578063b710c15d14610f28578063ba08d23714610f55578063bf348f8614610f7557600080fd5b8063b0bd5e9e14610ee8578063b163cc381461068a578063b61ed63a14610f0857600080fd5b8063a711e6a111610238578063a711e6a114610e9d578063adddc0cf14610ebd578063ae1aaf8014610ed257600080fd5b8063a420596714610e18578063a5d54f6514610e50578063a697ecff14610e6557600080fd5b8063957950a7116102c05780639e6c29591161029a5780639e6c295914610dc25780639e72c63514610dd85780639ea8082b14610df857600080fd5b8063957950a714610d5a5780639a7b5f1114610d7d5780639b03d74414610dac57600080fd5b80638da5cb5b116102f15780638da5cb5b14610cea578063921e274b14610d27578063950a651314610d3a57600080fd5b806384725c7614610c9d578063862be28714610cca57600080fd5b80634346845f11610489578063673a2a1f116103db578063750dd2a1116103845780637b15b94c1161035e5780637b15b94c14610c3d5780637d8149db14610c5d5780638247a23914610c7d57600080fd5b8063750dd2a114610bb7578063794c0c6814610c075780637b0a0f9b14610c1d57600080fd5b8063715018a6116103b5578063715018a614610b4c578063728345db14610b6157806373c2180314610b9757600080fd5b8063673a2a1f14610af45780636bda157714610b165780637069e74614610b3657600080fd5b80635b4eafe01161043d5780635fef7643116104175780635fef764314610a88578063611d760c14610a9e578063615f2b7114610abe57600080fd5b80635b4eafe014610a0f5780635ca2b65014610a525780635d80ca3214610a7257600080fd5b80634f9a8d8f1161046e5780634f9a8d8f146109b65780635267e1d6146109cc578063567e98f9146109f957600080fd5b80634346845f146109695780634e9b426d1461098957600080fd5b806322704bdd116105425780633219d600116104f65780633b7d0946116104d05780633b7d0946146109165780633f3afe01146109365780634160d3861461094957600080fd5b80633219d600146108ab57806337154263146108eb578063379b046a1461090057600080fd5b8063251441a911610527578063251441a91461085857806326476204146108785780632bafde8d1461088b57600080fd5b806322704bdd1461082357806322e3d9861461084357600080fd5b8063129bd128116105a4578063159e0a951161057e578063159e0a95146107715780631fb31e431461079157806320c07cd81461080d57600080fd5b8063129bd128146107045780631345b8a5146107245780631555371c1461075c57600080fd5b80630ac6e291116105d55780630ac6e2911461068c5780630b770cdf146106ac57806311f86c99146106e457600080fd5b8063028b8bdb1461061357806303a810651461063c57600080fd5b3661060e57604051631574f9f360e01b815260040160405180910390fd5b600080fd5b34801561061f57600080fd5b5061062960145481565b6040519081526020015b60405180910390f35b34801561064857600080fd5b5061068a610657366004615782565b6001600160a01b039283166000908152602260209081526040808320949095168252928352838120918152915290812055565b005b34801561069857600080fd5b5061068a6106a736600461580f565b611295565b3480156106b857600080fd5b506024546106cc906001600160a01b031681565b6040516001600160a01b039091168152602001610633565b3480156106f057600080fd5b506106296106ff366004615782565b61182c565b34801561071057600080fd5b5061062961071f3660046158bf565b611862565b34801561073057600080fd5b5061062961073f3660046158f8565b602160209081526000928352604080842090915290825290205481565b34801561076857600080fd5b5061068a61188f565b34801561077d57600080fd5b5061068a61078c36600461591d565b61191a565b34801561079d57600080fd5b506107db6107ac36600461591d565b6001600160a01b03166000908152601e6020526040902060010154608081901b91600160801b90910460f01b90565b604080516fffffffffffffffffffffffffffffffff1990931683526001600160f01b0319909116602083015201610633565b34801561081957600080fd5b506106296107d081565b34801561082f57600080fd5b5061068a61083e36600461593a565b61199d565b34801561084f57600080fd5b506106296119da565b34801561086457600080fd5b5061068a610873366004615782565b611a21565b61068a61088636600461591d565b611adf565b34801561089757600080fd5b5061068a6108a636600461593a565b611b62565b3480156108b757600080fd5b506108db6108c636600461591d565b601f6020526000908152604090205460ff1681565b6040519015158152602001610633565b3480156108f757600080fd5b5061068a611be3565b34801561090c57600080fd5b50610629601a5481565b34801561092257600080fd5b5061068a61093136600461591d565b611fde565b61068a610944366004615953565b61202d565b34801561095557600080fd5b5061068a610964366004615953565b612363565b34801561097557600080fd5b5061068a61098436600461599c565b612402565b34801561099557600080fd5b506109a96109a436600461591d565b612508565b6040516106339190615a4d565b3480156109c257600080fd5b5061062960165481565b3480156109d857600080fd5b506106296109e736600461591d565b601b6020526000908152604090205481565b348015610a0557600080fd5b50610629601c5481565b348015610a1b57600080fd5b50610629610a2a3660046158f8565b60009182526021602090815260408084206001600160a01b0393909316845291905290205490565b348015610a5e57600080fd5b5061068a610a6d36600461593a565b601555565b348015610a7e57600080fd5b50610629600e5481565b348015610a9457600080fd5b50610629600c5481565b348015610aaa57600080fd5b5061068a610ab936600461591d565b6125b4565b348015610aca57600080fd5b506106cc610ad936600461591d565b6025602052600090815260409020546001600160a01b031681565b348015610b0057600080fd5b50610b096125bf565b6040516106339190615a60565b348015610b2257600080fd5b50610629610b313660046158bf565b6125d0565b348015610b4257600080fd5b5061062960195481565b348015610b5857600080fd5b5061068a612750565b348015610b6d57600080fd5b50610629610b7c3660046158f8565b60208080526000928352604080842090915290825290205481565b348015610ba357600080fd5b50610b09610bb236600461591d565b612764565b348015610bc357600080fd5b50610629610bd23660046158bf565b6001600160a01b039182166000908152600b602090815260408083209390941682529182528281206015548252909152205490565b348015610c1357600080fd5b5061062960155481565b348015610c2957600080fd5b5061068a610c38366004615ae6565b612788565b348015610c4957600080fd5b5061068a610c5836600461591d565b61281e565b348015610c6957600080fd5b5061068a610c78366004615b2b565b61289e565b348015610c8957600080fd5b5061068a610c9836600461593a565b612920565b348015610ca957600080fd5b50610629610cb836600461591d565b60266020526000908152604090205481565b348015610cd657600080fd5b5061068a610ce5366004615b88565b61296c565b348015610cf657600080fd5b507f9016d09d72d40fdae2fd8ceac6b6234c7706214fd39c1cd1e609a0528c199300546001600160a01b03166106cc565b61068a610d35366004615bed565b6129cf565b348015610d4657600080fd5b50610629610d553660046158bf565b612b18565b348015610d6657600080fd5b50610d6f612c60565b604051610633929190615cab565b348015610d8957600080fd5b50610d9d610d9836600461591d565b612cc3565b60405161063393929190615ccd565b348015610db857600080fd5b5061062960185481565b348015610dce57600080fd5b5061062961271081565b348015610de457600080fd5b5061068a610df336600461593a565b612d77565b348015610e0457600080fd5b50610b09610e1336600461591d565b612ddb565b348015610e2457600080fd5b50610629610e333660046158bf565b601160209081526000928352604080842090915290825290205481565b348015610e5c57600080fd5b50610b09612dff565b348015610e7157600080fd5b50610629610e803660046158bf565b601360209081526000928352604080842090915290825290205481565b348015610ea957600080fd5b506108db610eb836600461591d565b612e61565b348015610ec957600080fd5b5061068a612e6d565b348015610ede57600080fd5b5061062960175481565b348015610ef457600080fd5b5061068a610f0336600461593a565b612ecb565b348015610f1457600080fd5b5061068a610f23366004615953565b612efa565b348015610f3457600080fd5b50610f48610f43366004615d2a565b613261565b6040516106339190615ddb565b348015610f6157600080fd5b506108db610f70366004615e09565b613311565b348015610f8157600080fd5b50610f48610f90366004615b2b565b6134ec565b348015610fa157600080fd5b50610629613591565b348015610fb657600080fd5b5061068a610fc5366004615953565b6135b0565b348015610fd657600080fd5b5061068a610fe536600461591d565b61365a565b348015610ff657600080fd5b5061068a6110053660046158f8565b61382d565b34801561101657600080fd5b50610b0961396c565b34801561102b57600080fd5b50610629600d5481565b34801561104157600080fd5b5061062961105036600461591d565b60106020526000908152604090205481565b34801561106e57600080fd5b50610b09613978565b34801561108357600080fd5b50601d546106cc906001600160a01b031681565b3480156110a357600080fd5b5061068a6110b2366004615953565b6001600160a01b039091166000908152601b6020526040902055565b3480156110da57600080fd5b5061068a6110e936600461591d565b602880546001600160a01b0319166001600160a01b0392909216919091179055565b34801561111757600080fd5b506106296111263660046158bf565b600f60209081526000928352604080842090915290825290205481565b34801561114f57600080fd5b5061068a61115e36600461591d565b601d80546001600160a01b0319166001600160a01b0392909216919091179055565b34801561118c57600080fd5b5061068a613984565b3480156111a157600080fd5b5061068a613ac4565b3480156111b657600080fd5b50610629610bb881565b3480156111cc57600080fd5b506064610629565b3480156111e057600080fd5b5061068a6111ef36600461591d565b613b23565b34801561120057600080fd5b5061068a61120f366004615953565b613b5e565b34801561122057600080fd5b5060016108db565b34801561123457600080fd5b506108db61124336600461591d565b613c17565b34801561125457600080fd5b5061062961126336600461591d565b60126020526000908152604090205481565b34801561128157600080fd5b5061068a61129036600461591d565b613c34565b7ff0c57e16840df040f15088dc2f81fe391c3923bec73e23a9662efc9c229c6a00805468010000000000000000810460ff16159067ffffffffffffffff166000811580156112e05750825b905060008267ffffffffffffffff1660011480156112fd5750303b155b90508115801561130b575080155b156113295760405163f92ee8a960e01b815260040160405180910390fd5b845467ffffffffffffffff19166001178555831561135d57845468ff00000000000000001916680100000000000000001785555b6001600160a01b038b166113845760405163d92e233d60e01b815260040160405180910390fd5b61138d8a613c3d565b8761139b60408c018c615e25565b6113a791506002615e85565b146113c45760405162d6988760e81b815260040160405180910390fd5b856113d260408c018c615e25565b9050146113f2576040516320041afd60e01b815260040160405180910390fd5b6113fb8b613da0565b611403613db1565b61141060208b018b61591d565b601d80546001600160a01b0319166001600160a01b039290921691909117905561144060408b0160208c0161591d565b602480546001600160a01b0319166001600160a01b039290921691909117905536600061147060408d018d615e25565b9150915060005b8181101561169357600083838381811061149357611493615e9c565b90506020020160208101906114a8919061591d565b6001600160a01b0316036114cf5760405163d92e233d60e01b815260040160405180910390fd5b6115008383838181106114e4576114e4615e9c565b90506020020160208101906114f9919061591d565b6000613dc1565b61152f83838381811061151557611515615e9c565b905060200201602081019061152a919061591d565b613e20565b8b8b61153c836002615e85565b81811061154b5761154b615e9c565b905060200201358c8c8360026115619190615e85565b61156c906001615eb2565b81811061157b5761157b615e9c565b9050602002013560405160200161159c929190918252602082015260400190565b604051602081830303815290604052601e60008585858181106115c1576115c1615e9c565b90506020020160208101906115d6919061591d565b6001600160a01b031681526020810191909152604001600020906115fa9082615f4f565b5089898281811061160d5761160d615e9c565b9050602002016020810190611622919061600f565b601e600085858581811061163857611638615e9c565b905060200201602081019061164d919061591d565b6001600160a01b031681526020810191909152604001600020600190810180546fffffffffffffffffffffffffffffffff191660809390931c9290921790915501611477565b5060408051600580825260c082019092526000916020820160a0803683370190505090506802b5e3af16b1880000816000815181106116d4576116d4615e9c565b60200260200101818152505068056bc75e2d63100000816001815181106116fd576116fd615e9c565b602002602001018181525050680821ab0d44149800008160028151811061172657611726615e9c565b602002602001018181525050680ad78ebc5ac62000008160038151811061174f5761174f615e9c565b602002602001018181525050680d8d726b7177a800008160048151811061177857611778615e9c565b602090810291909101015261179c632bafde8d60e01b636d3d4db560e11b83613e35565b50505060608a0135600d5560808a0135600c5560a08a0135600e5560c08a01356016556101008a01356014554260185560e08a0135601755831561181f57845468ff000000000000000019168555604051600181527fc7f505b2f371ae2175ee4913f4499e1f2633a7b5936321eed1cdaeb6115181d29060200160405180910390a15b5050505050505050505050565b6001600160a01b0380841660009081526022602090815260408083209386168352928152828220848352905220545b9392505050565b6001600160a01b038083166000908152602360209081526040808320938516835292905220545b92915050565b601d546001600160a01b031633148015906118b557506028546001600160a01b03163314155b156118d2576040516282b42960e81b815260040160405180910390fd5b60006118de6004613eea565b905060005b81518110156119165761190e82828151811061190157611901615e9c565b6020026020010151613ef7565b6001016118e3565b5050565b611922613f3d565b6001600160a01b0381166119495760405163d92e233d60e01b815260040160405180910390fd5b602480546001600160a01b0319166001600160a01b0383169081179091556040519081527fd4244d1f8acb4860e17399636c6b7875c75656aafb5cb3d0163d7305eace71729060200160405180910390a150565b6119a5613f3d565b600a811115806119b757506016548110155b156119d557604051638826666f60e01b815260040160405180910390fd5b601755565b60185460165460009190156119f05760016119f3565b60005b60ff16601a5460165483611a079190615eb2565b611a119190615eb2565b611a1b919061602a565b91505090565b3a600003611a4257604051630e661aed60e41b815260040160405180910390fd5b816001600160a01b0316836001600160a01b031603611a7457604051630a5eddd560e01b815260040160405180910390fd5b33611a80848284613f98565b611a8b838284614246565b601554604080516001600160a01b0387811682526020820186905280851692908716917f4480d8e4b1e9095b94bf513961d26fe1d32386ebdd103d18fe8738cf4b2223ff910160405180910390a450505050565b3a600003611b0057604051630e661aed60e41b815260040160405180910390fd5b3334611b0d838383614246565b601554826001600160a01b0316846001600160a01b03167f2273de02cb1f69ba6259d22c4bc22c60e4c94c193265ef6afee324a04a9b6d2284604051611b5591815260200190565b60405180910390a4505050565b611b6a613f3d565b80611b816000356001600160e01b03191682613311565b611ba6576040516373330d9b60e01b8152600481018290526024015b60405180910390fd5b600d8290556040518281527ffee02ce7aa40f9c49eaabd26d404fa88714b97cb209af8954cfd5eeb8213b93e906020015b60405180910390a15050565b3a600003611c0457604051630e661aed60e41b815260040160405180910390fd5b600080611c116002613eea565b90508051600003611c3557604051631c369b4560e21b815260040160405180910390fd5b60005b8151811015611e1d576000828281518110611c5557611c55615e9c565b60200260200101519050611c6881614597565b80611cde5750601d54604051639d6fc1d160e01b81526001600160a01b03838116600483015290911690639d6fc1d190602401602060405180830381865afa158015611cb8573d6000803e3d6000fd5b505050506040513d601f19601f82011682018060405250810190611cdc919061603d565b155b15611ce95750611e15565b611cf46002826145d5565b506001600160a01b0381166000908152601f60209081526040808320805460ff19166001179055601b9091528120805490829055601c805491928392611d3b90849061602a565b9091555060009050611d4c83612ddb565b905060005b8151811015611db7576000828281518110611d6e57611d6e615e9c565b6020908102919091018101516001600160a01b0380881660009081526013845260408082209284168252919093528220919091559050611dae85826145ea565b50600101611d51565b50611dc28287615eb2565b9550826001600160a01b0316336001600160a01b03167f8e6a4ccd7dccdca9ac211d00fcc3fa7c71be75ff73d3a35f63ea023173cc100484604051611e0991815260200190565b60405180910390a35050505b600101611c38565b5081600003611e3f57604051631c369b4560e21b815260040160405180910390fd5b6000611e4c60028461605f565b90506000611e5a828561602a565b90506000601d60009054906101000a90046001600160a01b03166001600160a01b03166356b54bae6040518163ffffffff1660e01b8152600401602060405180830381865afa158015611eb1573d6000803e3d6000fd5b505050506040513d601f19601f82011682018060405250810190611ed59190616081565b90506000816001600160a01b031663732524946040518163ffffffff1660e01b8152600401602060405180830381865afa158015611f17573d6000803e3d6000fd5b505050506040513d601f19601f82011682018060405250810190611f3b9190616081565b9050816001600160a01b031663af182535846040518263ffffffff1660e01b81526004016000604051808303818588803b158015611f7857600080fd5b505af1158015611f8c573d6000803e3d6000fd5b5050505050611f9b818561464c565b604080518481526020810186905233917f1c113e6bae9530fea40323e612aeb0cb7817dedb5a0b0f6bdfbff97d55920dc7910160405180910390a2505050505050565b601d546001600160a01b0316331480159061200457506028546001600160a01b03163314155b15612021576040516282b42960e81b815260040160405180910390fd5b61202a81613ef7565b50565b601d60009054906101000a90046001600160a01b03166001600160a01b03166356b54bae6040518163ffffffff1660e01b8152600401602060405180830381865afa158015612080573d6000803e3d6000fd5b505050506040513d601f19601f820116820180604052508101906120a49190616081565b6001600160a01b0316336001600160a01b0316146120d4576040516282b42960e81b815260040160405180910390fd5b3415611916576015546000908152602080805260408083206001600160a01b0386168452909152812054349161210b8584866146f3565b9050600061211886612ddb565b905060005b81518110156122675760008461214f6015548a86868151811061214257612142615e9c565b6020026020010151614812565b856040015161215e9190615e85565b612168919061605f565b905080601360008a6001600160a01b03166001600160a01b0316815260200190815260200160002060008585815181106121a4576121a4615e9c565b60200260200101516001600160a01b03166001600160a01b0316815260200190815260200160002060008282546121db9190615eb2565b90915550506001600160a01b0388166000908152600b60205260408120845183929086908690811061220f5761220f615e9c565b60200260200101516001600160a01b03166001600160a01b031681526020019081526020016000206000601554815260200190815260200160002060008282546122599190615eb2565b90915550505060010161211d565b50602082015115612280576122808683602001516148b1565b81516001600160a01b0387166000908152601360209081526040808320909152812080549091906122b2908490615eb2565b90915550506001600160a01b0386166000908152601b6020526040812080548692906122df908490615eb2565b9250508190555083601c60008282546122f89190615eb2565b90915550612307905086614978565b60155482516001600160a01b038816907f72093068b9f28053bd924ac15d7710b987f9b6ef1e0f89f47d8b4bd7cac776dc90612343818961602a565b6040805192835260208301919091520160405180910390a3505050505050565b601d546040516253517560e01b81523360048201526000916001600160a01b0316906253517590602401602060405180830381865afa1580156123aa573d6000803e3d6000fd5b505050506040513d601f19601f820116820180604052508101906123ce9190616081565b6001600160a01b0316036123f757604051632670461960e11b8152336004820152602401611b9d565b611916338383614a64565b61240a613f3d565b6000612414614b9c565b90506040518060400160405280857bffffffffffffffffffffffffffffffffffffffffffffffffffffffff1916815260200184848080602002602001604051908101604052809392919081815260200183836020028082843760009201829052509390945250506001600160e01b031988168152602084815260409091208351815463ffffffff191660e09190911c1781558382015180519193506124c09260018501929101906156f3565b509050507f3665bf9cd0ba4ddceeec259e21dcf8a4510f3b1130bd42e950828e69d85408ba858585856040516124f9949392919061609e565b60405180910390a15050505050565b6001600160a01b0381166000908152601e6020526040902080546060919061252f90615ec5565b80601f016020809104026020016040519081016040528092919081815260200182805461255b90615ec5565b80156125a85780601f1061257d576101008083540402835291602001916125a8565b820191906000526020600020905b81548152906001019060200180831161258b57829003601f168201915b50505050509050919050565b61202a816001613dc1565b60606125cb6000613eea565b905090565b601d546040516253517560e01b81526001600160a01b03848116600483015260009283929116906253517590602401602060405180830381865afa15801561261c573d6000803e3d6000fd5b505050506040513d601f19601f820116820180604052508101906126409190616081565b90506001600160a01b0384166000908152601f602052604090205460ff161561266d576000915050611889565b6001600160a01b03848116600090815260136020908152604080832087851684529091529081902054601d54915163a0d16cad60e01b815284841660048201529092919091169063a0d16cad90602401602060405180830381865afa1580156126da573d6000803e3d6000fd5b505050506040513d601f19601f820116820180604052508101906126fe919061603d565b61270b5791506118899050565b6001600160a01b038581166000908152600b60209081526040808320938816835292815282822060155483529052205480821115612747578091505b50949350505050565b612758613f3d565b6127626000614bfe565b565b6001600160a01b0381166000908152600a6020526040902060609061188990613eea565b601d546001600160a01b031633148015906127ae57506028546001600160a01b03163314155b156127cb576040516282b42960e81b815260040160405180910390fd5b6001600160a01b039092166000908152601e60205260409020600101805460f09390931c600160801b0271ffffffffffffffffffffffffffffffffffff1990931660809290921c91909117919091179055565b601d546001600160a01b0316331480159061284457506028546001600160a01b03163314155b15612861576040516282b42960e81b815260040160405180910390fd5b600c546001600160a01b03821660009081526013602090815260408083209091529020541061202a57612895816001613dc1565b61202a81614978565b6128a6613f3d565b60006128b0614b9c565b6001600160e01b031983166000908152602082905260408120805463ffffffff191681559192506128e4600183018261573e565b50506040516001600160e01b0319831681527fed27cb02231782dadf13473a7828cb980c4d685791b7a3136dde00f8c3594cb690602001611bd7565b601d546001600160a01b0316331480159061294657506028546001600160a01b03163314155b15612963576040516282b42960e81b815260040160405180910390fd5b60185543601955565b336000908152601e6020526040902061298684868361610b565b50336000908152601e60205260409020600101805460f09290921c600160801b0271ffffffffffffffffffffffffffffffffffff1990921660809390931c929092171790555050565b3a6000036129f057604051630e661aed60e41b815260040160405180910390fd5b601d54604051630526083960e11b81526001600160a01b0388811660048301523360248301819052923492911690630a4c107290604401600060405180830381600087803b158015612a4157600080fd5b505af1158015612a55573d6000803e3d6000fd5b505050506001600160a01b0382166000908152601e60205260409020612a7c85878361610b565b506001600160a01b0382166000908152601e6020526040902060010180546fffffffffffffffffffffffffffffffff1916608085901c179055612ac0828888614a64565b612acb828383614246565b6015546040518281526001600160a01b0384169081907f2273de02cb1f69ba6259d22c4bc22c60e4c94c193265ef6afee324a04a9b6d229060200160405180910390a45050505050505050565b601d546040516253517560e01b81526001600160a01b03848116600483015260009283929116906253517590602401602060405180830381865afa158015612b64573d6000803e3d6000fd5b505050506040513d601f19601f82011682018060405250810190612b889190616081565b9050601d5460405163a0d16cad60e01b81526001600160a01b0383811660048301529091169063a0d16cad90602401602060405180830381865afa158015612bd4573d6000803e3d6000fd5b505050506040513d601f19601f82011682018060405250810190612bf8919061603d565b612c06576000915050611889565b6001600160a01b038481166000818152600b602090815260408083209488168084529482528083206015548452825280832054938352601382528083209483529390529190912054612c58919061602a565b949350505050565b60606000600760085481805480602002602001604051908101604052809291908181526020018280548015612cb457602002820191906000526020600020905b815481526020019060010190808311612ca0575b50505050509150915091509091565b601e60205260009081526040902080548190612cde90615ec5565b80601f0160208091040260200160405190810160405280929190818152602001828054612d0a90615ec5565b8015612d575780601f10612d2c57610100808354040283529160200191612d57565b820191906000526020600020905b815481529060010190602001808311612d3a57829003601f168201915b50505060019093015491925050608081901b90600160801b900460f01b83565b601d546001600160a01b03163314801590612d9d57506028546001600160a01b03163314155b15612dba576040516282b42960e81b815260040160405180910390fd5b60175481601a54612dcb9190615eb2565b612dd59190615eb2565b601a5550565b6001600160a01b038116600090815260096020526040902060609061188990613eea565b60606006805480602002602001604051908101604052809291908181526020018280548015612e5757602002820191906000526020600020905b81546001600160a01b03168152600190910190602001808311612e39575b5050505050905090565b60006118898183614c6f565b601d546001600160a01b03163314801590612e9357506028546001600160a01b03163314155b15612eb0576040516282b42960e81b815260040160405180910390fd5b601754601a6000828254612ec49190615eb2565b9091555050565b612ed3613f3d565b6017548111612ef55760405163160ac89160e31b815260040160405180910390fd5b601655565b3a600003612f1b57604051630e661aed60e41b815260040160405180910390fd5b6001600160a01b038216612f425760405163d92e233d60e01b815260040160405180910390fd5b80600003612f6357604051633ca0029d60e01b815260040160405180910390fd5b6001600160a01b0382166000818152600f602090815260408083203380855290835281842054858552601084528285205460138552838620838752855283862054968652601b909452918420549094919386131561306d57856000612fc88988612b18565b905080821115612ff557604051632de4882160e01b81526004810182905260248101839052604401611b9d565b612fff8287615eb2565b955061300b8286615eb2565b9450613017828561602a565b9350613023828461602a565b925081601c6000828254613037919061602a565b90915550506015546001600160a01b03808b166000908152601160209081526040808320938c1683529290522055506130c39050565b6000613078876161cc565b9050613084818661602a565b9450613090818561602a565b935061309c8184615eb2565b92506130a88183615eb2565b915080601c60008282546130bc9190615eb2565b9091555050505b6001600160a01b038088166000818152600f60209081526040808320948a1680845294825280832089905583835260108252808320889055601382528083208584528252808320879055838352601b909152902083905590036131925781158015906131305750600c5482105b1561316857604051636fe84f3d60e01b81526001600160a01b0380891660048301528616602482015260448101879052606401611b9d565b600086131561318757816000036131825761318287613e20565b6131ff565b613182876001613dc1565b81158015906131a25750600d5482105b156131da57604051636fe84f3d60e01b81526001600160a01b0380891660048301528616602482015260448101879052606401611b9d565b60008613156131f557816000036131825761318287866145ea565b6131ff8786614c91565b61320887614978565b601554856001600160a01b0316886001600160a01b03167f80d5c777e5f7ac6ee89723223803ca5c0ec0204f89e99c1b0cde973c66a645948960405161325091815260200190565b60405180910390a450505050505050565b60408051808201909152600081526060602082015261327e614b9c565b82516020808501919091206001600160e01b0319908116600090815292825260409283902083518085018552815460e01b909216825260018101805485518186028101860190965280865292949193858101939083018282801561330157602002820191906000526020600020905b8154815260200190600101908083116132ed575b5050505050815250509050919050565b60008061331c614b9c565b6001600160e01b031980861660009081526020838152604080832081518083018352815460e01b9095168552600181018054835181860281018601909452808452969750939590938584019390919083018282801561339a57602002820191906000526020600020905b815481526020019060010190808311613386575b50505050508152505090508060200151516000036133bd57600092505050611889565b602081015181516000906133d090614cbe565b905060005b82518110156134de57818382815181106133f1576133f1615e9c565b6020026020010151036134d6576000808211613427578360008151811061341a5761341a615e9c565b602002602001015161344c565b8361343360018461602a565b8151811061344357613443615e9c565b60200260200101515b905060006001855161345e919061602a565b8310613490578460018651613473919061602a565b8151811061348357613483615e9c565b60200260200101516134b5565b8461349c846001615eb2565b815181106134ac576134ac615e9c565b60200260200101515b90508189141580156134c75750808914155b15975050505050505050611889565b6001016133d5565b506000979650505050505050565b604080518082019091526000815260606020820152613509614b9c565b6001600160e01b03198084166000908152602092835260409081902081518083018352815460e01b909316835260018101805483518187028101870190945280845293949193858301939283018282801561330157602002820191906000526020600020908154815260200190600101908083116132ed575050505050815250509050919050565b60006017546016546018546135a69190615eb2565b6125cb919061602a565b6024546001600160a01b031633146135da576040516282b42960e81b815260040160405180910390fd5b601d546040516307b9342f60e21b81526001600160a01b0384811660048301526000921690631ee4d0bc90602401602060405180830381865afa158015613625573d6000803e3d6000fd5b505050506040513d601f19601f820116820180604052508101906136499190616081565b90506136558183614d95565b505050565b3a60000361367b57604051630e661aed60e41b815260040160405180910390fd5b613683614e3f565b6001600160a01b038116600090815260116020908152604080832033808552925290912054601554116136dc57604051630b06352b60e31b81526001600160a01b03808416600483015282166024820152604401611b9d565b6001600160a01b038083166000908152600f602090815260408083209385168352929052908120549081900361372557604051633ca0029d60e01b815260040160405180910390fd5b6001600160a01b038084166000818152600f6020908152604080832094871683529381528382208290559181526010909152205461376490829061602a565b6001600160a01b03808516600090815260106020908152604080832094909455601381528382209286168252919091529081205490036137a8576137a88383614e89565b6137b2828261464c565b601554826001600160a01b0316846001600160a01b03167ff380b0bc887e00f5b50d3c9d4eaaf5c9a0afd97b956316b995159384c4ede9b3846040516137fa91815260200190565b60405180910390a4505061202a60017f9b779b17422d0df92223018b32b4d1fa46e071723d6817e2486d003becc55f0055565b601d60009054906101000a90046001600160a01b03166001600160a01b03166356b54bae6040518163ffffffff1660e01b8152600401602060405180830381865afa158015613880573d6000803e3d6000fd5b505050506040513d601f19601f820116820180604052508101906138a49190616081565b6001600160a01b0316336001600160a01b0316146138d4576040516282b42960e81b815260040160405180910390fd5b6000828152602080805260408083206001600160a01b03851684529091528120549003611916576001600160a01b0381166000908152601b60205260408120549081900361392157505050565b6000838152602080805260408083206001600160a01b038616808552908352818420949094556013825280832082528083205486845260218352818420948452939091529020555050565b60606125cb6004613eea565b60606125cb6002613eea565b3a6000036139a557604051630e661aed60e41b815260040160405180910390fd5b601d546040516253517560e01b81523360048201819052916000916001600160a01b03909116906253517590602401602060405180830381865afa1580156139f1573d6000803e3d6000fd5b505050506040513d601f19601f82011682018060405250810190613a159190616081565b90506015546000148015613a925750601d5460405163facd743b60e01b81526001600160a01b0383811660048301529091169063facd743b90602401602060405180830381865afa158015613a6e573d6000803e3d6000fd5b505050506040513d601f19601f82011682018060405250810190613a92919061603d565b15613abb576040516303d71f2d60e51b81526001600160a01b0383166004820152602401611b9d565b61191682613ef7565b601d546001600160a01b03163314801590613aea57506028546001600160a01b03163314155b15613b07576040516282b42960e81b815260040160405180910390fd5b60158054906000613b17836161e8565b90915550506000601a55565b613b2b613f3d565b6001600160a01b038116613b5557604051631e4fbdf760e01b815260006004820152602401611b9d565b61202a81614bfe565b3a600003613b7f57604051630e661aed60e41b815260040160405180910390fd5b613b87614e3f565b33613b93838284613f98565b613b9d818361464c565b601554816001600160a01b0316846001600160a01b03167fa7c0f0cac6bd4d18042007706c84a8abe823751cf289b69c01e83eef7b5915c785604051613be591815260200190565b60405180910390a45061191660017f9b779b17422d0df92223018b32b4d1fa46e071723d6817e2486d003becc55f0055565b6000613c238183614c6f565b806118895750611889600283614c6f565b61202a81614fdf565b60c08101351580613c5757508061010001358160c0013511155b15613c755760405163c671116b60e01b815260040160405180910390fd5b806101000135600003613c9b576040516332154b4760e01b815260040160405180910390fd5b60e08101351580613cb457508060c001358160e0013510155b15613cd257604051630685efe960e01b815260040160405180910390fd5b6000613ce1602083018361591d565b6001600160a01b031603613d085760405163d92e233d60e01b815260040160405180910390fd5b613d156040820182615e25565b9050600003613d3757604051635c9a24ed60e11b815260040160405180910390fd5b60608101351580613d4a57506080810135155b15613d785760405163633373e160e11b81526080820135600482015260608201356024820152604401611b9d565b80608001358160a001351161202a57604051631c6d3b1560e01b815260040160405180910390fd5b613da8614fea565b61202a81615038565b613db9614fea565b612762615040565b613dca82612e61565b613e0557613dd9600083615048565b506064613de6600061505d565b1115613e055760405163398dcd9d60e21b815260040160405180910390fd5b613e106002836145d5565b5080156119165761191682615067565b613e2b600482615048565b5061202a8161515c565b613e3d614fea565b6000613e47614b9c565b6040805180820182526001600160e01b0319868116825260208083018781529189166000908152858252939093208251815463ffffffff191660e09190911c1781559051805194955091939092613ea59260018501929101906156f3565b509050507f3665bf9cd0ba4ddceeec259e21dcf8a4510f3b1130bd42e950828e69d85408ba848484604051613edc93929190616201565b60405180910390a150505050565b6060600061185b83615379565b613f026000826145d5565b50613f0c81614597565b15613f2257613f1c6002826145d5565b50613f2b565b613f2b81614fdf565b613f348161515c565b61202a816153d4565b33613f6f7f9016d09d72d40fdae2fd8ceac6b6234c7706214fd39c1cd1e609a0528c199300546001600160a01b031690565b6001600160a01b0316146127625760405163118cdaa760e01b8152336004820152602401611b9d565b6001600160a01b038316613fbf5760405163d92e233d60e01b815260040160405180910390fd5b80600003613fe057604051633ca0029d60e01b815260040160405180910390fd5b6000613fec84846125d0565b90508082111561401957604051632de4882160e01b81526004810182905260248101839052604401611b9d565b6001600160a01b03808516600090815260136020908152604080832093871683529290529081205461404c90849061602a565b90506000846001600160a01b0316866001600160a01b03161461407157600d54614075565b600c545b9050811580159061408557508082105b156140bd57604051639e612d5760e01b81526001600160a01b0380881660048301528616602482015260448101859052606401611b9d565b856001600160a01b0316856001600160a01b03161461415257601d546040516253517560e01b81526001600160a01b03888116600483015260009216906253517590602401602060405180830381865afa15801561411f573d6000803e3d6000fd5b505050506040513d601f19601f820116820180604052508101906141439190616081565b90506141508782886153df565b505b6001600160a01b038681166000818152601360209081526040808320948a16808452948252808320879055928252600b81528282209382529283528181206015548252909252902054848110156141aa5760006141b4565b6141b4858261602a565b6001600160a01b038089166000818152600b60209081526040808320948c1683529381528382206015548352815283822094909455908152601b9092528120805487929061420390849061602a565b9250508190555084601c600082825461421c919061602a565b90915550506000839003614234576142348787614e89565b61423d87614978565b50505050505050565b6001600160a01b03831661426d5760405163d92e233d60e01b815260040160405180910390fd5b601d546040516253517560e01b81526001600160a01b03858116600483015260009216906253517590602401602060405180830381865afa1580156142b6573d6000803e3d6000fd5b505050506040513d601f19601f820116820180604052508101906142da9190616081565b90506001600160a01b03811661430e57604051632670461960e11b81526001600160a01b0385166004820152602401611b9d565b816000036143425760405163e59f5c3960e01b81526001600160a01b03808616600483015284166024820152604401611b9d565b6001600160a01b0384166000908152601f602052604090205460ff16156143875760405163078137eb60e41b81526001600160a01b0385166004820152602401611b9d565b6001600160a01b0380851660008181526013602090815260408083209488168084529490915281205492909114916143c0908590615eb2565b9050600082156143d35750600c54614422565b50600d546001600160a01b038716600090815260136020908152604080832090915281205490036144225760405163cbbeb0bd60e01b81526001600160a01b0388166004820152602401611b9d565b808210156144565760405163e59f5c3960e01b81526001600160a01b03808916600483015287166024820152604401611b9d565b600e546001600160a01b0388166000908152601b602052604090205461447d908790615eb2565b11156144af57604051632c2b174160e21b81526001600160a01b03808916600483015287166024820152604401611b9d565b6001600160a01b038088166000908152600b60209081526040808320938a1683529281528282206015548352905290812080548792906144f0908490615eb2565b90915550506001600160a01b0387166000908152601b60205260408120805487929061451d908490615eb2565b9250508190555084601c60008282546145369190615eb2565b909155505082156145515761454c876001613dc1565b614566565b61455b8787614c91565b6145668785886153df565b6001600160a01b038088166000908152601360209081526040808320938a1683529290522082905561423d87614978565b6001600160a01b0381166000908152601b60205260408120541580156118895750506001600160a01b03166000908152601060205260409020541590565b600061185b836001600160a01b0384166154fb565b6001600160a01b038216600090815260096020526040902061460c90826145d5565b506001600160a01b038083166000908152600f6020908152604080832093851683529290522054156146425761191682826155ee565b6119168282615610565b8047101561466d57604051631e9acf1760e31b815260040160405180910390fd5b6000826001600160a01b03168260405160006040518083038185875af1925050503d80600081146146ba576040519150601f19603f3d011682016040523d82523d6000602084013e6146bf565b606091505b505090508061365557604051630e21dcbb60e11b81526001600160a01b038416600482015260248101839052604401611b9d565b61471760405180606001604052806000815260200160008152602001600081525090565b6015546000818152602080805260408083206001600160a01b038916808552908352818420549484526021835281842090845290915281205490606461475d8688615e85565b614767919061605f565b9050614773818761602a565b6040808601919091526001600160a01b038089166000908152602660209081528382205460259091529290205416158015906147ae57508015155b156147d0576127106147c08289615e85565b6147ca919061605f565b60208601525b838386604001516147e19190615e85565b6147eb919061605f565b60208601516147fa908461602a565b6148049190615eb2565b855250929695505050505050565b6000836000036148245750600061185b565b6001600160a01b0380841660009081526023602090815260408083209386168352929052205484900361488557506001600160a01b03808316600090815260226020908152604080832093851683529281528282208683529052205461185b565b506001600160a01b0380831660009081526013602090815260408083209385168352929052205461185b565b6001600160a01b0380831660009081526025602090815260408083205460099092529091209116906148e39082614c6f565b6148f1576148f18382614c91565b6001600160a01b03808416600090815260136020908152604080832093851683529290529081208054849290614928908490615eb2565b90915550506001600160a01b038084166000908152600b60209081526040808320938516835292815282822060155483529052908120805484929061496e908490615eb2565b9091555050505050565b601d546040516253517560e01b81526001600160a01b03838116600483015260009216906253517590602401602060405180830381865afa1580156149c1573d6000803e3d6000fd5b505050506040513d601f19601f820116820180604052508101906149e59190616081565b60248054604051633941e77760e21b81526001600160a01b0380851660048301529394506000939091169163e5079ddc9101602060405180830381865afa158015614a34573d6000803e3d6000fd5b505050506040513d601f19601f82011682018060405250810190614a58919061622e565b90506136558382614d95565b6107d0811115614a8a5760405163e429b69160e01b815260048101829052602401611b9d565b6001600160a01b038216158015614aa057508015155b15614ad05760405163073c315960e11b81526001600160a01b038316600482015260248101829052604401611b9d565b6001600160a01b0383166000908152602760205260409020548015801590614af9575060155481145b15614b1d5760155460405163e7cbc70160e01b8152600401611b9d91815260200190565b6001600160a01b03848116600081815260256020908152604080832080546001600160a01b03191695891695861790556026825280832087905560155460278352928190209290925590518581527fd6ae57aa2cc060d4094c47d20c672afe0e53963e6459c15cab215abb8c88b863910160405180910390a350505050565b60008060ff19614bcd60017fdace3fd3d1fbdfd33853f19ba191d28c617e373ec58fc73cf7b58db5aff2c2ab61602a565b604051602001614bdf91815260200190565b60408051601f1981840301815291905280516020909101201692915050565b7f9016d09d72d40fdae2fd8ceac6b6234c7706214fd39c1cd1e609a0528c19930080546001600160a01b031981166001600160a01b03848116918217845560405192169182907f8be0079c531659141344cd1fd0a4f28419497f9722a3daafe3b4186f6b6457e090600090a3505050565b6001600160a01b0381166000908152600183016020526040812054151561185b565b6001600160a01b0382166000908152600960205260409020614cb39082615048565b506119168282615610565b60408051600481526024810182526020810180517bffffffffffffffffffffffffffffffffffffffffffffffffffffffff166001600160e01b03198516179052905160009190829081903090614d15908590616247565b600060405180830381855afa9150503d8060008114614d50576040519150601f19603f3d011682016040523d82523d6000602084013e614d55565b606091505b509150915081614d7857604051635fbab09b60e11b815260040160405180910390fd5b80806020019051810190614d8c919061622e565b95945050505050565b600080614da184615632565b9150915081614db05750505050565b600060078281548110614dc557614dc5615e9c565b60009182526020808320909101546001600160a01b0388168352601b9091526040822054909250614df7908690615e85565b90508060078481548110614e0d57614e0d615e9c565b90600052602060002001819055508082600854614e2a919061602a565b614e349190615eb2565b600855505050505050565b7f9b779b17422d0df92223018b32b4d1fa46e071723d6817e2486d003becc55f00805460011901614e8357604051633ee5aeb560e01b815260040160405180910390fd5b60029055565b816001600160a01b0316816001600160a01b031603614f9657601d546040516253517560e01b81526001600160a01b03848116600483015260009216906253517590602401602060405180830381865afa158015614eeb573d6000803e3d6000fd5b505050506040513d601f19601f82011682018060405250810190614f0f9190616081565b601d5460405163facd743b60e01b81526001600160a01b03808416600483015292935091169063facd743b90602401602060405180830381865afa158015614f5b573d6000803e3d6000fd5b505050506040513d601f19601f82011682018060405250810190614f7f919061603d565b15614f8d5761365583613e20565b61365583613ef7565b614fa082826145ea565b614fa982614597565b15611916576136556002836145d5565b60017f9b779b17422d0df92223018b32b4d1fa46e071723d6817e2486d003becc55f0055565b611916600282615048565b7ff0c57e16840df040f15088dc2f81fe391c3923bec73e23a9662efc9c229c6a005468010000000000000000900460ff1661276257604051631afcd79f60e31b815260040160405180910390fd5b613b2b614fea565b614fb9614fea565b600061185b836001600160a01b0384166156a4565b6000611889825490565b6001600160a01b03811660009081526012602052604090205460065480821015806150c25750826001600160a01b0316600683815481106150aa576150aa615e9c565b6000918252602090912001546001600160a01b031614155b15615153576001600160a01b03831660008181526012602052604081208390556006805460018181019092557ff652222313e28459528d920b65115c16c04f3efc82aaedc97be59f3f377c0d3f0180546001600160a01b03191690931790925560078054928301815581527fa66cc928b5edb82af9bd49922954155ab7b0942694bea4ce44661d9a8736c688909101555b613655836153d4565b6007546006541461516a5750565b6001600160a01b038116600090815260126020526040902054600654811080156151c35750816001600160a01b0316600682815481106151ac576151ac615e9c565b6000918252602090912001546001600160a01b0316145b1561191657600781815481106151db576151db615e9c565b906000526020600020015460085410615228576007818154811061520157615201615e9c565b90600052602060002001546008600082825461521d919061602a565b9091555061522e9050565b60006008555b6006546000906152409060019061602a565b905060006006828154811061525757615257615e9c565b600091825260209091200154600680546001600160a01b03909216925082918590811061528657615286615e9c565b9060005260206000200160006101000a8154816001600160a01b0302191690836001600160a01b03160217905550600782815481106152c7576152c7615e9c565b9060005260206000200154600784815481106152e5576152e5615e9c565b60009182526020808320909101929092556001600160a01b03808416825260129092526040808220869055918616815290812055600680548061532a5761532a616263565b600082815260209020810160001990810180546001600160a01b0319169055019055600780548061535d5761535d616263565b6001900381819060005260206000200160009055905550505050565b6060816000018054806020026020016040519081016040528092919081815260200182805480156125a857602002820191906000526020600020905b8154815260200190600101908083116153b55750505050509050919050565b6119166004826145d5565b601d5460405163a0d16cad60e01b81526001600160a01b0384811660048301529091169063a0d16cad90602401602060405180830381865afa158015615429573d6000803e3d6000fd5b505050506040513d601f19601f8201168201806040525081019061544d919061603d565b15806154595750601554155b1561546357505050565b6001600160a01b038084166000908152602360209081526040808320938516835292905220546015548110156154f5576001600160a01b0380851660008181526013602090815260408083209487168084529482528083205484845260228352818420868552835281842060158054865290845282852091909155549383526023825280832094835293905291909120555b50505050565b600081815260018301602052604081205480156155e457600061551f60018361602a565b85549091506000906155339060019061602a565b905080821461559857600086600001828154811061555357615553615e9c565b906000526020600020015490508087600001848154811061557657615576615e9c565b6000918252602080832090910192909255918252600188019052604090208390555b85548690806155a9576155a9616263565b600190038181906000526020600020016000905590558560010160008681526020019081526020016000206000905560019350505050611889565b6000915050611889565b6001600160a01b0382166000908152600a602052604090206136559082615048565b6001600160a01b0382166000908152600a6020526040902061365590826145d5565b6001600160a01b0381166000908152601260205260408120546006548110801561568b5750826001600160a01b03166006828154811061567457615674615e9c565b6000918252602090912001546001600160a01b0316145b156156995760019150915091565b506000928392509050565b60008181526001830160205260408120546156eb57508154600181810184556000848152602080822090930184905584548482528286019093526040902091909155611889565b506000611889565b82805482825590600052602060002090810192821561572e579160200282015b8281111561572e578251825591602001919060010190615713565b5061573a929150615758565b5090565b508054600082559060005260206000209081019061202a91905b5b8082111561573a5760008155600101615759565b6001600160a01b038116811461202a57600080fd5b60008060006060848603121561579757600080fd5b83356157a28161576d565b925060208401356157b28161576d565b929592945050506040919091013590565b60008083601f8401126157d557600080fd5b50813567ffffffffffffffff8111156157ed57600080fd5b6020830191508360208260051b850101111561580857600080fd5b9250929050565b6000806000806000806080878903121561582857600080fd5b86356158338161576d565b9550602087013567ffffffffffffffff8082111561585057600080fd5b90880190610120828b03121561586557600080fd5b9095506040880135908082111561587b57600080fd5b6158878a838b016157c3565b909650945060608901359150808211156158a057600080fd5b506158ad89828a016157c3565b979a9699509497509295939492505050565b600080604083850312156158d257600080fd5b82356158dd8161576d565b915060208301356158ed8161576d565b809150509250929050565b6000806040838503121561590b57600080fd5b8235915060208301356158ed8161576d565b60006020828403121561592f57600080fd5b813561185b8161576d565b60006020828403121561594c57600080fd5b5035919050565b6000806040838503121561596657600080fd5b82356159718161576d565b946020939093013593505050565b80356001600160e01b03198116811461599757600080fd5b919050565b600080600080606085870312156159b257600080fd5b6159bb8561597f565b93506159c96020860161597f565b9250604085013567ffffffffffffffff8111156159e557600080fd5b6159f1878288016157c3565b95989497509550505050565b60005b83811015615a18578181015183820152602001615a00565b50506000910152565b60008151808452615a398160208601602086016159fd565b601f01601f19169290920160200192915050565b60208152600061185b6020830184615a21565b6020808252825182820181905260009190848201906040850190845b81811015615aa15783516001600160a01b031683529284019291840191600101615a7c565b50909695505050505050565b80356fffffffffffffffffffffffffffffffff198116811461599757600080fd5b80356001600160f01b03198116811461599757600080fd5b600080600060608486031215615afb57600080fd5b8335615b068161576d565b9250615b1460208501615aad565b9150615b2260408501615ace565b90509250925092565b600060208284031215615b3d57600080fd5b61185b8261597f565b60008083601f840112615b5857600080fd5b50813567ffffffffffffffff811115615b7057600080fd5b60208301915083602082850101111561580857600080fd5b60008060008060608587031215615b9e57600080fd5b843567ffffffffffffffff811115615bb557600080fd5b615bc187828801615b46565b9095509350615bd4905060208601615aad565b9150615be260408601615ace565b905092959194509250565b60008060008060008060a08789031215615c0657600080fd5b8635615c118161576d565b95506020870135615c218161576d565b945060408701359350606087013567ffffffffffffffff811115615c4457600080fd5b615c5089828a01615b46565b9094509250615c63905060808801615aad565b90509295509295509295565b60008151808452602080850194506020840160005b83811015615ca057815187529582019590820190600101615c84565b509495945050505050565b604081526000615cbe6040830185615c6f565b90508260208301529392505050565b606081526000615ce06060830186615a21565b6fffffffffffffffffffffffffffffffff19949094166020830152506001600160f01b031991909116604090910152919050565b634e487b7160e01b600052604160045260246000fd5b600060208284031215615d3c57600080fd5b813567ffffffffffffffff80821115615d5457600080fd5b818401915084601f830112615d6857600080fd5b813581811115615d7a57615d7a615d14565b604051601f8201601f19908116603f01168101908382118183101715615da257615da2615d14565b81604052828152876020848701011115615dbb57600080fd5b826020860160208301376000928101602001929092525095945050505050565b602080825282516001600160e01b03191682820152820151604080830152600090612c586060840182615c6f565b60008060408385031215615e1c57600080fd5b6159718361597f565b6000808335601e19843603018112615e3c57600080fd5b83018035915067ffffffffffffffff821115615e5757600080fd5b6020019150600581901b360382131561580857600080fd5b634e487b7160e01b600052601160045260246000fd5b808202811582820484141761188957611889615e6f565b634e487b7160e01b600052603260045260246000fd5b8082018082111561188957611889615e6f565b600181811c90821680615ed957607f821691505b602082108103615ef957634e487b7160e01b600052602260045260246000fd5b50919050565b601f821115613655576000816000526020600020601f850160051c81016020861015615f285750805b601f850160051c820191505b81811015615f4757828155600101615f34565b505050505050565b815167ffffffffffffffff811115615f6957615f69615d14565b615f7d81615f778454615ec5565b84615eff565b602080601f831160018114615fb25760008415615f9a5750858301515b600019600386901b1c1916600185901b178555615f47565b600085815260208120601f198616915b82811015615fe157888601518255948401946001909101908401615fc2565b5085821015615fff5787850151600019600388901b60f8161c191681555b5050505050600190811b01905550565b60006020828403121561602157600080fd5b61185b82615aad565b8181038181111561188957611889615e6f565b60006020828403121561604f57600080fd5b8151801515811461185b57600080fd5b60008261607c57634e487b7160e01b600052601260045260246000fd5b500490565b60006020828403121561609357600080fd5b815161185b8161576d565b6001600160e01b0319858116825284166020820152606060408201819052810182905260007f07ffffffffffffffffffffffffffffffffffffffffffffffffffffffffffffff8311156160f057600080fd5b8260051b808560808501379190910160800195945050505050565b67ffffffffffffffff83111561612357616123615d14565b616137836161318354615ec5565b83615eff565b6000601f84116001811461616b57600085156161535750838201355b600019600387901b1c1916600186901b1783556161c5565b600083815260209020601f19861690835b8281101561619c578685013582556020948501946001909201910161617c565b50868210156161b95760001960f88860031b161c19848701351681555b505060018560011b0183555b5050505050565b6000600160ff1b82016161e1576161e1615e6f565b5060000390565b6000600182016161fa576161fa615e6f565b5060010190565b6001600160e01b0319848116825283166020820152606060408201819052600090614d8c90830184615c6f565b60006020828403121561624057600080fd5b5051919050565b600082516162598184602087016159fd565b9190910192915050565b634e487b7160e01b600052603160045260246000fdfea2646970667358221220e7ea6e2829b1fc0e9226cd0482c272d92b733e985e77cf51b9ed176f66de7dfc64736f6c63430008190033",
  "linkReferences": {},
  "deployedLinkReferences": {}
}