{
  "_format": "hh-sol-artifact-1",
  "contractName": "StakingHbbft",
  "sourceName": "contracts/StakingHbbft.sol",
  "abi": [
    {
      "inputs": [],
      "stateMutability": "nonpayable",
      "type": "constructor"
    },
    {
      "inputs": [
        {
          "internalType": "address",
          "name": "pool",
          "type": "address"
        },
        {
          "internalType": "address",
          "name": "staker",
          "type": "address"
        }
      ],
      "name": "CannotClaimWithdrawOrderYet",
      "type": "error"
    },
    {
      "inputs": [],
      "name": "GetterCallFailed",
      "type": "error"
    },
    {
      "inputs": [],
      "name": "InitialStakingPoolsListEmpty",
      "type": "error"
    },
    {
      "inputs": [],
      "name": "InsufficientBalance",
      "type": "error"
    },
    {
      "inputs": [
        {
          "internalType": "address",
          "name": "pool",
          "type": "address"
        },
        {
          "internalType": "address",
          "name": "delegator",
          "type": "address"
        }
      ],
      "name": "InsufficientStakeAmount",
      "type": "error"
    },
    {
      "inputs": [],
      "name": "InvalidFixedEpochDuration",
      "type": "error"
    },
    {
      "inputs": [
        {
          "internalType": "uint256",
          "name": "candidateStake",
          "type": "uint256"
        },
        {
          "internalType": "uint256",
          "name": "delegatorStake",
          "type": "uint256"
        }
      ],
      "name": "InvalidInitialStakeAmount",
      "type": "error"
    },
    {
      "inputs": [],
      "name": "InvalidInitialization",
      "type": "error"
    },
    {
      "inputs": [],
      "name": "InvalidIpAddressesCount",
      "type": "error"
    },
    {
      "inputs": [],
      "name": "InvalidMaxStakeAmount",
      "type": "error"
    },
    {
      "inputs": [],
      "name": "InvalidMoveStakePoolsAddress",
      "type": "error"
    },
    {
      "inputs": [
        {
          "internalType": "address",
          "name": "pool",
          "type": "address"
        },
        {
          "internalType": "address",
          "name": "delegator",
          "type": "address"
        },
        {
          "internalType": "int256",
          "name": "amount",
          "type": "int256"
        }
      ],
      "name": "InvalidOrderWithdrawAmount",
      "type": "error"
    },
    {
      "inputs": [],
      "name": "InvalidPublicKeysCount",
      "type": "error"
    },
    {
      "inputs": [],
      "name": "InvalidStakingFixedEpochDuration",
      "type": "error"
    },
    {
      "inputs": [],
      "name": "InvalidStakingTransitionTimeframe",
      "type": "error"
    },
    {
      "inputs": [],
      "name": "InvalidTransitionTimeFrame",
      "type": "error"
    },
    {
      "inputs": [
        {
          "internalType": "address",
          "name": "pool",
          "type": "address"
        },
        {
          "internalType": "address",
          "name": "delegator",
          "type": "address"
        },
        {
          "internalType": "uint256",
          "name": "amount",
          "type": "uint256"
        }
      ],
      "name": "InvalidWithdrawAmount",
      "type": "error"
    },
    {
      "inputs": [
        {
          "internalType": "uint256",
          "name": "allowed",
          "type": "uint256"
        },
        {
          "internalType": "uint256",
          "name": "desired",
          "type": "uint256"
        }
      ],
      "name": "MaxAllowedWithdrawExceeded",
      "type": "error"
    },
    {
      "inputs": [],
      "name": "MaxPoolsCountExceeded",
      "type": "error"
    },
    {
      "inputs": [
        {
          "internalType": "uint256",
          "name": "_newVal",
          "type": "uint256"
        }
      ],
      "name": "NewValueOutOfRange",
      "type": "error"
    },
    {
      "inputs": [],
      "name": "NoStakesToRecover",
      "type": "error"
    },
    {
      "inputs": [],
      "name": "NotInitializing",
      "type": "error"
    },
    {
      "inputs": [],
      "name": "NotPayable",
      "type": "error"
    },
    {
      "inputs": [
        {
          "internalType": "address",
          "name": "owner",
          "type": "address"
        }
      ],
      "name": "OwnableInvalidOwner",
      "type": "error"
    },
    {
      "inputs": [
        {
          "internalType": "address",
          "name": "account",
          "type": "address"
        }
      ],
      "name": "OwnableUnauthorizedAccount",
      "type": "error"
    },
    {
      "inputs": [
        {
          "internalType": "address",
          "name": "pool",
          "type": "address"
        }
      ],
      "name": "PoolAbandoned",
      "type": "error"
    },
    {
      "inputs": [
        {
          "internalType": "address",
          "name": "pool",
          "type": "address"
        }
      ],
      "name": "PoolCannotBeRemoved",
      "type": "error"
    },
    {
      "inputs": [
        {
          "internalType": "address",
          "name": "pool",
          "type": "address"
        }
      ],
      "name": "PoolEmpty",
      "type": "error"
    },
    {
      "inputs": [
        {
          "internalType": "address",
          "name": "pool",
          "type": "address"
        }
      ],
      "name": "PoolMiningBanned",
      "type": "error"
    },
    {
      "inputs": [
        {
          "internalType": "address",
          "name": "pool",
          "type": "address"
        }
      ],
      "name": "PoolNotExist",
      "type": "error"
    },
    {
      "inputs": [
        {
          "internalType": "address",
          "name": "pool",
          "type": "address"
        },
        {
          "internalType": "address",
          "name": "delegator",
          "type": "address"
        }
      ],
      "name": "PoolStakeLimitExceeded",
      "type": "error"
    },
    {
      "inputs": [],
      "name": "ReentrancyGuardReentrantCall",
      "type": "error"
    },
    {
      "inputs": [
        {
          "internalType": "address",
          "name": "recipient",
          "type": "address"
        },
        {
          "internalType": "uint256",
          "name": "amount",
          "type": "uint256"
        }
      ],
      "name": "TransferFailed",
      "type": "error"
    },
    {
      "inputs": [],
      "name": "Unauthorized",
      "type": "error"
    },
    {
      "inputs": [],
      "name": "WithdrawNotAllowed",
      "type": "error"
    },
    {
      "inputs": [],
      "name": "ZeroAddress",
      "type": "error"
    },
    {
      "inputs": [],
      "name": "ZeroGasPrice",
      "type": "error"
    },
    {
      "inputs": [],
      "name": "ZeroWidthrawAmount",
      "type": "error"
    },
    {
      "inputs": [],
      "name": "ZeroWidthrawDisallowPeriod",
      "type": "error"
    },
    {
      "anonymous": false,
      "inputs": [
        {
          "indexed": true,
          "internalType": "address",
          "name": "fromPoolStakingAddress",
          "type": "address"
        },
        {
          "indexed": true,
          "internalType": "address",
          "name": "staker",
          "type": "address"
        },
        {
          "indexed": true,
          "internalType": "uint256",
          "name": "stakingEpoch",
          "type": "uint256"
        },
        {
          "indexed": false,
          "internalType": "uint256",
          "name": "amount",
          "type": "uint256"
        }
      ],
      "name": "ClaimedOrderedWithdrawal",
      "type": "event"
    },
    {
      "anonymous": false,
      "inputs": [
        {
          "indexed": true,
          "internalType": "address",
          "name": "caller",
          "type": "address"
        },
        {
          "indexed": true,
          "internalType": "address",
          "name": "stakingAddress",
          "type": "address"
        },
        {
          "indexed": false,
          "internalType": "uint256",
          "name": "gatheredFunds",
          "type": "uint256"
        }
      ],
      "name": "GatherAbandonedStakes",
      "type": "event"
    },
    {
      "anonymous": false,
      "inputs": [
        {
          "indexed": false,
          "internalType": "uint64",
          "name": "version",
          "type": "uint64"
        }
      ],
      "name": "Initialized",
      "type": "event"
    },
    {
      "anonymous": false,
      "inputs": [
        {
          "indexed": false,
          "internalType": "address",
          "name": "fromPoolStakingAddress",
          "type": "address"
        },
        {
          "indexed": true,
          "internalType": "address",
          "name": "toPoolStakingAddress",
          "type": "address"
        },
        {
          "indexed": true,
          "internalType": "address",
          "name": "staker",
          "type": "address"
        },
        {
          "indexed": true,
          "internalType": "uint256",
          "name": "stakingEpoch",
          "type": "uint256"
        },
        {
          "indexed": false,
          "internalType": "uint256",
          "name": "amount",
          "type": "uint256"
        }
      ],
      "name": "MovedStake",
      "type": "event"
    },
    {
      "anonymous": false,
      "inputs": [
        {
          "indexed": true,
          "internalType": "address",
          "name": "fromPoolStakingAddress",
          "type": "address"
        },
        {
          "indexed": true,
          "internalType": "address",
          "name": "staker",
          "type": "address"
        },
        {
          "indexed": true,
          "internalType": "uint256",
          "name": "stakingEpoch",
          "type": "uint256"
        },
        {
          "indexed": false,
          "internalType": "int256",
          "name": "amount",
          "type": "int256"
        }
      ],
      "name": "OrderedWithdrawal",
      "type": "event"
    },
    {
      "anonymous": false,
      "inputs": [
        {
          "indexed": true,
          "internalType": "address",
          "name": "previousOwner",
          "type": "address"
        },
        {
          "indexed": true,
          "internalType": "address",
          "name": "newOwner",
          "type": "address"
        }
      ],
      "name": "OwnershipTransferred",
      "type": "event"
    },
    {
      "anonymous": false,
      "inputs": [
        {
          "indexed": true,
          "internalType": "address",
          "name": "toPoolStakingAddress",
          "type": "address"
        },
        {
          "indexed": true,
          "internalType": "address",
          "name": "staker",
          "type": "address"
        },
        {
          "indexed": true,
          "internalType": "uint256",
          "name": "stakingEpoch",
          "type": "uint256"
        },
        {
          "indexed": false,
          "internalType": "uint256",
          "name": "amount",
          "type": "uint256"
        }
      ],
      "name": "PlacedStake",
      "type": "event"
    },
    {
      "anonymous": false,
      "inputs": [
        {
          "indexed": true,
          "internalType": "address",
          "name": "caller",
          "type": "address"
        },
        {
          "indexed": false,
          "internalType": "uint256",
          "name": "reinsertShare",
          "type": "uint256"
        },
        {
          "indexed": false,
          "internalType": "uint256",
          "name": "governanceShare",
          "type": "uint256"
        }
      ],
      "name": "RecoverAbandonedStakes",
      "type": "event"
    },
    {
      "anonymous": false,
      "inputs": [
        {
          "indexed": false,
          "internalType": "string",
          "name": "funcSelector",
          "type": "string"
        }
      ],
      "name": "RemoveChangeAbleParameter",
      "type": "event"
    },
    {
      "anonymous": false,
      "inputs": [
        {
          "indexed": true,
          "internalType": "address",
          "name": "poolStakingAddress",
          "type": "address"
        },
        {
          "indexed": true,
          "internalType": "uint256",
          "name": "stakingEpoch",
          "type": "uint256"
        },
        {
          "indexed": false,
          "internalType": "uint256",
          "name": "validatorReward",
          "type": "uint256"
        },
        {
          "indexed": false,
          "internalType": "uint256",
          "name": "delegatorsReward",
          "type": "uint256"
        }
      ],
      "name": "RestakeReward",
      "type": "event"
    },
    {
      "anonymous": false,
      "inputs": [
        {
          "indexed": false,
          "internalType": "string",
          "name": "setter",
          "type": "string"
        },
        {
          "indexed": false,
          "internalType": "string",
          "name": "getter",
          "type": "string"
        },
        {
          "indexed": false,
          "internalType": "uint256[]",
          "name": "params",
          "type": "uint256[]"
        }
      ],
      "name": "SetChangeAbleParameter",
      "type": "event"
    },
    {
      "anonymous": false,
      "inputs": [
        {
          "indexed": false,
          "internalType": "uint256",
          "name": "minStake",
          "type": "uint256"
        }
      ],
      "name": "SetDelegatorMinStake",
      "type": "event"
    },
    {
      "anonymous": false,
      "inputs": [
        {
          "indexed": true,
          "internalType": "address",
          "name": "fromPoolStakingAddress",
          "type": "address"
        },
        {
          "indexed": true,
          "internalType": "address",
          "name": "staker",
          "type": "address"
        },
        {
          "indexed": true,
          "internalType": "uint256",
          "name": "stakingEpoch",
          "type": "uint256"
        },
        {
          "indexed": false,
          "internalType": "uint256",
          "name": "amount",
          "type": "uint256"
        }
      ],
      "name": "WithdrewStake",
      "type": "event"
    },
    {
      "inputs": [],
      "name": "MAX_CANDIDATES",
      "outputs": [
        {
          "internalType": "uint256",
          "name": "",
          "type": "uint256"
        }
      ],
      "stateMutability": "view",
      "type": "function"
    },
    {
      "inputs": [
        {
          "internalType": "address",
          "name": "",
          "type": "address"
        }
      ],
      "name": "abandonedAndRemoved",
      "outputs": [
        {
          "internalType": "bool",
          "name": "",
          "type": "bool"
        }
      ],
      "stateMutability": "view",
      "type": "function"
    },
    {
      "inputs": [
        {
          "internalType": "address",
          "name": "_miningAddress",
          "type": "address"
        },
        {
          "internalType": "bytes",
          "name": "_publicKey",
          "type": "bytes"
        },
        {
          "internalType": "bytes16",
          "name": "_ip",
          "type": "bytes16"
        }
      ],
      "name": "addPool",
      "outputs": [],
      "stateMutability": "payable",
      "type": "function"
    },
    {
      "inputs": [
        {
          "internalType": "bytes4",
          "name": "",
          "type": "bytes4"
        }
      ],
      "name": "allowedParameterRange",
      "outputs": [
        {
          "internalType": "bytes4",
          "name": "getter",
          "type": "bytes4"
        }
      ],
      "stateMutability": "view",
      "type": "function"
    },
    {
      "inputs": [],
      "name": "areStakeAndWithdrawAllowed",
      "outputs": [
        {
          "internalType": "bool",
          "name": "",
          "type": "bool"
        }
      ],
      "stateMutability": "pure",
      "type": "function"
    },
    {
      "inputs": [],
      "name": "candidateMinStake",
      "outputs": [
        {
          "internalType": "uint256",
          "name": "",
          "type": "uint256"
        }
      ],
      "stateMutability": "view",
      "type": "function"
    },
    {
      "inputs": [
        {
          "internalType": "address",
          "name": "_poolStakingAddress",
          "type": "address"
        }
      ],
      "name": "claimOrderedWithdraw",
      "outputs": [],
      "stateMutability": "nonpayable",
      "type": "function"
    },
    {
      "inputs": [],
      "name": "currentKeyGenExtraTimeWindow",
      "outputs": [
        {
          "internalType": "uint256",
          "name": "",
          "type": "uint256"
        }
      ],
      "stateMutability": "view",
      "type": "function"
    },
    {
      "inputs": [],
      "name": "delegatorMinStake",
      "outputs": [
        {
          "internalType": "uint256",
          "name": "",
          "type": "uint256"
        }
      ],
      "stateMutability": "view",
      "type": "function"
    },
    {
      "inputs": [
        {
          "internalType": "string",
          "name": "_selector",
          "type": "string"
        }
      ],
      "name": "getAllowedParamsRange",
      "outputs": [
        {
          "components": [
            {
              "internalType": "bytes4",
              "name": "getter",
              "type": "bytes4"
            },
            {
              "internalType": "uint256[]",
              "name": "range",
              "type": "uint256[]"
            }
          ],
          "internalType": "struct ValueGuards.ParameterRange",
          "name": "",
          "type": "tuple"
        }
      ],
      "stateMutability": "view",
      "type": "function"
    },
    {
      "inputs": [
        {
          "internalType": "address",
          "name": "_poolAddress",
          "type": "address"
        }
      ],
      "name": "getPoolInternetAddress",
      "outputs": [
        {
          "internalType": "bytes16",
          "name": "",
          "type": "bytes16"
        },
        {
          "internalType": "bytes2",
          "name": "",
          "type": "bytes2"
        }
      ],
      "stateMutability": "view",
      "type": "function"
    },
    {
      "inputs": [
        {
          "internalType": "address",
          "name": "_poolAddress",
          "type": "address"
        }
      ],
      "name": "getPoolPublicKey",
      "outputs": [
        {
          "internalType": "bytes",
          "name": "",
          "type": "bytes"
        }
      ],
      "stateMutability": "view",
      "type": "function"
    },
    {
      "inputs": [
        {
          "internalType": "uint256",
          "name": "_epoch",
          "type": "uint256"
        },
        {
          "internalType": "address",
          "name": "_stakingPool",
          "type": "address"
        }
      ],
      "name": "getPoolValidatorStakeAmount",
      "outputs": [
        {
          "internalType": "uint256",
          "name": "",
          "type": "uint256"
        }
      ],
      "stateMutability": "view",
      "type": "function"
    },
    {
      "inputs": [],
      "name": "getPools",
      "outputs": [
        {
          "internalType": "address[]",
          "name": "",
          "type": "address[]"
        }
      ],
      "stateMutability": "view",
      "type": "function"
    },
    {
      "inputs": [],
      "name": "getPoolsInactive",
      "outputs": [
        {
          "internalType": "address[]",
          "name": "",
          "type": "address[]"
        }
      ],
      "stateMutability": "view",
      "type": "function"
    },
    {
      "inputs": [],
      "name": "getPoolsLikelihood",
      "outputs": [
        {
          "internalType": "uint256[]",
          "name": "likelihoods",
          "type": "uint256[]"
        },
        {
          "internalType": "uint256",
          "name": "sum",
          "type": "uint256"
        }
      ],
      "stateMutability": "view",
      "type": "function"
    },
    {
      "inputs": [],
      "name": "getPoolsToBeElected",
      "outputs": [
        {
          "internalType": "address[]",
          "name": "",
          "type": "address[]"
        }
      ],
      "stateMutability": "view",
      "type": "function"
    },
    {
      "inputs": [],
      "name": "getPoolsToBeRemoved",
      "outputs": [
        {
          "internalType": "address[]",
          "name": "",
          "type": "address[]"
        }
      ],
      "stateMutability": "view",
      "type": "function"
    },
    {
      "inputs": [],
      "name": "incrementStakingEpoch",
      "outputs": [],
      "stateMutability": "nonpayable",
      "type": "function"
    },
    {
      "inputs": [
        {
          "internalType": "string",
          "name": "setter",
          "type": "string"
        },
        {
          "internalType": "string",
          "name": "getter",
          "type": "string"
        },
        {
          "internalType": "uint256[]",
          "name": "params",
          "type": "uint256[]"
        }
      ],
      "name": "initAllowedChangeableParameter",
      "outputs": [],
      "stateMutability": "nonpayable",
      "type": "function"
    },
    {
      "inputs": [
        {
          "internalType": "address",
          "name": "_contractOwner",
          "type": "address"
        },
        {
          "components": [
            {
              "internalType": "address",
              "name": "_validatorSetContract",
              "type": "address"
            },
            {
              "internalType": "address[]",
              "name": "_initialStakingAddresses",
              "type": "address[]"
            },
            {
              "internalType": "uint256",
              "name": "_delegatorMinStake",
              "type": "uint256"
            },
            {
              "internalType": "uint256",
              "name": "_candidateMinStake",
              "type": "uint256"
            },
            {
              "internalType": "uint256",
              "name": "_maxStake",
              "type": "uint256"
            },
            {
              "internalType": "uint256",
              "name": "_stakingFixedEpochDuration",
              "type": "uint256"
            },
            {
              "internalType": "uint256",
              "name": "_stakingTransitionTimeframeLength",
              "type": "uint256"
            },
            {
              "internalType": "uint256",
              "name": "_stakingWithdrawDisallowPeriod",
              "type": "uint256"
            }
          ],
          "internalType": "struct IStakingHbbft.StakingParams",
          "name": "stakingParams",
          "type": "tuple"
        },
        {
          "internalType": "bytes32[]",
          "name": "_publicKeys",
          "type": "bytes32[]"
        },
        {
          "internalType": "bytes16[]",
          "name": "_internetAddresses",
          "type": "bytes16[]"
        }
      ],
      "name": "initialize",
      "outputs": [],
      "stateMutability": "nonpayable",
      "type": "function"
    },
    {
      "inputs": [
        {
          "internalType": "address",
          "name": "_stakingAddress",
          "type": "address"
        }
      ],
      "name": "isPoolActive",
      "outputs": [
        {
          "internalType": "bool",
          "name": "",
          "type": "bool"
        }
      ],
      "stateMutability": "view",
      "type": "function"
    },
    {
      "inputs": [
        {
          "internalType": "bytes4",
          "name": "funcSelector",
          "type": "bytes4"
        },
        {
          "internalType": "uint256",
          "name": "newVal",
          "type": "uint256"
        }
      ],
      "name": "isWithinAllowedRange",
      "outputs": [
        {
          "internalType": "bool",
          "name": "",
          "type": "bool"
        }
      ],
      "stateMutability": "view",
      "type": "function"
    },
    {
      "inputs": [],
      "name": "maxStakeAmount",
      "outputs": [
        {
          "internalType": "uint256",
          "name": "",
          "type": "uint256"
        }
      ],
      "stateMutability": "view",
      "type": "function"
    },
    {
      "inputs": [
        {
          "internalType": "address",
          "name": "_poolStakingAddress",
          "type": "address"
        },
        {
          "internalType": "address",
          "name": "_staker",
          "type": "address"
        }
      ],
      "name": "maxWithdrawAllowed",
      "outputs": [
        {
          "internalType": "uint256",
          "name": "",
          "type": "uint256"
        }
      ],
      "stateMutability": "view",
      "type": "function"
    },
    {
      "inputs": [
        {
          "internalType": "address",
          "name": "_poolStakingAddress",
          "type": "address"
        },
        {
          "internalType": "address",
          "name": "_staker",
          "type": "address"
        }
      ],
      "name": "maxWithdrawOrderAllowed",
      "outputs": [
        {
          "internalType": "uint256",
          "name": "",
          "type": "uint256"
        }
      ],
      "stateMutability": "view",
      "type": "function"
    },
    {
      "inputs": [
        {
          "internalType": "address",
          "name": "_fromPoolStakingAddress",
          "type": "address"
        },
        {
          "internalType": "address",
          "name": "_toPoolStakingAddress",
          "type": "address"
        },
        {
          "internalType": "uint256",
          "name": "_amount",
          "type": "uint256"
        }
      ],
      "name": "moveStake",
      "outputs": [],
      "stateMutability": "nonpayable",
      "type": "function"
    },
    {
      "inputs": [
        {
          "internalType": "address",
          "name": "_stakingAddress",
          "type": "address"
        }
      ],
      "name": "notifyAvailability",
      "outputs": [],
      "stateMutability": "nonpayable",
      "type": "function"
    },
    {
      "inputs": [],
      "name": "notifyKeyGenFailed",
      "outputs": [],
      "stateMutability": "nonpayable",
      "type": "function"
    },
    {
      "inputs": [
        {
          "internalType": "uint256",
          "name": "detectedOfflineTime",
          "type": "uint256"
        }
      ],
      "name": "notifyNetworkOfftimeDetected",
      "outputs": [],
      "stateMutability": "nonpayable",
      "type": "function"
    },
    {
      "inputs": [
        {
          "internalType": "address",
          "name": "_poolStakingAddress",
          "type": "address"
        },
        {
          "internalType": "int256",
          "name": "_amount",
          "type": "int256"
        }
      ],
      "name": "orderWithdraw",
      "outputs": [],
      "stateMutability": "nonpayable",
      "type": "function"
    },
    {
      "inputs": [
        {
          "internalType": "address",
          "name": "",
          "type": "address"
        },
        {
          "internalType": "address",
          "name": "",
          "type": "address"
        }
      ],
      "name": "orderWithdrawEpoch",
      "outputs": [
        {
          "internalType": "uint256",
          "name": "",
          "type": "uint256"
        }
      ],
      "stateMutability": "view",
      "type": "function"
    },
    {
      "inputs": [
        {
          "internalType": "address",
          "name": "",
          "type": "address"
        },
        {
          "internalType": "address",
          "name": "",
          "type": "address"
        }
      ],
      "name": "orderedWithdrawAmount",
      "outputs": [
        {
          "internalType": "uint256",
          "name": "",
          "type": "uint256"
        }
      ],
      "stateMutability": "view",
      "type": "function"
    },
    {
      "inputs": [
        {
          "internalType": "address",
          "name": "",
          "type": "address"
        }
      ],
      "name": "orderedWithdrawAmountTotal",
      "outputs": [
        {
          "internalType": "uint256",
          "name": "",
          "type": "uint256"
        }
      ],
      "stateMutability": "view",
      "type": "function"
    },
    {
      "inputs": [],
      "name": "owner",
      "outputs": [
        {
          "internalType": "address",
          "name": "",
          "type": "address"
        }
      ],
      "stateMutability": "view",
      "type": "function"
    },
    {
      "inputs": [
        {
          "internalType": "address",
          "name": "_poolStakingAddress",
          "type": "address"
        }
      ],
      "name": "poolDelegators",
      "outputs": [
        {
          "internalType": "address[]",
          "name": "",
          "type": "address[]"
        }
      ],
      "stateMutability": "view",
      "type": "function"
    },
    {
      "inputs": [
        {
          "internalType": "address",
          "name": "_poolStakingAddress",
          "type": "address"
        }
      ],
      "name": "poolDelegatorsInactive",
      "outputs": [
        {
          "internalType": "address[]",
          "name": "",
          "type": "address[]"
        }
      ],
      "stateMutability": "view",
      "type": "function"
    },
    {
      "inputs": [
        {
          "internalType": "address",
          "name": "",
          "type": "address"
        }
      ],
      "name": "poolInfo",
      "outputs": [
        {
          "internalType": "bytes",
          "name": "publicKey",
          "type": "bytes"
        },
        {
          "internalType": "bytes16",
          "name": "internetAddress",
          "type": "bytes16"
        },
        {
          "internalType": "bytes2",
          "name": "port",
          "type": "bytes2"
        }
      ],
      "stateMutability": "view",
      "type": "function"
    },
    {
      "inputs": [
        {
          "internalType": "address",
          "name": "",
          "type": "address"
        }
      ],
      "name": "poolToBeElectedIndex",
      "outputs": [
        {
          "internalType": "uint256",
          "name": "",
          "type": "uint256"
        }
      ],
      "stateMutability": "view",
      "type": "function"
    },
    {
      "inputs": [],
      "name": "recoverAbandonedStakes",
      "outputs": [],
      "stateMutability": "nonpayable",
      "type": "function"
    },
    {
      "inputs": [
        {
          "internalType": "string",
          "name": "funcSelector",
          "type": "string"
        }
      ],
      "name": "removeAllowedChangeableParameter",
      "outputs": [],
      "stateMutability": "nonpayable",
      "type": "function"
    },
    {
      "inputs": [],
      "name": "removeMyPool",
      "outputs": [],
      "stateMutability": "nonpayable",
      "type": "function"
    },
    {
      "inputs": [
        {
          "internalType": "address",
          "name": "_stakingAddress",
          "type": "address"
        }
      ],
      "name": "removePool",
      "outputs": [],
      "stateMutability": "nonpayable",
      "type": "function"
    },
    {
      "inputs": [],
      "name": "removePools",
      "outputs": [],
      "stateMutability": "nonpayable",
      "type": "function"
    },
    {
      "inputs": [],
      "name": "renounceOwnership",
      "outputs": [],
      "stateMutability": "nonpayable",
      "type": "function"
    },
    {
      "inputs": [
        {
          "internalType": "address",
          "name": "_poolStakingAddress",
          "type": "address"
        },
        {
          "internalType": "uint256",
          "name": "_validatorMinRewardPercent",
          "type": "uint256"
        }
      ],
      "name": "restake",
      "outputs": [],
      "stateMutability": "payable",
      "type": "function"
    },
    {
      "inputs": [
        {
          "internalType": "string",
          "name": "setter",
          "type": "string"
        },
        {
          "internalType": "string",
          "name": "getter",
          "type": "string"
        },
        {
          "internalType": "uint256[]",
          "name": "params",
          "type": "uint256[]"
        }
      ],
      "name": "setAllowedChangeableParameter",
      "outputs": [],
      "stateMutability": "nonpayable",
      "type": "function"
    },
    {
      "inputs": [
        {
          "internalType": "uint256",
          "name": "_minStake",
          "type": "uint256"
        }
      ],
      "name": "setDelegatorMinStake",
      "outputs": [],
      "stateMutability": "nonpayable",
      "type": "function"
    },
    {
      "inputs": [
        {
          "internalType": "bytes",
          "name": "_publicKey",
          "type": "bytes"
        },
        {
          "internalType": "bytes16",
          "name": "_ip",
          "type": "bytes16"
        },
        {
          "internalType": "bytes2",
          "name": "_port",
          "type": "bytes2"
        }
      ],
      "name": "setPoolInfo",
      "outputs": [],
      "stateMutability": "nonpayable",
      "type": "function"
    },
    {
      "inputs": [
        {
          "internalType": "uint256",
          "name": "_timestamp",
          "type": "uint256"
        }
      ],
      "name": "setStakingEpochStartTime",
      "outputs": [],
      "stateMutability": "nonpayable",
      "type": "function"
    },
    {
      "inputs": [
        {
          "internalType": "uint256",
          "name": "_value",
          "type": "uint256"
        }
      ],
      "name": "setStakingFixedEpochDuration",
      "outputs": [],
      "stateMutability": "nonpayable",
      "type": "function"
    },
    {
      "inputs": [
        {
          "internalType": "uint256",
          "name": "_value",
          "type": "uint256"
        }
      ],
      "name": "setStakingTransitionTimeframeLength",
      "outputs": [],
      "stateMutability": "nonpayable",
      "type": "function"
    },
    {
      "inputs": [
        {
          "internalType": "address",
          "name": "_validatorAddress",
          "type": "address"
        },
        {
          "internalType": "bytes16",
          "name": "_ip",
          "type": "bytes16"
        },
        {
          "internalType": "bytes2",
          "name": "_port",
          "type": "bytes2"
        }
      ],
      "name": "setValidatorInternetAddress",
      "outputs": [],
      "stateMutability": "nonpayable",
      "type": "function"
    },
    {
      "inputs": [
        {
          "internalType": "uint256",
          "name": "_epoch",
          "type": "uint256"
        },
        {
          "internalType": "address",
          "name": "_stakingPool",
          "type": "address"
        }
      ],
      "name": "snapshotPoolStakeAmounts",
      "outputs": [],
      "stateMutability": "nonpayable",
      "type": "function"
    },
    {
      "inputs": [
        {
          "internalType": "uint256",
          "name": "",
          "type": "uint256"
        },
        {
          "internalType": "address",
          "name": "",
          "type": "address"
        }
      ],
      "name": "snapshotPoolTotalStakeAmount",
      "outputs": [
        {
          "internalType": "uint256",
          "name": "",
          "type": "uint256"
        }
      ],
      "stateMutability": "view",
      "type": "function"
    },
    {
      "inputs": [
        {
          "internalType": "uint256",
          "name": "",
          "type": "uint256"
        },
        {
          "internalType": "address",
          "name": "",
          "type": "address"
        }
      ],
      "name": "snapshotPoolValidatorStakeAmount",
      "outputs": [
        {
          "internalType": "uint256",
          "name": "",
          "type": "uint256"
        }
      ],
      "stateMutability": "view",
      "type": "function"
    },
    {
      "inputs": [
        {
          "internalType": "address",
          "name": "_toPoolStakingAddress",
          "type": "address"
        }
      ],
      "name": "stake",
      "outputs": [],
      "stateMutability": "payable",
      "type": "function"
    },
    {
      "inputs": [
        {
          "internalType": "address",
          "name": "",
          "type": "address"
        },
        {
          "internalType": "address",
          "name": "",
          "type": "address"
        }
      ],
      "name": "stakeAmount",
      "outputs": [
        {
          "internalType": "uint256",
          "name": "",
          "type": "uint256"
        }
      ],
      "stateMutability": "view",
      "type": "function"
    },
    {
      "inputs": [
        {
          "internalType": "address",
          "name": "_poolStakingAddress",
          "type": "address"
        },
        {
          "internalType": "address",
          "name": "_staker",
          "type": "address"
        }
      ],
      "name": "stakeAmountByCurrentEpoch",
      "outputs": [
        {
          "internalType": "uint256",
          "name": "",
          "type": "uint256"
        }
      ],
      "stateMutability": "view",
      "type": "function"
    },
    {
      "inputs": [
        {
          "internalType": "address",
          "name": "",
          "type": "address"
        }
      ],
      "name": "stakeAmountTotal",
      "outputs": [
        {
          "internalType": "uint256",
          "name": "",
          "type": "uint256"
        }
      ],
      "stateMutability": "view",
      "type": "function"
    },
    {
      "inputs": [],
      "name": "stakingEpoch",
      "outputs": [
        {
          "internalType": "uint256",
          "name": "",
          "type": "uint256"
        }
      ],
      "stateMutability": "view",
      "type": "function"
    },
    {
      "inputs": [],
      "name": "stakingEpochStartBlock",
      "outputs": [
        {
          "internalType": "uint256",
          "name": "",
          "type": "uint256"
        }
      ],
      "stateMutability": "view",
      "type": "function"
    },
    {
      "inputs": [],
      "name": "stakingEpochStartTime",
      "outputs": [
        {
          "internalType": "uint256",
          "name": "",
          "type": "uint256"
        }
      ],
      "stateMutability": "view",
      "type": "function"
    },
    {
      "inputs": [],
      "name": "stakingFixedEpochDuration",
      "outputs": [
        {
          "internalType": "uint256",
          "name": "",
          "type": "uint256"
        }
      ],
      "stateMutability": "view",
      "type": "function"
    },
    {
      "inputs": [],
      "name": "stakingFixedEpochEndTime",
      "outputs": [
        {
          "internalType": "uint256",
          "name": "",
          "type": "uint256"
        }
      ],
      "stateMutability": "view",
      "type": "function"
    },
    {
      "inputs": [],
      "name": "stakingTransitionTimeframeLength",
      "outputs": [
        {
          "internalType": "uint256",
          "name": "",
          "type": "uint256"
        }
      ],
      "stateMutability": "view",
      "type": "function"
    },
    {
      "inputs": [],
      "name": "stakingWithdrawDisallowPeriod",
      "outputs": [
        {
          "internalType": "uint256",
          "name": "",
          "type": "uint256"
        }
      ],
      "stateMutability": "view",
      "type": "function"
    },
    {
      "inputs": [],
      "name": "startTimeOfNextPhaseTransition",
      "outputs": [
        {
          "internalType": "uint256",
          "name": "",
          "type": "uint256"
        }
      ],
      "stateMutability": "view",
      "type": "function"
    },
    {
      "inputs": [
        {
          "internalType": "address",
          "name": "newOwner",
          "type": "address"
        }
      ],
      "name": "transferOwnership",
      "outputs": [],
      "stateMutability": "nonpayable",
      "type": "function"
    },
    {
      "inputs": [],
      "name": "validatorSetContract",
      "outputs": [
        {
          "internalType": "contract IValidatorSetHbbft",
          "name": "",
          "type": "address"
        }
      ],
      "stateMutability": "view",
      "type": "function"
    },
    {
      "inputs": [
        {
          "internalType": "address",
          "name": "_fromPoolStakingAddress",
          "type": "address"
        },
        {
          "internalType": "uint256",
          "name": "_amount",
          "type": "uint256"
        }
      ],
      "name": "withdraw",
      "outputs": [],
      "stateMutability": "nonpayable",
      "type": "function"
    },
    {
      "stateMutability": "payable",
      "type": "receive"
    }
  ],
  "bytecode": "0x6080604052348015600f57600080fd5b506016601a565b60ca565b7ff0c57e16840df040f15088dc2f81fe391c3923bec73e23a9662efc9c229c6a00805468010000000000000000900460ff161560695760405163f92ee8a960e01b815260040160405180910390fd5b80546001600160401b039081161460c75780546001600160401b0319166001600160401b0390811782556040519081527fc7f505b2f371ae2175ee4913f4499e1f2633a7b5936321eed1cdaeb6115181d29060200160405180910390a15b50565b61596b806100d96000396000f3fe6080604052600436106104845760003560e01c80638da5cb5b1161025e578063ba08d23711610143578063dfc8bf4e116100bb578063f07860961161008a578063f3fef3a31161006f578063f3fef3a314610df2578063f494250114610e12578063fa4aaf4714610e2657600080fd5b8063f078609614610dbc578063f2fde38b14610dd257600080fd5b8063dfc8bf4e14610d3a578063e9ab030014610d5a578063edd7db7514610d92578063ee435f5514610da757600080fd5b8063d0ac76f611610112578063da7a9b6a116100f7578063da7a9b6a14610ce2578063dadee88a14610cf8578063df6f55f514610d2557600080fd5b8063d0ac76f614610cad578063d290c21d14610ccd57600080fd5b8063ba08d23714610c38578063c6912cc014610c58578063c7fe832614610c6d578063cfef144114610c8d57600080fd5b8063a4205967116101d6578063adddc0cf116101a5578063b0bd5e9e1161018a578063b0bd5e9e14610bcb578063b61ed63a14610beb578063b710c15d14610c0b57600080fd5b8063adddc0cf14610ba0578063ae1aaf8014610bb557600080fd5b8063a420596714610afb578063a5d54f6514610b33578063a697ecff14610b48578063a711e6a114610b8057600080fd5b80639a7b5f111161022d5780639b9fb6d0116102125780639b9fb6d014610a9b5780639e72c63514610abb5780639ea8082b14610adb57600080fd5b80639a7b5f1114610a565780639b03d74414610a8557600080fd5b80638da5cb5b1461097957806392283634146109ca578063950a651314610a13578063957950a714610a3357600080fd5b80635267e1d611610384578063715018a6116102fc578063794c0c68116102cb5780637b15b94c116102b05780637b15b94c146109195780638247a23914610939578063862be2871461095957600080fd5b8063794c0c68146108e35780637b0a0f9b146108f957600080fd5b8063715018a614610828578063728345db1461083d57806373c2180314610873578063750dd2a11461089357600080fd5b80635d80ca3211610353578063673a2a1f11610338578063673a2a1f146107d05780636bda1577146107f25780637069e7461461081257600080fd5b80635d80ca32146107a45780635fef7643146107ba57600080fd5b80635267e1d61461072457806356e4d6c2146107515780635b4eafe0146107645780635cb092a21461078457600080fd5b80632bafde8d11610417578063379b046a116103e65780633f3afe01116103cb5780633f3afe01146106ce5780634e9b426d146106e15780634f9a8d8f1461070e57600080fd5b8063379b046a146106985780633b7d0946146106ae57600080fd5b80632bafde8d146106035780633219d6001461062357806336e98ca814610663578063371542631461068357600080fd5b806322704bdd1161045357806322704bdd1461059b57806322e3d986146105bb578063251441a9146105d057806326476204146105f057600080fd5b8063028b8bdb146104a75780631345b8a5146104d05780631555371c146105085780631fb31e431461051f57600080fd5b366104a257604051631574f9f360e01b815260040160405180910390fd5b600080fd5b3480156104b357600080fd5b506104bd60145481565b6040519081526020015b60405180910390f35b3480156104dc57600080fd5b506104bd6104eb366004614dff565b602160209081526000928352604080842090915290825290205481565b34801561051457600080fd5b5061051d610e53565b005b34801561052b57600080fd5b5061056961053a366004614e2f565b6001600160a01b03166000908152601d6020526040902060010154608081901b91600160801b90910460f01b90565b604080516fffffffffffffffffffffffffffffffff1990931683526001600160f01b03199091166020830152016104c7565b3480156105a757600080fd5b5061051d6105b6366004614e4c565b610ec5565b3480156105c757600080fd5b506104bd610f02565b3480156105dc57600080fd5b5061051d6105eb366004614e65565b610f49565b61051d6105fe366004614e2f565b611007565b34801561060f57600080fd5b5061051d61061e366004614e4c565b61108a565b34801561062f57600080fd5b5061065361063e366004614e2f565b601f6020526000908152604090205460ff1681565b60405190151581526020016104c7565b34801561066f57600080fd5b5061051d61067e366004614f5d565b61110a565b34801561068f57600080fd5b5061051d6111be565b3480156106a457600080fd5b506104bd601a5481565b3480156106ba57600080fd5b5061051d6106c9366004614e2f565b61159f565b61051d6106dc36600461504a565b6115d5565b3480156106ed57600080fd5b506107016106fc366004614e2f565b611925565b6040516104c791906150c6565b34801561071a57600080fd5b506104bd60165481565b34801561073057600080fd5b506104bd61073f366004614e2f565b601b6020526000908152604090205481565b61051d61075f366004615148565b6119d1565b34801561077057600080fd5b506104bd61077f366004614dff565b611b06565b34801561079057600080fd5b5061051d61079f366004614f5d565b611b30565b3480156107b057600080fd5b506104bd601e5481565b3480156107c657600080fd5b506104bd600d5481565b3480156107dc57600080fd5b506107e5611b38565b6040516104c791906151af565b3480156107fe57600080fd5b506104bd61080d3660046151fc565b611b49565b34801561081e57600080fd5b506104bd60195481565b34801561083457600080fd5b5061051d611cf0565b34801561084957600080fd5b506104bd610858366004614dff565b60208080526000928352604080842090915290825290205481565b34801561087f57600080fd5b506107e561088e366004614e2f565b611d04565b34801561089f57600080fd5b506104bd6108ae3660046151fc565b6001600160a01b039182166000908152600c602090815260408083209390941682529182528281206015548252909152205490565b3480156108ef57600080fd5b506104bd60155481565b34801561090557600080fd5b5061051d610914366004615242565b611d28565b34801561092557600080fd5b5061051d610934366004614e2f565b611da5565b34801561094557600080fd5b5061051d610954366004614e4c565b611e0c565b34801561096557600080fd5b5061051d610974366004615287565b611e3f565b34801561098557600080fd5b507f9016d09d72d40fdae2fd8ceac6b6234c7706214fd39c1cd1e609a0528c199300546001600160a01b03165b6040516001600160a01b0390911681526020016104c7565b3480156109d657600080fd5b506109fa6109e53660046152f9565b60006020819052908152604090205460e01b81565b6040516001600160e01b031990911681526020016104c7565b348015610a1f57600080fd5b506104bd610a2e3660046151fc565b611ea2565b348015610a3f57600080fd5b50610a48612017565b6040516104c7929190615350565b348015610a6257600080fd5b50610a76610a71366004614e2f565b61207a565b6040516104c793929190615372565b348015610a9157600080fd5b506104bd60185481565b348015610aa757600080fd5b5061051d610ab63660046153b9565b61212e565b348015610ac757600080fd5b5061051d610ad6366004614e4c565b6121ad565b348015610ae757600080fd5b506107e5610af6366004614e2f565b6121f8565b348015610b0757600080fd5b506104bd610b163660046151fc565b601160209081526000928352604080842090915290825290205481565b348015610b3f57600080fd5b506107e561221c565b348015610b5457600080fd5b506104bd610b633660046151fc565b601360209081526000928352604080842090915290825290205481565b348015610b8c57600080fd5b50610653610b9b366004614e2f565b61227e565b348015610bac57600080fd5b5061051d61228b565b348015610bc157600080fd5b506104bd60175481565b348015610bd757600080fd5b5061051d610be6366004614e4c565b6122d0565b348015610bf757600080fd5b5061051d610c0636600461504a565b6122ff565b348015610c1757600080fd5b50610c2b610c263660046153b9565b6126e4565b6040516104c791906153ee565b348015610c4457600080fd5b50610653610c5336600461541c565b61278c565b348015610c6457600080fd5b506104bd61295b565b348015610c7957600080fd5b5061051d610c8836600461547d565b61297a565b348015610c9957600080fd5b5061051d610ca8366004614e2f565b612f3d565b348015610cb957600080fd5b5061051d610cc8366004614dff565b6131b6565b348015610cd957600080fd5b506107e56132f5565b348015610cee57600080fd5b506104bd600e5481565b348015610d0457600080fd5b506104bd610d13366004614e2f565b60106020526000908152604090205481565b348015610d3157600080fd5b506107e5613301565b348015610d4657600080fd5b50601c546109b2906001600160a01b031681565b348015610d6657600080fd5b506104bd610d753660046151fc565b600f60209081526000928352604080842090915290825290205481565b348015610d9e57600080fd5b5061051d61330d565b348015610db357600080fd5b5061051d61344d565b348015610dc857600080fd5b506104bd610bb881565b348015610dde57600080fd5b5061051d610ded366004614e2f565b613493565b348015610dfe57600080fd5b5061051d610e0d36600461504a565b6134ce565b348015610e1e57600080fd5b506001610653565b348015610e3257600080fd5b506104bd610e41366004614e2f565b60126020526000908152604090205481565b601c546001600160a01b03163314610e7d576040516282b42960e81b815260040160405180910390fd5b6000610e896005613587565b905060005b8151811015610ec157610eb9828281518110610eac57610eac61552d565b602002602001015161359b565b600101610e8e565b5050565b610ecd6135e1565b600a81111580610edf57506016548110155b15610efd57604051638826666f60e01b815260040160405180910390fd5b601755565b6018546016546000919015610f18576001610f1b565b60005b60ff16601a5460165483610f2f9190615559565b610f399190615559565b610f43919061556c565b91505090565b3a600003610f6a57604051630e661aed60e41b815260040160405180910390fd5b816001600160a01b0316836001600160a01b031603610f9c57604051630a5eddd560e01b815260040160405180910390fd5b33610fa884828461363c565b610fb38382846138d1565b601554604080516001600160a01b0387811682526020820186905280851692908716917f4480d8e4b1e9095b94bf513961d26fe1d32386ebdd103d18fe8738cf4b2223ff910160405180910390a450505050565b3a60000361102857604051630e661aed60e41b815260040160405180910390fd5b33346110358383836138d1565b601554826001600160a01b0316846001600160a01b03167f2273de02cb1f69ba6259d22c4bc22c60e4c94c193265ef6afee324a04a9b6d228460405161107d91815260200190565b60405180910390a4505050565b6110926135e1565b806110a96000356001600160e01b0319168261278c565b6110ce576040516373330d9b60e01b8152600481018290526024015b60405180910390fd5b600e8290556040518281527ffee02ce7aa40f9c49eaabd26d404fa88714b97cb209af8954cfd5eeb8213b93e9060200160405180910390a15050565b6111126135e1565b60408051808201825283516020808601919091206001600160e01b031990811683528183018581528751888401209091166000908152808352939093208251815463ffffffff191660e09190911c1781559251805192939261117a9260018501920190614d70565b509050507f3d45a310c5a076ea07aa2947ca3c06cc2a8b3571065867ad6f8e7096a2c9d50a8383836040516111b19392919061557f565b60405180910390a1505050565b3a6000036111df57604051630e661aed60e41b815260040160405180910390fd5b6000806111ec6003613587565b9050805160000361121057604051631c369b4560e21b815260040160405180910390fd5b60005b81518110156113de5760008282815181106112305761123061552d565b6020026020010151905061124381613ca0565b806112b95750601c54604051639d6fc1d160e01b81526001600160a01b03838116600483015290911690639d6fc1d190602401602060405180830381865afa158015611293573d6000803e3d6000fd5b505050506040513d601f19601f820116820180604052508101906112b791906155b8565b155b156112c457506113d6565b6112cf600382613cde565b506001600160a01b0381166000908152601f60209081526040808320805460ff19166001179055601b90915281208054908290559061130d836121f8565b905060005b815181101561137857600082828151811061132f5761132f61552d565b6020908102919091018101516001600160a01b038088166000908152601384526040808220928416825291909352822091909155905061136f8582613cf3565b50600101611312565b506113838287615559565b9550826001600160a01b0316336001600160a01b03167f8e6a4ccd7dccdca9ac211d00fcc3fa7c71be75ff73d3a35f63ea023173cc1004846040516113ca91815260200190565b60405180910390a35050505b600101611213565b508160000361140057604051631c369b4560e21b815260040160405180910390fd5b600061140d6002846155f0565b9050600061141b828561556c565b90506000601c60009054906101000a90046001600160a01b03166001600160a01b03166356b54bae6040518163ffffffff1660e01b8152600401602060405180830381865afa158015611472573d6000803e3d6000fd5b505050506040513d601f19601f820116820180604052508101906114969190615612565b90506000816001600160a01b031663732524946040518163ffffffff1660e01b8152600401602060405180830381865afa1580156114d8573d6000803e3d6000fd5b505050506040513d601f19601f820116820180604052508101906114fc9190615612565b9050816001600160a01b031663af182535846040518263ffffffff1660e01b81526004016000604051808303818588803b15801561153957600080fd5b505af115801561154d573d6000803e3d6000fd5b505050505061155c8185613d55565b604080518481526020810186905233917f1c113e6bae9530fea40323e612aeb0cb7817dedb5a0b0f6bdfbff97d55920dc7910160405180910390a2505050505050565b601c546001600160a01b031633146115c9576040516282b42960e81b815260040160405180910390fd5b6115d28161359b565b50565b601c60009054906101000a90046001600160a01b03166001600160a01b03166356b54bae6040518163ffffffff1660e01b8152600401602060405180830381865afa158015611628573d6000803e3d6000fd5b505050506040513d601f19601f8201168201806040525081019061164c9190615612565b6001600160a01b0316336001600160a01b03161461167c576040516282b42960e81b815260040160405180910390fd5b3415610ec1576015546000818152602080805260408083206001600160a01b03871680855290835281842054948452602183528184209084529091528120543492918183111561185d5760006116d1876121f8565b905060006116df848661556c565b905060006116ed888361562f565b6116f889606461556c565b611702908761562f565b1190506117128186888a8c613e01565b935060005b8351811015611854576000611755838961174d6015548f8a88815181106117405761174061552d565b6020026020010151613e50565b878d8f613ef1565b905080601360008d6001600160a01b03166001600160a01b0316815260200190815260200160002060008785815181106117915761179161552d565b60200260200101516001600160a01b03166001600160a01b0316815260200190815260200160002060008282546117c89190615559565b90915550506001600160a01b038b166000908152600c6020526040812086518392908890869081106117fc576117fc61552d565b60200260200101516001600160a01b03166001600160a01b031681526020019081526020016000206000601554815260200190815260200160002060008282546118469190615559565b909155505050600101611717565b50505050611860565b50825b6001600160a01b038616600090815260136020908152604080832090915281208054839290611890908490615559565b90915550506001600160a01b0386166000908152601b6020526040812080548692906118bd908490615559565b909155506118cc905086613f5f565b6015546001600160a01b0387167f72093068b9f28053bd924ac15d7710b987f9b6ef1e0f89f47d8b4bd7cac776dc83611905818961556c565b6040805192835260208301919091520160405180910390a3505050505050565b6001600160a01b0381166000908152601d6020526040902080546060919061194c90615646565b80601f016020809104026020016040519081016040528092919081815260200182805461197890615646565b80156119c55780601f1061199a576101008083540402835291602001916119c5565b820191906000526020600020905b8154815290600101906020018083116119a857829003601f168201915b50505050509050919050565b3a6000036119f257604051630e661aed60e41b815260040160405180910390fd5b601c54604051630526083960e11b81526001600160a01b0386811660048301523360248301819052923492911690630a4c107290604401600060405180830381600087803b158015611a4357600080fd5b505af1158015611a57573d6000803e3d6000fd5b50505050611a668283836138d1565b6001600160a01b0382166000908152601d60205260409020611a898587836156d0565b506001600160a01b0382166000818152601d602090815260409182902060010180546fffffffffffffffffffffffffffffffff1916608088901c179055601554915184815291929182917f2273de02cb1f69ba6259d22c4bc22c60e4c94c193265ef6afee324a04a9b6d22910160405180910390a4505050505050565b60008281526021602090815260408083206001600160a01b03851684529091529020545b92915050565b61111261402d565b6060611b446001613587565b905090565b601c546040516253517560e01b81526001600160a01b03848116600483015260009283929116906253517590602401602060405180830381865afa158015611b95573d6000803e3d6000fd5b505050506040513d601f19601f82011682018060405250810190611bb99190615612565b9050611bda81846001600160a01b0316866001600160a01b0316141561407b565b1580611bfe57506001600160a01b0384166000908152601f602052604090205460ff165b15611c0d576000915050611b2a565b6001600160a01b03848116600090815260136020908152604080832087851684529091529081902054601c54915163a0d16cad60e01b815284841660048201529092919091169063a0d16cad90602401602060405180830381865afa158015611c7a573d6000803e3d6000fd5b505050506040513d601f19601f82011682018060405250810190611c9e91906155b8565b611cab579150611b2a9050565b6001600160a01b038581166000908152600c60209081526040808320938816835292815282822060155483529052205480821115611ce7578091505b50949350505050565b611cf86135e1565b611d026000614185565b565b6001600160a01b0381166000908152600b60205260409020606090611b2a90613587565b601c546001600160a01b03163314611d52576040516282b42960e81b815260040160405180910390fd5b6001600160a01b039092166000908152601d60205260409020600101805460f09390931c600160801b0271ffffffffffffffffffffffffffffffffffff1990931660809290921c91909117919091179055565b601c546001600160a01b03163314611dcf576040516282b42960e81b815260040160405180910390fd5b600d546001600160a01b0382166000908152601360209081526040808320909152902054106115d257611e038160016141f6565b6115d281613f5f565b601c546001600160a01b03163314611e36576040516282b42960e81b815260040160405180910390fd5b60185543601955565b336000908152601d60205260409020611e598486836156d0565b50336000908152601d60205260409020600101805460f09290921c600160801b0271ffffffffffffffffffffffffffffffffffff1990921660809390931c929092171790555050565b601c546040516253517560e01b81526001600160a01b03848116600483015260009283929116906253517590602401602060405180830381865afa158015611eee573d6000803e3d6000fd5b505050506040513d601f19601f82011682018060405250810190611f129190615612565b9050611f3381846001600160a01b0316866001600160a01b0316141561407b565b611f41576000915050611b2a565b601c5460405163a0d16cad60e01b81526001600160a01b0383811660048301529091169063a0d16cad90602401602060405180830381865afa158015611f8b573d6000803e3d6000fd5b505050506040513d601f19601f82011682018060405250810190611faf91906155b8565b611fbd576000915050611b2a565b6001600160a01b038481166000818152600c60209081526040808320948816808452948252808320601554845282528083205493835260138252808320948352939052919091205461200f919061556c565b949350505050565b6060600060086009548180548060200260200160405190810160405280929190818152602001828054801561206b57602002820191906000526020600020905b815481526020019060010190808311612057575b50505050509150915091509091565b601d6020526000908152604090208054819061209590615646565b80601f01602080910402602001604051908101604052809291908181526020018280546120c190615646565b801561210e5780601f106120e35761010080835404028352916020019161210e565b820191906000526020600020905b8154815290600101906020018083116120f157829003601f168201915b50505060019093015491925050608081901b90600160801b900460f01b83565b6121366135e1565b80516020808301919091206001600160e01b03191660009081529081905260408120805463ffffffff19168155906121716001830182614dbb565b50507f92d44565a40fe29702ffa146ddaa3bb133d4077f5312d682d0a2632a9bc73a8a816040516121a291906150c6565b60405180910390a150565b601c546001600160a01b031633146121d7576040516282b42960e81b815260040160405180910390fd5b60175481601a546121e89190615559565b6121f29190615559565b601a5550565b6001600160a01b0381166000908152600a60205260409020606090611b2a90613587565b6060600780548060200260200160405190810160405280929190818152602001828054801561227457602002820191906000526020600020905b81546001600160a01b03168152600190910190602001808311612256575b5050505050905090565b6000611b2a600183614256565b601c546001600160a01b031633146122b5576040516282b42960e81b815260040160405180910390fd5b601754601a60008282546122c99190615559565b9091555050565b6122d86135e1565b60175481116122fa5760405163160ac89160e31b815260040160405180910390fd5b601655565b3a60000361232057604051630e661aed60e41b815260040160405180910390fd5b6001600160a01b0382166123475760405163d92e233d60e01b815260040160405180910390fd5b8060000361236857604051633ca0029d60e01b815260040160405180910390fd5b601c546040516253517560e01b81526001600160a01b03848116600483015233926123f4929116906253517590602401602060405180830381865afa1580156123b5573d6000803e3d6000fd5b505050506040513d601f19601f820116820180604052508101906123d99190615612565b846001600160a01b0316836001600160a01b0316141561407b565b612411576040516315e34e0560e01b815260040160405180910390fd5b6001600160a01b038084166000818152600f602090815260408083209486168084529482528083205484845260108352818420546013845282852096855295835281842054948452601b90925282205490939291861315612507578560006124798988611ea2565b9050808211156124a657604051632de4882160e01b815260048101829052602481018390526044016110c5565b6124b08287615559565b95506124bc8286615559565b94506124c8828561556c565b93506124d4828461556c565b6015546001600160a01b03808c166000908152601160209081526040808320938d16835292905220559250612546915050565b600061251287615790565b905061251e818661556c565b945061252a818561556c565b93506125368184615559565b92506125428183615559565b9150505b6001600160a01b038088166000818152600f60209081526040808320948a1680845294825280832089905583835260108252808320889055601382528083208584528252808320879055838352601b909152902083905590036126155781158015906125b35750600d5482105b156125eb57604051636fe84f3d60e01b81526001600160a01b03808916600483015286166024820152604481018790526064016110c5565b600086131561260a57816000036126055761260587614278565b612682565b6126058760016141f6565b81158015906126255750600e5482105b1561265d57604051636fe84f3d60e01b81526001600160a01b03808916600483015286166024820152604481018790526064016110c5565b60008613156126785781600003612605576126058786613cf3565b612682878661428d565b61268b87613f5f565b601554856001600160a01b0316886001600160a01b03167f80d5c777e5f7ac6ee89723223803ca5c0ec0204f89e99c1b0cde973c66a64594896040516126d391815260200190565b60405180910390a450505050505050565b60408051808201909152600081526060602082015281516020808401919091206001600160e01b0319908116600090815280835260409081902081518083018352815460e01b909316835260018101805483518187028101870190945280845293949193858301939283018282801561277c57602002820191906000526020600020905b815481526020019060010190808311612768575b5050505050815250509050919050565b6001600160e01b031980831660009081526020818152604080832081518083018352815460e01b90951685526001810180548351818602810186019094528084529495869590949293858401939092919083018282801561280c57602002820191906000526020600020905b8154815260200190600101908083116127f8575b505050505081525050905080602001515160000361282e576000915050611b2a565b60208101518151600090612841906142ba565b905060005b825181101561294e57818382815181106128625761286261552d565b602002602001015103612946576000808211612898578360008151811061288b5761288b61552d565b60200260200101516128bd565b836128a460018461556c565b815181106128b4576128b461552d565b60200260200101515b90506000600185516128cf919061556c565b83106129015784600186516128e4919061556c565b815181106128f4576128f461552d565b6020026020010151612926565b8461290d846001615559565b8151811061291d5761291d61552d565b60200260200101515b90508188141580156129385750808814155b159650505050505050611b2a565b600101612846565b5060009695505050505050565b60006017546016546018546129709190615559565b611b44919061556c565b7ff0c57e16840df040f15088dc2f81fe391c3923bec73e23a9662efc9c229c6a00805468010000000000000000810460ff16159067ffffffffffffffff166000811580156129c55750825b905060008267ffffffffffffffff1660011480156129e25750303b155b9050811580156129f0575080155b15612a0e5760405163f92ee8a960e01b815260040160405180910390fd5b845467ffffffffffffffff191660011785558315612a4257845468ff00000000000000001916680100000000000000001785555b6001600160a01b038b16612a695760405163d92e233d60e01b815260040160405180910390fd5b612a728a614388565b87612a8060208c018c6157ac565b612a8c9150600261562f565b14612aa95760405162d6988760e81b815260040160405180910390fd5b85612ab760208c018c6157ac565b905014612ad7576040516320041afd60e01b815260040160405180910390fd5b612ae08b6144e9565b612ae86144fa565b612af560208b018b614e2f565b601c80546001600160a01b0319166001600160a01b0392909216919091179055366000612b2560208d018d6157ac565b9150915060005b81811015612d48576000838383818110612b4857612b4861552d565b9050602002016020810190612b5d9190614e2f565b6001600160a01b031603612b845760405163d92e233d60e01b815260040160405180910390fd5b612bb5838383818110612b9957612b9961552d565b9050602002016020810190612bae9190614e2f565b60006141f6565b612be4838383818110612bca57612bca61552d565b9050602002016020810190612bdf9190614e2f565b614278565b8b8b612bf183600261562f565b818110612c0057612c0061552d565b905060200201358c8c836002612c16919061562f565b612c21906001615559565b818110612c3057612c3061552d565b90506020020135604051602001612c51929190918252602082015260400190565b604051602081830303815290604052601d6000858585818110612c7657612c7661552d565b9050602002016020810190612c8b9190614e2f565b6001600160a01b03168152602081019190915260400160002090612caf90826157f6565b50898982818110612cc257612cc261552d565b9050602002016020810190612cd791906158b6565b601d6000858585818110612ced57612ced61552d565b9050602002016020810190612d029190614e2f565b6001600160a01b031681526020810191909152604001600020600190810180546fffffffffffffffffffffffffffffffff191660809390931c9290921790915501612b2c565b5060408051600580825260c082019092526000916020820160a0803683370190505090506802b5e3af16b188000081600081518110612d8957612d8961552d565b60200260200101818152505068056bc75e2d6310000081600181518110612db257612db261552d565b602002602001018181525050680821ab0d441498000081600281518110612ddb57612ddb61552d565b602002602001018181525050680ad78ebc5ac620000081600381518110612e0457612e0461552d565b602002602001018181525050680d8d726b7177a8000081600481518110612e2d57612e2d61552d565b602002602001018181525050612eae6040518060400160405280601d81526020017f73657444656c656761746f724d696e5374616b652875696e74323536290000008152506040518060400160405280601381526020017f64656c656761746f724d696e5374616b6528290000000000000000000000000081525083611b30565b50505060408a0135600e5560608a0135600d5560808a0135601e5560a08a013560165560e08a01356014554260185560c08a01356017558315612f3057845468ff000000000000000019168555604051600181527fc7f505b2f371ae2175ee4913f4499e1f2633a7b5936321eed1cdaeb6115181d29060200160405180910390a15b5050505050505050505050565b3a600003612f5e57604051630e661aed60e41b815260040160405180910390fd5b612f6661450a565b6001600160a01b03811660009081526011602090815260408083203380855292529091205460155411612fbf57604051630b06352b60e31b81526001600160a01b038084166004830152821660248201526044016110c5565b601c546040516253517560e01b81526001600160a01b0384811660048301526130489216906253517590602401602060405180830381865afa158015613009573d6000803e3d6000fd5b505050506040513d601f19601f8201168201806040525081019061302d9190615612565b836001600160a01b0316836001600160a01b0316141561407b565b613065576040516315e34e0560e01b815260040160405180910390fd5b6001600160a01b038083166000908152600f60209081526040808320938516835292905290812054908190036130ae57604051633ca0029d60e01b815260040160405180910390fd5b6001600160a01b038084166000818152600f602090815260408083209487168352938152838220829055918152601090915220546130ed90829061556c565b6001600160a01b0380851660009081526010602090815260408083209490945560138152838220928616825291909152908120549003613131576131318383614554565b61313b8282613d55565b601554826001600160a01b0316846001600160a01b03167ff380b0bc887e00f5b50d3c9d4eaaf5c9a0afd97b956316b995159384c4ede9b38460405161318391815260200190565b60405180910390a450506115d260017f9b779b17422d0df92223018b32b4d1fa46e071723d6817e2486d003becc55f0055565b601c60009054906101000a90046001600160a01b03166001600160a01b03166356b54bae6040518163ffffffff1660e01b8152600401602060405180830381865afa158015613209573d6000803e3d6000fd5b505050506040513d601f19601f8201168201806040525081019061322d9190615612565b6001600160a01b0316336001600160a01b03161461325d576040516282b42960e81b815260040160405180910390fd5b6000828152602080805260408083206001600160a01b03851684529091528120549003610ec1576001600160a01b0381166000908152601b6020526040812054908190036132aa57505050565b6000838152602080805260408083206001600160a01b038616808552908352818420949094556013825280832082528083205486845260218352818420948452939091529020555050565b6060611b446005613587565b6060611b446003613587565b3a60000361332e57604051630e661aed60e41b815260040160405180910390fd5b601c546040516253517560e01b81523360048201819052916000916001600160a01b03909116906253517590602401602060405180830381865afa15801561337a573d6000803e3d6000fd5b505050506040513d601f19601f8201168201806040525081019061339e9190615612565b9050601554600014801561341b5750601c5460405163facd743b60e01b81526001600160a01b0383811660048301529091169063facd743b90602401602060405180830381865afa1580156133f7573d6000803e3d6000fd5b505050506040513d601f19601f8201168201806040525081019061341b91906155b8565b15613444576040516303d71f2d60e51b81526001600160a01b03831660048201526024016110c5565b610ec18261359b565b601c546001600160a01b03163314613477576040516282b42960e81b815260040160405180910390fd5b60158054906000613487836158d1565b90915550506000601a55565b61349b6135e1565b6001600160a01b0381166134c557604051631e4fbdf760e01b8152600060048201526024016110c5565b6115d281614185565b3a6000036134ef57604051630e661aed60e41b815260040160405180910390fd5b6134f761450a565b3361350383828461363c565b61350d8183613d55565b601554816001600160a01b0316846001600160a01b03167fa7c0f0cac6bd4d18042007706c84a8abe823751cf289b69c01e83eef7b5915c78560405161355591815260200190565b60405180910390a450610ec160017f9b779b17422d0df92223018b32b4d1fa46e071723d6817e2486d003becc55f0055565b60606000613594836146aa565b9392505050565b6135a6600182613cde565b506135b081613ca0565b156135c6576135c0600382613cde565b506135cf565b6135cf81614705565b6135d881614710565b6115d28161492d565b336136137f9016d09d72d40fdae2fd8ceac6b6234c7706214fd39c1cd1e609a0528c199300546001600160a01b031690565b6001600160a01b031614611d025760405163118cdaa760e01b81523360048201526024016110c5565b6001600160a01b0383166136635760405163d92e233d60e01b815260040160405180910390fd5b8060000361368457604051633ca0029d60e01b815260040160405180910390fd5b60006136908484611b49565b9050808211156136bd57604051632de4882160e01b815260048101829052602481018390526044016110c5565b6001600160a01b0380851660009081526013602090815260408083209387168352929052908120546136f090849061556c565b90506000846001600160a01b0316866001600160a01b03161461371557600e54613719565b600d545b9050811580159061372957508082105b1561376157604051639e612d5760e01b81526001600160a01b03808816600483015286166024820152604481018590526064016110c5565b856001600160a01b0316856001600160a01b0316146137f657601c546040516253517560e01b81526001600160a01b03888116600483015260009216906253517590602401602060405180830381865afa1580156137c3573d6000803e3d6000fd5b505050506040513d601f19601f820116820180604052508101906137e79190615612565b90506137f4878288614938565b505b6001600160a01b038681166000818152601360209081526040808320948a16808452948252808320879055928252600c815282822093825292835281812060155482529092529020548481101561384e576000613858565b613858858261556c565b6001600160a01b038089166000818152600c60209081526040808320948c1683529381528382206015548352815283822094909455908152601b909252812080548792906138a790849061556c565b909155505060008390036138bf576138bf8787614554565b6138c887613f5f565b50505050505050565b6001600160a01b0383166138f85760405163d92e233d60e01b815260040160405180910390fd5b601c546040516253517560e01b81526001600160a01b03858116600483015260009216906253517590602401602060405180830381865afa158015613941573d6000803e3d6000fd5b505050506040513d601f19601f820116820180604052508101906139659190615612565b90506001600160a01b03811661399957604051632670461960e11b81526001600160a01b03851660048201526024016110c5565b816000036139cd5760405163e59f5c3960e01b81526001600160a01b038086166004830152841660248201526044016110c5565b601c54604051635491295760e11b81526001600160a01b0383811660048301529091169063a92252ae90602401602060405180830381865afa158015613a17573d6000803e3d6000fd5b505050506040513d601f19601f82011682018060405250810190613a3b91906155b8565b15613a6457604051631ccf966d60e21b81526001600160a01b03851660048201526024016110c5565b6001600160a01b0384166000908152601f602052604090205460ff1615613aa95760405163078137eb60e41b81526001600160a01b03851660048201526024016110c5565b6001600160a01b038085166000818152601360209081526040808320948816808452949091528120549290911491613ae2908590615559565b905060008215613af55750600d54613b44565b50600e546001600160a01b03871660009081526013602090815260408083209091528120549003613b445760405163cbbeb0bd60e01b81526001600160a01b03881660048201526024016110c5565b80821015613b785760405163e59f5c3960e01b81526001600160a01b038089166004830152871660248201526044016110c5565b601e546001600160a01b0388166000908152601b6020526040902054613b9f908790615559565b1115613bd157604051632c2b174160e21b81526001600160a01b038089166004830152871660248201526044016110c5565b6001600160a01b038088166000908152600c60209081526040808320938a168352928152828220601554835290529081208054879290613c12908490615559565b90915550506001600160a01b0387166000908152601b602052604081208054879290613c3f908490615559565b90915550508215613c5a57613c558760016141f6565b613c6f565b613c64878761428d565b613c6f878588614938565b6001600160a01b038088166000908152601360209081526040808320938a168352929052208290556138c887613f5f565b6001600160a01b0381166000908152601b6020526040812054158015611b2a5750506001600160a01b03166000908152601060205260409020541590565b6000613594836001600160a01b038416614a54565b6001600160a01b0382166000908152600a60205260409020613d159082613cde565b506001600160a01b038083166000908152600f602090815260408083209385168352929052205415613d4b57610ec18282614b47565b610ec18282614b69565b80471015613d7657604051631e9acf1760e31b815260040160405180910390fd5b6000826001600160a01b03168260405160006040518083038185875af1925050503d8060008114613dc3576040519150601f19603f3d011682016040523d82523d6000602084013e613dc8565b606091505b5050905080613dfc57604051630e21dcbb60e11b81526001600160a01b0384166004820152602481018390526044016110c5565b505050565b6000841580613e0e575083155b15613e1b57506000613e47565b60008615613e3c578486850281613e3457613e346155da565b049050613e44565b506064828402045b90505b95945050505050565b600083600003613e6257506000613594565b6001600160a01b03808416600090815260236020908152604080832093861683529290522054849003613ec357506001600160a01b038083166000908152602260209081526040808320938516835292815282822086835290522054613594565b506001600160a01b038083166000908152601360209081526040808320938516835292905220549392505050565b6000841580613efe575083155b80613f07575085155b15613f1457506000613f55565b60008715613f35578686850281613f2d57613f2d6155da565b049050613f52565b84606402836064038786020281613f4e57613f4e6155da565b0490505b90505b9695505050505050565b600080613f6b83614b8b565b9150915081613f7957505050565b600060088281548110613f8e57613f8e61552d565b906000526020600020015490506000601b6000866001600160a01b03166001600160a01b031681526020019081526020016000205490508060088481548110613fd957613fd961552d565b60009182526020909120015581811061400b57613ff6828261556c565b6009546140039190615559565b600955614026565b614015818361556c565b600954614022919061556c565b6009555b5050505050565b7ff0c57e16840df040f15088dc2f81fe391c3923bec73e23a9662efc9c229c6a005468010000000000000000900460ff16611d0257604051631afcd79f60e31b815260040160405180910390fd5b6000811561410357601c5460405163a881c5fd60e01b81526001600160a01b0385811660048301529091169063a881c5fd90602401602060405180830381865afa1580156140cd573d6000803e3d6000fd5b505050506040513d601f19601f820116820180604052508101906140f191906155b8565b156140fe57506000611b2a565b61417e565b601c54604051635491295760e11b81526001600160a01b0385811660048301529091169063a92252ae90602401602060405180830381865afa15801561414d573d6000803e3d6000fd5b505050506040513d601f19601f8201168201806040525081019061417191906155b8565b1561417e57506000611b2a565b6001613594565b7f9016d09d72d40fdae2fd8ceac6b6234c7706214fd39c1cd1e609a0528c19930080546001600160a01b031981166001600160a01b03848116918217845560405192169182907f8be0079c531659141344cd1fd0a4f28419497f9722a3daafe3b4186f6b6457e090600090a3505050565b6141ff8261227e565b61423b5761420e600183614bfd565b50610bb861421c6001614c12565b111561423b5760405163398dcd9d60e21b815260040160405180910390fd5b614246600383613cde565b508015610ec157610ec182614c1c565b6001600160a01b03811660009081526001830160205260408120541515613594565b614283600582614bfd565b506115d281614710565b6001600160a01b0382166000908152600a602052604090206142af9082614bfd565b50610ec18282614b69565b60408051600481526024810182526020810180517bffffffffffffffffffffffffffffffffffffffffffffffffffffffff166001600160e01b031985161790529051600091908290819030906143119085906158ea565b600060405180830381855afa9150503d806000811461434c576040519150601f19603f3d011682016040523d82523d6000602084013e614351565b606091505b50915091508161437457604051635fbab09b60e11b815260040160405180910390fd5b80806020019051810190613e479190615906565b60a081013515806143a157508060e001358160a0013511155b156143bf5760405163c671116b60e01b815260040160405180910390fd5b8060e001356000036143e4576040516332154b4760e01b815260040160405180910390fd5b60c081013515806143fd57508060a001358160c0013510155b1561441b57604051630685efe960e01b815260040160405180910390fd5b600061442a6020830183614e2f565b6001600160a01b0316036144515760405163d92e233d60e01b815260040160405180910390fd5b61445e60208201826157ac565b905060000361448057604051635c9a24ed60e11b815260040160405180910390fd5b6040810135158061449357506060810135155b156144c1576040805163633373e160e11b8152606083013560048201529082013560248201526044016110c5565b80606001358160800135116115d257604051631c6d3b1560e01b815260040160405180910390fd5b6144f161402d565b6115d281614d11565b61450261402d565b611d02614d19565b7f9b779b17422d0df92223018b32b4d1fa46e071723d6817e2486d003becc55f0080546001190161454e57604051633ee5aeb560e01b815260040160405180910390fd5b60029055565b816001600160a01b0316816001600160a01b03160361466157601c546040516253517560e01b81526001600160a01b03848116600483015260009216906253517590602401602060405180830381865afa1580156145b6573d6000803e3d6000fd5b505050506040513d601f19601f820116820180604052508101906145da9190615612565b601c5460405163facd743b60e01b81526001600160a01b03808416600483015292935091169063facd743b90602401602060405180830381865afa158015614626573d6000803e3d6000fd5b505050506040513d601f19601f8201168201806040525081019061464a91906155b8565b1561465857613dfc83614278565b613dfc8361359b565b61466b8282613cf3565b61467482613ca0565b15610ec157613dfc600383613cde565b60017f9b779b17422d0df92223018b32b4d1fa46e071723d6817e2486d003becc55f0055565b6060816000018054806020026020016040519081016040528092919081815260200182805480156119c557602002820191906000526020600020905b8154815260200190600101908083116146e65750505050509050919050565b610ec1600382614bfd565b6008546007541461471e5750565b6001600160a01b038116600090815260126020526040902054600754811080156147775750816001600160a01b0316600782815481106147605761476061552d565b6000918252602090912001546001600160a01b0316145b15610ec1576008818154811061478f5761478f61552d565b9060005260206000200154600954106147dc57600881815481106147b5576147b561552d565b9060005260206000200154600960008282546147d1919061556c565b909155506147e29050565b60006009555b6007546000906147f49060019061556c565b905060006007828154811061480b5761480b61552d565b600091825260209091200154600780546001600160a01b03909216925082918590811061483a5761483a61552d565b9060005260206000200160006101000a8154816001600160a01b0302191690836001600160a01b031602179055506008828154811061487b5761487b61552d565b9060005260206000200154600884815481106148995761489961552d565b60009182526020808320909101929092556001600160a01b0380841682526012909252604080822086905591861681529081205560078054806148de576148de61591f565b600082815260209020810160001990810180546001600160a01b031916905501905560088054806149115761491161591f565b6001900381819060005260206000200160009055905550505050565b610ec1600582613cde565b601c5460405163a0d16cad60e01b81526001600160a01b0384811660048301529091169063a0d16cad90602401602060405180830381865afa158015614982573d6000803e3d6000fd5b505050506040513d601f19601f820116820180604052508101906149a691906155b8565b15806149b25750601554155b156149bc57505050565b6001600160a01b03808416600090815260236020908152604080832093851683529290522054601554811015614a4e576001600160a01b0380851660008181526013602090815260408083209487168084529482528083205484845260228352818420868552835281842060158054865290845282852091909155549383526023825280832094835293905291909120555b50505050565b60008181526001830160205260408120548015614b3d576000614a7860018361556c565b8554909150600090614a8c9060019061556c565b9050808214614af1576000866000018281548110614aac57614aac61552d565b9060005260206000200154905080876000018481548110614acf57614acf61552d565b6000918252602080832090910192909255918252600188019052604090208390555b8554869080614b0257614b0261591f565b600190038181906000526020600020016000905590558560010160008681526020019081526020016000206000905560019350505050611b2a565b6000915050611b2a565b6001600160a01b0382166000908152600b60205260409020613dfc9082614bfd565b6001600160a01b0382166000908152600b60205260409020613dfc9082613cde565b6001600160a01b03811660009081526012602052604081205460075481108015614be45750826001600160a01b031660078281548110614bcd57614bcd61552d565b6000918252602090912001546001600160a01b0316145b15614bf25760019150915091565b506000928392509050565b6000613594836001600160a01b038416614d21565b6000611b2a825490565b6001600160a01b0381166000908152601260205260409020546007548082101580614c775750826001600160a01b031660078381548110614c5f57614c5f61552d565b6000918252602090912001546001600160a01b031614155b15614d08576001600160a01b03831660008181526012602052604081208390556007805460018181019092557fa66cc928b5edb82af9bd49922954155ab7b0942694bea4ce44661d9a8736c6880180546001600160a01b03191690931790925560088054928301815581527ff3f7a9fe364faab93b216da50a3214154f22a0a2b415b23a84c8169e8b636ee3909101555b613dfc8361492d565b61349b61402d565b61468461402d565b6000818152600183016020526040812054614d6857508154600181810184556000848152602080822090930184905584548482528286019093526040902091909155611b2a565b506000611b2a565b828054828255906000526020600020908101928215614dab579160200282015b82811115614dab578251825591602001919060010190614d90565b50614db7929150614dd5565b5090565b50805460008255906000526020600020908101906115d291905b5b80821115614db75760008155600101614dd6565b6001600160a01b03811681146115d257600080fd5b60008060408385031215614e1257600080fd5b823591506020830135614e2481614dea565b809150509250929050565b600060208284031215614e4157600080fd5b813561359481614dea565b600060208284031215614e5e57600080fd5b5035919050565b600080600060608486031215614e7a57600080fd5b8335614e8581614dea565b92506020840135614e9581614dea565b929592945050506040919091013590565b634e487b7160e01b600052604160045260246000fd5b604051601f8201601f1916810167ffffffffffffffff81118282101715614ee557614ee5614ea6565b604052919050565b600082601f830112614efe57600080fd5b813567ffffffffffffffff811115614f1857614f18614ea6565b614f2b601f8201601f1916602001614ebc565b818152846020838601011115614f4057600080fd5b816020850160208301376000918101602001919091529392505050565b600080600060608486031215614f7257600080fd5b833567ffffffffffffffff80821115614f8a57600080fd5b614f9687838801614eed565b9450602091508186013581811115614fad57600080fd5b614fb988828901614eed565b945050604086013581811115614fce57600080fd5b8601601f81018813614fdf57600080fd5b803582811115614ff157614ff1614ea6565b8060051b9250615002848401614ebc565b818152928201840192848101908a85111561501c57600080fd5b928501925b8484101561503a57833582529285019290850190615021565b8096505050505050509250925092565b6000806040838503121561505d57600080fd5b823561506881614dea565b946020939093013593505050565b60005b83811015615091578181015183820152602001615079565b50506000910152565b600081518084526150b2816020860160208601615076565b601f01601f19169290920160200192915050565b602081526000613594602083018461509a565b60008083601f8401126150eb57600080fd5b50813567ffffffffffffffff81111561510357600080fd5b60208301915083602082850101111561511b57600080fd5b9250929050565b80356fffffffffffffffffffffffffffffffff198116811461514357600080fd5b919050565b6000806000806060858703121561515e57600080fd5b843561516981614dea565b9350602085013567ffffffffffffffff81111561518557600080fd5b615191878288016150d9565b90945092506151a4905060408601615122565b905092959194509250565b6020808252825182820181905260009190848201906040850190845b818110156151f05783516001600160a01b0316835292840192918401916001016151cb565b50909695505050505050565b6000806040838503121561520f57600080fd5b823561521a81614dea565b91506020830135614e2481614dea565b80356001600160f01b03198116811461514357600080fd5b60008060006060848603121561525757600080fd5b833561526281614dea565b925061527060208501615122565b915061527e6040850161522a565b90509250925092565b6000806000806060858703121561529d57600080fd5b843567ffffffffffffffff8111156152b457600080fd5b6152c0878288016150d9565b90955093506152d3905060208601615122565b91506151a46040860161522a565b80356001600160e01b03198116811461514357600080fd5b60006020828403121561530b57600080fd5b613594826152e1565b60008151808452602080850194506020840160005b8381101561534557815187529582019590820190600101615329565b509495945050505050565b6040815260006153636040830185615314565b90508260208301529392505050565b606081526000615385606083018661509a565b6fffffffffffffffffffffffffffffffff19949094166020830152506001600160f01b031991909116604090910152919050565b6000602082840312156153cb57600080fd5b813567ffffffffffffffff8111156153e257600080fd5b61200f84828501614eed565b602080825282516001600160e01b0319168282015282015160408083015260009061200f6060840182615314565b6000806040838503121561542f57600080fd5b615068836152e1565b60008083601f84011261544a57600080fd5b50813567ffffffffffffffff81111561546257600080fd5b6020830191508360208260051b850101111561511b57600080fd5b6000806000806000806080878903121561549657600080fd5b86356154a181614dea565b9550602087013567ffffffffffffffff808211156154be57600080fd5b90880190610100828b0312156154d357600080fd5b909550604088013590808211156154e957600080fd5b6154f58a838b01615438565b9096509450606089013591508082111561550e57600080fd5b5061551b89828a01615438565b979a9699509497509295939492505050565b634e487b7160e01b600052603260045260246000fd5b634e487b7160e01b600052601160045260246000fd5b80820180821115611b2a57611b2a615543565b81810381811115611b2a57611b2a615543565b606081526000615592606083018661509a565b82810360208401526155a4818661509a565b90508281036040840152613f558185615314565b6000602082840312156155ca57600080fd5b8151801515811461359457600080fd5b634e487b7160e01b600052601260045260246000fd5b60008261560d57634e487b7160e01b600052601260045260246000fd5b500490565b60006020828403121561562457600080fd5b815161359481614dea565b8082028115828204841417611b2a57611b2a615543565b600181811c9082168061565a57607f821691505b60208210810361567a57634e487b7160e01b600052602260045260246000fd5b50919050565b601f821115613dfc576000816000526020600020601f850160051c810160208610156156a95750805b601f850160051c820191505b818110156156c8578281556001016156b5565b505050505050565b67ffffffffffffffff8311156156e8576156e8614ea6565b6156fc836156f68354615646565b83615680565b6000601f84116001811461573057600085156157185750838201355b600019600387901b1c1916600186901b178355614026565b600083815260209020601f19861690835b828110156157615786850135825560209485019460019092019101615741565b508682101561577e5760001960f88860031b161c19848701351681555b505060018560011b0183555050505050565b6000600160ff1b82016157a5576157a5615543565b5060000390565b6000808335601e198436030181126157c357600080fd5b83018035915067ffffffffffffffff8211156157de57600080fd5b6020019150600581901b360382131561511b57600080fd5b815167ffffffffffffffff81111561581057615810614ea6565b6158248161581e8454615646565b84615680565b602080601f83116001811461585957600084156158415750858301515b600019600386901b1c1916600185901b1785556156c8565b600085815260208120601f198616915b8281101561588857888601518255948401946001909101908401615869565b50858210156158a65787850151600019600388901b60f8161c191681555b5050505050600190811b01905550565b6000602082840312156158c857600080fd5b61359482615122565b6000600182016158e3576158e3615543565b5060010190565b600082516158fc818460208701615076565b9190910192915050565b60006020828403121561591857600080fd5b5051919050565b634e487b7160e01b600052603160045260246000fdfea26469706673582212201052eae0f44a02f18d4d7bd752b7c9c4e1e804cdb66bc09c0c3d1380775824c964736f6c63430008190033",
  "linkReferences": {},
  "deployedLinkReferences": {}
}