{
  "_format": "hh-sol-artifact-1",
  "contractName": "StakingHbbftMock",
  "sourceName": "contracts/mockContracts/StakingHbbftMock.sol",
  "abi": [
    {
      "inputs": [
        {
          "internalType": "address",
          "name": "pool",
          "type": "address"
        },
        {
          "internalType": "address",
          "name": "staker",
          "type": "address"
        }
      ],
      "name": "CannotClaimWithdrawOrderYet",
      "type": "error"
    },
    {
      "inputs": [],
      "name": "GetterCallFailed",
      "type": "error"
    },
    {
      "inputs": [],
      "name": "InitialStakingPoolsListEmpty",
      "type": "error"
    },
    {
      "inputs": [],
      "name": "InsufficientBalance",
      "type": "error"
    },
    {
      "inputs": [
        {
          "internalType": "address",
          "name": "pool",
          "type": "address"
        },
        {
          "internalType": "address",
          "name": "delegator",
          "type": "address"
        }
      ],
      "name": "InsufficientStakeAmount",
      "type": "error"
    },
    {
      "inputs": [],
      "name": "InvalidFixedEpochDuration",
      "type": "error"
    },
    {
      "inputs": [
        {
          "internalType": "uint256",
          "name": "candidateStake",
          "type": "uint256"
        },
        {
          "internalType": "uint256",
          "name": "delegatorStake",
          "type": "uint256"
        }
      ],
      "name": "InvalidInitialStakeAmount",
      "type": "error"
    },
    {
      "inputs": [],
      "name": "InvalidInitialization",
      "type": "error"
    },
    {
      "inputs": [],
      "name": "InvalidIpAddressesCount",
      "type": "error"
    },
    {
      "inputs": [],
      "name": "InvalidMaxStakeAmount",
      "type": "error"
    },
    {
      "inputs": [],
      "name": "InvalidMoveStakePoolsAddress",
      "type": "error"
    },
    {
      "inputs": [
        {
          "internalType": "address",
          "name": "_operator",
          "type": "address"
        },
        {
          "internalType": "uint256",
          "name": "_share",
          "type": "uint256"
        }
      ],
      "name": "InvalidNodeOperatorConfiguration",
      "type": "error"
    },
    {
      "inputs": [
        {
          "internalType": "uint256",
          "name": "_share",
          "type": "uint256"
        }
      ],
      "name": "InvalidNodeOperatorShare",
      "type": "error"
    },
    {
      "inputs": [
        {
          "internalType": "address",
          "name": "pool",
          "type": "address"
        },
        {
          "internalType": "address",
          "name": "delegator",
          "type": "address"
        },
        {
          "internalType": "int256",
          "name": "amount",
          "type": "int256"
        }
      ],
      "name": "InvalidOrderWithdrawAmount",
      "type": "error"
    },
    {
      "inputs": [],
      "name": "InvalidPublicKeysCount",
      "type": "error"
    },
    {
      "inputs": [],
      "name": "InvalidStakingFixedEpochDuration",
      "type": "error"
    },
    {
      "inputs": [],
      "name": "InvalidStakingTransitionTimeframe",
      "type": "error"
    },
    {
      "inputs": [],
      "name": "InvalidTransitionTimeFrame",
      "type": "error"
    },
    {
      "inputs": [
        {
          "internalType": "address",
          "name": "pool",
          "type": "address"
        },
        {
          "internalType": "address",
          "name": "delegator",
          "type": "address"
        },
        {
          "internalType": "uint256",
          "name": "amount",
          "type": "uint256"
        }
      ],
      "name": "InvalidWithdrawAmount",
      "type": "error"
    },
    {
      "inputs": [
        {
          "internalType": "uint256",
          "name": "allowed",
          "type": "uint256"
        },
        {
          "internalType": "uint256",
          "name": "desired",
          "type": "uint256"
        }
      ],
      "name": "MaxAllowedWithdrawExceeded",
      "type": "error"
    },
    {
      "inputs": [],
      "name": "MaxPoolsCountExceeded",
      "type": "error"
    },
    {
      "inputs": [
        {
          "internalType": "uint256",
          "name": "_newVal",
          "type": "uint256"
        }
      ],
      "name": "NewValueOutOfRange",
      "type": "error"
    },
    {
      "inputs": [],
      "name": "NoStakesToRecover",
      "type": "error"
    },
    {
      "inputs": [],
      "name": "NotInitializing",
      "type": "error"
    },
    {
      "inputs": [],
      "name": "NotPayable",
      "type": "error"
    },
    {
      "inputs": [
        {
          "internalType": "uint256",
          "name": "_epoch",
          "type": "uint256"
        }
      ],
      "name": "OnlyOncePerEpoch",
      "type": "error"
    },
    {
      "inputs": [
        {
          "internalType": "address",
          "name": "owner",
          "type": "address"
        }
      ],
      "name": "OwnableInvalidOwner",
      "type": "error"
    },
    {
      "inputs": [
        {
          "internalType": "address",
          "name": "account",
          "type": "address"
        }
      ],
      "name": "OwnableUnauthorizedAccount",
      "type": "error"
    },
    {
      "inputs": [
        {
          "internalType": "address",
          "name": "pool",
          "type": "address"
        }
      ],
      "name": "PoolAbandoned",
      "type": "error"
    },
    {
      "inputs": [
        {
          "internalType": "address",
          "name": "pool",
          "type": "address"
        }
      ],
      "name": "PoolCannotBeRemoved",
      "type": "error"
    },
    {
      "inputs": [
        {
          "internalType": "address",
          "name": "pool",
          "type": "address"
        }
      ],
      "name": "PoolEmpty",
      "type": "error"
    },
    {
      "inputs": [
        {
          "internalType": "address",
          "name": "pool",
          "type": "address"
        }
      ],
      "name": "PoolNotExist",
      "type": "error"
    },
    {
      "inputs": [
        {
          "internalType": "address",
          "name": "pool",
          "type": "address"
        },
        {
          "internalType": "address",
          "name": "delegator",
          "type": "address"
        }
      ],
      "name": "PoolStakeLimitExceeded",
      "type": "error"
    },
    {
      "inputs": [],
      "name": "ReentrancyGuardReentrantCall",
      "type": "error"
    },
    {
      "inputs": [
        {
          "internalType": "address",
          "name": "recipient",
          "type": "address"
        },
        {
          "internalType": "uint256",
          "name": "amount",
          "type": "uint256"
        }
      ],
      "name": "TransferFailed",
      "type": "error"
    },
    {
      "inputs": [],
      "name": "Unauthorized",
      "type": "error"
    },
    {
      "inputs": [],
      "name": "WithdrawNotAllowed",
      "type": "error"
    },
    {
      "inputs": [],
      "name": "ZeroAddress",
      "type": "error"
    },
    {
      "inputs": [],
      "name": "ZeroGasPrice",
      "type": "error"
    },
    {
      "inputs": [],
      "name": "ZeroWidthrawAmount",
      "type": "error"
    },
    {
      "inputs": [],
      "name": "ZeroWidthrawDisallowPeriod",
      "type": "error"
    },
    {
      "anonymous": false,
      "inputs": [
        {
          "indexed": true,
          "internalType": "address",
          "name": "fromPoolStakingAddress",
          "type": "address"
        },
        {
          "indexed": true,
          "internalType": "address",
          "name": "staker",
          "type": "address"
        },
        {
          "indexed": true,
          "internalType": "uint256",
          "name": "stakingEpoch",
          "type": "uint256"
        },
        {
          "indexed": false,
          "internalType": "uint256",
          "name": "amount",
          "type": "uint256"
        }
      ],
      "name": "ClaimedOrderedWithdrawal",
      "type": "event"
    },
    {
      "anonymous": false,
      "inputs": [
        {
          "indexed": true,
          "internalType": "address",
          "name": "caller",
          "type": "address"
        },
        {
          "indexed": true,
          "internalType": "address",
          "name": "stakingAddress",
          "type": "address"
        },
        {
          "indexed": false,
          "internalType": "uint256",
          "name": "gatheredFunds",
          "type": "uint256"
        }
      ],
      "name": "GatherAbandonedStakes",
      "type": "event"
    },
    {
      "anonymous": false,
      "inputs": [
        {
          "indexed": false,
          "internalType": "uint64",
          "name": "version",
          "type": "uint64"
        }
      ],
      "name": "Initialized",
      "type": "event"
    },
    {
      "anonymous": false,
      "inputs": [
        {
          "indexed": false,
          "internalType": "address",
          "name": "fromPoolStakingAddress",
          "type": "address"
        },
        {
          "indexed": true,
          "internalType": "address",
          "name": "toPoolStakingAddress",
          "type": "address"
        },
        {
          "indexed": true,
          "internalType": "address",
          "name": "staker",
          "type": "address"
        },
        {
          "indexed": true,
          "internalType": "uint256",
          "name": "stakingEpoch",
          "type": "uint256"
        },
        {
          "indexed": false,
          "internalType": "uint256",
          "name": "amount",
          "type": "uint256"
        }
      ],
      "name": "MovedStake",
      "type": "event"
    },
    {
      "anonymous": false,
      "inputs": [
        {
          "indexed": true,
          "internalType": "address",
          "name": "fromPoolStakingAddress",
          "type": "address"
        },
        {
          "indexed": true,
          "internalType": "address",
          "name": "staker",
          "type": "address"
        },
        {
          "indexed": true,
          "internalType": "uint256",
          "name": "stakingEpoch",
          "type": "uint256"
        },
        {
          "indexed": false,
          "internalType": "int256",
          "name": "amount",
          "type": "int256"
        }
      ],
      "name": "OrderedWithdrawal",
      "type": "event"
    },
    {
      "anonymous": false,
      "inputs": [
        {
          "indexed": true,
          "internalType": "address",
          "name": "previousOwner",
          "type": "address"
        },
        {
          "indexed": true,
          "internalType": "address",
          "name": "newOwner",
          "type": "address"
        }
      ],
      "name": "OwnershipTransferred",
      "type": "event"
    },
    {
      "anonymous": false,
      "inputs": [
        {
          "indexed": true,
          "internalType": "address",
          "name": "toPoolStakingAddress",
          "type": "address"
        },
        {
          "indexed": true,
          "internalType": "address",
          "name": "staker",
          "type": "address"
        },
        {
          "indexed": true,
          "internalType": "uint256",
          "name": "stakingEpoch",
          "type": "uint256"
        },
        {
          "indexed": false,
          "internalType": "uint256",
          "name": "amount",
          "type": "uint256"
        }
      ],
      "name": "PlacedStake",
      "type": "event"
    },
    {
      "anonymous": false,
      "inputs": [
        {
          "indexed": true,
          "internalType": "address",
          "name": "caller",
          "type": "address"
        },
        {
          "indexed": false,
          "internalType": "uint256",
          "name": "reinsertShare",
          "type": "uint256"
        },
        {
          "indexed": false,
          "internalType": "uint256",
          "name": "governanceShare",
          "type": "uint256"
        }
      ],
      "name": "RecoverAbandonedStakes",
      "type": "event"
    },
    {
      "anonymous": false,
      "inputs": [
        {
          "indexed": false,
          "internalType": "bytes4",
          "name": "funcSelector",
          "type": "bytes4"
        }
      ],
      "name": "RemoveChangeableParameter",
      "type": "event"
    },
    {
      "anonymous": false,
      "inputs": [
        {
          "indexed": true,
          "internalType": "address",
          "name": "poolStakingAddress",
          "type": "address"
        },
        {
          "indexed": true,
          "internalType": "uint256",
          "name": "stakingEpoch",
          "type": "uint256"
        },
        {
          "indexed": false,
          "internalType": "uint256",
          "name": "validatorReward",
          "type": "uint256"
        },
        {
          "indexed": false,
          "internalType": "uint256",
          "name": "delegatorsReward",
          "type": "uint256"
        }
      ],
      "name": "RestakeReward",
      "type": "event"
    },
    {
      "anonymous": false,
      "inputs": [
        {
          "indexed": false,
          "internalType": "bytes4",
          "name": "setter",
          "type": "bytes4"
        },
        {
          "indexed": false,
          "internalType": "bytes4",
          "name": "getter",
          "type": "bytes4"
        },
        {
          "indexed": false,
          "internalType": "uint256[]",
          "name": "params",
          "type": "uint256[]"
        }
      ],
      "name": "SetChangeableParameter",
      "type": "event"
    },
    {
      "anonymous": false,
      "inputs": [
        {
          "indexed": false,
          "internalType": "uint256",
          "name": "minStake",
          "type": "uint256"
        }
      ],
      "name": "SetDelegatorMinStake",
      "type": "event"
    },
    {
      "anonymous": false,
      "inputs": [
        {
          "indexed": true,
          "internalType": "address",
          "name": "poolStakingAddress",
          "type": "address"
        },
        {
          "indexed": true,
          "internalType": "address",
          "name": "nodeOperatorAddress",
          "type": "address"
        },
        {
          "indexed": false,
          "internalType": "uint256",
          "name": "operatorShare",
          "type": "uint256"
        }
      ],
      "name": "SetNodeOperator",
      "type": "event"
    },
    {
      "anonymous": false,
      "inputs": [
        {
          "indexed": true,
          "internalType": "address",
          "name": "fromPoolStakingAddress",
          "type": "address"
        },
        {
          "indexed": true,
          "internalType": "address",
          "name": "staker",
          "type": "address"
        },
        {
          "indexed": true,
          "internalType": "uint256",
          "name": "stakingEpoch",
          "type": "uint256"
        },
        {
          "indexed": false,
          "internalType": "uint256",
          "name": "amount",
          "type": "uint256"
        }
      ],
      "name": "WithdrewStake",
      "type": "event"
    },
    {
      "inputs": [],
      "name": "MAX_CANDIDATES",
      "outputs": [
        {
          "internalType": "uint256",
          "name": "",
          "type": "uint256"
        }
      ],
      "stateMutability": "view",
      "type": "function"
    },
    {
      "inputs": [],
      "name": "MAX_NODE_OPERATOR_SHARE_PERCENT",
      "outputs": [
        {
          "internalType": "uint256",
          "name": "",
          "type": "uint256"
        }
      ],
      "stateMutability": "view",
      "type": "function"
    },
    {
      "inputs": [],
      "name": "PERCENT_DENOMINATOR",
      "outputs": [
        {
          "internalType": "uint256",
          "name": "",
          "type": "uint256"
        }
      ],
      "stateMutability": "view",
      "type": "function"
    },
    {
      "inputs": [
        {
          "internalType": "address",
          "name": "",
          "type": "address"
        }
      ],
      "name": "abandonedAndRemoved",
      "outputs": [
        {
          "internalType": "bool",
          "name": "",
          "type": "bool"
        }
      ],
      "stateMutability": "view",
      "type": "function"
    },
    {
      "inputs": [],
      "name": "addBalance",
      "outputs": [],
      "stateMutability": "payable",
      "type": "function"
    },
    {
      "inputs": [
        {
          "internalType": "address",
          "name": "_miningAddress",
          "type": "address"
        },
        {
          "internalType": "address",
          "name": "_nodeOperatorAddress",
          "type": "address"
        },
        {
          "internalType": "uint256",
          "name": "_operatorShare",
          "type": "uint256"
        },
        {
          "internalType": "bytes",
          "name": "_publicKey",
          "type": "bytes"
        },
        {
          "internalType": "bytes16",
          "name": "_ip",
          "type": "bytes16"
        }
      ],
      "name": "addPool",
      "outputs": [],
      "stateMutability": "payable",
      "type": "function"
    },
    {
      "inputs": [
        {
          "internalType": "address",
          "name": "_stakingAddress",
          "type": "address"
        }
      ],
      "name": "addPoolActiveMock",
      "outputs": [],
      "stateMutability": "nonpayable",
      "type": "function"
    },
    {
      "inputs": [
        {
          "internalType": "address",
          "name": "_stakingAddress",
          "type": "address"
        }
      ],
      "name": "addPoolInactiveMock",
      "outputs": [],
      "stateMutability": "nonpayable",
      "type": "function"
    },
    {
      "inputs": [],
      "name": "areStakeAndWithdrawAllowed",
      "outputs": [
        {
          "internalType": "bool",
          "name": "",
          "type": "bool"
        }
      ],
      "stateMutability": "pure",
      "type": "function"
    },
    {
      "inputs": [],
      "name": "bonusScoreContract",
      "outputs": [
        {
          "internalType": "contract IBonusScoreSystem",
          "name": "",
          "type": "address"
        }
      ],
      "stateMutability": "view",
      "type": "function"
    },
    {
      "inputs": [],
      "name": "candidateMinStake",
      "outputs": [
        {
          "internalType": "uint256",
          "name": "",
          "type": "uint256"
        }
      ],
      "stateMutability": "view",
      "type": "function"
    },
    {
      "inputs": [
        {
          "internalType": "address",
          "name": "_poolStakingAddress",
          "type": "address"
        }
      ],
      "name": "claimOrderedWithdraw",
      "outputs": [],
      "stateMutability": "nonpayable",
      "type": "function"
    },
    {
      "inputs": [
        {
          "internalType": "address",
          "name": "pool",
          "type": "address"
        },
        {
          "internalType": "address",
          "name": "delegator",
          "type": "address"
        },
        {
          "internalType": "uint256",
          "name": "epoch",
          "type": "uint256"
        }
      ],
      "name": "clearDelegatorStakeSnapshot",
      "outputs": [],
      "stateMutability": "nonpayable",
      "type": "function"
    },
    {
      "inputs": [],
      "name": "currentKeyGenExtraTimeWindow",
      "outputs": [
        {
          "internalType": "uint256",
          "name": "",
          "type": "uint256"
        }
      ],
      "stateMutability": "view",
      "type": "function"
    },
    {
      "inputs": [],
      "name": "delegatorMinStake",
      "outputs": [
        {
          "internalType": "uint256",
          "name": "",
          "type": "uint256"
        }
      ],
      "stateMutability": "view",
      "type": "function"
    },
    {
      "inputs": [
        {
          "internalType": "string",
          "name": "_selector",
          "type": "string"
        }
      ],
      "name": "getAllowedParamsRange",
      "outputs": [
        {
          "components": [
            {
              "internalType": "bytes4",
              "name": "getter",
              "type": "bytes4"
            },
            {
              "internalType": "uint256[]",
              "name": "range",
              "type": "uint256[]"
            }
          ],
          "internalType": "struct ValueGuards.ParameterRange",
          "name": "",
          "type": "tuple"
        }
      ],
      "stateMutability": "view",
      "type": "function"
    },
    {
      "inputs": [
        {
          "internalType": "bytes4",
          "name": "_selector",
          "type": "bytes4"
        }
      ],
      "name": "getAllowedParamsRangeWithSelector",
      "outputs": [
        {
          "components": [
            {
              "internalType": "bytes4",
              "name": "getter",
              "type": "bytes4"
            },
            {
              "internalType": "uint256[]",
              "name": "range",
              "type": "uint256[]"
            }
          ],
          "internalType": "struct ValueGuards.ParameterRange",
          "name": "",
          "type": "tuple"
        }
      ],
      "stateMutability": "view",
      "type": "function"
    },
    {
      "inputs": [
        {
          "internalType": "address",
          "name": "pool",
          "type": "address"
        },
        {
          "internalType": "address",
          "name": "delegator",
          "type": "address"
        },
        {
          "internalType": "uint256",
          "name": "epoch",
          "type": "uint256"
        }
      ],
      "name": "getDelegatorStakeSnapshot",
      "outputs": [
        {
          "internalType": "uint256",
          "name": "",
          "type": "uint256"
        }
      ],
      "stateMutability": "view",
      "type": "function"
    },
    {
      "inputs": [],
      "name": "getMaxCandidates",
      "outputs": [
        {
          "internalType": "uint256",
          "name": "",
          "type": "uint256"
        }
      ],
      "stateMutability": "pure",
      "type": "function"
    },
    {
      "inputs": [
        {
          "internalType": "address",
          "name": "_poolAddress",
          "type": "address"
        }
      ],
      "name": "getPoolInternetAddress",
      "outputs": [
        {
          "internalType": "bytes16",
          "name": "",
          "type": "bytes16"
        },
        {
          "internalType": "bytes2",
          "name": "",
          "type": "bytes2"
        }
      ],
      "stateMutability": "view",
      "type": "function"
    },
    {
      "inputs": [
        {
          "internalType": "address",
          "name": "_poolAddress",
          "type": "address"
        }
      ],
      "name": "getPoolPublicKey",
      "outputs": [
        {
          "internalType": "bytes",
          "name": "",
          "type": "bytes"
        }
      ],
      "stateMutability": "view",
      "type": "function"
    },
    {
      "inputs": [
        {
          "internalType": "uint256",
          "name": "_epoch",
          "type": "uint256"
        },
        {
          "internalType": "address",
          "name": "_stakingPool",
          "type": "address"
        }
      ],
      "name": "getPoolValidatorStakeAmount",
      "outputs": [
        {
          "internalType": "uint256",
          "name": "",
          "type": "uint256"
        }
      ],
      "stateMutability": "view",
      "type": "function"
    },
    {
      "inputs": [],
      "name": "getPools",
      "outputs": [
        {
          "internalType": "address[]",
          "name": "",
          "type": "address[]"
        }
      ],
      "stateMutability": "view",
      "type": "function"
    },
    {
      "inputs": [],
      "name": "getPoolsInactive",
      "outputs": [
        {
          "internalType": "address[]",
          "name": "",
          "type": "address[]"
        }
      ],
      "stateMutability": "view",
      "type": "function"
    },
    {
      "inputs": [],
      "name": "getPoolsLikelihood",
      "outputs": [
        {
          "internalType": "uint256[]",
          "name": "likelihoods",
          "type": "uint256[]"
        },
        {
          "internalType": "uint256",
          "name": "sum",
          "type": "uint256"
        }
      ],
      "stateMutability": "view",
      "type": "function"
    },
    {
      "inputs": [],
      "name": "getPoolsToBeElected",
      "outputs": [
        {
          "internalType": "address[]",
          "name": "",
          "type": "address[]"
        }
      ],
      "stateMutability": "view",
      "type": "function"
    },
    {
      "inputs": [],
      "name": "getPoolsToBeRemoved",
      "outputs": [
        {
          "internalType": "address[]",
          "name": "",
          "type": "address[]"
        }
      ],
      "stateMutability": "view",
      "type": "function"
    },
    {
      "inputs": [
        {
          "internalType": "address",
          "name": "pool",
          "type": "address"
        },
        {
          "internalType": "address",
          "name": "delegator",
          "type": "address"
        }
      ],
      "name": "getStakeSnapshotLastEpoch",
      "outputs": [
        {
          "internalType": "uint256",
          "name": "",
          "type": "uint256"
        }
      ],
      "stateMutability": "view",
      "type": "function"
    },
    {
      "inputs": [],
      "name": "incrementStakingEpoch",
      "outputs": [],
      "stateMutability": "nonpayable",
      "type": "function"
    },
    {
      "inputs": [
        {
          "internalType": "address",
          "name": "_contractOwner",
          "type": "address"
        },
        {
          "components": [
            {
              "internalType": "address",
              "name": "_validatorSetContract",
              "type": "address"
            },
            {
              "internalType": "address",
              "name": "_bonusScoreContract",
              "type": "address"
            },
            {
              "internalType": "address[]",
              "name": "_initialStakingAddresses",
              "type": "address[]"
            },
            {
              "internalType": "uint256",
              "name": "_delegatorMinStake",
              "type": "uint256"
            },
            {
              "internalType": "uint256",
              "name": "_candidateMinStake",
              "type": "uint256"
            },
            {
              "internalType": "uint256",
              "name": "_maxStake",
              "type": "uint256"
            },
            {
              "internalType": "uint256",
              "name": "_stakingFixedEpochDuration",
              "type": "uint256"
            },
            {
              "internalType": "uint256",
              "name": "_stakingTransitionTimeframeLength",
              "type": "uint256"
            },
            {
              "internalType": "uint256",
              "name": "_stakingWithdrawDisallowPeriod",
              "type": "uint256"
            }
          ],
          "internalType": "struct IStakingHbbft.StakingParams",
          "name": "stakingParams",
          "type": "tuple"
        },
        {
          "internalType": "bytes32[]",
          "name": "_publicKeys",
          "type": "bytes32[]"
        },
        {
          "internalType": "bytes16[]",
          "name": "_internetAddresses",
          "type": "bytes16[]"
        }
      ],
      "name": "initialize",
      "outputs": [],
      "stateMutability": "nonpayable",
      "type": "function"
    },
    {
      "inputs": [
        {
          "internalType": "address",
          "name": "_stakingAddress",
          "type": "address"
        }
      ],
      "name": "isPoolActive",
      "outputs": [
        {
          "internalType": "bool",
          "name": "",
          "type": "bool"
        }
      ],
      "stateMutability": "view",
      "type": "function"
    },
    {
      "inputs": [
        {
          "internalType": "address",
          "name": "_stakingAddress",
          "type": "address"
        }
      ],
      "name": "isPoolValid",
      "outputs": [
        {
          "internalType": "bool",
          "name": "",
          "type": "bool"
        }
      ],
      "stateMutability": "view",
      "type": "function"
    },
    {
      "inputs": [
        {
          "internalType": "bytes4",
          "name": "funcSelector",
          "type": "bytes4"
        },
        {
          "internalType": "uint256",
          "name": "newVal",
          "type": "uint256"
        }
      ],
      "name": "isWithinAllowedRange",
      "outputs": [
        {
          "internalType": "bool",
          "name": "",
          "type": "bool"
        }
      ],
      "stateMutability": "view",
      "type": "function"
    },
    {
      "inputs": [],
      "name": "maxStakeAmount",
      "outputs": [
        {
          "internalType": "uint256",
          "name": "",
          "type": "uint256"
        }
      ],
      "stateMutability": "view",
      "type": "function"
    },
    {
      "inputs": [
        {
          "internalType": "address",
          "name": "_poolStakingAddress",
          "type": "address"
        },
        {
          "internalType": "address",
          "name": "_staker",
          "type": "address"
        }
      ],
      "name": "maxWithdrawAllowed",
      "outputs": [
        {
          "internalType": "uint256",
          "name": "",
          "type": "uint256"
        }
      ],
      "stateMutability": "view",
      "type": "function"
    },
    {
      "inputs": [
        {
          "internalType": "address",
          "name": "_poolStakingAddress",
          "type": "address"
        },
        {
          "internalType": "address",
          "name": "_staker",
          "type": "address"
        }
      ],
      "name": "maxWithdrawOrderAllowed",
      "outputs": [
        {
          "internalType": "uint256",
          "name": "",
          "type": "uint256"
        }
      ],
      "stateMutability": "view",
      "type": "function"
    },
    {
      "inputs": [
        {
          "internalType": "address",
          "name": "_fromPoolStakingAddress",
          "type": "address"
        },
        {
          "internalType": "address",
          "name": "_toPoolStakingAddress",
          "type": "address"
        },
        {
          "internalType": "uint256",
          "name": "_amount",
          "type": "uint256"
        }
      ],
      "name": "moveStake",
      "outputs": [],
      "stateMutability": "nonpayable",
      "type": "function"
    },
    {
      "inputs": [
        {
          "internalType": "address",
          "name": "_stakingAddress",
          "type": "address"
        }
      ],
      "name": "notifyAvailability",
      "outputs": [],
      "stateMutability": "nonpayable",
      "type": "function"
    },
    {
      "inputs": [],
      "name": "notifyKeyGenFailed",
      "outputs": [],
      "stateMutability": "nonpayable",
      "type": "function"
    },
    {
      "inputs": [
        {
          "internalType": "uint256",
          "name": "detectedOfflineTime",
          "type": "uint256"
        }
      ],
      "name": "notifyNetworkOfftimeDetected",
      "outputs": [],
      "stateMutability": "nonpayable",
      "type": "function"
    },
    {
      "inputs": [
        {
          "internalType": "address",
          "name": "_poolStakingAddress",
          "type": "address"
        },
        {
          "internalType": "int256",
          "name": "_amount",
          "type": "int256"
        }
      ],
      "name": "orderWithdraw",
      "outputs": [],
      "stateMutability": "nonpayable",
      "type": "function"
    },
    {
      "inputs": [
        {
          "internalType": "address",
          "name": "",
          "type": "address"
        },
        {
          "internalType": "address",
          "name": "",
          "type": "address"
        }
      ],
      "name": "orderWithdrawEpoch",
      "outputs": [
        {
          "internalType": "uint256",
          "name": "",
          "type": "uint256"
        }
      ],
      "stateMutability": "view",
      "type": "function"
    },
    {
      "inputs": [
        {
          "internalType": "address",
          "name": "",
          "type": "address"
        },
        {
          "internalType": "address",
          "name": "",
          "type": "address"
        }
      ],
      "name": "orderedWithdrawAmount",
      "outputs": [
        {
          "internalType": "uint256",
          "name": "",
          "type": "uint256"
        }
      ],
      "stateMutability": "view",
      "type": "function"
    },
    {
      "inputs": [
        {
          "internalType": "address",
          "name": "",
          "type": "address"
        }
      ],
      "name": "orderedWithdrawAmountTotal",
      "outputs": [
        {
          "internalType": "uint256",
          "name": "",
          "type": "uint256"
        }
      ],
      "stateMutability": "view",
      "type": "function"
    },
    {
      "inputs": [],
      "name": "owner",
      "outputs": [
        {
          "internalType": "address",
          "name": "",
          "type": "address"
        }
      ],
      "stateMutability": "view",
      "type": "function"
    },
    {
      "inputs": [
        {
          "internalType": "address",
          "name": "_poolStakingAddress",
          "type": "address"
        }
      ],
      "name": "poolDelegators",
      "outputs": [
        {
          "internalType": "address[]",
          "name": "",
          "type": "address[]"
        }
      ],
      "stateMutability": "view",
      "type": "function"
    },
    {
      "inputs": [
        {
          "internalType": "address",
          "name": "_poolStakingAddress",
          "type": "address"
        }
      ],
      "name": "poolDelegatorsInactive",
      "outputs": [
        {
          "internalType": "address[]",
          "name": "",
          "type": "address[]"
        }
      ],
      "stateMutability": "view",
      "type": "function"
    },
    {
      "inputs": [
        {
          "internalType": "address",
          "name": "",
          "type": "address"
        }
      ],
      "name": "poolInfo",
      "outputs": [
        {
          "internalType": "bytes",
          "name": "publicKey",
          "type": "bytes"
        },
        {
          "internalType": "bytes16",
          "name": "internetAddress",
          "type": "bytes16"
        },
        {
          "internalType": "bytes2",
          "name": "port",
          "type": "bytes2"
        }
      ],
      "stateMutability": "view",
      "type": "function"
    },
    {
      "inputs": [
        {
          "internalType": "address",
          "name": "",
          "type": "address"
        }
      ],
      "name": "poolNodeOperator",
      "outputs": [
        {
          "internalType": "address",
          "name": "",
          "type": "address"
        }
      ],
      "stateMutability": "view",
      "type": "function"
    },
    {
      "inputs": [
        {
          "internalType": "address",
          "name": "",
          "type": "address"
        }
      ],
      "name": "poolNodeOperatorLastChangeEpoch",
      "outputs": [
        {
          "internalType": "uint256",
          "name": "",
          "type": "uint256"
        }
      ],
      "stateMutability": "view",
      "type": "function"
    },
    {
      "inputs": [
        {
          "internalType": "address",
          "name": "",
          "type": "address"
        }
      ],
      "name": "poolNodeOperatorShare",
      "outputs": [
        {
          "internalType": "uint256",
          "name": "",
          "type": "uint256"
        }
      ],
      "stateMutability": "view",
      "type": "function"
    },
    {
      "inputs": [
        {
          "internalType": "address",
          "name": "",
          "type": "address"
        }
      ],
      "name": "poolToBeElectedIndex",
      "outputs": [
        {
          "internalType": "uint256",
          "name": "",
          "type": "uint256"
        }
      ],
      "stateMutability": "view",
      "type": "function"
    },
    {
      "inputs": [],
      "name": "recoverAbandonedStakes",
      "outputs": [],
      "stateMutability": "nonpayable",
      "type": "function"
    },
    {
      "inputs": [
        {
          "internalType": "bytes4",
          "name": "funcSelector",
          "type": "bytes4"
        }
      ],
      "name": "removeAllowedChangeableParameter",
      "outputs": [],
      "stateMutability": "nonpayable",
      "type": "function"
    },
    {
      "inputs": [],
      "name": "removeMyPool",
      "outputs": [],
      "stateMutability": "nonpayable",
      "type": "function"
    },
    {
      "inputs": [
        {
          "internalType": "address",
          "name": "_stakingAddress",
          "type": "address"
        }
      ],
      "name": "removePool",
      "outputs": [],
      "stateMutability": "nonpayable",
      "type": "function"
    },
    {
      "inputs": [],
      "name": "removePools",
      "outputs": [],
      "stateMutability": "nonpayable",
      "type": "function"
    },
    {
      "inputs": [],
      "name": "renounceOwnership",
      "outputs": [],
      "stateMutability": "nonpayable",
      "type": "function"
    },
    {
      "inputs": [
        {
          "internalType": "address",
          "name": "_poolStakingAddress",
          "type": "address"
        },
        {
          "internalType": "uint256",
          "name": "_validatorMinRewardPercent",
          "type": "uint256"
        }
      ],
      "name": "restake",
      "outputs": [],
      "stateMutability": "payable",
      "type": "function"
    },
    {
      "inputs": [
        {
          "internalType": "bytes4",
          "name": "setter",
          "type": "bytes4"
        },
        {
          "internalType": "bytes4",
          "name": "getter",
          "type": "bytes4"
        },
        {
          "internalType": "uint256[]",
          "name": "params",
          "type": "uint256[]"
        }
      ],
      "name": "setAllowedChangeableParameter",
      "outputs": [],
      "stateMutability": "nonpayable",
      "type": "function"
    },
    {
      "inputs": [
        {
          "internalType": "address",
          "name": "_bonusScoreContract",
          "type": "address"
        }
      ],
      "name": "setBonusScoreContract",
      "outputs": [],
      "stateMutability": "nonpayable",
      "type": "function"
    },
    {
      "inputs": [
        {
          "internalType": "uint256",
          "name": "_minStake",
          "type": "uint256"
        }
      ],
      "name": "setDelegatorMinStake",
      "outputs": [],
      "stateMutability": "nonpayable",
      "type": "function"
    },
    {
      "inputs": [
        {
          "internalType": "address",
          "name": "_operatorAddress",
          "type": "address"
        },
        {
          "internalType": "uint256",
          "name": "_operatorShare",
          "type": "uint256"
        }
      ],
      "name": "setNodeOperator",
      "outputs": [],
      "stateMutability": "nonpayable",
      "type": "function"
    },
    {
      "inputs": [
        {
          "internalType": "bytes",
          "name": "_publicKey",
          "type": "bytes"
        },
        {
          "internalType": "bytes16",
          "name": "_ip",
          "type": "bytes16"
        },
        {
          "internalType": "bytes2",
          "name": "_port",
          "type": "bytes2"
        }
      ],
      "name": "setPoolInfo",
      "outputs": [],
      "stateMutability": "nonpayable",
      "type": "function"
    },
    {
      "inputs": [
        {
          "internalType": "address",
          "name": "_poolStakingAddress",
          "type": "address"
        },
        {
          "internalType": "uint256",
          "name": "_amount",
          "type": "uint256"
        }
      ],
      "name": "setStakeAmountTotal",
      "outputs": [],
      "stateMutability": "nonpayable",
      "type": "function"
    },
    {
      "inputs": [
        {
          "internalType": "uint256",
          "name": "_stakingEpoch",
          "type": "uint256"
        }
      ],
      "name": "setStakingEpoch",
      "outputs": [],
      "stateMutability": "nonpayable",
      "type": "function"
    },
    {
      "inputs": [
        {
          "internalType": "uint256",
          "name": "_timestamp",
          "type": "uint256"
        }
      ],
      "name": "setStakingEpochStartTime",
      "outputs": [],
      "stateMutability": "nonpayable",
      "type": "function"
    },
    {
      "inputs": [
        {
          "internalType": "address",
          "name": "_validatorAddress",
          "type": "address"
        },
        {
          "internalType": "bytes16",
          "name": "_ip",
          "type": "bytes16"
        },
        {
          "internalType": "bytes2",
          "name": "_port",
          "type": "bytes2"
        }
      ],
      "name": "setValidatorInternetAddress",
      "outputs": [],
      "stateMutability": "nonpayable",
      "type": "function"
    },
    {
      "inputs": [
        {
          "internalType": "contract IValidatorSetHbbft",
          "name": "_validatorSetAddress",
          "type": "address"
        }
      ],
      "name": "setValidatorMockSetAddress",
      "outputs": [],
      "stateMutability": "nonpayable",
      "type": "function"
    },
    {
      "inputs": [
        {
          "internalType": "contract IValidatorSetHbbft",
          "name": "_validatorSetAddress",
          "type": "address"
        }
      ],
      "name": "setValidatorSetAddress",
      "outputs": [],
      "stateMutability": "nonpayable",
      "type": "function"
    },
    {
      "inputs": [
        {
          "internalType": "uint256",
          "name": "_epoch",
          "type": "uint256"
        },
        {
          "internalType": "address",
          "name": "_stakingPool",
          "type": "address"
        }
      ],
      "name": "snapshotPoolStakeAmounts",
      "outputs": [],
      "stateMutability": "nonpayable",
      "type": "function"
    },
    {
      "inputs": [
        {
          "internalType": "uint256",
          "name": "",
          "type": "uint256"
        },
        {
          "internalType": "address",
          "name": "",
          "type": "address"
        }
      ],
      "name": "snapshotPoolTotalStakeAmount",
      "outputs": [
        {
          "internalType": "uint256",
          "name": "",
          "type": "uint256"
        }
      ],
      "stateMutability": "view",
      "type": "function"
    },
    {
      "inputs": [
        {
          "internalType": "uint256",
          "name": "",
          "type": "uint256"
        },
        {
          "internalType": "address",
          "name": "",
          "type": "address"
        }
      ],
      "name": "snapshotPoolValidatorStakeAmount",
      "outputs": [
        {
          "internalType": "uint256",
          "name": "",
          "type": "uint256"
        }
      ],
      "stateMutability": "view",
      "type": "function"
    },
    {
      "inputs": [
        {
          "internalType": "address",
          "name": "_toPoolStakingAddress",
          "type": "address"
        }
      ],
      "name": "stake",
      "outputs": [],
      "stateMutability": "payable",
      "type": "function"
    },
    {
      "inputs": [
        {
          "internalType": "address",
          "name": "",
          "type": "address"
        },
        {
          "internalType": "address",
          "name": "",
          "type": "address"
        }
      ],
      "name": "stakeAmount",
      "outputs": [
        {
          "internalType": "uint256",
          "name": "",
          "type": "uint256"
        }
      ],
      "stateMutability": "view",
      "type": "function"
    },
    {
      "inputs": [
        {
          "internalType": "address",
          "name": "_poolStakingAddress",
          "type": "address"
        },
        {
          "internalType": "address",
          "name": "_staker",
          "type": "address"
        }
      ],
      "name": "stakeAmountByCurrentEpoch",
      "outputs": [
        {
          "internalType": "uint256",
          "name": "",
          "type": "uint256"
        }
      ],
      "stateMutability": "view",
      "type": "function"
    },
    {
      "inputs": [
        {
          "internalType": "address",
          "name": "",
          "type": "address"
        }
      ],
      "name": "stakeAmountTotal",
      "outputs": [
        {
          "internalType": "uint256",
          "name": "",
          "type": "uint256"
        }
      ],
      "stateMutability": "view",
      "type": "function"
    },
    {
      "inputs": [],
      "name": "stakingEpoch",
      "outputs": [
        {
          "internalType": "uint256",
          "name": "",
          "type": "uint256"
        }
      ],
      "stateMutability": "view",
      "type": "function"
    },
    {
      "inputs": [],
      "name": "stakingEpochStartBlock",
      "outputs": [
        {
          "internalType": "uint256",
          "name": "",
          "type": "uint256"
        }
      ],
      "stateMutability": "view",
      "type": "function"
    },
    {
      "inputs": [],
      "name": "stakingEpochStartTime",
      "outputs": [
        {
          "internalType": "uint256",
          "name": "",
          "type": "uint256"
        }
      ],
      "stateMutability": "view",
      "type": "function"
    },
    {
      "inputs": [],
      "name": "stakingFixedEpochDuration",
      "outputs": [
        {
          "internalType": "uint256",
          "name": "",
          "type": "uint256"
        }
      ],
      "stateMutability": "view",
      "type": "function"
    },
    {
      "inputs": [],
      "name": "stakingFixedEpochEndTime",
      "outputs": [
        {
          "internalType": "uint256",
          "name": "",
          "type": "uint256"
        }
      ],
      "stateMutability": "view",
      "type": "function"
    },
    {
      "inputs": [],
      "name": "stakingTransitionTimeframeLength",
      "outputs": [
        {
          "internalType": "uint256",
          "name": "",
          "type": "uint256"
        }
      ],
      "stateMutability": "view",
      "type": "function"
    },
    {
      "inputs": [],
      "name": "stakingWithdrawDisallowPeriod",
      "outputs": [
        {
          "internalType": "uint256",
          "name": "",
          "type": "uint256"
        }
      ],
      "stateMutability": "view",
      "type": "function"
    },
    {
      "inputs": [],
      "name": "startTimeOfNextPhaseTransition",
      "outputs": [
        {
          "internalType": "uint256",
          "name": "",
          "type": "uint256"
        }
      ],
      "stateMutability": "view",
      "type": "function"
    },
    {
      "inputs": [],
      "name": "totalStakedAmount",
      "outputs": [
        {
          "internalType": "uint256",
          "name": "",
          "type": "uint256"
        }
      ],
      "stateMutability": "view",
      "type": "function"
    },
    {
      "inputs": [
        {
          "internalType": "address",
          "name": "newOwner",
          "type": "address"
        }
      ],
      "name": "transferOwnership",
      "outputs": [],
      "stateMutability": "nonpayable",
      "type": "function"
    },
    {
      "inputs": [
        {
          "internalType": "address",
          "name": "mining",
          "type": "address"
        },
        {
          "internalType": "uint256",
          "name": "validatorScore",
          "type": "uint256"
        }
      ],
      "name": "updatePoolLikelihood",
      "outputs": [],
      "stateMutability": "nonpayable",
      "type": "function"
    },
    {
      "inputs": [],
      "name": "validatorSetContract",
      "outputs": [
        {
          "internalType": "contract IValidatorSetHbbft",
          "name": "",
          "type": "address"
        }
      ],
      "stateMutability": "view",
      "type": "function"
    },
    {
      "inputs": [
        {
          "internalType": "address",
          "name": "_fromPoolStakingAddress",
          "type": "address"
        },
        {
          "internalType": "uint256",
          "name": "_amount",
          "type": "uint256"
        }
      ],
      "name": "withdraw",
      "outputs": [],
      "stateMutability": "nonpayable",
      "type": "function"
    },
    {
      "stateMutability": "payable",
      "type": "receive"
    }
  ],
  "bytecode": "0x6080604052348015600f57600080fd5b506016601a565b60ca565b7ff0c57e16840df040f15088dc2f81fe391c3923bec73e23a9662efc9c229c6a00805468010000000000000000900460ff161560695760405163f92ee8a960e01b815260040160405180910390fd5b80546001600160401b039081161460c75780546001600160401b0319166001600160401b0390811782556040519081527fc7f505b2f371ae2175ee4913f4499e1f2633a7b5936321eed1cdaeb6115181d29060200160405180910390a15b50565b6161bf806100d96000396000f3fe6080604052600436106105e55760003560e01c8063862be28711610301578063c6af311a1161019a578063eb3efa16116100ec578063f3fef3a311610095578063f9d4d5441161006f578063f9d4d5441461121a578063fa4aaf4714611247578063ffada8621461127457600080fd5b8063f3fef3a3146111c6578063f4942501146111e6578063f6c57861146111fa57600080fd5b8063f0786096116100c6578063f07860961461117c578063f2de669914611192578063f2fde38b146111a657600080fd5b8063eb3efa1614611115578063edd7db7514611152578063ee435f551461116757600080fd5b8063dadee88a1161014e578063e2a43cd911610128578063e2a43cd914611069578063e5b1d593146110a0578063e9ab0300146110dd57600080fd5b8063dadee88a14611007578063df6f55f514611034578063dfc8bf4e1461104957600080fd5b8063d0ac76f61161017f578063d0ac76f614610fbc578063d290c21d14610fdc578063da7a9b6a14610ff157600080fd5b8063c6af311a14610f7c578063cfef144114610f9c57600080fd5b8063a5d54f6511610253578063b163cc3811610207578063ba08d237116101e1578063ba08d23714610f27578063bf348f8614610f47578063c6912cc014610f6757600080fd5b8063b163cc381461067f578063b61ed63a14610eda578063b710c15d14610efa57600080fd5b8063a711e6a111610238578063a711e6a114610e8f578063adddc0cf14610eaf578063ae1aaf8014610ec457600080fd5b8063a5d54f6514610e42578063a697ecff14610e5757600080fd5b80639a7b5f11116102b55780639e72c6351161028f5780639e72c63514610dca5780639ea8082b14610dea578063a420596714610e0a57600080fd5b80639a7b5f1114610d6f5780639b03d74414610d9e5780639e6c295914610db457600080fd5b8063921e274b116102e6578063921e274b14610d19578063950a651314610d2c578063957950a714610d4c57600080fd5b8063862be28714610cbc5780638da5cb5b14610cdc57600080fd5b80634e9b426d1161047e5780636bda1577116103d0578063794c0c68116103795780637d8149db116103535780637d8149db14610c4f5780638247a23914610c6f57806384725c7614610c8f57600080fd5b8063794c0c6814610bf95780637b0a0f9b14610c0f5780637b15b94c14610c2f57600080fd5b8063728345db116103aa578063728345db14610b5357806373c2180314610b89578063750dd2a114610ba957600080fd5b80636bda157714610b085780637069e74614610b28578063715018a614610b3e57600080fd5b80635ca2b65011610432578063611d760c1161040c578063611d760c14610a90578063615f2b7114610ab0578063673a2a1f14610ae657600080fd5b80635ca2b65014610a445780635d80ca3214610a645780635fef764314610a7a57600080fd5b80635267e1d6116104635780635267e1d6146109be578063567e98f9146109eb5780635b4eafe014610a0157600080fd5b80634e9b426d1461097b5780634f9a8d8f146109a857600080fd5b806322e3d9861161053757806337154263116104eb5780633f3afe01116104c55780633f3afe01146109285780634160d3861461093b5780634346845f1461095b57600080fd5b806337154263146108dd578063379b046a146108f25780633b7d09461461090857600080fd5b8063264762041161051c578063264762041461086a5780632bafde8d1461087d5780633219d6001461089d57600080fd5b806322e3d98614610835578063251441a91461084a57600080fd5b8063129bd12811610599578063159e0a9511610573578063159e0a95146107665780631fb31e43146107a357806320c07cd81461081f57600080fd5b8063129bd128146106f95780631345b8a5146107195780631555371c1461075157600080fd5b80630ac6e291116105ca5780630ac6e291146106815780630b770cdf146106a157806311f86c99146106d957600080fd5b8063028b8bdb1461060857806303a810651461063157600080fd5b3661060357604051631574f9f360e01b815260040160405180910390fd5b600080fd5b34801561061457600080fd5b5061061e60145481565b6040519081526020015b60405180910390f35b34801561063d57600080fd5b5061067f61064c366004615692565b6001600160a01b039283166000908152602260209081526040808320949095168252928352838120918152915290812055565b005b34801561068d57600080fd5b5061067f61069c36600461571f565b611294565b3480156106ad57600080fd5b506024546106c1906001600160a01b031681565b6040516001600160a01b039091168152602001610628565b3480156106e557600080fd5b5061061e6106f4366004615692565b61182b565b34801561070557600080fd5b5061061e6107143660046157cf565b611861565b34801561072557600080fd5b5061061e610734366004615808565b602160209081526000928352604080842090915290825290205481565b34801561075d57600080fd5b5061067f61188e565b34801561077257600080fd5b5061067f61078136600461582d565b602480546001600160a01b0319166001600160a01b0392909216919091179055565b3480156107af57600080fd5b506107ed6107be36600461582d565b6001600160a01b03166000908152601e6020526040902060010154608081901b91600160801b90910460f01b90565b604080516fffffffffffffffffffffffffffffffff1990931683526001600160f01b0319909116602083015201610628565b34801561082b57600080fd5b5061061e6107d081565b34801561084157600080fd5b5061061e611919565b34801561085657600080fd5b5061067f610865366004615692565b611960565b61067f61087836600461582d565b611a1e565b34801561088957600080fd5b5061067f61089836600461584a565b611aa1565b3480156108a957600080fd5b506108cd6108b836600461582d565b601f6020526000908152604090205460ff1681565b6040519015158152602001610628565b3480156108e957600080fd5b5061067f611b22565b3480156108fe57600080fd5b5061061e601a5481565b34801561091457600080fd5b5061067f61092336600461582d565b611f1d565b61067f610936366004615863565b611f6c565b34801561094757600080fd5b5061067f610956366004615863565b6122a2565b34801561096757600080fd5b5061067f6109763660046158ac565b612341565b34801561098757600080fd5b5061099b61099636600461582d565b612447565b604051610628919061595d565b3480156109b457600080fd5b5061061e60165481565b3480156109ca57600080fd5b5061061e6109d936600461582d565b601b6020526000908152604090205481565b3480156109f757600080fd5b5061061e601c5481565b348015610a0d57600080fd5b5061061e610a1c366004615808565b60009182526021602090815260408084206001600160a01b0393909316845291905290205490565b348015610a5057600080fd5b5061067f610a5f36600461584a565b601555565b348015610a7057600080fd5b5061061e600e5481565b348015610a8657600080fd5b5061061e600c5481565b348015610a9c57600080fd5b5061067f610aab36600461582d565b6124f3565b348015610abc57600080fd5b506106c1610acb36600461582d565b6025602052600090815260409020546001600160a01b031681565b348015610af257600080fd5b50610afb6124fe565b6040516106289190615970565b348015610b1457600080fd5b5061061e610b233660046157cf565b61250f565b348015610b3457600080fd5b5061061e60195481565b348015610b4a57600080fd5b5061067f61268f565b348015610b5f57600080fd5b5061061e610b6e366004615808565b60208080526000928352604080842090915290825290205481565b348015610b9557600080fd5b50610afb610ba436600461582d565b6126a3565b348015610bb557600080fd5b5061061e610bc43660046157cf565b6001600160a01b039182166000908152600b602090815260408083209390941682529182528281206015548252909152205490565b348015610c0557600080fd5b5061061e60155481565b348015610c1b57600080fd5b5061067f610c2a3660046159f6565b6126c7565b348015610c3b57600080fd5b5061067f610c4a36600461582d565b61275d565b348015610c5b57600080fd5b5061067f610c6a366004615a3b565b6127dd565b348015610c7b57600080fd5b5061067f610c8a36600461584a565b61285f565b348015610c9b57600080fd5b5061061e610caa36600461582d565b60266020526000908152604090205481565b348015610cc857600080fd5b5061067f610cd7366004615a98565b6128ab565b348015610ce857600080fd5b507f9016d09d72d40fdae2fd8ceac6b6234c7706214fd39c1cd1e609a0528c199300546001600160a01b03166106c1565b61067f610d27366004615afd565b61290e565b348015610d3857600080fd5b5061061e610d473660046157cf565b612a57565b348015610d5857600080fd5b50610d61612b9f565b604051610628929190615bbb565b348015610d7b57600080fd5b50610d8f610d8a36600461582d565b612c02565b60405161062893929190615bdd565b348015610daa57600080fd5b5061061e60185481565b348015610dc057600080fd5b5061061e61271081565b348015610dd657600080fd5b5061067f610de536600461584a565b612cb6565b348015610df657600080fd5b50610afb610e0536600461582d565b612d1a565b348015610e1657600080fd5b5061061e610e253660046157cf565b601160209081526000928352604080842090915290825290205481565b348015610e4e57600080fd5b50610afb612d3e565b348015610e6357600080fd5b5061061e610e723660046157cf565b601360209081526000928352604080842090915290825290205481565b348015610e9b57600080fd5b506108cd610eaa36600461582d565b612da0565b348015610ebb57600080fd5b5061067f612dac565b348015610ed057600080fd5b5061061e60175481565b348015610ee657600080fd5b5061067f610ef5366004615863565b612e0a565b348015610f0657600080fd5b50610f1a610f15366004615c3a565b613171565b6040516106289190615ceb565b348015610f3357600080fd5b506108cd610f42366004615d19565b613221565b348015610f5357600080fd5b50610f1a610f62366004615a3b565b6133fc565b348015610f7357600080fd5b5061061e6134a1565b348015610f8857600080fd5b5061067f610f97366004615863565b6134c0565b348015610fa857600080fd5b5061067f610fb736600461582d565b61356a565b348015610fc857600080fd5b5061067f610fd7366004615808565b61373d565b348015610fe857600080fd5b50610afb61387c565b348015610ffd57600080fd5b5061061e600d5481565b34801561101357600080fd5b5061061e61102236600461582d565b60106020526000908152604090205481565b34801561104057600080fd5b50610afb613888565b34801561105557600080fd5b50601d546106c1906001600160a01b031681565b34801561107557600080fd5b5061067f611084366004615863565b6001600160a01b039091166000908152601b6020526040902055565b3480156110ac57600080fd5b5061067f6110bb36600461582d565b602880546001600160a01b0319166001600160a01b0392909216919091179055565b3480156110e957600080fd5b5061061e6110f83660046157cf565b600f60209081526000928352604080842090915290825290205481565b34801561112157600080fd5b5061067f61113036600461582d565b601d80546001600160a01b0319166001600160a01b0392909216919091179055565b34801561115e57600080fd5b5061067f613894565b34801561117357600080fd5b5061067f6139d4565b34801561118857600080fd5b5061061e610bb881565b34801561119e57600080fd5b50606461061e565b3480156111b257600080fd5b5061067f6111c136600461582d565b613a33565b3480156111d257600080fd5b5061067f6111e1366004615863565b613a6e565b3480156111f257600080fd5b5060016108cd565b34801561120657600080fd5b506108cd61121536600461582d565b613b27565b34801561122657600080fd5b5061061e61123536600461582d565b60276020526000908152604090205481565b34801561125357600080fd5b5061061e61126236600461582d565b60126020526000908152604090205481565b34801561128057600080fd5b5061067f61128f36600461582d565b613b44565b7ff0c57e16840df040f15088dc2f81fe391c3923bec73e23a9662efc9c229c6a00805468010000000000000000810460ff16159067ffffffffffffffff166000811580156112df5750825b905060008267ffffffffffffffff1660011480156112fc5750303b155b90508115801561130a575080155b156113285760405163f92ee8a960e01b815260040160405180910390fd5b845467ffffffffffffffff19166001178555831561135c57845468ff00000000000000001916680100000000000000001785555b6001600160a01b038b166113835760405163d92e233d60e01b815260040160405180910390fd5b61138c8a613b4d565b8761139a60408c018c615d35565b6113a691506002615d95565b146113c35760405162d6988760e81b815260040160405180910390fd5b856113d160408c018c615d35565b9050146113f1576040516320041afd60e01b815260040160405180910390fd5b6113fa8b613cb0565b611402613cc1565b61140f60208b018b61582d565b601d80546001600160a01b0319166001600160a01b039290921691909117905561143f60408b0160208c0161582d565b602480546001600160a01b0319166001600160a01b039290921691909117905536600061146f60408d018d615d35565b9150915060005b8181101561169257600083838381811061149257611492615dac565b90506020020160208101906114a7919061582d565b6001600160a01b0316036114ce5760405163d92e233d60e01b815260040160405180910390fd5b6114ff8383838181106114e3576114e3615dac565b90506020020160208101906114f8919061582d565b6000613cd1565b61152e83838381811061151457611514615dac565b9050602002016020810190611529919061582d565b613d30565b8b8b61153b836002615d95565b81811061154a5761154a615dac565b905060200201358c8c8360026115609190615d95565b61156b906001615dc2565b81811061157a5761157a615dac565b9050602002013560405160200161159b929190918252602082015260400190565b604051602081830303815290604052601e60008585858181106115c0576115c0615dac565b90506020020160208101906115d5919061582d565b6001600160a01b031681526020810191909152604001600020906115f99082615e5f565b5089898281811061160c5761160c615dac565b90506020020160208101906116219190615f1f565b601e600085858581811061163757611637615dac565b905060200201602081019061164c919061582d565b6001600160a01b031681526020810191909152604001600020600190810180546fffffffffffffffffffffffffffffffff191660809390931c9290921790915501611476565b5060408051600580825260c082019092526000916020820160a0803683370190505090506802b5e3af16b1880000816000815181106116d3576116d3615dac565b60200260200101818152505068056bc75e2d63100000816001815181106116fc576116fc615dac565b602002602001018181525050680821ab0d44149800008160028151811061172557611725615dac565b602002602001018181525050680ad78ebc5ac62000008160038151811061174e5761174e615dac565b602002602001018181525050680d8d726b7177a800008160048151811061177757611777615dac565b602090810291909101015261179b632bafde8d60e01b636d3d4db560e11b83613d45565b50505060608a0135600d5560808a0135600c5560a08a0135600e5560c08a01356016556101008a01356014554260185560e08a0135601755831561181e57845468ff000000000000000019168555604051600181527fc7f505b2f371ae2175ee4913f4499e1f2633a7b5936321eed1cdaeb6115181d29060200160405180910390a15b5050505050505050505050565b6001600160a01b0380841660009081526022602090815260408083209386168352928152828220848352905220545b9392505050565b6001600160a01b038083166000908152602360209081526040808320938516835292905220545b92915050565b601d546001600160a01b031633148015906118b457506028546001600160a01b03163314155b156118d1576040516282b42960e81b815260040160405180910390fd5b60006118dd6004613dfa565b905060005b81518110156119155761190d82828151811061190057611900615dac565b6020026020010151613e07565b6001016118e2565b5050565b601854601654600091901561192f576001611932565b60005b60ff16601a54601654836119469190615dc2565b6119509190615dc2565b61195a9190615f3a565b91505090565b3a60000361198157604051630e661aed60e41b815260040160405180910390fd5b816001600160a01b0316836001600160a01b0316036119b357604051630a5eddd560e01b815260040160405180910390fd5b336119bf848284613e4d565b6119ca8382846140fb565b601554604080516001600160a01b0387811682526020820186905280851692908716917f4480d8e4b1e9095b94bf513961d26fe1d32386ebdd103d18fe8738cf4b2223ff910160405180910390a450505050565b3a600003611a3f57604051630e661aed60e41b815260040160405180910390fd5b3334611a4c8383836140fb565b601554826001600160a01b0316846001600160a01b03167f2273de02cb1f69ba6259d22c4bc22c60e4c94c193265ef6afee324a04a9b6d2284604051611a9491815260200190565b60405180910390a4505050565b611aa961444c565b80611ac06000356001600160e01b03191682613221565b611ae5576040516373330d9b60e01b8152600481018290526024015b60405180910390fd5b600d8290556040518281527ffee02ce7aa40f9c49eaabd26d404fa88714b97cb209af8954cfd5eeb8213b93e906020015b60405180910390a15050565b3a600003611b4357604051630e661aed60e41b815260040160405180910390fd5b600080611b506002613dfa565b90508051600003611b7457604051631c369b4560e21b815260040160405180910390fd5b60005b8151811015611d5c576000828281518110611b9457611b94615dac565b60200260200101519050611ba7816144a7565b80611c1d5750601d54604051639d6fc1d160e01b81526001600160a01b03838116600483015290911690639d6fc1d190602401602060405180830381865afa158015611bf7573d6000803e3d6000fd5b505050506040513d601f19601f82011682018060405250810190611c1b9190615f4d565b155b15611c285750611d54565b611c336002826144e5565b506001600160a01b0381166000908152601f60209081526040808320805460ff19166001179055601b9091528120805490829055601c805491928392611c7a908490615f3a565b9091555060009050611c8b83612d1a565b905060005b8151811015611cf6576000828281518110611cad57611cad615dac565b6020908102919091018101516001600160a01b0380881660009081526013845260408082209284168252919093528220919091559050611ced85826144fa565b50600101611c90565b50611d018287615dc2565b9550826001600160a01b0316336001600160a01b03167f8e6a4ccd7dccdca9ac211d00fcc3fa7c71be75ff73d3a35f63ea023173cc100484604051611d4891815260200190565b60405180910390a35050505b600101611b77565b5081600003611d7e57604051631c369b4560e21b815260040160405180910390fd5b6000611d8b600284615f6f565b90506000611d998285615f3a565b90506000601d60009054906101000a90046001600160a01b03166001600160a01b03166356b54bae6040518163ffffffff1660e01b8152600401602060405180830381865afa158015611df0573d6000803e3d6000fd5b505050506040513d601f19601f82011682018060405250810190611e149190615f91565b90506000816001600160a01b031663732524946040518163ffffffff1660e01b8152600401602060405180830381865afa158015611e56573d6000803e3d6000fd5b505050506040513d601f19601f82011682018060405250810190611e7a9190615f91565b9050816001600160a01b031663af182535846040518263ffffffff1660e01b81526004016000604051808303818588803b158015611eb757600080fd5b505af1158015611ecb573d6000803e3d6000fd5b5050505050611eda818561455c565b604080518481526020810186905233917f1c113e6bae9530fea40323e612aeb0cb7817dedb5a0b0f6bdfbff97d55920dc7910160405180910390a2505050505050565b601d546001600160a01b03163314801590611f4357506028546001600160a01b03163314155b15611f60576040516282b42960e81b815260040160405180910390fd5b611f6981613e07565b50565b601d60009054906101000a90046001600160a01b03166001600160a01b03166356b54bae6040518163ffffffff1660e01b8152600401602060405180830381865afa158015611fbf573d6000803e3d6000fd5b505050506040513d601f19601f82011682018060405250810190611fe39190615f91565b6001600160a01b0316336001600160a01b031614612013576040516282b42960e81b815260040160405180910390fd5b3415611915576015546000908152602080805260408083206001600160a01b0386168452909152812054349161204a858486614603565b9050600061205786612d1a565b905060005b81518110156121a65760008461208e6015548a86868151811061208157612081615dac565b6020026020010151614722565b856040015161209d9190615d95565b6120a79190615f6f565b905080601360008a6001600160a01b03166001600160a01b0316815260200190815260200160002060008585815181106120e3576120e3615dac565b60200260200101516001600160a01b03166001600160a01b03168152602001908152602001600020600082825461211a9190615dc2565b90915550506001600160a01b0388166000908152600b60205260408120845183929086908690811061214e5761214e615dac565b60200260200101516001600160a01b03166001600160a01b031681526020019081526020016000206000601554815260200190815260200160002060008282546121989190615dc2565b90915550505060010161205c565b506020820151156121bf576121bf8683602001516147c1565b81516001600160a01b0387166000908152601360209081526040808320909152812080549091906121f1908490615dc2565b90915550506001600160a01b0386166000908152601b60205260408120805486929061221e908490615dc2565b9250508190555083601c60008282546122379190615dc2565b90915550612246905086614888565b60155482516001600160a01b038816907f72093068b9f28053bd924ac15d7710b987f9b6ef1e0f89f47d8b4bd7cac776dc906122828189615f3a565b6040805192835260208301919091520160405180910390a3505050505050565b601d546040516253517560e01b81523360048201526000916001600160a01b0316906253517590602401602060405180830381865afa1580156122e9573d6000803e3d6000fd5b505050506040513d601f19601f8201168201806040525081019061230d9190615f91565b6001600160a01b03160361233657604051632670461960e11b8152336004820152602401611adc565b611915338383614974565b61234961444c565b6000612353614aac565b90506040518060400160405280857bffffffffffffffffffffffffffffffffffffffffffffffffffffffff1916815260200184848080602002602001604051908101604052809392919081815260200183836020028082843760009201829052509390945250506001600160e01b031988168152602084815260409091208351815463ffffffff191660e09190911c1781558382015180519193506123ff926001850192910190615603565b509050507f3665bf9cd0ba4ddceeec259e21dcf8a4510f3b1130bd42e950828e69d85408ba858585856040516124389493929190615fae565b60405180910390a15050505050565b6001600160a01b0381166000908152601e6020526040902080546060919061246e90615dd5565b80601f016020809104026020016040519081016040528092919081815260200182805461249a90615dd5565b80156124e75780601f106124bc576101008083540402835291602001916124e7565b820191906000526020600020905b8154815290600101906020018083116124ca57829003601f168201915b50505050509050919050565b611f69816001613cd1565b606061250a6000613dfa565b905090565b601d546040516253517560e01b81526001600160a01b03848116600483015260009283929116906253517590602401602060405180830381865afa15801561255b573d6000803e3d6000fd5b505050506040513d601f19601f8201168201806040525081019061257f9190615f91565b90506001600160a01b0384166000908152601f602052604090205460ff16156125ac576000915050611888565b6001600160a01b03848116600090815260136020908152604080832087851684529091529081902054601d54915163a0d16cad60e01b815284841660048201529092919091169063a0d16cad90602401602060405180830381865afa158015612619573d6000803e3d6000fd5b505050506040513d601f19601f8201168201806040525081019061263d9190615f4d565b61264a5791506118889050565b6001600160a01b038581166000908152600b60209081526040808320938816835292815282822060155483529052205480821115612686578091505b50949350505050565b61269761444c565b6126a16000614b0e565b565b6001600160a01b0381166000908152600a6020526040902060609061188890613dfa565b601d546001600160a01b031633148015906126ed57506028546001600160a01b03163314155b1561270a576040516282b42960e81b815260040160405180910390fd5b6001600160a01b039092166000908152601e60205260409020600101805460f09390931c600160801b0271ffffffffffffffffffffffffffffffffffff1990931660809290921c91909117919091179055565b601d546001600160a01b0316331480159061278357506028546001600160a01b03163314155b156127a0576040516282b42960e81b815260040160405180910390fd5b600c546001600160a01b038216600090815260136020908152604080832090915290205410611f69576127d4816001613cd1565b611f6981614888565b6127e561444c565b60006127ef614aac565b6001600160e01b031983166000908152602082905260408120805463ffffffff19168155919250612823600183018261564e565b50506040516001600160e01b0319831681527fed27cb02231782dadf13473a7828cb980c4d685791b7a3136dde00f8c3594cb690602001611b16565b601d546001600160a01b0316331480159061288557506028546001600160a01b03163314155b156128a2576040516282b42960e81b815260040160405180910390fd5b60185543601955565b336000908152601e602052604090206128c584868361601b565b50336000908152601e60205260409020600101805460f09290921c600160801b0271ffffffffffffffffffffffffffffffffffff1990921660809390931c929092171790555050565b3a60000361292f57604051630e661aed60e41b815260040160405180910390fd5b601d54604051630526083960e11b81526001600160a01b0388811660048301523360248301819052923492911690630a4c107290604401600060405180830381600087803b15801561298057600080fd5b505af1158015612994573d6000803e3d6000fd5b505050506001600160a01b0382166000908152601e602052604090206129bb85878361601b565b506001600160a01b0382166000908152601e6020526040902060010180546fffffffffffffffffffffffffffffffff1916608085901c1790556129ff828888614974565b612a0a8283836140fb565b6015546040518281526001600160a01b0384169081907f2273de02cb1f69ba6259d22c4bc22c60e4c94c193265ef6afee324a04a9b6d229060200160405180910390a45050505050505050565b601d546040516253517560e01b81526001600160a01b03848116600483015260009283929116906253517590602401602060405180830381865afa158015612aa3573d6000803e3d6000fd5b505050506040513d601f19601f82011682018060405250810190612ac79190615f91565b9050601d5460405163a0d16cad60e01b81526001600160a01b0383811660048301529091169063a0d16cad90602401602060405180830381865afa158015612b13573d6000803e3d6000fd5b505050506040513d601f19601f82011682018060405250810190612b379190615f4d565b612b45576000915050611888565b6001600160a01b038481166000818152600b602090815260408083209488168084529482528083206015548452825280832054938352601382528083209483529390529190912054612b979190615f3a565b949350505050565b60606000600760085481805480602002602001604051908101604052809291908181526020018280548015612bf357602002820191906000526020600020905b815481526020019060010190808311612bdf575b50505050509150915091509091565b601e60205260009081526040902080548190612c1d90615dd5565b80601f0160208091040260200160405190810160405280929190818152602001828054612c4990615dd5565b8015612c965780601f10612c6b57610100808354040283529160200191612c96565b820191906000526020600020905b815481529060010190602001808311612c7957829003601f168201915b50505060019093015491925050608081901b90600160801b900460f01b83565b601d546001600160a01b03163314801590612cdc57506028546001600160a01b03163314155b15612cf9576040516282b42960e81b815260040160405180910390fd5b60175481601a54612d0a9190615dc2565b612d149190615dc2565b601a5550565b6001600160a01b038116600090815260096020526040902060609061188890613dfa565b60606006805480602002602001604051908101604052809291908181526020018280548015612d9657602002820191906000526020600020905b81546001600160a01b03168152600190910190602001808311612d78575b5050505050905090565b60006118888183614b7f565b601d546001600160a01b03163314801590612dd257506028546001600160a01b03163314155b15612def576040516282b42960e81b815260040160405180910390fd5b601754601a6000828254612e039190615dc2565b9091555050565b3a600003612e2b57604051630e661aed60e41b815260040160405180910390fd5b6001600160a01b038216612e525760405163d92e233d60e01b815260040160405180910390fd5b80600003612e7357604051633ca0029d60e01b815260040160405180910390fd5b6001600160a01b0382166000818152600f602090815260408083203380855290835281842054858552601084528285205460138552838620838752855283862054968652601b9094529184205490949193861315612f7d57856000612ed88988612a57565b905080821115612f0557604051632de4882160e01b81526004810182905260248101839052604401611adc565b612f0f8287615dc2565b9550612f1b8286615dc2565b9450612f278285615f3a565b9350612f338284615f3a565b925081601c6000828254612f479190615f3a565b90915550506015546001600160a01b03808b166000908152601160209081526040808320938c168352929052205550612fd39050565b6000612f88876160dc565b9050612f948186615f3a565b9450612fa08185615f3a565b9350612fac8184615dc2565b9250612fb88183615dc2565b915080601c6000828254612fcc9190615dc2565b9091555050505b6001600160a01b038088166000818152600f60209081526040808320948a1680845294825280832089905583835260108252808320889055601382528083208584528252808320879055838352601b909152902083905590036130a25781158015906130405750600c5482105b1561307857604051636fe84f3d60e01b81526001600160a01b0380891660048301528616602482015260448101879052606401611adc565b600086131561309757816000036130925761309287613d30565b61310f565b613092876001613cd1565b81158015906130b25750600d5482105b156130ea57604051636fe84f3d60e01b81526001600160a01b0380891660048301528616602482015260448101879052606401611adc565b600086131561310557816000036130925761309287866144fa565b61310f8786614ba1565b61311887614888565b601554856001600160a01b0316886001600160a01b03167f80d5c777e5f7ac6ee89723223803ca5c0ec0204f89e99c1b0cde973c66a645948960405161316091815260200190565b60405180910390a450505050505050565b60408051808201909152600081526060602082015261318e614aac565b82516020808501919091206001600160e01b0319908116600090815292825260409283902083518085018552815460e01b909216825260018101805485518186028101860190965280865292949193858101939083018282801561321157602002820191906000526020600020905b8154815260200190600101908083116131fd575b5050505050815250509050919050565b60008061322c614aac565b6001600160e01b031980861660009081526020838152604080832081518083018352815460e01b909516855260018101805483518186028101860190945280845296975093959093858401939091908301828280156132aa57602002820191906000526020600020905b815481526020019060010190808311613296575b50505050508152505090508060200151516000036132cd57600092505050611888565b602081015181516000906132e090614bce565b905060005b82518110156133ee578183828151811061330157613301615dac565b6020026020010151036133e6576000808211613337578360008151811061332a5761332a615dac565b602002602001015161335c565b83613343600184615f3a565b8151811061335357613353615dac565b60200260200101515b905060006001855161336e9190615f3a565b83106133a05784600186516133839190615f3a565b8151811061339357613393615dac565b60200260200101516133c5565b846133ac846001615dc2565b815181106133bc576133bc615dac565b60200260200101515b90508189141580156133d75750808914155b15975050505050505050611888565b6001016132e5565b506000979650505050505050565b604080518082019091526000815260606020820152613419614aac565b6001600160e01b03198084166000908152602092835260409081902081518083018352815460e01b909316835260018101805483518187028101870190945280845293949193858301939283018282801561321157602002820191906000526020600020908154815260200190600101908083116131fd575050505050815250509050919050565b60006017546016546018546134b69190615dc2565b61250a9190615f3a565b6024546001600160a01b031633146134ea576040516282b42960e81b815260040160405180910390fd5b601d546040516307b9342f60e21b81526001600160a01b0384811660048301526000921690631ee4d0bc90602401602060405180830381865afa158015613535573d6000803e3d6000fd5b505050506040513d601f19601f820116820180604052508101906135599190615f91565b90506135658183614ca5565b505050565b3a60000361358b57604051630e661aed60e41b815260040160405180910390fd5b613593614d4f565b6001600160a01b038116600090815260116020908152604080832033808552925290912054601554116135ec57604051630b06352b60e31b81526001600160a01b03808416600483015282166024820152604401611adc565b6001600160a01b038083166000908152600f602090815260408083209385168352929052908120549081900361363557604051633ca0029d60e01b815260040160405180910390fd5b6001600160a01b038084166000818152600f60209081526040808320948716835293815283822082905591815260109091522054613674908290615f3a565b6001600160a01b03808516600090815260106020908152604080832094909455601381528382209286168252919091529081205490036136b8576136b88383614d99565b6136c2828261455c565b601554826001600160a01b0316846001600160a01b03167ff380b0bc887e00f5b50d3c9d4eaaf5c9a0afd97b956316b995159384c4ede9b38460405161370a91815260200190565b60405180910390a45050611f6960017f9b779b17422d0df92223018b32b4d1fa46e071723d6817e2486d003becc55f0055565b601d60009054906101000a90046001600160a01b03166001600160a01b03166356b54bae6040518163ffffffff1660e01b8152600401602060405180830381865afa158015613790573d6000803e3d6000fd5b505050506040513d601f19601f820116820180604052508101906137b49190615f91565b6001600160a01b0316336001600160a01b0316146137e4576040516282b42960e81b815260040160405180910390fd5b6000828152602080805260408083206001600160a01b03851684529091528120549003611915576001600160a01b0381166000908152601b60205260408120549081900361383157505050565b6000838152602080805260408083206001600160a01b038616808552908352818420949094556013825280832082528083205486845260218352818420948452939091529020555050565b606061250a6004613dfa565b606061250a6002613dfa565b3a6000036138b557604051630e661aed60e41b815260040160405180910390fd5b601d546040516253517560e01b81523360048201819052916000916001600160a01b03909116906253517590602401602060405180830381865afa158015613901573d6000803e3d6000fd5b505050506040513d601f19601f820116820180604052508101906139259190615f91565b905060155460001480156139a25750601d5460405163facd743b60e01b81526001600160a01b0383811660048301529091169063facd743b90602401602060405180830381865afa15801561397e573d6000803e3d6000fd5b505050506040513d601f19601f820116820180604052508101906139a29190615f4d565b156139cb576040516303d71f2d60e51b81526001600160a01b0383166004820152602401611adc565b61191582613e07565b601d546001600160a01b031633148015906139fa57506028546001600160a01b03163314155b15613a17576040516282b42960e81b815260040160405180910390fd5b60158054906000613a27836160f8565b90915550506000601a55565b613a3b61444c565b6001600160a01b038116613a6557604051631e4fbdf760e01b815260006004820152602401611adc565b611f6981614b0e565b3a600003613a8f57604051630e661aed60e41b815260040160405180910390fd5b613a97614d4f565b33613aa3838284613e4d565b613aad818361455c565b601554816001600160a01b0316846001600160a01b03167fa7c0f0cac6bd4d18042007706c84a8abe823751cf289b69c01e83eef7b5915c785604051613af591815260200190565b60405180910390a45061191560017f9b779b17422d0df92223018b32b4d1fa46e071723d6817e2486d003becc55f0055565b6000613b338183614b7f565b806118885750611888600283614b7f565b611f6981614eef565b60c08101351580613b6757508061010001358160c0013511155b15613b855760405163c671116b60e01b815260040160405180910390fd5b806101000135600003613bab576040516332154b4760e01b815260040160405180910390fd5b60e08101351580613bc457508060c001358160e0013510155b15613be257604051630685efe960e01b815260040160405180910390fd5b6000613bf1602083018361582d565b6001600160a01b031603613c185760405163d92e233d60e01b815260040160405180910390fd5b613c256040820182615d35565b9050600003613c4757604051635c9a24ed60e11b815260040160405180910390fd5b60608101351580613c5a57506080810135155b15613c885760405163633373e160e11b81526080820135600482015260608201356024820152604401611adc565b80608001358160a0013511611f6957604051631c6d3b1560e01b815260040160405180910390fd5b613cb8614efa565b611f6981614f48565b613cc9614efa565b6126a1614f50565b613cda82612da0565b613d1557613ce9600083614f58565b506064613cf66000614f6d565b1115613d155760405163398dcd9d60e21b815260040160405180910390fd5b613d206002836144e5565b5080156119155761191582614f77565b613d3b600482614f58565b50611f698161506c565b613d4d614efa565b6000613d57614aac565b6040805180820182526001600160e01b0319868116825260208083018781529189166000908152858252939093208251815463ffffffff191660e09190911c1781559051805194955091939092613db5926001850192910190615603565b509050507f3665bf9cd0ba4ddceeec259e21dcf8a4510f3b1130bd42e950828e69d85408ba848484604051613dec93929190616111565b60405180910390a150505050565b6060600061185a83615289565b613e126000826144e5565b50613e1c816144a7565b15613e3257613e2c6002826144e5565b50613e3b565b613e3b81614eef565b613e448161506c565b611f69816152e4565b6001600160a01b038316613e745760405163d92e233d60e01b815260040160405180910390fd5b80600003613e9557604051633ca0029d60e01b815260040160405180910390fd5b6000613ea1848461250f565b905080821115613ece57604051632de4882160e01b81526004810182905260248101839052604401611adc565b6001600160a01b038085166000908152601360209081526040808320938716835292905290812054613f01908490615f3a565b90506000846001600160a01b0316866001600160a01b031614613f2657600d54613f2a565b600c545b90508115801590613f3a57508082105b15613f7257604051639e612d5760e01b81526001600160a01b0380881660048301528616602482015260448101859052606401611adc565b856001600160a01b0316856001600160a01b03161461400757601d546040516253517560e01b81526001600160a01b03888116600483015260009216906253517590602401602060405180830381865afa158015613fd4573d6000803e3d6000fd5b505050506040513d601f19601f82011682018060405250810190613ff89190615f91565b90506140058782886152ef565b505b6001600160a01b038681166000818152601360209081526040808320948a16808452948252808320879055928252600b815282822093825292835281812060155482529092529020548481101561405f576000614069565b6140698582615f3a565b6001600160a01b038089166000818152600b60209081526040808320948c1683529381528382206015548352815283822094909455908152601b909252812080548792906140b8908490615f3a565b9250508190555084601c60008282546140d19190615f3a565b909155505060008390036140e9576140e98787614d99565b6140f287614888565b50505050505050565b6001600160a01b0383166141225760405163d92e233d60e01b815260040160405180910390fd5b601d546040516253517560e01b81526001600160a01b03858116600483015260009216906253517590602401602060405180830381865afa15801561416b573d6000803e3d6000fd5b505050506040513d601f19601f8201168201806040525081019061418f9190615f91565b90506001600160a01b0381166141c357604051632670461960e11b81526001600160a01b0385166004820152602401611adc565b816000036141f75760405163e59f5c3960e01b81526001600160a01b03808616600483015284166024820152604401611adc565b6001600160a01b0384166000908152601f602052604090205460ff161561423c5760405163078137eb60e41b81526001600160a01b0385166004820152602401611adc565b6001600160a01b038085166000818152601360209081526040808320948816808452949091528120549290911491614275908590615dc2565b9050600082156142885750600c546142d7565b50600d546001600160a01b038716600090815260136020908152604080832090915281205490036142d75760405163cbbeb0bd60e01b81526001600160a01b0388166004820152602401611adc565b8082101561430b5760405163e59f5c3960e01b81526001600160a01b03808916600483015287166024820152604401611adc565b600e546001600160a01b0388166000908152601b6020526040902054614332908790615dc2565b111561436457604051632c2b174160e21b81526001600160a01b03808916600483015287166024820152604401611adc565b6001600160a01b038088166000908152600b60209081526040808320938a1683529281528282206015548352905290812080548792906143a5908490615dc2565b90915550506001600160a01b0387166000908152601b6020526040812080548792906143d2908490615dc2565b9250508190555084601c60008282546143eb9190615dc2565b9091555050821561440657614401876001613cd1565b61441b565b6144108787614ba1565b61441b8785886152ef565b6001600160a01b038088166000908152601360209081526040808320938a168352929052208290556140f287614888565b3361447e7f9016d09d72d40fdae2fd8ceac6b6234c7706214fd39c1cd1e609a0528c199300546001600160a01b031690565b6001600160a01b0316146126a15760405163118cdaa760e01b8152336004820152602401611adc565b6001600160a01b0381166000908152601b60205260408120541580156118885750506001600160a01b03166000908152601060205260409020541590565b600061185a836001600160a01b03841661540b565b6001600160a01b038216600090815260096020526040902061451c90826144e5565b506001600160a01b038083166000908152600f6020908152604080832093851683529290522054156145525761191582826154fe565b6119158282615520565b8047101561457d57604051631e9acf1760e31b815260040160405180910390fd5b6000826001600160a01b03168260405160006040518083038185875af1925050503d80600081146145ca576040519150601f19603f3d011682016040523d82523d6000602084013e6145cf565b606091505b505090508061356557604051630e21dcbb60e11b81526001600160a01b038416600482015260248101839052604401611adc565b61462760405180606001604052806000815260200160008152602001600081525090565b6015546000818152602080805260408083206001600160a01b038916808552908352818420549484526021835281842090845290915281205490606461466d8688615d95565b6146779190615f6f565b90506146838187615f3a565b6040808601919091526001600160a01b038089166000908152602660209081528382205460259091529290205416158015906146be57508015155b156146e0576127106146d08289615d95565b6146da9190615f6f565b60208601525b838386604001516146f19190615d95565b6146fb9190615f6f565b602086015161470a9084615f3a565b6147149190615dc2565b855250929695505050505050565b6000836000036147345750600061185a565b6001600160a01b0380841660009081526023602090815260408083209386168352929052205484900361479557506001600160a01b03808316600090815260226020908152604080832093851683529281528282208683529052205461185a565b506001600160a01b0380831660009081526013602090815260408083209385168352929052205461185a565b6001600160a01b0380831660009081526025602090815260408083205460099092529091209116906147f39082614b7f565b614801576148018382614ba1565b6001600160a01b03808416600090815260136020908152604080832093851683529290529081208054849290614838908490615dc2565b90915550506001600160a01b038084166000908152600b60209081526040808320938516835292815282822060155483529052908120805484929061487e908490615dc2565b9091555050505050565b601d546040516253517560e01b81526001600160a01b03838116600483015260009216906253517590602401602060405180830381865afa1580156148d1573d6000803e3d6000fd5b505050506040513d601f19601f820116820180604052508101906148f59190615f91565b60248054604051633941e77760e21b81526001600160a01b0380851660048301529394506000939091169163e5079ddc9101602060405180830381865afa158015614944573d6000803e3d6000fd5b505050506040513d601f19601f82011682018060405250810190614968919061613e565b90506135658382614ca5565b6107d081111561499a5760405163e429b69160e01b815260048101829052602401611adc565b6001600160a01b0382161580156149b057508015155b156149e05760405163073c315960e11b81526001600160a01b038316600482015260248101829052604401611adc565b6001600160a01b0383166000908152602760205260409020548015801590614a09575060155481145b15614a2d5760155460405163e7cbc70160e01b8152600401611adc91815260200190565b6001600160a01b03848116600081815260256020908152604080832080546001600160a01b03191695891695861790556026825280832087905560155460278352928190209290925590518581527fd6ae57aa2cc060d4094c47d20c672afe0e53963e6459c15cab215abb8c88b863910160405180910390a350505050565b60008060ff19614add60017fdace3fd3d1fbdfd33853f19ba191d28c617e373ec58fc73cf7b58db5aff2c2ab615f3a565b604051602001614aef91815260200190565b60408051601f1981840301815291905280516020909101201692915050565b7f9016d09d72d40fdae2fd8ceac6b6234c7706214fd39c1cd1e609a0528c19930080546001600160a01b031981166001600160a01b03848116918217845560405192169182907f8be0079c531659141344cd1fd0a4f28419497f9722a3daafe3b4186f6b6457e090600090a3505050565b6001600160a01b0381166000908152600183016020526040812054151561185a565b6001600160a01b0382166000908152600960205260409020614bc39082614f58565b506119158282615520565b60408051600481526024810182526020810180517bffffffffffffffffffffffffffffffffffffffffffffffffffffffff166001600160e01b03198516179052905160009190829081903090614c25908590616157565b600060405180830381855afa9150503d8060008114614c60576040519150601f19603f3d011682016040523d82523d6000602084013e614c65565b606091505b509150915081614c8857604051635fbab09b60e11b815260040160405180910390fd5b80806020019051810190614c9c919061613e565b95945050505050565b600080614cb184615542565b9150915081614cc05750505050565b600060078281548110614cd557614cd5615dac565b60009182526020808320909101546001600160a01b0388168352601b9091526040822054909250614d07908690615d95565b90508060078481548110614d1d57614d1d615dac565b90600052602060002001819055508082600854614d3a9190615f3a565b614d449190615dc2565b600855505050505050565b7f9b779b17422d0df92223018b32b4d1fa46e071723d6817e2486d003becc55f00805460011901614d9357604051633ee5aeb560e01b815260040160405180910390fd5b60029055565b816001600160a01b0316816001600160a01b031603614ea657601d546040516253517560e01b81526001600160a01b03848116600483015260009216906253517590602401602060405180830381865afa158015614dfb573d6000803e3d6000fd5b505050506040513d601f19601f82011682018060405250810190614e1f9190615f91565b601d5460405163facd743b60e01b81526001600160a01b03808416600483015292935091169063facd743b90602401602060405180830381865afa158015614e6b573d6000803e3d6000fd5b505050506040513d601f19601f82011682018060405250810190614e8f9190615f4d565b15614e9d5761356583613d30565b61356583613e07565b614eb082826144fa565b614eb9826144a7565b15611915576135656002836144e5565b60017f9b779b17422d0df92223018b32b4d1fa46e071723d6817e2486d003becc55f0055565b611915600282614f58565b7ff0c57e16840df040f15088dc2f81fe391c3923bec73e23a9662efc9c229c6a005468010000000000000000900460ff166126a157604051631afcd79f60e31b815260040160405180910390fd5b613a3b614efa565b614ec9614efa565b600061185a836001600160a01b0384166155b4565b6000611888825490565b6001600160a01b0381166000908152601260205260409020546006548082101580614fd25750826001600160a01b031660068381548110614fba57614fba615dac565b6000918252602090912001546001600160a01b031614155b15615063576001600160a01b03831660008181526012602052604081208390556006805460018181019092557ff652222313e28459528d920b65115c16c04f3efc82aaedc97be59f3f377c0d3f0180546001600160a01b03191690931790925560078054928301815581527fa66cc928b5edb82af9bd49922954155ab7b0942694bea4ce44661d9a8736c688909101555b613565836152e4565b6007546006541461507a5750565b6001600160a01b038116600090815260126020526040902054600654811080156150d35750816001600160a01b0316600682815481106150bc576150bc615dac565b6000918252602090912001546001600160a01b0316145b1561191557600781815481106150eb576150eb615dac565b906000526020600020015460085410615138576007818154811061511157615111615dac565b90600052602060002001546008600082825461512d9190615f3a565b9091555061513e9050565b60006008555b60065460009061515090600190615f3a565b905060006006828154811061516757615167615dac565b600091825260209091200154600680546001600160a01b03909216925082918590811061519657615196615dac565b9060005260206000200160006101000a8154816001600160a01b0302191690836001600160a01b03160217905550600782815481106151d7576151d7615dac565b9060005260206000200154600784815481106151f5576151f5615dac565b60009182526020808320909101929092556001600160a01b03808416825260129092526040808220869055918616815290812055600680548061523a5761523a616173565b600082815260209020810160001990810180546001600160a01b0319169055019055600780548061526d5761526d616173565b6001900381819060005260206000200160009055905550505050565b6060816000018054806020026020016040519081016040528092919081815260200182805480156124e757602002820191906000526020600020905b8154815260200190600101908083116152c55750505050509050919050565b6119156004826144e5565b601d5460405163a0d16cad60e01b81526001600160a01b0384811660048301529091169063a0d16cad90602401602060405180830381865afa158015615339573d6000803e3d6000fd5b505050506040513d601f19601f8201168201806040525081019061535d9190615f4d565b15806153695750601554155b1561537357505050565b6001600160a01b03808416600090815260236020908152604080832093851683529290522054601554811015615405576001600160a01b0380851660008181526013602090815260408083209487168084529482528083205484845260228352818420868552835281842060158054865290845282852091909155549383526023825280832094835293905291909120555b50505050565b600081815260018301602052604081205480156154f457600061542f600183615f3a565b855490915060009061544390600190615f3a565b90508082146154a857600086600001828154811061546357615463615dac565b906000526020600020015490508087600001848154811061548657615486615dac565b6000918252602080832090910192909255918252600188019052604090208390555b85548690806154b9576154b9616173565b600190038181906000526020600020016000905590558560010160008681526020019081526020016000206000905560019350505050611888565b6000915050611888565b6001600160a01b0382166000908152600a602052604090206135659082614f58565b6001600160a01b0382166000908152600a6020526040902061356590826144e5565b6001600160a01b0381166000908152601260205260408120546006548110801561559b5750826001600160a01b03166006828154811061558457615584615dac565b6000918252602090912001546001600160a01b0316145b156155a95760019150915091565b506000928392509050565b60008181526001830160205260408120546155fb57508154600181810184556000848152602080822090930184905584548482528286019093526040902091909155611888565b506000611888565b82805482825590600052602060002090810192821561563e579160200282015b8281111561563e578251825591602001919060010190615623565b5061564a929150615668565b5090565b5080546000825590600052602060002090810190611f6991905b5b8082111561564a5760008155600101615669565b6001600160a01b0381168114611f6957600080fd5b6000806000606084860312156156a757600080fd5b83356156b28161567d565b925060208401356156c28161567d565b929592945050506040919091013590565b60008083601f8401126156e557600080fd5b50813567ffffffffffffffff8111156156fd57600080fd5b6020830191508360208260051b850101111561571857600080fd5b9250929050565b6000806000806000806080878903121561573857600080fd5b86356157438161567d565b9550602087013567ffffffffffffffff8082111561576057600080fd5b90880190610120828b03121561577557600080fd5b9095506040880135908082111561578b57600080fd5b6157978a838b016156d3565b909650945060608901359150808211156157b057600080fd5b506157bd89828a016156d3565b979a9699509497509295939492505050565b600080604083850312156157e257600080fd5b82356157ed8161567d565b915060208301356157fd8161567d565b809150509250929050565b6000806040838503121561581b57600080fd5b8235915060208301356157fd8161567d565b60006020828403121561583f57600080fd5b813561185a8161567d565b60006020828403121561585c57600080fd5b5035919050565b6000806040838503121561587657600080fd5b82356158818161567d565b946020939093013593505050565b80356001600160e01b0319811681146158a757600080fd5b919050565b600080600080606085870312156158c257600080fd5b6158cb8561588f565b93506158d96020860161588f565b9250604085013567ffffffffffffffff8111156158f557600080fd5b615901878288016156d3565b95989497509550505050565b60005b83811015615928578181015183820152602001615910565b50506000910152565b6000815180845261594981602086016020860161590d565b601f01601f19169290920160200192915050565b60208152600061185a6020830184615931565b6020808252825182820181905260009190848201906040850190845b818110156159b15783516001600160a01b03168352928401929184019160010161598c565b50909695505050505050565b80356fffffffffffffffffffffffffffffffff19811681146158a757600080fd5b80356001600160f01b0319811681146158a757600080fd5b600080600060608486031215615a0b57600080fd5b8335615a168161567d565b9250615a24602085016159bd565b9150615a32604085016159de565b90509250925092565b600060208284031215615a4d57600080fd5b61185a8261588f565b60008083601f840112615a6857600080fd5b50813567ffffffffffffffff811115615a8057600080fd5b60208301915083602082850101111561571857600080fd5b60008060008060608587031215615aae57600080fd5b843567ffffffffffffffff811115615ac557600080fd5b615ad187828801615a56565b9095509350615ae49050602086016159bd565b9150615af2604086016159de565b905092959194509250565b60008060008060008060a08789031215615b1657600080fd5b8635615b218161567d565b95506020870135615b318161567d565b945060408701359350606087013567ffffffffffffffff811115615b5457600080fd5b615b6089828a01615a56565b9094509250615b739050608088016159bd565b90509295509295509295565b60008151808452602080850194506020840160005b83811015615bb057815187529582019590820190600101615b94565b509495945050505050565b604081526000615bce6040830185615b7f565b90508260208301529392505050565b606081526000615bf06060830186615931565b6fffffffffffffffffffffffffffffffff19949094166020830152506001600160f01b031991909116604090910152919050565b634e487b7160e01b600052604160045260246000fd5b600060208284031215615c4c57600080fd5b813567ffffffffffffffff80821115615c6457600080fd5b818401915084601f830112615c7857600080fd5b813581811115615c8a57615c8a615c24565b604051601f8201601f19908116603f01168101908382118183101715615cb257615cb2615c24565b81604052828152876020848701011115615ccb57600080fd5b826020860160208301376000928101602001929092525095945050505050565b602080825282516001600160e01b03191682820152820151604080830152600090612b976060840182615b7f565b60008060408385031215615d2c57600080fd5b6158818361588f565b6000808335601e19843603018112615d4c57600080fd5b83018035915067ffffffffffffffff821115615d6757600080fd5b6020019150600581901b360382131561571857600080fd5b634e487b7160e01b600052601160045260246000fd5b808202811582820484141761188857611888615d7f565b634e487b7160e01b600052603260045260246000fd5b8082018082111561188857611888615d7f565b600181811c90821680615de957607f821691505b602082108103615e0957634e487b7160e01b600052602260045260246000fd5b50919050565b601f821115613565576000816000526020600020601f850160051c81016020861015615e385750805b601f850160051c820191505b81811015615e5757828155600101615e44565b505050505050565b815167ffffffffffffffff811115615e7957615e79615c24565b615e8d81615e878454615dd5565b84615e0f565b602080601f831160018114615ec25760008415615eaa5750858301515b600019600386901b1c1916600185901b178555615e57565b600085815260208120601f198616915b82811015615ef157888601518255948401946001909101908401615ed2565b5085821015615f0f5787850151600019600388901b60f8161c191681555b5050505050600190811b01905550565b600060208284031215615f3157600080fd5b61185a826159bd565b8181038181111561188857611888615d7f565b600060208284031215615f5f57600080fd5b8151801515811461185a57600080fd5b600082615f8c57634e487b7160e01b600052601260045260246000fd5b500490565b600060208284031215615fa357600080fd5b815161185a8161567d565b6001600160e01b0319858116825284166020820152606060408201819052810182905260007f07ffffffffffffffffffffffffffffffffffffffffffffffffffffffffffffff83111561600057600080fd5b8260051b808560808501379190910160800195945050505050565b67ffffffffffffffff83111561603357616033615c24565b616047836160418354615dd5565b83615e0f565b6000601f84116001811461607b57600085156160635750838201355b600019600387901b1c1916600186901b1783556160d5565b600083815260209020601f19861690835b828110156160ac578685013582556020948501946001909201910161608c565b50868210156160c95760001960f88860031b161c19848701351681555b505060018560011b0183555b5050505050565b6000600160ff1b82016160f1576160f1615d7f565b5060000390565b60006001820161610a5761610a615d7f565b5060010190565b6001600160e01b0319848116825283166020820152606060408201819052600090614c9c90830184615b7f565b60006020828403121561615057600080fd5b5051919050565b6000825161616981846020870161590d565b9190910192915050565b634e487b7160e01b600052603160045260246000fdfea26469706673582212207f921e83bc8b0933363224b7eaa0adf635999426a32ba3159a2bfc03ca8a558164736f6c63430008190033",
  "linkReferences": {},
  "deployedLinkReferences": {}
}