{
  "_format": "hh-sol-artifact-1",
  "contractName": "StakingHbbft",
  "sourceName": "contracts/StakingHbbft.sol",
  "abi": [
    {
      "inputs": [],
      "stateMutability": "nonpayable",
      "type": "constructor"
    },
    {
      "inputs": [
        {
          "internalType": "address",
          "name": "pool",
          "type": "address"
        },
        {
          "internalType": "address",
          "name": "staker",
          "type": "address"
        }
      ],
      "name": "CannotClaimWithdrawOrderYet",
      "type": "error"
    },
    {
      "inputs": [],
      "name": "GetterCallFailed",
      "type": "error"
    },
    {
      "inputs": [],
      "name": "InitialStakingPoolsListEmpty",
      "type": "error"
    },
    {
      "inputs": [],
      "name": "InsufficientBalance",
      "type": "error"
    },
    {
      "inputs": [
        {
          "internalType": "address",
          "name": "pool",
          "type": "address"
        },
        {
          "internalType": "address",
          "name": "delegator",
          "type": "address"
        }
      ],
      "name": "InsufficientStakeAmount",
      "type": "error"
    },
    {
      "inputs": [],
      "name": "InvalidFixedEpochDuration",
      "type": "error"
    },
    {
      "inputs": [
        {
          "internalType": "uint256",
          "name": "candidateStake",
          "type": "uint256"
        },
        {
          "internalType": "uint256",
          "name": "delegatorStake",
          "type": "uint256"
        }
      ],
      "name": "InvalidInitialStakeAmount",
      "type": "error"
    },
    {
      "inputs": [],
      "name": "InvalidInitialization",
      "type": "error"
    },
    {
      "inputs": [],
      "name": "InvalidIpAddressesCount",
      "type": "error"
    },
    {
      "inputs": [],
      "name": "InvalidMaxStakeAmount",
      "type": "error"
    },
    {
      "inputs": [],
      "name": "InvalidMoveStakePoolsAddress",
      "type": "error"
    },
    {
      "inputs": [
        {
          "internalType": "address",
          "name": "pool",
          "type": "address"
        },
        {
          "internalType": "address",
          "name": "delegator",
          "type": "address"
        },
        {
          "internalType": "int256",
          "name": "amount",
          "type": "int256"
        }
      ],
      "name": "InvalidOrderWithdrawAmount",
      "type": "error"
    },
    {
      "inputs": [],
      "name": "InvalidPublicKeysCount",
      "type": "error"
    },
    {
      "inputs": [],
      "name": "InvalidStakingFixedEpochDuration",
      "type": "error"
    },
    {
      "inputs": [],
      "name": "InvalidStakingTransitionTimeframe",
      "type": "error"
    },
    {
      "inputs": [],
      "name": "InvalidTransitionTimeFrame",
      "type": "error"
    },
    {
      "inputs": [
        {
          "internalType": "address",
          "name": "pool",
          "type": "address"
        },
        {
          "internalType": "address",
          "name": "delegator",
          "type": "address"
        },
        {
          "internalType": "uint256",
          "name": "amount",
          "type": "uint256"
        }
      ],
      "name": "InvalidWithdrawAmount",
      "type": "error"
    },
    {
      "inputs": [
        {
          "internalType": "uint256",
          "name": "allowed",
          "type": "uint256"
        },
        {
          "internalType": "uint256",
          "name": "desired",
          "type": "uint256"
        }
      ],
      "name": "MaxAllowedWithdrawExceeded",
      "type": "error"
    },
    {
      "inputs": [],
      "name": "MaxPoolsCountExceeded",
      "type": "error"
    },
    {
      "inputs": [
        {
          "internalType": "uint256",
          "name": "_newVal",
          "type": "uint256"
        }
      ],
      "name": "NewValueOutOfRange",
      "type": "error"
    },
    {
      "inputs": [],
      "name": "NoStakesToRecover",
      "type": "error"
    },
    {
      "inputs": [],
      "name": "NotInitializing",
      "type": "error"
    },
    {
      "inputs": [],
      "name": "NotPayable",
      "type": "error"
    },
    {
      "inputs": [
        {
          "internalType": "address",
          "name": "owner",
          "type": "address"
        }
      ],
      "name": "OwnableInvalidOwner",
      "type": "error"
    },
    {
      "inputs": [
        {
          "internalType": "address",
          "name": "account",
          "type": "address"
        }
      ],
      "name": "OwnableUnauthorizedAccount",
      "type": "error"
    },
    {
      "inputs": [
        {
          "internalType": "address",
          "name": "pool",
          "type": "address"
        }
      ],
      "name": "PoolAbandoned",
      "type": "error"
    },
    {
      "inputs": [
        {
          "internalType": "address",
          "name": "pool",
          "type": "address"
        }
      ],
      "name": "PoolCannotBeRemoved",
      "type": "error"
    },
    {
      "inputs": [
        {
          "internalType": "address",
          "name": "pool",
          "type": "address"
        }
      ],
      "name": "PoolEmpty",
      "type": "error"
    },
    {
      "inputs": [
        {
          "internalType": "address",
          "name": "pool",
          "type": "address"
        }
      ],
      "name": "PoolNotExist",
      "type": "error"
    },
    {
      "inputs": [
        {
          "internalType": "address",
          "name": "pool",
          "type": "address"
        },
        {
          "internalType": "address",
          "name": "delegator",
          "type": "address"
        }
      ],
      "name": "PoolStakeLimitExceeded",
      "type": "error"
    },
    {
      "inputs": [],
      "name": "ReentrancyGuardReentrantCall",
      "type": "error"
    },
    {
      "inputs": [
        {
          "internalType": "address",
          "name": "recipient",
          "type": "address"
        },
        {
          "internalType": "uint256",
          "name": "amount",
          "type": "uint256"
        }
      ],
      "name": "TransferFailed",
      "type": "error"
    },
    {
      "inputs": [],
      "name": "Unauthorized",
      "type": "error"
    },
    {
      "inputs": [],
      "name": "WithdrawNotAllowed",
      "type": "error"
    },
    {
      "inputs": [],
      "name": "ZeroAddress",
      "type": "error"
    },
    {
      "inputs": [],
      "name": "ZeroGasPrice",
      "type": "error"
    },
    {
      "inputs": [],
      "name": "ZeroWidthrawAmount",
      "type": "error"
    },
    {
      "inputs": [],
      "name": "ZeroWidthrawDisallowPeriod",
      "type": "error"
    },
    {
      "anonymous": false,
      "inputs": [
        {
          "indexed": true,
          "internalType": "address",
          "name": "fromPoolStakingAddress",
          "type": "address"
        },
        {
          "indexed": true,
          "internalType": "address",
          "name": "staker",
          "type": "address"
        },
        {
          "indexed": true,
          "internalType": "uint256",
          "name": "stakingEpoch",
          "type": "uint256"
        },
        {
          "indexed": false,
          "internalType": "uint256",
          "name": "amount",
          "type": "uint256"
        }
      ],
      "name": "ClaimedOrderedWithdrawal",
      "type": "event"
    },
    {
      "anonymous": false,
      "inputs": [
        {
          "indexed": true,
          "internalType": "address",
          "name": "caller",
          "type": "address"
        },
        {
          "indexed": true,
          "internalType": "address",
          "name": "stakingAddress",
          "type": "address"
        },
        {
          "indexed": false,
          "internalType": "uint256",
          "name": "gatheredFunds",
          "type": "uint256"
        }
      ],
      "name": "GatherAbandonedStakes",
      "type": "event"
    },
    {
      "anonymous": false,
      "inputs": [
        {
          "indexed": false,
          "internalType": "uint64",
          "name": "version",
          "type": "uint64"
        }
      ],
      "name": "Initialized",
      "type": "event"
    },
    {
      "anonymous": false,
      "inputs": [
        {
          "indexed": false,
          "internalType": "address",
          "name": "fromPoolStakingAddress",
          "type": "address"
        },
        {
          "indexed": true,
          "internalType": "address",
          "name": "toPoolStakingAddress",
          "type": "address"
        },
        {
          "indexed": true,
          "internalType": "address",
          "name": "staker",
          "type": "address"
        },
        {
          "indexed": true,
          "internalType": "uint256",
          "name": "stakingEpoch",
          "type": "uint256"
        },
        {
          "indexed": false,
          "internalType": "uint256",
          "name": "amount",
          "type": "uint256"
        }
      ],
      "name": "MovedStake",
      "type": "event"
    },
    {
      "anonymous": false,
      "inputs": [
        {
          "indexed": true,
          "internalType": "address",
          "name": "fromPoolStakingAddress",
          "type": "address"
        },
        {
          "indexed": true,
          "internalType": "address",
          "name": "staker",
          "type": "address"
        },
        {
          "indexed": true,
          "internalType": "uint256",
          "name": "stakingEpoch",
          "type": "uint256"
        },
        {
          "indexed": false,
          "internalType": "int256",
          "name": "amount",
          "type": "int256"
        }
      ],
      "name": "OrderedWithdrawal",
      "type": "event"
    },
    {
      "anonymous": false,
      "inputs": [
        {
          "indexed": true,
          "internalType": "address",
          "name": "previousOwner",
          "type": "address"
        },
        {
          "indexed": true,
          "internalType": "address",
          "name": "newOwner",
          "type": "address"
        }
      ],
      "name": "OwnershipTransferred",
      "type": "event"
    },
    {
      "anonymous": false,
      "inputs": [
        {
          "indexed": true,
          "internalType": "address",
          "name": "toPoolStakingAddress",
          "type": "address"
        },
        {
          "indexed": true,
          "internalType": "address",
          "name": "staker",
          "type": "address"
        },
        {
          "indexed": true,
          "internalType": "uint256",
          "name": "stakingEpoch",
          "type": "uint256"
        },
        {
          "indexed": false,
          "internalType": "uint256",
          "name": "amount",
          "type": "uint256"
        }
      ],
      "name": "PlacedStake",
      "type": "event"
    },
    {
      "anonymous": false,
      "inputs": [
        {
          "indexed": true,
          "internalType": "address",
          "name": "caller",
          "type": "address"
        },
        {
          "indexed": false,
          "internalType": "uint256",
          "name": "reinsertShare",
          "type": "uint256"
        },
        {
          "indexed": false,
          "internalType": "uint256",
          "name": "governanceShare",
          "type": "uint256"
        }
      ],
      "name": "RecoverAbandonedStakes",
      "type": "event"
    },
    {
      "anonymous": false,
      "inputs": [
        {
          "indexed": false,
          "internalType": "bytes4",
          "name": "funcSelector",
          "type": "bytes4"
        }
      ],
      "name": "RemoveChangeableParameter",
      "type": "event"
    },
    {
      "anonymous": false,
      "inputs": [
        {
          "indexed": true,
          "internalType": "address",
          "name": "poolStakingAddress",
          "type": "address"
        },
        {
          "indexed": true,
          "internalType": "uint256",
          "name": "stakingEpoch",
          "type": "uint256"
        },
        {
          "indexed": false,
          "internalType": "uint256",
          "name": "validatorReward",
          "type": "uint256"
        },
        {
          "indexed": false,
          "internalType": "uint256",
          "name": "delegatorsReward",
          "type": "uint256"
        }
      ],
      "name": "RestakeReward",
      "type": "event"
    },
    {
      "anonymous": false,
      "inputs": [
        {
          "indexed": false,
          "internalType": "address",
          "name": "_address",
          "type": "address"
        }
      ],
      "name": "SetBonusScoreContract",
      "type": "event"
    },
    {
      "anonymous": false,
      "inputs": [
        {
          "indexed": false,
          "internalType": "bytes4",
          "name": "setter",
          "type": "bytes4"
        },
        {
          "indexed": false,
          "internalType": "bytes4",
          "name": "getter",
          "type": "bytes4"
        },
        {
          "indexed": false,
          "internalType": "uint256[]",
          "name": "params",
          "type": "uint256[]"
        }
      ],
      "name": "SetChangeableParameter",
      "type": "event"
    },
    {
      "anonymous": false,
      "inputs": [
        {
          "indexed": false,
          "internalType": "uint256",
          "name": "minStake",
          "type": "uint256"
        }
      ],
      "name": "SetDelegatorMinStake",
      "type": "event"
    },
    {
      "anonymous": false,
      "inputs": [
        {
          "indexed": true,
          "internalType": "address",
          "name": "fromPoolStakingAddress",
          "type": "address"
        },
        {
          "indexed": true,
          "internalType": "address",
          "name": "staker",
          "type": "address"
        },
        {
          "indexed": true,
          "internalType": "uint256",
          "name": "stakingEpoch",
          "type": "uint256"
        },
        {
          "indexed": false,
          "internalType": "uint256",
          "name": "amount",
          "type": "uint256"
        }
      ],
      "name": "WithdrewStake",
      "type": "event"
    },
    {
      "inputs": [],
      "name": "MAX_CANDIDATES",
      "outputs": [
        {
          "internalType": "uint256",
          "name": "",
          "type": "uint256"
        }
      ],
      "stateMutability": "view",
      "type": "function"
    },
    {
      "inputs": [
        {
          "internalType": "address",
          "name": "",
          "type": "address"
        }
      ],
      "name": "abandonedAndRemoved",
      "outputs": [
        {
          "internalType": "bool",
          "name": "",
          "type": "bool"
        }
      ],
      "stateMutability": "view",
      "type": "function"
    },
    {
      "inputs": [
        {
          "internalType": "address",
          "name": "_miningAddress",
          "type": "address"
        },
        {
          "internalType": "bytes",
          "name": "_publicKey",
          "type": "bytes"
        },
        {
          "internalType": "bytes16",
          "name": "_ip",
          "type": "bytes16"
        }
      ],
      "name": "addPool",
      "outputs": [],
      "stateMutability": "payable",
      "type": "function"
    },
    {
      "inputs": [
        {
          "internalType": "bytes4",
          "name": "",
          "type": "bytes4"
        }
      ],
      "name": "allowedParameterRange",
      "outputs": [
        {
          "internalType": "bytes4",
          "name": "getter",
          "type": "bytes4"
        }
      ],
      "stateMutability": "view",
      "type": "function"
    },
    {
      "inputs": [],
      "name": "areStakeAndWithdrawAllowed",
      "outputs": [
        {
          "internalType": "bool",
          "name": "",
          "type": "bool"
        }
      ],
      "stateMutability": "pure",
      "type": "function"
    },
    {
      "inputs": [],
      "name": "bonusScoreContract",
      "outputs": [
        {
          "internalType": "contract IBonusScoreSystem",
          "name": "",
          "type": "address"
        }
      ],
      "stateMutability": "view",
      "type": "function"
    },
    {
      "inputs": [],
      "name": "candidateMinStake",
      "outputs": [
        {
          "internalType": "uint256",
          "name": "",
          "type": "uint256"
        }
      ],
      "stateMutability": "view",
      "type": "function"
    },
    {
      "inputs": [
        {
          "internalType": "address",
          "name": "_poolStakingAddress",
          "type": "address"
        }
      ],
      "name": "claimOrderedWithdraw",
      "outputs": [],
      "stateMutability": "nonpayable",
      "type": "function"
    },
    {
      "inputs": [],
      "name": "currentKeyGenExtraTimeWindow",
      "outputs": [
        {
          "internalType": "uint256",
          "name": "",
          "type": "uint256"
        }
      ],
      "stateMutability": "view",
      "type": "function"
    },
    {
      "inputs": [],
      "name": "delegatorMinStake",
      "outputs": [
        {
          "internalType": "uint256",
          "name": "",
          "type": "uint256"
        }
      ],
      "stateMutability": "view",
      "type": "function"
    },
    {
      "inputs": [
        {
          "internalType": "string",
          "name": "_selector",
          "type": "string"
        }
      ],
      "name": "getAllowedParamsRange",
      "outputs": [
        {
          "components": [
            {
              "internalType": "bytes4",
              "name": "getter",
              "type": "bytes4"
            },
            {
              "internalType": "uint256[]",
              "name": "range",
              "type": "uint256[]"
            }
          ],
          "internalType": "struct ValueGuards.ParameterRange",
          "name": "",
          "type": "tuple"
        }
      ],
      "stateMutability": "view",
      "type": "function"
    },
    {
      "inputs": [
        {
          "internalType": "bytes4",
          "name": "_selector",
          "type": "bytes4"
        }
      ],
      "name": "getAllowedParamsRangeWithSelector",
      "outputs": [
        {
          "components": [
            {
              "internalType": "bytes4",
              "name": "getter",
              "type": "bytes4"
            },
            {
              "internalType": "uint256[]",
              "name": "range",
              "type": "uint256[]"
            }
          ],
          "internalType": "struct ValueGuards.ParameterRange",
          "name": "",
          "type": "tuple"
        }
      ],
      "stateMutability": "view",
      "type": "function"
    },
    {
      "inputs": [
        {
          "internalType": "address",
          "name": "_poolAddress",
          "type": "address"
        }
      ],
      "name": "getPoolInternetAddress",
      "outputs": [
        {
          "internalType": "bytes16",
          "name": "",
          "type": "bytes16"
        },
        {
          "internalType": "bytes2",
          "name": "",
          "type": "bytes2"
        }
      ],
      "stateMutability": "view",
      "type": "function"
    },
    {
      "inputs": [
        {
          "internalType": "address",
          "name": "_poolAddress",
          "type": "address"
        }
      ],
      "name": "getPoolPublicKey",
      "outputs": [
        {
          "internalType": "bytes",
          "name": "",
          "type": "bytes"
        }
      ],
      "stateMutability": "view",
      "type": "function"
    },
    {
      "inputs": [
        {
          "internalType": "uint256",
          "name": "_epoch",
          "type": "uint256"
        },
        {
          "internalType": "address",
          "name": "_stakingPool",
          "type": "address"
        }
      ],
      "name": "getPoolValidatorStakeAmount",
      "outputs": [
        {
          "internalType": "uint256",
          "name": "",
          "type": "uint256"
        }
      ],
      "stateMutability": "view",
      "type": "function"
    },
    {
      "inputs": [],
      "name": "getPools",
      "outputs": [
        {
          "internalType": "address[]",
          "name": "",
          "type": "address[]"
        }
      ],
      "stateMutability": "view",
      "type": "function"
    },
    {
      "inputs": [],
      "name": "getPoolsInactive",
      "outputs": [
        {
          "internalType": "address[]",
          "name": "",
          "type": "address[]"
        }
      ],
      "stateMutability": "view",
      "type": "function"
    },
    {
      "inputs": [],
      "name": "getPoolsLikelihood",
      "outputs": [
        {
          "internalType": "uint256[]",
          "name": "likelihoods",
          "type": "uint256[]"
        },
        {
          "internalType": "uint256",
          "name": "sum",
          "type": "uint256"
        }
      ],
      "stateMutability": "view",
      "type": "function"
    },
    {
      "inputs": [],
      "name": "getPoolsToBeElected",
      "outputs": [
        {
          "internalType": "address[]",
          "name": "",
          "type": "address[]"
        }
      ],
      "stateMutability": "view",
      "type": "function"
    },
    {
      "inputs": [],
      "name": "getPoolsToBeRemoved",
      "outputs": [
        {
          "internalType": "address[]",
          "name": "",
          "type": "address[]"
        }
      ],
      "stateMutability": "view",
      "type": "function"
    },
    {
      "inputs": [],
      "name": "incrementStakingEpoch",
      "outputs": [],
      "stateMutability": "nonpayable",
      "type": "function"
    },
    {
      "inputs": [
        {
          "internalType": "address",
          "name": "_contractOwner",
          "type": "address"
        },
        {
          "components": [
            {
              "internalType": "address",
              "name": "_validatorSetContract",
              "type": "address"
            },
            {
              "internalType": "address",
              "name": "_bonusScoreContract",
              "type": "address"
            },
            {
              "internalType": "address[]",
              "name": "_initialStakingAddresses",
              "type": "address[]"
            },
            {
              "internalType": "uint256",
              "name": "_delegatorMinStake",
              "type": "uint256"
            },
            {
              "internalType": "uint256",
              "name": "_candidateMinStake",
              "type": "uint256"
            },
            {
              "internalType": "uint256",
              "name": "_maxStake",
              "type": "uint256"
            },
            {
              "internalType": "uint256",
              "name": "_stakingFixedEpochDuration",
              "type": "uint256"
            },
            {
              "internalType": "uint256",
              "name": "_stakingTransitionTimeframeLength",
              "type": "uint256"
            },
            {
              "internalType": "uint256",
              "name": "_stakingWithdrawDisallowPeriod",
              "type": "uint256"
            }
          ],
          "internalType": "struct IStakingHbbft.StakingParams",
          "name": "stakingParams",
          "type": "tuple"
        },
        {
          "internalType": "bytes32[]",
          "name": "_publicKeys",
          "type": "bytes32[]"
        },
        {
          "internalType": "bytes16[]",
          "name": "_internetAddresses",
          "type": "bytes16[]"
        }
      ],
      "name": "initialize",
      "outputs": [],
      "stateMutability": "nonpayable",
      "type": "function"
    },
    {
      "inputs": [
        {
          "internalType": "address",
          "name": "_stakingAddress",
          "type": "address"
        }
      ],
      "name": "isPoolActive",
      "outputs": [
        {
          "internalType": "bool",
          "name": "",
          "type": "bool"
        }
      ],
      "stateMutability": "view",
      "type": "function"
    },
    {
      "inputs": [
        {
          "internalType": "address",
          "name": "_stakingAddress",
          "type": "address"
        }
      ],
      "name": "isPoolValid",
      "outputs": [
        {
          "internalType": "bool",
          "name": "",
          "type": "bool"
        }
      ],
      "stateMutability": "view",
      "type": "function"
    },
    {
      "inputs": [
        {
          "internalType": "bytes4",
          "name": "funcSelector",
          "type": "bytes4"
        },
        {
          "internalType": "uint256",
          "name": "newVal",
          "type": "uint256"
        }
      ],
      "name": "isWithinAllowedRange",
      "outputs": [
        {
          "internalType": "bool",
          "name": "",
          "type": "bool"
        }
      ],
      "stateMutability": "view",
      "type": "function"
    },
    {
      "inputs": [],
      "name": "maxStakeAmount",
      "outputs": [
        {
          "internalType": "uint256",
          "name": "",
          "type": "uint256"
        }
      ],
      "stateMutability": "view",
      "type": "function"
    },
    {
      "inputs": [
        {
          "internalType": "address",
          "name": "_poolStakingAddress",
          "type": "address"
        },
        {
          "internalType": "address",
          "name": "_staker",
          "type": "address"
        }
      ],
      "name": "maxWithdrawAllowed",
      "outputs": [
        {
          "internalType": "uint256",
          "name": "",
          "type": "uint256"
        }
      ],
      "stateMutability": "view",
      "type": "function"
    },
    {
      "inputs": [
        {
          "internalType": "address",
          "name": "_poolStakingAddress",
          "type": "address"
        },
        {
          "internalType": "address",
          "name": "_staker",
          "type": "address"
        }
      ],
      "name": "maxWithdrawOrderAllowed",
      "outputs": [
        {
          "internalType": "uint256",
          "name": "",
          "type": "uint256"
        }
      ],
      "stateMutability": "view",
      "type": "function"
    },
    {
      "inputs": [
        {
          "internalType": "address",
          "name": "_fromPoolStakingAddress",
          "type": "address"
        },
        {
          "internalType": "address",
          "name": "_toPoolStakingAddress",
          "type": "address"
        },
        {
          "internalType": "uint256",
          "name": "_amount",
          "type": "uint256"
        }
      ],
      "name": "moveStake",
      "outputs": [],
      "stateMutability": "nonpayable",
      "type": "function"
    },
    {
      "inputs": [
        {
          "internalType": "address",
          "name": "_stakingAddress",
          "type": "address"
        }
      ],
      "name": "notifyAvailability",
      "outputs": [],
      "stateMutability": "nonpayable",
      "type": "function"
    },
    {
      "inputs": [],
      "name": "notifyKeyGenFailed",
      "outputs": [],
      "stateMutability": "nonpayable",
      "type": "function"
    },
    {
      "inputs": [
        {
          "internalType": "uint256",
          "name": "detectedOfflineTime",
          "type": "uint256"
        }
      ],
      "name": "notifyNetworkOfftimeDetected",
      "outputs": [],
      "stateMutability": "nonpayable",
      "type": "function"
    },
    {
      "inputs": [
        {
          "internalType": "address",
          "name": "_poolStakingAddress",
          "type": "address"
        },
        {
          "internalType": "int256",
          "name": "_amount",
          "type": "int256"
        }
      ],
      "name": "orderWithdraw",
      "outputs": [],
      "stateMutability": "nonpayable",
      "type": "function"
    },
    {
      "inputs": [
        {
          "internalType": "address",
          "name": "",
          "type": "address"
        },
        {
          "internalType": "address",
          "name": "",
          "type": "address"
        }
      ],
      "name": "orderWithdrawEpoch",
      "outputs": [
        {
          "internalType": "uint256",
          "name": "",
          "type": "uint256"
        }
      ],
      "stateMutability": "view",
      "type": "function"
    },
    {
      "inputs": [
        {
          "internalType": "address",
          "name": "",
          "type": "address"
        },
        {
          "internalType": "address",
          "name": "",
          "type": "address"
        }
      ],
      "name": "orderedWithdrawAmount",
      "outputs": [
        {
          "internalType": "uint256",
          "name": "",
          "type": "uint256"
        }
      ],
      "stateMutability": "view",
      "type": "function"
    },
    {
      "inputs": [
        {
          "internalType": "address",
          "name": "",
          "type": "address"
        }
      ],
      "name": "orderedWithdrawAmountTotal",
      "outputs": [
        {
          "internalType": "uint256",
          "name": "",
          "type": "uint256"
        }
      ],
      "stateMutability": "view",
      "type": "function"
    },
    {
      "inputs": [],
      "name": "owner",
      "outputs": [
        {
          "internalType": "address",
          "name": "",
          "type": "address"
        }
      ],
      "stateMutability": "view",
      "type": "function"
    },
    {
      "inputs": [
        {
          "internalType": "address",
          "name": "_poolStakingAddress",
          "type": "address"
        }
      ],
      "name": "poolDelegators",
      "outputs": [
        {
          "internalType": "address[]",
          "name": "",
          "type": "address[]"
        }
      ],
      "stateMutability": "view",
      "type": "function"
    },
    {
      "inputs": [
        {
          "internalType": "address",
          "name": "_poolStakingAddress",
          "type": "address"
        }
      ],
      "name": "poolDelegatorsInactive",
      "outputs": [
        {
          "internalType": "address[]",
          "name": "",
          "type": "address[]"
        }
      ],
      "stateMutability": "view",
      "type": "function"
    },
    {
      "inputs": [
        {
          "internalType": "address",
          "name": "",
          "type": "address"
        }
      ],
      "name": "poolInfo",
      "outputs": [
        {
          "internalType": "bytes",
          "name": "publicKey",
          "type": "bytes"
        },
        {
          "internalType": "bytes16",
          "name": "internetAddress",
          "type": "bytes16"
        },
        {
          "internalType": "bytes2",
          "name": "port",
          "type": "bytes2"
        }
      ],
      "stateMutability": "view",
      "type": "function"
    },
    {
      "inputs": [
        {
          "internalType": "address",
          "name": "",
          "type": "address"
        }
      ],
      "name": "poolToBeElectedIndex",
      "outputs": [
        {
          "internalType": "uint256",
          "name": "",
          "type": "uint256"
        }
      ],
      "stateMutability": "view",
      "type": "function"
    },
    {
      "inputs": [],
      "name": "recoverAbandonedStakes",
      "outputs": [],
      "stateMutability": "nonpayable",
      "type": "function"
    },
    {
      "inputs": [
        {
          "internalType": "bytes4",
          "name": "funcSelector",
          "type": "bytes4"
        }
      ],
      "name": "removeAllowedChangeableParameter",
      "outputs": [],
      "stateMutability": "nonpayable",
      "type": "function"
    },
    {
      "inputs": [],
      "name": "removeMyPool",
      "outputs": [],
      "stateMutability": "nonpayable",
      "type": "function"
    },
    {
      "inputs": [
        {
          "internalType": "address",
          "name": "_stakingAddress",
          "type": "address"
        }
      ],
      "name": "removePool",
      "outputs": [],
      "stateMutability": "nonpayable",
      "type": "function"
    },
    {
      "inputs": [],
      "name": "removePools",
      "outputs": [],
      "stateMutability": "nonpayable",
      "type": "function"
    },
    {
      "inputs": [],
      "name": "renounceOwnership",
      "outputs": [],
      "stateMutability": "nonpayable",
      "type": "function"
    },
    {
      "inputs": [
        {
          "internalType": "address",
          "name": "_poolStakingAddress",
          "type": "address"
        },
        {
          "internalType": "uint256",
          "name": "_validatorMinRewardPercent",
          "type": "uint256"
        }
      ],
      "name": "restake",
      "outputs": [],
      "stateMutability": "payable",
      "type": "function"
    },
    {
      "inputs": [
        {
          "internalType": "bytes4",
          "name": "setter",
          "type": "bytes4"
        },
        {
          "internalType": "bytes4",
          "name": "getter",
          "type": "bytes4"
        },
        {
          "internalType": "uint256[]",
          "name": "params",
          "type": "uint256[]"
        }
      ],
      "name": "setAllowedChangeableParameter",
      "outputs": [],
      "stateMutability": "nonpayable",
      "type": "function"
    },
    {
      "inputs": [
        {
          "internalType": "address",
          "name": "_bonusScoreContract",
          "type": "address"
        }
      ],
      "name": "setBonusScoreContract",
      "outputs": [],
      "stateMutability": "nonpayable",
      "type": "function"
    },
    {
      "inputs": [
        {
          "internalType": "uint256",
          "name": "_minStake",
          "type": "uint256"
        }
      ],
      "name": "setDelegatorMinStake",
      "outputs": [],
      "stateMutability": "nonpayable",
      "type": "function"
    },
    {
      "inputs": [
        {
          "internalType": "bytes",
          "name": "_publicKey",
          "type": "bytes"
        },
        {
          "internalType": "bytes16",
          "name": "_ip",
          "type": "bytes16"
        },
        {
          "internalType": "bytes2",
          "name": "_port",
          "type": "bytes2"
        }
      ],
      "name": "setPoolInfo",
      "outputs": [],
      "stateMutability": "nonpayable",
      "type": "function"
    },
    {
      "inputs": [
        {
          "internalType": "uint256",
          "name": "_timestamp",
          "type": "uint256"
        }
      ],
      "name": "setStakingEpochStartTime",
      "outputs": [],
      "stateMutability": "nonpayable",
      "type": "function"
    },
    {
      "inputs": [
        {
          "internalType": "uint256",
          "name": "_value",
          "type": "uint256"
        }
      ],
      "name": "setStakingFixedEpochDuration",
      "outputs": [],
      "stateMutability": "nonpayable",
      "type": "function"
    },
    {
      "inputs": [
        {
          "internalType": "uint256",
          "name": "_value",
          "type": "uint256"
        }
      ],
      "name": "setStakingTransitionTimeframeLength",
      "outputs": [],
      "stateMutability": "nonpayable",
      "type": "function"
    },
    {
      "inputs": [
        {
          "internalType": "address",
          "name": "_validatorAddress",
          "type": "address"
        },
        {
          "internalType": "bytes16",
          "name": "_ip",
          "type": "bytes16"
        },
        {
          "internalType": "bytes2",
          "name": "_port",
          "type": "bytes2"
        }
      ],
      "name": "setValidatorInternetAddress",
      "outputs": [],
      "stateMutability": "nonpayable",
      "type": "function"
    },
    {
      "inputs": [
        {
          "internalType": "uint256",
          "name": "_epoch",
          "type": "uint256"
        },
        {
          "internalType": "address",
          "name": "_stakingPool",
          "type": "address"
        }
      ],
      "name": "snapshotPoolStakeAmounts",
      "outputs": [],
      "stateMutability": "nonpayable",
      "type": "function"
    },
    {
      "inputs": [
        {
          "internalType": "uint256",
          "name": "",
          "type": "uint256"
        },
        {
          "internalType": "address",
          "name": "",
          "type": "address"
        }
      ],
      "name": "snapshotPoolTotalStakeAmount",
      "outputs": [
        {
          "internalType": "uint256",
          "name": "",
          "type": "uint256"
        }
      ],
      "stateMutability": "view",
      "type": "function"
    },
    {
      "inputs": [
        {
          "internalType": "uint256",
          "name": "",
          "type": "uint256"
        },
        {
          "internalType": "address",
          "name": "",
          "type": "address"
        }
      ],
      "name": "snapshotPoolValidatorStakeAmount",
      "outputs": [
        {
          "internalType": "uint256",
          "name": "",
          "type": "uint256"
        }
      ],
      "stateMutability": "view",
      "type": "function"
    },
    {
      "inputs": [
        {
          "internalType": "address",
          "name": "_toPoolStakingAddress",
          "type": "address"
        }
      ],
      "name": "stake",
      "outputs": [],
      "stateMutability": "payable",
      "type": "function"
    },
    {
      "inputs": [
        {
          "internalType": "address",
          "name": "",
          "type": "address"
        },
        {
          "internalType": "address",
          "name": "",
          "type": "address"
        }
      ],
      "name": "stakeAmount",
      "outputs": [
        {
          "internalType": "uint256",
          "name": "",
          "type": "uint256"
        }
      ],
      "stateMutability": "view",
      "type": "function"
    },
    {
      "inputs": [
        {
          "internalType": "address",
          "name": "_poolStakingAddress",
          "type": "address"
        },
        {
          "internalType": "address",
          "name": "_staker",
          "type": "address"
        }
      ],
      "name": "stakeAmountByCurrentEpoch",
      "outputs": [
        {
          "internalType": "uint256",
          "name": "",
          "type": "uint256"
        }
      ],
      "stateMutability": "view",
      "type": "function"
    },
    {
      "inputs": [
        {
          "internalType": "address",
          "name": "",
          "type": "address"
        }
      ],
      "name": "stakeAmountTotal",
      "outputs": [
        {
          "internalType": "uint256",
          "name": "",
          "type": "uint256"
        }
      ],
      "stateMutability": "view",
      "type": "function"
    },
    {
      "inputs": [],
      "name": "stakingEpoch",
      "outputs": [
        {
          "internalType": "uint256",
          "name": "",
          "type": "uint256"
        }
      ],
      "stateMutability": "view",
      "type": "function"
    },
    {
      "inputs": [],
      "name": "stakingEpochStartBlock",
      "outputs": [
        {
          "internalType": "uint256",
          "name": "",
          "type": "uint256"
        }
      ],
      "stateMutability": "view",
      "type": "function"
    },
    {
      "inputs": [],
      "name": "stakingEpochStartTime",
      "outputs": [
        {
          "internalType": "uint256",
          "name": "",
          "type": "uint256"
        }
      ],
      "stateMutability": "view",
      "type": "function"
    },
    {
      "inputs": [],
      "name": "stakingFixedEpochDuration",
      "outputs": [
        {
          "internalType": "uint256",
          "name": "",
          "type": "uint256"
        }
      ],
      "stateMutability": "view",
      "type": "function"
    },
    {
      "inputs": [],
      "name": "stakingFixedEpochEndTime",
      "outputs": [
        {
          "internalType": "uint256",
          "name": "",
          "type": "uint256"
        }
      ],
      "stateMutability": "view",
      "type": "function"
    },
    {
      "inputs": [],
      "name": "stakingTransitionTimeframeLength",
      "outputs": [
        {
          "internalType": "uint256",
          "name": "",
          "type": "uint256"
        }
      ],
      "stateMutability": "view",
      "type": "function"
    },
    {
      "inputs": [],
      "name": "stakingWithdrawDisallowPeriod",
      "outputs": [
        {
          "internalType": "uint256",
          "name": "",
          "type": "uint256"
        }
      ],
      "stateMutability": "view",
      "type": "function"
    },
    {
      "inputs": [],
      "name": "startTimeOfNextPhaseTransition",
      "outputs": [
        {
          "internalType": "uint256",
          "name": "",
          "type": "uint256"
        }
      ],
      "stateMutability": "view",
      "type": "function"
    },
    {
      "inputs": [],
      "name": "totalStakedAmount",
      "outputs": [
        {
          "internalType": "uint256",
          "name": "",
          "type": "uint256"
        }
      ],
      "stateMutability": "view",
      "type": "function"
    },
    {
      "inputs": [
        {
          "internalType": "address",
          "name": "newOwner",
          "type": "address"
        }
      ],
      "name": "transferOwnership",
      "outputs": [],
      "stateMutability": "nonpayable",
      "type": "function"
    },
    {
      "inputs": [
        {
          "internalType": "address",
          "name": "mining",
          "type": "address"
        },
        {
          "internalType": "uint256",
          "name": "validatorScore",
          "type": "uint256"
        }
      ],
      "name": "updatePoolLikelihood",
      "outputs": [],
      "stateMutability": "nonpayable",
      "type": "function"
    },
    {
      "inputs": [],
      "name": "validatorSetContract",
      "outputs": [
        {
          "internalType": "contract IValidatorSetHbbft",
          "name": "",
          "type": "address"
        }
      ],
      "stateMutability": "view",
      "type": "function"
    },
    {
      "inputs": [
        {
          "internalType": "address",
          "name": "_fromPoolStakingAddress",
          "type": "address"
        },
        {
          "internalType": "uint256",
          "name": "_amount",
          "type": "uint256"
        }
      ],
      "name": "withdraw",
      "outputs": [],
      "stateMutability": "nonpayable",
      "type": "function"
    },
    {
      "stateMutability": "payable",
      "type": "receive"
    }
  ],
  "bytecode": "0x608060405234801561001057600080fd5b5061002b67bf201e071b87e99060c01b61007260201b60201c565b610045673dba7822037c411660c01b61007260201b60201c565b61005f67402639eacef535af60c01b61007260201b60201c565b61006d61007560201b60201c565b6101ba565b50565b600061008561017960201b60201c565b90508060000160089054906101000a900460ff16156100d0576040517ff92ee8a900000000000000000000000000000000000000000000000000000000815260040160405180910390fd5b67ffffffffffffffff80168160000160009054906101000a900467ffffffffffffffff1667ffffffffffffffff16146101765767ffffffffffffffff8160000160006101000a81548167ffffffffffffffff021916908367ffffffffffffffff1602179055507fc7f505b2f371ae2175ee4913f4499e1f2633a7b5936321eed1cdaeb6115181d267ffffffffffffffff60405161016d91906101a1565b60405180910390a15b50565b60007ff0c57e16840df040f15088dc2f81fe391c3923bec73e23a9662efc9c229c6a00905090565b600060208201905060018060401b038316825292915050565b61ef64806101c96000396000f3fe60806040526004361061050b5760003560e01c8063862be28711610294578063bf348f861161015e578063dfc8bf4e116100d6578063f2fde38b1161008a578063f49425011161006f578063f494250114611261578063f6c578611461128c578063fa4aaf47146112c957610556565b8063f2fde38b1461120f578063f3fef3a31461123857610556565b8063edd7db75116100bb578063edd7db75146111b6578063ee435f55146111cd578063f0786096146111e457610556565b8063dfc8bf4e1461114e578063e9ab03001461117957610556565b8063d0ac76f61161012d578063da7a9b6a11610112578063da7a9b6a146110bb578063dadee88a146110e6578063df6f55f51461112357610556565b8063d0ac76f614611067578063d290c21d1461109057610556565b8063bf348f8614610fad578063c6912cc014610fea578063c6af311a14611015578063cfef14411461103e57610556565b8063a42059671161020c578063ae1aaf80116101c0578063b61ed63a116101a5578063b61ed63a14610f0a578063b710c15d14610f33578063ba08d23714610f7057610556565b8063ae1aaf8014610eb6578063b0bd5e9e14610ee157610556565b8063a697ecff116101f1578063a697ecff14610e25578063a711e6a114610e62578063adddc0cf14610e9f57610556565b8063a420596714610dbd578063a5d54f6514610dfa57610556565b8063957950a7116102635780639b03d744116102485780639b03d74414610d2c5780639e72c63514610d575780639ea8082b14610d8057610556565b8063957950a714610cc15780639a7b5f1114610ced57610556565b8063862be28714610bf35780638da5cb5b14610c1c5780639228363414610c47578063950a651314610c8457610556565b80634f9a8d8f116103d55780637069e7461161034d578063794c0c68116103015780637b15b94c116102e65780637b15b94c14610b785780637d8149db14610ba15780638247a23914610bca57610556565b8063794c0c6814610b245780637b0a0f9b14610b4f57610556565b8063728345db11610332578063728345db14610a6d57806373c2180314610aaa578063750dd2a114610ae757610556565b80637069e74614610a2b578063715018a614610a5657610556565b80635b4eafe0116103a45780635fef7643116103895780635fef764314610998578063673a2a1f146109c35780636bda1577146109ee57610556565b80635b4eafe0146109305780635d80ca321461096d57610556565b80634f9a8d8f146108815780635267e1d6146108ac578063567e98f9146108e957806356e4d6c21461091457610556565b8063251441a911610483578063379b046a116104375780633f3afe011161041c5780633f3afe01146107ff5780634346845f1461081b5780634e9b426d1461084457610556565b8063379b046a146107ab5780633b7d0946146107d657610556565b80632bafde8d116104685780632bafde8d1461072e5780633219d60014610757578063371542631461079457610556565b8063251441a9146106e9578063264762041461071257610556565b80631555371c116104da5780631fb31e43116104bf5780631fb31e431461065757806322704bdd1461069557806322e3d986146106be57610556565b80631555371c14610617578063159e0a951461062e57610556565b8063028b8bdb1461055b5780630ac6e291146105865780630b770cdf146105af5780631345b8a5146105da57610556565b3661055657610524672a533c32bcfbd3f660c01b611306565b6040517f1574f9f300000000000000000000000000000000000000000000000000000000815260040160405180910390fd5b600080fd5b34801561056757600080fd5b50610570611309565b60405161057d919061e061565b60405180910390f35b34801561059257600080fd5b506105ad60048036038101906105a8919061e0e4565b61130f565b005b3480156105bb57600080fd5b506105c4611f23565b6040516105d1919061e19e565b60405180910390f35b3480156105e657600080fd5b5061060160048036038101906105fc919061e1c5565b611f49565b60405161060e919061e061565b60405180910390f35b34801561062357600080fd5b5061062c611f6e565b005b34801561063a57600080fd5b506106556004803603810190610650919061e1f5565b612183565b005b34801561066357600080fd5b5061067e6004803603810190610679919061e1f5565b612348565b60405161068c92919061e21c565b60405180910390f35b3480156106a157600080fd5b506106bc60048036038101906106b7919061e24e565b612430565b005b3480156106ca57600080fd5b506106d3612577565b6040516106e0919061e061565b60405180910390f35b3480156106f557600080fd5b50610710600480360381019061070b919061e26a565b61265d565b005b61072c6004803603810190610727919061e1f5565b612953565b005b34801561073a57600080fd5b506107556004803603810190610750919061e24e565b612b77565b005b34801561076357600080fd5b5061077e6004803603810190610779919061e1f5565b612d5d565b60405161078b919061e2ae565b60405180910390f35b3480156107a057600080fd5b506107a9612d7c565b005b3480156107b757600080fd5b506107c06138cc565b6040516107cd919061e061565b60405180910390f35b3480156107e257600080fd5b506107fd60048036038101906107f8919061e1f5565b6138d2565b005b6108196004803603810190610814919061e2c1565b613a55565b005b34801561082757600080fd5b50610842600480360381019061083d919061e311565b61438a565b005b34801561085057600080fd5b5061086b6004803603810190610866919061e1f5565b614556565b604051610878919061e3d1565b60405180910390f35b34801561088d57600080fd5b50610896614666565b6040516108a3919061e061565b60405180910390f35b3480156108b857600080fd5b506108d360048036038101906108ce919061e1f5565b61466c565b6040516108e0919061e061565b60405180910390f35b3480156108f557600080fd5b506108fe614684565b60405161090b919061e061565b60405180910390f35b61092e6004803603810190610929919061e460565b61468a565b005b34801561093c57600080fd5b506109576004803603810190610952919061e1c5565b614a4c565b604051610964919061e061565b60405180910390f35b34801561097957600080fd5b50610982614ae3565b60405161098f919061e061565b60405180910390f35b3480156109a457600080fd5b506109ad614ae9565b6040516109ba919061e061565b60405180910390f35b3480156109cf57600080fd5b506109d8614aef565b6040516109e5919061e4cc565b60405180910390f35b3480156109fa57600080fd5b50610a156004803603810190610a10919061e531565b614b3c565b604051610a22919061e061565b60405180910390f35b348015610a3757600080fd5b50610a40614fe0565b604051610a4d919061e061565b60405180910390f35b348015610a6257600080fd5b50610a6b614fe6565b005b348015610a7957600080fd5b50610a946004803603810190610a8f919061e1c5565b614ffa565b604051610aa1919061e061565b60405180910390f35b348015610ab657600080fd5b50610ad16004803603810190610acc919061e1f5565b61501f565b604051610ade919061e4cc565b60405180910390f35b348015610af357600080fd5b50610b0e6004803603810190610b09919061e531565b6150ab565b604051610b1b919061e061565b60405180910390f35b348015610b3057600080fd5b50610b39615181565b604051610b46919061e061565b60405180910390f35b348015610b5b57600080fd5b50610b766004803603810190610b71919061e58a565b615187565b005b348015610b8457600080fd5b50610b9f6004803603810190610b9a919061e1f5565b6153c9565b005b348015610bad57600080fd5b50610bc86004803603810190610bc3919061e5d1565b61565a565b005b348015610bd657600080fd5b50610bf16004803603810190610bec919061e24e565b61578e565b005b348015610bff57600080fd5b50610c1a6004803603810190610c15919061e5f4565b615916565b005b348015610c2857600080fd5b50610c31615a84565b604051610c3e919061e65c565b60405180910390f35b348015610c5357600080fd5b50610c6e6004803603810190610c69919061e5d1565b615abc565b604051610c7b919061e683565b60405180910390f35b348015610c9057600080fd5b50610cab6004803603810190610ca6919061e531565b615ae7565b604051610cb8919061e061565b60405180910390f35b348015610ccd57600080fd5b50610cd6615e37565b604051610ce492919061e6e0565b60405180910390f35b348015610cf957600080fd5b50610d146004803603810190610d0f919061e1f5565b615ed6565b604051610d239392919061e702565b60405180910390f35b348015610d3857600080fd5b50610d41615fa2565b604051610d4e919061e061565b60405180910390f35b348015610d6357600080fd5b50610d7e6004803603810190610d79919061e24e565b615fa8565b005b348015610d8c57600080fd5b50610da76004803603810190610da2919061e1f5565b61612f565b604051610db4919061e4cc565b60405180910390f35b348015610dc957600080fd5b50610de46004803603810190610ddf919061e531565b6161bb565b604051610df1919061e061565b60405180910390f35b348015610e0657600080fd5b50610e0f6161e0565b604051610e1c919061e4cc565b60405180910390f35b348015610e3157600080fd5b50610e4c6004803603810190610e47919061e531565b6162aa565b604051610e59919061e061565b60405180910390f35b348015610e6e57600080fd5b50610e896004803603810190610e84919061e1f5565b6162cf565b604051610e96919061e2ae565b60405180910390f35b348015610eab57600080fd5b50610eb4616328565b005b348015610ec257600080fd5b50610ecb6164a8565b604051610ed8919061e061565b60405180910390f35b348015610eed57600080fd5b50610f086004803603810190610f03919061e24e565b6164ae565b005b348015610f1657600080fd5b50610f316004803603810190610f2c919061e745565b6165af565b005b348015610f3f57600080fd5b50610f5a6004803603810190610f55919061e78b565b61759f565b604051610f67919061e840565b60405180910390f35b348015610f7c57600080fd5b50610f976004803603810190610f92919061e877565b6176f9565b604051610fa4919061e2ae565b60405180910390f35b348015610fb957600080fd5b50610fd46004803603810190610fcf919061e5d1565b617be9565b604051610fe1919061e840565b60405180910390f35b348015610ff657600080fd5b50610fff617d3c565b60405161100c919061e061565b60405180910390f35b34801561102157600080fd5b5061103c6004803603810190611037919061e2c1565b617d9c565b005b34801561104a57600080fd5b506110656004803603810190611060919061e1f5565b617fea565b005b34801561107357600080fd5b5061108e6004803603810190611089919061e1c5565b61876d565b005b34801561109c57600080fd5b506110a5618c45565b6040516110b2919061e4cc565b60405180910390f35b3480156110c757600080fd5b506110d0618c92565b6040516110dd919061e061565b60405180910390f35b3480156110f257600080fd5b5061110d6004803603810190611108919061e1f5565b618c98565b60405161111a919061e061565b60405180910390f35b34801561112f57600080fd5b50611138618cb0565b604051611145919061e4cc565b60405180910390f35b34801561115a57600080fd5b50611163618cfd565b604051611170919061e8a3565b60405180910390f35b34801561118557600080fd5b506111a0600480360381019061119b919061e531565b618d23565b6040516111ad919061e061565b60405180910390f35b3480156111c257600080fd5b506111cb618d48565b005b3480156111d957600080fd5b506111e26190c3565b005b3480156111f057600080fd5b506111f961925c565b604051611206919061e061565b60405180910390f35b34801561121b57600080fd5b506112366004803603810190611231919061e1f5565b619262565b005b34801561124457600080fd5b5061125f600480360381019061125a919061e2c1565b6192e8565b005b34801561126d57600080fd5b50611276619549565b604051611283919061e2ae565b60405180910390f35b34801561129857600080fd5b506112b360048036038101906112ae919061e1f5565b61958e565b6040516112c0919061e2ae565b60405180910390f35b3480156112d557600080fd5b506112f060048036038101906112eb919061e1f5565b61963a565b6040516112fd919061e061565b60405180910390f35b50565b60155481565b61132367e8e2a910af12b22960c01b611306565b600061132d619652565b905060008160000160089054906101000a900460ff1615905060008260000160009054906101000a900467ffffffffffffffff1690506000808267ffffffffffffffff1614801561137b5750825b9050600060018367ffffffffffffffff161480156113b0575060003073ffffffffffffffffffffffffffffffffffffffff163b145b9050811580156113be575080155b156113f5576040517ff92ee8a900000000000000000000000000000000000000000000000000000000815260040160405180910390fd5b60018560000160006101000a81548167ffffffffffffffff021916908367ffffffffffffffff16021790555083156114455760018560000160086101000a81548160ff0219169083151502179055505b6114596795772f4e70d987d760c01b611306565b61146d67664d0835d67af6a860c01b611306565b61148167580bd6f89c067d9260c01b611306565b611495670698d6982d5f22f860c01b611306565b600073ffffffffffffffffffffffffffffffffffffffff168b73ffffffffffffffffffffffffffffffffffffffff1603611523576114dd67229f374c985821db60c01b611306565b6114f167f2210719a2247b8960c01b611306565b6040517fd92e233d00000000000000000000000000000000000000000000000000000000815260040160405180910390fd5b61153767d2b774107c777f1660c01b611306565b61154b67468e6f8752e9139960c01b611306565b61155f6703515f95e3e3fcdb60c01b611306565b6115688a61967a565b61157c6737a0787744218fae60c01b611306565b61159067c27d8c4c0cc22e4360c01b611306565b8888905060028b80604001906115a6919061e8ca565b90506115b2919061e935565b14611611576115cb676658cac85f95215960c01b611306565b6115df67706c3ece4c0e18c760c01b611306565b6040517fd698870000000000000000000000000000000000000000000000000000000000815260040160405180910390fd5b611625675dc6784cc396ed6a60c01b611306565b61163967a20965993dfa400660c01b611306565b61164d67725da3e45857160b60c01b611306565b868690508a8060400190611661919061e8ca565b9050146116c25761167c6753dd788eba3896fd60c01b611306565b6116906725c6364a4bcabe3360c01b611306565b6040517f20041afd00000000000000000000000000000000000000000000000000000000815260040160405180910390fd5b6116d667de73abcd4881989160c01b611306565b6116ea675efeeed6ecec1f1960c01b611306565b6116fe677ac9c6b51691783e60c01b611306565b6117078b619c40565b61171b67231e94698aa7a35360c01b611306565b61172e6692715a17c685a560c01b611306565b611736619c54565b61174a67bfe3c92451f925b560c01b611306565b89600001602081019061175d919061e1f5565b601e60006101000a81548173ffffffffffffffffffffffffffffffffffffffff021916908373ffffffffffffffffffffffffffffffffffffffff1602179055506117b16734a96fa5c3fd9ef060c01b611306565b8960200160208101906117c4919061e1f5565b602560006101000a81548173ffffffffffffffffffffffffffffffffffffffff021916908373ffffffffffffffffffffffffffffffffffffffff16021790555061181867560a80e981cb426960c01b611306565b61182c676ed0ff6305b779fb60c01b611306565b3660008b806040019061183f919061e8ca565b91509150611857677fd09837e8d7e33e60c01b611306565b61186b67278762d9774a743260c01b611306565b60005b82829050811015611bf35761188d67f2332352486e4cd960c01b611306565b6118a0665cc562a11f4ced60c01b611306565b600073ffffffffffffffffffffffffffffffffffffffff168383838181106118cb576118ca61e957565b5b90506020020160208101906118e0919061e1f5565b73ffffffffffffffffffffffffffffffffffffffff16036119545761190e664d5bacfcfcce9e60c01b611306565b61192267d12b02c0e4649a4c60c01b611306565b6040517fd92e233d00000000000000000000000000000000000000000000000000000000815260040160405180910390fd5b6119686763fdaf0563ec325d60c01b611306565b61197c67654f64737986b32e60c01b611306565b6119906747d62a3e10f8de2560c01b611306565b6119c28383838181106119a6576119a561e957565b5b90506020020160208101906119bb919061e1f5565b6000619c66565b6119d667826a79132dc6b03a60c01b611306565b6119ea67e23383936eee681460c01b611306565b611a1a838383818110611a00576119ff61e957565b5b9050602002016020810190611a15919061e1f5565b619e96565b611a2e67f4ea0d546b7dd68160c01b611306565b8b8b600283611a3d919061e935565b818110611a4d57611a4c61e957565b5b905060200201358c8c6001600285611a65919061e935565b611a6f919061e96d565b818110611a7f57611a7e61e957565b5b90506020020135604051602001611a9792919061e98b565b604051602081830303815290604052601f6000858585818110611abd57611abc61e957565b5b9050602002016020810190611ad2919061e1f5565b73ffffffffffffffffffffffffffffffffffffffff1673ffffffffffffffffffffffffffffffffffffffff1681526020019081526020016000206000019081611b1b919061ea61565b50611b3067a5413211d84de29960c01b611306565b898982818110611b4357611b4261e957565b5b9050602002016020810190611b58919061eb2b565b601f6000858585818110611b6f57611b6e61e957565b5b9050602002016020810190611b84919061e1f5565b73ffffffffffffffffffffffffffffffffffffffff1673ffffffffffffffffffffffffffffffffffffffff16815260200190815260200160002060010160006101000a8154816fffffffffffffffffffffffffffffffff021916908360801c021790555080600101905061186e565b50611c086711e9de931bc75b7f60c01b611306565b611c1c67f233ffbb266ad0d160c01b611306565b6000600567ffffffffffffffff811115611c3957611c3861e775565b5b604051908082528060200260200182016040528015611c675781602001602082028036833780820191505090505b509050611c7e67620ee52ab467124460c01b611306565b6802b5e3af16b188000081600081518110611c9c57611c9b61e957565b5b602002602001018181525050611cbc67b9e3796ac7edab9f60c01b611306565b68056bc75e2d6310000081600181518110611cda57611cd961e957565b5b602002602001018181525050611cfa67850b27057e53801060c01b611306565b680821ab0d441498000081600281518110611d1857611d1761e957565b5b602002602001018181525050611d3867d342906e79ffe46c60c01b611306565b680ad78ebc5ac620000081600381518110611d5657611d5561e957565b5b602002602001018181525050611d7667ebb3b75c9ada9a6460c01b611306565b680d8d726b7177a8000081600481518110611d9457611d9361e957565b5b602002602001018181525050611db4679f235fedc29d749160c01b611306565b611dc867e7257d81ae2314b860c01b611306565b611de1632bafde8d60e01b63da7a9b6a60e01b83619f1b565b611df5672a4f4f391c9e471c60c01b611306565b8c60600135600e81905550611e1467d359c514149f95eb60c01b611306565b8c60800135600d81905550611e3367dabcf5733afecb1660c01b611306565b8c60a00135600f81905550611e52678ef21677745a5d1a60c01b611306565b8c60c00135601781905550611e7167b298d96fd821e91460c01b611306565b8c6101000135601581905550611e91677f52ff3b87649a0360c01b611306565b42601981905550611eac67b3585f6e084829f660c01b611306565b8c60e001356018819055505050508315611f165760008560000160086101000a81548160ff0219169083151502179055507fc7f505b2f371ae2175ee4913f4499e1f2633a7b5936321eed1cdaeb6115181d26001604051611f0d919061eb4e565b60405180910390a15b5050505050505050505050565b602560009054906101000a900473ffffffffffffffffffffffffffffffffffffffff1681565b6022602052816000526040600020602052806000526040600020600091509150505481565b611f82675c4685911453752060c01b611306565b611f9667b9b90e8628981ced60c01b611306565b611faa671137c91720a160fc60c01b611306565b611fbe674c33b67b1d5e316e60c01b611306565b601e60009054906101000a900473ffffffffffffffffffffffffffffffffffffffff1673ffffffffffffffffffffffffffffffffffffffff163373ffffffffffffffffffffffffffffffffffffffff161461206d576120276706c7818cefc7179460c01b611306565b61203b673285569d793d492860c01b611306565b6040517f82b4290000000000000000000000000000000000000000000000000000000000815260040160405180910390fd5b61208167f3811480ffac365260c01b611306565b61209567af2a8181155794f460c01b611306565b6120a9677e0e57323f40d17660c01b611306565b6120bd671affbcc94564dd2b60c01b611306565b6120d16779fa993908bc6ef360c01b611306565b6120e5676fe222fbc7207ca560c01b611306565b60006120f1600561a0a3565b90506121076775197f012c09f32b60c01b611306565b61211b67d6f909b72074b8eb60c01b611306565b60005b815181101561217f5761213b67b9be0f7de1fba52b60c01b611306565b61214f673d15898ef77517aa60c01b611306565b6121728282815181106121655761216461e957565b5b602002602001015161a0c4565b808060010191505061211e565b5050565b6121976758b5dbbda0687b8b60c01b611306565b61219f61a24c565b6121b3674f789af647dfae5560c01b611306565b6121c767edbfdfb62a82a1a260c01b611306565b6121db6724085356fad0a1b860c01b611306565b6121ef67df2beee18157b31a60c01b611306565b600073ffffffffffffffffffffffffffffffffffffffff168173ffffffffffffffffffffffffffffffffffffffff160361227d5761223767716965c1ba4b44e860c01b611306565b61224b67632cc5bf46d4886b60c01b611306565b6040517fd92e233d00000000000000000000000000000000000000000000000000000000815260040160405180910390fd5b61229167cef81283e898d27460c01b611306565b6122a567dc6517a1ef729f8f60c01b611306565b80602560006101000a81548173ffffffffffffffffffffffffffffffffffffffff021916908373ffffffffffffffffffffffffffffffffffffffff1602179055506122fa67e0cb458395359c9860c01b611306565b61230e67b7af90201bca14f360c01b611306565b7fd4244d1f8acb4860e17399636c6b7875c75656aafb5cb3d0163d7305eace71728160405161233d919061e65c565b60405180910390a150565b60008061235f674c3e3d4f564756a560c01b611306565b612373674821c2539c07422960c01b611306565b61238767932d767547c6ea1760c01b611306565b601f60008473ffffffffffffffffffffffffffffffffffffffff1673ffffffffffffffffffffffffffffffffffffffff16815260200190815260200160002060010160009054906101000a900460801b601f60008573ffffffffffffffffffffffffffffffffffffffff1673ffffffffffffffffffffffffffffffffffffffff16815260200190815260200160002060010160109054906101000a900460f01b91509150915091565b61244467ef281715e09f9b6460c01b611306565b61244c61a24c565b61246067dcb2490886e1fef660c01b611306565b6124746755e484694d1034d660c01b611306565b61248867547777f9f70733d960c01b611306565b61249c67ea1caefc33d18cab60c01b611306565b600a81111580156124bd57506124bc6751738365f7b88b5760c01b61a2d3565b5b806124e6575060175481101580156124e557506124e46721c761dbf259248060c01b61a2d3565b5b5b15612545576124ff67e44fb9885512b4a660c01b611306565b612513670245193a93dfa17960c01b611306565b6040517f8826666f00000000000000000000000000000000000000000000000000000000815260040160405180910390fd5b6125596703d75f00755c500e60c01b611306565b61256d67d2c8c3cab5a9372a60c01b611306565b8060188190555050565b600061258d67d81789f90c6f27cd60c01b611306565b6125a1675e52e289523bd55760c01b611306565b6125b56736ba1dfff371217360c01b611306565b600060195490506125d067d097e4dc70fd345d60c01b611306565b6125e467467870e5372fc1f660c01b611306565b6000601754148061260557506126046773d3b382719e58dc60c01b61a2de565b5b80156126215750612620671d846ecc2ae73c2860c01b61a2d3565b5b61262c57600161262f565b60005b60ff16601b5460175483612643919061e96d565b61264d919061e96d565b612657919061eb69565b91505090565b61267167ab62ed463bfdc7c060c01b611306565b61268567819a3c6447273cd260c01b611306565b61269967c23cea195263a6c260c01b611306565b6126ad671fb21d9e2d10e15360c01b611306565b60003a0361270f576126c967e55dc19b3fdff44e60c01b611306565b6126dd6762b55f3e83a5ae8f60c01b611306565b6040517fe661aed000000000000000000000000000000000000000000000000000000000815260040160405180910390fd5b612723677f6d53ee642f87fc60c01b611306565b612737678de8bbee4fc831c260c01b611306565b61274b673adf644584f777d960c01b611306565b61275f67d396ecdd1f6b0fd160c01b611306565b61277367d50330de1c95127460c01b611306565b612787677360b2c6894ad3fd60c01b611306565b8173ffffffffffffffffffffffffffffffffffffffff168373ffffffffffffffffffffffffffffffffffffffff1603612814576127ce679bb958251d035e1360c01b611306565b6127e267722ee5649a448ba360c01b611306565b6040517f0a5eddd500000000000000000000000000000000000000000000000000000000815260040160405180910390fd5b612828671f23e4911cb1ef3760c01b611306565b61283c676c8eb9a84d34af6c60c01b611306565b61285067a1b689a44604c5ef60c01b611306565b6000339050612869674aa12c9d61ddc32660c01b611306565b61287d67ddae594261eb2b9960c01b611306565b61288884828461a2e5565b61289c671420d8feeccc8fc360c01b611306565b6128b067d52dce121caa197a60c01b611306565b6128bb83828461abfc565b6128cf67bfdd5325672f864460c01b611306565b6128e3671a6c17c4eac609c060c01b611306565b6016548173ffffffffffffffffffffffffffffffffffffffff168473ffffffffffffffffffffffffffffffffffffffff167f4480d8e4b1e9095b94bf513961d26fe1d32386ebdd103d18fe8738cf4b2223ff878660405161294592919061eb87565b60405180910390a450505050565b612967676662242b631394dc60c01b611306565b61297b67819a3c6447273cd260c01b611306565b61298f67c23cea195263a6c260c01b611306565b6129a3671fb21d9e2d10e15360c01b611306565b60003a03612a05576129bf67e55dc19b3fdff44e60c01b611306565b6129d36762b55f3e83a5ae8f60c01b611306565b6040517fe661aed000000000000000000000000000000000000000000000000000000000815260040160405180910390fd5b612a19677f6d53ee642f87fc60c01b611306565b612a2d678de8bbee4fc831c260c01b611306565b612a416715b4c8cbdcdc3c8860c01b611306565b612a556749a8428dd4bd2f7660c01b611306565b612a6967ddcaf891a417532260c01b611306565b612a7d67f9a4db42b3091e7c60c01b611306565b6000339050612a966755021b86f6a2128a60c01b611306565b612aaa67df10dd31fe6e8ab360c01b611306565b6000349050612ac3679a3615e20da3f18e60c01b611306565b612ad7678858a3eaff23853360c01b611306565b612ae283838361abfc565b612af667f8eae6eaeb5a83f660c01b611306565b612b0a67d0146af52483c6eb60c01b611306565b6016548273ffffffffffffffffffffffffffffffffffffffff168473ffffffffffffffffffffffffffffffffffffffff167f2273de02cb1f69ba6259d22c4bc22c60e4c94c193265ef6afee324a04a9b6d2284604051612b6a919061e061565b60405180910390a4505050565b612b8b67936795e94ff0294a60c01b611306565b612b9361a24c565b612ba7673be9c27d41700e7e60c01b611306565b612bbb670aaf9f0422e8b1bf60c01b611306565b80612bd067288a20a40e8d1c5860c01b61b7b5565b612be467c91bd2adbddb69c960c01b61b7b5565b612bf867e350faaca2e8f0c060c01b61b7b5565b612c266000357fffffffff0000000000000000000000000000000000000000000000000000000016826176f9565b612c8f57612c3e67f321c0062a05753f60c01b61b7b5565b612c526710282e2f2d3001d760c01b61b7b5565b806040517f73330d9b000000000000000000000000000000000000000000000000000000008152600401612c86919061e061565b60405180910390fd5b612ca3677a834b40c8e841e560c01b61b7b5565b612cb7678765015181e8c42860c01b61b7b5565b612ccb671ba82d4011c51a8260c01b611306565b612cdf671dd8c00337e99f9460c01b611306565b612cf36716fed0dc05d542f060c01b611306565b81600e81905550612d0e67b146300bb6f6853460c01b611306565b612d2267bfb96aad513382ed60c01b611306565b7ffee02ce7aa40f9c49eaabd26d404fa88714b97cb209af8954cfd5eeb8213b93e82604051612d51919061e061565b60405180910390a15050565b602080528060005260406000206000915054906101000a900460ff1681565b612d906702ea89b15cc3096960c01b611306565b612da467819a3c6447273cd260c01b611306565b612db867c23cea195263a6c260c01b611306565b612dcc671fb21d9e2d10e15360c01b611306565b60003a03612e2e57612de867e55dc19b3fdff44e60c01b611306565b612dfc6762b55f3e83a5ae8f60c01b611306565b6040517fe661aed000000000000000000000000000000000000000000000000000000000815260040160405180910390fd5b612e42677f6d53ee642f87fc60c01b611306565b612e56678de8bbee4fc831c260c01b611306565b612e6a672022efd41c50281260c01b611306565b612e7e67295fa8b90cdc2ce760c01b611306565b612e9267449b47673c85758f60c01b611306565b612ea667ad6d38278af45a9960c01b611306565b6000612ebc6789992c619629fd8260c01b611306565b612ed0670da0eaddae50aa1360c01b611306565b6000612edc600361a0a3565b9050612ef267278ab82c5f0dfa5d60c01b611306565b612f0667e12ba885a10c97f960c01b611306565b6000815103612f6957612f23671843e46d5f4db44160c01b611306565b612f37678a2bbfbd94d3956c60c01b611306565b6040517f70da6d1400000000000000000000000000000000000000000000000000000000815260040160405180910390fd5b612f7d679f806404611ec1a960c01b611306565b612f916721e15c01bab9343660c01b611306565b612fa567f03003a32185452f60c01b611306565b60005b815181101561352a57612fc56746c705e97e3a471e60c01b611306565b612fd9670a90bca0e4fb254e60c01b611306565b6000828281518110612fee57612fed61e957565b5b6020026020010151905061300c675c65210903cf7c8260c01b611306565b6130206762d4a9b3d20b1b4660c01b611306565b6130298161b7b8565b801561304557506130446731e0a7ad349993d660c01b61a2d3565b5b806131055750601e60009054906101000a900473ffffffffffffffffffffffffffffffffffffffff1673ffffffffffffffffffffffffffffffffffffffff16639d6fc1d1826040518263ffffffff1660e01b81526004016130a6919061e65c565b602060405180830381865afa1580156130c3573d6000803e3d6000fd5b505050506040513d601f19601f820116820180604052508101906130e7919061ebb5565b158015613104575061310367449cb848d4b91c2160c01b61a2d3565b5b5b156131385761311e67a6ad17b4352872ff60c01b611306565b61313267088e11aaa412879160c01b611306565b5061351f565b61314c67e5f73d480640195960c01b611306565b6131606775b54fe5fc1f5ebe60c01b611306565b613174677b50165de189d9c560c01b611306565b61318881600361b88b90919063ffffffff16565b5061319d677ef1ea443085084060c01b611306565b6001602060008373ffffffffffffffffffffffffffffffffffffffff1673ffffffffffffffffffffffffffffffffffffffff16815260200190815260200160002060006101000a81548160ff02191690831515021790555061320967f79bb801a29e354c60c01b611306565b61321d6716a76baf30c9f3e260c01b611306565b6000601c60008373ffffffffffffffffffffffffffffffffffffffff1673ffffffffffffffffffffffffffffffffffffffff1681526020019081526020016000205490506132756791ffc38211a473ff60c01b611306565b6000601c60008473ffffffffffffffffffffffffffffffffffffffff1673ffffffffffffffffffffffffffffffffffffffff168152602001908152602001600020819055506132ce67dcdfde953ad1836760c01b611306565b80601d60008282546132e0919061eb69565b925050819055506132fb67e576c5c4a9171f0360c01b611306565b61330f6797f2d50bb10a55b860c01b611306565b600061331a8361612f565b90506133306773ce593850060eee60c01b611306565b6133446774f47221155c4e9660c01b611306565b60005b815181101561346b5761336467c18b169f8d9a3d1560c01b611306565b613378679db73c39a0d77c7960c01b611306565b600082828151811061338d5761338c61e957565b5b602002602001015190506133ab6759638f4a60f1ba3060c01b611306565b6000601460008773ffffffffffffffffffffffffffffffffffffffff1673ffffffffffffffffffffffffffffffffffffffff16815260200190815260200160002060008373ffffffffffffffffffffffffffffffffffffffff1673ffffffffffffffffffffffffffffffffffffffff16815260200190815260200160002081905550613441676c0ebaf3be2d039960c01b611306565b613455679c74b72c504f4f9d60c01b611306565b61345f858261b8bb565b50806001019050613347565b50613480678005c10af28db4e360c01b611306565b818661348c919061e96d565b95506134a26771a3080e9dee3eb860c01b611306565b6134b667591b06740c1c568f60c01b611306565b8273ffffffffffffffffffffffffffffffffffffffff163373ffffffffffffffffffffffffffffffffffffffff167f8e6a4ccd7dccdca9ac211d00fcc3fa7c71be75ff73d3a35f63ea023173cc100484604051613513919061e061565b60405180910390a35050505b806001019050612fa8565b5061353f67f709dcf5c4d739cc60c01b611306565b6135536771ba625a241414e560c01b611306565b600082036135b55761356f67369e0cc8c6cbf9f360c01b611306565b613583678725daa5bea2ca0660c01b611306565b6040517f70da6d1400000000000000000000000000000000000000000000000000000000815260040160405180910390fd5b6135c967f5ecda9534b32c5660c01b611306565b6135dd67d92dddec2086e4e860c01b611306565b6135f1671eacf6b3b634b6dd60c01b611306565b6000600283613600919061ebe1565b905061361667d1729e0cf95c492060c01b611306565b61362a670dde406f51adf32960c01b611306565b60008184613638919061eb69565b905061364e6788fb31ce84662f2a60c01b611306565b613662675494a9b2b4481e2d60c01b611306565b6000601e60009054906101000a900473ffffffffffffffffffffffffffffffffffffffff1673ffffffffffffffffffffffffffffffffffffffff166356b54bae6040518163ffffffff1660e01b8152600401602060405180830381865afa1580156136d1573d6000803e3d6000fd5b505050506040513d601f19601f820116820180604052508101906136f5919061ec09565b905061370b67119e4e230f199a0760c01b611306565b61371e668433ba0d780cdf60c01b611306565b60008173ffffffffffffffffffffffffffffffffffffffff1663732524946040518163ffffffff1660e01b8152600401602060405180830381865afa15801561376b573d6000803e3d6000fd5b505050506040513d601f19601f8201168201806040525081019061378f919061ec09565b90506137a567dae723bd5ed7187960c01b611306565b6137b967443f0556f7ad7b0a60c01b611306565b8173ffffffffffffffffffffffffffffffffffffffff1663af182535846040518263ffffffff1660e01b81526004016000604051808303818588803b15801561380157600080fd5b505af1158015613815573d6000803e3d6000fd5b505050505061382e67ab64dbac0fc65c1d60c01b611306565b613842673948bfe6423cb30960c01b611306565b61384c818561ba8b565b61386067a1271eee1cf285cf60c01b611306565b61387467b24751eb41a3057360c01b611306565b3373ffffffffffffffffffffffffffffffffffffffff167f1c113e6bae9530fea40323e612aeb0cb7817dedb5a0b0f6bdfbff97d55920dc784866040516138bc92919061ec30565b60405180910390a2505050505050565b601b5481565b6138e667555484ea495449d160c01b611306565b6138fa67b9b90e8628981ced60c01b611306565b61390e671137c91720a160fc60c01b611306565b613922674c33b67b1d5e316e60c01b611306565b601e60009054906101000a900473ffffffffffffffffffffffffffffffffffffffff1673ffffffffffffffffffffffffffffffffffffffff163373ffffffffffffffffffffffffffffffffffffffff16146139d15761398b6706c7818cefc7179460c01b611306565b61399f673285569d793d492860c01b611306565b6040517f82b4290000000000000000000000000000000000000000000000000000000000815260040160405180910390fd5b6139e567f3811480ffac365260c01b611306565b6139f967af2a8181155794f460c01b611306565b613a0d67ff215318459bef7760c01b611306565b613a21677b55eed13de2eee560c01b611306565b613a3567210192db51e6854360c01b611306565b613a4967cb7590990e26637660c01b611306565b613a528161a0c4565b50565b613a6967211efbfc5611b17d60c01b611306565b613a7d67c19e59382a6deb9b60c01b611306565b613a916746dcd2b9209945fd60c01b611306565b613aa5674f1562aedd3c6fe660c01b611306565b601e60009054906101000a900473ffffffffffffffffffffffffffffffffffffffff1673ffffffffffffffffffffffffffffffffffffffff166356b54bae6040518163ffffffff1660e01b8152600401602060405180830381865afa158015613b12573d6000803e3d6000fd5b505050506040513d601f19601f82011682018060405250810190613b36919061ec09565b73ffffffffffffffffffffffffffffffffffffffff163373ffffffffffffffffffffffffffffffffffffffff1614613bc257613b7c6760a418cd05179f2760c01b611306565b613b9067b231bf47c8e5b2d160c01b611306565b6040517f82b4290000000000000000000000000000000000000000000000000000000000815260040160405180910390fd5b613bd667ba4a032948b5ed1660c01b611306565b613bea67968327826dda860660c01b611306565b613bfe6785490b590fc08c7660c01b611306565b613c12674be869d2743e1bf260c01b611306565b613c266728f9b852c13ab3a560c01b611306565b613c3a67f41e1c7733fbb3ce60c01b611306565b60003403613c8357613c5667f9ec58cab31cf2e460c01b611306565b613c6a67eca4679b11f6601e60c01b611306565b613c7e6717ed398d80b187ec60c01b611306565b614386565b613c97679d32e6363daa054460c01b611306565b613cab6720445940895c9b3960c01b611306565b613cbf67a15557611b24f94a60c01b611306565b6000349050613cd867ee2aee9fd1e8633660c01b611306565b613cec677009c8812de07e1060c01b611306565b600060216000601654815260200190815260200160002060008573ffffffffffffffffffffffffffffffffffffffff1673ffffffffffffffffffffffffffffffffffffffff168152602001908152602001600020549050613d5767c4d17bef859328f460c01b611306565b613d6b67c142c80548286bc260c01b611306565b600060226000601654815260200190815260200160002060008673ffffffffffffffffffffffffffffffffffffffff1673ffffffffffffffffffffffffffffffffffffffff168152602001908152602001600020549050613dd667f71383cb2f8c7ac260c01b611306565b613dea67be50ff307448081560c01b611306565b6000613e0067e8470bfe229e6e2060c01b611306565b613e1467380925987015297160c01b611306565b8183111561416057613e306780b68159301be85560c01b611306565b613e4467d4024233809e35d560c01b611306565b613e5867956f86db6921a78d60c01b611306565b6000613e638761612f565b9050613e79673840ead74a5ebaac60c01b611306565b613e8d67f5a5e631052416b660c01b611306565b600060648787613e9d919061e935565b613ea7919061ebe1565b9050613ebd675ef848818fb53b2660c01b611306565b613ed167f53b7bf0f40e9bda60c01b611306565b60008187613edf919061eb69565b9050613ef5670dee020abd3e520b60c01b611306565b858582613f02919061e935565b613f0c919061ebe1565b82613f17919061e96d565b9350613f2d678d692c47a64799fc60c01b611306565b613f4167c94491891cd8905f60c01b611306565b60005b835181101561415757613f616717ef5522c624cd9860c01b611306565b613f756796b6756366374b8660c01b611306565b600087613f9f6016548d888681518110613f9257613f9161e957565b5b602002602001015161bc7e565b84613faa919061e935565b613fb4919061ebe1565b9050613fca679a4cb04b20bb6b4e60c01b611306565b80601460008d73ffffffffffffffffffffffffffffffffffffffff1673ffffffffffffffffffffffffffffffffffffffff168152602001908152602001600020600087858151811061401f5761401e61e957565b5b602002602001015173ffffffffffffffffffffffffffffffffffffffff1673ffffffffffffffffffffffffffffffffffffffff1681526020019081526020016000206000828254614070919061e96d565b9250508190555061408b675ad7d78bd854c5fc60c01b611306565b80600c60008d73ffffffffffffffffffffffffffffffffffffffff1673ffffffffffffffffffffffffffffffffffffffff16815260200190815260200160002060008785815181106140e0576140df61e957565b5b602002602001015173ffffffffffffffffffffffffffffffffffffffff1673ffffffffffffffffffffffffffffffffffffffff168152602001908152602001600020600060165481526020019081526020016000206000828254614144919061e96d565b9250508190555050806001019050613f44565b5050505061418c565b614174673d7693030d335adc60c01b611306565b61418867a8399d68eda9307860c01b611306565b8390505b6141a067be7c372895b2db4760c01b611306565b80601460008873ffffffffffffffffffffffffffffffffffffffff1673ffffffffffffffffffffffffffffffffffffffff16815260200190815260200160002060008873ffffffffffffffffffffffffffffffffffffffff1673ffffffffffffffffffffffffffffffffffffffff168152602001908152602001600020600082825461422c919061e96d565b925050819055506142476799ebf69f7e83247660c01b611306565b83601c60008873ffffffffffffffffffffffffffffffffffffffff1673ffffffffffffffffffffffffffffffffffffffff1681526020019081526020016000206000828254614296919061e96d565b925050819055506142b1670d8932cce79877b160c01b611306565b83601d60008282546142c3919061e96d565b925050819055506142de67823a11dc0dd46b1f60c01b611306565b6142f267ddce7cf736c7fbe260c01b611306565b6142fb8661bf5c565b61430f679168b48b0bd4bf9b60c01b611306565b6143236701101eaee8dd1f3560c01b611306565b6016548673ffffffffffffffffffffffffffffffffffffffff167f72093068b9f28053bd924ac15d7710b987f9b6ef1e0f89f47d8b4bd7cac776dc83848861436b919061eb69565b60405161437992919061ec30565b60405180910390a3505050505b5050565b61439e67be0c833aa15c34c060c01b61b7b5565b6143a661a24c565b6143ba6732f8a94e78c23adf60c01b61b7b5565b6143ce6788b6eef7519ee4f160c01b61b7b5565b6143e26716df033c7a667b6e60c01b61b7b5565b6040518060400160405280847bffffffffffffffffffffffffffffffffffffffffffffffffffffffff19168152602001838380806020026020016040519081016040528093929190818152602001838360200280828437600081840152601f19601f82011690508083019250505050505050815250600080867bffffffffffffffffffffffffffffffffffffffffffffffffffffffff19167bffffffffffffffffffffffffffffffffffffffffffffffffffffffff1916815260200190815260200160002060008201518160000160006101000a81548163ffffffff021916908360e01c021790555060208201518160010190805190602001906144e792919061df9d565b509050506144ff6755f08098c39d2f8260c01b61b7b5565b61451367bdeaf3791eacbded60c01b61b7b5565b7f3665bf9cd0ba4ddceeec259e21dcf8a4510f3b1130bd42e950828e69d85408ba84848484604051614548949392919061ec48565b60405180910390a150505050565b606061456c67075e0b254c7f5b9e60c01b611306565b61458067521b3b24154b1a9660c01b611306565b61459467936e33b0b593015860c01b611306565b601f60008373ffffffffffffffffffffffffffffffffffffffff1673ffffffffffffffffffffffffffffffffffffffff16815260200190815260200160002060000180546145e19061e9a3565b80601f016020809104026020016040519081016040528092919081815260200182805461460d9061e9a3565b801561465a5780601f1061462f5761010080835404028352916020019161465a565b820191906000526020600020905b81548152906001019060200180831161463d57829003601f168201915b50505050509050919050565b60175481565b601c6020528060005260406000206000915090505481565b601d5481565b61469e6793785f883a6130c660c01b611306565b6146b267819a3c6447273cd260c01b611306565b6146c667c23cea195263a6c260c01b611306565b6146da671fb21d9e2d10e15360c01b611306565b60003a0361473c576146f667e55dc19b3fdff44e60c01b611306565b61470a6762b55f3e83a5ae8f60c01b611306565b6040517fe661aed000000000000000000000000000000000000000000000000000000000815260040160405180910390fd5b614750677f6d53ee642f87fc60c01b611306565b614764678de8bbee4fc831c260c01b611306565b614778670c7ebedca148ea9160c01b611306565b61478c67ae97237961f351d160c01b611306565b6147a067d755877656d0e68b60c01b611306565b6147b467e2e4c4e27c82a46f60c01b611306565b60003390506147cd6703f70a2bd51282dd60c01b611306565b6147e1674de0dc588a83e03c60c01b611306565b60003490506147fa67d713b801fb33bd6c60c01b611306565b61480e67dcacc62b6a9470a660c01b611306565b601e60009054906101000a900473ffffffffffffffffffffffffffffffffffffffff1673ffffffffffffffffffffffffffffffffffffffff16630a4c107287846040518363ffffffff1660e01b815260040161486b92919061ecb7565b600060405180830381600087803b15801561488557600080fd5b505af1158015614899573d6000803e3d6000fd5b505050506148b167eceefb30aaf1ebc560c01b611306565b6148c56755b9a52c96e9613060c01b611306565b6148d082838361abfc565b6148e467775e52653225e3db60c01b611306565b8484601f60008573ffffffffffffffffffffffffffffffffffffffff1673ffffffffffffffffffffffffffffffffffffffff168152602001908152602001600020600001918261493592919061ece9565b5061494a6717ab4458786e71fc60c01b611306565b82601f60008473ffffffffffffffffffffffffffffffffffffffff1673ffffffffffffffffffffffffffffffffffffffff16815260200190815260200160002060010160006101000a8154816fffffffffffffffffffffffffffffffff021916908360801c02179055506149c867f2c935569909e4cd60c01b611306565b6149dc672ed67123f50ff07160c01b611306565b6016548273ffffffffffffffffffffffffffffffffffffffff168373ffffffffffffffffffffffffffffffffffffffff167f2273de02cb1f69ba6259d22c4bc22c60e4c94c193265ef6afee324a04a9b6d2284604051614a3c919061e061565b60405180910390a4505050505050565b6000614a626720029dc7e2271f6460c01b611306565b614a7667e6564604451b5c6f60c01b611306565b614a8a671bda33a48263ede360c01b611306565b6022600084815260200190815260200160002060008373ffffffffffffffffffffffffffffffffffffffff1673ffffffffffffffffffffffffffffffffffffffff16815260200190815260200160002054905092915050565b600f5481565b600d5481565b6060614b05677a40392cdcd0b48f60c01b611306565b614b19674669d720ac1fba8560c01b611306565b614b2d6760372323b14778f060c01b611306565b614b37600161a0a3565b905090565b6000614b52679f1902a92107e6c260c01b611306565b614b666712edfb436dcc232d60c01b611306565b614b7a6749efc79be038489e60c01b611306565b6000601e60009054906101000a900473ffffffffffffffffffffffffffffffffffffffff1673ffffffffffffffffffffffffffffffffffffffff1662535175856040518263ffffffff1660e01b8152600401614bd6919061e65c565b602060405180830381865afa158015614bf3573d6000803e3d6000fd5b505050506040513d601f19601f82011682018060405250810190614c17919061ec09565b9050614c2d6714e002f36501e98560c01b611306565b614c4167f9afe6863953cad660c01b611306565b614c49619549565b158015614c665750614c65678131abe3eebeebc060c01b61a2d3565b5b80614cd65750602060008573ffffffffffffffffffffffffffffffffffffffff1673ffffffffffffffffffffffffffffffffffffffff16815260200190815260200160002060009054906101000a900460ff168015614cd55750614cd46751e5d8da6dda8b2060c01b61a2d3565b5b5b15614d2157614cef6793757d715427c01760c01b611306565b614d0367ccfb7edb71f6bcae60c01b611306565b614d1767ba05bb684bf162d260c01b611306565b6000915050614fda565b614d35677af00e00ae10d42460c01b611306565b614d4967dc67598a2f167e4360c01b611306565b614d5d67950e62c6ce8f5fe960c01b611306565b6000601460008673ffffffffffffffffffffffffffffffffffffffff1673ffffffffffffffffffffffffffffffffffffffff16815260200190815260200160002060008573ffffffffffffffffffffffffffffffffffffffff1673ffffffffffffffffffffffffffffffffffffffff168152602001908152602001600020549050614df267890fc4235bf71a1560c01b611306565b614e0667e2ced4f0b826872260c01b611306565b601e60009054906101000a900473ffffffffffffffffffffffffffffffffffffffff1673ffffffffffffffffffffffffffffffffffffffff1663a0d16cad836040518263ffffffff1660e01b8152600401614e61919061e65c565b602060405180830381865afa158015614e7e573d6000803e3d6000fd5b505050506040513d601f19601f82011682018060405250810190614ea2919061ebb5565b614eec57614eba6753c4a36f32e8af5460c01b611306565b614ece679df8db9d43859f2a60c01b611306565b614ee267fa2eedb0e8553f4e60c01b611306565b8092505050614fda565b614f0067d4275d9d27523e7f60c01b611306565b614f14671697fff997f9dff960c01b611306565b614f28672ca0f9d32056492d60c01b611306565b6000614f3486866150ab565b9050614f4a6714cd59f89804e72e60c01b611306565b614f5e675a568078dd14435e60c01b611306565b80821115614f9657614f7a67219c19fb5c5506e860c01b611306565b614f8e672688b985857128fc60c01b611306565b809150614fab565b614faa67bc13e68bd423f49c60c01b611306565b5b614fbf677d69444da89e713960c01b611306565b614fd367b81af50ad1e3f2aa60c01b611306565b8193505050505b92915050565b601a5481565b614fee61a24c565b614ff8600061c136565b565b6021602052816000526040600020602052806000526040600020600091509150505481565b6060615035671f4b1187538e35fd60c01b611306565b61504967d8a7d0b9b896074560c01b611306565b61505d670236f9c6ba8394c260c01b611306565b6150a4600b60008473ffffffffffffffffffffffffffffffffffffffff1673ffffffffffffffffffffffffffffffffffffffff16815260200190815260200160002061a0a3565b9050919050565b60006150c167e64bee992df64e0460c01b611306565b6150d5679837c489cc40dcfb60c01b611306565b6150e967df33d97971c46a5460c01b611306565b600c60008473ffffffffffffffffffffffffffffffffffffffff1673ffffffffffffffffffffffffffffffffffffffff16815260200190815260200160002060008373ffffffffffffffffffffffffffffffffffffffff1673ffffffffffffffffffffffffffffffffffffffff1681526020019081526020016000206000601654815260200190815260200160002054905092915050565b60165481565b61519b6785fa7b395d5be89560c01b611306565b6151af67b9b90e8628981ced60c01b611306565b6151c3671137c91720a160fc60c01b611306565b6151d7674c33b67b1d5e316e60c01b611306565b601e60009054906101000a900473ffffffffffffffffffffffffffffffffffffffff1673ffffffffffffffffffffffffffffffffffffffff163373ffffffffffffffffffffffffffffffffffffffff1614615286576152406706c7818cefc7179460c01b611306565b615254673285569d793d492860c01b611306565b6040517f82b4290000000000000000000000000000000000000000000000000000000000815260040160405180910390fd5b61529a67f3811480ffac365260c01b611306565b6152ae67af2a8181155794f460c01b611306565b6152c26721a8f1ce11b2066260c01b611306565b6152d66763b46a76e442507f60c01b611306565b6152ea67cdaf7847fc9011dd60c01b611306565b81601f60008573ffffffffffffffffffffffffffffffffffffffff1673ffffffffffffffffffffffffffffffffffffffff16815260200190815260200160002060010160006101000a8154816fffffffffffffffffffffffffffffffff021916908360801c021790555061536867820e57abd93a719360c01b611306565b80601f60008573ffffffffffffffffffffffffffffffffffffffff1673ffffffffffffffffffffffffffffffffffffffff16815260200190815260200160002060010160106101000a81548161ffff021916908360f01c0217905550505050565b6153dd679eec9044b9c0462c60c01b611306565b6153f167b9b90e8628981ced60c01b611306565b615405671137c91720a160fc60c01b611306565b615419674c33b67b1d5e316e60c01b611306565b601e60009054906101000a900473ffffffffffffffffffffffffffffffffffffffff1673ffffffffffffffffffffffffffffffffffffffff163373ffffffffffffffffffffffffffffffffffffffff16146154c8576154826706c7818cefc7179460c01b611306565b615496673285569d793d492860c01b611306565b6040517f82b4290000000000000000000000000000000000000000000000000000000000815260040160405180910390fd5b6154dc67f3811480ffac365260c01b611306565b6154f067af2a8181155794f460c01b611306565b6155046724035923ca977d0560c01b611306565b61551867f67f426e3e6b371060c01b611306565b61552c67511aa899e6eb4d6760c01b611306565b61554067f5471960fb2f6f9460c01b611306565b600d54601460008373ffffffffffffffffffffffffffffffffffffffff1673ffffffffffffffffffffffffffffffffffffffff16815260200190815260200160002060008373ffffffffffffffffffffffffffffffffffffffff1673ffffffffffffffffffffffffffffffffffffffff1681526020019081526020016000205410615642576155d967e2f419a7a698013060c01b611306565b6155ed67b5dd99f846daac2760c01b611306565b615601677067ed355c6ccc7f60c01b611306565b61560c816001619c66565b615620670f0b87963cd213ac60c01b611306565b61563467c71bd7861845a87c60c01b611306565b61563d8161bf5c565b615657565b6156566718f0a4a28cf4425560c01b611306565b5b50565b61566e678fe2115d6ce1cd2660c01b61b7b5565b61567661a24c565b61568a6709b862b227f1778560c01b61b7b5565b61569e67423a90dea5f08d5f60c01b61b7b5565b6156b26712d55d992cd616b860c01b61b7b5565b600080827bffffffffffffffffffffffffffffffffffffffffffffffffffffffff19167bffffffffffffffffffffffffffffffffffffffffffffffffffffffff19168152602001908152602001600020600080820160006101000a81549063ffffffff021916905560018201600061572a919061dfea565b5050615740671c3795656335d30b60c01b61b7b5565b61575467c0de44f930e2c4cb60c01b61b7b5565b7fed27cb02231782dadf13473a7828cb980c4d685791b7a3136dde00f8c3594cb681604051615783919061e683565b60405180910390a150565b6157a26790789c7859d6782460c01b611306565b6157b667b9b90e8628981ced60c01b611306565b6157ca671137c91720a160fc60c01b611306565b6157de674c33b67b1d5e316e60c01b611306565b601e60009054906101000a900473ffffffffffffffffffffffffffffffffffffffff1673ffffffffffffffffffffffffffffffffffffffff163373ffffffffffffffffffffffffffffffffffffffff161461588d576158476706c7818cefc7179460c01b611306565b61585b673285569d793d492860c01b611306565b6040517f82b4290000000000000000000000000000000000000000000000000000000000815260040160405180910390fd5b6158a167f3811480ffac365260c01b611306565b6158b567af2a8181155794f460c01b611306565b6158c9672359c4fbba81657560c01b611306565b6158dd67947eeee94fca0aaa60c01b611306565b6158f167273c24bb72851d4c60c01b611306565b8060198190555061590c678efe70545cab1c0360c01b611306565b43601a8190555050565b61592a6772deab8c9537877b60c01b611306565b61593e67debbb0d32f2c8d4660c01b611306565b8383601f60003373ffffffffffffffffffffffffffffffffffffffff1673ffffffffffffffffffffffffffffffffffffffff168152602001908152602001600020600001918261598f92919061ece9565b506159a467657c361e76a150e960c01b611306565b81601f60003373ffffffffffffffffffffffffffffffffffffffff1673ffffffffffffffffffffffffffffffffffffffff16815260200190815260200160002060010160006101000a8154816fffffffffffffffffffffffffffffffff021916908360801c0217905550615a226753a698b3e547691760c01b611306565b80601f60003373ffffffffffffffffffffffffffffffffffffffff1673ffffffffffffffffffffffffffffffffffffffff16815260200190815260200160002060010160106101000a81548161ffff021916908360f01c021790555050505050565b600080615a8f61c20d565b90508060000160009054906101000a900473ffffffffffffffffffffffffffffffffffffffff1691505090565b60006020528060005260406000206000915090508060000160009054906101000a900460e01b905081565b6000615afd6795454513f45e782360c01b611306565b615b1167ebf4fd7cf3bd4c4b60c01b611306565b615b25670aaa68e980ac0b4160c01b611306565b6000601e60009054906101000a900473ffffffffffffffffffffffffffffffffffffffff1673ffffffffffffffffffffffffffffffffffffffff1662535175856040518263ffffffff1660e01b8152600401615b81919061e65c565b602060405180830381865afa158015615b9e573d6000803e3d6000fd5b505050506040513d601f19601f82011682018060405250810190615bc2919061ec09565b9050615bd8679dc5e0f751d380aa60c01b611306565b615bec67c320da0e1291c64e60c01b611306565b615bf4619549565b615c3e57615c0c6799f9885c50533d9160c01b611306565b615c2067aec3d8e5f37e3c2960c01b611306565b615c346729f682c3a290a08f60c01b611306565b6000915050615e31565b615c5267b8094cab83c05bc260c01b611306565b615c66677d58f2c9a9a1f25560c01b611306565b615c7a6727727c73a5c73f0360c01b611306565b601e60009054906101000a900473ffffffffffffffffffffffffffffffffffffffff1673ffffffffffffffffffffffffffffffffffffffff1663a0d16cad826040518263ffffffff1660e01b8152600401615cd5919061e65c565b602060405180830381865afa158015615cf2573d6000803e3d6000fd5b505050506040513d601f19601f82011682018060405250810190615d16919061ebb5565b615d6057615d2e67d647d0a9663fbf0960c01b611306565b615d42677e8f80d95002a9ed60c01b611306565b615d5667886d28b8cc55b65260c01b611306565b6000915050615e31565b615d7467594c5670f5c2c24360c01b611306565b615d8867583e6f50effbbe8660c01b611306565b615d9c677aae907e3dfd9c2560c01b611306565b615da684846150ab565b601460008673ffffffffffffffffffffffffffffffffffffffff1673ffffffffffffffffffffffffffffffffffffffff16815260200190815260200160002060008573ffffffffffffffffffffffffffffffffffffffff1673ffffffffffffffffffffffffffffffffffffffff16815260200190815260200160002054615e2d919061eb69565b9150505b92915050565b60606000615e4f6798a11f19cdc7813560c01b611306565b615e636764ad1907c60ddaca60c01b611306565b615e776742ee47e51961afaf60c01b611306565b600860095481805480602002602001604051908101604052809291908181526020018280548015615ec757602002820191906000526020600020905b815481526020019060010190808311615eb3575b50505050509150915091509091565b601f602052806000526040600020600091509050806000018054615ef99061e9a3565b80601f0160208091040260200160405190810160405280929190818152602001828054615f259061e9a3565b8015615f725780601f10615f4757610100808354040283529160200191615f72565b820191906000526020600020905b815481529060010190602001808311615f5557829003601f168201915b5050505050908060010160009054906101000a900460801b908060010160109054906101000a900460f01b905083565b60195481565b615fbc67a362ba248db22e9060c01b611306565b615fd067b9b90e8628981ced60c01b611306565b615fe4671137c91720a160fc60c01b611306565b615ff8674c33b67b1d5e316e60c01b611306565b601e60009054906101000a900473ffffffffffffffffffffffffffffffffffffffff1673ffffffffffffffffffffffffffffffffffffffff163373ffffffffffffffffffffffffffffffffffffffff16146160a7576160616706c7818cefc7179460c01b611306565b616075673285569d793d492860c01b611306565b6040517f82b4290000000000000000000000000000000000000000000000000000000000815260040160405180910390fd5b6160bb67f3811480ffac365260c01b611306565b6160cf67af2a8181155794f460c01b611306565b6160e367ac634bfe7d95997760c01b611306565b6160f7672c6ee707741730c760c01b611306565b61610b67b4df1d5aad69774160c01b611306565b60185481601b5461611c919061e96d565b616126919061e96d565b601b8190555050565b6060616145670e1ebfbce14934c960c01b611306565b61615967da8c4c4c0581007a60c01b611306565b61616d67a8e32982db25c03860c01b611306565b6161b4600a60008473ffffffffffffffffffffffffffffffffffffffff1673ffffffffffffffffffffffffffffffffffffffff16815260200190815260200160002061a0a3565b9050919050565b6012602052816000526040600020602052806000526040600020600091509150505481565b60606161f667b27f8857d09f711660c01b611306565b61620a6798c4fd5f9c38859660c01b611306565b61621e67e004b78480d52c9060c01b611306565b60078054806020026020016040519081016040528092919081815260200182805480156162a057602002820191906000526020600020905b8160009054906101000a900473ffffffffffffffffffffffffffffffffffffffff1673ffffffffffffffffffffffffffffffffffffffff1681526020019060010190808311616256575b5050505050905090565b6014602052816000526040600020602052806000526040600020600091509150505481565b60006162e567936522026e3d1a1260c01b611306565b6162f9675aea191cf199a59b60c01b611306565b61630d6709d961102d7d737760c01b611306565b61632182600161c23590919063ffffffff16565b9050919050565b61633c671466e75a93d1465060c01b611306565b61635067b9b90e8628981ced60c01b611306565b616364671137c91720a160fc60c01b611306565b616378674c33b67b1d5e316e60c01b611306565b601e60009054906101000a900473ffffffffffffffffffffffffffffffffffffffff1673ffffffffffffffffffffffffffffffffffffffff163373ffffffffffffffffffffffffffffffffffffffff1614616427576163e16706c7818cefc7179460c01b611306565b6163f5673285569d793d492860c01b611306565b6040517f82b4290000000000000000000000000000000000000000000000000000000000815260040160405180910390fd5b61643b67f3811480ffac365260c01b611306565b61644f67af2a8181155794f460c01b611306565b616463677fd47da2164035a960c01b611306565b6164776759febfa2bf3084dd60c01b611306565b61648b67c06f9bb01a8ce72160c01b611306565b601854601b600082825461649f919061e96d565b92505081905550565b60185481565b6164c267427591390002f30460c01b611306565b6164ca61a24c565b6164de6733693385eca1532260c01b611306565b6164f2670a59cb2ad3a445f860c01b611306565b6165066722204df511afaffe60c01b611306565b61651a67959064bfb53b059760c01b611306565b601854811161657d57616537671947347d7833ff4c60c01b611306565b61654b674320f0af700643f060c01b611306565b6040517fb056448800000000000000000000000000000000000000000000000000000000815260040160405180910390fd5b616591676dbac2f4543418b660c01b611306565b6165a56769ca06f52e0393aa60c01b611306565b8060178190555050565b6165c36748a8dd549c160d8a60c01b611306565b6165d767819a3c6447273cd260c01b611306565b6165eb67c23cea195263a6c260c01b611306565b6165ff671fb21d9e2d10e15360c01b611306565b60003a036166615761661b67e55dc19b3fdff44e60c01b611306565b61662f6762b55f3e83a5ae8f60c01b611306565b6040517fe661aed000000000000000000000000000000000000000000000000000000000815260040160405180910390fd5b616675677f6d53ee642f87fc60c01b611306565b616689678de8bbee4fc831c260c01b611306565b61669d67452a68293875331660c01b611306565b6166b1674aacec2d719f03dc60c01b611306565b6166c56782ce26852ec9d6ee60c01b611306565b6166d967ed79613cccb3c74b60c01b611306565b600073ffffffffffffffffffffffffffffffffffffffff168273ffffffffffffffffffffffffffffffffffffffff16036167675761672167e990a436a2ec2def60c01b611306565b61673567841c20f6653a62d060c01b611306565b6040517fd92e233d00000000000000000000000000000000000000000000000000000000815260040160405180910390fd5b61677b67f700e8d8d7529c0260c01b611306565b61678f671951f0a673dc5d5160c01b611306565b6167a3677475c61e4f9243ad60c01b611306565b60008103616805576167bf671963f9582f2de17160c01b611306565b6167d3672dc96ace0c49f9c160c01b611306565b6040517f3ca0029d00000000000000000000000000000000000000000000000000000000815260040160405180910390fd5b616819670cb9a9ec3e485bc760c01b611306565b61682d67ee007709fa8af30e60c01b611306565b61684167521312d9b795c2a960c01b611306565b600033905061685a6789d1a26b5ed60f9260c01b611306565b61686e67f83bebe3571d84d560c01b611306565b616876619549565b6168d45761688e67b430d066006004f260c01b611306565b6168a2676757fde2cf8285dc60c01b611306565b6040517f15e34e0500000000000000000000000000000000000000000000000000000000815260040160405180910390fd5b6168e86791c3d27ebe9f68aa60c01b611306565b6168fc67cf78bb2ba4ee23b660c01b611306565b61691067d9755cfe674333e360c01b611306565b6000601060008573ffffffffffffffffffffffffffffffffffffffff1673ffffffffffffffffffffffffffffffffffffffff16815260200190815260200160002060008373ffffffffffffffffffffffffffffffffffffffff1673ffffffffffffffffffffffffffffffffffffffff1681526020019081526020016000205490506169a567e7518aac383c45ce60c01b611306565b6169b9675f8a4b1b8d78f9fe60c01b611306565b6000601160008673ffffffffffffffffffffffffffffffffffffffff1673ffffffffffffffffffffffffffffffffffffffff168152602001908152602001600020549050616a11678cc6ec2361b18b1260c01b611306565b616a256728c6dd143891f98560c01b611306565b6000601460008773ffffffffffffffffffffffffffffffffffffffff1673ffffffffffffffffffffffffffffffffffffffff16815260200190815260200160002060008573ffffffffffffffffffffffffffffffffffffffff1673ffffffffffffffffffffffffffffffffffffffff168152602001908152602001600020549050616ab966364cf153d7a99360c01b611306565b616acd671ca22c7755fc66c960c01b611306565b6000601c60008873ffffffffffffffffffffffffffffffffffffffff1673ffffffffffffffffffffffffffffffffffffffff168152602001908152602001600020549050616b256767047d28af8e6fa560c01b611306565b616b396746f70fe127e53b2260c01b611306565b6000861315616db757616b56678c85593171e2082860c01b611306565b616b6a6785bc0617b3f3a75460c01b611306565b616b7e670c6a108a3ad67c0260c01b611306565b6000869050616b9767033695bee4c929d860c01b611306565b616bab6746eb5fae36e6b53a60c01b611306565b6000616bb78988615ae7565b9050616bcd67d64e2c56c5472bbe60c01b611306565b616be167089b22f7afa6a50860c01b611306565b80821115616c5057616bfd67bae463a1a0241ed460c01b611306565b616c1167229aa023365dcd2460c01b611306565b80826040517f2de48821000000000000000000000000000000000000000000000000000000008152600401616c4792919061ec30565b60405180910390fd5b616c64679dfe72ad4767aed160c01b611306565b616c7867700eb88407fb055160c01b611306565b8186616c84919061e96d565b9550616c9a67255a107de252da0c60c01b611306565b8185616ca6919061e96d565b9450616cbc67de78ffe89cc9c8db60c01b611306565b8184616cc8919061eb69565b9350616cde673629867fdc54ce5c60c01b611306565b8183616cea919061eb69565b9250616d00679fa342565d37060460c01b611306565b81601d6000828254616d12919061eb69565b92505081905550616d2d67f00c46458fb7883160c01b611306565b601654601260008b73ffffffffffffffffffffffffffffffffffffffff1673ffffffffffffffffffffffffffffffffffffffff16815260200190815260200160002060008973ffffffffffffffffffffffffffffffffffffffff1673ffffffffffffffffffffffffffffffffffffffff168152602001908152602001600020819055505050616eb8565b616dcb6771a2db4f0e363fc560c01b611306565b616ddf6732c651886252160760c01b611306565b616df367a5f573d33067d88660c01b611306565b600086616dff9061edaa565b9050616e15674c46a3d12aeeadda60c01b611306565b8085616e21919061eb69565b9450616e376736c481d93f04807360c01b611306565b8084616e43919061eb69565b9350616e5967f7d5f1cd5fc4ee9760c01b611306565b8083616e65919061e96d565b9250616e7b677b90e49b7bd42b0560c01b611306565b8082616e87919061e96d565b9150616e9d67adea95754db5b32160c01b611306565b80601d6000828254616eaf919061e96d565b92505081905550505b616ecc67ecd45875701123e860c01b611306565b83601060008973ffffffffffffffffffffffffffffffffffffffff1673ffffffffffffffffffffffffffffffffffffffff16815260200190815260200160002060008773ffffffffffffffffffffffffffffffffffffffff1673ffffffffffffffffffffffffffffffffffffffff16815260200190815260200160002081905550616f6167abce6968b43f8ecf60c01b611306565b82601160008973ffffffffffffffffffffffffffffffffffffffff1673ffffffffffffffffffffffffffffffffffffffff16815260200190815260200160002081905550616fb9674a7aca3cdc81f0b660c01b611306565b81601460008973ffffffffffffffffffffffffffffffffffffffff1673ffffffffffffffffffffffffffffffffffffffff16815260200190815260200160002060008773ffffffffffffffffffffffffffffffffffffffff1673ffffffffffffffffffffffffffffffffffffffff1681526020019081526020016000208190555061704e671b133143438b8b2b60c01b611306565b80601c60008973ffffffffffffffffffffffffffffffffffffffff1673ffffffffffffffffffffffffffffffffffffffff168152602001908152602001600020819055506170a667ee304e2b717a0fb160c01b611306565b6170ba679357e46e28a0f7fc60c01b611306565b8673ffffffffffffffffffffffffffffffffffffffff168573ffffffffffffffffffffffffffffffffffffffff16036172e35761710167a9765666a4cf3dd960c01b611306565b6171156771baad291b154e7560c01b611306565b61712967ec0e0573ac564f3160c01b611306565b6000821415801561713b5750600d5482105b156171a957617154674b04f33a0d8b4f6e60c01b611306565b61716867b41002eceabc0f6e60c01b611306565b8685876040517f6fe84f3d0000000000000000000000000000000000000000000000000000000081526004016171a09392919061edcb565b60405180910390fd5b6171bd67ae5d8c430a3209c160c01b611306565b6171d167ea975ceb00c9385a60c01b611306565b6171e567c15eb8491293b20d60c01b611306565b60008613156172965761720267f5fa71fdc466b96260c01b611306565b6172166749fb8580b307951260c01b611306565b61722a67ed8ae093796f18ec60c01b611306565b6000820361727c57617246676b2be3331071028b60c01b611306565b61725a67f0e133656c11d84060c01b611306565b61726e677ab0992c85b116ba60c01b611306565b61727787619e96565b617291565b61729067133f0409202c21a060c01b611306565b5b6172de565b6172aa679257f0b6fc64cff060c01b611306565b6172be675b47d6da742ac6d060c01b611306565b6172d2676e152c08b7dbb3a560c01b611306565b6172dd876001619c66565b5b6174d5565b6172f76765f502f64a2c011d60c01b611306565b61730b67f2b3dca55d7b846a60c01b611306565b61731f677c02e3453867783060c01b611306565b600082141580156173315750600e5482105b1561739f5761734a674b6919e885eff5fa60c01b611306565b61735e674e5509ef4238992260c01b611306565b8685876040517f6fe84f3d0000000000000000000000000000000000000000000000000000000081526004016173969392919061edcb565b60405180910390fd5b6173b36746bb0411ab3c7dc860c01b611306565b6173c76729a6c7fbbebf5f3760c01b611306565b6173db673e4d4f382c624c3f60c01b611306565b600086131561748d576173f86715597697f7dd981160c01b611306565b61740c670f3e814566b162c360c01b611306565b61742067a418c7ba0f15b88060c01b611306565b600082036174735761743c670f39b8ae47f56ed760c01b611306565b6174506719fb10543ba2139f60c01b611306565b6174646795aa869052c86f9660c01b611306565b61746e878661b8bb565b617488565b617487672d98bc2dee45ca6860c01b611306565b5b6174d4565b6174a167f65430e3f4989d5e60c01b611306565b6174b567692ef6790afbae7860c01b611306565b6174c967cf1de79154df20db60c01b611306565b6174d3878661c265565b5b5b6174e967a5f3d991c943035e60c01b611306565b6174fd67f569bf00bb602a9a60c01b611306565b6175068761bf5c565b61751a675c6cded3bbc48f7c60c01b611306565b61752e67a141ecae1f1540ab60c01b611306565b6016548573ffffffffffffffffffffffffffffffffffffffff168873ffffffffffffffffffffffffffffffffffffffff167f80d5c777e5f7ac6ee89723223803ca5c0ec0204f89e99c1b0cde973c66a645948960405161758e919061ee04565b60405180910390a450505050505050565b6175a761e00b565b6175bb674619985d99bfc13a60c01b61b7b5565b6175cf67d3809ce56ffdd6c060c01b61b7b5565b6175e367672ef63f17fd937760c01b61b7b5565b60008083805190602001207bffffffffffffffffffffffffffffffffffffffffffffffffffffffff19167bffffffffffffffffffffffffffffffffffffffffffffffffffffffff191681526020019081526020016000206040518060400160405290816000820160009054906101000a900460e01b7bffffffffffffffffffffffffffffffffffffffffffffffffffffffff19167bffffffffffffffffffffffffffffffffffffffffffffffffffffffff19168152602001600182018054806020026020016040519081016040528092919081815260200182805480156176e957602002820191906000526020600020905b8154815260200190600101908083116176d5575b5050505050815250509050919050565b600061770f67474e2d01d013ed0460c01b61b7b5565b61772367a3dfb7f1a77f229760c01b61b7b5565b61773767c84461f410b06e1d60c01b61b7b5565b6000806000857bffffffffffffffffffffffffffffffffffffffffffffffffffffffff19167bffffffffffffffffffffffffffffffffffffffffffffffffffffffff191681526020019081526020016000206040518060400160405290816000820160009054906101000a900460e01b7bffffffffffffffffffffffffffffffffffffffffffffffffffffffff19167bffffffffffffffffffffffffffffffffffffffffffffffffffffffff191681526020016001820180548060200260200160405190810160405280929190818152602001828054801561783857602002820191906000526020600020905b815481526020019060010190808311617824575b505050505081525050905061785767fceac404249b0d4760c01b61b7b5565b61786b6780c820ae5d3863fa60c01b61b7b5565b6000816020015151036178be5761788c67d3f7980aefae23f760c01b61b7b5565b6178a0675178b7b9ce528bf860c01b61b7b5565b6178b4672c12828ba0a53f0e60c01b61b7b5565b6000915050617be3565b6178d2679fbf9a05f8d8d3f260c01b61b7b5565b6178e667ec1b37c91026e18c60c01b61b7b5565b6178f966575fac3fc8706960c01b61b7b5565b60008160200151905061791667e4ee101f22c6ceed60c01b61b7b5565b61792a67ccc0fb216cd0689c60c01b61b7b5565b6000617939836000015161c329565b905061794f67bfc58c9d8e9c74b760c01b61b7b5565b617963679e58f8bb97a704b560c01b61b7b5565b60005b8251811015617bb257617983670ae3b9f28946ab1660c01b61b7b5565b617997674d79179b2b65b62460c01b61b7b5565b818382815181106179ab576179aa61e957565b5b602002602001015103617b91576179cc67e77d2e3f89e7a42860c01b61b7b5565b6179e067b7842defb9da051d60c01b61b7b5565b6179f4671547477c73ca15a160c01b61b7b5565b600080821180617a145750617a1367cc01463c19fc8ba960c01b61c545565b5b8015617a305750617a2f67227034a55ba6c0a760c01b61c54c565b5b617a555783600081518110617a4857617a4761e957565b5b6020026020010151617a7d565b83600183617a63919061eb69565b81518110617a7457617a7361e957565b5b60200260200101515b9050617a93677185030a1f64e21460c01b61b7b5565b617aa76778bafd4adda4b1c560c01b61b7b5565b600060018551617ab7919061eb69565b831080617ad45750617ad3674f0cebdd4deab5ed60c01b61c545565b5b8015617af05750617aef67dc67d8968d02c22460c01b61c54c565b5b617b21578460018651617b03919061eb69565b81518110617b1457617b1361e957565b5b6020026020010151617b49565b84600184617b2f919061e96d565b81518110617b4057617b3f61e957565b5b60200260200101515b9050617b5f672e87edf58ed8962a60c01b61b7b5565b617b73676973514a8df1a1ba60c01b61b7b5565b818814158015617b835750808814155b159650505050505050617be3565b617ba5679ca04a6f8e3f0a1060c01b61b7b5565b8080600101915050617966565b50617bc767aa325e51b176b97060c01b61b7b5565b617bdb674634c9165e74839160c01b61b7b5565b600093505050505b92915050565b617bf161e00b565b617c05678d336dd70b28d88c60c01b61b7b5565b617c19670ef5ff68e8bedddd60c01b61b7b5565b617c2d6787db0b959c67689d60c01b61b7b5565b600080837bffffffffffffffffffffffffffffffffffffffffffffffffffffffff19167bffffffffffffffffffffffffffffffffffffffffffffffffffffffff191681526020019081526020016000206040518060400160405290816000820160009054906101000a900460e01b7bffffffffffffffffffffffffffffffffffffffffffffffffffffffff19167bffffffffffffffffffffffffffffffffffffffffffffffffffffffff1916815260200160018201805480602002602001604051908101604052809291908181526020018280548015617d2c57602002820191906000526020600020905b815481526020019060010190808311617d18575b5050505050815250509050919050565b6000617d5267e296759e01e3a0af60c01b611306565b617d6667eee852c8bb52c3aa60c01b611306565b617d7a67f798c6bc165571fe60c01b611306565b601854601754601954617d8d919061e96d565b617d97919061eb69565b905090565b617db0671ff62f411d86ce4b60c01b611306565b617dc467093531622579856a60c01b611306565b617dd867cbf888a7d916093b60c01b611306565b617dec67c0db9982ac228f0c60c01b611306565b602560009054906101000a900473ffffffffffffffffffffffffffffffffffffffff1673ffffffffffffffffffffffffffffffffffffffff163373ffffffffffffffffffffffffffffffffffffffff1614617e9b57617e556783c7adeaa6f44cd660c01b611306565b617e69673c387d9205b2a18560c01b611306565b6040517f82b4290000000000000000000000000000000000000000000000000000000000815260040160405180910390fd5b617eaf6717ba79221d29a15160c01b611306565b617ec367ef191f0fa528152960c01b611306565b617ed767607163613dd6bc2260c01b611306565b617eeb679383bcf8544719e160c01b611306565b617eff670a2152e886b440fc60c01b611306565b617f1367e8edd71534e0ca5760c01b611306565b6000601e60009054906101000a900473ffffffffffffffffffffffffffffffffffffffff1673ffffffffffffffffffffffffffffffffffffffff16631ee4d0bc846040518263ffffffff1660e01b8152600401617f70919061e65c565b602060405180830381865afa158015617f8d573d6000803e3d6000fd5b505050506040513d601f19601f82011682018060405250810190617fb1919061ec09565b9050617fc7671b0f7ebca8a9469260c01b611306565b617fdb673b82a328ecb53ff560c01b611306565b617fe5818361c557565b505050565b617ffe67a28674acf1a6b67b60c01b611306565b61801267819a3c6447273cd260c01b611306565b61802667c23cea195263a6c260c01b611306565b61803a671fb21d9e2d10e15360c01b611306565b60003a0361809c5761805667e55dc19b3fdff44e60c01b611306565b61806a6762b55f3e83a5ae8f60c01b611306565b6040517fe661aed000000000000000000000000000000000000000000000000000000000815260040160405180910390fd5b6180b0677f6d53ee642f87fc60c01b611306565b6180c4678de8bbee4fc831c260c01b611306565b6180d8677cfc482ca5924b8160c01b611306565b6180ec671aae9304424d993160c01b611306565b6180f461c748565b618108673b9b26c974f37e9660c01b611306565b61811c671d417b8a2dd02a8160c01b611306565b61813067695a39c96317877760c01b611306565b61814467327863730e389e7a60c01b611306565b600033905061815d67bd54627bce930ebf60c01b611306565b61817167fe524f98b1c827b760c01b611306565b601260008373ffffffffffffffffffffffffffffffffffffffff1673ffffffffffffffffffffffffffffffffffffffff16815260200190815260200160002060008273ffffffffffffffffffffffffffffffffffffffff1673ffffffffffffffffffffffffffffffffffffffff168152602001908152602001600020546016541161825d5761820a67136b8b0d0e21a90c60c01b611306565b61821e67f2604b31ef86298860c01b611306565b81816040517f5831a95800000000000000000000000000000000000000000000000000000000815260040161825492919061ee15565b60405180910390fd5b618271676c8ccf99aaa5cd4560c01b611306565b618285673cafadd94acfe56760c01b611306565b61829967c2f38464e7123e9b60c01b611306565b6182a1619549565b6182ff576182b9679a9bfd4bc79e720660c01b611306565b6182cd67ae131f012181354060c01b611306565b6040517f15e34e0500000000000000000000000000000000000000000000000000000000815260040160405180910390fd5b61831367fc6636ca83a7d9fd60c01b611306565b6183276778bc40013f89ee5560c01b611306565b61833b679807e8b751f0d75e60c01b611306565b6000601060008473ffffffffffffffffffffffffffffffffffffffff1673ffffffffffffffffffffffffffffffffffffffff16815260200190815260200160002060008373ffffffffffffffffffffffffffffffffffffffff1673ffffffffffffffffffffffffffffffffffffffff1681526020019081526020016000205490506183d067f6d833ac3b8fdfd360c01b611306565b6183e4676f883ae0947efc3660c01b611306565b6000810361844657618400675b7be52b680b785060c01b611306565b61841467b2267794561bff7260c01b611306565b6040517f3ca0029d00000000000000000000000000000000000000000000000000000000815260040160405180910390fd5b61845a672fdd2e14b3562a2e60c01b611306565b61846e6769396d3994e2c30660c01b611306565b6000601060008573ffffffffffffffffffffffffffffffffffffffff1673ffffffffffffffffffffffffffffffffffffffff16815260200190815260200160002060008473ffffffffffffffffffffffffffffffffffffffff1673ffffffffffffffffffffffffffffffffffffffff1681526020019081526020016000208190555061850467e9dd1ceb3fc19e7e60c01b611306565b80601160008573ffffffffffffffffffffffffffffffffffffffff1673ffffffffffffffffffffffffffffffffffffffff1681526020019081526020016000205461854f919061eb69565b601160008573ffffffffffffffffffffffffffffffffffffffff1673ffffffffffffffffffffffffffffffffffffffff168152602001908152602001600020819055506185a66772ee821e746bf62a60c01b611306565b6185ba672a73ca6608751df060c01b611306565b6000601460008573ffffffffffffffffffffffffffffffffffffffff1673ffffffffffffffffffffffffffffffffffffffff16815260200190815260200160002060008473ffffffffffffffffffffffffffffffffffffffff1673ffffffffffffffffffffffffffffffffffffffff1681526020019081526020016000205403618689576186526789975cdd25439c2f60c01b611306565b618666677126213b23a9f33160c01b611306565b61867a67b0d4b2f80ca8d9b160c01b611306565b618684838361c79f565b61869e565b61869d675488a1693569961e60c01b611306565b5b6186b267e6e96be27afbcaa960c01b611306565b6186c66725e7e4788ba8893860c01b611306565b6186d0828261ba8b565b6186e4678027d0ce4fdd1d6760c01b611306565b6186f867345135824084436f60c01b611306565b6016548273ffffffffffffffffffffffffffffffffffffffff168473ffffffffffffffffffffffffffffffffffffffff167ff380b0bc887e00f5b50d3c9d4eaaf5c9a0afd97b956316b995159384c4ede9b384604051618758919061e061565b60405180910390a4505061876a61cb34565b50565b61878167414df2d3ba4fd06260c01b611306565b61879567c19e59382a6deb9b60c01b611306565b6187a96746dcd2b9209945fd60c01b611306565b6187bd674f1562aedd3c6fe660c01b611306565b601e60009054906101000a900473ffffffffffffffffffffffffffffffffffffffff1673ffffffffffffffffffffffffffffffffffffffff166356b54bae6040518163ffffffff1660e01b8152600401602060405180830381865afa15801561882a573d6000803e3d6000fd5b505050506040513d601f19601f8201168201806040525081019061884e919061ec09565b73ffffffffffffffffffffffffffffffffffffffff163373ffffffffffffffffffffffffffffffffffffffff16146188da576188946760a418cd05179f2760c01b611306565b6188a867b231bf47c8e5b2d160c01b611306565b6040517f82b4290000000000000000000000000000000000000000000000000000000000815260040160405180910390fd5b6188ee67ba4a032948b5ed1660c01b611306565b61890267968327826dda860660c01b611306565b61891667b4d9270b3beb8fa660c01b611306565b61892a676fd005beae21757c60c01b611306565b61893e670d2e182f76cc490e60c01b611306565b61895267c572c3d7506b843160c01b611306565b60006021600084815260200190815260200160002060008373ffffffffffffffffffffffffffffffffffffffff1673ffffffffffffffffffffffffffffffffffffffff16815260200190815260200160002054146189eb576189be673018add34977a8d060c01b611306565b6189d2675a1f3ad53777135c60c01b611306565b6189e667d9d76fb0f37df8de60c01b611306565b618c41565b6189ff67d1e4d942e0a6f6d560c01b611306565b618a1367c66534db33be6efb60c01b611306565b618a2767c425c6376a90539460c01b611306565b6000601c60008373ffffffffffffffffffffffffffffffffffffffff1673ffffffffffffffffffffffffffffffffffffffff168152602001908152602001600020549050618a7f671ea813d91779414f60c01b611306565b618a9367ee439c1292eacf5d60c01b611306565b60008103618add57618aaf67372581ab44fb39f360c01b611306565b618ac3670c01ddbd1c82fa1b60c01b611306565b618ad767dd56d917a70cec5460c01b611306565b50618c41565b618af16766dc73291d92554960c01b611306565b618b0567b800f00f9a1e7e9660c01b611306565b806021600085815260200190815260200160002060008473ffffffffffffffffffffffffffffffffffffffff1673ffffffffffffffffffffffffffffffffffffffff16815260200190815260200160002081905550618b6e67377196278027706a60c01b611306565b601460008373ffffffffffffffffffffffffffffffffffffffff1673ffffffffffffffffffffffffffffffffffffffff16815260200190815260200160002060008373ffffffffffffffffffffffffffffffffffffffff1673ffffffffffffffffffffffffffffffffffffffff168152602001908152602001600020546022600085815260200190815260200160002060008473ffffffffffffffffffffffffffffffffffffffff1673ffffffffffffffffffffffffffffffffffffffff16815260200190815260200160002081905550505b5050565b6060618c5b671b43e3994d13be1860c01b611306565b618c6f674d54bf503f50262360c01b611306565b618c836795eb137ecfc3bc6060c01b611306565b618c8d600561a0a3565b905090565b600e5481565b60116020528060005260406000206000915090505481565b6060618cc667845742fb767a38a360c01b611306565b618cda67620df29e13a6b4cb60c01b611306565b618cee67d1a026d304bc442f60c01b611306565b618cf8600361a0a3565b905090565b601e60009054906101000a900473ffffffffffffffffffffffffffffffffffffffff1681565b6010602052816000526040600020602052806000526040600020600091509150505481565b618d5c674fb9121f8c85306a60c01b611306565b618d7067819a3c6447273cd260c01b611306565b618d8467c23cea195263a6c260c01b611306565b618d98671fb21d9e2d10e15360c01b611306565b60003a03618dfa57618db467e55dc19b3fdff44e60c01b611306565b618dc86762b55f3e83a5ae8f60c01b611306565b6040517fe661aed000000000000000000000000000000000000000000000000000000000815260040160405180910390fd5b618e0e677f6d53ee642f87fc60c01b611306565b618e22678de8bbee4fc831c260c01b611306565b618e3667f12ec0ab4f52518960c01b611306565b618e4a67d68a31f8fe97b8b160c01b611306565b618e5e67f1065054c95a4ef960c01b611306565b618e7267914f9c66f0c4561a60c01b611306565b6000339050618e8b670fcc88378044fbec60c01b611306565b618e9f67cfa76b51612e7ec960c01b611306565b6000601e60009054906101000a900473ffffffffffffffffffffffffffffffffffffffff1673ffffffffffffffffffffffffffffffffffffffff1662535175836040518263ffffffff1660e01b8152600401618efb919061e65c565b602060405180830381865afa158015618f18573d6000803e3d6000fd5b505050506040513d601f19601f82011682018060405250810190618f3c919061ec09565b9050618f52674b12042c94ae433b60c01b611306565b618f6667458247728a500cc260c01b611306565b60006016541480156190105750601e60009054906101000a900473ffffffffffffffffffffffffffffffffffffffff1673ffffffffffffffffffffffffffffffffffffffff1663facd743b826040518263ffffffff1660e01b8152600401618fce919061e65c565b602060405180830381865afa158015618feb573d6000803e3d6000fd5b505050506040513d601f19601f8201168201806040525081019061900f919061ebb5565b5b1561907a5761902967903ca3d958ebc79760c01b611306565b61903d67b4e033bf280690ff60c01b611306565b816040517f7ae3e5a0000000000000000000000000000000000000000000000000000000008152600401619071919061e65c565b60405180910390fd5b61908e67c2c8ab62a51bf63460c01b611306565b6190a2672c63d6bea06887f460c01b611306565b6190b6677e222ea43713dd9760c01b611306565b6190bf8261a0c4565b5050565b6190d767c2fd9f10f69f56eb60c01b611306565b6190eb67b9b90e8628981ced60c01b611306565b6190ff671137c91720a160fc60c01b611306565b619113674c33b67b1d5e316e60c01b611306565b601e60009054906101000a900473ffffffffffffffffffffffffffffffffffffffff1673ffffffffffffffffffffffffffffffffffffffff163373ffffffffffffffffffffffffffffffffffffffff16146191c25761917c6706c7818cefc7179460c01b611306565b619190673285569d793d492860c01b611306565b6040517f82b4290000000000000000000000000000000000000000000000000000000000815260040160405180910390fd5b6191d667f3811480ffac365260c01b611306565b6191ea67af2a8181155794f460c01b611306565b6191fe67d661f63d9f3238ea60c01b611306565b619212679aa2d8fc2353652e60c01b611306565b6192266754a5f491094dfc7f60c01b611306565b601660008154809291906192399061ee47565b91905055506192526748fa814df8b1021a60c01b611306565b6000601b81905550565b610bb881565b61926a61a24c565b600073ffffffffffffffffffffffffffffffffffffffff168173ffffffffffffffffffffffffffffffffffffffff16036192dc5760006040517f1e4fbdf70000000000000000000000000000000000000000000000000000000081526004016192d3919061e65c565b60405180910390fd5b6192e58161c136565b50565b6192fc671925871822c8d82460c01b611306565b61931067819a3c6447273cd260c01b611306565b61932467c23cea195263a6c260c01b611306565b619338671fb21d9e2d10e15360c01b611306565b60003a0361939a5761935467e55dc19b3fdff44e60c01b611306565b6193686762b55f3e83a5ae8f60c01b611306565b6040517fe661aed000000000000000000000000000000000000000000000000000000000815260040160405180910390fd5b6193ae677f6d53ee642f87fc60c01b611306565b6193c2678de8bbee4fc831c260c01b611306565b6193d6674a123b851b37642d60c01b611306565b6193ea676fb693f591250b9a60c01b611306565b6193f261c748565b6194066793c63d466e690b7060c01b611306565b61941a673e3abf927ede772e60c01b611306565b61942e672f1484002185b05c60c01b611306565b61944267c7063466b5f7cacb60c01b611306565b600033905061945b67c0425c874f89d6dc60c01b611306565b61946f671b22e600ac871a9e60c01b611306565b61947a83828461a2e5565b61948e672bd5dda74e0e466560c01b611306565b6194a2674d2b4dbf3f97a77560c01b611306565b6194ac818361ba8b565b6194c0677b85fa1c516e337160c01b611306565b6194d46701a4e7a82d94af4460c01b611306565b6016548173ffffffffffffffffffffffffffffffffffffffff168473ffffffffffffffffffffffffffffffffffffffff167fa7c0f0cac6bd4d18042007706c84a8abe823751cf289b69c01e83eef7b5915c785604051619534919061e061565b60405180910390a45061954561cb34565b5050565b600061955f67d1f7990a4a83ccc760c01b611306565b61957367be71e8cb9860d7fd60c01b611306565b6195876788e2e6356ad5dbce60c01b611306565b6001905090565b60006195a467efd54c7fb23509f660c01b611306565b6195b8675e0b94f28a2f07b160c01b611306565b6195cc6726bd8725dab3e50760c01b611306565b6195e082600161c23590919063ffffffff16565b80156195fc57506195fb671536ee593b40855260c01b61a2d3565b5b80619633575061961682600361c23590919063ffffffff16565b80156196325750619631676877da346e37d7f960c01b61a2d3565b5b5b9050919050565b60136020528060005260406000206000915090505481565b60007ff0c57e16840df040f15088dc2f81fe391c3923bec73e23a9662efc9c229c6a00905090565b61968e67b0af8fef10363c3360c01b611306565b6196a26707e3a14e04f87f9560c01b611306565b6196b667b17499d3c21b635560c01b611306565b60008160c001351480156196da57506196d967921758003c63fdf760c01b61a2d3565b5b8061970a57508061010001358160c00135111580156197095750619708679f6f1fc3e36183de60c01b61a2d3565b5b5b156197695761972367f670d6fb2afef4d260c01b611306565b61973767550737a3e65ced9860c01b611306565b6040517fc671116b00000000000000000000000000000000000000000000000000000000815260040160405180910390fd5b61977d67a6a6724b060efa6b60c01b611306565b619791673e7547dbadad770b60c01b611306565b6197a567fd04f09736e9742160c01b611306565b60008161010001350361980c576197c667aae7c7524473268c60c01b611306565b6197da677cc9a2d9106ac2b460c01b611306565b6040517f32154b4700000000000000000000000000000000000000000000000000000000815260040160405180910390fd5b61982067ecd2a0ea5001322e60c01b611306565b619834675971be8f2c3b63e460c01b611306565b6198486724f58d82373f06da60c01b611306565b60008160e0013514801561986c575061986b6792bc4f144f918c3160c01b61a2d3565b5b8061989b57508060c001358160e001351015801561989a575061989967a5c7ab34926603df60c01b61a2d3565b5b5b156198fa576198b467b5f70ab44ccd109f60c01b611306565b6198c867969c3075a9da39d060c01b611306565b6040517f0685efe900000000000000000000000000000000000000000000000000000000815260040160405180910390fd5b61990e678057b4ebdbba2cd560c01b611306565b619922675e38b4e9aeb8b1eb60c01b611306565b619936672a27309e98195ae560c01b611306565b600073ffffffffffffffffffffffffffffffffffffffff16816000016020810190619961919061e1f5565b73ffffffffffffffffffffffffffffffffffffffff16036199d65761999067233226614ca6716960c01b611306565b6199a46748f190b55d0d4f9860c01b611306565b6040517fd92e233d00000000000000000000000000000000000000000000000000000000815260040160405180910390fd5b6199ea67d517cd933220ef6660c01b611306565b6199fe67ff9f554e130c547260c01b611306565b619a12678c2bc3a5c631037160c01b611306565b6000818060400190619a24919061e8ca565b905003619a8557619a3f67fd38977f59d8b16060c01b611306565b619a5367c72e182fcdb3e6f760c01b611306565b6040517fb93449da00000000000000000000000000000000000000000000000000000000815260040160405180910390fd5b619a996762be84e9a64d63e460c01b611306565b619aad67acd96c96513a70b360c01b611306565b619ac167bcd628dd3df7aeb760c01b611306565b60008160600135148015619ae55750619ae467c39d3aa8c51731b560c01b61a2d3565b5b80619b10575060008160800135148015619b0f5750619b0e6753fc291ff0bbbe3560c01b61a2d3565b5b5b15619b8457619b29672a21e418e055204e60c01b611306565b619b3d6774b3d3827f62c69a60c01b611306565b806080013581606001356040517fc666e7c2000000000000000000000000000000000000000000000000000000008152600401619b7b92919061ec30565b60405180910390fd5b619b986730af98772ebd500860c01b611306565b619bac67518b87a962d1c00a60c01b611306565b619bc067288f46721a5856a360c01b611306565b80608001358160a0013511619c2957619be36790a41463533cff6d60c01b611306565b619bf767b5b84cc8c29946e160c01b611306565b6040517f1c6d3b1500000000000000000000000000000000000000000000000000000000815260040160405180910390fd5b619c3d6733342adc94f5febf60c01b611306565b50565b619c4861cb4d565b619c518161cb8d565b50565b619c5c61cb4d565b619c6461cc13565b565b619c7a67f58210dbed0e15ac60c01b611306565b619c8e670de2119c0cdf3b4d60c01b611306565b619ca267ae849c07e6666c3060c01b611306565b619cab826162cf565b619db357619cc367b1252c1b1459254760c01b611306565b619cd767c7297c91d1e9e03d60c01b611306565b619ceb676121f824655f3a9f60c01b611306565b619cff82600161cc3490919063ffffffff16565b50619d1467831fec40ea22ef6a60c01b611306565b619d2867ed25c9634abd427c60c01b611306565b619d3061cc64565b619d3a600161ccaa565b1115619d9a57619d546718023818a76050fe60c01b611306565b619d6867c4affd91a01a9ef960c01b611306565b6040517fe637367400000000000000000000000000000000000000000000000000000000815260040160405180910390fd5b619dae678c96fec3c648659560c01b611306565b619dc8565b619dc7676e4dfe86c7fc4a4860c01b611306565b5b619ddc67337a8f7141f92ec560c01b611306565b619df06701763d4c906a171f60c01b611306565b619e0482600361b88b90919063ffffffff16565b50619e1967a1fe94e5b4fd9c7160c01b611306565b619e2d67c9d1cd61af554c6460c01b611306565b8015619e7d57619e47670d3e89f7db6ffc2660c01b611306565b619e5b677248c99d3f8bc29c60c01b611306565b619e6f67cdb15eb62a84368560c01b611306565b619e788261ccbf565b619e92565b619e916784dd63aaeca2c91a60c01b611306565b5b5050565b619eaa678ff7dbd1e0b61f4760c01b611306565b619ebe6773a787a1f806686060c01b611306565b619ed2678e7ad6c2fd44471560c01b611306565b619ee681600561cc3490919063ffffffff16565b50619efb67c741beb73a92958060c01b611306565b619f0f67d3fd3b33fa438ec360c01b611306565b619f188161cfe7565b50565b619f2f67c79e4b348e6f39f460c01b61b7b5565b619f3761cb4d565b619f4b67b4a3fa81ec94c0b760c01b61b7b5565b619f5f6779af0e9eed62f6a360c01b61b7b5565b619f73671d2f4cf255f3a3a260c01b61b7b5565b6040518060400160405280837bffffffffffffffffffffffffffffffffffffffffffffffffffffffff1916815260200182815250600080857bffffffffffffffffffffffffffffffffffffffffffffffffffffffff19167bffffffffffffffffffffffffffffffffffffffffffffffffffffffff1916815260200190815260200160002060008201518160000160006101000a81548163ffffffff021916908360e01c0217905550602082015181600101908051906020019061a03792919061df9d565b5090505061a04f6761754190fdc3bd4b60c01b61b7b5565b61a06367ff18751ae25d0b5f60c01b61b7b5565b7f3665bf9cd0ba4ddceeec259e21dcf8a4510f3b1130bd42e950828e69d85408ba83838360405161a0969392919061ee65565b60405180910390a1505050565b6060600061a0b38360000161d583565b905060608190508092505050919050565b61a0d867c58a5df3038e72cc60c01b611306565b61a0ec67ab160c212c93414a60c01b611306565b61a10067fd8c9d5c35cd06b060c01b611306565b61a11481600161b88b90919063ffffffff16565b5061a12967e73fc4edbc49b25960c01b611306565b61a13d675a5109256e25d51d60c01b611306565b61a1468161b7b8565b1561a1a15761a15f67f5660cef1417d59f60c01b611306565b61a17367150d956f0583a7cd60c01b611306565b61a187670d8eb696947fc1c160c01b611306565b61a19b81600361b88b90919063ffffffff16565b5061a1e7565b61a1b5679c9033be8190cc3660c01b611306565b61a1c9676bc2b0bf8bd14a8860c01b611306565b61a1dd673050752388e02f8260c01b611306565b61a1e68161d5df565b5b61a1fb679e3290344fa2496560c01b611306565b61a20f67902c3b3a221131c860c01b611306565b61a2188161cfe7565b61a22c67692975f1e11095e260c01b611306565b61a2406718c96b96cd73484760c01b611306565b61a2498161d633565b50565b61a25461d686565b73ffffffffffffffffffffffffffffffffffffffff1661a272615a84565b73ffffffffffffffffffffffffffffffffffffffff161461a2d15761a29561d686565b6040517f118cdaa700000000000000000000000000000000000000000000000000000000815260040161a2c8919061e65c565b60405180910390fd5b565b600060019050919050565b6000919050565b61a2f967a737b8386207254560c01b611306565b61a30d67a6f26c5cf2d0335f60c01b611306565b61a32167d0a7afc29d7066c160c01b611306565b600073ffffffffffffffffffffffffffffffffffffffff168373ffffffffffffffffffffffffffffffffffffffff160361a3af5761a36967d5c45265fc5f906060c01b611306565b61a37d67e1608922684cc99c60c01b611306565b6040517fd92e233d00000000000000000000000000000000000000000000000000000000815260040160405180910390fd5b61a3c367f8528f1d1f21121560c01b611306565b61a3d76771430030413ed0e760c01b611306565b61a3eb67ac2115d0b6f3ab1760c01b611306565b6000810361a44d5761a4076767318aa08f13b6cc60c01b611306565b61a41b67d6c45c056b32d24260c01b611306565b6040517f3ca0029d00000000000000000000000000000000000000000000000000000000815260040160405180910390fd5b61a46167697e1cff7a55420960c01b611306565b61a475679fd0cc59b92feedd60c01b611306565b61a48967d00715dcb5ce96c360c01b611306565b600061a4958484614b3c565b905061a4ab671d57a8a35ec84c1f60c01b611306565b61a4bf67bc84d02798df403260c01b611306565b8082111561a52e5761a4db67faf02a1e505728f560c01b611306565b61a4ef675a37db263cf9c2ab60c01b611306565b80826040517f2de4882100000000000000000000000000000000000000000000000000000000815260040161a52592919061ec30565b60405180910390fd5b61a54267a61ce92b4489b14760c01b611306565b61a556672d3a1e29c766aa5b60c01b611306565b61a56a674762e1b361521faa60c01b611306565b600082601460008773ffffffffffffffffffffffffffffffffffffffff1673ffffffffffffffffffffffffffffffffffffffff16815260200190815260200160002060008673ffffffffffffffffffffffffffffffffffffffff1673ffffffffffffffffffffffffffffffffffffffff1681526020019081526020016000205461a5f4919061eb69565b905061a60a67b0f3a99e0436bc2260c01b611306565b61a61e678c586e28df31978b60c01b611306565b60008473ffffffffffffffffffffffffffffffffffffffff168673ffffffffffffffffffffffffffffffffffffffff16148061a66a575061a66967ec26b36c0c71230460c01b61a2de565b5b801561a686575061a68567490ff878a43bc1df60c01b61a2d3565b5b61a69257600e5461a696565b600d545b905061a6ac679fe66957284cdfc860c01b611306565b61a6c067d8e32d762bf3dc1f60c01b611306565b6000821415801561a6d057508082105b1561a73e5761a6e9677f1437a44057338d60c01b611306565b61a6fd67d06d464738f6755160c01b611306565b8585856040517f9e612d5700000000000000000000000000000000000000000000000000000000815260040161a7359392919061ee9b565b60405180910390fd5b61a752672d1ba2fe4533e97260c01b611306565b61a76667f453cb20623b353660c01b611306565b61a77a6741849e24fa91c78960c01b611306565b8573ffffffffffffffffffffffffffffffffffffffff168573ffffffffffffffffffffffffffffffffffffffff161461a8c15761a7c167db571fdf833786fe60c01b611306565b61a7d5672bb4593f177a33fa60c01b611306565b61a7e967a6b407f23d8472db60c01b611306565b6000601e60009054906101000a900473ffffffffffffffffffffffffffffffffffffffff1673ffffffffffffffffffffffffffffffffffffffff1662535175886040518263ffffffff1660e01b815260040161a845919061e65c565b602060405180830381865afa15801561a862573d6000803e3d6000fd5b505050506040513d601f19601f8201168201806040525081019061a886919061ec09565b905061a89c67a880dbdf1f1968bd60c01b611306565b61a8b067eab9ccb17b3037c960c01b611306565b61a8bb87828861d68e565b5061a8d6565b61a8d5679407bb1f0fe84ee160c01b611306565b5b61a8ea679a6b54ac73169fa560c01b611306565b81601460008873ffffffffffffffffffffffffffffffffffffffff1673ffffffffffffffffffffffffffffffffffffffff16815260200190815260200160002060008773ffffffffffffffffffffffffffffffffffffffff1673ffffffffffffffffffffffffffffffffffffffff1681526020019081526020016000208190555061a97f67093a6fac533d78e960c01b611306565b61a993675ff4cf7609893a2f60c01b611306565b600061a99f87876150ab565b905061a9b56781a14753312c4e1b60c01b611306565b848110158061a9d4575061a9d367fdf6ba204b2f81b160c01b61a2de565b5b801561a9f0575061a9ef67c9aaf053a3e4072260c01b61a2d3565b5b61a9fb57600061aa08565b848161aa07919061eb69565b5b600c60008973ffffffffffffffffffffffffffffffffffffffff1673ffffffffffffffffffffffffffffffffffffffff16815260200190815260200160002060008873ffffffffffffffffffffffffffffffffffffffff1673ffffffffffffffffffffffffffffffffffffffff168152602001908152602001600020600060165481526020019081526020016000208190555061aaaf670d0bcfa79e51c84c60c01b611306565b84601c60008973ffffffffffffffffffffffffffffffffffffffff1673ffffffffffffffffffffffffffffffffffffffff168152602001908152602001600020600082825461aafe919061eb69565b9250508190555061ab1967a8efa7cde2d9c31d60c01b611306565b84601d600082825461ab2b919061eb69565b9250508190555061ab4667206da5c8ad0062b260c01b611306565b61ab5a671dd18e652e02b17e60c01b611306565b6000830361abad5761ab76671c6bfa9f814c00e560c01b611306565b61ab8a67aef62f9edc96e06760c01b611306565b61ab9e670c88ef5b112d89e660c01b611306565b61aba8878761c79f565b61abc2565b61abc1676f01223e4cadfe9960c01b611306565b5b61abd667b6ec0171cfbd3d9360c01b611306565b61abea67d982e4acb41ecef660c01b611306565b61abf38761bf5c565b50505050505050565b61ac1067f49b93bfc94230be60c01b611306565b61ac24674c352e7c99c65c6460c01b611306565b61ac3867d2e4853cd06ea83560c01b611306565b600073ffffffffffffffffffffffffffffffffffffffff168373ffffffffffffffffffffffffffffffffffffffff160361acc65761ac8067c4e90cb693a8658260c01b611306565b61ac9467feda06b6a1f67f5d60c01b611306565b6040517fd92e233d00000000000000000000000000000000000000000000000000000000815260040160405180910390fd5b61acda676702a1af63ce545660c01b611306565b61acee67e1e6b4b924248d5160c01b611306565b61ad026736576c509eee531d60c01b611306565b6000601e60009054906101000a900473ffffffffffffffffffffffffffffffffffffffff1673ffffffffffffffffffffffffffffffffffffffff1662535175856040518263ffffffff1660e01b815260040161ad5e919061e65c565b602060405180830381865afa15801561ad7b573d6000803e3d6000fd5b505050506040513d601f19601f8201168201806040525081019061ad9f919061ec09565b905061adb567297b12b49456c5c460c01b611306565b61adc96714e6887508f619a460c01b611306565b600073ffffffffffffffffffffffffffffffffffffffff168173ffffffffffffffffffffffffffffffffffffffff160361ae625761ae11677f32b553ebb3619960c01b611306565b61ae25674bc2c02e8e67c24960c01b611306565b836040517f4ce08c3200000000000000000000000000000000000000000000000000000000815260040161ae59919061e65c565b60405180910390fd5b61ae7667fd94ebc75e41c29260c01b611306565b61ae8a67dd9d3efe6d6fe14960c01b611306565b61ae9e67eb0f5f2accdf8e9260c01b611306565b6000820361af0d5761aeba67a5f21c5229326c7960c01b611306565b61aece67405b3afe52c7ab5b60c01b611306565b83836040517fe59f5c3900000000000000000000000000000000000000000000000000000000815260040161af0492919061ecb7565b60405180910390fd5b61af2167aab9aa8e1ec9d12560c01b611306565b61af356713dbf6cf5b7e982d60c01b611306565b61af4967f264dd537f614df960c01b611306565b602060008573ffffffffffffffffffffffffffffffffffffffff1673ffffffffffffffffffffffffffffffffffffffff16815260200190815260200160002060009054906101000a900460ff161561b0005761afaf678c051ff05c6c047b60c01b611306565b61afc3672c7ffda109bea2cb60c01b611306565b836040517f78137eb000000000000000000000000000000000000000000000000000000000815260040161aff7919061e65c565b60405180910390fd5b61b01467308d048e751ce8ec60c01b611306565b61b028673ff6c6f1d7e2bc4160c01b611306565b61b03c67b1ad51a52997740660c01b611306565b60008473ffffffffffffffffffffffffffffffffffffffff168473ffffffffffffffffffffffffffffffffffffffff1614905061b08367eb66540618e196c360c01b611306565b61b09767597bacefd3f5434260c01b611306565b600083601460008873ffffffffffffffffffffffffffffffffffffffff1673ffffffffffffffffffffffffffffffffffffffff16815260200190815260200160002060008773ffffffffffffffffffffffffffffffffffffffff1673ffffffffffffffffffffffffffffffffffffffff1681526020019081526020016000205461b121919061e96d565b905061b137677812f6d00259006060c01b611306565b61b14b67f9f7ee9a31d4a22260c01b611306565b600061b161672dba62c067040a3660c01b611306565b61b17567c1d03a6b72bdf8a460c01b611306565b821561b1ad5761b18f679f8981e981b7a33560c01b611306565b61b1a367279c7985fc7dacba60c01b611306565b600d54905061b300565b61b1c167ecb907689b3ffdc360c01b611306565b61b1d56772a417a1f414acfa60c01b611306565b600e54905061b1ee67888195b3198a4a1660c01b611306565b61b2026762997992a11fd22060c01b611306565b6000601460008973ffffffffffffffffffffffffffffffffffffffff1673ffffffffffffffffffffffffffffffffffffffff16815260200190815260200160002060008973ffffffffffffffffffffffffffffffffffffffff1673ffffffffffffffffffffffffffffffffffffffff168152602001908152602001600020540361b2eb5761b29a67cd351bcc2367803160c01b611306565b61b2ae67b46ec3f67628d70360c01b611306565b866040517fcbbeb0bd00000000000000000000000000000000000000000000000000000000815260040161b2e2919061e65c565b60405180910390fd5b61b2ff67f45b6cf51b4b6ad560c01b611306565b5b61b314674ff19ac36191ce9660c01b611306565b61b327662133a1642c196260c01b611306565b8082101561b3965761b34367847a4df591b34e9060c01b611306565b61b35767c9165c32a73b575c60c01b611306565b86866040517fe59f5c3900000000000000000000000000000000000000000000000000000000815260040161b38d92919061ecb7565b60405180910390fd5b61b3aa67445ecd8fba959d3a60c01b611306565b61b3be67a72aa08e960ab59e60c01b611306565b61b3d267c6977108ea2e00ee60c01b611306565b600f5485601c60008a73ffffffffffffffffffffffffffffffffffffffff1673ffffffffffffffffffffffffffffffffffffffff1681526020019081526020016000205461b420919061e96d565b111561b48d5761b43a67c7e6435f73d1000a60c01b611306565b61b44e67dc24481dc6f5f14060c01b611306565b86866040517fb0ac5d0400000000000000000000000000000000000000000000000000000000815260040161b48492919061ecb7565b60405180910390fd5b61b4a167816c5ac772f3923d60c01b611306565b61b4b5670cac190876a2cd3c60c01b611306565b84600c60008973ffffffffffffffffffffffffffffffffffffffff1673ffffffffffffffffffffffffffffffffffffffff16815260200190815260200160002060008873ffffffffffffffffffffffffffffffffffffffff1673ffffffffffffffffffffffffffffffffffffffff16815260200190815260200160002060006016548152602001908152602001600020600082825461b554919061e96d565b9250508190555061b56f67d2a02d8c90bfd24360c01b611306565b84601c60008973ffffffffffffffffffffffffffffffffffffffff1673ffffffffffffffffffffffffffffffffffffffff168152602001908152602001600020600082825461b5be919061e96d565b9250508190555061b5d9677814c23008925de860c01b611306565b84601d600082825461b5eb919061e96d565b9250508190555061b6066721ca25bc3146755160c01b611306565b61b61a67dd5277b38780b3bd60c01b611306565b821561b66c5761b634670f4572eeefdda8b660c01b611306565b61b6486797017e32d945bb1260c01b611306565b61b65c671dfc37692b4995fb60c01b611306565b61b667876001619c66565b61b6e6565b61b6806781cf7d3545557bf960c01b611306565b61b6946764d5c1a8689f032d60c01b611306565b61b6a8673c020354b8d09a3460c01b611306565b61b6b2878761c265565b61b6c667dae010a9839d11d960c01b611306565b61b6da678d75036e4b69d56f60c01b611306565b61b6e587858861d68e565b5b61b6fa676f4f3dd11cb629cd60c01b611306565b81601460008973ffffffffffffffffffffffffffffffffffffffff1673ffffffffffffffffffffffffffffffffffffffff16815260200190815260200160002060008873ffffffffffffffffffffffffffffffffffffffff1673ffffffffffffffffffffffffffffffffffffffff1681526020019081526020016000208190555061b78f6775d29ed46bd9a9b060c01b611306565b61b7a3675dd06ec8aaa53b8a60c01b611306565b61b7ac8761bf5c565b50505050505050565b50565b600061b7ce6713c1890f1af78cd760c01b611306565b61b7e2678264dc9153bf556c60c01b611306565b61b7f667ecf853904b7a308060c01b611306565b6000601c60008473ffffffffffffffffffffffffffffffffffffffff1673ffffffffffffffffffffffffffffffffffffffff1681526020019081526020016000205414801561b88457506000601160008473ffffffffffffffffffffffffffffffffffffffff1673ffffffffffffffffffffffffffffffffffffffff16815260200190815260200160002054145b9050919050565b600061b8b3836000018373ffffffffffffffffffffffffffffffffffffffff1660001b61dad1565b905092915050565b61b8cf67047a1b78af0071e660c01b611306565b61b8e367079f4da4c9fad50060c01b611306565b61b8f76721ec3ca0b2ee922460c01b611306565b61b94881600a60008573ffffffffffffffffffffffffffffffffffffffff1673ffffffffffffffffffffffffffffffffffffffff16815260200190815260200160002061b88b90919063ffffffff16565b5061b95d67ffb7245e8eaead2360c01b611306565b61b97167a282089c49dfa73b60c01b611306565b6000601060008473ffffffffffffffffffffffffffffffffffffffff1673ffffffffffffffffffffffffffffffffffffffff16815260200190815260200160002060008373ffffffffffffffffffffffffffffffffffffffff1673ffffffffffffffffffffffffffffffffffffffff168152602001908152602001600020541461ba405761ba096732e908fd1aad489560c01b611306565b61ba1d6793a01270e9ed177960c01b611306565b61ba3167844549537285505260c01b611306565b61ba3b828261dbe5565b61ba87565b61ba54671b4da504649caf4360c01b611306565b61ba6867ce4f33ad0194592960c01b611306565b61ba7c67600ddf2c4cdbea7b60c01b611306565b61ba86828261dc77565b5b5050565b61ba9f67dfdfeb7a55abce6160c01b61dd09565b61bab36761f3f0049f1c7d9e60c01b61dd09565b61bac7673a2d11865c82ba6260c01b61dd09565b8047101561bb295761bae3673e3cc30fadd86a0b60c01b61dd09565b61baf76714768395b3bcd0e960c01b61dd09565b6040517ff4d678b800000000000000000000000000000000000000000000000000000000815260040160405180910390fd5b61bb3d6792aabfcece04644660c01b61dd09565b61bb5167508cd9553768724a60c01b61dd09565b61bb656731c29fce7419230760c01b61dd09565b60008273ffffffffffffffffffffffffffffffffffffffff168260405161bb8b9061eed4565b60006040518083038185875af1925050503d806000811461bbc8576040519150601f19603f3d011682016040523d82523d6000602084013e61bbcd565b606091505b5050905061bbe56765d3253b7b3dc27260c01b61dd09565b61bbf967d80fb7d1a14a129760c01b61dd09565b8061bc655761bc1267d38149d84994225960c01b61dd09565b61bc26677f1dcc6df667d61d60c01b61dd09565b82826040517f1c43b97600000000000000000000000000000000000000000000000000000000815260040161bc5c92919061eb87565b60405180910390fd5b61bc796727f915e38bffa7d360c01b61dd09565b505050565b600061bc94674cabd9803e2a2b0260c01b611306565b61bca867eaa32d088120bcec60c01b611306565b61bcbc675f737675bda474e860c01b611306565b6000840361bd095761bcd8670f4f9d21a0df614d60c01b611306565b61bcec67cd68fc5f00476e4c60c01b611306565b61bd0067dd30879e7b753e6a60c01b611306565b6000905061bf55565b61bd1d676e3b5d68524f612a60c01b611306565b61bd3167f74c414b55c5eeba60c01b611306565b61bd45673070ab2a0eb1edfd60c01b611306565b83602460008573ffffffffffffffffffffffffffffffffffffffff1673ffffffffffffffffffffffffffffffffffffffff16815260200190815260200160002060008473ffffffffffffffffffffffffffffffffffffffff1673ffffffffffffffffffffffffffffffffffffffff168152602001908152602001600020540361be995761bddc67bc4f2b1f3cb0448360c01b611306565b61bdf06778710004a419648060c01b611306565b61be04675d089e430193997d60c01b611306565b602360008473ffffffffffffffffffffffffffffffffffffffff1673ffffffffffffffffffffffffffffffffffffffff16815260200190815260200160002060008373ffffffffffffffffffffffffffffffffffffffff1673ffffffffffffffffffffffffffffffffffffffff168152602001908152602001600020600085815260200190815260200160002054905061bf55565b61bead679aeaef37fbd3574260c01b611306565b61bec167a182055d41373acd60c01b611306565b61bed5673edf685547c32b2b60c01b611306565b601460008473ffffffffffffffffffffffffffffffffffffffff1673ffffffffffffffffffffffffffffffffffffffff16815260200190815260200160002060008373ffffffffffffffffffffffffffffffffffffffff1673ffffffffffffffffffffffffffffffffffffffff1681526020019081526020016000205490505b9392505050565b61bf7067f6de9970440f6bc760c01b611306565b61bf8467e1f6ffefaa53081860c01b611306565b61bf98675adb88588f8e3d4b60c01b611306565b6000601e60009054906101000a900473ffffffffffffffffffffffffffffffffffffffff1673ffffffffffffffffffffffffffffffffffffffff1662535175836040518263ffffffff1660e01b815260040161bff4919061e65c565b602060405180830381865afa15801561c011573d6000803e3d6000fd5b505050506040513d601f19601f8201168201806040525081019061c035919061ec09565b905061c04b673a9d81277e6f28b260c01b611306565b61c05f67fb9429dc01e8c82e60c01b611306565b6000602560009054906101000a900473ffffffffffffffffffffffffffffffffffffffff1673ffffffffffffffffffffffffffffffffffffffff1663e5079ddc836040518263ffffffff1660e01b815260040161c0bc919061e65c565b602060405180830381865afa15801561c0d9573d6000803e3d6000fd5b505050506040513d601f19601f8201168201806040525081019061c0fd919061eede565b905061c1136787da804ab5e55ca760c01b611306565b61c12767dfb6e0f034a2fe8660c01b611306565b61c131838261c557565b505050565b600061c14061c20d565b905060008160000160009054906101000a900473ffffffffffffffffffffffffffffffffffffffff169050828260000160006101000a81548173ffffffffffffffffffffffffffffffffffffffff021916908373ffffffffffffffffffffffffffffffffffffffff1602179055508273ffffffffffffffffffffffffffffffffffffffff168173ffffffffffffffffffffffffffffffffffffffff167f8be0079c531659141344cd1fd0a4f28419497f9722a3daafe3b4186f6b6457e060405160405180910390a3505050565b60007f9016d09d72d40fdae2fd8ceac6b6234c7706214fd39c1cd1e609a0528c199300905090565b600061c25d836000018373ffffffffffffffffffffffffffffffffffffffff1660001b61dd0c565b905092915050565b61c279670d94714e1b62b2c160c01b611306565b61c28d677271e018848f3a7660c01b611306565b61c2a167b52f0c03424f9e7260c01b611306565b61c2f281600a60008573ffffffffffffffffffffffffffffffffffffffff1673ffffffffffffffffffffffffffffffffffffffff16815260200190815260200160002061cc3490919063ffffffff16565b5061c3076768c6ab8ab8ac89c860c01b611306565b61c31b67d468008b99bc4e5860c01b611306565b61c325828261dc77565b5050565b600061c33f679e1fb7c1345f6d7560c01b61b7b5565b61c353676a464d35bf2f530e60c01b61b7b5565b61c36767bf3100cc1e8b9dfe60c01b61b7b5565b600082604051602401604051602081830303815290604052907bffffffffffffffffffffffffffffffffffffffffffffffffffffffff19166020820180517bffffffffffffffffffffffffffffffffffffffffffffffffffffffff8381831617835250505050905061c3e36796628452cad12c7f60c01b61b7b5565b61c3f7675ab273453a552a6660c01b61b7b5565b6000803073ffffffffffffffffffffffffffffffffffffffff168360405161c41f919061eefa565b600060405180830381855afa9150503d806000811461c45a576040519150601f19603f3d011682016040523d82523d6000602084013e61c45f565b606091505b509150915061c47867ddcfe0b4c19fd84c60c01b61b7b5565b61c48c67a914dc00efc72af160c01b61b7b5565b8161c4eb5761c4a567cc0b2dfba033c08760c01b61b7b5565b61c4b9673b33da3d059e2f5160c01b61b7b5565b6040517fbf75613600000000000000000000000000000000000000000000000000000000815260040160405180910390fd5b61c4ff670c45fced65fbfda160c01b61b7b5565b61c5136783c55538565e133160c01b61b7b5565b61c527671651102527c6e0d860c01b61b7b5565b8080602001905181019061c53b919061eede565b9350505050919050565b6000919050565b600060019050919050565b61c56b67eca7224c3e5cad3360c01b611306565b61c57f67567032d7efe3957d60c01b611306565b61c593672960ae717447627660c01b611306565b60008061c59f8461dd2f565b9150915061c5b767c080ba0ec5f649fd60c01b611306565b61c5cb6733499bb24e9a346660c01b611306565b8161c5ff5761c5e467de7de02db33750a060c01b611306565b61c5f867337f05b357666d4660c01b611306565b505061c744565b61c613677e89bd72663a722f60c01b611306565b61c62767cfbc4725e8890b7c60c01b611306565b61c63b6774dc84cb421d35a060c01b611306565b60006008828154811061c6515761c65061e957565b5b9060005260206000200154905061c67267be31cb26fda55c8160c01b611306565b61c686671cc5cbfa07e3e57d60c01b611306565b600084601c60008873ffffffffffffffffffffffffffffffffffffffff1673ffffffffffffffffffffffffffffffffffffffff1681526020019081526020016000205461c6d3919061e935565b905061c6e967a45d0590ba5f0e8960c01b611306565b806008848154811061c6fe5761c6fd61e957565b5b906000526020600020018190555061c72067914d6d0ba62840f260c01b611306565b808260095461c72f919061eb69565b61c739919061e96d565b600981905550505050505b5050565b600061c75261ded4565b9050600281600001540361c792576040517f3ee5aeb500000000000000000000000000000000000000000000000000000000815260040160405180910390fd5b6002816000018190555050565b61c7b3672626ccaf102ce45460c01b611306565b61c7c7675376dc9b719d497e60c01b611306565b61c7db67a5b2e0d1600a65eb60c01b611306565b8173ffffffffffffffffffffffffffffffffffffffff168173ffffffffffffffffffffffffffffffffffffffff160361ca485761c82267e5fa5c648a5518d360c01b611306565b61c836678c09c4fe520bf1f760c01b611306565b61c84a67abc0a437f57dc19260c01b611306565b6000601e60009054906101000a900473ffffffffffffffffffffffffffffffffffffffff1673ffffffffffffffffffffffffffffffffffffffff1662535175846040518263ffffffff1660e01b815260040161c8a6919061e65c565b602060405180830381865afa15801561c8c3573d6000803e3d6000fd5b505050506040513d601f19601f8201168201806040525081019061c8e7919061ec09565b905061c8fd6773c4840ae7d1653a60c01b611306565b61c91167239bbde3e756bc5860c01b611306565b601e60009054906101000a900473ffffffffffffffffffffffffffffffffffffffff1673ffffffffffffffffffffffffffffffffffffffff1663facd743b826040518263ffffffff1660e01b815260040161c96c919061e65c565b602060405180830381865afa15801561c989573d6000803e3d6000fd5b505050506040513d601f19601f8201168201806040525081019061c9ad919061ebb5565b1561c9fc5761c9c667b17cd2a2cdc360c060c01b611306565b61c9da674c07e71a8e1d0cf460c01b611306565b61c9ee67314d0e083aea854260c01b611306565b61c9f783619e96565b61ca42565b61ca1067609dcfc0197e504060c01b611306565b61ca246712d11dc751e9368a60c01b611306565b61ca386762a7223790f7bd3360c01b611306565b61ca418361a0c4565b5b5061cb30565b61ca5c67f0fa161ee85479aa60c01b611306565b61ca7067e502711f36447e9060c01b611306565b61ca84674bbb1d9615490dc360c01b611306565b61ca8e828261b8bb565b61caa267b835ace99d24ad4960c01b611306565b61cab6673e296d6f30b9ba3560c01b611306565b61cabf8261b7b8565b1561cb1a5761cad86737db9f4ebb90fe1a60c01b611306565b61caec677faaf48af88edf5860c01b611306565b61cb006768cf1925990804b060c01b611306565b61cb1482600361b88b90919063ffffffff16565b5061cb2f565b61cb2e6754881e053ab52cf460c01b611306565b5b5b5050565b600061cb3e61ded4565b90506001816000018190555050565b61cb5561defc565b61cb8b576040517fd7e6bcf800000000000000000000000000000000000000000000000000000000815260040160405180910390fd5b565b61cb9561cb4d565b600073ffffffffffffffffffffffffffffffffffffffff168173ffffffffffffffffffffffffffffffffffffffff160361cc075760006040517f1e4fbdf700000000000000000000000000000000000000000000000000000000815260040161cbfe919061e65c565b60405180910390fd5b61cc108161c136565b50565b61cc1b61cb4d565b600061cc2561ded4565b90506001816000018190555050565b600061cc5c836000018373ffffffffffffffffffffffffffffffffffffffff1660001b61df1c565b905092915050565b600061cc7a673a68057192392c8560c01b611306565b61cc8e67035fd7856d34662260c01b611306565b61cca2679e95c19c3ab2179060c01b611306565b610bb8905090565b600061ccb88260000161df8c565b9050919050565b61ccd367a0b82fe2e2d345e960c01b611306565b61cce767288c2d0a64cd8f4d60c01b611306565b61ccfb670449f76839a35f3c60c01b611306565b6000601360008373ffffffffffffffffffffffffffffffffffffffff1673ffffffffffffffffffffffffffffffffffffffff16815260200190815260200160002054905061cd5266a0101d06f5930460c01b611306565b61cd666724e8f4ed8395a12460c01b611306565b6000600780549050905061cd84676c2d41b57d673c1b60c01b611306565b61cd9867480268fa993786a160c01b611306565b80821015801561cdb8575061cdb767c2cd5265e908c2c860c01b61a2d3565b5b8061ce4957508273ffffffffffffffffffffffffffffffffffffffff166007838154811061cde95761cde861e957565b5b9060005260206000200160009054906101000a900473ffffffffffffffffffffffffffffffffffffffff1673ffffffffffffffffffffffffffffffffffffffff161415801561ce48575061ce4767541515ce91936b1f60c01b61a2d3565b5b5b1561cf9c5761ce626773b0b0d9c9f01af760c01b611306565b61ce76671f359c1a4057ae9c60c01b611306565b80601360008573ffffffffffffffffffffffffffffffffffffffff1673ffffffffffffffffffffffffffffffffffffffff1681526020019081526020016000208190555061cece671ef55aa52a87dc8b60c01b611306565b61cee2672287f41fa5c60b7160c01b611306565b6007839080600181540180825580915050600190039060005260206000200160009091909190916101000a81548173ffffffffffffffffffffffffffffffffffffffff021916908373ffffffffffffffffffffffffffffffffffffffff16021790555061cf596781e07e6355c1a4be60c01b611306565b61cf6d672e46b1da4dfc963c60c01b611306565b60086000908060018154018082558091505060019003906000526020600020016000909190919091505561cfb1565b61cfb0675a879bd44a1fe26460c01b611306565b5b61cfc567f0bba2b145451b1160c01b611306565b61cfd9670eaa87ca18a67c5660c01b611306565b61cfe28361d633565b505050565b61cffb67fef9225c9b89e6d160c01b611306565b61d00f676b7cf579db3b249e60c01b611306565b61d023670f8b3c50fa4540d660c01b611306565b6008805490506007805490501461d0615761d04867dd94cf4ce4fc2b1160c01b611306565b61d05c67501c0ed682d034ab60c01b611306565b61d580565b61d07567a833c09238aaaa7360c01b611306565b61d0896774194320b341a9eb60c01b611306565b61d09d67545d30030feddd7e60c01b611306565b6000601360008373ffffffffffffffffffffffffffffffffffffffff1673ffffffffffffffffffffffffffffffffffffffff16815260200190815260200160002054905061d0f567b05035dde0f0259060c01b611306565b61d10967606b84953d49652260c01b611306565b8060078054905011801561d18657508173ffffffffffffffffffffffffffffffffffffffff166007828154811061d1435761d14261e957565b5b9060005260206000200160009054906101000a900473ffffffffffffffffffffffffffffffffffffffff1673ffffffffffffffffffffffffffffffffffffffff16145b1561d5695761d19f67405cc8e50ec6bb6a60c01b611306565b61d1b3679270a507939f6dea60c01b611306565b61d1c7671079666292e8ce6060c01b611306565b6008818154811061d1db5761d1da61e957565b5b90600052602060002001546009541061d2525761d20267f529c1128eb1d1ea60c01b611306565b61d216670ec0b68cc04e0c6660c01b611306565b6008818154811061d22a5761d22961e957565b5b90600052602060002001546009600082825461d246919061eb69565b9250508190555061d283565b61d26667e70d89492d76ba8c60c01b611306565b61d27a67dc862b863b3f4ee760c01b611306565b60006009819055505b61d2976794d7738115441fe360c01b611306565b61d2ab6799286f9d699b1ef860c01b611306565b6000600160078054905061d2bf919061eb69565b905061d2d567342242f0d969e26560c01b611306565b61d2e96798b81151c13536e460c01b611306565b60006007828154811061d2ff5761d2fe61e957565b5b9060005260206000200160009054906101000a900473ffffffffffffffffffffffffffffffffffffffff16905061d3406718cc5e247104454260c01b611306565b806007848154811061d3555761d35461e957565b5b9060005260206000200160006101000a81548173ffffffffffffffffffffffffffffffffffffffff021916908373ffffffffffffffffffffffffffffffffffffffff16021790555061d3b167939b66d1d150351260c01b611306565b6008828154811061d3c55761d3c461e957565b5b90600052602060002001546008848154811061d3e45761d3e361e957565b5b906000526020600020018190555061d406673b94f71c08829a5e60c01b611306565b82601360008373ffffffffffffffffffffffffffffffffffffffff1673ffffffffffffffffffffffffffffffffffffffff1681526020019081526020016000208190555061d45e67a8bee9979f55279360c01b611306565b6000601360008673ffffffffffffffffffffffffffffffffffffffff1673ffffffffffffffffffffffffffffffffffffffff1681526020019081526020016000208190555061d4b7674c87115b01c7666b60c01b611306565b61d4cb670554c7a2066499b360c01b611306565b600780548061d4dd5761d4dc61ef18565b5b6001900381819060005260206000200160006101000a81549073ffffffffffffffffffffffffffffffffffffffff0219169055905561d526671bce4bdccbb25fec60c01b611306565b61d53a679c469867bf17938360c01b611306565b600880548061d54c5761d54b61ef18565b5b60019003818190600052602060002001600090559055505061d57e565b61d57d6732685e56d81e797860c01b611306565b5b505b50565b60608160000180548060200260200160405190810160405280929190818152602001828054801561d5d357602002820191906000526020600020905b81548152602001906001019080831161d5bf575b50505050509050919050565b61d5f3677d50b1db6cb2a9c360c01b611306565b61d6076716fd80480fcf531560c01b611306565b61d61b67c378c4b6a48db5eb60c01b611306565b61d62f81600361cc3490919063ffffffff16565b5050565b61d64767e625f7c4e85082fe60c01b611306565b61d65b6727231056799b1c3a60c01b611306565b61d66e66660f0e7297efc560c01b611306565b61d68281600561b88b90919063ffffffff16565b5050565b600033905090565b61d6a26757d19862d9e9df7060c01b611306565b61d6b667e1f94e845b2ea3c460c01b611306565b61d6ca67a8aa1a55ac7cb32560c01b611306565b601e60009054906101000a900473ffffffffffffffffffffffffffffffffffffffff1673ffffffffffffffffffffffffffffffffffffffff1663a0d16cad836040518263ffffffff1660e01b815260040161d725919061e65c565b602060405180830381865afa15801561d742573d6000803e3d6000fd5b505050506040513d601f19601f8201168201806040525081019061d766919061ebb5565b15801561d783575061d78267e9fde41fb6d02ff360c01b61a2d3565b5b8061d7ac5750600060165414801561d7ab575061d7aa67245900fba7aa472960c01b61a2d3565b5b5b1561d7f25761d7c567de864fea88bf473260c01b611306565b61d7d967a531a40b4e8fbe9060c01b611306565b61d7ed673bde6fd0810a390d60c01b611306565b61dacc565b61d806673e8473f217e0459260c01b611306565b61d81a67e9289e418625782060c01b611306565b61d82e672ee4adc55bf1e61660c01b611306565b6000602460008573ffffffffffffffffffffffffffffffffffffffff1673ffffffffffffffffffffffffffffffffffffffff16815260200190815260200160002060008373ffffffffffffffffffffffffffffffffffffffff1673ffffffffffffffffffffffffffffffffffffffff16815260200190815260200160002054905061d8c36754e5b2d6ed19b2d860c01b611306565b61d8d7671099078ede13327160c01b611306565b60165481101561dab55761d8f5676430dac5639c8b3a60c01b611306565b61d9096757ab26a21923c6c460c01b611306565b601460008573ffffffffffffffffffffffffffffffffffffffff1673ffffffffffffffffffffffffffffffffffffffff16815260200190815260200160002060008373ffffffffffffffffffffffffffffffffffffffff1673ffffffffffffffffffffffffffffffffffffffff16815260200190815260200160002054602360008673ffffffffffffffffffffffffffffffffffffffff1673ffffffffffffffffffffffffffffffffffffffff16815260200190815260200160002060008473ffffffffffffffffffffffffffffffffffffffff1673ffffffffffffffffffffffffffffffffffffffff168152602001908152602001600020600060165481526020019081526020016000208190555061da2d67cc0f06b42fb9e0e360c01b611306565b601654602460008673ffffffffffffffffffffffffffffffffffffffff1673ffffffffffffffffffffffffffffffffffffffff16815260200190815260200160002060008473ffffffffffffffffffffffffffffffffffffffff1673ffffffffffffffffffffffffffffffffffffffff1681526020019081526020016000208190555061daca565b61dac96726d432bc212ab47c60c01b611306565b5b505b505050565b6000808360010160008481526020019081526020016000205490506000811461dbd957600060018261db03919061eb69565b905060006001866000018054905061db1b919061eb69565b905080821461db8a57600086600001828154811061db3c5761db3b61e957565b5b906000526020600020015490508087600001848154811061db605761db5f61e957565b5b90600052602060002001819055508387600101600083815260200190815260200160002081905550505b8560000180548061db9e5761db9d61ef18565b5b60019003818190600052602060002001600090559055856001016000868152602001908152602001600020600090556001935050505061dbdf565b60009150505b92915050565b61dbf967982c6d4800421d0360c01b611306565b61dc0d67d2bc78658c0ea1a260c01b611306565b61dc21678598c72d9b45e68b60c01b611306565b61dc7281600b60008573ffffffffffffffffffffffffffffffffffffffff1673ffffffffffffffffffffffffffffffffffffffff16815260200190815260200160002061cc3490919063ffffffff16565b505050565b61dc8b6799187e550e6c909c60c01b611306565b61dc9f675ed3e48c987e57ca60c01b611306565b61dcb367ea31afaf77ca90e260c01b611306565b61dd0481600b60008573ffffffffffffffffffffffffffffffffffffffff1673ffffffffffffffffffffffffffffffffffffffff16815260200190815260200160002061b88b90919063ffffffff16565b505050565b50565b600080836001016000848152602001908152602001600020541415905092915050565b60008061dd4667c76b5fc2b474688260c01b611306565b61dd5a67ca4ca0a443db659f60c01b611306565b601360008473ffffffffffffffffffffffffffffffffffffffff1673ffffffffffffffffffffffffffffffffffffffff16815260200190815260200160002054905061ddb067d0d643c61a412cdd60c01b611306565b61ddc4675c2109b27fb7c8fa60c01b611306565b8060078054905011801561de4157508273ffffffffffffffffffffffffffffffffffffffff166007828154811061ddfe5761ddfd61e957565b5b9060005260206000200160009054906101000a900473ffffffffffffffffffffffffffffffffffffffff1673ffffffffffffffffffffffffffffffffffffffff16145b1561de8b5761de5a67458d8c351a24409660c01b611306565b61de6e6762944668bdcf61c060c01b611306565b61de82673c0dc36a4d8c7cc260c01b611306565b6001915061decf565b61de9f672cb7153677479cb460c01b611306565b61deb367df8e343aef04e1f960c01b611306565b61dec767ffd13a22adc92e8d60c01b611306565b600080915091505b915091565b60007f9b779b17422d0df92223018b32b4d1fa46e071723d6817e2486d003becc55f00905090565b600061df06619652565b60000160089054906101000a900460ff16905090565b600061df28838361dd0c565b61df8157826000018290806001815401808255809150506001900390600052602060002001600090919091909150558260000180549050836001016000848152602001908152602001600020819055506001905061df86565b600090505b92915050565b600081600001805490509050919050565b82805482825590600052602060002090810192821561dfd9579160200282015b8281111561dfd857825182559160200191906001019061dfbd565b5b50905061dfe6919061e044565b5090565b508054600082559060005260206000209081019061e008919061e044565b50565b604051806040016040528060007bffffffffffffffffffffffffffffffffffffffffffffffffffffffff19168152602001606081525090565b5b8082111561e05d57600081600090555060010161e045565b5090565b600060208201905082825292915050565b73ffffffffffffffffffffffffffffffffffffffff8116811461e09457600080fd5b50565b60008083601f84011261e0a957600080fd5b8235905067ffffffffffffffff81111561e0c257600080fd5b6020830191508360208260051b850101111561e0dd57600080fd5b9250929050565b6000806000806000806080878903121561e0fd57600080fd5b863561e1088161e072565b80965050602087013567ffffffffffffffff8082111561e12757600080fd5b8189019150610120828b03121561e13d57600080fd5b819650604089013591508082111561e15457600080fd5b61e1608a838b0161e097565b925080965050819450606089013591508082111561e17d57600080fd5b5061e18a89828a0161e097565b915080935050809150509295509295509295565b600060208201905073ffffffffffffffffffffffffffffffffffffffff8316825292915050565b6000806040838503121561e1d857600080fd5b82359150602083013561e1ea8161e072565b809150509250929050565b60006020828403121561e20757600080fd5b813561e2128161e072565b8091505092915050565b60006040820190506fffffffffffffffffffffffffffffffff198416825261ffff60f01b831660208301529392505050565b60006020828403121561e26057600080fd5b8135905092915050565b60008060006060848603121561e27f57600080fd5b833561e28a8161e072565b80935050602084013561e29c8161e072565b80925050604084013590509250925092565b6000602082019050821515825292915050565b6000806040838503121561e2d457600080fd5b823561e2df8161e072565b80925050602083013590509250929050565b60008135905063ffffffff60e01b8116811461e30c57600080fd5b919050565b6000806000806060858703121561e32757600080fd5b61e3308561e2f1565b935061e33e6020860161e2f1565b9250604085013567ffffffffffffffff81111561e35a57600080fd5b61e3668782880161e097565b9150809350508091505092959194509250565b60005b8381101561e39757808201518184015260208101905061e37c565b50600083830152505050565b6000815180845261e3bb81602086016020860161e379565b6020601f19601f83011685010191505092915050565b60208152600061e3e4602083018461e3a3565b905092915050565b60008083601f84011261e3fe57600080fd5b8235905067ffffffffffffffff81111561e41757600080fd5b60208301915083602082850101111561e42f57600080fd5b9250929050565b6000813590506fffffffffffffffffffffffffffffffff198116811461e45b57600080fd5b919050565b6000806000806060858703121561e47657600080fd5b843561e4818161e072565b80945050602085013567ffffffffffffffff81111561e49f57600080fd5b61e4ab8782880161e3ec565b9150809450508092505061e4c16040860161e436565b905092959194509250565b600060208083016020845280855180835260408601915060208701925060005b8181101561e5235773ffffffffffffffffffffffffffffffffffffffff84511683528483019250848401935060018101905061e4ec565b505080935050505092915050565b6000806040838503121561e54457600080fd5b823561e54f8161e072565b80925050602083013561e5618161e072565b809150509250929050565b60008135905061ffff60f01b8116811461e58557600080fd5b919050565b60008060006060848603121561e59f57600080fd5b833561e5aa8161e072565b8093505061e5ba6020850161e436565b915061e5c86040850161e56c565b90509250925092565b60006020828403121561e5e357600080fd5b61e5ec8261e2f1565b905092915050565b6000806000806060858703121561e60a57600080fd5b843567ffffffffffffffff81111561e62157600080fd5b61e62d8782880161e3ec565b9150809550508093505061e6436020860161e436565b915061e6516040860161e56c565b905092959194509250565b600060208201905073ffffffffffffffffffffffffffffffffffffffff8316825292915050565b600060208201905063ffffffff60e01b8316825292915050565b60008151808452602080850194506020840160005b8381101561e6d357815187528287019650828201915060018101905061e6b2565b5050505082905092915050565b60408152600061e6f3604083018561e69d565b90508260208301529392505050565b60608152600061e715606083018661e3a3565b90506fffffffffffffffffffffffffffffffff198416602083015261ffff60f01b83166040830152949350505050565b6000806040838503121561e75857600080fd5b823561e7638161e072565b80925050602083013590509250929050565b634e487b7160e01b600052604160045260246000fd5b60006020828403121561e79d57600080fd5b813567ffffffffffffffff8082111561e7b557600080fd5b818401915084601f83011261e7c957600080fd5b81358181111561e7dc5761e7db61e775565b5b601f1960405181603f83601f860116011681019150808210848311171561e8065761e80561e775565b5b8160405282815287602084870101111561e81f57600080fd5b82602086016020830137600060208483010152809550505050505092915050565b6020815263ffffffff60e01b82511660208201526000602083015160408084015261e86e606084018261e69d565b91505092915050565b6000806040838503121561e88a57600080fd5b61e8938361e2f1565b9150602083013590509250929050565b600060208201905073ffffffffffffffffffffffffffffffffffffffff8316825292915050565b6000808335601e1984360301811261e8e157600080fd5b80840190508035915067ffffffffffffffff82111561e8ff57600080fd5b602081019250508060051b360382131561e91857600080fd5b9250929050565b634e487b7160e01b600052601160045260246000fd5b60008282029050818104831482151761e9515761e95061e91f565b5b92915050565b634e487b7160e01b600052603260045260246000fd5b600082820190508082111561e9855761e98461e91f565b5b92915050565b82815281602082015260006040820190509392505050565b60008160011c9050600182168061e9bb57607f821691505b60208210810361e9db57634e487b7160e01b600052602260045260246000fd5b50919050565b806000525060006020600020905090565b601f82111561ea42576000816000526020600020601f850160051c8101602086101561ea1c578190505b601f850160051c820191505b8181101561ea3e5782815560018101905061ea28565b5050505b505050565b60008260011b6000198460031b1c19831617905092915050565b815167ffffffffffffffff81111561ea7c5761ea7b61e775565b5b61ea908161ea8a845461e9a3565b8461e9f2565b60006020809150601f83116001811461eac4576000841561eab2578387015190505b61eabc858261ea47565b86555061eb23565b601f19841661ead28661e9e1565b60005b8281101561eaf8578589015182556001820191508486019550848101905061ead5565b508582101561eb17578488015160001960f88860031b161c1981168255505b505060018460011b0185555b505050505050565b60006020828403121561eb3d57600080fd5b61eb468261e436565b905092915050565b600060208201905067ffffffffffffffff8316825292915050565b600082820390508181111561eb815761eb8061e91f565b5b92915050565b600060408201905073ffffffffffffffffffffffffffffffffffffffff841682528260208301529392505050565b60006020828403121561ebc757600080fd5b8151801515811461ebd757600080fd5b8091505092915050565b60008261ebfe57634e487b7160e01b600052601260045260246000fd5b828204905092915050565b60006020828403121561ec1b57600080fd5b815161ec268161e072565b8091505092915050565b60006040820190508382528260208301529392505050565b600063ffffffff60e01b8087168352808616602084015250606060408301528260608301527f07ffffffffffffffffffffffffffffffffffffffffffffffffffffffffffffff83111561ec9a57600080fd5b8260051b8085608085013760808184010191505095945050505050565b600060408201905073ffffffffffffffffffffffffffffffffffffffff80851683528084166020840152509392505050565b67ffffffffffffffff83111561ed025761ed0161e775565b5b61ed168361ed10835461e9a3565b8361e9f2565b6000601f84116001811461ed45576000851561ed33578285013590505b61ed3d868261ea47565b84555061eda3565b601f19851661ed538461e9e1565b835b8281101561ed7a5784870135825560018201915060208501945060208101905061ed55565b508682101561ed975760001960f88860031b161c19848701351681555b505060018560011b0183555b5050505050565b6000600160ff1b820361edc05761edbf61e91f565b5b816000039050919050565b600060608201905073ffffffffffffffffffffffffffffffffffffffff8086168352808516602084015250826040830152949350505050565b600060208201905082825292915050565b600060408201905073ffffffffffffffffffffffffffffffffffffffff80851683528084166020840152509392505050565b60008019820361ee5a5761ee5961e91f565b5b600182019050919050565b600063ffffffff60e01b80861683528085166020840152506060604083015261ee91606083018461e69d565b9050949350505050565b600060608201905073ffffffffffffffffffffffffffffffffffffffff8086168352808516602084015250826040830152949350505050565b6000819050919050565b60006020828403121561eef057600080fd5b8151905092915050565b6000825161ef0c81846020870161e379565b80830191505092915050565b634e487b7160e01b600052603160045260246000fdfea26469706673582212201f49bda7266a301f79434655de6ff825fc40a2b9442acd3d5b5816e3a76145f564736f6c63430008190033",
  "linkReferences": {},
  "deployedLinkReferences": {}
}