{
  "_format": "hh-sol-artifact-1",
  "contractName": "StakingHbbftMock",
  "sourceName": "contracts/mockContracts/StakingHbbftMock.sol",
  "abi": [
    {
      "inputs": [
        {
          "internalType": "address",
          "name": "pool",
          "type": "address"
        },
        {
          "internalType": "address",
          "name": "staker",
          "type": "address"
        }
      ],
      "name": "CannotClaimWithdrawOrderYet",
      "type": "error"
    },
    {
      "inputs": [],
      "name": "GetterCallFailed",
      "type": "error"
    },
    {
      "inputs": [],
      "name": "InitialStakingPoolsListEmpty",
      "type": "error"
    },
    {
      "inputs": [],
      "name": "InsufficientBalance",
      "type": "error"
    },
    {
      "inputs": [
        {
          "internalType": "address",
          "name": "pool",
          "type": "address"
        },
        {
          "internalType": "address",
          "name": "delegator",
          "type": "address"
        }
      ],
      "name": "InsufficientStakeAmount",
      "type": "error"
    },
    {
      "inputs": [],
      "name": "InvalidFixedEpochDuration",
      "type": "error"
    },
    {
      "inputs": [
        {
          "internalType": "uint256",
          "name": "candidateStake",
          "type": "uint256"
        },
        {
          "internalType": "uint256",
          "name": "delegatorStake",
          "type": "uint256"
        }
      ],
      "name": "InvalidInitialStakeAmount",
      "type": "error"
    },
    {
      "inputs": [],
      "name": "InvalidInitialization",
      "type": "error"
    },
    {
      "inputs": [],
      "name": "InvalidIpAddressesCount",
      "type": "error"
    },
    {
      "inputs": [],
      "name": "InvalidMaxStakeAmount",
      "type": "error"
    },
    {
      "inputs": [],
      "name": "InvalidMoveStakePoolsAddress",
      "type": "error"
    },
    {
      "inputs": [
        {
          "internalType": "address",
          "name": "pool",
          "type": "address"
        },
        {
          "internalType": "address",
          "name": "delegator",
          "type": "address"
        },
        {
          "internalType": "int256",
          "name": "amount",
          "type": "int256"
        }
      ],
      "name": "InvalidOrderWithdrawAmount",
      "type": "error"
    },
    {
      "inputs": [],
      "name": "InvalidPublicKeysCount",
      "type": "error"
    },
    {
      "inputs": [],
      "name": "InvalidStakingFixedEpochDuration",
      "type": "error"
    },
    {
      "inputs": [],
      "name": "InvalidStakingTransitionTimeframe",
      "type": "error"
    },
    {
      "inputs": [],
      "name": "InvalidTransitionTimeFrame",
      "type": "error"
    },
    {
      "inputs": [
        {
          "internalType": "address",
          "name": "pool",
          "type": "address"
        },
        {
          "internalType": "address",
          "name": "delegator",
          "type": "address"
        },
        {
          "internalType": "uint256",
          "name": "amount",
          "type": "uint256"
        }
      ],
      "name": "InvalidWithdrawAmount",
      "type": "error"
    },
    {
      "inputs": [
        {
          "internalType": "uint256",
          "name": "allowed",
          "type": "uint256"
        },
        {
          "internalType": "uint256",
          "name": "desired",
          "type": "uint256"
        }
      ],
      "name": "MaxAllowedWithdrawExceeded",
      "type": "error"
    },
    {
      "inputs": [],
      "name": "MaxPoolsCountExceeded",
      "type": "error"
    },
    {
      "inputs": [
        {
          "internalType": "uint256",
          "name": "_newVal",
          "type": "uint256"
        }
      ],
      "name": "NewValueOutOfRange",
      "type": "error"
    },
    {
      "inputs": [],
      "name": "NoStakesToRecover",
      "type": "error"
    },
    {
      "inputs": [],
      "name": "NotInitializing",
      "type": "error"
    },
    {
      "inputs": [],
      "name": "NotPayable",
      "type": "error"
    },
    {
      "inputs": [
        {
          "internalType": "address",
          "name": "owner",
          "type": "address"
        }
      ],
      "name": "OwnableInvalidOwner",
      "type": "error"
    },
    {
      "inputs": [
        {
          "internalType": "address",
          "name": "account",
          "type": "address"
        }
      ],
      "name": "OwnableUnauthorizedAccount",
      "type": "error"
    },
    {
      "inputs": [
        {
          "internalType": "address",
          "name": "pool",
          "type": "address"
        }
      ],
      "name": "PoolAbandoned",
      "type": "error"
    },
    {
      "inputs": [
        {
          "internalType": "address",
          "name": "pool",
          "type": "address"
        }
      ],
      "name": "PoolCannotBeRemoved",
      "type": "error"
    },
    {
      "inputs": [
        {
          "internalType": "address",
          "name": "pool",
          "type": "address"
        }
      ],
      "name": "PoolEmpty",
      "type": "error"
    },
    {
      "inputs": [
        {
          "internalType": "address",
          "name": "pool",
          "type": "address"
        }
      ],
      "name": "PoolMiningBanned",
      "type": "error"
    },
    {
      "inputs": [
        {
          "internalType": "address",
          "name": "pool",
          "type": "address"
        }
      ],
      "name": "PoolNotExist",
      "type": "error"
    },
    {
      "inputs": [
        {
          "internalType": "address",
          "name": "pool",
          "type": "address"
        },
        {
          "internalType": "address",
          "name": "delegator",
          "type": "address"
        }
      ],
      "name": "PoolStakeLimitExceeded",
      "type": "error"
    },
    {
      "inputs": [],
      "name": "ReentrancyGuardReentrantCall",
      "type": "error"
    },
    {
      "inputs": [
        {
          "internalType": "address",
          "name": "recipient",
          "type": "address"
        },
        {
          "internalType": "uint256",
          "name": "amount",
          "type": "uint256"
        }
      ],
      "name": "TransferFailed",
      "type": "error"
    },
    {
      "inputs": [],
      "name": "Unauthorized",
      "type": "error"
    },
    {
      "inputs": [],
      "name": "WithdrawNotAllowed",
      "type": "error"
    },
    {
      "inputs": [],
      "name": "ZeroAddress",
      "type": "error"
    },
    {
      "inputs": [],
      "name": "ZeroGasPrice",
      "type": "error"
    },
    {
      "inputs": [],
      "name": "ZeroWidthrawAmount",
      "type": "error"
    },
    {
      "inputs": [],
      "name": "ZeroWidthrawDisallowPeriod",
      "type": "error"
    },
    {
      "anonymous": false,
      "inputs": [
        {
          "indexed": true,
          "internalType": "address",
          "name": "fromPoolStakingAddress",
          "type": "address"
        },
        {
          "indexed": true,
          "internalType": "address",
          "name": "staker",
          "type": "address"
        },
        {
          "indexed": true,
          "internalType": "uint256",
          "name": "stakingEpoch",
          "type": "uint256"
        },
        {
          "indexed": false,
          "internalType": "uint256",
          "name": "amount",
          "type": "uint256"
        }
      ],
      "name": "ClaimedOrderedWithdrawal",
      "type": "event"
    },
    {
      "anonymous": false,
      "inputs": [
        {
          "indexed": true,
          "internalType": "address",
          "name": "caller",
          "type": "address"
        },
        {
          "indexed": true,
          "internalType": "address",
          "name": "stakingAddress",
          "type": "address"
        },
        {
          "indexed": false,
          "internalType": "uint256",
          "name": "gatheredFunds",
          "type": "uint256"
        }
      ],
      "name": "GatherAbandonedStakes",
      "type": "event"
    },
    {
      "anonymous": false,
      "inputs": [
        {
          "indexed": false,
          "internalType": "uint64",
          "name": "version",
          "type": "uint64"
        }
      ],
      "name": "Initialized",
      "type": "event"
    },
    {
      "anonymous": false,
      "inputs": [
        {
          "indexed": false,
          "internalType": "address",
          "name": "fromPoolStakingAddress",
          "type": "address"
        },
        {
          "indexed": true,
          "internalType": "address",
          "name": "toPoolStakingAddress",
          "type": "address"
        },
        {
          "indexed": true,
          "internalType": "address",
          "name": "staker",
          "type": "address"
        },
        {
          "indexed": true,
          "internalType": "uint256",
          "name": "stakingEpoch",
          "type": "uint256"
        },
        {
          "indexed": false,
          "internalType": "uint256",
          "name": "amount",
          "type": "uint256"
        }
      ],
      "name": "MovedStake",
      "type": "event"
    },
    {
      "anonymous": false,
      "inputs": [
        {
          "indexed": true,
          "internalType": "address",
          "name": "fromPoolStakingAddress",
          "type": "address"
        },
        {
          "indexed": true,
          "internalType": "address",
          "name": "staker",
          "type": "address"
        },
        {
          "indexed": true,
          "internalType": "uint256",
          "name": "stakingEpoch",
          "type": "uint256"
        },
        {
          "indexed": false,
          "internalType": "int256",
          "name": "amount",
          "type": "int256"
        }
      ],
      "name": "OrderedWithdrawal",
      "type": "event"
    },
    {
      "anonymous": false,
      "inputs": [
        {
          "indexed": true,
          "internalType": "address",
          "name": "previousOwner",
          "type": "address"
        },
        {
          "indexed": true,
          "internalType": "address",
          "name": "newOwner",
          "type": "address"
        }
      ],
      "name": "OwnershipTransferred",
      "type": "event"
    },
    {
      "anonymous": false,
      "inputs": [
        {
          "indexed": true,
          "internalType": "address",
          "name": "toPoolStakingAddress",
          "type": "address"
        },
        {
          "indexed": true,
          "internalType": "address",
          "name": "staker",
          "type": "address"
        },
        {
          "indexed": true,
          "internalType": "uint256",
          "name": "stakingEpoch",
          "type": "uint256"
        },
        {
          "indexed": false,
          "internalType": "uint256",
          "name": "amount",
          "type": "uint256"
        }
      ],
      "name": "PlacedStake",
      "type": "event"
    },
    {
      "anonymous": false,
      "inputs": [
        {
          "indexed": true,
          "internalType": "address",
          "name": "caller",
          "type": "address"
        },
        {
          "indexed": false,
          "internalType": "uint256",
          "name": "reinsertShare",
          "type": "uint256"
        },
        {
          "indexed": false,
          "internalType": "uint256",
          "name": "governanceShare",
          "type": "uint256"
        }
      ],
      "name": "RecoverAbandonedStakes",
      "type": "event"
    },
    {
      "anonymous": false,
      "inputs": [
        {
          "indexed": false,
          "internalType": "string",
          "name": "funcSelector",
          "type": "string"
        }
      ],
      "name": "RemoveChangeAbleParameter",
      "type": "event"
    },
    {
      "anonymous": false,
      "inputs": [
        {
          "indexed": true,
          "internalType": "address",
          "name": "poolStakingAddress",
          "type": "address"
        },
        {
          "indexed": true,
          "internalType": "uint256",
          "name": "stakingEpoch",
          "type": "uint256"
        },
        {
          "indexed": false,
          "internalType": "uint256",
          "name": "validatorReward",
          "type": "uint256"
        },
        {
          "indexed": false,
          "internalType": "uint256",
          "name": "delegatorsReward",
          "type": "uint256"
        }
      ],
      "name": "RestakeReward",
      "type": "event"
    },
    {
      "anonymous": false,
      "inputs": [
        {
          "indexed": false,
          "internalType": "address",
          "name": "_address",
          "type": "address"
        }
      ],
      "name": "SetBonusScoreContract",
      "type": "event"
    },
    {
      "anonymous": false,
      "inputs": [
        {
          "indexed": false,
          "internalType": "string",
          "name": "setter",
          "type": "string"
        },
        {
          "indexed": false,
          "internalType": "string",
          "name": "getter",
          "type": "string"
        },
        {
          "indexed": false,
          "internalType": "uint256[]",
          "name": "params",
          "type": "uint256[]"
        }
      ],
      "name": "SetChangeAbleParameter",
      "type": "event"
    },
    {
      "anonymous": false,
      "inputs": [
        {
          "indexed": false,
          "internalType": "uint256",
          "name": "minStake",
          "type": "uint256"
        }
      ],
      "name": "SetDelegatorMinStake",
      "type": "event"
    },
    {
      "anonymous": false,
      "inputs": [
        {
          "indexed": true,
          "internalType": "address",
          "name": "fromPoolStakingAddress",
          "type": "address"
        },
        {
          "indexed": true,
          "internalType": "address",
          "name": "staker",
          "type": "address"
        },
        {
          "indexed": true,
          "internalType": "uint256",
          "name": "stakingEpoch",
          "type": "uint256"
        },
        {
          "indexed": false,
          "internalType": "uint256",
          "name": "amount",
          "type": "uint256"
        }
      ],
      "name": "WithdrewStake",
      "type": "event"
    },
    {
      "inputs": [],
      "name": "MAX_CANDIDATES",
      "outputs": [
        {
          "internalType": "uint256",
          "name": "",
          "type": "uint256"
        }
      ],
      "stateMutability": "view",
      "type": "function"
    },
    {
      "inputs": [
        {
          "internalType": "address",
          "name": "",
          "type": "address"
        }
      ],
      "name": "abandonedAndRemoved",
      "outputs": [
        {
          "internalType": "bool",
          "name": "",
          "type": "bool"
        }
      ],
      "stateMutability": "view",
      "type": "function"
    },
    {
      "inputs": [],
      "name": "addBalance",
      "outputs": [],
      "stateMutability": "payable",
      "type": "function"
    },
    {
      "inputs": [
        {
          "internalType": "address",
          "name": "_miningAddress",
          "type": "address"
        },
        {
          "internalType": "bytes",
          "name": "_publicKey",
          "type": "bytes"
        },
        {
          "internalType": "bytes16",
          "name": "_ip",
          "type": "bytes16"
        }
      ],
      "name": "addPool",
      "outputs": [],
      "stateMutability": "payable",
      "type": "function"
    },
    {
      "inputs": [
        {
          "internalType": "address",
          "name": "_stakingAddress",
          "type": "address"
        }
      ],
      "name": "addPoolActiveMock",
      "outputs": [],
      "stateMutability": "nonpayable",
      "type": "function"
    },
    {
      "inputs": [
        {
          "internalType": "address",
          "name": "_stakingAddress",
          "type": "address"
        }
      ],
      "name": "addPoolInactiveMock",
      "outputs": [],
      "stateMutability": "nonpayable",
      "type": "function"
    },
    {
      "inputs": [
        {
          "internalType": "bytes4",
          "name": "",
          "type": "bytes4"
        }
      ],
      "name": "allowedParameterRange",
      "outputs": [
        {
          "internalType": "bytes4",
          "name": "getter",
          "type": "bytes4"
        }
      ],
      "stateMutability": "view",
      "type": "function"
    },
    {
      "inputs": [],
      "name": "areStakeAndWithdrawAllowed",
      "outputs": [
        {
          "internalType": "bool",
          "name": "",
          "type": "bool"
        }
      ],
      "stateMutability": "pure",
      "type": "function"
    },
    {
      "inputs": [],
      "name": "bonusScoreContract",
      "outputs": [
        {
          "internalType": "contract IBonusScoreSystem",
          "name": "",
          "type": "address"
        }
      ],
      "stateMutability": "view",
      "type": "function"
    },
    {
      "inputs": [],
      "name": "candidateMinStake",
      "outputs": [
        {
          "internalType": "uint256",
          "name": "",
          "type": "uint256"
        }
      ],
      "stateMutability": "view",
      "type": "function"
    },
    {
      "inputs": [
        {
          "internalType": "address",
          "name": "_poolStakingAddress",
          "type": "address"
        }
      ],
      "name": "claimOrderedWithdraw",
      "outputs": [],
      "stateMutability": "nonpayable",
      "type": "function"
    },
    {
      "inputs": [
        {
          "internalType": "address",
          "name": "pool",
          "type": "address"
        },
        {
          "internalType": "address",
          "name": "delegator",
          "type": "address"
        },
        {
          "internalType": "uint256",
          "name": "epoch",
          "type": "uint256"
        }
      ],
      "name": "clearDelegatorStakeSnapshot",
      "outputs": [],
      "stateMutability": "nonpayable",
      "type": "function"
    },
    {
      "inputs": [],
      "name": "currentKeyGenExtraTimeWindow",
      "outputs": [
        {
          "internalType": "uint256",
          "name": "",
          "type": "uint256"
        }
      ],
      "stateMutability": "view",
      "type": "function"
    },
    {
      "inputs": [],
      "name": "delegatorMinStake",
      "outputs": [
        {
          "internalType": "uint256",
          "name": "",
          "type": "uint256"
        }
      ],
      "stateMutability": "view",
      "type": "function"
    },
    {
      "inputs": [
        {
          "internalType": "string",
          "name": "_selector",
          "type": "string"
        }
      ],
      "name": "getAllowedParamsRange",
      "outputs": [
        {
          "components": [
            {
              "internalType": "bytes4",
              "name": "getter",
              "type": "bytes4"
            },
            {
              "internalType": "uint256[]",
              "name": "range",
              "type": "uint256[]"
            }
          ],
          "internalType": "struct ValueGuards.ParameterRange",
          "name": "",
          "type": "tuple"
        }
      ],
      "stateMutability": "view",
      "type": "function"
    },
    {
      "inputs": [
        {
          "internalType": "address",
          "name": "pool",
          "type": "address"
        },
        {
          "internalType": "address",
          "name": "delegator",
          "type": "address"
        },
        {
          "internalType": "uint256",
          "name": "epoch",
          "type": "uint256"
        }
      ],
      "name": "getDelegatorStakeSnapshot",
      "outputs": [
        {
          "internalType": "uint256",
          "name": "",
          "type": "uint256"
        }
      ],
      "stateMutability": "view",
      "type": "function"
    },
    {
      "inputs": [],
      "name": "getMaxCandidates",
      "outputs": [
        {
          "internalType": "uint256",
          "name": "",
          "type": "uint256"
        }
      ],
      "stateMutability": "pure",
      "type": "function"
    },
    {
      "inputs": [
        {
          "internalType": "address",
          "name": "_poolAddress",
          "type": "address"
        }
      ],
      "name": "getPoolInternetAddress",
      "outputs": [
        {
          "internalType": "bytes16",
          "name": "",
          "type": "bytes16"
        },
        {
          "internalType": "bytes2",
          "name": "",
          "type": "bytes2"
        }
      ],
      "stateMutability": "view",
      "type": "function"
    },
    {
      "inputs": [
        {
          "internalType": "address",
          "name": "_poolAddress",
          "type": "address"
        }
      ],
      "name": "getPoolPublicKey",
      "outputs": [
        {
          "internalType": "bytes",
          "name": "",
          "type": "bytes"
        }
      ],
      "stateMutability": "view",
      "type": "function"
    },
    {
      "inputs": [
        {
          "internalType": "uint256",
          "name": "_epoch",
          "type": "uint256"
        },
        {
          "internalType": "address",
          "name": "_stakingPool",
          "type": "address"
        }
      ],
      "name": "getPoolValidatorStakeAmount",
      "outputs": [
        {
          "internalType": "uint256",
          "name": "",
          "type": "uint256"
        }
      ],
      "stateMutability": "view",
      "type": "function"
    },
    {
      "inputs": [],
      "name": "getPools",
      "outputs": [
        {
          "internalType": "address[]",
          "name": "",
          "type": "address[]"
        }
      ],
      "stateMutability": "view",
      "type": "function"
    },
    {
      "inputs": [],
      "name": "getPoolsInactive",
      "outputs": [
        {
          "internalType": "address[]",
          "name": "",
          "type": "address[]"
        }
      ],
      "stateMutability": "view",
      "type": "function"
    },
    {
      "inputs": [],
      "name": "getPoolsLikelihood",
      "outputs": [
        {
          "internalType": "uint256[]",
          "name": "likelihoods",
          "type": "uint256[]"
        },
        {
          "internalType": "uint256",
          "name": "sum",
          "type": "uint256"
        }
      ],
      "stateMutability": "view",
      "type": "function"
    },
    {
      "inputs": [],
      "name": "getPoolsToBeElected",
      "outputs": [
        {
          "internalType": "address[]",
          "name": "",
          "type": "address[]"
        }
      ],
      "stateMutability": "view",
      "type": "function"
    },
    {
      "inputs": [],
      "name": "getPoolsToBeRemoved",
      "outputs": [
        {
          "internalType": "address[]",
          "name": "",
          "type": "address[]"
        }
      ],
      "stateMutability": "view",
      "type": "function"
    },
    {
      "inputs": [
        {
          "internalType": "address",
          "name": "pool",
          "type": "address"
        },
        {
          "internalType": "address",
          "name": "delegator",
          "type": "address"
        }
      ],
      "name": "getStakeSnapshotLastEpoch",
      "outputs": [
        {
          "internalType": "uint256",
          "name": "",
          "type": "uint256"
        }
      ],
      "stateMutability": "view",
      "type": "function"
    },
    {
      "inputs": [],
      "name": "incrementStakingEpoch",
      "outputs": [],
      "stateMutability": "nonpayable",
      "type": "function"
    },
    {
      "inputs": [
        {
          "internalType": "string",
          "name": "setter",
          "type": "string"
        },
        {
          "internalType": "string",
          "name": "getter",
          "type": "string"
        },
        {
          "internalType": "uint256[]",
          "name": "params",
          "type": "uint256[]"
        }
      ],
      "name": "initAllowedChangeableParameter",
      "outputs": [],
      "stateMutability": "nonpayable",
      "type": "function"
    },
    {
      "inputs": [
        {
          "internalType": "address",
          "name": "_contractOwner",
          "type": "address"
        },
        {
          "components": [
            {
              "internalType": "address",
              "name": "_validatorSetContract",
              "type": "address"
            },
            {
              "internalType": "address",
              "name": "_bonusScoreContract",
              "type": "address"
            },
            {
              "internalType": "address[]",
              "name": "_initialStakingAddresses",
              "type": "address[]"
            },
            {
              "internalType": "uint256",
              "name": "_delegatorMinStake",
              "type": "uint256"
            },
            {
              "internalType": "uint256",
              "name": "_candidateMinStake",
              "type": "uint256"
            },
            {
              "internalType": "uint256",
              "name": "_maxStake",
              "type": "uint256"
            },
            {
              "internalType": "uint256",
              "name": "_stakingFixedEpochDuration",
              "type": "uint256"
            },
            {
              "internalType": "uint256",
              "name": "_stakingTransitionTimeframeLength",
              "type": "uint256"
            },
            {
              "internalType": "uint256",
              "name": "_stakingWithdrawDisallowPeriod",
              "type": "uint256"
            }
          ],
          "internalType": "struct IStakingHbbft.StakingParams",
          "name": "stakingParams",
          "type": "tuple"
        },
        {
          "internalType": "bytes32[]",
          "name": "_publicKeys",
          "type": "bytes32[]"
        },
        {
          "internalType": "bytes16[]",
          "name": "_internetAddresses",
          "type": "bytes16[]"
        }
      ],
      "name": "initialize",
      "outputs": [],
      "stateMutability": "nonpayable",
      "type": "function"
    },
    {
      "inputs": [
        {
          "internalType": "address",
          "name": "_stakingAddress",
          "type": "address"
        }
      ],
      "name": "isPoolActive",
      "outputs": [
        {
          "internalType": "bool",
          "name": "",
          "type": "bool"
        }
      ],
      "stateMutability": "view",
      "type": "function"
    },
    {
      "inputs": [
        {
          "internalType": "bytes4",
          "name": "funcSelector",
          "type": "bytes4"
        },
        {
          "internalType": "uint256",
          "name": "newVal",
          "type": "uint256"
        }
      ],
      "name": "isWithinAllowedRange",
      "outputs": [
        {
          "internalType": "bool",
          "name": "",
          "type": "bool"
        }
      ],
      "stateMutability": "view",
      "type": "function"
    },
    {
      "inputs": [],
      "name": "maxStakeAmount",
      "outputs": [
        {
          "internalType": "uint256",
          "name": "",
          "type": "uint256"
        }
      ],
      "stateMutability": "view",
      "type": "function"
    },
    {
      "inputs": [
        {
          "internalType": "address",
          "name": "_poolStakingAddress",
          "type": "address"
        },
        {
          "internalType": "address",
          "name": "_staker",
          "type": "address"
        }
      ],
      "name": "maxWithdrawAllowed",
      "outputs": [
        {
          "internalType": "uint256",
          "name": "",
          "type": "uint256"
        }
      ],
      "stateMutability": "view",
      "type": "function"
    },
    {
      "inputs": [
        {
          "internalType": "address",
          "name": "_poolStakingAddress",
          "type": "address"
        },
        {
          "internalType": "address",
          "name": "_staker",
          "type": "address"
        }
      ],
      "name": "maxWithdrawOrderAllowed",
      "outputs": [
        {
          "internalType": "uint256",
          "name": "",
          "type": "uint256"
        }
      ],
      "stateMutability": "view",
      "type": "function"
    },
    {
      "inputs": [
        {
          "internalType": "address",
          "name": "_fromPoolStakingAddress",
          "type": "address"
        },
        {
          "internalType": "address",
          "name": "_toPoolStakingAddress",
          "type": "address"
        },
        {
          "internalType": "uint256",
          "name": "_amount",
          "type": "uint256"
        }
      ],
      "name": "moveStake",
      "outputs": [],
      "stateMutability": "nonpayable",
      "type": "function"
    },
    {
      "inputs": [
        {
          "internalType": "address",
          "name": "_stakingAddress",
          "type": "address"
        }
      ],
      "name": "notifyAvailability",
      "outputs": [],
      "stateMutability": "nonpayable",
      "type": "function"
    },
    {
      "inputs": [],
      "name": "notifyKeyGenFailed",
      "outputs": [],
      "stateMutability": "nonpayable",
      "type": "function"
    },
    {
      "inputs": [
        {
          "internalType": "uint256",
          "name": "detectedOfflineTime",
          "type": "uint256"
        }
      ],
      "name": "notifyNetworkOfftimeDetected",
      "outputs": [],
      "stateMutability": "nonpayable",
      "type": "function"
    },
    {
      "inputs": [
        {
          "internalType": "address",
          "name": "_poolStakingAddress",
          "type": "address"
        },
        {
          "internalType": "int256",
          "name": "_amount",
          "type": "int256"
        }
      ],
      "name": "orderWithdraw",
      "outputs": [],
      "stateMutability": "nonpayable",
      "type": "function"
    },
    {
      "inputs": [
        {
          "internalType": "address",
          "name": "",
          "type": "address"
        },
        {
          "internalType": "address",
          "name": "",
          "type": "address"
        }
      ],
      "name": "orderWithdrawEpoch",
      "outputs": [
        {
          "internalType": "uint256",
          "name": "",
          "type": "uint256"
        }
      ],
      "stateMutability": "view",
      "type": "function"
    },
    {
      "inputs": [
        {
          "internalType": "address",
          "name": "",
          "type": "address"
        },
        {
          "internalType": "address",
          "name": "",
          "type": "address"
        }
      ],
      "name": "orderedWithdrawAmount",
      "outputs": [
        {
          "internalType": "uint256",
          "name": "",
          "type": "uint256"
        }
      ],
      "stateMutability": "view",
      "type": "function"
    },
    {
      "inputs": [
        {
          "internalType": "address",
          "name": "",
          "type": "address"
        }
      ],
      "name": "orderedWithdrawAmountTotal",
      "outputs": [
        {
          "internalType": "uint256",
          "name": "",
          "type": "uint256"
        }
      ],
      "stateMutability": "view",
      "type": "function"
    },
    {
      "inputs": [],
      "name": "owner",
      "outputs": [
        {
          "internalType": "address",
          "name": "",
          "type": "address"
        }
      ],
      "stateMutability": "view",
      "type": "function"
    },
    {
      "inputs": [
        {
          "internalType": "address",
          "name": "_poolStakingAddress",
          "type": "address"
        }
      ],
      "name": "poolDelegators",
      "outputs": [
        {
          "internalType": "address[]",
          "name": "",
          "type": "address[]"
        }
      ],
      "stateMutability": "view",
      "type": "function"
    },
    {
      "inputs": [
        {
          "internalType": "address",
          "name": "_poolStakingAddress",
          "type": "address"
        }
      ],
      "name": "poolDelegatorsInactive",
      "outputs": [
        {
          "internalType": "address[]",
          "name": "",
          "type": "address[]"
        }
      ],
      "stateMutability": "view",
      "type": "function"
    },
    {
      "inputs": [
        {
          "internalType": "address",
          "name": "",
          "type": "address"
        }
      ],
      "name": "poolInfo",
      "outputs": [
        {
          "internalType": "bytes",
          "name": "publicKey",
          "type": "bytes"
        },
        {
          "internalType": "bytes16",
          "name": "internetAddress",
          "type": "bytes16"
        },
        {
          "internalType": "bytes2",
          "name": "port",
          "type": "bytes2"
        }
      ],
      "stateMutability": "view",
      "type": "function"
    },
    {
      "inputs": [
        {
          "internalType": "address",
          "name": "",
          "type": "address"
        }
      ],
      "name": "poolToBeElectedIndex",
      "outputs": [
        {
          "internalType": "uint256",
          "name": "",
          "type": "uint256"
        }
      ],
      "stateMutability": "view",
      "type": "function"
    },
    {
      "inputs": [],
      "name": "recoverAbandonedStakes",
      "outputs": [],
      "stateMutability": "nonpayable",
      "type": "function"
    },
    {
      "inputs": [
        {
          "internalType": "string",
          "name": "funcSelector",
          "type": "string"
        }
      ],
      "name": "removeAllowedChangeableParameter",
      "outputs": [],
      "stateMutability": "nonpayable",
      "type": "function"
    },
    {
      "inputs": [],
      "name": "removeMyPool",
      "outputs": [],
      "stateMutability": "nonpayable",
      "type": "function"
    },
    {
      "inputs": [
        {
          "internalType": "address",
          "name": "_stakingAddress",
          "type": "address"
        }
      ],
      "name": "removePool",
      "outputs": [],
      "stateMutability": "nonpayable",
      "type": "function"
    },
    {
      "inputs": [],
      "name": "removePools",
      "outputs": [],
      "stateMutability": "nonpayable",
      "type": "function"
    },
    {
      "inputs": [],
      "name": "renounceOwnership",
      "outputs": [],
      "stateMutability": "nonpayable",
      "type": "function"
    },
    {
      "inputs": [
        {
          "internalType": "address",
          "name": "_poolStakingAddress",
          "type": "address"
        },
        {
          "internalType": "uint256",
          "name": "_validatorMinRewardPercent",
          "type": "uint256"
        }
      ],
      "name": "restake",
      "outputs": [],
      "stateMutability": "payable",
      "type": "function"
    },
    {
      "inputs": [
        {
          "internalType": "string",
          "name": "setter",
          "type": "string"
        },
        {
          "internalType": "string",
          "name": "getter",
          "type": "string"
        },
        {
          "internalType": "uint256[]",
          "name": "params",
          "type": "uint256[]"
        }
      ],
      "name": "setAllowedChangeableParameter",
      "outputs": [],
      "stateMutability": "nonpayable",
      "type": "function"
    },
    {
      "inputs": [
        {
          "internalType": "address",
          "name": "_bonusScoreContract",
          "type": "address"
        }
      ],
      "name": "setBonusScoreContract",
      "outputs": [],
      "stateMutability": "nonpayable",
      "type": "function"
    },
    {
      "inputs": [
        {
          "internalType": "uint256",
          "name": "_minStake",
          "type": "uint256"
        }
      ],
      "name": "setDelegatorMinStake",
      "outputs": [],
      "stateMutability": "nonpayable",
      "type": "function"
    },
    {
      "inputs": [
        {
          "internalType": "bytes",
          "name": "_publicKey",
          "type": "bytes"
        },
        {
          "internalType": "bytes16",
          "name": "_ip",
          "type": "bytes16"
        },
        {
          "internalType": "bytes2",
          "name": "_port",
          "type": "bytes2"
        }
      ],
      "name": "setPoolInfo",
      "outputs": [],
      "stateMutability": "nonpayable",
      "type": "function"
    },
    {
      "inputs": [
        {
          "internalType": "address",
          "name": "_poolStakingAddress",
          "type": "address"
        },
        {
          "internalType": "uint256",
          "name": "_amount",
          "type": "uint256"
        }
      ],
      "name": "setStakeAmountTotal",
      "outputs": [],
      "stateMutability": "nonpayable",
      "type": "function"
    },
    {
      "inputs": [
        {
          "internalType": "uint256",
          "name": "_stakingEpoch",
          "type": "uint256"
        }
      ],
      "name": "setStakingEpoch",
      "outputs": [],
      "stateMutability": "nonpayable",
      "type": "function"
    },
    {
      "inputs": [
        {
          "internalType": "uint256",
          "name": "_timestamp",
          "type": "uint256"
        }
      ],
      "name": "setStakingEpochStartTime",
      "outputs": [],
      "stateMutability": "nonpayable",
      "type": "function"
    },
    {
      "inputs": [
        {
          "internalType": "uint256",
          "name": "_value",
          "type": "uint256"
        }
      ],
      "name": "setStakingFixedEpochDuration",
      "outputs": [],
      "stateMutability": "nonpayable",
      "type": "function"
    },
    {
      "inputs": [
        {
          "internalType": "uint256",
          "name": "_value",
          "type": "uint256"
        }
      ],
      "name": "setStakingTransitionTimeframeLength",
      "outputs": [],
      "stateMutability": "nonpayable",
      "type": "function"
    },
    {
      "inputs": [
        {
          "internalType": "address",
          "name": "_validatorAddress",
          "type": "address"
        },
        {
          "internalType": "bytes16",
          "name": "_ip",
          "type": "bytes16"
        },
        {
          "internalType": "bytes2",
          "name": "_port",
          "type": "bytes2"
        }
      ],
      "name": "setValidatorInternetAddress",
      "outputs": [],
      "stateMutability": "nonpayable",
      "type": "function"
    },
    {
      "inputs": [
        {
          "internalType": "contract IValidatorSetHbbft",
          "name": "_validatorSetAddress",
          "type": "address"
        }
      ],
      "name": "setValidatorMockSetAddress",
      "outputs": [],
      "stateMutability": "nonpayable",
      "type": "function"
    },
    {
      "inputs": [
        {
          "internalType": "contract IValidatorSetHbbft",
          "name": "_validatorSetAddress",
          "type": "address"
        }
      ],
      "name": "setValidatorSetAddress",
      "outputs": [],
      "stateMutability": "nonpayable",
      "type": "function"
    },
    {
      "inputs": [
        {
          "internalType": "uint256",
          "name": "_epoch",
          "type": "uint256"
        },
        {
          "internalType": "address",
          "name": "_stakingPool",
          "type": "address"
        }
      ],
      "name": "snapshotPoolStakeAmounts",
      "outputs": [],
      "stateMutability": "nonpayable",
      "type": "function"
    },
    {
      "inputs": [
        {
          "internalType": "uint256",
          "name": "",
          "type": "uint256"
        },
        {
          "internalType": "address",
          "name": "",
          "type": "address"
        }
      ],
      "name": "snapshotPoolTotalStakeAmount",
      "outputs": [
        {
          "internalType": "uint256",
          "name": "",
          "type": "uint256"
        }
      ],
      "stateMutability": "view",
      "type": "function"
    },
    {
      "inputs": [
        {
          "internalType": "uint256",
          "name": "",
          "type": "uint256"
        },
        {
          "internalType": "address",
          "name": "",
          "type": "address"
        }
      ],
      "name": "snapshotPoolValidatorStakeAmount",
      "outputs": [
        {
          "internalType": "uint256",
          "name": "",
          "type": "uint256"
        }
      ],
      "stateMutability": "view",
      "type": "function"
    },
    {
      "inputs": [
        {
          "internalType": "address",
          "name": "_toPoolStakingAddress",
          "type": "address"
        }
      ],
      "name": "stake",
      "outputs": [],
      "stateMutability": "payable",
      "type": "function"
    },
    {
      "inputs": [
        {
          "internalType": "address",
          "name": "",
          "type": "address"
        },
        {
          "internalType": "address",
          "name": "",
          "type": "address"
        }
      ],
      "name": "stakeAmount",
      "outputs": [
        {
          "internalType": "uint256",
          "name": "",
          "type": "uint256"
        }
      ],
      "stateMutability": "view",
      "type": "function"
    },
    {
      "inputs": [
        {
          "internalType": "address",
          "name": "_poolStakingAddress",
          "type": "address"
        },
        {
          "internalType": "address",
          "name": "_staker",
          "type": "address"
        }
      ],
      "name": "stakeAmountByCurrentEpoch",
      "outputs": [
        {
          "internalType": "uint256",
          "name": "",
          "type": "uint256"
        }
      ],
      "stateMutability": "view",
      "type": "function"
    },
    {
      "inputs": [
        {
          "internalType": "address",
          "name": "",
          "type": "address"
        }
      ],
      "name": "stakeAmountTotal",
      "outputs": [
        {
          "internalType": "uint256",
          "name": "",
          "type": "uint256"
        }
      ],
      "stateMutability": "view",
      "type": "function"
    },
    {
      "inputs": [],
      "name": "stakingEpoch",
      "outputs": [
        {
          "internalType": "uint256",
          "name": "",
          "type": "uint256"
        }
      ],
      "stateMutability": "view",
      "type": "function"
    },
    {
      "inputs": [],
      "name": "stakingEpochStartBlock",
      "outputs": [
        {
          "internalType": "uint256",
          "name": "",
          "type": "uint256"
        }
      ],
      "stateMutability": "view",
      "type": "function"
    },
    {
      "inputs": [],
      "name": "stakingEpochStartTime",
      "outputs": [
        {
          "internalType": "uint256",
          "name": "",
          "type": "uint256"
        }
      ],
      "stateMutability": "view",
      "type": "function"
    },
    {
      "inputs": [],
      "name": "stakingFixedEpochDuration",
      "outputs": [
        {
          "internalType": "uint256",
          "name": "",
          "type": "uint256"
        }
      ],
      "stateMutability": "view",
      "type": "function"
    },
    {
      "inputs": [],
      "name": "stakingFixedEpochEndTime",
      "outputs": [
        {
          "internalType": "uint256",
          "name": "",
          "type": "uint256"
        }
      ],
      "stateMutability": "view",
      "type": "function"
    },
    {
      "inputs": [],
      "name": "stakingTransitionTimeframeLength",
      "outputs": [
        {
          "internalType": "uint256",
          "name": "",
          "type": "uint256"
        }
      ],
      "stateMutability": "view",
      "type": "function"
    },
    {
      "inputs": [],
      "name": "stakingWithdrawDisallowPeriod",
      "outputs": [
        {
          "internalType": "uint256",
          "name": "",
          "type": "uint256"
        }
      ],
      "stateMutability": "view",
      "type": "function"
    },
    {
      "inputs": [],
      "name": "startTimeOfNextPhaseTransition",
      "outputs": [
        {
          "internalType": "uint256",
          "name": "",
          "type": "uint256"
        }
      ],
      "stateMutability": "view",
      "type": "function"
    },
    {
      "inputs": [],
      "name": "totalStakedAmount",
      "outputs": [
        {
          "internalType": "uint256",
          "name": "",
          "type": "uint256"
        }
      ],
      "stateMutability": "view",
      "type": "function"
    },
    {
      "inputs": [
        {
          "internalType": "address",
          "name": "newOwner",
          "type": "address"
        }
      ],
      "name": "transferOwnership",
      "outputs": [],
      "stateMutability": "nonpayable",
      "type": "function"
    },
    {
      "inputs": [
        {
          "internalType": "address",
          "name": "mining",
          "type": "address"
        },
        {
          "internalType": "uint256",
          "name": "validatorScore",
          "type": "uint256"
        }
      ],
      "name": "updatePoolLikelihood",
      "outputs": [],
      "stateMutability": "nonpayable",
      "type": "function"
    },
    {
      "inputs": [],
      "name": "validatorSetContract",
      "outputs": [
        {
          "internalType": "contract IValidatorSetHbbft",
          "name": "",
          "type": "address"
        }
      ],
      "stateMutability": "view",
      "type": "function"
    },
    {
      "inputs": [
        {
          "internalType": "address",
          "name": "_fromPoolStakingAddress",
          "type": "address"
        },
        {
          "internalType": "uint256",
          "name": "_amount",
          "type": "uint256"
        }
      ],
      "name": "withdraw",
      "outputs": [],
      "stateMutability": "nonpayable",
      "type": "function"
    },
    {
      "stateMutability": "payable",
      "type": "receive"
    }
  ],
  "bytecode": "0x6080604052348015600f57600080fd5b506016601a565b60ca565b7ff0c57e16840df040f15088dc2f81fe391c3923bec73e23a9662efc9c229c6a00805468010000000000000000900460ff161560695760405163f92ee8a960e01b815260040160405180910390fd5b80546001600160401b039081161460c75780546001600160401b0319166001600160401b0390811782556040519081527fc7f505b2f371ae2175ee4913f4499e1f2633a7b5936321eed1cdaeb6115181d29060200160405180910390a15b50565b6160ac806100d96000396000f3fe6080604052600436106105b95760003560e01c8063862be287116102eb578063c6912cc01161018f578063e9ab0300116100e1578063f2de669911610095578063f49425011161006f578063f494250114611178578063fa4aaf471461118c578063ffada862146111b957600080fd5b8063f2de669914611124578063f2fde38b14611138578063f3fef3a31461115857600080fd5b8063edd7db75116100c6578063edd7db75146110e4578063ee435f55146110f9578063f07860961461110e57600080fd5b8063e9ab03001461106f578063eb3efa16146110a757600080fd5b8063da7a9b6a11610143578063dfc8bf4e1161011d578063dfc8bf4e14610fdb578063e2a43cd914610ffb578063e5b1d5931461103257600080fd5b8063da7a9b6a14610f83578063dadee88a14610f99578063df6f55f514610fc657600080fd5b8063cfef144111610174578063cfef144114610f2e578063d0ac76f614610f4e578063d290c21d14610f6e57600080fd5b8063c6912cc014610ef9578063c6af311a14610f0e57600080fd5b8063a420596711610248578063ae1aaf80116101fc578063b61ed63a116101d6578063b61ed63a14610e8c578063b710c15d14610eac578063ba08d23714610ed957600080fd5b8063ae1aaf8014610e56578063b0bd5e9e14610e6c578063b163cc381461065357600080fd5b8063a697ecff1161022d578063a697ecff14610de9578063a711e6a114610e21578063adddc0cf14610e4157600080fd5b8063a420596714610d9c578063a5d54f6514610dd457600080fd5b80639a7b5f111161029f5780639b9fb6d0116102845780639b9fb6d014610d3c5780639e72c63514610d5c5780639ea8082b14610d7c57600080fd5b80639a7b5f1114610cf75780639b03d74414610d2657600080fd5b806392283634116102d05780639228363414610c6b578063950a651314610cb4578063957950a714610cd457600080fd5b8063862be28714610c0e5780638da5cb5b14610c2e57600080fd5b80634e9b426d1161045d578063673a2a1f116103af57806373c21803116103635780637b0a0f9b1161033d5780637b0a0f9b14610bae5780637b15b94c14610bce5780638247a23914610bee57600080fd5b806373c2180314610b28578063750dd2a114610b48578063794c0c6814610b9857600080fd5b80637069e746116103945780637069e74614610ac5578063715018a614610adb578063728345db14610af057600080fd5b8063673a2a1f14610a835780636bda157714610aa557600080fd5b80635b4eafe0116104115780635d80ca32116103eb5780635d80ca3214610a375780635fef764314610a4d578063611d760c14610a6357600080fd5b80635b4eafe0146109b45780635ca2b650146109f75780635cb092a214610a1757600080fd5b80635267e1d6116104425780635267e1d61461095e578063567e98f91461098b57806356e4d6c2146109a157600080fd5b80634e9b426d1461091b5780634f9a8d8f1461094857600080fd5b806322704bdd116105165780633219d600116104ca578063379b046a116104a4578063379b046a146108d25780633b7d0946146108e85780633f3afe011461090857600080fd5b80633219d6001461085e57806336e98ca81461089d57806337154263146108bd57600080fd5b8063251441a9116104fb578063251441a91461080b578063264762041461082b5780632bafde8d1461083e57600080fd5b806322704bdd146107d657806322e3d986146107f657600080fd5b8063129bd1281161056d5780631555371c116105525780631555371c14610725578063159e0a951461073a5780631fb31e431461075a57600080fd5b8063129bd128146106cd5780631345b8a5146106ed57600080fd5b80630ac6e2911161059e5780630ac6e291146106555780630b770cdf1461067557806311f86c99146106ad57600080fd5b8063028b8bdb146105dc57806303a810651461060557600080fd5b366105d757604051631574f9f360e01b815260040160405180910390fd5b600080fd5b3480156105e857600080fd5b506105f260155481565b6040519081526020015b60405180910390f35b34801561061157600080fd5b5061065361062036600461553f565b6001600160a01b039283166000908152602360209081526040808320949095168252928352838120918152915290812055565b005b34801561066157600080fd5b506106536106703660046155cc565b6111d9565b34801561068157600080fd5b50602554610695906001600160a01b031681565b6040516001600160a01b0390911681526020016105fc565b3480156106b957600080fd5b506105f26106c836600461553f565b6117cd565b3480156106d957600080fd5b506105f26106e836600461567c565b611803565b3480156106f957600080fd5b506105f26107083660046156b5565b602260209081526000928352604080842090915290825290205481565b34801561073157600080fd5b50610653611830565b34801561074657600080fd5b506106536107553660046156da565b6118bb565b34801561076657600080fd5b506107a46107753660046156da565b6001600160a01b03166000908152601f6020526040902060010154608081901b91600160801b90910460f01b90565b604080516fffffffffffffffffffffffffffffffff1990931683526001600160f01b03199091166020830152016105fc565b3480156107e257600080fd5b506106536107f13660046156f7565b61193f565b34801561080257600080fd5b506105f261197c565b34801561081757600080fd5b5061065361082636600461553f565b6119c3565b6106536108393660046156da565b611a81565b34801561084a57600080fd5b506106536108593660046156f7565b611b04565b34801561086a57600080fd5b5061088d6108793660046156da565b602080526000908152604090205460ff1681565b60405190151581526020016105fc565b3480156108a957600080fd5b506106536108b83660046157c7565b611b84565b3480156108c957600080fd5b50610653611c38565b3480156108de57600080fd5b506105f2601b5481565b3480156108f457600080fd5b506106536109033660046156da565b612031565b6106536109163660046158b4565b612080565b34801561092757600080fd5b5061093b6109363660046156da565b6123eb565b6040516105fc9190615930565b34801561095457600080fd5b506105f260175481565b34801561096a57600080fd5b506105f26109793660046156da565b601c6020526000908152604090205481565b34801561099757600080fd5b506105f2601d5481565b6106536109af3660046159ab565b612497565b3480156109c057600080fd5b506105f26109cf3660046156b5565b60009182526022602090815260408084206001600160a01b0393909316845291905290205490565b348015610a0357600080fd5b50610653610a123660046156f7565b601655565b348015610a2357600080fd5b50610653610a323660046157c7565b6125cc565b348015610a4357600080fd5b506105f2600f5481565b348015610a5957600080fd5b506105f2600d5481565b348015610a6f57600080fd5b50610653610a7e3660046156da565b6125d4565b348015610a8f57600080fd5b50610a986125df565b6040516105fc9190615a12565b348015610ab157600080fd5b506105f2610ac036600461567c565b6125f0565b348015610ad157600080fd5b506105f2601a5481565b348015610ae757600080fd5b50610653612796565b348015610afc57600080fd5b506105f2610b0b3660046156b5565b602160209081526000928352604080842090915290825290205481565b348015610b3457600080fd5b50610a98610b433660046156da565b6127aa565b348015610b5457600080fd5b506105f2610b6336600461567c565b6001600160a01b039182166000908152600c602090815260408083209390941682529182528281206016548252909152205490565b348015610ba457600080fd5b506105f260165481565b348015610bba57600080fd5b50610653610bc9366004615a77565b6127ce565b348015610bda57600080fd5b50610653610be93660046156da565b612864565b348015610bfa57600080fd5b50610653610c093660046156f7565b6128e4565b348015610c1a57600080fd5b50610653610c29366004615abc565b612930565b348015610c3a57600080fd5b507f9016d09d72d40fdae2fd8ceac6b6234c7706214fd39c1cd1e609a0528c199300546001600160a01b0316610695565b348015610c7757600080fd5b50610c9b610c86366004615b2e565b60006020819052908152604090205460e01b81565b6040516001600160e01b031990911681526020016105fc565b348015610cc057600080fd5b506105f2610ccf36600461567c565b612993565b348015610ce057600080fd5b50610ce9612b08565b6040516105fc929190615b85565b348015610d0357600080fd5b50610d17610d123660046156da565b612b6b565b6040516105fc93929190615ba7565b348015610d3257600080fd5b506105f260195481565b348015610d4857600080fd5b50610653610d57366004615bee565b612c1f565b348015610d6857600080fd5b50610653610d773660046156f7565b612c93565b348015610d8857600080fd5b50610a98610d973660046156da565b612cf7565b348015610da857600080fd5b506105f2610db736600461567c565b601260209081526000928352604080842090915290825290205481565b348015610de057600080fd5b50610a98612d1b565b348015610df557600080fd5b506105f2610e0436600461567c565b601460209081526000928352604080842090915290825290205481565b348015610e2d57600080fd5b5061088d610e3c3660046156da565b612d7d565b348015610e4d57600080fd5b50610653612d8a565b348015610e6257600080fd5b506105f260185481565b348015610e7857600080fd5b50610653610e873660046156f7565b612de8565b348015610e9857600080fd5b50610653610ea73660046158b4565b612e17565b348015610eb857600080fd5b50610ecc610ec7366004615bee565b61322a565b6040516105fc9190615c23565b348015610ee557600080fd5b5061088d610ef4366004615c51565b6132d2565b348015610f0557600080fd5b506105f26134a1565b348015610f1a57600080fd5b50610653610f293660046158b4565b6134c0565b348015610f3a57600080fd5b50610653610f493660046156da565b61356a565b348015610f5a57600080fd5b50610653610f693660046156b5565b6137e3565b348015610f7a57600080fd5b50610a98613926565b348015610f8f57600080fd5b506105f2600e5481565b348015610fa557600080fd5b506105f2610fb43660046156da565b60116020526000908152604090205481565b348015610fd257600080fd5b50610a98613932565b348015610fe757600080fd5b50601e54610695906001600160a01b031681565b34801561100757600080fd5b506106536110163660046158b4565b6001600160a01b039091166000908152601c6020526040902055565b34801561103e57600080fd5b5061065361104d3660046156da565b602680546001600160a01b0319166001600160a01b0392909216919091179055565b34801561107b57600080fd5b506105f261108a36600461567c565b601060209081526000928352604080842090915290825290205481565b3480156110b357600080fd5b506106536110c23660046156da565b601e80546001600160a01b0319166001600160a01b0392909216919091179055565b3480156110f057600080fd5b5061065361393e565b34801561110557600080fd5b50610653613a7e565b34801561111a57600080fd5b506105f2610bb881565b34801561113057600080fd5b5060646105f2565b34801561114457600080fd5b506106536111533660046156da565b613add565b34801561116457600080fd5b506106536111733660046158b4565b613b18565b34801561118457600080fd5b50600161088d565b34801561119857600080fd5b506105f26111a73660046156da565b60136020526000908152604090205481565b3480156111c557600080fd5b506106536111d43660046156da565b613bd1565b7ff0c57e16840df040f15088dc2f81fe391c3923bec73e23a9662efc9c229c6a00805468010000000000000000810460ff16159067ffffffffffffffff166000811580156112245750825b905060008267ffffffffffffffff1660011480156112415750303b155b90508115801561124f575080155b1561126d5760405163f92ee8a960e01b815260040160405180910390fd5b845467ffffffffffffffff1916600117855583156112a157845468ff00000000000000001916680100000000000000001785555b6001600160a01b038b166112c85760405163d92e233d60e01b815260040160405180910390fd5b6112d18a613bda565b876112df60408c018c615c6d565b6112eb91506002615ccd565b146113085760405162d6988760e81b815260040160405180910390fd5b8561131660408c018c615c6d565b905014611336576040516320041afd60e01b815260040160405180910390fd5b61133f8b613d3d565b611347613d4e565b61135460208b018b6156da565b601e80546001600160a01b0319166001600160a01b039290921691909117905561138460408b0160208c016156da565b602580546001600160a01b0319166001600160a01b03929092169190911790553660006113b460408d018d615c6d565b9150915060005b818110156115d75760008383838181106113d7576113d7615ce4565b90506020020160208101906113ec91906156da565b6001600160a01b0316036114135760405163d92e233d60e01b815260040160405180910390fd5b61144483838381811061142857611428615ce4565b905060200201602081019061143d91906156da565b6000613d5e565b61147383838381811061145957611459615ce4565b905060200201602081019061146e91906156da565b613dbd565b8b8b611480836002615ccd565b81811061148f5761148f615ce4565b905060200201358c8c8360026114a59190615ccd565b6114b0906001615cfa565b8181106114bf576114bf615ce4565b905060200201356040516020016114e0929190918252602082015260400190565b604051602081830303815290604052601f600085858581811061150557611505615ce4565b905060200201602081019061151a91906156da565b6001600160a01b0316815260208101919091526040016000209061153e9082615d97565b5089898281811061155157611551615ce4565b90506020020160208101906115669190615e57565b601f600085858581811061157c5761157c615ce4565b905060200201602081019061159191906156da565b6001600160a01b031681526020810191909152604001600020600190810180546fffffffffffffffffffffffffffffffff191660809390931c92909217909155016113bb565b5060408051600580825260c082019092526000916020820160a0803683370190505090506802b5e3af16b18800008160008151811061161857611618615ce4565b60200260200101818152505068056bc75e2d631000008160018151811061164157611641615ce4565b602002602001018181525050680821ab0d44149800008160028151811061166a5761166a615ce4565b602002602001018181525050680ad78ebc5ac62000008160038151811061169357611693615ce4565b602002602001018181525050680d8d726b7177a80000816004815181106116bc576116bc615ce4565b60200260200101818152505061173d6040518060400160405280601d81526020017f73657444656c656761746f724d696e5374616b652875696e74323536290000008152506040518060400160405280601381526020017f64656c656761746f724d696e5374616b65282900000000000000000000000000815250836125cc565b50505060608a0135600e5560808a0135600d5560a08a0135600f5560c08a01356017556101008a01356015554260195560e08a013560185583156117c057845468ff000000000000000019168555604051600181527fc7f505b2f371ae2175ee4913f4499e1f2633a7b5936321eed1cdaeb6115181d29060200160405180910390a15b5050505050505050505050565b6001600160a01b0380841660009081526023602090815260408083209386168352928152828220848352905220545b9392505050565b6001600160a01b038083166000908152602460209081526040808320938516835292905220545b92915050565b601e546001600160a01b0316331480159061185657506026546001600160a01b03163314155b15611873576040516282b42960e81b815260040160405180910390fd5b600061187f6005613dd2565b905060005b81518110156118b7576118af8282815181106118a2576118a2615ce4565b6020026020010151613ddf565b600101611884565b5050565b6118c3613e25565b6001600160a01b0381166118ea5760405163d92e233d60e01b815260040160405180910390fd5b602580546001600160a01b0319166001600160a01b0383169081179091556040519081527fd4244d1f8acb4860e17399636c6b7875c75656aafb5cb3d0163d7305eace7172906020015b60405180910390a150565b611947613e25565b600a8111158061195957506017548110155b1561197757604051638826666f60e01b815260040160405180910390fd5b601855565b6019546017546000919015611992576001611995565b60005b60ff16601b54601754836119a99190615cfa565b6119b39190615cfa565b6119bd9190615e72565b91505090565b3a6000036119e457604051630e661aed60e41b815260040160405180910390fd5b816001600160a01b0316836001600160a01b031603611a1657604051630a5eddd560e01b815260040160405180910390fd5b33611a22848284613e80565b611a2d83828461412e565b601654604080516001600160a01b0387811682526020820186905280851692908716917f4480d8e4b1e9095b94bf513961d26fe1d32386ebdd103d18fe8738cf4b2223ff910160405180910390a450505050565b3a600003611aa257604051630e661aed60e41b815260040160405180910390fd5b3334611aaf83838361412e565b601654826001600160a01b0316846001600160a01b03167f2273de02cb1f69ba6259d22c4bc22c60e4c94c193265ef6afee324a04a9b6d2284604051611af791815260200190565b60405180910390a4505050565b611b0c613e25565b80611b236000356001600160e01b031916826132d2565b611b48576040516373330d9b60e01b8152600481018290526024015b60405180910390fd5b600e8290556040518281527ffee02ce7aa40f9c49eaabd26d404fa88714b97cb209af8954cfd5eeb8213b93e9060200160405180910390a15050565b611b8c613e25565b60408051808201825283516020808601919091206001600160e01b031990811683528183018581528751888401209091166000908152808352939093208251815463ffffffff191660e09190911c17815592518051929392611bf492600185019201906154b0565b509050507f3d45a310c5a076ea07aa2947ca3c06cc2a8b3571065867ad6f8e7096a2c9d50a838383604051611c2b93929190615e85565b60405180910390a1505050565b3a600003611c5957604051630e661aed60e41b815260040160405180910390fd5b600080611c666003613dd2565b90508051600003611c8a57604051631c369b4560e21b815260040160405180910390fd5b60005b8151811015611e70576000828281518110611caa57611caa615ce4565b60200260200101519050611cbd81614515565b80611d335750601e54604051639d6fc1d160e01b81526001600160a01b03838116600483015290911690639d6fc1d190602401602060405180830381865afa158015611d0d573d6000803e3d6000fd5b505050506040513d601f19601f82011682018060405250810190611d319190615ebe565b155b15611d3e5750611e68565b611d49600382614553565b506001600160a01b038116600090815260208080526040808320805460ff19166001179055601c9091528120805490829055601d805491928392611d8e908490615e72565b9091555060009050611d9f83612cf7565b905060005b8151811015611e0a576000828281518110611dc157611dc1615ce4565b6020908102919091018101516001600160a01b0380881660009081526014845260408082209284168252919093528220919091559050611e018582614568565b50600101611da4565b50611e158287615cfa565b9550826001600160a01b0316336001600160a01b03167f8e6a4ccd7dccdca9ac211d00fcc3fa7c71be75ff73d3a35f63ea023173cc100484604051611e5c91815260200190565b60405180910390a35050505b600101611c8d565b5081600003611e9257604051631c369b4560e21b815260040160405180910390fd5b6000611e9f600284615ef6565b90506000611ead8285615e72565b90506000601e60009054906101000a90046001600160a01b03166001600160a01b03166356b54bae6040518163ffffffff1660e01b8152600401602060405180830381865afa158015611f04573d6000803e3d6000fd5b505050506040513d601f19601f82011682018060405250810190611f289190615f18565b90506000816001600160a01b031663732524946040518163ffffffff1660e01b8152600401602060405180830381865afa158015611f6a573d6000803e3d6000fd5b505050506040513d601f19601f82011682018060405250810190611f8e9190615f18565b9050816001600160a01b031663af182535846040518263ffffffff1660e01b81526004016000604051808303818588803b158015611fcb57600080fd5b505af1158015611fdf573d6000803e3d6000fd5b5050505050611fee81856145ca565b604080518481526020810186905233917f1c113e6bae9530fea40323e612aeb0cb7817dedb5a0b0f6bdfbff97d55920dc7910160405180910390a2505050505050565b601e546001600160a01b0316331480159061205757506026546001600160a01b03163314155b15612074576040516282b42960e81b815260040160405180910390fd5b61207d81613ddf565b50565b601e60009054906101000a90046001600160a01b03166001600160a01b03166356b54bae6040518163ffffffff1660e01b8152600401602060405180830381865afa1580156120d3573d6000803e3d6000fd5b505050506040513d601f19601f820116820180604052508101906120f79190615f18565b6001600160a01b0316336001600160a01b031614612127576040516282b42960e81b815260040160405180910390fd5b34156118b75760165460008181526021602090815260408083206001600160a01b03871680855290835281842054948452602283528184209084529091528120543492918183111561230a57600061217e87612cf7565b9050600061218c8486615e72565b9050600061219a8883615ccd565b6121a5896064615e72565b6121af9087615ccd565b1190506121bf8186888a8c614671565b935060005b835181101561230157600061220283896121fa6016548f8a88815181106121ed576121ed615ce4565b60200260200101516146c0565b878d8f61475f565b905080601460008d6001600160a01b03166001600160a01b03168152602001908152602001600020600087858151811061223e5761223e615ce4565b60200260200101516001600160a01b03166001600160a01b0316815260200190815260200160002060008282546122759190615cfa565b90915550506001600160a01b038b166000908152600c6020526040812086518392908890869081106122a9576122a9615ce4565b60200260200101516001600160a01b03166001600160a01b031681526020019081526020016000206000601654815260200190815260200160002060008282546122f39190615cfa565b9091555050506001016121c4565b5050505061230d565b50825b6001600160a01b03861660009081526014602090815260408083209091528120805483929061233d908490615cfa565b90915550506001600160a01b0386166000908152601c60205260408120805486929061236a908490615cfa565b9250508190555083601d60008282546123839190615cfa565b909155506123929050866147cd565b6016546001600160a01b0387167f72093068b9f28053bd924ac15d7710b987f9b6ef1e0f89f47d8b4bd7cac776dc836123cb8189615e72565b6040805192835260208301919091520160405180910390a3505050505050565b6001600160a01b0381166000908152601f6020526040902080546060919061241290615d0d565b80601f016020809104026020016040519081016040528092919081815260200182805461243e90615d0d565b801561248b5780601f106124605761010080835404028352916020019161248b565b820191906000526020600020905b81548152906001019060200180831161246e57829003601f168201915b50505050509050919050565b3a6000036124b857604051630e661aed60e41b815260040160405180910390fd5b601e54604051630526083960e11b81526001600160a01b0386811660048301523360248301819052923492911690630a4c107290604401600060405180830381600087803b15801561250957600080fd5b505af115801561251d573d6000803e3d6000fd5b5050505061252c82838361412e565b6001600160a01b0382166000908152601f6020526040902061254f858783615f35565b506001600160a01b0382166000818152601f602090815260409182902060010180546fffffffffffffffffffffffffffffffff1916608088901c179055601654915184815291929182917f2273de02cb1f69ba6259d22c4bc22c60e4c94c193265ef6afee324a04a9b6d22910160405180910390a4505050505050565b611b8c6148ba565b61207d816001613d5e565b60606125eb6001613dd2565b905090565b601e546040516253517560e01b81526001600160a01b03848116600483015260009283929116906253517590602401602060405180830381865afa15801561263c573d6000803e3d6000fd5b505050506040513d601f19601f820116820180604052508101906126609190615f18565b905061268181846001600160a01b0316866001600160a01b03161415614908565b15806126a457506001600160a01b038416600090815260208052604090205460ff165b156126b357600091505061182a565b6001600160a01b03848116600090815260146020908152604080832087851684529091529081902054601e54915163a0d16cad60e01b815284841660048201529092919091169063a0d16cad90602401602060405180830381865afa158015612720573d6000803e3d6000fd5b505050506040513d601f19601f820116820180604052508101906127449190615ebe565b61275157915061182a9050565b6001600160a01b038581166000908152600c6020908152604080832093881683529281528282206016548352905220548082111561278d578091505b50949350505050565b61279e613e25565b6127a86000614a12565b565b6001600160a01b0381166000908152600b6020526040902060609061182a90613dd2565b601e546001600160a01b031633148015906127f457506026546001600160a01b03163314155b15612811576040516282b42960e81b815260040160405180910390fd5b6001600160a01b039092166000908152601f60205260409020600101805460f09390931c600160801b0271ffffffffffffffffffffffffffffffffffff1990931660809290921c91909117919091179055565b601e546001600160a01b0316331480159061288a57506026546001600160a01b03163314155b156128a7576040516282b42960e81b815260040160405180910390fd5b600d546001600160a01b03821660009081526014602090815260408083209091529020541061207d576128db816001613d5e565b61207d816147cd565b601e546001600160a01b0316331480159061290a57506026546001600160a01b03163314155b15612927576040516282b42960e81b815260040160405180910390fd5b60195543601a55565b336000908152601f6020526040902061294a848683615f35565b50336000908152601f60205260409020600101805460f09290921c600160801b0271ffffffffffffffffffffffffffffffffffff1990921660809390931c929092171790555050565b601e546040516253517560e01b81526001600160a01b03848116600483015260009283929116906253517590602401602060405180830381865afa1580156129df573d6000803e3d6000fd5b505050506040513d601f19601f82011682018060405250810190612a039190615f18565b9050612a2481846001600160a01b0316866001600160a01b03161415614908565b612a3257600091505061182a565b601e5460405163a0d16cad60e01b81526001600160a01b0383811660048301529091169063a0d16cad90602401602060405180830381865afa158015612a7c573d6000803e3d6000fd5b505050506040513d601f19601f82011682018060405250810190612aa09190615ebe565b612aae57600091505061182a565b6001600160a01b038481166000818152600c602090815260408083209488168084529482528083206016548452825280832054938352601482528083209483529390529190912054612b009190615e72565b949350505050565b60606000600860095481805480602002602001604051908101604052809291908181526020018280548015612b5c57602002820191906000526020600020905b815481526020019060010190808311612b48575b50505050509150915091509091565b601f60205260009081526040902080548190612b8690615d0d565b80601f0160208091040260200160405190810160405280929190818152602001828054612bb290615d0d565b8015612bff5780601f10612bd457610100808354040283529160200191612bff565b820191906000526020600020905b815481529060010190602001808311612be257829003601f168201915b50505060019093015491925050608081901b90600160801b900460f01b83565b612c27613e25565b80516020808301919091206001600160e01b03191660009081529081905260408120805463ffffffff1916815590612c6260018301826154fb565b50507f92d44565a40fe29702ffa146ddaa3bb133d4077f5312d682d0a2632a9bc73a8a816040516119349190615930565b601e546001600160a01b03163314801590612cb957506026546001600160a01b03163314155b15612cd6576040516282b42960e81b815260040160405180910390fd5b60185481601b54612ce79190615cfa565b612cf19190615cfa565b601b5550565b6001600160a01b0381166000908152600a6020526040902060609061182a90613dd2565b60606007805480602002602001604051908101604052809291908181526020018280548015612d7357602002820191906000526020600020905b81546001600160a01b03168152600190910190602001808311612d55575b5050505050905090565b600061182a600183614a83565b601e546001600160a01b03163314801590612db057506026546001600160a01b03163314155b15612dcd576040516282b42960e81b815260040160405180910390fd5b601854601b6000828254612de19190615cfa565b9091555050565b612df0613e25565b6018548111612e125760405163160ac89160e31b815260040160405180910390fd5b601755565b3a600003612e3857604051630e661aed60e41b815260040160405180910390fd5b6001600160a01b038216612e5f5760405163d92e233d60e01b815260040160405180910390fd5b80600003612e8057604051633ca0029d60e01b815260040160405180910390fd5b601e546040516253517560e01b81526001600160a01b0384811660048301523392612f0c929116906253517590602401602060405180830381865afa158015612ecd573d6000803e3d6000fd5b505050506040513d601f19601f82011682018060405250810190612ef19190615f18565b846001600160a01b0316836001600160a01b03161415614908565b612f29576040516315e34e0560e01b815260040160405180910390fd5b6001600160a01b0380841660008181526010602090815260408083209486168084529482528083205484845260118352818420546014845282852096855295835281842054948452601c9092528220549093929186131561303657856000612f918988612993565b905080821115612fbe57604051632de4882160e01b81526004810182905260248101839052604401611b3f565b612fc88287615cfa565b9550612fd48286615cfa565b9450612fe08285615e72565b9350612fec8284615e72565b925081601d60008282546130009190615e72565b90915550506016546001600160a01b03808b166000908152601260209081526040808320938c16835292905220555061308c9050565b600061304187615ff6565b905061304d8186615e72565b94506130598185615e72565b93506130658184615cfa565b92506130718183615cfa565b915080601d60008282546130859190615cfa565b9091555050505b6001600160a01b038088166000818152601060209081526040808320948a1680845294825280832089905583835260118252808320889055601482528083208584528252808320879055838352601c9091529020839055900361315b5781158015906130f95750600d5482105b1561313157604051636fe84f3d60e01b81526001600160a01b0380891660048301528616602482015260448101879052606401611b3f565b6000861315613150578160000361314b5761314b87613dbd565b6131c8565b61314b876001613d5e565b811580159061316b5750600e5482105b156131a357604051636fe84f3d60e01b81526001600160a01b0380891660048301528616602482015260448101879052606401611b3f565b60008613156131be578160000361314b5761314b8786614568565b6131c88786614aa5565b6131d1876147cd565b601654856001600160a01b0316886001600160a01b03167f80d5c777e5f7ac6ee89723223803ca5c0ec0204f89e99c1b0cde973c66a645948960405161321991815260200190565b60405180910390a450505050505050565b60408051808201909152600081526060602082015281516020808401919091206001600160e01b0319908116600090815280835260409081902081518083018352815460e01b90931683526001810180548351818702810187019094528084529394919385830193928301828280156132c257602002820191906000526020600020905b8154815260200190600101908083116132ae575b5050505050815250509050919050565b6001600160e01b031980831660009081526020818152604080832081518083018352815460e01b90951685526001810180548351818602810186019094528084529495869590949293858401939092919083018282801561335257602002820191906000526020600020905b81548152602001906001019080831161333e575b505050505081525050905080602001515160000361337457600091505061182a565b6020810151815160009061338790614ad2565b905060005b825181101561349457818382815181106133a8576133a8615ce4565b60200260200101510361348c5760008082116133de57836000815181106133d1576133d1615ce4565b6020026020010151613403565b836133ea600184615e72565b815181106133fa576133fa615ce4565b60200260200101515b90506000600185516134159190615e72565b831061344757846001865161342a9190615e72565b8151811061343a5761343a615ce4565b602002602001015161346c565b84613453846001615cfa565b8151811061346357613463615ce4565b60200260200101515b905081881415801561347e5750808814155b15965050505050505061182a565b60010161338c565b5060009695505050505050565b60006018546017546019546134b69190615cfa565b6125eb9190615e72565b6025546001600160a01b031633146134ea576040516282b42960e81b815260040160405180910390fd5b601e546040516307b9342f60e21b81526001600160a01b0384811660048301526000921690631ee4d0bc90602401602060405180830381865afa158015613535573d6000803e3d6000fd5b505050506040513d601f19601f820116820180604052508101906135599190615f18565b90506135658183614ba0565b505050565b3a60000361358b57604051630e661aed60e41b815260040160405180910390fd5b613593614c4a565b6001600160a01b038116600090815260126020908152604080832033808552925290912054601654116135ec57604051630b06352b60e31b81526001600160a01b03808416600483015282166024820152604401611b3f565b601e546040516253517560e01b81526001600160a01b0384811660048301526136759216906253517590602401602060405180830381865afa158015613636573d6000803e3d6000fd5b505050506040513d601f19601f8201168201806040525081019061365a9190615f18565b836001600160a01b0316836001600160a01b03161415614908565b613692576040516315e34e0560e01b815260040160405180910390fd5b6001600160a01b038083166000908152601060209081526040808320938516835292905290812054908190036136db57604051633ca0029d60e01b815260040160405180910390fd5b6001600160a01b03808416600081815260106020908152604080832094871683529381528382208290559181526011909152205461371a908290615e72565b6001600160a01b038085166000908152601160209081526040808320949094556014815283822092861682529190915290812054900361375e5761375e8383614c94565b61376882826145ca565b601654826001600160a01b0316846001600160a01b03167ff380b0bc887e00f5b50d3c9d4eaaf5c9a0afd97b956316b995159384c4ede9b3846040516137b091815260200190565b60405180910390a4505061207d60017f9b779b17422d0df92223018b32b4d1fa46e071723d6817e2486d003becc55f0055565b601e60009054906101000a90046001600160a01b03166001600160a01b03166356b54bae6040518163ffffffff1660e01b8152600401602060405180830381865afa158015613836573d6000803e3d6000fd5b505050506040513d601f19601f8201168201806040525081019061385a9190615f18565b6001600160a01b0316336001600160a01b03161461388a576040516282b42960e81b815260040160405180910390fd5b60008281526021602090815260408083206001600160a01b038516845290915281205490036118b7576001600160a01b0381166000908152601c6020526040812054908190036138d957505050565b60008381526021602090815260408083206001600160a01b038616808552908352818420949094556014825280832082528083205486845260228352818420948452939091529020555050565b60606125eb6005613dd2565b60606125eb6003613dd2565b3a60000361395f57604051630e661aed60e41b815260040160405180910390fd5b601e546040516253517560e01b81523360048201819052916000916001600160a01b03909116906253517590602401602060405180830381865afa1580156139ab573d6000803e3d6000fd5b505050506040513d601f19601f820116820180604052508101906139cf9190615f18565b90506016546000148015613a4c5750601e5460405163facd743b60e01b81526001600160a01b0383811660048301529091169063facd743b90602401602060405180830381865afa158015613a28573d6000803e3d6000fd5b505050506040513d601f19601f82011682018060405250810190613a4c9190615ebe565b15613a75576040516303d71f2d60e51b81526001600160a01b0383166004820152602401611b3f565b6118b782613ddf565b601e546001600160a01b03163314801590613aa457506026546001600160a01b03163314155b15613ac1576040516282b42960e81b815260040160405180910390fd5b60168054906000613ad183616012565b90915550506000601b55565b613ae5613e25565b6001600160a01b038116613b0f57604051631e4fbdf760e01b815260006004820152602401611b3f565b61207d81614a12565b3a600003613b3957604051630e661aed60e41b815260040160405180910390fd5b613b41614c4a565b33613b4d838284613e80565b613b5781836145ca565b601654816001600160a01b0316846001600160a01b03167fa7c0f0cac6bd4d18042007706c84a8abe823751cf289b69c01e83eef7b5915c785604051613b9f91815260200190565b60405180910390a4506118b760017f9b779b17422d0df92223018b32b4d1fa46e071723d6817e2486d003becc55f0055565b61207d81614dea565b60c08101351580613bf457508061010001358160c0013511155b15613c125760405163c671116b60e01b815260040160405180910390fd5b806101000135600003613c38576040516332154b4760e01b815260040160405180910390fd5b60e08101351580613c5157508060c001358160e0013510155b15613c6f57604051630685efe960e01b815260040160405180910390fd5b6000613c7e60208301836156da565b6001600160a01b031603613ca55760405163d92e233d60e01b815260040160405180910390fd5b613cb26040820182615c6d565b9050600003613cd457604051635c9a24ed60e11b815260040160405180910390fd5b60608101351580613ce757506080810135155b15613d155760405163633373e160e11b81526080820135600482015260608201356024820152604401611b3f565b80608001358160a001351161207d57604051631c6d3b1560e01b815260040160405180910390fd5b613d456148ba565b61207d81614df5565b613d566148ba565b6127a8614dfd565b613d6782612d7d565b613da257613d76600183614e05565b506064613d836001614e1a565b1115613da25760405163398dcd9d60e21b815260040160405180910390fd5b613dad600383614553565b5080156118b7576118b782614e24565b613dc8600582614e05565b5061207d81614f19565b606060006117fc83615136565b613dea600182614553565b50613df481614515565b15613e0a57613e04600382614553565b50613e13565b613e1381614dea565b613e1c81614f19565b61207d81615191565b33613e577f9016d09d72d40fdae2fd8ceac6b6234c7706214fd39c1cd1e609a0528c199300546001600160a01b031690565b6001600160a01b0316146127a85760405163118cdaa760e01b8152336004820152602401611b3f565b6001600160a01b038316613ea75760405163d92e233d60e01b815260040160405180910390fd5b80600003613ec857604051633ca0029d60e01b815260040160405180910390fd5b6000613ed484846125f0565b905080821115613f0157604051632de4882160e01b81526004810182905260248101839052604401611b3f565b6001600160a01b038085166000908152601460209081526040808320938716835292905290812054613f34908490615e72565b90506000846001600160a01b0316866001600160a01b031614613f5957600e54613f5d565b600d545b90508115801590613f6d57508082105b15613fa557604051639e612d5760e01b81526001600160a01b0380881660048301528616602482015260448101859052606401611b3f565b856001600160a01b0316856001600160a01b03161461403a57601e546040516253517560e01b81526001600160a01b03888116600483015260009216906253517590602401602060405180830381865afa158015614007573d6000803e3d6000fd5b505050506040513d601f19601f8201168201806040525081019061402b9190615f18565b905061403887828861519c565b505b6001600160a01b038681166000818152601460209081526040808320948a16808452948252808320879055928252600c815282822093825292835281812060165482529092529020548481101561409257600061409c565b61409c8582615e72565b6001600160a01b038089166000818152600c60209081526040808320948c1683529381528382206016548352815283822094909455908152601c909252812080548792906140eb908490615e72565b9250508190555084601d60008282546141049190615e72565b9091555050600083900361411c5761411c8787614c94565b614125876147cd565b50505050505050565b6001600160a01b0383166141555760405163d92e233d60e01b815260040160405180910390fd5b601e546040516253517560e01b81526001600160a01b03858116600483015260009216906253517590602401602060405180830381865afa15801561419e573d6000803e3d6000fd5b505050506040513d601f19601f820116820180604052508101906141c29190615f18565b90506001600160a01b0381166141f657604051632670461960e11b81526001600160a01b0385166004820152602401611b3f565b8160000361422a5760405163e59f5c3960e01b81526001600160a01b03808616600483015284166024820152604401611b3f565b601e54604051635491295760e11b81526001600160a01b0383811660048301529091169063a92252ae90602401602060405180830381865afa158015614274573d6000803e3d6000fd5b505050506040513d601f19601f820116820180604052508101906142989190615ebe565b156142c157604051631ccf966d60e21b81526001600160a01b0385166004820152602401611b3f565b6001600160a01b038416600090815260208052604090205460ff16156143055760405163078137eb60e41b81526001600160a01b0385166004820152602401611b3f565b6001600160a01b03808516600081815260146020908152604080832094881680845294909152812054929091149161433e908590615cfa565b9050600082156143515750600d546143a0565b50600e546001600160a01b038716600090815260146020908152604080832090915281205490036143a05760405163cbbeb0bd60e01b81526001600160a01b0388166004820152602401611b3f565b808210156143d45760405163e59f5c3960e01b81526001600160a01b03808916600483015287166024820152604401611b3f565b600f546001600160a01b0388166000908152601c60205260409020546143fb908790615cfa565b111561442d57604051632c2b174160e21b81526001600160a01b03808916600483015287166024820152604401611b3f565b6001600160a01b038088166000908152600c60209081526040808320938a16835292815282822060165483529052908120805487929061446e908490615cfa565b90915550506001600160a01b0387166000908152601c60205260408120805487929061449b908490615cfa565b9250508190555084601d60008282546144b49190615cfa565b909155505082156144cf576144ca876001613d5e565b6144e4565b6144d98787614aa5565b6144e487858861519c565b6001600160a01b038088166000908152601460209081526040808320938a16835292905220829055614125876147cd565b6001600160a01b0381166000908152601c602052604081205415801561182a5750506001600160a01b03166000908152601160205260409020541590565b60006117fc836001600160a01b0384166152b8565b6001600160a01b0382166000908152600a6020526040902061458a9082614553565b506001600160a01b03808316600090815260106020908152604080832093851683529290522054156145c0576118b782826153ab565b6118b782826153cd565b804710156145eb57604051631e9acf1760e31b815260040160405180910390fd5b6000826001600160a01b03168260405160006040518083038185875af1925050503d8060008114614638576040519150601f19603f3d011682016040523d82523d6000602084013e61463d565b606091505b505090508061356557604051630e21dcbb60e11b81526001600160a01b038416600482015260248101839052604401611b3f565b600084158061467e575083155b1561468b575060006146b7565b600086156146ac5784868502816146a4576146a4615ee0565b0490506146b4565b506064828402045b90505b95945050505050565b6000836000036146d2575060006117fc565b6001600160a01b0380841660009081526024602090815260408083209386168352929052205484900361473357506001600160a01b0380831660009081526023602090815260408083209385168352928152828220868352905220546117fc565b506001600160a01b038083166000908152601460209081526040808320938516835292905220546117fc565b600084158061476c575083155b80614775575085155b15614782575060006147c3565b600087156147a357868685028161479b5761479b615ee0565b0490506147c0565b846064028360640387860202816147bc576147bc615ee0565b0490505b90505b9695505050505050565b601e546040516253517560e01b81526001600160a01b03838116600483015260009216906253517590602401602060405180830381865afa158015614816573d6000803e3d6000fd5b505050506040513d601f19601f8201168201806040525081019061483a9190615f18565b602554604051633941e77760e21b81526001600160a01b0380841660048301529293506000929091169063e5079ddc90602401602060405180830381865afa15801561488a573d6000803e3d6000fd5b505050506040513d601f19601f820116820180604052508101906148ae919061602b565b90506135658382614ba0565b7ff0c57e16840df040f15088dc2f81fe391c3923bec73e23a9662efc9c229c6a005468010000000000000000900460ff166127a857604051631afcd79f60e31b815260040160405180910390fd5b6000811561499057601e5460405163a881c5fd60e01b81526001600160a01b0385811660048301529091169063a881c5fd90602401602060405180830381865afa15801561495a573d6000803e3d6000fd5b505050506040513d601f19601f8201168201806040525081019061497e9190615ebe565b1561498b5750600061182a565b614a0b565b601e54604051635491295760e11b81526001600160a01b0385811660048301529091169063a92252ae90602401602060405180830381865afa1580156149da573d6000803e3d6000fd5b505050506040513d601f19601f820116820180604052508101906149fe9190615ebe565b15614a0b5750600061182a565b60016117fc565b7f9016d09d72d40fdae2fd8ceac6b6234c7706214fd39c1cd1e609a0528c19930080546001600160a01b031981166001600160a01b03848116918217845560405192169182907f8be0079c531659141344cd1fd0a4f28419497f9722a3daafe3b4186f6b6457e090600090a3505050565b6001600160a01b038116600090815260018301602052604081205415156117fc565b6001600160a01b0382166000908152600a60205260409020614ac79082614e05565b506118b782826153cd565b60408051600481526024810182526020810180517bffffffffffffffffffffffffffffffffffffffffffffffffffffffff166001600160e01b03198516179052905160009190829081903090614b29908590616044565b600060405180830381855afa9150503d8060008114614b64576040519150601f19603f3d011682016040523d82523d6000602084013e614b69565b606091505b509150915081614b8c57604051635fbab09b60e11b815260040160405180910390fd5b808060200190518101906146b7919061602b565b600080614bac846153ef565b9150915081614bbb5750505050565b600060088281548110614bd057614bd0615ce4565b60009182526020808320909101546001600160a01b0388168352601c9091526040822054909250614c02908690615ccd565b90508060088481548110614c1857614c18615ce4565b90600052602060002001819055508082600954614c359190615e72565b614c3f9190615cfa565b600955505050505050565b7f9b779b17422d0df92223018b32b4d1fa46e071723d6817e2486d003becc55f00805460011901614c8e57604051633ee5aeb560e01b815260040160405180910390fd5b60029055565b816001600160a01b0316816001600160a01b031603614da157601e546040516253517560e01b81526001600160a01b03848116600483015260009216906253517590602401602060405180830381865afa158015614cf6573d6000803e3d6000fd5b505050506040513d601f19601f82011682018060405250810190614d1a9190615f18565b601e5460405163facd743b60e01b81526001600160a01b03808416600483015292935091169063facd743b90602401602060405180830381865afa158015614d66573d6000803e3d6000fd5b505050506040513d601f19601f82011682018060405250810190614d8a9190615ebe565b15614d985761356583613dbd565b61356583613ddf565b614dab8282614568565b614db482614515565b156118b757613565600383614553565b60017f9b779b17422d0df92223018b32b4d1fa46e071723d6817e2486d003becc55f0055565b6118b7600382614e05565b613ae56148ba565b614dc46148ba565b60006117fc836001600160a01b038416615461565b600061182a825490565b6001600160a01b0381166000908152601360205260409020546007548082101580614e7f5750826001600160a01b031660078381548110614e6757614e67615ce4565b6000918252602090912001546001600160a01b031614155b15614f10576001600160a01b03831660008181526013602052604081208390556007805460018181019092557fa66cc928b5edb82af9bd49922954155ab7b0942694bea4ce44661d9a8736c6880180546001600160a01b03191690931790925560088054928301815581527ff3f7a9fe364faab93b216da50a3214154f22a0a2b415b23a84c8169e8b636ee3909101555b61356583615191565b60085460075414614f275750565b6001600160a01b03811660009081526013602052604090205460075481108015614f805750816001600160a01b031660078281548110614f6957614f69615ce4565b6000918252602090912001546001600160a01b0316145b156118b75760088181548110614f9857614f98615ce4565b906000526020600020015460095410614fe55760088181548110614fbe57614fbe615ce4565b906000526020600020015460096000828254614fda9190615e72565b90915550614feb9050565b60006009555b600754600090614ffd90600190615e72565b905060006007828154811061501457615014615ce4565b600091825260209091200154600780546001600160a01b03909216925082918590811061504357615043615ce4565b9060005260206000200160006101000a8154816001600160a01b0302191690836001600160a01b031602179055506008828154811061508457615084615ce4565b9060005260206000200154600884815481106150a2576150a2615ce4565b60009182526020808320909101929092556001600160a01b0380841682526013909252604080822086905591861681529081205560078054806150e7576150e7616060565b600082815260209020810160001990810180546001600160a01b0319169055019055600880548061511a5761511a616060565b6001900381819060005260206000200160009055905550505050565b60608160000180548060200260200160405190810160405280929190818152602001828054801561248b57602002820191906000526020600020905b8154815260200190600101908083116151725750505050509050919050565b6118b7600582614553565b601e5460405163a0d16cad60e01b81526001600160a01b0384811660048301529091169063a0d16cad90602401602060405180830381865afa1580156151e6573d6000803e3d6000fd5b505050506040513d601f19601f8201168201806040525081019061520a9190615ebe565b15806152165750601654155b1561522057505050565b6001600160a01b038084166000908152602460209081526040808320938516835292905220546016548110156152b2576001600160a01b0380851660008181526014602090815260408083209487168084529482528083205484845260238352818420868552835281842060168054865290845282852091909155549383526024825280832094835293905291909120555b50505050565b600081815260018301602052604081205480156153a15760006152dc600183615e72565b85549091506000906152f090600190615e72565b905080821461535557600086600001828154811061531057615310615ce4565b906000526020600020015490508087600001848154811061533357615333615ce4565b6000918252602080832090910192909255918252600188019052604090208390555b855486908061536657615366616060565b60019003818190600052602060002001600090559055856001016000868152602001908152602001600020600090556001935050505061182a565b600091505061182a565b6001600160a01b0382166000908152600b602052604090206135659082614e05565b6001600160a01b0382166000908152600b602052604090206135659082614553565b6001600160a01b038116600090815260136020526040812054600754811080156154485750826001600160a01b03166007828154811061543157615431615ce4565b6000918252602090912001546001600160a01b0316145b156154565760019150915091565b506000928392509050565b60008181526001830160205260408120546154a85750815460018181018455600084815260208082209093018490558454848252828601909352604090209190915561182a565b50600061182a565b8280548282559060005260206000209081019282156154eb579160200282015b828111156154eb5782518255916020019190600101906154d0565b506154f7929150615515565b5090565b508054600082559060005260206000209081019061207d91905b5b808211156154f75760008155600101615516565b6001600160a01b038116811461207d57600080fd5b60008060006060848603121561555457600080fd5b833561555f8161552a565b9250602084013561556f8161552a565b929592945050506040919091013590565b60008083601f84011261559257600080fd5b50813567ffffffffffffffff8111156155aa57600080fd5b6020830191508360208260051b85010111156155c557600080fd5b9250929050565b600080600080600080608087890312156155e557600080fd5b86356155f08161552a565b9550602087013567ffffffffffffffff8082111561560d57600080fd5b90880190610120828b03121561562257600080fd5b9095506040880135908082111561563857600080fd5b6156448a838b01615580565b9096509450606089013591508082111561565d57600080fd5b5061566a89828a01615580565b979a9699509497509295939492505050565b6000806040838503121561568f57600080fd5b823561569a8161552a565b915060208301356156aa8161552a565b809150509250929050565b600080604083850312156156c857600080fd5b8235915060208301356156aa8161552a565b6000602082840312156156ec57600080fd5b81356117fc8161552a565b60006020828403121561570957600080fd5b5035919050565b634e487b7160e01b600052604160045260246000fd5b604051601f8201601f1916810167ffffffffffffffff8111828210171561574f5761574f615710565b604052919050565b600082601f83011261576857600080fd5b813567ffffffffffffffff81111561578257615782615710565b615795601f8201601f1916602001615726565b8181528460208386010111156157aa57600080fd5b816020850160208301376000918101602001919091529392505050565b6000806000606084860312156157dc57600080fd5b833567ffffffffffffffff808211156157f457600080fd5b61580087838801615757565b945060209150818601358181111561581757600080fd5b61582388828901615757565b94505060408601358181111561583857600080fd5b8601601f8101881361584957600080fd5b80358281111561585b5761585b615710565b8060051b925061586c848401615726565b818152928201840192848101908a85111561588657600080fd5b928501925b848410156158a45783358252928501929085019061588b565b8096505050505050509250925092565b600080604083850312156158c757600080fd5b82356158d28161552a565b946020939093013593505050565b60005b838110156158fb5781810151838201526020016158e3565b50506000910152565b6000815180845261591c8160208601602086016158e0565b601f01601f19169290920160200192915050565b6020815260006117fc6020830184615904565b60008083601f84011261595557600080fd5b50813567ffffffffffffffff81111561596d57600080fd5b6020830191508360208285010111156155c557600080fd5b80356fffffffffffffffffffffffffffffffff19811681146159a657600080fd5b919050565b600080600080606085870312156159c157600080fd5b84356159cc8161552a565b9350602085013567ffffffffffffffff8111156159e857600080fd5b6159f487828801615943565b9094509250615a07905060408601615985565b905092959194509250565b6020808252825182820181905260009190848201906040850190845b81811015615a535783516001600160a01b031683529284019291840191600101615a2e565b50909695505050505050565b80356001600160f01b0319811681146159a657600080fd5b600080600060608486031215615a8c57600080fd5b8335615a978161552a565b9250615aa560208501615985565b9150615ab360408501615a5f565b90509250925092565b60008060008060608587031215615ad257600080fd5b843567ffffffffffffffff811115615ae957600080fd5b615af587828801615943565b9095509350615b08905060208601615985565b9150615a0760408601615a5f565b80356001600160e01b0319811681146159a657600080fd5b600060208284031215615b4057600080fd5b6117fc82615b16565b60008151808452602080850194506020840160005b83811015615b7a57815187529582019590820190600101615b5e565b509495945050505050565b604081526000615b986040830185615b49565b90508260208301529392505050565b606081526000615bba6060830186615904565b6fffffffffffffffffffffffffffffffff19949094166020830152506001600160f01b031991909116604090910152919050565b600060208284031215615c0057600080fd5b813567ffffffffffffffff811115615c1757600080fd5b612b0084828501615757565b602080825282516001600160e01b03191682820152820151604080830152600090612b006060840182615b49565b60008060408385031215615c6457600080fd5b6158d283615b16565b6000808335601e19843603018112615c8457600080fd5b83018035915067ffffffffffffffff821115615c9f57600080fd5b6020019150600581901b36038213156155c557600080fd5b634e487b7160e01b600052601160045260246000fd5b808202811582820484141761182a5761182a615cb7565b634e487b7160e01b600052603260045260246000fd5b8082018082111561182a5761182a615cb7565b600181811c90821680615d2157607f821691505b602082108103615d4157634e487b7160e01b600052602260045260246000fd5b50919050565b601f821115613565576000816000526020600020601f850160051c81016020861015615d705750805b601f850160051c820191505b81811015615d8f57828155600101615d7c565b505050505050565b815167ffffffffffffffff811115615db157615db1615710565b615dc581615dbf8454615d0d565b84615d47565b602080601f831160018114615dfa5760008415615de25750858301515b600019600386901b1c1916600185901b178555615d8f565b600085815260208120601f198616915b82811015615e2957888601518255948401946001909101908401615e0a565b5085821015615e475787850151600019600388901b60f8161c191681555b5050505050600190811b01905550565b600060208284031215615e6957600080fd5b6117fc82615985565b8181038181111561182a5761182a615cb7565b606081526000615e986060830186615904565b8281036020840152615eaa8186615904565b905082810360408401526147c38185615b49565b600060208284031215615ed057600080fd5b815180151581146117fc57600080fd5b634e487b7160e01b600052601260045260246000fd5b600082615f1357634e487b7160e01b600052601260045260246000fd5b500490565b600060208284031215615f2a57600080fd5b81516117fc8161552a565b67ffffffffffffffff831115615f4d57615f4d615710565b615f6183615f5b8354615d0d565b83615d47565b6000601f841160018114615f955760008515615f7d5750838201355b600019600387901b1c1916600186901b178355615fef565b600083815260209020601f19861690835b82811015615fc65786850135825560209485019460019092019101615fa6565b5086821015615fe35760001960f88860031b161c19848701351681555b505060018560011b0183555b5050505050565b6000600160ff1b820161600b5761600b615cb7565b5060000390565b60006001820161602457616024615cb7565b5060010190565b60006020828403121561603d57600080fd5b5051919050565b600082516160568184602087016158e0565b9190910192915050565b634e487b7160e01b600052603160045260246000fdfea2646970667358221220a092f4b448e15e57123b78d2c9ccfc286a595e77c5f5c236fcb82988ae103d9164736f6c63430008190033",
  "linkReferences": {},
  "deployedLinkReferences": {}
}