{
  "_format": "hh-sol-artifact-1",
  "contractName": "StakingHbbftMock",
  "sourceName": "contracts/mockContracts/StakingHbbftMock.sol",
  "abi": [
    {
      "inputs": [
        {
          "internalType": "address",
          "name": "pool",
          "type": "address"
        },
        {
          "internalType": "address",
          "name": "staker",
          "type": "address"
        }
      ],
      "name": "CannotClaimWithdrawOrderYet",
      "type": "error"
    },
    {
      "inputs": [],
      "name": "GetterCallFailed",
      "type": "error"
    },
    {
      "inputs": [],
      "name": "InitialStakingPoolsListEmpty",
      "type": "error"
    },
    {
      "inputs": [],
      "name": "InsufficientBalance",
      "type": "error"
    },
    {
      "inputs": [
        {
          "internalType": "address",
          "name": "pool",
          "type": "address"
        },
        {
          "internalType": "address",
          "name": "delegator",
          "type": "address"
        }
      ],
      "name": "InsufficientStakeAmount",
      "type": "error"
    },
    {
      "inputs": [],
      "name": "InvalidFixedEpochDuration",
      "type": "error"
    },
    {
      "inputs": [
        {
          "internalType": "uint256",
          "name": "candidateStake",
          "type": "uint256"
        },
        {
          "internalType": "uint256",
          "name": "delegatorStake",
          "type": "uint256"
        }
      ],
      "name": "InvalidInitialStakeAmount",
      "type": "error"
    },
    {
      "inputs": [],
      "name": "InvalidInitialization",
      "type": "error"
    },
    {
      "inputs": [],
      "name": "InvalidIpAddressesCount",
      "type": "error"
    },
    {
      "inputs": [],
      "name": "InvalidMaxStakeAmount",
      "type": "error"
    },
    {
      "inputs": [],
      "name": "InvalidMoveStakePoolsAddress",
      "type": "error"
    },
    {
      "inputs": [
        {
          "internalType": "address",
          "name": "pool",
          "type": "address"
        },
        {
          "internalType": "address",
          "name": "delegator",
          "type": "address"
        },
        {
          "internalType": "int256",
          "name": "amount",
          "type": "int256"
        }
      ],
      "name": "InvalidOrderWithdrawAmount",
      "type": "error"
    },
    {
      "inputs": [],
      "name": "InvalidPublicKeysCount",
      "type": "error"
    },
    {
      "inputs": [],
      "name": "InvalidStakingFixedEpochDuration",
      "type": "error"
    },
    {
      "inputs": [],
      "name": "InvalidStakingTransitionTimeframe",
      "type": "error"
    },
    {
      "inputs": [],
      "name": "InvalidTransitionTimeFrame",
      "type": "error"
    },
    {
      "inputs": [
        {
          "internalType": "address",
          "name": "pool",
          "type": "address"
        },
        {
          "internalType": "address",
          "name": "delegator",
          "type": "address"
        },
        {
          "internalType": "uint256",
          "name": "amount",
          "type": "uint256"
        }
      ],
      "name": "InvalidWithdrawAmount",
      "type": "error"
    },
    {
      "inputs": [
        {
          "internalType": "uint256",
          "name": "allowed",
          "type": "uint256"
        },
        {
          "internalType": "uint256",
          "name": "desired",
          "type": "uint256"
        }
      ],
      "name": "MaxAllowedWithdrawExceeded",
      "type": "error"
    },
    {
      "inputs": [],
      "name": "MaxPoolsCountExceeded",
      "type": "error"
    },
    {
      "inputs": [
        {
          "internalType": "uint256",
          "name": "_newVal",
          "type": "uint256"
        }
      ],
      "name": "NewValueOutOfRange",
      "type": "error"
    },
    {
      "inputs": [],
      "name": "NoStakesToRecover",
      "type": "error"
    },
    {
      "inputs": [],
      "name": "NotInitializing",
      "type": "error"
    },
    {
      "inputs": [],
      "name": "NotPayable",
      "type": "error"
    },
    {
      "inputs": [
        {
          "internalType": "address",
          "name": "owner",
          "type": "address"
        }
      ],
      "name": "OwnableInvalidOwner",
      "type": "error"
    },
    {
      "inputs": [
        {
          "internalType": "address",
          "name": "account",
          "type": "address"
        }
      ],
      "name": "OwnableUnauthorizedAccount",
      "type": "error"
    },
    {
      "inputs": [
        {
          "internalType": "address",
          "name": "pool",
          "type": "address"
        }
      ],
      "name": "PoolAbandoned",
      "type": "error"
    },
    {
      "inputs": [
        {
          "internalType": "address",
          "name": "pool",
          "type": "address"
        }
      ],
      "name": "PoolCannotBeRemoved",
      "type": "error"
    },
    {
      "inputs": [
        {
          "internalType": "address",
          "name": "pool",
          "type": "address"
        }
      ],
      "name": "PoolEmpty",
      "type": "error"
    },
    {
      "inputs": [
        {
          "internalType": "address",
          "name": "pool",
          "type": "address"
        }
      ],
      "name": "PoolNotExist",
      "type": "error"
    },
    {
      "inputs": [
        {
          "internalType": "address",
          "name": "pool",
          "type": "address"
        },
        {
          "internalType": "address",
          "name": "delegator",
          "type": "address"
        }
      ],
      "name": "PoolStakeLimitExceeded",
      "type": "error"
    },
    {
      "inputs": [],
      "name": "ReentrancyGuardReentrantCall",
      "type": "error"
    },
    {
      "inputs": [
        {
          "internalType": "address",
          "name": "recipient",
          "type": "address"
        },
        {
          "internalType": "uint256",
          "name": "amount",
          "type": "uint256"
        }
      ],
      "name": "TransferFailed",
      "type": "error"
    },
    {
      "inputs": [],
      "name": "Unauthorized",
      "type": "error"
    },
    {
      "inputs": [],
      "name": "WithdrawNotAllowed",
      "type": "error"
    },
    {
      "inputs": [],
      "name": "ZeroAddress",
      "type": "error"
    },
    {
      "inputs": [],
      "name": "ZeroGasPrice",
      "type": "error"
    },
    {
      "inputs": [],
      "name": "ZeroWidthrawAmount",
      "type": "error"
    },
    {
      "inputs": [],
      "name": "ZeroWidthrawDisallowPeriod",
      "type": "error"
    },
    {
      "anonymous": false,
      "inputs": [
        {
          "indexed": true,
          "internalType": "address",
          "name": "fromPoolStakingAddress",
          "type": "address"
        },
        {
          "indexed": true,
          "internalType": "address",
          "name": "staker",
          "type": "address"
        },
        {
          "indexed": true,
          "internalType": "uint256",
          "name": "stakingEpoch",
          "type": "uint256"
        },
        {
          "indexed": false,
          "internalType": "uint256",
          "name": "amount",
          "type": "uint256"
        }
      ],
      "name": "ClaimedOrderedWithdrawal",
      "type": "event"
    },
    {
      "anonymous": false,
      "inputs": [
        {
          "indexed": true,
          "internalType": "address",
          "name": "caller",
          "type": "address"
        },
        {
          "indexed": true,
          "internalType": "address",
          "name": "stakingAddress",
          "type": "address"
        },
        {
          "indexed": false,
          "internalType": "uint256",
          "name": "gatheredFunds",
          "type": "uint256"
        }
      ],
      "name": "GatherAbandonedStakes",
      "type": "event"
    },
    {
      "anonymous": false,
      "inputs": [
        {
          "indexed": false,
          "internalType": "uint64",
          "name": "version",
          "type": "uint64"
        }
      ],
      "name": "Initialized",
      "type": "event"
    },
    {
      "anonymous": false,
      "inputs": [
        {
          "indexed": false,
          "internalType": "address",
          "name": "fromPoolStakingAddress",
          "type": "address"
        },
        {
          "indexed": true,
          "internalType": "address",
          "name": "toPoolStakingAddress",
          "type": "address"
        },
        {
          "indexed": true,
          "internalType": "address",
          "name": "staker",
          "type": "address"
        },
        {
          "indexed": true,
          "internalType": "uint256",
          "name": "stakingEpoch",
          "type": "uint256"
        },
        {
          "indexed": false,
          "internalType": "uint256",
          "name": "amount",
          "type": "uint256"
        }
      ],
      "name": "MovedStake",
      "type": "event"
    },
    {
      "anonymous": false,
      "inputs": [
        {
          "indexed": true,
          "internalType": "address",
          "name": "fromPoolStakingAddress",
          "type": "address"
        },
        {
          "indexed": true,
          "internalType": "address",
          "name": "staker",
          "type": "address"
        },
        {
          "indexed": true,
          "internalType": "uint256",
          "name": "stakingEpoch",
          "type": "uint256"
        },
        {
          "indexed": false,
          "internalType": "int256",
          "name": "amount",
          "type": "int256"
        }
      ],
      "name": "OrderedWithdrawal",
      "type": "event"
    },
    {
      "anonymous": false,
      "inputs": [
        {
          "indexed": true,
          "internalType": "address",
          "name": "previousOwner",
          "type": "address"
        },
        {
          "indexed": true,
          "internalType": "address",
          "name": "newOwner",
          "type": "address"
        }
      ],
      "name": "OwnershipTransferred",
      "type": "event"
    },
    {
      "anonymous": false,
      "inputs": [
        {
          "indexed": true,
          "internalType": "address",
          "name": "toPoolStakingAddress",
          "type": "address"
        },
        {
          "indexed": true,
          "internalType": "address",
          "name": "staker",
          "type": "address"
        },
        {
          "indexed": true,
          "internalType": "uint256",
          "name": "stakingEpoch",
          "type": "uint256"
        },
        {
          "indexed": false,
          "internalType": "uint256",
          "name": "amount",
          "type": "uint256"
        }
      ],
      "name": "PlacedStake",
      "type": "event"
    },
    {
      "anonymous": false,
      "inputs": [
        {
          "indexed": true,
          "internalType": "address",
          "name": "caller",
          "type": "address"
        },
        {
          "indexed": false,
          "internalType": "uint256",
          "name": "reinsertShare",
          "type": "uint256"
        },
        {
          "indexed": false,
          "internalType": "uint256",
          "name": "governanceShare",
          "type": "uint256"
        }
      ],
      "name": "RecoverAbandonedStakes",
      "type": "event"
    },
    {
      "anonymous": false,
      "inputs": [
        {
          "indexed": false,
          "internalType": "string",
          "name": "funcSelector",
          "type": "string"
        }
      ],
      "name": "RemoveChangeAbleParameter",
      "type": "event"
    },
    {
      "anonymous": false,
      "inputs": [
        {
          "indexed": true,
          "internalType": "address",
          "name": "poolStakingAddress",
          "type": "address"
        },
        {
          "indexed": true,
          "internalType": "uint256",
          "name": "stakingEpoch",
          "type": "uint256"
        },
        {
          "indexed": false,
          "internalType": "uint256",
          "name": "validatorReward",
          "type": "uint256"
        },
        {
          "indexed": false,
          "internalType": "uint256",
          "name": "delegatorsReward",
          "type": "uint256"
        }
      ],
      "name": "RestakeReward",
      "type": "event"
    },
    {
      "anonymous": false,
      "inputs": [
        {
          "indexed": false,
          "internalType": "address",
          "name": "_address",
          "type": "address"
        }
      ],
      "name": "SetBonusScoreContract",
      "type": "event"
    },
    {
      "anonymous": false,
      "inputs": [
        {
          "indexed": false,
          "internalType": "string",
          "name": "setter",
          "type": "string"
        },
        {
          "indexed": false,
          "internalType": "string",
          "name": "getter",
          "type": "string"
        },
        {
          "indexed": false,
          "internalType": "uint256[]",
          "name": "params",
          "type": "uint256[]"
        }
      ],
      "name": "SetChangeAbleParameter",
      "type": "event"
    },
    {
      "anonymous": false,
      "inputs": [
        {
          "indexed": false,
          "internalType": "uint256",
          "name": "minStake",
          "type": "uint256"
        }
      ],
      "name": "SetDelegatorMinStake",
      "type": "event"
    },
    {
      "anonymous": false,
      "inputs": [
        {
          "indexed": true,
          "internalType": "address",
          "name": "fromPoolStakingAddress",
          "type": "address"
        },
        {
          "indexed": true,
          "internalType": "address",
          "name": "staker",
          "type": "address"
        },
        {
          "indexed": true,
          "internalType": "uint256",
          "name": "stakingEpoch",
          "type": "uint256"
        },
        {
          "indexed": false,
          "internalType": "uint256",
          "name": "amount",
          "type": "uint256"
        }
      ],
      "name": "WithdrewStake",
      "type": "event"
    },
    {
      "inputs": [],
      "name": "MAX_CANDIDATES",
      "outputs": [
        {
          "internalType": "uint256",
          "name": "",
          "type": "uint256"
        }
      ],
      "stateMutability": "view",
      "type": "function"
    },
    {
      "inputs": [
        {
          "internalType": "address",
          "name": "",
          "type": "address"
        }
      ],
      "name": "abandonedAndRemoved",
      "outputs": [
        {
          "internalType": "bool",
          "name": "",
          "type": "bool"
        }
      ],
      "stateMutability": "view",
      "type": "function"
    },
    {
      "inputs": [],
      "name": "addBalance",
      "outputs": [],
      "stateMutability": "payable",
      "type": "function"
    },
    {
      "inputs": [
        {
          "internalType": "address",
          "name": "_miningAddress",
          "type": "address"
        },
        {
          "internalType": "bytes",
          "name": "_publicKey",
          "type": "bytes"
        },
        {
          "internalType": "bytes16",
          "name": "_ip",
          "type": "bytes16"
        }
      ],
      "name": "addPool",
      "outputs": [],
      "stateMutability": "payable",
      "type": "function"
    },
    {
      "inputs": [
        {
          "internalType": "address",
          "name": "_stakingAddress",
          "type": "address"
        }
      ],
      "name": "addPoolActiveMock",
      "outputs": [],
      "stateMutability": "nonpayable",
      "type": "function"
    },
    {
      "inputs": [
        {
          "internalType": "address",
          "name": "_stakingAddress",
          "type": "address"
        }
      ],
      "name": "addPoolInactiveMock",
      "outputs": [],
      "stateMutability": "nonpayable",
      "type": "function"
    },
    {
      "inputs": [
        {
          "internalType": "bytes4",
          "name": "",
          "type": "bytes4"
        }
      ],
      "name": "allowedParameterRange",
      "outputs": [
        {
          "internalType": "bytes4",
          "name": "getter",
          "type": "bytes4"
        }
      ],
      "stateMutability": "view",
      "type": "function"
    },
    {
      "inputs": [],
      "name": "areStakeAndWithdrawAllowed",
      "outputs": [
        {
          "internalType": "bool",
          "name": "",
          "type": "bool"
        }
      ],
      "stateMutability": "pure",
      "type": "function"
    },
    {
      "inputs": [],
      "name": "bonusScoreContract",
      "outputs": [
        {
          "internalType": "contract IBonusScoreSystem",
          "name": "",
          "type": "address"
        }
      ],
      "stateMutability": "view",
      "type": "function"
    },
    {
      "inputs": [],
      "name": "candidateMinStake",
      "outputs": [
        {
          "internalType": "uint256",
          "name": "",
          "type": "uint256"
        }
      ],
      "stateMutability": "view",
      "type": "function"
    },
    {
      "inputs": [
        {
          "internalType": "address",
          "name": "_poolStakingAddress",
          "type": "address"
        }
      ],
      "name": "claimOrderedWithdraw",
      "outputs": [],
      "stateMutability": "nonpayable",
      "type": "function"
    },
    {
      "inputs": [
        {
          "internalType": "address",
          "name": "pool",
          "type": "address"
        },
        {
          "internalType": "address",
          "name": "delegator",
          "type": "address"
        },
        {
          "internalType": "uint256",
          "name": "epoch",
          "type": "uint256"
        }
      ],
      "name": "clearDelegatorStakeSnapshot",
      "outputs": [],
      "stateMutability": "nonpayable",
      "type": "function"
    },
    {
      "inputs": [],
      "name": "currentKeyGenExtraTimeWindow",
      "outputs": [
        {
          "internalType": "uint256",
          "name": "",
          "type": "uint256"
        }
      ],
      "stateMutability": "view",
      "type": "function"
    },
    {
      "inputs": [],
      "name": "delegatorMinStake",
      "outputs": [
        {
          "internalType": "uint256",
          "name": "",
          "type": "uint256"
        }
      ],
      "stateMutability": "view",
      "type": "function"
    },
    {
      "inputs": [
        {
          "internalType": "string",
          "name": "_selector",
          "type": "string"
        }
      ],
      "name": "getAllowedParamsRange",
      "outputs": [
        {
          "components": [
            {
              "internalType": "bytes4",
              "name": "getter",
              "type": "bytes4"
            },
            {
              "internalType": "uint256[]",
              "name": "range",
              "type": "uint256[]"
            }
          ],
          "internalType": "struct ValueGuards.ParameterRange",
          "name": "",
          "type": "tuple"
        }
      ],
      "stateMutability": "view",
      "type": "function"
    },
    {
      "inputs": [
        {
          "internalType": "bytes4",
          "name": "_selector",
          "type": "bytes4"
        }
      ],
      "name": "getAllowedParamsRangeWithSelector",
      "outputs": [
        {
          "components": [
            {
              "internalType": "bytes4",
              "name": "getter",
              "type": "bytes4"
            },
            {
              "internalType": "uint256[]",
              "name": "range",
              "type": "uint256[]"
            }
          ],
          "internalType": "struct ValueGuards.ParameterRange",
          "name": "",
          "type": "tuple"
        }
      ],
      "stateMutability": "view",
      "type": "function"
    },
    {
      "inputs": [
        {
          "internalType": "address",
          "name": "pool",
          "type": "address"
        },
        {
          "internalType": "address",
          "name": "delegator",
          "type": "address"
        },
        {
          "internalType": "uint256",
          "name": "epoch",
          "type": "uint256"
        }
      ],
      "name": "getDelegatorStakeSnapshot",
      "outputs": [
        {
          "internalType": "uint256",
          "name": "",
          "type": "uint256"
        }
      ],
      "stateMutability": "view",
      "type": "function"
    },
    {
      "inputs": [],
      "name": "getMaxCandidates",
      "outputs": [
        {
          "internalType": "uint256",
          "name": "",
          "type": "uint256"
        }
      ],
      "stateMutability": "pure",
      "type": "function"
    },
    {
      "inputs": [
        {
          "internalType": "address",
          "name": "_poolAddress",
          "type": "address"
        }
      ],
      "name": "getPoolInternetAddress",
      "outputs": [
        {
          "internalType": "bytes16",
          "name": "",
          "type": "bytes16"
        },
        {
          "internalType": "bytes2",
          "name": "",
          "type": "bytes2"
        }
      ],
      "stateMutability": "view",
      "type": "function"
    },
    {
      "inputs": [
        {
          "internalType": "address",
          "name": "_poolAddress",
          "type": "address"
        }
      ],
      "name": "getPoolPublicKey",
      "outputs": [
        {
          "internalType": "bytes",
          "name": "",
          "type": "bytes"
        }
      ],
      "stateMutability": "view",
      "type": "function"
    },
    {
      "inputs": [
        {
          "internalType": "uint256",
          "name": "_epoch",
          "type": "uint256"
        },
        {
          "internalType": "address",
          "name": "_stakingPool",
          "type": "address"
        }
      ],
      "name": "getPoolValidatorStakeAmount",
      "outputs": [
        {
          "internalType": "uint256",
          "name": "",
          "type": "uint256"
        }
      ],
      "stateMutability": "view",
      "type": "function"
    },
    {
      "inputs": [],
      "name": "getPools",
      "outputs": [
        {
          "internalType": "address[]",
          "name": "",
          "type": "address[]"
        }
      ],
      "stateMutability": "view",
      "type": "function"
    },
    {
      "inputs": [],
      "name": "getPoolsInactive",
      "outputs": [
        {
          "internalType": "address[]",
          "name": "",
          "type": "address[]"
        }
      ],
      "stateMutability": "view",
      "type": "function"
    },
    {
      "inputs": [],
      "name": "getPoolsLikelihood",
      "outputs": [
        {
          "internalType": "uint256[]",
          "name": "likelihoods",
          "type": "uint256[]"
        },
        {
          "internalType": "uint256",
          "name": "sum",
          "type": "uint256"
        }
      ],
      "stateMutability": "view",
      "type": "function"
    },
    {
      "inputs": [],
      "name": "getPoolsToBeElected",
      "outputs": [
        {
          "internalType": "address[]",
          "name": "",
          "type": "address[]"
        }
      ],
      "stateMutability": "view",
      "type": "function"
    },
    {
      "inputs": [],
      "name": "getPoolsToBeRemoved",
      "outputs": [
        {
          "internalType": "address[]",
          "name": "",
          "type": "address[]"
        }
      ],
      "stateMutability": "view",
      "type": "function"
    },
    {
      "inputs": [
        {
          "internalType": "address",
          "name": "pool",
          "type": "address"
        },
        {
          "internalType": "address",
          "name": "delegator",
          "type": "address"
        }
      ],
      "name": "getStakeSnapshotLastEpoch",
      "outputs": [
        {
          "internalType": "uint256",
          "name": "",
          "type": "uint256"
        }
      ],
      "stateMutability": "view",
      "type": "function"
    },
    {
      "inputs": [],
      "name": "incrementStakingEpoch",
      "outputs": [],
      "stateMutability": "nonpayable",
      "type": "function"
    },
    {
      "inputs": [
        {
          "internalType": "string",
          "name": "setter",
          "type": "string"
        },
        {
          "internalType": "string",
          "name": "getter",
          "type": "string"
        },
        {
          "internalType": "uint256[]",
          "name": "params",
          "type": "uint256[]"
        }
      ],
      "name": "initAllowedChangeableParameter",
      "outputs": [],
      "stateMutability": "nonpayable",
      "type": "function"
    },
    {
      "inputs": [
        {
          "internalType": "address",
          "name": "_contractOwner",
          "type": "address"
        },
        {
          "components": [
            {
              "internalType": "address",
              "name": "_validatorSetContract",
              "type": "address"
            },
            {
              "internalType": "address",
              "name": "_bonusScoreContract",
              "type": "address"
            },
            {
              "internalType": "address[]",
              "name": "_initialStakingAddresses",
              "type": "address[]"
            },
            {
              "internalType": "uint256",
              "name": "_delegatorMinStake",
              "type": "uint256"
            },
            {
              "internalType": "uint256",
              "name": "_candidateMinStake",
              "type": "uint256"
            },
            {
              "internalType": "uint256",
              "name": "_maxStake",
              "type": "uint256"
            },
            {
              "internalType": "uint256",
              "name": "_stakingFixedEpochDuration",
              "type": "uint256"
            },
            {
              "internalType": "uint256",
              "name": "_stakingTransitionTimeframeLength",
              "type": "uint256"
            },
            {
              "internalType": "uint256",
              "name": "_stakingWithdrawDisallowPeriod",
              "type": "uint256"
            }
          ],
          "internalType": "struct IStakingHbbft.StakingParams",
          "name": "stakingParams",
          "type": "tuple"
        },
        {
          "internalType": "bytes32[]",
          "name": "_publicKeys",
          "type": "bytes32[]"
        },
        {
          "internalType": "bytes16[]",
          "name": "_internetAddresses",
          "type": "bytes16[]"
        }
      ],
      "name": "initialize",
      "outputs": [],
      "stateMutability": "nonpayable",
      "type": "function"
    },
    {
      "inputs": [
        {
          "internalType": "address",
          "name": "_stakingAddress",
          "type": "address"
        }
      ],
      "name": "isPoolActive",
      "outputs": [
        {
          "internalType": "bool",
          "name": "",
          "type": "bool"
        }
      ],
      "stateMutability": "view",
      "type": "function"
    },
    {
      "inputs": [
        {
          "internalType": "address",
          "name": "_stakingAddress",
          "type": "address"
        }
      ],
      "name": "isPoolValid",
      "outputs": [
        {
          "internalType": "bool",
          "name": "",
          "type": "bool"
        }
      ],
      "stateMutability": "view",
      "type": "function"
    },
    {
      "inputs": [
        {
          "internalType": "bytes4",
          "name": "funcSelector",
          "type": "bytes4"
        },
        {
          "internalType": "uint256",
          "name": "newVal",
          "type": "uint256"
        }
      ],
      "name": "isWithinAllowedRange",
      "outputs": [
        {
          "internalType": "bool",
          "name": "",
          "type": "bool"
        }
      ],
      "stateMutability": "view",
      "type": "function"
    },
    {
      "inputs": [],
      "name": "maxStakeAmount",
      "outputs": [
        {
          "internalType": "uint256",
          "name": "",
          "type": "uint256"
        }
      ],
      "stateMutability": "view",
      "type": "function"
    },
    {
      "inputs": [
        {
          "internalType": "address",
          "name": "_poolStakingAddress",
          "type": "address"
        },
        {
          "internalType": "address",
          "name": "_staker",
          "type": "address"
        }
      ],
      "name": "maxWithdrawAllowed",
      "outputs": [
        {
          "internalType": "uint256",
          "name": "",
          "type": "uint256"
        }
      ],
      "stateMutability": "view",
      "type": "function"
    },
    {
      "inputs": [
        {
          "internalType": "address",
          "name": "_poolStakingAddress",
          "type": "address"
        },
        {
          "internalType": "address",
          "name": "_staker",
          "type": "address"
        }
      ],
      "name": "maxWithdrawOrderAllowed",
      "outputs": [
        {
          "internalType": "uint256",
          "name": "",
          "type": "uint256"
        }
      ],
      "stateMutability": "view",
      "type": "function"
    },
    {
      "inputs": [
        {
          "internalType": "address",
          "name": "_fromPoolStakingAddress",
          "type": "address"
        },
        {
          "internalType": "address",
          "name": "_toPoolStakingAddress",
          "type": "address"
        },
        {
          "internalType": "uint256",
          "name": "_amount",
          "type": "uint256"
        }
      ],
      "name": "moveStake",
      "outputs": [],
      "stateMutability": "nonpayable",
      "type": "function"
    },
    {
      "inputs": [
        {
          "internalType": "address",
          "name": "_stakingAddress",
          "type": "address"
        }
      ],
      "name": "notifyAvailability",
      "outputs": [],
      "stateMutability": "nonpayable",
      "type": "function"
    },
    {
      "inputs": [],
      "name": "notifyKeyGenFailed",
      "outputs": [],
      "stateMutability": "nonpayable",
      "type": "function"
    },
    {
      "inputs": [
        {
          "internalType": "uint256",
          "name": "detectedOfflineTime",
          "type": "uint256"
        }
      ],
      "name": "notifyNetworkOfftimeDetected",
      "outputs": [],
      "stateMutability": "nonpayable",
      "type": "function"
    },
    {
      "inputs": [
        {
          "internalType": "address",
          "name": "_poolStakingAddress",
          "type": "address"
        },
        {
          "internalType": "int256",
          "name": "_amount",
          "type": "int256"
        }
      ],
      "name": "orderWithdraw",
      "outputs": [],
      "stateMutability": "nonpayable",
      "type": "function"
    },
    {
      "inputs": [
        {
          "internalType": "address",
          "name": "",
          "type": "address"
        },
        {
          "internalType": "address",
          "name": "",
          "type": "address"
        }
      ],
      "name": "orderWithdrawEpoch",
      "outputs": [
        {
          "internalType": "uint256",
          "name": "",
          "type": "uint256"
        }
      ],
      "stateMutability": "view",
      "type": "function"
    },
    {
      "inputs": [
        {
          "internalType": "address",
          "name": "",
          "type": "address"
        },
        {
          "internalType": "address",
          "name": "",
          "type": "address"
        }
      ],
      "name": "orderedWithdrawAmount",
      "outputs": [
        {
          "internalType": "uint256",
          "name": "",
          "type": "uint256"
        }
      ],
      "stateMutability": "view",
      "type": "function"
    },
    {
      "inputs": [
        {
          "internalType": "address",
          "name": "",
          "type": "address"
        }
      ],
      "name": "orderedWithdrawAmountTotal",
      "outputs": [
        {
          "internalType": "uint256",
          "name": "",
          "type": "uint256"
        }
      ],
      "stateMutability": "view",
      "type": "function"
    },
    {
      "inputs": [],
      "name": "owner",
      "outputs": [
        {
          "internalType": "address",
          "name": "",
          "type": "address"
        }
      ],
      "stateMutability": "view",
      "type": "function"
    },
    {
      "inputs": [
        {
          "internalType": "address",
          "name": "_poolStakingAddress",
          "type": "address"
        }
      ],
      "name": "poolDelegators",
      "outputs": [
        {
          "internalType": "address[]",
          "name": "",
          "type": "address[]"
        }
      ],
      "stateMutability": "view",
      "type": "function"
    },
    {
      "inputs": [
        {
          "internalType": "address",
          "name": "_poolStakingAddress",
          "type": "address"
        }
      ],
      "name": "poolDelegatorsInactive",
      "outputs": [
        {
          "internalType": "address[]",
          "name": "",
          "type": "address[]"
        }
      ],
      "stateMutability": "view",
      "type": "function"
    },
    {
      "inputs": [
        {
          "internalType": "address",
          "name": "",
          "type": "address"
        }
      ],
      "name": "poolInfo",
      "outputs": [
        {
          "internalType": "bytes",
          "name": "publicKey",
          "type": "bytes"
        },
        {
          "internalType": "bytes16",
          "name": "internetAddress",
          "type": "bytes16"
        },
        {
          "internalType": "bytes2",
          "name": "port",
          "type": "bytes2"
        }
      ],
      "stateMutability": "view",
      "type": "function"
    },
    {
      "inputs": [
        {
          "internalType": "address",
          "name": "",
          "type": "address"
        }
      ],
      "name": "poolToBeElectedIndex",
      "outputs": [
        {
          "internalType": "uint256",
          "name": "",
          "type": "uint256"
        }
      ],
      "stateMutability": "view",
      "type": "function"
    },
    {
      "inputs": [],
      "name": "recoverAbandonedStakes",
      "outputs": [],
      "stateMutability": "nonpayable",
      "type": "function"
    },
    {
      "inputs": [
        {
          "internalType": "string",
          "name": "funcSelector",
          "type": "string"
        }
      ],
      "name": "removeAllowedChangeableParameter",
      "outputs": [],
      "stateMutability": "nonpayable",
      "type": "function"
    },
    {
      "inputs": [],
      "name": "removeMyPool",
      "outputs": [],
      "stateMutability": "nonpayable",
      "type": "function"
    },
    {
      "inputs": [
        {
          "internalType": "address",
          "name": "_stakingAddress",
          "type": "address"
        }
      ],
      "name": "removePool",
      "outputs": [],
      "stateMutability": "nonpayable",
      "type": "function"
    },
    {
      "inputs": [],
      "name": "removePools",
      "outputs": [],
      "stateMutability": "nonpayable",
      "type": "function"
    },
    {
      "inputs": [],
      "name": "renounceOwnership",
      "outputs": [],
      "stateMutability": "nonpayable",
      "type": "function"
    },
    {
      "inputs": [
        {
          "internalType": "address",
          "name": "_poolStakingAddress",
          "type": "address"
        },
        {
          "internalType": "uint256",
          "name": "_validatorMinRewardPercent",
          "type": "uint256"
        }
      ],
      "name": "restake",
      "outputs": [],
      "stateMutability": "payable",
      "type": "function"
    },
    {
      "inputs": [
        {
          "internalType": "string",
          "name": "setter",
          "type": "string"
        },
        {
          "internalType": "string",
          "name": "getter",
          "type": "string"
        },
        {
          "internalType": "uint256[]",
          "name": "params",
          "type": "uint256[]"
        }
      ],
      "name": "setAllowedChangeableParameter",
      "outputs": [],
      "stateMutability": "nonpayable",
      "type": "function"
    },
    {
      "inputs": [
        {
          "internalType": "address",
          "name": "_bonusScoreContract",
          "type": "address"
        }
      ],
      "name": "setBonusScoreContract",
      "outputs": [],
      "stateMutability": "nonpayable",
      "type": "function"
    },
    {
      "inputs": [
        {
          "internalType": "uint256",
          "name": "_minStake",
          "type": "uint256"
        }
      ],
      "name": "setDelegatorMinStake",
      "outputs": [],
      "stateMutability": "nonpayable",
      "type": "function"
    },
    {
      "inputs": [
        {
          "internalType": "bytes",
          "name": "_publicKey",
          "type": "bytes"
        },
        {
          "internalType": "bytes16",
          "name": "_ip",
          "type": "bytes16"
        },
        {
          "internalType": "bytes2",
          "name": "_port",
          "type": "bytes2"
        }
      ],
      "name": "setPoolInfo",
      "outputs": [],
      "stateMutability": "nonpayable",
      "type": "function"
    },
    {
      "inputs": [
        {
          "internalType": "address",
          "name": "_poolStakingAddress",
          "type": "address"
        },
        {
          "internalType": "uint256",
          "name": "_amount",
          "type": "uint256"
        }
      ],
      "name": "setStakeAmountTotal",
      "outputs": [],
      "stateMutability": "nonpayable",
      "type": "function"
    },
    {
      "inputs": [
        {
          "internalType": "uint256",
          "name": "_stakingEpoch",
          "type": "uint256"
        }
      ],
      "name": "setStakingEpoch",
      "outputs": [],
      "stateMutability": "nonpayable",
      "type": "function"
    },
    {
      "inputs": [
        {
          "internalType": "uint256",
          "name": "_timestamp",
          "type": "uint256"
        }
      ],
      "name": "setStakingEpochStartTime",
      "outputs": [],
      "stateMutability": "nonpayable",
      "type": "function"
    },
    {
      "inputs": [
        {
          "internalType": "uint256",
          "name": "_value",
          "type": "uint256"
        }
      ],
      "name": "setStakingFixedEpochDuration",
      "outputs": [],
      "stateMutability": "nonpayable",
      "type": "function"
    },
    {
      "inputs": [
        {
          "internalType": "uint256",
          "name": "_value",
          "type": "uint256"
        }
      ],
      "name": "setStakingTransitionTimeframeLength",
      "outputs": [],
      "stateMutability": "nonpayable",
      "type": "function"
    },
    {
      "inputs": [
        {
          "internalType": "address",
          "name": "_validatorAddress",
          "type": "address"
        },
        {
          "internalType": "bytes16",
          "name": "_ip",
          "type": "bytes16"
        },
        {
          "internalType": "bytes2",
          "name": "_port",
          "type": "bytes2"
        }
      ],
      "name": "setValidatorInternetAddress",
      "outputs": [],
      "stateMutability": "nonpayable",
      "type": "function"
    },
    {
      "inputs": [
        {
          "internalType": "contract IValidatorSetHbbft",
          "name": "_validatorSetAddress",
          "type": "address"
        }
      ],
      "name": "setValidatorMockSetAddress",
      "outputs": [],
      "stateMutability": "nonpayable",
      "type": "function"
    },
    {
      "inputs": [
        {
          "internalType": "contract IValidatorSetHbbft",
          "name": "_validatorSetAddress",
          "type": "address"
        }
      ],
      "name": "setValidatorSetAddress",
      "outputs": [],
      "stateMutability": "nonpayable",
      "type": "function"
    },
    {
      "inputs": [
        {
          "internalType": "uint256",
          "name": "_epoch",
          "type": "uint256"
        },
        {
          "internalType": "address",
          "name": "_stakingPool",
          "type": "address"
        }
      ],
      "name": "snapshotPoolStakeAmounts",
      "outputs": [],
      "stateMutability": "nonpayable",
      "type": "function"
    },
    {
      "inputs": [
        {
          "internalType": "uint256",
          "name": "",
          "type": "uint256"
        },
        {
          "internalType": "address",
          "name": "",
          "type": "address"
        }
      ],
      "name": "snapshotPoolTotalStakeAmount",
      "outputs": [
        {
          "internalType": "uint256",
          "name": "",
          "type": "uint256"
        }
      ],
      "stateMutability": "view",
      "type": "function"
    },
    {
      "inputs": [
        {
          "internalType": "uint256",
          "name": "",
          "type": "uint256"
        },
        {
          "internalType": "address",
          "name": "",
          "type": "address"
        }
      ],
      "name": "snapshotPoolValidatorStakeAmount",
      "outputs": [
        {
          "internalType": "uint256",
          "name": "",
          "type": "uint256"
        }
      ],
      "stateMutability": "view",
      "type": "function"
    },
    {
      "inputs": [
        {
          "internalType": "address",
          "name": "_toPoolStakingAddress",
          "type": "address"
        }
      ],
      "name": "stake",
      "outputs": [],
      "stateMutability": "payable",
      "type": "function"
    },
    {
      "inputs": [
        {
          "internalType": "address",
          "name": "",
          "type": "address"
        },
        {
          "internalType": "address",
          "name": "",
          "type": "address"
        }
      ],
      "name": "stakeAmount",
      "outputs": [
        {
          "internalType": "uint256",
          "name": "",
          "type": "uint256"
        }
      ],
      "stateMutability": "view",
      "type": "function"
    },
    {
      "inputs": [
        {
          "internalType": "address",
          "name": "_poolStakingAddress",
          "type": "address"
        },
        {
          "internalType": "address",
          "name": "_staker",
          "type": "address"
        }
      ],
      "name": "stakeAmountByCurrentEpoch",
      "outputs": [
        {
          "internalType": "uint256",
          "name": "",
          "type": "uint256"
        }
      ],
      "stateMutability": "view",
      "type": "function"
    },
    {
      "inputs": [
        {
          "internalType": "address",
          "name": "",
          "type": "address"
        }
      ],
      "name": "stakeAmountTotal",
      "outputs": [
        {
          "internalType": "uint256",
          "name": "",
          "type": "uint256"
        }
      ],
      "stateMutability": "view",
      "type": "function"
    },
    {
      "inputs": [],
      "name": "stakingEpoch",
      "outputs": [
        {
          "internalType": "uint256",
          "name": "",
          "type": "uint256"
        }
      ],
      "stateMutability": "view",
      "type": "function"
    },
    {
      "inputs": [],
      "name": "stakingEpochStartBlock",
      "outputs": [
        {
          "internalType": "uint256",
          "name": "",
          "type": "uint256"
        }
      ],
      "stateMutability": "view",
      "type": "function"
    },
    {
      "inputs": [],
      "name": "stakingEpochStartTime",
      "outputs": [
        {
          "internalType": "uint256",
          "name": "",
          "type": "uint256"
        }
      ],
      "stateMutability": "view",
      "type": "function"
    },
    {
      "inputs": [],
      "name": "stakingFixedEpochDuration",
      "outputs": [
        {
          "internalType": "uint256",
          "name": "",
          "type": "uint256"
        }
      ],
      "stateMutability": "view",
      "type": "function"
    },
    {
      "inputs": [],
      "name": "stakingFixedEpochEndTime",
      "outputs": [
        {
          "internalType": "uint256",
          "name": "",
          "type": "uint256"
        }
      ],
      "stateMutability": "view",
      "type": "function"
    },
    {
      "inputs": [],
      "name": "stakingTransitionTimeframeLength",
      "outputs": [
        {
          "internalType": "uint256",
          "name": "",
          "type": "uint256"
        }
      ],
      "stateMutability": "view",
      "type": "function"
    },
    {
      "inputs": [],
      "name": "stakingWithdrawDisallowPeriod",
      "outputs": [
        {
          "internalType": "uint256",
          "name": "",
          "type": "uint256"
        }
      ],
      "stateMutability": "view",
      "type": "function"
    },
    {
      "inputs": [],
      "name": "startTimeOfNextPhaseTransition",
      "outputs": [
        {
          "internalType": "uint256",
          "name": "",
          "type": "uint256"
        }
      ],
      "stateMutability": "view",
      "type": "function"
    },
    {
      "inputs": [],
      "name": "totalStakedAmount",
      "outputs": [
        {
          "internalType": "uint256",
          "name": "",
          "type": "uint256"
        }
      ],
      "stateMutability": "view",
      "type": "function"
    },
    {
      "inputs": [
        {
          "internalType": "address",
          "name": "newOwner",
          "type": "address"
        }
      ],
      "name": "transferOwnership",
      "outputs": [],
      "stateMutability": "nonpayable",
      "type": "function"
    },
    {
      "inputs": [
        {
          "internalType": "address",
          "name": "mining",
          "type": "address"
        },
        {
          "internalType": "uint256",
          "name": "validatorScore",
          "type": "uint256"
        }
      ],
      "name": "updatePoolLikelihood",
      "outputs": [],
      "stateMutability": "nonpayable",
      "type": "function"
    },
    {
      "inputs": [],
      "name": "validatorSetContract",
      "outputs": [
        {
          "internalType": "contract IValidatorSetHbbft",
          "name": "",
          "type": "address"
        }
      ],
      "stateMutability": "view",
      "type": "function"
    },
    {
      "inputs": [
        {
          "internalType": "address",
          "name": "_fromPoolStakingAddress",
          "type": "address"
        },
        {
          "internalType": "uint256",
          "name": "_amount",
          "type": "uint256"
        }
      ],
      "name": "withdraw",
      "outputs": [],
      "stateMutability": "nonpayable",
      "type": "function"
    },
    {
      "stateMutability": "payable",
      "type": "receive"
    }
  ],
  "bytecode": "0x6080604052348015600f57600080fd5b506016601a565b60ca565b7ff0c57e16840df040f15088dc2f81fe391c3923bec73e23a9662efc9c229c6a00805468010000000000000000900460ff161560695760405163f92ee8a960e01b815260040160405180910390fd5b80546001600160401b039081161460c75780546001600160401b0319166001600160401b0390811782556040519081527fc7f505b2f371ae2175ee4913f4499e1f2633a7b5936321eed1cdaeb6115181d29060200160405180910390a15b50565b615e76806100d96000396000f3fe6080604052600436106105cf5760003560e01c80638da5cb5b116102f6578063c6af311a1161018f578063eb3efa16116100e1578063f2fde38b11610095578063f6c578611161006f578063f6c57861146111c2578063fa4aaf47146111e2578063ffada8621461120f57600080fd5b8063f2fde38b1461116e578063f3fef3a31461118e578063f4942501146111ae57600080fd5b8063ee435f55116100c6578063ee435f551461112f578063f078609614611144578063f2de66991461115a57600080fd5b8063eb3efa16146110dd578063edd7db751461111a57600080fd5b8063dadee88a11610143578063e2a43cd91161011d578063e2a43cd914611031578063e5b1d59314611068578063e9ab0300146110a557600080fd5b8063dadee88a14610fcf578063df6f55f514610ffc578063dfc8bf4e1461101157600080fd5b8063d0ac76f611610174578063d0ac76f614610f84578063d290c21d14610fa4578063da7a9b6a14610fb957600080fd5b8063c6af311a14610f44578063cfef144114610f6457600080fd5b8063a697ecff11610248578063b163cc38116101fc578063ba08d237116101d6578063ba08d23714610eef578063bf348f8614610f0f578063c6912cc014610f2f57600080fd5b8063b163cc3814610669578063b61ed63a14610ea2578063b710c15d14610ec257600080fd5b8063adddc0cf1161022d578063adddc0cf14610e57578063ae1aaf8014610e6c578063b0bd5e9e14610e8257600080fd5b8063a697ecff14610dff578063a711e6a114610e3757600080fd5b80639b03d744116102aa5780639ea8082b116102845780639ea8082b14610d92578063a420596714610db2578063a5d54f6514610dea57600080fd5b80639b03d74414610d3c5780639b9fb6d014610d525780639e72c63514610d7257600080fd5b8063950a6513116102db578063950a651314610cca578063957950a714610cea5780639a7b5f1114610d0d57600080fd5b80638da5cb5b14610c445780639228363414610c8157600080fd5b80634f9a8d8f116104685780636bda1577116103ba578063750dd2a11161036e5780637b15b94c116103485780637b15b94c14610be45780638247a23914610c04578063862be28714610c2457600080fd5b8063750dd2a114610b5e578063794c0c6814610bae5780637b0a0f9b14610bc457600080fd5b8063715018a61161039f578063715018a614610af1578063728345db14610b0657806373c2180314610b3e57600080fd5b80636bda157714610abb5780637069e74614610adb57600080fd5b80635ca2b6501161041c5780635fef7643116103f65780635fef764314610a63578063611d760c14610a79578063673a2a1f14610a9957600080fd5b80635ca2b65014610a0d5780635cb092a214610a2d5780635d80ca3214610a4d57600080fd5b8063567e98f91161044d578063567e98f9146109a157806356e4d6c2146109b75780635b4eafe0146109ca57600080fd5b80634f9a8d8f1461095e5780635267e1d61461097457600080fd5b806322e3d9861161052157806336e98ca8116104d55780633b7d0946116104af5780633b7d0946146108fe5780633f3afe011461091e5780634e9b426d1461093157600080fd5b806336e98ca8146108b357806337154263146108d3578063379b046a146108e857600080fd5b8063264762041161050657806326476204146108415780632bafde8d146108545780633219d6001461087457600080fd5b806322e3d9861461080c578063251441a91461082157600080fd5b8063129bd12811610583578063159e0a951161055d578063159e0a95146107505780631fb31e431461077057806322704bdd146107ec57600080fd5b8063129bd128146106e35780631345b8a5146107035780631555371c1461073b57600080fd5b80630ac6e291116105b45780630ac6e2911461066b5780630b770cdf1461068b57806311f86c99146106c357600080fd5b8063028b8bdb146105f257806303a810651461061b57600080fd5b366105ed57604051631574f9f360e01b815260040160405180910390fd5b600080fd5b3480156105fe57600080fd5b5061060860155481565b6040519081526020015b60405180910390f35b34801561062757600080fd5b50610669610636366004615309565b6001600160a01b039283166000908152602360209081526040808320949095168252928352838120918152915290812055565b005b34801561067757600080fd5b50610669610686366004615396565b61122f565b34801561069757600080fd5b506025546106ab906001600160a01b031681565b6040516001600160a01b039091168152602001610612565b3480156106cf57600080fd5b506106086106de366004615309565b611823565b3480156106ef57600080fd5b506106086106fe366004615446565b611859565b34801561070f57600080fd5b5061060861071e36600461547f565b602260209081526000928352604080842090915290825290205481565b34801561074757600080fd5b50610669611886565b34801561075c57600080fd5b5061066961076b3660046154a4565b611911565b34801561077c57600080fd5b506107ba61078b3660046154a4565b6001600160a01b03166000908152601f6020526040902060010154608081901b91600160801b90910460f01b90565b604080516fffffffffffffffffffffffffffffffff1990931683526001600160f01b0319909116602083015201610612565b3480156107f857600080fd5b506106696108073660046154c1565b611995565b34801561081857600080fd5b506106086119d2565b34801561082d57600080fd5b5061066961083c366004615309565b611a19565b61066961084f3660046154a4565b611ad7565b34801561086057600080fd5b5061066961086f3660046154c1565b611b5a565b34801561088057600080fd5b506108a361088f3660046154a4565b602080526000908152604090205460ff1681565b6040519015158152602001610612565b3480156108bf57600080fd5b506106696108ce366004615591565b611bda565b3480156108df57600080fd5b50610669611c8e565b3480156108f457600080fd5b50610608601b5481565b34801561090a57600080fd5b506106696109193660046154a4565b612087565b61066961092c36600461567e565b6120d6565b34801561093d57600080fd5b5061095161094c3660046154a4565b612441565b60405161061291906156fa565b34801561096a57600080fd5b5061060860175481565b34801561098057600080fd5b5061060861098f3660046154a4565b601c6020526000908152604090205481565b3480156109ad57600080fd5b50610608601d5481565b6106696109c5366004615775565b6124ed565b3480156109d657600080fd5b506106086109e536600461547f565b60009182526022602090815260408084206001600160a01b0393909316845291905290205490565b348015610a1957600080fd5b50610669610a283660046154c1565b601655565b348015610a3957600080fd5b50610669610a48366004615591565b612622565b348015610a5957600080fd5b50610608600f5481565b348015610a6f57600080fd5b50610608600d5481565b348015610a8557600080fd5b50610669610a943660046154a4565b61262a565b348015610aa557600080fd5b50610aae612635565b60405161061291906157dc565b348015610ac757600080fd5b50610608610ad6366004615446565b612646565b348015610ae757600080fd5b50610608601a5481565b348015610afd57600080fd5b506106696127c5565b348015610b1257600080fd5b50610608610b2136600461547f565b602160209081526000928352604080842090915290825290205481565b348015610b4a57600080fd5b50610aae610b593660046154a4565b6127d9565b348015610b6a57600080fd5b50610608610b79366004615446565b6001600160a01b039182166000908152600c602090815260408083209390941682529182528281206016548252909152205490565b348015610bba57600080fd5b5061060860165481565b348015610bd057600080fd5b50610669610bdf366004615841565b6127fd565b348015610bf057600080fd5b50610669610bff3660046154a4565b612893565b348015610c1057600080fd5b50610669610c1f3660046154c1565b612913565b348015610c3057600080fd5b50610669610c3f366004615886565b61295f565b348015610c5057600080fd5b507f9016d09d72d40fdae2fd8ceac6b6234c7706214fd39c1cd1e609a0528c199300546001600160a01b03166106ab565b348015610c8d57600080fd5b50610cb1610c9c3660046158f8565b60006020819052908152604090205460e01b81565b6040516001600160e01b03199091168152602001610612565b348015610cd657600080fd5b50610608610ce5366004615446565b6129c2565b348015610cf657600080fd5b50610cff612b0a565b60405161061292919061594f565b348015610d1957600080fd5b50610d2d610d283660046154a4565b612b6d565b60405161061293929190615971565b348015610d4857600080fd5b5061060860195481565b348015610d5e57600080fd5b50610669610d6d3660046159b8565b612c21565b348015610d7e57600080fd5b50610669610d8d3660046154c1565b612c95565b348015610d9e57600080fd5b50610aae610dad3660046154a4565b612cf9565b348015610dbe57600080fd5b50610608610dcd366004615446565b601260209081526000928352604080842090915290825290205481565b348015610df657600080fd5b50610aae612d1d565b348015610e0b57600080fd5b50610608610e1a366004615446565b601460209081526000928352604080842090915290825290205481565b348015610e4357600080fd5b506108a3610e523660046154a4565b612d7f565b348015610e6357600080fd5b50610669612d8c565b348015610e7857600080fd5b5061060860185481565b348015610e8e57600080fd5b50610669610e9d3660046154c1565b612dea565b348015610eae57600080fd5b50610669610ebd36600461567e565b612e19565b348015610ece57600080fd5b50610ee2610edd3660046159b8565b613180565b60405161061291906159ed565b348015610efb57600080fd5b506108a3610f0a366004615a1b565b613228565b348015610f1b57600080fd5b50610ee2610f2a3660046158f8565b6133f7565b348015610f3b57600080fd5b50610608613494565b348015610f5057600080fd5b50610669610f5f36600461567e565b6134b3565b348015610f7057600080fd5b50610669610f7f3660046154a4565b61355d565b348015610f9057600080fd5b50610669610f9f36600461547f565b613730565b348015610fb057600080fd5b50610aae613873565b348015610fc557600080fd5b50610608600e5481565b348015610fdb57600080fd5b50610608610fea3660046154a4565b60116020526000908152604090205481565b34801561100857600080fd5b50610aae61387f565b34801561101d57600080fd5b50601e546106ab906001600160a01b031681565b34801561103d57600080fd5b5061066961104c36600461567e565b6001600160a01b039091166000908152601c6020526040902055565b34801561107457600080fd5b506106696110833660046154a4565b602680546001600160a01b0319166001600160a01b0392909216919091179055565b3480156110b157600080fd5b506106086110c0366004615446565b601060209081526000928352604080842090915290825290205481565b3480156110e957600080fd5b506106696110f83660046154a4565b601e80546001600160a01b0319166001600160a01b0392909216919091179055565b34801561112657600080fd5b5061066961388b565b34801561113b57600080fd5b506106696139cb565b34801561115057600080fd5b50610608610bb881565b34801561116657600080fd5b506064610608565b34801561117a57600080fd5b506106696111893660046154a4565b613a2a565b34801561119a57600080fd5b506106696111a936600461567e565b613a65565b3480156111ba57600080fd5b5060016108a3565b3480156111ce57600080fd5b506108a36111dd3660046154a4565b613b1e565b3480156111ee57600080fd5b506106086111fd3660046154a4565b60136020526000908152604090205481565b34801561121b57600080fd5b5061066961122a3660046154a4565b613b3c565b7ff0c57e16840df040f15088dc2f81fe391c3923bec73e23a9662efc9c229c6a00805468010000000000000000810460ff16159067ffffffffffffffff1660008115801561127a5750825b905060008267ffffffffffffffff1660011480156112975750303b155b9050811580156112a5575080155b156112c35760405163f92ee8a960e01b815260040160405180910390fd5b845467ffffffffffffffff1916600117855583156112f757845468ff00000000000000001916680100000000000000001785555b6001600160a01b038b1661131e5760405163d92e233d60e01b815260040160405180910390fd5b6113278a613b45565b8761133560408c018c615a37565b61134191506002615a97565b1461135e5760405162d6988760e81b815260040160405180910390fd5b8561136c60408c018c615a37565b90501461138c576040516320041afd60e01b815260040160405180910390fd5b6113958b613ca8565b61139d613cb9565b6113aa60208b018b6154a4565b601e80546001600160a01b0319166001600160a01b03929092169190911790556113da60408b0160208c016154a4565b602580546001600160a01b0319166001600160a01b039290921691909117905536600061140a60408d018d615a37565b9150915060005b8181101561162d57600083838381811061142d5761142d615aae565b905060200201602081019061144291906154a4565b6001600160a01b0316036114695760405163d92e233d60e01b815260040160405180910390fd5b61149a83838381811061147e5761147e615aae565b905060200201602081019061149391906154a4565b6000613cc9565b6114c98383838181106114af576114af615aae565b90506020020160208101906114c491906154a4565b613d28565b8b8b6114d6836002615a97565b8181106114e5576114e5615aae565b905060200201358c8c8360026114fb9190615a97565b611506906001615ac4565b81811061151557611515615aae565b90506020020135604051602001611536929190918252602082015260400190565b604051602081830303815290604052601f600085858581811061155b5761155b615aae565b905060200201602081019061157091906154a4565b6001600160a01b031681526020810191909152604001600020906115949082615b61565b508989828181106115a7576115a7615aae565b90506020020160208101906115bc9190615c21565b601f60008585858181106115d2576115d2615aae565b90506020020160208101906115e791906154a4565b6001600160a01b031681526020810191909152604001600020600190810180546fffffffffffffffffffffffffffffffff191660809390931c9290921790915501611411565b5060408051600580825260c082019092526000916020820160a0803683370190505090506802b5e3af16b18800008160008151811061166e5761166e615aae565b60200260200101818152505068056bc75e2d631000008160018151811061169757611697615aae565b602002602001018181525050680821ab0d4414980000816002815181106116c0576116c0615aae565b602002602001018181525050680ad78ebc5ac6200000816003815181106116e9576116e9615aae565b602002602001018181525050680d8d726b7177a800008160048151811061171257611712615aae565b6020026020010181815250506117936040518060400160405280601d81526020017f73657444656c656761746f724d696e5374616b652875696e74323536290000008152506040518060400160405280601381526020017f64656c656761746f724d696e5374616b6528290000000000000000000000000081525083612622565b50505060608a0135600e5560808a0135600d5560a08a0135600f5560c08a01356017556101008a01356015554260195560e08a0135601855831561181657845468ff000000000000000019168555604051600181527fc7f505b2f371ae2175ee4913f4499e1f2633a7b5936321eed1cdaeb6115181d29060200160405180910390a15b5050505050505050505050565b6001600160a01b0380841660009081526023602090815260408083209386168352928152828220848352905220545b9392505050565b6001600160a01b038083166000908152602460209081526040808320938516835292905220545b92915050565b601e546001600160a01b031633148015906118ac57506026546001600160a01b03163314155b156118c9576040516282b42960e81b815260040160405180910390fd5b60006118d56005613d3d565b905060005b815181101561190d576119058282815181106118f8576118f8615aae565b6020026020010151613d4a565b6001016118da565b5050565b611919613d90565b6001600160a01b0381166119405760405163d92e233d60e01b815260040160405180910390fd5b602580546001600160a01b0319166001600160a01b0383169081179091556040519081527fd4244d1f8acb4860e17399636c6b7875c75656aafb5cb3d0163d7305eace7172906020015b60405180910390a150565b61199d613d90565b600a811115806119af57506017548110155b156119cd57604051638826666f60e01b815260040160405180910390fd5b601855565b60195460175460009190156119e85760016119eb565b60005b60ff16601b54601754836119ff9190615ac4565b611a099190615ac4565b611a139190615c3c565b91505090565b3a600003611a3a57604051630e661aed60e41b815260040160405180910390fd5b816001600160a01b0316836001600160a01b031603611a6c57604051630a5eddd560e01b815260040160405180910390fd5b33611a78848284613deb565b611a83838284614099565b601654604080516001600160a01b0387811682526020820186905280851692908716917f4480d8e4b1e9095b94bf513961d26fe1d32386ebdd103d18fe8738cf4b2223ff910160405180910390a450505050565b3a600003611af857604051630e661aed60e41b815260040160405180910390fd5b3334611b05838383614099565b601654826001600160a01b0316846001600160a01b03167f2273de02cb1f69ba6259d22c4bc22c60e4c94c193265ef6afee324a04a9b6d2284604051611b4d91815260200190565b60405180910390a4505050565b611b62613d90565b80611b796000356001600160e01b03191682613228565b611b9e576040516373330d9b60e01b8152600481018290526024015b60405180910390fd5b600e8290556040518281527ffee02ce7aa40f9c49eaabd26d404fa88714b97cb209af8954cfd5eeb8213b93e9060200160405180910390a15050565b611be2613d90565b60408051808201825283516020808601919091206001600160e01b031990811683528183018581528751888401209091166000908152808352939093208251815463ffffffff191660e09190911c17815592518051929392611c4a926001850192019061527a565b509050507f3d45a310c5a076ea07aa2947ca3c06cc2a8b3571065867ad6f8e7096a2c9d50a838383604051611c8193929190615c4f565b60405180910390a1505050565b3a600003611caf57604051630e661aed60e41b815260040160405180910390fd5b600080611cbc6003613d3d565b90508051600003611ce057604051631c369b4560e21b815260040160405180910390fd5b60005b8151811015611ec6576000828281518110611d0057611d00615aae565b60200260200101519050611d13816143e9565b80611d895750601e54604051639d6fc1d160e01b81526001600160a01b03838116600483015290911690639d6fc1d190602401602060405180830381865afa158015611d63573d6000803e3d6000fd5b505050506040513d601f19601f82011682018060405250810190611d879190615c88565b155b15611d945750611ebe565b611d9f600382614427565b506001600160a01b038116600090815260208080526040808320805460ff19166001179055601c9091528120805490829055601d805491928392611de4908490615c3c565b9091555060009050611df583612cf9565b905060005b8151811015611e60576000828281518110611e1757611e17615aae565b6020908102919091018101516001600160a01b0380881660009081526014845260408082209284168252919093528220919091559050611e57858261443c565b50600101611dfa565b50611e6b8287615ac4565b9550826001600160a01b0316336001600160a01b03167f8e6a4ccd7dccdca9ac211d00fcc3fa7c71be75ff73d3a35f63ea023173cc100484604051611eb291815260200190565b60405180910390a35050505b600101611ce3565b5081600003611ee857604051631c369b4560e21b815260040160405180910390fd5b6000611ef5600284615cc0565b90506000611f038285615c3c565b90506000601e60009054906101000a90046001600160a01b03166001600160a01b03166356b54bae6040518163ffffffff1660e01b8152600401602060405180830381865afa158015611f5a573d6000803e3d6000fd5b505050506040513d601f19601f82011682018060405250810190611f7e9190615ce2565b90506000816001600160a01b031663732524946040518163ffffffff1660e01b8152600401602060405180830381865afa158015611fc0573d6000803e3d6000fd5b505050506040513d601f19601f82011682018060405250810190611fe49190615ce2565b9050816001600160a01b031663af182535846040518263ffffffff1660e01b81526004016000604051808303818588803b15801561202157600080fd5b505af1158015612035573d6000803e3d6000fd5b5050505050612044818561449e565b604080518481526020810186905233917f1c113e6bae9530fea40323e612aeb0cb7817dedb5a0b0f6bdfbff97d55920dc7910160405180910390a2505050505050565b601e546001600160a01b031633148015906120ad57506026546001600160a01b03163314155b156120ca576040516282b42960e81b815260040160405180910390fd5b6120d381613d4a565b50565b601e60009054906101000a90046001600160a01b03166001600160a01b03166356b54bae6040518163ffffffff1660e01b8152600401602060405180830381865afa158015612129573d6000803e3d6000fd5b505050506040513d601f19601f8201168201806040525081019061214d9190615ce2565b6001600160a01b0316336001600160a01b03161461217d576040516282b42960e81b815260040160405180910390fd5b341561190d5760165460008181526021602090815260408083206001600160a01b0387168085529083528184205494845260228352818420908452909152812054349291818311156123605760006121d487612cf9565b905060006121e28486615c3c565b905060006121f08883615a97565b6121fb896064615c3c565b6122059087615a97565b1190506122158186888a8c614545565b935060005b835181101561235757600061225883896122506016548f8a888151811061224357612243615aae565b6020026020010151614594565b878d8f614633565b905080601460008d6001600160a01b03166001600160a01b03168152602001908152602001600020600087858151811061229457612294615aae565b60200260200101516001600160a01b03166001600160a01b0316815260200190815260200160002060008282546122cb9190615ac4565b90915550506001600160a01b038b166000908152600c6020526040812086518392908890869081106122ff576122ff615aae565b60200260200101516001600160a01b03166001600160a01b031681526020019081526020016000206000601654815260200190815260200160002060008282546123499190615ac4565b90915550505060010161221a565b50505050612363565b50825b6001600160a01b038616600090815260146020908152604080832090915281208054839290612393908490615ac4565b90915550506001600160a01b0386166000908152601c6020526040812080548692906123c0908490615ac4565b9250508190555083601d60008282546123d99190615ac4565b909155506123e89050866146a1565b6016546001600160a01b0387167f72093068b9f28053bd924ac15d7710b987f9b6ef1e0f89f47d8b4bd7cac776dc836124218189615c3c565b6040805192835260208301919091520160405180910390a3505050505050565b6001600160a01b0381166000908152601f6020526040902080546060919061246890615ad7565b80601f016020809104026020016040519081016040528092919081815260200182805461249490615ad7565b80156124e15780601f106124b6576101008083540402835291602001916124e1565b820191906000526020600020905b8154815290600101906020018083116124c457829003601f168201915b50505050509050919050565b3a60000361250e57604051630e661aed60e41b815260040160405180910390fd5b601e54604051630526083960e11b81526001600160a01b0386811660048301523360248301819052923492911690630a4c107290604401600060405180830381600087803b15801561255f57600080fd5b505af1158015612573573d6000803e3d6000fd5b50505050612582828383614099565b6001600160a01b0382166000908152601f602052604090206125a5858783615cff565b506001600160a01b0382166000818152601f602090815260409182902060010180546fffffffffffffffffffffffffffffffff1916608088901c179055601654915184815291929182917f2273de02cb1f69ba6259d22c4bc22c60e4c94c193265ef6afee324a04a9b6d22910160405180910390a4505050505050565b611be261478e565b6120d3816001613cc9565b60606126416001613d3d565b905090565b601e546040516253517560e01b81526001600160a01b03848116600483015260009283929116906253517590602401602060405180830381865afa158015612692573d6000803e3d6000fd5b505050506040513d601f19601f820116820180604052508101906126b69190615ce2565b90506001600160a01b038416600090815260208052604090205460ff16156126e2576000915050611880565b6001600160a01b03848116600090815260146020908152604080832087851684529091529081902054601e54915163a0d16cad60e01b815284841660048201529092919091169063a0d16cad90602401602060405180830381865afa15801561274f573d6000803e3d6000fd5b505050506040513d601f19601f820116820180604052508101906127739190615c88565b6127805791506118809050565b6001600160a01b038581166000908152600c602090815260408083209388168352928152828220601654835290522054808211156127bc578091505b50949350505050565b6127cd613d90565b6127d760006147dc565b565b6001600160a01b0381166000908152600b6020526040902060609061188090613d3d565b601e546001600160a01b0316331480159061282357506026546001600160a01b03163314155b15612840576040516282b42960e81b815260040160405180910390fd5b6001600160a01b039092166000908152601f60205260409020600101805460f09390931c600160801b0271ffffffffffffffffffffffffffffffffffff1990931660809290921c91909117919091179055565b601e546001600160a01b031633148015906128b957506026546001600160a01b03163314155b156128d6576040516282b42960e81b815260040160405180910390fd5b600d546001600160a01b0382166000908152601460209081526040808320909152902054106120d35761290a816001613cc9565b6120d3816146a1565b601e546001600160a01b0316331480159061293957506026546001600160a01b03163314155b15612956576040516282b42960e81b815260040160405180910390fd5b60195543601a55565b336000908152601f60205260409020612979848683615cff565b50336000908152601f60205260409020600101805460f09290921c600160801b0271ffffffffffffffffffffffffffffffffffff1990921660809390931c929092171790555050565b601e546040516253517560e01b81526001600160a01b03848116600483015260009283929116906253517590602401602060405180830381865afa158015612a0e573d6000803e3d6000fd5b505050506040513d601f19601f82011682018060405250810190612a329190615ce2565b9050601e5460405163a0d16cad60e01b81526001600160a01b0383811660048301529091169063a0d16cad90602401602060405180830381865afa158015612a7e573d6000803e3d6000fd5b505050506040513d601f19601f82011682018060405250810190612aa29190615c88565b612ab0576000915050611880565b6001600160a01b038481166000818152600c602090815260408083209488168084529482528083206016548452825280832054938352601482528083209483529390529190912054612b029190615c3c565b949350505050565b60606000600860095481805480602002602001604051908101604052809291908181526020018280548015612b5e57602002820191906000526020600020905b815481526020019060010190808311612b4a575b50505050509150915091509091565b601f60205260009081526040902080548190612b8890615ad7565b80601f0160208091040260200160405190810160405280929190818152602001828054612bb490615ad7565b8015612c015780601f10612bd657610100808354040283529160200191612c01565b820191906000526020600020905b815481529060010190602001808311612be457829003601f168201915b50505060019093015491925050608081901b90600160801b900460f01b83565b612c29613d90565b80516020808301919091206001600160e01b03191660009081529081905260408120805463ffffffff1916815590612c6460018301826152c5565b50507f92d44565a40fe29702ffa146ddaa3bb133d4077f5312d682d0a2632a9bc73a8a8160405161198a91906156fa565b601e546001600160a01b03163314801590612cbb57506026546001600160a01b03163314155b15612cd8576040516282b42960e81b815260040160405180910390fd5b60185481601b54612ce99190615ac4565b612cf39190615ac4565b601b5550565b6001600160a01b0381166000908152600a6020526040902060609061188090613d3d565b60606007805480602002602001604051908101604052809291908181526020018280548015612d7557602002820191906000526020600020905b81546001600160a01b03168152600190910190602001808311612d57575b5050505050905090565b600061188060018361484d565b601e546001600160a01b03163314801590612db257506026546001600160a01b03163314155b15612dcf576040516282b42960e81b815260040160405180910390fd5b601854601b6000828254612de39190615ac4565b9091555050565b612df2613d90565b6018548111612e145760405163160ac89160e31b815260040160405180910390fd5b601755565b3a600003612e3a57604051630e661aed60e41b815260040160405180910390fd5b6001600160a01b038216612e615760405163d92e233d60e01b815260040160405180910390fd5b80600003612e8257604051633ca0029d60e01b815260040160405180910390fd5b6001600160a01b03821660008181526010602090815260408083203380855290835281842054858552601184528285205460148552838620838752855283862054968652601c9094529184205490949193861315612f8c57856000612ee789886129c2565b905080821115612f1457604051632de4882160e01b81526004810182905260248101839052604401611b95565b612f1e8287615ac4565b9550612f2a8286615ac4565b9450612f368285615c3c565b9350612f428284615c3c565b925081601d6000828254612f569190615c3c565b90915550506016546001600160a01b03808b166000908152601260209081526040808320938c168352929052205550612fe29050565b6000612f9787615dc0565b9050612fa38186615c3c565b9450612faf8185615c3c565b9350612fbb8184615ac4565b9250612fc78183615ac4565b915080601d6000828254612fdb9190615ac4565b9091555050505b6001600160a01b038088166000818152601060209081526040808320948a1680845294825280832089905583835260118252808320889055601482528083208584528252808320879055838352601c909152902083905590036130b157811580159061304f5750600d5482105b1561308757604051636fe84f3d60e01b81526001600160a01b0380891660048301528616602482015260448101879052606401611b95565b60008613156130a657816000036130a1576130a187613d28565b61311e565b6130a1876001613cc9565b81158015906130c15750600e5482105b156130f957604051636fe84f3d60e01b81526001600160a01b0380891660048301528616602482015260448101879052606401611b95565b600086131561311457816000036130a1576130a1878661443c565b61311e878661486f565b613127876146a1565b601654856001600160a01b0316886001600160a01b03167f80d5c777e5f7ac6ee89723223803ca5c0ec0204f89e99c1b0cde973c66a645948960405161316f91815260200190565b60405180910390a450505050505050565b60408051808201909152600081526060602082015281516020808401919091206001600160e01b0319908116600090815280835260409081902081518083018352815460e01b909316835260018101805483518187028101870190945280845293949193858301939283018282801561321857602002820191906000526020600020905b815481526020019060010190808311613204575b5050505050815250509050919050565b6001600160e01b031980831660009081526020818152604080832081518083018352815460e01b9095168552600181018054835181860281018601909452808452949586959094929385840193909291908301828280156132a857602002820191906000526020600020905b815481526020019060010190808311613294575b50505050508152505090508060200151516000036132ca576000915050611880565b602081015181516000906132dd9061489c565b905060005b82518110156133ea57818382815181106132fe576132fe615aae565b6020026020010151036133e2576000808211613334578360008151811061332757613327615aae565b6020026020010151613359565b83613340600184615c3c565b8151811061335057613350615aae565b60200260200101515b905060006001855161336b9190615c3c565b831061339d5784600186516133809190615c3c565b8151811061339057613390615aae565b60200260200101516133c2565b846133a9846001615ac4565b815181106133b9576133b9615aae565b60200260200101515b90508188141580156133d45750808814155b159650505050505050611880565b6001016132e2565b5060009695505050505050565b6040805180820190915260008152606060208201526001600160e01b03198083166000908152602081815260409182902082518084018452815460e01b90941684526001810180548451818502810185019095528085529193858401939092908301828280156132185760200282019190600052602060002090815481526020019060010190808311613204575050505050815250509050919050565b60006018546017546019546134a99190615ac4565b6126419190615c3c565b6025546001600160a01b031633146134dd576040516282b42960e81b815260040160405180910390fd5b601e546040516307b9342f60e21b81526001600160a01b0384811660048301526000921690631ee4d0bc90602401602060405180830381865afa158015613528573d6000803e3d6000fd5b505050506040513d601f19601f8201168201806040525081019061354c9190615ce2565b9050613558818361496a565b505050565b3a60000361357e57604051630e661aed60e41b815260040160405180910390fd5b613586614a14565b6001600160a01b038116600090815260126020908152604080832033808552925290912054601654116135df57604051630b06352b60e31b81526001600160a01b03808416600483015282166024820152604401611b95565b6001600160a01b0380831660009081526010602090815260408083209385168352929052908120549081900361362857604051633ca0029d60e01b815260040160405180910390fd5b6001600160a01b038084166000818152601060209081526040808320948716835293815283822082905591815260119091522054613667908290615c3c565b6001600160a01b03808516600090815260116020908152604080832094909455601481528382209286168252919091529081205490036136ab576136ab8383614a5e565b6136b5828261449e565b601654826001600160a01b0316846001600160a01b03167ff380b0bc887e00f5b50d3c9d4eaaf5c9a0afd97b956316b995159384c4ede9b3846040516136fd91815260200190565b60405180910390a450506120d360017f9b779b17422d0df92223018b32b4d1fa46e071723d6817e2486d003becc55f0055565b601e60009054906101000a90046001600160a01b03166001600160a01b03166356b54bae6040518163ffffffff1660e01b8152600401602060405180830381865afa158015613783573d6000803e3d6000fd5b505050506040513d601f19601f820116820180604052508101906137a79190615ce2565b6001600160a01b0316336001600160a01b0316146137d7576040516282b42960e81b815260040160405180910390fd5b60008281526021602090815260408083206001600160a01b0385168452909152812054900361190d576001600160a01b0381166000908152601c60205260408120549081900361382657505050565b60008381526021602090815260408083206001600160a01b038616808552908352818420949094556014825280832082528083205486845260228352818420948452939091529020555050565b60606126416005613d3d565b60606126416003613d3d565b3a6000036138ac57604051630e661aed60e41b815260040160405180910390fd5b601e546040516253517560e01b81523360048201819052916000916001600160a01b03909116906253517590602401602060405180830381865afa1580156138f8573d6000803e3d6000fd5b505050506040513d601f19601f8201168201806040525081019061391c9190615ce2565b905060165460001480156139995750601e5460405163facd743b60e01b81526001600160a01b0383811660048301529091169063facd743b90602401602060405180830381865afa158015613975573d6000803e3d6000fd5b505050506040513d601f19601f820116820180604052508101906139999190615c88565b156139c2576040516303d71f2d60e51b81526001600160a01b0383166004820152602401611b95565b61190d82613d4a565b601e546001600160a01b031633148015906139f157506026546001600160a01b03163314155b15613a0e576040516282b42960e81b815260040160405180910390fd5b60168054906000613a1e83615ddc565b90915550506000601b55565b613a32613d90565b6001600160a01b038116613a5c57604051631e4fbdf760e01b815260006004820152602401611b95565b6120d3816147dc565b3a600003613a8657604051630e661aed60e41b815260040160405180910390fd5b613a8e614a14565b33613a9a838284613deb565b613aa4818361449e565b601654816001600160a01b0316846001600160a01b03167fa7c0f0cac6bd4d18042007706c84a8abe823751cf289b69c01e83eef7b5915c785604051613aec91815260200190565b60405180910390a45061190d60017f9b779b17422d0df92223018b32b4d1fa46e071723d6817e2486d003becc55f0055565b6000613b2b60018361484d565b80611880575061188060038361484d565b6120d381614bb4565b60c08101351580613b5f57508061010001358160c0013511155b15613b7d5760405163c671116b60e01b815260040160405180910390fd5b806101000135600003613ba3576040516332154b4760e01b815260040160405180910390fd5b60e08101351580613bbc57508060c001358160e0013510155b15613bda57604051630685efe960e01b815260040160405180910390fd5b6000613be960208301836154a4565b6001600160a01b031603613c105760405163d92e233d60e01b815260040160405180910390fd5b613c1d6040820182615a37565b9050600003613c3f57604051635c9a24ed60e11b815260040160405180910390fd5b60608101351580613c5257506080810135155b15613c805760405163633373e160e11b81526080820135600482015260608201356024820152604401611b95565b80608001358160a00135116120d357604051631c6d3b1560e01b815260040160405180910390fd5b613cb061478e565b6120d381614bbf565b613cc161478e565b6127d7614bc7565b613cd282612d7f565b613d0d57613ce1600183614bcf565b506064613cee6001614be4565b1115613d0d5760405163398dcd9d60e21b815260040160405180910390fd5b613d18600383614427565b50801561190d5761190d82614bee565b613d33600582614bcf565b506120d381614ce3565b6060600061185283614f00565b613d55600182614427565b50613d5f816143e9565b15613d7557613d6f600382614427565b50613d7e565b613d7e81614bb4565b613d8781614ce3565b6120d381614f5b565b33613dc27f9016d09d72d40fdae2fd8ceac6b6234c7706214fd39c1cd1e609a0528c199300546001600160a01b031690565b6001600160a01b0316146127d75760405163118cdaa760e01b8152336004820152602401611b95565b6001600160a01b038316613e125760405163d92e233d60e01b815260040160405180910390fd5b80600003613e3357604051633ca0029d60e01b815260040160405180910390fd5b6000613e3f8484612646565b905080821115613e6c57604051632de4882160e01b81526004810182905260248101839052604401611b95565b6001600160a01b038085166000908152601460209081526040808320938716835292905290812054613e9f908490615c3c565b90506000846001600160a01b0316866001600160a01b031614613ec457600e54613ec8565b600d545b90508115801590613ed857508082105b15613f1057604051639e612d5760e01b81526001600160a01b0380881660048301528616602482015260448101859052606401611b95565b856001600160a01b0316856001600160a01b031614613fa557601e546040516253517560e01b81526001600160a01b03888116600483015260009216906253517590602401602060405180830381865afa158015613f72573d6000803e3d6000fd5b505050506040513d601f19601f82011682018060405250810190613f969190615ce2565b9050613fa3878288614f66565b505b6001600160a01b038681166000818152601460209081526040808320948a16808452948252808320879055928252600c8152828220938252928352818120601654825290925290205484811015613ffd576000614007565b6140078582615c3c565b6001600160a01b038089166000818152600c60209081526040808320948c1683529381528382206016548352815283822094909455908152601c90925281208054879290614056908490615c3c565b9250508190555084601d600082825461406f9190615c3c565b90915550506000839003614087576140878787614a5e565b614090876146a1565b50505050505050565b6001600160a01b0383166140c05760405163d92e233d60e01b815260040160405180910390fd5b601e546040516253517560e01b81526001600160a01b03858116600483015260009216906253517590602401602060405180830381865afa158015614109573d6000803e3d6000fd5b505050506040513d601f19601f8201168201806040525081019061412d9190615ce2565b90506001600160a01b03811661416157604051632670461960e11b81526001600160a01b0385166004820152602401611b95565b816000036141955760405163e59f5c3960e01b81526001600160a01b03808616600483015284166024820152604401611b95565b6001600160a01b038416600090815260208052604090205460ff16156141d95760405163078137eb60e41b81526001600160a01b0385166004820152602401611b95565b6001600160a01b038085166000818152601460209081526040808320948816808452949091528120549290911491614212908590615ac4565b9050600082156142255750600d54614274565b50600e546001600160a01b038716600090815260146020908152604080832090915281205490036142745760405163cbbeb0bd60e01b81526001600160a01b0388166004820152602401611b95565b808210156142a85760405163e59f5c3960e01b81526001600160a01b03808916600483015287166024820152604401611b95565b600f546001600160a01b0388166000908152601c60205260409020546142cf908790615ac4565b111561430157604051632c2b174160e21b81526001600160a01b03808916600483015287166024820152604401611b95565b6001600160a01b038088166000908152600c60209081526040808320938a168352928152828220601654835290529081208054879290614342908490615ac4565b90915550506001600160a01b0387166000908152601c60205260408120805487929061436f908490615ac4565b9250508190555084601d60008282546143889190615ac4565b909155505082156143a35761439e876001613cc9565b6143b8565b6143ad878761486f565b6143b8878588614f66565b6001600160a01b038088166000908152601460209081526040808320938a16835292905220829055614090876146a1565b6001600160a01b0381166000908152601c60205260408120541580156118805750506001600160a01b03166000908152601160205260409020541590565b6000611852836001600160a01b038416615082565b6001600160a01b0382166000908152600a6020526040902061445e9082614427565b506001600160a01b03808316600090815260106020908152604080832093851683529290522054156144945761190d8282615175565b61190d8282615197565b804710156144bf57604051631e9acf1760e31b815260040160405180910390fd5b6000826001600160a01b03168260405160006040518083038185875af1925050503d806000811461450c576040519150601f19603f3d011682016040523d82523d6000602084013e614511565b606091505b505090508061355857604051630e21dcbb60e11b81526001600160a01b038416600482015260248101839052604401611b95565b6000841580614552575083155b1561455f5750600061458b565b6000861561458057848685028161457857614578615caa565b049050614588565b506064828402045b90505b95945050505050565b6000836000036145a657506000611852565b6001600160a01b0380841660009081526024602090815260408083209386168352929052205484900361460757506001600160a01b038083166000908152602360209081526040808320938516835292815282822086835290522054611852565b506001600160a01b03808316600090815260146020908152604080832093851683529290522054611852565b6000841580614640575083155b80614649575085155b1561465657506000614697565b6000871561467757868685028161466f5761466f615caa565b049050614694565b8460640283606403878602028161469057614690615caa565b0490505b90505b9695505050505050565b601e546040516253517560e01b81526001600160a01b03838116600483015260009216906253517590602401602060405180830381865afa1580156146ea573d6000803e3d6000fd5b505050506040513d601f19601f8201168201806040525081019061470e9190615ce2565b602554604051633941e77760e21b81526001600160a01b0380841660048301529293506000929091169063e5079ddc90602401602060405180830381865afa15801561475e573d6000803e3d6000fd5b505050506040513d601f19601f820116820180604052508101906147829190615df5565b9050613558838261496a565b7ff0c57e16840df040f15088dc2f81fe391c3923bec73e23a9662efc9c229c6a005468010000000000000000900460ff166127d757604051631afcd79f60e31b815260040160405180910390fd5b7f9016d09d72d40fdae2fd8ceac6b6234c7706214fd39c1cd1e609a0528c19930080546001600160a01b031981166001600160a01b03848116918217845560405192169182907f8be0079c531659141344cd1fd0a4f28419497f9722a3daafe3b4186f6b6457e090600090a3505050565b6001600160a01b03811660009081526001830160205260408120541515611852565b6001600160a01b0382166000908152600a602052604090206148919082614bcf565b5061190d8282615197565b60408051600481526024810182526020810180517bffffffffffffffffffffffffffffffffffffffffffffffffffffffff166001600160e01b031985161790529051600091908290819030906148f3908590615e0e565b600060405180830381855afa9150503d806000811461492e576040519150601f19603f3d011682016040523d82523d6000602084013e614933565b606091505b50915091508161495657604051635fbab09b60e11b815260040160405180910390fd5b8080602001905181019061458b9190615df5565b600080614976846151b9565b91509150816149855750505050565b60006008828154811061499a5761499a615aae565b60009182526020808320909101546001600160a01b0388168352601c90915260408220549092506149cc908690615a97565b905080600884815481106149e2576149e2615aae565b906000526020600020018190555080826009546149ff9190615c3c565b614a099190615ac4565b600955505050505050565b7f9b779b17422d0df92223018b32b4d1fa46e071723d6817e2486d003becc55f00805460011901614a5857604051633ee5aeb560e01b815260040160405180910390fd5b60029055565b816001600160a01b0316816001600160a01b031603614b6b57601e546040516253517560e01b81526001600160a01b03848116600483015260009216906253517590602401602060405180830381865afa158015614ac0573d6000803e3d6000fd5b505050506040513d601f19601f82011682018060405250810190614ae49190615ce2565b601e5460405163facd743b60e01b81526001600160a01b03808416600483015292935091169063facd743b90602401602060405180830381865afa158015614b30573d6000803e3d6000fd5b505050506040513d601f19601f82011682018060405250810190614b549190615c88565b15614b625761355883613d28565b61355883613d4a565b614b75828261443c565b614b7e826143e9565b1561190d57613558600383614427565b60017f9b779b17422d0df92223018b32b4d1fa46e071723d6817e2486d003becc55f0055565b61190d600382614bcf565b613a3261478e565b614b8e61478e565b6000611852836001600160a01b03841661522b565b6000611880825490565b6001600160a01b0381166000908152601360205260409020546007548082101580614c495750826001600160a01b031660078381548110614c3157614c31615aae565b6000918252602090912001546001600160a01b031614155b15614cda576001600160a01b03831660008181526013602052604081208390556007805460018181019092557fa66cc928b5edb82af9bd49922954155ab7b0942694bea4ce44661d9a8736c6880180546001600160a01b03191690931790925560088054928301815581527ff3f7a9fe364faab93b216da50a3214154f22a0a2b415b23a84c8169e8b636ee3909101555b61355883614f5b565b60085460075414614cf15750565b6001600160a01b03811660009081526013602052604090205460075481108015614d4a5750816001600160a01b031660078281548110614d3357614d33615aae565b6000918252602090912001546001600160a01b0316145b1561190d5760088181548110614d6257614d62615aae565b906000526020600020015460095410614daf5760088181548110614d8857614d88615aae565b906000526020600020015460096000828254614da49190615c3c565b90915550614db59050565b60006009555b600754600090614dc790600190615c3c565b9050600060078281548110614dde57614dde615aae565b600091825260209091200154600780546001600160a01b039092169250829185908110614e0d57614e0d615aae565b9060005260206000200160006101000a8154816001600160a01b0302191690836001600160a01b0316021790555060088281548110614e4e57614e4e615aae565b906000526020600020015460088481548110614e6c57614e6c615aae565b60009182526020808320909101929092556001600160a01b038084168252601390925260408082208690559186168152908120556007805480614eb157614eb1615e2a565b600082815260209020810160001990810180546001600160a01b03191690550190556008805480614ee457614ee4615e2a565b6001900381819060005260206000200160009055905550505050565b6060816000018054806020026020016040519081016040528092919081815260200182805480156124e157602002820191906000526020600020905b815481526020019060010190808311614f3c5750505050509050919050565b61190d600582614427565b601e5460405163a0d16cad60e01b81526001600160a01b0384811660048301529091169063a0d16cad90602401602060405180830381865afa158015614fb0573d6000803e3d6000fd5b505050506040513d601f19601f82011682018060405250810190614fd49190615c88565b1580614fe05750601654155b15614fea57505050565b6001600160a01b0380841660009081526024602090815260408083209385168352929052205460165481101561507c576001600160a01b0380851660008181526014602090815260408083209487168084529482528083205484845260238352818420868552835281842060168054865290845282852091909155549383526024825280832094835293905291909120555b50505050565b6000818152600183016020526040812054801561516b5760006150a6600183615c3c565b85549091506000906150ba90600190615c3c565b905080821461511f5760008660000182815481106150da576150da615aae565b90600052602060002001549050808760000184815481106150fd576150fd615aae565b6000918252602080832090910192909255918252600188019052604090208390555b855486908061513057615130615e2a565b600190038181906000526020600020016000905590558560010160008681526020019081526020016000206000905560019350505050611880565b6000915050611880565b6001600160a01b0382166000908152600b602052604090206135589082614bcf565b6001600160a01b0382166000908152600b602052604090206135589082614427565b6001600160a01b038116600090815260136020526040812054600754811080156152125750826001600160a01b0316600782815481106151fb576151fb615aae565b6000918252602090912001546001600160a01b0316145b156152205760019150915091565b506000928392509050565b600081815260018301602052604081205461527257508154600181810184556000848152602080822090930184905584548482528286019093526040902091909155611880565b506000611880565b8280548282559060005260206000209081019282156152b5579160200282015b828111156152b557825182559160200191906001019061529a565b506152c19291506152df565b5090565b50805460008255906000526020600020908101906120d391905b5b808211156152c157600081556001016152e0565b6001600160a01b03811681146120d357600080fd5b60008060006060848603121561531e57600080fd5b8335615329816152f4565b92506020840135615339816152f4565b929592945050506040919091013590565b60008083601f84011261535c57600080fd5b50813567ffffffffffffffff81111561537457600080fd5b6020830191508360208260051b850101111561538f57600080fd5b9250929050565b600080600080600080608087890312156153af57600080fd5b86356153ba816152f4565b9550602087013567ffffffffffffffff808211156153d757600080fd5b90880190610120828b0312156153ec57600080fd5b9095506040880135908082111561540257600080fd5b61540e8a838b0161534a565b9096509450606089013591508082111561542757600080fd5b5061543489828a0161534a565b979a9699509497509295939492505050565b6000806040838503121561545957600080fd5b8235615464816152f4565b91506020830135615474816152f4565b809150509250929050565b6000806040838503121561549257600080fd5b823591506020830135615474816152f4565b6000602082840312156154b657600080fd5b8135611852816152f4565b6000602082840312156154d357600080fd5b5035919050565b634e487b7160e01b600052604160045260246000fd5b604051601f8201601f1916810167ffffffffffffffff81118282101715615519576155196154da565b604052919050565b600082601f83011261553257600080fd5b813567ffffffffffffffff81111561554c5761554c6154da565b61555f601f8201601f19166020016154f0565b81815284602083860101111561557457600080fd5b816020850160208301376000918101602001919091529392505050565b6000806000606084860312156155a657600080fd5b833567ffffffffffffffff808211156155be57600080fd5b6155ca87838801615521565b94506020915081860135818111156155e157600080fd5b6155ed88828901615521565b94505060408601358181111561560257600080fd5b8601601f8101881361561357600080fd5b803582811115615625576156256154da565b8060051b92506156368484016154f0565b818152928201840192848101908a85111561565057600080fd5b928501925b8484101561566e57833582529285019290850190615655565b8096505050505050509250925092565b6000806040838503121561569157600080fd5b823561569c816152f4565b946020939093013593505050565b60005b838110156156c55781810151838201526020016156ad565b50506000910152565b600081518084526156e68160208601602086016156aa565b601f01601f19169290920160200192915050565b60208152600061185260208301846156ce565b60008083601f84011261571f57600080fd5b50813567ffffffffffffffff81111561573757600080fd5b60208301915083602082850101111561538f57600080fd5b80356fffffffffffffffffffffffffffffffff198116811461577057600080fd5b919050565b6000806000806060858703121561578b57600080fd5b8435615796816152f4565b9350602085013567ffffffffffffffff8111156157b257600080fd5b6157be8782880161570d565b90945092506157d190506040860161574f565b905092959194509250565b6020808252825182820181905260009190848201906040850190845b8181101561581d5783516001600160a01b0316835292840192918401916001016157f8565b50909695505050505050565b80356001600160f01b03198116811461577057600080fd5b60008060006060848603121561585657600080fd5b8335615861816152f4565b925061586f6020850161574f565b915061587d60408501615829565b90509250925092565b6000806000806060858703121561589c57600080fd5b843567ffffffffffffffff8111156158b357600080fd5b6158bf8782880161570d565b90955093506158d290506020860161574f565b91506157d160408601615829565b80356001600160e01b03198116811461577057600080fd5b60006020828403121561590a57600080fd5b611852826158e0565b60008151808452602080850194506020840160005b8381101561594457815187529582019590820190600101615928565b509495945050505050565b6040815260006159626040830185615913565b90508260208301529392505050565b60608152600061598460608301866156ce565b6fffffffffffffffffffffffffffffffff19949094166020830152506001600160f01b031991909116604090910152919050565b6000602082840312156159ca57600080fd5b813567ffffffffffffffff8111156159e157600080fd5b612b0284828501615521565b602080825282516001600160e01b03191682820152820151604080830152600090612b026060840182615913565b60008060408385031215615a2e57600080fd5b61569c836158e0565b6000808335601e19843603018112615a4e57600080fd5b83018035915067ffffffffffffffff821115615a6957600080fd5b6020019150600581901b360382131561538f57600080fd5b634e487b7160e01b600052601160045260246000fd5b808202811582820484141761188057611880615a81565b634e487b7160e01b600052603260045260246000fd5b8082018082111561188057611880615a81565b600181811c90821680615aeb57607f821691505b602082108103615b0b57634e487b7160e01b600052602260045260246000fd5b50919050565b601f821115613558576000816000526020600020601f850160051c81016020861015615b3a5750805b601f850160051c820191505b81811015615b5957828155600101615b46565b505050505050565b815167ffffffffffffffff811115615b7b57615b7b6154da565b615b8f81615b898454615ad7565b84615b11565b602080601f831160018114615bc45760008415615bac5750858301515b600019600386901b1c1916600185901b178555615b59565b600085815260208120601f198616915b82811015615bf357888601518255948401946001909101908401615bd4565b5085821015615c115787850151600019600388901b60f8161c191681555b5050505050600190811b01905550565b600060208284031215615c3357600080fd5b6118528261574f565b8181038181111561188057611880615a81565b606081526000615c6260608301866156ce565b8281036020840152615c7481866156ce565b905082810360408401526146978185615913565b600060208284031215615c9a57600080fd5b8151801515811461185257600080fd5b634e487b7160e01b600052601260045260246000fd5b600082615cdd57634e487b7160e01b600052601260045260246000fd5b500490565b600060208284031215615cf457600080fd5b8151611852816152f4565b67ffffffffffffffff831115615d1757615d176154da565b615d2b83615d258354615ad7565b83615b11565b6000601f841160018114615d5f5760008515615d475750838201355b600019600387901b1c1916600186901b178355615db9565b600083815260209020601f19861690835b82811015615d905786850135825560209485019460019092019101615d70565b5086821015615dad5760001960f88860031b161c19848701351681555b505060018560011b0183555b5050505050565b6000600160ff1b8201615dd557615dd5615a81565b5060000390565b600060018201615dee57615dee615a81565b5060010190565b600060208284031215615e0757600080fd5b5051919050565b60008251615e208184602087016156aa565b9190910192915050565b634e487b7160e01b600052603160045260246000fdfea264697066735822122029c372ca621f75e6b8bbee9e3e5958fb51324e3f219ab074dc2b8a1ec2d86e3d64736f6c63430008190033",
  "linkReferences": {},
  "deployedLinkReferences": {}
}