{
  "_format": "hh-sol-artifact-1",
  "contractName": "StakingHbbftMock",
  "sourceName": "contracts/mockContracts/StakingHbbftMock.sol",
  "abi": [
    {
      "inputs": [
        {
          "internalType": "address",
          "name": "pool",
          "type": "address"
        },
        {
          "internalType": "address",
          "name": "staker",
          "type": "address"
        }
      ],
      "name": "CannotClaimWithdrawOrderYet",
      "type": "error"
    },
    {
      "inputs": [],
      "name": "GetterCallFailed",
      "type": "error"
    },
    {
      "inputs": [],
      "name": "InitialStakingPoolsListEmpty",
      "type": "error"
    },
    {
      "inputs": [],
      "name": "InsufficientBalance",
      "type": "error"
    },
    {
      "inputs": [
        {
          "internalType": "address",
          "name": "pool",
          "type": "address"
        },
        {
          "internalType": "address",
          "name": "delegator",
          "type": "address"
        }
      ],
      "name": "InsufficientStakeAmount",
      "type": "error"
    },
    {
      "inputs": [],
      "name": "InvalidFixedEpochDuration",
      "type": "error"
    },
    {
      "inputs": [
        {
          "internalType": "uint256",
          "name": "candidateStake",
          "type": "uint256"
        },
        {
          "internalType": "uint256",
          "name": "delegatorStake",
          "type": "uint256"
        }
      ],
      "name": "InvalidInitialStakeAmount",
      "type": "error"
    },
    {
      "inputs": [],
      "name": "InvalidInitialization",
      "type": "error"
    },
    {
      "inputs": [],
      "name": "InvalidIpAddressesCount",
      "type": "error"
    },
    {
      "inputs": [],
      "name": "InvalidMaxStakeAmount",
      "type": "error"
    },
    {
      "inputs": [],
      "name": "InvalidMoveStakePoolsAddress",
      "type": "error"
    },
    {
      "inputs": [
        {
          "internalType": "address",
          "name": "_operator",
          "type": "address"
        },
        {
          "internalType": "uint256",
          "name": "_share",
          "type": "uint256"
        }
      ],
      "name": "InvalidNodeOperatorConfiguration",
      "type": "error"
    },
    {
      "inputs": [
        {
          "internalType": "uint256",
          "name": "_share",
          "type": "uint256"
        }
      ],
      "name": "InvalidNodeOperatorShare",
      "type": "error"
    },
    {
      "inputs": [
        {
          "internalType": "address",
          "name": "pool",
          "type": "address"
        },
        {
          "internalType": "address",
          "name": "delegator",
          "type": "address"
        },
        {
          "internalType": "int256",
          "name": "amount",
          "type": "int256"
        }
      ],
      "name": "InvalidOrderWithdrawAmount",
      "type": "error"
    },
    {
      "inputs": [],
      "name": "InvalidPointsValue",
      "type": "error"
    },
    {
      "inputs": [],
      "name": "InvalidPublicKey",
      "type": "error"
    },
    {
      "inputs": [],
      "name": "InvalidPublicKeyLength",
      "type": "error"
    },
    {
      "inputs": [],
      "name": "InvalidPublicKeysCount",
      "type": "error"
    },
    {
      "inputs": [],
      "name": "InvalidStakingFixedEpochDuration",
      "type": "error"
    },
    {
      "inputs": [],
      "name": "InvalidStakingTransitionTimeframe",
      "type": "error"
    },
    {
      "inputs": [],
      "name": "InvalidTransitionTimeFrame",
      "type": "error"
    },
    {
      "inputs": [
        {
          "internalType": "address",
          "name": "pool",
          "type": "address"
        },
        {
          "internalType": "address",
          "name": "delegator",
          "type": "address"
        },
        {
          "internalType": "uint256",
          "name": "amount",
          "type": "uint256"
        }
      ],
      "name": "InvalidWithdrawAmount",
      "type": "error"
    },
    {
      "inputs": [
        {
          "internalType": "uint256",
          "name": "allowed",
          "type": "uint256"
        },
        {
          "internalType": "uint256",
          "name": "desired",
          "type": "uint256"
        }
      ],
      "name": "MaxAllowedWithdrawExceeded",
      "type": "error"
    },
    {
      "inputs": [],
      "name": "MaxPoolsCountExceeded",
      "type": "error"
    },
    {
      "inputs": [],
      "name": "MiningAddressPublicKeyMismatch",
      "type": "error"
    },
    {
      "inputs": [
        {
          "internalType": "uint256",
          "name": "_newVal",
          "type": "uint256"
        }
      ],
      "name": "NewValueOutOfRange",
      "type": "error"
    },
    {
      "inputs": [],
      "name": "NoStakesToRecover",
      "type": "error"
    },
    {
      "inputs": [],
      "name": "NotInitializing",
      "type": "error"
    },
    {
      "inputs": [],
      "name": "NotPayable",
      "type": "error"
    },
    {
      "inputs": [
        {
          "internalType": "uint256",
          "name": "_epoch",
          "type": "uint256"
        }
      ],
      "name": "OnlyOncePerEpoch",
      "type": "error"
    },
    {
      "inputs": [
        {
          "internalType": "address",
          "name": "owner",
          "type": "address"
        }
      ],
      "name": "OwnableInvalidOwner",
      "type": "error"
    },
    {
      "inputs": [
        {
          "internalType": "address",
          "name": "account",
          "type": "address"
        }
      ],
      "name": "OwnableUnauthorizedAccount",
      "type": "error"
    },
    {
      "inputs": [
        {
          "internalType": "address",
          "name": "pool",
          "type": "address"
        }
      ],
      "name": "PoolAbandoned",
      "type": "error"
    },
    {
      "inputs": [
        {
          "internalType": "address",
          "name": "pool",
          "type": "address"
        }
      ],
      "name": "PoolCannotBeRemoved",
      "type": "error"
    },
    {
      "inputs": [
        {
          "internalType": "address",
          "name": "pool",
          "type": "address"
        }
      ],
      "name": "PoolEmpty",
      "type": "error"
    },
    {
      "inputs": [
        {
          "internalType": "address",
          "name": "pool",
          "type": "address"
        }
      ],
      "name": "PoolNotExist",
      "type": "error"
    },
    {
      "inputs": [
        {
          "internalType": "address",
          "name": "pool",
          "type": "address"
        },
        {
          "internalType": "address",
          "name": "delegator",
          "type": "address"
        }
      ],
      "name": "PoolStakeLimitExceeded",
      "type": "error"
    },
    {
      "inputs": [],
      "name": "ReentrancyGuardReentrantCall",
      "type": "error"
    },
    {
      "inputs": [
        {
          "internalType": "address",
          "name": "recipient",
          "type": "address"
        },
        {
          "internalType": "uint256",
          "name": "amount",
          "type": "uint256"
        }
      ],
      "name": "TransferFailed",
      "type": "error"
    },
    {
      "inputs": [],
      "name": "Unauthorized",
      "type": "error"
    },
    {
      "inputs": [],
      "name": "WithdrawNotAllowed",
      "type": "error"
    },
    {
      "inputs": [],
      "name": "ZeroAddress",
      "type": "error"
    },
    {
      "inputs": [],
      "name": "ZeroGasPrice",
      "type": "error"
    },
    {
      "inputs": [],
      "name": "ZeroWidthrawAmount",
      "type": "error"
    },
    {
      "inputs": [],
      "name": "ZeroWidthrawDisallowPeriod",
      "type": "error"
    },
    {
      "anonymous": false,
      "inputs": [
        {
          "indexed": true,
          "internalType": "address",
          "name": "fromPoolStakingAddress",
          "type": "address"
        },
        {
          "indexed": true,
          "internalType": "address",
          "name": "staker",
          "type": "address"
        },
        {
          "indexed": true,
          "internalType": "uint256",
          "name": "stakingEpoch",
          "type": "uint256"
        },
        {
          "indexed": false,
          "internalType": "uint256",
          "name": "amount",
          "type": "uint256"
        }
      ],
      "name": "ClaimedOrderedWithdrawal",
      "type": "event"
    },
    {
      "anonymous": false,
      "inputs": [
        {
          "indexed": true,
          "internalType": "address",
          "name": "caller",
          "type": "address"
        },
        {
          "indexed": true,
          "internalType": "address",
          "name": "stakingAddress",
          "type": "address"
        },
        {
          "indexed": false,
          "internalType": "uint256",
          "name": "gatheredFunds",
          "type": "uint256"
        }
      ],
      "name": "GatherAbandonedStakes",
      "type": "event"
    },
    {
      "anonymous": false,
      "inputs": [
        {
          "indexed": false,
          "internalType": "uint64",
          "name": "version",
          "type": "uint64"
        }
      ],
      "name": "Initialized",
      "type": "event"
    },
    {
      "anonymous": false,
      "inputs": [
        {
          "indexed": false,
          "internalType": "address",
          "name": "fromPoolStakingAddress",
          "type": "address"
        },
        {
          "indexed": true,
          "internalType": "address",
          "name": "toPoolStakingAddress",
          "type": "address"
        },
        {
          "indexed": true,
          "internalType": "address",
          "name": "staker",
          "type": "address"
        },
        {
          "indexed": true,
          "internalType": "uint256",
          "name": "stakingEpoch",
          "type": "uint256"
        },
        {
          "indexed": false,
          "internalType": "uint256",
          "name": "amount",
          "type": "uint256"
        }
      ],
      "name": "MovedStake",
      "type": "event"
    },
    {
      "anonymous": false,
      "inputs": [
        {
          "indexed": true,
          "internalType": "address",
          "name": "fromPoolStakingAddress",
          "type": "address"
        },
        {
          "indexed": true,
          "internalType": "address",
          "name": "staker",
          "type": "address"
        },
        {
          "indexed": true,
          "internalType": "uint256",
          "name": "stakingEpoch",
          "type": "uint256"
        },
        {
          "indexed": false,
          "internalType": "int256",
          "name": "amount",
          "type": "int256"
        }
      ],
      "name": "OrderedWithdrawal",
      "type": "event"
    },
    {
      "anonymous": false,
      "inputs": [
        {
          "indexed": true,
          "internalType": "address",
          "name": "previousOwner",
          "type": "address"
        },
        {
          "indexed": true,
          "internalType": "address",
          "name": "newOwner",
          "type": "address"
        }
      ],
      "name": "OwnershipTransferred",
      "type": "event"
    },
    {
      "anonymous": false,
      "inputs": [
        {
          "indexed": true,
          "internalType": "address",
          "name": "toPoolStakingAddress",
          "type": "address"
        },
        {
          "indexed": true,
          "internalType": "address",
          "name": "staker",
          "type": "address"
        },
        {
          "indexed": true,
          "internalType": "uint256",
          "name": "stakingEpoch",
          "type": "uint256"
        },
        {
          "indexed": false,
          "internalType": "uint256",
          "name": "amount",
          "type": "uint256"
        }
      ],
      "name": "PlacedStake",
      "type": "event"
    },
    {
      "anonymous": false,
      "inputs": [
        {
          "indexed": true,
          "internalType": "address",
          "name": "caller",
          "type": "address"
        },
        {
          "indexed": false,
          "internalType": "uint256",
          "name": "reinsertShare",
          "type": "uint256"
        },
        {
          "indexed": false,
          "internalType": "uint256",
          "name": "governanceShare",
          "type": "uint256"
        }
      ],
      "name": "RecoverAbandonedStakes",
      "type": "event"
    },
    {
      "anonymous": false,
      "inputs": [
        {
          "indexed": false,
          "internalType": "bytes4",
          "name": "funcSelector",
          "type": "bytes4"
        }
      ],
      "name": "RemoveChangeableParameter",
      "type": "event"
    },
    {
      "anonymous": false,
      "inputs": [
        {
          "indexed": true,
          "internalType": "address",
          "name": "poolStakingAddress",
          "type": "address"
        },
        {
          "indexed": true,
          "internalType": "uint256",
          "name": "stakingEpoch",
          "type": "uint256"
        },
        {
          "indexed": false,
          "internalType": "uint256",
          "name": "validatorReward",
          "type": "uint256"
        },
        {
          "indexed": false,
          "internalType": "uint256",
          "name": "delegatorsReward",
          "type": "uint256"
        }
      ],
      "name": "RestakeReward",
      "type": "event"
    },
    {
      "anonymous": false,
      "inputs": [
        {
          "indexed": false,
          "internalType": "bytes4",
          "name": "setter",
          "type": "bytes4"
        },
        {
          "indexed": false,
          "internalType": "bytes4",
          "name": "getter",
          "type": "bytes4"
        },
        {
          "indexed": false,
          "internalType": "uint256[]",
          "name": "params",
          "type": "uint256[]"
        }
      ],
      "name": "SetChangeableParameter",
      "type": "event"
    },
    {
      "anonymous": false,
      "inputs": [
        {
          "indexed": false,
          "internalType": "uint256",
          "name": "minStake",
          "type": "uint256"
        }
      ],
      "name": "SetDelegatorMinStake",
      "type": "event"
    },
    {
      "anonymous": false,
      "inputs": [
        {
          "indexed": true,
          "internalType": "address",
          "name": "poolStakingAddress",
          "type": "address"
        },
        {
          "indexed": true,
          "internalType": "address",
          "name": "nodeOperatorAddress",
          "type": "address"
        },
        {
          "indexed": false,
          "internalType": "uint256",
          "name": "operatorShare",
          "type": "uint256"
        }
      ],
      "name": "SetNodeOperator",
      "type": "event"
    },
    {
      "anonymous": false,
      "inputs": [
        {
          "indexed": true,
          "internalType": "address",
          "name": "fromPoolStakingAddress",
          "type": "address"
        },
        {
          "indexed": true,
          "internalType": "address",
          "name": "staker",
          "type": "address"
        },
        {
          "indexed": true,
          "internalType": "uint256",
          "name": "stakingEpoch",
          "type": "uint256"
        },
        {
          "indexed": false,
          "internalType": "uint256",
          "name": "amount",
          "type": "uint256"
        }
      ],
      "name": "WithdrewStake",
      "type": "event"
    },
    {
      "inputs": [],
      "name": "MAX_CANDIDATES",
      "outputs": [
        {
          "internalType": "uint256",
          "name": "",
          "type": "uint256"
        }
      ],
      "stateMutability": "view",
      "type": "function"
    },
    {
      "inputs": [],
      "name": "MAX_NODE_OPERATOR_SHARE_PERCENT",
      "outputs": [
        {
          "internalType": "uint256",
          "name": "",
          "type": "uint256"
        }
      ],
      "stateMutability": "view",
      "type": "function"
    },
    {
      "inputs": [],
      "name": "PERCENT_DENOMINATOR",
      "outputs": [
        {
          "internalType": "uint256",
          "name": "",
          "type": "uint256"
        }
      ],
      "stateMutability": "view",
      "type": "function"
    },
    {
      "inputs": [
        {
          "internalType": "address",
          "name": "",
          "type": "address"
        }
      ],
      "name": "abandonedAndRemoved",
      "outputs": [
        {
          "internalType": "bool",
          "name": "",
          "type": "bool"
        }
      ],
      "stateMutability": "view",
      "type": "function"
    },
    {
      "inputs": [],
      "name": "actualEpochEndTime",
      "outputs": [
        {
          "internalType": "uint256",
          "name": "",
          "type": "uint256"
        }
      ],
      "stateMutability": "view",
      "type": "function"
    },
    {
      "inputs": [],
      "name": "addBalance",
      "outputs": [],
      "stateMutability": "payable",
      "type": "function"
    },
    {
      "inputs": [
        {
          "internalType": "address",
          "name": "_miningAddress",
          "type": "address"
        },
        {
          "internalType": "address",
          "name": "_nodeOperatorAddress",
          "type": "address"
        },
        {
          "internalType": "uint256",
          "name": "_operatorShare",
          "type": "uint256"
        },
        {
          "internalType": "bytes",
          "name": "_publicKey",
          "type": "bytes"
        },
        {
          "internalType": "bytes16",
          "name": "_ip",
          "type": "bytes16"
        }
      ],
      "name": "addPool",
      "outputs": [],
      "stateMutability": "payable",
      "type": "function"
    },
    {
      "inputs": [
        {
          "internalType": "address",
          "name": "_stakingAddress",
          "type": "address"
        }
      ],
      "name": "addPoolActiveMock",
      "outputs": [],
      "stateMutability": "nonpayable",
      "type": "function"
    },
    {
      "inputs": [
        {
          "internalType": "address",
          "name": "_stakingAddress",
          "type": "address"
        }
      ],
      "name": "addPoolInactiveMock",
      "outputs": [],
      "stateMutability": "nonpayable",
      "type": "function"
    },
    {
      "inputs": [],
      "name": "areStakeAndWithdrawAllowed",
      "outputs": [
        {
          "internalType": "bool",
          "name": "",
          "type": "bool"
        }
      ],
      "stateMutability": "pure",
      "type": "function"
    },
    {
      "inputs": [],
      "name": "bonusScoreContract",
      "outputs": [
        {
          "internalType": "contract IBonusScoreSystem",
          "name": "",
          "type": "address"
        }
      ],
      "stateMutability": "view",
      "type": "function"
    },
    {
      "inputs": [],
      "name": "candidateMinStake",
      "outputs": [
        {
          "internalType": "uint256",
          "name": "",
          "type": "uint256"
        }
      ],
      "stateMutability": "view",
      "type": "function"
    },
    {
      "inputs": [
        {
          "internalType": "address",
          "name": "_poolStakingAddress",
          "type": "address"
        }
      ],
      "name": "claimOrderedWithdraw",
      "outputs": [],
      "stateMutability": "nonpayable",
      "type": "function"
    },
    {
      "inputs": [
        {
          "internalType": "address",
          "name": "pool",
          "type": "address"
        },
        {
          "internalType": "address",
          "name": "delegator",
          "type": "address"
        },
        {
          "internalType": "uint256",
          "name": "epoch",
          "type": "uint256"
        }
      ],
      "name": "clearDelegatorStakeSnapshot",
      "outputs": [],
      "stateMutability": "nonpayable",
      "type": "function"
    },
    {
      "inputs": [],
      "name": "currentKeyGenExtraTimeWindow",
      "outputs": [
        {
          "internalType": "uint256",
          "name": "",
          "type": "uint256"
        }
      ],
      "stateMutability": "view",
      "type": "function"
    },
    {
      "inputs": [],
      "name": "delegatorMinStake",
      "outputs": [
        {
          "internalType": "uint256",
          "name": "",
          "type": "uint256"
        }
      ],
      "stateMutability": "view",
      "type": "function"
    },
    {
      "inputs": [],
      "name": "earlyEpochEndTime",
      "outputs": [
        {
          "internalType": "uint256",
          "name": "",
          "type": "uint256"
        }
      ],
      "stateMutability": "view",
      "type": "function"
    },
    {
      "inputs": [],
      "name": "earlyEpochEndTriggerTime",
      "outputs": [
        {
          "internalType": "uint256",
          "name": "",
          "type": "uint256"
        }
      ],
      "stateMutability": "view",
      "type": "function"
    },
    {
      "inputs": [
        {
          "internalType": "string",
          "name": "_selector",
          "type": "string"
        }
      ],
      "name": "getAllowedParamsRange",
      "outputs": [
        {
          "components": [
            {
              "internalType": "bytes4",
              "name": "getter",
              "type": "bytes4"
            },
            {
              "internalType": "uint256[]",
              "name": "range",
              "type": "uint256[]"
            }
          ],
          "internalType": "struct ValueGuards.ParameterRange",
          "name": "",
          "type": "tuple"
        }
      ],
      "stateMutability": "view",
      "type": "function"
    },
    {
      "inputs": [
        {
          "internalType": "bytes4",
          "name": "_selector",
          "type": "bytes4"
        }
      ],
      "name": "getAllowedParamsRangeWithSelector",
      "outputs": [
        {
          "components": [
            {
              "internalType": "bytes4",
              "name": "getter",
              "type": "bytes4"
            },
            {
              "internalType": "uint256[]",
              "name": "range",
              "type": "uint256[]"
            }
          ],
          "internalType": "struct ValueGuards.ParameterRange",
          "name": "",
          "type": "tuple"
        }
      ],
      "stateMutability": "view",
      "type": "function"
    },
    {
      "inputs": [
        {
          "internalType": "address",
          "name": "pool",
          "type": "address"
        },
        {
          "internalType": "address",
          "name": "delegator",
          "type": "address"
        },
        {
          "internalType": "uint256",
          "name": "epoch",
          "type": "uint256"
        }
      ],
      "name": "getDelegatorStakeSnapshot",
      "outputs": [
        {
          "internalType": "uint256",
          "name": "",
          "type": "uint256"
        }
      ],
      "stateMutability": "view",
      "type": "function"
    },
    {
      "inputs": [],
      "name": "getMaxCandidates",
      "outputs": [
        {
          "internalType": "uint256",
          "name": "",
          "type": "uint256"
        }
      ],
      "stateMutability": "pure",
      "type": "function"
    },
    {
      "inputs": [
        {
          "internalType": "address",
          "name": "_poolAddress",
          "type": "address"
        }
      ],
      "name": "getPoolInternetAddress",
      "outputs": [
        {
          "internalType": "bytes16",
          "name": "",
          "type": "bytes16"
        },
        {
          "internalType": "bytes2",
          "name": "",
          "type": "bytes2"
        }
      ],
      "stateMutability": "view",
      "type": "function"
    },
    {
      "inputs": [
        {
          "internalType": "address",
          "name": "_poolAddress",
          "type": "address"
        }
      ],
      "name": "getPoolPublicKey",
      "outputs": [
        {
          "internalType": "bytes",
          "name": "",
          "type": "bytes"
        }
      ],
      "stateMutability": "view",
      "type": "function"
    },
    {
      "inputs": [
        {
          "internalType": "uint256",
          "name": "_epoch",
          "type": "uint256"
        },
        {
          "internalType": "address",
          "name": "_stakingPool",
          "type": "address"
        }
      ],
      "name": "getPoolValidatorStakeAmount",
      "outputs": [
        {
          "internalType": "uint256",
          "name": "",
          "type": "uint256"
        }
      ],
      "stateMutability": "view",
      "type": "function"
    },
    {
      "inputs": [],
      "name": "getPools",
      "outputs": [
        {
          "internalType": "address[]",
          "name": "",
          "type": "address[]"
        }
      ],
      "stateMutability": "view",
      "type": "function"
    },
    {
      "inputs": [],
      "name": "getPoolsInactive",
      "outputs": [
        {
          "internalType": "address[]",
          "name": "",
          "type": "address[]"
        }
      ],
      "stateMutability": "view",
      "type": "function"
    },
    {
      "inputs": [],
      "name": "getPoolsLikelihood",
      "outputs": [
        {
          "internalType": "uint256[]",
          "name": "likelihoods",
          "type": "uint256[]"
        },
        {
          "internalType": "uint256",
          "name": "sum",
          "type": "uint256"
        }
      ],
      "stateMutability": "view",
      "type": "function"
    },
    {
      "inputs": [],
      "name": "getPoolsToBeElected",
      "outputs": [
        {
          "internalType": "address[]",
          "name": "",
          "type": "address[]"
        }
      ],
      "stateMutability": "view",
      "type": "function"
    },
    {
      "inputs": [],
      "name": "getPoolsToBeRemoved",
      "outputs": [
        {
          "internalType": "address[]",
          "name": "",
          "type": "address[]"
        }
      ],
      "stateMutability": "view",
      "type": "function"
    },
    {
      "inputs": [
        {
          "internalType": "address",
          "name": "pool",
          "type": "address"
        },
        {
          "internalType": "address",
          "name": "delegator",
          "type": "address"
        }
      ],
      "name": "getStakeSnapshotLastEpoch",
      "outputs": [
        {
          "internalType": "uint256",
          "name": "",
          "type": "uint256"
        }
      ],
      "stateMutability": "view",
      "type": "function"
    },
    {
      "inputs": [],
      "name": "incrementStakingEpoch",
      "outputs": [],
      "stateMutability": "nonpayable",
      "type": "function"
    },
    {
      "inputs": [
        {
          "internalType": "address",
          "name": "_contractOwner",
          "type": "address"
        },
        {
          "components": [
            {
              "internalType": "address",
              "name": "_validatorSetContract",
              "type": "address"
            },
            {
              "internalType": "address",
              "name": "_bonusScoreContract",
              "type": "address"
            },
            {
              "internalType": "address[]",
              "name": "_initialStakingAddresses",
              "type": "address[]"
            },
            {
              "internalType": "uint256",
              "name": "_delegatorMinStake",
              "type": "uint256"
            },
            {
              "internalType": "uint256",
              "name": "_candidateMinStake",
              "type": "uint256"
            },
            {
              "internalType": "uint256",
              "name": "_maxStake",
              "type": "uint256"
            },
            {
              "internalType": "uint256",
              "name": "_stakingFixedEpochDuration",
              "type": "uint256"
            },
            {
              "internalType": "uint256",
              "name": "_stakingTransitionTimeframeLength",
              "type": "uint256"
            },
            {
              "internalType": "uint256",
              "name": "_stakingWithdrawDisallowPeriod",
              "type": "uint256"
            }
          ],
          "internalType": "struct IStakingHbbft.StakingParams",
          "name": "stakingParams",
          "type": "tuple"
        },
        {
          "internalType": "bytes32[]",
          "name": "_publicKeys",
          "type": "bytes32[]"
        },
        {
          "internalType": "bytes16[]",
          "name": "_internetAddresses",
          "type": "bytes16[]"
        }
      ],
      "name": "initialize",
      "outputs": [],
      "stateMutability": "nonpayable",
      "type": "function"
    },
    {
      "inputs": [
        {
          "internalType": "address",
          "name": "_stakingAddress",
          "type": "address"
        }
      ],
      "name": "isPoolActive",
      "outputs": [
        {
          "internalType": "bool",
          "name": "",
          "type": "bool"
        }
      ],
      "stateMutability": "view",
      "type": "function"
    },
    {
      "inputs": [
        {
          "internalType": "address",
          "name": "_stakingAddress",
          "type": "address"
        }
      ],
      "name": "isPoolValid",
      "outputs": [
        {
          "internalType": "bool",
          "name": "",
          "type": "bool"
        }
      ],
      "stateMutability": "view",
      "type": "function"
    },
    {
      "inputs": [
        {
          "internalType": "bytes4",
          "name": "funcSelector",
          "type": "bytes4"
        },
        {
          "internalType": "uint256",
          "name": "newVal",
          "type": "uint256"
        }
      ],
      "name": "isWithinAllowedRange",
      "outputs": [
        {
          "internalType": "bool",
          "name": "",
          "type": "bool"
        }
      ],
      "stateMutability": "view",
      "type": "function"
    },
    {
      "inputs": [],
      "name": "maxStakeAmount",
      "outputs": [
        {
          "internalType": "uint256",
          "name": "",
          "type": "uint256"
        }
      ],
      "stateMutability": "view",
      "type": "function"
    },
    {
      "inputs": [
        {
          "internalType": "address",
          "name": "_poolStakingAddress",
          "type": "address"
        },
        {
          "internalType": "address",
          "name": "_staker",
          "type": "address"
        }
      ],
      "name": "maxWithdrawAllowed",
      "outputs": [
        {
          "internalType": "uint256",
          "name": "",
          "type": "uint256"
        }
      ],
      "stateMutability": "view",
      "type": "function"
    },
    {
      "inputs": [
        {
          "internalType": "address",
          "name": "_poolStakingAddress",
          "type": "address"
        },
        {
          "internalType": "address",
          "name": "_staker",
          "type": "address"
        }
      ],
      "name": "maxWithdrawOrderAllowed",
      "outputs": [
        {
          "internalType": "uint256",
          "name": "",
          "type": "uint256"
        }
      ],
      "stateMutability": "view",
      "type": "function"
    },
    {
      "inputs": [
        {
          "internalType": "address",
          "name": "_fromPoolStakingAddress",
          "type": "address"
        },
        {
          "internalType": "address",
          "name": "_toPoolStakingAddress",
          "type": "address"
        },
        {
          "internalType": "uint256",
          "name": "_amount",
          "type": "uint256"
        }
      ],
      "name": "moveStake",
      "outputs": [],
      "stateMutability": "nonpayable",
      "type": "function"
    },
    {
      "inputs": [
        {
          "internalType": "uint256",
          "name": "timestamp",
          "type": "uint256"
        }
      ],
      "name": "notifiyEarlyEpochEnd",
      "outputs": [],
      "stateMutability": "nonpayable",
      "type": "function"
    },
    {
      "inputs": [
        {
          "internalType": "address",
          "name": "_stakingAddress",
          "type": "address"
        }
      ],
      "name": "notifyAvailability",
      "outputs": [],
      "stateMutability": "nonpayable",
      "type": "function"
    },
    {
      "inputs": [],
      "name": "notifyKeyGenFailed",
      "outputs": [],
      "stateMutability": "nonpayable",
      "type": "function"
    },
    {
      "inputs": [
        {
          "internalType": "uint256",
          "name": "detectedOfflineTime",
          "type": "uint256"
        }
      ],
      "name": "notifyNetworkOfftimeDetected",
      "outputs": [],
      "stateMutability": "nonpayable",
      "type": "function"
    },
    {
      "inputs": [
        {
          "internalType": "address",
          "name": "_poolStakingAddress",
          "type": "address"
        },
        {
          "internalType": "int256",
          "name": "_amount",
          "type": "int256"
        }
      ],
      "name": "orderWithdraw",
      "outputs": [],
      "stateMutability": "nonpayable",
      "type": "function"
    },
    {
      "inputs": [
        {
          "internalType": "address",
          "name": "",
          "type": "address"
        },
        {
          "internalType": "address",
          "name": "",
          "type": "address"
        }
      ],
      "name": "orderWithdrawEpoch",
      "outputs": [
        {
          "internalType": "uint256",
          "name": "",
          "type": "uint256"
        }
      ],
      "stateMutability": "view",
      "type": "function"
    },
    {
      "inputs": [
        {
          "internalType": "address",
          "name": "",
          "type": "address"
        },
        {
          "internalType": "address",
          "name": "",
          "type": "address"
        }
      ],
      "name": "orderedWithdrawAmount",
      "outputs": [
        {
          "internalType": "uint256",
          "name": "",
          "type": "uint256"
        }
      ],
      "stateMutability": "view",
      "type": "function"
    },
    {
      "inputs": [
        {
          "internalType": "address",
          "name": "",
          "type": "address"
        }
      ],
      "name": "orderedWithdrawAmountTotal",
      "outputs": [
        {
          "internalType": "uint256",
          "name": "",
          "type": "uint256"
        }
      ],
      "stateMutability": "view",
      "type": "function"
    },
    {
      "inputs": [],
      "name": "owner",
      "outputs": [
        {
          "internalType": "address",
          "name": "",
          "type": "address"
        }
      ],
      "stateMutability": "view",
      "type": "function"
    },
    {
      "inputs": [
        {
          "internalType": "address",
          "name": "_poolStakingAddress",
          "type": "address"
        }
      ],
      "name": "poolDelegators",
      "outputs": [
        {
          "internalType": "address[]",
          "name": "",
          "type": "address[]"
        }
      ],
      "stateMutability": "view",
      "type": "function"
    },
    {
      "inputs": [
        {
          "internalType": "address",
          "name": "_poolStakingAddress",
          "type": "address"
        }
      ],
      "name": "poolDelegatorsInactive",
      "outputs": [
        {
          "internalType": "address[]",
          "name": "",
          "type": "address[]"
        }
      ],
      "stateMutability": "view",
      "type": "function"
    },
    {
      "inputs": [
        {
          "internalType": "address",
          "name": "",
          "type": "address"
        }
      ],
      "name": "poolInfo",
      "outputs": [
        {
          "internalType": "bytes",
          "name": "publicKey",
          "type": "bytes"
        },
        {
          "internalType": "bytes16",
          "name": "internetAddress",
          "type": "bytes16"
        },
        {
          "internalType": "bytes2",
          "name": "port",
          "type": "bytes2"
        }
      ],
      "stateMutability": "view",
      "type": "function"
    },
    {
      "inputs": [
        {
          "internalType": "address",
          "name": "",
          "type": "address"
        }
      ],
      "name": "poolNodeOperator",
      "outputs": [
        {
          "internalType": "address",
          "name": "",
          "type": "address"
        }
      ],
      "stateMutability": "view",
      "type": "function"
    },
    {
      "inputs": [
        {
          "internalType": "address",
          "name": "",
          "type": "address"
        }
      ],
      "name": "poolNodeOperatorLastChangeEpoch",
      "outputs": [
        {
          "internalType": "uint256",
          "name": "",
          "type": "uint256"
        }
      ],
      "stateMutability": "view",
      "type": "function"
    },
    {
      "inputs": [
        {
          "internalType": "address",
          "name": "",
          "type": "address"
        }
      ],
      "name": "poolNodeOperatorShare",
      "outputs": [
        {
          "internalType": "uint256",
          "name": "",
          "type": "uint256"
        }
      ],
      "stateMutability": "view",
      "type": "function"
    },
    {
      "inputs": [
        {
          "internalType": "address",
          "name": "",
          "type": "address"
        }
      ],
      "name": "poolToBeElectedIndex",
      "outputs": [
        {
          "internalType": "uint256",
          "name": "",
          "type": "uint256"
        }
      ],
      "stateMutability": "view",
      "type": "function"
    },
    {
      "inputs": [],
      "name": "recoverAbandonedStakes",
      "outputs": [],
      "stateMutability": "nonpayable",
      "type": "function"
    },
    {
      "inputs": [
        {
          "internalType": "bytes4",
          "name": "funcSelector",
          "type": "bytes4"
        }
      ],
      "name": "removeAllowedChangeableParameter",
      "outputs": [],
      "stateMutability": "nonpayable",
      "type": "function"
    },
    {
      "inputs": [],
      "name": "removeMyPool",
      "outputs": [],
      "stateMutability": "nonpayable",
      "type": "function"
    },
    {
      "inputs": [
        {
          "internalType": "address",
          "name": "_stakingAddress",
          "type": "address"
        }
      ],
      "name": "removePool",
      "outputs": [],
      "stateMutability": "nonpayable",
      "type": "function"
    },
    {
      "inputs": [],
      "name": "removePools",
      "outputs": [],
      "stateMutability": "nonpayable",
      "type": "function"
    },
    {
      "inputs": [],
      "name": "renounceOwnership",
      "outputs": [],
      "stateMutability": "nonpayable",
      "type": "function"
    },
    {
      "inputs": [
        {
          "internalType": "address",
          "name": "_poolStakingAddress",
          "type": "address"
        },
        {
          "internalType": "uint256",
          "name": "_validatorMinRewardPercent",
          "type": "uint256"
        }
      ],
      "name": "restake",
      "outputs": [],
      "stateMutability": "payable",
      "type": "function"
    },
    {
      "inputs": [
        {
          "internalType": "bytes4",
          "name": "setter",
          "type": "bytes4"
        },
        {
          "internalType": "bytes4",
          "name": "getter",
          "type": "bytes4"
        },
        {
          "internalType": "uint256[]",
          "name": "params",
          "type": "uint256[]"
        }
      ],
      "name": "setAllowedChangeableParameter",
      "outputs": [],
      "stateMutability": "nonpayable",
      "type": "function"
    },
    {
      "inputs": [
        {
          "internalType": "address",
          "name": "_bonusScoreContract",
          "type": "address"
        }
      ],
      "name": "setBonusScoreContract",
      "outputs": [],
      "stateMutability": "nonpayable",
      "type": "function"
    },
    {
      "inputs": [
        {
          "internalType": "uint256",
          "name": "_minStake",
          "type": "uint256"
        }
      ],
      "name": "setDelegatorMinStake",
      "outputs": [],
      "stateMutability": "nonpayable",
      "type": "function"
    },
    {
      "inputs": [
        {
          "internalType": "address",
          "name": "_operatorAddress",
          "type": "address"
        },
        {
          "internalType": "uint256",
          "name": "_operatorShare",
          "type": "uint256"
        }
      ],
      "name": "setNodeOperator",
      "outputs": [],
      "stateMutability": "nonpayable",
      "type": "function"
    },
    {
      "inputs": [
        {
          "internalType": "bytes",
          "name": "_publicKey",
          "type": "bytes"
        },
        {
          "internalType": "bytes16",
          "name": "_ip",
          "type": "bytes16"
        },
        {
          "internalType": "bytes2",
          "name": "_port",
          "type": "bytes2"
        }
      ],
      "name": "setPoolInfo",
      "outputs": [],
      "stateMutability": "nonpayable",
      "type": "function"
    },
    {
      "inputs": [
        {
          "internalType": "address",
          "name": "_poolStakingAddress",
          "type": "address"
        },
        {
          "internalType": "uint256",
          "name": "_amount",
          "type": "uint256"
        }
      ],
      "name": "setStakeAmountTotal",
      "outputs": [],
      "stateMutability": "nonpayable",
      "type": "function"
    },
    {
      "inputs": [
        {
          "internalType": "uint256",
          "name": "_stakingEpoch",
          "type": "uint256"
        }
      ],
      "name": "setStakingEpoch",
      "outputs": [],
      "stateMutability": "nonpayable",
      "type": "function"
    },
    {
      "inputs": [
        {
          "internalType": "uint256",
          "name": "_timestamp",
          "type": "uint256"
        }
      ],
      "name": "setStakingEpochStartTime",
      "outputs": [],
      "stateMutability": "nonpayable",
      "type": "function"
    },
    {
      "inputs": [
        {
          "internalType": "address",
          "name": "_validatorAddress",
          "type": "address"
        },
        {
          "internalType": "bytes16",
          "name": "_ip",
          "type": "bytes16"
        },
        {
          "internalType": "bytes2",
          "name": "_port",
          "type": "bytes2"
        }
      ],
      "name": "setValidatorInternetAddress",
      "outputs": [],
      "stateMutability": "nonpayable",
      "type": "function"
    },
    {
      "inputs": [
        {
          "internalType": "contract IValidatorSetHbbft",
          "name": "_validatorSetAddress",
          "type": "address"
        }
      ],
      "name": "setValidatorMockSetAddress",
      "outputs": [],
      "stateMutability": "nonpayable",
      "type": "function"
    },
    {
      "inputs": [
        {
          "internalType": "contract IValidatorSetHbbft",
          "name": "_validatorSetAddress",
          "type": "address"
        }
      ],
      "name": "setValidatorSetAddress",
      "outputs": [],
      "stateMutability": "nonpayable",
      "type": "function"
    },
    {
      "inputs": [
        {
          "internalType": "uint256",
          "name": "_epoch",
          "type": "uint256"
        },
        {
          "internalType": "address",
          "name": "_stakingPool",
          "type": "address"
        }
      ],
      "name": "snapshotPoolStakeAmounts",
      "outputs": [],
      "stateMutability": "nonpayable",
      "type": "function"
    },
    {
      "inputs": [
        {
          "internalType": "uint256",
          "name": "",
          "type": "uint256"
        },
        {
          "internalType": "address",
          "name": "",
          "type": "address"
        }
      ],
      "name": "snapshotPoolTotalStakeAmount",
      "outputs": [
        {
          "internalType": "uint256",
          "name": "",
          "type": "uint256"
        }
      ],
      "stateMutability": "view",
      "type": "function"
    },
    {
      "inputs": [
        {
          "internalType": "uint256",
          "name": "",
          "type": "uint256"
        },
        {
          "internalType": "address",
          "name": "",
          "type": "address"
        }
      ],
      "name": "snapshotPoolValidatorStakeAmount",
      "outputs": [
        {
          "internalType": "uint256",
          "name": "",
          "type": "uint256"
        }
      ],
      "stateMutability": "view",
      "type": "function"
    },
    {
      "inputs": [
        {
          "internalType": "address",
          "name": "_toPoolStakingAddress",
          "type": "address"
        }
      ],
      "name": "stake",
      "outputs": [],
      "stateMutability": "payable",
      "type": "function"
    },
    {
      "inputs": [
        {
          "internalType": "address",
          "name": "",
          "type": "address"
        },
        {
          "internalType": "address",
          "name": "",
          "type": "address"
        }
      ],
      "name": "stakeAmount",
      "outputs": [
        {
          "internalType": "uint256",
          "name": "",
          "type": "uint256"
        }
      ],
      "stateMutability": "view",
      "type": "function"
    },
    {
      "inputs": [
        {
          "internalType": "address",
          "name": "_poolStakingAddress",
          "type": "address"
        },
        {
          "internalType": "address",
          "name": "_staker",
          "type": "address"
        }
      ],
      "name": "stakeAmountByCurrentEpoch",
      "outputs": [
        {
          "internalType": "uint256",
          "name": "",
          "type": "uint256"
        }
      ],
      "stateMutability": "view",
      "type": "function"
    },
    {
      "inputs": [
        {
          "internalType": "address",
          "name": "",
          "type": "address"
        }
      ],
      "name": "stakeAmountTotal",
      "outputs": [
        {
          "internalType": "uint256",
          "name": "",
          "type": "uint256"
        }
      ],
      "stateMutability": "view",
      "type": "function"
    },
    {
      "inputs": [],
      "name": "stakingEpoch",
      "outputs": [
        {
          "internalType": "uint256",
          "name": "",
          "type": "uint256"
        }
      ],
      "stateMutability": "view",
      "type": "function"
    },
    {
      "inputs": [],
      "name": "stakingEpochStartBlock",
      "outputs": [
        {
          "internalType": "uint256",
          "name": "",
          "type": "uint256"
        }
      ],
      "stateMutability": "view",
      "type": "function"
    },
    {
      "inputs": [],
      "name": "stakingEpochStartTime",
      "outputs": [
        {
          "internalType": "uint256",
          "name": "",
          "type": "uint256"
        }
      ],
      "stateMutability": "view",
      "type": "function"
    },
    {
      "inputs": [],
      "name": "stakingFixedEpochDuration",
      "outputs": [
        {
          "internalType": "uint256",
          "name": "",
          "type": "uint256"
        }
      ],
      "stateMutability": "view",
      "type": "function"
    },
    {
      "inputs": [],
      "name": "stakingFixedEpochEndTime",
      "outputs": [
        {
          "internalType": "uint256",
          "name": "",
          "type": "uint256"
        }
      ],
      "stateMutability": "view",
      "type": "function"
    },
    {
      "inputs": [],
      "name": "stakingTransitionTimeframeLength",
      "outputs": [
        {
          "internalType": "uint256",
          "name": "",
          "type": "uint256"
        }
      ],
      "stateMutability": "view",
      "type": "function"
    },
    {
      "inputs": [],
      "name": "stakingWithdrawDisallowPeriod",
      "outputs": [
        {
          "internalType": "uint256",
          "name": "",
          "type": "uint256"
        }
      ],
      "stateMutability": "view",
      "type": "function"
    },
    {
      "inputs": [],
      "name": "startTimeOfNextPhaseTransition",
      "outputs": [
        {
          "internalType": "uint256",
          "name": "",
          "type": "uint256"
        }
      ],
      "stateMutability": "view",
      "type": "function"
    },
    {
      "inputs": [],
      "name": "totalStakedAmount",
      "outputs": [
        {
          "internalType": "uint256",
          "name": "",
          "type": "uint256"
        }
      ],
      "stateMutability": "view",
      "type": "function"
    },
    {
      "inputs": [
        {
          "internalType": "address",
          "name": "newOwner",
          "type": "address"
        }
      ],
      "name": "transferOwnership",
      "outputs": [],
      "stateMutability": "nonpayable",
      "type": "function"
    },
    {
      "inputs": [
        {
          "internalType": "address",
          "name": "mining",
          "type": "address"
        },
        {
          "internalType": "uint256",
          "name": "validatorScore",
          "type": "uint256"
        }
      ],
      "name": "updatePoolLikelihood",
      "outputs": [],
      "stateMutability": "nonpayable",
      "type": "function"
    },
    {
      "inputs": [],
      "name": "updateStakingTransitionTimeframeLength",
      "outputs": [],
      "stateMutability": "nonpayable",
      "type": "function"
    },
    {
      "inputs": [],
      "name": "validatorSetContract",
      "outputs": [
        {
          "internalType": "contract IValidatorSetHbbft",
          "name": "",
          "type": "address"
        }
      ],
      "stateMutability": "view",
      "type": "function"
    },
    {
      "inputs": [
        {
          "internalType": "address",
          "name": "_fromPoolStakingAddress",
          "type": "address"
        },
        {
          "internalType": "uint256",
          "name": "_amount",
          "type": "uint256"
        }
      ],
      "name": "withdraw",
      "outputs": [],
      "stateMutability": "nonpayable",
      "type": "function"
    },
    {
      "stateMutability": "payable",
      "type": "receive"
    }
  ],
  "bytecode": "0x6080604052348015600f57600080fd5b506016601a565b60ca565b7ff0c57e16840df040f15088dc2f81fe391c3923bec73e23a9662efc9c229c6a00805468010000000000000000900460ff161560695760405163f92ee8a960e01b815260040160405180910390fd5b80546001600160401b039081161460c75780546001600160401b0319166001600160401b0390811782556040519081527fc7f505b2f371ae2175ee4913f4499e1f2633a7b5936321eed1cdaeb6115181d29060200160405180910390a15b50565b61652f806100d96000396000f3fe60806040526004361061061c5760003560e01c80638da5cb5b11610322578063d0ac76f6116101a5578063edd7db75116100ec578063f3fef3a311610095578063f9d4d5441161006f578063f9d4d544146112c9578063fa4aaf47146112f6578063ffada8621461132357600080fd5b8063f3fef3a314611275578063f494250114611295578063f6c57861146112a957600080fd5b8063f0786096116100c6578063f07860961461122b578063f2de669914611241578063f2fde38b1461125557600080fd5b8063edd7db75146111eb578063ee435f5514611200578063f07566421461121557600080fd5b8063dfc8bf4e1161014e578063e84a173411610128578063e84a173414611156578063e9ab030014611176578063eb3efa16146111ae57600080fd5b8063dfc8bf4e146110c2578063e2a43cd9146110e2578063e5b1d5931461111957600080fd5b8063da7a9b6a1161017f578063da7a9b6a1461106a578063dadee88a14611080578063df6f55f5146110ad57600080fd5b8063d0ac76f61461101d578063d290c21d1461103d578063d5c4b08a1461105257600080fd5b8063a711e6a111610269578063ba08d23711610212578063c6912cc0116101ec578063c6912cc014610fc8578063c6af311a14610fdd578063cfef144114610ffd57600080fd5b8063ba08d23714610f73578063bb57c8ac14610f93578063bf348f8614610fa857600080fd5b8063b163cc3811610243578063b163cc38146106b6578063b61ed63a14610f26578063b710c15d14610f4657600080fd5b8063a711e6a114610edb578063adddc0cf14610efb578063ae1aaf8014610f1057600080fd5b80639e6c2959116102cb578063a4205967116102a5578063a420596714610e56578063a5d54f6514610e8e578063a697ecff14610ea357600080fd5b80639e6c295914610e005780639e72c63514610e165780639ea8082b14610e3657600080fd5b8063957950a7116102fc578063957950a714610d985780639a7b5f1114610dbb5780639b03d74414610dea57600080fd5b80638da5cb5b14610d28578063921e274b14610d65578063950a651314610d7857600080fd5b80634e9b426d116104aa5780637069e746116103f15780637b0a0f9b1161039a5780638247a239116103745780638247a23914610cbb57806384725c7614610cdb578063862be28714610d0857600080fd5b80637b0a0f9b14610c5b5780637b15b94c14610c7b5780637d8149db14610c9b57600080fd5b806373c21803116103cb57806373c2180314610bd5578063750dd2a114610bf5578063794c0c6814610c4557600080fd5b80637069e74614610b74578063715018a614610b8a578063728345db14610b9f57600080fd5b80635d80ca3211610453578063615f2b711161042d578063615f2b7114610afc578063673a2a1f14610b325780636bda157714610b5457600080fd5b80635d80ca3214610ab05780635fef764314610ac6578063611d760c14610adc57600080fd5b8063567e98f911610484578063567e98f914610a375780635b4eafe014610a4d5780635ca2b65014610a9057600080fd5b80634e9b426d146109c75780634f9a8d8f146109f45780635267e1d614610a0a57600080fd5b806322e3d9861161056e57806337154263116105175780633f3afe01116104f15780633f3afe01146109745780634160d386146109875780634346845f146109a757600080fd5b80633715426314610929578063379b046a1461093e5780633b7d09461461095457600080fd5b8063264762041161054857806326476204146108b65780632bafde8d146108c95780633219d600146108e957600080fd5b806322e3d9861461086c57806322ffa02614610881578063251441a91461089657600080fd5b8063129bd128116105d0578063159e0a95116105aa578063159e0a951461079d5780631fb31e43146107da57806320c07cd81461085657600080fd5b8063129bd128146107305780631345b8a5146107505780631555371c1461078857600080fd5b80630ac6e291116106015780630ac6e291146106b85780630b770cdf146106d857806311f86c991461071057600080fd5b8063028b8bdb1461063f57806303a810651461066857600080fd5b3661063a57604051631574f9f360e01b815260040160405180910390fd5b600080fd5b34801561064b57600080fd5b5061065560145481565b6040519081526020015b60405180910390f35b34801561067457600080fd5b506106b6610683366004615a02565b6001600160a01b039283166000908152602260209081526040808320949095168252928352838120918152915290812055565b005b3480156106c457600080fd5b506106b66106d3366004615a8f565b611343565b3480156106e457600080fd5b506024546106f8906001600160a01b031681565b6040516001600160a01b03909116815260200161065f565b34801561071c57600080fd5b5061065561072b366004615a02565b6118da565b34801561073c57600080fd5b5061065561074b366004615b3f565b611910565b34801561075c57600080fd5b5061065561076b366004615b78565b602160209081526000928352604080842090915290825290205481565b34801561079457600080fd5b506106b661193d565b3480156107a957600080fd5b506106b66107b8366004615b9d565b602480546001600160a01b0319166001600160a01b0392909216919091179055565b3480156107e657600080fd5b506108246107f5366004615b9d565b6001600160a01b03166000908152601e6020526040902060010154608081901b91600160801b90910460f01b90565b604080516fffffffffffffffffffffffffffffffff1990931683526001600160f01b031990911660208301520161065f565b34801561086257600080fd5b506106556107d081565b34801561087857600080fd5b506106556119c8565b34801561088d57600080fd5b50610655611a0f565b3480156108a257600080fd5b506106b66108b1366004615a02565b611a43565b6106b66108c4366004615b9d565b611b01565b3480156108d557600080fd5b506106b66108e4366004615bba565b611b84565b3480156108f557600080fd5b50610919610904366004615b9d565b601f6020526000908152604090205460ff1681565b604051901515815260200161065f565b34801561093557600080fd5b506106b6611c05565b34801561094a57600080fd5b50610655601a5481565b34801561096057600080fd5b506106b661096f366004615b9d565b612032565b6106b6610982366004615bd3565b612081565b34801561099357600080fd5b506106b66109a2366004615bd3565b6123b7565b3480156109b357600080fd5b506106b66109c2366004615c1c565b612456565b3480156109d357600080fd5b506109e76109e2366004615b9d565b61255c565b60405161065f9190615ccd565b348015610a0057600080fd5b5061065560165481565b348015610a1657600080fd5b50610655610a25366004615b9d565b601b6020526000908152604090205481565b348015610a4357600080fd5b50610655601c5481565b348015610a5957600080fd5b50610655610a68366004615b78565b60009182526021602090815260408084206001600160a01b0393909316845291905290205490565b348015610a9c57600080fd5b506106b6610aab366004615bba565b601555565b348015610abc57600080fd5b50610655600e5481565b348015610ad257600080fd5b50610655600c5481565b348015610ae857600080fd5b506106b6610af7366004615b9d565b612608565b348015610b0857600080fd5b506106f8610b17366004615b9d565b6025602052600090815260409020546001600160a01b031681565b348015610b3e57600080fd5b50610b47612613565b60405161065f9190615ce0565b348015610b6057600080fd5b50610655610b6f366004615b3f565b61261f565b348015610b8057600080fd5b5061065560195481565b348015610b9657600080fd5b506106b661279f565b348015610bab57600080fd5b50610655610bba366004615b78565b60208080526000928352604080842090915290825290205481565b348015610be157600080fd5b50610b47610bf0366004615b9d565b6127b3565b348015610c0157600080fd5b50610655610c10366004615b3f565b6001600160a01b039182166000908152600b602090815260408083209390941682529182528281206015548252909152205490565b348015610c5157600080fd5b5061065560155481565b348015610c6757600080fd5b506106b6610c76366004615d66565b6127d7565b348015610c8757600080fd5b506106b6610c96366004615b9d565b61286d565b348015610ca757600080fd5b506106b6610cb6366004615dab565b6128ed565b348015610cc757600080fd5b506106b6610cd6366004615bba565b61296f565b348015610ce757600080fd5b50610655610cf6366004615b9d565b60266020526000908152604090205481565b348015610d1457600080fd5b506106b6610d23366004615e08565b6129bb565b348015610d3457600080fd5b507f9016d09d72d40fdae2fd8ceac6b6234c7706214fd39c1cd1e609a0528c199300546001600160a01b03166106f8565b6106b6610d73366004615e6d565b612a1e565b348015610d8457600080fd5b50610655610d93366004615b3f565b612c33565b348015610da457600080fd5b50610dad612d7b565b60405161065f929190615f2b565b348015610dc757600080fd5b50610ddb610dd6366004615b9d565b612dde565b60405161065f93929190615f4d565b348015610df657600080fd5b5061065560185481565b348015610e0c57600080fd5b5061065561271081565b348015610e2257600080fd5b506106b6610e31366004615bba565b612e92565b348015610e4257600080fd5b50610b47610e51366004615b9d565b612efb565b348015610e6257600080fd5b50610655610e71366004615b3f565b601160209081526000928352604080842090915290825290205481565b348015610e9a57600080fd5b50610b47612f1f565b348015610eaf57600080fd5b50610655610ebe366004615b3f565b601360209081526000928352604080842090915290825290205481565b348015610ee757600080fd5b50610919610ef6366004615b9d565b612f81565b348015610f0757600080fd5b506106b6612f8d565b348015610f1c57600080fd5b5061065560175481565b348015610f3257600080fd5b506106b6610f41366004615bd3565b612feb565b348015610f5257600080fd5b50610f66610f61366004615faa565b613352565b60405161065f919061605b565b348015610f7f57600080fd5b50610919610f8e366004616089565b613402565b348015610f9f57600080fd5b506106556135dd565b348015610fb457600080fd5b50610f66610fc3366004615dab565b6135f9565b348015610fd457600080fd5b5061065561369e565b348015610fe957600080fd5b506106b6610ff8366004615bd3565b6136bd565b34801561100957600080fd5b506106b6611018366004615b9d565b613767565b34801561102957600080fd5b506106b6611038366004615b78565b61393a565b34801561104957600080fd5b50610b47613a79565b34801561105e57600080fd5b506106b6610384601755565b34801561107657600080fd5b50610655600d5481565b34801561108c57600080fd5b5061065561109b366004615b9d565b60106020526000908152604090205481565b3480156110b957600080fd5b50610b47613a85565b3480156110ce57600080fd5b50601d546106f8906001600160a01b031681565b3480156110ee57600080fd5b506106b66110fd366004615bd3565b6001600160a01b039091166000908152601b6020526040902055565b34801561112557600080fd5b506106b6611134366004615b9d565b602980546001600160a01b0319166001600160a01b0392909216919091179055565b34801561116257600080fd5b506106b6611171366004615bba565b613a91565b34801561118257600080fd5b50610655611191366004615b3f565b600f60209081526000928352604080842090915290825290205481565b3480156111ba57600080fd5b506106b66111c9366004615b9d565b601d80546001600160a01b0319166001600160a01b0392909216919091179055565b3480156111f757600080fd5b506106b6613b3d565b34801561120c57600080fd5b506106b6613c7d565b34801561122157600080fd5b5061065560285481565b34801561123757600080fd5b50610655610bb881565b34801561124d57600080fd5b506064610655565b34801561126157600080fd5b506106b6611270366004615b9d565b613ce1565b34801561128157600080fd5b506106b6611290366004615bd3565b613d1c565b3480156112a157600080fd5b506001610919565b3480156112b557600080fd5b506109196112c4366004615b9d565b613dd5565b3480156112d557600080fd5b506106556112e4366004615b9d565b60276020526000908152604090205481565b34801561130257600080fd5b50610655611311366004615b9d565b60126020526000908152604090205481565b34801561132f57600080fd5b506106b661133e366004615b9d565b613df2565b7ff0c57e16840df040f15088dc2f81fe391c3923bec73e23a9662efc9c229c6a00805468010000000000000000810460ff16159067ffffffffffffffff1660008115801561138e5750825b905060008267ffffffffffffffff1660011480156113ab5750303b155b9050811580156113b9575080155b156113d75760405163f92ee8a960e01b815260040160405180910390fd5b845467ffffffffffffffff19166001178555831561140b57845468ff00000000000000001916680100000000000000001785555b6001600160a01b038b166114325760405163d92e233d60e01b815260040160405180910390fd5b61143b8a613dfb565b8761144960408c018c6160a5565b61145591506002616105565b146114725760405162d6988760e81b815260040160405180910390fd5b8561148060408c018c6160a5565b9050146114a0576040516320041afd60e01b815260040160405180910390fd5b6114a98b613f5e565b6114b1613f6f565b6114be60208b018b615b9d565b601d80546001600160a01b0319166001600160a01b03929092169190911790556114ee60408b0160208c01615b9d565b602480546001600160a01b0319166001600160a01b039290921691909117905536600061151e60408d018d6160a5565b9150915060005b818110156117415760008383838181106115415761154161611c565b90506020020160208101906115569190615b9d565b6001600160a01b03160361157d5760405163d92e233d60e01b815260040160405180910390fd5b6115ae8383838181106115925761159261611c565b90506020020160208101906115a79190615b9d565b6000613f7f565b6115dd8383838181106115c3576115c361611c565b90506020020160208101906115d89190615b9d565b613fde565b8b8b6115ea836002616105565b8181106115f9576115f961611c565b905060200201358c8c83600261160f9190616105565b61161a906001616132565b8181106116295761162961611c565b9050602002013560405160200161164a929190918252602082015260400190565b604051602081830303815290604052601e600085858581811061166f5761166f61611c565b90506020020160208101906116849190615b9d565b6001600160a01b031681526020810191909152604001600020906116a890826161cf565b508989828181106116bb576116bb61611c565b90506020020160208101906116d0919061628f565b601e60008585858181106116e6576116e661611c565b90506020020160208101906116fb9190615b9d565b6001600160a01b031681526020810191909152604001600020600190810180546fffffffffffffffffffffffffffffffff191660809390931c9290921790915501611525565b5060408051600580825260c082019092526000916020820160a0803683370190505090506802b5e3af16b1880000816000815181106117825761178261611c565b60200260200101818152505068056bc75e2d63100000816001815181106117ab576117ab61611c565b602002602001018181525050680821ab0d4414980000816002815181106117d4576117d461611c565b602002602001018181525050680ad78ebc5ac6200000816003815181106117fd576117fd61611c565b602002602001018181525050680d8d726b7177a80000816004815181106118265761182661611c565b602090810291909101015261184a632bafde8d60e01b636d3d4db560e11b83613ff3565b50505060608a0135600d5560808a0135600c5560a08a0135600e5560c08a01356016556101008a01356014554260185560e08a013560175583156118cd57845468ff000000000000000019168555604051600181527fc7f505b2f371ae2175ee4913f4499e1f2633a7b5936321eed1cdaeb6115181d29060200160405180910390a15b5050505050505050505050565b6001600160a01b0380841660009081526022602090815260408083209386168352928152828220848352905220545b9392505050565b6001600160a01b038083166000908152602360209081526040808320938516835292905220545b92915050565b601d546001600160a01b0316331480159061196357506029546001600160a01b03163314155b15611980576040516282b42960e81b815260040160405180910390fd5b600061198c60046140a8565b905060005b81518110156119c4576119bc8282815181106119af576119af61611c565b60200260200101516140b5565b600101611991565b5050565b60185460165460009190156119de5760016119e1565b60005b60ff16601a54601654836119f59190616132565b6119ff9190616132565b611a0991906162aa565b91505090565b6000602854600014611a3d57601a54601754602854611a2e9190616132565b611a389190616132565b905090565b50600090565b3a600003611a6457604051630e661aed60e41b815260040160405180910390fd5b816001600160a01b0316836001600160a01b031603611a9657604051630a5eddd560e01b815260040160405180910390fd5b33611aa28482846140fb565b611aad8382846143a9565b601554604080516001600160a01b0387811682526020820186905280851692908716917f4480d8e4b1e9095b94bf513961d26fe1d32386ebdd103d18fe8738cf4b2223ff910160405180910390a450505050565b3a600003611b2257604051630e661aed60e41b815260040160405180910390fd5b3334611b2f8383836143a9565b601554826001600160a01b0316846001600160a01b03167f2273de02cb1f69ba6259d22c4bc22c60e4c94c193265ef6afee324a04a9b6d2284604051611b7791815260200190565b60405180910390a4505050565b611b8c6146fa565b80611ba36000356001600160e01b03191682613402565b611bc8576040516373330d9b60e01b8152600481018290526024015b60405180910390fd5b600d8290556040518281527ffee02ce7aa40f9c49eaabd26d404fa88714b97cb209af8954cfd5eeb8213b93e906020015b60405180910390a15050565b3a600003611c2657604051630e661aed60e41b815260040160405180910390fd5b600080611c3360026140a8565b90508051600003611c5757604051631c369b4560e21b815260040160405180910390fd5b60005b8151811015611e3f576000828281518110611c7757611c7761611c565b60200260200101519050611c8a81614755565b80611d005750601d54604051639d6fc1d160e01b81526001600160a01b03838116600483015290911690639d6fc1d190602401602060405180830381865afa158015611cda573d6000803e3d6000fd5b505050506040513d601f19601f82011682018060405250810190611cfe91906162bd565b155b15611d0b5750611e37565b611d16600282614793565b506001600160a01b0381166000908152601f60209081526040808320805460ff19166001179055601b9091528120805490829055601c805491928392611d5d9084906162aa565b9091555060009050611d6e83612efb565b905060005b8151811015611dd9576000828281518110611d9057611d9061611c565b6020908102919091018101516001600160a01b0380881660009081526013845260408082209284168252919093528220919091559050611dd085826147a8565b50600101611d73565b50611de48287616132565b9550826001600160a01b0316336001600160a01b03167f8e6a4ccd7dccdca9ac211d00fcc3fa7c71be75ff73d3a35f63ea023173cc100484604051611e2b91815260200190565b60405180910390a35050505b600101611c5a565b5081600003611e6157604051631c369b4560e21b815260040160405180910390fd5b6000611e6e6002846162df565b90506000611e7c82856162aa565b90506000601d60009054906101000a90046001600160a01b03166001600160a01b03166356b54bae6040518163ffffffff1660e01b8152600401602060405180830381865afa158015611ed3573d6000803e3d6000fd5b505050506040513d601f19601f82011682018060405250810190611ef79190616301565b90506000601d60009054906101000a90046001600160a01b03166001600160a01b03166356b54bae6040518163ffffffff1660e01b8152600401602060405180830381865afa158015611f4e573d6000803e3d6000fd5b505050506040513d601f19601f82011682018060405250810190611f729190616301565b90506000816001600160a01b031663732524946040518163ffffffff1660e01b8152600401602060405180830381865afa158015611fb4573d6000803e3d6000fd5b505050506040513d601f19601f82011682018060405250810190611fd89190616301565b9050611fe4838561480a565b611fee818661480a565b604080518581526020810187905233917f1c113e6bae9530fea40323e612aeb0cb7817dedb5a0b0f6bdfbff97d55920dc7910160405180910390a250505050505050565b601d546001600160a01b0316331480159061205857506029546001600160a01b03163314155b15612075576040516282b42960e81b815260040160405180910390fd5b61207e816140b5565b50565b601d60009054906101000a90046001600160a01b03166001600160a01b03166356b54bae6040518163ffffffff1660e01b8152600401602060405180830381865afa1580156120d4573d6000803e3d6000fd5b505050506040513d601f19601f820116820180604052508101906120f89190616301565b6001600160a01b0316336001600160a01b031614612128576040516282b42960e81b815260040160405180910390fd5b34156119c4576015546000908152602080805260408083206001600160a01b0386168452909152812054349161215f8584866148b1565b9050600061216c86612efb565b905060005b81518110156122bb576000846121a36015548a8686815181106121965761219661611c565b60200260200101516149d0565b85604001516121b29190616105565b6121bc91906162df565b905080601360008a6001600160a01b03166001600160a01b0316815260200190815260200160002060008585815181106121f8576121f861611c565b60200260200101516001600160a01b03166001600160a01b03168152602001908152602001600020600082825461222f9190616132565b90915550506001600160a01b0388166000908152600b6020526040812084518392908690869081106122635761226361611c565b60200260200101516001600160a01b03166001600160a01b031681526020019081526020016000206000601554815260200190815260200160002060008282546122ad9190616132565b909155505050600101612171565b506020820151156122d4576122d4868360200151614a6f565b81516001600160a01b038716600090815260136020908152604080832090915281208054909190612306908490616132565b90915550506001600160a01b0386166000908152601b602052604081208054869290612333908490616132565b9250508190555083601c600082825461234c9190616132565b9091555061235b905086614b36565b60155482516001600160a01b038816907f72093068b9f28053bd924ac15d7710b987f9b6ef1e0f89f47d8b4bd7cac776dc9061239781896162aa565b6040805192835260208301919091520160405180910390a3505050505050565b601d546040516253517560e01b81523360048201526000916001600160a01b0316906253517590602401602060405180830381865afa1580156123fe573d6000803e3d6000fd5b505050506040513d601f19601f820116820180604052508101906124229190616301565b6001600160a01b03160361244b57604051632670461960e11b8152336004820152602401611bbf565b6119c4338383614c22565b61245e6146fa565b6000612468614d5a565b90506040518060400160405280857bffffffffffffffffffffffffffffffffffffffffffffffffffffffff1916815260200184848080602002602001604051908101604052809392919081815260200183836020028082843760009201829052509390945250506001600160e01b031988168152602084815260409091208351815463ffffffff191660e09190911c178155838201518051919350612514926001850192910190615973565b509050507f3665bf9cd0ba4ddceeec259e21dcf8a4510f3b1130bd42e950828e69d85408ba8585858560405161254d949392919061631e565b60405180910390a15050505050565b6001600160a01b0381166000908152601e6020526040902080546060919061258390616145565b80601f01602080910402602001604051908101604052809291908181526020018280546125af90616145565b80156125fc5780601f106125d1576101008083540402835291602001916125fc565b820191906000526020600020905b8154815290600101906020018083116125df57829003601f168201915b50505050509050919050565b61207e816001613f7f565b6060611a3860006140a8565b601d546040516253517560e01b81526001600160a01b03848116600483015260009283929116906253517590602401602060405180830381865afa15801561266b573d6000803e3d6000fd5b505050506040513d601f19601f8201168201806040525081019061268f9190616301565b90506001600160a01b0384166000908152601f602052604090205460ff16156126bc576000915050611937565b6001600160a01b03848116600090815260136020908152604080832087851684529091529081902054601d54915163a0d16cad60e01b815284841660048201529092919091169063a0d16cad90602401602060405180830381865afa158015612729573d6000803e3d6000fd5b505050506040513d601f19601f8201168201806040525081019061274d91906162bd565b61275a5791506119379050565b6001600160a01b038581166000908152600b60209081526040808320938816835292815282822060155483529052205480821115612796578091505b50949350505050565b6127a76146fa565b6127b16000614dbc565b565b6001600160a01b0381166000908152600a60205260409020606090611937906140a8565b601d546001600160a01b031633148015906127fd57506029546001600160a01b03163314155b1561281a576040516282b42960e81b815260040160405180910390fd5b6001600160a01b039092166000908152601e60205260409020600101805460f09390931c600160801b0271ffffffffffffffffffffffffffffffffffff1990931660809290921c91909117919091179055565b601d546001600160a01b0316331480159061289357506029546001600160a01b03163314155b156128b0576040516282b42960e81b815260040160405180910390fd5b600c546001600160a01b03821660009081526013602090815260408083209091529020541061207e576128e4816001613f7f565b61207e81614b36565b6128f56146fa565b60006128ff614d5a565b6001600160e01b031983166000908152602082905260408120805463ffffffff1916815591925061293360018301826159be565b50506040516001600160e01b0319831681527fed27cb02231782dadf13473a7828cb980c4d685791b7a3136dde00f8c3594cb690602001611bf9565b601d546001600160a01b0316331480159061299557506029546001600160a01b03163314155b156129b2576040516282b42960e81b815260040160405180910390fd5b60185543601955565b336000908152601e602052604090206129d584868361638b565b50336000908152601e60205260409020600101805460f09290921c600160801b0271ffffffffffffffffffffffffffffffffffff1990921660809390931c929092171790555050565b3a600003612a3f57604051630e661aed60e41b815260040160405180910390fd5b601d54604051630526083960e11b81526001600160a01b0388811660048301523360248301819052923492911690630a4c107290604401600060405180830381600087803b158015612a9057600080fd5b505af1158015612aa4573d6000803e3d6000fd5b50505050612ae785858080601f016020809104026020016040519081016040528093929190818152602001838380828437600092019190915250614e2d92505050565b612b045760405163145a1fdd60e31b815260040160405180910390fd5b876001600160a01b0316612b4d86868080601f016020809104026020016040519081016040528093929190818152602001838380828437600092019190915250614ee492505050565b6001600160a01b031614612b7457604051631e5abf9560e01b815260040160405180910390fd5b6001600160a01b0382166000908152601e60205260409020612b9785878361638b565b506001600160a01b0382166000908152601e6020526040902060010180546fffffffffffffffffffffffffffffffff1916608085901c179055612bdb828888614c22565b612be68283836143a9565b6015546040518281526001600160a01b0384169081907f2273de02cb1f69ba6259d22c4bc22c60e4c94c193265ef6afee324a04a9b6d229060200160405180910390a45050505050505050565b601d546040516253517560e01b81526001600160a01b03848116600483015260009283929116906253517590602401602060405180830381865afa158015612c7f573d6000803e3d6000fd5b505050506040513d601f19601f82011682018060405250810190612ca39190616301565b9050601d5460405163a0d16cad60e01b81526001600160a01b0383811660048301529091169063a0d16cad90602401602060405180830381865afa158015612cef573d6000803e3d6000fd5b505050506040513d601f19601f82011682018060405250810190612d1391906162bd565b612d21576000915050611937565b6001600160a01b038481166000818152600b602090815260408083209488168084529482528083206015548452825280832054938352601382528083209483529390529190912054612d7391906162aa565b949350505050565b60606000600760085481805480602002602001604051908101604052809291908181526020018280548015612dcf57602002820191906000526020600020905b815481526020019060010190808311612dbb575b50505050509150915091509091565b601e60205260009081526040902080548190612df990616145565b80601f0160208091040260200160405190810160405280929190818152602001828054612e2590616145565b8015612e725780601f10612e4757610100808354040283529160200191612e72565b820191906000526020600020905b815481529060010190602001808311612e5557829003601f168201915b50505060019093015491925050608081901b90600160801b900460f01b83565b601d546001600160a01b03163314801590612eb857506029546001600160a01b03163314155b15612ed5576040516282b42960e81b815260040160405180910390fd5b601754612ee29082616132565b601a6000828254612ef39190616132565b909155505050565b6001600160a01b0381166000908152600960205260409020606090611937906140a8565b60606006805480602002602001604051908101604052809291908181526020018280548015612f7757602002820191906000526020600020905b81546001600160a01b03168152600190910190602001808311612f59575b5050505050905090565b60006119378183614eef565b601d546001600160a01b03163314801590612fb357506029546001600160a01b03163314155b15612fd0576040516282b42960e81b815260040160405180910390fd5b601754601a6000828254612fe49190616132565b9091555050565b3a60000361300c57604051630e661aed60e41b815260040160405180910390fd5b6001600160a01b0382166130335760405163d92e233d60e01b815260040160405180910390fd5b8060000361305457604051633ca0029d60e01b815260040160405180910390fd5b6001600160a01b0382166000818152600f602090815260408083203380855290835281842054858552601084528285205460138552838620838752855283862054968652601b909452918420549094919386131561315e578560006130b98988612c33565b9050808211156130e657604051632de4882160e01b81526004810182905260248101839052604401611bbf565b6130f08287616132565b95506130fc8286616132565b945061310882856162aa565b935061311482846162aa565b925081601c600082825461312891906162aa565b90915550506015546001600160a01b03808b166000908152601160209081526040808320938c1683529290522055506131b49050565b60006131698761644c565b905061317581866162aa565b945061318181856162aa565b935061318d8184616132565b92506131998183616132565b915080601c60008282546131ad9190616132565b9091555050505b6001600160a01b038088166000818152600f60209081526040808320948a1680845294825280832089905583835260108252808320889055601382528083208584528252808320879055838352601b909152902083905590036132835781158015906132215750600c5482105b1561325957604051636fe84f3d60e01b81526001600160a01b0380891660048301528616602482015260448101879052606401611bbf565b600086131561327857816000036132735761327387613fde565b6132f0565b613273876001613f7f565b81158015906132935750600d5482105b156132cb57604051636fe84f3d60e01b81526001600160a01b0380891660048301528616602482015260448101879052606401611bbf565b60008613156132e657816000036132735761327387866147a8565b6132f08786614f11565b6132f987614b36565b601554856001600160a01b0316886001600160a01b03167f80d5c777e5f7ac6ee89723223803ca5c0ec0204f89e99c1b0cde973c66a645948960405161334191815260200190565b60405180910390a450505050505050565b60408051808201909152600081526060602082015261336f614d5a565b82516020808501919091206001600160e01b0319908116600090815292825260409283902083518085018552815460e01b90921682526001810180548551818602810186019096528086529294919385810193908301828280156133f257602002820191906000526020600020905b8154815260200190600101908083116133de575b5050505050815250509050919050565b60008061340d614d5a565b6001600160e01b031980861660009081526020838152604080832081518083018352815460e01b9095168552600181018054835181860281018601909452808452969750939590938584019390919083018282801561348b57602002820191906000526020600020905b815481526020019060010190808311613477575b50505050508152505090508060200151516000036134ae57600092505050611937565b602081015181516000906134c190614f3e565b905060005b82518110156135cf57818382815181106134e2576134e261611c565b6020026020010151036135c7576000808211613518578360008151811061350b5761350b61611c565b602002602001015161353d565b836135246001846162aa565b815181106135345761353461611c565b60200260200101515b905060006001855161354f91906162aa565b831061358157846001865161356491906162aa565b815181106135745761357461611c565b60200260200101516135a6565b8461358d846001616132565b8151811061359d5761359d61611c565b60200260200101515b90508189141580156135b85750808914155b15975050505050505050611937565b6001016134c6565b506000979650505050505050565b60006028546000146135f157611a38611a0f565b611a386119c8565b604080518082019091526000815260606020820152613616614d5a565b6001600160e01b03198084166000908152602092835260409081902081518083018352815460e01b90931683526001810180548351818702810187019094528084529394919385830193928301828280156133f257602002820191906000526020600020908154815260200190600101908083116133de575050505050815250509050919050565b60006017546016546018546136b39190616132565b611a3891906162aa565b6024546001600160a01b031633146136e7576040516282b42960e81b815260040160405180910390fd5b601d546040516307b9342f60e21b81526001600160a01b0384811660048301526000921690631ee4d0bc90602401602060405180830381865afa158015613732573d6000803e3d6000fd5b505050506040513d601f19601f820116820180604052508101906137569190616301565b90506137628183615015565b505050565b3a60000361378857604051630e661aed60e41b815260040160405180910390fd5b6137906150bf565b6001600160a01b038116600090815260116020908152604080832033808552925290912054601554116137e957604051630b06352b60e31b81526001600160a01b03808416600483015282166024820152604401611bbf565b6001600160a01b038083166000908152600f602090815260408083209385168352929052908120549081900361383257604051633ca0029d60e01b815260040160405180910390fd5b6001600160a01b038084166000818152600f602090815260408083209487168352938152838220829055918152601090915220546138719082906162aa565b6001600160a01b03808516600090815260106020908152604080832094909455601381528382209286168252919091529081205490036138b5576138b58383615109565b6138bf828261480a565b601554826001600160a01b0316846001600160a01b03167ff380b0bc887e00f5b50d3c9d4eaaf5c9a0afd97b956316b995159384c4ede9b38460405161390791815260200190565b60405180910390a4505061207e60017f9b779b17422d0df92223018b32b4d1fa46e071723d6817e2486d003becc55f0055565b601d60009054906101000a90046001600160a01b03166001600160a01b03166356b54bae6040518163ffffffff1660e01b8152600401602060405180830381865afa15801561398d573d6000803e3d6000fd5b505050506040513d601f19601f820116820180604052508101906139b19190616301565b6001600160a01b0316336001600160a01b0316146139e1576040516282b42960e81b815260040160405180910390fd5b6000828152602080805260408083206001600160a01b038516845290915281205490036119c4576001600160a01b0381166000908152601b602052604081205490819003613a2e57505050565b6000838152602080805260408083206001600160a01b038616808552908352818420949094556013825280832082528083205486845260218352818420948452939091529020555050565b6060611a3860046140a8565b6060611a3860026140a8565b601d60009054906101000a90046001600160a01b03166001600160a01b03166356b54bae6040518163ffffffff1660e01b8152600401602060405180830381865afa158015613ae4573d6000803e3d6000fd5b505050506040513d601f19601f82011682018060405250810190613b089190616301565b6001600160a01b0316336001600160a01b031614613b38576040516282b42960e81b815260040160405180910390fd5b602855565b3a600003613b5e57604051630e661aed60e41b815260040160405180910390fd5b601d546040516253517560e01b81523360048201819052916000916001600160a01b03909116906253517590602401602060405180830381865afa158015613baa573d6000803e3d6000fd5b505050506040513d601f19601f82011682018060405250810190613bce9190616301565b90506015546000148015613c4b5750601d5460405163facd743b60e01b81526001600160a01b0383811660048301529091169063facd743b90602401602060405180830381865afa158015613c27573d6000803e3d6000fd5b505050506040513d601f19601f82011682018060405250810190613c4b91906162bd565b15613c74576040516303d71f2d60e51b81526001600160a01b0383166004820152602401611bbf565b6119c4826140b5565b601d546001600160a01b03163314801590613ca357506029546001600160a01b03163314155b15613cc0576040516282b42960e81b815260040160405180910390fd5b60158054906000613cd083616468565b90915550506000601a819055602855565b613ce96146fa565b6001600160a01b038116613d1357604051631e4fbdf760e01b815260006004820152602401611bbf565b61207e81614dbc565b3a600003613d3d57604051630e661aed60e41b815260040160405180910390fd5b613d456150bf565b33613d518382846140fb565b613d5b818361480a565b601554816001600160a01b0316846001600160a01b03167fa7c0f0cac6bd4d18042007706c84a8abe823751cf289b69c01e83eef7b5915c785604051613da391815260200190565b60405180910390a4506119c460017f9b779b17422d0df92223018b32b4d1fa46e071723d6817e2486d003becc55f0055565b6000613de18183614eef565b806119375750611937600283614eef565b61207e8161525f565b60c08101351580613e1557508061010001358160c0013511155b15613e335760405163c671116b60e01b815260040160405180910390fd5b806101000135600003613e59576040516332154b4760e01b815260040160405180910390fd5b60e08101351580613e7257508060c001358160e0013510155b15613e9057604051630685efe960e01b815260040160405180910390fd5b6000613e9f6020830183615b9d565b6001600160a01b031603613ec65760405163d92e233d60e01b815260040160405180910390fd5b613ed360408201826160a5565b9050600003613ef557604051635c9a24ed60e11b815260040160405180910390fd5b60608101351580613f0857506080810135155b15613f365760405163633373e160e11b81526080820135600482015260608201356024820152604401611bbf565b80608001358160a001351161207e57604051631c6d3b1560e01b815260040160405180910390fd5b613f6661526a565b61207e816152b8565b613f7761526a565b6127b16152c0565b613f8882612f81565b613fc357613f976000836152c8565b506064613fa460006152dd565b1115613fc35760405163398dcd9d60e21b815260040160405180910390fd5b613fce600283614793565b5080156119c4576119c4826152e7565b613fe96004826152c8565b5061207e816153dc565b613ffb61526a565b6000614005614d5a565b6040805180820182526001600160e01b0319868116825260208083018781529189166000908152858252939093208251815463ffffffff191660e09190911c1781559051805194955091939092614063926001850192910190615973565b509050507f3665bf9cd0ba4ddceeec259e21dcf8a4510f3b1130bd42e950828e69d85408ba84848460405161409a93929190616481565b60405180910390a150505050565b60606000611909836155f9565b6140c0600082614793565b506140ca81614755565b156140e0576140da600282614793565b506140e9565b6140e98161525f565b6140f2816153dc565b61207e81615654565b6001600160a01b0383166141225760405163d92e233d60e01b815260040160405180910390fd5b8060000361414357604051633ca0029d60e01b815260040160405180910390fd5b600061414f848461261f565b90508082111561417c57604051632de4882160e01b81526004810182905260248101839052604401611bbf565b6001600160a01b0380851660009081526013602090815260408083209387168352929052908120546141af9084906162aa565b90506000846001600160a01b0316866001600160a01b0316146141d457600d546141d8565b600c545b905081158015906141e857508082105b1561422057604051639e612d5760e01b81526001600160a01b0380881660048301528616602482015260448101859052606401611bbf565b856001600160a01b0316856001600160a01b0316146142b557601d546040516253517560e01b81526001600160a01b03888116600483015260009216906253517590602401602060405180830381865afa158015614282573d6000803e3d6000fd5b505050506040513d601f19601f820116820180604052508101906142a69190616301565b90506142b387828861565f565b505b6001600160a01b038681166000818152601360209081526040808320948a16808452948252808320879055928252600b815282822093825292835281812060155482529092529020548481101561430d576000614317565b61431785826162aa565b6001600160a01b038089166000818152600b60209081526040808320948c1683529381528382206015548352815283822094909455908152601b909252812080548792906143669084906162aa565b9250508190555084601c600082825461437f91906162aa565b90915550506000839003614397576143978787615109565b6143a087614b36565b50505050505050565b6001600160a01b0383166143d05760405163d92e233d60e01b815260040160405180910390fd5b601d546040516253517560e01b81526001600160a01b03858116600483015260009216906253517590602401602060405180830381865afa158015614419573d6000803e3d6000fd5b505050506040513d601f19601f8201168201806040525081019061443d9190616301565b90506001600160a01b03811661447157604051632670461960e11b81526001600160a01b0385166004820152602401611bbf565b816000036144a55760405163e59f5c3960e01b81526001600160a01b03808616600483015284166024820152604401611bbf565b6001600160a01b0384166000908152601f602052604090205460ff16156144ea5760405163078137eb60e41b81526001600160a01b0385166004820152602401611bbf565b6001600160a01b038085166000818152601360209081526040808320948816808452949091528120549290911491614523908590616132565b9050600082156145365750600c54614585565b50600d546001600160a01b038716600090815260136020908152604080832090915281205490036145855760405163cbbeb0bd60e01b81526001600160a01b0388166004820152602401611bbf565b808210156145b95760405163e59f5c3960e01b81526001600160a01b03808916600483015287166024820152604401611bbf565b600e546001600160a01b0388166000908152601b60205260409020546145e0908790616132565b111561461257604051632c2b174160e21b81526001600160a01b03808916600483015287166024820152604401611bbf565b6001600160a01b038088166000908152600b60209081526040808320938a168352928152828220601554835290529081208054879290614653908490616132565b90915550506001600160a01b0387166000908152601b602052604081208054879290614680908490616132565b9250508190555084601c60008282546146999190616132565b909155505082156146b4576146af876001613f7f565b6146c9565b6146be8787614f11565b6146c987858861565f565b6001600160a01b038088166000908152601360209081526040808320938a168352929052208290556143a087614b36565b3361472c7f9016d09d72d40fdae2fd8ceac6b6234c7706214fd39c1cd1e609a0528c199300546001600160a01b031690565b6001600160a01b0316146127b15760405163118cdaa760e01b8152336004820152602401611bbf565b6001600160a01b0381166000908152601b60205260408120541580156119375750506001600160a01b03166000908152601060205260409020541590565b6000611909836001600160a01b03841661577b565b6001600160a01b03821660009081526009602052604090206147ca9082614793565b506001600160a01b038083166000908152600f602090815260408083209385168352929052205415614800576119c4828261586e565b6119c48282615890565b8047101561482b57604051631e9acf1760e31b815260040160405180910390fd5b6000826001600160a01b03168260405160006040518083038185875af1925050503d8060008114614878576040519150601f19603f3d011682016040523d82523d6000602084013e61487d565b606091505b505090508061376257604051630e21dcbb60e11b81526001600160a01b038416600482015260248101839052604401611bbf565b6148d560405180606001604052806000815260200160008152602001600081525090565b6015546000818152602080805260408083206001600160a01b038916808552908352818420549484526021835281842090845290915281205490606461491b8688616105565b61492591906162df565b905061493181876162aa565b6040808601919091526001600160a01b0380891660009081526026602090815283822054602590915292902054161580159061496c57508015155b1561498e5761271061497e8289616105565b61498891906162df565b60208601525b8383866040015161499f9190616105565b6149a991906162df565b60208601516149b890846162aa565b6149c29190616132565b855250929695505050505050565b6000836000036149e257506000611909565b6001600160a01b03808416600090815260236020908152604080832093861683529290522054849003614a4357506001600160a01b038083166000908152602260209081526040808320938516835292815282822086835290522054611909565b506001600160a01b03808316600090815260136020908152604080832093851683529290522054611909565b6001600160a01b038083166000908152602560209081526040808320546009909252909120911690614aa19082614eef565b614aaf57614aaf8382614f11565b6001600160a01b03808416600090815260136020908152604080832093851683529290529081208054849290614ae6908490616132565b90915550506001600160a01b038084166000908152600b602090815260408083209385168352928152828220601554835290529081208054849290614b2c908490616132565b9091555050505050565b601d546040516253517560e01b81526001600160a01b03838116600483015260009216906253517590602401602060405180830381865afa158015614b7f573d6000803e3d6000fd5b505050506040513d601f19601f82011682018060405250810190614ba39190616301565b60248054604051633941e77760e21b81526001600160a01b0380851660048301529394506000939091169163e5079ddc9101602060405180830381865afa158015614bf2573d6000803e3d6000fd5b505050506040513d601f19601f82011682018060405250810190614c1691906164ae565b90506137628382615015565b6107d0811115614c485760405163e429b69160e01b815260048101829052602401611bbf565b6001600160a01b038216158015614c5e57508015155b15614c8e5760405163073c315960e11b81526001600160a01b038316600482015260248101829052604401611bbf565b6001600160a01b0383166000908152602760205260409020548015801590614cb7575060155481145b15614cdb5760155460405163e7cbc70160e01b8152600401611bbf91815260200190565b6001600160a01b03848116600081815260256020908152604080832080546001600160a01b03191695891695861790556026825280832087905560155460278352928190209290925590518581527fd6ae57aa2cc060d4094c47d20c672afe0e53963e6459c15cab215abb8c88b863910160405180910390a350505050565b60008060ff19614d8b60017fdace3fd3d1fbdfd33853f19ba191d28c617e373ec58fc73cf7b58db5aff2c2ab6162aa565b604051602001614d9d91815260200190565b60408051601f1981840301815291905280516020909101201692915050565b7f9016d09d72d40fdae2fd8ceac6b6234c7706214fd39c1cd1e609a0528c19930080546001600160a01b031981166001600160a01b03848116918217845560405192169182907f8be0079c531659141344cd1fd0a4f28419497f9722a3daafe3b4186f6b6457e090600090a3505050565b60006040825114614e51576040516318dca5e960e21b815260040160405180910390fd5b602082015160408301518181811580614e7057506401000003d0198210155b80614e79575080155b80614e8a57506401000003d0198110155b15614ea8576040516379eb528360e11b815260040160405180910390fd5b60006401000003d019828309905060006401000003d01960076401000003d019866401000003d019888909090891909114979650505050505050565b805160209091012090565b6001600160a01b03811660009081526001830160205260408120541515611909565b6001600160a01b0382166000908152600960205260409020614f3390826152c8565b506119c48282615890565b60408051600481526024810182526020810180517bffffffffffffffffffffffffffffffffffffffffffffffffffffffff166001600160e01b03198516179052905160009190829081903090614f959085906164c7565b600060405180830381855afa9150503d8060008114614fd0576040519150601f19603f3d011682016040523d82523d6000602084013e614fd5565b606091505b509150915081614ff857604051635fbab09b60e11b815260040160405180910390fd5b8080602001905181019061500c91906164ae565b95945050505050565b600080615021846158b2565b91509150816150305750505050565b6000600782815481106150455761504561611c565b60009182526020808320909101546001600160a01b0388168352601b9091526040822054909250615077908690616105565b9050806007848154811061508d5761508d61611c565b906000526020600020018190555080826008546150aa91906162aa565b6150b49190616132565b600855505050505050565b7f9b779b17422d0df92223018b32b4d1fa46e071723d6817e2486d003becc55f0080546001190161510357604051633ee5aeb560e01b815260040160405180910390fd5b60029055565b816001600160a01b0316816001600160a01b03160361521657601d546040516253517560e01b81526001600160a01b03848116600483015260009216906253517590602401602060405180830381865afa15801561516b573d6000803e3d6000fd5b505050506040513d601f19601f8201168201806040525081019061518f9190616301565b601d5460405163facd743b60e01b81526001600160a01b03808416600483015292935091169063facd743b90602401602060405180830381865afa1580156151db573d6000803e3d6000fd5b505050506040513d601f19601f820116820180604052508101906151ff91906162bd565b1561520d5761376283613fde565b613762836140b5565b61522082826147a8565b61522982614755565b156119c457613762600283614793565b60017f9b779b17422d0df92223018b32b4d1fa46e071723d6817e2486d003becc55f0055565b6119c46002826152c8565b7ff0c57e16840df040f15088dc2f81fe391c3923bec73e23a9662efc9c229c6a005468010000000000000000900460ff166127b157604051631afcd79f60e31b815260040160405180910390fd5b613ce961526a565b61523961526a565b6000611909836001600160a01b038416615924565b6000611937825490565b6001600160a01b03811660009081526012602052604090205460065480821015806153425750826001600160a01b03166006838154811061532a5761532a61611c565b6000918252602090912001546001600160a01b031614155b156153d3576001600160a01b03831660008181526012602052604081208390556006805460018181019092557ff652222313e28459528d920b65115c16c04f3efc82aaedc97be59f3f377c0d3f0180546001600160a01b03191690931790925560078054928301815581527fa66cc928b5edb82af9bd49922954155ab7b0942694bea4ce44661d9a8736c688909101555b61376283615654565b600754600654146153ea5750565b6001600160a01b038116600090815260126020526040902054600654811080156154435750816001600160a01b03166006828154811061542c5761542c61611c565b6000918252602090912001546001600160a01b0316145b156119c4576007818154811061545b5761545b61611c565b9060005260206000200154600854106154a857600781815481106154815761548161611c565b90600052602060002001546008600082825461549d91906162aa565b909155506154ae9050565b60006008555b6006546000906154c0906001906162aa565b90506000600682815481106154d7576154d761611c565b600091825260209091200154600680546001600160a01b0390921692508291859081106155065761550661611c565b9060005260206000200160006101000a8154816001600160a01b0302191690836001600160a01b03160217905550600782815481106155475761554761611c565b9060005260206000200154600784815481106155655761556561611c565b60009182526020808320909101929092556001600160a01b0380841682526012909252604080822086905591861681529081205560068054806155aa576155aa6164e3565b600082815260209020810160001990810180546001600160a01b031916905501905560078054806155dd576155dd6164e3565b6001900381819060005260206000200160009055905550505050565b6060816000018054806020026020016040519081016040528092919081815260200182805480156125fc57602002820191906000526020600020905b8154815260200190600101908083116156355750505050509050919050565b6119c4600482614793565b601d5460405163a0d16cad60e01b81526001600160a01b0384811660048301529091169063a0d16cad90602401602060405180830381865afa1580156156a9573d6000803e3d6000fd5b505050506040513d601f19601f820116820180604052508101906156cd91906162bd565b15806156d95750601554155b156156e357505050565b6001600160a01b03808416600090815260236020908152604080832093851683529290522054601554811015615775576001600160a01b0380851660008181526013602090815260408083209487168084529482528083205484845260228352818420868552835281842060158054865290845282852091909155549383526023825280832094835293905291909120555b50505050565b6000818152600183016020526040812054801561586457600061579f6001836162aa565b85549091506000906157b3906001906162aa565b90508082146158185760008660000182815481106157d3576157d361611c565b90600052602060002001549050808760000184815481106157f6576157f661611c565b6000918252602080832090910192909255918252600188019052604090208390555b8554869080615829576158296164e3565b600190038181906000526020600020016000905590558560010160008681526020019081526020016000206000905560019350505050611937565b6000915050611937565b6001600160a01b0382166000908152600a6020526040902061376290826152c8565b6001600160a01b0382166000908152600a602052604090206137629082614793565b6001600160a01b0381166000908152601260205260408120546006548110801561590b5750826001600160a01b0316600682815481106158f4576158f461611c565b6000918252602090912001546001600160a01b0316145b156159195760019150915091565b506000928392509050565b600081815260018301602052604081205461596b57508154600181810184556000848152602080822090930184905584548482528286019093526040902091909155611937565b506000611937565b8280548282559060005260206000209081019282156159ae579160200282015b828111156159ae578251825591602001919060010190615993565b506159ba9291506159d8565b5090565b508054600082559060005260206000209081019061207e91905b5b808211156159ba57600081556001016159d9565b6001600160a01b038116811461207e57600080fd5b600080600060608486031215615a1757600080fd5b8335615a22816159ed565b92506020840135615a32816159ed565b929592945050506040919091013590565b60008083601f840112615a5557600080fd5b50813567ffffffffffffffff811115615a6d57600080fd5b6020830191508360208260051b8501011115615a8857600080fd5b9250929050565b60008060008060008060808789031215615aa857600080fd5b8635615ab3816159ed565b9550602087013567ffffffffffffffff80821115615ad057600080fd5b90880190610120828b031215615ae557600080fd5b90955060408801359080821115615afb57600080fd5b615b078a838b01615a43565b90965094506060890135915080821115615b2057600080fd5b50615b2d89828a01615a43565b979a9699509497509295939492505050565b60008060408385031215615b5257600080fd5b8235615b5d816159ed565b91506020830135615b6d816159ed565b809150509250929050565b60008060408385031215615b8b57600080fd5b823591506020830135615b6d816159ed565b600060208284031215615baf57600080fd5b8135611909816159ed565b600060208284031215615bcc57600080fd5b5035919050565b60008060408385031215615be657600080fd5b8235615bf1816159ed565b946020939093013593505050565b80356001600160e01b031981168114615c1757600080fd5b919050565b60008060008060608587031215615c3257600080fd5b615c3b85615bff565b9350615c4960208601615bff565b9250604085013567ffffffffffffffff811115615c6557600080fd5b615c7187828801615a43565b95989497509550505050565b60005b83811015615c98578181015183820152602001615c80565b50506000910152565b60008151808452615cb9816020860160208601615c7d565b601f01601f19169290920160200192915050565b6020815260006119096020830184615ca1565b6020808252825182820181905260009190848201906040850190845b81811015615d215783516001600160a01b031683529284019291840191600101615cfc565b50909695505050505050565b80356fffffffffffffffffffffffffffffffff1981168114615c1757600080fd5b80356001600160f01b031981168114615c1757600080fd5b600080600060608486031215615d7b57600080fd5b8335615d86816159ed565b9250615d9460208501615d2d565b9150615da260408501615d4e565b90509250925092565b600060208284031215615dbd57600080fd5b61190982615bff565b60008083601f840112615dd857600080fd5b50813567ffffffffffffffff811115615df057600080fd5b602083019150836020828501011115615a8857600080fd5b60008060008060608587031215615e1e57600080fd5b843567ffffffffffffffff811115615e3557600080fd5b615e4187828801615dc6565b9095509350615e54905060208601615d2d565b9150615e6260408601615d4e565b905092959194509250565b60008060008060008060a08789031215615e8657600080fd5b8635615e91816159ed565b95506020870135615ea1816159ed565b945060408701359350606087013567ffffffffffffffff811115615ec457600080fd5b615ed089828a01615dc6565b9094509250615ee3905060808801615d2d565b90509295509295509295565b60008151808452602080850194506020840160005b83811015615f2057815187529582019590820190600101615f04565b509495945050505050565b604081526000615f3e6040830185615eef565b90508260208301529392505050565b606081526000615f606060830186615ca1565b6fffffffffffffffffffffffffffffffff19949094166020830152506001600160f01b031991909116604090910152919050565b634e487b7160e01b600052604160045260246000fd5b600060208284031215615fbc57600080fd5b813567ffffffffffffffff80821115615fd457600080fd5b818401915084601f830112615fe857600080fd5b813581811115615ffa57615ffa615f94565b604051601f8201601f19908116603f0116810190838211818310171561602257616022615f94565b8160405282815287602084870101111561603b57600080fd5b826020860160208301376000928101602001929092525095945050505050565b602080825282516001600160e01b03191682820152820151604080830152600090612d736060840182615eef565b6000806040838503121561609c57600080fd5b615bf183615bff565b6000808335601e198436030181126160bc57600080fd5b83018035915067ffffffffffffffff8211156160d757600080fd5b6020019150600581901b3603821315615a8857600080fd5b634e487b7160e01b600052601160045260246000fd5b8082028115828204841417611937576119376160ef565b634e487b7160e01b600052603260045260246000fd5b80820180821115611937576119376160ef565b600181811c9082168061615957607f821691505b60208210810361617957634e487b7160e01b600052602260045260246000fd5b50919050565b601f821115613762576000816000526020600020601f850160051c810160208610156161a85750805b601f850160051c820191505b818110156161c7578281556001016161b4565b505050505050565b815167ffffffffffffffff8111156161e9576161e9615f94565b6161fd816161f78454616145565b8461617f565b602080601f831160018114616232576000841561621a5750858301515b600019600386901b1c1916600185901b1785556161c7565b600085815260208120601f198616915b8281101561626157888601518255948401946001909101908401616242565b508582101561627f5787850151600019600388901b60f8161c191681555b5050505050600190811b01905550565b6000602082840312156162a157600080fd5b61190982615d2d565b81810381811115611937576119376160ef565b6000602082840312156162cf57600080fd5b8151801515811461190957600080fd5b6000826162fc57634e487b7160e01b600052601260045260246000fd5b500490565b60006020828403121561631357600080fd5b8151611909816159ed565b6001600160e01b0319858116825284166020820152606060408201819052810182905260007f07ffffffffffffffffffffffffffffffffffffffffffffffffffffffffffffff83111561637057600080fd5b8260051b808560808501379190910160800195945050505050565b67ffffffffffffffff8311156163a3576163a3615f94565b6163b7836163b18354616145565b8361617f565b6000601f8411600181146163eb57600085156163d35750838201355b600019600387901b1c1916600186901b178355616445565b600083815260209020601f19861690835b8281101561641c57868501358255602094850194600190920191016163fc565b50868210156164395760001960f88860031b161c19848701351681555b505060018560011b0183555b5050505050565b6000600160ff1b8201616461576164616160ef565b5060000390565b60006001820161647a5761647a6160ef565b5060010190565b6001600160e01b031984811682528316602082015260606040820181905260009061500c90830184615eef565b6000602082840312156164c057600080fd5b5051919050565b600082516164d9818460208701615c7d565b9190910192915050565b634e487b7160e01b600052603160045260246000fdfea264697066735822122005fd516ac0642fb5a01558b64964c1847171743569df0eaaa946c9dbdc1f65a164736f6c63430008190033",
  "linkReferences": {},
  "deployedLinkReferences": {}
}