{
  "_format": "hh-sol-artifact-1",
  "contractName": "StakingHbbft",
  "sourceName": "contracts/StakingHbbft.sol",
  "abi": [
    {
      "inputs": [],
      "stateMutability": "nonpayable",
      "type": "constructor"
    },
    {
      "inputs": [
        {
          "internalType": "address",
          "name": "pool",
          "type": "address"
        },
        {
          "internalType": "address",
          "name": "staker",
          "type": "address"
        }
      ],
      "name": "CannotClaimWithdrawOrderYet",
      "type": "error"
    },
    {
      "inputs": [],
      "name": "GetterCallFailed",
      "type": "error"
    },
    {
      "inputs": [],
      "name": "InitialStakingPoolsListEmpty",
      "type": "error"
    },
    {
      "inputs": [],
      "name": "InsufficientBalance",
      "type": "error"
    },
    {
      "inputs": [
        {
          "internalType": "address",
          "name": "pool",
          "type": "address"
        },
        {
          "internalType": "address",
          "name": "delegator",
          "type": "address"
        }
      ],
      "name": "InsufficientStakeAmount",
      "type": "error"
    },
    {
      "inputs": [],
      "name": "InvalidFixedEpochDuration",
      "type": "error"
    },
    {
      "inputs": [
        {
          "internalType": "uint256",
          "name": "candidateStake",
          "type": "uint256"
        },
        {
          "internalType": "uint256",
          "name": "delegatorStake",
          "type": "uint256"
        }
      ],
      "name": "InvalidInitialStakeAmount",
      "type": "error"
    },
    {
      "inputs": [],
      "name": "InvalidInitialization",
      "type": "error"
    },
    {
      "inputs": [],
      "name": "InvalidIpAddressesCount",
      "type": "error"
    },
    {
      "inputs": [],
      "name": "InvalidMaxStakeAmount",
      "type": "error"
    },
    {
      "inputs": [],
      "name": "InvalidMoveStakePoolsAddress",
      "type": "error"
    },
    {
      "inputs": [
        {
          "internalType": "address",
          "name": "_operator",
          "type": "address"
        },
        {
          "internalType": "uint256",
          "name": "_share",
          "type": "uint256"
        }
      ],
      "name": "InvalidNodeOperatorConfiguration",
      "type": "error"
    },
    {
      "inputs": [
        {
          "internalType": "uint256",
          "name": "_share",
          "type": "uint256"
        }
      ],
      "name": "InvalidNodeOperatorShare",
      "type": "error"
    },
    {
      "inputs": [
        {
          "internalType": "address",
          "name": "pool",
          "type": "address"
        },
        {
          "internalType": "address",
          "name": "delegator",
          "type": "address"
        },
        {
          "internalType": "int256",
          "name": "amount",
          "type": "int256"
        }
      ],
      "name": "InvalidOrderWithdrawAmount",
      "type": "error"
    },
    {
      "inputs": [],
      "name": "InvalidPublicKeysCount",
      "type": "error"
    },
    {
      "inputs": [],
      "name": "InvalidStakingFixedEpochDuration",
      "type": "error"
    },
    {
      "inputs": [],
      "name": "InvalidStakingTransitionTimeframe",
      "type": "error"
    },
    {
      "inputs": [],
      "name": "InvalidTransitionTimeFrame",
      "type": "error"
    },
    {
      "inputs": [
        {
          "internalType": "address",
          "name": "pool",
          "type": "address"
        },
        {
          "internalType": "address",
          "name": "delegator",
          "type": "address"
        },
        {
          "internalType": "uint256",
          "name": "amount",
          "type": "uint256"
        }
      ],
      "name": "InvalidWithdrawAmount",
      "type": "error"
    },
    {
      "inputs": [
        {
          "internalType": "uint256",
          "name": "allowed",
          "type": "uint256"
        },
        {
          "internalType": "uint256",
          "name": "desired",
          "type": "uint256"
        }
      ],
      "name": "MaxAllowedWithdrawExceeded",
      "type": "error"
    },
    {
      "inputs": [],
      "name": "MaxPoolsCountExceeded",
      "type": "error"
    },
    {
      "inputs": [
        {
          "internalType": "uint256",
          "name": "_newVal",
          "type": "uint256"
        }
      ],
      "name": "NewValueOutOfRange",
      "type": "error"
    },
    {
      "inputs": [],
      "name": "NoStakesToRecover",
      "type": "error"
    },
    {
      "inputs": [],
      "name": "NotInitializing",
      "type": "error"
    },
    {
      "inputs": [],
      "name": "NotPayable",
      "type": "error"
    },
    {
      "inputs": [
        {
          "internalType": "uint256",
          "name": "_epoch",
          "type": "uint256"
        }
      ],
      "name": "OnlyOncePerEpoch",
      "type": "error"
    },
    {
      "inputs": [
        {
          "internalType": "address",
          "name": "owner",
          "type": "address"
        }
      ],
      "name": "OwnableInvalidOwner",
      "type": "error"
    },
    {
      "inputs": [
        {
          "internalType": "address",
          "name": "account",
          "type": "address"
        }
      ],
      "name": "OwnableUnauthorizedAccount",
      "type": "error"
    },
    {
      "inputs": [
        {
          "internalType": "address",
          "name": "pool",
          "type": "address"
        }
      ],
      "name": "PoolAbandoned",
      "type": "error"
    },
    {
      "inputs": [
        {
          "internalType": "address",
          "name": "pool",
          "type": "address"
        }
      ],
      "name": "PoolCannotBeRemoved",
      "type": "error"
    },
    {
      "inputs": [
        {
          "internalType": "address",
          "name": "pool",
          "type": "address"
        }
      ],
      "name": "PoolEmpty",
      "type": "error"
    },
    {
      "inputs": [
        {
          "internalType": "address",
          "name": "pool",
          "type": "address"
        }
      ],
      "name": "PoolNotExist",
      "type": "error"
    },
    {
      "inputs": [
        {
          "internalType": "address",
          "name": "pool",
          "type": "address"
        },
        {
          "internalType": "address",
          "name": "delegator",
          "type": "address"
        }
      ],
      "name": "PoolStakeLimitExceeded",
      "type": "error"
    },
    {
      "inputs": [],
      "name": "ReentrancyGuardReentrantCall",
      "type": "error"
    },
    {
      "inputs": [
        {
          "internalType": "address",
          "name": "recipient",
          "type": "address"
        },
        {
          "internalType": "uint256",
          "name": "amount",
          "type": "uint256"
        }
      ],
      "name": "TransferFailed",
      "type": "error"
    },
    {
      "inputs": [],
      "name": "Unauthorized",
      "type": "error"
    },
    {
      "inputs": [],
      "name": "WithdrawNotAllowed",
      "type": "error"
    },
    {
      "inputs": [],
      "name": "ZeroAddress",
      "type": "error"
    },
    {
      "inputs": [],
      "name": "ZeroGasPrice",
      "type": "error"
    },
    {
      "inputs": [],
      "name": "ZeroWidthrawAmount",
      "type": "error"
    },
    {
      "inputs": [],
      "name": "ZeroWidthrawDisallowPeriod",
      "type": "error"
    },
    {
      "anonymous": false,
      "inputs": [
        {
          "indexed": true,
          "internalType": "address",
          "name": "fromPoolStakingAddress",
          "type": "address"
        },
        {
          "indexed": true,
          "internalType": "address",
          "name": "staker",
          "type": "address"
        },
        {
          "indexed": true,
          "internalType": "uint256",
          "name": "stakingEpoch",
          "type": "uint256"
        },
        {
          "indexed": false,
          "internalType": "uint256",
          "name": "amount",
          "type": "uint256"
        }
      ],
      "name": "ClaimedOrderedWithdrawal",
      "type": "event"
    },
    {
      "anonymous": false,
      "inputs": [
        {
          "indexed": true,
          "internalType": "address",
          "name": "caller",
          "type": "address"
        },
        {
          "indexed": true,
          "internalType": "address",
          "name": "stakingAddress",
          "type": "address"
        },
        {
          "indexed": false,
          "internalType": "uint256",
          "name": "gatheredFunds",
          "type": "uint256"
        }
      ],
      "name": "GatherAbandonedStakes",
      "type": "event"
    },
    {
      "anonymous": false,
      "inputs": [
        {
          "indexed": false,
          "internalType": "uint64",
          "name": "version",
          "type": "uint64"
        }
      ],
      "name": "Initialized",
      "type": "event"
    },
    {
      "anonymous": false,
      "inputs": [
        {
          "indexed": false,
          "internalType": "address",
          "name": "fromPoolStakingAddress",
          "type": "address"
        },
        {
          "indexed": true,
          "internalType": "address",
          "name": "toPoolStakingAddress",
          "type": "address"
        },
        {
          "indexed": true,
          "internalType": "address",
          "name": "staker",
          "type": "address"
        },
        {
          "indexed": true,
          "internalType": "uint256",
          "name": "stakingEpoch",
          "type": "uint256"
        },
        {
          "indexed": false,
          "internalType": "uint256",
          "name": "amount",
          "type": "uint256"
        }
      ],
      "name": "MovedStake",
      "type": "event"
    },
    {
      "anonymous": false,
      "inputs": [
        {
          "indexed": true,
          "internalType": "address",
          "name": "fromPoolStakingAddress",
          "type": "address"
        },
        {
          "indexed": true,
          "internalType": "address",
          "name": "staker",
          "type": "address"
        },
        {
          "indexed": true,
          "internalType": "uint256",
          "name": "stakingEpoch",
          "type": "uint256"
        },
        {
          "indexed": false,
          "internalType": "int256",
          "name": "amount",
          "type": "int256"
        }
      ],
      "name": "OrderedWithdrawal",
      "type": "event"
    },
    {
      "anonymous": false,
      "inputs": [
        {
          "indexed": true,
          "internalType": "address",
          "name": "previousOwner",
          "type": "address"
        },
        {
          "indexed": true,
          "internalType": "address",
          "name": "newOwner",
          "type": "address"
        }
      ],
      "name": "OwnershipTransferred",
      "type": "event"
    },
    {
      "anonymous": false,
      "inputs": [
        {
          "indexed": true,
          "internalType": "address",
          "name": "toPoolStakingAddress",
          "type": "address"
        },
        {
          "indexed": true,
          "internalType": "address",
          "name": "staker",
          "type": "address"
        },
        {
          "indexed": true,
          "internalType": "uint256",
          "name": "stakingEpoch",
          "type": "uint256"
        },
        {
          "indexed": false,
          "internalType": "uint256",
          "name": "amount",
          "type": "uint256"
        }
      ],
      "name": "PlacedStake",
      "type": "event"
    },
    {
      "anonymous": false,
      "inputs": [
        {
          "indexed": true,
          "internalType": "address",
          "name": "caller",
          "type": "address"
        },
        {
          "indexed": false,
          "internalType": "uint256",
          "name": "reinsertShare",
          "type": "uint256"
        },
        {
          "indexed": false,
          "internalType": "uint256",
          "name": "governanceShare",
          "type": "uint256"
        }
      ],
      "name": "RecoverAbandonedStakes",
      "type": "event"
    },
    {
      "anonymous": false,
      "inputs": [
        {
          "indexed": false,
          "internalType": "bytes4",
          "name": "funcSelector",
          "type": "bytes4"
        }
      ],
      "name": "RemoveChangeableParameter",
      "type": "event"
    },
    {
      "anonymous": false,
      "inputs": [
        {
          "indexed": true,
          "internalType": "address",
          "name": "poolStakingAddress",
          "type": "address"
        },
        {
          "indexed": true,
          "internalType": "uint256",
          "name": "stakingEpoch",
          "type": "uint256"
        },
        {
          "indexed": false,
          "internalType": "uint256",
          "name": "validatorReward",
          "type": "uint256"
        },
        {
          "indexed": false,
          "internalType": "uint256",
          "name": "delegatorsReward",
          "type": "uint256"
        }
      ],
      "name": "RestakeReward",
      "type": "event"
    },
    {
      "anonymous": false,
      "inputs": [
        {
          "indexed": false,
          "internalType": "bytes4",
          "name": "setter",
          "type": "bytes4"
        },
        {
          "indexed": false,
          "internalType": "bytes4",
          "name": "getter",
          "type": "bytes4"
        },
        {
          "indexed": false,
          "internalType": "uint256[]",
          "name": "params",
          "type": "uint256[]"
        }
      ],
      "name": "SetChangeableParameter",
      "type": "event"
    },
    {
      "anonymous": false,
      "inputs": [
        {
          "indexed": false,
          "internalType": "uint256",
          "name": "minStake",
          "type": "uint256"
        }
      ],
      "name": "SetDelegatorMinStake",
      "type": "event"
    },
    {
      "anonymous": false,
      "inputs": [
        {
          "indexed": true,
          "internalType": "address",
          "name": "poolStakingAddress",
          "type": "address"
        },
        {
          "indexed": true,
          "internalType": "address",
          "name": "nodeOperatorAddress",
          "type": "address"
        },
        {
          "indexed": false,
          "internalType": "uint256",
          "name": "operatorShare",
          "type": "uint256"
        }
      ],
      "name": "SetNodeOperator",
      "type": "event"
    },
    {
      "anonymous": false,
      "inputs": [
        {
          "indexed": true,
          "internalType": "address",
          "name": "fromPoolStakingAddress",
          "type": "address"
        },
        {
          "indexed": true,
          "internalType": "address",
          "name": "staker",
          "type": "address"
        },
        {
          "indexed": true,
          "internalType": "uint256",
          "name": "stakingEpoch",
          "type": "uint256"
        },
        {
          "indexed": false,
          "internalType": "uint256",
          "name": "amount",
          "type": "uint256"
        }
      ],
      "name": "WithdrewStake",
      "type": "event"
    },
    {
      "inputs": [],
      "name": "MAX_CANDIDATES",
      "outputs": [
        {
          "internalType": "uint256",
          "name": "",
          "type": "uint256"
        }
      ],
      "stateMutability": "view",
      "type": "function"
    },
    {
      "inputs": [],
      "name": "MAX_NODE_OPERATOR_SHARE_PERCENT",
      "outputs": [
        {
          "internalType": "uint256",
          "name": "",
          "type": "uint256"
        }
      ],
      "stateMutability": "view",
      "type": "function"
    },
    {
      "inputs": [],
      "name": "PERCENT_DENOMINATOR",
      "outputs": [
        {
          "internalType": "uint256",
          "name": "",
          "type": "uint256"
        }
      ],
      "stateMutability": "view",
      "type": "function"
    },
    {
      "inputs": [
        {
          "internalType": "address",
          "name": "",
          "type": "address"
        }
      ],
      "name": "abandonedAndRemoved",
      "outputs": [
        {
          "internalType": "bool",
          "name": "",
          "type": "bool"
        }
      ],
      "stateMutability": "view",
      "type": "function"
    },
    {
      "inputs": [
        {
          "internalType": "address",
          "name": "_miningAddress",
          "type": "address"
        },
        {
          "internalType": "address",
          "name": "_nodeOperatorAddress",
          "type": "address"
        },
        {
          "internalType": "uint256",
          "name": "_operatorShare",
          "type": "uint256"
        },
        {
          "internalType": "bytes",
          "name": "_publicKey",
          "type": "bytes"
        },
        {
          "internalType": "bytes16",
          "name": "_ip",
          "type": "bytes16"
        }
      ],
      "name": "addPool",
      "outputs": [],
      "stateMutability": "payable",
      "type": "function"
    },
    {
      "inputs": [],
      "name": "areStakeAndWithdrawAllowed",
      "outputs": [
        {
          "internalType": "bool",
          "name": "",
          "type": "bool"
        }
      ],
      "stateMutability": "pure",
      "type": "function"
    },
    {
      "inputs": [],
      "name": "bonusScoreContract",
      "outputs": [
        {
          "internalType": "contract IBonusScoreSystem",
          "name": "",
          "type": "address"
        }
      ],
      "stateMutability": "view",
      "type": "function"
    },
    {
      "inputs": [],
      "name": "candidateMinStake",
      "outputs": [
        {
          "internalType": "uint256",
          "name": "",
          "type": "uint256"
        }
      ],
      "stateMutability": "view",
      "type": "function"
    },
    {
      "inputs": [
        {
          "internalType": "address",
          "name": "_poolStakingAddress",
          "type": "address"
        }
      ],
      "name": "claimOrderedWithdraw",
      "outputs": [],
      "stateMutability": "nonpayable",
      "type": "function"
    },
    {
      "inputs": [],
      "name": "currentKeyGenExtraTimeWindow",
      "outputs": [
        {
          "internalType": "uint256",
          "name": "",
          "type": "uint256"
        }
      ],
      "stateMutability": "view",
      "type": "function"
    },
    {
      "inputs": [],
      "name": "delegatorMinStake",
      "outputs": [
        {
          "internalType": "uint256",
          "name": "",
          "type": "uint256"
        }
      ],
      "stateMutability": "view",
      "type": "function"
    },
    {
      "inputs": [
        {
          "internalType": "string",
          "name": "_selector",
          "type": "string"
        }
      ],
      "name": "getAllowedParamsRange",
      "outputs": [
        {
          "components": [
            {
              "internalType": "bytes4",
              "name": "getter",
              "type": "bytes4"
            },
            {
              "internalType": "uint256[]",
              "name": "range",
              "type": "uint256[]"
            }
          ],
          "internalType": "struct ValueGuards.ParameterRange",
          "name": "",
          "type": "tuple"
        }
      ],
      "stateMutability": "view",
      "type": "function"
    },
    {
      "inputs": [
        {
          "internalType": "bytes4",
          "name": "_selector",
          "type": "bytes4"
        }
      ],
      "name": "getAllowedParamsRangeWithSelector",
      "outputs": [
        {
          "components": [
            {
              "internalType": "bytes4",
              "name": "getter",
              "type": "bytes4"
            },
            {
              "internalType": "uint256[]",
              "name": "range",
              "type": "uint256[]"
            }
          ],
          "internalType": "struct ValueGuards.ParameterRange",
          "name": "",
          "type": "tuple"
        }
      ],
      "stateMutability": "view",
      "type": "function"
    },
    {
      "inputs": [
        {
          "internalType": "address",
          "name": "_poolAddress",
          "type": "address"
        }
      ],
      "name": "getPoolInternetAddress",
      "outputs": [
        {
          "internalType": "bytes16",
          "name": "",
          "type": "bytes16"
        },
        {
          "internalType": "bytes2",
          "name": "",
          "type": "bytes2"
        }
      ],
      "stateMutability": "view",
      "type": "function"
    },
    {
      "inputs": [
        {
          "internalType": "address",
          "name": "_poolAddress",
          "type": "address"
        }
      ],
      "name": "getPoolPublicKey",
      "outputs": [
        {
          "internalType": "bytes",
          "name": "",
          "type": "bytes"
        }
      ],
      "stateMutability": "view",
      "type": "function"
    },
    {
      "inputs": [
        {
          "internalType": "uint256",
          "name": "_epoch",
          "type": "uint256"
        },
        {
          "internalType": "address",
          "name": "_stakingPool",
          "type": "address"
        }
      ],
      "name": "getPoolValidatorStakeAmount",
      "outputs": [
        {
          "internalType": "uint256",
          "name": "",
          "type": "uint256"
        }
      ],
      "stateMutability": "view",
      "type": "function"
    },
    {
      "inputs": [],
      "name": "getPools",
      "outputs": [
        {
          "internalType": "address[]",
          "name": "",
          "type": "address[]"
        }
      ],
      "stateMutability": "view",
      "type": "function"
    },
    {
      "inputs": [],
      "name": "getPoolsInactive",
      "outputs": [
        {
          "internalType": "address[]",
          "name": "",
          "type": "address[]"
        }
      ],
      "stateMutability": "view",
      "type": "function"
    },
    {
      "inputs": [],
      "name": "getPoolsLikelihood",
      "outputs": [
        {
          "internalType": "uint256[]",
          "name": "likelihoods",
          "type": "uint256[]"
        },
        {
          "internalType": "uint256",
          "name": "sum",
          "type": "uint256"
        }
      ],
      "stateMutability": "view",
      "type": "function"
    },
    {
      "inputs": [],
      "name": "getPoolsToBeElected",
      "outputs": [
        {
          "internalType": "address[]",
          "name": "",
          "type": "address[]"
        }
      ],
      "stateMutability": "view",
      "type": "function"
    },
    {
      "inputs": [],
      "name": "getPoolsToBeRemoved",
      "outputs": [
        {
          "internalType": "address[]",
          "name": "",
          "type": "address[]"
        }
      ],
      "stateMutability": "view",
      "type": "function"
    },
    {
      "inputs": [],
      "name": "incrementStakingEpoch",
      "outputs": [],
      "stateMutability": "nonpayable",
      "type": "function"
    },
    {
      "inputs": [
        {
          "internalType": "address",
          "name": "_contractOwner",
          "type": "address"
        },
        {
          "components": [
            {
              "internalType": "address",
              "name": "_validatorSetContract",
              "type": "address"
            },
            {
              "internalType": "address",
              "name": "_bonusScoreContract",
              "type": "address"
            },
            {
              "internalType": "address[]",
              "name": "_initialStakingAddresses",
              "type": "address[]"
            },
            {
              "internalType": "uint256",
              "name": "_delegatorMinStake",
              "type": "uint256"
            },
            {
              "internalType": "uint256",
              "name": "_candidateMinStake",
              "type": "uint256"
            },
            {
              "internalType": "uint256",
              "name": "_maxStake",
              "type": "uint256"
            },
            {
              "internalType": "uint256",
              "name": "_stakingFixedEpochDuration",
              "type": "uint256"
            },
            {
              "internalType": "uint256",
              "name": "_stakingTransitionTimeframeLength",
              "type": "uint256"
            },
            {
              "internalType": "uint256",
              "name": "_stakingWithdrawDisallowPeriod",
              "type": "uint256"
            }
          ],
          "internalType": "struct IStakingHbbft.StakingParams",
          "name": "stakingParams",
          "type": "tuple"
        },
        {
          "internalType": "bytes32[]",
          "name": "_publicKeys",
          "type": "bytes32[]"
        },
        {
          "internalType": "bytes16[]",
          "name": "_internetAddresses",
          "type": "bytes16[]"
        }
      ],
      "name": "initialize",
      "outputs": [],
      "stateMutability": "nonpayable",
      "type": "function"
    },
    {
      "inputs": [
        {
          "internalType": "address",
          "name": "_stakingAddress",
          "type": "address"
        }
      ],
      "name": "isPoolActive",
      "outputs": [
        {
          "internalType": "bool",
          "name": "",
          "type": "bool"
        }
      ],
      "stateMutability": "view",
      "type": "function"
    },
    {
      "inputs": [
        {
          "internalType": "address",
          "name": "_stakingAddress",
          "type": "address"
        }
      ],
      "name": "isPoolValid",
      "outputs": [
        {
          "internalType": "bool",
          "name": "",
          "type": "bool"
        }
      ],
      "stateMutability": "view",
      "type": "function"
    },
    {
      "inputs": [
        {
          "internalType": "bytes4",
          "name": "funcSelector",
          "type": "bytes4"
        },
        {
          "internalType": "uint256",
          "name": "newVal",
          "type": "uint256"
        }
      ],
      "name": "isWithinAllowedRange",
      "outputs": [
        {
          "internalType": "bool",
          "name": "",
          "type": "bool"
        }
      ],
      "stateMutability": "view",
      "type": "function"
    },
    {
      "inputs": [],
      "name": "maxStakeAmount",
      "outputs": [
        {
          "internalType": "uint256",
          "name": "",
          "type": "uint256"
        }
      ],
      "stateMutability": "view",
      "type": "function"
    },
    {
      "inputs": [
        {
          "internalType": "address",
          "name": "_poolStakingAddress",
          "type": "address"
        },
        {
          "internalType": "address",
          "name": "_staker",
          "type": "address"
        }
      ],
      "name": "maxWithdrawAllowed",
      "outputs": [
        {
          "internalType": "uint256",
          "name": "",
          "type": "uint256"
        }
      ],
      "stateMutability": "view",
      "type": "function"
    },
    {
      "inputs": [
        {
          "internalType": "address",
          "name": "_poolStakingAddress",
          "type": "address"
        },
        {
          "internalType": "address",
          "name": "_staker",
          "type": "address"
        }
      ],
      "name": "maxWithdrawOrderAllowed",
      "outputs": [
        {
          "internalType": "uint256",
          "name": "",
          "type": "uint256"
        }
      ],
      "stateMutability": "view",
      "type": "function"
    },
    {
      "inputs": [
        {
          "internalType": "address",
          "name": "_fromPoolStakingAddress",
          "type": "address"
        },
        {
          "internalType": "address",
          "name": "_toPoolStakingAddress",
          "type": "address"
        },
        {
          "internalType": "uint256",
          "name": "_amount",
          "type": "uint256"
        }
      ],
      "name": "moveStake",
      "outputs": [],
      "stateMutability": "nonpayable",
      "type": "function"
    },
    {
      "inputs": [
        {
          "internalType": "address",
          "name": "_stakingAddress",
          "type": "address"
        }
      ],
      "name": "notifyAvailability",
      "outputs": [],
      "stateMutability": "nonpayable",
      "type": "function"
    },
    {
      "inputs": [],
      "name": "notifyKeyGenFailed",
      "outputs": [],
      "stateMutability": "nonpayable",
      "type": "function"
    },
    {
      "inputs": [
        {
          "internalType": "uint256",
          "name": "detectedOfflineTime",
          "type": "uint256"
        }
      ],
      "name": "notifyNetworkOfftimeDetected",
      "outputs": [],
      "stateMutability": "nonpayable",
      "type": "function"
    },
    {
      "inputs": [
        {
          "internalType": "address",
          "name": "_poolStakingAddress",
          "type": "address"
        },
        {
          "internalType": "int256",
          "name": "_amount",
          "type": "int256"
        }
      ],
      "name": "orderWithdraw",
      "outputs": [],
      "stateMutability": "nonpayable",
      "type": "function"
    },
    {
      "inputs": [
        {
          "internalType": "address",
          "name": "",
          "type": "address"
        },
        {
          "internalType": "address",
          "name": "",
          "type": "address"
        }
      ],
      "name": "orderWithdrawEpoch",
      "outputs": [
        {
          "internalType": "uint256",
          "name": "",
          "type": "uint256"
        }
      ],
      "stateMutability": "view",
      "type": "function"
    },
    {
      "inputs": [
        {
          "internalType": "address",
          "name": "",
          "type": "address"
        },
        {
          "internalType": "address",
          "name": "",
          "type": "address"
        }
      ],
      "name": "orderedWithdrawAmount",
      "outputs": [
        {
          "internalType": "uint256",
          "name": "",
          "type": "uint256"
        }
      ],
      "stateMutability": "view",
      "type": "function"
    },
    {
      "inputs": [
        {
          "internalType": "address",
          "name": "",
          "type": "address"
        }
      ],
      "name": "orderedWithdrawAmountTotal",
      "outputs": [
        {
          "internalType": "uint256",
          "name": "",
          "type": "uint256"
        }
      ],
      "stateMutability": "view",
      "type": "function"
    },
    {
      "inputs": [],
      "name": "owner",
      "outputs": [
        {
          "internalType": "address",
          "name": "",
          "type": "address"
        }
      ],
      "stateMutability": "view",
      "type": "function"
    },
    {
      "inputs": [
        {
          "internalType": "address",
          "name": "_poolStakingAddress",
          "type": "address"
        }
      ],
      "name": "poolDelegators",
      "outputs": [
        {
          "internalType": "address[]",
          "name": "",
          "type": "address[]"
        }
      ],
      "stateMutability": "view",
      "type": "function"
    },
    {
      "inputs": [
        {
          "internalType": "address",
          "name": "_poolStakingAddress",
          "type": "address"
        }
      ],
      "name": "poolDelegatorsInactive",
      "outputs": [
        {
          "internalType": "address[]",
          "name": "",
          "type": "address[]"
        }
      ],
      "stateMutability": "view",
      "type": "function"
    },
    {
      "inputs": [
        {
          "internalType": "address",
          "name": "",
          "type": "address"
        }
      ],
      "name": "poolInfo",
      "outputs": [
        {
          "internalType": "bytes",
          "name": "publicKey",
          "type": "bytes"
        },
        {
          "internalType": "bytes16",
          "name": "internetAddress",
          "type": "bytes16"
        },
        {
          "internalType": "bytes2",
          "name": "port",
          "type": "bytes2"
        }
      ],
      "stateMutability": "view",
      "type": "function"
    },
    {
      "inputs": [
        {
          "internalType": "address",
          "name": "",
          "type": "address"
        }
      ],
      "name": "poolNodeOperator",
      "outputs": [
        {
          "internalType": "address",
          "name": "",
          "type": "address"
        }
      ],
      "stateMutability": "view",
      "type": "function"
    },
    {
      "inputs": [
        {
          "internalType": "address",
          "name": "",
          "type": "address"
        }
      ],
      "name": "poolNodeOperatorLastChangeEpoch",
      "outputs": [
        {
          "internalType": "uint256",
          "name": "",
          "type": "uint256"
        }
      ],
      "stateMutability": "view",
      "type": "function"
    },
    {
      "inputs": [
        {
          "internalType": "address",
          "name": "",
          "type": "address"
        }
      ],
      "name": "poolNodeOperatorShare",
      "outputs": [
        {
          "internalType": "uint256",
          "name": "",
          "type": "uint256"
        }
      ],
      "stateMutability": "view",
      "type": "function"
    },
    {
      "inputs": [
        {
          "internalType": "address",
          "name": "",
          "type": "address"
        }
      ],
      "name": "poolToBeElectedIndex",
      "outputs": [
        {
          "internalType": "uint256",
          "name": "",
          "type": "uint256"
        }
      ],
      "stateMutability": "view",
      "type": "function"
    },
    {
      "inputs": [],
      "name": "recoverAbandonedStakes",
      "outputs": [],
      "stateMutability": "nonpayable",
      "type": "function"
    },
    {
      "inputs": [
        {
          "internalType": "bytes4",
          "name": "funcSelector",
          "type": "bytes4"
        }
      ],
      "name": "removeAllowedChangeableParameter",
      "outputs": [],
      "stateMutability": "nonpayable",
      "type": "function"
    },
    {
      "inputs": [],
      "name": "removeMyPool",
      "outputs": [],
      "stateMutability": "nonpayable",
      "type": "function"
    },
    {
      "inputs": [
        {
          "internalType": "address",
          "name": "_stakingAddress",
          "type": "address"
        }
      ],
      "name": "removePool",
      "outputs": [],
      "stateMutability": "nonpayable",
      "type": "function"
    },
    {
      "inputs": [],
      "name": "removePools",
      "outputs": [],
      "stateMutability": "nonpayable",
      "type": "function"
    },
    {
      "inputs": [],
      "name": "renounceOwnership",
      "outputs": [],
      "stateMutability": "nonpayable",
      "type": "function"
    },
    {
      "inputs": [
        {
          "internalType": "address",
          "name": "_poolStakingAddress",
          "type": "address"
        },
        {
          "internalType": "uint256",
          "name": "_validatorMinRewardPercent",
          "type": "uint256"
        }
      ],
      "name": "restake",
      "outputs": [],
      "stateMutability": "payable",
      "type": "function"
    },
    {
      "inputs": [
        {
          "internalType": "bytes4",
          "name": "setter",
          "type": "bytes4"
        },
        {
          "internalType": "bytes4",
          "name": "getter",
          "type": "bytes4"
        },
        {
          "internalType": "uint256[]",
          "name": "params",
          "type": "uint256[]"
        }
      ],
      "name": "setAllowedChangeableParameter",
      "outputs": [],
      "stateMutability": "nonpayable",
      "type": "function"
    },
    {
      "inputs": [
        {
          "internalType": "uint256",
          "name": "_minStake",
          "type": "uint256"
        }
      ],
      "name": "setDelegatorMinStake",
      "outputs": [],
      "stateMutability": "nonpayable",
      "type": "function"
    },
    {
      "inputs": [
        {
          "internalType": "address",
          "name": "_operatorAddress",
          "type": "address"
        },
        {
          "internalType": "uint256",
          "name": "_operatorShare",
          "type": "uint256"
        }
      ],
      "name": "setNodeOperator",
      "outputs": [],
      "stateMutability": "nonpayable",
      "type": "function"
    },
    {
      "inputs": [
        {
          "internalType": "bytes",
          "name": "_publicKey",
          "type": "bytes"
        },
        {
          "internalType": "bytes16",
          "name": "_ip",
          "type": "bytes16"
        },
        {
          "internalType": "bytes2",
          "name": "_port",
          "type": "bytes2"
        }
      ],
      "name": "setPoolInfo",
      "outputs": [],
      "stateMutability": "nonpayable",
      "type": "function"
    },
    {
      "inputs": [
        {
          "internalType": "uint256",
          "name": "_timestamp",
          "type": "uint256"
        }
      ],
      "name": "setStakingEpochStartTime",
      "outputs": [],
      "stateMutability": "nonpayable",
      "type": "function"
    },
    {
      "inputs": [
        {
          "internalType": "address",
          "name": "_validatorAddress",
          "type": "address"
        },
        {
          "internalType": "bytes16",
          "name": "_ip",
          "type": "bytes16"
        },
        {
          "internalType": "bytes2",
          "name": "_port",
          "type": "bytes2"
        }
      ],
      "name": "setValidatorInternetAddress",
      "outputs": [],
      "stateMutability": "nonpayable",
      "type": "function"
    },
    {
      "inputs": [
        {
          "internalType": "uint256",
          "name": "_epoch",
          "type": "uint256"
        },
        {
          "internalType": "address",
          "name": "_stakingPool",
          "type": "address"
        }
      ],
      "name": "snapshotPoolStakeAmounts",
      "outputs": [],
      "stateMutability": "nonpayable",
      "type": "function"
    },
    {
      "inputs": [
        {
          "internalType": "uint256",
          "name": "",
          "type": "uint256"
        },
        {
          "internalType": "address",
          "name": "",
          "type": "address"
        }
      ],
      "name": "snapshotPoolTotalStakeAmount",
      "outputs": [
        {
          "internalType": "uint256",
          "name": "",
          "type": "uint256"
        }
      ],
      "stateMutability": "view",
      "type": "function"
    },
    {
      "inputs": [
        {
          "internalType": "uint256",
          "name": "",
          "type": "uint256"
        },
        {
          "internalType": "address",
          "name": "",
          "type": "address"
        }
      ],
      "name": "snapshotPoolValidatorStakeAmount",
      "outputs": [
        {
          "internalType": "uint256",
          "name": "",
          "type": "uint256"
        }
      ],
      "stateMutability": "view",
      "type": "function"
    },
    {
      "inputs": [
        {
          "internalType": "address",
          "name": "_toPoolStakingAddress",
          "type": "address"
        }
      ],
      "name": "stake",
      "outputs": [],
      "stateMutability": "payable",
      "type": "function"
    },
    {
      "inputs": [
        {
          "internalType": "address",
          "name": "",
          "type": "address"
        },
        {
          "internalType": "address",
          "name": "",
          "type": "address"
        }
      ],
      "name": "stakeAmount",
      "outputs": [
        {
          "internalType": "uint256",
          "name": "",
          "type": "uint256"
        }
      ],
      "stateMutability": "view",
      "type": "function"
    },
    {
      "inputs": [
        {
          "internalType": "address",
          "name": "_poolStakingAddress",
          "type": "address"
        },
        {
          "internalType": "address",
          "name": "_staker",
          "type": "address"
        }
      ],
      "name": "stakeAmountByCurrentEpoch",
      "outputs": [
        {
          "internalType": "uint256",
          "name": "",
          "type": "uint256"
        }
      ],
      "stateMutability": "view",
      "type": "function"
    },
    {
      "inputs": [
        {
          "internalType": "address",
          "name": "",
          "type": "address"
        }
      ],
      "name": "stakeAmountTotal",
      "outputs": [
        {
          "internalType": "uint256",
          "name": "",
          "type": "uint256"
        }
      ],
      "stateMutability": "view",
      "type": "function"
    },
    {
      "inputs": [],
      "name": "stakingEpoch",
      "outputs": [
        {
          "internalType": "uint256",
          "name": "",
          "type": "uint256"
        }
      ],
      "stateMutability": "view",
      "type": "function"
    },
    {
      "inputs": [],
      "name": "stakingEpochStartBlock",
      "outputs": [
        {
          "internalType": "uint256",
          "name": "",
          "type": "uint256"
        }
      ],
      "stateMutability": "view",
      "type": "function"
    },
    {
      "inputs": [],
      "name": "stakingEpochStartTime",
      "outputs": [
        {
          "internalType": "uint256",
          "name": "",
          "type": "uint256"
        }
      ],
      "stateMutability": "view",
      "type": "function"
    },
    {
      "inputs": [],
      "name": "stakingFixedEpochDuration",
      "outputs": [
        {
          "internalType": "uint256",
          "name": "",
          "type": "uint256"
        }
      ],
      "stateMutability": "view",
      "type": "function"
    },
    {
      "inputs": [],
      "name": "stakingFixedEpochEndTime",
      "outputs": [
        {
          "internalType": "uint256",
          "name": "",
          "type": "uint256"
        }
      ],
      "stateMutability": "view",
      "type": "function"
    },
    {
      "inputs": [],
      "name": "stakingTransitionTimeframeLength",
      "outputs": [
        {
          "internalType": "uint256",
          "name": "",
          "type": "uint256"
        }
      ],
      "stateMutability": "view",
      "type": "function"
    },
    {
      "inputs": [],
      "name": "stakingWithdrawDisallowPeriod",
      "outputs": [
        {
          "internalType": "uint256",
          "name": "",
          "type": "uint256"
        }
      ],
      "stateMutability": "view",
      "type": "function"
    },
    {
      "inputs": [],
      "name": "startTimeOfNextPhaseTransition",
      "outputs": [
        {
          "internalType": "uint256",
          "name": "",
          "type": "uint256"
        }
      ],
      "stateMutability": "view",
      "type": "function"
    },
    {
      "inputs": [],
      "name": "totalStakedAmount",
      "outputs": [
        {
          "internalType": "uint256",
          "name": "",
          "type": "uint256"
        }
      ],
      "stateMutability": "view",
      "type": "function"
    },
    {
      "inputs": [
        {
          "internalType": "address",
          "name": "newOwner",
          "type": "address"
        }
      ],
      "name": "transferOwnership",
      "outputs": [],
      "stateMutability": "nonpayable",
      "type": "function"
    },
    {
      "inputs": [
        {
          "internalType": "address",
          "name": "mining",
          "type": "address"
        },
        {
          "internalType": "uint256",
          "name": "validatorScore",
          "type": "uint256"
        }
      ],
      "name": "updatePoolLikelihood",
      "outputs": [],
      "stateMutability": "nonpayable",
      "type": "function"
    },
    {
      "inputs": [],
      "name": "validatorSetContract",
      "outputs": [
        {
          "internalType": "contract IValidatorSetHbbft",
          "name": "",
          "type": "address"
        }
      ],
      "stateMutability": "view",
      "type": "function"
    },
    {
      "inputs": [
        {
          "internalType": "address",
          "name": "_fromPoolStakingAddress",
          "type": "address"
        },
        {
          "internalType": "uint256",
          "name": "_amount",
          "type": "uint256"
        }
      ],
      "name": "withdraw",
      "outputs": [],
      "stateMutability": "nonpayable",
      "type": "function"
    },
    {
      "stateMutability": "payable",
      "type": "receive"
    }
  ],
  "bytecode": "0x6080604052348015600f57600080fd5b506016601a565b60ca565b7ff0c57e16840df040f15088dc2f81fe391c3923bec73e23a9662efc9c229c6a00805468010000000000000000900460ff161560695760405163f92ee8a960e01b815260040160405180910390fd5b80546001600160401b039081161460c75780546001600160401b0319166001600160401b0390811782556040519081527fc7f505b2f371ae2175ee4913f4499e1f2633a7b5936321eed1cdaeb6115181d29060200160405180910390a15b50565b615dfd806100d96000396000f3fe6080604052600436106105415760003560e01c8063862be287116102af578063bf348f8611610179578063e9ab0300116100d6578063f3fef3a31161008a578063f6c578611161006f578063f6c5786114610f63578063f9d4d54414610f83578063fa4aaf4714610fb057600080fd5b8063f3fef3a314610f2f578063f494250114610f4f57600080fd5b8063ee435f55116100bb578063ee435f5514610ee4578063f078609614610ef9578063f2fde38b14610f0f57600080fd5b8063e9ab030014610e97578063edd7db7514610ecf57600080fd5b8063d290c21d1161012d578063dadee88a11610112578063dadee88a14610e35578063df6f55f514610e62578063dfc8bf4e14610e7757600080fd5b8063d290c21d14610e0a578063da7a9b6a14610e1f57600080fd5b8063c6af311a1161015e578063c6af311a14610daa578063cfef144114610dca578063d0ac76f614610dea57600080fd5b8063bf348f8614610d75578063c6912cc014610d9557600080fd5b80639ea8082b11610227578063adddc0cf116101db578063b61ed63a116101c0578063b61ed63a14610d08578063b710c15d14610d28578063ba08d23714610d5557600080fd5b8063adddc0cf14610cdd578063ae1aaf8014610cf257600080fd5b8063a5d54f651161020c578063a5d54f6514610c70578063a697ecff14610c85578063a711e6a114610cbd57600080fd5b80639ea8082b14610c18578063a420596714610c3857600080fd5b8063957950a71161027e5780639b03d744116102635780639b03d74414610bcc5780639e6c295914610be25780639e72c63514610bf857600080fd5b8063957950a714610b7a5780639a7b5f1114610b9d57600080fd5b8063862be28714610aea5780638da5cb5b14610b0a578063921e274b14610b47578063950a651314610b5a57600080fd5b80634f9a8d8f1161040b578063715018a6116103685780637b0a0f9b1161031c5780637d8149db116103015780637d8149db14610a7d5780638247a23914610a9d57806384725c7614610abd57600080fd5b80637b0a0f9b14610a3d5780637b15b94c14610a5d57600080fd5b806373c218031161034d57806373c21803146109b7578063750dd2a1146109d7578063794c0c6814610a2757600080fd5b8063715018a61461096c578063728345db1461098157600080fd5b80635fef7643116103bf578063673a2a1f116103a4578063673a2a1f146109145780636bda1577146109365780637069e7461461095657600080fd5b80635fef7643146108c8578063615f2b71146108de57600080fd5b8063567e98f9116103f0578063567e98f91461087c5780635b4eafe0146108925780635d80ca32146108b257600080fd5b80634f9a8d8f146108395780635267e1d61461084f57600080fd5b806326476204116104b95780633b7d09461161046d5780634160d386116104525780634160d386146107cc5780634346845f146107ec5780634e9b426d1461080c57600080fd5b80633b7d0946146107995780633f3afe01146107b957600080fd5b80633219d6001161049e5780633219d6001461072e578063371542631461076e578063379b046a1461078357600080fd5b806326476204146106fb5780632bafde8d1461070e57600080fd5b80631555371c1161051057806320c07cd8116104f557806320c07cd8146106b057806322e3d986146106c6578063251441a9146106db57600080fd5b80631555371c1461061f5780631fb31e431461063457600080fd5b8063028b8bdb146105645780630ac6e2911461058d5780630b770cdf146105af5780631345b8a5146105e757600080fd5b3661055f57604051631574f9f360e01b815260040160405180910390fd5b600080fd5b34801561057057600080fd5b5061057a60145481565b6040519081526020015b60405180910390f35b34801561059957600080fd5b506105ad6105a836600461531c565b610fdd565b005b3480156105bb57600080fd5b506024546105cf906001600160a01b031681565b6040516001600160a01b039091168152602001610584565b3480156105f357600080fd5b5061057a6106023660046153cc565b602160209081526000928352604080842090915290825290205481565b34801561062b57600080fd5b506105ad611574565b34801561064057600080fd5b5061067e61064f3660046153fc565b6001600160a01b03166000908152601e6020526040902060010154608081901b91600160801b90910460f01b90565b604080516fffffffffffffffffffffffffffffffff1990931683526001600160f01b0319909116602083015201610584565b3480156106bc57600080fd5b5061057a6107d081565b3480156106d257600080fd5b5061057a6115e6565b3480156106e757600080fd5b506105ad6106f6366004615419565b61162d565b6105ad6107093660046153fc565b6116eb565b34801561071a57600080fd5b506105ad61072936600461545a565b61176e565b34801561073a57600080fd5b5061075e6107493660046153fc565b601f6020526000908152604090205460ff1681565b6040519015158152602001610584565b34801561077a57600080fd5b506105ad6117ef565b34801561078f57600080fd5b5061057a601a5481565b3480156107a557600080fd5b506105ad6107b43660046153fc565b611bea565b6105ad6107c7366004615473565b611c20565b3480156107d857600080fd5b506105ad6107e7366004615473565b611f56565b3480156107f857600080fd5b506105ad6108073660046154bc565b611ff5565b34801561081857600080fd5b5061082c6108273660046153fc565b6120fb565b604051610584919061556d565b34801561084557600080fd5b5061057a60165481565b34801561085b57600080fd5b5061057a61086a3660046153fc565b601b6020526000908152604090205481565b34801561088857600080fd5b5061057a601c5481565b34801561089e57600080fd5b5061057a6108ad3660046153cc565b6121a7565b3480156108be57600080fd5b5061057a600e5481565b3480156108d457600080fd5b5061057a600c5481565b3480156108ea57600080fd5b506105cf6108f93660046153fc565b6025602052600090815260409020546001600160a01b031681565b34801561092057600080fd5b506109296121d1565b6040516105849190615580565b34801561094257600080fd5b5061057a6109513660046155cd565b6121e2565b34801561096257600080fd5b5061057a60195481565b34801561097857600080fd5b506105ad612362565b34801561098d57600080fd5b5061057a61099c3660046153cc565b60208080526000928352604080842090915290825290205481565b3480156109c357600080fd5b506109296109d23660046153fc565b612376565b3480156109e357600080fd5b5061057a6109f23660046155cd565b6001600160a01b039182166000908152600b602090815260408083209390941682529182528281206015548252909152205490565b348015610a3357600080fd5b5061057a60155481565b348015610a4957600080fd5b506105ad610a58366004615634565b61239a565b348015610a6957600080fd5b506105ad610a783660046153fc565b612417565b348015610a8957600080fd5b506105ad610a98366004615679565b61247e565b348015610aa957600080fd5b506105ad610ab836600461545a565b612500565b348015610ac957600080fd5b5061057a610ad83660046153fc565b60266020526000908152604090205481565b348015610af657600080fd5b506105ad610b053660046156d6565b612533565b348015610b1657600080fd5b507f9016d09d72d40fdae2fd8ceac6b6234c7706214fd39c1cd1e609a0528c199300546001600160a01b03166105cf565b6105ad610b5536600461573b565b612596565b348015610b6657600080fd5b5061057a610b753660046155cd565b6126df565b348015610b8657600080fd5b50610b8f612827565b6040516105849291906157f9565b348015610ba957600080fd5b50610bbd610bb83660046153fc565b61288a565b6040516105849392919061581b565b348015610bd857600080fd5b5061057a60185481565b348015610bee57600080fd5b5061057a61271081565b348015610c0457600080fd5b506105ad610c1336600461545a565b61293e565b348015610c2457600080fd5b50610929610c333660046153fc565b612989565b348015610c4457600080fd5b5061057a610c533660046155cd565b601160209081526000928352604080842090915290825290205481565b348015610c7c57600080fd5b506109296129ad565b348015610c9157600080fd5b5061057a610ca03660046155cd565b601360209081526000928352604080842090915290825290205481565b348015610cc957600080fd5b5061075e610cd83660046153fc565b612a0f565b348015610ce957600080fd5b506105ad612a1b565b348015610cfe57600080fd5b5061057a60175481565b348015610d1457600080fd5b506105ad610d23366004615473565b612a60565b348015610d3457600080fd5b50610d48610d43366004615878565b612dc7565b6040516105849190615929565b348015610d6157600080fd5b5061075e610d70366004615957565b612e77565b348015610d8157600080fd5b50610d48610d90366004615679565b613052565b348015610da157600080fd5b5061057a6130f7565b348015610db657600080fd5b506105ad610dc5366004615473565b613116565b348015610dd657600080fd5b506105ad610de53660046153fc565b6131c0565b348015610df657600080fd5b506105ad610e053660046153cc565b613393565b348015610e1657600080fd5b506109296134d2565b348015610e2b57600080fd5b5061057a600d5481565b348015610e4157600080fd5b5061057a610e503660046153fc565b60106020526000908152604090205481565b348015610e6e57600080fd5b506109296134de565b348015610e8357600080fd5b50601d546105cf906001600160a01b031681565b348015610ea357600080fd5b5061057a610eb23660046155cd565b600f60209081526000928352604080842090915290825290205481565b348015610edb57600080fd5b506105ad6134ea565b348015610ef057600080fd5b506105ad61362a565b348015610f0557600080fd5b5061057a610bb881565b348015610f1b57600080fd5b506105ad610f2a3660046153fc565b613670565b348015610f3b57600080fd5b506105ad610f4a366004615473565b6136ab565b348015610f5b57600080fd5b50600161075e565b348015610f6f57600080fd5b5061075e610f7e3660046153fc565b613764565b348015610f8f57600080fd5b5061057a610f9e3660046153fc565b60276020526000908152604090205481565b348015610fbc57600080fd5b5061057a610fcb3660046153fc565b60126020526000908152604090205481565b7ff0c57e16840df040f15088dc2f81fe391c3923bec73e23a9662efc9c229c6a00805468010000000000000000810460ff16159067ffffffffffffffff166000811580156110285750825b905060008267ffffffffffffffff1660011480156110455750303b155b905081158015611053575080155b156110715760405163f92ee8a960e01b815260040160405180910390fd5b845467ffffffffffffffff1916600117855583156110a557845468ff00000000000000001916680100000000000000001785555b6001600160a01b038b166110cc5760405163d92e233d60e01b815260040160405180910390fd5b6110d58a613781565b876110e360408c018c615973565b6110ef915060026159d3565b1461110c5760405162d6988760e81b815260040160405180910390fd5b8561111a60408c018c615973565b90501461113a576040516320041afd60e01b815260040160405180910390fd5b6111438b6138e4565b61114b6138f5565b61115860208b018b6153fc565b601d80546001600160a01b0319166001600160a01b039290921691909117905561118860408b0160208c016153fc565b602480546001600160a01b0319166001600160a01b03929092169190911790553660006111b860408d018d615973565b9150915060005b818110156113db5760008383838181106111db576111db6159ea565b90506020020160208101906111f091906153fc565b6001600160a01b0316036112175760405163d92e233d60e01b815260040160405180910390fd5b61124883838381811061122c5761122c6159ea565b905060200201602081019061124191906153fc565b6000613905565b61127783838381811061125d5761125d6159ea565b905060200201602081019061127291906153fc565b613965565b8b8b6112848360026159d3565b818110611293576112936159ea565b905060200201358c8c8360026112a991906159d3565b6112b4906001615a00565b8181106112c3576112c36159ea565b905060200201356040516020016112e4929190918252602082015260400190565b604051602081830303815290604052601e6000858585818110611309576113096159ea565b905060200201602081019061131e91906153fc565b6001600160a01b031681526020810191909152604001600020906113429082615a9d565b50898982818110611355576113556159ea565b905060200201602081019061136a9190615b5d565b601e6000858585818110611380576113806159ea565b905060200201602081019061139591906153fc565b6001600160a01b031681526020810191909152604001600020600190810180546fffffffffffffffffffffffffffffffff191660809390931c92909217909155016111bf565b5060408051600580825260c082019092526000916020820160a0803683370190505090506802b5e3af16b18800008160008151811061141c5761141c6159ea565b60200260200101818152505068056bc75e2d6310000081600181518110611445576114456159ea565b602002602001018181525050680821ab0d44149800008160028151811061146e5761146e6159ea565b602002602001018181525050680ad78ebc5ac620000081600381518110611497576114976159ea565b602002602001018181525050680d8d726b7177a80000816004815181106114c0576114c06159ea565b60209081029190910101526114e4632bafde8d60e01b636d3d4db560e11b8361397a565b50505060608a0135600d5560808a0135600c5560a08a0135600e5560c08a01356016556101008a01356014554260185560e08a0135601755831561156757845468ff000000000000000019168555604051600181527fc7f505b2f371ae2175ee4913f4499e1f2633a7b5936321eed1cdaeb6115181d29060200160405180910390a15b5050505050505050505050565b601d546001600160a01b0316331461159e576040516282b42960e81b815260040160405180910390fd5b60006115aa6004613a2f565b905060005b81518110156115e2576115da8282815181106115cd576115cd6159ea565b6020026020010151613a43565b6001016115af565b5050565b60185460165460009190156115fc5760016115ff565b60005b60ff16601a54601654836116139190615a00565b61161d9190615a00565b6116279190615b78565b91505090565b3a60000361164e57604051630e661aed60e41b815260040160405180910390fd5b816001600160a01b0316836001600160a01b03160361168057604051630a5eddd560e01b815260040160405180910390fd5b3361168c848284613a89565b611697838284613d37565b601554604080516001600160a01b0387811682526020820186905280851692908716917f4480d8e4b1e9095b94bf513961d26fe1d32386ebdd103d18fe8738cf4b2223ff910160405180910390a450505050565b3a60000361170c57604051630e661aed60e41b815260040160405180910390fd5b3334611719838383613d37565b601554826001600160a01b0316846001600160a01b03167f2273de02cb1f69ba6259d22c4bc22c60e4c94c193265ef6afee324a04a9b6d228460405161176191815260200190565b60405180910390a4505050565b611776614088565b8061178d6000356001600160e01b03191682612e77565b6117b2576040516373330d9b60e01b8152600481018290526024015b60405180910390fd5b600d8290556040518281527ffee02ce7aa40f9c49eaabd26d404fa88714b97cb209af8954cfd5eeb8213b93e906020015b60405180910390a15050565b3a60000361181057604051630e661aed60e41b815260040160405180910390fd5b60008061181d6002613a2f565b9050805160000361184157604051631c369b4560e21b815260040160405180910390fd5b60005b8151811015611a29576000828281518110611861576118616159ea565b60200260200101519050611874816140e3565b806118ea5750601d54604051639d6fc1d160e01b81526001600160a01b03838116600483015290911690639d6fc1d190602401602060405180830381865afa1580156118c4573d6000803e3d6000fd5b505050506040513d601f19601f820116820180604052508101906118e89190615b8b565b155b156118f55750611a21565b611900600282614121565b506001600160a01b0381166000908152601f60209081526040808320805460ff19166001179055601b9091528120805490829055601c805491928392611947908490615b78565b909155506000905061195883612989565b905060005b81518110156119c357600082828151811061197a5761197a6159ea565b6020908102919091018101516001600160a01b03808816600090815260138452604080822092841682529190935282209190915590506119ba8582614136565b5060010161195d565b506119ce8287615a00565b9550826001600160a01b0316336001600160a01b03167f8e6a4ccd7dccdca9ac211d00fcc3fa7c71be75ff73d3a35f63ea023173cc100484604051611a1591815260200190565b60405180910390a35050505b600101611844565b5081600003611a4b57604051631c369b4560e21b815260040160405180910390fd5b6000611a58600284615bad565b90506000611a668285615b78565b90506000601d60009054906101000a90046001600160a01b03166001600160a01b03166356b54bae6040518163ffffffff1660e01b8152600401602060405180830381865afa158015611abd573d6000803e3d6000fd5b505050506040513d601f19601f82011682018060405250810190611ae19190615bcf565b90506000816001600160a01b031663732524946040518163ffffffff1660e01b8152600401602060405180830381865afa158015611b23573d6000803e3d6000fd5b505050506040513d601f19601f82011682018060405250810190611b479190615bcf565b9050816001600160a01b031663af182535846040518263ffffffff1660e01b81526004016000604051808303818588803b158015611b8457600080fd5b505af1158015611b98573d6000803e3d6000fd5b5050505050611ba78185614198565b604080518481526020810186905233917f1c113e6bae9530fea40323e612aeb0cb7817dedb5a0b0f6bdfbff97d55920dc7910160405180910390a2505050505050565b601d546001600160a01b03163314611c14576040516282b42960e81b815260040160405180910390fd5b611c1d81613a43565b50565b601d60009054906101000a90046001600160a01b03166001600160a01b03166356b54bae6040518163ffffffff1660e01b8152600401602060405180830381865afa158015611c73573d6000803e3d6000fd5b505050506040513d601f19601f82011682018060405250810190611c979190615bcf565b6001600160a01b0316336001600160a01b031614611cc7576040516282b42960e81b815260040160405180910390fd5b34156115e2576015546000908152602080805260408083206001600160a01b03861684529091528120543491611cfe85848661423f565b90506000611d0b86612989565b905060005b8151811015611e5a57600084611d426015548a868681518110611d3557611d356159ea565b602002602001015161435e565b8560400151611d5191906159d3565b611d5b9190615bad565b905080601360008a6001600160a01b03166001600160a01b031681526020019081526020016000206000858581518110611d9757611d976159ea565b60200260200101516001600160a01b03166001600160a01b031681526020019081526020016000206000828254611dce9190615a00565b90915550506001600160a01b0388166000908152600b602052604081208451839290869086908110611e0257611e026159ea565b60200260200101516001600160a01b03166001600160a01b03168152602001908152602001600020600060155481526020019081526020016000206000828254611e4c9190615a00565b909155505050600101611d10565b50602082015115611e7357611e738683602001516143ff565b81516001600160a01b038716600090815260136020908152604080832090915281208054909190611ea5908490615a00565b90915550506001600160a01b0386166000908152601b602052604081208054869290611ed2908490615a00565b9250508190555083601c6000828254611eeb9190615a00565b90915550611efa9050866144c6565b60155482516001600160a01b038816907f72093068b9f28053bd924ac15d7710b987f9b6ef1e0f89f47d8b4bd7cac776dc90611f368189615b78565b6040805192835260208301919091520160405180910390a3505050505050565b601d546040516253517560e01b81523360048201526000916001600160a01b0316906253517590602401602060405180830381865afa158015611f9d573d6000803e3d6000fd5b505050506040513d601f19601f82011682018060405250810190611fc19190615bcf565b6001600160a01b031603611fea57604051632670461960e11b81523360048201526024016117a9565b6115e23383836145b2565b611ffd614088565b60006120076146ea565b90506040518060400160405280857bffffffffffffffffffffffffffffffffffffffffffffffffffffffff1916815260200184848080602002602001604051908101604052809392919081815260200183836020028082843760009201829052509390945250506001600160e01b031988168152602084815260409091208351815463ffffffff191660e09190911c1781558382015180519193506120b3926001850192910190615241565b509050507f3665bf9cd0ba4ddceeec259e21dcf8a4510f3b1130bd42e950828e69d85408ba858585856040516120ec9493929190615bec565b60405180910390a15050505050565b6001600160a01b0381166000908152601e6020526040902080546060919061212290615a13565b80601f016020809104026020016040519081016040528092919081815260200182805461214e90615a13565b801561219b5780601f106121705761010080835404028352916020019161219b565b820191906000526020600020905b81548152906001019060200180831161217e57829003601f168201915b50505050509050919050565b60008281526021602090815260408083206001600160a01b03851684529091529020545b92915050565b60606121dd6000613a2f565b905090565b601d546040516253517560e01b81526001600160a01b03848116600483015260009283929116906253517590602401602060405180830381865afa15801561222e573d6000803e3d6000fd5b505050506040513d601f19601f820116820180604052508101906122529190615bcf565b90506001600160a01b0384166000908152601f602052604090205460ff161561227f5760009150506121cb565b6001600160a01b03848116600090815260136020908152604080832087851684529091529081902054601d54915163a0d16cad60e01b815284841660048201529092919091169063a0d16cad90602401602060405180830381865afa1580156122ec573d6000803e3d6000fd5b505050506040513d601f19601f820116820180604052508101906123109190615b8b565b61231d5791506121cb9050565b6001600160a01b038581166000908152600b60209081526040808320938816835292815282822060155483529052205480821115612359578091505b50949350505050565b61236a614088565b612374600061474c565b565b6001600160a01b0381166000908152600a602052604090206060906121cb90613a2f565b601d546001600160a01b031633146123c4576040516282b42960e81b815260040160405180910390fd5b6001600160a01b039092166000908152601e60205260409020600101805460f09390931c600160801b0271ffffffffffffffffffffffffffffffffffff1990931660809290921c91909117919091179055565b601d546001600160a01b03163314612441576040516282b42960e81b815260040160405180910390fd5b600c546001600160a01b038216600090815260136020908152604080832090915290205410611c1d57612475816001613905565b611c1d816144c6565b612486614088565b60006124906146ea565b6001600160e01b031983166000908152602082905260408120805463ffffffff191681559192506124c4600183018261528c565b50506040516001600160e01b0319831681527fed27cb02231782dadf13473a7828cb980c4d685791b7a3136dde00f8c3594cb6906020016117e3565b601d546001600160a01b0316331461252a576040516282b42960e81b815260040160405180910390fd5b60185543601955565b336000908152601e6020526040902061254d848683615c59565b50336000908152601e60205260409020600101805460f09290921c600160801b0271ffffffffffffffffffffffffffffffffffff1990921660809390931c929092171790555050565b3a6000036125b757604051630e661aed60e41b815260040160405180910390fd5b601d54604051630526083960e11b81526001600160a01b0388811660048301523360248301819052923492911690630a4c107290604401600060405180830381600087803b15801561260857600080fd5b505af115801561261c573d6000803e3d6000fd5b505050506001600160a01b0382166000908152601e60205260409020612643858783615c59565b506001600160a01b0382166000908152601e6020526040902060010180546fffffffffffffffffffffffffffffffff1916608085901c1790556126878288886145b2565b612692828383613d37565b6015546040518281526001600160a01b0384169081907f2273de02cb1f69ba6259d22c4bc22c60e4c94c193265ef6afee324a04a9b6d229060200160405180910390a45050505050505050565b601d546040516253517560e01b81526001600160a01b03848116600483015260009283929116906253517590602401602060405180830381865afa15801561272b573d6000803e3d6000fd5b505050506040513d601f19601f8201168201806040525081019061274f9190615bcf565b9050601d5460405163a0d16cad60e01b81526001600160a01b0383811660048301529091169063a0d16cad90602401602060405180830381865afa15801561279b573d6000803e3d6000fd5b505050506040513d601f19601f820116820180604052508101906127bf9190615b8b565b6127cd5760009150506121cb565b6001600160a01b038481166000818152600b60209081526040808320948816808452948252808320601554845282528083205493835260138252808320948352939052919091205461281f9190615b78565b949350505050565b6060600060076008548180548060200260200160405190810160405280929190818152602001828054801561287b57602002820191906000526020600020905b815481526020019060010190808311612867575b50505050509150915091509091565b601e602052600090815260409020805481906128a590615a13565b80601f01602080910402602001604051908101604052809291908181526020018280546128d190615a13565b801561291e5780601f106128f35761010080835404028352916020019161291e565b820191906000526020600020905b81548152906001019060200180831161290157829003601f168201915b50505060019093015491925050608081901b90600160801b900460f01b83565b601d546001600160a01b03163314612968576040516282b42960e81b815260040160405180910390fd5b60175481601a546129799190615a00565b6129839190615a00565b601a5550565b6001600160a01b03811660009081526009602052604090206060906121cb90613a2f565b60606006805480602002602001604051908101604052809291908181526020018280548015612a0557602002820191906000526020600020905b81546001600160a01b031681526001909101906020018083116129e7575b5050505050905090565b60006121cb81836147bd565b601d546001600160a01b03163314612a45576040516282b42960e81b815260040160405180910390fd5b601754601a6000828254612a599190615a00565b9091555050565b3a600003612a8157604051630e661aed60e41b815260040160405180910390fd5b6001600160a01b038216612aa85760405163d92e233d60e01b815260040160405180910390fd5b80600003612ac957604051633ca0029d60e01b815260040160405180910390fd5b6001600160a01b0382166000818152600f602090815260408083203380855290835281842054858552601084528285205460138552838620838752855283862054968652601b9094529184205490949193861315612bd357856000612b2e89886126df565b905080821115612b5b57604051632de4882160e01b815260048101829052602481018390526044016117a9565b612b658287615a00565b9550612b718286615a00565b9450612b7d8285615b78565b9350612b898284615b78565b925081601c6000828254612b9d9190615b78565b90915550506015546001600160a01b03808b166000908152601160209081526040808320938c168352929052205550612c299050565b6000612bde87615d1a565b9050612bea8186615b78565b9450612bf68185615b78565b9350612c028184615a00565b9250612c0e8183615a00565b915080601c6000828254612c229190615a00565b9091555050505b6001600160a01b038088166000818152600f60209081526040808320948a1680845294825280832089905583835260108252808320889055601382528083208584528252808320879055838352601b90915290208390559003612cf8578115801590612c965750600c5482105b15612cce57604051636fe84f3d60e01b81526001600160a01b03808916600483015286166024820152604481018790526064016117a9565b6000861315612ced5781600003612ce857612ce887613965565b612d65565b612ce8876001613905565b8115801590612d085750600d5482105b15612d4057604051636fe84f3d60e01b81526001600160a01b03808916600483015286166024820152604481018790526064016117a9565b6000861315612d5b5781600003612ce857612ce88786614136565b612d6587866147df565b612d6e876144c6565b601554856001600160a01b0316886001600160a01b03167f80d5c777e5f7ac6ee89723223803ca5c0ec0204f89e99c1b0cde973c66a6459489604051612db691815260200190565b60405180910390a450505050505050565b604080518082019091526000815260606020820152612de46146ea565b82516020808501919091206001600160e01b0319908116600090815292825260409283902083518085018552815460e01b9092168252600181018054855181860281018601909652808652929491938581019390830182828015612e6757602002820191906000526020600020905b815481526020019060010190808311612e53575b5050505050815250509050919050565b600080612e826146ea565b6001600160e01b031980861660009081526020838152604080832081518083018352815460e01b90951685526001810180548351818602810186019094528084529697509395909385840193909190830182828015612f0057602002820191906000526020600020905b815481526020019060010190808311612eec575b5050505050815250509050806020015151600003612f23576000925050506121cb565b60208101518151600090612f369061480c565b905060005b82518110156130445781838281518110612f5757612f576159ea565b60200260200101510361303c576000808211612f8d5783600081518110612f8057612f806159ea565b6020026020010151612fb2565b83612f99600184615b78565b81518110612fa957612fa96159ea565b60200260200101515b9050600060018551612fc49190615b78565b8310612ff6578460018651612fd99190615b78565b81518110612fe957612fe96159ea565b602002602001015161301b565b84613002846001615a00565b81518110613012576130126159ea565b60200260200101515b905081891415801561302d5750808914155b159750505050505050506121cb565b600101612f3b565b506000979650505050505050565b60408051808201909152600081526060602082015261306f6146ea565b6001600160e01b03198084166000908152602092835260409081902081518083018352815460e01b9093168352600181018054835181870281018701909452808452939491938583019392830182828015612e675760200282019190600052602060002090815481526020019060010190808311612e53575050505050815250509050919050565b600060175460165460185461310c9190615a00565b6121dd9190615b78565b6024546001600160a01b03163314613140576040516282b42960e81b815260040160405180910390fd5b601d546040516307b9342f60e21b81526001600160a01b0384811660048301526000921690631ee4d0bc90602401602060405180830381865afa15801561318b573d6000803e3d6000fd5b505050506040513d601f19601f820116820180604052508101906131af9190615bcf565b90506131bb81836148e3565b505050565b3a6000036131e157604051630e661aed60e41b815260040160405180910390fd5b6131e961498d565b6001600160a01b0381166000908152601160209081526040808320338085529252909120546015541161324257604051630b06352b60e31b81526001600160a01b038084166004830152821660248201526044016117a9565b6001600160a01b038083166000908152600f602090815260408083209385168352929052908120549081900361328b57604051633ca0029d60e01b815260040160405180910390fd5b6001600160a01b038084166000818152600f602090815260408083209487168352938152838220829055918152601090915220546132ca908290615b78565b6001600160a01b038085166000908152601060209081526040808320949094556013815283822092861682529190915290812054900361330e5761330e83836149d7565b6133188282614198565b601554826001600160a01b0316846001600160a01b03167ff380b0bc887e00f5b50d3c9d4eaaf5c9a0afd97b956316b995159384c4ede9b38460405161336091815260200190565b60405180910390a45050611c1d60017f9b779b17422d0df92223018b32b4d1fa46e071723d6817e2486d003becc55f0055565b601d60009054906101000a90046001600160a01b03166001600160a01b03166356b54bae6040518163ffffffff1660e01b8152600401602060405180830381865afa1580156133e6573d6000803e3d6000fd5b505050506040513d601f19601f8201168201806040525081019061340a9190615bcf565b6001600160a01b0316336001600160a01b03161461343a576040516282b42960e81b815260040160405180910390fd5b6000828152602080805260408083206001600160a01b038516845290915281205490036115e2576001600160a01b0381166000908152601b60205260408120549081900361348757505050565b6000838152602080805260408083206001600160a01b038616808552908352818420949094556013825280832082528083205486845260218352818420948452939091529020555050565b60606121dd6004613a2f565b60606121dd6002613a2f565b3a60000361350b57604051630e661aed60e41b815260040160405180910390fd5b601d546040516253517560e01b81523360048201819052916000916001600160a01b03909116906253517590602401602060405180830381865afa158015613557573d6000803e3d6000fd5b505050506040513d601f19601f8201168201806040525081019061357b9190615bcf565b905060155460001480156135f85750601d5460405163facd743b60e01b81526001600160a01b0383811660048301529091169063facd743b90602401602060405180830381865afa1580156135d4573d6000803e3d6000fd5b505050506040513d601f19601f820116820180604052508101906135f89190615b8b565b15613621576040516303d71f2d60e51b81526001600160a01b03831660048201526024016117a9565b6115e282613a43565b601d546001600160a01b03163314613654576040516282b42960e81b815260040160405180910390fd5b6015805490600061366483615d36565b90915550506000601a55565b613678614088565b6001600160a01b0381166136a257604051631e4fbdf760e01b8152600060048201526024016117a9565b611c1d8161474c565b3a6000036136cc57604051630e661aed60e41b815260040160405180910390fd5b6136d461498d565b336136e0838284613a89565b6136ea8183614198565b601554816001600160a01b0316846001600160a01b03167fa7c0f0cac6bd4d18042007706c84a8abe823751cf289b69c01e83eef7b5915c78560405161373291815260200190565b60405180910390a4506115e260017f9b779b17422d0df92223018b32b4d1fa46e071723d6817e2486d003becc55f0055565b600061377081836147bd565b806121cb57506121cb6002836147bd565b60c0810135158061379b57508061010001358160c0013511155b156137b95760405163c671116b60e01b815260040160405180910390fd5b8061010001356000036137df576040516332154b4760e01b815260040160405180910390fd5b60e081013515806137f857508060c001358160e0013510155b1561381657604051630685efe960e01b815260040160405180910390fd5b600061382560208301836153fc565b6001600160a01b03160361384c5760405163d92e233d60e01b815260040160405180910390fd5b6138596040820182615973565b905060000361387b57604051635c9a24ed60e11b815260040160405180910390fd5b6060810135158061388e57506080810135155b156138bc5760405163633373e160e11b815260808201356004820152606082013560248201526044016117a9565b80608001358160a0013511611c1d57604051631c6d3b1560e01b815260040160405180910390fd5b6138ec614b2d565b611c1d81614b7b565b6138fd614b2d565b612374614b83565b61390e82612a0f565b61394a5761391d600083614b8b565b50610bb861392b6000614ba0565b111561394a5760405163398dcd9d60e21b815260040160405180910390fd5b613955600283614121565b5080156115e2576115e282614baa565b613970600482614b8b565b50611c1d81614c9f565b613982614b2d565b600061398c6146ea565b6040805180820182526001600160e01b0319868116825260208083018781529189166000908152858252939093208251815463ffffffff191660e09190911c17815590518051949550919390926139ea926001850192910190615241565b509050507f3665bf9cd0ba4ddceeec259e21dcf8a4510f3b1130bd42e950828e69d85408ba848484604051613a2193929190615d4f565b60405180910390a150505050565b60606000613a3c83614ebc565b9392505050565b613a4e600082614121565b50613a58816140e3565b15613a6e57613a68600282614121565b50613a77565b613a7781614f17565b613a8081614c9f565b611c1d81614f22565b6001600160a01b038316613ab05760405163d92e233d60e01b815260040160405180910390fd5b80600003613ad157604051633ca0029d60e01b815260040160405180910390fd5b6000613add84846121e2565b905080821115613b0a57604051632de4882160e01b815260048101829052602481018390526044016117a9565b6001600160a01b038085166000908152601360209081526040808320938716835292905290812054613b3d908490615b78565b90506000846001600160a01b0316866001600160a01b031614613b6257600d54613b66565b600c545b90508115801590613b7657508082105b15613bae57604051639e612d5760e01b81526001600160a01b03808816600483015286166024820152604481018590526064016117a9565b856001600160a01b0316856001600160a01b031614613c4357601d546040516253517560e01b81526001600160a01b03888116600483015260009216906253517590602401602060405180830381865afa158015613c10573d6000803e3d6000fd5b505050506040513d601f19601f82011682018060405250810190613c349190615bcf565b9050613c41878288614f2d565b505b6001600160a01b038681166000818152601360209081526040808320948a16808452948252808320879055928252600b8152828220938252928352818120601554825290925290205484811015613c9b576000613ca5565b613ca58582615b78565b6001600160a01b038089166000818152600b60209081526040808320948c1683529381528382206015548352815283822094909455908152601b90925281208054879290613cf4908490615b78565b9250508190555084601c6000828254613d0d9190615b78565b90915550506000839003613d2557613d2587876149d7565b613d2e876144c6565b50505050505050565b6001600160a01b038316613d5e5760405163d92e233d60e01b815260040160405180910390fd5b601d546040516253517560e01b81526001600160a01b03858116600483015260009216906253517590602401602060405180830381865afa158015613da7573d6000803e3d6000fd5b505050506040513d601f19601f82011682018060405250810190613dcb9190615bcf565b90506001600160a01b038116613dff57604051632670461960e11b81526001600160a01b03851660048201526024016117a9565b81600003613e335760405163e59f5c3960e01b81526001600160a01b038086166004830152841660248201526044016117a9565b6001600160a01b0384166000908152601f602052604090205460ff1615613e785760405163078137eb60e41b81526001600160a01b03851660048201526024016117a9565b6001600160a01b038085166000818152601360209081526040808320948816808452949091528120549290911491613eb1908590615a00565b905060008215613ec45750600c54613f13565b50600d546001600160a01b03871660009081526013602090815260408083209091528120549003613f135760405163cbbeb0bd60e01b81526001600160a01b03881660048201526024016117a9565b80821015613f475760405163e59f5c3960e01b81526001600160a01b038089166004830152871660248201526044016117a9565b600e546001600160a01b0388166000908152601b6020526040902054613f6e908790615a00565b1115613fa057604051632c2b174160e21b81526001600160a01b038089166004830152871660248201526044016117a9565b6001600160a01b038088166000908152600b60209081526040808320938a168352928152828220601554835290529081208054879290613fe1908490615a00565b90915550506001600160a01b0387166000908152601b60205260408120805487929061400e908490615a00565b9250508190555084601c60008282546140279190615a00565b909155505082156140425761403d876001613905565b614057565b61404c87876147df565b614057878588614f2d565b6001600160a01b038088166000908152601360209081526040808320938a16835292905220829055613d2e876144c6565b336140ba7f9016d09d72d40fdae2fd8ceac6b6234c7706214fd39c1cd1e609a0528c199300546001600160a01b031690565b6001600160a01b0316146123745760405163118cdaa760e01b81523360048201526024016117a9565b6001600160a01b0381166000908152601b60205260408120541580156121cb5750506001600160a01b03166000908152601060205260409020541590565b6000613a3c836001600160a01b038416615049565b6001600160a01b03821660009081526009602052604090206141589082614121565b506001600160a01b038083166000908152600f60209081526040808320938516835292905220541561418e576115e2828261513c565b6115e2828261515e565b804710156141b957604051631e9acf1760e31b815260040160405180910390fd5b6000826001600160a01b03168260405160006040518083038185875af1925050503d8060008114614206576040519150601f19603f3d011682016040523d82523d6000602084013e61420b565b606091505b50509050806131bb57604051630e21dcbb60e11b81526001600160a01b0384166004820152602481018390526044016117a9565b61426360405180606001604052806000815260200160008152602001600081525090565b6015546000818152602080805260408083206001600160a01b03891680855290835281842054948452602183528184209084529091528120549060646142a986886159d3565b6142b39190615bad565b90506142bf8187615b78565b6040808601919091526001600160a01b038089166000908152602660209081528382205460259091529290205416158015906142fa57508015155b1561431c5761271061430c82896159d3565b6143169190615bad565b60208601525b8383866040015161432d91906159d3565b6143379190615bad565b60208601516143469084615b78565b6143509190615a00565b855250929695505050505050565b60008360000361437057506000613a3c565b6001600160a01b038084166000908152602360209081526040808320938616835292905220548490036143d157506001600160a01b038083166000908152602260209081526040808320938516835292815282822086835290522054613a3c565b506001600160a01b038083166000908152601360209081526040808320938516835292905220549392505050565b6001600160a01b03808316600090815260256020908152604080832054600990925290912091169061443190826147bd565b61443f5761443f83826147df565b6001600160a01b03808416600090815260136020908152604080832093851683529290529081208054849290614476908490615a00565b90915550506001600160a01b038084166000908152600b6020908152604080832093851683529281528282206015548352905290812080548492906144bc908490615a00565b9091555050505050565b601d546040516253517560e01b81526001600160a01b03838116600483015260009216906253517590602401602060405180830381865afa15801561450f573d6000803e3d6000fd5b505050506040513d601f19601f820116820180604052508101906145339190615bcf565b60248054604051633941e77760e21b81526001600160a01b0380851660048301529394506000939091169163e5079ddc9101602060405180830381865afa158015614582573d6000803e3d6000fd5b505050506040513d601f19601f820116820180604052508101906145a69190615d7c565b90506131bb83826148e3565b6107d08111156145d85760405163e429b69160e01b8152600481018290526024016117a9565b6001600160a01b0382161580156145ee57508015155b1561461e5760405163073c315960e11b81526001600160a01b0383166004820152602481018290526044016117a9565b6001600160a01b0383166000908152602760205260409020548015801590614647575060155481145b1561466b5760155460405163e7cbc70160e01b81526004016117a991815260200190565b6001600160a01b03848116600081815260256020908152604080832080546001600160a01b03191695891695861790556026825280832087905560155460278352928190209290925590518581527fd6ae57aa2cc060d4094c47d20c672afe0e53963e6459c15cab215abb8c88b863910160405180910390a350505050565b60008060ff1961471b60017fdace3fd3d1fbdfd33853f19ba191d28c617e373ec58fc73cf7b58db5aff2c2ab615b78565b60405160200161472d91815260200190565b60408051601f1981840301815291905280516020909101201692915050565b7f9016d09d72d40fdae2fd8ceac6b6234c7706214fd39c1cd1e609a0528c19930080546001600160a01b031981166001600160a01b03848116918217845560405192169182907f8be0079c531659141344cd1fd0a4f28419497f9722a3daafe3b4186f6b6457e090600090a3505050565b6001600160a01b03811660009081526001830160205260408120541515613a3c565b6001600160a01b03821660009081526009602052604090206148019082614b8b565b506115e2828261515e565b60408051600481526024810182526020810180517bffffffffffffffffffffffffffffffffffffffffffffffffffffffff166001600160e01b03198516179052905160009190829081903090614863908590615d95565b600060405180830381855afa9150503d806000811461489e576040519150601f19603f3d011682016040523d82523d6000602084013e6148a3565b606091505b5091509150816148c657604051635fbab09b60e11b815260040160405180910390fd5b808060200190518101906148da9190615d7c565b95945050505050565b6000806148ef84615180565b91509150816148fe5750505050565b600060078281548110614913576149136159ea565b60009182526020808320909101546001600160a01b0388168352601b90915260408220549092506149459086906159d3565b9050806007848154811061495b5761495b6159ea565b906000526020600020018190555080826008546149789190615b78565b6149829190615a00565b600855505050505050565b7f9b779b17422d0df92223018b32b4d1fa46e071723d6817e2486d003becc55f008054600119016149d157604051633ee5aeb560e01b815260040160405180910390fd5b60029055565b816001600160a01b0316816001600160a01b031603614ae457601d546040516253517560e01b81526001600160a01b03848116600483015260009216906253517590602401602060405180830381865afa158015614a39573d6000803e3d6000fd5b505050506040513d601f19601f82011682018060405250810190614a5d9190615bcf565b601d5460405163facd743b60e01b81526001600160a01b03808416600483015292935091169063facd743b90602401602060405180830381865afa158015614aa9573d6000803e3d6000fd5b505050506040513d601f19601f82011682018060405250810190614acd9190615b8b565b15614adb576131bb83613965565b6131bb83613a43565b614aee8282614136565b614af7826140e3565b156115e2576131bb600283614121565b60017f9b779b17422d0df92223018b32b4d1fa46e071723d6817e2486d003becc55f0055565b7ff0c57e16840df040f15088dc2f81fe391c3923bec73e23a9662efc9c229c6a005468010000000000000000900460ff1661237457604051631afcd79f60e31b815260040160405180910390fd5b613678614b2d565b614b07614b2d565b6000613a3c836001600160a01b0384166151f2565b60006121cb825490565b6001600160a01b0381166000908152601260205260409020546006548082101580614c055750826001600160a01b031660068381548110614bed57614bed6159ea565b6000918252602090912001546001600160a01b031614155b15614c96576001600160a01b03831660008181526012602052604081208390556006805460018181019092557ff652222313e28459528d920b65115c16c04f3efc82aaedc97be59f3f377c0d3f0180546001600160a01b03191690931790925560078054928301815581527fa66cc928b5edb82af9bd49922954155ab7b0942694bea4ce44661d9a8736c688909101555b6131bb83614f22565b60075460065414614cad5750565b6001600160a01b03811660009081526012602052604090205460065481108015614d065750816001600160a01b031660068281548110614cef57614cef6159ea565b6000918252602090912001546001600160a01b0316145b156115e25760078181548110614d1e57614d1e6159ea565b906000526020600020015460085410614d6b5760078181548110614d4457614d446159ea565b906000526020600020015460086000828254614d609190615b78565b90915550614d719050565b60006008555b600654600090614d8390600190615b78565b9050600060068281548110614d9a57614d9a6159ea565b600091825260209091200154600680546001600160a01b039092169250829185908110614dc957614dc96159ea565b9060005260206000200160006101000a8154816001600160a01b0302191690836001600160a01b0316021790555060078281548110614e0a57614e0a6159ea565b906000526020600020015460078481548110614e2857614e286159ea565b60009182526020808320909101929092556001600160a01b038084168252601290925260408082208690559186168152908120556006805480614e6d57614e6d615db1565b600082815260209020810160001990810180546001600160a01b03191690550190556007805480614ea057614ea0615db1565b6001900381819060005260206000200160009055905550505050565b60608160000180548060200260200160405190810160405280929190818152602001828054801561219b57602002820191906000526020600020905b815481526020019060010190808311614ef85750505050509050919050565b6115e2600282614b8b565b6115e2600482614121565b601d5460405163a0d16cad60e01b81526001600160a01b0384811660048301529091169063a0d16cad90602401602060405180830381865afa158015614f77573d6000803e3d6000fd5b505050506040513d601f19601f82011682018060405250810190614f9b9190615b8b565b1580614fa75750601554155b15614fb157505050565b6001600160a01b03808416600090815260236020908152604080832093851683529290522054601554811015615043576001600160a01b0380851660008181526013602090815260408083209487168084529482528083205484845260228352818420868552835281842060158054865290845282852091909155549383526023825280832094835293905291909120555b50505050565b6000818152600183016020526040812054801561513257600061506d600183615b78565b855490915060009061508190600190615b78565b90508082146150e65760008660000182815481106150a1576150a16159ea565b90600052602060002001549050808760000184815481106150c4576150c46159ea565b6000918252602080832090910192909255918252600188019052604090208390555b85548690806150f7576150f7615db1565b6001900381819060005260206000200160009055905585600101600086815260200190815260200160002060009055600193505050506121cb565b60009150506121cb565b6001600160a01b0382166000908152600a602052604090206131bb9082614b8b565b6001600160a01b0382166000908152600a602052604090206131bb9082614121565b6001600160a01b038116600090815260126020526040812054600654811080156151d95750826001600160a01b0316600682815481106151c2576151c26159ea565b6000918252602090912001546001600160a01b0316145b156151e75760019150915091565b506000928392509050565b6000818152600183016020526040812054615239575081546001818101845560008481526020808220909301849055845484825282860190935260409020919091556121cb565b5060006121cb565b82805482825590600052602060002090810192821561527c579160200282015b8281111561527c578251825591602001919060010190615261565b506152889291506152a6565b5090565b5080546000825590600052602060002090810190611c1d91905b5b8082111561528857600081556001016152a7565b6001600160a01b0381168114611c1d57600080fd5b60008083601f8401126152e257600080fd5b50813567ffffffffffffffff8111156152fa57600080fd5b6020830191508360208260051b850101111561531557600080fd5b9250929050565b6000806000806000806080878903121561533557600080fd5b8635615340816152bb565b9550602087013567ffffffffffffffff8082111561535d57600080fd5b90880190610120828b03121561537257600080fd5b9095506040880135908082111561538857600080fd5b6153948a838b016152d0565b909650945060608901359150808211156153ad57600080fd5b506153ba89828a016152d0565b979a9699509497509295939492505050565b600080604083850312156153df57600080fd5b8235915060208301356153f1816152bb565b809150509250929050565b60006020828403121561540e57600080fd5b8135613a3c816152bb565b60008060006060848603121561542e57600080fd5b8335615439816152bb565b92506020840135615449816152bb565b929592945050506040919091013590565b60006020828403121561546c57600080fd5b5035919050565b6000806040838503121561548657600080fd5b8235615491816152bb565b946020939093013593505050565b80356001600160e01b0319811681146154b757600080fd5b919050565b600080600080606085870312156154d257600080fd5b6154db8561549f565b93506154e96020860161549f565b9250604085013567ffffffffffffffff81111561550557600080fd5b615511878288016152d0565b95989497509550505050565b60005b83811015615538578181015183820152602001615520565b50506000910152565b6000815180845261555981602086016020860161551d565b601f01601f19169290920160200192915050565b602081526000613a3c6020830184615541565b6020808252825182820181905260009190848201906040850190845b818110156155c15783516001600160a01b03168352928401929184019160010161559c565b50909695505050505050565b600080604083850312156155e057600080fd5b82356155eb816152bb565b915060208301356153f1816152bb565b80356fffffffffffffffffffffffffffffffff19811681146154b757600080fd5b80356001600160f01b0319811681146154b757600080fd5b60008060006060848603121561564957600080fd5b8335615654816152bb565b9250615662602085016155fb565b91506156706040850161561c565b90509250925092565b60006020828403121561568b57600080fd5b613a3c8261549f565b60008083601f8401126156a657600080fd5b50813567ffffffffffffffff8111156156be57600080fd5b60208301915083602082850101111561531557600080fd5b600080600080606085870312156156ec57600080fd5b843567ffffffffffffffff81111561570357600080fd5b61570f87828801615694565b90955093506157229050602086016155fb565b91506157306040860161561c565b905092959194509250565b60008060008060008060a0878903121561575457600080fd5b863561575f816152bb565b9550602087013561576f816152bb565b945060408701359350606087013567ffffffffffffffff81111561579257600080fd5b61579e89828a01615694565b90945092506157b19050608088016155fb565b90509295509295509295565b60008151808452602080850194506020840160005b838110156157ee578151875295820195908201906001016157d2565b509495945050505050565b60408152600061580c60408301856157bd565b90508260208301529392505050565b60608152600061582e6060830186615541565b6fffffffffffffffffffffffffffffffff19949094166020830152506001600160f01b031991909116604090910152919050565b634e487b7160e01b600052604160045260246000fd5b60006020828403121561588a57600080fd5b813567ffffffffffffffff808211156158a257600080fd5b818401915084601f8301126158b657600080fd5b8135818111156158c8576158c8615862565b604051601f8201601f19908116603f011681019083821181831017156158f0576158f0615862565b8160405282815287602084870101111561590957600080fd5b826020860160208301376000928101602001929092525095945050505050565b602080825282516001600160e01b0319168282015282015160408083015260009061281f60608401826157bd565b6000806040838503121561596a57600080fd5b6154918361549f565b6000808335601e1984360301811261598a57600080fd5b83018035915067ffffffffffffffff8211156159a557600080fd5b6020019150600581901b360382131561531557600080fd5b634e487b7160e01b600052601160045260246000fd5b80820281158282048414176121cb576121cb6159bd565b634e487b7160e01b600052603260045260246000fd5b808201808211156121cb576121cb6159bd565b600181811c90821680615a2757607f821691505b602082108103615a4757634e487b7160e01b600052602260045260246000fd5b50919050565b601f8211156131bb576000816000526020600020601f850160051c81016020861015615a765750805b601f850160051c820191505b81811015615a9557828155600101615a82565b505050505050565b815167ffffffffffffffff811115615ab757615ab7615862565b615acb81615ac58454615a13565b84615a4d565b602080601f831160018114615b005760008415615ae85750858301515b600019600386901b1c1916600185901b178555615a95565b600085815260208120601f198616915b82811015615b2f57888601518255948401946001909101908401615b10565b5085821015615b4d5787850151600019600388901b60f8161c191681555b5050505050600190811b01905550565b600060208284031215615b6f57600080fd5b613a3c826155fb565b818103818111156121cb576121cb6159bd565b600060208284031215615b9d57600080fd5b81518015158114613a3c57600080fd5b600082615bca57634e487b7160e01b600052601260045260246000fd5b500490565b600060208284031215615be157600080fd5b8151613a3c816152bb565b6001600160e01b0319858116825284166020820152606060408201819052810182905260007f07ffffffffffffffffffffffffffffffffffffffffffffffffffffffffffffff831115615c3e57600080fd5b8260051b808560808501379190910160800195945050505050565b67ffffffffffffffff831115615c7157615c71615862565b615c8583615c7f8354615a13565b83615a4d565b6000601f841160018114615cb95760008515615ca15750838201355b600019600387901b1c1916600186901b178355615d13565b600083815260209020601f19861690835b82811015615cea5786850135825560209485019460019092019101615cca565b5086821015615d075760001960f88860031b161c19848701351681555b505060018560011b0183555b5050505050565b6000600160ff1b8201615d2f57615d2f6159bd565b5060000390565b600060018201615d4857615d486159bd565b5060010190565b6001600160e01b03198481168252831660208201526060604082018190526000906148da908301846157bd565b600060208284031215615d8e57600080fd5b5051919050565b60008251615da781846020870161551d565b9190910192915050565b634e487b7160e01b600052603160045260246000fdfea26469706673582212201896f38a8b2275bfce0b20fc69a95c66e949efc00cf01c09be675d546a79c45964736f6c63430008190033",
  "linkReferences": {},
  "deployedLinkReferences": {}
}