{
  "_format": "hh-sol-artifact-1",
  "contractName": "StakingHbbft",
  "sourceName": "contracts/StakingHbbft.sol",
  "abi": [
    {
      "inputs": [],
      "stateMutability": "nonpayable",
      "type": "constructor"
    },
    {
      "inputs": [
        {
          "internalType": "address",
          "name": "pool",
          "type": "address"
        },
        {
          "internalType": "address",
          "name": "staker",
          "type": "address"
        }
      ],
      "name": "CannotClaimWithdrawOrderYet",
      "type": "error"
    },
    {
      "inputs": [],
      "name": "GetterCallFailed",
      "type": "error"
    },
    {
      "inputs": [],
      "name": "InitialStakingPoolsListEmpty",
      "type": "error"
    },
    {
      "inputs": [],
      "name": "InsufficientBalance",
      "type": "error"
    },
    {
      "inputs": [
        {
          "internalType": "address",
          "name": "pool",
          "type": "address"
        },
        {
          "internalType": "address",
          "name": "delegator",
          "type": "address"
        }
      ],
      "name": "InsufficientStakeAmount",
      "type": "error"
    },
    {
      "inputs": [],
      "name": "InvalidFixedEpochDuration",
      "type": "error"
    },
    {
      "inputs": [
        {
          "internalType": "uint256",
          "name": "candidateStake",
          "type": "uint256"
        },
        {
          "internalType": "uint256",
          "name": "delegatorStake",
          "type": "uint256"
        }
      ],
      "name": "InvalidInitialStakeAmount",
      "type": "error"
    },
    {
      "inputs": [],
      "name": "InvalidInitialization",
      "type": "error"
    },
    {
      "inputs": [],
      "name": "InvalidIpAddressesCount",
      "type": "error"
    },
    {
      "inputs": [],
      "name": "InvalidMaxStakeAmount",
      "type": "error"
    },
    {
      "inputs": [],
      "name": "InvalidMoveStakePoolsAddress",
      "type": "error"
    },
    {
      "inputs": [
        {
          "internalType": "address",
          "name": "pool",
          "type": "address"
        },
        {
          "internalType": "address",
          "name": "delegator",
          "type": "address"
        },
        {
          "internalType": "int256",
          "name": "amount",
          "type": "int256"
        }
      ],
      "name": "InvalidOrderWithdrawAmount",
      "type": "error"
    },
    {
      "inputs": [],
      "name": "InvalidPublicKeysCount",
      "type": "error"
    },
    {
      "inputs": [],
      "name": "InvalidStakingFixedEpochDuration",
      "type": "error"
    },
    {
      "inputs": [],
      "name": "InvalidStakingTransitionTimeframe",
      "type": "error"
    },
    {
      "inputs": [],
      "name": "InvalidTransitionTimeFrame",
      "type": "error"
    },
    {
      "inputs": [
        {
          "internalType": "address",
          "name": "pool",
          "type": "address"
        },
        {
          "internalType": "address",
          "name": "delegator",
          "type": "address"
        },
        {
          "internalType": "uint256",
          "name": "amount",
          "type": "uint256"
        }
      ],
      "name": "InvalidWithdrawAmount",
      "type": "error"
    },
    {
      "inputs": [
        {
          "internalType": "uint256",
          "name": "allowed",
          "type": "uint256"
        },
        {
          "internalType": "uint256",
          "name": "desired",
          "type": "uint256"
        }
      ],
      "name": "MaxAllowedWithdrawExceeded",
      "type": "error"
    },
    {
      "inputs": [],
      "name": "MaxPoolsCountExceeded",
      "type": "error"
    },
    {
      "inputs": [
        {
          "internalType": "uint256",
          "name": "_newVal",
          "type": "uint256"
        }
      ],
      "name": "NewValueOutOfRange",
      "type": "error"
    },
    {
      "inputs": [],
      "name": "NoStakesToRecover",
      "type": "error"
    },
    {
      "inputs": [],
      "name": "NotInitializing",
      "type": "error"
    },
    {
      "inputs": [],
      "name": "NotPayable",
      "type": "error"
    },
    {
      "inputs": [
        {
          "internalType": "address",
          "name": "owner",
          "type": "address"
        }
      ],
      "name": "OwnableInvalidOwner",
      "type": "error"
    },
    {
      "inputs": [
        {
          "internalType": "address",
          "name": "account",
          "type": "address"
        }
      ],
      "name": "OwnableUnauthorizedAccount",
      "type": "error"
    },
    {
      "inputs": [
        {
          "internalType": "address",
          "name": "pool",
          "type": "address"
        }
      ],
      "name": "PoolAbandoned",
      "type": "error"
    },
    {
      "inputs": [
        {
          "internalType": "address",
          "name": "pool",
          "type": "address"
        }
      ],
      "name": "PoolCannotBeRemoved",
      "type": "error"
    },
    {
      "inputs": [
        {
          "internalType": "address",
          "name": "pool",
          "type": "address"
        }
      ],
      "name": "PoolEmpty",
      "type": "error"
    },
    {
      "inputs": [
        {
          "internalType": "address",
          "name": "pool",
          "type": "address"
        }
      ],
      "name": "PoolNotExist",
      "type": "error"
    },
    {
      "inputs": [
        {
          "internalType": "address",
          "name": "pool",
          "type": "address"
        },
        {
          "internalType": "address",
          "name": "delegator",
          "type": "address"
        }
      ],
      "name": "PoolStakeLimitExceeded",
      "type": "error"
    },
    {
      "inputs": [],
      "name": "ReentrancyGuardReentrantCall",
      "type": "error"
    },
    {
      "inputs": [
        {
          "internalType": "address",
          "name": "recipient",
          "type": "address"
        },
        {
          "internalType": "uint256",
          "name": "amount",
          "type": "uint256"
        }
      ],
      "name": "TransferFailed",
      "type": "error"
    },
    {
      "inputs": [],
      "name": "Unauthorized",
      "type": "error"
    },
    {
      "inputs": [],
      "name": "WithdrawNotAllowed",
      "type": "error"
    },
    {
      "inputs": [],
      "name": "ZeroAddress",
      "type": "error"
    },
    {
      "inputs": [],
      "name": "ZeroGasPrice",
      "type": "error"
    },
    {
      "inputs": [],
      "name": "ZeroWidthrawAmount",
      "type": "error"
    },
    {
      "inputs": [],
      "name": "ZeroWidthrawDisallowPeriod",
      "type": "error"
    },
    {
      "anonymous": false,
      "inputs": [
        {
          "indexed": true,
          "internalType": "address",
          "name": "fromPoolStakingAddress",
          "type": "address"
        },
        {
          "indexed": true,
          "internalType": "address",
          "name": "staker",
          "type": "address"
        },
        {
          "indexed": true,
          "internalType": "uint256",
          "name": "stakingEpoch",
          "type": "uint256"
        },
        {
          "indexed": false,
          "internalType": "uint256",
          "name": "amount",
          "type": "uint256"
        }
      ],
      "name": "ClaimedOrderedWithdrawal",
      "type": "event"
    },
    {
      "anonymous": false,
      "inputs": [
        {
          "indexed": true,
          "internalType": "address",
          "name": "caller",
          "type": "address"
        },
        {
          "indexed": true,
          "internalType": "address",
          "name": "stakingAddress",
          "type": "address"
        },
        {
          "indexed": false,
          "internalType": "uint256",
          "name": "gatheredFunds",
          "type": "uint256"
        }
      ],
      "name": "GatherAbandonedStakes",
      "type": "event"
    },
    {
      "anonymous": false,
      "inputs": [
        {
          "indexed": false,
          "internalType": "uint64",
          "name": "version",
          "type": "uint64"
        }
      ],
      "name": "Initialized",
      "type": "event"
    },
    {
      "anonymous": false,
      "inputs": [
        {
          "indexed": false,
          "internalType": "address",
          "name": "fromPoolStakingAddress",
          "type": "address"
        },
        {
          "indexed": true,
          "internalType": "address",
          "name": "toPoolStakingAddress",
          "type": "address"
        },
        {
          "indexed": true,
          "internalType": "address",
          "name": "staker",
          "type": "address"
        },
        {
          "indexed": true,
          "internalType": "uint256",
          "name": "stakingEpoch",
          "type": "uint256"
        },
        {
          "indexed": false,
          "internalType": "uint256",
          "name": "amount",
          "type": "uint256"
        }
      ],
      "name": "MovedStake",
      "type": "event"
    },
    {
      "anonymous": false,
      "inputs": [
        {
          "indexed": true,
          "internalType": "address",
          "name": "fromPoolStakingAddress",
          "type": "address"
        },
        {
          "indexed": true,
          "internalType": "address",
          "name": "staker",
          "type": "address"
        },
        {
          "indexed": true,
          "internalType": "uint256",
          "name": "stakingEpoch",
          "type": "uint256"
        },
        {
          "indexed": false,
          "internalType": "int256",
          "name": "amount",
          "type": "int256"
        }
      ],
      "name": "OrderedWithdrawal",
      "type": "event"
    },
    {
      "anonymous": false,
      "inputs": [
        {
          "indexed": true,
          "internalType": "address",
          "name": "previousOwner",
          "type": "address"
        },
        {
          "indexed": true,
          "internalType": "address",
          "name": "newOwner",
          "type": "address"
        }
      ],
      "name": "OwnershipTransferred",
      "type": "event"
    },
    {
      "anonymous": false,
      "inputs": [
        {
          "indexed": true,
          "internalType": "address",
          "name": "toPoolStakingAddress",
          "type": "address"
        },
        {
          "indexed": true,
          "internalType": "address",
          "name": "staker",
          "type": "address"
        },
        {
          "indexed": true,
          "internalType": "uint256",
          "name": "stakingEpoch",
          "type": "uint256"
        },
        {
          "indexed": false,
          "internalType": "uint256",
          "name": "amount",
          "type": "uint256"
        }
      ],
      "name": "PlacedStake",
      "type": "event"
    },
    {
      "anonymous": false,
      "inputs": [
        {
          "indexed": true,
          "internalType": "address",
          "name": "caller",
          "type": "address"
        },
        {
          "indexed": false,
          "internalType": "uint256",
          "name": "reinsertShare",
          "type": "uint256"
        },
        {
          "indexed": false,
          "internalType": "uint256",
          "name": "governanceShare",
          "type": "uint256"
        }
      ],
      "name": "RecoverAbandonedStakes",
      "type": "event"
    },
    {
      "anonymous": false,
      "inputs": [
        {
          "indexed": false,
          "internalType": "string",
          "name": "funcSelector",
          "type": "string"
        }
      ],
      "name": "RemoveChangeAbleParameter",
      "type": "event"
    },
    {
      "anonymous": false,
      "inputs": [
        {
          "indexed": true,
          "internalType": "address",
          "name": "poolStakingAddress",
          "type": "address"
        },
        {
          "indexed": true,
          "internalType": "uint256",
          "name": "stakingEpoch",
          "type": "uint256"
        },
        {
          "indexed": false,
          "internalType": "uint256",
          "name": "validatorReward",
          "type": "uint256"
        },
        {
          "indexed": false,
          "internalType": "uint256",
          "name": "delegatorsReward",
          "type": "uint256"
        }
      ],
      "name": "RestakeReward",
      "type": "event"
    },
    {
      "anonymous": false,
      "inputs": [
        {
          "indexed": false,
          "internalType": "address",
          "name": "_address",
          "type": "address"
        }
      ],
      "name": "SetBonusScoreContract",
      "type": "event"
    },
    {
      "anonymous": false,
      "inputs": [
        {
          "indexed": false,
          "internalType": "string",
          "name": "setter",
          "type": "string"
        },
        {
          "indexed": false,
          "internalType": "string",
          "name": "getter",
          "type": "string"
        },
        {
          "indexed": false,
          "internalType": "uint256[]",
          "name": "params",
          "type": "uint256[]"
        }
      ],
      "name": "SetChangeAbleParameter",
      "type": "event"
    },
    {
      "anonymous": false,
      "inputs": [
        {
          "indexed": false,
          "internalType": "uint256",
          "name": "minStake",
          "type": "uint256"
        }
      ],
      "name": "SetDelegatorMinStake",
      "type": "event"
    },
    {
      "anonymous": false,
      "inputs": [
        {
          "indexed": true,
          "internalType": "address",
          "name": "fromPoolStakingAddress",
          "type": "address"
        },
        {
          "indexed": true,
          "internalType": "address",
          "name": "staker",
          "type": "address"
        },
        {
          "indexed": true,
          "internalType": "uint256",
          "name": "stakingEpoch",
          "type": "uint256"
        },
        {
          "indexed": false,
          "internalType": "uint256",
          "name": "amount",
          "type": "uint256"
        }
      ],
      "name": "WithdrewStake",
      "type": "event"
    },
    {
      "inputs": [],
      "name": "MAX_CANDIDATES",
      "outputs": [
        {
          "internalType": "uint256",
          "name": "",
          "type": "uint256"
        }
      ],
      "stateMutability": "view",
      "type": "function"
    },
    {
      "inputs": [
        {
          "internalType": "address",
          "name": "",
          "type": "address"
        }
      ],
      "name": "abandonedAndRemoved",
      "outputs": [
        {
          "internalType": "bool",
          "name": "",
          "type": "bool"
        }
      ],
      "stateMutability": "view",
      "type": "function"
    },
    {
      "inputs": [
        {
          "internalType": "address",
          "name": "_miningAddress",
          "type": "address"
        },
        {
          "internalType": "bytes",
          "name": "_publicKey",
          "type": "bytes"
        },
        {
          "internalType": "bytes16",
          "name": "_ip",
          "type": "bytes16"
        }
      ],
      "name": "addPool",
      "outputs": [],
      "stateMutability": "payable",
      "type": "function"
    },
    {
      "inputs": [
        {
          "internalType": "bytes4",
          "name": "",
          "type": "bytes4"
        }
      ],
      "name": "allowedParameterRange",
      "outputs": [
        {
          "internalType": "bytes4",
          "name": "getter",
          "type": "bytes4"
        }
      ],
      "stateMutability": "view",
      "type": "function"
    },
    {
      "inputs": [],
      "name": "areStakeAndWithdrawAllowed",
      "outputs": [
        {
          "internalType": "bool",
          "name": "",
          "type": "bool"
        }
      ],
      "stateMutability": "pure",
      "type": "function"
    },
    {
      "inputs": [],
      "name": "bonusScoreContract",
      "outputs": [
        {
          "internalType": "contract IBonusScoreSystem",
          "name": "",
          "type": "address"
        }
      ],
      "stateMutability": "view",
      "type": "function"
    },
    {
      "inputs": [],
      "name": "candidateMinStake",
      "outputs": [
        {
          "internalType": "uint256",
          "name": "",
          "type": "uint256"
        }
      ],
      "stateMutability": "view",
      "type": "function"
    },
    {
      "inputs": [
        {
          "internalType": "address",
          "name": "_poolStakingAddress",
          "type": "address"
        }
      ],
      "name": "claimOrderedWithdraw",
      "outputs": [],
      "stateMutability": "nonpayable",
      "type": "function"
    },
    {
      "inputs": [],
      "name": "currentKeyGenExtraTimeWindow",
      "outputs": [
        {
          "internalType": "uint256",
          "name": "",
          "type": "uint256"
        }
      ],
      "stateMutability": "view",
      "type": "function"
    },
    {
      "inputs": [],
      "name": "delegatorMinStake",
      "outputs": [
        {
          "internalType": "uint256",
          "name": "",
          "type": "uint256"
        }
      ],
      "stateMutability": "view",
      "type": "function"
    },
    {
      "inputs": [
        {
          "internalType": "string",
          "name": "_selector",
          "type": "string"
        }
      ],
      "name": "getAllowedParamsRange",
      "outputs": [
        {
          "components": [
            {
              "internalType": "bytes4",
              "name": "getter",
              "type": "bytes4"
            },
            {
              "internalType": "uint256[]",
              "name": "range",
              "type": "uint256[]"
            }
          ],
          "internalType": "struct ValueGuards.ParameterRange",
          "name": "",
          "type": "tuple"
        }
      ],
      "stateMutability": "view",
      "type": "function"
    },
    {
      "inputs": [
        {
          "internalType": "bytes4",
          "name": "_selector",
          "type": "bytes4"
        }
      ],
      "name": "getAllowedParamsRangeWithSelector",
      "outputs": [
        {
          "components": [
            {
              "internalType": "bytes4",
              "name": "getter",
              "type": "bytes4"
            },
            {
              "internalType": "uint256[]",
              "name": "range",
              "type": "uint256[]"
            }
          ],
          "internalType": "struct ValueGuards.ParameterRange",
          "name": "",
          "type": "tuple"
        }
      ],
      "stateMutability": "view",
      "type": "function"
    },
    {
      "inputs": [
        {
          "internalType": "address",
          "name": "_poolAddress",
          "type": "address"
        }
      ],
      "name": "getPoolInternetAddress",
      "outputs": [
        {
          "internalType": "bytes16",
          "name": "",
          "type": "bytes16"
        },
        {
          "internalType": "bytes2",
          "name": "",
          "type": "bytes2"
        }
      ],
      "stateMutability": "view",
      "type": "function"
    },
    {
      "inputs": [
        {
          "internalType": "address",
          "name": "_poolAddress",
          "type": "address"
        }
      ],
      "name": "getPoolPublicKey",
      "outputs": [
        {
          "internalType": "bytes",
          "name": "",
          "type": "bytes"
        }
      ],
      "stateMutability": "view",
      "type": "function"
    },
    {
      "inputs": [
        {
          "internalType": "uint256",
          "name": "_epoch",
          "type": "uint256"
        },
        {
          "internalType": "address",
          "name": "_stakingPool",
          "type": "address"
        }
      ],
      "name": "getPoolValidatorStakeAmount",
      "outputs": [
        {
          "internalType": "uint256",
          "name": "",
          "type": "uint256"
        }
      ],
      "stateMutability": "view",
      "type": "function"
    },
    {
      "inputs": [],
      "name": "getPools",
      "outputs": [
        {
          "internalType": "address[]",
          "name": "",
          "type": "address[]"
        }
      ],
      "stateMutability": "view",
      "type": "function"
    },
    {
      "inputs": [],
      "name": "getPoolsInactive",
      "outputs": [
        {
          "internalType": "address[]",
          "name": "",
          "type": "address[]"
        }
      ],
      "stateMutability": "view",
      "type": "function"
    },
    {
      "inputs": [],
      "name": "getPoolsLikelihood",
      "outputs": [
        {
          "internalType": "uint256[]",
          "name": "likelihoods",
          "type": "uint256[]"
        },
        {
          "internalType": "uint256",
          "name": "sum",
          "type": "uint256"
        }
      ],
      "stateMutability": "view",
      "type": "function"
    },
    {
      "inputs": [],
      "name": "getPoolsToBeElected",
      "outputs": [
        {
          "internalType": "address[]",
          "name": "",
          "type": "address[]"
        }
      ],
      "stateMutability": "view",
      "type": "function"
    },
    {
      "inputs": [],
      "name": "getPoolsToBeRemoved",
      "outputs": [
        {
          "internalType": "address[]",
          "name": "",
          "type": "address[]"
        }
      ],
      "stateMutability": "view",
      "type": "function"
    },
    {
      "inputs": [],
      "name": "incrementStakingEpoch",
      "outputs": [],
      "stateMutability": "nonpayable",
      "type": "function"
    },
    {
      "inputs": [
        {
          "internalType": "string",
          "name": "setter",
          "type": "string"
        },
        {
          "internalType": "string",
          "name": "getter",
          "type": "string"
        },
        {
          "internalType": "uint256[]",
          "name": "params",
          "type": "uint256[]"
        }
      ],
      "name": "initAllowedChangeableParameter",
      "outputs": [],
      "stateMutability": "nonpayable",
      "type": "function"
    },
    {
      "inputs": [
        {
          "internalType": "address",
          "name": "_contractOwner",
          "type": "address"
        },
        {
          "components": [
            {
              "internalType": "address",
              "name": "_validatorSetContract",
              "type": "address"
            },
            {
              "internalType": "address",
              "name": "_bonusScoreContract",
              "type": "address"
            },
            {
              "internalType": "address[]",
              "name": "_initialStakingAddresses",
              "type": "address[]"
            },
            {
              "internalType": "uint256",
              "name": "_delegatorMinStake",
              "type": "uint256"
            },
            {
              "internalType": "uint256",
              "name": "_candidateMinStake",
              "type": "uint256"
            },
            {
              "internalType": "uint256",
              "name": "_maxStake",
              "type": "uint256"
            },
            {
              "internalType": "uint256",
              "name": "_stakingFixedEpochDuration",
              "type": "uint256"
            },
            {
              "internalType": "uint256",
              "name": "_stakingTransitionTimeframeLength",
              "type": "uint256"
            },
            {
              "internalType": "uint256",
              "name": "_stakingWithdrawDisallowPeriod",
              "type": "uint256"
            }
          ],
          "internalType": "struct IStakingHbbft.StakingParams",
          "name": "stakingParams",
          "type": "tuple"
        },
        {
          "internalType": "bytes32[]",
          "name": "_publicKeys",
          "type": "bytes32[]"
        },
        {
          "internalType": "bytes16[]",
          "name": "_internetAddresses",
          "type": "bytes16[]"
        }
      ],
      "name": "initialize",
      "outputs": [],
      "stateMutability": "nonpayable",
      "type": "function"
    },
    {
      "inputs": [
        {
          "internalType": "address",
          "name": "_stakingAddress",
          "type": "address"
        }
      ],
      "name": "isPoolActive",
      "outputs": [
        {
          "internalType": "bool",
          "name": "",
          "type": "bool"
        }
      ],
      "stateMutability": "view",
      "type": "function"
    },
    {
      "inputs": [
        {
          "internalType": "address",
          "name": "_stakingAddress",
          "type": "address"
        }
      ],
      "name": "isPoolValid",
      "outputs": [
        {
          "internalType": "bool",
          "name": "",
          "type": "bool"
        }
      ],
      "stateMutability": "view",
      "type": "function"
    },
    {
      "inputs": [
        {
          "internalType": "bytes4",
          "name": "funcSelector",
          "type": "bytes4"
        },
        {
          "internalType": "uint256",
          "name": "newVal",
          "type": "uint256"
        }
      ],
      "name": "isWithinAllowedRange",
      "outputs": [
        {
          "internalType": "bool",
          "name": "",
          "type": "bool"
        }
      ],
      "stateMutability": "view",
      "type": "function"
    },
    {
      "inputs": [],
      "name": "maxStakeAmount",
      "outputs": [
        {
          "internalType": "uint256",
          "name": "",
          "type": "uint256"
        }
      ],
      "stateMutability": "view",
      "type": "function"
    },
    {
      "inputs": [
        {
          "internalType": "address",
          "name": "_poolStakingAddress",
          "type": "address"
        },
        {
          "internalType": "address",
          "name": "_staker",
          "type": "address"
        }
      ],
      "name": "maxWithdrawAllowed",
      "outputs": [
        {
          "internalType": "uint256",
          "name": "",
          "type": "uint256"
        }
      ],
      "stateMutability": "view",
      "type": "function"
    },
    {
      "inputs": [
        {
          "internalType": "address",
          "name": "_poolStakingAddress",
          "type": "address"
        },
        {
          "internalType": "address",
          "name": "_staker",
          "type": "address"
        }
      ],
      "name": "maxWithdrawOrderAllowed",
      "outputs": [
        {
          "internalType": "uint256",
          "name": "",
          "type": "uint256"
        }
      ],
      "stateMutability": "view",
      "type": "function"
    },
    {
      "inputs": [
        {
          "internalType": "address",
          "name": "_fromPoolStakingAddress",
          "type": "address"
        },
        {
          "internalType": "address",
          "name": "_toPoolStakingAddress",
          "type": "address"
        },
        {
          "internalType": "uint256",
          "name": "_amount",
          "type": "uint256"
        }
      ],
      "name": "moveStake",
      "outputs": [],
      "stateMutability": "nonpayable",
      "type": "function"
    },
    {
      "inputs": [
        {
          "internalType": "address",
          "name": "_stakingAddress",
          "type": "address"
        }
      ],
      "name": "notifyAvailability",
      "outputs": [],
      "stateMutability": "nonpayable",
      "type": "function"
    },
    {
      "inputs": [],
      "name": "notifyKeyGenFailed",
      "outputs": [],
      "stateMutability": "nonpayable",
      "type": "function"
    },
    {
      "inputs": [
        {
          "internalType": "uint256",
          "name": "detectedOfflineTime",
          "type": "uint256"
        }
      ],
      "name": "notifyNetworkOfftimeDetected",
      "outputs": [],
      "stateMutability": "nonpayable",
      "type": "function"
    },
    {
      "inputs": [
        {
          "internalType": "address",
          "name": "_poolStakingAddress",
          "type": "address"
        },
        {
          "internalType": "int256",
          "name": "_amount",
          "type": "int256"
        }
      ],
      "name": "orderWithdraw",
      "outputs": [],
      "stateMutability": "nonpayable",
      "type": "function"
    },
    {
      "inputs": [
        {
          "internalType": "address",
          "name": "",
          "type": "address"
        },
        {
          "internalType": "address",
          "name": "",
          "type": "address"
        }
      ],
      "name": "orderWithdrawEpoch",
      "outputs": [
        {
          "internalType": "uint256",
          "name": "",
          "type": "uint256"
        }
      ],
      "stateMutability": "view",
      "type": "function"
    },
    {
      "inputs": [
        {
          "internalType": "address",
          "name": "",
          "type": "address"
        },
        {
          "internalType": "address",
          "name": "",
          "type": "address"
        }
      ],
      "name": "orderedWithdrawAmount",
      "outputs": [
        {
          "internalType": "uint256",
          "name": "",
          "type": "uint256"
        }
      ],
      "stateMutability": "view",
      "type": "function"
    },
    {
      "inputs": [
        {
          "internalType": "address",
          "name": "",
          "type": "address"
        }
      ],
      "name": "orderedWithdrawAmountTotal",
      "outputs": [
        {
          "internalType": "uint256",
          "name": "",
          "type": "uint256"
        }
      ],
      "stateMutability": "view",
      "type": "function"
    },
    {
      "inputs": [],
      "name": "owner",
      "outputs": [
        {
          "internalType": "address",
          "name": "",
          "type": "address"
        }
      ],
      "stateMutability": "view",
      "type": "function"
    },
    {
      "inputs": [
        {
          "internalType": "address",
          "name": "_poolStakingAddress",
          "type": "address"
        }
      ],
      "name": "poolDelegators",
      "outputs": [
        {
          "internalType": "address[]",
          "name": "",
          "type": "address[]"
        }
      ],
      "stateMutability": "view",
      "type": "function"
    },
    {
      "inputs": [
        {
          "internalType": "address",
          "name": "_poolStakingAddress",
          "type": "address"
        }
      ],
      "name": "poolDelegatorsInactive",
      "outputs": [
        {
          "internalType": "address[]",
          "name": "",
          "type": "address[]"
        }
      ],
      "stateMutability": "view",
      "type": "function"
    },
    {
      "inputs": [
        {
          "internalType": "address",
          "name": "",
          "type": "address"
        }
      ],
      "name": "poolInfo",
      "outputs": [
        {
          "internalType": "bytes",
          "name": "publicKey",
          "type": "bytes"
        },
        {
          "internalType": "bytes16",
          "name": "internetAddress",
          "type": "bytes16"
        },
        {
          "internalType": "bytes2",
          "name": "port",
          "type": "bytes2"
        }
      ],
      "stateMutability": "view",
      "type": "function"
    },
    {
      "inputs": [
        {
          "internalType": "address",
          "name": "",
          "type": "address"
        }
      ],
      "name": "poolToBeElectedIndex",
      "outputs": [
        {
          "internalType": "uint256",
          "name": "",
          "type": "uint256"
        }
      ],
      "stateMutability": "view",
      "type": "function"
    },
    {
      "inputs": [],
      "name": "recoverAbandonedStakes",
      "outputs": [],
      "stateMutability": "nonpayable",
      "type": "function"
    },
    {
      "inputs": [
        {
          "internalType": "string",
          "name": "funcSelector",
          "type": "string"
        }
      ],
      "name": "removeAllowedChangeableParameter",
      "outputs": [],
      "stateMutability": "nonpayable",
      "type": "function"
    },
    {
      "inputs": [],
      "name": "removeMyPool",
      "outputs": [],
      "stateMutability": "nonpayable",
      "type": "function"
    },
    {
      "inputs": [
        {
          "internalType": "address",
          "name": "_stakingAddress",
          "type": "address"
        }
      ],
      "name": "removePool",
      "outputs": [],
      "stateMutability": "nonpayable",
      "type": "function"
    },
    {
      "inputs": [],
      "name": "removePools",
      "outputs": [],
      "stateMutability": "nonpayable",
      "type": "function"
    },
    {
      "inputs": [],
      "name": "renounceOwnership",
      "outputs": [],
      "stateMutability": "nonpayable",
      "type": "function"
    },
    {
      "inputs": [
        {
          "internalType": "address",
          "name": "_poolStakingAddress",
          "type": "address"
        },
        {
          "internalType": "uint256",
          "name": "_validatorMinRewardPercent",
          "type": "uint256"
        }
      ],
      "name": "restake",
      "outputs": [],
      "stateMutability": "payable",
      "type": "function"
    },
    {
      "inputs": [
        {
          "internalType": "string",
          "name": "setter",
          "type": "string"
        },
        {
          "internalType": "string",
          "name": "getter",
          "type": "string"
        },
        {
          "internalType": "uint256[]",
          "name": "params",
          "type": "uint256[]"
        }
      ],
      "name": "setAllowedChangeableParameter",
      "outputs": [],
      "stateMutability": "nonpayable",
      "type": "function"
    },
    {
      "inputs": [
        {
          "internalType": "address",
          "name": "_bonusScoreContract",
          "type": "address"
        }
      ],
      "name": "setBonusScoreContract",
      "outputs": [],
      "stateMutability": "nonpayable",
      "type": "function"
    },
    {
      "inputs": [
        {
          "internalType": "uint256",
          "name": "_minStake",
          "type": "uint256"
        }
      ],
      "name": "setDelegatorMinStake",
      "outputs": [],
      "stateMutability": "nonpayable",
      "type": "function"
    },
    {
      "inputs": [
        {
          "internalType": "bytes",
          "name": "_publicKey",
          "type": "bytes"
        },
        {
          "internalType": "bytes16",
          "name": "_ip",
          "type": "bytes16"
        },
        {
          "internalType": "bytes2",
          "name": "_port",
          "type": "bytes2"
        }
      ],
      "name": "setPoolInfo",
      "outputs": [],
      "stateMutability": "nonpayable",
      "type": "function"
    },
    {
      "inputs": [
        {
          "internalType": "uint256",
          "name": "_timestamp",
          "type": "uint256"
        }
      ],
      "name": "setStakingEpochStartTime",
      "outputs": [],
      "stateMutability": "nonpayable",
      "type": "function"
    },
    {
      "inputs": [
        {
          "internalType": "uint256",
          "name": "_value",
          "type": "uint256"
        }
      ],
      "name": "setStakingFixedEpochDuration",
      "outputs": [],
      "stateMutability": "nonpayable",
      "type": "function"
    },
    {
      "inputs": [
        {
          "internalType": "uint256",
          "name": "_value",
          "type": "uint256"
        }
      ],
      "name": "setStakingTransitionTimeframeLength",
      "outputs": [],
      "stateMutability": "nonpayable",
      "type": "function"
    },
    {
      "inputs": [
        {
          "internalType": "address",
          "name": "_validatorAddress",
          "type": "address"
        },
        {
          "internalType": "bytes16",
          "name": "_ip",
          "type": "bytes16"
        },
        {
          "internalType": "bytes2",
          "name": "_port",
          "type": "bytes2"
        }
      ],
      "name": "setValidatorInternetAddress",
      "outputs": [],
      "stateMutability": "nonpayable",
      "type": "function"
    },
    {
      "inputs": [
        {
          "internalType": "uint256",
          "name": "_epoch",
          "type": "uint256"
        },
        {
          "internalType": "address",
          "name": "_stakingPool",
          "type": "address"
        }
      ],
      "name": "snapshotPoolStakeAmounts",
      "outputs": [],
      "stateMutability": "nonpayable",
      "type": "function"
    },
    {
      "inputs": [
        {
          "internalType": "uint256",
          "name": "",
          "type": "uint256"
        },
        {
          "internalType": "address",
          "name": "",
          "type": "address"
        }
      ],
      "name": "snapshotPoolTotalStakeAmount",
      "outputs": [
        {
          "internalType": "uint256",
          "name": "",
          "type": "uint256"
        }
      ],
      "stateMutability": "view",
      "type": "function"
    },
    {
      "inputs": [
        {
          "internalType": "uint256",
          "name": "",
          "type": "uint256"
        },
        {
          "internalType": "address",
          "name": "",
          "type": "address"
        }
      ],
      "name": "snapshotPoolValidatorStakeAmount",
      "outputs": [
        {
          "internalType": "uint256",
          "name": "",
          "type": "uint256"
        }
      ],
      "stateMutability": "view",
      "type": "function"
    },
    {
      "inputs": [
        {
          "internalType": "address",
          "name": "_toPoolStakingAddress",
          "type": "address"
        }
      ],
      "name": "stake",
      "outputs": [],
      "stateMutability": "payable",
      "type": "function"
    },
    {
      "inputs": [
        {
          "internalType": "address",
          "name": "",
          "type": "address"
        },
        {
          "internalType": "address",
          "name": "",
          "type": "address"
        }
      ],
      "name": "stakeAmount",
      "outputs": [
        {
          "internalType": "uint256",
          "name": "",
          "type": "uint256"
        }
      ],
      "stateMutability": "view",
      "type": "function"
    },
    {
      "inputs": [
        {
          "internalType": "address",
          "name": "_poolStakingAddress",
          "type": "address"
        },
        {
          "internalType": "address",
          "name": "_staker",
          "type": "address"
        }
      ],
      "name": "stakeAmountByCurrentEpoch",
      "outputs": [
        {
          "internalType": "uint256",
          "name": "",
          "type": "uint256"
        }
      ],
      "stateMutability": "view",
      "type": "function"
    },
    {
      "inputs": [
        {
          "internalType": "address",
          "name": "",
          "type": "address"
        }
      ],
      "name": "stakeAmountTotal",
      "outputs": [
        {
          "internalType": "uint256",
          "name": "",
          "type": "uint256"
        }
      ],
      "stateMutability": "view",
      "type": "function"
    },
    {
      "inputs": [],
      "name": "stakingEpoch",
      "outputs": [
        {
          "internalType": "uint256",
          "name": "",
          "type": "uint256"
        }
      ],
      "stateMutability": "view",
      "type": "function"
    },
    {
      "inputs": [],
      "name": "stakingEpochStartBlock",
      "outputs": [
        {
          "internalType": "uint256",
          "name": "",
          "type": "uint256"
        }
      ],
      "stateMutability": "view",
      "type": "function"
    },
    {
      "inputs": [],
      "name": "stakingEpochStartTime",
      "outputs": [
        {
          "internalType": "uint256",
          "name": "",
          "type": "uint256"
        }
      ],
      "stateMutability": "view",
      "type": "function"
    },
    {
      "inputs": [],
      "name": "stakingFixedEpochDuration",
      "outputs": [
        {
          "internalType": "uint256",
          "name": "",
          "type": "uint256"
        }
      ],
      "stateMutability": "view",
      "type": "function"
    },
    {
      "inputs": [],
      "name": "stakingFixedEpochEndTime",
      "outputs": [
        {
          "internalType": "uint256",
          "name": "",
          "type": "uint256"
        }
      ],
      "stateMutability": "view",
      "type": "function"
    },
    {
      "inputs": [],
      "name": "stakingTransitionTimeframeLength",
      "outputs": [
        {
          "internalType": "uint256",
          "name": "",
          "type": "uint256"
        }
      ],
      "stateMutability": "view",
      "type": "function"
    },
    {
      "inputs": [],
      "name": "stakingWithdrawDisallowPeriod",
      "outputs": [
        {
          "internalType": "uint256",
          "name": "",
          "type": "uint256"
        }
      ],
      "stateMutability": "view",
      "type": "function"
    },
    {
      "inputs": [],
      "name": "startTimeOfNextPhaseTransition",
      "outputs": [
        {
          "internalType": "uint256",
          "name": "",
          "type": "uint256"
        }
      ],
      "stateMutability": "view",
      "type": "function"
    },
    {
      "inputs": [],
      "name": "totalStakedAmount",
      "outputs": [
        {
          "internalType": "uint256",
          "name": "",
          "type": "uint256"
        }
      ],
      "stateMutability": "view",
      "type": "function"
    },
    {
      "inputs": [
        {
          "internalType": "address",
          "name": "newOwner",
          "type": "address"
        }
      ],
      "name": "transferOwnership",
      "outputs": [],
      "stateMutability": "nonpayable",
      "type": "function"
    },
    {
      "inputs": [
        {
          "internalType": "address",
          "name": "mining",
          "type": "address"
        },
        {
          "internalType": "uint256",
          "name": "validatorScore",
          "type": "uint256"
        }
      ],
      "name": "updatePoolLikelihood",
      "outputs": [],
      "stateMutability": "nonpayable",
      "type": "function"
    },
    {
      "inputs": [],
      "name": "validatorSetContract",
      "outputs": [
        {
          "internalType": "contract IValidatorSetHbbft",
          "name": "",
          "type": "address"
        }
      ],
      "stateMutability": "view",
      "type": "function"
    },
    {
      "inputs": [
        {
          "internalType": "address",
          "name": "_fromPoolStakingAddress",
          "type": "address"
        },
        {
          "internalType": "uint256",
          "name": "_amount",
          "type": "uint256"
        }
      ],
      "name": "withdraw",
      "outputs": [],
      "stateMutability": "nonpayable",
      "type": "function"
    },
    {
      "stateMutability": "payable",
      "type": "receive"
    }
  ],
  "bytecode": "0x6080604052348015600f57600080fd5b506016601a565b60ca565b7ff0c57e16840df040f15088dc2f81fe391c3923bec73e23a9662efc9c229c6a00805468010000000000000000900460ff161560695760405163f92ee8a960e01b815260040160405180910390fd5b80546001600160401b039081161460c75780546001600160401b0319166001600160401b0390811782556040519081527fc7f505b2f371ae2175ee4913f4499e1f2633a7b5936321eed1cdaeb6115181d29060200160405180910390a15b50565b615aec806100d96000396000f3fe6080604052600436106105265760003560e01c8063862be287116102af578063ba08d23711610179578063dfc8bf4e116100d6578063f2fde38b1161008a578063f49425011161006f578063f494250114610f4f578063f6c5786114610f63578063fa4aaf4714610f8357600080fd5b8063f2fde38b14610f0f578063f3fef3a314610f2f57600080fd5b8063edd7db75116100bb578063edd7db7514610ecf578063ee435f5514610ee4578063f078609614610ef957600080fd5b8063dfc8bf4e14610e77578063e9ab030014610e9757600080fd5b8063d0ac76f61161012d578063da7a9b6a11610112578063da7a9b6a14610e1f578063dadee88a14610e35578063df6f55f514610e6257600080fd5b8063d0ac76f614610dea578063d290c21d14610e0a57600080fd5b8063c6912cc01161015e578063c6912cc014610d95578063c6af311a14610daa578063cfef144114610dca57600080fd5b8063ba08d23714610d55578063bf348f8614610d7557600080fd5b80639ea8082b11610227578063adddc0cf116101db578063b0bd5e9e116101c0578063b0bd5e9e14610ce8578063b61ed63a14610d08578063b710c15d14610d2857600080fd5b8063adddc0cf14610cbd578063ae1aaf8014610cd257600080fd5b8063a5d54f651161020c578063a5d54f6514610c50578063a697ecff14610c65578063a711e6a114610c9d57600080fd5b80639ea8082b14610bf8578063a420596714610c1857600080fd5b8063957950a71161027e5780639b03d744116102635780639b03d74414610ba25780639b9fb6d014610bb85780639e72c63514610bd857600080fd5b8063957950a714610b505780639a7b5f1114610b7357600080fd5b8063862be28714610a8a5780638da5cb5b14610aaa5780639228363414610ae7578063950a651314610b3057600080fd5b80634f9a8d8f116103f05780636bda157711610368578063750dd2a11161031c5780637b0a0f9b116103015780637b0a0f9b14610a2a5780637b15b94c14610a4a5780638247a23914610a6a57600080fd5b8063750dd2a1146109c4578063794c0c6814610a1457600080fd5b8063715018a61161034d578063715018a614610957578063728345db1461096c57806373c21803146109a457600080fd5b80636bda1577146109215780637069e7461461094157600080fd5b80635b4eafe0116103bf5780635d80ca32116103a45780635d80ca32146108d35780635fef7643146108e9578063673a2a1f146108ff57600080fd5b80635b4eafe0146108935780635cb092a2146108b357600080fd5b80634f9a8d8f146108275780635267e1d61461083d578063567e98f91461086a57806356e4d6c21461088057600080fd5b8063251441a91161049e57806337154263116104525780633b7d0946116104375780633b7d0946146107c75780633f3afe01146107e75780634e9b426d146107fa57600080fd5b8063371542631461079c578063379b046a146107b157600080fd5b80632bafde8d116104835780632bafde8d1461071d5780633219d6001461073d57806336e98ca81461077c57600080fd5b8063251441a9146106ea578063264762041461070a57600080fd5b80631555371c116104f55780631fb31e43116104da5780631fb31e431461063957806322704bdd146106b557806322e3d986146106d557600080fd5b80631555371c14610604578063159e0a951461061957600080fd5b8063028b8bdb146105495780630ac6e291146105725780630b770cdf146105945780631345b8a5146105cc57600080fd5b3661054457604051631574f9f360e01b815260040160405180910390fd5b600080fd5b34801561055557600080fd5b5061055f60155481565b6040519081526020015b60405180910390f35b34801561057e57600080fd5b5061059261058d366004614fcb565b610fb0565b005b3480156105a057600080fd5b506025546105b4906001600160a01b031681565b6040516001600160a01b039091168152602001610569565b3480156105d857600080fd5b5061055f6105e736600461507b565b602260209081526000928352604080842090915290825290205481565b34801561061057600080fd5b506105926115a4565b34801561062557600080fd5b506105926106343660046150ab565b611616565b34801561064557600080fd5b506106836106543660046150ab565b6001600160a01b03166000908152601f6020526040902060010154608081901b91600160801b90910460f01b90565b604080516fffffffffffffffffffffffffffffffff1990931683526001600160f01b0319909116602083015201610569565b3480156106c157600080fd5b506105926106d03660046150c8565b61169a565b3480156106e157600080fd5b5061055f6116d7565b3480156106f657600080fd5b506105926107053660046150e1565b61171e565b6105926107183660046150ab565b6117dc565b34801561072957600080fd5b506105926107383660046150c8565b61185f565b34801561074957600080fd5b5061076c6107583660046150ab565b602080526000908152604090205460ff1681565b6040519015158152602001610569565b34801561078857600080fd5b506105926107973660046151d9565b6118df565b3480156107a857600080fd5b50610592611993565b3480156107bd57600080fd5b5061055f601b5481565b3480156107d357600080fd5b506105926107e23660046150ab565b611d8c565b6105926107f53660046152c6565b611dc2565b34801561080657600080fd5b5061081a6108153660046150ab565b61212d565b6040516105699190615342565b34801561083357600080fd5b5061055f60175481565b34801561084957600080fd5b5061055f6108583660046150ab565b601c6020526000908152604090205481565b34801561087657600080fd5b5061055f601d5481565b61059261088e3660046153bd565b6121d9565b34801561089f57600080fd5b5061055f6108ae36600461507b565b61230e565b3480156108bf57600080fd5b506105926108ce3660046151d9565b612338565b3480156108df57600080fd5b5061055f600f5481565b3480156108f557600080fd5b5061055f600d5481565b34801561090b57600080fd5b50610914612340565b6040516105699190615424565b34801561092d57600080fd5b5061055f61093c366004615471565b612351565b34801561094d57600080fd5b5061055f601a5481565b34801561096357600080fd5b506105926124d0565b34801561097857600080fd5b5061055f61098736600461507b565b602160209081526000928352604080842090915290825290205481565b3480156109b057600080fd5b506109146109bf3660046150ab565b6124e4565b3480156109d057600080fd5b5061055f6109df366004615471565b6001600160a01b039182166000908152600c602090815260408083209390941682529182528281206016548252909152205490565b348015610a2057600080fd5b5061055f60165481565b348015610a3657600080fd5b50610592610a453660046154b7565b612508565b348015610a5657600080fd5b50610592610a653660046150ab565b612585565b348015610a7657600080fd5b50610592610a853660046150c8565b6125ec565b348015610a9657600080fd5b50610592610aa53660046154fc565b61261f565b348015610ab657600080fd5b507f9016d09d72d40fdae2fd8ceac6b6234c7706214fd39c1cd1e609a0528c199300546001600160a01b03166105b4565b348015610af357600080fd5b50610b17610b0236600461556e565b60006020819052908152604090205460e01b81565b6040516001600160e01b03199091168152602001610569565b348015610b3c57600080fd5b5061055f610b4b366004615471565b612682565b348015610b5c57600080fd5b50610b656127ca565b6040516105699291906155c5565b348015610b7f57600080fd5b50610b93610b8e3660046150ab565b61282d565b604051610569939291906155e7565b348015610bae57600080fd5b5061055f60195481565b348015610bc457600080fd5b50610592610bd336600461562e565b6128e1565b348015610be457600080fd5b50610592610bf33660046150c8565b612955565b348015610c0457600080fd5b50610914610c133660046150ab565b6129a0565b348015610c2457600080fd5b5061055f610c33366004615471565b601260209081526000928352604080842090915290825290205481565b348015610c5c57600080fd5b506109146129c4565b348015610c7157600080fd5b5061055f610c80366004615471565b601460209081526000928352604080842090915290825290205481565b348015610ca957600080fd5b5061076c610cb83660046150ab565b612a26565b348015610cc957600080fd5b50610592612a33565b348015610cde57600080fd5b5061055f60185481565b348015610cf457600080fd5b50610592610d033660046150c8565b612a78565b348015610d1457600080fd5b50610592610d233660046152c6565b612aa7565b348015610d3457600080fd5b50610d48610d4336600461562e565b612e0e565b6040516105699190615663565b348015610d6157600080fd5b5061076c610d70366004615691565b612eb6565b348015610d8157600080fd5b50610d48610d9036600461556e565b613085565b348015610da157600080fd5b5061055f613122565b348015610db657600080fd5b50610592610dc53660046152c6565b613141565b348015610dd657600080fd5b50610592610de53660046150ab565b6131eb565b348015610df657600080fd5b50610592610e0536600461507b565b6133be565b348015610e1657600080fd5b50610914613501565b348015610e2b57600080fd5b5061055f600e5481565b348015610e4157600080fd5b5061055f610e503660046150ab565b60116020526000908152604090205481565b348015610e6e57600080fd5b5061091461350d565b348015610e8357600080fd5b50601e546105b4906001600160a01b031681565b348015610ea357600080fd5b5061055f610eb2366004615471565b601060209081526000928352604080842090915290825290205481565b348015610edb57600080fd5b50610592613519565b348015610ef057600080fd5b50610592613659565b348015610f0557600080fd5b5061055f610bb881565b348015610f1b57600080fd5b50610592610f2a3660046150ab565b61369f565b348015610f3b57600080fd5b50610592610f4a3660046152c6565b6136da565b348015610f5b57600080fd5b50600161076c565b348015610f6f57600080fd5b5061076c610f7e3660046150ab565b613793565b348015610f8f57600080fd5b5061055f610f9e3660046150ab565b60136020526000908152604090205481565b7ff0c57e16840df040f15088dc2f81fe391c3923bec73e23a9662efc9c229c6a00805468010000000000000000810460ff16159067ffffffffffffffff16600081158015610ffb5750825b905060008267ffffffffffffffff1660011480156110185750303b155b905081158015611026575080155b156110445760405163f92ee8a960e01b815260040160405180910390fd5b845467ffffffffffffffff19166001178555831561107857845468ff00000000000000001916680100000000000000001785555b6001600160a01b038b1661109f5760405163d92e233d60e01b815260040160405180910390fd5b6110a88a6137b1565b876110b660408c018c6156ad565b6110c29150600261570d565b146110df5760405162d6988760e81b815260040160405180910390fd5b856110ed60408c018c6156ad565b90501461110d576040516320041afd60e01b815260040160405180910390fd5b6111168b613914565b61111e613925565b61112b60208b018b6150ab565b601e80546001600160a01b0319166001600160a01b039290921691909117905561115b60408b0160208c016150ab565b602580546001600160a01b0319166001600160a01b039290921691909117905536600061118b60408d018d6156ad565b9150915060005b818110156113ae5760008383838181106111ae576111ae615724565b90506020020160208101906111c391906150ab565b6001600160a01b0316036111ea5760405163d92e233d60e01b815260040160405180910390fd5b61121b8383838181106111ff576111ff615724565b905060200201602081019061121491906150ab565b6000613935565b61124a83838381811061123057611230615724565b905060200201602081019061124591906150ab565b613995565b8b8b61125783600261570d565b81811061126657611266615724565b905060200201358c8c83600261127c919061570d565b61128790600161573a565b81811061129657611296615724565b905060200201356040516020016112b7929190918252602082015260400190565b604051602081830303815290604052601f60008585858181106112dc576112dc615724565b90506020020160208101906112f191906150ab565b6001600160a01b0316815260208101919091526040016000209061131590826157d7565b5089898281811061132857611328615724565b905060200201602081019061133d9190615897565b601f600085858581811061135357611353615724565b905060200201602081019061136891906150ab565b6001600160a01b031681526020810191909152604001600020600190810180546fffffffffffffffffffffffffffffffff191660809390931c9290921790915501611192565b5060408051600580825260c082019092526000916020820160a0803683370190505090506802b5e3af16b1880000816000815181106113ef576113ef615724565b60200260200101818152505068056bc75e2d631000008160018151811061141857611418615724565b602002602001018181525050680821ab0d44149800008160028151811061144157611441615724565b602002602001018181525050680ad78ebc5ac62000008160038151811061146a5761146a615724565b602002602001018181525050680d8d726b7177a800008160048151811061149357611493615724565b6020026020010181815250506115146040518060400160405280601d81526020017f73657444656c656761746f724d696e5374616b652875696e74323536290000008152506040518060400160405280601381526020017f64656c656761746f724d696e5374616b6528290000000000000000000000000081525083612338565b50505060608a0135600e5560808a0135600d5560a08a0135600f5560c08a01356017556101008a01356015554260195560e08a0135601855831561159757845468ff000000000000000019168555604051600181527fc7f505b2f371ae2175ee4913f4499e1f2633a7b5936321eed1cdaeb6115181d29060200160405180910390a15b5050505050505050505050565b601e546001600160a01b031633146115ce576040516282b42960e81b815260040160405180910390fd5b60006115da60056139aa565b905060005b81518110156116125761160a8282815181106115fd576115fd615724565b60200260200101516139be565b6001016115df565b5050565b61161e613a04565b6001600160a01b0381166116455760405163d92e233d60e01b815260040160405180910390fd5b602580546001600160a01b0319166001600160a01b0383169081179091556040519081527fd4244d1f8acb4860e17399636c6b7875c75656aafb5cb3d0163d7305eace7172906020015b60405180910390a150565b6116a2613a04565b600a811115806116b457506017548110155b156116d257604051638826666f60e01b815260040160405180910390fd5b601855565b60195460175460009190156116ed5760016116f0565b60005b60ff16601b5460175483611704919061573a565b61170e919061573a565b61171891906158b2565b91505090565b3a60000361173f57604051630e661aed60e41b815260040160405180910390fd5b816001600160a01b0316836001600160a01b03160361177157604051630a5eddd560e01b815260040160405180910390fd5b3361177d848284613a5f565b611788838284613d0d565b601654604080516001600160a01b0387811682526020820186905280851692908716917f4480d8e4b1e9095b94bf513961d26fe1d32386ebdd103d18fe8738cf4b2223ff910160405180910390a450505050565b3a6000036117fd57604051630e661aed60e41b815260040160405180910390fd5b333461180a838383613d0d565b601654826001600160a01b0316846001600160a01b03167f2273de02cb1f69ba6259d22c4bc22c60e4c94c193265ef6afee324a04a9b6d228460405161185291815260200190565b60405180910390a4505050565b611867613a04565b8061187e6000356001600160e01b03191682612eb6565b6118a3576040516373330d9b60e01b8152600481018290526024015b60405180910390fd5b600e8290556040518281527ffee02ce7aa40f9c49eaabd26d404fa88714b97cb209af8954cfd5eeb8213b93e9060200160405180910390a15050565b6118e7613a04565b60408051808201825283516020808601919091206001600160e01b031990811683528183018581528751888401209091166000908152808352939093208251815463ffffffff191660e09190911c1781559251805192939261194f9260018501920190614ef0565b509050507f3d45a310c5a076ea07aa2947ca3c06cc2a8b3571065867ad6f8e7096a2c9d50a838383604051611986939291906158c5565b60405180910390a1505050565b3a6000036119b457604051630e661aed60e41b815260040160405180910390fd5b6000806119c160036139aa565b905080516000036119e557604051631c369b4560e21b815260040160405180910390fd5b60005b8151811015611bcb576000828281518110611a0557611a05615724565b60200260200101519050611a188161405d565b80611a8e5750601e54604051639d6fc1d160e01b81526001600160a01b03838116600483015290911690639d6fc1d190602401602060405180830381865afa158015611a68573d6000803e3d6000fd5b505050506040513d601f19601f82011682018060405250810190611a8c91906158fe565b155b15611a995750611bc3565b611aa460038261409b565b506001600160a01b038116600090815260208080526040808320805460ff19166001179055601c9091528120805490829055601d805491928392611ae99084906158b2565b9091555060009050611afa836129a0565b905060005b8151811015611b65576000828281518110611b1c57611b1c615724565b6020908102919091018101516001600160a01b0380881660009081526014845260408082209284168252919093528220919091559050611b5c85826140b0565b50600101611aff565b50611b70828761573a565b9550826001600160a01b0316336001600160a01b03167f8e6a4ccd7dccdca9ac211d00fcc3fa7c71be75ff73d3a35f63ea023173cc100484604051611bb791815260200190565b60405180910390a35050505b6001016119e8565b5081600003611bed57604051631c369b4560e21b815260040160405180910390fd5b6000611bfa600284615936565b90506000611c0882856158b2565b90506000601e60009054906101000a90046001600160a01b03166001600160a01b03166356b54bae6040518163ffffffff1660e01b8152600401602060405180830381865afa158015611c5f573d6000803e3d6000fd5b505050506040513d601f19601f82011682018060405250810190611c839190615958565b90506000816001600160a01b031663732524946040518163ffffffff1660e01b8152600401602060405180830381865afa158015611cc5573d6000803e3d6000fd5b505050506040513d601f19601f82011682018060405250810190611ce99190615958565b9050816001600160a01b031663af182535846040518263ffffffff1660e01b81526004016000604051808303818588803b158015611d2657600080fd5b505af1158015611d3a573d6000803e3d6000fd5b5050505050611d498185614112565b604080518481526020810186905233917f1c113e6bae9530fea40323e612aeb0cb7817dedb5a0b0f6bdfbff97d55920dc7910160405180910390a2505050505050565b601e546001600160a01b03163314611db6576040516282b42960e81b815260040160405180910390fd5b611dbf816139be565b50565b601e60009054906101000a90046001600160a01b03166001600160a01b03166356b54bae6040518163ffffffff1660e01b8152600401602060405180830381865afa158015611e15573d6000803e3d6000fd5b505050506040513d601f19601f82011682018060405250810190611e399190615958565b6001600160a01b0316336001600160a01b031614611e69576040516282b42960e81b815260040160405180910390fd5b34156116125760165460008181526021602090815260408083206001600160a01b03871680855290835281842054948452602283528184209084529091528120543492918183111561204c576000611ec0876129a0565b90506000611ece84866158b2565b90506000611edc888361570d565b611ee78960646158b2565b611ef1908761570d565b119050611f018186888a8c6141b9565b935060005b8351811015612043576000611f448389611f3c6016548f8a8881518110611f2f57611f2f615724565b6020026020010151614208565b878d8f6142a9565b905080601460008d6001600160a01b03166001600160a01b031681526020019081526020016000206000878581518110611f8057611f80615724565b60200260200101516001600160a01b03166001600160a01b031681526020019081526020016000206000828254611fb7919061573a565b90915550506001600160a01b038b166000908152600c602052604081208651839290889086908110611feb57611feb615724565b60200260200101516001600160a01b03166001600160a01b03168152602001908152602001600020600060165481526020019081526020016000206000828254612035919061573a565b909155505050600101611f06565b5050505061204f565b50825b6001600160a01b03861660009081526014602090815260408083209091528120805483929061207f90849061573a565b90915550506001600160a01b0386166000908152601c6020526040812080548692906120ac90849061573a565b9250508190555083601d60008282546120c5919061573a565b909155506120d4905086614317565b6016546001600160a01b0387167f72093068b9f28053bd924ac15d7710b987f9b6ef1e0f89f47d8b4bd7cac776dc8361210d81896158b2565b6040805192835260208301919091520160405180910390a3505050505050565b6001600160a01b0381166000908152601f602052604090208054606091906121549061574d565b80601f01602080910402602001604051908101604052809291908181526020018280546121809061574d565b80156121cd5780601f106121a2576101008083540402835291602001916121cd565b820191906000526020600020905b8154815290600101906020018083116121b057829003601f168201915b50505050509050919050565b3a6000036121fa57604051630e661aed60e41b815260040160405180910390fd5b601e54604051630526083960e11b81526001600160a01b0386811660048301523360248301819052923492911690630a4c107290604401600060405180830381600087803b15801561224b57600080fd5b505af115801561225f573d6000803e3d6000fd5b5050505061226e828383613d0d565b6001600160a01b0382166000908152601f60205260409020612291858783615975565b506001600160a01b0382166000818152601f602090815260409182902060010180546fffffffffffffffffffffffffffffffff1916608088901c179055601654915184815291929182917f2273de02cb1f69ba6259d22c4bc22c60e4c94c193265ef6afee324a04a9b6d22910160405180910390a4505050505050565b60008281526022602090815260408083206001600160a01b03851684529091529020545b92915050565b6118e7614404565b606061234c60016139aa565b905090565b601e546040516253517560e01b81526001600160a01b03848116600483015260009283929116906253517590602401602060405180830381865afa15801561239d573d6000803e3d6000fd5b505050506040513d601f19601f820116820180604052508101906123c19190615958565b90506001600160a01b038416600090815260208052604090205460ff16156123ed576000915050612332565b6001600160a01b03848116600090815260146020908152604080832087851684529091529081902054601e54915163a0d16cad60e01b815284841660048201529092919091169063a0d16cad90602401602060405180830381865afa15801561245a573d6000803e3d6000fd5b505050506040513d601f19601f8201168201806040525081019061247e91906158fe565b61248b5791506123329050565b6001600160a01b038581166000908152600c602090815260408083209388168352928152828220601654835290522054808211156124c7578091505b50949350505050565b6124d8613a04565b6124e26000614452565b565b6001600160a01b0381166000908152600b60205260409020606090612332906139aa565b601e546001600160a01b03163314612532576040516282b42960e81b815260040160405180910390fd5b6001600160a01b039092166000908152601f60205260409020600101805460f09390931c600160801b0271ffffffffffffffffffffffffffffffffffff1990931660809290921c91909117919091179055565b601e546001600160a01b031633146125af576040516282b42960e81b815260040160405180910390fd5b600d546001600160a01b038216600090815260146020908152604080832090915290205410611dbf576125e3816001613935565b611dbf81614317565b601e546001600160a01b03163314612616576040516282b42960e81b815260040160405180910390fd5b60195543601a55565b336000908152601f60205260409020612639848683615975565b50336000908152601f60205260409020600101805460f09290921c600160801b0271ffffffffffffffffffffffffffffffffffff1990921660809390931c929092171790555050565b601e546040516253517560e01b81526001600160a01b03848116600483015260009283929116906253517590602401602060405180830381865afa1580156126ce573d6000803e3d6000fd5b505050506040513d601f19601f820116820180604052508101906126f29190615958565b9050601e5460405163a0d16cad60e01b81526001600160a01b0383811660048301529091169063a0d16cad90602401602060405180830381865afa15801561273e573d6000803e3d6000fd5b505050506040513d601f19601f8201168201806040525081019061276291906158fe565b612770576000915050612332565b6001600160a01b038481166000818152600c6020908152604080832094881680845294825280832060165484528252808320549383526014825280832094835293905291909120546127c291906158b2565b949350505050565b6060600060086009548180548060200260200160405190810160405280929190818152602001828054801561281e57602002820191906000526020600020905b81548152602001906001019080831161280a575b50505050509150915091509091565b601f602052600090815260409020805481906128489061574d565b80601f01602080910402602001604051908101604052809291908181526020018280546128749061574d565b80156128c15780601f10612896576101008083540402835291602001916128c1565b820191906000526020600020905b8154815290600101906020018083116128a457829003601f168201915b50505060019093015491925050608081901b90600160801b900460f01b83565b6128e9613a04565b80516020808301919091206001600160e01b03191660009081529081905260408120805463ffffffff19168155906129246001830182614f3b565b50507f92d44565a40fe29702ffa146ddaa3bb133d4077f5312d682d0a2632a9bc73a8a8160405161168f9190615342565b601e546001600160a01b0316331461297f576040516282b42960e81b815260040160405180910390fd5b60185481601b54612990919061573a565b61299a919061573a565b601b5550565b6001600160a01b0381166000908152600a60205260409020606090612332906139aa565b60606007805480602002602001604051908101604052809291908181526020018280548015612a1c57602002820191906000526020600020905b81546001600160a01b031681526001909101906020018083116129fe575b5050505050905090565b60006123326001836144c3565b601e546001600160a01b03163314612a5d576040516282b42960e81b815260040160405180910390fd5b601854601b6000828254612a71919061573a565b9091555050565b612a80613a04565b6018548111612aa25760405163160ac89160e31b815260040160405180910390fd5b601755565b3a600003612ac857604051630e661aed60e41b815260040160405180910390fd5b6001600160a01b038216612aef5760405163d92e233d60e01b815260040160405180910390fd5b80600003612b1057604051633ca0029d60e01b815260040160405180910390fd5b6001600160a01b03821660008181526010602090815260408083203380855290835281842054858552601184528285205460148552838620838752855283862054968652601c9094529184205490949193861315612c1a57856000612b758988612682565b905080821115612ba257604051632de4882160e01b8152600481018290526024810183905260440161189a565b612bac828761573a565b9550612bb8828661573a565b9450612bc482856158b2565b9350612bd082846158b2565b925081601d6000828254612be491906158b2565b90915550506016546001600160a01b03808b166000908152601260209081526040808320938c168352929052205550612c709050565b6000612c2587615a36565b9050612c3181866158b2565b9450612c3d81856158b2565b9350612c49818461573a565b9250612c55818361573a565b915080601d6000828254612c69919061573a565b9091555050505b6001600160a01b038088166000818152601060209081526040808320948a1680845294825280832089905583835260118252808320889055601482528083208584528252808320879055838352601c90915290208390559003612d3f578115801590612cdd5750600d5482105b15612d1557604051636fe84f3d60e01b81526001600160a01b038089166004830152861660248201526044810187905260640161189a565b6000861315612d345781600003612d2f57612d2f87613995565b612dac565b612d2f876001613935565b8115801590612d4f5750600e5482105b15612d8757604051636fe84f3d60e01b81526001600160a01b038089166004830152861660248201526044810187905260640161189a565b6000861315612da25781600003612d2f57612d2f87866140b0565b612dac87866144e5565b612db587614317565b601654856001600160a01b0316886001600160a01b03167f80d5c777e5f7ac6ee89723223803ca5c0ec0204f89e99c1b0cde973c66a6459489604051612dfd91815260200190565b60405180910390a450505050505050565b60408051808201909152600081526060602082015281516020808401919091206001600160e01b0319908116600090815280835260409081902081518083018352815460e01b9093168352600181018054835181870281018701909452808452939491938583019392830182828015612ea657602002820191906000526020600020905b815481526020019060010190808311612e92575b5050505050815250509050919050565b6001600160e01b031980831660009081526020818152604080832081518083018352815460e01b909516855260018101805483518186028101860190945280845294958695909492938584019390929190830182828015612f3657602002820191906000526020600020905b815481526020019060010190808311612f22575b5050505050815250509050806020015151600003612f58576000915050612332565b60208101518151600090612f6b90614512565b905060005b82518110156130785781838281518110612f8c57612f8c615724565b602002602001015103613070576000808211612fc25783600081518110612fb557612fb5615724565b6020026020010151612fe7565b83612fce6001846158b2565b81518110612fde57612fde615724565b60200260200101515b9050600060018551612ff991906158b2565b831061302b57846001865161300e91906158b2565b8151811061301e5761301e615724565b6020026020010151613050565b8461303784600161573a565b8151811061304757613047615724565b60200260200101515b90508188141580156130625750808814155b159650505050505050612332565b600101612f70565b5060009695505050505050565b6040805180820190915260008152606060208201526001600160e01b03198083166000908152602081815260409182902082518084018452815460e01b9094168452600181018054845181850281018501909552808552919385840193909290830182828015612ea65760200282019190600052602060002090815481526020019060010190808311612e92575050505050815250509050919050565b6000601854601754601954613137919061573a565b61234c91906158b2565b6025546001600160a01b0316331461316b576040516282b42960e81b815260040160405180910390fd5b601e546040516307b9342f60e21b81526001600160a01b0384811660048301526000921690631ee4d0bc90602401602060405180830381865afa1580156131b6573d6000803e3d6000fd5b505050506040513d601f19601f820116820180604052508101906131da9190615958565b90506131e681836145e0565b505050565b3a60000361320c57604051630e661aed60e41b815260040160405180910390fd5b61321461468a565b6001600160a01b0381166000908152601260209081526040808320338085529252909120546016541161326d57604051630b06352b60e31b81526001600160a01b0380841660048301528216602482015260440161189a565b6001600160a01b038083166000908152601060209081526040808320938516835292905290812054908190036132b657604051633ca0029d60e01b815260040160405180910390fd5b6001600160a01b0380841660008181526010602090815260408083209487168352938152838220829055918152601190915220546132f59082906158b2565b6001600160a01b03808516600090815260116020908152604080832094909455601481528382209286168252919091529081205490036133395761333983836146d4565b6133438282614112565b601654826001600160a01b0316846001600160a01b03167ff380b0bc887e00f5b50d3c9d4eaaf5c9a0afd97b956316b995159384c4ede9b38460405161338b91815260200190565b60405180910390a45050611dbf60017f9b779b17422d0df92223018b32b4d1fa46e071723d6817e2486d003becc55f0055565b601e60009054906101000a90046001600160a01b03166001600160a01b03166356b54bae6040518163ffffffff1660e01b8152600401602060405180830381865afa158015613411573d6000803e3d6000fd5b505050506040513d601f19601f820116820180604052508101906134359190615958565b6001600160a01b0316336001600160a01b031614613465576040516282b42960e81b815260040160405180910390fd5b60008281526021602090815260408083206001600160a01b03851684529091528120549003611612576001600160a01b0381166000908152601c6020526040812054908190036134b457505050565b60008381526021602090815260408083206001600160a01b038616808552908352818420949094556014825280832082528083205486845260228352818420948452939091529020555050565b606061234c60056139aa565b606061234c60036139aa565b3a60000361353a57604051630e661aed60e41b815260040160405180910390fd5b601e546040516253517560e01b81523360048201819052916000916001600160a01b03909116906253517590602401602060405180830381865afa158015613586573d6000803e3d6000fd5b505050506040513d601f19601f820116820180604052508101906135aa9190615958565b905060165460001480156136275750601e5460405163facd743b60e01b81526001600160a01b0383811660048301529091169063facd743b90602401602060405180830381865afa158015613603573d6000803e3d6000fd5b505050506040513d601f19601f8201168201806040525081019061362791906158fe565b15613650576040516303d71f2d60e51b81526001600160a01b038316600482015260240161189a565b611612826139be565b601e546001600160a01b03163314613683576040516282b42960e81b815260040160405180910390fd5b6016805490600061369383615a52565b90915550506000601b55565b6136a7613a04565b6001600160a01b0381166136d157604051631e4fbdf760e01b81526000600482015260240161189a565b611dbf81614452565b3a6000036136fb57604051630e661aed60e41b815260040160405180910390fd5b61370361468a565b3361370f838284613a5f565b6137198183614112565b601654816001600160a01b0316846001600160a01b03167fa7c0f0cac6bd4d18042007706c84a8abe823751cf289b69c01e83eef7b5915c78560405161376191815260200190565b60405180910390a45061161260017f9b779b17422d0df92223018b32b4d1fa46e071723d6817e2486d003becc55f0055565b60006137a06001836144c3565b8061233257506123326003836144c3565b60c081013515806137cb57508061010001358160c0013511155b156137e95760405163c671116b60e01b815260040160405180910390fd5b80610100013560000361380f576040516332154b4760e01b815260040160405180910390fd5b60e0810135158061382857508060c001358160e0013510155b1561384657604051630685efe960e01b815260040160405180910390fd5b600061385560208301836150ab565b6001600160a01b03160361387c5760405163d92e233d60e01b815260040160405180910390fd5b61388960408201826156ad565b90506000036138ab57604051635c9a24ed60e11b815260040160405180910390fd5b606081013515806138be57506080810135155b156138ec5760405163633373e160e11b8152608082013560048201526060820135602482015260440161189a565b80608001358160a0013511611dbf57604051631c6d3b1560e01b815260040160405180910390fd5b61391c614404565b611dbf8161482a565b61392d614404565b6124e2614832565b61393e82612a26565b61397a5761394d60018361483a565b50610bb861395b600161484f565b111561397a5760405163398dcd9d60e21b815260040160405180910390fd5b61398560038361409b565b5080156116125761161282614859565b6139a060058261483a565b50611dbf8161494e565b606060006139b783614b6b565b9392505050565b6139c960018261409b565b506139d38161405d565b156139e9576139e360038261409b565b506139f2565b6139f281614bc6565b6139fb8161494e565b611dbf81614bd1565b33613a367f9016d09d72d40fdae2fd8ceac6b6234c7706214fd39c1cd1e609a0528c199300546001600160a01b031690565b6001600160a01b0316146124e25760405163118cdaa760e01b815233600482015260240161189a565b6001600160a01b038316613a865760405163d92e233d60e01b815260040160405180910390fd5b80600003613aa757604051633ca0029d60e01b815260040160405180910390fd5b6000613ab38484612351565b905080821115613ae057604051632de4882160e01b8152600481018290526024810183905260440161189a565b6001600160a01b038085166000908152601460209081526040808320938716835292905290812054613b139084906158b2565b90506000846001600160a01b0316866001600160a01b031614613b3857600e54613b3c565b600d545b90508115801590613b4c57508082105b15613b8457604051639e612d5760e01b81526001600160a01b038088166004830152861660248201526044810185905260640161189a565b856001600160a01b0316856001600160a01b031614613c1957601e546040516253517560e01b81526001600160a01b03888116600483015260009216906253517590602401602060405180830381865afa158015613be6573d6000803e3d6000fd5b505050506040513d601f19601f82011682018060405250810190613c0a9190615958565b9050613c17878288614bdc565b505b6001600160a01b038681166000818152601460209081526040808320948a16808452948252808320879055928252600c8152828220938252928352818120601654825290925290205484811015613c71576000613c7b565b613c7b85826158b2565b6001600160a01b038089166000818152600c60209081526040808320948c1683529381528382206016548352815283822094909455908152601c90925281208054879290613cca9084906158b2565b9250508190555084601d6000828254613ce391906158b2565b90915550506000839003613cfb57613cfb87876146d4565b613d0487614317565b50505050505050565b6001600160a01b038316613d345760405163d92e233d60e01b815260040160405180910390fd5b601e546040516253517560e01b81526001600160a01b03858116600483015260009216906253517590602401602060405180830381865afa158015613d7d573d6000803e3d6000fd5b505050506040513d601f19601f82011682018060405250810190613da19190615958565b90506001600160a01b038116613dd557604051632670461960e11b81526001600160a01b038516600482015260240161189a565b81600003613e095760405163e59f5c3960e01b81526001600160a01b0380861660048301528416602482015260440161189a565b6001600160a01b038416600090815260208052604090205460ff1615613e4d5760405163078137eb60e41b81526001600160a01b038516600482015260240161189a565b6001600160a01b038085166000818152601460209081526040808320948816808452949091528120549290911491613e8690859061573a565b905060008215613e995750600d54613ee8565b50600e546001600160a01b03871660009081526014602090815260408083209091528120549003613ee85760405163cbbeb0bd60e01b81526001600160a01b038816600482015260240161189a565b80821015613f1c5760405163e59f5c3960e01b81526001600160a01b0380891660048301528716602482015260440161189a565b600f546001600160a01b0388166000908152601c6020526040902054613f4390879061573a565b1115613f7557604051632c2b174160e21b81526001600160a01b0380891660048301528716602482015260440161189a565b6001600160a01b038088166000908152600c60209081526040808320938a168352928152828220601654835290529081208054879290613fb690849061573a565b90915550506001600160a01b0387166000908152601c602052604081208054879290613fe390849061573a565b9250508190555084601d6000828254613ffc919061573a565b9091555050821561401757614012876001613935565b61402c565b61402187876144e5565b61402c878588614bdc565b6001600160a01b038088166000908152601460209081526040808320938a16835292905220829055613d0487614317565b6001600160a01b0381166000908152601c60205260408120541580156123325750506001600160a01b03166000908152601160205260409020541590565b60006139b7836001600160a01b038416614cf8565b6001600160a01b0382166000908152600a602052604090206140d2908261409b565b506001600160a01b0380831660009081526010602090815260408083209385168352929052205415614108576116128282614deb565b6116128282614e0d565b8047101561413357604051631e9acf1760e31b815260040160405180910390fd5b6000826001600160a01b03168260405160006040518083038185875af1925050503d8060008114614180576040519150601f19603f3d011682016040523d82523d6000602084013e614185565b606091505b50509050806131e657604051630e21dcbb60e11b81526001600160a01b03841660048201526024810183905260440161189a565b60008415806141c6575083155b156141d3575060006141ff565b600086156141f45784868502816141ec576141ec615920565b0490506141fc565b506064828402045b90505b95945050505050565b60008360000361421a575060006139b7565b6001600160a01b0380841660009081526024602090815260408083209386168352929052205484900361427b57506001600160a01b0380831660009081526023602090815260408083209385168352928152828220868352905220546139b7565b506001600160a01b038083166000908152601460209081526040808320938516835292905220549392505050565b60008415806142b6575083155b806142bf575085155b156142cc5750600061430d565b600087156142ed5786868502816142e5576142e5615920565b04905061430a565b8460640283606403878602028161430657614306615920565b0490505b90505b9695505050505050565b601e546040516253517560e01b81526001600160a01b03838116600483015260009216906253517590602401602060405180830381865afa158015614360573d6000803e3d6000fd5b505050506040513d601f19601f820116820180604052508101906143849190615958565b602554604051633941e77760e21b81526001600160a01b0380841660048301529293506000929091169063e5079ddc90602401602060405180830381865afa1580156143d4573d6000803e3d6000fd5b505050506040513d601f19601f820116820180604052508101906143f89190615a6b565b90506131e683826145e0565b7ff0c57e16840df040f15088dc2f81fe391c3923bec73e23a9662efc9c229c6a005468010000000000000000900460ff166124e257604051631afcd79f60e31b815260040160405180910390fd5b7f9016d09d72d40fdae2fd8ceac6b6234c7706214fd39c1cd1e609a0528c19930080546001600160a01b031981166001600160a01b03848116918217845560405192169182907f8be0079c531659141344cd1fd0a4f28419497f9722a3daafe3b4186f6b6457e090600090a3505050565b6001600160a01b038116600090815260018301602052604081205415156139b7565b6001600160a01b0382166000908152600a60205260409020614507908261483a565b506116128282614e0d565b60408051600481526024810182526020810180517bffffffffffffffffffffffffffffffffffffffffffffffffffffffff166001600160e01b03198516179052905160009190829081903090614569908590615a84565b600060405180830381855afa9150503d80600081146145a4576040519150601f19603f3d011682016040523d82523d6000602084013e6145a9565b606091505b5091509150816145cc57604051635fbab09b60e11b815260040160405180910390fd5b808060200190518101906141ff9190615a6b565b6000806145ec84614e2f565b91509150816145fb5750505050565b60006008828154811061461057614610615724565b60009182526020808320909101546001600160a01b0388168352601c909152604082205490925061464290869061570d565b9050806008848154811061465857614658615724565b9060005260206000200181905550808260095461467591906158b2565b61467f919061573a565b600955505050505050565b7f9b779b17422d0df92223018b32b4d1fa46e071723d6817e2486d003becc55f008054600119016146ce57604051633ee5aeb560e01b815260040160405180910390fd5b60029055565b816001600160a01b0316816001600160a01b0316036147e157601e546040516253517560e01b81526001600160a01b03848116600483015260009216906253517590602401602060405180830381865afa158015614736573d6000803e3d6000fd5b505050506040513d601f19601f8201168201806040525081019061475a9190615958565b601e5460405163facd743b60e01b81526001600160a01b03808416600483015292935091169063facd743b90602401602060405180830381865afa1580156147a6573d6000803e3d6000fd5b505050506040513d601f19601f820116820180604052508101906147ca91906158fe565b156147d8576131e683613995565b6131e6836139be565b6147eb82826140b0565b6147f48261405d565b15611612576131e660038361409b565b60017f9b779b17422d0df92223018b32b4d1fa46e071723d6817e2486d003becc55f0055565b6136a7614404565b614804614404565b60006139b7836001600160a01b038416614ea1565b6000612332825490565b6001600160a01b03811660009081526013602052604090205460075480821015806148b45750826001600160a01b03166007838154811061489c5761489c615724565b6000918252602090912001546001600160a01b031614155b15614945576001600160a01b03831660008181526013602052604081208390556007805460018181019092557fa66cc928b5edb82af9bd49922954155ab7b0942694bea4ce44661d9a8736c6880180546001600160a01b03191690931790925560088054928301815581527ff3f7a9fe364faab93b216da50a3214154f22a0a2b415b23a84c8169e8b636ee3909101555b6131e683614bd1565b6008546007541461495c5750565b6001600160a01b038116600090815260136020526040902054600754811080156149b55750816001600160a01b03166007828154811061499e5761499e615724565b6000918252602090912001546001600160a01b0316145b1561161257600881815481106149cd576149cd615724565b906000526020600020015460095410614a1a57600881815481106149f3576149f3615724565b906000526020600020015460096000828254614a0f91906158b2565b90915550614a209050565b60006009555b600754600090614a32906001906158b2565b9050600060078281548110614a4957614a49615724565b600091825260209091200154600780546001600160a01b039092169250829185908110614a7857614a78615724565b9060005260206000200160006101000a8154816001600160a01b0302191690836001600160a01b0316021790555060088281548110614ab957614ab9615724565b906000526020600020015460088481548110614ad757614ad7615724565b60009182526020808320909101929092556001600160a01b038084168252601390925260408082208690559186168152908120556007805480614b1c57614b1c615aa0565b600082815260209020810160001990810180546001600160a01b03191690550190556008805480614b4f57614b4f615aa0565b6001900381819060005260206000200160009055905550505050565b6060816000018054806020026020016040519081016040528092919081815260200182805480156121cd57602002820191906000526020600020905b815481526020019060010190808311614ba75750505050509050919050565b61161260038261483a565b61161260058261409b565b601e5460405163a0d16cad60e01b81526001600160a01b0384811660048301529091169063a0d16cad90602401602060405180830381865afa158015614c26573d6000803e3d6000fd5b505050506040513d601f19601f82011682018060405250810190614c4a91906158fe565b1580614c565750601654155b15614c6057505050565b6001600160a01b03808416600090815260246020908152604080832093851683529290522054601654811015614cf2576001600160a01b0380851660008181526014602090815260408083209487168084529482528083205484845260238352818420868552835281842060168054865290845282852091909155549383526024825280832094835293905291909120555b50505050565b60008181526001830160205260408120548015614de1576000614d1c6001836158b2565b8554909150600090614d30906001906158b2565b9050808214614d95576000866000018281548110614d5057614d50615724565b9060005260206000200154905080876000018481548110614d7357614d73615724565b6000918252602080832090910192909255918252600188019052604090208390555b8554869080614da657614da6615aa0565b600190038181906000526020600020016000905590558560010160008681526020019081526020016000206000905560019350505050612332565b6000915050612332565b6001600160a01b0382166000908152600b602052604090206131e6908261483a565b6001600160a01b0382166000908152600b602052604090206131e6908261409b565b6001600160a01b03811660009081526013602052604081205460075481108015614e885750826001600160a01b031660078281548110614e7157614e71615724565b6000918252602090912001546001600160a01b0316145b15614e965760019150915091565b506000928392509050565b6000818152600183016020526040812054614ee857508154600181810184556000848152602080822090930184905584548482528286019093526040902091909155612332565b506000612332565b828054828255906000526020600020908101928215614f2b579160200282015b82811115614f2b578251825591602001919060010190614f10565b50614f37929150614f55565b5090565b5080546000825590600052602060002090810190611dbf91905b5b80821115614f375760008155600101614f56565b6001600160a01b0381168114611dbf57600080fd5b60008083601f840112614f9157600080fd5b50813567ffffffffffffffff811115614fa957600080fd5b6020830191508360208260051b8501011115614fc457600080fd5b9250929050565b60008060008060008060808789031215614fe457600080fd5b8635614fef81614f6a565b9550602087013567ffffffffffffffff8082111561500c57600080fd5b90880190610120828b03121561502157600080fd5b9095506040880135908082111561503757600080fd5b6150438a838b01614f7f565b9096509450606089013591508082111561505c57600080fd5b5061506989828a01614f7f565b979a9699509497509295939492505050565b6000806040838503121561508e57600080fd5b8235915060208301356150a081614f6a565b809150509250929050565b6000602082840312156150bd57600080fd5b81356139b781614f6a565b6000602082840312156150da57600080fd5b5035919050565b6000806000606084860312156150f657600080fd5b833561510181614f6a565b9250602084013561511181614f6a565b929592945050506040919091013590565b634e487b7160e01b600052604160045260246000fd5b604051601f8201601f1916810167ffffffffffffffff8111828210171561516157615161615122565b604052919050565b600082601f83011261517a57600080fd5b813567ffffffffffffffff81111561519457615194615122565b6151a7601f8201601f1916602001615138565b8181528460208386010111156151bc57600080fd5b816020850160208301376000918101602001919091529392505050565b6000806000606084860312156151ee57600080fd5b833567ffffffffffffffff8082111561520657600080fd5b61521287838801615169565b945060209150818601358181111561522957600080fd5b61523588828901615169565b94505060408601358181111561524a57600080fd5b8601601f8101881361525b57600080fd5b80358281111561526d5761526d615122565b8060051b925061527e848401615138565b818152928201840192848101908a85111561529857600080fd5b928501925b848410156152b65783358252928501929085019061529d565b8096505050505050509250925092565b600080604083850312156152d957600080fd5b82356152e481614f6a565b946020939093013593505050565b60005b8381101561530d5781810151838201526020016152f5565b50506000910152565b6000815180845261532e8160208601602086016152f2565b601f01601f19169290920160200192915050565b6020815260006139b76020830184615316565b60008083601f84011261536757600080fd5b50813567ffffffffffffffff81111561537f57600080fd5b602083019150836020828501011115614fc457600080fd5b80356fffffffffffffffffffffffffffffffff19811681146153b857600080fd5b919050565b600080600080606085870312156153d357600080fd5b84356153de81614f6a565b9350602085013567ffffffffffffffff8111156153fa57600080fd5b61540687828801615355565b9094509250615419905060408601615397565b905092959194509250565b6020808252825182820181905260009190848201906040850190845b818110156154655783516001600160a01b031683529284019291840191600101615440565b50909695505050505050565b6000806040838503121561548457600080fd5b823561548f81614f6a565b915060208301356150a081614f6a565b80356001600160f01b0319811681146153b857600080fd5b6000806000606084860312156154cc57600080fd5b83356154d781614f6a565b92506154e560208501615397565b91506154f36040850161549f565b90509250925092565b6000806000806060858703121561551257600080fd5b843567ffffffffffffffff81111561552957600080fd5b61553587828801615355565b9095509350615548905060208601615397565b91506154196040860161549f565b80356001600160e01b0319811681146153b857600080fd5b60006020828403121561558057600080fd5b6139b782615556565b60008151808452602080850194506020840160005b838110156155ba5781518752958201959082019060010161559e565b509495945050505050565b6040815260006155d86040830185615589565b90508260208301529392505050565b6060815260006155fa6060830186615316565b6fffffffffffffffffffffffffffffffff19949094166020830152506001600160f01b031991909116604090910152919050565b60006020828403121561564057600080fd5b813567ffffffffffffffff81111561565757600080fd5b6127c284828501615169565b602080825282516001600160e01b031916828201528201516040808301526000906127c26060840182615589565b600080604083850312156156a457600080fd5b6152e483615556565b6000808335601e198436030181126156c457600080fd5b83018035915067ffffffffffffffff8211156156df57600080fd5b6020019150600581901b3603821315614fc457600080fd5b634e487b7160e01b600052601160045260246000fd5b8082028115828204841417612332576123326156f7565b634e487b7160e01b600052603260045260246000fd5b80820180821115612332576123326156f7565b600181811c9082168061576157607f821691505b60208210810361578157634e487b7160e01b600052602260045260246000fd5b50919050565b601f8211156131e6576000816000526020600020601f850160051c810160208610156157b05750805b601f850160051c820191505b818110156157cf578281556001016157bc565b505050505050565b815167ffffffffffffffff8111156157f1576157f1615122565b615805816157ff845461574d565b84615787565b602080601f83116001811461583a57600084156158225750858301515b600019600386901b1c1916600185901b1785556157cf565b600085815260208120601f198616915b828110156158695788860151825594840194600190910190840161584a565b50858210156158875787850151600019600388901b60f8161c191681555b5050505050600190811b01905550565b6000602082840312156158a957600080fd5b6139b782615397565b81810381811115612332576123326156f7565b6060815260006158d86060830186615316565b82810360208401526158ea8186615316565b9050828103604084015261430d8185615589565b60006020828403121561591057600080fd5b815180151581146139b757600080fd5b634e487b7160e01b600052601260045260246000fd5b60008261595357634e487b7160e01b600052601260045260246000fd5b500490565b60006020828403121561596a57600080fd5b81516139b781614f6a565b67ffffffffffffffff83111561598d5761598d615122565b6159a18361599b835461574d565b83615787565b6000601f8411600181146159d557600085156159bd5750838201355b600019600387901b1c1916600186901b178355615a2f565b600083815260209020601f19861690835b82811015615a0657868501358255602094850194600190920191016159e6565b5086821015615a235760001960f88860031b161c19848701351681555b505060018560011b0183555b5050505050565b6000600160ff1b8201615a4b57615a4b6156f7565b5060000390565b600060018201615a6457615a646156f7565b5060010190565b600060208284031215615a7d57600080fd5b5051919050565b60008251615a968184602087016152f2565b9190910192915050565b634e487b7160e01b600052603160045260246000fdfea2646970667358221220a27ac4afc3a1cd123eb5c1b0eb5e5dc8a466d47744fb7f0bf5cd8d016f6364e164736f6c63430008190033",
  "linkReferences": {},
  "deployedLinkReferences": {}
}