{
  "_format": "hh-sol-artifact-1",
  "contractName": "StakingHbbft",
  "sourceName": "contracts/StakingHbbft.sol",
  "abi": [
    {
      "inputs": [],
      "stateMutability": "nonpayable",
      "type": "constructor"
    },
    {
      "inputs": [
        {
          "internalType": "address",
          "name": "pool",
          "type": "address"
        },
        {
          "internalType": "address",
          "name": "staker",
          "type": "address"
        }
      ],
      "name": "CannotClaimWithdrawOrderYet",
      "type": "error"
    },
    {
      "inputs": [],
      "name": "GetterCallFailed",
      "type": "error"
    },
    {
      "inputs": [],
      "name": "InitialStakingPoolsListEmpty",
      "type": "error"
    },
    {
      "inputs": [],
      "name": "InsufficientBalance",
      "type": "error"
    },
    {
      "inputs": [
        {
          "internalType": "address",
          "name": "pool",
          "type": "address"
        },
        {
          "internalType": "address",
          "name": "delegator",
          "type": "address"
        }
      ],
      "name": "InsufficientStakeAmount",
      "type": "error"
    },
    {
      "inputs": [],
      "name": "InvalidFixedEpochDuration",
      "type": "error"
    },
    {
      "inputs": [
        {
          "internalType": "uint256",
          "name": "candidateStake",
          "type": "uint256"
        },
        {
          "internalType": "uint256",
          "name": "delegatorStake",
          "type": "uint256"
        }
      ],
      "name": "InvalidInitialStakeAmount",
      "type": "error"
    },
    {
      "inputs": [],
      "name": "InvalidInitialization",
      "type": "error"
    },
    {
      "inputs": [],
      "name": "InvalidIpAddressesCount",
      "type": "error"
    },
    {
      "inputs": [],
      "name": "InvalidMaxStakeAmount",
      "type": "error"
    },
    {
      "inputs": [],
      "name": "InvalidMoveStakePoolsAddress",
      "type": "error"
    },
    {
      "inputs": [
        {
          "internalType": "address",
          "name": "pool",
          "type": "address"
        },
        {
          "internalType": "address",
          "name": "delegator",
          "type": "address"
        },
        {
          "internalType": "int256",
          "name": "amount",
          "type": "int256"
        }
      ],
      "name": "InvalidOrderWithdrawAmount",
      "type": "error"
    },
    {
      "inputs": [],
      "name": "InvalidPublicKeysCount",
      "type": "error"
    },
    {
      "inputs": [],
      "name": "InvalidStakingFixedEpochDuration",
      "type": "error"
    },
    {
      "inputs": [],
      "name": "InvalidStakingTransitionTimeframe",
      "type": "error"
    },
    {
      "inputs": [],
      "name": "InvalidTransitionTimeFrame",
      "type": "error"
    },
    {
      "inputs": [
        {
          "internalType": "address",
          "name": "pool",
          "type": "address"
        },
        {
          "internalType": "address",
          "name": "delegator",
          "type": "address"
        },
        {
          "internalType": "uint256",
          "name": "amount",
          "type": "uint256"
        }
      ],
      "name": "InvalidWithdrawAmount",
      "type": "error"
    },
    {
      "inputs": [
        {
          "internalType": "uint256",
          "name": "allowed",
          "type": "uint256"
        },
        {
          "internalType": "uint256",
          "name": "desired",
          "type": "uint256"
        }
      ],
      "name": "MaxAllowedWithdrawExceeded",
      "type": "error"
    },
    {
      "inputs": [],
      "name": "MaxPoolsCountExceeded",
      "type": "error"
    },
    {
      "inputs": [
        {
          "internalType": "uint256",
          "name": "_newVal",
          "type": "uint256"
        }
      ],
      "name": "NewValueOutOfRange",
      "type": "error"
    },
    {
      "inputs": [],
      "name": "NoStakesToRecover",
      "type": "error"
    },
    {
      "inputs": [],
      "name": "NotInitializing",
      "type": "error"
    },
    {
      "inputs": [],
      "name": "NotPayable",
      "type": "error"
    },
    {
      "inputs": [
        {
          "internalType": "address",
          "name": "owner",
          "type": "address"
        }
      ],
      "name": "OwnableInvalidOwner",
      "type": "error"
    },
    {
      "inputs": [
        {
          "internalType": "address",
          "name": "account",
          "type": "address"
        }
      ],
      "name": "OwnableUnauthorizedAccount",
      "type": "error"
    },
    {
      "inputs": [
        {
          "internalType": "address",
          "name": "pool",
          "type": "address"
        }
      ],
      "name": "PoolAbandoned",
      "type": "error"
    },
    {
      "inputs": [
        {
          "internalType": "address",
          "name": "pool",
          "type": "address"
        }
      ],
      "name": "PoolCannotBeRemoved",
      "type": "error"
    },
    {
      "inputs": [
        {
          "internalType": "address",
          "name": "pool",
          "type": "address"
        }
      ],
      "name": "PoolEmpty",
      "type": "error"
    },
    {
      "inputs": [
        {
          "internalType": "address",
          "name": "pool",
          "type": "address"
        }
      ],
      "name": "PoolMiningBanned",
      "type": "error"
    },
    {
      "inputs": [
        {
          "internalType": "address",
          "name": "pool",
          "type": "address"
        }
      ],
      "name": "PoolNotExist",
      "type": "error"
    },
    {
      "inputs": [
        {
          "internalType": "address",
          "name": "pool",
          "type": "address"
        },
        {
          "internalType": "address",
          "name": "delegator",
          "type": "address"
        }
      ],
      "name": "PoolStakeLimitExceeded",
      "type": "error"
    },
    {
      "inputs": [],
      "name": "ReentrancyGuardReentrantCall",
      "type": "error"
    },
    {
      "inputs": [
        {
          "internalType": "address",
          "name": "recipient",
          "type": "address"
        },
        {
          "internalType": "uint256",
          "name": "amount",
          "type": "uint256"
        }
      ],
      "name": "TransferFailed",
      "type": "error"
    },
    {
      "inputs": [],
      "name": "Unauthorized",
      "type": "error"
    },
    {
      "inputs": [],
      "name": "WithdrawNotAllowed",
      "type": "error"
    },
    {
      "inputs": [],
      "name": "ZeroAddress",
      "type": "error"
    },
    {
      "inputs": [],
      "name": "ZeroGasPrice",
      "type": "error"
    },
    {
      "inputs": [],
      "name": "ZeroWidthrawAmount",
      "type": "error"
    },
    {
      "inputs": [],
      "name": "ZeroWidthrawDisallowPeriod",
      "type": "error"
    },
    {
      "anonymous": false,
      "inputs": [
        {
          "indexed": true,
          "internalType": "address",
          "name": "fromPoolStakingAddress",
          "type": "address"
        },
        {
          "indexed": true,
          "internalType": "address",
          "name": "staker",
          "type": "address"
        },
        {
          "indexed": true,
          "internalType": "uint256",
          "name": "stakingEpoch",
          "type": "uint256"
        },
        {
          "indexed": false,
          "internalType": "uint256",
          "name": "amount",
          "type": "uint256"
        }
      ],
      "name": "ClaimedOrderedWithdrawal",
      "type": "event"
    },
    {
      "anonymous": false,
      "inputs": [
        {
          "indexed": true,
          "internalType": "address",
          "name": "caller",
          "type": "address"
        },
        {
          "indexed": true,
          "internalType": "address",
          "name": "stakingAddress",
          "type": "address"
        },
        {
          "indexed": false,
          "internalType": "uint256",
          "name": "gatheredFunds",
          "type": "uint256"
        }
      ],
      "name": "GatherAbandonedStakes",
      "type": "event"
    },
    {
      "anonymous": false,
      "inputs": [
        {
          "indexed": false,
          "internalType": "uint64",
          "name": "version",
          "type": "uint64"
        }
      ],
      "name": "Initialized",
      "type": "event"
    },
    {
      "anonymous": false,
      "inputs": [
        {
          "indexed": false,
          "internalType": "address",
          "name": "fromPoolStakingAddress",
          "type": "address"
        },
        {
          "indexed": true,
          "internalType": "address",
          "name": "toPoolStakingAddress",
          "type": "address"
        },
        {
          "indexed": true,
          "internalType": "address",
          "name": "staker",
          "type": "address"
        },
        {
          "indexed": true,
          "internalType": "uint256",
          "name": "stakingEpoch",
          "type": "uint256"
        },
        {
          "indexed": false,
          "internalType": "uint256",
          "name": "amount",
          "type": "uint256"
        }
      ],
      "name": "MovedStake",
      "type": "event"
    },
    {
      "anonymous": false,
      "inputs": [
        {
          "indexed": true,
          "internalType": "address",
          "name": "fromPoolStakingAddress",
          "type": "address"
        },
        {
          "indexed": true,
          "internalType": "address",
          "name": "staker",
          "type": "address"
        },
        {
          "indexed": true,
          "internalType": "uint256",
          "name": "stakingEpoch",
          "type": "uint256"
        },
        {
          "indexed": false,
          "internalType": "int256",
          "name": "amount",
          "type": "int256"
        }
      ],
      "name": "OrderedWithdrawal",
      "type": "event"
    },
    {
      "anonymous": false,
      "inputs": [
        {
          "indexed": true,
          "internalType": "address",
          "name": "previousOwner",
          "type": "address"
        },
        {
          "indexed": true,
          "internalType": "address",
          "name": "newOwner",
          "type": "address"
        }
      ],
      "name": "OwnershipTransferred",
      "type": "event"
    },
    {
      "anonymous": false,
      "inputs": [
        {
          "indexed": true,
          "internalType": "address",
          "name": "toPoolStakingAddress",
          "type": "address"
        },
        {
          "indexed": true,
          "internalType": "address",
          "name": "staker",
          "type": "address"
        },
        {
          "indexed": true,
          "internalType": "uint256",
          "name": "stakingEpoch",
          "type": "uint256"
        },
        {
          "indexed": false,
          "internalType": "uint256",
          "name": "amount",
          "type": "uint256"
        }
      ],
      "name": "PlacedStake",
      "type": "event"
    },
    {
      "anonymous": false,
      "inputs": [
        {
          "indexed": true,
          "internalType": "address",
          "name": "caller",
          "type": "address"
        },
        {
          "indexed": false,
          "internalType": "uint256",
          "name": "reinsertShare",
          "type": "uint256"
        },
        {
          "indexed": false,
          "internalType": "uint256",
          "name": "governanceShare",
          "type": "uint256"
        }
      ],
      "name": "RecoverAbandonedStakes",
      "type": "event"
    },
    {
      "anonymous": false,
      "inputs": [
        {
          "indexed": false,
          "internalType": "string",
          "name": "funcSelector",
          "type": "string"
        }
      ],
      "name": "RemoveChangeAbleParameter",
      "type": "event"
    },
    {
      "anonymous": false,
      "inputs": [
        {
          "indexed": true,
          "internalType": "address",
          "name": "poolStakingAddress",
          "type": "address"
        },
        {
          "indexed": true,
          "internalType": "uint256",
          "name": "stakingEpoch",
          "type": "uint256"
        },
        {
          "indexed": false,
          "internalType": "uint256",
          "name": "validatorReward",
          "type": "uint256"
        },
        {
          "indexed": false,
          "internalType": "uint256",
          "name": "delegatorsReward",
          "type": "uint256"
        }
      ],
      "name": "RestakeReward",
      "type": "event"
    },
    {
      "anonymous": false,
      "inputs": [
        {
          "indexed": false,
          "internalType": "address",
          "name": "_address",
          "type": "address"
        }
      ],
      "name": "SetBonusScoreContract",
      "type": "event"
    },
    {
      "anonymous": false,
      "inputs": [
        {
          "indexed": false,
          "internalType": "string",
          "name": "setter",
          "type": "string"
        },
        {
          "indexed": false,
          "internalType": "string",
          "name": "getter",
          "type": "string"
        },
        {
          "indexed": false,
          "internalType": "uint256[]",
          "name": "params",
          "type": "uint256[]"
        }
      ],
      "name": "SetChangeAbleParameter",
      "type": "event"
    },
    {
      "anonymous": false,
      "inputs": [
        {
          "indexed": false,
          "internalType": "uint256",
          "name": "minStake",
          "type": "uint256"
        }
      ],
      "name": "SetDelegatorMinStake",
      "type": "event"
    },
    {
      "anonymous": false,
      "inputs": [
        {
          "indexed": true,
          "internalType": "address",
          "name": "fromPoolStakingAddress",
          "type": "address"
        },
        {
          "indexed": true,
          "internalType": "address",
          "name": "staker",
          "type": "address"
        },
        {
          "indexed": true,
          "internalType": "uint256",
          "name": "stakingEpoch",
          "type": "uint256"
        },
        {
          "indexed": false,
          "internalType": "uint256",
          "name": "amount",
          "type": "uint256"
        }
      ],
      "name": "WithdrewStake",
      "type": "event"
    },
    {
      "inputs": [],
      "name": "MAX_CANDIDATES",
      "outputs": [
        {
          "internalType": "uint256",
          "name": "",
          "type": "uint256"
        }
      ],
      "stateMutability": "view",
      "type": "function"
    },
    {
      "inputs": [
        {
          "internalType": "address",
          "name": "",
          "type": "address"
        }
      ],
      "name": "abandonedAndRemoved",
      "outputs": [
        {
          "internalType": "bool",
          "name": "",
          "type": "bool"
        }
      ],
      "stateMutability": "view",
      "type": "function"
    },
    {
      "inputs": [
        {
          "internalType": "address",
          "name": "_miningAddress",
          "type": "address"
        },
        {
          "internalType": "bytes",
          "name": "_publicKey",
          "type": "bytes"
        },
        {
          "internalType": "bytes16",
          "name": "_ip",
          "type": "bytes16"
        }
      ],
      "name": "addPool",
      "outputs": [],
      "stateMutability": "payable",
      "type": "function"
    },
    {
      "inputs": [
        {
          "internalType": "bytes4",
          "name": "",
          "type": "bytes4"
        }
      ],
      "name": "allowedParameterRange",
      "outputs": [
        {
          "internalType": "bytes4",
          "name": "getter",
          "type": "bytes4"
        }
      ],
      "stateMutability": "view",
      "type": "function"
    },
    {
      "inputs": [],
      "name": "areStakeAndWithdrawAllowed",
      "outputs": [
        {
          "internalType": "bool",
          "name": "",
          "type": "bool"
        }
      ],
      "stateMutability": "pure",
      "type": "function"
    },
    {
      "inputs": [],
      "name": "bonusScoreContract",
      "outputs": [
        {
          "internalType": "contract IBonusScoreSystem",
          "name": "",
          "type": "address"
        }
      ],
      "stateMutability": "view",
      "type": "function"
    },
    {
      "inputs": [],
      "name": "candidateMinStake",
      "outputs": [
        {
          "internalType": "uint256",
          "name": "",
          "type": "uint256"
        }
      ],
      "stateMutability": "view",
      "type": "function"
    },
    {
      "inputs": [
        {
          "internalType": "address",
          "name": "_poolStakingAddress",
          "type": "address"
        }
      ],
      "name": "claimOrderedWithdraw",
      "outputs": [],
      "stateMutability": "nonpayable",
      "type": "function"
    },
    {
      "inputs": [],
      "name": "currentKeyGenExtraTimeWindow",
      "outputs": [
        {
          "internalType": "uint256",
          "name": "",
          "type": "uint256"
        }
      ],
      "stateMutability": "view",
      "type": "function"
    },
    {
      "inputs": [],
      "name": "delegatorMinStake",
      "outputs": [
        {
          "internalType": "uint256",
          "name": "",
          "type": "uint256"
        }
      ],
      "stateMutability": "view",
      "type": "function"
    },
    {
      "inputs": [
        {
          "internalType": "string",
          "name": "_selector",
          "type": "string"
        }
      ],
      "name": "getAllowedParamsRange",
      "outputs": [
        {
          "components": [
            {
              "internalType": "bytes4",
              "name": "getter",
              "type": "bytes4"
            },
            {
              "internalType": "uint256[]",
              "name": "range",
              "type": "uint256[]"
            }
          ],
          "internalType": "struct ValueGuards.ParameterRange",
          "name": "",
          "type": "tuple"
        }
      ],
      "stateMutability": "view",
      "type": "function"
    },
    {
      "inputs": [
        {
          "internalType": "address",
          "name": "_poolAddress",
          "type": "address"
        }
      ],
      "name": "getPoolInternetAddress",
      "outputs": [
        {
          "internalType": "bytes16",
          "name": "",
          "type": "bytes16"
        },
        {
          "internalType": "bytes2",
          "name": "",
          "type": "bytes2"
        }
      ],
      "stateMutability": "view",
      "type": "function"
    },
    {
      "inputs": [
        {
          "internalType": "address",
          "name": "_poolAddress",
          "type": "address"
        }
      ],
      "name": "getPoolPublicKey",
      "outputs": [
        {
          "internalType": "bytes",
          "name": "",
          "type": "bytes"
        }
      ],
      "stateMutability": "view",
      "type": "function"
    },
    {
      "inputs": [
        {
          "internalType": "uint256",
          "name": "_epoch",
          "type": "uint256"
        },
        {
          "internalType": "address",
          "name": "_stakingPool",
          "type": "address"
        }
      ],
      "name": "getPoolValidatorStakeAmount",
      "outputs": [
        {
          "internalType": "uint256",
          "name": "",
          "type": "uint256"
        }
      ],
      "stateMutability": "view",
      "type": "function"
    },
    {
      "inputs": [],
      "name": "getPools",
      "outputs": [
        {
          "internalType": "address[]",
          "name": "",
          "type": "address[]"
        }
      ],
      "stateMutability": "view",
      "type": "function"
    },
    {
      "inputs": [],
      "name": "getPoolsInactive",
      "outputs": [
        {
          "internalType": "address[]",
          "name": "",
          "type": "address[]"
        }
      ],
      "stateMutability": "view",
      "type": "function"
    },
    {
      "inputs": [],
      "name": "getPoolsLikelihood",
      "outputs": [
        {
          "internalType": "uint256[]",
          "name": "likelihoods",
          "type": "uint256[]"
        },
        {
          "internalType": "uint256",
          "name": "sum",
          "type": "uint256"
        }
      ],
      "stateMutability": "view",
      "type": "function"
    },
    {
      "inputs": [],
      "name": "getPoolsToBeElected",
      "outputs": [
        {
          "internalType": "address[]",
          "name": "",
          "type": "address[]"
        }
      ],
      "stateMutability": "view",
      "type": "function"
    },
    {
      "inputs": [],
      "name": "getPoolsToBeRemoved",
      "outputs": [
        {
          "internalType": "address[]",
          "name": "",
          "type": "address[]"
        }
      ],
      "stateMutability": "view",
      "type": "function"
    },
    {
      "inputs": [],
      "name": "incrementStakingEpoch",
      "outputs": [],
      "stateMutability": "nonpayable",
      "type": "function"
    },
    {
      "inputs": [
        {
          "internalType": "string",
          "name": "setter",
          "type": "string"
        },
        {
          "internalType": "string",
          "name": "getter",
          "type": "string"
        },
        {
          "internalType": "uint256[]",
          "name": "params",
          "type": "uint256[]"
        }
      ],
      "name": "initAllowedChangeableParameter",
      "outputs": [],
      "stateMutability": "nonpayable",
      "type": "function"
    },
    {
      "inputs": [
        {
          "internalType": "address",
          "name": "_contractOwner",
          "type": "address"
        },
        {
          "components": [
            {
              "internalType": "address",
              "name": "_validatorSetContract",
              "type": "address"
            },
            {
              "internalType": "address",
              "name": "_bonusScoreContract",
              "type": "address"
            },
            {
              "internalType": "address[]",
              "name": "_initialStakingAddresses",
              "type": "address[]"
            },
            {
              "internalType": "uint256",
              "name": "_delegatorMinStake",
              "type": "uint256"
            },
            {
              "internalType": "uint256",
              "name": "_candidateMinStake",
              "type": "uint256"
            },
            {
              "internalType": "uint256",
              "name": "_maxStake",
              "type": "uint256"
            },
            {
              "internalType": "uint256",
              "name": "_stakingFixedEpochDuration",
              "type": "uint256"
            },
            {
              "internalType": "uint256",
              "name": "_stakingTransitionTimeframeLength",
              "type": "uint256"
            },
            {
              "internalType": "uint256",
              "name": "_stakingWithdrawDisallowPeriod",
              "type": "uint256"
            }
          ],
          "internalType": "struct IStakingHbbft.StakingParams",
          "name": "stakingParams",
          "type": "tuple"
        },
        {
          "internalType": "bytes32[]",
          "name": "_publicKeys",
          "type": "bytes32[]"
        },
        {
          "internalType": "bytes16[]",
          "name": "_internetAddresses",
          "type": "bytes16[]"
        }
      ],
      "name": "initialize",
      "outputs": [],
      "stateMutability": "nonpayable",
      "type": "function"
    },
    {
      "inputs": [
        {
          "internalType": "address",
          "name": "_stakingAddress",
          "type": "address"
        }
      ],
      "name": "isPoolActive",
      "outputs": [
        {
          "internalType": "bool",
          "name": "",
          "type": "bool"
        }
      ],
      "stateMutability": "view",
      "type": "function"
    },
    {
      "inputs": [
        {
          "internalType": "bytes4",
          "name": "funcSelector",
          "type": "bytes4"
        },
        {
          "internalType": "uint256",
          "name": "newVal",
          "type": "uint256"
        }
      ],
      "name": "isWithinAllowedRange",
      "outputs": [
        {
          "internalType": "bool",
          "name": "",
          "type": "bool"
        }
      ],
      "stateMutability": "view",
      "type": "function"
    },
    {
      "inputs": [],
      "name": "maxStakeAmount",
      "outputs": [
        {
          "internalType": "uint256",
          "name": "",
          "type": "uint256"
        }
      ],
      "stateMutability": "view",
      "type": "function"
    },
    {
      "inputs": [
        {
          "internalType": "address",
          "name": "_poolStakingAddress",
          "type": "address"
        },
        {
          "internalType": "address",
          "name": "_staker",
          "type": "address"
        }
      ],
      "name": "maxWithdrawAllowed",
      "outputs": [
        {
          "internalType": "uint256",
          "name": "",
          "type": "uint256"
        }
      ],
      "stateMutability": "view",
      "type": "function"
    },
    {
      "inputs": [
        {
          "internalType": "address",
          "name": "_poolStakingAddress",
          "type": "address"
        },
        {
          "internalType": "address",
          "name": "_staker",
          "type": "address"
        }
      ],
      "name": "maxWithdrawOrderAllowed",
      "outputs": [
        {
          "internalType": "uint256",
          "name": "",
          "type": "uint256"
        }
      ],
      "stateMutability": "view",
      "type": "function"
    },
    {
      "inputs": [
        {
          "internalType": "address",
          "name": "_fromPoolStakingAddress",
          "type": "address"
        },
        {
          "internalType": "address",
          "name": "_toPoolStakingAddress",
          "type": "address"
        },
        {
          "internalType": "uint256",
          "name": "_amount",
          "type": "uint256"
        }
      ],
      "name": "moveStake",
      "outputs": [],
      "stateMutability": "nonpayable",
      "type": "function"
    },
    {
      "inputs": [
        {
          "internalType": "address",
          "name": "_stakingAddress",
          "type": "address"
        }
      ],
      "name": "notifyAvailability",
      "outputs": [],
      "stateMutability": "nonpayable",
      "type": "function"
    },
    {
      "inputs": [],
      "name": "notifyKeyGenFailed",
      "outputs": [],
      "stateMutability": "nonpayable",
      "type": "function"
    },
    {
      "inputs": [
        {
          "internalType": "uint256",
          "name": "detectedOfflineTime",
          "type": "uint256"
        }
      ],
      "name": "notifyNetworkOfftimeDetected",
      "outputs": [],
      "stateMutability": "nonpayable",
      "type": "function"
    },
    {
      "inputs": [
        {
          "internalType": "address",
          "name": "_poolStakingAddress",
          "type": "address"
        },
        {
          "internalType": "int256",
          "name": "_amount",
          "type": "int256"
        }
      ],
      "name": "orderWithdraw",
      "outputs": [],
      "stateMutability": "nonpayable",
      "type": "function"
    },
    {
      "inputs": [
        {
          "internalType": "address",
          "name": "",
          "type": "address"
        },
        {
          "internalType": "address",
          "name": "",
          "type": "address"
        }
      ],
      "name": "orderWithdrawEpoch",
      "outputs": [
        {
          "internalType": "uint256",
          "name": "",
          "type": "uint256"
        }
      ],
      "stateMutability": "view",
      "type": "function"
    },
    {
      "inputs": [
        {
          "internalType": "address",
          "name": "",
          "type": "address"
        },
        {
          "internalType": "address",
          "name": "",
          "type": "address"
        }
      ],
      "name": "orderedWithdrawAmount",
      "outputs": [
        {
          "internalType": "uint256",
          "name": "",
          "type": "uint256"
        }
      ],
      "stateMutability": "view",
      "type": "function"
    },
    {
      "inputs": [
        {
          "internalType": "address",
          "name": "",
          "type": "address"
        }
      ],
      "name": "orderedWithdrawAmountTotal",
      "outputs": [
        {
          "internalType": "uint256",
          "name": "",
          "type": "uint256"
        }
      ],
      "stateMutability": "view",
      "type": "function"
    },
    {
      "inputs": [],
      "name": "owner",
      "outputs": [
        {
          "internalType": "address",
          "name": "",
          "type": "address"
        }
      ],
      "stateMutability": "view",
      "type": "function"
    },
    {
      "inputs": [
        {
          "internalType": "address",
          "name": "_poolStakingAddress",
          "type": "address"
        }
      ],
      "name": "poolDelegators",
      "outputs": [
        {
          "internalType": "address[]",
          "name": "",
          "type": "address[]"
        }
      ],
      "stateMutability": "view",
      "type": "function"
    },
    {
      "inputs": [
        {
          "internalType": "address",
          "name": "_poolStakingAddress",
          "type": "address"
        }
      ],
      "name": "poolDelegatorsInactive",
      "outputs": [
        {
          "internalType": "address[]",
          "name": "",
          "type": "address[]"
        }
      ],
      "stateMutability": "view",
      "type": "function"
    },
    {
      "inputs": [
        {
          "internalType": "address",
          "name": "",
          "type": "address"
        }
      ],
      "name": "poolInfo",
      "outputs": [
        {
          "internalType": "bytes",
          "name": "publicKey",
          "type": "bytes"
        },
        {
          "internalType": "bytes16",
          "name": "internetAddress",
          "type": "bytes16"
        },
        {
          "internalType": "bytes2",
          "name": "port",
          "type": "bytes2"
        }
      ],
      "stateMutability": "view",
      "type": "function"
    },
    {
      "inputs": [
        {
          "internalType": "address",
          "name": "",
          "type": "address"
        }
      ],
      "name": "poolToBeElectedIndex",
      "outputs": [
        {
          "internalType": "uint256",
          "name": "",
          "type": "uint256"
        }
      ],
      "stateMutability": "view",
      "type": "function"
    },
    {
      "inputs": [],
      "name": "recoverAbandonedStakes",
      "outputs": [],
      "stateMutability": "nonpayable",
      "type": "function"
    },
    {
      "inputs": [
        {
          "internalType": "string",
          "name": "funcSelector",
          "type": "string"
        }
      ],
      "name": "removeAllowedChangeableParameter",
      "outputs": [],
      "stateMutability": "nonpayable",
      "type": "function"
    },
    {
      "inputs": [],
      "name": "removeMyPool",
      "outputs": [],
      "stateMutability": "nonpayable",
      "type": "function"
    },
    {
      "inputs": [
        {
          "internalType": "address",
          "name": "_stakingAddress",
          "type": "address"
        }
      ],
      "name": "removePool",
      "outputs": [],
      "stateMutability": "nonpayable",
      "type": "function"
    },
    {
      "inputs": [],
      "name": "removePools",
      "outputs": [],
      "stateMutability": "nonpayable",
      "type": "function"
    },
    {
      "inputs": [],
      "name": "renounceOwnership",
      "outputs": [],
      "stateMutability": "nonpayable",
      "type": "function"
    },
    {
      "inputs": [
        {
          "internalType": "address",
          "name": "_poolStakingAddress",
          "type": "address"
        },
        {
          "internalType": "uint256",
          "name": "_validatorMinRewardPercent",
          "type": "uint256"
        }
      ],
      "name": "restake",
      "outputs": [],
      "stateMutability": "payable",
      "type": "function"
    },
    {
      "inputs": [
        {
          "internalType": "string",
          "name": "setter",
          "type": "string"
        },
        {
          "internalType": "string",
          "name": "getter",
          "type": "string"
        },
        {
          "internalType": "uint256[]",
          "name": "params",
          "type": "uint256[]"
        }
      ],
      "name": "setAllowedChangeableParameter",
      "outputs": [],
      "stateMutability": "nonpayable",
      "type": "function"
    },
    {
      "inputs": [
        {
          "internalType": "address",
          "name": "_bonusScoreContract",
          "type": "address"
        }
      ],
      "name": "setBonusScoreContract",
      "outputs": [],
      "stateMutability": "nonpayable",
      "type": "function"
    },
    {
      "inputs": [
        {
          "internalType": "uint256",
          "name": "_minStake",
          "type": "uint256"
        }
      ],
      "name": "setDelegatorMinStake",
      "outputs": [],
      "stateMutability": "nonpayable",
      "type": "function"
    },
    {
      "inputs": [
        {
          "internalType": "bytes",
          "name": "_publicKey",
          "type": "bytes"
        },
        {
          "internalType": "bytes16",
          "name": "_ip",
          "type": "bytes16"
        },
        {
          "internalType": "bytes2",
          "name": "_port",
          "type": "bytes2"
        }
      ],
      "name": "setPoolInfo",
      "outputs": [],
      "stateMutability": "nonpayable",
      "type": "function"
    },
    {
      "inputs": [
        {
          "internalType": "uint256",
          "name": "_timestamp",
          "type": "uint256"
        }
      ],
      "name": "setStakingEpochStartTime",
      "outputs": [],
      "stateMutability": "nonpayable",
      "type": "function"
    },
    {
      "inputs": [
        {
          "internalType": "uint256",
          "name": "_value",
          "type": "uint256"
        }
      ],
      "name": "setStakingFixedEpochDuration",
      "outputs": [],
      "stateMutability": "nonpayable",
      "type": "function"
    },
    {
      "inputs": [
        {
          "internalType": "uint256",
          "name": "_value",
          "type": "uint256"
        }
      ],
      "name": "setStakingTransitionTimeframeLength",
      "outputs": [],
      "stateMutability": "nonpayable",
      "type": "function"
    },
    {
      "inputs": [
        {
          "internalType": "address",
          "name": "_validatorAddress",
          "type": "address"
        },
        {
          "internalType": "bytes16",
          "name": "_ip",
          "type": "bytes16"
        },
        {
          "internalType": "bytes2",
          "name": "_port",
          "type": "bytes2"
        }
      ],
      "name": "setValidatorInternetAddress",
      "outputs": [],
      "stateMutability": "nonpayable",
      "type": "function"
    },
    {
      "inputs": [
        {
          "internalType": "uint256",
          "name": "_epoch",
          "type": "uint256"
        },
        {
          "internalType": "address",
          "name": "_stakingPool",
          "type": "address"
        }
      ],
      "name": "snapshotPoolStakeAmounts",
      "outputs": [],
      "stateMutability": "nonpayable",
      "type": "function"
    },
    {
      "inputs": [
        {
          "internalType": "uint256",
          "name": "",
          "type": "uint256"
        },
        {
          "internalType": "address",
          "name": "",
          "type": "address"
        }
      ],
      "name": "snapshotPoolTotalStakeAmount",
      "outputs": [
        {
          "internalType": "uint256",
          "name": "",
          "type": "uint256"
        }
      ],
      "stateMutability": "view",
      "type": "function"
    },
    {
      "inputs": [
        {
          "internalType": "uint256",
          "name": "",
          "type": "uint256"
        },
        {
          "internalType": "address",
          "name": "",
          "type": "address"
        }
      ],
      "name": "snapshotPoolValidatorStakeAmount",
      "outputs": [
        {
          "internalType": "uint256",
          "name": "",
          "type": "uint256"
        }
      ],
      "stateMutability": "view",
      "type": "function"
    },
    {
      "inputs": [
        {
          "internalType": "address",
          "name": "_toPoolStakingAddress",
          "type": "address"
        }
      ],
      "name": "stake",
      "outputs": [],
      "stateMutability": "payable",
      "type": "function"
    },
    {
      "inputs": [
        {
          "internalType": "address",
          "name": "",
          "type": "address"
        },
        {
          "internalType": "address",
          "name": "",
          "type": "address"
        }
      ],
      "name": "stakeAmount",
      "outputs": [
        {
          "internalType": "uint256",
          "name": "",
          "type": "uint256"
        }
      ],
      "stateMutability": "view",
      "type": "function"
    },
    {
      "inputs": [
        {
          "internalType": "address",
          "name": "_poolStakingAddress",
          "type": "address"
        },
        {
          "internalType": "address",
          "name": "_staker",
          "type": "address"
        }
      ],
      "name": "stakeAmountByCurrentEpoch",
      "outputs": [
        {
          "internalType": "uint256",
          "name": "",
          "type": "uint256"
        }
      ],
      "stateMutability": "view",
      "type": "function"
    },
    {
      "inputs": [
        {
          "internalType": "address",
          "name": "",
          "type": "address"
        }
      ],
      "name": "stakeAmountTotal",
      "outputs": [
        {
          "internalType": "uint256",
          "name": "",
          "type": "uint256"
        }
      ],
      "stateMutability": "view",
      "type": "function"
    },
    {
      "inputs": [],
      "name": "stakingEpoch",
      "outputs": [
        {
          "internalType": "uint256",
          "name": "",
          "type": "uint256"
        }
      ],
      "stateMutability": "view",
      "type": "function"
    },
    {
      "inputs": [],
      "name": "stakingEpochStartBlock",
      "outputs": [
        {
          "internalType": "uint256",
          "name": "",
          "type": "uint256"
        }
      ],
      "stateMutability": "view",
      "type": "function"
    },
    {
      "inputs": [],
      "name": "stakingEpochStartTime",
      "outputs": [
        {
          "internalType": "uint256",
          "name": "",
          "type": "uint256"
        }
      ],
      "stateMutability": "view",
      "type": "function"
    },
    {
      "inputs": [],
      "name": "stakingFixedEpochDuration",
      "outputs": [
        {
          "internalType": "uint256",
          "name": "",
          "type": "uint256"
        }
      ],
      "stateMutability": "view",
      "type": "function"
    },
    {
      "inputs": [],
      "name": "stakingFixedEpochEndTime",
      "outputs": [
        {
          "internalType": "uint256",
          "name": "",
          "type": "uint256"
        }
      ],
      "stateMutability": "view",
      "type": "function"
    },
    {
      "inputs": [],
      "name": "stakingTransitionTimeframeLength",
      "outputs": [
        {
          "internalType": "uint256",
          "name": "",
          "type": "uint256"
        }
      ],
      "stateMutability": "view",
      "type": "function"
    },
    {
      "inputs": [],
      "name": "stakingWithdrawDisallowPeriod",
      "outputs": [
        {
          "internalType": "uint256",
          "name": "",
          "type": "uint256"
        }
      ],
      "stateMutability": "view",
      "type": "function"
    },
    {
      "inputs": [],
      "name": "startTimeOfNextPhaseTransition",
      "outputs": [
        {
          "internalType": "uint256",
          "name": "",
          "type": "uint256"
        }
      ],
      "stateMutability": "view",
      "type": "function"
    },
    {
      "inputs": [],
      "name": "totalStakedAmount",
      "outputs": [
        {
          "internalType": "uint256",
          "name": "",
          "type": "uint256"
        }
      ],
      "stateMutability": "view",
      "type": "function"
    },
    {
      "inputs": [
        {
          "internalType": "address",
          "name": "newOwner",
          "type": "address"
        }
      ],
      "name": "transferOwnership",
      "outputs": [],
      "stateMutability": "nonpayable",
      "type": "function"
    },
    {
      "inputs": [
        {
          "internalType": "address",
          "name": "mining",
          "type": "address"
        },
        {
          "internalType": "uint256",
          "name": "validatorScore",
          "type": "uint256"
        }
      ],
      "name": "updatePoolLikelihood",
      "outputs": [],
      "stateMutability": "nonpayable",
      "type": "function"
    },
    {
      "inputs": [],
      "name": "validatorSetContract",
      "outputs": [
        {
          "internalType": "contract IValidatorSetHbbft",
          "name": "",
          "type": "address"
        }
      ],
      "stateMutability": "view",
      "type": "function"
    },
    {
      "inputs": [
        {
          "internalType": "address",
          "name": "_fromPoolStakingAddress",
          "type": "address"
        },
        {
          "internalType": "uint256",
          "name": "_amount",
          "type": "uint256"
        }
      ],
      "name": "withdraw",
      "outputs": [],
      "stateMutability": "nonpayable",
      "type": "function"
    },
    {
      "stateMutability": "payable",
      "type": "receive"
    }
  ],
  "bytecode": "0x6080604052348015600f57600080fd5b506016601a565b60ca565b7ff0c57e16840df040f15088dc2f81fe391c3923bec73e23a9662efc9c229c6a00805468010000000000000000900460ff161560695760405163f92ee8a960e01b815260040160405180910390fd5b80546001600160401b039081161460c75780546001600160401b0319166001600160401b0390811782556040519081527fc7f505b2f371ae2175ee4913f4499e1f2633a7b5936321eed1cdaeb6115181d29060200160405180910390a15b50565b615d02806100d96000396000f3fe6080604052600436106104f05760003560e01c80638247a23911610294578063b710c15d1161015e578063df6f55f5116100d6578063f07860961161008a578063f3fef3a31161006f578063f3fef3a314610ed9578063f494250114610ef9578063fa4aaf4714610f0d57600080fd5b8063f078609614610ea3578063f2fde38b14610eb957600080fd5b8063e9ab0300116100bb578063e9ab030014610e41578063edd7db7514610e79578063ee435f5514610e8e57600080fd5b8063df6f55f514610e0c578063dfc8bf4e14610e2157600080fd5b8063cfef14411161012d578063d290c21d11610112578063d290c21d14610db4578063da7a9b6a14610dc9578063dadee88a14610ddf57600080fd5b8063cfef144114610d74578063d0ac76f614610d9457600080fd5b8063b710c15d14610cf2578063ba08d23714610d1f578063c6912cc014610d3f578063c6af311a14610d5457600080fd5b80639e72c6351161020c578063a711e6a1116101c0578063ae1aaf80116101a5578063ae1aaf8014610c9c578063b0bd5e9e14610cb2578063b61ed63a14610cd257600080fd5b8063a711e6a114610c67578063adddc0cf14610c8757600080fd5b8063a4205967116101f1578063a420596714610be2578063a5d54f6514610c1a578063a697ecff14610c2f57600080fd5b80639e72c63514610ba25780639ea8082b14610bc257600080fd5b8063950a6513116102635780639a7b5f11116102485780639a7b5f1114610b3d5780639b03d74414610b6c5780639b9fb6d014610b8257600080fd5b8063950a651314610afa578063957950a714610b1a57600080fd5b80638247a23914610a34578063862be28714610a545780638da5cb5b14610a745780639228363414610ab157600080fd5b80634e9b426d116103d5578063673a2a1f1161034d57806373c2180311610301578063794c0c68116102e6578063794c0c68146109de5780637b0a0f9b146109f45780637b15b94c14610a1457600080fd5b806373c218031461096e578063750dd2a11461098e57600080fd5b80637069e746116103325780637069e7461461090b578063715018a614610921578063728345db1461093657600080fd5b8063673a2a1f146108c95780636bda1577146108eb57600080fd5b806356e4d6c2116103a45780635cb092a2116103895780635cb092a21461087d5780635d80ca321461089d5780635fef7643146108b357600080fd5b806356e4d6c21461084a5780635b4eafe01461085d57600080fd5b80634e9b426d146107c45780634f9a8d8f146107f15780635267e1d614610807578063567e98f91461083457600080fd5b8063251441a91161046857806336e98ca811610437578063379b046a1161041c578063379b046a1461077b5780633b7d0946146107915780633f3afe01146107b157600080fd5b806336e98ca814610746578063371542631461076657600080fd5b8063251441a9146106b457806326476204146106d45780632bafde8d146106e75780633219d6001461070757600080fd5b80631555371c116104bf5780631fb31e43116104a45780631fb31e431461060357806322704bdd1461067f57806322e3d9861461069f57600080fd5b80631555371c146105ce578063159e0a95146105e357600080fd5b8063028b8bdb146105135780630ac6e2911461053c5780630b770cdf1461055e5780631345b8a51461059657600080fd5b3661050e57604051631574f9f360e01b815260040160405180910390fd5b600080fd5b34801561051f57600080fd5b5061052960155481565b6040519081526020015b60405180910390f35b34801561054857600080fd5b5061055c6105573660046151e1565b610f3a565b005b34801561056a57600080fd5b5060255461057e906001600160a01b031681565b6040516001600160a01b039091168152602001610533565b3480156105a257600080fd5b506105296105b1366004615291565b602260209081526000928352604080842090915290825290205481565b3480156105da57600080fd5b5061055c61152e565b3480156105ef57600080fd5b5061055c6105fe3660046152c1565b6115a0565b34801561060f57600080fd5b5061064d61061e3660046152c1565b6001600160a01b03166000908152601f6020526040902060010154608081901b91600160801b90910460f01b90565b604080516fffffffffffffffffffffffffffffffff1990931683526001600160f01b0319909116602083015201610533565b34801561068b57600080fd5b5061055c61069a3660046152de565b611624565b3480156106ab57600080fd5b50610529611661565b3480156106c057600080fd5b5061055c6106cf3660046152f7565b6116a8565b61055c6106e23660046152c1565b611766565b3480156106f357600080fd5b5061055c6107023660046152de565b6117e9565b34801561071357600080fd5b506107366107223660046152c1565b602080526000908152604090205460ff1681565b6040519015158152602001610533565b34801561075257600080fd5b5061055c6107613660046153ef565b611869565b34801561077257600080fd5b5061055c61191d565b34801561078757600080fd5b50610529601b5481565b34801561079d57600080fd5b5061055c6107ac3660046152c1565b611d16565b61055c6107bf3660046154dc565b611d4c565b3480156107d057600080fd5b506107e46107df3660046152c1565b6120b7565b6040516105339190615558565b3480156107fd57600080fd5b5061052960175481565b34801561081357600080fd5b506105296108223660046152c1565b601c6020526000908152604090205481565b34801561084057600080fd5b50610529601d5481565b61055c6108583660046155d3565b612163565b34801561086957600080fd5b50610529610878366004615291565b612298565b34801561088957600080fd5b5061055c6108983660046153ef565b6122c2565b3480156108a957600080fd5b50610529600f5481565b3480156108bf57600080fd5b50610529600d5481565b3480156108d557600080fd5b506108de6122ca565b604051610533919061563a565b3480156108f757600080fd5b50610529610906366004615687565b6122db565b34801561091757600080fd5b50610529601a5481565b34801561092d57600080fd5b5061055c612481565b34801561094257600080fd5b50610529610951366004615291565b602160209081526000928352604080842090915290825290205481565b34801561097a57600080fd5b506108de6109893660046152c1565b612495565b34801561099a57600080fd5b506105296109a9366004615687565b6001600160a01b039182166000908152600c602090815260408083209390941682529182528281206016548252909152205490565b3480156109ea57600080fd5b5061052960165481565b348015610a0057600080fd5b5061055c610a0f3660046156cd565b6124b9565b348015610a2057600080fd5b5061055c610a2f3660046152c1565b612536565b348015610a4057600080fd5b5061055c610a4f3660046152de565b61259d565b348015610a6057600080fd5b5061055c610a6f366004615712565b6125d0565b348015610a8057600080fd5b507f9016d09d72d40fdae2fd8ceac6b6234c7706214fd39c1cd1e609a0528c199300546001600160a01b031661057e565b348015610abd57600080fd5b50610ae1610acc366004615784565b60006020819052908152604090205460e01b81565b6040516001600160e01b03199091168152602001610533565b348015610b0657600080fd5b50610529610b15366004615687565b612633565b348015610b2657600080fd5b50610b2f6127a8565b6040516105339291906157db565b348015610b4957600080fd5b50610b5d610b583660046152c1565b61280b565b604051610533939291906157fd565b348015610b7857600080fd5b5061052960195481565b348015610b8e57600080fd5b5061055c610b9d366004615844565b6128bf565b348015610bae57600080fd5b5061055c610bbd3660046152de565b612933565b348015610bce57600080fd5b506108de610bdd3660046152c1565b61297e565b348015610bee57600080fd5b50610529610bfd366004615687565b601260209081526000928352604080842090915290825290205481565b348015610c2657600080fd5b506108de6129a2565b348015610c3b57600080fd5b50610529610c4a366004615687565b601460209081526000928352604080842090915290825290205481565b348015610c7357600080fd5b50610736610c823660046152c1565b612a04565b348015610c9357600080fd5b5061055c612a11565b348015610ca857600080fd5b5061052960185481565b348015610cbe57600080fd5b5061055c610ccd3660046152de565b612a56565b348015610cde57600080fd5b5061055c610ced3660046154dc565b612a85565b348015610cfe57600080fd5b50610d12610d0d366004615844565b612e98565b6040516105339190615879565b348015610d2b57600080fd5b50610736610d3a3660046158a7565b612f40565b348015610d4b57600080fd5b5061052961310f565b348015610d6057600080fd5b5061055c610d6f3660046154dc565b61312e565b348015610d8057600080fd5b5061055c610d8f3660046152c1565b6131d8565b348015610da057600080fd5b5061055c610daf366004615291565b613451565b348015610dc057600080fd5b506108de613594565b348015610dd557600080fd5b50610529600e5481565b348015610deb57600080fd5b50610529610dfa3660046152c1565b60116020526000908152604090205481565b348015610e1857600080fd5b506108de6135a0565b348015610e2d57600080fd5b50601e5461057e906001600160a01b031681565b348015610e4d57600080fd5b50610529610e5c366004615687565b601060209081526000928352604080842090915290825290205481565b348015610e8557600080fd5b5061055c6135ac565b348015610e9a57600080fd5b5061055c6136ec565b348015610eaf57600080fd5b50610529610bb881565b348015610ec557600080fd5b5061055c610ed43660046152c1565b613732565b348015610ee557600080fd5b5061055c610ef43660046154dc565b61376d565b348015610f0557600080fd5b506001610736565b348015610f1957600080fd5b50610529610f283660046152c1565b60136020526000908152604090205481565b7ff0c57e16840df040f15088dc2f81fe391c3923bec73e23a9662efc9c229c6a00805468010000000000000000810460ff16159067ffffffffffffffff16600081158015610f855750825b905060008267ffffffffffffffff166001148015610fa25750303b155b905081158015610fb0575080155b15610fce5760405163f92ee8a960e01b815260040160405180910390fd5b845467ffffffffffffffff19166001178555831561100257845468ff00000000000000001916680100000000000000001785555b6001600160a01b038b166110295760405163d92e233d60e01b815260040160405180910390fd5b6110328a613826565b8761104060408c018c6158c3565b61104c91506002615923565b146110695760405162d6988760e81b815260040160405180910390fd5b8561107760408c018c6158c3565b905014611097576040516320041afd60e01b815260040160405180910390fd5b6110a08b613989565b6110a861399a565b6110b560208b018b6152c1565b601e80546001600160a01b0319166001600160a01b03929092169190911790556110e560408b0160208c016152c1565b602580546001600160a01b0319166001600160a01b039290921691909117905536600061111560408d018d6158c3565b9150915060005b818110156113385760008383838181106111385761113861593a565b905060200201602081019061114d91906152c1565b6001600160a01b0316036111745760405163d92e233d60e01b815260040160405180910390fd5b6111a58383838181106111895761118961593a565b905060200201602081019061119e91906152c1565b60006139aa565b6111d48383838181106111ba576111ba61593a565b90506020020160208101906111cf91906152c1565b613a0a565b8b8b6111e1836002615923565b8181106111f0576111f061593a565b905060200201358c8c8360026112069190615923565b611211906001615950565b8181106112205761122061593a565b90506020020135604051602001611241929190918252602082015260400190565b604051602081830303815290604052601f60008585858181106112665761126661593a565b905060200201602081019061127b91906152c1565b6001600160a01b0316815260208101919091526040016000209061129f90826159ed565b508989828181106112b2576112b261593a565b90506020020160208101906112c79190615aad565b601f60008585858181106112dd576112dd61593a565b90506020020160208101906112f291906152c1565b6001600160a01b031681526020810191909152604001600020600190810180546fffffffffffffffffffffffffffffffff191660809390931c929092179091550161111c565b5060408051600580825260c082019092526000916020820160a0803683370190505090506802b5e3af16b1880000816000815181106113795761137961593a565b60200260200101818152505068056bc75e2d63100000816001815181106113a2576113a261593a565b602002602001018181525050680821ab0d4414980000816002815181106113cb576113cb61593a565b602002602001018181525050680ad78ebc5ac6200000816003815181106113f4576113f461593a565b602002602001018181525050680d8d726b7177a800008160048151811061141d5761141d61593a565b60200260200101818152505061149e6040518060400160405280601d81526020017f73657444656c656761746f724d696e5374616b652875696e74323536290000008152506040518060400160405280601381526020017f64656c656761746f724d696e5374616b65282900000000000000000000000000815250836122c2565b50505060608a0135600e5560808a0135600d5560a08a0135600f5560c08a01356017556101008a01356015554260195560e08a0135601855831561152157845468ff000000000000000019168555604051600181527fc7f505b2f371ae2175ee4913f4499e1f2633a7b5936321eed1cdaeb6115181d29060200160405180910390a15b5050505050505050505050565b601e546001600160a01b03163314611558576040516282b42960e81b815260040160405180910390fd5b60006115646005613a1f565b905060005b815181101561159c576115948282815181106115875761158761593a565b6020026020010151613a33565b600101611569565b5050565b6115a8613a79565b6001600160a01b0381166115cf5760405163d92e233d60e01b815260040160405180910390fd5b602580546001600160a01b0319166001600160a01b0383169081179091556040519081527fd4244d1f8acb4860e17399636c6b7875c75656aafb5cb3d0163d7305eace7172906020015b60405180910390a150565b61162c613a79565b600a8111158061163e57506017548110155b1561165c57604051638826666f60e01b815260040160405180910390fd5b601855565b601954601754600091901561167757600161167a565b60005b60ff16601b546017548361168e9190615950565b6116989190615950565b6116a29190615ac8565b91505090565b3a6000036116c957604051630e661aed60e41b815260040160405180910390fd5b816001600160a01b0316836001600160a01b0316036116fb57604051630a5eddd560e01b815260040160405180910390fd5b33611707848284613ad4565b611712838284613d82565b601654604080516001600160a01b0387811682526020820186905280851692908716917f4480d8e4b1e9095b94bf513961d26fe1d32386ebdd103d18fe8738cf4b2223ff910160405180910390a450505050565b3a60000361178757604051630e661aed60e41b815260040160405180910390fd5b3334611794838383613d82565b601654826001600160a01b0316846001600160a01b03167f2273de02cb1f69ba6259d22c4bc22c60e4c94c193265ef6afee324a04a9b6d22846040516117dc91815260200190565b60405180910390a4505050565b6117f1613a79565b806118086000356001600160e01b03191682612f40565b61182d576040516373330d9b60e01b8152600481018290526024015b60405180910390fd5b600e8290556040518281527ffee02ce7aa40f9c49eaabd26d404fa88714b97cb209af8954cfd5eeb8213b93e9060200160405180910390a15050565b611871613a79565b60408051808201825283516020808601919091206001600160e01b031990811683528183018581528751888401209091166000908152808352939093208251815463ffffffff191660e09190911c178155925180519293926118d99260018501920190615106565b509050507f3d45a310c5a076ea07aa2947ca3c06cc2a8b3571065867ad6f8e7096a2c9d50a83838360405161191093929190615adb565b60405180910390a1505050565b3a60000361193e57604051630e661aed60e41b815260040160405180910390fd5b60008061194b6003613a1f565b9050805160000361196f57604051631c369b4560e21b815260040160405180910390fd5b60005b8151811015611b5557600082828151811061198f5761198f61593a565b602002602001015190506119a281614169565b80611a185750601e54604051639d6fc1d160e01b81526001600160a01b03838116600483015290911690639d6fc1d190602401602060405180830381865afa1580156119f2573d6000803e3d6000fd5b505050506040513d601f19601f82011682018060405250810190611a169190615b14565b155b15611a235750611b4d565b611a2e6003826141a7565b506001600160a01b038116600090815260208080526040808320805460ff19166001179055601c9091528120805490829055601d805491928392611a73908490615ac8565b9091555060009050611a848361297e565b905060005b8151811015611aef576000828281518110611aa657611aa661593a565b6020908102919091018101516001600160a01b0380881660009081526014845260408082209284168252919093528220919091559050611ae685826141bc565b50600101611a89565b50611afa8287615950565b9550826001600160a01b0316336001600160a01b03167f8e6a4ccd7dccdca9ac211d00fcc3fa7c71be75ff73d3a35f63ea023173cc100484604051611b4191815260200190565b60405180910390a35050505b600101611972565b5081600003611b7757604051631c369b4560e21b815260040160405180910390fd5b6000611b84600284615b4c565b90506000611b928285615ac8565b90506000601e60009054906101000a90046001600160a01b03166001600160a01b03166356b54bae6040518163ffffffff1660e01b8152600401602060405180830381865afa158015611be9573d6000803e3d6000fd5b505050506040513d601f19601f82011682018060405250810190611c0d9190615b6e565b90506000816001600160a01b031663732524946040518163ffffffff1660e01b8152600401602060405180830381865afa158015611c4f573d6000803e3d6000fd5b505050506040513d601f19601f82011682018060405250810190611c739190615b6e565b9050816001600160a01b031663af182535846040518263ffffffff1660e01b81526004016000604051808303818588803b158015611cb057600080fd5b505af1158015611cc4573d6000803e3d6000fd5b5050505050611cd3818561421e565b604080518481526020810186905233917f1c113e6bae9530fea40323e612aeb0cb7817dedb5a0b0f6bdfbff97d55920dc7910160405180910390a2505050505050565b601e546001600160a01b03163314611d40576040516282b42960e81b815260040160405180910390fd5b611d4981613a33565b50565b601e60009054906101000a90046001600160a01b03166001600160a01b03166356b54bae6040518163ffffffff1660e01b8152600401602060405180830381865afa158015611d9f573d6000803e3d6000fd5b505050506040513d601f19601f82011682018060405250810190611dc39190615b6e565b6001600160a01b0316336001600160a01b031614611df3576040516282b42960e81b815260040160405180910390fd5b341561159c5760165460008181526021602090815260408083206001600160a01b038716808552908352818420549484526022835281842090845290915281205434929181831115611fd6576000611e4a8761297e565b90506000611e588486615ac8565b90506000611e668883615923565b611e71896064615ac8565b611e7b9087615923565b119050611e8b8186888a8c6142c5565b935060005b8351811015611fcd576000611ece8389611ec66016548f8a8881518110611eb957611eb961593a565b6020026020010151614314565b878d8f6143b5565b905080601460008d6001600160a01b03166001600160a01b031681526020019081526020016000206000878581518110611f0a57611f0a61593a565b60200260200101516001600160a01b03166001600160a01b031681526020019081526020016000206000828254611f419190615950565b90915550506001600160a01b038b166000908152600c602052604081208651839290889086908110611f7557611f7561593a565b60200260200101516001600160a01b03166001600160a01b03168152602001908152602001600020600060165481526020019081526020016000206000828254611fbf9190615950565b909155505050600101611e90565b50505050611fd9565b50825b6001600160a01b038616600090815260146020908152604080832090915281208054839290612009908490615950565b90915550506001600160a01b0386166000908152601c602052604081208054869290612036908490615950565b9250508190555083601d600082825461204f9190615950565b9091555061205e905086614423565b6016546001600160a01b0387167f72093068b9f28053bd924ac15d7710b987f9b6ef1e0f89f47d8b4bd7cac776dc836120978189615ac8565b6040805192835260208301919091520160405180910390a3505050505050565b6001600160a01b0381166000908152601f602052604090208054606091906120de90615963565b80601f016020809104026020016040519081016040528092919081815260200182805461210a90615963565b80156121575780601f1061212c57610100808354040283529160200191612157565b820191906000526020600020905b81548152906001019060200180831161213a57829003601f168201915b50505050509050919050565b3a60000361218457604051630e661aed60e41b815260040160405180910390fd5b601e54604051630526083960e11b81526001600160a01b0386811660048301523360248301819052923492911690630a4c107290604401600060405180830381600087803b1580156121d557600080fd5b505af11580156121e9573d6000803e3d6000fd5b505050506121f8828383613d82565b6001600160a01b0382166000908152601f6020526040902061221b858783615b8b565b506001600160a01b0382166000818152601f602090815260409182902060010180546fffffffffffffffffffffffffffffffff1916608088901c179055601654915184815291929182917f2273de02cb1f69ba6259d22c4bc22c60e4c94c193265ef6afee324a04a9b6d22910160405180910390a4505050505050565b60008281526022602090815260408083206001600160a01b03851684529091529020545b92915050565b611871614510565b60606122d66001613a1f565b905090565b601e546040516253517560e01b81526001600160a01b03848116600483015260009283929116906253517590602401602060405180830381865afa158015612327573d6000803e3d6000fd5b505050506040513d601f19601f8201168201806040525081019061234b9190615b6e565b905061236c81846001600160a01b0316866001600160a01b0316141561455e565b158061238f57506001600160a01b038416600090815260208052604090205460ff165b1561239e5760009150506122bc565b6001600160a01b03848116600090815260146020908152604080832087851684529091529081902054601e54915163a0d16cad60e01b815284841660048201529092919091169063a0d16cad90602401602060405180830381865afa15801561240b573d6000803e3d6000fd5b505050506040513d601f19601f8201168201806040525081019061242f9190615b14565b61243c5791506122bc9050565b6001600160a01b038581166000908152600c60209081526040808320938816835292815282822060165483529052205480821115612478578091505b50949350505050565b612489613a79565b6124936000614668565b565b6001600160a01b0381166000908152600b602052604090206060906122bc90613a1f565b601e546001600160a01b031633146124e3576040516282b42960e81b815260040160405180910390fd5b6001600160a01b039092166000908152601f60205260409020600101805460f09390931c600160801b0271ffffffffffffffffffffffffffffffffffff1990931660809290921c91909117919091179055565b601e546001600160a01b03163314612560576040516282b42960e81b815260040160405180910390fd5b600d546001600160a01b038216600090815260146020908152604080832090915290205410611d49576125948160016139aa565b611d4981614423565b601e546001600160a01b031633146125c7576040516282b42960e81b815260040160405180910390fd5b60195543601a55565b336000908152601f602052604090206125ea848683615b8b565b50336000908152601f60205260409020600101805460f09290921c600160801b0271ffffffffffffffffffffffffffffffffffff1990921660809390931c929092171790555050565b601e546040516253517560e01b81526001600160a01b03848116600483015260009283929116906253517590602401602060405180830381865afa15801561267f573d6000803e3d6000fd5b505050506040513d601f19601f820116820180604052508101906126a39190615b6e565b90506126c481846001600160a01b0316866001600160a01b0316141561455e565b6126d25760009150506122bc565b601e5460405163a0d16cad60e01b81526001600160a01b0383811660048301529091169063a0d16cad90602401602060405180830381865afa15801561271c573d6000803e3d6000fd5b505050506040513d601f19601f820116820180604052508101906127409190615b14565b61274e5760009150506122bc565b6001600160a01b038481166000818152600c6020908152604080832094881680845294825280832060165484528252808320549383526014825280832094835293905291909120546127a09190615ac8565b949350505050565b606060006008600954818054806020026020016040519081016040528092919081815260200182805480156127fc57602002820191906000526020600020905b8154815260200190600101908083116127e8575b50505050509150915091509091565b601f6020526000908152604090208054819061282690615963565b80601f016020809104026020016040519081016040528092919081815260200182805461285290615963565b801561289f5780601f106128745761010080835404028352916020019161289f565b820191906000526020600020905b81548152906001019060200180831161288257829003601f168201915b50505060019093015491925050608081901b90600160801b900460f01b83565b6128c7613a79565b80516020808301919091206001600160e01b03191660009081529081905260408120805463ffffffff19168155906129026001830182615151565b50507f92d44565a40fe29702ffa146ddaa3bb133d4077f5312d682d0a2632a9bc73a8a816040516116199190615558565b601e546001600160a01b0316331461295d576040516282b42960e81b815260040160405180910390fd5b60185481601b5461296e9190615950565b6129789190615950565b601b5550565b6001600160a01b0381166000908152600a602052604090206060906122bc90613a1f565b606060078054806020026020016040519081016040528092919081815260200182805480156129fa57602002820191906000526020600020905b81546001600160a01b031681526001909101906020018083116129dc575b5050505050905090565b60006122bc6001836146d9565b601e546001600160a01b03163314612a3b576040516282b42960e81b815260040160405180910390fd5b601854601b6000828254612a4f9190615950565b9091555050565b612a5e613a79565b6018548111612a805760405163160ac89160e31b815260040160405180910390fd5b601755565b3a600003612aa657604051630e661aed60e41b815260040160405180910390fd5b6001600160a01b038216612acd5760405163d92e233d60e01b815260040160405180910390fd5b80600003612aee57604051633ca0029d60e01b815260040160405180910390fd5b601e546040516253517560e01b81526001600160a01b0384811660048301523392612b7a929116906253517590602401602060405180830381865afa158015612b3b573d6000803e3d6000fd5b505050506040513d601f19601f82011682018060405250810190612b5f9190615b6e565b846001600160a01b0316836001600160a01b0316141561455e565b612b97576040516315e34e0560e01b815260040160405180910390fd5b6001600160a01b0380841660008181526010602090815260408083209486168084529482528083205484845260118352818420546014845282852096855295835281842054948452601c90925282205490939291861315612ca457856000612bff8988612633565b905080821115612c2c57604051632de4882160e01b81526004810182905260248101839052604401611824565b612c368287615950565b9550612c428286615950565b9450612c4e8285615ac8565b9350612c5a8284615ac8565b925081601d6000828254612c6e9190615ac8565b90915550506016546001600160a01b03808b166000908152601260209081526040808320938c168352929052205550612cfa9050565b6000612caf87615c4c565b9050612cbb8186615ac8565b9450612cc78185615ac8565b9350612cd38184615950565b9250612cdf8183615950565b915080601d6000828254612cf39190615950565b9091555050505b6001600160a01b038088166000818152601060209081526040808320948a1680845294825280832089905583835260118252808320889055601482528083208584528252808320879055838352601c90915290208390559003612dc9578115801590612d675750600d5482105b15612d9f57604051636fe84f3d60e01b81526001600160a01b0380891660048301528616602482015260448101879052606401611824565b6000861315612dbe5781600003612db957612db987613a0a565b612e36565b612db98760016139aa565b8115801590612dd95750600e5482105b15612e1157604051636fe84f3d60e01b81526001600160a01b0380891660048301528616602482015260448101879052606401611824565b6000861315612e2c5781600003612db957612db987866141bc565b612e3687866146fb565b612e3f87614423565b601654856001600160a01b0316886001600160a01b03167f80d5c777e5f7ac6ee89723223803ca5c0ec0204f89e99c1b0cde973c66a6459489604051612e8791815260200190565b60405180910390a450505050505050565b60408051808201909152600081526060602082015281516020808401919091206001600160e01b0319908116600090815280835260409081902081518083018352815460e01b9093168352600181018054835181870281018701909452808452939491938583019392830182828015612f3057602002820191906000526020600020905b815481526020019060010190808311612f1c575b5050505050815250509050919050565b6001600160e01b031980831660009081526020818152604080832081518083018352815460e01b909516855260018101805483518186028101860190945280845294958695909492938584019390929190830182828015612fc057602002820191906000526020600020905b815481526020019060010190808311612fac575b5050505050815250509050806020015151600003612fe25760009150506122bc565b60208101518151600090612ff590614728565b905060005b825181101561310257818382815181106130165761301661593a565b6020026020010151036130fa57600080821161304c578360008151811061303f5761303f61593a565b6020026020010151613071565b83613058600184615ac8565b815181106130685761306861593a565b60200260200101515b90506000600185516130839190615ac8565b83106130b55784600186516130989190615ac8565b815181106130a8576130a861593a565b60200260200101516130da565b846130c1846001615950565b815181106130d1576130d161593a565b60200260200101515b90508188141580156130ec5750808814155b1596505050505050506122bc565b600101612ffa565b5060009695505050505050565b60006018546017546019546131249190615950565b6122d69190615ac8565b6025546001600160a01b03163314613158576040516282b42960e81b815260040160405180910390fd5b601e546040516307b9342f60e21b81526001600160a01b0384811660048301526000921690631ee4d0bc90602401602060405180830381865afa1580156131a3573d6000803e3d6000fd5b505050506040513d601f19601f820116820180604052508101906131c79190615b6e565b90506131d381836147f6565b505050565b3a6000036131f957604051630e661aed60e41b815260040160405180910390fd5b6132016148a0565b6001600160a01b0381166000908152601260209081526040808320338085529252909120546016541161325a57604051630b06352b60e31b81526001600160a01b03808416600483015282166024820152604401611824565b601e546040516253517560e01b81526001600160a01b0384811660048301526132e39216906253517590602401602060405180830381865afa1580156132a4573d6000803e3d6000fd5b505050506040513d601f19601f820116820180604052508101906132c89190615b6e565b836001600160a01b0316836001600160a01b0316141561455e565b613300576040516315e34e0560e01b815260040160405180910390fd5b6001600160a01b0380831660009081526010602090815260408083209385168352929052908120549081900361334957604051633ca0029d60e01b815260040160405180910390fd5b6001600160a01b038084166000818152601060209081526040808320948716835293815283822082905591815260119091522054613388908290615ac8565b6001600160a01b03808516600090815260116020908152604080832094909455601481528382209286168252919091529081205490036133cc576133cc83836148ea565b6133d6828261421e565b601654826001600160a01b0316846001600160a01b03167ff380b0bc887e00f5b50d3c9d4eaaf5c9a0afd97b956316b995159384c4ede9b38460405161341e91815260200190565b60405180910390a45050611d4960017f9b779b17422d0df92223018b32b4d1fa46e071723d6817e2486d003becc55f0055565b601e60009054906101000a90046001600160a01b03166001600160a01b03166356b54bae6040518163ffffffff1660e01b8152600401602060405180830381865afa1580156134a4573d6000803e3d6000fd5b505050506040513d601f19601f820116820180604052508101906134c89190615b6e565b6001600160a01b0316336001600160a01b0316146134f8576040516282b42960e81b815260040160405180910390fd5b60008281526021602090815260408083206001600160a01b0385168452909152812054900361159c576001600160a01b0381166000908152601c60205260408120549081900361354757505050565b60008381526021602090815260408083206001600160a01b038616808552908352818420949094556014825280832082528083205486845260228352818420948452939091529020555050565b60606122d66005613a1f565b60606122d66003613a1f565b3a6000036135cd57604051630e661aed60e41b815260040160405180910390fd5b601e546040516253517560e01b81523360048201819052916000916001600160a01b03909116906253517590602401602060405180830381865afa158015613619573d6000803e3d6000fd5b505050506040513d601f19601f8201168201806040525081019061363d9190615b6e565b905060165460001480156136ba5750601e5460405163facd743b60e01b81526001600160a01b0383811660048301529091169063facd743b90602401602060405180830381865afa158015613696573d6000803e3d6000fd5b505050506040513d601f19601f820116820180604052508101906136ba9190615b14565b156136e3576040516303d71f2d60e51b81526001600160a01b0383166004820152602401611824565b61159c82613a33565b601e546001600160a01b03163314613716576040516282b42960e81b815260040160405180910390fd5b6016805490600061372683615c68565b90915550506000601b55565b61373a613a79565b6001600160a01b03811661376457604051631e4fbdf760e01b815260006004820152602401611824565b611d4981614668565b3a60000361378e57604051630e661aed60e41b815260040160405180910390fd5b6137966148a0565b336137a2838284613ad4565b6137ac818361421e565b601654816001600160a01b0316846001600160a01b03167fa7c0f0cac6bd4d18042007706c84a8abe823751cf289b69c01e83eef7b5915c7856040516137f491815260200190565b60405180910390a45061159c60017f9b779b17422d0df92223018b32b4d1fa46e071723d6817e2486d003becc55f0055565b60c0810135158061384057508061010001358160c0013511155b1561385e5760405163c671116b60e01b815260040160405180910390fd5b806101000135600003613884576040516332154b4760e01b815260040160405180910390fd5b60e0810135158061389d57508060c001358160e0013510155b156138bb57604051630685efe960e01b815260040160405180910390fd5b60006138ca60208301836152c1565b6001600160a01b0316036138f15760405163d92e233d60e01b815260040160405180910390fd5b6138fe60408201826158c3565b905060000361392057604051635c9a24ed60e11b815260040160405180910390fd5b6060810135158061393357506080810135155b156139615760405163633373e160e11b81526080820135600482015260608201356024820152604401611824565b80608001358160a0013511611d4957604051631c6d3b1560e01b815260040160405180910390fd5b613991614510565b611d4981614a40565b6139a2614510565b612493614a48565b6139b382612a04565b6139ef576139c2600183614a50565b50610bb86139d06001614a65565b11156139ef5760405163398dcd9d60e21b815260040160405180910390fd5b6139fa6003836141a7565b50801561159c5761159c82614a6f565b613a15600582614a50565b50611d4981614b64565b60606000613a2c83614d81565b9392505050565b613a3e6001826141a7565b50613a4881614169565b15613a5e57613a586003826141a7565b50613a67565b613a6781614ddc565b613a7081614b64565b611d4981614de7565b33613aab7f9016d09d72d40fdae2fd8ceac6b6234c7706214fd39c1cd1e609a0528c199300546001600160a01b031690565b6001600160a01b0316146124935760405163118cdaa760e01b8152336004820152602401611824565b6001600160a01b038316613afb5760405163d92e233d60e01b815260040160405180910390fd5b80600003613b1c57604051633ca0029d60e01b815260040160405180910390fd5b6000613b2884846122db565b905080821115613b5557604051632de4882160e01b81526004810182905260248101839052604401611824565b6001600160a01b038085166000908152601460209081526040808320938716835292905290812054613b88908490615ac8565b90506000846001600160a01b0316866001600160a01b031614613bad57600e54613bb1565b600d545b90508115801590613bc157508082105b15613bf957604051639e612d5760e01b81526001600160a01b0380881660048301528616602482015260448101859052606401611824565b856001600160a01b0316856001600160a01b031614613c8e57601e546040516253517560e01b81526001600160a01b03888116600483015260009216906253517590602401602060405180830381865afa158015613c5b573d6000803e3d6000fd5b505050506040513d601f19601f82011682018060405250810190613c7f9190615b6e565b9050613c8c878288614df2565b505b6001600160a01b038681166000818152601460209081526040808320948a16808452948252808320879055928252600c8152828220938252928352818120601654825290925290205484811015613ce6576000613cf0565b613cf08582615ac8565b6001600160a01b038089166000818152600c60209081526040808320948c1683529381528382206016548352815283822094909455908152601c90925281208054879290613d3f908490615ac8565b9250508190555084601d6000828254613d589190615ac8565b90915550506000839003613d7057613d7087876148ea565b613d7987614423565b50505050505050565b6001600160a01b038316613da95760405163d92e233d60e01b815260040160405180910390fd5b601e546040516253517560e01b81526001600160a01b03858116600483015260009216906253517590602401602060405180830381865afa158015613df2573d6000803e3d6000fd5b505050506040513d601f19601f82011682018060405250810190613e169190615b6e565b90506001600160a01b038116613e4a57604051632670461960e11b81526001600160a01b0385166004820152602401611824565b81600003613e7e5760405163e59f5c3960e01b81526001600160a01b03808616600483015284166024820152604401611824565b601e54604051635491295760e11b81526001600160a01b0383811660048301529091169063a92252ae90602401602060405180830381865afa158015613ec8573d6000803e3d6000fd5b505050506040513d601f19601f82011682018060405250810190613eec9190615b14565b15613f1557604051631ccf966d60e21b81526001600160a01b0385166004820152602401611824565b6001600160a01b038416600090815260208052604090205460ff1615613f595760405163078137eb60e41b81526001600160a01b0385166004820152602401611824565b6001600160a01b038085166000818152601460209081526040808320948816808452949091528120549290911491613f92908590615950565b905060008215613fa55750600d54613ff4565b50600e546001600160a01b03871660009081526014602090815260408083209091528120549003613ff45760405163cbbeb0bd60e01b81526001600160a01b0388166004820152602401611824565b808210156140285760405163e59f5c3960e01b81526001600160a01b03808916600483015287166024820152604401611824565b600f546001600160a01b0388166000908152601c602052604090205461404f908790615950565b111561408157604051632c2b174160e21b81526001600160a01b03808916600483015287166024820152604401611824565b6001600160a01b038088166000908152600c60209081526040808320938a1683529281528282206016548352905290812080548792906140c2908490615950565b90915550506001600160a01b0387166000908152601c6020526040812080548792906140ef908490615950565b9250508190555084601d60008282546141089190615950565b909155505082156141235761411e8760016139aa565b614138565b61412d87876146fb565b614138878588614df2565b6001600160a01b038088166000908152601460209081526040808320938a16835292905220829055613d7987614423565b6001600160a01b0381166000908152601c60205260408120541580156122bc5750506001600160a01b03166000908152601160205260409020541590565b6000613a2c836001600160a01b038416614f0e565b6001600160a01b0382166000908152600a602052604090206141de90826141a7565b506001600160a01b03808316600090815260106020908152604080832093851683529290522054156142145761159c8282615001565b61159c8282615023565b8047101561423f57604051631e9acf1760e31b815260040160405180910390fd5b6000826001600160a01b03168260405160006040518083038185875af1925050503d806000811461428c576040519150601f19603f3d011682016040523d82523d6000602084013e614291565b606091505b50509050806131d357604051630e21dcbb60e11b81526001600160a01b038416600482015260248101839052604401611824565b60008415806142d2575083155b156142df5750600061430b565b600086156143005784868502816142f8576142f8615b36565b049050614308565b506064828402045b90505b95945050505050565b60008360000361432657506000613a2c565b6001600160a01b0380841660009081526024602090815260408083209386168352929052205484900361438757506001600160a01b038083166000908152602360209081526040808320938516835292815282822086835290522054613a2c565b506001600160a01b038083166000908152601460209081526040808320938516835292905220549392505050565b60008415806143c2575083155b806143cb575085155b156143d857506000614419565b600087156143f95786868502816143f1576143f1615b36565b049050614416565b8460640283606403878602028161441257614412615b36565b0490505b90505b9695505050505050565b601e546040516253517560e01b81526001600160a01b03838116600483015260009216906253517590602401602060405180830381865afa15801561446c573d6000803e3d6000fd5b505050506040513d601f19601f820116820180604052508101906144909190615b6e565b602554604051633941e77760e21b81526001600160a01b0380841660048301529293506000929091169063e5079ddc90602401602060405180830381865afa1580156144e0573d6000803e3d6000fd5b505050506040513d601f19601f820116820180604052508101906145049190615c81565b90506131d383826147f6565b7ff0c57e16840df040f15088dc2f81fe391c3923bec73e23a9662efc9c229c6a005468010000000000000000900460ff1661249357604051631afcd79f60e31b815260040160405180910390fd5b600081156145e657601e5460405163a881c5fd60e01b81526001600160a01b0385811660048301529091169063a881c5fd90602401602060405180830381865afa1580156145b0573d6000803e3d6000fd5b505050506040513d601f19601f820116820180604052508101906145d49190615b14565b156145e1575060006122bc565b614661565b601e54604051635491295760e11b81526001600160a01b0385811660048301529091169063a92252ae90602401602060405180830381865afa158015614630573d6000803e3d6000fd5b505050506040513d601f19601f820116820180604052508101906146549190615b14565b15614661575060006122bc565b6001613a2c565b7f9016d09d72d40fdae2fd8ceac6b6234c7706214fd39c1cd1e609a0528c19930080546001600160a01b031981166001600160a01b03848116918217845560405192169182907f8be0079c531659141344cd1fd0a4f28419497f9722a3daafe3b4186f6b6457e090600090a3505050565b6001600160a01b03811660009081526001830160205260408120541515613a2c565b6001600160a01b0382166000908152600a6020526040902061471d9082614a50565b5061159c8282615023565b60408051600481526024810182526020810180517bffffffffffffffffffffffffffffffffffffffffffffffffffffffff166001600160e01b0319851617905290516000919082908190309061477f908590615c9a565b600060405180830381855afa9150503d80600081146147ba576040519150601f19603f3d011682016040523d82523d6000602084013e6147bf565b606091505b5091509150816147e257604051635fbab09b60e11b815260040160405180910390fd5b8080602001905181019061430b9190615c81565b60008061480284615045565b91509150816148115750505050565b6000600882815481106148265761482661593a565b60009182526020808320909101546001600160a01b0388168352601c9091526040822054909250614858908690615923565b9050806008848154811061486e5761486e61593a565b9060005260206000200181905550808260095461488b9190615ac8565b6148959190615950565b600955505050505050565b7f9b779b17422d0df92223018b32b4d1fa46e071723d6817e2486d003becc55f008054600119016148e457604051633ee5aeb560e01b815260040160405180910390fd5b60029055565b816001600160a01b0316816001600160a01b0316036149f757601e546040516253517560e01b81526001600160a01b03848116600483015260009216906253517590602401602060405180830381865afa15801561494c573d6000803e3d6000fd5b505050506040513d601f19601f820116820180604052508101906149709190615b6e565b601e5460405163facd743b60e01b81526001600160a01b03808416600483015292935091169063facd743b90602401602060405180830381865afa1580156149bc573d6000803e3d6000fd5b505050506040513d601f19601f820116820180604052508101906149e09190615b14565b156149ee576131d383613a0a565b6131d383613a33565b614a0182826141bc565b614a0a82614169565b1561159c576131d36003836141a7565b60017f9b779b17422d0df92223018b32b4d1fa46e071723d6817e2486d003becc55f0055565b61373a614510565b614a1a614510565b6000613a2c836001600160a01b0384166150b7565b60006122bc825490565b6001600160a01b0381166000908152601360205260409020546007548082101580614aca5750826001600160a01b031660078381548110614ab257614ab261593a565b6000918252602090912001546001600160a01b031614155b15614b5b576001600160a01b03831660008181526013602052604081208390556007805460018181019092557fa66cc928b5edb82af9bd49922954155ab7b0942694bea4ce44661d9a8736c6880180546001600160a01b03191690931790925560088054928301815581527ff3f7a9fe364faab93b216da50a3214154f22a0a2b415b23a84c8169e8b636ee3909101555b6131d383614de7565b60085460075414614b725750565b6001600160a01b03811660009081526013602052604090205460075481108015614bcb5750816001600160a01b031660078281548110614bb457614bb461593a565b6000918252602090912001546001600160a01b0316145b1561159c5760088181548110614be357614be361593a565b906000526020600020015460095410614c305760088181548110614c0957614c0961593a565b906000526020600020015460096000828254614c259190615ac8565b90915550614c369050565b60006009555b600754600090614c4890600190615ac8565b9050600060078281548110614c5f57614c5f61593a565b600091825260209091200154600780546001600160a01b039092169250829185908110614c8e57614c8e61593a565b9060005260206000200160006101000a8154816001600160a01b0302191690836001600160a01b0316021790555060088281548110614ccf57614ccf61593a565b906000526020600020015460088481548110614ced57614ced61593a565b60009182526020808320909101929092556001600160a01b038084168252601390925260408082208690559186168152908120556007805480614d3257614d32615cb6565b600082815260209020810160001990810180546001600160a01b03191690550190556008805480614d6557614d65615cb6565b6001900381819060005260206000200160009055905550505050565b60608160000180548060200260200160405190810160405280929190818152602001828054801561215757602002820191906000526020600020905b815481526020019060010190808311614dbd5750505050509050919050565b61159c600382614a50565b61159c6005826141a7565b601e5460405163a0d16cad60e01b81526001600160a01b0384811660048301529091169063a0d16cad90602401602060405180830381865afa158015614e3c573d6000803e3d6000fd5b505050506040513d601f19601f82011682018060405250810190614e609190615b14565b1580614e6c5750601654155b15614e7657505050565b6001600160a01b03808416600090815260246020908152604080832093851683529290522054601654811015614f08576001600160a01b0380851660008181526014602090815260408083209487168084529482528083205484845260238352818420868552835281842060168054865290845282852091909155549383526024825280832094835293905291909120555b50505050565b60008181526001830160205260408120548015614ff7576000614f32600183615ac8565b8554909150600090614f4690600190615ac8565b9050808214614fab576000866000018281548110614f6657614f6661593a565b9060005260206000200154905080876000018481548110614f8957614f8961593a565b6000918252602080832090910192909255918252600188019052604090208390555b8554869080614fbc57614fbc615cb6565b6001900381819060005260206000200160009055905585600101600086815260200190815260200160002060009055600193505050506122bc565b60009150506122bc565b6001600160a01b0382166000908152600b602052604090206131d39082614a50565b6001600160a01b0382166000908152600b602052604090206131d390826141a7565b6001600160a01b0381166000908152601360205260408120546007548110801561509e5750826001600160a01b0316600782815481106150875761508761593a565b6000918252602090912001546001600160a01b0316145b156150ac5760019150915091565b506000928392509050565b60008181526001830160205260408120546150fe575081546001818101845560008481526020808220909301849055845484825282860190935260409020919091556122bc565b5060006122bc565b828054828255906000526020600020908101928215615141579160200282015b82811115615141578251825591602001919060010190615126565b5061514d92915061516b565b5090565b5080546000825590600052602060002090810190611d4991905b5b8082111561514d576000815560010161516c565b6001600160a01b0381168114611d4957600080fd5b60008083601f8401126151a757600080fd5b50813567ffffffffffffffff8111156151bf57600080fd5b6020830191508360208260051b85010111156151da57600080fd5b9250929050565b600080600080600080608087890312156151fa57600080fd5b863561520581615180565b9550602087013567ffffffffffffffff8082111561522257600080fd5b90880190610120828b03121561523757600080fd5b9095506040880135908082111561524d57600080fd5b6152598a838b01615195565b9096509450606089013591508082111561527257600080fd5b5061527f89828a01615195565b979a9699509497509295939492505050565b600080604083850312156152a457600080fd5b8235915060208301356152b681615180565b809150509250929050565b6000602082840312156152d357600080fd5b8135613a2c81615180565b6000602082840312156152f057600080fd5b5035919050565b60008060006060848603121561530c57600080fd5b833561531781615180565b9250602084013561532781615180565b929592945050506040919091013590565b634e487b7160e01b600052604160045260246000fd5b604051601f8201601f1916810167ffffffffffffffff8111828210171561537757615377615338565b604052919050565b600082601f83011261539057600080fd5b813567ffffffffffffffff8111156153aa576153aa615338565b6153bd601f8201601f191660200161534e565b8181528460208386010111156153d257600080fd5b816020850160208301376000918101602001919091529392505050565b60008060006060848603121561540457600080fd5b833567ffffffffffffffff8082111561541c57600080fd5b6154288783880161537f565b945060209150818601358181111561543f57600080fd5b61544b8882890161537f565b94505060408601358181111561546057600080fd5b8601601f8101881361547157600080fd5b80358281111561548357615483615338565b8060051b925061549484840161534e565b818152928201840192848101908a8511156154ae57600080fd5b928501925b848410156154cc578335825292850192908501906154b3565b8096505050505050509250925092565b600080604083850312156154ef57600080fd5b82356154fa81615180565b946020939093013593505050565b60005b8381101561552357818101518382015260200161550b565b50506000910152565b60008151808452615544816020860160208601615508565b601f01601f19169290920160200192915050565b602081526000613a2c602083018461552c565b60008083601f84011261557d57600080fd5b50813567ffffffffffffffff81111561559557600080fd5b6020830191508360208285010111156151da57600080fd5b80356fffffffffffffffffffffffffffffffff19811681146155ce57600080fd5b919050565b600080600080606085870312156155e957600080fd5b84356155f481615180565b9350602085013567ffffffffffffffff81111561561057600080fd5b61561c8782880161556b565b909450925061562f9050604086016155ad565b905092959194509250565b6020808252825182820181905260009190848201906040850190845b8181101561567b5783516001600160a01b031683529284019291840191600101615656565b50909695505050505050565b6000806040838503121561569a57600080fd5b82356156a581615180565b915060208301356152b681615180565b80356001600160f01b0319811681146155ce57600080fd5b6000806000606084860312156156e257600080fd5b83356156ed81615180565b92506156fb602085016155ad565b9150615709604085016156b5565b90509250925092565b6000806000806060858703121561572857600080fd5b843567ffffffffffffffff81111561573f57600080fd5b61574b8782880161556b565b909550935061575e9050602086016155ad565b915061562f604086016156b5565b80356001600160e01b0319811681146155ce57600080fd5b60006020828403121561579657600080fd5b613a2c8261576c565b60008151808452602080850194506020840160005b838110156157d0578151875295820195908201906001016157b4565b509495945050505050565b6040815260006157ee604083018561579f565b90508260208301529392505050565b606081526000615810606083018661552c565b6fffffffffffffffffffffffffffffffff19949094166020830152506001600160f01b031991909116604090910152919050565b60006020828403121561585657600080fd5b813567ffffffffffffffff81111561586d57600080fd5b6127a08482850161537f565b602080825282516001600160e01b031916828201528201516040808301526000906127a0606084018261579f565b600080604083850312156158ba57600080fd5b6154fa8361576c565b6000808335601e198436030181126158da57600080fd5b83018035915067ffffffffffffffff8211156158f557600080fd5b6020019150600581901b36038213156151da57600080fd5b634e487b7160e01b600052601160045260246000fd5b80820281158282048414176122bc576122bc61590d565b634e487b7160e01b600052603260045260246000fd5b808201808211156122bc576122bc61590d565b600181811c9082168061597757607f821691505b60208210810361599757634e487b7160e01b600052602260045260246000fd5b50919050565b601f8211156131d3576000816000526020600020601f850160051c810160208610156159c65750805b601f850160051c820191505b818110156159e5578281556001016159d2565b505050505050565b815167ffffffffffffffff811115615a0757615a07615338565b615a1b81615a158454615963565b8461599d565b602080601f831160018114615a505760008415615a385750858301515b600019600386901b1c1916600185901b1785556159e5565b600085815260208120601f198616915b82811015615a7f57888601518255948401946001909101908401615a60565b5085821015615a9d5787850151600019600388901b60f8161c191681555b5050505050600190811b01905550565b600060208284031215615abf57600080fd5b613a2c826155ad565b818103818111156122bc576122bc61590d565b606081526000615aee606083018661552c565b8281036020840152615b00818661552c565b90508281036040840152614419818561579f565b600060208284031215615b2657600080fd5b81518015158114613a2c57600080fd5b634e487b7160e01b600052601260045260246000fd5b600082615b6957634e487b7160e01b600052601260045260246000fd5b500490565b600060208284031215615b8057600080fd5b8151613a2c81615180565b67ffffffffffffffff831115615ba357615ba3615338565b615bb783615bb18354615963565b8361599d565b6000601f841160018114615beb5760008515615bd35750838201355b600019600387901b1c1916600186901b178355615c45565b600083815260209020601f19861690835b82811015615c1c5786850135825560209485019460019092019101615bfc565b5086821015615c395760001960f88860031b161c19848701351681555b505060018560011b0183555b5050505050565b6000600160ff1b8201615c6157615c6161590d565b5060000390565b600060018201615c7a57615c7a61590d565b5060010190565b600060208284031215615c9357600080fd5b5051919050565b60008251615cac818460208701615508565b9190910192915050565b634e487b7160e01b600052603160045260246000fdfea2646970667358221220ef291e980fb460829a09440a88a93d1c2b14500f6b6b862759abd0a740e5b6d364736f6c63430008190033",
  "linkReferences": {},
  "deployedLinkReferences": {}
}