{
  "_format": "hh-sol-artifact-1",
  "contractName": "TransferUtilsMock",
  "sourceName": "contracts/mockContracts/TransferUtilsMock.sol",
  "abi": [
    {
      "inputs": [],
      "name": "InsufficientBalance",
      "type": "error"
    },
    {
      "inputs": [
        {
          "internalType": "address",
          "name": "recipient",
          "type": "address"
        },
        {
          "internalType": "uint256",
          "name": "amount",
          "type": "uint256"
        }
      ],
      "name": "TransferFailed",
      "type": "error"
    },
    {
      "inputs": [
        {
          "internalType": "address",
          "name": "recipient",
          "type": "address"
        },
        {
          "internalType": "uint256",
          "name": "amount",
          "type": "uint256"
        }
      ],
      "name": "transferNative",
      "outputs": [],
      "stateMutability": "payable",
      "type": "function"
    },
    {
      "stateMutability": "payable",
      "type": "receive"
    }
  ],
  "bytecode": "0x6080604052348015600f57600080fd5b506101788061001f6000396000f3fe6080604052600436106100225760003560e01c80637d2e90c21461002e57600080fd5b3661002957005b600080fd5b61004161003c36600461010a565b610043565b005b6100566001600160a01b0383168261005a565b5050565b8047101561007b57604051631e9acf1760e31b815260040160405180910390fd5b6000826001600160a01b03168260405160006040518083038185875af1925050503d80600081146100c8576040519150601f19603f3d011682016040523d82523d6000602084013e6100cd565b606091505b505090508061010557604051630e21dcbb60e11b81526001600160a01b03841660048201526024810183905260440160405180910390fd5b505050565b6000806040838503121561011d57600080fd5b82356001600160a01b038116811461013457600080fd5b94602093909301359350505056fea2646970667358221220d3612c991d1ecc21a8749ed3fb3b32c5f0c2b3aa864c821e6ad615eed1afde4064736f6c63430008190033",
  "linkReferences": {},
  "deployedLinkReferences": {}
}