{
  "_format": "hh-sol-artifact-1",
  "contractName": "TransferUtilsMock",
  "sourceName": "contracts/mockContracts/TransferUtilsMock.sol",
  "abi": [
    {
      "inputs": [],
      "name": "InsufficientBalance",
      "type": "error"
    },
    {
      "inputs": [
        {
          "internalType": "address",
          "name": "recipient",
          "type": "address"
        },
        {
          "internalType": "uint256",
          "name": "amount",
          "type": "uint256"
        }
      ],
      "name": "TransferFailed",
      "type": "error"
    },
    {
      "inputs": [
        {
          "internalType": "address",
          "name": "recipient",
          "type": "address"
        },
        {
          "internalType": "uint256",
          "name": "amount",
          "type": "uint256"
        }
      ],
      "name": "transferNative",
      "outputs": [],
      "stateMutability": "payable",
      "type": "function"
    },
    {
      "stateMutability": "payable",
      "type": "receive"
    }
  ],
  "bytecode": "0x6080604052348015600f57600080fd5b506103248061001f6000396000f3fe6080604052600436106100225760003560e01c80637d2e90c21461002e57610029565b3661002957005b600080fd5b6100486004803603810190610043919061026d565b61004a565b005b610073818373ffffffffffffffffffffffffffffffffffffffff1661007790919063ffffffff16565b5050565b61008b67dfdfeb7a55abce6160c01b61026a565b61009f6761f3f0049f1c7d9e60c01b61026a565b6100b3673a2d11865c82ba6260c01b61026a565b80471015610115576100cf673e3cc30fadd86a0b60c01b61026a565b6100e36714768395b3bcd0e960c01b61026a565b6040517ff4d678b800000000000000000000000000000000000000000000000000000000815260040160405180910390fd5b6101296792aabfcece04644660c01b61026a565b61013d67508cd9553768724a60c01b61026a565b6101516731c29fce7419230760c01b61026a565b60008273ffffffffffffffffffffffffffffffffffffffff1682604051610177906102b6565b60006040518083038185875af1925050503d80600081146101b4576040519150601f19603f3d011682016040523d82523d6000602084013e6101b9565b606091505b505090506101d16765d3253b7b3dc27260c01b61026a565b6101e567d80fb7d1a14a129760c01b61026a565b80610251576101fe67d38149d84994225960c01b61026a565b610212677f1dcc6df667d61d60c01b61026a565b82826040517f1c43b9760000000000000000000000000000000000000000000000000000000081526004016102489291906102c0565b60405180910390fd5b6102656727f915e38bffa7d360c01b61026a565b505050565b50565b6000806040838503121561028057600080fd5b823573ffffffffffffffffffffffffffffffffffffffff811681146102a457600080fd5b80925050602083013590509250929050565b6000819050919050565b600060408201905073ffffffffffffffffffffffffffffffffffffffff84168252826020830152939250505056fea264697066735822122085073f91507beb4a62fc04c174ef7fe99bf900c6d3082a3ae3bfa4959f8bd1a264736f6c63430008190033",
  "linkReferences": {},
  "deployedLinkReferences": {}
}