{
  "_format": "hh-sol-artifact-1",
  "contractName": "TxPermissionHbbftMock",
  "sourceName": "contracts/mockContracts/TxPermissionHbbftMock.sol",
  "abi": [
    {
      "inputs": [
        {
          "internalType": "address",
          "name": "_value",
          "type": "address"
        }
      ],
      "name": "AlreadyExist",
      "type": "error"
    },
    {
      "inputs": [],
      "name": "GetterCallFailed",
      "type": "error"
    },
    {
      "inputs": [],
      "name": "InvalidBlockGasLimit",
      "type": "error"
    },
    {
      "inputs": [],
      "name": "InvalidInitialization",
      "type": "error"
    },
    {
      "inputs": [],
      "name": "InvalidMinGasPrice",
      "type": "error"
    },
    {
      "inputs": [
        {
          "internalType": "uint256",
          "name": "_newVal",
          "type": "uint256"
        }
      ],
      "name": "NewValueOutOfRange",
      "type": "error"
    },
    {
      "inputs": [
        {
          "internalType": "address",
          "name": "_value",
          "type": "address"
        }
      ],
      "name": "NotExist",
      "type": "error"
    },
    {
      "inputs": [],
      "name": "NotInitializing",
      "type": "error"
    },
    {
      "inputs": [
        {
          "internalType": "address",
          "name": "owner",
          "type": "address"
        }
      ],
      "name": "OwnableInvalidOwner",
      "type": "error"
    },
    {
      "inputs": [
        {
          "internalType": "address",
          "name": "account",
          "type": "address"
        }
      ],
      "name": "OwnableUnauthorizedAccount",
      "type": "error"
    },
    {
      "inputs": [],
      "name": "SenderNotAllowed",
      "type": "error"
    },
    {
      "inputs": [],
      "name": "ZeroAddress",
      "type": "error"
    },
    {
      "anonymous": false,
      "inputs": [
        {
          "indexed": false,
          "internalType": "uint256",
          "name": "_value",
          "type": "uint256"
        }
      ],
      "name": "BlockGasLimitChanged",
      "type": "event"
    },
    {
      "anonymous": false,
      "inputs": [
        {
          "indexed": false,
          "internalType": "uint256",
          "name": "_value",
          "type": "uint256"
        }
      ],
      "name": "GasPriceChanged",
      "type": "event"
    },
    {
      "anonymous": false,
      "inputs": [
        {
          "indexed": false,
          "internalType": "uint64",
          "name": "version",
          "type": "uint64"
        }
      ],
      "name": "Initialized",
      "type": "event"
    },
    {
      "anonymous": false,
      "inputs": [
        {
          "indexed": true,
          "internalType": "address",
          "name": "previousOwner",
          "type": "address"
        },
        {
          "indexed": true,
          "internalType": "address",
          "name": "newOwner",
          "type": "address"
        }
      ],
      "name": "OwnershipTransferred",
      "type": "event"
    },
    {
      "anonymous": false,
      "inputs": [
        {
          "indexed": false,
          "internalType": "string",
          "name": "funcSelector",
          "type": "string"
        }
      ],
      "name": "RemoveChangeAbleParameter",
      "type": "event"
    },
    {
      "anonymous": false,
      "inputs": [
        {
          "indexed": false,
          "internalType": "uint256",
          "name": "_blockGasLimit",
          "type": "uint256"
        }
      ],
      "name": "SetBlockGasLimit",
      "type": "event"
    },
    {
      "anonymous": false,
      "inputs": [
        {
          "indexed": false,
          "internalType": "string",
          "name": "setter",
          "type": "string"
        },
        {
          "indexed": false,
          "internalType": "string",
          "name": "getter",
          "type": "string"
        },
        {
          "indexed": false,
          "internalType": "uint256[]",
          "name": "params",
          "type": "uint256[]"
        }
      ],
      "name": "SetChangeAbleParameter",
      "type": "event"
    },
    {
      "anonymous": false,
      "inputs": [
        {
          "indexed": false,
          "internalType": "address",
          "name": "_value",
          "type": "address"
        }
      ],
      "name": "SetConnectivityTracker",
      "type": "event"
    },
    {
      "anonymous": false,
      "inputs": [
        {
          "indexed": false,
          "internalType": "uint256",
          "name": "_minGasPrice",
          "type": "uint256"
        }
      ],
      "name": "SetMinimumGasPrice",
      "type": "event"
    },
    {
      "inputs": [],
      "name": "ANNOUNCE_AVAILABILITY_SIGNATURE",
      "outputs": [
        {
          "internalType": "bytes4",
          "name": "",
          "type": "bytes4"
        }
      ],
      "stateMutability": "view",
      "type": "function"
    },
    {
      "inputs": [],
      "name": "REPORT_MISSING_CONNECTIVITY_SELECTOR",
      "outputs": [
        {
          "internalType": "bytes4",
          "name": "",
          "type": "bytes4"
        }
      ],
      "stateMutability": "view",
      "type": "function"
    },
    {
      "inputs": [],
      "name": "REPORT_RECONNECT_SELECTOR",
      "outputs": [
        {
          "internalType": "bytes4",
          "name": "",
          "type": "bytes4"
        }
      ],
      "stateMutability": "view",
      "type": "function"
    },
    {
      "inputs": [],
      "name": "SET_VALIDATOR_IP",
      "outputs": [
        {
          "internalType": "bytes4",
          "name": "",
          "type": "bytes4"
        }
      ],
      "stateMutability": "view",
      "type": "function"
    },
    {
      "inputs": [],
      "name": "WRITE_ACKS_SIGNATURE",
      "outputs": [
        {
          "internalType": "bytes4",
          "name": "",
          "type": "bytes4"
        }
      ],
      "stateMutability": "view",
      "type": "function"
    },
    {
      "inputs": [],
      "name": "WRITE_PART_SIGNATURE",
      "outputs": [
        {
          "internalType": "bytes4",
          "name": "",
          "type": "bytes4"
        }
      ],
      "stateMutability": "view",
      "type": "function"
    },
    {
      "inputs": [
        {
          "internalType": "address",
          "name": "_sender",
          "type": "address"
        }
      ],
      "name": "addAllowedSender",
      "outputs": [],
      "stateMutability": "nonpayable",
      "type": "function"
    },
    {
      "inputs": [
        {
          "internalType": "bytes4",
          "name": "",
          "type": "bytes4"
        }
      ],
      "name": "allowedParameterRange",
      "outputs": [
        {
          "internalType": "bytes4",
          "name": "getter",
          "type": "bytes4"
        }
      ],
      "stateMutability": "view",
      "type": "function"
    },
    {
      "inputs": [],
      "name": "allowedSenders",
      "outputs": [
        {
          "internalType": "address[]",
          "name": "",
          "type": "address[]"
        }
      ],
      "stateMutability": "view",
      "type": "function"
    },
    {
      "inputs": [
        {
          "internalType": "address",
          "name": "_sender",
          "type": "address"
        },
        {
          "internalType": "address",
          "name": "_to",
          "type": "address"
        },
        {
          "internalType": "uint256",
          "name": "",
          "type": "uint256"
        },
        {
          "internalType": "uint256",
          "name": "_gasPrice",
          "type": "uint256"
        },
        {
          "internalType": "bytes",
          "name": "_data",
          "type": "bytes"
        }
      ],
      "name": "allowedTxTypes",
      "outputs": [
        {
          "internalType": "uint32",
          "name": "typesMask",
          "type": "uint32"
        },
        {
          "internalType": "bool",
          "name": "cache",
          "type": "bool"
        }
      ],
      "stateMutability": "view",
      "type": "function"
    },
    {
      "inputs": [],
      "name": "blockGasLimit",
      "outputs": [
        {
          "internalType": "uint256",
          "name": "",
          "type": "uint256"
        }
      ],
      "stateMutability": "view",
      "type": "function"
    },
    {
      "inputs": [],
      "name": "certifierContract",
      "outputs": [
        {
          "internalType": "contract ICertifier",
          "name": "",
          "type": "address"
        }
      ],
      "stateMutability": "view",
      "type": "function"
    },
    {
      "inputs": [],
      "name": "connectivityTracker",
      "outputs": [
        {
          "internalType": "contract IConnectivityTrackerHbbft",
          "name": "",
          "type": "address"
        }
      ],
      "stateMutability": "view",
      "type": "function"
    },
    {
      "inputs": [],
      "name": "contractName",
      "outputs": [
        {
          "internalType": "string",
          "name": "",
          "type": "string"
        }
      ],
      "stateMutability": "pure",
      "type": "function"
    },
    {
      "inputs": [],
      "name": "contractNameHash",
      "outputs": [
        {
          "internalType": "bytes32",
          "name": "",
          "type": "bytes32"
        }
      ],
      "stateMutability": "pure",
      "type": "function"
    },
    {
      "inputs": [],
      "name": "contractVersion",
      "outputs": [
        {
          "internalType": "uint256",
          "name": "",
          "type": "uint256"
        }
      ],
      "stateMutability": "pure",
      "type": "function"
    },
    {
      "inputs": [
        {
          "internalType": "string",
          "name": "_selector",
          "type": "string"
        }
      ],
      "name": "getAllowedParamsRange",
      "outputs": [
        {
          "components": [
            {
              "internalType": "bytes4",
              "name": "getter",
              "type": "bytes4"
            },
            {
              "internalType": "uint256[]",
              "name": "range",
              "type": "uint256[]"
            }
          ],
          "internalType": "struct ValueGuards.ParameterRange",
          "name": "",
          "type": "tuple"
        }
      ],
      "stateMutability": "view",
      "type": "function"
    },
    {
      "inputs": [
        {
          "internalType": "bytes4",
          "name": "_selector",
          "type": "bytes4"
        }
      ],
      "name": "getAllowedParamsRangeWithSelector",
      "outputs": [
        {
          "components": [
            {
              "internalType": "bytes4",
              "name": "getter",
              "type": "bytes4"
            },
            {
              "internalType": "uint256[]",
              "name": "range",
              "type": "uint256[]"
            }
          ],
          "internalType": "struct ValueGuards.ParameterRange",
          "name": "",
          "type": "tuple"
        }
      ],
      "stateMutability": "view",
      "type": "function"
    },
    {
      "inputs": [
        {
          "internalType": "string",
          "name": "setter",
          "type": "string"
        },
        {
          "internalType": "string",
          "name": "getter",
          "type": "string"
        },
        {
          "internalType": "uint256[]",
          "name": "params",
          "type": "uint256[]"
        }
      ],
      "name": "initAllowedChangeableParameter",
      "outputs": [],
      "stateMutability": "nonpayable",
      "type": "function"
    },
    {
      "inputs": [
        {
          "internalType": "address[]",
          "name": "_allowed",
          "type": "address[]"
        },
        {
          "internalType": "address",
          "name": "_certifier",
          "type": "address"
        },
        {
          "internalType": "address",
          "name": "_validatorSet",
          "type": "address"
        },
        {
          "internalType": "address",
          "name": "_keyGenHistoryContract",
          "type": "address"
        },
        {
          "internalType": "address",
          "name": "_connectivityTracker",
          "type": "address"
        },
        {
          "internalType": "address",
          "name": "_contractOwner",
          "type": "address"
        }
      ],
      "name": "initialize",
      "outputs": [],
      "stateMutability": "nonpayable",
      "type": "function"
    },
    {
      "inputs": [
        {
          "internalType": "address",
          "name": "",
          "type": "address"
        }
      ],
      "name": "isSenderAllowed",
      "outputs": [
        {
          "internalType": "bool",
          "name": "",
          "type": "bool"
        }
      ],
      "stateMutability": "view",
      "type": "function"
    },
    {
      "inputs": [
        {
          "internalType": "bytes4",
          "name": "funcSelector",
          "type": "bytes4"
        },
        {
          "internalType": "uint256",
          "name": "newVal",
          "type": "uint256"
        }
      ],
      "name": "isWithinAllowedRange",
      "outputs": [
        {
          "internalType": "bool",
          "name": "",
          "type": "bool"
        }
      ],
      "stateMutability": "view",
      "type": "function"
    },
    {
      "inputs": [],
      "name": "keyGenHistoryContract",
      "outputs": [
        {
          "internalType": "contract IKeyGenHistory",
          "name": "",
          "type": "address"
        }
      ],
      "stateMutability": "view",
      "type": "function"
    },
    {
      "inputs": [],
      "name": "minimumGasPrice",
      "outputs": [
        {
          "internalType": "uint256",
          "name": "",
          "type": "uint256"
        }
      ],
      "stateMutability": "view",
      "type": "function"
    },
    {
      "inputs": [],
      "name": "owner",
      "outputs": [
        {
          "internalType": "address",
          "name": "",
          "type": "address"
        }
      ],
      "stateMutability": "view",
      "type": "function"
    },
    {
      "inputs": [
        {
          "internalType": "string",
          "name": "funcSelector",
          "type": "string"
        }
      ],
      "name": "removeAllowedChangeableParameter",
      "outputs": [],
      "stateMutability": "nonpayable",
      "type": "function"
    },
    {
      "inputs": [
        {
          "internalType": "address",
          "name": "_sender",
          "type": "address"
        }
      ],
      "name": "removeAllowedSender",
      "outputs": [],
      "stateMutability": "nonpayable",
      "type": "function"
    },
    {
      "inputs": [],
      "name": "renounceOwnership",
      "outputs": [],
      "stateMutability": "nonpayable",
      "type": "function"
    },
    {
      "inputs": [
        {
          "internalType": "string",
          "name": "setter",
          "type": "string"
        },
        {
          "internalType": "string",
          "name": "getter",
          "type": "string"
        },
        {
          "internalType": "uint256[]",
          "name": "params",
          "type": "uint256[]"
        }
      ],
      "name": "setAllowedChangeableParameter",
      "outputs": [],
      "stateMutability": "nonpayable",
      "type": "function"
    },
    {
      "inputs": [
        {
          "internalType": "uint256",
          "name": "_value",
          "type": "uint256"
        }
      ],
      "name": "setBlockGasLimit",
      "outputs": [],
      "stateMutability": "nonpayable",
      "type": "function"
    },
    {
      "inputs": [
        {
          "internalType": "address",
          "name": "_connectivityTracker",
          "type": "address"
        }
      ],
      "name": "setConnectivityTracker",
      "outputs": [],
      "stateMutability": "nonpayable",
      "type": "function"
    },
    {
      "inputs": [
        {
          "internalType": "uint256",
          "name": "_value",
          "type": "uint256"
        }
      ],
      "name": "setMinimumGasPrice",
      "outputs": [],
      "stateMutability": "nonpayable",
      "type": "function"
    },
    {
      "inputs": [
        {
          "internalType": "address",
          "name": "_address",
          "type": "address"
        }
      ],
      "name": "setValidatorSetContract",
      "outputs": [],
      "stateMutability": "nonpayable",
      "type": "function"
    },
    {
      "inputs": [
        {
          "internalType": "address",
          "name": "newOwner",
          "type": "address"
        }
      ],
      "name": "transferOwnership",
      "outputs": [],
      "stateMutability": "nonpayable",
      "type": "function"
    },
    {
      "inputs": [],
      "name": "validatorSetContract",
      "outputs": [
        {
          "internalType": "contract IValidatorSetHbbft",
          "name": "",
          "type": "address"
        }
      ],
      "stateMutability": "view",
      "type": "function"
    }
  ],
  "bytecode": "0x6080604052348015600f57600080fd5b506016601a565b60ca565b7ff0c57e16840df040f15088dc2f81fe391c3923bec73e23a9662efc9c229c6a00805468010000000000000000900460ff161560695760405163f92ee8a960e01b815260040160405180910390fd5b80546001600160401b039081161460c75780546001600160401b0319166001600160401b0390811782556040519081527fc7f505b2f371ae2175ee4913f4499e1f2633a7b5936321eed1cdaeb6115181d29060200160405180910390a15b50565b612cdc806100d96000396000f3fe608060405234801561001057600080fd5b50600436106102415760003560e01c80638da5cb5b11610145578063bf348f86116100bd578063d3ae79651161008c578063dfc8bf4e11610071578063dfc8bf4e14610549578063efc784011461055c578063f2fde38b1461057f57600080fd5b8063d3ae796514610532578063df3cecf61461054057600080fd5b8063bf348f86146104e6578063c374bc23146104f9578063c746c8f41461050c578063d249b31c1461051f57600080fd5b8063a69257f311610114578063b710c15d116100f9578063b710c15d14610474578063b9056afa14610494578063ba08d237146104c357600080fd5b8063a69257f31461044e578063b47aef1f1461046157600080fd5b80638da5cb5b146103e157806392283634146104115780639b9fb6d014610434578063a0a8e4601461044757600080fd5b80635d685ba4116101d8578063715018a6116101a7578063782f01771161018c578063782f0177146103b75780637877a797146103c557806378ff69d5146103ce57600080fd5b8063715018a61461037057806375d0c0dc1461037857600080fd5b80635d685ba4146103115780635f0664bf14610341578063669554691461034f5780637086bcc11461036257600080fd5b806336e98ca81161021457806336e98ca8146102c0578063469ab1e3146102d5578063471eab5c146102eb5780635cb092a2146102fe57600080fd5b80631a9ebeaa1461024657806324bdf37b14610276578063305d526c1461029d5780633272b28c146102ab575b600080fd5b600254610259906001600160a01b031681565b6040516001600160a01b0390911681526020015b60405180910390f35b61028463a42bdee960e01b81565b6040516001600160e01b0319909116815260200161026d565b610284632b11904760e11b81565b6102b3610592565b60405161026d91906124f0565b6102d36102ce366004612603565b6105f4565b005b6102dd6106a8565b60405190815260200161026d565b6102d36102f9366004612715565b61070f565b6102d361030c366004612603565b610879565b6102d361031f366004612715565b600580546001600160a01b0319166001600160a01b0392909216919091179055565b6102846343bcce9f60e01b81565b600854610259906001600160a01b031681565b6102846324473b9d60e21b81565b6102d3610881565b604080518082018252601681527f54585f5045524d495353494f4e5f434f4e5452414354000000000000000000006020820152905161026d9190612782565b610284630b53784960e21b81565b6102dd60075481565b6102d36103dc366004612715565b610895565b7f9016d09d72d40fdae2fd8ceac6b6234c7706214fd39c1cd1e609a0528c199300546001600160a01b0316610259565b61028461041f3660046127ad565b60006020819052908152604090205460e01b81565b6102d36104423660046127c8565b610919565b60036102dd565b6102d361045c366004612805565b61098d565b600354610259906001600160a01b031681565b6104876104823660046127c8565b610a09565b60405161026d919061285a565b6104a76104a2366004612888565b610ab1565b6040805163ffffffff909316835290151560208301520161026d565b6104d66104d1366004612912565b6114f0565b604051901515815260200161026d565b6104876104f43660046127ad565b6116c1565b6102d361050736600461293c565b61175e565b6102d361051a366004612715565b611dc3565b6102d361052d366004612805565b611dd7565b61028463b2a6842160e01b81565b6102dd60065481565b600554610259906001600160a01b031681565b6104d661056a366004612715565b60046020526000908152604090205460ff1681565b6102d361058d366004612715565b611e4b565b606060018054806020026020016040519081016040528092919081815260200182805480156105ea57602002820191906000526020600020905b81546001600160a01b031681526001909101906020018083116105cc575b5050505050905090565b6105fc611e86565b60408051808201825283516020808601919091206001600160e01b031990811683528183018581528751888401209091166000908152808352939093208251815463ffffffff191660e09190911c178155925180519293926106649260018501920190612476565b509050507f3d45a310c5a076ea07aa2947ca3c06cc2a8b3571065867ad6f8e7096a2c9d50a83838360405161069b93929190612a03565b60405180910390a1505050565b60006106e460408051808201909152601681527f54585f5045524d495353494f4e5f434f4e545241435400000000000000000000602082015290565b6040516020016106f49190612a3c565b60405160208183030381529060405280519060200120905090565b610717611e86565b6001600160a01b03811660009081526004602052604090205460ff166107605760405163d64efe6360e01b81526001600160a01b03821660048201526024015b60405180910390fd5b60015460005b81811015610856576001818154811061078157610781612a58565b6000918252602090912001546001600160a01b039081169084160361084e5760016107ac8184612a84565b815481106107bc576107bc612a58565b600091825260209091200154600180546001600160a01b0390921691839081106107e8576107e8612a58565b9060005260206000200160006101000a8154816001600160a01b0302191690836001600160a01b03160217905550600180548061082757610827612a97565b600082815260209020810160001990810180546001600160a01b0319169055019055610856565b600101610766565b50506001600160a01b03166000908152600460205260409020805460ff19169055565b6105fc611ee1565b610889611e86565b6108936000611f2f565b565b61089d611e86565b6001600160a01b0381166108c45760405163d92e233d60e01b815260040160405180910390fd5b600880546001600160a01b0319166001600160a01b0383169081179091556040519081527f387d29e18823e432432b6098ebeee33beebdb128d2234c7f486c26447b738edd906020015b60405180910390a150565b610921611e86565b80516020808301919091206001600160e01b03191660009081529081905260408120805463ffffffff191681559061095c60018301826124c1565b50507f92d44565a40fe29702ffa146ddaa3bb133d4077f5312d682d0a2632a9bc73a8a8160405161090e9190612782565b610995611e86565b806109ac6000356001600160e01b031916826114f0565b6109cc576040516373330d9b60e01b815260048101829052602401610757565b60078290556040518281527fda69de0cab556da57726688a057caf911b2e8f850c45b6edf359bacf3db378e8906020015b60405180910390a15050565b60408051808201909152600081526060602082015281516020808401919091206001600160e01b0319908116600090815280835260409081902081518083018352815460e01b9093168352600181018054835181870281018701909452808452939491938583019392830182828015610aa157602002820191906000526020600020905b815481526020019060010190808311610a8d575b5050505050815250509050919050565b6001600160a01b038516600090815260046020526040812054819060ff1615610ae3575063ffffffff905060006114e6565b6000805b6004855110158015610af95750600481105b15610b5b57610b09816008612aad565b858281518110610b1b57610b1b612a58565b01602001517fff0000000000000000000000000000000000000000000000000000000000000016901c919091179080610b5381612ac4565b915050610ae7565b506005546001600160a01b0390811690881603610e425763bc43316160e01b6001600160e01b0319821601610c1257600554604051630f51726f60e41b81526001600160a01b038a811660048301529091169063f51726f090602401602060405180830381865afa158015610bd4573d6000803e3d6000fd5b505050506040513d601f19601f82011682018060405250810190610bf89190612add565b610c03576000610c06565b60025b600092509250506114e6565b635bd4211760e01b6001600160e01b0319821601610db6576005546040516307b9342f60e21b81526001600160a01b038a811660048301526000921690631ee4d0bc90602401602060405180830381865afa158015610c75573d6000803e3d6000fd5b505050506040513d601f19601f82011682018060405250810190610c999190612aff565b90506001600160a01b03811615610da857600560009054906101000a90046001600160a01b03166001600160a01b0316638e68dce46040518163ffffffff1660e01b8152600401602060405180830381865afa158015610cfd573d6000803e3d6000fd5b505050506040513d601f19601f82011682018060405250810190610d219190612aff565b60405163a711e6a160e01b81526001600160a01b038381166004830152919091169063a711e6a190602401602060405180830381865afa158015610d69573d6000803e3d6000fd5b505050506040513d601f19601f82011682018060405250810190610d8d9190612add565b610d98576000610d9b565b60025b60009350935050506114e6565b6000809350935050506114e6565b8415610e425760055460405163facd743b60e01b81526001600160a01b038a811660048301529091169063facd743b90602401602060405180830381865afa158015610e06573d6000803e3d6000fd5b505050506040513d601f19601f82011682018060405250810190610e2a9190612add565b610e35576002610c06565b60008092509250506114e6565b6003546001600160a01b03908116908816036112c9576334ac87b760e21b6001600160e01b03198216016110135760055460405163014e28d960e41b81526001600160a01b038a8116600483015260019216906314e28d9090602401602060405180830381865afa158015610ebb573d6000803e3d6000fd5b505050506040513d601f19601f82011682018060405250810190610edf9190612b32565b6005811115610ef057610ef0612b1c565b03610e3557602484511015610f0c5760008092509250506114e6565b6000610f19600486611fa0565b9050600560009054906101000a90046001600160a01b03166001600160a01b0316638e68dce46040518163ffffffff1660e01b8152600401602060405180830381865afa158015610f6e573d6000803e3d6000fd5b505050506040513d601f19601f82011682018060405250810190610f929190612aff565b6001600160a01b031663794c0c686040518163ffffffff1660e01b8152600401602060405180830381865afa158015610fcf573d6000803e3d6000fd5b505050506040513d601f19601f82011682018060405250810190610ff39190612b53565b610ffe906001612b6c565b8103610da857600260009350935050506114e6565b6354ee6fb960e11b6001600160e01b03198216016112c95760055460405163014e28d960e41b81526001600160a01b038a8116600483015260039216906314e28d9090602401602060405180830381865afa158015611076573d6000803e3d6000fd5b505050506040513d601f19601f8201168201806040525081019061109a9190612b32565b60058111156110ab576110ab612b1c565b03610e35576024845110156110c75760008092509250506114e6565b600560009054906101000a90046001600160a01b03166001600160a01b0316638e68dce46040518163ffffffff1660e01b8152600401602060405180830381865afa15801561111a573d6000803e3d6000fd5b505050506040513d601f19601f8201168201806040525081019061113e9190612aff565b6001600160a01b031663794c0c686040518163ffffffff1660e01b8152600401602060405180830381865afa15801561117b573d6000803e3d6000fd5b505050506040513d601f19601f8201168201806040525081019061119f9190612b53565b6111aa906001612b6c565b6111b5600486611fa0565b036111c8576002600092509250506114e6565b600560009054906101000a90046001600160a01b03166001600160a01b0316638e68dce46040518163ffffffff1660e01b8152600401602060405180830381865afa15801561121b573d6000803e3d6000fd5b505050506040513d601f19601f8201168201806040525081019061123f9190612aff565b6001600160a01b031663794c0c686040518163ffffffff1660e01b8152600401602060405180830381865afa15801561127c573d6000803e3d6000fd5b505050506040513d601f19601f820116820180604052508101906112a09190612b53565b6112ab906001612b6c565b6112b6602486611fa0565b03610e35576002600092509250506114e6565b6008546001600160a01b039081169088160361130f5760006112ec898387612018565b905080602001511561130d57806000015181604001519350935050506114e6565b505b60055460405163facd743b60e01b81526001600160a01b038a811660048301529091169063facd743b90602401602060405180830381865afa158015611359573d6000803e3d6000fd5b505050506040513d601f19601f8201168201806040525081019061137d9190612add565b80156113895750600085115b156113b5576000886001600160a01b031631116113a7576000610c06565b6001600092509250506114e6565b60055460405163facd743b60e01b81526001600160a01b0389811660048301529091169063facd743b90602401602060405180830381865afa1580156113ff573d6000803e3d6000fd5b505050506040513d601f19601f820116820180604052508101906114239190612add565b156114355760008092509250506114e6565b846000036114c7576002546040516303a388eb60e61b81526001600160a01b038a811660048301529091169063e8e23ac090602401602060405180830381865afa158015611487573d6000803e3d6000fd5b505050506040513d601f19601f820116820180604052508101906114ab9190612add565b6114b6576000610c06565b63ffffffff600092509250506114e6565b6006548510156114d85760006114de565b63ffffffff5b600092509250505b9550959350505050565b6001600160e01b031980831660009081526020818152604080832081518083018352815460e01b90951685526001810180548351818602810186019094528084529495869590949293858401939092919083018282801561157057602002820191906000526020600020905b81548152602001906001019080831161155c575b50505050508152505090508060200151516000036115925760009150506116bb565b602081015181516000906115a5906121e9565b905060005b82518110156116b257818382815181106115c6576115c6612a58565b6020026020010151036116aa5760008082116115fc57836000815181106115ef576115ef612a58565b6020026020010151611621565b83611608600184612a84565b8151811061161857611618612a58565b60200260200101515b90506000600185516116339190612a84565b83106116655784600186516116489190612a84565b8151811061165857611658612a58565b602002602001015161168a565b84611671846001612b6c565b8151811061168157611681612a58565b60200260200101515b905081881415801561169c5750808814155b1596505050505050506116bb565b6001016115aa565b50600093505050505b92915050565b6040805180820190915260008152606060208201526001600160e01b03198083166000908152602081815260409182902082518084018452815460e01b9094168452600181018054845181850281018501909552808552919385840193909290830182828015610aa15760200282019190600052602060002090815481526020019060010190808311610a8d575050505050815250509050919050565b7ff0c57e16840df040f15088dc2f81fe391c3923bec73e23a9662efc9c229c6a00805468010000000000000000810460ff16159067ffffffffffffffff166000811580156117a95750825b905060008267ffffffffffffffff1660011480156117c65750303b155b9050811580156117d4575080155b156117f25760405163f92ee8a960e01b815260040160405180910390fd5b845467ffffffffffffffff19166001178555831561182657845468ff00000000000000001916680100000000000000001785555b6001600160a01b038616158061184357506001600160a01b038a16155b8061185557506001600160a01b038916155b8061186757506001600160a01b038816155b8061187957506001600160a01b038716155b156118975760405163d92e233d60e01b815260040160405180910390fd5b6118a0866122c0565b60005b8b8110156118e2576118da8d8d838181106118c0576118c0612a58565b90506020020160208101906118d59190612715565b6122d1565b6001016118a3565b50600280546001600160a01b038c81166001600160a01b031992831617909255600580548c8416908316179055600380548b841690831617905560088054928a1692909116919091179055633b9aca006006556305f5e10060075560408051600b808252610180820190925260009160208201610160803683370190505090506305f5e1008160008151811061197a5761197a612a58565b602002602001018181525050630bebc2008160018151811061199e5761199e612a58565b6020026020010181815250506317d78400816002815181106119c2576119c2612a58565b6020026020010181815250506323c34600816003815181106119e6576119e6612a58565b602002602001018181525050632faf080081600481518110611a0a57611a0a612a58565b602002602001018181525050633b9aca0081600581518110611a2e57611a2e612a58565b602002602001018181525050637735940081600681518110611a5257611a52612a58565b60200260200101818152505063ee6b280081600781518110611a7657611a76612a58565b602002602001018181525050640165a0bc0081600881518110611a9b57611a9b612a58565b6020026020010181815250506401dcd6500081600981518110611ac057611ac0612a58565b6020026020010181815250506402540be40081600a81518110611ae557611ae5612a58565b602002602001018181525050611b666040518060400160405280601b81526020017f7365744d696e696d756d47617350726963652875696e743235362900000000008152506040518060400160405280601181526020017f6d696e696d756d4761735072696365282900000000000000000000000000000081525083610879565b60408051600a808252610160820190925260009160208201610140803683370190505090506305f5e10081600081518110611ba357611ba3612a58565b602002602001018181525050630bebc20081600181518110611bc757611bc7612a58565b6020026020010181815250506311e1a30081600281518110611beb57611beb612a58565b6020026020010181815250506317d7840081600381518110611c0f57611c0f612a58565b602002602001018181525050631dcd650081600481518110611c3357611c33612a58565b6020026020010181815250506323c3460081600581518110611c5757611c57612a58565b6020026020010181815250506329b9270081600681518110611c7b57611c7b612a58565b602002602001018181525050632faf080081600781518110611c9f57611c9f612a58565b6020026020010181815250506335a4e90081600881518110611cc357611cc3612a58565b602002602001018181525050633b9aca0081600981518110611ce757611ce7612a58565b602002602001018181525050611d686040518060400160405280601981526020017f736574426c6f636b4761734c696d69742875696e7432353629000000000000008152506040518060400160405280600f81526020017f626c6f636b4761734c696d69742829000000000000000000000000000000000081525083610879565b50508315611db557845468ff000000000000000019168555604051600181527fc7f505b2f371ae2175ee4913f4499e1f2633a7b5936321eed1cdaeb6115181d29060200160405180910390a15b505050505050505050505050565b611dcb611e86565b611dd4816122d1565b50565b611ddf611e86565b80611df66000356001600160e01b031916826114f0565b611e16576040516373330d9b60e01b815260048101829052602401610757565b60068290556040518281527f52264b89e0fceafb26e79fd49ef8a366eb6297483bf4035b027f0c99a7ad512e906020016109fd565b611e53611e86565b6001600160a01b038116611e7d57604051631e4fbdf760e01b815260006004820152602401610757565b611dd481611f2f565b33611eb87f9016d09d72d40fdae2fd8ceac6b6234c7706214fd39c1cd1e609a0528c199300546001600160a01b031690565b6001600160a01b0316146108935760405163118cdaa760e01b8152336004820152602401610757565b7ff0c57e16840df040f15088dc2f81fe391c3923bec73e23a9662efc9c229c6a005468010000000000000000900460ff1661089357604051631afcd79f60e31b815260040160405180910390fd5b7f9016d09d72d40fdae2fd8ceac6b6234c7706214fd39c1cd1e609a0528c19930080546001600160a01b031981166001600160a01b03848116918217845560405192169182907f8be0079c531659141344cd1fd0a4f28419497f9722a3daafe3b4186f6b6457e090600090a3505050565b600080805b602081101561201057611fb981601f612a84565b611fc4906008612aad565b611fcf906002612c63565b84611fda8388612b6c565b81518110611fea57611fea612a58565b0160200151611ffc919060f81c612aad565b6120069083612b6c565b9150600101611fa5565b509392505050565b604080516060810182526000808252602082018190529181019190915260006060600484516120479190612a84565b1161205f576004835161205a9190612a84565b612062565b60605b90506000612072848360046123a1565b6040805160608101825260008082526001602083015291810191909152909150631bb8c46360e21b6001600160e01b0319871601612154576000806000848060200190518101906120c39190612c6f565b60085460405163060b284960e01b81526001600160a01b038f8116600483015280861660248301526044820185905260648201849052949750929550909350919091169063060b2849906084015b60006040518083038186803b15801561212957600080fd5b505afa92505050801561213a575060015b612147576000845261214c565b600284525b5050506121df565b634d597bdf60e01b6001600160e01b03198716016121d7576000806000848060200190518101906121859190612c6f565b600854604051632fb625a360e21b81526001600160a01b038f8116600483015280861660248301526044820185905260648201849052949750929550909350919091169063bed8968c90608401612111565b600060208201525b9695505050505050565b60408051600481526024810182526020810180517bffffffffffffffffffffffffffffffffffffffffffffffffffffffff166001600160e01b03198516179052905160009190829081903090612240908590612a3c565b600060405180830381855afa9150503d806000811461227b576040519150601f19603f3d011682016040523d82523d6000602084013e612280565b606091505b5091509150816122a357604051635fbab09b60e11b815260040160405180910390fd5b808060200190518101906122b79190612b53565b95945050505050565b6122c8611ee1565b611dd48161246e565b6001600160a01b0381166122f85760405163d92e233d60e01b815260040160405180910390fd5b6001600160a01b03811660009081526004602052604090205460ff161561233d576040516303e49a0960e51b81526001600160a01b0382166004820152602401610757565b6001805480820182557fb10e2d527612073b26eecdfd717e6a320cf44b4afac2b0732d9fcbe2b7fa0cf60180546001600160a01b039093166001600160a01b031990931683179055600091825260046020526040909120805460ff19169091179055565b606060008367ffffffffffffffff8111156123be576123be61253d565b6040519080825280601f01601f1916602001820160405280156123e8576020820181803683370190505b50905060005b8481101561246557856124018583612b6c565b8151811061241157612411612a58565b602001015160f81c60f81b82828151811061242e5761242e612a58565b60200101907effffffffffffffffffffffffffffffffffffffffffffffffffffffffffffff1916908160001a9053506001016123ee565b50949350505050565b611e53611ee1565b8280548282559060005260206000209081019282156124b1579160200282015b828111156124b1578251825591602001919060010190612496565b506124bd9291506124db565b5090565b5080546000825590600052602060002090810190611dd491905b5b808211156124bd57600081556001016124dc565b6020808252825182820181905260009190848201906040850190845b818110156125315783516001600160a01b03168352928401929184019160010161250c565b50909695505050505050565b634e487b7160e01b600052604160045260246000fd5b604051601f8201601f1916810167ffffffffffffffff8111828210171561257c5761257c61253d565b604052919050565b600067ffffffffffffffff83111561259e5761259e61253d565b6125b1601f8401601f1916602001612553565b90508281528383830111156125c557600080fd5b828260208301376000602084830101529392505050565b600082601f8301126125ed57600080fd5b6125fc83833560208501612584565b9392505050565b60008060006060848603121561261857600080fd5b833567ffffffffffffffff8082111561263057600080fd5b61263c878388016125dc565b945060209150818601358181111561265357600080fd5b61265f888289016125dc565b94505060408601358181111561267457600080fd5b8601601f8101881361268557600080fd5b8035828111156126975761269761253d565b8060051b92506126a8848401612553565b818152928201840192848101908a8511156126c257600080fd5b928501925b848410156126e0578335825292850192908501906126c7565b8096505050505050509250925092565b6001600160a01b0381168114611dd457600080fd5b8035612710816126f0565b919050565b60006020828403121561272757600080fd5b81356125fc816126f0565b60005b8381101561274d578181015183820152602001612735565b50506000910152565b6000815180845261276e816020860160208601612732565b601f01601f19169290920160200192915050565b6020815260006125fc6020830184612756565b80356001600160e01b03198116811461271057600080fd5b6000602082840312156127bf57600080fd5b6125fc82612795565b6000602082840312156127da57600080fd5b813567ffffffffffffffff8111156127f157600080fd5b6127fd848285016125dc565b949350505050565b60006020828403121561281757600080fd5b5035919050565b60008151808452602080850194506020840160005b8381101561284f57815187529582019590820190600101612833565b509495945050505050565b602080825282516001600160e01b031916828201528201516040808301526000906127fd606084018261281e565b600080600080600060a086880312156128a057600080fd5b85356128ab816126f0565b945060208601356128bb816126f0565b93506040860135925060608601359150608086013567ffffffffffffffff8111156128e557600080fd5b8601601f810188136128f657600080fd5b61290588823560208401612584565b9150509295509295909350565b6000806040838503121561292557600080fd5b61292e83612795565b946020939093013593505050565b600080600080600080600060c0888a03121561295757600080fd5b873567ffffffffffffffff8082111561296f57600080fd5b818a0191508a601f83011261298357600080fd5b81358181111561299257600080fd5b8b60208260051b85010111156129a757600080fd5b6020928301995097506129bd918a019050612705565b94506129cb60408901612705565b93506129d960608901612705565b92506129e760808901612705565b91506129f560a08901612705565b905092959891949750929550565b606081526000612a166060830186612756565b8281036020840152612a288186612756565b905082810360408401526121df818561281e565b60008251612a4e818460208701612732565b9190910192915050565b634e487b7160e01b600052603260045260246000fd5b634e487b7160e01b600052601160045260246000fd5b818103818111156116bb576116bb612a6e565b634e487b7160e01b600052603160045260246000fd5b80820281158282048414176116bb576116bb612a6e565b600060018201612ad657612ad6612a6e565b5060010190565b600060208284031215612aef57600080fd5b815180151581146125fc57600080fd5b600060208284031215612b1157600080fd5b81516125fc816126f0565b634e487b7160e01b600052602160045260246000fd5b600060208284031215612b4457600080fd5b8151600681106125fc57600080fd5b600060208284031215612b6557600080fd5b5051919050565b808201808211156116bb576116bb612a6e565b600181815b80851115612bba578160001904821115612ba057612ba0612a6e565b80851615612bad57918102915b93841c9390800290612b84565b509250929050565b600082612bd1575060016116bb565b81612bde575060006116bb565b8160018114612bf45760028114612bfe57612c1a565b60019150506116bb565b60ff841115612c0f57612c0f612a6e565b50506001821b6116bb565b5060208310610133831016604e8410600b8410161715612c3d575081810a6116bb565b612c478383612b7f565b8060001904821115612c5b57612c5b612a6e565b029392505050565b60006125fc8383612bc2565b600080600060608486031215612c8457600080fd5b8351612c8f816126f0565b60208501516040909501519096949550939250505056fea264697066735822122056e34f5c80edb1dfdc22df900748d38db6d66fd43158d6996add2d582953858864736f6c63430008190033",
  "linkReferences": {},
  "deployedLinkReferences": {}
}