{
  "_format": "hh-sol-artifact-1",
  "contractName": "TxPermissionHbbftMock",
  "sourceName": "contracts/mockContracts/TxPermissionHbbftMock.sol",
  "abi": [
    {
      "inputs": [
        {
          "internalType": "address",
          "name": "_value",
          "type": "address"
        }
      ],
      "name": "AlreadyExist",
      "type": "error"
    },
    {
      "inputs": [],
      "name": "GetterCallFailed",
      "type": "error"
    },
    {
      "inputs": [],
      "name": "InvalidBlockGasLimit",
      "type": "error"
    },
    {
      "inputs": [],
      "name": "InvalidInitialization",
      "type": "error"
    },
    {
      "inputs": [],
      "name": "InvalidMinGasPrice",
      "type": "error"
    },
    {
      "inputs": [
        {
          "internalType": "uint256",
          "name": "_newVal",
          "type": "uint256"
        }
      ],
      "name": "NewValueOutOfRange",
      "type": "error"
    },
    {
      "inputs": [
        {
          "internalType": "address",
          "name": "_value",
          "type": "address"
        }
      ],
      "name": "NotExist",
      "type": "error"
    },
    {
      "inputs": [],
      "name": "NotInitializing",
      "type": "error"
    },
    {
      "inputs": [
        {
          "internalType": "address",
          "name": "owner",
          "type": "address"
        }
      ],
      "name": "OwnableInvalidOwner",
      "type": "error"
    },
    {
      "inputs": [
        {
          "internalType": "address",
          "name": "account",
          "type": "address"
        }
      ],
      "name": "OwnableUnauthorizedAccount",
      "type": "error"
    },
    {
      "inputs": [],
      "name": "ReadOutOfBounds",
      "type": "error"
    },
    {
      "inputs": [],
      "name": "SenderNotAllowed",
      "type": "error"
    },
    {
      "inputs": [],
      "name": "ZeroAddress",
      "type": "error"
    },
    {
      "anonymous": false,
      "inputs": [
        {
          "indexed": true,
          "internalType": "address",
          "name": "_sender",
          "type": "address"
        }
      ],
      "name": "AddAllowedSender",
      "type": "event"
    },
    {
      "anonymous": false,
      "inputs": [
        {
          "indexed": false,
          "internalType": "uint64",
          "name": "version",
          "type": "uint64"
        }
      ],
      "name": "Initialized",
      "type": "event"
    },
    {
      "anonymous": false,
      "inputs": [
        {
          "indexed": true,
          "internalType": "address",
          "name": "previousOwner",
          "type": "address"
        },
        {
          "indexed": true,
          "internalType": "address",
          "name": "newOwner",
          "type": "address"
        }
      ],
      "name": "OwnershipTransferred",
      "type": "event"
    },
    {
      "anonymous": false,
      "inputs": [
        {
          "indexed": true,
          "internalType": "address",
          "name": "_sender",
          "type": "address"
        }
      ],
      "name": "RemoveAllowedSender",
      "type": "event"
    },
    {
      "anonymous": false,
      "inputs": [
        {
          "indexed": false,
          "internalType": "bytes4",
          "name": "funcSelector",
          "type": "bytes4"
        }
      ],
      "name": "RemoveChangeableParameter",
      "type": "event"
    },
    {
      "anonymous": false,
      "inputs": [
        {
          "indexed": false,
          "internalType": "uint256",
          "name": "_blockGasLimit",
          "type": "uint256"
        }
      ],
      "name": "SetBlockGasLimit",
      "type": "event"
    },
    {
      "anonymous": false,
      "inputs": [
        {
          "indexed": false,
          "internalType": "bytes4",
          "name": "setter",
          "type": "bytes4"
        },
        {
          "indexed": false,
          "internalType": "bytes4",
          "name": "getter",
          "type": "bytes4"
        },
        {
          "indexed": false,
          "internalType": "uint256[]",
          "name": "params",
          "type": "uint256[]"
        }
      ],
      "name": "SetChangeableParameter",
      "type": "event"
    },
    {
      "anonymous": false,
      "inputs": [
        {
          "indexed": false,
          "internalType": "uint256",
          "name": "_minGasPrice",
          "type": "uint256"
        }
      ],
      "name": "SetMinimumGasPrice",
      "type": "event"
    },
    {
      "inputs": [],
      "name": "ANNOUNCE_AVAILABILITY_SIGNATURE",
      "outputs": [
        {
          "internalType": "bytes4",
          "name": "",
          "type": "bytes4"
        }
      ],
      "stateMutability": "view",
      "type": "function"
    },
    {
      "inputs": [],
      "name": "REPORT_MISSING_CONNECTIVITY_SELECTOR",
      "outputs": [
        {
          "internalType": "bytes4",
          "name": "",
          "type": "bytes4"
        }
      ],
      "stateMutability": "view",
      "type": "function"
    },
    {
      "inputs": [],
      "name": "REPORT_RECONNECT_SELECTOR",
      "outputs": [
        {
          "internalType": "bytes4",
          "name": "",
          "type": "bytes4"
        }
      ],
      "stateMutability": "view",
      "type": "function"
    },
    {
      "inputs": [],
      "name": "SET_VALIDATOR_IP",
      "outputs": [
        {
          "internalType": "bytes4",
          "name": "",
          "type": "bytes4"
        }
      ],
      "stateMutability": "view",
      "type": "function"
    },
    {
      "inputs": [],
      "name": "WRITE_ACKS_SIGNATURE",
      "outputs": [
        {
          "internalType": "bytes4",
          "name": "",
          "type": "bytes4"
        }
      ],
      "stateMutability": "view",
      "type": "function"
    },
    {
      "inputs": [],
      "name": "WRITE_PART_SIGNATURE",
      "outputs": [
        {
          "internalType": "bytes4",
          "name": "",
          "type": "bytes4"
        }
      ],
      "stateMutability": "view",
      "type": "function"
    },
    {
      "inputs": [
        {
          "internalType": "address",
          "name": "_sender",
          "type": "address"
        }
      ],
      "name": "addAllowedSender",
      "outputs": [],
      "stateMutability": "nonpayable",
      "type": "function"
    },
    {
      "inputs": [],
      "name": "allowedSenders",
      "outputs": [
        {
          "internalType": "address[]",
          "name": "",
          "type": "address[]"
        }
      ],
      "stateMutability": "view",
      "type": "function"
    },
    {
      "inputs": [
        {
          "internalType": "address",
          "name": "_sender",
          "type": "address"
        },
        {
          "internalType": "address",
          "name": "_to",
          "type": "address"
        },
        {
          "internalType": "uint256",
          "name": "",
          "type": "uint256"
        },
        {
          "internalType": "uint256",
          "name": "_gasPrice",
          "type": "uint256"
        },
        {
          "internalType": "bytes",
          "name": "_data",
          "type": "bytes"
        }
      ],
      "name": "allowedTxTypes",
      "outputs": [
        {
          "internalType": "uint32",
          "name": "typesMask",
          "type": "uint32"
        },
        {
          "internalType": "bool",
          "name": "cache",
          "type": "bool"
        }
      ],
      "stateMutability": "view",
      "type": "function"
    },
    {
      "inputs": [],
      "name": "blockGasLimit",
      "outputs": [
        {
          "internalType": "uint256",
          "name": "",
          "type": "uint256"
        }
      ],
      "stateMutability": "view",
      "type": "function"
    },
    {
      "inputs": [],
      "name": "certifierContract",
      "outputs": [
        {
          "internalType": "contract ICertifier",
          "name": "",
          "type": "address"
        }
      ],
      "stateMutability": "view",
      "type": "function"
    },
    {
      "inputs": [],
      "name": "connectivityTracker",
      "outputs": [
        {
          "internalType": "contract IConnectivityTrackerHbbft",
          "name": "",
          "type": "address"
        }
      ],
      "stateMutability": "view",
      "type": "function"
    },
    {
      "inputs": [],
      "name": "contractName",
      "outputs": [
        {
          "internalType": "string",
          "name": "",
          "type": "string"
        }
      ],
      "stateMutability": "pure",
      "type": "function"
    },
    {
      "inputs": [],
      "name": "contractNameHash",
      "outputs": [
        {
          "internalType": "bytes32",
          "name": "",
          "type": "bytes32"
        }
      ],
      "stateMutability": "pure",
      "type": "function"
    },
    {
      "inputs": [],
      "name": "contractVersion",
      "outputs": [
        {
          "internalType": "uint256",
          "name": "",
          "type": "uint256"
        }
      ],
      "stateMutability": "pure",
      "type": "function"
    },
    {
      "inputs": [
        {
          "internalType": "string",
          "name": "_selector",
          "type": "string"
        }
      ],
      "name": "getAllowedParamsRange",
      "outputs": [
        {
          "components": [
            {
              "internalType": "bytes4",
              "name": "getter",
              "type": "bytes4"
            },
            {
              "internalType": "uint256[]",
              "name": "range",
              "type": "uint256[]"
            }
          ],
          "internalType": "struct ValueGuards.ParameterRange",
          "name": "",
          "type": "tuple"
        }
      ],
      "stateMutability": "view",
      "type": "function"
    },
    {
      "inputs": [
        {
          "internalType": "bytes4",
          "name": "_selector",
          "type": "bytes4"
        }
      ],
      "name": "getAllowedParamsRangeWithSelector",
      "outputs": [
        {
          "components": [
            {
              "internalType": "bytes4",
              "name": "getter",
              "type": "bytes4"
            },
            {
              "internalType": "uint256[]",
              "name": "range",
              "type": "uint256[]"
            }
          ],
          "internalType": "struct ValueGuards.ParameterRange",
          "name": "",
          "type": "tuple"
        }
      ],
      "stateMutability": "view",
      "type": "function"
    },
    {
      "inputs": [
        {
          "internalType": "address[]",
          "name": "_allowed",
          "type": "address[]"
        },
        {
          "internalType": "address",
          "name": "_certifier",
          "type": "address"
        },
        {
          "internalType": "address",
          "name": "_validatorSet",
          "type": "address"
        },
        {
          "internalType": "address",
          "name": "_keyGenHistoryContract",
          "type": "address"
        },
        {
          "internalType": "address",
          "name": "_connectivityTracker",
          "type": "address"
        },
        {
          "internalType": "address",
          "name": "_contractOwner",
          "type": "address"
        }
      ],
      "name": "initialize",
      "outputs": [],
      "stateMutability": "nonpayable",
      "type": "function"
    },
    {
      "inputs": [
        {
          "internalType": "address",
          "name": "",
          "type": "address"
        }
      ],
      "name": "isSenderAllowed",
      "outputs": [
        {
          "internalType": "bool",
          "name": "",
          "type": "bool"
        }
      ],
      "stateMutability": "view",
      "type": "function"
    },
    {
      "inputs": [
        {
          "internalType": "bytes4",
          "name": "funcSelector",
          "type": "bytes4"
        },
        {
          "internalType": "uint256",
          "name": "newVal",
          "type": "uint256"
        }
      ],
      "name": "isWithinAllowedRange",
      "outputs": [
        {
          "internalType": "bool",
          "name": "",
          "type": "bool"
        }
      ],
      "stateMutability": "view",
      "type": "function"
    },
    {
      "inputs": [],
      "name": "keyGenHistoryContract",
      "outputs": [
        {
          "internalType": "contract IKeyGenHistory",
          "name": "",
          "type": "address"
        }
      ],
      "stateMutability": "view",
      "type": "function"
    },
    {
      "inputs": [],
      "name": "minimumGasPrice",
      "outputs": [
        {
          "internalType": "uint256",
          "name": "",
          "type": "uint256"
        }
      ],
      "stateMutability": "view",
      "type": "function"
    },
    {
      "inputs": [],
      "name": "owner",
      "outputs": [
        {
          "internalType": "address",
          "name": "",
          "type": "address"
        }
      ],
      "stateMutability": "view",
      "type": "function"
    },
    {
      "inputs": [
        {
          "internalType": "bytes4",
          "name": "funcSelector",
          "type": "bytes4"
        }
      ],
      "name": "removeAllowedChangeableParameter",
      "outputs": [],
      "stateMutability": "nonpayable",
      "type": "function"
    },
    {
      "inputs": [
        {
          "internalType": "address",
          "name": "_sender",
          "type": "address"
        }
      ],
      "name": "removeAllowedSender",
      "outputs": [],
      "stateMutability": "nonpayable",
      "type": "function"
    },
    {
      "inputs": [],
      "name": "renounceOwnership",
      "outputs": [],
      "stateMutability": "nonpayable",
      "type": "function"
    },
    {
      "inputs": [
        {
          "internalType": "bytes4",
          "name": "setter",
          "type": "bytes4"
        },
        {
          "internalType": "bytes4",
          "name": "getter",
          "type": "bytes4"
        },
        {
          "internalType": "uint256[]",
          "name": "params",
          "type": "uint256[]"
        }
      ],
      "name": "setAllowedChangeableParameter",
      "outputs": [],
      "stateMutability": "nonpayable",
      "type": "function"
    },
    {
      "inputs": [
        {
          "internalType": "uint256",
          "name": "_value",
          "type": "uint256"
        }
      ],
      "name": "setBlockGasLimit",
      "outputs": [],
      "stateMutability": "nonpayable",
      "type": "function"
    },
    {
      "inputs": [
        {
          "internalType": "address",
          "name": "_connectivityTracker",
          "type": "address"
        }
      ],
      "name": "setConnectivityTracker",
      "outputs": [],
      "stateMutability": "nonpayable",
      "type": "function"
    },
    {
      "inputs": [
        {
          "internalType": "uint256",
          "name": "_value",
          "type": "uint256"
        }
      ],
      "name": "setMinimumGasPrice",
      "outputs": [],
      "stateMutability": "nonpayable",
      "type": "function"
    },
    {
      "inputs": [
        {
          "internalType": "address",
          "name": "_address",
          "type": "address"
        }
      ],
      "name": "setValidatorSetContract",
      "outputs": [],
      "stateMutability": "nonpayable",
      "type": "function"
    },
    {
      "inputs": [
        {
          "internalType": "uint256",
          "name": "begin",
          "type": "uint256"
        },
        {
          "internalType": "bytes",
          "name": "data",
          "type": "bytes"
        }
      ],
      "name": "testGetSliceUInt256",
      "outputs": [
        {
          "internalType": "uint256",
          "name": "",
          "type": "uint256"
        }
      ],
      "stateMutability": "pure",
      "type": "function"
    },
    {
      "inputs": [
        {
          "internalType": "address",
          "name": "newOwner",
          "type": "address"
        }
      ],
      "name": "transferOwnership",
      "outputs": [],
      "stateMutability": "nonpayable",
      "type": "function"
    },
    {
      "inputs": [],
      "name": "validatorSetContract",
      "outputs": [
        {
          "internalType": "contract IValidatorSetHbbft",
          "name": "",
          "type": "address"
        }
      ],
      "stateMutability": "view",
      "type": "function"
    }
  ],
  "bytecode": "0x6080604052348015600f57600080fd5b506016601a565b60ca565b7ff0c57e16840df040f15088dc2f81fe391c3923bec73e23a9662efc9c229c6a00805468010000000000000000900460ff161560695760405163f92ee8a960e01b815260040160405180910390fd5b80546001600160401b039081161460c75780546001600160401b0319166001600160401b0390811782556040519081527fc7f505b2f371ae2175ee4913f4499e1f2633a7b5936321eed1cdaeb6115181d29060200160405180910390a15b50565b612c7f806100d96000396000f3fe608060405234801561001057600080fd5b50600436106102265760003560e01c80637d8149db1161012a578063bf348f86116100bd578063d3ae79651161008c578063dfc8bf4e11610071578063dfc8bf4e14610528578063efc784011461053b578063f2fde38b1461055e57600080fd5b8063d3ae796514610511578063df3cecf61461051f57600080fd5b8063bf348f86146104c5578063c374bc23146104d8578063c746c8f4146104eb578063d249b31c146104fe57600080fd5b8063b47aef1f116100f9578063b47aef1f14610440578063b710c15d14610453578063b9056afa14610473578063ba08d237146104a257600080fd5b80637d8149db146103e35780638da5cb5b146103f6578063a0a8e46014610426578063a69257f31461042d57600080fd5b80635d685ba4116101bd578063715018a61161018c578063782f017711610171578063782f01771461039c5780637877a797146103aa57806378ff69d5146103b357600080fd5b8063715018a61461035557806375d0c0dc1461035d57600080fd5b80635d685ba4146102f65780635f0664bf1461032657806366955469146103345780637086bcc11461034757600080fd5b80633272b28c116101f95780633272b28c146102b15780634346845f146102c6578063469ab1e3146102db578063471eab5c146102e357600080fd5b80631a9ebeaa1461022b5780631ff517dd1461025b57806324bdf37b1461027c578063305d526c146102a3575b600080fd5b60015461023e906001600160a01b031681565b6040516001600160a01b0390911681526020015b60405180910390f35b61026e610269366004612526565b610571565b604051908152602001610252565b61028a63a42bdee960e01b81565b6040516001600160e01b03199091168152602001610252565b61028a632b11904760e11b81565b6102b9610586565b604051610252919061256d565b6102d96102d4366004612623565b6105e8565b005b61026e6106ee565b6102d96102f1366004612699565b610755565b6102d9610304366004612699565b600480546001600160a01b0319166001600160a01b0392909216919091179055565b61028a6343bcce9f60e01b81565b60075461023e906001600160a01b031681565b61028a6324473b9d60e21b81565b6102d96108df565b604080518082018252601681527f54585f5045524d495353494f4e5f434f4e5452414354000000000000000000006020820152905161025291906126e1565b61028a630b53784960e21b81565b61026e60065481565b6102d96103c1366004612699565b600780546001600160a01b0319166001600160a01b0392909216919091179055565b6102d96103f1366004612714565b6108f3565b7f9016d09d72d40fdae2fd8ceac6b6234c7706214fd39c1cd1e609a0528c199300546001600160a01b031661023e565b600361026e565b6102d961043b36600461272f565b61097d565b60025461023e906001600160a01b031681565b610466610461366004612748565b6109f1565b60405161025291906127d5565b610486610481366004612803565b610aa1565b6040805163ffffffff9093168352901515602083015201610252565b6104b56104b0366004612879565b6114cf565b6040519015158152602001610252565b6104666104d3366004612714565b6116aa565b6102d96104e63660046128a3565b61174f565b6102d96104f9366004612699565b611bde565b6102d961050c36600461272f565b611bf2565b61028a63b2a6842160e01b81565b61026e60055481565b60045461023e906001600160a01b031681565b6104b5610549366004612699565b60036020526000908152604090205460ff1681565b6102d961056c366004612699565b611c66565b600061057d8383611ca1565b90505b92915050565b606060008054806020026020016040519081016040528092919081815260200182805480156105de57602002820191906000526020600020905b81546001600160a01b031681526001909101906020018083116105c0575b5050505050905090565b6105f0611d47565b60006105fa611da2565b90506040518060400160405280857bffffffffffffffffffffffffffffffffffffffffffffffffffffffff1916815260200184848080602002602001604051908101604052809392919081815260200183836020028082843760009201829052509390945250506001600160e01b031988168152602084815260409091208351815463ffffffff191660e09190911c1781558382015180519193506106a6926001850192910190612400565b509050507f3665bf9cd0ba4ddceeec259e21dcf8a4510f3b1130bd42e950828e69d85408ba858585856040516106df9493929190612945565b60405180910390a15050505050565b600061072a60408051808201909152601681527f54585f5045524d495353494f4e5f434f4e545241435400000000000000000000602082015290565b60405160200161073a91906129b2565b60405160208183030381529060405280519060200120905090565b61075d611d47565b6001600160a01b03811660009081526003602052604090205460ff166107a65760405163d64efe6360e01b81526001600160a01b03821660048201526024015b60405180910390fd5b60008054905b8181101561089457600081815481106107c7576107c76129ce565b6000918252602090912001546001600160a01b039081169084160361088c5760006107f36001846129fa565b81548110610803576108036129ce565b600091825260208220015481546001600160a01b0390911691908390811061082d5761082d6129ce565b6000918252602082200180546001600160a01b0319166001600160a01b03939093169290921790915580548061086557610865612a0d565b600082815260209020810160001990810180546001600160a01b0319169055019055610894565b6001016107ac565b506001600160a01b038216600081815260036020526040808220805460ff19169055517f4a92994591b64790e541e61d7d76128fa1d8eb7280652093de3b1f81f08d9af49190a25050565b6108e7611d47565b6108f16000611e04565b565b6108fb611d47565b6000610905611da2565b6001600160e01b031983166000908152602082905260408120805463ffffffff19168155919250610939600183018261244b565b50506040516001600160e01b0319831681527fed27cb02231782dadf13473a7828cb980c4d685791b7a3136dde00f8c3594cb6906020015b60405180910390a15050565b610985611d47565b8061099c6000356001600160e01b031916826114cf565b6109bc576040516373330d9b60e01b81526004810182905260240161079d565b60068290556040518281527fb87cd003e70e0fa56964d3195a666cacae784c6ac61aec48a74dc57afe38d24990602001610971565b604080518082019091526000815260606020820152610a0e611da2565b82516020808501919091206001600160e01b0319908116600090815292825260409283902083518085018552815460e01b9092168252600181018054855181860281018601909652808652929491938581019390830182828015610a9157602002820191906000526020600020905b815481526020019060010190808311610a7d575b5050505050815250509050919050565b6001600160a01b038516600090815260036020526040812054819060ff1615610ad3575063ffffffff905060006114c5565b6000805b6004855110158015610ae95750600481105b15610b4b57610af9816008612a23565b858281518110610b0b57610b0b6129ce565b01602001517fff0000000000000000000000000000000000000000000000000000000000000016901c919091179080610b4381612a3a565b915050610ad7565b506004546001600160a01b0390811690881603610e2f5763bc43316160e01b6001600160e01b0319821601610c045760048054604051630f51726f60e41b81526001600160a01b038b81169382019390935291169063f51726f090602401602060405180830381865afa158015610bc6573d6000803e3d6000fd5b505050506040513d601f19601f82011682018060405250810190610bea9190612a53565b610bf5576000610bf8565b60025b600092509250506114c5565b635bd4211760e01b6001600160e01b0319821601610da157600480546040516307b9342f60e21b81526001600160a01b038b81169382019390935260009290911690631ee4d0bc90602401602060405180830381865afa158015610c6c573d6000803e3d6000fd5b505050506040513d601f19601f82011682018060405250810190610c909190612a75565b90506001600160a01b03811615610d9357600480546040805163239a373960e21b815290516001600160a01b0390921692638e68dce49282820192602092908290030181865afa158015610ce8573d6000803e3d6000fd5b505050506040513d601f19601f82011682018060405250810190610d0c9190612a75565b60405163a711e6a160e01b81526001600160a01b038381166004830152919091169063a711e6a190602401602060405180830381865afa158015610d54573d6000803e3d6000fd5b505050506040513d601f19601f82011682018060405250810190610d789190612a53565b610d83576000610d86565b60025b60009350935050506114c5565b6000809350935050506114c5565b8415610e2f576004805460405163facd743b60e01b81526001600160a01b038b81169382019390935291169063facd743b90602401602060405180830381865afa158015610df3573d6000803e3d6000fd5b505050506040513d601f19601f82011682018060405250810190610e179190612a53565b610e22576002610bf8565b60008092509250506114c5565b6002546001600160a01b03908116908816036112a4576334ac87b760e21b6001600160e01b03198216016110035760016004805460405163014e28d960e41b81526001600160a01b038c8116938201939093529116906314e28d9090602401602060405180830381865afa158015610eab573d6000803e3d6000fd5b505050506040513d601f19601f82011682018060405250810190610ecf9190612aa8565b6005811115610ee057610ee0612a92565b03610e2257602484511015610efc5760008092509250506114c5565b6000610f09600486611ca1565b9050600460009054906101000a90046001600160a01b03166001600160a01b0316638e68dce46040518163ffffffff1660e01b8152600401602060405180830381865afa158015610f5e573d6000803e3d6000fd5b505050506040513d601f19601f82011682018060405250810190610f829190612a75565b6001600160a01b031663794c0c686040518163ffffffff1660e01b8152600401602060405180830381865afa158015610fbf573d6000803e3d6000fd5b505050506040513d601f19601f82011682018060405250810190610fe39190612ac9565b610fee906001612ae2565b8103610d9357600260009350935050506114c5565b6354ee6fb960e11b6001600160e01b03198216016112a45760036004805460405163014e28d960e41b81526001600160a01b038c8116938201939093529116906314e28d9090602401602060405180830381865afa158015611069573d6000803e3d6000fd5b505050506040513d601f19601f8201168201806040525081019061108d9190612aa8565b600581111561109e5761109e612a92565b03610e22576024845110156110ba5760008092509250506114c5565b600480546040805163239a373960e21b815290516001600160a01b0390921692638e68dce49282820192602092908290030181865afa158015611101573d6000803e3d6000fd5b505050506040513d601f19601f820116820180604052508101906111259190612a75565b6001600160a01b031663794c0c686040518163ffffffff1660e01b8152600401602060405180830381865afa158015611162573d6000803e3d6000fd5b505050506040513d601f19601f820116820180604052508101906111869190612ac9565b611191906001612ae2565b61119c600486611ca1565b036111af576002600092509250506114c5565b600480546040805163239a373960e21b815290516001600160a01b0390921692638e68dce49282820192602092908290030181865afa1580156111f6573d6000803e3d6000fd5b505050506040513d601f19601f8201168201806040525081019061121a9190612a75565b6001600160a01b031663794c0c686040518163ffffffff1660e01b8152600401602060405180830381865afa158015611257573d6000803e3d6000fd5b505050506040513d601f19601f8201168201806040525081019061127b9190612ac9565b611286906001612ae2565b611291602486611ca1565b03610e22576002600092509250506114c5565b6007546001600160a01b03908116908816036112ea5760006112c7898387611e75565b90508060200151156112e857806000015181604001519350935050506114c5565b505b6004805460405163facd743b60e01b81526001600160a01b038b81169382019390935291169063facd743b90602401602060405180830381865afa158015611336573d6000803e3d6000fd5b505050506040513d601f19601f8201168201806040525081019061135a9190612a53565b80156113665750600085115b15611392576000886001600160a01b03163111611384576000610bf8565b6001600092509250506114c5565b6004805460405163facd743b60e01b81526001600160a01b038a81169382019390935291169063facd743b90602401602060405180830381865afa1580156113de573d6000803e3d6000fd5b505050506040513d601f19601f820116820180604052508101906114029190612a53565b156114145760008092509250506114c5565b846000036114a6576001546040516303a388eb60e61b81526001600160a01b038a811660048301529091169063e8e23ac090602401602060405180830381865afa158015611466573d6000803e3d6000fd5b505050506040513d601f19601f8201168201806040525081019061148a9190612a53565b611495576000610bf8565b63ffffffff600092509250506114c5565b6005548510156114b75760006114bd565b63ffffffff5b600092509250505b9550959350505050565b6000806114da611da2565b6001600160e01b031980861660009081526020838152604080832081518083018352815460e01b9095168552600181018054835181860281018601909452808452969750939590938584019390919083018282801561155857602002820191906000526020600020905b815481526020019060010190808311611544575b505050505081525050905080602001515160000361157b57600092505050610580565b6020810151815160009061158e90612046565b905060005b825181101561169c57818382815181106115af576115af6129ce565b6020026020010151036116945760008082116115e557836000815181106115d8576115d86129ce565b602002602001015161160a565b836115f16001846129fa565b81518110611601576116016129ce565b60200260200101515b905060006001855161161c91906129fa565b831061164e57846001865161163191906129fa565b81518110611641576116416129ce565b6020026020010151611673565b8461165a846001612ae2565b8151811061166a5761166a6129ce565b60200260200101515b90508189141580156116855750808914155b15975050505050505050610580565b600101611593565b506000979650505050505050565b6040805180820190915260008152606060208201526116c7611da2565b6001600160e01b03198084166000908152602092835260409081902081518083018352815460e01b9093168352600181018054835181870281018701909452808452939491938583019392830182828015610a915760200282019190600052602060002090815481526020019060010190808311610a7d575050505050815250509050919050565b7ff0c57e16840df040f15088dc2f81fe391c3923bec73e23a9662efc9c229c6a00805468010000000000000000810460ff16159067ffffffffffffffff1660008115801561179a5750825b905060008267ffffffffffffffff1660011480156117b75750303b155b9050811580156117c5575080155b156117e35760405163f92ee8a960e01b815260040160405180910390fd5b845467ffffffffffffffff19166001178555831561181757845468ff00000000000000001916680100000000000000001785555b6001600160a01b038616158061183457506001600160a01b038a16155b8061184657506001600160a01b038916155b8061185857506001600160a01b038816155b8061186a57506001600160a01b038716155b156118885760405163d92e233d60e01b815260040160405180910390fd5b6118918661211d565b60005b8b8110156118d3576118cb8d8d838181106118b1576118b16129ce565b90506020020160208101906118c69190612699565b61212e565b600101611894565b50600180546001600160a01b038c81166001600160a01b031992831617909255600480548c8416908316179055600280548b841690831617905560078054928a1692909116919091179055633b9aca006005556305f5e10060065560408051600b808252610180820190925260009160208201610160803683370190505090506305f5e1008160008151811061196b5761196b6129ce565b602002602001018181525050630bebc2008160018151811061198f5761198f6129ce565b6020026020010181815250506317d78400816002815181106119b3576119b36129ce565b6020026020010181815250506323c34600816003815181106119d7576119d76129ce565b602002602001018181525050632faf0800816004815181106119fb576119fb6129ce565b602002602001018181525050633b9aca0081600581518110611a1f57611a1f6129ce565b602002602001018181525050637735940081600681518110611a4357611a436129ce565b60200260200101818152505063ee6b280081600781518110611a6757611a676129ce565b602002602001018181525050640165a0bc0081600881518110611a8c57611a8c6129ce565b6020026020010181815250506401dcd6500081600981518110611ab157611ab16129ce565b6020026020010181815250506402540be40081600a81518110611ad657611ad66129ce565b6020908102919091010152611afa6334926cc760e21b636f9e767b60e11b83612228565b60408051600a8082526101608201909252600091602082016101408036833701905050905060005b8151811015611b6957611b36816001612ae2565b611b44906305f5e100612a23565b828281518110611b5657611b566129ce565b6020908102919091010152600101611b22565b50611b8363a69257f360e01b637877a79760e01b83612228565b50508315611bd057845468ff000000000000000019168555604051600181527fc7f505b2f371ae2175ee4913f4499e1f2633a7b5936321eed1cdaeb6115181d29060200160405180910390a15b505050505050505050505050565b611be6611d47565b611bef8161212e565b50565b611bfa611d47565b80611c116000356001600160e01b031916826114cf565b611c31576040516373330d9b60e01b81526004810182905260240161079d565b60058290556040518281527fb58ce08a43dbde3538e0851b84afb70f6ffe3ecfbc4d8383e9e92d552f9b41bb90602001610971565b611c6e611d47565b6001600160a01b038116611c9857604051631e4fbdf760e01b81526000600482015260240161079d565b611bef81611e04565b8051600090611cb1846020612ae2565b1115611cd0576040516384eb0dd160e01b815260040160405180910390fd5b6000805b6020811015611d3f57611ce881601f6129fa565b611cf3906008612a23565b611cfe906002612bd9565b84611d098388612ae2565b81518110611d1957611d196129ce565b0160200151611d2b919060f81c612a23565b611d359083612ae2565b9150600101611cd4565b509392505050565b33611d797f9016d09d72d40fdae2fd8ceac6b6234c7706214fd39c1cd1e609a0528c199300546001600160a01b031690565b6001600160a01b0316146108f15760405163118cdaa760e01b815233600482015260240161079d565b60008060ff19611dd360017fdace3fd3d1fbdfd33853f19ba191d28c617e373ec58fc73cf7b58db5aff2c2ab6129fa565b604051602001611de591815260200190565b60408051601f1981840301815291905280516020909101201692915050565b7f9016d09d72d40fdae2fd8ceac6b6234c7706214fd39c1cd1e609a0528c19930080546001600160a01b031981166001600160a01b03848116918217845560405192169182907f8be0079c531659141344cd1fd0a4f28419497f9722a3daafe3b4186f6b6457e090600090a3505050565b60408051606081018252600080825260208201819052918101919091526000606060048451611ea491906129fa565b11611ebc5760048351611eb791906129fa565b611ebf565b60605b90506000611ecf848360046122dd565b6040805160608101825260008082526001602083015291810191909152909150631bb8c46360e21b6001600160e01b0319871601611fb157600080600084806020019051810190611f209190612be5565b60075460405163060b284960e01b81526001600160a01b038f8116600483015280861660248301526044820185905260648201849052949750929550909350919091169063060b2849906084015b60006040518083038186803b158015611f8657600080fd5b505afa925050508015611f97575060015b611fa45760008452611fa9565b600284525b50505061203c565b634d597bdf60e01b6001600160e01b031987160161203457600080600084806020019051810190611fe29190612be5565b600754604051632fb625a360e21b81526001600160a01b038f8116600483015280861660248301526044820185905260648201849052949750929550909350919091169063bed8968c90608401611f6e565b600060208201525b9695505050505050565b60408051600481526024810182526020810180517bffffffffffffffffffffffffffffffffffffffffffffffffffffffff166001600160e01b0319851617905290516000919082908190309061209d9085906129b2565b600060405180830381855afa9150503d80600081146120d8576040519150601f19603f3d011682016040523d82523d6000602084013e6120dd565b606091505b50915091508161210057604051635fbab09b60e11b815260040160405180910390fd5b808060200190518101906121149190612ac9565b95945050505050565b6121256123aa565b611bef816123f8565b6001600160a01b0381166121555760405163d92e233d60e01b815260040160405180910390fd5b6001600160a01b03811660009081526003602052604090205460ff161561219a576040516303e49a0960e51b81526001600160a01b038216600482015260240161079d565b60008054600180820183557f290decd9548b62a8d60345a988386fc84ba6bc95484008f6362f93160ef3e56390910180546001600160a01b0319166001600160a01b03851690811790915580835260036020526040808420805460ff1916909317909255905190917f9fd477f436acbbd1bccec434945651e2a867b254b03c1f6af170ac30f1e833f291a250565b6122306123aa565b600061223a611da2565b6040805180820182526001600160e01b0319868116825260208083018781529189166000908152858252939093208251815463ffffffff191660e09190911c1781559051805194955091939092612298926001850192910190612400565b509050507f3665bf9cd0ba4ddceeec259e21dcf8a4510f3b1130bd42e950828e69d85408ba8484846040516122cf93929190612c1c565b60405180910390a150505050565b606060008367ffffffffffffffff8111156122fa576122fa61247a565b6040519080825280601f01601f191660200182016040528015612324576020820181803683370190505b50905060005b848110156123a1578561233d8583612ae2565b8151811061234d5761234d6129ce565b602001015160f81c60f81b82828151811061236a5761236a6129ce565b60200101907effffffffffffffffffffffffffffffffffffffffffffffffffffffffffffff1916908160001a90535060010161232a565b50949350505050565b7ff0c57e16840df040f15088dc2f81fe391c3923bec73e23a9662efc9c229c6a005468010000000000000000900460ff166108f157604051631afcd79f60e31b815260040160405180910390fd5b611c6e6123aa565b82805482825590600052602060002090810192821561243b579160200282015b8281111561243b578251825591602001919060010190612420565b50612447929150612465565b5090565b5080546000825590600052602060002090810190611bef91905b5b808211156124475760008155600101612466565b634e487b7160e01b600052604160045260246000fd5b600067ffffffffffffffff808411156124ab576124ab61247a565b604051601f8501601f19908116603f011681019082821181831017156124d3576124d361247a565b816040528093508581528686860111156124ec57600080fd5b858560208301376000602087830101525050509392505050565b600082601f83011261251757600080fd5b61057d83833560208501612490565b6000806040838503121561253957600080fd5b82359150602083013567ffffffffffffffff81111561255757600080fd5b61256385828601612506565b9150509250929050565b6020808252825182820181905260009190848201906040850190845b818110156125ae5783516001600160a01b031683529284019291840191600101612589565b50909695505050505050565b80356001600160e01b0319811681146125d257600080fd5b919050565b60008083601f8401126125e957600080fd5b50813567ffffffffffffffff81111561260157600080fd5b6020830191508360208260051b850101111561261c57600080fd5b9250929050565b6000806000806060858703121561263957600080fd5b612642856125ba565b9350612650602086016125ba565b9250604085013567ffffffffffffffff81111561266c57600080fd5b612678878288016125d7565b95989497509550505050565b6001600160a01b0381168114611bef57600080fd5b6000602082840312156126ab57600080fd5b81356126b681612684565b9392505050565b60005b838110156126d85781810151838201526020016126c0565b50506000910152565b60208152600082518060208401526127008160408501602087016126bd565b601f01601f19169190910160400192915050565b60006020828403121561272657600080fd5b61057d826125ba565b60006020828403121561274157600080fd5b5035919050565b60006020828403121561275a57600080fd5b813567ffffffffffffffff81111561277157600080fd5b8201601f8101841361278257600080fd5b61279184823560208401612490565b949350505050565b60008151808452602080850194506020840160005b838110156127ca578151875295820195908201906001016127ae565b509495945050505050565b602080825282516001600160e01b031916828201528201516040808301526000906127916060840182612799565b600080600080600060a0868803121561281b57600080fd5b853561282681612684565b9450602086013561283681612684565b93506040860135925060608601359150608086013567ffffffffffffffff81111561286057600080fd5b61286c88828901612506565b9150509295509295909350565b6000806040838503121561288c57600080fd5b612895836125ba565b946020939093013593505050565b600080600080600080600060c0888a0312156128be57600080fd5b873567ffffffffffffffff8111156128d557600080fd5b6128e18a828b016125d7565b90985096505060208801356128f581612684565b9450604088013561290581612684565b9350606088013561291581612684565b9250608088013561292581612684565b915060a088013561293581612684565b8091505092959891949750929550565b6001600160e01b0319858116825284166020820152606060408201819052810182905260007f07ffffffffffffffffffffffffffffffffffffffffffffffffffffffffffffff83111561299757600080fd5b8260051b808560808501379190910160800195945050505050565b600082516129c48184602087016126bd565b9190910192915050565b634e487b7160e01b600052603260045260246000fd5b634e487b7160e01b600052601160045260246000fd5b81810381811115610580576105806129e4565b634e487b7160e01b600052603160045260246000fd5b8082028115828204841417610580576105806129e4565b600060018201612a4c57612a4c6129e4565b5060010190565b600060208284031215612a6557600080fd5b815180151581146126b657600080fd5b600060208284031215612a8757600080fd5b81516126b681612684565b634e487b7160e01b600052602160045260246000fd5b600060208284031215612aba57600080fd5b8151600681106126b657600080fd5b600060208284031215612adb57600080fd5b5051919050565b80820180821115610580576105806129e4565b600181815b80851115612b30578160001904821115612b1657612b166129e4565b80851615612b2357918102915b93841c9390800290612afa565b509250929050565b600082612b4757506001610580565b81612b5457506000610580565b8160018114612b6a5760028114612b7457612b90565b6001915050610580565b60ff841115612b8557612b856129e4565b50506001821b610580565b5060208310610133831016604e8410600b8410161715612bb3575081810a610580565b612bbd8383612af5565b8060001904821115612bd157612bd16129e4565b029392505050565b600061057d8383612b38565b600080600060608486031215612bfa57600080fd5b8351612c0581612684565b602085015160409095015190969495509392505050565b6001600160e01b03198481168252831660208201526060604082018190526000906121149083018461279956fea26469706673582212202b279d76fe6d4a68fe49dc66e0bec41ec5d8aa47582cfd6f73ec33debccd30db64736f6c63430008190033",
  "linkReferences": {},
  "deployedLinkReferences": {}
}