{
  "_format": "hh-sol-artifact-1",
  "contractName": "TxPermissionHbbftMock",
  "sourceName": "contracts/mockContracts/TxPermissionHbbftMock.sol",
  "abi": [
    {
      "inputs": [
        {
          "internalType": "address",
          "name": "_value",
          "type": "address"
        }
      ],
      "name": "AlreadyExist",
      "type": "error"
    },
    {
      "inputs": [],
      "name": "GetterCallFailed",
      "type": "error"
    },
    {
      "inputs": [],
      "name": "InvalidBlockGasLimit",
      "type": "error"
    },
    {
      "inputs": [],
      "name": "InvalidInitialization",
      "type": "error"
    },
    {
      "inputs": [],
      "name": "InvalidMinGasPrice",
      "type": "error"
    },
    {
      "inputs": [
        {
          "internalType": "uint256",
          "name": "_newVal",
          "type": "uint256"
        }
      ],
      "name": "NewValueOutOfRange",
      "type": "error"
    },
    {
      "inputs": [
        {
          "internalType": "address",
          "name": "_value",
          "type": "address"
        }
      ],
      "name": "NotExist",
      "type": "error"
    },
    {
      "inputs": [],
      "name": "NotInitializing",
      "type": "error"
    },
    {
      "inputs": [
        {
          "internalType": "address",
          "name": "owner",
          "type": "address"
        }
      ],
      "name": "OwnableInvalidOwner",
      "type": "error"
    },
    {
      "inputs": [
        {
          "internalType": "address",
          "name": "account",
          "type": "address"
        }
      ],
      "name": "OwnableUnauthorizedAccount",
      "type": "error"
    },
    {
      "inputs": [],
      "name": "SenderNotAllowed",
      "type": "error"
    },
    {
      "inputs": [],
      "name": "ZeroAddress",
      "type": "error"
    },
    {
      "anonymous": false,
      "inputs": [
        {
          "indexed": true,
          "internalType": "address",
          "name": "_sender",
          "type": "address"
        }
      ],
      "name": "AddAllowedSender",
      "type": "event"
    },
    {
      "anonymous": false,
      "inputs": [
        {
          "indexed": false,
          "internalType": "uint64",
          "name": "version",
          "type": "uint64"
        }
      ],
      "name": "Initialized",
      "type": "event"
    },
    {
      "anonymous": false,
      "inputs": [
        {
          "indexed": true,
          "internalType": "address",
          "name": "previousOwner",
          "type": "address"
        },
        {
          "indexed": true,
          "internalType": "address",
          "name": "newOwner",
          "type": "address"
        }
      ],
      "name": "OwnershipTransferred",
      "type": "event"
    },
    {
      "anonymous": false,
      "inputs": [
        {
          "indexed": true,
          "internalType": "address",
          "name": "_sender",
          "type": "address"
        }
      ],
      "name": "RemoveAllowedSender",
      "type": "event"
    },
    {
      "anonymous": false,
      "inputs": [
        {
          "indexed": false,
          "internalType": "bytes4",
          "name": "funcSelector",
          "type": "bytes4"
        }
      ],
      "name": "RemoveChangeableParameter",
      "type": "event"
    },
    {
      "anonymous": false,
      "inputs": [
        {
          "indexed": false,
          "internalType": "uint256",
          "name": "_blockGasLimit",
          "type": "uint256"
        }
      ],
      "name": "SetBlockGasLimit",
      "type": "event"
    },
    {
      "anonymous": false,
      "inputs": [
        {
          "indexed": false,
          "internalType": "bytes4",
          "name": "setter",
          "type": "bytes4"
        },
        {
          "indexed": false,
          "internalType": "bytes4",
          "name": "getter",
          "type": "bytes4"
        },
        {
          "indexed": false,
          "internalType": "uint256[]",
          "name": "params",
          "type": "uint256[]"
        }
      ],
      "name": "SetChangeableParameter",
      "type": "event"
    },
    {
      "anonymous": false,
      "inputs": [
        {
          "indexed": false,
          "internalType": "uint256",
          "name": "_minGasPrice",
          "type": "uint256"
        }
      ],
      "name": "SetMinimumGasPrice",
      "type": "event"
    },
    {
      "inputs": [],
      "name": "ANNOUNCE_AVAILABILITY_SIGNATURE",
      "outputs": [
        {
          "internalType": "bytes4",
          "name": "",
          "type": "bytes4"
        }
      ],
      "stateMutability": "view",
      "type": "function"
    },
    {
      "inputs": [],
      "name": "REPORT_MISSING_CONNECTIVITY_SELECTOR",
      "outputs": [
        {
          "internalType": "bytes4",
          "name": "",
          "type": "bytes4"
        }
      ],
      "stateMutability": "view",
      "type": "function"
    },
    {
      "inputs": [],
      "name": "REPORT_RECONNECT_SELECTOR",
      "outputs": [
        {
          "internalType": "bytes4",
          "name": "",
          "type": "bytes4"
        }
      ],
      "stateMutability": "view",
      "type": "function"
    },
    {
      "inputs": [],
      "name": "SET_VALIDATOR_IP",
      "outputs": [
        {
          "internalType": "bytes4",
          "name": "",
          "type": "bytes4"
        }
      ],
      "stateMutability": "view",
      "type": "function"
    },
    {
      "inputs": [],
      "name": "WRITE_ACKS_SIGNATURE",
      "outputs": [
        {
          "internalType": "bytes4",
          "name": "",
          "type": "bytes4"
        }
      ],
      "stateMutability": "view",
      "type": "function"
    },
    {
      "inputs": [],
      "name": "WRITE_PART_SIGNATURE",
      "outputs": [
        {
          "internalType": "bytes4",
          "name": "",
          "type": "bytes4"
        }
      ],
      "stateMutability": "view",
      "type": "function"
    },
    {
      "inputs": [
        {
          "internalType": "address",
          "name": "_sender",
          "type": "address"
        }
      ],
      "name": "addAllowedSender",
      "outputs": [],
      "stateMutability": "nonpayable",
      "type": "function"
    },
    {
      "inputs": [],
      "name": "allowedSenders",
      "outputs": [
        {
          "internalType": "address[]",
          "name": "",
          "type": "address[]"
        }
      ],
      "stateMutability": "view",
      "type": "function"
    },
    {
      "inputs": [
        {
          "internalType": "address",
          "name": "_sender",
          "type": "address"
        },
        {
          "internalType": "address",
          "name": "_to",
          "type": "address"
        },
        {
          "internalType": "uint256",
          "name": "",
          "type": "uint256"
        },
        {
          "internalType": "uint256",
          "name": "_gasPrice",
          "type": "uint256"
        },
        {
          "internalType": "bytes",
          "name": "_data",
          "type": "bytes"
        }
      ],
      "name": "allowedTxTypes",
      "outputs": [
        {
          "internalType": "uint32",
          "name": "typesMask",
          "type": "uint32"
        },
        {
          "internalType": "bool",
          "name": "cache",
          "type": "bool"
        }
      ],
      "stateMutability": "view",
      "type": "function"
    },
    {
      "inputs": [],
      "name": "blockGasLimit",
      "outputs": [
        {
          "internalType": "uint256",
          "name": "",
          "type": "uint256"
        }
      ],
      "stateMutability": "view",
      "type": "function"
    },
    {
      "inputs": [],
      "name": "certifierContract",
      "outputs": [
        {
          "internalType": "contract ICertifier",
          "name": "",
          "type": "address"
        }
      ],
      "stateMutability": "view",
      "type": "function"
    },
    {
      "inputs": [],
      "name": "connectivityTracker",
      "outputs": [
        {
          "internalType": "contract IConnectivityTrackerHbbft",
          "name": "",
          "type": "address"
        }
      ],
      "stateMutability": "view",
      "type": "function"
    },
    {
      "inputs": [],
      "name": "contractName",
      "outputs": [
        {
          "internalType": "string",
          "name": "",
          "type": "string"
        }
      ],
      "stateMutability": "pure",
      "type": "function"
    },
    {
      "inputs": [],
      "name": "contractNameHash",
      "outputs": [
        {
          "internalType": "bytes32",
          "name": "",
          "type": "bytes32"
        }
      ],
      "stateMutability": "pure",
      "type": "function"
    },
    {
      "inputs": [],
      "name": "contractVersion",
      "outputs": [
        {
          "internalType": "uint256",
          "name": "",
          "type": "uint256"
        }
      ],
      "stateMutability": "pure",
      "type": "function"
    },
    {
      "inputs": [
        {
          "internalType": "string",
          "name": "_selector",
          "type": "string"
        }
      ],
      "name": "getAllowedParamsRange",
      "outputs": [
        {
          "components": [
            {
              "internalType": "bytes4",
              "name": "getter",
              "type": "bytes4"
            },
            {
              "internalType": "uint256[]",
              "name": "range",
              "type": "uint256[]"
            }
          ],
          "internalType": "struct ValueGuards.ParameterRange",
          "name": "",
          "type": "tuple"
        }
      ],
      "stateMutability": "view",
      "type": "function"
    },
    {
      "inputs": [
        {
          "internalType": "bytes4",
          "name": "_selector",
          "type": "bytes4"
        }
      ],
      "name": "getAllowedParamsRangeWithSelector",
      "outputs": [
        {
          "components": [
            {
              "internalType": "bytes4",
              "name": "getter",
              "type": "bytes4"
            },
            {
              "internalType": "uint256[]",
              "name": "range",
              "type": "uint256[]"
            }
          ],
          "internalType": "struct ValueGuards.ParameterRange",
          "name": "",
          "type": "tuple"
        }
      ],
      "stateMutability": "view",
      "type": "function"
    },
    {
      "inputs": [
        {
          "internalType": "address[]",
          "name": "_allowed",
          "type": "address[]"
        },
        {
          "internalType": "address",
          "name": "_certifier",
          "type": "address"
        },
        {
          "internalType": "address",
          "name": "_validatorSet",
          "type": "address"
        },
        {
          "internalType": "address",
          "name": "_keyGenHistoryContract",
          "type": "address"
        },
        {
          "internalType": "address",
          "name": "_connectivityTracker",
          "type": "address"
        },
        {
          "internalType": "address",
          "name": "_contractOwner",
          "type": "address"
        }
      ],
      "name": "initialize",
      "outputs": [],
      "stateMutability": "nonpayable",
      "type": "function"
    },
    {
      "inputs": [
        {
          "internalType": "address",
          "name": "",
          "type": "address"
        }
      ],
      "name": "isSenderAllowed",
      "outputs": [
        {
          "internalType": "bool",
          "name": "",
          "type": "bool"
        }
      ],
      "stateMutability": "view",
      "type": "function"
    },
    {
      "inputs": [
        {
          "internalType": "bytes4",
          "name": "funcSelector",
          "type": "bytes4"
        },
        {
          "internalType": "uint256",
          "name": "newVal",
          "type": "uint256"
        }
      ],
      "name": "isWithinAllowedRange",
      "outputs": [
        {
          "internalType": "bool",
          "name": "",
          "type": "bool"
        }
      ],
      "stateMutability": "view",
      "type": "function"
    },
    {
      "inputs": [],
      "name": "keyGenHistoryContract",
      "outputs": [
        {
          "internalType": "contract IKeyGenHistory",
          "name": "",
          "type": "address"
        }
      ],
      "stateMutability": "view",
      "type": "function"
    },
    {
      "inputs": [],
      "name": "minimumGasPrice",
      "outputs": [
        {
          "internalType": "uint256",
          "name": "",
          "type": "uint256"
        }
      ],
      "stateMutability": "view",
      "type": "function"
    },
    {
      "inputs": [],
      "name": "owner",
      "outputs": [
        {
          "internalType": "address",
          "name": "",
          "type": "address"
        }
      ],
      "stateMutability": "view",
      "type": "function"
    },
    {
      "inputs": [
        {
          "internalType": "bytes4",
          "name": "funcSelector",
          "type": "bytes4"
        }
      ],
      "name": "removeAllowedChangeableParameter",
      "outputs": [],
      "stateMutability": "nonpayable",
      "type": "function"
    },
    {
      "inputs": [
        {
          "internalType": "address",
          "name": "_sender",
          "type": "address"
        }
      ],
      "name": "removeAllowedSender",
      "outputs": [],
      "stateMutability": "nonpayable",
      "type": "function"
    },
    {
      "inputs": [],
      "name": "renounceOwnership",
      "outputs": [],
      "stateMutability": "nonpayable",
      "type": "function"
    },
    {
      "inputs": [
        {
          "internalType": "bytes4",
          "name": "setter",
          "type": "bytes4"
        },
        {
          "internalType": "bytes4",
          "name": "getter",
          "type": "bytes4"
        },
        {
          "internalType": "uint256[]",
          "name": "params",
          "type": "uint256[]"
        }
      ],
      "name": "setAllowedChangeableParameter",
      "outputs": [],
      "stateMutability": "nonpayable",
      "type": "function"
    },
    {
      "inputs": [
        {
          "internalType": "uint256",
          "name": "_value",
          "type": "uint256"
        }
      ],
      "name": "setBlockGasLimit",
      "outputs": [],
      "stateMutability": "nonpayable",
      "type": "function"
    },
    {
      "inputs": [
        {
          "internalType": "address",
          "name": "_connectivityTracker",
          "type": "address"
        }
      ],
      "name": "setConnectivityTracker",
      "outputs": [],
      "stateMutability": "nonpayable",
      "type": "function"
    },
    {
      "inputs": [
        {
          "internalType": "uint256",
          "name": "_value",
          "type": "uint256"
        }
      ],
      "name": "setMinimumGasPrice",
      "outputs": [],
      "stateMutability": "nonpayable",
      "type": "function"
    },
    {
      "inputs": [
        {
          "internalType": "address",
          "name": "_address",
          "type": "address"
        }
      ],
      "name": "setValidatorSetContract",
      "outputs": [],
      "stateMutability": "nonpayable",
      "type": "function"
    },
    {
      "inputs": [
        {
          "internalType": "address",
          "name": "newOwner",
          "type": "address"
        }
      ],
      "name": "transferOwnership",
      "outputs": [],
      "stateMutability": "nonpayable",
      "type": "function"
    },
    {
      "inputs": [],
      "name": "validatorSetContract",
      "outputs": [
        {
          "internalType": "contract IValidatorSetHbbft",
          "name": "",
          "type": "address"
        }
      ],
      "stateMutability": "view",
      "type": "function"
    }
  ],
  "bytecode": "0x6080604052348015600f57600080fd5b506016601a565b60ca565b7ff0c57e16840df040f15088dc2f81fe391c3923bec73e23a9662efc9c229c6a00805468010000000000000000900460ff161560695760405163f92ee8a960e01b815260040160405180910390fd5b80546001600160401b039081161460c75780546001600160401b0319166001600160401b0390811782556040519081527fc7f505b2f371ae2175ee4913f4499e1f2633a7b5936321eed1cdaeb6115181d29060200160405180910390a15b50565b612bbd806100d96000396000f3fe608060405234801561001057600080fd5b506004361061020b5760003560e01c80637d8149db1161012a578063bf348f86116100bd578063d3ae79651161008c578063dfc8bf4e11610071578063dfc8bf4e146104fa578063efc784011461050d578063f2fde38b1461053057600080fd5b8063d3ae7965146104e3578063df3cecf6146104f157600080fd5b8063bf348f8614610497578063c374bc23146104aa578063c746c8f4146104bd578063d249b31c146104d057600080fd5b8063b47aef1f116100f9578063b47aef1f14610412578063b710c15d14610425578063b9056afa14610445578063ba08d2371461047457600080fd5b80637d8149db146103b55780638da5cb5b146103c8578063a0a8e460146103f8578063a69257f3146103ff57600080fd5b80635f0664bf116101a257806375d0c0dc1161017157806375d0c0dc1461032f578063782f01771461036e5780637877a7971461037c57806378ff69d51461038557600080fd5b80635f0664bf146102f857806366955469146103065780637086bcc114610319578063715018a61461032757600080fd5b80634346845f116101de5780634346845f1461028a578063469ab1e31461029f578063471eab5c146102b55780635d685ba4146102c857600080fd5b80631a9ebeaa1461021057806324bdf37b14610240578063305d526c146102675780633272b28c14610275575b600080fd5b600154610223906001600160a01b031681565b6040516001600160a01b0390911681526020015b60405180910390f35b61024e63a42bdee960e01b81565b6040516001600160e01b03199091168152602001610237565b61024e632b11904760e11b81565b61027d610543565b604051610237919061240b565b61029d6102983660046124c1565b6105a5565b005b6102a76106ab565b604051908152602001610237565b61029d6102c3366004612537565b610712565b61029d6102d6366004612537565b600480546001600160a01b0319166001600160a01b0392909216919091179055565b61024e6343bcce9f60e01b81565b600754610223906001600160a01b031681565b61024e6324473b9d60e21b81565b61029d61089c565b604080518082018252601681527f54585f5045524d495353494f4e5f434f4e54524143540000000000000000000060208201529051610237919061257f565b61024e630b53784960e21b81565b6102a760065481565b61029d610393366004612537565b600780546001600160a01b0319166001600160a01b0392909216919091179055565b61029d6103c33660046125b2565b6108b0565b7f9016d09d72d40fdae2fd8ceac6b6234c7706214fd39c1cd1e609a0528c199300546001600160a01b0316610223565b60036102a7565b61029d61040d3660046125cd565b61093a565b600254610223906001600160a01b031681565b610438610433366004612672565b6109ae565b60405161023791906126ff565b61045861045336600461272d565b610a5e565b6040805163ffffffff9093168352901515602083015201610237565b6104876104823660046127b7565b61148c565b6040519015158152602001610237565b6104386104a53660046125b2565b611669565b61029d6104b83660046127e1565b61170e565b61029d6104cb366004612537565b611b9d565b61029d6104de3660046125cd565b611bb1565b61024e63b2a6842160e01b81565b6102a760055481565b600454610223906001600160a01b031681565b61048761051b366004612537565b60036020526000908152604090205460ff1681565b61029d61053e366004612537565b611c25565b6060600080548060200260200160405190810160405280929190818152602001828054801561059b57602002820191906000526020600020905b81546001600160a01b0316815260019091019060200180831161057d575b5050505050905090565b6105ad611c60565b60006105b7611cbb565b90506040518060400160405280857bffffffffffffffffffffffffffffffffffffffffffffffffffffffff1916815260200184848080602002602001604051908101604052809392919081815260200183836020028082843760009201829052509390945250506001600160e01b031988168152602084815260409091208351815463ffffffff191660e09190911c178155838201518051919350610663926001850192910190612391565b509050507f3665bf9cd0ba4ddceeec259e21dcf8a4510f3b1130bd42e950828e69d85408ba8585858560405161069c9493929190612883565b60405180910390a15050505050565b60006106e760408051808201909152601681527f54585f5045524d495353494f4e5f434f4e545241435400000000000000000000602082015290565b6040516020016106f791906128f0565b60405160208183030381529060405280519060200120905090565b61071a611c60565b6001600160a01b03811660009081526003602052604090205460ff166107635760405163d64efe6360e01b81526001600160a01b03821660048201526024015b60405180910390fd5b60008054905b8181101561085157600081815481106107845761078461290c565b6000918252602090912001546001600160a01b03908116908416036108495760006107b0600184612938565b815481106107c0576107c061290c565b600091825260208220015481546001600160a01b039091169190839081106107ea576107ea61290c565b6000918252602082200180546001600160a01b0319166001600160a01b0393909316929092179091558054806108225761082261294b565b600082815260209020810160001990810180546001600160a01b0319169055019055610851565b600101610769565b506001600160a01b038216600081815260036020526040808220805460ff19169055517f4a92994591b64790e541e61d7d76128fa1d8eb7280652093de3b1f81f08d9af49190a25050565b6108a4611c60565b6108ae6000611d1d565b565b6108b8611c60565b60006108c2611cbb565b6001600160e01b031983166000908152602082905260408120805463ffffffff191681559192506108f660018301826123dc565b50506040516001600160e01b0319831681527fed27cb02231782dadf13473a7828cb980c4d685791b7a3136dde00f8c3594cb6906020015b60405180910390a15050565b610942611c60565b806109596000356001600160e01b0319168261148c565b610979576040516373330d9b60e01b81526004810182905260240161075a565b60068290556040518281527fb87cd003e70e0fa56964d3195a666cacae784c6ac61aec48a74dc57afe38d2499060200161092e565b6040805180820190915260008152606060208201526109cb611cbb565b82516020808501919091206001600160e01b0319908116600090815292825260409283902083518085018552815460e01b9092168252600181018054855181860281018601909652808652929491938581019390830182828015610a4e57602002820191906000526020600020905b815481526020019060010190808311610a3a575b5050505050815250509050919050565b6001600160a01b038516600090815260036020526040812054819060ff1615610a90575063ffffffff90506000611482565b6000805b6004855110158015610aa65750600481105b15610b0857610ab6816008612961565b858281518110610ac857610ac861290c565b01602001517fff0000000000000000000000000000000000000000000000000000000000000016901c919091179080610b0081612978565b915050610a94565b506004546001600160a01b0390811690881603610dec5763bc43316160e01b6001600160e01b0319821601610bc15760048054604051630f51726f60e41b81526001600160a01b038b81169382019390935291169063f51726f090602401602060405180830381865afa158015610b83573d6000803e3d6000fd5b505050506040513d601f19601f82011682018060405250810190610ba79190612991565b610bb2576000610bb5565b60025b60009250925050611482565b635bd4211760e01b6001600160e01b0319821601610d5e57600480546040516307b9342f60e21b81526001600160a01b038b81169382019390935260009290911690631ee4d0bc90602401602060405180830381865afa158015610c29573d6000803e3d6000fd5b505050506040513d601f19601f82011682018060405250810190610c4d91906129b3565b90506001600160a01b03811615610d5057600480546040805163239a373960e21b815290516001600160a01b0390921692638e68dce49282820192602092908290030181865afa158015610ca5573d6000803e3d6000fd5b505050506040513d601f19601f82011682018060405250810190610cc991906129b3565b60405163a711e6a160e01b81526001600160a01b038381166004830152919091169063a711e6a190602401602060405180830381865afa158015610d11573d6000803e3d6000fd5b505050506040513d601f19601f82011682018060405250810190610d359190612991565b610d40576000610d43565b60025b6000935093505050611482565b600080935093505050611482565b8415610dec576004805460405163facd743b60e01b81526001600160a01b038b81169382019390935291169063facd743b90602401602060405180830381865afa158015610db0573d6000803e3d6000fd5b505050506040513d601f19601f82011682018060405250810190610dd49190612991565b610ddf576002610bb5565b6000809250925050611482565b6002546001600160a01b0390811690881603611261576334ac87b760e21b6001600160e01b0319821601610fc05760016004805460405163014e28d960e41b81526001600160a01b038c8116938201939093529116906314e28d9090602401602060405180830381865afa158015610e68573d6000803e3d6000fd5b505050506040513d601f19601f82011682018060405250810190610e8c91906129e6565b6005811115610e9d57610e9d6129d0565b03610ddf57602484511015610eb9576000809250925050611482565b6000610ec6600486611d8e565b9050600460009054906101000a90046001600160a01b03166001600160a01b0316638e68dce46040518163ffffffff1660e01b8152600401602060405180830381865afa158015610f1b573d6000803e3d6000fd5b505050506040513d601f19601f82011682018060405250810190610f3f91906129b3565b6001600160a01b031663794c0c686040518163ffffffff1660e01b8152600401602060405180830381865afa158015610f7c573d6000803e3d6000fd5b505050506040513d601f19601f82011682018060405250810190610fa09190612a07565b610fab906001612a20565b8103610d505760026000935093505050611482565b6354ee6fb960e11b6001600160e01b03198216016112615760036004805460405163014e28d960e41b81526001600160a01b038c8116938201939093529116906314e28d9090602401602060405180830381865afa158015611026573d6000803e3d6000fd5b505050506040513d601f19601f8201168201806040525081019061104a91906129e6565b600581111561105b5761105b6129d0565b03610ddf57602484511015611077576000809250925050611482565b600480546040805163239a373960e21b815290516001600160a01b0390921692638e68dce49282820192602092908290030181865afa1580156110be573d6000803e3d6000fd5b505050506040513d601f19601f820116820180604052508101906110e291906129b3565b6001600160a01b031663794c0c686040518163ffffffff1660e01b8152600401602060405180830381865afa15801561111f573d6000803e3d6000fd5b505050506040513d601f19601f820116820180604052508101906111439190612a07565b61114e906001612a20565b611159600486611d8e565b0361116c57600260009250925050611482565b600480546040805163239a373960e21b815290516001600160a01b0390921692638e68dce49282820192602092908290030181865afa1580156111b3573d6000803e3d6000fd5b505050506040513d601f19601f820116820180604052508101906111d791906129b3565b6001600160a01b031663794c0c686040518163ffffffff1660e01b8152600401602060405180830381865afa158015611214573d6000803e3d6000fd5b505050506040513d601f19601f820116820180604052508101906112389190612a07565b611243906001612a20565b61124e602486611d8e565b03610ddf57600260009250925050611482565b6007546001600160a01b03908116908816036112a7576000611284898387611e06565b90508060200151156112a55780600001518160400151935093505050611482565b505b6004805460405163facd743b60e01b81526001600160a01b038b81169382019390935291169063facd743b90602401602060405180830381865afa1580156112f3573d6000803e3d6000fd5b505050506040513d601f19601f820116820180604052508101906113179190612991565b80156113235750600085115b1561134f576000886001600160a01b03163111611341576000610bb5565b600160009250925050611482565b6004805460405163facd743b60e01b81526001600160a01b038a81169382019390935291169063facd743b90602401602060405180830381865afa15801561139b573d6000803e3d6000fd5b505050506040513d601f19601f820116820180604052508101906113bf9190612991565b156113d1576000809250925050611482565b84600003611463576001546040516303a388eb60e61b81526001600160a01b038a811660048301529091169063e8e23ac090602401602060405180830381865afa158015611423573d6000803e3d6000fd5b505050506040513d601f19601f820116820180604052508101906114479190612991565b611452576000610bb5565b63ffffffff60009250925050611482565b60055485101561147457600061147a565b63ffffffff5b600092509250505b9550959350505050565b600080611497611cbb565b6001600160e01b031980861660009081526020838152604080832081518083018352815460e01b9095168552600181018054835181860281018601909452808452969750939590938584019390919083018282801561151557602002820191906000526020600020905b815481526020019060010190808311611501575b505050505081525050905080602001515160000361153857600092505050611663565b6020810151815160009061154b90611fd7565b905060005b8251811015611659578183828151811061156c5761156c61290c565b6020026020010151036116515760008082116115a257836000815181106115955761159561290c565b60200260200101516115c7565b836115ae600184612938565b815181106115be576115be61290c565b60200260200101515b90506000600185516115d99190612938565b831061160b5784600186516115ee9190612938565b815181106115fe576115fe61290c565b6020026020010151611630565b84611617846001612a20565b815181106116275761162761290c565b60200260200101515b90508189141580156116425750808914155b15975050505050505050611663565b600101611550565b5060009450505050505b92915050565b604080518082019091526000815260606020820152611686611cbb565b6001600160e01b03198084166000908152602092835260409081902081518083018352815460e01b9093168352600181018054835181870281018701909452808452939491938583019392830182828015610a4e5760200282019190600052602060002090815481526020019060010190808311610a3a575050505050815250509050919050565b7ff0c57e16840df040f15088dc2f81fe391c3923bec73e23a9662efc9c229c6a00805468010000000000000000810460ff16159067ffffffffffffffff166000811580156117595750825b905060008267ffffffffffffffff1660011480156117765750303b155b905081158015611784575080155b156117a25760405163f92ee8a960e01b815260040160405180910390fd5b845467ffffffffffffffff1916600117855583156117d657845468ff00000000000000001916680100000000000000001785555b6001600160a01b03861615806117f357506001600160a01b038a16155b8061180557506001600160a01b038916155b8061181757506001600160a01b038816155b8061182957506001600160a01b038716155b156118475760405163d92e233d60e01b815260040160405180910390fd5b611850866120ae565b60005b8b8110156118925761188a8d8d838181106118705761187061290c565b90506020020160208101906118859190612537565b6120bf565b600101611853565b50600180546001600160a01b038c81166001600160a01b031992831617909255600480548c8416908316179055600280548b841690831617905560078054928a1692909116919091179055633b9aca006005556305f5e10060065560408051600b808252610180820190925260009160208201610160803683370190505090506305f5e1008160008151811061192a5761192a61290c565b602002602001018181525050630bebc2008160018151811061194e5761194e61290c565b6020026020010181815250506317d78400816002815181106119725761197261290c565b6020026020010181815250506323c34600816003815181106119965761199661290c565b602002602001018181525050632faf0800816004815181106119ba576119ba61290c565b602002602001018181525050633b9aca00816005815181106119de576119de61290c565b602002602001018181525050637735940081600681518110611a0257611a0261290c565b60200260200101818152505063ee6b280081600781518110611a2657611a2661290c565b602002602001018181525050640165a0bc0081600881518110611a4b57611a4b61290c565b6020026020010181815250506401dcd6500081600981518110611a7057611a7061290c565b6020026020010181815250506402540be40081600a81518110611a9557611a9561290c565b6020908102919091010152611ab96334926cc760e21b636f9e767b60e11b836121b9565b60408051600a8082526101608201909252600091602082016101408036833701905050905060005b8151811015611b2857611af5816001612a20565b611b03906305f5e100612961565b828281518110611b1557611b1561290c565b6020908102919091010152600101611ae1565b50611b4263a69257f360e01b637877a79760e01b836121b9565b50508315611b8f57845468ff000000000000000019168555604051600181527fc7f505b2f371ae2175ee4913f4499e1f2633a7b5936321eed1cdaeb6115181d29060200160405180910390a15b505050505050505050505050565b611ba5611c60565b611bae816120bf565b50565b611bb9611c60565b80611bd06000356001600160e01b0319168261148c565b611bf0576040516373330d9b60e01b81526004810182905260240161075a565b60058290556040518281527fb58ce08a43dbde3538e0851b84afb70f6ffe3ecfbc4d8383e9e92d552f9b41bb9060200161092e565b611c2d611c60565b6001600160a01b038116611c5757604051631e4fbdf760e01b81526000600482015260240161075a565b611bae81611d1d565b33611c927f9016d09d72d40fdae2fd8ceac6b6234c7706214fd39c1cd1e609a0528c199300546001600160a01b031690565b6001600160a01b0316146108ae5760405163118cdaa760e01b815233600482015260240161075a565b60008060ff19611cec60017fdace3fd3d1fbdfd33853f19ba191d28c617e373ec58fc73cf7b58db5aff2c2ab612938565b604051602001611cfe91815260200190565b60408051601f1981840301815291905280516020909101201692915050565b7f9016d09d72d40fdae2fd8ceac6b6234c7706214fd39c1cd1e609a0528c19930080546001600160a01b031981166001600160a01b03848116918217845560405192169182907f8be0079c531659141344cd1fd0a4f28419497f9722a3daafe3b4186f6b6457e090600090a3505050565b600080805b6020811015611dfe57611da781601f612938565b611db2906008612961565b611dbd906002612b17565b84611dc88388612a20565b81518110611dd857611dd861290c565b0160200151611dea919060f81c612961565b611df49083612a20565b9150600101611d93565b509392505050565b60408051606081018252600080825260208201819052918101919091526000606060048451611e359190612938565b11611e4d5760048351611e489190612938565b611e50565b60605b90506000611e608483600461226e565b6040805160608101825260008082526001602083015291810191909152909150631bb8c46360e21b6001600160e01b0319871601611f4257600080600084806020019051810190611eb19190612b23565b60075460405163060b284960e01b81526001600160a01b038f8116600483015280861660248301526044820185905260648201849052949750929550909350919091169063060b2849906084015b60006040518083038186803b158015611f1757600080fd5b505afa925050508015611f28575060015b611f355760008452611f3a565b600284525b505050611fcd565b634d597bdf60e01b6001600160e01b0319871601611fc557600080600084806020019051810190611f739190612b23565b600754604051632fb625a360e21b81526001600160a01b038f8116600483015280861660248301526044820185905260648201849052949750929550909350919091169063bed8968c90608401611eff565b600060208201525b9695505050505050565b60408051600481526024810182526020810180517bffffffffffffffffffffffffffffffffffffffffffffffffffffffff166001600160e01b0319851617905290516000919082908190309061202e9085906128f0565b600060405180830381855afa9150503d8060008114612069576040519150601f19603f3d011682016040523d82523d6000602084013e61206e565b606091505b50915091508161209157604051635fbab09b60e11b815260040160405180910390fd5b808060200190518101906120a59190612a07565b95945050505050565b6120b661233b565b611bae81612389565b6001600160a01b0381166120e65760405163d92e233d60e01b815260040160405180910390fd5b6001600160a01b03811660009081526003602052604090205460ff161561212b576040516303e49a0960e51b81526001600160a01b038216600482015260240161075a565b60008054600180820183557f290decd9548b62a8d60345a988386fc84ba6bc95484008f6362f93160ef3e56390910180546001600160a01b0319166001600160a01b03851690811790915580835260036020526040808420805460ff1916909317909255905190917f9fd477f436acbbd1bccec434945651e2a867b254b03c1f6af170ac30f1e833f291a250565b6121c161233b565b60006121cb611cbb565b6040805180820182526001600160e01b0319868116825260208083018781529189166000908152858252939093208251815463ffffffff191660e09190911c1781559051805194955091939092612229926001850192910190612391565b509050507f3665bf9cd0ba4ddceeec259e21dcf8a4510f3b1130bd42e950828e69d85408ba84848460405161226093929190612b5a565b60405180910390a150505050565b606060008367ffffffffffffffff81111561228b5761228b6125e6565b6040519080825280601f01601f1916602001820160405280156122b5576020820181803683370190505b50905060005b8481101561233257856122ce8583612a20565b815181106122de576122de61290c565b602001015160f81c60f81b8282815181106122fb576122fb61290c565b60200101907effffffffffffffffffffffffffffffffffffffffffffffffffffffffffffff1916908160001a9053506001016122bb565b50949350505050565b7ff0c57e16840df040f15088dc2f81fe391c3923bec73e23a9662efc9c229c6a005468010000000000000000900460ff166108ae57604051631afcd79f60e31b815260040160405180910390fd5b611c2d61233b565b8280548282559060005260206000209081019282156123cc579160200282015b828111156123cc5782518255916020019190600101906123b1565b506123d89291506123f6565b5090565b5080546000825590600052602060002090810190611bae91905b5b808211156123d857600081556001016123f7565b6020808252825182820181905260009190848201906040850190845b8181101561244c5783516001600160a01b031683529284019291840191600101612427565b50909695505050505050565b80356001600160e01b03198116811461247057600080fd5b919050565b60008083601f84011261248757600080fd5b50813567ffffffffffffffff81111561249f57600080fd5b6020830191508360208260051b85010111156124ba57600080fd5b9250929050565b600080600080606085870312156124d757600080fd5b6124e085612458565b93506124ee60208601612458565b9250604085013567ffffffffffffffff81111561250a57600080fd5b61251687828801612475565b95989497509550505050565b6001600160a01b0381168114611bae57600080fd5b60006020828403121561254957600080fd5b813561255481612522565b9392505050565b60005b8381101561257657818101518382015260200161255e565b50506000910152565b602081526000825180602084015261259e81604085016020870161255b565b601f01601f19169190910160400192915050565b6000602082840312156125c457600080fd5b61255482612458565b6000602082840312156125df57600080fd5b5035919050565b634e487b7160e01b600052604160045260246000fd5b600067ffffffffffffffff80841115612617576126176125e6565b604051601f8501601f19908116603f0116810190828211818310171561263f5761263f6125e6565b8160405280935085815286868601111561265857600080fd5b858560208301376000602087830101525050509392505050565b60006020828403121561268457600080fd5b813567ffffffffffffffff81111561269b57600080fd5b8201601f810184136126ac57600080fd5b6126bb848235602084016125fc565b949350505050565b60008151808452602080850194506020840160005b838110156126f4578151875295820195908201906001016126d8565b509495945050505050565b602080825282516001600160e01b031916828201528201516040808301526000906126bb60608401826126c3565b600080600080600060a0868803121561274557600080fd5b853561275081612522565b9450602086013561276081612522565b93506040860135925060608601359150608086013567ffffffffffffffff81111561278a57600080fd5b8601601f8101881361279b57600080fd5b6127aa888235602084016125fc565b9150509295509295909350565b600080604083850312156127ca57600080fd5b6127d383612458565b946020939093013593505050565b600080600080600080600060c0888a0312156127fc57600080fd5b873567ffffffffffffffff81111561281357600080fd5b61281f8a828b01612475565b909850965050602088013561283381612522565b9450604088013561284381612522565b9350606088013561285381612522565b9250608088013561286381612522565b915060a088013561287381612522565b8091505092959891949750929550565b6001600160e01b0319858116825284166020820152606060408201819052810182905260007f07ffffffffffffffffffffffffffffffffffffffffffffffffffffffffffffff8311156128d557600080fd5b8260051b808560808501379190910160800195945050505050565b6000825161290281846020870161255b565b9190910192915050565b634e487b7160e01b600052603260045260246000fd5b634e487b7160e01b600052601160045260246000fd5b8181038181111561166357611663612922565b634e487b7160e01b600052603160045260246000fd5b808202811582820484141761166357611663612922565b60006001820161298a5761298a612922565b5060010190565b6000602082840312156129a357600080fd5b8151801515811461255457600080fd5b6000602082840312156129c557600080fd5b815161255481612522565b634e487b7160e01b600052602160045260246000fd5b6000602082840312156129f857600080fd5b81516006811061255457600080fd5b600060208284031215612a1957600080fd5b5051919050565b8082018082111561166357611663612922565b600181815b80851115612a6e578160001904821115612a5457612a54612922565b80851615612a6157918102915b93841c9390800290612a38565b509250929050565b600082612a8557506001611663565b81612a9257506000611663565b8160018114612aa85760028114612ab257612ace565b6001915050611663565b60ff841115612ac357612ac3612922565b50506001821b611663565b5060208310610133831016604e8410600b8410161715612af1575081810a611663565b612afb8383612a33565b8060001904821115612b0f57612b0f612922565b029392505050565b60006125548383612a76565b600080600060608486031215612b3857600080fd5b8351612b4381612522565b602085015160409095015190969495509392505050565b6001600160e01b03198481168252831660208201526060604082018190526000906120a5908301846126c356fea264697066735822122014ada73e305e970f2d7b6eb267f96803fb4ee928884d5eb19d64428dd4580b1864736f6c63430008190033",
  "linkReferences": {},
  "deployedLinkReferences": {}
}