{
  "_format": "hh-sol-artifact-1",
  "contractName": "TxPermissionHbbft",
  "sourceName": "contracts/TxPermissionHbbft.sol",
  "abi": [
    {
      "inputs": [],
      "stateMutability": "nonpayable",
      "type": "constructor"
    },
    {
      "inputs": [
        {
          "internalType": "address",
          "name": "_value",
          "type": "address"
        }
      ],
      "name": "AlreadyExist",
      "type": "error"
    },
    {
      "inputs": [],
      "name": "GetterCallFailed",
      "type": "error"
    },
    {
      "inputs": [],
      "name": "InvalidBlockGasLimit",
      "type": "error"
    },
    {
      "inputs": [],
      "name": "InvalidInitialization",
      "type": "error"
    },
    {
      "inputs": [],
      "name": "InvalidMinGasPrice",
      "type": "error"
    },
    {
      "inputs": [
        {
          "internalType": "uint256",
          "name": "_newVal",
          "type": "uint256"
        }
      ],
      "name": "NewValueOutOfRange",
      "type": "error"
    },
    {
      "inputs": [
        {
          "internalType": "address",
          "name": "_value",
          "type": "address"
        }
      ],
      "name": "NotExist",
      "type": "error"
    },
    {
      "inputs": [],
      "name": "NotInitializing",
      "type": "error"
    },
    {
      "inputs": [
        {
          "internalType": "address",
          "name": "owner",
          "type": "address"
        }
      ],
      "name": "OwnableInvalidOwner",
      "type": "error"
    },
    {
      "inputs": [
        {
          "internalType": "address",
          "name": "account",
          "type": "address"
        }
      ],
      "name": "OwnableUnauthorizedAccount",
      "type": "error"
    },
    {
      "inputs": [],
      "name": "SenderNotAllowed",
      "type": "error"
    },
    {
      "inputs": [],
      "name": "ZeroAddress",
      "type": "error"
    },
    {
      "anonymous": false,
      "inputs": [
        {
          "indexed": true,
          "internalType": "address",
          "name": "_sender",
          "type": "address"
        }
      ],
      "name": "AddAllowedSender",
      "type": "event"
    },
    {
      "anonymous": false,
      "inputs": [
        {
          "indexed": false,
          "internalType": "uint64",
          "name": "version",
          "type": "uint64"
        }
      ],
      "name": "Initialized",
      "type": "event"
    },
    {
      "anonymous": false,
      "inputs": [
        {
          "indexed": true,
          "internalType": "address",
          "name": "previousOwner",
          "type": "address"
        },
        {
          "indexed": true,
          "internalType": "address",
          "name": "newOwner",
          "type": "address"
        }
      ],
      "name": "OwnershipTransferred",
      "type": "event"
    },
    {
      "anonymous": false,
      "inputs": [
        {
          "indexed": true,
          "internalType": "address",
          "name": "_sender",
          "type": "address"
        }
      ],
      "name": "RemoveAllowedSender",
      "type": "event"
    },
    {
      "anonymous": false,
      "inputs": [
        {
          "indexed": false,
          "internalType": "bytes4",
          "name": "funcSelector",
          "type": "bytes4"
        }
      ],
      "name": "RemoveChangeableParameter",
      "type": "event"
    },
    {
      "anonymous": false,
      "inputs": [
        {
          "indexed": false,
          "internalType": "uint256",
          "name": "_blockGasLimit",
          "type": "uint256"
        }
      ],
      "name": "SetBlockGasLimit",
      "type": "event"
    },
    {
      "anonymous": false,
      "inputs": [
        {
          "indexed": false,
          "internalType": "bytes4",
          "name": "setter",
          "type": "bytes4"
        },
        {
          "indexed": false,
          "internalType": "bytes4",
          "name": "getter",
          "type": "bytes4"
        },
        {
          "indexed": false,
          "internalType": "uint256[]",
          "name": "params",
          "type": "uint256[]"
        }
      ],
      "name": "SetChangeableParameter",
      "type": "event"
    },
    {
      "anonymous": false,
      "inputs": [
        {
          "indexed": false,
          "internalType": "uint256",
          "name": "_minGasPrice",
          "type": "uint256"
        }
      ],
      "name": "SetMinimumGasPrice",
      "type": "event"
    },
    {
      "inputs": [],
      "name": "ANNOUNCE_AVAILABILITY_SIGNATURE",
      "outputs": [
        {
          "internalType": "bytes4",
          "name": "",
          "type": "bytes4"
        }
      ],
      "stateMutability": "view",
      "type": "function"
    },
    {
      "inputs": [],
      "name": "REPORT_MISSING_CONNECTIVITY_SELECTOR",
      "outputs": [
        {
          "internalType": "bytes4",
          "name": "",
          "type": "bytes4"
        }
      ],
      "stateMutability": "view",
      "type": "function"
    },
    {
      "inputs": [],
      "name": "REPORT_RECONNECT_SELECTOR",
      "outputs": [
        {
          "internalType": "bytes4",
          "name": "",
          "type": "bytes4"
        }
      ],
      "stateMutability": "view",
      "type": "function"
    },
    {
      "inputs": [],
      "name": "SET_VALIDATOR_IP",
      "outputs": [
        {
          "internalType": "bytes4",
          "name": "",
          "type": "bytes4"
        }
      ],
      "stateMutability": "view",
      "type": "function"
    },
    {
      "inputs": [],
      "name": "WRITE_ACKS_SIGNATURE",
      "outputs": [
        {
          "internalType": "bytes4",
          "name": "",
          "type": "bytes4"
        }
      ],
      "stateMutability": "view",
      "type": "function"
    },
    {
      "inputs": [],
      "name": "WRITE_PART_SIGNATURE",
      "outputs": [
        {
          "internalType": "bytes4",
          "name": "",
          "type": "bytes4"
        }
      ],
      "stateMutability": "view",
      "type": "function"
    },
    {
      "inputs": [
        {
          "internalType": "address",
          "name": "_sender",
          "type": "address"
        }
      ],
      "name": "addAllowedSender",
      "outputs": [],
      "stateMutability": "nonpayable",
      "type": "function"
    },
    {
      "inputs": [],
      "name": "allowedSenders",
      "outputs": [
        {
          "internalType": "address[]",
          "name": "",
          "type": "address[]"
        }
      ],
      "stateMutability": "view",
      "type": "function"
    },
    {
      "inputs": [
        {
          "internalType": "address",
          "name": "_sender",
          "type": "address"
        },
        {
          "internalType": "address",
          "name": "_to",
          "type": "address"
        },
        {
          "internalType": "uint256",
          "name": "",
          "type": "uint256"
        },
        {
          "internalType": "uint256",
          "name": "_gasPrice",
          "type": "uint256"
        },
        {
          "internalType": "bytes",
          "name": "_data",
          "type": "bytes"
        }
      ],
      "name": "allowedTxTypes",
      "outputs": [
        {
          "internalType": "uint32",
          "name": "typesMask",
          "type": "uint32"
        },
        {
          "internalType": "bool",
          "name": "cache",
          "type": "bool"
        }
      ],
      "stateMutability": "view",
      "type": "function"
    },
    {
      "inputs": [],
      "name": "blockGasLimit",
      "outputs": [
        {
          "internalType": "uint256",
          "name": "",
          "type": "uint256"
        }
      ],
      "stateMutability": "view",
      "type": "function"
    },
    {
      "inputs": [],
      "name": "certifierContract",
      "outputs": [
        {
          "internalType": "contract ICertifier",
          "name": "",
          "type": "address"
        }
      ],
      "stateMutability": "view",
      "type": "function"
    },
    {
      "inputs": [],
      "name": "connectivityTracker",
      "outputs": [
        {
          "internalType": "contract IConnectivityTrackerHbbft",
          "name": "",
          "type": "address"
        }
      ],
      "stateMutability": "view",
      "type": "function"
    },
    {
      "inputs": [],
      "name": "contractName",
      "outputs": [
        {
          "internalType": "string",
          "name": "",
          "type": "string"
        }
      ],
      "stateMutability": "pure",
      "type": "function"
    },
    {
      "inputs": [],
      "name": "contractNameHash",
      "outputs": [
        {
          "internalType": "bytes32",
          "name": "",
          "type": "bytes32"
        }
      ],
      "stateMutability": "pure",
      "type": "function"
    },
    {
      "inputs": [],
      "name": "contractVersion",
      "outputs": [
        {
          "internalType": "uint256",
          "name": "",
          "type": "uint256"
        }
      ],
      "stateMutability": "pure",
      "type": "function"
    },
    {
      "inputs": [
        {
          "internalType": "string",
          "name": "_selector",
          "type": "string"
        }
      ],
      "name": "getAllowedParamsRange",
      "outputs": [
        {
          "components": [
            {
              "internalType": "bytes4",
              "name": "getter",
              "type": "bytes4"
            },
            {
              "internalType": "uint256[]",
              "name": "range",
              "type": "uint256[]"
            }
          ],
          "internalType": "struct ValueGuards.ParameterRange",
          "name": "",
          "type": "tuple"
        }
      ],
      "stateMutability": "view",
      "type": "function"
    },
    {
      "inputs": [
        {
          "internalType": "bytes4",
          "name": "_selector",
          "type": "bytes4"
        }
      ],
      "name": "getAllowedParamsRangeWithSelector",
      "outputs": [
        {
          "components": [
            {
              "internalType": "bytes4",
              "name": "getter",
              "type": "bytes4"
            },
            {
              "internalType": "uint256[]",
              "name": "range",
              "type": "uint256[]"
            }
          ],
          "internalType": "struct ValueGuards.ParameterRange",
          "name": "",
          "type": "tuple"
        }
      ],
      "stateMutability": "view",
      "type": "function"
    },
    {
      "inputs": [
        {
          "internalType": "address[]",
          "name": "_allowed",
          "type": "address[]"
        },
        {
          "internalType": "address",
          "name": "_certifier",
          "type": "address"
        },
        {
          "internalType": "address",
          "name": "_validatorSet",
          "type": "address"
        },
        {
          "internalType": "address",
          "name": "_keyGenHistoryContract",
          "type": "address"
        },
        {
          "internalType": "address",
          "name": "_connectivityTracker",
          "type": "address"
        },
        {
          "internalType": "address",
          "name": "_contractOwner",
          "type": "address"
        }
      ],
      "name": "initialize",
      "outputs": [],
      "stateMutability": "nonpayable",
      "type": "function"
    },
    {
      "inputs": [
        {
          "internalType": "address",
          "name": "",
          "type": "address"
        }
      ],
      "name": "isSenderAllowed",
      "outputs": [
        {
          "internalType": "bool",
          "name": "",
          "type": "bool"
        }
      ],
      "stateMutability": "view",
      "type": "function"
    },
    {
      "inputs": [
        {
          "internalType": "bytes4",
          "name": "funcSelector",
          "type": "bytes4"
        },
        {
          "internalType": "uint256",
          "name": "newVal",
          "type": "uint256"
        }
      ],
      "name": "isWithinAllowedRange",
      "outputs": [
        {
          "internalType": "bool",
          "name": "",
          "type": "bool"
        }
      ],
      "stateMutability": "view",
      "type": "function"
    },
    {
      "inputs": [],
      "name": "keyGenHistoryContract",
      "outputs": [
        {
          "internalType": "contract IKeyGenHistory",
          "name": "",
          "type": "address"
        }
      ],
      "stateMutability": "view",
      "type": "function"
    },
    {
      "inputs": [],
      "name": "minimumGasPrice",
      "outputs": [
        {
          "internalType": "uint256",
          "name": "",
          "type": "uint256"
        }
      ],
      "stateMutability": "view",
      "type": "function"
    },
    {
      "inputs": [],
      "name": "owner",
      "outputs": [
        {
          "internalType": "address",
          "name": "",
          "type": "address"
        }
      ],
      "stateMutability": "view",
      "type": "function"
    },
    {
      "inputs": [
        {
          "internalType": "bytes4",
          "name": "funcSelector",
          "type": "bytes4"
        }
      ],
      "name": "removeAllowedChangeableParameter",
      "outputs": [],
      "stateMutability": "nonpayable",
      "type": "function"
    },
    {
      "inputs": [
        {
          "internalType": "address",
          "name": "_sender",
          "type": "address"
        }
      ],
      "name": "removeAllowedSender",
      "outputs": [],
      "stateMutability": "nonpayable",
      "type": "function"
    },
    {
      "inputs": [],
      "name": "renounceOwnership",
      "outputs": [],
      "stateMutability": "nonpayable",
      "type": "function"
    },
    {
      "inputs": [
        {
          "internalType": "bytes4",
          "name": "setter",
          "type": "bytes4"
        },
        {
          "internalType": "bytes4",
          "name": "getter",
          "type": "bytes4"
        },
        {
          "internalType": "uint256[]",
          "name": "params",
          "type": "uint256[]"
        }
      ],
      "name": "setAllowedChangeableParameter",
      "outputs": [],
      "stateMutability": "nonpayable",
      "type": "function"
    },
    {
      "inputs": [
        {
          "internalType": "uint256",
          "name": "_value",
          "type": "uint256"
        }
      ],
      "name": "setBlockGasLimit",
      "outputs": [],
      "stateMutability": "nonpayable",
      "type": "function"
    },
    {
      "inputs": [
        {
          "internalType": "uint256",
          "name": "_value",
          "type": "uint256"
        }
      ],
      "name": "setMinimumGasPrice",
      "outputs": [],
      "stateMutability": "nonpayable",
      "type": "function"
    },
    {
      "inputs": [
        {
          "internalType": "address",
          "name": "newOwner",
          "type": "address"
        }
      ],
      "name": "transferOwnership",
      "outputs": [],
      "stateMutability": "nonpayable",
      "type": "function"
    },
    {
      "inputs": [],
      "name": "validatorSetContract",
      "outputs": [
        {
          "internalType": "contract IValidatorSetHbbft",
          "name": "",
          "type": "address"
        }
      ],
      "stateMutability": "view",
      "type": "function"
    }
  ],
  "bytecode": "0x6080604052348015600f57600080fd5b506016601a565b60ca565b7ff0c57e16840df040f15088dc2f81fe391c3923bec73e23a9662efc9c229c6a00805468010000000000000000900460ff161560695760405163f92ee8a960e01b815260040160405180910390fd5b80546001600160401b039081161460c75780546001600160401b0319166001600160401b0390811782556040519081527fc7f505b2f371ae2175ee4913f4499e1f2633a7b5936321eed1cdaeb6115181d29060200160405180910390a15b50565b612b37806100d96000396000f3fe608060405234801561001057600080fd5b50600436106101e55760003560e01c80638da5cb5b1161010f578063c374bc23116100a2578063df3cecf611610071578063df3cecf61461046b578063dfc8bf4e14610474578063efc7840114610487578063f2fde38b146104aa57600080fd5b8063c374bc2314610424578063c746c8f414610437578063d249b31c1461044a578063d3ae79651461045d57600080fd5b8063b710c15d116100de578063b710c15d1461039f578063b9056afa146103bf578063ba08d237146103ee578063bf348f861461041157600080fd5b80638da5cb5b14610342578063a0a8e46014610372578063a69257f314610379578063b47aef1f1461038c57600080fd5b80635f0664bf1161018757806375d0c0dc1161015657806375d0c0dc146102d9578063782f0177146103185780637877a797146103265780637d8149db1461032f57600080fd5b80635f0664bf146102a257806366955469146102b05780637086bcc1146102c3578063715018a6146102d157600080fd5b80633272b28c116101c35780633272b28c1461024f5780634346845f14610264578063469ab1e314610279578063471eab5c1461028f57600080fd5b80631a9ebeaa146101ea57806324bdf37b1461021a578063305d526c14610241575b600080fd5b6001546101fd906001600160a01b031681565b6040516001600160a01b0390911681526020015b60405180910390f35b61022863a42bdee960e01b81565b6040516001600160e01b03199091168152602001610211565b610228632b11904760e11b81565b6102576104bd565b6040516102119190612385565b61027761027236600461243b565b61051f565b005b610281610625565b604051908152602001610211565b61027761029d3660046124b1565b61068c565b6102286343bcce9f60e01b81565b6007546101fd906001600160a01b031681565b6102286324473b9d60e21b81565b610277610816565b604080518082018252601681527f54585f5045524d495353494f4e5f434f4e5452414354000000000000000000006020820152905161021191906124f9565b610228630b53784960e21b81565b61028160065481565b61027761033d36600461252c565b61082a565b7f9016d09d72d40fdae2fd8ceac6b6234c7706214fd39c1cd1e609a0528c199300546001600160a01b03166101fd565b6003610281565b610277610387366004612547565b6108b4565b6002546101fd906001600160a01b031681565b6103b26103ad3660046125ec565b610928565b6040516102119190612679565b6103d26103cd3660046126a7565b6109d8565b6040805163ffffffff9093168352901515602083015201610211565b6104016103fc366004612731565b611406565b6040519015158152602001610211565b6103b261041f36600461252c565b6115e3565b61027761043236600461275b565b611688565b6102776104453660046124b1565b611b17565b610277610458366004612547565b611b2b565b61022863b2a6842160e01b81565b61028160055481565b6004546101fd906001600160a01b031681565b6104016104953660046124b1565b60036020526000908152604090205460ff1681565b6102776104b83660046124b1565b611b9f565b6060600080548060200260200160405190810160405280929190818152602001828054801561051557602002820191906000526020600020905b81546001600160a01b031681526001909101906020018083116104f7575b5050505050905090565b610527611bda565b6000610531611c35565b90506040518060400160405280857bffffffffffffffffffffffffffffffffffffffffffffffffffffffff1916815260200184848080602002602001604051908101604052809392919081815260200183836020028082843760009201829052509390945250506001600160e01b031988168152602084815260409091208351815463ffffffff191660e09190911c1781558382015180519193506105dd92600185019291019061230b565b509050507f3665bf9cd0ba4ddceeec259e21dcf8a4510f3b1130bd42e950828e69d85408ba8585858560405161061694939291906127fd565b60405180910390a15050505050565b600061066160408051808201909152601681527f54585f5045524d495353494f4e5f434f4e545241435400000000000000000000602082015290565b604051602001610671919061286a565b60405160208183030381529060405280519060200120905090565b610694611bda565b6001600160a01b03811660009081526003602052604090205460ff166106dd5760405163d64efe6360e01b81526001600160a01b03821660048201526024015b60405180910390fd5b60008054905b818110156107cb57600081815481106106fe576106fe612886565b6000918252602090912001546001600160a01b03908116908416036107c357600061072a6001846128b2565b8154811061073a5761073a612886565b600091825260208220015481546001600160a01b0390911691908390811061076457610764612886565b6000918252602082200180546001600160a01b0319166001600160a01b03939093169290921790915580548061079c5761079c6128c5565b600082815260209020810160001990810180546001600160a01b03191690550190556107cb565b6001016106e3565b506001600160a01b038216600081815260036020526040808220805460ff19169055517f4a92994591b64790e541e61d7d76128fa1d8eb7280652093de3b1f81f08d9af49190a25050565b61081e611bda565b6108286000611c97565b565b610832611bda565b600061083c611c35565b6001600160e01b031983166000908152602082905260408120805463ffffffff191681559192506108706001830182612356565b50506040516001600160e01b0319831681527fed27cb02231782dadf13473a7828cb980c4d685791b7a3136dde00f8c3594cb6906020015b60405180910390a15050565b6108bc611bda565b806108d36000356001600160e01b03191682611406565b6108f3576040516373330d9b60e01b8152600481018290526024016106d4565b60068290556040518281527fb87cd003e70e0fa56964d3195a666cacae784c6ac61aec48a74dc57afe38d249906020016108a8565b604080518082019091526000815260606020820152610945611c35565b82516020808501919091206001600160e01b0319908116600090815292825260409283902083518085018552815460e01b90921682526001810180548551818602810186019096528086529294919385810193908301828280156109c857602002820191906000526020600020905b8154815260200190600101908083116109b4575b5050505050815250509050919050565b6001600160a01b038516600090815260036020526040812054819060ff1615610a0a575063ffffffff905060006113fc565b6000805b6004855110158015610a205750600481105b15610a8257610a308160086128db565b858281518110610a4257610a42612886565b01602001517fff0000000000000000000000000000000000000000000000000000000000000016901c919091179080610a7a816128f2565b915050610a0e565b506004546001600160a01b0390811690881603610d665763bc43316160e01b6001600160e01b0319821601610b3b5760048054604051630f51726f60e41b81526001600160a01b038b81169382019390935291169063f51726f090602401602060405180830381865afa158015610afd573d6000803e3d6000fd5b505050506040513d601f19601f82011682018060405250810190610b21919061290b565b610b2c576000610b2f565b60025b600092509250506113fc565b635bd4211760e01b6001600160e01b0319821601610cd857600480546040516307b9342f60e21b81526001600160a01b038b81169382019390935260009290911690631ee4d0bc90602401602060405180830381865afa158015610ba3573d6000803e3d6000fd5b505050506040513d601f19601f82011682018060405250810190610bc7919061292d565b90506001600160a01b03811615610cca57600480546040805163239a373960e21b815290516001600160a01b0390921692638e68dce49282820192602092908290030181865afa158015610c1f573d6000803e3d6000fd5b505050506040513d601f19601f82011682018060405250810190610c43919061292d565b60405163a711e6a160e01b81526001600160a01b038381166004830152919091169063a711e6a190602401602060405180830381865afa158015610c8b573d6000803e3d6000fd5b505050506040513d601f19601f82011682018060405250810190610caf919061290b565b610cba576000610cbd565b60025b60009350935050506113fc565b6000809350935050506113fc565b8415610d66576004805460405163facd743b60e01b81526001600160a01b038b81169382019390935291169063facd743b90602401602060405180830381865afa158015610d2a573d6000803e3d6000fd5b505050506040513d601f19601f82011682018060405250810190610d4e919061290b565b610d59576002610b2f565b60008092509250506113fc565b6002546001600160a01b03908116908816036111db576334ac87b760e21b6001600160e01b0319821601610f3a5760016004805460405163014e28d960e41b81526001600160a01b038c8116938201939093529116906314e28d9090602401602060405180830381865afa158015610de2573d6000803e3d6000fd5b505050506040513d601f19601f82011682018060405250810190610e069190612960565b6005811115610e1757610e1761294a565b03610d5957602484511015610e335760008092509250506113fc565b6000610e40600486611d08565b9050600460009054906101000a90046001600160a01b03166001600160a01b0316638e68dce46040518163ffffffff1660e01b8152600401602060405180830381865afa158015610e95573d6000803e3d6000fd5b505050506040513d601f19601f82011682018060405250810190610eb9919061292d565b6001600160a01b031663794c0c686040518163ffffffff1660e01b8152600401602060405180830381865afa158015610ef6573d6000803e3d6000fd5b505050506040513d601f19601f82011682018060405250810190610f1a9190612981565b610f2590600161299a565b8103610cca57600260009350935050506113fc565b6354ee6fb960e11b6001600160e01b03198216016111db5760036004805460405163014e28d960e41b81526001600160a01b038c8116938201939093529116906314e28d9090602401602060405180830381865afa158015610fa0573d6000803e3d6000fd5b505050506040513d601f19601f82011682018060405250810190610fc49190612960565b6005811115610fd557610fd561294a565b03610d5957602484511015610ff15760008092509250506113fc565b600480546040805163239a373960e21b815290516001600160a01b0390921692638e68dce49282820192602092908290030181865afa158015611038573d6000803e3d6000fd5b505050506040513d601f19601f8201168201806040525081019061105c919061292d565b6001600160a01b031663794c0c686040518163ffffffff1660e01b8152600401602060405180830381865afa158015611099573d6000803e3d6000fd5b505050506040513d601f19601f820116820180604052508101906110bd9190612981565b6110c890600161299a565b6110d3600486611d08565b036110e6576002600092509250506113fc565b600480546040805163239a373960e21b815290516001600160a01b0390921692638e68dce49282820192602092908290030181865afa15801561112d573d6000803e3d6000fd5b505050506040513d601f19601f82011682018060405250810190611151919061292d565b6001600160a01b031663794c0c686040518163ffffffff1660e01b8152600401602060405180830381865afa15801561118e573d6000803e3d6000fd5b505050506040513d601f19601f820116820180604052508101906111b29190612981565b6111bd90600161299a565b6111c8602486611d08565b03610d59576002600092509250506113fc565b6007546001600160a01b03908116908816036112215760006111fe898387611d80565b905080602001511561121f57806000015181604001519350935050506113fc565b505b6004805460405163facd743b60e01b81526001600160a01b038b81169382019390935291169063facd743b90602401602060405180830381865afa15801561126d573d6000803e3d6000fd5b505050506040513d601f19601f82011682018060405250810190611291919061290b565b801561129d5750600085115b156112c9576000886001600160a01b031631116112bb576000610b2f565b6001600092509250506113fc565b6004805460405163facd743b60e01b81526001600160a01b038a81169382019390935291169063facd743b90602401602060405180830381865afa158015611315573d6000803e3d6000fd5b505050506040513d601f19601f82011682018060405250810190611339919061290b565b1561134b5760008092509250506113fc565b846000036113dd576001546040516303a388eb60e61b81526001600160a01b038a811660048301529091169063e8e23ac090602401602060405180830381865afa15801561139d573d6000803e3d6000fd5b505050506040513d601f19601f820116820180604052508101906113c1919061290b565b6113cc576000610b2f565b63ffffffff600092509250506113fc565b6005548510156113ee5760006113f4565b63ffffffff5b600092509250505b9550959350505050565b600080611411611c35565b6001600160e01b031980861660009081526020838152604080832081518083018352815460e01b9095168552600181018054835181860281018601909452808452969750939590938584019390919083018282801561148f57602002820191906000526020600020905b81548152602001906001019080831161147b575b50505050508152505090508060200151516000036114b2576000925050506115dd565b602081015181516000906114c590611f51565b905060005b82518110156115d357818382815181106114e6576114e6612886565b6020026020010151036115cb57600080821161151c578360008151811061150f5761150f612886565b6020026020010151611541565b836115286001846128b2565b8151811061153857611538612886565b60200260200101515b905060006001855161155391906128b2565b831061158557846001865161156891906128b2565b8151811061157857611578612886565b60200260200101516115aa565b8461159184600161299a565b815181106115a1576115a1612886565b60200260200101515b90508189141580156115bc5750808914155b159750505050505050506115dd565b6001016114ca565b5060009450505050505b92915050565b604080518082019091526000815260606020820152611600611c35565b6001600160e01b03198084166000908152602092835260409081902081518083018352815460e01b90931683526001810180548351818702810187019094528084529394919385830193928301828280156109c857602002820191906000526020600020908154815260200190600101908083116109b4575050505050815250509050919050565b7ff0c57e16840df040f15088dc2f81fe391c3923bec73e23a9662efc9c229c6a00805468010000000000000000810460ff16159067ffffffffffffffff166000811580156116d35750825b905060008267ffffffffffffffff1660011480156116f05750303b155b9050811580156116fe575080155b1561171c5760405163f92ee8a960e01b815260040160405180910390fd5b845467ffffffffffffffff19166001178555831561175057845468ff00000000000000001916680100000000000000001785555b6001600160a01b038616158061176d57506001600160a01b038a16155b8061177f57506001600160a01b038916155b8061179157506001600160a01b038816155b806117a357506001600160a01b038716155b156117c15760405163d92e233d60e01b815260040160405180910390fd5b6117ca86612028565b60005b8b81101561180c576118048d8d838181106117ea576117ea612886565b90506020020160208101906117ff91906124b1565b612039565b6001016117cd565b50600180546001600160a01b038c81166001600160a01b031992831617909255600480548c8416908316179055600280548b841690831617905560078054928a1692909116919091179055633b9aca006005556305f5e10060065560408051600b808252610180820190925260009160208201610160803683370190505090506305f5e100816000815181106118a4576118a4612886565b602002602001018181525050630bebc200816001815181106118c8576118c8612886565b6020026020010181815250506317d78400816002815181106118ec576118ec612886565b6020026020010181815250506323c346008160038151811061191057611910612886565b602002602001018181525050632faf08008160048151811061193457611934612886565b602002602001018181525050633b9aca008160058151811061195857611958612886565b60200260200101818152505063773594008160068151811061197c5761197c612886565b60200260200101818152505063ee6b2800816007815181106119a0576119a0612886565b602002602001018181525050640165a0bc00816008815181106119c5576119c5612886565b6020026020010181815250506401dcd65000816009815181106119ea576119ea612886565b6020026020010181815250506402540be40081600a81518110611a0f57611a0f612886565b6020908102919091010152611a336334926cc760e21b636f9e767b60e11b83612133565b60408051600a8082526101608201909252600091602082016101408036833701905050905060005b8151811015611aa257611a6f81600161299a565b611a7d906305f5e1006128db565b828281518110611a8f57611a8f612886565b6020908102919091010152600101611a5b565b50611abc63a69257f360e01b637877a79760e01b83612133565b50508315611b0957845468ff000000000000000019168555604051600181527fc7f505b2f371ae2175ee4913f4499e1f2633a7b5936321eed1cdaeb6115181d29060200160405180910390a15b505050505050505050505050565b611b1f611bda565b611b2881612039565b50565b611b33611bda565b80611b4a6000356001600160e01b03191682611406565b611b6a576040516373330d9b60e01b8152600481018290526024016106d4565b60058290556040518281527fb58ce08a43dbde3538e0851b84afb70f6ffe3ecfbc4d8383e9e92d552f9b41bb906020016108a8565b611ba7611bda565b6001600160a01b038116611bd157604051631e4fbdf760e01b8152600060048201526024016106d4565b611b2881611c97565b33611c0c7f9016d09d72d40fdae2fd8ceac6b6234c7706214fd39c1cd1e609a0528c199300546001600160a01b031690565b6001600160a01b0316146108285760405163118cdaa760e01b81523360048201526024016106d4565b60008060ff19611c6660017fdace3fd3d1fbdfd33853f19ba191d28c617e373ec58fc73cf7b58db5aff2c2ab6128b2565b604051602001611c7891815260200190565b60408051601f1981840301815291905280516020909101201692915050565b7f9016d09d72d40fdae2fd8ceac6b6234c7706214fd39c1cd1e609a0528c19930080546001600160a01b031981166001600160a01b03848116918217845560405192169182907f8be0079c531659141344cd1fd0a4f28419497f9722a3daafe3b4186f6b6457e090600090a3505050565b600080805b6020811015611d7857611d2181601f6128b2565b611d2c9060086128db565b611d37906002612a91565b84611d42838861299a565b81518110611d5257611d52612886565b0160200151611d64919060f81c6128db565b611d6e908361299a565b9150600101611d0d565b509392505050565b60408051606081018252600080825260208201819052918101919091526000606060048451611daf91906128b2565b11611dc75760048351611dc291906128b2565b611dca565b60605b90506000611dda848360046121e8565b6040805160608101825260008082526001602083015291810191909152909150631bb8c46360e21b6001600160e01b0319871601611ebc57600080600084806020019051810190611e2b9190612a9d565b60075460405163060b284960e01b81526001600160a01b038f8116600483015280861660248301526044820185905260648201849052949750929550909350919091169063060b2849906084015b60006040518083038186803b158015611e9157600080fd5b505afa925050508015611ea2575060015b611eaf5760008452611eb4565b600284525b505050611f47565b634d597bdf60e01b6001600160e01b0319871601611f3f57600080600084806020019051810190611eed9190612a9d565b600754604051632fb625a360e21b81526001600160a01b038f8116600483015280861660248301526044820185905260648201849052949750929550909350919091169063bed8968c90608401611e79565b600060208201525b9695505050505050565b60408051600481526024810182526020810180517bffffffffffffffffffffffffffffffffffffffffffffffffffffffff166001600160e01b03198516179052905160009190829081903090611fa890859061286a565b600060405180830381855afa9150503d8060008114611fe3576040519150601f19603f3d011682016040523d82523d6000602084013e611fe8565b606091505b50915091508161200b57604051635fbab09b60e11b815260040160405180910390fd5b8080602001905181019061201f9190612981565b95945050505050565b6120306122b5565b611b2881612303565b6001600160a01b0381166120605760405163d92e233d60e01b815260040160405180910390fd5b6001600160a01b03811660009081526003602052604090205460ff16156120a5576040516303e49a0960e51b81526001600160a01b03821660048201526024016106d4565b60008054600180820183557f290decd9548b62a8d60345a988386fc84ba6bc95484008f6362f93160ef3e56390910180546001600160a01b0319166001600160a01b03851690811790915580835260036020526040808420805460ff1916909317909255905190917f9fd477f436acbbd1bccec434945651e2a867b254b03c1f6af170ac30f1e833f291a250565b61213b6122b5565b6000612145611c35565b6040805180820182526001600160e01b0319868116825260208083018781529189166000908152858252939093208251815463ffffffff191660e09190911c17815590518051949550919390926121a392600185019291019061230b565b509050507f3665bf9cd0ba4ddceeec259e21dcf8a4510f3b1130bd42e950828e69d85408ba8484846040516121da93929190612ad4565b60405180910390a150505050565b606060008367ffffffffffffffff81111561220557612205612560565b6040519080825280601f01601f19166020018201604052801561222f576020820181803683370190505b50905060005b848110156122ac5785612248858361299a565b8151811061225857612258612886565b602001015160f81c60f81b82828151811061227557612275612886565b60200101907effffffffffffffffffffffffffffffffffffffffffffffffffffffffffffff1916908160001a905350600101612235565b50949350505050565b7ff0c57e16840df040f15088dc2f81fe391c3923bec73e23a9662efc9c229c6a005468010000000000000000900460ff1661082857604051631afcd79f60e31b815260040160405180910390fd5b611ba76122b5565b828054828255906000526020600020908101928215612346579160200282015b8281111561234657825182559160200191906001019061232b565b50612352929150612370565b5090565b5080546000825590600052602060002090810190611b2891905b5b808211156123525760008155600101612371565b6020808252825182820181905260009190848201906040850190845b818110156123c65783516001600160a01b0316835292840192918401916001016123a1565b50909695505050505050565b80356001600160e01b0319811681146123ea57600080fd5b919050565b60008083601f84011261240157600080fd5b50813567ffffffffffffffff81111561241957600080fd5b6020830191508360208260051b850101111561243457600080fd5b9250929050565b6000806000806060858703121561245157600080fd5b61245a856123d2565b9350612468602086016123d2565b9250604085013567ffffffffffffffff81111561248457600080fd5b612490878288016123ef565b95989497509550505050565b6001600160a01b0381168114611b2857600080fd5b6000602082840312156124c357600080fd5b81356124ce8161249c565b9392505050565b60005b838110156124f05781810151838201526020016124d8565b50506000910152565b60208152600082518060208401526125188160408501602087016124d5565b601f01601f19169190910160400192915050565b60006020828403121561253e57600080fd5b6124ce826123d2565b60006020828403121561255957600080fd5b5035919050565b634e487b7160e01b600052604160045260246000fd5b600067ffffffffffffffff8084111561259157612591612560565b604051601f8501601f19908116603f011681019082821181831017156125b9576125b9612560565b816040528093508581528686860111156125d257600080fd5b858560208301376000602087830101525050509392505050565b6000602082840312156125fe57600080fd5b813567ffffffffffffffff81111561261557600080fd5b8201601f8101841361262657600080fd5b61263584823560208401612576565b949350505050565b60008151808452602080850194506020840160005b8381101561266e57815187529582019590820190600101612652565b509495945050505050565b602080825282516001600160e01b03191682820152820151604080830152600090612635606084018261263d565b600080600080600060a086880312156126bf57600080fd5b85356126ca8161249c565b945060208601356126da8161249c565b93506040860135925060608601359150608086013567ffffffffffffffff81111561270457600080fd5b8601601f8101881361271557600080fd5b61272488823560208401612576565b9150509295509295909350565b6000806040838503121561274457600080fd5b61274d836123d2565b946020939093013593505050565b600080600080600080600060c0888a03121561277657600080fd5b873567ffffffffffffffff81111561278d57600080fd5b6127998a828b016123ef565b90985096505060208801356127ad8161249c565b945060408801356127bd8161249c565b935060608801356127cd8161249c565b925060808801356127dd8161249c565b915060a08801356127ed8161249c565b8091505092959891949750929550565b6001600160e01b0319858116825284166020820152606060408201819052810182905260007f07ffffffffffffffffffffffffffffffffffffffffffffffffffffffffffffff83111561284f57600080fd5b8260051b808560808501379190910160800195945050505050565b6000825161287c8184602087016124d5565b9190910192915050565b634e487b7160e01b600052603260045260246000fd5b634e487b7160e01b600052601160045260246000fd5b818103818111156115dd576115dd61289c565b634e487b7160e01b600052603160045260246000fd5b80820281158282048414176115dd576115dd61289c565b6000600182016129045761290461289c565b5060010190565b60006020828403121561291d57600080fd5b815180151581146124ce57600080fd5b60006020828403121561293f57600080fd5b81516124ce8161249c565b634e487b7160e01b600052602160045260246000fd5b60006020828403121561297257600080fd5b8151600681106124ce57600080fd5b60006020828403121561299357600080fd5b5051919050565b808201808211156115dd576115dd61289c565b600181815b808511156129e85781600019048211156129ce576129ce61289c565b808516156129db57918102915b93841c93908002906129b2565b509250929050565b6000826129ff575060016115dd565b81612a0c575060006115dd565b8160018114612a225760028114612a2c57612a48565b60019150506115dd565b60ff841115612a3d57612a3d61289c565b50506001821b6115dd565b5060208310610133831016604e8410600b8410161715612a6b575081810a6115dd565b612a7583836129ad565b8060001904821115612a8957612a8961289c565b029392505050565b60006124ce83836129f0565b600080600060608486031215612ab257600080fd5b8351612abd8161249c565b602085015160409095015190969495509392505050565b6001600160e01b031984811682528316602082015260606040820181905260009061201f9083018461263d56fea26469706673582212209f762e186be339bddf4c22ba6fbead3647fdc2ce9ae0b01d217bc7b20812ec5764736f6c63430008190033",
  "linkReferences": {},
  "deployedLinkReferences": {}
}