{
  "_format": "hh-sol-artifact-1",
  "contractName": "TxPermissionHbbft",
  "sourceName": "contracts/TxPermissionHbbft.sol",
  "abi": [
    {
      "inputs": [],
      "stateMutability": "nonpayable",
      "type": "constructor"
    },
    {
      "inputs": [
        {
          "internalType": "address",
          "name": "_value",
          "type": "address"
        }
      ],
      "name": "AlreadyExist",
      "type": "error"
    },
    {
      "inputs": [],
      "name": "GetterCallFailed",
      "type": "error"
    },
    {
      "inputs": [],
      "name": "InvalidBlockGasLimit",
      "type": "error"
    },
    {
      "inputs": [],
      "name": "InvalidInitialization",
      "type": "error"
    },
    {
      "inputs": [],
      "name": "InvalidMinGasPrice",
      "type": "error"
    },
    {
      "inputs": [
        {
          "internalType": "uint256",
          "name": "_newVal",
          "type": "uint256"
        }
      ],
      "name": "NewValueOutOfRange",
      "type": "error"
    },
    {
      "inputs": [
        {
          "internalType": "address",
          "name": "_value",
          "type": "address"
        }
      ],
      "name": "NotExist",
      "type": "error"
    },
    {
      "inputs": [],
      "name": "NotInitializing",
      "type": "error"
    },
    {
      "inputs": [
        {
          "internalType": "address",
          "name": "owner",
          "type": "address"
        }
      ],
      "name": "OwnableInvalidOwner",
      "type": "error"
    },
    {
      "inputs": [
        {
          "internalType": "address",
          "name": "account",
          "type": "address"
        }
      ],
      "name": "OwnableUnauthorizedAccount",
      "type": "error"
    },
    {
      "inputs": [],
      "name": "SenderNotAllowed",
      "type": "error"
    },
    {
      "inputs": [],
      "name": "ZeroAddress",
      "type": "error"
    },
    {
      "anonymous": false,
      "inputs": [
        {
          "indexed": false,
          "internalType": "uint256",
          "name": "_value",
          "type": "uint256"
        }
      ],
      "name": "BlockGasLimitChanged",
      "type": "event"
    },
    {
      "anonymous": false,
      "inputs": [
        {
          "indexed": false,
          "internalType": "uint256",
          "name": "_value",
          "type": "uint256"
        }
      ],
      "name": "GasPriceChanged",
      "type": "event"
    },
    {
      "anonymous": false,
      "inputs": [
        {
          "indexed": false,
          "internalType": "uint64",
          "name": "version",
          "type": "uint64"
        }
      ],
      "name": "Initialized",
      "type": "event"
    },
    {
      "anonymous": false,
      "inputs": [
        {
          "indexed": true,
          "internalType": "address",
          "name": "previousOwner",
          "type": "address"
        },
        {
          "indexed": true,
          "internalType": "address",
          "name": "newOwner",
          "type": "address"
        }
      ],
      "name": "OwnershipTransferred",
      "type": "event"
    },
    {
      "anonymous": false,
      "inputs": [
        {
          "indexed": false,
          "internalType": "string",
          "name": "funcSelector",
          "type": "string"
        }
      ],
      "name": "RemoveChangeAbleParameter",
      "type": "event"
    },
    {
      "anonymous": false,
      "inputs": [
        {
          "indexed": false,
          "internalType": "uint256",
          "name": "_blockGasLimit",
          "type": "uint256"
        }
      ],
      "name": "SetBlockGasLimit",
      "type": "event"
    },
    {
      "anonymous": false,
      "inputs": [
        {
          "indexed": false,
          "internalType": "string",
          "name": "setter",
          "type": "string"
        },
        {
          "indexed": false,
          "internalType": "string",
          "name": "getter",
          "type": "string"
        },
        {
          "indexed": false,
          "internalType": "uint256[]",
          "name": "params",
          "type": "uint256[]"
        }
      ],
      "name": "SetChangeAbleParameter",
      "type": "event"
    },
    {
      "anonymous": false,
      "inputs": [
        {
          "indexed": false,
          "internalType": "address",
          "name": "_value",
          "type": "address"
        }
      ],
      "name": "SetConnectivityTracker",
      "type": "event"
    },
    {
      "anonymous": false,
      "inputs": [
        {
          "indexed": false,
          "internalType": "uint256",
          "name": "_minGasPrice",
          "type": "uint256"
        }
      ],
      "name": "SetMinimumGasPrice",
      "type": "event"
    },
    {
      "inputs": [],
      "name": "ANNOUNCE_AVAILABILITY_SIGNATURE",
      "outputs": [
        {
          "internalType": "bytes4",
          "name": "",
          "type": "bytes4"
        }
      ],
      "stateMutability": "view",
      "type": "function"
    },
    {
      "inputs": [],
      "name": "REPORT_MISSING_CONNECTIVITY_SELECTOR",
      "outputs": [
        {
          "internalType": "bytes4",
          "name": "",
          "type": "bytes4"
        }
      ],
      "stateMutability": "view",
      "type": "function"
    },
    {
      "inputs": [],
      "name": "REPORT_RECONNECT_SELECTOR",
      "outputs": [
        {
          "internalType": "bytes4",
          "name": "",
          "type": "bytes4"
        }
      ],
      "stateMutability": "view",
      "type": "function"
    },
    {
      "inputs": [],
      "name": "SET_VALIDATOR_IP",
      "outputs": [
        {
          "internalType": "bytes4",
          "name": "",
          "type": "bytes4"
        }
      ],
      "stateMutability": "view",
      "type": "function"
    },
    {
      "inputs": [],
      "name": "WRITE_ACKS_SIGNATURE",
      "outputs": [
        {
          "internalType": "bytes4",
          "name": "",
          "type": "bytes4"
        }
      ],
      "stateMutability": "view",
      "type": "function"
    },
    {
      "inputs": [],
      "name": "WRITE_PART_SIGNATURE",
      "outputs": [
        {
          "internalType": "bytes4",
          "name": "",
          "type": "bytes4"
        }
      ],
      "stateMutability": "view",
      "type": "function"
    },
    {
      "inputs": [
        {
          "internalType": "address",
          "name": "_sender",
          "type": "address"
        }
      ],
      "name": "addAllowedSender",
      "outputs": [],
      "stateMutability": "nonpayable",
      "type": "function"
    },
    {
      "inputs": [
        {
          "internalType": "bytes4",
          "name": "",
          "type": "bytes4"
        }
      ],
      "name": "allowedParameterRange",
      "outputs": [
        {
          "internalType": "bytes4",
          "name": "getter",
          "type": "bytes4"
        }
      ],
      "stateMutability": "view",
      "type": "function"
    },
    {
      "inputs": [],
      "name": "allowedSenders",
      "outputs": [
        {
          "internalType": "address[]",
          "name": "",
          "type": "address[]"
        }
      ],
      "stateMutability": "view",
      "type": "function"
    },
    {
      "inputs": [
        {
          "internalType": "address",
          "name": "_sender",
          "type": "address"
        },
        {
          "internalType": "address",
          "name": "_to",
          "type": "address"
        },
        {
          "internalType": "uint256",
          "name": "",
          "type": "uint256"
        },
        {
          "internalType": "uint256",
          "name": "_gasPrice",
          "type": "uint256"
        },
        {
          "internalType": "bytes",
          "name": "_data",
          "type": "bytes"
        }
      ],
      "name": "allowedTxTypes",
      "outputs": [
        {
          "internalType": "uint32",
          "name": "typesMask",
          "type": "uint32"
        },
        {
          "internalType": "bool",
          "name": "cache",
          "type": "bool"
        }
      ],
      "stateMutability": "view",
      "type": "function"
    },
    {
      "inputs": [],
      "name": "blockGasLimit",
      "outputs": [
        {
          "internalType": "uint256",
          "name": "",
          "type": "uint256"
        }
      ],
      "stateMutability": "view",
      "type": "function"
    },
    {
      "inputs": [],
      "name": "certifierContract",
      "outputs": [
        {
          "internalType": "contract ICertifier",
          "name": "",
          "type": "address"
        }
      ],
      "stateMutability": "view",
      "type": "function"
    },
    {
      "inputs": [],
      "name": "connectivityTracker",
      "outputs": [
        {
          "internalType": "contract IConnectivityTrackerHbbft",
          "name": "",
          "type": "address"
        }
      ],
      "stateMutability": "view",
      "type": "function"
    },
    {
      "inputs": [],
      "name": "contractName",
      "outputs": [
        {
          "internalType": "string",
          "name": "",
          "type": "string"
        }
      ],
      "stateMutability": "pure",
      "type": "function"
    },
    {
      "inputs": [],
      "name": "contractNameHash",
      "outputs": [
        {
          "internalType": "bytes32",
          "name": "",
          "type": "bytes32"
        }
      ],
      "stateMutability": "pure",
      "type": "function"
    },
    {
      "inputs": [],
      "name": "contractVersion",
      "outputs": [
        {
          "internalType": "uint256",
          "name": "",
          "type": "uint256"
        }
      ],
      "stateMutability": "pure",
      "type": "function"
    },
    {
      "inputs": [
        {
          "internalType": "string",
          "name": "_selector",
          "type": "string"
        }
      ],
      "name": "getAllowedParamsRange",
      "outputs": [
        {
          "components": [
            {
              "internalType": "bytes4",
              "name": "getter",
              "type": "bytes4"
            },
            {
              "internalType": "uint256[]",
              "name": "range",
              "type": "uint256[]"
            }
          ],
          "internalType": "struct ValueGuards.ParameterRange",
          "name": "",
          "type": "tuple"
        }
      ],
      "stateMutability": "view",
      "type": "function"
    },
    {
      "inputs": [
        {
          "internalType": "bytes4",
          "name": "_selector",
          "type": "bytes4"
        }
      ],
      "name": "getAllowedParamsRangeWithSelector",
      "outputs": [
        {
          "components": [
            {
              "internalType": "bytes4",
              "name": "getter",
              "type": "bytes4"
            },
            {
              "internalType": "uint256[]",
              "name": "range",
              "type": "uint256[]"
            }
          ],
          "internalType": "struct ValueGuards.ParameterRange",
          "name": "",
          "type": "tuple"
        }
      ],
      "stateMutability": "view",
      "type": "function"
    },
    {
      "inputs": [
        {
          "internalType": "string",
          "name": "setter",
          "type": "string"
        },
        {
          "internalType": "string",
          "name": "getter",
          "type": "string"
        },
        {
          "internalType": "uint256[]",
          "name": "params",
          "type": "uint256[]"
        }
      ],
      "name": "initAllowedChangeableParameter",
      "outputs": [],
      "stateMutability": "nonpayable",
      "type": "function"
    },
    {
      "inputs": [
        {
          "internalType": "address[]",
          "name": "_allowed",
          "type": "address[]"
        },
        {
          "internalType": "address",
          "name": "_certifier",
          "type": "address"
        },
        {
          "internalType": "address",
          "name": "_validatorSet",
          "type": "address"
        },
        {
          "internalType": "address",
          "name": "_keyGenHistoryContract",
          "type": "address"
        },
        {
          "internalType": "address",
          "name": "_connectivityTracker",
          "type": "address"
        },
        {
          "internalType": "address",
          "name": "_contractOwner",
          "type": "address"
        }
      ],
      "name": "initialize",
      "outputs": [],
      "stateMutability": "nonpayable",
      "type": "function"
    },
    {
      "inputs": [
        {
          "internalType": "address",
          "name": "",
          "type": "address"
        }
      ],
      "name": "isSenderAllowed",
      "outputs": [
        {
          "internalType": "bool",
          "name": "",
          "type": "bool"
        }
      ],
      "stateMutability": "view",
      "type": "function"
    },
    {
      "inputs": [
        {
          "internalType": "bytes4",
          "name": "funcSelector",
          "type": "bytes4"
        },
        {
          "internalType": "uint256",
          "name": "newVal",
          "type": "uint256"
        }
      ],
      "name": "isWithinAllowedRange",
      "outputs": [
        {
          "internalType": "bool",
          "name": "",
          "type": "bool"
        }
      ],
      "stateMutability": "view",
      "type": "function"
    },
    {
      "inputs": [],
      "name": "keyGenHistoryContract",
      "outputs": [
        {
          "internalType": "contract IKeyGenHistory",
          "name": "",
          "type": "address"
        }
      ],
      "stateMutability": "view",
      "type": "function"
    },
    {
      "inputs": [],
      "name": "minimumGasPrice",
      "outputs": [
        {
          "internalType": "uint256",
          "name": "",
          "type": "uint256"
        }
      ],
      "stateMutability": "view",
      "type": "function"
    },
    {
      "inputs": [],
      "name": "owner",
      "outputs": [
        {
          "internalType": "address",
          "name": "",
          "type": "address"
        }
      ],
      "stateMutability": "view",
      "type": "function"
    },
    {
      "inputs": [
        {
          "internalType": "string",
          "name": "funcSelector",
          "type": "string"
        }
      ],
      "name": "removeAllowedChangeableParameter",
      "outputs": [],
      "stateMutability": "nonpayable",
      "type": "function"
    },
    {
      "inputs": [
        {
          "internalType": "address",
          "name": "_sender",
          "type": "address"
        }
      ],
      "name": "removeAllowedSender",
      "outputs": [],
      "stateMutability": "nonpayable",
      "type": "function"
    },
    {
      "inputs": [],
      "name": "renounceOwnership",
      "outputs": [],
      "stateMutability": "nonpayable",
      "type": "function"
    },
    {
      "inputs": [
        {
          "internalType": "string",
          "name": "setter",
          "type": "string"
        },
        {
          "internalType": "string",
          "name": "getter",
          "type": "string"
        },
        {
          "internalType": "uint256[]",
          "name": "params",
          "type": "uint256[]"
        }
      ],
      "name": "setAllowedChangeableParameter",
      "outputs": [],
      "stateMutability": "nonpayable",
      "type": "function"
    },
    {
      "inputs": [
        {
          "internalType": "uint256",
          "name": "_value",
          "type": "uint256"
        }
      ],
      "name": "setBlockGasLimit",
      "outputs": [],
      "stateMutability": "nonpayable",
      "type": "function"
    },
    {
      "inputs": [
        {
          "internalType": "address",
          "name": "_connectivityTracker",
          "type": "address"
        }
      ],
      "name": "setConnectivityTracker",
      "outputs": [],
      "stateMutability": "nonpayable",
      "type": "function"
    },
    {
      "inputs": [
        {
          "internalType": "uint256",
          "name": "_value",
          "type": "uint256"
        }
      ],
      "name": "setMinimumGasPrice",
      "outputs": [],
      "stateMutability": "nonpayable",
      "type": "function"
    },
    {
      "inputs": [
        {
          "internalType": "address",
          "name": "newOwner",
          "type": "address"
        }
      ],
      "name": "transferOwnership",
      "outputs": [],
      "stateMutability": "nonpayable",
      "type": "function"
    },
    {
      "inputs": [],
      "name": "validatorSetContract",
      "outputs": [
        {
          "internalType": "contract IValidatorSetHbbft",
          "name": "",
          "type": "address"
        }
      ],
      "stateMutability": "view",
      "type": "function"
    }
  ],
  "bytecode": "0x6080604052348015600f57600080fd5b506016601a565b60ca565b7ff0c57e16840df040f15088dc2f81fe391c3923bec73e23a9662efc9c229c6a00805468010000000000000000900460ff161560695760405163f92ee8a960e01b815260040160405180910390fd5b80546001600160401b039081161460c75780546001600160401b0319166001600160401b0390811782556040519081527fc7f505b2f371ae2175ee4913f4499e1f2633a7b5936321eed1cdaeb6115181d29060200160405180910390a15b50565b612c91806100d96000396000f3fe608060405234801561001057600080fd5b50600436106102265760003560e01c8063922836341161012a578063bf348f86116100bd578063d3ae79651161008c578063dfc8bf4e11610071578063dfc8bf4e146104fe578063efc7840114610511578063f2fde38b1461053457600080fd5b8063d3ae7965146104e7578063df3cecf6146104f557600080fd5b8063bf348f861461049b578063c374bc23146104ae578063c746c8f4146104c1578063d249b31c146104d457600080fd5b8063b47aef1f116100f9578063b47aef1f14610416578063b710c15d14610429578063b9056afa14610449578063ba08d2371461047857600080fd5b806392283634146103c65780639b9fb6d0146103e9578063a0a8e460146103fc578063a69257f31461040357600080fd5b80635f0664bf116101bd57806375d0c0dc1161018c5780637877a797116101715780637877a7971461037a57806378ff69d5146103835780638da5cb5b1461039657600080fd5b806375d0c0dc1461032d578063782f01771461036c57600080fd5b80635f0664bf146102f657806366955469146103045780637086bcc114610317578063715018a61461032557600080fd5b806336e98ca8116101f957806336e98ca8146102a5578063469ab1e3146102ba578063471eab5c146102d05780635cb092a2146102e357600080fd5b80631a9ebeaa1461022b57806324bdf37b1461025b578063305d526c146102825780633272b28c14610290575b600080fd5b60025461023e906001600160a01b031681565b6040516001600160a01b0390911681526020015b60405180910390f35b61026963a42bdee960e01b81565b6040516001600160e01b03199091168152602001610252565b610269632b11904760e11b81565b610298610547565b60405161025291906124a5565b6102b86102b33660046125b8565b6105a9565b005b6102c261065d565b604051908152602001610252565b6102b86102de3660046126ca565b6106c4565b6102b86102f13660046125b8565b61082e565b6102696343bcce9f60e01b81565b60085461023e906001600160a01b031681565b6102696324473b9d60e21b81565b6102b8610836565b604080518082018252601681527f54585f5045524d495353494f4e5f434f4e545241435400000000000000000000602082015290516102529190612737565b610269630b53784960e21b81565b6102c260075481565b6102b86103913660046126ca565b61084a565b7f9016d09d72d40fdae2fd8ceac6b6234c7706214fd39c1cd1e609a0528c199300546001600160a01b031661023e565b6102696103d4366004612762565b60006020819052908152604090205460e01b81565b6102b86103f736600461277d565b6108ce565b60036102c2565b6102b86104113660046127ba565b610942565b60035461023e906001600160a01b031681565b61043c61043736600461277d565b6109be565b604051610252919061280f565b61045c61045736600461283d565b610a66565b6040805163ffffffff9093168352901515602083015201610252565b61048b6104863660046128c7565b6114a5565b6040519015158152602001610252565b61043c6104a9366004612762565b611676565b6102b86104bc3660046128f1565b611713565b6102b86104cf3660046126ca565b611d78565b6102b86104e23660046127ba565b611d8c565b61026963b2a6842160e01b81565b6102c260065481565b60055461023e906001600160a01b031681565b61048b61051f3660046126ca565b60046020526000908152604090205460ff1681565b6102b86105423660046126ca565b611e00565b6060600180548060200260200160405190810160405280929190818152602001828054801561059f57602002820191906000526020600020905b81546001600160a01b03168152600190910190602001808311610581575b5050505050905090565b6105b1611e3b565b60408051808201825283516020808601919091206001600160e01b031990811683528183018581528751888401209091166000908152808352939093208251815463ffffffff191660e09190911c17815592518051929392610619926001850192019061242b565b509050507f3d45a310c5a076ea07aa2947ca3c06cc2a8b3571065867ad6f8e7096a2c9d50a838383604051610650939291906129b8565b60405180910390a1505050565b600061069960408051808201909152601681527f54585f5045524d495353494f4e5f434f4e545241435400000000000000000000602082015290565b6040516020016106a991906129f1565b60405160208183030381529060405280519060200120905090565b6106cc611e3b565b6001600160a01b03811660009081526004602052604090205460ff166107155760405163d64efe6360e01b81526001600160a01b03821660048201526024015b60405180910390fd5b60015460005b8181101561080b576001818154811061073657610736612a0d565b6000918252602090912001546001600160a01b03908116908416036108035760016107618184612a39565b8154811061077157610771612a0d565b600091825260209091200154600180546001600160a01b03909216918390811061079d5761079d612a0d565b9060005260206000200160006101000a8154816001600160a01b0302191690836001600160a01b0316021790555060018054806107dc576107dc612a4c565b600082815260209020810160001990810180546001600160a01b031916905501905561080b565b60010161071b565b50506001600160a01b03166000908152600460205260409020805460ff19169055565b6105b1611e96565b61083e611e3b565b6108486000611ee4565b565b610852611e3b565b6001600160a01b0381166108795760405163d92e233d60e01b815260040160405180910390fd5b600880546001600160a01b0319166001600160a01b0383169081179091556040519081527f387d29e18823e432432b6098ebeee33beebdb128d2234c7f486c26447b738edd906020015b60405180910390a150565b6108d6611e3b565b80516020808301919091206001600160e01b03191660009081529081905260408120805463ffffffff19168155906109116001830182612476565b50507f92d44565a40fe29702ffa146ddaa3bb133d4077f5312d682d0a2632a9bc73a8a816040516108c39190612737565b61094a611e3b565b806109616000356001600160e01b031916826114a5565b610981576040516373330d9b60e01b81526004810182905260240161070c565b60078290556040518281527fda69de0cab556da57726688a057caf911b2e8f850c45b6edf359bacf3db378e8906020015b60405180910390a15050565b60408051808201909152600081526060602082015281516020808401919091206001600160e01b0319908116600090815280835260409081902081518083018352815460e01b9093168352600181018054835181870281018701909452808452939491938583019392830182828015610a5657602002820191906000526020600020905b815481526020019060010190808311610a42575b5050505050815250509050919050565b6001600160a01b038516600090815260046020526040812054819060ff1615610a98575063ffffffff9050600061149b565b6000805b6004855110158015610aae5750600481105b15610b1057610abe816008612a62565b858281518110610ad057610ad0612a0d565b01602001517fff0000000000000000000000000000000000000000000000000000000000000016901c919091179080610b0881612a79565b915050610a9c565b506005546001600160a01b0390811690881603610df75763bc43316160e01b6001600160e01b0319821601610bc757600554604051630f51726f60e41b81526001600160a01b038a811660048301529091169063f51726f090602401602060405180830381865afa158015610b89573d6000803e3d6000fd5b505050506040513d601f19601f82011682018060405250810190610bad9190612a92565b610bb8576000610bbb565b60025b6000925092505061149b565b635bd4211760e01b6001600160e01b0319821601610d6b576005546040516307b9342f60e21b81526001600160a01b038a811660048301526000921690631ee4d0bc90602401602060405180830381865afa158015610c2a573d6000803e3d6000fd5b505050506040513d601f19601f82011682018060405250810190610c4e9190612ab4565b90506001600160a01b03811615610d5d57600560009054906101000a90046001600160a01b03166001600160a01b0316638e68dce46040518163ffffffff1660e01b8152600401602060405180830381865afa158015610cb2573d6000803e3d6000fd5b505050506040513d601f19601f82011682018060405250810190610cd69190612ab4565b60405163a711e6a160e01b81526001600160a01b038381166004830152919091169063a711e6a190602401602060405180830381865afa158015610d1e573d6000803e3d6000fd5b505050506040513d601f19601f82011682018060405250810190610d429190612a92565b610d4d576000610d50565b60025b600093509350505061149b565b60008093509350505061149b565b8415610df75760055460405163facd743b60e01b81526001600160a01b038a811660048301529091169063facd743b90602401602060405180830381865afa158015610dbb573d6000803e3d6000fd5b505050506040513d601f19601f82011682018060405250810190610ddf9190612a92565b610dea576002610bbb565b600080925092505061149b565b6003546001600160a01b039081169088160361127e576334ac87b760e21b6001600160e01b0319821601610fc85760055460405163014e28d960e41b81526001600160a01b038a8116600483015260019216906314e28d9090602401602060405180830381865afa158015610e70573d6000803e3d6000fd5b505050506040513d601f19601f82011682018060405250810190610e949190612ae7565b6005811115610ea557610ea5612ad1565b03610dea57602484511015610ec157600080925092505061149b565b6000610ece600486611f55565b9050600560009054906101000a90046001600160a01b03166001600160a01b0316638e68dce46040518163ffffffff1660e01b8152600401602060405180830381865afa158015610f23573d6000803e3d6000fd5b505050506040513d601f19601f82011682018060405250810190610f479190612ab4565b6001600160a01b031663794c0c686040518163ffffffff1660e01b8152600401602060405180830381865afa158015610f84573d6000803e3d6000fd5b505050506040513d601f19601f82011682018060405250810190610fa89190612b08565b610fb3906001612b21565b8103610d5d576002600093509350505061149b565b6354ee6fb960e11b6001600160e01b031982160161127e5760055460405163014e28d960e41b81526001600160a01b038a8116600483015260039216906314e28d9090602401602060405180830381865afa15801561102b573d6000803e3d6000fd5b505050506040513d601f19601f8201168201806040525081019061104f9190612ae7565b600581111561106057611060612ad1565b03610dea5760248451101561107c57600080925092505061149b565b600560009054906101000a90046001600160a01b03166001600160a01b0316638e68dce46040518163ffffffff1660e01b8152600401602060405180830381865afa1580156110cf573d6000803e3d6000fd5b505050506040513d601f19601f820116820180604052508101906110f39190612ab4565b6001600160a01b031663794c0c686040518163ffffffff1660e01b8152600401602060405180830381865afa158015611130573d6000803e3d6000fd5b505050506040513d601f19601f820116820180604052508101906111549190612b08565b61115f906001612b21565b61116a600486611f55565b0361117d5760026000925092505061149b565b600560009054906101000a90046001600160a01b03166001600160a01b0316638e68dce46040518163ffffffff1660e01b8152600401602060405180830381865afa1580156111d0573d6000803e3d6000fd5b505050506040513d601f19601f820116820180604052508101906111f49190612ab4565b6001600160a01b031663794c0c686040518163ffffffff1660e01b8152600401602060405180830381865afa158015611231573d6000803e3d6000fd5b505050506040513d601f19601f820116820180604052508101906112559190612b08565b611260906001612b21565b61126b602486611f55565b03610dea5760026000925092505061149b565b6008546001600160a01b03908116908816036112c45760006112a1898387611fcd565b90508060200151156112c2578060000151816040015193509350505061149b565b505b60055460405163facd743b60e01b81526001600160a01b038a811660048301529091169063facd743b90602401602060405180830381865afa15801561130e573d6000803e3d6000fd5b505050506040513d601f19601f820116820180604052508101906113329190612a92565b801561133e5750600085115b1561136a576000886001600160a01b0316311161135c576000610bbb565b60016000925092505061149b565b60055460405163facd743b60e01b81526001600160a01b0389811660048301529091169063facd743b90602401602060405180830381865afa1580156113b4573d6000803e3d6000fd5b505050506040513d601f19601f820116820180604052508101906113d89190612a92565b156113ea57600080925092505061149b565b8460000361147c576002546040516303a388eb60e61b81526001600160a01b038a811660048301529091169063e8e23ac090602401602060405180830381865afa15801561143c573d6000803e3d6000fd5b505050506040513d601f19601f820116820180604052508101906114609190612a92565b61146b576000610bbb565b63ffffffff6000925092505061149b565b60065485101561148d576000611493565b63ffffffff5b600092509250505b9550959350505050565b6001600160e01b031980831660009081526020818152604080832081518083018352815460e01b90951685526001810180548351818602810186019094528084529495869590949293858401939092919083018282801561152557602002820191906000526020600020905b815481526020019060010190808311611511575b5050505050815250509050806020015151600003611547576000915050611670565b6020810151815160009061155a9061219e565b905060005b8251811015611667578183828151811061157b5761157b612a0d565b60200260200101510361165f5760008082116115b157836000815181106115a4576115a4612a0d565b60200260200101516115d6565b836115bd600184612a39565b815181106115cd576115cd612a0d565b60200260200101515b90506000600185516115e89190612a39565b831061161a5784600186516115fd9190612a39565b8151811061160d5761160d612a0d565b602002602001015161163f565b84611626846001612b21565b8151811061163657611636612a0d565b60200260200101515b90508188141580156116515750808814155b159650505050505050611670565b60010161155f565b50600093505050505b92915050565b6040805180820190915260008152606060208201526001600160e01b03198083166000908152602081815260409182902082518084018452815460e01b9094168452600181018054845181850281018501909552808552919385840193909290830182828015610a565760200282019190600052602060002090815481526020019060010190808311610a42575050505050815250509050919050565b7ff0c57e16840df040f15088dc2f81fe391c3923bec73e23a9662efc9c229c6a00805468010000000000000000810460ff16159067ffffffffffffffff1660008115801561175e5750825b905060008267ffffffffffffffff16600114801561177b5750303b155b905081158015611789575080155b156117a75760405163f92ee8a960e01b815260040160405180910390fd5b845467ffffffffffffffff1916600117855583156117db57845468ff00000000000000001916680100000000000000001785555b6001600160a01b03861615806117f857506001600160a01b038a16155b8061180a57506001600160a01b038916155b8061181c57506001600160a01b038816155b8061182e57506001600160a01b038716155b1561184c5760405163d92e233d60e01b815260040160405180910390fd5b61185586612275565b60005b8b8110156118975761188f8d8d8381811061187557611875612a0d565b905060200201602081019061188a91906126ca565b612286565b600101611858565b50600280546001600160a01b038c81166001600160a01b031992831617909255600580548c8416908316179055600380548b841690831617905560088054928a1692909116919091179055633b9aca006006556305f5e10060075560408051600b808252610180820190925260009160208201610160803683370190505090506305f5e1008160008151811061192f5761192f612a0d565b602002602001018181525050630bebc2008160018151811061195357611953612a0d565b6020026020010181815250506317d784008160028151811061197757611977612a0d565b6020026020010181815250506323c346008160038151811061199b5761199b612a0d565b602002602001018181525050632faf0800816004815181106119bf576119bf612a0d565b602002602001018181525050633b9aca00816005815181106119e3576119e3612a0d565b602002602001018181525050637735940081600681518110611a0757611a07612a0d565b60200260200101818152505063ee6b280081600781518110611a2b57611a2b612a0d565b602002602001018181525050640165a0bc0081600881518110611a5057611a50612a0d565b6020026020010181815250506401dcd6500081600981518110611a7557611a75612a0d565b6020026020010181815250506402540be40081600a81518110611a9a57611a9a612a0d565b602002602001018181525050611b1b6040518060400160405280601b81526020017f7365744d696e696d756d47617350726963652875696e743235362900000000008152506040518060400160405280601181526020017f6d696e696d756d476173507269636528290000000000000000000000000000008152508361082e565b60408051600a808252610160820190925260009160208201610140803683370190505090506305f5e10081600081518110611b5857611b58612a0d565b602002602001018181525050630bebc20081600181518110611b7c57611b7c612a0d565b6020026020010181815250506311e1a30081600281518110611ba057611ba0612a0d565b6020026020010181815250506317d7840081600381518110611bc457611bc4612a0d565b602002602001018181525050631dcd650081600481518110611be857611be8612a0d565b6020026020010181815250506323c3460081600581518110611c0c57611c0c612a0d565b6020026020010181815250506329b9270081600681518110611c3057611c30612a0d565b602002602001018181525050632faf080081600781518110611c5457611c54612a0d565b6020026020010181815250506335a4e90081600881518110611c7857611c78612a0d565b602002602001018181525050633b9aca0081600981518110611c9c57611c9c612a0d565b602002602001018181525050611d1d6040518060400160405280601981526020017f736574426c6f636b4761734c696d69742875696e7432353629000000000000008152506040518060400160405280600f81526020017f626c6f636b4761734c696d6974282900000000000000000000000000000000008152508361082e565b50508315611d6a57845468ff000000000000000019168555604051600181527fc7f505b2f371ae2175ee4913f4499e1f2633a7b5936321eed1cdaeb6115181d29060200160405180910390a15b505050505050505050505050565b611d80611e3b565b611d8981612286565b50565b611d94611e3b565b80611dab6000356001600160e01b031916826114a5565b611dcb576040516373330d9b60e01b81526004810182905260240161070c565b60068290556040518281527f52264b89e0fceafb26e79fd49ef8a366eb6297483bf4035b027f0c99a7ad512e906020016109b2565b611e08611e3b565b6001600160a01b038116611e3257604051631e4fbdf760e01b81526000600482015260240161070c565b611d8981611ee4565b33611e6d7f9016d09d72d40fdae2fd8ceac6b6234c7706214fd39c1cd1e609a0528c199300546001600160a01b031690565b6001600160a01b0316146108485760405163118cdaa760e01b815233600482015260240161070c565b7ff0c57e16840df040f15088dc2f81fe391c3923bec73e23a9662efc9c229c6a005468010000000000000000900460ff1661084857604051631afcd79f60e31b815260040160405180910390fd5b7f9016d09d72d40fdae2fd8ceac6b6234c7706214fd39c1cd1e609a0528c19930080546001600160a01b031981166001600160a01b03848116918217845560405192169182907f8be0079c531659141344cd1fd0a4f28419497f9722a3daafe3b4186f6b6457e090600090a3505050565b600080805b6020811015611fc557611f6e81601f612a39565b611f79906008612a62565b611f84906002612c18565b84611f8f8388612b21565b81518110611f9f57611f9f612a0d565b0160200151611fb1919060f81c612a62565b611fbb9083612b21565b9150600101611f5a565b509392505050565b60408051606081018252600080825260208201819052918101919091526000606060048451611ffc9190612a39565b11612014576004835161200f9190612a39565b612017565b60605b9050600061202784836004612356565b6040805160608101825260008082526001602083015291810191909152909150631bb8c46360e21b6001600160e01b0319871601612109576000806000848060200190518101906120789190612c24565b60085460405163060b284960e01b81526001600160a01b038f8116600483015280861660248301526044820185905260648201849052949750929550909350919091169063060b2849906084015b60006040518083038186803b1580156120de57600080fd5b505afa9250505080156120ef575060015b6120fc5760008452612101565b600284525b505050612194565b634d597bdf60e01b6001600160e01b031987160161218c5760008060008480602001905181019061213a9190612c24565b600854604051632fb625a360e21b81526001600160a01b038f8116600483015280861660248301526044820185905260648201849052949750929550909350919091169063bed8968c906084016120c6565b600060208201525b9695505050505050565b60408051600481526024810182526020810180517bffffffffffffffffffffffffffffffffffffffffffffffffffffffff166001600160e01b031985161790529051600091908290819030906121f59085906129f1565b600060405180830381855afa9150503d8060008114612230576040519150601f19603f3d011682016040523d82523d6000602084013e612235565b606091505b50915091508161225857604051635fbab09b60e11b815260040160405180910390fd5b8080602001905181019061226c9190612b08565b95945050505050565b61227d611e96565b611d8981612423565b6001600160a01b0381166122ad5760405163d92e233d60e01b815260040160405180910390fd5b6001600160a01b03811660009081526004602052604090205460ff16156122f2576040516303e49a0960e51b81526001600160a01b038216600482015260240161070c565b6001805480820182557fb10e2d527612073b26eecdfd717e6a320cf44b4afac2b0732d9fcbe2b7fa0cf60180546001600160a01b039093166001600160a01b031990931683179055600091825260046020526040909120805460ff19169091179055565b606060008367ffffffffffffffff811115612373576123736124f2565b6040519080825280601f01601f19166020018201604052801561239d576020820181803683370190505b50905060005b8481101561241a57856123b68583612b21565b815181106123c6576123c6612a0d565b602001015160f81c60f81b8282815181106123e3576123e3612a0d565b60200101907effffffffffffffffffffffffffffffffffffffffffffffffffffffffffffff1916908160001a9053506001016123a3565b50949350505050565b611e08611e96565b828054828255906000526020600020908101928215612466579160200282015b8281111561246657825182559160200191906001019061244b565b50612472929150612490565b5090565b5080546000825590600052602060002090810190611d8991905b5b808211156124725760008155600101612491565b6020808252825182820181905260009190848201906040850190845b818110156124e65783516001600160a01b0316835292840192918401916001016124c1565b50909695505050505050565b634e487b7160e01b600052604160045260246000fd5b604051601f8201601f1916810167ffffffffffffffff81118282101715612531576125316124f2565b604052919050565b600067ffffffffffffffff831115612553576125536124f2565b612566601f8401601f1916602001612508565b905082815283838301111561257a57600080fd5b828260208301376000602084830101529392505050565b600082601f8301126125a257600080fd5b6125b183833560208501612539565b9392505050565b6000806000606084860312156125cd57600080fd5b833567ffffffffffffffff808211156125e557600080fd5b6125f187838801612591565b945060209150818601358181111561260857600080fd5b61261488828901612591565b94505060408601358181111561262957600080fd5b8601601f8101881361263a57600080fd5b80358281111561264c5761264c6124f2565b8060051b925061265d848401612508565b818152928201840192848101908a85111561267757600080fd5b928501925b848410156126955783358252928501929085019061267c565b8096505050505050509250925092565b6001600160a01b0381168114611d8957600080fd5b80356126c5816126a5565b919050565b6000602082840312156126dc57600080fd5b81356125b1816126a5565b60005b838110156127025781810151838201526020016126ea565b50506000910152565b600081518084526127238160208601602086016126e7565b601f01601f19169290920160200192915050565b6020815260006125b1602083018461270b565b80356001600160e01b0319811681146126c557600080fd5b60006020828403121561277457600080fd5b6125b18261274a565b60006020828403121561278f57600080fd5b813567ffffffffffffffff8111156127a657600080fd5b6127b284828501612591565b949350505050565b6000602082840312156127cc57600080fd5b5035919050565b60008151808452602080850194506020840160005b83811015612804578151875295820195908201906001016127e8565b509495945050505050565b602080825282516001600160e01b031916828201528201516040808301526000906127b260608401826127d3565b600080600080600060a0868803121561285557600080fd5b8535612860816126a5565b94506020860135612870816126a5565b93506040860135925060608601359150608086013567ffffffffffffffff81111561289a57600080fd5b8601601f810188136128ab57600080fd5b6128ba88823560208401612539565b9150509295509295909350565b600080604083850312156128da57600080fd5b6128e38361274a565b946020939093013593505050565b600080600080600080600060c0888a03121561290c57600080fd5b873567ffffffffffffffff8082111561292457600080fd5b818a0191508a601f83011261293857600080fd5b81358181111561294757600080fd5b8b60208260051b850101111561295c57600080fd5b602092830199509750612972918a0190506126ba565b9450612980604089016126ba565b935061298e606089016126ba565b925061299c608089016126ba565b91506129aa60a089016126ba565b905092959891949750929550565b6060815260006129cb606083018661270b565b82810360208401526129dd818661270b565b9050828103604084015261219481856127d3565b60008251612a038184602087016126e7565b9190910192915050565b634e487b7160e01b600052603260045260246000fd5b634e487b7160e01b600052601160045260246000fd5b8181038181111561167057611670612a23565b634e487b7160e01b600052603160045260246000fd5b808202811582820484141761167057611670612a23565b600060018201612a8b57612a8b612a23565b5060010190565b600060208284031215612aa457600080fd5b815180151581146125b157600080fd5b600060208284031215612ac657600080fd5b81516125b1816126a5565b634e487b7160e01b600052602160045260246000fd5b600060208284031215612af957600080fd5b8151600681106125b157600080fd5b600060208284031215612b1a57600080fd5b5051919050565b8082018082111561167057611670612a23565b600181815b80851115612b6f578160001904821115612b5557612b55612a23565b80851615612b6257918102915b93841c9390800290612b39565b509250929050565b600082612b8657506001611670565b81612b9357506000611670565b8160018114612ba95760028114612bb357612bcf565b6001915050611670565b60ff841115612bc457612bc4612a23565b50506001821b611670565b5060208310610133831016604e8410600b8410161715612bf2575081810a611670565b612bfc8383612b34565b8060001904821115612c1057612c10612a23565b029392505050565b60006125b18383612b77565b600080600060608486031215612c3957600080fd5b8351612c44816126a5565b60208501516040909501519096949550939250505056fea264697066735822122062a71e9218d2bdf40d90109a6da07f15966650de0710a78da8b8f78d9ea8d99a64736f6c63430008190033",
  "linkReferences": {},
  "deployedLinkReferences": {}
}