{
  "_format": "hh-sol-artifact-1",
  "contractName": "TxPermissionHbbftMock",
  "sourceName": "contracts/mockContracts/TxPermissionHbbftMock.sol",
  "abi": [
    {
      "inputs": [
        {
          "internalType": "address",
          "name": "_value",
          "type": "address"
        }
      ],
      "name": "AlreadyExist",
      "type": "error"
    },
    {
      "inputs": [],
      "name": "GetterCallFailed",
      "type": "error"
    },
    {
      "inputs": [],
      "name": "InvalidBlockGasLimit",
      "type": "error"
    },
    {
      "inputs": [],
      "name": "InvalidInitialization",
      "type": "error"
    },
    {
      "inputs": [],
      "name": "InvalidMinGasPrice",
      "type": "error"
    },
    {
      "inputs": [
        {
          "internalType": "uint256",
          "name": "_newVal",
          "type": "uint256"
        }
      ],
      "name": "NewValueOutOfRange",
      "type": "error"
    },
    {
      "inputs": [
        {
          "internalType": "address",
          "name": "_value",
          "type": "address"
        }
      ],
      "name": "NotExist",
      "type": "error"
    },
    {
      "inputs": [],
      "name": "NotInitializing",
      "type": "error"
    },
    {
      "inputs": [
        {
          "internalType": "address",
          "name": "owner",
          "type": "address"
        }
      ],
      "name": "OwnableInvalidOwner",
      "type": "error"
    },
    {
      "inputs": [
        {
          "internalType": "address",
          "name": "account",
          "type": "address"
        }
      ],
      "name": "OwnableUnauthorizedAccount",
      "type": "error"
    },
    {
      "inputs": [],
      "name": "SenderNotAllowed",
      "type": "error"
    },
    {
      "inputs": [],
      "name": "ZeroAddress",
      "type": "error"
    },
    {
      "anonymous": false,
      "inputs": [
        {
          "indexed": false,
          "internalType": "uint256",
          "name": "_value",
          "type": "uint256"
        }
      ],
      "name": "BlockGasLimitChanged",
      "type": "event"
    },
    {
      "anonymous": false,
      "inputs": [
        {
          "indexed": false,
          "internalType": "uint256",
          "name": "_value",
          "type": "uint256"
        }
      ],
      "name": "GasPriceChanged",
      "type": "event"
    },
    {
      "anonymous": false,
      "inputs": [
        {
          "indexed": false,
          "internalType": "uint64",
          "name": "version",
          "type": "uint64"
        }
      ],
      "name": "Initialized",
      "type": "event"
    },
    {
      "anonymous": false,
      "inputs": [
        {
          "indexed": true,
          "internalType": "address",
          "name": "previousOwner",
          "type": "address"
        },
        {
          "indexed": true,
          "internalType": "address",
          "name": "newOwner",
          "type": "address"
        }
      ],
      "name": "OwnershipTransferred",
      "type": "event"
    },
    {
      "anonymous": false,
      "inputs": [
        {
          "indexed": false,
          "internalType": "string",
          "name": "funcSelector",
          "type": "string"
        }
      ],
      "name": "RemoveChangeAbleParameter",
      "type": "event"
    },
    {
      "anonymous": false,
      "inputs": [
        {
          "indexed": false,
          "internalType": "uint256",
          "name": "_blockGasLimit",
          "type": "uint256"
        }
      ],
      "name": "SetBlockGasLimit",
      "type": "event"
    },
    {
      "anonymous": false,
      "inputs": [
        {
          "indexed": false,
          "internalType": "string",
          "name": "setter",
          "type": "string"
        },
        {
          "indexed": false,
          "internalType": "string",
          "name": "getter",
          "type": "string"
        },
        {
          "indexed": false,
          "internalType": "uint256[]",
          "name": "params",
          "type": "uint256[]"
        }
      ],
      "name": "SetChangeAbleParameter",
      "type": "event"
    },
    {
      "anonymous": false,
      "inputs": [
        {
          "indexed": false,
          "internalType": "address",
          "name": "_value",
          "type": "address"
        }
      ],
      "name": "SetConnectivityTracker",
      "type": "event"
    },
    {
      "anonymous": false,
      "inputs": [
        {
          "indexed": false,
          "internalType": "uint256",
          "name": "_minGasPrice",
          "type": "uint256"
        }
      ],
      "name": "SetMinimumGasPrice",
      "type": "event"
    },
    {
      "inputs": [],
      "name": "ANNOUNCE_AVAILABILITY_SIGNATURE",
      "outputs": [
        {
          "internalType": "bytes4",
          "name": "",
          "type": "bytes4"
        }
      ],
      "stateMutability": "view",
      "type": "function"
    },
    {
      "inputs": [],
      "name": "REPORT_MALICIOUS_SIGNATURE",
      "outputs": [
        {
          "internalType": "bytes4",
          "name": "",
          "type": "bytes4"
        }
      ],
      "stateMutability": "view",
      "type": "function"
    },
    {
      "inputs": [],
      "name": "REPORT_MISSING_CONNECTIVITY_SELECTOR",
      "outputs": [
        {
          "internalType": "bytes4",
          "name": "",
          "type": "bytes4"
        }
      ],
      "stateMutability": "view",
      "type": "function"
    },
    {
      "inputs": [],
      "name": "REPORT_RECONNECT_SELECTOR",
      "outputs": [
        {
          "internalType": "bytes4",
          "name": "",
          "type": "bytes4"
        }
      ],
      "stateMutability": "view",
      "type": "function"
    },
    {
      "inputs": [],
      "name": "SET_VALIDATOR_IP",
      "outputs": [
        {
          "internalType": "bytes4",
          "name": "",
          "type": "bytes4"
        }
      ],
      "stateMutability": "view",
      "type": "function"
    },
    {
      "inputs": [],
      "name": "WRITE_ACKS_SIGNATURE",
      "outputs": [
        {
          "internalType": "bytes4",
          "name": "",
          "type": "bytes4"
        }
      ],
      "stateMutability": "view",
      "type": "function"
    },
    {
      "inputs": [],
      "name": "WRITE_PART_SIGNATURE",
      "outputs": [
        {
          "internalType": "bytes4",
          "name": "",
          "type": "bytes4"
        }
      ],
      "stateMutability": "view",
      "type": "function"
    },
    {
      "inputs": [
        {
          "internalType": "address",
          "name": "_sender",
          "type": "address"
        }
      ],
      "name": "addAllowedSender",
      "outputs": [],
      "stateMutability": "nonpayable",
      "type": "function"
    },
    {
      "inputs": [
        {
          "internalType": "bytes4",
          "name": "",
          "type": "bytes4"
        }
      ],
      "name": "allowedParameterRange",
      "outputs": [
        {
          "internalType": "bytes4",
          "name": "getter",
          "type": "bytes4"
        }
      ],
      "stateMutability": "view",
      "type": "function"
    },
    {
      "inputs": [],
      "name": "allowedSenders",
      "outputs": [
        {
          "internalType": "address[]",
          "name": "",
          "type": "address[]"
        }
      ],
      "stateMutability": "view",
      "type": "function"
    },
    {
      "inputs": [
        {
          "internalType": "address",
          "name": "_sender",
          "type": "address"
        },
        {
          "internalType": "address",
          "name": "_to",
          "type": "address"
        },
        {
          "internalType": "uint256",
          "name": "",
          "type": "uint256"
        },
        {
          "internalType": "uint256",
          "name": "_gasPrice",
          "type": "uint256"
        },
        {
          "internalType": "bytes",
          "name": "_data",
          "type": "bytes"
        }
      ],
      "name": "allowedTxTypes",
      "outputs": [
        {
          "internalType": "uint32",
          "name": "typesMask",
          "type": "uint32"
        },
        {
          "internalType": "bool",
          "name": "cache",
          "type": "bool"
        }
      ],
      "stateMutability": "view",
      "type": "function"
    },
    {
      "inputs": [],
      "name": "blockGasLimit",
      "outputs": [
        {
          "internalType": "uint256",
          "name": "",
          "type": "uint256"
        }
      ],
      "stateMutability": "view",
      "type": "function"
    },
    {
      "inputs": [],
      "name": "certifierContract",
      "outputs": [
        {
          "internalType": "contract ICertifier",
          "name": "",
          "type": "address"
        }
      ],
      "stateMutability": "view",
      "type": "function"
    },
    {
      "inputs": [],
      "name": "connectivityTracker",
      "outputs": [
        {
          "internalType": "contract IConnectivityTrackerHbbft",
          "name": "",
          "type": "address"
        }
      ],
      "stateMutability": "view",
      "type": "function"
    },
    {
      "inputs": [],
      "name": "contractName",
      "outputs": [
        {
          "internalType": "string",
          "name": "",
          "type": "string"
        }
      ],
      "stateMutability": "pure",
      "type": "function"
    },
    {
      "inputs": [],
      "name": "contractNameHash",
      "outputs": [
        {
          "internalType": "bytes32",
          "name": "",
          "type": "bytes32"
        }
      ],
      "stateMutability": "pure",
      "type": "function"
    },
    {
      "inputs": [],
      "name": "contractVersion",
      "outputs": [
        {
          "internalType": "uint256",
          "name": "",
          "type": "uint256"
        }
      ],
      "stateMutability": "pure",
      "type": "function"
    },
    {
      "inputs": [
        {
          "internalType": "string",
          "name": "_selector",
          "type": "string"
        }
      ],
      "name": "getAllowedParamsRange",
      "outputs": [
        {
          "components": [
            {
              "internalType": "bytes4",
              "name": "getter",
              "type": "bytes4"
            },
            {
              "internalType": "uint256[]",
              "name": "range",
              "type": "uint256[]"
            }
          ],
          "internalType": "struct ValueGuards.ParameterRange",
          "name": "",
          "type": "tuple"
        }
      ],
      "stateMutability": "view",
      "type": "function"
    },
    {
      "inputs": [
        {
          "internalType": "string",
          "name": "setter",
          "type": "string"
        },
        {
          "internalType": "string",
          "name": "getter",
          "type": "string"
        },
        {
          "internalType": "uint256[]",
          "name": "params",
          "type": "uint256[]"
        }
      ],
      "name": "initAllowedChangeableParameter",
      "outputs": [],
      "stateMutability": "nonpayable",
      "type": "function"
    },
    {
      "inputs": [
        {
          "internalType": "address[]",
          "name": "_allowed",
          "type": "address[]"
        },
        {
          "internalType": "address",
          "name": "_certifier",
          "type": "address"
        },
        {
          "internalType": "address",
          "name": "_validatorSet",
          "type": "address"
        },
        {
          "internalType": "address",
          "name": "_keyGenHistoryContract",
          "type": "address"
        },
        {
          "internalType": "address",
          "name": "_connectivityTracker",
          "type": "address"
        },
        {
          "internalType": "address",
          "name": "_contractOwner",
          "type": "address"
        }
      ],
      "name": "initialize",
      "outputs": [],
      "stateMutability": "nonpayable",
      "type": "function"
    },
    {
      "inputs": [
        {
          "internalType": "address",
          "name": "",
          "type": "address"
        }
      ],
      "name": "isSenderAllowed",
      "outputs": [
        {
          "internalType": "bool",
          "name": "",
          "type": "bool"
        }
      ],
      "stateMutability": "view",
      "type": "function"
    },
    {
      "inputs": [
        {
          "internalType": "bytes4",
          "name": "funcSelector",
          "type": "bytes4"
        },
        {
          "internalType": "uint256",
          "name": "newVal",
          "type": "uint256"
        }
      ],
      "name": "isWithinAllowedRange",
      "outputs": [
        {
          "internalType": "bool",
          "name": "",
          "type": "bool"
        }
      ],
      "stateMutability": "view",
      "type": "function"
    },
    {
      "inputs": [],
      "name": "keyGenHistoryContract",
      "outputs": [
        {
          "internalType": "contract IKeyGenHistory",
          "name": "",
          "type": "address"
        }
      ],
      "stateMutability": "view",
      "type": "function"
    },
    {
      "inputs": [],
      "name": "minimumGasPrice",
      "outputs": [
        {
          "internalType": "uint256",
          "name": "",
          "type": "uint256"
        }
      ],
      "stateMutability": "view",
      "type": "function"
    },
    {
      "inputs": [],
      "name": "owner",
      "outputs": [
        {
          "internalType": "address",
          "name": "",
          "type": "address"
        }
      ],
      "stateMutability": "view",
      "type": "function"
    },
    {
      "inputs": [
        {
          "internalType": "string",
          "name": "funcSelector",
          "type": "string"
        }
      ],
      "name": "removeAllowedChangeableParameter",
      "outputs": [],
      "stateMutability": "nonpayable",
      "type": "function"
    },
    {
      "inputs": [
        {
          "internalType": "address",
          "name": "_sender",
          "type": "address"
        }
      ],
      "name": "removeAllowedSender",
      "outputs": [],
      "stateMutability": "nonpayable",
      "type": "function"
    },
    {
      "inputs": [],
      "name": "renounceOwnership",
      "outputs": [],
      "stateMutability": "nonpayable",
      "type": "function"
    },
    {
      "inputs": [
        {
          "internalType": "string",
          "name": "setter",
          "type": "string"
        },
        {
          "internalType": "string",
          "name": "getter",
          "type": "string"
        },
        {
          "internalType": "uint256[]",
          "name": "params",
          "type": "uint256[]"
        }
      ],
      "name": "setAllowedChangeableParameter",
      "outputs": [],
      "stateMutability": "nonpayable",
      "type": "function"
    },
    {
      "inputs": [
        {
          "internalType": "uint256",
          "name": "_value",
          "type": "uint256"
        }
      ],
      "name": "setBlockGasLimit",
      "outputs": [],
      "stateMutability": "nonpayable",
      "type": "function"
    },
    {
      "inputs": [
        {
          "internalType": "address",
          "name": "_connectivityTracker",
          "type": "address"
        }
      ],
      "name": "setConnectivityTracker",
      "outputs": [],
      "stateMutability": "nonpayable",
      "type": "function"
    },
    {
      "inputs": [
        {
          "internalType": "uint256",
          "name": "_value",
          "type": "uint256"
        }
      ],
      "name": "setMinimumGasPrice",
      "outputs": [],
      "stateMutability": "nonpayable",
      "type": "function"
    },
    {
      "inputs": [
        {
          "internalType": "address",
          "name": "_address",
          "type": "address"
        }
      ],
      "name": "setValidatorSetContract",
      "outputs": [],
      "stateMutability": "nonpayable",
      "type": "function"
    },
    {
      "inputs": [
        {
          "internalType": "address",
          "name": "newOwner",
          "type": "address"
        }
      ],
      "name": "transferOwnership",
      "outputs": [],
      "stateMutability": "nonpayable",
      "type": "function"
    },
    {
      "inputs": [],
      "name": "validatorSetContract",
      "outputs": [
        {
          "internalType": "contract IValidatorSetHbbft",
          "name": "",
          "type": "address"
        }
      ],
      "stateMutability": "view",
      "type": "function"
    }
  ],
  "bytecode": "0x6080604052348015600f57600080fd5b506016601a565b60ca565b7ff0c57e16840df040f15088dc2f81fe391c3923bec73e23a9662efc9c229c6a00805468010000000000000000900460ff161560695760405163f92ee8a960e01b815260040160405180910390fd5b80546001600160401b039081161460c75780546001600160401b0319166001600160401b0390811782556040519081527fc7f505b2f371ae2175ee4913f4499e1f2633a7b5936321eed1cdaeb6115181d29060200160405180910390a15b50565b612dee806100d96000396000f3fe608060405234801561001057600080fd5b50600436106102415760003560e01c806379167bdd11610145578063ba08d237116100bd578063d3ae79651161008c578063dfc8bf4e11610071578063dfc8bf4e14610544578063efc7840114610557578063f2fde38b1461057a57600080fd5b8063d3ae79651461052d578063df3cecf61461053b57600080fd5b8063ba08d237146104d1578063c374bc23146104f4578063c746c8f414610507578063d249b31c1461051a57600080fd5b8063a0a8e46011610114578063b47aef1f116100f9578063b47aef1f1461046f578063b710c15d14610482578063b9056afa146104a257600080fd5b8063a0a8e46014610455578063a69257f31461045c57600080fd5b806379167bdd146103e15780638da5cb5b146103ef578063922836341461041f5780639b9fb6d01461044257600080fd5b80635d685ba4116101d8578063715018a6116101a7578063782f01771161018c578063782f0177146103b75780637877a797146103c557806378ff69d5146103ce57600080fd5b8063715018a61461037057806375d0c0dc1461037857600080fd5b80635d685ba4146103115780635f0664bf14610341578063669554691461034f5780637086bcc11461036257600080fd5b806336e98ca81161021457806336e98ca8146102c0578063469ab1e3146102d5578063471eab5c146102eb5780635cb092a2146102fe57600080fd5b80631a9ebeaa1461024657806324bdf37b14610276578063305d526c1461029d5780633272b28c146102ab575b600080fd5b600254610259906001600160a01b031681565b6040516001600160a01b0390911681526020015b60405180910390f35b61028463a42bdee960e01b81565b6040516001600160e01b0319909116815260200161026d565b610284632b11904760e11b81565b6102b361058d565b60405161026d919061258e565b6102d36102ce3660046126a1565b6105ef565b005b6102dd6106a3565b60405190815260200161026d565b6102d36102f93660046127b3565b61070a565b6102d361030c3660046126a1565b610874565b6102d361031f3660046127b3565b600580546001600160a01b0319166001600160a01b0392909216919091179055565b6102846343bcce9f60e01b81565b600854610259906001600160a01b031681565b6102846324473b9d60e21b81565b6102d361087c565b604080518082018252601681527f54585f5045524d495353494f4e5f434f4e5452414354000000000000000000006020820152905161026d9190612820565b610284630b53784960e21b81565b6102dd60075481565b6102d36103dc3660046127b3565b610890565b610284630311db7560e61b81565b7f9016d09d72d40fdae2fd8ceac6b6234c7706214fd39c1cd1e609a0528c199300546001600160a01b0316610259565b61028461042d36600461284b565b60006020819052908152604090205460e01b81565b6102d3610450366004612866565b610914565b60036102dd565b6102d361046a3660046128a3565b610988565b600354610259906001600160a01b031681565b610495610490366004612866565b610a29565b60405161026d91906128f8565b6104b56104b0366004612926565b610ad1565b6040805163ffffffff909316835290151560208301520161026d565b6104e46104df3660046129b0565b611663565b604051901515815260200161026d565b6102d36105023660046129da565b611834565b6102d36105153660046127b3565b611e99565b6102d36105283660046128a3565b611ead565b61028463b2a6842160e01b81565b6102dd60065481565b600554610259906001600160a01b031681565b6104e46105653660046127b3565b60046020526000908152604090205460ff1681565b6102d36105883660046127b3565b611f42565b606060018054806020026020016040519081016040528092919081815260200182805480156105e557602002820191906000526020600020905b81546001600160a01b031681526001909101906020018083116105c7575b5050505050905090565b6105f7611f7d565b60408051808201825283516020808601919091206001600160e01b031990811683528183018581528751888401209091166000908152808352939093208251815463ffffffff191660e09190911c1781559251805192939261065f9260018501920190612514565b509050507f3d45a310c5a076ea07aa2947ca3c06cc2a8b3571065867ad6f8e7096a2c9d50a83838360405161069693929190612aa1565b60405180910390a1505050565b60006106df60408051808201909152601681527f54585f5045524d495353494f4e5f434f4e545241435400000000000000000000602082015290565b6040516020016106ef9190612ae4565b60405160208183030381529060405280519060200120905090565b610712611f7d565b6001600160a01b03811660009081526004602052604090205460ff1661075b5760405163d64efe6360e01b81526001600160a01b03821660048201526024015b60405180910390fd5b60015460005b81811015610851576001818154811061077c5761077c612b00565b6000918252602090912001546001600160a01b03908116908416036108495760016107a78184612b2c565b815481106107b7576107b7612b00565b600091825260209091200154600180546001600160a01b0390921691839081106107e3576107e3612b00565b9060005260206000200160006101000a8154816001600160a01b0302191690836001600160a01b03160217905550600180548061082257610822612b3f565b600082815260209020810160001990810180546001600160a01b0319169055019055610851565b600101610761565b50506001600160a01b03166000908152600460205260409020805460ff19169055565b6105f7611fd8565b610884611f7d565b61088e6000612026565b565b610898611f7d565b6001600160a01b0381166108bf5760405163d92e233d60e01b815260040160405180910390fd5b600880546001600160a01b0319166001600160a01b0383169081179091556040519081527f387d29e18823e432432b6098ebeee33beebdb128d2234c7f486c26447b738edd906020015b60405180910390a150565b61091c611f7d565b80516020808301919091206001600160e01b03191660009081529081905260408120805463ffffffff1916815590610957600183018261255f565b50507f92d44565a40fe29702ffa146ddaa3bb133d4077f5312d682d0a2632a9bc73a8a816040516109099190612820565b610990611f7d565b806109a76000356001600160e01b03191682611663565b6109c7576040516373330d9b60e01b815260048101829052602401610752565b6305f5e1008210156109ec57604051635251cbd760e01b815260040160405180910390fd5b60078290556040518281527fda69de0cab556da57726688a057caf911b2e8f850c45b6edf359bacf3db378e8906020015b60405180910390a15050565b60408051808201909152600081526060602082015281516020808401919091206001600160e01b0319908116600090815280835260409081902081518083018352815460e01b9093168352600181018054835181870281018701909452808452939491938583019392830182828015610ac157602002820191906000526020600020905b815481526020019060010190808311610aad575b5050505050815250509050919050565b6001600160a01b038516600090815260046020526040812054819060ff1615610b03575063ffffffff90506000611659565b6000805b6004855110158015610b195750600481105b15610b7b57610b29816008612b55565b858281518110610b3b57610b3b612b00565b01602001517fff0000000000000000000000000000000000000000000000000000000000000016901c919091179080610b7381612b6c565b915050610b07565b506005546001600160a01b0390811690881603610f9c5762ee248b60e61b6001600160e01b0319821601610ccc576000604060048651610bbb9190612b2c565b11610bd35760048551610bce9190612b2c565b610bd6565b60405b90506000610be686836004612097565b905060008082806020019051810190610bff9190612b85565b915091506000600560009054906101000a90046001600160a01b03166001600160a01b031663a670eb568e85856040518463ffffffff1660e01b8152600401610c69939291906001600160a01b039384168152919092166020820152604081019190915260600190565b6040805180830381865afa158015610c85573d6000803e3d6000fd5b505050506040513d601f19601f82011682018060405250810190610ca99190612bc3565b50905080610cb8576000610cbb565b60025b600097509750505050505050611659565b63bc43316160e01b6001600160e01b0319821601610d6c57600554604051630f51726f60e41b81526001600160a01b038a811660048301529091169063f51726f090602401602060405180830381865afa158015610d2e573d6000803e3d6000fd5b505050506040513d601f19601f82011682018060405250810190610d529190612bf6565b610d5d576000610d60565b60025b60009250925050611659565b635bd4211760e01b6001600160e01b0319821601610f10576005546040516307b9342f60e21b81526001600160a01b038a811660048301526000921690631ee4d0bc90602401602060405180830381865afa158015610dcf573d6000803e3d6000fd5b505050506040513d601f19601f82011682018060405250810190610df39190612c11565b90506001600160a01b03811615610f0257600560009054906101000a90046001600160a01b03166001600160a01b0316638e68dce46040518163ffffffff1660e01b8152600401602060405180830381865afa158015610e57573d6000803e3d6000fd5b505050506040513d601f19601f82011682018060405250810190610e7b9190612c11565b60405163a711e6a160e01b81526001600160a01b038381166004830152919091169063a711e6a190602401602060405180830381865afa158015610ec3573d6000803e3d6000fd5b505050506040513d601f19601f82011682018060405250810190610ee79190612bf6565b610ef2576000610ef5565b60025b6000935093505050611659565b600080935093505050611659565b8415610f9c5760055460405163facd743b60e01b81526001600160a01b038a811660048301529091169063facd743b90602401602060405180830381865afa158015610f60573d6000803e3d6000fd5b505050506040513d601f19601f82011682018060405250810190610f849190612bf6565b610f8f576002610d60565b6000809250925050611659565b6003546001600160a01b0390811690881603611423576334ac87b760e21b6001600160e01b031982160161116d5760055460405163014e28d960e41b81526001600160a01b038a8116600483015260019216906314e28d9090602401602060405180830381865afa158015611015573d6000803e3d6000fd5b505050506040513d601f19601f820116820180604052508101906110399190612c44565b600581111561104a5761104a612c2e565b03610f8f57602484511015611066576000809250925050611659565b6000611073600486612164565b9050600560009054906101000a90046001600160a01b03166001600160a01b0316638e68dce46040518163ffffffff1660e01b8152600401602060405180830381865afa1580156110c8573d6000803e3d6000fd5b505050506040513d601f19601f820116820180604052508101906110ec9190612c11565b6001600160a01b031663794c0c686040518163ffffffff1660e01b8152600401602060405180830381865afa158015611129573d6000803e3d6000fd5b505050506040513d601f19601f8201168201806040525081019061114d9190612c65565b611158906001612c7e565b8103610f025760026000935093505050611659565b6354ee6fb960e11b6001600160e01b03198216016114235760055460405163014e28d960e41b81526001600160a01b038a8116600483015260039216906314e28d9090602401602060405180830381865afa1580156111d0573d6000803e3d6000fd5b505050506040513d601f19601f820116820180604052508101906111f49190612c44565b600581111561120557611205612c2e565b03610f8f57602484511015611221576000809250925050611659565b600560009054906101000a90046001600160a01b03166001600160a01b0316638e68dce46040518163ffffffff1660e01b8152600401602060405180830381865afa158015611274573d6000803e3d6000fd5b505050506040513d601f19601f820116820180604052508101906112989190612c11565b6001600160a01b031663794c0c686040518163ffffffff1660e01b8152600401602060405180830381865afa1580156112d5573d6000803e3d6000fd5b505050506040513d601f19601f820116820180604052508101906112f99190612c65565b611304906001612c7e565b61130f600486612164565b0361132257600260009250925050611659565b600560009054906101000a90046001600160a01b03166001600160a01b0316638e68dce46040518163ffffffff1660e01b8152600401602060405180830381865afa158015611375573d6000803e3d6000fd5b505050506040513d601f19601f820116820180604052508101906113999190612c11565b6001600160a01b031663794c0c686040518163ffffffff1660e01b8152600401602060405180830381865afa1580156113d6573d6000803e3d6000fd5b505050506040513d601f19601f820116820180604052508101906113fa9190612c65565b611405906001612c7e565b611410602486612164565b03610f8f57600260009250925050611659565b6008546001600160a01b0390811690881603611482576001600160e01b031981166324473b9d60e21b148061146857506001600160e01b0319811663b2a6842160e01b145b15611482576114788882866121dc565b9250925050611659565b60055460405163facd743b60e01b81526001600160a01b038a811660048301529091169063facd743b90602401602060405180830381865afa1580156114cc573d6000803e3d6000fd5b505050506040513d601f19601f820116820180604052508101906114f09190612bf6565b80156114fc5750600085115b15611528576000886001600160a01b0316311161151a576000610d60565b600160009250925050611659565b60055460405163facd743b60e01b81526001600160a01b0389811660048301529091169063facd743b90602401602060405180830381865afa158015611572573d6000803e3d6000fd5b505050506040513d601f19601f820116820180604052508101906115969190612bf6565b156115a8576000809250925050611659565b8460000361163a576002546040516303a388eb60e61b81526001600160a01b038a811660048301529091169063e8e23ac090602401602060405180830381865afa1580156115fa573d6000803e3d6000fd5b505050506040513d601f19601f8201168201806040525081019061161e9190612bf6565b611629576000610d60565b63ffffffff60009250925050611659565b60065485101561164b576000611651565b63ffffffff5b600092509250505b9550959350505050565b6001600160e01b031980831660009081526020818152604080832081518083018352815460e01b9095168552600181018054835181860281018601909452808452949586959094929385840193909291908301828280156116e357602002820191906000526020600020905b8154815260200190600101908083116116cf575b505050505081525050905080602001515160000361170557600091505061182e565b6020810151815160009061171890612354565b905060005b8251811015611825578183828151811061173957611739612b00565b60200260200101510361181d57600080821161176f578360008151811061176257611762612b00565b6020026020010151611794565b8361177b600184612b2c565b8151811061178b5761178b612b00565b60200260200101515b90506000600185516117a69190612b2c565b83106117d85784600186516117bb9190612b2c565b815181106117cb576117cb612b00565b60200260200101516117fd565b846117e4846001612c7e565b815181106117f4576117f4612b00565b60200260200101515b905081881415801561180f5750808814155b15965050505050505061182e565b60010161171d565b50600093505050505b92915050565b7ff0c57e16840df040f15088dc2f81fe391c3923bec73e23a9662efc9c229c6a00805468010000000000000000810460ff16159067ffffffffffffffff1660008115801561187f5750825b905060008267ffffffffffffffff16600114801561189c5750303b155b9050811580156118aa575080155b156118c85760405163f92ee8a960e01b815260040160405180910390fd5b845467ffffffffffffffff1916600117855583156118fc57845468ff00000000000000001916680100000000000000001785555b6001600160a01b038616158061191957506001600160a01b038a16155b8061192b57506001600160a01b038916155b8061193d57506001600160a01b038816155b8061194f57506001600160a01b038716155b1561196d5760405163d92e233d60e01b815260040160405180910390fd5b6119768661242b565b60005b8b8110156119b8576119b08d8d8381811061199657611996612b00565b90506020020160208101906119ab91906127b3565b61243c565b600101611979565b50600280546001600160a01b038c81166001600160a01b031992831617909255600580548c8416908316179055600380548b841690831617905560088054928a1692909116919091179055633b9aca006006556305f5e10060075560408051600b808252610180820190925260009160208201610160803683370190505090506305f5e10081600081518110611a5057611a50612b00565b602002602001018181525050630bebc20081600181518110611a7457611a74612b00565b6020026020010181815250506317d7840081600281518110611a9857611a98612b00565b6020026020010181815250506323c3460081600381518110611abc57611abc612b00565b602002602001018181525050632faf080081600481518110611ae057611ae0612b00565b602002602001018181525050633b9aca0081600581518110611b0457611b04612b00565b602002602001018181525050637735940081600681518110611b2857611b28612b00565b60200260200101818152505063ee6b280081600781518110611b4c57611b4c612b00565b602002602001018181525050640165a0bc0081600881518110611b7157611b71612b00565b6020026020010181815250506401dcd6500081600981518110611b9657611b96612b00565b6020026020010181815250506402540be40081600a81518110611bbb57611bbb612b00565b602002602001018181525050611c3c6040518060400160405280601b81526020017f7365744d696e696d756d47617350726963652875696e743235362900000000008152506040518060400160405280601181526020017f6d696e696d756d4761735072696365282900000000000000000000000000000081525083610874565b60408051600a808252610160820190925260009160208201610140803683370190505090506305f5e10081600081518110611c7957611c79612b00565b602002602001018181525050630bebc20081600181518110611c9d57611c9d612b00565b6020026020010181815250506311e1a30081600281518110611cc157611cc1612b00565b6020026020010181815250506317d7840081600381518110611ce557611ce5612b00565b602002602001018181525050631dcd650081600481518110611d0957611d09612b00565b6020026020010181815250506323c3460081600581518110611d2d57611d2d612b00565b6020026020010181815250506329b9270081600681518110611d5157611d51612b00565b602002602001018181525050632faf080081600781518110611d7557611d75612b00565b6020026020010181815250506335a4e90081600881518110611d9957611d99612b00565b602002602001018181525050633b9aca0081600981518110611dbd57611dbd612b00565b602002602001018181525050611e3e6040518060400160405280601981526020017f736574426c6f636b4761734c696d69742875696e7432353629000000000000008152506040518060400160405280600f81526020017f626c6f636b4761734c696d69742829000000000000000000000000000000000081525083610874565b50508315611e8b57845468ff000000000000000019168555604051600181527fc7f505b2f371ae2175ee4913f4499e1f2633a7b5936321eed1cdaeb6115181d29060200160405180910390a15b505050505050505050505050565b611ea1611f7d565b611eaa8161243c565b50565b611eb5611f7d565b80611ecc6000356001600160e01b03191682611663565b611eec576040516373330d9b60e01b815260048101829052602401610752565b81600003611f0d576040516344012ef160e01b815260040160405180910390fd5b60068290556040518281527f52264b89e0fceafb26e79fd49ef8a366eb6297483bf4035b027f0c99a7ad512e90602001610a1d565b611f4a611f7d565b6001600160a01b038116611f7457604051631e4fbdf760e01b815260006004820152602401610752565b611eaa81612026565b33611faf7f9016d09d72d40fdae2fd8ceac6b6234c7706214fd39c1cd1e609a0528c199300546001600160a01b031690565b6001600160a01b03161461088e5760405163118cdaa760e01b8152336004820152602401610752565b7ff0c57e16840df040f15088dc2f81fe391c3923bec73e23a9662efc9c229c6a005468010000000000000000900460ff1661088e57604051631afcd79f60e31b815260040160405180910390fd5b7f9016d09d72d40fdae2fd8ceac6b6234c7706214fd39c1cd1e609a0528c19930080546001600160a01b031981166001600160a01b03848116918217845560405192169182907f8be0079c531659141344cd1fd0a4f28419497f9722a3daafe3b4186f6b6457e090600090a3505050565b606060008367ffffffffffffffff8111156120b4576120b46125db565b6040519080825280601f01601f1916602001820160405280156120de576020820181803683370190505b50905060005b8481101561215b57856120f78583612c7e565b8151811061210757612107612b00565b602001015160f81c60f81b82828151811061212457612124612b00565b60200101907effffffffffffffffffffffffffffffffffffffffffffffffffffffffffffff1916908160001a9053506001016120e4565b50949350505050565b600080805b60208110156121d45761217d81601f612b2c565b612188906008612b55565b612193906002612d75565b8461219e8388612c7e565b815181106121ae576121ae612b00565b01602001516121c0919060f81c612b55565b6121ca9083612c7e565b9150600101612169565b509392505050565b60008060006060600485516121f19190612b2c565b1161220957600484516122049190612b2c565b61220c565b60605b9050600061221c85836004612097565b90506000806000838060200190518101906122379190612d81565b91945092509050631bb8c46360e21b6001600160e01b03198a16016122e55760085460405163060b284960e01b81526001600160a01b038c8116600483015285811660248301526044820185905260648201849052600092169063060b2849906084015b60006040518083038186803b1580156122b357600080fd5b505afa9250505080156122c4575060015b6122d0575060006122d4565b5060025b96506000955061234c945050505050565b634d597bdf60e01b6001600160e01b03198a160161234657600854604051632fb625a360e21b81526001600160a01b038c8116600483015285811660248301526044820185905260648201849052600092169063bed8968c9060840161229b565b50505050505b935093915050565b60408051600481526024810182526020810180517bffffffffffffffffffffffffffffffffffffffffffffffffffffffff166001600160e01b031985161790529051600091908290819030906123ab908590612ae4565b600060405180830381855afa9150503d80600081146123e6576040519150601f19603f3d011682016040523d82523d6000602084013e6123eb565b606091505b50915091508161240e57604051635fbab09b60e11b815260040160405180910390fd5b808060200190518101906124229190612c65565b95945050505050565b612433611fd8565b611eaa8161250c565b6001600160a01b0381166124635760405163d92e233d60e01b815260040160405180910390fd5b6001600160a01b03811660009081526004602052604090205460ff16156124a8576040516303e49a0960e51b81526001600160a01b0382166004820152602401610752565b6001805480820182557fb10e2d527612073b26eecdfd717e6a320cf44b4afac2b0732d9fcbe2b7fa0cf60180546001600160a01b039093166001600160a01b031990931683179055600091825260046020526040909120805460ff19169091179055565b611f4a611fd8565b82805482825590600052602060002090810192821561254f579160200282015b8281111561254f578251825591602001919060010190612534565b5061255b929150612579565b5090565b5080546000825590600052602060002090810190611eaa91905b5b8082111561255b576000815560010161257a565b6020808252825182820181905260009190848201906040850190845b818110156125cf5783516001600160a01b0316835292840192918401916001016125aa565b50909695505050505050565b634e487b7160e01b600052604160045260246000fd5b604051601f8201601f1916810167ffffffffffffffff8111828210171561261a5761261a6125db565b604052919050565b600067ffffffffffffffff83111561263c5761263c6125db565b61264f601f8401601f19166020016125f1565b905082815283838301111561266357600080fd5b828260208301376000602084830101529392505050565b600082601f83011261268b57600080fd5b61269a83833560208501612622565b9392505050565b6000806000606084860312156126b657600080fd5b833567ffffffffffffffff808211156126ce57600080fd5b6126da8783880161267a565b94506020915081860135818111156126f157600080fd5b6126fd8882890161267a565b94505060408601358181111561271257600080fd5b8601601f8101881361272357600080fd5b803582811115612735576127356125db565b8060051b92506127468484016125f1565b818152928201840192848101908a85111561276057600080fd5b928501925b8484101561277e57833582529285019290850190612765565b8096505050505050509250925092565b6001600160a01b0381168114611eaa57600080fd5b80356127ae8161278e565b919050565b6000602082840312156127c557600080fd5b813561269a8161278e565b60005b838110156127eb5781810151838201526020016127d3565b50506000910152565b6000815180845261280c8160208601602086016127d0565b601f01601f19169290920160200192915050565b60208152600061269a60208301846127f4565b80356001600160e01b0319811681146127ae57600080fd5b60006020828403121561285d57600080fd5b61269a82612833565b60006020828403121561287857600080fd5b813567ffffffffffffffff81111561288f57600080fd5b61289b8482850161267a565b949350505050565b6000602082840312156128b557600080fd5b5035919050565b60008151808452602080850194506020840160005b838110156128ed578151875295820195908201906001016128d1565b509495945050505050565b602080825282516001600160e01b0319168282015282015160408083015260009061289b60608401826128bc565b600080600080600060a0868803121561293e57600080fd5b85356129498161278e565b945060208601356129598161278e565b93506040860135925060608601359150608086013567ffffffffffffffff81111561298357600080fd5b8601601f8101881361299457600080fd5b6129a388823560208401612622565b9150509295509295909350565b600080604083850312156129c357600080fd5b6129cc83612833565b946020939093013593505050565b600080600080600080600060c0888a0312156129f557600080fd5b873567ffffffffffffffff80821115612a0d57600080fd5b818a0191508a601f830112612a2157600080fd5b813581811115612a3057600080fd5b8b60208260051b8501011115612a4557600080fd5b602092830199509750612a5b918a0190506127a3565b9450612a69604089016127a3565b9350612a77606089016127a3565b9250612a85608089016127a3565b9150612a9360a089016127a3565b905092959891949750929550565b606081526000612ab460608301866127f4565b8281036020840152612ac681866127f4565b90508281036040840152612ada81856128bc565b9695505050505050565b60008251612af68184602087016127d0565b9190910192915050565b634e487b7160e01b600052603260045260246000fd5b634e487b7160e01b600052601160045260246000fd5b8181038181111561182e5761182e612b16565b634e487b7160e01b600052603160045260246000fd5b808202811582820484141761182e5761182e612b16565b600060018201612b7e57612b7e612b16565b5060010190565b60008060408385031215612b9857600080fd5b8251612ba38161278e565b6020939093015192949293505050565b805180151581146127ae57600080fd5b60008060408385031215612bd657600080fd5b612bdf83612bb3565b9150612bed60208401612bb3565b90509250929050565b600060208284031215612c0857600080fd5b61269a82612bb3565b600060208284031215612c2357600080fd5b815161269a8161278e565b634e487b7160e01b600052602160045260246000fd5b600060208284031215612c5657600080fd5b81516006811061269a57600080fd5b600060208284031215612c7757600080fd5b5051919050565b8082018082111561182e5761182e612b16565b600181815b80851115612ccc578160001904821115612cb257612cb2612b16565b80851615612cbf57918102915b93841c9390800290612c96565b509250929050565b600082612ce35750600161182e565b81612cf05750600061182e565b8160018114612d065760028114612d1057612d2c565b600191505061182e565b60ff841115612d2157612d21612b16565b50506001821b61182e565b5060208310610133831016604e8410600b8410161715612d4f575081810a61182e565b612d598383612c91565b8060001904821115612d6d57612d6d612b16565b029392505050565b600061269a8383612cd4565b600080600060608486031215612d9657600080fd5b8351612da18161278e565b60208501516040909501519096949550939250505056fea26469706673582212205335466561f57e8903a315dd9eaf04f78ac6721e616511837f30eeed451206d364736f6c63430008190033",
  "linkReferences": {},
  "deployedLinkReferences": {}
}