{
  "_format": "hh-sol-artifact-1",
  "contractName": "TxPermissionHbbftMock",
  "sourceName": "contracts/mockContracts/TxPermissionHbbftMock.sol",
  "abi": [
    {
      "inputs": [
        {
          "internalType": "address",
          "name": "_value",
          "type": "address"
        }
      ],
      "name": "AlreadyExist",
      "type": "error"
    },
    {
      "inputs": [],
      "name": "GetterCallFailed",
      "type": "error"
    },
    {
      "inputs": [],
      "name": "InvalidBlockGasLimit",
      "type": "error"
    },
    {
      "inputs": [],
      "name": "InvalidInitialization",
      "type": "error"
    },
    {
      "inputs": [],
      "name": "InvalidMinGasPrice",
      "type": "error"
    },
    {
      "inputs": [
        {
          "internalType": "uint256",
          "name": "_newVal",
          "type": "uint256"
        }
      ],
      "name": "NewValueOutOfRange",
      "type": "error"
    },
    {
      "inputs": [
        {
          "internalType": "address",
          "name": "_value",
          "type": "address"
        }
      ],
      "name": "NotExist",
      "type": "error"
    },
    {
      "inputs": [],
      "name": "NotInitializing",
      "type": "error"
    },
    {
      "inputs": [
        {
          "internalType": "address",
          "name": "owner",
          "type": "address"
        }
      ],
      "name": "OwnableInvalidOwner",
      "type": "error"
    },
    {
      "inputs": [
        {
          "internalType": "address",
          "name": "account",
          "type": "address"
        }
      ],
      "name": "OwnableUnauthorizedAccount",
      "type": "error"
    },
    {
      "inputs": [],
      "name": "SenderNotAllowed",
      "type": "error"
    },
    {
      "inputs": [],
      "name": "ZeroAddress",
      "type": "error"
    },
    {
      "anonymous": false,
      "inputs": [
        {
          "indexed": false,
          "internalType": "uint256",
          "name": "_value",
          "type": "uint256"
        }
      ],
      "name": "BlockGasLimitChanged",
      "type": "event"
    },
    {
      "anonymous": false,
      "inputs": [
        {
          "indexed": false,
          "internalType": "uint256",
          "name": "_value",
          "type": "uint256"
        }
      ],
      "name": "GasPriceChanged",
      "type": "event"
    },
    {
      "anonymous": false,
      "inputs": [
        {
          "indexed": false,
          "internalType": "uint64",
          "name": "version",
          "type": "uint64"
        }
      ],
      "name": "Initialized",
      "type": "event"
    },
    {
      "anonymous": false,
      "inputs": [
        {
          "indexed": true,
          "internalType": "address",
          "name": "previousOwner",
          "type": "address"
        },
        {
          "indexed": true,
          "internalType": "address",
          "name": "newOwner",
          "type": "address"
        }
      ],
      "name": "OwnershipTransferred",
      "type": "event"
    },
    {
      "anonymous": false,
      "inputs": [
        {
          "indexed": false,
          "internalType": "bytes4",
          "name": "funcSelector",
          "type": "bytes4"
        }
      ],
      "name": "RemoveChangeableParameter",
      "type": "event"
    },
    {
      "anonymous": false,
      "inputs": [
        {
          "indexed": false,
          "internalType": "uint256",
          "name": "_blockGasLimit",
          "type": "uint256"
        }
      ],
      "name": "SetBlockGasLimit",
      "type": "event"
    },
    {
      "anonymous": false,
      "inputs": [
        {
          "indexed": false,
          "internalType": "bytes4",
          "name": "setter",
          "type": "bytes4"
        },
        {
          "indexed": false,
          "internalType": "bytes4",
          "name": "getter",
          "type": "bytes4"
        },
        {
          "indexed": false,
          "internalType": "uint256[]",
          "name": "params",
          "type": "uint256[]"
        }
      ],
      "name": "SetChangeableParameter",
      "type": "event"
    },
    {
      "anonymous": false,
      "inputs": [
        {
          "indexed": false,
          "internalType": "address",
          "name": "_value",
          "type": "address"
        }
      ],
      "name": "SetConnectivityTracker",
      "type": "event"
    },
    {
      "anonymous": false,
      "inputs": [
        {
          "indexed": false,
          "internalType": "uint256",
          "name": "_minGasPrice",
          "type": "uint256"
        }
      ],
      "name": "SetMinimumGasPrice",
      "type": "event"
    },
    {
      "inputs": [],
      "name": "ANNOUNCE_AVAILABILITY_SIGNATURE",
      "outputs": [
        {
          "internalType": "bytes4",
          "name": "",
          "type": "bytes4"
        }
      ],
      "stateMutability": "view",
      "type": "function"
    },
    {
      "inputs": [],
      "name": "REPORT_MISSING_CONNECTIVITY_SELECTOR",
      "outputs": [
        {
          "internalType": "bytes4",
          "name": "",
          "type": "bytes4"
        }
      ],
      "stateMutability": "view",
      "type": "function"
    },
    {
      "inputs": [],
      "name": "REPORT_RECONNECT_SELECTOR",
      "outputs": [
        {
          "internalType": "bytes4",
          "name": "",
          "type": "bytes4"
        }
      ],
      "stateMutability": "view",
      "type": "function"
    },
    {
      "inputs": [],
      "name": "SET_VALIDATOR_IP",
      "outputs": [
        {
          "internalType": "bytes4",
          "name": "",
          "type": "bytes4"
        }
      ],
      "stateMutability": "view",
      "type": "function"
    },
    {
      "inputs": [],
      "name": "WRITE_ACKS_SIGNATURE",
      "outputs": [
        {
          "internalType": "bytes4",
          "name": "",
          "type": "bytes4"
        }
      ],
      "stateMutability": "view",
      "type": "function"
    },
    {
      "inputs": [],
      "name": "WRITE_PART_SIGNATURE",
      "outputs": [
        {
          "internalType": "bytes4",
          "name": "",
          "type": "bytes4"
        }
      ],
      "stateMutability": "view",
      "type": "function"
    },
    {
      "inputs": [
        {
          "internalType": "address",
          "name": "_sender",
          "type": "address"
        }
      ],
      "name": "addAllowedSender",
      "outputs": [],
      "stateMutability": "nonpayable",
      "type": "function"
    },
    {
      "inputs": [],
      "name": "allowedSenders",
      "outputs": [
        {
          "internalType": "address[]",
          "name": "",
          "type": "address[]"
        }
      ],
      "stateMutability": "view",
      "type": "function"
    },
    {
      "inputs": [
        {
          "internalType": "address",
          "name": "_sender",
          "type": "address"
        },
        {
          "internalType": "address",
          "name": "_to",
          "type": "address"
        },
        {
          "internalType": "uint256",
          "name": "",
          "type": "uint256"
        },
        {
          "internalType": "uint256",
          "name": "_gasPrice",
          "type": "uint256"
        },
        {
          "internalType": "bytes",
          "name": "_data",
          "type": "bytes"
        }
      ],
      "name": "allowedTxTypes",
      "outputs": [
        {
          "internalType": "uint32",
          "name": "typesMask",
          "type": "uint32"
        },
        {
          "internalType": "bool",
          "name": "cache",
          "type": "bool"
        }
      ],
      "stateMutability": "view",
      "type": "function"
    },
    {
      "inputs": [],
      "name": "blockGasLimit",
      "outputs": [
        {
          "internalType": "uint256",
          "name": "",
          "type": "uint256"
        }
      ],
      "stateMutability": "view",
      "type": "function"
    },
    {
      "inputs": [],
      "name": "certifierContract",
      "outputs": [
        {
          "internalType": "contract ICertifier",
          "name": "",
          "type": "address"
        }
      ],
      "stateMutability": "view",
      "type": "function"
    },
    {
      "inputs": [],
      "name": "connectivityTracker",
      "outputs": [
        {
          "internalType": "contract IConnectivityTrackerHbbft",
          "name": "",
          "type": "address"
        }
      ],
      "stateMutability": "view",
      "type": "function"
    },
    {
      "inputs": [],
      "name": "contractName",
      "outputs": [
        {
          "internalType": "string",
          "name": "",
          "type": "string"
        }
      ],
      "stateMutability": "pure",
      "type": "function"
    },
    {
      "inputs": [],
      "name": "contractNameHash",
      "outputs": [
        {
          "internalType": "bytes32",
          "name": "",
          "type": "bytes32"
        }
      ],
      "stateMutability": "pure",
      "type": "function"
    },
    {
      "inputs": [],
      "name": "contractVersion",
      "outputs": [
        {
          "internalType": "uint256",
          "name": "",
          "type": "uint256"
        }
      ],
      "stateMutability": "pure",
      "type": "function"
    },
    {
      "inputs": [
        {
          "internalType": "string",
          "name": "_selector",
          "type": "string"
        }
      ],
      "name": "getAllowedParamsRange",
      "outputs": [
        {
          "components": [
            {
              "internalType": "bytes4",
              "name": "getter",
              "type": "bytes4"
            },
            {
              "internalType": "uint256[]",
              "name": "range",
              "type": "uint256[]"
            }
          ],
          "internalType": "struct ValueGuards.ParameterRange",
          "name": "",
          "type": "tuple"
        }
      ],
      "stateMutability": "view",
      "type": "function"
    },
    {
      "inputs": [
        {
          "internalType": "bytes4",
          "name": "_selector",
          "type": "bytes4"
        }
      ],
      "name": "getAllowedParamsRangeWithSelector",
      "outputs": [
        {
          "components": [
            {
              "internalType": "bytes4",
              "name": "getter",
              "type": "bytes4"
            },
            {
              "internalType": "uint256[]",
              "name": "range",
              "type": "uint256[]"
            }
          ],
          "internalType": "struct ValueGuards.ParameterRange",
          "name": "",
          "type": "tuple"
        }
      ],
      "stateMutability": "view",
      "type": "function"
    },
    {
      "inputs": [
        {
          "internalType": "address[]",
          "name": "_allowed",
          "type": "address[]"
        },
        {
          "internalType": "address",
          "name": "_certifier",
          "type": "address"
        },
        {
          "internalType": "address",
          "name": "_validatorSet",
          "type": "address"
        },
        {
          "internalType": "address",
          "name": "_keyGenHistoryContract",
          "type": "address"
        },
        {
          "internalType": "address",
          "name": "_connectivityTracker",
          "type": "address"
        },
        {
          "internalType": "address",
          "name": "_contractOwner",
          "type": "address"
        }
      ],
      "name": "initialize",
      "outputs": [],
      "stateMutability": "nonpayable",
      "type": "function"
    },
    {
      "inputs": [
        {
          "internalType": "address",
          "name": "",
          "type": "address"
        }
      ],
      "name": "isSenderAllowed",
      "outputs": [
        {
          "internalType": "bool",
          "name": "",
          "type": "bool"
        }
      ],
      "stateMutability": "view",
      "type": "function"
    },
    {
      "inputs": [
        {
          "internalType": "bytes4",
          "name": "funcSelector",
          "type": "bytes4"
        },
        {
          "internalType": "uint256",
          "name": "newVal",
          "type": "uint256"
        }
      ],
      "name": "isWithinAllowedRange",
      "outputs": [
        {
          "internalType": "bool",
          "name": "",
          "type": "bool"
        }
      ],
      "stateMutability": "view",
      "type": "function"
    },
    {
      "inputs": [],
      "name": "keyGenHistoryContract",
      "outputs": [
        {
          "internalType": "contract IKeyGenHistory",
          "name": "",
          "type": "address"
        }
      ],
      "stateMutability": "view",
      "type": "function"
    },
    {
      "inputs": [],
      "name": "minimumGasPrice",
      "outputs": [
        {
          "internalType": "uint256",
          "name": "",
          "type": "uint256"
        }
      ],
      "stateMutability": "view",
      "type": "function"
    },
    {
      "inputs": [],
      "name": "owner",
      "outputs": [
        {
          "internalType": "address",
          "name": "",
          "type": "address"
        }
      ],
      "stateMutability": "view",
      "type": "function"
    },
    {
      "inputs": [
        {
          "internalType": "bytes4",
          "name": "funcSelector",
          "type": "bytes4"
        }
      ],
      "name": "removeAllowedChangeableParameter",
      "outputs": [],
      "stateMutability": "nonpayable",
      "type": "function"
    },
    {
      "inputs": [
        {
          "internalType": "address",
          "name": "_sender",
          "type": "address"
        }
      ],
      "name": "removeAllowedSender",
      "outputs": [],
      "stateMutability": "nonpayable",
      "type": "function"
    },
    {
      "inputs": [],
      "name": "renounceOwnership",
      "outputs": [],
      "stateMutability": "nonpayable",
      "type": "function"
    },
    {
      "inputs": [
        {
          "internalType": "bytes4",
          "name": "setter",
          "type": "bytes4"
        },
        {
          "internalType": "bytes4",
          "name": "getter",
          "type": "bytes4"
        },
        {
          "internalType": "uint256[]",
          "name": "params",
          "type": "uint256[]"
        }
      ],
      "name": "setAllowedChangeableParameter",
      "outputs": [],
      "stateMutability": "nonpayable",
      "type": "function"
    },
    {
      "inputs": [
        {
          "internalType": "uint256",
          "name": "_value",
          "type": "uint256"
        }
      ],
      "name": "setBlockGasLimit",
      "outputs": [],
      "stateMutability": "nonpayable",
      "type": "function"
    },
    {
      "inputs": [
        {
          "internalType": "address",
          "name": "_connectivityTracker",
          "type": "address"
        }
      ],
      "name": "setConnectivityTracker",
      "outputs": [],
      "stateMutability": "nonpayable",
      "type": "function"
    },
    {
      "inputs": [
        {
          "internalType": "uint256",
          "name": "_value",
          "type": "uint256"
        }
      ],
      "name": "setMinimumGasPrice",
      "outputs": [],
      "stateMutability": "nonpayable",
      "type": "function"
    },
    {
      "inputs": [
        {
          "internalType": "address",
          "name": "_address",
          "type": "address"
        }
      ],
      "name": "setValidatorSetContract",
      "outputs": [],
      "stateMutability": "nonpayable",
      "type": "function"
    },
    {
      "inputs": [
        {
          "internalType": "address",
          "name": "newOwner",
          "type": "address"
        }
      ],
      "name": "transferOwnership",
      "outputs": [],
      "stateMutability": "nonpayable",
      "type": "function"
    },
    {
      "inputs": [],
      "name": "validatorSetContract",
      "outputs": [
        {
          "internalType": "contract IValidatorSetHbbft",
          "name": "",
          "type": "address"
        }
      ],
      "stateMutability": "view",
      "type": "function"
    }
  ],
  "bytecode": "0x6080604052348015600f57600080fd5b506016601a565b60ca565b7ff0c57e16840df040f15088dc2f81fe391c3923bec73e23a9662efc9c229c6a00805468010000000000000000900460ff161560695760405163f92ee8a960e01b815260040160405180910390fd5b80546001600160401b039081161460c75780546001600160401b0319166001600160401b0390811782556040519081527fc7f505b2f371ae2175ee4913f4499e1f2633a7b5936321eed1cdaeb6115181d29060200160405180910390a15b50565b612bd2806100d96000396000f3fe608060405234801561001057600080fd5b506004361061020b5760003560e01c80637d8149db1161012a578063bf348f86116100bd578063d3ae79651161008c578063dfc8bf4e11610071578063dfc8bf4e146104dd578063efc78401146104f0578063f2fde38b1461051357600080fd5b8063d3ae7965146104c6578063df3cecf6146104d457600080fd5b8063bf348f861461047a578063c374bc231461048d578063c746c8f4146104a0578063d249b31c146104b357600080fd5b8063b47aef1f116100f9578063b47aef1f146103f5578063b710c15d14610408578063b9056afa14610428578063ba08d2371461045757600080fd5b80637d8149db146103985780638da5cb5b146103ab578063a0a8e460146103db578063a69257f3146103e257600080fd5b80635f0664bf116101a257806375d0c0dc1161017157806375d0c0dc1461032f578063782f01771461036e5780637877a7971461037c57806378ff69d51461038557600080fd5b80635f0664bf146102f857806366955469146103065780637086bcc114610319578063715018a61461032757600080fd5b80634346845f116101de5780634346845f1461028a578063469ab1e31461029f578063471eab5c146102b55780635d685ba4146102c857600080fd5b80631a9ebeaa1461021057806324bdf37b14610240578063305d526c146102675780633272b28c14610275575b600080fd5b600154610223906001600160a01b031681565b6040516001600160a01b0390911681526020015b60405180910390f35b61024e63a42bdee960e01b81565b6040516001600160e01b03199091168152602001610237565b61024e632b11904760e11b81565b61027d610526565b6040516102379190612420565b61029d6102983660046124d6565b610588565b005b6102a761068e565b604051908152602001610237565b61029d6102c336600461254c565b6106f5565b61029d6102d636600461254c565b600480546001600160a01b0319166001600160a01b0392909216919091179055565b61024e6343bcce9f60e01b81565b600754610223906001600160a01b031681565b61024e6324473b9d60e21b81565b61029d610857565b604080518082018252601681527f54585f5045524d495353494f4e5f434f4e545241435400000000000000000000602082015290516102379190612594565b61024e630b53784960e21b81565b6102a760065481565b61029d61039336600461254c565b61086b565b61029d6103a63660046125c7565b6108ee565b7f9016d09d72d40fdae2fd8ceac6b6234c7706214fd39c1cd1e609a0528c199300546001600160a01b0316610223565b60036102a7565b61029d6103f03660046125e2565b610978565b600254610223906001600160a01b031681565b61041b610416366004612687565b6109ec565b6040516102379190612714565b61043b610436366004612742565b610a9c565b6040805163ffffffff9093168352901515602083015201610237565b61046a6104653660046127cc565b6114ca565b6040519015158152602001610237565b61041b6104883660046125c7565b6116a7565b61029d61049b3660046127f6565b61174c565b61029d6104ae36600461254c565b611bdb565b61029d6104c13660046125e2565b611bef565b61024e63b2a6842160e01b81565b6102a760055481565b600454610223906001600160a01b031681565b61046a6104fe36600461254c565b60036020526000908152604090205460ff1681565b61029d61052136600461254c565b611c63565b6060600080548060200260200160405190810160405280929190818152602001828054801561057e57602002820191906000526020600020905b81546001600160a01b03168152600190910190602001808311610560575b5050505050905090565b610590611c9e565b600061059a611cf9565b90506040518060400160405280857bffffffffffffffffffffffffffffffffffffffffffffffffffffffff1916815260200184848080602002602001604051908101604052809392919081815260200183836020028082843760009201829052509390945250506001600160e01b031988168152602084815260409091208351815463ffffffff191660e09190911c1781558382015180519193506106469260018501929101906123a6565b509050507f3665bf9cd0ba4ddceeec259e21dcf8a4510f3b1130bd42e950828e69d85408ba8585858560405161067f9493929190612898565b60405180910390a15050505050565b60006106ca60408051808201909152601681527f54585f5045524d495353494f4e5f434f4e545241435400000000000000000000602082015290565b6040516020016106da9190612905565b60405160208183030381529060405280519060200120905090565b6106fd611c9e565b6001600160a01b03811660009081526003602052604090205460ff166107465760405163d64efe6360e01b81526001600160a01b03821660048201526024015b60405180910390fd5b60008054905b81811015610834576000818154811061076757610767612921565b6000918252602090912001546001600160a01b039081169084160361082c57600061079360018461294d565b815481106107a3576107a3612921565b600091825260208220015481546001600160a01b039091169190839081106107cd576107cd612921565b6000918252602082200180546001600160a01b0319166001600160a01b03939093169290921790915580548061080557610805612960565b600082815260209020810160001990810180546001600160a01b0319169055019055610834565b60010161074c565b50506001600160a01b03166000908152600360205260409020805460ff19169055565b61085f611c9e565b6108696000611d5b565b565b610873611c9e565b6001600160a01b03811661089a5760405163d92e233d60e01b815260040160405180910390fd5b600780546001600160a01b0319166001600160a01b0383169081179091556040519081527f387d29e18823e432432b6098ebeee33beebdb128d2234c7f486c26447b738edd9060200160405180910390a150565b6108f6611c9e565b6000610900611cf9565b6001600160e01b031983166000908152602082905260408120805463ffffffff1916815591925061093460018301826123f1565b50506040516001600160e01b0319831681527fed27cb02231782dadf13473a7828cb980c4d685791b7a3136dde00f8c3594cb6906020015b60405180910390a15050565b610980611c9e565b806109976000356001600160e01b031916826114ca565b6109b7576040516373330d9b60e01b81526004810182905260240161073d565b60068290556040518281527fda69de0cab556da57726688a057caf911b2e8f850c45b6edf359bacf3db378e89060200161096c565b604080518082019091526000815260606020820152610a09611cf9565b82516020808501919091206001600160e01b0319908116600090815292825260409283902083518085018552815460e01b9092168252600181018054855181860281018601909652808652929491938581019390830182828015610a8c57602002820191906000526020600020905b815481526020019060010190808311610a78575b5050505050815250509050919050565b6001600160a01b038516600090815260036020526040812054819060ff1615610ace575063ffffffff905060006114c0565b6000805b6004855110158015610ae45750600481105b15610b4657610af4816008612976565b858281518110610b0657610b06612921565b01602001517fff0000000000000000000000000000000000000000000000000000000000000016901c919091179080610b3e8161298d565b915050610ad2565b506004546001600160a01b0390811690881603610e2a5763bc43316160e01b6001600160e01b0319821601610bff5760048054604051630f51726f60e41b81526001600160a01b038b81169382019390935291169063f51726f090602401602060405180830381865afa158015610bc1573d6000803e3d6000fd5b505050506040513d601f19601f82011682018060405250810190610be591906129a6565b610bf0576000610bf3565b60025b600092509250506114c0565b635bd4211760e01b6001600160e01b0319821601610d9c57600480546040516307b9342f60e21b81526001600160a01b038b81169382019390935260009290911690631ee4d0bc90602401602060405180830381865afa158015610c67573d6000803e3d6000fd5b505050506040513d601f19601f82011682018060405250810190610c8b91906129c8565b90506001600160a01b03811615610d8e57600480546040805163239a373960e21b815290516001600160a01b0390921692638e68dce49282820192602092908290030181865afa158015610ce3573d6000803e3d6000fd5b505050506040513d601f19601f82011682018060405250810190610d0791906129c8565b60405163a711e6a160e01b81526001600160a01b038381166004830152919091169063a711e6a190602401602060405180830381865afa158015610d4f573d6000803e3d6000fd5b505050506040513d601f19601f82011682018060405250810190610d7391906129a6565b610d7e576000610d81565b60025b60009350935050506114c0565b6000809350935050506114c0565b8415610e2a576004805460405163facd743b60e01b81526001600160a01b038b81169382019390935291169063facd743b90602401602060405180830381865afa158015610dee573d6000803e3d6000fd5b505050506040513d601f19601f82011682018060405250810190610e1291906129a6565b610e1d576002610bf3565b60008092509250506114c0565b6002546001600160a01b039081169088160361129f576334ac87b760e21b6001600160e01b0319821601610ffe5760016004805460405163014e28d960e41b81526001600160a01b038c8116938201939093529116906314e28d9090602401602060405180830381865afa158015610ea6573d6000803e3d6000fd5b505050506040513d601f19601f82011682018060405250810190610eca91906129fb565b6005811115610edb57610edb6129e5565b03610e1d57602484511015610ef75760008092509250506114c0565b6000610f04600486611dcc565b9050600460009054906101000a90046001600160a01b03166001600160a01b0316638e68dce46040518163ffffffff1660e01b8152600401602060405180830381865afa158015610f59573d6000803e3d6000fd5b505050506040513d601f19601f82011682018060405250810190610f7d91906129c8565b6001600160a01b031663794c0c686040518163ffffffff1660e01b8152600401602060405180830381865afa158015610fba573d6000803e3d6000fd5b505050506040513d601f19601f82011682018060405250810190610fde9190612a1c565b610fe9906001612a35565b8103610d8e57600260009350935050506114c0565b6354ee6fb960e11b6001600160e01b031982160161129f5760036004805460405163014e28d960e41b81526001600160a01b038c8116938201939093529116906314e28d9090602401602060405180830381865afa158015611064573d6000803e3d6000fd5b505050506040513d601f19601f8201168201806040525081019061108891906129fb565b6005811115611099576110996129e5565b03610e1d576024845110156110b55760008092509250506114c0565b600480546040805163239a373960e21b815290516001600160a01b0390921692638e68dce49282820192602092908290030181865afa1580156110fc573d6000803e3d6000fd5b505050506040513d601f19601f8201168201806040525081019061112091906129c8565b6001600160a01b031663794c0c686040518163ffffffff1660e01b8152600401602060405180830381865afa15801561115d573d6000803e3d6000fd5b505050506040513d601f19601f820116820180604052508101906111819190612a1c565b61118c906001612a35565b611197600486611dcc565b036111aa576002600092509250506114c0565b600480546040805163239a373960e21b815290516001600160a01b0390921692638e68dce49282820192602092908290030181865afa1580156111f1573d6000803e3d6000fd5b505050506040513d601f19601f8201168201806040525081019061121591906129c8565b6001600160a01b031663794c0c686040518163ffffffff1660e01b8152600401602060405180830381865afa158015611252573d6000803e3d6000fd5b505050506040513d601f19601f820116820180604052508101906112769190612a1c565b611281906001612a35565b61128c602486611dcc565b03610e1d576002600092509250506114c0565b6007546001600160a01b03908116908816036112e55760006112c2898387611e44565b90508060200151156112e357806000015181604001519350935050506114c0565b505b6004805460405163facd743b60e01b81526001600160a01b038b81169382019390935291169063facd743b90602401602060405180830381865afa158015611331573d6000803e3d6000fd5b505050506040513d601f19601f8201168201806040525081019061135591906129a6565b80156113615750600085115b1561138d576000886001600160a01b0316311161137f576000610bf3565b6001600092509250506114c0565b6004805460405163facd743b60e01b81526001600160a01b038a81169382019390935291169063facd743b90602401602060405180830381865afa1580156113d9573d6000803e3d6000fd5b505050506040513d601f19601f820116820180604052508101906113fd91906129a6565b1561140f5760008092509250506114c0565b846000036114a1576001546040516303a388eb60e61b81526001600160a01b038a811660048301529091169063e8e23ac090602401602060405180830381865afa158015611461573d6000803e3d6000fd5b505050506040513d601f19601f8201168201806040525081019061148591906129a6565b611490576000610bf3565b63ffffffff600092509250506114c0565b6005548510156114b25760006114b8565b63ffffffff5b600092509250505b9550959350505050565b6000806114d5611cf9565b6001600160e01b031980861660009081526020838152604080832081518083018352815460e01b9095168552600181018054835181860281018601909452808452969750939590938584019390919083018282801561155357602002820191906000526020600020905b81548152602001906001019080831161153f575b5050505050815250509050806020015151600003611576576000925050506116a1565b6020810151815160009061158990612015565b905060005b825181101561169757818382815181106115aa576115aa612921565b60200260200101510361168f5760008082116115e057836000815181106115d3576115d3612921565b6020026020010151611605565b836115ec60018461294d565b815181106115fc576115fc612921565b60200260200101515b9050600060018551611617919061294d565b831061164957846001865161162c919061294d565b8151811061163c5761163c612921565b602002602001015161166e565b84611655846001612a35565b8151811061166557611665612921565b60200260200101515b90508189141580156116805750808914155b159750505050505050506116a1565b60010161158e565b5060009450505050505b92915050565b6040805180820190915260008152606060208201526116c4611cf9565b6001600160e01b03198084166000908152602092835260409081902081518083018352815460e01b9093168352600181018054835181870281018701909452808452939491938583019392830182828015610a8c5760200282019190600052602060002090815481526020019060010190808311610a78575050505050815250509050919050565b7ff0c57e16840df040f15088dc2f81fe391c3923bec73e23a9662efc9c229c6a00805468010000000000000000810460ff16159067ffffffffffffffff166000811580156117975750825b905060008267ffffffffffffffff1660011480156117b45750303b155b9050811580156117c2575080155b156117e05760405163f92ee8a960e01b815260040160405180910390fd5b845467ffffffffffffffff19166001178555831561181457845468ff00000000000000001916680100000000000000001785555b6001600160a01b038616158061183157506001600160a01b038a16155b8061184357506001600160a01b038916155b8061185557506001600160a01b038816155b8061186757506001600160a01b038716155b156118855760405163d92e233d60e01b815260040160405180910390fd5b61188e866120ec565b60005b8b8110156118d0576118c88d8d838181106118ae576118ae612921565b90506020020160208101906118c3919061254c565b6120fd565b600101611891565b50600180546001600160a01b038c81166001600160a01b031992831617909255600480548c8416908316179055600280548b841690831617905560078054928a1692909116919091179055633b9aca006005556305f5e10060065560408051600b808252610180820190925260009160208201610160803683370190505090506305f5e1008160008151811061196857611968612921565b602002602001018181525050630bebc2008160018151811061198c5761198c612921565b6020026020010181815250506317d78400816002815181106119b0576119b0612921565b6020026020010181815250506323c34600816003815181106119d4576119d4612921565b602002602001018181525050632faf0800816004815181106119f8576119f8612921565b602002602001018181525050633b9aca0081600581518110611a1c57611a1c612921565b602002602001018181525050637735940081600681518110611a4057611a40612921565b60200260200101818152505063ee6b280081600781518110611a6457611a64612921565b602002602001018181525050640165a0bc0081600881518110611a8957611a89612921565b6020026020010181815250506401dcd6500081600981518110611aae57611aae612921565b6020026020010181815250506402540be40081600a81518110611ad357611ad3612921565b6020908102919091010152611af76334926cc760e21b636f9e767b60e11b836121ce565b60408051600a8082526101608201909252600091602082016101408036833701905050905060005b8151811015611b6657611b33816001612a35565b611b41906305f5e100612976565b828281518110611b5357611b53612921565b6020908102919091010152600101611b1f565b50611b8063a69257f360e01b637877a79760e01b836121ce565b50508315611bcd57845468ff000000000000000019168555604051600181527fc7f505b2f371ae2175ee4913f4499e1f2633a7b5936321eed1cdaeb6115181d29060200160405180910390a15b505050505050505050505050565b611be3611c9e565b611bec816120fd565b50565b611bf7611c9e565b80611c0e6000356001600160e01b031916826114ca565b611c2e576040516373330d9b60e01b81526004810182905260240161073d565b60058290556040518281527f52264b89e0fceafb26e79fd49ef8a366eb6297483bf4035b027f0c99a7ad512e9060200161096c565b611c6b611c9e565b6001600160a01b038116611c9557604051631e4fbdf760e01b81526000600482015260240161073d565b611bec81611d5b565b33611cd07f9016d09d72d40fdae2fd8ceac6b6234c7706214fd39c1cd1e609a0528c199300546001600160a01b031690565b6001600160a01b0316146108695760405163118cdaa760e01b815233600482015260240161073d565b60008060ff19611d2a60017fdace3fd3d1fbdfd33853f19ba191d28c617e373ec58fc73cf7b58db5aff2c2ab61294d565b604051602001611d3c91815260200190565b60408051601f1981840301815291905280516020909101201692915050565b7f9016d09d72d40fdae2fd8ceac6b6234c7706214fd39c1cd1e609a0528c19930080546001600160a01b031981166001600160a01b03848116918217845560405192169182907f8be0079c531659141344cd1fd0a4f28419497f9722a3daafe3b4186f6b6457e090600090a3505050565b600080805b6020811015611e3c57611de581601f61294d565b611df0906008612976565b611dfb906002612b2c565b84611e068388612a35565b81518110611e1657611e16612921565b0160200151611e28919060f81c612976565b611e329083612a35565b9150600101611dd1565b509392505050565b60408051606081018252600080825260208201819052918101919091526000606060048451611e73919061294d565b11611e8b5760048351611e86919061294d565b611e8e565b60605b90506000611e9e84836004612283565b6040805160608101825260008082526001602083015291810191909152909150631bb8c46360e21b6001600160e01b0319871601611f8057600080600084806020019051810190611eef9190612b38565b60075460405163060b284960e01b81526001600160a01b038f8116600483015280861660248301526044820185905260648201849052949750929550909350919091169063060b2849906084015b60006040518083038186803b158015611f5557600080fd5b505afa925050508015611f66575060015b611f735760008452611f78565b600284525b50505061200b565b634d597bdf60e01b6001600160e01b031987160161200357600080600084806020019051810190611fb19190612b38565b600754604051632fb625a360e21b81526001600160a01b038f8116600483015280861660248301526044820185905260648201849052949750929550909350919091169063bed8968c90608401611f3d565b600060208201525b9695505050505050565b60408051600481526024810182526020810180517bffffffffffffffffffffffffffffffffffffffffffffffffffffffff166001600160e01b0319851617905290516000919082908190309061206c908590612905565b600060405180830381855afa9150503d80600081146120a7576040519150601f19603f3d011682016040523d82523d6000602084013e6120ac565b606091505b5091509150816120cf57604051635fbab09b60e11b815260040160405180910390fd5b808060200190518101906120e39190612a1c565b95945050505050565b6120f4612350565b611bec8161239e565b6001600160a01b0381166121245760405163d92e233d60e01b815260040160405180910390fd5b6001600160a01b03811660009081526003602052604090205460ff1615612169576040516303e49a0960e51b81526001600160a01b038216600482015260240161073d565b60008054600181810183557f290decd9548b62a8d60345a988386fc84ba6bc95484008f6362f93160ef3e56390910180546001600160a01b039094166001600160a01b031990941684179055918152600360205260409020805460ff19169091179055565b6121d6612350565b60006121e0611cf9565b6040805180820182526001600160e01b0319868116825260208083018781529189166000908152858252939093208251815463ffffffff191660e09190911c178155905180519495509193909261223e9260018501929101906123a6565b509050507f3665bf9cd0ba4ddceeec259e21dcf8a4510f3b1130bd42e950828e69d85408ba84848460405161227593929190612b6f565b60405180910390a150505050565b606060008367ffffffffffffffff8111156122a0576122a06125fb565b6040519080825280601f01601f1916602001820160405280156122ca576020820181803683370190505b50905060005b8481101561234757856122e38583612a35565b815181106122f3576122f3612921565b602001015160f81c60f81b82828151811061231057612310612921565b60200101907effffffffffffffffffffffffffffffffffffffffffffffffffffffffffffff1916908160001a9053506001016122d0565b50949350505050565b7ff0c57e16840df040f15088dc2f81fe391c3923bec73e23a9662efc9c229c6a005468010000000000000000900460ff1661086957604051631afcd79f60e31b815260040160405180910390fd5b611c6b612350565b8280548282559060005260206000209081019282156123e1579160200282015b828111156123e15782518255916020019190600101906123c6565b506123ed92915061240b565b5090565b5080546000825590600052602060002090810190611bec91905b5b808211156123ed576000815560010161240c565b6020808252825182820181905260009190848201906040850190845b818110156124615783516001600160a01b03168352928401929184019160010161243c565b50909695505050505050565b80356001600160e01b03198116811461248557600080fd5b919050565b60008083601f84011261249c57600080fd5b50813567ffffffffffffffff8111156124b457600080fd5b6020830191508360208260051b85010111156124cf57600080fd5b9250929050565b600080600080606085870312156124ec57600080fd5b6124f58561246d565b93506125036020860161246d565b9250604085013567ffffffffffffffff81111561251f57600080fd5b61252b8782880161248a565b95989497509550505050565b6001600160a01b0381168114611bec57600080fd5b60006020828403121561255e57600080fd5b813561256981612537565b9392505050565b60005b8381101561258b578181015183820152602001612573565b50506000910152565b60208152600082518060208401526125b3816040850160208701612570565b601f01601f19169190910160400192915050565b6000602082840312156125d957600080fd5b6125698261246d565b6000602082840312156125f457600080fd5b5035919050565b634e487b7160e01b600052604160045260246000fd5b600067ffffffffffffffff8084111561262c5761262c6125fb565b604051601f8501601f19908116603f01168101908282118183101715612654576126546125fb565b8160405280935085815286868601111561266d57600080fd5b858560208301376000602087830101525050509392505050565b60006020828403121561269957600080fd5b813567ffffffffffffffff8111156126b057600080fd5b8201601f810184136126c157600080fd5b6126d084823560208401612611565b949350505050565b60008151808452602080850194506020840160005b83811015612709578151875295820195908201906001016126ed565b509495945050505050565b602080825282516001600160e01b031916828201528201516040808301526000906126d060608401826126d8565b600080600080600060a0868803121561275a57600080fd5b853561276581612537565b9450602086013561277581612537565b93506040860135925060608601359150608086013567ffffffffffffffff81111561279f57600080fd5b8601601f810188136127b057600080fd5b6127bf88823560208401612611565b9150509295509295909350565b600080604083850312156127df57600080fd5b6127e88361246d565b946020939093013593505050565b600080600080600080600060c0888a03121561281157600080fd5b873567ffffffffffffffff81111561282857600080fd5b6128348a828b0161248a565b909850965050602088013561284881612537565b9450604088013561285881612537565b9350606088013561286881612537565b9250608088013561287881612537565b915060a088013561288881612537565b8091505092959891949750929550565b6001600160e01b0319858116825284166020820152606060408201819052810182905260007f07ffffffffffffffffffffffffffffffffffffffffffffffffffffffffffffff8311156128ea57600080fd5b8260051b808560808501379190910160800195945050505050565b60008251612917818460208701612570565b9190910192915050565b634e487b7160e01b600052603260045260246000fd5b634e487b7160e01b600052601160045260246000fd5b818103818111156116a1576116a1612937565b634e487b7160e01b600052603160045260246000fd5b80820281158282048414176116a1576116a1612937565b60006001820161299f5761299f612937565b5060010190565b6000602082840312156129b857600080fd5b8151801515811461256957600080fd5b6000602082840312156129da57600080fd5b815161256981612537565b634e487b7160e01b600052602160045260246000fd5b600060208284031215612a0d57600080fd5b81516006811061256957600080fd5b600060208284031215612a2e57600080fd5b5051919050565b808201808211156116a1576116a1612937565b600181815b80851115612a83578160001904821115612a6957612a69612937565b80851615612a7657918102915b93841c9390800290612a4d565b509250929050565b600082612a9a575060016116a1565b81612aa7575060006116a1565b8160018114612abd5760028114612ac757612ae3565b60019150506116a1565b60ff841115612ad857612ad8612937565b50506001821b6116a1565b5060208310610133831016604e8410600b8410161715612b06575081810a6116a1565b612b108383612a48565b8060001904821115612b2457612b24612937565b029392505050565b60006125698383612a8b565b600080600060608486031215612b4d57600080fd5b8351612b5881612537565b602085015160409095015190969495509392505050565b6001600160e01b03198481168252831660208201526060604082018190526000906120e3908301846126d856fea26469706673582212208f90b6c18b4868bfc99d28a9a55e84a47f57da689f24b6cf8aeeaf358866b57264736f6c63430008190033",
  "linkReferences": {},
  "deployedLinkReferences": {}
}