{
  "_format": "hh-sol-artifact-1",
  "contractName": "TxPermissionHbbft",
  "sourceName": "contracts/TxPermissionHbbft.sol",
  "abi": [
    {
      "inputs": [],
      "stateMutability": "nonpayable",
      "type": "constructor"
    },
    {
      "inputs": [
        {
          "internalType": "address",
          "name": "_value",
          "type": "address"
        }
      ],
      "name": "AlreadyExist",
      "type": "error"
    },
    {
      "inputs": [],
      "name": "GetterCallFailed",
      "type": "error"
    },
    {
      "inputs": [],
      "name": "InvalidBlockGasLimit",
      "type": "error"
    },
    {
      "inputs": [],
      "name": "InvalidInitialization",
      "type": "error"
    },
    {
      "inputs": [],
      "name": "InvalidMinGasPrice",
      "type": "error"
    },
    {
      "inputs": [
        {
          "internalType": "uint256",
          "name": "_newVal",
          "type": "uint256"
        }
      ],
      "name": "NewValueOutOfRange",
      "type": "error"
    },
    {
      "inputs": [
        {
          "internalType": "address",
          "name": "_value",
          "type": "address"
        }
      ],
      "name": "NotExist",
      "type": "error"
    },
    {
      "inputs": [],
      "name": "NotInitializing",
      "type": "error"
    },
    {
      "inputs": [
        {
          "internalType": "address",
          "name": "owner",
          "type": "address"
        }
      ],
      "name": "OwnableInvalidOwner",
      "type": "error"
    },
    {
      "inputs": [
        {
          "internalType": "address",
          "name": "account",
          "type": "address"
        }
      ],
      "name": "OwnableUnauthorizedAccount",
      "type": "error"
    },
    {
      "inputs": [],
      "name": "SenderNotAllowed",
      "type": "error"
    },
    {
      "inputs": [],
      "name": "ZeroAddress",
      "type": "error"
    },
    {
      "anonymous": false,
      "inputs": [
        {
          "indexed": false,
          "internalType": "uint256",
          "name": "_value",
          "type": "uint256"
        }
      ],
      "name": "BlockGasLimitChanged",
      "type": "event"
    },
    {
      "anonymous": false,
      "inputs": [
        {
          "indexed": false,
          "internalType": "uint256",
          "name": "_value",
          "type": "uint256"
        }
      ],
      "name": "GasPriceChanged",
      "type": "event"
    },
    {
      "anonymous": false,
      "inputs": [
        {
          "indexed": false,
          "internalType": "uint64",
          "name": "version",
          "type": "uint64"
        }
      ],
      "name": "Initialized",
      "type": "event"
    },
    {
      "anonymous": false,
      "inputs": [
        {
          "indexed": true,
          "internalType": "address",
          "name": "previousOwner",
          "type": "address"
        },
        {
          "indexed": true,
          "internalType": "address",
          "name": "newOwner",
          "type": "address"
        }
      ],
      "name": "OwnershipTransferred",
      "type": "event"
    },
    {
      "anonymous": false,
      "inputs": [
        {
          "indexed": false,
          "internalType": "string",
          "name": "funcSelector",
          "type": "string"
        }
      ],
      "name": "RemoveChangeAbleParameter",
      "type": "event"
    },
    {
      "anonymous": false,
      "inputs": [
        {
          "indexed": false,
          "internalType": "uint256",
          "name": "_blockGasLimit",
          "type": "uint256"
        }
      ],
      "name": "SetBlockGasLimit",
      "type": "event"
    },
    {
      "anonymous": false,
      "inputs": [
        {
          "indexed": false,
          "internalType": "string",
          "name": "setter",
          "type": "string"
        },
        {
          "indexed": false,
          "internalType": "string",
          "name": "getter",
          "type": "string"
        },
        {
          "indexed": false,
          "internalType": "uint256[]",
          "name": "params",
          "type": "uint256[]"
        }
      ],
      "name": "SetChangeAbleParameter",
      "type": "event"
    },
    {
      "anonymous": false,
      "inputs": [
        {
          "indexed": false,
          "internalType": "address",
          "name": "_value",
          "type": "address"
        }
      ],
      "name": "SetConnectivityTracker",
      "type": "event"
    },
    {
      "anonymous": false,
      "inputs": [
        {
          "indexed": false,
          "internalType": "uint256",
          "name": "_minGasPrice",
          "type": "uint256"
        }
      ],
      "name": "SetMinimumGasPrice",
      "type": "event"
    },
    {
      "inputs": [],
      "name": "ANNOUNCE_AVAILABILITY_SIGNATURE",
      "outputs": [
        {
          "internalType": "bytes4",
          "name": "",
          "type": "bytes4"
        }
      ],
      "stateMutability": "view",
      "type": "function"
    },
    {
      "inputs": [],
      "name": "REPORT_MALICIOUS_SIGNATURE",
      "outputs": [
        {
          "internalType": "bytes4",
          "name": "",
          "type": "bytes4"
        }
      ],
      "stateMutability": "view",
      "type": "function"
    },
    {
      "inputs": [],
      "name": "REPORT_MISSING_CONNECTIVITY_SELECTOR",
      "outputs": [
        {
          "internalType": "bytes4",
          "name": "",
          "type": "bytes4"
        }
      ],
      "stateMutability": "view",
      "type": "function"
    },
    {
      "inputs": [],
      "name": "REPORT_RECONNECT_SELECTOR",
      "outputs": [
        {
          "internalType": "bytes4",
          "name": "",
          "type": "bytes4"
        }
      ],
      "stateMutability": "view",
      "type": "function"
    },
    {
      "inputs": [],
      "name": "SET_VALIDATOR_IP",
      "outputs": [
        {
          "internalType": "bytes4",
          "name": "",
          "type": "bytes4"
        }
      ],
      "stateMutability": "view",
      "type": "function"
    },
    {
      "inputs": [],
      "name": "WRITE_ACKS_SIGNATURE",
      "outputs": [
        {
          "internalType": "bytes4",
          "name": "",
          "type": "bytes4"
        }
      ],
      "stateMutability": "view",
      "type": "function"
    },
    {
      "inputs": [],
      "name": "WRITE_PART_SIGNATURE",
      "outputs": [
        {
          "internalType": "bytes4",
          "name": "",
          "type": "bytes4"
        }
      ],
      "stateMutability": "view",
      "type": "function"
    },
    {
      "inputs": [
        {
          "internalType": "address",
          "name": "_sender",
          "type": "address"
        }
      ],
      "name": "addAllowedSender",
      "outputs": [],
      "stateMutability": "nonpayable",
      "type": "function"
    },
    {
      "inputs": [
        {
          "internalType": "bytes4",
          "name": "",
          "type": "bytes4"
        }
      ],
      "name": "allowedParameterRange",
      "outputs": [
        {
          "internalType": "bytes4",
          "name": "getter",
          "type": "bytes4"
        }
      ],
      "stateMutability": "view",
      "type": "function"
    },
    {
      "inputs": [],
      "name": "allowedSenders",
      "outputs": [
        {
          "internalType": "address[]",
          "name": "",
          "type": "address[]"
        }
      ],
      "stateMutability": "view",
      "type": "function"
    },
    {
      "inputs": [
        {
          "internalType": "address",
          "name": "_sender",
          "type": "address"
        },
        {
          "internalType": "address",
          "name": "_to",
          "type": "address"
        },
        {
          "internalType": "uint256",
          "name": "",
          "type": "uint256"
        },
        {
          "internalType": "uint256",
          "name": "_gasPrice",
          "type": "uint256"
        },
        {
          "internalType": "bytes",
          "name": "_data",
          "type": "bytes"
        }
      ],
      "name": "allowedTxTypes",
      "outputs": [
        {
          "internalType": "uint32",
          "name": "typesMask",
          "type": "uint32"
        },
        {
          "internalType": "bool",
          "name": "cache",
          "type": "bool"
        }
      ],
      "stateMutability": "view",
      "type": "function"
    },
    {
      "inputs": [],
      "name": "blockGasLimit",
      "outputs": [
        {
          "internalType": "uint256",
          "name": "",
          "type": "uint256"
        }
      ],
      "stateMutability": "view",
      "type": "function"
    },
    {
      "inputs": [],
      "name": "certifierContract",
      "outputs": [
        {
          "internalType": "contract ICertifier",
          "name": "",
          "type": "address"
        }
      ],
      "stateMutability": "view",
      "type": "function"
    },
    {
      "inputs": [],
      "name": "connectivityTracker",
      "outputs": [
        {
          "internalType": "contract IConnectivityTrackerHbbft",
          "name": "",
          "type": "address"
        }
      ],
      "stateMutability": "view",
      "type": "function"
    },
    {
      "inputs": [],
      "name": "contractName",
      "outputs": [
        {
          "internalType": "string",
          "name": "",
          "type": "string"
        }
      ],
      "stateMutability": "pure",
      "type": "function"
    },
    {
      "inputs": [],
      "name": "contractNameHash",
      "outputs": [
        {
          "internalType": "bytes32",
          "name": "",
          "type": "bytes32"
        }
      ],
      "stateMutability": "pure",
      "type": "function"
    },
    {
      "inputs": [],
      "name": "contractVersion",
      "outputs": [
        {
          "internalType": "uint256",
          "name": "",
          "type": "uint256"
        }
      ],
      "stateMutability": "pure",
      "type": "function"
    },
    {
      "inputs": [
        {
          "internalType": "string",
          "name": "_selector",
          "type": "string"
        }
      ],
      "name": "getAllowedParamsRange",
      "outputs": [
        {
          "components": [
            {
              "internalType": "bytes4",
              "name": "getter",
              "type": "bytes4"
            },
            {
              "internalType": "uint256[]",
              "name": "range",
              "type": "uint256[]"
            }
          ],
          "internalType": "struct ValueGuards.ParameterRange",
          "name": "",
          "type": "tuple"
        }
      ],
      "stateMutability": "view",
      "type": "function"
    },
    {
      "inputs": [
        {
          "internalType": "string",
          "name": "setter",
          "type": "string"
        },
        {
          "internalType": "string",
          "name": "getter",
          "type": "string"
        },
        {
          "internalType": "uint256[]",
          "name": "params",
          "type": "uint256[]"
        }
      ],
      "name": "initAllowedChangeableParameter",
      "outputs": [],
      "stateMutability": "nonpayable",
      "type": "function"
    },
    {
      "inputs": [
        {
          "internalType": "address[]",
          "name": "_allowed",
          "type": "address[]"
        },
        {
          "internalType": "address",
          "name": "_certifier",
          "type": "address"
        },
        {
          "internalType": "address",
          "name": "_validatorSet",
          "type": "address"
        },
        {
          "internalType": "address",
          "name": "_keyGenHistoryContract",
          "type": "address"
        },
        {
          "internalType": "address",
          "name": "_connectivityTracker",
          "type": "address"
        },
        {
          "internalType": "address",
          "name": "_contractOwner",
          "type": "address"
        }
      ],
      "name": "initialize",
      "outputs": [],
      "stateMutability": "nonpayable",
      "type": "function"
    },
    {
      "inputs": [
        {
          "internalType": "address",
          "name": "",
          "type": "address"
        }
      ],
      "name": "isSenderAllowed",
      "outputs": [
        {
          "internalType": "bool",
          "name": "",
          "type": "bool"
        }
      ],
      "stateMutability": "view",
      "type": "function"
    },
    {
      "inputs": [
        {
          "internalType": "bytes4",
          "name": "funcSelector",
          "type": "bytes4"
        },
        {
          "internalType": "uint256",
          "name": "newVal",
          "type": "uint256"
        }
      ],
      "name": "isWithinAllowedRange",
      "outputs": [
        {
          "internalType": "bool",
          "name": "",
          "type": "bool"
        }
      ],
      "stateMutability": "view",
      "type": "function"
    },
    {
      "inputs": [],
      "name": "keyGenHistoryContract",
      "outputs": [
        {
          "internalType": "contract IKeyGenHistory",
          "name": "",
          "type": "address"
        }
      ],
      "stateMutability": "view",
      "type": "function"
    },
    {
      "inputs": [],
      "name": "minimumGasPrice",
      "outputs": [
        {
          "internalType": "uint256",
          "name": "",
          "type": "uint256"
        }
      ],
      "stateMutability": "view",
      "type": "function"
    },
    {
      "inputs": [],
      "name": "owner",
      "outputs": [
        {
          "internalType": "address",
          "name": "",
          "type": "address"
        }
      ],
      "stateMutability": "view",
      "type": "function"
    },
    {
      "inputs": [
        {
          "internalType": "string",
          "name": "funcSelector",
          "type": "string"
        }
      ],
      "name": "removeAllowedChangeableParameter",
      "outputs": [],
      "stateMutability": "nonpayable",
      "type": "function"
    },
    {
      "inputs": [
        {
          "internalType": "address",
          "name": "_sender",
          "type": "address"
        }
      ],
      "name": "removeAllowedSender",
      "outputs": [],
      "stateMutability": "nonpayable",
      "type": "function"
    },
    {
      "inputs": [],
      "name": "renounceOwnership",
      "outputs": [],
      "stateMutability": "nonpayable",
      "type": "function"
    },
    {
      "inputs": [
        {
          "internalType": "string",
          "name": "setter",
          "type": "string"
        },
        {
          "internalType": "string",
          "name": "getter",
          "type": "string"
        },
        {
          "internalType": "uint256[]",
          "name": "params",
          "type": "uint256[]"
        }
      ],
      "name": "setAllowedChangeableParameter",
      "outputs": [],
      "stateMutability": "nonpayable",
      "type": "function"
    },
    {
      "inputs": [
        {
          "internalType": "uint256",
          "name": "_value",
          "type": "uint256"
        }
      ],
      "name": "setBlockGasLimit",
      "outputs": [],
      "stateMutability": "nonpayable",
      "type": "function"
    },
    {
      "inputs": [
        {
          "internalType": "address",
          "name": "_connectivityTracker",
          "type": "address"
        }
      ],
      "name": "setConnectivityTracker",
      "outputs": [],
      "stateMutability": "nonpayable",
      "type": "function"
    },
    {
      "inputs": [
        {
          "internalType": "uint256",
          "name": "_value",
          "type": "uint256"
        }
      ],
      "name": "setMinimumGasPrice",
      "outputs": [],
      "stateMutability": "nonpayable",
      "type": "function"
    },
    {
      "inputs": [
        {
          "internalType": "address",
          "name": "newOwner",
          "type": "address"
        }
      ],
      "name": "transferOwnership",
      "outputs": [],
      "stateMutability": "nonpayable",
      "type": "function"
    },
    {
      "inputs": [],
      "name": "validatorSetContract",
      "outputs": [
        {
          "internalType": "contract IValidatorSetHbbft",
          "name": "",
          "type": "address"
        }
      ],
      "stateMutability": "view",
      "type": "function"
    }
  ],
  "bytecode": "0x6080604052348015600f57600080fd5b506016601a565b60ca565b7ff0c57e16840df040f15088dc2f81fe391c3923bec73e23a9662efc9c229c6a00805468010000000000000000900460ff161560695760405163f92ee8a960e01b815260040160405180910390fd5b80546001600160401b039081161460c75780546001600160401b0319166001600160401b0390811782556040519081527fc7f505b2f371ae2175ee4913f4499e1f2633a7b5936321eed1cdaeb6115181d29060200160405180910390a15b50565b612da3806100d96000396000f3fe608060405234801561001057600080fd5b50600436106102265760003560e01c80638da5cb5b1161012a578063ba08d237116100bd578063d3ae79651161008c578063dfc8bf4e11610071578063dfc8bf4e146104f9578063efc784011461050c578063f2fde38b1461052f57600080fd5b8063d3ae7965146104e2578063df3cecf6146104f057600080fd5b8063ba08d23714610486578063c374bc23146104a9578063c746c8f4146104bc578063d249b31c146104cf57600080fd5b8063a69257f3116100f9578063a69257f314610411578063b47aef1f14610424578063b710c15d14610437578063b9056afa1461045757600080fd5b80638da5cb5b146103a457806392283634146103d45780639b9fb6d0146103f7578063a0a8e4601461040a57600080fd5b80635f0664bf116101bd57806375d0c0dc1161018c5780637877a797116101715780637877a7971461037a57806378ff69d51461038357806379167bdd1461039657600080fd5b806375d0c0dc1461032d578063782f01771461036c57600080fd5b80635f0664bf146102f657806366955469146103045780637086bcc114610317578063715018a61461032557600080fd5b806336e98ca8116101f957806336e98ca8146102a5578063469ab1e3146102ba578063471eab5c146102d05780635cb092a2146102e357600080fd5b80631a9ebeaa1461022b57806324bdf37b1461025b578063305d526c146102825780633272b28c14610290575b600080fd5b60025461023e906001600160a01b031681565b6040516001600160a01b0390911681526020015b60405180910390f35b61026963a42bdee960e01b81565b6040516001600160e01b03199091168152602001610252565b610269632b11904760e11b81565b610298610542565b6040516102529190612543565b6102b86102b3366004612656565b6105a4565b005b6102c2610658565b604051908152602001610252565b6102b86102de366004612768565b6106bf565b6102b86102f1366004612656565b610829565b6102696343bcce9f60e01b81565b60085461023e906001600160a01b031681565b6102696324473b9d60e21b81565b6102b8610831565b604080518082018252601681527f54585f5045524d495353494f4e5f434f4e5452414354000000000000000000006020820152905161025291906127d5565b610269630b53784960e21b81565b6102c260075481565b6102b8610391366004612768565b610845565b610269630311db7560e61b81565b7f9016d09d72d40fdae2fd8ceac6b6234c7706214fd39c1cd1e609a0528c199300546001600160a01b031661023e565b6102696103e2366004612800565b60006020819052908152604090205460e01b81565b6102b861040536600461281b565b6108c9565b60036102c2565b6102b861041f366004612858565b61093d565b60035461023e906001600160a01b031681565b61044a61044536600461281b565b6109de565b60405161025291906128ad565b61046a6104653660046128db565b610a86565b6040805163ffffffff9093168352901515602083015201610252565b610499610494366004612965565b611618565b6040519015158152602001610252565b6102b86104b736600461298f565b6117e9565b6102b86104ca366004612768565b611e4e565b6102b86104dd366004612858565b611e62565b61026963b2a6842160e01b81565b6102c260065481565b60055461023e906001600160a01b031681565b61049961051a366004612768565b60046020526000908152604090205460ff1681565b6102b861053d366004612768565b611ef7565b6060600180548060200260200160405190810160405280929190818152602001828054801561059a57602002820191906000526020600020905b81546001600160a01b0316815260019091019060200180831161057c575b5050505050905090565b6105ac611f32565b60408051808201825283516020808601919091206001600160e01b031990811683528183018581528751888401209091166000908152808352939093208251815463ffffffff191660e09190911c1781559251805192939261061492600185019201906124c9565b509050507f3d45a310c5a076ea07aa2947ca3c06cc2a8b3571065867ad6f8e7096a2c9d50a83838360405161064b93929190612a56565b60405180910390a1505050565b600061069460408051808201909152601681527f54585f5045524d495353494f4e5f434f4e545241435400000000000000000000602082015290565b6040516020016106a49190612a99565b60405160208183030381529060405280519060200120905090565b6106c7611f32565b6001600160a01b03811660009081526004602052604090205460ff166107105760405163d64efe6360e01b81526001600160a01b03821660048201526024015b60405180910390fd5b60015460005b81811015610806576001818154811061073157610731612ab5565b6000918252602090912001546001600160a01b03908116908416036107fe57600161075c8184612ae1565b8154811061076c5761076c612ab5565b600091825260209091200154600180546001600160a01b03909216918390811061079857610798612ab5565b9060005260206000200160006101000a8154816001600160a01b0302191690836001600160a01b0316021790555060018054806107d7576107d7612af4565b600082815260209020810160001990810180546001600160a01b0319169055019055610806565b600101610716565b50506001600160a01b03166000908152600460205260409020805460ff19169055565b6105ac611f8d565b610839611f32565b6108436000611fdb565b565b61084d611f32565b6001600160a01b0381166108745760405163d92e233d60e01b815260040160405180910390fd5b600880546001600160a01b0319166001600160a01b0383169081179091556040519081527f387d29e18823e432432b6098ebeee33beebdb128d2234c7f486c26447b738edd906020015b60405180910390a150565b6108d1611f32565b80516020808301919091206001600160e01b03191660009081529081905260408120805463ffffffff191681559061090c6001830182612514565b50507f92d44565a40fe29702ffa146ddaa3bb133d4077f5312d682d0a2632a9bc73a8a816040516108be91906127d5565b610945611f32565b8061095c6000356001600160e01b03191682611618565b61097c576040516373330d9b60e01b815260048101829052602401610707565b6305f5e1008210156109a157604051635251cbd760e01b815260040160405180910390fd5b60078290556040518281527fda69de0cab556da57726688a057caf911b2e8f850c45b6edf359bacf3db378e8906020015b60405180910390a15050565b60408051808201909152600081526060602082015281516020808401919091206001600160e01b0319908116600090815280835260409081902081518083018352815460e01b9093168352600181018054835181870281018701909452808452939491938583019392830182828015610a7657602002820191906000526020600020905b815481526020019060010190808311610a62575b5050505050815250509050919050565b6001600160a01b038516600090815260046020526040812054819060ff1615610ab8575063ffffffff9050600061160e565b6000805b6004855110158015610ace5750600481105b15610b3057610ade816008612b0a565b858281518110610af057610af0612ab5565b01602001517fff0000000000000000000000000000000000000000000000000000000000000016901c919091179080610b2881612b21565b915050610abc565b506005546001600160a01b0390811690881603610f515762ee248b60e61b6001600160e01b0319821601610c81576000604060048651610b709190612ae1565b11610b885760048551610b839190612ae1565b610b8b565b60405b90506000610b9b8683600461204c565b905060008082806020019051810190610bb49190612b3a565b915091506000600560009054906101000a90046001600160a01b03166001600160a01b031663a670eb568e85856040518463ffffffff1660e01b8152600401610c1e939291906001600160a01b039384168152919092166020820152604081019190915260600190565b6040805180830381865afa158015610c3a573d6000803e3d6000fd5b505050506040513d601f19601f82011682018060405250810190610c5e9190612b78565b50905080610c6d576000610c70565b60025b60009750975050505050505061160e565b63bc43316160e01b6001600160e01b0319821601610d2157600554604051630f51726f60e41b81526001600160a01b038a811660048301529091169063f51726f090602401602060405180830381865afa158015610ce3573d6000803e3d6000fd5b505050506040513d601f19601f82011682018060405250810190610d079190612bab565b610d12576000610d15565b60025b6000925092505061160e565b635bd4211760e01b6001600160e01b0319821601610ec5576005546040516307b9342f60e21b81526001600160a01b038a811660048301526000921690631ee4d0bc90602401602060405180830381865afa158015610d84573d6000803e3d6000fd5b505050506040513d601f19601f82011682018060405250810190610da89190612bc6565b90506001600160a01b03811615610eb757600560009054906101000a90046001600160a01b03166001600160a01b0316638e68dce46040518163ffffffff1660e01b8152600401602060405180830381865afa158015610e0c573d6000803e3d6000fd5b505050506040513d601f19601f82011682018060405250810190610e309190612bc6565b60405163a711e6a160e01b81526001600160a01b038381166004830152919091169063a711e6a190602401602060405180830381865afa158015610e78573d6000803e3d6000fd5b505050506040513d601f19601f82011682018060405250810190610e9c9190612bab565b610ea7576000610eaa565b60025b600093509350505061160e565b60008093509350505061160e565b8415610f515760055460405163facd743b60e01b81526001600160a01b038a811660048301529091169063facd743b90602401602060405180830381865afa158015610f15573d6000803e3d6000fd5b505050506040513d601f19601f82011682018060405250810190610f399190612bab565b610f44576002610d15565b600080925092505061160e565b6003546001600160a01b03908116908816036113d8576334ac87b760e21b6001600160e01b03198216016111225760055460405163014e28d960e41b81526001600160a01b038a8116600483015260019216906314e28d9090602401602060405180830381865afa158015610fca573d6000803e3d6000fd5b505050506040513d601f19601f82011682018060405250810190610fee9190612bf9565b6005811115610fff57610fff612be3565b03610f445760248451101561101b57600080925092505061160e565b6000611028600486612119565b9050600560009054906101000a90046001600160a01b03166001600160a01b0316638e68dce46040518163ffffffff1660e01b8152600401602060405180830381865afa15801561107d573d6000803e3d6000fd5b505050506040513d601f19601f820116820180604052508101906110a19190612bc6565b6001600160a01b031663794c0c686040518163ffffffff1660e01b8152600401602060405180830381865afa1580156110de573d6000803e3d6000fd5b505050506040513d601f19601f820116820180604052508101906111029190612c1a565b61110d906001612c33565b8103610eb7576002600093509350505061160e565b6354ee6fb960e11b6001600160e01b03198216016113d85760055460405163014e28d960e41b81526001600160a01b038a8116600483015260039216906314e28d9090602401602060405180830381865afa158015611185573d6000803e3d6000fd5b505050506040513d601f19601f820116820180604052508101906111a99190612bf9565b60058111156111ba576111ba612be3565b03610f44576024845110156111d657600080925092505061160e565b600560009054906101000a90046001600160a01b03166001600160a01b0316638e68dce46040518163ffffffff1660e01b8152600401602060405180830381865afa158015611229573d6000803e3d6000fd5b505050506040513d601f19601f8201168201806040525081019061124d9190612bc6565b6001600160a01b031663794c0c686040518163ffffffff1660e01b8152600401602060405180830381865afa15801561128a573d6000803e3d6000fd5b505050506040513d601f19601f820116820180604052508101906112ae9190612c1a565b6112b9906001612c33565b6112c4600486612119565b036112d75760026000925092505061160e565b600560009054906101000a90046001600160a01b03166001600160a01b0316638e68dce46040518163ffffffff1660e01b8152600401602060405180830381865afa15801561132a573d6000803e3d6000fd5b505050506040513d601f19601f8201168201806040525081019061134e9190612bc6565b6001600160a01b031663794c0c686040518163ffffffff1660e01b8152600401602060405180830381865afa15801561138b573d6000803e3d6000fd5b505050506040513d601f19601f820116820180604052508101906113af9190612c1a565b6113ba906001612c33565b6113c5602486612119565b03610f445760026000925092505061160e565b6008546001600160a01b0390811690881603611437576001600160e01b031981166324473b9d60e21b148061141d57506001600160e01b0319811663b2a6842160e01b145b156114375761142d888286612191565b925092505061160e565b60055460405163facd743b60e01b81526001600160a01b038a811660048301529091169063facd743b90602401602060405180830381865afa158015611481573d6000803e3d6000fd5b505050506040513d601f19601f820116820180604052508101906114a59190612bab565b80156114b15750600085115b156114dd576000886001600160a01b031631116114cf576000610d15565b60016000925092505061160e565b60055460405163facd743b60e01b81526001600160a01b0389811660048301529091169063facd743b90602401602060405180830381865afa158015611527573d6000803e3d6000fd5b505050506040513d601f19601f8201168201806040525081019061154b9190612bab565b1561155d57600080925092505061160e565b846000036115ef576002546040516303a388eb60e61b81526001600160a01b038a811660048301529091169063e8e23ac090602401602060405180830381865afa1580156115af573d6000803e3d6000fd5b505050506040513d601f19601f820116820180604052508101906115d39190612bab565b6115de576000610d15565b63ffffffff6000925092505061160e565b600654851015611600576000611606565b63ffffffff5b600092509250505b9550959350505050565b6001600160e01b031980831660009081526020818152604080832081518083018352815460e01b90951685526001810180548351818602810186019094528084529495869590949293858401939092919083018282801561169857602002820191906000526020600020905b815481526020019060010190808311611684575b50505050508152505090508060200151516000036116ba5760009150506117e3565b602081015181516000906116cd90612309565b905060005b82518110156117da57818382815181106116ee576116ee612ab5565b6020026020010151036117d2576000808211611724578360008151811061171757611717612ab5565b6020026020010151611749565b83611730600184612ae1565b8151811061174057611740612ab5565b60200260200101515b905060006001855161175b9190612ae1565b831061178d5784600186516117709190612ae1565b8151811061178057611780612ab5565b60200260200101516117b2565b84611799846001612c33565b815181106117a9576117a9612ab5565b60200260200101515b90508188141580156117c45750808814155b1596505050505050506117e3565b6001016116d2565b50600093505050505b92915050565b7ff0c57e16840df040f15088dc2f81fe391c3923bec73e23a9662efc9c229c6a00805468010000000000000000810460ff16159067ffffffffffffffff166000811580156118345750825b905060008267ffffffffffffffff1660011480156118515750303b155b90508115801561185f575080155b1561187d5760405163f92ee8a960e01b815260040160405180910390fd5b845467ffffffffffffffff1916600117855583156118b157845468ff00000000000000001916680100000000000000001785555b6001600160a01b03861615806118ce57506001600160a01b038a16155b806118e057506001600160a01b038916155b806118f257506001600160a01b038816155b8061190457506001600160a01b038716155b156119225760405163d92e233d60e01b815260040160405180910390fd5b61192b866123e0565b60005b8b81101561196d576119658d8d8381811061194b5761194b612ab5565b90506020020160208101906119609190612768565b6123f1565b60010161192e565b50600280546001600160a01b038c81166001600160a01b031992831617909255600580548c8416908316179055600380548b841690831617905560088054928a1692909116919091179055633b9aca006006556305f5e10060075560408051600b808252610180820190925260009160208201610160803683370190505090506305f5e10081600081518110611a0557611a05612ab5565b602002602001018181525050630bebc20081600181518110611a2957611a29612ab5565b6020026020010181815250506317d7840081600281518110611a4d57611a4d612ab5565b6020026020010181815250506323c3460081600381518110611a7157611a71612ab5565b602002602001018181525050632faf080081600481518110611a9557611a95612ab5565b602002602001018181525050633b9aca0081600581518110611ab957611ab9612ab5565b602002602001018181525050637735940081600681518110611add57611add612ab5565b60200260200101818152505063ee6b280081600781518110611b0157611b01612ab5565b602002602001018181525050640165a0bc0081600881518110611b2657611b26612ab5565b6020026020010181815250506401dcd6500081600981518110611b4b57611b4b612ab5565b6020026020010181815250506402540be40081600a81518110611b7057611b70612ab5565b602002602001018181525050611bf16040518060400160405280601b81526020017f7365744d696e696d756d47617350726963652875696e743235362900000000008152506040518060400160405280601181526020017f6d696e696d756d4761735072696365282900000000000000000000000000000081525083610829565b60408051600a808252610160820190925260009160208201610140803683370190505090506305f5e10081600081518110611c2e57611c2e612ab5565b602002602001018181525050630bebc20081600181518110611c5257611c52612ab5565b6020026020010181815250506311e1a30081600281518110611c7657611c76612ab5565b6020026020010181815250506317d7840081600381518110611c9a57611c9a612ab5565b602002602001018181525050631dcd650081600481518110611cbe57611cbe612ab5565b6020026020010181815250506323c3460081600581518110611ce257611ce2612ab5565b6020026020010181815250506329b9270081600681518110611d0657611d06612ab5565b602002602001018181525050632faf080081600781518110611d2a57611d2a612ab5565b6020026020010181815250506335a4e90081600881518110611d4e57611d4e612ab5565b602002602001018181525050633b9aca0081600981518110611d7257611d72612ab5565b602002602001018181525050611df36040518060400160405280601981526020017f736574426c6f636b4761734c696d69742875696e7432353629000000000000008152506040518060400160405280600f81526020017f626c6f636b4761734c696d69742829000000000000000000000000000000000081525083610829565b50508315611e4057845468ff000000000000000019168555604051600181527fc7f505b2f371ae2175ee4913f4499e1f2633a7b5936321eed1cdaeb6115181d29060200160405180910390a15b505050505050505050505050565b611e56611f32565b611e5f816123f1565b50565b611e6a611f32565b80611e816000356001600160e01b03191682611618565b611ea1576040516373330d9b60e01b815260048101829052602401610707565b81600003611ec2576040516344012ef160e01b815260040160405180910390fd5b60068290556040518281527f52264b89e0fceafb26e79fd49ef8a366eb6297483bf4035b027f0c99a7ad512e906020016109d2565b611eff611f32565b6001600160a01b038116611f2957604051631e4fbdf760e01b815260006004820152602401610707565b611e5f81611fdb565b33611f647f9016d09d72d40fdae2fd8ceac6b6234c7706214fd39c1cd1e609a0528c199300546001600160a01b031690565b6001600160a01b0316146108435760405163118cdaa760e01b8152336004820152602401610707565b7ff0c57e16840df040f15088dc2f81fe391c3923bec73e23a9662efc9c229c6a005468010000000000000000900460ff1661084357604051631afcd79f60e31b815260040160405180910390fd5b7f9016d09d72d40fdae2fd8ceac6b6234c7706214fd39c1cd1e609a0528c19930080546001600160a01b031981166001600160a01b03848116918217845560405192169182907f8be0079c531659141344cd1fd0a4f28419497f9722a3daafe3b4186f6b6457e090600090a3505050565b606060008367ffffffffffffffff81111561206957612069612590565b6040519080825280601f01601f191660200182016040528015612093576020820181803683370190505b50905060005b8481101561211057856120ac8583612c33565b815181106120bc576120bc612ab5565b602001015160f81c60f81b8282815181106120d9576120d9612ab5565b60200101907effffffffffffffffffffffffffffffffffffffffffffffffffffffffffffff1916908160001a905350600101612099565b50949350505050565b600080805b60208110156121895761213281601f612ae1565b61213d906008612b0a565b612148906002612d2a565b846121538388612c33565b8151811061216357612163612ab5565b0160200151612175919060f81c612b0a565b61217f9083612c33565b915060010161211e565b509392505050565b60008060006060600485516121a69190612ae1565b116121be57600484516121b99190612ae1565b6121c1565b60605b905060006121d18583600461204c565b90506000806000838060200190518101906121ec9190612d36565b91945092509050631bb8c46360e21b6001600160e01b03198a160161229a5760085460405163060b284960e01b81526001600160a01b038c8116600483015285811660248301526044820185905260648201849052600092169063060b2849906084015b60006040518083038186803b15801561226857600080fd5b505afa925050508015612279575060015b61228557506000612289565b5060025b965060009550612301945050505050565b634d597bdf60e01b6001600160e01b03198a16016122fb57600854604051632fb625a360e21b81526001600160a01b038c8116600483015285811660248301526044820185905260648201849052600092169063bed8968c90608401612250565b50505050505b935093915050565b60408051600481526024810182526020810180517bffffffffffffffffffffffffffffffffffffffffffffffffffffffff166001600160e01b03198516179052905160009190829081903090612360908590612a99565b600060405180830381855afa9150503d806000811461239b576040519150601f19603f3d011682016040523d82523d6000602084013e6123a0565b606091505b5091509150816123c357604051635fbab09b60e11b815260040160405180910390fd5b808060200190518101906123d79190612c1a565b95945050505050565b6123e8611f8d565b611e5f816124c1565b6001600160a01b0381166124185760405163d92e233d60e01b815260040160405180910390fd5b6001600160a01b03811660009081526004602052604090205460ff161561245d576040516303e49a0960e51b81526001600160a01b0382166004820152602401610707565b6001805480820182557fb10e2d527612073b26eecdfd717e6a320cf44b4afac2b0732d9fcbe2b7fa0cf60180546001600160a01b039093166001600160a01b031990931683179055600091825260046020526040909120805460ff19169091179055565b611eff611f8d565b828054828255906000526020600020908101928215612504579160200282015b828111156125045782518255916020019190600101906124e9565b5061251092915061252e565b5090565b5080546000825590600052602060002090810190611e5f91905b5b80821115612510576000815560010161252f565b6020808252825182820181905260009190848201906040850190845b818110156125845783516001600160a01b03168352928401929184019160010161255f565b50909695505050505050565b634e487b7160e01b600052604160045260246000fd5b604051601f8201601f1916810167ffffffffffffffff811182821017156125cf576125cf612590565b604052919050565b600067ffffffffffffffff8311156125f1576125f1612590565b612604601f8401601f19166020016125a6565b905082815283838301111561261857600080fd5b828260208301376000602084830101529392505050565b600082601f83011261264057600080fd5b61264f838335602085016125d7565b9392505050565b60008060006060848603121561266b57600080fd5b833567ffffffffffffffff8082111561268357600080fd5b61268f8783880161262f565b94506020915081860135818111156126a657600080fd5b6126b28882890161262f565b9450506040860135818111156126c757600080fd5b8601601f810188136126d857600080fd5b8035828111156126ea576126ea612590565b8060051b92506126fb8484016125a6565b818152928201840192848101908a85111561271557600080fd5b928501925b848410156127335783358252928501929085019061271a565b8096505050505050509250925092565b6001600160a01b0381168114611e5f57600080fd5b803561276381612743565b919050565b60006020828403121561277a57600080fd5b813561264f81612743565b60005b838110156127a0578181015183820152602001612788565b50506000910152565b600081518084526127c1816020860160208601612785565b601f01601f19169290920160200192915050565b60208152600061264f60208301846127a9565b80356001600160e01b03198116811461276357600080fd5b60006020828403121561281257600080fd5b61264f826127e8565b60006020828403121561282d57600080fd5b813567ffffffffffffffff81111561284457600080fd5b6128508482850161262f565b949350505050565b60006020828403121561286a57600080fd5b5035919050565b60008151808452602080850194506020840160005b838110156128a257815187529582019590820190600101612886565b509495945050505050565b602080825282516001600160e01b031916828201528201516040808301526000906128506060840182612871565b600080600080600060a086880312156128f357600080fd5b85356128fe81612743565b9450602086013561290e81612743565b93506040860135925060608601359150608086013567ffffffffffffffff81111561293857600080fd5b8601601f8101881361294957600080fd5b612958888235602084016125d7565b9150509295509295909350565b6000806040838503121561297857600080fd5b612981836127e8565b946020939093013593505050565b600080600080600080600060c0888a0312156129aa57600080fd5b873567ffffffffffffffff808211156129c257600080fd5b818a0191508a601f8301126129d657600080fd5b8135818111156129e557600080fd5b8b60208260051b85010111156129fa57600080fd5b602092830199509750612a10918a019050612758565b9450612a1e60408901612758565b9350612a2c60608901612758565b9250612a3a60808901612758565b9150612a4860a08901612758565b905092959891949750929550565b606081526000612a6960608301866127a9565b8281036020840152612a7b81866127a9565b90508281036040840152612a8f8185612871565b9695505050505050565b60008251612aab818460208701612785565b9190910192915050565b634e487b7160e01b600052603260045260246000fd5b634e487b7160e01b600052601160045260246000fd5b818103818111156117e3576117e3612acb565b634e487b7160e01b600052603160045260246000fd5b80820281158282048414176117e3576117e3612acb565b600060018201612b3357612b33612acb565b5060010190565b60008060408385031215612b4d57600080fd5b8251612b5881612743565b6020939093015192949293505050565b8051801515811461276357600080fd5b60008060408385031215612b8b57600080fd5b612b9483612b68565b9150612ba260208401612b68565b90509250929050565b600060208284031215612bbd57600080fd5b61264f82612b68565b600060208284031215612bd857600080fd5b815161264f81612743565b634e487b7160e01b600052602160045260246000fd5b600060208284031215612c0b57600080fd5b81516006811061264f57600080fd5b600060208284031215612c2c57600080fd5b5051919050565b808201808211156117e3576117e3612acb565b600181815b80851115612c81578160001904821115612c6757612c67612acb565b80851615612c7457918102915b93841c9390800290612c4b565b509250929050565b600082612c98575060016117e3565b81612ca5575060006117e3565b8160018114612cbb5760028114612cc557612ce1565b60019150506117e3565b60ff841115612cd657612cd6612acb565b50506001821b6117e3565b5060208310610133831016604e8410600b8410161715612d04575081810a6117e3565b612d0e8383612c46565b8060001904821115612d2257612d22612acb565b029392505050565b600061264f8383612c89565b600080600060608486031215612d4b57600080fd5b8351612d5681612743565b60208501516040909501519096949550939250505056fea26469706673582212203c7256b0df4469b5097a942d1fa9d8a22c6a670e1b5471dc51ce88822280a9d664736f6c63430008190033",
  "linkReferences": {},
  "deployedLinkReferences": {}
}