{
  "_format": "hh-sol-artifact-1",
  "contractName": "TxPermissionHbbft",
  "sourceName": "contracts/TxPermissionHbbft.sol",
  "abi": [
    {
      "inputs": [],
      "stateMutability": "nonpayable",
      "type": "constructor"
    },
    {
      "inputs": [
        {
          "internalType": "address",
          "name": "_value",
          "type": "address"
        }
      ],
      "name": "AlreadyExist",
      "type": "error"
    },
    {
      "inputs": [],
      "name": "GetterCallFailed",
      "type": "error"
    },
    {
      "inputs": [],
      "name": "InvalidBlockGasLimit",
      "type": "error"
    },
    {
      "inputs": [],
      "name": "InvalidInitialization",
      "type": "error"
    },
    {
      "inputs": [],
      "name": "InvalidMinGasPrice",
      "type": "error"
    },
    {
      "inputs": [
        {
          "internalType": "uint256",
          "name": "_newVal",
          "type": "uint256"
        }
      ],
      "name": "NewValueOutOfRange",
      "type": "error"
    },
    {
      "inputs": [
        {
          "internalType": "address",
          "name": "_value",
          "type": "address"
        }
      ],
      "name": "NotExist",
      "type": "error"
    },
    {
      "inputs": [],
      "name": "NotInitializing",
      "type": "error"
    },
    {
      "inputs": [
        {
          "internalType": "address",
          "name": "owner",
          "type": "address"
        }
      ],
      "name": "OwnableInvalidOwner",
      "type": "error"
    },
    {
      "inputs": [
        {
          "internalType": "address",
          "name": "account",
          "type": "address"
        }
      ],
      "name": "OwnableUnauthorizedAccount",
      "type": "error"
    },
    {
      "inputs": [],
      "name": "SenderNotAllowed",
      "type": "error"
    },
    {
      "inputs": [],
      "name": "ZeroAddress",
      "type": "error"
    },
    {
      "anonymous": false,
      "inputs": [
        {
          "indexed": false,
          "internalType": "uint256",
          "name": "_value",
          "type": "uint256"
        }
      ],
      "name": "BlockGasLimitChanged",
      "type": "event"
    },
    {
      "anonymous": false,
      "inputs": [
        {
          "indexed": false,
          "internalType": "uint256",
          "name": "_value",
          "type": "uint256"
        }
      ],
      "name": "GasPriceChanged",
      "type": "event"
    },
    {
      "anonymous": false,
      "inputs": [
        {
          "indexed": false,
          "internalType": "uint64",
          "name": "version",
          "type": "uint64"
        }
      ],
      "name": "Initialized",
      "type": "event"
    },
    {
      "anonymous": false,
      "inputs": [
        {
          "indexed": true,
          "internalType": "address",
          "name": "previousOwner",
          "type": "address"
        },
        {
          "indexed": true,
          "internalType": "address",
          "name": "newOwner",
          "type": "address"
        }
      ],
      "name": "OwnershipTransferred",
      "type": "event"
    },
    {
      "anonymous": false,
      "inputs": [
        {
          "indexed": false,
          "internalType": "bytes4",
          "name": "funcSelector",
          "type": "bytes4"
        }
      ],
      "name": "RemoveChangeableParameter",
      "type": "event"
    },
    {
      "anonymous": false,
      "inputs": [
        {
          "indexed": false,
          "internalType": "uint256",
          "name": "_blockGasLimit",
          "type": "uint256"
        }
      ],
      "name": "SetBlockGasLimit",
      "type": "event"
    },
    {
      "anonymous": false,
      "inputs": [
        {
          "indexed": false,
          "internalType": "bytes4",
          "name": "setter",
          "type": "bytes4"
        },
        {
          "indexed": false,
          "internalType": "bytes4",
          "name": "getter",
          "type": "bytes4"
        },
        {
          "indexed": false,
          "internalType": "uint256[]",
          "name": "params",
          "type": "uint256[]"
        }
      ],
      "name": "SetChangeableParameter",
      "type": "event"
    },
    {
      "anonymous": false,
      "inputs": [
        {
          "indexed": false,
          "internalType": "address",
          "name": "_value",
          "type": "address"
        }
      ],
      "name": "SetConnectivityTracker",
      "type": "event"
    },
    {
      "anonymous": false,
      "inputs": [
        {
          "indexed": false,
          "internalType": "uint256",
          "name": "_minGasPrice",
          "type": "uint256"
        }
      ],
      "name": "SetMinimumGasPrice",
      "type": "event"
    },
    {
      "inputs": [],
      "name": "ANNOUNCE_AVAILABILITY_SIGNATURE",
      "outputs": [
        {
          "internalType": "bytes4",
          "name": "",
          "type": "bytes4"
        }
      ],
      "stateMutability": "view",
      "type": "function"
    },
    {
      "inputs": [],
      "name": "REPORT_MISSING_CONNECTIVITY_SELECTOR",
      "outputs": [
        {
          "internalType": "bytes4",
          "name": "",
          "type": "bytes4"
        }
      ],
      "stateMutability": "view",
      "type": "function"
    },
    {
      "inputs": [],
      "name": "REPORT_RECONNECT_SELECTOR",
      "outputs": [
        {
          "internalType": "bytes4",
          "name": "",
          "type": "bytes4"
        }
      ],
      "stateMutability": "view",
      "type": "function"
    },
    {
      "inputs": [],
      "name": "SET_VALIDATOR_IP",
      "outputs": [
        {
          "internalType": "bytes4",
          "name": "",
          "type": "bytes4"
        }
      ],
      "stateMutability": "view",
      "type": "function"
    },
    {
      "inputs": [],
      "name": "WRITE_ACKS_SIGNATURE",
      "outputs": [
        {
          "internalType": "bytes4",
          "name": "",
          "type": "bytes4"
        }
      ],
      "stateMutability": "view",
      "type": "function"
    },
    {
      "inputs": [],
      "name": "WRITE_PART_SIGNATURE",
      "outputs": [
        {
          "internalType": "bytes4",
          "name": "",
          "type": "bytes4"
        }
      ],
      "stateMutability": "view",
      "type": "function"
    },
    {
      "inputs": [
        {
          "internalType": "address",
          "name": "_sender",
          "type": "address"
        }
      ],
      "name": "addAllowedSender",
      "outputs": [],
      "stateMutability": "nonpayable",
      "type": "function"
    },
    {
      "inputs": [],
      "name": "allowedSenders",
      "outputs": [
        {
          "internalType": "address[]",
          "name": "",
          "type": "address[]"
        }
      ],
      "stateMutability": "view",
      "type": "function"
    },
    {
      "inputs": [
        {
          "internalType": "address",
          "name": "_sender",
          "type": "address"
        },
        {
          "internalType": "address",
          "name": "_to",
          "type": "address"
        },
        {
          "internalType": "uint256",
          "name": "",
          "type": "uint256"
        },
        {
          "internalType": "uint256",
          "name": "_gasPrice",
          "type": "uint256"
        },
        {
          "internalType": "bytes",
          "name": "_data",
          "type": "bytes"
        }
      ],
      "name": "allowedTxTypes",
      "outputs": [
        {
          "internalType": "uint32",
          "name": "typesMask",
          "type": "uint32"
        },
        {
          "internalType": "bool",
          "name": "cache",
          "type": "bool"
        }
      ],
      "stateMutability": "view",
      "type": "function"
    },
    {
      "inputs": [],
      "name": "blockGasLimit",
      "outputs": [
        {
          "internalType": "uint256",
          "name": "",
          "type": "uint256"
        }
      ],
      "stateMutability": "view",
      "type": "function"
    },
    {
      "inputs": [],
      "name": "certifierContract",
      "outputs": [
        {
          "internalType": "contract ICertifier",
          "name": "",
          "type": "address"
        }
      ],
      "stateMutability": "view",
      "type": "function"
    },
    {
      "inputs": [],
      "name": "connectivityTracker",
      "outputs": [
        {
          "internalType": "contract IConnectivityTrackerHbbft",
          "name": "",
          "type": "address"
        }
      ],
      "stateMutability": "view",
      "type": "function"
    },
    {
      "inputs": [],
      "name": "contractName",
      "outputs": [
        {
          "internalType": "string",
          "name": "",
          "type": "string"
        }
      ],
      "stateMutability": "pure",
      "type": "function"
    },
    {
      "inputs": [],
      "name": "contractNameHash",
      "outputs": [
        {
          "internalType": "bytes32",
          "name": "",
          "type": "bytes32"
        }
      ],
      "stateMutability": "pure",
      "type": "function"
    },
    {
      "inputs": [],
      "name": "contractVersion",
      "outputs": [
        {
          "internalType": "uint256",
          "name": "",
          "type": "uint256"
        }
      ],
      "stateMutability": "pure",
      "type": "function"
    },
    {
      "inputs": [
        {
          "internalType": "string",
          "name": "_selector",
          "type": "string"
        }
      ],
      "name": "getAllowedParamsRange",
      "outputs": [
        {
          "components": [
            {
              "internalType": "bytes4",
              "name": "getter",
              "type": "bytes4"
            },
            {
              "internalType": "uint256[]",
              "name": "range",
              "type": "uint256[]"
            }
          ],
          "internalType": "struct ValueGuards.ParameterRange",
          "name": "",
          "type": "tuple"
        }
      ],
      "stateMutability": "view",
      "type": "function"
    },
    {
      "inputs": [
        {
          "internalType": "bytes4",
          "name": "_selector",
          "type": "bytes4"
        }
      ],
      "name": "getAllowedParamsRangeWithSelector",
      "outputs": [
        {
          "components": [
            {
              "internalType": "bytes4",
              "name": "getter",
              "type": "bytes4"
            },
            {
              "internalType": "uint256[]",
              "name": "range",
              "type": "uint256[]"
            }
          ],
          "internalType": "struct ValueGuards.ParameterRange",
          "name": "",
          "type": "tuple"
        }
      ],
      "stateMutability": "view",
      "type": "function"
    },
    {
      "inputs": [
        {
          "internalType": "address[]",
          "name": "_allowed",
          "type": "address[]"
        },
        {
          "internalType": "address",
          "name": "_certifier",
          "type": "address"
        },
        {
          "internalType": "address",
          "name": "_validatorSet",
          "type": "address"
        },
        {
          "internalType": "address",
          "name": "_keyGenHistoryContract",
          "type": "address"
        },
        {
          "internalType": "address",
          "name": "_connectivityTracker",
          "type": "address"
        },
        {
          "internalType": "address",
          "name": "_contractOwner",
          "type": "address"
        }
      ],
      "name": "initialize",
      "outputs": [],
      "stateMutability": "nonpayable",
      "type": "function"
    },
    {
      "inputs": [
        {
          "internalType": "address",
          "name": "",
          "type": "address"
        }
      ],
      "name": "isSenderAllowed",
      "outputs": [
        {
          "internalType": "bool",
          "name": "",
          "type": "bool"
        }
      ],
      "stateMutability": "view",
      "type": "function"
    },
    {
      "inputs": [
        {
          "internalType": "bytes4",
          "name": "funcSelector",
          "type": "bytes4"
        },
        {
          "internalType": "uint256",
          "name": "newVal",
          "type": "uint256"
        }
      ],
      "name": "isWithinAllowedRange",
      "outputs": [
        {
          "internalType": "bool",
          "name": "",
          "type": "bool"
        }
      ],
      "stateMutability": "view",
      "type": "function"
    },
    {
      "inputs": [],
      "name": "keyGenHistoryContract",
      "outputs": [
        {
          "internalType": "contract IKeyGenHistory",
          "name": "",
          "type": "address"
        }
      ],
      "stateMutability": "view",
      "type": "function"
    },
    {
      "inputs": [],
      "name": "minimumGasPrice",
      "outputs": [
        {
          "internalType": "uint256",
          "name": "",
          "type": "uint256"
        }
      ],
      "stateMutability": "view",
      "type": "function"
    },
    {
      "inputs": [],
      "name": "owner",
      "outputs": [
        {
          "internalType": "address",
          "name": "",
          "type": "address"
        }
      ],
      "stateMutability": "view",
      "type": "function"
    },
    {
      "inputs": [
        {
          "internalType": "bytes4",
          "name": "funcSelector",
          "type": "bytes4"
        }
      ],
      "name": "removeAllowedChangeableParameter",
      "outputs": [],
      "stateMutability": "nonpayable",
      "type": "function"
    },
    {
      "inputs": [
        {
          "internalType": "address",
          "name": "_sender",
          "type": "address"
        }
      ],
      "name": "removeAllowedSender",
      "outputs": [],
      "stateMutability": "nonpayable",
      "type": "function"
    },
    {
      "inputs": [],
      "name": "renounceOwnership",
      "outputs": [],
      "stateMutability": "nonpayable",
      "type": "function"
    },
    {
      "inputs": [
        {
          "internalType": "bytes4",
          "name": "setter",
          "type": "bytes4"
        },
        {
          "internalType": "bytes4",
          "name": "getter",
          "type": "bytes4"
        },
        {
          "internalType": "uint256[]",
          "name": "params",
          "type": "uint256[]"
        }
      ],
      "name": "setAllowedChangeableParameter",
      "outputs": [],
      "stateMutability": "nonpayable",
      "type": "function"
    },
    {
      "inputs": [
        {
          "internalType": "uint256",
          "name": "_value",
          "type": "uint256"
        }
      ],
      "name": "setBlockGasLimit",
      "outputs": [],
      "stateMutability": "nonpayable",
      "type": "function"
    },
    {
      "inputs": [
        {
          "internalType": "address",
          "name": "_connectivityTracker",
          "type": "address"
        }
      ],
      "name": "setConnectivityTracker",
      "outputs": [],
      "stateMutability": "nonpayable",
      "type": "function"
    },
    {
      "inputs": [
        {
          "internalType": "uint256",
          "name": "_value",
          "type": "uint256"
        }
      ],
      "name": "setMinimumGasPrice",
      "outputs": [],
      "stateMutability": "nonpayable",
      "type": "function"
    },
    {
      "inputs": [
        {
          "internalType": "address",
          "name": "newOwner",
          "type": "address"
        }
      ],
      "name": "transferOwnership",
      "outputs": [],
      "stateMutability": "nonpayable",
      "type": "function"
    },
    {
      "inputs": [],
      "name": "validatorSetContract",
      "outputs": [
        {
          "internalType": "contract IValidatorSetHbbft",
          "name": "",
          "type": "address"
        }
      ],
      "stateMutability": "view",
      "type": "function"
    }
  ],
  "bytecode": "0x6080604052348015600f57600080fd5b506016601a565b60ca565b7ff0c57e16840df040f15088dc2f81fe391c3923bec73e23a9662efc9c229c6a00805468010000000000000000900460ff161560695760405163f92ee8a960e01b815260040160405180910390fd5b80546001600160401b039081161460c75780546001600160401b0319166001600160401b0390811782556040519081527fc7f505b2f371ae2175ee4913f4499e1f2633a7b5936321eed1cdaeb6115181d29060200160405180910390a15b50565b612b87806100d96000396000f3fe608060405234801561001057600080fd5b50600436106101f05760003560e01c80638da5cb5b1161010f578063c374bc23116100a2578063df3cecf611610071578063df3cecf614610489578063dfc8bf4e14610492578063efc78401146104a5578063f2fde38b146104c857600080fd5b8063c374bc2314610442578063c746c8f414610455578063d249b31c14610468578063d3ae79651461047b57600080fd5b8063b710c15d116100de578063b710c15d146103bd578063b9056afa146103dd578063ba08d2371461040c578063bf348f861461042f57600080fd5b80638da5cb5b14610360578063a0a8e46014610390578063a69257f314610397578063b47aef1f146103aa57600080fd5b80636695546911610187578063782f017711610156578063782f0177146103235780637877a7971461033157806378ff69d51461033a5780637d8149db1461034d57600080fd5b806366955469146102bb5780637086bcc1146102ce578063715018a6146102dc57806375d0c0dc146102e457600080fd5b80634346845f116101c35780634346845f1461026f578063469ab1e314610284578063471eab5c1461029a5780635f0664bf146102ad57600080fd5b80631a9ebeaa146101f557806324bdf37b14610225578063305d526c1461024c5780633272b28c1461025a575b600080fd5b600154610208906001600160a01b031681565b6040516001600160a01b0390911681526020015b60405180910390f35b61023363a42bdee960e01b81565b6040516001600160e01b0319909116815260200161021c565b610233632b11904760e11b81565b6102626104db565b60405161021c91906123d5565b61028261027d36600461248b565b61053d565b005b61028c610643565b60405190815260200161021c565b6102826102a8366004612501565b6106aa565b6102336343bcce9f60e01b81565b600754610208906001600160a01b031681565b6102336324473b9d60e21b81565b61028261080c565b604080518082018252601681527f54585f5045524d495353494f4e5f434f4e5452414354000000000000000000006020820152905161021c9190612549565b610233630b53784960e21b81565b61028c60065481565b610282610348366004612501565b610820565b61028261035b36600461257c565b6108a3565b7f9016d09d72d40fdae2fd8ceac6b6234c7706214fd39c1cd1e609a0528c199300546001600160a01b0316610208565b600361028c565b6102826103a5366004612597565b61092d565b600254610208906001600160a01b031681565b6103d06103cb36600461263c565b6109a1565b60405161021c91906126c9565b6103f06103eb3660046126f7565b610a51565b6040805163ffffffff909316835290151560208301520161021c565b61041f61041a366004612781565b61147f565b604051901515815260200161021c565b6103d061043d36600461257c565b61165c565b6102826104503660046127ab565b611701565b610282610463366004612501565b611b90565b610282610476366004612597565b611ba4565b61023363b2a6842160e01b81565b61028c60055481565b600454610208906001600160a01b031681565b61041f6104b3366004612501565b60036020526000908152604090205460ff1681565b6102826104d6366004612501565b611c18565b6060600080548060200260200160405190810160405280929190818152602001828054801561053357602002820191906000526020600020905b81546001600160a01b03168152600190910190602001808311610515575b5050505050905090565b610545611c53565b600061054f611cae565b90506040518060400160405280857bffffffffffffffffffffffffffffffffffffffffffffffffffffffff1916815260200184848080602002602001604051908101604052809392919081815260200183836020028082843760009201829052509390945250506001600160e01b031988168152602084815260409091208351815463ffffffff191660e09190911c1781558382015180519193506105fb92600185019291019061235b565b509050507f3665bf9cd0ba4ddceeec259e21dcf8a4510f3b1130bd42e950828e69d85408ba85858585604051610634949392919061284d565b60405180910390a15050505050565b600061067f60408051808201909152601681527f54585f5045524d495353494f4e5f434f4e545241435400000000000000000000602082015290565b60405160200161068f91906128ba565b60405160208183030381529060405280519060200120905090565b6106b2611c53565b6001600160a01b03811660009081526003602052604090205460ff166106fb5760405163d64efe6360e01b81526001600160a01b03821660048201526024015b60405180910390fd5b60008054905b818110156107e9576000818154811061071c5761071c6128d6565b6000918252602090912001546001600160a01b03908116908416036107e1576000610748600184612902565b81548110610758576107586128d6565b600091825260208220015481546001600160a01b03909116919083908110610782576107826128d6565b6000918252602082200180546001600160a01b0319166001600160a01b0393909316929092179091558054806107ba576107ba612915565b600082815260209020810160001990810180546001600160a01b03191690550190556107e9565b600101610701565b50506001600160a01b03166000908152600360205260409020805460ff19169055565b610814611c53565b61081e6000611d10565b565b610828611c53565b6001600160a01b03811661084f5760405163d92e233d60e01b815260040160405180910390fd5b600780546001600160a01b0319166001600160a01b0383169081179091556040519081527f387d29e18823e432432b6098ebeee33beebdb128d2234c7f486c26447b738edd9060200160405180910390a150565b6108ab611c53565b60006108b5611cae565b6001600160e01b031983166000908152602082905260408120805463ffffffff191681559192506108e960018301826123a6565b50506040516001600160e01b0319831681527fed27cb02231782dadf13473a7828cb980c4d685791b7a3136dde00f8c3594cb6906020015b60405180910390a15050565b610935611c53565b8061094c6000356001600160e01b0319168261147f565b61096c576040516373330d9b60e01b8152600481018290526024016106f2565b60068290556040518281527fda69de0cab556da57726688a057caf911b2e8f850c45b6edf359bacf3db378e890602001610921565b6040805180820190915260008152606060208201526109be611cae565b82516020808501919091206001600160e01b0319908116600090815292825260409283902083518085018552815460e01b9092168252600181018054855181860281018601909652808652929491938581019390830182828015610a4157602002820191906000526020600020905b815481526020019060010190808311610a2d575b5050505050815250509050919050565b6001600160a01b038516600090815260036020526040812054819060ff1615610a83575063ffffffff90506000611475565b6000805b6004855110158015610a995750600481105b15610afb57610aa981600861292b565b858281518110610abb57610abb6128d6565b01602001517fff0000000000000000000000000000000000000000000000000000000000000016901c919091179080610af381612942565b915050610a87565b506004546001600160a01b0390811690881603610ddf5763bc43316160e01b6001600160e01b0319821601610bb45760048054604051630f51726f60e41b81526001600160a01b038b81169382019390935291169063f51726f090602401602060405180830381865afa158015610b76573d6000803e3d6000fd5b505050506040513d601f19601f82011682018060405250810190610b9a919061295b565b610ba5576000610ba8565b60025b60009250925050611475565b635bd4211760e01b6001600160e01b0319821601610d5157600480546040516307b9342f60e21b81526001600160a01b038b81169382019390935260009290911690631ee4d0bc90602401602060405180830381865afa158015610c1c573d6000803e3d6000fd5b505050506040513d601f19601f82011682018060405250810190610c40919061297d565b90506001600160a01b03811615610d4357600480546040805163239a373960e21b815290516001600160a01b0390921692638e68dce49282820192602092908290030181865afa158015610c98573d6000803e3d6000fd5b505050506040513d601f19601f82011682018060405250810190610cbc919061297d565b60405163a711e6a160e01b81526001600160a01b038381166004830152919091169063a711e6a190602401602060405180830381865afa158015610d04573d6000803e3d6000fd5b505050506040513d601f19601f82011682018060405250810190610d28919061295b565b610d33576000610d36565b60025b6000935093505050611475565b600080935093505050611475565b8415610ddf576004805460405163facd743b60e01b81526001600160a01b038b81169382019390935291169063facd743b90602401602060405180830381865afa158015610da3573d6000803e3d6000fd5b505050506040513d601f19601f82011682018060405250810190610dc7919061295b565b610dd2576002610ba8565b6000809250925050611475565b6002546001600160a01b0390811690881603611254576334ac87b760e21b6001600160e01b0319821601610fb35760016004805460405163014e28d960e41b81526001600160a01b038c8116938201939093529116906314e28d9090602401602060405180830381865afa158015610e5b573d6000803e3d6000fd5b505050506040513d601f19601f82011682018060405250810190610e7f91906129b0565b6005811115610e9057610e9061299a565b03610dd257602484511015610eac576000809250925050611475565b6000610eb9600486611d81565b9050600460009054906101000a90046001600160a01b03166001600160a01b0316638e68dce46040518163ffffffff1660e01b8152600401602060405180830381865afa158015610f0e573d6000803e3d6000fd5b505050506040513d601f19601f82011682018060405250810190610f32919061297d565b6001600160a01b031663794c0c686040518163ffffffff1660e01b8152600401602060405180830381865afa158015610f6f573d6000803e3d6000fd5b505050506040513d601f19601f82011682018060405250810190610f9391906129d1565b610f9e9060016129ea565b8103610d435760026000935093505050611475565b6354ee6fb960e11b6001600160e01b03198216016112545760036004805460405163014e28d960e41b81526001600160a01b038c8116938201939093529116906314e28d9090602401602060405180830381865afa158015611019573d6000803e3d6000fd5b505050506040513d601f19601f8201168201806040525081019061103d91906129b0565b600581111561104e5761104e61299a565b03610dd25760248451101561106a576000809250925050611475565b600480546040805163239a373960e21b815290516001600160a01b0390921692638e68dce49282820192602092908290030181865afa1580156110b1573d6000803e3d6000fd5b505050506040513d601f19601f820116820180604052508101906110d5919061297d565b6001600160a01b031663794c0c686040518163ffffffff1660e01b8152600401602060405180830381865afa158015611112573d6000803e3d6000fd5b505050506040513d601f19601f8201168201806040525081019061113691906129d1565b6111419060016129ea565b61114c600486611d81565b0361115f57600260009250925050611475565b600480546040805163239a373960e21b815290516001600160a01b0390921692638e68dce49282820192602092908290030181865afa1580156111a6573d6000803e3d6000fd5b505050506040513d601f19601f820116820180604052508101906111ca919061297d565b6001600160a01b031663794c0c686040518163ffffffff1660e01b8152600401602060405180830381865afa158015611207573d6000803e3d6000fd5b505050506040513d601f19601f8201168201806040525081019061122b91906129d1565b6112369060016129ea565b611241602486611d81565b03610dd257600260009250925050611475565b6007546001600160a01b039081169088160361129a576000611277898387611df9565b90508060200151156112985780600001518160400151935093505050611475565b505b6004805460405163facd743b60e01b81526001600160a01b038b81169382019390935291169063facd743b90602401602060405180830381865afa1580156112e6573d6000803e3d6000fd5b505050506040513d601f19601f8201168201806040525081019061130a919061295b565b80156113165750600085115b15611342576000886001600160a01b03163111611334576000610ba8565b600160009250925050611475565b6004805460405163facd743b60e01b81526001600160a01b038a81169382019390935291169063facd743b90602401602060405180830381865afa15801561138e573d6000803e3d6000fd5b505050506040513d601f19601f820116820180604052508101906113b2919061295b565b156113c4576000809250925050611475565b84600003611456576001546040516303a388eb60e61b81526001600160a01b038a811660048301529091169063e8e23ac090602401602060405180830381865afa158015611416573d6000803e3d6000fd5b505050506040513d601f19601f8201168201806040525081019061143a919061295b565b611445576000610ba8565b63ffffffff60009250925050611475565b60055485101561146757600061146d565b63ffffffff5b600092509250505b9550959350505050565b60008061148a611cae565b6001600160e01b031980861660009081526020838152604080832081518083018352815460e01b9095168552600181018054835181860281018601909452808452969750939590938584019390919083018282801561150857602002820191906000526020600020905b8154815260200190600101908083116114f4575b505050505081525050905080602001515160000361152b57600092505050611656565b6020810151815160009061153e90611fca565b905060005b825181101561164c578183828151811061155f5761155f6128d6565b6020026020010151036116445760008082116115955783600081518110611588576115886128d6565b60200260200101516115ba565b836115a1600184612902565b815181106115b1576115b16128d6565b60200260200101515b90506000600185516115cc9190612902565b83106115fe5784600186516115e19190612902565b815181106115f1576115f16128d6565b6020026020010151611623565b8461160a8460016129ea565b8151811061161a5761161a6128d6565b60200260200101515b90508189141580156116355750808914155b15975050505050505050611656565b600101611543565b5060009450505050505b92915050565b604080518082019091526000815260606020820152611679611cae565b6001600160e01b03198084166000908152602092835260409081902081518083018352815460e01b9093168352600181018054835181870281018701909452808452939491938583019392830182828015610a415760200282019190600052602060002090815481526020019060010190808311610a2d575050505050815250509050919050565b7ff0c57e16840df040f15088dc2f81fe391c3923bec73e23a9662efc9c229c6a00805468010000000000000000810460ff16159067ffffffffffffffff1660008115801561174c5750825b905060008267ffffffffffffffff1660011480156117695750303b155b905081158015611777575080155b156117955760405163f92ee8a960e01b815260040160405180910390fd5b845467ffffffffffffffff1916600117855583156117c957845468ff00000000000000001916680100000000000000001785555b6001600160a01b03861615806117e657506001600160a01b038a16155b806117f857506001600160a01b038916155b8061180a57506001600160a01b038816155b8061181c57506001600160a01b038716155b1561183a5760405163d92e233d60e01b815260040160405180910390fd5b611843866120a1565b60005b8b8110156118855761187d8d8d83818110611863576118636128d6565b90506020020160208101906118789190612501565b6120b2565b600101611846565b50600180546001600160a01b038c81166001600160a01b031992831617909255600480548c8416908316179055600280548b841690831617905560078054928a1692909116919091179055633b9aca006005556305f5e10060065560408051600b808252610180820190925260009160208201610160803683370190505090506305f5e1008160008151811061191d5761191d6128d6565b602002602001018181525050630bebc20081600181518110611941576119416128d6565b6020026020010181815250506317d7840081600281518110611965576119656128d6565b6020026020010181815250506323c3460081600381518110611989576119896128d6565b602002602001018181525050632faf0800816004815181106119ad576119ad6128d6565b602002602001018181525050633b9aca00816005815181106119d1576119d16128d6565b6020026020010181815250506377359400816006815181106119f5576119f56128d6565b60200260200101818152505063ee6b280081600781518110611a1957611a196128d6565b602002602001018181525050640165a0bc0081600881518110611a3e57611a3e6128d6565b6020026020010181815250506401dcd6500081600981518110611a6357611a636128d6565b6020026020010181815250506402540be40081600a81518110611a8857611a886128d6565b6020908102919091010152611aac6334926cc760e21b636f9e767b60e11b83612183565b60408051600a8082526101608201909252600091602082016101408036833701905050905060005b8151811015611b1b57611ae88160016129ea565b611af6906305f5e10061292b565b828281518110611b0857611b086128d6565b6020908102919091010152600101611ad4565b50611b3563a69257f360e01b637877a79760e01b83612183565b50508315611b8257845468ff000000000000000019168555604051600181527fc7f505b2f371ae2175ee4913f4499e1f2633a7b5936321eed1cdaeb6115181d29060200160405180910390a15b505050505050505050505050565b611b98611c53565b611ba1816120b2565b50565b611bac611c53565b80611bc36000356001600160e01b0319168261147f565b611be3576040516373330d9b60e01b8152600481018290526024016106f2565b60058290556040518281527f52264b89e0fceafb26e79fd49ef8a366eb6297483bf4035b027f0c99a7ad512e90602001610921565b611c20611c53565b6001600160a01b038116611c4a57604051631e4fbdf760e01b8152600060048201526024016106f2565b611ba181611d10565b33611c857f9016d09d72d40fdae2fd8ceac6b6234c7706214fd39c1cd1e609a0528c199300546001600160a01b031690565b6001600160a01b03161461081e5760405163118cdaa760e01b81523360048201526024016106f2565b60008060ff19611cdf60017fdace3fd3d1fbdfd33853f19ba191d28c617e373ec58fc73cf7b58db5aff2c2ab612902565b604051602001611cf191815260200190565b60408051601f1981840301815291905280516020909101201692915050565b7f9016d09d72d40fdae2fd8ceac6b6234c7706214fd39c1cd1e609a0528c19930080546001600160a01b031981166001600160a01b03848116918217845560405192169182907f8be0079c531659141344cd1fd0a4f28419497f9722a3daafe3b4186f6b6457e090600090a3505050565b600080805b6020811015611df157611d9a81601f612902565b611da590600861292b565b611db0906002612ae1565b84611dbb83886129ea565b81518110611dcb57611dcb6128d6565b0160200151611ddd919060f81c61292b565b611de790836129ea565b9150600101611d86565b509392505050565b60408051606081018252600080825260208201819052918101919091526000606060048451611e289190612902565b11611e405760048351611e3b9190612902565b611e43565b60605b90506000611e5384836004612238565b6040805160608101825260008082526001602083015291810191909152909150631bb8c46360e21b6001600160e01b0319871601611f3557600080600084806020019051810190611ea49190612aed565b60075460405163060b284960e01b81526001600160a01b038f8116600483015280861660248301526044820185905260648201849052949750929550909350919091169063060b2849906084015b60006040518083038186803b158015611f0a57600080fd5b505afa925050508015611f1b575060015b611f285760008452611f2d565b600284525b505050611fc0565b634d597bdf60e01b6001600160e01b0319871601611fb857600080600084806020019051810190611f669190612aed565b600754604051632fb625a360e21b81526001600160a01b038f8116600483015280861660248301526044820185905260648201849052949750929550909350919091169063bed8968c90608401611ef2565b600060208201525b9695505050505050565b60408051600481526024810182526020810180517bffffffffffffffffffffffffffffffffffffffffffffffffffffffff166001600160e01b031985161790529051600091908290819030906120219085906128ba565b600060405180830381855afa9150503d806000811461205c576040519150601f19603f3d011682016040523d82523d6000602084013e612061565b606091505b50915091508161208457604051635fbab09b60e11b815260040160405180910390fd5b8080602001905181019061209891906129d1565b95945050505050565b6120a9612305565b611ba181612353565b6001600160a01b0381166120d95760405163d92e233d60e01b815260040160405180910390fd5b6001600160a01b03811660009081526003602052604090205460ff161561211e576040516303e49a0960e51b81526001600160a01b03821660048201526024016106f2565b60008054600181810183557f290decd9548b62a8d60345a988386fc84ba6bc95484008f6362f93160ef3e56390910180546001600160a01b039094166001600160a01b031990941684179055918152600360205260409020805460ff19169091179055565b61218b612305565b6000612195611cae565b6040805180820182526001600160e01b0319868116825260208083018781529189166000908152858252939093208251815463ffffffff191660e09190911c17815590518051949550919390926121f392600185019291019061235b565b509050507f3665bf9cd0ba4ddceeec259e21dcf8a4510f3b1130bd42e950828e69d85408ba84848460405161222a93929190612b24565b60405180910390a150505050565b606060008367ffffffffffffffff811115612255576122556125b0565b6040519080825280601f01601f19166020018201604052801561227f576020820181803683370190505b50905060005b848110156122fc578561229885836129ea565b815181106122a8576122a86128d6565b602001015160f81c60f81b8282815181106122c5576122c56128d6565b60200101907effffffffffffffffffffffffffffffffffffffffffffffffffffffffffffff1916908160001a905350600101612285565b50949350505050565b7ff0c57e16840df040f15088dc2f81fe391c3923bec73e23a9662efc9c229c6a005468010000000000000000900460ff1661081e57604051631afcd79f60e31b815260040160405180910390fd5b611c20612305565b828054828255906000526020600020908101928215612396579160200282015b8281111561239657825182559160200191906001019061237b565b506123a29291506123c0565b5090565b5080546000825590600052602060002090810190611ba191905b5b808211156123a257600081556001016123c1565b6020808252825182820181905260009190848201906040850190845b818110156124165783516001600160a01b0316835292840192918401916001016123f1565b50909695505050505050565b80356001600160e01b03198116811461243a57600080fd5b919050565b60008083601f84011261245157600080fd5b50813567ffffffffffffffff81111561246957600080fd5b6020830191508360208260051b850101111561248457600080fd5b9250929050565b600080600080606085870312156124a157600080fd5b6124aa85612422565b93506124b860208601612422565b9250604085013567ffffffffffffffff8111156124d457600080fd5b6124e08782880161243f565b95989497509550505050565b6001600160a01b0381168114611ba157600080fd5b60006020828403121561251357600080fd5b813561251e816124ec565b9392505050565b60005b83811015612540578181015183820152602001612528565b50506000910152565b6020815260008251806020840152612568816040850160208701612525565b601f01601f19169190910160400192915050565b60006020828403121561258e57600080fd5b61251e82612422565b6000602082840312156125a957600080fd5b5035919050565b634e487b7160e01b600052604160045260246000fd5b600067ffffffffffffffff808411156125e1576125e16125b0565b604051601f8501601f19908116603f01168101908282118183101715612609576126096125b0565b8160405280935085815286868601111561262257600080fd5b858560208301376000602087830101525050509392505050565b60006020828403121561264e57600080fd5b813567ffffffffffffffff81111561266557600080fd5b8201601f8101841361267657600080fd5b612685848235602084016125c6565b949350505050565b60008151808452602080850194506020840160005b838110156126be578151875295820195908201906001016126a2565b509495945050505050565b602080825282516001600160e01b03191682820152820151604080830152600090612685606084018261268d565b600080600080600060a0868803121561270f57600080fd5b853561271a816124ec565b9450602086013561272a816124ec565b93506040860135925060608601359150608086013567ffffffffffffffff81111561275457600080fd5b8601601f8101881361276557600080fd5b612774888235602084016125c6565b9150509295509295909350565b6000806040838503121561279457600080fd5b61279d83612422565b946020939093013593505050565b600080600080600080600060c0888a0312156127c657600080fd5b873567ffffffffffffffff8111156127dd57600080fd5b6127e98a828b0161243f565b90985096505060208801356127fd816124ec565b9450604088013561280d816124ec565b9350606088013561281d816124ec565b9250608088013561282d816124ec565b915060a088013561283d816124ec565b8091505092959891949750929550565b6001600160e01b0319858116825284166020820152606060408201819052810182905260007f07ffffffffffffffffffffffffffffffffffffffffffffffffffffffffffffff83111561289f57600080fd5b8260051b808560808501379190910160800195945050505050565b600082516128cc818460208701612525565b9190910192915050565b634e487b7160e01b600052603260045260246000fd5b634e487b7160e01b600052601160045260246000fd5b81810381811115611656576116566128ec565b634e487b7160e01b600052603160045260246000fd5b8082028115828204841417611656576116566128ec565b600060018201612954576129546128ec565b5060010190565b60006020828403121561296d57600080fd5b8151801515811461251e57600080fd5b60006020828403121561298f57600080fd5b815161251e816124ec565b634e487b7160e01b600052602160045260246000fd5b6000602082840312156129c257600080fd5b81516006811061251e57600080fd5b6000602082840312156129e357600080fd5b5051919050565b80820180821115611656576116566128ec565b600181815b80851115612a38578160001904821115612a1e57612a1e6128ec565b80851615612a2b57918102915b93841c9390800290612a02565b509250929050565b600082612a4f57506001611656565b81612a5c57506000611656565b8160018114612a725760028114612a7c57612a98565b6001915050611656565b60ff841115612a8d57612a8d6128ec565b50506001821b611656565b5060208310610133831016604e8410600b8410161715612abb575081810a611656565b612ac583836129fd565b8060001904821115612ad957612ad96128ec565b029392505050565b600061251e8383612a40565b600080600060608486031215612b0257600080fd5b8351612b0d816124ec565b602085015160409095015190969495509392505050565b6001600160e01b03198481168252831660208201526060604082018190526000906120989083018461268d56fea26469706673582212208aa6d6aa909faf1bdef3e182ebd37bd23a183f796406208119e3e871ed8d2c8a64736f6c63430008190033",
  "linkReferences": {},
  "deployedLinkReferences": {}
}