{
  "_format": "hh-sol-artifact-1",
  "contractName": "TxPermissionHbbft",
  "sourceName": "contracts/TxPermissionHbbft.sol",
  "abi": [
    {
      "inputs": [],
      "stateMutability": "nonpayable",
      "type": "constructor"
    },
    {
      "inputs": [
        {
          "internalType": "address",
          "name": "_value",
          "type": "address"
        }
      ],
      "name": "AlreadyExist",
      "type": "error"
    },
    {
      "inputs": [],
      "name": "GetterCallFailed",
      "type": "error"
    },
    {
      "inputs": [],
      "name": "InvalidBlockGasLimit",
      "type": "error"
    },
    {
      "inputs": [],
      "name": "InvalidInitialization",
      "type": "error"
    },
    {
      "inputs": [],
      "name": "InvalidMinGasPrice",
      "type": "error"
    },
    {
      "inputs": [
        {
          "internalType": "uint256",
          "name": "_newVal",
          "type": "uint256"
        }
      ],
      "name": "NewValueOutOfRange",
      "type": "error"
    },
    {
      "inputs": [
        {
          "internalType": "address",
          "name": "_value",
          "type": "address"
        }
      ],
      "name": "NotExist",
      "type": "error"
    },
    {
      "inputs": [],
      "name": "NotInitializing",
      "type": "error"
    },
    {
      "inputs": [
        {
          "internalType": "address",
          "name": "owner",
          "type": "address"
        }
      ],
      "name": "OwnableInvalidOwner",
      "type": "error"
    },
    {
      "inputs": [
        {
          "internalType": "address",
          "name": "account",
          "type": "address"
        }
      ],
      "name": "OwnableUnauthorizedAccount",
      "type": "error"
    },
    {
      "inputs": [],
      "name": "SenderNotAllowed",
      "type": "error"
    },
    {
      "inputs": [],
      "name": "ZeroAddress",
      "type": "error"
    },
    {
      "anonymous": false,
      "inputs": [
        {
          "indexed": false,
          "internalType": "uint256",
          "name": "_value",
          "type": "uint256"
        }
      ],
      "name": "BlockGasLimitChanged",
      "type": "event"
    },
    {
      "anonymous": false,
      "inputs": [
        {
          "indexed": false,
          "internalType": "uint256",
          "name": "_value",
          "type": "uint256"
        }
      ],
      "name": "GasPriceChanged",
      "type": "event"
    },
    {
      "anonymous": false,
      "inputs": [
        {
          "indexed": false,
          "internalType": "uint64",
          "name": "version",
          "type": "uint64"
        }
      ],
      "name": "Initialized",
      "type": "event"
    },
    {
      "anonymous": false,
      "inputs": [
        {
          "indexed": true,
          "internalType": "address",
          "name": "previousOwner",
          "type": "address"
        },
        {
          "indexed": true,
          "internalType": "address",
          "name": "newOwner",
          "type": "address"
        }
      ],
      "name": "OwnershipTransferred",
      "type": "event"
    },
    {
      "anonymous": false,
      "inputs": [
        {
          "indexed": false,
          "internalType": "bytes4",
          "name": "funcSelector",
          "type": "bytes4"
        }
      ],
      "name": "RemoveChangeableParameter",
      "type": "event"
    },
    {
      "anonymous": false,
      "inputs": [
        {
          "indexed": false,
          "internalType": "uint256",
          "name": "_blockGasLimit",
          "type": "uint256"
        }
      ],
      "name": "SetBlockGasLimit",
      "type": "event"
    },
    {
      "anonymous": false,
      "inputs": [
        {
          "indexed": false,
          "internalType": "bytes4",
          "name": "setter",
          "type": "bytes4"
        },
        {
          "indexed": false,
          "internalType": "bytes4",
          "name": "getter",
          "type": "bytes4"
        },
        {
          "indexed": false,
          "internalType": "uint256[]",
          "name": "params",
          "type": "uint256[]"
        }
      ],
      "name": "SetChangeableParameter",
      "type": "event"
    },
    {
      "anonymous": false,
      "inputs": [
        {
          "indexed": false,
          "internalType": "address",
          "name": "_value",
          "type": "address"
        }
      ],
      "name": "SetConnectivityTracker",
      "type": "event"
    },
    {
      "anonymous": false,
      "inputs": [
        {
          "indexed": false,
          "internalType": "uint256",
          "name": "_minGasPrice",
          "type": "uint256"
        }
      ],
      "name": "SetMinimumGasPrice",
      "type": "event"
    },
    {
      "inputs": [],
      "name": "ANNOUNCE_AVAILABILITY_SIGNATURE",
      "outputs": [
        {
          "internalType": "bytes4",
          "name": "",
          "type": "bytes4"
        }
      ],
      "stateMutability": "view",
      "type": "function"
    },
    {
      "inputs": [],
      "name": "REPORT_MISSING_CONNECTIVITY_SELECTOR",
      "outputs": [
        {
          "internalType": "bytes4",
          "name": "",
          "type": "bytes4"
        }
      ],
      "stateMutability": "view",
      "type": "function"
    },
    {
      "inputs": [],
      "name": "REPORT_RECONNECT_SELECTOR",
      "outputs": [
        {
          "internalType": "bytes4",
          "name": "",
          "type": "bytes4"
        }
      ],
      "stateMutability": "view",
      "type": "function"
    },
    {
      "inputs": [],
      "name": "SET_VALIDATOR_IP",
      "outputs": [
        {
          "internalType": "bytes4",
          "name": "",
          "type": "bytes4"
        }
      ],
      "stateMutability": "view",
      "type": "function"
    },
    {
      "inputs": [],
      "name": "WRITE_ACKS_SIGNATURE",
      "outputs": [
        {
          "internalType": "bytes4",
          "name": "",
          "type": "bytes4"
        }
      ],
      "stateMutability": "view",
      "type": "function"
    },
    {
      "inputs": [],
      "name": "WRITE_PART_SIGNATURE",
      "outputs": [
        {
          "internalType": "bytes4",
          "name": "",
          "type": "bytes4"
        }
      ],
      "stateMutability": "view",
      "type": "function"
    },
    {
      "inputs": [
        {
          "internalType": "address",
          "name": "_sender",
          "type": "address"
        }
      ],
      "name": "addAllowedSender",
      "outputs": [],
      "stateMutability": "nonpayable",
      "type": "function"
    },
    {
      "inputs": [
        {
          "internalType": "bytes4",
          "name": "",
          "type": "bytes4"
        }
      ],
      "name": "allowedParameterRange",
      "outputs": [
        {
          "internalType": "bytes4",
          "name": "getter",
          "type": "bytes4"
        }
      ],
      "stateMutability": "view",
      "type": "function"
    },
    {
      "inputs": [],
      "name": "allowedSenders",
      "outputs": [
        {
          "internalType": "address[]",
          "name": "",
          "type": "address[]"
        }
      ],
      "stateMutability": "view",
      "type": "function"
    },
    {
      "inputs": [
        {
          "internalType": "address",
          "name": "_sender",
          "type": "address"
        },
        {
          "internalType": "address",
          "name": "_to",
          "type": "address"
        },
        {
          "internalType": "uint256",
          "name": "",
          "type": "uint256"
        },
        {
          "internalType": "uint256",
          "name": "_gasPrice",
          "type": "uint256"
        },
        {
          "internalType": "bytes",
          "name": "_data",
          "type": "bytes"
        }
      ],
      "name": "allowedTxTypes",
      "outputs": [
        {
          "internalType": "uint32",
          "name": "typesMask",
          "type": "uint32"
        },
        {
          "internalType": "bool",
          "name": "cache",
          "type": "bool"
        }
      ],
      "stateMutability": "view",
      "type": "function"
    },
    {
      "inputs": [],
      "name": "blockGasLimit",
      "outputs": [
        {
          "internalType": "uint256",
          "name": "",
          "type": "uint256"
        }
      ],
      "stateMutability": "view",
      "type": "function"
    },
    {
      "inputs": [],
      "name": "certifierContract",
      "outputs": [
        {
          "internalType": "contract ICertifier",
          "name": "",
          "type": "address"
        }
      ],
      "stateMutability": "view",
      "type": "function"
    },
    {
      "inputs": [],
      "name": "connectivityTracker",
      "outputs": [
        {
          "internalType": "contract IConnectivityTrackerHbbft",
          "name": "",
          "type": "address"
        }
      ],
      "stateMutability": "view",
      "type": "function"
    },
    {
      "inputs": [],
      "name": "contractName",
      "outputs": [
        {
          "internalType": "string",
          "name": "",
          "type": "string"
        }
      ],
      "stateMutability": "pure",
      "type": "function"
    },
    {
      "inputs": [],
      "name": "contractNameHash",
      "outputs": [
        {
          "internalType": "bytes32",
          "name": "",
          "type": "bytes32"
        }
      ],
      "stateMutability": "pure",
      "type": "function"
    },
    {
      "inputs": [],
      "name": "contractVersion",
      "outputs": [
        {
          "internalType": "uint256",
          "name": "",
          "type": "uint256"
        }
      ],
      "stateMutability": "pure",
      "type": "function"
    },
    {
      "inputs": [
        {
          "internalType": "string",
          "name": "_selector",
          "type": "string"
        }
      ],
      "name": "getAllowedParamsRange",
      "outputs": [
        {
          "components": [
            {
              "internalType": "bytes4",
              "name": "getter",
              "type": "bytes4"
            },
            {
              "internalType": "uint256[]",
              "name": "range",
              "type": "uint256[]"
            }
          ],
          "internalType": "struct ValueGuards.ParameterRange",
          "name": "",
          "type": "tuple"
        }
      ],
      "stateMutability": "view",
      "type": "function"
    },
    {
      "inputs": [
        {
          "internalType": "bytes4",
          "name": "_selector",
          "type": "bytes4"
        }
      ],
      "name": "getAllowedParamsRangeWithSelector",
      "outputs": [
        {
          "components": [
            {
              "internalType": "bytes4",
              "name": "getter",
              "type": "bytes4"
            },
            {
              "internalType": "uint256[]",
              "name": "range",
              "type": "uint256[]"
            }
          ],
          "internalType": "struct ValueGuards.ParameterRange",
          "name": "",
          "type": "tuple"
        }
      ],
      "stateMutability": "view",
      "type": "function"
    },
    {
      "inputs": [
        {
          "internalType": "address[]",
          "name": "_allowed",
          "type": "address[]"
        },
        {
          "internalType": "address",
          "name": "_certifier",
          "type": "address"
        },
        {
          "internalType": "address",
          "name": "_validatorSet",
          "type": "address"
        },
        {
          "internalType": "address",
          "name": "_keyGenHistoryContract",
          "type": "address"
        },
        {
          "internalType": "address",
          "name": "_connectivityTracker",
          "type": "address"
        },
        {
          "internalType": "address",
          "name": "_contractOwner",
          "type": "address"
        }
      ],
      "name": "initialize",
      "outputs": [],
      "stateMutability": "nonpayable",
      "type": "function"
    },
    {
      "inputs": [
        {
          "internalType": "address",
          "name": "",
          "type": "address"
        }
      ],
      "name": "isSenderAllowed",
      "outputs": [
        {
          "internalType": "bool",
          "name": "",
          "type": "bool"
        }
      ],
      "stateMutability": "view",
      "type": "function"
    },
    {
      "inputs": [
        {
          "internalType": "bytes4",
          "name": "funcSelector",
          "type": "bytes4"
        },
        {
          "internalType": "uint256",
          "name": "newVal",
          "type": "uint256"
        }
      ],
      "name": "isWithinAllowedRange",
      "outputs": [
        {
          "internalType": "bool",
          "name": "",
          "type": "bool"
        }
      ],
      "stateMutability": "view",
      "type": "function"
    },
    {
      "inputs": [],
      "name": "keyGenHistoryContract",
      "outputs": [
        {
          "internalType": "contract IKeyGenHistory",
          "name": "",
          "type": "address"
        }
      ],
      "stateMutability": "view",
      "type": "function"
    },
    {
      "inputs": [],
      "name": "minimumGasPrice",
      "outputs": [
        {
          "internalType": "uint256",
          "name": "",
          "type": "uint256"
        }
      ],
      "stateMutability": "view",
      "type": "function"
    },
    {
      "inputs": [],
      "name": "owner",
      "outputs": [
        {
          "internalType": "address",
          "name": "",
          "type": "address"
        }
      ],
      "stateMutability": "view",
      "type": "function"
    },
    {
      "inputs": [
        {
          "internalType": "bytes4",
          "name": "funcSelector",
          "type": "bytes4"
        }
      ],
      "name": "removeAllowedChangeableParameter",
      "outputs": [],
      "stateMutability": "nonpayable",
      "type": "function"
    },
    {
      "inputs": [
        {
          "internalType": "address",
          "name": "_sender",
          "type": "address"
        }
      ],
      "name": "removeAllowedSender",
      "outputs": [],
      "stateMutability": "nonpayable",
      "type": "function"
    },
    {
      "inputs": [],
      "name": "renounceOwnership",
      "outputs": [],
      "stateMutability": "nonpayable",
      "type": "function"
    },
    {
      "inputs": [
        {
          "internalType": "bytes4",
          "name": "setter",
          "type": "bytes4"
        },
        {
          "internalType": "bytes4",
          "name": "getter",
          "type": "bytes4"
        },
        {
          "internalType": "uint256[]",
          "name": "params",
          "type": "uint256[]"
        }
      ],
      "name": "setAllowedChangeableParameter",
      "outputs": [],
      "stateMutability": "nonpayable",
      "type": "function"
    },
    {
      "inputs": [
        {
          "internalType": "uint256",
          "name": "_value",
          "type": "uint256"
        }
      ],
      "name": "setBlockGasLimit",
      "outputs": [],
      "stateMutability": "nonpayable",
      "type": "function"
    },
    {
      "inputs": [
        {
          "internalType": "address",
          "name": "_connectivityTracker",
          "type": "address"
        }
      ],
      "name": "setConnectivityTracker",
      "outputs": [],
      "stateMutability": "nonpayable",
      "type": "function"
    },
    {
      "inputs": [
        {
          "internalType": "uint256",
          "name": "_value",
          "type": "uint256"
        }
      ],
      "name": "setMinimumGasPrice",
      "outputs": [],
      "stateMutability": "nonpayable",
      "type": "function"
    },
    {
      "inputs": [
        {
          "internalType": "address",
          "name": "newOwner",
          "type": "address"
        }
      ],
      "name": "transferOwnership",
      "outputs": [],
      "stateMutability": "nonpayable",
      "type": "function"
    },
    {
      "inputs": [],
      "name": "validatorSetContract",
      "outputs": [
        {
          "internalType": "contract IValidatorSetHbbft",
          "name": "",
          "type": "address"
        }
      ],
      "stateMutability": "view",
      "type": "function"
    }
  ],
  "bytecode": "0x608060405234801561001057600080fd5b5061002b673b9eb3a3f5442f3560c01b61007260201b60201c565b6100456752a205ae3286c20f60c01b61007260201b60201c565b61005f67e905e125faeea1df60c01b61007260201b60201c565b61006d61007560201b60201c565b6101ba565b50565b600061008561017960201b60201c565b90508060000160089054906101000a900460ff16156100d0576040517ff92ee8a900000000000000000000000000000000000000000000000000000000815260040160405180910390fd5b67ffffffffffffffff80168160000160009054906101000a900467ffffffffffffffff1667ffffffffffffffff16146101765767ffffffffffffffff8160000160006101000a81548167ffffffffffffffff021916908367ffffffffffffffff1602179055507fc7f505b2f371ae2175ee4913f4499e1f2633a7b5936321eed1cdaeb6115181d267ffffffffffffffff60405161016d91906101a1565b60405180910390a15b50565b60007ff0c57e16840df040f15088dc2f81fe391c3923bec73e23a9662efc9c229c6a00905090565b600060208201905060018060401b038316825292915050565b61616d806101c96000396000f3fe608060405234801561001057600080fd5b506004361061020b5760003560e01c80638da5cb5b1161012a578063bf348f86116100bd578063d3ae79651161008c578063dfc8bf4e11610071578063dfc8bf4e146105cb578063efc78401146105e9578063f2fde38b146106195761020b565b8063d3ae79651461058f578063df3cecf6146105ad5761020b565b8063bf348f861461050b578063c374bc231461053b578063c746c8f414610557578063d249b31c146105735761020b565b8063b47aef1f116100f9578063b47aef1f1461045c578063b710c15d1461047a578063b9056afa146104aa578063ba08d237146104db5761020b565b80638da5cb5b146103d457806392283634146103f2578063a0a8e46014610422578063a69257f3146104405761020b565b806366955469116101a2578063782f017711610171578063782f0177146103605780637877a7971461037e57806378ff69d51461039c5780637d8149db146103b85761020b565b806366955469146102fc5780637086bcc11461031a578063715018a61461033857806375d0c0dc146103425761020b565b80634346845f116101de5780634346845f14610288578063469ab1e3146102a4578063471eab5c146102c25780635f0664bf146102de5761020b565b80631a9ebeaa1461021057806324bdf37b1461022e578063305d526c1461024c5780633272b28c1461026a575b600080fd5b610218610635565b6040516102259190615726565b60405180910390f35b61023661065b565b604051610243919061574d565b60405180910390f35b610254610666565b604051610261919061574d565b60405180910390f35b610272610671565b60405161027f9190615767565b60405180910390f35b6102a2600480360381019061029d9190615839565b61073b565b005b6102ac610907565b6040516102b991906158a1565b60405180910390f35b6102dc60048036038101906102d791906158d7565b610978565b005b6102e6610d94565b6040516102f3919061574d565b60405180910390f35b610304610d9f565b60405161031191906158fe565b60405180910390f35b610322610dc5565b60405161032f919061574d565b60405180910390f35b610340610dd0565b005b61034a610de4565b604051610357919061594f565b60405180910390f35b610368610e5d565b604051610375919061574d565b60405180910390f35b610386610e68565b6040516103939190615984565b60405180910390f35b6103b660048036038101906103b191906158d7565b610e6e565b005b6103d260048036038101906103cd9190615995565b611033565b005b6103dc611167565b6040516103e991906159b8565b60405180910390f35b61040c60048036038101906104079190615995565b61119f565b604051610419919061574d565b60405180910390f35b61042a6111ca565b6040516104379190615984565b60405180910390f35b61045a600480360381019061045591906159df565b61120f565b005b6104646113f5565b60405161047191906159fb565b60405180910390f35b610494600480360381019061048f9190615ab1565b61141b565b6040516104a19190615b49565b60405180910390f35b6104c460048036038101906104bf9190615b80565b611575565b6040516104d2929190615c11565b60405180910390f35b6104f560048036038101906104f09190615c31565b61301c565b6040516105029190615c5d565b60405180910390f35b61052560048036038101906105209190615995565b61350c565b6040516105329190615b49565b60405180910390f35b61055560048036038101906105509190615c70565b61365f565b005b610571600480360381019061056c91906158d7565b614180565b005b61058d600480360381019061058891906159df565b6141f8565b005b6105976143de565b6040516105a4919061574d565b60405180910390f35b6105b56143e9565b6040516105c29190615984565b60405180910390f35b6105d36143ef565b6040516105e09190615d1e565b60405180910390f35b61060360048036038101906105fe91906158d7565b614415565b6040516106109190615c5d565b60405180910390f35b610633600480360381019061062e91906158d7565b614435565b005b600260009054906101000a900473ffffffffffffffffffffffffffffffffffffffff1681565b63a42bdee960e01b81565b635623208e60e01b81565b60606106876755870b14bfd4db5560c01b6144bb565b61069b67772e7ff54323351360c01b6144bb565b6106af67c172c1f4f650b6c260c01b6144bb565b600180548060200260200160405190810160405280929190818152602001828054801561073157602002820191906000526020600020905b8160009054906101000a900473ffffffffffffffffffffffffffffffffffffffff1673ffffffffffffffffffffffffffffffffffffffff16815260200190600101908083116106e7575b5050505050905090565b61074f67be0c833aa15c34c060c01b6144be565b6107576144c1565b61076b6732f8a94e78c23adf60c01b6144be565b61077f6788b6eef7519ee4f160c01b6144be565b6107936716df033c7a667b6e60c01b6144be565b6040518060400160405280847bffffffffffffffffffffffffffffffffffffffffffffffffffffffff19168152602001838380806020026020016040519081016040528093929190818152602001838360200280828437600081840152601f19601f82011690508083019250505050505050815250600080867bffffffffffffffffffffffffffffffffffffffffffffffffffffffff19167bffffffffffffffffffffffffffffffffffffffffffffffffffffffff1916815260200190815260200160002060008201518160000160006101000a81548163ffffffff021916908360e01c02179055506020820151816001019080519060200190610898929190615637565b509050506108b06755f08098c39d2f8260c01b6144be565b6108c467bdeaf3791eacbded60c01b6144be565b7f3665bf9cd0ba4ddceeec259e21dcf8a4510f3b1130bd42e950828e69d85408ba848484846040516108f99493929190615d45565b60405180910390a150505050565b600061091d67ab1cf07874c76f2660c01b6144bb565b61093167a07c5a7383117df060c01b6144bb565b61094567f33303225832154660c01b6144bb565b61094d610de4565b60405160200161095d9190615db4565b60405160208183030381529060405280519060200120905090565b61098c672e75a10e9abb4d3560c01b6144bb565b6109946144c1565b6109a86712f9c67ebfb6412860c01b6144bb565b6109bc673a5496641b0f5caf60c01b6144bb565b6109d0673720add9682c990560c01b6144bb565b6109e467bc6729b676db27f460c01b6144bb565b600460008273ffffffffffffffffffffffffffffffffffffffff1673ffffffffffffffffffffffffffffffffffffffff16815260200190815260200160002060009054906101000a900460ff16610a9a57610a4967f020dde1f6d2472560c01b6144bb565b610a5d67b8336a7b95876fe260c01b6144bb565b806040517fd64efe63000000000000000000000000000000000000000000000000000000008152600401610a9191906159b8565b60405180910390fd5b610aae67bc89601b022b751b60c01b6144bb565b610ac267a8843e5b8059dd3660c01b6144bb565b610ad667c7cdefdbb3846fc260c01b6144bb565b60006001805490509050610af467fa4aa189c991636260c01b6144bb565b610b0867edaf0a866baf431b60c01b6144bb565b60005b81811015610d2357610b27671441e549dea7ab1360c01b6144bb565b610b3b67e15f8f48f4a985fb60c01b6144bb565b60018181548110610b4f57610b4e615dd2565b5b9060005260206000200160009054906101000a900473ffffffffffffffffffffffffffffffffffffffff1673ffffffffffffffffffffffffffffffffffffffff168373ffffffffffffffffffffffffffffffffffffffff1603610d0257610bc067abc447794bb8765c60c01b6144bb565b610bd4679b5629ec8c61f5f160c01b6144bb565b60018083610be29190615dfe565b81548110610bf357610bf2615dd2565b5b9060005260206000200160009054906101000a900473ffffffffffffffffffffffffffffffffffffffff1660018281548110610c3257610c31615dd2565b5b9060005260206000200160006101000a81548173ffffffffffffffffffffffffffffffffffffffff021916908373ffffffffffffffffffffffffffffffffffffffff160217905550610c8e6709a10366754cf5cf60c01b6144bb565b610ca2670e5eb78fc74faa0f60c01b6144bb565b6001805480610cb457610cb3615e1c565b5b6001900381819060005260206000200160006101000a81549073ffffffffffffffffffffffffffffffffffffffff02191690559055610cfd67cf16b8dc0955ac2b60c01b6144bb565b610d23565b610d1667b1c90ea97162a1ea60c01b6144bb565b8080600101915050610b0b565b50610d3867a4b1f73f94dd3afd60c01b6144bb565b6000600460008473ffffffffffffffffffffffffffffffffffffffff1673ffffffffffffffffffffffffffffffffffffffff16815260200190815260200160002060006101000a81548160ff0219169083151502179055505050565b6343bcce9f60e01b81565b600860009054906101000a900473ffffffffffffffffffffffffffffffffffffffff1681565b63911cee7460e01b81565b610dd86144c1565b610de26000614548565b565b6060610dfa670b4d8ed71f9efc0760c01b6144bb565b610e0e677fe0ec5bda32588f60c01b6144bb565b610e2267779db0bfde120b9460c01b6144bb565b6040518060400160405280601681526020017f54585f5045524d495353494f4e5f434f4e545241435400000000000000000000815250905090565b632d4de12460e01b81565b60075481565b610e8267c0a3eae1aa042d9160c01b6144bb565b610e8a6144c1565b610e9e675595b0eba7753a3b60c01b6144bb565b610eb2677a548dca8771488e60c01b6144bb565b610ec6673777ea2bf1c543c860c01b6144bb565b610eda67d58f9460708eab6a60c01b6144bb565b600073ffffffffffffffffffffffffffffffffffffffff168173ffffffffffffffffffffffffffffffffffffffff1603610f6857610f2267c98b73647ed0663260c01b6144bb565b610f3667ada2f8e3d5c6466a60c01b6144bb565b6040517fd92e233d00000000000000000000000000000000000000000000000000000000815260040160405180910390fd5b610f7c6715ff039e97eac61f60c01b6144bb565b610f9067e51ed29c163d41fb60c01b6144bb565b80600860006101000a81548173ffffffffffffffffffffffffffffffffffffffff021916908373ffffffffffffffffffffffffffffffffffffffff160217905550610fe5677aedcdffcacd40f360c01b6144bb565b610ff967ca9e765c03c15d6460c01b6144bb565b7f387d29e18823e432432b6098ebeee33beebdb128d2234c7f486c26447b738edd8160405161102891906159b8565b60405180910390a150565b611047678fe2115d6ce1cd2660c01b6144be565b61104f6144c1565b6110636709b862b227f1778560c01b6144be565b61107767423a90dea5f08d5f60c01b6144be565b61108b6712d55d992cd616b860c01b6144be565b600080827bffffffffffffffffffffffffffffffffffffffffffffffffffffffff19167bffffffffffffffffffffffffffffffffffffffffffffffffffffffff19168152602001908152602001600020600080820160006101000a81549063ffffffff02191690556001820160006111039190615684565b5050611119671c3795656335d30b60c01b6144be565b61112d67c0de44f930e2c4cb60c01b6144be565b7fed27cb02231782dadf13473a7828cb980c4d685791b7a3136dde00f8c3594cb68160405161115c919061574d565b60405180910390a150565b60008061117261461f565b90508060000160009054906101000a900473ffffffffffffffffffffffffffffffffffffffff1691505090565b60006020528060005260406000206000915090508060000160009054906101000a900460e01b905081565b60006111e067a6f28341ce2d476f60c01b6144bb565b6111f4673d9e5da1a59d74cf60c01b6144bb565b61120867f26591713ff157ea60c01b6144bb565b6003905090565b611223675dc669468e94939d60c01b6144bb565b61122b6144c1565b61123f679debc848d6e6b9f160c01b6144bb565b6112536703a4f434f37c645760c01b6144bb565b8061126867288a20a40e8d1c5860c01b6144be565b61127c67c91bd2adbddb69c960c01b6144be565b61129067e350faaca2e8f0c060c01b6144be565b6112be6000357fffffffff00000000000000000000000000000000000000000000000000000000168261301c565b611327576112d667f321c0062a05753f60c01b6144be565b6112ea6710282e2f2d3001d760c01b6144be565b806040517f73330d9b00000000000000000000000000000000000000000000000000000000815260040161131e9190615984565b60405180910390fd5b61133b677a834b40c8e841e560c01b6144be565b61134f678765015181e8c42860c01b6144be565b61136367bb01e94ccd9634e160c01b6144bb565b61137767de901475046e000660c01b6144bb565b61138b675ca2c99c2c0af7f260c01b6144bb565b816007819055506113a667132268607654866160c01b6144bb565b6113ba674afb97597787740760c01b6144bb565b7fda69de0cab556da57726688a057caf911b2e8f850c45b6edf359bacf3db378e8826040516113e99190615984565b60405180910390a15050565b600360009054906101000a900473ffffffffffffffffffffffffffffffffffffffff1681565b6114236156a5565b611437674619985d99bfc13a60c01b6144be565b61144b67d3809ce56ffdd6c060c01b6144be565b61145f67672ef63f17fd937760c01b6144be565b60008083805190602001207bffffffffffffffffffffffffffffffffffffffffffffffffffffffff19167bffffffffffffffffffffffffffffffffffffffffffffffffffffffff191681526020019081526020016000206040518060400160405290816000820160009054906101000a900460e01b7bffffffffffffffffffffffffffffffffffffffffffffffffffffffff19167bffffffffffffffffffffffffffffffffffffffffffffffffffffffff191681526020016001820180548060200260200160405190810160405280929190818152602001828054801561156557602002820191906000526020600020905b815481526020019060010190808311611551575b5050505050815250509050919050565b60008061158c67461ed75dc080143160c01b6144bb565b6115a06783206625c0b0fe7f60c01b6144bb565b6115b46760baf67ce0ac6d4160c01b6144bb565b600460008873ffffffffffffffffffffffffffffffffffffffff1673ffffffffffffffffffffffffffffffffffffffff16815260200190815260200160002060009054906101000a900460ff16156116525761161a67990876b4d07b41c960c01b6144bb565b61162e6729a4181c185999a760c01b6144bb565b61164267478b0c6194dad15860c01b6144bb565b63ffffffff600091509150613012565b6116666706bc03a3eb20050f60c01b6144bb565b61167a67ccaa67bb601fe8e860c01b6144bb565b61168e67d129c284753f77ed60c01b6144bb565b60008060e01b90506116aa673c1f795b193cd47a60c01b6144bb565b6116be671126b83744f7bd7a60c01b6144bb565b60005b60048551101580156116d35750600481105b15611771576116ec678c8d9a519309651e60c01b6144bb565b6008816116f99190615e32565b85828151811061170c5761170b615dd2565b5b602001015160f81c60f81b7effffffffffffffffffffffffffffffffffffffffffffffffffffffffffffff19167bffffffffffffffffffffffffffffffffffffffffffffffffffffffff1916901c82179150808061176990615e54565b9150506116c1565b5061178667f3913d2865b7d83d60c01b6144bb565b61179a6770c65b9a285f11f960c01b6144bb565b600560009054906101000a900473ffffffffffffffffffffffffffffffffffffffff1673ffffffffffffffffffffffffffffffffffffffff168773ffffffffffffffffffffffffffffffffffffffff1603611ec9576118036797b57fd0040eecdc60c01b6144bb565b611817673f2fb9459c84334d60c01b6144bb565b61182b671ae97a0c8c1ce3c760c01b6144bb565b6343bcce9f60e01b7bffffffffffffffffffffffffffffffffffffffffffffffffffffffff1916817bffffffffffffffffffffffffffffffffffffffffffffffffffffffff1916036119a05761188b6793d9ca6421b94d4660c01b6144bb565b61189f6711bba2deae2eccb760c01b6144bb565b6118b367c8a38be4f8f6b61c60c01b6144bb565b600560009054906101000a900473ffffffffffffffffffffffffffffffffffffffff1673ffffffffffffffffffffffffffffffffffffffff1663f51726f0896040518263ffffffff1660e01b815260040161190e91906159b8565b602060405180830381865afa15801561192b573d6000803e3d6000fd5b505050506040513d601f19601f8201168201806040525081019061194f9190615e72565b8061196a57506119696756ca855f1dff448d60c01b614647565b5b8015611986575061198567301e4e378289d4a660c01b61464e565b5b611991576000611994565b60025b60009250925050613012565b6119b467970fbe885fdd601160c01b6144bb565b6119c8675d3ba69ee581ce1960c01b6144bb565b6119dc67a85ea7233f33890160c01b6144bb565b63a42bdee960e01b7bffffffffffffffffffffffffffffffffffffffffffffffffffffffff1916817bffffffffffffffffffffffffffffffffffffffffffffffffffffffff191603611d4257611a3c670650cda05314ff6260c01b6144bb565b611a506722a5b2519732f75260c01b6144bb565b611a64670741c8d6acb16f2f60c01b6144bb565b6000600560009054906101000a900473ffffffffffffffffffffffffffffffffffffffff1673ffffffffffffffffffffffffffffffffffffffff16631ee4d0bc8a6040518263ffffffff1660e01b8152600401611ac191906159b8565b602060405180830381865afa158015611ade573d6000803e3d6000fd5b505050506040513d601f19601f82011682018060405250810190611b029190615e9e565b9050611b1867193e304fbf831d1260c01b6144bb565b611b2c67ee9d903d3b3745a160c01b6144bb565b600073ffffffffffffffffffffffffffffffffffffffff168173ffffffffffffffffffffffffffffffffffffffff1614611cf857611b746736f44d07666314bb60c01b6144bb565b611b8867ec65714fa78bfe8960c01b6144bb565b611b9c67a3e851fcf1903ec960c01b6144bb565b600560009054906101000a900473ffffffffffffffffffffffffffffffffffffffff1673ffffffffffffffffffffffffffffffffffffffff16638e68dce46040518163ffffffff1660e01b8152600401602060405180830381865afa158015611c09573d6000803e3d6000fd5b505050506040513d601f19601f82011682018060405250810190611c2d9190615e9e565b73ffffffffffffffffffffffffffffffffffffffff1663a711e6a1826040518263ffffffff1660e01b8152600401611c6591906159b8565b602060405180830381865afa158015611c82573d6000803e3d6000fd5b505050506040513d601f19601f82011682018060405250810190611ca69190615e72565b80611cc15750611cc06783ec1a34e63b28b360c01b614647565b5b8015611cdd5750611cdc67539bdd12b99d48ae60c01b61464e565b5b611ce8576000611ceb565b60025b6000935093505050613012565b611d0c6707e8241ffca5009060c01b6144bb565b611d20673dff99d0c5ee47ac60c01b6144bb565b611d346767cce6260e5c58f260c01b6144bb565b600080935093505050613012565b611d5667f5ef173c1caaffe760c01b6144bb565b611d6a67cdb2412a0e74bd1860c01b6144bb565b611d7e678502019b15d946ce60c01b6144bb565b6000851115611eb057611d9b67dacae6610ac39bc060c01b6144bb565b611daf67ef9dae21e5afab1460c01b6144bb565b611dc36714985ec65dd240c960c01b6144bb565b600560009054906101000a900473ffffffffffffffffffffffffffffffffffffffff1673ffffffffffffffffffffffffffffffffffffffff1663facd743b896040518263ffffffff1660e01b8152600401611e1e91906159b8565b602060405180830381865afa158015611e3b573d6000803e3d6000fd5b505050506040513d601f19601f82011682018060405250810190611e5f9190615e72565b80611e7a5750611e7967190ca687793669d860c01b614647565b5b8015611e965750611e9567c47a8ad56608026e60c01b61464e565b5b611ea1576002611ea4565b60005b60009250925050613012565b611ec4677ec56e7d7bbc803960c01b6144bb565b611ede565b611edd67ce7cd8643dd8c06b60c01b6144bb565b5b611ef267c25e9313f464b5d560c01b6144bb565b611f0667783dd39501c050ea60c01b6144bb565b600360009054906101000a900473ffffffffffffffffffffffffffffffffffffffff1673ffffffffffffffffffffffffffffffffffffffff168773ffffffffffffffffffffffffffffffffffffffff16036129de57611f6f67a8b72ceaed17700260c01b6144bb565b611f83672d4508ecf252e11160c01b6144bb565b611f97674268513fdd17a0b960c01b6144bb565b632d4de12460e01b7bffffffffffffffffffffffffffffffffffffffffffffffffffffffff1916817bffffffffffffffffffffffffffffffffffffffffffffffffffffffff1916036123d757611ff767f9c1ca7afd3e375060c01b6144bb565b61200b675269410ef4171d3660c01b6144bb565b61201f67bc58c8a88ddc43b960c01b6144bb565b6001600581111561203357612032615ec5565b5b600560009054906101000a900473ffffffffffffffffffffffffffffffffffffffff1673ffffffffffffffffffffffffffffffffffffffff166314e28d908a6040518263ffffffff1660e01b815260040161208e91906159b8565b602060405180830381865afa1580156120ab573d6000803e3d6000fd5b505050506040513d601f19601f820116820180604052508101906120cf9190615edb565b60058111156120e1576120e0615ec5565b5b0361238e576120fa677a2ed85813ca8f4c60c01b6144bb565b61210e67ab1d016898128c0060c01b6144bb565b61212267da0038d49a271a9860c01b6144bb565b6024845110156121755761214067bc0ab327523ffad660c01b6144bb565b612154670dee3808c772a24760c01b6144bb565b61216867432e9bbc30520ff860c01b6144bb565b6000809250925050613012565b6121896741bd6af737258eb960c01b6144bb565b61219d67bbe59a5552c4474260c01b6144bb565b6121b167ceda219494d7314c60c01b6144bb565b60006121be600486614659565b90506121d467172cad939d75317b60c01b6144bb565b6121e86744bf532318a1cc4260c01b6144bb565b6001600560009054906101000a900473ffffffffffffffffffffffffffffffffffffffff1673ffffffffffffffffffffffffffffffffffffffff16638e68dce46040518163ffffffff1660e01b8152600401602060405180830381865afa158015612257573d6000803e3d6000fd5b505050506040513d601f19601f8201168201806040525081019061227b9190615e9e565b73ffffffffffffffffffffffffffffffffffffffff1663794c0c686040518163ffffffff1660e01b8152600401602060405180830381865afa1580156122c5573d6000803e3d6000fd5b505050506040513d601f19601f820116820180604052508101906122e99190615f06565b6122f39190615f22565b81036123445761230d67ed7b658b80358b4160c01b6144bb565b61232167266007c2f1e0ea4d60c01b6144bb565b61233567bb27b06fb098385960c01b6144bb565b60026000935093505050613012565b61235867a2304be15038ae8060c01b6144bb565b61236c67474b2c92a0ec3a0c60c01b6144bb565b612380676f1d93376677849060c01b6144bb565b600080935093505050613012565b6123a26727aa505d4604e28360c01b6144bb565b6123b667d0134b3c2c1d83fc60c01b6144bb565b6123ca67eecc696276c707cd60c01b6144bb565b6000809250925050613012565b6123eb67ef9437f2a4c12d9c60c01b6144bb565b6123ff67eafe6ef1e84bf23e60c01b6144bb565b6124136711f42b035d2cb0f360c01b6144bb565b635623208e60e01b7bffffffffffffffffffffffffffffffffffffffffffffffffffffffff1916817bffffffffffffffffffffffffffffffffffffffffffffffffffffffff1916036129c557612473676600a011556d31c160c01b6144bb565b61248767eee91feb7485f32360c01b6144bb565b61249b67b2c393ce62e71ddd60c01b6144bb565b600360058111156124af576124ae615ec5565b5b600560009054906101000a900473ffffffffffffffffffffffffffffffffffffffff1673ffffffffffffffffffffffffffffffffffffffff166314e28d908a6040518263ffffffff1660e01b815260040161250a91906159b8565b602060405180830381865afa158015612527573d6000803e3d6000fd5b505050506040513d601f19601f8201168201806040525081019061254b9190615edb565b600581111561255d5761255c615ec5565b5b0361297c576125766793dfc5d639cb5f2960c01b6144bb565b61258a67368fc886f26db56260c01b6144bb565b61259e670d3e5b433c01494260c01b6144bb565b6024845110156125f1576125bc67627d67b8287923b160c01b6144bb565b6125d0676fc20625ae0da43760c01b6144bb565b6125e46725d776ab9a1cb5f360c01b6144bb565b6000809250925050613012565b612605678d1f2732eea2918360c01b6144bb565b61261967e523b598a89c86fc60c01b6144bb565b61262d6781ff2989b7d220c660c01b6144bb565b6001600560009054906101000a900473ffffffffffffffffffffffffffffffffffffffff1673ffffffffffffffffffffffffffffffffffffffff16638e68dce46040518163ffffffff1660e01b8152600401602060405180830381865afa15801561269c573d6000803e3d6000fd5b505050506040513d601f19601f820116820180604052508101906126c09190615e9e565b73ffffffffffffffffffffffffffffffffffffffff1663794c0c686040518163ffffffff1660e01b8152600401602060405180830381865afa15801561270a573d6000803e3d6000fd5b505050506040513d601f19601f8201168201806040525081019061272e9190615f06565b6127389190615f22565b612743600486614659565b036127925761275c6733ca9707d0fb5ec960c01b6144bb565b61277067021db45c81bb245e60c01b6144bb565b6127846720152cf583b4686360c01b6144bb565b600260009250925050613012565b6127a667d2c2220d4a63732760c01b6144bb565b6127ba6744c0b417bc5448c160c01b6144bb565b6127ce67f952512992dbdac960c01b6144bb565b6001600560009054906101000a900473ffffffffffffffffffffffffffffffffffffffff1673ffffffffffffffffffffffffffffffffffffffff16638e68dce46040518163ffffffff1660e01b8152600401602060405180830381865afa15801561283d573d6000803e3d6000fd5b505050506040513d601f19601f820116820180604052508101906128619190615e9e565b73ffffffffffffffffffffffffffffffffffffffff1663794c0c686040518163ffffffff1660e01b8152600401602060405180830381865afa1580156128ab573d6000803e3d6000fd5b505050506040513d601f19601f820116820180604052508101906128cf9190615f06565b6128d99190615f22565b6128e4602486614659565b03612933576128fd67fec9dabec0c3a6de60c01b6144bb565b61291167984b631eecde447a60c01b6144bb565b6129256782953a90409c1c5160c01b6144bb565b600260009250925050613012565b61294767c89e4981de294d5560c01b6144bb565b61295b67502dcf285082e5fb60c01b6144bb565b61296f6737210a3d91ac5ceb60c01b6144bb565b6000809250925050613012565b612990672462655b2df0053460c01b6144bb565b6129a46710c5e67ab484ee8460c01b6144bb565b6129b867cdcf1ceb6e2e712b60c01b6144bb565b6000809250925050613012565b6129d96703ce9cc1ce38daf060c01b6144bb565b6129f3565b6129f267cc2f52d40e75e49160c01b6144bb565b5b612a076743e15a441686bc0560c01b6144bb565b612a1b67a4bd78e295ecfc6360c01b6144bb565b600860009054906101000a900473ffffffffffffffffffffffffffffffffffffffff1673ffffffffffffffffffffffffffffffffffffffff168773ffffffffffffffffffffffffffffffffffffffff1603612b5857612a8467692eebe12c6476dc60c01b6144bb565b612a98672d7948cd59f9067a60c01b6144bb565b612aac672ce3cae12e7e410c60c01b6144bb565b6000612ab989838761478c565b9050612acf67876e2444ea9da0c960c01b6144bb565b612ae367851b4162809722a160c01b6144bb565b806020015115612b3e57612b0167de79d44764bea7eb60c01b6144bb565b612b1567b891eb5c25d0735760c01b6144bb565b612b29676c4cac9b7d20563f60c01b6144bb565b80600001518160400151935093505050613012565b612b52675af74b9453003f0f60c01b6144bb565b50612b6d565b612b6c670dc07c21fb12d07660c01b6144bb565b5b612b8167c6c6f3c96e287fb060c01b6144bb565b612b95672f7620ae97c2cc3d60c01b6144bb565b600560009054906101000a900473ffffffffffffffffffffffffffffffffffffffff1673ffffffffffffffffffffffffffffffffffffffff1663facd743b896040518263ffffffff1660e01b8152600401612bf091906159b8565b602060405180830381865afa158015612c0d573d6000803e3d6000fd5b505050506040513d601f19601f82011682018060405250810190612c319190615e72565b8015612c3d5750600085115b15612cea57612c5667dc4324efe1d025e160c01b6144bb565b612c6a67244764f479edf3d160c01b6144bb565b612c7e678517cf51e55ee8e260c01b6144bb565b60008873ffffffffffffffffffffffffffffffffffffffff16311180612cb45750612cb367eed22c3d2ff6314f60c01b614647565b5b8015612cd05750612ccf67e4902821d09ecc4660c01b61464e565b5b612cdb576000612cde565b60015b60009250925050613012565b612cfe674f0aacfab105f00e60c01b6144bb565b612d12675d5504897103fe1b60c01b6144bb565b612d2667fbed887c5613018060c01b6144bb565b600560009054906101000a900473ffffffffffffffffffffffffffffffffffffffff1673ffffffffffffffffffffffffffffffffffffffff1663facd743b886040518263ffffffff1660e01b8152600401612d8191906159b8565b602060405180830381865afa158015612d9e573d6000803e3d6000fd5b505050506040513d601f19601f82011682018060405250810190612dc29190615e72565b15612e1057612ddb67310d6e5194c7eae660c01b6144bb565b612def67bff7861102e3418260c01b6144bb565b612e0367ba109a0d0d3a5dfe60c01b6144bb565b6000809250925050613012565b612e246711cb6b61efd5226360c01b6144bb565b612e3867ff99ef6d0c8f26f460c01b6144bb565b612e4c674c9d9595c4a7f9cd60c01b6144bb565b60008503612f8057612e68674010d9140077a18260c01b6144bb565b612e7c67364922b18fdbcf7860c01b6144bb565b612e90673802d36ead4c02f060c01b6144bb565b600260009054906101000a900473ffffffffffffffffffffffffffffffffffffffff1673ffffffffffffffffffffffffffffffffffffffff1663e8e23ac0896040518263ffffffff1660e01b8152600401612eeb91906159b8565b602060405180830381865afa158015612f08573d6000803e3d6000fd5b505050506040513d601f19601f82011682018060405250810190612f2c9190615e72565b80612f475750612f4667b6e87bbe8e2db91160c01b614647565b5b8015612f635750612f6267225b52e5ff66de1a60c01b61464e565b5b612f6e576000612f74565b63ffffffff5b60009250925050613012565b612f946760d41dc5115b25c660c01b6144bb565b612fa8676fa8e9a6b8b36e1e60c01b6144bb565b612fbc67e5fc863f14ac276b60c01b6144bb565b60065485101580612fdd5750612fdc670b9c8c383ea2610a60c01b614647565b5b8015612ff95750612ff86783539556737ae0c760c01b61464e565b5b61300457600061300a565b63ffffffff5b600092509250505b9550959350505050565b600061303267474e2d01d013ed0460c01b6144be565b61304667a3dfb7f1a77f229760c01b6144be565b61305a67c84461f410b06e1d60c01b6144be565b6000806000857bffffffffffffffffffffffffffffffffffffffffffffffffffffffff19167bffffffffffffffffffffffffffffffffffffffffffffffffffffffff191681526020019081526020016000206040518060400160405290816000820160009054906101000a900460e01b7bffffffffffffffffffffffffffffffffffffffffffffffffffffffff19167bffffffffffffffffffffffffffffffffffffffffffffffffffffffff191681526020016001820180548060200260200160405190810160405280929190818152602001828054801561315b57602002820191906000526020600020905b815481526020019060010190808311613147575b505050505081525050905061317a67fceac404249b0d4760c01b6144be565b61318e6780c820ae5d3863fa60c01b6144be565b6000816020015151036131e1576131af67d3f7980aefae23f760c01b6144be565b6131c3675178b7b9ce528bf860c01b6144be565b6131d7672c12828ba0a53f0e60c01b6144be565b6000915050613506565b6131f5679fbf9a05f8d8d3f260c01b6144be565b61320967ec1b37c91026e18c60c01b6144be565b61321c66575fac3fc8706960c01b6144be565b60008160200151905061323967e4ee101f22c6ceed60c01b6144be565b61324d67ccc0fb216cd0689c60c01b6144be565b600061325c8360000151614d0c565b905061327267bfc58c9d8e9c74b760c01b6144be565b613286679e58f8bb97a704b560c01b6144be565b60005b82518110156134d5576132a6670ae3b9f28946ab1660c01b6144be565b6132ba674d79179b2b65b62460c01b6144be565b818382815181106132ce576132cd615dd2565b5b6020026020010151036134b4576132ef67e77d2e3f89e7a42860c01b6144be565b61330367b7842defb9da051d60c01b6144be565b613317671547477c73ca15a160c01b6144be565b600080821180613337575061333667cc01463c19fc8ba960c01b614f28565b5b8015613353575061335267227034a55ba6c0a760c01b614f2f565b5b613378578360008151811061336b5761336a615dd2565b5b60200260200101516133a0565b836001836133869190615dfe565b8151811061339757613396615dd2565b5b60200260200101515b90506133b6677185030a1f64e21460c01b6144be565b6133ca6778bafd4adda4b1c560c01b6144be565b6000600185516133da9190615dfe565b8310806133f757506133f6674f0cebdd4deab5ed60c01b614f28565b5b8015613413575061341267dc67d8968d02c22460c01b614f2f565b5b6134445784600186516134269190615dfe565b8151811061343757613436615dd2565b5b602002602001015161346c565b846001846134529190615f22565b8151811061346357613462615dd2565b5b60200260200101515b9050613482672e87edf58ed8962a60c01b6144be565b613496676973514a8df1a1ba60c01b6144be565b8188141580156134a65750808814155b159650505050505050613506565b6134c8679ca04a6f8e3f0a1060c01b6144be565b8080600101915050613289565b506134ea67aa325e51b176b97060c01b6144be565b6134fe674634c9165e74839160c01b6144be565b600093505050505b92915050565b6135146156a5565b613528678d336dd70b28d88c60c01b6144be565b61353c670ef5ff68e8bedddd60c01b6144be565b6135506787db0b959c67689d60c01b6144be565b600080837bffffffffffffffffffffffffffffffffffffffffffffffffffffffff19167bffffffffffffffffffffffffffffffffffffffffffffffffffffffff191681526020019081526020016000206040518060400160405290816000820160009054906101000a900460e01b7bffffffffffffffffffffffffffffffffffffffffffffffffffffffff19167bffffffffffffffffffffffffffffffffffffffffffffffffffffffff191681526020016001820180548060200260200160405190810160405280929190818152602001828054801561364f57602002820191906000526020600020905b81548152602001906001019080831161363b575b5050505050815250509050919050565b61367367d93053e057a78ce860c01b6144bb565b600061367d614f3a565b905060008160000160089054906101000a900460ff1615905060008260000160009054906101000a900467ffffffffffffffff1690506000808267ffffffffffffffff161480156136cb5750825b9050600060018367ffffffffffffffff16148015613700575060003073ffffffffffffffffffffffffffffffffffffffff163b145b90508115801561370e575080155b15613745576040517ff92ee8a900000000000000000000000000000000000000000000000000000000815260040160405180910390fd5b60018560000160006101000a81548167ffffffffffffffff021916908367ffffffffffffffff16021790555083156137955760018560000160086101000a81548160ff0219169083151502179055505b6137a967d29228836d328bfd60c01b6144bb565b6137bd676984a4db125d985a60c01b6144bb565b6137d1676fe9a5ecdcd32e2760c01b6144bb565b6137e567c9cbb6a18bda043a60c01b6144bb565b600073ffffffffffffffffffffffffffffffffffffffff168673ffffffffffffffffffffffffffffffffffffffff161480156138315750613830670cc505ef8cf597d960c01b61464e565b5b806138a05750600073ffffffffffffffffffffffffffffffffffffffff168a73ffffffffffffffffffffffffffffffffffffffff161480156138835750613882671646b3f7e3a1dd5f60c01b61464e565b5b801561389f575061389e67b94caa5b173e7a6f60c01b61464e565b5b5b8061390f5750600073ffffffffffffffffffffffffffffffffffffffff168973ffffffffffffffffffffffffffffffffffffffff161480156138f257506138f167453a11ab2f620aa160c01b61464e565b5b801561390e575061390d671604acf107a519df60c01b61464e565b5b5b8061397e5750600073ffffffffffffffffffffffffffffffffffffffff168873ffffffffffffffffffffffffffffffffffffffff1614801561396157506139606739a61242c43eebb460c01b61464e565b5b801561397d575061397c676d87b97d52b1a5f760c01b61464e565b5b5b806139d15750600073ffffffffffffffffffffffffffffffffffffffff168773ffffffffffffffffffffffffffffffffffffffff161480156139d057506139cf676985cac073941ab160c01b61464e565b5b5b15613a30576139ea67cbb694d5cd3f513860c01b6144bb565b6139fe6794a33e8a3a0f4da660c01b6144bb565b6040517fd92e233d00000000000000000000000000000000000000000000000000000000815260040160405180910390fd5b613a4467d5aba4722250936e60c01b6144bb565b613a5867b0974c84dc22dca660c01b6144bb565b613a6c67f111289d4f71ce6060c01b6144bb565b613a7586614f62565b613a8967adf7922abd44138760c01b6144bb565b613a9d67e6ae655fa2cb359260c01b6144bb565b60005b8c8c9050811015613b0e57613abf673f417eb3338eee0660c01b6144bb565b613ad367d1cd138d948ce92d60c01b6144bb565b613b038d8d83818110613ae957613ae8615dd2565b5b9050602002016020810190613afe91906158d7565b614f76565b806001019050613aa0565b50613b2367b767710c55ea830b60c01b6144bb565b89600260006101000a81548173ffffffffffffffffffffffffffffffffffffffff021916908373ffffffffffffffffffffffffffffffffffffffff160217905550613b7867f3f98d3df25177ac60c01b6144bb565b88600560006101000a81548173ffffffffffffffffffffffffffffffffffffffff021916908373ffffffffffffffffffffffffffffffffffffffff160217905550613bcd6723e9e4e1d018d38560c01b6144bb565b87600360006101000a81548173ffffffffffffffffffffffffffffffffffffffff021916908373ffffffffffffffffffffffffffffffffffffffff160217905550613c2267e2ed61352871934660c01b6144bb565b86600860006101000a81548173ffffffffffffffffffffffffffffffffffffffff021916908373ffffffffffffffffffffffffffffffffffffffff160217905550613c776705b21f5c32a6714b60c01b6144bb565b633b9aca00600681905550613c9667df12d7a5aeaf081960c01b6144bb565b6305f5e100600781905550613cb567b8c3f497c317fe7660c01b6144bb565b613cc967bf970b18ad5612c160c01b6144bb565b6000600b67ffffffffffffffff811115613ce657613ce5615a22565b5b604051908082528060200260200182016040528015613d145781602001602082028036833780820191505090505b509050613d2b67cc275a4086e2228b60c01b6144bb565b6305f5e10081600081518110613d4457613d43615dd2565b5b602002602001018181525050613d6467c27def3986eba58e60c01b6144bb565b630bebc20081600181518110613d7d57613d7c615dd2565b5b602002602001018181525050613d9d67d48123aa7ad1b7c260c01b6144bb565b6317d7840081600281518110613db657613db5615dd2565b5b602002602001018181525050613dd667b4e65c76e388f31060c01b6144bb565b6323c3460081600381518110613def57613dee615dd2565b5b602002602001018181525050613e0f67b4077bc3e89efe5b60c01b6144bb565b632faf080081600481518110613e2857613e27615dd2565b5b602002602001018181525050613e4867602b0a82e6d0e68a60c01b6144bb565b633b9aca0081600581518110613e6157613e60615dd2565b5b602002602001018181525050613e816774a7a55293f1bdcd60c01b6144bb565b637735940081600681518110613e9a57613e99615dd2565b5b602002602001018181525050613eba674f1117af7f5f0b0c60c01b6144bb565b63ee6b280081600781518110613ed357613ed2615dd2565b5b602002602001018181525050613ef36735b15829af69874260c01b6144bb565b640165a0bc0081600881518110613f0d57613f0c615dd2565b5b602002602001018181525050613f2d675abee16a57341d6360c01b6144bb565b6401dcd6500081600981518110613f4757613f46615dd2565b5b602002602001018181525050613f676798e63d34af2ef59c60c01b6144bb565b6402540be40081600a81518110613f8157613f80615dd2565b5b602002602001018181525050613fa1670f36b8700707284060c01b6144bb565b613fb567a27e1d61bef21f2d60c01b6144bb565b613fce63d249b31c60e01b63df3cecf660e01b83615241565b613fe267dbdec3dfaaad9b4160c01b6144bb565b613ff667ec4c40ed9949d4f860c01b6144bb565b6000600a67ffffffffffffffff81111561401357614012615a22565b5b6040519080825280602002602001820160405280156140415781602001602082028036833780820191505090505b5090506140586797f4543e9ebd003360c01b6144bb565b61406c6738930f6d916d1af060c01b6144bb565b60005b81518110156140d25761408c67048046ba46ded70e60c01b6144bb565b6305f5e10060018261409e9190615f22565b6140a89190615e32565b8282815181106140bb576140ba615dd2565b5b60200260200101818152505080600101905061406f565b506140e76711959907441f9aa760c01b6144bb565b6140fb6750efd2afa9b247e660c01b6144bb565b61411463a69257f360e01b637877a79760e01b83615241565b505083156141725760008560000160086101000a81548160ff0219169083151502179055507fc7f505b2f371ae2175ee4913f4499e1f2633a7b5936321eed1cdaeb6115181d260016040516141699190615f40565b60405180910390a15b505050505050505050505050565b61419467f255c83f0142cf5f60c01b6144bb565b61419c6144c1565b6141b067077c4f7e38e8b4e760c01b6144bb565b6141c467b67fabbd6ae5277260c01b6144bb565b6141d867186e29997970f7fe60c01b6144bb565b6141ec67f49b51e8f7ac4cfd60c01b6144bb565b6141f581614f76565b50565b61420c67d6af850cb4d2d71b60c01b6144bb565b6142146144c1565b614228673fb023140be0396360c01b6144bb565b61423c675b2e202e21c9ad6360c01b6144bb565b8061425167288a20a40e8d1c5860c01b6144be565b61426567c91bd2adbddb69c960c01b6144be565b61427967e350faaca2e8f0c060c01b6144be565b6142a76000357fffffffff00000000000000000000000000000000000000000000000000000000168261301c565b614310576142bf67f321c0062a05753f60c01b6144be565b6142d36710282e2f2d3001d760c01b6144be565b806040517f73330d9b0000000000000000000000000000000000000000000000000000000081526004016143079190615984565b60405180910390fd5b614324677a834b40c8e841e560c01b6144be565b614338678765015181e8c42860c01b6144be565b61434c675c99952919e3659160c01b6144bb565b6143606735a5d37d19c7c24260c01b6144bb565b61437467affbf42651acd75c60c01b6144bb565b8160068190555061438f6777b77f7f2483052c60c01b6144bb565b6143a367ae56cc916911b29e60c01b6144bb565b7f52264b89e0fceafb26e79fd49ef8a366eb6297483bf4035b027f0c99a7ad512e826040516143d29190615984565b60405180910390a15050565b63b2a6842160e01b81565b60065481565b600560009054906101000a900473ffffffffffffffffffffffffffffffffffffffff1681565b60046020528060005260406000206000915054906101000a900460ff1681565b61443d6144c1565b600073ffffffffffffffffffffffffffffffffffffffff168173ffffffffffffffffffffffffffffffffffffffff16036144af5760006040517f1e4fbdf70000000000000000000000000000000000000000000000000000000081526004016144a691906159b8565b60405180910390fd5b6144b881614548565b50565b50565b50565b6144c96153c9565b73ffffffffffffffffffffffffffffffffffffffff166144e7611167565b73ffffffffffffffffffffffffffffffffffffffff16146145465761450a6153c9565b6040517f118cdaa700000000000000000000000000000000000000000000000000000000815260040161453d91906159b8565b60405180910390fd5b565b600061455261461f565b905060008160000160009054906101000a900473ffffffffffffffffffffffffffffffffffffffff169050828260000160006101000a81548173ffffffffffffffffffffffffffffffffffffffff021916908373ffffffffffffffffffffffffffffffffffffffff1602179055508273ffffffffffffffffffffffffffffffffffffffff168173ffffffffffffffffffffffffffffffffffffffff167f8be0079c531659141344cd1fd0a4f28419497f9722a3daafe3b4186f6b6457e060405160405180910390a3505050565b60007f9016d09d72d40fdae2fd8ceac6b6234c7706214fd39c1cd1e609a0528c199300905090565b6000919050565b600060019050919050565b600061466f674eff534510212efb60c01b6144bb565b614683675dbc211183a3f00160c01b6144bb565b614697678b5b47add7e5900860c01b6144bb565b60006146ad67261d086f2581026760c01b6144bb565b6146c167b3a37413b990a61560c01b6144bb565b60005b6020811015614759576146e1678c4db93c2dd0704d60c01b6144bb565b600881601f6146f09190615dfe565b6146fa9190615e32565b60026147069190616056565b8482876147139190615f22565b8151811061472457614723615dd2565b5b602001015160f81c60f81b60f81c60ff1661473f9190615e32565b8261474a9190615f22565b915080806001019150506146c4565b5061476e6749b31a441502686b60c01b6144bb565b614782674faa568e6b9ec49360c01b6144bb565b8091505092915050565b6147946156de565b6147a867a263c81fcdaea2d460c01b6144bb565b6147bc67f566779d4601ed5760c01b6144bb565b6147d067be73b7b55b9737d960c01b6144bb565b60006060600484516147e29190615dfe565b11806147fe57506147fd674cb753ea06b86f0f60c01b614647565b5b801561481a57506148196794c210102e47be0f60c01b61464e565b5b614831576004835161482c9190615dfe565b614834565b60605b905061484a6747465b46b7b329be60c01b6144bb565b61485e67ca95540fb1aa9fe660c01b6144bb565b600061486c848360046153d1565b905061488267d6f5a929a06fd52260c01b6144bb565b614896673b5eb5f4492a922560c01b6144bb565b60006040518060600160405280600063ffffffff1681526020016001151581526020016000151581525090506148d6673f7362c7d173d90060c01b6144bb565b6148ea67d83e07f8e598502060c01b6144bb565b63911cee7460e01b7bffffffffffffffffffffffffffffffffffffffffffffffffffffffff1916867bffffffffffffffffffffffffffffffffffffffffffffffffffffffff191603614aaf5761494a67b594fe9f34bfc4e260c01b6144bb565b61495e67d58a6af82dd4fd5060c01b6144bb565b61497267ab3b70a507afeea160c01b6144bb565b60008060008480602001905181019061498b919061606a565b9250925092506149a567e4a12e7e74e90a0f60c01b6144bb565b6149b967befc638aa0ae41d660c01b6144bb565b600860009054906101000a900473ffffffffffffffffffffffffffffffffffffffff1673ffffffffffffffffffffffffffffffffffffffff1663060b28498b8585856040518563ffffffff1660e01b8152600401614a1a94939291906160a3565b60006040518083038186803b158015614a3257600080fd5b505afa925050508015614a43575060015b614a7957614a5b67cc8f5b86c5c0d83d60c01b6144bb565b6000846000019063ffffffff16908163ffffffff1681525050614aa7565b614a8d67256882720b0f2d1060c01b6144bb565b6002846000019063ffffffff16908163ffffffff16815250505b505050614cd7565b614ac367f4c1896b94089e2660c01b6144bb565b614ad767395600dc5bf8ac4d60c01b6144bb565b63b2a6842160e01b7bffffffffffffffffffffffffffffffffffffffffffffffffffffffff1916867bffffffffffffffffffffffffffffffffffffffffffffffffffffffff191603614c9c57614b3767c50a8070c55e5c8660c01b6144bb565b614b4b67a672189cd6be5a3860c01b6144bb565b614b5f67d45a69cf323ddc8860c01b6144bb565b600080600084806020019051810190614b78919061606a565b925092509250614b92670fb006138ae807b860c01b6144bb565b614ba66705c833d1b262399a60c01b6144bb565b600860009054906101000a900473ffffffffffffffffffffffffffffffffffffffff1673ffffffffffffffffffffffffffffffffffffffff1663bed8968c8b8585856040518563ffffffff1660e01b8152600401614c0794939291906160a3565b60006040518083038186803b158015614c1f57600080fd5b505afa925050508015614c30575060015b614c6657614c4867c98c7265e5acef8760c01b6144bb565b6000846000019063ffffffff16908163ffffffff1681525050614c94565b614c7a67780cf29cd94096aa60c01b6144bb565b6002846000019063ffffffff16908163ffffffff16815250505b505050614cd6565b614cb06799a25209b57e82b860c01b6144bb565b614cc467a4b50c43306fd68960c01b6144bb565b60008160200190151590811515815250505b5b614ceb677b84655a9b501d3e60c01b6144bb565b614cff67497c7efabd48296560c01b6144bb565b8093505050509392505050565b6000614d22679e1fb7c1345f6d7560c01b6144be565b614d36676a464d35bf2f530e60c01b6144be565b614d4a67bf3100cc1e8b9dfe60c01b6144be565b600082604051602401604051602081830303815290604052907bffffffffffffffffffffffffffffffffffffffffffffffffffffffff19166020820180517bffffffffffffffffffffffffffffffffffffffffffffffffffffffff83818316178352505050509050614dc66796628452cad12c7f60c01b6144be565b614dda675ab273453a552a6660c01b6144be565b6000803073ffffffffffffffffffffffffffffffffffffffff1683604051614e0291906160e3565b600060405180830381855afa9150503d8060008114614e3d576040519150601f19603f3d011682016040523d82523d6000602084013e614e42565b606091505b5091509150614e5b67ddcfe0b4c19fd84c60c01b6144be565b614e6f67a914dc00efc72af160c01b6144be565b81614ece57614e8867cc0b2dfba033c08760c01b6144be565b614e9c673b33da3d059e2f5160c01b6144be565b6040517fbf75613600000000000000000000000000000000000000000000000000000000815260040160405180910390fd5b614ee2670c45fced65fbfda160c01b6144be565b614ef66783c55538565e133160c01b6144be565b614f0a671651102527c6e0d860c01b6144be565b80806020019051810190614f1e9190615f06565b9350505050919050565b6000919050565b600060019050919050565b60007ff0c57e16840df040f15088dc2f81fe391c3923bec73e23a9662efc9c229c6a00905090565b614f6a615551565b614f7381615591565b50565b614f8a672aef55f6a9957d5860c01b6144bb565b614f9e67f4523c6715a5967e60c01b6144bb565b614fb267b44c5fb30ff8019c60c01b6144bb565b600073ffffffffffffffffffffffffffffffffffffffff168173ffffffffffffffffffffffffffffffffffffffff160361504057614ffa6711a2337c3495c84a60c01b6144bb565b61500e675fd822303175eb1860c01b6144bb565b6040517fd92e233d00000000000000000000000000000000000000000000000000000000815260040160405180910390fd5b61505467d2e938018e5ebdfb60c01b6144bb565b61506867bc6f663e699caeaa60c01b6144bb565b61507c67bca131f134c65bcb60c01b6144bb565b600460008273ffffffffffffffffffffffffffffffffffffffff1673ffffffffffffffffffffffffffffffffffffffff16815260200190815260200160002060009054906101000a900460ff1615615133576150e2678414c6482eb4f6fb60c01b6144bb565b6150f667b32933100a84c95c60c01b6144bb565b806040517f7c93412000000000000000000000000000000000000000000000000000000000815260040161512a91906159b8565b60405180910390fd5b61514767d7ae3a892ebcdc8e60c01b6144bb565b61515b67ffe3064c0485358b60c01b6144bb565b61516f670eee6d3a190aad9e60c01b6144bb565b6001819080600181540180825580915050600190039060005260206000200160009091909190916101000a81548173ffffffffffffffffffffffffffffffffffffffff021916908373ffffffffffffffffffffffffffffffffffffffff1602179055506151e6676b208a3769a6ac9c60c01b6144bb565b6001600460008373ffffffffffffffffffffffffffffffffffffffff1673ffffffffffffffffffffffffffffffffffffffff16815260200190815260200160002060006101000a81548160ff02191690831515021790555050565b61525567c79e4b348e6f39f460c01b6144be565b61525d615551565b61527167b4a3fa81ec94c0b760c01b6144be565b6152856779af0e9eed62f6a360c01b6144be565b615299671d2f4cf255f3a3a260c01b6144be565b6040518060400160405280837bffffffffffffffffffffffffffffffffffffffffffffffffffffffff1916815260200182815250600080857bffffffffffffffffffffffffffffffffffffffffffffffffffffffff19167bffffffffffffffffffffffffffffffffffffffffffffffffffffffff1916815260200190815260200160002060008201518160000160006101000a81548163ffffffff021916908360e01c0217905550602082015181600101908051906020019061535d929190615637565b509050506153756761754190fdc3bd4b60c01b6144be565b61538967ff18751ae25d0b5f60c01b6144be565b7f3665bf9cd0ba4ddceeec259e21dcf8a4510f3b1130bd42e950828e69d85408ba8383836040516153bc93929190616101565b60405180910390a1505050565b600033905090565b60606153e767b101fbceec5f14a460c01b6144bb565b6153fb67df9606fa31066f1360c01b6144bb565b61540f672c91162fb11c546660c01b6144bb565b60008367ffffffffffffffff81111561542b5761542a615a22565b5b6040519080825280601f01601f19166020018201604052801561545d5781602001600182028036833780820191505090505b5090506154746788de5f3629c50dd760c01b6144bb565b6154886716bac8e0e8aa981f60c01b6144bb565b60005b8481101561551d576154a76792984fdeddfd2b2f60c01b6144bb565b8584826154b49190615f22565b815181106154c5576154c4615dd2565b5b602001015160f81c60f81b8282815181106154e3576154e2615dd2565b5b60200101907effffffffffffffffffffffffffffffffffffffffffffffffffffffffffffff1916908160001a90535080600101905061548b565b506155326762dacbe9f9cf8cd360c01b6144bb565b61554667051058259e284f9160c01b6144bb565b809150509392505050565b615559615617565b61558f576040517fd7e6bcf800000000000000000000000000000000000000000000000000000000815260040160405180910390fd5b565b615599615551565b600073ffffffffffffffffffffffffffffffffffffffff168173ffffffffffffffffffffffffffffffffffffffff160361560b5760006040517f1e4fbdf700000000000000000000000000000000000000000000000000000000815260040161560291906159b8565b60405180910390fd5b61561481614548565b50565b6000615621614f3a565b60000160089054906101000a900460ff16905090565b828054828255906000526020600020908101928215615673579160200282015b82811115615672578251825591602001919060010190615657565b5b5090506156809190615709565b5090565b50805460008255906000526020600020908101906156a29190615709565b50565b604051806040016040528060007bffffffffffffffffffffffffffffffffffffffffffffffffffffffff19168152602001606081525090565b6040518060600160405280600063ffffffff1681526020016000151581526020016000151581525090565b5b8082111561572257600081600090555060010161570a565b5090565b600060208201905073ffffffffffffffffffffffffffffffffffffffff8316825292915050565b600060208201905063ffffffff60e01b8316825292915050565b600060208083016020845280855180835260408601915060208701925060005b818110156157be5773ffffffffffffffffffffffffffffffffffffffff845116835284830192508484019350600181019050615787565b505080935050505092915050565b60008135905063ffffffff60e01b811681146157e757600080fd5b919050565b60008083601f8401126157fe57600080fd5b8235905067ffffffffffffffff81111561581757600080fd5b6020830191508360208260051b850101111561583257600080fd5b9250929050565b6000806000806060858703121561584f57600080fd5b615858856157cc565b9350615866602086016157cc565b9250604085013567ffffffffffffffff81111561588257600080fd5b61588e878288016157ec565b9150809350508091505092959194509250565b600060208201905082825292915050565b73ffffffffffffffffffffffffffffffffffffffff811681146158d457600080fd5b50565b6000602082840312156158e957600080fd5b81356158f4816158b2565b8091505092915050565b600060208201905073ffffffffffffffffffffffffffffffffffffffff8316825292915050565b60005b83811015615943578082015181840152602081019050615928565b50600083830152505050565b602081526000825180602084015261596e816040850160208701615925565b6040601f19601f83011684010191505092915050565b600060208201905082825292915050565b6000602082840312156159a757600080fd5b6159b0826157cc565b905092915050565b600060208201905073ffffffffffffffffffffffffffffffffffffffff8316825292915050565b6000602082840312156159f157600080fd5b8135905092915050565b600060208201905073ffffffffffffffffffffffffffffffffffffffff8316825292915050565b634e487b7160e01b600052604160045260246000fd5b600067ffffffffffffffff80841115615a5457615a53615a22565b5b601f1960405181603f83601f8901160116810191508082108383111715615a7e57615a7d615a22565b5b81604052809350858152868686011115615a9757600080fd5b858560208301376000602087830101525050509392505050565b600060208284031215615ac357600080fd5b813567ffffffffffffffff811115615ada57600080fd5b808301905083601f820112615aee57600080fd5b615afd84823560208401615a38565b91505092915050565b60008151808452602080850194506020840160005b83811015615b3c578151875282870196508282019150600181019050615b1b565b5050505082905092915050565b6020815263ffffffff60e01b825116602082015260006020830151604080840152615b776060840182615b06565b91505092915050565b600080600080600060a08688031215615b9857600080fd5b8535615ba3816158b2565b809550506020860135615bb5816158b2565b809450506040860135925060608601359150608086013567ffffffffffffffff811115615be157600080fd5b808701905087601f820112615bf557600080fd5b615c0488823560208401615a38565b9150509295509295909350565b600060408201905063ffffffff8416825282151560208301529392505050565b60008060408385031215615c4457600080fd5b615c4d836157cc565b9150602083013590509250929050565b6000602082019050821515825292915050565b600080600080600080600060c0888a031215615c8b57600080fd5b873567ffffffffffffffff811115615ca257600080fd5b615cae8a828b016157ec565b915080985050809650506020880135615cc6816158b2565b809550506040880135615cd8816158b2565b809450506060880135615cea816158b2565b809350506080880135615cfc816158b2565b8092505060a0880135615d0e816158b2565b8091505092959891949750929550565b600060208201905073ffffffffffffffffffffffffffffffffffffffff8316825292915050565b600063ffffffff60e01b8087168352808616602084015250606060408301528260608301527f07ffffffffffffffffffffffffffffffffffffffffffffffffffffffffffffff831115615d9757600080fd5b8260051b8085608085013760808184010191505095945050505050565b60008251615dc6818460208701615925565b80830191505092915050565b634e487b7160e01b600052603260045260246000fd5b634e487b7160e01b600052601160045260246000fd5b6000828203905081811115615e1657615e15615de8565b5b92915050565b634e487b7160e01b600052603160045260246000fd5b600082820290508181048314821517615e4e57615e4d615de8565b5b92915050565b600080198203615e6757615e66615de8565b5b600182019050919050565b600060208284031215615e8457600080fd5b81518015158114615e9457600080fd5b8091505092915050565b600060208284031215615eb057600080fd5b8151615ebb816158b2565b8091505092915050565b634e487b7160e01b600052602160045260246000fd5b600060208284031215615eed57600080fd5b815160068110615efc57600080fd5b8091505092915050565b600060208284031215615f1857600080fd5b8151905092915050565b6000828201905080821115615f3a57615f39615de8565b5b92915050565b600060208201905067ffffffffffffffff8316825292915050565b60008060018092508391505b80851115615fa1578160001904821115615f8457615f83615de8565b5b80851615615f925781830292505b818202915084811c9450615f67565b509250929050565b600082615fb95760019050616050565b81615fc75760009050616050565b8160018114615fdd5760028114615fe757616005565b6001915050616050565b60ff841115615ff957615ff8615de8565b5b6001841b915050616050565b5060208310610133831016604e8410600b84101617156160295782820a9050616050565b6160338383615f5b565b806000190482111561604857616047615de8565b5b808202925050505b92915050565b60006160628383615fa9565b905092915050565b60008060006060848603121561607f57600080fd5b835161608a816158b2565b8093505060208401519150604084015190509250925092565b600060808201905073ffffffffffffffffffffffffffffffffffffffff808716835280861660208401525083604083015282606083015295945050505050565b600082516160f5818460208701615925565b80830191505092915050565b600063ffffffff60e01b80861683528085166020840152506060604083015261612d6060830184615b06565b905094935050505056fea26469706673582212205738c5bf3b03c53887abd4b11aa026c5a864c747df194dbdfe68c4c252a132c364736f6c63430008190033",
  "linkReferences": {},
  "deployedLinkReferences": {}
}