{
  "_format": "hh-sol-artifact-1",
  "contractName": "TxPermissionHbbftMock",
  "sourceName": "contracts/mockContracts/TxPermissionHbbftMock.sol",
  "abi": [
    {
      "inputs": [
        {
          "internalType": "address",
          "name": "_value",
          "type": "address"
        }
      ],
      "name": "AlreadyExist",
      "type": "error"
    },
    {
      "inputs": [],
      "name": "GetterCallFailed",
      "type": "error"
    },
    {
      "inputs": [],
      "name": "InvalidBlockGasLimit",
      "type": "error"
    },
    {
      "inputs": [],
      "name": "InvalidInitialization",
      "type": "error"
    },
    {
      "inputs": [],
      "name": "InvalidMinGasPrice",
      "type": "error"
    },
    {
      "inputs": [
        {
          "internalType": "uint256",
          "name": "_newVal",
          "type": "uint256"
        }
      ],
      "name": "NewValueOutOfRange",
      "type": "error"
    },
    {
      "inputs": [
        {
          "internalType": "address",
          "name": "_value",
          "type": "address"
        }
      ],
      "name": "NotExist",
      "type": "error"
    },
    {
      "inputs": [],
      "name": "NotInitializing",
      "type": "error"
    },
    {
      "inputs": [
        {
          "internalType": "address",
          "name": "owner",
          "type": "address"
        }
      ],
      "name": "OwnableInvalidOwner",
      "type": "error"
    },
    {
      "inputs": [
        {
          "internalType": "address",
          "name": "account",
          "type": "address"
        }
      ],
      "name": "OwnableUnauthorizedAccount",
      "type": "error"
    },
    {
      "inputs": [],
      "name": "SenderNotAllowed",
      "type": "error"
    },
    {
      "inputs": [],
      "name": "ZeroAddress",
      "type": "error"
    },
    {
      "anonymous": false,
      "inputs": [
        {
          "indexed": false,
          "internalType": "uint256",
          "name": "_value",
          "type": "uint256"
        }
      ],
      "name": "BlockGasLimitChanged",
      "type": "event"
    },
    {
      "anonymous": false,
      "inputs": [
        {
          "indexed": false,
          "internalType": "uint256",
          "name": "_value",
          "type": "uint256"
        }
      ],
      "name": "GasPriceChanged",
      "type": "event"
    },
    {
      "anonymous": false,
      "inputs": [
        {
          "indexed": false,
          "internalType": "uint64",
          "name": "version",
          "type": "uint64"
        }
      ],
      "name": "Initialized",
      "type": "event"
    },
    {
      "anonymous": false,
      "inputs": [
        {
          "indexed": true,
          "internalType": "address",
          "name": "previousOwner",
          "type": "address"
        },
        {
          "indexed": true,
          "internalType": "address",
          "name": "newOwner",
          "type": "address"
        }
      ],
      "name": "OwnershipTransferred",
      "type": "event"
    },
    {
      "anonymous": false,
      "inputs": [
        {
          "indexed": false,
          "internalType": "bytes4",
          "name": "funcSelector",
          "type": "bytes4"
        }
      ],
      "name": "RemoveChangeableParameter",
      "type": "event"
    },
    {
      "anonymous": false,
      "inputs": [
        {
          "indexed": false,
          "internalType": "uint256",
          "name": "_blockGasLimit",
          "type": "uint256"
        }
      ],
      "name": "SetBlockGasLimit",
      "type": "event"
    },
    {
      "anonymous": false,
      "inputs": [
        {
          "indexed": false,
          "internalType": "bytes4",
          "name": "setter",
          "type": "bytes4"
        },
        {
          "indexed": false,
          "internalType": "bytes4",
          "name": "getter",
          "type": "bytes4"
        },
        {
          "indexed": false,
          "internalType": "uint256[]",
          "name": "params",
          "type": "uint256[]"
        }
      ],
      "name": "SetChangeableParameter",
      "type": "event"
    },
    {
      "anonymous": false,
      "inputs": [
        {
          "indexed": false,
          "internalType": "address",
          "name": "_value",
          "type": "address"
        }
      ],
      "name": "SetConnectivityTracker",
      "type": "event"
    },
    {
      "anonymous": false,
      "inputs": [
        {
          "indexed": false,
          "internalType": "uint256",
          "name": "_minGasPrice",
          "type": "uint256"
        }
      ],
      "name": "SetMinimumGasPrice",
      "type": "event"
    },
    {
      "inputs": [],
      "name": "ANNOUNCE_AVAILABILITY_SIGNATURE",
      "outputs": [
        {
          "internalType": "bytes4",
          "name": "",
          "type": "bytes4"
        }
      ],
      "stateMutability": "view",
      "type": "function"
    },
    {
      "inputs": [],
      "name": "REPORT_MISSING_CONNECTIVITY_SELECTOR",
      "outputs": [
        {
          "internalType": "bytes4",
          "name": "",
          "type": "bytes4"
        }
      ],
      "stateMutability": "view",
      "type": "function"
    },
    {
      "inputs": [],
      "name": "REPORT_RECONNECT_SELECTOR",
      "outputs": [
        {
          "internalType": "bytes4",
          "name": "",
          "type": "bytes4"
        }
      ],
      "stateMutability": "view",
      "type": "function"
    },
    {
      "inputs": [],
      "name": "SET_VALIDATOR_IP",
      "outputs": [
        {
          "internalType": "bytes4",
          "name": "",
          "type": "bytes4"
        }
      ],
      "stateMutability": "view",
      "type": "function"
    },
    {
      "inputs": [],
      "name": "WRITE_ACKS_SIGNATURE",
      "outputs": [
        {
          "internalType": "bytes4",
          "name": "",
          "type": "bytes4"
        }
      ],
      "stateMutability": "view",
      "type": "function"
    },
    {
      "inputs": [],
      "name": "WRITE_PART_SIGNATURE",
      "outputs": [
        {
          "internalType": "bytes4",
          "name": "",
          "type": "bytes4"
        }
      ],
      "stateMutability": "view",
      "type": "function"
    },
    {
      "inputs": [
        {
          "internalType": "address",
          "name": "_sender",
          "type": "address"
        }
      ],
      "name": "addAllowedSender",
      "outputs": [],
      "stateMutability": "nonpayable",
      "type": "function"
    },
    {
      "inputs": [
        {
          "internalType": "bytes4",
          "name": "",
          "type": "bytes4"
        }
      ],
      "name": "allowedParameterRange",
      "outputs": [
        {
          "internalType": "bytes4",
          "name": "getter",
          "type": "bytes4"
        }
      ],
      "stateMutability": "view",
      "type": "function"
    },
    {
      "inputs": [],
      "name": "allowedSenders",
      "outputs": [
        {
          "internalType": "address[]",
          "name": "",
          "type": "address[]"
        }
      ],
      "stateMutability": "view",
      "type": "function"
    },
    {
      "inputs": [
        {
          "internalType": "address",
          "name": "_sender",
          "type": "address"
        },
        {
          "internalType": "address",
          "name": "_to",
          "type": "address"
        },
        {
          "internalType": "uint256",
          "name": "",
          "type": "uint256"
        },
        {
          "internalType": "uint256",
          "name": "_gasPrice",
          "type": "uint256"
        },
        {
          "internalType": "bytes",
          "name": "_data",
          "type": "bytes"
        }
      ],
      "name": "allowedTxTypes",
      "outputs": [
        {
          "internalType": "uint32",
          "name": "typesMask",
          "type": "uint32"
        },
        {
          "internalType": "bool",
          "name": "cache",
          "type": "bool"
        }
      ],
      "stateMutability": "view",
      "type": "function"
    },
    {
      "inputs": [],
      "name": "blockGasLimit",
      "outputs": [
        {
          "internalType": "uint256",
          "name": "",
          "type": "uint256"
        }
      ],
      "stateMutability": "view",
      "type": "function"
    },
    {
      "inputs": [],
      "name": "certifierContract",
      "outputs": [
        {
          "internalType": "contract ICertifier",
          "name": "",
          "type": "address"
        }
      ],
      "stateMutability": "view",
      "type": "function"
    },
    {
      "inputs": [],
      "name": "connectivityTracker",
      "outputs": [
        {
          "internalType": "contract IConnectivityTrackerHbbft",
          "name": "",
          "type": "address"
        }
      ],
      "stateMutability": "view",
      "type": "function"
    },
    {
      "inputs": [],
      "name": "contractName",
      "outputs": [
        {
          "internalType": "string",
          "name": "",
          "type": "string"
        }
      ],
      "stateMutability": "pure",
      "type": "function"
    },
    {
      "inputs": [],
      "name": "contractNameHash",
      "outputs": [
        {
          "internalType": "bytes32",
          "name": "",
          "type": "bytes32"
        }
      ],
      "stateMutability": "pure",
      "type": "function"
    },
    {
      "inputs": [],
      "name": "contractVersion",
      "outputs": [
        {
          "internalType": "uint256",
          "name": "",
          "type": "uint256"
        }
      ],
      "stateMutability": "pure",
      "type": "function"
    },
    {
      "inputs": [
        {
          "internalType": "string",
          "name": "_selector",
          "type": "string"
        }
      ],
      "name": "getAllowedParamsRange",
      "outputs": [
        {
          "components": [
            {
              "internalType": "bytes4",
              "name": "getter",
              "type": "bytes4"
            },
            {
              "internalType": "uint256[]",
              "name": "range",
              "type": "uint256[]"
            }
          ],
          "internalType": "struct ValueGuards.ParameterRange",
          "name": "",
          "type": "tuple"
        }
      ],
      "stateMutability": "view",
      "type": "function"
    },
    {
      "inputs": [
        {
          "internalType": "bytes4",
          "name": "_selector",
          "type": "bytes4"
        }
      ],
      "name": "getAllowedParamsRangeWithSelector",
      "outputs": [
        {
          "components": [
            {
              "internalType": "bytes4",
              "name": "getter",
              "type": "bytes4"
            },
            {
              "internalType": "uint256[]",
              "name": "range",
              "type": "uint256[]"
            }
          ],
          "internalType": "struct ValueGuards.ParameterRange",
          "name": "",
          "type": "tuple"
        }
      ],
      "stateMutability": "view",
      "type": "function"
    },
    {
      "inputs": [
        {
          "internalType": "address[]",
          "name": "_allowed",
          "type": "address[]"
        },
        {
          "internalType": "address",
          "name": "_certifier",
          "type": "address"
        },
        {
          "internalType": "address",
          "name": "_validatorSet",
          "type": "address"
        },
        {
          "internalType": "address",
          "name": "_keyGenHistoryContract",
          "type": "address"
        },
        {
          "internalType": "address",
          "name": "_connectivityTracker",
          "type": "address"
        },
        {
          "internalType": "address",
          "name": "_contractOwner",
          "type": "address"
        }
      ],
      "name": "initialize",
      "outputs": [],
      "stateMutability": "nonpayable",
      "type": "function"
    },
    {
      "inputs": [
        {
          "internalType": "address",
          "name": "",
          "type": "address"
        }
      ],
      "name": "isSenderAllowed",
      "outputs": [
        {
          "internalType": "bool",
          "name": "",
          "type": "bool"
        }
      ],
      "stateMutability": "view",
      "type": "function"
    },
    {
      "inputs": [
        {
          "internalType": "bytes4",
          "name": "funcSelector",
          "type": "bytes4"
        },
        {
          "internalType": "uint256",
          "name": "newVal",
          "type": "uint256"
        }
      ],
      "name": "isWithinAllowedRange",
      "outputs": [
        {
          "internalType": "bool",
          "name": "",
          "type": "bool"
        }
      ],
      "stateMutability": "view",
      "type": "function"
    },
    {
      "inputs": [],
      "name": "keyGenHistoryContract",
      "outputs": [
        {
          "internalType": "contract IKeyGenHistory",
          "name": "",
          "type": "address"
        }
      ],
      "stateMutability": "view",
      "type": "function"
    },
    {
      "inputs": [],
      "name": "minimumGasPrice",
      "outputs": [
        {
          "internalType": "uint256",
          "name": "",
          "type": "uint256"
        }
      ],
      "stateMutability": "view",
      "type": "function"
    },
    {
      "inputs": [],
      "name": "owner",
      "outputs": [
        {
          "internalType": "address",
          "name": "",
          "type": "address"
        }
      ],
      "stateMutability": "view",
      "type": "function"
    },
    {
      "inputs": [
        {
          "internalType": "bytes4",
          "name": "funcSelector",
          "type": "bytes4"
        }
      ],
      "name": "removeAllowedChangeableParameter",
      "outputs": [],
      "stateMutability": "nonpayable",
      "type": "function"
    },
    {
      "inputs": [
        {
          "internalType": "address",
          "name": "_sender",
          "type": "address"
        }
      ],
      "name": "removeAllowedSender",
      "outputs": [],
      "stateMutability": "nonpayable",
      "type": "function"
    },
    {
      "inputs": [],
      "name": "renounceOwnership",
      "outputs": [],
      "stateMutability": "nonpayable",
      "type": "function"
    },
    {
      "inputs": [
        {
          "internalType": "bytes4",
          "name": "setter",
          "type": "bytes4"
        },
        {
          "internalType": "bytes4",
          "name": "getter",
          "type": "bytes4"
        },
        {
          "internalType": "uint256[]",
          "name": "params",
          "type": "uint256[]"
        }
      ],
      "name": "setAllowedChangeableParameter",
      "outputs": [],
      "stateMutability": "nonpayable",
      "type": "function"
    },
    {
      "inputs": [
        {
          "internalType": "uint256",
          "name": "_value",
          "type": "uint256"
        }
      ],
      "name": "setBlockGasLimit",
      "outputs": [],
      "stateMutability": "nonpayable",
      "type": "function"
    },
    {
      "inputs": [
        {
          "internalType": "address",
          "name": "_connectivityTracker",
          "type": "address"
        }
      ],
      "name": "setConnectivityTracker",
      "outputs": [],
      "stateMutability": "nonpayable",
      "type": "function"
    },
    {
      "inputs": [
        {
          "internalType": "uint256",
          "name": "_value",
          "type": "uint256"
        }
      ],
      "name": "setMinimumGasPrice",
      "outputs": [],
      "stateMutability": "nonpayable",
      "type": "function"
    },
    {
      "inputs": [
        {
          "internalType": "address",
          "name": "_address",
          "type": "address"
        }
      ],
      "name": "setValidatorSetContract",
      "outputs": [],
      "stateMutability": "nonpayable",
      "type": "function"
    },
    {
      "inputs": [
        {
          "internalType": "address",
          "name": "newOwner",
          "type": "address"
        }
      ],
      "name": "transferOwnership",
      "outputs": [],
      "stateMutability": "nonpayable",
      "type": "function"
    },
    {
      "inputs": [],
      "name": "validatorSetContract",
      "outputs": [
        {
          "internalType": "contract IValidatorSetHbbft",
          "name": "",
          "type": "address"
        }
      ],
      "stateMutability": "view",
      "type": "function"
    }
  ],
  "bytecode": "0x608060405234801561001057600080fd5b5061002b673b9eb3a3f5442f3560c01b61007260201b60201c565b6100456752a205ae3286c20f60c01b61007260201b60201c565b61005f67e905e125faeea1df60c01b61007260201b60201c565b61006d61007560201b60201c565b6101ba565b50565b600061008561017960201b60201c565b90508060000160089054906101000a900460ff16156100d0576040517ff92ee8a900000000000000000000000000000000000000000000000000000000815260040160405180910390fd5b67ffffffffffffffff80168160000160009054906101000a900467ffffffffffffffff1667ffffffffffffffff16146101765767ffffffffffffffff8160000160006101000a81548167ffffffffffffffff021916908367ffffffffffffffff1602179055507fc7f505b2f371ae2175ee4913f4499e1f2633a7b5936321eed1cdaeb6115181d267ffffffffffffffff60405161016d91906101a1565b60405180910390a15b50565b60007ff0c57e16840df040f15088dc2f81fe391c3923bec73e23a9662efc9c229c6a00905090565b600060208201905060018060401b038316825292915050565b6161e8806101c96000396000f3fe608060405234801561001057600080fd5b50600436106102265760003560e01c80638da5cb5b1161012a578063bf348f86116100bd578063d3ae79651161008c578063dfc8bf4e11610071578063dfc8bf4e14610602578063efc7840114610620578063f2fde38b1461065057610226565b8063d3ae7965146105c6578063df3cecf6146105e457610226565b8063bf348f8614610542578063c374bc2314610572578063c746c8f41461058e578063d249b31c146105aa57610226565b8063b47aef1f116100f9578063b47aef1f14610493578063b710c15d146104b1578063b9056afa146104e1578063ba08d2371461051257610226565b80638da5cb5b1461040b5780639228363414610429578063a0a8e46014610459578063a69257f31461047757610226565b80635f0664bf116101bd57806375d0c0dc1161018c5780637877a797116101715780637877a797146103b557806378ff69d5146103d35780637d8149db146103ef57610226565b806375d0c0dc14610379578063782f01771461039757610226565b80635f0664bf1461031557806366955469146103335780637086bcc114610351578063715018a61461036f57610226565b80634346845f116101f95780634346845f146102a3578063469ab1e3146102bf578063471eab5c146102dd5780635d685ba4146102f957610226565b80631a9ebeaa1461022b57806324bdf37b14610249578063305d526c146102675780633272b28c14610285575b600080fd5b61023361066c565b60405161024091906157a1565b60405180910390f35b610251610692565b60405161025e91906157c8565b60405180910390f35b61026f61069d565b60405161027c91906157c8565b60405180910390f35b61028d6106a8565b60405161029a91906157e2565b60405180910390f35b6102bd60048036038101906102b891906158b4565b610772565b005b6102c761093e565b6040516102d4919061591c565b60405180910390f35b6102f760048036038101906102f29190615952565b6109af565b005b610313600480360381019061030e9190615952565b610dcb565b005b61031d610e0f565b60405161032a91906157c8565b60405180910390f35b61033b610e1a565b6040516103489190615979565b60405180910390f35b610359610e40565b60405161036691906157c8565b60405180910390f35b610377610e4b565b005b610381610e5f565b60405161038e91906159ca565b60405180910390f35b61039f610ed8565b6040516103ac91906157c8565b60405180910390f35b6103bd610ee3565b6040516103ca91906159ff565b60405180910390f35b6103ed60048036038101906103e89190615952565b610ee9565b005b61040960048036038101906104049190615a10565b6110ae565b005b6104136111e2565b6040516104209190615a33565b60405180910390f35b610443600480360381019061043e9190615a10565b61121a565b60405161045091906157c8565b60405180910390f35b610461611245565b60405161046e91906159ff565b60405180910390f35b610491600480360381019061048c9190615a5a565b61128a565b005b61049b611470565b6040516104a89190615a76565b60405180910390f35b6104cb60048036038101906104c69190615b2c565b611496565b6040516104d89190615bc4565b60405180910390f35b6104fb60048036038101906104f69190615bfb565b6115f0565b604051610509929190615c8c565b60405180910390f35b61052c60048036038101906105279190615cac565b613097565b6040516105399190615cd8565b60405180910390f35b61055c60048036038101906105579190615a10565b613587565b6040516105699190615bc4565b60405180910390f35b61058c60048036038101906105879190615ceb565b6136da565b005b6105a860048036038101906105a39190615952565b6141fb565b005b6105c460048036038101906105bf9190615a5a565b614273565b005b6105ce614459565b6040516105db91906157c8565b60405180910390f35b6105ec614464565b6040516105f991906159ff565b60405180910390f35b61060a61446a565b6040516106179190615d99565b60405180910390f35b61063a60048036038101906106359190615952565b614490565b6040516106479190615cd8565b60405180910390f35b61066a60048036038101906106659190615952565b6144b0565b005b600260009054906101000a900473ffffffffffffffffffffffffffffffffffffffff1681565b63a42bdee960e01b81565b635623208e60e01b81565b60606106be6755870b14bfd4db5560c01b614536565b6106d267772e7ff54323351360c01b614536565b6106e667c172c1f4f650b6c260c01b614536565b600180548060200260200160405190810160405280929190818152602001828054801561076857602002820191906000526020600020905b8160009054906101000a900473ffffffffffffffffffffffffffffffffffffffff1673ffffffffffffffffffffffffffffffffffffffff168152602001906001019080831161071e575b5050505050905090565b61078667be0c833aa15c34c060c01b614539565b61078e61453c565b6107a26732f8a94e78c23adf60c01b614539565b6107b66788b6eef7519ee4f160c01b614539565b6107ca6716df033c7a667b6e60c01b614539565b6040518060400160405280847bffffffffffffffffffffffffffffffffffffffffffffffffffffffff19168152602001838380806020026020016040519081016040528093929190818152602001838360200280828437600081840152601f19601f82011690508083019250505050505050815250600080867bffffffffffffffffffffffffffffffffffffffffffffffffffffffff19167bffffffffffffffffffffffffffffffffffffffffffffffffffffffff1916815260200190815260200160002060008201518160000160006101000a81548163ffffffff021916908360e01c021790555060208201518160010190805190602001906108cf9291906156b2565b509050506108e76755f08098c39d2f8260c01b614539565b6108fb67bdeaf3791eacbded60c01b614539565b7f3665bf9cd0ba4ddceeec259e21dcf8a4510f3b1130bd42e950828e69d85408ba848484846040516109309493929190615dc0565b60405180910390a150505050565b600061095467ab1cf07874c76f2660c01b614536565b61096867a07c5a7383117df060c01b614536565b61097c67f33303225832154660c01b614536565b610984610e5f565b6040516020016109949190615e2f565b60405160208183030381529060405280519060200120905090565b6109c3672e75a10e9abb4d3560c01b614536565b6109cb61453c565b6109df6712f9c67ebfb6412860c01b614536565b6109f3673a5496641b0f5caf60c01b614536565b610a07673720add9682c990560c01b614536565b610a1b67bc6729b676db27f460c01b614536565b600460008273ffffffffffffffffffffffffffffffffffffffff1673ffffffffffffffffffffffffffffffffffffffff16815260200190815260200160002060009054906101000a900460ff16610ad157610a8067f020dde1f6d2472560c01b614536565b610a9467b8336a7b95876fe260c01b614536565b806040517fd64efe63000000000000000000000000000000000000000000000000000000008152600401610ac89190615a33565b60405180910390fd5b610ae567bc89601b022b751b60c01b614536565b610af967a8843e5b8059dd3660c01b614536565b610b0d67c7cdefdbb3846fc260c01b614536565b60006001805490509050610b2b67fa4aa189c991636260c01b614536565b610b3f67edaf0a866baf431b60c01b614536565b60005b81811015610d5a57610b5e671441e549dea7ab1360c01b614536565b610b7267e15f8f48f4a985fb60c01b614536565b60018181548110610b8657610b85615e4d565b5b9060005260206000200160009054906101000a900473ffffffffffffffffffffffffffffffffffffffff1673ffffffffffffffffffffffffffffffffffffffff168373ffffffffffffffffffffffffffffffffffffffff1603610d3957610bf767abc447794bb8765c60c01b614536565b610c0b679b5629ec8c61f5f160c01b614536565b60018083610c199190615e79565b81548110610c2a57610c29615e4d565b5b9060005260206000200160009054906101000a900473ffffffffffffffffffffffffffffffffffffffff1660018281548110610c6957610c68615e4d565b5b9060005260206000200160006101000a81548173ffffffffffffffffffffffffffffffffffffffff021916908373ffffffffffffffffffffffffffffffffffffffff160217905550610cc56709a10366754cf5cf60c01b614536565b610cd9670e5eb78fc74faa0f60c01b614536565b6001805480610ceb57610cea615e97565b5b6001900381819060005260206000200160006101000a81549073ffffffffffffffffffffffffffffffffffffffff02191690559055610d3467cf16b8dc0955ac2b60c01b614536565b610d5a565b610d4d67b1c90ea97162a1ea60c01b614536565b8080600101915050610b42565b50610d6f67a4b1f73f94dd3afd60c01b614536565b6000600460008473ffffffffffffffffffffffffffffffffffffffff1673ffffffffffffffffffffffffffffffffffffffff16815260200190815260200160002060006101000a81548160ff0219169083151502179055505050565b80600560006101000a81548173ffffffffffffffffffffffffffffffffffffffff021916908373ffffffffffffffffffffffffffffffffffffffff16021790555050565b6343bcce9f60e01b81565b600860009054906101000a900473ffffffffffffffffffffffffffffffffffffffff1681565b63911cee7460e01b81565b610e5361453c565b610e5d60006145c3565b565b6060610e75670b4d8ed71f9efc0760c01b614536565b610e89677fe0ec5bda32588f60c01b614536565b610e9d67779db0bfde120b9460c01b614536565b6040518060400160405280601681526020017f54585f5045524d495353494f4e5f434f4e545241435400000000000000000000815250905090565b632d4de12460e01b81565b60075481565b610efd67c0a3eae1aa042d9160c01b614536565b610f0561453c565b610f19675595b0eba7753a3b60c01b614536565b610f2d677a548dca8771488e60c01b614536565b610f41673777ea2bf1c543c860c01b614536565b610f5567d58f9460708eab6a60c01b614536565b600073ffffffffffffffffffffffffffffffffffffffff168173ffffffffffffffffffffffffffffffffffffffff1603610fe357610f9d67c98b73647ed0663260c01b614536565b610fb167ada2f8e3d5c6466a60c01b614536565b6040517fd92e233d00000000000000000000000000000000000000000000000000000000815260040160405180910390fd5b610ff76715ff039e97eac61f60c01b614536565b61100b67e51ed29c163d41fb60c01b614536565b80600860006101000a81548173ffffffffffffffffffffffffffffffffffffffff021916908373ffffffffffffffffffffffffffffffffffffffff160217905550611060677aedcdffcacd40f360c01b614536565b61107467ca9e765c03c15d6460c01b614536565b7f387d29e18823e432432b6098ebeee33beebdb128d2234c7f486c26447b738edd816040516110a39190615a33565b60405180910390a150565b6110c2678fe2115d6ce1cd2660c01b614539565b6110ca61453c565b6110de6709b862b227f1778560c01b614539565b6110f267423a90dea5f08d5f60c01b614539565b6111066712d55d992cd616b860c01b614539565b600080827bffffffffffffffffffffffffffffffffffffffffffffffffffffffff19167bffffffffffffffffffffffffffffffffffffffffffffffffffffffff19168152602001908152602001600020600080820160006101000a81549063ffffffff021916905560018201600061117e91906156ff565b5050611194671c3795656335d30b60c01b614539565b6111a867c0de44f930e2c4cb60c01b614539565b7fed27cb02231782dadf13473a7828cb980c4d685791b7a3136dde00f8c3594cb6816040516111d791906157c8565b60405180910390a150565b6000806111ed61469a565b90508060000160009054906101000a900473ffffffffffffffffffffffffffffffffffffffff1691505090565b60006020528060005260406000206000915090508060000160009054906101000a900460e01b905081565b600061125b67a6f28341ce2d476f60c01b614536565b61126f673d9e5da1a59d74cf60c01b614536565b61128367f26591713ff157ea60c01b614536565b6003905090565b61129e675dc669468e94939d60c01b614536565b6112a661453c565b6112ba679debc848d6e6b9f160c01b614536565b6112ce6703a4f434f37c645760c01b614536565b806112e367288a20a40e8d1c5860c01b614539565b6112f767c91bd2adbddb69c960c01b614539565b61130b67e350faaca2e8f0c060c01b614539565b6113396000357fffffffff000000000000000000000000000000000000000000000000000000001682613097565b6113a25761135167f321c0062a05753f60c01b614539565b6113656710282e2f2d3001d760c01b614539565b806040517f73330d9b00000000000000000000000000000000000000000000000000000000815260040161139991906159ff565b60405180910390fd5b6113b6677a834b40c8e841e560c01b614539565b6113ca678765015181e8c42860c01b614539565b6113de67bb01e94ccd9634e160c01b614536565b6113f267de901475046e000660c01b614536565b611406675ca2c99c2c0af7f260c01b614536565b8160078190555061142167132268607654866160c01b614536565b611435674afb97597787740760c01b614536565b7fda69de0cab556da57726688a057caf911b2e8f850c45b6edf359bacf3db378e88260405161146491906159ff565b60405180910390a15050565b600360009054906101000a900473ffffffffffffffffffffffffffffffffffffffff1681565b61149e615720565b6114b2674619985d99bfc13a60c01b614539565b6114c667d3809ce56ffdd6c060c01b614539565b6114da67672ef63f17fd937760c01b614539565b60008083805190602001207bffffffffffffffffffffffffffffffffffffffffffffffffffffffff19167bffffffffffffffffffffffffffffffffffffffffffffffffffffffff191681526020019081526020016000206040518060400160405290816000820160009054906101000a900460e01b7bffffffffffffffffffffffffffffffffffffffffffffffffffffffff19167bffffffffffffffffffffffffffffffffffffffffffffffffffffffff19168152602001600182018054806020026020016040519081016040528092919081815260200182805480156115e057602002820191906000526020600020905b8154815260200190600101908083116115cc575b5050505050815250509050919050565b60008061160767461ed75dc080143160c01b614536565b61161b6783206625c0b0fe7f60c01b614536565b61162f6760baf67ce0ac6d4160c01b614536565b600460008873ffffffffffffffffffffffffffffffffffffffff1673ffffffffffffffffffffffffffffffffffffffff16815260200190815260200160002060009054906101000a900460ff16156116cd5761169567990876b4d07b41c960c01b614536565b6116a96729a4181c185999a760c01b614536565b6116bd67478b0c6194dad15860c01b614536565b63ffffffff60009150915061308d565b6116e16706bc03a3eb20050f60c01b614536565b6116f567ccaa67bb601fe8e860c01b614536565b61170967d129c284753f77ed60c01b614536565b60008060e01b9050611725673c1f795b193cd47a60c01b614536565b611739671126b83744f7bd7a60c01b614536565b60005b600485511015801561174e5750600481105b156117ec57611767678c8d9a519309651e60c01b614536565b6008816117749190615ead565b85828151811061178757611786615e4d565b5b602001015160f81c60f81b7effffffffffffffffffffffffffffffffffffffffffffffffffffffffffffff19167bffffffffffffffffffffffffffffffffffffffffffffffffffffffff1916901c8217915080806117e490615ecf565b91505061173c565b5061180167f3913d2865b7d83d60c01b614536565b6118156770c65b9a285f11f960c01b614536565b600560009054906101000a900473ffffffffffffffffffffffffffffffffffffffff1673ffffffffffffffffffffffffffffffffffffffff168773ffffffffffffffffffffffffffffffffffffffff1603611f445761187e6797b57fd0040eecdc60c01b614536565b611892673f2fb9459c84334d60c01b614536565b6118a6671ae97a0c8c1ce3c760c01b614536565b6343bcce9f60e01b7bffffffffffffffffffffffffffffffffffffffffffffffffffffffff1916817bffffffffffffffffffffffffffffffffffffffffffffffffffffffff191603611a1b576119066793d9ca6421b94d4660c01b614536565b61191a6711bba2deae2eccb760c01b614536565b61192e67c8a38be4f8f6b61c60c01b614536565b600560009054906101000a900473ffffffffffffffffffffffffffffffffffffffff1673ffffffffffffffffffffffffffffffffffffffff1663f51726f0896040518263ffffffff1660e01b81526004016119899190615a33565b602060405180830381865afa1580156119a6573d6000803e3d6000fd5b505050506040513d601f19601f820116820180604052508101906119ca9190615eed565b806119e557506119e46756ca855f1dff448d60c01b6146c2565b5b8015611a015750611a0067301e4e378289d4a660c01b6146c9565b5b611a0c576000611a0f565b60025b6000925092505061308d565b611a2f67970fbe885fdd601160c01b614536565b611a43675d3ba69ee581ce1960c01b614536565b611a5767a85ea7233f33890160c01b614536565b63a42bdee960e01b7bffffffffffffffffffffffffffffffffffffffffffffffffffffffff1916817bffffffffffffffffffffffffffffffffffffffffffffffffffffffff191603611dbd57611ab7670650cda05314ff6260c01b614536565b611acb6722a5b2519732f75260c01b614536565b611adf670741c8d6acb16f2f60c01b614536565b6000600560009054906101000a900473ffffffffffffffffffffffffffffffffffffffff1673ffffffffffffffffffffffffffffffffffffffff16631ee4d0bc8a6040518263ffffffff1660e01b8152600401611b3c9190615a33565b602060405180830381865afa158015611b59573d6000803e3d6000fd5b505050506040513d601f19601f82011682018060405250810190611b7d9190615f19565b9050611b9367193e304fbf831d1260c01b614536565b611ba767ee9d903d3b3745a160c01b614536565b600073ffffffffffffffffffffffffffffffffffffffff168173ffffffffffffffffffffffffffffffffffffffff1614611d7357611bef6736f44d07666314bb60c01b614536565b611c0367ec65714fa78bfe8960c01b614536565b611c1767a3e851fcf1903ec960c01b614536565b600560009054906101000a900473ffffffffffffffffffffffffffffffffffffffff1673ffffffffffffffffffffffffffffffffffffffff16638e68dce46040518163ffffffff1660e01b8152600401602060405180830381865afa158015611c84573d6000803e3d6000fd5b505050506040513d601f19601f82011682018060405250810190611ca89190615f19565b73ffffffffffffffffffffffffffffffffffffffff1663a711e6a1826040518263ffffffff1660e01b8152600401611ce09190615a33565b602060405180830381865afa158015611cfd573d6000803e3d6000fd5b505050506040513d601f19601f82011682018060405250810190611d219190615eed565b80611d3c5750611d3b6783ec1a34e63b28b360c01b6146c2565b5b8015611d585750611d5767539bdd12b99d48ae60c01b6146c9565b5b611d63576000611d66565b60025b600093509350505061308d565b611d876707e8241ffca5009060c01b614536565b611d9b673dff99d0c5ee47ac60c01b614536565b611daf6767cce6260e5c58f260c01b614536565b60008093509350505061308d565b611dd167f5ef173c1caaffe760c01b614536565b611de567cdb2412a0e74bd1860c01b614536565b611df9678502019b15d946ce60c01b614536565b6000851115611f2b57611e1667dacae6610ac39bc060c01b614536565b611e2a67ef9dae21e5afab1460c01b614536565b611e3e6714985ec65dd240c960c01b614536565b600560009054906101000a900473ffffffffffffffffffffffffffffffffffffffff1673ffffffffffffffffffffffffffffffffffffffff1663facd743b896040518263ffffffff1660e01b8152600401611e999190615a33565b602060405180830381865afa158015611eb6573d6000803e3d6000fd5b505050506040513d601f19601f82011682018060405250810190611eda9190615eed565b80611ef55750611ef467190ca687793669d860c01b6146c2565b5b8015611f115750611f1067c47a8ad56608026e60c01b6146c9565b5b611f1c576002611f1f565b60005b6000925092505061308d565b611f3f677ec56e7d7bbc803960c01b614536565b611f59565b611f5867ce7cd8643dd8c06b60c01b614536565b5b611f6d67c25e9313f464b5d560c01b614536565b611f8167783dd39501c050ea60c01b614536565b600360009054906101000a900473ffffffffffffffffffffffffffffffffffffffff1673ffffffffffffffffffffffffffffffffffffffff168773ffffffffffffffffffffffffffffffffffffffff1603612a5957611fea67a8b72ceaed17700260c01b614536565b611ffe672d4508ecf252e11160c01b614536565b612012674268513fdd17a0b960c01b614536565b632d4de12460e01b7bffffffffffffffffffffffffffffffffffffffffffffffffffffffff1916817bffffffffffffffffffffffffffffffffffffffffffffffffffffffff1916036124525761207267f9c1ca7afd3e375060c01b614536565b612086675269410ef4171d3660c01b614536565b61209a67bc58c8a88ddc43b960c01b614536565b600160058111156120ae576120ad615f40565b5b600560009054906101000a900473ffffffffffffffffffffffffffffffffffffffff1673ffffffffffffffffffffffffffffffffffffffff166314e28d908a6040518263ffffffff1660e01b81526004016121099190615a33565b602060405180830381865afa158015612126573d6000803e3d6000fd5b505050506040513d601f19601f8201168201806040525081019061214a9190615f56565b600581111561215c5761215b615f40565b5b0361240957612175677a2ed85813ca8f4c60c01b614536565b61218967ab1d016898128c0060c01b614536565b61219d67da0038d49a271a9860c01b614536565b6024845110156121f0576121bb67bc0ab327523ffad660c01b614536565b6121cf670dee3808c772a24760c01b614536565b6121e367432e9bbc30520ff860c01b614536565b600080925092505061308d565b6122046741bd6af737258eb960c01b614536565b61221867bbe59a5552c4474260c01b614536565b61222c67ceda219494d7314c60c01b614536565b60006122396004866146d4565b905061224f67172cad939d75317b60c01b614536565b6122636744bf532318a1cc4260c01b614536565b6001600560009054906101000a900473ffffffffffffffffffffffffffffffffffffffff1673ffffffffffffffffffffffffffffffffffffffff16638e68dce46040518163ffffffff1660e01b8152600401602060405180830381865afa1580156122d2573d6000803e3d6000fd5b505050506040513d601f19601f820116820180604052508101906122f69190615f19565b73ffffffffffffffffffffffffffffffffffffffff1663794c0c686040518163ffffffff1660e01b8152600401602060405180830381865afa158015612340573d6000803e3d6000fd5b505050506040513d601f19601f820116820180604052508101906123649190615f81565b61236e9190615f9d565b81036123bf5761238867ed7b658b80358b4160c01b614536565b61239c67266007c2f1e0ea4d60c01b614536565b6123b067bb27b06fb098385960c01b614536565b6002600093509350505061308d565b6123d367a2304be15038ae8060c01b614536565b6123e767474b2c92a0ec3a0c60c01b614536565b6123fb676f1d93376677849060c01b614536565b60008093509350505061308d565b61241d6727aa505d4604e28360c01b614536565b61243167d0134b3c2c1d83fc60c01b614536565b61244567eecc696276c707cd60c01b614536565b600080925092505061308d565b61246667ef9437f2a4c12d9c60c01b614536565b61247a67eafe6ef1e84bf23e60c01b614536565b61248e6711f42b035d2cb0f360c01b614536565b635623208e60e01b7bffffffffffffffffffffffffffffffffffffffffffffffffffffffff1916817bffffffffffffffffffffffffffffffffffffffffffffffffffffffff191603612a40576124ee676600a011556d31c160c01b614536565b61250267eee91feb7485f32360c01b614536565b61251667b2c393ce62e71ddd60c01b614536565b6003600581111561252a57612529615f40565b5b600560009054906101000a900473ffffffffffffffffffffffffffffffffffffffff1673ffffffffffffffffffffffffffffffffffffffff166314e28d908a6040518263ffffffff1660e01b81526004016125859190615a33565b602060405180830381865afa1580156125a2573d6000803e3d6000fd5b505050506040513d601f19601f820116820180604052508101906125c69190615f56565b60058111156125d8576125d7615f40565b5b036129f7576125f16793dfc5d639cb5f2960c01b614536565b61260567368fc886f26db56260c01b614536565b612619670d3e5b433c01494260c01b614536565b60248451101561266c5761263767627d67b8287923b160c01b614536565b61264b676fc20625ae0da43760c01b614536565b61265f6725d776ab9a1cb5f360c01b614536565b600080925092505061308d565b612680678d1f2732eea2918360c01b614536565b61269467e523b598a89c86fc60c01b614536565b6126a86781ff2989b7d220c660c01b614536565b6001600560009054906101000a900473ffffffffffffffffffffffffffffffffffffffff1673ffffffffffffffffffffffffffffffffffffffff16638e68dce46040518163ffffffff1660e01b8152600401602060405180830381865afa158015612717573d6000803e3d6000fd5b505050506040513d601f19601f8201168201806040525081019061273b9190615f19565b73ffffffffffffffffffffffffffffffffffffffff1663794c0c686040518163ffffffff1660e01b8152600401602060405180830381865afa158015612785573d6000803e3d6000fd5b505050506040513d601f19601f820116820180604052508101906127a99190615f81565b6127b39190615f9d565b6127be6004866146d4565b0361280d576127d76733ca9707d0fb5ec960c01b614536565b6127eb67021db45c81bb245e60c01b614536565b6127ff6720152cf583b4686360c01b614536565b60026000925092505061308d565b61282167d2c2220d4a63732760c01b614536565b6128356744c0b417bc5448c160c01b614536565b61284967f952512992dbdac960c01b614536565b6001600560009054906101000a900473ffffffffffffffffffffffffffffffffffffffff1673ffffffffffffffffffffffffffffffffffffffff16638e68dce46040518163ffffffff1660e01b8152600401602060405180830381865afa1580156128b8573d6000803e3d6000fd5b505050506040513d601f19601f820116820180604052508101906128dc9190615f19565b73ffffffffffffffffffffffffffffffffffffffff1663794c0c686040518163ffffffff1660e01b8152600401602060405180830381865afa158015612926573d6000803e3d6000fd5b505050506040513d601f19601f8201168201806040525081019061294a9190615f81565b6129549190615f9d565b61295f6024866146d4565b036129ae5761297867fec9dabec0c3a6de60c01b614536565b61298c67984b631eecde447a60c01b614536565b6129a06782953a90409c1c5160c01b614536565b60026000925092505061308d565b6129c267c89e4981de294d5560c01b614536565b6129d667502dcf285082e5fb60c01b614536565b6129ea6737210a3d91ac5ceb60c01b614536565b600080925092505061308d565b612a0b672462655b2df0053460c01b614536565b612a1f6710c5e67ab484ee8460c01b614536565b612a3367cdcf1ceb6e2e712b60c01b614536565b600080925092505061308d565b612a546703ce9cc1ce38daf060c01b614536565b612a6e565b612a6d67cc2f52d40e75e49160c01b614536565b5b612a826743e15a441686bc0560c01b614536565b612a9667a4bd78e295ecfc6360c01b614536565b600860009054906101000a900473ffffffffffffffffffffffffffffffffffffffff1673ffffffffffffffffffffffffffffffffffffffff168773ffffffffffffffffffffffffffffffffffffffff1603612bd357612aff67692eebe12c6476dc60c01b614536565b612b13672d7948cd59f9067a60c01b614536565b612b27672ce3cae12e7e410c60c01b614536565b6000612b34898387614807565b9050612b4a67876e2444ea9da0c960c01b614536565b612b5e67851b4162809722a160c01b614536565b806020015115612bb957612b7c67de79d44764bea7eb60c01b614536565b612b9067b891eb5c25d0735760c01b614536565b612ba4676c4cac9b7d20563f60c01b614536565b8060000151816040015193509350505061308d565b612bcd675af74b9453003f0f60c01b614536565b50612be8565b612be7670dc07c21fb12d07660c01b614536565b5b612bfc67c6c6f3c96e287fb060c01b614536565b612c10672f7620ae97c2cc3d60c01b614536565b600560009054906101000a900473ffffffffffffffffffffffffffffffffffffffff1673ffffffffffffffffffffffffffffffffffffffff1663facd743b896040518263ffffffff1660e01b8152600401612c6b9190615a33565b602060405180830381865afa158015612c88573d6000803e3d6000fd5b505050506040513d601f19601f82011682018060405250810190612cac9190615eed565b8015612cb85750600085115b15612d6557612cd167dc4324efe1d025e160c01b614536565b612ce567244764f479edf3d160c01b614536565b612cf9678517cf51e55ee8e260c01b614536565b60008873ffffffffffffffffffffffffffffffffffffffff16311180612d2f5750612d2e67eed22c3d2ff6314f60c01b6146c2565b5b8015612d4b5750612d4a67e4902821d09ecc4660c01b6146c9565b5b612d56576000612d59565b60015b6000925092505061308d565b612d79674f0aacfab105f00e60c01b614536565b612d8d675d5504897103fe1b60c01b614536565b612da167fbed887c5613018060c01b614536565b600560009054906101000a900473ffffffffffffffffffffffffffffffffffffffff1673ffffffffffffffffffffffffffffffffffffffff1663facd743b886040518263ffffffff1660e01b8152600401612dfc9190615a33565b602060405180830381865afa158015612e19573d6000803e3d6000fd5b505050506040513d601f19601f82011682018060405250810190612e3d9190615eed565b15612e8b57612e5667310d6e5194c7eae660c01b614536565b612e6a67bff7861102e3418260c01b614536565b612e7e67ba109a0d0d3a5dfe60c01b614536565b600080925092505061308d565b612e9f6711cb6b61efd5226360c01b614536565b612eb367ff99ef6d0c8f26f460c01b614536565b612ec7674c9d9595c4a7f9cd60c01b614536565b60008503612ffb57612ee3674010d9140077a18260c01b614536565b612ef767364922b18fdbcf7860c01b614536565b612f0b673802d36ead4c02f060c01b614536565b600260009054906101000a900473ffffffffffffffffffffffffffffffffffffffff1673ffffffffffffffffffffffffffffffffffffffff1663e8e23ac0896040518263ffffffff1660e01b8152600401612f669190615a33565b602060405180830381865afa158015612f83573d6000803e3d6000fd5b505050506040513d601f19601f82011682018060405250810190612fa79190615eed565b80612fc25750612fc167b6e87bbe8e2db91160c01b6146c2565b5b8015612fde5750612fdd67225b52e5ff66de1a60c01b6146c9565b5b612fe9576000612fef565b63ffffffff5b6000925092505061308d565b61300f6760d41dc5115b25c660c01b614536565b613023676fa8e9a6b8b36e1e60c01b614536565b61303767e5fc863f14ac276b60c01b614536565b600654851015806130585750613057670b9c8c383ea2610a60c01b6146c2565b5b801561307457506130736783539556737ae0c760c01b6146c9565b5b61307f576000613085565b63ffffffff5b600092509250505b9550959350505050565b60006130ad67474e2d01d013ed0460c01b614539565b6130c167a3dfb7f1a77f229760c01b614539565b6130d567c84461f410b06e1d60c01b614539565b6000806000857bffffffffffffffffffffffffffffffffffffffffffffffffffffffff19167bffffffffffffffffffffffffffffffffffffffffffffffffffffffff191681526020019081526020016000206040518060400160405290816000820160009054906101000a900460e01b7bffffffffffffffffffffffffffffffffffffffffffffffffffffffff19167bffffffffffffffffffffffffffffffffffffffffffffffffffffffff19168152602001600182018054806020026020016040519081016040528092919081815260200182805480156131d657602002820191906000526020600020905b8154815260200190600101908083116131c2575b50505050508152505090506131f567fceac404249b0d4760c01b614539565b6132096780c820ae5d3863fa60c01b614539565b60008160200151510361325c5761322a67d3f7980aefae23f760c01b614539565b61323e675178b7b9ce528bf860c01b614539565b613252672c12828ba0a53f0e60c01b614539565b6000915050613581565b613270679fbf9a05f8d8d3f260c01b614539565b61328467ec1b37c91026e18c60c01b614539565b61329766575fac3fc8706960c01b614539565b6000816020015190506132b467e4ee101f22c6ceed60c01b614539565b6132c867ccc0fb216cd0689c60c01b614539565b60006132d78360000151614d87565b90506132ed67bfc58c9d8e9c74b760c01b614539565b613301679e58f8bb97a704b560c01b614539565b60005b825181101561355057613321670ae3b9f28946ab1660c01b614539565b613335674d79179b2b65b62460c01b614539565b8183828151811061334957613348615e4d565b5b60200260200101510361352f5761336a67e77d2e3f89e7a42860c01b614539565b61337e67b7842defb9da051d60c01b614539565b613392671547477c73ca15a160c01b614539565b6000808211806133b257506133b167cc01463c19fc8ba960c01b614fa3565b5b80156133ce57506133cd67227034a55ba6c0a760c01b614faa565b5b6133f357836000815181106133e6576133e5615e4d565b5b602002602001015161341b565b836001836134019190615e79565b8151811061341257613411615e4d565b5b60200260200101515b9050613431677185030a1f64e21460c01b614539565b6134456778bafd4adda4b1c560c01b614539565b6000600185516134559190615e79565b8310806134725750613471674f0cebdd4deab5ed60c01b614fa3565b5b801561348e575061348d67dc67d8968d02c22460c01b614faa565b5b6134bf5784600186516134a19190615e79565b815181106134b2576134b1615e4d565b5b60200260200101516134e7565b846001846134cd9190615f9d565b815181106134de576134dd615e4d565b5b60200260200101515b90506134fd672e87edf58ed8962a60c01b614539565b613511676973514a8df1a1ba60c01b614539565b8188141580156135215750808814155b159650505050505050613581565b613543679ca04a6f8e3f0a1060c01b614539565b8080600101915050613304565b5061356567aa325e51b176b97060c01b614539565b613579674634c9165e74839160c01b614539565b600093505050505b92915050565b61358f615720565b6135a3678d336dd70b28d88c60c01b614539565b6135b7670ef5ff68e8bedddd60c01b614539565b6135cb6787db0b959c67689d60c01b614539565b600080837bffffffffffffffffffffffffffffffffffffffffffffffffffffffff19167bffffffffffffffffffffffffffffffffffffffffffffffffffffffff191681526020019081526020016000206040518060400160405290816000820160009054906101000a900460e01b7bffffffffffffffffffffffffffffffffffffffffffffffffffffffff19167bffffffffffffffffffffffffffffffffffffffffffffffffffffffff19168152602001600182018054806020026020016040519081016040528092919081815260200182805480156136ca57602002820191906000526020600020905b8154815260200190600101908083116136b6575b5050505050815250509050919050565b6136ee67d93053e057a78ce860c01b614536565b60006136f8614fb5565b905060008160000160089054906101000a900460ff1615905060008260000160009054906101000a900467ffffffffffffffff1690506000808267ffffffffffffffff161480156137465750825b9050600060018367ffffffffffffffff1614801561377b575060003073ffffffffffffffffffffffffffffffffffffffff163b145b905081158015613789575080155b156137c0576040517ff92ee8a900000000000000000000000000000000000000000000000000000000815260040160405180910390fd5b60018560000160006101000a81548167ffffffffffffffff021916908367ffffffffffffffff16021790555083156138105760018560000160086101000a81548160ff0219169083151502179055505b61382467d29228836d328bfd60c01b614536565b613838676984a4db125d985a60c01b614536565b61384c676fe9a5ecdcd32e2760c01b614536565b61386067c9cbb6a18bda043a60c01b614536565b600073ffffffffffffffffffffffffffffffffffffffff168673ffffffffffffffffffffffffffffffffffffffff161480156138ac57506138ab670cc505ef8cf597d960c01b6146c9565b5b8061391b5750600073ffffffffffffffffffffffffffffffffffffffff168a73ffffffffffffffffffffffffffffffffffffffff161480156138fe57506138fd671646b3f7e3a1dd5f60c01b6146c9565b5b801561391a575061391967b94caa5b173e7a6f60c01b6146c9565b5b5b8061398a5750600073ffffffffffffffffffffffffffffffffffffffff168973ffffffffffffffffffffffffffffffffffffffff1614801561396d575061396c67453a11ab2f620aa160c01b6146c9565b5b80156139895750613988671604acf107a519df60c01b6146c9565b5b5b806139f95750600073ffffffffffffffffffffffffffffffffffffffff168873ffffffffffffffffffffffffffffffffffffffff161480156139dc57506139db6739a61242c43eebb460c01b6146c9565b5b80156139f857506139f7676d87b97d52b1a5f760c01b6146c9565b5b5b80613a4c5750600073ffffffffffffffffffffffffffffffffffffffff168773ffffffffffffffffffffffffffffffffffffffff16148015613a4b5750613a4a676985cac073941ab160c01b6146c9565b5b5b15613aab57613a6567cbb694d5cd3f513860c01b614536565b613a796794a33e8a3a0f4da660c01b614536565b6040517fd92e233d00000000000000000000000000000000000000000000000000000000815260040160405180910390fd5b613abf67d5aba4722250936e60c01b614536565b613ad367b0974c84dc22dca660c01b614536565b613ae767f111289d4f71ce6060c01b614536565b613af086614fdd565b613b0467adf7922abd44138760c01b614536565b613b1867e6ae655fa2cb359260c01b614536565b60005b8c8c9050811015613b8957613b3a673f417eb3338eee0660c01b614536565b613b4e67d1cd138d948ce92d60c01b614536565b613b7e8d8d83818110613b6457613b63615e4d565b5b9050602002016020810190613b799190615952565b614ff1565b806001019050613b1b565b50613b9e67b767710c55ea830b60c01b614536565b89600260006101000a81548173ffffffffffffffffffffffffffffffffffffffff021916908373ffffffffffffffffffffffffffffffffffffffff160217905550613bf367f3f98d3df25177ac60c01b614536565b88600560006101000a81548173ffffffffffffffffffffffffffffffffffffffff021916908373ffffffffffffffffffffffffffffffffffffffff160217905550613c486723e9e4e1d018d38560c01b614536565b87600360006101000a81548173ffffffffffffffffffffffffffffffffffffffff021916908373ffffffffffffffffffffffffffffffffffffffff160217905550613c9d67e2ed61352871934660c01b614536565b86600860006101000a81548173ffffffffffffffffffffffffffffffffffffffff021916908373ffffffffffffffffffffffffffffffffffffffff160217905550613cf26705b21f5c32a6714b60c01b614536565b633b9aca00600681905550613d1167df12d7a5aeaf081960c01b614536565b6305f5e100600781905550613d3067b8c3f497c317fe7660c01b614536565b613d4467bf970b18ad5612c160c01b614536565b6000600b67ffffffffffffffff811115613d6157613d60615a9d565b5b604051908082528060200260200182016040528015613d8f5781602001602082028036833780820191505090505b509050613da667cc275a4086e2228b60c01b614536565b6305f5e10081600081518110613dbf57613dbe615e4d565b5b602002602001018181525050613ddf67c27def3986eba58e60c01b614536565b630bebc20081600181518110613df857613df7615e4d565b5b602002602001018181525050613e1867d48123aa7ad1b7c260c01b614536565b6317d7840081600281518110613e3157613e30615e4d565b5b602002602001018181525050613e5167b4e65c76e388f31060c01b614536565b6323c3460081600381518110613e6a57613e69615e4d565b5b602002602001018181525050613e8a67b4077bc3e89efe5b60c01b614536565b632faf080081600481518110613ea357613ea2615e4d565b5b602002602001018181525050613ec367602b0a82e6d0e68a60c01b614536565b633b9aca0081600581518110613edc57613edb615e4d565b5b602002602001018181525050613efc6774a7a55293f1bdcd60c01b614536565b637735940081600681518110613f1557613f14615e4d565b5b602002602001018181525050613f35674f1117af7f5f0b0c60c01b614536565b63ee6b280081600781518110613f4e57613f4d615e4d565b5b602002602001018181525050613f6e6735b15829af69874260c01b614536565b640165a0bc0081600881518110613f8857613f87615e4d565b5b602002602001018181525050613fa8675abee16a57341d6360c01b614536565b6401dcd6500081600981518110613fc257613fc1615e4d565b5b602002602001018181525050613fe26798e63d34af2ef59c60c01b614536565b6402540be40081600a81518110613ffc57613ffb615e4d565b5b60200260200101818152505061401c670f36b8700707284060c01b614536565b61403067a27e1d61bef21f2d60c01b614536565b61404963d249b31c60e01b63df3cecf660e01b836152bc565b61405d67dbdec3dfaaad9b4160c01b614536565b61407167ec4c40ed9949d4f860c01b614536565b6000600a67ffffffffffffffff81111561408e5761408d615a9d565b5b6040519080825280602002602001820160405280156140bc5781602001602082028036833780820191505090505b5090506140d36797f4543e9ebd003360c01b614536565b6140e76738930f6d916d1af060c01b614536565b60005b815181101561414d5761410767048046ba46ded70e60c01b614536565b6305f5e1006001826141199190615f9d565b6141239190615ead565b82828151811061413657614135615e4d565b5b6020026020010181815250508060010190506140ea565b506141626711959907441f9aa760c01b614536565b6141766750efd2afa9b247e660c01b614536565b61418f63a69257f360e01b637877a79760e01b836152bc565b505083156141ed5760008560000160086101000a81548160ff0219169083151502179055507fc7f505b2f371ae2175ee4913f4499e1f2633a7b5936321eed1cdaeb6115181d260016040516141e49190615fbb565b60405180910390a15b505050505050505050505050565b61420f67f255c83f0142cf5f60c01b614536565b61421761453c565b61422b67077c4f7e38e8b4e760c01b614536565b61423f67b67fabbd6ae5277260c01b614536565b61425367186e29997970f7fe60c01b614536565b61426767f49b51e8f7ac4cfd60c01b614536565b61427081614ff1565b50565b61428767d6af850cb4d2d71b60c01b614536565b61428f61453c565b6142a3673fb023140be0396360c01b614536565b6142b7675b2e202e21c9ad6360c01b614536565b806142cc67288a20a40e8d1c5860c01b614539565b6142e067c91bd2adbddb69c960c01b614539565b6142f467e350faaca2e8f0c060c01b614539565b6143226000357fffffffff000000000000000000000000000000000000000000000000000000001682613097565b61438b5761433a67f321c0062a05753f60c01b614539565b61434e6710282e2f2d3001d760c01b614539565b806040517f73330d9b00000000000000000000000000000000000000000000000000000000815260040161438291906159ff565b60405180910390fd5b61439f677a834b40c8e841e560c01b614539565b6143b3678765015181e8c42860c01b614539565b6143c7675c99952919e3659160c01b614536565b6143db6735a5d37d19c7c24260c01b614536565b6143ef67affbf42651acd75c60c01b614536565b8160068190555061440a6777b77f7f2483052c60c01b614536565b61441e67ae56cc916911b29e60c01b614536565b7f52264b89e0fceafb26e79fd49ef8a366eb6297483bf4035b027f0c99a7ad512e8260405161444d91906159ff565b60405180910390a15050565b63b2a6842160e01b81565b60065481565b600560009054906101000a900473ffffffffffffffffffffffffffffffffffffffff1681565b60046020528060005260406000206000915054906101000a900460ff1681565b6144b861453c565b600073ffffffffffffffffffffffffffffffffffffffff168173ffffffffffffffffffffffffffffffffffffffff160361452a5760006040517f1e4fbdf70000000000000000000000000000000000000000000000000000000081526004016145219190615a33565b60405180910390fd5b614533816145c3565b50565b50565b50565b614544615444565b73ffffffffffffffffffffffffffffffffffffffff166145626111e2565b73ffffffffffffffffffffffffffffffffffffffff16146145c157614585615444565b6040517f118cdaa70000000000000000000000000000000000000000000000000000000081526004016145b89190615a33565b60405180910390fd5b565b60006145cd61469a565b905060008160000160009054906101000a900473ffffffffffffffffffffffffffffffffffffffff169050828260000160006101000a81548173ffffffffffffffffffffffffffffffffffffffff021916908373ffffffffffffffffffffffffffffffffffffffff1602179055508273ffffffffffffffffffffffffffffffffffffffff168173ffffffffffffffffffffffffffffffffffffffff167f8be0079c531659141344cd1fd0a4f28419497f9722a3daafe3b4186f6b6457e060405160405180910390a3505050565b60007f9016d09d72d40fdae2fd8ceac6b6234c7706214fd39c1cd1e609a0528c199300905090565b6000919050565b600060019050919050565b60006146ea674eff534510212efb60c01b614536565b6146fe675dbc211183a3f00160c01b614536565b614712678b5b47add7e5900860c01b614536565b600061472867261d086f2581026760c01b614536565b61473c67b3a37413b990a61560c01b614536565b60005b60208110156147d45761475c678c4db93c2dd0704d60c01b614536565b600881601f61476b9190615e79565b6147759190615ead565b600261478191906160d1565b84828761478e9190615f9d565b8151811061479f5761479e615e4d565b5b602001015160f81c60f81b60f81c60ff166147ba9190615ead565b826147c59190615f9d565b9150808060010191505061473f565b506147e96749b31a441502686b60c01b614536565b6147fd674faa568e6b9ec49360c01b614536565b8091505092915050565b61480f615759565b61482367a263c81fcdaea2d460c01b614536565b61483767f566779d4601ed5760c01b614536565b61484b67be73b7b55b9737d960c01b614536565b600060606004845161485d9190615e79565b11806148795750614878674cb753ea06b86f0f60c01b6146c2565b5b801561489557506148946794c210102e47be0f60c01b6146c9565b5b6148ac57600483516148a79190615e79565b6148af565b60605b90506148c56747465b46b7b329be60c01b614536565b6148d967ca95540fb1aa9fe660c01b614536565b60006148e78483600461544c565b90506148fd67d6f5a929a06fd52260c01b614536565b614911673b5eb5f4492a922560c01b614536565b60006040518060600160405280600063ffffffff168152602001600115158152602001600015158152509050614951673f7362c7d173d90060c01b614536565b61496567d83e07f8e598502060c01b614536565b63911cee7460e01b7bffffffffffffffffffffffffffffffffffffffffffffffffffffffff1916867bffffffffffffffffffffffffffffffffffffffffffffffffffffffff191603614b2a576149c567b594fe9f34bfc4e260c01b614536565b6149d967d58a6af82dd4fd5060c01b614536565b6149ed67ab3b70a507afeea160c01b614536565b600080600084806020019051810190614a0691906160e5565b925092509250614a2067e4a12e7e74e90a0f60c01b614536565b614a3467befc638aa0ae41d660c01b614536565b600860009054906101000a900473ffffffffffffffffffffffffffffffffffffffff1673ffffffffffffffffffffffffffffffffffffffff1663060b28498b8585856040518563ffffffff1660e01b8152600401614a95949392919061611e565b60006040518083038186803b158015614aad57600080fd5b505afa925050508015614abe575060015b614af457614ad667cc8f5b86c5c0d83d60c01b614536565b6000846000019063ffffffff16908163ffffffff1681525050614b22565b614b0867256882720b0f2d1060c01b614536565b6002846000019063ffffffff16908163ffffffff16815250505b505050614d52565b614b3e67f4c1896b94089e2660c01b614536565b614b5267395600dc5bf8ac4d60c01b614536565b63b2a6842160e01b7bffffffffffffffffffffffffffffffffffffffffffffffffffffffff1916867bffffffffffffffffffffffffffffffffffffffffffffffffffffffff191603614d1757614bb267c50a8070c55e5c8660c01b614536565b614bc667a672189cd6be5a3860c01b614536565b614bda67d45a69cf323ddc8860c01b614536565b600080600084806020019051810190614bf391906160e5565b925092509250614c0d670fb006138ae807b860c01b614536565b614c216705c833d1b262399a60c01b614536565b600860009054906101000a900473ffffffffffffffffffffffffffffffffffffffff1673ffffffffffffffffffffffffffffffffffffffff1663bed8968c8b8585856040518563ffffffff1660e01b8152600401614c82949392919061611e565b60006040518083038186803b158015614c9a57600080fd5b505afa925050508015614cab575060015b614ce157614cc367c98c7265e5acef8760c01b614536565b6000846000019063ffffffff16908163ffffffff1681525050614d0f565b614cf567780cf29cd94096aa60c01b614536565b6002846000019063ffffffff16908163ffffffff16815250505b505050614d51565b614d2b6799a25209b57e82b860c01b614536565b614d3f67a4b50c43306fd68960c01b614536565b60008160200190151590811515815250505b5b614d66677b84655a9b501d3e60c01b614536565b614d7a67497c7efabd48296560c01b614536565b8093505050509392505050565b6000614d9d679e1fb7c1345f6d7560c01b614539565b614db1676a464d35bf2f530e60c01b614539565b614dc567bf3100cc1e8b9dfe60c01b614539565b600082604051602401604051602081830303815290604052907bffffffffffffffffffffffffffffffffffffffffffffffffffffffff19166020820180517bffffffffffffffffffffffffffffffffffffffffffffffffffffffff83818316178352505050509050614e416796628452cad12c7f60c01b614539565b614e55675ab273453a552a6660c01b614539565b6000803073ffffffffffffffffffffffffffffffffffffffff1683604051614e7d919061615e565b600060405180830381855afa9150503d8060008114614eb8576040519150601f19603f3d011682016040523d82523d6000602084013e614ebd565b606091505b5091509150614ed667ddcfe0b4c19fd84c60c01b614539565b614eea67a914dc00efc72af160c01b614539565b81614f4957614f0367cc0b2dfba033c08760c01b614539565b614f17673b33da3d059e2f5160c01b614539565b6040517fbf75613600000000000000000000000000000000000000000000000000000000815260040160405180910390fd5b614f5d670c45fced65fbfda160c01b614539565b614f716783c55538565e133160c01b614539565b614f85671651102527c6e0d860c01b614539565b80806020019051810190614f999190615f81565b9350505050919050565b6000919050565b600060019050919050565b60007ff0c57e16840df040f15088dc2f81fe391c3923bec73e23a9662efc9c229c6a00905090565b614fe56155cc565b614fee8161560c565b50565b615005672aef55f6a9957d5860c01b614536565b61501967f4523c6715a5967e60c01b614536565b61502d67b44c5fb30ff8019c60c01b614536565b600073ffffffffffffffffffffffffffffffffffffffff168173ffffffffffffffffffffffffffffffffffffffff16036150bb576150756711a2337c3495c84a60c01b614536565b615089675fd822303175eb1860c01b614536565b6040517fd92e233d00000000000000000000000000000000000000000000000000000000815260040160405180910390fd5b6150cf67d2e938018e5ebdfb60c01b614536565b6150e367bc6f663e699caeaa60c01b614536565b6150f767bca131f134c65bcb60c01b614536565b600460008273ffffffffffffffffffffffffffffffffffffffff1673ffffffffffffffffffffffffffffffffffffffff16815260200190815260200160002060009054906101000a900460ff16156151ae5761515d678414c6482eb4f6fb60c01b614536565b61517167b32933100a84c95c60c01b614536565b806040517f7c9341200000000000000000000000000000000000000000000000000000000081526004016151a59190615a33565b60405180910390fd5b6151c267d7ae3a892ebcdc8e60c01b614536565b6151d667ffe3064c0485358b60c01b614536565b6151ea670eee6d3a190aad9e60c01b614536565b6001819080600181540180825580915050600190039060005260206000200160009091909190916101000a81548173ffffffffffffffffffffffffffffffffffffffff021916908373ffffffffffffffffffffffffffffffffffffffff160217905550615261676b208a3769a6ac9c60c01b614536565b6001600460008373ffffffffffffffffffffffffffffffffffffffff1673ffffffffffffffffffffffffffffffffffffffff16815260200190815260200160002060006101000a81548160ff02191690831515021790555050565b6152d067c79e4b348e6f39f460c01b614539565b6152d86155cc565b6152ec67b4a3fa81ec94c0b760c01b614539565b6153006779af0e9eed62f6a360c01b614539565b615314671d2f4cf255f3a3a260c01b614539565b6040518060400160405280837bffffffffffffffffffffffffffffffffffffffffffffffffffffffff1916815260200182815250600080857bffffffffffffffffffffffffffffffffffffffffffffffffffffffff19167bffffffffffffffffffffffffffffffffffffffffffffffffffffffff1916815260200190815260200160002060008201518160000160006101000a81548163ffffffff021916908360e01c021790555060208201518160010190805190602001906153d89291906156b2565b509050506153f06761754190fdc3bd4b60c01b614539565b61540467ff18751ae25d0b5f60c01b614539565b7f3665bf9cd0ba4ddceeec259e21dcf8a4510f3b1130bd42e950828e69d85408ba8383836040516154379392919061617c565b60405180910390a1505050565b600033905090565b606061546267b101fbceec5f14a460c01b614536565b61547667df9606fa31066f1360c01b614536565b61548a672c91162fb11c546660c01b614536565b60008367ffffffffffffffff8111156154a6576154a5615a9d565b5b6040519080825280601f01601f1916602001820160405280156154d85781602001600182028036833780820191505090505b5090506154ef6788de5f3629c50dd760c01b614536565b6155036716bac8e0e8aa981f60c01b614536565b60005b84811015615598576155226792984fdeddfd2b2f60c01b614536565b85848261552f9190615f9d565b815181106155405761553f615e4d565b5b602001015160f81c60f81b82828151811061555e5761555d615e4d565b5b60200101907effffffffffffffffffffffffffffffffffffffffffffffffffffffffffffff1916908160001a905350806001019050615506565b506155ad6762dacbe9f9cf8cd360c01b614536565b6155c167051058259e284f9160c01b614536565b809150509392505050565b6155d4615692565b61560a576040517fd7e6bcf800000000000000000000000000000000000000000000000000000000815260040160405180910390fd5b565b6156146155cc565b600073ffffffffffffffffffffffffffffffffffffffff168173ffffffffffffffffffffffffffffffffffffffff16036156865760006040517f1e4fbdf700000000000000000000000000000000000000000000000000000000815260040161567d9190615a33565b60405180910390fd5b61568f816145c3565b50565b600061569c614fb5565b60000160089054906101000a900460ff16905090565b8280548282559060005260206000209081019282156156ee579160200282015b828111156156ed5782518255916020019190600101906156d2565b5b5090506156fb9190615784565b5090565b508054600082559060005260206000209081019061571d9190615784565b50565b604051806040016040528060007bffffffffffffffffffffffffffffffffffffffffffffffffffffffff19168152602001606081525090565b6040518060600160405280600063ffffffff1681526020016000151581526020016000151581525090565b5b8082111561579d576000816000905550600101615785565b5090565b600060208201905073ffffffffffffffffffffffffffffffffffffffff8316825292915050565b600060208201905063ffffffff60e01b8316825292915050565b600060208083016020845280855180835260408601915060208701925060005b818110156158395773ffffffffffffffffffffffffffffffffffffffff845116835284830192508484019350600181019050615802565b505080935050505092915050565b60008135905063ffffffff60e01b8116811461586257600080fd5b919050565b60008083601f84011261587957600080fd5b8235905067ffffffffffffffff81111561589257600080fd5b6020830191508360208260051b85010111156158ad57600080fd5b9250929050565b600080600080606085870312156158ca57600080fd5b6158d385615847565b93506158e160208601615847565b9250604085013567ffffffffffffffff8111156158fd57600080fd5b61590987828801615867565b9150809350508091505092959194509250565b600060208201905082825292915050565b73ffffffffffffffffffffffffffffffffffffffff8116811461594f57600080fd5b50565b60006020828403121561596457600080fd5b813561596f8161592d565b8091505092915050565b600060208201905073ffffffffffffffffffffffffffffffffffffffff8316825292915050565b60005b838110156159be5780820151818401526020810190506159a3565b50600083830152505050565b60208152600082518060208401526159e98160408501602087016159a0565b6040601f19601f83011684010191505092915050565b600060208201905082825292915050565b600060208284031215615a2257600080fd5b615a2b82615847565b905092915050565b600060208201905073ffffffffffffffffffffffffffffffffffffffff8316825292915050565b600060208284031215615a6c57600080fd5b8135905092915050565b600060208201905073ffffffffffffffffffffffffffffffffffffffff8316825292915050565b634e487b7160e01b600052604160045260246000fd5b600067ffffffffffffffff80841115615acf57615ace615a9d565b5b601f1960405181603f83601f8901160116810191508082108383111715615af957615af8615a9d565b5b81604052809350858152868686011115615b1257600080fd5b858560208301376000602087830101525050509392505050565b600060208284031215615b3e57600080fd5b813567ffffffffffffffff811115615b5557600080fd5b808301905083601f820112615b6957600080fd5b615b7884823560208401615ab3565b91505092915050565b60008151808452602080850194506020840160005b83811015615bb7578151875282870196508282019150600181019050615b96565b5050505082905092915050565b6020815263ffffffff60e01b825116602082015260006020830151604080840152615bf26060840182615b81565b91505092915050565b600080600080600060a08688031215615c1357600080fd5b8535615c1e8161592d565b809550506020860135615c308161592d565b809450506040860135925060608601359150608086013567ffffffffffffffff811115615c5c57600080fd5b808701905087601f820112615c7057600080fd5b615c7f88823560208401615ab3565b9150509295509295909350565b600060408201905063ffffffff8416825282151560208301529392505050565b60008060408385031215615cbf57600080fd5b615cc883615847565b9150602083013590509250929050565b6000602082019050821515825292915050565b600080600080600080600060c0888a031215615d0657600080fd5b873567ffffffffffffffff811115615d1d57600080fd5b615d298a828b01615867565b915080985050809650506020880135615d418161592d565b809550506040880135615d538161592d565b809450506060880135615d658161592d565b809350506080880135615d778161592d565b8092505060a0880135615d898161592d565b8091505092959891949750929550565b600060208201905073ffffffffffffffffffffffffffffffffffffffff8316825292915050565b600063ffffffff60e01b8087168352808616602084015250606060408301528260608301527f07ffffffffffffffffffffffffffffffffffffffffffffffffffffffffffffff831115615e1257600080fd5b8260051b8085608085013760808184010191505095945050505050565b60008251615e418184602087016159a0565b80830191505092915050565b634e487b7160e01b600052603260045260246000fd5b634e487b7160e01b600052601160045260246000fd5b6000828203905081811115615e9157615e90615e63565b5b92915050565b634e487b7160e01b600052603160045260246000fd5b600082820290508181048314821517615ec957615ec8615e63565b5b92915050565b600080198203615ee257615ee1615e63565b5b600182019050919050565b600060208284031215615eff57600080fd5b81518015158114615f0f57600080fd5b8091505092915050565b600060208284031215615f2b57600080fd5b8151615f368161592d565b8091505092915050565b634e487b7160e01b600052602160045260246000fd5b600060208284031215615f6857600080fd5b815160068110615f7757600080fd5b8091505092915050565b600060208284031215615f9357600080fd5b8151905092915050565b6000828201905080821115615fb557615fb4615e63565b5b92915050565b600060208201905067ffffffffffffffff8316825292915050565b60008060018092508391505b8085111561601c578160001904821115615fff57615ffe615e63565b5b8085161561600d5781830292505b818202915084811c9450615fe2565b509250929050565b60008261603457600190506160cb565b8161604257600090506160cb565b8160018114616058576002811461606257616080565b60019150506160cb565b60ff84111561607457616073615e63565b5b6001841b9150506160cb565b5060208310610133831016604e8410600b84101617156160a45782820a90506160cb565b6160ae8383615fd6565b80600019048211156160c3576160c2615e63565b5b808202925050505b92915050565b60006160dd8383616024565b905092915050565b6000806000606084860312156160fa57600080fd5b83516161058161592d565b8093505060208401519150604084015190509250925092565b600060808201905073ffffffffffffffffffffffffffffffffffffffff808716835280861660208401525083604083015282606083015295945050505050565b600082516161708184602087016159a0565b80830191505092915050565b600063ffffffff60e01b8086168352808516602084015250606060408301526161a86060830184615b81565b905094935050505056fea2646970667358221220ee13babe87b7d82c1939fe3c05ca74b341c9e32118ae1a478b556f799dfcb50064736f6c63430008190033",
  "linkReferences": {},
  "deployedLinkReferences": {}
}