{
  "_format": "hh-sol-artifact-1",
  "contractName": "ValidatorSetHbbft",
  "sourceName": "contracts/ValidatorSetHbbft.sol",
  "abi": [
    {
      "inputs": [],
      "stateMutability": "nonpayable",
      "type": "constructor"
    },
    {
      "inputs": [],
      "name": "AnnounceBlockNumberTooOld",
      "type": "error"
    },
    {
      "inputs": [],
      "name": "CantAnnounceAvailability",
      "type": "error"
    },
    {
      "inputs": [],
      "name": "EpochNotYetzFinished",
      "type": "error"
    },
    {
      "inputs": [],
      "name": "InitialAddressesLengthMismatch",
      "type": "error"
    },
    {
      "inputs": [],
      "name": "InitialValidatorsEmpty",
      "type": "error"
    },
    {
      "inputs": [],
      "name": "InvalidAddressPair",
      "type": "error"
    },
    {
      "inputs": [],
      "name": "InvalidAnnounceBlockHash",
      "type": "error"
    },
    {
      "inputs": [],
      "name": "InvalidAnnounceBlockNumber",
      "type": "error"
    },
    {
      "inputs": [],
      "name": "InvalidInactivityThreshold",
      "type": "error"
    },
    {
      "inputs": [],
      "name": "InvalidInitialization",
      "type": "error"
    },
    {
      "inputs": [],
      "name": "InvalidPossibleValidatorCount",
      "type": "error"
    },
    {
      "inputs": [
        {
          "internalType": "address",
          "name": "_value",
          "type": "address"
        }
      ],
      "name": "MiningAddressAlreadyUsed",
      "type": "error"
    },
    {
      "inputs": [],
      "name": "NotInitializing",
      "type": "error"
    },
    {
      "inputs": [
        {
          "internalType": "address",
          "name": "owner",
          "type": "address"
        }
      ],
      "name": "OwnableInvalidOwner",
      "type": "error"
    },
    {
      "inputs": [
        {
          "internalType": "address",
          "name": "account",
          "type": "address"
        }
      ],
      "name": "OwnableUnauthorizedAccount",
      "type": "error"
    },
    {
      "inputs": [
        {
          "internalType": "address",
          "name": "_value",
          "type": "address"
        }
      ],
      "name": "StakingAddressAlreadyUsed",
      "type": "error"
    },
    {
      "inputs": [
        {
          "internalType": "address",
          "name": "_mining",
          "type": "address"
        }
      ],
      "name": "StakingPoolNotExist",
      "type": "error"
    },
    {
      "inputs": [],
      "name": "Unauthorized",
      "type": "error"
    },
    {
      "inputs": [],
      "name": "ValidatorsListEmpty",
      "type": "error"
    },
    {
      "inputs": [],
      "name": "ZeroAddress",
      "type": "error"
    },
    {
      "anonymous": false,
      "inputs": [
        {
          "indexed": false,
          "internalType": "uint64",
          "name": "version",
          "type": "uint64"
        }
      ],
      "name": "Initialized",
      "type": "event"
    },
    {
      "anonymous": false,
      "inputs": [
        {
          "indexed": true,
          "internalType": "address",
          "name": "previousOwner",
          "type": "address"
        },
        {
          "indexed": true,
          "internalType": "address",
          "name": "newOwner",
          "type": "address"
        }
      ],
      "name": "OwnershipTransferred",
      "type": "event"
    },
    {
      "anonymous": false,
      "inputs": [
        {
          "indexed": false,
          "internalType": "address",
          "name": "reportingValidator",
          "type": "address"
        },
        {
          "indexed": false,
          "internalType": "address",
          "name": "maliciousValidator",
          "type": "address"
        },
        {
          "indexed": false,
          "internalType": "uint256",
          "name": "blockNumber",
          "type": "uint256"
        }
      ],
      "name": "ReportedMalicious",
      "type": "event"
    },
    {
      "anonymous": false,
      "inputs": [
        {
          "indexed": false,
          "internalType": "uint256",
          "name": "_value",
          "type": "uint256"
        }
      ],
      "name": "SetBanDuration",
      "type": "event"
    },
    {
      "anonymous": false,
      "inputs": [
        {
          "indexed": false,
          "internalType": "address",
          "name": "_address",
          "type": "address"
        }
      ],
      "name": "SetBonusScoreContract",
      "type": "event"
    },
    {
      "anonymous": false,
      "inputs": [
        {
          "indexed": false,
          "internalType": "uint256",
          "name": "_count",
          "type": "uint256"
        }
      ],
      "name": "SetMaxValidators",
      "type": "event"
    },
    {
      "anonymous": false,
      "inputs": [
        {
          "indexed": false,
          "internalType": "uint256",
          "name": "_value",
          "type": "uint256"
        }
      ],
      "name": "SetValidatorInactivityThreshold",
      "type": "event"
    },
    {
      "anonymous": false,
      "inputs": [
        {
          "indexed": false,
          "internalType": "address",
          "name": "validator",
          "type": "address"
        },
        {
          "indexed": false,
          "internalType": "uint256",
          "name": "timestamp",
          "type": "uint256"
        }
      ],
      "name": "ValidatorAvailable",
      "type": "event"
    },
    {
      "anonymous": false,
      "inputs": [
        {
          "indexed": false,
          "internalType": "address",
          "name": "validator",
          "type": "address"
        },
        {
          "indexed": false,
          "internalType": "uint256",
          "name": "timestamp",
          "type": "uint256"
        }
      ],
      "name": "ValidatorUnavailable",
      "type": "event"
    },
    {
      "inputs": [
        {
          "internalType": "uint256",
          "name": "_blockNumber",
          "type": "uint256"
        },
        {
          "internalType": "bytes32",
          "name": "_blockhash",
          "type": "bytes32"
        }
      ],
      "name": "announceAvailability",
      "outputs": [],
      "stateMutability": "nonpayable",
      "type": "function"
    },
    {
      "inputs": [
        {
          "internalType": "address",
          "name": "_miningAddress",
          "type": "address"
        }
      ],
      "name": "areDelegatorsBanned",
      "outputs": [
        {
          "internalType": "bool",
          "name": "",
          "type": "bool"
        }
      ],
      "stateMutability": "view",
      "type": "function"
    },
    {
      "inputs": [
        {
          "internalType": "address",
          "name": "",
          "type": "address"
        }
      ],
      "name": "banCounter",
      "outputs": [
        {
          "internalType": "uint256",
          "name": "",
          "type": "uint256"
        }
      ],
      "stateMutability": "view",
      "type": "function"
    },
    {
      "inputs": [],
      "name": "banDuration",
      "outputs": [
        {
          "internalType": "uint256",
          "name": "",
          "type": "uint256"
        }
      ],
      "stateMutability": "view",
      "type": "function"
    },
    {
      "inputs": [
        {
          "internalType": "address",
          "name": "",
          "type": "address"
        }
      ],
      "name": "banReason",
      "outputs": [
        {
          "internalType": "bytes32",
          "name": "",
          "type": "bytes32"
        }
      ],
      "stateMutability": "view",
      "type": "function"
    },
    {
      "inputs": [
        {
          "internalType": "address",
          "name": "",
          "type": "address"
        }
      ],
      "name": "bannedDelegatorsUntil",
      "outputs": [
        {
          "internalType": "uint256",
          "name": "",
          "type": "uint256"
        }
      ],
      "stateMutability": "view",
      "type": "function"
    },
    {
      "inputs": [
        {
          "internalType": "address",
          "name": "",
          "type": "address"
        }
      ],
      "name": "bannedUntil",
      "outputs": [
        {
          "internalType": "uint256",
          "name": "",
          "type": "uint256"
        }
      ],
      "stateMutability": "view",
      "type": "function"
    },
    {
      "inputs": [],
      "name": "blockRewardContract",
      "outputs": [
        {
          "internalType": "address",
          "name": "",
          "type": "address"
        }
      ],
      "stateMutability": "view",
      "type": "function"
    },
    {
      "inputs": [],
      "name": "bonusScoreSystem",
      "outputs": [
        {
          "internalType": "contract IBonusScoreSystem",
          "name": "",
          "type": "address"
        }
      ],
      "stateMutability": "view",
      "type": "function"
    },
    {
      "inputs": [
        {
          "internalType": "address",
          "name": "_miningAddress",
          "type": "address"
        }
      ],
      "name": "canCallAnnounceAvailability",
      "outputs": [
        {
          "internalType": "bool",
          "name": "",
          "type": "bool"
        }
      ],
      "stateMutability": "view",
      "type": "function"
    },
    {
      "inputs": [],
      "name": "finalizeChange",
      "outputs": [],
      "stateMutability": "nonpayable",
      "type": "function"
    },
    {
      "inputs": [],
      "name": "getCurrentValidatorsCount",
      "outputs": [
        {
          "internalType": "uint256",
          "name": "",
          "type": "uint256"
        }
      ],
      "stateMutability": "view",
      "type": "function"
    },
    {
      "inputs": [
        {
          "internalType": "address",
          "name": "_miningAddress",
          "type": "address"
        }
      ],
      "name": "getPendingValidatorKeyGenerationMode",
      "outputs": [
        {
          "internalType": "enum IValidatorSetHbbft.KeyGenMode",
          "name": "",
          "type": "uint8"
        }
      ],
      "stateMutability": "view",
      "type": "function"
    },
    {
      "inputs": [],
      "name": "getPendingValidators",
      "outputs": [
        {
          "internalType": "address[]",
          "name": "",
          "type": "address[]"
        }
      ],
      "stateMutability": "view",
      "type": "function"
    },
    {
      "inputs": [],
      "name": "getPreviousValidators",
      "outputs": [
        {
          "internalType": "address[]",
          "name": "",
          "type": "address[]"
        }
      ],
      "stateMutability": "view",
      "type": "function"
    },
    {
      "inputs": [
        {
          "internalType": "address",
          "name": "_miningAddress",
          "type": "address"
        }
      ],
      "name": "getPublicKey",
      "outputs": [
        {
          "internalType": "bytes",
          "name": "",
          "type": "bytes"
        }
      ],
      "stateMutability": "view",
      "type": "function"
    },
    {
      "inputs": [],
      "name": "getStakingContract",
      "outputs": [
        {
          "internalType": "address",
          "name": "",
          "type": "address"
        }
      ],
      "stateMutability": "view",
      "type": "function"
    },
    {
      "inputs": [
        {
          "internalType": "uint256",
          "name": "_possibleValidatorCount",
          "type": "uint256"
        }
      ],
      "name": "getValidatorCountSweetSpot",
      "outputs": [
        {
          "internalType": "uint256",
          "name": "",
          "type": "uint256"
        }
      ],
      "stateMutability": "pure",
      "type": "function"
    },
    {
      "inputs": [],
      "name": "getValidators",
      "outputs": [
        {
          "internalType": "address[]",
          "name": "",
          "type": "address[]"
        }
      ],
      "stateMutability": "view",
      "type": "function"
    },
    {
      "inputs": [],
      "name": "handleFailedKeyGeneration",
      "outputs": [],
      "stateMutability": "nonpayable",
      "type": "function"
    },
    {
      "inputs": [
        {
          "internalType": "address",
          "name": "_contractOwner",
          "type": "address"
        },
        {
          "components": [
            {
              "internalType": "address",
              "name": "blockRewardContract",
              "type": "address"
            },
            {
              "internalType": "address",
              "name": "randomContract",
              "type": "address"
            },
            {
              "internalType": "address",
              "name": "stakingContract",
              "type": "address"
            },
            {
              "internalType": "address",
              "name": "keyGenHistoryContract",
              "type": "address"
            },
            {
              "internalType": "address",
              "name": "bonusScoreContract",
              "type": "address"
            },
            {
              "internalType": "uint256",
              "name": "validatorInactivityThreshold",
              "type": "uint256"
            }
          ],
          "internalType": "struct IValidatorSetHbbft.ValidatorSetParams",
          "name": "_params",
          "type": "tuple"
        },
        {
          "internalType": "address[]",
          "name": "_initialMiningAddresses",
          "type": "address[]"
        },
        {
          "internalType": "address[]",
          "name": "_initialStakingAddresses",
          "type": "address[]"
        }
      ],
      "name": "initialize",
      "outputs": [],
      "stateMutability": "nonpayable",
      "type": "function"
    },
    {
      "inputs": [],
      "name": "isFullHealth",
      "outputs": [
        {
          "internalType": "bool",
          "name": "",
          "type": "bool"
        }
      ],
      "stateMutability": "view",
      "type": "function"
    },
    {
      "inputs": [
        {
          "internalType": "address",
          "name": "_miningAddress",
          "type": "address"
        }
      ],
      "name": "isPendingValidator",
      "outputs": [
        {
          "internalType": "bool",
          "name": "",
          "type": "bool"
        }
      ],
      "stateMutability": "view",
      "type": "function"
    },
    {
      "inputs": [
        {
          "internalType": "address",
          "name": "_miningAddress",
          "type": "address"
        }
      ],
      "name": "isReportValidatorValid",
      "outputs": [
        {
          "internalType": "bool",
          "name": "",
          "type": "bool"
        }
      ],
      "stateMutability": "view",
      "type": "function"
    },
    {
      "inputs": [
        {
          "internalType": "address",
          "name": "",
          "type": "address"
        }
      ],
      "name": "isValidator",
      "outputs": [
        {
          "internalType": "bool",
          "name": "",
          "type": "bool"
        }
      ],
      "stateMutability": "view",
      "type": "function"
    },
    {
      "inputs": [
        {
          "internalType": "address",
          "name": "_stakingAddress",
          "type": "address"
        }
      ],
      "name": "isValidatorAbandoned",
      "outputs": [
        {
          "internalType": "bool",
          "name": "",
          "type": "bool"
        }
      ],
      "stateMutability": "view",
      "type": "function"
    },
    {
      "inputs": [
        {
          "internalType": "address",
          "name": "_miningAddress",
          "type": "address"
        }
      ],
      "name": "isValidatorBanned",
      "outputs": [
        {
          "internalType": "bool",
          "name": "",
          "type": "bool"
        }
      ],
      "stateMutability": "view",
      "type": "function"
    },
    {
      "inputs": [
        {
          "internalType": "address",
          "name": "_miningAddress",
          "type": "address"
        }
      ],
      "name": "isValidatorOrPending",
      "outputs": [
        {
          "internalType": "bool",
          "name": "",
          "type": "bool"
        }
      ],
      "stateMutability": "view",
      "type": "function"
    },
    {
      "inputs": [
        {
          "internalType": "address",
          "name": "",
          "type": "address"
        }
      ],
      "name": "isValidatorPrevious",
      "outputs": [
        {
          "internalType": "bool",
          "name": "",
          "type": "bool"
        }
      ],
      "stateMutability": "view",
      "type": "function"
    },
    {
      "inputs": [],
      "name": "keyGenHistoryContract",
      "outputs": [
        {
          "internalType": "contract IKeyGenHistory",
          "name": "",
          "type": "address"
        }
      ],
      "stateMutability": "view",
      "type": "function"
    },
    {
      "inputs": [
        {
          "internalType": "address",
          "name": "_miningAddress",
          "type": "address"
        },
        {
          "internalType": "uint256",
          "name": "_blockNumber",
          "type": "uint256"
        }
      ],
      "name": "maliceReportedForBlock",
      "outputs": [
        {
          "internalType": "address[]",
          "name": "",
          "type": "address[]"
        }
      ],
      "stateMutability": "view",
      "type": "function"
    },
    {
      "inputs": [],
      "name": "maxValidators",
      "outputs": [
        {
          "internalType": "uint256",
          "name": "",
          "type": "uint256"
        }
      ],
      "stateMutability": "view",
      "type": "function"
    },
    {
      "inputs": [
        {
          "internalType": "address",
          "name": "",
          "type": "address"
        }
      ],
      "name": "miningByStakingAddress",
      "outputs": [
        {
          "internalType": "address",
          "name": "",
          "type": "address"
        }
      ],
      "stateMutability": "view",
      "type": "function"
    },
    {
      "inputs": [],
      "name": "newValidatorSet",
      "outputs": [],
      "stateMutability": "nonpayable",
      "type": "function"
    },
    {
      "inputs": [
        {
          "internalType": "address",
          "name": "_stakingAddress",
          "type": "address"
        }
      ],
      "name": "notifyUnavailability",
      "outputs": [],
      "stateMutability": "nonpayable",
      "type": "function"
    },
    {
      "inputs": [],
      "name": "owner",
      "outputs": [
        {
          "internalType": "address",
          "name": "",
          "type": "address"
        }
      ],
      "stateMutability": "view",
      "type": "function"
    },
    {
      "inputs": [
        {
          "internalType": "address",
          "name": "_stakingAddress",
          "type": "address"
        }
      ],
      "name": "publicKeyByStakingAddress",
      "outputs": [
        {
          "internalType": "bytes",
          "name": "",
          "type": "bytes"
        }
      ],
      "stateMutability": "view",
      "type": "function"
    },
    {
      "inputs": [],
      "name": "randomContract",
      "outputs": [
        {
          "internalType": "address",
          "name": "",
          "type": "address"
        }
      ],
      "stateMutability": "view",
      "type": "function"
    },
    {
      "inputs": [
        {
          "internalType": "address[]",
          "name": "_miningAddresses",
          "type": "address[]"
        }
      ],
      "name": "removeMaliciousValidators",
      "outputs": [],
      "stateMutability": "nonpayable",
      "type": "function"
    },
    {
      "inputs": [],
      "name": "renounceOwnership",
      "outputs": [],
      "stateMutability": "nonpayable",
      "type": "function"
    },
    {
      "inputs": [
        {
          "internalType": "address",
          "name": "_maliciousMiningAddress",
          "type": "address"
        },
        {
          "internalType": "uint256",
          "name": "_blockNumber",
          "type": "uint256"
        },
        {
          "internalType": "bytes",
          "name": "",
          "type": "bytes"
        }
      ],
      "name": "reportMalicious",
      "outputs": [],
      "stateMutability": "nonpayable",
      "type": "function"
    },
    {
      "inputs": [
        {
          "internalType": "address",
          "name": "_reportingMiningAddress",
          "type": "address"
        },
        {
          "internalType": "address",
          "name": "_maliciousMiningAddress",
          "type": "address"
        },
        {
          "internalType": "uint256",
          "name": "_blockNumber",
          "type": "uint256"
        }
      ],
      "name": "reportMaliciousCallable",
      "outputs": [
        {
          "internalType": "bool",
          "name": "callable",
          "type": "bool"
        },
        {
          "internalType": "bool",
          "name": "removeReportingValidator",
          "type": "bool"
        }
      ],
      "stateMutability": "view",
      "type": "function"
    },
    {
      "inputs": [
        {
          "internalType": "address",
          "name": "",
          "type": "address"
        },
        {
          "internalType": "uint256",
          "name": "",
          "type": "uint256"
        }
      ],
      "name": "reportingCounter",
      "outputs": [
        {
          "internalType": "uint256",
          "name": "",
          "type": "uint256"
        }
      ],
      "stateMutability": "view",
      "type": "function"
    },
    {
      "inputs": [
        {
          "internalType": "uint256",
          "name": "",
          "type": "uint256"
        }
      ],
      "name": "reportingCounterTotal",
      "outputs": [
        {
          "internalType": "uint256",
          "name": "",
          "type": "uint256"
        }
      ],
      "stateMutability": "view",
      "type": "function"
    },
    {
      "inputs": [
        {
          "internalType": "uint256",
          "name": "_banDuration",
          "type": "uint256"
        }
      ],
      "name": "setBanDuration",
      "outputs": [],
      "stateMutability": "nonpayable",
      "type": "function"
    },
    {
      "inputs": [
        {
          "internalType": "address",
          "name": "_address",
          "type": "address"
        }
      ],
      "name": "setBonusScoreSystemAddress",
      "outputs": [],
      "stateMutability": "nonpayable",
      "type": "function"
    },
    {
      "inputs": [
        {
          "internalType": "uint256",
          "name": "_maxValidators",
          "type": "uint256"
        }
      ],
      "name": "setMaxValidators",
      "outputs": [],
      "stateMutability": "nonpayable",
      "type": "function"
    },
    {
      "inputs": [
        {
          "internalType": "address",
          "name": "_miningAddress",
          "type": "address"
        },
        {
          "internalType": "address",
          "name": "_stakingAddress",
          "type": "address"
        }
      ],
      "name": "setStakingAddress",
      "outputs": [],
      "stateMutability": "nonpayable",
      "type": "function"
    },
    {
      "inputs": [
        {
          "internalType": "uint256",
          "name": "_seconds",
          "type": "uint256"
        }
      ],
      "name": "setValidatorInactivityThreshold",
      "outputs": [],
      "stateMutability": "nonpayable",
      "type": "function"
    },
    {
      "inputs": [
        {
          "internalType": "bytes16",
          "name": "_ip",
          "type": "bytes16"
        },
        {
          "internalType": "bytes2",
          "name": "_port",
          "type": "bytes2"
        }
      ],
      "name": "setValidatorInternetAddress",
      "outputs": [],
      "stateMutability": "nonpayable",
      "type": "function"
    },
    {
      "inputs": [
        {
          "internalType": "address",
          "name": "",
          "type": "address"
        }
      ],
      "name": "stakingByMiningAddress",
      "outputs": [
        {
          "internalType": "address",
          "name": "",
          "type": "address"
        }
      ],
      "stateMutability": "view",
      "type": "function"
    },
    {
      "inputs": [],
      "name": "stakingContract",
      "outputs": [
        {
          "internalType": "contract IStakingHbbft",
          "name": "",
          "type": "address"
        }
      ],
      "stateMutability": "view",
      "type": "function"
    },
    {
      "inputs": [
        {
          "internalType": "address",
          "name": "newOwner",
          "type": "address"
        }
      ],
      "name": "transferOwnership",
      "outputs": [],
      "stateMutability": "nonpayable",
      "type": "function"
    },
    {
      "inputs": [
        {
          "internalType": "address",
          "name": "",
          "type": "address"
        }
      ],
      "name": "validatorAvailableSince",
      "outputs": [
        {
          "internalType": "uint256",
          "name": "",
          "type": "uint256"
        }
      ],
      "stateMutability": "view",
      "type": "function"
    },
    {
      "inputs": [
        {
          "internalType": "address",
          "name": "",
          "type": "address"
        }
      ],
      "name": "validatorAvailableSinceLastWrite",
      "outputs": [
        {
          "internalType": "uint256",
          "name": "",
          "type": "uint256"
        }
      ],
      "stateMutability": "view",
      "type": "function"
    },
    {
      "inputs": [
        {
          "internalType": "address",
          "name": "",
          "type": "address"
        }
      ],
      "name": "validatorCounter",
      "outputs": [
        {
          "internalType": "uint256",
          "name": "",
          "type": "uint256"
        }
      ],
      "stateMutability": "view",
      "type": "function"
    },
    {
      "inputs": [],
      "name": "validatorInactivityThreshold",
      "outputs": [
        {
          "internalType": "uint256",
          "name": "",
          "type": "uint256"
        }
      ],
      "stateMutability": "view",
      "type": "function"
    }
  ],
  "bytecode": "0x6080604052348015600f57600080fd5b506016601a565b60ca565b7ff0c57e16840df040f15088dc2f81fe391c3923bec73e23a9662efc9c229c6a00805468010000000000000000900460ff161560695760405163f92ee8a960e01b815260040160405180910390fd5b80546001600160401b039081161460c75780546001600160401b0319166001600160401b0390811782556040519081527fc7f505b2f371ae2175ee4913f4499e1f2633a7b5936321eed1cdaeb6115181d29060200160405180910390a15b50565b6147c1806100d96000396000f3fe608060405234801561001057600080fd5b50600436106103825760003560e01c80639bb2ea5a116101de578063b7ab4db51161010f578063ee99205c116100ad578063f37302061161007c578063f373020614610878578063f51726f01461088b578063facd743b1461089e578063fb64aac1146108c157600080fd5b8063ee99205c14610837578063eebc7a391461084a578063efd0494714610852578063f2fde38b1461086557600080fd5b8063c9e9694d116100e9578063c9e9694d146107c4578063ccf69e9b146107e4578063d2dd2f16146107f7578063ed7cba621461081757600080fd5b8063b7ab4db514610796578063bd0d69bc1461079e578063c476dd40146107b157600080fd5b8063a881c5fd1161017c578063ade1900a11610156578063ade1900a14610748578063b41832e414610750578063b47aef1f14610770578063b56b366b1461078357600080fd5b8063a881c5fd146106dd578063a92252ae14610709578063ac5ba7bc1461073557600080fd5b8063a42bdee9116101b8578063a42bdee914610676578063a49904e514610689578063a670eb5614610690578063a68b5b76146106ba57600080fd5b80639bb2ea5a1461063d5780639d6fc1d114610650578063a0d16cad1461066357600080fd5b80635836d08a116102b8578063752862111161025657806387eed76a1161023057806387eed76a146105c65780638da5cb5b146105e95780638e68dce4146106195780639881933d1461062a57600080fd5b8063752862111461058957806385602ad514610591578063857cdbb8146105a657600080fd5b806360e5c5201161029257806360e5c520146105455780636b949ae814610565578063715018a61461056e578063717662ee1461057657600080fd5b80635836d08a146105155780635ccee1de146105355780635d5fcbce1461053d57600080fd5b80631ee4d0bc11610325578063426d3cd6116102ff578063426d3cd6146104d357806343bcce9f146104dc57806356b54bae146104ef578063581e93d91461050257600080fd5b80631ee4d0bc1461046c5780633755243b146104955780633da74fc6146104c057600080fd5b80630a4c1072116103615780630a4c1072146103f957806314e28d901461040c5780631a7fa2371461042c5780631d0cd4c61461044c57600080fd5b8062535175146103875780630636bdac146103cd57806308ac5256146103e2575b600080fd5b6103b0610395366004613fa9565b600b602052600090815260409020546001600160a01b031681565b6040516001600160a01b0390911681526020015b60405180910390f35b6103e06103db366004614019565b6108d4565b005b6103eb60155481565b6040519081526020016103c4565b6103e061040736600461405b565b610969565b61041f61041a366004613fa9565b61099d565b6040516103c49190614094565b6103eb61043a366004613fa9565b60066020526000908152604090205481565b6103eb61045a366004613fa9565b60046020526000908152604090205481565b6103b061047a366004613fa9565b600f602052600090815260409020546001600160a01b031681565b6103eb6104a33660046140bc565b600d60209081526000928352604080842090915290825290205481565b6018546103b0906001600160a01b031681565b6103eb60165481565b6103e06104ea3660046140e8565b610b86565b6008546103b0906001600160a01b031681565b6103e061051036600461410a565b610cf6565b6103eb610523366004613fa9565b60056020526000908152604090205481565b6103e0610d3a565b6000546103eb565b6103eb610553366004613fa9565b60146020526000908152604090205481565b6103eb60175481565b6103e0610d7e565b6103e0610584366004613fa9565b610d90565b6103e0610df3565b610599610f82565b6040516103c49190614123565b6105b96105b4366004613fa9565b610fe4565b6040516103c49190614194565b6105d96105d4366004613fa9565b611074565b60405190151581526020016103c4565b7f9016d09d72d40fdae2fd8ceac6b6234c7706214fd39c1cd1e609a0528c199300546001600160a01b03166103b0565b6010546001600160a01b03166103b0565b6105b9610638366004613fa9565b611266565b6103e061064b36600461410a565b611299565b6105d961065e366004613fa9565b6112d6565b6105d9610671366004613fa9565b611343565b6103e06106843660046141c7565b61136e565b60016105d9565b6106a361069e366004614230565b611452565b6040805192151583529015156020830152016103c4565b6105d96106c8366004613fa9565b600a6020526000908152604090205460ff1681565b6105d96106eb366004613fa9565b6001600160a01b031660009081526006602052604090205442111590565b6105d9610717366004613fa9565b6001600160a01b031660009081526005602052604090205442111590565b6103e061074336600461410a565b611673565b6103e06116d4565b6103eb61075e366004613fa9565b60126020526000908152604090205481565b6011546103b0906001600160a01b031681565b6105996107913660046140bc565b611e6f565b610599611eee565b6103e06107ac366004613fa9565b611f4e565b6103e06107bf366004614271565b611fcb565b6103eb6107d2366004613fa9565b60076020526000908152604090205481565b600c546103b0906001600160a01b031681565b6103eb61080536600461410a565b600e6020526000908152604090205481565b6103eb610825366004613fa9565b60136020526000908152604090205481565b6010546103b0906001600160a01b031681565b6105996121c2565b6103eb61086036600461410a565b612222565b6103e0610873366004613fa9565b61227f565b6103e06108863660046142fa565b6122ba565b6105d9610899366004613fa9565b612640565b6105d96108ac366004613fa9565b60096020526000908152604090205460ff1681565b6105d96108cf366004613fa9565b612697565b3373fffffffffffffffffffffffffffffffffffffffe14610907576040516282b42960e81b815260040160405180910390fd5b6109658282808060200260200160405190810160405280939291908181526020018383602002808284376000920191909152507f696e61637469766500000000000000000000000000000000000000000000000092506126f5915050565b5050565b6010546001600160a01b03163314610993576040516282b42960e81b815260040160405180910390fd5b6109658282612758565b60006109a882612697565b6109b457506000919050565b60115460408051637be02c2b60e01b8152815160009384936001600160a01b0390911692637be02c2b92600480830193928290030181865afa1580156109fe573d6000803e3d6000fd5b505050506040513d601f19601f82011682018060405250810190610a2291906143c0565b60015491935091506fffffffffffffffffffffffffffffffff83161015610ad7576011546040516399de1a4360e01b81526001600160a01b03868116600483015260009216906399de1a4390602401600060405180830381865afa158015610a8e573d6000803e3d6000fd5b505050506040513d6000823e601f3d908101601f19168201604052610ab6919081019061443a565b90508051600003610acc57506001949350505050565b506002949350505050565b6001546fffffffffffffffffffffffffffffffff82161015610b7c57601154604051631baeec3f60e31b81526001600160a01b0386811660048301529091169063dd7761f890602401602060405180830381865afa158015610b3d573d6000803e3d6000fd5b505050506040513d601f19601f82011682018060405250810190610b6191906144ce565b600003610b72575060039392505050565b5060049392505050565b5060059392505050565b610b8f33612640565b610bac5760405163a82bfa5560e01b815260040160405180910390fd5b438210610bcc576040516341d852df60e01b815260040160405180910390fd5b43610bd88360106144fd565b11610bf6576040516310548f8360e01b815260040160405180910390fd5b80824014610c175760405163fe1864e160e01b815260040160405180910390fd5b336000908152601460209081526040808320429081905560138352818420819055600590925290912054811115610cb857601054336000908152600f602052604090819020549051631ec56e5360e21b81526001600160a01b039182166004820152911690637b15b94c90602401600060405180830381600087803b158015610c9f57600080fd5b505af1158015610cb3573d6000803e3d6000fd5b505050505b60408051338152602081018390527f705d65dbee06de60e6465d68371ce849d5a1ead53e53d01a413b2b01393aa022910160405180910390a1505050565b610cfe6128f6565b60168190556040518181527fd96fea9b050464a608f3e2c09daa82bf1d666bc65655bf9f24b576ad5efc6f6f906020015b60405180910390a150565b6008546001600160a01b03163314610d64576040516282b42960e81b815260040160405180910390fd5b604080516000815260208101909152610d7c90612951565b565b610d866128f6565b610d7c6000613023565b6010546001600160a01b03163314610dba576040516282b42960e81b815260040160405180910390fd5b6001600160a01b039081166000908152600b60209081526040808320549093168252601481528282208290556013905220429055565b50565b6008546001600160a01b03163314610e1d576040516282b42960e81b815260040160405180910390fd5b60015415610e3557610e2d613094565b610e3561316b565b610e3d613310565b610e45613494565b601060009054906101000a90046001600160a01b03166001600160a01b031663ee435f556040518163ffffffff1660e01b8152600401600060405180830381600087803b158015610e9557600080fd5b505af1158015610ea9573d6000803e3d6000fd5b50505050601160009054906101000a90046001600160a01b03166001600160a01b0316632c6f194d6040518163ffffffff1660e01b8152600401600060405180830381600087803b158015610efd57600080fd5b505af1158015610f11573d6000803e3d6000fd5b5050505060016000610f239190613f11565b601054604051638247a23960e01b81524260048201526001600160a01b0390911690638247a23990602401600060405180830381600087803b158015610f6857600080fd5b505af1158015610f7c573d6000803e3d6000fd5b50505050565b60606002805480602002602001604051908101604052809291908181526020018280548015610fda57602002820191906000526020600020905b81546001600160a01b03168152600190910190602001808311610fbc575b5050505050905090565b6010546001600160a01b038281166000908152600f602052604090819020549051634e9b426d60e01b815290821660048201526060929190911690634e9b426d906024015b600060405180830381865afa158015611046573d6000803e3d6000fd5b505050506040513d6000823e601f3d908101601f1916820160405261106e919081019061443a565b92915050565b6001600160a01b038116600090815260096020526040812054819060ff1680156110b557506001600160a01b03831660009081526005602052604090205442115b9050601060009054906101000a90046001600160a01b03166001600160a01b031663794c0c686040518163ffffffff1660e01b8152600401602060405180830381865afa15801561110a573d6000803e3d6000fd5b505050506040513d601f19601f8201168201806040525081019061112e91906144ce565b60000361113b5792915050565b60105460408051634f9a8d8f60e01b815290516005926001600160a01b031691634f9a8d8f9160048083019260209291908290030181865afa158015611185573d6000803e3d6000fd5b505050506040513d601f19601f820116820180604052508101906111a991906144ce565b6111b39190614526565b601060009054906101000a90046001600160a01b03166001600160a01b0316639b03d7446040518163ffffffff1660e01b8152600401602060405180830381865afa158015611206573d6000803e3d6000fd5b505050506040513d601f19601f8201168201806040525081019061122a91906144ce565b611234904261453a565b1161106e576001600160a01b0383166000908152600a602052604090205460ff16818061125e5750805b949350505050565b601054604051634e9b426d60e01b81526001600160a01b0383811660048301526060921690634e9b426d90602401611029565b6112a16128f6565b60158190556040518181527fd3c3674d241eb3fb81da09f8c56bdf72b08c8094de786997b95cde95d0ecfff590602001610d2f565b6001600160a01b038082166000908152600b6020908152604080832054909316808352601490915291812054909190156113135750600092915050565b6001600160a01b038116600090815260136020526040812054611336904261453a565b6017541115949350505050565b6001600160a01b03811660009081526009602052604081205460ff168061106e575061106e82612697565b336000908152600f60205260409020546001600160a01b0316806113ac576040516303a949c760e61b81523360048201526024015b60405180910390fd5b601054604051637b0a0f9b60e01b81526001600160a01b0383811660048301526fffffffffffffffffffffffffffffffff19861660248301527fffff0000000000000000000000000000000000000000000000000000000000008516604483015290911690637b0a0f9b906064015b600060405180830381600087803b15801561143557600080fd5b505af1158015611449573d6000803e3d6000fd5b50505050505050565b60008061145e85611074565b61146d5750600090508061166b565b61147684611074565b6114855750600090508061166b565b60005460018111156115985760105460408051630f29818d60e31b815290516000926001600160a01b03169163794c0c689160048083019260209291908290030181865afa1580156114db573d6000803e3d6000fd5b505050506040513d601f19601f820116820180604052508101906114ff91906144ce565b6001600160a01b0388166000908152600d60209081526040808320848452825280832054600e90925282205492935091908282106115645761154260018661453a565b61154c848461453a565b61155790600a61454d565b6115619190614526565b90505b61156f85603261454d565b8311801561157c57508083115b15611593576000600196509650505050505061166b565b505050505b43808511156115af5760008093509350505061166b565b606480821180156115c857506115c5818361453a565b86105b156115dc576000809450945050505061166b565b6001600160a01b03871660009081526003602090815260408083208984529091528120805490915b8181101561165c578a6001600160a01b031683828154811061162857611628614564565b6000918252602090912001546001600160a01b031603611654576000809750975050505050505061166b565b600101611604565b50600160009650965050505050505b935093915050565b61167b6128f6565b62093a8081101561169f57604051635d9561d360e11b815260040160405180910390fd5b60178190556040518181527f578d5da2255dc6640f3ba0d8ce1bc20877ca696956ebe3c333a3eb8f49fb395f90602001610d2f565b6008546001600160a01b031633146116fe576040516282b42960e81b815260040160405180910390fd5b601060009054906101000a90046001600160a01b03166001600160a01b03166322e3d9866040518163ffffffff1660e01b8152600401602060405180830381865afa158015611751573d6000803e3d6000fd5b505050506040513d601f19601f8201168201806040525081019061177591906144ce565b4210156117955760405163112bb3df60e11b815260040160405180910390fd5b601060009054906101000a90046001600160a01b03166001600160a01b031663a5d54f656040518163ffffffff1660e01b8152600401600060405180830381865afa1580156117e8573d6000803e3d6000fd5b505050506040513d6000823e601f3d908101601f19168201604052611810919081019061459e565b5115610d7c5760015415610d7c576001805460009161182e9161453a565b67ffffffffffffffff811115611846576118466143f3565b60405190808252806020026020018201604052801561186f578160200160208202803683370190505b50905060008080601160009054906101000a90046001600160a01b03166001600160a01b0316637be02c2b6040518163ffffffff1660e01b81526004016040805180830381865afa1580156118c8573d6000803e3d6000fd5b505050506040513d601f19601f820116820180604052508101906118ec91906143c0565b9150915060005b600154811015611c085760006001828154811061191257611912614564565b60009182526020822001546001546001600160a01b0390911692506fffffffffffffffffffffffffffffffff861610156119c2576011546040516399de1a4360e01b81526001600160a01b03848116600483015260009216906399de1a4390602401600060405180830381865afa158015611991573d6000803e3d6000fd5b505050506040513d6000823e601f3d908101601f191682016040526119b9919081019061443a565b51119050611a51565b6001546fffffffffffffffffffffffffffffffff85161015611a5157601154604051631baeec3f60e31b81526001600160a01b038481166004830152600092169063dd7761f890602401602060405180830381865afa158015611a29573d6000803e3d6000fd5b505050506040513d601f19601f82011682018060405250810190611a4d91906144ce565b1190505b8015611ac45760018381548110611a6a57611a6a614564565b9060005260206000200160009054906101000a90046001600160a01b0316878781518110611a9a57611a9a614564565b6001600160a01b039092166020928302919091019091015285611abc81614632565b965050611bfe565b601854604051632bdfe5f760e11b81526001600160a01b038481166004830152909116906357bfcbee90602401600060405180830381600087803b158015611b0b57600080fd5b505af1158015611b1f573d6000803e3d6000fd5b50506010546001600160a01b038581166000908152600f602052604090819020549051631dbe84a360e11b8152908216600482015291169250633b7d09469150602401600060405180830381600087803b158015611b7c57600080fd5b505af1158015611b90573d6000803e3d6000fd5b5050506001600160a01b03831660009081526014602090815260408083208390556013909152902042905550604080516001600160a01b03841681524260208201527f7ec36d1734626f8b3686f8791130187e1633c843b1995003e788cd2b33d56903910160405180910390a15b50506001016118f3565b50601154604051632f8ba4bf60e11b81526001600160a01b0390911690635f17497e90611c3a9060019060040161464b565b600060405180830381600087803b158015611c5457600080fd5b505af1158015611c68573d6000803e3d6000fd5b50505050601160009054906101000a90046001600160a01b03166001600160a01b031663adddc0cf6040518163ffffffff1660e01b8152600401600060405180830381600087803b158015611cbc57600080fd5b505af1158015611cd0573d6000803e3d6000fd5b5050505060008367ffffffffffffffff811115611cef57611cef6143f3565b604051908082528060200260200182016040528015611d18578160200160208202803683370190505b50905060005b84811015611d7257858181518110611d3857611d38614564565b6020026020010151828281518110611d5257611d52614564565b6001600160a01b0390921660209283029190910190910152600101611d1e565b50601060009054906101000a90046001600160a01b03166001600160a01b031663adddc0cf6040518163ffffffff1660e01b8152600401600060405180830381600087803b158015611dc357600080fd5b505af1158015611dd7573d6000803e3d6000fd5b505050506000601060009054906101000a90046001600160a01b03166001600160a01b031663a5d54f656040518163ffffffff1660e01b8152600401600060405180830381865afa158015611e30573d6000803e3d6000fd5b505050506040513d6000823e601f3d908101601f19168201604052611e58919081019061459e565b511115611e6857611e6881612951565b5050505050565b6001600160a01b0382166000908152600360209081526040808320848452825291829020805483518184028101840190945280845260609392830182828015611ee157602002820191906000526020600020905b81546001600160a01b03168152600190910190602001808311611ec3575b5050505050905092915050565b60606000805480602002602001604051908101604052809291908181526020018280548015610fda576020028201919060005260206000209081546001600160a01b03168152600190910190602001808311610fbc575050505050905090565b611f566128f6565b6001600160a01b038116611f7d5760405163d92e233d60e01b815260040160405180910390fd5b601880546001600160a01b0319166001600160a01b0383169081179091556040519081527fd4244d1f8acb4860e17399636c6b7875c75656aafb5cb3d0163d7305eace717290602001610d2f565b33611fd5816135f4565b600080611fe3838888611452565b915091508161206357801561205b5760408051600180825281830190925260009160208083019080368337019050509050838160008151811061202857612028614564565b60200260200101906001600160a01b031690816001600160a01b03168152505061205981637370616d60e01b6126f5565b505b505050610f7c565b6001600160a01b0387811660008181526003602090815260408083208b8452825280832080546001810182558185529383902090930180546001600160a01b0319169589169586179055805194855290840192909252908201889052907f729a19138e072a5a8d3a56d74ae0b5c84530f09aacd6e12b24c5b2fdc3f8a3d09060600160405180910390a16000805490600382111561211b5761210682600261454d565b835461211390600361454d565b11905061212e565b8254829061212a90600261454d565b1190505b80156121b657604080516001808252818301909252600091602080830190803683370190505090508a8160008151811061216a5761216a614564565b60200260200101906001600160a01b031690816001600160a01b0316815250506121b4817f6d616c6963696f757300000000000000000000000000000000000000000000006126f5565b505b50505050505050505050565b60606001805480602002602001604051908101604052809291908181526020018280548015610fda576020028201919060005260206000209081546001600160a01b03168152600190910190602001808311610fbc575050505050905090565b6000816000036122455760405163a63671a560e01b815260040160405180910390fd5b6004821015612252575090565b600361225f60018461453a565b6122699190614526565b61227490600361454d565b61106e9060016144fd565b6122876128f6565b6001600160a01b0381166122b157604051631e4fbdf760e01b8152600060048201526024016113a3565b610df081613023565b7ff0c57e16840df040f15088dc2f81fe391c3923bec73e23a9662efc9c229c6a00805468010000000000000000810460ff16159067ffffffffffffffff166000811580156123055750825b905060008267ffffffffffffffff1660011480156123225750303b155b905081158015612330575080155b1561234e5760405163f92ee8a960e01b815260040160405180910390fd5b845467ffffffffffffffff19166001178555831561238257845468ff00000000000000001916680100000000000000001785555b61238b8a6136cc565b6001600160a01b038b166123b25760405163d92e233d60e01b815260040160405180910390fd5b60008890036123d4576040516322b8b72360e21b815260040160405180910390fd5b8786146123f45760405163ac9e459360e01b815260040160405180910390fd5b6123fd8b61378f565b61240a60208b018b613fa9565b600880546001600160a01b0319166001600160a01b039290921691909117905561243a60408b0160208c01613fa9565b600c80546001600160a01b0319166001600160a01b039290921691909117905561246a60608b0160408c01613fa9565b601080546001600160a01b0319166001600160a01b039290921691909117905561249a60808b0160608c01613fa9565b601180546001600160a01b0319166001600160a01b03929092169190911790556124ca60a08b0160808c01613fa9565b601880546001600160a01b0319166001600160a01b039290921691909117905560a08a013560175560005b888110156125de5760008a8a8381811061251157612511614564565b90506020020160208101906125269190613fa9565b60008054600180820183557f290decd9548b62a8d60345a988386fc84ba6bc95484008f6362f93160ef3e56390910180546001600160a01b0319166001600160a01b0385169081179091558252600960209081526040808420805460ff19169093179092556012905281208054929350906125a083614632565b91905055506125d5818a8a858181106125bb576125bb614564565b90506020020160208101906125d09190613fa9565b612758565b506001016124f5565b506019601555600c60165583156121b457845468ff000000000000000019168555604051600181527fc7f505b2f371ae2175ee4913f4499e1f2633a7b5936321eed1cdaeb6115181d29060200160405180910390a15050505050505050505050565b6001600160a01b038181166000908152600f602052604081205490911661266957506000919050565b6001600160a01b0382166000908152601460205260409020541561268f57506000919050565b506001919050565b600154600090815b818110156126eb57600181815481106126ba576126ba614564565b6000918252602090912001546001600160a01b03908116908516036126e3575060019392505050565b60010161269f565b5060009392505050565b60005b82518110156127535761272483828151811061271657612716614564565b6020026020010151836137a0565b1561274b5761274b83828151811061273e5761273e614564565b60200260200101516139cf565b6001016126f8565b505050565b6001600160a01b03821661277f5760405163d92e233d60e01b815260040160405180910390fd5b6001600160a01b0381166127a65760405163d92e233d60e01b815260040160405180910390fd5b806001600160a01b0316826001600160a01b0316036127d8576040516307d9394560e01b815260040160405180910390fd5b6001600160a01b038181166000908152600b60205260409020541615158061281957506001600160a01b038181166000908152600f60205260409020541615155b15612842576040516326d65e0360e21b81526001600160a01b03821660048201526024016113a3565b6001600160a01b038281166000908152600b60205260409020541615158061288357506001600160a01b038281166000908152600f60205260409020541615155b156128ac5760405163342ed6a360e01b81526001600160a01b03831660048201526024016113a3565b6001600160a01b039081166000818152600b602090815260408083208054959096166001600160a01b03199586168117909655948252600f90529290922080549091169091179055565b336129287f9016d09d72d40fdae2fd8ceac6b6234c7706214fd39c1cd1e609a0528c199300546001600160a01b031690565b6001600160a01b031614610d7c5760405163118cdaa760e01b81523360048201526024016113a3565b6010546040805163a5d54f6560e01b815290516000926001600160a01b03169163a5d54f6591600480830192869291908290030181865afa15801561299a573d6000803e3d6000fd5b505050506040513d6000823e601f3d908101601f191682016040526129c2919081019061459e565b9050600060155482511015806129d757508151155b6129ea576129e58251612222565b6129ee565b6015545b90508082511115612e295781516010546040805163957950a760e01b8152905160009283926001600160a01b039091169163957950a79160048082019286929091908290030181865afa158015612a49573d6000803e3d6000fd5b505050506040513d6000823e601f3d908101601f19168201604052612a71919081019061468f565b9150915060008467ffffffffffffffff811115612a9057612a906143f3565b604051908082528060200260200182016040528015612ab9578160200160208202803683370190505b5090506000805b8851811015612c3e5760005b86811015612c3557898281518110612ae657612ae6614564565b60200260200101516001600160a01b0316898281518110612b0957612b09614564565b60200260200101516001600160a01b031603612c2d57898281518110612b3157612b31614564565b6020026020010151848481518110612b4b57612b4b614564565b6001600160a01b039092166020928302919091019091015282612b6d81614632565b935050858181518110612b8257612b82614564565b602002602001015185612b95919061453a565b945086612ba181614728565b975050888781518110612bb657612bb6614564565b6020026020010151898281518110612bd057612bd0614564565b60200260200101906001600160a01b031690816001600160a01b031681525050858781518110612c0257612c02614564565b6020026020010151868281518110612c1c57612c1c614564565b602002602001018181525050612c35565b600101612acc565b50600101612ac0565b50600c5460408051634191031360e11b815290516000926001600160a01b03169163832206269160048083019260209291908290030181865afa158015612c89573d6000803e3d6000fd5b505050506040513d601f19601f82011682018060405250810190612cad91906144ce565b905060008551118015612cc05750600084115b15612e1e5760005b8351811015612e1457604080514284186020820152016040516020818303038152906040528051906020012060001c91506000612d06878785613ab6565b9050898181518110612d1a57612d1a614564565b6020026020010151858381518110612d3457612d34614564565b60200260200101906001600160a01b031690816001600160a01b031681525050868181518110612d6657612d66614564565b602002602001015186612d79919061453a565b955087612d8581614728565b985050898881518110612d9a57612d9a614564565b60200260200101518a8281518110612db457612db4614564565b60200260200101906001600160a01b031690816001600160a01b031681525050868881518110612de657612de6614564565b6020026020010151878281518110612e0057612e00614564565b602090810291909101015250600101612cc8565b50612e1e83613b1f565b505050505050612e32565b612e3282613b1f565b601154604051632f8ba4bf60e11b81526001600160a01b0390911690635f17497e90612e639060009060040161464b565b600060405180830381600087803b158015612e7d57600080fd5b505af1158015612e91573d6000803e3d6000fd5b505050508151600014612f0757601060009054906101000a90046001600160a01b03166001600160a01b0316631555371c6040518163ffffffff1660e01b8152600401600060405180830381600087803b158015612eee57600080fd5b505af1158015612f02573d6000803e3d6000fd5b505050505b601060009054906101000a90046001600160a01b03166001600160a01b03166322e3d9866040518163ffffffff1660e01b8152600401602060405180830381865afa158015612f5a573d6000803e3d6000fd5b505050506040513d601f19601f82011682018060405250810190612f7e91906144ce565b4211156127535760105460408051631171ecc360e11b815290516001600160a01b0390921691639e72c6359183916322e3d986916004808201926020929091908290030181865afa158015612fd7573d6000803e3d6000fd5b505050506040513d601f19601f82011682018060405250810190612ffb91906144ce565b613005904261453a565b6040518263ffffffff1660e01b815260040161141b91815260200190565b7f9016d09d72d40fdae2fd8ceac6b6234c7706214fd39c1cd1e609a0528c19930080546001600160a01b031981166001600160a01b03848116918217845560405192169182907f8be0079c531659141344cd1fd0a4f28419497f9722a3daafe3b4186f6b6457e090600090a3505050565b60025460005b818110156130f7576000600a6000600284815481106130bb576130bb614564565b6000918252602080832091909101546001600160a01b031683528201929092526040019020805460ff191691151591909117905560010161309a565b505060008054905b8181101561315b576001600a600080848154811061311f5761311f614564565b6000918252602080832091909101546001600160a01b031683528201929092526040019020805460ff19169115159190911790556001016130ff565b6000805461275391600291613f2f565b60606000808054806020026020016040519081016040528092919081815260200182805480156131c457602002820191906000526020600020905b81546001600160a01b031681526001909101906020018083116131a6575b50505050509150600090505b815181101561322b576000600960008484815181106131f1576131f1614564565b6020908102919091018101516001600160a01b03168252810191909152604001600020805460ff19169115159190911790556001016131d0565b6001805461323b91600091613f2f565b50600080548060200260200160405190810160405280929190818152602001828054801561329257602002820191906000526020600020905b81546001600160a01b03168152600190910190602001808311613274575b50505050509150600090505b81518110156109655760008282815181106132bb576132bb614564565b6020908102919091018101516001600160a01b0381166000908152600983526040808220805460ff1916600117905560129093529182208054919350909161330283614632565b90915550505060010161329e565b6010546040805163a5d54f6560e01b815290516000926001600160a01b03169163a5d54f6591600480830192869291908290030181865afa158015613359573d6000803e3d6000fd5b505050506040513d6000823e601f3d908101601f19168201604052613381919081019061459e565b805190915060005b81811015612753576000600b60008584815181106133a9576133a9614564565b6020908102919091018101516001600160a01b039081168352828201939093526040918201600090812054909316808452600990915291205490915060ff168061340957506001600160a01b038116600090815260146020526040902054155b15613414575061348c565b6018546001600160a01b03828116600081815260146020526040908190205490516392f2944360e01b8152600481019290925260248201529116906392f2944390604401600060405180830381600087803b15801561347257600080fd5b505af1158015613486573d6000803e3d6000fd5b50505050505b600101613389565b6010546040805163df6f55f560e01b815290516000926001600160a01b03169163df6f55f591600480830192869291908290030181865afa1580156134dd573d6000803e3d6000fd5b505050506040513d6000823e601f3d908101601f19168201604052613505919081019061459e565b805190915060005b81811015612753576000600b600085848151811061352d5761352d614564565b6020908102919091018101516001600160a01b03908116835282820193909352604091820160009081205490931680845260149091529120549091501561357457506135ec565b6018546001600160a01b03828116600081815260136020526040908190205490516351150d5760e01b8152600481019290925260248201529116906351150d5790604401600060405180830381600087803b1580156135d257600080fd5b505af11580156135e6573d6000803e3d6000fd5b50505050505b60010161350d565b6135fd81611074565b6136045750565b60105460408051630f29818d60e31b815290516000926001600160a01b03169163794c0c689160048083019260209291908290030181865afa15801561364e573d6000803e3d6000fd5b505050506040513d601f19601f8201168201806040525081019061367291906144ce565b6001600160a01b0383166000908152600d6020908152604080832084845290915281208054929350906136a483614632565b90915550506000818152600e602052604081208054916136c383614632565b91905055505050565b60006136db6020830183613fa9565b6001600160a01b03161480613708575060006136fd6040830160208401613fa9565b6001600160a01b0316145b8061372b575060006137206060830160408401613fa9565b6001600160a01b0316145b8061374e575060006137436080830160608401613fa9565b6001600160a01b0316145b806137715750600061376660a0830160808401613fa9565b6001600160a01b0316145b15610df05760405163d92e233d60e01b815260040160405180910390fd5b613797613d9b565b610df081613de9565b6001600160a01b038216600090815260056020526040812054421115816137c5613df1565b6001600160a01b03861660009081526004602052604081208054929350906137ec83614632565b90915550506001600160a01b038516600090815260056020908152604080832084905560079091529020849055811561382a5760009250505061106e565b6001600160a01b038581166000908152600660209081526040808320859055600f90915290819020546010549151631dbe84a360e11b815290831660048201819052929190911690633b7d094690602401600060405180830381600087803b15801561389557600080fd5b505af11580156138a9573d6000803e3d6000fd5b505060005491505060018190036138c757600094505050505061106e565b60005b818110156139c157876001600160a01b0316600082815481106138ef576138ef614564565b6000918252602090912001546001600160a01b0316036139b957600061391660018461453a565b8154811061392657613926614564565b600091825260208220015481546001600160a01b0390911691908390811061395057613950614564565b6000918252602082200180546001600160a01b0319166001600160a01b0393909316929092179091558054806139885761398861473f565b600082815260209020810160001990810180546001600160a01b0319169055019055506001945061106e9350505050565b6001016138ca565b506000979650505050505050565b60105460408051630f29818d60e31b815290516000926001600160a01b03169163794c0c689160048083019260209291908290030181865afa158015613a19573d6000803e3d6000fd5b505050506040513d601f19601f82011682018060405250810190613a3d91906144ce565b6000818152600e60209081526040808320546001600160a01b0387168452600d835281842085855290925282208054929055919250808210613aa2576000838152600e602052604081208054839290613a9790849061453a565b90915550610f7c9050565b50506000908152600e602052604081205550565b600080613ac38484614755565b90506000805b828211613b0957868181518110613ae257613ae2614564565b602002602001015182613af591906144fd565b915080613b0181614632565b915050613ac9565b613b1460018261453a565b979650505050505050565b613b2b60016000613f11565b8051600003613d1f5760008054905b81811015613cc0576000808281548110613b5657613b56614564565b6000918252602080832091909101546001600160a01b03908116808452600f90925260409283902054601054935163a711e6a160e01b8152908216600482018190529294509192169063a711e6a190602401602060405180830381865afa158015613bc5573d6000803e3d6000fd5b505050506040513d601f19601f82011682018060405250810190613be99190614769565b8015613c66575060105460405162e9ab0360e81b81526001600160a01b038381166004830181905260248301529091169063e9ab030090604401602060405180830381865afa158015613c40573d6000803e3d6000fd5b505050506040513d601f19601f82011682018060405250810190613c6491906144ce565b155b15613cb6576001805480820182556000919091527fb10e2d527612073b26eecdfd717e6a320cf44b4afac2b0732d9fcbe2b7fa0cf60180546001600160a01b0319166001600160a01b0384161790555b5050600101613b3a565b5060015460000361096557600160008081548110613ce057613ce0614564565b60009182526020808320909101548354600181018555938352912090910180546001600160a01b0319166001600160a01b039092169190911790555050565b805160005b81811015612753576001600b6000858481518110613d4457613d44614564565b6020908102919091018101516001600160a01b0390811683528282019390935260409091016000908120548454600181810187559583529290912090910180546001600160a01b0319169190921617905501613d24565b7ff0c57e16840df040f15088dc2f81fe391c3923bec73e23a9662efc9c229c6a005468010000000000000000900460ff16610d7c57604051631afcd79f60e31b815260040160405180910390fd5b612287613d9b565b60105460408051631171ecc360e11b815290516000924292849284926001600160a01b0316916322e3d9869160048083019260209291908290030181865afa158015613e41573d6000803e3d6000fd5b505050506040513d601f19601f82011682018060405250810190613e6591906144ce565b613e6f919061453a565b905080601060009054906101000a90046001600160a01b03166001600160a01b0316634f9a8d8f6040518163ffffffff1660e01b8152600401602060405180830381865afa158015613ec5573d6000803e3d6000fd5b505050506040513d601f19601f82011682018060405250810190613ee991906144ce565b601654613ef6919061454d565b613f0090846144fd565b613f0a91906144fd565b9250505090565b5080546000825590600052602060002090810190610df09190613f7f565b828054828255906000526020600020908101928215613f6f5760005260206000209182015b82811115613f6f578254825591600101919060010190613f54565b50613f7b929150613f7f565b5090565b5b80821115613f7b5760008155600101613f80565b6001600160a01b0381168114610df057600080fd5b600060208284031215613fbb57600080fd5b8135613fc681613f94565b9392505050565b60008083601f840112613fdf57600080fd5b50813567ffffffffffffffff811115613ff757600080fd5b6020830191508360208260051b850101111561401257600080fd5b9250929050565b6000806020838503121561402c57600080fd5b823567ffffffffffffffff81111561404357600080fd5b61404f85828601613fcd565b90969095509350505050565b6000806040838503121561406e57600080fd5b823561407981613f94565b9150602083013561408981613f94565b809150509250929050565b60208101600683106140b657634e487b7160e01b600052602160045260246000fd5b91905290565b600080604083850312156140cf57600080fd5b82356140da81613f94565b946020939093013593505050565b600080604083850312156140fb57600080fd5b50508035926020909101359150565b60006020828403121561411c57600080fd5b5035919050565b6020808252825182820181905260009190848201906040850190845b818110156141645783516001600160a01b03168352928401929184019160010161413f565b50909695505050505050565b60005b8381101561418b578181015183820152602001614173565b50506000910152565b60208152600082518060208401526141b3816040850160208701614170565b601f01601f19169190910160400192915050565b600080604083850312156141da57600080fd5b82356fffffffffffffffffffffffffffffffff19811681146141fb57600080fd5b915060208301357fffff0000000000000000000000000000000000000000000000000000000000008116811461408957600080fd5b60008060006060848603121561424557600080fd5b833561425081613f94565b9250602084013561426081613f94565b929592945050506040919091013590565b6000806000806060858703121561428757600080fd5b843561429281613f94565b935060208501359250604085013567ffffffffffffffff808211156142b657600080fd5b818701915087601f8301126142ca57600080fd5b8135818111156142d957600080fd5b8860208285010111156142eb57600080fd5b95989497505060200194505050565b60008060008060008086880361012081121561431557600080fd5b873561432081613f94565b965060c0601f198201121561433457600080fd5b5060208701945060e087013567ffffffffffffffff8082111561435657600080fd5b6143628a838b01613fcd565b909650945061010089013591508082111561437c57600080fd5b5061438989828a01613fcd565b979a9699509497509295939492505050565b80516fffffffffffffffffffffffffffffffff811681146143bb57600080fd5b919050565b600080604083850312156143d357600080fd5b6143dc8361439b565b91506143ea6020840161439b565b90509250929050565b634e487b7160e01b600052604160045260246000fd5b604051601f8201601f1916810167ffffffffffffffff81118282101715614432576144326143f3565b604052919050565b60006020828403121561444c57600080fd5b815167ffffffffffffffff8082111561446457600080fd5b818401915084601f83011261447857600080fd5b81518181111561448a5761448a6143f3565b61449d601f8201601f1916602001614409565b91508082528560208285010111156144b457600080fd5b6144c5816020840160208601614170565b50949350505050565b6000602082840312156144e057600080fd5b5051919050565b634e487b7160e01b600052601160045260246000fd5b8082018082111561106e5761106e6144e7565b634e487b7160e01b600052601260045260246000fd5b60008261453557614535614510565b500490565b8181038181111561106e5761106e6144e7565b808202811582820484141761106e5761106e6144e7565b634e487b7160e01b600052603260045260246000fd5b600067ffffffffffffffff821115614594576145946143f3565b5060051b60200190565b600060208083850312156145b157600080fd5b825167ffffffffffffffff8111156145c857600080fd5b8301601f810185136145d957600080fd5b80516145ec6145e78261457a565b614409565b81815260059190911b8201830190838101908783111561460b57600080fd5b928401925b82841015613b1457835161462381613f94565b82529284019290840190614610565b600060018201614644576146446144e7565b5060010190565b6020808252825482820181905260008481528281209092916040850190845b818110156141645783546001600160a01b03168352600193840193928501920161466a565b600080604083850312156146a257600080fd5b825167ffffffffffffffff8111156146b957600080fd5b8301601f810185136146ca57600080fd5b805160206146da6145e78361457a565b82815260059290921b830181019181810190888411156146f957600080fd5b938201935b83851015614717578451825293820193908201906146fe565b969091015195979596505050505050565b600081614737576147376144e7565b506000190190565b634e487b7160e01b600052603160045260246000fd5b60008261476457614764614510565b500690565b60006020828403121561477b57600080fd5b81518015158114613fc657600080fdfea2646970667358221220c064a320bc57530cd297279f4782ec33bd2e2aec2d44c3d9d666781797556af664736f6c63430008190033",
  "linkReferences": {},
  "deployedLinkReferences": {}
}