{
  "_format": "hh-sol-artifact-1",
  "contractName": "ValidatorSetHbbftMock",
  "sourceName": "contracts/mockContracts/ValidatorSetHbbftMock.sol",
  "abi": [
    {
      "inputs": [],
      "name": "AnnounceBlockNumberTooOld",
      "type": "error"
    },
    {
      "inputs": [],
      "name": "CantAnnounceAvailability",
      "type": "error"
    },
    {
      "inputs": [],
      "name": "EpochNotYetzFinished",
      "type": "error"
    },
    {
      "inputs": [],
      "name": "InitialAddressesLengthMismatch",
      "type": "error"
    },
    {
      "inputs": [],
      "name": "InitialValidatorsEmpty",
      "type": "error"
    },
    {
      "inputs": [],
      "name": "InvalidAddressPair",
      "type": "error"
    },
    {
      "inputs": [],
      "name": "InvalidAnnounceBlockHash",
      "type": "error"
    },
    {
      "inputs": [],
      "name": "InvalidAnnounceBlockNumber",
      "type": "error"
    },
    {
      "inputs": [],
      "name": "InvalidInactivityThreshold",
      "type": "error"
    },
    {
      "inputs": [],
      "name": "InvalidInitialization",
      "type": "error"
    },
    {
      "inputs": [],
      "name": "InvalidPossibleValidatorCount",
      "type": "error"
    },
    {
      "inputs": [
        {
          "internalType": "address",
          "name": "_value",
          "type": "address"
        }
      ],
      "name": "MiningAddressAlreadyUsed",
      "type": "error"
    },
    {
      "inputs": [],
      "name": "NotInitializing",
      "type": "error"
    },
    {
      "inputs": [
        {
          "internalType": "address",
          "name": "owner",
          "type": "address"
        }
      ],
      "name": "OwnableInvalidOwner",
      "type": "error"
    },
    {
      "inputs": [
        {
          "internalType": "address",
          "name": "account",
          "type": "address"
        }
      ],
      "name": "OwnableUnauthorizedAccount",
      "type": "error"
    },
    {
      "inputs": [
        {
          "internalType": "address",
          "name": "_value",
          "type": "address"
        }
      ],
      "name": "StakingAddressAlreadyUsed",
      "type": "error"
    },
    {
      "inputs": [
        {
          "internalType": "address",
          "name": "_mining",
          "type": "address"
        }
      ],
      "name": "StakingPoolNotExist",
      "type": "error"
    },
    {
      "inputs": [],
      "name": "Unauthorized",
      "type": "error"
    },
    {
      "inputs": [],
      "name": "ValidatorsListEmpty",
      "type": "error"
    },
    {
      "inputs": [],
      "name": "ZeroAddress",
      "type": "error"
    },
    {
      "anonymous": false,
      "inputs": [
        {
          "indexed": false,
          "internalType": "uint64",
          "name": "version",
          "type": "uint64"
        }
      ],
      "name": "Initialized",
      "type": "event"
    },
    {
      "anonymous": false,
      "inputs": [
        {
          "indexed": true,
          "internalType": "address",
          "name": "previousOwner",
          "type": "address"
        },
        {
          "indexed": true,
          "internalType": "address",
          "name": "newOwner",
          "type": "address"
        }
      ],
      "name": "OwnershipTransferred",
      "type": "event"
    },
    {
      "anonymous": false,
      "inputs": [
        {
          "indexed": false,
          "internalType": "address",
          "name": "_address",
          "type": "address"
        }
      ],
      "name": "SetBonusScoreContract",
      "type": "event"
    },
    {
      "anonymous": false,
      "inputs": [
        {
          "indexed": false,
          "internalType": "uint256",
          "name": "_count",
          "type": "uint256"
        }
      ],
      "name": "SetMaxValidators",
      "type": "event"
    },
    {
      "anonymous": false,
      "inputs": [
        {
          "indexed": false,
          "internalType": "uint256",
          "name": "_value",
          "type": "uint256"
        }
      ],
      "name": "SetValidatorInactivityThreshold",
      "type": "event"
    },
    {
      "anonymous": false,
      "inputs": [
        {
          "indexed": false,
          "internalType": "address",
          "name": "validator",
          "type": "address"
        },
        {
          "indexed": false,
          "internalType": "uint256",
          "name": "timestamp",
          "type": "uint256"
        }
      ],
      "name": "ValidatorAvailable",
      "type": "event"
    },
    {
      "anonymous": false,
      "inputs": [
        {
          "indexed": false,
          "internalType": "address",
          "name": "validator",
          "type": "address"
        },
        {
          "indexed": false,
          "internalType": "uint256",
          "name": "timestamp",
          "type": "uint256"
        }
      ],
      "name": "ValidatorUnavailable",
      "type": "event"
    },
    {
      "inputs": [
        {
          "internalType": "address",
          "name": "",
          "type": "address"
        }
      ],
      "name": "_unused2",
      "outputs": [
        {
          "internalType": "uint256",
          "name": "",
          "type": "uint256"
        }
      ],
      "stateMutability": "view",
      "type": "function"
    },
    {
      "inputs": [
        {
          "internalType": "address",
          "name": "",
          "type": "address"
        }
      ],
      "name": "_unused3",
      "outputs": [
        {
          "internalType": "uint256",
          "name": "",
          "type": "uint256"
        }
      ],
      "stateMutability": "view",
      "type": "function"
    },
    {
      "inputs": [
        {
          "internalType": "address",
          "name": "",
          "type": "address"
        }
      ],
      "name": "_unused4",
      "outputs": [
        {
          "internalType": "uint256",
          "name": "",
          "type": "uint256"
        }
      ],
      "stateMutability": "view",
      "type": "function"
    },
    {
      "inputs": [
        {
          "internalType": "address",
          "name": "",
          "type": "address"
        }
      ],
      "name": "_unused5",
      "outputs": [
        {
          "internalType": "bytes32",
          "name": "",
          "type": "bytes32"
        }
      ],
      "stateMutability": "view",
      "type": "function"
    },
    {
      "inputs": [
        {
          "internalType": "address",
          "name": "",
          "type": "address"
        },
        {
          "internalType": "uint256",
          "name": "",
          "type": "uint256"
        }
      ],
      "name": "_unused6",
      "outputs": [
        {
          "internalType": "uint256",
          "name": "",
          "type": "uint256"
        }
      ],
      "stateMutability": "view",
      "type": "function"
    },
    {
      "inputs": [
        {
          "internalType": "uint256",
          "name": "",
          "type": "uint256"
        }
      ],
      "name": "_unused7",
      "outputs": [
        {
          "internalType": "uint256",
          "name": "",
          "type": "uint256"
        }
      ],
      "stateMutability": "view",
      "type": "function"
    },
    {
      "inputs": [],
      "name": "_unused8",
      "outputs": [
        {
          "internalType": "uint256",
          "name": "",
          "type": "uint256"
        }
      ],
      "stateMutability": "view",
      "type": "function"
    },
    {
      "inputs": [
        {
          "internalType": "uint256",
          "name": "_blockNumber",
          "type": "uint256"
        },
        {
          "internalType": "bytes32",
          "name": "_blockhash",
          "type": "bytes32"
        }
      ],
      "name": "announceAvailability",
      "outputs": [],
      "stateMutability": "nonpayable",
      "type": "function"
    },
    {
      "inputs": [],
      "name": "blockRewardContract",
      "outputs": [
        {
          "internalType": "address",
          "name": "",
          "type": "address"
        }
      ],
      "stateMutability": "view",
      "type": "function"
    },
    {
      "inputs": [],
      "name": "bonusScoreSystem",
      "outputs": [
        {
          "internalType": "contract IBonusScoreSystem",
          "name": "",
          "type": "address"
        }
      ],
      "stateMutability": "view",
      "type": "function"
    },
    {
      "inputs": [
        {
          "internalType": "address",
          "name": "_miningAddress",
          "type": "address"
        }
      ],
      "name": "canCallAnnounceAvailability",
      "outputs": [
        {
          "internalType": "bool",
          "name": "",
          "type": "bool"
        }
      ],
      "stateMutability": "view",
      "type": "function"
    },
    {
      "inputs": [],
      "name": "finalizeChange",
      "outputs": [],
      "stateMutability": "nonpayable",
      "type": "function"
    },
    {
      "inputs": [],
      "name": "forceFinalizeNewValidators",
      "outputs": [],
      "stateMutability": "nonpayable",
      "type": "function"
    },
    {
      "inputs": [],
      "name": "getCurrentValidatorsCount",
      "outputs": [
        {
          "internalType": "uint256",
          "name": "",
          "type": "uint256"
        }
      ],
      "stateMutability": "view",
      "type": "function"
    },
    {
      "inputs": [
        {
          "internalType": "address",
          "name": "_miningAddress",
          "type": "address"
        }
      ],
      "name": "getPendingValidatorKeyGenerationMode",
      "outputs": [
        {
          "internalType": "enum IValidatorSetHbbft.KeyGenMode",
          "name": "",
          "type": "uint8"
        }
      ],
      "stateMutability": "view",
      "type": "function"
    },
    {
      "inputs": [],
      "name": "getPendingValidators",
      "outputs": [
        {
          "internalType": "address[]",
          "name": "",
          "type": "address[]"
        }
      ],
      "stateMutability": "view",
      "type": "function"
    },
    {
      "inputs": [],
      "name": "getPreviousValidators",
      "outputs": [
        {
          "internalType": "address[]",
          "name": "",
          "type": "address[]"
        }
      ],
      "stateMutability": "view",
      "type": "function"
    },
    {
      "inputs": [
        {
          "internalType": "address",
          "name": "_miningAddress",
          "type": "address"
        }
      ],
      "name": "getPublicKey",
      "outputs": [
        {
          "internalType": "bytes",
          "name": "",
          "type": "bytes"
        }
      ],
      "stateMutability": "view",
      "type": "function"
    },
    {
      "inputs": [
        {
          "internalType": "uint256[]",
          "name": "_likelihood",
          "type": "uint256[]"
        },
        {
          "internalType": "uint256",
          "name": "_likelihoodSum",
          "type": "uint256"
        },
        {
          "internalType": "uint256",
          "name": "_randomNumber",
          "type": "uint256"
        }
      ],
      "name": "getRandomIndex",
      "outputs": [
        {
          "internalType": "uint256",
          "name": "",
          "type": "uint256"
        }
      ],
      "stateMutability": "pure",
      "type": "function"
    },
    {
      "inputs": [],
      "name": "getStakingContract",
      "outputs": [
        {
          "internalType": "address",
          "name": "",
          "type": "address"
        }
      ],
      "stateMutability": "view",
      "type": "function"
    },
    {
      "inputs": [
        {
          "internalType": "uint256",
          "name": "_possibleValidatorCount",
          "type": "uint256"
        }
      ],
      "name": "getValidatorCountSweetSpot",
      "outputs": [
        {
          "internalType": "uint256",
          "name": "",
          "type": "uint256"
        }
      ],
      "stateMutability": "pure",
      "type": "function"
    },
    {
      "inputs": [],
      "name": "getValidators",
      "outputs": [
        {
          "internalType": "address[]",
          "name": "",
          "type": "address[]"
        }
      ],
      "stateMutability": "view",
      "type": "function"
    },
    {
      "inputs": [],
      "name": "handleFailedKeyGeneration",
      "outputs": [],
      "stateMutability": "nonpayable",
      "type": "function"
    },
    {
      "inputs": [
        {
          "internalType": "address",
          "name": "_contractOwner",
          "type": "address"
        },
        {
          "components": [
            {
              "internalType": "address",
              "name": "blockRewardContract",
              "type": "address"
            },
            {
              "internalType": "address",
              "name": "randomContract",
              "type": "address"
            },
            {
              "internalType": "address",
              "name": "stakingContract",
              "type": "address"
            },
            {
              "internalType": "address",
              "name": "keyGenHistoryContract",
              "type": "address"
            },
            {
              "internalType": "address",
              "name": "bonusScoreContract",
              "type": "address"
            },
            {
              "internalType": "uint256",
              "name": "validatorInactivityThreshold",
              "type": "uint256"
            }
          ],
          "internalType": "struct IValidatorSetHbbft.ValidatorSetParams",
          "name": "_params",
          "type": "tuple"
        },
        {
          "internalType": "address[]",
          "name": "_initialMiningAddresses",
          "type": "address[]"
        },
        {
          "internalType": "address[]",
          "name": "_initialStakingAddresses",
          "type": "address[]"
        }
      ],
      "name": "initialize",
      "outputs": [],
      "stateMutability": "nonpayable",
      "type": "function"
    },
    {
      "inputs": [],
      "name": "isFullHealth",
      "outputs": [
        {
          "internalType": "bool",
          "name": "",
          "type": "bool"
        }
      ],
      "stateMutability": "view",
      "type": "function"
    },
    {
      "inputs": [
        {
          "internalType": "address",
          "name": "_miningAddress",
          "type": "address"
        }
      ],
      "name": "isPendingValidator",
      "outputs": [
        {
          "internalType": "bool",
          "name": "",
          "type": "bool"
        }
      ],
      "stateMutability": "view",
      "type": "function"
    },
    {
      "inputs": [
        {
          "internalType": "address",
          "name": "",
          "type": "address"
        }
      ],
      "name": "isValidator",
      "outputs": [
        {
          "internalType": "bool",
          "name": "",
          "type": "bool"
        }
      ],
      "stateMutability": "view",
      "type": "function"
    },
    {
      "inputs": [
        {
          "internalType": "address",
          "name": "_stakingAddress",
          "type": "address"
        }
      ],
      "name": "isValidatorAbandoned",
      "outputs": [
        {
          "internalType": "bool",
          "name": "",
          "type": "bool"
        }
      ],
      "stateMutability": "view",
      "type": "function"
    },
    {
      "inputs": [
        {
          "internalType": "address",
          "name": "_miningAddress",
          "type": "address"
        }
      ],
      "name": "isValidatorOrPending",
      "outputs": [
        {
          "internalType": "bool",
          "name": "",
          "type": "bool"
        }
      ],
      "stateMutability": "view",
      "type": "function"
    },
    {
      "inputs": [
        {
          "internalType": "address",
          "name": "",
          "type": "address"
        }
      ],
      "name": "isValidatorPrevious",
      "outputs": [
        {
          "internalType": "bool",
          "name": "",
          "type": "bool"
        }
      ],
      "stateMutability": "view",
      "type": "function"
    },
    {
      "inputs": [],
      "name": "keyGenHistoryContract",
      "outputs": [
        {
          "internalType": "contract IKeyGenHistory",
          "name": "",
          "type": "address"
        }
      ],
      "stateMutability": "view",
      "type": "function"
    },
    {
      "inputs": [
        {
          "internalType": "address",
          "name": "_mining",
          "type": "address"
        }
      ],
      "name": "kickValidator",
      "outputs": [],
      "stateMutability": "nonpayable",
      "type": "function"
    },
    {
      "inputs": [],
      "name": "maxValidators",
      "outputs": [
        {
          "internalType": "uint256",
          "name": "",
          "type": "uint256"
        }
      ],
      "stateMutability": "view",
      "type": "function"
    },
    {
      "inputs": [
        {
          "internalType": "address",
          "name": "",
          "type": "address"
        }
      ],
      "name": "miningByStakingAddress",
      "outputs": [
        {
          "internalType": "address",
          "name": "",
          "type": "address"
        }
      ],
      "stateMutability": "view",
      "type": "function"
    },
    {
      "inputs": [],
      "name": "newValidatorSet",
      "outputs": [],
      "stateMutability": "nonpayable",
      "type": "function"
    },
    {
      "inputs": [
        {
          "internalType": "address",
          "name": "_stakingAddress",
          "type": "address"
        }
      ],
      "name": "notifyUnavailability",
      "outputs": [],
      "stateMutability": "nonpayable",
      "type": "function"
    },
    {
      "inputs": [],
      "name": "owner",
      "outputs": [
        {
          "internalType": "address",
          "name": "",
          "type": "address"
        }
      ],
      "stateMutability": "view",
      "type": "function"
    },
    {
      "inputs": [
        {
          "internalType": "address",
          "name": "_stakingAddress",
          "type": "address"
        }
      ],
      "name": "publicKeyByStakingAddress",
      "outputs": [
        {
          "internalType": "bytes",
          "name": "",
          "type": "bytes"
        }
      ],
      "stateMutability": "view",
      "type": "function"
    },
    {
      "inputs": [],
      "name": "randomContract",
      "outputs": [
        {
          "internalType": "address",
          "name": "",
          "type": "address"
        }
      ],
      "stateMutability": "view",
      "type": "function"
    },
    {
      "inputs": [],
      "name": "renounceOwnership",
      "outputs": [],
      "stateMutability": "nonpayable",
      "type": "function"
    },
    {
      "inputs": [
        {
          "internalType": "address",
          "name": "_address",
          "type": "address"
        }
      ],
      "name": "setBlockRewardContract",
      "outputs": [],
      "stateMutability": "nonpayable",
      "type": "function"
    },
    {
      "inputs": [
        {
          "internalType": "address",
          "name": "_address",
          "type": "address"
        }
      ],
      "name": "setBonusScoreSystemAddress",
      "outputs": [],
      "stateMutability": "nonpayable",
      "type": "function"
    },
    {
      "inputs": [
        {
          "internalType": "bool",
          "name": "_healthy",
          "type": "bool"
        }
      ],
      "name": "setIsFullHealth",
      "outputs": [],
      "stateMutability": "nonpayable",
      "type": "function"
    },
    {
      "inputs": [
        {
          "internalType": "address",
          "name": "_address",
          "type": "address"
        }
      ],
      "name": "setKeyGenHistoryContract",
      "outputs": [],
      "stateMutability": "nonpayable",
      "type": "function"
    },
    {
      "inputs": [
        {
          "internalType": "uint256",
          "name": "_maxValidators",
          "type": "uint256"
        }
      ],
      "name": "setMaxValidators",
      "outputs": [],
      "stateMutability": "nonpayable",
      "type": "function"
    },
    {
      "inputs": [
        {
          "internalType": "address",
          "name": "_address",
          "type": "address"
        }
      ],
      "name": "setRandomContract",
      "outputs": [],
      "stateMutability": "nonpayable",
      "type": "function"
    },
    {
      "inputs": [
        {
          "internalType": "address",
          "name": "_miningAddress",
          "type": "address"
        },
        {
          "internalType": "address",
          "name": "_stakingAddress",
          "type": "address"
        }
      ],
      "name": "setStakingAddress",
      "outputs": [],
      "stateMutability": "nonpayable",
      "type": "function"
    },
    {
      "inputs": [
        {
          "internalType": "address",
          "name": "_address",
          "type": "address"
        }
      ],
      "name": "setStakingContract",
      "outputs": [],
      "stateMutability": "nonpayable",
      "type": "function"
    },
    {
      "inputs": [
        {
          "internalType": "address",
          "name": "_validator",
          "type": "address"
        },
        {
          "internalType": "uint256",
          "name": "_timestamp",
          "type": "uint256"
        }
      ],
      "name": "setValidatorAvailableSince",
      "outputs": [],
      "stateMutability": "nonpayable",
      "type": "function"
    },
    {
      "inputs": [
        {
          "internalType": "uint256",
          "name": "_seconds",
          "type": "uint256"
        }
      ],
      "name": "setValidatorInactivityThreshold",
      "outputs": [],
      "stateMutability": "nonpayable",
      "type": "function"
    },
    {
      "inputs": [
        {
          "internalType": "bytes16",
          "name": "_ip",
          "type": "bytes16"
        },
        {
          "internalType": "bytes2",
          "name": "_port",
          "type": "bytes2"
        }
      ],
      "name": "setValidatorInternetAddress",
      "outputs": [],
      "stateMutability": "nonpayable",
      "type": "function"
    },
    {
      "inputs": [
        {
          "internalType": "uint256",
          "name": "num",
          "type": "uint256"
        }
      ],
      "name": "setValidatorsNum",
      "outputs": [],
      "stateMutability": "nonpayable",
      "type": "function"
    },
    {
      "inputs": [
        {
          "internalType": "address",
          "name": "",
          "type": "address"
        }
      ],
      "name": "stakingByMiningAddress",
      "outputs": [
        {
          "internalType": "address",
          "name": "",
          "type": "address"
        }
      ],
      "stateMutability": "view",
      "type": "function"
    },
    {
      "inputs": [],
      "name": "stakingContract",
      "outputs": [
        {
          "internalType": "contract IStakingHbbft",
          "name": "",
          "type": "address"
        }
      ],
      "stateMutability": "view",
      "type": "function"
    },
    {
      "inputs": [
        {
          "internalType": "address",
          "name": "newOwner",
          "type": "address"
        }
      ],
      "name": "transferOwnership",
      "outputs": [],
      "stateMutability": "nonpayable",
      "type": "function"
    },
    {
      "inputs": [
        {
          "internalType": "address",
          "name": "",
          "type": "address"
        }
      ],
      "name": "validatorAvailableSince",
      "outputs": [
        {
          "internalType": "uint256",
          "name": "",
          "type": "uint256"
        }
      ],
      "stateMutability": "view",
      "type": "function"
    },
    {
      "inputs": [
        {
          "internalType": "address",
          "name": "",
          "type": "address"
        }
      ],
      "name": "validatorAvailableSinceLastWrite",
      "outputs": [
        {
          "internalType": "uint256",
          "name": "",
          "type": "uint256"
        }
      ],
      "stateMutability": "view",
      "type": "function"
    },
    {
      "inputs": [
        {
          "internalType": "address",
          "name": "",
          "type": "address"
        }
      ],
      "name": "validatorCounter",
      "outputs": [
        {
          "internalType": "uint256",
          "name": "",
          "type": "uint256"
        }
      ],
      "stateMutability": "view",
      "type": "function"
    },
    {
      "inputs": [],
      "name": "validatorInactivityThreshold",
      "outputs": [
        {
          "internalType": "uint256",
          "name": "",
          "type": "uint256"
        }
      ],
      "stateMutability": "view",
      "type": "function"
    },
    {
      "stateMutability": "payable",
      "type": "receive"
    }
  ],
  "bytecode": "0x6080604052348015600f57600080fd5b506016601a565b60ca565b7ff0c57e16840df040f15088dc2f81fe391c3923bec73e23a9662efc9c229c6a00805468010000000000000000900460ff161560695760405163f92ee8a960e01b815260040160405180910390fd5b80546001600160401b039081161460c75780546001600160401b0319166001600160401b0390811782556040519081527fc7f505b2f371ae2175ee4913f4499e1f2633a7b5936321eed1cdaeb6115181d29060200160405180910390a15b50565b614085806100d96000396000f3fe60806040526004361061038f5760003560e01c80638e68dce4116101dc578063ccf69e9b11610102578063eebc7a39116100a0578063f51726f01161006f578063f51726f014610bf5578063facd743b14610c15578063fb64aac114610c45578063fce260c814610c6557600080fd5b8063eebc7a3914610b80578063efd0494714610b95578063f2fde38b14610bb5578063f373020614610bd557600080fd5b8063e6d8d318116100dc578063e6d8d31814610ae0578063e8163d9714610b1d578063ed7cba6214610b33578063ee99205c14610b6057600080fd5b8063ccf69e9b14610a66578063d71b7e2414610a86578063ddd8db0214610ab357600080fd5b8063a49904e51161017a578063b41832e411610149578063b41832e4146109e4578063b47aef1f14610a11578063b7ab4db514610a31578063bd0d69bc14610a4657600080fd5b8063a49904e514610960578063a68b5b761461097f578063ac5ba7bc146109af578063ade1900a146109cf57600080fd5b80639d6fc1d1116101b65780639d6fc1d1146108b35780639dd373b9146108e3578063a0d16cad14610920578063a42bdee91461094057600080fd5b80638e68dce4146108555780639881933d146108735780639bb2ea5a1461089357600080fd5b806351cc6646116102c1578063715018a61161025f578063752862111161022e57806375286211146107b457806385602ad5146107c9578063857cdbb8146107eb5780638da5cb5b1461081857600080fd5b8063715018a61461073f578063717662ee1461075457806373eb53851461077457806374d8fb981461079457600080fd5b80635d5fcbce1161029b5780635d5fcbce146106ba57806360e5c520146106cf57806362be7d03146106fc5780636b949ae81461072957600080fd5b806351cc66461461063f57806356b54bae146106855780635ccee1de146106a557600080fd5b80631ee4d0bc1161032e5780633da74fc6116103085780633da74fc6146105b25780633f1b5d1f146105d257806343bcce9f146105e75780634635369d1461060757600080fd5b80631ee4d0bc1461051257806322db7d091461054857806327a3e16b1461057557600080fd5b80630a4c10721161036a5780630a4c10721461045157806314e28d9014610471578063155ef6031461049e5780631761edb1146104f257600080fd5b80625351751461039b57806308ac5256146103ee5780630933e3a71461041257600080fd5b3661039657005b600080fd5b3480156103a757600080fd5b506103d16103b63660046138b2565b600b602052600090815260409020546001600160a01b031681565b6040516001600160a01b0390911681526020015b60405180910390f35b3480156103fa57600080fd5b5061040460155481565b6040519081526020016103e5565b34801561041e57600080fd5b5061044f61042d3660046138b2565b600c80546001600160a01b0319166001600160a01b0392909216919091179055565b005b34801561045d57600080fd5b5061044f61046c3660046138d6565b610c92565b34801561047d57600080fd5b5061049161048c3660046138b2565b610cca565b6040516103e5919061390f565b3480156104aa57600080fd5b5061044f6104b9366004613945565b60188054911515600160a01b027fffffffffffffffffffffff00ffffffffffffffffffffffffffffffffffffffff909216919091179055565b3480156104fe57600080fd5b5061040461050d3660046139cd565b610eb3565b34801561051e57600080fd5b506103d161052d3660046138b2565b600f602052600090815260409020546001600160a01b031681565b34801561055457600080fd5b506104046105633660046138b2565b60056020526000908152604090205481565b34801561058157600080fd5b5061044f6105903660046138b2565b600880546001600160a01b0319166001600160a01b0392909216919091179055565b3480156105be57600080fd5b506018546103d1906001600160a01b031681565b3480156105de57600080fd5b5061044f610ef3565b3480156105f357600080fd5b5061044f610602366004613a73565b610efd565b34801561061357600080fd5b50610404610622366004613a95565b600d60209081526000928352604080842090915290825290205481565b34801561064b57600080fd5b5061044f61065a366004613a95565b6001600160a01b03919091166000908152601460209081526040808320939093556013905220429055565b34801561069157600080fd5b506008546103d1906001600160a01b031681565b3480156106b157600080fd5b5061044f611057565b3480156106c657600080fd5b50600054610404565b3480156106db57600080fd5b506104046106ea3660046138b2565b60146020526000908152604090205481565b34801561070857600080fd5b50610404610717366004613ac1565b600e6020526000908152604090205481565b34801561073557600080fd5b5061040460175481565b34801561074b57600080fd5b5061044f611099565b34801561076057600080fd5b5061044f61076f3660046138b2565b6110ab565b34801561078057600080fd5b5061044f61078f366004613ac1565b61110e565b3480156107a057600080fd5b5061044f6107af3660046138b2565b611206565b3480156107c057600080fd5b5061044f6112f9565b3480156107d557600080fd5b506107de611482565b6040516103e59190613ada565b3480156107f757600080fd5b5061080b6108063660046138b2565b6114e4565b6040516103e59190613b4b565b34801561082457600080fd5b507f9016d09d72d40fdae2fd8ceac6b6234c7706214fd39c1cd1e609a0528c199300546001600160a01b03166103d1565b34801561086157600080fd5b506010546001600160a01b03166103d1565b34801561087f57600080fd5b5061080b61088e3660046138b2565b611574565b34801561089f57600080fd5b5061044f6108ae366004613ac1565b6115a7565b3480156108bf57600080fd5b506108d36108ce3660046138b2565b6115eb565b60405190151581526020016103e5565b3480156108ef57600080fd5b5061044f6108fe3660046138b2565b601080546001600160a01b0319166001600160a01b0392909216919091179055565b34801561092c57600080fd5b506108d361093b3660046138b2565b611658565b34801561094c57600080fd5b5061044f61095b366004613b7e565b611683565b34801561096c57600080fd5b50601854600160a01b900460ff166108d3565b34801561098b57600080fd5b506108d361099a3660046138b2565b600a6020526000908152604090205460ff1681565b3480156109bb57600080fd5b5061044f6109ca366004613ac1565b611767565b3480156109db57600080fd5b5061044f6117c8565b3480156109f057600080fd5b506104046109ff3660046138b2565b60126020526000908152604090205481565b348015610a1d57600080fd5b506011546103d1906001600160a01b031681565b348015610a3d57600080fd5b506107de611f63565b348015610a5257600080fd5b5061044f610a613660046138b2565b611fc3565b348015610a7257600080fd5b50600c546103d1906001600160a01b031681565b348015610a9257600080fd5b50610404610aa13660046138b2565b60066020526000908152604090205481565b348015610abf57600080fd5b50610404610ace3660046138b2565b60046020526000908152604090205481565b348015610aec57600080fd5b5061044f610afb3660046138b2565b601180546001600160a01b0319166001600160a01b0392909216919091179055565b348015610b2957600080fd5b5061040460165481565b348015610b3f57600080fd5b50610404610b4e3660046138b2565b60136020526000908152604090205481565b348015610b6c57600080fd5b506010546103d1906001600160a01b031681565b348015610b8c57600080fd5b506107de612040565b348015610ba157600080fd5b50610404610bb0366004613ac1565b6120a0565b348015610bc157600080fd5b5061044f610bd03660046138b2565b6120fd565b348015610be157600080fd5b5061044f610bf0366004613c33565b612138565b348015610c0157600080fd5b506108d3610c103660046138b2565b6124ba565b348015610c2157600080fd5b506108d3610c303660046138b2565b60096020526000908152604090205460ff1681565b348015610c5157600080fd5b506108d3610c603660046138b2565b612511565b348015610c7157600080fd5b50610404610c803660046138b2565b60076020526000908152604090205481565b6010546001600160a01b03163314610cbc576040516282b42960e81b815260040160405180910390fd5b610cc6828261256f565b5050565b6000610cd582612511565b610ce157506000919050565b60115460408051637be02c2b60e01b8152815160009384936001600160a01b0390911692637be02c2b92600480830193928290030181865afa158015610d2b573d6000803e3d6000fd5b505050506040513d601f19601f82011682018060405250810190610d4f9190613cf9565b60015491935091506fffffffffffffffffffffffffffffffff83161015610e04576011546040516399de1a4360e01b81526001600160a01b03868116600483015260009216906399de1a4390602401600060405180830381865afa158015610dbb573d6000803e3d6000fd5b505050506040513d6000823e601f3d908101601f19168201604052610de39190810190613d2c565b90508051600003610df957506001949350505050565b506002949350505050565b6001546fffffffffffffffffffffffffffffffff82161015610ea957601154604051631baeec3f60e31b81526001600160a01b0386811660048301529091169063dd7761f890602401602060405180830381865afa158015610e6a573d6000803e3d6000fd5b505050506040513d601f19601f82011682018060405250810190610e8e9190613dc0565b600003610e9f575060039392505050565b5060049392505050565b5060059392505050565b6000610eeb848484604051602001610ecd91815260200190565b6040516020818303038152906040528051906020012060001c61270d565b949350505050565b610efb612776565b565b610f06336124ba565b610f235760405163a82bfa5560e01b815260040160405180910390fd5b438210610f43576040516341d852df60e01b815260040160405180910390fd5b43610f4f836010613def565b11610f6d576040516310548f8360e01b815260040160405180910390fd5b80824014610f8e5760405163fe1864e160e01b815260040160405180910390fd5b336000908152601460209081526040808320429081905560138352818420819055601054600f909352818420548251631ec56e5360e21b81526001600160a01b03918216600482015292519194931692637b15b94c926024808201939182900301818387803b15801561100057600080fd5b505af1158015611014573d6000803e3d6000fd5b505060408051338152602081018590527f705d65dbee06de60e6465d68371ce849d5a1ead53e53d01a413b2b01393aa022935001905060405180910390a1505050565b6008546001600160a01b03163314611081576040516282b42960e81b815260040160405180910390fd5b604080516000815260208101909152610efb9061291b565b6110a1612fed565b610efb6000613048565b6010546001600160a01b031633146110d5576040516282b42960e81b815260040160405180910390fd5b6001600160a01b039081166000908152600b60209081526040808320549093168252601481528282208290556013905220429055565b50565b600054818110156111ac5760008060008154811061112e5761112e613e02565b6000918252602090912001546001600160a01b03169050815b8381116111a657600080546001810182559080527f290decd9548b62a8d60345a988386fc84ba6bc95484008f6362f93160ef3e5630180546001600160a01b0319166001600160a01b03841617905561119f81613e18565b9050611147565b50505050565b81811115610cc657805b828111156112015760008054806111cf576111cf613e31565b600082815260209020810160001990810180546001600160a01b03191690550190556111fa81613e47565b90506111b6565b505050565b60008054905b8181101561120157826001600160a01b03166000828154811061123157611231613e02565b6000918252602090912001546001600160a01b0316036112f1576000611258600184613e5e565b8154811061126857611268613e02565b600091825260208220015481546001600160a01b0390911691908390811061129257611292613e02565b6000918252602082200180546001600160a01b0319166001600160a01b0393909316929092179091558054806112ca576112ca613e31565b600082815260209020810160001990810180546001600160a01b0319169055019055505050565b60010161120c565b6008546001600160a01b03163314611323576040516282b42960e81b815260040160405180910390fd5b6001541561133b576113336130b9565b61133b612776565b611343613190565b61134b613314565b601060009054906101000a90046001600160a01b03166001600160a01b031663ee435f556040518163ffffffff1660e01b8152600401600060405180830381600087803b15801561139b57600080fd5b505af11580156113af573d6000803e3d6000fd5b50505050601160009054906101000a90046001600160a01b03166001600160a01b0316632c6f194d6040518163ffffffff1660e01b8152600401600060405180830381600087803b15801561140357600080fd5b505af1158015611417573d6000803e3d6000fd5b5050505060016000611429919061381a565b601054604051638247a23960e01b81524260048201526001600160a01b0390911690638247a23990602401600060405180830381600087803b15801561146e57600080fd5b505af11580156111a6573d6000803e3d6000fd5b606060028054806020026020016040519081016040528092919081815260200182805480156114da57602002820191906000526020600020905b81546001600160a01b031681526001909101906020018083116114bc575b5050505050905090565b6010546001600160a01b038281166000908152600f602052604090819020549051634e9b426d60e01b815290821660048201526060929190911690634e9b426d906024015b600060405180830381865afa158015611546573d6000803e3d6000fd5b505050506040513d6000823e601f3d908101601f1916820160405261156e9190810190613d2c565b92915050565b601054604051634e9b426d60e01b81526001600160a01b0383811660048301526060921690634e9b426d90602401611529565b6115af612fed565b60158190556040518181527fd3c3674d241eb3fb81da09f8c56bdf72b08c8094de786997b95cde95d0ecfff5906020015b60405180910390a150565b6001600160a01b038082166000908152600b6020908152604080832054909316808352601490915291812054909190156116285750600092915050565b6001600160a01b03811660009081526013602052604081205461164b9042613e5e565b6017541115949350505050565b6001600160a01b03811660009081526009602052604081205460ff168061156e575061156e82612511565b336000908152600f60205260409020546001600160a01b0316806116c1576040516303a949c760e61b81523360048201526024015b60405180910390fd5b601054604051637b0a0f9b60e01b81526001600160a01b0383811660048301526fffffffffffffffffffffffffffffffff19861660248301527fffff0000000000000000000000000000000000000000000000000000000000008516604483015290911690637b0a0f9b906064015b600060405180830381600087803b15801561174a57600080fd5b505af115801561175e573d6000803e3d6000fd5b50505050505050565b61176f612fed565b62093a8081101561179357604051635d9561d360e11b815260040160405180910390fd5b60178190556040518181527f578d5da2255dc6640f3ba0d8ce1bc20877ca696956ebe3c333a3eb8f49fb395f906020016115e0565b6008546001600160a01b031633146117f2576040516282b42960e81b815260040160405180910390fd5b601060009054906101000a90046001600160a01b03166001600160a01b03166322e3d9866040518163ffffffff1660e01b8152600401602060405180830381865afa158015611845573d6000803e3d6000fd5b505050506040513d601f19601f820116820180604052508101906118699190613dc0565b4210156118895760405163112bb3df60e11b815260040160405180910390fd5b601060009054906101000a90046001600160a01b03166001600160a01b031663a5d54f656040518163ffffffff1660e01b8152600401600060405180830381865afa1580156118dc573d6000803e3d6000fd5b505050506040513d6000823e601f3d908101601f191682016040526119049190810190613e71565b5115610efb5760015415610efb576001805460009161192291613e5e565b67ffffffffffffffff81111561193a5761193a613962565b604051908082528060200260200182016040528015611963578160200160208202803683370190505b50905060008080601160009054906101000a90046001600160a01b03166001600160a01b0316637be02c2b6040518163ffffffff1660e01b81526004016040805180830381865afa1580156119bc573d6000803e3d6000fd5b505050506040513d601f19601f820116820180604052508101906119e09190613cf9565b9150915060005b600154811015611cfc57600060018281548110611a0657611a06613e02565b60009182526020822001546001546001600160a01b0390911692506fffffffffffffffffffffffffffffffff86161015611ab6576011546040516399de1a4360e01b81526001600160a01b03848116600483015260009216906399de1a4390602401600060405180830381865afa158015611a85573d6000803e3d6000fd5b505050506040513d6000823e601f3d908101601f19168201604052611aad9190810190613d2c565b51119050611b45565b6001546fffffffffffffffffffffffffffffffff85161015611b4557601154604051631baeec3f60e31b81526001600160a01b038481166004830152600092169063dd7761f890602401602060405180830381865afa158015611b1d573d6000803e3d6000fd5b505050506040513d601f19601f82011682018060405250810190611b419190613dc0565b1190505b8015611bb85760018381548110611b5e57611b5e613e02565b9060005260206000200160009054906101000a90046001600160a01b0316878781518110611b8e57611b8e613e02565b6001600160a01b039092166020928302919091019091015285611bb081613e18565b965050611cf2565b601854604051632bdfe5f760e11b81526001600160a01b038481166004830152909116906357bfcbee90602401600060405180830381600087803b158015611bff57600080fd5b505af1158015611c13573d6000803e3d6000fd5b50506010546001600160a01b038581166000908152600f602052604090819020549051631dbe84a360e11b8152908216600482015291169250633b7d09469150602401600060405180830381600087803b158015611c7057600080fd5b505af1158015611c84573d6000803e3d6000fd5b5050506001600160a01b03831660009081526014602090815260408083208390556013909152902042905550604080516001600160a01b03841681524260208201527f7ec36d1734626f8b3686f8791130187e1633c843b1995003e788cd2b33d56903910160405180910390a15b50506001016119e7565b50601154604051632f8ba4bf60e11b81526001600160a01b0390911690635f17497e90611d2e90600190600401613f00565b600060405180830381600087803b158015611d4857600080fd5b505af1158015611d5c573d6000803e3d6000fd5b50505050601160009054906101000a90046001600160a01b03166001600160a01b031663adddc0cf6040518163ffffffff1660e01b8152600401600060405180830381600087803b158015611db057600080fd5b505af1158015611dc4573d6000803e3d6000fd5b5050505060008367ffffffffffffffff811115611de357611de3613962565b604051908082528060200260200182016040528015611e0c578160200160208202803683370190505b50905060005b84811015611e6657858181518110611e2c57611e2c613e02565b6020026020010151828281518110611e4657611e46613e02565b6001600160a01b0390921660209283029190910190910152600101611e12565b50601060009054906101000a90046001600160a01b03166001600160a01b031663adddc0cf6040518163ffffffff1660e01b8152600401600060405180830381600087803b158015611eb757600080fd5b505af1158015611ecb573d6000803e3d6000fd5b505050506000601060009054906101000a90046001600160a01b03166001600160a01b031663a5d54f656040518163ffffffff1660e01b8152600401600060405180830381865afa158015611f24573d6000803e3d6000fd5b505050506040513d6000823e601f3d908101601f19168201604052611f4c9190810190613e71565b511115611f5c57611f5c8161291b565b5050505050565b606060008054806020026020016040519081016040528092919081815260200182805480156114da576020028201919060005260206000209081546001600160a01b031681526001909101906020018083116114bc575050505050905090565b611fcb612fed565b6001600160a01b038116611ff25760405163d92e233d60e01b815260040160405180910390fd5b601880546001600160a01b0319166001600160a01b0383169081179091556040519081527fd4244d1f8acb4860e17399636c6b7875c75656aafb5cb3d0163d7305eace7172906020016115e0565b606060018054806020026020016040519081016040528092919081815260200182805480156114da576020028201919060005260206000209081546001600160a01b031681526001909101906020018083116114bc575050505050905090565b6000816000036120c35760405163a63671a560e01b815260040160405180910390fd5b60048210156120d0575090565b60036120dd600184613e5e565b6120e79190613f5a565b6120f2906003613f6e565b61156e906001613def565b612105612fed565b6001600160a01b03811661212f57604051631e4fbdf760e01b8152600060048201526024016116b8565b61110b81613048565b7ff0c57e16840df040f15088dc2f81fe391c3923bec73e23a9662efc9c229c6a00805468010000000000000000810460ff16159067ffffffffffffffff166000811580156121835750825b905060008267ffffffffffffffff1660011480156121a05750303b155b9050811580156121ae575080155b156121cc5760405163f92ee8a960e01b815260040160405180910390fd5b845467ffffffffffffffff19166001178555831561220057845468ff00000000000000001916680100000000000000001785555b6122098a613474565b6001600160a01b038b166122305760405163d92e233d60e01b815260040160405180910390fd5b6000889003612252576040516322b8b72360e21b815260040160405180910390fd5b8786146122725760405163ac9e459360e01b815260040160405180910390fd5b61227b8b613537565b61228860208b018b6138b2565b600880546001600160a01b0319166001600160a01b03929092169190911790556122b860408b0160208c016138b2565b600c80546001600160a01b0319166001600160a01b03929092169190911790556122e860608b0160408c016138b2565b601080546001600160a01b0319166001600160a01b039290921691909117905561231860808b0160608c016138b2565b601180546001600160a01b0319166001600160a01b039290921691909117905561234860a08b0160808c016138b2565b601880546001600160a01b0319166001600160a01b039290921691909117905560a08a013560175560005b8881101561245c5760008a8a8381811061238f5761238f613e02565b90506020020160208101906123a491906138b2565b60008054600180820183557f290decd9548b62a8d60345a988386fc84ba6bc95484008f6362f93160ef3e56390910180546001600160a01b0319166001600160a01b0385169081179091558252600960209081526040808420805460ff191690931790925560129052812080549293509061241e83613e18565b9190505550612453818a8a8581811061243957612439613e02565b905060200201602081019061244e91906138b2565b61256f565b50600101612373565b50601960155583156124ad57845468ff000000000000000019168555604051600181527fc7f505b2f371ae2175ee4913f4499e1f2633a7b5936321eed1cdaeb6115181d29060200160405180910390a15b5050505050505050505050565b6001600160a01b038181166000908152600f60205260408120549091166124e357506000919050565b6001600160a01b0382166000908152601460205260409020541561250957506000919050565b506001919050565b600154600090815b81811015612565576001818154811061253457612534613e02565b6000918252602090912001546001600160a01b039081169085160361255d575060019392505050565b600101612519565b5060009392505050565b6001600160a01b0382166125965760405163d92e233d60e01b815260040160405180910390fd5b6001600160a01b0381166125bd5760405163d92e233d60e01b815260040160405180910390fd5b806001600160a01b0316826001600160a01b0316036125ef576040516307d9394560e01b815260040160405180910390fd5b6001600160a01b038181166000908152600b60205260409020541615158061263057506001600160a01b038181166000908152600f60205260409020541615155b15612659576040516326d65e0360e21b81526001600160a01b03821660048201526024016116b8565b6001600160a01b038281166000908152600b60205260409020541615158061269a57506001600160a01b038281166000908152600f60205260409020541615155b156126c35760405163342ed6a360e01b81526001600160a01b03831660048201526024016116b8565b6001600160a01b039081166000818152600b602090815260408083208054959096166001600160a01b03199586168117909655948252600f90529290922080549091169091179055565b60008061271a8484613f85565b90506000805b8282116127605786818151811061273957612739613e02565b60200260200101518261274c9190613def565b91508061275881613e18565b915050612720565b61276b600182613e5e565b979650505050505050565b60606000808054806020026020016040519081016040528092919081815260200182805480156127cf57602002820191906000526020600020905b81546001600160a01b031681526001909101906020018083116127b1575b50505050509150600090505b8151811015612836576000600960008484815181106127fc576127fc613e02565b6020908102919091018101516001600160a01b03168252810191909152604001600020805460ff19169115159190911790556001016127db565b6001805461284691600091613838565b50600080548060200260200160405190810160405280929190818152602001828054801561289d57602002820191906000526020600020905b81546001600160a01b0316815260019091019060200180831161287f575b50505050509150600090505b8151811015610cc65760008282815181106128c6576128c6613e02565b6020908102919091018101516001600160a01b0381166000908152600983526040808220805460ff1916600117905560129093529182208054919350909161290d83613e18565b9091555050506001016128a9565b6010546040805163a5d54f6560e01b815290516000926001600160a01b03169163a5d54f6591600480830192869291908290030181865afa158015612964573d6000803e3d6000fd5b505050506040513d6000823e601f3d908101601f1916820160405261298c9190810190613e71565b9050600060155482511015806129a157508151155b6129b4576129af82516120a0565b6129b8565b6015545b90508082511115612df35781516010546040805163957950a760e01b8152905160009283926001600160a01b039091169163957950a79160048082019286929091908290030181865afa158015612a13573d6000803e3d6000fd5b505050506040513d6000823e601f3d908101601f19168201604052612a3b9190810190613f99565b9150915060008467ffffffffffffffff811115612a5a57612a5a613962565b604051908082528060200260200182016040528015612a83578160200160208202803683370190505b5090506000805b8851811015612c085760005b86811015612bff57898281518110612ab057612ab0613e02565b60200260200101516001600160a01b0316898281518110612ad357612ad3613e02565b60200260200101516001600160a01b031603612bf757898281518110612afb57612afb613e02565b6020026020010151848481518110612b1557612b15613e02565b6001600160a01b039092166020928302919091019091015282612b3781613e18565b935050858181518110612b4c57612b4c613e02565b602002602001015185612b5f9190613e5e565b945086612b6b81613e47565b975050888781518110612b8057612b80613e02565b6020026020010151898281518110612b9a57612b9a613e02565b60200260200101906001600160a01b031690816001600160a01b031681525050858781518110612bcc57612bcc613e02565b6020026020010151868281518110612be657612be6613e02565b602002602001018181525050612bff565b600101612a96565b50600101612a8a565b50600c5460408051634191031360e11b815290516000926001600160a01b03169163832206269160048083019260209291908290030181865afa158015612c53573d6000803e3d6000fd5b505050506040513d601f19601f82011682018060405250810190612c779190613dc0565b905060008551118015612c8a5750600084115b15612de85760005b8351811015612dde57604080514284186020820152016040516020818303038152906040528051906020012060001c91506000612cd087878561270d565b9050898181518110612ce457612ce4613e02565b6020026020010151858381518110612cfe57612cfe613e02565b60200260200101906001600160a01b031690816001600160a01b031681525050868181518110612d3057612d30613e02565b602002602001015186612d439190613e5e565b955087612d4f81613e47565b985050898881518110612d6457612d64613e02565b60200260200101518a8281518110612d7e57612d7e613e02565b60200260200101906001600160a01b031690816001600160a01b031681525050868881518110612db057612db0613e02565b6020026020010151878281518110612dca57612dca613e02565b602090810291909101015250600101612c92565b50612de883613548565b505050505050612dfc565b612dfc82613548565b601154604051632f8ba4bf60e11b81526001600160a01b0390911690635f17497e90612e2d90600090600401613f00565b600060405180830381600087803b158015612e4757600080fd5b505af1158015612e5b573d6000803e3d6000fd5b505050508151600014612ed157601060009054906101000a90046001600160a01b03166001600160a01b0316631555371c6040518163ffffffff1660e01b8152600401600060405180830381600087803b158015612eb857600080fd5b505af1158015612ecc573d6000803e3d6000fd5b505050505b601060009054906101000a90046001600160a01b03166001600160a01b03166322e3d9866040518163ffffffff1660e01b8152600401602060405180830381865afa158015612f24573d6000803e3d6000fd5b505050506040513d601f19601f82011682018060405250810190612f489190613dc0565b4211156112015760105460408051631171ecc360e11b815290516001600160a01b0390921691639e72c6359183916322e3d986916004808201926020929091908290030181865afa158015612fa1573d6000803e3d6000fd5b505050506040513d601f19601f82011682018060405250810190612fc59190613dc0565b612fcf9042613e5e565b6040518263ffffffff1660e01b815260040161173091815260200190565b3361301f7f9016d09d72d40fdae2fd8ceac6b6234c7706214fd39c1cd1e609a0528c199300546001600160a01b031690565b6001600160a01b031614610efb5760405163118cdaa760e01b81523360048201526024016116b8565b7f9016d09d72d40fdae2fd8ceac6b6234c7706214fd39c1cd1e609a0528c19930080546001600160a01b031981166001600160a01b03848116918217845560405192169182907f8be0079c531659141344cd1fd0a4f28419497f9722a3daafe3b4186f6b6457e090600090a3505050565b60025460005b8181101561311c576000600a6000600284815481106130e0576130e0613e02565b6000918252602080832091909101546001600160a01b031683528201929092526040019020805460ff19169115159190911790556001016130bf565b505060008054905b81811015613180576001600a600080848154811061314457613144613e02565b6000918252602080832091909101546001600160a01b031683528201929092526040019020805460ff1916911515919091179055600101613124565b6000805461120191600291613838565b6010546040805163a5d54f6560e01b815290516000926001600160a01b03169163a5d54f6591600480830192869291908290030181865afa1580156131d9573d6000803e3d6000fd5b505050506040513d6000823e601f3d908101601f191682016040526132019190810190613e71565b805190915060005b81811015611201576000600b600085848151811061322957613229613e02565b6020908102919091018101516001600160a01b039081168352828201939093526040918201600090812054909316808452600990915291205490915060ff168061328957506001600160a01b038116600090815260146020526040902054155b15613294575061330c565b6018546001600160a01b03828116600081815260146020526040908190205490516392f2944360e01b8152600481019290925260248201529116906392f2944390604401600060405180830381600087803b1580156132f257600080fd5b505af1158015613306573d6000803e3d6000fd5b50505050505b600101613209565b6010546040805163df6f55f560e01b815290516000926001600160a01b03169163df6f55f591600480830192869291908290030181865afa15801561335d573d6000803e3d6000fd5b505050506040513d6000823e601f3d908101601f191682016040526133859190810190613e71565b805190915060005b81811015611201576000600b60008584815181106133ad576133ad613e02565b6020908102919091018101516001600160a01b0390811683528282019390935260409182016000908120549093168084526014909152912054909150156133f4575061346c565b6018546001600160a01b03828116600081815260136020526040908190205490516351150d5760e01b8152600481019290925260248201529116906351150d5790604401600060405180830381600087803b15801561345257600080fd5b505af1158015613466573d6000803e3d6000fd5b50505050505b60010161338d565b600061348360208301836138b2565b6001600160a01b031614806134b0575060006134a560408301602084016138b2565b6001600160a01b0316145b806134d3575060006134c860608301604084016138b2565b6001600160a01b0316145b806134f6575060006134eb60808301606084016138b2565b6001600160a01b0316145b806135195750600061350e60a08301608084016138b2565b6001600160a01b0316145b1561110b5760405163d92e233d60e01b815260040160405180910390fd5b61353f6137c4565b61110b81613812565b6135546001600061381a565b80516000036137485760008054905b818110156136e957600080828154811061357f5761357f613e02565b6000918252602080832091909101546001600160a01b03908116808452600f90925260409283902054601054935163a711e6a160e01b8152908216600482018190529294509192169063a711e6a190602401602060405180830381865afa1580156135ee573d6000803e3d6000fd5b505050506040513d601f19601f820116820180604052508101906136129190614032565b801561368f575060105460405162e9ab0360e81b81526001600160a01b038381166004830181905260248301529091169063e9ab030090604401602060405180830381865afa158015613669573d6000803e3d6000fd5b505050506040513d601f19601f8201168201806040525081019061368d9190613dc0565b155b156136df576001805480820182556000919091527fb10e2d527612073b26eecdfd717e6a320cf44b4afac2b0732d9fcbe2b7fa0cf60180546001600160a01b0319166001600160a01b0384161790555b5050600101613563565b50600154600003610cc65760016000808154811061370957613709613e02565b60009182526020808320909101548354600181018555938352912090910180546001600160a01b0319166001600160a01b039092169190911790555050565b805160005b81811015611201576001600b600085848151811061376d5761376d613e02565b6020908102919091018101516001600160a01b0390811683528282019390935260409091016000908120548454600181810187559583529290912090910180546001600160a01b031916919092161790550161374d565b7ff0c57e16840df040f15088dc2f81fe391c3923bec73e23a9662efc9c229c6a005468010000000000000000900460ff16610efb57604051631afcd79f60e31b815260040160405180910390fd5b6121056137c4565b508054600082559060005260206000209081019061110b9190613888565b8280548282559060005260206000209081019282156138785760005260206000209182015b8281111561387857825482559160010191906001019061385d565b50613884929150613888565b5090565b5b808211156138845760008155600101613889565b6001600160a01b038116811461110b57600080fd5b6000602082840312156138c457600080fd5b81356138cf8161389d565b9392505050565b600080604083850312156138e957600080fd5b82356138f48161389d565b915060208301356139048161389d565b809150509250929050565b602081016006831061393157634e487b7160e01b600052602160045260246000fd5b91905290565b801515811461110b57600080fd5b60006020828403121561395757600080fd5b81356138cf81613937565b634e487b7160e01b600052604160045260246000fd5b604051601f8201601f1916810167ffffffffffffffff811182821017156139a1576139a1613962565b604052919050565b600067ffffffffffffffff8211156139c3576139c3613962565b5060051b60200190565b6000806000606084860312156139e257600080fd5b833567ffffffffffffffff8111156139f957600080fd5b8401601f81018613613a0a57600080fd5b80356020613a1f613a1a836139a9565b613978565b82815260059290921b83018101918181019089841115613a3e57600080fd5b938201935b83851015613a5c57843582529382019390820190613a43565b999188013598505060409096013595945050505050565b60008060408385031215613a8657600080fd5b50508035926020909101359150565b60008060408385031215613aa857600080fd5b8235613ab38161389d565b946020939093013593505050565b600060208284031215613ad357600080fd5b5035919050565b6020808252825182820181905260009190848201906040850190845b81811015613b1b5783516001600160a01b031683529284019291840191600101613af6565b50909695505050505050565b60005b83811015613b42578181015183820152602001613b2a565b50506000910152565b6020815260008251806020840152613b6a816040850160208701613b27565b601f01601f19169190910160400192915050565b60008060408385031215613b9157600080fd5b82356fffffffffffffffffffffffffffffffff1981168114613bb257600080fd5b915060208301357fffff0000000000000000000000000000000000000000000000000000000000008116811461390457600080fd5b60008083601f840112613bf957600080fd5b50813567ffffffffffffffff811115613c1157600080fd5b6020830191508360208260051b8501011115613c2c57600080fd5b9250929050565b600080600080600080868803610120811215613c4e57600080fd5b8735613c598161389d565b965060c0601f1982011215613c6d57600080fd5b5060208701945060e087013567ffffffffffffffff80821115613c8f57600080fd5b613c9b8a838b01613be7565b9096509450610100890135915080821115613cb557600080fd5b50613cc289828a01613be7565b979a9699509497509295939492505050565b80516fffffffffffffffffffffffffffffffff81168114613cf457600080fd5b919050565b60008060408385031215613d0c57600080fd5b613d1583613cd4565b9150613d2360208401613cd4565b90509250929050565b600060208284031215613d3e57600080fd5b815167ffffffffffffffff80821115613d5657600080fd5b818401915084601f830112613d6a57600080fd5b815181811115613d7c57613d7c613962565b613d8f601f8201601f1916602001613978565b9150808252856020828501011115613da657600080fd5b613db7816020840160208601613b27565b50949350505050565b600060208284031215613dd257600080fd5b5051919050565b634e487b7160e01b600052601160045260246000fd5b8082018082111561156e5761156e613dd9565b634e487b7160e01b600052603260045260246000fd5b600060018201613e2a57613e2a613dd9565b5060010190565b634e487b7160e01b600052603160045260246000fd5b600081613e5657613e56613dd9565b506000190190565b8181038181111561156e5761156e613dd9565b60006020808385031215613e8457600080fd5b825167ffffffffffffffff811115613e9b57600080fd5b8301601f81018513613eac57600080fd5b8051613eba613a1a826139a9565b81815260059190911b82018301908381019087831115613ed957600080fd5b928401925b8284101561276b578351613ef18161389d565b82529284019290840190613ede565b6020808252825482820181905260008481528281209092916040850190845b81811015613b1b5783546001600160a01b031683526001938401939285019201613f1f565b634e487b7160e01b600052601260045260246000fd5b600082613f6957613f69613f44565b500490565b808202811582820484141761156e5761156e613dd9565b600082613f9457613f94613f44565b500690565b60008060408385031215613fac57600080fd5b825167ffffffffffffffff811115613fc357600080fd5b8301601f81018513613fd457600080fd5b80516020613fe4613a1a836139a9565b82815260059290921b8301810191818101908884111561400357600080fd5b938201935b8385101561402157845182529382019390820190614008565b969091015195979596505050505050565b60006020828403121561404457600080fd5b81516138cf8161393756fea2646970667358221220e25342490e74f01f34003aa54f36e709ee9f989fa7326777a78d68077cade6d564736f6c63430008190033",
  "linkReferences": {},
  "deployedLinkReferences": {}
}