{
  "_format": "hh-sol-artifact-1",
  "contractName": "ValidatorSetHbbftMock",
  "sourceName": "contracts/mockContracts/ValidatorSetHbbftMock.sol",
  "abi": [
    {
      "inputs": [],
      "name": "AnnounceBlockNumberTooOld",
      "type": "error"
    },
    {
      "inputs": [],
      "name": "CantAnnounceAvailability",
      "type": "error"
    },
    {
      "inputs": [],
      "name": "EpochNotYetzFinished",
      "type": "error"
    },
    {
      "inputs": [],
      "name": "InitialAddressesLengthMismatch",
      "type": "error"
    },
    {
      "inputs": [],
      "name": "InitialValidatorsEmpty",
      "type": "error"
    },
    {
      "inputs": [],
      "name": "InvalidAddressPair",
      "type": "error"
    },
    {
      "inputs": [],
      "name": "InvalidAnnounceBlockHash",
      "type": "error"
    },
    {
      "inputs": [],
      "name": "InvalidAnnounceBlockNumber",
      "type": "error"
    },
    {
      "inputs": [],
      "name": "InvalidInactivityThreshold",
      "type": "error"
    },
    {
      "inputs": [],
      "name": "InvalidInitialization",
      "type": "error"
    },
    {
      "inputs": [],
      "name": "InvalidPossibleValidatorCount",
      "type": "error"
    },
    {
      "inputs": [
        {
          "internalType": "address",
          "name": "_value",
          "type": "address"
        }
      ],
      "name": "MiningAddressAlreadyUsed",
      "type": "error"
    },
    {
      "inputs": [],
      "name": "NotInitializing",
      "type": "error"
    },
    {
      "inputs": [
        {
          "internalType": "address",
          "name": "owner",
          "type": "address"
        }
      ],
      "name": "OwnableInvalidOwner",
      "type": "error"
    },
    {
      "inputs": [
        {
          "internalType": "address",
          "name": "account",
          "type": "address"
        }
      ],
      "name": "OwnableUnauthorizedAccount",
      "type": "error"
    },
    {
      "inputs": [
        {
          "internalType": "address",
          "name": "_value",
          "type": "address"
        }
      ],
      "name": "StakingAddressAlreadyUsed",
      "type": "error"
    },
    {
      "inputs": [
        {
          "internalType": "address",
          "name": "_mining",
          "type": "address"
        }
      ],
      "name": "StakingPoolNotExist",
      "type": "error"
    },
    {
      "inputs": [],
      "name": "Unauthorized",
      "type": "error"
    },
    {
      "inputs": [],
      "name": "ValidatorsListEmpty",
      "type": "error"
    },
    {
      "inputs": [],
      "name": "ZeroAddress",
      "type": "error"
    },
    {
      "anonymous": false,
      "inputs": [
        {
          "indexed": false,
          "internalType": "uint64",
          "name": "version",
          "type": "uint64"
        }
      ],
      "name": "Initialized",
      "type": "event"
    },
    {
      "anonymous": false,
      "inputs": [
        {
          "indexed": true,
          "internalType": "address",
          "name": "previousOwner",
          "type": "address"
        },
        {
          "indexed": true,
          "internalType": "address",
          "name": "newOwner",
          "type": "address"
        }
      ],
      "name": "OwnershipTransferred",
      "type": "event"
    },
    {
      "anonymous": false,
      "inputs": [
        {
          "indexed": false,
          "internalType": "address",
          "name": "reportingValidator",
          "type": "address"
        },
        {
          "indexed": false,
          "internalType": "address",
          "name": "maliciousValidator",
          "type": "address"
        },
        {
          "indexed": false,
          "internalType": "uint256",
          "name": "blockNumber",
          "type": "uint256"
        }
      ],
      "name": "ReportedMalicious",
      "type": "event"
    },
    {
      "anonymous": false,
      "inputs": [
        {
          "indexed": false,
          "internalType": "uint256",
          "name": "_value",
          "type": "uint256"
        }
      ],
      "name": "SetBanDuration",
      "type": "event"
    },
    {
      "anonymous": false,
      "inputs": [
        {
          "indexed": false,
          "internalType": "address",
          "name": "_address",
          "type": "address"
        }
      ],
      "name": "SetBonusScoreContract",
      "type": "event"
    },
    {
      "anonymous": false,
      "inputs": [
        {
          "indexed": false,
          "internalType": "uint256",
          "name": "_count",
          "type": "uint256"
        }
      ],
      "name": "SetMaxValidators",
      "type": "event"
    },
    {
      "anonymous": false,
      "inputs": [
        {
          "indexed": false,
          "internalType": "uint256",
          "name": "_value",
          "type": "uint256"
        }
      ],
      "name": "SetValidatorInactivityThreshold",
      "type": "event"
    },
    {
      "anonymous": false,
      "inputs": [
        {
          "indexed": false,
          "internalType": "address",
          "name": "validator",
          "type": "address"
        },
        {
          "indexed": false,
          "internalType": "uint256",
          "name": "timestamp",
          "type": "uint256"
        }
      ],
      "name": "ValidatorAvailable",
      "type": "event"
    },
    {
      "anonymous": false,
      "inputs": [
        {
          "indexed": false,
          "internalType": "address",
          "name": "validator",
          "type": "address"
        },
        {
          "indexed": false,
          "internalType": "uint256",
          "name": "timestamp",
          "type": "uint256"
        }
      ],
      "name": "ValidatorUnavailable",
      "type": "event"
    },
    {
      "inputs": [
        {
          "internalType": "uint256",
          "name": "_blockNumber",
          "type": "uint256"
        },
        {
          "internalType": "bytes32",
          "name": "_blockhash",
          "type": "bytes32"
        }
      ],
      "name": "announceAvailability",
      "outputs": [],
      "stateMutability": "nonpayable",
      "type": "function"
    },
    {
      "inputs": [
        {
          "internalType": "address",
          "name": "_miningAddress",
          "type": "address"
        }
      ],
      "name": "areDelegatorsBanned",
      "outputs": [
        {
          "internalType": "bool",
          "name": "",
          "type": "bool"
        }
      ],
      "stateMutability": "view",
      "type": "function"
    },
    {
      "inputs": [
        {
          "internalType": "address",
          "name": "",
          "type": "address"
        }
      ],
      "name": "banCounter",
      "outputs": [
        {
          "internalType": "uint256",
          "name": "",
          "type": "uint256"
        }
      ],
      "stateMutability": "view",
      "type": "function"
    },
    {
      "inputs": [],
      "name": "banDuration",
      "outputs": [
        {
          "internalType": "uint256",
          "name": "",
          "type": "uint256"
        }
      ],
      "stateMutability": "view",
      "type": "function"
    },
    {
      "inputs": [
        {
          "internalType": "address",
          "name": "",
          "type": "address"
        }
      ],
      "name": "banReason",
      "outputs": [
        {
          "internalType": "bytes32",
          "name": "",
          "type": "bytes32"
        }
      ],
      "stateMutability": "view",
      "type": "function"
    },
    {
      "inputs": [
        {
          "internalType": "address",
          "name": "",
          "type": "address"
        }
      ],
      "name": "bannedDelegatorsUntil",
      "outputs": [
        {
          "internalType": "uint256",
          "name": "",
          "type": "uint256"
        }
      ],
      "stateMutability": "view",
      "type": "function"
    },
    {
      "inputs": [
        {
          "internalType": "address",
          "name": "",
          "type": "address"
        }
      ],
      "name": "bannedUntil",
      "outputs": [
        {
          "internalType": "uint256",
          "name": "",
          "type": "uint256"
        }
      ],
      "stateMutability": "view",
      "type": "function"
    },
    {
      "inputs": [],
      "name": "blockRewardContract",
      "outputs": [
        {
          "internalType": "address",
          "name": "",
          "type": "address"
        }
      ],
      "stateMutability": "view",
      "type": "function"
    },
    {
      "inputs": [],
      "name": "bonusScoreSystem",
      "outputs": [
        {
          "internalType": "contract IBonusScoreSystem",
          "name": "",
          "type": "address"
        }
      ],
      "stateMutability": "view",
      "type": "function"
    },
    {
      "inputs": [
        {
          "internalType": "address",
          "name": "_miningAddress",
          "type": "address"
        }
      ],
      "name": "canCallAnnounceAvailability",
      "outputs": [
        {
          "internalType": "bool",
          "name": "",
          "type": "bool"
        }
      ],
      "stateMutability": "view",
      "type": "function"
    },
    {
      "inputs": [],
      "name": "finalizeChange",
      "outputs": [],
      "stateMutability": "nonpayable",
      "type": "function"
    },
    {
      "inputs": [],
      "name": "forceFinalizeNewValidators",
      "outputs": [],
      "stateMutability": "nonpayable",
      "type": "function"
    },
    {
      "inputs": [],
      "name": "getCurrentValidatorsCount",
      "outputs": [
        {
          "internalType": "uint256",
          "name": "",
          "type": "uint256"
        }
      ],
      "stateMutability": "view",
      "type": "function"
    },
    {
      "inputs": [
        {
          "internalType": "address",
          "name": "_miningAddress",
          "type": "address"
        }
      ],
      "name": "getPendingValidatorKeyGenerationMode",
      "outputs": [
        {
          "internalType": "enum IValidatorSetHbbft.KeyGenMode",
          "name": "",
          "type": "uint8"
        }
      ],
      "stateMutability": "view",
      "type": "function"
    },
    {
      "inputs": [],
      "name": "getPendingValidators",
      "outputs": [
        {
          "internalType": "address[]",
          "name": "",
          "type": "address[]"
        }
      ],
      "stateMutability": "view",
      "type": "function"
    },
    {
      "inputs": [],
      "name": "getPreviousValidators",
      "outputs": [
        {
          "internalType": "address[]",
          "name": "",
          "type": "address[]"
        }
      ],
      "stateMutability": "view",
      "type": "function"
    },
    {
      "inputs": [
        {
          "internalType": "address",
          "name": "_miningAddress",
          "type": "address"
        }
      ],
      "name": "getPublicKey",
      "outputs": [
        {
          "internalType": "bytes",
          "name": "",
          "type": "bytes"
        }
      ],
      "stateMutability": "view",
      "type": "function"
    },
    {
      "inputs": [
        {
          "internalType": "uint256[]",
          "name": "_likelihood",
          "type": "uint256[]"
        },
        {
          "internalType": "uint256",
          "name": "_likelihoodSum",
          "type": "uint256"
        },
        {
          "internalType": "uint256",
          "name": "_randomNumber",
          "type": "uint256"
        }
      ],
      "name": "getRandomIndex",
      "outputs": [
        {
          "internalType": "uint256",
          "name": "",
          "type": "uint256"
        }
      ],
      "stateMutability": "pure",
      "type": "function"
    },
    {
      "inputs": [],
      "name": "getStakingContract",
      "outputs": [
        {
          "internalType": "address",
          "name": "",
          "type": "address"
        }
      ],
      "stateMutability": "view",
      "type": "function"
    },
    {
      "inputs": [
        {
          "internalType": "uint256",
          "name": "_possibleValidatorCount",
          "type": "uint256"
        }
      ],
      "name": "getValidatorCountSweetSpot",
      "outputs": [
        {
          "internalType": "uint256",
          "name": "",
          "type": "uint256"
        }
      ],
      "stateMutability": "pure",
      "type": "function"
    },
    {
      "inputs": [],
      "name": "getValidators",
      "outputs": [
        {
          "internalType": "address[]",
          "name": "",
          "type": "address[]"
        }
      ],
      "stateMutability": "view",
      "type": "function"
    },
    {
      "inputs": [],
      "name": "handleFailedKeyGeneration",
      "outputs": [],
      "stateMutability": "nonpayable",
      "type": "function"
    },
    {
      "inputs": [
        {
          "internalType": "address",
          "name": "_contractOwner",
          "type": "address"
        },
        {
          "components": [
            {
              "internalType": "address",
              "name": "blockRewardContract",
              "type": "address"
            },
            {
              "internalType": "address",
              "name": "randomContract",
              "type": "address"
            },
            {
              "internalType": "address",
              "name": "stakingContract",
              "type": "address"
            },
            {
              "internalType": "address",
              "name": "keyGenHistoryContract",
              "type": "address"
            },
            {
              "internalType": "address",
              "name": "bonusScoreContract",
              "type": "address"
            },
            {
              "internalType": "uint256",
              "name": "validatorInactivityThreshold",
              "type": "uint256"
            }
          ],
          "internalType": "struct IValidatorSetHbbft.ValidatorSetParams",
          "name": "_params",
          "type": "tuple"
        },
        {
          "internalType": "address[]",
          "name": "_initialMiningAddresses",
          "type": "address[]"
        },
        {
          "internalType": "address[]",
          "name": "_initialStakingAddresses",
          "type": "address[]"
        }
      ],
      "name": "initialize",
      "outputs": [],
      "stateMutability": "nonpayable",
      "type": "function"
    },
    {
      "inputs": [],
      "name": "isFullHealth",
      "outputs": [
        {
          "internalType": "bool",
          "name": "",
          "type": "bool"
        }
      ],
      "stateMutability": "view",
      "type": "function"
    },
    {
      "inputs": [
        {
          "internalType": "address",
          "name": "_miningAddress",
          "type": "address"
        }
      ],
      "name": "isPendingValidator",
      "outputs": [
        {
          "internalType": "bool",
          "name": "",
          "type": "bool"
        }
      ],
      "stateMutability": "view",
      "type": "function"
    },
    {
      "inputs": [
        {
          "internalType": "address",
          "name": "_miningAddress",
          "type": "address"
        }
      ],
      "name": "isReportValidatorValid",
      "outputs": [
        {
          "internalType": "bool",
          "name": "",
          "type": "bool"
        }
      ],
      "stateMutability": "view",
      "type": "function"
    },
    {
      "inputs": [
        {
          "internalType": "address",
          "name": "",
          "type": "address"
        }
      ],
      "name": "isValidator",
      "outputs": [
        {
          "internalType": "bool",
          "name": "",
          "type": "bool"
        }
      ],
      "stateMutability": "view",
      "type": "function"
    },
    {
      "inputs": [
        {
          "internalType": "address",
          "name": "_stakingAddress",
          "type": "address"
        }
      ],
      "name": "isValidatorAbandoned",
      "outputs": [
        {
          "internalType": "bool",
          "name": "",
          "type": "bool"
        }
      ],
      "stateMutability": "view",
      "type": "function"
    },
    {
      "inputs": [
        {
          "internalType": "address",
          "name": "_miningAddress",
          "type": "address"
        }
      ],
      "name": "isValidatorBanned",
      "outputs": [
        {
          "internalType": "bool",
          "name": "",
          "type": "bool"
        }
      ],
      "stateMutability": "view",
      "type": "function"
    },
    {
      "inputs": [
        {
          "internalType": "address",
          "name": "_miningAddress",
          "type": "address"
        }
      ],
      "name": "isValidatorOrPending",
      "outputs": [
        {
          "internalType": "bool",
          "name": "",
          "type": "bool"
        }
      ],
      "stateMutability": "view",
      "type": "function"
    },
    {
      "inputs": [
        {
          "internalType": "address",
          "name": "",
          "type": "address"
        }
      ],
      "name": "isValidatorPrevious",
      "outputs": [
        {
          "internalType": "bool",
          "name": "",
          "type": "bool"
        }
      ],
      "stateMutability": "view",
      "type": "function"
    },
    {
      "inputs": [],
      "name": "keyGenHistoryContract",
      "outputs": [
        {
          "internalType": "contract IKeyGenHistory",
          "name": "",
          "type": "address"
        }
      ],
      "stateMutability": "view",
      "type": "function"
    },
    {
      "inputs": [
        {
          "internalType": "address",
          "name": "_miningAddress",
          "type": "address"
        },
        {
          "internalType": "uint256",
          "name": "_blockNumber",
          "type": "uint256"
        }
      ],
      "name": "maliceReportedForBlock",
      "outputs": [
        {
          "internalType": "address[]",
          "name": "",
          "type": "address[]"
        }
      ],
      "stateMutability": "view",
      "type": "function"
    },
    {
      "inputs": [],
      "name": "maxValidators",
      "outputs": [
        {
          "internalType": "uint256",
          "name": "",
          "type": "uint256"
        }
      ],
      "stateMutability": "view",
      "type": "function"
    },
    {
      "inputs": [
        {
          "internalType": "address",
          "name": "",
          "type": "address"
        }
      ],
      "name": "miningByStakingAddress",
      "outputs": [
        {
          "internalType": "address",
          "name": "",
          "type": "address"
        }
      ],
      "stateMutability": "view",
      "type": "function"
    },
    {
      "inputs": [],
      "name": "newValidatorSet",
      "outputs": [],
      "stateMutability": "nonpayable",
      "type": "function"
    },
    {
      "inputs": [
        {
          "internalType": "address",
          "name": "_stakingAddress",
          "type": "address"
        }
      ],
      "name": "notifyUnavailability",
      "outputs": [],
      "stateMutability": "nonpayable",
      "type": "function"
    },
    {
      "inputs": [],
      "name": "owner",
      "outputs": [
        {
          "internalType": "address",
          "name": "",
          "type": "address"
        }
      ],
      "stateMutability": "view",
      "type": "function"
    },
    {
      "inputs": [
        {
          "internalType": "address",
          "name": "_stakingAddress",
          "type": "address"
        }
      ],
      "name": "publicKeyByStakingAddress",
      "outputs": [
        {
          "internalType": "bytes",
          "name": "",
          "type": "bytes"
        }
      ],
      "stateMutability": "view",
      "type": "function"
    },
    {
      "inputs": [],
      "name": "randomContract",
      "outputs": [
        {
          "internalType": "address",
          "name": "",
          "type": "address"
        }
      ],
      "stateMutability": "view",
      "type": "function"
    },
    {
      "inputs": [
        {
          "internalType": "address[]",
          "name": "_miningAddresses",
          "type": "address[]"
        }
      ],
      "name": "removeMaliciousValidators",
      "outputs": [],
      "stateMutability": "nonpayable",
      "type": "function"
    },
    {
      "inputs": [],
      "name": "renounceOwnership",
      "outputs": [],
      "stateMutability": "nonpayable",
      "type": "function"
    },
    {
      "inputs": [
        {
          "internalType": "address",
          "name": "_maliciousMiningAddress",
          "type": "address"
        },
        {
          "internalType": "uint256",
          "name": "_blockNumber",
          "type": "uint256"
        },
        {
          "internalType": "bytes",
          "name": "",
          "type": "bytes"
        }
      ],
      "name": "reportMalicious",
      "outputs": [],
      "stateMutability": "nonpayable",
      "type": "function"
    },
    {
      "inputs": [
        {
          "internalType": "address",
          "name": "_reportingMiningAddress",
          "type": "address"
        },
        {
          "internalType": "address",
          "name": "_maliciousMiningAddress",
          "type": "address"
        },
        {
          "internalType": "uint256",
          "name": "_blockNumber",
          "type": "uint256"
        }
      ],
      "name": "reportMaliciousCallable",
      "outputs": [
        {
          "internalType": "bool",
          "name": "callable",
          "type": "bool"
        },
        {
          "internalType": "bool",
          "name": "removeReportingValidator",
          "type": "bool"
        }
      ],
      "stateMutability": "view",
      "type": "function"
    },
    {
      "inputs": [
        {
          "internalType": "address",
          "name": "",
          "type": "address"
        },
        {
          "internalType": "uint256",
          "name": "",
          "type": "uint256"
        }
      ],
      "name": "reportingCounter",
      "outputs": [
        {
          "internalType": "uint256",
          "name": "",
          "type": "uint256"
        }
      ],
      "stateMutability": "view",
      "type": "function"
    },
    {
      "inputs": [
        {
          "internalType": "uint256",
          "name": "",
          "type": "uint256"
        }
      ],
      "name": "reportingCounterTotal",
      "outputs": [
        {
          "internalType": "uint256",
          "name": "",
          "type": "uint256"
        }
      ],
      "stateMutability": "view",
      "type": "function"
    },
    {
      "inputs": [
        {
          "internalType": "uint256",
          "name": "_banDuration",
          "type": "uint256"
        }
      ],
      "name": "setBanDuration",
      "outputs": [],
      "stateMutability": "nonpayable",
      "type": "function"
    },
    {
      "inputs": [
        {
          "internalType": "address",
          "name": "_miningAddress",
          "type": "address"
        },
        {
          "internalType": "uint256",
          "name": "_bannedUntil",
          "type": "uint256"
        }
      ],
      "name": "setBannedUntil",
      "outputs": [],
      "stateMutability": "nonpayable",
      "type": "function"
    },
    {
      "inputs": [
        {
          "internalType": "address",
          "name": "_address",
          "type": "address"
        }
      ],
      "name": "setBlockRewardContract",
      "outputs": [],
      "stateMutability": "nonpayable",
      "type": "function"
    },
    {
      "inputs": [
        {
          "internalType": "address",
          "name": "_address",
          "type": "address"
        }
      ],
      "name": "setBonusScoreSystemAddress",
      "outputs": [],
      "stateMutability": "nonpayable",
      "type": "function"
    },
    {
      "inputs": [
        {
          "internalType": "bool",
          "name": "_healthy",
          "type": "bool"
        }
      ],
      "name": "setIsFullHealth",
      "outputs": [],
      "stateMutability": "nonpayable",
      "type": "function"
    },
    {
      "inputs": [
        {
          "internalType": "address",
          "name": "_address",
          "type": "address"
        }
      ],
      "name": "setKeyGenHistoryContract",
      "outputs": [],
      "stateMutability": "nonpayable",
      "type": "function"
    },
    {
      "inputs": [
        {
          "internalType": "uint256",
          "name": "_maxValidators",
          "type": "uint256"
        }
      ],
      "name": "setMaxValidators",
      "outputs": [],
      "stateMutability": "nonpayable",
      "type": "function"
    },
    {
      "inputs": [
        {
          "internalType": "address",
          "name": "_address",
          "type": "address"
        }
      ],
      "name": "setRandomContract",
      "outputs": [],
      "stateMutability": "nonpayable",
      "type": "function"
    },
    {
      "inputs": [
        {
          "internalType": "address",
          "name": "_miningAddress",
          "type": "address"
        },
        {
          "internalType": "address",
          "name": "_stakingAddress",
          "type": "address"
        }
      ],
      "name": "setStakingAddress",
      "outputs": [],
      "stateMutability": "nonpayable",
      "type": "function"
    },
    {
      "inputs": [
        {
          "internalType": "address",
          "name": "_address",
          "type": "address"
        }
      ],
      "name": "setStakingContract",
      "outputs": [],
      "stateMutability": "nonpayable",
      "type": "function"
    },
    {
      "inputs": [
        {
          "internalType": "address",
          "name": "_validator",
          "type": "address"
        },
        {
          "internalType": "uint256",
          "name": "_timestamp",
          "type": "uint256"
        }
      ],
      "name": "setValidatorAvailableSince",
      "outputs": [],
      "stateMutability": "nonpayable",
      "type": "function"
    },
    {
      "inputs": [
        {
          "internalType": "uint256",
          "name": "_seconds",
          "type": "uint256"
        }
      ],
      "name": "setValidatorInactivityThreshold",
      "outputs": [],
      "stateMutability": "nonpayable",
      "type": "function"
    },
    {
      "inputs": [
        {
          "internalType": "bytes16",
          "name": "_ip",
          "type": "bytes16"
        },
        {
          "internalType": "bytes2",
          "name": "_port",
          "type": "bytes2"
        }
      ],
      "name": "setValidatorInternetAddress",
      "outputs": [],
      "stateMutability": "nonpayable",
      "type": "function"
    },
    {
      "inputs": [
        {
          "internalType": "address",
          "name": "",
          "type": "address"
        }
      ],
      "name": "stakingByMiningAddress",
      "outputs": [
        {
          "internalType": "address",
          "name": "",
          "type": "address"
        }
      ],
      "stateMutability": "view",
      "type": "function"
    },
    {
      "inputs": [],
      "name": "stakingContract",
      "outputs": [
        {
          "internalType": "contract IStakingHbbft",
          "name": "",
          "type": "address"
        }
      ],
      "stateMutability": "view",
      "type": "function"
    },
    {
      "inputs": [
        {
          "internalType": "address",
          "name": "newOwner",
          "type": "address"
        }
      ],
      "name": "transferOwnership",
      "outputs": [],
      "stateMutability": "nonpayable",
      "type": "function"
    },
    {
      "inputs": [
        {
          "internalType": "address",
          "name": "",
          "type": "address"
        }
      ],
      "name": "validatorAvailableSince",
      "outputs": [
        {
          "internalType": "uint256",
          "name": "",
          "type": "uint256"
        }
      ],
      "stateMutability": "view",
      "type": "function"
    },
    {
      "inputs": [
        {
          "internalType": "address",
          "name": "",
          "type": "address"
        }
      ],
      "name": "validatorAvailableSinceLastWrite",
      "outputs": [
        {
          "internalType": "uint256",
          "name": "",
          "type": "uint256"
        }
      ],
      "stateMutability": "view",
      "type": "function"
    },
    {
      "inputs": [
        {
          "internalType": "address",
          "name": "",
          "type": "address"
        }
      ],
      "name": "validatorCounter",
      "outputs": [
        {
          "internalType": "uint256",
          "name": "",
          "type": "uint256"
        }
      ],
      "stateMutability": "view",
      "type": "function"
    },
    {
      "inputs": [],
      "name": "validatorInactivityThreshold",
      "outputs": [
        {
          "internalType": "uint256",
          "name": "",
          "type": "uint256"
        }
      ],
      "stateMutability": "view",
      "type": "function"
    },
    {
      "stateMutability": "payable",
      "type": "receive"
    }
  ],
  "bytecode": "0x6080604052348015600f57600080fd5b506016601a565b60ca565b7ff0c57e16840df040f15088dc2f81fe391c3923bec73e23a9662efc9c229c6a00805468010000000000000000900460ff161560695760405163f92ee8a960e01b815260040160405180910390fd5b80546001600160401b039081161460c75780546001600160401b0319166001600160401b0390811782556040519081527fc7f505b2f371ae2175ee4913f4499e1f2633a7b5936321eed1cdaeb6115181d29060200160405180910390a15b50565b614e45806100d96000396000f3fe6080604052600436106103fc5760003560e01c80638e68dce41161020d578063b56b366b11610128578063ed7cba62116100bb578063f2fde38b1161008a578063f51726f01161006f578063f51726f014610ddc578063facd743b14610dfc578063fb64aac114610e2c57600080fd5b8063f2fde38b14610d9c578063f373020614610dbc57600080fd5b8063ed7cba6214610d1a578063ee99205c14610d47578063eebc7a3914610d67578063efd0494714610d7c57600080fd5b8063c9e9694d116100f7578063c9e9694d14610c63578063ccf69e9b14610c90578063d2dd2f1614610cb0578063e6d8d31814610cdd57600080fd5b8063b56b366b14610bee578063b7ab4db514610c0e578063bd0d69bc14610c23578063c476dd4014610c4357600080fd5b8063a670eb56116101a0578063ac5ba7bc1161016f578063ac5ba7bc14610b6c578063ade1900a14610b8c578063b41832e414610ba1578063b47aef1f14610bce57600080fd5b8063a670eb5614610a93578063a68b5b7614610aca578063a881c5fd14610afa578063a92252ae14610b3357600080fd5b80639dd373b9116101dc5780639dd373b9146109f7578063a0d16cad14610a34578063a42bdee914610a54578063a49904e514610a7457600080fd5b80638e68dce4146109795780639881933d146109975780639bb2ea5a146109b75780639d6fc1d1146109d757600080fd5b8063426d3cd61161031857806360e5c520116102ab578063752862111161027a578063857cdbb81161025f578063857cdbb8146108df57806387eed76a1461090c5780638da5cb5b1461093c57600080fd5b806375286211146108a857806385602ad5146108bd57600080fd5b806360e5c520146108305780636b949ae81461085d578063715018a614610873578063717662ee1461088857600080fd5b8063581e93d9116102e7578063581e93d9146107b95780635836d08a146107d95780635ccee1de146108065780635d5fcbce1461081b57600080fd5b8063426d3cd61461071d57806343bcce9f1461073357806351cc66461461075357806356b54bae1461079957600080fd5b80631761edb11161039057806327a3e16b1161035f57806327a3e16b146106735780633755243b146106b05780633da74fc6146106e85780633f1b5d1f1461070857600080fd5b80631761edb1146105c35780631a7fa237146105e35780631d0cd4c6146106105780631ee4d0bc1461063d57600080fd5b80630933e3a7116103cc5780630933e3a7146104e55780630a4c10721461052257806314e28d9014610542578063155ef6031461056f57600080fd5b806253517514610408578063030360d21461045b5780630636bdac146104a157806308ac5256146104c157600080fd5b3661040357005b600080fd5b34801561041457600080fd5b5061043e610423366004614566565b600b602052600090815260409020546001600160a01b031681565b6040516001600160a01b0390911681526020015b60405180910390f35b34801561046757600080fd5b5061049f61047636600461458a565b6001600160a01b0390911660009081526005602090815260408083208490556006909152902055565b005b3480156104ad57600080fd5b5061049f6104bc366004614602565b610e4c565b3480156104cd57600080fd5b506104d760155481565b604051908152602001610452565b3480156104f157600080fd5b5061049f610500366004614566565b600c80546001600160a01b0319166001600160a01b0392909216919091179055565b34801561052e57600080fd5b5061049f61053d366004614644565b610ee1565b34801561054e57600080fd5b5061056261055d366004614566565b610f15565b604051610452919061467d565b34801561057b57600080fd5b5061049f61058a3660046146b3565b60188054911515600160a01b027fffffffffffffffffffffff00ffffffffffffffffffffffffffffffffffffffff909216919091179055565b3480156105cf57600080fd5b506104d76105de36600461473b565b6110fe565b3480156105ef57600080fd5b506104d76105fe366004614566565b60066020526000908152604090205481565b34801561061c57600080fd5b506104d761062b366004614566565b60046020526000908152604090205481565b34801561064957600080fd5b5061043e610658366004614566565b600f602052600090815260409020546001600160a01b031681565b34801561067f57600080fd5b5061049f61068e366004614566565b600880546001600160a01b0319166001600160a01b0392909216919091179055565b3480156106bc57600080fd5b506104d76106cb36600461458a565b600d60209081526000928352604080842090915290825290205481565b3480156106f457600080fd5b5060185461043e906001600160a01b031681565b34801561071457600080fd5b5061049f61113e565b34801561072957600080fd5b506104d760165481565b34801561073f57600080fd5b5061049f61074e3660046147e1565b611148565b34801561075f57600080fd5b5061049f61076e36600461458a565b6001600160a01b03919091166000908152601460209081526040808320939093556013905220429055565b3480156107a557600080fd5b5060085461043e906001600160a01b031681565b3480156107c557600080fd5b5061049f6107d4366004614803565b6112b8565b3480156107e557600080fd5b506104d76107f4366004614566565b60056020526000908152604090205481565b34801561081257600080fd5b5061049f6112fc565b34801561082757600080fd5b506000546104d7565b34801561083c57600080fd5b506104d761084b366004614566565b60146020526000908152604090205481565b34801561086957600080fd5b506104d760175481565b34801561087f57600080fd5b5061049f61133e565b34801561089457600080fd5b5061049f6108a3366004614566565b611350565b3480156108b457600080fd5b5061049f6113b3565b3480156108c957600080fd5b506108d2611542565b604051610452919061481c565b3480156108eb57600080fd5b506108ff6108fa366004614566565b6115a4565b604051610452919061488d565b34801561091857600080fd5b5061092c610927366004614566565b611634565b6040519015158152602001610452565b34801561094857600080fd5b507f9016d09d72d40fdae2fd8ceac6b6234c7706214fd39c1cd1e609a0528c199300546001600160a01b031661043e565b34801561098557600080fd5b506010546001600160a01b031661043e565b3480156109a357600080fd5b506108ff6109b2366004614566565b611823565b3480156109c357600080fd5b5061049f6109d2366004614803565b611856565b3480156109e357600080fd5b5061092c6109f2366004614566565b611893565b348015610a0357600080fd5b5061049f610a12366004614566565b601080546001600160a01b0319166001600160a01b0392909216919091179055565b348015610a4057600080fd5b5061092c610a4f366004614566565b611900565b348015610a6057600080fd5b5061049f610a6f3660046148c0565b61192b565b348015610a8057600080fd5b50601854600160a01b900460ff1661092c565b348015610a9f57600080fd5b50610ab3610aae366004614929565b611a0f565b604080519215158352901515602083015201610452565b348015610ad657600080fd5b5061092c610ae5366004614566565b600a6020526000908152604090205460ff1681565b348015610b0657600080fd5b5061092c610b15366004614566565b6001600160a01b031660009081526006602052604090205442111590565b348015610b3f57600080fd5b5061092c610b4e366004614566565b6001600160a01b031660009081526005602052604090205442111590565b348015610b7857600080fd5b5061049f610b87366004614803565b611c30565b348015610b9857600080fd5b5061049f611c91565b348015610bad57600080fd5b506104d7610bbc366004614566565b60126020526000908152604090205481565b348015610bda57600080fd5b5060115461043e906001600160a01b031681565b348015610bfa57600080fd5b506108d2610c0936600461458a565b61242c565b348015610c1a57600080fd5b506108d26124ab565b348015610c2f57600080fd5b5061049f610c3e366004614566565b61250b565b348015610c4f57600080fd5b5061049f610c5e36600461496a565b612588565b348015610c6f57600080fd5b506104d7610c7e366004614566565b60076020526000908152604090205481565b348015610c9c57600080fd5b50600c5461043e906001600160a01b031681565b348015610cbc57600080fd5b506104d7610ccb366004614803565b600e6020526000908152604090205481565b348015610ce957600080fd5b5061049f610cf8366004614566565b601180546001600160a01b0319166001600160a01b0392909216919091179055565b348015610d2657600080fd5b506104d7610d35366004614566565b60136020526000908152604090205481565b348015610d5357600080fd5b5060105461043e906001600160a01b031681565b348015610d7357600080fd5b506108d261277f565b348015610d8857600080fd5b506104d7610d97366004614803565b6127df565b348015610da857600080fd5b5061049f610db7366004614566565b61283c565b348015610dc857600080fd5b5061049f610dd73660046149f3565b612877565b348015610de857600080fd5b5061092c610df7366004614566565b612bfd565b348015610e0857600080fd5b5061092c610e17366004614566565b60096020526000908152604090205460ff1681565b348015610e3857600080fd5b5061092c610e47366004614566565b612c54565b3373fffffffffffffffffffffffffffffffffffffffe14610e7f576040516282b42960e81b815260040160405180910390fd5b610edd8282808060200260200160405190810160405280939291908181526020018383602002808284376000920191909152507f696e6163746976650000000000000000000000000000000000000000000000009250612cb2915050565b5050565b6010546001600160a01b03163314610f0b576040516282b42960e81b815260040160405180910390fd5b610edd8282612d15565b6000610f2082612c54565b610f2c57506000919050565b60115460408051637be02c2b60e01b8152815160009384936001600160a01b0390911692637be02c2b92600480830193928290030181865afa158015610f76573d6000803e3d6000fd5b505050506040513d601f19601f82011682018060405250810190610f9a9190614ab9565b60015491935091506fffffffffffffffffffffffffffffffff8316101561104f576011546040516399de1a4360e01b81526001600160a01b03868116600483015260009216906399de1a4390602401600060405180830381865afa158015611006573d6000803e3d6000fd5b505050506040513d6000823e601f3d908101601f1916820160405261102e9190810190614aec565b9050805160000361104457506001949350505050565b506002949350505050565b6001546fffffffffffffffffffffffffffffffff821610156110f457601154604051631baeec3f60e31b81526001600160a01b0386811660048301529091169063dd7761f890602401602060405180830381865afa1580156110b5573d6000803e3d6000fd5b505050506040513d601f19601f820116820180604052508101906110d99190614b80565b6000036110ea575060039392505050565b5060049392505050565b5060059392505050565b600061113684848460405160200161111891815260200190565b6040516020818303038152906040528051906020012060001c612eb3565b949350505050565b611146612f1c565b565b61115133612bfd565b61116e5760405163a82bfa5560e01b815260040160405180910390fd5b43821061118e576040516341d852df60e01b815260040160405180910390fd5b4361119a836010614baf565b116111b8576040516310548f8360e01b815260040160405180910390fd5b808240146111d95760405163fe1864e160e01b815260040160405180910390fd5b33600090815260146020908152604080832042908190556013835281842081905560059092529091205481111561127a57601054336000908152600f602052604090819020549051631ec56e5360e21b81526001600160a01b039182166004820152911690637b15b94c90602401600060405180830381600087803b15801561126157600080fd5b505af1158015611275573d6000803e3d6000fd5b505050505b60408051338152602081018390527f705d65dbee06de60e6465d68371ce849d5a1ead53e53d01a413b2b01393aa022910160405180910390a1505050565b6112c06130c1565b60168190556040518181527fd96fea9b050464a608f3e2c09daa82bf1d666bc65655bf9f24b576ad5efc6f6f906020015b60405180910390a150565b6008546001600160a01b03163314611326576040516282b42960e81b815260040160405180910390fd5b6040805160008152602081019091526111469061311c565b6113466130c1565b61114660006137ee565b6010546001600160a01b0316331461137a576040516282b42960e81b815260040160405180910390fd5b6001600160a01b039081166000908152600b60209081526040808320549093168252601481528282208290556013905220429055565b50565b6008546001600160a01b031633146113dd576040516282b42960e81b815260040160405180910390fd5b600154156113f5576113ed61385f565b6113f5612f1c565b6113fd613936565b611405613aba565b601060009054906101000a90046001600160a01b03166001600160a01b031663ee435f556040518163ffffffff1660e01b8152600401600060405180830381600087803b15801561145557600080fd5b505af1158015611469573d6000803e3d6000fd5b50505050601160009054906101000a90046001600160a01b03166001600160a01b0316632c6f194d6040518163ffffffff1660e01b8152600401600060405180830381600087803b1580156114bd57600080fd5b505af11580156114d1573d6000803e3d6000fd5b50505050600160006114e391906144ce565b601054604051638247a23960e01b81524260048201526001600160a01b0390911690638247a23990602401600060405180830381600087803b15801561152857600080fd5b505af115801561153c573d6000803e3d6000fd5b50505050565b6060600280548060200260200160405190810160405280929190818152602001828054801561159a57602002820191906000526020600020905b81546001600160a01b0316815260019091019060200180831161157c575b5050505050905090565b6010546001600160a01b038281166000908152600f602052604090819020549051634e9b426d60e01b815290821660048201526060929190911690634e9b426d906024015b600060405180830381865afa158015611606573d6000803e3d6000fd5b505050506040513d6000823e601f3d908101601f1916820160405261162e9190810190614aec565b92915050565b6001600160a01b038116600090815260096020526040812054819060ff16801561167557506001600160a01b03831660009081526005602052604090205442115b9050601060009054906101000a90046001600160a01b03166001600160a01b031663794c0c686040518163ffffffff1660e01b8152600401602060405180830381865afa1580156116ca573d6000803e3d6000fd5b505050506040513d601f19601f820116820180604052508101906116ee9190614b80565b6000036116fb5792915050565b60105460408051634f9a8d8f60e01b815290516005926001600160a01b031691634f9a8d8f9160048083019260209291908290030181865afa158015611745573d6000803e3d6000fd5b505050506040513d601f19601f820116820180604052508101906117699190614b80565b6117739190614bd8565b601060009054906101000a90046001600160a01b03166001600160a01b0316639b03d7446040518163ffffffff1660e01b8152600401602060405180830381865afa1580156117c6573d6000803e3d6000fd5b505050506040513d601f19601f820116820180604052508101906117ea9190614b80565b6117f49042614bec565b1161162e576001600160a01b0383166000908152600a602052604090205460ff16818061113657509392505050565b601054604051634e9b426d60e01b81526001600160a01b0383811660048301526060921690634e9b426d906024016115e9565b61185e6130c1565b60158190556040518181527fd3c3674d241eb3fb81da09f8c56bdf72b08c8094de786997b95cde95d0ecfff5906020016112f1565b6001600160a01b038082166000908152600b6020908152604080832054909316808352601490915291812054909190156118d05750600092915050565b6001600160a01b0381166000908152601360205260408120546118f39042614bec565b6017541115949350505050565b6001600160a01b03811660009081526009602052604081205460ff168061162e575061162e82612c54565b336000908152600f60205260409020546001600160a01b031680611969576040516303a949c760e61b81523360048201526024015b60405180910390fd5b601054604051637b0a0f9b60e01b81526001600160a01b0383811660048301526fffffffffffffffffffffffffffffffff19861660248301527fffff0000000000000000000000000000000000000000000000000000000000008516604483015290911690637b0a0f9b906064015b600060405180830381600087803b1580156119f257600080fd5b505af1158015611a06573d6000803e3d6000fd5b50505050505050565b600080611a1b85611634565b611a2a57506000905080611c28565b611a3384611634565b611a4257506000905080611c28565b6000546001811115611b555760105460408051630f29818d60e31b815290516000926001600160a01b03169163794c0c689160048083019260209291908290030181865afa158015611a98573d6000803e3d6000fd5b505050506040513d601f19601f82011682018060405250810190611abc9190614b80565b6001600160a01b0388166000908152600d60209081526040808320848452825280832054600e9092528220549293509190828210611b2157611aff600186614bec565b611b098484614bec565b611b1490600a614bff565b611b1e9190614bd8565b90505b611b2c856032614bff565b83118015611b3957508083115b15611b505760006001965096505050505050611c28565b505050505b4380851115611b6c57600080935093505050611c28565b60648082118015611b855750611b828183614bec565b86105b15611b995760008094509450505050611c28565b6001600160a01b03871660009081526003602090815260408083208984529091528120805490915b81811015611c19578a6001600160a01b0316838281548110611be557611be5614c16565b6000918252602090912001546001600160a01b031603611c115760008097509750505050505050611c28565b600101611bc1565b50600160009650965050505050505b935093915050565b611c386130c1565b62093a80811015611c5c57604051635d9561d360e11b815260040160405180910390fd5b60178190556040518181527f578d5da2255dc6640f3ba0d8ce1bc20877ca696956ebe3c333a3eb8f49fb395f906020016112f1565b6008546001600160a01b03163314611cbb576040516282b42960e81b815260040160405180910390fd5b601060009054906101000a90046001600160a01b03166001600160a01b03166322e3d9866040518163ffffffff1660e01b8152600401602060405180830381865afa158015611d0e573d6000803e3d6000fd5b505050506040513d601f19601f82011682018060405250810190611d329190614b80565b421015611d525760405163112bb3df60e11b815260040160405180910390fd5b601060009054906101000a90046001600160a01b03166001600160a01b031663a5d54f656040518163ffffffff1660e01b8152600401600060405180830381865afa158015611da5573d6000803e3d6000fd5b505050506040513d6000823e601f3d908101601f19168201604052611dcd9190810190614c2c565b511561114657600154156111465760018054600091611deb91614bec565b67ffffffffffffffff811115611e0357611e036146d0565b604051908082528060200260200182016040528015611e2c578160200160208202803683370190505b50905060008080601160009054906101000a90046001600160a01b03166001600160a01b0316637be02c2b6040518163ffffffff1660e01b81526004016040805180830381865afa158015611e85573d6000803e3d6000fd5b505050506040513d601f19601f82011682018060405250810190611ea99190614ab9565b9150915060005b6001548110156121c557600060018281548110611ecf57611ecf614c16565b60009182526020822001546001546001600160a01b0390911692506fffffffffffffffffffffffffffffffff86161015611f7f576011546040516399de1a4360e01b81526001600160a01b03848116600483015260009216906399de1a4390602401600060405180830381865afa158015611f4e573d6000803e3d6000fd5b505050506040513d6000823e601f3d908101601f19168201604052611f769190810190614aec565b5111905061200e565b6001546fffffffffffffffffffffffffffffffff8516101561200e57601154604051631baeec3f60e31b81526001600160a01b038481166004830152600092169063dd7761f890602401602060405180830381865afa158015611fe6573d6000803e3d6000fd5b505050506040513d601f19601f8201168201806040525081019061200a9190614b80565b1190505b8015612081576001838154811061202757612027614c16565b9060005260206000200160009054906101000a90046001600160a01b031687878151811061205757612057614c16565b6001600160a01b03909216602092830291909101909101528561207981614cbb565b9650506121bb565b601854604051632bdfe5f760e11b81526001600160a01b038481166004830152909116906357bfcbee90602401600060405180830381600087803b1580156120c857600080fd5b505af11580156120dc573d6000803e3d6000fd5b50506010546001600160a01b038581166000908152600f602052604090819020549051631dbe84a360e11b8152908216600482015291169250633b7d09469150602401600060405180830381600087803b15801561213957600080fd5b505af115801561214d573d6000803e3d6000fd5b5050506001600160a01b03831660009081526014602090815260408083208390556013909152902042905550604080516001600160a01b03841681524260208201527f7ec36d1734626f8b3686f8791130187e1633c843b1995003e788cd2b33d56903910160405180910390a15b5050600101611eb0565b50601154604051632f8ba4bf60e11b81526001600160a01b0390911690635f17497e906121f790600190600401614cd4565b600060405180830381600087803b15801561221157600080fd5b505af1158015612225573d6000803e3d6000fd5b50505050601160009054906101000a90046001600160a01b03166001600160a01b031663adddc0cf6040518163ffffffff1660e01b8152600401600060405180830381600087803b15801561227957600080fd5b505af115801561228d573d6000803e3d6000fd5b5050505060008367ffffffffffffffff8111156122ac576122ac6146d0565b6040519080825280602002602001820160405280156122d5578160200160208202803683370190505b50905060005b8481101561232f578581815181106122f5576122f5614c16565b602002602001015182828151811061230f5761230f614c16565b6001600160a01b03909216602092830291909101909101526001016122db565b50601060009054906101000a90046001600160a01b03166001600160a01b031663adddc0cf6040518163ffffffff1660e01b8152600401600060405180830381600087803b15801561238057600080fd5b505af1158015612394573d6000803e3d6000fd5b505050506000601060009054906101000a90046001600160a01b03166001600160a01b031663a5d54f656040518163ffffffff1660e01b8152600401600060405180830381865afa1580156123ed573d6000803e3d6000fd5b505050506040513d6000823e601f3d908101601f191682016040526124159190810190614c2c565b511115612425576124258161311c565b5050505050565b6001600160a01b038216600090815260036020908152604080832084845282529182902080548351818402810184019094528084526060939283018282801561249e57602002820191906000526020600020905b81546001600160a01b03168152600190910190602001808311612480575b5050505050905092915050565b6060600080548060200260200160405190810160405280929190818152602001828054801561159a576020028201919060005260206000209081546001600160a01b0316815260019091019060200180831161157c575050505050905090565b6125136130c1565b6001600160a01b03811661253a5760405163d92e233d60e01b815260040160405180910390fd5b601880546001600160a01b0319166001600160a01b0383169081179091556040519081527fd4244d1f8acb4860e17399636c6b7875c75656aafb5cb3d0163d7305eace7172906020016112f1565b3361259281613c1a565b6000806125a0838888611a0f565b9150915081612620578015612618576040805160018082528183019092526000916020808301908036833701905050905083816000815181106125e5576125e5614c16565b60200260200101906001600160a01b031690816001600160a01b03168152505061261681637370616d60e01b612cb2565b505b50505061153c565b6001600160a01b0387811660008181526003602090815260408083208b8452825280832080546001810182558185529383902090930180546001600160a01b0319169589169586179055805194855290840192909252908201889052907f729a19138e072a5a8d3a56d74ae0b5c84530f09aacd6e12b24c5b2fdc3f8a3d09060600160405180910390a1600080549060038211156126d8576126c3826002614bff565b83546126d0906003614bff565b1190506126eb565b825482906126e7906002614bff565b1190505b801561277357604080516001808252818301909252600091602080830190803683370190505090508a8160008151811061272757612727614c16565b60200260200101906001600160a01b031690816001600160a01b031681525050612771817f6d616c6963696f75730000000000000000000000000000000000000000000000612cb2565b505b50505050505050505050565b6060600180548060200260200160405190810160405280929190818152602001828054801561159a576020028201919060005260206000209081546001600160a01b0316815260019091019060200180831161157c575050505050905090565b6000816000036128025760405163a63671a560e01b815260040160405180910390fd5b600482101561280f575090565b600361281c600184614bec565b6128269190614bd8565b612831906003614bff565b61162e906001614baf565b6128446130c1565b6001600160a01b03811661286e57604051631e4fbdf760e01b815260006004820152602401611960565b6113b0816137ee565b7ff0c57e16840df040f15088dc2f81fe391c3923bec73e23a9662efc9c229c6a00805468010000000000000000810460ff16159067ffffffffffffffff166000811580156128c25750825b905060008267ffffffffffffffff1660011480156128df5750303b155b9050811580156128ed575080155b1561290b5760405163f92ee8a960e01b815260040160405180910390fd5b845467ffffffffffffffff19166001178555831561293f57845468ff00000000000000001916680100000000000000001785555b6129488a613cf2565b6001600160a01b038b1661296f5760405163d92e233d60e01b815260040160405180910390fd5b6000889003612991576040516322b8b72360e21b815260040160405180910390fd5b8786146129b15760405163ac9e459360e01b815260040160405180910390fd5b6129ba8b613db5565b6129c760208b018b614566565b600880546001600160a01b0319166001600160a01b03929092169190911790556129f760408b0160208c01614566565b600c80546001600160a01b0319166001600160a01b0392909216919091179055612a2760608b0160408c01614566565b601080546001600160a01b0319166001600160a01b0392909216919091179055612a5760808b0160608c01614566565b601180546001600160a01b0319166001600160a01b0392909216919091179055612a8760a08b0160808c01614566565b601880546001600160a01b0319166001600160a01b039290921691909117905560a08a013560175560005b88811015612b9b5760008a8a83818110612ace57612ace614c16565b9050602002016020810190612ae39190614566565b60008054600180820183557f290decd9548b62a8d60345a988386fc84ba6bc95484008f6362f93160ef3e56390910180546001600160a01b0319166001600160a01b0385169081179091558252600960209081526040808420805460ff1916909317909255601290528120805492935090612b5d83614cbb565b9190505550612b92818a8a85818110612b7857612b78614c16565b9050602002016020810190612b8d9190614566565b612d15565b50600101612ab2565b506019601555600c601655831561277157845468ff000000000000000019168555604051600181527fc7f505b2f371ae2175ee4913f4499e1f2633a7b5936321eed1cdaeb6115181d29060200160405180910390a15050505050505050505050565b6001600160a01b038181166000908152600f6020526040812054909116612c2657506000919050565b6001600160a01b03821660009081526014602052604090205415612c4c57506000919050565b506001919050565b600154600090815b81811015612ca85760018181548110612c7757612c77614c16565b6000918252602090912001546001600160a01b0390811690851603612ca0575060019392505050565b600101612c5c565b5060009392505050565b60005b8251811015612d1057612ce1838281518110612cd357612cd3614c16565b602002602001015183613dc6565b15612d0857612d08838281518110612cfb57612cfb614c16565b6020026020010151613ff5565b600101612cb5565b505050565b6001600160a01b038216612d3c5760405163d92e233d60e01b815260040160405180910390fd5b6001600160a01b038116612d635760405163d92e233d60e01b815260040160405180910390fd5b806001600160a01b0316826001600160a01b031603612d95576040516307d9394560e01b815260040160405180910390fd5b6001600160a01b038181166000908152600b602052604090205416151580612dd657506001600160a01b038181166000908152600f60205260409020541615155b15612dff576040516326d65e0360e21b81526001600160a01b0382166004820152602401611960565b6001600160a01b038281166000908152600b602052604090205416151580612e4057506001600160a01b038281166000908152600f60205260409020541615155b15612e695760405163342ed6a360e01b81526001600160a01b0383166004820152602401611960565b6001600160a01b039081166000818152600b602090815260408083208054959096166001600160a01b03199586168117909655948252600f90529290922080549091169091179055565b600080612ec08484614d18565b90506000805b828211612f0657868181518110612edf57612edf614c16565b602002602001015182612ef29190614baf565b915080612efe81614cbb565b915050612ec6565b612f11600182614bec565b979650505050505050565b6060600080805480602002602001604051908101604052809291908181526020018280548015612f7557602002820191906000526020600020905b81546001600160a01b03168152600190910190602001808311612f57575b50505050509150600090505b8151811015612fdc57600060096000848481518110612fa257612fa2614c16565b6020908102919091018101516001600160a01b03168252810191909152604001600020805460ff1916911515919091179055600101612f81565b60018054612fec916000916144ec565b50600080548060200260200160405190810160405280929190818152602001828054801561304357602002820191906000526020600020905b81546001600160a01b03168152600190910190602001808311613025575b50505050509150600090505b8151811015610edd57600082828151811061306c5761306c614c16565b6020908102919091018101516001600160a01b0381166000908152600983526040808220805460ff191660011790556012909352918220805491935090916130b383614cbb565b90915550505060010161304f565b336130f37f9016d09d72d40fdae2fd8ceac6b6234c7706214fd39c1cd1e609a0528c199300546001600160a01b031690565b6001600160a01b0316146111465760405163118cdaa760e01b8152336004820152602401611960565b6010546040805163a5d54f6560e01b815290516000926001600160a01b03169163a5d54f6591600480830192869291908290030181865afa158015613165573d6000803e3d6000fd5b505050506040513d6000823e601f3d908101601f1916820160405261318d9190810190614c2c565b9050600060155482511015806131a257508151155b6131b5576131b082516127df565b6131b9565b6015545b905080825111156135f45781516010546040805163957950a760e01b8152905160009283926001600160a01b039091169163957950a79160048082019286929091908290030181865afa158015613214573d6000803e3d6000fd5b505050506040513d6000823e601f3d908101601f1916820160405261323c9190810190614d2c565b9150915060008467ffffffffffffffff81111561325b5761325b6146d0565b604051908082528060200260200182016040528015613284578160200160208202803683370190505b5090506000805b88518110156134095760005b86811015613400578982815181106132b1576132b1614c16565b60200260200101516001600160a01b03168982815181106132d4576132d4614c16565b60200260200101516001600160a01b0316036133f8578982815181106132fc576132fc614c16565b602002602001015184848151811061331657613316614c16565b6001600160a01b03909216602092830291909101909101528261333881614cbb565b93505085818151811061334d5761334d614c16565b6020026020010151856133609190614bec565b94508661336c81614dc5565b97505088878151811061338157613381614c16565b602002602001015189828151811061339b5761339b614c16565b60200260200101906001600160a01b031690816001600160a01b0316815250508587815181106133cd576133cd614c16565b60200260200101518682815181106133e7576133e7614c16565b602002602001018181525050613400565b600101613297565b5060010161328b565b50600c5460408051634191031360e11b815290516000926001600160a01b03169163832206269160048083019260209291908290030181865afa158015613454573d6000803e3d6000fd5b505050506040513d601f19601f820116820180604052508101906134789190614b80565b90506000855111801561348b5750600084115b156135e95760005b83518110156135df57604080514284186020820152016040516020818303038152906040528051906020012060001c915060006134d1878785612eb3565b90508981815181106134e5576134e5614c16565b60200260200101518583815181106134ff576134ff614c16565b60200260200101906001600160a01b031690816001600160a01b03168152505086818151811061353157613531614c16565b6020026020010151866135449190614bec565b95508761355081614dc5565b98505089888151811061356557613565614c16565b60200260200101518a828151811061357f5761357f614c16565b60200260200101906001600160a01b031690816001600160a01b0316815250508688815181106135b1576135b1614c16565b60200260200101518782815181106135cb576135cb614c16565b602090810291909101015250600101613493565b506135e9836140dc565b5050505050506135fd565b6135fd826140dc565b601154604051632f8ba4bf60e11b81526001600160a01b0390911690635f17497e9061362e90600090600401614cd4565b600060405180830381600087803b15801561364857600080fd5b505af115801561365c573d6000803e3d6000fd5b5050505081516000146136d257601060009054906101000a90046001600160a01b03166001600160a01b0316631555371c6040518163ffffffff1660e01b8152600401600060405180830381600087803b1580156136b957600080fd5b505af11580156136cd573d6000803e3d6000fd5b505050505b601060009054906101000a90046001600160a01b03166001600160a01b03166322e3d9866040518163ffffffff1660e01b8152600401602060405180830381865afa158015613725573d6000803e3d6000fd5b505050506040513d601f19601f820116820180604052508101906137499190614b80565b421115612d105760105460408051631171ecc360e11b815290516001600160a01b0390921691639e72c6359183916322e3d986916004808201926020929091908290030181865afa1580156137a2573d6000803e3d6000fd5b505050506040513d601f19601f820116820180604052508101906137c69190614b80565b6137d09042614bec565b6040518263ffffffff1660e01b81526004016119d891815260200190565b7f9016d09d72d40fdae2fd8ceac6b6234c7706214fd39c1cd1e609a0528c19930080546001600160a01b031981166001600160a01b03848116918217845560405192169182907f8be0079c531659141344cd1fd0a4f28419497f9722a3daafe3b4186f6b6457e090600090a3505050565b60025460005b818110156138c2576000600a60006002848154811061388657613886614c16565b6000918252602080832091909101546001600160a01b031683528201929092526040019020805460ff1916911515919091179055600101613865565b505060008054905b81811015613926576001600a60008084815481106138ea576138ea614c16565b6000918252602080832091909101546001600160a01b031683528201929092526040019020805460ff19169115159190911790556001016138ca565b60008054612d10916002916144ec565b6010546040805163a5d54f6560e01b815290516000926001600160a01b03169163a5d54f6591600480830192869291908290030181865afa15801561397f573d6000803e3d6000fd5b505050506040513d6000823e601f3d908101601f191682016040526139a79190810190614c2c565b805190915060005b81811015612d10576000600b60008584815181106139cf576139cf614c16565b6020908102919091018101516001600160a01b039081168352828201939093526040918201600090812054909316808452600990915291205490915060ff1680613a2f57506001600160a01b038116600090815260146020526040902054155b15613a3a5750613ab2565b6018546001600160a01b03828116600081815260146020526040908190205490516392f2944360e01b8152600481019290925260248201529116906392f2944390604401600060405180830381600087803b158015613a9857600080fd5b505af1158015613aac573d6000803e3d6000fd5b50505050505b6001016139af565b6010546040805163df6f55f560e01b815290516000926001600160a01b03169163df6f55f591600480830192869291908290030181865afa158015613b03573d6000803e3d6000fd5b505050506040513d6000823e601f3d908101601f19168201604052613b2b9190810190614c2c565b805190915060005b81811015612d10576000600b6000858481518110613b5357613b53614c16565b6020908102919091018101516001600160a01b039081168352828201939093526040918201600090812054909316808452601490915291205490915015613b9a5750613c12565b6018546001600160a01b03828116600081815260136020526040908190205490516351150d5760e01b8152600481019290925260248201529116906351150d5790604401600060405180830381600087803b158015613bf857600080fd5b505af1158015613c0c573d6000803e3d6000fd5b50505050505b600101613b33565b613c2381611634565b613c2a5750565b60105460408051630f29818d60e31b815290516000926001600160a01b03169163794c0c689160048083019260209291908290030181865afa158015613c74573d6000803e3d6000fd5b505050506040513d601f19601f82011682018060405250810190613c989190614b80565b6001600160a01b0383166000908152600d602090815260408083208484529091528120805492935090613cca83614cbb565b90915550506000818152600e60205260408120805491613ce983614cbb565b91905055505050565b6000613d016020830183614566565b6001600160a01b03161480613d2e57506000613d236040830160208401614566565b6001600160a01b0316145b80613d5157506000613d466060830160408401614566565b6001600160a01b0316145b80613d7457506000613d696080830160608401614566565b6001600160a01b0316145b80613d9757506000613d8c60a0830160808401614566565b6001600160a01b0316145b156113b05760405163d92e233d60e01b815260040160405180910390fd5b613dbd614358565b6113b0816143a6565b6001600160a01b03821660009081526005602052604081205442111581613deb6143ae565b6001600160a01b0386166000908152600460205260408120805492935090613e1283614cbb565b90915550506001600160a01b0385166000908152600560209081526040808320849055600790915290208490558115613e505760009250505061162e565b6001600160a01b038581166000908152600660209081526040808320859055600f90915290819020546010549151631dbe84a360e11b815290831660048201819052929190911690633b7d094690602401600060405180830381600087803b158015613ebb57600080fd5b505af1158015613ecf573d6000803e3d6000fd5b50506000549150506001819003613eed57600094505050505061162e565b60005b81811015613fe757876001600160a01b031660008281548110613f1557613f15614c16565b6000918252602090912001546001600160a01b031603613fdf576000613f3c600184614bec565b81548110613f4c57613f4c614c16565b600091825260208220015481546001600160a01b03909116919083908110613f7657613f76614c16565b6000918252602082200180546001600160a01b0319166001600160a01b039390931692909217909155805480613fae57613fae614ddc565b600082815260209020810160001990810180546001600160a01b0319169055019055506001945061162e9350505050565b600101613ef0565b506000979650505050505050565b60105460408051630f29818d60e31b815290516000926001600160a01b03169163794c0c689160048083019260209291908290030181865afa15801561403f573d6000803e3d6000fd5b505050506040513d601f19601f820116820180604052508101906140639190614b80565b6000818152600e60209081526040808320546001600160a01b0387168452600d8352818420858552909252822080549290559192508082106140c8576000838152600e6020526040812080548392906140bd908490614bec565b9091555061153c9050565b50506000908152600e602052604081205550565b6140e8600160006144ce565b80516000036142dc5760008054905b8181101561427d57600080828154811061411357614113614c16565b6000918252602080832091909101546001600160a01b03908116808452600f90925260409283902054601054935163a711e6a160e01b8152908216600482018190529294509192169063a711e6a190602401602060405180830381865afa158015614182573d6000803e3d6000fd5b505050506040513d601f19601f820116820180604052508101906141a69190614df2565b8015614223575060105460405162e9ab0360e81b81526001600160a01b038381166004830181905260248301529091169063e9ab030090604401602060405180830381865afa1580156141fd573d6000803e3d6000fd5b505050506040513d601f19601f820116820180604052508101906142219190614b80565b155b15614273576001805480820182556000919091527fb10e2d527612073b26eecdfd717e6a320cf44b4afac2b0732d9fcbe2b7fa0cf60180546001600160a01b0319166001600160a01b0384161790555b50506001016140f7565b50600154600003610edd5760016000808154811061429d5761429d614c16565b60009182526020808320909101548354600181018555938352912090910180546001600160a01b0319166001600160a01b039092169190911790555050565b805160005b81811015612d10576001600b600085848151811061430157614301614c16565b6020908102919091018101516001600160a01b0390811683528282019390935260409091016000908120548454600181810187559583529290912090910180546001600160a01b03191691909216179055016142e1565b7ff0c57e16840df040f15088dc2f81fe391c3923bec73e23a9662efc9c229c6a005468010000000000000000900460ff1661114657604051631afcd79f60e31b815260040160405180910390fd5b612844614358565b60105460408051631171ecc360e11b815290516000924292849284926001600160a01b0316916322e3d9869160048083019260209291908290030181865afa1580156143fe573d6000803e3d6000fd5b505050506040513d601f19601f820116820180604052508101906144229190614b80565b61442c9190614bec565b905080601060009054906101000a90046001600160a01b03166001600160a01b0316634f9a8d8f6040518163ffffffff1660e01b8152600401602060405180830381865afa158015614482573d6000803e3d6000fd5b505050506040513d601f19601f820116820180604052508101906144a69190614b80565b6016546144b39190614bff565b6144bd9084614baf565b6144c79190614baf565b9250505090565b50805460008255906000526020600020908101906113b0919061453c565b82805482825590600052602060002090810192821561452c5760005260206000209182015b8281111561452c578254825591600101919060010190614511565b5061453892915061453c565b5090565b5b80821115614538576000815560010161453d565b6001600160a01b03811681146113b057600080fd5b60006020828403121561457857600080fd5b813561458381614551565b9392505050565b6000806040838503121561459d57600080fd5b82356145a881614551565b946020939093013593505050565b60008083601f8401126145c857600080fd5b50813567ffffffffffffffff8111156145e057600080fd5b6020830191508360208260051b85010111156145fb57600080fd5b9250929050565b6000806020838503121561461557600080fd5b823567ffffffffffffffff81111561462c57600080fd5b614638858286016145b6565b90969095509350505050565b6000806040838503121561465757600080fd5b823561466281614551565b9150602083013561467281614551565b809150509250929050565b602081016006831061469f57634e487b7160e01b600052602160045260246000fd5b91905290565b80151581146113b057600080fd5b6000602082840312156146c557600080fd5b8135614583816146a5565b634e487b7160e01b600052604160045260246000fd5b604051601f8201601f1916810167ffffffffffffffff8111828210171561470f5761470f6146d0565b604052919050565b600067ffffffffffffffff821115614731576147316146d0565b5060051b60200190565b60008060006060848603121561475057600080fd5b833567ffffffffffffffff81111561476757600080fd5b8401601f8101861361477857600080fd5b8035602061478d61478883614717565b6146e6565b82815260059290921b830181019181810190898411156147ac57600080fd5b938201935b838510156147ca578435825293820193908201906147b1565b999188013598505060409096013595945050505050565b600080604083850312156147f457600080fd5b50508035926020909101359150565b60006020828403121561481557600080fd5b5035919050565b6020808252825182820181905260009190848201906040850190845b8181101561485d5783516001600160a01b031683529284019291840191600101614838565b50909695505050505050565b60005b8381101561488457818101518382015260200161486c565b50506000910152565b60208152600082518060208401526148ac816040850160208701614869565b601f01601f19169190910160400192915050565b600080604083850312156148d357600080fd5b82356fffffffffffffffffffffffffffffffff19811681146148f457600080fd5b915060208301357fffff0000000000000000000000000000000000000000000000000000000000008116811461467257600080fd5b60008060006060848603121561493e57600080fd5b833561494981614551565b9250602084013561495981614551565b929592945050506040919091013590565b6000806000806060858703121561498057600080fd5b843561498b81614551565b935060208501359250604085013567ffffffffffffffff808211156149af57600080fd5b818701915087601f8301126149c357600080fd5b8135818111156149d257600080fd5b8860208285010111156149e457600080fd5b95989497505060200194505050565b600080600080600080868803610120811215614a0e57600080fd5b8735614a1981614551565b965060c0601f1982011215614a2d57600080fd5b5060208701945060e087013567ffffffffffffffff80821115614a4f57600080fd5b614a5b8a838b016145b6565b9096509450610100890135915080821115614a7557600080fd5b50614a8289828a016145b6565b979a9699509497509295939492505050565b80516fffffffffffffffffffffffffffffffff81168114614ab457600080fd5b919050565b60008060408385031215614acc57600080fd5b614ad583614a94565b9150614ae360208401614a94565b90509250929050565b600060208284031215614afe57600080fd5b815167ffffffffffffffff80821115614b1657600080fd5b818401915084601f830112614b2a57600080fd5b815181811115614b3c57614b3c6146d0565b614b4f601f8201601f19166020016146e6565b9150808252856020828501011115614b6657600080fd5b614b77816020840160208601614869565b50949350505050565b600060208284031215614b9257600080fd5b5051919050565b634e487b7160e01b600052601160045260246000fd5b8082018082111561162e5761162e614b99565b634e487b7160e01b600052601260045260246000fd5b600082614be757614be7614bc2565b500490565b8181038181111561162e5761162e614b99565b808202811582820484141761162e5761162e614b99565b634e487b7160e01b600052603260045260246000fd5b60006020808385031215614c3f57600080fd5b825167ffffffffffffffff811115614c5657600080fd5b8301601f81018513614c6757600080fd5b8051614c7561478882614717565b81815260059190911b82018301908381019087831115614c9457600080fd5b928401925b82841015612f11578351614cac81614551565b82529284019290840190614c99565b600060018201614ccd57614ccd614b99565b5060010190565b6020808252825482820181905260008481528281209092916040850190845b8181101561485d5783546001600160a01b031683526001938401939285019201614cf3565b600082614d2757614d27614bc2565b500690565b60008060408385031215614d3f57600080fd5b825167ffffffffffffffff811115614d5657600080fd5b8301601f81018513614d6757600080fd5b80516020614d7761478883614717565b82815260059290921b83018101918181019088841115614d9657600080fd5b938201935b83851015614db457845182529382019390820190614d9b565b969091015195979596505050505050565b600081614dd457614dd4614b99565b506000190190565b634e487b7160e01b600052603160045260246000fd5b600060208284031215614e0457600080fd5b8151614583816146a556fea26469706673582212200be8e8d0fc491d98357c86d67b0d209a3b4c91f7ef9ec7386aed888b761e20e264736f6c63430008190033",
  "linkReferences": {},
  "deployedLinkReferences": {}
}