{
  "_format": "hh-sol-artifact-1",
  "contractName": "ValidatorSetHbbft",
  "sourceName": "contracts/ValidatorSetHbbft.sol",
  "abi": [
    {
      "inputs": [],
      "stateMutability": "nonpayable",
      "type": "constructor"
    },
    {
      "inputs": [],
      "name": "AnnounceBlockNumberTooOld",
      "type": "error"
    },
    {
      "inputs": [],
      "name": "CantAnnounceAvailability",
      "type": "error"
    },
    {
      "inputs": [],
      "name": "EpochNotYetzFinished",
      "type": "error"
    },
    {
      "inputs": [],
      "name": "InitialAddressesLengthMismatch",
      "type": "error"
    },
    {
      "inputs": [],
      "name": "InitialValidatorsEmpty",
      "type": "error"
    },
    {
      "inputs": [],
      "name": "InvalidAddressPair",
      "type": "error"
    },
    {
      "inputs": [],
      "name": "InvalidAnnounceBlockHash",
      "type": "error"
    },
    {
      "inputs": [],
      "name": "InvalidAnnounceBlockNumber",
      "type": "error"
    },
    {
      "inputs": [],
      "name": "InvalidInactivityThreshold",
      "type": "error"
    },
    {
      "inputs": [],
      "name": "InvalidInitialization",
      "type": "error"
    },
    {
      "inputs": [],
      "name": "InvalidPossibleValidatorCount",
      "type": "error"
    },
    {
      "inputs": [
        {
          "internalType": "address",
          "name": "_value",
          "type": "address"
        }
      ],
      "name": "MiningAddressAlreadyUsed",
      "type": "error"
    },
    {
      "inputs": [],
      "name": "NotInitializing",
      "type": "error"
    },
    {
      "inputs": [
        {
          "internalType": "address",
          "name": "owner",
          "type": "address"
        }
      ],
      "name": "OwnableInvalidOwner",
      "type": "error"
    },
    {
      "inputs": [
        {
          "internalType": "address",
          "name": "account",
          "type": "address"
        }
      ],
      "name": "OwnableUnauthorizedAccount",
      "type": "error"
    },
    {
      "inputs": [
        {
          "internalType": "address",
          "name": "_value",
          "type": "address"
        }
      ],
      "name": "StakingAddressAlreadyUsed",
      "type": "error"
    },
    {
      "inputs": [
        {
          "internalType": "address",
          "name": "_mining",
          "type": "address"
        }
      ],
      "name": "StakingPoolNotExist",
      "type": "error"
    },
    {
      "inputs": [],
      "name": "Unauthorized",
      "type": "error"
    },
    {
      "inputs": [],
      "name": "ValidatorsListEmpty",
      "type": "error"
    },
    {
      "inputs": [],
      "name": "ZeroAddress",
      "type": "error"
    },
    {
      "anonymous": false,
      "inputs": [
        {
          "indexed": false,
          "internalType": "uint64",
          "name": "version",
          "type": "uint64"
        }
      ],
      "name": "Initialized",
      "type": "event"
    },
    {
      "anonymous": false,
      "inputs": [
        {
          "indexed": true,
          "internalType": "address",
          "name": "previousOwner",
          "type": "address"
        },
        {
          "indexed": true,
          "internalType": "address",
          "name": "newOwner",
          "type": "address"
        }
      ],
      "name": "OwnershipTransferred",
      "type": "event"
    },
    {
      "anonymous": false,
      "inputs": [
        {
          "indexed": false,
          "internalType": "address",
          "name": "_address",
          "type": "address"
        }
      ],
      "name": "SetBonusScoreContract",
      "type": "event"
    },
    {
      "anonymous": false,
      "inputs": [
        {
          "indexed": false,
          "internalType": "address",
          "name": "_address",
          "type": "address"
        }
      ],
      "name": "SetConnectivityTrackerContract",
      "type": "event"
    },
    {
      "anonymous": false,
      "inputs": [
        {
          "indexed": false,
          "internalType": "uint256",
          "name": "_count",
          "type": "uint256"
        }
      ],
      "name": "SetMaxValidators",
      "type": "event"
    },
    {
      "anonymous": false,
      "inputs": [
        {
          "indexed": false,
          "internalType": "uint256",
          "name": "_value",
          "type": "uint256"
        }
      ],
      "name": "SetValidatorInactivityThreshold",
      "type": "event"
    },
    {
      "anonymous": false,
      "inputs": [
        {
          "indexed": false,
          "internalType": "address",
          "name": "validator",
          "type": "address"
        },
        {
          "indexed": false,
          "internalType": "uint256",
          "name": "timestamp",
          "type": "uint256"
        }
      ],
      "name": "ValidatorAvailable",
      "type": "event"
    },
    {
      "anonymous": false,
      "inputs": [
        {
          "indexed": false,
          "internalType": "address",
          "name": "validator",
          "type": "address"
        },
        {
          "indexed": false,
          "internalType": "uint256",
          "name": "timestamp",
          "type": "uint256"
        }
      ],
      "name": "ValidatorUnavailable",
      "type": "event"
    },
    {
      "inputs": [
        {
          "internalType": "address",
          "name": "",
          "type": "address"
        }
      ],
      "name": "_unused2",
      "outputs": [
        {
          "internalType": "uint256",
          "name": "",
          "type": "uint256"
        }
      ],
      "stateMutability": "view",
      "type": "function"
    },
    {
      "inputs": [
        {
          "internalType": "address",
          "name": "",
          "type": "address"
        }
      ],
      "name": "_unused3",
      "outputs": [
        {
          "internalType": "uint256",
          "name": "",
          "type": "uint256"
        }
      ],
      "stateMutability": "view",
      "type": "function"
    },
    {
      "inputs": [
        {
          "internalType": "address",
          "name": "",
          "type": "address"
        }
      ],
      "name": "_unused4",
      "outputs": [
        {
          "internalType": "uint256",
          "name": "",
          "type": "uint256"
        }
      ],
      "stateMutability": "view",
      "type": "function"
    },
    {
      "inputs": [
        {
          "internalType": "address",
          "name": "",
          "type": "address"
        }
      ],
      "name": "_unused5",
      "outputs": [
        {
          "internalType": "bytes32",
          "name": "",
          "type": "bytes32"
        }
      ],
      "stateMutability": "view",
      "type": "function"
    },
    {
      "inputs": [
        {
          "internalType": "address",
          "name": "",
          "type": "address"
        },
        {
          "internalType": "uint256",
          "name": "",
          "type": "uint256"
        }
      ],
      "name": "_unused6",
      "outputs": [
        {
          "internalType": "uint256",
          "name": "",
          "type": "uint256"
        }
      ],
      "stateMutability": "view",
      "type": "function"
    },
    {
      "inputs": [
        {
          "internalType": "uint256",
          "name": "",
          "type": "uint256"
        }
      ],
      "name": "_unused7",
      "outputs": [
        {
          "internalType": "uint256",
          "name": "",
          "type": "uint256"
        }
      ],
      "stateMutability": "view",
      "type": "function"
    },
    {
      "inputs": [],
      "name": "_unused8",
      "outputs": [
        {
          "internalType": "uint256",
          "name": "",
          "type": "uint256"
        }
      ],
      "stateMutability": "view",
      "type": "function"
    },
    {
      "inputs": [
        {
          "internalType": "uint256",
          "name": "_blockNumber",
          "type": "uint256"
        },
        {
          "internalType": "bytes32",
          "name": "_blockhash",
          "type": "bytes32"
        }
      ],
      "name": "announceAvailability",
      "outputs": [],
      "stateMutability": "nonpayable",
      "type": "function"
    },
    {
      "inputs": [],
      "name": "blockRewardContract",
      "outputs": [
        {
          "internalType": "address",
          "name": "",
          "type": "address"
        }
      ],
      "stateMutability": "view",
      "type": "function"
    },
    {
      "inputs": [],
      "name": "bonusScoreSystem",
      "outputs": [
        {
          "internalType": "contract IBonusScoreSystem",
          "name": "",
          "type": "address"
        }
      ],
      "stateMutability": "view",
      "type": "function"
    },
    {
      "inputs": [
        {
          "internalType": "address",
          "name": "_miningAddress",
          "type": "address"
        }
      ],
      "name": "canCallAnnounceAvailability",
      "outputs": [
        {
          "internalType": "bool",
          "name": "",
          "type": "bool"
        }
      ],
      "stateMutability": "view",
      "type": "function"
    },
    {
      "inputs": [],
      "name": "connectivityTracker",
      "outputs": [
        {
          "internalType": "address",
          "name": "",
          "type": "address"
        }
      ],
      "stateMutability": "view",
      "type": "function"
    },
    {
      "inputs": [],
      "name": "finalizeChange",
      "outputs": [],
      "stateMutability": "nonpayable",
      "type": "function"
    },
    {
      "inputs": [],
      "name": "getCurrentValidatorsCount",
      "outputs": [
        {
          "internalType": "uint256",
          "name": "",
          "type": "uint256"
        }
      ],
      "stateMutability": "view",
      "type": "function"
    },
    {
      "inputs": [
        {
          "internalType": "address",
          "name": "_miningAddress",
          "type": "address"
        }
      ],
      "name": "getPendingValidatorKeyGenerationMode",
      "outputs": [
        {
          "internalType": "enum IValidatorSetHbbft.KeyGenMode",
          "name": "",
          "type": "uint8"
        }
      ],
      "stateMutability": "view",
      "type": "function"
    },
    {
      "inputs": [],
      "name": "getPendingValidators",
      "outputs": [
        {
          "internalType": "address[]",
          "name": "",
          "type": "address[]"
        }
      ],
      "stateMutability": "view",
      "type": "function"
    },
    {
      "inputs": [],
      "name": "getPreviousValidators",
      "outputs": [
        {
          "internalType": "address[]",
          "name": "",
          "type": "address[]"
        }
      ],
      "stateMutability": "view",
      "type": "function"
    },
    {
      "inputs": [
        {
          "internalType": "address",
          "name": "_miningAddress",
          "type": "address"
        }
      ],
      "name": "getPublicKey",
      "outputs": [
        {
          "internalType": "bytes",
          "name": "",
          "type": "bytes"
        }
      ],
      "stateMutability": "view",
      "type": "function"
    },
    {
      "inputs": [],
      "name": "getStakingContract",
      "outputs": [
        {
          "internalType": "address",
          "name": "",
          "type": "address"
        }
      ],
      "stateMutability": "view",
      "type": "function"
    },
    {
      "inputs": [
        {
          "internalType": "uint256",
          "name": "_possibleValidatorCount",
          "type": "uint256"
        }
      ],
      "name": "getValidatorCountSweetSpot",
      "outputs": [
        {
          "internalType": "uint256",
          "name": "",
          "type": "uint256"
        }
      ],
      "stateMutability": "pure",
      "type": "function"
    },
    {
      "inputs": [],
      "name": "getValidators",
      "outputs": [
        {
          "internalType": "address[]",
          "name": "",
          "type": "address[]"
        }
      ],
      "stateMutability": "view",
      "type": "function"
    },
    {
      "inputs": [],
      "name": "handleFailedKeyGeneration",
      "outputs": [],
      "stateMutability": "nonpayable",
      "type": "function"
    },
    {
      "inputs": [
        {
          "internalType": "address",
          "name": "_contractOwner",
          "type": "address"
        },
        {
          "components": [
            {
              "internalType": "address",
              "name": "blockRewardContract",
              "type": "address"
            },
            {
              "internalType": "address",
              "name": "randomContract",
              "type": "address"
            },
            {
              "internalType": "address",
              "name": "stakingContract",
              "type": "address"
            },
            {
              "internalType": "address",
              "name": "keyGenHistoryContract",
              "type": "address"
            },
            {
              "internalType": "address",
              "name": "bonusScoreContract",
              "type": "address"
            },
            {
              "internalType": "address",
              "name": "connectivityTrackerContract",
              "type": "address"
            },
            {
              "internalType": "uint256",
              "name": "validatorInactivityThreshold",
              "type": "uint256"
            }
          ],
          "internalType": "struct IValidatorSetHbbft.ValidatorSetParams",
          "name": "_params",
          "type": "tuple"
        },
        {
          "internalType": "address[]",
          "name": "_initialMiningAddresses",
          "type": "address[]"
        },
        {
          "internalType": "address[]",
          "name": "_initialStakingAddresses",
          "type": "address[]"
        }
      ],
      "name": "initialize",
      "outputs": [],
      "stateMutability": "nonpayable",
      "type": "function"
    },
    {
      "inputs": [
        {
          "internalType": "address",
          "name": "_connectivityTracker",
          "type": "address"
        }
      ],
      "name": "initializeV2",
      "outputs": [],
      "stateMutability": "nonpayable",
      "type": "function"
    },
    {
      "inputs": [],
      "name": "isFullHealth",
      "outputs": [
        {
          "internalType": "bool",
          "name": "",
          "type": "bool"
        }
      ],
      "stateMutability": "view",
      "type": "function"
    },
    {
      "inputs": [
        {
          "internalType": "address",
          "name": "_miningAddress",
          "type": "address"
        }
      ],
      "name": "isPendingValidator",
      "outputs": [
        {
          "internalType": "bool",
          "name": "",
          "type": "bool"
        }
      ],
      "stateMutability": "view",
      "type": "function"
    },
    {
      "inputs": [
        {
          "internalType": "address",
          "name": "",
          "type": "address"
        }
      ],
      "name": "isValidator",
      "outputs": [
        {
          "internalType": "bool",
          "name": "",
          "type": "bool"
        }
      ],
      "stateMutability": "view",
      "type": "function"
    },
    {
      "inputs": [
        {
          "internalType": "address",
          "name": "_stakingAddress",
          "type": "address"
        }
      ],
      "name": "isValidatorAbandoned",
      "outputs": [
        {
          "internalType": "bool",
          "name": "",
          "type": "bool"
        }
      ],
      "stateMutability": "view",
      "type": "function"
    },
    {
      "inputs": [
        {
          "internalType": "address",
          "name": "_miningAddress",
          "type": "address"
        }
      ],
      "name": "isValidatorOrPending",
      "outputs": [
        {
          "internalType": "bool",
          "name": "",
          "type": "bool"
        }
      ],
      "stateMutability": "view",
      "type": "function"
    },
    {
      "inputs": [
        {
          "internalType": "address",
          "name": "",
          "type": "address"
        }
      ],
      "name": "isValidatorPrevious",
      "outputs": [
        {
          "internalType": "bool",
          "name": "",
          "type": "bool"
        }
      ],
      "stateMutability": "view",
      "type": "function"
    },
    {
      "inputs": [],
      "name": "keyGenHistoryContract",
      "outputs": [
        {
          "internalType": "contract IKeyGenHistory",
          "name": "",
          "type": "address"
        }
      ],
      "stateMutability": "view",
      "type": "function"
    },
    {
      "inputs": [],
      "name": "maxValidators",
      "outputs": [
        {
          "internalType": "uint256",
          "name": "",
          "type": "uint256"
        }
      ],
      "stateMutability": "view",
      "type": "function"
    },
    {
      "inputs": [
        {
          "internalType": "address",
          "name": "",
          "type": "address"
        }
      ],
      "name": "miningByStakingAddress",
      "outputs": [
        {
          "internalType": "address",
          "name": "",
          "type": "address"
        }
      ],
      "stateMutability": "view",
      "type": "function"
    },
    {
      "inputs": [],
      "name": "newValidatorSet",
      "outputs": [],
      "stateMutability": "nonpayable",
      "type": "function"
    },
    {
      "inputs": [
        {
          "internalType": "address",
          "name": "_miningAddress",
          "type": "address"
        }
      ],
      "name": "notifyUnavailability",
      "outputs": [],
      "stateMutability": "nonpayable",
      "type": "function"
    },
    {
      "inputs": [],
      "name": "owner",
      "outputs": [
        {
          "internalType": "address",
          "name": "",
          "type": "address"
        }
      ],
      "stateMutability": "view",
      "type": "function"
    },
    {
      "inputs": [
        {
          "internalType": "address",
          "name": "_stakingAddress",
          "type": "address"
        }
      ],
      "name": "publicKeyByStakingAddress",
      "outputs": [
        {
          "internalType": "bytes",
          "name": "",
          "type": "bytes"
        }
      ],
      "stateMutability": "view",
      "type": "function"
    },
    {
      "inputs": [],
      "name": "randomContract",
      "outputs": [
        {
          "internalType": "address",
          "name": "",
          "type": "address"
        }
      ],
      "stateMutability": "view",
      "type": "function"
    },
    {
      "inputs": [],
      "name": "renounceOwnership",
      "outputs": [],
      "stateMutability": "nonpayable",
      "type": "function"
    },
    {
      "inputs": [
        {
          "internalType": "address",
          "name": "_address",
          "type": "address"
        }
      ],
      "name": "setBonusScoreSystemAddress",
      "outputs": [],
      "stateMutability": "nonpayable",
      "type": "function"
    },
    {
      "inputs": [
        {
          "internalType": "address",
          "name": "_address",
          "type": "address"
        }
      ],
      "name": "setConnectivityTracker",
      "outputs": [],
      "stateMutability": "nonpayable",
      "type": "function"
    },
    {
      "inputs": [
        {
          "internalType": "uint256",
          "name": "_maxValidators",
          "type": "uint256"
        }
      ],
      "name": "setMaxValidators",
      "outputs": [],
      "stateMutability": "nonpayable",
      "type": "function"
    },
    {
      "inputs": [
        {
          "internalType": "address",
          "name": "_miningAddress",
          "type": "address"
        },
        {
          "internalType": "address",
          "name": "_stakingAddress",
          "type": "address"
        }
      ],
      "name": "setStakingAddress",
      "outputs": [],
      "stateMutability": "nonpayable",
      "type": "function"
    },
    {
      "inputs": [
        {
          "internalType": "uint256",
          "name": "_seconds",
          "type": "uint256"
        }
      ],
      "name": "setValidatorInactivityThreshold",
      "outputs": [],
      "stateMutability": "nonpayable",
      "type": "function"
    },
    {
      "inputs": [
        {
          "internalType": "bytes16",
          "name": "_ip",
          "type": "bytes16"
        },
        {
          "internalType": "bytes2",
          "name": "_port",
          "type": "bytes2"
        }
      ],
      "name": "setValidatorInternetAddress",
      "outputs": [],
      "stateMutability": "nonpayable",
      "type": "function"
    },
    {
      "inputs": [
        {
          "internalType": "address",
          "name": "",
          "type": "address"
        }
      ],
      "name": "stakingByMiningAddress",
      "outputs": [
        {
          "internalType": "address",
          "name": "",
          "type": "address"
        }
      ],
      "stateMutability": "view",
      "type": "function"
    },
    {
      "inputs": [],
      "name": "stakingContract",
      "outputs": [
        {
          "internalType": "contract IStakingHbbft",
          "name": "",
          "type": "address"
        }
      ],
      "stateMutability": "view",
      "type": "function"
    },
    {
      "inputs": [
        {
          "internalType": "address",
          "name": "newOwner",
          "type": "address"
        }
      ],
      "name": "transferOwnership",
      "outputs": [],
      "stateMutability": "nonpayable",
      "type": "function"
    },
    {
      "inputs": [
        {
          "internalType": "address",
          "name": "",
          "type": "address"
        }
      ],
      "name": "validatorAvailableSince",
      "outputs": [
        {
          "internalType": "uint256",
          "name": "",
          "type": "uint256"
        }
      ],
      "stateMutability": "view",
      "type": "function"
    },
    {
      "inputs": [
        {
          "internalType": "address",
          "name": "",
          "type": "address"
        }
      ],
      "name": "validatorAvailableSinceLastWrite",
      "outputs": [
        {
          "internalType": "uint256",
          "name": "",
          "type": "uint256"
        }
      ],
      "stateMutability": "view",
      "type": "function"
    },
    {
      "inputs": [
        {
          "internalType": "address",
          "name": "",
          "type": "address"
        }
      ],
      "name": "validatorCounter",
      "outputs": [
        {
          "internalType": "uint256",
          "name": "",
          "type": "uint256"
        }
      ],
      "stateMutability": "view",
      "type": "function"
    },
    {
      "inputs": [],
      "name": "validatorInactivityThreshold",
      "outputs": [
        {
          "internalType": "uint256",
          "name": "",
          "type": "uint256"
        }
      ],
      "stateMutability": "view",
      "type": "function"
    }
  ],
  "bytecode": "0x608060405234801561001057600080fd5b5061002b679cd1456d8873caff60c01b61007260201b60201c565b61004567241ca20d5a53381960c01b61007260201b60201c565b61005f673b56e0103d4fdab260c01b61007260201b60201c565b61006d61007560201b60201c565b6101ba565b50565b600061008561017960201b60201c565b90508060000160089054906101000a900460ff16156100d0576040517ff92ee8a900000000000000000000000000000000000000000000000000000000815260040160405180910390fd5b67ffffffffffffffff80168160000160009054906101000a900467ffffffffffffffff1667ffffffffffffffff16146101765767ffffffffffffffff8160000160006101000a81548167ffffffffffffffff021916908367ffffffffffffffff1602179055507fc7f505b2f371ae2175ee4913f4499e1f2633a7b5936321eed1cdaeb6115181d267ffffffffffffffff60405161016d91906101a1565b60405180910390a15b50565b60007ff0c57e16840df040f15088dc2f81fe391c3923bec73e23a9662efc9c229c6a00905090565b600060208201905060018060401b038316825292915050565b61920d806101c96000396000f3fe608060405234801561001057600080fd5b506004361061034b5760003560e01c80639881933d116101bd578063ccf69e9b116100f9578063eebc7a39116100a2578063f51726f01161007c578063f51726f0146109bc578063facd743b146109ec578063fb64aac114610a1c578063fce260c814610a4c5761034b565b8063eebc7a3914610952578063efd0494714610970578063f2fde38b146109a05761034b565b8063e8163d97116100d3578063e8163d97146108e6578063ed7cba6214610904578063ee99205c146109345761034b565b8063ccf69e9b14610868578063d71b7e2414610886578063ddd8db02146108b65761034b565b8063a68b5b7611610166578063b41832e411610140578063b41832e4146107e0578063b47aef1f14610810578063b7ab4db51461082e578063bd0d69bc1461084c5761034b565b8063a68b5b761461078a578063ac5ba7bc146107ba578063ade1900a146107d65761034b565b8063a0d16cad11610197578063a0d16cad14610720578063a42bdee914610750578063a49904e51461076c5761034b565b80639881933d146106a45780639bb2ea5a146106d45780639d6fc1d1146106f05761034b565b806360e5c5201161028c578063717662ee1161023557806385602ad51161020f57806385602ad51461061a578063857cdbb8146106385780638da5cb5b146106685780638e68dce4146106865761034b565b8063717662ee146105d857806375286211146105f457806378ff69d5146105fe5761034b565b8063669554691161026657806366955469146105925780636b949ae8146105b0578063715018a6146105ce5761034b565b806360e5c5201461051657806361e610681461054657806362be7d03146105625761034b565b806329b6eca9116102f95780634635369d116102d35780634635369d146104a057806356b54bae146104d05780635ccee1de146104ee5780635d5fcbce146104f85761034b565b806329b6eca91461044a5780633da74fc61461046657806343bcce9f146104845761034b565b806314e28d901161032a57806314e28d90146103ba5780631ee4d0bc146103ea57806322db7d091461041a5761034b565b80625351751461035057806308ac5256146103805780630a4c10721461039e575b600080fd5b61036a60048036038101906103659190618887565b610a7c565b60405161037791906188ae565b60405180910390f35b610388610aaf565b60405161039591906188d5565b60405180910390f35b6103b860048036038101906103b391906188e6565b610ab5565b005b6103d460048036038101906103cf9190618887565b610c39565b6040516103e19190618921565b60405180910390f35b61040460048036038101906103ff9190618887565b611181565b60405161041191906188ae565b60405180910390f35b610434600480360381019061042f9190618887565b6111b4565b60405161044191906188d5565b60405180910390f35b610464600480360381019061045f9190618887565b6111cc565b005b61046e611456565b60405161047b9190618950565b60405180910390f35b61049e60048036038101906104999190618977565b61147c565b005b6104ba60048036038101906104b5919061899c565b6118f0565b6040516104c791906188d5565b60405180910390f35b6104d8611915565b6040516104e591906188ae565b60405180910390f35b6104f661193b565b005b610500611b06565b60405161050d91906188d5565b60405180910390f35b610530600480360381019061052b9190618887565b611b4f565b60405161053d91906188d5565b60405180910390f35b610560600480360381019061055b9190618a19565b611b67565b005b61057c60048036038101906105779190618ac3565b612495565b60405161058991906188d5565b60405180910390f35b61059a6124ad565b6040516105a791906188ae565b60405180910390f35b6105b86124d3565b6040516105c591906188d5565b60405180910390f35b6105d66124d9565b005b6105f260048036038101906105ed9190618887565b6124ed565b005b6105fc6127e7565b005b61061860048036038101906106139190618887565b612c86565b005b610622612e4b565b60405161062f9190618adf565b60405180910390f35b610652600480360381019061064d9190618887565b612f15565b60405161065f9190618b6e565b60405180910390f35b61067061305a565b60405161067d91906188ae565b60405180910390f35b61068e613092565b60405161069b91906188ae565b60405180910390f35b6106be60048036038101906106b99190618887565b6130f8565b6040516106cb9190618b6e565b60405180910390f35b6106ee60048036038101906106e99190618ac3565b6131de565b005b61070a60048036038101906107059190618887565b61329f565b6040516107179190618ba3565b60405180910390f35b61073a60048036038101906107359190618887565b6134b9565b6040516107479190618ba3565b60405180910390f35b61076a60048036038101906107659190618bb6565b613593565b005b6107746137c6565b6040516107819190618ba3565b60405180910390f35b6107a4600480360381019061079f9190618887565b61380b565b6040516107b19190618ba3565b60405180910390f35b6107d460048036038101906107cf9190618ac3565b61382b565b005b6107de61398d565b005b6107fa60048036038101906107f59190618887565b614a25565b60405161080791906188d5565b60405180910390f35b610818614a3d565b6040516108259190618c11565b60405180910390f35b610836614a63565b6040516108439190618adf565b60405180910390f35b61086660048036038101906108619190618887565b614b2d565b005b610870614cf2565b60405161087d91906188ae565b60405180910390f35b6108a0600480360381019061089b9190618887565b614d18565b6040516108ad91906188d5565b60405180910390f35b6108d060048036038101906108cb9190618887565b614d30565b6040516108dd91906188d5565b60405180910390f35b6108ee614d48565b6040516108fb91906188d5565b60405180910390f35b61091e60048036038101906109199190618887565b614d4e565b60405161092b91906188d5565b60405180910390f35b61093c614d66565b6040516109499190618c38565b60405180910390f35b61095a614d8c565b6040516109679190618adf565b60405180910390f35b61098a60048036038101906109859190618ac3565b614e56565b60405161099791906188d5565b60405180910390f35b6109ba60048036038101906109b59190618887565b614ff3565b005b6109d660048036038101906109d19190618887565b615079565b6040516109e39190618ba3565b60405180910390f35b610a066004803603810190610a019190618887565b61529d565b604051610a139190618ba3565b60405180910390f35b610a366004803603810190610a319190618887565b6152bd565b604051610a439190618ba3565b60405180910390f35b610a666004803603810190610a619190618887565b61546b565b604051610a739190618c5f565b60405180910390f35b600b6020528060005260406000206000915054906101000a900473ffffffffffffffffffffffffffffffffffffffff1681565b60155481565b610ac9670c4a42801ce50b1b60c01b615483565b610add678ef110f87707b04160c01b615483565b610af16787ea34bf280053b160c01b615483565b610b056758b1831d96035b3360c01b615483565b601060009054906101000a900473ffffffffffffffffffffffffffffffffffffffff1673ffffffffffffffffffffffffffffffffffffffff163373ffffffffffffffffffffffffffffffffffffffff1614610bb457610b6e677fd775d8514063eb60c01b615483565b610b826759c23521693fb8a760c01b615483565b6040517f82b4290000000000000000000000000000000000000000000000000000000000815260040160405180910390fd5b610bc867b07f224971c439f660c01b615483565b610bdc67f88c3aa7a7c41acc60c01b615483565b610bf06720a1751ed01b389060c01b615483565b610c03665c90d331a4f89860c01b615483565b610c1767e10e3d57a2ba655260c01b615483565b610c2b67c9109b883104414660c01b615483565b610c358282615486565b5050565b6000610c4f679efd7382798e70d560c01b615483565b610c6367da329eaa3517f04c60c01b615483565b610c7767ab36fdb91521092460c01b615483565b610c80826152bd565b610cc957610c986707a2699b401187cd60c01b615483565b610cac67eaacc6b48421c50060c01b615483565b610cc067aeb190f38b40fead60c01b615483565b6000905061117c565b610cdd676719bb5abad3996860c01b615483565b610cf167764780ef2595845160c01b615483565b610d0567192ed66c17de68df60c01b615483565b600080601160009054906101000a900473ffffffffffffffffffffffffffffffffffffffff1673ffffffffffffffffffffffffffffffffffffffff16637be02c2b6040518163ffffffff1660e01b81526004016040805180830381865afa158015610d74573d6000803e3d6000fd5b505050506040513d601f19601f82011682018060405250810190610d989190618c99565b91509150610db06790f36995f9ed2db560c01b615483565b610dc467174ff48b635aae1c60c01b615483565b600180549050826fffffffffffffffffffffffffffffffff161015610f8557610df767d7458cca9ee7b10060c01b615483565b610e0b67524e51682a78784760c01b615483565b610e1f675a93f46786ef19b160c01b615483565b6000601160009054906101000a900473ffffffffffffffffffffffffffffffffffffffff1673ffffffffffffffffffffffffffffffffffffffff166399de1a43866040518263ffffffff1660e01b8152600401610e7c91906188ae565b600060405180830381865afa158015610e99573d6000803e3d6000fd5b505050506040513d6000823e3d601f19601f82011682018060405250810190610ec29190618d1a565b9050610ed867887ce4f34ee71dcf60c01b615483565b610eec67bc3ad7f877c97bf860c01b615483565b6000815103610f3d57610f096747aa0aeadbf737a360c01b615483565b610f1d67a0474a0b5d8e706d60c01b615483565b610f3167f8dc0427524e88c560c01b615483565b6001935050505061117c565b610f516784bd731bca2544e560c01b615483565b610f6567af3a49892058143360c01b615483565b610f79676499c618b2481d1660c01b615483565b6002935050505061117c565b610f99675f183dc0488e34a960c01b615483565b610fad6782aff3a88a44248260c01b615483565b600180549050816fffffffffffffffffffffffffffffffff16101561113957610fe06785852bb172ac316260c01b615483565b610ff46761aeb2d21a94236b60c01b615483565b61100867c9dc978b8b16543c60c01b615483565b6000601160009054906101000a900473ffffffffffffffffffffffffffffffffffffffff1673ffffffffffffffffffffffffffffffffffffffff1663dd7761f8866040518263ffffffff1660e01b815260040161106591906188ae565b602060405180830381865afa158015611082573d6000803e3d6000fd5b505050506040513d601f19601f820116820180604052508101906110a69190618db2565b036110f2576110bf6778056918a96eb34d60c01b615483565b6110d36773ea75878dd1438460c01b615483565b6110e7675cce48d14f7cb23460c01b615483565b60039250505061117c565b611106678c4a13951db74e5360c01b615483565b61111a6716fb5977a248a28060c01b615483565b61112e672129015a217fc4d760c01b615483565b60049250505061117c565b61114d674c177b1bd605ea9760c01b615483565b61116167089059bafdcf9c7560c01b615483565b611175678157c3ca920050dc60c01b615483565b6005925050505b919050565b600f6020528060005260406000206000915054906101000a900473ffffffffffffffffffffffffffffffffffffffff1681565b60056020528060005260406000206000915090505481565b6111e067648159cabd3cbba960c01b615483565b600260006111ec615c29565b90508060000160089054906101000a900460ff168061123757508167ffffffffffffffff168160000160009054906101000a900467ffffffffffffffff1667ffffffffffffffff1610155b1561126e576040517ff92ee8a900000000000000000000000000000000000000000000000000000000815260040160405180910390fd5b818160000160006101000a81548167ffffffffffffffff021916908367ffffffffffffffff16021790555060018160000160086101000a81548160ff0219169083151502179055506112ca67110d9151a1a87d5c60c01b615483565b6112de676b9228da163afdbd60c01b615483565b6112f267e4e25cc68710b2cc60c01b615483565b6113066735434fa59195760c60c01b615483565b600073ffffffffffffffffffffffffffffffffffffffff168373ffffffffffffffffffffffffffffffffffffffff16036113945761134e6736f927be69db855860c01b615483565b61136267bbe9bfd7c3f0d34a60c01b615483565b6040517fd92e233d00000000000000000000000000000000000000000000000000000000815260040160405180910390fd5b6113a867aa841898bb2c14f560c01b615483565b6113bc679ea066ca28a92a1e60c01b615483565b82601960006101000a81548173ffffffffffffffffffffffffffffffffffffffff021916908373ffffffffffffffffffffffffffffffffffffffff16021790555060008160000160086101000a81548160ff0219169083151502179055507fc7f505b2f371ae2175ee4913f4499e1f2633a7b5936321eed1cdaeb6115181d2826040516114499190618dce565b60405180910390a1505050565b601860009054906101000a900473ffffffffffffffffffffffffffffffffffffffff1681565b61149067dc1d8bf46f263e5860c01b615483565b6114a467e3d1bc08fe80d58160c01b615483565b6114b8678358d2177fc93adf60c01b615483565b6114c133615079565b61151f576114d967f3969601d501269c60c01b615483565b6114ed67999e792eefceda4060c01b615483565b6040517fa82bfa5500000000000000000000000000000000000000000000000000000000815260040160405180910390fd5b61153367d1ecb9c11d9f312460c01b615483565b611547674cfafcb899ec498660c01b615483565b61155b67ce97210f7b7d322260c01b615483565b4382106115bc57611576676d885752c0cd8b8660c01b615483565b61158a67e9d219f6112899db60c01b615483565b6040517f41d852df00000000000000000000000000000000000000000000000000000000815260040160405180910390fd5b6115d067ece29d90afcecc4960c01b615483565b6115e467ddcec878101d6f8460c01b615483565b6115f86779d4f2bda1ab807060c01b615483565b436010836116069190618dff565b116116655761161f67064e925e5f873b0e60c01b615483565b6116336777687a6710aa980960c01b615483565b6040517f10548f8300000000000000000000000000000000000000000000000000000000815260040160405180910390fd5b61167967063001f704967c0960c01b615483565b61168d6730eff6fa41020e2d60c01b615483565b6116a1672bd5393536bce9a060c01b615483565b80824014611703576116bd67f5d4d7adf825dec760c01b615483565b6116d1677bf842af44fa5f3060c01b615483565b6040517ffe1864e100000000000000000000000000000000000000000000000000000000815260040160405180910390fd5b611717671e53c8682146fa2060c01b615483565b61172b674e459a99dee99a9660c01b615483565b61173f67d23354059b58750c60c01b615483565b600042905061175867186ed3eb1ea138b460c01b615483565b61176c6776b92b140939a3e760c01b615483565b6117763382615c51565b61178a6791443b16139aad1e60c01b615483565b61179e67bfed62320a5f405960c01b615483565b601060009054906101000a900473ffffffffffffffffffffffffffffffffffffffff1673ffffffffffffffffffffffffffffffffffffffff16637b15b94c600f60003373ffffffffffffffffffffffffffffffffffffffff1673ffffffffffffffffffffffffffffffffffffffff16815260200190815260200160002060009054906101000a900473ffffffffffffffffffffffffffffffffffffffff166040518263ffffffff1660e01b815260040161185891906188ae565b600060405180830381600087803b15801561187257600080fd5b505af1158015611886573d6000803e3d6000fd5b5050505061189e67a632c214d611ada760c01b615483565b6118b2671ef3df8b972d6c8c60c01b615483565b7f705d65dbee06de60e6465d68371ce849d5a1ead53e53d01a413b2b01393aa02233826040516118e3929190618e1d565b60405180910390a1505050565b600d602052816000526040600020602052806000526040600020600091509150505481565b600860009054906101000a900473ffffffffffffffffffffffffffffffffffffffff1681565b61194f676d65850458138cb960c01b615483565b61196367f1a52aa91b766f0860c01b615483565b611977679891f2671240245160c01b615483565b61198b6768f5806c609b9b2e60c01b615483565b600860009054906101000a900473ffffffffffffffffffffffffffffffffffffffff1673ffffffffffffffffffffffffffffffffffffffff163373ffffffffffffffffffffffffffffffffffffffff1614611a3a576119f467cf677b2616ad266d60c01b615483565b611a08677e04938bfb49ecf360c01b615483565b6040517f82b4290000000000000000000000000000000000000000000000000000000000815260040160405180910390fd5b611a4e6743a576b48e85bc4460c01b615483565b611a62671da912a47c35eab360c01b615483565b611a7667e238fa7bc8cdae2f60c01b615483565b611a8a676ef92ba209f1fb9d60c01b615483565b611a9e67d475e8e4fb0d6c8360c01b615483565b611ab267569697d7dd2d26a560c01b615483565b611b04600067ffffffffffffffff811115611ad057611acf618ccc565b5b604051908082528060200260200182016040528015611afe5781602001602082028036833780820191505090505b50615d19565b565b6000611b1c67bc09ce25ab48936060c01b615483565b611b3067183f36cf405a75e560c01b615483565b611b446779e6b7356f5a6eaf60c01b615483565b600080549050905090565b60146020528060005260406000206000915090505481565b611b7b679da9d42f24be44eb60c01b615483565b6000611b85615c29565b905060008160000160089054906101000a900460ff1615905060008260000160009054906101000a900467ffffffffffffffff1690506000808267ffffffffffffffff16148015611bd35750825b9050600060018367ffffffffffffffff16148015611c08575060003073ffffffffffffffffffffffffffffffffffffffff163b145b905081158015611c16575080155b15611c4d576040517ff92ee8a900000000000000000000000000000000000000000000000000000000815260040160405180910390fd5b60018560000160006101000a81548167ffffffffffffffff021916908367ffffffffffffffff1602179055508315611c9d5760018560000160086101000a81548160ff0219169083151502179055505b611cb16749e74940556fe4ed60c01b615483565b611cc5672ef17126d0caadaf60c01b615483565b611cd967b7796d8a69afa9fa60c01b615483565b611ced6777a7be27f5e0febd60c01b615483565b611cf68a616bb0565b611d0a67de1ee8c11a9b29c660c01b615483565b611d1e67e756e24aff79102760c01b615483565b600073ffffffffffffffffffffffffffffffffffffffff168b73ffffffffffffffffffffffffffffffffffffffff1603611dac57611d666703d211cbdb51ae2660c01b615483565b611d7a67121b8f7c551d8dab60c01b615483565b6040517fd92e233d00000000000000000000000000000000000000000000000000000000815260040160405180910390fd5b611dc067fe346ca5ee86466860c01b615483565b611dd46732f713f036216e9d60c01b615483565b611de86772f5c0f1f4450b7c60c01b615483565b60008989905003611e4d57611e07678c9f989adde5cbf460c01b615483565b611e1b675d941ce1f61063b560c01b615483565b6040517f8ae2dc8c00000000000000000000000000000000000000000000000000000000815260040160405180910390fd5b611e61679dbc95d01ba935e260c01b615483565b611e75670b4e08dc271a7c2860c01b615483565b611e8967ce6e6998d76e824060c01b615483565b868690508989905014611ef057611eaa67c6be4f5a813ed31660c01b615483565b611ebe67d61fc9aec66cba9560c01b615483565b6040517fac9e459300000000000000000000000000000000000000000000000000000000815260040160405180910390fd5b611f0467273e77aa26cdfc0760c01b615483565b611f18677b99835d1f77c6c260c01b615483565b611f2c677a89cac17a54f31860c01b615483565b611f358b616ea8565b611f4967f4dbc0b13df60b2e60c01b615483565b896000016020810190611f5c9190618887565b600860006101000a81548173ffffffffffffffffffffffffffffffffffffffff021916908373ffffffffffffffffffffffffffffffffffffffff160217905550611fb0677a4580154815ad1860c01b615483565b896020016020810190611fc39190618887565b600c60006101000a81548173ffffffffffffffffffffffffffffffffffffffff021916908373ffffffffffffffffffffffffffffffffffffffff16021790555061201767e63c679dab7dc3f260c01b615483565b89604001602081019061202a9190618887565b601060006101000a81548173ffffffffffffffffffffffffffffffffffffffff021916908373ffffffffffffffffffffffffffffffffffffffff16021790555061207e67621d174f0bf216b760c01b615483565b8960600160208101906120919190618887565b601160006101000a81548173ffffffffffffffffffffffffffffffffffffffff021916908373ffffffffffffffffffffffffffffffffffffffff1602179055506120e567637a59d67f70f4bd60c01b615483565b8960800160208101906120f89190618887565b601860006101000a81548173ffffffffffffffffffffffffffffffffffffffff021916908373ffffffffffffffffffffffffffffffffffffffff16021790555061214c675f574edd1bd063b160c01b615483565b8960a001602081019061215f9190618887565b601960006101000a81548173ffffffffffffffffffffffffffffffffffffffff021916908373ffffffffffffffffffffffffffffffffffffffff1602179055506121b367f28e06d12c9ef6da60c01b615483565b8960c001356017819055506121d267f6782a58af6bf9ae60c01b615483565b6121e66758ad707091e6182960c01b615483565b60005b8989905081101561240f576122086739eb89154568b06460c01b615483565b61221c67b59987cbc733e3a560c01b615483565b60008a8a8381811061223157612230618e4b565b5b90506020020160208101906122469190618887565b905061225c679c0da8cb8883225160c01b615483565b61227067943b765200d7518960c01b615483565b6000819080600181540180825580915050600190039060005260206000200160009091909190916101000a81548173ffffffffffffffffffffffffffffffffffffffff021916908373ffffffffffffffffffffffffffffffffffffffff1602179055506122e767a3008cf102f4f0af60c01b615483565b6001600960008373ffffffffffffffffffffffffffffffffffffffff1673ffffffffffffffffffffffffffffffffffffffff16815260200190815260200160002060006101000a81548160ff0219169083151502179055506123536757c11b1c8e78cb1460c01b615483565b601260008273ffffffffffffffffffffffffffffffffffffffff1673ffffffffffffffffffffffffffffffffffffffff16815260200190815260200160002060008154809291906123a390618e61565b91905055506123bc676b26a2a10be1db7760c01b615483565b6123d0675115308674c3766460c01b615483565b612401818a8a858181106123e7576123e6618e4b565b5b90506020020160208101906123fc9190618887565b615486565b5080806001019150506121e9565b5061242467c7c5df967cde9dec60c01b615483565b601960158190555083156124885760008560000160086101000a81548160ff0219169083151502179055507fc7f505b2f371ae2175ee4913f4499e1f2633a7b5936321eed1cdaeb6115181d2600160405161247f9190618e7f565b60405180910390a15b5050505050505050505050565b600e6020528060005260406000206000915090505481565b601960009054906101000a900473ffffffffffffffffffffffffffffffffffffffff1681565b60175481565b6124e1616ebc565b6124eb6000616f43565b565b61250167ec6f3f14a29f590460c01b615483565b612515678184c5289d92e18e60c01b615483565b61252967479f13889b6c16bd60c01b615483565b61253d67c61b1a9b2d0753d060c01b615483565b601960009054906101000a900473ffffffffffffffffffffffffffffffffffffffff1673ffffffffffffffffffffffffffffffffffffffff163373ffffffffffffffffffffffffffffffffffffffff16146125ec576125a6679bcce43a1ad3252960c01b615483565b6125ba67c3cddc9b81db069760c01b615483565b6040517f82b4290000000000000000000000000000000000000000000000000000000000815260040160405180910390fd5b61260067ef4f9dfc5058780b60c01b615483565b612614670b12f2804a5ea5cc60c01b615483565b612628671ebf99b5bf59963f60c01b615483565b61263c67791dac91109c5c9460c01b615483565b6126506704723dbb7ab2f6cb60c01b615483565b61266467b92c4c205004e81560c01b615483565b601060009054906101000a900473ffffffffffffffffffffffffffffffffffffffff1673ffffffffffffffffffffffffffffffffffffffff16633b7d0946600f60008473ffffffffffffffffffffffffffffffffffffffff1673ffffffffffffffffffffffffffffffffffffffff16815260200190815260200160002060009054906101000a900473ffffffffffffffffffffffffffffffffffffffff166040518263ffffffff1660e01b815260040161271e91906188ae565b600060405180830381600087803b15801561273857600080fd5b505af115801561274c573d6000803e3d6000fd5b50505050612764670de5859c5119347c60c01b615483565b6127786745c852d66f95701060c01b615483565b612783816000615c51565b612797670b214b5325db186a60c01b615483565b6127ab67e95ab3034fe3acff60c01b615483565b7f7ec36d1734626f8b3686f8791130187e1633c843b1995003e788cd2b33d5690381426040516127dc929190618e1d565b60405180910390a150565b6127fb672414fa821d65935360c01b615483565b61280f67f1a52aa91b766f0860c01b615483565b612823679891f2671240245160c01b615483565b6128376768f5806c609b9b2e60c01b615483565b600860009054906101000a900473ffffffffffffffffffffffffffffffffffffffff1673ffffffffffffffffffffffffffffffffffffffff163373ffffffffffffffffffffffffffffffffffffffff16146128e6576128a067cf677b2616ad266d60c01b615483565b6128b4677e04938bfb49ecf360c01b615483565b6040517f82b4290000000000000000000000000000000000000000000000000000000000815260040160405180910390fd5b6128fa6743a576b48e85bc4460c01b615483565b61290e671da912a47c35eab360c01b615483565b61292267ebd783bd0c290ead60c01b615483565b612936671f9a48eb9951741960c01b615483565b61294a67abe91f658fe215ae60c01b615483565b61295e6794ed41dc7ef6afeb60c01b615483565b6000600180549050146129e45761297f67469a6d2e4c73298c60c01b615483565b61299367ed15f888ea5d7b0460c01b615483565b6129a767a588610740ae8c4d60c01b615483565b6129af61701a565b6129c367131500468264f18d60c01b615483565b6129d767eda49777587e6def60c01b615483565b6129df6172bc565b6129f9565b6129f86763329e931b3bebb760c01b615483565b5b612a0d6789ebb0647a6e7fd660c01b615483565b612a216701041b25ff9ced9260c01b615483565b612a296176b2565b612a3d67e06d81a7acc3a3d760c01b615483565b612a5167184cf43482a9890460c01b615483565b612a59617ad5565b612a6d6731908dc7701b605f60c01b615483565b612a81671cafebdd070724a860c01b615483565b601060009054906101000a900473ffffffffffffffffffffffffffffffffffffffff1673ffffffffffffffffffffffffffffffffffffffff1663ee435f556040518163ffffffff1660e01b8152600401600060405180830381600087803b158015612aeb57600080fd5b505af1158015612aff573d6000803e3d6000fd5b50505050612b1767867c5a13d0f1600060c01b615483565b612b2b677c098501a51d659060c01b615483565b601160009054906101000a900473ffffffffffffffffffffffffffffffffffffffff1673ffffffffffffffffffffffffffffffffffffffff16632c6f194d6040518163ffffffff1660e01b8152600401600060405180830381600087803b158015612b9557600080fd5b505af1158015612ba9573d6000803e3d6000fd5b50505050612bc167615952046db6d1c760c01b615483565b60016000612bcf91906187d2565b612be367bb5274b01693ccac60c01b615483565b612bf767d763234212b3d63b60c01b615483565b601060009054906101000a900473ffffffffffffffffffffffffffffffffffffffff1673ffffffffffffffffffffffffffffffffffffffff16638247a239426040518263ffffffff1660e01b8152600401612c5291906188d5565b600060405180830381600087803b158015612c6c57600080fd5b505af1158015612c80573d6000803e3d6000fd5b50505050565b612c9a672364c73d3f36880560c01b615483565b612ca2616ebc565b612cb6675ba3c65c5adbfb4960c01b615483565b612cca67b04c2edfc145cff360c01b615483565b612cde671cfb1574fd90c98060c01b615483565b612cf267ced763523181065d60c01b615483565b600073ffffffffffffffffffffffffffffffffffffffff168173ffffffffffffffffffffffffffffffffffffffff1603612d8057612d3a6783ea4cb1100f43b560c01b615483565b612d4e67cc5e41e0c4f223d160c01b615483565b6040517fd92e233d00000000000000000000000000000000000000000000000000000000815260040160405180910390fd5b612d9467cd96ad528ce2bef060c01b615483565b612da867796ee01701e5436260c01b615483565b80601960006101000a81548173ffffffffffffffffffffffffffffffffffffffff021916908373ffffffffffffffffffffffffffffffffffffffff160217905550612dfd670db1a6a304e397d560c01b615483565b612e11677b83b94cc59be8ea60c01b615483565b7f5e92eb268baa307ec16b695868a1baabf6cd6749fb91d07a6762f9153183959381604051612e4091906188ae565b60405180910390a150565b6060612e6167c7f39b6c98a17c8760c01b615483565b612e75679393735fe8b2297d60c01b615483565b612e89671841960334fc7f3660c01b615483565b6002805480602002602001604051908101604052809291908181526020018280548015612f0b57602002820191906000526020600020905b8160009054906101000a900473ffffffffffffffffffffffffffffffffffffffff1673ffffffffffffffffffffffffffffffffffffffff1681526020019060010190808311612ec1575b5050505050905090565b6060612f2b673eeb120ab17e348b60c01b615483565b612f3f677e4463307f7ed1e360c01b615483565b612f53677602a6ec171af4e260c01b615483565b601060009054906101000a900473ffffffffffffffffffffffffffffffffffffffff1673ffffffffffffffffffffffffffffffffffffffff16634e9b426d600f60008573ffffffffffffffffffffffffffffffffffffffff1673ffffffffffffffffffffffffffffffffffffffff16815260200190815260200160002060009054906101000a900473ffffffffffffffffffffffffffffffffffffffff166040518263ffffffff1660e01b815260040161300d91906188ae565b600060405180830381865afa15801561302a573d6000803e3d6000fd5b505050506040513d6000823e3d601f19601f820116820180604052508101906130539190618d1a565b9050919050565b600080613065617e6b565b90508060000160009054906101000a900473ffffffffffffffffffffffffffffffffffffffff1691505090565b60006130a8674b9ffc9276b5184b60c01b615483565b6130bc6793ff2ec1eee2c0f660c01b615483565b6130d0674724eb173b26192360c01b615483565b601060009054906101000a900473ffffffffffffffffffffffffffffffffffffffff16905090565b606061310e67f7b0cc22f06eca0760c01b615483565b61312267075c573a52b143c560c01b615483565b613136673751caedb8c0997f60c01b615483565b601060009054906101000a900473ffffffffffffffffffffffffffffffffffffffff1673ffffffffffffffffffffffffffffffffffffffff16634e9b426d836040518263ffffffff1660e01b815260040161319191906188ae565b600060405180830381865afa1580156131ae573d6000803e3d6000fd5b505050506040513d6000823e3d601f19601f820116820180604052508101906131d79190618d1a565b9050919050565b6131f267b65402092ad2d8f660c01b615483565b6131fa616ebc565b61320e67caab76c9f9d8440d60c01b615483565b6132226704329febeb00e24360c01b615483565b613236677de14f1462e7860860c01b615483565b80601581905550613251677bae2f4440b0b96560c01b615483565b61326567f775674d7455dfb860c01b615483565b7fd3c3674d241eb3fb81da09f8c56bdf72b08c8094de786997b95cde95d0ecfff58160405161329491906188d5565b60405180910390a150565b60006132b567a7af33a4e8016c9d60c01b615483565b6132c96769f26355545e63de60c01b615483565b6132dd67a443ed79dd38d24060c01b615483565b6000600b60008473ffffffffffffffffffffffffffffffffffffffff1673ffffffffffffffffffffffffffffffffffffffff16815260200190815260200160002060009054906101000a900473ffffffffffffffffffffffffffffffffffffffff16905061335567b4d1710d43e32e2760c01b615483565b613369674a3f5395a32bf0c960c01b615483565b6000601460008373ffffffffffffffffffffffffffffffffffffffff1673ffffffffffffffffffffffffffffffffffffffff16815260200190815260200160002054146133f6576133c467102814690a082fe860c01b615483565b6133d8671582af22a456936860c01b615483565b6133ec67dac32ac4bee3c88b60c01b615483565b60009150506134b4565b61340a679cab6120cec4decd60c01b615483565b61341e67df501a30be6c9e2760c01b615483565b61343267748d90e1a273ec0460c01b615483565b6000601360008373ffffffffffffffffffffffffffffffffffffffff1673ffffffffffffffffffffffffffffffffffffffff168152602001908152602001600020544261347f9190618e9a565b905061349567dcb3f4c792dcc5ad60c01b615483565b6134a967c8f8161c84c09af160c01b615483565b601754811015925050505b919050565b60006134cf6718a72de26b54c4b360c01b615483565b6134e367dce84ccea06803bc60c01b615483565b6134f767e80784fac696530f60c01b615483565b600960008373ffffffffffffffffffffffffffffffffffffffff1673ffffffffffffffffffffffffffffffffffffffff16815260200190815260200160002060009054906101000a900460ff168015613560575061355f678381a79e7da321ce60c01b617e93565b5b8061358c575061356f826152bd565b801561358b575061358a67785478bf5deb462b60c01b617e93565b5b5b9050919050565b6135a767f84220ed637c914660c01b615483565b6135bb67185909c16223f93160c01b615483565b6135cf67b249e5b41e185adb60c01b615483565b6000600f60003373ffffffffffffffffffffffffffffffffffffffff1673ffffffffffffffffffffffffffffffffffffffff16815260200190815260200160002060009054906101000a900473ffffffffffffffffffffffffffffffffffffffff169050613647672d5cc7fac8af6d7260c01b615483565b61365b6799f3fa2582c329db60c01b615483565b600073ffffffffffffffffffffffffffffffffffffffff168173ffffffffffffffffffffffffffffffffffffffff16036136f4576136a36764548215dd92596160c01b615483565b6136b7676bbbb8792867f37f60c01b615483565b336040517fea5271c00000000000000000000000000000000000000000000000000000000081526004016136eb91906188ae565b60405180910390fd5b613708672f6322660982335960c01b615483565b61371c6738b01b3db9d7682960c01b615483565b613730679a1d0f02cc54b5dd60c01b615483565b601060009054906101000a900473ffffffffffffffffffffffffffffffffffffffff1673ffffffffffffffffffffffffffffffffffffffff16637b0a0f9b8285856040518463ffffffff1660e01b815260040161378f93929190618eb8565b600060405180830381600087803b1580156137a957600080fd5b505af11580156137bd573d6000803e3d6000fd5b50505050505050565b60006137dc67528493afa0a67fd260c01b615483565b6137f067d19bd3dcaf3e481060c01b615483565b613804672dca5f34015a548a60c01b615483565b6001905090565b600a6020528060005260406000206000915054906101000a900460ff1681565b61383f67208c386fc50cfe3860c01b615483565b613847616ebc565b61385b67086effe6d86e0fc160c01b615483565b61386f67ee38cb2361ad0ccb60c01b615483565b613883671aca480ddcf30d5c60c01b615483565b61389767f327df974193d60460c01b615483565b62093a808110156138fc576138b667d4da868b37d7397260c01b615483565b6138ca672f82e4a7bf677dcd60c01b615483565b6040517fbb2ac3a600000000000000000000000000000000000000000000000000000000815260040160405180910390fd5b61391067643b2f45a3b2333960c01b615483565b61392467adc9f7997d656b0f60c01b615483565b8060178190555061393f6718be04790781cf4a60c01b615483565b613953672975d953b15129d360c01b615483565b7f578d5da2255dc6640f3ba0d8ce1bc20877ca696956ebe3c333a3eb8f49fb395f8160405161398291906188d5565b60405180910390a150565b6139a167c7fcb20a20b6e72160c01b615483565b6139b567f1a52aa91b766f0860c01b615483565b6139c9679891f2671240245160c01b615483565b6139dd6768f5806c609b9b2e60c01b615483565b600860009054906101000a900473ffffffffffffffffffffffffffffffffffffffff1673ffffffffffffffffffffffffffffffffffffffff163373ffffffffffffffffffffffffffffffffffffffff1614613a8c57613a4667cf677b2616ad266d60c01b615483565b613a5a677e04938bfb49ecf360c01b615483565b6040517f82b4290000000000000000000000000000000000000000000000000000000000815260040160405180910390fd5b613aa06743a576b48e85bc4460c01b615483565b613ab4671da912a47c35eab360c01b615483565b613ac867574c227a2a202a0e60c01b615483565b613adc67fa1d73a574e10a8e60c01b615483565b613af0678f3f0e100bb2110660c01b615483565b613b04672c34eb567dd0e69760c01b615483565b601060009054906101000a900473ffffffffffffffffffffffffffffffffffffffff1673ffffffffffffffffffffffffffffffffffffffff166322e3d9866040518163ffffffff1660e01b8152600401602060405180830381865afa158015613b71573d6000803e3d6000fd5b505050506040513d601f19601f82011682018060405250810190613b959190618db2565b421015613bf657613bb067f3627ffb9933623a60c01b615483565b613bc4674dbab5aa280638a160c01b615483565b6040517f225767be00000000000000000000000000000000000000000000000000000000815260040160405180910390fd5b613c0a67c18c3946d91f42b660c01b615483565b613c1e67112f5a189afb16c660c01b615483565b613c3267edffa443a6c9acdf60c01b615483565b6000601060009054906101000a900473ffffffffffffffffffffffffffffffffffffffff1673ffffffffffffffffffffffffffffffffffffffff1663a5d54f656040518163ffffffff1660e01b8152600401600060405180830381865afa158015613ca1573d6000803e3d6000fd5b505050506040513d6000823e3d601f19601f82011682018060405250810190613cca9190618f30565b5103613d1157613ce467f4af3592d61918c260c01b615483565b613cf867cdeb6bf0c9392ec260c01b615483565b613d0c6709167eaff55e5e5860c01b615483565b614a23565b613d256756d35896f745d29460c01b615483565b613d3967e7819d835f45e9e660c01b615483565b613d4d676093b391e43820d560c01b615483565b600060018054905003613d9b57613d6e676562d99b5910680160c01b615483565b613d8267f102da48ae74a80860c01b615483565b613d966783533db153114e5060c01b615483565b614a23565b613daf67cb65d844d02af65760c01b615483565b613dc367d43e1478a06d431960c01b615483565b613dd7679cba0b3c85db15c660c01b615483565b600060018080549050613dea9190618e9a565b67ffffffffffffffff811115613e0357613e02618ccc565b5b604051908082528060200260200182016040528015613e315781602001602082028036833780820191505090505b509050613e4867d0232cba244193d260c01b615483565b613e5c6733d1dc7aa80c717660c01b615483565b6000613e7267d04d0c856a9e864260c01b615483565b613e86671c93da3938477f2760c01b615483565b600080601160009054906101000a900473ffffffffffffffffffffffffffffffffffffffff1673ffffffffffffffffffffffffffffffffffffffff16637be02c2b6040518163ffffffff1660e01b81526004016040805180830381865afa158015613ef5573d6000803e3d6000fd5b505050506040513d601f19601f82011682018060405250810190613f199190618c99565b91509150613f3167d7eb6adb0823faf160c01b615483565b613f456713eefca2d86b0ae660c01b615483565b60005b6001805490508110156145ba57613f6967b48bc0c090d99e5c60c01b615483565b613f7d676d2ab62f317312a560c01b615483565b600060018281548110613f9357613f92618e4b565b5b9060005260206000200160009054906101000a900473ffffffffffffffffffffffffffffffffffffffff169050613fd46707eb9d22c7b71f8a60c01b615483565b613fe867695994e99c73b3f560c01b615483565b6000613ffe6722f944ceae364bcc60c01b615483565b6140126775c993f7cc86608660c01b615483565b846fffffffffffffffffffffffffffffffff1660018054905011156141055761404567f45f49eacadd467360c01b615483565b61405967cd68409dd6e8758160c01b615483565b6000601160009054906101000a900473ffffffffffffffffffffffffffffffffffffffff1673ffffffffffffffffffffffffffffffffffffffff166399de1a43846040518263ffffffff1660e01b81526004016140b691906188ae565b600060405180830381865afa1580156140d3573d6000803e3d6000fd5b505050506040513d6000823e3d601f19601f820116820180604052508101906140fc9190618d1a565b51119050614230565b614119673b688159f08a0d1460c01b615483565b61412d67a344d37a083215a260c01b615483565b836fffffffffffffffffffffffffffffffff16600180549050111561421a576141606753eff5a92cb390ff60c01b615483565b61417467a454d85762e71a6360c01b615483565b6000601160009054906101000a900473ffffffffffffffffffffffffffffffffffffffff1673ffffffffffffffffffffffffffffffffffffffff1663dd7761f8846040518263ffffffff1660e01b81526004016141d191906188ae565b602060405180830381865afa1580156141ee573d6000803e3d6000fd5b505050506040513d601f19601f820116820180604052508101906142129190618db2565b11905061422f565b61422e674f94ab574024e19c60c01b615483565b5b5b614244673d8861cf1506051960c01b615483565b61425867b3ff473ae3526e4e60c01b615483565b80156143395761427267ad18f72bf4d0bf4760c01b615483565b61428667f69c1c6bb9391fa560c01b615483565b6001838154811061429a57614299618e4b565b5b9060005260206000200160009054906101000a900473ffffffffffffffffffffffffffffffffffffffff168787815181106142d8576142d7618e4b565b5b602002602001019073ffffffffffffffffffffffffffffffffffffffff16908173ffffffffffffffffffffffffffffffffffffffff168152505061432667f1447b2758f13fcc60c01b615483565b858061433190618e61565b9650506145ab565b61434d67eba2e2e08e38fb6360c01b615483565b61436167c9290b4025cbd4e660c01b615483565b614375675cc19f4e2ccca99f60c01b615483565b601860009054906101000a900473ffffffffffffffffffffffffffffffffffffffff1673ffffffffffffffffffffffffffffffffffffffff166357bfcbee836040518263ffffffff1660e01b81526004016143d091906188ae565b600060405180830381600087803b1580156143ea57600080fd5b505af11580156143fe573d6000803e3d6000fd5b5050505061441667cd6604e168ab896260c01b615483565b61442a6742065e5b9400457e60c01b615483565b601060009054906101000a900473ffffffffffffffffffffffffffffffffffffffff1673ffffffffffffffffffffffffffffffffffffffff16633b7d0946600f60008573ffffffffffffffffffffffffffffffffffffffff1673ffffffffffffffffffffffffffffffffffffffff16815260200190815260200160002060009054906101000a900473ffffffffffffffffffffffffffffffffffffffff166040518263ffffffff1660e01b81526004016144e491906188ae565b600060405180830381600087803b1580156144fe57600080fd5b505af1158015614512573d6000803e3d6000fd5b5050505061452a673857a292f6b1318060c01b615483565b61453e679cb131629fe1de2b60c01b615483565b614549826000615c51565b61455d67d1557dd3df6969c360c01b615483565b61457167471bfa9e4985fb8a60c01b615483565b7f7ec36d1734626f8b3686f8791130187e1633c843b1995003e788cd2b33d5690382426040516145a2929190618e1d565b60405180910390a15b50508080600101915050613f48565b506145cf67618a3dffa21b6f8660c01b615483565b6145e367cb1b6c8975f2ab4760c01b615483565b601160009054906101000a900473ffffffffffffffffffffffffffffffffffffffff1673ffffffffffffffffffffffffffffffffffffffff16635f17497e60016040518263ffffffff1660e01b815260040161463f9190618fdb565b600060405180830381600087803b15801561465957600080fd5b505af115801561466d573d6000803e3d6000fd5b50505050614685672cf15177dab15d8b60c01b615483565b61469967b8440309dd9e6ab760c01b615483565b601160009054906101000a900473ffffffffffffffffffffffffffffffffffffffff1673ffffffffffffffffffffffffffffffffffffffff1663adddc0cf6040518163ffffffff1660e01b8152600401600060405180830381600087803b15801561470357600080fd5b505af1158015614717573d6000803e3d6000fd5b5050505061472f6771de29476ddcbb0e60c01b615483565b614743674b40c1e8f47b67e760c01b615483565b60008367ffffffffffffffff81111561475f5761475e618ccc565b5b60405190808252806020026020018201604052801561478d5781602001602082028036833780820191505090505b5090506147a4671ea60404df97184a60c01b615483565b6147b867d52995435e83bff760c01b615483565b60005b8481101561484c576147d767ed6cbbc6194e5e4160c01b615483565b8581815181106147ea576147e9618e4b565b5b602002602001015182828151811061480557614804618e4b565b5b602002602001019073ffffffffffffffffffffffffffffffffffffffff16908173ffffffffffffffffffffffffffffffffffffffff168152505080806001019150506147bb565b50614861670d8866d4e85e8cd960c01b615483565b6148756733fae522da1cecbb60c01b615483565b601060009054906101000a900473ffffffffffffffffffffffffffffffffffffffff1673ffffffffffffffffffffffffffffffffffffffff1663adddc0cf6040518163ffffffff1660e01b8152600401600060405180830381600087803b1580156148df57600080fd5b505af11580156148f3573d6000803e3d6000fd5b5050505061490b67f75a5f1744a4f40660c01b615483565b61491f6786021567495cad2660c01b615483565b6000601060009054906101000a900473ffffffffffffffffffffffffffffffffffffffff1673ffffffffffffffffffffffffffffffffffffffff1663a5d54f656040518163ffffffff1660e01b8152600401600060405180830381865afa15801561498e573d6000803e3d6000fd5b505050506040513d6000823e3d601f19601f820116820180604052508101906149b79190618f30565b511115614a08576149d267172ade6fc85efef660c01b615483565b6149e667e4d3b07ce9e24a6660c01b615483565b6149fa6743ce6ba82495450b60c01b615483565b614a0381615d19565b614a1d565b614a1c67369bd3f59c0ddb4f60c01b615483565b5b50505050505b565b60126020528060005260406000206000915090505481565b601160009054906101000a900473ffffffffffffffffffffffffffffffffffffffff1681565b6060614a79677df829c9e2f98ebf60c01b615483565b614a8d679f8c0ee9d7303ee260c01b615483565b614aa167096b12fd156c60dc60c01b615483565b6000805480602002602001604051908101604052809291908181526020018280548015614b2357602002820191906000526020600020905b8160009054906101000a900473ffffffffffffffffffffffffffffffffffffffff1673ffffffffffffffffffffffffffffffffffffffff1681526020019060010190808311614ad9575b5050505050905090565b614b41679b09e676d663658260c01b615483565b614b49616ebc565b614b5d6726bb7f58350aa02660c01b615483565b614b71676fc613fa3cb773ff60c01b615483565b614b8567c5a6afd585c9938d60c01b615483565b614b996746895a925b3cac4160c01b615483565b600073ffffffffffffffffffffffffffffffffffffffff168173ffffffffffffffffffffffffffffffffffffffff1603614c2757614be1673bee078b54a96e6b60c01b615483565b614bf5672e30f20748858f1e60c01b615483565b6040517fd92e233d00000000000000000000000000000000000000000000000000000000815260040160405180910390fd5b614c3b67393b0b72ac9b18f060c01b615483565b614c4f676767d41ea5a5608f60c01b615483565b80601860006101000a81548173ffffffffffffffffffffffffffffffffffffffff021916908373ffffffffffffffffffffffffffffffffffffffff160217905550614ca4679cff0e15be14d8cf60c01b615483565b614cb86764cf05dfc136fd2660c01b615483565b7fd4244d1f8acb4860e17399636c6b7875c75656aafb5cb3d0163d7305eace717281604051614ce791906188ae565b60405180910390a150565b600c60009054906101000a900473ffffffffffffffffffffffffffffffffffffffff1681565b60066020528060005260406000206000915090505481565b60046020528060005260406000206000915090505481565b60165481565b60136020528060005260406000206000915090505481565b601060009054906101000a900473ffffffffffffffffffffffffffffffffffffffff1681565b6060614da26757420737ca27ccf660c01b615483565b614db6674b817f04fff2ed6f60c01b615483565b614dca673d42b9770d254a3260c01b615483565b6001805480602002602001604051908101604052809291908181526020018280548015614e4c57602002820191906000526020600020905b8160009054906101000a900473ffffffffffffffffffffffffffffffffffffffff1673ffffffffffffffffffffffffffffffffffffffff1681526020019060010190808311614e02575b5050505050905090565b6000614e6c6782ec3349a792365260c01b615483565b614e8067611237acd70ce94260c01b615483565b614e946771c833ac9d7d6c0160c01b615483565b60008203614ef657614eb0673344e9dd3164122b60c01b615483565b614ec46750af03e15608fad560c01b615483565b6040517fa63671a500000000000000000000000000000000000000000000000000000000815260040160405180910390fd5b614f0a674b7c0e8d5388b06160c01b615483565b614f1e6766b3fe24bef6474f60c01b615483565b614f3267a2b6c645ac65042560c01b615483565b6004821015614f7f57614f4f67bfaa7e8ab3cb9b5360c01b615483565b614f636781c0d4f1cc2835b860c01b615483565b614f7767d5e6818fdcbbd24160c01b615483565b819050614fee565b614f93676274ad4d6225eb4560c01b615483565b614fa767bc87e5d9038fc53c60c01b615483565b614fbb67d4166198a64cf92660c01b615483565b6001600380600185614fcd9190618e9a565b614fd7919061905c565b614fe19190619077565b614feb9190618dff565b90505b919050565b614ffb616ebc565b600073ffffffffffffffffffffffffffffffffffffffff168173ffffffffffffffffffffffffffffffffffffffff160361506d5760006040517f1e4fbdf700000000000000000000000000000000000000000000000000000000815260040161506491906188ae565b60405180910390fd5b61507681616f43565b50565b600061508f67cb6122a44479514f60c01b615483565b6150a36763504565cc260a3c60c01b615483565b6150b7675a832e8fb202f19160c01b615483565b600073ffffffffffffffffffffffffffffffffffffffff16600f60008473ffffffffffffffffffffffffffffffffffffffff1673ffffffffffffffffffffffffffffffffffffffff16815260200190815260200160002060009054906101000a900473ffffffffffffffffffffffffffffffffffffffff1673ffffffffffffffffffffffffffffffffffffffff160361518f5761515e679ac5c5b765a4a5ef60c01b615483565b6151726754624570b532a0d360c01b615483565b61518667a78053457bf314db60c01b615483565b60009050615298565b6151a3675df5e461825fcf0260c01b615483565b6151b767b0b62d079c5d7eac60c01b615483565b6151cb6737415ed6d603fae560c01b615483565b6000601460008473ffffffffffffffffffffffffffffffffffffffff1673ffffffffffffffffffffffffffffffffffffffff168152602001908152602001600020541461525757615226679585cf440fcec48760c01b615483565b61523a67d34ab40aaee577b360c01b615483565b61524e677b80d658b3a175ba60c01b615483565b60009050615298565b61526b6793eaf073c114bee860c01b615483565b61527f67b6a4e8c4de47bbb460c01b615483565b61529367a0c5aaaf7a1c80f360c01b615483565b600190505b919050565b60096020528060005260406000206000915054906101000a900460ff1681565b60006152d367fb0812b076019e5f60c01b615483565b6152e7672d7c2ce58c6ea1d560c01b615483565b6152fb67580be4999828f87060c01b615483565b600060018054905090506153196724a1737323f2dc5d60c01b615483565b61532d67e09df6a4b39e771660c01b615483565b60005b818110156154375761534c67f62a3a817991ae9460c01b615483565b61536067d280b97fec7f930c60c01b615483565b6001818154811061537457615373618e4b565b5b9060005260206000200160009054906101000a900473ffffffffffffffffffffffffffffffffffffffff1673ffffffffffffffffffffffffffffffffffffffff168473ffffffffffffffffffffffffffffffffffffffff1603615418576153e56702197747ff0ade7f60c01b615483565b6153f9678f3d6357f62159f660c01b615483565b61540d678aff6cfd8db4668960c01b615483565b600192505050615466565b61542c67a9592ee91f1dab3460c01b615483565b806001019050615330565b5061544c67865e9afa61fe0d1460c01b615483565b61546067bd5398b119f0c35560c01b615483565b60009150505b919050565b60076020528060005260406000206000915090505481565b50565b61549a67e20b01a72796171460c01b615483565b6154ae67b53209159f6dfb6d60c01b615483565b6154c2671d1cf3a17e4547ec60c01b615483565b600073ffffffffffffffffffffffffffffffffffffffff168273ffffffffffffffffffffffffffffffffffffffff16036155505761550a67d4325099dd38c93060c01b615483565b61551e67f1af146b5a8d2dd160c01b615483565b6040517fd92e233d00000000000000000000000000000000000000000000000000000000815260040160405180910390fd5b61556467538a06f6990b732260c01b615483565b6155786713e2b31b99d82d9960c01b615483565b61558c67b4eb9cf90c597ec160c01b615483565b600073ffffffffffffffffffffffffffffffffffffffff168173ffffffffffffffffffffffffffffffffffffffff160361561a576155d467956e255414a5a6dd60c01b615483565b6155e867c553dfc6c277acfe60c01b615483565b6040517fd92e233d00000000000000000000000000000000000000000000000000000000815260040160405180910390fd5b61562e672de5f7776ee9ae0960c01b615483565b615642679965cbc690c50aaf60c01b615483565b61565667d6464f3c391396c860c01b615483565b8073ffffffffffffffffffffffffffffffffffffffff168273ffffffffffffffffffffffffffffffffffffffff16036156e35761569d6777b5b8b2000e944e60c01b615483565b6156b167bdbdf12b7cc373ba60c01b615483565b6040517f07d9394500000000000000000000000000000000000000000000000000000000815260040160405180910390fd5b6156f7672d30ae5458c9050c60c01b615483565b61570b6703c2899fdfba42da60c01b615483565b61571f6725d8a032f34b57c260c01b615483565b600073ffffffffffffffffffffffffffffffffffffffff16600b60008373ffffffffffffffffffffffffffffffffffffffff1673ffffffffffffffffffffffffffffffffffffffff16815260200190815260200160002060009054906101000a900473ffffffffffffffffffffffffffffffffffffffff1673ffffffffffffffffffffffffffffffffffffffff16141580156157cb57506157ca677031ffadddb8872b60c01b617e93565b5b8061587e5750600073ffffffffffffffffffffffffffffffffffffffff16600f60008373ffffffffffffffffffffffffffffffffffffffff1673ffffffffffffffffffffffffffffffffffffffff16815260200190815260200160002060009054906101000a900473ffffffffffffffffffffffffffffffffffffffff1673ffffffffffffffffffffffffffffffffffffffff161415801561587d575061587c67ceeb076d96b05f9d60c01b617e93565b5b5b156158e857615897676cd1aee4274743ce60c01b615483565b6158ab67d01629264a3e402f60c01b615483565b806040517f9b59780c0000000000000000000000000000000000000000000000000000000081526004016158df91906188ae565b60405180910390fd5b6158fc6748b52a887876bf8b60c01b615483565b61591067545ba92d935b026160c01b615483565b6159246704f4b5a51d20bb7560c01b615483565b600073ffffffffffffffffffffffffffffffffffffffff16600b60008473ffffffffffffffffffffffffffffffffffffffff1673ffffffffffffffffffffffffffffffffffffffff16815260200190815260200160002060009054906101000a900473ffffffffffffffffffffffffffffffffffffffff1673ffffffffffffffffffffffffffffffffffffffff16141580156159d057506159cf67f06f5973eebe30f360c01b617e93565b5b80615a835750600073ffffffffffffffffffffffffffffffffffffffff16600f60008473ffffffffffffffffffffffffffffffffffffffff1673ffffffffffffffffffffffffffffffffffffffff16815260200190815260200160002060009054906101000a900473ffffffffffffffffffffffffffffffffffffffff1673ffffffffffffffffffffffffffffffffffffffff1614158015615a825750615a8167ef7e8c07ec30a86660c01b617e93565b5b5b15615aed57615a9c670b64bb56520de05d60c01b615483565b615ab0671869ec423d1edf8e60c01b615483565b816040517f342ed6a3000000000000000000000000000000000000000000000000000000008152600401615ae491906188ae565b60405180910390fd5b615b016796fdcb508652dbb460c01b615483565b615b1567dbef74462bfad4bf60c01b615483565b81600b60008373ffffffffffffffffffffffffffffffffffffffff1673ffffffffffffffffffffffffffffffffffffffff16815260200190815260200160002060006101000a81548173ffffffffffffffffffffffffffffffffffffffff021916908373ffffffffffffffffffffffffffffffffffffffff160217905550615ba767f8a29e2e6e50c51460c01b615483565b80600f60008473ffffffffffffffffffffffffffffffffffffffff1673ffffffffffffffffffffffffffffffffffffffff16815260200190815260200160002060006101000a81548173ffffffffffffffffffffffffffffffffffffffff021916908373ffffffffffffffffffffffffffffffffffffffff1602179055505050565b60007ff0c57e16840df040f15088dc2f81fe391c3923bec73e23a9662efc9c229c6a00905090565b615c6567dcd96101ef21791160c01b615483565b615c7967fde489b9628711af60c01b615483565b80601460008473ffffffffffffffffffffffffffffffffffffffff1673ffffffffffffffffffffffffffffffffffffffff16815260200190815260200160002081905550615cd167700e40896407ba6f60c01b615483565b42601360008473ffffffffffffffffffffffffffffffffffffffff1673ffffffffffffffffffffffffffffffffffffffff168152602001908152602001600020819055505050565b615d2d676a74a71ba1f3e48360c01b615483565b615d4167186478e73ac4b13960c01b615483565b615d55676bb41378fe76e43160c01b615483565b6000601060009054906101000a900473ffffffffffffffffffffffffffffffffffffffff1673ffffffffffffffffffffffffffffffffffffffff1663a5d54f656040518163ffffffff1660e01b8152600401600060405180830381865afa158015615dc4573d6000803e3d6000fd5b505050506040513d6000823e3d601f19601f82011682018060405250810190615ded9190618f30565b9050615e036773f99dc8038e0e2360c01b615483565b615e1767c5ebf74ae6a4d52960c01b615483565b6000601554825110158015615e3c5750615e3b67ba25e91fd41e5dff60c01b617e93565b5b80615e7f5750600082511480615e625750615e61671ba4c48fadcfe93860c01b617e9e565b5b8015615e7e5750615e7d676d8cdcb36fcd497e60c01b617e93565b5b5b8015615e9b5750615e9a679105f53cdf29490360c01b617e93565b5b615eae57615ea98251614e56565b615eb2565b6015545b9050615ec867f88881567a23c3d160c01b615483565b615edc67ea181141e4af94c060c01b615483565b808251111561676957615ef96714850c7205423a0f60c01b615483565b615f0d67526b18eabb09882660c01b615483565b615f216796ed46ea47f2a1dd60c01b615483565b600082519050615f3b67df1cb78079f1dc0260c01b615483565b615f4f6716f0fd4b6e8c298e60c01b615483565b600080601060009054906101000a900473ffffffffffffffffffffffffffffffffffffffff1673ffffffffffffffffffffffffffffffffffffffff1663957950a76040518163ffffffff1660e01b8152600401600060405180830381865afa158015615fbf573d6000803e3d6000fd5b505050506040513d6000823e3d601f19601f82011682018060405250810190615fe89190619099565b915091506160006729af56050207ac5760c01b615483565b6160146737cc55910132a38560c01b615483565b60008467ffffffffffffffff8111156160305761602f618ccc565b5b60405190808252806020026020018201604052801561605e5781602001602082028036833780820191505090505b50905061607567286706b845bfb52760c01b615483565b6160896729df7d695d2c7edd60c01b615483565b600061609f671441bfb413fd33e360c01b615483565b6160b367fd5fdd24fe5cb3ed60c01b615483565b60005b88518110156163a3576160d367b927bb7195710dd860c01b615483565b6160e767068c80dc9e5f78da60c01b615483565b60005b86811015616395576161066780b4663319639f9560c01b615483565b61611a6795e180e504d719e760c01b615483565b89828151811061612d5761612c618e4b565b5b602002602001015173ffffffffffffffffffffffffffffffffffffffff1689828151811061615e5761615d618e4b565b5b602002602001015173ffffffffffffffffffffffffffffffffffffffff1603616374576161956792f7a4920864c51b60c01b615483565b6161a9672d0d85ca8104322f60c01b615483565b8982815181106161bc576161bb618e4b565b5b60200260200101518484815181106161d7576161d6618e4b565b5b602002602001019073ffffffffffffffffffffffffffffffffffffffff16908173ffffffffffffffffffffffffffffffffffffffff1681525050616225671510e5d5095bd62960c01b615483565b828061623090618e61565b93505061624767ad60d386c564084a60c01b615483565b85818151811061625a57616259618e4b565b5b60200260200101518561626d9190618e9a565b945061628367f2414f2247331c4560c01b615483565b868061628e90619142565b9750506162a5670d3fb7b82262132a60c01b615483565b8887815181106162b8576162b7618e4b565b5b60200260200101518982815181106162d3576162d2618e4b565b5b602002602001019073ffffffffffffffffffffffffffffffffffffffff16908173ffffffffffffffffffffffffffffffffffffffff1681525050616321672e5ab7c6067aeaac60c01b615483565b85878151811061633457616333618e4b565b5b602002602001015186828151811061634f5761634e618e4b565b5b60200260200101818152505061636f6739d667443e1e31a160c01b615483565b616395565b6163886725594945fc3414a860c01b615483565b80806001019150506160ea565b5080806001019150506160b6565b506163b867a3fd3d3a93a1a84c60c01b615483565b6163cc67082e90e06888885d60c01b615483565b6000600c60009054906101000a900473ffffffffffffffffffffffffffffffffffffffff1673ffffffffffffffffffffffffffffffffffffffff1663832206266040518163ffffffff1660e01b8152600401602060405180830381865afa15801561643b573d6000803e3d6000fd5b505050506040513d601f19601f8201168201806040525081019061645f9190618db2565b90506164756730ab8d1508a7684260c01b615483565b61648967649ce72d86c6e6f260c01b615483565b6000855111801561649a5750600084115b15616749576164b3675316369b9a9a224860c01b615483565b6164c767046d23cf5d494aa560c01b615483565b6164db67f53d43d26b0ca37a60c01b615483565b60005b8351811015616712576164fb67b9c0075b057918d360c01b615483565b42821860405160200161650e91906188d5565b6040516020818303038152906040528051906020012060001c915061653d67a3203bf09cc4ab8560c01b615483565b61655167985e921efee9866160c01b615483565b600061655e878785617ea5565b905061657467f375f6017c001ccd60c01b615483565b89818151811061658757616586618e4b565b5b60200260200101518583815181106165a2576165a1618e4b565b5b602002602001019073ffffffffffffffffffffffffffffffffffffffff16908173ffffffffffffffffffffffffffffffffffffffff16815250506165f06789a1e94a0dffb93660c01b615483565b86818151811061660357616602618e4b565b5b6020026020010151866166169190618e9a565b955061662c677d2b38bc352a809060c01b615483565b878061663790619142565b98505061664e67c6c502d599fffe6b60c01b615483565b89888151811061666157616660618e4b565b5b60200260200101518a828151811061667c5761667b618e4b565b5b602002602001019073ffffffffffffffffffffffffffffffffffffffff16908173ffffffffffffffffffffffffffffffffffffffff16815250506166ca67390bed3960552ca260c01b615483565b8688815181106166dd576166dc618e4b565b5b60200260200101518782815181106166f8576166f7618e4b565b5b6020026020010181815250505080806001019150506164de565b50616727676b02b0eec160ddac60c01b615483565b61673b674d33f90a40c7f59d60c01b615483565b6167448361801b565b61675e565b61675d671c05b7dbb2b3c20560c01b615483565b5b5050505050506167af565b61677d6774fbcecdb4a2bc6a60c01b615483565b61679167c52befc3499ef7ed60c01b615483565b6167a5672f36f7c3d77ad8ff60c01b615483565b6167ae8261801b565b5b6167c3677f44fedc0d8e8ab160c01b615483565b6167d76767d1dc0ca6ada10460c01b615483565b601160009054906101000a900473ffffffffffffffffffffffffffffffffffffffff1673ffffffffffffffffffffffffffffffffffffffff16635f17497e60006040518263ffffffff1660e01b81526004016168339190618fdb565b600060405180830381600087803b15801561684d57600080fd5b505af1158015616861573d6000803e3d6000fd5b505050506168796714010dbdaa4f5a3660c01b615483565b61688d674b31f8c53efe641660c01b615483565b6000825114616959576168aa67378bc217dc6829e660c01b615483565b6168be67c27b920cd8bb7df060c01b615483565b6168d26711bc7fb65eadaedc60c01b615483565b601060009054906101000a900473ffffffffffffffffffffffffffffffffffffffff1673ffffffffffffffffffffffffffffffffffffffff16631555371c6040518163ffffffff1660e01b8152600401600060405180830381600087803b15801561693c57600080fd5b505af1158015616950573d6000803e3d6000fd5b5050505061696e565b61696d671c0452c21918bdac60c01b615483565b5b61698166545eb85d133ebe60c01b615483565b61699567e7d42f7634b5555660c01b615483565b601060009054906101000a900473ffffffffffffffffffffffffffffffffffffffff1673ffffffffffffffffffffffffffffffffffffffff166322e3d9866040518163ffffffff1660e01b8152600401602060405180830381865afa158015616a02573d6000803e3d6000fd5b505050506040513d601f19601f82011682018060405250810190616a269190618db2565b421115616b9657616a416757fc1e409c5d219760c01b615483565b616a5567d1501e6e034b38d560c01b615483565b616a6967c65efd21e39f645d60c01b615483565b601060009054906101000a900473ffffffffffffffffffffffffffffffffffffffff1673ffffffffffffffffffffffffffffffffffffffff16639e72c635601060009054906101000a900473ffffffffffffffffffffffffffffffffffffffff1673ffffffffffffffffffffffffffffffffffffffff166322e3d9866040518163ffffffff1660e01b8152600401602060405180830381865afa158015616b14573d6000803e3d6000fd5b505050506040513d601f19601f82011682018060405250810190616b389190618db2565b42616b439190618e9a565b6040518263ffffffff1660e01b8152600401616b5f91906188d5565b600060405180830381600087803b158015616b7957600080fd5b505af1158015616b8d573d6000803e3d6000fd5b50505050616bab565b616baa6744801157a83d50a460c01b615483565b5b505050565b616bc467e5de35d93741cb2e60c01b615483565b616bd86738ce3c4b8a7ddc3760c01b615483565b616bec6765909a803eb45f1960c01b615483565b600073ffffffffffffffffffffffffffffffffffffffff16816000016020810190616c179190618887565b73ffffffffffffffffffffffffffffffffffffffff16148015616c4a5750616c4967b63030bd1f1ed59f60c01b617e93565b5b80616ccb5750600073ffffffffffffffffffffffffffffffffffffffff16816020016020810190616c7b9190618887565b73ffffffffffffffffffffffffffffffffffffffff16148015616cae5750616cad670ed74486ecd5cac460c01b617e93565b5b8015616cca5750616cc967fc669e6caececcdb60c01b617e93565b5b5b80616d4c5750600073ffffffffffffffffffffffffffffffffffffffff16816040016020810190616cfc9190618887565b73ffffffffffffffffffffffffffffffffffffffff16148015616d2f5750616d2e6751a5435410458e5960c01b617e93565b5b8015616d4b5750616d4a67733f56192e64b20560c01b617e93565b5b5b80616dcd5750600073ffffffffffffffffffffffffffffffffffffffff16816060016020810190616d7d9190618887565b73ffffffffffffffffffffffffffffffffffffffff16148015616db05750616daf672d69b1873648556760c01b617e93565b5b8015616dcc5750616dcb6768ffcecb0da6c71f60c01b617e93565b5b5b80616e325750600073ffffffffffffffffffffffffffffffffffffffff16816080016020810190616dfe9190618887565b73ffffffffffffffffffffffffffffffffffffffff16148015616e315750616e30674e1c9e12a096a42d60c01b617e93565b5b5b15616e9157616e4b67a3cab61339109de360c01b615483565b616e5f6797e475d4aaba466260c01b615483565b6040517fd92e233d00000000000000000000000000000000000000000000000000000000815260040160405180910390fd5b616ea567ac25eea70e1c1e8760c01b615483565b50565b616eb06186e4565b616eb981618724565b50565b616ec46187aa565b73ffffffffffffffffffffffffffffffffffffffff16616ee261305a565b73ffffffffffffffffffffffffffffffffffffffff1614616f4157616f056187aa565b6040517f118cdaa7000000000000000000000000000000000000000000000000000000008152600401616f3891906188ae565b60405180910390fd5b565b6000616f4d617e6b565b905060008160000160009054906101000a900473ffffffffffffffffffffffffffffffffffffffff169050828260000160006101000a81548173ffffffffffffffffffffffffffffffffffffffff021916908373ffffffffffffffffffffffffffffffffffffffff1602179055508273ffffffffffffffffffffffffffffffffffffffff168173ffffffffffffffffffffffffffffffffffffffff167f8be0079c531659141344cd1fd0a4f28419497f9722a3daafe3b4186f6b6457e060405160405180910390a3505050565b61702e67381e87aaf9dd234060c01b615483565b617042677cf7d57d61744ff360c01b615483565b61705667a0eaa669333a3fbb60c01b615483565b600061706c67526bb95eb3d56f2860c01b615483565b6170806712f834e890e0b50060c01b615483565b6000617096678ce73828ba6c741860c01b615483565b60028054905091506170b2671fd5d4acf669773060c01b615483565b6170c667e487684f4095179a60c01b615483565b600090505b8181101561718a576170e76761dc76c8ae119efd60c01b615483565b6000600a60006002848154811061710157617100618e4b565b5b9060005260206000200160009054906101000a900473ffffffffffffffffffffffffffffffffffffffff1673ffffffffffffffffffffffffffffffffffffffff1673ffffffffffffffffffffffffffffffffffffffff16815260200190815260200160002060006101000a81548160ff02191690831515021790555080806001019150506170cb565b61719e67e23abaec6e93d2d060c01b615483565b60008054905091506171ba67eb75507106731fd660c01b615483565b6171ce675957bf45bb671fbe60c01b615483565b600090505b81811015617291576171ef678d4eb3a86998818660c01b615483565b6001600a600080848154811061720857617207618e4b565b5b9060005260206000200160009054906101000a900473ffffffffffffffffffffffffffffffffffffffff1673ffffffffffffffffffffffffffffffffffffffff1673ffffffffffffffffffffffffffffffffffffffff16815260200190815260200160002060006101000a81548160ff02191690831515021790555080806001019150506171d3565b6172a567e8a7023042eb952360c01b615483565b600060029080546172b79291906187f3565b505050565b6172d0675bf9b212ba65aa5c60c01b615483565b6172e467b6d3f01636258e1e60c01b615483565b6172f867b159a66d83cd4e8e60c01b615483565b606061730e673452cde08a9e959b60c01b615483565b617322678e19415d4574c4a960c01b615483565b60006173386740c210c7678ad6b960c01b615483565b60008054806020026020016040519081016040528092919081815260200182805480156173ba57602002820191906000526020600020905b8160009054906101000a900473ffffffffffffffffffffffffffffffffffffffff1673ffffffffffffffffffffffffffffffffffffffff1681526020019060010190808311617370575b505050505091506173d56759f7adeceaa74e6b60c01b615483565b6173e967939299d4b2bdb8f960c01b615483565b600090505b815181101561748a5761740b67bdb5a4e0a3424fb160c01b615483565b60006009600084848151811061742457617423618e4b565b5b602002602001015173ffffffffffffffffffffffffffffffffffffffff1673ffffffffffffffffffffffffffffffffffffffff16815260200190815260200160002060006101000a81548160ff02191690831515021790555080806001019150506173ee565b61749e679810aa34efd46e9660c01b615483565b600160009080546174b09291906187f3565b506174c5670633f9f10a85a58e60c01b615483565b600080548060200260200160405190810160405280929190818152602001828054801561754757602002820191906000526020600020905b8160009054906101000a900473ffffffffffffffffffffffffffffffffffffffff1673ffffffffffffffffffffffffffffffffffffffff16815260200190600101908083116174fd575b505050505091506175626712757eca7ff703d360c01b615483565b6175766744da35c59950ea5a60c01b615483565b600090505b81518110156176ae5761759867b38f5897b135f9f460c01b615483565b6175ac670cfcbdb91e392aed60c01b615483565b60008282815181106175c1576175c0618e4b565b5b602002602001015190506175df6770a7496e1a4c707560c01b615483565b6001600960008373ffffffffffffffffffffffffffffffffffffffff1673ffffffffffffffffffffffffffffffffffffffff16815260200190815260200160002060006101000a81548160ff02191690831515021790555061764b674985bb595959f24b60c01b615483565b601260008273ffffffffffffffffffffffffffffffffffffffff1673ffffffffffffffffffffffffffffffffffffffff168152602001908152602001600020600081548092919061769b90618e61565b919050555050808060010191505061757b565b5050565b6176c6676da0eed23ce87ba060c01b615483565b6176da6781eefe6ff5b4902f60c01b615483565b6176ee6717d76821816a371660c01b615483565b6000601060009054906101000a900473ffffffffffffffffffffffffffffffffffffffff1673ffffffffffffffffffffffffffffffffffffffff1663a5d54f656040518163ffffffff1660e01b8152600401600060405180830381865afa15801561775d573d6000803e3d6000fd5b505050506040513d6000823e3d601f19601f820116820180604052508101906177869190618f30565b905061779c67a9b184fe80961b3d60c01b615483565b6177b0672660ea9a67c0fe9060c01b615483565b6000815190506177ca670617b16fdb9ec3c060c01b615483565b6177de67f326181f533755cc60c01b615483565b60005b81811015617ad0576177fd67516acfbb3ef501eb60c01b615483565b617811673ebbde3f1afde0d860c01b615483565b6000600b600085848151811061782a57617829618e4b565b5b602002602001015173ffffffffffffffffffffffffffffffffffffffff1673ffffffffffffffffffffffffffffffffffffffff16815260200190815260200160002060009054906101000a900473ffffffffffffffffffffffffffffffffffffffff1690506178a367ab4994349146f27960c01b615483565b6178b7671ae8057acc3fbbc760c01b615483565b600960008273ffffffffffffffffffffffffffffffffffffffff1673ffffffffffffffffffffffffffffffffffffffff16815260200190815260200160002060009054906101000a900460ff168015617920575061791f67d37708cb68a7a22260c01b617e93565b5b8061798657506000601460008373ffffffffffffffffffffffffffffffffffffffff1673ffffffffffffffffffffffffffffffffffffffff168152602001908152602001600020541480156179855750617984670e676d9b6fe6586f60c01b617e93565b5b5b156179b95761799f676230a0ca354f03b960c01b615483565b6179b3673ec080b1c1fbae4260c01b615483565b50617ac5565b6179cd67859de63d93ae464f60c01b615483565b6179e1671d532ac669f9c67d60c01b615483565b6179f567efefd5f6bd195b0e60c01b615483565b601860009054906101000a900473ffffffffffffffffffffffffffffffffffffffff1673ffffffffffffffffffffffffffffffffffffffff166392f2944382601460008573ffffffffffffffffffffffffffffffffffffffff1673ffffffffffffffffffffffffffffffffffffffff168152602001908152602001600020546040518363ffffffff1660e01b8152600401617a91929190618e1d565b600060405180830381600087803b158015617aab57600080fd5b505af1158015617abf573d6000803e3d6000fd5b50505050505b8060010190506177e1565b505050565b617ae967f05882d22b6d76df60c01b615483565b617afd67ef9438e8a939ddc660c01b615483565b617b116729763331434bd26460c01b615483565b6000601060009054906101000a900473ffffffffffffffffffffffffffffffffffffffff1673ffffffffffffffffffffffffffffffffffffffff1663df6f55f56040518163ffffffff1660e01b8152600401600060405180830381865afa158015617b80573d6000803e3d6000fd5b505050506040513d6000823e3d601f19601f82011682018060405250810190617ba99190618f30565b9050617bbf67939713b1946bb69a60c01b615483565b617bd367dfeb8043e6e0572c60c01b615483565b600081519050617bed6748fabec3e5a9164b60c01b615483565b617c0167c67e8a728c7819d560c01b615483565b60005b81811015617e6657617c20675a44a066b2cc297760c01b615483565b617c34675951e1487124424960c01b615483565b6000600b6000858481518110617c4d57617c4c618e4b565b5b602002602001015173ffffffffffffffffffffffffffffffffffffffff1673ffffffffffffffffffffffffffffffffffffffff16815260200190815260200160002060009054906101000a900473ffffffffffffffffffffffffffffffffffffffff169050617cc667b411ad724792b05b60c01b615483565b617cda67f698541c536ffbdf60c01b615483565b6000601460008373ffffffffffffffffffffffffffffffffffffffff1673ffffffffffffffffffffffffffffffffffffffff1681526020019081526020016000205414617d4f57617d356784f3640e5ea417d760c01b615483565b617d496782f2be7a4f0587ee60c01b615483565b50617e5b565b617d63673ddf85180e351a6f60c01b615483565b617d7767243160d55a86b72360c01b615483565b617d8b67bc910becb2e3ee8d60c01b615483565b601860009054906101000a900473ffffffffffffffffffffffffffffffffffffffff1673ffffffffffffffffffffffffffffffffffffffff166351150d5782601360008573ffffffffffffffffffffffffffffffffffffffff1673ffffffffffffffffffffffffffffffffffffffff168152602001908152602001600020546040518363ffffffff1660e01b8152600401617e27929190618e1d565b600060405180830381600087803b158015617e4157600080fd5b505af1158015617e55573d6000803e3d6000fd5b50505050505b806001019050617c04565b505050565b60007f9016d09d72d40fdae2fd8ceac6b6234c7706214fd39c1cd1e609a0528c199300905090565b600060019050919050565b6000919050565b6000617ebb6783f7e10f7ebdbc9d60c01b615483565b617ecf6744fa8e3feb7c722f60c01b615483565b617ee367bce1588fef3d823b60c01b615483565b60008383617ef1919061915e565b9050617f07671dafbc1b584df98460c01b615483565b617f1b67512268fb53a1c9ff60c01b615483565b6000617f3167cd9e3058d8df04f160c01b615483565b617f456721c0149c2960f37060c01b615483565b6000617f5b6703debba385ccb65760c01b615483565b617f6f67571ea97e4152587e60c01b615483565b5b828211617fda57617f8b6775085ddf694ff7fe60c01b615483565b868181518110617f9e57617f9d618e4b565b5b602002602001015182617fb19190618dff565b9150617fc76713693b3c2d69010860c01b615483565b8080617fd290618e61565b915050617f70565b617fee672328f1ddf70a134960c01b615483565b6180026784effad93f446a0260c01b615483565b60018161800f9190618e9a565b93505050509392505050565b61802f674b607ba14cdf69af60c01b615483565b618043677d351e49ddbd2f8f60c01b615483565b6001600061805191906187d2565b618065679c9418c1a7abad2560c01b615483565b618079677f2c89c60eb706d860c01b615483565b600081510361855a57618096677fde14169f14772c60c01b615483565b6180aa672ea96191b55f011e60c01b615483565b6180be67234c6aa4d4f16cf960c01b615483565b6000808054905090506180db6721ed25ad14e95a0e60c01b615483565b6180ef6756795250908dd8fe60c01b615483565b60005b818110156184285761810e67b560c275a81009a260c01b615483565b6181226711b9f30495239f1c60c01b615483565b600080828154811061813757618136618e4b565b5b9060005260206000200160009054906101000a900473ffffffffffffffffffffffffffffffffffffffff16905061817867a77dc3ff8279ff5260c01b615483565b61818c675e4fe69aa4d3dc3e60c01b615483565b6000600f60008373ffffffffffffffffffffffffffffffffffffffff1673ffffffffffffffffffffffffffffffffffffffff16815260200190815260200160002060009054906101000a900473ffffffffffffffffffffffffffffffffffffffff16905061820467517ac3228636b1ff60c01b615483565b61821867b6ae5e5de5b6aef760c01b615483565b601060009054906101000a900473ffffffffffffffffffffffffffffffffffffffff1673ffffffffffffffffffffffffffffffffffffffff1663a711e6a1826040518263ffffffff1660e01b815260040161827391906188ae565b602060405180830381865afa158015618290573d6000803e3d6000fd5b505050506040513d601f19601f820116820180604052508101906182b49190619179565b801561835d57506000601060009054906101000a900473ffffffffffffffffffffffffffffffffffffffff1673ffffffffffffffffffffffffffffffffffffffff1663e9ab030083846040518363ffffffff1660e01b815260040161831a9291906191a5565b602060405180830381865afa158015618337573d6000803e3d6000fd5b505050506040513d601f19601f8201168201806040525081019061835b9190618db2565b145b1561840657618376672c2b9baed9723aee60c01b615483565b61838a678c3d3ca6f725983660c01b615483565b61839e67bd6fd9c8c498448460c01b615483565b6001829080600181540180825580915050600190039060005260206000200160009091909190916101000a81548173ffffffffffffffffffffffffffffffffffffffff021916908373ffffffffffffffffffffffffffffffffffffffff16021790555061841b565b61841a6730074b8940fcf70460c01b615483565b5b50508060010190506180f2565b5061843d67b14ea261540ad56f60c01b615483565b61845167caf082489d1ab9fa60c01b615483565b60006001805490500361853f57618471664219190216629660c01b615483565b61848567699be65845fca02160c01b615483565b61849967031d169c69dd617860c01b615483565b6001600080815481106184af576184ae618e4b565b5b9060005260206000200160009054906101000a900473ffffffffffffffffffffffffffffffffffffffff169080600181540180825580915050600190039060005260206000200160009091909190916101000a81548173ffffffffffffffffffffffffffffffffffffffff021916908373ffffffffffffffffffffffffffffffffffffffff160217905550618554565b618553674b4beabacab180cd60c01b615483565b5b506186e1565b61856e67234d9cef0f67220760c01b615483565b61858267e68e88cc9470e3b560c01b615483565b61859667bdcbda81f675aa3360c01b615483565b6000815190506185b0675730e4daaca0cf3560c01b615483565b6185c4671b74f436bfb7f84360c01b615483565b60005b818110156186de576185e367a53744a7cbf2145060c01b615483565b6185f767a848da9452f2094d60c01b615483565b6001600b60008584815181106186105761860f618e4b565b5b602002602001015173ffffffffffffffffffffffffffffffffffffffff1673ffffffffffffffffffffffffffffffffffffffff16815260200190815260200160002060009054906101000a900473ffffffffffffffffffffffffffffffffffffffff169080600181540180825580915050600190039060005260206000200160009091909190916101000a81548173ffffffffffffffffffffffffffffffffffffffff021916908373ffffffffffffffffffffffffffffffffffffffff1602179055508060010190506185c7565b50505b50565b6186ec6187b2565b618722576040517fd7e6bcf800000000000000000000000000000000000000000000000000000000815260040160405180910390fd5b565b61872c6186e4565b600073ffffffffffffffffffffffffffffffffffffffff168173ffffffffffffffffffffffffffffffffffffffff160361879e5760006040517f1e4fbdf700000000000000000000000000000000000000000000000000000000815260040161879591906188ae565b60405180910390fd5b6187a781616f43565b50565b600033905090565b60006187bc615c29565b60000160089054906101000a900460ff16905090565b50805460008255906000526020600020908101906187f09190618845565b50565b8280548282559060005260206000209081019282156188345760005260206000209182015b82811115618833578254825591600101919060010190618818565b5b5090506188419190618845565b5090565b5b8082111561885e576000816000905550600101618846565b5090565b73ffffffffffffffffffffffffffffffffffffffff8116811461888457600080fd5b50565b60006020828403121561889957600080fd5b81356188a481618862565b8091505092915050565b600060208201905073ffffffffffffffffffffffffffffffffffffffff8316825292915050565b600060208201905082825292915050565b600080604083850312156188f957600080fd5b823561890481618862565b80925050602083013561891681618862565b809150509250929050565b60006020820190506006831061894757634e487b7160e01b600052602160045260246000fd5b82825292915050565b600060208201905073ffffffffffffffffffffffffffffffffffffffff8316825292915050565b6000806040838503121561898a57600080fd5b82359150602083013590509250929050565b600080604083850312156189af57600080fd5b82356189ba81618862565b80925050602083013590509250929050565b60008083601f8401126189de57600080fd5b8235905067ffffffffffffffff8111156189f757600080fd5b6020830191508360208260051b8501011115618a1257600080fd5b9250929050565b600080600080600080868803610140811215618a3457600080fd5b8735618a3f81618862565b8097505060e0601f1982011215618a5557600080fd5b5060208701945061010087013567ffffffffffffffff80821115618a7857600080fd5b618a848a838b016189cc565b925080965050819450610120890135915080821115618aa257600080fd5b50618aaf89828a016189cc565b915080935050809150509295509295509295565b600060208284031215618ad557600080fd5b8135905092915050565b600060208083016020845280855180835260408601915060208701925060005b81811015618b365773ffffffffffffffffffffffffffffffffffffffff845116835284830192508484019350600181019050618aff565b505080935050505092915050565b60005b83811015618b62578082015181840152602081019050618b47565b50600083830152505050565b6020815260008251806020840152618b8d816040850160208701618b44565b6040601f19601f83011684010191505092915050565b6000602082019050821515825292915050565b60008060408385031215618bc957600080fd5b82356fffffffffffffffffffffffffffffffff1981168114618bea57600080fd5b80925050602083013561ffff60f01b81168114618c0657600080fd5b809150509250929050565b600060208201905073ffffffffffffffffffffffffffffffffffffffff8316825292915050565b600060208201905073ffffffffffffffffffffffffffffffffffffffff8316825292915050565b600060208201905082825292915050565b6000815190506fffffffffffffffffffffffffffffffff81168114618c9457600080fd5b919050565b60008060408385031215618cac57600080fd5b618cb583618c70565b9150618cc360208401618c70565b90509250929050565b634e487b7160e01b600052604160045260246000fd5b60006040519050601f19601f830116810181811067ffffffffffffffff82111715618d1057618d0f618ccc565b5b8060405250919050565b600060208284031215618d2c57600080fd5b815167ffffffffffffffff80821115618d4457600080fd5b818401915084601f830112618d5857600080fd5b815181811115618d6b57618d6a618ccc565b5b618d7e6020601f19601f84011601618ce2565b9150808252856020828501011115618d9557600080fd5b618da6816020840160208601618b44565b50809250505092915050565b600060208284031215618dc457600080fd5b8151905092915050565b600060208201905067ffffffffffffffff8316825292915050565b634e487b7160e01b600052601160045260246000fd5b6000828201905080821115618e1757618e16618de9565b5b92915050565b600060408201905073ffffffffffffffffffffffffffffffffffffffff841682528260208301529392505050565b634e487b7160e01b600052603260045260246000fd5b600080198203618e7457618e73618de9565b5b600182019050919050565b600060208201905067ffffffffffffffff8316825292915050565b6000828203905081811115618eb257618eb1618de9565b5b92915050565b600060608201905073ffffffffffffffffffffffffffffffffffffffff851682526fffffffffffffffffffffffffffffffff198416602083015261ffff60f01b83166040830152949350505050565b600067ffffffffffffffff821115618f2257618f21618ccc565b5b60208260051b019050919050565b60006020808385031215618f4357600080fd5b825167ffffffffffffffff811115618f5a57600080fd5b808401905084601f820112618f6e57600080fd5b8051618f81618f7c82618f07565b618ce2565b808282528482019150848360051b850101925087831115618fa157600080fd5b84840193505b82841015618fcd578351618fba81618862565b8083525084820191508484019350618fa7565b809550505050505092915050565b6000602080830160208452808554808352604086019150866000526020600020925060005b818110156190385773ffffffffffffffffffffffffffffffffffffffff84541683528483019250600184019350600181019050619000565b505080935050505092915050565b634e487b7160e01b600052601260045260246000fd5b60008261906c5761906b619046565b5b828204905092915050565b60008282029050818104831482151761909357619092618de9565b5b92915050565b600080604083850312156190ac57600080fd5b825167ffffffffffffffff8111156190c357600080fd5b808401905084601f8201126190d757600080fd5b805160206190ec6190e783618f07565b618ce2565b808382528282019150828460051b86010193508884111561910c57600080fd5b82850194505b8385101561912d578451825282820191508285019450619112565b80965050508086015193505050509250929050565b60008161915257619151618de9565b5b60001982019050919050565b60008261916e5761916d619046565b5b828206905092915050565b60006020828403121561918b57600080fd5b8151801515811461919b57600080fd5b8091505092915050565b600060408201905073ffffffffffffffffffffffffffffffffffffffff8085168352808416602084015250939250505056fea26469706673582212201c50d7f77937aaec89f3234d2a57253acc0bf40b62d0d028b1b50fa4de0d667764736f6c63430008190033",
  "linkReferences": {},
  "deployedLinkReferences": {}
}