{
  "_format": "hh-sol-artifact-1",
  "contractName": "ValidatorSetHbbft",
  "sourceName": "contracts/ValidatorSetHbbft.sol",
  "abi": [
    {
      "inputs": [],
      "stateMutability": "nonpayable",
      "type": "constructor"
    },
    {
      "inputs": [],
      "name": "AnnounceBlockNumberTooOld",
      "type": "error"
    },
    {
      "inputs": [],
      "name": "CantAnnounceAvailability",
      "type": "error"
    },
    {
      "inputs": [],
      "name": "EpochNotYetzFinished",
      "type": "error"
    },
    {
      "inputs": [],
      "name": "InitialAddressesLengthMismatch",
      "type": "error"
    },
    {
      "inputs": [],
      "name": "InitialValidatorsEmpty",
      "type": "error"
    },
    {
      "inputs": [],
      "name": "InvalidAddressPair",
      "type": "error"
    },
    {
      "inputs": [],
      "name": "InvalidAnnounceBlockHash",
      "type": "error"
    },
    {
      "inputs": [],
      "name": "InvalidAnnounceBlockNumber",
      "type": "error"
    },
    {
      "inputs": [],
      "name": "InvalidInactivityThreshold",
      "type": "error"
    },
    {
      "inputs": [],
      "name": "InvalidInitialization",
      "type": "error"
    },
    {
      "inputs": [],
      "name": "InvalidPossibleValidatorCount",
      "type": "error"
    },
    {
      "inputs": [
        {
          "internalType": "address",
          "name": "_value",
          "type": "address"
        }
      ],
      "name": "MiningAddressAlreadyUsed",
      "type": "error"
    },
    {
      "inputs": [],
      "name": "NotInitializing",
      "type": "error"
    },
    {
      "inputs": [
        {
          "internalType": "address",
          "name": "owner",
          "type": "address"
        }
      ],
      "name": "OwnableInvalidOwner",
      "type": "error"
    },
    {
      "inputs": [
        {
          "internalType": "address",
          "name": "account",
          "type": "address"
        }
      ],
      "name": "OwnableUnauthorizedAccount",
      "type": "error"
    },
    {
      "inputs": [
        {
          "internalType": "address",
          "name": "_value",
          "type": "address"
        }
      ],
      "name": "StakingAddressAlreadyUsed",
      "type": "error"
    },
    {
      "inputs": [
        {
          "internalType": "address",
          "name": "_mining",
          "type": "address"
        }
      ],
      "name": "StakingPoolNotExist",
      "type": "error"
    },
    {
      "inputs": [],
      "name": "Unauthorized",
      "type": "error"
    },
    {
      "inputs": [],
      "name": "ValidatorsListEmpty",
      "type": "error"
    },
    {
      "inputs": [],
      "name": "ZeroAddress",
      "type": "error"
    },
    {
      "anonymous": false,
      "inputs": [
        {
          "indexed": false,
          "internalType": "uint64",
          "name": "version",
          "type": "uint64"
        }
      ],
      "name": "Initialized",
      "type": "event"
    },
    {
      "anonymous": false,
      "inputs": [
        {
          "indexed": true,
          "internalType": "address",
          "name": "previousOwner",
          "type": "address"
        },
        {
          "indexed": true,
          "internalType": "address",
          "name": "newOwner",
          "type": "address"
        }
      ],
      "name": "OwnershipTransferred",
      "type": "event"
    },
    {
      "anonymous": false,
      "inputs": [
        {
          "indexed": false,
          "internalType": "address",
          "name": "_address",
          "type": "address"
        }
      ],
      "name": "SetBonusScoreContract",
      "type": "event"
    },
    {
      "anonymous": false,
      "inputs": [
        {
          "indexed": false,
          "internalType": "address",
          "name": "_address",
          "type": "address"
        }
      ],
      "name": "SetConnectivityTrackerContract",
      "type": "event"
    },
    {
      "anonymous": false,
      "inputs": [
        {
          "indexed": false,
          "internalType": "uint256",
          "name": "_count",
          "type": "uint256"
        }
      ],
      "name": "SetMaxValidators",
      "type": "event"
    },
    {
      "anonymous": false,
      "inputs": [
        {
          "indexed": false,
          "internalType": "uint256",
          "name": "_value",
          "type": "uint256"
        }
      ],
      "name": "SetValidatorInactivityThreshold",
      "type": "event"
    },
    {
      "anonymous": false,
      "inputs": [
        {
          "indexed": false,
          "internalType": "address",
          "name": "validator",
          "type": "address"
        },
        {
          "indexed": false,
          "internalType": "uint256",
          "name": "timestamp",
          "type": "uint256"
        }
      ],
      "name": "ValidatorAvailable",
      "type": "event"
    },
    {
      "anonymous": false,
      "inputs": [
        {
          "indexed": false,
          "internalType": "address",
          "name": "validator",
          "type": "address"
        },
        {
          "indexed": false,
          "internalType": "uint256",
          "name": "timestamp",
          "type": "uint256"
        }
      ],
      "name": "ValidatorUnavailable",
      "type": "event"
    },
    {
      "inputs": [
        {
          "internalType": "uint256",
          "name": "_blockNumber",
          "type": "uint256"
        },
        {
          "internalType": "bytes32",
          "name": "_blockhash",
          "type": "bytes32"
        }
      ],
      "name": "announceAvailability",
      "outputs": [],
      "stateMutability": "nonpayable",
      "type": "function"
    },
    {
      "inputs": [],
      "name": "blockRewardContract",
      "outputs": [
        {
          "internalType": "address",
          "name": "",
          "type": "address"
        }
      ],
      "stateMutability": "view",
      "type": "function"
    },
    {
      "inputs": [],
      "name": "bonusScoreSystem",
      "outputs": [
        {
          "internalType": "contract IBonusScoreSystem",
          "name": "",
          "type": "address"
        }
      ],
      "stateMutability": "view",
      "type": "function"
    },
    {
      "inputs": [
        {
          "internalType": "address",
          "name": "_miningAddress",
          "type": "address"
        }
      ],
      "name": "canCallAnnounceAvailability",
      "outputs": [
        {
          "internalType": "bool",
          "name": "",
          "type": "bool"
        }
      ],
      "stateMutability": "view",
      "type": "function"
    },
    {
      "inputs": [],
      "name": "connectivityTracker",
      "outputs": [
        {
          "internalType": "address",
          "name": "",
          "type": "address"
        }
      ],
      "stateMutability": "view",
      "type": "function"
    },
    {
      "inputs": [],
      "name": "finalizeChange",
      "outputs": [],
      "stateMutability": "nonpayable",
      "type": "function"
    },
    {
      "inputs": [],
      "name": "getCurrentValidatorsCount",
      "outputs": [
        {
          "internalType": "uint256",
          "name": "",
          "type": "uint256"
        }
      ],
      "stateMutability": "view",
      "type": "function"
    },
    {
      "inputs": [
        {
          "internalType": "address",
          "name": "_miningAddress",
          "type": "address"
        }
      ],
      "name": "getPendingValidatorKeyGenerationMode",
      "outputs": [
        {
          "internalType": "enum IValidatorSetHbbft.KeyGenMode",
          "name": "",
          "type": "uint8"
        }
      ],
      "stateMutability": "view",
      "type": "function"
    },
    {
      "inputs": [],
      "name": "getPendingValidators",
      "outputs": [
        {
          "internalType": "address[]",
          "name": "",
          "type": "address[]"
        }
      ],
      "stateMutability": "view",
      "type": "function"
    },
    {
      "inputs": [],
      "name": "getPreviousValidators",
      "outputs": [
        {
          "internalType": "address[]",
          "name": "",
          "type": "address[]"
        }
      ],
      "stateMutability": "view",
      "type": "function"
    },
    {
      "inputs": [
        {
          "internalType": "address",
          "name": "_miningAddress",
          "type": "address"
        }
      ],
      "name": "getPublicKey",
      "outputs": [
        {
          "internalType": "bytes",
          "name": "",
          "type": "bytes"
        }
      ],
      "stateMutability": "view",
      "type": "function"
    },
    {
      "inputs": [],
      "name": "getStakingContract",
      "outputs": [
        {
          "internalType": "address",
          "name": "",
          "type": "address"
        }
      ],
      "stateMutability": "view",
      "type": "function"
    },
    {
      "inputs": [
        {
          "internalType": "uint256",
          "name": "_possibleValidatorCount",
          "type": "uint256"
        }
      ],
      "name": "getValidatorCountSweetSpot",
      "outputs": [
        {
          "internalType": "uint256",
          "name": "",
          "type": "uint256"
        }
      ],
      "stateMutability": "pure",
      "type": "function"
    },
    {
      "inputs": [],
      "name": "getValidators",
      "outputs": [
        {
          "internalType": "address[]",
          "name": "",
          "type": "address[]"
        }
      ],
      "stateMutability": "view",
      "type": "function"
    },
    {
      "inputs": [],
      "name": "handleFailedKeyGeneration",
      "outputs": [],
      "stateMutability": "nonpayable",
      "type": "function"
    },
    {
      "inputs": [
        {
          "internalType": "address",
          "name": "_contractOwner",
          "type": "address"
        },
        {
          "components": [
            {
              "internalType": "address",
              "name": "blockRewardContract",
              "type": "address"
            },
            {
              "internalType": "address",
              "name": "randomContract",
              "type": "address"
            },
            {
              "internalType": "address",
              "name": "stakingContract",
              "type": "address"
            },
            {
              "internalType": "address",
              "name": "keyGenHistoryContract",
              "type": "address"
            },
            {
              "internalType": "address",
              "name": "bonusScoreContract",
              "type": "address"
            },
            {
              "internalType": "address",
              "name": "connectivityTrackerContract",
              "type": "address"
            },
            {
              "internalType": "uint256",
              "name": "validatorInactivityThreshold",
              "type": "uint256"
            }
          ],
          "internalType": "struct IValidatorSetHbbft.ValidatorSetParams",
          "name": "_params",
          "type": "tuple"
        },
        {
          "internalType": "address[]",
          "name": "_initialMiningAddresses",
          "type": "address[]"
        },
        {
          "internalType": "address[]",
          "name": "_initialStakingAddresses",
          "type": "address[]"
        }
      ],
      "name": "initialize",
      "outputs": [],
      "stateMutability": "nonpayable",
      "type": "function"
    },
    {
      "inputs": [],
      "name": "isFullHealth",
      "outputs": [
        {
          "internalType": "bool",
          "name": "",
          "type": "bool"
        }
      ],
      "stateMutability": "view",
      "type": "function"
    },
    {
      "inputs": [
        {
          "internalType": "address",
          "name": "_miningAddress",
          "type": "address"
        }
      ],
      "name": "isPendingValidator",
      "outputs": [
        {
          "internalType": "bool",
          "name": "",
          "type": "bool"
        }
      ],
      "stateMutability": "view",
      "type": "function"
    },
    {
      "inputs": [
        {
          "internalType": "address",
          "name": "",
          "type": "address"
        }
      ],
      "name": "isValidator",
      "outputs": [
        {
          "internalType": "bool",
          "name": "",
          "type": "bool"
        }
      ],
      "stateMutability": "view",
      "type": "function"
    },
    {
      "inputs": [
        {
          "internalType": "address",
          "name": "_stakingAddress",
          "type": "address"
        }
      ],
      "name": "isValidatorAbandoned",
      "outputs": [
        {
          "internalType": "bool",
          "name": "",
          "type": "bool"
        }
      ],
      "stateMutability": "view",
      "type": "function"
    },
    {
      "inputs": [
        {
          "internalType": "address",
          "name": "_miningAddress",
          "type": "address"
        }
      ],
      "name": "isValidatorOrPending",
      "outputs": [
        {
          "internalType": "bool",
          "name": "",
          "type": "bool"
        }
      ],
      "stateMutability": "view",
      "type": "function"
    },
    {
      "inputs": [
        {
          "internalType": "address",
          "name": "",
          "type": "address"
        }
      ],
      "name": "isValidatorPrevious",
      "outputs": [
        {
          "internalType": "bool",
          "name": "",
          "type": "bool"
        }
      ],
      "stateMutability": "view",
      "type": "function"
    },
    {
      "inputs": [],
      "name": "keyGenHistoryContract",
      "outputs": [
        {
          "internalType": "contract IKeyGenHistory",
          "name": "",
          "type": "address"
        }
      ],
      "stateMutability": "view",
      "type": "function"
    },
    {
      "inputs": [],
      "name": "maxValidators",
      "outputs": [
        {
          "internalType": "uint256",
          "name": "",
          "type": "uint256"
        }
      ],
      "stateMutability": "view",
      "type": "function"
    },
    {
      "inputs": [
        {
          "internalType": "address",
          "name": "",
          "type": "address"
        }
      ],
      "name": "miningByStakingAddress",
      "outputs": [
        {
          "internalType": "address",
          "name": "",
          "type": "address"
        }
      ],
      "stateMutability": "view",
      "type": "function"
    },
    {
      "inputs": [],
      "name": "newValidatorSet",
      "outputs": [],
      "stateMutability": "nonpayable",
      "type": "function"
    },
    {
      "inputs": [
        {
          "internalType": "address",
          "name": "_miningAddress",
          "type": "address"
        }
      ],
      "name": "notifyUnavailability",
      "outputs": [],
      "stateMutability": "nonpayable",
      "type": "function"
    },
    {
      "inputs": [],
      "name": "owner",
      "outputs": [
        {
          "internalType": "address",
          "name": "",
          "type": "address"
        }
      ],
      "stateMutability": "view",
      "type": "function"
    },
    {
      "inputs": [
        {
          "internalType": "address",
          "name": "_stakingAddress",
          "type": "address"
        }
      ],
      "name": "publicKeyByStakingAddress",
      "outputs": [
        {
          "internalType": "bytes",
          "name": "",
          "type": "bytes"
        }
      ],
      "stateMutability": "view",
      "type": "function"
    },
    {
      "inputs": [],
      "name": "randomContract",
      "outputs": [
        {
          "internalType": "address",
          "name": "",
          "type": "address"
        }
      ],
      "stateMutability": "view",
      "type": "function"
    },
    {
      "inputs": [],
      "name": "renounceOwnership",
      "outputs": [],
      "stateMutability": "nonpayable",
      "type": "function"
    },
    {
      "inputs": [
        {
          "internalType": "address",
          "name": "_address",
          "type": "address"
        }
      ],
      "name": "setBonusScoreSystemAddress",
      "outputs": [],
      "stateMutability": "nonpayable",
      "type": "function"
    },
    {
      "inputs": [
        {
          "internalType": "address",
          "name": "_address",
          "type": "address"
        }
      ],
      "name": "setConnectivityTracker",
      "outputs": [],
      "stateMutability": "nonpayable",
      "type": "function"
    },
    {
      "inputs": [
        {
          "internalType": "uint256",
          "name": "_maxValidators",
          "type": "uint256"
        }
      ],
      "name": "setMaxValidators",
      "outputs": [],
      "stateMutability": "nonpayable",
      "type": "function"
    },
    {
      "inputs": [
        {
          "internalType": "address",
          "name": "_miningAddress",
          "type": "address"
        },
        {
          "internalType": "address",
          "name": "_stakingAddress",
          "type": "address"
        }
      ],
      "name": "setStakingAddress",
      "outputs": [],
      "stateMutability": "nonpayable",
      "type": "function"
    },
    {
      "inputs": [
        {
          "internalType": "uint256",
          "name": "_seconds",
          "type": "uint256"
        }
      ],
      "name": "setValidatorInactivityThreshold",
      "outputs": [],
      "stateMutability": "nonpayable",
      "type": "function"
    },
    {
      "inputs": [
        {
          "internalType": "bytes16",
          "name": "_ip",
          "type": "bytes16"
        },
        {
          "internalType": "bytes2",
          "name": "_port",
          "type": "bytes2"
        }
      ],
      "name": "setValidatorInternetAddress",
      "outputs": [],
      "stateMutability": "nonpayable",
      "type": "function"
    },
    {
      "inputs": [
        {
          "internalType": "address",
          "name": "",
          "type": "address"
        }
      ],
      "name": "stakingByMiningAddress",
      "outputs": [
        {
          "internalType": "address",
          "name": "",
          "type": "address"
        }
      ],
      "stateMutability": "view",
      "type": "function"
    },
    {
      "inputs": [],
      "name": "stakingContract",
      "outputs": [
        {
          "internalType": "contract IStakingHbbft",
          "name": "",
          "type": "address"
        }
      ],
      "stateMutability": "view",
      "type": "function"
    },
    {
      "inputs": [
        {
          "internalType": "address",
          "name": "newOwner",
          "type": "address"
        }
      ],
      "name": "transferOwnership",
      "outputs": [],
      "stateMutability": "nonpayable",
      "type": "function"
    },
    {
      "inputs": [
        {
          "internalType": "address",
          "name": "",
          "type": "address"
        }
      ],
      "name": "validatorAvailableSince",
      "outputs": [
        {
          "internalType": "uint256",
          "name": "",
          "type": "uint256"
        }
      ],
      "stateMutability": "view",
      "type": "function"
    },
    {
      "inputs": [
        {
          "internalType": "address",
          "name": "",
          "type": "address"
        }
      ],
      "name": "validatorAvailableSinceLastWrite",
      "outputs": [
        {
          "internalType": "uint256",
          "name": "",
          "type": "uint256"
        }
      ],
      "stateMutability": "view",
      "type": "function"
    },
    {
      "inputs": [
        {
          "internalType": "address",
          "name": "",
          "type": "address"
        }
      ],
      "name": "validatorCounter",
      "outputs": [
        {
          "internalType": "uint256",
          "name": "",
          "type": "uint256"
        }
      ],
      "stateMutability": "view",
      "type": "function"
    },
    {
      "inputs": [],
      "name": "validatorInactivityThreshold",
      "outputs": [
        {
          "internalType": "uint256",
          "name": "",
          "type": "uint256"
        }
      ],
      "stateMutability": "view",
      "type": "function"
    }
  ],
  "bytecode": "0x6080604052348015600f57600080fd5b506016601a565b60ca565b7ff0c57e16840df040f15088dc2f81fe391c3923bec73e23a9662efc9c229c6a00805468010000000000000000900460ff161560695760405163f92ee8a960e01b815260040160405180910390fd5b80546001600160401b039081161460c75780546001600160401b0319166001600160401b0390811782556040519081527fc7f505b2f371ae2175ee4913f4499e1f2633a7b5936321eed1cdaeb6115181d29060200160405180910390a15b50565b6138c2806100d96000396000f3fe608060405234801561001057600080fd5b50600436106102f35760003560e01c80639881933d11610191578063b7ab4db5116100e3578063eebc7a3911610097578063f51726f011610071578063f51726f014610672578063facd743b14610685578063fb64aac1146106a857600080fd5b8063eebc7a3914610644578063efd049471461064c578063f2fde38b1461065f57600080fd5b8063ccf69e9b116100c8578063ccf69e9b146105fe578063ed7cba6214610611578063ee99205c1461063157600080fd5b8063b7ab4db5146105e3578063bd0d69bc146105eb57600080fd5b8063a49904e511610145578063ade1900a1161011f578063ade1900a146105a8578063b41832e4146105b0578063b47aef1f146105d057600080fd5b8063a49904e514610566578063a68b5b7614610572578063ac5ba7bc1461059557600080fd5b80639d6fc1d1116101765780639d6fc1d11461051d578063a0d16cad14610540578063a42bdee91461055357600080fd5b80639881933d146104f75780639bb2ea5a1461050a57600080fd5b806361e610681161024a57806375286211116101fe578063857cdbb8116101d8578063857cdbb8146104965780638da5cb5b146104b65780638e68dce4146104e657600080fd5b8063752862111461046657806378ff69d51461046e57806385602ad51461048157600080fd5b80636b949ae81161022f5780636b949ae814610442578063715018a61461044b578063717662ee1461045357600080fd5b806361e610681461041c578063669554691461042f57600080fd5b80633da74fc6116102ac5780635ccee1de116102865780635ccee1de146103ec5780635d5fcbce146103f457806360e5c520146103fc57600080fd5b80633da74fc6146103b357806343bcce9f146103c657806356b54bae146103d957600080fd5b80630a4c1072116102dd5780630a4c10721461035557806314e28d901461036a5780631ee4d0bc1461038a57600080fd5b8062535175146102f857806308ac52561461033e575b600080fd5b6103216103063660046131f7565b6006602052600090815260409020546001600160a01b031681565b6040516001600160a01b0390911681526020015b60405180910390f35b610347600e5481565b604051908152602001610335565b61036861036336600461321b565b6106bb565b005b61037d6103783660046131f7565b6106f3565b6040516103359190613254565b6103216103983660046131f7565b6008602052600090815260409020546001600160a01b031681565b601054610321906001600160a01b031681565b6103686103d436600461327c565b6108dc565b600354610321906001600160a01b031681565b610368610a36565b600054610347565b61034761040a3660046131f7565b600d6020526000908152604090205481565b61036861042a3660046132ea565b610a7a565b601154610321906001600160a01b031681565b610347600f5481565b610368610e2c565b6103686104613660046131f7565b610e3e565b610368610f3c565b61036861047c3660046131f7565b6110cb565b610489611148565b604051610335919061338c565b6104a96104a43660046131f7565b6111aa565b60405161033591906133fd565b7f9016d09d72d40fdae2fd8ceac6b6234c7706214fd39c1cd1e609a0528c199300546001600160a01b0316610321565b6009546001600160a01b0316610321565b6104a96105053660046131f7565b61123a565b610368610518366004613430565b61126d565b61053061052b3660046131f7565b6112aa565b6040519015158152602001610335565b61053061054e3660046131f7565b611317565b610368610561366004613449565b611342565b600054600e5414610530565b6105306105803660046131f7565b60056020526000908152604090205460ff1681565b6103686105a3366004613430565b611426565b610368611487565b6103476105be3660046131f7565b600b6020526000908152604090205481565b600a54610321906001600160a01b031681565b610489611c22565b6103686105f93660046131f7565b611c82565b600754610321906001600160a01b031681565b61034761061f3660046131f7565b600c6020526000908152604090205481565b600954610321906001600160a01b031681565b610489611cff565b61034761065a366004613430565b611d5f565b61036861066d3660046131f7565b611dbc565b6105306106803660046131f7565b611dfa565b6105306106933660046131f7565b60046020526000908152604090205460ff1681565b6105306106b63660046131f7565b611e51565b6009546001600160a01b031633146106e5576040516282b42960e81b815260040160405180910390fd5b6106ef8282611eaf565b5050565b60006106fe82611e51565b61070a57506000919050565b600a5460408051637be02c2b60e01b8152815160009384936001600160a01b0390911692637be02c2b92600480830193928290030181865afa158015610754573d6000803e3d6000fd5b505050506040513d601f19601f8201168201806040525081019061077891906134d7565b60015491935091506fffffffffffffffffffffffffffffffff8316101561082d57600a546040516399de1a4360e01b81526001600160a01b03868116600483015260009216906399de1a4390602401600060405180830381865afa1580156107e4573d6000803e3d6000fd5b505050506040513d6000823e601f3d908101601f1916820160405261080c9190810190613551565b9050805160000361082257506001949350505050565b506002949350505050565b6001546fffffffffffffffffffffffffffffffff821610156108d257600a54604051631baeec3f60e31b81526001600160a01b0386811660048301529091169063dd7761f890602401602060405180830381865afa158015610893573d6000803e3d6000fd5b505050506040513d601f19601f820116820180604052508101906108b791906135e5565b6000036108c8575060039392505050565b5060049392505050565b5060059392505050565b6108e533611dfa565b6109025760405163a82bfa5560e01b815260040160405180910390fd5b438210610922576040516341d852df60e01b815260040160405180910390fd5b4361092e836010613614565b1161094c576040516310548f8360e01b815260040160405180910390fd5b8082401461096d5760405163fe1864e160e01b815260040160405180910390fd5b336000908152600d602090815260408083204290819055600c83528184208190556009546008909352818420548251631ec56e5360e21b81526001600160a01b03918216600482015292519194931692637b15b94c926024808201939182900301818387803b1580156109df57600080fd5b505af11580156109f3573d6000803e3d6000fd5b505060408051338152602081018590527f705d65dbee06de60e6465d68371ce849d5a1ead53e53d01a413b2b01393aa022935001905060405180910390a1505050565b6003546001600160a01b03163314610a60576040516282b42960e81b815260040160405180910390fd5b604080516000815260208101909152610a789061204d565b565b7ff0c57e16840df040f15088dc2f81fe391c3923bec73e23a9662efc9c229c6a00805468010000000000000000810460ff16159067ffffffffffffffff16600081158015610ac55750825b905060008267ffffffffffffffff166001148015610ae25750303b155b905081158015610af0575080155b15610b0e5760405163f92ee8a960e01b815260040160405180910390fd5b845467ffffffffffffffff191660011785558315610b4257845468ff00000000000000001916680100000000000000001785555b610b4b8a612724565b6001600160a01b038b16610b725760405163d92e233d60e01b815260040160405180910390fd5b6000889003610b94576040516322b8b72360e21b815260040160405180910390fd5b878614610bb45760405163ac9e459360e01b815260040160405180910390fd5b610bbd8b6127e7565b610bca60208b018b6131f7565b600380546001600160a01b0319166001600160a01b0392909216919091179055610bfa60408b0160208c016131f7565b600780546001600160a01b0319166001600160a01b0392909216919091179055610c2a60608b0160408c016131f7565b600980546001600160a01b0319166001600160a01b0392909216919091179055610c5a60808b0160608c016131f7565b600a80546001600160a01b0319166001600160a01b0392909216919091179055610c8a60a08b0160808c016131f7565b601080546001600160a01b0319166001600160a01b0392909216919091179055610cba60c08b0160a08c016131f7565b601180546001600160a01b0319166001600160a01b039290921691909117905560c08a0135600f5560005b88811015610dce5760008a8a83818110610d0157610d01613627565b9050602002016020810190610d1691906131f7565b60008054600180820183557f290decd9548b62a8d60345a988386fc84ba6bc95484008f6362f93160ef3e56390910180546001600160a01b0319166001600160a01b0385169081179091558252600460209081526040808420805460ff1916909317909255600b90528120805492935090610d908361363d565b9190505550610dc5818a8a85818110610dab57610dab613627565b9050602002016020810190610dc091906131f7565b611eaf565b50600101610ce5565b506019600e558315610e1f57845468ff000000000000000019168555604051600181527fc7f505b2f371ae2175ee4913f4499e1f2633a7b5936321eed1cdaeb6115181d29060200160405180910390a15b5050505050505050505050565b610e346127f8565b610a786000612853565b6011546001600160a01b03163314610e68576040516282b42960e81b815260040160405180910390fd5b6009546001600160a01b0382811660009081526008602052604090819020549051631dbe84a360e11b81529082166004820152911690633b7d094690602401600060405180830381600087803b158015610ec157600080fd5b505af1158015610ed5573d6000803e3d6000fd5b505050506001600160a01b0381166000818152600d60209081526040808320839055600c82529182902042908190558251938452908301527f7ec36d1734626f8b3686f8791130187e1633c843b1995003e788cd2b33d5690391015b60405180910390a150565b6003546001600160a01b03163314610f66576040516282b42960e81b815260040160405180910390fd5b60015415610f7e57610f766128c4565b610f7e61299b565b610f86612b40565b610f8e612cc4565b600960009054906101000a90046001600160a01b03166001600160a01b031663ee435f556040518163ffffffff1660e01b8152600401600060405180830381600087803b158015610fde57600080fd5b505af1158015610ff2573d6000803e3d6000fd5b50505050600a60009054906101000a90046001600160a01b03166001600160a01b0316632c6f194d6040518163ffffffff1660e01b8152600401600060405180830381600087803b15801561104657600080fd5b505af115801561105a573d6000803e3d6000fd5b505050506001600061106c919061315f565b600954604051638247a23960e01b81524260048201526001600160a01b0390911690638247a23990602401600060405180830381600087803b1580156110b157600080fd5b505af11580156110c5573d6000803e3d6000fd5b50505050565b6110d36127f8565b6001600160a01b0381166110fa5760405163d92e233d60e01b815260040160405180910390fd5b601180546001600160a01b0319166001600160a01b0383169081179091556040519081527f5e92eb268baa307ec16b695868a1baabf6cd6749fb91d07a6762f9153183959390602001610f31565b606060028054806020026020016040519081016040528092919081815260200182805480156111a057602002820191906000526020600020905b81546001600160a01b03168152600190910190602001808311611182575b5050505050905090565b6009546001600160a01b0382811660009081526008602052604090819020549051634e9b426d60e01b815290821660048201526060929190911690634e9b426d906024015b600060405180830381865afa15801561120c573d6000803e3d6000fd5b505050506040513d6000823e601f3d908101601f191682016040526112349190810190613551565b92915050565b600954604051634e9b426d60e01b81526001600160a01b0383811660048301526060921690634e9b426d906024016111ef565b6112756127f8565b600e8190556040518181527fd3c3674d241eb3fb81da09f8c56bdf72b08c8094de786997b95cde95d0ecfff590602001610f31565b6001600160a01b03808216600090815260066020908152604080832054909316808352600d90915291812054909190156112e75750600092915050565b6001600160a01b0381166000908152600c602052604081205461130a9042613656565b600f541115949350505050565b6001600160a01b03811660009081526004602052604081205460ff1680611234575061123482611e51565b336000908152600860205260409020546001600160a01b031680611380576040516303a949c760e61b81523360048201526024015b60405180910390fd5b600954604051637b0a0f9b60e01b81526001600160a01b0383811660048301526fffffffffffffffffffffffffffffffff19861660248301527fffff0000000000000000000000000000000000000000000000000000000000008516604483015290911690637b0a0f9b906064015b600060405180830381600087803b15801561140957600080fd5b505af115801561141d573d6000803e3d6000fd5b50505050505050565b61142e6127f8565b62093a8081101561145257604051635d9561d360e11b815260040160405180910390fd5b600f8190556040518181527f578d5da2255dc6640f3ba0d8ce1bc20877ca696956ebe3c333a3eb8f49fb395f90602001610f31565b6003546001600160a01b031633146114b1576040516282b42960e81b815260040160405180910390fd5b600960009054906101000a90046001600160a01b03166001600160a01b03166322e3d9866040518163ffffffff1660e01b8152600401602060405180830381865afa158015611504573d6000803e3d6000fd5b505050506040513d601f19601f8201168201806040525081019061152891906135e5565b4210156115485760405163112bb3df60e11b815260040160405180910390fd5b600960009054906101000a90046001600160a01b03166001600160a01b031663a5d54f656040518163ffffffff1660e01b8152600401600060405180830381865afa15801561159b573d6000803e3d6000fd5b505050506040513d6000823e601f3d908101601f191682016040526115c3919081019061368d565b5115610a785760015415610a7857600180546000916115e191613656565b67ffffffffffffffff8111156115f9576115f961350a565b604051908082528060200260200182016040528015611622578160200160208202803683370190505b50905060008080600a60009054906101000a90046001600160a01b03166001600160a01b0316637be02c2b6040518163ffffffff1660e01b81526004016040805180830381865afa15801561167b573d6000803e3d6000fd5b505050506040513d601f19601f8201168201806040525081019061169f91906134d7565b9150915060005b6001548110156119bb576000600182815481106116c5576116c5613627565b60009182526020822001546001546001600160a01b0390911692506fffffffffffffffffffffffffffffffff8616101561177557600a546040516399de1a4360e01b81526001600160a01b03848116600483015260009216906399de1a4390602401600060405180830381865afa158015611744573d6000803e3d6000fd5b505050506040513d6000823e601f3d908101601f1916820160405261176c9190810190613551565b51119050611804565b6001546fffffffffffffffffffffffffffffffff8516101561180457600a54604051631baeec3f60e31b81526001600160a01b038481166004830152600092169063dd7761f890602401602060405180830381865afa1580156117dc573d6000803e3d6000fd5b505050506040513d601f19601f8201168201806040525081019061180091906135e5565b1190505b8015611877576001838154811061181d5761181d613627565b9060005260206000200160009054906101000a90046001600160a01b031687878151811061184d5761184d613627565b6001600160a01b03909216602092830291909101909101528561186f8161363d565b9650506119b1565b601054604051632bdfe5f760e11b81526001600160a01b038481166004830152909116906357bfcbee90602401600060405180830381600087803b1580156118be57600080fd5b505af11580156118d2573d6000803e3d6000fd5b50506009546001600160a01b0385811660009081526008602052604090819020549051631dbe84a360e11b8152908216600482015291169250633b7d09469150602401600060405180830381600087803b15801561192f57600080fd5b505af1158015611943573d6000803e3d6000fd5b5050506001600160a01b0383166000908152600d60209081526040808320839055600c909152902042905550604080516001600160a01b03841681524260208201527f7ec36d1734626f8b3686f8791130187e1633c843b1995003e788cd2b33d56903910160405180910390a15b50506001016116a6565b50600a54604051632f8ba4bf60e11b81526001600160a01b0390911690635f17497e906119ed90600190600401613721565b600060405180830381600087803b158015611a0757600080fd5b505af1158015611a1b573d6000803e3d6000fd5b50505050600a60009054906101000a90046001600160a01b03166001600160a01b031663adddc0cf6040518163ffffffff1660e01b8152600401600060405180830381600087803b158015611a6f57600080fd5b505af1158015611a83573d6000803e3d6000fd5b5050505060008367ffffffffffffffff811115611aa257611aa261350a565b604051908082528060200260200182016040528015611acb578160200160208202803683370190505b50905060005b84811015611b2557858181518110611aeb57611aeb613627565b6020026020010151828281518110611b0557611b05613627565b6001600160a01b0390921660209283029190910190910152600101611ad1565b50600960009054906101000a90046001600160a01b03166001600160a01b031663adddc0cf6040518163ffffffff1660e01b8152600401600060405180830381600087803b158015611b7657600080fd5b505af1158015611b8a573d6000803e3d6000fd5b505050506000600960009054906101000a90046001600160a01b03166001600160a01b031663a5d54f656040518163ffffffff1660e01b8152600401600060405180830381865afa158015611be3573d6000803e3d6000fd5b505050506040513d6000823e601f3d908101601f19168201604052611c0b919081019061368d565b511115611c1b57611c1b8161204d565b5050505050565b606060008054806020026020016040519081016040528092919081815260200182805480156111a0576020028201919060005260206000209081546001600160a01b03168152600190910190602001808311611182575050505050905090565b611c8a6127f8565b6001600160a01b038116611cb15760405163d92e233d60e01b815260040160405180910390fd5b601080546001600160a01b0319166001600160a01b0383169081179091556040519081527fd4244d1f8acb4860e17399636c6b7875c75656aafb5cb3d0163d7305eace717290602001610f31565b606060018054806020026020016040519081016040528092919081815260200182805480156111a0576020028201919060005260206000209081546001600160a01b03168152600190910190602001808311611182575050505050905090565b600081600003611d825760405163a63671a560e01b815260040160405180910390fd5b6004821015611d8f575090565b6003611d9c600184613656565b611da6919061377b565b611db190600361378f565b611234906001613614565b611dc46127f8565b6001600160a01b038116611dee57604051631e4fbdf760e01b815260006004820152602401611377565b611df781612853565b50565b6001600160a01b03818116600090815260086020526040812054909116611e2357506000919050565b6001600160a01b0382166000908152600d602052604090205415611e4957506000919050565b506001919050565b600154600090815b81811015611ea55760018181548110611e7457611e74613627565b6000918252602090912001546001600160a01b0390811690851603611e9d575060019392505050565b600101611e59565b5060009392505050565b6001600160a01b038216611ed65760405163d92e233d60e01b815260040160405180910390fd5b6001600160a01b038116611efd5760405163d92e233d60e01b815260040160405180910390fd5b806001600160a01b0316826001600160a01b031603611f2f576040516307d9394560e01b815260040160405180910390fd5b6001600160a01b0381811660009081526006602052604090205416151580611f7057506001600160a01b038181166000908152600860205260409020541615155b15611f99576040516326d65e0360e21b81526001600160a01b0382166004820152602401611377565b6001600160a01b0382811660009081526006602052604090205416151580611fda57506001600160a01b038281166000908152600860205260409020541615155b156120035760405163342ed6a360e01b81526001600160a01b0383166004820152602401611377565b6001600160a01b0390811660008181526006602090815260408083208054959096166001600160a01b03199586168117909655948252600890529290922080549091169091179055565b6009546040805163a5d54f6560e01b815290516000926001600160a01b03169163a5d54f6591600480830192869291908290030181865afa158015612096573d6000803e3d6000fd5b505050506040513d6000823e601f3d908101601f191682016040526120be919081019061368d565b90506000600e5482511015806120d357508151155b6120e6576120e18251611d5f565b6120ea565b600e545b905080825111156125255781516009546040805163957950a760e01b8152905160009283926001600160a01b039091169163957950a79160048082019286929091908290030181865afa158015612145573d6000803e3d6000fd5b505050506040513d6000823e601f3d908101601f1916820160405261216d91908101906137a6565b9150915060008467ffffffffffffffff81111561218c5761218c61350a565b6040519080825280602002602001820160405280156121b5578160200160208202803683370190505b5090506000805b885181101561233a5760005b86811015612331578982815181106121e2576121e2613627565b60200260200101516001600160a01b031689828151811061220557612205613627565b60200260200101516001600160a01b0316036123295789828151811061222d5761222d613627565b602002602001015184848151811061224757612247613627565b6001600160a01b0390921660209283029190910190910152826122698161363d565b93505085818151811061227e5761227e613627565b6020026020010151856122919190613656565b94508661229d8161383f565b9750508887815181106122b2576122b2613627565b60200260200101518982815181106122cc576122cc613627565b60200260200101906001600160a01b031690816001600160a01b0316815250508587815181106122fe576122fe613627565b602002602001015186828151811061231857612318613627565b602002602001018181525050612331565b6001016121c8565b506001016121bc565b5060075460408051634191031360e11b815290516000926001600160a01b03169163832206269160048083019260209291908290030181865afa158015612385573d6000803e3d6000fd5b505050506040513d601f19601f820116820180604052508101906123a991906135e5565b9050600085511180156123bc5750600084115b1561251a5760005b835181101561251057604080514284186020820152016040516020818303038152906040528051906020012060001c91506000612402878785612e24565b905089818151811061241657612416613627565b602002602001015185838151811061243057612430613627565b60200260200101906001600160a01b031690816001600160a01b03168152505086818151811061246257612462613627565b6020026020010151866124759190613656565b9550876124818161383f565b98505089888151811061249657612496613627565b60200260200101518a82815181106124b0576124b0613627565b60200260200101906001600160a01b031690816001600160a01b0316815250508688815181106124e2576124e2613627565b60200260200101518782815181106124fc576124fc613627565b6020908102919091010152506001016123c4565b5061251a83612e8d565b50505050505061252e565b61252e82612e8d565b600a54604051632f8ba4bf60e11b81526001600160a01b0390911690635f17497e9061255f90600090600401613721565b600060405180830381600087803b15801561257957600080fd5b505af115801561258d573d6000803e3d6000fd5b50505050815160001461260357600960009054906101000a90046001600160a01b03166001600160a01b0316631555371c6040518163ffffffff1660e01b8152600401600060405180830381600087803b1580156125ea57600080fd5b505af11580156125fe573d6000803e3d6000fd5b505050505b600960009054906101000a90046001600160a01b03166001600160a01b03166322e3d9866040518163ffffffff1660e01b8152600401602060405180830381865afa158015612656573d6000803e3d6000fd5b505050506040513d601f19601f8201168201806040525081019061267a91906135e5565b42111561271f5760095460408051631171ecc360e11b815290516001600160a01b0390921691639e72c6359183916322e3d986916004808201926020929091908290030181865afa1580156126d3573d6000803e3d6000fd5b505050506040513d601f19601f820116820180604052508101906126f791906135e5565b6127019042613656565b6040518263ffffffff1660e01b81526004016113ef91815260200190565b505050565b600061273360208301836131f7565b6001600160a01b031614806127605750600061275560408301602084016131f7565b6001600160a01b0316145b806127835750600061277860608301604084016131f7565b6001600160a01b0316145b806127a65750600061279b60808301606084016131f7565b6001600160a01b0316145b806127c9575060006127be60a08301608084016131f7565b6001600160a01b0316145b15611df75760405163d92e233d60e01b815260040160405180910390fd5b6127ef613109565b611df781613157565b3361282a7f9016d09d72d40fdae2fd8ceac6b6234c7706214fd39c1cd1e609a0528c199300546001600160a01b031690565b6001600160a01b031614610a785760405163118cdaa760e01b8152336004820152602401611377565b7f9016d09d72d40fdae2fd8ceac6b6234c7706214fd39c1cd1e609a0528c19930080546001600160a01b031981166001600160a01b03848116918217845560405192169182907f8be0079c531659141344cd1fd0a4f28419497f9722a3daafe3b4186f6b6457e090600090a3505050565b60025460005b8181101561292757600060056000600284815481106128eb576128eb613627565b6000918252602080832091909101546001600160a01b031683528201929092526040019020805460ff19169115159190911790556001016128ca565b505060008054905b8181101561298b5760016005600080848154811061294f5761294f613627565b6000918252602080832091909101546001600160a01b031683528201929092526040019020805460ff191691151591909117905560010161292f565b6000805461271f9160029161317d565b60606000808054806020026020016040519081016040528092919081815260200182805480156129f457602002820191906000526020600020905b81546001600160a01b031681526001909101906020018083116129d6575b50505050509150600090505b8151811015612a5b57600060046000848481518110612a2157612a21613627565b6020908102919091018101516001600160a01b03168252810191909152604001600020805460ff1916911515919091179055600101612a00565b60018054612a6b9160009161317d565b506000805480602002602001604051908101604052809291908181526020018280548015612ac257602002820191906000526020600020905b81546001600160a01b03168152600190910190602001808311612aa4575b50505050509150600090505b81518110156106ef576000828281518110612aeb57612aeb613627565b6020908102919091018101516001600160a01b0381166000908152600483526040808220805460ff19166001179055600b90935291822080549193509091612b328361363d565b909155505050600101612ace565b6009546040805163a5d54f6560e01b815290516000926001600160a01b03169163a5d54f6591600480830192869291908290030181865afa158015612b89573d6000803e3d6000fd5b505050506040513d6000823e601f3d908101601f19168201604052612bb1919081019061368d565b805190915060005b8181101561271f57600060066000858481518110612bd957612bd9613627565b6020908102919091018101516001600160a01b039081168352828201939093526040918201600090812054909316808452600490915291205490915060ff1680612c3957506001600160a01b0381166000908152600d6020526040902054155b15612c445750612cbc565b6010546001600160a01b038281166000818152600d6020526040908190205490516392f2944360e01b8152600481019290925260248201529116906392f2944390604401600060405180830381600087803b158015612ca257600080fd5b505af1158015612cb6573d6000803e3d6000fd5b50505050505b600101612bb9565b6009546040805163df6f55f560e01b815290516000926001600160a01b03169163df6f55f591600480830192869291908290030181865afa158015612d0d573d6000803e3d6000fd5b505050506040513d6000823e601f3d908101601f19168201604052612d35919081019061368d565b805190915060005b8181101561271f57600060066000858481518110612d5d57612d5d613627565b6020908102919091018101516001600160a01b039081168352828201939093526040918201600090812054909316808452600d90915291205490915015612da45750612e1c565b6010546001600160a01b038281166000818152600c6020526040908190205490516351150d5760e01b8152600481019290925260248201529116906351150d5790604401600060405180830381600087803b158015612e0257600080fd5b505af1158015612e16573d6000803e3d6000fd5b50505050505b600101612d3d565b600080612e318484613856565b90506000805b828211612e7757868181518110612e5057612e50613627565b602002602001015182612e639190613614565b915080612e6f8161363d565b915050612e37565b612e82600182613656565b979650505050505050565b612e996001600061315f565b805160000361308d5760008054905b8181101561302e576000808281548110612ec457612ec4613627565b6000918252602080832091909101546001600160a01b03908116808452600890925260409283902054600954935163a711e6a160e01b8152908216600482018190529294509192169063a711e6a190602401602060405180830381865afa158015612f33573d6000803e3d6000fd5b505050506040513d601f19601f82011682018060405250810190612f57919061386a565b8015612fd4575060095460405162e9ab0360e81b81526001600160a01b038381166004830181905260248301529091169063e9ab030090604401602060405180830381865afa158015612fae573d6000803e3d6000fd5b505050506040513d601f19601f82011682018060405250810190612fd291906135e5565b155b15613024576001805480820182556000919091527fb10e2d527612073b26eecdfd717e6a320cf44b4afac2b0732d9fcbe2b7fa0cf60180546001600160a01b0319166001600160a01b0384161790555b5050600101612ea8565b506001546000036106ef5760016000808154811061304e5761304e613627565b60009182526020808320909101548354600181018555938352912090910180546001600160a01b0319166001600160a01b039092169190911790555050565b805160005b8181101561271f576001600660008584815181106130b2576130b2613627565b6020908102919091018101516001600160a01b0390811683528282019390935260409091016000908120548454600181810187559583529290912090910180546001600160a01b0319169190921617905501613092565b7ff0c57e16840df040f15088dc2f81fe391c3923bec73e23a9662efc9c229c6a005468010000000000000000900460ff16610a7857604051631afcd79f60e31b815260040160405180910390fd5b611dc4613109565b5080546000825590600052602060002090810190611df791906131cd565b8280548282559060005260206000209081019282156131bd5760005260206000209182015b828111156131bd5782548255916001019190600101906131a2565b506131c99291506131cd565b5090565b5b808211156131c957600081556001016131ce565b6001600160a01b0381168114611df757600080fd5b60006020828403121561320957600080fd5b8135613214816131e2565b9392505050565b6000806040838503121561322e57600080fd5b8235613239816131e2565b91506020830135613249816131e2565b809150509250929050565b602081016006831061327657634e487b7160e01b600052602160045260246000fd5b91905290565b6000806040838503121561328f57600080fd5b50508035926020909101359150565b60008083601f8401126132b057600080fd5b50813567ffffffffffffffff8111156132c857600080fd5b6020830191508360208260051b85010111156132e357600080fd5b9250929050565b60008060008060008086880361014081121561330557600080fd5b8735613310816131e2565b965060e0601f198201121561332457600080fd5b5060208701945061010087013567ffffffffffffffff8082111561334757600080fd5b6133538a838b0161329e565b909650945061012089013591508082111561336d57600080fd5b5061337a89828a0161329e565b979a9699509497509295939492505050565b6020808252825182820181905260009190848201906040850190845b818110156133cd5783516001600160a01b0316835292840192918401916001016133a8565b50909695505050505050565b60005b838110156133f45781810151838201526020016133dc565b50506000910152565b602081526000825180602084015261341c8160408501602087016133d9565b601f01601f19169190910160400192915050565b60006020828403121561344257600080fd5b5035919050565b6000806040838503121561345c57600080fd5b82356fffffffffffffffffffffffffffffffff198116811461347d57600080fd5b915060208301357fffff0000000000000000000000000000000000000000000000000000000000008116811461324957600080fd5b80516fffffffffffffffffffffffffffffffff811681146134d257600080fd5b919050565b600080604083850312156134ea57600080fd5b6134f3836134b2565b9150613501602084016134b2565b90509250929050565b634e487b7160e01b600052604160045260246000fd5b604051601f8201601f1916810167ffffffffffffffff811182821017156135495761354961350a565b604052919050565b60006020828403121561356357600080fd5b815167ffffffffffffffff8082111561357b57600080fd5b818401915084601f83011261358f57600080fd5b8151818111156135a1576135a161350a565b6135b4601f8201601f1916602001613520565b91508082528560208285010111156135cb57600080fd5b6135dc8160208401602086016133d9565b50949350505050565b6000602082840312156135f757600080fd5b5051919050565b634e487b7160e01b600052601160045260246000fd5b80820180821115611234576112346135fe565b634e487b7160e01b600052603260045260246000fd5b60006001820161364f5761364f6135fe565b5060010190565b81810381811115611234576112346135fe565b600067ffffffffffffffff8211156136835761368361350a565b5060051b60200190565b600060208083850312156136a057600080fd5b825167ffffffffffffffff8111156136b757600080fd5b8301601f810185136136c857600080fd5b80516136db6136d682613669565b613520565b81815260059190911b820183019083810190878311156136fa57600080fd5b928401925b82841015612e82578351613712816131e2565b825292840192908401906136ff565b6020808252825482820181905260008481528281209092916040850190845b818110156133cd5783546001600160a01b031683526001938401939285019201613740565b634e487b7160e01b600052601260045260246000fd5b60008261378a5761378a613765565b500490565b8082028115828204841417611234576112346135fe565b600080604083850312156137b957600080fd5b825167ffffffffffffffff8111156137d057600080fd5b8301601f810185136137e157600080fd5b805160206137f16136d683613669565b82815260059290921b8301810191818101908884111561381057600080fd5b938201935b8385101561382e57845182529382019390820190613815565b969091015195979596505050505050565b60008161384e5761384e6135fe565b506000190190565b60008261386557613865613765565b500690565b60006020828403121561387c57600080fd5b8151801515811461321457600080fdfea26469706673582212203c1aa4024ad66dd6f6a221924e5eb23688774c9ec91ded78b5a047cb6552a1d964736f6c63430008190033",
  "linkReferences": {},
  "deployedLinkReferences": {}
}