{
  "_format": "hh-sol-artifact-1",
  "contractName": "ValidatorSetHbbft",
  "sourceName": "contracts/ValidatorSetHbbft.sol",
  "abi": [
    {
      "inputs": [],
      "stateMutability": "nonpayable",
      "type": "constructor"
    },
    {
      "inputs": [],
      "name": "AnnounceBlockNumberTooOld",
      "type": "error"
    },
    {
      "inputs": [],
      "name": "CantAnnounceAvailability",
      "type": "error"
    },
    {
      "inputs": [],
      "name": "EpochNotYetzFinished",
      "type": "error"
    },
    {
      "inputs": [],
      "name": "InitialAddressesLengthMismatch",
      "type": "error"
    },
    {
      "inputs": [],
      "name": "InitialValidatorsEmpty",
      "type": "error"
    },
    {
      "inputs": [],
      "name": "InvalidAddressPair",
      "type": "error"
    },
    {
      "inputs": [],
      "name": "InvalidAnnounceBlockHash",
      "type": "error"
    },
    {
      "inputs": [],
      "name": "InvalidAnnounceBlockNumber",
      "type": "error"
    },
    {
      "inputs": [],
      "name": "InvalidInactivityThreshold",
      "type": "error"
    },
    {
      "inputs": [],
      "name": "InvalidInitialization",
      "type": "error"
    },
    {
      "inputs": [],
      "name": "InvalidPossibleValidatorCount",
      "type": "error"
    },
    {
      "inputs": [
        {
          "internalType": "address",
          "name": "_value",
          "type": "address"
        }
      ],
      "name": "MiningAddressAlreadyUsed",
      "type": "error"
    },
    {
      "inputs": [],
      "name": "NotInitializing",
      "type": "error"
    },
    {
      "inputs": [
        {
          "internalType": "address",
          "name": "owner",
          "type": "address"
        }
      ],
      "name": "OwnableInvalidOwner",
      "type": "error"
    },
    {
      "inputs": [
        {
          "internalType": "address",
          "name": "account",
          "type": "address"
        }
      ],
      "name": "OwnableUnauthorizedAccount",
      "type": "error"
    },
    {
      "inputs": [
        {
          "internalType": "address",
          "name": "_value",
          "type": "address"
        }
      ],
      "name": "StakingAddressAlreadyUsed",
      "type": "error"
    },
    {
      "inputs": [
        {
          "internalType": "address",
          "name": "_mining",
          "type": "address"
        }
      ],
      "name": "StakingPoolNotExist",
      "type": "error"
    },
    {
      "inputs": [],
      "name": "Unauthorized",
      "type": "error"
    },
    {
      "inputs": [],
      "name": "ValidatorsListEmpty",
      "type": "error"
    },
    {
      "inputs": [],
      "name": "ZeroAddress",
      "type": "error"
    },
    {
      "anonymous": false,
      "inputs": [
        {
          "indexed": false,
          "internalType": "uint64",
          "name": "version",
          "type": "uint64"
        }
      ],
      "name": "Initialized",
      "type": "event"
    },
    {
      "anonymous": false,
      "inputs": [
        {
          "indexed": true,
          "internalType": "address",
          "name": "previousOwner",
          "type": "address"
        },
        {
          "indexed": true,
          "internalType": "address",
          "name": "newOwner",
          "type": "address"
        }
      ],
      "name": "OwnershipTransferred",
      "type": "event"
    },
    {
      "anonymous": false,
      "inputs": [
        {
          "indexed": false,
          "internalType": "address",
          "name": "validator",
          "type": "address"
        },
        {
          "indexed": false,
          "internalType": "uint256",
          "name": "timestamp",
          "type": "uint256"
        }
      ],
      "name": "ValidatorAvailable",
      "type": "event"
    },
    {
      "anonymous": false,
      "inputs": [
        {
          "indexed": false,
          "internalType": "address",
          "name": "validator",
          "type": "address"
        },
        {
          "indexed": false,
          "internalType": "uint256",
          "name": "timestamp",
          "type": "uint256"
        }
      ],
      "name": "ValidatorUnavailable",
      "type": "event"
    },
    {
      "inputs": [
        {
          "internalType": "uint256",
          "name": "_blockNumber",
          "type": "uint256"
        },
        {
          "internalType": "bytes32",
          "name": "_blockhash",
          "type": "bytes32"
        }
      ],
      "name": "announceAvailability",
      "outputs": [],
      "stateMutability": "nonpayable",
      "type": "function"
    },
    {
      "inputs": [],
      "name": "blockRewardContract",
      "outputs": [
        {
          "internalType": "address",
          "name": "",
          "type": "address"
        }
      ],
      "stateMutability": "view",
      "type": "function"
    },
    {
      "inputs": [],
      "name": "bonusScoreSystem",
      "outputs": [
        {
          "internalType": "contract IBonusScoreSystem",
          "name": "",
          "type": "address"
        }
      ],
      "stateMutability": "view",
      "type": "function"
    },
    {
      "inputs": [
        {
          "internalType": "address",
          "name": "_miningAddress",
          "type": "address"
        }
      ],
      "name": "canCallAnnounceAvailability",
      "outputs": [
        {
          "internalType": "bool",
          "name": "",
          "type": "bool"
        }
      ],
      "stateMutability": "view",
      "type": "function"
    },
    {
      "inputs": [],
      "name": "connectivityTracker",
      "outputs": [
        {
          "internalType": "address",
          "name": "",
          "type": "address"
        }
      ],
      "stateMutability": "view",
      "type": "function"
    },
    {
      "inputs": [],
      "name": "finalizeChange",
      "outputs": [],
      "stateMutability": "nonpayable",
      "type": "function"
    },
    {
      "inputs": [],
      "name": "getCurrentValidatorsCount",
      "outputs": [
        {
          "internalType": "uint256",
          "name": "",
          "type": "uint256"
        }
      ],
      "stateMutability": "view",
      "type": "function"
    },
    {
      "inputs": [
        {
          "internalType": "address",
          "name": "_miningAddress",
          "type": "address"
        }
      ],
      "name": "getPendingValidatorKeyGenerationMode",
      "outputs": [
        {
          "internalType": "enum IValidatorSetHbbft.KeyGenMode",
          "name": "",
          "type": "uint8"
        }
      ],
      "stateMutability": "view",
      "type": "function"
    },
    {
      "inputs": [],
      "name": "getPendingValidators",
      "outputs": [
        {
          "internalType": "address[]",
          "name": "",
          "type": "address[]"
        }
      ],
      "stateMutability": "view",
      "type": "function"
    },
    {
      "inputs": [],
      "name": "getPreviousValidators",
      "outputs": [
        {
          "internalType": "address[]",
          "name": "",
          "type": "address[]"
        }
      ],
      "stateMutability": "view",
      "type": "function"
    },
    {
      "inputs": [
        {
          "internalType": "address",
          "name": "_miningAddress",
          "type": "address"
        }
      ],
      "name": "getPublicKey",
      "outputs": [
        {
          "internalType": "bytes",
          "name": "",
          "type": "bytes"
        }
      ],
      "stateMutability": "view",
      "type": "function"
    },
    {
      "inputs": [],
      "name": "getStakingContract",
      "outputs": [
        {
          "internalType": "address",
          "name": "",
          "type": "address"
        }
      ],
      "stateMutability": "view",
      "type": "function"
    },
    {
      "inputs": [
        {
          "internalType": "uint256",
          "name": "_possibleValidatorCount",
          "type": "uint256"
        }
      ],
      "name": "getValidatorCountSweetSpot",
      "outputs": [
        {
          "internalType": "uint256",
          "name": "",
          "type": "uint256"
        }
      ],
      "stateMutability": "pure",
      "type": "function"
    },
    {
      "inputs": [],
      "name": "getValidators",
      "outputs": [
        {
          "internalType": "address[]",
          "name": "",
          "type": "address[]"
        }
      ],
      "stateMutability": "view",
      "type": "function"
    },
    {
      "inputs": [],
      "name": "handleFailedKeyGeneration",
      "outputs": [],
      "stateMutability": "nonpayable",
      "type": "function"
    },
    {
      "inputs": [
        {
          "internalType": "address",
          "name": "_contractOwner",
          "type": "address"
        },
        {
          "components": [
            {
              "internalType": "address",
              "name": "blockRewardContract",
              "type": "address"
            },
            {
              "internalType": "address",
              "name": "randomContract",
              "type": "address"
            },
            {
              "internalType": "address",
              "name": "stakingContract",
              "type": "address"
            },
            {
              "internalType": "address",
              "name": "keyGenHistoryContract",
              "type": "address"
            },
            {
              "internalType": "address",
              "name": "bonusScoreContract",
              "type": "address"
            },
            {
              "internalType": "address",
              "name": "connectivityTrackerContract",
              "type": "address"
            },
            {
              "internalType": "uint256",
              "name": "validatorInactivityThreshold",
              "type": "uint256"
            }
          ],
          "internalType": "struct IValidatorSetHbbft.ValidatorSetParams",
          "name": "_params",
          "type": "tuple"
        },
        {
          "internalType": "address[]",
          "name": "_initialMiningAddresses",
          "type": "address[]"
        },
        {
          "internalType": "address[]",
          "name": "_initialStakingAddresses",
          "type": "address[]"
        }
      ],
      "name": "initialize",
      "outputs": [],
      "stateMutability": "nonpayable",
      "type": "function"
    },
    {
      "inputs": [],
      "name": "isFullHealth",
      "outputs": [
        {
          "internalType": "bool",
          "name": "",
          "type": "bool"
        }
      ],
      "stateMutability": "view",
      "type": "function"
    },
    {
      "inputs": [
        {
          "internalType": "address",
          "name": "_miningAddress",
          "type": "address"
        }
      ],
      "name": "isPendingValidator",
      "outputs": [
        {
          "internalType": "bool",
          "name": "",
          "type": "bool"
        }
      ],
      "stateMutability": "view",
      "type": "function"
    },
    {
      "inputs": [
        {
          "internalType": "address",
          "name": "",
          "type": "address"
        }
      ],
      "name": "isValidator",
      "outputs": [
        {
          "internalType": "bool",
          "name": "",
          "type": "bool"
        }
      ],
      "stateMutability": "view",
      "type": "function"
    },
    {
      "inputs": [
        {
          "internalType": "address",
          "name": "_stakingAddress",
          "type": "address"
        }
      ],
      "name": "isValidatorAbandoned",
      "outputs": [
        {
          "internalType": "bool",
          "name": "",
          "type": "bool"
        }
      ],
      "stateMutability": "view",
      "type": "function"
    },
    {
      "inputs": [
        {
          "internalType": "address",
          "name": "_miningAddress",
          "type": "address"
        }
      ],
      "name": "isValidatorOrPending",
      "outputs": [
        {
          "internalType": "bool",
          "name": "",
          "type": "bool"
        }
      ],
      "stateMutability": "view",
      "type": "function"
    },
    {
      "inputs": [
        {
          "internalType": "address",
          "name": "",
          "type": "address"
        }
      ],
      "name": "isValidatorPrevious",
      "outputs": [
        {
          "internalType": "bool",
          "name": "",
          "type": "bool"
        }
      ],
      "stateMutability": "view",
      "type": "function"
    },
    {
      "inputs": [],
      "name": "keyGenHistoryContract",
      "outputs": [
        {
          "internalType": "contract IKeyGenHistory",
          "name": "",
          "type": "address"
        }
      ],
      "stateMutability": "view",
      "type": "function"
    },
    {
      "inputs": [],
      "name": "maxValidators",
      "outputs": [
        {
          "internalType": "uint256",
          "name": "",
          "type": "uint256"
        }
      ],
      "stateMutability": "view",
      "type": "function"
    },
    {
      "inputs": [
        {
          "internalType": "address",
          "name": "",
          "type": "address"
        }
      ],
      "name": "miningByStakingAddress",
      "outputs": [
        {
          "internalType": "address",
          "name": "",
          "type": "address"
        }
      ],
      "stateMutability": "view",
      "type": "function"
    },
    {
      "inputs": [],
      "name": "newValidatorSet",
      "outputs": [],
      "stateMutability": "nonpayable",
      "type": "function"
    },
    {
      "inputs": [
        {
          "internalType": "address",
          "name": "_miningAddress",
          "type": "address"
        }
      ],
      "name": "notifyUnavailability",
      "outputs": [],
      "stateMutability": "nonpayable",
      "type": "function"
    },
    {
      "inputs": [],
      "name": "owner",
      "outputs": [
        {
          "internalType": "address",
          "name": "",
          "type": "address"
        }
      ],
      "stateMutability": "view",
      "type": "function"
    },
    {
      "inputs": [
        {
          "internalType": "address",
          "name": "_stakingAddress",
          "type": "address"
        }
      ],
      "name": "publicKeyByStakingAddress",
      "outputs": [
        {
          "internalType": "bytes",
          "name": "",
          "type": "bytes"
        }
      ],
      "stateMutability": "view",
      "type": "function"
    },
    {
      "inputs": [],
      "name": "randomContract",
      "outputs": [
        {
          "internalType": "address",
          "name": "",
          "type": "address"
        }
      ],
      "stateMutability": "view",
      "type": "function"
    },
    {
      "inputs": [],
      "name": "renounceOwnership",
      "outputs": [],
      "stateMutability": "nonpayable",
      "type": "function"
    },
    {
      "inputs": [
        {
          "internalType": "address",
          "name": "_miningAddress",
          "type": "address"
        },
        {
          "internalType": "address",
          "name": "_stakingAddress",
          "type": "address"
        }
      ],
      "name": "setStakingAddress",
      "outputs": [],
      "stateMutability": "nonpayable",
      "type": "function"
    },
    {
      "inputs": [
        {
          "internalType": "bytes16",
          "name": "_ip",
          "type": "bytes16"
        },
        {
          "internalType": "bytes2",
          "name": "_port",
          "type": "bytes2"
        }
      ],
      "name": "setValidatorInternetAddress",
      "outputs": [],
      "stateMutability": "nonpayable",
      "type": "function"
    },
    {
      "inputs": [
        {
          "internalType": "address",
          "name": "",
          "type": "address"
        }
      ],
      "name": "stakingByMiningAddress",
      "outputs": [
        {
          "internalType": "address",
          "name": "",
          "type": "address"
        }
      ],
      "stateMutability": "view",
      "type": "function"
    },
    {
      "inputs": [],
      "name": "stakingContract",
      "outputs": [
        {
          "internalType": "contract IStakingHbbft",
          "name": "",
          "type": "address"
        }
      ],
      "stateMutability": "view",
      "type": "function"
    },
    {
      "inputs": [
        {
          "internalType": "address",
          "name": "newOwner",
          "type": "address"
        }
      ],
      "name": "transferOwnership",
      "outputs": [],
      "stateMutability": "nonpayable",
      "type": "function"
    },
    {
      "inputs": [
        {
          "internalType": "address",
          "name": "",
          "type": "address"
        }
      ],
      "name": "validatorAvailableSince",
      "outputs": [
        {
          "internalType": "uint256",
          "name": "",
          "type": "uint256"
        }
      ],
      "stateMutability": "view",
      "type": "function"
    },
    {
      "inputs": [
        {
          "internalType": "address",
          "name": "",
          "type": "address"
        }
      ],
      "name": "validatorAvailableSinceLastWrite",
      "outputs": [
        {
          "internalType": "uint256",
          "name": "",
          "type": "uint256"
        }
      ],
      "stateMutability": "view",
      "type": "function"
    },
    {
      "inputs": [
        {
          "internalType": "address",
          "name": "",
          "type": "address"
        }
      ],
      "name": "validatorCounter",
      "outputs": [
        {
          "internalType": "uint256",
          "name": "",
          "type": "uint256"
        }
      ],
      "stateMutability": "view",
      "type": "function"
    },
    {
      "inputs": [],
      "name": "validatorInactivityThreshold",
      "outputs": [
        {
          "internalType": "uint256",
          "name": "",
          "type": "uint256"
        }
      ],
      "stateMutability": "view",
      "type": "function"
    }
  ],
  "bytecode": "0x6080604052348015600f57600080fd5b506016601a565b60ca565b7ff0c57e16840df040f15088dc2f81fe391c3923bec73e23a9662efc9c229c6a00805468010000000000000000900460ff161560695760405163f92ee8a960e01b815260040160405180910390fd5b80546001600160401b039081161460c75780546001600160401b0319166001600160401b0390811782556040519081527fc7f505b2f371ae2175ee4913f4499e1f2633a7b5936321eed1cdaeb6115181d29060200160405180910390a15b50565b6136bb806100d96000396000f3fe608060405234801561001057600080fd5b50600436106102c75760003560e01c80638e68dce41161017b578063b7ab4db5116100d8578063efd049471161008c578063f51726f011610071578063f51726f0146105fa578063facd743b1461060d578063fb64aac11461063057600080fd5b8063efd04947146105d4578063f2fde38b146105e757600080fd5b8063ed7cba62116100bd578063ed7cba6214610599578063ee99205c146105b9578063eebc7a39146105cc57600080fd5b8063b7ab4db51461057e578063ccf69e9b1461058657600080fd5b8063a49904e51161012f578063ade1900a11610114578063ade1900a14610543578063b41832e41461054b578063b47aef1f1461056b57600080fd5b8063a49904e514610514578063a68b5b761461052057600080fd5b80639d6fc1d1116101605780639d6fc1d1146104cb578063a0d16cad146104ee578063a42bdee91461050157600080fd5b80638e68dce4146104a75780639881933d146104b857600080fd5b806360e5c52011610229578063717662ee116101dd57806385602ad5116101c257806385602ad514610442578063857cdbb8146104575780638da5cb5b1461047757600080fd5b8063717662ee14610427578063752862111461043a57600080fd5b8063669554691161020e57806366955469146104035780636b949ae814610416578063715018a61461041f57600080fd5b806360e5c520146103d057806361e61068146103f057600080fd5b80633da74fc61161028057806356b54bae1161026557806356b54bae146103ad5780635ccee1de146103c05780635d5fcbce146103c857600080fd5b80633da74fc61461038757806343bcce9f1461039a57600080fd5b80630a4c1072116102b15780630a4c10721461032957806314e28d901461033e5780631ee4d0bc1461035e57600080fd5b8062535175146102cc57806308ac525614610312575b600080fd5b6102f56102da366004612ff0565b6006602052600090815260409020546001600160a01b031681565b6040516001600160a01b0390911681526020015b60405180910390f35b61031b600e5481565b604051908152602001610309565b61033c610337366004613014565b610643565b005b61035161034c366004612ff0565b61067b565b604051610309919061304d565b6102f561036c366004612ff0565b6008602052600090815260409020546001600160a01b031681565b6010546102f5906001600160a01b031681565b61033c6103a8366004613075565b610864565b6003546102f5906001600160a01b031681565b61033c6109be565b60005461031b565b61031b6103de366004612ff0565b600d6020526000908152604090205481565b61033c6103fe3660046130e3565b610a02565b6011546102f5906001600160a01b031681565b61031b600f5481565b61033c610db4565b61033c610435366004612ff0565b610dc6565b61033c610ecd565b61044a61105c565b6040516103099190613185565b61046a610465366004612ff0565b6110be565b60405161030991906131f6565b7f9016d09d72d40fdae2fd8ceac6b6234c7706214fd39c1cd1e609a0528c199300546001600160a01b03166102f5565b6009546001600160a01b03166102f5565b61046a6104c6366004612ff0565b61114e565b6104de6104d9366004612ff0565b611181565b6040519015158152602001610309565b6104de6104fc366004612ff0565b6111ee565b61033c61050f366004613229565b611219565b600054600e54146104de565b6104de61052e366004612ff0565b60056020526000908152604090205460ff1681565b61033c6112fd565b61031b610559366004612ff0565b600b6020526000908152604090205481565b600a546102f5906001600160a01b031681565b61044a611a98565b6007546102f5906001600160a01b031681565b61031b6105a7366004612ff0565b600c6020526000908152604090205481565b6009546102f5906001600160a01b031681565b61044a611af8565b61031b6105e2366004613292565b611b58565b61033c6105f5366004612ff0565b611bb5565b6104de610608366004612ff0565b611bf3565b6104de61061b366004612ff0565b60046020526000908152604090205460ff1681565b6104de61063e366004612ff0565b611c4a565b6009546001600160a01b0316331461066d576040516282b42960e81b815260040160405180910390fd5b6106778282611ca8565b5050565b600061068682611c4a565b61069257506000919050565b600a5460408051637be02c2b60e01b8152815160009384936001600160a01b0390911692637be02c2b92600480830193928290030181865afa1580156106dc573d6000803e3d6000fd5b505050506040513d601f19601f8201168201806040525081019061070091906132d0565b60015491935091506fffffffffffffffffffffffffffffffff831610156107b557600a546040516399de1a4360e01b81526001600160a01b03868116600483015260009216906399de1a4390602401600060405180830381865afa15801561076c573d6000803e3d6000fd5b505050506040513d6000823e601f3d908101601f19168201604052610794919081019061334a565b905080516000036107aa57506001949350505050565b506002949350505050565b6001546fffffffffffffffffffffffffffffffff8216101561085a57600a54604051631baeec3f60e31b81526001600160a01b0386811660048301529091169063dd7761f890602401602060405180830381865afa15801561081b573d6000803e3d6000fd5b505050506040513d601f19601f8201168201806040525081019061083f91906133de565b600003610850575060039392505050565b5060049392505050565b5060059392505050565b61086d33611bf3565b61088a5760405163a82bfa5560e01b815260040160405180910390fd5b4382106108aa576040516341d852df60e01b815260040160405180910390fd5b436108b683601061340d565b116108d4576040516310548f8360e01b815260040160405180910390fd5b808240146108f55760405163fe1864e160e01b815260040160405180910390fd5b336000908152600d602090815260408083204290819055600c83528184208190556009546008909352818420548251631ec56e5360e21b81526001600160a01b03918216600482015292519194931692637b15b94c926024808201939182900301818387803b15801561096757600080fd5b505af115801561097b573d6000803e3d6000fd5b505060408051338152602081018590527f705d65dbee06de60e6465d68371ce849d5a1ead53e53d01a413b2b01393aa022935001905060405180910390a1505050565b6003546001600160a01b031633146109e8576040516282b42960e81b815260040160405180910390fd5b604080516000815260208101909152610a0090611e46565b565b7ff0c57e16840df040f15088dc2f81fe391c3923bec73e23a9662efc9c229c6a00805468010000000000000000810460ff16159067ffffffffffffffff16600081158015610a4d5750825b905060008267ffffffffffffffff166001148015610a6a5750303b155b905081158015610a78575080155b15610a965760405163f92ee8a960e01b815260040160405180910390fd5b845467ffffffffffffffff191660011785558315610aca57845468ff00000000000000001916680100000000000000001785555b610ad38a61251d565b6001600160a01b038b16610afa5760405163d92e233d60e01b815260040160405180910390fd5b6000889003610b1c576040516322b8b72360e21b815260040160405180910390fd5b878614610b3c5760405163ac9e459360e01b815260040160405180910390fd5b610b458b6125e0565b610b5260208b018b612ff0565b600380546001600160a01b0319166001600160a01b0392909216919091179055610b8260408b0160208c01612ff0565b600780546001600160a01b0319166001600160a01b0392909216919091179055610bb260608b0160408c01612ff0565b600980546001600160a01b0319166001600160a01b0392909216919091179055610be260808b0160608c01612ff0565b600a80546001600160a01b0319166001600160a01b0392909216919091179055610c1260a08b0160808c01612ff0565b601080546001600160a01b0319166001600160a01b0392909216919091179055610c4260c08b0160a08c01612ff0565b601180546001600160a01b0319166001600160a01b039290921691909117905560c08a0135600f5560005b88811015610d565760008a8a83818110610c8957610c89613420565b9050602002016020810190610c9e9190612ff0565b60008054600180820183557f290decd9548b62a8d60345a988386fc84ba6bc95484008f6362f93160ef3e56390910180546001600160a01b0319166001600160a01b0385169081179091558252600460209081526040808420805460ff1916909317909255600b90528120805492935090610d1883613436565b9190505550610d4d818a8a85818110610d3357610d33613420565b9050602002016020810190610d489190612ff0565b611ca8565b50600101610c6d565b506019600e558315610da757845468ff000000000000000019168555604051600181527fc7f505b2f371ae2175ee4913f4499e1f2633a7b5936321eed1cdaeb6115181d29060200160405180910390a15b5050505050505050505050565b610dbc6125f1565b610a00600061264c565b6011546001600160a01b03163314610df0576040516282b42960e81b815260040160405180910390fd5b6009546001600160a01b0382811660009081526008602052604090819020549051631dbe84a360e11b81529082166004820152911690633b7d094690602401600060405180830381600087803b158015610e4957600080fd5b505af1158015610e5d573d6000803e3d6000fd5b5050506001600160a01b0382166000908152600d60209081526040808320839055600c909152902042905550604080516001600160a01b03831681524260208201527f7ec36d1734626f8b3686f8791130187e1633c843b1995003e788cd2b33d56903910160405180910390a150565b6003546001600160a01b03163314610ef7576040516282b42960e81b815260040160405180910390fd5b60015415610f0f57610f076126bd565b610f0f612794565b610f17612939565b610f1f612abd565b600960009054906101000a90046001600160a01b03166001600160a01b031663ee435f556040518163ffffffff1660e01b8152600401600060405180830381600087803b158015610f6f57600080fd5b505af1158015610f83573d6000803e3d6000fd5b50505050600a60009054906101000a90046001600160a01b03166001600160a01b0316632c6f194d6040518163ffffffff1660e01b8152600401600060405180830381600087803b158015610fd757600080fd5b505af1158015610feb573d6000803e3d6000fd5b5050505060016000610ffd9190612f58565b600954604051638247a23960e01b81524260048201526001600160a01b0390911690638247a23990602401600060405180830381600087803b15801561104257600080fd5b505af1158015611056573d6000803e3d6000fd5b50505050565b606060028054806020026020016040519081016040528092919081815260200182805480156110b457602002820191906000526020600020905b81546001600160a01b03168152600190910190602001808311611096575b5050505050905090565b6009546001600160a01b0382811660009081526008602052604090819020549051634e9b426d60e01b815290821660048201526060929190911690634e9b426d906024015b600060405180830381865afa158015611120573d6000803e3d6000fd5b505050506040513d6000823e601f3d908101601f19168201604052611148919081019061334a565b92915050565b600954604051634e9b426d60e01b81526001600160a01b0383811660048301526060921690634e9b426d90602401611103565b6001600160a01b03808216600090815260066020908152604080832054909316808352600d90915291812054909190156111be5750600092915050565b6001600160a01b0381166000908152600c60205260408120546111e1904261344f565b600f541115949350505050565b6001600160a01b03811660009081526004602052604081205460ff1680611148575061114882611c4a565b336000908152600860205260409020546001600160a01b031680611257576040516303a949c760e61b81523360048201526024015b60405180910390fd5b600954604051637b0a0f9b60e01b81526001600160a01b0383811660048301526fffffffffffffffffffffffffffffffff19861660248301527fffff0000000000000000000000000000000000000000000000000000000000008516604483015290911690637b0a0f9b906064015b600060405180830381600087803b1580156112e057600080fd5b505af11580156112f4573d6000803e3d6000fd5b50505050505050565b6003546001600160a01b03163314611327576040516282b42960e81b815260040160405180910390fd5b600960009054906101000a90046001600160a01b03166001600160a01b03166322e3d9866040518163ffffffff1660e01b8152600401602060405180830381865afa15801561137a573d6000803e3d6000fd5b505050506040513d601f19601f8201168201806040525081019061139e91906133de565b4210156113be5760405163112bb3df60e11b815260040160405180910390fd5b600960009054906101000a90046001600160a01b03166001600160a01b031663a5d54f656040518163ffffffff1660e01b8152600401600060405180830381865afa158015611411573d6000803e3d6000fd5b505050506040513d6000823e601f3d908101601f191682016040526114399190810190613486565b5115610a005760015415610a0057600180546000916114579161344f565b67ffffffffffffffff81111561146f5761146f613303565b604051908082528060200260200182016040528015611498578160200160208202803683370190505b50905060008080600a60009054906101000a90046001600160a01b03166001600160a01b0316637be02c2b6040518163ffffffff1660e01b81526004016040805180830381865afa1580156114f1573d6000803e3d6000fd5b505050506040513d601f19601f8201168201806040525081019061151591906132d0565b9150915060005b6001548110156118315760006001828154811061153b5761153b613420565b60009182526020822001546001546001600160a01b0390911692506fffffffffffffffffffffffffffffffff861610156115eb57600a546040516399de1a4360e01b81526001600160a01b03848116600483015260009216906399de1a4390602401600060405180830381865afa1580156115ba573d6000803e3d6000fd5b505050506040513d6000823e601f3d908101601f191682016040526115e2919081019061334a565b5111905061167a565b6001546fffffffffffffffffffffffffffffffff8516101561167a57600a54604051631baeec3f60e31b81526001600160a01b038481166004830152600092169063dd7761f890602401602060405180830381865afa158015611652573d6000803e3d6000fd5b505050506040513d601f19601f8201168201806040525081019061167691906133de565b1190505b80156116ed576001838154811061169357611693613420565b9060005260206000200160009054906101000a90046001600160a01b03168787815181106116c3576116c3613420565b6001600160a01b0390921660209283029190910190910152856116e581613436565b965050611827565b601054604051632bdfe5f760e11b81526001600160a01b038481166004830152909116906357bfcbee90602401600060405180830381600087803b15801561173457600080fd5b505af1158015611748573d6000803e3d6000fd5b50506009546001600160a01b0385811660009081526008602052604090819020549051631dbe84a360e11b8152908216600482015291169250633b7d09469150602401600060405180830381600087803b1580156117a557600080fd5b505af11580156117b9573d6000803e3d6000fd5b5050506001600160a01b0383166000908152600d60209081526040808320839055600c909152902042905550604080516001600160a01b03841681524260208201527f7ec36d1734626f8b3686f8791130187e1633c843b1995003e788cd2b33d56903910160405180910390a15b505060010161151c565b50600a54604051632f8ba4bf60e11b81526001600160a01b0390911690635f17497e906118639060019060040161351a565b600060405180830381600087803b15801561187d57600080fd5b505af1158015611891573d6000803e3d6000fd5b50505050600a60009054906101000a90046001600160a01b03166001600160a01b031663adddc0cf6040518163ffffffff1660e01b8152600401600060405180830381600087803b1580156118e557600080fd5b505af11580156118f9573d6000803e3d6000fd5b5050505060008367ffffffffffffffff81111561191857611918613303565b604051908082528060200260200182016040528015611941578160200160208202803683370190505b50905060005b8481101561199b5785818151811061196157611961613420565b602002602001015182828151811061197b5761197b613420565b6001600160a01b0390921660209283029190910190910152600101611947565b50600960009054906101000a90046001600160a01b03166001600160a01b031663adddc0cf6040518163ffffffff1660e01b8152600401600060405180830381600087803b1580156119ec57600080fd5b505af1158015611a00573d6000803e3d6000fd5b505050506000600960009054906101000a90046001600160a01b03166001600160a01b031663a5d54f656040518163ffffffff1660e01b8152600401600060405180830381865afa158015611a59573d6000803e3d6000fd5b505050506040513d6000823e601f3d908101601f19168201604052611a819190810190613486565b511115611a9157611a9181611e46565b5050505050565b606060008054806020026020016040519081016040528092919081815260200182805480156110b4576020028201919060005260206000209081546001600160a01b03168152600190910190602001808311611096575050505050905090565b606060018054806020026020016040519081016040528092919081815260200182805480156110b4576020028201919060005260206000209081546001600160a01b03168152600190910190602001808311611096575050505050905090565b600081600003611b7b5760405163a63671a560e01b815260040160405180910390fd5b6004821015611b88575090565b6003611b9560018461344f565b611b9f9190613574565b611baa906003613588565b61114890600161340d565b611bbd6125f1565b6001600160a01b038116611be757604051631e4fbdf760e01b81526000600482015260240161124e565b611bf08161264c565b50565b6001600160a01b03818116600090815260086020526040812054909116611c1c57506000919050565b6001600160a01b0382166000908152600d602052604090205415611c4257506000919050565b506001919050565b600154600090815b81811015611c9e5760018181548110611c6d57611c6d613420565b6000918252602090912001546001600160a01b0390811690851603611c96575060019392505050565b600101611c52565b5060009392505050565b6001600160a01b038216611ccf5760405163d92e233d60e01b815260040160405180910390fd5b6001600160a01b038116611cf65760405163d92e233d60e01b815260040160405180910390fd5b806001600160a01b0316826001600160a01b031603611d28576040516307d9394560e01b815260040160405180910390fd5b6001600160a01b0381811660009081526006602052604090205416151580611d6957506001600160a01b038181166000908152600860205260409020541615155b15611d92576040516326d65e0360e21b81526001600160a01b038216600482015260240161124e565b6001600160a01b0382811660009081526006602052604090205416151580611dd357506001600160a01b038281166000908152600860205260409020541615155b15611dfc5760405163342ed6a360e01b81526001600160a01b038316600482015260240161124e565b6001600160a01b0390811660008181526006602090815260408083208054959096166001600160a01b03199586168117909655948252600890529290922080549091169091179055565b6009546040805163a5d54f6560e01b815290516000926001600160a01b03169163a5d54f6591600480830192869291908290030181865afa158015611e8f573d6000803e3d6000fd5b505050506040513d6000823e601f3d908101601f19168201604052611eb79190810190613486565b90506000600e548251101580611ecc57508151155b611edf57611eda8251611b58565b611ee3565b600e545b9050808251111561231e5781516009546040805163957950a760e01b8152905160009283926001600160a01b039091169163957950a79160048082019286929091908290030181865afa158015611f3e573d6000803e3d6000fd5b505050506040513d6000823e601f3d908101601f19168201604052611f66919081019061359f565b9150915060008467ffffffffffffffff811115611f8557611f85613303565b604051908082528060200260200182016040528015611fae578160200160208202803683370190505b5090506000805b88518110156121335760005b8681101561212a57898281518110611fdb57611fdb613420565b60200260200101516001600160a01b0316898281518110611ffe57611ffe613420565b60200260200101516001600160a01b0316036121225789828151811061202657612026613420565b602002602001015184848151811061204057612040613420565b6001600160a01b03909216602092830291909101909101528261206281613436565b93505085818151811061207757612077613420565b60200260200101518561208a919061344f565b94508661209681613638565b9750508887815181106120ab576120ab613420565b60200260200101518982815181106120c5576120c5613420565b60200260200101906001600160a01b031690816001600160a01b0316815250508587815181106120f7576120f7613420565b602002602001015186828151811061211157612111613420565b60200260200101818152505061212a565b600101611fc1565b50600101611fb5565b5060075460408051634191031360e11b815290516000926001600160a01b03169163832206269160048083019260209291908290030181865afa15801561217e573d6000803e3d6000fd5b505050506040513d601f19601f820116820180604052508101906121a291906133de565b9050600085511180156121b55750600084115b156123135760005b835181101561230957604080514284186020820152016040516020818303038152906040528051906020012060001c915060006121fb878785612c1d565b905089818151811061220f5761220f613420565b602002602001015185838151811061222957612229613420565b60200260200101906001600160a01b031690816001600160a01b03168152505086818151811061225b5761225b613420565b60200260200101518661226e919061344f565b95508761227a81613638565b98505089888151811061228f5761228f613420565b60200260200101518a82815181106122a9576122a9613420565b60200260200101906001600160a01b031690816001600160a01b0316815250508688815181106122db576122db613420565b60200260200101518782815181106122f5576122f5613420565b6020908102919091010152506001016121bd565b5061231383612c86565b505050505050612327565b61232782612c86565b600a54604051632f8ba4bf60e11b81526001600160a01b0390911690635f17497e906123589060009060040161351a565b600060405180830381600087803b15801561237257600080fd5b505af1158015612386573d6000803e3d6000fd5b5050505081516000146123fc57600960009054906101000a90046001600160a01b03166001600160a01b0316631555371c6040518163ffffffff1660e01b8152600401600060405180830381600087803b1580156123e357600080fd5b505af11580156123f7573d6000803e3d6000fd5b505050505b600960009054906101000a90046001600160a01b03166001600160a01b03166322e3d9866040518163ffffffff1660e01b8152600401602060405180830381865afa15801561244f573d6000803e3d6000fd5b505050506040513d601f19601f8201168201806040525081019061247391906133de565b4211156125185760095460408051631171ecc360e11b815290516001600160a01b0390921691639e72c6359183916322e3d986916004808201926020929091908290030181865afa1580156124cc573d6000803e3d6000fd5b505050506040513d601f19601f820116820180604052508101906124f091906133de565b6124fa904261344f565b6040518263ffffffff1660e01b81526004016112c691815260200190565b505050565b600061252c6020830183612ff0565b6001600160a01b031614806125595750600061254e6040830160208401612ff0565b6001600160a01b0316145b8061257c575060006125716060830160408401612ff0565b6001600160a01b0316145b8061259f575060006125946080830160608401612ff0565b6001600160a01b0316145b806125c2575060006125b760a0830160808401612ff0565b6001600160a01b0316145b15611bf05760405163d92e233d60e01b815260040160405180910390fd5b6125e8612f02565b611bf081612f50565b336126237f9016d09d72d40fdae2fd8ceac6b6234c7706214fd39c1cd1e609a0528c199300546001600160a01b031690565b6001600160a01b031614610a005760405163118cdaa760e01b815233600482015260240161124e565b7f9016d09d72d40fdae2fd8ceac6b6234c7706214fd39c1cd1e609a0528c19930080546001600160a01b031981166001600160a01b03848116918217845560405192169182907f8be0079c531659141344cd1fd0a4f28419497f9722a3daafe3b4186f6b6457e090600090a3505050565b60025460005b8181101561272057600060056000600284815481106126e4576126e4613420565b6000918252602080832091909101546001600160a01b031683528201929092526040019020805460ff19169115159190911790556001016126c3565b505060008054905b818110156127845760016005600080848154811061274857612748613420565b6000918252602080832091909101546001600160a01b031683528201929092526040019020805460ff1916911515919091179055600101612728565b6000805461251891600291612f76565b60606000808054806020026020016040519081016040528092919081815260200182805480156127ed57602002820191906000526020600020905b81546001600160a01b031681526001909101906020018083116127cf575b50505050509150600090505b81518110156128545760006004600084848151811061281a5761281a613420565b6020908102919091018101516001600160a01b03168252810191909152604001600020805460ff19169115159190911790556001016127f9565b6001805461286491600091612f76565b5060008054806020026020016040519081016040528092919081815260200182805480156128bb57602002820191906000526020600020905b81546001600160a01b0316815260019091019060200180831161289d575b50505050509150600090505b81518110156106775760008282815181106128e4576128e4613420565b6020908102919091018101516001600160a01b0381166000908152600483526040808220805460ff19166001179055600b9093529182208054919350909161292b83613436565b9091555050506001016128c7565b6009546040805163a5d54f6560e01b815290516000926001600160a01b03169163a5d54f6591600480830192869291908290030181865afa158015612982573d6000803e3d6000fd5b505050506040513d6000823e601f3d908101601f191682016040526129aa9190810190613486565b805190915060005b81811015612518576000600660008584815181106129d2576129d2613420565b6020908102919091018101516001600160a01b039081168352828201939093526040918201600090812054909316808452600490915291205490915060ff1680612a3257506001600160a01b0381166000908152600d6020526040902054155b15612a3d5750612ab5565b6010546001600160a01b038281166000818152600d6020526040908190205490516392f2944360e01b8152600481019290925260248201529116906392f2944390604401600060405180830381600087803b158015612a9b57600080fd5b505af1158015612aaf573d6000803e3d6000fd5b50505050505b6001016129b2565b6009546040805163df6f55f560e01b815290516000926001600160a01b03169163df6f55f591600480830192869291908290030181865afa158015612b06573d6000803e3d6000fd5b505050506040513d6000823e601f3d908101601f19168201604052612b2e9190810190613486565b805190915060005b8181101561251857600060066000858481518110612b5657612b56613420565b6020908102919091018101516001600160a01b039081168352828201939093526040918201600090812054909316808452600d90915291205490915015612b9d5750612c15565b6010546001600160a01b038281166000818152600c6020526040908190205490516351150d5760e01b8152600481019290925260248201529116906351150d5790604401600060405180830381600087803b158015612bfb57600080fd5b505af1158015612c0f573d6000803e3d6000fd5b50505050505b600101612b36565b600080612c2a848461364f565b90506000805b828211612c7057868181518110612c4957612c49613420565b602002602001015182612c5c919061340d565b915080612c6881613436565b915050612c30565b612c7b60018261344f565b979650505050505050565b612c9260016000612f58565b8051600003612e865760008054905b81811015612e27576000808281548110612cbd57612cbd613420565b6000918252602080832091909101546001600160a01b03908116808452600890925260409283902054600954935163a711e6a160e01b8152908216600482018190529294509192169063a711e6a190602401602060405180830381865afa158015612d2c573d6000803e3d6000fd5b505050506040513d601f19601f82011682018060405250810190612d509190613663565b8015612dcd575060095460405162e9ab0360e81b81526001600160a01b038381166004830181905260248301529091169063e9ab030090604401602060405180830381865afa158015612da7573d6000803e3d6000fd5b505050506040513d601f19601f82011682018060405250810190612dcb91906133de565b155b15612e1d576001805480820182556000919091527fb10e2d527612073b26eecdfd717e6a320cf44b4afac2b0732d9fcbe2b7fa0cf60180546001600160a01b0319166001600160a01b0384161790555b5050600101612ca1565b5060015460000361067757600160008081548110612e4757612e47613420565b60009182526020808320909101548354600181018555938352912090910180546001600160a01b0319166001600160a01b039092169190911790555050565b805160005b8181101561251857600160066000858481518110612eab57612eab613420565b6020908102919091018101516001600160a01b0390811683528282019390935260409091016000908120548454600181810187559583529290912090910180546001600160a01b0319169190921617905501612e8b565b7ff0c57e16840df040f15088dc2f81fe391c3923bec73e23a9662efc9c229c6a005468010000000000000000900460ff16610a0057604051631afcd79f60e31b815260040160405180910390fd5b611bbd612f02565b5080546000825590600052602060002090810190611bf09190612fc6565b828054828255906000526020600020908101928215612fb65760005260206000209182015b82811115612fb6578254825591600101919060010190612f9b565b50612fc2929150612fc6565b5090565b5b80821115612fc25760008155600101612fc7565b6001600160a01b0381168114611bf057600080fd5b60006020828403121561300257600080fd5b813561300d81612fdb565b9392505050565b6000806040838503121561302757600080fd5b823561303281612fdb565b9150602083013561304281612fdb565b809150509250929050565b602081016006831061306f57634e487b7160e01b600052602160045260246000fd5b91905290565b6000806040838503121561308857600080fd5b50508035926020909101359150565b60008083601f8401126130a957600080fd5b50813567ffffffffffffffff8111156130c157600080fd5b6020830191508360208260051b85010111156130dc57600080fd5b9250929050565b6000806000806000808688036101408112156130fe57600080fd5b873561310981612fdb565b965060e0601f198201121561311d57600080fd5b5060208701945061010087013567ffffffffffffffff8082111561314057600080fd5b61314c8a838b01613097565b909650945061012089013591508082111561316657600080fd5b5061317389828a01613097565b979a9699509497509295939492505050565b6020808252825182820181905260009190848201906040850190845b818110156131c65783516001600160a01b0316835292840192918401916001016131a1565b50909695505050505050565b60005b838110156131ed5781810151838201526020016131d5565b50506000910152565b60208152600082518060208401526132158160408501602087016131d2565b601f01601f19169190910160400192915050565b6000806040838503121561323c57600080fd5b82356fffffffffffffffffffffffffffffffff198116811461325d57600080fd5b915060208301357fffff0000000000000000000000000000000000000000000000000000000000008116811461304257600080fd5b6000602082840312156132a457600080fd5b5035919050565b80516fffffffffffffffffffffffffffffffff811681146132cb57600080fd5b919050565b600080604083850312156132e357600080fd5b6132ec836132ab565b91506132fa602084016132ab565b90509250929050565b634e487b7160e01b600052604160045260246000fd5b604051601f8201601f1916810167ffffffffffffffff8111828210171561334257613342613303565b604052919050565b60006020828403121561335c57600080fd5b815167ffffffffffffffff8082111561337457600080fd5b818401915084601f83011261338857600080fd5b81518181111561339a5761339a613303565b6133ad601f8201601f1916602001613319565b91508082528560208285010111156133c457600080fd5b6133d58160208401602086016131d2565b50949350505050565b6000602082840312156133f057600080fd5b5051919050565b634e487b7160e01b600052601160045260246000fd5b80820180821115611148576111486133f7565b634e487b7160e01b600052603260045260246000fd5b600060018201613448576134486133f7565b5060010190565b81810381811115611148576111486133f7565b600067ffffffffffffffff82111561347c5761347c613303565b5060051b60200190565b6000602080838503121561349957600080fd5b825167ffffffffffffffff8111156134b057600080fd5b8301601f810185136134c157600080fd5b80516134d46134cf82613462565b613319565b81815260059190911b820183019083810190878311156134f357600080fd5b928401925b82841015612c7b57835161350b81612fdb565b825292840192908401906134f8565b6020808252825482820181905260008481528281209092916040850190845b818110156131c65783546001600160a01b031683526001938401939285019201613539565b634e487b7160e01b600052601260045260246000fd5b6000826135835761358361355e565b500490565b8082028115828204841417611148576111486133f7565b600080604083850312156135b257600080fd5b825167ffffffffffffffff8111156135c957600080fd5b8301601f810185136135da57600080fd5b805160206135ea6134cf83613462565b82815260059290921b8301810191818101908884111561360957600080fd5b938201935b838510156136275784518252938201939082019061360e565b969091015195979596505050505050565b600081613647576136476133f7565b506000190190565b60008261365e5761365e61355e565b500690565b60006020828403121561367557600080fd5b8151801515811461300d57600080fdfea2646970667358221220e908efe39e0e77807fc5212711016a09d4cac71728232ed8819b88109537a72564736f6c63430008190033",
  "linkReferences": {},
  "deployedLinkReferences": {}
}