{
  "_format": "hh-sol-artifact-1",
  "contractName": "ValidatorSetHbbft",
  "sourceName": "contracts/ValidatorSetHbbft.sol",
  "abi": [
    {
      "inputs": [],
      "stateMutability": "nonpayable",
      "type": "constructor"
    },
    {
      "inputs": [],
      "name": "AnnounceBlockNumberTooOld",
      "type": "error"
    },
    {
      "inputs": [],
      "name": "CantAnnounceAvailability",
      "type": "error"
    },
    {
      "inputs": [],
      "name": "EpochNotYetFinished",
      "type": "error"
    },
    {
      "inputs": [],
      "name": "InitialAddressesLengthMismatch",
      "type": "error"
    },
    {
      "inputs": [],
      "name": "InitialValidatorsEmpty",
      "type": "error"
    },
    {
      "inputs": [],
      "name": "InvalidAddressPair",
      "type": "error"
    },
    {
      "inputs": [],
      "name": "InvalidAnnounceBlockHash",
      "type": "error"
    },
    {
      "inputs": [],
      "name": "InvalidAnnounceBlockNumber",
      "type": "error"
    },
    {
      "inputs": [],
      "name": "InvalidInactivityThreshold",
      "type": "error"
    },
    {
      "inputs": [],
      "name": "InvalidInitialization",
      "type": "error"
    },
    {
      "inputs": [],
      "name": "InvalidPossibleValidatorCount",
      "type": "error"
    },
    {
      "inputs": [
        {
          "internalType": "address",
          "name": "_value",
          "type": "address"
        }
      ],
      "name": "MiningAddressAlreadyUsed",
      "type": "error"
    },
    {
      "inputs": [],
      "name": "NotInitializing",
      "type": "error"
    },
    {
      "inputs": [
        {
          "internalType": "address",
          "name": "owner",
          "type": "address"
        }
      ],
      "name": "OwnableInvalidOwner",
      "type": "error"
    },
    {
      "inputs": [
        {
          "internalType": "address",
          "name": "account",
          "type": "address"
        }
      ],
      "name": "OwnableUnauthorizedAccount",
      "type": "error"
    },
    {
      "inputs": [
        {
          "internalType": "address",
          "name": "_value",
          "type": "address"
        }
      ],
      "name": "StakingAddressAlreadyUsed",
      "type": "error"
    },
    {
      "inputs": [
        {
          "internalType": "address",
          "name": "_mining",
          "type": "address"
        }
      ],
      "name": "StakingPoolNotExist",
      "type": "error"
    },
    {
      "inputs": [],
      "name": "Unauthorized",
      "type": "error"
    },
    {
      "inputs": [],
      "name": "ValidatorsListEmpty",
      "type": "error"
    },
    {
      "inputs": [],
      "name": "ZeroAddress",
      "type": "error"
    },
    {
      "anonymous": false,
      "inputs": [
        {
          "indexed": false,
          "internalType": "uint64",
          "name": "version",
          "type": "uint64"
        }
      ],
      "name": "Initialized",
      "type": "event"
    },
    {
      "anonymous": false,
      "inputs": [
        {
          "indexed": true,
          "internalType": "address",
          "name": "previousOwner",
          "type": "address"
        },
        {
          "indexed": true,
          "internalType": "address",
          "name": "newOwner",
          "type": "address"
        }
      ],
      "name": "OwnershipTransferred",
      "type": "event"
    },
    {
      "anonymous": false,
      "inputs": [
        {
          "indexed": false,
          "internalType": "address",
          "name": "validator",
          "type": "address"
        },
        {
          "indexed": false,
          "internalType": "uint256",
          "name": "timestamp",
          "type": "uint256"
        }
      ],
      "name": "ValidatorAvailable",
      "type": "event"
    },
    {
      "anonymous": false,
      "inputs": [
        {
          "indexed": false,
          "internalType": "address",
          "name": "validator",
          "type": "address"
        },
        {
          "indexed": false,
          "internalType": "uint256",
          "name": "timestamp",
          "type": "uint256"
        }
      ],
      "name": "ValidatorUnavailable",
      "type": "event"
    },
    {
      "inputs": [
        {
          "internalType": "uint256",
          "name": "_blockNumber",
          "type": "uint256"
        },
        {
          "internalType": "bytes32",
          "name": "_blockhash",
          "type": "bytes32"
        }
      ],
      "name": "announceAvailability",
      "outputs": [],
      "stateMutability": "nonpayable",
      "type": "function"
    },
    {
      "inputs": [],
      "name": "blockRewardContract",
      "outputs": [
        {
          "internalType": "address",
          "name": "",
          "type": "address"
        }
      ],
      "stateMutability": "view",
      "type": "function"
    },
    {
      "inputs": [],
      "name": "bonusScoreSystem",
      "outputs": [
        {
          "internalType": "contract IBonusScoreSystem",
          "name": "",
          "type": "address"
        }
      ],
      "stateMutability": "view",
      "type": "function"
    },
    {
      "inputs": [
        {
          "internalType": "address",
          "name": "_miningAddress",
          "type": "address"
        }
      ],
      "name": "canCallAnnounceAvailability",
      "outputs": [
        {
          "internalType": "bool",
          "name": "",
          "type": "bool"
        }
      ],
      "stateMutability": "view",
      "type": "function"
    },
    {
      "inputs": [],
      "name": "connectivityTracker",
      "outputs": [
        {
          "internalType": "address",
          "name": "",
          "type": "address"
        }
      ],
      "stateMutability": "view",
      "type": "function"
    },
    {
      "inputs": [],
      "name": "finalizeChange",
      "outputs": [],
      "stateMutability": "nonpayable",
      "type": "function"
    },
    {
      "inputs": [],
      "name": "getCurrentValidatorsCount",
      "outputs": [
        {
          "internalType": "uint256",
          "name": "",
          "type": "uint256"
        }
      ],
      "stateMutability": "view",
      "type": "function"
    },
    {
      "inputs": [
        {
          "internalType": "address",
          "name": "_miningAddress",
          "type": "address"
        }
      ],
      "name": "getPendingValidatorKeyGenerationMode",
      "outputs": [
        {
          "internalType": "enum IValidatorSetHbbft.KeyGenMode",
          "name": "",
          "type": "uint8"
        }
      ],
      "stateMutability": "view",
      "type": "function"
    },
    {
      "inputs": [],
      "name": "getPendingValidators",
      "outputs": [
        {
          "internalType": "address[]",
          "name": "",
          "type": "address[]"
        }
      ],
      "stateMutability": "view",
      "type": "function"
    },
    {
      "inputs": [],
      "name": "getPreviousValidators",
      "outputs": [
        {
          "internalType": "address[]",
          "name": "",
          "type": "address[]"
        }
      ],
      "stateMutability": "view",
      "type": "function"
    },
    {
      "inputs": [
        {
          "internalType": "address",
          "name": "_miningAddress",
          "type": "address"
        }
      ],
      "name": "getPublicKey",
      "outputs": [
        {
          "internalType": "bytes",
          "name": "",
          "type": "bytes"
        }
      ],
      "stateMutability": "view",
      "type": "function"
    },
    {
      "inputs": [],
      "name": "getStakingContract",
      "outputs": [
        {
          "internalType": "address",
          "name": "",
          "type": "address"
        }
      ],
      "stateMutability": "view",
      "type": "function"
    },
    {
      "inputs": [
        {
          "internalType": "uint256",
          "name": "_possibleValidatorCount",
          "type": "uint256"
        }
      ],
      "name": "getValidatorCountSweetSpot",
      "outputs": [
        {
          "internalType": "uint256",
          "name": "",
          "type": "uint256"
        }
      ],
      "stateMutability": "pure",
      "type": "function"
    },
    {
      "inputs": [],
      "name": "getValidators",
      "outputs": [
        {
          "internalType": "address[]",
          "name": "",
          "type": "address[]"
        }
      ],
      "stateMutability": "view",
      "type": "function"
    },
    {
      "inputs": [],
      "name": "handleFailedKeyGeneration",
      "outputs": [],
      "stateMutability": "nonpayable",
      "type": "function"
    },
    {
      "inputs": [
        {
          "internalType": "address",
          "name": "_contractOwner",
          "type": "address"
        },
        {
          "components": [
            {
              "internalType": "address",
              "name": "blockRewardContract",
              "type": "address"
            },
            {
              "internalType": "address",
              "name": "randomContract",
              "type": "address"
            },
            {
              "internalType": "address",
              "name": "stakingContract",
              "type": "address"
            },
            {
              "internalType": "address",
              "name": "keyGenHistoryContract",
              "type": "address"
            },
            {
              "internalType": "address",
              "name": "bonusScoreContract",
              "type": "address"
            },
            {
              "internalType": "address",
              "name": "connectivityTrackerContract",
              "type": "address"
            },
            {
              "internalType": "uint256",
              "name": "validatorInactivityThreshold",
              "type": "uint256"
            }
          ],
          "internalType": "struct IValidatorSetHbbft.ValidatorSetParams",
          "name": "_params",
          "type": "tuple"
        },
        {
          "internalType": "address[]",
          "name": "_initialMiningAddresses",
          "type": "address[]"
        },
        {
          "internalType": "address[]",
          "name": "_initialStakingAddresses",
          "type": "address[]"
        }
      ],
      "name": "initialize",
      "outputs": [],
      "stateMutability": "nonpayable",
      "type": "function"
    },
    {
      "inputs": [],
      "name": "isFullHealth",
      "outputs": [
        {
          "internalType": "bool",
          "name": "",
          "type": "bool"
        }
      ],
      "stateMutability": "view",
      "type": "function"
    },
    {
      "inputs": [
        {
          "internalType": "address",
          "name": "_miningAddress",
          "type": "address"
        }
      ],
      "name": "isPendingValidator",
      "outputs": [
        {
          "internalType": "bool",
          "name": "",
          "type": "bool"
        }
      ],
      "stateMutability": "view",
      "type": "function"
    },
    {
      "inputs": [
        {
          "internalType": "address",
          "name": "",
          "type": "address"
        }
      ],
      "name": "isValidator",
      "outputs": [
        {
          "internalType": "bool",
          "name": "",
          "type": "bool"
        }
      ],
      "stateMutability": "view",
      "type": "function"
    },
    {
      "inputs": [
        {
          "internalType": "address",
          "name": "_stakingAddress",
          "type": "address"
        }
      ],
      "name": "isValidatorAbandoned",
      "outputs": [
        {
          "internalType": "bool",
          "name": "",
          "type": "bool"
        }
      ],
      "stateMutability": "view",
      "type": "function"
    },
    {
      "inputs": [
        {
          "internalType": "address",
          "name": "_miningAddress",
          "type": "address"
        }
      ],
      "name": "isValidatorOrPending",
      "outputs": [
        {
          "internalType": "bool",
          "name": "",
          "type": "bool"
        }
      ],
      "stateMutability": "view",
      "type": "function"
    },
    {
      "inputs": [
        {
          "internalType": "address",
          "name": "",
          "type": "address"
        }
      ],
      "name": "isValidatorPrevious",
      "outputs": [
        {
          "internalType": "bool",
          "name": "",
          "type": "bool"
        }
      ],
      "stateMutability": "view",
      "type": "function"
    },
    {
      "inputs": [],
      "name": "keyGenHistoryContract",
      "outputs": [
        {
          "internalType": "contract IKeyGenHistory",
          "name": "",
          "type": "address"
        }
      ],
      "stateMutability": "view",
      "type": "function"
    },
    {
      "inputs": [],
      "name": "maxValidators",
      "outputs": [
        {
          "internalType": "uint256",
          "name": "",
          "type": "uint256"
        }
      ],
      "stateMutability": "view",
      "type": "function"
    },
    {
      "inputs": [
        {
          "internalType": "address",
          "name": "",
          "type": "address"
        }
      ],
      "name": "miningByStakingAddress",
      "outputs": [
        {
          "internalType": "address",
          "name": "",
          "type": "address"
        }
      ],
      "stateMutability": "view",
      "type": "function"
    },
    {
      "inputs": [],
      "name": "newValidatorSet",
      "outputs": [],
      "stateMutability": "nonpayable",
      "type": "function"
    },
    {
      "inputs": [
        {
          "internalType": "address",
          "name": "_miningAddress",
          "type": "address"
        }
      ],
      "name": "notifyUnavailability",
      "outputs": [],
      "stateMutability": "nonpayable",
      "type": "function"
    },
    {
      "inputs": [],
      "name": "owner",
      "outputs": [
        {
          "internalType": "address",
          "name": "",
          "type": "address"
        }
      ],
      "stateMutability": "view",
      "type": "function"
    },
    {
      "inputs": [
        {
          "internalType": "address",
          "name": "_stakingAddress",
          "type": "address"
        }
      ],
      "name": "publicKeyByStakingAddress",
      "outputs": [
        {
          "internalType": "bytes",
          "name": "",
          "type": "bytes"
        }
      ],
      "stateMutability": "view",
      "type": "function"
    },
    {
      "inputs": [],
      "name": "randomContract",
      "outputs": [
        {
          "internalType": "address",
          "name": "",
          "type": "address"
        }
      ],
      "stateMutability": "view",
      "type": "function"
    },
    {
      "inputs": [],
      "name": "renounceOwnership",
      "outputs": [],
      "stateMutability": "nonpayable",
      "type": "function"
    },
    {
      "inputs": [
        {
          "internalType": "address",
          "name": "_miningAddress",
          "type": "address"
        },
        {
          "internalType": "address",
          "name": "_stakingAddress",
          "type": "address"
        }
      ],
      "name": "setStakingAddress",
      "outputs": [],
      "stateMutability": "nonpayable",
      "type": "function"
    },
    {
      "inputs": [
        {
          "internalType": "bytes16",
          "name": "_ip",
          "type": "bytes16"
        },
        {
          "internalType": "bytes2",
          "name": "_port",
          "type": "bytes2"
        }
      ],
      "name": "setValidatorInternetAddress",
      "outputs": [],
      "stateMutability": "nonpayable",
      "type": "function"
    },
    {
      "inputs": [
        {
          "internalType": "address",
          "name": "",
          "type": "address"
        }
      ],
      "name": "stakingByMiningAddress",
      "outputs": [
        {
          "internalType": "address",
          "name": "",
          "type": "address"
        }
      ],
      "stateMutability": "view",
      "type": "function"
    },
    {
      "inputs": [],
      "name": "stakingContract",
      "outputs": [
        {
          "internalType": "contract IStakingHbbft",
          "name": "",
          "type": "address"
        }
      ],
      "stateMutability": "view",
      "type": "function"
    },
    {
      "inputs": [
        {
          "internalType": "address",
          "name": "newOwner",
          "type": "address"
        }
      ],
      "name": "transferOwnership",
      "outputs": [],
      "stateMutability": "nonpayable",
      "type": "function"
    },
    {
      "inputs": [
        {
          "internalType": "address",
          "name": "",
          "type": "address"
        }
      ],
      "name": "validatorAvailableSince",
      "outputs": [
        {
          "internalType": "uint256",
          "name": "",
          "type": "uint256"
        }
      ],
      "stateMutability": "view",
      "type": "function"
    },
    {
      "inputs": [
        {
          "internalType": "address",
          "name": "",
          "type": "address"
        }
      ],
      "name": "validatorAvailableSinceLastWrite",
      "outputs": [
        {
          "internalType": "uint256",
          "name": "",
          "type": "uint256"
        }
      ],
      "stateMutability": "view",
      "type": "function"
    },
    {
      "inputs": [
        {
          "internalType": "address",
          "name": "",
          "type": "address"
        }
      ],
      "name": "validatorCounter",
      "outputs": [
        {
          "internalType": "uint256",
          "name": "",
          "type": "uint256"
        }
      ],
      "stateMutability": "view",
      "type": "function"
    },
    {
      "inputs": [],
      "name": "validatorInactivityThreshold",
      "outputs": [
        {
          "internalType": "uint256",
          "name": "",
          "type": "uint256"
        }
      ],
      "stateMutability": "view",
      "type": "function"
    }
  ],
  "bytecode": "0x6080604052348015600f57600080fd5b506016601a565b60ca565b7ff0c57e16840df040f15088dc2f81fe391c3923bec73e23a9662efc9c229c6a00805468010000000000000000900460ff161560695760405163f92ee8a960e01b815260040160405180910390fd5b80546001600160401b039081161460c75780546001600160401b0319166001600160401b0390811782556040519081527fc7f505b2f371ae2175ee4913f4499e1f2633a7b5936321eed1cdaeb6115181d29060200160405180910390a15b50565b613682806100d96000396000f3fe608060405234801561001057600080fd5b50600436106102c75760003560e01c80638e68dce41161017b578063b7ab4db5116100d8578063efd049471161008c578063f51726f011610071578063f51726f0146105fa578063facd743b1461060d578063fb64aac11461063057600080fd5b8063efd04947146105d4578063f2fde38b146105e757600080fd5b8063ed7cba62116100bd578063ed7cba6214610599578063ee99205c146105b9578063eebc7a39146105cc57600080fd5b8063b7ab4db51461057e578063ccf69e9b1461058657600080fd5b8063a49904e51161012f578063ade1900a11610114578063ade1900a14610543578063b41832e41461054b578063b47aef1f1461056b57600080fd5b8063a49904e514610514578063a68b5b761461052057600080fd5b80639d6fc1d1116101605780639d6fc1d1146104cb578063a0d16cad146104ee578063a42bdee91461050157600080fd5b80638e68dce4146104a75780639881933d146104b857600080fd5b806360e5c52011610229578063717662ee116101dd57806385602ad5116101c257806385602ad514610442578063857cdbb8146104575780638da5cb5b1461047757600080fd5b8063717662ee14610427578063752862111461043a57600080fd5b8063669554691161020e57806366955469146104035780636b949ae814610416578063715018a61461041f57600080fd5b806360e5c520146103d057806361e61068146103f057600080fd5b80633da74fc61161028057806356b54bae1161026557806356b54bae146103ad5780635ccee1de146103c05780635d5fcbce146103c857600080fd5b80633da74fc61461038757806343bcce9f1461039a57600080fd5b80630a4c1072116102b15780630a4c10721461032957806314e28d901461033e5780631ee4d0bc1461035e57600080fd5b8062535175146102cc57806308ac525614610312575b600080fd5b6102f56102da366004612fb7565b6006602052600090815260409020546001600160a01b031681565b6040516001600160a01b0390911681526020015b60405180910390f35b61031b600e5481565b604051908152602001610309565b61033c610337366004612fdb565b610643565b005b61035161034c366004612fb7565b61067b565b6040516103099190613014565b6102f561036c366004612fb7565b6008602052600090815260409020546001600160a01b031681565b6010546102f5906001600160a01b031681565b61033c6103a836600461303c565b610864565b6003546102f5906001600160a01b031681565b61033c6109be565b60005461031b565b61031b6103de366004612fb7565b600d6020526000908152604090205481565b61033c6103fe3660046130aa565b610a02565b6011546102f5906001600160a01b031681565b61031b600f5481565b61033c610db4565b61033c610435366004612fb7565b610dc6565b61033c610ecd565b61044a61105c565b604051610309919061314c565b61046a610465366004612fb7565b6110be565b60405161030991906131bd565b7f9016d09d72d40fdae2fd8ceac6b6234c7706214fd39c1cd1e609a0528c199300546001600160a01b03166102f5565b6009546001600160a01b03166102f5565b61046a6104c6366004612fb7565b61114e565b6104de6104d9366004612fb7565b611181565b6040519015158152602001610309565b6104de6104fc366004612fb7565b6111ee565b61033c61050f3660046131f0565b611219565b600054600e54146104de565b6104de61052e366004612fb7565b60056020526000908152604090205460ff1681565b61033c6112fc565b61031b610559366004612fb7565b600b6020526000908152604090205481565b600a546102f5906001600160a01b031681565b61044a611a92565b6007546102f5906001600160a01b031681565b61031b6105a7366004612fb7565b600c6020526000908152604090205481565b6009546102f5906001600160a01b031681565b61044a611af2565b61031b6105e2366004613259565b611b52565b61033c6105f5366004612fb7565b611baf565b6104de610608366004612fb7565b611bed565b6104de61061b366004612fb7565b60046020526000908152604090205460ff1681565b6104de61063e366004612fb7565b611c44565b6009546001600160a01b0316331461066d576040516282b42960e81b815260040160405180910390fd5b6106778282611ca2565b5050565b600061068682611c44565b61069257506000919050565b600a5460408051637be02c2b60e01b8152815160009384936001600160a01b0390911692637be02c2b92600480830193928290030181865afa1580156106dc573d6000803e3d6000fd5b505050506040513d601f19601f820116820180604052508101906107009190613297565b60015491935091506fffffffffffffffffffffffffffffffff831610156107b557600a546040516399de1a4360e01b81526001600160a01b03868116600483015260009216906399de1a4390602401600060405180830381865afa15801561076c573d6000803e3d6000fd5b505050506040513d6000823e601f3d908101601f191682016040526107949190810190613311565b905080516000036107aa57506001949350505050565b506002949350505050565b6001546fffffffffffffffffffffffffffffffff8216101561085a57600a54604051631baeec3f60e31b81526001600160a01b0386811660048301529091169063dd7761f890602401602060405180830381865afa15801561081b573d6000803e3d6000fd5b505050506040513d601f19601f8201168201806040525081019061083f91906133a5565b600003610850575060039392505050565b5060049392505050565b5060059392505050565b61086d33611bed565b61088a5760405163a82bfa5560e01b815260040160405180910390fd5b4382106108aa576040516341d852df60e01b815260040160405180910390fd5b436108b68360106133d4565b116108d4576040516310548f8360e01b815260040160405180910390fd5b808240146108f55760405163fe1864e160e01b815260040160405180910390fd5b336000908152600d602090815260408083204290819055600c83528184208190556009546008909352818420548251631ec56e5360e21b81526001600160a01b03918216600482015292519194931692637b15b94c926024808201939182900301818387803b15801561096757600080fd5b505af115801561097b573d6000803e3d6000fd5b505060408051338152602081018590527f705d65dbee06de60e6465d68371ce849d5a1ead53e53d01a413b2b01393aa022935001905060405180910390a1505050565b6003546001600160a01b031633146109e8576040516282b42960e81b815260040160405180910390fd5b604080516000815260208101909152610a0090611e40565b565b7ff0c57e16840df040f15088dc2f81fe391c3923bec73e23a9662efc9c229c6a00805468010000000000000000810460ff16159067ffffffffffffffff16600081158015610a4d5750825b905060008267ffffffffffffffff166001148015610a6a5750303b155b905081158015610a78575080155b15610a965760405163f92ee8a960e01b815260040160405180910390fd5b845467ffffffffffffffff191660011785558315610aca57845468ff00000000000000001916680100000000000000001785555b610ad38a6124df565b6001600160a01b038b16610afa5760405163d92e233d60e01b815260040160405180910390fd5b6000889003610b1c576040516322b8b72360e21b815260040160405180910390fd5b878614610b3c5760405163ac9e459360e01b815260040160405180910390fd5b610b458b6125a2565b610b5260208b018b612fb7565b600380546001600160a01b0319166001600160a01b0392909216919091179055610b8260408b0160208c01612fb7565b600780546001600160a01b0319166001600160a01b0392909216919091179055610bb260608b0160408c01612fb7565b600980546001600160a01b0319166001600160a01b0392909216919091179055610be260808b0160608c01612fb7565b600a80546001600160a01b0319166001600160a01b0392909216919091179055610c1260a08b0160808c01612fb7565b601080546001600160a01b0319166001600160a01b0392909216919091179055610c4260c08b0160a08c01612fb7565b601180546001600160a01b0319166001600160a01b039290921691909117905560c08a0135600f5560005b88811015610d565760008a8a83818110610c8957610c896133e7565b9050602002016020810190610c9e9190612fb7565b60008054600180820183557f290decd9548b62a8d60345a988386fc84ba6bc95484008f6362f93160ef3e56390910180546001600160a01b0319166001600160a01b0385169081179091558252600460209081526040808420805460ff1916909317909255600b90528120805492935090610d18836133fd565b9190505550610d4d818a8a85818110610d3357610d336133e7565b9050602002016020810190610d489190612fb7565b611ca2565b50600101610c6d565b506019600e558315610da757845468ff000000000000000019168555604051600181527fc7f505b2f371ae2175ee4913f4499e1f2633a7b5936321eed1cdaeb6115181d29060200160405180910390a15b5050505050505050505050565b610dbc6125b3565b610a00600061260e565b6011546001600160a01b03163314610df0576040516282b42960e81b815260040160405180910390fd5b6009546001600160a01b0382811660009081526008602052604090819020549051631dbe84a360e11b81529082166004820152911690633b7d094690602401600060405180830381600087803b158015610e4957600080fd5b505af1158015610e5d573d6000803e3d6000fd5b5050506001600160a01b0382166000908152600d60209081526040808320839055600c909152902042905550604080516001600160a01b03831681524260208201527f7ec36d1734626f8b3686f8791130187e1633c843b1995003e788cd2b33d56903910160405180910390a150565b6003546001600160a01b03163314610ef7576040516282b42960e81b815260040160405180910390fd5b60015415610f0f57610f0761267f565b610f0f61275b565b610f17612900565b610f1f612a84565b600960009054906101000a90046001600160a01b03166001600160a01b031663ee435f556040518163ffffffff1660e01b8152600401600060405180830381600087803b158015610f6f57600080fd5b505af1158015610f83573d6000803e3d6000fd5b50505050600a60009054906101000a90046001600160a01b03166001600160a01b0316632c6f194d6040518163ffffffff1660e01b8152600401600060405180830381600087803b158015610fd757600080fd5b505af1158015610feb573d6000803e3d6000fd5b5050505060016000610ffd9190612f1f565b600954604051638247a23960e01b81524260048201526001600160a01b0390911690638247a23990602401600060405180830381600087803b15801561104257600080fd5b505af1158015611056573d6000803e3d6000fd5b50505050565b606060028054806020026020016040519081016040528092919081815260200182805480156110b457602002820191906000526020600020905b81546001600160a01b03168152600190910190602001808311611096575b5050505050905090565b6009546001600160a01b0382811660009081526008602052604090819020549051634e9b426d60e01b815290821660048201526060929190911690634e9b426d906024015b600060405180830381865afa158015611120573d6000803e3d6000fd5b505050506040513d6000823e601f3d908101601f191682016040526111489190810190613311565b92915050565b600954604051634e9b426d60e01b81526001600160a01b0383811660048301526060921690634e9b426d90602401611103565b6001600160a01b03808216600090815260066020908152604080832054909316808352600d90915291812054909190156111be5750600092915050565b6001600160a01b0381166000908152600c60205260408120546111e19042613416565b600f541115949350505050565b6001600160a01b03811660009081526004602052604081205460ff1680611148575061114882611c44565b336000908152600860205260409020546001600160a01b031680611257576040516303a949c760e61b81523360048201526024015b60405180910390fd5b600954604051637b0a0f9b60e01b81526001600160a01b0383811660048301526fffffffffffffffffffffffffffffffff19861660248301527fffff0000000000000000000000000000000000000000000000000000000000008516604483015290911690637b0a0f9b90606401600060405180830381600087803b1580156112df57600080fd5b505af11580156112f3573d6000803e3d6000fd5b50505050505050565b6003546001600160a01b03163314611326576040516282b42960e81b815260040160405180910390fd5b600960009054906101000a90046001600160a01b03166001600160a01b031663bb57c8ac6040518163ffffffff1660e01b8152600401602060405180830381865afa158015611379573d6000803e3d6000fd5b505050506040513d601f19601f8201168201806040525081019061139d91906133a5565b4210156113bd576040516323398a5960e01b815260040160405180910390fd5b600960009054906101000a90046001600160a01b03166001600160a01b031663a5d54f656040518163ffffffff1660e01b8152600401600060405180830381865afa158015611410573d6000803e3d6000fd5b505050506040513d6000823e601f3d908101601f19168201604052611438919081019061344d565b5115610a005760015415610a005760018054906000906114589083613416565b67ffffffffffffffff811115611470576114706132ca565b604051908082528060200260200182016040528015611499578160200160208202803683370190505b50905060008080600a60009054906101000a90046001600160a01b03166001600160a01b0316637be02c2b6040518163ffffffff1660e01b81526004016040805180830381865afa1580156114f2573d6000803e3d6000fd5b505050506040513d601f19601f820116820180604052508101906115169190613297565b9150915060005b8581101561182a5760006001828154811061153a5761153a6133e7565b60009182526020822001546001600160a01b031691506fffffffffffffffffffffffffffffffff85168811156115e657600a546040516399de1a4360e01b81526001600160a01b03848116600483015260009216906399de1a4390602401600060405180830381865afa1580156115b5573d6000803e3d6000fd5b505050506040513d6000823e601f3d908101601f191682016040526115dd9190810190613311565b51119050611673565b836fffffffffffffffffffffffffffffffff1688111561167357600a54604051631baeec3f60e31b81526001600160a01b038481166004830152600092169063dd7761f890602401602060405180830381865afa15801561164b573d6000803e3d6000fd5b505050506040513d601f19601f8201168201806040525081019061166f91906133a5565b1190505b80156116e6576001838154811061168c5761168c6133e7565b9060005260206000200160009054906101000a90046001600160a01b03168787815181106116bc576116bc6133e7565b6001600160a01b0390921660209283029190910190910152856116de816133fd565b965050611820565b601054604051632bdfe5f760e11b81526001600160a01b038481166004830152909116906357bfcbee90602401600060405180830381600087803b15801561172d57600080fd5b505af1158015611741573d6000803e3d6000fd5b50506009546001600160a01b0385811660009081526008602052604090819020549051631dbe84a360e11b8152908216600482015291169250633b7d09469150602401600060405180830381600087803b15801561179e57600080fd5b505af11580156117b2573d6000803e3d6000fd5b5050506001600160a01b0383166000908152600d60209081526040808320839055600c909152902042905550604080516001600160a01b03841681524260208201527f7ec36d1734626f8b3686f8791130187e1633c843b1995003e788cd2b33d56903910160405180910390a15b505060010161151d565b50600a54604051632f8ba4bf60e11b81526001600160a01b0390911690635f17497e9061185c906001906004016134e1565b600060405180830381600087803b15801561187657600080fd5b505af115801561188a573d6000803e3d6000fd5b50505050600a60009054906101000a90046001600160a01b03166001600160a01b031663adddc0cf6040518163ffffffff1660e01b8152600401600060405180830381600087803b1580156118de57600080fd5b505af11580156118f2573d6000803e3d6000fd5b5050505060008367ffffffffffffffff811115611911576119116132ca565b60405190808252806020026020018201604052801561193a578160200160208202803683370190505b50905060005b848110156119945785818151811061195a5761195a6133e7565b6020026020010151828281518110611974576119746133e7565b6001600160a01b0390921660209283029190910190910152600101611940565b50600960009054906101000a90046001600160a01b03166001600160a01b031663adddc0cf6040518163ffffffff1660e01b8152600401600060405180830381600087803b1580156119e557600080fd5b505af11580156119f9573d6000803e3d6000fd5b505050506000600960009054906101000a90046001600160a01b03166001600160a01b031663a5d54f656040518163ffffffff1660e01b8152600401600060405180830381865afa158015611a52573d6000803e3d6000fd5b505050506040513d6000823e601f3d908101601f19168201604052611a7a919081019061344d565b511115611a8a57611a8a81611e40565b505050505050565b606060008054806020026020016040519081016040528092919081815260200182805480156110b4576020028201919060005260206000209081546001600160a01b03168152600190910190602001808311611096575050505050905090565b606060018054806020026020016040519081016040528092919081815260200182805480156110b4576020028201919060005260206000209081546001600160a01b03168152600190910190602001808311611096575050505050905090565b600081600003611b755760405163a63671a560e01b815260040160405180910390fd5b6004821015611b82575090565b6003611b8f600184613416565b611b99919061353b565b611ba490600361354f565b6111489060016133d4565b611bb76125b3565b6001600160a01b038116611be157604051631e4fbdf760e01b81526000600482015260240161124e565b611bea8161260e565b50565b6001600160a01b03818116600090815260086020526040812054909116611c1657506000919050565b6001600160a01b0382166000908152600d602052604090205415611c3c57506000919050565b506001919050565b600154600090815b81811015611c985760018181548110611c6757611c676133e7565b6000918252602090912001546001600160a01b0390811690851603611c90575060019392505050565b600101611c4c565b5060009392505050565b6001600160a01b038216611cc95760405163d92e233d60e01b815260040160405180910390fd5b6001600160a01b038116611cf05760405163d92e233d60e01b815260040160405180910390fd5b806001600160a01b0316826001600160a01b031603611d22576040516307d9394560e01b815260040160405180910390fd5b6001600160a01b0381811660009081526006602052604090205416151580611d6357506001600160a01b038181166000908152600860205260409020541615155b15611d8c576040516326d65e0360e21b81526001600160a01b038216600482015260240161124e565b6001600160a01b0382811660009081526006602052604090205416151580611dcd57506001600160a01b038281166000908152600860205260409020541615155b15611df65760405163342ed6a360e01b81526001600160a01b038316600482015260240161124e565b6001600160a01b0390811660008181526006602090815260408083208054959096166001600160a01b03199586168117909655948252600890529290922080549091169091179055565b6009546040805163a5d54f6560e01b815290516000926001600160a01b03169163a5d54f6591600480830192869291908290030181865afa158015611e89573d6000803e3d6000fd5b505050506040513d6000823e601f3d908101601f19168201604052611eb1919081019061344d565b90506000600e548251101580611ec657508151155b611ed957611ed48251611b52565b611edd565b600e545b905080825111156123185781516009546040805163957950a760e01b8152905160009283926001600160a01b039091169163957950a79160048082019286929091908290030181865afa158015611f38573d6000803e3d6000fd5b505050506040513d6000823e601f3d908101601f19168201604052611f609190810190613566565b9150915060008467ffffffffffffffff811115611f7f57611f7f6132ca565b604051908082528060200260200182016040528015611fa8578160200160208202803683370190505b5090506000805b885181101561212d5760005b8681101561212457898281518110611fd557611fd56133e7565b60200260200101516001600160a01b0316898281518110611ff857611ff86133e7565b60200260200101516001600160a01b03160361211c57898281518110612020576120206133e7565b602002602001015184848151811061203a5761203a6133e7565b6001600160a01b03909216602092830291909101909101528261205c816133fd565b935050858181518110612071576120716133e7565b6020026020010151856120849190613416565b945086612090816135ff565b9750508887815181106120a5576120a56133e7565b60200260200101518982815181106120bf576120bf6133e7565b60200260200101906001600160a01b031690816001600160a01b0316815250508587815181106120f1576120f16133e7565b602002602001015186828151811061210b5761210b6133e7565b602002602001018181525050612124565b600101611fbb565b50600101611faf565b5060075460408051634191031360e11b815290516000926001600160a01b03169163832206269160048083019260209291908290030181865afa158015612178573d6000803e3d6000fd5b505050506040513d601f19601f8201168201806040525081019061219c91906133a5565b9050600085511180156121af5750600084115b1561230d5760005b835181101561230357604080514284186020820152016040516020818303038152906040528051906020012060001c915060006121f5878785612be4565b9050898181518110612209576122096133e7565b6020026020010151858381518110612223576122236133e7565b60200260200101906001600160a01b031690816001600160a01b031681525050868181518110612255576122556133e7565b6020026020010151866122689190613416565b955087612274816135ff565b985050898881518110612289576122896133e7565b60200260200101518a82815181106122a3576122a36133e7565b60200260200101906001600160a01b031690816001600160a01b0316815250508688815181106122d5576122d56133e7565b60200260200101518782815181106122ef576122ef6133e7565b6020908102919091010152506001016121b7565b5061230d83612c4d565b505050505050612321565b61232182612c4d565b600a54604051632f8ba4bf60e11b81526001600160a01b0390911690635f17497e90612352906000906004016134e1565b600060405180830381600087803b15801561236c57600080fd5b505af1158015612380573d6000803e3d6000fd5b5050505081516000146123f657600960009054906101000a90046001600160a01b03166001600160a01b0316631555371c6040518163ffffffff1660e01b8152600401600060405180830381600087803b1580156123dd57600080fd5b505af11580156123f1573d6000803e3d6000fd5b505050505b60095460408051632ed5f22b60e21b815290516000926001600160a01b03169163bb57c8ac9160048083019260209291908290030181865afa158015612440573d6000803e3d6000fd5b505050506040513d601f19601f8201168201806040525081019061246491906133a5565b905080421115611056576009546001600160a01b0316639e72c6356124898342613416565b6040518263ffffffff1660e01b81526004016124a791815260200190565b600060405180830381600087803b1580156124c157600080fd5b505af11580156124d5573d6000803e3d6000fd5b5050505050505050565b60006124ee6020830183612fb7565b6001600160a01b0316148061251b575060006125106040830160208401612fb7565b6001600160a01b0316145b8061253e575060006125336060830160408401612fb7565b6001600160a01b0316145b80612561575060006125566080830160608401612fb7565b6001600160a01b0316145b806125845750600061257960a0830160808401612fb7565b6001600160a01b0316145b15611bea5760405163d92e233d60e01b815260040160405180910390fd5b6125aa612ec9565b611bea81612f17565b336125e57f9016d09d72d40fdae2fd8ceac6b6234c7706214fd39c1cd1e609a0528c199300546001600160a01b031690565b6001600160a01b031614610a005760405163118cdaa760e01b815233600482015260240161124e565b7f9016d09d72d40fdae2fd8ceac6b6234c7706214fd39c1cd1e609a0528c19930080546001600160a01b031981166001600160a01b03848116918217845560405192169182907f8be0079c531659141344cd1fd0a4f28419497f9722a3daafe3b4186f6b6457e090600090a3505050565b60025460005b818110156126e257600060056000600284815481106126a6576126a66133e7565b6000918252602080832091909101546001600160a01b031683528201929092526040019020805460ff1916911515919091179055600101612685565b505060008054905b818110156127465760016005600080848154811061270a5761270a6133e7565b6000918252602080832091909101546001600160a01b031683528201929092526040019020805460ff19169115159190911790556001016126ea565b6000805461275691600291612f3d565b505050565b60606000808054806020026020016040519081016040528092919081815260200182805480156127b457602002820191906000526020600020905b81546001600160a01b03168152600190910190602001808311612796575b50505050509150600090505b815181101561281b576000600460008484815181106127e1576127e16133e7565b6020908102919091018101516001600160a01b03168252810191909152604001600020805460ff19169115159190911790556001016127c0565b6001805461282b91600091612f3d565b50600080548060200260200160405190810160405280929190818152602001828054801561288257602002820191906000526020600020905b81546001600160a01b03168152600190910190602001808311612864575b50505050509150600090505b81518110156106775760008282815181106128ab576128ab6133e7565b6020908102919091018101516001600160a01b0381166000908152600483526040808220805460ff19166001179055600b909352918220805491935090916128f2836133fd565b90915550505060010161288e565b6009546040805163a5d54f6560e01b815290516000926001600160a01b03169163a5d54f6591600480830192869291908290030181865afa158015612949573d6000803e3d6000fd5b505050506040513d6000823e601f3d908101601f19168201604052612971919081019061344d565b805190915060005b8181101561275657600060066000858481518110612999576129996133e7565b6020908102919091018101516001600160a01b039081168352828201939093526040918201600090812054909316808452600490915291205490915060ff16806129f957506001600160a01b0381166000908152600d6020526040902054155b15612a045750612a7c565b6010546001600160a01b038281166000818152600d6020526040908190205490516392f2944360e01b8152600481019290925260248201529116906392f2944390604401600060405180830381600087803b158015612a6257600080fd5b505af1158015612a76573d6000803e3d6000fd5b50505050505b600101612979565b6009546040805163df6f55f560e01b815290516000926001600160a01b03169163df6f55f591600480830192869291908290030181865afa158015612acd573d6000803e3d6000fd5b505050506040513d6000823e601f3d908101601f19168201604052612af5919081019061344d565b805190915060005b8181101561275657600060066000858481518110612b1d57612b1d6133e7565b6020908102919091018101516001600160a01b039081168352828201939093526040918201600090812054909316808452600d90915291205490915015612b645750612bdc565b6010546001600160a01b038281166000818152600c6020526040908190205490516351150d5760e01b8152600481019290925260248201529116906351150d5790604401600060405180830381600087803b158015612bc257600080fd5b505af1158015612bd6573d6000803e3d6000fd5b50505050505b600101612afd565b600080612bf18484613616565b90506000805b828211612c3757868181518110612c1057612c106133e7565b602002602001015182612c2391906133d4565b915080612c2f816133fd565b915050612bf7565b612c42600182613416565b979650505050505050565b612c5960016000612f1f565b8051600003612e4d5760008054905b81811015612dee576000808281548110612c8457612c846133e7565b6000918252602080832091909101546001600160a01b03908116808452600890925260409283902054600954935163a711e6a160e01b8152908216600482018190529294509192169063a711e6a190602401602060405180830381865afa158015612cf3573d6000803e3d6000fd5b505050506040513d601f19601f82011682018060405250810190612d17919061362a565b8015612d94575060095460405162e9ab0360e81b81526001600160a01b038381166004830181905260248301529091169063e9ab030090604401602060405180830381865afa158015612d6e573d6000803e3d6000fd5b505050506040513d601f19601f82011682018060405250810190612d9291906133a5565b155b15612de4576001805480820182556000919091527fb10e2d527612073b26eecdfd717e6a320cf44b4afac2b0732d9fcbe2b7fa0cf60180546001600160a01b0319166001600160a01b0384161790555b5050600101612c68565b5060015460000361067757600160008081548110612e0e57612e0e6133e7565b60009182526020808320909101548354600181018555938352912090910180546001600160a01b0319166001600160a01b039092169190911790555050565b805160005b8181101561275657600160066000858481518110612e7257612e726133e7565b6020908102919091018101516001600160a01b0390811683528282019390935260409091016000908120548454600181810187559583529290912090910180546001600160a01b0319169190921617905501612e52565b7ff0c57e16840df040f15088dc2f81fe391c3923bec73e23a9662efc9c229c6a005468010000000000000000900460ff16610a0057604051631afcd79f60e31b815260040160405180910390fd5b611bb7612ec9565b5080546000825590600052602060002090810190611bea9190612f8d565b828054828255906000526020600020908101928215612f7d5760005260206000209182015b82811115612f7d578254825591600101919060010190612f62565b50612f89929150612f8d565b5090565b5b80821115612f895760008155600101612f8e565b6001600160a01b0381168114611bea57600080fd5b600060208284031215612fc957600080fd5b8135612fd481612fa2565b9392505050565b60008060408385031215612fee57600080fd5b8235612ff981612fa2565b9150602083013561300981612fa2565b809150509250929050565b602081016006831061303657634e487b7160e01b600052602160045260246000fd5b91905290565b6000806040838503121561304f57600080fd5b50508035926020909101359150565b60008083601f84011261307057600080fd5b50813567ffffffffffffffff81111561308857600080fd5b6020830191508360208260051b85010111156130a357600080fd5b9250929050565b6000806000806000808688036101408112156130c557600080fd5b87356130d081612fa2565b965060e0601f19820112156130e457600080fd5b5060208701945061010087013567ffffffffffffffff8082111561310757600080fd5b6131138a838b0161305e565b909650945061012089013591508082111561312d57600080fd5b5061313a89828a0161305e565b979a9699509497509295939492505050565b6020808252825182820181905260009190848201906040850190845b8181101561318d5783516001600160a01b031683529284019291840191600101613168565b50909695505050505050565b60005b838110156131b457818101518382015260200161319c565b50506000910152565b60208152600082518060208401526131dc816040850160208701613199565b601f01601f19169190910160400192915050565b6000806040838503121561320357600080fd5b82356fffffffffffffffffffffffffffffffff198116811461322457600080fd5b915060208301357fffff0000000000000000000000000000000000000000000000000000000000008116811461300957600080fd5b60006020828403121561326b57600080fd5b5035919050565b80516fffffffffffffffffffffffffffffffff8116811461329257600080fd5b919050565b600080604083850312156132aa57600080fd5b6132b383613272565b91506132c160208401613272565b90509250929050565b634e487b7160e01b600052604160045260246000fd5b604051601f8201601f1916810167ffffffffffffffff81118282101715613309576133096132ca565b604052919050565b60006020828403121561332357600080fd5b815167ffffffffffffffff8082111561333b57600080fd5b818401915084601f83011261334f57600080fd5b815181811115613361576133616132ca565b613374601f8201601f19166020016132e0565b915080825285602082850101111561338b57600080fd5b61339c816020840160208601613199565b50949350505050565b6000602082840312156133b757600080fd5b5051919050565b634e487b7160e01b600052601160045260246000fd5b80820180821115611148576111486133be565b634e487b7160e01b600052603260045260246000fd5b60006001820161340f5761340f6133be565b5060010190565b81810381811115611148576111486133be565b600067ffffffffffffffff821115613443576134436132ca565b5060051b60200190565b6000602080838503121561346057600080fd5b825167ffffffffffffffff81111561347757600080fd5b8301601f8101851361348857600080fd5b805161349b61349682613429565b6132e0565b81815260059190911b820183019083810190878311156134ba57600080fd5b928401925b82841015612c425783516134d281612fa2565b825292840192908401906134bf565b6020808252825482820181905260008481528281209092916040850190845b8181101561318d5783546001600160a01b031683526001938401939285019201613500565b634e487b7160e01b600052601260045260246000fd5b60008261354a5761354a613525565b500490565b8082028115828204841417611148576111486133be565b6000806040838503121561357957600080fd5b825167ffffffffffffffff81111561359057600080fd5b8301601f810185136135a157600080fd5b805160206135b161349683613429565b82815260059290921b830181019181810190888411156135d057600080fd5b938201935b838510156135ee578451825293820193908201906135d5565b969091015195979596505050505050565b60008161360e5761360e6133be565b506000190190565b60008261362557613625613525565b500690565b60006020828403121561363c57600080fd5b81518015158114612fd457600080fdfea26469706673582212201b03fd603d7b124a6e0f68cc8d2ab18f4250f91ea0ef44abd0dd5df032f8fee064736f6c63430008190033",
  "linkReferences": {},
  "deployedLinkReferences": {}
}