{
  "_format": "hh-sol-artifact-1",
  "contractName": "ValidatorSetHbbftMock",
  "sourceName": "contracts/mockContracts/ValidatorSetHbbftMock.sol",
  "abi": [
    {
      "inputs": [],
      "name": "AnnounceBlockNumberTooOld",
      "type": "error"
    },
    {
      "inputs": [],
      "name": "CantAnnounceAvailability",
      "type": "error"
    },
    {
      "inputs": [],
      "name": "EpochNotYetzFinished",
      "type": "error"
    },
    {
      "inputs": [],
      "name": "InitialAddressesLengthMismatch",
      "type": "error"
    },
    {
      "inputs": [],
      "name": "InitialValidatorsEmpty",
      "type": "error"
    },
    {
      "inputs": [],
      "name": "InvalidAddressPair",
      "type": "error"
    },
    {
      "inputs": [],
      "name": "InvalidAnnounceBlockHash",
      "type": "error"
    },
    {
      "inputs": [],
      "name": "InvalidAnnounceBlockNumber",
      "type": "error"
    },
    {
      "inputs": [],
      "name": "InvalidInactivityThreshold",
      "type": "error"
    },
    {
      "inputs": [],
      "name": "InvalidInitialization",
      "type": "error"
    },
    {
      "inputs": [],
      "name": "InvalidPossibleValidatorCount",
      "type": "error"
    },
    {
      "inputs": [
        {
          "internalType": "address",
          "name": "_value",
          "type": "address"
        }
      ],
      "name": "MiningAddressAlreadyUsed",
      "type": "error"
    },
    {
      "inputs": [],
      "name": "NotInitializing",
      "type": "error"
    },
    {
      "inputs": [
        {
          "internalType": "address",
          "name": "owner",
          "type": "address"
        }
      ],
      "name": "OwnableInvalidOwner",
      "type": "error"
    },
    {
      "inputs": [
        {
          "internalType": "address",
          "name": "account",
          "type": "address"
        }
      ],
      "name": "OwnableUnauthorizedAccount",
      "type": "error"
    },
    {
      "inputs": [
        {
          "internalType": "address",
          "name": "_value",
          "type": "address"
        }
      ],
      "name": "StakingAddressAlreadyUsed",
      "type": "error"
    },
    {
      "inputs": [
        {
          "internalType": "address",
          "name": "_mining",
          "type": "address"
        }
      ],
      "name": "StakingPoolNotExist",
      "type": "error"
    },
    {
      "inputs": [],
      "name": "Unauthorized",
      "type": "error"
    },
    {
      "inputs": [],
      "name": "ValidatorsListEmpty",
      "type": "error"
    },
    {
      "inputs": [],
      "name": "ZeroAddress",
      "type": "error"
    },
    {
      "anonymous": false,
      "inputs": [
        {
          "indexed": false,
          "internalType": "uint64",
          "name": "version",
          "type": "uint64"
        }
      ],
      "name": "Initialized",
      "type": "event"
    },
    {
      "anonymous": false,
      "inputs": [
        {
          "indexed": true,
          "internalType": "address",
          "name": "previousOwner",
          "type": "address"
        },
        {
          "indexed": true,
          "internalType": "address",
          "name": "newOwner",
          "type": "address"
        }
      ],
      "name": "OwnershipTransferred",
      "type": "event"
    },
    {
      "anonymous": false,
      "inputs": [
        {
          "indexed": false,
          "internalType": "address",
          "name": "_address",
          "type": "address"
        }
      ],
      "name": "SetBonusScoreContract",
      "type": "event"
    },
    {
      "anonymous": false,
      "inputs": [
        {
          "indexed": false,
          "internalType": "address",
          "name": "_address",
          "type": "address"
        }
      ],
      "name": "SetConnectivityTrackerContract",
      "type": "event"
    },
    {
      "anonymous": false,
      "inputs": [
        {
          "indexed": false,
          "internalType": "uint256",
          "name": "_count",
          "type": "uint256"
        }
      ],
      "name": "SetMaxValidators",
      "type": "event"
    },
    {
      "anonymous": false,
      "inputs": [
        {
          "indexed": false,
          "internalType": "uint256",
          "name": "_value",
          "type": "uint256"
        }
      ],
      "name": "SetValidatorInactivityThreshold",
      "type": "event"
    },
    {
      "anonymous": false,
      "inputs": [
        {
          "indexed": false,
          "internalType": "address",
          "name": "validator",
          "type": "address"
        },
        {
          "indexed": false,
          "internalType": "uint256",
          "name": "timestamp",
          "type": "uint256"
        }
      ],
      "name": "ValidatorAvailable",
      "type": "event"
    },
    {
      "anonymous": false,
      "inputs": [
        {
          "indexed": false,
          "internalType": "address",
          "name": "validator",
          "type": "address"
        },
        {
          "indexed": false,
          "internalType": "uint256",
          "name": "timestamp",
          "type": "uint256"
        }
      ],
      "name": "ValidatorUnavailable",
      "type": "event"
    },
    {
      "inputs": [
        {
          "internalType": "uint256",
          "name": "_blockNumber",
          "type": "uint256"
        },
        {
          "internalType": "bytes32",
          "name": "_blockhash",
          "type": "bytes32"
        }
      ],
      "name": "announceAvailability",
      "outputs": [],
      "stateMutability": "nonpayable",
      "type": "function"
    },
    {
      "inputs": [],
      "name": "blockRewardContract",
      "outputs": [
        {
          "internalType": "address",
          "name": "",
          "type": "address"
        }
      ],
      "stateMutability": "view",
      "type": "function"
    },
    {
      "inputs": [],
      "name": "bonusScoreSystem",
      "outputs": [
        {
          "internalType": "contract IBonusScoreSystem",
          "name": "",
          "type": "address"
        }
      ],
      "stateMutability": "view",
      "type": "function"
    },
    {
      "inputs": [
        {
          "internalType": "address",
          "name": "_miningAddress",
          "type": "address"
        }
      ],
      "name": "canCallAnnounceAvailability",
      "outputs": [
        {
          "internalType": "bool",
          "name": "",
          "type": "bool"
        }
      ],
      "stateMutability": "view",
      "type": "function"
    },
    {
      "inputs": [],
      "name": "connectivityTracker",
      "outputs": [
        {
          "internalType": "address",
          "name": "",
          "type": "address"
        }
      ],
      "stateMutability": "view",
      "type": "function"
    },
    {
      "inputs": [],
      "name": "finalizeChange",
      "outputs": [],
      "stateMutability": "nonpayable",
      "type": "function"
    },
    {
      "inputs": [],
      "name": "forceFinalizeNewValidators",
      "outputs": [],
      "stateMutability": "nonpayable",
      "type": "function"
    },
    {
      "inputs": [],
      "name": "getCurrentValidatorsCount",
      "outputs": [
        {
          "internalType": "uint256",
          "name": "",
          "type": "uint256"
        }
      ],
      "stateMutability": "view",
      "type": "function"
    },
    {
      "inputs": [
        {
          "internalType": "address",
          "name": "_miningAddress",
          "type": "address"
        }
      ],
      "name": "getPendingValidatorKeyGenerationMode",
      "outputs": [
        {
          "internalType": "enum IValidatorSetHbbft.KeyGenMode",
          "name": "",
          "type": "uint8"
        }
      ],
      "stateMutability": "view",
      "type": "function"
    },
    {
      "inputs": [],
      "name": "getPendingValidators",
      "outputs": [
        {
          "internalType": "address[]",
          "name": "",
          "type": "address[]"
        }
      ],
      "stateMutability": "view",
      "type": "function"
    },
    {
      "inputs": [],
      "name": "getPreviousValidators",
      "outputs": [
        {
          "internalType": "address[]",
          "name": "",
          "type": "address[]"
        }
      ],
      "stateMutability": "view",
      "type": "function"
    },
    {
      "inputs": [
        {
          "internalType": "address",
          "name": "_miningAddress",
          "type": "address"
        }
      ],
      "name": "getPublicKey",
      "outputs": [
        {
          "internalType": "bytes",
          "name": "",
          "type": "bytes"
        }
      ],
      "stateMutability": "view",
      "type": "function"
    },
    {
      "inputs": [
        {
          "internalType": "uint256[]",
          "name": "_likelihood",
          "type": "uint256[]"
        },
        {
          "internalType": "uint256",
          "name": "_likelihoodSum",
          "type": "uint256"
        },
        {
          "internalType": "uint256",
          "name": "_randomNumber",
          "type": "uint256"
        }
      ],
      "name": "getRandomIndex",
      "outputs": [
        {
          "internalType": "uint256",
          "name": "",
          "type": "uint256"
        }
      ],
      "stateMutability": "pure",
      "type": "function"
    },
    {
      "inputs": [],
      "name": "getStakingContract",
      "outputs": [
        {
          "internalType": "address",
          "name": "",
          "type": "address"
        }
      ],
      "stateMutability": "view",
      "type": "function"
    },
    {
      "inputs": [
        {
          "internalType": "uint256",
          "name": "_possibleValidatorCount",
          "type": "uint256"
        }
      ],
      "name": "getValidatorCountSweetSpot",
      "outputs": [
        {
          "internalType": "uint256",
          "name": "",
          "type": "uint256"
        }
      ],
      "stateMutability": "pure",
      "type": "function"
    },
    {
      "inputs": [],
      "name": "getValidators",
      "outputs": [
        {
          "internalType": "address[]",
          "name": "",
          "type": "address[]"
        }
      ],
      "stateMutability": "view",
      "type": "function"
    },
    {
      "inputs": [],
      "name": "handleFailedKeyGeneration",
      "outputs": [],
      "stateMutability": "nonpayable",
      "type": "function"
    },
    {
      "inputs": [
        {
          "internalType": "address",
          "name": "_contractOwner",
          "type": "address"
        },
        {
          "components": [
            {
              "internalType": "address",
              "name": "blockRewardContract",
              "type": "address"
            },
            {
              "internalType": "address",
              "name": "randomContract",
              "type": "address"
            },
            {
              "internalType": "address",
              "name": "stakingContract",
              "type": "address"
            },
            {
              "internalType": "address",
              "name": "keyGenHistoryContract",
              "type": "address"
            },
            {
              "internalType": "address",
              "name": "bonusScoreContract",
              "type": "address"
            },
            {
              "internalType": "address",
              "name": "connectivityTrackerContract",
              "type": "address"
            },
            {
              "internalType": "uint256",
              "name": "validatorInactivityThreshold",
              "type": "uint256"
            }
          ],
          "internalType": "struct IValidatorSetHbbft.ValidatorSetParams",
          "name": "_params",
          "type": "tuple"
        },
        {
          "internalType": "address[]",
          "name": "_initialMiningAddresses",
          "type": "address[]"
        },
        {
          "internalType": "address[]",
          "name": "_initialStakingAddresses",
          "type": "address[]"
        }
      ],
      "name": "initialize",
      "outputs": [],
      "stateMutability": "nonpayable",
      "type": "function"
    },
    {
      "inputs": [],
      "name": "isFullHealth",
      "outputs": [
        {
          "internalType": "bool",
          "name": "",
          "type": "bool"
        }
      ],
      "stateMutability": "view",
      "type": "function"
    },
    {
      "inputs": [
        {
          "internalType": "address",
          "name": "_miningAddress",
          "type": "address"
        }
      ],
      "name": "isPendingValidator",
      "outputs": [
        {
          "internalType": "bool",
          "name": "",
          "type": "bool"
        }
      ],
      "stateMutability": "view",
      "type": "function"
    },
    {
      "inputs": [
        {
          "internalType": "address",
          "name": "",
          "type": "address"
        }
      ],
      "name": "isValidator",
      "outputs": [
        {
          "internalType": "bool",
          "name": "",
          "type": "bool"
        }
      ],
      "stateMutability": "view",
      "type": "function"
    },
    {
      "inputs": [
        {
          "internalType": "address",
          "name": "_stakingAddress",
          "type": "address"
        }
      ],
      "name": "isValidatorAbandoned",
      "outputs": [
        {
          "internalType": "bool",
          "name": "",
          "type": "bool"
        }
      ],
      "stateMutability": "view",
      "type": "function"
    },
    {
      "inputs": [
        {
          "internalType": "address",
          "name": "_miningAddress",
          "type": "address"
        }
      ],
      "name": "isValidatorOrPending",
      "outputs": [
        {
          "internalType": "bool",
          "name": "",
          "type": "bool"
        }
      ],
      "stateMutability": "view",
      "type": "function"
    },
    {
      "inputs": [
        {
          "internalType": "address",
          "name": "",
          "type": "address"
        }
      ],
      "name": "isValidatorPrevious",
      "outputs": [
        {
          "internalType": "bool",
          "name": "",
          "type": "bool"
        }
      ],
      "stateMutability": "view",
      "type": "function"
    },
    {
      "inputs": [],
      "name": "keyGenHistoryContract",
      "outputs": [
        {
          "internalType": "contract IKeyGenHistory",
          "name": "",
          "type": "address"
        }
      ],
      "stateMutability": "view",
      "type": "function"
    },
    {
      "inputs": [
        {
          "internalType": "address",
          "name": "_mining",
          "type": "address"
        }
      ],
      "name": "kickValidator",
      "outputs": [],
      "stateMutability": "nonpayable",
      "type": "function"
    },
    {
      "inputs": [],
      "name": "maxValidators",
      "outputs": [
        {
          "internalType": "uint256",
          "name": "",
          "type": "uint256"
        }
      ],
      "stateMutability": "view",
      "type": "function"
    },
    {
      "inputs": [
        {
          "internalType": "address",
          "name": "",
          "type": "address"
        }
      ],
      "name": "miningByStakingAddress",
      "outputs": [
        {
          "internalType": "address",
          "name": "",
          "type": "address"
        }
      ],
      "stateMutability": "view",
      "type": "function"
    },
    {
      "inputs": [],
      "name": "newValidatorSet",
      "outputs": [],
      "stateMutability": "nonpayable",
      "type": "function"
    },
    {
      "inputs": [
        {
          "internalType": "address",
          "name": "_miningAddress",
          "type": "address"
        }
      ],
      "name": "notifyUnavailability",
      "outputs": [],
      "stateMutability": "nonpayable",
      "type": "function"
    },
    {
      "inputs": [],
      "name": "owner",
      "outputs": [
        {
          "internalType": "address",
          "name": "",
          "type": "address"
        }
      ],
      "stateMutability": "view",
      "type": "function"
    },
    {
      "inputs": [
        {
          "internalType": "address",
          "name": "_stakingAddress",
          "type": "address"
        }
      ],
      "name": "publicKeyByStakingAddress",
      "outputs": [
        {
          "internalType": "bytes",
          "name": "",
          "type": "bytes"
        }
      ],
      "stateMutability": "view",
      "type": "function"
    },
    {
      "inputs": [],
      "name": "randomContract",
      "outputs": [
        {
          "internalType": "address",
          "name": "",
          "type": "address"
        }
      ],
      "stateMutability": "view",
      "type": "function"
    },
    {
      "inputs": [],
      "name": "renounceOwnership",
      "outputs": [],
      "stateMutability": "nonpayable",
      "type": "function"
    },
    {
      "inputs": [
        {
          "internalType": "address",
          "name": "_address",
          "type": "address"
        }
      ],
      "name": "setBlockRewardContract",
      "outputs": [],
      "stateMutability": "nonpayable",
      "type": "function"
    },
    {
      "inputs": [
        {
          "internalType": "address",
          "name": "_address",
          "type": "address"
        }
      ],
      "name": "setBonusScoreSystemAddress",
      "outputs": [],
      "stateMutability": "nonpayable",
      "type": "function"
    },
    {
      "inputs": [
        {
          "internalType": "address",
          "name": "_address",
          "type": "address"
        }
      ],
      "name": "setConnectivityTracker",
      "outputs": [],
      "stateMutability": "nonpayable",
      "type": "function"
    },
    {
      "inputs": [
        {
          "internalType": "address",
          "name": "_address",
          "type": "address"
        }
      ],
      "name": "setKeyGenHistoryContract",
      "outputs": [],
      "stateMutability": "nonpayable",
      "type": "function"
    },
    {
      "inputs": [
        {
          "internalType": "uint256",
          "name": "_maxValidators",
          "type": "uint256"
        }
      ],
      "name": "setMaxValidators",
      "outputs": [],
      "stateMutability": "nonpayable",
      "type": "function"
    },
    {
      "inputs": [
        {
          "internalType": "address",
          "name": "_address",
          "type": "address"
        }
      ],
      "name": "setRandomContract",
      "outputs": [],
      "stateMutability": "nonpayable",
      "type": "function"
    },
    {
      "inputs": [
        {
          "internalType": "address",
          "name": "_miningAddress",
          "type": "address"
        },
        {
          "internalType": "address",
          "name": "_stakingAddress",
          "type": "address"
        }
      ],
      "name": "setStakingAddress",
      "outputs": [],
      "stateMutability": "nonpayable",
      "type": "function"
    },
    {
      "inputs": [
        {
          "internalType": "address",
          "name": "_address",
          "type": "address"
        }
      ],
      "name": "setStakingContract",
      "outputs": [],
      "stateMutability": "nonpayable",
      "type": "function"
    },
    {
      "inputs": [
        {
          "internalType": "address",
          "name": "_validator",
          "type": "address"
        },
        {
          "internalType": "uint256",
          "name": "_timestamp",
          "type": "uint256"
        }
      ],
      "name": "setValidatorAvailableSince",
      "outputs": [],
      "stateMutability": "nonpayable",
      "type": "function"
    },
    {
      "inputs": [
        {
          "internalType": "uint256",
          "name": "_seconds",
          "type": "uint256"
        }
      ],
      "name": "setValidatorInactivityThreshold",
      "outputs": [],
      "stateMutability": "nonpayable",
      "type": "function"
    },
    {
      "inputs": [
        {
          "internalType": "bytes16",
          "name": "_ip",
          "type": "bytes16"
        },
        {
          "internalType": "bytes2",
          "name": "_port",
          "type": "bytes2"
        }
      ],
      "name": "setValidatorInternetAddress",
      "outputs": [],
      "stateMutability": "nonpayable",
      "type": "function"
    },
    {
      "inputs": [
        {
          "internalType": "uint256",
          "name": "num",
          "type": "uint256"
        }
      ],
      "name": "setValidatorsNum",
      "outputs": [],
      "stateMutability": "nonpayable",
      "type": "function"
    },
    {
      "inputs": [
        {
          "internalType": "address",
          "name": "",
          "type": "address"
        }
      ],
      "name": "stakingByMiningAddress",
      "outputs": [
        {
          "internalType": "address",
          "name": "",
          "type": "address"
        }
      ],
      "stateMutability": "view",
      "type": "function"
    },
    {
      "inputs": [],
      "name": "stakingContract",
      "outputs": [
        {
          "internalType": "contract IStakingHbbft",
          "name": "",
          "type": "address"
        }
      ],
      "stateMutability": "view",
      "type": "function"
    },
    {
      "inputs": [
        {
          "internalType": "address",
          "name": "newOwner",
          "type": "address"
        }
      ],
      "name": "transferOwnership",
      "outputs": [],
      "stateMutability": "nonpayable",
      "type": "function"
    },
    {
      "inputs": [
        {
          "internalType": "address",
          "name": "",
          "type": "address"
        }
      ],
      "name": "validatorAvailableSince",
      "outputs": [
        {
          "internalType": "uint256",
          "name": "",
          "type": "uint256"
        }
      ],
      "stateMutability": "view",
      "type": "function"
    },
    {
      "inputs": [
        {
          "internalType": "address",
          "name": "",
          "type": "address"
        }
      ],
      "name": "validatorAvailableSinceLastWrite",
      "outputs": [
        {
          "internalType": "uint256",
          "name": "",
          "type": "uint256"
        }
      ],
      "stateMutability": "view",
      "type": "function"
    },
    {
      "inputs": [
        {
          "internalType": "address",
          "name": "",
          "type": "address"
        }
      ],
      "name": "validatorCounter",
      "outputs": [
        {
          "internalType": "uint256",
          "name": "",
          "type": "uint256"
        }
      ],
      "stateMutability": "view",
      "type": "function"
    },
    {
      "inputs": [],
      "name": "validatorInactivityThreshold",
      "outputs": [
        {
          "internalType": "uint256",
          "name": "",
          "type": "uint256"
        }
      ],
      "stateMutability": "view",
      "type": "function"
    },
    {
      "stateMutability": "payable",
      "type": "receive"
    }
  ],
  "bytecode": "0x6080604052348015600f57600080fd5b506016601a565b60ca565b7ff0c57e16840df040f15088dc2f81fe391c3923bec73e23a9662efc9c229c6a00805468010000000000000000900460ff161560695760405163f92ee8a960e01b815260040160405180910390fd5b80546001600160401b039081161460c75780546001600160401b0319166001600160401b0390811782556040519081527fc7f505b2f371ae2175ee4913f4499e1f2633a7b5936321eed1cdaeb6115181d29060200160405180910390a15b50565b614019806100d96000396000f3fe60806040526004361061034d5760003560e01c8063857cdbb8116101bb578063b41832e4116100f7578063ee99205c11610095578063f2fde38b1161006f578063f2fde38b14610a77578063f51726f014610a97578063facd743b14610ab7578063fb64aac114610ae757600080fd5b8063ee99205c14610a22578063eebc7a3914610a42578063efd0494714610a5757600080fd5b8063bd0d69bc116100d1578063bd0d69bc14610978578063ccf69e9b14610998578063e6d8d318146109b8578063ed7cba62146109f557600080fd5b8063b41832e414610916578063b47aef1f14610943578063b7ab4db51461096357600080fd5b80639dd373b911610164578063a49904e51161013e578063a49904e514610898578063a68b5b76146108b1578063ac5ba7bc146108e1578063ade1900a1461090157600080fd5b80639dd373b91461081b578063a0d16cad14610858578063a42bdee91461087857600080fd5b80639881933d116101955780639881933d146107ab5780639bb2ea5a146107cb5780639d6fc1d1146107eb57600080fd5b8063857cdbb8146107235780638da5cb5b146107505780638e68dce41461078d57600080fd5b80635ccee1de1161028a578063715018a61161023357806374d8fb981161020d57806374d8fb98146106ac57806375286211146106cc57806378ff69d5146106e157806385602ad51461070157600080fd5b8063715018a614610657578063717662ee1461066c57806373eb53851461068c57600080fd5b806361e610681161026457806361e610681461060157806366955469146106215780636b949ae81461064157600080fd5b80635ccee1de146105aa5780635d5fcbce146105bf57806360e5c520146105d457600080fd5b80631ee4d0bc116102f75780633f1b5d1f116102d15780633f1b5d1f1461050f57806343bcce9f1461052457806351cc66461461054457806356b54bae1461058a57600080fd5b80631ee4d0bc1461047c57806327a3e16b146104b25780633da74fc6146104ef57600080fd5b80630a4c1072116103285780630a4c10721461040f57806314e28d901461042f5780631761edb11461045c57600080fd5b80625351751461035957806308ac5256146103ac5780630933e3a7146103d057600080fd5b3661035457005b600080fd5b34801561036557600080fd5b5061038f61037436600461386b565b6006602052600090815260409020546001600160a01b031681565b6040516001600160a01b0390911681526020015b60405180910390f35b3480156103b857600080fd5b506103c2600e5481565b6040519081526020016103a3565b3480156103dc57600080fd5b5061040d6103eb36600461386b565b600780546001600160a01b0319166001600160a01b0392909216919091179055565b005b34801561041b57600080fd5b5061040d61042a36600461388f565b610b07565b34801561043b57600080fd5b5061044f61044a36600461386b565b610b3f565b6040516103a391906138c8565b34801561046857600080fd5b506103c261047736600461395b565b610d28565b34801561048857600080fd5b5061038f61049736600461386b565b6008602052600090815260409020546001600160a01b031681565b3480156104be57600080fd5b5061040d6104cd36600461386b565b600380546001600160a01b0319166001600160a01b0392909216919091179055565b3480156104fb57600080fd5b5060105461038f906001600160a01b031681565b34801561051b57600080fd5b5061040d610d68565b34801561053057600080fd5b5061040d61053f366004613a01565b610d72565b34801561055057600080fd5b5061040d61055f366004613a23565b6001600160a01b03919091166000908152600d6020908152604080832093909355600c905220429055565b34801561059657600080fd5b5060035461038f906001600160a01b031681565b3480156105b657600080fd5b5061040d610ecc565b3480156105cb57600080fd5b506000546103c2565b3480156105e057600080fd5b506103c26105ef36600461386b565b600d6020526000908152604090205481565b34801561060d57600080fd5b5061040d61061c366004613a9b565b610f0e565b34801561062d57600080fd5b5060115461038f906001600160a01b031681565b34801561064d57600080fd5b506103c2600f5481565b34801561066357600080fd5b5061040d6112c0565b34801561067857600080fd5b5061040d61068736600461386b565b6112d2565b34801561069857600080fd5b5061040d6106a7366004613b3d565b6113d0565b3480156106b857600080fd5b5061040d6106c736600461386b565b6114c8565b3480156106d857600080fd5b5061040d6115bb565b3480156106ed57600080fd5b5061040d6106fc36600461386b565b611744565b34801561070d57600080fd5b506107166117c1565b6040516103a39190613b56565b34801561072f57600080fd5b5061074361073e36600461386b565b611823565b6040516103a39190613bc7565b34801561075c57600080fd5b507f9016d09d72d40fdae2fd8ceac6b6234c7706214fd39c1cd1e609a0528c199300546001600160a01b031661038f565b34801561079957600080fd5b506009546001600160a01b031661038f565b3480156107b757600080fd5b506107436107c636600461386b565b6118b3565b3480156107d757600080fd5b5061040d6107e6366004613b3d565b6118e6565b3480156107f757600080fd5b5061080b61080636600461386b565b611923565b60405190151581526020016103a3565b34801561082757600080fd5b5061040d61083636600461386b565b600980546001600160a01b0319166001600160a01b0392909216919091179055565b34801561086457600080fd5b5061080b61087336600461386b565b611990565b34801561088457600080fd5b5061040d610893366004613bfa565b6119bb565b3480156108a457600080fd5b50600054600e541461080b565b3480156108bd57600080fd5b5061080b6108cc36600461386b565b60056020526000908152604090205460ff1681565b3480156108ed57600080fd5b5061040d6108fc366004613b3d565b611a9f565b34801561090d57600080fd5b5061040d611b00565b34801561092257600080fd5b506103c261093136600461386b565b600b6020526000908152604090205481565b34801561094f57600080fd5b50600a5461038f906001600160a01b031681565b34801561096f57600080fd5b5061071661229b565b34801561098457600080fd5b5061040d61099336600461386b565b6122fb565b3480156109a457600080fd5b5060075461038f906001600160a01b031681565b3480156109c457600080fd5b5061040d6109d336600461386b565b600a80546001600160a01b0319166001600160a01b0392909216919091179055565b348015610a0157600080fd5b506103c2610a1036600461386b565b600c6020526000908152604090205481565b348015610a2e57600080fd5b5060095461038f906001600160a01b031681565b348015610a4e57600080fd5b50610716612378565b348015610a6357600080fd5b506103c2610a72366004613b3d565b6123d8565b348015610a8357600080fd5b5061040d610a9236600461386b565b612435565b348015610aa357600080fd5b5061080b610ab236600461386b565b612473565b348015610ac357600080fd5b5061080b610ad236600461386b565b60046020526000908152604090205460ff1681565b348015610af357600080fd5b5061080b610b0236600461386b565b6124ca565b6009546001600160a01b03163314610b31576040516282b42960e81b815260040160405180910390fd5b610b3b8282612528565b5050565b6000610b4a826124ca565b610b5657506000919050565b600a5460408051637be02c2b60e01b8152815160009384936001600160a01b0390911692637be02c2b92600480830193928290030181865afa158015610ba0573d6000803e3d6000fd5b505050506040513d601f19601f82011682018060405250810190610bc49190613c88565b60015491935091506fffffffffffffffffffffffffffffffff83161015610c7957600a546040516399de1a4360e01b81526001600160a01b03868116600483015260009216906399de1a4390602401600060405180830381865afa158015610c30573d6000803e3d6000fd5b505050506040513d6000823e601f3d908101601f19168201604052610c589190810190613cbb565b90508051600003610c6e57506001949350505050565b506002949350505050565b6001546fffffffffffffffffffffffffffffffff82161015610d1e57600a54604051631baeec3f60e31b81526001600160a01b0386811660048301529091169063dd7761f890602401602060405180830381865afa158015610cdf573d6000803e3d6000fd5b505050506040513d601f19601f82011682018060405250810190610d039190613d4f565b600003610d14575060039392505050565b5060049392505050565b5060059392505050565b6000610d60848484604051602001610d4291815260200190565b6040516020818303038152906040528051906020012060001c6126c6565b949350505050565b610d7061272f565b565b610d7b33612473565b610d985760405163a82bfa5560e01b815260040160405180910390fd5b438210610db8576040516341d852df60e01b815260040160405180910390fd5b43610dc4836010613d7e565b11610de2576040516310548f8360e01b815260040160405180910390fd5b80824014610e035760405163fe1864e160e01b815260040160405180910390fd5b336000908152600d602090815260408083204290819055600c83528184208190556009546008909352818420548251631ec56e5360e21b81526001600160a01b03918216600482015292519194931692637b15b94c926024808201939182900301818387803b158015610e7557600080fd5b505af1158015610e89573d6000803e3d6000fd5b505060408051338152602081018590527f705d65dbee06de60e6465d68371ce849d5a1ead53e53d01a413b2b01393aa022935001905060405180910390a1505050565b6003546001600160a01b03163314610ef6576040516282b42960e81b815260040160405180910390fd5b604080516000815260208101909152610d70906128d4565b7ff0c57e16840df040f15088dc2f81fe391c3923bec73e23a9662efc9c229c6a00805468010000000000000000810460ff16159067ffffffffffffffff16600081158015610f595750825b905060008267ffffffffffffffff166001148015610f765750303b155b905081158015610f84575080155b15610fa25760405163f92ee8a960e01b815260040160405180910390fd5b845467ffffffffffffffff191660011785558315610fd657845468ff00000000000000001916680100000000000000001785555b610fdf8a612fa6565b6001600160a01b038b166110065760405163d92e233d60e01b815260040160405180910390fd5b6000889003611028576040516322b8b72360e21b815260040160405180910390fd5b8786146110485760405163ac9e459360e01b815260040160405180910390fd5b6110518b613069565b61105e60208b018b61386b565b600380546001600160a01b0319166001600160a01b039290921691909117905561108e60408b0160208c0161386b565b600780546001600160a01b0319166001600160a01b03929092169190911790556110be60608b0160408c0161386b565b600980546001600160a01b0319166001600160a01b03929092169190911790556110ee60808b0160608c0161386b565b600a80546001600160a01b0319166001600160a01b039290921691909117905561111e60a08b0160808c0161386b565b601080546001600160a01b0319166001600160a01b039290921691909117905561114e60c08b0160a08c0161386b565b601180546001600160a01b0319166001600160a01b039290921691909117905560c08a0135600f5560005b888110156112625760008a8a8381811061119557611195613d91565b90506020020160208101906111aa919061386b565b60008054600180820183557f290decd9548b62a8d60345a988386fc84ba6bc95484008f6362f93160ef3e56390910180546001600160a01b0319166001600160a01b0385169081179091558252600460209081526040808420805460ff1916909317909255600b9052812080549293509061122483613da7565b9190505550611259818a8a8581811061123f5761123f613d91565b9050602002016020810190611254919061386b565b612528565b50600101611179565b506019600e5583156112b357845468ff000000000000000019168555604051600181527fc7f505b2f371ae2175ee4913f4499e1f2633a7b5936321eed1cdaeb6115181d29060200160405180910390a15b5050505050505050505050565b6112c861307a565b610d7060006130d5565b6011546001600160a01b031633146112fc576040516282b42960e81b815260040160405180910390fd5b6009546001600160a01b0382811660009081526008602052604090819020549051631dbe84a360e11b81529082166004820152911690633b7d094690602401600060405180830381600087803b15801561135557600080fd5b505af1158015611369573d6000803e3d6000fd5b505050506001600160a01b0381166000818152600d60209081526040808320839055600c82529182902042908190558251938452908301527f7ec36d1734626f8b3686f8791130187e1633c843b1995003e788cd2b33d5690391015b60405180910390a150565b6000548181101561146e576000806000815481106113f0576113f0613d91565b6000918252602090912001546001600160a01b03169050815b83811161146857600080546001810182559080527f290decd9548b62a8d60345a988386fc84ba6bc95484008f6362f93160ef3e5630180546001600160a01b0319166001600160a01b03841617905561146181613da7565b9050611409565b50505050565b81811115610b3b57805b828111156114c357600080548061149157611491613dc0565b600082815260209020810160001990810180546001600160a01b03191690550190556114bc81613dd6565b9050611478565b505050565b60008054905b818110156114c357826001600160a01b0316600082815481106114f3576114f3613d91565b6000918252602090912001546001600160a01b0316036115b357600061151a600184613ded565b8154811061152a5761152a613d91565b600091825260208220015481546001600160a01b0390911691908390811061155457611554613d91565b6000918252602082200180546001600160a01b0319166001600160a01b03939093169290921790915580548061158c5761158c613dc0565b600082815260209020810160001990810180546001600160a01b0319169055019055505050565b6001016114ce565b6003546001600160a01b031633146115e5576040516282b42960e81b815260040160405180910390fd5b600154156115fd576115f5613146565b6115fd61272f565b61160561321d565b61160d6133a1565b600960009054906101000a90046001600160a01b03166001600160a01b031663ee435f556040518163ffffffff1660e01b8152600401600060405180830381600087803b15801561165d57600080fd5b505af1158015611671573d6000803e3d6000fd5b50505050600a60009054906101000a90046001600160a01b03166001600160a01b0316632c6f194d6040518163ffffffff1660e01b8152600401600060405180830381600087803b1580156116c557600080fd5b505af11580156116d9573d6000803e3d6000fd5b50505050600160006116eb91906137d3565b600954604051638247a23960e01b81524260048201526001600160a01b0390911690638247a23990602401600060405180830381600087803b15801561173057600080fd5b505af1158015611468573d6000803e3d6000fd5b61174c61307a565b6001600160a01b0381166117735760405163d92e233d60e01b815260040160405180910390fd5b601180546001600160a01b0319166001600160a01b0383169081179091556040519081527f5e92eb268baa307ec16b695868a1baabf6cd6749fb91d07a6762f91531839593906020016113c5565b6060600280548060200260200160405190810160405280929190818152602001828054801561181957602002820191906000526020600020905b81546001600160a01b031681526001909101906020018083116117fb575b5050505050905090565b6009546001600160a01b0382811660009081526008602052604090819020549051634e9b426d60e01b815290821660048201526060929190911690634e9b426d906024015b600060405180830381865afa158015611885573d6000803e3d6000fd5b505050506040513d6000823e601f3d908101601f191682016040526118ad9190810190613cbb565b92915050565b600954604051634e9b426d60e01b81526001600160a01b0383811660048301526060921690634e9b426d90602401611868565b6118ee61307a565b600e8190556040518181527fd3c3674d241eb3fb81da09f8c56bdf72b08c8094de786997b95cde95d0ecfff5906020016113c5565b6001600160a01b03808216600090815260066020908152604080832054909316808352600d90915291812054909190156119605750600092915050565b6001600160a01b0381166000908152600c60205260408120546119839042613ded565b600f541115949350505050565b6001600160a01b03811660009081526004602052604081205460ff16806118ad57506118ad826124ca565b336000908152600860205260409020546001600160a01b0316806119f9576040516303a949c760e61b81523360048201526024015b60405180910390fd5b600954604051637b0a0f9b60e01b81526001600160a01b0383811660048301526fffffffffffffffffffffffffffffffff19861660248301527fffff0000000000000000000000000000000000000000000000000000000000008516604483015290911690637b0a0f9b906064015b600060405180830381600087803b158015611a8257600080fd5b505af1158015611a96573d6000803e3d6000fd5b50505050505050565b611aa761307a565b62093a80811015611acb57604051635d9561d360e11b815260040160405180910390fd5b600f8190556040518181527f578d5da2255dc6640f3ba0d8ce1bc20877ca696956ebe3c333a3eb8f49fb395f906020016113c5565b6003546001600160a01b03163314611b2a576040516282b42960e81b815260040160405180910390fd5b600960009054906101000a90046001600160a01b03166001600160a01b03166322e3d9866040518163ffffffff1660e01b8152600401602060405180830381865afa158015611b7d573d6000803e3d6000fd5b505050506040513d601f19601f82011682018060405250810190611ba19190613d4f565b421015611bc15760405163112bb3df60e11b815260040160405180910390fd5b600960009054906101000a90046001600160a01b03166001600160a01b031663a5d54f656040518163ffffffff1660e01b8152600401600060405180830381865afa158015611c14573d6000803e3d6000fd5b505050506040513d6000823e601f3d908101601f19168201604052611c3c9190810190613e00565b5115610d705760015415610d705760018054600091611c5a91613ded565b67ffffffffffffffff811115611c7257611c726138f0565b604051908082528060200260200182016040528015611c9b578160200160208202803683370190505b50905060008080600a60009054906101000a90046001600160a01b03166001600160a01b0316637be02c2b6040518163ffffffff1660e01b81526004016040805180830381865afa158015611cf4573d6000803e3d6000fd5b505050506040513d601f19601f82011682018060405250810190611d189190613c88565b9150915060005b60015481101561203457600060018281548110611d3e57611d3e613d91565b60009182526020822001546001546001600160a01b0390911692506fffffffffffffffffffffffffffffffff86161015611dee57600a546040516399de1a4360e01b81526001600160a01b03848116600483015260009216906399de1a4390602401600060405180830381865afa158015611dbd573d6000803e3d6000fd5b505050506040513d6000823e601f3d908101601f19168201604052611de59190810190613cbb565b51119050611e7d565b6001546fffffffffffffffffffffffffffffffff85161015611e7d57600a54604051631baeec3f60e31b81526001600160a01b038481166004830152600092169063dd7761f890602401602060405180830381865afa158015611e55573d6000803e3d6000fd5b505050506040513d601f19601f82011682018060405250810190611e799190613d4f565b1190505b8015611ef05760018381548110611e9657611e96613d91565b9060005260206000200160009054906101000a90046001600160a01b0316878781518110611ec657611ec6613d91565b6001600160a01b039092166020928302919091019091015285611ee881613da7565b96505061202a565b601054604051632bdfe5f760e11b81526001600160a01b038481166004830152909116906357bfcbee90602401600060405180830381600087803b158015611f3757600080fd5b505af1158015611f4b573d6000803e3d6000fd5b50506009546001600160a01b0385811660009081526008602052604090819020549051631dbe84a360e11b8152908216600482015291169250633b7d09469150602401600060405180830381600087803b158015611fa857600080fd5b505af1158015611fbc573d6000803e3d6000fd5b5050506001600160a01b0383166000908152600d60209081526040808320839055600c909152902042905550604080516001600160a01b03841681524260208201527f7ec36d1734626f8b3686f8791130187e1633c843b1995003e788cd2b33d56903910160405180910390a15b5050600101611d1f565b50600a54604051632f8ba4bf60e11b81526001600160a01b0390911690635f17497e9061206690600190600401613e8f565b600060405180830381600087803b15801561208057600080fd5b505af1158015612094573d6000803e3d6000fd5b50505050600a60009054906101000a90046001600160a01b03166001600160a01b031663adddc0cf6040518163ffffffff1660e01b8152600401600060405180830381600087803b1580156120e857600080fd5b505af11580156120fc573d6000803e3d6000fd5b5050505060008367ffffffffffffffff81111561211b5761211b6138f0565b604051908082528060200260200182016040528015612144578160200160208202803683370190505b50905060005b8481101561219e5785818151811061216457612164613d91565b602002602001015182828151811061217e5761217e613d91565b6001600160a01b039092166020928302919091019091015260010161214a565b50600960009054906101000a90046001600160a01b03166001600160a01b031663adddc0cf6040518163ffffffff1660e01b8152600401600060405180830381600087803b1580156121ef57600080fd5b505af1158015612203573d6000803e3d6000fd5b505050506000600960009054906101000a90046001600160a01b03166001600160a01b031663a5d54f656040518163ffffffff1660e01b8152600401600060405180830381865afa15801561225c573d6000803e3d6000fd5b505050506040513d6000823e601f3d908101601f191682016040526122849190810190613e00565b51111561229457612294816128d4565b5050505050565b60606000805480602002602001604051908101604052809291908181526020018280548015611819576020028201919060005260206000209081546001600160a01b031681526001909101906020018083116117fb575050505050905090565b61230361307a565b6001600160a01b03811661232a5760405163d92e233d60e01b815260040160405180910390fd5b601080546001600160a01b0319166001600160a01b0383169081179091556040519081527fd4244d1f8acb4860e17399636c6b7875c75656aafb5cb3d0163d7305eace7172906020016113c5565b60606001805480602002602001604051908101604052809291908181526020018280548015611819576020028201919060005260206000209081546001600160a01b031681526001909101906020018083116117fb575050505050905090565b6000816000036123fb5760405163a63671a560e01b815260040160405180910390fd5b6004821015612408575090565b6003612415600184613ded565b61241f9190613ee9565b61242a906003613efd565b6118ad906001613d7e565b61243d61307a565b6001600160a01b03811661246757604051631e4fbdf760e01b8152600060048201526024016119f0565b612470816130d5565b50565b6001600160a01b0381811660009081526008602052604081205490911661249c57506000919050565b6001600160a01b0382166000908152600d6020526040902054156124c257506000919050565b506001919050565b600154600090815b8181101561251e57600181815481106124ed576124ed613d91565b6000918252602090912001546001600160a01b0390811690851603612516575060019392505050565b6001016124d2565b5060009392505050565b6001600160a01b03821661254f5760405163d92e233d60e01b815260040160405180910390fd5b6001600160a01b0381166125765760405163d92e233d60e01b815260040160405180910390fd5b806001600160a01b0316826001600160a01b0316036125a8576040516307d9394560e01b815260040160405180910390fd5b6001600160a01b03818116600090815260066020526040902054161515806125e957506001600160a01b038181166000908152600860205260409020541615155b15612612576040516326d65e0360e21b81526001600160a01b03821660048201526024016119f0565b6001600160a01b038281166000908152600660205260409020541615158061265357506001600160a01b038281166000908152600860205260409020541615155b1561267c5760405163342ed6a360e01b81526001600160a01b03831660048201526024016119f0565b6001600160a01b0390811660008181526006602090815260408083208054959096166001600160a01b03199586168117909655948252600890529290922080549091169091179055565b6000806126d38484613f14565b90506000805b828211612719578681815181106126f2576126f2613d91565b6020026020010151826127059190613d7e565b91508061271181613da7565b9150506126d9565b612724600182613ded565b979650505050505050565b606060008080548060200260200160405190810160405280929190818152602001828054801561278857602002820191906000526020600020905b81546001600160a01b0316815260019091019060200180831161276a575b50505050509150600090505b81518110156127ef576000600460008484815181106127b5576127b5613d91565b6020908102919091018101516001600160a01b03168252810191909152604001600020805460ff1916911515919091179055600101612794565b600180546127ff916000916137f1565b50600080548060200260200160405190810160405280929190818152602001828054801561285657602002820191906000526020600020905b81546001600160a01b03168152600190910190602001808311612838575b50505050509150600090505b8151811015610b3b57600082828151811061287f5761287f613d91565b6020908102919091018101516001600160a01b0381166000908152600483526040808220805460ff19166001179055600b909352918220805491935090916128c683613da7565b909155505050600101612862565b6009546040805163a5d54f6560e01b815290516000926001600160a01b03169163a5d54f6591600480830192869291908290030181865afa15801561291d573d6000803e3d6000fd5b505050506040513d6000823e601f3d908101601f191682016040526129459190810190613e00565b90506000600e54825110158061295a57508151155b61296d5761296882516123d8565b612971565b600e545b90508082511115612dac5781516009546040805163957950a760e01b8152905160009283926001600160a01b039091169163957950a79160048082019286929091908290030181865afa1580156129cc573d6000803e3d6000fd5b505050506040513d6000823e601f3d908101601f191682016040526129f49190810190613f28565b9150915060008467ffffffffffffffff811115612a1357612a136138f0565b604051908082528060200260200182016040528015612a3c578160200160208202803683370190505b5090506000805b8851811015612bc15760005b86811015612bb857898281518110612a6957612a69613d91565b60200260200101516001600160a01b0316898281518110612a8c57612a8c613d91565b60200260200101516001600160a01b031603612bb057898281518110612ab457612ab4613d91565b6020026020010151848481518110612ace57612ace613d91565b6001600160a01b039092166020928302919091019091015282612af081613da7565b935050858181518110612b0557612b05613d91565b602002602001015185612b189190613ded565b945086612b2481613dd6565b975050888781518110612b3957612b39613d91565b6020026020010151898281518110612b5357612b53613d91565b60200260200101906001600160a01b031690816001600160a01b031681525050858781518110612b8557612b85613d91565b6020026020010151868281518110612b9f57612b9f613d91565b602002602001018181525050612bb8565b600101612a4f565b50600101612a43565b5060075460408051634191031360e11b815290516000926001600160a01b03169163832206269160048083019260209291908290030181865afa158015612c0c573d6000803e3d6000fd5b505050506040513d601f19601f82011682018060405250810190612c309190613d4f565b905060008551118015612c435750600084115b15612da15760005b8351811015612d9757604080514284186020820152016040516020818303038152906040528051906020012060001c91506000612c898787856126c6565b9050898181518110612c9d57612c9d613d91565b6020026020010151858381518110612cb757612cb7613d91565b60200260200101906001600160a01b031690816001600160a01b031681525050868181518110612ce957612ce9613d91565b602002602001015186612cfc9190613ded565b955087612d0881613dd6565b985050898881518110612d1d57612d1d613d91565b60200260200101518a8281518110612d3757612d37613d91565b60200260200101906001600160a01b031690816001600160a01b031681525050868881518110612d6957612d69613d91565b6020026020010151878281518110612d8357612d83613d91565b602090810291909101015250600101612c4b565b50612da183613501565b505050505050612db5565b612db582613501565b600a54604051632f8ba4bf60e11b81526001600160a01b0390911690635f17497e90612de690600090600401613e8f565b600060405180830381600087803b158015612e0057600080fd5b505af1158015612e14573d6000803e3d6000fd5b505050508151600014612e8a57600960009054906101000a90046001600160a01b03166001600160a01b0316631555371c6040518163ffffffff1660e01b8152600401600060405180830381600087803b158015612e7157600080fd5b505af1158015612e85573d6000803e3d6000fd5b505050505b600960009054906101000a90046001600160a01b03166001600160a01b03166322e3d9866040518163ffffffff1660e01b8152600401602060405180830381865afa158015612edd573d6000803e3d6000fd5b505050506040513d601f19601f82011682018060405250810190612f019190613d4f565b4211156114c35760095460408051631171ecc360e11b815290516001600160a01b0390921691639e72c6359183916322e3d986916004808201926020929091908290030181865afa158015612f5a573d6000803e3d6000fd5b505050506040513d601f19601f82011682018060405250810190612f7e9190613d4f565b612f889042613ded565b6040518263ffffffff1660e01b8152600401611a6891815260200190565b6000612fb5602083018361386b565b6001600160a01b03161480612fe257506000612fd7604083016020840161386b565b6001600160a01b0316145b8061300557506000612ffa606083016040840161386b565b6001600160a01b0316145b806130285750600061301d608083016060840161386b565b6001600160a01b0316145b8061304b5750600061304060a083016080840161386b565b6001600160a01b0316145b156124705760405163d92e233d60e01b815260040160405180910390fd5b61307161377d565b612470816137cb565b336130ac7f9016d09d72d40fdae2fd8ceac6b6234c7706214fd39c1cd1e609a0528c199300546001600160a01b031690565b6001600160a01b031614610d705760405163118cdaa760e01b81523360048201526024016119f0565b7f9016d09d72d40fdae2fd8ceac6b6234c7706214fd39c1cd1e609a0528c19930080546001600160a01b031981166001600160a01b03848116918217845560405192169182907f8be0079c531659141344cd1fd0a4f28419497f9722a3daafe3b4186f6b6457e090600090a3505050565b60025460005b818110156131a9576000600560006002848154811061316d5761316d613d91565b6000918252602080832091909101546001600160a01b031683528201929092526040019020805460ff191691151591909117905560010161314c565b505060008054905b8181101561320d576001600560008084815481106131d1576131d1613d91565b6000918252602080832091909101546001600160a01b031683528201929092526040019020805460ff19169115159190911790556001016131b1565b600080546114c3916002916137f1565b6009546040805163a5d54f6560e01b815290516000926001600160a01b03169163a5d54f6591600480830192869291908290030181865afa158015613266573d6000803e3d6000fd5b505050506040513d6000823e601f3d908101601f1916820160405261328e9190810190613e00565b805190915060005b818110156114c3576000600660008584815181106132b6576132b6613d91565b6020908102919091018101516001600160a01b039081168352828201939093526040918201600090812054909316808452600490915291205490915060ff168061331657506001600160a01b0381166000908152600d6020526040902054155b156133215750613399565b6010546001600160a01b038281166000818152600d6020526040908190205490516392f2944360e01b8152600481019290925260248201529116906392f2944390604401600060405180830381600087803b15801561337f57600080fd5b505af1158015613393573d6000803e3d6000fd5b50505050505b600101613296565b6009546040805163df6f55f560e01b815290516000926001600160a01b03169163df6f55f591600480830192869291908290030181865afa1580156133ea573d6000803e3d6000fd5b505050506040513d6000823e601f3d908101601f191682016040526134129190810190613e00565b805190915060005b818110156114c35760006006600085848151811061343a5761343a613d91565b6020908102919091018101516001600160a01b039081168352828201939093526040918201600090812054909316808452600d9091529120549091501561348157506134f9565b6010546001600160a01b038281166000818152600c6020526040908190205490516351150d5760e01b8152600481019290925260248201529116906351150d5790604401600060405180830381600087803b1580156134df57600080fd5b505af11580156134f3573d6000803e3d6000fd5b50505050505b60010161341a565b61350d600160006137d3565b80516000036137015760008054905b818110156136a257600080828154811061353857613538613d91565b6000918252602080832091909101546001600160a01b03908116808452600890925260409283902054600954935163a711e6a160e01b8152908216600482018190529294509192169063a711e6a190602401602060405180830381865afa1580156135a7573d6000803e3d6000fd5b505050506040513d601f19601f820116820180604052508101906135cb9190613fc1565b8015613648575060095460405162e9ab0360e81b81526001600160a01b038381166004830181905260248301529091169063e9ab030090604401602060405180830381865afa158015613622573d6000803e3d6000fd5b505050506040513d601f19601f820116820180604052508101906136469190613d4f565b155b15613698576001805480820182556000919091527fb10e2d527612073b26eecdfd717e6a320cf44b4afac2b0732d9fcbe2b7fa0cf60180546001600160a01b0319166001600160a01b0384161790555b505060010161351c565b50600154600003610b3b576001600080815481106136c2576136c2613d91565b60009182526020808320909101548354600181018555938352912090910180546001600160a01b0319166001600160a01b039092169190911790555050565b805160005b818110156114c35760016006600085848151811061372657613726613d91565b6020908102919091018101516001600160a01b0390811683528282019390935260409091016000908120548454600181810187559583529290912090910180546001600160a01b0319169190921617905501613706565b7ff0c57e16840df040f15088dc2f81fe391c3923bec73e23a9662efc9c229c6a005468010000000000000000900460ff16610d7057604051631afcd79f60e31b815260040160405180910390fd5b61243d61377d565b50805460008255906000526020600020908101906124709190613841565b8280548282559060005260206000209081019282156138315760005260206000209182015b82811115613831578254825591600101919060010190613816565b5061383d929150613841565b5090565b5b8082111561383d5760008155600101613842565b6001600160a01b038116811461247057600080fd5b60006020828403121561387d57600080fd5b813561388881613856565b9392505050565b600080604083850312156138a257600080fd5b82356138ad81613856565b915060208301356138bd81613856565b809150509250929050565b60208101600683106138ea57634e487b7160e01b600052602160045260246000fd5b91905290565b634e487b7160e01b600052604160045260246000fd5b604051601f8201601f1916810167ffffffffffffffff8111828210171561392f5761392f6138f0565b604052919050565b600067ffffffffffffffff821115613951576139516138f0565b5060051b60200190565b60008060006060848603121561397057600080fd5b833567ffffffffffffffff81111561398757600080fd5b8401601f8101861361399857600080fd5b803560206139ad6139a883613937565b613906565b82815260059290921b830181019181810190898411156139cc57600080fd5b938201935b838510156139ea578435825293820193908201906139d1565b999188013598505060409096013595945050505050565b60008060408385031215613a1457600080fd5b50508035926020909101359150565b60008060408385031215613a3657600080fd5b8235613a4181613856565b946020939093013593505050565b60008083601f840112613a6157600080fd5b50813567ffffffffffffffff811115613a7957600080fd5b6020830191508360208260051b8501011115613a9457600080fd5b9250929050565b600080600080600080868803610140811215613ab657600080fd5b8735613ac181613856565b965060e0601f1982011215613ad557600080fd5b5060208701945061010087013567ffffffffffffffff80821115613af857600080fd5b613b048a838b01613a4f565b9096509450610120890135915080821115613b1e57600080fd5b50613b2b89828a01613a4f565b979a9699509497509295939492505050565b600060208284031215613b4f57600080fd5b5035919050565b6020808252825182820181905260009190848201906040850190845b81811015613b975783516001600160a01b031683529284019291840191600101613b72565b50909695505050505050565b60005b83811015613bbe578181015183820152602001613ba6565b50506000910152565b6020815260008251806020840152613be6816040850160208701613ba3565b601f01601f19169190910160400192915050565b60008060408385031215613c0d57600080fd5b82356fffffffffffffffffffffffffffffffff1981168114613c2e57600080fd5b915060208301357fffff000000000000000000000000000000000000000000000000000000000000811681146138bd57600080fd5b80516fffffffffffffffffffffffffffffffff81168114613c8357600080fd5b919050565b60008060408385031215613c9b57600080fd5b613ca483613c63565b9150613cb260208401613c63565b90509250929050565b600060208284031215613ccd57600080fd5b815167ffffffffffffffff80821115613ce557600080fd5b818401915084601f830112613cf957600080fd5b815181811115613d0b57613d0b6138f0565b613d1e601f8201601f1916602001613906565b9150808252856020828501011115613d3557600080fd5b613d46816020840160208601613ba3565b50949350505050565b600060208284031215613d6157600080fd5b5051919050565b634e487b7160e01b600052601160045260246000fd5b808201808211156118ad576118ad613d68565b634e487b7160e01b600052603260045260246000fd5b600060018201613db957613db9613d68565b5060010190565b634e487b7160e01b600052603160045260246000fd5b600081613de557613de5613d68565b506000190190565b818103818111156118ad576118ad613d68565b60006020808385031215613e1357600080fd5b825167ffffffffffffffff811115613e2a57600080fd5b8301601f81018513613e3b57600080fd5b8051613e496139a882613937565b81815260059190911b82018301908381019087831115613e6857600080fd5b928401925b82841015612724578351613e8081613856565b82529284019290840190613e6d565b6020808252825482820181905260008481528281209092916040850190845b81811015613b975783546001600160a01b031683526001938401939285019201613eae565b634e487b7160e01b600052601260045260246000fd5b600082613ef857613ef8613ed3565b500490565b80820281158282048414176118ad576118ad613d68565b600082613f2357613f23613ed3565b500690565b60008060408385031215613f3b57600080fd5b825167ffffffffffffffff811115613f5257600080fd5b8301601f81018513613f6357600080fd5b80516020613f736139a883613937565b82815260059290921b83018101918181019088841115613f9257600080fd5b938201935b83851015613fb057845182529382019390820190613f97565b969091015195979596505050505050565b600060208284031215613fd357600080fd5b8151801515811461388857600080fdfea2646970667358221220cab023f8b02c7edae0af17ef2baad32dead4cbe000425754d766e6ff1d9f376d64736f6c63430008190033",
  "linkReferences": {},
  "deployedLinkReferences": {}
}