{
  "_format": "hh-sol-artifact-1",
  "contractName": "ValidatorSetHbbft",
  "sourceName": "contracts/ValidatorSetHbbft.sol",
  "abi": [
    {
      "inputs": [],
      "stateMutability": "nonpayable",
      "type": "constructor"
    },
    {
      "inputs": [],
      "name": "AnnounceBlockNumberTooOld",
      "type": "error"
    },
    {
      "inputs": [],
      "name": "CantAnnounceAvailability",
      "type": "error"
    },
    {
      "inputs": [],
      "name": "EpochNotYetzFinished",
      "type": "error"
    },
    {
      "inputs": [],
      "name": "InitialAddressesLengthMismatch",
      "type": "error"
    },
    {
      "inputs": [],
      "name": "InitialValidatorsEmpty",
      "type": "error"
    },
    {
      "inputs": [],
      "name": "InvalidAddressPair",
      "type": "error"
    },
    {
      "inputs": [],
      "name": "InvalidAnnounceBlockHash",
      "type": "error"
    },
    {
      "inputs": [],
      "name": "InvalidAnnounceBlockNumber",
      "type": "error"
    },
    {
      "inputs": [],
      "name": "InvalidInactivityThreshold",
      "type": "error"
    },
    {
      "inputs": [],
      "name": "InvalidInitialization",
      "type": "error"
    },
    {
      "inputs": [],
      "name": "InvalidPossibleValidatorCount",
      "type": "error"
    },
    {
      "inputs": [
        {
          "internalType": "address",
          "name": "_value",
          "type": "address"
        }
      ],
      "name": "MiningAddressAlreadyUsed",
      "type": "error"
    },
    {
      "inputs": [],
      "name": "NotInitializing",
      "type": "error"
    },
    {
      "inputs": [
        {
          "internalType": "address",
          "name": "owner",
          "type": "address"
        }
      ],
      "name": "OwnableInvalidOwner",
      "type": "error"
    },
    {
      "inputs": [
        {
          "internalType": "address",
          "name": "account",
          "type": "address"
        }
      ],
      "name": "OwnableUnauthorizedAccount",
      "type": "error"
    },
    {
      "inputs": [
        {
          "internalType": "address",
          "name": "_value",
          "type": "address"
        }
      ],
      "name": "StakingAddressAlreadyUsed",
      "type": "error"
    },
    {
      "inputs": [
        {
          "internalType": "address",
          "name": "_mining",
          "type": "address"
        }
      ],
      "name": "StakingPoolNotExist",
      "type": "error"
    },
    {
      "inputs": [],
      "name": "Unauthorized",
      "type": "error"
    },
    {
      "inputs": [],
      "name": "ValidatorsListEmpty",
      "type": "error"
    },
    {
      "inputs": [],
      "name": "ZeroAddress",
      "type": "error"
    },
    {
      "anonymous": false,
      "inputs": [
        {
          "indexed": false,
          "internalType": "uint64",
          "name": "version",
          "type": "uint64"
        }
      ],
      "name": "Initialized",
      "type": "event"
    },
    {
      "anonymous": false,
      "inputs": [
        {
          "indexed": true,
          "internalType": "address",
          "name": "previousOwner",
          "type": "address"
        },
        {
          "indexed": true,
          "internalType": "address",
          "name": "newOwner",
          "type": "address"
        }
      ],
      "name": "OwnershipTransferred",
      "type": "event"
    },
    {
      "anonymous": false,
      "inputs": [
        {
          "indexed": false,
          "internalType": "address",
          "name": "reportingValidator",
          "type": "address"
        },
        {
          "indexed": false,
          "internalType": "address",
          "name": "maliciousValidator",
          "type": "address"
        },
        {
          "indexed": false,
          "internalType": "uint256",
          "name": "blockNumber",
          "type": "uint256"
        }
      ],
      "name": "ReportedMalicious",
      "type": "event"
    },
    {
      "anonymous": false,
      "inputs": [
        {
          "indexed": false,
          "internalType": "uint256",
          "name": "_value",
          "type": "uint256"
        }
      ],
      "name": "SetBanDuration",
      "type": "event"
    },
    {
      "anonymous": false,
      "inputs": [
        {
          "indexed": false,
          "internalType": "uint256",
          "name": "_count",
          "type": "uint256"
        }
      ],
      "name": "SetMaxValidators",
      "type": "event"
    },
    {
      "anonymous": false,
      "inputs": [
        {
          "indexed": false,
          "internalType": "uint256",
          "name": "_value",
          "type": "uint256"
        }
      ],
      "name": "SetValidatorInactivityThreshold",
      "type": "event"
    },
    {
      "anonymous": false,
      "inputs": [
        {
          "indexed": false,
          "internalType": "address",
          "name": "validator",
          "type": "address"
        },
        {
          "indexed": false,
          "internalType": "uint256",
          "name": "timestamp",
          "type": "uint256"
        }
      ],
      "name": "ValidatorAvailable",
      "type": "event"
    },
    {
      "anonymous": false,
      "inputs": [
        {
          "indexed": false,
          "internalType": "address",
          "name": "validator",
          "type": "address"
        },
        {
          "indexed": false,
          "internalType": "uint256",
          "name": "timestamp",
          "type": "uint256"
        }
      ],
      "name": "ValidatorUnavailable",
      "type": "event"
    },
    {
      "inputs": [
        {
          "internalType": "uint256",
          "name": "_blockNumber",
          "type": "uint256"
        },
        {
          "internalType": "bytes32",
          "name": "_blockhash",
          "type": "bytes32"
        }
      ],
      "name": "announceAvailability",
      "outputs": [],
      "stateMutability": "nonpayable",
      "type": "function"
    },
    {
      "inputs": [
        {
          "internalType": "address",
          "name": "_miningAddress",
          "type": "address"
        }
      ],
      "name": "areDelegatorsBanned",
      "outputs": [
        {
          "internalType": "bool",
          "name": "",
          "type": "bool"
        }
      ],
      "stateMutability": "view",
      "type": "function"
    },
    {
      "inputs": [
        {
          "internalType": "address",
          "name": "",
          "type": "address"
        }
      ],
      "name": "banCounter",
      "outputs": [
        {
          "internalType": "uint256",
          "name": "",
          "type": "uint256"
        }
      ],
      "stateMutability": "view",
      "type": "function"
    },
    {
      "inputs": [],
      "name": "banDuration",
      "outputs": [
        {
          "internalType": "uint256",
          "name": "",
          "type": "uint256"
        }
      ],
      "stateMutability": "view",
      "type": "function"
    },
    {
      "inputs": [
        {
          "internalType": "address",
          "name": "",
          "type": "address"
        }
      ],
      "name": "banReason",
      "outputs": [
        {
          "internalType": "bytes32",
          "name": "",
          "type": "bytes32"
        }
      ],
      "stateMutability": "view",
      "type": "function"
    },
    {
      "inputs": [
        {
          "internalType": "address",
          "name": "",
          "type": "address"
        }
      ],
      "name": "bannedDelegatorsUntil",
      "outputs": [
        {
          "internalType": "uint256",
          "name": "",
          "type": "uint256"
        }
      ],
      "stateMutability": "view",
      "type": "function"
    },
    {
      "inputs": [
        {
          "internalType": "address",
          "name": "",
          "type": "address"
        }
      ],
      "name": "bannedUntil",
      "outputs": [
        {
          "internalType": "uint256",
          "name": "",
          "type": "uint256"
        }
      ],
      "stateMutability": "view",
      "type": "function"
    },
    {
      "inputs": [],
      "name": "blockRewardContract",
      "outputs": [
        {
          "internalType": "address",
          "name": "",
          "type": "address"
        }
      ],
      "stateMutability": "view",
      "type": "function"
    },
    {
      "inputs": [
        {
          "internalType": "address",
          "name": "_miningAddress",
          "type": "address"
        }
      ],
      "name": "canCallAnnounceAvailability",
      "outputs": [
        {
          "internalType": "bool",
          "name": "",
          "type": "bool"
        }
      ],
      "stateMutability": "view",
      "type": "function"
    },
    {
      "inputs": [],
      "name": "finalizeChange",
      "outputs": [],
      "stateMutability": "nonpayable",
      "type": "function"
    },
    {
      "inputs": [],
      "name": "getCurrentValidatorsCount",
      "outputs": [
        {
          "internalType": "uint256",
          "name": "",
          "type": "uint256"
        }
      ],
      "stateMutability": "view",
      "type": "function"
    },
    {
      "inputs": [
        {
          "internalType": "address",
          "name": "_miningAddress",
          "type": "address"
        }
      ],
      "name": "getPendingValidatorKeyGenerationMode",
      "outputs": [
        {
          "internalType": "enum IValidatorSetHbbft.KeyGenMode",
          "name": "",
          "type": "uint8"
        }
      ],
      "stateMutability": "view",
      "type": "function"
    },
    {
      "inputs": [],
      "name": "getPendingValidators",
      "outputs": [
        {
          "internalType": "address[]",
          "name": "",
          "type": "address[]"
        }
      ],
      "stateMutability": "view",
      "type": "function"
    },
    {
      "inputs": [],
      "name": "getPreviousValidators",
      "outputs": [
        {
          "internalType": "address[]",
          "name": "",
          "type": "address[]"
        }
      ],
      "stateMutability": "view",
      "type": "function"
    },
    {
      "inputs": [
        {
          "internalType": "address",
          "name": "_miningAddress",
          "type": "address"
        }
      ],
      "name": "getPublicKey",
      "outputs": [
        {
          "internalType": "bytes",
          "name": "",
          "type": "bytes"
        }
      ],
      "stateMutability": "view",
      "type": "function"
    },
    {
      "inputs": [],
      "name": "getStakingContract",
      "outputs": [
        {
          "internalType": "address",
          "name": "",
          "type": "address"
        }
      ],
      "stateMutability": "view",
      "type": "function"
    },
    {
      "inputs": [
        {
          "internalType": "uint256",
          "name": "_possibleValidatorCount",
          "type": "uint256"
        }
      ],
      "name": "getValidatorCountSweetSpot",
      "outputs": [
        {
          "internalType": "uint256",
          "name": "",
          "type": "uint256"
        }
      ],
      "stateMutability": "pure",
      "type": "function"
    },
    {
      "inputs": [],
      "name": "getValidators",
      "outputs": [
        {
          "internalType": "address[]",
          "name": "",
          "type": "address[]"
        }
      ],
      "stateMutability": "view",
      "type": "function"
    },
    {
      "inputs": [],
      "name": "handleFailedKeyGeneration",
      "outputs": [],
      "stateMutability": "nonpayable",
      "type": "function"
    },
    {
      "inputs": [
        {
          "internalType": "address",
          "name": "_contractOwner",
          "type": "address"
        },
        {
          "internalType": "address",
          "name": "_blockRewardContract",
          "type": "address"
        },
        {
          "internalType": "address",
          "name": "_randomContract",
          "type": "address"
        },
        {
          "internalType": "address",
          "name": "_stakingContract",
          "type": "address"
        },
        {
          "internalType": "address",
          "name": "_keyGenHistoryContract",
          "type": "address"
        },
        {
          "internalType": "uint256",
          "name": "_validatorInactivityThreshold",
          "type": "uint256"
        },
        {
          "internalType": "address[]",
          "name": "_initialMiningAddresses",
          "type": "address[]"
        },
        {
          "internalType": "address[]",
          "name": "_initialStakingAddresses",
          "type": "address[]"
        }
      ],
      "name": "initialize",
      "outputs": [],
      "stateMutability": "nonpayable",
      "type": "function"
    },
    {
      "inputs": [],
      "name": "isFullHealth",
      "outputs": [
        {
          "internalType": "bool",
          "name": "",
          "type": "bool"
        }
      ],
      "stateMutability": "view",
      "type": "function"
    },
    {
      "inputs": [
        {
          "internalType": "address",
          "name": "_miningAddress",
          "type": "address"
        }
      ],
      "name": "isPendingValidator",
      "outputs": [
        {
          "internalType": "bool",
          "name": "",
          "type": "bool"
        }
      ],
      "stateMutability": "view",
      "type": "function"
    },
    {
      "inputs": [
        {
          "internalType": "address",
          "name": "_miningAddress",
          "type": "address"
        }
      ],
      "name": "isReportValidatorValid",
      "outputs": [
        {
          "internalType": "bool",
          "name": "",
          "type": "bool"
        }
      ],
      "stateMutability": "view",
      "type": "function"
    },
    {
      "inputs": [
        {
          "internalType": "address",
          "name": "",
          "type": "address"
        }
      ],
      "name": "isValidator",
      "outputs": [
        {
          "internalType": "bool",
          "name": "",
          "type": "bool"
        }
      ],
      "stateMutability": "view",
      "type": "function"
    },
    {
      "inputs": [
        {
          "internalType": "address",
          "name": "_stakingAddress",
          "type": "address"
        }
      ],
      "name": "isValidatorAbandoned",
      "outputs": [
        {
          "internalType": "bool",
          "name": "",
          "type": "bool"
        }
      ],
      "stateMutability": "view",
      "type": "function"
    },
    {
      "inputs": [
        {
          "internalType": "address",
          "name": "_miningAddress",
          "type": "address"
        }
      ],
      "name": "isValidatorBanned",
      "outputs": [
        {
          "internalType": "bool",
          "name": "",
          "type": "bool"
        }
      ],
      "stateMutability": "view",
      "type": "function"
    },
    {
      "inputs": [
        {
          "internalType": "address",
          "name": "_miningAddress",
          "type": "address"
        }
      ],
      "name": "isValidatorOrPending",
      "outputs": [
        {
          "internalType": "bool",
          "name": "",
          "type": "bool"
        }
      ],
      "stateMutability": "view",
      "type": "function"
    },
    {
      "inputs": [
        {
          "internalType": "address",
          "name": "",
          "type": "address"
        }
      ],
      "name": "isValidatorPrevious",
      "outputs": [
        {
          "internalType": "bool",
          "name": "",
          "type": "bool"
        }
      ],
      "stateMutability": "view",
      "type": "function"
    },
    {
      "inputs": [],
      "name": "keyGenHistoryContract",
      "outputs": [
        {
          "internalType": "contract IKeyGenHistory",
          "name": "",
          "type": "address"
        }
      ],
      "stateMutability": "view",
      "type": "function"
    },
    {
      "inputs": [
        {
          "internalType": "address",
          "name": "_miningAddress",
          "type": "address"
        },
        {
          "internalType": "uint256",
          "name": "_blockNumber",
          "type": "uint256"
        }
      ],
      "name": "maliceReportedForBlock",
      "outputs": [
        {
          "internalType": "address[]",
          "name": "",
          "type": "address[]"
        }
      ],
      "stateMutability": "view",
      "type": "function"
    },
    {
      "inputs": [],
      "name": "maxValidators",
      "outputs": [
        {
          "internalType": "uint256",
          "name": "",
          "type": "uint256"
        }
      ],
      "stateMutability": "view",
      "type": "function"
    },
    {
      "inputs": [
        {
          "internalType": "address",
          "name": "",
          "type": "address"
        }
      ],
      "name": "miningByStakingAddress",
      "outputs": [
        {
          "internalType": "address",
          "name": "",
          "type": "address"
        }
      ],
      "stateMutability": "view",
      "type": "function"
    },
    {
      "inputs": [],
      "name": "newValidatorSet",
      "outputs": [],
      "stateMutability": "nonpayable",
      "type": "function"
    },
    {
      "inputs": [
        {
          "internalType": "address",
          "name": "_stakingAddress",
          "type": "address"
        }
      ],
      "name": "notifyUnavailability",
      "outputs": [],
      "stateMutability": "nonpayable",
      "type": "function"
    },
    {
      "inputs": [],
      "name": "owner",
      "outputs": [
        {
          "internalType": "address",
          "name": "",
          "type": "address"
        }
      ],
      "stateMutability": "view",
      "type": "function"
    },
    {
      "inputs": [
        {
          "internalType": "address",
          "name": "_stakingAddress",
          "type": "address"
        }
      ],
      "name": "publicKeyByStakingAddress",
      "outputs": [
        {
          "internalType": "bytes",
          "name": "",
          "type": "bytes"
        }
      ],
      "stateMutability": "view",
      "type": "function"
    },
    {
      "inputs": [],
      "name": "randomContract",
      "outputs": [
        {
          "internalType": "address",
          "name": "",
          "type": "address"
        }
      ],
      "stateMutability": "view",
      "type": "function"
    },
    {
      "inputs": [
        {
          "internalType": "address[]",
          "name": "_miningAddresses",
          "type": "address[]"
        }
      ],
      "name": "removeMaliciousValidators",
      "outputs": [],
      "stateMutability": "nonpayable",
      "type": "function"
    },
    {
      "inputs": [],
      "name": "renounceOwnership",
      "outputs": [],
      "stateMutability": "nonpayable",
      "type": "function"
    },
    {
      "inputs": [
        {
          "internalType": "address",
          "name": "_maliciousMiningAddress",
          "type": "address"
        },
        {
          "internalType": "uint256",
          "name": "_blockNumber",
          "type": "uint256"
        },
        {
          "internalType": "bytes",
          "name": "",
          "type": "bytes"
        }
      ],
      "name": "reportMalicious",
      "outputs": [],
      "stateMutability": "nonpayable",
      "type": "function"
    },
    {
      "inputs": [
        {
          "internalType": "address",
          "name": "_reportingMiningAddress",
          "type": "address"
        },
        {
          "internalType": "address",
          "name": "_maliciousMiningAddress",
          "type": "address"
        },
        {
          "internalType": "uint256",
          "name": "_blockNumber",
          "type": "uint256"
        }
      ],
      "name": "reportMaliciousCallable",
      "outputs": [
        {
          "internalType": "bool",
          "name": "callable",
          "type": "bool"
        },
        {
          "internalType": "bool",
          "name": "removeReportingValidator",
          "type": "bool"
        }
      ],
      "stateMutability": "view",
      "type": "function"
    },
    {
      "inputs": [
        {
          "internalType": "address",
          "name": "",
          "type": "address"
        },
        {
          "internalType": "uint256",
          "name": "",
          "type": "uint256"
        }
      ],
      "name": "reportingCounter",
      "outputs": [
        {
          "internalType": "uint256",
          "name": "",
          "type": "uint256"
        }
      ],
      "stateMutability": "view",
      "type": "function"
    },
    {
      "inputs": [
        {
          "internalType": "uint256",
          "name": "",
          "type": "uint256"
        }
      ],
      "name": "reportingCounterTotal",
      "outputs": [
        {
          "internalType": "uint256",
          "name": "",
          "type": "uint256"
        }
      ],
      "stateMutability": "view",
      "type": "function"
    },
    {
      "inputs": [
        {
          "internalType": "uint256",
          "name": "_banDuration",
          "type": "uint256"
        }
      ],
      "name": "setBanDuration",
      "outputs": [],
      "stateMutability": "nonpayable",
      "type": "function"
    },
    {
      "inputs": [
        {
          "internalType": "uint256",
          "name": "_maxValidators",
          "type": "uint256"
        }
      ],
      "name": "setMaxValidators",
      "outputs": [],
      "stateMutability": "nonpayable",
      "type": "function"
    },
    {
      "inputs": [
        {
          "internalType": "address",
          "name": "_miningAddress",
          "type": "address"
        },
        {
          "internalType": "address",
          "name": "_stakingAddress",
          "type": "address"
        }
      ],
      "name": "setStakingAddress",
      "outputs": [],
      "stateMutability": "nonpayable",
      "type": "function"
    },
    {
      "inputs": [
        {
          "internalType": "uint256",
          "name": "_seconds",
          "type": "uint256"
        }
      ],
      "name": "setValidatorInactivityThreshold",
      "outputs": [],
      "stateMutability": "nonpayable",
      "type": "function"
    },
    {
      "inputs": [
        {
          "internalType": "bytes16",
          "name": "_ip",
          "type": "bytes16"
        },
        {
          "internalType": "bytes2",
          "name": "_port",
          "type": "bytes2"
        }
      ],
      "name": "setValidatorInternetAddress",
      "outputs": [],
      "stateMutability": "nonpayable",
      "type": "function"
    },
    {
      "inputs": [
        {
          "internalType": "address",
          "name": "",
          "type": "address"
        }
      ],
      "name": "stakingByMiningAddress",
      "outputs": [
        {
          "internalType": "address",
          "name": "",
          "type": "address"
        }
      ],
      "stateMutability": "view",
      "type": "function"
    },
    {
      "inputs": [],
      "name": "stakingContract",
      "outputs": [
        {
          "internalType": "contract IStakingHbbft",
          "name": "",
          "type": "address"
        }
      ],
      "stateMutability": "view",
      "type": "function"
    },
    {
      "inputs": [
        {
          "internalType": "address",
          "name": "newOwner",
          "type": "address"
        }
      ],
      "name": "transferOwnership",
      "outputs": [],
      "stateMutability": "nonpayable",
      "type": "function"
    },
    {
      "inputs": [
        {
          "internalType": "address",
          "name": "",
          "type": "address"
        }
      ],
      "name": "validatorAvailableSince",
      "outputs": [
        {
          "internalType": "uint256",
          "name": "",
          "type": "uint256"
        }
      ],
      "stateMutability": "view",
      "type": "function"
    },
    {
      "inputs": [
        {
          "internalType": "address",
          "name": "",
          "type": "address"
        }
      ],
      "name": "validatorAvailableSinceLastWrite",
      "outputs": [
        {
          "internalType": "uint256",
          "name": "",
          "type": "uint256"
        }
      ],
      "stateMutability": "view",
      "type": "function"
    },
    {
      "inputs": [
        {
          "internalType": "address",
          "name": "",
          "type": "address"
        }
      ],
      "name": "validatorCounter",
      "outputs": [
        {
          "internalType": "uint256",
          "name": "",
          "type": "uint256"
        }
      ],
      "stateMutability": "view",
      "type": "function"
    },
    {
      "inputs": [],
      "name": "validatorInactivityThreshold",
      "outputs": [
        {
          "internalType": "uint256",
          "name": "",
          "type": "uint256"
        }
      ],
      "stateMutability": "view",
      "type": "function"
    }
  ],
  "bytecode": "0x6080604052348015600f57600080fd5b506016601a565b60ca565b7ff0c57e16840df040f15088dc2f81fe391c3923bec73e23a9662efc9c229c6a00805468010000000000000000900460ff161560695760405163f92ee8a960e01b815260040160405180910390fd5b80546001600160401b039081161460c75780546001600160401b0319166001600160401b0390811782556040519081527fc7f505b2f371ae2175ee4913f4499e1f2633a7b5936321eed1cdaeb6115181d29060200160405180910390a15b50565b61431f806100d96000396000f3fe608060405234801561001057600080fd5b506004361061036c5760003560e01c80639881933d116101d3578063b56b366b11610104578063ee99205c116100a2578063f2fde38b1161007c578063f2fde38b1461083c578063f51726f01461084f578063facd743b14610862578063fb64aac11461088557600080fd5b8063ee99205c1461080e578063eebc7a3914610821578063efd049471461082957600080fd5b8063c9e9694d116100de578063c9e9694d1461079b578063ccf69e9b146107bb578063d2dd2f16146107ce578063ed7cba62146107ee57600080fd5b8063b56b366b1461076d578063b7ab4db514610780578063c476dd401461078857600080fd5b8063a68b5b7611610171578063ac5ba7bc1161014b578063ac5ba7bc1461071f578063ade1900a14610732578063b41832e41461073a578063b47aef1f1461075a57600080fd5b8063a68b5b76146106a4578063a881c5fd146106c7578063a92252ae146106f357600080fd5b8063a0d16cad116101ad578063a0d16cad1461064d578063a42bdee914610660578063a49904e514610673578063a670eb561461067a57600080fd5b80639881933d146106145780639bb2ea5a146106275780639d6fc1d11461063a57600080fd5b8063581e93d9116102ad578063717662ee1161024b578063857cdbb811610225578063857cdbb81461059057806387eed76a146105b05780638da5cb5b146105d35780638e68dce41461060357600080fd5b8063717662ee14610560578063752862111461057357806385602ad51461057b57600080fd5b80635d5fcbce116102875780635d5fcbce1461052757806360e5c5201461052f5780636b949ae81461054f578063715018a61461055857600080fd5b8063581e93d9146104ec5780635836d08a146104ff5780635ccee1de1461051f57600080fd5b80631d0cd4c61161031a578063426d3cd6116102f4578063426d3cd6146104aa57806343bcce9f146104b3578063464b5610146104c657806356b54bae146104d957600080fd5b80631d0cd4c6146104365780631ee4d0bc146104565780633755243b1461047f57600080fd5b80630a4c10721161034b5780630a4c1072146103e357806314e28d90146103f65780631a7fa2371461041657600080fd5b8062535175146103715780630636bdac146103b757806308ac5256146103cc575b600080fd5b61039a61037f366004613ace565b600b602052600090815260409020546001600160a01b031681565b6040516001600160a01b0390911681526020015b60405180910390f35b6103ca6103c5366004613b3e565b610898565b005b6103d560155481565b6040519081526020016103ae565b6103ca6103f1366004613b80565b61092d565b610409610404366004613ace565b610961565b6040516103ae9190613bb9565b6103d5610424366004613ace565b60066020526000908152604090205481565b6103d5610444366004613ace565b60046020526000908152604090205481565b61039a610464366004613ace565b600f602052600090815260409020546001600160a01b031681565b6103d561048d366004613be1565b600d60209081526000928352604080842090915290825290205481565b6103d560165481565b6103ca6104c1366004613c0d565b610b4a565b6103ca6104d4366004613c2f565b610cba565b60085461039a906001600160a01b031681565b6103ca6104fa366004613d09565b611034565b6103d561050d366004613ace565b60056020526000908152604090205481565b6103ca611078565b6000546103d5565b6103d561053d366004613ace565b60146020526000908152604090205481565b6103d560175481565b6103ca6110bc565b6103ca61056e366004613ace565b6110ce565b6103ca611131565b6105836112b0565b6040516103ae9190613d22565b6105a361059e366004613ace565b611312565b6040516103ae9190613d93565b6105c36105be366004613ace565b6113a2565b60405190151581526020016103ae565b7f9016d09d72d40fdae2fd8ceac6b6234c7706214fd39c1cd1e609a0528c199300546001600160a01b031661039a565b6010546001600160a01b031661039a565b6105a3610622366004613ace565b611594565b6103ca610635366004613d09565b6115c7565b6105c3610648366004613ace565b611604565b6105c361065b366004613ace565b611671565b6103ca61066e366004613dc6565b61169c565b60016105c3565b61068d610688366004613e2f565b611780565b6040805192151583529015156020830152016103ae565b6105c36106b2366004613ace565b600a6020526000908152604090205460ff1681565b6105c36106d5366004613ace565b6001600160a01b031660009081526006602052604090205442111590565b6105c3610701366004613ace565b6001600160a01b031660009081526005602052604090205442111590565b6103ca61072d366004613d09565b6119a1565b6103ca611a02565b6103d5610748366004613ace565b60126020526000908152604090205481565b60115461039a906001600160a01b031681565b61058361077b366004613be1565b61213e565b6105836121bd565b6103ca610796366004613e70565b61221d565b6103d56107a9366004613ace565b60076020526000908152604090205481565b600c5461039a906001600160a01b031681565b6103d56107dc366004613d09565b600e6020526000908152604090205481565b6103d56107fc366004613ace565b60136020526000908152604090205481565b60105461039a906001600160a01b031681565b610583612414565b6103d5610837366004613d09565b612474565b6103ca61084a366004613ace565b6124d1565b6105c361085d366004613ace565b61250c565b6105c3610870366004613ace565b60096020526000908152604090205460ff1681565b6105c3610893366004613ace565b612563565b3373fffffffffffffffffffffffffffffffffffffffe146108cb576040516282b42960e81b815260040160405180910390fd5b6109298282808060200260200160405190810160405280939291908181526020018383602002808284376000920191909152507f696e61637469766500000000000000000000000000000000000000000000000092506125c1915050565b5050565b6010546001600160a01b03163314610957576040516282b42960e81b815260040160405180910390fd5b6109298282612624565b600061096c82612563565b61097857506000919050565b60115460408051637be02c2b60e01b8152815160009384936001600160a01b0390911692637be02c2b92600480830193928290030181865afa1580156109c2573d6000803e3d6000fd5b505050506040513d601f19601f820116820180604052508101906109e69190613f1e565b60015491935091506fffffffffffffffffffffffffffffffff83161015610a9b576011546040516399de1a4360e01b81526001600160a01b03868116600483015260009216906399de1a4390602401600060405180830381865afa158015610a52573d6000803e3d6000fd5b505050506040513d6000823e601f3d908101601f19168201604052610a7a9190810190613f98565b90508051600003610a9057506001949350505050565b506002949350505050565b6001546fffffffffffffffffffffffffffffffff82161015610b4057601154604051631baeec3f60e31b81526001600160a01b0386811660048301529091169063dd7761f890602401602060405180830381865afa158015610b01573d6000803e3d6000fd5b505050506040513d601f19601f82011682018060405250810190610b25919061402c565b600003610b36575060039392505050565b5060049392505050565b5060059392505050565b610b533361250c565b610b705760405163a82bfa5560e01b815260040160405180910390fd5b438210610b90576040516341d852df60e01b815260040160405180910390fd5b43610b9c83601061405b565b11610bba576040516310548f8360e01b815260040160405180910390fd5b80824014610bdb5760405163fe1864e160e01b815260040160405180910390fd5b336000908152601460209081526040808320429081905560138352818420819055600590925290912054811115610c7c57601054336000908152600f602052604090819020549051631ec56e5360e21b81526001600160a01b039182166004820152911690637b15b94c90602401600060405180830381600087803b158015610c6357600080fd5b505af1158015610c77573d6000803e3d6000fd5b505050505b60408051338152602081018390527f705d65dbee06de60e6465d68371ce849d5a1ead53e53d01a413b2b01393aa022910160405180910390a1505050565b7ff0c57e16840df040f15088dc2f81fe391c3923bec73e23a9662efc9c229c6a00805468010000000000000000810460ff16159067ffffffffffffffff16600081158015610d055750825b905060008267ffffffffffffffff166001148015610d225750303b155b905081158015610d30575080155b15610d4e5760405163f92ee8a960e01b815260040160405180910390fd5b845467ffffffffffffffff191660011785558315610d8257845468ff00000000000000001916680100000000000000001785555b6001600160a01b038f161580610d9f57506001600160a01b038e16155b80610db157506001600160a01b038d16155b80610dc357506001600160a01b038c16155b80610dd557506001600160a01b038b16155b15610df35760405163d92e233d60e01b815260040160405180910390fd5b6000889003610e15576040516322b8b72360e21b815260040160405180910390fd5b878614610e355760405163ac9e459360e01b815260040160405180910390fd5b610e3e8f6127c2565b8d600860006101000a8154816001600160a01b0302191690836001600160a01b031602179055508c600c60006101000a8154816001600160a01b0302191690836001600160a01b031602179055508b601060006101000a8154816001600160a01b0302191690836001600160a01b031602179055508a601160006101000a8154816001600160a01b0302191690836001600160a01b031602179055508960178190555060005b88811015610fcd5760008a8a83818110610f0057610f0061406e565b9050602002016020810190610f159190613ace565b60008054600180820183557f290decd9548b62a8d60345a988386fc84ba6bc95484008f6362f93160ef3e56390910180546001600160a01b0319166001600160a01b0385169081179091558252600960209081526040808420805460ff1916909317909255601290528120805492935090610f8f83614084565b9190505550610fc4818a8a85818110610faa57610faa61406e565b9050602002016020810190610fbf9190613ace565b612624565b50600101610ee4565b506019601555600c601655831561102357845468ff000000000000000019168555604051600181527fc7f505b2f371ae2175ee4913f4499e1f2633a7b5936321eed1cdaeb6115181d29060200160405180910390a15b505050505050505050505050505050565b61103c6127d3565b60168190556040518181527fd96fea9b050464a608f3e2c09daa82bf1d666bc65655bf9f24b576ad5efc6f6f906020015b60405180910390a150565b6008546001600160a01b031633146110a2576040516282b42960e81b815260040160405180910390fd5b6040805160008152602081019091526110ba9061282e565b565b6110c46127d3565b6110ba6000612f00565b6010546001600160a01b031633146110f8576040516282b42960e81b815260040160405180910390fd5b6001600160a01b039081166000908152600b60209081526040808320549093168252601481528282208290556013905220429055565b50565b6008546001600160a01b0316331461115b576040516282b42960e81b815260040160405180910390fd5b600154156111735761116b612f71565b611173613048565b601060009054906101000a90046001600160a01b03166001600160a01b031663ee435f556040518163ffffffff1660e01b8152600401600060405180830381600087803b1580156111c357600080fd5b505af11580156111d7573d6000803e3d6000fd5b50505050601160009054906101000a90046001600160a01b03166001600160a01b0316632c6f194d6040518163ffffffff1660e01b8152600401600060405180830381600087803b15801561122b57600080fd5b505af115801561123f573d6000803e3d6000fd5b50505050600160006112519190613a36565b601054604051638247a23960e01b81524260048201526001600160a01b0390911690638247a23990602401600060405180830381600087803b15801561129657600080fd5b505af11580156112aa573d6000803e3d6000fd5b50505050565b6060600280548060200260200160405190810160405280929190818152602001828054801561130857602002820191906000526020600020905b81546001600160a01b031681526001909101906020018083116112ea575b5050505050905090565b6010546001600160a01b038281166000908152600f602052604090819020549051634e9b426d60e01b815290821660048201526060929190911690634e9b426d906024015b600060405180830381865afa158015611374573d6000803e3d6000fd5b505050506040513d6000823e601f3d908101601f1916820160405261139c9190810190613f98565b92915050565b6001600160a01b038116600090815260096020526040812054819060ff1680156113e357506001600160a01b03831660009081526005602052604090205442115b9050601060009054906101000a90046001600160a01b03166001600160a01b031663794c0c686040518163ffffffff1660e01b8152600401602060405180830381865afa158015611438573d6000803e3d6000fd5b505050506040513d601f19601f8201168201806040525081019061145c919061402c565b6000036114695792915050565b60105460408051634f9a8d8f60e01b815290516005926001600160a01b031691634f9a8d8f9160048083019260209291908290030181865afa1580156114b3573d6000803e3d6000fd5b505050506040513d601f19601f820116820180604052508101906114d7919061402c565b6114e191906140b3565b601060009054906101000a90046001600160a01b03166001600160a01b0316639b03d7446040518163ffffffff1660e01b8152600401602060405180830381865afa158015611534573d6000803e3d6000fd5b505050506040513d601f19601f82011682018060405250810190611558919061402c565b61156290426140c7565b1161139c576001600160a01b0383166000908152600a602052604090205460ff16818061158c5750805b949350505050565b601054604051634e9b426d60e01b81526001600160a01b0383811660048301526060921690634e9b426d90602401611357565b6115cf6127d3565b60158190556040518181527fd3c3674d241eb3fb81da09f8c56bdf72b08c8094de786997b95cde95d0ecfff59060200161106d565b6001600160a01b038082166000908152600b6020908152604080832054909316808352601490915291812054909190156116415750600092915050565b6001600160a01b03811660009081526013602052604081205461166490426140c7565b6017541115949350505050565b6001600160a01b03811660009081526009602052604081205460ff168061139c575061139c82612563565b336000908152600f60205260409020546001600160a01b0316806116da576040516303a949c760e61b81523360048201526024015b60405180910390fd5b601054604051637b0a0f9b60e01b81526001600160a01b0383811660048301526fffffffffffffffffffffffffffffffff19861660248301527fffff0000000000000000000000000000000000000000000000000000000000008516604483015290911690637b0a0f9b906064015b600060405180830381600087803b15801561176357600080fd5b505af1158015611777573d6000803e3d6000fd5b50505050505050565b60008061178c856113a2565b61179b57506000905080611999565b6117a4846113a2565b6117b357506000905080611999565b60005460018111156118c65760105460408051630f29818d60e31b815290516000926001600160a01b03169163794c0c689160048083019260209291908290030181865afa158015611809573d6000803e3d6000fd5b505050506040513d601f19601f8201168201806040525081019061182d919061402c565b6001600160a01b0388166000908152600d60209081526040808320848452825280832054600e9092528220549293509190828210611892576118706001866140c7565b61187a84846140c7565b61188590600a6140da565b61188f91906140b3565b90505b61189d8560326140da565b831180156118aa57508083115b156118c15760006001965096505050505050611999565b505050505b43808511156118dd57600080935093505050611999565b606480821180156118f657506118f381836140c7565b86105b1561190a5760008094509450505050611999565b6001600160a01b03871660009081526003602090815260408083208984529091528120805490915b8181101561198a578a6001600160a01b03168382815481106119565761195661406e565b6000918252602090912001546001600160a01b0316036119825760008097509750505050505050611999565b600101611932565b50600160009650965050505050505b935093915050565b6119a96127d3565b62093a808110156119cd57604051635d9561d360e11b815260040160405180910390fd5b60178190556040518181527f578d5da2255dc6640f3ba0d8ce1bc20877ca696956ebe3c333a3eb8f49fb395f9060200161106d565b6008546001600160a01b03163314611a2c576040516282b42960e81b815260040160405180910390fd5b601060009054906101000a90046001600160a01b03166001600160a01b03166322e3d9866040518163ffffffff1660e01b8152600401602060405180830381865afa158015611a7f573d6000803e3d6000fd5b505050506040513d601f19601f82011682018060405250810190611aa3919061402c565b421015611ac35760405163112bb3df60e11b815260040160405180910390fd5b601060009054906101000a90046001600160a01b03166001600160a01b031663a5d54f656040518163ffffffff1660e01b8152600401600060405180830381865afa158015611b16573d6000803e3d6000fd5b505050506040513d6000823e601f3d908101601f19168201604052611b3e9190810190614115565b51156110ba57600154156110ba5760018054600091611b5c916140c7565b67ffffffffffffffff811115611b7457611b74613f51565b604051908082528060200260200182016040528015611b9d578160200160208202803683370190505b50905060008080601160009054906101000a90046001600160a01b03166001600160a01b0316637be02c2b6040518163ffffffff1660e01b81526004016040805180830381865afa158015611bf6573d6000803e3d6000fd5b505050506040513d601f19601f82011682018060405250810190611c1a9190613f1e565b9150915060005b600154811015611ed757600060018281548110611c4057611c4061406e565b60009182526020822001546001546001600160a01b0390911692506fffffffffffffffffffffffffffffffff86161015611cf0576011546040516399de1a4360e01b81526001600160a01b03848116600483015260009216906399de1a4390602401600060405180830381865afa158015611cbf573d6000803e3d6000fd5b505050506040513d6000823e601f3d908101601f19168201604052611ce79190810190613f98565b51119050611d7f565b6001546fffffffffffffffffffffffffffffffff85161015611d7f57601154604051631baeec3f60e31b81526001600160a01b038481166004830152600092169063dd7761f890602401602060405180830381865afa158015611d57573d6000803e3d6000fd5b505050506040513d601f19601f82011682018060405250810190611d7b919061402c565b1190505b8015611df25760018381548110611d9857611d9861406e565b9060005260206000200160009054906101000a90046001600160a01b0316878781518110611dc857611dc861406e565b6001600160a01b039092166020928302919091019091015285611dea81614084565b965050611ecd565b6010546001600160a01b038381166000908152600f602052604090819020549051631dbe84a360e11b81529082166004820152911690633b7d094690602401600060405180830381600087803b158015611e4b57600080fd5b505af1158015611e5f573d6000803e3d6000fd5b5050506001600160a01b03831660009081526014602090815260408083208390556013909152902042905550604080516001600160a01b03841681524260208201527f7ec36d1734626f8b3686f8791130187e1633c843b1995003e788cd2b33d56903910160405180910390a15b5050600101611c21565b50601154604051632f8ba4bf60e11b81526001600160a01b0390911690635f17497e90611f09906001906004016141a9565b600060405180830381600087803b158015611f2357600080fd5b505af1158015611f37573d6000803e3d6000fd5b50505050601160009054906101000a90046001600160a01b03166001600160a01b031663adddc0cf6040518163ffffffff1660e01b8152600401600060405180830381600087803b158015611f8b57600080fd5b505af1158015611f9f573d6000803e3d6000fd5b5050505060008367ffffffffffffffff811115611fbe57611fbe613f51565b604051908082528060200260200182016040528015611fe7578160200160208202803683370190505b50905060005b84811015612041578581815181106120075761200761406e565b60200260200101518282815181106120215761202161406e565b6001600160a01b0390921660209283029190910190910152600101611fed565b50601060009054906101000a90046001600160a01b03166001600160a01b031663adddc0cf6040518163ffffffff1660e01b8152600401600060405180830381600087803b15801561209257600080fd5b505af11580156120a6573d6000803e3d6000fd5b505050506000601060009054906101000a90046001600160a01b03166001600160a01b031663a5d54f656040518163ffffffff1660e01b8152600401600060405180830381865afa1580156120ff573d6000803e3d6000fd5b505050506040513d6000823e601f3d908101601f191682016040526121279190810190614115565b511115612137576121378161282e565b5050505050565b6001600160a01b03821660009081526003602090815260408083208484528252918290208054835181840281018401909452808452606093928301828280156121b057602002820191906000526020600020905b81546001600160a01b03168152600190910190602001808311612192575b5050505050905092915050565b60606000805480602002602001604051908101604052809291908181526020018280548015611308576020028201919060005260206000209081546001600160a01b031681526001909101906020018083116112ea575050505050905090565b33612227816131ed565b600080612235838888611780565b91509150816122b55780156122ad5760408051600180825281830190925260009160208083019080368337019050509050838160008151811061227a5761227a61406e565b60200260200101906001600160a01b031690816001600160a01b0316815250506122ab81637370616d60e01b6125c1565b505b5050506112aa565b6001600160a01b0387811660008181526003602090815260408083208b8452825280832080546001810182558185529383902090930180546001600160a01b0319169589169586179055805194855290840192909252908201889052907f729a19138e072a5a8d3a56d74ae0b5c84530f09aacd6e12b24c5b2fdc3f8a3d09060600160405180910390a16000805490600382111561236d576123588260026140da565b83546123659060036140da565b119050612380565b8254829061237c9060026140da565b1190505b801561240857604080516001808252818301909252600091602080830190803683370190505090508a816000815181106123bc576123bc61406e565b60200260200101906001600160a01b031690816001600160a01b031681525050612406817f6d616c6963696f757300000000000000000000000000000000000000000000006125c1565b505b50505050505050505050565b60606001805480602002602001604051908101604052809291908181526020018280548015611308576020028201919060005260206000209081546001600160a01b031681526001909101906020018083116112ea575050505050905090565b6000816000036124975760405163a63671a560e01b815260040160405180910390fd5b60048210156124a4575090565b60036124b16001846140c7565b6124bb91906140b3565b6124c69060036140da565b61139c90600161405b565b6124d96127d3565b6001600160a01b03811661250357604051631e4fbdf760e01b8152600060048201526024016116d1565b61112e81612f00565b6001600160a01b038181166000908152600f602052604081205490911661253557506000919050565b6001600160a01b0382166000908152601460205260409020541561255b57506000919050565b506001919050565b600154600090815b818110156125b757600181815481106125865761258661406e565b6000918252602090912001546001600160a01b03908116908516036125af575060019392505050565b60010161256b565b5060009392505050565b60005b825181101561261f576125f08382815181106125e2576125e261406e565b6020026020010151836132c5565b156126175761261783828151811061260a5761260a61406e565b60200260200101516134f4565b6001016125c4565b505050565b6001600160a01b03821661264b5760405163d92e233d60e01b815260040160405180910390fd5b6001600160a01b0381166126725760405163d92e233d60e01b815260040160405180910390fd5b806001600160a01b0316826001600160a01b0316036126a4576040516307d9394560e01b815260040160405180910390fd5b6001600160a01b038181166000908152600b6020526040902054161515806126e557506001600160a01b038181166000908152600f60205260409020541615155b1561270e576040516326d65e0360e21b81526001600160a01b03821660048201526024016116d1565b6001600160a01b038281166000908152600b60205260409020541615158061274f57506001600160a01b038281166000908152600f60205260409020541615155b156127785760405163342ed6a360e01b81526001600160a01b03831660048201526024016116d1565b6001600160a01b039081166000818152600b602090815260408083208054959096166001600160a01b03199586168117909655948252600f90529290922080549091169091179055565b6127ca6135db565b61112e81613629565b336128057f9016d09d72d40fdae2fd8ceac6b6234c7706214fd39c1cd1e609a0528c199300546001600160a01b031690565b6001600160a01b0316146110ba5760405163118cdaa760e01b81523360048201526024016116d1565b6010546040805163a5d54f6560e01b815290516000926001600160a01b03169163a5d54f6591600480830192869291908290030181865afa158015612877573d6000803e3d6000fd5b505050506040513d6000823e601f3d908101601f1916820160405261289f9190810190614115565b9050600060155482511015806128b457508151155b6128c7576128c28251612474565b6128cb565b6015545b90508082511115612d065781516010546040805163957950a760e01b8152905160009283926001600160a01b039091169163957950a79160048082019286929091908290030181865afa158015612926573d6000803e3d6000fd5b505050506040513d6000823e601f3d908101601f1916820160405261294e91908101906141ed565b9150915060008467ffffffffffffffff81111561296d5761296d613f51565b604051908082528060200260200182016040528015612996578160200160208202803683370190505b5090506000805b8851811015612b1b5760005b86811015612b12578982815181106129c3576129c361406e565b60200260200101516001600160a01b03168982815181106129e6576129e661406e565b60200260200101516001600160a01b031603612b0a57898281518110612a0e57612a0e61406e565b6020026020010151848481518110612a2857612a2861406e565b6001600160a01b039092166020928302919091019091015282612a4a81614084565b935050858181518110612a5f57612a5f61406e565b602002602001015185612a7291906140c7565b945086612a7e81614286565b975050888781518110612a9357612a9361406e565b6020026020010151898281518110612aad57612aad61406e565b60200260200101906001600160a01b031690816001600160a01b031681525050858781518110612adf57612adf61406e565b6020026020010151868281518110612af957612af961406e565b602002602001018181525050612b12565b6001016129a9565b5060010161299d565b50600c5460408051634191031360e11b815290516000926001600160a01b03169163832206269160048083019260209291908290030181865afa158015612b66573d6000803e3d6000fd5b505050506040513d601f19601f82011682018060405250810190612b8a919061402c565b905060008551118015612b9d5750600084115b15612cfb5760005b8351811015612cf157604080514284186020820152016040516020818303038152906040528051906020012060001c91506000612be3878785613631565b9050898181518110612bf757612bf761406e565b6020026020010151858381518110612c1157612c1161406e565b60200260200101906001600160a01b031690816001600160a01b031681525050868181518110612c4357612c4361406e565b602002602001015186612c5691906140c7565b955087612c6281614286565b985050898881518110612c7757612c7761406e565b60200260200101518a8281518110612c9157612c9161406e565b60200260200101906001600160a01b031690816001600160a01b031681525050868881518110612cc357612cc361406e565b6020026020010151878281518110612cdd57612cdd61406e565b602090810291909101015250600101612ba5565b50612cfb8361369a565b505050505050612d0f565b612d0f8261369a565b601154604051632f8ba4bf60e11b81526001600160a01b0390911690635f17497e90612d40906000906004016141a9565b600060405180830381600087803b158015612d5a57600080fd5b505af1158015612d6e573d6000803e3d6000fd5b505050508151600014612de457601060009054906101000a90046001600160a01b03166001600160a01b0316631555371c6040518163ffffffff1660e01b8152600401600060405180830381600087803b158015612dcb57600080fd5b505af1158015612ddf573d6000803e3d6000fd5b505050505b601060009054906101000a90046001600160a01b03166001600160a01b03166322e3d9866040518163ffffffff1660e01b8152600401602060405180830381865afa158015612e37573d6000803e3d6000fd5b505050506040513d601f19601f82011682018060405250810190612e5b919061402c565b42111561261f5760105460408051631171ecc360e11b815290516001600160a01b0390921691639e72c6359183916322e3d986916004808201926020929091908290030181865afa158015612eb4573d6000803e3d6000fd5b505050506040513d601f19601f82011682018060405250810190612ed8919061402c565b612ee290426140c7565b6040518263ffffffff1660e01b815260040161174991815260200190565b7f9016d09d72d40fdae2fd8ceac6b6234c7706214fd39c1cd1e609a0528c19930080546001600160a01b031981166001600160a01b03848116918217845560405192169182907f8be0079c531659141344cd1fd0a4f28419497f9722a3daafe3b4186f6b6457e090600090a3505050565b60025460005b81811015612fd4576000600a600060028481548110612f9857612f9861406e565b6000918252602080832091909101546001600160a01b031683528201929092526040019020805460ff1916911515919091179055600101612f77565b505060008054905b81811015613038576001600a6000808481548110612ffc57612ffc61406e565b6000918252602080832091909101546001600160a01b031683528201929092526040019020805460ff1916911515919091179055600101612fdc565b6000805461261f91600291613a54565b60606000808054806020026020016040519081016040528092919081815260200182805480156130a157602002820191906000526020600020905b81546001600160a01b03168152600190910190602001808311613083575b50505050509150600090505b8151811015613108576000600960008484815181106130ce576130ce61406e565b6020908102919091018101516001600160a01b03168252810191909152604001600020805460ff19169115159190911790556001016130ad565b6001805461311891600091613a54565b50600080548060200260200160405190810160405280929190818152602001828054801561316f57602002820191906000526020600020905b81546001600160a01b03168152600190910190602001808311613151575b50505050509150600090505b81518110156109295760008282815181106131985761319861406e565b6020908102919091018101516001600160a01b0381166000908152600983526040808220805460ff191660011790556012909352918220805491935090916131df83614084565b90915550505060010161317b565b6131f6816113a2565b6131fd5750565b60105460408051630f29818d60e31b815290516000926001600160a01b03169163794c0c689160048083019260209291908290030181865afa158015613247573d6000803e3d6000fd5b505050506040513d601f19601f8201168201806040525081019061326b919061402c565b6001600160a01b0383166000908152600d60209081526040808320848452909152812080549293509061329d83614084565b90915550506000818152600e602052604081208054916132bc83614084565b91905055505050565b6001600160a01b038216600090815260056020526040812054421115816132ea613916565b6001600160a01b038616600090815260046020526040812080549293509061331183614084565b90915550506001600160a01b038516600090815260056020908152604080832084905560079091529020849055811561334f5760009250505061139c565b6001600160a01b038581166000908152600660209081526040808320859055600f90915290819020546010549151631dbe84a360e11b815290831660048201819052929190911690633b7d094690602401600060405180830381600087803b1580156133ba57600080fd5b505af11580156133ce573d6000803e3d6000fd5b505060005491505060018190036133ec57600094505050505061139c565b60005b818110156134e657876001600160a01b0316600082815481106134145761341461406e565b6000918252602090912001546001600160a01b0316036134de57600061343b6001846140c7565b8154811061344b5761344b61406e565b600091825260208220015481546001600160a01b039091169190839081106134755761347561406e565b6000918252602082200180546001600160a01b0319166001600160a01b0393909316929092179091558054806134ad576134ad61429d565b600082815260209020810160001990810180546001600160a01b0319169055019055506001945061139c9350505050565b6001016133ef565b506000979650505050505050565b60105460408051630f29818d60e31b815290516000926001600160a01b03169163794c0c689160048083019260209291908290030181865afa15801561353e573d6000803e3d6000fd5b505050506040513d601f19601f82011682018060405250810190613562919061402c565b6000818152600e60209081526040808320546001600160a01b0387168452600d8352818420858552909252822080549290559192508082106135c7576000838152600e6020526040812080548392906135bc9084906140c7565b909155506112aa9050565b50506000908152600e602052604081205550565b7ff0c57e16840df040f15088dc2f81fe391c3923bec73e23a9662efc9c229c6a005468010000000000000000900460ff166110ba57604051631afcd79f60e31b815260040160405180910390fd5b6124d96135db565b60008061363e84846142b3565b90506000805b8282116136845786818151811061365d5761365d61406e565b602002602001015182613670919061405b565b91508061367c81614084565b915050613644565b61368f6001826140c7565b979650505050505050565b6136a660016000613a36565b805160000361389a5760008054905b8181101561383b5760008082815481106136d1576136d161406e565b6000918252602080832091909101546001600160a01b03908116808452600f90925260409283902054601054935163a711e6a160e01b8152908216600482018190529294509192169063a711e6a190602401602060405180830381865afa158015613740573d6000803e3d6000fd5b505050506040513d601f19601f8201168201806040525081019061376491906142c7565b80156137e1575060105460405162e9ab0360e81b81526001600160a01b038381166004830181905260248301529091169063e9ab030090604401602060405180830381865afa1580156137bb573d6000803e3d6000fd5b505050506040513d601f19601f820116820180604052508101906137df919061402c565b155b15613831576001805480820182556000919091527fb10e2d527612073b26eecdfd717e6a320cf44b4afac2b0732d9fcbe2b7fa0cf60180546001600160a01b0319166001600160a01b0384161790555b50506001016136b5565b506001546000036109295760016000808154811061385b5761385b61406e565b60009182526020808320909101548354600181018555938352912090910180546001600160a01b0319166001600160a01b039092169190911790555050565b805160005b8181101561261f576001600b60008584815181106138bf576138bf61406e565b6020908102919091018101516001600160a01b0390811683528282019390935260409091016000908120548454600181810187559583529290912090910180546001600160a01b031916919092161790550161389f565b60105460408051631171ecc360e11b815290516000924292849284926001600160a01b0316916322e3d9869160048083019260209291908290030181865afa158015613966573d6000803e3d6000fd5b505050506040513d601f19601f8201168201806040525081019061398a919061402c565b61399491906140c7565b905080601060009054906101000a90046001600160a01b03166001600160a01b0316634f9a8d8f6040518163ffffffff1660e01b8152600401602060405180830381865afa1580156139ea573d6000803e3d6000fd5b505050506040513d601f19601f82011682018060405250810190613a0e919061402c565b601654613a1b91906140da565b613a25908461405b565b613a2f919061405b565b9250505090565b508054600082559060005260206000209081019061112e9190613aa4565b828054828255906000526020600020908101928215613a945760005260206000209182015b82811115613a94578254825591600101919060010190613a79565b50613aa0929150613aa4565b5090565b5b80821115613aa05760008155600101613aa5565b6001600160a01b038116811461112e57600080fd5b600060208284031215613ae057600080fd5b8135613aeb81613ab9565b9392505050565b60008083601f840112613b0457600080fd5b50813567ffffffffffffffff811115613b1c57600080fd5b6020830191508360208260051b8501011115613b3757600080fd5b9250929050565b60008060208385031215613b5157600080fd5b823567ffffffffffffffff811115613b6857600080fd5b613b7485828601613af2565b90969095509350505050565b60008060408385031215613b9357600080fd5b8235613b9e81613ab9565b91506020830135613bae81613ab9565b809150509250929050565b6020810160068310613bdb57634e487b7160e01b600052602160045260246000fd5b91905290565b60008060408385031215613bf457600080fd5b8235613bff81613ab9565b946020939093013593505050565b60008060408385031215613c2057600080fd5b50508035926020909101359150565b6000806000806000806000806000806101008b8d031215613c4f57600080fd5b8a35613c5a81613ab9565b995060208b0135613c6a81613ab9565b985060408b0135613c7a81613ab9565b975060608b0135613c8a81613ab9565b965060808b0135613c9a81613ab9565b955060a08b0135945060c08b013567ffffffffffffffff80821115613cbe57600080fd5b613cca8e838f01613af2565b909650945060e08d0135915080821115613ce357600080fd5b50613cf08d828e01613af2565b915080935050809150509295989b9194979a5092959850565b600060208284031215613d1b57600080fd5b5035919050565b6020808252825182820181905260009190848201906040850190845b81811015613d635783516001600160a01b031683529284019291840191600101613d3e565b50909695505050505050565b60005b83811015613d8a578181015183820152602001613d72565b50506000910152565b6020815260008251806020840152613db2816040850160208701613d6f565b601f01601f19169190910160400192915050565b60008060408385031215613dd957600080fd5b82356fffffffffffffffffffffffffffffffff1981168114613dfa57600080fd5b915060208301357fffff00000000000000000000000000000000000000000000000000000000000081168114613bae57600080fd5b600080600060608486031215613e4457600080fd5b8335613e4f81613ab9565b92506020840135613e5f81613ab9565b929592945050506040919091013590565b60008060008060608587031215613e8657600080fd5b8435613e9181613ab9565b935060208501359250604085013567ffffffffffffffff80821115613eb557600080fd5b818701915087601f830112613ec957600080fd5b813581811115613ed857600080fd5b886020828501011115613eea57600080fd5b95989497505060200194505050565b80516fffffffffffffffffffffffffffffffff81168114613f1957600080fd5b919050565b60008060408385031215613f3157600080fd5b613f3a83613ef9565b9150613f4860208401613ef9565b90509250929050565b634e487b7160e01b600052604160045260246000fd5b604051601f8201601f1916810167ffffffffffffffff81118282101715613f9057613f90613f51565b604052919050565b600060208284031215613faa57600080fd5b815167ffffffffffffffff80821115613fc257600080fd5b818401915084601f830112613fd657600080fd5b815181811115613fe857613fe8613f51565b613ffb601f8201601f1916602001613f67565b915080825285602082850101111561401257600080fd5b614023816020840160208601613d6f565b50949350505050565b60006020828403121561403e57600080fd5b5051919050565b634e487b7160e01b600052601160045260246000fd5b8082018082111561139c5761139c614045565b634e487b7160e01b600052603260045260246000fd5b60006001820161409657614096614045565b5060010190565b634e487b7160e01b600052601260045260246000fd5b6000826140c2576140c261409d565b500490565b8181038181111561139c5761139c614045565b808202811582820484141761139c5761139c614045565b600067ffffffffffffffff82111561410b5761410b613f51565b5060051b60200190565b6000602080838503121561412857600080fd5b825167ffffffffffffffff81111561413f57600080fd5b8301601f8101851361415057600080fd5b805161416361415e826140f1565b613f67565b81815260059190911b8201830190838101908783111561418257600080fd5b928401925b8284101561368f57835161419a81613ab9565b82529284019290840190614187565b6020808252825482820181905260008481528281209092916040850190845b81811015613d635783546001600160a01b0316835260019384019392850192016141c8565b6000806040838503121561420057600080fd5b825167ffffffffffffffff81111561421757600080fd5b8301601f8101851361422857600080fd5b8051602061423861415e836140f1565b82815260059290921b8301810191818101908884111561425757600080fd5b938201935b838510156142755784518252938201939082019061425c565b969091015195979596505050505050565b60008161429557614295614045565b506000190190565b634e487b7160e01b600052603160045260246000fd5b6000826142c2576142c261409d565b500690565b6000602082840312156142d957600080fd5b81518015158114613aeb57600080fdfea2646970667358221220b2fe486778605c15e8e126930c6053dcef1340bd28d7acca8847e9de92c7f01664736f6c63430008190033",
  "linkReferences": {},
  "deployedLinkReferences": {}
}