{
  "_format": "hh-sol-artifact-1",
  "contractName": "ValidatorSetHbbft",
  "sourceName": "contracts/ValidatorSetHbbft.sol",
  "abi": [
    {
      "inputs": [],
      "stateMutability": "nonpayable",
      "type": "constructor"
    },
    {
      "inputs": [],
      "name": "AnnounceBlockNumberTooOld",
      "type": "error"
    },
    {
      "inputs": [],
      "name": "CantAnnounceAvailability",
      "type": "error"
    },
    {
      "inputs": [],
      "name": "EpochNotYetzFinished",
      "type": "error"
    },
    {
      "inputs": [],
      "name": "InitialAddressesLengthMismatch",
      "type": "error"
    },
    {
      "inputs": [],
      "name": "InitialValidatorsEmpty",
      "type": "error"
    },
    {
      "inputs": [],
      "name": "InvalidAddressPair",
      "type": "error"
    },
    {
      "inputs": [],
      "name": "InvalidAnnounceBlockHash",
      "type": "error"
    },
    {
      "inputs": [],
      "name": "InvalidAnnounceBlockNumber",
      "type": "error"
    },
    {
      "inputs": [],
      "name": "InvalidInactivityThreshold",
      "type": "error"
    },
    {
      "inputs": [],
      "name": "InvalidInitialization",
      "type": "error"
    },
    {
      "inputs": [],
      "name": "InvalidPossibleValidatorCount",
      "type": "error"
    },
    {
      "inputs": [
        {
          "internalType": "address",
          "name": "_value",
          "type": "address"
        }
      ],
      "name": "MiningAddressAlreadyUsed",
      "type": "error"
    },
    {
      "inputs": [],
      "name": "NotInitializing",
      "type": "error"
    },
    {
      "inputs": [
        {
          "internalType": "address",
          "name": "owner",
          "type": "address"
        }
      ],
      "name": "OwnableInvalidOwner",
      "type": "error"
    },
    {
      "inputs": [
        {
          "internalType": "address",
          "name": "account",
          "type": "address"
        }
      ],
      "name": "OwnableUnauthorizedAccount",
      "type": "error"
    },
    {
      "inputs": [
        {
          "internalType": "address",
          "name": "_value",
          "type": "address"
        }
      ],
      "name": "StakingAddressAlreadyUsed",
      "type": "error"
    },
    {
      "inputs": [
        {
          "internalType": "address",
          "name": "_mining",
          "type": "address"
        }
      ],
      "name": "StakingPoolNotExist",
      "type": "error"
    },
    {
      "inputs": [],
      "name": "Unauthorized",
      "type": "error"
    },
    {
      "inputs": [],
      "name": "ValidatorsListEmpty",
      "type": "error"
    },
    {
      "inputs": [],
      "name": "ZeroAddress",
      "type": "error"
    },
    {
      "anonymous": false,
      "inputs": [
        {
          "indexed": false,
          "internalType": "uint64",
          "name": "version",
          "type": "uint64"
        }
      ],
      "name": "Initialized",
      "type": "event"
    },
    {
      "anonymous": false,
      "inputs": [
        {
          "indexed": true,
          "internalType": "address",
          "name": "previousOwner",
          "type": "address"
        },
        {
          "indexed": true,
          "internalType": "address",
          "name": "newOwner",
          "type": "address"
        }
      ],
      "name": "OwnershipTransferred",
      "type": "event"
    },
    {
      "anonymous": false,
      "inputs": [
        {
          "indexed": false,
          "internalType": "address",
          "name": "_address",
          "type": "address"
        }
      ],
      "name": "SetBonusScoreContract",
      "type": "event"
    },
    {
      "anonymous": false,
      "inputs": [
        {
          "indexed": false,
          "internalType": "uint256",
          "name": "_count",
          "type": "uint256"
        }
      ],
      "name": "SetMaxValidators",
      "type": "event"
    },
    {
      "anonymous": false,
      "inputs": [
        {
          "indexed": false,
          "internalType": "uint256",
          "name": "_value",
          "type": "uint256"
        }
      ],
      "name": "SetValidatorInactivityThreshold",
      "type": "event"
    },
    {
      "anonymous": false,
      "inputs": [
        {
          "indexed": false,
          "internalType": "address",
          "name": "validator",
          "type": "address"
        },
        {
          "indexed": false,
          "internalType": "uint256",
          "name": "timestamp",
          "type": "uint256"
        }
      ],
      "name": "ValidatorAvailable",
      "type": "event"
    },
    {
      "anonymous": false,
      "inputs": [
        {
          "indexed": false,
          "internalType": "address",
          "name": "validator",
          "type": "address"
        },
        {
          "indexed": false,
          "internalType": "uint256",
          "name": "timestamp",
          "type": "uint256"
        }
      ],
      "name": "ValidatorUnavailable",
      "type": "event"
    },
    {
      "inputs": [
        {
          "internalType": "address",
          "name": "",
          "type": "address"
        }
      ],
      "name": "_unused2",
      "outputs": [
        {
          "internalType": "uint256",
          "name": "",
          "type": "uint256"
        }
      ],
      "stateMutability": "view",
      "type": "function"
    },
    {
      "inputs": [
        {
          "internalType": "address",
          "name": "",
          "type": "address"
        }
      ],
      "name": "_unused3",
      "outputs": [
        {
          "internalType": "uint256",
          "name": "",
          "type": "uint256"
        }
      ],
      "stateMutability": "view",
      "type": "function"
    },
    {
      "inputs": [
        {
          "internalType": "address",
          "name": "",
          "type": "address"
        }
      ],
      "name": "_unused4",
      "outputs": [
        {
          "internalType": "uint256",
          "name": "",
          "type": "uint256"
        }
      ],
      "stateMutability": "view",
      "type": "function"
    },
    {
      "inputs": [
        {
          "internalType": "address",
          "name": "",
          "type": "address"
        }
      ],
      "name": "_unused5",
      "outputs": [
        {
          "internalType": "bytes32",
          "name": "",
          "type": "bytes32"
        }
      ],
      "stateMutability": "view",
      "type": "function"
    },
    {
      "inputs": [
        {
          "internalType": "address",
          "name": "",
          "type": "address"
        },
        {
          "internalType": "uint256",
          "name": "",
          "type": "uint256"
        }
      ],
      "name": "_unused6",
      "outputs": [
        {
          "internalType": "uint256",
          "name": "",
          "type": "uint256"
        }
      ],
      "stateMutability": "view",
      "type": "function"
    },
    {
      "inputs": [
        {
          "internalType": "uint256",
          "name": "",
          "type": "uint256"
        }
      ],
      "name": "_unused7",
      "outputs": [
        {
          "internalType": "uint256",
          "name": "",
          "type": "uint256"
        }
      ],
      "stateMutability": "view",
      "type": "function"
    },
    {
      "inputs": [],
      "name": "_unused8",
      "outputs": [
        {
          "internalType": "uint256",
          "name": "",
          "type": "uint256"
        }
      ],
      "stateMutability": "view",
      "type": "function"
    },
    {
      "inputs": [
        {
          "internalType": "uint256",
          "name": "_blockNumber",
          "type": "uint256"
        },
        {
          "internalType": "bytes32",
          "name": "_blockhash",
          "type": "bytes32"
        }
      ],
      "name": "announceAvailability",
      "outputs": [],
      "stateMutability": "nonpayable",
      "type": "function"
    },
    {
      "inputs": [],
      "name": "blockRewardContract",
      "outputs": [
        {
          "internalType": "address",
          "name": "",
          "type": "address"
        }
      ],
      "stateMutability": "view",
      "type": "function"
    },
    {
      "inputs": [],
      "name": "bonusScoreSystem",
      "outputs": [
        {
          "internalType": "contract IBonusScoreSystem",
          "name": "",
          "type": "address"
        }
      ],
      "stateMutability": "view",
      "type": "function"
    },
    {
      "inputs": [
        {
          "internalType": "address",
          "name": "_miningAddress",
          "type": "address"
        }
      ],
      "name": "canCallAnnounceAvailability",
      "outputs": [
        {
          "internalType": "bool",
          "name": "",
          "type": "bool"
        }
      ],
      "stateMutability": "view",
      "type": "function"
    },
    {
      "inputs": [],
      "name": "finalizeChange",
      "outputs": [],
      "stateMutability": "nonpayable",
      "type": "function"
    },
    {
      "inputs": [],
      "name": "getCurrentValidatorsCount",
      "outputs": [
        {
          "internalType": "uint256",
          "name": "",
          "type": "uint256"
        }
      ],
      "stateMutability": "view",
      "type": "function"
    },
    {
      "inputs": [
        {
          "internalType": "address",
          "name": "_miningAddress",
          "type": "address"
        }
      ],
      "name": "getPendingValidatorKeyGenerationMode",
      "outputs": [
        {
          "internalType": "enum IValidatorSetHbbft.KeyGenMode",
          "name": "",
          "type": "uint8"
        }
      ],
      "stateMutability": "view",
      "type": "function"
    },
    {
      "inputs": [],
      "name": "getPendingValidators",
      "outputs": [
        {
          "internalType": "address[]",
          "name": "",
          "type": "address[]"
        }
      ],
      "stateMutability": "view",
      "type": "function"
    },
    {
      "inputs": [],
      "name": "getPreviousValidators",
      "outputs": [
        {
          "internalType": "address[]",
          "name": "",
          "type": "address[]"
        }
      ],
      "stateMutability": "view",
      "type": "function"
    },
    {
      "inputs": [
        {
          "internalType": "address",
          "name": "_miningAddress",
          "type": "address"
        }
      ],
      "name": "getPublicKey",
      "outputs": [
        {
          "internalType": "bytes",
          "name": "",
          "type": "bytes"
        }
      ],
      "stateMutability": "view",
      "type": "function"
    },
    {
      "inputs": [],
      "name": "getStakingContract",
      "outputs": [
        {
          "internalType": "address",
          "name": "",
          "type": "address"
        }
      ],
      "stateMutability": "view",
      "type": "function"
    },
    {
      "inputs": [
        {
          "internalType": "uint256",
          "name": "_possibleValidatorCount",
          "type": "uint256"
        }
      ],
      "name": "getValidatorCountSweetSpot",
      "outputs": [
        {
          "internalType": "uint256",
          "name": "",
          "type": "uint256"
        }
      ],
      "stateMutability": "pure",
      "type": "function"
    },
    {
      "inputs": [],
      "name": "getValidators",
      "outputs": [
        {
          "internalType": "address[]",
          "name": "",
          "type": "address[]"
        }
      ],
      "stateMutability": "view",
      "type": "function"
    },
    {
      "inputs": [],
      "name": "handleFailedKeyGeneration",
      "outputs": [],
      "stateMutability": "nonpayable",
      "type": "function"
    },
    {
      "inputs": [
        {
          "internalType": "address",
          "name": "_contractOwner",
          "type": "address"
        },
        {
          "components": [
            {
              "internalType": "address",
              "name": "blockRewardContract",
              "type": "address"
            },
            {
              "internalType": "address",
              "name": "randomContract",
              "type": "address"
            },
            {
              "internalType": "address",
              "name": "stakingContract",
              "type": "address"
            },
            {
              "internalType": "address",
              "name": "keyGenHistoryContract",
              "type": "address"
            },
            {
              "internalType": "address",
              "name": "bonusScoreContract",
              "type": "address"
            },
            {
              "internalType": "uint256",
              "name": "validatorInactivityThreshold",
              "type": "uint256"
            }
          ],
          "internalType": "struct IValidatorSetHbbft.ValidatorSetParams",
          "name": "_params",
          "type": "tuple"
        },
        {
          "internalType": "address[]",
          "name": "_initialMiningAddresses",
          "type": "address[]"
        },
        {
          "internalType": "address[]",
          "name": "_initialStakingAddresses",
          "type": "address[]"
        }
      ],
      "name": "initialize",
      "outputs": [],
      "stateMutability": "nonpayable",
      "type": "function"
    },
    {
      "inputs": [],
      "name": "isFullHealth",
      "outputs": [
        {
          "internalType": "bool",
          "name": "",
          "type": "bool"
        }
      ],
      "stateMutability": "view",
      "type": "function"
    },
    {
      "inputs": [
        {
          "internalType": "address",
          "name": "_miningAddress",
          "type": "address"
        }
      ],
      "name": "isPendingValidator",
      "outputs": [
        {
          "internalType": "bool",
          "name": "",
          "type": "bool"
        }
      ],
      "stateMutability": "view",
      "type": "function"
    },
    {
      "inputs": [
        {
          "internalType": "address",
          "name": "",
          "type": "address"
        }
      ],
      "name": "isValidator",
      "outputs": [
        {
          "internalType": "bool",
          "name": "",
          "type": "bool"
        }
      ],
      "stateMutability": "view",
      "type": "function"
    },
    {
      "inputs": [
        {
          "internalType": "address",
          "name": "_stakingAddress",
          "type": "address"
        }
      ],
      "name": "isValidatorAbandoned",
      "outputs": [
        {
          "internalType": "bool",
          "name": "",
          "type": "bool"
        }
      ],
      "stateMutability": "view",
      "type": "function"
    },
    {
      "inputs": [
        {
          "internalType": "address",
          "name": "_miningAddress",
          "type": "address"
        }
      ],
      "name": "isValidatorOrPending",
      "outputs": [
        {
          "internalType": "bool",
          "name": "",
          "type": "bool"
        }
      ],
      "stateMutability": "view",
      "type": "function"
    },
    {
      "inputs": [
        {
          "internalType": "address",
          "name": "",
          "type": "address"
        }
      ],
      "name": "isValidatorPrevious",
      "outputs": [
        {
          "internalType": "bool",
          "name": "",
          "type": "bool"
        }
      ],
      "stateMutability": "view",
      "type": "function"
    },
    {
      "inputs": [],
      "name": "keyGenHistoryContract",
      "outputs": [
        {
          "internalType": "contract IKeyGenHistory",
          "name": "",
          "type": "address"
        }
      ],
      "stateMutability": "view",
      "type": "function"
    },
    {
      "inputs": [],
      "name": "maxValidators",
      "outputs": [
        {
          "internalType": "uint256",
          "name": "",
          "type": "uint256"
        }
      ],
      "stateMutability": "view",
      "type": "function"
    },
    {
      "inputs": [
        {
          "internalType": "address",
          "name": "",
          "type": "address"
        }
      ],
      "name": "miningByStakingAddress",
      "outputs": [
        {
          "internalType": "address",
          "name": "",
          "type": "address"
        }
      ],
      "stateMutability": "view",
      "type": "function"
    },
    {
      "inputs": [],
      "name": "newValidatorSet",
      "outputs": [],
      "stateMutability": "nonpayable",
      "type": "function"
    },
    {
      "inputs": [
        {
          "internalType": "address",
          "name": "_stakingAddress",
          "type": "address"
        }
      ],
      "name": "notifyUnavailability",
      "outputs": [],
      "stateMutability": "nonpayable",
      "type": "function"
    },
    {
      "inputs": [],
      "name": "owner",
      "outputs": [
        {
          "internalType": "address",
          "name": "",
          "type": "address"
        }
      ],
      "stateMutability": "view",
      "type": "function"
    },
    {
      "inputs": [
        {
          "internalType": "address",
          "name": "_stakingAddress",
          "type": "address"
        }
      ],
      "name": "publicKeyByStakingAddress",
      "outputs": [
        {
          "internalType": "bytes",
          "name": "",
          "type": "bytes"
        }
      ],
      "stateMutability": "view",
      "type": "function"
    },
    {
      "inputs": [],
      "name": "randomContract",
      "outputs": [
        {
          "internalType": "address",
          "name": "",
          "type": "address"
        }
      ],
      "stateMutability": "view",
      "type": "function"
    },
    {
      "inputs": [],
      "name": "renounceOwnership",
      "outputs": [],
      "stateMutability": "nonpayable",
      "type": "function"
    },
    {
      "inputs": [
        {
          "internalType": "address",
          "name": "_address",
          "type": "address"
        }
      ],
      "name": "setBonusScoreSystemAddress",
      "outputs": [],
      "stateMutability": "nonpayable",
      "type": "function"
    },
    {
      "inputs": [
        {
          "internalType": "uint256",
          "name": "_maxValidators",
          "type": "uint256"
        }
      ],
      "name": "setMaxValidators",
      "outputs": [],
      "stateMutability": "nonpayable",
      "type": "function"
    },
    {
      "inputs": [
        {
          "internalType": "address",
          "name": "_miningAddress",
          "type": "address"
        },
        {
          "internalType": "address",
          "name": "_stakingAddress",
          "type": "address"
        }
      ],
      "name": "setStakingAddress",
      "outputs": [],
      "stateMutability": "nonpayable",
      "type": "function"
    },
    {
      "inputs": [
        {
          "internalType": "uint256",
          "name": "_seconds",
          "type": "uint256"
        }
      ],
      "name": "setValidatorInactivityThreshold",
      "outputs": [],
      "stateMutability": "nonpayable",
      "type": "function"
    },
    {
      "inputs": [
        {
          "internalType": "bytes16",
          "name": "_ip",
          "type": "bytes16"
        },
        {
          "internalType": "bytes2",
          "name": "_port",
          "type": "bytes2"
        }
      ],
      "name": "setValidatorInternetAddress",
      "outputs": [],
      "stateMutability": "nonpayable",
      "type": "function"
    },
    {
      "inputs": [
        {
          "internalType": "address",
          "name": "",
          "type": "address"
        }
      ],
      "name": "stakingByMiningAddress",
      "outputs": [
        {
          "internalType": "address",
          "name": "",
          "type": "address"
        }
      ],
      "stateMutability": "view",
      "type": "function"
    },
    {
      "inputs": [],
      "name": "stakingContract",
      "outputs": [
        {
          "internalType": "contract IStakingHbbft",
          "name": "",
          "type": "address"
        }
      ],
      "stateMutability": "view",
      "type": "function"
    },
    {
      "inputs": [
        {
          "internalType": "address",
          "name": "newOwner",
          "type": "address"
        }
      ],
      "name": "transferOwnership",
      "outputs": [],
      "stateMutability": "nonpayable",
      "type": "function"
    },
    {
      "inputs": [
        {
          "internalType": "address",
          "name": "",
          "type": "address"
        }
      ],
      "name": "validatorAvailableSince",
      "outputs": [
        {
          "internalType": "uint256",
          "name": "",
          "type": "uint256"
        }
      ],
      "stateMutability": "view",
      "type": "function"
    },
    {
      "inputs": [
        {
          "internalType": "address",
          "name": "",
          "type": "address"
        }
      ],
      "name": "validatorAvailableSinceLastWrite",
      "outputs": [
        {
          "internalType": "uint256",
          "name": "",
          "type": "uint256"
        }
      ],
      "stateMutability": "view",
      "type": "function"
    },
    {
      "inputs": [
        {
          "internalType": "address",
          "name": "",
          "type": "address"
        }
      ],
      "name": "validatorCounter",
      "outputs": [
        {
          "internalType": "uint256",
          "name": "",
          "type": "uint256"
        }
      ],
      "stateMutability": "view",
      "type": "function"
    },
    {
      "inputs": [],
      "name": "validatorInactivityThreshold",
      "outputs": [
        {
          "internalType": "uint256",
          "name": "",
          "type": "uint256"
        }
      ],
      "stateMutability": "view",
      "type": "function"
    }
  ],
  "bytecode": "0x6080604052348015600f57600080fd5b506016601a565b60ca565b7ff0c57e16840df040f15088dc2f81fe391c3923bec73e23a9662efc9c229c6a00805468010000000000000000900460ff161560695760405163f92ee8a960e01b815260040160405180910390fd5b80546001600160401b039081161460c75780546001600160401b0319166001600160401b0390811782556040519081527fc7f505b2f371ae2175ee4913f4499e1f2633a7b5936321eed1cdaeb6115181d29060200160405180910390a15b50565b613889806100d96000396000f3fe608060405234801561001057600080fd5b506004361061032a5760003560e01c80639d6fc1d1116101b2578063d71b7e24116100f9578063efd04947116100a2578063f51726f01161007c578063f51726f014610732578063facd743b14610745578063fb64aac114610768578063fce260c81461077b57600080fd5b8063efd04947146106f9578063f2fde38b1461070c578063f37302061461071f57600080fd5b8063ed7cba62116100d3578063ed7cba62146106be578063ee99205c146106de578063eebc7a39146106f157600080fd5b8063d71b7e2414610675578063ddd8db0214610695578063e8163d97146106b557600080fd5b8063ade1900a1161015b578063b7ab4db511610135578063b7ab4db514610647578063bd0d69bc1461064f578063ccf69e9b1461066257600080fd5b8063ade1900a1461060c578063b41832e414610614578063b47aef1f1461063457600080fd5b8063a49904e51161018c578063a49904e5146105cf578063a68b5b76146105d6578063ac5ba7bc146105f957600080fd5b80639d6fc1d114610586578063a0d16cad146105a9578063a42bdee9146105bc57600080fd5b806360e5c5201161027657806385602ad51161021f5780638e68dce4116101f95780638e68dce41461054f5780639881933d146105605780639bb2ea5a1461057357600080fd5b806385602ad5146104ea578063857cdbb8146104ff5780638da5cb5b1461051f57600080fd5b8063715018a611610250578063715018a6146104c7578063717662ee146104cf57806375286211146104e257600080fd5b806360e5c5201461047e57806362be7d031461049e5780636b949ae8146104be57600080fd5b80633da74fc6116102d857806356b54bae116102b257806356b54bae1461045b5780635ccee1de1461046e5780635d5fcbce1461047657600080fd5b80633da74fc61461040a57806343bcce9f1461041d5780634635369d1461043057600080fd5b806314e28d901161030957806314e28d90146103a15780631ee4d0bc146103c157806322db7d09146103ea57600080fd5b80625351751461032f57806308ac5256146103755780630a4c10721461038c575b600080fd5b61035861033d366004613193565b600b602052600090815260409020546001600160a01b031681565b6040516001600160a01b0390911681526020015b60405180910390f35b61037e60155481565b60405190815260200161036c565b61039f61039a3660046131b7565b61079b565b005b6103b46103af366004613193565b6107d3565b60405161036c91906131f0565b6103586103cf366004613193565b600f602052600090815260409020546001600160a01b031681565b61037e6103f8366004613193565b60056020526000908152604090205481565b601854610358906001600160a01b031681565b61039f61042b366004613218565b6109bc565b61037e61043e36600461323a565b600d60209081526000928352604080842090915290825290205481565b600854610358906001600160a01b031681565b61039f610b16565b60005461037e565b61037e61048c366004613193565b60146020526000908152604090205481565b61037e6104ac366004613266565b600e6020526000908152604090205481565b61037e60175481565b61039f610b5a565b61039f6104dd366004613193565b610b6c565b61039f610bcf565b6104f2610d5e565b60405161036c919061327f565b61051261050d366004613193565b610dc0565b60405161036c91906132f0565b7f9016d09d72d40fdae2fd8ceac6b6234c7706214fd39c1cd1e609a0528c199300546001600160a01b0316610358565b6010546001600160a01b0316610358565b61051261056e366004613193565b610e50565b61039f610581366004613266565b610e83565b610599610594366004613193565b610ec7565b604051901515815260200161036c565b6105996105b7366004613193565b610f34565b61039f6105ca366004613323565b610f5f565b6001610599565b6105996105e4366004613193565b600a6020526000908152604090205460ff1681565b61039f610607366004613266565b611043565b61039f6110a4565b61037e610622366004613193565b60126020526000908152604090205481565b601154610358906001600160a01b031681565b6104f261183f565b61039f61065d366004613193565b61189f565b600c54610358906001600160a01b031681565b61037e610683366004613193565b60066020526000908152604090205481565b61037e6106a3366004613193565b60046020526000908152604090205481565b61037e60165481565b61037e6106cc366004613193565b60136020526000908152604090205481565b601054610358906001600160a01b031681565b6104f261191c565b61037e610707366004613266565b61197c565b61039f61071a366004613193565b6119d9565b61039f61072d3660046133d8565b611a14565b610599610740366004613193565b611d96565b610599610753366004613193565b60096020526000908152604090205460ff1681565b610599610776366004613193565b611ded565b61037e610789366004613193565b60076020526000908152604090205481565b6010546001600160a01b031633146107c5576040516282b42960e81b815260040160405180910390fd5b6107cf8282611e4b565b5050565b60006107de82611ded565b6107ea57506000919050565b60115460408051637be02c2b60e01b8152815160009384936001600160a01b0390911692637be02c2b92600480830193928290030181865afa158015610834573d6000803e3d6000fd5b505050506040513d601f19601f82011682018060405250810190610858919061349e565b60015491935091506fffffffffffffffffffffffffffffffff8316101561090d576011546040516399de1a4360e01b81526001600160a01b03868116600483015260009216906399de1a4390602401600060405180830381865afa1580156108c4573d6000803e3d6000fd5b505050506040513d6000823e601f3d908101601f191682016040526108ec9190810190613518565b9050805160000361090257506001949350505050565b506002949350505050565b6001546fffffffffffffffffffffffffffffffff821610156109b257601154604051631baeec3f60e31b81526001600160a01b0386811660048301529091169063dd7761f890602401602060405180830381865afa158015610973573d6000803e3d6000fd5b505050506040513d601f19601f8201168201806040525081019061099791906135ac565b6000036109a8575060039392505050565b5060049392505050565b5060059392505050565b6109c533611d96565b6109e25760405163a82bfa5560e01b815260040160405180910390fd5b438210610a02576040516341d852df60e01b815260040160405180910390fd5b43610a0e8360106135db565b11610a2c576040516310548f8360e01b815260040160405180910390fd5b80824014610a4d5760405163fe1864e160e01b815260040160405180910390fd5b336000908152601460209081526040808320429081905560138352818420819055601054600f909352818420548251631ec56e5360e21b81526001600160a01b03918216600482015292519194931692637b15b94c926024808201939182900301818387803b158015610abf57600080fd5b505af1158015610ad3573d6000803e3d6000fd5b505060408051338152602081018590527f705d65dbee06de60e6465d68371ce849d5a1ead53e53d01a413b2b01393aa022935001905060405180910390a1505050565b6008546001600160a01b03163314610b40576040516282b42960e81b815260040160405180910390fd5b604080516000815260208101909152610b5890611fe9565b565b610b626126c0565b610b58600061271b565b6010546001600160a01b03163314610b96576040516282b42960e81b815260040160405180910390fd5b6001600160a01b039081166000908152600b60209081526040808320549093168252601481528282208290556013905220429055565b50565b6008546001600160a01b03163314610bf9576040516282b42960e81b815260040160405180910390fd5b60015415610c1157610c0961278c565b610c11612863565b610c19612a08565b610c21612b8c565b601060009054906101000a90046001600160a01b03166001600160a01b031663ee435f556040518163ffffffff1660e01b8152600401600060405180830381600087803b158015610c7157600080fd5b505af1158015610c85573d6000803e3d6000fd5b50505050601160009054906101000a90046001600160a01b03166001600160a01b0316632c6f194d6040518163ffffffff1660e01b8152600401600060405180830381600087803b158015610cd957600080fd5b505af1158015610ced573d6000803e3d6000fd5b5050505060016000610cff91906130fb565b601054604051638247a23960e01b81524260048201526001600160a01b0390911690638247a23990602401600060405180830381600087803b158015610d4457600080fd5b505af1158015610d58573d6000803e3d6000fd5b50505050565b60606002805480602002602001604051908101604052809291908181526020018280548015610db657602002820191906000526020600020905b81546001600160a01b03168152600190910190602001808311610d98575b5050505050905090565b6010546001600160a01b038281166000908152600f602052604090819020549051634e9b426d60e01b815290821660048201526060929190911690634e9b426d906024015b600060405180830381865afa158015610e22573d6000803e3d6000fd5b505050506040513d6000823e601f3d908101601f19168201604052610e4a9190810190613518565b92915050565b601054604051634e9b426d60e01b81526001600160a01b0383811660048301526060921690634e9b426d90602401610e05565b610e8b6126c0565b60158190556040518181527fd3c3674d241eb3fb81da09f8c56bdf72b08c8094de786997b95cde95d0ecfff5906020015b60405180910390a150565b6001600160a01b038082166000908152600b602090815260408083205490931680835260149091529181205490919015610f045750600092915050565b6001600160a01b038116600090815260136020526040812054610f2790426135ee565b6017541115949350505050565b6001600160a01b03811660009081526009602052604081205460ff1680610e4a5750610e4a82611ded565b336000908152600f60205260409020546001600160a01b031680610f9d576040516303a949c760e61b81523360048201526024015b60405180910390fd5b601054604051637b0a0f9b60e01b81526001600160a01b0383811660048301526fffffffffffffffffffffffffffffffff19861660248301527fffff0000000000000000000000000000000000000000000000000000000000008516604483015290911690637b0a0f9b906064015b600060405180830381600087803b15801561102657600080fd5b505af115801561103a573d6000803e3d6000fd5b50505050505050565b61104b6126c0565b62093a8081101561106f57604051635d9561d360e11b815260040160405180910390fd5b60178190556040518181527f578d5da2255dc6640f3ba0d8ce1bc20877ca696956ebe3c333a3eb8f49fb395f90602001610ebc565b6008546001600160a01b031633146110ce576040516282b42960e81b815260040160405180910390fd5b601060009054906101000a90046001600160a01b03166001600160a01b03166322e3d9866040518163ffffffff1660e01b8152600401602060405180830381865afa158015611121573d6000803e3d6000fd5b505050506040513d601f19601f8201168201806040525081019061114591906135ac565b4210156111655760405163112bb3df60e11b815260040160405180910390fd5b601060009054906101000a90046001600160a01b03166001600160a01b031663a5d54f656040518163ffffffff1660e01b8152600401600060405180830381865afa1580156111b8573d6000803e3d6000fd5b505050506040513d6000823e601f3d908101601f191682016040526111e09190810190613625565b5115610b585760015415610b5857600180546000916111fe916135ee565b67ffffffffffffffff811115611216576112166134d1565b60405190808252806020026020018201604052801561123f578160200160208202803683370190505b50905060008080601160009054906101000a90046001600160a01b03166001600160a01b0316637be02c2b6040518163ffffffff1660e01b81526004016040805180830381865afa158015611298573d6000803e3d6000fd5b505050506040513d601f19601f820116820180604052508101906112bc919061349e565b9150915060005b6001548110156115d8576000600182815481106112e2576112e26136b9565b60009182526020822001546001546001600160a01b0390911692506fffffffffffffffffffffffffffffffff86161015611392576011546040516399de1a4360e01b81526001600160a01b03848116600483015260009216906399de1a4390602401600060405180830381865afa158015611361573d6000803e3d6000fd5b505050506040513d6000823e601f3d908101601f191682016040526113899190810190613518565b51119050611421565b6001546fffffffffffffffffffffffffffffffff8516101561142157601154604051631baeec3f60e31b81526001600160a01b038481166004830152600092169063dd7761f890602401602060405180830381865afa1580156113f9573d6000803e3d6000fd5b505050506040513d601f19601f8201168201806040525081019061141d91906135ac565b1190505b8015611494576001838154811061143a5761143a6136b9565b9060005260206000200160009054906101000a90046001600160a01b031687878151811061146a5761146a6136b9565b6001600160a01b03909216602092830291909101909101528561148c816136cf565b9650506115ce565b601854604051632bdfe5f760e11b81526001600160a01b038481166004830152909116906357bfcbee90602401600060405180830381600087803b1580156114db57600080fd5b505af11580156114ef573d6000803e3d6000fd5b50506010546001600160a01b038581166000908152600f602052604090819020549051631dbe84a360e11b8152908216600482015291169250633b7d09469150602401600060405180830381600087803b15801561154c57600080fd5b505af1158015611560573d6000803e3d6000fd5b5050506001600160a01b03831660009081526014602090815260408083208390556013909152902042905550604080516001600160a01b03841681524260208201527f7ec36d1734626f8b3686f8791130187e1633c843b1995003e788cd2b33d56903910160405180910390a15b50506001016112c3565b50601154604051632f8ba4bf60e11b81526001600160a01b0390911690635f17497e9061160a906001906004016136e8565b600060405180830381600087803b15801561162457600080fd5b505af1158015611638573d6000803e3d6000fd5b50505050601160009054906101000a90046001600160a01b03166001600160a01b031663adddc0cf6040518163ffffffff1660e01b8152600401600060405180830381600087803b15801561168c57600080fd5b505af11580156116a0573d6000803e3d6000fd5b5050505060008367ffffffffffffffff8111156116bf576116bf6134d1565b6040519080825280602002602001820160405280156116e8578160200160208202803683370190505b50905060005b8481101561174257858181518110611708576117086136b9565b6020026020010151828281518110611722576117226136b9565b6001600160a01b03909216602092830291909101909101526001016116ee565b50601060009054906101000a90046001600160a01b03166001600160a01b031663adddc0cf6040518163ffffffff1660e01b8152600401600060405180830381600087803b15801561179357600080fd5b505af11580156117a7573d6000803e3d6000fd5b505050506000601060009054906101000a90046001600160a01b03166001600160a01b031663a5d54f656040518163ffffffff1660e01b8152600401600060405180830381865afa158015611800573d6000803e3d6000fd5b505050506040513d6000823e601f3d908101601f191682016040526118289190810190613625565b5111156118385761183881611fe9565b5050505050565b60606000805480602002602001604051908101604052809291908181526020018280548015610db6576020028201919060005260206000209081546001600160a01b03168152600190910190602001808311610d98575050505050905090565b6118a76126c0565b6001600160a01b0381166118ce5760405163d92e233d60e01b815260040160405180910390fd5b601880546001600160a01b0319166001600160a01b0383169081179091556040519081527fd4244d1f8acb4860e17399636c6b7875c75656aafb5cb3d0163d7305eace717290602001610ebc565b60606001805480602002602001604051908101604052809291908181526020018280548015610db6576020028201919060005260206000209081546001600160a01b03168152600190910190602001808311610d98575050505050905090565b60008160000361199f5760405163a63671a560e01b815260040160405180910390fd5b60048210156119ac575090565b60036119b96001846135ee565b6119c39190613742565b6119ce906003613756565b610e4a9060016135db565b6119e16126c0565b6001600160a01b038116611a0b57604051631e4fbdf760e01b815260006004820152602401610f94565b610bcc8161271b565b7ff0c57e16840df040f15088dc2f81fe391c3923bec73e23a9662efc9c229c6a00805468010000000000000000810460ff16159067ffffffffffffffff16600081158015611a5f5750825b905060008267ffffffffffffffff166001148015611a7c5750303b155b905081158015611a8a575080155b15611aa85760405163f92ee8a960e01b815260040160405180910390fd5b845467ffffffffffffffff191660011785558315611adc57845468ff00000000000000001916680100000000000000001785555b611ae58a612cec565b6001600160a01b038b16611b0c5760405163d92e233d60e01b815260040160405180910390fd5b6000889003611b2e576040516322b8b72360e21b815260040160405180910390fd5b878614611b4e5760405163ac9e459360e01b815260040160405180910390fd5b611b578b612daf565b611b6460208b018b613193565b600880546001600160a01b0319166001600160a01b0392909216919091179055611b9460408b0160208c01613193565b600c80546001600160a01b0319166001600160a01b0392909216919091179055611bc460608b0160408c01613193565b601080546001600160a01b0319166001600160a01b0392909216919091179055611bf460808b0160608c01613193565b601180546001600160a01b0319166001600160a01b0392909216919091179055611c2460a08b0160808c01613193565b601880546001600160a01b0319166001600160a01b039290921691909117905560a08a013560175560005b88811015611d385760008a8a83818110611c6b57611c6b6136b9565b9050602002016020810190611c809190613193565b60008054600180820183557f290decd9548b62a8d60345a988386fc84ba6bc95484008f6362f93160ef3e56390910180546001600160a01b0319166001600160a01b0385169081179091558252600960209081526040808420805460ff1916909317909255601290528120805492935090611cfa836136cf565b9190505550611d2f818a8a85818110611d1557611d156136b9565b9050602002016020810190611d2a9190613193565b611e4b565b50600101611c4f565b5060196015558315611d8957845468ff000000000000000019168555604051600181527fc7f505b2f371ae2175ee4913f4499e1f2633a7b5936321eed1cdaeb6115181d29060200160405180910390a15b5050505050505050505050565b6001600160a01b038181166000908152600f6020526040812054909116611dbf57506000919050565b6001600160a01b03821660009081526014602052604090205415611de557506000919050565b506001919050565b600154600090815b81811015611e415760018181548110611e1057611e106136b9565b6000918252602090912001546001600160a01b0390811690851603611e39575060019392505050565b600101611df5565b5060009392505050565b6001600160a01b038216611e725760405163d92e233d60e01b815260040160405180910390fd5b6001600160a01b038116611e995760405163d92e233d60e01b815260040160405180910390fd5b806001600160a01b0316826001600160a01b031603611ecb576040516307d9394560e01b815260040160405180910390fd5b6001600160a01b038181166000908152600b602052604090205416151580611f0c57506001600160a01b038181166000908152600f60205260409020541615155b15611f35576040516326d65e0360e21b81526001600160a01b0382166004820152602401610f94565b6001600160a01b038281166000908152600b602052604090205416151580611f7657506001600160a01b038281166000908152600f60205260409020541615155b15611f9f5760405163342ed6a360e01b81526001600160a01b0383166004820152602401610f94565b6001600160a01b039081166000818152600b602090815260408083208054959096166001600160a01b03199586168117909655948252600f90529290922080549091169091179055565b6010546040805163a5d54f6560e01b815290516000926001600160a01b03169163a5d54f6591600480830192869291908290030181865afa158015612032573d6000803e3d6000fd5b505050506040513d6000823e601f3d908101601f1916820160405261205a9190810190613625565b90506000601554825110158061206f57508151155b6120825761207d825161197c565b612086565b6015545b905080825111156124c15781516010546040805163957950a760e01b8152905160009283926001600160a01b039091169163957950a79160048082019286929091908290030181865afa1580156120e1573d6000803e3d6000fd5b505050506040513d6000823e601f3d908101601f19168201604052612109919081019061376d565b9150915060008467ffffffffffffffff811115612128576121286134d1565b604051908082528060200260200182016040528015612151578160200160208202803683370190505b5090506000805b88518110156122d65760005b868110156122cd5789828151811061217e5761217e6136b9565b60200260200101516001600160a01b03168982815181106121a1576121a16136b9565b60200260200101516001600160a01b0316036122c5578982815181106121c9576121c96136b9565b60200260200101518484815181106121e3576121e36136b9565b6001600160a01b039092166020928302919091019091015282612205816136cf565b93505085818151811061221a5761221a6136b9565b60200260200101518561222d91906135ee565b94508661223981613806565b97505088878151811061224e5761224e6136b9565b6020026020010151898281518110612268576122686136b9565b60200260200101906001600160a01b031690816001600160a01b03168152505085878151811061229a5761229a6136b9565b60200260200101518682815181106122b4576122b46136b9565b6020026020010181815250506122cd565b600101612164565b50600101612158565b50600c5460408051634191031360e11b815290516000926001600160a01b03169163832206269160048083019260209291908290030181865afa158015612321573d6000803e3d6000fd5b505050506040513d601f19601f8201168201806040525081019061234591906135ac565b9050600085511180156123585750600084115b156124b65760005b83518110156124ac57604080514284186020820152016040516020818303038152906040528051906020012060001c9150600061239e878785612dc0565b90508981815181106123b2576123b26136b9565b60200260200101518583815181106123cc576123cc6136b9565b60200260200101906001600160a01b031690816001600160a01b0316815250508681815181106123fe576123fe6136b9565b60200260200101518661241191906135ee565b95508761241d81613806565b985050898881518110612432576124326136b9565b60200260200101518a828151811061244c5761244c6136b9565b60200260200101906001600160a01b031690816001600160a01b03168152505086888151811061247e5761247e6136b9565b6020026020010151878281518110612498576124986136b9565b602090810291909101015250600101612360565b506124b683612e29565b5050505050506124ca565b6124ca82612e29565b601154604051632f8ba4bf60e11b81526001600160a01b0390911690635f17497e906124fb906000906004016136e8565b600060405180830381600087803b15801561251557600080fd5b505af1158015612529573d6000803e3d6000fd5b50505050815160001461259f57601060009054906101000a90046001600160a01b03166001600160a01b0316631555371c6040518163ffffffff1660e01b8152600401600060405180830381600087803b15801561258657600080fd5b505af115801561259a573d6000803e3d6000fd5b505050505b601060009054906101000a90046001600160a01b03166001600160a01b03166322e3d9866040518163ffffffff1660e01b8152600401602060405180830381865afa1580156125f2573d6000803e3d6000fd5b505050506040513d601f19601f8201168201806040525081019061261691906135ac565b4211156126bb5760105460408051631171ecc360e11b815290516001600160a01b0390921691639e72c6359183916322e3d986916004808201926020929091908290030181865afa15801561266f573d6000803e3d6000fd5b505050506040513d601f19601f8201168201806040525081019061269391906135ac565b61269d90426135ee565b6040518263ffffffff1660e01b815260040161100c91815260200190565b505050565b336126f27f9016d09d72d40fdae2fd8ceac6b6234c7706214fd39c1cd1e609a0528c199300546001600160a01b031690565b6001600160a01b031614610b585760405163118cdaa760e01b8152336004820152602401610f94565b7f9016d09d72d40fdae2fd8ceac6b6234c7706214fd39c1cd1e609a0528c19930080546001600160a01b031981166001600160a01b03848116918217845560405192169182907f8be0079c531659141344cd1fd0a4f28419497f9722a3daafe3b4186f6b6457e090600090a3505050565b60025460005b818110156127ef576000600a6000600284815481106127b3576127b36136b9565b6000918252602080832091909101546001600160a01b031683528201929092526040019020805460ff1916911515919091179055600101612792565b505060008054905b81811015612853576001600a6000808481548110612817576128176136b9565b6000918252602080832091909101546001600160a01b031683528201929092526040019020805460ff19169115159190911790556001016127f7565b600080546126bb91600291613119565b60606000808054806020026020016040519081016040528092919081815260200182805480156128bc57602002820191906000526020600020905b81546001600160a01b0316815260019091019060200180831161289e575b50505050509150600090505b8151811015612923576000600960008484815181106128e9576128e96136b9565b6020908102919091018101516001600160a01b03168252810191909152604001600020805460ff19169115159190911790556001016128c8565b6001805461293391600091613119565b50600080548060200260200160405190810160405280929190818152602001828054801561298a57602002820191906000526020600020905b81546001600160a01b0316815260019091019060200180831161296c575b50505050509150600090505b81518110156107cf5760008282815181106129b3576129b36136b9565b6020908102919091018101516001600160a01b0381166000908152600983526040808220805460ff191660011790556012909352918220805491935090916129fa836136cf565b909155505050600101612996565b6010546040805163a5d54f6560e01b815290516000926001600160a01b03169163a5d54f6591600480830192869291908290030181865afa158015612a51573d6000803e3d6000fd5b505050506040513d6000823e601f3d908101601f19168201604052612a799190810190613625565b805190915060005b818110156126bb576000600b6000858481518110612aa157612aa16136b9565b6020908102919091018101516001600160a01b039081168352828201939093526040918201600090812054909316808452600990915291205490915060ff1680612b0157506001600160a01b038116600090815260146020526040902054155b15612b0c5750612b84565b6018546001600160a01b03828116600081815260146020526040908190205490516392f2944360e01b8152600481019290925260248201529116906392f2944390604401600060405180830381600087803b158015612b6a57600080fd5b505af1158015612b7e573d6000803e3d6000fd5b50505050505b600101612a81565b6010546040805163df6f55f560e01b815290516000926001600160a01b03169163df6f55f591600480830192869291908290030181865afa158015612bd5573d6000803e3d6000fd5b505050506040513d6000823e601f3d908101601f19168201604052612bfd9190810190613625565b805190915060005b818110156126bb576000600b6000858481518110612c2557612c256136b9565b6020908102919091018101516001600160a01b039081168352828201939093526040918201600090812054909316808452601490915291205490915015612c6c5750612ce4565b6018546001600160a01b03828116600081815260136020526040908190205490516351150d5760e01b8152600481019290925260248201529116906351150d5790604401600060405180830381600087803b158015612cca57600080fd5b505af1158015612cde573d6000803e3d6000fd5b50505050505b600101612c05565b6000612cfb6020830183613193565b6001600160a01b03161480612d2857506000612d1d6040830160208401613193565b6001600160a01b0316145b80612d4b57506000612d406060830160408401613193565b6001600160a01b0316145b80612d6e57506000612d636080830160608401613193565b6001600160a01b0316145b80612d9157506000612d8660a0830160808401613193565b6001600160a01b0316145b15610bcc5760405163d92e233d60e01b815260040160405180910390fd5b612db76130a5565b610bcc816130f3565b600080612dcd848461381d565b90506000805b828211612e1357868181518110612dec57612dec6136b9565b602002602001015182612dff91906135db565b915080612e0b816136cf565b915050612dd3565b612e1e6001826135ee565b979650505050505050565b612e35600160006130fb565b80516000036130295760008054905b81811015612fca576000808281548110612e6057612e606136b9565b6000918252602080832091909101546001600160a01b03908116808452600f90925260409283902054601054935163a711e6a160e01b8152908216600482018190529294509192169063a711e6a190602401602060405180830381865afa158015612ecf573d6000803e3d6000fd5b505050506040513d601f19601f82011682018060405250810190612ef39190613831565b8015612f70575060105460405162e9ab0360e81b81526001600160a01b038381166004830181905260248301529091169063e9ab030090604401602060405180830381865afa158015612f4a573d6000803e3d6000fd5b505050506040513d601f19601f82011682018060405250810190612f6e91906135ac565b155b15612fc0576001805480820182556000919091527fb10e2d527612073b26eecdfd717e6a320cf44b4afac2b0732d9fcbe2b7fa0cf60180546001600160a01b0319166001600160a01b0384161790555b5050600101612e44565b506001546000036107cf57600160008081548110612fea57612fea6136b9565b60009182526020808320909101548354600181018555938352912090910180546001600160a01b0319166001600160a01b039092169190911790555050565b805160005b818110156126bb576001600b600085848151811061304e5761304e6136b9565b6020908102919091018101516001600160a01b0390811683528282019390935260409091016000908120548454600181810187559583529290912090910180546001600160a01b031916919092161790550161302e565b7ff0c57e16840df040f15088dc2f81fe391c3923bec73e23a9662efc9c229c6a005468010000000000000000900460ff16610b5857604051631afcd79f60e31b815260040160405180910390fd5b6119e16130a5565b5080546000825590600052602060002090810190610bcc9190613169565b8280548282559060005260206000209081019282156131595760005260206000209182015b8281111561315957825482559160010191906001019061313e565b50613165929150613169565b5090565b5b80821115613165576000815560010161316a565b6001600160a01b0381168114610bcc57600080fd5b6000602082840312156131a557600080fd5b81356131b08161317e565b9392505050565b600080604083850312156131ca57600080fd5b82356131d58161317e565b915060208301356131e58161317e565b809150509250929050565b602081016006831061321257634e487b7160e01b600052602160045260246000fd5b91905290565b6000806040838503121561322b57600080fd5b50508035926020909101359150565b6000806040838503121561324d57600080fd5b82356132588161317e565b946020939093013593505050565b60006020828403121561327857600080fd5b5035919050565b6020808252825182820181905260009190848201906040850190845b818110156132c05783516001600160a01b03168352928401929184019160010161329b565b50909695505050505050565b60005b838110156132e75781810151838201526020016132cf565b50506000910152565b602081526000825180602084015261330f8160408501602087016132cc565b601f01601f19169190910160400192915050565b6000806040838503121561333657600080fd5b82356fffffffffffffffffffffffffffffffff198116811461335757600080fd5b915060208301357fffff000000000000000000000000000000000000000000000000000000000000811681146131e557600080fd5b60008083601f84011261339e57600080fd5b50813567ffffffffffffffff8111156133b657600080fd5b6020830191508360208260051b85010111156133d157600080fd5b9250929050565b6000806000806000808688036101208112156133f357600080fd5b87356133fe8161317e565b965060c0601f198201121561341257600080fd5b5060208701945060e087013567ffffffffffffffff8082111561343457600080fd5b6134408a838b0161338c565b909650945061010089013591508082111561345a57600080fd5b5061346789828a0161338c565b979a9699509497509295939492505050565b80516fffffffffffffffffffffffffffffffff8116811461349957600080fd5b919050565b600080604083850312156134b157600080fd5b6134ba83613479565b91506134c860208401613479565b90509250929050565b634e487b7160e01b600052604160045260246000fd5b604051601f8201601f1916810167ffffffffffffffff81118282101715613510576135106134d1565b604052919050565b60006020828403121561352a57600080fd5b815167ffffffffffffffff8082111561354257600080fd5b818401915084601f83011261355657600080fd5b815181811115613568576135686134d1565b61357b601f8201601f19166020016134e7565b915080825285602082850101111561359257600080fd5b6135a38160208401602086016132cc565b50949350505050565b6000602082840312156135be57600080fd5b5051919050565b634e487b7160e01b600052601160045260246000fd5b80820180821115610e4a57610e4a6135c5565b81810381811115610e4a57610e4a6135c5565b600067ffffffffffffffff82111561361b5761361b6134d1565b5060051b60200190565b6000602080838503121561363857600080fd5b825167ffffffffffffffff81111561364f57600080fd5b8301601f8101851361366057600080fd5b805161367361366e82613601565b6134e7565b81815260059190911b8201830190838101908783111561369257600080fd5b928401925b82841015612e1e5783516136aa8161317e565b82529284019290840190613697565b634e487b7160e01b600052603260045260246000fd5b6000600182016136e1576136e16135c5565b5060010190565b6020808252825482820181905260008481528281209092916040850190845b818110156132c05783546001600160a01b031683526001938401939285019201613707565b634e487b7160e01b600052601260045260246000fd5b6000826137515761375161372c565b500490565b8082028115828204841417610e4a57610e4a6135c5565b6000806040838503121561378057600080fd5b825167ffffffffffffffff81111561379757600080fd5b8301601f810185136137a857600080fd5b805160206137b861366e83613601565b82815260059290921b830181019181810190888411156137d757600080fd5b938201935b838510156137f5578451825293820193908201906137dc565b969091015195979596505050505050565b600081613815576138156135c5565b506000190190565b60008261382c5761382c61372c565b500690565b60006020828403121561384357600080fd5b815180151581146131b057600080fdfea264697066735822122028ab4a962657d1bd5de3cf8d2ed385339f06da590d754a89e0e8108e29faff1e64736f6c63430008190033",
  "linkReferences": {},
  "deployedLinkReferences": {}
}