{
  "_format": "hh-sol-artifact-1",
  "contractName": "ValidatorSetHbbftMock",
  "sourceName": "contracts/mockContracts/ValidatorSetHbbftMock.sol",
  "abi": [
    {
      "inputs": [],
      "name": "AnnounceBlockNumberTooOld",
      "type": "error"
    },
    {
      "inputs": [],
      "name": "CantAnnounceAvailability",
      "type": "error"
    },
    {
      "inputs": [],
      "name": "EpochNotYetzFinished",
      "type": "error"
    },
    {
      "inputs": [],
      "name": "InitialAddressesLengthMismatch",
      "type": "error"
    },
    {
      "inputs": [],
      "name": "InitialValidatorsEmpty",
      "type": "error"
    },
    {
      "inputs": [],
      "name": "InvalidAddressPair",
      "type": "error"
    },
    {
      "inputs": [],
      "name": "InvalidAnnounceBlockHash",
      "type": "error"
    },
    {
      "inputs": [],
      "name": "InvalidAnnounceBlockNumber",
      "type": "error"
    },
    {
      "inputs": [],
      "name": "InvalidInactivityThreshold",
      "type": "error"
    },
    {
      "inputs": [],
      "name": "InvalidInitialization",
      "type": "error"
    },
    {
      "inputs": [],
      "name": "InvalidPossibleValidatorCount",
      "type": "error"
    },
    {
      "inputs": [
        {
          "internalType": "address",
          "name": "_value",
          "type": "address"
        }
      ],
      "name": "MiningAddressAlreadyUsed",
      "type": "error"
    },
    {
      "inputs": [],
      "name": "NotInitializing",
      "type": "error"
    },
    {
      "inputs": [
        {
          "internalType": "address",
          "name": "owner",
          "type": "address"
        }
      ],
      "name": "OwnableInvalidOwner",
      "type": "error"
    },
    {
      "inputs": [
        {
          "internalType": "address",
          "name": "account",
          "type": "address"
        }
      ],
      "name": "OwnableUnauthorizedAccount",
      "type": "error"
    },
    {
      "inputs": [
        {
          "internalType": "address",
          "name": "_value",
          "type": "address"
        }
      ],
      "name": "StakingAddressAlreadyUsed",
      "type": "error"
    },
    {
      "inputs": [
        {
          "internalType": "address",
          "name": "_mining",
          "type": "address"
        }
      ],
      "name": "StakingPoolNotExist",
      "type": "error"
    },
    {
      "inputs": [],
      "name": "Unauthorized",
      "type": "error"
    },
    {
      "inputs": [],
      "name": "ValidatorsListEmpty",
      "type": "error"
    },
    {
      "inputs": [],
      "name": "ZeroAddress",
      "type": "error"
    },
    {
      "anonymous": false,
      "inputs": [
        {
          "indexed": false,
          "internalType": "uint64",
          "name": "version",
          "type": "uint64"
        }
      ],
      "name": "Initialized",
      "type": "event"
    },
    {
      "anonymous": false,
      "inputs": [
        {
          "indexed": true,
          "internalType": "address",
          "name": "previousOwner",
          "type": "address"
        },
        {
          "indexed": true,
          "internalType": "address",
          "name": "newOwner",
          "type": "address"
        }
      ],
      "name": "OwnershipTransferred",
      "type": "event"
    },
    {
      "anonymous": false,
      "inputs": [
        {
          "indexed": false,
          "internalType": "address",
          "name": "reportingValidator",
          "type": "address"
        },
        {
          "indexed": false,
          "internalType": "address",
          "name": "maliciousValidator",
          "type": "address"
        },
        {
          "indexed": false,
          "internalType": "uint256",
          "name": "blockNumber",
          "type": "uint256"
        }
      ],
      "name": "ReportedMalicious",
      "type": "event"
    },
    {
      "anonymous": false,
      "inputs": [
        {
          "indexed": false,
          "internalType": "uint256",
          "name": "_value",
          "type": "uint256"
        }
      ],
      "name": "SetBanDuration",
      "type": "event"
    },
    {
      "anonymous": false,
      "inputs": [
        {
          "indexed": false,
          "internalType": "uint256",
          "name": "_count",
          "type": "uint256"
        }
      ],
      "name": "SetMaxValidators",
      "type": "event"
    },
    {
      "anonymous": false,
      "inputs": [
        {
          "indexed": false,
          "internalType": "uint256",
          "name": "_value",
          "type": "uint256"
        }
      ],
      "name": "SetValidatorInactivityThreshold",
      "type": "event"
    },
    {
      "anonymous": false,
      "inputs": [
        {
          "indexed": false,
          "internalType": "address",
          "name": "validator",
          "type": "address"
        },
        {
          "indexed": false,
          "internalType": "uint256",
          "name": "timestamp",
          "type": "uint256"
        }
      ],
      "name": "ValidatorAvailable",
      "type": "event"
    },
    {
      "anonymous": false,
      "inputs": [
        {
          "indexed": false,
          "internalType": "address",
          "name": "validator",
          "type": "address"
        },
        {
          "indexed": false,
          "internalType": "uint256",
          "name": "timestamp",
          "type": "uint256"
        }
      ],
      "name": "ValidatorUnavailable",
      "type": "event"
    },
    {
      "inputs": [
        {
          "internalType": "uint256",
          "name": "_blockNumber",
          "type": "uint256"
        },
        {
          "internalType": "bytes32",
          "name": "_blockhash",
          "type": "bytes32"
        }
      ],
      "name": "announceAvailability",
      "outputs": [],
      "stateMutability": "nonpayable",
      "type": "function"
    },
    {
      "inputs": [
        {
          "internalType": "address",
          "name": "_miningAddress",
          "type": "address"
        }
      ],
      "name": "areDelegatorsBanned",
      "outputs": [
        {
          "internalType": "bool",
          "name": "",
          "type": "bool"
        }
      ],
      "stateMutability": "view",
      "type": "function"
    },
    {
      "inputs": [
        {
          "internalType": "address",
          "name": "",
          "type": "address"
        }
      ],
      "name": "banCounter",
      "outputs": [
        {
          "internalType": "uint256",
          "name": "",
          "type": "uint256"
        }
      ],
      "stateMutability": "view",
      "type": "function"
    },
    {
      "inputs": [],
      "name": "banDuration",
      "outputs": [
        {
          "internalType": "uint256",
          "name": "",
          "type": "uint256"
        }
      ],
      "stateMutability": "view",
      "type": "function"
    },
    {
      "inputs": [
        {
          "internalType": "address",
          "name": "",
          "type": "address"
        }
      ],
      "name": "banReason",
      "outputs": [
        {
          "internalType": "bytes32",
          "name": "",
          "type": "bytes32"
        }
      ],
      "stateMutability": "view",
      "type": "function"
    },
    {
      "inputs": [
        {
          "internalType": "address",
          "name": "",
          "type": "address"
        }
      ],
      "name": "bannedDelegatorsUntil",
      "outputs": [
        {
          "internalType": "uint256",
          "name": "",
          "type": "uint256"
        }
      ],
      "stateMutability": "view",
      "type": "function"
    },
    {
      "inputs": [
        {
          "internalType": "address",
          "name": "",
          "type": "address"
        }
      ],
      "name": "bannedUntil",
      "outputs": [
        {
          "internalType": "uint256",
          "name": "",
          "type": "uint256"
        }
      ],
      "stateMutability": "view",
      "type": "function"
    },
    {
      "inputs": [],
      "name": "blockRewardContract",
      "outputs": [
        {
          "internalType": "address",
          "name": "",
          "type": "address"
        }
      ],
      "stateMutability": "view",
      "type": "function"
    },
    {
      "inputs": [
        {
          "internalType": "address",
          "name": "_miningAddress",
          "type": "address"
        }
      ],
      "name": "canCallAnnounceAvailability",
      "outputs": [
        {
          "internalType": "bool",
          "name": "",
          "type": "bool"
        }
      ],
      "stateMutability": "view",
      "type": "function"
    },
    {
      "inputs": [],
      "name": "finalizeChange",
      "outputs": [],
      "stateMutability": "nonpayable",
      "type": "function"
    },
    {
      "inputs": [],
      "name": "forceFinalizeNewValidators",
      "outputs": [],
      "stateMutability": "nonpayable",
      "type": "function"
    },
    {
      "inputs": [],
      "name": "getCurrentValidatorsCount",
      "outputs": [
        {
          "internalType": "uint256",
          "name": "",
          "type": "uint256"
        }
      ],
      "stateMutability": "view",
      "type": "function"
    },
    {
      "inputs": [
        {
          "internalType": "address",
          "name": "_miningAddress",
          "type": "address"
        }
      ],
      "name": "getPendingValidatorKeyGenerationMode",
      "outputs": [
        {
          "internalType": "enum IValidatorSetHbbft.KeyGenMode",
          "name": "",
          "type": "uint8"
        }
      ],
      "stateMutability": "view",
      "type": "function"
    },
    {
      "inputs": [],
      "name": "getPendingValidators",
      "outputs": [
        {
          "internalType": "address[]",
          "name": "",
          "type": "address[]"
        }
      ],
      "stateMutability": "view",
      "type": "function"
    },
    {
      "inputs": [],
      "name": "getPreviousValidators",
      "outputs": [
        {
          "internalType": "address[]",
          "name": "",
          "type": "address[]"
        }
      ],
      "stateMutability": "view",
      "type": "function"
    },
    {
      "inputs": [
        {
          "internalType": "address",
          "name": "_miningAddress",
          "type": "address"
        }
      ],
      "name": "getPublicKey",
      "outputs": [
        {
          "internalType": "bytes",
          "name": "",
          "type": "bytes"
        }
      ],
      "stateMutability": "view",
      "type": "function"
    },
    {
      "inputs": [
        {
          "internalType": "uint256[]",
          "name": "_likelihood",
          "type": "uint256[]"
        },
        {
          "internalType": "uint256",
          "name": "_likelihoodSum",
          "type": "uint256"
        },
        {
          "internalType": "uint256",
          "name": "_randomNumber",
          "type": "uint256"
        }
      ],
      "name": "getRandomIndex",
      "outputs": [
        {
          "internalType": "uint256",
          "name": "",
          "type": "uint256"
        }
      ],
      "stateMutability": "pure",
      "type": "function"
    },
    {
      "inputs": [],
      "name": "getStakingContract",
      "outputs": [
        {
          "internalType": "address",
          "name": "",
          "type": "address"
        }
      ],
      "stateMutability": "view",
      "type": "function"
    },
    {
      "inputs": [
        {
          "internalType": "uint256",
          "name": "_possibleValidatorCount",
          "type": "uint256"
        }
      ],
      "name": "getValidatorCountSweetSpot",
      "outputs": [
        {
          "internalType": "uint256",
          "name": "",
          "type": "uint256"
        }
      ],
      "stateMutability": "pure",
      "type": "function"
    },
    {
      "inputs": [],
      "name": "getValidators",
      "outputs": [
        {
          "internalType": "address[]",
          "name": "",
          "type": "address[]"
        }
      ],
      "stateMutability": "view",
      "type": "function"
    },
    {
      "inputs": [],
      "name": "handleFailedKeyGeneration",
      "outputs": [],
      "stateMutability": "nonpayable",
      "type": "function"
    },
    {
      "inputs": [
        {
          "internalType": "address",
          "name": "_contractOwner",
          "type": "address"
        },
        {
          "internalType": "address",
          "name": "_blockRewardContract",
          "type": "address"
        },
        {
          "internalType": "address",
          "name": "_randomContract",
          "type": "address"
        },
        {
          "internalType": "address",
          "name": "_stakingContract",
          "type": "address"
        },
        {
          "internalType": "address",
          "name": "_keyGenHistoryContract",
          "type": "address"
        },
        {
          "internalType": "uint256",
          "name": "_validatorInactivityThreshold",
          "type": "uint256"
        },
        {
          "internalType": "address[]",
          "name": "_initialMiningAddresses",
          "type": "address[]"
        },
        {
          "internalType": "address[]",
          "name": "_initialStakingAddresses",
          "type": "address[]"
        }
      ],
      "name": "initialize",
      "outputs": [],
      "stateMutability": "nonpayable",
      "type": "function"
    },
    {
      "inputs": [],
      "name": "isFullHealth",
      "outputs": [
        {
          "internalType": "bool",
          "name": "",
          "type": "bool"
        }
      ],
      "stateMutability": "view",
      "type": "function"
    },
    {
      "inputs": [
        {
          "internalType": "address",
          "name": "_miningAddress",
          "type": "address"
        }
      ],
      "name": "isPendingValidator",
      "outputs": [
        {
          "internalType": "bool",
          "name": "",
          "type": "bool"
        }
      ],
      "stateMutability": "view",
      "type": "function"
    },
    {
      "inputs": [
        {
          "internalType": "address",
          "name": "_miningAddress",
          "type": "address"
        }
      ],
      "name": "isReportValidatorValid",
      "outputs": [
        {
          "internalType": "bool",
          "name": "",
          "type": "bool"
        }
      ],
      "stateMutability": "view",
      "type": "function"
    },
    {
      "inputs": [
        {
          "internalType": "address",
          "name": "",
          "type": "address"
        }
      ],
      "name": "isValidator",
      "outputs": [
        {
          "internalType": "bool",
          "name": "",
          "type": "bool"
        }
      ],
      "stateMutability": "view",
      "type": "function"
    },
    {
      "inputs": [
        {
          "internalType": "address",
          "name": "_stakingAddress",
          "type": "address"
        }
      ],
      "name": "isValidatorAbandoned",
      "outputs": [
        {
          "internalType": "bool",
          "name": "",
          "type": "bool"
        }
      ],
      "stateMutability": "view",
      "type": "function"
    },
    {
      "inputs": [
        {
          "internalType": "address",
          "name": "_miningAddress",
          "type": "address"
        }
      ],
      "name": "isValidatorBanned",
      "outputs": [
        {
          "internalType": "bool",
          "name": "",
          "type": "bool"
        }
      ],
      "stateMutability": "view",
      "type": "function"
    },
    {
      "inputs": [
        {
          "internalType": "address",
          "name": "_miningAddress",
          "type": "address"
        }
      ],
      "name": "isValidatorOrPending",
      "outputs": [
        {
          "internalType": "bool",
          "name": "",
          "type": "bool"
        }
      ],
      "stateMutability": "view",
      "type": "function"
    },
    {
      "inputs": [
        {
          "internalType": "address",
          "name": "",
          "type": "address"
        }
      ],
      "name": "isValidatorPrevious",
      "outputs": [
        {
          "internalType": "bool",
          "name": "",
          "type": "bool"
        }
      ],
      "stateMutability": "view",
      "type": "function"
    },
    {
      "inputs": [],
      "name": "keyGenHistoryContract",
      "outputs": [
        {
          "internalType": "contract IKeyGenHistory",
          "name": "",
          "type": "address"
        }
      ],
      "stateMutability": "view",
      "type": "function"
    },
    {
      "inputs": [
        {
          "internalType": "address",
          "name": "_miningAddress",
          "type": "address"
        },
        {
          "internalType": "uint256",
          "name": "_blockNumber",
          "type": "uint256"
        }
      ],
      "name": "maliceReportedForBlock",
      "outputs": [
        {
          "internalType": "address[]",
          "name": "",
          "type": "address[]"
        }
      ],
      "stateMutability": "view",
      "type": "function"
    },
    {
      "inputs": [],
      "name": "maxValidators",
      "outputs": [
        {
          "internalType": "uint256",
          "name": "",
          "type": "uint256"
        }
      ],
      "stateMutability": "view",
      "type": "function"
    },
    {
      "inputs": [
        {
          "internalType": "address",
          "name": "",
          "type": "address"
        }
      ],
      "name": "miningByStakingAddress",
      "outputs": [
        {
          "internalType": "address",
          "name": "",
          "type": "address"
        }
      ],
      "stateMutability": "view",
      "type": "function"
    },
    {
      "inputs": [],
      "name": "newValidatorSet",
      "outputs": [],
      "stateMutability": "nonpayable",
      "type": "function"
    },
    {
      "inputs": [
        {
          "internalType": "address",
          "name": "_stakingAddress",
          "type": "address"
        }
      ],
      "name": "notifyUnavailability",
      "outputs": [],
      "stateMutability": "nonpayable",
      "type": "function"
    },
    {
      "inputs": [],
      "name": "owner",
      "outputs": [
        {
          "internalType": "address",
          "name": "",
          "type": "address"
        }
      ],
      "stateMutability": "view",
      "type": "function"
    },
    {
      "inputs": [
        {
          "internalType": "address",
          "name": "_stakingAddress",
          "type": "address"
        }
      ],
      "name": "publicKeyByStakingAddress",
      "outputs": [
        {
          "internalType": "bytes",
          "name": "",
          "type": "bytes"
        }
      ],
      "stateMutability": "view",
      "type": "function"
    },
    {
      "inputs": [],
      "name": "randomContract",
      "outputs": [
        {
          "internalType": "address",
          "name": "",
          "type": "address"
        }
      ],
      "stateMutability": "view",
      "type": "function"
    },
    {
      "inputs": [
        {
          "internalType": "address[]",
          "name": "_miningAddresses",
          "type": "address[]"
        }
      ],
      "name": "removeMaliciousValidators",
      "outputs": [],
      "stateMutability": "nonpayable",
      "type": "function"
    },
    {
      "inputs": [],
      "name": "renounceOwnership",
      "outputs": [],
      "stateMutability": "nonpayable",
      "type": "function"
    },
    {
      "inputs": [
        {
          "internalType": "address",
          "name": "_maliciousMiningAddress",
          "type": "address"
        },
        {
          "internalType": "uint256",
          "name": "_blockNumber",
          "type": "uint256"
        },
        {
          "internalType": "bytes",
          "name": "",
          "type": "bytes"
        }
      ],
      "name": "reportMalicious",
      "outputs": [],
      "stateMutability": "nonpayable",
      "type": "function"
    },
    {
      "inputs": [
        {
          "internalType": "address",
          "name": "_reportingMiningAddress",
          "type": "address"
        },
        {
          "internalType": "address",
          "name": "_maliciousMiningAddress",
          "type": "address"
        },
        {
          "internalType": "uint256",
          "name": "_blockNumber",
          "type": "uint256"
        }
      ],
      "name": "reportMaliciousCallable",
      "outputs": [
        {
          "internalType": "bool",
          "name": "callable",
          "type": "bool"
        },
        {
          "internalType": "bool",
          "name": "removeReportingValidator",
          "type": "bool"
        }
      ],
      "stateMutability": "view",
      "type": "function"
    },
    {
      "inputs": [
        {
          "internalType": "address",
          "name": "",
          "type": "address"
        },
        {
          "internalType": "uint256",
          "name": "",
          "type": "uint256"
        }
      ],
      "name": "reportingCounter",
      "outputs": [
        {
          "internalType": "uint256",
          "name": "",
          "type": "uint256"
        }
      ],
      "stateMutability": "view",
      "type": "function"
    },
    {
      "inputs": [
        {
          "internalType": "uint256",
          "name": "",
          "type": "uint256"
        }
      ],
      "name": "reportingCounterTotal",
      "outputs": [
        {
          "internalType": "uint256",
          "name": "",
          "type": "uint256"
        }
      ],
      "stateMutability": "view",
      "type": "function"
    },
    {
      "inputs": [
        {
          "internalType": "uint256",
          "name": "_banDuration",
          "type": "uint256"
        }
      ],
      "name": "setBanDuration",
      "outputs": [],
      "stateMutability": "nonpayable",
      "type": "function"
    },
    {
      "inputs": [
        {
          "internalType": "address",
          "name": "_miningAddress",
          "type": "address"
        },
        {
          "internalType": "uint256",
          "name": "_bannedUntil",
          "type": "uint256"
        }
      ],
      "name": "setBannedUntil",
      "outputs": [],
      "stateMutability": "nonpayable",
      "type": "function"
    },
    {
      "inputs": [
        {
          "internalType": "address",
          "name": "_address",
          "type": "address"
        }
      ],
      "name": "setBlockRewardContract",
      "outputs": [],
      "stateMutability": "nonpayable",
      "type": "function"
    },
    {
      "inputs": [
        {
          "internalType": "bool",
          "name": "_healthy",
          "type": "bool"
        }
      ],
      "name": "setIsFullHealth",
      "outputs": [],
      "stateMutability": "nonpayable",
      "type": "function"
    },
    {
      "inputs": [
        {
          "internalType": "address",
          "name": "_address",
          "type": "address"
        }
      ],
      "name": "setKeyGenHistoryContract",
      "outputs": [],
      "stateMutability": "nonpayable",
      "type": "function"
    },
    {
      "inputs": [
        {
          "internalType": "uint256",
          "name": "_maxValidators",
          "type": "uint256"
        }
      ],
      "name": "setMaxValidators",
      "outputs": [],
      "stateMutability": "nonpayable",
      "type": "function"
    },
    {
      "inputs": [
        {
          "internalType": "address",
          "name": "_address",
          "type": "address"
        }
      ],
      "name": "setRandomContract",
      "outputs": [],
      "stateMutability": "nonpayable",
      "type": "function"
    },
    {
      "inputs": [
        {
          "internalType": "address",
          "name": "_miningAddress",
          "type": "address"
        },
        {
          "internalType": "address",
          "name": "_stakingAddress",
          "type": "address"
        }
      ],
      "name": "setStakingAddress",
      "outputs": [],
      "stateMutability": "nonpayable",
      "type": "function"
    },
    {
      "inputs": [
        {
          "internalType": "address",
          "name": "_address",
          "type": "address"
        }
      ],
      "name": "setStakingContract",
      "outputs": [],
      "stateMutability": "nonpayable",
      "type": "function"
    },
    {
      "inputs": [
        {
          "internalType": "address",
          "name": "_validator",
          "type": "address"
        },
        {
          "internalType": "uint256",
          "name": "_timestamp",
          "type": "uint256"
        }
      ],
      "name": "setValidatorAvailableSince",
      "outputs": [],
      "stateMutability": "nonpayable",
      "type": "function"
    },
    {
      "inputs": [
        {
          "internalType": "uint256",
          "name": "_seconds",
          "type": "uint256"
        }
      ],
      "name": "setValidatorInactivityThreshold",
      "outputs": [],
      "stateMutability": "nonpayable",
      "type": "function"
    },
    {
      "inputs": [
        {
          "internalType": "bytes16",
          "name": "_ip",
          "type": "bytes16"
        },
        {
          "internalType": "bytes2",
          "name": "_port",
          "type": "bytes2"
        }
      ],
      "name": "setValidatorInternetAddress",
      "outputs": [],
      "stateMutability": "nonpayable",
      "type": "function"
    },
    {
      "inputs": [
        {
          "internalType": "address",
          "name": "",
          "type": "address"
        }
      ],
      "name": "stakingByMiningAddress",
      "outputs": [
        {
          "internalType": "address",
          "name": "",
          "type": "address"
        }
      ],
      "stateMutability": "view",
      "type": "function"
    },
    {
      "inputs": [],
      "name": "stakingContract",
      "outputs": [
        {
          "internalType": "contract IStakingHbbft",
          "name": "",
          "type": "address"
        }
      ],
      "stateMutability": "view",
      "type": "function"
    },
    {
      "inputs": [
        {
          "internalType": "address",
          "name": "newOwner",
          "type": "address"
        }
      ],
      "name": "transferOwnership",
      "outputs": [],
      "stateMutability": "nonpayable",
      "type": "function"
    },
    {
      "inputs": [
        {
          "internalType": "address",
          "name": "",
          "type": "address"
        }
      ],
      "name": "validatorAvailableSince",
      "outputs": [
        {
          "internalType": "uint256",
          "name": "",
          "type": "uint256"
        }
      ],
      "stateMutability": "view",
      "type": "function"
    },
    {
      "inputs": [
        {
          "internalType": "address",
          "name": "",
          "type": "address"
        }
      ],
      "name": "validatorAvailableSinceLastWrite",
      "outputs": [
        {
          "internalType": "uint256",
          "name": "",
          "type": "uint256"
        }
      ],
      "stateMutability": "view",
      "type": "function"
    },
    {
      "inputs": [
        {
          "internalType": "address",
          "name": "",
          "type": "address"
        }
      ],
      "name": "validatorCounter",
      "outputs": [
        {
          "internalType": "uint256",
          "name": "",
          "type": "uint256"
        }
      ],
      "stateMutability": "view",
      "type": "function"
    },
    {
      "inputs": [],
      "name": "validatorInactivityThreshold",
      "outputs": [
        {
          "internalType": "uint256",
          "name": "",
          "type": "uint256"
        }
      ],
      "stateMutability": "view",
      "type": "function"
    },
    {
      "stateMutability": "payable",
      "type": "receive"
    }
  ],
  "bytecode": "0x6080604052348015600f57600080fd5b506016601a565b60ca565b7ff0c57e16840df040f15088dc2f81fe391c3923bec73e23a9662efc9c229c6a00805468010000000000000000900460ff161560695760405163f92ee8a960e01b815260040160405180910390fd5b80546001600160401b039081161460c75780546001600160401b0319166001600160401b0390811782556040519081527fc7f505b2f371ae2175ee4913f4499e1f2633a7b5936321eed1cdaeb6115181d29060200160405180910390a15b50565b61493c806100d96000396000f3fe6080604052600436106103c65760003560e01c80638da5cb5b116101f2578063b47aef1f1161010d578063ed7cba62116100a0578063f2fde38b1161006f578063f2fde38b14610d19578063f51726f014610d39578063facd743b14610d59578063fb64aac114610d8957600080fd5b8063ed7cba6214610c97578063ee99205c14610cc4578063eebc7a3914610ce4578063efd0494714610cf957600080fd5b8063c9e9694d116100dc578063c9e9694d14610be0578063ccf69e9b14610c0d578063d2dd2f1614610c2d578063e6d8d31814610c5a57600080fd5b8063b47aef1f14610b6b578063b56b366b14610b8b578063b7ab4db514610bab578063c476dd4014610bc057600080fd5b8063a49904e511610185578063a92252ae11610154578063a92252ae14610ad0578063ac5ba7bc14610b09578063ade1900a14610b29578063b41832e414610b3e57600080fd5b8063a49904e514610a18578063a670eb5614610a30578063a68b5b7614610a67578063a881c5fd14610a9757600080fd5b80639d6fc1d1116101c15780639d6fc1d11461097b5780639dd373b91461099b578063a0d16cad146109d8578063a42bdee9146109f857600080fd5b80638da5cb5b146108e05780638e68dce41461091d5780639881933d1461093b5780639bb2ea5a1461095b57600080fd5b806343bcce9f116102e257806360e5c520116102755780637528621111610244578063752862111461084c57806385602ad514610861578063857cdbb81461088357806387eed76a146108b057600080fd5b806360e5c520146107d45780636b949ae814610801578063715018a614610817578063717662ee1461082c57600080fd5b8063581e93d9116102b1578063581e93d91461075d5780635836d08a1461077d5780635ccee1de146107aa5780635d5fcbce146107bf57600080fd5b806343bcce9f146106b7578063464b5610146106d757806351cc6646146106f757806356b54bae1461073d57600080fd5b80631761edb11161035a57806327a3e16b1161032957806327a3e16b146106175780633755243b146106545780633f1b5d1f1461068c578063426d3cd6146106a157600080fd5b80631761edb1146105675780631a7fa237146105875780631d0cd4c6146105b45780631ee4d0bc146105e157600080fd5b80630933e3a7116103965780630933e3a7146104af5780630a4c1072146104ec57806314e28d901461050c578063155ef6031461053957600080fd5b8062535175146103d2578063030360d2146104255780630636bdac1461046b57806308ac52561461048b57600080fd5b366103cd57005b600080fd5b3480156103de57600080fd5b506104086103ed366004614024565b600b602052600090815260409020546001600160a01b031681565b6040516001600160a01b0390911681526020015b60405180910390f35b34801561043157600080fd5b50610469610440366004614048565b6001600160a01b0390911660009081526005602090815260408083208490556006909152902055565b005b34801561047757600080fd5b506104696104863660046140c0565b610da9565b34801561049757600080fd5b506104a160155481565b60405190815260200161041c565b3480156104bb57600080fd5b506104696104ca366004614024565b600c80546001600160a01b0319166001600160a01b0392909216919091179055565b3480156104f857600080fd5b50610469610507366004614102565b610e3e565b34801561051857600080fd5b5061052c610527366004614024565b610e72565b60405161041c919061413b565b34801561054557600080fd5b50610469610554366004614171565b6018805460ff1916911515919091179055565b34801561057357600080fd5b506104a16105823660046141f9565b61105b565b34801561059357600080fd5b506104a16105a2366004614024565b60066020526000908152604090205481565b3480156105c057600080fd5b506104a16105cf366004614024565b60046020526000908152604090205481565b3480156105ed57600080fd5b506104086105fc366004614024565b600f602052600090815260409020546001600160a01b031681565b34801561062357600080fd5b50610469610632366004614024565b600880546001600160a01b0319166001600160a01b0392909216919091179055565b34801561066057600080fd5b506104a161066f366004614048565b600d60209081526000928352604080842090915290825290205481565b34801561069857600080fd5b5061046961109b565b3480156106ad57600080fd5b506104a160165481565b3480156106c357600080fd5b506104696106d236600461429f565b6110a5565b3480156106e357600080fd5b506104696106f23660046142c1565b611215565b34801561070357600080fd5b50610469610712366004614048565b6001600160a01b03919091166000908152601460209081526040808320939093556013905220429055565b34801561074957600080fd5b50600854610408906001600160a01b031681565b34801561076957600080fd5b5061046961077836600461439b565b61158f565b34801561078957600080fd5b506104a1610798366004614024565b60056020526000908152604090205481565b3480156107b657600080fd5b506104696115d3565b3480156107cb57600080fd5b506000546104a1565b3480156107e057600080fd5b506104a16107ef366004614024565b60146020526000908152604090205481565b34801561080d57600080fd5b506104a160175481565b34801561082357600080fd5b50610469611615565b34801561083857600080fd5b50610469610847366004614024565b611627565b34801561085857600080fd5b5061046961168a565b34801561086d57600080fd5b50610876611809565b60405161041c91906143b4565b34801561088f57600080fd5b506108a361089e366004614024565b61186b565b60405161041c9190614425565b3480156108bc57600080fd5b506108d06108cb366004614024565b6118fb565b604051901515815260200161041c565b3480156108ec57600080fd5b507f9016d09d72d40fdae2fd8ceac6b6234c7706214fd39c1cd1e609a0528c199300546001600160a01b0316610408565b34801561092957600080fd5b506010546001600160a01b0316610408565b34801561094757600080fd5b506108a3610956366004614024565b611aea565b34801561096757600080fd5b5061046961097636600461439b565b611b1d565b34801561098757600080fd5b506108d0610996366004614024565b611b5a565b3480156109a757600080fd5b506104696109b6366004614024565b601080546001600160a01b0319166001600160a01b0392909216919091179055565b3480156109e457600080fd5b506108d06109f3366004614024565b611bc7565b348015610a0457600080fd5b50610469610a13366004614458565b611bf2565b348015610a2457600080fd5b5060185460ff166108d0565b348015610a3c57600080fd5b50610a50610a4b3660046144c1565b611cd6565b60408051921515835290151560208301520161041c565b348015610a7357600080fd5b506108d0610a82366004614024565b600a6020526000908152604090205460ff1681565b348015610aa357600080fd5b506108d0610ab2366004614024565b6001600160a01b031660009081526006602052604090205442111590565b348015610adc57600080fd5b506108d0610aeb366004614024565b6001600160a01b031660009081526005602052604090205442111590565b348015610b1557600080fd5b50610469610b2436600461439b565b611ef7565b348015610b3557600080fd5b50610469611f58565b348015610b4a57600080fd5b506104a1610b59366004614024565b60126020526000908152604090205481565b348015610b7757600080fd5b50601154610408906001600160a01b031681565b348015610b9757600080fd5b50610876610ba6366004614048565b612694565b348015610bb757600080fd5b50610876612713565b348015610bcc57600080fd5b50610469610bdb366004614502565b612773565b348015610bec57600080fd5b506104a1610bfb366004614024565b60076020526000908152604090205481565b348015610c1957600080fd5b50600c54610408906001600160a01b031681565b348015610c3957600080fd5b506104a1610c4836600461439b565b600e6020526000908152604090205481565b348015610c6657600080fd5b50610469610c75366004614024565b601180546001600160a01b0319166001600160a01b0392909216919091179055565b348015610ca357600080fd5b506104a1610cb2366004614024565b60136020526000908152604090205481565b348015610cd057600080fd5b50601054610408906001600160a01b031681565b348015610cf057600080fd5b5061087661296a565b348015610d0557600080fd5b506104a1610d1436600461439b565b6129ca565b348015610d2557600080fd5b50610469610d34366004614024565b612a27565b348015610d4557600080fd5b506108d0610d54366004614024565b612a62565b348015610d6557600080fd5b506108d0610d74366004614024565b60096020526000908152604090205460ff1681565b348015610d9557600080fd5b506108d0610da4366004614024565b612ab9565b3373fffffffffffffffffffffffffffffffffffffffe14610ddc576040516282b42960e81b815260040160405180910390fd5b610e3a8282808060200260200160405190810160405280939291908181526020018383602002808284376000920191909152507f696e6163746976650000000000000000000000000000000000000000000000009250612b17915050565b5050565b6010546001600160a01b03163314610e68576040516282b42960e81b815260040160405180910390fd5b610e3a8282612b7a565b6000610e7d82612ab9565b610e8957506000919050565b60115460408051637be02c2b60e01b8152815160009384936001600160a01b0390911692637be02c2b92600480830193928290030181865afa158015610ed3573d6000803e3d6000fd5b505050506040513d601f19601f82011682018060405250810190610ef791906145b0565b60015491935091506fffffffffffffffffffffffffffffffff83161015610fac576011546040516399de1a4360e01b81526001600160a01b03868116600483015260009216906399de1a4390602401600060405180830381865afa158015610f63573d6000803e3d6000fd5b505050506040513d6000823e601f3d908101601f19168201604052610f8b91908101906145e3565b90508051600003610fa157506001949350505050565b506002949350505050565b6001546fffffffffffffffffffffffffffffffff8216101561105157601154604051631baeec3f60e31b81526001600160a01b0386811660048301529091169063dd7761f890602401602060405180830381865afa158015611012573d6000803e3d6000fd5b505050506040513d601f19601f820116820180604052508101906110369190614677565b600003611047575060039392505050565b5060049392505050565b5060059392505050565b600061109384848460405160200161107591815260200190565b6040516020818303038152906040528051906020012060001c612d18565b949350505050565b6110a3612d81565b565b6110ae33612a62565b6110cb5760405163a82bfa5560e01b815260040160405180910390fd5b4382106110eb576040516341d852df60e01b815260040160405180910390fd5b436110f78360106146a6565b11611115576040516310548f8360e01b815260040160405180910390fd5b808240146111365760405163fe1864e160e01b815260040160405180910390fd5b3360009081526014602090815260408083204290819055601383528184208190556005909252909120548111156111d757601054336000908152600f602052604090819020549051631ec56e5360e21b81526001600160a01b039182166004820152911690637b15b94c90602401600060405180830381600087803b1580156111be57600080fd5b505af11580156111d2573d6000803e3d6000fd5b505050505b60408051338152602081018390527f705d65dbee06de60e6465d68371ce849d5a1ead53e53d01a413b2b01393aa022910160405180910390a1505050565b7ff0c57e16840df040f15088dc2f81fe391c3923bec73e23a9662efc9c229c6a00805468010000000000000000810460ff16159067ffffffffffffffff166000811580156112605750825b905060008267ffffffffffffffff16600114801561127d5750303b155b90508115801561128b575080155b156112a95760405163f92ee8a960e01b815260040160405180910390fd5b845467ffffffffffffffff1916600117855583156112dd57845468ff00000000000000001916680100000000000000001785555b6001600160a01b038f1615806112fa57506001600160a01b038e16155b8061130c57506001600160a01b038d16155b8061131e57506001600160a01b038c16155b8061133057506001600160a01b038b16155b1561134e5760405163d92e233d60e01b815260040160405180910390fd5b6000889003611370576040516322b8b72360e21b815260040160405180910390fd5b8786146113905760405163ac9e459360e01b815260040160405180910390fd5b6113998f612f26565b8d600860006101000a8154816001600160a01b0302191690836001600160a01b031602179055508c600c60006101000a8154816001600160a01b0302191690836001600160a01b031602179055508b601060006101000a8154816001600160a01b0302191690836001600160a01b031602179055508a601160006101000a8154816001600160a01b0302191690836001600160a01b031602179055508960178190555060005b888110156115285760008a8a8381811061145b5761145b6146b9565b90506020020160208101906114709190614024565b60008054600180820183557f290decd9548b62a8d60345a988386fc84ba6bc95484008f6362f93160ef3e56390910180546001600160a01b0319166001600160a01b0385169081179091558252600960209081526040808420805460ff19169093179092556012905281208054929350906114ea836146cf565b919050555061151f818a8a85818110611505576115056146b9565b905060200201602081019061151a9190614024565b612b7a565b5060010161143f565b506019601555600c601655831561157e57845468ff000000000000000019168555604051600181527fc7f505b2f371ae2175ee4913f4499e1f2633a7b5936321eed1cdaeb6115181d29060200160405180910390a15b505050505050505050505050505050565b611597612f37565b60168190556040518181527fd96fea9b050464a608f3e2c09daa82bf1d666bc65655bf9f24b576ad5efc6f6f906020015b60405180910390a150565b6008546001600160a01b031633146115fd576040516282b42960e81b815260040160405180910390fd5b6040805160008152602081019091526110a390612f92565b61161d612f37565b6110a36000613664565b6010546001600160a01b03163314611651576040516282b42960e81b815260040160405180910390fd5b6001600160a01b039081166000908152600b60209081526040808320549093168252601481528282208290556013905220429055565b50565b6008546001600160a01b031633146116b4576040516282b42960e81b815260040160405180910390fd5b600154156116cc576116c46136d5565b6116cc612d81565b601060009054906101000a90046001600160a01b03166001600160a01b031663ee435f556040518163ffffffff1660e01b8152600401600060405180830381600087803b15801561171c57600080fd5b505af1158015611730573d6000803e3d6000fd5b50505050601160009054906101000a90046001600160a01b03166001600160a01b0316632c6f194d6040518163ffffffff1660e01b8152600401600060405180830381600087803b15801561178457600080fd5b505af1158015611798573d6000803e3d6000fd5b50505050600160006117aa9190613f8c565b601054604051638247a23960e01b81524260048201526001600160a01b0390911690638247a23990602401600060405180830381600087803b1580156117ef57600080fd5b505af1158015611803573d6000803e3d6000fd5b50505050565b6060600280548060200260200160405190810160405280929190818152602001828054801561186157602002820191906000526020600020905b81546001600160a01b03168152600190910190602001808311611843575b5050505050905090565b6010546001600160a01b038281166000908152600f602052604090819020549051634e9b426d60e01b815290821660048201526060929190911690634e9b426d906024015b600060405180830381865afa1580156118cd573d6000803e3d6000fd5b505050506040513d6000823e601f3d908101601f191682016040526118f591908101906145e3565b92915050565b6001600160a01b038116600090815260096020526040812054819060ff16801561193c57506001600160a01b03831660009081526005602052604090205442115b9050601060009054906101000a90046001600160a01b03166001600160a01b031663794c0c686040518163ffffffff1660e01b8152600401602060405180830381865afa158015611991573d6000803e3d6000fd5b505050506040513d601f19601f820116820180604052508101906119b59190614677565b6000036119c25792915050565b60105460408051634f9a8d8f60e01b815290516005926001600160a01b031691634f9a8d8f9160048083019260209291908290030181865afa158015611a0c573d6000803e3d6000fd5b505050506040513d601f19601f82011682018060405250810190611a309190614677565b611a3a91906146fe565b601060009054906101000a90046001600160a01b03166001600160a01b0316639b03d7446040518163ffffffff1660e01b8152600401602060405180830381865afa158015611a8d573d6000803e3d6000fd5b505050506040513d601f19601f82011682018060405250810190611ab19190614677565b611abb9042614712565b116118f5576001600160a01b0383166000908152600a602052604090205460ff16818061109357509392505050565b601054604051634e9b426d60e01b81526001600160a01b0383811660048301526060921690634e9b426d906024016118b0565b611b25612f37565b60158190556040518181527fd3c3674d241eb3fb81da09f8c56bdf72b08c8094de786997b95cde95d0ecfff5906020016115c8565b6001600160a01b038082166000908152600b602090815260408083205490931680835260149091529181205490919015611b975750600092915050565b6001600160a01b038116600090815260136020526040812054611bba9042614712565b6017541115949350505050565b6001600160a01b03811660009081526009602052604081205460ff16806118f557506118f582612ab9565b336000908152600f60205260409020546001600160a01b031680611c30576040516303a949c760e61b81523360048201526024015b60405180910390fd5b601054604051637b0a0f9b60e01b81526001600160a01b0383811660048301526fffffffffffffffffffffffffffffffff19861660248301527fffff0000000000000000000000000000000000000000000000000000000000008516604483015290911690637b0a0f9b906064015b600060405180830381600087803b158015611cb957600080fd5b505af1158015611ccd573d6000803e3d6000fd5b50505050505050565b600080611ce2856118fb565b611cf157506000905080611eef565b611cfa846118fb565b611d0957506000905080611eef565b6000546001811115611e1c5760105460408051630f29818d60e31b815290516000926001600160a01b03169163794c0c689160048083019260209291908290030181865afa158015611d5f573d6000803e3d6000fd5b505050506040513d601f19601f82011682018060405250810190611d839190614677565b6001600160a01b0388166000908152600d60209081526040808320848452825280832054600e9092528220549293509190828210611de857611dc6600186614712565b611dd08484614712565b611ddb90600a614725565b611de591906146fe565b90505b611df3856032614725565b83118015611e0057508083115b15611e175760006001965096505050505050611eef565b505050505b4380851115611e3357600080935093505050611eef565b60648082118015611e4c5750611e498183614712565b86105b15611e605760008094509450505050611eef565b6001600160a01b03871660009081526003602090815260408083208984529091528120805490915b81811015611ee0578a6001600160a01b0316838281548110611eac57611eac6146b9565b6000918252602090912001546001600160a01b031603611ed85760008097509750505050505050611eef565b600101611e88565b50600160009650965050505050505b935093915050565b611eff612f37565b62093a80811015611f2357604051635d9561d360e11b815260040160405180910390fd5b60178190556040518181527f578d5da2255dc6640f3ba0d8ce1bc20877ca696956ebe3c333a3eb8f49fb395f906020016115c8565b6008546001600160a01b03163314611f82576040516282b42960e81b815260040160405180910390fd5b601060009054906101000a90046001600160a01b03166001600160a01b03166322e3d9866040518163ffffffff1660e01b8152600401602060405180830381865afa158015611fd5573d6000803e3d6000fd5b505050506040513d601f19601f82011682018060405250810190611ff99190614677565b4210156120195760405163112bb3df60e11b815260040160405180910390fd5b601060009054906101000a90046001600160a01b03166001600160a01b031663a5d54f656040518163ffffffff1660e01b8152600401600060405180830381865afa15801561206c573d6000803e3d6000fd5b505050506040513d6000823e601f3d908101601f19168201604052612094919081019061473c565b51156110a357600154156110a357600180546000916120b291614712565b67ffffffffffffffff8111156120ca576120ca61418e565b6040519080825280602002602001820160405280156120f3578160200160208202803683370190505b50905060008080601160009054906101000a90046001600160a01b03166001600160a01b0316637be02c2b6040518163ffffffff1660e01b81526004016040805180830381865afa15801561214c573d6000803e3d6000fd5b505050506040513d601f19601f8201168201806040525081019061217091906145b0565b9150915060005b60015481101561242d57600060018281548110612196576121966146b9565b60009182526020822001546001546001600160a01b0390911692506fffffffffffffffffffffffffffffffff86161015612246576011546040516399de1a4360e01b81526001600160a01b03848116600483015260009216906399de1a4390602401600060405180830381865afa158015612215573d6000803e3d6000fd5b505050506040513d6000823e601f3d908101601f1916820160405261223d91908101906145e3565b511190506122d5565b6001546fffffffffffffffffffffffffffffffff851610156122d557601154604051631baeec3f60e31b81526001600160a01b038481166004830152600092169063dd7761f890602401602060405180830381865afa1580156122ad573d6000803e3d6000fd5b505050506040513d601f19601f820116820180604052508101906122d19190614677565b1190505b801561234857600183815481106122ee576122ee6146b9565b9060005260206000200160009054906101000a90046001600160a01b031687878151811061231e5761231e6146b9565b6001600160a01b039092166020928302919091019091015285612340816146cf565b965050612423565b6010546001600160a01b038381166000908152600f602052604090819020549051631dbe84a360e11b81529082166004820152911690633b7d094690602401600060405180830381600087803b1580156123a157600080fd5b505af11580156123b5573d6000803e3d6000fd5b5050506001600160a01b03831660009081526014602090815260408083208390556013909152902042905550604080516001600160a01b03841681524260208201527f7ec36d1734626f8b3686f8791130187e1633c843b1995003e788cd2b33d56903910160405180910390a15b5050600101612177565b50601154604051632f8ba4bf60e11b81526001600160a01b0390911690635f17497e9061245f906001906004016147cb565b600060405180830381600087803b15801561247957600080fd5b505af115801561248d573d6000803e3d6000fd5b50505050601160009054906101000a90046001600160a01b03166001600160a01b031663adddc0cf6040518163ffffffff1660e01b8152600401600060405180830381600087803b1580156124e157600080fd5b505af11580156124f5573d6000803e3d6000fd5b5050505060008367ffffffffffffffff8111156125145761251461418e565b60405190808252806020026020018201604052801561253d578160200160208202803683370190505b50905060005b848110156125975785818151811061255d5761255d6146b9565b6020026020010151828281518110612577576125776146b9565b6001600160a01b0390921660209283029190910190910152600101612543565b50601060009054906101000a90046001600160a01b03166001600160a01b031663adddc0cf6040518163ffffffff1660e01b8152600401600060405180830381600087803b1580156125e857600080fd5b505af11580156125fc573d6000803e3d6000fd5b505050506000601060009054906101000a90046001600160a01b03166001600160a01b031663a5d54f656040518163ffffffff1660e01b8152600401600060405180830381865afa158015612655573d6000803e3d6000fd5b505050506040513d6000823e601f3d908101601f1916820160405261267d919081019061473c565b51111561268d5761268d81612f92565b5050505050565b6001600160a01b038216600090815260036020908152604080832084845282529182902080548351818402810184019094528084526060939283018282801561270657602002820191906000526020600020905b81546001600160a01b031681526001909101906020018083116126e8575b5050505050905092915050565b60606000805480602002602001604051908101604052809291908181526020018280548015611861576020028201919060005260206000209081546001600160a01b03168152600190910190602001808311611843575050505050905090565b3361277d816137ac565b60008061278b838888611cd6565b915091508161280b578015612803576040805160018082528183019092526000916020808301908036833701905050905083816000815181106127d0576127d06146b9565b60200260200101906001600160a01b031690816001600160a01b03168152505061280181637370616d60e01b612b17565b505b505050611803565b6001600160a01b0387811660008181526003602090815260408083208b8452825280832080546001810182558185529383902090930180546001600160a01b0319169589169586179055805194855290840192909252908201889052907f729a19138e072a5a8d3a56d74ae0b5c84530f09aacd6e12b24c5b2fdc3f8a3d09060600160405180910390a1600080549060038211156128c3576128ae826002614725565b83546128bb906003614725565b1190506128d6565b825482906128d2906002614725565b1190505b801561295e57604080516001808252818301909252600091602080830190803683370190505090508a81600081518110612912576129126146b9565b60200260200101906001600160a01b031690816001600160a01b03168152505061295c817f6d616c6963696f75730000000000000000000000000000000000000000000000612b17565b505b50505050505050505050565b60606001805480602002602001604051908101604052809291908181526020018280548015611861576020028201919060005260206000209081546001600160a01b03168152600190910190602001808311611843575050505050905090565b6000816000036129ed5760405163a63671a560e01b815260040160405180910390fd5b60048210156129fa575090565b6003612a07600184614712565b612a1191906146fe565b612a1c906003614725565b6118f59060016146a6565b612a2f612f37565b6001600160a01b038116612a5957604051631e4fbdf760e01b815260006004820152602401611c27565b61168781613664565b6001600160a01b038181166000908152600f6020526040812054909116612a8b57506000919050565b6001600160a01b03821660009081526014602052604090205415612ab157506000919050565b506001919050565b600154600090815b81811015612b0d5760018181548110612adc57612adc6146b9565b6000918252602090912001546001600160a01b0390811690851603612b05575060019392505050565b600101612ac1565b5060009392505050565b60005b8251811015612b7557612b46838281518110612b3857612b386146b9565b602002602001015183613884565b15612b6d57612b6d838281518110612b6057612b606146b9565b6020026020010151613ab3565b600101612b1a565b505050565b6001600160a01b038216612ba15760405163d92e233d60e01b815260040160405180910390fd5b6001600160a01b038116612bc85760405163d92e233d60e01b815260040160405180910390fd5b806001600160a01b0316826001600160a01b031603612bfa576040516307d9394560e01b815260040160405180910390fd5b6001600160a01b038181166000908152600b602052604090205416151580612c3b57506001600160a01b038181166000908152600f60205260409020541615155b15612c64576040516326d65e0360e21b81526001600160a01b0382166004820152602401611c27565b6001600160a01b038281166000908152600b602052604090205416151580612ca557506001600160a01b038281166000908152600f60205260409020541615155b15612cce5760405163342ed6a360e01b81526001600160a01b0383166004820152602401611c27565b6001600160a01b039081166000818152600b602090815260408083208054959096166001600160a01b03199586168117909655948252600f90529290922080549091169091179055565b600080612d25848461480f565b90506000805b828211612d6b57868181518110612d4457612d446146b9565b602002602001015182612d5791906146a6565b915080612d63816146cf565b915050612d2b565b612d76600182614712565b979650505050505050565b6060600080805480602002602001604051908101604052809291908181526020018280548015612dda57602002820191906000526020600020905b81546001600160a01b03168152600190910190602001808311612dbc575b50505050509150600090505b8151811015612e4157600060096000848481518110612e0757612e076146b9565b6020908102919091018101516001600160a01b03168252810191909152604001600020805460ff1916911515919091179055600101612de6565b60018054612e5191600091613faa565b506000805480602002602001604051908101604052809291908181526020018280548015612ea857602002820191906000526020600020905b81546001600160a01b03168152600190910190602001808311612e8a575b50505050509150600090505b8151811015610e3a576000828281518110612ed157612ed16146b9565b6020908102919091018101516001600160a01b0381166000908152600983526040808220805460ff19166001179055601290935291822080549193509091612f18836146cf565b909155505050600101612eb4565b612f2e613b9a565b61168781613be8565b33612f697f9016d09d72d40fdae2fd8ceac6b6234c7706214fd39c1cd1e609a0528c199300546001600160a01b031690565b6001600160a01b0316146110a35760405163118cdaa760e01b8152336004820152602401611c27565b6010546040805163a5d54f6560e01b815290516000926001600160a01b03169163a5d54f6591600480830192869291908290030181865afa158015612fdb573d6000803e3d6000fd5b505050506040513d6000823e601f3d908101601f19168201604052613003919081019061473c565b90506000601554825110158061301857508151155b61302b5761302682516129ca565b61302f565b6015545b9050808251111561346a5781516010546040805163957950a760e01b8152905160009283926001600160a01b039091169163957950a79160048082019286929091908290030181865afa15801561308a573d6000803e3d6000fd5b505050506040513d6000823e601f3d908101601f191682016040526130b29190810190614823565b9150915060008467ffffffffffffffff8111156130d1576130d161418e565b6040519080825280602002602001820160405280156130fa578160200160208202803683370190505b5090506000805b885181101561327f5760005b8681101561327657898281518110613127576131276146b9565b60200260200101516001600160a01b031689828151811061314a5761314a6146b9565b60200260200101516001600160a01b03160361326e57898281518110613172576131726146b9565b602002602001015184848151811061318c5761318c6146b9565b6001600160a01b0390921660209283029190910190910152826131ae816146cf565b9350508581815181106131c3576131c36146b9565b6020026020010151856131d69190614712565b9450866131e2816148bc565b9750508887815181106131f7576131f76146b9565b6020026020010151898281518110613211576132116146b9565b60200260200101906001600160a01b031690816001600160a01b031681525050858781518110613243576132436146b9565b602002602001015186828151811061325d5761325d6146b9565b602002602001018181525050613276565b60010161310d565b50600101613101565b50600c5460408051634191031360e11b815290516000926001600160a01b03169163832206269160048083019260209291908290030181865afa1580156132ca573d6000803e3d6000fd5b505050506040513d601f19601f820116820180604052508101906132ee9190614677565b9050600085511180156133015750600084115b1561345f5760005b835181101561345557604080514284186020820152016040516020818303038152906040528051906020012060001c91506000613347878785612d18565b905089818151811061335b5761335b6146b9565b6020026020010151858381518110613375576133756146b9565b60200260200101906001600160a01b031690816001600160a01b0316815250508681815181106133a7576133a76146b9565b6020026020010151866133ba9190614712565b9550876133c6816148bc565b9850508988815181106133db576133db6146b9565b60200260200101518a82815181106133f5576133f56146b9565b60200260200101906001600160a01b031690816001600160a01b031681525050868881518110613427576134276146b9565b6020026020010151878281518110613441576134416146b9565b602090810291909101015250600101613309565b5061345f83613bf0565b505050505050613473565b61347382613bf0565b601154604051632f8ba4bf60e11b81526001600160a01b0390911690635f17497e906134a4906000906004016147cb565b600060405180830381600087803b1580156134be57600080fd5b505af11580156134d2573d6000803e3d6000fd5b50505050815160001461354857601060009054906101000a90046001600160a01b03166001600160a01b0316631555371c6040518163ffffffff1660e01b8152600401600060405180830381600087803b15801561352f57600080fd5b505af1158015613543573d6000803e3d6000fd5b505050505b601060009054906101000a90046001600160a01b03166001600160a01b03166322e3d9866040518163ffffffff1660e01b8152600401602060405180830381865afa15801561359b573d6000803e3d6000fd5b505050506040513d601f19601f820116820180604052508101906135bf9190614677565b421115612b755760105460408051631171ecc360e11b815290516001600160a01b0390921691639e72c6359183916322e3d986916004808201926020929091908290030181865afa158015613618573d6000803e3d6000fd5b505050506040513d601f19601f8201168201806040525081019061363c9190614677565b6136469042614712565b6040518263ffffffff1660e01b8152600401611c9f91815260200190565b7f9016d09d72d40fdae2fd8ceac6b6234c7706214fd39c1cd1e609a0528c19930080546001600160a01b031981166001600160a01b03848116918217845560405192169182907f8be0079c531659141344cd1fd0a4f28419497f9722a3daafe3b4186f6b6457e090600090a3505050565b60025460005b81811015613738576000600a6000600284815481106136fc576136fc6146b9565b6000918252602080832091909101546001600160a01b031683528201929092526040019020805460ff19169115159190911790556001016136db565b505060008054905b8181101561379c576001600a6000808481548110613760576137606146b9565b6000918252602080832091909101546001600160a01b031683528201929092526040019020805460ff1916911515919091179055600101613740565b60008054612b7591600291613faa565b6137b5816118fb565b6137bc5750565b60105460408051630f29818d60e31b815290516000926001600160a01b03169163794c0c689160048083019260209291908290030181865afa158015613806573d6000803e3d6000fd5b505050506040513d601f19601f8201168201806040525081019061382a9190614677565b6001600160a01b0383166000908152600d60209081526040808320848452909152812080549293509061385c836146cf565b90915550506000818152600e6020526040812080549161387b836146cf565b91905055505050565b6001600160a01b038216600090815260056020526040812054421115816138a9613e6c565b6001600160a01b03861660009081526004602052604081208054929350906138d0836146cf565b90915550506001600160a01b038516600090815260056020908152604080832084905560079091529020849055811561390e576000925050506118f5565b6001600160a01b038581166000908152600660209081526040808320859055600f90915290819020546010549151631dbe84a360e11b815290831660048201819052929190911690633b7d094690602401600060405180830381600087803b15801561397957600080fd5b505af115801561398d573d6000803e3d6000fd5b505060005491505060018190036139ab5760009450505050506118f5565b60005b81811015613aa557876001600160a01b0316600082815481106139d3576139d36146b9565b6000918252602090912001546001600160a01b031603613a9d5760006139fa600184614712565b81548110613a0a57613a0a6146b9565b600091825260208220015481546001600160a01b03909116919083908110613a3457613a346146b9565b6000918252602082200180546001600160a01b0319166001600160a01b039390931692909217909155805480613a6c57613a6c6148d3565b600082815260209020810160001990810180546001600160a01b031916905501905550600194506118f59350505050565b6001016139ae565b506000979650505050505050565b60105460408051630f29818d60e31b815290516000926001600160a01b03169163794c0c689160048083019260209291908290030181865afa158015613afd573d6000803e3d6000fd5b505050506040513d601f19601f82011682018060405250810190613b219190614677565b6000818152600e60209081526040808320546001600160a01b0387168452600d835281842085855290925282208054929055919250808210613b86576000838152600e602052604081208054839290613b7b908490614712565b909155506118039050565b50506000908152600e602052604081205550565b7ff0c57e16840df040f15088dc2f81fe391c3923bec73e23a9662efc9c229c6a005468010000000000000000900460ff166110a357604051631afcd79f60e31b815260040160405180910390fd5b612a2f613b9a565b613bfc60016000613f8c565b8051600003613df05760008054905b81811015613d91576000808281548110613c2757613c276146b9565b6000918252602080832091909101546001600160a01b03908116808452600f90925260409283902054601054935163a711e6a160e01b8152908216600482018190529294509192169063a711e6a190602401602060405180830381865afa158015613c96573d6000803e3d6000fd5b505050506040513d601f19601f82011682018060405250810190613cba91906148e9565b8015613d37575060105460405162e9ab0360e81b81526001600160a01b038381166004830181905260248301529091169063e9ab030090604401602060405180830381865afa158015613d11573d6000803e3d6000fd5b505050506040513d601f19601f82011682018060405250810190613d359190614677565b155b15613d87576001805480820182556000919091527fb10e2d527612073b26eecdfd717e6a320cf44b4afac2b0732d9fcbe2b7fa0cf60180546001600160a01b0319166001600160a01b0384161790555b5050600101613c0b565b50600154600003610e3a57600160008081548110613db157613db16146b9565b60009182526020808320909101548354600181018555938352912090910180546001600160a01b0319166001600160a01b039092169190911790555050565b805160005b81811015612b75576001600b6000858481518110613e1557613e156146b9565b6020908102919091018101516001600160a01b0390811683528282019390935260409091016000908120548454600181810187559583529290912090910180546001600160a01b0319169190921617905501613df5565b60105460408051631171ecc360e11b815290516000924292849284926001600160a01b0316916322e3d9869160048083019260209291908290030181865afa158015613ebc573d6000803e3d6000fd5b505050506040513d601f19601f82011682018060405250810190613ee09190614677565b613eea9190614712565b905080601060009054906101000a90046001600160a01b03166001600160a01b0316634f9a8d8f6040518163ffffffff1660e01b8152600401602060405180830381865afa158015613f40573d6000803e3d6000fd5b505050506040513d601f19601f82011682018060405250810190613f649190614677565b601654613f719190614725565b613f7b90846146a6565b613f8591906146a6565b9250505090565b50805460008255906000526020600020908101906116879190613ffa565b828054828255906000526020600020908101928215613fea5760005260206000209182015b82811115613fea578254825591600101919060010190613fcf565b50613ff6929150613ffa565b5090565b5b80821115613ff65760008155600101613ffb565b6001600160a01b038116811461168757600080fd5b60006020828403121561403657600080fd5b81356140418161400f565b9392505050565b6000806040838503121561405b57600080fd5b82356140668161400f565b946020939093013593505050565b60008083601f84011261408657600080fd5b50813567ffffffffffffffff81111561409e57600080fd5b6020830191508360208260051b85010111156140b957600080fd5b9250929050565b600080602083850312156140d357600080fd5b823567ffffffffffffffff8111156140ea57600080fd5b6140f685828601614074565b90969095509350505050565b6000806040838503121561411557600080fd5b82356141208161400f565b915060208301356141308161400f565b809150509250929050565b602081016006831061415d57634e487b7160e01b600052602160045260246000fd5b91905290565b801515811461168757600080fd5b60006020828403121561418357600080fd5b813561404181614163565b634e487b7160e01b600052604160045260246000fd5b604051601f8201601f1916810167ffffffffffffffff811182821017156141cd576141cd61418e565b604052919050565b600067ffffffffffffffff8211156141ef576141ef61418e565b5060051b60200190565b60008060006060848603121561420e57600080fd5b833567ffffffffffffffff81111561422557600080fd5b8401601f8101861361423657600080fd5b8035602061424b614246836141d5565b6141a4565b82815260059290921b8301810191818101908984111561426a57600080fd5b938201935b838510156142885784358252938201939082019061426f565b999188013598505060409096013595945050505050565b600080604083850312156142b257600080fd5b50508035926020909101359150565b6000806000806000806000806000806101008b8d0312156142e157600080fd5b8a356142ec8161400f565b995060208b01356142fc8161400f565b985060408b013561430c8161400f565b975060608b013561431c8161400f565b965060808b013561432c8161400f565b955060a08b0135945060c08b013567ffffffffffffffff8082111561435057600080fd5b61435c8e838f01614074565b909650945060e08d013591508082111561437557600080fd5b506143828d828e01614074565b915080935050809150509295989b9194979a5092959850565b6000602082840312156143ad57600080fd5b5035919050565b6020808252825182820181905260009190848201906040850190845b818110156143f55783516001600160a01b0316835292840192918401916001016143d0565b50909695505050505050565b60005b8381101561441c578181015183820152602001614404565b50506000910152565b6020815260008251806020840152614444816040850160208701614401565b601f01601f19169190910160400192915050565b6000806040838503121561446b57600080fd5b82356fffffffffffffffffffffffffffffffff198116811461448c57600080fd5b915060208301357fffff0000000000000000000000000000000000000000000000000000000000008116811461413057600080fd5b6000806000606084860312156144d657600080fd5b83356144e18161400f565b925060208401356144f18161400f565b929592945050506040919091013590565b6000806000806060858703121561451857600080fd5b84356145238161400f565b935060208501359250604085013567ffffffffffffffff8082111561454757600080fd5b818701915087601f83011261455b57600080fd5b81358181111561456a57600080fd5b88602082850101111561457c57600080fd5b95989497505060200194505050565b80516fffffffffffffffffffffffffffffffff811681146145ab57600080fd5b919050565b600080604083850312156145c357600080fd5b6145cc8361458b565b91506145da6020840161458b565b90509250929050565b6000602082840312156145f557600080fd5b815167ffffffffffffffff8082111561460d57600080fd5b818401915084601f83011261462157600080fd5b8151818111156146335761463361418e565b614646601f8201601f19166020016141a4565b915080825285602082850101111561465d57600080fd5b61466e816020840160208601614401565b50949350505050565b60006020828403121561468957600080fd5b5051919050565b634e487b7160e01b600052601160045260246000fd5b808201808211156118f5576118f5614690565b634e487b7160e01b600052603260045260246000fd5b6000600182016146e1576146e1614690565b5060010190565b634e487b7160e01b600052601260045260246000fd5b60008261470d5761470d6146e8565b500490565b818103818111156118f5576118f5614690565b80820281158282048414176118f5576118f5614690565b6000602080838503121561474f57600080fd5b825167ffffffffffffffff81111561476657600080fd5b8301601f8101851361477757600080fd5b8051614785614246826141d5565b81815260059190911b820183019083810190878311156147a457600080fd5b928401925b82841015612d765783516147bc8161400f565b825292840192908401906147a9565b6020808252825482820181905260008481528281209092916040850190845b818110156143f55783546001600160a01b0316835260019384019392850192016147ea565b60008261481e5761481e6146e8565b500690565b6000806040838503121561483657600080fd5b825167ffffffffffffffff81111561484d57600080fd5b8301601f8101851361485e57600080fd5b8051602061486e614246836141d5565b82815260059290921b8301810191818101908884111561488d57600080fd5b938201935b838510156148ab57845182529382019390820190614892565b969091015195979596505050505050565b6000816148cb576148cb614690565b506000190190565b634e487b7160e01b600052603160045260246000fd5b6000602082840312156148fb57600080fd5b81516140418161416356fea2646970667358221220c1ed76b35e50fce5f44b58358ee39c2b9621cb53eda3b097223cab79c257065264736f6c63430008190033",
  "linkReferences": {},
  "deployedLinkReferences": {}
}