{
  "_format": "hh-sol-artifact-1",
  "contractName": "ValidatorSetHbbftMock",
  "sourceName": "contracts/mockContracts/ValidatorSetHbbftMock.sol",
  "abi": [
    {
      "inputs": [],
      "name": "AnnounceBlockNumberTooOld",
      "type": "error"
    },
    {
      "inputs": [],
      "name": "CantAnnounceAvailability",
      "type": "error"
    },
    {
      "inputs": [],
      "name": "EpochNotYetzFinished",
      "type": "error"
    },
    {
      "inputs": [],
      "name": "InitialAddressesLengthMismatch",
      "type": "error"
    },
    {
      "inputs": [],
      "name": "InitialValidatorsEmpty",
      "type": "error"
    },
    {
      "inputs": [],
      "name": "InvalidAddressPair",
      "type": "error"
    },
    {
      "inputs": [],
      "name": "InvalidAnnounceBlockHash",
      "type": "error"
    },
    {
      "inputs": [],
      "name": "InvalidAnnounceBlockNumber",
      "type": "error"
    },
    {
      "inputs": [],
      "name": "InvalidInactivityThreshold",
      "type": "error"
    },
    {
      "inputs": [],
      "name": "InvalidInitialization",
      "type": "error"
    },
    {
      "inputs": [],
      "name": "InvalidPossibleValidatorCount",
      "type": "error"
    },
    {
      "inputs": [
        {
          "internalType": "address",
          "name": "_value",
          "type": "address"
        }
      ],
      "name": "MiningAddressAlreadyUsed",
      "type": "error"
    },
    {
      "inputs": [],
      "name": "NotInitializing",
      "type": "error"
    },
    {
      "inputs": [
        {
          "internalType": "address",
          "name": "owner",
          "type": "address"
        }
      ],
      "name": "OwnableInvalidOwner",
      "type": "error"
    },
    {
      "inputs": [
        {
          "internalType": "address",
          "name": "account",
          "type": "address"
        }
      ],
      "name": "OwnableUnauthorizedAccount",
      "type": "error"
    },
    {
      "inputs": [
        {
          "internalType": "address",
          "name": "_value",
          "type": "address"
        }
      ],
      "name": "StakingAddressAlreadyUsed",
      "type": "error"
    },
    {
      "inputs": [
        {
          "internalType": "address",
          "name": "_mining",
          "type": "address"
        }
      ],
      "name": "StakingPoolNotExist",
      "type": "error"
    },
    {
      "inputs": [],
      "name": "Unauthorized",
      "type": "error"
    },
    {
      "inputs": [],
      "name": "ValidatorsListEmpty",
      "type": "error"
    },
    {
      "inputs": [],
      "name": "ZeroAddress",
      "type": "error"
    },
    {
      "anonymous": false,
      "inputs": [
        {
          "indexed": false,
          "internalType": "uint64",
          "name": "version",
          "type": "uint64"
        }
      ],
      "name": "Initialized",
      "type": "event"
    },
    {
      "anonymous": false,
      "inputs": [
        {
          "indexed": true,
          "internalType": "address",
          "name": "previousOwner",
          "type": "address"
        },
        {
          "indexed": true,
          "internalType": "address",
          "name": "newOwner",
          "type": "address"
        }
      ],
      "name": "OwnershipTransferred",
      "type": "event"
    },
    {
      "anonymous": false,
      "inputs": [
        {
          "indexed": false,
          "internalType": "address",
          "name": "validator",
          "type": "address"
        },
        {
          "indexed": false,
          "internalType": "uint256",
          "name": "timestamp",
          "type": "uint256"
        }
      ],
      "name": "ValidatorAvailable",
      "type": "event"
    },
    {
      "anonymous": false,
      "inputs": [
        {
          "indexed": false,
          "internalType": "address",
          "name": "validator",
          "type": "address"
        },
        {
          "indexed": false,
          "internalType": "uint256",
          "name": "timestamp",
          "type": "uint256"
        }
      ],
      "name": "ValidatorUnavailable",
      "type": "event"
    },
    {
      "inputs": [
        {
          "internalType": "uint256",
          "name": "_blockNumber",
          "type": "uint256"
        },
        {
          "internalType": "bytes32",
          "name": "_blockhash",
          "type": "bytes32"
        }
      ],
      "name": "announceAvailability",
      "outputs": [],
      "stateMutability": "nonpayable",
      "type": "function"
    },
    {
      "inputs": [],
      "name": "blockRewardContract",
      "outputs": [
        {
          "internalType": "address",
          "name": "",
          "type": "address"
        }
      ],
      "stateMutability": "view",
      "type": "function"
    },
    {
      "inputs": [],
      "name": "bonusScoreSystem",
      "outputs": [
        {
          "internalType": "contract IBonusScoreSystem",
          "name": "",
          "type": "address"
        }
      ],
      "stateMutability": "view",
      "type": "function"
    },
    {
      "inputs": [
        {
          "internalType": "address",
          "name": "_miningAddress",
          "type": "address"
        }
      ],
      "name": "canCallAnnounceAvailability",
      "outputs": [
        {
          "internalType": "bool",
          "name": "",
          "type": "bool"
        }
      ],
      "stateMutability": "view",
      "type": "function"
    },
    {
      "inputs": [],
      "name": "connectivityTracker",
      "outputs": [
        {
          "internalType": "address",
          "name": "",
          "type": "address"
        }
      ],
      "stateMutability": "view",
      "type": "function"
    },
    {
      "inputs": [],
      "name": "finalizeChange",
      "outputs": [],
      "stateMutability": "nonpayable",
      "type": "function"
    },
    {
      "inputs": [],
      "name": "forceFinalizeNewValidators",
      "outputs": [],
      "stateMutability": "nonpayable",
      "type": "function"
    },
    {
      "inputs": [],
      "name": "getCurrentValidatorsCount",
      "outputs": [
        {
          "internalType": "uint256",
          "name": "",
          "type": "uint256"
        }
      ],
      "stateMutability": "view",
      "type": "function"
    },
    {
      "inputs": [
        {
          "internalType": "address",
          "name": "_miningAddress",
          "type": "address"
        }
      ],
      "name": "getPendingValidatorKeyGenerationMode",
      "outputs": [
        {
          "internalType": "enum IValidatorSetHbbft.KeyGenMode",
          "name": "",
          "type": "uint8"
        }
      ],
      "stateMutability": "view",
      "type": "function"
    },
    {
      "inputs": [],
      "name": "getPendingValidators",
      "outputs": [
        {
          "internalType": "address[]",
          "name": "",
          "type": "address[]"
        }
      ],
      "stateMutability": "view",
      "type": "function"
    },
    {
      "inputs": [],
      "name": "getPreviousValidators",
      "outputs": [
        {
          "internalType": "address[]",
          "name": "",
          "type": "address[]"
        }
      ],
      "stateMutability": "view",
      "type": "function"
    },
    {
      "inputs": [
        {
          "internalType": "address",
          "name": "_miningAddress",
          "type": "address"
        }
      ],
      "name": "getPublicKey",
      "outputs": [
        {
          "internalType": "bytes",
          "name": "",
          "type": "bytes"
        }
      ],
      "stateMutability": "view",
      "type": "function"
    },
    {
      "inputs": [
        {
          "internalType": "uint256[]",
          "name": "_likelihood",
          "type": "uint256[]"
        },
        {
          "internalType": "uint256",
          "name": "_likelihoodSum",
          "type": "uint256"
        },
        {
          "internalType": "uint256",
          "name": "_randomNumber",
          "type": "uint256"
        }
      ],
      "name": "getRandomIndex",
      "outputs": [
        {
          "internalType": "uint256",
          "name": "",
          "type": "uint256"
        }
      ],
      "stateMutability": "pure",
      "type": "function"
    },
    {
      "inputs": [],
      "name": "getStakingContract",
      "outputs": [
        {
          "internalType": "address",
          "name": "",
          "type": "address"
        }
      ],
      "stateMutability": "view",
      "type": "function"
    },
    {
      "inputs": [
        {
          "internalType": "uint256",
          "name": "_possibleValidatorCount",
          "type": "uint256"
        }
      ],
      "name": "getValidatorCountSweetSpot",
      "outputs": [
        {
          "internalType": "uint256",
          "name": "",
          "type": "uint256"
        }
      ],
      "stateMutability": "pure",
      "type": "function"
    },
    {
      "inputs": [],
      "name": "getValidators",
      "outputs": [
        {
          "internalType": "address[]",
          "name": "",
          "type": "address[]"
        }
      ],
      "stateMutability": "view",
      "type": "function"
    },
    {
      "inputs": [],
      "name": "handleFailedKeyGeneration",
      "outputs": [],
      "stateMutability": "nonpayable",
      "type": "function"
    },
    {
      "inputs": [
        {
          "internalType": "address",
          "name": "_contractOwner",
          "type": "address"
        },
        {
          "components": [
            {
              "internalType": "address",
              "name": "blockRewardContract",
              "type": "address"
            },
            {
              "internalType": "address",
              "name": "randomContract",
              "type": "address"
            },
            {
              "internalType": "address",
              "name": "stakingContract",
              "type": "address"
            },
            {
              "internalType": "address",
              "name": "keyGenHistoryContract",
              "type": "address"
            },
            {
              "internalType": "address",
              "name": "bonusScoreContract",
              "type": "address"
            },
            {
              "internalType": "address",
              "name": "connectivityTrackerContract",
              "type": "address"
            },
            {
              "internalType": "uint256",
              "name": "validatorInactivityThreshold",
              "type": "uint256"
            }
          ],
          "internalType": "struct IValidatorSetHbbft.ValidatorSetParams",
          "name": "_params",
          "type": "tuple"
        },
        {
          "internalType": "address[]",
          "name": "_initialMiningAddresses",
          "type": "address[]"
        },
        {
          "internalType": "address[]",
          "name": "_initialStakingAddresses",
          "type": "address[]"
        }
      ],
      "name": "initialize",
      "outputs": [],
      "stateMutability": "nonpayable",
      "type": "function"
    },
    {
      "inputs": [],
      "name": "isFullHealth",
      "outputs": [
        {
          "internalType": "bool",
          "name": "",
          "type": "bool"
        }
      ],
      "stateMutability": "view",
      "type": "function"
    },
    {
      "inputs": [
        {
          "internalType": "address",
          "name": "_miningAddress",
          "type": "address"
        }
      ],
      "name": "isPendingValidator",
      "outputs": [
        {
          "internalType": "bool",
          "name": "",
          "type": "bool"
        }
      ],
      "stateMutability": "view",
      "type": "function"
    },
    {
      "inputs": [
        {
          "internalType": "address",
          "name": "",
          "type": "address"
        }
      ],
      "name": "isValidator",
      "outputs": [
        {
          "internalType": "bool",
          "name": "",
          "type": "bool"
        }
      ],
      "stateMutability": "view",
      "type": "function"
    },
    {
      "inputs": [
        {
          "internalType": "address",
          "name": "_stakingAddress",
          "type": "address"
        }
      ],
      "name": "isValidatorAbandoned",
      "outputs": [
        {
          "internalType": "bool",
          "name": "",
          "type": "bool"
        }
      ],
      "stateMutability": "view",
      "type": "function"
    },
    {
      "inputs": [
        {
          "internalType": "address",
          "name": "_miningAddress",
          "type": "address"
        }
      ],
      "name": "isValidatorOrPending",
      "outputs": [
        {
          "internalType": "bool",
          "name": "",
          "type": "bool"
        }
      ],
      "stateMutability": "view",
      "type": "function"
    },
    {
      "inputs": [
        {
          "internalType": "address",
          "name": "",
          "type": "address"
        }
      ],
      "name": "isValidatorPrevious",
      "outputs": [
        {
          "internalType": "bool",
          "name": "",
          "type": "bool"
        }
      ],
      "stateMutability": "view",
      "type": "function"
    },
    {
      "inputs": [],
      "name": "keyGenHistoryContract",
      "outputs": [
        {
          "internalType": "contract IKeyGenHistory",
          "name": "",
          "type": "address"
        }
      ],
      "stateMutability": "view",
      "type": "function"
    },
    {
      "inputs": [
        {
          "internalType": "address",
          "name": "_mining",
          "type": "address"
        }
      ],
      "name": "kickValidator",
      "outputs": [],
      "stateMutability": "nonpayable",
      "type": "function"
    },
    {
      "inputs": [],
      "name": "maxValidators",
      "outputs": [
        {
          "internalType": "uint256",
          "name": "",
          "type": "uint256"
        }
      ],
      "stateMutability": "view",
      "type": "function"
    },
    {
      "inputs": [
        {
          "internalType": "address",
          "name": "",
          "type": "address"
        }
      ],
      "name": "miningByStakingAddress",
      "outputs": [
        {
          "internalType": "address",
          "name": "",
          "type": "address"
        }
      ],
      "stateMutability": "view",
      "type": "function"
    },
    {
      "inputs": [],
      "name": "newValidatorSet",
      "outputs": [],
      "stateMutability": "nonpayable",
      "type": "function"
    },
    {
      "inputs": [
        {
          "internalType": "address",
          "name": "_miningAddress",
          "type": "address"
        }
      ],
      "name": "notifyUnavailability",
      "outputs": [],
      "stateMutability": "nonpayable",
      "type": "function"
    },
    {
      "inputs": [],
      "name": "owner",
      "outputs": [
        {
          "internalType": "address",
          "name": "",
          "type": "address"
        }
      ],
      "stateMutability": "view",
      "type": "function"
    },
    {
      "inputs": [
        {
          "internalType": "address",
          "name": "_stakingAddress",
          "type": "address"
        }
      ],
      "name": "publicKeyByStakingAddress",
      "outputs": [
        {
          "internalType": "bytes",
          "name": "",
          "type": "bytes"
        }
      ],
      "stateMutability": "view",
      "type": "function"
    },
    {
      "inputs": [],
      "name": "randomContract",
      "outputs": [
        {
          "internalType": "address",
          "name": "",
          "type": "address"
        }
      ],
      "stateMutability": "view",
      "type": "function"
    },
    {
      "inputs": [],
      "name": "renounceOwnership",
      "outputs": [],
      "stateMutability": "nonpayable",
      "type": "function"
    },
    {
      "inputs": [
        {
          "internalType": "address",
          "name": "_address",
          "type": "address"
        }
      ],
      "name": "setBlockRewardContract",
      "outputs": [],
      "stateMutability": "nonpayable",
      "type": "function"
    },
    {
      "inputs": [
        {
          "internalType": "address",
          "name": "_address",
          "type": "address"
        }
      ],
      "name": "setBonusScoreSystemAddress",
      "outputs": [],
      "stateMutability": "nonpayable",
      "type": "function"
    },
    {
      "inputs": [
        {
          "internalType": "address",
          "name": "_address",
          "type": "address"
        }
      ],
      "name": "setConnectivityTracker",
      "outputs": [],
      "stateMutability": "nonpayable",
      "type": "function"
    },
    {
      "inputs": [
        {
          "internalType": "address",
          "name": "_address",
          "type": "address"
        }
      ],
      "name": "setKeyGenHistoryContract",
      "outputs": [],
      "stateMutability": "nonpayable",
      "type": "function"
    },
    {
      "inputs": [
        {
          "internalType": "address",
          "name": "_address",
          "type": "address"
        }
      ],
      "name": "setRandomContract",
      "outputs": [],
      "stateMutability": "nonpayable",
      "type": "function"
    },
    {
      "inputs": [
        {
          "internalType": "address",
          "name": "_miningAddress",
          "type": "address"
        },
        {
          "internalType": "address",
          "name": "_stakingAddress",
          "type": "address"
        }
      ],
      "name": "setStakingAddress",
      "outputs": [],
      "stateMutability": "nonpayable",
      "type": "function"
    },
    {
      "inputs": [
        {
          "internalType": "address",
          "name": "_address",
          "type": "address"
        }
      ],
      "name": "setStakingContract",
      "outputs": [],
      "stateMutability": "nonpayable",
      "type": "function"
    },
    {
      "inputs": [
        {
          "internalType": "address",
          "name": "_validator",
          "type": "address"
        },
        {
          "internalType": "uint256",
          "name": "_timestamp",
          "type": "uint256"
        }
      ],
      "name": "setValidatorAvailableSince",
      "outputs": [],
      "stateMutability": "nonpayable",
      "type": "function"
    },
    {
      "inputs": [
        {
          "internalType": "bytes16",
          "name": "_ip",
          "type": "bytes16"
        },
        {
          "internalType": "bytes2",
          "name": "_port",
          "type": "bytes2"
        }
      ],
      "name": "setValidatorInternetAddress",
      "outputs": [],
      "stateMutability": "nonpayable",
      "type": "function"
    },
    {
      "inputs": [
        {
          "internalType": "uint256",
          "name": "num",
          "type": "uint256"
        }
      ],
      "name": "setValidatorsNum",
      "outputs": [],
      "stateMutability": "nonpayable",
      "type": "function"
    },
    {
      "inputs": [
        {
          "internalType": "address",
          "name": "",
          "type": "address"
        }
      ],
      "name": "stakingByMiningAddress",
      "outputs": [
        {
          "internalType": "address",
          "name": "",
          "type": "address"
        }
      ],
      "stateMutability": "view",
      "type": "function"
    },
    {
      "inputs": [],
      "name": "stakingContract",
      "outputs": [
        {
          "internalType": "contract IStakingHbbft",
          "name": "",
          "type": "address"
        }
      ],
      "stateMutability": "view",
      "type": "function"
    },
    {
      "inputs": [
        {
          "internalType": "address",
          "name": "newOwner",
          "type": "address"
        }
      ],
      "name": "transferOwnership",
      "outputs": [],
      "stateMutability": "nonpayable",
      "type": "function"
    },
    {
      "inputs": [
        {
          "internalType": "address",
          "name": "",
          "type": "address"
        }
      ],
      "name": "validatorAvailableSince",
      "outputs": [
        {
          "internalType": "uint256",
          "name": "",
          "type": "uint256"
        }
      ],
      "stateMutability": "view",
      "type": "function"
    },
    {
      "inputs": [
        {
          "internalType": "address",
          "name": "",
          "type": "address"
        }
      ],
      "name": "validatorAvailableSinceLastWrite",
      "outputs": [
        {
          "internalType": "uint256",
          "name": "",
          "type": "uint256"
        }
      ],
      "stateMutability": "view",
      "type": "function"
    },
    {
      "inputs": [
        {
          "internalType": "address",
          "name": "",
          "type": "address"
        }
      ],
      "name": "validatorCounter",
      "outputs": [
        {
          "internalType": "uint256",
          "name": "",
          "type": "uint256"
        }
      ],
      "stateMutability": "view",
      "type": "function"
    },
    {
      "inputs": [],
      "name": "validatorInactivityThreshold",
      "outputs": [
        {
          "internalType": "uint256",
          "name": "",
          "type": "uint256"
        }
      ],
      "stateMutability": "view",
      "type": "function"
    },
    {
      "stateMutability": "payable",
      "type": "receive"
    }
  ],
  "bytecode": "0x6080604052348015600f57600080fd5b506016601a565b60ca565b7ff0c57e16840df040f15088dc2f81fe391c3923bec73e23a9662efc9c229c6a00805468010000000000000000900460ff161560695760405163f92ee8a960e01b815260040160405180910390fd5b80546001600160401b039081161460c75780546001600160401b0319166001600160401b0390811782556040519081527fc7f505b2f371ae2175ee4913f4499e1f2633a7b5936321eed1cdaeb6115181d29060200160405180910390a15b50565b613e6e806100d96000396000f3fe6080604052600436106103375760003560e01c806385602ad5116101b0578063b47aef1f116100ec578063ee99205c11610095578063f2fde38b1161006f578063f2fde38b14610a5b578063f51726f014610a7b578063facd743b14610a9b578063fb64aac114610acb57600080fd5b8063ee99205c14610a06578063eebc7a3914610a26578063efd0494714610a3b57600080fd5b8063ccf69e9b116100c6578063ccf69e9b1461097c578063e6d8d3181461099c578063ed7cba62146109d957600080fd5b8063b47aef1f1461090a578063b7ab4db51461092a578063bd0d69bc1461093f57600080fd5b80639dd373b911610159578063a49904e511610133578063a49904e51461087f578063a68b5b7614610898578063ade1900a146108c8578063b41832e4146108dd57600080fd5b80639dd373b914610802578063a0d16cad1461083f578063a42bdee91461085f57600080fd5b80638e68dce41161018a5780638e68dce4146107945780639881933d146107b25780639d6fc1d1146107d257600080fd5b806385602ad514610708578063857cdbb81461072a5780638da5cb5b1461075757600080fd5b806356b54bae1161027f5780636b949ae81161022857806373eb53851161020257806373eb53851461067657806374d8fb981461069657806375286211146106b657806378ff69d5146106cb57600080fd5b80636b949ae81461062b578063715018a614610641578063717662ee1461065657600080fd5b806360e5c5201161025957806360e5c520146105be57806361e61068146105eb578063669554691461060b57600080fd5b806356b54bae146105745780635ccee1de146105945780635d5fcbce146105a957600080fd5b80631ee4d0bc116102e15780633f1b5d1f116102bb5780633f1b5d1f146104f957806343bcce9f1461050e57806351cc66461461052e57600080fd5b80631ee4d0bc1461046657806327a3e16b1461049c5780633da74fc6146104d957600080fd5b80630a4c1072116103125780630a4c1072146103f957806314e28d90146104195780631761edb11461044657600080fd5b80625351751461034357806308ac5256146103965780630933e3a7146103ba57600080fd5b3661033e57005b600080fd5b34801561034f57600080fd5b5061037961035e3660046136c0565b6006602052600090815260409020546001600160a01b031681565b6040516001600160a01b0390911681526020015b60405180910390f35b3480156103a257600080fd5b506103ac600e5481565b60405190815260200161038d565b3480156103c657600080fd5b506103f76103d53660046136c0565b600780546001600160a01b0319166001600160a01b0392909216919091179055565b005b34801561040557600080fd5b506103f76104143660046136e4565b610aeb565b34801561042557600080fd5b506104396104343660046136c0565b610b23565b60405161038d919061371d565b34801561045257600080fd5b506103ac6104613660046137b0565b610d0c565b34801561047257600080fd5b506103796104813660046136c0565b6008602052600090815260409020546001600160a01b031681565b3480156104a857600080fd5b506103f76104b73660046136c0565b600380546001600160a01b0319166001600160a01b0392909216919091179055565b3480156104e557600080fd5b50601054610379906001600160a01b031681565b34801561050557600080fd5b506103f7610d4c565b34801561051a57600080fd5b506103f7610529366004613856565b610d56565b34801561053a57600080fd5b506103f7610549366004613878565b6001600160a01b03919091166000908152600d6020908152604080832093909355600c905220429055565b34801561058057600080fd5b50600354610379906001600160a01b031681565b3480156105a057600080fd5b506103f7610eb0565b3480156105b557600080fd5b506000546103ac565b3480156105ca57600080fd5b506103ac6105d93660046136c0565b600d6020526000908152604090205481565b3480156105f757600080fd5b506103f76106063660046138f0565b610ef2565b34801561061757600080fd5b50601154610379906001600160a01b031681565b34801561063757600080fd5b506103ac600f5481565b34801561064d57600080fd5b506103f76112a4565b34801561066257600080fd5b506103f76106713660046136c0565b6112b6565b34801561068257600080fd5b506103f7610691366004613992565b6113bd565b3480156106a257600080fd5b506103f76106b13660046136c0565b6114b5565b3480156106c257600080fd5b506103f76115a8565b3480156106d757600080fd5b506103f76106e63660046136c0565b601180546001600160a01b0319166001600160a01b0392909216919091179055565b34801561071457600080fd5b5061071d611731565b60405161038d91906139ab565b34801561073657600080fd5b5061074a6107453660046136c0565b611793565b60405161038d9190613a1c565b34801561076357600080fd5b507f9016d09d72d40fdae2fd8ceac6b6234c7706214fd39c1cd1e609a0528c199300546001600160a01b0316610379565b3480156107a057600080fd5b506009546001600160a01b0316610379565b3480156107be57600080fd5b5061074a6107cd3660046136c0565b611823565b3480156107de57600080fd5b506107f26107ed3660046136c0565b611856565b604051901515815260200161038d565b34801561080e57600080fd5b506103f761081d3660046136c0565b600980546001600160a01b0319166001600160a01b0392909216919091179055565b34801561084b57600080fd5b506107f261085a3660046136c0565b6118c3565b34801561086b57600080fd5b506103f761087a366004613a4f565b6118ee565b34801561088b57600080fd5b50600054600e54146107f2565b3480156108a457600080fd5b506107f26108b33660046136c0565b60056020526000908152604090205460ff1681565b3480156108d457600080fd5b506103f76119d2565b3480156108e957600080fd5b506103ac6108f83660046136c0565b600b6020526000908152604090205481565b34801561091657600080fd5b50600a54610379906001600160a01b031681565b34801561093657600080fd5b5061071d61216d565b34801561094b57600080fd5b506103f761095a3660046136c0565b601080546001600160a01b0319166001600160a01b0392909216919091179055565b34801561098857600080fd5b50600754610379906001600160a01b031681565b3480156109a857600080fd5b506103f76109b73660046136c0565b600a80546001600160a01b0319166001600160a01b0392909216919091179055565b3480156109e557600080fd5b506103ac6109f43660046136c0565b600c6020526000908152604090205481565b348015610a1257600080fd5b50600954610379906001600160a01b031681565b348015610a3257600080fd5b5061071d6121cd565b348015610a4757600080fd5b506103ac610a56366004613992565b61222d565b348015610a6757600080fd5b506103f7610a763660046136c0565b61228a565b348015610a8757600080fd5b506107f2610a963660046136c0565b6122c8565b348015610aa757600080fd5b506107f2610ab63660046136c0565b60046020526000908152604090205460ff1681565b348015610ad757600080fd5b506107f2610ae63660046136c0565b61231f565b6009546001600160a01b03163314610b15576040516282b42960e81b815260040160405180910390fd5b610b1f828261237d565b5050565b6000610b2e8261231f565b610b3a57506000919050565b600a5460408051637be02c2b60e01b8152815160009384936001600160a01b0390911692637be02c2b92600480830193928290030181865afa158015610b84573d6000803e3d6000fd5b505050506040513d601f19601f82011682018060405250810190610ba89190613add565b60015491935091506fffffffffffffffffffffffffffffffff83161015610c5d57600a546040516399de1a4360e01b81526001600160a01b03868116600483015260009216906399de1a4390602401600060405180830381865afa158015610c14573d6000803e3d6000fd5b505050506040513d6000823e601f3d908101601f19168201604052610c3c9190810190613b10565b90508051600003610c5257506001949350505050565b506002949350505050565b6001546fffffffffffffffffffffffffffffffff82161015610d0257600a54604051631baeec3f60e31b81526001600160a01b0386811660048301529091169063dd7761f890602401602060405180830381865afa158015610cc3573d6000803e3d6000fd5b505050506040513d601f19601f82011682018060405250810190610ce79190613ba4565b600003610cf8575060039392505050565b5060049392505050565b5060059392505050565b6000610d44848484604051602001610d2691815260200190565b6040516020818303038152906040528051906020012060001c61251b565b949350505050565b610d54612584565b565b610d5f336122c8565b610d7c5760405163a82bfa5560e01b815260040160405180910390fd5b438210610d9c576040516341d852df60e01b815260040160405180910390fd5b43610da8836010613bd3565b11610dc6576040516310548f8360e01b815260040160405180910390fd5b80824014610de75760405163fe1864e160e01b815260040160405180910390fd5b336000908152600d602090815260408083204290819055600c83528184208190556009546008909352818420548251631ec56e5360e21b81526001600160a01b03918216600482015292519194931692637b15b94c926024808201939182900301818387803b158015610e5957600080fd5b505af1158015610e6d573d6000803e3d6000fd5b505060408051338152602081018590527f705d65dbee06de60e6465d68371ce849d5a1ead53e53d01a413b2b01393aa022935001905060405180910390a1505050565b6003546001600160a01b03163314610eda576040516282b42960e81b815260040160405180910390fd5b604080516000815260208101909152610d5490612729565b7ff0c57e16840df040f15088dc2f81fe391c3923bec73e23a9662efc9c229c6a00805468010000000000000000810460ff16159067ffffffffffffffff16600081158015610f3d5750825b905060008267ffffffffffffffff166001148015610f5a5750303b155b905081158015610f68575080155b15610f865760405163f92ee8a960e01b815260040160405180910390fd5b845467ffffffffffffffff191660011785558315610fba57845468ff00000000000000001916680100000000000000001785555b610fc38a612dfb565b6001600160a01b038b16610fea5760405163d92e233d60e01b815260040160405180910390fd5b600088900361100c576040516322b8b72360e21b815260040160405180910390fd5b87861461102c5760405163ac9e459360e01b815260040160405180910390fd5b6110358b612ebe565b61104260208b018b6136c0565b600380546001600160a01b0319166001600160a01b039290921691909117905561107260408b0160208c016136c0565b600780546001600160a01b0319166001600160a01b03929092169190911790556110a260608b0160408c016136c0565b600980546001600160a01b0319166001600160a01b03929092169190911790556110d260808b0160608c016136c0565b600a80546001600160a01b0319166001600160a01b039290921691909117905561110260a08b0160808c016136c0565b601080546001600160a01b0319166001600160a01b039290921691909117905561113260c08b0160a08c016136c0565b601180546001600160a01b0319166001600160a01b039290921691909117905560c08a0135600f5560005b888110156112465760008a8a8381811061117957611179613be6565b905060200201602081019061118e91906136c0565b60008054600180820183557f290decd9548b62a8d60345a988386fc84ba6bc95484008f6362f93160ef3e56390910180546001600160a01b0319166001600160a01b0385169081179091558252600460209081526040808420805460ff1916909317909255600b9052812080549293509061120883613bfc565b919050555061123d818a8a8581811061122357611223613be6565b905060200201602081019061123891906136c0565b61237d565b5060010161115d565b506019600e55831561129757845468ff000000000000000019168555604051600181527fc7f505b2f371ae2175ee4913f4499e1f2633a7b5936321eed1cdaeb6115181d29060200160405180910390a15b5050505050505050505050565b6112ac612ecf565b610d546000612f2a565b6011546001600160a01b031633146112e0576040516282b42960e81b815260040160405180910390fd5b6009546001600160a01b0382811660009081526008602052604090819020549051631dbe84a360e11b81529082166004820152911690633b7d094690602401600060405180830381600087803b15801561133957600080fd5b505af115801561134d573d6000803e3d6000fd5b5050506001600160a01b0382166000908152600d60209081526040808320839055600c909152902042905550604080516001600160a01b03831681524260208201527f7ec36d1734626f8b3686f8791130187e1633c843b1995003e788cd2b33d56903910160405180910390a150565b6000548181101561145b576000806000815481106113dd576113dd613be6565b6000918252602090912001546001600160a01b03169050815b83811161145557600080546001810182559080527f290decd9548b62a8d60345a988386fc84ba6bc95484008f6362f93160ef3e5630180546001600160a01b0319166001600160a01b03841617905561144e81613bfc565b90506113f6565b50505050565b81811115610b1f57805b828111156114b057600080548061147e5761147e613c15565b600082815260209020810160001990810180546001600160a01b03191690550190556114a981613c2b565b9050611465565b505050565b60008054905b818110156114b057826001600160a01b0316600082815481106114e0576114e0613be6565b6000918252602090912001546001600160a01b0316036115a0576000611507600184613c42565b8154811061151757611517613be6565b600091825260208220015481546001600160a01b0390911691908390811061154157611541613be6565b6000918252602082200180546001600160a01b0319166001600160a01b03939093169290921790915580548061157957611579613c15565b600082815260209020810160001990810180546001600160a01b0319169055019055505050565b6001016114bb565b6003546001600160a01b031633146115d2576040516282b42960e81b815260040160405180910390fd5b600154156115ea576115e2612f9b565b6115ea612584565b6115f2613072565b6115fa6131f6565b600960009054906101000a90046001600160a01b03166001600160a01b031663ee435f556040518163ffffffff1660e01b8152600401600060405180830381600087803b15801561164a57600080fd5b505af115801561165e573d6000803e3d6000fd5b50505050600a60009054906101000a90046001600160a01b03166001600160a01b0316632c6f194d6040518163ffffffff1660e01b8152600401600060405180830381600087803b1580156116b257600080fd5b505af11580156116c6573d6000803e3d6000fd5b50505050600160006116d89190613628565b600954604051638247a23960e01b81524260048201526001600160a01b0390911690638247a23990602401600060405180830381600087803b15801561171d57600080fd5b505af1158015611455573d6000803e3d6000fd5b6060600280548060200260200160405190810160405280929190818152602001828054801561178957602002820191906000526020600020905b81546001600160a01b0316815260019091019060200180831161176b575b5050505050905090565b6009546001600160a01b0382811660009081526008602052604090819020549051634e9b426d60e01b815290821660048201526060929190911690634e9b426d906024015b600060405180830381865afa1580156117f5573d6000803e3d6000fd5b505050506040513d6000823e601f3d908101601f1916820160405261181d9190810190613b10565b92915050565b600954604051634e9b426d60e01b81526001600160a01b0383811660048301526060921690634e9b426d906024016117d8565b6001600160a01b03808216600090815260066020908152604080832054909316808352600d90915291812054909190156118935750600092915050565b6001600160a01b0381166000908152600c60205260408120546118b69042613c42565b600f541115949350505050565b6001600160a01b03811660009081526004602052604081205460ff168061181d575061181d8261231f565b336000908152600860205260409020546001600160a01b03168061192c576040516303a949c760e61b81523360048201526024015b60405180910390fd5b600954604051637b0a0f9b60e01b81526001600160a01b0383811660048301526fffffffffffffffffffffffffffffffff19861660248301527fffff0000000000000000000000000000000000000000000000000000000000008516604483015290911690637b0a0f9b906064015b600060405180830381600087803b1580156119b557600080fd5b505af11580156119c9573d6000803e3d6000fd5b50505050505050565b6003546001600160a01b031633146119fc576040516282b42960e81b815260040160405180910390fd5b600960009054906101000a90046001600160a01b03166001600160a01b03166322e3d9866040518163ffffffff1660e01b8152600401602060405180830381865afa158015611a4f573d6000803e3d6000fd5b505050506040513d601f19601f82011682018060405250810190611a739190613ba4565b421015611a935760405163112bb3df60e11b815260040160405180910390fd5b600960009054906101000a90046001600160a01b03166001600160a01b031663a5d54f656040518163ffffffff1660e01b8152600401600060405180830381865afa158015611ae6573d6000803e3d6000fd5b505050506040513d6000823e601f3d908101601f19168201604052611b0e9190810190613c55565b5115610d545760015415610d545760018054600091611b2c91613c42565b67ffffffffffffffff811115611b4457611b44613745565b604051908082528060200260200182016040528015611b6d578160200160208202803683370190505b50905060008080600a60009054906101000a90046001600160a01b03166001600160a01b0316637be02c2b6040518163ffffffff1660e01b81526004016040805180830381865afa158015611bc6573d6000803e3d6000fd5b505050506040513d601f19601f82011682018060405250810190611bea9190613add565b9150915060005b600154811015611f0657600060018281548110611c1057611c10613be6565b60009182526020822001546001546001600160a01b0390911692506fffffffffffffffffffffffffffffffff86161015611cc057600a546040516399de1a4360e01b81526001600160a01b03848116600483015260009216906399de1a4390602401600060405180830381865afa158015611c8f573d6000803e3d6000fd5b505050506040513d6000823e601f3d908101601f19168201604052611cb79190810190613b10565b51119050611d4f565b6001546fffffffffffffffffffffffffffffffff85161015611d4f57600a54604051631baeec3f60e31b81526001600160a01b038481166004830152600092169063dd7761f890602401602060405180830381865afa158015611d27573d6000803e3d6000fd5b505050506040513d601f19601f82011682018060405250810190611d4b9190613ba4565b1190505b8015611dc25760018381548110611d6857611d68613be6565b9060005260206000200160009054906101000a90046001600160a01b0316878781518110611d9857611d98613be6565b6001600160a01b039092166020928302919091019091015285611dba81613bfc565b965050611efc565b601054604051632bdfe5f760e11b81526001600160a01b038481166004830152909116906357bfcbee90602401600060405180830381600087803b158015611e0957600080fd5b505af1158015611e1d573d6000803e3d6000fd5b50506009546001600160a01b0385811660009081526008602052604090819020549051631dbe84a360e11b8152908216600482015291169250633b7d09469150602401600060405180830381600087803b158015611e7a57600080fd5b505af1158015611e8e573d6000803e3d6000fd5b5050506001600160a01b0383166000908152600d60209081526040808320839055600c909152902042905550604080516001600160a01b03841681524260208201527f7ec36d1734626f8b3686f8791130187e1633c843b1995003e788cd2b33d56903910160405180910390a15b5050600101611bf1565b50600a54604051632f8ba4bf60e11b81526001600160a01b0390911690635f17497e90611f3890600190600401613ce4565b600060405180830381600087803b158015611f5257600080fd5b505af1158015611f66573d6000803e3d6000fd5b50505050600a60009054906101000a90046001600160a01b03166001600160a01b031663adddc0cf6040518163ffffffff1660e01b8152600401600060405180830381600087803b158015611fba57600080fd5b505af1158015611fce573d6000803e3d6000fd5b5050505060008367ffffffffffffffff811115611fed57611fed613745565b604051908082528060200260200182016040528015612016578160200160208202803683370190505b50905060005b848110156120705785818151811061203657612036613be6565b602002602001015182828151811061205057612050613be6565b6001600160a01b039092166020928302919091019091015260010161201c565b50600960009054906101000a90046001600160a01b03166001600160a01b031663adddc0cf6040518163ffffffff1660e01b8152600401600060405180830381600087803b1580156120c157600080fd5b505af11580156120d5573d6000803e3d6000fd5b505050506000600960009054906101000a90046001600160a01b03166001600160a01b031663a5d54f656040518163ffffffff1660e01b8152600401600060405180830381865afa15801561212e573d6000803e3d6000fd5b505050506040513d6000823e601f3d908101601f191682016040526121569190810190613c55565b5111156121665761216681612729565b5050505050565b60606000805480602002602001604051908101604052809291908181526020018280548015611789576020028201919060005260206000209081546001600160a01b0316815260019091019060200180831161176b575050505050905090565b60606001805480602002602001604051908101604052809291908181526020018280548015611789576020028201919060005260206000209081546001600160a01b0316815260019091019060200180831161176b575050505050905090565b6000816000036122505760405163a63671a560e01b815260040160405180910390fd5b600482101561225d575090565b600361226a600184613c42565b6122749190613d3e565b61227f906003613d52565b61181d906001613bd3565b612292612ecf565b6001600160a01b0381166122bc57604051631e4fbdf760e01b815260006004820152602401611923565b6122c581612f2a565b50565b6001600160a01b038181166000908152600860205260408120549091166122f157506000919050565b6001600160a01b0382166000908152600d60205260409020541561231757506000919050565b506001919050565b600154600090815b81811015612373576001818154811061234257612342613be6565b6000918252602090912001546001600160a01b039081169085160361236b575060019392505050565b600101612327565b5060009392505050565b6001600160a01b0382166123a45760405163d92e233d60e01b815260040160405180910390fd5b6001600160a01b0381166123cb5760405163d92e233d60e01b815260040160405180910390fd5b806001600160a01b0316826001600160a01b0316036123fd576040516307d9394560e01b815260040160405180910390fd5b6001600160a01b038181166000908152600660205260409020541615158061243e57506001600160a01b038181166000908152600860205260409020541615155b15612467576040516326d65e0360e21b81526001600160a01b0382166004820152602401611923565b6001600160a01b03828116600090815260066020526040902054161515806124a857506001600160a01b038281166000908152600860205260409020541615155b156124d15760405163342ed6a360e01b81526001600160a01b0383166004820152602401611923565b6001600160a01b0390811660008181526006602090815260408083208054959096166001600160a01b03199586168117909655948252600890529290922080549091169091179055565b6000806125288484613d69565b90506000805b82821161256e5786818151811061254757612547613be6565b60200260200101518261255a9190613bd3565b91508061256681613bfc565b91505061252e565b612579600182613c42565b979650505050505050565b60606000808054806020026020016040519081016040528092919081815260200182805480156125dd57602002820191906000526020600020905b81546001600160a01b031681526001909101906020018083116125bf575b50505050509150600090505b81518110156126445760006004600084848151811061260a5761260a613be6565b6020908102919091018101516001600160a01b03168252810191909152604001600020805460ff19169115159190911790556001016125e9565b6001805461265491600091613646565b5060008054806020026020016040519081016040528092919081815260200182805480156126ab57602002820191906000526020600020905b81546001600160a01b0316815260019091019060200180831161268d575b50505050509150600090505b8151811015610b1f5760008282815181106126d4576126d4613be6565b6020908102919091018101516001600160a01b0381166000908152600483526040808220805460ff19166001179055600b9093529182208054919350909161271b83613bfc565b9091555050506001016126b7565b6009546040805163a5d54f6560e01b815290516000926001600160a01b03169163a5d54f6591600480830192869291908290030181865afa158015612772573d6000803e3d6000fd5b505050506040513d6000823e601f3d908101601f1916820160405261279a9190810190613c55565b90506000600e5482511015806127af57508151155b6127c2576127bd825161222d565b6127c6565b600e545b90508082511115612c015781516009546040805163957950a760e01b8152905160009283926001600160a01b039091169163957950a79160048082019286929091908290030181865afa158015612821573d6000803e3d6000fd5b505050506040513d6000823e601f3d908101601f191682016040526128499190810190613d7d565b9150915060008467ffffffffffffffff81111561286857612868613745565b604051908082528060200260200182016040528015612891578160200160208202803683370190505b5090506000805b8851811015612a165760005b86811015612a0d578982815181106128be576128be613be6565b60200260200101516001600160a01b03168982815181106128e1576128e1613be6565b60200260200101516001600160a01b031603612a055789828151811061290957612909613be6565b602002602001015184848151811061292357612923613be6565b6001600160a01b03909216602092830291909101909101528261294581613bfc565b93505085818151811061295a5761295a613be6565b60200260200101518561296d9190613c42565b94508661297981613c2b565b97505088878151811061298e5761298e613be6565b60200260200101518982815181106129a8576129a8613be6565b60200260200101906001600160a01b031690816001600160a01b0316815250508587815181106129da576129da613be6565b60200260200101518682815181106129f4576129f4613be6565b602002602001018181525050612a0d565b6001016128a4565b50600101612898565b5060075460408051634191031360e11b815290516000926001600160a01b03169163832206269160048083019260209291908290030181865afa158015612a61573d6000803e3d6000fd5b505050506040513d601f19601f82011682018060405250810190612a859190613ba4565b905060008551118015612a985750600084115b15612bf65760005b8351811015612bec57604080514284186020820152016040516020818303038152906040528051906020012060001c91506000612ade87878561251b565b9050898181518110612af257612af2613be6565b6020026020010151858381518110612b0c57612b0c613be6565b60200260200101906001600160a01b031690816001600160a01b031681525050868181518110612b3e57612b3e613be6565b602002602001015186612b519190613c42565b955087612b5d81613c2b565b985050898881518110612b7257612b72613be6565b60200260200101518a8281518110612b8c57612b8c613be6565b60200260200101906001600160a01b031690816001600160a01b031681525050868881518110612bbe57612bbe613be6565b6020026020010151878281518110612bd857612bd8613be6565b602090810291909101015250600101612aa0565b50612bf683613356565b505050505050612c0a565b612c0a82613356565b600a54604051632f8ba4bf60e11b81526001600160a01b0390911690635f17497e90612c3b90600090600401613ce4565b600060405180830381600087803b158015612c5557600080fd5b505af1158015612c69573d6000803e3d6000fd5b505050508151600014612cdf57600960009054906101000a90046001600160a01b03166001600160a01b0316631555371c6040518163ffffffff1660e01b8152600401600060405180830381600087803b158015612cc657600080fd5b505af1158015612cda573d6000803e3d6000fd5b505050505b600960009054906101000a90046001600160a01b03166001600160a01b03166322e3d9866040518163ffffffff1660e01b8152600401602060405180830381865afa158015612d32573d6000803e3d6000fd5b505050506040513d601f19601f82011682018060405250810190612d569190613ba4565b4211156114b05760095460408051631171ecc360e11b815290516001600160a01b0390921691639e72c6359183916322e3d986916004808201926020929091908290030181865afa158015612daf573d6000803e3d6000fd5b505050506040513d601f19601f82011682018060405250810190612dd39190613ba4565b612ddd9042613c42565b6040518263ffffffff1660e01b815260040161199b91815260200190565b6000612e0a60208301836136c0565b6001600160a01b03161480612e3757506000612e2c60408301602084016136c0565b6001600160a01b0316145b80612e5a57506000612e4f60608301604084016136c0565b6001600160a01b0316145b80612e7d57506000612e7260808301606084016136c0565b6001600160a01b0316145b80612ea057506000612e9560a08301608084016136c0565b6001600160a01b0316145b156122c55760405163d92e233d60e01b815260040160405180910390fd5b612ec66135d2565b6122c581613620565b33612f017f9016d09d72d40fdae2fd8ceac6b6234c7706214fd39c1cd1e609a0528c199300546001600160a01b031690565b6001600160a01b031614610d545760405163118cdaa760e01b8152336004820152602401611923565b7f9016d09d72d40fdae2fd8ceac6b6234c7706214fd39c1cd1e609a0528c19930080546001600160a01b031981166001600160a01b03848116918217845560405192169182907f8be0079c531659141344cd1fd0a4f28419497f9722a3daafe3b4186f6b6457e090600090a3505050565b60025460005b81811015612ffe5760006005600060028481548110612fc257612fc2613be6565b6000918252602080832091909101546001600160a01b031683528201929092526040019020805460ff1916911515919091179055600101612fa1565b505060008054905b818110156130625760016005600080848154811061302657613026613be6565b6000918252602080832091909101546001600160a01b031683528201929092526040019020805460ff1916911515919091179055600101613006565b600080546114b091600291613646565b6009546040805163a5d54f6560e01b815290516000926001600160a01b03169163a5d54f6591600480830192869291908290030181865afa1580156130bb573d6000803e3d6000fd5b505050506040513d6000823e601f3d908101601f191682016040526130e39190810190613c55565b805190915060005b818110156114b05760006006600085848151811061310b5761310b613be6565b6020908102919091018101516001600160a01b039081168352828201939093526040918201600090812054909316808452600490915291205490915060ff168061316b57506001600160a01b0381166000908152600d6020526040902054155b1561317657506131ee565b6010546001600160a01b038281166000818152600d6020526040908190205490516392f2944360e01b8152600481019290925260248201529116906392f2944390604401600060405180830381600087803b1580156131d457600080fd5b505af11580156131e8573d6000803e3d6000fd5b50505050505b6001016130eb565b6009546040805163df6f55f560e01b815290516000926001600160a01b03169163df6f55f591600480830192869291908290030181865afa15801561323f573d6000803e3d6000fd5b505050506040513d6000823e601f3d908101601f191682016040526132679190810190613c55565b805190915060005b818110156114b05760006006600085848151811061328f5761328f613be6565b6020908102919091018101516001600160a01b039081168352828201939093526040918201600090812054909316808452600d909152912054909150156132d6575061334e565b6010546001600160a01b038281166000818152600c6020526040908190205490516351150d5760e01b8152600481019290925260248201529116906351150d5790604401600060405180830381600087803b15801561333457600080fd5b505af1158015613348573d6000803e3d6000fd5b50505050505b60010161326f565b61336260016000613628565b80516000036135565760008054905b818110156134f757600080828154811061338d5761338d613be6565b6000918252602080832091909101546001600160a01b03908116808452600890925260409283902054600954935163a711e6a160e01b8152908216600482018190529294509192169063a711e6a190602401602060405180830381865afa1580156133fc573d6000803e3d6000fd5b505050506040513d601f19601f820116820180604052508101906134209190613e16565b801561349d575060095460405162e9ab0360e81b81526001600160a01b038381166004830181905260248301529091169063e9ab030090604401602060405180830381865afa158015613477573d6000803e3d6000fd5b505050506040513d601f19601f8201168201806040525081019061349b9190613ba4565b155b156134ed576001805480820182556000919091527fb10e2d527612073b26eecdfd717e6a320cf44b4afac2b0732d9fcbe2b7fa0cf60180546001600160a01b0319166001600160a01b0384161790555b5050600101613371565b50600154600003610b1f5760016000808154811061351757613517613be6565b60009182526020808320909101548354600181018555938352912090910180546001600160a01b0319166001600160a01b039092169190911790555050565b805160005b818110156114b05760016006600085848151811061357b5761357b613be6565b6020908102919091018101516001600160a01b0390811683528282019390935260409091016000908120548454600181810187559583529290912090910180546001600160a01b031916919092161790550161355b565b7ff0c57e16840df040f15088dc2f81fe391c3923bec73e23a9662efc9c229c6a005468010000000000000000900460ff16610d5457604051631afcd79f60e31b815260040160405180910390fd5b6122926135d2565b50805460008255906000526020600020908101906122c59190613696565b8280548282559060005260206000209081019282156136865760005260206000209182015b8281111561368657825482559160010191906001019061366b565b50613692929150613696565b5090565b5b808211156136925760008155600101613697565b6001600160a01b03811681146122c557600080fd5b6000602082840312156136d257600080fd5b81356136dd816136ab565b9392505050565b600080604083850312156136f757600080fd5b8235613702816136ab565b91506020830135613712816136ab565b809150509250929050565b602081016006831061373f57634e487b7160e01b600052602160045260246000fd5b91905290565b634e487b7160e01b600052604160045260246000fd5b604051601f8201601f1916810167ffffffffffffffff8111828210171561378457613784613745565b604052919050565b600067ffffffffffffffff8211156137a6576137a6613745565b5060051b60200190565b6000806000606084860312156137c557600080fd5b833567ffffffffffffffff8111156137dc57600080fd5b8401601f810186136137ed57600080fd5b803560206138026137fd8361378c565b61375b565b82815260059290921b8301810191818101908984111561382157600080fd5b938201935b8385101561383f57843582529382019390820190613826565b999188013598505060409096013595945050505050565b6000806040838503121561386957600080fd5b50508035926020909101359150565b6000806040838503121561388b57600080fd5b8235613896816136ab565b946020939093013593505050565b60008083601f8401126138b657600080fd5b50813567ffffffffffffffff8111156138ce57600080fd5b6020830191508360208260051b85010111156138e957600080fd5b9250929050565b60008060008060008086880361014081121561390b57600080fd5b8735613916816136ab565b965060e0601f198201121561392a57600080fd5b5060208701945061010087013567ffffffffffffffff8082111561394d57600080fd5b6139598a838b016138a4565b909650945061012089013591508082111561397357600080fd5b5061398089828a016138a4565b979a9699509497509295939492505050565b6000602082840312156139a457600080fd5b5035919050565b6020808252825182820181905260009190848201906040850190845b818110156139ec5783516001600160a01b0316835292840192918401916001016139c7565b50909695505050505050565b60005b83811015613a135781810151838201526020016139fb565b50506000910152565b6020815260008251806020840152613a3b8160408501602087016139f8565b601f01601f19169190910160400192915050565b60008060408385031215613a6257600080fd5b82356fffffffffffffffffffffffffffffffff1981168114613a8357600080fd5b915060208301357fffff0000000000000000000000000000000000000000000000000000000000008116811461371257600080fd5b80516fffffffffffffffffffffffffffffffff81168114613ad857600080fd5b919050565b60008060408385031215613af057600080fd5b613af983613ab8565b9150613b0760208401613ab8565b90509250929050565b600060208284031215613b2257600080fd5b815167ffffffffffffffff80821115613b3a57600080fd5b818401915084601f830112613b4e57600080fd5b815181811115613b6057613b60613745565b613b73601f8201601f191660200161375b565b9150808252856020828501011115613b8a57600080fd5b613b9b8160208401602086016139f8565b50949350505050565b600060208284031215613bb657600080fd5b5051919050565b634e487b7160e01b600052601160045260246000fd5b8082018082111561181d5761181d613bbd565b634e487b7160e01b600052603260045260246000fd5b600060018201613c0e57613c0e613bbd565b5060010190565b634e487b7160e01b600052603160045260246000fd5b600081613c3a57613c3a613bbd565b506000190190565b8181038181111561181d5761181d613bbd565b60006020808385031215613c6857600080fd5b825167ffffffffffffffff811115613c7f57600080fd5b8301601f81018513613c9057600080fd5b8051613c9e6137fd8261378c565b81815260059190911b82018301908381019087831115613cbd57600080fd5b928401925b82841015612579578351613cd5816136ab565b82529284019290840190613cc2565b6020808252825482820181905260008481528281209092916040850190845b818110156139ec5783546001600160a01b031683526001938401939285019201613d03565b634e487b7160e01b600052601260045260246000fd5b600082613d4d57613d4d613d28565b500490565b808202811582820484141761181d5761181d613bbd565b600082613d7857613d78613d28565b500690565b60008060408385031215613d9057600080fd5b825167ffffffffffffffff811115613da757600080fd5b8301601f81018513613db857600080fd5b80516020613dc86137fd8361378c565b82815260059290921b83018101918181019088841115613de757600080fd5b938201935b83851015613e0557845182529382019390820190613dec565b969091015195979596505050505050565b600060208284031215613e2857600080fd5b815180151581146136dd57600080fdfea2646970667358221220f331f320cd920dd52d0523d9644173df9743a8baf9ad54f935dffb2451a894f264736f6c63430008190033",
  "linkReferences": {},
  "deployedLinkReferences": {}
}