{
  "_format": "hh-sol-artifact-1",
  "contractName": "ValidatorSetHbbftMock",
  "sourceName": "contracts/mockContracts/ValidatorSetHbbftMock.sol",
  "abi": [
    {
      "inputs": [],
      "name": "AnnounceBlockNumberTooOld",
      "type": "error"
    },
    {
      "inputs": [],
      "name": "CantAnnounceAvailability",
      "type": "error"
    },
    {
      "inputs": [],
      "name": "EpochNotYetFinished",
      "type": "error"
    },
    {
      "inputs": [],
      "name": "InitialAddressesLengthMismatch",
      "type": "error"
    },
    {
      "inputs": [],
      "name": "InitialValidatorsEmpty",
      "type": "error"
    },
    {
      "inputs": [],
      "name": "InvalidAddressPair",
      "type": "error"
    },
    {
      "inputs": [],
      "name": "InvalidAnnounceBlockHash",
      "type": "error"
    },
    {
      "inputs": [],
      "name": "InvalidAnnounceBlockNumber",
      "type": "error"
    },
    {
      "inputs": [],
      "name": "InvalidInactivityThreshold",
      "type": "error"
    },
    {
      "inputs": [],
      "name": "InvalidInitialization",
      "type": "error"
    },
    {
      "inputs": [],
      "name": "InvalidPossibleValidatorCount",
      "type": "error"
    },
    {
      "inputs": [
        {
          "internalType": "address",
          "name": "_value",
          "type": "address"
        }
      ],
      "name": "MiningAddressAlreadyUsed",
      "type": "error"
    },
    {
      "inputs": [],
      "name": "NotInitializing",
      "type": "error"
    },
    {
      "inputs": [
        {
          "internalType": "address",
          "name": "owner",
          "type": "address"
        }
      ],
      "name": "OwnableInvalidOwner",
      "type": "error"
    },
    {
      "inputs": [
        {
          "internalType": "address",
          "name": "account",
          "type": "address"
        }
      ],
      "name": "OwnableUnauthorizedAccount",
      "type": "error"
    },
    {
      "inputs": [
        {
          "internalType": "address",
          "name": "_value",
          "type": "address"
        }
      ],
      "name": "StakingAddressAlreadyUsed",
      "type": "error"
    },
    {
      "inputs": [
        {
          "internalType": "address",
          "name": "_mining",
          "type": "address"
        }
      ],
      "name": "StakingPoolNotExist",
      "type": "error"
    },
    {
      "inputs": [],
      "name": "Unauthorized",
      "type": "error"
    },
    {
      "inputs": [],
      "name": "ValidatorsListEmpty",
      "type": "error"
    },
    {
      "inputs": [],
      "name": "ZeroAddress",
      "type": "error"
    },
    {
      "anonymous": false,
      "inputs": [
        {
          "indexed": false,
          "internalType": "uint64",
          "name": "version",
          "type": "uint64"
        }
      ],
      "name": "Initialized",
      "type": "event"
    },
    {
      "anonymous": false,
      "inputs": [
        {
          "indexed": true,
          "internalType": "address",
          "name": "previousOwner",
          "type": "address"
        },
        {
          "indexed": true,
          "internalType": "address",
          "name": "newOwner",
          "type": "address"
        }
      ],
      "name": "OwnershipTransferred",
      "type": "event"
    },
    {
      "anonymous": false,
      "inputs": [
        {
          "indexed": false,
          "internalType": "address",
          "name": "validator",
          "type": "address"
        },
        {
          "indexed": false,
          "internalType": "uint256",
          "name": "timestamp",
          "type": "uint256"
        }
      ],
      "name": "ValidatorAvailable",
      "type": "event"
    },
    {
      "anonymous": false,
      "inputs": [
        {
          "indexed": false,
          "internalType": "address",
          "name": "validator",
          "type": "address"
        },
        {
          "indexed": false,
          "internalType": "uint256",
          "name": "timestamp",
          "type": "uint256"
        }
      ],
      "name": "ValidatorUnavailable",
      "type": "event"
    },
    {
      "inputs": [
        {
          "internalType": "address",
          "name": "_mining",
          "type": "address"
        }
      ],
      "name": "addPendingValidator",
      "outputs": [],
      "stateMutability": "nonpayable",
      "type": "function"
    },
    {
      "inputs": [
        {
          "internalType": "uint256",
          "name": "_blockNumber",
          "type": "uint256"
        },
        {
          "internalType": "bytes32",
          "name": "_blockhash",
          "type": "bytes32"
        }
      ],
      "name": "announceAvailability",
      "outputs": [],
      "stateMutability": "nonpayable",
      "type": "function"
    },
    {
      "inputs": [],
      "name": "blockRewardContract",
      "outputs": [
        {
          "internalType": "address",
          "name": "",
          "type": "address"
        }
      ],
      "stateMutability": "view",
      "type": "function"
    },
    {
      "inputs": [],
      "name": "bonusScoreSystem",
      "outputs": [
        {
          "internalType": "contract IBonusScoreSystem",
          "name": "",
          "type": "address"
        }
      ],
      "stateMutability": "view",
      "type": "function"
    },
    {
      "inputs": [
        {
          "internalType": "address",
          "name": "_miningAddress",
          "type": "address"
        }
      ],
      "name": "canCallAnnounceAvailability",
      "outputs": [
        {
          "internalType": "bool",
          "name": "",
          "type": "bool"
        }
      ],
      "stateMutability": "view",
      "type": "function"
    },
    {
      "inputs": [],
      "name": "connectivityTracker",
      "outputs": [
        {
          "internalType": "address",
          "name": "",
          "type": "address"
        }
      ],
      "stateMutability": "view",
      "type": "function"
    },
    {
      "inputs": [],
      "name": "finalizeChange",
      "outputs": [],
      "stateMutability": "nonpayable",
      "type": "function"
    },
    {
      "inputs": [],
      "name": "forceFinalizeNewValidators",
      "outputs": [],
      "stateMutability": "nonpayable",
      "type": "function"
    },
    {
      "inputs": [],
      "name": "getCurrentValidatorsCount",
      "outputs": [
        {
          "internalType": "uint256",
          "name": "",
          "type": "uint256"
        }
      ],
      "stateMutability": "view",
      "type": "function"
    },
    {
      "inputs": [
        {
          "internalType": "address",
          "name": "_miningAddress",
          "type": "address"
        }
      ],
      "name": "getPendingValidatorKeyGenerationMode",
      "outputs": [
        {
          "internalType": "enum IValidatorSetHbbft.KeyGenMode",
          "name": "",
          "type": "uint8"
        }
      ],
      "stateMutability": "view",
      "type": "function"
    },
    {
      "inputs": [],
      "name": "getPendingValidators",
      "outputs": [
        {
          "internalType": "address[]",
          "name": "",
          "type": "address[]"
        }
      ],
      "stateMutability": "view",
      "type": "function"
    },
    {
      "inputs": [],
      "name": "getPreviousValidators",
      "outputs": [
        {
          "internalType": "address[]",
          "name": "",
          "type": "address[]"
        }
      ],
      "stateMutability": "view",
      "type": "function"
    },
    {
      "inputs": [
        {
          "internalType": "address",
          "name": "_miningAddress",
          "type": "address"
        }
      ],
      "name": "getPublicKey",
      "outputs": [
        {
          "internalType": "bytes",
          "name": "",
          "type": "bytes"
        }
      ],
      "stateMutability": "view",
      "type": "function"
    },
    {
      "inputs": [
        {
          "internalType": "uint256[]",
          "name": "_likelihood",
          "type": "uint256[]"
        },
        {
          "internalType": "uint256",
          "name": "_likelihoodSum",
          "type": "uint256"
        },
        {
          "internalType": "uint256",
          "name": "_randomNumber",
          "type": "uint256"
        }
      ],
      "name": "getRandomIndex",
      "outputs": [
        {
          "internalType": "uint256",
          "name": "",
          "type": "uint256"
        }
      ],
      "stateMutability": "pure",
      "type": "function"
    },
    {
      "inputs": [],
      "name": "getStakingContract",
      "outputs": [
        {
          "internalType": "address",
          "name": "",
          "type": "address"
        }
      ],
      "stateMutability": "view",
      "type": "function"
    },
    {
      "inputs": [
        {
          "internalType": "uint256",
          "name": "_possibleValidatorCount",
          "type": "uint256"
        }
      ],
      "name": "getValidatorCountSweetSpot",
      "outputs": [
        {
          "internalType": "uint256",
          "name": "",
          "type": "uint256"
        }
      ],
      "stateMutability": "pure",
      "type": "function"
    },
    {
      "inputs": [],
      "name": "getValidators",
      "outputs": [
        {
          "internalType": "address[]",
          "name": "",
          "type": "address[]"
        }
      ],
      "stateMutability": "view",
      "type": "function"
    },
    {
      "inputs": [],
      "name": "handleFailedKeyGeneration",
      "outputs": [],
      "stateMutability": "nonpayable",
      "type": "function"
    },
    {
      "inputs": [
        {
          "internalType": "address",
          "name": "_contractOwner",
          "type": "address"
        },
        {
          "components": [
            {
              "internalType": "address",
              "name": "blockRewardContract",
              "type": "address"
            },
            {
              "internalType": "address",
              "name": "randomContract",
              "type": "address"
            },
            {
              "internalType": "address",
              "name": "stakingContract",
              "type": "address"
            },
            {
              "internalType": "address",
              "name": "keyGenHistoryContract",
              "type": "address"
            },
            {
              "internalType": "address",
              "name": "bonusScoreContract",
              "type": "address"
            },
            {
              "internalType": "address",
              "name": "connectivityTrackerContract",
              "type": "address"
            },
            {
              "internalType": "uint256",
              "name": "validatorInactivityThreshold",
              "type": "uint256"
            }
          ],
          "internalType": "struct IValidatorSetHbbft.ValidatorSetParams",
          "name": "_params",
          "type": "tuple"
        },
        {
          "internalType": "address[]",
          "name": "_initialMiningAddresses",
          "type": "address[]"
        },
        {
          "internalType": "address[]",
          "name": "_initialStakingAddresses",
          "type": "address[]"
        }
      ],
      "name": "initialize",
      "outputs": [],
      "stateMutability": "nonpayable",
      "type": "function"
    },
    {
      "inputs": [],
      "name": "isFullHealth",
      "outputs": [
        {
          "internalType": "bool",
          "name": "",
          "type": "bool"
        }
      ],
      "stateMutability": "view",
      "type": "function"
    },
    {
      "inputs": [
        {
          "internalType": "address",
          "name": "_miningAddress",
          "type": "address"
        }
      ],
      "name": "isPendingValidator",
      "outputs": [
        {
          "internalType": "bool",
          "name": "",
          "type": "bool"
        }
      ],
      "stateMutability": "view",
      "type": "function"
    },
    {
      "inputs": [
        {
          "internalType": "address",
          "name": "",
          "type": "address"
        }
      ],
      "name": "isValidator",
      "outputs": [
        {
          "internalType": "bool",
          "name": "",
          "type": "bool"
        }
      ],
      "stateMutability": "view",
      "type": "function"
    },
    {
      "inputs": [
        {
          "internalType": "address",
          "name": "_stakingAddress",
          "type": "address"
        }
      ],
      "name": "isValidatorAbandoned",
      "outputs": [
        {
          "internalType": "bool",
          "name": "",
          "type": "bool"
        }
      ],
      "stateMutability": "view",
      "type": "function"
    },
    {
      "inputs": [
        {
          "internalType": "address",
          "name": "_miningAddress",
          "type": "address"
        }
      ],
      "name": "isValidatorOrPending",
      "outputs": [
        {
          "internalType": "bool",
          "name": "",
          "type": "bool"
        }
      ],
      "stateMutability": "view",
      "type": "function"
    },
    {
      "inputs": [
        {
          "internalType": "address",
          "name": "",
          "type": "address"
        }
      ],
      "name": "isValidatorPrevious",
      "outputs": [
        {
          "internalType": "bool",
          "name": "",
          "type": "bool"
        }
      ],
      "stateMutability": "view",
      "type": "function"
    },
    {
      "inputs": [],
      "name": "keyGenHistoryContract",
      "outputs": [
        {
          "internalType": "contract IKeyGenHistory",
          "name": "",
          "type": "address"
        }
      ],
      "stateMutability": "view",
      "type": "function"
    },
    {
      "inputs": [
        {
          "internalType": "address",
          "name": "_mining",
          "type": "address"
        }
      ],
      "name": "kickValidator",
      "outputs": [],
      "stateMutability": "nonpayable",
      "type": "function"
    },
    {
      "inputs": [],
      "name": "maxValidators",
      "outputs": [
        {
          "internalType": "uint256",
          "name": "",
          "type": "uint256"
        }
      ],
      "stateMutability": "view",
      "type": "function"
    },
    {
      "inputs": [
        {
          "internalType": "address",
          "name": "",
          "type": "address"
        }
      ],
      "name": "miningByStakingAddress",
      "outputs": [
        {
          "internalType": "address",
          "name": "",
          "type": "address"
        }
      ],
      "stateMutability": "view",
      "type": "function"
    },
    {
      "inputs": [],
      "name": "newValidatorSet",
      "outputs": [],
      "stateMutability": "nonpayable",
      "type": "function"
    },
    {
      "inputs": [
        {
          "internalType": "address",
          "name": "_miningAddress",
          "type": "address"
        }
      ],
      "name": "notifyUnavailability",
      "outputs": [],
      "stateMutability": "nonpayable",
      "type": "function"
    },
    {
      "inputs": [],
      "name": "owner",
      "outputs": [
        {
          "internalType": "address",
          "name": "",
          "type": "address"
        }
      ],
      "stateMutability": "view",
      "type": "function"
    },
    {
      "inputs": [
        {
          "internalType": "address",
          "name": "_stakingAddress",
          "type": "address"
        }
      ],
      "name": "publicKeyByStakingAddress",
      "outputs": [
        {
          "internalType": "bytes",
          "name": "",
          "type": "bytes"
        }
      ],
      "stateMutability": "view",
      "type": "function"
    },
    {
      "inputs": [],
      "name": "randomContract",
      "outputs": [
        {
          "internalType": "address",
          "name": "",
          "type": "address"
        }
      ],
      "stateMutability": "view",
      "type": "function"
    },
    {
      "inputs": [],
      "name": "renounceOwnership",
      "outputs": [],
      "stateMutability": "nonpayable",
      "type": "function"
    },
    {
      "inputs": [
        {
          "internalType": "address",
          "name": "_address",
          "type": "address"
        }
      ],
      "name": "setBlockRewardContract",
      "outputs": [],
      "stateMutability": "nonpayable",
      "type": "function"
    },
    {
      "inputs": [
        {
          "internalType": "address",
          "name": "_address",
          "type": "address"
        }
      ],
      "name": "setBonusScoreSystemAddress",
      "outputs": [],
      "stateMutability": "nonpayable",
      "type": "function"
    },
    {
      "inputs": [
        {
          "internalType": "address",
          "name": "_address",
          "type": "address"
        }
      ],
      "name": "setConnectivityTracker",
      "outputs": [],
      "stateMutability": "nonpayable",
      "type": "function"
    },
    {
      "inputs": [
        {
          "internalType": "address",
          "name": "_address",
          "type": "address"
        }
      ],
      "name": "setKeyGenHistoryContract",
      "outputs": [],
      "stateMutability": "nonpayable",
      "type": "function"
    },
    {
      "inputs": [
        {
          "internalType": "address",
          "name": "_address",
          "type": "address"
        }
      ],
      "name": "setRandomContract",
      "outputs": [],
      "stateMutability": "nonpayable",
      "type": "function"
    },
    {
      "inputs": [
        {
          "internalType": "address",
          "name": "_miningAddress",
          "type": "address"
        },
        {
          "internalType": "address",
          "name": "_stakingAddress",
          "type": "address"
        }
      ],
      "name": "setStakingAddress",
      "outputs": [],
      "stateMutability": "nonpayable",
      "type": "function"
    },
    {
      "inputs": [
        {
          "internalType": "address",
          "name": "_address",
          "type": "address"
        }
      ],
      "name": "setStakingContract",
      "outputs": [],
      "stateMutability": "nonpayable",
      "type": "function"
    },
    {
      "inputs": [
        {
          "internalType": "address",
          "name": "_validator",
          "type": "address"
        },
        {
          "internalType": "uint256",
          "name": "_timestamp",
          "type": "uint256"
        }
      ],
      "name": "setValidatorAvailableSince",
      "outputs": [],
      "stateMutability": "nonpayable",
      "type": "function"
    },
    {
      "inputs": [
        {
          "internalType": "bytes16",
          "name": "_ip",
          "type": "bytes16"
        },
        {
          "internalType": "bytes2",
          "name": "_port",
          "type": "bytes2"
        }
      ],
      "name": "setValidatorInternetAddress",
      "outputs": [],
      "stateMutability": "nonpayable",
      "type": "function"
    },
    {
      "inputs": [
        {
          "internalType": "uint256",
          "name": "num",
          "type": "uint256"
        }
      ],
      "name": "setValidatorsNum",
      "outputs": [],
      "stateMutability": "nonpayable",
      "type": "function"
    },
    {
      "inputs": [
        {
          "internalType": "address",
          "name": "",
          "type": "address"
        }
      ],
      "name": "stakingByMiningAddress",
      "outputs": [
        {
          "internalType": "address",
          "name": "",
          "type": "address"
        }
      ],
      "stateMutability": "view",
      "type": "function"
    },
    {
      "inputs": [],
      "name": "stakingContract",
      "outputs": [
        {
          "internalType": "contract IStakingHbbft",
          "name": "",
          "type": "address"
        }
      ],
      "stateMutability": "view",
      "type": "function"
    },
    {
      "inputs": [
        {
          "internalType": "address",
          "name": "newOwner",
          "type": "address"
        }
      ],
      "name": "transferOwnership",
      "outputs": [],
      "stateMutability": "nonpayable",
      "type": "function"
    },
    {
      "inputs": [
        {
          "internalType": "address",
          "name": "",
          "type": "address"
        }
      ],
      "name": "validatorAvailableSince",
      "outputs": [
        {
          "internalType": "uint256",
          "name": "",
          "type": "uint256"
        }
      ],
      "stateMutability": "view",
      "type": "function"
    },
    {
      "inputs": [
        {
          "internalType": "address",
          "name": "",
          "type": "address"
        }
      ],
      "name": "validatorAvailableSinceLastWrite",
      "outputs": [
        {
          "internalType": "uint256",
          "name": "",
          "type": "uint256"
        }
      ],
      "stateMutability": "view",
      "type": "function"
    },
    {
      "inputs": [
        {
          "internalType": "address",
          "name": "",
          "type": "address"
        }
      ],
      "name": "validatorCounter",
      "outputs": [
        {
          "internalType": "uint256",
          "name": "",
          "type": "uint256"
        }
      ],
      "stateMutability": "view",
      "type": "function"
    },
    {
      "inputs": [],
      "name": "validatorInactivityThreshold",
      "outputs": [
        {
          "internalType": "uint256",
          "name": "",
          "type": "uint256"
        }
      ],
      "stateMutability": "view",
      "type": "function"
    },
    {
      "stateMutability": "payable",
      "type": "receive"
    }
  ],
  "bytecode": "0x6080604052348015600f57600080fd5b506016601a565b60ca565b7ff0c57e16840df040f15088dc2f81fe391c3923bec73e23a9662efc9c229c6a00805468010000000000000000900460ff161560695760405163f92ee8a960e01b815260040160405180910390fd5b80546001600160401b039081161460c75780546001600160401b0319166001600160401b0390811782556040519081527fc7f505b2f371ae2175ee4913f4499e1f2633a7b5936321eed1cdaeb6115181d29060200160405180910390a15b50565b613ea4806100d96000396000f3fe6080604052600436106103425760003560e01c8063857cdbb8116101b0578063b47aef1f116100ec578063ee99205c11610095578063f2fde38b1161006f578063f2fde38b14610ad2578063f51726f014610af2578063facd743b14610b12578063fb64aac114610b4257600080fd5b8063ee99205c14610a7d578063eebc7a3914610a9d578063efd0494714610ab257600080fd5b8063ccf69e9b116100c6578063ccf69e9b146109f3578063e6d8d31814610a13578063ed7cba6214610a5057600080fd5b8063b47aef1f14610981578063b7ab4db5146109a1578063bd0d69bc146109b657600080fd5b80639dd373b911610159578063a49904e511610133578063a49904e5146108f6578063a68b5b761461090f578063ade1900a1461093f578063b41832e41461095457600080fd5b80639dd373b914610879578063a0d16cad146108b6578063a42bdee9146108d657600080fd5b80638e68dce41161018a5780638e68dce41461080b5780639881933d146108295780639d6fc1d11461084957600080fd5b8063857cdbb81461073557806385e016a1146107625780638da5cb5b146107ce57600080fd5b80635ccee1de1161027f578063715018a61161022857806374d8fb981161020257806374d8fb98146106a157806375286211146106c157806378ff69d5146106d657806385602ad51461071357600080fd5b8063715018a61461064c578063717662ee1461066157806373eb53851461068157600080fd5b806361e610681161025957806361e61068146105f657806366955469146106165780636b949ae81461063657600080fd5b80635ccee1de1461059f5780635d5fcbce146105b457806360e5c520146105c957600080fd5b80631ee4d0bc116102ec5780633f1b5d1f116102c65780633f1b5d1f1461050457806343bcce9f1461051957806351cc66461461053957806356b54bae1461057f57600080fd5b80631ee4d0bc1461047157806327a3e16b146104a75780633da74fc6146104e457600080fd5b80630a4c10721161031d5780630a4c10721461040457806314e28d90146104245780631761edb11461045157600080fd5b80625351751461034e57806308ac5256146103a15780630933e3a7146103c557600080fd5b3661034957005b600080fd5b34801561035a57600080fd5b506103846103693660046136f6565b6006602052600090815260409020546001600160a01b031681565b6040516001600160a01b0390911681526020015b60405180910390f35b3480156103ad57600080fd5b506103b7600e5481565b604051908152602001610398565b3480156103d157600080fd5b506104026103e03660046136f6565b600780546001600160a01b0319166001600160a01b0392909216919091179055565b005b34801561041057600080fd5b5061040261041f36600461371a565b610b62565b34801561043057600080fd5b5061044461043f3660046136f6565b610b9a565b6040516103989190613753565b34801561045d57600080fd5b506103b761046c3660046137e6565b610d83565b34801561047d57600080fd5b5061038461048c3660046136f6565b6008602052600090815260409020546001600160a01b031681565b3480156104b357600080fd5b506104026104c23660046136f6565b600380546001600160a01b0319166001600160a01b0392909216919091179055565b3480156104f057600080fd5b50601054610384906001600160a01b031681565b34801561051057600080fd5b50610402610dc3565b34801561052557600080fd5b5061040261053436600461388c565b610dcd565b34801561054557600080fd5b506104026105543660046138ae565b6001600160a01b03919091166000908152600d6020908152604080832093909355600c905220429055565b34801561058b57600080fd5b50600354610384906001600160a01b031681565b3480156105ab57600080fd5b50610402610f27565b3480156105c057600080fd5b506000546103b7565b3480156105d557600080fd5b506103b76105e43660046136f6565b600d6020526000908152604090205481565b34801561060257600080fd5b50610402610611366004613926565b610f69565b34801561062257600080fd5b50601154610384906001600160a01b031681565b34801561064257600080fd5b506103b7600f5481565b34801561065857600080fd5b5061040261131b565b34801561066d57600080fd5b5061040261067c3660046136f6565b61132d565b34801561068d57600080fd5b5061040261069c3660046139c8565b611434565b3480156106ad57600080fd5b506104026106bc3660046136f6565b611524565b3480156106cd57600080fd5b50610402611617565b3480156106e257600080fd5b506104026106f13660046136f6565b601180546001600160a01b0319166001600160a01b0392909216919091179055565b34801561071f57600080fd5b506107286117a0565b60405161039891906139e1565b34801561074157600080fd5b506107556107503660046136f6565b611802565b6040516103989190613a52565b34801561076e57600080fd5b5061040261077d3660046136f6565b6001805480820182556000919091527fb10e2d527612073b26eecdfd717e6a320cf44b4afac2b0732d9fcbe2b7fa0cf60180546001600160a01b0319166001600160a01b0392909216919091179055565b3480156107da57600080fd5b507f9016d09d72d40fdae2fd8ceac6b6234c7706214fd39c1cd1e609a0528c199300546001600160a01b0316610384565b34801561081757600080fd5b506009546001600160a01b0316610384565b34801561083557600080fd5b506107556108443660046136f6565b611892565b34801561085557600080fd5b506108696108643660046136f6565b6118c5565b6040519015158152602001610398565b34801561088557600080fd5b506104026108943660046136f6565b600980546001600160a01b0319166001600160a01b0392909216919091179055565b3480156108c257600080fd5b506108696108d13660046136f6565b611932565b3480156108e257600080fd5b506104026108f1366004613a85565b61195d565b34801561090257600080fd5b50600054600e5414610869565b34801561091b57600080fd5b5061086961092a3660046136f6565b60056020526000908152604090205460ff1681565b34801561094b57600080fd5b50610402611a40565b34801561096057600080fd5b506103b761096f3660046136f6565b600b6020526000908152604090205481565b34801561098d57600080fd5b50600a54610384906001600160a01b031681565b3480156109ad57600080fd5b506107286121d6565b3480156109c257600080fd5b506104026109d13660046136f6565b601080546001600160a01b0319166001600160a01b0392909216919091179055565b3480156109ff57600080fd5b50600754610384906001600160a01b031681565b348015610a1f57600080fd5b50610402610a2e3660046136f6565b600a80546001600160a01b0319166001600160a01b0392909216919091179055565b348015610a5c57600080fd5b506103b7610a6b3660046136f6565b600c6020526000908152604090205481565b348015610a8957600080fd5b50600954610384906001600160a01b031681565b348015610aa957600080fd5b50610728612236565b348015610abe57600080fd5b506103b7610acd3660046139c8565b612296565b348015610ade57600080fd5b50610402610aed3660046136f6565b6122f3565b348015610afe57600080fd5b50610869610b0d3660046136f6565b612331565b348015610b1e57600080fd5b50610869610b2d3660046136f6565b60046020526000908152604090205460ff1681565b348015610b4e57600080fd5b50610869610b5d3660046136f6565b612388565b6009546001600160a01b03163314610b8c576040516282b42960e81b815260040160405180910390fd5b610b9682826123e6565b5050565b6000610ba582612388565b610bb157506000919050565b600a5460408051637be02c2b60e01b8152815160009384936001600160a01b0390911692637be02c2b92600480830193928290030181865afa158015610bfb573d6000803e3d6000fd5b505050506040513d601f19601f82011682018060405250810190610c1f9190613b13565b60015491935091506fffffffffffffffffffffffffffffffff83161015610cd457600a546040516399de1a4360e01b81526001600160a01b03868116600483015260009216906399de1a4390602401600060405180830381865afa158015610c8b573d6000803e3d6000fd5b505050506040513d6000823e601f3d908101601f19168201604052610cb39190810190613b46565b90508051600003610cc957506001949350505050565b506002949350505050565b6001546fffffffffffffffffffffffffffffffff82161015610d7957600a54604051631baeec3f60e31b81526001600160a01b0386811660048301529091169063dd7761f890602401602060405180830381865afa158015610d3a573d6000803e3d6000fd5b505050506040513d601f19601f82011682018060405250810190610d5e9190613bda565b600003610d6f575060039392505050565b5060049392505050565b5060059392505050565b6000610dbb848484604051602001610d9d91815260200190565b6040516020818303038152906040528051906020012060001c612584565b949350505050565b610dcb6125ed565b565b610dd633612331565b610df35760405163a82bfa5560e01b815260040160405180910390fd5b438210610e13576040516341d852df60e01b815260040160405180910390fd5b43610e1f836010613c09565b11610e3d576040516310548f8360e01b815260040160405180910390fd5b80824014610e5e5760405163fe1864e160e01b815260040160405180910390fd5b336000908152600d602090815260408083204290819055600c83528184208190556009546008909352818420548251631ec56e5360e21b81526001600160a01b03918216600482015292519194931692637b15b94c926024808201939182900301818387803b158015610ed057600080fd5b505af1158015610ee4573d6000803e3d6000fd5b505060408051338152602081018590527f705d65dbee06de60e6465d68371ce849d5a1ead53e53d01a413b2b01393aa022935001905060405180910390a1505050565b6003546001600160a01b03163314610f51576040516282b42960e81b815260040160405180910390fd5b604080516000815260208101909152610dcb90612792565b7ff0c57e16840df040f15088dc2f81fe391c3923bec73e23a9662efc9c229c6a00805468010000000000000000810460ff16159067ffffffffffffffff16600081158015610fb45750825b905060008267ffffffffffffffff166001148015610fd15750303b155b905081158015610fdf575080155b15610ffd5760405163f92ee8a960e01b815260040160405180910390fd5b845467ffffffffffffffff19166001178555831561103157845468ff00000000000000001916680100000000000000001785555b61103a8a612e31565b6001600160a01b038b166110615760405163d92e233d60e01b815260040160405180910390fd5b6000889003611083576040516322b8b72360e21b815260040160405180910390fd5b8786146110a35760405163ac9e459360e01b815260040160405180910390fd5b6110ac8b612ef4565b6110b960208b018b6136f6565b600380546001600160a01b0319166001600160a01b03929092169190911790556110e960408b0160208c016136f6565b600780546001600160a01b0319166001600160a01b039290921691909117905561111960608b0160408c016136f6565b600980546001600160a01b0319166001600160a01b039290921691909117905561114960808b0160608c016136f6565b600a80546001600160a01b0319166001600160a01b039290921691909117905561117960a08b0160808c016136f6565b601080546001600160a01b0319166001600160a01b03929092169190911790556111a960c08b0160a08c016136f6565b601180546001600160a01b0319166001600160a01b039290921691909117905560c08a0135600f5560005b888110156112bd5760008a8a838181106111f0576111f0613c1c565b905060200201602081019061120591906136f6565b60008054600180820183557f290decd9548b62a8d60345a988386fc84ba6bc95484008f6362f93160ef3e56390910180546001600160a01b0319166001600160a01b0385169081179091558252600460209081526040808420805460ff1916909317909255600b9052812080549293509061127f83613c32565b91905055506112b4818a8a8581811061129a5761129a613c1c565b90506020020160208101906112af91906136f6565b6123e6565b506001016111d4565b506019600e55831561130e57845468ff000000000000000019168555604051600181527fc7f505b2f371ae2175ee4913f4499e1f2633a7b5936321eed1cdaeb6115181d29060200160405180910390a15b5050505050505050505050565b611323612f05565b610dcb6000612f60565b6011546001600160a01b03163314611357576040516282b42960e81b815260040160405180910390fd5b6009546001600160a01b0382811660009081526008602052604090819020549051631dbe84a360e11b81529082166004820152911690633b7d094690602401600060405180830381600087803b1580156113b057600080fd5b505af11580156113c4573d6000803e3d6000fd5b5050506001600160a01b0382166000908152600d60209081526040808320839055600c909152902042905550604080516001600160a01b03831681524260208201527f7ec36d1734626f8b3686f8791130187e1633c843b1995003e788cd2b33d56903910160405180910390a150565b600054818110156114ca5760008060008154811061145457611454613c1c565b6000918252602090912001546001600160a01b03169050815b838110156114c45760008054600180820183559180527f290decd9548b62a8d60345a988386fc84ba6bc95484008f6362f93160ef3e5630180546001600160a01b0319166001600160a01b0385161790550161146d565b50505050565b81811115610b9657805b8281111561151f5760008054806114ed576114ed613c4b565b600082815260209020810160001990810180546001600160a01b031916905501905561151881613c61565b90506114d4565b505050565b60008054905b8181101561151f57826001600160a01b03166000828154811061154f5761154f613c1c565b6000918252602090912001546001600160a01b03160361160f576000611576600184613c78565b8154811061158657611586613c1c565b600091825260208220015481546001600160a01b039091169190839081106115b0576115b0613c1c565b6000918252602082200180546001600160a01b0319166001600160a01b0393909316929092179091558054806115e8576115e8613c4b565b600082815260209020810160001990810180546001600160a01b0319169055019055505050565b60010161152a565b6003546001600160a01b03163314611641576040516282b42960e81b815260040160405180910390fd5b6001541561165957611651612fd1565b6116596125ed565b6116616130a8565b61166961322c565b600960009054906101000a90046001600160a01b03166001600160a01b031663ee435f556040518163ffffffff1660e01b8152600401600060405180830381600087803b1580156116b957600080fd5b505af11580156116cd573d6000803e3d6000fd5b50505050600a60009054906101000a90046001600160a01b03166001600160a01b0316632c6f194d6040518163ffffffff1660e01b8152600401600060405180830381600087803b15801561172157600080fd5b505af1158015611735573d6000803e3d6000fd5b5050505060016000611747919061365e565b600954604051638247a23960e01b81524260048201526001600160a01b0390911690638247a23990602401600060405180830381600087803b15801561178c57600080fd5b505af11580156114c4573d6000803e3d6000fd5b606060028054806020026020016040519081016040528092919081815260200182805480156117f857602002820191906000526020600020905b81546001600160a01b031681526001909101906020018083116117da575b5050505050905090565b6009546001600160a01b0382811660009081526008602052604090819020549051634e9b426d60e01b815290821660048201526060929190911690634e9b426d906024015b600060405180830381865afa158015611864573d6000803e3d6000fd5b505050506040513d6000823e601f3d908101601f1916820160405261188c9190810190613b46565b92915050565b600954604051634e9b426d60e01b81526001600160a01b0383811660048301526060921690634e9b426d90602401611847565b6001600160a01b03808216600090815260066020908152604080832054909316808352600d90915291812054909190156119025750600092915050565b6001600160a01b0381166000908152600c60205260408120546119259042613c78565b600f541115949350505050565b6001600160a01b03811660009081526004602052604081205460ff168061188c575061188c82612388565b336000908152600860205260409020546001600160a01b03168061199b576040516303a949c760e61b81523360048201526024015b60405180910390fd5b600954604051637b0a0f9b60e01b81526001600160a01b0383811660048301526fffffffffffffffffffffffffffffffff19861660248301527fffff0000000000000000000000000000000000000000000000000000000000008516604483015290911690637b0a0f9b90606401600060405180830381600087803b158015611a2357600080fd5b505af1158015611a37573d6000803e3d6000fd5b50505050505050565b6003546001600160a01b03163314611a6a576040516282b42960e81b815260040160405180910390fd5b600960009054906101000a90046001600160a01b03166001600160a01b031663bb57c8ac6040518163ffffffff1660e01b8152600401602060405180830381865afa158015611abd573d6000803e3d6000fd5b505050506040513d601f19601f82011682018060405250810190611ae19190613bda565b421015611b01576040516323398a5960e01b815260040160405180910390fd5b600960009054906101000a90046001600160a01b03166001600160a01b031663a5d54f656040518163ffffffff1660e01b8152600401600060405180830381865afa158015611b54573d6000803e3d6000fd5b505050506040513d6000823e601f3d908101601f19168201604052611b7c9190810190613c8b565b5115610dcb5760015415610dcb576001805490600090611b9c9083613c78565b67ffffffffffffffff811115611bb457611bb461377b565b604051908082528060200260200182016040528015611bdd578160200160208202803683370190505b50905060008080600a60009054906101000a90046001600160a01b03166001600160a01b0316637be02c2b6040518163ffffffff1660e01b81526004016040805180830381865afa158015611c36573d6000803e3d6000fd5b505050506040513d601f19601f82011682018060405250810190611c5a9190613b13565b9150915060005b85811015611f6e57600060018281548110611c7e57611c7e613c1c565b60009182526020822001546001600160a01b031691506fffffffffffffffffffffffffffffffff8516881115611d2a57600a546040516399de1a4360e01b81526001600160a01b03848116600483015260009216906399de1a4390602401600060405180830381865afa158015611cf9573d6000803e3d6000fd5b505050506040513d6000823e601f3d908101601f19168201604052611d219190810190613b46565b51119050611db7565b836fffffffffffffffffffffffffffffffff16881115611db757600a54604051631baeec3f60e31b81526001600160a01b038481166004830152600092169063dd7761f890602401602060405180830381865afa158015611d8f573d6000803e3d6000fd5b505050506040513d601f19601f82011682018060405250810190611db39190613bda565b1190505b8015611e2a5760018381548110611dd057611dd0613c1c565b9060005260206000200160009054906101000a90046001600160a01b0316878781518110611e0057611e00613c1c565b6001600160a01b039092166020928302919091019091015285611e2281613c32565b965050611f64565b601054604051632bdfe5f760e11b81526001600160a01b038481166004830152909116906357bfcbee90602401600060405180830381600087803b158015611e7157600080fd5b505af1158015611e85573d6000803e3d6000fd5b50506009546001600160a01b0385811660009081526008602052604090819020549051631dbe84a360e11b8152908216600482015291169250633b7d09469150602401600060405180830381600087803b158015611ee257600080fd5b505af1158015611ef6573d6000803e3d6000fd5b5050506001600160a01b0383166000908152600d60209081526040808320839055600c909152902042905550604080516001600160a01b03841681524260208201527f7ec36d1734626f8b3686f8791130187e1633c843b1995003e788cd2b33d56903910160405180910390a15b5050600101611c61565b50600a54604051632f8ba4bf60e11b81526001600160a01b0390911690635f17497e90611fa090600190600401613d1a565b600060405180830381600087803b158015611fba57600080fd5b505af1158015611fce573d6000803e3d6000fd5b50505050600a60009054906101000a90046001600160a01b03166001600160a01b031663adddc0cf6040518163ffffffff1660e01b8152600401600060405180830381600087803b15801561202257600080fd5b505af1158015612036573d6000803e3d6000fd5b5050505060008367ffffffffffffffff8111156120555761205561377b565b60405190808252806020026020018201604052801561207e578160200160208202803683370190505b50905060005b848110156120d85785818151811061209e5761209e613c1c565b60200260200101518282815181106120b8576120b8613c1c565b6001600160a01b0390921660209283029190910190910152600101612084565b50600960009054906101000a90046001600160a01b03166001600160a01b031663adddc0cf6040518163ffffffff1660e01b8152600401600060405180830381600087803b15801561212957600080fd5b505af115801561213d573d6000803e3d6000fd5b505050506000600960009054906101000a90046001600160a01b03166001600160a01b031663a5d54f656040518163ffffffff1660e01b8152600401600060405180830381865afa158015612196573d6000803e3d6000fd5b505050506040513d6000823e601f3d908101601f191682016040526121be9190810190613c8b565b5111156121ce576121ce81612792565b505050505050565b606060008054806020026020016040519081016040528092919081815260200182805480156117f8576020028201919060005260206000209081546001600160a01b031681526001909101906020018083116117da575050505050905090565b606060018054806020026020016040519081016040528092919081815260200182805480156117f8576020028201919060005260206000209081546001600160a01b031681526001909101906020018083116117da575050505050905090565b6000816000036122b95760405163a63671a560e01b815260040160405180910390fd5b60048210156122c6575090565b60036122d3600184613c78565b6122dd9190613d74565b6122e8906003613d88565b61188c906001613c09565b6122fb612f05565b6001600160a01b03811661232557604051631e4fbdf760e01b815260006004820152602401611992565b61232e81612f60565b50565b6001600160a01b0381811660009081526008602052604081205490911661235a57506000919050565b6001600160a01b0382166000908152600d60205260409020541561238057506000919050565b506001919050565b600154600090815b818110156123dc57600181815481106123ab576123ab613c1c565b6000918252602090912001546001600160a01b03908116908516036123d4575060019392505050565b600101612390565b5060009392505050565b6001600160a01b03821661240d5760405163d92e233d60e01b815260040160405180910390fd5b6001600160a01b0381166124345760405163d92e233d60e01b815260040160405180910390fd5b806001600160a01b0316826001600160a01b031603612466576040516307d9394560e01b815260040160405180910390fd5b6001600160a01b03818116600090815260066020526040902054161515806124a757506001600160a01b038181166000908152600860205260409020541615155b156124d0576040516326d65e0360e21b81526001600160a01b0382166004820152602401611992565b6001600160a01b038281166000908152600660205260409020541615158061251157506001600160a01b038281166000908152600860205260409020541615155b1561253a5760405163342ed6a360e01b81526001600160a01b0383166004820152602401611992565b6001600160a01b0390811660008181526006602090815260408083208054959096166001600160a01b03199586168117909655948252600890529290922080549091169091179055565b6000806125918484613d9f565b90506000805b8282116125d7578681815181106125b0576125b0613c1c565b6020026020010151826125c39190613c09565b9150806125cf81613c32565b915050612597565b6125e2600182613c78565b979650505050505050565b606060008080548060200260200160405190810160405280929190818152602001828054801561264657602002820191906000526020600020905b81546001600160a01b03168152600190910190602001808311612628575b50505050509150600090505b81518110156126ad5760006004600084848151811061267357612673613c1c565b6020908102919091018101516001600160a01b03168252810191909152604001600020805460ff1916911515919091179055600101612652565b600180546126bd9160009161367c565b50600080548060200260200160405190810160405280929190818152602001828054801561271457602002820191906000526020600020905b81546001600160a01b031681526001909101906020018083116126f6575b50505050509150600090505b8151811015610b9657600082828151811061273d5761273d613c1c565b6020908102919091018101516001600160a01b0381166000908152600483526040808220805460ff19166001179055600b9093529182208054919350909161278483613c32565b909155505050600101612720565b6009546040805163a5d54f6560e01b815290516000926001600160a01b03169163a5d54f6591600480830192869291908290030181865afa1580156127db573d6000803e3d6000fd5b505050506040513d6000823e601f3d908101601f191682016040526128039190810190613c8b565b90506000600e54825110158061281857508151155b61282b576128268251612296565b61282f565b600e545b90508082511115612c6a5781516009546040805163957950a760e01b8152905160009283926001600160a01b039091169163957950a79160048082019286929091908290030181865afa15801561288a573d6000803e3d6000fd5b505050506040513d6000823e601f3d908101601f191682016040526128b29190810190613db3565b9150915060008467ffffffffffffffff8111156128d1576128d161377b565b6040519080825280602002602001820160405280156128fa578160200160208202803683370190505b5090506000805b8851811015612a7f5760005b86811015612a765789828151811061292757612927613c1c565b60200260200101516001600160a01b031689828151811061294a5761294a613c1c565b60200260200101516001600160a01b031603612a6e5789828151811061297257612972613c1c565b602002602001015184848151811061298c5761298c613c1c565b6001600160a01b0390921660209283029190910190910152826129ae81613c32565b9350508581815181106129c3576129c3613c1c565b6020026020010151856129d69190613c78565b9450866129e281613c61565b9750508887815181106129f7576129f7613c1c565b6020026020010151898281518110612a1157612a11613c1c565b60200260200101906001600160a01b031690816001600160a01b031681525050858781518110612a4357612a43613c1c565b6020026020010151868281518110612a5d57612a5d613c1c565b602002602001018181525050612a76565b60010161290d565b50600101612901565b5060075460408051634191031360e11b815290516000926001600160a01b03169163832206269160048083019260209291908290030181865afa158015612aca573d6000803e3d6000fd5b505050506040513d601f19601f82011682018060405250810190612aee9190613bda565b905060008551118015612b015750600084115b15612c5f5760005b8351811015612c5557604080514284186020820152016040516020818303038152906040528051906020012060001c91506000612b47878785612584565b9050898181518110612b5b57612b5b613c1c565b6020026020010151858381518110612b7557612b75613c1c565b60200260200101906001600160a01b031690816001600160a01b031681525050868181518110612ba757612ba7613c1c565b602002602001015186612bba9190613c78565b955087612bc681613c61565b985050898881518110612bdb57612bdb613c1c565b60200260200101518a8281518110612bf557612bf5613c1c565b60200260200101906001600160a01b031690816001600160a01b031681525050868881518110612c2757612c27613c1c565b6020026020010151878281518110612c4157612c41613c1c565b602090810291909101015250600101612b09565b50612c5f8361338c565b505050505050612c73565b612c738261338c565b600a54604051632f8ba4bf60e11b81526001600160a01b0390911690635f17497e90612ca490600090600401613d1a565b600060405180830381600087803b158015612cbe57600080fd5b505af1158015612cd2573d6000803e3d6000fd5b505050508151600014612d4857600960009054906101000a90046001600160a01b03166001600160a01b0316631555371c6040518163ffffffff1660e01b8152600401600060405180830381600087803b158015612d2f57600080fd5b505af1158015612d43573d6000803e3d6000fd5b505050505b60095460408051632ed5f22b60e21b815290516000926001600160a01b03169163bb57c8ac9160048083019260209291908290030181865afa158015612d92573d6000803e3d6000fd5b505050506040513d601f19601f82011682018060405250810190612db69190613bda565b9050804211156114c4576009546001600160a01b0316639e72c635612ddb8342613c78565b6040518263ffffffff1660e01b8152600401612df991815260200190565b600060405180830381600087803b158015612e1357600080fd5b505af1158015612e27573d6000803e3d6000fd5b5050505050505050565b6000612e4060208301836136f6565b6001600160a01b03161480612e6d57506000612e6260408301602084016136f6565b6001600160a01b0316145b80612e9057506000612e8560608301604084016136f6565b6001600160a01b0316145b80612eb357506000612ea860808301606084016136f6565b6001600160a01b0316145b80612ed657506000612ecb60a08301608084016136f6565b6001600160a01b0316145b1561232e5760405163d92e233d60e01b815260040160405180910390fd5b612efc613608565b61232e81613656565b33612f377f9016d09d72d40fdae2fd8ceac6b6234c7706214fd39c1cd1e609a0528c199300546001600160a01b031690565b6001600160a01b031614610dcb5760405163118cdaa760e01b8152336004820152602401611992565b7f9016d09d72d40fdae2fd8ceac6b6234c7706214fd39c1cd1e609a0528c19930080546001600160a01b031981166001600160a01b03848116918217845560405192169182907f8be0079c531659141344cd1fd0a4f28419497f9722a3daafe3b4186f6b6457e090600090a3505050565b60025460005b818110156130345760006005600060028481548110612ff857612ff8613c1c565b6000918252602080832091909101546001600160a01b031683528201929092526040019020805460ff1916911515919091179055600101612fd7565b505060008054905b818110156130985760016005600080848154811061305c5761305c613c1c565b6000918252602080832091909101546001600160a01b031683528201929092526040019020805460ff191691151591909117905560010161303c565b6000805461151f9160029161367c565b6009546040805163a5d54f6560e01b815290516000926001600160a01b03169163a5d54f6591600480830192869291908290030181865afa1580156130f1573d6000803e3d6000fd5b505050506040513d6000823e601f3d908101601f191682016040526131199190810190613c8b565b805190915060005b8181101561151f5760006006600085848151811061314157613141613c1c565b6020908102919091018101516001600160a01b039081168352828201939093526040918201600090812054909316808452600490915291205490915060ff16806131a157506001600160a01b0381166000908152600d6020526040902054155b156131ac5750613224565b6010546001600160a01b038281166000818152600d6020526040908190205490516392f2944360e01b8152600481019290925260248201529116906392f2944390604401600060405180830381600087803b15801561320a57600080fd5b505af115801561321e573d6000803e3d6000fd5b50505050505b600101613121565b6009546040805163df6f55f560e01b815290516000926001600160a01b03169163df6f55f591600480830192869291908290030181865afa158015613275573d6000803e3d6000fd5b505050506040513d6000823e601f3d908101601f1916820160405261329d9190810190613c8b565b805190915060005b8181101561151f576000600660008584815181106132c5576132c5613c1c565b6020908102919091018101516001600160a01b039081168352828201939093526040918201600090812054909316808452600d9091529120549091501561330c5750613384565b6010546001600160a01b038281166000818152600c6020526040908190205490516351150d5760e01b8152600481019290925260248201529116906351150d5790604401600060405180830381600087803b15801561336a57600080fd5b505af115801561337e573d6000803e3d6000fd5b50505050505b6001016132a5565b6133986001600061365e565b805160000361358c5760008054905b8181101561352d5760008082815481106133c3576133c3613c1c565b6000918252602080832091909101546001600160a01b03908116808452600890925260409283902054600954935163a711e6a160e01b8152908216600482018190529294509192169063a711e6a190602401602060405180830381865afa158015613432573d6000803e3d6000fd5b505050506040513d601f19601f820116820180604052508101906134569190613e4c565b80156134d3575060095460405162e9ab0360e81b81526001600160a01b038381166004830181905260248301529091169063e9ab030090604401602060405180830381865afa1580156134ad573d6000803e3d6000fd5b505050506040513d601f19601f820116820180604052508101906134d19190613bda565b155b15613523576001805480820182556000919091527fb10e2d527612073b26eecdfd717e6a320cf44b4afac2b0732d9fcbe2b7fa0cf60180546001600160a01b0319166001600160a01b0384161790555b50506001016133a7565b50600154600003610b965760016000808154811061354d5761354d613c1c565b60009182526020808320909101548354600181018555938352912090910180546001600160a01b0319166001600160a01b039092169190911790555050565b805160005b8181101561151f576001600660008584815181106135b1576135b1613c1c565b6020908102919091018101516001600160a01b0390811683528282019390935260409091016000908120548454600181810187559583529290912090910180546001600160a01b0319169190921617905501613591565b7ff0c57e16840df040f15088dc2f81fe391c3923bec73e23a9662efc9c229c6a005468010000000000000000900460ff16610dcb57604051631afcd79f60e31b815260040160405180910390fd5b6122fb613608565b508054600082559060005260206000209081019061232e91906136cc565b8280548282559060005260206000209081019282156136bc5760005260206000209182015b828111156136bc5782548255916001019190600101906136a1565b506136c89291506136cc565b5090565b5b808211156136c857600081556001016136cd565b6001600160a01b038116811461232e57600080fd5b60006020828403121561370857600080fd5b8135613713816136e1565b9392505050565b6000806040838503121561372d57600080fd5b8235613738816136e1565b91506020830135613748816136e1565b809150509250929050565b602081016006831061377557634e487b7160e01b600052602160045260246000fd5b91905290565b634e487b7160e01b600052604160045260246000fd5b604051601f8201601f1916810167ffffffffffffffff811182821017156137ba576137ba61377b565b604052919050565b600067ffffffffffffffff8211156137dc576137dc61377b565b5060051b60200190565b6000806000606084860312156137fb57600080fd5b833567ffffffffffffffff81111561381257600080fd5b8401601f8101861361382357600080fd5b80356020613838613833836137c2565b613791565b82815260059290921b8301810191818101908984111561385757600080fd5b938201935b838510156138755784358252938201939082019061385c565b999188013598505060409096013595945050505050565b6000806040838503121561389f57600080fd5b50508035926020909101359150565b600080604083850312156138c157600080fd5b82356138cc816136e1565b946020939093013593505050565b60008083601f8401126138ec57600080fd5b50813567ffffffffffffffff81111561390457600080fd5b6020830191508360208260051b850101111561391f57600080fd5b9250929050565b60008060008060008086880361014081121561394157600080fd5b873561394c816136e1565b965060e0601f198201121561396057600080fd5b5060208701945061010087013567ffffffffffffffff8082111561398357600080fd5b61398f8a838b016138da565b90965094506101208901359150808211156139a957600080fd5b506139b689828a016138da565b979a9699509497509295939492505050565b6000602082840312156139da57600080fd5b5035919050565b6020808252825182820181905260009190848201906040850190845b81811015613a225783516001600160a01b0316835292840192918401916001016139fd565b50909695505050505050565b60005b83811015613a49578181015183820152602001613a31565b50506000910152565b6020815260008251806020840152613a71816040850160208701613a2e565b601f01601f19169190910160400192915050565b60008060408385031215613a9857600080fd5b82356fffffffffffffffffffffffffffffffff1981168114613ab957600080fd5b915060208301357fffff0000000000000000000000000000000000000000000000000000000000008116811461374857600080fd5b80516fffffffffffffffffffffffffffffffff81168114613b0e57600080fd5b919050565b60008060408385031215613b2657600080fd5b613b2f83613aee565b9150613b3d60208401613aee565b90509250929050565b600060208284031215613b5857600080fd5b815167ffffffffffffffff80821115613b7057600080fd5b818401915084601f830112613b8457600080fd5b815181811115613b9657613b9661377b565b613ba9601f8201601f1916602001613791565b9150808252856020828501011115613bc057600080fd5b613bd1816020840160208601613a2e565b50949350505050565b600060208284031215613bec57600080fd5b5051919050565b634e487b7160e01b600052601160045260246000fd5b8082018082111561188c5761188c613bf3565b634e487b7160e01b600052603260045260246000fd5b600060018201613c4457613c44613bf3565b5060010190565b634e487b7160e01b600052603160045260246000fd5b600081613c7057613c70613bf3565b506000190190565b8181038181111561188c5761188c613bf3565b60006020808385031215613c9e57600080fd5b825167ffffffffffffffff811115613cb557600080fd5b8301601f81018513613cc657600080fd5b8051613cd4613833826137c2565b81815260059190911b82018301908381019087831115613cf357600080fd5b928401925b828410156125e2578351613d0b816136e1565b82529284019290840190613cf8565b6020808252825482820181905260008481528281209092916040850190845b81811015613a225783546001600160a01b031683526001938401939285019201613d39565b634e487b7160e01b600052601260045260246000fd5b600082613d8357613d83613d5e565b500490565b808202811582820484141761188c5761188c613bf3565b600082613dae57613dae613d5e565b500690565b60008060408385031215613dc657600080fd5b825167ffffffffffffffff811115613ddd57600080fd5b8301601f81018513613dee57600080fd5b80516020613dfe613833836137c2565b82815260059290921b83018101918181019088841115613e1d57600080fd5b938201935b83851015613e3b57845182529382019390820190613e22565b969091015195979596505050505050565b600060208284031215613e5e57600080fd5b8151801515811461371357600080fdfea2646970667358221220dfa3404a417d3f77e23b01b9d6219841fe71fce879826628d7a00a910fc8bd4f64736f6c63430008190033",
  "linkReferences": {},
  "deployedLinkReferences": {}
}