{
  "_format": "hh-sol-artifact-1",
  "contractName": "ValidatorSetHbbftMock",
  "sourceName": "contracts/mockContracts/ValidatorSetHbbftMock.sol",
  "abi": [
    {
      "inputs": [],
      "name": "AnnounceBlockNumberTooOld",
      "type": "error"
    },
    {
      "inputs": [],
      "name": "CantAnnounceAvailability",
      "type": "error"
    },
    {
      "inputs": [],
      "name": "EpochNotYetzFinished",
      "type": "error"
    },
    {
      "inputs": [],
      "name": "InitialAddressesLengthMismatch",
      "type": "error"
    },
    {
      "inputs": [],
      "name": "InitialValidatorsEmpty",
      "type": "error"
    },
    {
      "inputs": [],
      "name": "InvalidAddressPair",
      "type": "error"
    },
    {
      "inputs": [],
      "name": "InvalidAnnounceBlockHash",
      "type": "error"
    },
    {
      "inputs": [],
      "name": "InvalidAnnounceBlockNumber",
      "type": "error"
    },
    {
      "inputs": [],
      "name": "InvalidInactivityThreshold",
      "type": "error"
    },
    {
      "inputs": [],
      "name": "InvalidInitialization",
      "type": "error"
    },
    {
      "inputs": [],
      "name": "InvalidPossibleValidatorCount",
      "type": "error"
    },
    {
      "inputs": [
        {
          "internalType": "address",
          "name": "_value",
          "type": "address"
        }
      ],
      "name": "MiningAddressAlreadyUsed",
      "type": "error"
    },
    {
      "inputs": [],
      "name": "NotInitializing",
      "type": "error"
    },
    {
      "inputs": [
        {
          "internalType": "address",
          "name": "owner",
          "type": "address"
        }
      ],
      "name": "OwnableInvalidOwner",
      "type": "error"
    },
    {
      "inputs": [
        {
          "internalType": "address",
          "name": "account",
          "type": "address"
        }
      ],
      "name": "OwnableUnauthorizedAccount",
      "type": "error"
    },
    {
      "inputs": [
        {
          "internalType": "address",
          "name": "_value",
          "type": "address"
        }
      ],
      "name": "StakingAddressAlreadyUsed",
      "type": "error"
    },
    {
      "inputs": [
        {
          "internalType": "address",
          "name": "_mining",
          "type": "address"
        }
      ],
      "name": "StakingPoolNotExist",
      "type": "error"
    },
    {
      "inputs": [],
      "name": "Unauthorized",
      "type": "error"
    },
    {
      "inputs": [],
      "name": "ValidatorsListEmpty",
      "type": "error"
    },
    {
      "inputs": [],
      "name": "ZeroAddress",
      "type": "error"
    },
    {
      "anonymous": false,
      "inputs": [
        {
          "indexed": false,
          "internalType": "uint64",
          "name": "version",
          "type": "uint64"
        }
      ],
      "name": "Initialized",
      "type": "event"
    },
    {
      "anonymous": false,
      "inputs": [
        {
          "indexed": true,
          "internalType": "address",
          "name": "previousOwner",
          "type": "address"
        },
        {
          "indexed": true,
          "internalType": "address",
          "name": "newOwner",
          "type": "address"
        }
      ],
      "name": "OwnershipTransferred",
      "type": "event"
    },
    {
      "anonymous": false,
      "inputs": [
        {
          "indexed": false,
          "internalType": "address",
          "name": "_address",
          "type": "address"
        }
      ],
      "name": "SetBonusScoreContract",
      "type": "event"
    },
    {
      "anonymous": false,
      "inputs": [
        {
          "indexed": false,
          "internalType": "address",
          "name": "_address",
          "type": "address"
        }
      ],
      "name": "SetConnectivityTrackerContract",
      "type": "event"
    },
    {
      "anonymous": false,
      "inputs": [
        {
          "indexed": false,
          "internalType": "uint256",
          "name": "_count",
          "type": "uint256"
        }
      ],
      "name": "SetMaxValidators",
      "type": "event"
    },
    {
      "anonymous": false,
      "inputs": [
        {
          "indexed": false,
          "internalType": "uint256",
          "name": "_value",
          "type": "uint256"
        }
      ],
      "name": "SetValidatorInactivityThreshold",
      "type": "event"
    },
    {
      "anonymous": false,
      "inputs": [
        {
          "indexed": false,
          "internalType": "address",
          "name": "validator",
          "type": "address"
        },
        {
          "indexed": false,
          "internalType": "uint256",
          "name": "timestamp",
          "type": "uint256"
        }
      ],
      "name": "ValidatorAvailable",
      "type": "event"
    },
    {
      "anonymous": false,
      "inputs": [
        {
          "indexed": false,
          "internalType": "address",
          "name": "validator",
          "type": "address"
        },
        {
          "indexed": false,
          "internalType": "uint256",
          "name": "timestamp",
          "type": "uint256"
        }
      ],
      "name": "ValidatorUnavailable",
      "type": "event"
    },
    {
      "inputs": [
        {
          "internalType": "address",
          "name": "",
          "type": "address"
        }
      ],
      "name": "_unused2",
      "outputs": [
        {
          "internalType": "uint256",
          "name": "",
          "type": "uint256"
        }
      ],
      "stateMutability": "view",
      "type": "function"
    },
    {
      "inputs": [
        {
          "internalType": "address",
          "name": "",
          "type": "address"
        }
      ],
      "name": "_unused3",
      "outputs": [
        {
          "internalType": "uint256",
          "name": "",
          "type": "uint256"
        }
      ],
      "stateMutability": "view",
      "type": "function"
    },
    {
      "inputs": [
        {
          "internalType": "address",
          "name": "",
          "type": "address"
        }
      ],
      "name": "_unused4",
      "outputs": [
        {
          "internalType": "uint256",
          "name": "",
          "type": "uint256"
        }
      ],
      "stateMutability": "view",
      "type": "function"
    },
    {
      "inputs": [
        {
          "internalType": "address",
          "name": "",
          "type": "address"
        }
      ],
      "name": "_unused5",
      "outputs": [
        {
          "internalType": "bytes32",
          "name": "",
          "type": "bytes32"
        }
      ],
      "stateMutability": "view",
      "type": "function"
    },
    {
      "inputs": [
        {
          "internalType": "address",
          "name": "",
          "type": "address"
        },
        {
          "internalType": "uint256",
          "name": "",
          "type": "uint256"
        }
      ],
      "name": "_unused6",
      "outputs": [
        {
          "internalType": "uint256",
          "name": "",
          "type": "uint256"
        }
      ],
      "stateMutability": "view",
      "type": "function"
    },
    {
      "inputs": [
        {
          "internalType": "uint256",
          "name": "",
          "type": "uint256"
        }
      ],
      "name": "_unused7",
      "outputs": [
        {
          "internalType": "uint256",
          "name": "",
          "type": "uint256"
        }
      ],
      "stateMutability": "view",
      "type": "function"
    },
    {
      "inputs": [],
      "name": "_unused8",
      "outputs": [
        {
          "internalType": "uint256",
          "name": "",
          "type": "uint256"
        }
      ],
      "stateMutability": "view",
      "type": "function"
    },
    {
      "inputs": [
        {
          "internalType": "uint256",
          "name": "_blockNumber",
          "type": "uint256"
        },
        {
          "internalType": "bytes32",
          "name": "_blockhash",
          "type": "bytes32"
        }
      ],
      "name": "announceAvailability",
      "outputs": [],
      "stateMutability": "nonpayable",
      "type": "function"
    },
    {
      "inputs": [],
      "name": "blockRewardContract",
      "outputs": [
        {
          "internalType": "address",
          "name": "",
          "type": "address"
        }
      ],
      "stateMutability": "view",
      "type": "function"
    },
    {
      "inputs": [],
      "name": "bonusScoreSystem",
      "outputs": [
        {
          "internalType": "contract IBonusScoreSystem",
          "name": "",
          "type": "address"
        }
      ],
      "stateMutability": "view",
      "type": "function"
    },
    {
      "inputs": [
        {
          "internalType": "address",
          "name": "_miningAddress",
          "type": "address"
        }
      ],
      "name": "canCallAnnounceAvailability",
      "outputs": [
        {
          "internalType": "bool",
          "name": "",
          "type": "bool"
        }
      ],
      "stateMutability": "view",
      "type": "function"
    },
    {
      "inputs": [],
      "name": "connectivityTracker",
      "outputs": [
        {
          "internalType": "address",
          "name": "",
          "type": "address"
        }
      ],
      "stateMutability": "view",
      "type": "function"
    },
    {
      "inputs": [],
      "name": "finalizeChange",
      "outputs": [],
      "stateMutability": "nonpayable",
      "type": "function"
    },
    {
      "inputs": [],
      "name": "forceFinalizeNewValidators",
      "outputs": [],
      "stateMutability": "nonpayable",
      "type": "function"
    },
    {
      "inputs": [],
      "name": "getCurrentValidatorsCount",
      "outputs": [
        {
          "internalType": "uint256",
          "name": "",
          "type": "uint256"
        }
      ],
      "stateMutability": "view",
      "type": "function"
    },
    {
      "inputs": [
        {
          "internalType": "address",
          "name": "_miningAddress",
          "type": "address"
        }
      ],
      "name": "getPendingValidatorKeyGenerationMode",
      "outputs": [
        {
          "internalType": "enum IValidatorSetHbbft.KeyGenMode",
          "name": "",
          "type": "uint8"
        }
      ],
      "stateMutability": "view",
      "type": "function"
    },
    {
      "inputs": [],
      "name": "getPendingValidators",
      "outputs": [
        {
          "internalType": "address[]",
          "name": "",
          "type": "address[]"
        }
      ],
      "stateMutability": "view",
      "type": "function"
    },
    {
      "inputs": [],
      "name": "getPreviousValidators",
      "outputs": [
        {
          "internalType": "address[]",
          "name": "",
          "type": "address[]"
        }
      ],
      "stateMutability": "view",
      "type": "function"
    },
    {
      "inputs": [
        {
          "internalType": "address",
          "name": "_miningAddress",
          "type": "address"
        }
      ],
      "name": "getPublicKey",
      "outputs": [
        {
          "internalType": "bytes",
          "name": "",
          "type": "bytes"
        }
      ],
      "stateMutability": "view",
      "type": "function"
    },
    {
      "inputs": [
        {
          "internalType": "uint256[]",
          "name": "_likelihood",
          "type": "uint256[]"
        },
        {
          "internalType": "uint256",
          "name": "_likelihoodSum",
          "type": "uint256"
        },
        {
          "internalType": "uint256",
          "name": "_randomNumber",
          "type": "uint256"
        }
      ],
      "name": "getRandomIndex",
      "outputs": [
        {
          "internalType": "uint256",
          "name": "",
          "type": "uint256"
        }
      ],
      "stateMutability": "pure",
      "type": "function"
    },
    {
      "inputs": [],
      "name": "getStakingContract",
      "outputs": [
        {
          "internalType": "address",
          "name": "",
          "type": "address"
        }
      ],
      "stateMutability": "view",
      "type": "function"
    },
    {
      "inputs": [
        {
          "internalType": "uint256",
          "name": "_possibleValidatorCount",
          "type": "uint256"
        }
      ],
      "name": "getValidatorCountSweetSpot",
      "outputs": [
        {
          "internalType": "uint256",
          "name": "",
          "type": "uint256"
        }
      ],
      "stateMutability": "pure",
      "type": "function"
    },
    {
      "inputs": [],
      "name": "getValidators",
      "outputs": [
        {
          "internalType": "address[]",
          "name": "",
          "type": "address[]"
        }
      ],
      "stateMutability": "view",
      "type": "function"
    },
    {
      "inputs": [],
      "name": "handleFailedKeyGeneration",
      "outputs": [],
      "stateMutability": "nonpayable",
      "type": "function"
    },
    {
      "inputs": [
        {
          "internalType": "address",
          "name": "_contractOwner",
          "type": "address"
        },
        {
          "components": [
            {
              "internalType": "address",
              "name": "blockRewardContract",
              "type": "address"
            },
            {
              "internalType": "address",
              "name": "randomContract",
              "type": "address"
            },
            {
              "internalType": "address",
              "name": "stakingContract",
              "type": "address"
            },
            {
              "internalType": "address",
              "name": "keyGenHistoryContract",
              "type": "address"
            },
            {
              "internalType": "address",
              "name": "bonusScoreContract",
              "type": "address"
            },
            {
              "internalType": "address",
              "name": "connectivityTrackerContract",
              "type": "address"
            },
            {
              "internalType": "uint256",
              "name": "validatorInactivityThreshold",
              "type": "uint256"
            }
          ],
          "internalType": "struct IValidatorSetHbbft.ValidatorSetParams",
          "name": "_params",
          "type": "tuple"
        },
        {
          "internalType": "address[]",
          "name": "_initialMiningAddresses",
          "type": "address[]"
        },
        {
          "internalType": "address[]",
          "name": "_initialStakingAddresses",
          "type": "address[]"
        }
      ],
      "name": "initialize",
      "outputs": [],
      "stateMutability": "nonpayable",
      "type": "function"
    },
    {
      "inputs": [
        {
          "internalType": "address",
          "name": "_connectivityTracker",
          "type": "address"
        }
      ],
      "name": "initializeV2",
      "outputs": [],
      "stateMutability": "nonpayable",
      "type": "function"
    },
    {
      "inputs": [],
      "name": "isFullHealth",
      "outputs": [
        {
          "internalType": "bool",
          "name": "",
          "type": "bool"
        }
      ],
      "stateMutability": "view",
      "type": "function"
    },
    {
      "inputs": [
        {
          "internalType": "address",
          "name": "_miningAddress",
          "type": "address"
        }
      ],
      "name": "isPendingValidator",
      "outputs": [
        {
          "internalType": "bool",
          "name": "",
          "type": "bool"
        }
      ],
      "stateMutability": "view",
      "type": "function"
    },
    {
      "inputs": [
        {
          "internalType": "address",
          "name": "",
          "type": "address"
        }
      ],
      "name": "isValidator",
      "outputs": [
        {
          "internalType": "bool",
          "name": "",
          "type": "bool"
        }
      ],
      "stateMutability": "view",
      "type": "function"
    },
    {
      "inputs": [
        {
          "internalType": "address",
          "name": "_stakingAddress",
          "type": "address"
        }
      ],
      "name": "isValidatorAbandoned",
      "outputs": [
        {
          "internalType": "bool",
          "name": "",
          "type": "bool"
        }
      ],
      "stateMutability": "view",
      "type": "function"
    },
    {
      "inputs": [
        {
          "internalType": "address",
          "name": "_miningAddress",
          "type": "address"
        }
      ],
      "name": "isValidatorOrPending",
      "outputs": [
        {
          "internalType": "bool",
          "name": "",
          "type": "bool"
        }
      ],
      "stateMutability": "view",
      "type": "function"
    },
    {
      "inputs": [
        {
          "internalType": "address",
          "name": "",
          "type": "address"
        }
      ],
      "name": "isValidatorPrevious",
      "outputs": [
        {
          "internalType": "bool",
          "name": "",
          "type": "bool"
        }
      ],
      "stateMutability": "view",
      "type": "function"
    },
    {
      "inputs": [],
      "name": "keyGenHistoryContract",
      "outputs": [
        {
          "internalType": "contract IKeyGenHistory",
          "name": "",
          "type": "address"
        }
      ],
      "stateMutability": "view",
      "type": "function"
    },
    {
      "inputs": [
        {
          "internalType": "address",
          "name": "_mining",
          "type": "address"
        }
      ],
      "name": "kickValidator",
      "outputs": [],
      "stateMutability": "nonpayable",
      "type": "function"
    },
    {
      "inputs": [],
      "name": "maxValidators",
      "outputs": [
        {
          "internalType": "uint256",
          "name": "",
          "type": "uint256"
        }
      ],
      "stateMutability": "view",
      "type": "function"
    },
    {
      "inputs": [
        {
          "internalType": "address",
          "name": "",
          "type": "address"
        }
      ],
      "name": "miningByStakingAddress",
      "outputs": [
        {
          "internalType": "address",
          "name": "",
          "type": "address"
        }
      ],
      "stateMutability": "view",
      "type": "function"
    },
    {
      "inputs": [],
      "name": "newValidatorSet",
      "outputs": [],
      "stateMutability": "nonpayable",
      "type": "function"
    },
    {
      "inputs": [
        {
          "internalType": "address",
          "name": "_miningAddress",
          "type": "address"
        }
      ],
      "name": "notifyUnavailability",
      "outputs": [],
      "stateMutability": "nonpayable",
      "type": "function"
    },
    {
      "inputs": [],
      "name": "owner",
      "outputs": [
        {
          "internalType": "address",
          "name": "",
          "type": "address"
        }
      ],
      "stateMutability": "view",
      "type": "function"
    },
    {
      "inputs": [
        {
          "internalType": "address",
          "name": "_stakingAddress",
          "type": "address"
        }
      ],
      "name": "publicKeyByStakingAddress",
      "outputs": [
        {
          "internalType": "bytes",
          "name": "",
          "type": "bytes"
        }
      ],
      "stateMutability": "view",
      "type": "function"
    },
    {
      "inputs": [],
      "name": "randomContract",
      "outputs": [
        {
          "internalType": "address",
          "name": "",
          "type": "address"
        }
      ],
      "stateMutability": "view",
      "type": "function"
    },
    {
      "inputs": [],
      "name": "renounceOwnership",
      "outputs": [],
      "stateMutability": "nonpayable",
      "type": "function"
    },
    {
      "inputs": [
        {
          "internalType": "address",
          "name": "_address",
          "type": "address"
        }
      ],
      "name": "setBlockRewardContract",
      "outputs": [],
      "stateMutability": "nonpayable",
      "type": "function"
    },
    {
      "inputs": [
        {
          "internalType": "address",
          "name": "_address",
          "type": "address"
        }
      ],
      "name": "setBonusScoreSystemAddress",
      "outputs": [],
      "stateMutability": "nonpayable",
      "type": "function"
    },
    {
      "inputs": [
        {
          "internalType": "address",
          "name": "_address",
          "type": "address"
        }
      ],
      "name": "setConnectivityTracker",
      "outputs": [],
      "stateMutability": "nonpayable",
      "type": "function"
    },
    {
      "inputs": [
        {
          "internalType": "bool",
          "name": "_healthy",
          "type": "bool"
        }
      ],
      "name": "setIsFullHealth",
      "outputs": [],
      "stateMutability": "nonpayable",
      "type": "function"
    },
    {
      "inputs": [
        {
          "internalType": "address",
          "name": "_address",
          "type": "address"
        }
      ],
      "name": "setKeyGenHistoryContract",
      "outputs": [],
      "stateMutability": "nonpayable",
      "type": "function"
    },
    {
      "inputs": [
        {
          "internalType": "uint256",
          "name": "_maxValidators",
          "type": "uint256"
        }
      ],
      "name": "setMaxValidators",
      "outputs": [],
      "stateMutability": "nonpayable",
      "type": "function"
    },
    {
      "inputs": [
        {
          "internalType": "address",
          "name": "_address",
          "type": "address"
        }
      ],
      "name": "setRandomContract",
      "outputs": [],
      "stateMutability": "nonpayable",
      "type": "function"
    },
    {
      "inputs": [
        {
          "internalType": "address",
          "name": "_miningAddress",
          "type": "address"
        },
        {
          "internalType": "address",
          "name": "_stakingAddress",
          "type": "address"
        }
      ],
      "name": "setStakingAddress",
      "outputs": [],
      "stateMutability": "nonpayable",
      "type": "function"
    },
    {
      "inputs": [
        {
          "internalType": "address",
          "name": "_address",
          "type": "address"
        }
      ],
      "name": "setStakingContract",
      "outputs": [],
      "stateMutability": "nonpayable",
      "type": "function"
    },
    {
      "inputs": [
        {
          "internalType": "address",
          "name": "_validator",
          "type": "address"
        },
        {
          "internalType": "uint256",
          "name": "_timestamp",
          "type": "uint256"
        }
      ],
      "name": "setValidatorAvailableSince",
      "outputs": [],
      "stateMutability": "nonpayable",
      "type": "function"
    },
    {
      "inputs": [
        {
          "internalType": "uint256",
          "name": "_seconds",
          "type": "uint256"
        }
      ],
      "name": "setValidatorInactivityThreshold",
      "outputs": [],
      "stateMutability": "nonpayable",
      "type": "function"
    },
    {
      "inputs": [
        {
          "internalType": "bytes16",
          "name": "_ip",
          "type": "bytes16"
        },
        {
          "internalType": "bytes2",
          "name": "_port",
          "type": "bytes2"
        }
      ],
      "name": "setValidatorInternetAddress",
      "outputs": [],
      "stateMutability": "nonpayable",
      "type": "function"
    },
    {
      "inputs": [
        {
          "internalType": "uint256",
          "name": "num",
          "type": "uint256"
        }
      ],
      "name": "setValidatorsNum",
      "outputs": [],
      "stateMutability": "nonpayable",
      "type": "function"
    },
    {
      "inputs": [
        {
          "internalType": "address",
          "name": "",
          "type": "address"
        }
      ],
      "name": "stakingByMiningAddress",
      "outputs": [
        {
          "internalType": "address",
          "name": "",
          "type": "address"
        }
      ],
      "stateMutability": "view",
      "type": "function"
    },
    {
      "inputs": [],
      "name": "stakingContract",
      "outputs": [
        {
          "internalType": "contract IStakingHbbft",
          "name": "",
          "type": "address"
        }
      ],
      "stateMutability": "view",
      "type": "function"
    },
    {
      "inputs": [
        {
          "internalType": "address",
          "name": "newOwner",
          "type": "address"
        }
      ],
      "name": "transferOwnership",
      "outputs": [],
      "stateMutability": "nonpayable",
      "type": "function"
    },
    {
      "inputs": [
        {
          "internalType": "address",
          "name": "",
          "type": "address"
        }
      ],
      "name": "validatorAvailableSince",
      "outputs": [
        {
          "internalType": "uint256",
          "name": "",
          "type": "uint256"
        }
      ],
      "stateMutability": "view",
      "type": "function"
    },
    {
      "inputs": [
        {
          "internalType": "address",
          "name": "",
          "type": "address"
        }
      ],
      "name": "validatorAvailableSinceLastWrite",
      "outputs": [
        {
          "internalType": "uint256",
          "name": "",
          "type": "uint256"
        }
      ],
      "stateMutability": "view",
      "type": "function"
    },
    {
      "inputs": [
        {
          "internalType": "address",
          "name": "",
          "type": "address"
        }
      ],
      "name": "validatorCounter",
      "outputs": [
        {
          "internalType": "uint256",
          "name": "",
          "type": "uint256"
        }
      ],
      "stateMutability": "view",
      "type": "function"
    },
    {
      "inputs": [],
      "name": "validatorInactivityThreshold",
      "outputs": [
        {
          "internalType": "uint256",
          "name": "",
          "type": "uint256"
        }
      ],
      "stateMutability": "view",
      "type": "function"
    },
    {
      "stateMutability": "payable",
      "type": "receive"
    }
  ],
  "bytecode": "0x608060405234801561001057600080fd5b5061002b679cd1456d8873caff60c01b61007260201b60201c565b61004567241ca20d5a53381960c01b61007260201b60201c565b61005f673b56e0103d4fdab260c01b61007260201b60201c565b61006d61007560201b60201c565b6101ba565b50565b600061008561017960201b60201c565b90508060000160089054906101000a900460ff16156100d0576040517ff92ee8a900000000000000000000000000000000000000000000000000000000815260040160405180910390fd5b67ffffffffffffffff80168160000160009054906101000a900467ffffffffffffffff1667ffffffffffffffff16146101765767ffffffffffffffff8160000160006101000a81548167ffffffffffffffff021916908367ffffffffffffffff1602179055507fc7f505b2f371ae2175ee4913f4499e1f2633a7b5936321eed1cdaeb6115181d267ffffffffffffffff60405161016d91906101a1565b60405180910390a15b50565b60007ff0c57e16840df040f15088dc2f81fe391c3923bec73e23a9662efc9c229c6a00905090565b600060208201905060018060401b038316825292915050565b619bf3806101c96000396000f3fe6080604052600436106103b05760003560e01c8063857cdbb8116101e7578063b7ab4db51161010d578063ee99205c116100a0578063f51726f01161006f578063f51726f014610e34578063facd743b14610e71578063fb64aac114610eae578063fce260c814610eeb576103b7565b8063ee99205c14610d78578063eebc7a3914610da3578063efd0494714610dce578063f2fde38b14610e0b576103b7565b8063ddd8db02116100dc578063ddd8db0214610caa578063e6d8d31814610ce7578063e8163d9714610d10578063ed7cba6214610d3b576103b7565b8063b7ab4db514610bee578063bd0d69bc14610c19578063ccf69e9b14610c42578063d71b7e2414610c6d576103b7565b8063a0d16cad11610185578063ac5ba7bc11610154578063ac5ba7bc14610b46578063ade1900a14610b6f578063b41832e414610b86578063b47aef1f14610bc3576103b7565b8063a0d16cad14610a78578063a42bdee914610ab5578063a49904e514610ade578063a68b5b7614610b09576103b7565b80639881933d116101c15780639881933d146109ac5780639bb2ea5a146109e95780639d6fc1d114610a125780639dd373b914610a4f576103b7565b8063857cdbb8146109195780638da5cb5b146109565780638e68dce414610981576103b7565b806351cc6646116102d75780636b949ae81161026a57806374d8fb981161023957806374d8fb981461088557806375286211146108ae57806378ff69d5146108c557806385602ad5146108ee576103b7565b80636b949ae8146107f1578063715018a61461081c578063717662ee1461083357806373eb53851461085c576103b7565b806360e5c520116102a657806360e5c5201461072357806361e610681461076057806362be7d031461078957806366955469146107c6576103b7565b806351cc66461461068d57806356b54bae146106b65780635ccee1de146106e15780635d5fcbce146106f8576103b7565b80631ee4d0bc1161034f5780633da74fc61161031e5780633da74fc6146105e55780633f1b5d1f1461061057806343bcce9f146106275780634635369d14610650576103b7565b80631ee4d0bc1461051957806322db7d091461055657806327a3e16b1461059357806329b6eca9146105bc576103b7565b80630a4c10721161038b5780630a4c10721461044d57806314e28d9014610476578063155ef603146104b35780631761edb1146104dc576103b7565b8062535175146103bc57806308ac5256146103f95780630933e3a714610424576103b7565b366103b757005b600080fd5b3480156103c857600080fd5b506103e360048036038101906103de9190619172565b610f28565b6040516103f09190619199565b60405180910390f35b34801561040557600080fd5b5061040e610f5b565b60405161041b91906191c0565b60405180910390f35b34801561043057600080fd5b5061044b60048036038101906104469190619172565b610f61565b005b34801561045957600080fd5b50610474600480360381019061046f91906191d1565b610fa5565b005b34801561048257600080fd5b5061049d60048036038101906104989190619172565b611129565b6040516104aa919061920c565b60405180910390f35b3480156104bf57600080fd5b506104da60048036038101906104d5919061924c565b611671565b005b3480156104e857600080fd5b5061050360048036038101906104fe91906192ea565b61168e565b60405161051091906191c0565b60405180910390f35b34801561052557600080fd5b50610540600480360381019061053b9190619172565b6116cd565b60405161054d9190619199565b60405180910390f35b34801561056257600080fd5b5061057d60048036038101906105789190619172565b611700565b60405161058a91906191c0565b60405180910390f35b34801561059f57600080fd5b506105ba60048036038101906105b59190619172565b611718565b005b3480156105c857600080fd5b506105e360048036038101906105de9190619172565b61175c565b005b3480156105f157600080fd5b506105fa6119e6565b604051610607919061939c565b60405180910390f35b34801561061c57600080fd5b50610625611a0c565b005b34801561063357600080fd5b5061064e600480360381019061064991906193c3565b611a16565b005b34801561065c57600080fd5b50610677600480360381019061067291906193e8565b611e8a565b60405161068491906191c0565b60405180910390f35b34801561069957600080fd5b506106b460048036038101906106af91906193e8565b611eaf565b005b3480156106c257600080fd5b506106cb611ebd565b6040516106d89190619199565b60405180910390f35b3480156106ed57600080fd5b506106f6611ee3565b005b34801561070457600080fd5b5061070d6120ae565b60405161071a91906191c0565b60405180910390f35b34801561072f57600080fd5b5061074a60048036038101906107459190619172565b6120f7565b60405161075791906191c0565b60405180910390f35b34801561076c57600080fd5b5061078760048036038101906107829190619465565b61210f565b005b34801561079557600080fd5b506107b060048036038101906107ab919061950f565b612a3d565b6040516107bd91906191c0565b60405180910390f35b3480156107d257600080fd5b506107db612a55565b6040516107e89190619199565b60405180910390f35b3480156107fd57600080fd5b50610806612a7b565b60405161081391906191c0565b60405180910390f35b34801561082857600080fd5b50610831612a81565b005b34801561083f57600080fd5b5061085a60048036038101906108559190619172565b612a95565b005b34801561086857600080fd5b50610883600480360381019061087e919061950f565b612d8f565b005b34801561089157600080fd5b506108ac60048036038101906108a79190619172565b612eeb565b005b3480156108ba57600080fd5b506108c3613078565b005b3480156108d157600080fd5b506108ec60048036038101906108e79190619172565b613517565b005b3480156108fa57600080fd5b506109036136dc565b604051610910919061952b565b60405180910390f35b34801561092557600080fd5b50610940600480360381019061093b9190619172565b6137a6565b60405161094d91906195ba565b60405180910390f35b34801561096257600080fd5b5061096b6138eb565b6040516109789190619199565b60405180910390f35b34801561098d57600080fd5b50610996613923565b6040516109a39190619199565b60405180910390f35b3480156109b857600080fd5b506109d360048036038101906109ce9190619172565b613989565b6040516109e091906195ba565b60405180910390f35b3480156109f557600080fd5b50610a106004803603810190610a0b919061950f565b613a6f565b005b348015610a1e57600080fd5b50610a396004803603810190610a349190619172565b613b30565b604051610a4691906195ef565b60405180910390f35b348015610a5b57600080fd5b50610a766004803603810190610a719190619172565b613d4a565b005b348015610a8457600080fd5b50610a9f6004803603810190610a9a9190619172565b613d8e565b604051610aac91906195ef565b60405180910390f35b348015610ac157600080fd5b50610adc6004803603810190610ad79190619602565b613e68565b005b348015610aea57600080fd5b50610af361409b565b604051610b0091906195ef565b60405180910390f35b348015610b1557600080fd5b50610b306004803603810190610b2b9190619172565b6140b2565b604051610b3d91906195ef565b60405180910390f35b348015610b5257600080fd5b50610b6d6004803603810190610b68919061950f565b6140d2565b005b348015610b7b57600080fd5b50610b84614234565b005b348015610b9257600080fd5b50610bad6004803603810190610ba89190619172565b6152cc565b604051610bba91906191c0565b60405180910390f35b348015610bcf57600080fd5b50610bd86152e4565b604051610be5919061965d565b60405180910390f35b348015610bfa57600080fd5b50610c0361530a565b604051610c10919061952b565b60405180910390f35b348015610c2557600080fd5b50610c406004803603810190610c3b9190619172565b6153d4565b005b348015610c4e57600080fd5b50610c57615599565b604051610c649190619199565b60405180910390f35b348015610c7957600080fd5b50610c946004803603810190610c8f9190619172565b6155bf565b604051610ca191906191c0565b60405180910390f35b348015610cb657600080fd5b50610cd16004803603810190610ccc9190619172565b6155d7565b604051610cde91906191c0565b60405180910390f35b348015610cf357600080fd5b50610d0e6004803603810190610d099190619172565b6155ef565b005b348015610d1c57600080fd5b50610d25615633565b604051610d3291906191c0565b60405180910390f35b348015610d4757600080fd5b50610d626004803603810190610d5d9190619172565b615639565b604051610d6f91906191c0565b60405180910390f35b348015610d8457600080fd5b50610d8d615651565b604051610d9a9190619684565b60405180910390f35b348015610daf57600080fd5b50610db8615677565b604051610dc5919061952b565b60405180910390f35b348015610dda57600080fd5b50610df56004803603810190610df0919061950f565b615741565b604051610e0291906191c0565b60405180910390f35b348015610e1757600080fd5b50610e326004803603810190610e2d9190619172565b6158de565b005b348015610e4057600080fd5b50610e5b6004803603810190610e569190619172565b615964565b604051610e6891906195ef565b60405180910390f35b348015610e7d57600080fd5b50610e986004803603810190610e939190619172565b615b88565b604051610ea591906195ef565b60405180910390f35b348015610eba57600080fd5b50610ed56004803603810190610ed09190619172565b615ba8565b604051610ee291906195ef565b60405180910390f35b348015610ef757600080fd5b50610f126004803603810190610f0d9190619172565b615d56565b604051610f1f91906196ab565b60405180910390f35b600b6020528060005260406000206000915054906101000a900473ffffffffffffffffffffffffffffffffffffffff1681565b60155481565b80600c60006101000a81548173ffffffffffffffffffffffffffffffffffffffff021916908373ffffffffffffffffffffffffffffffffffffffff16021790555050565b610fb9670c4a42801ce50b1b60c01b615d6e565b610fcd678ef110f87707b04160c01b615d6e565b610fe16787ea34bf280053b160c01b615d6e565b610ff56758b1831d96035b3360c01b615d6e565b601060009054906101000a900473ffffffffffffffffffffffffffffffffffffffff1673ffffffffffffffffffffffffffffffffffffffff163373ffffffffffffffffffffffffffffffffffffffff16146110a45761105e677fd775d8514063eb60c01b615d6e565b6110726759c23521693fb8a760c01b615d6e565b6040517f82b4290000000000000000000000000000000000000000000000000000000000815260040160405180910390fd5b6110b867b07f224971c439f660c01b615d6e565b6110cc67f88c3aa7a7c41acc60c01b615d6e565b6110e06720a1751ed01b389060c01b615d6e565b6110f3665c90d331a4f89860c01b615d6e565b61110767e10e3d57a2ba655260c01b615d6e565b61111b67c9109b883104414660c01b615d6e565b6111258282615d71565b5050565b600061113f679efd7382798e70d560c01b615d6e565b61115367da329eaa3517f04c60c01b615d6e565b61116767ab36fdb91521092460c01b615d6e565b61117082615ba8565b6111b9576111886707a2699b401187cd60c01b615d6e565b61119c67eaacc6b48421c50060c01b615d6e565b6111b067aeb190f38b40fead60c01b615d6e565b6000905061166c565b6111cd676719bb5abad3996860c01b615d6e565b6111e167764780ef2595845160c01b615d6e565b6111f567192ed66c17de68df60c01b615d6e565b600080601160009054906101000a900473ffffffffffffffffffffffffffffffffffffffff1673ffffffffffffffffffffffffffffffffffffffff16637be02c2b6040518163ffffffff1660e01b81526004016040805180830381865afa158015611264573d6000803e3d6000fd5b505050506040513d601f19601f8201168201806040525081019061128891906196e5565b915091506112a06790f36995f9ed2db560c01b615d6e565b6112b467174ff48b635aae1c60c01b615d6e565b600180549050826fffffffffffffffffffffffffffffffff161015611475576112e767d7458cca9ee7b10060c01b615d6e565b6112fb67524e51682a78784760c01b615d6e565b61130f675a93f46786ef19b160c01b615d6e565b6000601160009054906101000a900473ffffffffffffffffffffffffffffffffffffffff1673ffffffffffffffffffffffffffffffffffffffff166399de1a43866040518263ffffffff1660e01b815260040161136c9190619199565b600060405180830381865afa158015611389573d6000803e3d6000fd5b505050506040513d6000823e3d601f19601f820116820180604052508101906113b29190619718565b90506113c867887ce4f34ee71dcf60c01b615d6e565b6113dc67bc3ad7f877c97bf860c01b615d6e565b600081510361142d576113f96747aa0aeadbf737a360c01b615d6e565b61140d67a0474a0b5d8e706d60c01b615d6e565b61142167f8dc0427524e88c560c01b615d6e565b6001935050505061166c565b6114416784bd731bca2544e560c01b615d6e565b61145567af3a49892058143360c01b615d6e565b611469676499c618b2481d1660c01b615d6e565b6002935050505061166c565b611489675f183dc0488e34a960c01b615d6e565b61149d6782aff3a88a44248260c01b615d6e565b600180549050816fffffffffffffffffffffffffffffffff161015611629576114d06785852bb172ac316260c01b615d6e565b6114e46761aeb2d21a94236b60c01b615d6e565b6114f867c9dc978b8b16543c60c01b615d6e565b6000601160009054906101000a900473ffffffffffffffffffffffffffffffffffffffff1673ffffffffffffffffffffffffffffffffffffffff1663dd7761f8866040518263ffffffff1660e01b81526004016115559190619199565b602060405180830381865afa158015611572573d6000803e3d6000fd5b505050506040513d601f19601f8201168201806040525081019061159691906197b0565b036115e2576115af6778056918a96eb34d60c01b615d6e565b6115c36773ea75878dd1438460c01b615d6e565b6115d7675cce48d14f7cb23460c01b615d6e565b60039250505061166c565b6115f6678c4a13951db74e5360c01b615d6e565b61160a6716fb5977a248a28060c01b615d6e565b61161e672129015a217fc4d760c01b615d6e565b60049250505061166c565b61163d674c177b1bd605ea9760c01b615d6e565b61165167089059bafdcf9c7560c01b615d6e565b611665678157c3ca920050dc60c01b615d6e565b6005925050505b919050565b80601960146101000a81548160ff02191690831515021790555050565b60006116c48484846040516020016116a691906191c0565b6040516020818303038152906040528051906020012060001c616514565b90509392505050565b600f6020528060005260406000206000915054906101000a900473ffffffffffffffffffffffffffffffffffffffff1681565b60056020528060005260406000206000915090505481565b80600860006101000a81548173ffffffffffffffffffffffffffffffffffffffff021916908373ffffffffffffffffffffffffffffffffffffffff16021790555050565b61177067648159cabd3cbba960c01b615d6e565b6002600061177c61668a565b90508060000160089054906101000a900460ff16806117c757508167ffffffffffffffff168160000160009054906101000a900467ffffffffffffffff1667ffffffffffffffff1610155b156117fe576040517ff92ee8a900000000000000000000000000000000000000000000000000000000815260040160405180910390fd5b818160000160006101000a81548167ffffffffffffffff021916908367ffffffffffffffff16021790555060018160000160086101000a81548160ff02191690831515021790555061185a67110d9151a1a87d5c60c01b615d6e565b61186e676b9228da163afdbd60c01b615d6e565b61188267e4e25cc68710b2cc60c01b615d6e565b6118966735434fa59195760c60c01b615d6e565b600073ffffffffffffffffffffffffffffffffffffffff168373ffffffffffffffffffffffffffffffffffffffff1603611924576118de6736f927be69db855860c01b615d6e565b6118f267bbe9bfd7c3f0d34a60c01b615d6e565b6040517fd92e233d00000000000000000000000000000000000000000000000000000000815260040160405180910390fd5b61193867aa841898bb2c14f560c01b615d6e565b61194c679ea066ca28a92a1e60c01b615d6e565b82601960006101000a81548173ffffffffffffffffffffffffffffffffffffffff021916908373ffffffffffffffffffffffffffffffffffffffff16021790555060008160000160086101000a81548160ff0219169083151502179055507fc7f505b2f371ae2175ee4913f4499e1f2633a7b5936321eed1cdaeb6115181d2826040516119d991906197cc565b60405180910390a1505050565b601860009054906101000a900473ffffffffffffffffffffffffffffffffffffffff1681565b611a146166b2565b565b611a2a67dc1d8bf46f263e5860c01b615d6e565b611a3e67e3d1bc08fe80d58160c01b615d6e565b611a52678358d2177fc93adf60c01b615d6e565b611a5b33615964565b611ab957611a7367f3969601d501269c60c01b615d6e565b611a8767999e792eefceda4060c01b615d6e565b6040517fa82bfa5500000000000000000000000000000000000000000000000000000000815260040160405180910390fd5b611acd67d1ecb9c11d9f312460c01b615d6e565b611ae1674cfafcb899ec498660c01b615d6e565b611af567ce97210f7b7d322260c01b615d6e565b438210611b5657611b10676d885752c0cd8b8660c01b615d6e565b611b2467e9d219f6112899db60c01b615d6e565b6040517f41d852df00000000000000000000000000000000000000000000000000000000815260040160405180910390fd5b611b6a67ece29d90afcecc4960c01b615d6e565b611b7e67ddcec878101d6f8460c01b615d6e565b611b926779d4f2bda1ab807060c01b615d6e565b43601083611ba091906197fd565b11611bff57611bb967064e925e5f873b0e60c01b615d6e565b611bcd6777687a6710aa980960c01b615d6e565b6040517f10548f8300000000000000000000000000000000000000000000000000000000815260040160405180910390fd5b611c1367063001f704967c0960c01b615d6e565b611c276730eff6fa41020e2d60c01b615d6e565b611c3b672bd5393536bce9a060c01b615d6e565b80824014611c9d57611c5767f5d4d7adf825dec760c01b615d6e565b611c6b677bf842af44fa5f3060c01b615d6e565b6040517ffe1864e100000000000000000000000000000000000000000000000000000000815260040160405180910390fd5b611cb1671e53c8682146fa2060c01b615d6e565b611cc5674e459a99dee99a9660c01b615d6e565b611cd967d23354059b58750c60c01b615d6e565b6000429050611cf267186ed3eb1ea138b460c01b615d6e565b611d066776b92b140939a3e760c01b615d6e565b611d103382616aa8565b611d246791443b16139aad1e60c01b615d6e565b611d3867bfed62320a5f405960c01b615d6e565b601060009054906101000a900473ffffffffffffffffffffffffffffffffffffffff1673ffffffffffffffffffffffffffffffffffffffff16637b15b94c600f60003373ffffffffffffffffffffffffffffffffffffffff1673ffffffffffffffffffffffffffffffffffffffff16815260200190815260200160002060009054906101000a900473ffffffffffffffffffffffffffffffffffffffff166040518263ffffffff1660e01b8152600401611df29190619199565b600060405180830381600087803b158015611e0c57600080fd5b505af1158015611e20573d6000803e3d6000fd5b50505050611e3867a632c214d611ada760c01b615d6e565b611e4c671ef3df8b972d6c8c60c01b615d6e565b7f705d65dbee06de60e6465d68371ce849d5a1ead53e53d01a413b2b01393aa0223382604051611e7d92919061981b565b60405180910390a1505050565b600d602052816000526040600020602052806000526040600020600091509150505481565b611eb98282616aa8565b5050565b600860009054906101000a900473ffffffffffffffffffffffffffffffffffffffff1681565b611ef7676d65850458138cb960c01b615d6e565b611f0b67f1a52aa91b766f0860c01b615d6e565b611f1f679891f2671240245160c01b615d6e565b611f336768f5806c609b9b2e60c01b615d6e565b600860009054906101000a900473ffffffffffffffffffffffffffffffffffffffff1673ffffffffffffffffffffffffffffffffffffffff163373ffffffffffffffffffffffffffffffffffffffff1614611fe257611f9c67cf677b2616ad266d60c01b615d6e565b611fb0677e04938bfb49ecf360c01b615d6e565b6040517f82b4290000000000000000000000000000000000000000000000000000000000815260040160405180910390fd5b611ff66743a576b48e85bc4460c01b615d6e565b61200a671da912a47c35eab360c01b615d6e565b61201e67e238fa7bc8cdae2f60c01b615d6e565b612032676ef92ba209f1fb9d60c01b615d6e565b61204667d475e8e4fb0d6c8360c01b615d6e565b61205a67569697d7dd2d26a560c01b615d6e565b6120ac600067ffffffffffffffff81111561207857612077619273565b5b6040519080825280602002602001820160405280156120a65781602001602082028036833780820191505090505b50616b70565b565b60006120c467bc09ce25ab48936060c01b615d6e565b6120d867183f36cf405a75e560c01b615d6e565b6120ec6779e6b7356f5a6eaf60c01b615d6e565b600080549050905090565b60146020528060005260406000206000915090505481565b612123679da9d42f24be44eb60c01b615d6e565b600061212d61668a565b905060008160000160089054906101000a900460ff1615905060008260000160009054906101000a900467ffffffffffffffff1690506000808267ffffffffffffffff1614801561217b5750825b9050600060018367ffffffffffffffff161480156121b0575060003073ffffffffffffffffffffffffffffffffffffffff163b145b9050811580156121be575080155b156121f5576040517ff92ee8a900000000000000000000000000000000000000000000000000000000815260040160405180910390fd5b60018560000160006101000a81548167ffffffffffffffff021916908367ffffffffffffffff16021790555083156122455760018560000160086101000a81548160ff0219169083151502179055505b6122596749e74940556fe4ed60c01b615d6e565b61226d672ef17126d0caadaf60c01b615d6e565b61228167b7796d8a69afa9fa60c01b615d6e565b6122956777a7be27f5e0febd60c01b615d6e565b61229e8a617a07565b6122b267de1ee8c11a9b29c660c01b615d6e565b6122c667e756e24aff79102760c01b615d6e565b600073ffffffffffffffffffffffffffffffffffffffff168b73ffffffffffffffffffffffffffffffffffffffff16036123545761230e6703d211cbdb51ae2660c01b615d6e565b61232267121b8f7c551d8dab60c01b615d6e565b6040517fd92e233d00000000000000000000000000000000000000000000000000000000815260040160405180910390fd5b61236867fe346ca5ee86466860c01b615d6e565b61237c6732f713f036216e9d60c01b615d6e565b6123906772f5c0f1f4450b7c60c01b615d6e565b600089899050036123f5576123af678c9f989adde5cbf460c01b615d6e565b6123c3675d941ce1f61063b560c01b615d6e565b6040517f8ae2dc8c00000000000000000000000000000000000000000000000000000000815260040160405180910390fd5b612409679dbc95d01ba935e260c01b615d6e565b61241d670b4e08dc271a7c2860c01b615d6e565b61243167ce6e6998d76e824060c01b615d6e565b8686905089899050146124985761245267c6be4f5a813ed31660c01b615d6e565b61246667d61fc9aec66cba9560c01b615d6e565b6040517fac9e459300000000000000000000000000000000000000000000000000000000815260040160405180910390fd5b6124ac67273e77aa26cdfc0760c01b615d6e565b6124c0677b99835d1f77c6c260c01b615d6e565b6124d4677a89cac17a54f31860c01b615d6e565b6124dd8b617cff565b6124f167f4dbc0b13df60b2e60c01b615d6e565b8960000160208101906125049190619172565b600860006101000a81548173ffffffffffffffffffffffffffffffffffffffff021916908373ffffffffffffffffffffffffffffffffffffffff160217905550612558677a4580154815ad1860c01b615d6e565b89602001602081019061256b9190619172565b600c60006101000a81548173ffffffffffffffffffffffffffffffffffffffff021916908373ffffffffffffffffffffffffffffffffffffffff1602179055506125bf67e63c679dab7dc3f260c01b615d6e565b8960400160208101906125d29190619172565b601060006101000a81548173ffffffffffffffffffffffffffffffffffffffff021916908373ffffffffffffffffffffffffffffffffffffffff16021790555061262667621d174f0bf216b760c01b615d6e565b8960600160208101906126399190619172565b601160006101000a81548173ffffffffffffffffffffffffffffffffffffffff021916908373ffffffffffffffffffffffffffffffffffffffff16021790555061268d67637a59d67f70f4bd60c01b615d6e565b8960800160208101906126a09190619172565b601860006101000a81548173ffffffffffffffffffffffffffffffffffffffff021916908373ffffffffffffffffffffffffffffffffffffffff1602179055506126f4675f574edd1bd063b160c01b615d6e565b8960a00160208101906127079190619172565b601960006101000a81548173ffffffffffffffffffffffffffffffffffffffff021916908373ffffffffffffffffffffffffffffffffffffffff16021790555061275b67f28e06d12c9ef6da60c01b615d6e565b8960c0013560178190555061277a67f6782a58af6bf9ae60c01b615d6e565b61278e6758ad707091e6182960c01b615d6e565b60005b898990508110156129b7576127b06739eb89154568b06460c01b615d6e565b6127c467b59987cbc733e3a560c01b615d6e565b60008a8a838181106127d9576127d8619849565b5b90506020020160208101906127ee9190619172565b9050612804679c0da8cb8883225160c01b615d6e565b61281867943b765200d7518960c01b615d6e565b6000819080600181540180825580915050600190039060005260206000200160009091909190916101000a81548173ffffffffffffffffffffffffffffffffffffffff021916908373ffffffffffffffffffffffffffffffffffffffff16021790555061288f67a3008cf102f4f0af60c01b615d6e565b6001600960008373ffffffffffffffffffffffffffffffffffffffff1673ffffffffffffffffffffffffffffffffffffffff16815260200190815260200160002060006101000a81548160ff0219169083151502179055506128fb6757c11b1c8e78cb1460c01b615d6e565b601260008273ffffffffffffffffffffffffffffffffffffffff1673ffffffffffffffffffffffffffffffffffffffff168152602001908152602001600020600081548092919061294b9061985f565b9190505550612964676b26a2a10be1db7760c01b615d6e565b612978675115308674c3766460c01b615d6e565b6129a9818a8a8581811061298f5761298e619849565b5b90506020020160208101906129a49190619172565b615d71565b508080600101915050612791565b506129cc67c7c5df967cde9dec60c01b615d6e565b60196015819055508315612a305760008560000160086101000a81548160ff0219169083151502179055507fc7f505b2f371ae2175ee4913f4499e1f2633a7b5936321eed1cdaeb6115181d26001604051612a27919061987d565b60405180910390a15b5050505050505050505050565b600e6020528060005260406000206000915090505481565b601960009054906101000a900473ffffffffffffffffffffffffffffffffffffffff1681565b60175481565b612a89617d13565b612a936000617d9a565b565b612aa967ec6f3f14a29f590460c01b615d6e565b612abd678184c5289d92e18e60c01b615d6e565b612ad167479f13889b6c16bd60c01b615d6e565b612ae567c61b1a9b2d0753d060c01b615d6e565b601960009054906101000a900473ffffffffffffffffffffffffffffffffffffffff1673ffffffffffffffffffffffffffffffffffffffff163373ffffffffffffffffffffffffffffffffffffffff1614612b9457612b4e679bcce43a1ad3252960c01b615d6e565b612b6267c3cddc9b81db069760c01b615d6e565b6040517f82b4290000000000000000000000000000000000000000000000000000000000815260040160405180910390fd5b612ba867ef4f9dfc5058780b60c01b615d6e565b612bbc670b12f2804a5ea5cc60c01b615d6e565b612bd0671ebf99b5bf59963f60c01b615d6e565b612be467791dac91109c5c9460c01b615d6e565b612bf86704723dbb7ab2f6cb60c01b615d6e565b612c0c67b92c4c205004e81560c01b615d6e565b601060009054906101000a900473ffffffffffffffffffffffffffffffffffffffff1673ffffffffffffffffffffffffffffffffffffffff16633b7d0946600f60008473ffffffffffffffffffffffffffffffffffffffff1673ffffffffffffffffffffffffffffffffffffffff16815260200190815260200160002060009054906101000a900473ffffffffffffffffffffffffffffffffffffffff166040518263ffffffff1660e01b8152600401612cc69190619199565b600060405180830381600087803b158015612ce057600080fd5b505af1158015612cf4573d6000803e3d6000fd5b50505050612d0c670de5859c5119347c60c01b615d6e565b612d206745c852d66f95701060c01b615d6e565b612d2b816000616aa8565b612d3f670b214b5325db186a60c01b615d6e565b612d5367e95ab3034fe3acff60c01b615d6e565b7f7ec36d1734626f8b3686f8791130187e1633c843b1995003e788cd2b33d569038142604051612d8492919061981b565b60405180910390a150565b60008080549050905081811015612e6b57600080600081548110612db657612db5619849565b5b9060005260206000200160009054906101000a900473ffffffffffffffffffffffffffffffffffffffff16905060008290505b838111612e64576000829080600181540180825580915050600190039060005260206000200160009091909190916101000a81548173ffffffffffffffffffffffffffffffffffffffff021916908373ffffffffffffffffffffffffffffffffffffffff16021790555080612e5d9061985f565b9050612de9565b5050612ee6565b81811115612edf5760008190505b82811115612ed9576000805480612e9357612e92619898565b5b6001900381819060005260206000200160006101000a81549073ffffffffffffffffffffffffffffffffffffffff0219169055905580612ed2906198ae565b9050612e79565b50612ee5565b50612ee8565b5b505b50565b60008080549050905060005b81811015613072578273ffffffffffffffffffffffffffffffffffffffff1660008281548110612f2a57612f29619849565b5b9060005260206000200160009054906101000a900473ffffffffffffffffffffffffffffffffffffffff1673ffffffffffffffffffffffffffffffffffffffff1603613065576000600183612f7f91906198ca565b81548110612f9057612f8f619849565b5b9060005260206000200160009054906101000a900473ffffffffffffffffffffffffffffffffffffffff1660008281548110612fcf57612fce619849565b5b9060005260206000200160006101000a81548173ffffffffffffffffffffffffffffffffffffffff021916908373ffffffffffffffffffffffffffffffffffffffff160217905550600080548061302957613028619898565b5b6001900381819060005260206000200160006101000a81549073ffffffffffffffffffffffffffffffffffffffff021916905590555050613075565b8080600101915050612ef7565b50505b50565b61308c672414fa821d65935360c01b615d6e565b6130a067f1a52aa91b766f0860c01b615d6e565b6130b4679891f2671240245160c01b615d6e565b6130c86768f5806c609b9b2e60c01b615d6e565b600860009054906101000a900473ffffffffffffffffffffffffffffffffffffffff1673ffffffffffffffffffffffffffffffffffffffff163373ffffffffffffffffffffffffffffffffffffffff16146131775761313167cf677b2616ad266d60c01b615d6e565b613145677e04938bfb49ecf360c01b615d6e565b6040517f82b4290000000000000000000000000000000000000000000000000000000000815260040160405180910390fd5b61318b6743a576b48e85bc4460c01b615d6e565b61319f671da912a47c35eab360c01b615d6e565b6131b367ebd783bd0c290ead60c01b615d6e565b6131c7671f9a48eb9951741960c01b615d6e565b6131db67abe91f658fe215ae60c01b615d6e565b6131ef6794ed41dc7ef6afeb60c01b615d6e565b6000600180549050146132755761321067469a6d2e4c73298c60c01b615d6e565b61322467ed15f888ea5d7b0460c01b615d6e565b61323867a588610740ae8c4d60c01b615d6e565b613240617e71565b61325467131500468264f18d60c01b615d6e565b61326867eda49777587e6def60c01b615d6e565b6132706166b2565b61328a565b6132896763329e931b3bebb760c01b615d6e565b5b61329e6789ebb0647a6e7fd660c01b615d6e565b6132b26701041b25ff9ced9260c01b615d6e565b6132ba618113565b6132ce67e06d81a7acc3a3d760c01b615d6e565b6132e267184cf43482a9890460c01b615d6e565b6132ea618536565b6132fe6731908dc7701b605f60c01b615d6e565b613312671cafebdd070724a860c01b615d6e565b601060009054906101000a900473ffffffffffffffffffffffffffffffffffffffff1673ffffffffffffffffffffffffffffffffffffffff1663ee435f556040518163ffffffff1660e01b8152600401600060405180830381600087803b15801561337c57600080fd5b505af1158015613390573d6000803e3d6000fd5b505050506133a867867c5a13d0f1600060c01b615d6e565b6133bc677c098501a51d659060c01b615d6e565b601160009054906101000a900473ffffffffffffffffffffffffffffffffffffffff1673ffffffffffffffffffffffffffffffffffffffff16632c6f194d6040518163ffffffff1660e01b8152600401600060405180830381600087803b15801561342657600080fd5b505af115801561343a573d6000803e3d6000fd5b5050505061345267615952046db6d1c760c01b615d6e565b6001600061346091906190bd565b61347467bb5274b01693ccac60c01b615d6e565b61348867d763234212b3d63b60c01b615d6e565b601060009054906101000a900473ffffffffffffffffffffffffffffffffffffffff1673ffffffffffffffffffffffffffffffffffffffff16638247a239426040518263ffffffff1660e01b81526004016134e391906191c0565b600060405180830381600087803b1580156134fd57600080fd5b505af1158015613511573d6000803e3d6000fd5b50505050565b61352b672364c73d3f36880560c01b615d6e565b613533617d13565b613547675ba3c65c5adbfb4960c01b615d6e565b61355b67b04c2edfc145cff360c01b615d6e565b61356f671cfb1574fd90c98060c01b615d6e565b61358367ced763523181065d60c01b615d6e565b600073ffffffffffffffffffffffffffffffffffffffff168173ffffffffffffffffffffffffffffffffffffffff1603613611576135cb6783ea4cb1100f43b560c01b615d6e565b6135df67cc5e41e0c4f223d160c01b615d6e565b6040517fd92e233d00000000000000000000000000000000000000000000000000000000815260040160405180910390fd5b61362567cd96ad528ce2bef060c01b615d6e565b61363967796ee01701e5436260c01b615d6e565b80601960006101000a81548173ffffffffffffffffffffffffffffffffffffffff021916908373ffffffffffffffffffffffffffffffffffffffff16021790555061368e670db1a6a304e397d560c01b615d6e565b6136a2677b83b94cc59be8ea60c01b615d6e565b7f5e92eb268baa307ec16b695868a1baabf6cd6749fb91d07a6762f91531839593816040516136d19190619199565b60405180910390a150565b60606136f267c7f39b6c98a17c8760c01b615d6e565b613706679393735fe8b2297d60c01b615d6e565b61371a671841960334fc7f3660c01b615d6e565b600280548060200260200160405190810160405280929190818152602001828054801561379c57602002820191906000526020600020905b8160009054906101000a900473ffffffffffffffffffffffffffffffffffffffff1673ffffffffffffffffffffffffffffffffffffffff1681526020019060010190808311613752575b5050505050905090565b60606137bc673eeb120ab17e348b60c01b615d6e565b6137d0677e4463307f7ed1e360c01b615d6e565b6137e4677602a6ec171af4e260c01b615d6e565b601060009054906101000a900473ffffffffffffffffffffffffffffffffffffffff1673ffffffffffffffffffffffffffffffffffffffff16634e9b426d600f60008573ffffffffffffffffffffffffffffffffffffffff1673ffffffffffffffffffffffffffffffffffffffff16815260200190815260200160002060009054906101000a900473ffffffffffffffffffffffffffffffffffffffff166040518263ffffffff1660e01b815260040161389e9190619199565b600060405180830381865afa1580156138bb573d6000803e3d6000fd5b505050506040513d6000823e3d601f19601f820116820180604052508101906138e49190619718565b9050919050565b6000806138f66188cc565b90508060000160009054906101000a900473ffffffffffffffffffffffffffffffffffffffff1691505090565b6000613939674b9ffc9276b5184b60c01b615d6e565b61394d6793ff2ec1eee2c0f660c01b615d6e565b613961674724eb173b26192360c01b615d6e565b601060009054906101000a900473ffffffffffffffffffffffffffffffffffffffff16905090565b606061399f67f7b0cc22f06eca0760c01b615d6e565b6139b367075c573a52b143c560c01b615d6e565b6139c7673751caedb8c0997f60c01b615d6e565b601060009054906101000a900473ffffffffffffffffffffffffffffffffffffffff1673ffffffffffffffffffffffffffffffffffffffff16634e9b426d836040518263ffffffff1660e01b8152600401613a229190619199565b600060405180830381865afa158015613a3f573d6000803e3d6000fd5b505050506040513d6000823e3d601f19601f82011682018060405250810190613a689190619718565b9050919050565b613a8367b65402092ad2d8f660c01b615d6e565b613a8b617d13565b613a9f67caab76c9f9d8440d60c01b615d6e565b613ab36704329febeb00e24360c01b615d6e565b613ac7677de14f1462e7860860c01b615d6e565b80601581905550613ae2677bae2f4440b0b96560c01b615d6e565b613af667f775674d7455dfb860c01b615d6e565b7fd3c3674d241eb3fb81da09f8c56bdf72b08c8094de786997b95cde95d0ecfff581604051613b2591906191c0565b60405180910390a150565b6000613b4667a7af33a4e8016c9d60c01b615d6e565b613b5a6769f26355545e63de60c01b615d6e565b613b6e67a443ed79dd38d24060c01b615d6e565b6000600b60008473ffffffffffffffffffffffffffffffffffffffff1673ffffffffffffffffffffffffffffffffffffffff16815260200190815260200160002060009054906101000a900473ffffffffffffffffffffffffffffffffffffffff169050613be667b4d1710d43e32e2760c01b615d6e565b613bfa674a3f5395a32bf0c960c01b615d6e565b6000601460008373ffffffffffffffffffffffffffffffffffffffff1673ffffffffffffffffffffffffffffffffffffffff1681526020019081526020016000205414613c8757613c5567102814690a082fe860c01b615d6e565b613c69671582af22a456936860c01b615d6e565b613c7d67dac32ac4bee3c88b60c01b615d6e565b6000915050613d45565b613c9b679cab6120cec4decd60c01b615d6e565b613caf67df501a30be6c9e2760c01b615d6e565b613cc367748d90e1a273ec0460c01b615d6e565b6000601360008373ffffffffffffffffffffffffffffffffffffffff1673ffffffffffffffffffffffffffffffffffffffff1681526020019081526020016000205442613d1091906198ca565b9050613d2667dcb3f4c792dcc5ad60c01b615d6e565b613d3a67c8f8161c84c09af160c01b615d6e565b601754811015925050505b919050565b80601060006101000a81548173ffffffffffffffffffffffffffffffffffffffff021916908373ffffffffffffffffffffffffffffffffffffffff16021790555050565b6000613da46718a72de26b54c4b360c01b615d6e565b613db867dce84ccea06803bc60c01b615d6e565b613dcc67e80784fac696530f60c01b615d6e565b600960008373ffffffffffffffffffffffffffffffffffffffff1673ffffffffffffffffffffffffffffffffffffffff16815260200190815260200160002060009054906101000a900460ff168015613e355750613e34678381a79e7da321ce60c01b6188f4565b5b80613e615750613e4482615ba8565b8015613e605750613e5f67785478bf5deb462b60c01b6188f4565b5b5b9050919050565b613e7c67f84220ed637c914660c01b615d6e565b613e9067185909c16223f93160c01b615d6e565b613ea467b249e5b41e185adb60c01b615d6e565b6000600f60003373ffffffffffffffffffffffffffffffffffffffff1673ffffffffffffffffffffffffffffffffffffffff16815260200190815260200160002060009054906101000a900473ffffffffffffffffffffffffffffffffffffffff169050613f1c672d5cc7fac8af6d7260c01b615d6e565b613f306799f3fa2582c329db60c01b615d6e565b600073ffffffffffffffffffffffffffffffffffffffff168173ffffffffffffffffffffffffffffffffffffffff1603613fc957613f786764548215dd92596160c01b615d6e565b613f8c676bbbb8792867f37f60c01b615d6e565b336040517fea5271c0000000000000000000000000000000000000000000000000000000008152600401613fc09190619199565b60405180910390fd5b613fdd672f6322660982335960c01b615d6e565b613ff16738b01b3db9d7682960c01b615d6e565b614005679a1d0f02cc54b5dd60c01b615d6e565b601060009054906101000a900473ffffffffffffffffffffffffffffffffffffffff1673ffffffffffffffffffffffffffffffffffffffff16637b0a0f9b8285856040518463ffffffff1660e01b8152600401614064939291906198e8565b600060405180830381600087803b15801561407e57600080fd5b505af1158015614092573d6000803e3d6000fd5b50505050505050565b6000601960149054906101000a900460ff16905090565b600a6020528060005260406000206000915054906101000a900460ff1681565b6140e667208c386fc50cfe3860c01b615d6e565b6140ee617d13565b61410267086effe6d86e0fc160c01b615d6e565b61411667ee38cb2361ad0ccb60c01b615d6e565b61412a671aca480ddcf30d5c60c01b615d6e565b61413e67f327df974193d60460c01b615d6e565b62093a808110156141a35761415d67d4da868b37d7397260c01b615d6e565b614171672f82e4a7bf677dcd60c01b615d6e565b6040517fbb2ac3a600000000000000000000000000000000000000000000000000000000815260040160405180910390fd5b6141b767643b2f45a3b2333960c01b615d6e565b6141cb67adc9f7997d656b0f60c01b615d6e565b806017819055506141e66718be04790781cf4a60c01b615d6e565b6141fa672975d953b15129d360c01b615d6e565b7f578d5da2255dc6640f3ba0d8ce1bc20877ca696956ebe3c333a3eb8f49fb395f8160405161422991906191c0565b60405180910390a150565b61424867c7fcb20a20b6e72160c01b615d6e565b61425c67f1a52aa91b766f0860c01b615d6e565b614270679891f2671240245160c01b615d6e565b6142846768f5806c609b9b2e60c01b615d6e565b600860009054906101000a900473ffffffffffffffffffffffffffffffffffffffff1673ffffffffffffffffffffffffffffffffffffffff163373ffffffffffffffffffffffffffffffffffffffff1614614333576142ed67cf677b2616ad266d60c01b615d6e565b614301677e04938bfb49ecf360c01b615d6e565b6040517f82b4290000000000000000000000000000000000000000000000000000000000815260040160405180910390fd5b6143476743a576b48e85bc4460c01b615d6e565b61435b671da912a47c35eab360c01b615d6e565b61436f67574c227a2a202a0e60c01b615d6e565b61438367fa1d73a574e10a8e60c01b615d6e565b614397678f3f0e100bb2110660c01b615d6e565b6143ab672c34eb567dd0e69760c01b615d6e565b601060009054906101000a900473ffffffffffffffffffffffffffffffffffffffff1673ffffffffffffffffffffffffffffffffffffffff166322e3d9866040518163ffffffff1660e01b8152600401602060405180830381865afa158015614418573d6000803e3d6000fd5b505050506040513d601f19601f8201168201806040525081019061443c91906197b0565b42101561449d5761445767f3627ffb9933623a60c01b615d6e565b61446b674dbab5aa280638a160c01b615d6e565b6040517f225767be00000000000000000000000000000000000000000000000000000000815260040160405180910390fd5b6144b167c18c3946d91f42b660c01b615d6e565b6144c567112f5a189afb16c660c01b615d6e565b6144d967edffa443a6c9acdf60c01b615d6e565b6000601060009054906101000a900473ffffffffffffffffffffffffffffffffffffffff1673ffffffffffffffffffffffffffffffffffffffff1663a5d54f656040518163ffffffff1660e01b8152600401600060405180830381865afa158015614548573d6000803e3d6000fd5b505050506040513d6000823e3d601f19601f820116820180604052508101906145719190619937565b51036145b85761458b67f4af3592d61918c260c01b615d6e565b61459f67cdeb6bf0c9392ec260c01b615d6e565b6145b36709167eaff55e5e5860c01b615d6e565b6152ca565b6145cc6756d35896f745d29460c01b615d6e565b6145e067e7819d835f45e9e660c01b615d6e565b6145f4676093b391e43820d560c01b615d6e565b60006001805490500361464257614615676562d99b5910680160c01b615d6e565b61462967f102da48ae74a80860c01b615d6e565b61463d6783533db153114e5060c01b615d6e565b6152ca565b61465667cb65d844d02af65760c01b615d6e565b61466a67d43e1478a06d431960c01b615d6e565b61467e679cba0b3c85db15c660c01b615d6e565b60006001808054905061469191906198ca565b67ffffffffffffffff8111156146aa576146a9619273565b5b6040519080825280602002602001820160405280156146d85781602001602082028036833780820191505090505b5090506146ef67d0232cba244193d260c01b615d6e565b6147036733d1dc7aa80c717660c01b615d6e565b600061471967d04d0c856a9e864260c01b615d6e565b61472d671c93da3938477f2760c01b615d6e565b600080601160009054906101000a900473ffffffffffffffffffffffffffffffffffffffff1673ffffffffffffffffffffffffffffffffffffffff16637be02c2b6040518163ffffffff1660e01b81526004016040805180830381865afa15801561479c573d6000803e3d6000fd5b505050506040513d601f19601f820116820180604052508101906147c091906196e5565b915091506147d867d7eb6adb0823faf160c01b615d6e565b6147ec6713eefca2d86b0ae660c01b615d6e565b60005b600180549050811015614e615761481067b48bc0c090d99e5c60c01b615d6e565b614824676d2ab62f317312a560c01b615d6e565b60006001828154811061483a57614839619849565b5b9060005260206000200160009054906101000a900473ffffffffffffffffffffffffffffffffffffffff16905061487b6707eb9d22c7b71f8a60c01b615d6e565b61488f67695994e99c73b3f560c01b615d6e565b60006148a56722f944ceae364bcc60c01b615d6e565b6148b96775c993f7cc86608660c01b615d6e565b846fffffffffffffffffffffffffffffffff1660018054905011156149ac576148ec67f45f49eacadd467360c01b615d6e565b61490067cd68409dd6e8758160c01b615d6e565b6000601160009054906101000a900473ffffffffffffffffffffffffffffffffffffffff1673ffffffffffffffffffffffffffffffffffffffff166399de1a43846040518263ffffffff1660e01b815260040161495d9190619199565b600060405180830381865afa15801561497a573d6000803e3d6000fd5b505050506040513d6000823e3d601f19601f820116820180604052508101906149a39190619718565b51119050614ad7565b6149c0673b688159f08a0d1460c01b615d6e565b6149d467a344d37a083215a260c01b615d6e565b836fffffffffffffffffffffffffffffffff166001805490501115614ac157614a076753eff5a92cb390ff60c01b615d6e565b614a1b67a454d85762e71a6360c01b615d6e565b6000601160009054906101000a900473ffffffffffffffffffffffffffffffffffffffff1673ffffffffffffffffffffffffffffffffffffffff1663dd7761f8846040518263ffffffff1660e01b8152600401614a789190619199565b602060405180830381865afa158015614a95573d6000803e3d6000fd5b505050506040513d601f19601f82011682018060405250810190614ab991906197b0565b119050614ad6565b614ad5674f94ab574024e19c60c01b615d6e565b5b5b614aeb673d8861cf1506051960c01b615d6e565b614aff67b3ff473ae3526e4e60c01b615d6e565b8015614be057614b1967ad18f72bf4d0bf4760c01b615d6e565b614b2d67f69c1c6bb9391fa560c01b615d6e565b60018381548110614b4157614b40619849565b5b9060005260206000200160009054906101000a900473ffffffffffffffffffffffffffffffffffffffff16878781518110614b7f57614b7e619849565b5b602002602001019073ffffffffffffffffffffffffffffffffffffffff16908173ffffffffffffffffffffffffffffffffffffffff1681525050614bcd67f1447b2758f13fcc60c01b615d6e565b8580614bd89061985f565b965050614e52565b614bf467eba2e2e08e38fb6360c01b615d6e565b614c0867c9290b4025cbd4e660c01b615d6e565b614c1c675cc19f4e2ccca99f60c01b615d6e565b601860009054906101000a900473ffffffffffffffffffffffffffffffffffffffff1673ffffffffffffffffffffffffffffffffffffffff166357bfcbee836040518263ffffffff1660e01b8152600401614c779190619199565b600060405180830381600087803b158015614c9157600080fd5b505af1158015614ca5573d6000803e3d6000fd5b50505050614cbd67cd6604e168ab896260c01b615d6e565b614cd16742065e5b9400457e60c01b615d6e565b601060009054906101000a900473ffffffffffffffffffffffffffffffffffffffff1673ffffffffffffffffffffffffffffffffffffffff16633b7d0946600f60008573ffffffffffffffffffffffffffffffffffffffff1673ffffffffffffffffffffffffffffffffffffffff16815260200190815260200160002060009054906101000a900473ffffffffffffffffffffffffffffffffffffffff166040518263ffffffff1660e01b8152600401614d8b9190619199565b600060405180830381600087803b158015614da557600080fd5b505af1158015614db9573d6000803e3d6000fd5b50505050614dd1673857a292f6b1318060c01b615d6e565b614de5679cb131629fe1de2b60c01b615d6e565b614df0826000616aa8565b614e0467d1557dd3df6969c360c01b615d6e565b614e1867471bfa9e4985fb8a60c01b615d6e565b7f7ec36d1734626f8b3686f8791130187e1633c843b1995003e788cd2b33d569038242604051614e4992919061981b565b60405180910390a15b505080806001019150506147ef565b50614e7667618a3dffa21b6f8660c01b615d6e565b614e8a67cb1b6c8975f2ab4760c01b615d6e565b601160009054906101000a900473ffffffffffffffffffffffffffffffffffffffff1673ffffffffffffffffffffffffffffffffffffffff16635f17497e60016040518263ffffffff1660e01b8152600401614ee691906199e2565b600060405180830381600087803b158015614f0057600080fd5b505af1158015614f14573d6000803e3d6000fd5b50505050614f2c672cf15177dab15d8b60c01b615d6e565b614f4067b8440309dd9e6ab760c01b615d6e565b601160009054906101000a900473ffffffffffffffffffffffffffffffffffffffff1673ffffffffffffffffffffffffffffffffffffffff1663adddc0cf6040518163ffffffff1660e01b8152600401600060405180830381600087803b158015614faa57600080fd5b505af1158015614fbe573d6000803e3d6000fd5b50505050614fd66771de29476ddcbb0e60c01b615d6e565b614fea674b40c1e8f47b67e760c01b615d6e565b60008367ffffffffffffffff81111561500657615005619273565b5b6040519080825280602002602001820160405280156150345781602001602082028036833780820191505090505b50905061504b671ea60404df97184a60c01b615d6e565b61505f67d52995435e83bff760c01b615d6e565b60005b848110156150f35761507e67ed6cbbc6194e5e4160c01b615d6e565b85818151811061509157615090619849565b5b60200260200101518282815181106150ac576150ab619849565b5b602002602001019073ffffffffffffffffffffffffffffffffffffffff16908173ffffffffffffffffffffffffffffffffffffffff16815250508080600101915050615062565b50615108670d8866d4e85e8cd960c01b615d6e565b61511c6733fae522da1cecbb60c01b615d6e565b601060009054906101000a900473ffffffffffffffffffffffffffffffffffffffff1673ffffffffffffffffffffffffffffffffffffffff1663adddc0cf6040518163ffffffff1660e01b8152600401600060405180830381600087803b15801561518657600080fd5b505af115801561519a573d6000803e3d6000fd5b505050506151b267f75a5f1744a4f40660c01b615d6e565b6151c66786021567495cad2660c01b615d6e565b6000601060009054906101000a900473ffffffffffffffffffffffffffffffffffffffff1673ffffffffffffffffffffffffffffffffffffffff1663a5d54f656040518163ffffffff1660e01b8152600401600060405180830381865afa158015615235573d6000803e3d6000fd5b505050506040513d6000823e3d601f19601f8201168201806040525081019061525e9190619937565b5111156152af5761527967172ade6fc85efef660c01b615d6e565b61528d67e4d3b07ce9e24a6660c01b615d6e565b6152a16743ce6ba82495450b60c01b615d6e565b6152aa81616b70565b6152c4565b6152c367369bd3f59c0ddb4f60c01b615d6e565b5b50505050505b565b60126020528060005260406000206000915090505481565b601160009054906101000a900473ffffffffffffffffffffffffffffffffffffffff1681565b6060615320677df829c9e2f98ebf60c01b615d6e565b615334679f8c0ee9d7303ee260c01b615d6e565b61534867096b12fd156c60dc60c01b615d6e565b60008054806020026020016040519081016040528092919081815260200182805480156153ca57602002820191906000526020600020905b8160009054906101000a900473ffffffffffffffffffffffffffffffffffffffff1673ffffffffffffffffffffffffffffffffffffffff1681526020019060010190808311615380575b5050505050905090565b6153e8679b09e676d663658260c01b615d6e565b6153f0617d13565b6154046726bb7f58350aa02660c01b615d6e565b615418676fc613fa3cb773ff60c01b615d6e565b61542c67c5a6afd585c9938d60c01b615d6e565b6154406746895a925b3cac4160c01b615d6e565b600073ffffffffffffffffffffffffffffffffffffffff168173ffffffffffffffffffffffffffffffffffffffff16036154ce57615488673bee078b54a96e6b60c01b615d6e565b61549c672e30f20748858f1e60c01b615d6e565b6040517fd92e233d00000000000000000000000000000000000000000000000000000000815260040160405180910390fd5b6154e267393b0b72ac9b18f060c01b615d6e565b6154f6676767d41ea5a5608f60c01b615d6e565b80601860006101000a81548173ffffffffffffffffffffffffffffffffffffffff021916908373ffffffffffffffffffffffffffffffffffffffff16021790555061554b679cff0e15be14d8cf60c01b615d6e565b61555f6764cf05dfc136fd2660c01b615d6e565b7fd4244d1f8acb4860e17399636c6b7875c75656aafb5cb3d0163d7305eace71728160405161558e9190619199565b60405180910390a150565b600c60009054906101000a900473ffffffffffffffffffffffffffffffffffffffff1681565b60066020528060005260406000206000915090505481565b60046020528060005260406000206000915090505481565b80601160006101000a81548173ffffffffffffffffffffffffffffffffffffffff021916908373ffffffffffffffffffffffffffffffffffffffff16021790555050565b60165481565b60136020528060005260406000206000915090505481565b601060009054906101000a900473ffffffffffffffffffffffffffffffffffffffff1681565b606061568d6757420737ca27ccf660c01b615d6e565b6156a1674b817f04fff2ed6f60c01b615d6e565b6156b5673d42b9770d254a3260c01b615d6e565b600180548060200260200160405190810160405280929190818152602001828054801561573757602002820191906000526020600020905b8160009054906101000a900473ffffffffffffffffffffffffffffffffffffffff1673ffffffffffffffffffffffffffffffffffffffff16815260200190600101908083116156ed575b5050505050905090565b60006157576782ec3349a792365260c01b615d6e565b61576b67611237acd70ce94260c01b615d6e565b61577f6771c833ac9d7d6c0160c01b615d6e565b600082036157e15761579b673344e9dd3164122b60c01b615d6e565b6157af6750af03e15608fad560c01b615d6e565b6040517fa63671a500000000000000000000000000000000000000000000000000000000815260040160405180910390fd5b6157f5674b7c0e8d5388b06160c01b615d6e565b6158096766b3fe24bef6474f60c01b615d6e565b61581d67a2b6c645ac65042560c01b615d6e565b600482101561586a5761583a67bfaa7e8ab3cb9b5360c01b615d6e565b61584e6781c0d4f1cc2835b860c01b615d6e565b61586267d5e6818fdcbbd24160c01b615d6e565b8190506158d9565b61587e676274ad4d6225eb4560c01b615d6e565b61589267bc87e5d9038fc53c60c01b615d6e565b6158a667d4166198a64cf92660c01b615d6e565b60016003806001856158b891906198ca565b6158c29190619a63565b6158cc9190619a7e565b6158d691906197fd565b90505b919050565b6158e6617d13565b600073ffffffffffffffffffffffffffffffffffffffff168173ffffffffffffffffffffffffffffffffffffffff16036159585760006040517f1e4fbdf700000000000000000000000000000000000000000000000000000000815260040161594f9190619199565b60405180910390fd5b61596181617d9a565b50565b600061597a67cb6122a44479514f60c01b615d6e565b61598e6763504565cc260a3c60c01b615d6e565b6159a2675a832e8fb202f19160c01b615d6e565b600073ffffffffffffffffffffffffffffffffffffffff16600f60008473ffffffffffffffffffffffffffffffffffffffff1673ffffffffffffffffffffffffffffffffffffffff16815260200190815260200160002060009054906101000a900473ffffffffffffffffffffffffffffffffffffffff1673ffffffffffffffffffffffffffffffffffffffff1603615a7a57615a49679ac5c5b765a4a5ef60c01b615d6e565b615a5d6754624570b532a0d360c01b615d6e565b615a7167a78053457bf314db60c01b615d6e565b60009050615b83565b615a8e675df5e461825fcf0260c01b615d6e565b615aa267b0b62d079c5d7eac60c01b615d6e565b615ab66737415ed6d603fae560c01b615d6e565b6000601460008473ffffffffffffffffffffffffffffffffffffffff1673ffffffffffffffffffffffffffffffffffffffff1681526020019081526020016000205414615b4257615b11679585cf440fcec48760c01b615d6e565b615b2567d34ab40aaee577b360c01b615d6e565b615b39677b80d658b3a175ba60c01b615d6e565b60009050615b83565b615b566793eaf073c114bee860c01b615d6e565b615b6a67b6a4e8c4de47bbb460c01b615d6e565b615b7e67a0c5aaaf7a1c80f360c01b615d6e565b600190505b919050565b60096020528060005260406000206000915054906101000a900460ff1681565b6000615bbe67fb0812b076019e5f60c01b615d6e565b615bd2672d7c2ce58c6ea1d560c01b615d6e565b615be667580be4999828f87060c01b615d6e565b60006001805490509050615c046724a1737323f2dc5d60c01b615d6e565b615c1867e09df6a4b39e771660c01b615d6e565b60005b81811015615d2257615c3767f62a3a817991ae9460c01b615d6e565b615c4b67d280b97fec7f930c60c01b615d6e565b60018181548110615c5f57615c5e619849565b5b9060005260206000200160009054906101000a900473ffffffffffffffffffffffffffffffffffffffff1673ffffffffffffffffffffffffffffffffffffffff168473ffffffffffffffffffffffffffffffffffffffff1603615d0357615cd06702197747ff0ade7f60c01b615d6e565b615ce4678f3d6357f62159f660c01b615d6e565b615cf8678aff6cfd8db4668960c01b615d6e565b600192505050615d51565b615d1767a9592ee91f1dab3460c01b615d6e565b806001019050615c1b565b50615d3767865e9afa61fe0d1460c01b615d6e565b615d4b67bd5398b119f0c35560c01b615d6e565b60009150505b919050565b60076020528060005260406000206000915090505481565b50565b615d8567e20b01a72796171460c01b615d6e565b615d9967b53209159f6dfb6d60c01b615d6e565b615dad671d1cf3a17e4547ec60c01b615d6e565b600073ffffffffffffffffffffffffffffffffffffffff168273ffffffffffffffffffffffffffffffffffffffff1603615e3b57615df567d4325099dd38c93060c01b615d6e565b615e0967f1af146b5a8d2dd160c01b615d6e565b6040517fd92e233d00000000000000000000000000000000000000000000000000000000815260040160405180910390fd5b615e4f67538a06f6990b732260c01b615d6e565b615e636713e2b31b99d82d9960c01b615d6e565b615e7767b4eb9cf90c597ec160c01b615d6e565b600073ffffffffffffffffffffffffffffffffffffffff168173ffffffffffffffffffffffffffffffffffffffff1603615f0557615ebf67956e255414a5a6dd60c01b615d6e565b615ed367c553dfc6c277acfe60c01b615d6e565b6040517fd92e233d00000000000000000000000000000000000000000000000000000000815260040160405180910390fd5b615f19672de5f7776ee9ae0960c01b615d6e565b615f2d679965cbc690c50aaf60c01b615d6e565b615f4167d6464f3c391396c860c01b615d6e565b8073ffffffffffffffffffffffffffffffffffffffff168273ffffffffffffffffffffffffffffffffffffffff1603615fce57615f886777b5b8b2000e944e60c01b615d6e565b615f9c67bdbdf12b7cc373ba60c01b615d6e565b6040517f07d9394500000000000000000000000000000000000000000000000000000000815260040160405180910390fd5b615fe2672d30ae5458c9050c60c01b615d6e565b615ff66703c2899fdfba42da60c01b615d6e565b61600a6725d8a032f34b57c260c01b615d6e565b600073ffffffffffffffffffffffffffffffffffffffff16600b60008373ffffffffffffffffffffffffffffffffffffffff1673ffffffffffffffffffffffffffffffffffffffff16815260200190815260200160002060009054906101000a900473ffffffffffffffffffffffffffffffffffffffff1673ffffffffffffffffffffffffffffffffffffffff16141580156160b657506160b5677031ffadddb8872b60c01b6188f4565b5b806161695750600073ffffffffffffffffffffffffffffffffffffffff16600f60008373ffffffffffffffffffffffffffffffffffffffff1673ffffffffffffffffffffffffffffffffffffffff16815260200190815260200160002060009054906101000a900473ffffffffffffffffffffffffffffffffffffffff1673ffffffffffffffffffffffffffffffffffffffff1614158015616168575061616767ceeb076d96b05f9d60c01b6188f4565b5b5b156161d357616182676cd1aee4274743ce60c01b615d6e565b61619667d01629264a3e402f60c01b615d6e565b806040517f9b59780c0000000000000000000000000000000000000000000000000000000081526004016161ca9190619199565b60405180910390fd5b6161e76748b52a887876bf8b60c01b615d6e565b6161fb67545ba92d935b026160c01b615d6e565b61620f6704f4b5a51d20bb7560c01b615d6e565b600073ffffffffffffffffffffffffffffffffffffffff16600b60008473ffffffffffffffffffffffffffffffffffffffff1673ffffffffffffffffffffffffffffffffffffffff16815260200190815260200160002060009054906101000a900473ffffffffffffffffffffffffffffffffffffffff1673ffffffffffffffffffffffffffffffffffffffff16141580156162bb57506162ba67f06f5973eebe30f360c01b6188f4565b5b8061636e5750600073ffffffffffffffffffffffffffffffffffffffff16600f60008473ffffffffffffffffffffffffffffffffffffffff1673ffffffffffffffffffffffffffffffffffffffff16815260200190815260200160002060009054906101000a900473ffffffffffffffffffffffffffffffffffffffff1673ffffffffffffffffffffffffffffffffffffffff161415801561636d575061636c67ef7e8c07ec30a86660c01b6188f4565b5b5b156163d857616387670b64bb56520de05d60c01b615d6e565b61639b671869ec423d1edf8e60c01b615d6e565b816040517f342ed6a30000000000000000000000000000000000000000000000000000000081526004016163cf9190619199565b60405180910390fd5b6163ec6796fdcb508652dbb460c01b615d6e565b61640067dbef74462bfad4bf60c01b615d6e565b81600b60008373ffffffffffffffffffffffffffffffffffffffff1673ffffffffffffffffffffffffffffffffffffffff16815260200190815260200160002060006101000a81548173ffffffffffffffffffffffffffffffffffffffff021916908373ffffffffffffffffffffffffffffffffffffffff16021790555061649267f8a29e2e6e50c51460c01b615d6e565b80600f60008473ffffffffffffffffffffffffffffffffffffffff1673ffffffffffffffffffffffffffffffffffffffff16815260200190815260200160002060006101000a81548173ffffffffffffffffffffffffffffffffffffffff021916908373ffffffffffffffffffffffffffffffffffffffff1602179055505050565b600061652a6783f7e10f7ebdbc9d60c01b615d6e565b61653e6744fa8e3feb7c722f60c01b615d6e565b61655267bce1588fef3d823b60c01b615d6e565b600083836165609190619aa0565b9050616576671dafbc1b584df98460c01b615d6e565b61658a67512268fb53a1c9ff60c01b615d6e565b60006165a067cd9e3058d8df04f160c01b615d6e565b6165b46721c0149c2960f37060c01b615d6e565b60006165ca6703debba385ccb65760c01b615d6e565b6165de67571ea97e4152587e60c01b615d6e565b5b828211616649576165fa6775085ddf694ff7fe60c01b615d6e565b86818151811061660d5761660c619849565b5b60200260200101518261662091906197fd565b91506166366713693b3c2d69010860c01b615d6e565b80806166419061985f565b9150506165df565b61665d672328f1ddf70a134960c01b615d6e565b6166716784effad93f446a0260c01b615d6e565b60018161667e91906198ca565b93505050509392505050565b60007ff0c57e16840df040f15088dc2f81fe391c3923bec73e23a9662efc9c229c6a00905090565b6166c6675bf9b212ba65aa5c60c01b615d6e565b6166da67b6d3f01636258e1e60c01b615d6e565b6166ee67b159a66d83cd4e8e60c01b615d6e565b6060616704673452cde08a9e959b60c01b615d6e565b616718678e19415d4574c4a960c01b615d6e565b600061672e6740c210c7678ad6b960c01b615d6e565b60008054806020026020016040519081016040528092919081815260200182805480156167b057602002820191906000526020600020905b8160009054906101000a900473ffffffffffffffffffffffffffffffffffffffff1673ffffffffffffffffffffffffffffffffffffffff1681526020019060010190808311616766575b505050505091506167cb6759f7adeceaa74e6b60c01b615d6e565b6167df67939299d4b2bdb8f960c01b615d6e565b600090505b81518110156168805761680167bdb5a4e0a3424fb160c01b615d6e565b60006009600084848151811061681a57616819619849565b5b602002602001015173ffffffffffffffffffffffffffffffffffffffff1673ffffffffffffffffffffffffffffffffffffffff16815260200190815260200160002060006101000a81548160ff02191690831515021790555080806001019150506167e4565b616894679810aa34efd46e9660c01b615d6e565b600160009080546168a69291906190de565b506168bb670633f9f10a85a58e60c01b615d6e565b600080548060200260200160405190810160405280929190818152602001828054801561693d57602002820191906000526020600020905b8160009054906101000a900473ffffffffffffffffffffffffffffffffffffffff1673ffffffffffffffffffffffffffffffffffffffff16815260200190600101908083116168f3575b505050505091506169586712757eca7ff703d360c01b615d6e565b61696c6744da35c59950ea5a60c01b615d6e565b600090505b8151811015616aa45761698e67b38f5897b135f9f460c01b615d6e565b6169a2670cfcbdb91e392aed60c01b615d6e565b60008282815181106169b7576169b6619849565b5b602002602001015190506169d56770a7496e1a4c707560c01b615d6e565b6001600960008373ffffffffffffffffffffffffffffffffffffffff1673ffffffffffffffffffffffffffffffffffffffff16815260200190815260200160002060006101000a81548160ff021916908315150217905550616a41674985bb595959f24b60c01b615d6e565b601260008273ffffffffffffffffffffffffffffffffffffffff1673ffffffffffffffffffffffffffffffffffffffff1681526020019081526020016000206000815480929190616a919061985f565b9190505550508080600101915050616971565b5050565b616abc67dcd96101ef21791160c01b615d6e565b616ad067fde489b9628711af60c01b615d6e565b80601460008473ffffffffffffffffffffffffffffffffffffffff1673ffffffffffffffffffffffffffffffffffffffff16815260200190815260200160002081905550616b2867700e40896407ba6f60c01b615d6e565b42601360008473ffffffffffffffffffffffffffffffffffffffff1673ffffffffffffffffffffffffffffffffffffffff168152602001908152602001600020819055505050565b616b84676a74a71ba1f3e48360c01b615d6e565b616b9867186478e73ac4b13960c01b615d6e565b616bac676bb41378fe76e43160c01b615d6e565b6000601060009054906101000a900473ffffffffffffffffffffffffffffffffffffffff1673ffffffffffffffffffffffffffffffffffffffff1663a5d54f656040518163ffffffff1660e01b8152600401600060405180830381865afa158015616c1b573d6000803e3d6000fd5b505050506040513d6000823e3d601f19601f82011682018060405250810190616c449190619937565b9050616c5a6773f99dc8038e0e2360c01b615d6e565b616c6e67c5ebf74ae6a4d52960c01b615d6e565b6000601554825110158015616c935750616c9267ba25e91fd41e5dff60c01b6188f4565b5b80616cd65750600082511480616cb95750616cb8671ba4c48fadcfe93860c01b6188ff565b5b8015616cd55750616cd4676d8cdcb36fcd497e60c01b6188f4565b5b5b8015616cf25750616cf1679105f53cdf29490360c01b6188f4565b5b616d0557616d008251615741565b616d09565b6015545b9050616d1f67f88881567a23c3d160c01b615d6e565b616d3367ea181141e4af94c060c01b615d6e565b80825111156175c057616d506714850c7205423a0f60c01b615d6e565b616d6467526b18eabb09882660c01b615d6e565b616d786796ed46ea47f2a1dd60c01b615d6e565b600082519050616d9267df1cb78079f1dc0260c01b615d6e565b616da66716f0fd4b6e8c298e60c01b615d6e565b600080601060009054906101000a900473ffffffffffffffffffffffffffffffffffffffff1673ffffffffffffffffffffffffffffffffffffffff1663957950a76040518163ffffffff1660e01b8152600401600060405180830381865afa158015616e16573d6000803e3d6000fd5b505050506040513d6000823e3d601f19601f82011682018060405250810190616e3f9190619abb565b91509150616e576729af56050207ac5760c01b615d6e565b616e6b6737cc55910132a38560c01b615d6e565b60008467ffffffffffffffff811115616e8757616e86619273565b5b604051908082528060200260200182016040528015616eb55781602001602082028036833780820191505090505b509050616ecc67286706b845bfb52760c01b615d6e565b616ee06729df7d695d2c7edd60c01b615d6e565b6000616ef6671441bfb413fd33e360c01b615d6e565b616f0a67fd5fdd24fe5cb3ed60c01b615d6e565b60005b88518110156171fa57616f2a67b927bb7195710dd860c01b615d6e565b616f3e67068c80dc9e5f78da60c01b615d6e565b60005b868110156171ec57616f5d6780b4663319639f9560c01b615d6e565b616f716795e180e504d719e760c01b615d6e565b898281518110616f8457616f83619849565b5b602002602001015173ffffffffffffffffffffffffffffffffffffffff16898281518110616fb557616fb4619849565b5b602002602001015173ffffffffffffffffffffffffffffffffffffffff16036171cb57616fec6792f7a4920864c51b60c01b615d6e565b617000672d0d85ca8104322f60c01b615d6e565b89828151811061701357617012619849565b5b602002602001015184848151811061702e5761702d619849565b5b602002602001019073ffffffffffffffffffffffffffffffffffffffff16908173ffffffffffffffffffffffffffffffffffffffff168152505061707c671510e5d5095bd62960c01b615d6e565b82806170879061985f565b93505061709e67ad60d386c564084a60c01b615d6e565b8581815181106170b1576170b0619849565b5b6020026020010151856170c491906198ca565b94506170da67f2414f2247331c4560c01b615d6e565b86806170e5906198ae565b9750506170fc670d3fb7b82262132a60c01b615d6e565b88878151811061710f5761710e619849565b5b602002602001015189828151811061712a57617129619849565b5b602002602001019073ffffffffffffffffffffffffffffffffffffffff16908173ffffffffffffffffffffffffffffffffffffffff1681525050617178672e5ab7c6067aeaac60c01b615d6e565b85878151811061718b5761718a619849565b5b60200260200101518682815181106171a6576171a5619849565b5b6020026020010181815250506171c66739d667443e1e31a160c01b615d6e565b6171ec565b6171df6725594945fc3414a860c01b615d6e565b8080600101915050616f41565b508080600101915050616f0d565b5061720f67a3fd3d3a93a1a84c60c01b615d6e565b61722367082e90e06888885d60c01b615d6e565b6000600c60009054906101000a900473ffffffffffffffffffffffffffffffffffffffff1673ffffffffffffffffffffffffffffffffffffffff1663832206266040518163ffffffff1660e01b8152600401602060405180830381865afa158015617292573d6000803e3d6000fd5b505050506040513d601f19601f820116820180604052508101906172b691906197b0565b90506172cc6730ab8d1508a7684260c01b615d6e565b6172e067649ce72d86c6e6f260c01b615d6e565b600085511180156172f15750600084115b156175a05761730a675316369b9a9a224860c01b615d6e565b61731e67046d23cf5d494aa560c01b615d6e565b61733267f53d43d26b0ca37a60c01b615d6e565b60005b83518110156175695761735267b9c0075b057918d360c01b615d6e565b42821860405160200161736591906191c0565b6040516020818303038152906040528051906020012060001c915061739467a3203bf09cc4ab8560c01b615d6e565b6173a867985e921efee9866160c01b615d6e565b60006173b5878785616514565b90506173cb67f375f6017c001ccd60c01b615d6e565b8981815181106173de576173dd619849565b5b60200260200101518583815181106173f9576173f8619849565b5b602002602001019073ffffffffffffffffffffffffffffffffffffffff16908173ffffffffffffffffffffffffffffffffffffffff16815250506174476789a1e94a0dffb93660c01b615d6e565b86818151811061745a57617459619849565b5b60200260200101518661746d91906198ca565b9550617483677d2b38bc352a809060c01b615d6e565b878061748e906198ae565b9850506174a567c6c502d599fffe6b60c01b615d6e565b8988815181106174b8576174b7619849565b5b60200260200101518a82815181106174d3576174d2619849565b5b602002602001019073ffffffffffffffffffffffffffffffffffffffff16908173ffffffffffffffffffffffffffffffffffffffff168152505061752167390bed3960552ca260c01b615d6e565b86888151811061753457617533619849565b5b602002602001015187828151811061754f5761754e619849565b5b602002602001018181525050508080600101915050617335565b5061757e676b02b0eec160ddac60c01b615d6e565b617592674d33f90a40c7f59d60c01b615d6e565b61759b83618906565b6175b5565b6175b4671c05b7dbb2b3c20560c01b615d6e565b5b505050505050617606565b6175d46774fbcecdb4a2bc6a60c01b615d6e565b6175e867c52befc3499ef7ed60c01b615d6e565b6175fc672f36f7c3d77ad8ff60c01b615d6e565b61760582618906565b5b61761a677f44fedc0d8e8ab160c01b615d6e565b61762e6767d1dc0ca6ada10460c01b615d6e565b601160009054906101000a900473ffffffffffffffffffffffffffffffffffffffff1673ffffffffffffffffffffffffffffffffffffffff16635f17497e60006040518263ffffffff1660e01b815260040161768a91906199e2565b600060405180830381600087803b1580156176a457600080fd5b505af11580156176b8573d6000803e3d6000fd5b505050506176d06714010dbdaa4f5a3660c01b615d6e565b6176e4674b31f8c53efe641660c01b615d6e565b60008251146177b05761770167378bc217dc6829e660c01b615d6e565b61771567c27b920cd8bb7df060c01b615d6e565b6177296711bc7fb65eadaedc60c01b615d6e565b601060009054906101000a900473ffffffffffffffffffffffffffffffffffffffff1673ffffffffffffffffffffffffffffffffffffffff16631555371c6040518163ffffffff1660e01b8152600401600060405180830381600087803b15801561779357600080fd5b505af11580156177a7573d6000803e3d6000fd5b505050506177c5565b6177c4671c0452c21918bdac60c01b615d6e565b5b6177d866545eb85d133ebe60c01b615d6e565b6177ec67e7d42f7634b5555660c01b615d6e565b601060009054906101000a900473ffffffffffffffffffffffffffffffffffffffff1673ffffffffffffffffffffffffffffffffffffffff166322e3d9866040518163ffffffff1660e01b8152600401602060405180830381865afa158015617859573d6000803e3d6000fd5b505050506040513d601f19601f8201168201806040525081019061787d91906197b0565b4211156179ed576178986757fc1e409c5d219760c01b615d6e565b6178ac67d1501e6e034b38d560c01b615d6e565b6178c067c65efd21e39f645d60c01b615d6e565b601060009054906101000a900473ffffffffffffffffffffffffffffffffffffffff1673ffffffffffffffffffffffffffffffffffffffff16639e72c635601060009054906101000a900473ffffffffffffffffffffffffffffffffffffffff1673ffffffffffffffffffffffffffffffffffffffff166322e3d9866040518163ffffffff1660e01b8152600401602060405180830381865afa15801561796b573d6000803e3d6000fd5b505050506040513d601f19601f8201168201806040525081019061798f91906197b0565b4261799a91906198ca565b6040518263ffffffff1660e01b81526004016179b691906191c0565b600060405180830381600087803b1580156179d057600080fd5b505af11580156179e4573d6000803e3d6000fd5b50505050617a02565b617a016744801157a83d50a460c01b615d6e565b5b505050565b617a1b67e5de35d93741cb2e60c01b615d6e565b617a2f6738ce3c4b8a7ddc3760c01b615d6e565b617a436765909a803eb45f1960c01b615d6e565b600073ffffffffffffffffffffffffffffffffffffffff16816000016020810190617a6e9190619172565b73ffffffffffffffffffffffffffffffffffffffff16148015617aa15750617aa067b63030bd1f1ed59f60c01b6188f4565b5b80617b225750600073ffffffffffffffffffffffffffffffffffffffff16816020016020810190617ad29190619172565b73ffffffffffffffffffffffffffffffffffffffff16148015617b055750617b04670ed74486ecd5cac460c01b6188f4565b5b8015617b215750617b2067fc669e6caececcdb60c01b6188f4565b5b5b80617ba35750600073ffffffffffffffffffffffffffffffffffffffff16816040016020810190617b539190619172565b73ffffffffffffffffffffffffffffffffffffffff16148015617b865750617b856751a5435410458e5960c01b6188f4565b5b8015617ba25750617ba167733f56192e64b20560c01b6188f4565b5b5b80617c245750600073ffffffffffffffffffffffffffffffffffffffff16816060016020810190617bd49190619172565b73ffffffffffffffffffffffffffffffffffffffff16148015617c075750617c06672d69b1873648556760c01b6188f4565b5b8015617c235750617c226768ffcecb0da6c71f60c01b6188f4565b5b5b80617c895750600073ffffffffffffffffffffffffffffffffffffffff16816080016020810190617c559190619172565b73ffffffffffffffffffffffffffffffffffffffff16148015617c885750617c87674e1c9e12a096a42d60c01b6188f4565b5b5b15617ce857617ca267a3cab61339109de360c01b615d6e565b617cb66797e475d4aaba466260c01b615d6e565b6040517fd92e233d00000000000000000000000000000000000000000000000000000000815260040160405180910390fd5b617cfc67ac25eea70e1c1e8760c01b615d6e565b50565b617d07618fcf565b617d108161900f565b50565b617d1b619095565b73ffffffffffffffffffffffffffffffffffffffff16617d396138eb565b73ffffffffffffffffffffffffffffffffffffffff1614617d9857617d5c619095565b6040517f118cdaa7000000000000000000000000000000000000000000000000000000008152600401617d8f9190619199565b60405180910390fd5b565b6000617da46188cc565b905060008160000160009054906101000a900473ffffffffffffffffffffffffffffffffffffffff169050828260000160006101000a81548173ffffffffffffffffffffffffffffffffffffffff021916908373ffffffffffffffffffffffffffffffffffffffff1602179055508273ffffffffffffffffffffffffffffffffffffffff168173ffffffffffffffffffffffffffffffffffffffff167f8be0079c531659141344cd1fd0a4f28419497f9722a3daafe3b4186f6b6457e060405160405180910390a3505050565b617e8567381e87aaf9dd234060c01b615d6e565b617e99677cf7d57d61744ff360c01b615d6e565b617ead67a0eaa669333a3fbb60c01b615d6e565b6000617ec367526bb95eb3d56f2860c01b615d6e565b617ed76712f834e890e0b50060c01b615d6e565b6000617eed678ce73828ba6c741860c01b615d6e565b6002805490509150617f09671fd5d4acf669773060c01b615d6e565b617f1d67e487684f4095179a60c01b615d6e565b600090505b81811015617fe157617f3e6761dc76c8ae119efd60c01b615d6e565b6000600a600060028481548110617f5857617f57619849565b5b9060005260206000200160009054906101000a900473ffffffffffffffffffffffffffffffffffffffff1673ffffffffffffffffffffffffffffffffffffffff1673ffffffffffffffffffffffffffffffffffffffff16815260200190815260200160002060006101000a81548160ff0219169083151502179055508080600101915050617f22565b617ff567e23abaec6e93d2d060c01b615d6e565b600080549050915061801167eb75507106731fd660c01b615d6e565b618025675957bf45bb671fbe60c01b615d6e565b600090505b818110156180e857618046678d4eb3a86998818660c01b615d6e565b6001600a600080848154811061805f5761805e619849565b5b9060005260206000200160009054906101000a900473ffffffffffffffffffffffffffffffffffffffff1673ffffffffffffffffffffffffffffffffffffffff1673ffffffffffffffffffffffffffffffffffffffff16815260200190815260200160002060006101000a81548160ff021916908315150217905550808060010191505061802a565b6180fc67e8a7023042eb952360c01b615d6e565b6000600290805461810e9291906190de565b505050565b618127676da0eed23ce87ba060c01b615d6e565b61813b6781eefe6ff5b4902f60c01b615d6e565b61814f6717d76821816a371660c01b615d6e565b6000601060009054906101000a900473ffffffffffffffffffffffffffffffffffffffff1673ffffffffffffffffffffffffffffffffffffffff1663a5d54f656040518163ffffffff1660e01b8152600401600060405180830381865afa1580156181be573d6000803e3d6000fd5b505050506040513d6000823e3d601f19601f820116820180604052508101906181e79190619937565b90506181fd67a9b184fe80961b3d60c01b615d6e565b618211672660ea9a67c0fe9060c01b615d6e565b60008151905061822b670617b16fdb9ec3c060c01b615d6e565b61823f67f326181f533755cc60c01b615d6e565b60005b818110156185315761825e67516acfbb3ef501eb60c01b615d6e565b618272673ebbde3f1afde0d860c01b615d6e565b6000600b600085848151811061828b5761828a619849565b5b602002602001015173ffffffffffffffffffffffffffffffffffffffff1673ffffffffffffffffffffffffffffffffffffffff16815260200190815260200160002060009054906101000a900473ffffffffffffffffffffffffffffffffffffffff16905061830467ab4994349146f27960c01b615d6e565b618318671ae8057acc3fbbc760c01b615d6e565b600960008273ffffffffffffffffffffffffffffffffffffffff1673ffffffffffffffffffffffffffffffffffffffff16815260200190815260200160002060009054906101000a900460ff168015618381575061838067d37708cb68a7a22260c01b6188f4565b5b806183e757506000601460008373ffffffffffffffffffffffffffffffffffffffff1673ffffffffffffffffffffffffffffffffffffffff168152602001908152602001600020541480156183e657506183e5670e676d9b6fe6586f60c01b6188f4565b5b5b1561841a57618400676230a0ca354f03b960c01b615d6e565b618414673ec080b1c1fbae4260c01b615d6e565b50618526565b61842e67859de63d93ae464f60c01b615d6e565b618442671d532ac669f9c67d60c01b615d6e565b61845667efefd5f6bd195b0e60c01b615d6e565b601860009054906101000a900473ffffffffffffffffffffffffffffffffffffffff1673ffffffffffffffffffffffffffffffffffffffff166392f2944382601460008573ffffffffffffffffffffffffffffffffffffffff1673ffffffffffffffffffffffffffffffffffffffff168152602001908152602001600020546040518363ffffffff1660e01b81526004016184f292919061981b565b600060405180830381600087803b15801561850c57600080fd5b505af1158015618520573d6000803e3d6000fd5b50505050505b806001019050618242565b505050565b61854a67f05882d22b6d76df60c01b615d6e565b61855e67ef9438e8a939ddc660c01b615d6e565b6185726729763331434bd26460c01b615d6e565b6000601060009054906101000a900473ffffffffffffffffffffffffffffffffffffffff1673ffffffffffffffffffffffffffffffffffffffff1663df6f55f56040518163ffffffff1660e01b8152600401600060405180830381865afa1580156185e1573d6000803e3d6000fd5b505050506040513d6000823e3d601f19601f8201168201806040525081019061860a9190619937565b905061862067939713b1946bb69a60c01b615d6e565b61863467dfeb8043e6e0572c60c01b615d6e565b60008151905061864e6748fabec3e5a9164b60c01b615d6e565b61866267c67e8a728c7819d560c01b615d6e565b60005b818110156188c757618681675a44a066b2cc297760c01b615d6e565b618695675951e1487124424960c01b615d6e565b6000600b60008584815181106186ae576186ad619849565b5b602002602001015173ffffffffffffffffffffffffffffffffffffffff1673ffffffffffffffffffffffffffffffffffffffff16815260200190815260200160002060009054906101000a900473ffffffffffffffffffffffffffffffffffffffff16905061872767b411ad724792b05b60c01b615d6e565b61873b67f698541c536ffbdf60c01b615d6e565b6000601460008373ffffffffffffffffffffffffffffffffffffffff1673ffffffffffffffffffffffffffffffffffffffff16815260200190815260200160002054146187b0576187966784f3640e5ea417d760c01b615d6e565b6187aa6782f2be7a4f0587ee60c01b615d6e565b506188bc565b6187c4673ddf85180e351a6f60c01b615d6e565b6187d867243160d55a86b72360c01b615d6e565b6187ec67bc910becb2e3ee8d60c01b615d6e565b601860009054906101000a900473ffffffffffffffffffffffffffffffffffffffff1673ffffffffffffffffffffffffffffffffffffffff166351150d5782601360008573ffffffffffffffffffffffffffffffffffffffff1673ffffffffffffffffffffffffffffffffffffffff168152602001908152602001600020546040518363ffffffff1660e01b815260040161888892919061981b565b600060405180830381600087803b1580156188a257600080fd5b505af11580156188b6573d6000803e3d6000fd5b50505050505b806001019050618665565b505050565b60007f9016d09d72d40fdae2fd8ceac6b6234c7706214fd39c1cd1e609a0528c199300905090565b600060019050919050565b6000919050565b61891a674b607ba14cdf69af60c01b615d6e565b61892e677d351e49ddbd2f8f60c01b615d6e565b6001600061893c91906190bd565b618950679c9418c1a7abad2560c01b615d6e565b618964677f2c89c60eb706d860c01b615d6e565b6000815103618e4557618981677fde14169f14772c60c01b615d6e565b618995672ea96191b55f011e60c01b615d6e565b6189a967234c6aa4d4f16cf960c01b615d6e565b6000808054905090506189c66721ed25ad14e95a0e60c01b615d6e565b6189da6756795250908dd8fe60c01b615d6e565b60005b81811015618d13576189f967b560c275a81009a260c01b615d6e565b618a0d6711b9f30495239f1c60c01b615d6e565b6000808281548110618a2257618a21619849565b5b9060005260206000200160009054906101000a900473ffffffffffffffffffffffffffffffffffffffff169050618a6367a77dc3ff8279ff5260c01b615d6e565b618a77675e4fe69aa4d3dc3e60c01b615d6e565b6000600f60008373ffffffffffffffffffffffffffffffffffffffff1673ffffffffffffffffffffffffffffffffffffffff16815260200190815260200160002060009054906101000a900473ffffffffffffffffffffffffffffffffffffffff169050618aef67517ac3228636b1ff60c01b615d6e565b618b0367b6ae5e5de5b6aef760c01b615d6e565b601060009054906101000a900473ffffffffffffffffffffffffffffffffffffffff1673ffffffffffffffffffffffffffffffffffffffff1663a711e6a1826040518263ffffffff1660e01b8152600401618b5e9190619199565b602060405180830381865afa158015618b7b573d6000803e3d6000fd5b505050506040513d601f19601f82011682018060405250810190618b9f9190619b64565b8015618c4857506000601060009054906101000a900473ffffffffffffffffffffffffffffffffffffffff1673ffffffffffffffffffffffffffffffffffffffff1663e9ab030083846040518363ffffffff1660e01b8152600401618c05929190619b8b565b602060405180830381865afa158015618c22573d6000803e3d6000fd5b505050506040513d601f19601f82011682018060405250810190618c4691906197b0565b145b15618cf157618c61672c2b9baed9723aee60c01b615d6e565b618c75678c3d3ca6f725983660c01b615d6e565b618c8967bd6fd9c8c498448460c01b615d6e565b6001829080600181540180825580915050600190039060005260206000200160009091909190916101000a81548173ffffffffffffffffffffffffffffffffffffffff021916908373ffffffffffffffffffffffffffffffffffffffff160217905550618d06565b618d056730074b8940fcf70460c01b615d6e565b5b50508060010190506189dd565b50618d2867b14ea261540ad56f60c01b615d6e565b618d3c67caf082489d1ab9fa60c01b615d6e565b600060018054905003618e2a57618d5c664219190216629660c01b615d6e565b618d7067699be65845fca02160c01b615d6e565b618d8467031d169c69dd617860c01b615d6e565b600160008081548110618d9a57618d99619849565b5b9060005260206000200160009054906101000a900473ffffffffffffffffffffffffffffffffffffffff169080600181540180825580915050600190039060005260206000200160009091909190916101000a81548173ffffffffffffffffffffffffffffffffffffffff021916908373ffffffffffffffffffffffffffffffffffffffff160217905550618e3f565b618e3e674b4beabacab180cd60c01b615d6e565b5b50618fcc565b618e5967234d9cef0f67220760c01b615d6e565b618e6d67e68e88cc9470e3b560c01b615d6e565b618e8167bdcbda81f675aa3360c01b615d6e565b600081519050618e9b675730e4daaca0cf3560c01b615d6e565b618eaf671b74f436bfb7f84360c01b615d6e565b60005b81811015618fc957618ece67a53744a7cbf2145060c01b615d6e565b618ee267a848da9452f2094d60c01b615d6e565b6001600b6000858481518110618efb57618efa619849565b5b602002602001015173ffffffffffffffffffffffffffffffffffffffff1673ffffffffffffffffffffffffffffffffffffffff16815260200190815260200160002060009054906101000a900473ffffffffffffffffffffffffffffffffffffffff169080600181540180825580915050600190039060005260206000200160009091909190916101000a81548173ffffffffffffffffffffffffffffffffffffffff021916908373ffffffffffffffffffffffffffffffffffffffff160217905550806001019050618eb2565b50505b50565b618fd761909d565b61900d576040517fd7e6bcf800000000000000000000000000000000000000000000000000000000815260040160405180910390fd5b565b619017618fcf565b600073ffffffffffffffffffffffffffffffffffffffff168173ffffffffffffffffffffffffffffffffffffffff16036190895760006040517f1e4fbdf70000000000000000000000000000000000000000000000000000000081526004016190809190619199565b60405180910390fd5b61909281617d9a565b50565b600033905090565b60006190a761668a565b60000160089054906101000a900460ff16905090565b50805460008255906000526020600020908101906190db9190619130565b50565b82805482825590600052602060002090810192821561911f5760005260206000209182015b8281111561911e578254825591600101919060010190619103565b5b50905061912c9190619130565b5090565b5b80821115619149576000816000905550600101619131565b5090565b73ffffffffffffffffffffffffffffffffffffffff8116811461916f57600080fd5b50565b60006020828403121561918457600080fd5b813561918f8161914d565b8091505092915050565b600060208201905073ffffffffffffffffffffffffffffffffffffffff8316825292915050565b600060208201905082825292915050565b600080604083850312156191e457600080fd5b82356191ef8161914d565b8092505060208301356192018161914d565b809150509250929050565b60006020820190506006831061923257634e487b7160e01b600052602160045260246000fd5b82825292915050565b801515811461924957600080fd5b50565b60006020828403121561925e57600080fd5b81356192698161923b565b8091505092915050565b634e487b7160e01b600052604160045260246000fd5b60006040519050601f19601f830116810181811067ffffffffffffffff821117156192b7576192b6619273565b5b8060405250919050565b600067ffffffffffffffff8211156192dc576192db619273565b5b60208260051b019050919050565b6000806000606084860312156192ff57600080fd5b833567ffffffffffffffff81111561931657600080fd5b808501905085601f82011261932a57600080fd5b8035602061933f61933a836192c1565b619289565b808382528282019150828460051b86010193508984111561935f57600080fd5b82850194505b83851015619380578435825282820191508285019450619365565b8097505050808701359450505050604084013590509250925092565b600060208201905073ffffffffffffffffffffffffffffffffffffffff8316825292915050565b600080604083850312156193d657600080fd5b82359150602083013590509250929050565b600080604083850312156193fb57600080fd5b82356194068161914d565b80925050602083013590509250929050565b60008083601f84011261942a57600080fd5b8235905067ffffffffffffffff81111561944357600080fd5b6020830191508360208260051b850101111561945e57600080fd5b9250929050565b60008060008060008086880361014081121561948057600080fd5b873561948b8161914d565b8097505060e0601f19820112156194a157600080fd5b5060208701945061010087013567ffffffffffffffff808211156194c457600080fd5b6194d08a838b01619418565b9250809650508194506101208901359150808211156194ee57600080fd5b506194fb89828a01619418565b915080935050809150509295509295509295565b60006020828403121561952157600080fd5b8135905092915050565b600060208083016020845280855180835260408601915060208701925060005b818110156195825773ffffffffffffffffffffffffffffffffffffffff84511683528483019250848401935060018101905061954b565b505080935050505092915050565b60005b838110156195ae578082015181840152602081019050619593565b50600083830152505050565b60208152600082518060208401526195d9816040850160208701619590565b6040601f19601f83011684010191505092915050565b6000602082019050821515825292915050565b6000806040838503121561961557600080fd5b82356fffffffffffffffffffffffffffffffff198116811461963657600080fd5b80925050602083013561ffff60f01b8116811461965257600080fd5b809150509250929050565b600060208201905073ffffffffffffffffffffffffffffffffffffffff8316825292915050565b600060208201905073ffffffffffffffffffffffffffffffffffffffff8316825292915050565b600060208201905082825292915050565b6000815190506fffffffffffffffffffffffffffffffff811681146196e057600080fd5b919050565b600080604083850312156196f857600080fd5b619701836196bc565b915061970f602084016196bc565b90509250929050565b60006020828403121561972a57600080fd5b815167ffffffffffffffff8082111561974257600080fd5b818401915084601f83011261975657600080fd5b81518181111561976957619768619273565b5b61977c6020601f19601f84011601619289565b915080825285602082850101111561979357600080fd5b6197a4816020840160208601619590565b50809250505092915050565b6000602082840312156197c257600080fd5b8151905092915050565b600060208201905067ffffffffffffffff8316825292915050565b634e487b7160e01b600052601160045260246000fd5b6000828201905080821115619815576198146197e7565b5b92915050565b600060408201905073ffffffffffffffffffffffffffffffffffffffff841682528260208301529392505050565b634e487b7160e01b600052603260045260246000fd5b600080198203619872576198716197e7565b5b600182019050919050565b600060208201905067ffffffffffffffff8316825292915050565b634e487b7160e01b600052603160045260246000fd5b6000816198be576198bd6197e7565b5b60001982019050919050565b60008282039050818111156198e2576198e16197e7565b5b92915050565b600060608201905073ffffffffffffffffffffffffffffffffffffffff851682526fffffffffffffffffffffffffffffffff198416602083015261ffff60f01b83166040830152949350505050565b6000602080838503121561994a57600080fd5b825167ffffffffffffffff81111561996157600080fd5b808401905084601f82011261997557600080fd5b8051619988619983826192c1565b619289565b808282528482019150848360051b8501019250878311156199a857600080fd5b84840193505b828410156199d45783516199c18161914d565b80835250848201915084840193506199ae565b809550505050505092915050565b6000602080830160208452808554808352604086019150866000526020600020925060005b81811015619a3f5773ffffffffffffffffffffffffffffffffffffffff84541683528483019250600184019350600181019050619a07565b505080935050505092915050565b634e487b7160e01b600052601260045260246000fd5b600082619a7357619a72619a4d565b5b828204905092915050565b600082820290508181048314821517619a9a57619a996197e7565b5b92915050565b600082619ab057619aaf619a4d565b5b828206905092915050565b60008060408385031215619ace57600080fd5b825167ffffffffffffffff811115619ae557600080fd5b808401905084601f820112619af957600080fd5b80516020619b0e619b09836192c1565b619289565b808382528282019150828460051b860101935088841115619b2e57600080fd5b82850194505b83851015619b4f578451825282820191508285019450619b34565b80965050508086015193505050509250929050565b600060208284031215619b7657600080fd5b8151619b818161923b565b8091505092915050565b600060408201905073ffffffffffffffffffffffffffffffffffffffff8085168352808416602084015250939250505056fea26469706673582212204b9f459c9ee48097003c52c3aba3b6370e7ead0d020aeedac1fe1b7184a2f38564736f6c63430008190033",
  "linkReferences": {},
  "deployedLinkReferences": {}
}