{
  "_format": "hh-sol-artifact-1",
  "contractName": "ValueGuardsMock",
  "sourceName": "contracts/mockContracts/ValueGuardsMock.sol",
  "abi": [
    {
      "inputs": [],
      "name": "GetterCallFailed",
      "type": "error"
    },
    {
      "inputs": [],
      "name": "InvalidInitialization",
      "type": "error"
    },
    {
      "inputs": [
        {
          "internalType": "uint256",
          "name": "_newVal",
          "type": "uint256"
        }
      ],
      "name": "NewValueOutOfRange",
      "type": "error"
    },
    {
      "inputs": [],
      "name": "NotInitializing",
      "type": "error"
    },
    {
      "inputs": [
        {
          "internalType": "address",
          "name": "owner",
          "type": "address"
        }
      ],
      "name": "OwnableInvalidOwner",
      "type": "error"
    },
    {
      "inputs": [
        {
          "internalType": "address",
          "name": "account",
          "type": "address"
        }
      ],
      "name": "OwnableUnauthorizedAccount",
      "type": "error"
    },
    {
      "anonymous": false,
      "inputs": [
        {
          "indexed": false,
          "internalType": "uint64",
          "name": "version",
          "type": "uint64"
        }
      ],
      "name": "Initialized",
      "type": "event"
    },
    {
      "anonymous": false,
      "inputs": [
        {
          "indexed": true,
          "internalType": "address",
          "name": "previousOwner",
          "type": "address"
        },
        {
          "indexed": true,
          "internalType": "address",
          "name": "newOwner",
          "type": "address"
        }
      ],
      "name": "OwnershipTransferred",
      "type": "event"
    },
    {
      "anonymous": false,
      "inputs": [
        {
          "indexed": false,
          "internalType": "bytes4",
          "name": "funcSelector",
          "type": "bytes4"
        }
      ],
      "name": "RemoveChangeableParameter",
      "type": "event"
    },
    {
      "anonymous": false,
      "inputs": [
        {
          "indexed": false,
          "internalType": "bytes4",
          "name": "setter",
          "type": "bytes4"
        },
        {
          "indexed": false,
          "internalType": "bytes4",
          "name": "getter",
          "type": "bytes4"
        },
        {
          "indexed": false,
          "internalType": "uint256[]",
          "name": "params",
          "type": "uint256[]"
        }
      ],
      "name": "SetChangeableParameter",
      "type": "event"
    },
    {
      "anonymous": false,
      "inputs": [
        {
          "indexed": false,
          "internalType": "uint256",
          "name": "_val",
          "type": "uint256"
        }
      ],
      "name": "SetValueA",
      "type": "event"
    },
    {
      "anonymous": false,
      "inputs": [
        {
          "indexed": false,
          "internalType": "uint256",
          "name": "_val",
          "type": "uint256"
        }
      ],
      "name": "SetValueB",
      "type": "event"
    },
    {
      "inputs": [
        {
          "internalType": "string",
          "name": "_selector",
          "type": "string"
        }
      ],
      "name": "getAllowedParamsRange",
      "outputs": [
        {
          "components": [
            {
              "internalType": "bytes4",
              "name": "getter",
              "type": "bytes4"
            },
            {
              "internalType": "uint256[]",
              "name": "range",
              "type": "uint256[]"
            }
          ],
          "internalType": "struct ValueGuards.ParameterRange",
          "name": "",
          "type": "tuple"
        }
      ],
      "stateMutability": "view",
      "type": "function"
    },
    {
      "inputs": [
        {
          "internalType": "bytes4",
          "name": "_selector",
          "type": "bytes4"
        }
      ],
      "name": "getAllowedParamsRangeWithSelector",
      "outputs": [
        {
          "components": [
            {
              "internalType": "bytes4",
              "name": "getter",
              "type": "bytes4"
            },
            {
              "internalType": "uint256[]",
              "name": "range",
              "type": "uint256[]"
            }
          ],
          "internalType": "struct ValueGuards.ParameterRange",
          "name": "",
          "type": "tuple"
        }
      ],
      "stateMutability": "view",
      "type": "function"
    },
    {
      "inputs": [],
      "name": "getValueB",
      "outputs": [
        {
          "internalType": "uint256",
          "name": "",
          "type": "uint256"
        }
      ],
      "stateMutability": "view",
      "type": "function"
    },
    {
      "inputs": [
        {
          "internalType": "bytes4",
          "name": "setter",
          "type": "bytes4"
        },
        {
          "internalType": "bytes4",
          "name": "getter",
          "type": "bytes4"
        },
        {
          "internalType": "uint256[]",
          "name": "params",
          "type": "uint256[]"
        }
      ],
      "name": "initAllowedChangableParam",
      "outputs": [],
      "stateMutability": "nonpayable",
      "type": "function"
    },
    {
      "inputs": [
        {
          "internalType": "uint256",
          "name": "_initialValueA",
          "type": "uint256"
        },
        {
          "internalType": "uint256",
          "name": "_initialValueB",
          "type": "uint256"
        },
        {
          "internalType": "uint256[]",
          "name": "allowedRangeValueA",
          "type": "uint256[]"
        },
        {
          "internalType": "uint256[]",
          "name": "allowedRangeValueB",
          "type": "uint256[]"
        }
      ],
      "name": "initialize",
      "outputs": [],
      "stateMutability": "nonpayable",
      "type": "function"
    },
    {
      "inputs": [
        {
          "internalType": "bytes4",
          "name": "funcSelector",
          "type": "bytes4"
        },
        {
          "internalType": "uint256",
          "name": "newVal",
          "type": "uint256"
        }
      ],
      "name": "isWithinAllowedRange",
      "outputs": [
        {
          "internalType": "bool",
          "name": "",
          "type": "bool"
        }
      ],
      "stateMutability": "view",
      "type": "function"
    },
    {
      "inputs": [],
      "name": "owner",
      "outputs": [
        {
          "internalType": "address",
          "name": "",
          "type": "address"
        }
      ],
      "stateMutability": "view",
      "type": "function"
    },
    {
      "inputs": [
        {
          "internalType": "bytes4",
          "name": "funcSelector",
          "type": "bytes4"
        }
      ],
      "name": "removeAllowedChangeableParameter",
      "outputs": [],
      "stateMutability": "nonpayable",
      "type": "function"
    },
    {
      "inputs": [],
      "name": "renounceOwnership",
      "outputs": [],
      "stateMutability": "nonpayable",
      "type": "function"
    },
    {
      "inputs": [
        {
          "internalType": "bytes4",
          "name": "setter",
          "type": "bytes4"
        },
        {
          "internalType": "bytes4",
          "name": "getter",
          "type": "bytes4"
        },
        {
          "internalType": "uint256[]",
          "name": "params",
          "type": "uint256[]"
        }
      ],
      "name": "setAllowedChangeableParameter",
      "outputs": [],
      "stateMutability": "nonpayable",
      "type": "function"
    },
    {
      "inputs": [
        {
          "internalType": "uint256",
          "name": "_val",
          "type": "uint256"
        }
      ],
      "name": "setUnprotectedValueC",
      "outputs": [],
      "stateMutability": "nonpayable",
      "type": "function"
    },
    {
      "inputs": [
        {
          "internalType": "uint256",
          "name": "_val",
          "type": "uint256"
        }
      ],
      "name": "setValueA",
      "outputs": [],
      "stateMutability": "nonpayable",
      "type": "function"
    },
    {
      "inputs": [
        {
          "internalType": "uint256",
          "name": "_val",
          "type": "uint256"
        }
      ],
      "name": "setValueB",
      "outputs": [],
      "stateMutability": "nonpayable",
      "type": "function"
    },
    {
      "inputs": [
        {
          "internalType": "address",
          "name": "newOwner",
          "type": "address"
        }
      ],
      "name": "transferOwnership",
      "outputs": [],
      "stateMutability": "nonpayable",
      "type": "function"
    },
    {
      "inputs": [],
      "name": "valueA",
      "outputs": [
        {
          "internalType": "uint256",
          "name": "",
          "type": "uint256"
        }
      ],
      "stateMutability": "view",
      "type": "function"
    },
    {
      "inputs": [],
      "name": "valueC",
      "outputs": [
        {
          "internalType": "uint256",
          "name": "",
          "type": "uint256"
        }
      ],
      "stateMutability": "view",
      "type": "function"
    }
  ],
  "bytecode": "0x6080604052348015600f57600080fd5b506113078061001f6000396000f3fe608060405234801561001057600080fd5b50600436106101005760003560e01c806395ad7a3a11610097578063ba08d23711610066578063ba08d23714610212578063bf348f8614610235578063f2fde38b14610248578063ff8284d81461025b57600080fd5b806395ad7a3a146101b95780639fd088df146101cc578063a77a29fc146101df578063b710c15d146101f257600080fd5b8063715018a6116100d3578063715018a61461015c5780637c5c2941146101645780637d8149db1461016c5780638da5cb5b1461017f57600080fd5b80633e9df398146101055780634346845f1461011a578063623445d71461012d5780636af1550514610140575b600080fd5b610118610113366004610d98565b610264565b005b610118610128366004610dce565b6102e5565b61011861013b366004610d98565b6103eb565b61014960005481565b6040519081526020015b60405180910390f35b61011861045f565b600154610149565b61011861017a366004610e5f565b610473565b7f9016d09d72d40fdae2fd8ceac6b6234c7706214fd39c1cd1e609a0528c199300546040516001600160a01b039091168152602001610153565b6101186101c7366004610f48565b6104f5565b6101186101da366004610d98565b610505565b6101186101ed366004610fa6565b610512565b61020561020036600461101d565b610675565b60405161015391906110b2565b610225610220366004611114565b610725565b6040519015158152602001610153565b610205610243366004610e5f565b610902565b61011861025636600461113e565b6109a7565b61014960025481565b61026c6109e5565b806102836000356001600160e01b03191682610725565b6102a8576040516373330d9b60e01b8152600481018290526024015b60405180910390fd5b60008290556040518281527f09e9d74fbb69f684be9c7a0d4e0c2611145df9a73fc9d3c3f6584af035cf55ab906020015b60405180910390a15050565b6102ed6109e5565b60006102f7610a40565b90506040518060400160405280857bffffffffffffffffffffffffffffffffffffffffffffffffffffffff1916815260200184848080602002602001604051908101604052809392919081815260200183836020028082843760009201829052509390945250506001600160e01b031988168152602084815260409091208351815463ffffffff191660e09190911c1781558382015180519193506103a3926001850192910190610d1e565b509050507f3665bf9cd0ba4ddceeec259e21dcf8a4510f3b1130bd42e950828e69d85408ba858585856040516103dc9493929190611167565b60405180910390a15050505050565b6103f36109e5565b8061040a6000356001600160e01b03191682610725565b61042a576040516373330d9b60e01b81526004810182905260240161029f565b60018290556040518281527f346e8bcc835e843d4c170eda53d2f4becb53caa6e58338398ce88925f65db4fd906020016102d9565b6104676109e5565b6104716000610aa2565b565b61047b6109e5565b6000610485610a40565b6001600160e01b031983166000908152602082905260408120805463ffffffff191681559192506104b96001830182610d69565b50506040516001600160e01b0319831681527fed27cb02231782dadf13473a7828cb980c4d685791b7a3136dde00f8c3594cb6906020016102d9565b610500838383610b2b565b505050565b61050d6109e5565b600255565b7ff0c57e16840df040f15088dc2f81fe391c3923bec73e23a9662efc9c229c6a00805468010000000000000000810460ff16159067ffffffffffffffff1660008115801561055d5750825b905060008267ffffffffffffffff16600114801561057a5750303b155b905081158015610588575080155b156105a65760405163f92ee8a960e01b815260040160405180910390fd5b845467ffffffffffffffff1916600117855583156105da57845468ff00000000000000001916680100000000000000001785555b6105e333610be0565b6105fc6307d3be7360e31b636af1550560e01b89610b2b565b61061563623445d760e01b637c5c294160e01b88610b2b565b60008990556001889055831561066a57845468ff000000000000000019168555604051600181527fc7f505b2f371ae2175ee4913f4499e1f2633a7b5936321eed1cdaeb6115181d29060200160405180910390a15b505050505050505050565b604080518082019091526000815260606020820152610692610a40565b82516020808501919091206001600160e01b0319908116600090815292825260409283902083518085018552815460e01b909216825260018101805485518186028101860190965280865292949193858101939083018282801561071557602002820191906000526020600020905b815481526020019060010190808311610701575b5050505050815250509050919050565b600080610730610a40565b6001600160e01b031980861660009081526020838152604080832081518083018352815460e01b909516855260018101805483518186028101860190945280845296975093959093858401939091908301828280156107ae57602002820191906000526020600020905b81548152602001906001019080831161079a575b50505050508152505090508060200151516000036107d1576000925050506108fc565b602081015181516000906107e490610bf1565b905060005b82518110156108f25781838281518110610805576108056111d4565b6020026020010151036108ea57600080821161083b578360008151811061082e5761082e6111d4565b6020026020010151610860565b83610847600184611200565b81518110610857576108576111d4565b60200260200101515b90506000600185516108729190611200565b83106108a45784600186516108879190611200565b81518110610897576108976111d4565b60200260200101516108c9565b846108b0846001611213565b815181106108c0576108c06111d4565b60200260200101515b90508189141580156108db5750808914155b159750505050505050506108fc565b6001016107e9565b5060009450505050505b92915050565b60408051808201909152600081526060602082015261091f610a40565b6001600160e01b03198084166000908152602092835260409081902081518083018352815460e01b90931683526001810180548351818702810187019094528084529394919385830193928301828280156107155760200282019190600052602060002090815481526020019060010190808311610701575050505050815250509050919050565b6109af6109e5565b6001600160a01b0381166109d957604051631e4fbdf760e01b81526000600482015260240161029f565b6109e281610aa2565b50565b33610a177f9016d09d72d40fdae2fd8ceac6b6234c7706214fd39c1cd1e609a0528c199300546001600160a01b031690565b6001600160a01b0316146104715760405163118cdaa760e01b815233600482015260240161029f565b60008060ff19610a7160017fdace3fd3d1fbdfd33853f19ba191d28c617e373ec58fc73cf7b58db5aff2c2ab611200565b604051602001610a8391815260200190565b60408051601f1981840301815291905280516020909101201692915050565b7f9016d09d72d40fdae2fd8ceac6b6234c7706214fd39c1cd1e609a0528c19930080547fffffffffffffffffffffffff000000000000000000000000000000000000000081166001600160a01b03848116918217845560405192169182907f8be0079c531659141344cd1fd0a4f28419497f9722a3daafe3b4186f6b6457e090600090a3505050565b610b33610cc8565b6000610b3d610a40565b6040805180820182526001600160e01b0319868116825260208083018781529189166000908152858252939093208251815463ffffffff191660e09190911c1781559051805194955091939092610b9b926001850192910190610d1e565b509050507f3665bf9cd0ba4ddceeec259e21dcf8a4510f3b1130bd42e950828e69d85408ba848484604051610bd293929190611226565b60405180910390a150505050565b610be8610cc8565b6109e281610d16565b60408051600481526024810182526020810180517bffffffffffffffffffffffffffffffffffffffffffffffffffffffff166001600160e01b03198516179052905160009190829081903090610c48908590611289565b600060405180830381855afa9150503d8060008114610c83576040519150601f19603f3d011682016040523d82523d6000602084013e610c88565b606091505b509150915081610cab57604051635fbab09b60e11b815260040160405180910390fd5b80806020019051810190610cbf91906112b8565b95945050505050565b7ff0c57e16840df040f15088dc2f81fe391c3923bec73e23a9662efc9c229c6a005468010000000000000000900460ff1661047157604051631afcd79f60e31b815260040160405180910390fd5b6109af610cc8565b828054828255906000526020600020908101928215610d59579160200282015b82811115610d59578251825591602001919060010190610d3e565b50610d65929150610d83565b5090565b50805460008255906000526020600020908101906109e291905b5b80821115610d655760008155600101610d84565b600060208284031215610daa57600080fd5b5035919050565b80356001600160e01b031981168114610dc957600080fd5b919050565b60008060008060608587031215610de457600080fd5b610ded85610db1565b9350610dfb60208601610db1565b9250604085013567ffffffffffffffff80821115610e1857600080fd5b818701915087601f830112610e2c57600080fd5b813581811115610e3b57600080fd5b8860208260051b8501011115610e5057600080fd5b95989497505060200194505050565b600060208284031215610e7157600080fd5b610e7a82610db1565b9392505050565b634e487b7160e01b600052604160045260246000fd5b604051601f8201601f1916810167ffffffffffffffff81118282101715610ec057610ec0610e81565b604052919050565b600082601f830112610ed957600080fd5b8135602067ffffffffffffffff821115610ef557610ef5610e81565b8160051b610f04828201610e97565b9283528481018201928281019087851115610f1e57600080fd5b83870192505b84831015610f3d57823582529183019190830190610f24565b979650505050505050565b600080600060608486031215610f5d57600080fd5b610f6684610db1565b9250610f7460208501610db1565b9150604084013567ffffffffffffffff811115610f9057600080fd5b610f9c86828701610ec8565b9150509250925092565b60008060008060808587031215610fbc57600080fd5b8435935060208501359250604085013567ffffffffffffffff80821115610fe257600080fd5b610fee88838901610ec8565b9350606087013591508082111561100457600080fd5b5061101187828801610ec8565b91505092959194509250565b6000602080838503121561103057600080fd5b823567ffffffffffffffff8082111561104857600080fd5b818501915085601f83011261105c57600080fd5b81358181111561106e5761106e610e81565b611080601f8201601f19168501610e97565b9150808252868482850101111561109657600080fd5b8084840185840137600090820190930192909252509392505050565b602080825282516001600160e01b031916828201528281015160408084015280516060840181905260009291820190839060808601905b8083101561110957835182529284019260019290920191908401906110e9565b509695505050505050565b6000806040838503121561112757600080fd5b61113083610db1565b946020939093013593505050565b60006020828403121561115057600080fd5b81356001600160a01b0381168114610e7a57600080fd5b6001600160e01b0319858116825284166020820152606060408201819052810182905260007f07ffffffffffffffffffffffffffffffffffffffffffffffffffffffffffffff8311156111b957600080fd5b8260051b808560808501379190910160800195945050505050565b634e487b7160e01b600052603260045260246000fd5b634e487b7160e01b600052601160045260246000fd5b818103818111156108fc576108fc6111ea565b808201808211156108fc576108fc6111ea565b6001600160e01b031984811682528316602080830191909152606060408301819052835190830181905260009184810191608085019190845b8181101561127b5784518452938201939282019260010161125f565b509198975050505050505050565b6000825160005b818110156112aa5760208186018101518583015201611290565b506000920191825250919050565b6000602082840312156112ca57600080fd5b505191905056fea2646970667358221220eb93f840f22bd0ecf26d379f5af3e2adb5dc89df5b51c1fbe7bec67f02bff6c764736f6c63430008190033",
  "linkReferences": {},
  "deployedLinkReferences": {}
}