{
  "_format": "hh-sol-artifact-1",
  "contractName": "ValueGuards",
  "sourceName": "contracts/ValueGuards.sol",
  "abi": [
    {
      "inputs": [],
      "name": "GetterCallFailed",
      "type": "error"
    },
    {
      "inputs": [],
      "name": "InvalidInitialization",
      "type": "error"
    },
    {
      "inputs": [
        {
          "internalType": "uint256",
          "name": "_newVal",
          "type": "uint256"
        }
      ],
      "name": "NewValueOutOfRange",
      "type": "error"
    },
    {
      "inputs": [],
      "name": "NotInitializing",
      "type": "error"
    },
    {
      "inputs": [
        {
          "internalType": "address",
          "name": "owner",
          "type": "address"
        }
      ],
      "name": "OwnableInvalidOwner",
      "type": "error"
    },
    {
      "inputs": [
        {
          "internalType": "address",
          "name": "account",
          "type": "address"
        }
      ],
      "name": "OwnableUnauthorizedAccount",
      "type": "error"
    },
    {
      "anonymous": false,
      "inputs": [
        {
          "indexed": false,
          "internalType": "uint64",
          "name": "version",
          "type": "uint64"
        }
      ],
      "name": "Initialized",
      "type": "event"
    },
    {
      "anonymous": false,
      "inputs": [
        {
          "indexed": true,
          "internalType": "address",
          "name": "previousOwner",
          "type": "address"
        },
        {
          "indexed": true,
          "internalType": "address",
          "name": "newOwner",
          "type": "address"
        }
      ],
      "name": "OwnershipTransferred",
      "type": "event"
    },
    {
      "anonymous": false,
      "inputs": [
        {
          "indexed": false,
          "internalType": "string",
          "name": "funcSelector",
          "type": "string"
        }
      ],
      "name": "RemoveChangeAbleParameter",
      "type": "event"
    },
    {
      "anonymous": false,
      "inputs": [
        {
          "indexed": false,
          "internalType": "string",
          "name": "setter",
          "type": "string"
        },
        {
          "indexed": false,
          "internalType": "string",
          "name": "getter",
          "type": "string"
        },
        {
          "indexed": false,
          "internalType": "uint256[]",
          "name": "params",
          "type": "uint256[]"
        }
      ],
      "name": "SetChangeAbleParameter",
      "type": "event"
    },
    {
      "inputs": [
        {
          "internalType": "bytes4",
          "name": "",
          "type": "bytes4"
        }
      ],
      "name": "allowedParameterRange",
      "outputs": [
        {
          "internalType": "bytes4",
          "name": "getter",
          "type": "bytes4"
        }
      ],
      "stateMutability": "view",
      "type": "function"
    },
    {
      "inputs": [
        {
          "internalType": "string",
          "name": "_selector",
          "type": "string"
        }
      ],
      "name": "getAllowedParamsRange",
      "outputs": [
        {
          "components": [
            {
              "internalType": "bytes4",
              "name": "getter",
              "type": "bytes4"
            },
            {
              "internalType": "uint256[]",
              "name": "range",
              "type": "uint256[]"
            }
          ],
          "internalType": "struct ValueGuards.ParameterRange",
          "name": "",
          "type": "tuple"
        }
      ],
      "stateMutability": "view",
      "type": "function"
    },
    {
      "inputs": [
        {
          "internalType": "bytes4",
          "name": "_selector",
          "type": "bytes4"
        }
      ],
      "name": "getAllowedParamsRangeWithSelector",
      "outputs": [
        {
          "components": [
            {
              "internalType": "bytes4",
              "name": "getter",
              "type": "bytes4"
            },
            {
              "internalType": "uint256[]",
              "name": "range",
              "type": "uint256[]"
            }
          ],
          "internalType": "struct ValueGuards.ParameterRange",
          "name": "",
          "type": "tuple"
        }
      ],
      "stateMutability": "view",
      "type": "function"
    },
    {
      "inputs": [
        {
          "internalType": "string",
          "name": "setter",
          "type": "string"
        },
        {
          "internalType": "string",
          "name": "getter",
          "type": "string"
        },
        {
          "internalType": "uint256[]",
          "name": "params",
          "type": "uint256[]"
        }
      ],
      "name": "initAllowedChangeableParameter",
      "outputs": [],
      "stateMutability": "nonpayable",
      "type": "function"
    },
    {
      "inputs": [
        {
          "internalType": "bytes4",
          "name": "funcSelector",
          "type": "bytes4"
        },
        {
          "internalType": "uint256",
          "name": "newVal",
          "type": "uint256"
        }
      ],
      "name": "isWithinAllowedRange",
      "outputs": [
        {
          "internalType": "bool",
          "name": "",
          "type": "bool"
        }
      ],
      "stateMutability": "view",
      "type": "function"
    },
    {
      "inputs": [],
      "name": "owner",
      "outputs": [
        {
          "internalType": "address",
          "name": "",
          "type": "address"
        }
      ],
      "stateMutability": "view",
      "type": "function"
    },
    {
      "inputs": [
        {
          "internalType": "string",
          "name": "funcSelector",
          "type": "string"
        }
      ],
      "name": "removeAllowedChangeableParameter",
      "outputs": [],
      "stateMutability": "nonpayable",
      "type": "function"
    },
    {
      "inputs": [],
      "name": "renounceOwnership",
      "outputs": [],
      "stateMutability": "nonpayable",
      "type": "function"
    },
    {
      "inputs": [
        {
          "internalType": "string",
          "name": "setter",
          "type": "string"
        },
        {
          "internalType": "string",
          "name": "getter",
          "type": "string"
        },
        {
          "internalType": "uint256[]",
          "name": "params",
          "type": "uint256[]"
        }
      ],
      "name": "setAllowedChangeableParameter",
      "outputs": [],
      "stateMutability": "nonpayable",
      "type": "function"
    },
    {
      "inputs": [
        {
          "internalType": "address",
          "name": "newOwner",
          "type": "address"
        }
      ],
      "name": "transferOwnership",
      "outputs": [],
      "stateMutability": "nonpayable",
      "type": "function"
    }
  ],
  "bytecode": "0x6080604052348015600f57600080fd5b50610d768061001f6000396000f3fe608060405234801561001057600080fd5b50600436106100be5760003560e01c80639b9fb6d011610076578063ba08d2371161005b578063ba08d237146101a1578063bf348f86146101c4578063f2fde38b146101d757600080fd5b80639b9fb6d01461016e578063b710c15d1461018157600080fd5b8063715018a6116100a7578063715018a6146100eb5780638da5cb5b146100f3578063922836341461013257600080fd5b806336e98ca8146100c35780635cb092a2146100d8575b600080fd5b6100d66100d13660046109cc565b6101ea565b005b6100d66100e63660046109cc565b61029e565b6100d66102a6565b7f9016d09d72d40fdae2fd8ceac6b6234c7706214fd39c1cd1e609a0528c199300546040516001600160a01b0390911681526020015b60405180910390f35b610155610140366004610ad6565b60006020819052908152604090205460e01b81565b6040516001600160e01b03199091168152602001610129565b6100d661017c366004610af8565b6102ba565b61019461018f366004610af8565b610339565b6040516101299190610b35565b6101b46101af366004610b97565b6103e1565b6040519015158152602001610129565b6101946101d2366004610ad6565b6105b2565b6100d66101e5366004610bc1565b61064f565b6101f2610692565b60408051808201825283516020808601919091206001600160e01b031990811683528183018581528751888401209091166000908152808352939093208251815463ffffffff191660e09190911c1781559251805192939261025a926001850192019061089b565b509050507f3d45a310c5a076ea07aa2947ca3c06cc2a8b3571065867ad6f8e7096a2c9d50a83838360405161029193929190610c3a565b60405180910390a1505050565b6101f26106ed565b6102ae610692565b6102b8600061073b565b565b6102c2610692565b80516020808301919091206001600160e01b03191660009081529081905260408120805463ffffffff19168155906102fd60018301826108e6565b50507f92d44565a40fe29702ffa146ddaa3bb133d4077f5312d682d0a2632a9bc73a8a8160405161032e9190610ca6565b60405180910390a150565b60408051808201909152600081526060602082015281516020808401919091206001600160e01b0319908116600090815280835260409081902081518083018352815460e01b90931683526001810180548351818702810187019094528084529394919385830193928301828280156103d157602002820191906000526020600020905b8154815260200190600101908083116103bd575b5050505050815250509050919050565b6001600160e01b031980831660009081526020818152604080832081518083018352815460e01b90951685526001810180548351818602810186019094528084529495869590949293858401939092919083018282801561046157602002820191906000526020600020905b81548152602001906001019080831161044d575b50505050508152505090508060200151516000036104835760009150506105ac565b60208101518151600090610496906107c4565b905060005b82518110156105a357818382815181106104b7576104b7610cb9565b60200260200101510361059b5760008082116104ed57836000815181106104e0576104e0610cb9565b6020026020010151610512565b836104f9600184610ce5565b8151811061050957610509610cb9565b60200260200101515b90506000600185516105249190610ce5565b83106105565784600186516105399190610ce5565b8151811061054957610549610cb9565b602002602001015161057b565b84610562846001610cf8565b8151811061057257610572610cb9565b60200260200101515b905081881415801561058d5750808814155b1596505050505050506105ac565b60010161049b565b50600093505050505b92915050565b6040805180820190915260008152606060208201526001600160e01b03198083166000908152602081815260409182902082518084018452815460e01b90941684526001810180548451818502810185019095528085529193858401939092908301828280156103d157602002820191906000526020600020908154815260200190600101908083116103bd575050505050815250509050919050565b610657610692565b6001600160a01b03811661068657604051631e4fbdf760e01b8152600060048201526024015b60405180910390fd5b61068f8161073b565b50565b336106c47f9016d09d72d40fdae2fd8ceac6b6234c7706214fd39c1cd1e609a0528c199300546001600160a01b031690565b6001600160a01b0316146102b85760405163118cdaa760e01b815233600482015260240161067d565b7ff0c57e16840df040f15088dc2f81fe391c3923bec73e23a9662efc9c229c6a005468010000000000000000900460ff166102b857604051631afcd79f60e31b815260040160405180910390fd5b7f9016d09d72d40fdae2fd8ceac6b6234c7706214fd39c1cd1e609a0528c19930080547fffffffffffffffffffffffff000000000000000000000000000000000000000081166001600160a01b03848116918217845560405192169182907f8be0079c531659141344cd1fd0a4f28419497f9722a3daafe3b4186f6b6457e090600090a3505050565b60408051600481526024810182526020810180517bffffffffffffffffffffffffffffffffffffffffffffffffffffffff166001600160e01b0319851617905290516000919082908190309061081b908590610d0b565b600060405180830381855afa9150503d8060008114610856576040519150601f19603f3d011682016040523d82523d6000602084013e61085b565b606091505b50915091508161087e57604051635fbab09b60e11b815260040160405180910390fd5b808060200190518101906108929190610d27565b95945050505050565b8280548282559060005260206000209081019282156108d6579160200282015b828111156108d65782518255916020019190600101906108bb565b506108e2929150610900565b5090565b508054600082559060005260206000209081019061068f91905b5b808211156108e25760008155600101610901565b634e487b7160e01b600052604160045260246000fd5b604051601f8201601f1916810167ffffffffffffffff8111828210171561095457610954610915565b604052919050565b600082601f83011261096d57600080fd5b813567ffffffffffffffff81111561098757610987610915565b61099a601f8201601f191660200161092b565b8181528460208386010111156109af57600080fd5b816020850160208301376000918101602001919091529392505050565b6000806000606084860312156109e157600080fd5b833567ffffffffffffffff808211156109f957600080fd5b610a058783880161095c565b9450602091508186013581811115610a1c57600080fd5b610a288882890161095c565b945050604086013581811115610a3d57600080fd5b8601601f81018813610a4e57600080fd5b803582811115610a6057610a60610915565b8060051b9250610a7184840161092b565b818152928201840192848101908a851115610a8b57600080fd5b928501925b84841015610aa957833582529285019290850190610a90565b8096505050505050509250925092565b80356001600160e01b031981168114610ad157600080fd5b919050565b600060208284031215610ae857600080fd5b610af182610ab9565b9392505050565b600060208284031215610b0a57600080fd5b813567ffffffffffffffff811115610b2157600080fd5b610b2d8482850161095c565b949350505050565b602080825282516001600160e01b031916828201528281015160408084015280516060840181905260009291820190839060808601905b80831015610b8c5783518252928401926001929092019190840190610b6c565b509695505050505050565b60008060408385031215610baa57600080fd5b610bb383610ab9565b946020939093013593505050565b600060208284031215610bd357600080fd5b81356001600160a01b0381168114610af157600080fd5b60005b83811015610c05578181015183820152602001610bed565b50506000910152565b60008151808452610c26816020860160208601610bea565b601f01601f19169290920160200192915050565b606081526000610c4d6060830186610c0e565b60208382036020850152610c618287610c0e565b84810360408601528551808252602080880194509091019060005b81811015610c9857845183529383019391830191600101610c7c565b509098975050505050505050565b602081526000610af16020830184610c0e565b634e487b7160e01b600052603260045260246000fd5b634e487b7160e01b600052601160045260246000fd5b818103818111156105ac576105ac610ccf565b808201808211156105ac576105ac610ccf565b60008251610d1d818460208701610bea565b9190910192915050565b600060208284031215610d3957600080fd5b505191905056fea2646970667358221220c9b7c4388836aba4a072d803e8ec374b878fd28eff482c417b149b1f4a3d22b864736f6c63430008190033",
  "linkReferences": {},
  "deployedLinkReferences": {}
}