{
  "_format": "hh-sol-artifact-1",
  "contractName": "ValueGuardsMock",
  "sourceName": "contracts/mockContracts/ValueGuardsMock.sol",
  "abi": [
    {
      "inputs": [],
      "name": "GetterCallFailed",
      "type": "error"
    },
    {
      "inputs": [],
      "name": "InvalidInitialization",
      "type": "error"
    },
    {
      "inputs": [
        {
          "internalType": "uint256",
          "name": "_newVal",
          "type": "uint256"
        }
      ],
      "name": "NewValueOutOfRange",
      "type": "error"
    },
    {
      "inputs": [],
      "name": "NotInitializing",
      "type": "error"
    },
    {
      "inputs": [
        {
          "internalType": "address",
          "name": "owner",
          "type": "address"
        }
      ],
      "name": "OwnableInvalidOwner",
      "type": "error"
    },
    {
      "inputs": [
        {
          "internalType": "address",
          "name": "account",
          "type": "address"
        }
      ],
      "name": "OwnableUnauthorizedAccount",
      "type": "error"
    },
    {
      "anonymous": false,
      "inputs": [
        {
          "indexed": false,
          "internalType": "uint64",
          "name": "version",
          "type": "uint64"
        }
      ],
      "name": "Initialized",
      "type": "event"
    },
    {
      "anonymous": false,
      "inputs": [
        {
          "indexed": true,
          "internalType": "address",
          "name": "previousOwner",
          "type": "address"
        },
        {
          "indexed": true,
          "internalType": "address",
          "name": "newOwner",
          "type": "address"
        }
      ],
      "name": "OwnershipTransferred",
      "type": "event"
    },
    {
      "anonymous": false,
      "inputs": [
        {
          "indexed": false,
          "internalType": "bytes4",
          "name": "funcSelector",
          "type": "bytes4"
        }
      ],
      "name": "RemoveChangeableParameter",
      "type": "event"
    },
    {
      "anonymous": false,
      "inputs": [
        {
          "indexed": false,
          "internalType": "bytes4",
          "name": "setter",
          "type": "bytes4"
        },
        {
          "indexed": false,
          "internalType": "bytes4",
          "name": "getter",
          "type": "bytes4"
        },
        {
          "indexed": false,
          "internalType": "uint256[]",
          "name": "params",
          "type": "uint256[]"
        }
      ],
      "name": "SetChangeableParameter",
      "type": "event"
    },
    {
      "anonymous": false,
      "inputs": [
        {
          "indexed": false,
          "internalType": "uint256",
          "name": "_val",
          "type": "uint256"
        }
      ],
      "name": "SetValueA",
      "type": "event"
    },
    {
      "anonymous": false,
      "inputs": [
        {
          "indexed": false,
          "internalType": "uint256",
          "name": "_val",
          "type": "uint256"
        }
      ],
      "name": "SetValueB",
      "type": "event"
    },
    {
      "inputs": [
        {
          "internalType": "bytes4",
          "name": "",
          "type": "bytes4"
        }
      ],
      "name": "allowedParameterRange",
      "outputs": [
        {
          "internalType": "bytes4",
          "name": "getter",
          "type": "bytes4"
        }
      ],
      "stateMutability": "view",
      "type": "function"
    },
    {
      "inputs": [
        {
          "internalType": "string",
          "name": "_selector",
          "type": "string"
        }
      ],
      "name": "getAllowedParamsRange",
      "outputs": [
        {
          "components": [
            {
              "internalType": "bytes4",
              "name": "getter",
              "type": "bytes4"
            },
            {
              "internalType": "uint256[]",
              "name": "range",
              "type": "uint256[]"
            }
          ],
          "internalType": "struct ValueGuards.ParameterRange",
          "name": "",
          "type": "tuple"
        }
      ],
      "stateMutability": "view",
      "type": "function"
    },
    {
      "inputs": [
        {
          "internalType": "bytes4",
          "name": "_selector",
          "type": "bytes4"
        }
      ],
      "name": "getAllowedParamsRangeWithSelector",
      "outputs": [
        {
          "components": [
            {
              "internalType": "bytes4",
              "name": "getter",
              "type": "bytes4"
            },
            {
              "internalType": "uint256[]",
              "name": "range",
              "type": "uint256[]"
            }
          ],
          "internalType": "struct ValueGuards.ParameterRange",
          "name": "",
          "type": "tuple"
        }
      ],
      "stateMutability": "view",
      "type": "function"
    },
    {
      "inputs": [],
      "name": "getValueB",
      "outputs": [
        {
          "internalType": "uint256",
          "name": "",
          "type": "uint256"
        }
      ],
      "stateMutability": "view",
      "type": "function"
    },
    {
      "inputs": [
        {
          "internalType": "bytes4",
          "name": "setter",
          "type": "bytes4"
        },
        {
          "internalType": "bytes4",
          "name": "getter",
          "type": "bytes4"
        },
        {
          "internalType": "uint256[]",
          "name": "params",
          "type": "uint256[]"
        }
      ],
      "name": "initAllowedChangableParam",
      "outputs": [],
      "stateMutability": "nonpayable",
      "type": "function"
    },
    {
      "inputs": [
        {
          "internalType": "uint256",
          "name": "_initialValueA",
          "type": "uint256"
        },
        {
          "internalType": "uint256",
          "name": "_initialValueB",
          "type": "uint256"
        },
        {
          "internalType": "uint256[]",
          "name": "allowedRangeValueA",
          "type": "uint256[]"
        },
        {
          "internalType": "uint256[]",
          "name": "allowedRangeValueB",
          "type": "uint256[]"
        }
      ],
      "name": "initialize",
      "outputs": [],
      "stateMutability": "nonpayable",
      "type": "function"
    },
    {
      "inputs": [
        {
          "internalType": "bytes4",
          "name": "funcSelector",
          "type": "bytes4"
        },
        {
          "internalType": "uint256",
          "name": "newVal",
          "type": "uint256"
        }
      ],
      "name": "isWithinAllowedRange",
      "outputs": [
        {
          "internalType": "bool",
          "name": "",
          "type": "bool"
        }
      ],
      "stateMutability": "view",
      "type": "function"
    },
    {
      "inputs": [],
      "name": "owner",
      "outputs": [
        {
          "internalType": "address",
          "name": "",
          "type": "address"
        }
      ],
      "stateMutability": "view",
      "type": "function"
    },
    {
      "inputs": [
        {
          "internalType": "bytes4",
          "name": "funcSelector",
          "type": "bytes4"
        }
      ],
      "name": "removeAllowedChangeableParameter",
      "outputs": [],
      "stateMutability": "nonpayable",
      "type": "function"
    },
    {
      "inputs": [],
      "name": "renounceOwnership",
      "outputs": [],
      "stateMutability": "nonpayable",
      "type": "function"
    },
    {
      "inputs": [
        {
          "internalType": "bytes4",
          "name": "setter",
          "type": "bytes4"
        },
        {
          "internalType": "bytes4",
          "name": "getter",
          "type": "bytes4"
        },
        {
          "internalType": "uint256[]",
          "name": "params",
          "type": "uint256[]"
        }
      ],
      "name": "setAllowedChangeableParameter",
      "outputs": [],
      "stateMutability": "nonpayable",
      "type": "function"
    },
    {
      "inputs": [
        {
          "internalType": "uint256",
          "name": "_val",
          "type": "uint256"
        }
      ],
      "name": "setUnprotectedValueC",
      "outputs": [],
      "stateMutability": "nonpayable",
      "type": "function"
    },
    {
      "inputs": [
        {
          "internalType": "uint256",
          "name": "_val",
          "type": "uint256"
        }
      ],
      "name": "setValueA",
      "outputs": [],
      "stateMutability": "nonpayable",
      "type": "function"
    },
    {
      "inputs": [
        {
          "internalType": "uint256",
          "name": "_val",
          "type": "uint256"
        }
      ],
      "name": "setValueB",
      "outputs": [],
      "stateMutability": "nonpayable",
      "type": "function"
    },
    {
      "inputs": [
        {
          "internalType": "address",
          "name": "newOwner",
          "type": "address"
        }
      ],
      "name": "transferOwnership",
      "outputs": [],
      "stateMutability": "nonpayable",
      "type": "function"
    },
    {
      "inputs": [],
      "name": "valueA",
      "outputs": [
        {
          "internalType": "uint256",
          "name": "",
          "type": "uint256"
        }
      ],
      "stateMutability": "view",
      "type": "function"
    },
    {
      "inputs": [],
      "name": "valueC",
      "outputs": [
        {
          "internalType": "uint256",
          "name": "",
          "type": "uint256"
        }
      ],
      "stateMutability": "view",
      "type": "function"
    }
  ],
  "bytecode": "0x6080604052348015600f57600080fd5b506120fb8061001f6000396000f3fe608060405234801561001057600080fd5b506004361061011b5760003560e01c806392283634116100b2578063b710c15d11610081578063bf348f8611610066578063bf348f86146102d8578063f2fde38b14610308578063ff8284d8146103245761011b565b8063b710c15d14610278578063ba08d237146102a85761011b565b806392283634146101f457806395ad7a3a146102245780639fd088df14610240578063a77a29fc1461025c5761011b565b8063715018a6116100ee578063715018a6146101925780637c5c29411461019c5780637d8149db146101ba5780638da5cb5b146101d65761011b565b80633e9df398146101205780634346845f1461013c578063623445d7146101585780636af1550514610174575b600080fd5b61013a60048036038101906101359190611a9f565b610342565b005b61015660048036038101906101519190611adb565b610488565b005b610172600480360381019061016d9190611a9f565b610654565b005b61017c61079a565b6040516101899190611b72565b60405180910390f35b61019a6107a0565b005b6101a46107b4565b6040516101b19190611b72565b60405180910390f35b6101d460048036038101906101cf9190611b83565b6107be565b005b6101de6108f2565b6040516101eb9190611ba6565b60405180910390f35b61020e60048036038101906102099190611b83565b61092a565b60405161021b9190611bcd565b60405180910390f35b61023e60048036038101906102399190611cbe565b610955565b005b61025a60048036038101906102559190611a9f565b610965565b005b61027660048036038101906102719190611d1c565b610977565b005b610292600480360381019061028d9190611d93565b610b49565b60405161029f9190611e2a565b60405180910390f35b6102c260048036038101906102bd9190611e93565b610ca3565b6040516102cf9190611ebf565b60405180910390f35b6102f260048036038101906102ed9190611b83565b611193565b6040516102ff9190611e2a565b60405180910390f35b610322600480360381019061031d9190611ed2565b6112e6565b005b61032c61136c565b6040516103399190611b72565b60405180910390f35b61034a611372565b8061035f67288a20a40e8d1c5860c01b6113f9565b61037367c91bd2adbddb69c960c01b6113f9565b61038767e350faaca2e8f0c060c01b6113f9565b6103b56000357fffffffff000000000000000000000000000000000000000000000000000000001682610ca3565b61041e576103cd67f321c0062a05753f60c01b6113f9565b6103e16710282e2f2d3001d760c01b6113f9565b806040517f73330d9b0000000000000000000000000000000000000000000000000000000081526004016104159190611b72565b60405180910390fd5b610432677a834b40c8e841e560c01b6113f9565b610446678765015181e8c42860c01b6113f9565b816001819055507f09e9d74fbb69f684be9c7a0d4e0c2611145df9a73fc9d3c3f6584af035cf55ab8260405161047c9190611b72565b60405180910390a15050565b61049c67be0c833aa15c34c060c01b6113f9565b6104a4611372565b6104b86732f8a94e78c23adf60c01b6113f9565b6104cc6788b6eef7519ee4f160c01b6113f9565b6104e06716df033c7a667b6e60c01b6113f9565b6040518060400160405280847bffffffffffffffffffffffffffffffffffffffffffffffffffffffff19168152602001838380806020026020016040519081016040528093929190818152602001838360200280828437600081840152601f19601f82011690508083019250505050505050815250600080867bffffffffffffffffffffffffffffffffffffffffffffffffffffffff19167bffffffffffffffffffffffffffffffffffffffffffffffffffffffff1916815260200190815260200160002060008201518160000160006101000a81548163ffffffff021916908360e01c021790555060208201518160010190805190602001906105e59291906119db565b509050506105fd6755f08098c39d2f8260c01b6113f9565b61061167bdeaf3791eacbded60c01b6113f9565b7f3665bf9cd0ba4ddceeec259e21dcf8a4510f3b1130bd42e950828e69d85408ba848484846040516106469493929190611f12565b60405180910390a150505050565b61065c611372565b8061067167288a20a40e8d1c5860c01b6113f9565b61068567c91bd2adbddb69c960c01b6113f9565b61069967e350faaca2e8f0c060c01b6113f9565b6106c76000357fffffffff000000000000000000000000000000000000000000000000000000001682610ca3565b610730576106df67f321c0062a05753f60c01b6113f9565b6106f36710282e2f2d3001d760c01b6113f9565b806040517f73330d9b0000000000000000000000000000000000000000000000000000000081526004016107279190611b72565b60405180910390fd5b610744677a834b40c8e841e560c01b6113f9565b610758678765015181e8c42860c01b6113f9565b816002819055507f346e8bcc835e843d4c170eda53d2f4becb53caa6e58338398ce88925f65db4fd8260405161078e9190611b72565b60405180910390a15050565b60015481565b6107a8611372565b6107b260006113fc565b565b6000600254905090565b6107d2678fe2115d6ce1cd2660c01b6113f9565b6107da611372565b6107ee6709b862b227f1778560c01b6113f9565b61080267423a90dea5f08d5f60c01b6113f9565b6108166712d55d992cd616b860c01b6113f9565b600080827bffffffffffffffffffffffffffffffffffffffffffffffffffffffff19167bffffffffffffffffffffffffffffffffffffffffffffffffffffffff19168152602001908152602001600020600080820160006101000a81549063ffffffff021916905560018201600061088e9190611a28565b50506108a4671c3795656335d30b60c01b6113f9565b6108b867c0de44f930e2c4cb60c01b6113f9565b7fed27cb02231782dadf13473a7828cb980c4d685791b7a3136dde00f8c3594cb6816040516108e79190611bcd565b60405180910390a150565b6000806108fd6114d3565b90508060000160009054906101000a900473ffffffffffffffffffffffffffffffffffffffff1691505090565b60006020528060005260406000206000915090508060000160009054906101000a900460e01b905081565b6109608383836114fb565b505050565b61096d611372565b8060038190555050565b6000610981611683565b905060008160000160089054906101000a900460ff1615905060008260000160009054906101000a900467ffffffffffffffff1690506000808267ffffffffffffffff161480156109cf5750825b9050600060018367ffffffffffffffff16148015610a04575060003073ffffffffffffffffffffffffffffffffffffffff163b145b905081158015610a12575080155b15610a49576040517ff92ee8a900000000000000000000000000000000000000000000000000000000815260040160405180910390fd5b60018560000160006101000a81548167ffffffffffffffff021916908367ffffffffffffffff1602179055508315610a995760018560000160086101000a81548160ff0219169083151502179055505b610aa2336116ab565b610abb633e9df39860e01b636af1550560e01b896114fb565b610ad463623445d760e01b637c5c294160e01b886114fb565b88600181905550876002819055508315610b3e5760008560000160086101000a81548160ff0219169083151502179055507fc7f505b2f371ae2175ee4913f4499e1f2633a7b5936321eed1cdaeb6115181d26001604051610b359190611f81565b60405180910390a15b505050505050505050565b610b51611a49565b610b65674619985d99bfc13a60c01b6113f9565b610b7967d3809ce56ffdd6c060c01b6113f9565b610b8d67672ef63f17fd937760c01b6113f9565b60008083805190602001207bffffffffffffffffffffffffffffffffffffffffffffffffffffffff19167bffffffffffffffffffffffffffffffffffffffffffffffffffffffff191681526020019081526020016000206040518060400160405290816000820160009054906101000a900460e01b7bffffffffffffffffffffffffffffffffffffffffffffffffffffffff19167bffffffffffffffffffffffffffffffffffffffffffffffffffffffff1916815260200160018201805480602002602001604051908101604052809291908181526020018280548015610c9357602002820191906000526020600020905b815481526020019060010190808311610c7f575b5050505050815250509050919050565b6000610cb967474e2d01d013ed0460c01b6113f9565b610ccd67a3dfb7f1a77f229760c01b6113f9565b610ce167c84461f410b06e1d60c01b6113f9565b6000806000857bffffffffffffffffffffffffffffffffffffffffffffffffffffffff19167bffffffffffffffffffffffffffffffffffffffffffffffffffffffff191681526020019081526020016000206040518060400160405290816000820160009054906101000a900460e01b7bffffffffffffffffffffffffffffffffffffffffffffffffffffffff19167bffffffffffffffffffffffffffffffffffffffffffffffffffffffff1916815260200160018201805480602002602001604051908101604052809291908181526020018280548015610de257602002820191906000526020600020905b815481526020019060010190808311610dce575b5050505050815250509050610e0167fceac404249b0d4760c01b6113f9565b610e156780c820ae5d3863fa60c01b6113f9565b600081602001515103610e6857610e3667d3f7980aefae23f760c01b6113f9565b610e4a675178b7b9ce528bf860c01b6113f9565b610e5e672c12828ba0a53f0e60c01b6113f9565b600091505061118d565b610e7c679fbf9a05f8d8d3f260c01b6113f9565b610e9067ec1b37c91026e18c60c01b6113f9565b610ea366575fac3fc8706960c01b6113f9565b600081602001519050610ec067e4ee101f22c6ceed60c01b6113f9565b610ed467ccc0fb216cd0689c60c01b6113f9565b6000610ee383600001516116bf565b9050610ef967bfc58c9d8e9c74b760c01b6113f9565b610f0d679e58f8bb97a704b560c01b6113f9565b60005b825181101561115c57610f2d670ae3b9f28946ab1660c01b6113f9565b610f41674d79179b2b65b62460c01b6113f9565b81838281518110610f5557610f54611f9c565b5b60200260200101510361113b57610f7667e77d2e3f89e7a42860c01b6113f9565b610f8a67b7842defb9da051d60c01b6113f9565b610f9e671547477c73ca15a160c01b6113f9565b600080821180610fbe5750610fbd67cc01463c19fc8ba960c01b6118db565b5b8015610fda5750610fd967227034a55ba6c0a760c01b6118e2565b5b610fff5783600081518110610ff257610ff1611f9c565b5b6020026020010151611027565b8360018361100d9190611fc8565b8151811061101e5761101d611f9c565b5b60200260200101515b905061103d677185030a1f64e21460c01b6113f9565b6110516778bafd4adda4b1c560c01b6113f9565b6000600185516110619190611fc8565b83108061107e575061107d674f0cebdd4deab5ed60c01b6118db565b5b801561109a575061109967dc67d8968d02c22460c01b6118e2565b5b6110cb5784600186516110ad9190611fc8565b815181106110be576110bd611f9c565b5b60200260200101516110f3565b846001846110d99190611fe6565b815181106110ea576110e9611f9c565b5b60200260200101515b9050611109672e87edf58ed8962a60c01b6113f9565b61111d676973514a8df1a1ba60c01b6113f9565b81881415801561112d5750808814155b15965050505050505061118d565b61114f679ca04a6f8e3f0a1060c01b6113f9565b8080600101915050610f10565b5061117167aa325e51b176b97060c01b6113f9565b611185674634c9165e74839160c01b6113f9565b600093505050505b92915050565b61119b611a49565b6111af678d336dd70b28d88c60c01b6113f9565b6111c3670ef5ff68e8bedddd60c01b6113f9565b6111d76787db0b959c67689d60c01b6113f9565b600080837bffffffffffffffffffffffffffffffffffffffffffffffffffffffff19167bffffffffffffffffffffffffffffffffffffffffffffffffffffffff191681526020019081526020016000206040518060400160405290816000820160009054906101000a900460e01b7bffffffffffffffffffffffffffffffffffffffffffffffffffffffff19167bffffffffffffffffffffffffffffffffffffffffffffffffffffffff19168152602001600182018054806020026020016040519081016040528092919081815260200182805480156112d657602002820191906000526020600020905b8154815260200190600101908083116112c2575b5050505050815250509050919050565b6112ee611372565b600073ffffffffffffffffffffffffffffffffffffffff168173ffffffffffffffffffffffffffffffffffffffff16036113605760006040517f1e4fbdf70000000000000000000000000000000000000000000000000000000081526004016113579190611ba6565b60405180910390fd5b611369816113fc565b50565b60035481565b61137a6118ed565b73ffffffffffffffffffffffffffffffffffffffff166113986108f2565b73ffffffffffffffffffffffffffffffffffffffff16146113f7576113bb6118ed565b6040517f118cdaa70000000000000000000000000000000000000000000000000000000081526004016113ee9190611ba6565b60405180910390fd5b565b50565b60006114066114d3565b905060008160000160009054906101000a900473ffffffffffffffffffffffffffffffffffffffff169050828260000160006101000a81548173ffffffffffffffffffffffffffffffffffffffff021916908373ffffffffffffffffffffffffffffffffffffffff1602179055508273ffffffffffffffffffffffffffffffffffffffff168173ffffffffffffffffffffffffffffffffffffffff167f8be0079c531659141344cd1fd0a4f28419497f9722a3daafe3b4186f6b6457e060405160405180910390a3505050565b60007f9016d09d72d40fdae2fd8ceac6b6234c7706214fd39c1cd1e609a0528c199300905090565b61150f67c79e4b348e6f39f460c01b6113f9565b6115176118f5565b61152b67b4a3fa81ec94c0b760c01b6113f9565b61153f6779af0e9eed62f6a360c01b6113f9565b611553671d2f4cf255f3a3a260c01b6113f9565b6040518060400160405280837bffffffffffffffffffffffffffffffffffffffffffffffffffffffff1916815260200182815250600080857bffffffffffffffffffffffffffffffffffffffffffffffffffffffff19167bffffffffffffffffffffffffffffffffffffffffffffffffffffffff1916815260200190815260200160002060008201518160000160006101000a81548163ffffffff021916908360e01c021790555060208201518160010190805190602001906116179291906119db565b5090505061162f6761754190fdc3bd4b60c01b6113f9565b61164367ff18751ae25d0b5f60c01b6113f9565b7f3665bf9cd0ba4ddceeec259e21dcf8a4510f3b1130bd42e950828e69d85408ba83838360405161167693929190612004565b60405180910390a1505050565b60007ff0c57e16840df040f15088dc2f81fe391c3923bec73e23a9662efc9c229c6a00905090565b6116b36118f5565b6116bc81611935565b50565b60006116d5679e1fb7c1345f6d7560c01b6113f9565b6116e9676a464d35bf2f530e60c01b6113f9565b6116fd67bf3100cc1e8b9dfe60c01b6113f9565b600082604051602401604051602081830303815290604052907bffffffffffffffffffffffffffffffffffffffffffffffffffffffff19166020820180517bffffffffffffffffffffffffffffffffffffffffffffffffffffffff838183161783525050505090506117796796628452cad12c7f60c01b6113f9565b61178d675ab273453a552a6660c01b6113f9565b6000803073ffffffffffffffffffffffffffffffffffffffff16836040516117b59190612070565b600060405180830381855afa9150503d80600081146117f0576040519150601f19603f3d011682016040523d82523d6000602084013e6117f5565b606091505b509150915061180e67ddcfe0b4c19fd84c60c01b6113f9565b61182267a914dc00efc72af160c01b6113f9565b816118815761183b67cc0b2dfba033c08760c01b6113f9565b61184f673b33da3d059e2f5160c01b6113f9565b6040517fbf75613600000000000000000000000000000000000000000000000000000000815260040160405180910390fd5b611895670c45fced65fbfda160c01b6113f9565b6118a96783c55538565e133160c01b6113f9565b6118bd671651102527c6e0d860c01b6113f9565b808060200190518101906118d191906120a9565b9350505050919050565b6000919050565b600060019050919050565b600033905090565b6118fd6119bb565b611933576040517fd7e6bcf800000000000000000000000000000000000000000000000000000000815260040160405180910390fd5b565b61193d6118f5565b600073ffffffffffffffffffffffffffffffffffffffff168173ffffffffffffffffffffffffffffffffffffffff16036119af5760006040517f1e4fbdf70000000000000000000000000000000000000000000000000000000081526004016119a69190611ba6565b60405180910390fd5b6119b8816113fc565b50565b60006119c5611683565b60000160089054906101000a900460ff16905090565b828054828255906000526020600020908101928215611a17579160200282015b82811115611a165782518255916020019190600101906119fb565b5b509050611a249190611a82565b5090565b5080546000825590600052602060002090810190611a469190611a82565b50565b604051806040016040528060007bffffffffffffffffffffffffffffffffffffffffffffffffffffffff19168152602001606081525090565b5b80821115611a9b576000816000905550600101611a83565b5090565b600060208284031215611ab157600080fd5b8135905092915050565b60008135905063ffffffff60e01b81168114611ad657600080fd5b919050565b60008060008060608587031215611af157600080fd5b611afa85611abb565b9350611b0860208601611abb565b9250604085013567ffffffffffffffff80821115611b2557600080fd5b818701915087601f830112611b3957600080fd5b813581811115611b4857600080fd5b8860208260051b8501011115611b5d57600080fd5b60208301945080935050505092959194509250565b600060208201905082825292915050565b600060208284031215611b9557600080fd5b611b9e82611abb565b905092915050565b600060208201905073ffffffffffffffffffffffffffffffffffffffff8316825292915050565b600060208201905063ffffffff60e01b8316825292915050565b634e487b7160e01b600052604160045260246000fd5b60006040519050601f19601f830116810181811067ffffffffffffffff82111715611c2b57611c2a611be7565b5b8060405250919050565b600082601f830112611c4657600080fd5b8135602067ffffffffffffffff821115611c6357611c62611be7565b5b8160051b611c72828201611bfd565b8084825283820191508383880101945087851115611c8f57600080fd5b83870192505b84831015611cb0578235825283820191508383019250611c95565b809550505050505092915050565b600080600060608486031215611cd357600080fd5b611cdc84611abb565b9250611cea60208501611abb565b9150604084013567ffffffffffffffff811115611d0657600080fd5b611d1286828701611c35565b9150509250925092565b60008060008060808587031215611d3257600080fd5b8435935060208501359250604085013567ffffffffffffffff80821115611d5857600080fd5b611d6488838901611c35565b93506060870135915080821115611d7a57600080fd5b50611d8787828801611c35565b91505092959194509250565b60006020808385031215611da657600080fd5b823567ffffffffffffffff80821115611dbe57600080fd5b818501915085601f830112611dd257600080fd5b813581811115611de557611de4611be7565b5b611df784601f19601f84011601611bfd565b91508082528684828501011115611e0d57600080fd5b808484018584013760008482840101525080935050505092915050565b600060208083526060830163ffffffff60e01b85511682850152818501516040808601528181518084526080870191508483019350600092505b80831015611e85578351825284820191508484019350600183019250611e64565b508094505050505092915050565b60008060408385031215611ea657600080fd5b611eaf83611abb565b9150602083013590509250929050565b6000602082019050821515825292915050565b600060208284031215611ee457600080fd5b813573ffffffffffffffffffffffffffffffffffffffff81168114611f0857600080fd5b8091505092915050565b600063ffffffff60e01b8087168352808616602084015250606060408301528260608301527f07ffffffffffffffffffffffffffffffffffffffffffffffffffffffffffffff831115611f6457600080fd5b8260051b8085608085013760808184010191505095945050505050565b600060208201905067ffffffffffffffff8316825292915050565b634e487b7160e01b600052603260045260246000fd5b634e487b7160e01b600052601160045260246000fd5b6000828203905081811115611fe057611fdf611fb2565b5b92915050565b6000828201905080821115611ffe57611ffd611fb2565b5b92915050565b60006060820163ffffffff60e01b80871684526020818716602086015260606040860152829150855180845260808601925060208701935060005b8181101561206057845184528284019350828501945060018101905061203f565b5050508092505050949350505050565b6000825160005b81811015612095576020818601015181850152602081019050612077565b508083019050600081528091505092915050565b6000602082840312156120bb57600080fd5b815190509291505056fea2646970667358221220de9cee94680c3257e6be3a89fa6ff1472321c952fdd409f9affb1285acb4d1cb64736f6c63430008190033",
  "linkReferences": {},
  "deployedLinkReferences": {}
}