{
  "_format": "hh-sol-artifact-1",
  "contractName": "ValueGuards",
  "sourceName": "contracts/ValueGuards.sol",
  "abi": [
    {
      "inputs": [],
      "name": "GetterCallFailed",
      "type": "error"
    },
    {
      "inputs": [],
      "name": "InvalidInitialization",
      "type": "error"
    },
    {
      "inputs": [
        {
          "internalType": "uint256",
          "name": "_newVal",
          "type": "uint256"
        }
      ],
      "name": "NewValueOutOfRange",
      "type": "error"
    },
    {
      "inputs": [],
      "name": "NotInitializing",
      "type": "error"
    },
    {
      "inputs": [
        {
          "internalType": "address",
          "name": "owner",
          "type": "address"
        }
      ],
      "name": "OwnableInvalidOwner",
      "type": "error"
    },
    {
      "inputs": [
        {
          "internalType": "address",
          "name": "account",
          "type": "address"
        }
      ],
      "name": "OwnableUnauthorizedAccount",
      "type": "error"
    },
    {
      "anonymous": false,
      "inputs": [
        {
          "indexed": false,
          "internalType": "uint64",
          "name": "version",
          "type": "uint64"
        }
      ],
      "name": "Initialized",
      "type": "event"
    },
    {
      "anonymous": false,
      "inputs": [
        {
          "indexed": true,
          "internalType": "address",
          "name": "previousOwner",
          "type": "address"
        },
        {
          "indexed": true,
          "internalType": "address",
          "name": "newOwner",
          "type": "address"
        }
      ],
      "name": "OwnershipTransferred",
      "type": "event"
    },
    {
      "anonymous": false,
      "inputs": [
        {
          "indexed": false,
          "internalType": "string",
          "name": "funcSelector",
          "type": "string"
        }
      ],
      "name": "RemoveChangeAbleParameter",
      "type": "event"
    },
    {
      "anonymous": false,
      "inputs": [
        {
          "indexed": false,
          "internalType": "string",
          "name": "setter",
          "type": "string"
        },
        {
          "indexed": false,
          "internalType": "string",
          "name": "getter",
          "type": "string"
        },
        {
          "indexed": false,
          "internalType": "uint256[]",
          "name": "params",
          "type": "uint256[]"
        }
      ],
      "name": "SetChangeAbleParameter",
      "type": "event"
    },
    {
      "inputs": [
        {
          "internalType": "bytes4",
          "name": "",
          "type": "bytes4"
        }
      ],
      "name": "allowedParameterRange",
      "outputs": [
        {
          "internalType": "bytes4",
          "name": "getter",
          "type": "bytes4"
        }
      ],
      "stateMutability": "view",
      "type": "function"
    },
    {
      "inputs": [
        {
          "internalType": "string",
          "name": "_selector",
          "type": "string"
        }
      ],
      "name": "getAllowedParamsRange",
      "outputs": [
        {
          "components": [
            {
              "internalType": "bytes4",
              "name": "getter",
              "type": "bytes4"
            },
            {
              "internalType": "uint256[]",
              "name": "range",
              "type": "uint256[]"
            }
          ],
          "internalType": "struct ValueGuards.ParameterRange",
          "name": "",
          "type": "tuple"
        }
      ],
      "stateMutability": "view",
      "type": "function"
    },
    {
      "inputs": [
        {
          "internalType": "string",
          "name": "setter",
          "type": "string"
        },
        {
          "internalType": "string",
          "name": "getter",
          "type": "string"
        },
        {
          "internalType": "uint256[]",
          "name": "params",
          "type": "uint256[]"
        }
      ],
      "name": "initAllowedChangeableParameter",
      "outputs": [],
      "stateMutability": "nonpayable",
      "type": "function"
    },
    {
      "inputs": [
        {
          "internalType": "bytes4",
          "name": "funcSelector",
          "type": "bytes4"
        },
        {
          "internalType": "uint256",
          "name": "newVal",
          "type": "uint256"
        }
      ],
      "name": "isWithinAllowedRange",
      "outputs": [
        {
          "internalType": "bool",
          "name": "",
          "type": "bool"
        }
      ],
      "stateMutability": "view",
      "type": "function"
    },
    {
      "inputs": [],
      "name": "owner",
      "outputs": [
        {
          "internalType": "address",
          "name": "",
          "type": "address"
        }
      ],
      "stateMutability": "view",
      "type": "function"
    },
    {
      "inputs": [
        {
          "internalType": "string",
          "name": "funcSelector",
          "type": "string"
        }
      ],
      "name": "removeAllowedChangeableParameter",
      "outputs": [],
      "stateMutability": "nonpayable",
      "type": "function"
    },
    {
      "inputs": [],
      "name": "renounceOwnership",
      "outputs": [],
      "stateMutability": "nonpayable",
      "type": "function"
    },
    {
      "inputs": [
        {
          "internalType": "string",
          "name": "setter",
          "type": "string"
        },
        {
          "internalType": "string",
          "name": "getter",
          "type": "string"
        },
        {
          "internalType": "uint256[]",
          "name": "params",
          "type": "uint256[]"
        }
      ],
      "name": "setAllowedChangeableParameter",
      "outputs": [],
      "stateMutability": "nonpayable",
      "type": "function"
    },
    {
      "inputs": [
        {
          "internalType": "address",
          "name": "newOwner",
          "type": "address"
        }
      ],
      "name": "transferOwnership",
      "outputs": [],
      "stateMutability": "nonpayable",
      "type": "function"
    }
  ],
  "bytecode": "0x6080604052348015600f57600080fd5b50610cab8061001f6000396000f3fe608060405234801561001057600080fd5b50600436106100a35760003560e01c80639228363411610076578063b710c15d1161005b578063b710c15d14610166578063ba08d23714610186578063f2fde38b146101a957600080fd5b806392283634146101175780639b9fb6d01461015357600080fd5b806336e98ca8146100a85780635cb092a2146100bd578063715018a6146100d05780638da5cb5b146100d8575b600080fd5b6100bb6100b6366004610901565b6101bc565b005b6100bb6100cb366004610901565b610270565b6100bb610278565b7f9016d09d72d40fdae2fd8ceac6b6234c7706214fd39c1cd1e609a0528c199300546040516001600160a01b0390911681526020015b60405180910390f35b61013a610125366004610a0b565b60006020819052908152604090205460e01b81565b6040516001600160e01b0319909116815260200161010e565b6100bb610161366004610a2d565b61028c565b610179610174366004610a2d565b61030b565b60405161010e9190610a6a565b610199610194366004610acc565b6103b3565b604051901515815260200161010e565b6100bb6101b7366004610af6565b610584565b6101c46105c7565b60408051808201825283516020808601919091206001600160e01b031990811683528183018581528751888401209091166000908152808352939093208251815463ffffffff191660e09190911c1781559251805192939261022c92600185019201906107d0565b509050507f3d45a310c5a076ea07aa2947ca3c06cc2a8b3571065867ad6f8e7096a2c9d50a83838360405161026393929190610b6f565b60405180910390a1505050565b6101c4610622565b6102806105c7565b61028a6000610670565b565b6102946105c7565b80516020808301919091206001600160e01b03191660009081529081905260408120805463ffffffff19168155906102cf600183018261081b565b50507f92d44565a40fe29702ffa146ddaa3bb133d4077f5312d682d0a2632a9bc73a8a816040516103009190610bdb565b60405180910390a150565b60408051808201909152600081526060602082015281516020808401919091206001600160e01b0319908116600090815280835260409081902081518083018352815460e01b90931683526001810180548351818702810187019094528084529394919385830193928301828280156103a357602002820191906000526020600020905b81548152602001906001019080831161038f575b5050505050815250509050919050565b6001600160e01b031980831660009081526020818152604080832081518083018352815460e01b90951685526001810180548351818602810186019094528084529495869590949293858401939092919083018282801561043357602002820191906000526020600020905b81548152602001906001019080831161041f575b505050505081525050905080602001515160000361045557600091505061057e565b60208101518151600090610468906106f9565b905060005b8251811015610575578183828151811061048957610489610bee565b60200260200101510361056d5760008082116104bf57836000815181106104b2576104b2610bee565b60200260200101516104e4565b836104cb600184610c1a565b815181106104db576104db610bee565b60200260200101515b90506000600185516104f69190610c1a565b831061052857846001865161050b9190610c1a565b8151811061051b5761051b610bee565b602002602001015161054d565b84610534846001610c2d565b8151811061054457610544610bee565b60200260200101515b905081881415801561055f5750808814155b15965050505050505061057e565b60010161046d565b50600093505050505b92915050565b61058c6105c7565b6001600160a01b0381166105bb57604051631e4fbdf760e01b8152600060048201526024015b60405180910390fd5b6105c481610670565b50565b336105f97f9016d09d72d40fdae2fd8ceac6b6234c7706214fd39c1cd1e609a0528c199300546001600160a01b031690565b6001600160a01b03161461028a5760405163118cdaa760e01b81523360048201526024016105b2565b7ff0c57e16840df040f15088dc2f81fe391c3923bec73e23a9662efc9c229c6a005468010000000000000000900460ff1661028a57604051631afcd79f60e31b815260040160405180910390fd5b7f9016d09d72d40fdae2fd8ceac6b6234c7706214fd39c1cd1e609a0528c19930080547fffffffffffffffffffffffff000000000000000000000000000000000000000081166001600160a01b03848116918217845560405192169182907f8be0079c531659141344cd1fd0a4f28419497f9722a3daafe3b4186f6b6457e090600090a3505050565b60408051600481526024810182526020810180517bffffffffffffffffffffffffffffffffffffffffffffffffffffffff166001600160e01b03198516179052905160009190829081903090610750908590610c40565b600060405180830381855afa9150503d806000811461078b576040519150601f19603f3d011682016040523d82523d6000602084013e610790565b606091505b5091509150816107b357604051635fbab09b60e11b815260040160405180910390fd5b808060200190518101906107c79190610c5c565b95945050505050565b82805482825590600052602060002090810192821561080b579160200282015b8281111561080b5782518255916020019190600101906107f0565b50610817929150610835565b5090565b50805460008255906000526020600020908101906105c491905b5b808211156108175760008155600101610836565b634e487b7160e01b600052604160045260246000fd5b604051601f8201601f1916810167ffffffffffffffff811182821017156108895761088961084a565b604052919050565b600082601f8301126108a257600080fd5b813567ffffffffffffffff8111156108bc576108bc61084a565b6108cf601f8201601f1916602001610860565b8181528460208386010111156108e457600080fd5b816020850160208301376000918101602001919091529392505050565b60008060006060848603121561091657600080fd5b833567ffffffffffffffff8082111561092e57600080fd5b61093a87838801610891565b945060209150818601358181111561095157600080fd5b61095d88828901610891565b94505060408601358181111561097257600080fd5b8601601f8101881361098357600080fd5b8035828111156109955761099561084a565b8060051b92506109a6848401610860565b818152928201840192848101908a8511156109c057600080fd5b928501925b848410156109de578335825292850192908501906109c5565b8096505050505050509250925092565b80356001600160e01b031981168114610a0657600080fd5b919050565b600060208284031215610a1d57600080fd5b610a26826109ee565b9392505050565b600060208284031215610a3f57600080fd5b813567ffffffffffffffff811115610a5657600080fd5b610a6284828501610891565b949350505050565b602080825282516001600160e01b031916828201528281015160408084015280516060840181905260009291820190839060808601905b80831015610ac15783518252928401926001929092019190840190610aa1565b509695505050505050565b60008060408385031215610adf57600080fd5b610ae8836109ee565b946020939093013593505050565b600060208284031215610b0857600080fd5b81356001600160a01b0381168114610a2657600080fd5b60005b83811015610b3a578181015183820152602001610b22565b50506000910152565b60008151808452610b5b816020860160208601610b1f565b601f01601f19169290920160200192915050565b606081526000610b826060830186610b43565b60208382036020850152610b968287610b43565b84810360408601528551808252602080880194509091019060005b81811015610bcd57845183529383019391830191600101610bb1565b509098975050505050505050565b602081526000610a266020830184610b43565b634e487b7160e01b600052603260045260246000fd5b634e487b7160e01b600052601160045260246000fd5b8181038181111561057e5761057e610c04565b8082018082111561057e5761057e610c04565b60008251610c52818460208701610b1f565b9190910192915050565b600060208284031215610c6e57600080fd5b505191905056fea264697066735822122041e305196f696d03f434a55e108a2a18becde3ffc3aa647a2cacdfc6f71009c264736f6c63430008190033",
  "linkReferences": {},
  "deployedLinkReferences": {}
}