{
  "_format": "hh-sol-artifact-1",
  "contractName": "WowUSDT",
  "sourceName": "contracts/WOWUsdt.sol",
  "abi": [
    {
      "inputs": [],
      "stateMutability": "nonpayable",
      "type": "constructor"
    },
    {
      "inputs": [
        {
          "internalType": "address",
          "name": "spender",
          "type": "address"
        },
        {
          "internalType": "uint256",
          "name": "allowance",
          "type": "uint256"
        },
        {
          "internalType": "uint256",
          "name": "needed",
          "type": "uint256"
        }
      ],
      "name": "ERC20InsufficientAllowance",
      "type": "error"
    },
    {
      "inputs": [
        {
          "internalType": "address",
          "name": "sender",
          "type": "address"
        },
        {
          "internalType": "uint256",
          "name": "balance",
          "type": "uint256"
        },
        {
          "internalType": "uint256",
          "name": "needed",
          "type": "uint256"
        }
      ],
      "name": "ERC20InsufficientBalance",
      "type": "error"
    },
    {
      "inputs": [
        {
          "internalType": "address",
          "name": "approver",
          "type": "address"
        }
      ],
      "name": "ERC20InvalidApprover",
      "type": "error"
    },
    {
      "inputs": [
        {
          "internalType": "address",
          "name": "receiver",
          "type": "address"
        }
      ],
      "name": "ERC20InvalidReceiver",
      "type": "error"
    },
    {
      "inputs": [
        {
          "internalType": "address",
          "name": "sender",
          "type": "address"
        }
      ],
      "name": "ERC20InvalidSender",
      "type": "error"
    },
    {
      "inputs": [
        {
          "internalType": "address",
          "name": "spender",
          "type": "address"
        }
      ],
      "name": "ERC20InvalidSpender",
      "type": "error"
    },
    {
      "inputs": [],
      "name": "EnforcedPause",
      "type": "error"
    },
    {
      "inputs": [],
      "name": "ExpectedPause",
      "type": "error"
    },
    {
      "inputs": [],
      "name": "InvalidInitialization",
      "type": "error"
    },
    {
      "inputs": [],
      "name": "NotInitializing",
      "type": "error"
    },
    {
      "inputs": [
        {
          "internalType": "address",
          "name": "owner",
          "type": "address"
        }
      ],
      "name": "OwnableInvalidOwner",
      "type": "error"
    },
    {
      "inputs": [
        {
          "internalType": "address",
          "name": "account",
          "type": "address"
        }
      ],
      "name": "OwnableUnauthorizedAccount",
      "type": "error"
    },
    {
      "inputs": [],
      "name": "ReentrancyGuardReentrantCall",
      "type": "error"
    },
    {
      "anonymous": false,
      "inputs": [
        {
          "indexed": true,
          "internalType": "address",
          "name": "owner",
          "type": "address"
        },
        {
          "indexed": true,
          "internalType": "address",
          "name": "spender",
          "type": "address"
        },
        {
          "indexed": false,
          "internalType": "uint256",
          "name": "value",
          "type": "uint256"
        }
      ],
      "name": "Approval",
      "type": "event"
    },
    {
      "anonymous": false,
      "inputs": [
        {
          "indexed": false,
          "internalType": "address",
          "name": "user",
          "type": "address"
        },
        {
          "indexed": false,
          "internalType": "uint256",
          "name": "value",
          "type": "uint256"
        },
        {
          "indexed": false,
          "internalType": "uint256",
          "name": "targetChainId",
          "type": "uint256"
        },
        {
          "indexed": false,
          "internalType": "uint256",
          "name": "depositId",
          "type": "uint256"
        },
        {
          "indexed": false,
          "internalType": "uint256",
          "name": "depositedAt",
          "type": "uint256"
        }
      ],
      "name": "Deposited",
      "type": "event"
    },
    {
      "anonymous": false,
      "inputs": [
        {
          "indexed": false,
          "internalType": "uint64",
          "name": "version",
          "type": "uint64"
        }
      ],
      "name": "Initialized",
      "type": "event"
    },
    {
      "anonymous": false,
      "inputs": [
        {
          "indexed": true,
          "internalType": "address",
          "name": "previousOwner",
          "type": "address"
        },
        {
          "indexed": true,
          "internalType": "address",
          "name": "newOwner",
          "type": "address"
        }
      ],
      "name": "OwnershipTransferred",
      "type": "event"
    },
    {
      "anonymous": false,
      "inputs": [
        {
          "indexed": false,
          "internalType": "address",
          "name": "account",
          "type": "address"
        }
      ],
      "name": "Paused",
      "type": "event"
    },
    {
      "anonymous": false,
      "inputs": [
        {
          "indexed": true,
          "internalType": "address",
          "name": "from",
          "type": "address"
        },
        {
          "indexed": true,
          "internalType": "address",
          "name": "to",
          "type": "address"
        },
        {
          "indexed": false,
          "internalType": "uint256",
          "name": "value",
          "type": "uint256"
        }
      ],
      "name": "Transfer",
      "type": "event"
    },
    {
      "anonymous": false,
      "inputs": [
        {
          "indexed": false,
          "internalType": "address",
          "name": "account",
          "type": "address"
        }
      ],
      "name": "Unpaused",
      "type": "event"
    },
    {
      "inputs": [
        {
          "internalType": "address",
          "name": "owner",
          "type": "address"
        },
        {
          "internalType": "address",
          "name": "spender",
          "type": "address"
        }
      ],
      "name": "allowance",
      "outputs": [
        {
          "internalType": "uint256",
          "name": "",
          "type": "uint256"
        }
      ],
      "stateMutability": "view",
      "type": "function"
    },
    {
      "inputs": [
        {
          "internalType": "address",
          "name": "spender",
          "type": "address"
        },
        {
          "internalType": "uint256",
          "name": "value",
          "type": "uint256"
        }
      ],
      "name": "approve",
      "outputs": [
        {
          "internalType": "bool",
          "name": "",
          "type": "bool"
        }
      ],
      "stateMutability": "nonpayable",
      "type": "function"
    },
    {
      "inputs": [
        {
          "internalType": "address",
          "name": "account",
          "type": "address"
        }
      ],
      "name": "balanceOf",
      "outputs": [
        {
          "internalType": "uint256",
          "name": "",
          "type": "uint256"
        }
      ],
      "stateMutability": "view",
      "type": "function"
    },
    {
      "inputs": [
        {
          "internalType": "uint256",
          "name": "amount",
          "type": "uint256"
        }
      ],
      "name": "burn",
      "outputs": [],
      "stateMutability": "nonpayable",
      "type": "function"
    },
    {
      "inputs": [
        {
          "internalType": "address",
          "name": "account",
          "type": "address"
        },
        {
          "internalType": "uint256",
          "name": "value",
          "type": "uint256"
        }
      ],
      "name": "burnFrom",
      "outputs": [],
      "stateMutability": "nonpayable",
      "type": "function"
    },
    {
      "inputs": [
        {
          "internalType": "uint256",
          "name": "chainId",
          "type": "uint256"
        },
        {
          "internalType": "bool",
          "name": "allowed",
          "type": "bool"
        }
      ],
      "name": "changeChainSupport",
      "outputs": [],
      "stateMutability": "nonpayable",
      "type": "function"
    },
    {
      "inputs": [],
      "name": "decimals",
      "outputs": [
        {
          "internalType": "uint8",
          "name": "",
          "type": "uint8"
        }
      ],
      "stateMutability": "view",
      "type": "function"
    },
    {
      "inputs": [
        {
          "internalType": "uint256",
          "name": "targetChainId",
          "type": "uint256"
        },
        {
          "internalType": "uint256",
          "name": "value",
          "type": "uint256"
        }
      ],
      "name": "deposit",
      "outputs": [],
      "stateMutability": "nonpayable",
      "type": "function"
    },
    {
      "inputs": [
        {
          "internalType": "uint256",
          "name": "",
          "type": "uint256"
        }
      ],
      "name": "depositId",
      "outputs": [
        {
          "internalType": "uint256",
          "name": "",
          "type": "uint256"
        }
      ],
      "stateMutability": "view",
      "type": "function"
    },
    {
      "inputs": [
        {
          "internalType": "address",
          "name": "_to",
          "type": "address"
        }
      ],
      "name": "emergencyWithdraw",
      "outputs": [],
      "stateMutability": "nonpayable",
      "type": "function"
    },
    {
      "inputs": [
        {
          "internalType": "address",
          "name": "initialOwner",
          "type": "address"
        },
        {
          "internalType": "uint256",
          "name": "chainId",
          "type": "uint256"
        }
      ],
      "name": "initialize",
      "outputs": [],
      "stateMutability": "nonpayable",
      "type": "function"
    },
    {
      "inputs": [
        {
          "internalType": "address",
          "name": "to",
          "type": "address"
        },
        {
          "internalType": "uint256",
          "name": "amount",
          "type": "uint256"
        }
      ],
      "name": "mint",
      "outputs": [],
      "stateMutability": "nonpayable",
      "type": "function"
    },
    {
      "inputs": [],
      "name": "name",
      "outputs": [
        {
          "internalType": "string",
          "name": "",
          "type": "string"
        }
      ],
      "stateMutability": "view",
      "type": "function"
    },
    {
      "inputs": [],
      "name": "owner",
      "outputs": [
        {
          "internalType": "address",
          "name": "",
          "type": "address"
        }
      ],
      "stateMutability": "view",
      "type": "function"
    },
    {
      "inputs": [],
      "name": "pause",
      "outputs": [],
      "stateMutability": "nonpayable",
      "type": "function"
    },
    {
      "inputs": [],
      "name": "paused",
      "outputs": [
        {
          "internalType": "bool",
          "name": "",
          "type": "bool"
        }
      ],
      "stateMutability": "view",
      "type": "function"
    },
    {
      "inputs": [],
      "name": "renounceOwnership",
      "outputs": [],
      "stateMutability": "nonpayable",
      "type": "function"
    },
    {
      "inputs": [
        {
          "internalType": "uint256",
          "name": "",
          "type": "uint256"
        }
      ],
      "name": "supportedChains",
      "outputs": [
        {
          "internalType": "bool",
          "name": "",
          "type": "bool"
        }
      ],
      "stateMutability": "view",
      "type": "function"
    },
    {
      "inputs": [],
      "name": "symbol",
      "outputs": [
        {
          "internalType": "string",
          "name": "",
          "type": "string"
        }
      ],
      "stateMutability": "view",
      "type": "function"
    },
    {
      "inputs": [],
      "name": "totalSupply",
      "outputs": [
        {
          "internalType": "uint256",
          "name": "",
          "type": "uint256"
        }
      ],
      "stateMutability": "view",
      "type": "function"
    },
    {
      "inputs": [
        {
          "internalType": "address",
          "name": "to",
          "type": "address"
        },
        {
          "internalType": "uint256",
          "name": "value",
          "type": "uint256"
        }
      ],
      "name": "transfer",
      "outputs": [
        {
          "internalType": "bool",
          "name": "",
          "type": "bool"
        }
      ],
      "stateMutability": "nonpayable",
      "type": "function"
    },
    {
      "inputs": [
        {
          "internalType": "address",
          "name": "from",
          "type": "address"
        },
        {
          "internalType": "address",
          "name": "to",
          "type": "address"
        },
        {
          "internalType": "uint256",
          "name": "value",
          "type": "uint256"
        }
      ],
      "name": "transferFrom",
      "outputs": [
        {
          "internalType": "bool",
          "name": "",
          "type": "bool"
        }
      ],
      "stateMutability": "nonpayable",
      "type": "function"
    },
    {
      "inputs": [
        {
          "internalType": "address",
          "name": "newOwner",
          "type": "address"
        }
      ],
      "name": "transferOwnership",
      "outputs": [],
      "stateMutability": "nonpayable",
      "type": "function"
    },
    {
      "inputs": [],
      "name": "unpause",
      "outputs": [],
      "stateMutability": "nonpayable",
      "type": "function"
    }
  ],
  "bytecode": "0x6080604052348015600f57600080fd5b506016601a565b60ca565b7ff0c57e16840df040f15088dc2f81fe391c3923bec73e23a9662efc9c229c6a00805468010000000000000000900460ff161560695760405163f92ee8a960e01b815260040160405180910390fd5b80546001600160401b039081161460c75780546001600160401b0319166001600160401b0390811782556040519081527fc7f505b2f371ae2175ee4913f4499e1f2633a7b5936321eed1cdaeb6115181d29060200160405180910390a15b50565b6115fe806100d96000396000f3fe608060405234801561001057600080fd5b50600436106101985760003560e01c8063715018a6116100e3578063a9059cbb1161008c578063dd62ed3e11610066578063dd62ed3e146103c5578063e2bbb1581461041d578063f2fde38b1461043057600080fd5b8063a9059cbb1461037f578063cd6dc68714610392578063dc251edf146103a557600080fd5b80638c60db4d116100bd5780638c60db4d1461032a5780638da5cb5b1461033d57806395d89b411461037757600080fd5b8063715018a61461030757806379cc67901461030f5780638456cb591461032257600080fd5b806340c10f19116101455780635c975abb1161011f5780635c975abb146102825780636ff1c9bc146102ac57806370a08231146102bf57600080fd5b806340c10f191461023b57806342966c681461024e578063548d496f1461025f57600080fd5b806323b872dd1161017657806323b872dd1461020f578063313ce567146102225780633f4ba83a1461023157600080fd5b806306fdde031461019d578063095ea7b3146101bb57806318160ddd146101de575b600080fd5b6101a5610443565b6040516101b29190611251565b60405180910390f35b6101ce6101c93660046112bc565b610518565b60405190151581526020016101b2565b7f52c63247e1f47db19d5ce0460030c497f067ca4cebf71ba98eeadabe20bace02545b6040519081526020016101b2565b6101ce61021d3660046112e6565b610532565b604051601281526020016101b2565b610239610556565b005b6102396102493660046112bc565b610568565b61023961025c366004611322565b50565b6101ce61026d366004611322565b60016020526000908152604090205460ff1681565b7fcd5ed15c6e187e77e9aee88184c21f4f2182ab5827cb3b7e07fbedcd63f033005460ff166101ce565b6102396102ba36600461133b565b61057e565b6102016102cd36600461133b565b6001600160a01b031660009081527f52c63247e1f47db19d5ce0460030c497f067ca4cebf71ba98eeadabe20bace00602052604090205490565b610239610706565b61023961031d3660046112bc565b610718565b61023961072a565b61023961033836600461136b565b61073a565b7f9016d09d72d40fdae2fd8ceac6b6234c7706214fd39c1cd1e609a0528c199300546040516001600160a01b0390911681526020016101b2565b6101a5610762565b6101ce61038d3660046112bc565b6107b3565b6102396103a03660046112bc565b6107c1565b6102016103b3366004611322565b60006020819052908152604090205481565b6102016103d336600461139b565b6001600160a01b0391821660009081527f52c63247e1f47db19d5ce0460030c497f067ca4cebf71ba98eeadabe20bace016020908152604080832093909416825291909152205490565b61023961042b3660046113ce565b610986565b61023961043e36600461133b565b610a97565b7f52c63247e1f47db19d5ce0460030c497f067ca4cebf71ba98eeadabe20bace0380546060917f52c63247e1f47db19d5ce0460030c497f067ca4cebf71ba98eeadabe20bace0091610494906113f0565b80601f01602080910402602001604051908101604052809291908181526020018280546104c0906113f0565b801561050d5780601f106104e25761010080835404028352916020019161050d565b820191906000526020600020905b8154815290600101906020018083116104f057829003601f168201915b505050505091505090565b600033610526818585610ad2565b60019150505b92915050565b600033610540858285610adf565b61054b858585610b7c565b506001949350505050565b61055e610bdb565b610566610c36565b565b610570610bdb565b61057a8282610ca8565b5050565b610586610bdb565b6040516370a0823160e01b815230600482018190529060009082906370a0823190602401602060405180830381865afa1580156105c7573d6000803e3d6000fd5b505050506040513d601f19601f820116820180604052508101906105eb919061142a565b9050600081116106425760405162461bcd60e51b815260206004820152601560248201527f4e6f20746f6b656e7320746f207769746864726177000000000000000000000060448201526064015b60405180910390fd5b60405163a9059cbb60e01b81526001600160a01b0384811660048301526024820183905283169063a9059cbb906044016020604051808303816000875af1158015610691573d6000803e3d6000fd5b505050506040513d601f19601f820116820180604052508101906106b59190611443565b6107015760405162461bcd60e51b815260206004820152600f60248201527f5472616e73666572206661696c656400000000000000000000000000000000006044820152606401610639565b505050565b61070e610bdb565b6105666000610cde565b610720610bdb565b61057a8282610d67565b610732610bdb565b610566610d9d565b610742610bdb565b600091825260016020526040909120805460ff1916911515919091179055565b7f52c63247e1f47db19d5ce0460030c497f067ca4cebf71ba98eeadabe20bace0480546060917f52c63247e1f47db19d5ce0460030c497f067ca4cebf71ba98eeadabe20bace0091610494906113f0565b600033610526818585610b7c565b7ff0c57e16840df040f15088dc2f81fe391c3923bec73e23a9662efc9c229c6a00805468010000000000000000810460ff16159067ffffffffffffffff1660008115801561080c5750825b905060008267ffffffffffffffff1660011480156108295750303b155b905081158015610837575080155b156108555760405163f92ee8a960e01b815260040160405180910390fd5b845467ffffffffffffffff19166001178555831561088957845468ff00000000000000001916680100000000000000001785555b6108fd6040518060400160405280600881526020017f576f7720555344540000000000000000000000000000000000000000000000008152506040518060400160405280600581526020017f5755534454000000000000000000000000000000000000000000000000000000815250610df8565b610905610e0a565b61090d610e12565b61091687610e22565b6000868152600160208190526040909120805460ff19169091179055831561097d57845468ff000000000000000019168555604051600181527fc7f505b2f371ae2175ee4913f4499e1f2633a7b5936321eed1cdaeb6115181d29060200160405180910390a15b50505050505050565b61098e610e33565b60008281526001602052604090205460ff166109ec5760405162461bcd60e51b815260206004820152601660248201527f636861696e206973206e6f7420737570706f72746564000000000000000000006044820152606401610639565b6109f63382610d67565b6000828152602081905260408120805491610a1083611476565b909155505060008281526020818152604091829020548251338152918201849052818301859052606082015242608082015290517fe3b53cd1a44fbf11535e145d80b8ef1ed6d57a73bf5daa7e939b6b01657d65499181900360a00190a161057a60017f9b779b17422d0df92223018b32b4d1fa46e071723d6817e2486d003becc55f0055565b610a9f610bdb565b6001600160a01b038116610ac957604051631e4fbdf760e01b815260006004820152602401610639565b61025c81610cde565b6107018383836001610e7d565b6001600160a01b0383811660009081527f52c63247e1f47db19d5ce0460030c497f067ca4cebf71ba98eeadabe20bace0160209081526040808320938616835292905220546000198114610b765781811015610b6757604051637dc7a0d960e11b81526001600160a01b03841660048201526024810182905260448101839052606401610639565b610b7684848484036000610e7d565b50505050565b6001600160a01b038316610ba657604051634b637e8f60e11b815260006004820152602401610639565b6001600160a01b038216610bd05760405163ec442f0560e01b815260006004820152602401610639565b610701838383610f77565b33610c0d7f9016d09d72d40fdae2fd8ceac6b6234c7706214fd39c1cd1e609a0528c199300546001600160a01b031690565b6001600160a01b0316146105665760405163118cdaa760e01b8152336004820152602401610639565b610c3e610f82565b7fcd5ed15c6e187e77e9aee88184c21f4f2182ab5827cb3b7e07fbedcd63f03300805460ff191681557f5db9ee0a495bf2e6ff9c91a7834c1ba4fdd244a5e8aa4e537bd38aeae4b073aa335b6040516001600160a01b03909116815260200160405180910390a150565b6001600160a01b038216610cd25760405163ec442f0560e01b815260006004820152602401610639565b61057a60008383610f77565b7f9016d09d72d40fdae2fd8ceac6b6234c7706214fd39c1cd1e609a0528c19930080547fffffffffffffffffffffffff000000000000000000000000000000000000000081166001600160a01b03848116918217845560405192169182907f8be0079c531659141344cd1fd0a4f28419497f9722a3daafe3b4186f6b6457e090600090a3505050565b6001600160a01b038216610d9157604051634b637e8f60e11b815260006004820152602401610639565b61057a82600083610f77565b610da5610fc4565b7fcd5ed15c6e187e77e9aee88184c21f4f2182ab5827cb3b7e07fbedcd63f03300805460ff191660011781557f62e78cea01bee320cd4e420270b5ea74000d11b0c9f74754ebdbfc544b05a25833610c8a565b610e00611007565b61057a8282611055565b610566611007565b610e1a611007565b6105666110b8565b610e2a611007565b61025c816110eb565b7f9b779b17422d0df92223018b32b4d1fa46e071723d6817e2486d003becc55f00805460011901610e7757604051633ee5aeb560e01b815260040160405180910390fd5b60029055565b7f52c63247e1f47db19d5ce0460030c497f067ca4cebf71ba98eeadabe20bace006001600160a01b038516610ec85760405163e602df0560e01b815260006004820152602401610639565b6001600160a01b038416610ef257604051634a1406b160e11b815260006004820152602401610639565b6001600160a01b03808616600090815260018301602090815260408083209388168352929052208390558115610f7057836001600160a01b0316856001600160a01b03167f8c5be1e5ebec7d5bd14f71427d1e84f3dd0314c0f7b2291e5b200ac8c7c3b92585604051610f6791815260200190565b60405180910390a35b5050505050565b6107018383836110f3565b7fcd5ed15c6e187e77e9aee88184c21f4f2182ab5827cb3b7e07fbedcd63f033005460ff1661056657604051638dfc202b60e01b815260040160405180910390fd5b7fcd5ed15c6e187e77e9aee88184c21f4f2182ab5827cb3b7e07fbedcd63f033005460ff16156105665760405163d93c066560e01b815260040160405180910390fd5b7ff0c57e16840df040f15088dc2f81fe391c3923bec73e23a9662efc9c229c6a005468010000000000000000900460ff1661056657604051631afcd79f60e31b815260040160405180910390fd5b61105d611007565b7f52c63247e1f47db19d5ce0460030c497f067ca4cebf71ba98eeadabe20bace007f52c63247e1f47db19d5ce0460030c497f067ca4cebf71ba98eeadabe20bace036110a984826114f5565b5060048101610b7683826114f5565b6110c0611007565b7fcd5ed15c6e187e77e9aee88184c21f4f2182ab5827cb3b7e07fbedcd63f03300805460ff19169055565b610a9f611007565b6110fb610fc4565b6107018383837f52c63247e1f47db19d5ce0460030c497f067ca4cebf71ba98eeadabe20bace006001600160a01b03841661114f578181600201600082825461114491906115b5565b909155506111c19050565b6001600160a01b038416600090815260208290526040902054828110156111a25760405163391434e360e21b81526001600160a01b03861660048201526024810182905260448101849052606401610639565b6001600160a01b03851660009081526020839052604090209083900390555b6001600160a01b0383166111df5760028101805483900390556111fe565b6001600160a01b03831660009081526020829052604090208054830190555b826001600160a01b0316846001600160a01b03167fddf252ad1be2c89b69c2b068fc378daa952ba7f163c4a11628f55a4df523b3ef8460405161124391815260200190565b60405180910390a350505050565b60006020808352835180602085015260005b8181101561127f57858101830151858201604001528201611263565b506000604082860101526040601f19601f8301168501019250505092915050565b80356001600160a01b03811681146112b757600080fd5b919050565b600080604083850312156112cf57600080fd5b6112d8836112a0565b946020939093013593505050565b6000806000606084860312156112fb57600080fd5b611304846112a0565b9250611312602085016112a0565b9150604084013590509250925092565b60006020828403121561133457600080fd5b5035919050565b60006020828403121561134d57600080fd5b611356826112a0565b9392505050565b801515811461025c57600080fd5b6000806040838503121561137e57600080fd5b8235915060208301356113908161135d565b809150509250929050565b600080604083850312156113ae57600080fd5b6113b7836112a0565b91506113c5602084016112a0565b90509250929050565b600080604083850312156113e157600080fd5b50508035926020909101359150565b600181811c9082168061140457607f821691505b60208210810361142457634e487b7160e01b600052602260045260246000fd5b50919050565b60006020828403121561143c57600080fd5b5051919050565b60006020828403121561145557600080fd5b81516113568161135d565b634e487b7160e01b600052601160045260246000fd5b60006001820161148857611488611460565b5060010190565b634e487b7160e01b600052604160045260246000fd5b601f821115610701576000816000526020600020601f850160051c810160208610156114ce5750805b601f850160051c820191505b818110156114ed578281556001016114da565b505050505050565b815167ffffffffffffffff81111561150f5761150f61148f565b6115238161151d84546113f0565b846114a5565b602080601f83116001811461155857600084156115405750858301515b600019600386901b1c1916600185901b1785556114ed565b600085815260208120601f198616915b8281101561158757888601518255948401946001909101908401611568565b50858210156115a55787850151600019600388901b60f8161c191681555b5050505050600190811b01905550565b8082018082111561052c5761052c61146056fea26469706673582212204a11b5eee7cbc543158fc5e2920b350102ddd2c771e17e0a35b0bca8568a4fec64736f6c63430008190033",
  "linkReferences": {},
  "deployedLinkReferences": {}
}