{
  "_format": "hh-sol-artifact-1",
  "contractName": "BlockRewardHbbft",
  "sourceName": "contracts/BlockRewardHbbft.sol",
  "abi": [
    {
      "anonymous": false,
      "inputs": [
        {
          "indexed": false,
          "internalType": "uint256",
          "name": "rewards",
          "type": "uint256"
        }
      ],
      "name": "CoinsRewarded",
      "type": "event"
    },
    {
      "inputs": [],
      "name": "REWARD_PERCENT_MULTIPLIER",
      "outputs": [
        {
          "internalType": "uint256",
          "name": "",
          "type": "uint256"
        }
      ],
      "stateMutability": "view",
      "type": "function"
    },
    {
      "inputs": [],
      "name": "VALIDATOR_MIN_REWARD_PERCENT",
      "outputs": [
        {
          "internalType": "uint256",
          "name": "",
          "type": "uint256"
        }
      ],
      "stateMutability": "view",
      "type": "function"
    },
    {
      "inputs": [],
      "name": "addToDeltaPot",
      "outputs": [],
      "stateMutability": "payable",
      "type": "function"
    },
    {
      "inputs": [],
      "name": "addToReinsertPot",
      "outputs": [],
      "stateMutability": "payable",
      "type": "function"
    },
    {
      "inputs": [
        {
          "internalType": "uint256",
          "name": "_stakingEpoch",
          "type": "uint256"
        },
        {
          "internalType": "uint256",
          "name": "_delegatorStaked",
          "type": "uint256"
        },
        {
          "internalType": "uint256",
          "name": "_validatorStaked",
          "type": "uint256"
        },
        {
          "internalType": "uint256",
          "name": "_totalStaked",
          "type": "uint256"
        },
        {
          "internalType": "uint256",
          "name": "_poolReward",
          "type": "uint256"
        }
      ],
      "name": "delegatorShare",
      "outputs": [
        {
          "internalType": "uint256",
          "name": "",
          "type": "uint256"
        }
      ],
      "stateMutability": "view",
      "type": "function"
    },
    {
      "inputs": [],
      "name": "deltaPot",
      "outputs": [
        {
          "internalType": "uint256",
          "name": "",
          "type": "uint256"
        }
      ],
      "stateMutability": "view",
      "type": "function"
    },
    {
      "inputs": [],
      "name": "deltaPotPayoutFraction",
      "outputs": [
        {
          "internalType": "uint256",
          "name": "",
          "type": "uint256"
        }
      ],
      "stateMutability": "view",
      "type": "function"
    },
    {
      "inputs": [],
      "name": "epochPercentage",
      "outputs": [
        {
          "internalType": "uint256",
          "name": "",
          "type": "uint256"
        }
      ],
      "stateMutability": "view",
      "type": "function"
    },
    {
      "inputs": [
        {
          "internalType": "uint256",
          "name": "",
          "type": "uint256"
        },
        {
          "internalType": "address",
          "name": "",
          "type": "address"
        }
      ],
      "name": "epochPoolNativeReward",
      "outputs": [
        {
          "internalType": "uint256",
          "name": "",
          "type": "uint256"
        }
      ],
      "stateMutability": "view",
      "type": "function"
    },
    {
      "inputs": [
        {
          "internalType": "address",
          "name": "_miningAddress",
          "type": "address"
        }
      ],
      "name": "epochsPoolGotRewardFor",
      "outputs": [
        {
          "internalType": "uint256[]",
          "name": "",
          "type": "uint256[]"
        }
      ],
      "stateMutability": "view",
      "type": "function"
    },
    {
      "inputs": [
        {
          "internalType": "address",
          "name": "_poolStakingAddress",
          "type": "address"
        },
        {
          "internalType": "address",
          "name": "_staker",
          "type": "address"
        }
      ],
      "name": "epochsToClaimRewardFrom",
      "outputs": [
        {
          "internalType": "uint256[]",
          "name": "epochsToClaimFrom",
          "type": "uint256[]"
        }
      ],
      "stateMutability": "view",
      "type": "function"
    },
    {
      "inputs": [
        {
          "internalType": "uint256",
          "name": "_delegatorStake",
          "type": "uint256"
        },
        {
          "internalType": "uint256",
          "name": "_stakingEpoch",
          "type": "uint256"
        },
        {
          "internalType": "address",
          "name": "_poolMiningAddress",
          "type": "address"
        }
      ],
      "name": "getDelegatorReward",
      "outputs": [
        {
          "internalType": "uint256",
          "name": "nativeReward",
          "type": "uint256"
        }
      ],
      "stateMutability": "view",
      "type": "function"
    },
    {
      "inputs": [
        {
          "internalType": "uint256",
          "name": "_stakingEpoch",
          "type": "uint256"
        },
        {
          "internalType": "address",
          "name": "_poolMiningAddress",
          "type": "address"
        }
      ],
      "name": "getValidatorReward",
      "outputs": [
        {
          "internalType": "uint256",
          "name": "nativeReward",
          "type": "uint256"
        }
      ],
      "stateMutability": "view",
      "type": "function"
    },
    {
      "inputs": [],
      "name": "governancePotAddress",
      "outputs": [
        {
          "internalType": "address payable",
          "name": "",
          "type": "address"
        }
      ],
      "stateMutability": "view",
      "type": "function"
    },
    {
      "inputs": [],
      "name": "governancePotShareDenominator",
      "outputs": [
        {
          "internalType": "uint256",
          "name": "",
          "type": "uint256"
        }
      ],
      "stateMutability": "view",
      "type": "function"
    },
    {
      "inputs": [],
      "name": "governancePotShareNominator",
      "outputs": [
        {
          "internalType": "uint256",
          "name": "",
          "type": "uint256"
        }
      ],
      "stateMutability": "view",
      "type": "function"
    },
    {
      "inputs": [
        {
          "internalType": "address",
          "name": "_validatorSet",
          "type": "address"
        }
      ],
      "name": "initialize",
      "outputs": [],
      "stateMutability": "nonpayable",
      "type": "function"
    },
    {
      "inputs": [],
      "name": "isInitialized",
      "outputs": [
        {
          "internalType": "bool",
          "name": "",
          "type": "bool"
        }
      ],
      "stateMutability": "view",
      "type": "function"
    },
    {
      "inputs": [],
      "name": "nativeRewardUndistributed",
      "outputs": [
        {
          "internalType": "uint256",
          "name": "",
          "type": "uint256"
        }
      ],
      "stateMutability": "view",
      "type": "function"
    },
    {
      "inputs": [],
      "name": "reinsertPot",
      "outputs": [
        {
          "internalType": "uint256",
          "name": "",
          "type": "uint256"
        }
      ],
      "stateMutability": "view",
      "type": "function"
    },
    {
      "inputs": [],
      "name": "reinsertPotPayoutFraction",
      "outputs": [
        {
          "internalType": "uint256",
          "name": "",
          "type": "uint256"
        }
      ],
      "stateMutability": "view",
      "type": "function"
    },
    {
      "inputs": [
        {
          "internalType": "bool",
          "name": "_isEpochEndBlock",
          "type": "bool"
        }
      ],
      "name": "reward",
      "outputs": [
        {
          "internalType": "uint256",
          "name": "rewardsNative",
          "type": "uint256"
        }
      ],
      "stateMutability": "nonpayable",
      "type": "function"
    },
    {
      "inputs": [
        {
          "internalType": "uint256",
          "name": "_value",
          "type": "uint256"
        }
      ],
      "name": "setReinsertPotPayoutFraction",
      "outputs": [],
      "stateMutability": "nonpayable",
      "type": "function"
    },
    {
      "inputs": [
        {
          "internalType": "uint256",
          "name": "_value",
          "type": "uint256"
        }
      ],
      "name": "setdeltaPotPayoutFraction",
      "outputs": [],
      "stateMutability": "nonpayable",
      "type": "function"
    },
    {
      "inputs": [
        {
          "internalType": "uint256",
          "name": "",
          "type": "uint256"
        },
        {
          "internalType": "address",
          "name": "",
          "type": "address"
        }
      ],
      "name": "snapshotPoolTotalStakeAmount",
      "outputs": [
        {
          "internalType": "uint256",
          "name": "",
          "type": "uint256"
        }
      ],
      "stateMutability": "view",
      "type": "function"
    },
    {
      "inputs": [
        {
          "internalType": "uint256",
          "name": "",
          "type": "uint256"
        },
        {
          "internalType": "address",
          "name": "",
          "type": "address"
        }
      ],
      "name": "snapshotPoolValidatorStakeAmount",
      "outputs": [
        {
          "internalType": "uint256",
          "name": "",
          "type": "uint256"
        }
      ],
      "stateMutability": "view",
      "type": "function"
    },
    {
      "inputs": [
        {
          "internalType": "uint256",
          "name": "_nativeCoins",
          "type": "uint256"
        },
        {
          "internalType": "address payable",
          "name": "_to",
          "type": "address"
        }
      ],
      "name": "transferReward",
      "outputs": [],
      "stateMutability": "nonpayable",
      "type": "function"
    },
    {
      "inputs": [
        {
          "internalType": "uint256",
          "name": "",
          "type": "uint256"
        }
      ],
      "name": "validatorMinRewardPercent",
      "outputs": [
        {
          "internalType": "uint256",
          "name": "",
          "type": "uint256"
        }
      ],
      "stateMutability": "view",
      "type": "function"
    },
    {
      "inputs": [
        {
          "internalType": "address",
          "name": "_stakingAddress",
          "type": "address"
        }
      ],
      "name": "validatorRewardPercent",
      "outputs": [
        {
          "internalType": "uint256",
          "name": "",
          "type": "uint256"
        }
      ],
      "stateMutability": "view",
      "type": "function"
    },
    {
      "inputs": [],
      "name": "validatorSetContract",
      "outputs": [
        {
          "internalType": "contract IValidatorSetHbbft",
          "name": "",
          "type": "address"
        }
      ],
      "stateMutability": "view",
      "type": "function"
    },
    {
      "inputs": [
        {
          "internalType": "uint256",
          "name": "_stakingEpoch",
          "type": "uint256"
        },
        {
          "internalType": "uint256",
          "name": "_validatorStaked",
          "type": "uint256"
        },
        {
          "internalType": "uint256",
          "name": "_totalStaked",
          "type": "uint256"
        },
        {
          "internalType": "uint256",
          "name": "_poolReward",
          "type": "uint256"
        }
      ],
      "name": "validatorShare",
      "outputs": [
        {
          "internalType": "uint256",
          "name": "",
          "type": "uint256"
        }
      ],
      "stateMutability": "view",
      "type": "function"
    },
    {
      "stateMutability": "payable",
      "type": "receive"
    }
  ],
  "bytecode": "0x608060405234801561001057600080fd5b50612b22806100206000396000f3fe6080604052600436106101db5760003560e01c80638737929a11610102578063c4d66de811610095578063dd03f5b911610064578063dd03f5b91461056c578063dfc8bf4e1461058c578063e1ab96d8146105ac578063e58edc38146105cc57600080fd5b8063c4d66de8146104df578063c6cc9333146104ff578063cb68d1271461051f578063cdf7a0901461053f57600080fd5b8063adc481a7116100d1578063adc481a714610499578063af182535146104af578063b10c7548146104b7578063ba2d7597146104bf57600080fd5b80638737929a1461043857806391b57986146104585780639a64ca2c1461046e578063a59546e21461048457600080fd5b80633c2c943c1161017a5780635c57a801116101495780635c57a801146103b45780635fba554e146103ca578063728345db146103ea57806373f129581461042257600080fd5b80633c2c943c1461032f578063469507c6146103455780634de6c03614610367578063527d8bc41461039457600080fd5b80631345b8a5116101b65780631345b8a51461025d57806319cee8971461029557806333d69921146102cd578063392e53cd1461030557600080fd5b8062067a84146101ff5780630c0d4173146102325780631274fa091461024757600080fd5b366101fa5734600860008282546101f29190612704565b925050819055005b600080fd5b34801561020b57600080fd5b5061021f61021a366004612728565b6105e3565b6040519081526020015b60405180910390f35b34801561023e57600080fd5b5061021f601e81565b34801561025357600080fd5b5061021f60095481565b34801561026957600080fd5b5061021f610278366004612761565b600460209081526000928352604080842090915290825290205481565b3480156102a157600080fd5b50600b546102b5906001600160a01b031681565b6040516001600160a01b039091168152602001610229565b3480156102d957600080fd5b5061021f6102e8366004612761565b600160209081526000928352604080842090915290825290205481565b34801561031157600080fd5b50600a546040516001600160a01b0390911615158152602001610229565b34801561033b57600080fd5b5061021f600d5481565b34801561035157600080fd5b50610365610360366004612761565b610be9565b005b34801561037357600080fd5b50610387610382366004612791565b610c8b565b60405161022991906127bf565b3480156103a057600080fd5b5061021f6103af366004612803565b6110cd565b3480156103c057600080fd5b5061021f60065481565b3480156103d657600080fd5b5061021f6103e5366004612820565b6113dd565b3480156103f657600080fd5b5061021f610405366004612761565b600360209081526000928352604080842090915290825290205481565b34801561042e57600080fd5b5061021f60085481565b34801561044457600080fd5b5061021f61045336600461285b565b6114b3565b34801561046457600080fd5b5061021f600c5481565b34801561047a57600080fd5b5061021f60075481565b34801561049057600080fd5b5061021f611563565b3480156104a557600080fd5b5061021f60025481565b610365611898565b6103656118b1565b3480156104cb57600080fd5b5061021f6104da366004612761565b6118c3565b3480156104eb57600080fd5b506103656104fa366004612803565b61191f565b34801561050b57600080fd5b5061036561051a36600461288d565b611b98565b34801561052b57600080fd5b5061036561053a36600461288d565b611c83565b34801561054b57600080fd5b5061021f61055a36600461288d565b60056020526000908152604090205481565b34801561057857600080fd5b50610387610587366004612803565b611d6e565b34801561059857600080fd5b50600a546102b5906001600160a01b031681565b3480156105b857600080fd5b5061021f6105c73660046128a6565b611dd8565b3480156105d857600080fd5b5061021f620f424081565b600073fffffffffffffffffffffffffffffffffffffffe331461060557600080fd5b600a546040805163239a373960e21b815290516000926001600160a01b031691638e68dce49160048083019260209291908290030181865afa15801561064f573d6000803e3d6000fd5b505050506040513d601f19601f8201168201806040525081019061067391906128ea565b9050821561092d576000816001600160a01b031663794c0c686040518163ffffffff1660e01b8152600401602060405180830381865afa1580156106bb573d6000803e3d6000fd5b505050506040513d601f19601f820116820180604052508101906106df9190612907565b9050600081156106f5576106f282611e40565b90505b600080610703846001612704565b90506060600a60009054906101000a90046001600160a01b03166001600160a01b031663eebc7a396040518163ffffffff1660e01b8152600401600060405180830381865afa15801561075a573d6000803e3d6000fd5b505050506040513d6000823e601f3d908101601f191682016040526107829190810190612936565b9050600092505b80518310156107c8576107b686838386815181106107a9576107a96129fb565b6020026020010151612490565b826107c081612a11565b935050610789565b600a60009054906101000a90046001600160a01b03166001600160a01b031663b7ab4db56040518163ffffffff1660e01b8152600401600060405180830381865afa15801561081b573d6000803e3d6000fd5b505050506040513d6000823e601f3d908101601f191682016040526108439190810190612936565b9050600092505b805183101561087c5761086a86838386815181106107a9576107a96129fb565b8261087481612a11565b93505061084a565b600082815260056020526040808220601e9055600a548151637528621160e01b815291516001600160a01b03909116926375286211926004808201939182900301818387803b1580156108ce57600080fd5b505af11580156108e2573d6000803e3d6000fd5b505050507ff32b9551d3414b67f8e66e20ac15e62694b9d1230abb2e2e48f9dc2e1964c4298460405161091791815260200190565b60405180910390a1506000979650505050505050565b6000816001600160a01b031663c6912cc06040518163ffffffff1660e01b8152600401602060405180830381865afa15801561096d573d6000803e3d6000fd5b505050506040513d601f19601f820116820180604052508101906109919190612907565b90506000600a60009054906101000a90046001600160a01b03166001600160a01b0316636c9230db6040518163ffffffff1660e01b8152600401602060405180830381865afa1580156109e8573d6000803e3d6000fd5b505050506040513d601f19601f82011682018060405250810190610a0c9190612907565b90506000828210158015610a995750600a60009054906101000a90046001600160a01b03166001600160a01b031663eebc7a396040518163ffffffff1660e01b8152600401600060405180830381865afa158015610a6e573d6000803e3d6000fd5b505050506040513d6000823e601f3d908101601f19168201604052610a969190810190612936565b51155b90508015610b0e57600a60009054906101000a90046001600160a01b03166001600160a01b0316635ccee1de6040518163ffffffff1660e01b8152600401600060405180830381600087803b158015610af157600080fd5b505af1158015610b05573d6000803e3d6000fd5b50505050610bdf565b836001600160a01b03166322e3d9866040518163ffffffff1660e01b8152600401602060405180830381865afa158015610b4c573d6000803e3d6000fd5b505050506040513d601f19601f82011682018060405250810190610b709190612907565b8210610bdf57600a60009054906101000a90046001600160a01b03166001600160a01b031663ade1900a6040518163ffffffff1660e01b8152600401600060405180830381600087803b158015610bc657600080fd5b505af1158015610bda573d6000803e3d6000fd5b505050505b505050505b919050565b600a60009054906101000a90046001600160a01b03166001600160a01b0316638e68dce46040518163ffffffff1660e01b8152600401602060405180830381865afa158015610c3c573d6000803e3d6000fd5b505050506040513d601f19601f82011682018060405250810190610c6091906128ea565b6001600160a01b0316336001600160a01b031614610c7d57600080fd5b610c87828261266b565b5050565b600a546040516253517560e01b81526001600160a01b0384811660048301526060926000929116906253517590602401602060405180830381865afa158015610cd8573d6000803e3d6000fd5b505050506040513d601f19601f82011682018060405250810190610cfc91906128ea565b90506000600a60009054906101000a90046001600160a01b03166001600160a01b0316638e68dce46040518163ffffffff1660e01b8152600401602060405180830381865afa158015610d53573d6000803e3d6000fd5b505050506040513d601f19601f82011682018060405250810190610d7791906128ea565b90506000846001600160a01b0316866001600160a01b0316141590506000808215610ea957604051632b2cdba160e11b81526001600160a01b0389811660048301528881166024830152851690635659b74290604401602060405180830381865afa158015610dea573d6000803e3d6000fd5b505050506040513d601f19601f82011682018060405250810190610e0e9190612907565b915081600003610e3457505060408051600081526020810190915293506110c792505050565b60405163bc9eb2c360e01b81526001600160a01b038981166004830152888116602483015285169063bc9eb2c390604401602060405180830381865afa158015610e82573d6000803e3d6000fd5b505050506040513d601f19601f82011682018060405250810190610ea69190612907565b90505b6001600160a01b0385166000908152602081905260408120805490918167ffffffffffffffff811115610ede57610ede612920565b604051908082528060200260200182016040528015610f07578160200160208202803683370190505b5090506000805b83811015611021576000858281548110610f2a57610f2a6129fb565b906000526020600020015490508815610f655787811015610f4b575061100f565b808711158015610f5a57508615155b15610f655750611021565b604051630317277360e41b81526001600160a01b038f811660048301528e81166024830152604482018390528b1690633172773090606401602060405180830381865afa158015610fba573d6000803e3d6000fd5b505050506040513d601f19601f82011682018060405250810190610fde9190612a2a565b61100d57808484610fee81612a11565b955081518110611000576110006129fb565b6020026020010181815250505b505b8061101981612a11565b915050610f0e565b8167ffffffffffffffff81111561103a5761103a612920565b604051908082528060200260200182016040528015611063578160200160208202803683370190505b509a50600090505b818110156110bc57828181518110611085576110856129fb565b60200260200101518b828151811061109f5761109f6129fb565b6020908102919091010152806110b481612a11565b91505061106b565b505050505050505050505b92915050565b600080600a60009054906101000a90046001600160a01b03166001600160a01b0316638e68dce46040518163ffffffff1660e01b8152600401602060405180830381865afa158015611123573d6000803e3d6000fd5b505050506040513d601f19601f8201168201806040525081019061114791906128ea565b90506000816001600160a01b031663794c0c686040518163ffffffff1660e01b8152600401602060405180830381865afa158015611189573d6000803e3d6000fd5b505050506040513d601f19601f820116820180604052508101906111ad9190612907565b9050806000036111c1575060009392505050565b600a546040516253517560e01b81526001600160a01b03868116600483015260009216906253517590602401602060405180830381865afa15801561120a573d6000803e3d6000fd5b505050506040513d601f19601f8201168201806040525081019061122e91906128ea565b600a5460405163a0d16cad60e01b81526001600160a01b03808416600483015292935091169063a0d16cad90602401602060405180830381865afa15801561127a573d6000803e3d6000fd5b505050506040513d601f19601f8201168201806040525081019061129e9190612a2a565b156112f35760008281526004602090815260408083206001600160a01b03851680855290835281842054868552600384528285209185529252909120546112ea918491620f42406114b3565b95945050505050565b60405163a697ecff60e01b81526001600160a01b038681166004830181905260248301526112ea91849186169063a697ecff90604401602060405180830381865afa158015611346573d6000803e3d6000fd5b505050506040513d601f19601f8201168201806040525081019061136a9190612907565b604051632933f0eb60e11b81526001600160a01b038981166004830152871690635267e1d690602401602060405180830381865afa1580156113b0573d6000803e3d6000fd5b505050506040513d601f19601f820116820180604052508101906113d49190612907565b620f42406114b3565b60008415806113ea575083155b806113f3575082155b15611400575060006112ea565b6000808585101561141257600061141c565b61141c8686612a47565b6000898152600560205260409020549091506114388183612a5a565b611443826064612a47565b61144d9089612a5a565b111561146f578561145e8987612a5a565b6114689190612a71565b92506114a6565b61147a826064612a5a565b611485826064612a47565b61148f8a88612a5a565b6114999190612a5a565b6114a39190612a71565b92505b5090979650505050505050565b60008315806114c0575082155b156114cd5750600061155b565b600080858510156114df5760006114e9565b6114e98686612a47565b6000888152600560205260409020549091506115058183612a5a565b611510826064612a47565b61151a9089612a5a565b111561153c578561152b8887612a5a565b6115359190612a71565b9250611555565b60646115488287612a5a565b6115529190612a71565b92505b50909150505b949350505050565b600080600a60009054906101000a90046001600160a01b03166001600160a01b0316638e68dce46040518163ffffffff1660e01b8152600401602060405180830381865afa1580156115b9573d6000803e3d6000fd5b505050506040513d601f19601f820116820180604052508101906115dd91906128ea565b90506000816001600160a01b0316639b03d7446040518163ffffffff1660e01b8152600401602060405180830381865afa15801561161f573d6000803e3d6000fd5b505050506040513d601f19601f820116820180604052508101906116439190612907565b826001600160a01b03166322e3d9866040518163ffffffff1660e01b8152600401602060405180830381865afa158015611681573d6000803e3d6000fd5b505050506040513d601f19601f820116820180604052508101906116a59190612907565b6116af9190612a47565b9050816001600160a01b03166322e3d9866040518163ffffffff1660e01b8152600401602060405180830381865afa1580156116ef573d6000803e3d6000fd5b505050506040513d601f19601f820116820180604052508101906117139190612907565b600a60009054906101000a90046001600160a01b03166001600160a01b0316636c9230db6040518163ffffffff1660e01b8152600401602060405180830381865afa158015611766573d6000803e3d6000fd5b505050506040513d601f19601f8201168201806040525081019061178a9190612907565b1161188d5780826001600160a01b0316639b03d7446040518163ffffffff1660e01b8152600401602060405180830381865afa1580156117ce573d6000803e3d6000fd5b505050506040513d601f19601f820116820180604052508101906117f29190612907565b600a60009054906101000a90046001600160a01b03166001600160a01b0316636c9230db6040518163ffffffff1660e01b8152600401602060405180830381865afa158015611845573d6000803e3d6000fd5b505050506040513d601f19601f820116820180604052508101906118699190612907565b6118739190612a47565b61187e906064612a5a565b6118889190612a71565b611891565b6103e85b9250505090565b34600860008282546118aa9190612704565b9091555050565b34600660008282546118aa9190612704565b60008281526004602090815260408083206001600160a01b03851680855290835281842054868552600384528285208286528452828520548786526001855283862092865291909352908320546112ea908690849084906114b3565b7fb53127684a568b3173ae13b9f8a6016e243e63b6e8ee1178d6a717850b5d6103546001600160a01b0316336001600160a01b0316148061199257507fb53127684a568b3173ae13b9f8a6016e243e63b6e8ee1178d6a717850b5d6103546001600160a01b0316326001600160a01b0316145b806119c557507fb53127684a568b3173ae13b9f8a6016e243e63b6e8ee1178d6a717850b5d6103546001600160a01b0316155b806119ce575043155b611a455760405162461bcd60e51b815260206004820152603060248201527f496e697469616c697a6174696f6e206f6e6c79206f6e2067656e65736973206260448201527f6c6f636b206f722062792061646d696e0000000000000000000000000000000060648201526084015b60405180910390fd5b600a546001600160a01b031615611aaa5760405162461bcd60e51b8152602060048201526024808201527f696e697469616c697a6174696f6e2063616e206f6e6c7920626520646f6e65206044820152636f6e636560e01b6064820152608401611a3c565b6001600160a01b038116611b005760405162461bcd60e51b815260206004820152601a60248201527f56616c696461746f72536574206d757374206e6f7420626520300000000000006044820152606401611a3c565b600a80546001600160a01b039092167fffffffffffffffffffffffff0000000000000000000000000000000000000000928316178155600080526005602052601e7f05b8ccbb9d4d8fb16ea74ce3c29a41f1b461fbdaff4714a0d9a8eb05499746bc556117706007819055600955600b805490921673da0da0da0da0da0da0da00da0da0da0da0da0da0179091556001600c55600d55565b7fb53127684a568b3173ae13b9f8a6016e243e63b6e8ee1178d6a717850b5d6103546001600160a01b0316336001600160a01b031614611c2e5760405162461bcd60e51b815260206004820152602b60248201527f6f6e6c792061646d696e20697320616c6c6f77656420746f2063616c6c20746860448201526a34b990333ab731ba34b7b760a91b6064820152608401611a3c565b80600003611c7e5760405162461bcd60e51b815260206004820152601d60248201527f5061796f7574206672616374696f6e206d757374206e6f7420626520300000006044820152606401611a3c565b600955565b7fb53127684a568b3173ae13b9f8a6016e243e63b6e8ee1178d6a717850b5d6103546001600160a01b0316336001600160a01b031614611d195760405162461bcd60e51b815260206004820152602b60248201527f6f6e6c792061646d696e20697320616c6c6f77656420746f2063616c6c20746860448201526a34b990333ab731ba34b7b760a91b6064820152608401611a3c565b80600003611d695760405162461bcd60e51b815260206004820152601d60248201527f5061796f7574206672616374696f6e206d757374206e6f7420626520300000006044820152606401611a3c565b600755565b6001600160a01b03811660009081526020818152604091829020805483518184028101840190945280845260609392830182828015611dcc57602002820191906000526020600020905b815481526020019060010190808311611db8575b50505050509050919050565b60008281526004602090815260408083206001600160a01b0385168085529083528184205486855260038452828520828652845282852054878652600185528386209286529190935290832054611e369086908890859085906113dd565b9695505050505050565b600080600a60009054906101000a90046001600160a01b03166001600160a01b031663b7ab4db56040518163ffffffff1660e01b8152600401600060405180830381865afa158015611e96573d6000803e3d6000fd5b505050506040513d6000823e601f3d908101601f19168201604052611ebe9190810190612936565b80519091506000819003611f145760405162461bcd60e51b815260206004820152601460248201527f456d7074792056616c696461746f72206c6973740000000000000000000000006044820152606401611a3c565b600080600a60009054906101000a90046001600160a01b03166001600160a01b03166308ac52566040518163ffffffff1660e01b8152600401602060405180830381865afa158015611f6a573d6000803e3d6000fd5b505050506040513d601f19601f82011682018060405250810190611f8e9190612907565b90506000606482600754611fa0611563565b87600654611fae9190612a5a565b611fb89190612a5a565b611fc29190612a71565b611fcc9190612a71565b611fd69190612a71565b90508060066000828254611fea9190612a47565b925050819055506000606483600954612001611563565b8860085461200f9190612a5a565b6120199190612a5a565b6120239190612a71565b61202d9190612a71565b6120379190612a71565b9050806008600082825461204b9190612a47565b909155505060025461205d8284612704565b6120679190612704565b93505050508060000361207f57506000949350505050565b6000600d54600c54836120929190612a5a565b61209c9190612a71565b600b546040519192506001600160a01b03169082156108fc029083906000818181858888f193505050501580156120d7573d6000803e3d6000fd5b5060006120e48284612a47565b905060008467ffffffffffffffff81111561210157612101612920565b60405190808252806020026020018201604052801561212a578160200160208202803683370190505b5090506000805b875181101561227d57600a5488516001600160a01b039091169063a92252ae908a9084908110612163576121636129fb565b60200260200101516040518263ffffffff1660e01b815260040161219691906001600160a01b0391909116815260200190565b602060405180830381865afa1580156121b3573d6000803e3d6000fd5b505050506040513d601f19601f820116820180604052508101906121d79190612a2a565b1580156122345750600460008b81526020019081526020016000206000898381518110612206576122066129fb565b60200260200101516001600160a01b03166001600160a01b0316815260200190815260200160002054600014155b1561226b57600183828151811061224d5761224d6129fb565b911515602092830291909101909101528161226781612a11565b9250505b8061227581612a11565b915050612131565b50806000036122955750600098975050505050505050565b60006122a18285612a71565b905080156124755760005b87811015612473578381815181106122c6576122c66129fb565b60200260200101511561246157600160008c815260200190815260200160002060008a83815181106122fa576122fa6129fb565b60200260200101516001600160a01b03166001600160a01b03168152602001908152602001600020546000146123be5760405162461bcd60e51b815260206004820152605c60248201527f63616e74206469737472696275746520726577617264733a207468657265206960448201527f7320616c7265616479206120706f6f6c2072657761726420646566696e65642060648201527f666f7220746869732065706f636820616e642076616c696461746f7200000000608482015260a401611a3c565b60008b81526001602052604081208a518492908c90859081106123e3576123e36129fb565b6020908102919091018101516001600160a01b03168252810191909152604001600020556124118287612704565b95506000808a8381518110612428576124286129fb565b6020908102919091018101516001600160a01b031682528181019290925260400160009081208054600181018255908252919020018b90555b8061246b81612a11565b9150506122ac565b505b61247f8587612a47565b600255509298975050505050505050565b60008281526003602090815260408083206001600160a01b0385168452909152902054156124bd57505050565b600a546040516307b9342f60e21b81526001600160a01b0383811660048301526000921690631ee4d0bc90602401602060405180830381865afa158015612508573d6000803e3d6000fd5b505050506040513d601f19601f8201168201806040525081019061252c91906128ea565b604051632933f0eb60e11b81526001600160a01b038083166004830152919250600091861690635267e1d690602401602060405180830381865afa158015612578573d6000803e3d6000fd5b505050506040513d601f19601f8201168201806040525081019061259c9190612907565b9050806000036125ad575050505050565b60008481526003602090815260408083206001600160a01b038781168552925291829020839055905163a697ecff60e01b81528382166004820181905260248201529086169063a697ecff90604401602060405180830381865afa158015612619573d6000803e3d6000fd5b505050506040513d601f19601f8201168201806040525081019061263d9190612907565b60009485526004602090815260408087206001600160a01b0390961687529490529290932091909155505050565b811580159061269c57506040516001600160a01b0382169083156108fc029084906000818181858888f19350505050155b15610c875781816040516126af906126e2565b6001600160a01b0390911681526020016040518091039082f09050801580156126dc573d6000803e3d6000fd5b50505050565b605980612a9483390190565b634e487b7160e01b600052601160045260246000fd5b808201808211156110c7576110c76126ee565b801515811461272557600080fd5b50565b60006020828403121561273a57600080fd5b813561274581612717565b9392505050565b6001600160a01b038116811461272557600080fd5b6000806040838503121561277457600080fd5b8235915060208301356127868161274c565b809150509250929050565b600080604083850312156127a457600080fd5b82356127af8161274c565b915060208301356127868161274c565b6020808252825182820181905260009190848201906040850190845b818110156127f7578351835292840192918401916001016127db565b50909695505050505050565b60006020828403121561281557600080fd5b81356127458161274c565b600080600080600060a0868803121561283857600080fd5b505083359560208501359550604085013594606081013594506080013592509050565b6000806000806080858703121561287157600080fd5b5050823594602084013594506040840135936060013592509050565b60006020828403121561289f57600080fd5b5035919050565b6000806000606084860312156128bb57600080fd5b833592506020840135915060408401356128d48161274c565b809150509250925092565b8051610be48161274c565b6000602082840312156128fc57600080fd5b81516127458161274c565b60006020828403121561291957600080fd5b5051919050565b634e487b7160e01b600052604160045260246000fd5b6000602080838503121561294957600080fd5b825167ffffffffffffffff8082111561296157600080fd5b818501915085601f83011261297557600080fd5b81518181111561298757612987612920565b8060051b604051601f19603f830116810181811085821117156129ac576129ac612920565b6040529182528482019250838101850191888311156129ca57600080fd5b938501935b828510156129ef576129e0856128df565b845293850193928501926129cf565b98975050505050505050565b634e487b7160e01b600052603260045260246000fd5b600060018201612a2357612a236126ee565b5060010190565b600060208284031215612a3c57600080fd5b815161274581612717565b818103818111156110c7576110c76126ee565b80820281158282048414176110c7576110c76126ee565b600082612a8e57634e487b7160e01b600052601260045260246000fd5b50049056fe608060405260405160593803806059833981016040819052601e91602a565b806001600160a01b0316ff5b600060208284031215603b57600080fd5b81516001600160a01b0381168114605157600080fd5b939250505056fea2646970667358221220d1984b253c9b917c347906772380e73edd2dbc5fd685864395adc7074d25b94f64736f6c63430008110033",
  "linkReferences": {},
  "deployedLinkReferences": {}
}