{
  "_format": "hh-sol-artifact-1",
  "contractName": "BlockRewardHbbftBase",
  "sourceName": "contracts/base/BlockRewardHbbftBase.sol",
  "abi": [
    {
      "anonymous": false,
      "inputs": [
        {
          "indexed": false,
          "internalType": "uint256",
          "name": "rewards",
          "type": "uint256"
        }
      ],
      "name": "CoinsRewarded",
      "type": "event"
    },
    {
      "inputs": [],
      "name": "REWARD_PERCENT_MULTIPLIER",
      "outputs": [
        {
          "internalType": "uint256",
          "name": "",
          "type": "uint256"
        }
      ],
      "stateMutability": "view",
      "type": "function"
    },
    {
      "inputs": [],
      "name": "VALIDATOR_MIN_REWARD_PERCENT",
      "outputs": [
        {
          "internalType": "uint256",
          "name": "",
          "type": "uint256"
        }
      ],
      "stateMutability": "view",
      "type": "function"
    },
    {
      "inputs": [],
      "name": "addToDeltaPot",
      "outputs": [],
      "stateMutability": "payable",
      "type": "function"
    },
    {
      "inputs": [],
      "name": "addToReinsertPot",
      "outputs": [],
      "stateMutability": "payable",
      "type": "function"
    },
    {
      "inputs": [
        {
          "internalType": "uint256",
          "name": "_stakingEpoch",
          "type": "uint256"
        },
        {
          "internalType": "uint256",
          "name": "_delegatorStaked",
          "type": "uint256"
        },
        {
          "internalType": "uint256",
          "name": "_validatorStaked",
          "type": "uint256"
        },
        {
          "internalType": "uint256",
          "name": "_totalStaked",
          "type": "uint256"
        },
        {
          "internalType": "uint256",
          "name": "_poolReward",
          "type": "uint256"
        }
      ],
      "name": "delegatorShare",
      "outputs": [
        {
          "internalType": "uint256",
          "name": "",
          "type": "uint256"
        }
      ],
      "stateMutability": "view",
      "type": "function"
    },
    {
      "inputs": [],
      "name": "deltaPot",
      "outputs": [
        {
          "internalType": "uint256",
          "name": "",
          "type": "uint256"
        }
      ],
      "stateMutability": "view",
      "type": "function"
    },
    {
      "inputs": [],
      "name": "deltaPotPayoutFraction",
      "outputs": [
        {
          "internalType": "uint256",
          "name": "",
          "type": "uint256"
        }
      ],
      "stateMutability": "view",
      "type": "function"
    },
    {
      "inputs": [],
      "name": "epochPercentage",
      "outputs": [
        {
          "internalType": "uint256",
          "name": "",
          "type": "uint256"
        }
      ],
      "stateMutability": "view",
      "type": "function"
    },
    {
      "inputs": [
        {
          "internalType": "uint256",
          "name": "",
          "type": "uint256"
        },
        {
          "internalType": "address",
          "name": "",
          "type": "address"
        }
      ],
      "name": "epochPoolNativeReward",
      "outputs": [
        {
          "internalType": "uint256",
          "name": "",
          "type": "uint256"
        }
      ],
      "stateMutability": "view",
      "type": "function"
    },
    {
      "inputs": [
        {
          "internalType": "address",
          "name": "_miningAddress",
          "type": "address"
        }
      ],
      "name": "epochsPoolGotRewardFor",
      "outputs": [
        {
          "internalType": "uint256[]",
          "name": "",
          "type": "uint256[]"
        }
      ],
      "stateMutability": "view",
      "type": "function"
    },
    {
      "inputs": [
        {
          "internalType": "address",
          "name": "_poolStakingAddress",
          "type": "address"
        },
        {
          "internalType": "address",
          "name": "_staker",
          "type": "address"
        }
      ],
      "name": "epochsToClaimRewardFrom",
      "outputs": [
        {
          "internalType": "uint256[]",
          "name": "epochsToClaimFrom",
          "type": "uint256[]"
        }
      ],
      "stateMutability": "view",
      "type": "function"
    },
    {
      "inputs": [],
      "name": "governancePotAddress",
      "outputs": [
        {
          "internalType": "address payable",
          "name": "",
          "type": "address"
        }
      ],
      "stateMutability": "view",
      "type": "function"
    },
    {
      "inputs": [],
      "name": "governancePotShareDenominator",
      "outputs": [
        {
          "internalType": "uint256",
          "name": "",
          "type": "uint256"
        }
      ],
      "stateMutability": "view",
      "type": "function"
    },
    {
      "inputs": [],
      "name": "governancePotShareNominator",
      "outputs": [
        {
          "internalType": "uint256",
          "name": "",
          "type": "uint256"
        }
      ],
      "stateMutability": "view",
      "type": "function"
    },
    {
      "inputs": [
        {
          "internalType": "address",
          "name": "_validatorSet",
          "type": "address"
        }
      ],
      "name": "initialize",
      "outputs": [],
      "stateMutability": "nonpayable",
      "type": "function"
    },
    {
      "inputs": [],
      "name": "isInitialized",
      "outputs": [
        {
          "internalType": "bool",
          "name": "",
          "type": "bool"
        }
      ],
      "stateMutability": "view",
      "type": "function"
    },
    {
      "inputs": [],
      "name": "nativeRewardUndistributed",
      "outputs": [
        {
          "internalType": "uint256",
          "name": "",
          "type": "uint256"
        }
      ],
      "stateMutability": "view",
      "type": "function"
    },
    {
      "inputs": [],
      "name": "reinsertPot",
      "outputs": [
        {
          "internalType": "uint256",
          "name": "",
          "type": "uint256"
        }
      ],
      "stateMutability": "view",
      "type": "function"
    },
    {
      "inputs": [],
      "name": "reinsertPotPayoutFraction",
      "outputs": [
        {
          "internalType": "uint256",
          "name": "",
          "type": "uint256"
        }
      ],
      "stateMutability": "view",
      "type": "function"
    },
    {
      "inputs": [
        {
          "internalType": "bool",
          "name": "_isEpochEndBlock",
          "type": "bool"
        }
      ],
      "name": "reward",
      "outputs": [
        {
          "internalType": "uint256",
          "name": "rewardsNative",
          "type": "uint256"
        }
      ],
      "stateMutability": "nonpayable",
      "type": "function"
    },
    {
      "inputs": [
        {
          "internalType": "uint256",
          "name": "_value",
          "type": "uint256"
        }
      ],
      "name": "setReinsertPotPayoutFraction",
      "outputs": [],
      "stateMutability": "nonpayable",
      "type": "function"
    },
    {
      "inputs": [
        {
          "internalType": "uint256",
          "name": "_value",
          "type": "uint256"
        }
      ],
      "name": "setdeltaPotPayoutFraction",
      "outputs": [],
      "stateMutability": "nonpayable",
      "type": "function"
    },
    {
      "inputs": [
        {
          "internalType": "uint256",
          "name": "",
          "type": "uint256"
        },
        {
          "internalType": "address",
          "name": "",
          "type": "address"
        }
      ],
      "name": "snapshotPoolTotalStakeAmount",
      "outputs": [
        {
          "internalType": "uint256",
          "name": "",
          "type": "uint256"
        }
      ],
      "stateMutability": "view",
      "type": "function"
    },
    {
      "inputs": [
        {
          "internalType": "uint256",
          "name": "",
          "type": "uint256"
        },
        {
          "internalType": "address",
          "name": "",
          "type": "address"
        }
      ],
      "name": "snapshotPoolValidatorStakeAmount",
      "outputs": [
        {
          "internalType": "uint256",
          "name": "",
          "type": "uint256"
        }
      ],
      "stateMutability": "view",
      "type": "function"
    },
    {
      "inputs": [
        {
          "internalType": "uint256",
          "name": "",
          "type": "uint256"
        }
      ],
      "name": "validatorMinRewardPercent",
      "outputs": [
        {
          "internalType": "uint256",
          "name": "",
          "type": "uint256"
        }
      ],
      "stateMutability": "view",
      "type": "function"
    },
    {
      "inputs": [
        {
          "internalType": "address",
          "name": "_stakingAddress",
          "type": "address"
        }
      ],
      "name": "validatorRewardPercent",
      "outputs": [
        {
          "internalType": "uint256",
          "name": "",
          "type": "uint256"
        }
      ],
      "stateMutability": "view",
      "type": "function"
    },
    {
      "inputs": [],
      "name": "validatorSetContract",
      "outputs": [
        {
          "internalType": "contract IValidatorSetHbbft",
          "name": "",
          "type": "address"
        }
      ],
      "stateMutability": "view",
      "type": "function"
    },
    {
      "inputs": [
        {
          "internalType": "uint256",
          "name": "_stakingEpoch",
          "type": "uint256"
        },
        {
          "internalType": "uint256",
          "name": "_validatorStaked",
          "type": "uint256"
        },
        {
          "internalType": "uint256",
          "name": "_totalStaked",
          "type": "uint256"
        },
        {
          "internalType": "uint256",
          "name": "_poolReward",
          "type": "uint256"
        }
      ],
      "name": "validatorShare",
      "outputs": [
        {
          "internalType": "uint256",
          "name": "",
          "type": "uint256"
        }
      ],
      "stateMutability": "view",
      "type": "function"
    },
    {
      "stateMutability": "payable",
      "type": "receive"
    }
  ],
  "bytecode": "0x608060405234801561001057600080fd5b50612826806100206000396000f3fe6080604052600436106101ba5760003560e01c80638737929a116100ec578063c4d66de81161008a578063cdf7a09011610064578063cdf7a090146104de578063dd03f5b91461050b578063dfc8bf4e1461052b578063e58edc381461054b57600080fd5b8063c4d66de81461047e578063c6cc93331461049e578063cb68d127146104be57600080fd5b8063a59546e2116100c6578063a59546e214610441578063adc481a714610456578063af1825351461046c578063b10c75481461047657600080fd5b80638737929a146103f557806391b57986146104155780639a64ca2c1461042b57600080fd5b80633c2c943c116101595780635c57a801116101335780635c57a801146103715780635fba554e14610387578063728345db146103a757806373f12958146103df57600080fd5b80633c2c943c1461030e5780634de6c03614610324578063527d8bc41461035157600080fd5b80631345b8a5116101955780631345b8a51461023c57806319cee8971461027457806333d69921146102ac578063392e53cd146102e457600080fd5b8062067a84146101de5780630c0d4173146102115780631274fa091461022657600080fd5b366101d95734600860008282546101d1919061249a565b925050819055005b600080fd5b3480156101ea57600080fd5b506101fe6101f93660046124be565b610562565b6040519081526020015b60405180910390f35b34801561021d57600080fd5b506101fe601e81565b34801561023257600080fd5b506101fe60095481565b34801561024857600080fd5b506101fe6102573660046124f7565b600460209081526000928352604080842090915290825290205481565b34801561028057600080fd5b50600b54610294906001600160a01b031681565b6040516001600160a01b039091168152602001610208565b3480156102b857600080fd5b506101fe6102c73660046124f7565b600160209081526000928352604080842090915290825290205481565b3480156102f057600080fd5b50600a546040516001600160a01b0390911615158152602001610208565b34801561031a57600080fd5b506101fe600d5481565b34801561033057600080fd5b5061034461033f366004612527565b610b68565b6040516102089190612555565b34801561035d57600080fd5b506101fe61036c366004612599565b610faa565b34801561037d57600080fd5b506101fe60065481565b34801561039357600080fd5b506101fe6103a23660046125b6565b6112ba565b3480156103b357600080fd5b506101fe6103c23660046124f7565b600360209081526000928352604080842090915290825290205481565b3480156103eb57600080fd5b506101fe60085481565b34801561040157600080fd5b506101fe6104103660046125f1565b611390565b34801561042157600080fd5b506101fe600c5481565b34801561043757600080fd5b506101fe60075481565b34801561044d57600080fd5b506101fe611440565b34801561046257600080fd5b506101fe60025481565b610474611775565b005b61047461178e565b34801561048a57600080fd5b50610474610499366004612599565b6117a0565b3480156104aa57600080fd5b506104746104b9366004612623565b611a19565b3480156104ca57600080fd5b506104746104d9366004612623565b611b04565b3480156104ea57600080fd5b506101fe6104f9366004612623565b60056020526000908152604090205481565b34801561051757600080fd5b50610344610526366004612599565b611bef565b34801561053757600080fd5b50600a54610294906001600160a01b031681565b34801561055757600080fd5b506101fe620f424081565b600073fffffffffffffffffffffffffffffffffffffffe331461058457600080fd5b600a546040805163239a373960e21b815290516000926001600160a01b031691638e68dce49160048083019260209291908290030181865afa1580156105ce573d6000803e3d6000fd5b505050506040513d601f19601f820116820180604052508101906105f29190612647565b905082156108ac576000816001600160a01b031663794c0c686040518163ffffffff1660e01b8152600401602060405180830381865afa15801561063a573d6000803e3d6000fd5b505050506040513d601f19601f8201168201806040525081019061065e9190612664565b9050600081156106745761067182611c59565b90505b60008061068284600161249a565b90506060600a60009054906101000a90046001600160a01b03166001600160a01b031663eebc7a396040518163ffffffff1660e01b8152600401600060405180830381865afa1580156106d9573d6000803e3d6000fd5b505050506040513d6000823e601f3d908101601f191682016040526107019190810190612693565b9050600092505b805183101561074757610735868383868151811061072857610728612758565b60200260200101516122a9565b8261073f8161276e565b935050610708565b600a60009054906101000a90046001600160a01b03166001600160a01b031663b7ab4db56040518163ffffffff1660e01b8152600401600060405180830381865afa15801561079a573d6000803e3d6000fd5b505050506040513d6000823e601f3d908101601f191682016040526107c29190810190612693565b9050600092505b80518310156107fb576107e9868383868151811061072857610728612758565b826107f38161276e565b9350506107c9565b600082815260056020526040808220601e9055600a548151637528621160e01b815291516001600160a01b03909116926375286211926004808201939182900301818387803b15801561084d57600080fd5b505af1158015610861573d6000803e3d6000fd5b505050507ff32b9551d3414b67f8e66e20ac15e62694b9d1230abb2e2e48f9dc2e1964c4298460405161089691815260200190565b60405180910390a1506000979650505050505050565b6000816001600160a01b031663c6912cc06040518163ffffffff1660e01b8152600401602060405180830381865afa1580156108ec573d6000803e3d6000fd5b505050506040513d601f19601f820116820180604052508101906109109190612664565b90506000600a60009054906101000a90046001600160a01b03166001600160a01b0316636c9230db6040518163ffffffff1660e01b8152600401602060405180830381865afa158015610967573d6000803e3d6000fd5b505050506040513d601f19601f8201168201806040525081019061098b9190612664565b90506000828210158015610a185750600a60009054906101000a90046001600160a01b03166001600160a01b031663eebc7a396040518163ffffffff1660e01b8152600401600060405180830381865afa1580156109ed573d6000803e3d6000fd5b505050506040513d6000823e601f3d908101601f19168201604052610a159190810190612693565b51155b90508015610a8d57600a60009054906101000a90046001600160a01b03166001600160a01b0316635ccee1de6040518163ffffffff1660e01b8152600401600060405180830381600087803b158015610a7057600080fd5b505af1158015610a84573d6000803e3d6000fd5b50505050610b5e565b836001600160a01b03166322e3d9866040518163ffffffff1660e01b8152600401602060405180830381865afa158015610acb573d6000803e3d6000fd5b505050506040513d601f19601f82011682018060405250810190610aef9190612664565b8210610b5e57600a60009054906101000a90046001600160a01b03166001600160a01b031663ade1900a6040518163ffffffff1660e01b8152600401600060405180830381600087803b158015610b4557600080fd5b505af1158015610b59573d6000803e3d6000fd5b505050505b505050505b919050565b600a546040516253517560e01b81526001600160a01b0384811660048301526060926000929116906253517590602401602060405180830381865afa158015610bb5573d6000803e3d6000fd5b505050506040513d601f19601f82011682018060405250810190610bd99190612647565b90506000600a60009054906101000a90046001600160a01b03166001600160a01b0316638e68dce46040518163ffffffff1660e01b8152600401602060405180830381865afa158015610c30573d6000803e3d6000fd5b505050506040513d601f19601f82011682018060405250810190610c549190612647565b90506000846001600160a01b0316866001600160a01b0316141590506000808215610d8657604051632b2cdba160e11b81526001600160a01b0389811660048301528881166024830152851690635659b74290604401602060405180830381865afa158015610cc7573d6000803e3d6000fd5b505050506040513d601f19601f82011682018060405250810190610ceb9190612664565b915081600003610d115750506040805160008152602081019091529350610fa492505050565b60405163bc9eb2c360e01b81526001600160a01b038981166004830152888116602483015285169063bc9eb2c390604401602060405180830381865afa158015610d5f573d6000803e3d6000fd5b505050506040513d601f19601f82011682018060405250810190610d839190612664565b90505b6001600160a01b0385166000908152602081905260408120805490918167ffffffffffffffff811115610dbb57610dbb61267d565b604051908082528060200260200182016040528015610de4578160200160208202803683370190505b5090506000805b83811015610efe576000858281548110610e0757610e07612758565b906000526020600020015490508815610e425787811015610e285750610eec565b808711158015610e3757508615155b15610e425750610efe565b604051630317277360e41b81526001600160a01b038f811660048301528e81166024830152604482018390528b1690633172773090606401602060405180830381865afa158015610e97573d6000803e3d6000fd5b505050506040513d601f19601f82011682018060405250810190610ebb9190612787565b610eea57808484610ecb8161276e565b955081518110610edd57610edd612758565b6020026020010181815250505b505b80610ef68161276e565b915050610deb565b8167ffffffffffffffff811115610f1757610f1761267d565b604051908082528060200260200182016040528015610f40578160200160208202803683370190505b509a50600090505b81811015610f9957828181518110610f6257610f62612758565b60200260200101518b8281518110610f7c57610f7c612758565b602090810291909101015280610f918161276e565b915050610f48565b505050505050505050505b92915050565b600080600a60009054906101000a90046001600160a01b03166001600160a01b0316638e68dce46040518163ffffffff1660e01b8152600401602060405180830381865afa158015611000573d6000803e3d6000fd5b505050506040513d601f19601f820116820180604052508101906110249190612647565b90506000816001600160a01b031663794c0c686040518163ffffffff1660e01b8152600401602060405180830381865afa158015611066573d6000803e3d6000fd5b505050506040513d601f19601f8201168201806040525081019061108a9190612664565b90508060000361109e575060009392505050565b600a546040516253517560e01b81526001600160a01b03868116600483015260009216906253517590602401602060405180830381865afa1580156110e7573d6000803e3d6000fd5b505050506040513d601f19601f8201168201806040525081019061110b9190612647565b600a5460405163a0d16cad60e01b81526001600160a01b03808416600483015292935091169063a0d16cad90602401602060405180830381865afa158015611157573d6000803e3d6000fd5b505050506040513d601f19601f8201168201806040525081019061117b9190612787565b156111d05760008281526004602090815260408083206001600160a01b03851680855290835281842054868552600384528285209185529252909120546111c7918491620f4240611390565b95945050505050565b60405163a697ecff60e01b81526001600160a01b038681166004830181905260248301526111c791849186169063a697ecff90604401602060405180830381865afa158015611223573d6000803e3d6000fd5b505050506040513d601f19601f820116820180604052508101906112479190612664565b604051632933f0eb60e11b81526001600160a01b038981166004830152871690635267e1d690602401602060405180830381865afa15801561128d573d6000803e3d6000fd5b505050506040513d601f19601f820116820180604052508101906112b19190612664565b620f4240611390565b60008415806112c7575083155b806112d0575082155b156112dd575060006111c7565b600080858510156112ef5760006112f9565b6112f986866127a4565b60008981526005602052604090205490915061131581836127b7565b6113208260646127a4565b61132a90896127b7565b111561134c578561133b89876127b7565b61134591906127ce565b9250611383565b6113578260646127b7565b6113628260646127a4565b61136c8a886127b7565b61137691906127b7565b61138091906127ce565b92505b5090979650505050505050565b600083158061139d575082155b156113aa57506000611438565b600080858510156113bc5760006113c6565b6113c686866127a4565b6000888152600560205260409020549091506113e281836127b7565b6113ed8260646127a4565b6113f790896127b7565b1115611419578561140888876127b7565b61141291906127ce565b9250611432565b606461142582876127b7565b61142f91906127ce565b92505b50909150505b949350505050565b600080600a60009054906101000a90046001600160a01b03166001600160a01b0316638e68dce46040518163ffffffff1660e01b8152600401602060405180830381865afa158015611496573d6000803e3d6000fd5b505050506040513d601f19601f820116820180604052508101906114ba9190612647565b90506000816001600160a01b0316639b03d7446040518163ffffffff1660e01b8152600401602060405180830381865afa1580156114fc573d6000803e3d6000fd5b505050506040513d601f19601f820116820180604052508101906115209190612664565b826001600160a01b03166322e3d9866040518163ffffffff1660e01b8152600401602060405180830381865afa15801561155e573d6000803e3d6000fd5b505050506040513d601f19601f820116820180604052508101906115829190612664565b61158c91906127a4565b9050816001600160a01b03166322e3d9866040518163ffffffff1660e01b8152600401602060405180830381865afa1580156115cc573d6000803e3d6000fd5b505050506040513d601f19601f820116820180604052508101906115f09190612664565b600a60009054906101000a90046001600160a01b03166001600160a01b0316636c9230db6040518163ffffffff1660e01b8152600401602060405180830381865afa158015611643573d6000803e3d6000fd5b505050506040513d601f19601f820116820180604052508101906116679190612664565b1161176a5780826001600160a01b0316639b03d7446040518163ffffffff1660e01b8152600401602060405180830381865afa1580156116ab573d6000803e3d6000fd5b505050506040513d601f19601f820116820180604052508101906116cf9190612664565b600a60009054906101000a90046001600160a01b03166001600160a01b0316636c9230db6040518163ffffffff1660e01b8152600401602060405180830381865afa158015611722573d6000803e3d6000fd5b505050506040513d601f19601f820116820180604052508101906117469190612664565b61175091906127a4565b61175b9060646127b7565b61176591906127ce565b61176e565b6103e85b9250505090565b3460086000828254611787919061249a565b9091555050565b3460066000828254611787919061249a565b7fb53127684a568b3173ae13b9f8a6016e243e63b6e8ee1178d6a717850b5d6103546001600160a01b0316336001600160a01b0316148061181357507fb53127684a568b3173ae13b9f8a6016e243e63b6e8ee1178d6a717850b5d6103546001600160a01b0316326001600160a01b0316145b8061184657507fb53127684a568b3173ae13b9f8a6016e243e63b6e8ee1178d6a717850b5d6103546001600160a01b0316155b8061184f575043155b6118c65760405162461bcd60e51b815260206004820152603060248201527f496e697469616c697a6174696f6e206f6e6c79206f6e2067656e65736973206260448201527f6c6f636b206f722062792061646d696e0000000000000000000000000000000060648201526084015b60405180910390fd5b600a546001600160a01b03161561192b5760405162461bcd60e51b8152602060048201526024808201527f696e697469616c697a6174696f6e2063616e206f6e6c7920626520646f6e65206044820152636f6e636560e01b60648201526084016118bd565b6001600160a01b0381166119815760405162461bcd60e51b815260206004820152601a60248201527f56616c696461746f72536574206d757374206e6f74206265203000000000000060448201526064016118bd565b600a80546001600160a01b039092167fffffffffffffffffffffffff0000000000000000000000000000000000000000928316178155600080526005602052601e7f05b8ccbb9d4d8fb16ea74ce3c29a41f1b461fbdaff4714a0d9a8eb05499746bc556117706007819055600955600b805490921673da0da0da0da0da0da0da00da0da0da0da0da0da0179091556001600c55600d55565b7fb53127684a568b3173ae13b9f8a6016e243e63b6e8ee1178d6a717850b5d6103546001600160a01b0316336001600160a01b031614611aaf5760405162461bcd60e51b815260206004820152602b60248201527f6f6e6c792061646d696e20697320616c6c6f77656420746f2063616c6c20746860448201526a34b990333ab731ba34b7b760a91b60648201526084016118bd565b80600003611aff5760405162461bcd60e51b815260206004820152601d60248201527f5061796f7574206672616374696f6e206d757374206e6f74206265203000000060448201526064016118bd565b600955565b7fb53127684a568b3173ae13b9f8a6016e243e63b6e8ee1178d6a717850b5d6103546001600160a01b0316336001600160a01b031614611b9a5760405162461bcd60e51b815260206004820152602b60248201527f6f6e6c792061646d696e20697320616c6c6f77656420746f2063616c6c20746860448201526a34b990333ab731ba34b7b760a91b60648201526084016118bd565b80600003611bea5760405162461bcd60e51b815260206004820152601d60248201527f5061796f7574206672616374696f6e206d757374206e6f74206265203000000060448201526064016118bd565b600755565b6001600160a01b03811660009081526020818152604091829020805483518184028101840190945280845260609392830182828015611c4d57602002820191906000526020600020905b815481526020019060010190808311611c39575b50505050509050919050565b600080600a60009054906101000a90046001600160a01b03166001600160a01b031663b7ab4db56040518163ffffffff1660e01b8152600401600060405180830381865afa158015611caf573d6000803e3d6000fd5b505050506040513d6000823e601f3d908101601f19168201604052611cd79190810190612693565b80519091506000819003611d2d5760405162461bcd60e51b815260206004820152601460248201527f456d7074792056616c696461746f72206c69737400000000000000000000000060448201526064016118bd565b600080600a60009054906101000a90046001600160a01b03166001600160a01b03166308ac52566040518163ffffffff1660e01b8152600401602060405180830381865afa158015611d83573d6000803e3d6000fd5b505050506040513d601f19601f82011682018060405250810190611da79190612664565b90506000606482600754611db9611440565b87600654611dc791906127b7565b611dd191906127b7565b611ddb91906127ce565b611de591906127ce565b611def91906127ce565b90508060066000828254611e0391906127a4565b925050819055506000606483600954611e1a611440565b88600854611e2891906127b7565b611e3291906127b7565b611e3c91906127ce565b611e4691906127ce565b611e5091906127ce565b90508060086000828254611e6491906127a4565b9091555050600254611e76828461249a565b611e80919061249a565b935050505080600003611e9857506000949350505050565b6000600d54600c5483611eab91906127b7565b611eb591906127ce565b600b546040519192506001600160a01b03169082156108fc029083906000818181858888f19350505050158015611ef0573d6000803e3d6000fd5b506000611efd82846127a4565b905060008467ffffffffffffffff811115611f1a57611f1a61267d565b604051908082528060200260200182016040528015611f43578160200160208202803683370190505b5090506000805b875181101561209657600a5488516001600160a01b039091169063a92252ae908a9084908110611f7c57611f7c612758565b60200260200101516040518263ffffffff1660e01b8152600401611faf91906001600160a01b0391909116815260200190565b602060405180830381865afa158015611fcc573d6000803e3d6000fd5b505050506040513d601f19601f82011682018060405250810190611ff09190612787565b15801561204d5750600460008b8152602001908152602001600020600089838151811061201f5761201f612758565b60200260200101516001600160a01b03166001600160a01b0316815260200190815260200160002054600014155b1561208457600183828151811061206657612066612758565b91151560209283029190910190910152816120808161276e565b9250505b8061208e8161276e565b915050611f4a565b50806000036120ae5750600098975050505050505050565b60006120ba82856127ce565b9050801561228e5760005b8781101561228c578381815181106120df576120df612758565b60200260200101511561227a57600160008c815260200190815260200160002060008a838151811061211357612113612758565b60200260200101516001600160a01b03166001600160a01b03168152602001908152602001600020546000146121d75760405162461bcd60e51b815260206004820152605c60248201527f63616e74206469737472696275746520726577617264733a207468657265206960448201527f7320616c7265616479206120706f6f6c2072657761726420646566696e65642060648201527f666f7220746869732065706f636820616e642076616c696461746f7200000000608482015260a4016118bd565b60008b81526001602052604081208a518492908c90859081106121fc576121fc612758565b6020908102919091018101516001600160a01b031682528101919091526040016000205561222a828761249a565b95506000808a838151811061224157612241612758565b6020908102919091018101516001600160a01b031682528181019290925260400160009081208054600181018255908252919020018b90555b806122848161276e565b9150506120c5565b505b61229885876127a4565b600255509298975050505050505050565b60008281526003602090815260408083206001600160a01b0385168452909152902054156122d657505050565b600a546040516307b9342f60e21b81526001600160a01b0383811660048301526000921690631ee4d0bc90602401602060405180830381865afa158015612321573d6000803e3d6000fd5b505050506040513d601f19601f820116820180604052508101906123459190612647565b604051632933f0eb60e11b81526001600160a01b038083166004830152919250600091861690635267e1d690602401602060405180830381865afa158015612391573d6000803e3d6000fd5b505050506040513d601f19601f820116820180604052508101906123b59190612664565b9050806000036123c6575050505050565b60008481526003602090815260408083206001600160a01b038781168552925291829020839055905163a697ecff60e01b81528382166004820181905260248201529086169063a697ecff90604401602060405180830381865afa158015612432573d6000803e3d6000fd5b505050506040513d601f19601f820116820180604052508101906124569190612664565b60009485526004602090815260408087206001600160a01b0390961687529490529290932091909155505050565b634e487b7160e01b600052601160045260246000fd5b80820180821115610fa457610fa4612484565b80151581146124bb57600080fd5b50565b6000602082840312156124d057600080fd5b81356124db816124ad565b9392505050565b6001600160a01b03811681146124bb57600080fd5b6000806040838503121561250a57600080fd5b82359150602083013561251c816124e2565b809150509250929050565b6000806040838503121561253a57600080fd5b8235612545816124e2565b9150602083013561251c816124e2565b6020808252825182820181905260009190848201906040850190845b8181101561258d57835183529284019291840191600101612571565b50909695505050505050565b6000602082840312156125ab57600080fd5b81356124db816124e2565b600080600080600060a086880312156125ce57600080fd5b505083359560208501359550604085013594606081013594506080013592509050565b6000806000806080858703121561260757600080fd5b5050823594602084013594506040840135936060013592509050565b60006020828403121561263557600080fd5b5035919050565b8051610b63816124e2565b60006020828403121561265957600080fd5b81516124db816124e2565b60006020828403121561267657600080fd5b5051919050565b634e487b7160e01b600052604160045260246000fd5b600060208083850312156126a657600080fd5b825167ffffffffffffffff808211156126be57600080fd5b818501915085601f8301126126d257600080fd5b8151818111156126e4576126e461267d565b8060051b604051601f19603f830116810181811085821117156127095761270961267d565b60405291825284820192508381018501918883111561272757600080fd5b938501935b8285101561274c5761273d8561263c565b8452938501939285019261272c565b98975050505050505050565b634e487b7160e01b600052603260045260246000fd5b60006001820161278057612780612484565b5060010190565b60006020828403121561279957600080fd5b81516124db816124ad565b81810381811115610fa457610fa4612484565b8082028115828204841417610fa457610fa4612484565b6000826127eb57634e487b7160e01b600052601260045260246000fd5b50049056fea26469706673582212202d42b15deb824e5513d8d7b0bd927ebc2bd57cedb67f7363116629f9f706b1d864736f6c63430008110033",
  "linkReferences": {},
  "deployedLinkReferences": {}
}