{
  "_format": "hh-sol-artifact-1",
  "contractName": "BlockRewardHbbft",
  "sourceName": "contracts/BlockRewardHbbft.sol",
  "abi": [
    {
      "anonymous": false,
      "inputs": [
        {
          "indexed": false,
          "internalType": "uint256",
          "name": "rewards",
          "type": "uint256"
        }
      ],
      "name": "CoinsRewarded",
      "type": "event"
    },
    {
      "inputs": [],
      "name": "REWARD_PERCENT_MULTIPLIER",
      "outputs": [
        {
          "internalType": "uint256",
          "name": "",
          "type": "uint256"
        }
      ],
      "stateMutability": "view",
      "type": "function"
    },
    {
      "inputs": [],
      "name": "VALIDATOR_MIN_REWARD_PERCENT",
      "outputs": [
        {
          "internalType": "uint256",
          "name": "",
          "type": "uint256"
        }
      ],
      "stateMutability": "view",
      "type": "function"
    },
    {
      "inputs": [],
      "name": "addToDeltaPot",
      "outputs": [],
      "stateMutability": "payable",
      "type": "function"
    },
    {
      "inputs": [],
      "name": "addToReinsertPot",
      "outputs": [],
      "stateMutability": "payable",
      "type": "function"
    },
    {
      "inputs": [
        {
          "internalType": "uint256",
          "name": "_stakingEpoch",
          "type": "uint256"
        },
        {
          "internalType": "uint256",
          "name": "_delegatorStaked",
          "type": "uint256"
        },
        {
          "internalType": "uint256",
          "name": "_validatorStaked",
          "type": "uint256"
        },
        {
          "internalType": "uint256",
          "name": "_totalStaked",
          "type": "uint256"
        },
        {
          "internalType": "uint256",
          "name": "_poolReward",
          "type": "uint256"
        }
      ],
      "name": "delegatorShare",
      "outputs": [
        {
          "internalType": "uint256",
          "name": "",
          "type": "uint256"
        }
      ],
      "stateMutability": "view",
      "type": "function"
    },
    {
      "inputs": [],
      "name": "deltaPot",
      "outputs": [
        {
          "internalType": "uint256",
          "name": "",
          "type": "uint256"
        }
      ],
      "stateMutability": "view",
      "type": "function"
    },
    {
      "inputs": [],
      "name": "deltaPotPayoutFraction",
      "outputs": [
        {
          "internalType": "uint256",
          "name": "",
          "type": "uint256"
        }
      ],
      "stateMutability": "view",
      "type": "function"
    },
    {
      "inputs": [],
      "name": "epochPercentage",
      "outputs": [
        {
          "internalType": "uint256",
          "name": "",
          "type": "uint256"
        }
      ],
      "stateMutability": "view",
      "type": "function"
    },
    {
      "inputs": [
        {
          "internalType": "uint256",
          "name": "",
          "type": "uint256"
        },
        {
          "internalType": "address",
          "name": "",
          "type": "address"
        }
      ],
      "name": "epochPoolNativeReward",
      "outputs": [
        {
          "internalType": "uint256",
          "name": "",
          "type": "uint256"
        }
      ],
      "stateMutability": "view",
      "type": "function"
    },
    {
      "inputs": [
        {
          "internalType": "address",
          "name": "_miningAddress",
          "type": "address"
        }
      ],
      "name": "epochsPoolGotRewardFor",
      "outputs": [
        {
          "internalType": "uint256[]",
          "name": "",
          "type": "uint256[]"
        }
      ],
      "stateMutability": "view",
      "type": "function"
    },
    {
      "inputs": [
        {
          "internalType": "address",
          "name": "_poolStakingAddress",
          "type": "address"
        },
        {
          "internalType": "address",
          "name": "_staker",
          "type": "address"
        }
      ],
      "name": "epochsToClaimRewardFrom",
      "outputs": [
        {
          "internalType": "uint256[]",
          "name": "epochsToClaimFrom",
          "type": "uint256[]"
        }
      ],
      "stateMutability": "view",
      "type": "function"
    },
    {
      "inputs": [
        {
          "internalType": "uint256",
          "name": "_delegatorStake",
          "type": "uint256"
        },
        {
          "internalType": "uint256",
          "name": "_stakingEpoch",
          "type": "uint256"
        },
        {
          "internalType": "address",
          "name": "_poolMiningAddress",
          "type": "address"
        }
      ],
      "name": "getDelegatorReward",
      "outputs": [
        {
          "internalType": "uint256",
          "name": "nativeReward",
          "type": "uint256"
        }
      ],
      "stateMutability": "view",
      "type": "function"
    },
    {
      "inputs": [
        {
          "internalType": "uint256",
          "name": "_stakingEpoch",
          "type": "uint256"
        },
        {
          "internalType": "address",
          "name": "_poolMiningAddress",
          "type": "address"
        }
      ],
      "name": "getValidatorReward",
      "outputs": [
        {
          "internalType": "uint256",
          "name": "nativeReward",
          "type": "uint256"
        }
      ],
      "stateMutability": "view",
      "type": "function"
    },
    {
      "inputs": [],
      "name": "governancePotAddress",
      "outputs": [
        {
          "internalType": "address payable",
          "name": "",
          "type": "address"
        }
      ],
      "stateMutability": "view",
      "type": "function"
    },
    {
      "inputs": [],
      "name": "governancePotShareDenominator",
      "outputs": [
        {
          "internalType": "uint256",
          "name": "",
          "type": "uint256"
        }
      ],
      "stateMutability": "view",
      "type": "function"
    },
    {
      "inputs": [],
      "name": "governancePotShareNominator",
      "outputs": [
        {
          "internalType": "uint256",
          "name": "",
          "type": "uint256"
        }
      ],
      "stateMutability": "view",
      "type": "function"
    },
    {
      "inputs": [
        {
          "internalType": "address",
          "name": "_validatorSet",
          "type": "address"
        }
      ],
      "name": "initialize",
      "outputs": [],
      "stateMutability": "nonpayable",
      "type": "function"
    },
    {
      "inputs": [],
      "name": "isInitialized",
      "outputs": [
        {
          "internalType": "bool",
          "name": "",
          "type": "bool"
        }
      ],
      "stateMutability": "view",
      "type": "function"
    },
    {
      "inputs": [],
      "name": "nativeRewardUndistributed",
      "outputs": [
        {
          "internalType": "uint256",
          "name": "",
          "type": "uint256"
        }
      ],
      "stateMutability": "view",
      "type": "function"
    },
    {
      "inputs": [],
      "name": "reinsertPot",
      "outputs": [
        {
          "internalType": "uint256",
          "name": "",
          "type": "uint256"
        }
      ],
      "stateMutability": "view",
      "type": "function"
    },
    {
      "inputs": [],
      "name": "reinsertPotPayoutFraction",
      "outputs": [
        {
          "internalType": "uint256",
          "name": "",
          "type": "uint256"
        }
      ],
      "stateMutability": "view",
      "type": "function"
    },
    {
      "inputs": [
        {
          "internalType": "bool",
          "name": "_isEpochEndBlock",
          "type": "bool"
        }
      ],
      "name": "reward",
      "outputs": [
        {
          "internalType": "uint256",
          "name": "rewardsNative",
          "type": "uint256"
        }
      ],
      "stateMutability": "nonpayable",
      "type": "function"
    },
    {
      "inputs": [
        {
          "internalType": "uint256",
          "name": "_value",
          "type": "uint256"
        }
      ],
      "name": "setReinsertPotPayoutFraction",
      "outputs": [],
      "stateMutability": "nonpayable",
      "type": "function"
    },
    {
      "inputs": [
        {
          "internalType": "uint256",
          "name": "_value",
          "type": "uint256"
        }
      ],
      "name": "setdeltaPotPayoutFraction",
      "outputs": [],
      "stateMutability": "nonpayable",
      "type": "function"
    },
    {
      "inputs": [
        {
          "internalType": "uint256",
          "name": "",
          "type": "uint256"
        },
        {
          "internalType": "address",
          "name": "",
          "type": "address"
        }
      ],
      "name": "snapshotPoolTotalStakeAmount",
      "outputs": [
        {
          "internalType": "uint256",
          "name": "",
          "type": "uint256"
        }
      ],
      "stateMutability": "view",
      "type": "function"
    },
    {
      "inputs": [
        {
          "internalType": "uint256",
          "name": "",
          "type": "uint256"
        },
        {
          "internalType": "address",
          "name": "",
          "type": "address"
        }
      ],
      "name": "snapshotPoolValidatorStakeAmount",
      "outputs": [
        {
          "internalType": "uint256",
          "name": "",
          "type": "uint256"
        }
      ],
      "stateMutability": "view",
      "type": "function"
    },
    {
      "inputs": [
        {
          "internalType": "uint256",
          "name": "_nativeCoins",
          "type": "uint256"
        },
        {
          "internalType": "address payable",
          "name": "_to",
          "type": "address"
        }
      ],
      "name": "transferReward",
      "outputs": [],
      "stateMutability": "nonpayable",
      "type": "function"
    },
    {
      "inputs": [
        {
          "internalType": "uint256",
          "name": "",
          "type": "uint256"
        }
      ],
      "name": "validatorMinRewardPercent",
      "outputs": [
        {
          "internalType": "uint256",
          "name": "",
          "type": "uint256"
        }
      ],
      "stateMutability": "view",
      "type": "function"
    },
    {
      "inputs": [
        {
          "internalType": "address",
          "name": "_stakingAddress",
          "type": "address"
        }
      ],
      "name": "validatorRewardPercent",
      "outputs": [
        {
          "internalType": "uint256",
          "name": "",
          "type": "uint256"
        }
      ],
      "stateMutability": "view",
      "type": "function"
    },
    {
      "inputs": [],
      "name": "validatorSetContract",
      "outputs": [
        {
          "internalType": "contract IValidatorSetHbbft",
          "name": "",
          "type": "address"
        }
      ],
      "stateMutability": "view",
      "type": "function"
    },
    {
      "inputs": [
        {
          "internalType": "uint256",
          "name": "_stakingEpoch",
          "type": "uint256"
        },
        {
          "internalType": "uint256",
          "name": "_validatorStaked",
          "type": "uint256"
        },
        {
          "internalType": "uint256",
          "name": "_totalStaked",
          "type": "uint256"
        },
        {
          "internalType": "uint256",
          "name": "_poolReward",
          "type": "uint256"
        }
      ],
      "name": "validatorShare",
      "outputs": [
        {
          "internalType": "uint256",
          "name": "",
          "type": "uint256"
        }
      ],
      "stateMutability": "view",
      "type": "function"
    },
    {
      "stateMutability": "payable",
      "type": "receive"
    }
  ],
  "bytecode": "0x608060405234801561001057600080fd5b50612d26806100206000396000f3fe6080604052600436106101db5760003560e01c80638737929a11610102578063c4d66de811610095578063dd03f5b911610064578063dd03f5b91461056c578063dfc8bf4e1461058c578063e1ab96d8146105ac578063e58edc38146105cc57600080fd5b8063c4d66de8146104df578063c6cc9333146104ff578063cb68d1271461051f578063cdf7a0901461053f57600080fd5b8063adc481a7116100d1578063adc481a714610499578063af182535146104af578063b10c7548146104b7578063ba2d7597146104bf57600080fd5b80638737929a1461043857806391b57986146104585780639a64ca2c1461046e578063a59546e21461048457600080fd5b80633c2c943c1161017a5780635c57a801116101495780635c57a801146103b45780635fba554e146103ca578063728345db146103ea57806373f129581461042257600080fd5b80633c2c943c1461032f578063469507c6146103455780634de6c03614610367578063527d8bc41461039457600080fd5b80631345b8a5116101b65780631345b8a51461025d57806319cee8971461029557806333d69921146102cd578063392e53cd1461030557600080fd5b8062067a84146101ff5780630c0d4173146102325780631274fa091461024757600080fd5b366101fa5734600860008282546101f29190612908565b925050819055005b600080fd5b34801561020b57600080fd5b5061021f61021a36600461292c565b6105e3565b6040519081526020015b60405180910390f35b34801561023e57600080fd5b5061021f601e81565b34801561025357600080fd5b5061021f60095481565b34801561026957600080fd5b5061021f610278366004612965565b600460209081526000928352604080842090915290825290205481565b3480156102a157600080fd5b50600b546102b5906001600160a01b031681565b6040516001600160a01b039091168152602001610229565b3480156102d957600080fd5b5061021f6102e8366004612965565b600160209081526000928352604080842090915290825290205481565b34801561031157600080fd5b50600a546040516001600160a01b0390911615158152602001610229565b34801561033b57600080fd5b5061021f600d5481565b34801561035157600080fd5b50610365610360366004612965565b610dee565b005b34801561037357600080fd5b50610387610382366004612995565b610e90565b60405161022991906129c3565b3480156103a057600080fd5b5061021f6103af366004612a07565b6112d2565b3480156103c057600080fd5b5061021f60065481565b3480156103d657600080fd5b5061021f6103e5366004612a24565b6115e2565b3480156103f657600080fd5b5061021f610405366004612965565b600360209081526000928352604080842090915290825290205481565b34801561042e57600080fd5b5061021f60085481565b34801561044457600080fd5b5061021f610453366004612a5f565b6116b8565b34801561046457600080fd5b5061021f600c5481565b34801561047a57600080fd5b5061021f60075481565b34801561049057600080fd5b5061021f611768565b3480156104a557600080fd5b5061021f60025481565b610365611a9c565b610365611ab5565b3480156104cb57600080fd5b5061021f6104da366004612965565b611ac7565b3480156104eb57600080fd5b506103656104fa366004612a07565b611b23565b34801561050b57600080fd5b5061036561051a366004612a91565b611d9c565b34801561052b57600080fd5b5061036561053a366004612a91565b611e87565b34801561054b57600080fd5b5061021f61055a366004612a91565b60056020526000908152604090205481565b34801561057857600080fd5b50610387610587366004612a07565b611f72565b34801561059857600080fd5b50600a546102b5906001600160a01b031681565b3480156105b857600080fd5b5061021f6105c7366004612aaa565b611fdc565b3480156105d857600080fd5b5061021f620f424081565b600073fffffffffffffffffffffffffffffffffffffffe331461060557600080fd5b600a546040805163239a373960e21b815290516000926001600160a01b031691638e68dce49160048083019260209291908290030181865afa15801561064f573d6000803e3d6000fd5b505050506040513d601f19601f820116820180604052508101906106739190612aee565b9050821561092d576000816001600160a01b031663794c0c686040518163ffffffff1660e01b8152600401602060405180830381865afa1580156106bb573d6000803e3d6000fd5b505050506040513d601f19601f820116820180604052508101906106df9190612b0b565b9050600081156106f5576106f282612044565b90505b600080610703846001612908565b90506060600a60009054906101000a90046001600160a01b03166001600160a01b031663eebc7a396040518163ffffffff1660e01b8152600401600060405180830381865afa15801561075a573d6000803e3d6000fd5b505050506040513d6000823e601f3d908101601f191682016040526107829190810190612b3a565b9050600092505b80518310156107c8576107b686838386815181106107a9576107a9612bff565b6020026020010151612694565b826107c081612c15565b935050610789565b600a60009054906101000a90046001600160a01b03166001600160a01b031663b7ab4db56040518163ffffffff1660e01b8152600401600060405180830381865afa15801561081b573d6000803e3d6000fd5b505050506040513d6000823e601f3d908101601f191682016040526108439190810190612b3a565b9050600092505b805183101561087c5761086a86838386815181106107a9576107a9612bff565b8261087481612c15565b93505061084a565b600082815260056020526040808220601e9055600a548151637528621160e01b815291516001600160a01b03909116926375286211926004808201939182900301818387803b1580156108ce57600080fd5b505af11580156108e2573d6000803e3d6000fd5b505050507ff32b9551d3414b67f8e66e20ac15e62694b9d1230abb2e2e48f9dc2e1964c4298460405161091791815260200190565b60405180910390a1506000979650505050505050565b6000816001600160a01b031663c6912cc06040518163ffffffff1660e01b8152600401602060405180830381865afa15801561096d573d6000803e3d6000fd5b505050506040513d601f19601f820116820180604052508101906109919190612b0b565b90506000600a60009054906101000a90046001600160a01b03166001600160a01b0316636c9230db6040518163ffffffff1660e01b8152600401602060405180830381865afa1580156109e8573d6000803e3d6000fd5b505050506040513d601f19601f82011682018060405250810190610a0c9190612b0b565b90506000600a60009054906101000a90046001600160a01b03166001600160a01b031663b7ab4db56040518163ffffffff1660e01b8152600401600060405180830381865afa158015610a63573d6000803e3d6000fd5b505050506040513d6000823e601f3d908101601f19168201604052610a8b9190810190612b3a565b600a5460408051630456292b60e11b8152905192935085851015926000926001600160a01b0316916308ac52569160048083019260209291908290030181865afa158015610add573d6000803e3d6000fd5b505050506040513d601f19601f82011682018060405250810190610b019190612b0b565b610b0c906002612c2e565b8351610b19906003612c2e565b11610c11576000866001600160a01b031663a5d54f656040518163ffffffff1660e01b8152600401600060405180830381865afa158015610b5e573d6000803e3d6000fd5b505050506040513d6000823e601f3d908101601f19168201604052610b869190810190612b3a565b519050600081118015610c0557508351600a5460405163efd0494760e01b8152600481018490526001600160a01b039091169063efd0494790602401602060405180830381865afa158015610bdf573d6000803e3d6000fd5b505050506040513d601f19601f82011682018060405250810190610c039190612b0b565b115b15610c0f57600191505b505b8180610c1a5750805b8015610c9f5750600a60009054906101000a90046001600160a01b03166001600160a01b031663eebc7a396040518163ffffffff1660e01b8152600401600060405180830381865afa158015610c74573d6000803e3d6000fd5b505050506040513d6000823e601f3d908101601f19168201604052610c9c9190810190612b3a565b51155b15610d1157600a60009054906101000a90046001600160a01b03166001600160a01b0316635ccee1de6040518163ffffffff1660e01b8152600401600060405180830381600087803b158015610cf457600080fd5b505af1158015610d08573d6000803e3d6000fd5b50505050610de2565b856001600160a01b03166322e3d9866040518163ffffffff1660e01b8152600401602060405180830381865afa158015610d4f573d6000803e3d6000fd5b505050506040513d601f19601f82011682018060405250810190610d739190612b0b565b8410610de257600a60009054906101000a90046001600160a01b03166001600160a01b031663ade1900a6040518163ffffffff1660e01b8152600401600060405180830381600087803b158015610dc957600080fd5b505af1158015610ddd573d6000803e3d6000fd5b505050505b5050505050505b919050565b600a60009054906101000a90046001600160a01b03166001600160a01b0316638e68dce46040518163ffffffff1660e01b8152600401602060405180830381865afa158015610e41573d6000803e3d6000fd5b505050506040513d601f19601f82011682018060405250810190610e659190612aee565b6001600160a01b0316336001600160a01b031614610e8257600080fd5b610e8c828261286f565b5050565b600a546040516253517560e01b81526001600160a01b0384811660048301526060926000929116906253517590602401602060405180830381865afa158015610edd573d6000803e3d6000fd5b505050506040513d601f19601f82011682018060405250810190610f019190612aee565b90506000600a60009054906101000a90046001600160a01b03166001600160a01b0316638e68dce46040518163ffffffff1660e01b8152600401602060405180830381865afa158015610f58573d6000803e3d6000fd5b505050506040513d601f19601f82011682018060405250810190610f7c9190612aee565b90506000846001600160a01b0316866001600160a01b03161415905060008082156110ae57604051632b2cdba160e11b81526001600160a01b0389811660048301528881166024830152851690635659b74290604401602060405180830381865afa158015610fef573d6000803e3d6000fd5b505050506040513d601f19601f820116820180604052508101906110139190612b0b565b91508160000361103957505060408051600081526020810190915293506112cc92505050565b60405163bc9eb2c360e01b81526001600160a01b038981166004830152888116602483015285169063bc9eb2c390604401602060405180830381865afa158015611087573d6000803e3d6000fd5b505050506040513d601f19601f820116820180604052508101906110ab9190612b0b565b90505b6001600160a01b0385166000908152602081905260408120805490918167ffffffffffffffff8111156110e3576110e3612b24565b60405190808252806020026020018201604052801561110c578160200160208202803683370190505b5090506000805b8381101561122657600085828154811061112f5761112f612bff565b90600052602060002001549050881561116a57878110156111505750611214565b80871115801561115f57508615155b1561116a5750611226565b604051630317277360e41b81526001600160a01b038f811660048301528e81166024830152604482018390528b1690633172773090606401602060405180830381865afa1580156111bf573d6000803e3d6000fd5b505050506040513d601f19601f820116820180604052508101906111e39190612c45565b611212578084846111f381612c15565b95508151811061120557611205612bff565b6020026020010181815250505b505b8061121e81612c15565b915050611113565b8167ffffffffffffffff81111561123f5761123f612b24565b604051908082528060200260200182016040528015611268578160200160208202803683370190505b509a50600090505b818110156112c15782818151811061128a5761128a612bff565b60200260200101518b82815181106112a4576112a4612bff565b6020908102919091010152806112b981612c15565b915050611270565b505050505050505050505b92915050565b600080600a60009054906101000a90046001600160a01b03166001600160a01b0316638e68dce46040518163ffffffff1660e01b8152600401602060405180830381865afa158015611328573d6000803e3d6000fd5b505050506040513d601f19601f8201168201806040525081019061134c9190612aee565b90506000816001600160a01b031663794c0c686040518163ffffffff1660e01b8152600401602060405180830381865afa15801561138e573d6000803e3d6000fd5b505050506040513d601f19601f820116820180604052508101906113b29190612b0b565b9050806000036113c6575060009392505050565b600a546040516253517560e01b81526001600160a01b03868116600483015260009216906253517590602401602060405180830381865afa15801561140f573d6000803e3d6000fd5b505050506040513d601f19601f820116820180604052508101906114339190612aee565b600a5460405163a0d16cad60e01b81526001600160a01b03808416600483015292935091169063a0d16cad90602401602060405180830381865afa15801561147f573d6000803e3d6000fd5b505050506040513d601f19601f820116820180604052508101906114a39190612c45565b156114f85760008281526004602090815260408083206001600160a01b03851680855290835281842054868552600384528285209185529252909120546114ef918491620f42406116b8565b95945050505050565b60405163a697ecff60e01b81526001600160a01b038681166004830181905260248301526114ef91849186169063a697ecff90604401602060405180830381865afa15801561154b573d6000803e3d6000fd5b505050506040513d601f19601f8201168201806040525081019061156f9190612b0b565b604051632933f0eb60e11b81526001600160a01b038981166004830152871690635267e1d690602401602060405180830381865afa1580156115b5573d6000803e3d6000fd5b505050506040513d601f19601f820116820180604052508101906115d99190612b0b565b620f42406116b8565b60008415806115ef575083155b806115f8575082155b15611605575060006114ef565b60008085851015611617576000611621565b6116218686612c62565b60008981526005602052604090205490915061163d8183612c2e565b611648826064612c62565b6116529089612c2e565b111561167457856116638987612c2e565b61166d9190612c75565b92506116ab565b61167f826064612c2e565b61168a826064612c62565b6116948a88612c2e565b61169e9190612c2e565b6116a89190612c75565b92505b5090979650505050505050565b60008315806116c5575082155b156116d257506000611760565b600080858510156116e45760006116ee565b6116ee8686612c62565b60008881526005602052604090205490915061170a8183612c2e565b611715826064612c62565b61171f9089612c2e565b111561174157856117308887612c2e565b61173a9190612c75565b925061175a565b606461174d8287612c2e565b6117579190612c75565b92505b50909150505b949350505050565b600080600a60009054906101000a90046001600160a01b03166001600160a01b0316638e68dce46040518163ffffffff1660e01b8152600401602060405180830381865afa1580156117be573d6000803e3d6000fd5b505050506040513d601f19601f820116820180604052508101906117e29190612aee565b90506000816001600160a01b0316639b03d7446040518163ffffffff1660e01b8152600401602060405180830381865afa158015611824573d6000803e3d6000fd5b505050506040513d601f19601f820116820180604052508101906118489190612b0b565b826001600160a01b03166322e3d9866040518163ffffffff1660e01b8152600401602060405180830381865afa158015611886573d6000803e3d6000fd5b505050506040513d601f19601f820116820180604052508101906118aa9190612b0b565b6118b49190612c62565b9050816001600160a01b03166322e3d9866040518163ffffffff1660e01b8152600401602060405180830381865afa1580156118f4573d6000803e3d6000fd5b505050506040513d601f19601f820116820180604052508101906119189190612b0b565b600a60009054906101000a90046001600160a01b03166001600160a01b0316636c9230db6040518163ffffffff1660e01b8152600401602060405180830381865afa15801561196b573d6000803e3d6000fd5b505050506040513d601f19601f8201168201806040525081019061198f9190612b0b565b11611a925780826001600160a01b0316639b03d7446040518163ffffffff1660e01b8152600401602060405180830381865afa1580156119d3573d6000803e3d6000fd5b505050506040513d601f19601f820116820180604052508101906119f79190612b0b565b600a60009054906101000a90046001600160a01b03166001600160a01b0316636c9230db6040518163ffffffff1660e01b8152600401602060405180830381865afa158015611a4a573d6000803e3d6000fd5b505050506040513d601f19601f82011682018060405250810190611a6e9190612b0b565b611a789190612c62565b611a83906064612c2e565b611a8d9190612c75565b611a95565b60645b9250505090565b3460086000828254611aae9190612908565b9091555050565b3460066000828254611aae9190612908565b60008281526004602090815260408083206001600160a01b03851680855290835281842054868552600384528285208286528452828520548786526001855283862092865291909352908320546114ef908690849084906116b8565b7fb53127684a568b3173ae13b9f8a6016e243e63b6e8ee1178d6a717850b5d6103546001600160a01b0316336001600160a01b03161480611b9657507fb53127684a568b3173ae13b9f8a6016e243e63b6e8ee1178d6a717850b5d6103546001600160a01b0316326001600160a01b0316145b80611bc957507fb53127684a568b3173ae13b9f8a6016e243e63b6e8ee1178d6a717850b5d6103546001600160a01b0316155b80611bd2575043155b611c495760405162461bcd60e51b815260206004820152603060248201527f496e697469616c697a6174696f6e206f6e6c79206f6e2067656e65736973206260448201527f6c6f636b206f722062792061646d696e0000000000000000000000000000000060648201526084015b60405180910390fd5b600a546001600160a01b031615611cae5760405162461bcd60e51b8152602060048201526024808201527f696e697469616c697a6174696f6e2063616e206f6e6c7920626520646f6e65206044820152636f6e636560e01b6064820152608401611c40565b6001600160a01b038116611d045760405162461bcd60e51b815260206004820152601a60248201527f56616c696461746f72536574206d757374206e6f7420626520300000000000006044820152606401611c40565b600a80546001600160a01b039092167fffffffffffffffffffffffff0000000000000000000000000000000000000000928316178155600080526005602052601e7f05b8ccbb9d4d8fb16ea74ce3c29a41f1b461fbdaff4714a0d9a8eb05499746bc556117706007819055600955600b805490921673da0da0da0da0da0da0da00da0da0da0da0da0da0179091556001600c55600d55565b7fb53127684a568b3173ae13b9f8a6016e243e63b6e8ee1178d6a717850b5d6103546001600160a01b0316336001600160a01b031614611e325760405162461bcd60e51b815260206004820152602b60248201527f6f6e6c792061646d696e20697320616c6c6f77656420746f2063616c6c20746860448201526a34b990333ab731ba34b7b760a91b6064820152608401611c40565b80600003611e825760405162461bcd60e51b815260206004820152601d60248201527f5061796f7574206672616374696f6e206d757374206e6f7420626520300000006044820152606401611c40565b600955565b7fb53127684a568b3173ae13b9f8a6016e243e63b6e8ee1178d6a717850b5d6103546001600160a01b0316336001600160a01b031614611f1d5760405162461bcd60e51b815260206004820152602b60248201527f6f6e6c792061646d696e20697320616c6c6f77656420746f2063616c6c20746860448201526a34b990333ab731ba34b7b760a91b6064820152608401611c40565b80600003611f6d5760405162461bcd60e51b815260206004820152601d60248201527f5061796f7574206672616374696f6e206d757374206e6f7420626520300000006044820152606401611c40565b600755565b6001600160a01b03811660009081526020818152604091829020805483518184028101840190945280845260609392830182828015611fd057602002820191906000526020600020905b815481526020019060010190808311611fbc575b50505050509050919050565b60008281526004602090815260408083206001600160a01b038516808552908352818420548685526003845282852082865284528285205487865260018552838620928652919093529083205461203a9086908890859085906115e2565b9695505050505050565b600080600a60009054906101000a90046001600160a01b03166001600160a01b031663b7ab4db56040518163ffffffff1660e01b8152600401600060405180830381865afa15801561209a573d6000803e3d6000fd5b505050506040513d6000823e601f3d908101601f191682016040526120c29190810190612b3a565b805190915060008190036121185760405162461bcd60e51b815260206004820152601460248201527f456d7074792056616c696461746f72206c6973740000000000000000000000006044820152606401611c40565b600080600a60009054906101000a90046001600160a01b03166001600160a01b03166308ac52566040518163ffffffff1660e01b8152600401602060405180830381865afa15801561216e573d6000803e3d6000fd5b505050506040513d601f19601f820116820180604052508101906121929190612b0b565b905060006064826007546121a4611768565b876006546121b29190612c2e565b6121bc9190612c2e565b6121c69190612c75565b6121d09190612c75565b6121da9190612c75565b905080600660008282546121ee9190612c62565b925050819055506000606483600954612205611768565b886008546122139190612c2e565b61221d9190612c2e565b6122279190612c75565b6122319190612c75565b61223b9190612c75565b9050806008600082825461224f9190612c62565b90915550506002546122618284612908565b61226b9190612908565b93505050508060000361228357506000949350505050565b6000600d54600c54836122969190612c2e565b6122a09190612c75565b600b546040519192506001600160a01b03169082156108fc029083906000818181858888f193505050501580156122db573d6000803e3d6000fd5b5060006122e88284612c62565b905060008467ffffffffffffffff81111561230557612305612b24565b60405190808252806020026020018201604052801561232e578160200160208202803683370190505b5090506000805b875181101561248157600a5488516001600160a01b039091169063a92252ae908a908490811061236757612367612bff565b60200260200101516040518263ffffffff1660e01b815260040161239a91906001600160a01b0391909116815260200190565b602060405180830381865afa1580156123b7573d6000803e3d6000fd5b505050506040513d601f19601f820116820180604052508101906123db9190612c45565b1580156124385750600460008b8152602001908152602001600020600089838151811061240a5761240a612bff565b60200260200101516001600160a01b03166001600160a01b0316815260200190815260200160002054600014155b1561246f57600183828151811061245157612451612bff565b911515602092830291909101909101528161246b81612c15565b9250505b8061247981612c15565b915050612335565b50806000036124995750600098975050505050505050565b60006124a58285612c75565b905080156126795760005b87811015612677578381815181106124ca576124ca612bff565b60200260200101511561266557600160008c815260200190815260200160002060008a83815181106124fe576124fe612bff565b60200260200101516001600160a01b03166001600160a01b03168152602001908152602001600020546000146125c25760405162461bcd60e51b815260206004820152605c60248201527f63616e74206469737472696275746520726577617264733a207468657265206960448201527f7320616c7265616479206120706f6f6c2072657761726420646566696e65642060648201527f666f7220746869732065706f636820616e642076616c696461746f7200000000608482015260a401611c40565b60008b81526001602052604081208a518492908c90859081106125e7576125e7612bff565b6020908102919091018101516001600160a01b03168252810191909152604001600020556126158287612908565b95506000808a838151811061262c5761262c612bff565b6020908102919091018101516001600160a01b031682528181019290925260400160009081208054600181018255908252919020018b90555b8061266f81612c15565b9150506124b0565b505b6126838587612c62565b600255509298975050505050505050565b60008281526003602090815260408083206001600160a01b0385168452909152902054156126c157505050565b600a546040516307b9342f60e21b81526001600160a01b0383811660048301526000921690631ee4d0bc90602401602060405180830381865afa15801561270c573d6000803e3d6000fd5b505050506040513d601f19601f820116820180604052508101906127309190612aee565b604051632933f0eb60e11b81526001600160a01b038083166004830152919250600091861690635267e1d690602401602060405180830381865afa15801561277c573d6000803e3d6000fd5b505050506040513d601f19601f820116820180604052508101906127a09190612b0b565b9050806000036127b1575050505050565b60008481526003602090815260408083206001600160a01b038781168552925291829020839055905163a697ecff60e01b81528382166004820181905260248201529086169063a697ecff90604401602060405180830381865afa15801561281d573d6000803e3d6000fd5b505050506040513d601f19601f820116820180604052508101906128419190612b0b565b60009485526004602090815260408087206001600160a01b0390961687529490529290932091909155505050565b81158015906128a057506040516001600160a01b0382169083156108fc029084906000818181858888f19350505050155b15610e8c5781816040516128b3906128e6565b6001600160a01b0390911681526020016040518091039082f09050801580156128e0573d6000803e3d6000fd5b50505050565b605980612c9883390190565b634e487b7160e01b600052601160045260246000fd5b808201808211156112cc576112cc6128f2565b801515811461292957600080fd5b50565b60006020828403121561293e57600080fd5b81356129498161291b565b9392505050565b6001600160a01b038116811461292957600080fd5b6000806040838503121561297857600080fd5b82359150602083013561298a81612950565b809150509250929050565b600080604083850312156129a857600080fd5b82356129b381612950565b9150602083013561298a81612950565b6020808252825182820181905260009190848201906040850190845b818110156129fb578351835292840192918401916001016129df565b50909695505050505050565b600060208284031215612a1957600080fd5b813561294981612950565b600080600080600060a08688031215612a3c57600080fd5b505083359560208501359550604085013594606081013594506080013592509050565b60008060008060808587031215612a7557600080fd5b5050823594602084013594506040840135936060013592509050565b600060208284031215612aa357600080fd5b5035919050565b600080600060608486031215612abf57600080fd5b83359250602084013591506040840135612ad881612950565b809150509250925092565b8051610de981612950565b600060208284031215612b0057600080fd5b815161294981612950565b600060208284031215612b1d57600080fd5b5051919050565b634e487b7160e01b600052604160045260246000fd5b60006020808385031215612b4d57600080fd5b825167ffffffffffffffff80821115612b6557600080fd5b818501915085601f830112612b7957600080fd5b815181811115612b8b57612b8b612b24565b8060051b604051601f19603f83011681018181108582111715612bb057612bb0612b24565b604052918252848201925083810185019188831115612bce57600080fd5b938501935b82851015612bf357612be485612ae3565b84529385019392850192612bd3565b98975050505050505050565b634e487b7160e01b600052603260045260246000fd5b600060018201612c2757612c276128f2565b5060010190565b80820281158282048414176112cc576112cc6128f2565b600060208284031215612c5757600080fd5b81516129498161291b565b818103818111156112cc576112cc6128f2565b600082612c9257634e487b7160e01b600052601260045260246000fd5b50049056fe608060405260405160593803806059833981016040819052601e91602a565b806001600160a01b0316ff5b600060208284031215603b57600080fd5b81516001600160a01b0381168114605157600080fd5b939250505056fea2646970667358221220c7db45872fa47732e0aadabb0fc4646d63433c061b4c777d7daf16225720cf0964736f6c63430008110033",
  "linkReferences": {},
  "deployedLinkReferences": {}
}