{
  "_format": "hh-sol-artifact-1",
  "contractName": "BlockRewardHbbftBaseMock",
  "sourceName": "contracts/mockContracts/BlockRewardHbbftBaseMock.sol",
  "abi": [
    {
      "anonymous": false,
      "inputs": [
        {
          "indexed": false,
          "internalType": "uint256",
          "name": "rewards",
          "type": "uint256"
        }
      ],
      "name": "CoinsRewarded",
      "type": "event"
    },
    {
      "inputs": [],
      "name": "REWARD_PERCENT_MULTIPLIER",
      "outputs": [
        {
          "internalType": "uint256",
          "name": "",
          "type": "uint256"
        }
      ],
      "stateMutability": "view",
      "type": "function"
    },
    {
      "inputs": [],
      "name": "VALIDATOR_MIN_REWARD_PERCENT",
      "outputs": [
        {
          "internalType": "uint256",
          "name": "",
          "type": "uint256"
        }
      ],
      "stateMutability": "view",
      "type": "function"
    },
    {
      "inputs": [],
      "name": "addToDeltaPot",
      "outputs": [],
      "stateMutability": "payable",
      "type": "function"
    },
    {
      "inputs": [],
      "name": "addToReinsertPot",
      "outputs": [],
      "stateMutability": "payable",
      "type": "function"
    },
    {
      "inputs": [
        {
          "internalType": "uint256",
          "name": "_stakingEpoch",
          "type": "uint256"
        },
        {
          "internalType": "uint256",
          "name": "_delegatorStaked",
          "type": "uint256"
        },
        {
          "internalType": "uint256",
          "name": "_validatorStaked",
          "type": "uint256"
        },
        {
          "internalType": "uint256",
          "name": "_totalStaked",
          "type": "uint256"
        },
        {
          "internalType": "uint256",
          "name": "_poolReward",
          "type": "uint256"
        }
      ],
      "name": "delegatorShare",
      "outputs": [
        {
          "internalType": "uint256",
          "name": "",
          "type": "uint256"
        }
      ],
      "stateMutability": "view",
      "type": "function"
    },
    {
      "inputs": [],
      "name": "deltaPot",
      "outputs": [
        {
          "internalType": "uint256",
          "name": "",
          "type": "uint256"
        }
      ],
      "stateMutability": "view",
      "type": "function"
    },
    {
      "inputs": [],
      "name": "deltaPotPayoutFraction",
      "outputs": [
        {
          "internalType": "uint256",
          "name": "",
          "type": "uint256"
        }
      ],
      "stateMutability": "view",
      "type": "function"
    },
    {
      "inputs": [],
      "name": "epochPercentage",
      "outputs": [
        {
          "internalType": "uint256",
          "name": "",
          "type": "uint256"
        }
      ],
      "stateMutability": "view",
      "type": "function"
    },
    {
      "inputs": [
        {
          "internalType": "uint256",
          "name": "",
          "type": "uint256"
        },
        {
          "internalType": "address",
          "name": "",
          "type": "address"
        }
      ],
      "name": "epochPoolNativeReward",
      "outputs": [
        {
          "internalType": "uint256",
          "name": "",
          "type": "uint256"
        }
      ],
      "stateMutability": "view",
      "type": "function"
    },
    {
      "inputs": [
        {
          "internalType": "address",
          "name": "_miningAddress",
          "type": "address"
        }
      ],
      "name": "epochsPoolGotRewardFor",
      "outputs": [
        {
          "internalType": "uint256[]",
          "name": "",
          "type": "uint256[]"
        }
      ],
      "stateMutability": "view",
      "type": "function"
    },
    {
      "inputs": [
        {
          "internalType": "address",
          "name": "_poolStakingAddress",
          "type": "address"
        },
        {
          "internalType": "address",
          "name": "_staker",
          "type": "address"
        }
      ],
      "name": "epochsToClaimRewardFrom",
      "outputs": [
        {
          "internalType": "uint256[]",
          "name": "epochsToClaimFrom",
          "type": "uint256[]"
        }
      ],
      "stateMutability": "view",
      "type": "function"
    },
    {
      "inputs": [],
      "name": "governancePotAddress",
      "outputs": [
        {
          "internalType": "address payable",
          "name": "",
          "type": "address"
        }
      ],
      "stateMutability": "view",
      "type": "function"
    },
    {
      "inputs": [],
      "name": "governancePotShareDenominator",
      "outputs": [
        {
          "internalType": "uint256",
          "name": "",
          "type": "uint256"
        }
      ],
      "stateMutability": "view",
      "type": "function"
    },
    {
      "inputs": [],
      "name": "governancePotShareNominator",
      "outputs": [
        {
          "internalType": "uint256",
          "name": "",
          "type": "uint256"
        }
      ],
      "stateMutability": "view",
      "type": "function"
    },
    {
      "inputs": [
        {
          "internalType": "address",
          "name": "_validatorSet",
          "type": "address"
        }
      ],
      "name": "initialize",
      "outputs": [],
      "stateMutability": "nonpayable",
      "type": "function"
    },
    {
      "inputs": [],
      "name": "isInitialized",
      "outputs": [
        {
          "internalType": "bool",
          "name": "",
          "type": "bool"
        }
      ],
      "stateMutability": "view",
      "type": "function"
    },
    {
      "inputs": [],
      "name": "nativeRewardUndistributed",
      "outputs": [
        {
          "internalType": "uint256",
          "name": "",
          "type": "uint256"
        }
      ],
      "stateMutability": "view",
      "type": "function"
    },
    {
      "inputs": [],
      "name": "reinsertPot",
      "outputs": [
        {
          "internalType": "uint256",
          "name": "",
          "type": "uint256"
        }
      ],
      "stateMutability": "view",
      "type": "function"
    },
    {
      "inputs": [],
      "name": "reinsertPotPayoutFraction",
      "outputs": [
        {
          "internalType": "uint256",
          "name": "",
          "type": "uint256"
        }
      ],
      "stateMutability": "view",
      "type": "function"
    },
    {
      "inputs": [
        {
          "internalType": "bool",
          "name": "_isEpochEndBlock",
          "type": "bool"
        }
      ],
      "name": "reward",
      "outputs": [
        {
          "internalType": "uint256",
          "name": "rewardsNative",
          "type": "uint256"
        }
      ],
      "stateMutability": "nonpayable",
      "type": "function"
    },
    {
      "inputs": [],
      "name": "sendCoins",
      "outputs": [],
      "stateMutability": "payable",
      "type": "function"
    },
    {
      "inputs": [
        {
          "internalType": "uint256",
          "name": "_value",
          "type": "uint256"
        }
      ],
      "name": "setReinsertPotPayoutFraction",
      "outputs": [],
      "stateMutability": "nonpayable",
      "type": "function"
    },
    {
      "inputs": [
        {
          "internalType": "uint256",
          "name": "_stakingEpoch",
          "type": "uint256"
        },
        {
          "internalType": "address",
          "name": "_poolMiningAddress",
          "type": "address"
        },
        {
          "internalType": "uint256",
          "name": "_amount",
          "type": "uint256"
        }
      ],
      "name": "setSnapshotPoolValidatorStakeAmount",
      "outputs": [],
      "stateMutability": "nonpayable",
      "type": "function"
    },
    {
      "inputs": [
        {
          "internalType": "address",
          "name": "_address",
          "type": "address"
        }
      ],
      "name": "setSystemAddress",
      "outputs": [],
      "stateMutability": "nonpayable",
      "type": "function"
    },
    {
      "inputs": [
        {
          "internalType": "uint256",
          "name": "_stakingEpoch",
          "type": "uint256"
        },
        {
          "internalType": "uint256",
          "name": "_percent",
          "type": "uint256"
        }
      ],
      "name": "setValidatorMinRewardPercent",
      "outputs": [],
      "stateMutability": "nonpayable",
      "type": "function"
    },
    {
      "inputs": [
        {
          "internalType": "uint256",
          "name": "_value",
          "type": "uint256"
        }
      ],
      "name": "setdeltaPotPayoutFraction",
      "outputs": [],
      "stateMutability": "nonpayable",
      "type": "function"
    },
    {
      "inputs": [
        {
          "internalType": "contract IStakingHbbft",
          "name": "_stakingContract",
          "type": "address"
        },
        {
          "internalType": "uint256",
          "name": "_stakingEpoch",
          "type": "uint256"
        },
        {
          "internalType": "address",
          "name": "_miningAddress",
          "type": "address"
        }
      ],
      "name": "snapshotPoolStakeAmounts",
      "outputs": [],
      "stateMutability": "nonpayable",
      "type": "function"
    },
    {
      "inputs": [
        {
          "internalType": "uint256",
          "name": "",
          "type": "uint256"
        },
        {
          "internalType": "address",
          "name": "",
          "type": "address"
        }
      ],
      "name": "snapshotPoolTotalStakeAmount",
      "outputs": [
        {
          "internalType": "uint256",
          "name": "",
          "type": "uint256"
        }
      ],
      "stateMutability": "view",
      "type": "function"
    },
    {
      "inputs": [
        {
          "internalType": "uint256",
          "name": "",
          "type": "uint256"
        },
        {
          "internalType": "address",
          "name": "",
          "type": "address"
        }
      ],
      "name": "snapshotPoolValidatorStakeAmount",
      "outputs": [
        {
          "internalType": "uint256",
          "name": "",
          "type": "uint256"
        }
      ],
      "stateMutability": "view",
      "type": "function"
    },
    {
      "inputs": [
        {
          "internalType": "uint256",
          "name": "",
          "type": "uint256"
        }
      ],
      "name": "validatorMinRewardPercent",
      "outputs": [
        {
          "internalType": "uint256",
          "name": "",
          "type": "uint256"
        }
      ],
      "stateMutability": "view",
      "type": "function"
    },
    {
      "inputs": [
        {
          "internalType": "address",
          "name": "_stakingAddress",
          "type": "address"
        }
      ],
      "name": "validatorRewardPercent",
      "outputs": [
        {
          "internalType": "uint256",
          "name": "",
          "type": "uint256"
        }
      ],
      "stateMutability": "view",
      "type": "function"
    },
    {
      "inputs": [],
      "name": "validatorSetContract",
      "outputs": [
        {
          "internalType": "contract IValidatorSetHbbft",
          "name": "",
          "type": "address"
        }
      ],
      "stateMutability": "view",
      "type": "function"
    },
    {
      "inputs": [
        {
          "internalType": "uint256",
          "name": "_stakingEpoch",
          "type": "uint256"
        },
        {
          "internalType": "uint256",
          "name": "_validatorStaked",
          "type": "uint256"
        },
        {
          "internalType": "uint256",
          "name": "_totalStaked",
          "type": "uint256"
        },
        {
          "internalType": "uint256",
          "name": "_poolReward",
          "type": "uint256"
        }
      ],
      "name": "validatorShare",
      "outputs": [
        {
          "internalType": "uint256",
          "name": "",
          "type": "uint256"
        }
      ],
      "stateMutability": "view",
      "type": "function"
    },
    {
      "stateMutability": "payable",
      "type": "receive"
    }
  ],
  "bytecode": "0x608060405234801561001057600080fd5b50612bf9806100206000396000f3fe6080604052600436106102015760003560e01c80638737929a1161011d578063c6cc9333116100b0578063d88aebd71161007f578063dfc8bf4e11610064578063dfc8bf4e1461064a578063e58edc381461066a578063f302163d146102a257600080fd5b8063d88aebd71461060a578063dd03f5b91461062a57600080fd5b8063c6cc933314610570578063cb68d12714610590578063cdf7a090146105b0578063d0899cb4146105dd57600080fd5b8063adc481a7116100ec578063adc481a71461052a578063af18253514610540578063b10c754814610548578063c4d66de81461055057600080fd5b80638737929a146104c957806391b57986146104e95780639a64ca2c146104ff578063a59546e21461051557600080fd5b8063392e53cd116101955780635c57a801116101645780635c57a801146104455780635fba554e1461045b578063728345db1461047b57806373f12958146104b357600080fd5b8063392e53cd146103b85780633c2c943c146103e25780634de6c036146103f8578063527d8bc41461042557600080fd5b80631274fa09116101d15780631274fa09146102fa5780631345b8a51461031057806319cee8971461034857806333d699211461038057600080fd5b8062067a841461022557806306210197146102585780630c0d4173146102a45780630dcbf155146102b957600080fd5b3661022057346008600082825461021891906127d1565b925050819055005b600080fd5b34801561023157600080fd5b506102456102403660046127f5565b610681565b6040519081526020015b60405180910390f35b34801561026457600080fd5b506102a261027336600461282e565b600e805473ffffffffffffffffffffffffffffffffffffffff19166001600160a01b0392909216919091179055565b005b3480156102b057600080fd5b50610245601e81565b3480156102c557600080fd5b506102a26102d436600461284b565b60009283526004602090815260408085206001600160a01b039094168552929052912055565b34801561030657600080fd5b5061024560095481565b34801561031c57600080fd5b5061024561032b366004612883565b600460209081526000928352604080842090915290825290205481565b34801561035457600080fd5b50600b54610368906001600160a01b031681565b6040516001600160a01b03909116815260200161024f565b34801561038c57600080fd5b5061024561039b366004612883565b600160209081526000928352604080842090915290825290205481565b3480156103c457600080fd5b50600a546040516001600160a01b039091161515815260200161024f565b3480156103ee57600080fd5b50610245600d5481565b34801561040457600080fd5b506104186104133660046128b3565b610e9b565b60405161024f91906128e1565b34801561043157600080fd5b5061024561044036600461282e565b6112dd565b34801561045157600080fd5b5061024560065481565b34801561046757600080fd5b50610245610476366004612925565b6115ed565b34801561048757600080fd5b50610245610496366004612883565b600360209081526000928352604080842090915290825290205481565b3480156104bf57600080fd5b5061024560085481565b3480156104d557600080fd5b506102456104e4366004612960565b6116c3565b3480156104f557600080fd5b50610245600c5481565b34801561050b57600080fd5b5061024560075481565b34801561052157600080fd5b50610245611773565b34801561053657600080fd5b5061024560025481565b6102a2611aa7565b6102a2611ac0565b34801561055c57600080fd5b506102a261056b36600461282e565b611ad2565b34801561057c57600080fd5b506102a261058b366004612992565b611d40565b34801561059c57600080fd5b506102a26105ab366004612992565b611e2b565b3480156105bc57600080fd5b506102456105cb366004612992565b60056020526000908152604090205481565b3480156105e957600080fd5b506102a26105f83660046129ab565b60009182526005602052604090912055565b34801561061657600080fd5b506102a26106253660046129cd565b611f16565b34801561063657600080fd5b5061041861064536600461282e565b611f26565b34801561065657600080fd5b50600a54610368906001600160a01b031681565b34801561067657600080fd5b50610245620f424081565b6000610695600e546001600160a01b031690565b6001600160a01b0316336001600160a01b0316146106b257600080fd5b600a546040805163239a373960e21b815290516000926001600160a01b031691638e68dce49160048083019260209291908290030181865afa1580156106fc573d6000803e3d6000fd5b505050506040513d601f19601f820116820180604052508101906107209190612a1a565b905082156109da576000816001600160a01b031663794c0c686040518163ffffffff1660e01b8152600401602060405180830381865afa158015610768573d6000803e3d6000fd5b505050506040513d601f19601f8201168201806040525081019061078c9190612a37565b9050600081156107a25761079f82611f90565b90505b6000806107b08460016127d1565b90506060600a60009054906101000a90046001600160a01b03166001600160a01b031663eebc7a396040518163ffffffff1660e01b8152600401600060405180830381865afa158015610807573d6000803e3d6000fd5b505050506040513d6000823e601f3d908101601f1916820160405261082f9190810190612a66565b9050600092505b805183101561087557610863868383868151811061085657610856612b2b565b60200260200101516125e0565b8261086d81612b41565b935050610836565b600a60009054906101000a90046001600160a01b03166001600160a01b031663b7ab4db56040518163ffffffff1660e01b8152600401600060405180830381865afa1580156108c8573d6000803e3d6000fd5b505050506040513d6000823e601f3d908101601f191682016040526108f09190810190612a66565b9050600092505b805183101561092957610917868383868151811061085657610856612b2b565b8261092181612b41565b9350506108f7565b600082815260056020526040808220601e9055600a548151637528621160e01b815291516001600160a01b03909116926375286211926004808201939182900301818387803b15801561097b57600080fd5b505af115801561098f573d6000803e3d6000fd5b505050507ff32b9551d3414b67f8e66e20ac15e62694b9d1230abb2e2e48f9dc2e1964c429846040516109c491815260200190565b60405180910390a1506000979650505050505050565b6000816001600160a01b031663c6912cc06040518163ffffffff1660e01b8152600401602060405180830381865afa158015610a1a573d6000803e3d6000fd5b505050506040513d601f19601f82011682018060405250810190610a3e9190612a37565b90506000600a60009054906101000a90046001600160a01b03166001600160a01b0316636c9230db6040518163ffffffff1660e01b8152600401602060405180830381865afa158015610a95573d6000803e3d6000fd5b505050506040513d601f19601f82011682018060405250810190610ab99190612a37565b90506000600a60009054906101000a90046001600160a01b03166001600160a01b031663b7ab4db56040518163ffffffff1660e01b8152600401600060405180830381865afa158015610b10573d6000803e3d6000fd5b505050506040513d6000823e601f3d908101601f19168201604052610b389190810190612a66565b600a5460408051630456292b60e11b8152905192935085851015926000926001600160a01b0316916308ac52569160048083019260209291908290030181865afa158015610b8a573d6000803e3d6000fd5b505050506040513d601f19601f82011682018060405250810190610bae9190612a37565b610bb9906002612b5a565b8351610bc6906003612b5a565b11610cbe576000866001600160a01b031663a5d54f656040518163ffffffff1660e01b8152600401600060405180830381865afa158015610c0b573d6000803e3d6000fd5b505050506040513d6000823e601f3d908101601f19168201604052610c339190810190612a66565b519050600081118015610cb257508351600a5460405163efd0494760e01b8152600481018490526001600160a01b039091169063efd0494790602401602060405180830381865afa158015610c8c573d6000803e3d6000fd5b505050506040513d601f19601f82011682018060405250810190610cb09190612a37565b115b15610cbc57600191505b505b8180610cc75750805b8015610d4c5750600a60009054906101000a90046001600160a01b03166001600160a01b031663eebc7a396040518163ffffffff1660e01b8152600401600060405180830381865afa158015610d21573d6000803e3d6000fd5b505050506040513d6000823e601f3d908101601f19168201604052610d499190810190612a66565b51155b15610dbe57600a60009054906101000a90046001600160a01b03166001600160a01b0316635ccee1de6040518163ffffffff1660e01b8152600401600060405180830381600087803b158015610da157600080fd5b505af1158015610db5573d6000803e3d6000fd5b50505050610e8f565b856001600160a01b03166322e3d9866040518163ffffffff1660e01b8152600401602060405180830381865afa158015610dfc573d6000803e3d6000fd5b505050506040513d601f19601f82011682018060405250810190610e209190612a37565b8410610e8f57600a60009054906101000a90046001600160a01b03166001600160a01b031663ade1900a6040518163ffffffff1660e01b8152600401600060405180830381600087803b158015610e7657600080fd5b505af1158015610e8a573d6000803e3d6000fd5b505050505b5050505050505b919050565b600a546040516253517560e01b81526001600160a01b0384811660048301526060926000929116906253517590602401602060405180830381865afa158015610ee8573d6000803e3d6000fd5b505050506040513d601f19601f82011682018060405250810190610f0c9190612a1a565b90506000600a60009054906101000a90046001600160a01b03166001600160a01b0316638e68dce46040518163ffffffff1660e01b8152600401602060405180830381865afa158015610f63573d6000803e3d6000fd5b505050506040513d601f19601f82011682018060405250810190610f879190612a1a565b90506000846001600160a01b0316866001600160a01b03161415905060008082156110b957604051632b2cdba160e11b81526001600160a01b0389811660048301528881166024830152851690635659b74290604401602060405180830381865afa158015610ffa573d6000803e3d6000fd5b505050506040513d601f19601f8201168201806040525081019061101e9190612a37565b91508160000361104457505060408051600081526020810190915293506112d792505050565b60405163bc9eb2c360e01b81526001600160a01b038981166004830152888116602483015285169063bc9eb2c390604401602060405180830381865afa158015611092573d6000803e3d6000fd5b505050506040513d601f19601f820116820180604052508101906110b69190612a37565b90505b6001600160a01b0385166000908152602081905260408120805490918167ffffffffffffffff8111156110ee576110ee612a50565b604051908082528060200260200182016040528015611117578160200160208202803683370190505b5090506000805b8381101561123157600085828154811061113a5761113a612b2b565b906000526020600020015490508815611175578781101561115b575061121f565b80871115801561116a57508615155b156111755750611231565b604051630317277360e41b81526001600160a01b038f811660048301528e81166024830152604482018390528b1690633172773090606401602060405180830381865afa1580156111ca573d6000803e3d6000fd5b505050506040513d601f19601f820116820180604052508101906111ee9190612b71565b61121d578084846111fe81612b41565b95508151811061121057611210612b2b565b6020026020010181815250505b505b8061122981612b41565b91505061111e565b8167ffffffffffffffff81111561124a5761124a612a50565b604051908082528060200260200182016040528015611273578160200160208202803683370190505b509a50600090505b818110156112cc5782818151811061129557611295612b2b565b60200260200101518b82815181106112af576112af612b2b565b6020908102919091010152806112c481612b41565b91505061127b565b505050505050505050505b92915050565b600080600a60009054906101000a90046001600160a01b03166001600160a01b0316638e68dce46040518163ffffffff1660e01b8152600401602060405180830381865afa158015611333573d6000803e3d6000fd5b505050506040513d601f19601f820116820180604052508101906113579190612a1a565b90506000816001600160a01b031663794c0c686040518163ffffffff1660e01b8152600401602060405180830381865afa158015611399573d6000803e3d6000fd5b505050506040513d601f19601f820116820180604052508101906113bd9190612a37565b9050806000036113d1575060009392505050565b600a546040516253517560e01b81526001600160a01b03868116600483015260009216906253517590602401602060405180830381865afa15801561141a573d6000803e3d6000fd5b505050506040513d601f19601f8201168201806040525081019061143e9190612a1a565b600a5460405163a0d16cad60e01b81526001600160a01b03808416600483015292935091169063a0d16cad90602401602060405180830381865afa15801561148a573d6000803e3d6000fd5b505050506040513d601f19601f820116820180604052508101906114ae9190612b71565b156115035760008281526004602090815260408083206001600160a01b03851680855290835281842054868552600384528285209185529252909120546114fa918491620f42406116c3565b95945050505050565b60405163a697ecff60e01b81526001600160a01b038681166004830181905260248301526114fa91849186169063a697ecff90604401602060405180830381865afa158015611556573d6000803e3d6000fd5b505050506040513d601f19601f8201168201806040525081019061157a9190612a37565b604051632933f0eb60e11b81526001600160a01b038981166004830152871690635267e1d690602401602060405180830381865afa1580156115c0573d6000803e3d6000fd5b505050506040513d601f19601f820116820180604052508101906115e49190612a37565b620f42406116c3565b60008415806115fa575083155b80611603575082155b15611610575060006114fa565b6000808585101561162257600061162c565b61162c8686612b8e565b6000898152600560205260409020549091506116488183612b5a565b611653826064612b8e565b61165d9089612b5a565b111561167f578561166e8987612b5a565b6116789190612ba1565b92506116b6565b61168a826064612b5a565b611695826064612b8e565b61169f8a88612b5a565b6116a99190612b5a565b6116b39190612ba1565b92505b5090979650505050505050565b60008315806116d0575082155b156116dd5750600061176b565b600080858510156116ef5760006116f9565b6116f98686612b8e565b6000888152600560205260409020549091506117158183612b5a565b611720826064612b8e565b61172a9089612b5a565b111561174c578561173b8887612b5a565b6117459190612ba1565b9250611765565b60646117588287612b5a565b6117629190612ba1565b92505b50909150505b949350505050565b600080600a60009054906101000a90046001600160a01b03166001600160a01b0316638e68dce46040518163ffffffff1660e01b8152600401602060405180830381865afa1580156117c9573d6000803e3d6000fd5b505050506040513d601f19601f820116820180604052508101906117ed9190612a1a565b90506000816001600160a01b0316639b03d7446040518163ffffffff1660e01b8152600401602060405180830381865afa15801561182f573d6000803e3d6000fd5b505050506040513d601f19601f820116820180604052508101906118539190612a37565b826001600160a01b03166322e3d9866040518163ffffffff1660e01b8152600401602060405180830381865afa158015611891573d6000803e3d6000fd5b505050506040513d601f19601f820116820180604052508101906118b59190612a37565b6118bf9190612b8e565b9050816001600160a01b03166322e3d9866040518163ffffffff1660e01b8152600401602060405180830381865afa1580156118ff573d6000803e3d6000fd5b505050506040513d601f19601f820116820180604052508101906119239190612a37565b600a60009054906101000a90046001600160a01b03166001600160a01b0316636c9230db6040518163ffffffff1660e01b8152600401602060405180830381865afa158015611976573d6000803e3d6000fd5b505050506040513d601f19601f8201168201806040525081019061199a9190612a37565b11611a9d5780826001600160a01b0316639b03d7446040518163ffffffff1660e01b8152600401602060405180830381865afa1580156119de573d6000803e3d6000fd5b505050506040513d601f19601f82011682018060405250810190611a029190612a37565b600a60009054906101000a90046001600160a01b03166001600160a01b0316636c9230db6040518163ffffffff1660e01b8152600401602060405180830381865afa158015611a55573d6000803e3d6000fd5b505050506040513d601f19601f82011682018060405250810190611a799190612a37565b611a839190612b8e565b611a8e906064612b5a565b611a989190612ba1565b611aa0565b60645b9250505090565b3460086000828254611ab991906127d1565b9091555050565b3460066000828254611ab991906127d1565b7fb53127684a568b3173ae13b9f8a6016e243e63b6e8ee1178d6a717850b5d6103546001600160a01b0316336001600160a01b03161480611b4557507fb53127684a568b3173ae13b9f8a6016e243e63b6e8ee1178d6a717850b5d6103546001600160a01b0316326001600160a01b0316145b80611b7857507fb53127684a568b3173ae13b9f8a6016e243e63b6e8ee1178d6a717850b5d6103546001600160a01b0316155b80611b81575043155b611bf85760405162461bcd60e51b815260206004820152603060248201527f496e697469616c697a6174696f6e206f6e6c79206f6e2067656e65736973206260448201527f6c6f636b206f722062792061646d696e0000000000000000000000000000000060648201526084015b60405180910390fd5b600a546001600160a01b031615611c5d5760405162461bcd60e51b8152602060048201526024808201527f696e697469616c697a6174696f6e2063616e206f6e6c7920626520646f6e65206044820152636f6e636560e01b6064820152608401611bef565b6001600160a01b038116611cb35760405162461bcd60e51b815260206004820152601a60248201527f56616c696461746f72536574206d757374206e6f7420626520300000000000006044820152606401611bef565b600a80546001600160a01b0390921673ffffffffffffffffffffffffffffffffffffffff19928316178155600080526005602052601e7f05b8ccbb9d4d8fb16ea74ce3c29a41f1b461fbdaff4714a0d9a8eb05499746bc556117706007819055600955600b805490921673da0da0da0da0da0da0da00da0da0da0da0da0da0179091556001600c55600d55565b7fb53127684a568b3173ae13b9f8a6016e243e63b6e8ee1178d6a717850b5d6103546001600160a01b0316336001600160a01b031614611dd65760405162461bcd60e51b815260206004820152602b60248201527f6f6e6c792061646d696e20697320616c6c6f77656420746f2063616c6c20746860448201526a34b990333ab731ba34b7b760a91b6064820152608401611bef565b80600003611e265760405162461bcd60e51b815260206004820152601d60248201527f5061796f7574206672616374696f6e206d757374206e6f7420626520300000006044820152606401611bef565b600955565b7fb53127684a568b3173ae13b9f8a6016e243e63b6e8ee1178d6a717850b5d6103546001600160a01b0316336001600160a01b031614611ec15760405162461bcd60e51b815260206004820152602b60248201527f6f6e6c792061646d696e20697320616c6c6f77656420746f2063616c6c20746860448201526a34b990333ab731ba34b7b760a91b6064820152608401611bef565b80600003611f115760405162461bcd60e51b815260206004820152601d60248201527f5061796f7574206672616374696f6e206d757374206e6f7420626520300000006044820152606401611bef565b600755565b611f218383836125e0565b505050565b6001600160a01b03811660009081526020818152604091829020805483518184028101840190945280845260609392830182828015611f8457602002820191906000526020600020905b815481526020019060010190808311611f70575b50505050509050919050565b600080600a60009054906101000a90046001600160a01b03166001600160a01b031663b7ab4db56040518163ffffffff1660e01b8152600401600060405180830381865afa158015611fe6573d6000803e3d6000fd5b505050506040513d6000823e601f3d908101601f1916820160405261200e9190810190612a66565b805190915060008190036120645760405162461bcd60e51b815260206004820152601460248201527f456d7074792056616c696461746f72206c6973740000000000000000000000006044820152606401611bef565b600080600a60009054906101000a90046001600160a01b03166001600160a01b03166308ac52566040518163ffffffff1660e01b8152600401602060405180830381865afa1580156120ba573d6000803e3d6000fd5b505050506040513d601f19601f820116820180604052508101906120de9190612a37565b905060006064826007546120f0611773565b876006546120fe9190612b5a565b6121089190612b5a565b6121129190612ba1565b61211c9190612ba1565b6121269190612ba1565b9050806006600082825461213a9190612b8e565b925050819055506000606483600954612151611773565b8860085461215f9190612b5a565b6121699190612b5a565b6121739190612ba1565b61217d9190612ba1565b6121879190612ba1565b9050806008600082825461219b9190612b8e565b90915550506002546121ad82846127d1565b6121b791906127d1565b9350505050806000036121cf57506000949350505050565b6000600d54600c54836121e29190612b5a565b6121ec9190612ba1565b600b546040519192506001600160a01b03169082156108fc029083906000818181858888f19350505050158015612227573d6000803e3d6000fd5b5060006122348284612b8e565b905060008467ffffffffffffffff81111561225157612251612a50565b60405190808252806020026020018201604052801561227a578160200160208202803683370190505b5090506000805b87518110156123cd57600a5488516001600160a01b039091169063a92252ae908a90849081106122b3576122b3612b2b565b60200260200101516040518263ffffffff1660e01b81526004016122e691906001600160a01b0391909116815260200190565b602060405180830381865afa158015612303573d6000803e3d6000fd5b505050506040513d601f19601f820116820180604052508101906123279190612b71565b1580156123845750600460008b8152602001908152602001600020600089838151811061235657612356612b2b565b60200260200101516001600160a01b03166001600160a01b0316815260200190815260200160002054600014155b156123bb57600183828151811061239d5761239d612b2b565b91151560209283029190910190910152816123b781612b41565b9250505b806123c581612b41565b915050612281565b50806000036123e55750600098975050505050505050565b60006123f18285612ba1565b905080156125c55760005b878110156125c35783818151811061241657612416612b2b565b6020026020010151156125b157600160008c815260200190815260200160002060008a838151811061244a5761244a612b2b565b60200260200101516001600160a01b03166001600160a01b031681526020019081526020016000205460001461250e5760405162461bcd60e51b815260206004820152605c60248201527f63616e74206469737472696275746520726577617264733a207468657265206960448201527f7320616c7265616479206120706f6f6c2072657761726420646566696e65642060648201527f666f7220746869732065706f636820616e642076616c696461746f7200000000608482015260a401611bef565b60008b81526001602052604081208a518492908c908590811061253357612533612b2b565b6020908102919091018101516001600160a01b031682528101919091526040016000205561256182876127d1565b95506000808a838151811061257857612578612b2b565b6020908102919091018101516001600160a01b031682528181019290925260400160009081208054600181018255908252919020018b90555b806125bb81612b41565b9150506123fc565b505b6125cf8587612b8e565b600255509298975050505050505050565b60008281526003602090815260408083206001600160a01b03851684529091529020541561260d57505050565b600a546040516307b9342f60e21b81526001600160a01b0383811660048301526000921690631ee4d0bc90602401602060405180830381865afa158015612658573d6000803e3d6000fd5b505050506040513d601f19601f8201168201806040525081019061267c9190612a1a565b604051632933f0eb60e11b81526001600160a01b038083166004830152919250600091861690635267e1d690602401602060405180830381865afa1580156126c8573d6000803e3d6000fd5b505050506040513d601f19601f820116820180604052508101906126ec9190612a37565b9050806000036126fd575050505050565b60008481526003602090815260408083206001600160a01b038781168552925291829020839055905163a697ecff60e01b81528382166004820181905260248201529086169063a697ecff90604401602060405180830381865afa158015612769573d6000803e3d6000fd5b505050506040513d601f19601f8201168201806040525081019061278d9190612a37565b60009485526004602090815260408087206001600160a01b0390961687529490529290932091909155505050565b634e487b7160e01b600052601160045260246000fd5b808201808211156112d7576112d76127bb565b80151581146127f257600080fd5b50565b60006020828403121561280757600080fd5b8135612812816127e4565b9392505050565b6001600160a01b03811681146127f257600080fd5b60006020828403121561284057600080fd5b813561281281612819565b60008060006060848603121561286057600080fd5b83359250602084013561287281612819565b929592945050506040919091013590565b6000806040838503121561289657600080fd5b8235915060208301356128a881612819565b809150509250929050565b600080604083850312156128c657600080fd5b82356128d181612819565b915060208301356128a881612819565b6020808252825182820181905260009190848201906040850190845b81811015612919578351835292840192918401916001016128fd565b50909695505050505050565b600080600080600060a0868803121561293d57600080fd5b505083359560208501359550604085013594606081013594506080013592509050565b6000806000806080858703121561297657600080fd5b5050823594602084013594506040840135936060013592509050565b6000602082840312156129a457600080fd5b5035919050565b600080604083850312156129be57600080fd5b50508035926020909101359150565b6000806000606084860312156129e257600080fd5b83356129ed81612819565b9250602084013591506040840135612a0481612819565b809150509250925092565b8051610e9681612819565b600060208284031215612a2c57600080fd5b815161281281612819565b600060208284031215612a4957600080fd5b5051919050565b634e487b7160e01b600052604160045260246000fd5b60006020808385031215612a7957600080fd5b825167ffffffffffffffff80821115612a9157600080fd5b818501915085601f830112612aa557600080fd5b815181811115612ab757612ab7612a50565b8060051b604051601f19603f83011681018181108582111715612adc57612adc612a50565b604052918252848201925083810185019188831115612afa57600080fd5b938501935b82851015612b1f57612b1085612a0f565b84529385019392850192612aff565b98975050505050505050565b634e487b7160e01b600052603260045260246000fd5b600060018201612b5357612b536127bb565b5060010190565b80820281158282048414176112d7576112d76127bb565b600060208284031215612b8357600080fd5b8151612812816127e4565b818103818111156112d7576112d76127bb565b600082612bbe57634e487b7160e01b600052601260045260246000fd5b50049056fea26469706673582212204e1b6e53507965d91e3c5d43c89a39842170ee5a1323556b33e4a5dfa62d83e064736f6c63430008110033",
  "linkReferences": {},
  "deployedLinkReferences": {}
}