{
  "_format": "hh-sol-artifact-1",
  "contractName": "BlockRewardHbbftBase",
  "sourceName": "contracts/base/BlockRewardHbbftBase.sol",
  "abi": [
    {
      "anonymous": false,
      "inputs": [
        {
          "indexed": false,
          "internalType": "uint256",
          "name": "rewards",
          "type": "uint256"
        }
      ],
      "name": "CoinsRewarded",
      "type": "event"
    },
    {
      "inputs": [],
      "name": "REWARD_PERCENT_MULTIPLIER",
      "outputs": [
        {
          "internalType": "uint256",
          "name": "",
          "type": "uint256"
        }
      ],
      "stateMutability": "view",
      "type": "function"
    },
    {
      "inputs": [],
      "name": "VALIDATOR_MIN_REWARD_PERCENT",
      "outputs": [
        {
          "internalType": "uint256",
          "name": "",
          "type": "uint256"
        }
      ],
      "stateMutability": "view",
      "type": "function"
    },
    {
      "inputs": [],
      "name": "addToDeltaPot",
      "outputs": [],
      "stateMutability": "payable",
      "type": "function"
    },
    {
      "inputs": [],
      "name": "addToReinsertPot",
      "outputs": [],
      "stateMutability": "payable",
      "type": "function"
    },
    {
      "inputs": [
        {
          "internalType": "uint256",
          "name": "_stakingEpoch",
          "type": "uint256"
        },
        {
          "internalType": "uint256",
          "name": "_delegatorStaked",
          "type": "uint256"
        },
        {
          "internalType": "uint256",
          "name": "_validatorStaked",
          "type": "uint256"
        },
        {
          "internalType": "uint256",
          "name": "_totalStaked",
          "type": "uint256"
        },
        {
          "internalType": "uint256",
          "name": "_poolReward",
          "type": "uint256"
        }
      ],
      "name": "delegatorShare",
      "outputs": [
        {
          "internalType": "uint256",
          "name": "",
          "type": "uint256"
        }
      ],
      "stateMutability": "view",
      "type": "function"
    },
    {
      "inputs": [],
      "name": "deltaPot",
      "outputs": [
        {
          "internalType": "uint256",
          "name": "",
          "type": "uint256"
        }
      ],
      "stateMutability": "view",
      "type": "function"
    },
    {
      "inputs": [],
      "name": "deltaPotPayoutFraction",
      "outputs": [
        {
          "internalType": "uint256",
          "name": "",
          "type": "uint256"
        }
      ],
      "stateMutability": "view",
      "type": "function"
    },
    {
      "inputs": [],
      "name": "epochPercentage",
      "outputs": [
        {
          "internalType": "uint256",
          "name": "",
          "type": "uint256"
        }
      ],
      "stateMutability": "view",
      "type": "function"
    },
    {
      "inputs": [
        {
          "internalType": "uint256",
          "name": "",
          "type": "uint256"
        },
        {
          "internalType": "address",
          "name": "",
          "type": "address"
        }
      ],
      "name": "epochPoolNativeReward",
      "outputs": [
        {
          "internalType": "uint256",
          "name": "",
          "type": "uint256"
        }
      ],
      "stateMutability": "view",
      "type": "function"
    },
    {
      "inputs": [
        {
          "internalType": "address",
          "name": "_miningAddress",
          "type": "address"
        }
      ],
      "name": "epochsPoolGotRewardFor",
      "outputs": [
        {
          "internalType": "uint256[]",
          "name": "",
          "type": "uint256[]"
        }
      ],
      "stateMutability": "view",
      "type": "function"
    },
    {
      "inputs": [
        {
          "internalType": "address",
          "name": "_poolStakingAddress",
          "type": "address"
        },
        {
          "internalType": "address",
          "name": "_staker",
          "type": "address"
        }
      ],
      "name": "epochsToClaimRewardFrom",
      "outputs": [
        {
          "internalType": "uint256[]",
          "name": "epochsToClaimFrom",
          "type": "uint256[]"
        }
      ],
      "stateMutability": "view",
      "type": "function"
    },
    {
      "inputs": [],
      "name": "governancePotAddress",
      "outputs": [
        {
          "internalType": "address payable",
          "name": "",
          "type": "address"
        }
      ],
      "stateMutability": "view",
      "type": "function"
    },
    {
      "inputs": [],
      "name": "governancePotShareDenominator",
      "outputs": [
        {
          "internalType": "uint256",
          "name": "",
          "type": "uint256"
        }
      ],
      "stateMutability": "view",
      "type": "function"
    },
    {
      "inputs": [],
      "name": "governancePotShareNominator",
      "outputs": [
        {
          "internalType": "uint256",
          "name": "",
          "type": "uint256"
        }
      ],
      "stateMutability": "view",
      "type": "function"
    },
    {
      "inputs": [
        {
          "internalType": "address",
          "name": "_validatorSet",
          "type": "address"
        }
      ],
      "name": "initialize",
      "outputs": [],
      "stateMutability": "nonpayable",
      "type": "function"
    },
    {
      "inputs": [],
      "name": "isInitialized",
      "outputs": [
        {
          "internalType": "bool",
          "name": "",
          "type": "bool"
        }
      ],
      "stateMutability": "view",
      "type": "function"
    },
    {
      "inputs": [],
      "name": "nativeRewardUndistributed",
      "outputs": [
        {
          "internalType": "uint256",
          "name": "",
          "type": "uint256"
        }
      ],
      "stateMutability": "view",
      "type": "function"
    },
    {
      "inputs": [],
      "name": "reinsertPot",
      "outputs": [
        {
          "internalType": "uint256",
          "name": "",
          "type": "uint256"
        }
      ],
      "stateMutability": "view",
      "type": "function"
    },
    {
      "inputs": [],
      "name": "reinsertPotPayoutFraction",
      "outputs": [
        {
          "internalType": "uint256",
          "name": "",
          "type": "uint256"
        }
      ],
      "stateMutability": "view",
      "type": "function"
    },
    {
      "inputs": [
        {
          "internalType": "bool",
          "name": "_isEpochEndBlock",
          "type": "bool"
        }
      ],
      "name": "reward",
      "outputs": [
        {
          "internalType": "uint256",
          "name": "rewardsNative",
          "type": "uint256"
        }
      ],
      "stateMutability": "nonpayable",
      "type": "function"
    },
    {
      "inputs": [
        {
          "internalType": "uint256",
          "name": "_value",
          "type": "uint256"
        }
      ],
      "name": "setReinsertPotPayoutFraction",
      "outputs": [],
      "stateMutability": "nonpayable",
      "type": "function"
    },
    {
      "inputs": [
        {
          "internalType": "uint256",
          "name": "_value",
          "type": "uint256"
        }
      ],
      "name": "setdeltaPotPayoutFraction",
      "outputs": [],
      "stateMutability": "nonpayable",
      "type": "function"
    },
    {
      "inputs": [
        {
          "internalType": "uint256",
          "name": "",
          "type": "uint256"
        },
        {
          "internalType": "address",
          "name": "",
          "type": "address"
        }
      ],
      "name": "snapshotPoolTotalStakeAmount",
      "outputs": [
        {
          "internalType": "uint256",
          "name": "",
          "type": "uint256"
        }
      ],
      "stateMutability": "view",
      "type": "function"
    },
    {
      "inputs": [
        {
          "internalType": "uint256",
          "name": "",
          "type": "uint256"
        },
        {
          "internalType": "address",
          "name": "",
          "type": "address"
        }
      ],
      "name": "snapshotPoolValidatorStakeAmount",
      "outputs": [
        {
          "internalType": "uint256",
          "name": "",
          "type": "uint256"
        }
      ],
      "stateMutability": "view",
      "type": "function"
    },
    {
      "inputs": [
        {
          "internalType": "uint256",
          "name": "",
          "type": "uint256"
        }
      ],
      "name": "validatorMinRewardPercent",
      "outputs": [
        {
          "internalType": "uint256",
          "name": "",
          "type": "uint256"
        }
      ],
      "stateMutability": "view",
      "type": "function"
    },
    {
      "inputs": [
        {
          "internalType": "address",
          "name": "_stakingAddress",
          "type": "address"
        }
      ],
      "name": "validatorRewardPercent",
      "outputs": [
        {
          "internalType": "uint256",
          "name": "",
          "type": "uint256"
        }
      ],
      "stateMutability": "view",
      "type": "function"
    },
    {
      "inputs": [],
      "name": "validatorSetContract",
      "outputs": [
        {
          "internalType": "contract IValidatorSetHbbft",
          "name": "",
          "type": "address"
        }
      ],
      "stateMutability": "view",
      "type": "function"
    },
    {
      "inputs": [
        {
          "internalType": "uint256",
          "name": "_stakingEpoch",
          "type": "uint256"
        },
        {
          "internalType": "uint256",
          "name": "_validatorStaked",
          "type": "uint256"
        },
        {
          "internalType": "uint256",
          "name": "_totalStaked",
          "type": "uint256"
        },
        {
          "internalType": "uint256",
          "name": "_poolReward",
          "type": "uint256"
        }
      ],
      "name": "validatorShare",
      "outputs": [
        {
          "internalType": "uint256",
          "name": "",
          "type": "uint256"
        }
      ],
      "stateMutability": "view",
      "type": "function"
    },
    {
      "stateMutability": "payable",
      "type": "receive"
    }
  ],
  "bytecode": "0x608060405234801561001057600080fd5b50612a2a806100206000396000f3fe6080604052600436106101ba5760003560e01c80638737929a116100ec578063c4d66de81161008a578063cdf7a09011610064578063cdf7a090146104de578063dd03f5b91461050b578063dfc8bf4e1461052b578063e58edc381461054b57600080fd5b8063c4d66de81461047e578063c6cc93331461049e578063cb68d127146104be57600080fd5b8063a59546e2116100c6578063a59546e214610441578063adc481a714610456578063af1825351461046c578063b10c75481461047657600080fd5b80638737929a146103f557806391b57986146104155780639a64ca2c1461042b57600080fd5b80633c2c943c116101595780635c57a801116101335780635c57a801146103715780635fba554e14610387578063728345db146103a757806373f12958146103df57600080fd5b80633c2c943c1461030e5780634de6c03614610324578063527d8bc41461035157600080fd5b80631345b8a5116101955780631345b8a51461023c57806319cee8971461027457806333d69921146102ac578063392e53cd146102e457600080fd5b8062067a84146101de5780630c0d4173146102115780631274fa091461022657600080fd5b366101d95734600860008282546101d1919061269e565b925050819055005b600080fd5b3480156101ea57600080fd5b506101fe6101f93660046126c2565b610562565b6040519081526020015b60405180910390f35b34801561021d57600080fd5b506101fe601e81565b34801561023257600080fd5b506101fe60095481565b34801561024857600080fd5b506101fe6102573660046126fb565b600460209081526000928352604080842090915290825290205481565b34801561028057600080fd5b50600b54610294906001600160a01b031681565b6040516001600160a01b039091168152602001610208565b3480156102b857600080fd5b506101fe6102c73660046126fb565b600160209081526000928352604080842090915290825290205481565b3480156102f057600080fd5b50600a546040516001600160a01b0390911615158152602001610208565b34801561031a57600080fd5b506101fe600d5481565b34801561033057600080fd5b5061034461033f36600461272b565b610d6d565b6040516102089190612759565b34801561035d57600080fd5b506101fe61036c36600461279d565b6111af565b34801561037d57600080fd5b506101fe60065481565b34801561039357600080fd5b506101fe6103a23660046127ba565b6114bf565b3480156103b357600080fd5b506101fe6103c23660046126fb565b600360209081526000928352604080842090915290825290205481565b3480156103eb57600080fd5b506101fe60085481565b34801561040157600080fd5b506101fe6104103660046127f5565b611595565b34801561042157600080fd5b506101fe600c5481565b34801561043757600080fd5b506101fe60075481565b34801561044d57600080fd5b506101fe611645565b34801561046257600080fd5b506101fe60025481565b610474611979565b005b610474611992565b34801561048a57600080fd5b5061047461049936600461279d565b6119a4565b3480156104aa57600080fd5b506104746104b9366004612827565b611c1d565b3480156104ca57600080fd5b506104746104d9366004612827565b611d08565b3480156104ea57600080fd5b506101fe6104f9366004612827565b60056020526000908152604090205481565b34801561051757600080fd5b5061034461052636600461279d565b611df3565b34801561053757600080fd5b50600a54610294906001600160a01b031681565b34801561055757600080fd5b506101fe620f424081565b600073fffffffffffffffffffffffffffffffffffffffe331461058457600080fd5b600a546040805163239a373960e21b815290516000926001600160a01b031691638e68dce49160048083019260209291908290030181865afa1580156105ce573d6000803e3d6000fd5b505050506040513d601f19601f820116820180604052508101906105f2919061284b565b905082156108ac576000816001600160a01b031663794c0c686040518163ffffffff1660e01b8152600401602060405180830381865afa15801561063a573d6000803e3d6000fd5b505050506040513d601f19601f8201168201806040525081019061065e9190612868565b9050600081156106745761067182611e5d565b90505b60008061068284600161269e565b90506060600a60009054906101000a90046001600160a01b03166001600160a01b031663eebc7a396040518163ffffffff1660e01b8152600401600060405180830381865afa1580156106d9573d6000803e3d6000fd5b505050506040513d6000823e601f3d908101601f191682016040526107019190810190612897565b9050600092505b80518310156107475761073586838386815181106107285761072861295c565b60200260200101516124ad565b8261073f81612972565b935050610708565b600a60009054906101000a90046001600160a01b03166001600160a01b031663b7ab4db56040518163ffffffff1660e01b8152600401600060405180830381865afa15801561079a573d6000803e3d6000fd5b505050506040513d6000823e601f3d908101601f191682016040526107c29190810190612897565b9050600092505b80518310156107fb576107e986838386815181106107285761072861295c565b826107f381612972565b9350506107c9565b600082815260056020526040808220601e9055600a548151637528621160e01b815291516001600160a01b03909116926375286211926004808201939182900301818387803b15801561084d57600080fd5b505af1158015610861573d6000803e3d6000fd5b505050507ff32b9551d3414b67f8e66e20ac15e62694b9d1230abb2e2e48f9dc2e1964c4298460405161089691815260200190565b60405180910390a1506000979650505050505050565b6000816001600160a01b031663c6912cc06040518163ffffffff1660e01b8152600401602060405180830381865afa1580156108ec573d6000803e3d6000fd5b505050506040513d601f19601f820116820180604052508101906109109190612868565b90506000600a60009054906101000a90046001600160a01b03166001600160a01b0316636c9230db6040518163ffffffff1660e01b8152600401602060405180830381865afa158015610967573d6000803e3d6000fd5b505050506040513d601f19601f8201168201806040525081019061098b9190612868565b90506000600a60009054906101000a90046001600160a01b03166001600160a01b031663b7ab4db56040518163ffffffff1660e01b8152600401600060405180830381865afa1580156109e2573d6000803e3d6000fd5b505050506040513d6000823e601f3d908101601f19168201604052610a0a9190810190612897565b600a5460408051630456292b60e11b8152905192935085851015926000926001600160a01b0316916308ac52569160048083019260209291908290030181865afa158015610a5c573d6000803e3d6000fd5b505050506040513d601f19601f82011682018060405250810190610a809190612868565b610a8b90600261298b565b8351610a9890600361298b565b11610b90576000866001600160a01b031663a5d54f656040518163ffffffff1660e01b8152600401600060405180830381865afa158015610add573d6000803e3d6000fd5b505050506040513d6000823e601f3d908101601f19168201604052610b059190810190612897565b519050600081118015610b8457508351600a5460405163efd0494760e01b8152600481018490526001600160a01b039091169063efd0494790602401602060405180830381865afa158015610b5e573d6000803e3d6000fd5b505050506040513d601f19601f82011682018060405250810190610b829190612868565b115b15610b8e57600191505b505b8180610b995750805b8015610c1e5750600a60009054906101000a90046001600160a01b03166001600160a01b031663eebc7a396040518163ffffffff1660e01b8152600401600060405180830381865afa158015610bf3573d6000803e3d6000fd5b505050506040513d6000823e601f3d908101601f19168201604052610c1b9190810190612897565b51155b15610c9057600a60009054906101000a90046001600160a01b03166001600160a01b0316635ccee1de6040518163ffffffff1660e01b8152600401600060405180830381600087803b158015610c7357600080fd5b505af1158015610c87573d6000803e3d6000fd5b50505050610d61565b856001600160a01b03166322e3d9866040518163ffffffff1660e01b8152600401602060405180830381865afa158015610cce573d6000803e3d6000fd5b505050506040513d601f19601f82011682018060405250810190610cf29190612868565b8410610d6157600a60009054906101000a90046001600160a01b03166001600160a01b031663ade1900a6040518163ffffffff1660e01b8152600401600060405180830381600087803b158015610d4857600080fd5b505af1158015610d5c573d6000803e3d6000fd5b505050505b5050505050505b919050565b600a546040516253517560e01b81526001600160a01b0384811660048301526060926000929116906253517590602401602060405180830381865afa158015610dba573d6000803e3d6000fd5b505050506040513d601f19601f82011682018060405250810190610dde919061284b565b90506000600a60009054906101000a90046001600160a01b03166001600160a01b0316638e68dce46040518163ffffffff1660e01b8152600401602060405180830381865afa158015610e35573d6000803e3d6000fd5b505050506040513d601f19601f82011682018060405250810190610e59919061284b565b90506000846001600160a01b0316866001600160a01b0316141590506000808215610f8b57604051632b2cdba160e11b81526001600160a01b0389811660048301528881166024830152851690635659b74290604401602060405180830381865afa158015610ecc573d6000803e3d6000fd5b505050506040513d601f19601f82011682018060405250810190610ef09190612868565b915081600003610f1657505060408051600081526020810190915293506111a992505050565b60405163bc9eb2c360e01b81526001600160a01b038981166004830152888116602483015285169063bc9eb2c390604401602060405180830381865afa158015610f64573d6000803e3d6000fd5b505050506040513d601f19601f82011682018060405250810190610f889190612868565b90505b6001600160a01b0385166000908152602081905260408120805490918167ffffffffffffffff811115610fc057610fc0612881565b604051908082528060200260200182016040528015610fe9578160200160208202803683370190505b5090506000805b8381101561110357600085828154811061100c5761100c61295c565b906000526020600020015490508815611047578781101561102d57506110f1565b80871115801561103c57508615155b156110475750611103565b604051630317277360e41b81526001600160a01b038f811660048301528e81166024830152604482018390528b1690633172773090606401602060405180830381865afa15801561109c573d6000803e3d6000fd5b505050506040513d601f19601f820116820180604052508101906110c091906129a2565b6110ef578084846110d081612972565b9550815181106110e2576110e261295c565b6020026020010181815250505b505b806110fb81612972565b915050610ff0565b8167ffffffffffffffff81111561111c5761111c612881565b604051908082528060200260200182016040528015611145578160200160208202803683370190505b509a50600090505b8181101561119e578281815181106111675761116761295c565b60200260200101518b82815181106111815761118161295c565b60209081029190910101528061119681612972565b91505061114d565b505050505050505050505b92915050565b600080600a60009054906101000a90046001600160a01b03166001600160a01b0316638e68dce46040518163ffffffff1660e01b8152600401602060405180830381865afa158015611205573d6000803e3d6000fd5b505050506040513d601f19601f82011682018060405250810190611229919061284b565b90506000816001600160a01b031663794c0c686040518163ffffffff1660e01b8152600401602060405180830381865afa15801561126b573d6000803e3d6000fd5b505050506040513d601f19601f8201168201806040525081019061128f9190612868565b9050806000036112a3575060009392505050565b600a546040516253517560e01b81526001600160a01b03868116600483015260009216906253517590602401602060405180830381865afa1580156112ec573d6000803e3d6000fd5b505050506040513d601f19601f82011682018060405250810190611310919061284b565b600a5460405163a0d16cad60e01b81526001600160a01b03808416600483015292935091169063a0d16cad90602401602060405180830381865afa15801561135c573d6000803e3d6000fd5b505050506040513d601f19601f8201168201806040525081019061138091906129a2565b156113d55760008281526004602090815260408083206001600160a01b03851680855290835281842054868552600384528285209185529252909120546113cc918491620f4240611595565b95945050505050565b60405163a697ecff60e01b81526001600160a01b038681166004830181905260248301526113cc91849186169063a697ecff90604401602060405180830381865afa158015611428573d6000803e3d6000fd5b505050506040513d601f19601f8201168201806040525081019061144c9190612868565b604051632933f0eb60e11b81526001600160a01b038981166004830152871690635267e1d690602401602060405180830381865afa158015611492573d6000803e3d6000fd5b505050506040513d601f19601f820116820180604052508101906114b69190612868565b620f4240611595565b60008415806114cc575083155b806114d5575082155b156114e2575060006113cc565b600080858510156114f45760006114fe565b6114fe86866129bf565b60008981526005602052604090205490915061151a818361298b565b6115258260646129bf565b61152f908961298b565b11156115515785611540898761298b565b61154a91906129d2565b9250611588565b61155c82606461298b565b6115678260646129bf565b6115718a8861298b565b61157b919061298b565b61158591906129d2565b92505b5090979650505050505050565b60008315806115a2575082155b156115af5750600061163d565b600080858510156115c15760006115cb565b6115cb86866129bf565b6000888152600560205260409020549091506115e7818361298b565b6115f28260646129bf565b6115fc908961298b565b111561161e578561160d888761298b565b61161791906129d2565b9250611637565b606461162a828761298b565b61163491906129d2565b92505b50909150505b949350505050565b600080600a60009054906101000a90046001600160a01b03166001600160a01b0316638e68dce46040518163ffffffff1660e01b8152600401602060405180830381865afa15801561169b573d6000803e3d6000fd5b505050506040513d601f19601f820116820180604052508101906116bf919061284b565b90506000816001600160a01b0316639b03d7446040518163ffffffff1660e01b8152600401602060405180830381865afa158015611701573d6000803e3d6000fd5b505050506040513d601f19601f820116820180604052508101906117259190612868565b826001600160a01b03166322e3d9866040518163ffffffff1660e01b8152600401602060405180830381865afa158015611763573d6000803e3d6000fd5b505050506040513d601f19601f820116820180604052508101906117879190612868565b61179191906129bf565b9050816001600160a01b03166322e3d9866040518163ffffffff1660e01b8152600401602060405180830381865afa1580156117d1573d6000803e3d6000fd5b505050506040513d601f19601f820116820180604052508101906117f59190612868565b600a60009054906101000a90046001600160a01b03166001600160a01b0316636c9230db6040518163ffffffff1660e01b8152600401602060405180830381865afa158015611848573d6000803e3d6000fd5b505050506040513d601f19601f8201168201806040525081019061186c9190612868565b1161196f5780826001600160a01b0316639b03d7446040518163ffffffff1660e01b8152600401602060405180830381865afa1580156118b0573d6000803e3d6000fd5b505050506040513d601f19601f820116820180604052508101906118d49190612868565b600a60009054906101000a90046001600160a01b03166001600160a01b0316636c9230db6040518163ffffffff1660e01b8152600401602060405180830381865afa158015611927573d6000803e3d6000fd5b505050506040513d601f19601f8201168201806040525081019061194b9190612868565b61195591906129bf565b61196090606461298b565b61196a91906129d2565b611972565b60645b9250505090565b346008600082825461198b919061269e565b9091555050565b346006600082825461198b919061269e565b7fb53127684a568b3173ae13b9f8a6016e243e63b6e8ee1178d6a717850b5d6103546001600160a01b0316336001600160a01b03161480611a1757507fb53127684a568b3173ae13b9f8a6016e243e63b6e8ee1178d6a717850b5d6103546001600160a01b0316326001600160a01b0316145b80611a4a57507fb53127684a568b3173ae13b9f8a6016e243e63b6e8ee1178d6a717850b5d6103546001600160a01b0316155b80611a53575043155b611aca5760405162461bcd60e51b815260206004820152603060248201527f496e697469616c697a6174696f6e206f6e6c79206f6e2067656e65736973206260448201527f6c6f636b206f722062792061646d696e0000000000000000000000000000000060648201526084015b60405180910390fd5b600a546001600160a01b031615611b2f5760405162461bcd60e51b8152602060048201526024808201527f696e697469616c697a6174696f6e2063616e206f6e6c7920626520646f6e65206044820152636f6e636560e01b6064820152608401611ac1565b6001600160a01b038116611b855760405162461bcd60e51b815260206004820152601a60248201527f56616c696461746f72536574206d757374206e6f7420626520300000000000006044820152606401611ac1565b600a80546001600160a01b039092167fffffffffffffffffffffffff0000000000000000000000000000000000000000928316178155600080526005602052601e7f05b8ccbb9d4d8fb16ea74ce3c29a41f1b461fbdaff4714a0d9a8eb05499746bc556117706007819055600955600b805490921673da0da0da0da0da0da0da00da0da0da0da0da0da0179091556001600c55600d55565b7fb53127684a568b3173ae13b9f8a6016e243e63b6e8ee1178d6a717850b5d6103546001600160a01b0316336001600160a01b031614611cb35760405162461bcd60e51b815260206004820152602b60248201527f6f6e6c792061646d696e20697320616c6c6f77656420746f2063616c6c20746860448201526a34b990333ab731ba34b7b760a91b6064820152608401611ac1565b80600003611d035760405162461bcd60e51b815260206004820152601d60248201527f5061796f7574206672616374696f6e206d757374206e6f7420626520300000006044820152606401611ac1565b600955565b7fb53127684a568b3173ae13b9f8a6016e243e63b6e8ee1178d6a717850b5d6103546001600160a01b0316336001600160a01b031614611d9e5760405162461bcd60e51b815260206004820152602b60248201527f6f6e6c792061646d696e20697320616c6c6f77656420746f2063616c6c20746860448201526a34b990333ab731ba34b7b760a91b6064820152608401611ac1565b80600003611dee5760405162461bcd60e51b815260206004820152601d60248201527f5061796f7574206672616374696f6e206d757374206e6f7420626520300000006044820152606401611ac1565b600755565b6001600160a01b03811660009081526020818152604091829020805483518184028101840190945280845260609392830182828015611e5157602002820191906000526020600020905b815481526020019060010190808311611e3d575b50505050509050919050565b600080600a60009054906101000a90046001600160a01b03166001600160a01b031663b7ab4db56040518163ffffffff1660e01b8152600401600060405180830381865afa158015611eb3573d6000803e3d6000fd5b505050506040513d6000823e601f3d908101601f19168201604052611edb9190810190612897565b80519091506000819003611f315760405162461bcd60e51b815260206004820152601460248201527f456d7074792056616c696461746f72206c6973740000000000000000000000006044820152606401611ac1565b600080600a60009054906101000a90046001600160a01b03166001600160a01b03166308ac52566040518163ffffffff1660e01b8152600401602060405180830381865afa158015611f87573d6000803e3d6000fd5b505050506040513d601f19601f82011682018060405250810190611fab9190612868565b90506000606482600754611fbd611645565b87600654611fcb919061298b565b611fd5919061298b565b611fdf91906129d2565b611fe991906129d2565b611ff391906129d2565b9050806006600082825461200791906129bf565b92505081905550600060648360095461201e611645565b8860085461202c919061298b565b612036919061298b565b61204091906129d2565b61204a91906129d2565b61205491906129d2565b9050806008600082825461206891906129bf565b909155505060025461207a828461269e565b612084919061269e565b93505050508060000361209c57506000949350505050565b6000600d54600c54836120af919061298b565b6120b991906129d2565b600b546040519192506001600160a01b03169082156108fc029083906000818181858888f193505050501580156120f4573d6000803e3d6000fd5b50600061210182846129bf565b905060008467ffffffffffffffff81111561211e5761211e612881565b604051908082528060200260200182016040528015612147578160200160208202803683370190505b5090506000805b875181101561229a57600a5488516001600160a01b039091169063a92252ae908a90849081106121805761218061295c565b60200260200101516040518263ffffffff1660e01b81526004016121b391906001600160a01b0391909116815260200190565b602060405180830381865afa1580156121d0573d6000803e3d6000fd5b505050506040513d601f19601f820116820180604052508101906121f491906129a2565b1580156122515750600460008b815260200190815260200160002060008983815181106122235761222361295c565b60200260200101516001600160a01b03166001600160a01b0316815260200190815260200160002054600014155b1561228857600183828151811061226a5761226a61295c565b911515602092830291909101909101528161228481612972565b9250505b8061229281612972565b91505061214e565b50806000036122b25750600098975050505050505050565b60006122be82856129d2565b905080156124925760005b87811015612490578381815181106122e3576122e361295c565b60200260200101511561247e57600160008c815260200190815260200160002060008a83815181106123175761231761295c565b60200260200101516001600160a01b03166001600160a01b03168152602001908152602001600020546000146123db5760405162461bcd60e51b815260206004820152605c60248201527f63616e74206469737472696275746520726577617264733a207468657265206960448201527f7320616c7265616479206120706f6f6c2072657761726420646566696e65642060648201527f666f7220746869732065706f636820616e642076616c696461746f7200000000608482015260a401611ac1565b60008b81526001602052604081208a518492908c90859081106124005761240061295c565b6020908102919091018101516001600160a01b031682528101919091526040016000205561242e828761269e565b95506000808a83815181106124455761244561295c565b6020908102919091018101516001600160a01b031682528181019290925260400160009081208054600181018255908252919020018b90555b8061248881612972565b9150506122c9565b505b61249c85876129bf565b600255509298975050505050505050565b60008281526003602090815260408083206001600160a01b0385168452909152902054156124da57505050565b600a546040516307b9342f60e21b81526001600160a01b0383811660048301526000921690631ee4d0bc90602401602060405180830381865afa158015612525573d6000803e3d6000fd5b505050506040513d601f19601f82011682018060405250810190612549919061284b565b604051632933f0eb60e11b81526001600160a01b038083166004830152919250600091861690635267e1d690602401602060405180830381865afa158015612595573d6000803e3d6000fd5b505050506040513d601f19601f820116820180604052508101906125b99190612868565b9050806000036125ca575050505050565b60008481526003602090815260408083206001600160a01b038781168552925291829020839055905163a697ecff60e01b81528382166004820181905260248201529086169063a697ecff90604401602060405180830381865afa158015612636573d6000803e3d6000fd5b505050506040513d601f19601f8201168201806040525081019061265a9190612868565b60009485526004602090815260408087206001600160a01b0390961687529490529290932091909155505050565b634e487b7160e01b600052601160045260246000fd5b808201808211156111a9576111a9612688565b80151581146126bf57600080fd5b50565b6000602082840312156126d457600080fd5b81356126df816126b1565b9392505050565b6001600160a01b03811681146126bf57600080fd5b6000806040838503121561270e57600080fd5b823591506020830135612720816126e6565b809150509250929050565b6000806040838503121561273e57600080fd5b8235612749816126e6565b91506020830135612720816126e6565b6020808252825182820181905260009190848201906040850190845b8181101561279157835183529284019291840191600101612775565b50909695505050505050565b6000602082840312156127af57600080fd5b81356126df816126e6565b600080600080600060a086880312156127d257600080fd5b505083359560208501359550604085013594606081013594506080013592509050565b6000806000806080858703121561280b57600080fd5b5050823594602084013594506040840135936060013592509050565b60006020828403121561283957600080fd5b5035919050565b8051610d68816126e6565b60006020828403121561285d57600080fd5b81516126df816126e6565b60006020828403121561287a57600080fd5b5051919050565b634e487b7160e01b600052604160045260246000fd5b600060208083850312156128aa57600080fd5b825167ffffffffffffffff808211156128c257600080fd5b818501915085601f8301126128d657600080fd5b8151818111156128e8576128e8612881565b8060051b604051601f19603f8301168101818110858211171561290d5761290d612881565b60405291825284820192508381018501918883111561292b57600080fd5b938501935b828510156129505761294185612840565b84529385019392850192612930565b98975050505050505050565b634e487b7160e01b600052603260045260246000fd5b60006001820161298457612984612688565b5060010190565b80820281158282048414176111a9576111a9612688565b6000602082840312156129b457600080fd5b81516126df816126b1565b818103818111156111a9576111a9612688565b6000826129ef57634e487b7160e01b600052601260045260246000fd5b50049056fea26469706673582212205dbb6e016bbba9ea9852893bec3871147da324a8934dd1d22e991eceeb64ee1064736f6c63430008110033",
  "linkReferences": {},
  "deployedLinkReferences": {}
}