{
  "_format": "hh-sol-artifact-1",
  "contractName": "BlockRewardHbbftCoinsMock",
  "sourceName": "contracts/mockContracts/BlockRewardHbbftCoinsMock.sol",
  "abi": [
    {
      "anonymous": false,
      "inputs": [
        {
          "indexed": false,
          "internalType": "uint256",
          "name": "rewards",
          "type": "uint256"
        }
      ],
      "name": "CoinsRewarded",
      "type": "event"
    },
    {
      "inputs": [],
      "name": "REWARD_PERCENT_MULTIPLIER",
      "outputs": [
        {
          "internalType": "uint256",
          "name": "",
          "type": "uint256"
        }
      ],
      "stateMutability": "view",
      "type": "function"
    },
    {
      "inputs": [],
      "name": "VALIDATOR_MIN_REWARD_PERCENT",
      "outputs": [
        {
          "internalType": "uint256",
          "name": "",
          "type": "uint256"
        }
      ],
      "stateMutability": "view",
      "type": "function"
    },
    {
      "inputs": [],
      "name": "addToDeltaPot",
      "outputs": [],
      "stateMutability": "payable",
      "type": "function"
    },
    {
      "inputs": [],
      "name": "addToReinsertPot",
      "outputs": [],
      "stateMutability": "payable",
      "type": "function"
    },
    {
      "inputs": [
        {
          "internalType": "uint256",
          "name": "_stakingEpoch",
          "type": "uint256"
        },
        {
          "internalType": "uint256",
          "name": "_delegatorStaked",
          "type": "uint256"
        },
        {
          "internalType": "uint256",
          "name": "_validatorStaked",
          "type": "uint256"
        },
        {
          "internalType": "uint256",
          "name": "_totalStaked",
          "type": "uint256"
        },
        {
          "internalType": "uint256",
          "name": "_poolReward",
          "type": "uint256"
        }
      ],
      "name": "delegatorShare",
      "outputs": [
        {
          "internalType": "uint256",
          "name": "",
          "type": "uint256"
        }
      ],
      "stateMutability": "view",
      "type": "function"
    },
    {
      "inputs": [],
      "name": "deltaPot",
      "outputs": [
        {
          "internalType": "uint256",
          "name": "",
          "type": "uint256"
        }
      ],
      "stateMutability": "view",
      "type": "function"
    },
    {
      "inputs": [],
      "name": "deltaPotPayoutFraction",
      "outputs": [
        {
          "internalType": "uint256",
          "name": "",
          "type": "uint256"
        }
      ],
      "stateMutability": "view",
      "type": "function"
    },
    {
      "inputs": [],
      "name": "epochPercentage",
      "outputs": [
        {
          "internalType": "uint256",
          "name": "",
          "type": "uint256"
        }
      ],
      "stateMutability": "view",
      "type": "function"
    },
    {
      "inputs": [
        {
          "internalType": "uint256",
          "name": "",
          "type": "uint256"
        },
        {
          "internalType": "address",
          "name": "",
          "type": "address"
        }
      ],
      "name": "epochPoolNativeReward",
      "outputs": [
        {
          "internalType": "uint256",
          "name": "",
          "type": "uint256"
        }
      ],
      "stateMutability": "view",
      "type": "function"
    },
    {
      "inputs": [
        {
          "internalType": "address",
          "name": "_miningAddress",
          "type": "address"
        }
      ],
      "name": "epochsPoolGotRewardFor",
      "outputs": [
        {
          "internalType": "uint256[]",
          "name": "",
          "type": "uint256[]"
        }
      ],
      "stateMutability": "view",
      "type": "function"
    },
    {
      "inputs": [
        {
          "internalType": "address",
          "name": "_poolStakingAddress",
          "type": "address"
        },
        {
          "internalType": "address",
          "name": "_staker",
          "type": "address"
        }
      ],
      "name": "epochsToClaimRewardFrom",
      "outputs": [
        {
          "internalType": "uint256[]",
          "name": "epochsToClaimFrom",
          "type": "uint256[]"
        }
      ],
      "stateMutability": "view",
      "type": "function"
    },
    {
      "inputs": [
        {
          "internalType": "uint256",
          "name": "_delegatorStake",
          "type": "uint256"
        },
        {
          "internalType": "uint256",
          "name": "_stakingEpoch",
          "type": "uint256"
        },
        {
          "internalType": "address",
          "name": "_poolMiningAddress",
          "type": "address"
        }
      ],
      "name": "getDelegatorReward",
      "outputs": [
        {
          "internalType": "uint256",
          "name": "nativeReward",
          "type": "uint256"
        }
      ],
      "stateMutability": "view",
      "type": "function"
    },
    {
      "inputs": [
        {
          "internalType": "uint256",
          "name": "_stakingEpoch",
          "type": "uint256"
        },
        {
          "internalType": "address",
          "name": "_poolMiningAddress",
          "type": "address"
        }
      ],
      "name": "getValidatorReward",
      "outputs": [
        {
          "internalType": "uint256",
          "name": "nativeReward",
          "type": "uint256"
        }
      ],
      "stateMutability": "view",
      "type": "function"
    },
    {
      "inputs": [],
      "name": "governancePotAddress",
      "outputs": [
        {
          "internalType": "address payable",
          "name": "",
          "type": "address"
        }
      ],
      "stateMutability": "view",
      "type": "function"
    },
    {
      "inputs": [],
      "name": "governancePotShareDenominator",
      "outputs": [
        {
          "internalType": "uint256",
          "name": "",
          "type": "uint256"
        }
      ],
      "stateMutability": "view",
      "type": "function"
    },
    {
      "inputs": [],
      "name": "governancePotShareNominator",
      "outputs": [
        {
          "internalType": "uint256",
          "name": "",
          "type": "uint256"
        }
      ],
      "stateMutability": "view",
      "type": "function"
    },
    {
      "inputs": [
        {
          "internalType": "address",
          "name": "_validatorSet",
          "type": "address"
        }
      ],
      "name": "initialize",
      "outputs": [],
      "stateMutability": "nonpayable",
      "type": "function"
    },
    {
      "inputs": [],
      "name": "isInitialized",
      "outputs": [
        {
          "internalType": "bool",
          "name": "",
          "type": "bool"
        }
      ],
      "stateMutability": "view",
      "type": "function"
    },
    {
      "inputs": [],
      "name": "nativeRewardUndistributed",
      "outputs": [
        {
          "internalType": "uint256",
          "name": "",
          "type": "uint256"
        }
      ],
      "stateMutability": "view",
      "type": "function"
    },
    {
      "inputs": [],
      "name": "reinsertPot",
      "outputs": [
        {
          "internalType": "uint256",
          "name": "",
          "type": "uint256"
        }
      ],
      "stateMutability": "view",
      "type": "function"
    },
    {
      "inputs": [],
      "name": "reinsertPotPayoutFraction",
      "outputs": [
        {
          "internalType": "uint256",
          "name": "",
          "type": "uint256"
        }
      ],
      "stateMutability": "view",
      "type": "function"
    },
    {
      "inputs": [
        {
          "internalType": "bool",
          "name": "_isEpochEndBlock",
          "type": "bool"
        }
      ],
      "name": "reward",
      "outputs": [
        {
          "internalType": "uint256",
          "name": "rewardsNative",
          "type": "uint256"
        }
      ],
      "stateMutability": "nonpayable",
      "type": "function"
    },
    {
      "inputs": [],
      "name": "sendCoins",
      "outputs": [],
      "stateMutability": "payable",
      "type": "function"
    },
    {
      "inputs": [
        {
          "internalType": "uint256",
          "name": "_stakingEpoch",
          "type": "uint256"
        },
        {
          "internalType": "address",
          "name": "_poolMiningAddress",
          "type": "address"
        }
      ],
      "name": "setEpochPoolReward",
      "outputs": [],
      "stateMutability": "payable",
      "type": "function"
    },
    {
      "inputs": [
        {
          "internalType": "uint256",
          "name": "_value",
          "type": "uint256"
        }
      ],
      "name": "setReinsertPotPayoutFraction",
      "outputs": [],
      "stateMutability": "nonpayable",
      "type": "function"
    },
    {
      "inputs": [
        {
          "internalType": "uint256",
          "name": "_stakingEpoch",
          "type": "uint256"
        },
        {
          "internalType": "address",
          "name": "_poolMiningAddress",
          "type": "address"
        },
        {
          "internalType": "uint256",
          "name": "_amount",
          "type": "uint256"
        }
      ],
      "name": "setSnapshotPoolValidatorStakeAmount",
      "outputs": [],
      "stateMutability": "nonpayable",
      "type": "function"
    },
    {
      "inputs": [
        {
          "internalType": "address",
          "name": "_address",
          "type": "address"
        }
      ],
      "name": "setSystemAddress",
      "outputs": [],
      "stateMutability": "nonpayable",
      "type": "function"
    },
    {
      "inputs": [
        {
          "internalType": "uint256",
          "name": "_stakingEpoch",
          "type": "uint256"
        },
        {
          "internalType": "uint256",
          "name": "_percent",
          "type": "uint256"
        }
      ],
      "name": "setValidatorMinRewardPercent",
      "outputs": [],
      "stateMutability": "nonpayable",
      "type": "function"
    },
    {
      "inputs": [
        {
          "internalType": "uint256",
          "name": "_value",
          "type": "uint256"
        }
      ],
      "name": "setdeltaPotPayoutFraction",
      "outputs": [],
      "stateMutability": "nonpayable",
      "type": "function"
    },
    {
      "inputs": [
        {
          "internalType": "contract IStakingHbbft",
          "name": "_stakingContract",
          "type": "address"
        },
        {
          "internalType": "uint256",
          "name": "_stakingEpoch",
          "type": "uint256"
        },
        {
          "internalType": "address",
          "name": "_miningAddress",
          "type": "address"
        }
      ],
      "name": "snapshotPoolStakeAmounts",
      "outputs": [],
      "stateMutability": "nonpayable",
      "type": "function"
    },
    {
      "inputs": [
        {
          "internalType": "uint256",
          "name": "",
          "type": "uint256"
        },
        {
          "internalType": "address",
          "name": "",
          "type": "address"
        }
      ],
      "name": "snapshotPoolTotalStakeAmount",
      "outputs": [
        {
          "internalType": "uint256",
          "name": "",
          "type": "uint256"
        }
      ],
      "stateMutability": "view",
      "type": "function"
    },
    {
      "inputs": [
        {
          "internalType": "uint256",
          "name": "",
          "type": "uint256"
        },
        {
          "internalType": "address",
          "name": "",
          "type": "address"
        }
      ],
      "name": "snapshotPoolValidatorStakeAmount",
      "outputs": [
        {
          "internalType": "uint256",
          "name": "",
          "type": "uint256"
        }
      ],
      "stateMutability": "view",
      "type": "function"
    },
    {
      "inputs": [
        {
          "internalType": "uint256",
          "name": "_nativeCoins",
          "type": "uint256"
        },
        {
          "internalType": "address payable",
          "name": "_to",
          "type": "address"
        }
      ],
      "name": "transferReward",
      "outputs": [],
      "stateMutability": "nonpayable",
      "type": "function"
    },
    {
      "inputs": [
        {
          "internalType": "uint256",
          "name": "",
          "type": "uint256"
        }
      ],
      "name": "validatorMinRewardPercent",
      "outputs": [
        {
          "internalType": "uint256",
          "name": "",
          "type": "uint256"
        }
      ],
      "stateMutability": "view",
      "type": "function"
    },
    {
      "inputs": [
        {
          "internalType": "address",
          "name": "_stakingAddress",
          "type": "address"
        }
      ],
      "name": "validatorRewardPercent",
      "outputs": [
        {
          "internalType": "uint256",
          "name": "",
          "type": "uint256"
        }
      ],
      "stateMutability": "view",
      "type": "function"
    },
    {
      "inputs": [],
      "name": "validatorSetContract",
      "outputs": [
        {
          "internalType": "contract IValidatorSetHbbft",
          "name": "",
          "type": "address"
        }
      ],
      "stateMutability": "view",
      "type": "function"
    },
    {
      "inputs": [
        {
          "internalType": "uint256",
          "name": "_stakingEpoch",
          "type": "uint256"
        },
        {
          "internalType": "uint256",
          "name": "_validatorStaked",
          "type": "uint256"
        },
        {
          "internalType": "uint256",
          "name": "_totalStaked",
          "type": "uint256"
        },
        {
          "internalType": "uint256",
          "name": "_poolReward",
          "type": "uint256"
        }
      ],
      "name": "validatorShare",
      "outputs": [
        {
          "internalType": "uint256",
          "name": "",
          "type": "uint256"
        }
      ],
      "stateMutability": "view",
      "type": "function"
    },
    {
      "stateMutability": "payable",
      "type": "receive"
    }
  ],
  "bytecode": "0x608060405234801561001057600080fd5b5061305b806100206000396000f3fe60806040526004361061026d5760003560e01c80638737929a11610153578063c6cc9333116100cb578063dd03f5b91161007f578063e1ab96d811610064578063e1ab96d814610729578063e58edc3814610749578063f302163d1461030e57600080fd5b8063dd03f5b9146106e9578063dfc8bf4e1461070957600080fd5b8063cdf7a090116100b0578063cdf7a0901461066f578063d0899cb41461069c578063d88aebd7146106c957600080fd5b8063c6cc93331461062f578063cb68d1271461064f57600080fd5b8063adc481a711610122578063b10c754811610107578063b10c7548146105e7578063ba2d7597146105ef578063c4d66de81461060f57600080fd5b8063adc481a7146105c9578063af182535146105df57600080fd5b80638737929a1461056857806391b57986146105885780639a64ca2c1461059e578063a59546e2146105b457600080fd5b8063392e53cd116101e6578063527d8bc4116101b55780635fba554e1161019a5780635fba554e146104fa578063728345db1461051a57806373f129581461055257600080fd5b8063527d8bc4146104c45780635c57a801146104e457600080fd5b8063392e53cd146104375780633c2c943c14610461578063469507c6146104775780634de6c0361461049757600080fd5b80630dcbf1551161023d5780631345b8a5116102225780631345b8a51461038f57806319cee897146103c757806333d69921146103ff57600080fd5b80630dcbf155146103385780631274fa091461037957600080fd5b8062067a841461029157806306210197146102c45780630c0d4173146103105780630c556d661461032557600080fd5b3661028c5734600860008282546102849190612bac565b925050819055005b600080fd5b34801561029d57600080fd5b506102b16102ac366004612bd0565b610760565b6040519081526020015b60405180910390f35b3480156102d057600080fd5b5061030e6102df366004612c09565b600e805473ffffffffffffffffffffffffffffffffffffffff19166001600160a01b0392909216919091179055565b005b34801561031c57600080fd5b506102b1601e81565b61030e610333366004612c26565b610d75565b34801561034457600080fd5b5061030e610353366004612c56565b60009283526004602090815260408085206001600160a01b039094168552929052912055565b34801561038557600080fd5b506102b160095481565b34801561039b57600080fd5b506102b16103aa366004612c26565b600460209081526000928352604080842090915290825290205481565b3480156103d357600080fd5b50600b546103e7906001600160a01b031681565b6040516001600160a01b0390911681526020016102bb565b34801561040b57600080fd5b506102b161041a366004612c26565b600160209081526000928352604080842090915290825290205481565b34801561044357600080fd5b50600a546040516001600160a01b03909116151581526020016102bb565b34801561046d57600080fd5b506102b1600d5481565b34801561048357600080fd5b5061030e610492366004612c26565b611091565b3480156104a357600080fd5b506104b76104b2366004612c8e565b611133565b6040516102bb9190612cbc565b3480156104d057600080fd5b506102b16104df366004612c09565b611575565b3480156104f057600080fd5b506102b160065481565b34801561050657600080fd5b506102b1610515366004612d00565b611885565b34801561052657600080fd5b506102b1610535366004612c26565b600360209081526000928352604080842090915290825290205481565b34801561055e57600080fd5b506102b160085481565b34801561057457600080fd5b506102b1610583366004612d3b565b61195b565b34801561059457600080fd5b506102b1600c5481565b3480156105aa57600080fd5b506102b160075481565b3480156105c057600080fd5b506102b1611a0b565b3480156105d557600080fd5b506102b160025481565b61030e611d40565b61030e611d59565b3480156105fb57600080fd5b506102b161060a366004612c26565b611d6b565b34801561061b57600080fd5b5061030e61062a366004612c09565b611dc7565b34801561063b57600080fd5b5061030e61064a366004612d6d565b612030565b34801561065b57600080fd5b5061030e61066a366004612d6d565b61211b565b34801561067b57600080fd5b506102b161068a366004612d6d565b60056020526000908152604090205481565b3480156106a857600080fd5b5061030e6106b7366004612d86565b60009182526005602052604090912055565b3480156106d557600080fd5b5061030e6106e4366004612da8565b612206565b3480156106f557600080fd5b506104b7610704366004612c09565b612216565b34801561071557600080fd5b50600a546103e7906001600160a01b031681565b34801561073557600080fd5b506102b1610744366004612dea565b612280565b34801561075557600080fd5b506102b1620f424081565b6000610774600e546001600160a01b031690565b6001600160a01b0316336001600160a01b03161461079157600080fd5b600a546040805163239a373960e21b815290516000926001600160a01b031691638e68dce49160048083019260209291908290030181865afa1580156107db573d6000803e3d6000fd5b505050506040513d601f19601f820116820180604052508101906107ff9190612e23565b90508215610ab9576000816001600160a01b031663794c0c686040518163ffffffff1660e01b8152600401602060405180830381865afa158015610847573d6000803e3d6000fd5b505050506040513d601f19601f8201168201806040525081019061086b9190612e40565b9050600081156108815761087e826122e8565b90505b60008061088f846001612bac565b90506060600a60009054906101000a90046001600160a01b03166001600160a01b031663eebc7a396040518163ffffffff1660e01b8152600401600060405180830381865afa1580156108e6573d6000803e3d6000fd5b505050506040513d6000823e601f3d908101601f1916820160405261090e9190810190612e6f565b9050600092505b805183101561095457610942868383868151811061093557610935612f34565b6020026020010151612938565b8261094c81612f4a565b935050610915565b600a60009054906101000a90046001600160a01b03166001600160a01b031663b7ab4db56040518163ffffffff1660e01b8152600401600060405180830381865afa1580156109a7573d6000803e3d6000fd5b505050506040513d6000823e601f3d908101601f191682016040526109cf9190810190612e6f565b9050600092505b8051831015610a08576109f6868383868151811061093557610935612f34565b82610a0081612f4a565b9350506109d6565b600082815260056020526040808220601e9055600a548151637528621160e01b815291516001600160a01b03909116926375286211926004808201939182900301818387803b158015610a5a57600080fd5b505af1158015610a6e573d6000803e3d6000fd5b505050507ff32b9551d3414b67f8e66e20ac15e62694b9d1230abb2e2e48f9dc2e1964c42984604051610aa391815260200190565b60405180910390a1506000979650505050505050565b6000816001600160a01b031663c6912cc06040518163ffffffff1660e01b8152600401602060405180830381865afa158015610af9573d6000803e3d6000fd5b505050506040513d601f19601f82011682018060405250810190610b1d9190612e40565b90506000600a60009054906101000a90046001600160a01b03166001600160a01b0316636c9230db6040518163ffffffff1660e01b8152600401602060405180830381865afa158015610b74573d6000803e3d6000fd5b505050506040513d601f19601f82011682018060405250810190610b989190612e40565b90506000828210158015610c255750600a60009054906101000a90046001600160a01b03166001600160a01b031663eebc7a396040518163ffffffff1660e01b8152600401600060405180830381865afa158015610bfa573d6000803e3d6000fd5b505050506040513d6000823e601f3d908101601f19168201604052610c229190810190612e6f565b51155b90508015610c9a57600a60009054906101000a90046001600160a01b03166001600160a01b0316635ccee1de6040518163ffffffff1660e01b8152600401600060405180830381600087803b158015610c7d57600080fd5b505af1158015610c91573d6000803e3d6000fd5b50505050610d6b565b836001600160a01b03166322e3d9866040518163ffffffff1660e01b8152600401602060405180830381865afa158015610cd8573d6000803e3d6000fd5b505050506040513d601f19601f82011682018060405250810190610cfc9190612e40565b8210610d6b57600a60009054906101000a90046001600160a01b03166001600160a01b031663ade1900a6040518163ffffffff1660e01b8152600401600060405180830381600087803b158015610d5257600080fd5b505af1158015610d66573d6000803e3d6000fd5b505050505b505050505b919050565b81600003610dd65760405162461bcd60e51b8152602060048201526024808201527f53657445706f6368506f6f6c5265776172643a2065706f63682063616e2774206044820152630626520360e41b60648201526084015b60405180910390fd5b6001600160a01b038116610e385760405162461bcd60e51b8152602060048201526024808201527f53657445706f6368506f6f6c5265776172643a2065706f63682063616e2774206044820152630626520360e41b6064820152608401610dcd565b34600003610eae5760405162461bcd60e51b815260206004820152602560248201527f53657445706f6368506f6f6c5265776172643a207265776172642063616e277460448201527f20626520300000000000000000000000000000000000000000000000000000006064820152608401610dcd565b60008281526001602090815260408083206001600160a01b038516845290915290205415610f445760405162461bcd60e51b815260206004820152603560248201527f53657445706f6368506f6f6c5265776172643a2065706f6368506f6f6c4e617460448201527f69766552657761726420616c72656164792073657400000000000000000000006064820152608401610dcd565b60008281526001602090815260408083206001600160a01b0385168452825280832034905582825280832080548251818502810185019093528083529192909190830182828015610fb457602002820191906000526020600020905b815481526020019060010190808311610fa0575b5050505050905060005b81518110156110675783828281518110610fda57610fda612f34565b6020026020010151036110555760405162461bcd60e51b815260206004820152603a60248201527f546865726520697320616c72656164792061205265776172642070656e64696e60448201527f6720666f722074686973206d696e696e672061646472657373210000000000006064820152608401610dcd565b8061105f81612f4a565b915050610fbe565b50506001600160a01b03166000908152602081815260408220805460018101825590835291200155565b600a60009054906101000a90046001600160a01b03166001600160a01b0316638e68dce46040518163ffffffff1660e01b8152600401602060405180830381865afa1580156110e4573d6000803e3d6000fd5b505050506040513d601f19601f820116820180604052508101906111089190612e23565b6001600160a01b0316336001600160a01b03161461112557600080fd5b61112f8282612b13565b5050565b600a546040516253517560e01b81526001600160a01b0384811660048301526060926000929116906253517590602401602060405180830381865afa158015611180573d6000803e3d6000fd5b505050506040513d601f19601f820116820180604052508101906111a49190612e23565b90506000600a60009054906101000a90046001600160a01b03166001600160a01b0316638e68dce46040518163ffffffff1660e01b8152600401602060405180830381865afa1580156111fb573d6000803e3d6000fd5b505050506040513d601f19601f8201168201806040525081019061121f9190612e23565b90506000846001600160a01b0316866001600160a01b031614159050600080821561135157604051632b2cdba160e11b81526001600160a01b0389811660048301528881166024830152851690635659b74290604401602060405180830381865afa158015611292573d6000803e3d6000fd5b505050506040513d601f19601f820116820180604052508101906112b69190612e40565b9150816000036112dc575050604080516000815260208101909152935061156f92505050565b60405163bc9eb2c360e01b81526001600160a01b038981166004830152888116602483015285169063bc9eb2c390604401602060405180830381865afa15801561132a573d6000803e3d6000fd5b505050506040513d601f19601f8201168201806040525081019061134e9190612e40565b90505b6001600160a01b0385166000908152602081905260408120805490918167ffffffffffffffff81111561138657611386612e59565b6040519080825280602002602001820160405280156113af578160200160208202803683370190505b5090506000805b838110156114c95760008582815481106113d2576113d2612f34565b90600052602060002001549050881561140d57878110156113f357506114b7565b80871115801561140257508615155b1561140d57506114c9565b604051630317277360e41b81526001600160a01b038f811660048301528e81166024830152604482018390528b1690633172773090606401602060405180830381865afa158015611462573d6000803e3d6000fd5b505050506040513d601f19601f820116820180604052508101906114869190612f63565b6114b55780848461149681612f4a565b9550815181106114a8576114a8612f34565b6020026020010181815250505b505b806114c181612f4a565b9150506113b6565b8167ffffffffffffffff8111156114e2576114e2612e59565b60405190808252806020026020018201604052801561150b578160200160208202803683370190505b509a50600090505b818110156115645782818151811061152d5761152d612f34565b60200260200101518b828151811061154757611547612f34565b60209081029190910101528061155c81612f4a565b915050611513565b505050505050505050505b92915050565b600080600a60009054906101000a90046001600160a01b03166001600160a01b0316638e68dce46040518163ffffffff1660e01b8152600401602060405180830381865afa1580156115cb573d6000803e3d6000fd5b505050506040513d601f19601f820116820180604052508101906115ef9190612e23565b90506000816001600160a01b031663794c0c686040518163ffffffff1660e01b8152600401602060405180830381865afa158015611631573d6000803e3d6000fd5b505050506040513d601f19601f820116820180604052508101906116559190612e40565b905080600003611669575060009392505050565b600a546040516253517560e01b81526001600160a01b03868116600483015260009216906253517590602401602060405180830381865afa1580156116b2573d6000803e3d6000fd5b505050506040513d601f19601f820116820180604052508101906116d69190612e23565b600a5460405163a0d16cad60e01b81526001600160a01b03808416600483015292935091169063a0d16cad90602401602060405180830381865afa158015611722573d6000803e3d6000fd5b505050506040513d601f19601f820116820180604052508101906117469190612f63565b1561179b5760008281526004602090815260408083206001600160a01b0385168085529083528184205486855260038452828520918552925290912054611792918491620f424061195b565b95945050505050565b60405163a697ecff60e01b81526001600160a01b0386811660048301819052602483015261179291849186169063a697ecff90604401602060405180830381865afa1580156117ee573d6000803e3d6000fd5b505050506040513d601f19601f820116820180604052508101906118129190612e40565b604051632933f0eb60e11b81526001600160a01b038981166004830152871690635267e1d690602401602060405180830381865afa158015611858573d6000803e3d6000fd5b505050506040513d601f19601f8201168201806040525081019061187c9190612e40565b620f424061195b565b6000841580611892575083155b8061189b575082155b156118a857506000611792565b600080858510156118ba5760006118c4565b6118c48686612f80565b6000898152600560205260409020549091506118e08183612f93565b6118eb826064612f80565b6118f59089612f93565b111561191757856119068987612f93565b6119109190612faa565b925061194e565b611922826064612f93565b61192d826064612f80565b6119378a88612f93565b6119419190612f93565b61194b9190612faa565b92505b5090979650505050505050565b6000831580611968575082155b1561197557506000611a03565b60008085851015611987576000611991565b6119918686612f80565b6000888152600560205260409020549091506119ad8183612f93565b6119b8826064612f80565b6119c29089612f93565b11156119e457856119d38887612f93565b6119dd9190612faa565b92506119fd565b60646119f08287612f93565b6119fa9190612faa565b92505b50909150505b949350505050565b600080600a60009054906101000a90046001600160a01b03166001600160a01b0316638e68dce46040518163ffffffff1660e01b8152600401602060405180830381865afa158015611a61573d6000803e3d6000fd5b505050506040513d601f19601f82011682018060405250810190611a859190612e23565b90506000816001600160a01b0316639b03d7446040518163ffffffff1660e01b8152600401602060405180830381865afa158015611ac7573d6000803e3d6000fd5b505050506040513d601f19601f82011682018060405250810190611aeb9190612e40565b826001600160a01b03166322e3d9866040518163ffffffff1660e01b8152600401602060405180830381865afa158015611b29573d6000803e3d6000fd5b505050506040513d601f19601f82011682018060405250810190611b4d9190612e40565b611b579190612f80565b9050816001600160a01b03166322e3d9866040518163ffffffff1660e01b8152600401602060405180830381865afa158015611b97573d6000803e3d6000fd5b505050506040513d601f19601f82011682018060405250810190611bbb9190612e40565b600a60009054906101000a90046001600160a01b03166001600160a01b0316636c9230db6040518163ffffffff1660e01b8152600401602060405180830381865afa158015611c0e573d6000803e3d6000fd5b505050506040513d601f19601f82011682018060405250810190611c329190612e40565b11611d355780826001600160a01b0316639b03d7446040518163ffffffff1660e01b8152600401602060405180830381865afa158015611c76573d6000803e3d6000fd5b505050506040513d601f19601f82011682018060405250810190611c9a9190612e40565b600a60009054906101000a90046001600160a01b03166001600160a01b0316636c9230db6040518163ffffffff1660e01b8152600401602060405180830381865afa158015611ced573d6000803e3d6000fd5b505050506040513d601f19601f82011682018060405250810190611d119190612e40565b611d1b9190612f80565b611d26906064612f93565b611d309190612faa565b611d39565b6103e85b9250505090565b3460086000828254611d529190612bac565b9091555050565b3460066000828254611d529190612bac565b60008281526004602090815260408083206001600160a01b03851680855290835281842054868552600384528285208286528452828520548786526001855283862092865291909352908320546117929086908490849061195b565b7fb53127684a568b3173ae13b9f8a6016e243e63b6e8ee1178d6a717850b5d6103546001600160a01b0316336001600160a01b03161480611e3a57507fb53127684a568b3173ae13b9f8a6016e243e63b6e8ee1178d6a717850b5d6103546001600160a01b0316326001600160a01b0316145b80611e6d57507fb53127684a568b3173ae13b9f8a6016e243e63b6e8ee1178d6a717850b5d6103546001600160a01b0316155b80611e76575043155b611ee85760405162461bcd60e51b815260206004820152603060248201527f496e697469616c697a6174696f6e206f6e6c79206f6e2067656e65736973206260448201527f6c6f636b206f722062792061646d696e000000000000000000000000000000006064820152608401610dcd565b600a546001600160a01b031615611f4d5760405162461bcd60e51b8152602060048201526024808201527f696e697469616c697a6174696f6e2063616e206f6e6c7920626520646f6e65206044820152636f6e636560e01b6064820152608401610dcd565b6001600160a01b038116611fa35760405162461bcd60e51b815260206004820152601a60248201527f56616c696461746f72536574206d757374206e6f7420626520300000000000006044820152606401610dcd565b600a80546001600160a01b0390921673ffffffffffffffffffffffffffffffffffffffff19928316178155600080526005602052601e7f05b8ccbb9d4d8fb16ea74ce3c29a41f1b461fbdaff4714a0d9a8eb05499746bc556117706007819055600955600b805490921673da0da0da0da0da0da0da00da0da0da0da0da0da0179091556001600c55600d55565b7fb53127684a568b3173ae13b9f8a6016e243e63b6e8ee1178d6a717850b5d6103546001600160a01b0316336001600160a01b0316146120c65760405162461bcd60e51b815260206004820152602b60248201527f6f6e6c792061646d696e20697320616c6c6f77656420746f2063616c6c20746860448201526a34b990333ab731ba34b7b760a91b6064820152608401610dcd565b806000036121165760405162461bcd60e51b815260206004820152601d60248201527f5061796f7574206672616374696f6e206d757374206e6f7420626520300000006044820152606401610dcd565b600955565b7fb53127684a568b3173ae13b9f8a6016e243e63b6e8ee1178d6a717850b5d6103546001600160a01b0316336001600160a01b0316146121b15760405162461bcd60e51b815260206004820152602b60248201527f6f6e6c792061646d696e20697320616c6c6f77656420746f2063616c6c20746860448201526a34b990333ab731ba34b7b760a91b6064820152608401610dcd565b806000036122015760405162461bcd60e51b815260206004820152601d60248201527f5061796f7574206672616374696f6e206d757374206e6f7420626520300000006044820152606401610dcd565b600755565b612211838383612938565b505050565b6001600160a01b0381166000908152602081815260409182902080548351818402810184019094528084526060939283018282801561227457602002820191906000526020600020905b815481526020019060010190808311612260575b50505050509050919050565b60008281526004602090815260408083206001600160a01b03851680855290835281842054868552600384528285208286528452828520548786526001855283862092865291909352908320546122de908690889085908590611885565b9695505050505050565b600080600a60009054906101000a90046001600160a01b03166001600160a01b031663b7ab4db56040518163ffffffff1660e01b8152600401600060405180830381865afa15801561233e573d6000803e3d6000fd5b505050506040513d6000823e601f3d908101601f191682016040526123669190810190612e6f565b805190915060008190036123bc5760405162461bcd60e51b815260206004820152601460248201527f456d7074792056616c696461746f72206c6973740000000000000000000000006044820152606401610dcd565b600080600a60009054906101000a90046001600160a01b03166001600160a01b03166308ac52566040518163ffffffff1660e01b8152600401602060405180830381865afa158015612412573d6000803e3d6000fd5b505050506040513d601f19601f820116820180604052508101906124369190612e40565b90506000606482600754612448611a0b565b876006546124569190612f93565b6124609190612f93565b61246a9190612faa565b6124749190612faa565b61247e9190612faa565b905080600660008282546124929190612f80565b9250508190555060006064836009546124a9611a0b565b886008546124b79190612f93565b6124c19190612f93565b6124cb9190612faa565b6124d59190612faa565b6124df9190612faa565b905080600860008282546124f39190612f80565b90915550506002546125058284612bac565b61250f9190612bac565b93505050508060000361252757506000949350505050565b6000600d54600c548361253a9190612f93565b6125449190612faa565b600b546040519192506001600160a01b03169082156108fc029083906000818181858888f1935050505015801561257f573d6000803e3d6000fd5b50600061258c8284612f80565b905060008467ffffffffffffffff8111156125a9576125a9612e59565b6040519080825280602002602001820160405280156125d2578160200160208202803683370190505b5090506000805b875181101561272557600a5488516001600160a01b039091169063a92252ae908a908490811061260b5761260b612f34565b60200260200101516040518263ffffffff1660e01b815260040161263e91906001600160a01b0391909116815260200190565b602060405180830381865afa15801561265b573d6000803e3d6000fd5b505050506040513d601f19601f8201168201806040525081019061267f9190612f63565b1580156126dc5750600460008b815260200190815260200160002060008983815181106126ae576126ae612f34565b60200260200101516001600160a01b03166001600160a01b0316815260200190815260200160002054600014155b156127135760018382815181106126f5576126f5612f34565b911515602092830291909101909101528161270f81612f4a565b9250505b8061271d81612f4a565b9150506125d9565b508060000361273d5750600098975050505050505050565b60006127498285612faa565b9050801561291d5760005b8781101561291b5783818151811061276e5761276e612f34565b60200260200101511561290957600160008c815260200190815260200160002060008a83815181106127a2576127a2612f34565b60200260200101516001600160a01b03166001600160a01b03168152602001908152602001600020546000146128665760405162461bcd60e51b815260206004820152605c60248201527f63616e74206469737472696275746520726577617264733a207468657265206960448201527f7320616c7265616479206120706f6f6c2072657761726420646566696e65642060648201527f666f7220746869732065706f636820616e642076616c696461746f7200000000608482015260a401610dcd565b60008b81526001602052604081208a518492908c908590811061288b5761288b612f34565b6020908102919091018101516001600160a01b03168252810191909152604001600020556128b98287612bac565b95506000808a83815181106128d0576128d0612f34565b6020908102919091018101516001600160a01b031682528181019290925260400160009081208054600181018255908252919020018b90555b8061291381612f4a565b915050612754565b505b6129278587612f80565b600255509298975050505050505050565b60008281526003602090815260408083206001600160a01b03851684529091529020541561296557505050565b600a546040516307b9342f60e21b81526001600160a01b0383811660048301526000921690631ee4d0bc90602401602060405180830381865afa1580156129b0573d6000803e3d6000fd5b505050506040513d601f19601f820116820180604052508101906129d49190612e23565b604051632933f0eb60e11b81526001600160a01b038083166004830152919250600091861690635267e1d690602401602060405180830381865afa158015612a20573d6000803e3d6000fd5b505050506040513d601f19601f82011682018060405250810190612a449190612e40565b905080600003612a55575050505050565b60008481526003602090815260408083206001600160a01b038781168552925291829020839055905163a697ecff60e01b81528382166004820181905260248201529086169063a697ecff90604401602060405180830381865afa158015612ac1573d6000803e3d6000fd5b505050506040513d601f19601f82011682018060405250810190612ae59190612e40565b60009485526004602090815260408087206001600160a01b0390961687529490529290932091909155505050565b8115801590612b4457506040516001600160a01b0382169083156108fc029084906000818181858888f19350505050155b1561112f578181604051612b5790612b8a565b6001600160a01b0390911681526020016040518091039082f0905080158015612b84573d6000803e3d6000fd5b50505050565b605980612fcd83390190565b634e487b7160e01b600052601160045260246000fd5b8082018082111561156f5761156f612b96565b8015158114612bcd57600080fd5b50565b600060208284031215612be257600080fd5b8135612bed81612bbf565b9392505050565b6001600160a01b0381168114612bcd57600080fd5b600060208284031215612c1b57600080fd5b8135612bed81612bf4565b60008060408385031215612c3957600080fd5b823591506020830135612c4b81612bf4565b809150509250929050565b600080600060608486031215612c6b57600080fd5b833592506020840135612c7d81612bf4565b929592945050506040919091013590565b60008060408385031215612ca157600080fd5b8235612cac81612bf4565b91506020830135612c4b81612bf4565b6020808252825182820181905260009190848201906040850190845b81811015612cf457835183529284019291840191600101612cd8565b50909695505050505050565b600080600080600060a08688031215612d1857600080fd5b505083359560208501359550604085013594606081013594506080013592509050565b60008060008060808587031215612d5157600080fd5b5050823594602084013594506040840135936060013592509050565b600060208284031215612d7f57600080fd5b5035919050565b60008060408385031215612d9957600080fd5b50508035926020909101359150565b600080600060608486031215612dbd57600080fd5b8335612dc881612bf4565b9250602084013591506040840135612ddf81612bf4565b809150509250925092565b600080600060608486031215612dff57600080fd5b83359250602084013591506040840135612ddf81612bf4565b8051610d7081612bf4565b600060208284031215612e3557600080fd5b8151612bed81612bf4565b600060208284031215612e5257600080fd5b5051919050565b634e487b7160e01b600052604160045260246000fd5b60006020808385031215612e8257600080fd5b825167ffffffffffffffff80821115612e9a57600080fd5b818501915085601f830112612eae57600080fd5b815181811115612ec057612ec0612e59565b8060051b604051601f19603f83011681018181108582111715612ee557612ee5612e59565b604052918252848201925083810185019188831115612f0357600080fd5b938501935b82851015612f2857612f1985612e18565b84529385019392850192612f08565b98975050505050505050565b634e487b7160e01b600052603260045260246000fd5b600060018201612f5c57612f5c612b96565b5060010190565b600060208284031215612f7557600080fd5b8151612bed81612bbf565b8181038181111561156f5761156f612b96565b808202811582820484141761156f5761156f612b96565b600082612fc757634e487b7160e01b600052601260045260246000fd5b50049056fe608060405260405160593803806059833981016040819052601e91602a565b806001600160a01b0316ff5b600060208284031215603b57600080fd5b81516001600160a01b0381168114605157600080fd5b939250505056fea2646970667358221220dd2e7d53badc025327efc26645c473a45de61240e368a88fdd2d09cb42162f9964736f6c63430008110033",
  "linkReferences": {},
  "deployedLinkReferences": {}
}