{
  "_format": "hh-sol-artifact-1",
  "contractName": "BlockRewardHbbftBaseMock",
  "sourceName": "contracts/mockContracts/BlockRewardHbbftBaseMock.sol",
  "abi": [
    {
      "anonymous": false,
      "inputs": [
        {
          "indexed": false,
          "internalType": "uint256",
          "name": "rewards",
          "type": "uint256"
        }
      ],
      "name": "CoinsRewarded",
      "type": "event"
    },
    {
      "inputs": [],
      "name": "REWARD_PERCENT_MULTIPLIER",
      "outputs": [
        {
          "internalType": "uint256",
          "name": "",
          "type": "uint256"
        }
      ],
      "stateMutability": "view",
      "type": "function"
    },
    {
      "inputs": [],
      "name": "VALIDATOR_MIN_REWARD_PERCENT",
      "outputs": [
        {
          "internalType": "uint256",
          "name": "",
          "type": "uint256"
        }
      ],
      "stateMutability": "view",
      "type": "function"
    },
    {
      "inputs": [],
      "name": "addToDeltaPot",
      "outputs": [],
      "stateMutability": "payable",
      "type": "function"
    },
    {
      "inputs": [],
      "name": "addToReinsertPot",
      "outputs": [],
      "stateMutability": "payable",
      "type": "function"
    },
    {
      "inputs": [
        {
          "internalType": "uint256",
          "name": "_stakingEpoch",
          "type": "uint256"
        },
        {
          "internalType": "uint256",
          "name": "_delegatorStaked",
          "type": "uint256"
        },
        {
          "internalType": "uint256",
          "name": "_validatorStaked",
          "type": "uint256"
        },
        {
          "internalType": "uint256",
          "name": "_totalStaked",
          "type": "uint256"
        },
        {
          "internalType": "uint256",
          "name": "_poolReward",
          "type": "uint256"
        }
      ],
      "name": "delegatorShare",
      "outputs": [
        {
          "internalType": "uint256",
          "name": "",
          "type": "uint256"
        }
      ],
      "stateMutability": "view",
      "type": "function"
    },
    {
      "inputs": [],
      "name": "deltaPot",
      "outputs": [
        {
          "internalType": "uint256",
          "name": "",
          "type": "uint256"
        }
      ],
      "stateMutability": "view",
      "type": "function"
    },
    {
      "inputs": [],
      "name": "deltaPotPayoutFraction",
      "outputs": [
        {
          "internalType": "uint256",
          "name": "",
          "type": "uint256"
        }
      ],
      "stateMutability": "view",
      "type": "function"
    },
    {
      "inputs": [],
      "name": "epochPercentage",
      "outputs": [
        {
          "internalType": "uint256",
          "name": "",
          "type": "uint256"
        }
      ],
      "stateMutability": "view",
      "type": "function"
    },
    {
      "inputs": [
        {
          "internalType": "uint256",
          "name": "",
          "type": "uint256"
        },
        {
          "internalType": "address",
          "name": "",
          "type": "address"
        }
      ],
      "name": "epochPoolNativeReward",
      "outputs": [
        {
          "internalType": "uint256",
          "name": "",
          "type": "uint256"
        }
      ],
      "stateMutability": "view",
      "type": "function"
    },
    {
      "inputs": [
        {
          "internalType": "address",
          "name": "_miningAddress",
          "type": "address"
        }
      ],
      "name": "epochsPoolGotRewardFor",
      "outputs": [
        {
          "internalType": "uint256[]",
          "name": "",
          "type": "uint256[]"
        }
      ],
      "stateMutability": "view",
      "type": "function"
    },
    {
      "inputs": [
        {
          "internalType": "address",
          "name": "_poolStakingAddress",
          "type": "address"
        },
        {
          "internalType": "address",
          "name": "_staker",
          "type": "address"
        }
      ],
      "name": "epochsToClaimRewardFrom",
      "outputs": [
        {
          "internalType": "uint256[]",
          "name": "epochsToClaimFrom",
          "type": "uint256[]"
        }
      ],
      "stateMutability": "view",
      "type": "function"
    },
    {
      "inputs": [],
      "name": "governancePotAddress",
      "outputs": [
        {
          "internalType": "address payable",
          "name": "",
          "type": "address"
        }
      ],
      "stateMutability": "view",
      "type": "function"
    },
    {
      "inputs": [],
      "name": "governancePotShareDenominator",
      "outputs": [
        {
          "internalType": "uint256",
          "name": "",
          "type": "uint256"
        }
      ],
      "stateMutability": "view",
      "type": "function"
    },
    {
      "inputs": [],
      "name": "governancePotShareNominator",
      "outputs": [
        {
          "internalType": "uint256",
          "name": "",
          "type": "uint256"
        }
      ],
      "stateMutability": "view",
      "type": "function"
    },
    {
      "inputs": [
        {
          "internalType": "address",
          "name": "_validatorSet",
          "type": "address"
        }
      ],
      "name": "initialize",
      "outputs": [],
      "stateMutability": "nonpayable",
      "type": "function"
    },
    {
      "inputs": [],
      "name": "isInitialized",
      "outputs": [
        {
          "internalType": "bool",
          "name": "",
          "type": "bool"
        }
      ],
      "stateMutability": "view",
      "type": "function"
    },
    {
      "inputs": [],
      "name": "nativeRewardUndistributed",
      "outputs": [
        {
          "internalType": "uint256",
          "name": "",
          "type": "uint256"
        }
      ],
      "stateMutability": "view",
      "type": "function"
    },
    {
      "inputs": [],
      "name": "reinsertPot",
      "outputs": [
        {
          "internalType": "uint256",
          "name": "",
          "type": "uint256"
        }
      ],
      "stateMutability": "view",
      "type": "function"
    },
    {
      "inputs": [],
      "name": "reinsertPotPayoutFraction",
      "outputs": [
        {
          "internalType": "uint256",
          "name": "",
          "type": "uint256"
        }
      ],
      "stateMutability": "view",
      "type": "function"
    },
    {
      "inputs": [
        {
          "internalType": "bool",
          "name": "_isEpochEndBlock",
          "type": "bool"
        }
      ],
      "name": "reward",
      "outputs": [
        {
          "internalType": "uint256",
          "name": "rewardsNative",
          "type": "uint256"
        }
      ],
      "stateMutability": "nonpayable",
      "type": "function"
    },
    {
      "inputs": [],
      "name": "sendCoins",
      "outputs": [],
      "stateMutability": "payable",
      "type": "function"
    },
    {
      "inputs": [
        {
          "internalType": "uint256",
          "name": "_value",
          "type": "uint256"
        }
      ],
      "name": "setReinsertPotPayoutFraction",
      "outputs": [],
      "stateMutability": "nonpayable",
      "type": "function"
    },
    {
      "inputs": [
        {
          "internalType": "uint256",
          "name": "_stakingEpoch",
          "type": "uint256"
        },
        {
          "internalType": "address",
          "name": "_poolMiningAddress",
          "type": "address"
        },
        {
          "internalType": "uint256",
          "name": "_amount",
          "type": "uint256"
        }
      ],
      "name": "setSnapshotPoolValidatorStakeAmount",
      "outputs": [],
      "stateMutability": "nonpayable",
      "type": "function"
    },
    {
      "inputs": [
        {
          "internalType": "address",
          "name": "_address",
          "type": "address"
        }
      ],
      "name": "setSystemAddress",
      "outputs": [],
      "stateMutability": "nonpayable",
      "type": "function"
    },
    {
      "inputs": [
        {
          "internalType": "uint256",
          "name": "_stakingEpoch",
          "type": "uint256"
        },
        {
          "internalType": "uint256",
          "name": "_percent",
          "type": "uint256"
        }
      ],
      "name": "setValidatorMinRewardPercent",
      "outputs": [],
      "stateMutability": "nonpayable",
      "type": "function"
    },
    {
      "inputs": [
        {
          "internalType": "uint256",
          "name": "_value",
          "type": "uint256"
        }
      ],
      "name": "setdeltaPotPayoutFraction",
      "outputs": [],
      "stateMutability": "nonpayable",
      "type": "function"
    },
    {
      "inputs": [
        {
          "internalType": "contract IStakingHbbft",
          "name": "_stakingContract",
          "type": "address"
        },
        {
          "internalType": "uint256",
          "name": "_stakingEpoch",
          "type": "uint256"
        },
        {
          "internalType": "address",
          "name": "_miningAddress",
          "type": "address"
        }
      ],
      "name": "snapshotPoolStakeAmounts",
      "outputs": [],
      "stateMutability": "nonpayable",
      "type": "function"
    },
    {
      "inputs": [
        {
          "internalType": "uint256",
          "name": "",
          "type": "uint256"
        },
        {
          "internalType": "address",
          "name": "",
          "type": "address"
        }
      ],
      "name": "snapshotPoolTotalStakeAmount",
      "outputs": [
        {
          "internalType": "uint256",
          "name": "",
          "type": "uint256"
        }
      ],
      "stateMutability": "view",
      "type": "function"
    },
    {
      "inputs": [
        {
          "internalType": "uint256",
          "name": "",
          "type": "uint256"
        },
        {
          "internalType": "address",
          "name": "",
          "type": "address"
        }
      ],
      "name": "snapshotPoolValidatorStakeAmount",
      "outputs": [
        {
          "internalType": "uint256",
          "name": "",
          "type": "uint256"
        }
      ],
      "stateMutability": "view",
      "type": "function"
    },
    {
      "inputs": [
        {
          "internalType": "uint256",
          "name": "",
          "type": "uint256"
        }
      ],
      "name": "validatorMinRewardPercent",
      "outputs": [
        {
          "internalType": "uint256",
          "name": "",
          "type": "uint256"
        }
      ],
      "stateMutability": "view",
      "type": "function"
    },
    {
      "inputs": [
        {
          "internalType": "address",
          "name": "_stakingAddress",
          "type": "address"
        }
      ],
      "name": "validatorRewardPercent",
      "outputs": [
        {
          "internalType": "uint256",
          "name": "",
          "type": "uint256"
        }
      ],
      "stateMutability": "view",
      "type": "function"
    },
    {
      "inputs": [],
      "name": "validatorSetContract",
      "outputs": [
        {
          "internalType": "contract IValidatorSetHbbft",
          "name": "",
          "type": "address"
        }
      ],
      "stateMutability": "view",
      "type": "function"
    },
    {
      "inputs": [
        {
          "internalType": "uint256",
          "name": "_stakingEpoch",
          "type": "uint256"
        },
        {
          "internalType": "uint256",
          "name": "_validatorStaked",
          "type": "uint256"
        },
        {
          "internalType": "uint256",
          "name": "_totalStaked",
          "type": "uint256"
        },
        {
          "internalType": "uint256",
          "name": "_poolReward",
          "type": "uint256"
        }
      ],
      "name": "validatorShare",
      "outputs": [
        {
          "internalType": "uint256",
          "name": "",
          "type": "uint256"
        }
      ],
      "stateMutability": "view",
      "type": "function"
    },
    {
      "stateMutability": "payable",
      "type": "receive"
    }
  ],
  "bytecode": "0x608060405234801561001057600080fd5b506129f5806100206000396000f3fe6080604052600436106102015760003560e01c80638737929a1161011d578063c6cc9333116100b0578063d88aebd71161007f578063dfc8bf4e11610064578063dfc8bf4e1461064a578063e58edc381461066a578063f302163d146102a257600080fd5b8063d88aebd71461060a578063dd03f5b91461062a57600080fd5b8063c6cc933314610570578063cb68d12714610590578063cdf7a090146105b0578063d0899cb4146105dd57600080fd5b8063adc481a7116100ec578063adc481a71461052a578063af18253514610540578063b10c754814610548578063c4d66de81461055057600080fd5b80638737929a146104c957806391b57986146104e95780639a64ca2c146104ff578063a59546e21461051557600080fd5b8063392e53cd116101955780635c57a801116101645780635c57a801146104455780635fba554e1461045b578063728345db1461047b57806373f12958146104b357600080fd5b8063392e53cd146103b85780633c2c943c146103e25780634de6c036146103f8578063527d8bc41461042557600080fd5b80631274fa09116101d15780631274fa09146102fa5780631345b8a51461031057806319cee8971461034857806333d699211461038057600080fd5b8062067a841461022557806306210197146102585780630c0d4173146102a45780630dcbf155146102b957600080fd5b3661022057346008600082825461021891906125cd565b925050819055005b600080fd5b34801561023157600080fd5b506102456102403660046125f1565b610681565b6040519081526020015b60405180910390f35b34801561026457600080fd5b506102a261027336600461262a565b600e805473ffffffffffffffffffffffffffffffffffffffff19166001600160a01b0392909216919091179055565b005b3480156102b057600080fd5b50610245601e81565b3480156102c557600080fd5b506102a26102d4366004612647565b60009283526004602090815260408085206001600160a01b039094168552929052912055565b34801561030657600080fd5b5061024560095481565b34801561031c57600080fd5b5061024561032b36600461267f565b600460209081526000928352604080842090915290825290205481565b34801561035457600080fd5b50600b54610368906001600160a01b031681565b6040516001600160a01b03909116815260200161024f565b34801561038c57600080fd5b5061024561039b36600461267f565b600160209081526000928352604080842090915290825290205481565b3480156103c457600080fd5b50600a546040516001600160a01b039091161515815260200161024f565b3480156103ee57600080fd5b50610245600d5481565b34801561040457600080fd5b506104186104133660046126af565b610c96565b60405161024f91906126dd565b34801561043157600080fd5b5061024561044036600461262a565b6110d8565b34801561045157600080fd5b5061024560065481565b34801561046757600080fd5b50610245610476366004612721565b6113e8565b34801561048757600080fd5b5061024561049636600461267f565b600360209081526000928352604080842090915290825290205481565b3480156104bf57600080fd5b5061024560085481565b3480156104d557600080fd5b506102456104e436600461275c565b6114be565b3480156104f557600080fd5b50610245600c5481565b34801561050b57600080fd5b5061024560075481565b34801561052157600080fd5b5061024561156e565b34801561053657600080fd5b5061024560025481565b6102a26118a3565b6102a26118bc565b34801561055c57600080fd5b506102a261056b36600461262a565b6118ce565b34801561057c57600080fd5b506102a261058b36600461278e565b611b3c565b34801561059c57600080fd5b506102a26105ab36600461278e565b611c27565b3480156105bc57600080fd5b506102456105cb36600461278e565b60056020526000908152604090205481565b3480156105e957600080fd5b506102a26105f83660046127a7565b60009182526005602052604090912055565b34801561061657600080fd5b506102a26106253660046127c9565b611d12565b34801561063657600080fd5b5061041861064536600461262a565b611d22565b34801561065657600080fd5b50600a54610368906001600160a01b031681565b34801561067657600080fd5b50610245620f424081565b6000610695600e546001600160a01b031690565b6001600160a01b0316336001600160a01b0316146106b257600080fd5b600a546040805163239a373960e21b815290516000926001600160a01b031691638e68dce49160048083019260209291908290030181865afa1580156106fc573d6000803e3d6000fd5b505050506040513d601f19601f820116820180604052508101906107209190612816565b905082156109da576000816001600160a01b031663794c0c686040518163ffffffff1660e01b8152600401602060405180830381865afa158015610768573d6000803e3d6000fd5b505050506040513d601f19601f8201168201806040525081019061078c9190612833565b9050600081156107a25761079f82611d8c565b90505b6000806107b08460016125cd565b90506060600a60009054906101000a90046001600160a01b03166001600160a01b031663eebc7a396040518163ffffffff1660e01b8152600401600060405180830381865afa158015610807573d6000803e3d6000fd5b505050506040513d6000823e601f3d908101601f1916820160405261082f9190810190612862565b9050600092505b805183101561087557610863868383868151811061085657610856612927565b60200260200101516123dc565b8261086d8161293d565b935050610836565b600a60009054906101000a90046001600160a01b03166001600160a01b031663b7ab4db56040518163ffffffff1660e01b8152600401600060405180830381865afa1580156108c8573d6000803e3d6000fd5b505050506040513d6000823e601f3d908101601f191682016040526108f09190810190612862565b9050600092505b805183101561092957610917868383868151811061085657610856612927565b826109218161293d565b9350506108f7565b600082815260056020526040808220601e9055600a548151637528621160e01b815291516001600160a01b03909116926375286211926004808201939182900301818387803b15801561097b57600080fd5b505af115801561098f573d6000803e3d6000fd5b505050507ff32b9551d3414b67f8e66e20ac15e62694b9d1230abb2e2e48f9dc2e1964c429846040516109c491815260200190565b60405180910390a1506000979650505050505050565b6000816001600160a01b031663c6912cc06040518163ffffffff1660e01b8152600401602060405180830381865afa158015610a1a573d6000803e3d6000fd5b505050506040513d601f19601f82011682018060405250810190610a3e9190612833565b90506000600a60009054906101000a90046001600160a01b03166001600160a01b0316636c9230db6040518163ffffffff1660e01b8152600401602060405180830381865afa158015610a95573d6000803e3d6000fd5b505050506040513d601f19601f82011682018060405250810190610ab99190612833565b90506000828210158015610b465750600a60009054906101000a90046001600160a01b03166001600160a01b031663eebc7a396040518163ffffffff1660e01b8152600401600060405180830381865afa158015610b1b573d6000803e3d6000fd5b505050506040513d6000823e601f3d908101601f19168201604052610b439190810190612862565b51155b90508015610bbb57600a60009054906101000a90046001600160a01b03166001600160a01b0316635ccee1de6040518163ffffffff1660e01b8152600401600060405180830381600087803b158015610b9e57600080fd5b505af1158015610bb2573d6000803e3d6000fd5b50505050610c8c565b836001600160a01b03166322e3d9866040518163ffffffff1660e01b8152600401602060405180830381865afa158015610bf9573d6000803e3d6000fd5b505050506040513d601f19601f82011682018060405250810190610c1d9190612833565b8210610c8c57600a60009054906101000a90046001600160a01b03166001600160a01b031663ade1900a6040518163ffffffff1660e01b8152600401600060405180830381600087803b158015610c7357600080fd5b505af1158015610c87573d6000803e3d6000fd5b505050505b505050505b919050565b600a546040516253517560e01b81526001600160a01b0384811660048301526060926000929116906253517590602401602060405180830381865afa158015610ce3573d6000803e3d6000fd5b505050506040513d601f19601f82011682018060405250810190610d079190612816565b90506000600a60009054906101000a90046001600160a01b03166001600160a01b0316638e68dce46040518163ffffffff1660e01b8152600401602060405180830381865afa158015610d5e573d6000803e3d6000fd5b505050506040513d601f19601f82011682018060405250810190610d829190612816565b90506000846001600160a01b0316866001600160a01b0316141590506000808215610eb457604051632b2cdba160e11b81526001600160a01b0389811660048301528881166024830152851690635659b74290604401602060405180830381865afa158015610df5573d6000803e3d6000fd5b505050506040513d601f19601f82011682018060405250810190610e199190612833565b915081600003610e3f57505060408051600081526020810190915293506110d292505050565b60405163bc9eb2c360e01b81526001600160a01b038981166004830152888116602483015285169063bc9eb2c390604401602060405180830381865afa158015610e8d573d6000803e3d6000fd5b505050506040513d601f19601f82011682018060405250810190610eb19190612833565b90505b6001600160a01b0385166000908152602081905260408120805490918167ffffffffffffffff811115610ee957610ee961284c565b604051908082528060200260200182016040528015610f12578160200160208202803683370190505b5090506000805b8381101561102c576000858281548110610f3557610f35612927565b906000526020600020015490508815610f705787811015610f56575061101a565b808711158015610f6557508615155b15610f70575061102c565b604051630317277360e41b81526001600160a01b038f811660048301528e81166024830152604482018390528b1690633172773090606401602060405180830381865afa158015610fc5573d6000803e3d6000fd5b505050506040513d601f19601f82011682018060405250810190610fe99190612956565b61101857808484610ff98161293d565b95508151811061100b5761100b612927565b6020026020010181815250505b505b806110248161293d565b915050610f19565b8167ffffffffffffffff8111156110455761104561284c565b60405190808252806020026020018201604052801561106e578160200160208202803683370190505b509a50600090505b818110156110c75782818151811061109057611090612927565b60200260200101518b82815181106110aa576110aa612927565b6020908102919091010152806110bf8161293d565b915050611076565b505050505050505050505b92915050565b600080600a60009054906101000a90046001600160a01b03166001600160a01b0316638e68dce46040518163ffffffff1660e01b8152600401602060405180830381865afa15801561112e573d6000803e3d6000fd5b505050506040513d601f19601f820116820180604052508101906111529190612816565b90506000816001600160a01b031663794c0c686040518163ffffffff1660e01b8152600401602060405180830381865afa158015611194573d6000803e3d6000fd5b505050506040513d601f19601f820116820180604052508101906111b89190612833565b9050806000036111cc575060009392505050565b600a546040516253517560e01b81526001600160a01b03868116600483015260009216906253517590602401602060405180830381865afa158015611215573d6000803e3d6000fd5b505050506040513d601f19601f820116820180604052508101906112399190612816565b600a5460405163a0d16cad60e01b81526001600160a01b03808416600483015292935091169063a0d16cad90602401602060405180830381865afa158015611285573d6000803e3d6000fd5b505050506040513d601f19601f820116820180604052508101906112a99190612956565b156112fe5760008281526004602090815260408083206001600160a01b03851680855290835281842054868552600384528285209185529252909120546112f5918491620f42406114be565b95945050505050565b60405163a697ecff60e01b81526001600160a01b038681166004830181905260248301526112f591849186169063a697ecff90604401602060405180830381865afa158015611351573d6000803e3d6000fd5b505050506040513d601f19601f820116820180604052508101906113759190612833565b604051632933f0eb60e11b81526001600160a01b038981166004830152871690635267e1d690602401602060405180830381865afa1580156113bb573d6000803e3d6000fd5b505050506040513d601f19601f820116820180604052508101906113df9190612833565b620f42406114be565b60008415806113f5575083155b806113fe575082155b1561140b575060006112f5565b6000808585101561141d576000611427565b6114278686612973565b6000898152600560205260409020549091506114438183612986565b61144e826064612973565b6114589089612986565b111561147a57856114698987612986565b611473919061299d565b92506114b1565b611485826064612986565b611490826064612973565b61149a8a88612986565b6114a49190612986565b6114ae919061299d565b92505b5090979650505050505050565b60008315806114cb575082155b156114d857506000611566565b600080858510156114ea5760006114f4565b6114f48686612973565b6000888152600560205260409020549091506115108183612986565b61151b826064612973565b6115259089612986565b111561154757856115368887612986565b611540919061299d565b9250611560565b60646115538287612986565b61155d919061299d565b92505b50909150505b949350505050565b600080600a60009054906101000a90046001600160a01b03166001600160a01b0316638e68dce46040518163ffffffff1660e01b8152600401602060405180830381865afa1580156115c4573d6000803e3d6000fd5b505050506040513d601f19601f820116820180604052508101906115e89190612816565b90506000816001600160a01b0316639b03d7446040518163ffffffff1660e01b8152600401602060405180830381865afa15801561162a573d6000803e3d6000fd5b505050506040513d601f19601f8201168201806040525081019061164e9190612833565b826001600160a01b03166322e3d9866040518163ffffffff1660e01b8152600401602060405180830381865afa15801561168c573d6000803e3d6000fd5b505050506040513d601f19601f820116820180604052508101906116b09190612833565b6116ba9190612973565b9050816001600160a01b03166322e3d9866040518163ffffffff1660e01b8152600401602060405180830381865afa1580156116fa573d6000803e3d6000fd5b505050506040513d601f19601f8201168201806040525081019061171e9190612833565b600a60009054906101000a90046001600160a01b03166001600160a01b0316636c9230db6040518163ffffffff1660e01b8152600401602060405180830381865afa158015611771573d6000803e3d6000fd5b505050506040513d601f19601f820116820180604052508101906117959190612833565b116118985780826001600160a01b0316639b03d7446040518163ffffffff1660e01b8152600401602060405180830381865afa1580156117d9573d6000803e3d6000fd5b505050506040513d601f19601f820116820180604052508101906117fd9190612833565b600a60009054906101000a90046001600160a01b03166001600160a01b0316636c9230db6040518163ffffffff1660e01b8152600401602060405180830381865afa158015611850573d6000803e3d6000fd5b505050506040513d601f19601f820116820180604052508101906118749190612833565b61187e9190612973565b611889906064612986565b611893919061299d565b61189c565b6103e85b9250505090565b34600860008282546118b591906125cd565b9091555050565b34600660008282546118b591906125cd565b7fb53127684a568b3173ae13b9f8a6016e243e63b6e8ee1178d6a717850b5d6103546001600160a01b0316336001600160a01b0316148061194157507fb53127684a568b3173ae13b9f8a6016e243e63b6e8ee1178d6a717850b5d6103546001600160a01b0316326001600160a01b0316145b8061197457507fb53127684a568b3173ae13b9f8a6016e243e63b6e8ee1178d6a717850b5d6103546001600160a01b0316155b8061197d575043155b6119f45760405162461bcd60e51b815260206004820152603060248201527f496e697469616c697a6174696f6e206f6e6c79206f6e2067656e65736973206260448201527f6c6f636b206f722062792061646d696e0000000000000000000000000000000060648201526084015b60405180910390fd5b600a546001600160a01b031615611a595760405162461bcd60e51b8152602060048201526024808201527f696e697469616c697a6174696f6e2063616e206f6e6c7920626520646f6e65206044820152636f6e636560e01b60648201526084016119eb565b6001600160a01b038116611aaf5760405162461bcd60e51b815260206004820152601a60248201527f56616c696461746f72536574206d757374206e6f74206265203000000000000060448201526064016119eb565b600a80546001600160a01b0390921673ffffffffffffffffffffffffffffffffffffffff19928316178155600080526005602052601e7f05b8ccbb9d4d8fb16ea74ce3c29a41f1b461fbdaff4714a0d9a8eb05499746bc556117706007819055600955600b805490921673da0da0da0da0da0da0da00da0da0da0da0da0da0179091556001600c55600d55565b7fb53127684a568b3173ae13b9f8a6016e243e63b6e8ee1178d6a717850b5d6103546001600160a01b0316336001600160a01b031614611bd25760405162461bcd60e51b815260206004820152602b60248201527f6f6e6c792061646d696e20697320616c6c6f77656420746f2063616c6c20746860448201526a34b990333ab731ba34b7b760a91b60648201526084016119eb565b80600003611c225760405162461bcd60e51b815260206004820152601d60248201527f5061796f7574206672616374696f6e206d757374206e6f74206265203000000060448201526064016119eb565b600955565b7fb53127684a568b3173ae13b9f8a6016e243e63b6e8ee1178d6a717850b5d6103546001600160a01b0316336001600160a01b031614611cbd5760405162461bcd60e51b815260206004820152602b60248201527f6f6e6c792061646d696e20697320616c6c6f77656420746f2063616c6c20746860448201526a34b990333ab731ba34b7b760a91b60648201526084016119eb565b80600003611d0d5760405162461bcd60e51b815260206004820152601d60248201527f5061796f7574206672616374696f6e206d757374206e6f74206265203000000060448201526064016119eb565b600755565b611d1d8383836123dc565b505050565b6001600160a01b03811660009081526020818152604091829020805483518184028101840190945280845260609392830182828015611d8057602002820191906000526020600020905b815481526020019060010190808311611d6c575b50505050509050919050565b600080600a60009054906101000a90046001600160a01b03166001600160a01b031663b7ab4db56040518163ffffffff1660e01b8152600401600060405180830381865afa158015611de2573d6000803e3d6000fd5b505050506040513d6000823e601f3d908101601f19168201604052611e0a9190810190612862565b80519091506000819003611e605760405162461bcd60e51b815260206004820152601460248201527f456d7074792056616c696461746f72206c69737400000000000000000000000060448201526064016119eb565b600080600a60009054906101000a90046001600160a01b03166001600160a01b03166308ac52566040518163ffffffff1660e01b8152600401602060405180830381865afa158015611eb6573d6000803e3d6000fd5b505050506040513d601f19601f82011682018060405250810190611eda9190612833565b90506000606482600754611eec61156e565b87600654611efa9190612986565b611f049190612986565b611f0e919061299d565b611f18919061299d565b611f22919061299d565b90508060066000828254611f369190612973565b925050819055506000606483600954611f4d61156e565b88600854611f5b9190612986565b611f659190612986565b611f6f919061299d565b611f79919061299d565b611f83919061299d565b90508060086000828254611f979190612973565b9091555050600254611fa982846125cd565b611fb391906125cd565b935050505080600003611fcb57506000949350505050565b6000600d54600c5483611fde9190612986565b611fe8919061299d565b600b546040519192506001600160a01b03169082156108fc029083906000818181858888f19350505050158015612023573d6000803e3d6000fd5b5060006120308284612973565b905060008467ffffffffffffffff81111561204d5761204d61284c565b604051908082528060200260200182016040528015612076578160200160208202803683370190505b5090506000805b87518110156121c957600a5488516001600160a01b039091169063a92252ae908a90849081106120af576120af612927565b60200260200101516040518263ffffffff1660e01b81526004016120e291906001600160a01b0391909116815260200190565b602060405180830381865afa1580156120ff573d6000803e3d6000fd5b505050506040513d601f19601f820116820180604052508101906121239190612956565b1580156121805750600460008b8152602001908152602001600020600089838151811061215257612152612927565b60200260200101516001600160a01b03166001600160a01b0316815260200190815260200160002054600014155b156121b757600183828151811061219957612199612927565b91151560209283029190910190910152816121b38161293d565b9250505b806121c18161293d565b91505061207d565b50806000036121e15750600098975050505050505050565b60006121ed828561299d565b905080156123c15760005b878110156123bf5783818151811061221257612212612927565b6020026020010151156123ad57600160008c815260200190815260200160002060008a838151811061224657612246612927565b60200260200101516001600160a01b03166001600160a01b031681526020019081526020016000205460001461230a5760405162461bcd60e51b815260206004820152605c60248201527f63616e74206469737472696275746520726577617264733a207468657265206960448201527f7320616c7265616479206120706f6f6c2072657761726420646566696e65642060648201527f666f7220746869732065706f636820616e642076616c696461746f7200000000608482015260a4016119eb565b60008b81526001602052604081208a518492908c908590811061232f5761232f612927565b6020908102919091018101516001600160a01b031682528101919091526040016000205561235d82876125cd565b95506000808a838151811061237457612374612927565b6020908102919091018101516001600160a01b031682528181019290925260400160009081208054600181018255908252919020018b90555b806123b78161293d565b9150506121f8565b505b6123cb8587612973565b600255509298975050505050505050565b60008281526003602090815260408083206001600160a01b03851684529091529020541561240957505050565b600a546040516307b9342f60e21b81526001600160a01b0383811660048301526000921690631ee4d0bc90602401602060405180830381865afa158015612454573d6000803e3d6000fd5b505050506040513d601f19601f820116820180604052508101906124789190612816565b604051632933f0eb60e11b81526001600160a01b038083166004830152919250600091861690635267e1d690602401602060405180830381865afa1580156124c4573d6000803e3d6000fd5b505050506040513d601f19601f820116820180604052508101906124e89190612833565b9050806000036124f9575050505050565b60008481526003602090815260408083206001600160a01b038781168552925291829020839055905163a697ecff60e01b81528382166004820181905260248201529086169063a697ecff90604401602060405180830381865afa158015612565573d6000803e3d6000fd5b505050506040513d601f19601f820116820180604052508101906125899190612833565b60009485526004602090815260408087206001600160a01b0390961687529490529290932091909155505050565b634e487b7160e01b600052601160045260246000fd5b808201808211156110d2576110d26125b7565b80151581146125ee57600080fd5b50565b60006020828403121561260357600080fd5b813561260e816125e0565b9392505050565b6001600160a01b03811681146125ee57600080fd5b60006020828403121561263c57600080fd5b813561260e81612615565b60008060006060848603121561265c57600080fd5b83359250602084013561266e81612615565b929592945050506040919091013590565b6000806040838503121561269257600080fd5b8235915060208301356126a481612615565b809150509250929050565b600080604083850312156126c257600080fd5b82356126cd81612615565b915060208301356126a481612615565b6020808252825182820181905260009190848201906040850190845b81811015612715578351835292840192918401916001016126f9565b50909695505050505050565b600080600080600060a0868803121561273957600080fd5b505083359560208501359550604085013594606081013594506080013592509050565b6000806000806080858703121561277257600080fd5b5050823594602084013594506040840135936060013592509050565b6000602082840312156127a057600080fd5b5035919050565b600080604083850312156127ba57600080fd5b50508035926020909101359150565b6000806000606084860312156127de57600080fd5b83356127e981612615565b925060208401359150604084013561280081612615565b809150509250925092565b8051610c9181612615565b60006020828403121561282857600080fd5b815161260e81612615565b60006020828403121561284557600080fd5b5051919050565b634e487b7160e01b600052604160045260246000fd5b6000602080838503121561287557600080fd5b825167ffffffffffffffff8082111561288d57600080fd5b818501915085601f8301126128a157600080fd5b8151818111156128b3576128b361284c565b8060051b604051601f19603f830116810181811085821117156128d8576128d861284c565b6040529182528482019250838101850191888311156128f657600080fd5b938501935b8285101561291b5761290c8561280b565b845293850193928501926128fb565b98975050505050505050565b634e487b7160e01b600052603260045260246000fd5b60006001820161294f5761294f6125b7565b5060010190565b60006020828403121561296857600080fd5b815161260e816125e0565b818103818111156110d2576110d26125b7565b80820281158282048414176110d2576110d26125b7565b6000826129ba57634e487b7160e01b600052601260045260246000fd5b50049056fea264697066735822122056a5c975c725cef10cfb5f35ac1492c3e1aeeff575854d972a0df7652d84d47d64736f6c63430008110033",
  "linkReferences": {},
  "deployedLinkReferences": {}
}