{
  "_format": "hh-sol-artifact-1",
  "contractName": "CertifierHbbft",
  "sourceName": "contracts/CertifierHbbft.sol",
  "abi": [
    {
      "anonymous": false,
      "inputs": [
        {
          "indexed": true,
          "internalType": "address",
          "name": "who",
          "type": "address"
        }
      ],
      "name": "Confirmed",
      "type": "event"
    },
    {
      "anonymous": false,
      "inputs": [
        {
          "indexed": true,
          "internalType": "address",
          "name": "who",
          "type": "address"
        }
      ],
      "name": "Revoked",
      "type": "event"
    },
    {
      "inputs": [
        {
          "internalType": "address",
          "name": "_who",
          "type": "address"
        }
      ],
      "name": "certified",
      "outputs": [
        {
          "internalType": "bool",
          "name": "",
          "type": "bool"
        }
      ],
      "stateMutability": "view",
      "type": "function"
    },
    {
      "inputs": [
        {
          "internalType": "address",
          "name": "_who",
          "type": "address"
        }
      ],
      "name": "certifiedExplicitly",
      "outputs": [
        {
          "internalType": "bool",
          "name": "",
          "type": "bool"
        }
      ],
      "stateMutability": "view",
      "type": "function"
    },
    {
      "inputs": [
        {
          "internalType": "address",
          "name": "_who",
          "type": "address"
        }
      ],
      "name": "certify",
      "outputs": [],
      "stateMutability": "nonpayable",
      "type": "function"
    },
    {
      "inputs": [
        {
          "internalType": "address[]",
          "name": "_certifiedAddresses",
          "type": "address[]"
        },
        {
          "internalType": "address",
          "name": "_validatorSet",
          "type": "address"
        }
      ],
      "name": "initialize",
      "outputs": [],
      "stateMutability": "nonpayable",
      "type": "function"
    },
    {
      "inputs": [],
      "name": "isInitialized",
      "outputs": [
        {
          "internalType": "bool",
          "name": "",
          "type": "bool"
        }
      ],
      "stateMutability": "view",
      "type": "function"
    },
    {
      "inputs": [
        {
          "internalType": "address",
          "name": "_who",
          "type": "address"
        }
      ],
      "name": "revoke",
      "outputs": [],
      "stateMutability": "nonpayable",
      "type": "function"
    },
    {
      "inputs": [],
      "name": "validatorSetContract",
      "outputs": [
        {
          "internalType": "contract IValidatorSetHbbft",
          "name": "",
          "type": "address"
        }
      ],
      "stateMutability": "view",
      "type": "function"
    }
  ],
  "bytecode": "0x608060405234801561001057600080fd5b50610883806100206000396000f3fe608060405234801561001057600080fd5b506004361061007d5760003560e01c806374a8f1031161005b57806374a8f103146100ce578063cc1d4c02146100e1578063dfc8bf4e146100f4578063e8e23ac01461011f57600080fd5b80631425388714610082578063392e53cd14610097578063462d0b2e146100bb575b600080fd5b610095610090366004610749565b61014b565b005b6001546001600160a01b031615155b60405190151581526020015b60405180910390f35b6100956100c936600461076d565b610258565b6100956100dc366004610749565b61048b565b6100a66100ef366004610749565b6105d0565b600154610107906001600160a01b031681565b6040516001600160a01b0390911681526020016100b2565b6100a661012d366004610749565b6001600160a01b031660009081526020819052604090205460ff1690565b7fb53127684a568b3173ae13b9f8a6016e243e63b6e8ee1178d6a717850b5d6103546001600160a01b0316336001600160a01b0316146101e65760405162461bcd60e51b815260206004820152602b60248201527f6f6e6c792061646d696e20697320616c6c6f77656420746f2063616c6c20746860448201526a34b990333ab731ba34b7b760a91b60648201526084015b60405180910390fd5b6001546001600160a01b031661024c5760405162461bcd60e51b815260206004820152602560248201527f436f6e747261637420726571756972657320746f20626520696e697469616c696044820152647a6564282960d81b60648201526084016101dd565b61025581610692565b50565b7fb53127684a568b3173ae13b9f8a6016e243e63b6e8ee1178d6a717850b5d6103546001600160a01b0316336001600160a01b031614806102cb57507fb53127684a568b3173ae13b9f8a6016e243e63b6e8ee1178d6a717850b5d6103546001600160a01b0316326001600160a01b0316145b806102fe57507fb53127684a568b3173ae13b9f8a6016e243e63b6e8ee1178d6a717850b5d6103546001600160a01b0316155b80610307575043155b6103535760405162461bcd60e51b815260206004820152601460248201527f53656e646572206d7573742062652061646d696e00000000000000000000000060448201526064016101dd565b6001546001600160a01b0316156103ac5760405162461bcd60e51b815260206004820152601f60248201527f436f6e747261637420697320616c726561647920696e697469616c697a65640060448201526064016101dd565b6001600160a01b0381166104025760405162461bcd60e51b815260206004820152601a60248201527f56616c696461746f72736574206d757374206e6f74206265203000000000000060448201526064016101dd565b60005b8281101561044e5761043c848483818110610422576104226107f3565b90506020020160208101906104379190610749565b610692565b8061044681610809565b915050610405565b50600180547fffffffffffffffffffffffff0000000000000000000000000000000000000000166001600160a01b03929092169190911790555050565b7fb53127684a568b3173ae13b9f8a6016e243e63b6e8ee1178d6a717850b5d6103546001600160a01b0316336001600160a01b0316146105215760405162461bcd60e51b815260206004820152602b60248201527f6f6e6c792061646d696e20697320616c6c6f77656420746f2063616c6c20746860448201526a34b990333ab731ba34b7b760a91b60648201526084016101dd565b6001546001600160a01b03166105875760405162461bcd60e51b815260206004820152602560248201527f436f6e747261637420726571756972657320746f20626520696e697469616c696044820152647a6564282960d81b60648201526084016101dd565b6001600160a01b038116600081815260208190526040808220805460ff19169055517fb6fa8b8bd5eab60f292eca876e3ef90722275b785309d84b1de113ce0b8c4e749190a250565b6001600160a01b03811660009081526020819052604081205460ff16156105f957506001919050565b6001546040516307b9342f60e21b81526001600160a01b0384811660048301526000921690631ee4d0bc90602401602060405180830381865afa158015610644573d6000803e3d6000fd5b505050506040513d601f19601f820116820180604052508101906106689190610830565b90506001600160a01b0381166106815750600092915050565b6001600160a01b0316151592915050565b6001600160a01b0381166106e85760405162461bcd60e51b815260206004820152601f60248201527f636572746966696572206d757374206e6f74206265206164647265737320300060448201526064016101dd565b6001600160a01b038116600081815260208190526040808220805460ff19166001179055517fd415b905d4dd806bfba99a7a0e6351bd0c9db3a9912add21c0e6bef4479f673f9190a250565b6001600160a01b038116811461025557600080fd5b60006020828403121561075b57600080fd5b813561076681610734565b9392505050565b60008060006040848603121561078257600080fd5b833567ffffffffffffffff8082111561079a57600080fd5b818601915086601f8301126107ae57600080fd5b8135818111156107bd57600080fd5b8760208260051b85010111156107d257600080fd5b602092830195509350508401356107e881610734565b809150509250925092565b634e487b7160e01b600052603260045260246000fd5b60006001820161082957634e487b7160e01b600052601160045260246000fd5b5060010190565b60006020828403121561084257600080fd5b81516107668161073456fea2646970667358221220fcb536d146f68606d2f59316a634bef19d2d2624fa85137b60cb9412821e5fc164736f6c63430008110033",
  "linkReferences": {},
  "deployedLinkReferences": {}
}