{
  "_format": "hh-sol-artifact-1",
  "contractName": "InitializerHbbft",
  "sourceName": "contracts/InitializerHbbft.sol",
  "abi": [
    {
      "inputs": [
        {
          "internalType": "address[]",
          "name": "_contracts",
          "type": "address[]"
        },
        {
          "internalType": "address",
          "name": "_owner",
          "type": "address"
        },
        {
          "internalType": "address[]",
          "name": "_miningAddresses",
          "type": "address[]"
        },
        {
          "internalType": "address[]",
          "name": "_stakingAddresses",
          "type": "address[]"
        },
        {
          "internalType": "uint256[6]",
          "name": "_stakingParams",
          "type": "uint256[6]"
        },
        {
          "internalType": "bytes32[]",
          "name": "_publicKeys",
          "type": "bytes32[]"
        },
        {
          "internalType": "bytes16[]",
          "name": "_internetAddresses",
          "type": "bytes16[]"
        },
        {
          "internalType": "bytes[]",
          "name": "_parts",
          "type": "bytes[]"
        },
        {
          "internalType": "bytes[][]",
          "name": "_acks",
          "type": "bytes[][]"
        }
      ],
      "stateMutability": "nonpayable",
      "type": "constructor"
    },
    {
      "inputs": [],
      "name": "destruct",
      "outputs": [],
      "stateMutability": "nonpayable",
      "type": "function"
    }
  ],
  "bytecode": "0x608060405234801561001057600080fd5b50604051610ecb380380610ecb83398101604081905261002f916109e7565b8860008151811061004257610042610b27565b60200260200101516001600160a01b031663515bbf2c8a60018151811061006b5761006b610b27565b60200260200101518b60028151811061008657610086610b27565b60200260200101518c6003815181106100a1576100a1610b27565b60200260200101518d6006815181106100bc576100bc610b27565b60200260200101518c8c6040518763ffffffff1660e01b81526004016100e796959493929190610b81565b600060405180830381600087803b15801561010157600080fd5b505af1158015610115573d6000803e3d6000fd5b505050508860028151811061012c5761012c610b27565b60200260200101516001600160a01b031663c4d66de88a60008151811061015557610155610b27565b60200260200101516040518263ffffffff1660e01b815260040161018891906001600160a01b0391909116815260200190565b600060405180830381600087803b1580156101a257600080fd5b505af11580156101b6573d6000803e3d6000fd5b50505050886003815181106101cd576101cd610b27565b60200260200101516001600160a01b0316634cf83f9c6040518061010001604052808c60008151811061020257610202610b27565b60200260200101516001600160a01b031681526020018981526020018860006006811061023157610231610b27565b602002015181526020018860016006811061024e5761024e610b27565b602002015181526020018860026006811061026b5761026b610b27565b602002015181526020018860036006811061028857610288610b27565b60200201518152602001886004600681106102a5576102a5610b27565b60200201518152602001886005600681106102c2576102c2610b27565b602002015181525086866040518463ffffffff1660e01b81526004016102ea93929190610c46565b600060405180830381600087803b15801561030457600080fd5b505af1158015610318573d6000803e3d6000fd5b505050508860068151811061032f5761032f610b27565b60200260200101516001600160a01b031663be1689348a60008151811061035857610358610b27565b60200260200101518985856040518563ffffffff1660e01b81526004016103829493929190610d54565b600060405180830381600087803b15801561039c57600080fd5b505af11580156103b0573d6000803e3d6000fd5b50505050886001815181106103c7576103c7610b27565b60200260200101516001600160a01b031663c4d66de88a6000815181106103f0576103f0610b27565b60200260200101516040518263ffffffff1660e01b815260040161042391906001600160a01b0391909116815260200190565b600060405180830381600087803b15801561043d57600080fd5b505af1158015610451573d6000803e3d6000fd5b5060009250600191506104619050565b60405190808252806020026020018201604052801561048a578160200160208202803683370190505b50905088816000815181106104a1576104a1610b27565b60200260200101906001600160a01b031690816001600160a01b031681525050896005815181106104d4576104d4610b27565b60200260200101516001600160a01b031663462d0b2e828c6000815181106104fe576104fe610b27565b60200260200101516040518363ffffffff1660e01b8152600401610523929190610ded565b600060405180830381600087803b15801561053d57600080fd5b505af1158015610551573d6000803e3d6000fd5b505050508960048151811061056857610568610b27565b60200260200101516001600160a01b031663d46005b1828c60058151811061059257610592610b27565b60200260200101518d6000815181106105ad576105ad610b27565b60200260200101518e6006815181106105c8576105c8610b27565b60200260200101516040518563ffffffff1660e01b81526004016105ef9493929190610e17565b600060405180830381600087803b15801561060957600080fd5b505af115801561061d573d6000803e3d6000fd5b5050505050505050505050505050610e53565b634e487b7160e01b600052604160045260246000fd5b604051601f8201601f191681016001600160401b038111828210171561066e5761066e610630565b604052919050565b60006001600160401b0382111561068f5761068f610630565b5060051b60200190565b80516001600160a01b03811681146106b057600080fd5b919050565b600082601f8301126106c657600080fd5b815160206106db6106d683610676565b610646565b82815260059290921b840181019181810190868411156106fa57600080fd5b8286015b8481101561071c5761070f81610699565b83529183019183016106fe565b509695505050505050565b600082601f83011261073857600080fd5b60405160c081016001600160401b038111828210171561075a5761075a610630565b6040528060c084018581111561076f57600080fd5b845b81811015610789578051835260209283019201610771565b509195945050505050565b600082601f8301126107a557600080fd5b815160206107b56106d683610676565b82815260059290921b840181019181810190868411156107d457600080fd5b8286015b8481101561071c57805183529183019183016107d8565b600082601f83011261080057600080fd5b815160206108106106d683610676565b82815260059290921b8401810191818101908684111561082f57600080fd5b8286015b8481101561071c5780516001600160801b0319811681146108545760008081fd5b8352918301918301610833565b60005b8381101561087c578181015183820152602001610864565b50506000910152565b6000601f838184011261089757600080fd5b825160206108a76106d683610676565b82815260059290921b850181019181810190878411156108c657600080fd5b8287015b8481101561095c5780516001600160401b03808211156108ea5760008081fd5b818a0191508a603f8301126108ff5760008081fd5b8582015160408282111561091557610915610630565b610926828b01601f19168901610646565b92508183528c8183860101111561093d5760008081fd5b61094c82898501838701610861565b50508452509183019183016108ca565b50979650505050505050565b600082601f83011261097957600080fd5b815160206109896106d683610676565b82815260059290921b840181019181810190868411156109a857600080fd5b8286015b8481101561071c5780516001600160401b038111156109cb5760008081fd5b6109d98986838b0101610885565b8452509183019183016109ac565b60008060008060008060008060006101c08a8c031215610a0657600080fd5b89516001600160401b0380821115610a1d57600080fd5b610a298d838e016106b5565b9a50610a3760208d01610699565b995060408c0151915080821115610a4d57600080fd5b610a598d838e016106b5565b985060608c0151915080821115610a6f57600080fd5b610a7b8d838e016106b5565b9750610a8a8d60808e01610727565b96506101408c0151915080821115610aa157600080fd5b610aad8d838e01610794565b95506101608c0151915080821115610ac457600080fd5b610ad08d838e016107ef565b94506101808c0151915080821115610ae757600080fd5b610af38d838e01610885565b93506101a08c0151915080821115610b0a57600080fd5b50610b178c828d01610968565b9150509295985092959850929598565b634e487b7160e01b600052603260045260246000fd5b600081518084526020808501945080840160005b83811015610b765781516001600160a01b031687529582019590820190600101610b51565b509495945050505050565b6001600160a01b038781168252868116602083015285811660408301528416606082015260c060808201819052600090610bbd90830185610b3d565b82810360a0840152610bcf8185610b3d565b9998505050505050505050565b600081518084526020808501945080840160005b83811015610b7657815187529582019590820190600101610bf0565b600081518084526020808501945080840160005b83811015610b765781516001600160801b03191687529582019590820190600101610c20565b6060815260018060a01b03845116606082015260006020850151610100806080850152610c77610160850183610b3d565b9150604087015160a0850152606087015160c0850152608087015160e085015260a0870151818501525060c086015161012084015260e08601516101408401528281036020840152610cc98186610bdc565b90508281036040840152610cdd8185610c0c565b9695505050505050565b600081518084526020808501808196508360051b8101915082860160005b85811015610d4757828403895281518051808652610d2881888801898501610861565b99860199601f01601f1916949094018501935090840190600101610d05565b5091979650505050505050565b6001600160a01b038516815260806020808301829052600091610d7990840187610b3d565b8381036040850152610d8b8187610ce7565b905083810360608501528085518083528383019150838160051b84010184880160005b83811015610ddc57601f19868403018552610dca838351610ce7565b94870194925090860190600101610dae565b50909b9a5050505050505050505050565b604081526000610e006040830185610b3d565b905060018060a01b03831660208301529392505050565b608081526000610e2a6080830187610b3d565b6001600160a01b0395861660208401529385166040830152509216606090920191909152919050565b606a80610e616000396000f3fe6080604052348015600f57600080fd5b506004361060285760003560e01c80632b68b9c614602d575b600080fd5b603233ff5b00fea26469706673582212204bae2df8bf8d78d39c01ae4b2935996de7346a4f65a450fd272a1006ebe7bca464736f6c63430008110033",
  "linkReferences": {},
  "deployedLinkReferences": {}
}