{
  "contractName": "InitializerHbbft",
  "abi": [
    {
      "inputs": [
        {
          "internalType": "address[]",
          "name": "_contracts",
          "type": "address[]"
        },
        {
          "internalType": "address",
          "name": "_owner",
          "type": "address"
        },
        {
          "internalType": "address[]",
          "name": "_miningAddresses",
          "type": "address[]"
        },
        {
          "internalType": "address[]",
          "name": "_stakingAddresses",
          "type": "address[]"
        },
        {
          "internalType": "uint256[6]",
          "name": "_stakingParams",
          "type": "uint256[6]"
        },
        {
          "internalType": "bytes32[]",
          "name": "_publicKeys",
          "type": "bytes32[]"
        },
        {
          "internalType": "bytes16[]",
          "name": "_internetAddresses",
          "type": "bytes16[]"
        },
        {
          "internalType": "bytes[]",
          "name": "_parts",
          "type": "bytes[]"
        },
        {
          "internalType": "bytes[][]",
          "name": "_acks",
          "type": "bytes[][]"
        }
      ],
      "payable": false,
      "stateMutability": "nonpayable",
      "type": "constructor"
    },
    {
      "constant": false,
      "inputs": [],
      "name": "destruct",
      "outputs": [],
      "payable": false,
      "stateMutability": "nonpayable",
      "type": "function"
    }
  ],
  "bytecode": "0x608060405234801561001057600080fd5b50604051610f6c380380610f6c83398101604081905261002f916107b9565b8860008151811061003c57fe5b60200260200101516001600160a01b031663515bbf2c8a60018151811061005f57fe5b60200260200101518b60028151811061007457fe5b60200260200101518c60038151811061008957fe5b60200260200101518d60068151811061009e57fe5b60200260200101518c8c6040518763ffffffff1660e01b81526004016100c996959493929190610bf7565b600060405180830381600087803b1580156100e357600080fd5b505af11580156100f7573d6000803e3d6000fd5b505050508860038151811061010857fe5b60200260200101516001600160a01b0316630b0eb6668a60008151811061012b57fe5b6020026020010151888860006006811061014157fe5b60209081029190910151908a01516040808c015160608d015160808e015160a08f015193516001600160e01b031960e08b901b16815261018c9897969594908f908f90600401610cb0565b600060405180830381600087803b1580156101a657600080fd5b505af11580156101ba573d6000803e3d6000fd5b50505050886006815181106101cb57fe5b60200260200101516001600160a01b031663be1689348a6000815181106101ee57fe5b60200260200101518985856040518563ffffffff1660e01b81526004016102189493929190610c5e565b600060405180830381600087803b15801561023257600080fd5b505af1158015610246573d6000803e3d6000fd5b505050508860018151811061025757fe5b60200260200101516001600160a01b031663c4d66de88a60008151811061027a57fe5b60200260200101516040518263ffffffff1660e01b815260040161029e9190610be9565b600060405180830381600087803b1580156102b857600080fd5b505af11580156102cc573d6000803e3d6000fd5b505060408051600180825281830190925260609350915060208083019080388339019050509050888160008151811061030157fe5b60200260200101906001600160a01b031690816001600160a01b0316815250508960058151811061032e57fe5b60200260200101516001600160a01b031663462d0b2e828c60008151811061035257fe5b60200260200101516040518363ffffffff1660e01b8152600401610377929190610d59565b600060405180830381600087803b15801561039157600080fd5b505af11580156103a5573d6000803e3d6000fd5b50505050896004815181106103b657fe5b60200260200101516001600160a01b031663d46005b1828c6005815181106103da57fe5b60200260200101518d6000815181106103ef57fe5b60200260200101518e60068151811061040457fe5b60200260200101516040518563ffffffff1660e01b815260040161042b9493929190610d79565b600060405180830381600087803b15801561044557600080fd5b505af1158015610459573d6000803e3d6000fd5b5050505050505050505050505050610ee3565b805161047781610eba565b92915050565b600082601f83011261048e57600080fd5b81516104a161049c82610de2565b610dbc565b915081818352602084019350602081019050838560208402820111156104c657600080fd5b60005b838110156104f257816104dc888261046c565b84525060209283019291909101906001016104c9565b5050505092915050565b600082601f83011261050d57600080fd5b815161051b61049c82610de2565b81815260209384019390925082018360005b838110156104f257815186016105438882610639565b845250602092830192919091019060010161052d565b600082601f83011261056a57600080fd5b815161057861049c82610de2565b9150818183526020840193506020810190508385602084028201111561059d57600080fd5b60005b838110156104f257816105b38882610754565b84525060209283019291909101906001016105a0565b600082601f8301126105da57600080fd5b81516105e861049c82610de2565b9150818183526020840193506020810190508385602084028201111561060d57600080fd5b60005b838110156104f25781610623888261075f565b8452506020928301929190910190600101610610565b600082601f83011261064a57600080fd5b815161065861049c82610de2565b81815260209384019390925082018360005b838110156104f25781518601610680888261076a565b845250602092830192919091019060010161066a565b600082601f8301126106a757600080fd5b81516106b561049c82610de2565b81815260209384019390925082018360005b838110156104f257815186016106dd888261076a565b84525060209283019291909101906001016106c7565b600082601f83011261070457600080fd5b600661071261049c82610e02565b9150818385602084028201111561072857600080fd5b60005b838110156104f2578161073e888261075f565b845250602092830192919091019060010161072b565b805161047781610ed1565b805161047781610eda565b600082601f83011261077b57600080fd5b815161078961049c82610e1f565b915080825260208301602083018583830111156107a557600080fd5b6107b0838284610e80565b50505092915050565b60008060008060008060008060006101c08a8c0312156107d857600080fd5b89516001600160401b038111156107ee57600080fd5b6107fa8c828d0161047d565b995050602061080b8c828d0161046c565b98505060408a01516001600160401b0381111561082757600080fd5b6108338c828d0161047d565b97505060608a01516001600160401b0381111561084f57600080fd5b61085b8c828d0161047d565b965050608061086c8c828d016106f3565b9550506101408a01516001600160401b0381111561088957600080fd5b6108958c828d016105c9565b9450506101608a01516001600160401b038111156108b257600080fd5b6108be8c828d01610559565b9350506101808a01516001600160401b038111156108db57600080fd5b6108e78c828d01610696565b9250506101a08a01516001600160401b0381111561090457600080fd5b6109108c828d016104fc565b9150509295985092959850929598565b600061092c838361096b565b505060200190565b60006109408383610b3e565b9392505050565b600061092c8383610b9f565b600061092c8383610ba8565b60006109408383610bb1565b61097481610e59565b82525050565b600061098582610e4c565b61098f8185610e50565b935061099a83610e46565b8060005b838110156109c85781516109b28882610920565b97506109bd83610e46565b92505060010161099e565b509495945050505050565b60006109de82610e4c565b6109e88185610e50565b9350836020820285016109fa85610e46565b8060005b85811015610a345784840389528151610a178582610934565b9450610a2283610e46565b60209a909a01999250506001016109fe565b5091979650505050505050565b6000610a4c82610e4c565b610a568185610e50565b9350610a6183610e46565b8060005b838110156109c8578151610a798882610947565b9750610a8483610e46565b925050600101610a65565b6000610a9a82610e4c565b610aa48185610e50565b9350610aaf83610e46565b8060005b838110156109c8578151610ac78882610953565b9750610ad283610e46565b925050600101610ab3565b6000610ae882610e4c565b610af28185610e50565b935083602082028501610b0485610e46565b8060005b85811015610a345784840389528151610b21858261095f565b9450610b2c83610e46565b60209a909a0199925050600101610b08565b6000610b4982610e4c565b610b538185610e50565b935083602082028501610b6585610e46565b8060005b85811015610a345784840389528151610b82858261095f565b9450610b8d83610e46565b60209a909a0199925050600101610b69565b61097481610e64565b61097481610e71565b6000610bbc82610e4c565b610bc68185610e50565b9350610bd6818560208601610e80565b610bdf81610eb0565b9093019392505050565b60208101610477828461096b565b60c08101610c05828961096b565b610c12602083018861096b565b610c1f604083018761096b565b610c2c606083018661096b565b8181036080830152610c3e818561097a565b905081810360a0830152610c52818461097a565b98975050505050505050565b60808101610c6c828761096b565b8181036020830152610c7e818661097a565b90508181036040830152610c928185610add565b90508181036060830152610ca681846109d3565b9695505050505050565b6101408101610cbf828d61096b565b8181036020830152610cd1818c61097a565b9050610ce0604083018b610ba8565b610ced606083018a610ba8565b610cfa6080830189610ba8565b610d0760a0830188610ba8565b610d1460c0830187610ba8565b610d2160e0830186610ba8565b818103610100830152610d348185610a8f565b9050818103610120830152610d498184610a41565b9c9b505050505050505050505050565b60408082528101610d6a818561097a565b9050610940602083018461096b565b60808082528101610d8a818761097a565b9050610d99602083018661096b565b610da6604083018561096b565b610db3606083018461096b565b95945050505050565b6040518181016001600160401b0381118282101715610dda57600080fd5b604052919050565b60006001600160401b03821115610df857600080fd5b5060209081020190565b60006001600160401b03821115610e1857600080fd5b5060200290565b60006001600160401b03821115610e3557600080fd5b506020601f91909101601f19160190565b60200190565b5190565b90815260200190565b600061047782610e74565b6001600160801b03191690565b90565b6001600160a01b031690565b60005b83811015610e9b578181015183820152602001610e83565b83811115610eaa576000848401525b50505050565b601f01601f191690565b610ec381610e59565b8114610ece57600080fd5b50565b610ec381610e64565b610ec381610e71565b607b80610ef16000396000f3fe6080604052348015600f57600080fd5b506004361060285760003560e01c80632b68b9c614602d575b600080fd5b60336035565b005b33fffea365627a7a723158206af25b0b4253be1b1f28844c9b89458db3a9a679fa16ae3fa425aa168fe7e8d56c6578706572696d656e74616cf564736f6c63430005110040",
  "source": "pragma solidity ^0.5.16;\npragma experimental ABIEncoderV2;\n\nimport \"./interfaces/IBlockRewardHbbft.sol\";\nimport \"./interfaces/ICertifier.sol\";\nimport \"./interfaces/IKeyGenHistory.sol\";\nimport \"./interfaces/IRandomHbbft.sol\";\nimport \"./interfaces/IStakingHbbft.sol\";\nimport \"./interfaces/ITxPermission.sol\";\nimport \"./interfaces/IValidatorSetHbbft.sol\";\n\n\n\n/// @dev Used once on network startup and then destroyed.\n/// Needed for initializing upgradeable contracts since\n/// upgradeable contracts can't have constructors.\ncontract InitializerHbbft {\n\n    /// @param _contracts An array of the contracts:\n    ///   0 is ValidatorSetHbbft,\n    ///   1 is BlockRewardHbbft,\n    ///   2 is RandomHbbft,\n    ///   3 is StakingHbbft,\n    ///   4 is TxPermission,\n    ///   5 is Certifier,\n    ///   6 is KeyGenHistory.\n    /// @param _owner The contracts' owner.\n    /// @param _miningAddresses The array of initial validators' mining addresses.\n    /// @param _stakingAddresses The array of initial validators' staking addresses.\n    /// @param _stakingParams list of staking related parameters, done to avoid \"stack too deep\" error\n    /// _stakingParams[0]: _delegatorMinStake The minimum allowed amount of delegator stake in Wei\n    /// (see the `StakingHbbft` contract).\n    /// _stakingParams[1]: _candidateMinStake The minimum allowed amount of candidate stake in Wei\n    /// (see the `StakingHbbft` contract).\n    /// _stakingParams[2]: _stakingEpochDuration The duration of a staking epoch.\n    /// _stakingParams[3]: _stakingTransitionTimeframeLength Length of the timeframe in seconds for the transition\n    /// _stakingParams[4]: _stakingWithdrawDisallowPeriod The duration period (in blocks) at the end of a staking epoch\n    /// during which participants cannot stake or withdraw their staking tokens\n    /// @param _publicKeys bytes32[] memory\n    /// @param _internetAddresses bytes16[] memory\n    /// @param _parts bytes[] memory\n    /// @param _acks bytes[][] memory\n    constructor(\n        address[] memory _contracts,\n        address _owner,\n        address[] memory _miningAddresses,\n        address[] memory _stakingAddresses,\n        uint256[6] memory _stakingParams,\n        bytes32[] memory _publicKeys,\n        bytes16[] memory _internetAddresses,\n        bytes[] memory _parts,\n        bytes[][] memory _acks\n    ) public {\n        IValidatorSetHbbft(_contracts[0]).initialize(\n            _contracts[1], // _blockRewardContract\n            _contracts[2], // _randomContract\n            _contracts[3], // _stakingContract\n            _contracts[6], // _keyGenHistoryContract\n            _miningAddresses,\n            _stakingAddresses\n        );\n        IStakingHbbft(_contracts[3]).initialize(\n            _contracts[0], // _validatorSetContract\n            _stakingAddresses,\n            _stakingParams[0], // _delegatorMinStake\n            _stakingParams[1], // _candidateMinStake\n            _stakingParams[2], // _maxStake\n            _stakingParams[3], // _stakingEpochDuration\n            _stakingParams[4], // _stakingTransitionTimeframeLength\n            _stakingParams[5], // _stakingWithdrawDisallowPeriod\n            _publicKeys,\n            _internetAddresses\n        );\n        IKeyGenHistory(_contracts[6]).initialize(\n            _contracts[0], // _validatorSetContract\n            _miningAddresses,\n            _parts,\n            _acks\n        );\n        IBlockRewardHbbft(_contracts[1]).initialize(_contracts[0]);\n        address[] memory permittedAddresses = new address[](1);\n        permittedAddresses[0] = _owner;\n        \n        ICertifier(_contracts[5]).initialize(permittedAddresses, _contracts[0]);\n        ITxPermission(_contracts[4]).initialize(permittedAddresses, _contracts[5], _contracts[0], _contracts[6]);\n    }\n\n\n    function destruct()\n    external {\n        selfdestruct(msg.sender);\n    }\n}\n",
  "sourcePath": "/home/sn/dmd/dmd-meta/hbbft-posdao-contracts/contracts/InitializerHbbft.sol",
  "compiler": {
    "name": "solc",
    "version": "0.5.17+commit.d19bba13.Emscripten.clang"
  },
  "schemaVersion": "3.3.1",
  "updatedAt": "2022-01-07T23:00:13.290Z",
  "devdoc": {
    "details": "Used once on network startup and then destroyed. Needed for initializing upgradeable contracts since upgradeable contracts can't have constructors.",
    "methods": {
      "constructor": {
        "params": {
          "_acks": "bytes[][] memory",
          "_contracts": "An array of the contracts:   0 is ValidatorSetHbbft,   1 is BlockRewardHbbft,   2 is RandomHbbft,   3 is StakingHbbft,   4 is TxPermission,   5 is Certifier,   6 is KeyGenHistory.",
          "_internetAddresses": "bytes16[] memory",
          "_miningAddresses": "The array of initial validators' mining addresses.",
          "_owner": "The contracts' owner.",
          "_parts": "bytes[] memory",
          "_publicKeys": "bytes32[] memory",
          "_stakingAddresses": "The array of initial validators' staking addresses.",
          "_stakingParams": "list of staking related parameters, done to avoid \"stack too deep\" error _stakingParams[0]: _delegatorMinStake The minimum allowed amount of delegator stake in Wei (see the `StakingHbbft` contract). _stakingParams[1]: _candidateMinStake The minimum allowed amount of candidate stake in Wei (see the `StakingHbbft` contract). _stakingParams[2]: _stakingEpochDuration The duration of a staking epoch. _stakingParams[3]: _stakingTransitionTimeframeLength Length of the timeframe in seconds for the transition _stakingParams[4]: _stakingWithdrawDisallowPeriod The duration period (in blocks) at the end of a staking epoch during which participants cannot stake or withdraw their staking tokens"
        }
      }
    }
  },
  "userdoc": {
    "methods": {}
  }
}