{
  "contractName": "KeyGenHistory",
  "abi": [
    {
      "anonymous": false,
      "inputs": [
        {
          "indexed": false,
          "internalType": "address[]",
          "name": "newValidatorSet",
          "type": "address[]"
        }
      ],
      "name": "NewValidatorsSet",
      "type": "event"
    },
    {
      "constant": true,
      "inputs": [
        {
          "internalType": "address",
          "name": "",
          "type": "address"
        },
        {
          "internalType": "uint256",
          "name": "",
          "type": "uint256"
        }
      ],
      "name": "acks",
      "outputs": [
        {
          "internalType": "bytes",
          "name": "",
          "type": "bytes"
        }
      ],
      "payable": false,
      "stateMutability": "view",
      "type": "function"
    },
    {
      "constant": true,
      "inputs": [],
      "name": "currentKeyGenRound",
      "outputs": [
        {
          "internalType": "uint256",
          "name": "",
          "type": "uint256"
        }
      ],
      "payable": false,
      "stateMutability": "view",
      "type": "function"
    },
    {
      "constant": true,
      "inputs": [],
      "name": "numberOfAcksWritten",
      "outputs": [
        {
          "internalType": "uint128",
          "name": "",
          "type": "uint128"
        }
      ],
      "payable": false,
      "stateMutability": "view",
      "type": "function"
    },
    {
      "constant": true,
      "inputs": [],
      "name": "numberOfPartsWritten",
      "outputs": [
        {
          "internalType": "uint128",
          "name": "",
          "type": "uint128"
        }
      ],
      "payable": false,
      "stateMutability": "view",
      "type": "function"
    },
    {
      "constant": true,
      "inputs": [
        {
          "internalType": "address",
          "name": "",
          "type": "address"
        }
      ],
      "name": "parts",
      "outputs": [
        {
          "internalType": "bytes",
          "name": "",
          "type": "bytes"
        }
      ],
      "payable": false,
      "stateMutability": "view",
      "type": "function"
    },
    {
      "constant": true,
      "inputs": [
        {
          "internalType": "uint256",
          "name": "",
          "type": "uint256"
        }
      ],
      "name": "validatorSet",
      "outputs": [
        {
          "internalType": "address",
          "name": "",
          "type": "address"
        }
      ],
      "payable": false,
      "stateMutability": "view",
      "type": "function"
    },
    {
      "constant": true,
      "inputs": [],
      "name": "validatorSetContract",
      "outputs": [
        {
          "internalType": "contract IValidatorSetHbbft",
          "name": "",
          "type": "address"
        }
      ],
      "payable": false,
      "stateMutability": "view",
      "type": "function"
    },
    {
      "constant": false,
      "inputs": [
        {
          "internalType": "address[]",
          "name": "_prevValidators",
          "type": "address[]"
        }
      ],
      "name": "clearPrevKeyGenState",
      "outputs": [],
      "payable": false,
      "stateMutability": "nonpayable",
      "type": "function"
    },
    {
      "constant": false,
      "inputs": [],
      "name": "notifyKeyGenFailed",
      "outputs": [],
      "payable": false,
      "stateMutability": "nonpayable",
      "type": "function"
    },
    {
      "constant": false,
      "inputs": [],
      "name": "notifyNewEpoch",
      "outputs": [],
      "payable": false,
      "stateMutability": "nonpayable",
      "type": "function"
    },
    {
      "constant": false,
      "inputs": [
        {
          "internalType": "address",
          "name": "_validatorSetContract",
          "type": "address"
        },
        {
          "internalType": "address[]",
          "name": "_validators",
          "type": "address[]"
        },
        {
          "internalType": "bytes[]",
          "name": "_parts",
          "type": "bytes[]"
        },
        {
          "internalType": "bytes[][]",
          "name": "_acks",
          "type": "bytes[][]"
        }
      ],
      "name": "initialize",
      "outputs": [],
      "payable": false,
      "stateMutability": "nonpayable",
      "type": "function"
    },
    {
      "constant": false,
      "inputs": [
        {
          "internalType": "uint256",
          "name": "_upcommingEpoch",
          "type": "uint256"
        },
        {
          "internalType": "uint256",
          "name": "_roundCounter",
          "type": "uint256"
        },
        {
          "internalType": "bytes",
          "name": "_part",
          "type": "bytes"
        }
      ],
      "name": "writePart",
      "outputs": [],
      "payable": false,
      "stateMutability": "nonpayable",
      "type": "function"
    },
    {
      "constant": false,
      "inputs": [
        {
          "internalType": "uint256",
          "name": "_upcommingEpoch",
          "type": "uint256"
        },
        {
          "internalType": "uint256",
          "name": "_roundCounter",
          "type": "uint256"
        },
        {
          "internalType": "bytes[]",
          "name": "_acks",
          "type": "bytes[]"
        }
      ],
      "name": "writeAcks",
      "outputs": [],
      "payable": false,
      "stateMutability": "nonpayable",
      "type": "function"
    },
    {
      "constant": true,
      "inputs": [
        {
          "internalType": "address",
          "name": "_val",
          "type": "address"
        }
      ],
      "name": "getPart",
      "outputs": [
        {
          "internalType": "bytes",
          "name": "",
          "type": "bytes"
        }
      ],
      "payable": false,
      "stateMutability": "view",
      "type": "function"
    },
    {
      "constant": true,
      "inputs": [
        {
          "internalType": "address",
          "name": "val",
          "type": "address"
        }
      ],
      "name": "getAcksLength",
      "outputs": [
        {
          "internalType": "uint256",
          "name": "",
          "type": "uint256"
        }
      ],
      "payable": false,
      "stateMutability": "view",
      "type": "function"
    },
    {
      "constant": true,
      "inputs": [],
      "name": "getCurrentKeyGenRound",
      "outputs": [
        {
          "internalType": "uint256",
          "name": "",
          "type": "uint256"
        }
      ],
      "payable": false,
      "stateMutability": "view",
      "type": "function"
    },
    {
      "constant": true,
      "inputs": [],
      "name": "getNumberOfKeyFragmentsWritten",
      "outputs": [
        {
          "internalType": "uint128",
          "name": "",
          "type": "uint128"
        },
        {
          "internalType": "uint128",
          "name": "",
          "type": "uint128"
        }
      ],
      "payable": false,
      "stateMutability": "view",
      "type": "function"
    },
    {
      "constant": true,
      "inputs": [],
      "name": "isInitialized",
      "outputs": [
        {
          "internalType": "bool",
          "name": "",
          "type": "bool"
        }
      ],
      "payable": false,
      "stateMutability": "view",
      "type": "function"
    }
  ],
  "bytecode": "0x608060405234801561001057600080fd5b506119cb806100206000396000f3fe608060405234801561001057600080fd5b50600436106101165760003560e01c8063827d467d116100a2578063ca3edc8111610071578063ca3edc8114610212578063dd7761f814610225578063dfc8bf4e14610238578063e64808f31461024d578063f36275331461026d57610116565b8063827d467d146101cf57806399de1a43146101e4578063adddc0cf146101f7578063be168934146101ff57610116565b806348bb1b2d116100e957806348bb1b2d1461016b5780635623208e146101735780635f17497e14610186578063778b8a15146101995780637be02c2b146101b957610116565b8063122a72161461011b5780632c6f194d146101395780632d4de12414610143578063392e53cd14610156575b600080fd5b610123610275565b6040516101309190611857565b60405180910390f35b61014161027b565b005b610141610151366004611333565b6102b5565b61015e610510565b604051610130919061173a565b610123610522565b6101416101813660046112ce565b610528565b610141610194366004611232565b61076b565b6101ac6101a736600461110b565b610854565b6040516101309190611748565b6101c16108ee565b60405161013092919061183c565b6101d7610909565b604051610130919061182e565b6101ac6101f236600461110b565b61091f565b6101416109c9565b61014161020d36600461114f565b6109fe565b6101ac6102203660046111f8565b610c21565b61012361023336600461110b565b610ca2565b610240610cbd565b6040516101309190611760565b61026061025b366004611292565b610ccc565b604051610130919061171e565b6101d7610cf3565b60055481565b6004546001600160a01b031633146102ae5760405162461bcd60e51b81526004016102a59061179e565b60405180910390fd5b6001600555565b6004805460408051633ba6481760e21b81529051869384936001600160a01b03169263ee99205c9281830192602092829003018186803b1580156102f857600080fd5b505afa15801561030c573d6000803e3d6000fd5b505050506040513d601f19601f820116820180604052506103309190810190611131565b6001600160a01b031663794c0c686040518163ffffffff1660e01b815260040160206040518083038186803b15801561036857600080fd5b505afa15801561037c573d6000803e3d6000fd5b505050506040513d601f19601f820116820180604052506103a091908101906112b0565b600101146103c05760405162461bcd60e51b81526004016102a5906117de565b8280600554146103e25760405162461bcd60e51b81526004016102a5906117fe565b6004805460405163fb64aac160e01b81526001600160a01b039091169163fb64aac1916104119133910161172c565b60206040518083038186803b15801561042957600080fd5b505afa15801561043d573d6000803e3d6000fd5b505050506040513d601f19601f820116820180604052506104619190810190611274565b61047d5760405162461bcd60e51b81526004016102a5906117ee565b3360009081526001602081905260409091205460029181161561010002600019011604156104bd5760405162461bcd60e51b81526004016102a5906117ce565b33600090815260016020908152604090912084516104dd92860190610d27565b5050600380546001600160801b03808216600101166fffffffffffffffffffffffffffffffff1990911617905550505050565b6004546001600160a01b031615155b90565b60055490565b6004805460408051633ba6481760e21b81529051869384936001600160a01b03169263ee99205c9281830192602092829003018186803b15801561056b57600080fd5b505afa15801561057f573d6000803e3d6000fd5b505050506040513d601f19601f820116820180604052506105a39190810190611131565b6001600160a01b031663794c0c686040518163ffffffff1660e01b815260040160206040518083038186803b1580156105db57600080fd5b505afa1580156105ef573d6000803e3d6000fd5b505050506040513d601f19601f8201168201806040525061061391908101906112b0565b600101146106335760405162461bcd60e51b81526004016102a5906117de565b8280600554146106555760405162461bcd60e51b81526004016102a5906117fe565b6004805460405163fb64aac160e01b81526001600160a01b039091169163fb64aac1916106849133910161172c565b60206040518083038186803b15801561069c57600080fd5b505afa1580156106b0573d6000803e3d6000fd5b505050506040513d601f19601f820116820180604052506106d49190810190611274565b6106f05760405162461bcd60e51b81526004016102a5906117ee565b336000908152600260205260409020541561071d5760405162461bcd60e51b81526004016102a59061180e565b336000908152600260209081526040909120845161073d92860190610da5565b50506003805460016001600160801b03600160801b8084048216929092018116909102911617905550505050565b6004546001600160a01b031633146107955760405162461bcd60e51b81526004016102a59061179e565b60005b8181101561084a57600160008484848181106107b057fe5b90506020020160206107c5919081019061110b565b6001600160a01b03166001600160a01b0316815260200190815260200160002060006107f19190610dfe565b6002600084848481811061080157fe5b9050602002016020610816919081019061110b565b6001600160a01b03166001600160a01b0316815260200190815260200160002060006108429190610e45565b600101610798565b5050600060035550565b60016020818152600092835260409283902080548451600294821615610100026000190190911693909304601f81018390048302840183019094528383529192908301828280156108e65780601f106108bb576101008083540402835291602001916108e6565b820191906000526020600020905b8154815290600101906020018083116108c957829003601f168201915b505050505081565b6003546001600160801b0380821691600160801b9004169091565b600354600160801b90046001600160801b031681565b6001600160a01b03811660009081526001602081815260409283902080548451600294821615610100026000190190911693909304601f810183900483028401830190945283835260609390918301828280156109bd5780601f10610992576101008083540402835291602001916109bd565b820191906000526020600020905b8154815290600101906020018083116109a057829003601f168201915b50505050509050919050565b6004546001600160a01b031633146109f35760405162461bcd60e51b81526004016102a59061179e565b600580546001019055565b610a06610d02565b6001600160a01b0316336001600160a01b03161480610a3d5750610a28610d02565b6001600160a01b0316326001600160a01b0316145b80610a565750610a4b610d02565b6001600160a01b0316155b80610a5f575043155b610a7b5760405162461bcd60e51b81526004016102a59061178e565b610a83610510565b15610aa05760405162461bcd60e51b81526004016102a59061176e565b8251610abe5760405162461bcd60e51b81526004016102a5906117be565b8151835114610adf5760405162461bcd60e51b81526004016102a5906117ae565b8051835114610b005760405162461bcd60e51b81526004016102a59061181e565b6001600160a01b038416610b265760405162461bcd60e51b81526004016102a59061177e565b600480546001600160a01b0319166001600160a01b03861617905560005b8351811015610c1557828181518110610b5957fe5b602002602001015160016000868481518110610b7157fe5b60200260200101516001600160a01b03166001600160a01b031681526020019081526020016000209080519060200190610bac929190610d27565b50818181518110610bb957fe5b602002602001015160026000868481518110610bd157fe5b60200260200101516001600160a01b03166001600160a01b031681526020019081526020016000209080519060200190610c0c929190610da5565b50600101610b44565b50506001600555505050565b60026020528160005260406000208181548110610c3a57fe5b600091825260209182902001805460408051601f600260001961010060018716150201909416939093049283018590048502810185019091528181529450909250908301828280156108e65780601f106108bb576101008083540402835291602001916108e6565b6001600160a01b031660009081526002602052604090205490565b6004546001600160a01b031681565b60008181548110610cd957fe5b6000918252602090912001546001600160a01b0316905081565b6003546001600160801b031681565b7fb53127684a568b3173ae13b9f8a6016e243e63b6e8ee1178d6a717850b5d61035490565b828054600181600116156101000203166002900490600052602060002090601f016020900481019282601f10610d6857805160ff1916838001178555610d95565b82800160010185558215610d95579182015b82811115610d95578251825591602001919060010190610d7a565b50610da1929150610e63565b5090565b828054828255906000526020600020908101928215610df2579160200282015b82811115610df25782518051610de2918491602090910190610d27565b5091602001919060010190610dc5565b50610da1929150610e7d565b50805460018160011615610100020316600290046000825580601f10610e245750610e42565b601f016020900490600052602060002090810190610e429190610e63565b50565b5080546000825590600052602060002090810190610e429190610e7d565b61051f91905b80821115610da15760008155600101610e69565b61051f91905b80821115610da1576000610e978282610dfe565b50600101610e83565b8035610eab81611962565b92915050565b8051610eab81611962565b60008083601f840112610ece57600080fd5b50813567ffffffffffffffff811115610ee657600080fd5b602083019150836020820283011115610efe57600080fd5b9250929050565b600082601f830112610f1657600080fd5b8135610f29610f248261188c565b611865565b91508181835260208401935060208101905083856020840282011115610f4e57600080fd5b60005b83811015610f7a5781610f648882610ea0565b8452506020928301929190910190600101610f51565b5050505092915050565b600082601f830112610f9557600080fd5b8135610fa3610f248261188c565b81815260209384019390925082018360005b83811015610f7a5781358601610fcb8882610fe1565b8452506020928301929190910190600101610fb5565b600082601f830112610ff257600080fd5b8135611000610f248261188c565b81815260209384019390925082018360005b83811015610f7a578135860161102888826110a6565b8452506020928301929190910190600101611012565b600082601f83011261104f57600080fd5b813561105d610f248261188c565b81815260209384019390925082018360005b83811015610f7a578135860161108588826110a6565b845250602092830192919091019060010161106f565b8051610eab81611976565b600082601f8301126110b757600080fd5b81356110c5610f24826118ad565b915080825260208301602083018583830111156110e157600080fd5b6110ec83828461191c565b50505092915050565b8035610eab8161197f565b8051610eab8161197f565b60006020828403121561111d57600080fd5b60006111298484610ea0565b949350505050565b60006020828403121561114357600080fd5b60006111298484610eb1565b6000806000806080858703121561116557600080fd5b60006111718787610ea0565b945050602085013567ffffffffffffffff81111561118e57600080fd5b61119a87828801610f05565b935050604085013567ffffffffffffffff8111156111b757600080fd5b6111c38782880161103e565b925050606085013567ffffffffffffffff8111156111e057600080fd5b6111ec87828801610f84565b91505092959194509250565b6000806040838503121561120b57600080fd5b60006112178585610ea0565b9250506020611228858286016110f5565b9150509250929050565b6000806020838503121561124557600080fd5b823567ffffffffffffffff81111561125c57600080fd5b61126885828601610ebc565b92509250509250929050565b60006020828403121561128657600080fd5b6000611129848461109b565b6000602082840312156112a457600080fd5b600061112984846110f5565b6000602082840312156112c257600080fd5b60006111298484611100565b6000806000606084860312156112e357600080fd5b60006112ef86866110f5565b9350506020611300868287016110f5565b925050604084013567ffffffffffffffff81111561131d57600080fd5b6113298682870161103e565b9150509250925092565b60008060006060848603121561134857600080fd5b600061135486866110f5565b9350506020611365868287016110f5565b925050604084013567ffffffffffffffff81111561138257600080fd5b611329868287016110a6565b6113978161190a565b82525050565b611397816118e2565b611397816118ed565b60006113ba826118d5565b6113c481856118d9565b93506113d4818560208601611928565b6113dd81611958565b9093019392505050565b61139781611911565b60006113fd6024836118d9565b7f696e697469616c697a6174696f6e2063616e206f6e6c7920626520646f6e65208152636f6e636560e01b602082015260400192915050565b60006114436027836118d9565b7f56616c696461746f7220636f6e747261637420616464726573732063616e6e6f8152663a10313290181760c91b602082015260400192915050565b600061148c6014836118d9565b7329b2b73232b91036bab9ba1031329030b236b4b760611b815260200192915050565b60006114bc6028836118d9565b7f4d7573742062792065786563757465642062792076616c696461746f7253657481526710dbdb9d1c9858dd60c21b602082015260400192915050565b60006115066016836118d9565b7557726f6e67206e756d626572206f662050617274732160501b815260200192915050565b6000611538601f836118d9565b7f56616c696461746f7273206d757374206265206d6f7265207468616e20302e00815260200192915050565b60006115716018836118d9565b7f506172747320616c7265616479207375626d6974746564210000000000000000815260200192915050565b60006115aa603b836118d9565b7f4b65792047656e65726174696f6e2066756e6374696f6e2063616c6c6564207781527f6974682077726f6e67205f65706f636820706172616d657465722e0000000000602082015260400192915050565b60006116096021836118d9565b7f53656e646572206973206e6f7420612070656e64696e672076616c696461746f8152603960f91b602082015260400192915050565b600061164c6042836118d9565b7f4b65792047656e65726174696f6e2066756e6374696f6e2063616c6c6564207781527f6974682077726f6e67205f726f756e64436f756e74657220706172616d657465602082015261391760f11b604082015260600192915050565b60006116b66016836118d9565b751058dadcc8185b1c9958591e481cdd589b5a5d1d195960521b815260200192915050565b60006116e86015836118d9565b7457726f6e67206e756d626572206f662041636b732160581b815260200192915050565b611397816118f2565b6113978161051f565b60208101610eab828461139d565b60208101610eab828461138e565b60208101610eab82846113a6565b6020808252810161175981846113af565b9392505050565b60208101610eab82846113e7565b60208082528101610eab816113f0565b60208082528101610eab81611436565b60208082528101610eab8161147f565b60208082528101610eab816114af565b60208082528101610eab816114f9565b60208082528101610eab8161152b565b60208082528101610eab81611564565b60208082528101610eab8161159d565b60208082528101610eab816115fc565b60208082528101610eab8161163f565b60208082528101610eab816116a9565b60208082528101610eab816116db565b60208101610eab828461170c565b6040810161184a828561170c565b611759602083018461170c565b60208101610eab8284611715565b60405181810167ffffffffffffffff8111828210171561188457600080fd5b604052919050565b600067ffffffffffffffff8211156118a357600080fd5b5060209081020190565b600067ffffffffffffffff8211156118c457600080fd5b506020601f91909101601f19160190565b5190565b90815260200190565b6000610eab826118fe565b151590565b6001600160801b031690565b6001600160a01b031690565b6000610eab825b6000610eab826118e2565b82818337506000910152565b60005b8381101561194357818101518382015260200161192b565b83811115611952576000848401525b50505050565b601f01601f191690565b61196b816118e2565b8114610e4257600080fd5b61196b816118ed565b61196b8161051f56fea365627a7a723158204a30920273b8b1c78265b6e0e264403bb170a8df42ffc721ff5c3eb5742937516c6578706572696d656e74616cf564736f6c63430005110040",
  "source": "pragma solidity ^0.5.16;\npragma experimental ABIEncoderV2;\n\nimport \"./interfaces/IKeyGenHistory.sol\";\nimport \"./interfaces/IValidatorSetHbbft.sol\";\nimport \"./upgradeability/UpgradeabilityAdmin.sol\";\nimport \"./interfaces/IStakingHbbft.sol\";\n\ncontract KeyGenHistory is UpgradeabilityAdmin, IKeyGenHistory {\n\n    // =============================================== Storage ========================================================\n\n    // WARNING: since this contract is upgradeable, do not remove\n    // existing storage variables and do not change their types!\n    address[] public validatorSet;\n\n    mapping(address => bytes) public parts;\n    mapping(address => bytes[]) public acks;\n\n    /// @dev number of parts written in this key generation round.\n    uint128 public numberOfPartsWritten;\n\n    /// @dev number of full ack sets written in this key generation round.\n    uint128 public numberOfAcksWritten;\n\n    /// @dev The address of the `ValidatorSetHbbft` contract.\n    IValidatorSetHbbft public validatorSetContract;\n\n    /// @dev round counter for key generation rounds.\n    /// in an ideal world, every key generation only requires one try,\n    /// and all validators manage to write their acks and parts,\n    /// so it is possible to achieve this goal in round 0.\n    /// in the real world, there are failures, \n    /// this mechanics helps covering that,\n    /// by revoking transactions, that were targeted for an earlier key gen round.\n    /// more infos: https://github.com/DMDcoin/hbbft-posdao-contracts/issues/106\n    uint256 public currentKeyGenRound;\n\n    event NewValidatorsSet(address[] newValidatorSet);\n\n    /// @dev Ensures the `initialize` function was called before.\n    modifier onlyInitialized {\n        require(isInitialized(), \"KeyGenHistory requires to be initialized\");\n        _;\n    }\n\n    /// @dev Ensures the caller is the SYSTEM_ADDRESS. See https://wiki.parity.io/Validator-Set.html\n    modifier onlySystem() {\n        require(msg.sender == 0xffffFFFfFFffffffffffffffFfFFFfffFFFfFFfE, \"Must be executed by System\");\n        _;\n    }\n\n    /// @dev Ensures the caller is ValidatorSet contract.\n    modifier onlyValidatorSet() {\n        require(msg.sender == address(validatorSetContract), \"Must by executed by validatorSetContract\");\n        _;\n    }\n\n    /// @dev ensures that Key Generation functions are called with wrong _epoch \n    /// parameter to prevent old and wrong transactions get picked up.\n    modifier onlyUpcommingEpoch(uint _epoch) {\n        require(IStakingHbbft(validatorSetContract.stakingContract()).stakingEpoch() + 1 == _epoch, \n            \"Key Generation function called with wrong _epoch parameter.\");\n        _;\n    }\n\n    /// @dev ensures that Key Generation functions are called with wrong _epoch \n    /// parameter to prevent old and wrong transactions get picked up.\n    modifier onlyCorrectRound(uint _roundCounter) {\n        require(currentKeyGenRound == _roundCounter, \n            \"Key Generation function called with wrong _roundCounter parameter.\");\n        _;\n    }\n\n    /// @dev Clears the state (acks and parts of previous validators.\n    /// @param _prevValidators The list of previous validators.\n    function clearPrevKeyGenState(address[] calldata _prevValidators)\n    external\n    onlyValidatorSet {\n\n        for (uint256 i = 0; i < _prevValidators.length; i++) {\n            delete parts[_prevValidators[i]];\n            delete acks[_prevValidators[i]];\n        }\n        numberOfPartsWritten = 0;\n        numberOfAcksWritten = 0;\n    }\n\n    function notifyKeyGenFailed()\n    external\n    onlyValidatorSet {\n        currentKeyGenRound = currentKeyGenRound + 1;\n    }\n\n    function notifyNewEpoch()\n    external\n    onlyValidatorSet {\n        currentKeyGenRound = 1;\n    }\n\n\n    function initialize(\n        address _validatorSetContract,\n        address[] memory _validators,\n        bytes[] memory _parts,\n        bytes[][] memory _acks\n    ) public {\n        // Unit Tests may deploy at block numbers other than 0.\n        require(msg.sender == _admin() || tx.origin ==  _admin() \n            || address(0) ==  _admin() || block.number == 0, \"Sender must be admin\");\n        require(!isInitialized(), \"initialization can only be done once\"); // initialization can only be done once\n        require(_validators.length != 0, \"Validators must be more than 0.\");\n        require(_validators.length == _parts.length, \"Wrong number of Parts!\");\n        require(_validators.length == _acks.length, \"Wrong number of Acks!\");\n        require(_validatorSetContract != address(0), \"Validator contract address cannot be 0.\");\n\n        validatorSetContract = IValidatorSetHbbft(_validatorSetContract);\n\n        for (uint256 i = 0; i < _validators.length; i++) {\n            parts[_validators[i]] = _parts[i];\n            acks[_validators[i]] = _acks[i];\n        }\n\n        currentKeyGenRound = 1;\n    }\n\n    function writePart(uint256 _upcommingEpoch, uint256 _roundCounter, bytes memory _part)\n    public\n    onlyUpcommingEpoch(_upcommingEpoch)\n    onlyCorrectRound(_roundCounter) {\n        // It can only be called by a new validator which is elected but not yet finalized...\n        // ...or by a validator which is already in the validator set.\n        require(validatorSetContract.isPendingValidator(msg.sender), \"Sender is not a pending validator\");\n        require(parts[msg.sender].length == 0, \"Parts already submitted!\");\n        parts[msg.sender] = _part;\n        numberOfPartsWritten++;\n    }\n\n    function writeAcks(uint256 _upcommingEpoch, uint256 _roundCounter, bytes[] memory _acks)\n    public\n    onlyUpcommingEpoch(_upcommingEpoch)\n    onlyCorrectRound(_roundCounter) {\n        // It can only be called by a new validator which is elected but not yet finalized...\n        // ...or by a validator which is already in the validator set.\n        require(validatorSetContract.isPendingValidator(msg.sender), \"Sender is not a pending validator\");\n        require(acks[msg.sender].length == 0, \"Acks already submitted\");\n        acks[msg.sender] = _acks;\n        numberOfAcksWritten++;\n    }\n\n    function getPart(address _val)\n    external\n    view\n    returns (bytes memory) {\n        return parts[_val];\n    }\n\n    function getAcksLength(address val)\n    external\n    view\n    returns(uint256) {\n        return acks[val].length;\n    }\n\n    function getCurrentKeyGenRound()\n    external\n    view\n    returns(uint256) {\n        return currentKeyGenRound;\n    }\n\n    function getNumberOfKeyFragmentsWritten()\n    external\n    view \n    returns(uint128, uint128) {\n        return (numberOfPartsWritten, numberOfAcksWritten);\n    }\n\n    /// @dev Returns a boolean flag indicating if the `initialize` function has been called.\n    function isInitialized()\n    public\n    view\n    returns(bool) {\n        return validatorSetContract != IValidatorSetHbbft(0);\n    }\n}\n",
  "sourcePath": "/home/sn/dmd/dmd-meta/hbbft-posdao-contracts/contracts/KeyGenHistory.sol",
  "compiler": {
    "name": "solc",
    "version": "0.5.17+commit.d19bba13.Emscripten.clang"
  },
  "schemaVersion": "3.3.1",
  "updatedAt": "2022-01-07T23:00:13.296Z",
  "devdoc": {
    "methods": {
      "clearPrevKeyGenState(address[])": {
        "details": "Clears the state (acks and parts of previous validators.",
        "params": {
          "_prevValidators": "The list of previous validators."
        }
      },
      "isInitialized()": {
        "details": "Returns a boolean flag indicating if the `initialize` function has been called."
      }
    }
  },
  "userdoc": {
    "methods": {}
  }
}