{
  "_format": "hh-sol-artifact-1",
  "contractName": "KeyGenHistory",
  "sourceName": "contracts/KeyGenHistory.sol",
  "abi": [
    {
      "anonymous": false,
      "inputs": [
        {
          "indexed": false,
          "internalType": "address[]",
          "name": "newValidatorSet",
          "type": "address[]"
        }
      ],
      "name": "NewValidatorsSet",
      "type": "event"
    },
    {
      "inputs": [
        {
          "internalType": "address",
          "name": "",
          "type": "address"
        },
        {
          "internalType": "uint256",
          "name": "",
          "type": "uint256"
        }
      ],
      "name": "acks",
      "outputs": [
        {
          "internalType": "bytes",
          "name": "",
          "type": "bytes"
        }
      ],
      "stateMutability": "view",
      "type": "function"
    },
    {
      "inputs": [
        {
          "internalType": "address[]",
          "name": "_prevValidators",
          "type": "address[]"
        }
      ],
      "name": "clearPrevKeyGenState",
      "outputs": [],
      "stateMutability": "nonpayable",
      "type": "function"
    },
    {
      "inputs": [],
      "name": "currentKeyGenRound",
      "outputs": [
        {
          "internalType": "uint256",
          "name": "",
          "type": "uint256"
        }
      ],
      "stateMutability": "view",
      "type": "function"
    },
    {
      "inputs": [
        {
          "internalType": "address",
          "name": "val",
          "type": "address"
        }
      ],
      "name": "getAcksLength",
      "outputs": [
        {
          "internalType": "uint256",
          "name": "",
          "type": "uint256"
        }
      ],
      "stateMutability": "view",
      "type": "function"
    },
    {
      "inputs": [],
      "name": "getCurrentKeyGenRound",
      "outputs": [
        {
          "internalType": "uint256",
          "name": "",
          "type": "uint256"
        }
      ],
      "stateMutability": "view",
      "type": "function"
    },
    {
      "inputs": [],
      "name": "getNumberOfKeyFragmentsWritten",
      "outputs": [
        {
          "internalType": "uint128",
          "name": "",
          "type": "uint128"
        },
        {
          "internalType": "uint128",
          "name": "",
          "type": "uint128"
        }
      ],
      "stateMutability": "view",
      "type": "function"
    },
    {
      "inputs": [
        {
          "internalType": "address",
          "name": "_val",
          "type": "address"
        }
      ],
      "name": "getPart",
      "outputs": [
        {
          "internalType": "bytes",
          "name": "",
          "type": "bytes"
        }
      ],
      "stateMutability": "view",
      "type": "function"
    },
    {
      "inputs": [
        {
          "internalType": "address",
          "name": "_validatorSetContract",
          "type": "address"
        },
        {
          "internalType": "address[]",
          "name": "_validators",
          "type": "address[]"
        },
        {
          "internalType": "bytes[]",
          "name": "_parts",
          "type": "bytes[]"
        },
        {
          "internalType": "bytes[][]",
          "name": "_acks",
          "type": "bytes[][]"
        }
      ],
      "name": "initialize",
      "outputs": [],
      "stateMutability": "nonpayable",
      "type": "function"
    },
    {
      "inputs": [],
      "name": "isInitialized",
      "outputs": [
        {
          "internalType": "bool",
          "name": "",
          "type": "bool"
        }
      ],
      "stateMutability": "view",
      "type": "function"
    },
    {
      "inputs": [],
      "name": "notifyKeyGenFailed",
      "outputs": [],
      "stateMutability": "nonpayable",
      "type": "function"
    },
    {
      "inputs": [],
      "name": "notifyNewEpoch",
      "outputs": [],
      "stateMutability": "nonpayable",
      "type": "function"
    },
    {
      "inputs": [],
      "name": "numberOfAcksWritten",
      "outputs": [
        {
          "internalType": "uint128",
          "name": "",
          "type": "uint128"
        }
      ],
      "stateMutability": "view",
      "type": "function"
    },
    {
      "inputs": [],
      "name": "numberOfPartsWritten",
      "outputs": [
        {
          "internalType": "uint128",
          "name": "",
          "type": "uint128"
        }
      ],
      "stateMutability": "view",
      "type": "function"
    },
    {
      "inputs": [
        {
          "internalType": "address",
          "name": "",
          "type": "address"
        }
      ],
      "name": "parts",
      "outputs": [
        {
          "internalType": "bytes",
          "name": "",
          "type": "bytes"
        }
      ],
      "stateMutability": "view",
      "type": "function"
    },
    {
      "inputs": [
        {
          "internalType": "uint256",
          "name": "",
          "type": "uint256"
        }
      ],
      "name": "validatorSet",
      "outputs": [
        {
          "internalType": "address",
          "name": "",
          "type": "address"
        }
      ],
      "stateMutability": "view",
      "type": "function"
    },
    {
      "inputs": [],
      "name": "validatorSetContract",
      "outputs": [
        {
          "internalType": "contract IValidatorSetHbbft",
          "name": "",
          "type": "address"
        }
      ],
      "stateMutability": "view",
      "type": "function"
    },
    {
      "inputs": [
        {
          "internalType": "uint256",
          "name": "_upcommingEpoch",
          "type": "uint256"
        },
        {
          "internalType": "uint256",
          "name": "_roundCounter",
          "type": "uint256"
        },
        {
          "internalType": "bytes[]",
          "name": "_acks",
          "type": "bytes[]"
        }
      ],
      "name": "writeAcks",
      "outputs": [],
      "stateMutability": "nonpayable",
      "type": "function"
    },
    {
      "inputs": [
        {
          "internalType": "uint256",
          "name": "_upcommingEpoch",
          "type": "uint256"
        },
        {
          "internalType": "uint256",
          "name": "_roundCounter",
          "type": "uint256"
        },
        {
          "internalType": "bytes",
          "name": "_part",
          "type": "bytes"
        }
      ],
      "name": "writePart",
      "outputs": [],
      "stateMutability": "nonpayable",
      "type": "function"
    }
  ],
  "bytecode": "0x608060405234801561001057600080fd5b5061194f806100206000396000f3fe608060405234801561001057600080fd5b50600436106101365760003560e01c8063827d467d116100b2578063ca3edc8111610081578063dfc8bf4e11610066578063dfc8bf4e146102a5578063e64808f3146102d0578063f3627533146102e357600080fd5b8063ca3edc8114610269578063dd7761f81461027c57600080fd5b8063827d467d1461020957806399de1a431461023b578063adddc0cf1461024e578063be1689341461025657600080fd5b806348bb1b2d116101095780635f17497e116100ee5780635f17497e146101ac578063778b8a15146101bf5780637be02c2b146101df57600080fd5b806348bb1b2d146101915780635623208e1461019957600080fd5b8063122a72161461013b5780632c6f194d146101575780632d4de12414610161578063392e53cd14610174575b600080fd5b61014460055481565b6040519081526020015b60405180910390f35b61015f6102f6565b005b61015f61016f3660046112ee565b61036d565b6004546040516001600160a01b039091161515815260200161014e565b600554610144565b61015f6101a73660046113f2565b6106c6565b61015f6101ba366004611438565b6109f5565b6101d26101cd3660046114c2565b610b35565b60405161014e91906114e6565b600354604080516001600160801b038084168252600160801b90930490921660208301520161014e565b60035461022390600160801b90046001600160801b031681565b6040516001600160801b03909116815260200161014e565b6101d26102493660046114c2565b610bcf565b61015f610c7b565b61015f6102643660046115b4565b610cf9565b6101d26102773660046116af565b6110f6565b61014461028a3660046114c2565b6001600160a01b031660009081526002602052604090205490565b6004546102b8906001600160a01b031681565b6040516001600160a01b03909116815260200161014e565b6102b86102de3660046116db565b61112e565b600354610223906001600160801b031681565b6004546001600160a01b031633146103665760405162461bcd60e51b815260206004820152602860248201527f4d7573742062792065786563757465642062792076616c696461746f7253657460448201526710dbdb9d1c9858dd60c21b60648201526084015b60405180910390fd5b6001600555565b600480546040805163239a373960e21b81529051869384936001600160a01b031692638e68dce492818301926020928290030181865afa1580156103b5573d6000803e3d6000fd5b505050506040513d601f19601f820116820180604052508101906103d991906116f4565b6001600160a01b031663794c0c686040518163ffffffff1660e01b8152600401602060405180830381865afa158015610416573d6000803e3d6000fd5b505050506040513d601f19601f8201168201806040525081019061043a9190611711565b610445906001611740565b146104b85760405162461bcd60e51b815260206004820152603b60248201527f4b65792047656e65726174696f6e2066756e6374696f6e2063616c6c6564207760448201527f6974682077726f6e67205f65706f636820706172616d657465722e0000000000606482015260840161035d565b82806005541461053b5760405162461bcd60e51b815260206004820152604260248201527f4b65792047656e65726174696f6e2066756e6374696f6e2063616c6c6564207760448201527f6974682077726f6e67205f726f756e64436f756e74657220706172616d657465606482015261391760f11b608482015260a40161035d565b6004805460405163fb64aac160e01b815233928101929092526001600160a01b03169063fb64aac190602401602060405180830381865afa158015610584573d6000803e3d6000fd5b505050506040513d601f19601f820116820180604052508101906105a89190611759565b6105fe5760405162461bcd60e51b815260206004820152602160248201527f53656e646572206973206e6f7420612070656e64696e672076616c696461746f6044820152603960f91b606482015260840161035d565b33600090815260016020526040902080546106189061177b565b1590506106675760405162461bcd60e51b815260206004820152601860248201527f506172747320616c7265616479207375626d6974746564210000000000000000604482015260640161035d565b3360009081526001602052604090206106808482611804565b50600380546001600160801b031690600061069a836118c4565b91906101000a8154816001600160801b0302191690836001600160801b03160217905550505050505050565b600480546040805163239a373960e21b81529051869384936001600160a01b031692638e68dce492818301926020928290030181865afa15801561070e573d6000803e3d6000fd5b505050506040513d601f19601f8201168201806040525081019061073291906116f4565b6001600160a01b031663794c0c686040518163ffffffff1660e01b8152600401602060405180830381865afa15801561076f573d6000803e3d6000fd5b505050506040513d601f19601f820116820180604052508101906107939190611711565b61079e906001611740565b146108115760405162461bcd60e51b815260206004820152603b60248201527f4b65792047656e65726174696f6e2066756e6374696f6e2063616c6c6564207760448201527f6974682077726f6e67205f65706f636820706172616d657465722e0000000000606482015260840161035d565b8280600554146108945760405162461bcd60e51b815260206004820152604260248201527f4b65792047656e65726174696f6e2066756e6374696f6e2063616c6c6564207760448201527f6974682077726f6e67205f726f756e64436f756e74657220706172616d657465606482015261391760f11b608482015260a40161035d565b6004805460405163fb64aac160e01b815233928101929092526001600160a01b03169063fb64aac190602401602060405180830381865afa1580156108dd573d6000803e3d6000fd5b505050506040513d601f19601f820116820180604052508101906109019190611759565b6109575760405162461bcd60e51b815260206004820152602160248201527f53656e646572206973206e6f7420612070656e64696e672076616c696461746f6044820152603960f91b606482015260840161035d565b33600090815260026020526040902054156109b45760405162461bcd60e51b815260206004820152601660248201527f41636b7320616c7265616479207375626d697474656400000000000000000000604482015260640161035d565b33600090815260026020908152604090912084516109d492860190611158565b5060038054600160801b90046001600160801b031690601061069a836118c4565b6004546001600160a01b03163314610a605760405162461bcd60e51b815260206004820152602860248201527f4d7573742062792065786563757465642062792076616c696461746f7253657460448201526710dbdb9d1c9858dd60c21b606482015260840161035d565b60005b81811015610b2b5760016000848484818110610a8157610a816118ea565b9050602002016020810190610a9691906114c2565b6001600160a01b03166001600160a01b031681526020019081526020016000206000610ac291906111ae565b60026000848484818110610ad857610ad86118ea565b9050602002016020810190610aed91906114c2565b6001600160a01b03166001600160a01b031681526020019081526020016000206000610b1991906111eb565b80610b2381611900565b915050610a63565b5050600060035550565b60016020526000908152604090208054610b4e9061177b565b80601f0160208091040260200160405190810160405280929190818152602001828054610b7a9061177b565b8015610bc75780601f10610b9c57610100808354040283529160200191610bc7565b820191906000526020600020905b815481529060010190602001808311610baa57829003601f168201915b505050505081565b6001600160a01b0381166000908152600160205260409020805460609190610bf69061177b565b80601f0160208091040260200160405190810160405280929190818152602001828054610c229061177b565b8015610c6f5780601f10610c4457610100808354040283529160200191610c6f565b820191906000526020600020905b815481529060010190602001808311610c5257829003601f168201915b50505050509050919050565b6004546001600160a01b03163314610ce65760405162461bcd60e51b815260206004820152602860248201527f4d7573742062792065786563757465642062792076616c696461746f7253657460448201526710dbdb9d1c9858dd60c21b606482015260840161035d565b600554610cf4906001611740565b600555565b7fb53127684a568b3173ae13b9f8a6016e243e63b6e8ee1178d6a717850b5d6103546001600160a01b0316336001600160a01b03161480610d6c57507fb53127684a568b3173ae13b9f8a6016e243e63b6e8ee1178d6a717850b5d6103546001600160a01b0316326001600160a01b0316145b80610d9f57507fb53127684a568b3173ae13b9f8a6016e243e63b6e8ee1178d6a717850b5d6103546001600160a01b0316155b80610da8575043155b610df45760405162461bcd60e51b815260206004820152601460248201527f53656e646572206d7573742062652061646d696e000000000000000000000000604482015260640161035d565b6004546001600160a01b031615610e595760405162461bcd60e51b8152602060048201526024808201527f696e697469616c697a6174696f6e2063616e206f6e6c7920626520646f6e65206044820152636f6e636560e01b606482015260840161035d565b8251600003610eaa5760405162461bcd60e51b815260206004820152601f60248201527f56616c696461746f7273206d757374206265206d6f7265207468616e20302e00604482015260640161035d565b8151835114610efb5760405162461bcd60e51b815260206004820152601660248201527f57726f6e67206e756d626572206f662050617274732100000000000000000000604482015260640161035d565b8051835114610f4c5760405162461bcd60e51b815260206004820152601560248201527f57726f6e67206e756d626572206f662041636b73210000000000000000000000604482015260640161035d565b6001600160a01b038416610fc85760405162461bcd60e51b815260206004820152602760248201527f56616c696461746f7220636f6e747261637420616464726573732063616e6e6f60448201527f7420626520302e00000000000000000000000000000000000000000000000000606482015260840161035d565b600480547fffffffffffffffffffffffff0000000000000000000000000000000000000000166001600160a01b03861617905560005b83518110156110ea57828181518110611019576110196118ea565b602002602001015160016000868481518110611037576110376118ea565b60200260200101516001600160a01b03166001600160a01b03168152602001908152602001600020908161106b9190611804565b5081818151811061107e5761107e6118ea565b60200260200101516002600086848151811061109c5761109c6118ea565b60200260200101516001600160a01b03166001600160a01b0316815260200190815260200160002090805190602001906110d7929190611158565b50806110e281611900565b915050610ffe565b50506001600555505050565b6002602052816000526040600020818154811061111257600080fd5b90600052602060002001600091509150508054610b4e9061177b565b6000818154811061113e57600080fd5b6000918252602090912001546001600160a01b0316905081565b82805482825590600052602060002090810192821561119e579160200282015b8281111561119e578251829061118e9082611804565b5091602001919060010190611178565b506111aa929150611205565b5090565b5080546111ba9061177b565b6000825580601f106111ca575050565b601f0160209004906000526020600020908101906111e89190611222565b50565b50805460008255906000526020600020908101906111e891905b808211156111aa57600061121982826111ae565b50600101611205565b5b808211156111aa5760008155600101611223565b634e487b7160e01b600052604160045260246000fd5b604051601f8201601f1916810167ffffffffffffffff8111828210171561127657611276611237565b604052919050565b600082601f83011261128f57600080fd5b813567ffffffffffffffff8111156112a9576112a9611237565b6112bc601f8201601f191660200161124d565b8181528460208386010111156112d157600080fd5b816020850160208301376000918101602001919091529392505050565b60008060006060848603121561130357600080fd5b8335925060208401359150604084013567ffffffffffffffff81111561132857600080fd5b6113348682870161127e565b9150509250925092565b600067ffffffffffffffff82111561135857611358611237565b5060051b60200190565b600082601f83011261137357600080fd5b813560206113886113838361133e565b61124d565b82815260059290921b840181019181810190868411156113a757600080fd5b8286015b848110156113e757803567ffffffffffffffff8111156113cb5760008081fd5b6113d98986838b010161127e565b8452509183019183016113ab565b509695505050505050565b60008060006060848603121561140757600080fd5b8335925060208401359150604084013567ffffffffffffffff81111561142c57600080fd5b61133486828701611362565b6000806020838503121561144b57600080fd5b823567ffffffffffffffff8082111561146357600080fd5b818501915085601f83011261147757600080fd5b81358181111561148657600080fd5b8660208260051b850101111561149b57600080fd5b60209290920196919550909350505050565b6001600160a01b03811681146111e857600080fd5b6000602082840312156114d457600080fd5b81356114df816114ad565b9392505050565b600060208083528351808285015260005b81811015611513578581018301518582016040015282016114f7565b506000604082860101526040601f19601f8301168501019250505092915050565b600082601f83011261154557600080fd5b813560206115556113838361133e565b82815260059290921b8401810191818101908684111561157457600080fd5b8286015b848110156113e757803567ffffffffffffffff8111156115985760008081fd5b6115a68986838b0101611362565b845250918301918301611578565b600080600080608085870312156115ca57600080fd5b84356115d5816114ad565b935060208581013567ffffffffffffffff808211156115f357600080fd5b818801915088601f83011261160757600080fd5b81356116156113838261133e565b81815260059190911b8301840190848101908b83111561163457600080fd5b938501935b8285101561165b57843561164c816114ad565b82529385019390850190611639565b97505050604088013592508083111561167357600080fd5b61167f89848a01611362565b9450606088013592508083111561169557600080fd5b50506116a387828801611534565b91505092959194509250565b600080604083850312156116c257600080fd5b82356116cd816114ad565b946020939093013593505050565b6000602082840312156116ed57600080fd5b5035919050565b60006020828403121561170657600080fd5b81516114df816114ad565b60006020828403121561172357600080fd5b5051919050565b634e487b7160e01b600052601160045260246000fd5b808201808211156117535761175361172a565b92915050565b60006020828403121561176b57600080fd5b815180151581146114df57600080fd5b600181811c9082168061178f57607f821691505b6020821081036117af57634e487b7160e01b600052602260045260246000fd5b50919050565b601f8211156117ff57600081815260208120601f850160051c810160208610156117dc5750805b601f850160051c820191505b818110156117fb578281556001016117e8565b5050505b505050565b815167ffffffffffffffff81111561181e5761181e611237565b6118328161182c845461177b565b846117b5565b602080601f831160018114611867576000841561184f5750858301515b600019600386901b1c1916600185901b1785556117fb565b600085815260208120601f198616915b8281101561189657888601518255948401946001909101908401611877565b50858210156118b45787850151600019600388901b60f8161c191681555b5050505050600190811b01905550565b60006001600160801b038083168181036118e0576118e061172a565b6001019392505050565b634e487b7160e01b600052603260045260246000fd5b6000600182016119125761191261172a565b506001019056fea264697066735822122061bcea6a06b2bd3dc1ffc299f4033df04c7d75fe887d36cfefa31270a77ff1c964736f6c63430008110033",
  "linkReferences": {},
  "deployedLinkReferences": {}
}