{
  "contractName": "RandomHbbft",
  "abi": [
    {
      "constant": true,
      "inputs": [],
      "name": "currentSeed",
      "outputs": [
        {
          "internalType": "uint256",
          "name": "",
          "type": "uint256"
        }
      ],
      "payable": false,
      "stateMutability": "view",
      "type": "function"
    },
    {
      "constant": false,
      "inputs": [
        {
          "internalType": "uint256",
          "name": "_currentSeed",
          "type": "uint256"
        }
      ],
      "name": "setCurrentSeed",
      "outputs": [],
      "payable": false,
      "stateMutability": "nonpayable",
      "type": "function"
    }
  ],
  "bytecode": "0x608060405234801561001057600080fd5b50610105806100206000396000f3fe6080604052348015600f57600080fd5b506004361060325760003560e01c806383220626146037578063919cc19c14604f575b600080fd5b603d606b565b60408051918252519081900360200190f35b606960048036036020811015606357600080fd5b50356071565b005b60005481565b6002600160a01b03331460cb576040805162461bcd60e51b815260206004820152601a60248201527f4d7573742062652065786563757465642062792053797374656d000000000000604482015290519081900360640190fd5b60005556fea265627a7a723158201805a52920cd4d71872210e26d69d516e6483ab8563cf797a49c8ddffa0cc19464736f6c63430005110032",
  "source": "pragma solidity ^0.5.16;\n\nimport \"./interfaces/IRandomHbbft.sol\";\nimport \"./upgradeability/UpgradeabilityAdmin.sol\";\n\n/// @dev Stores and uppdates a random seed that is used to form a new validator set by the\n/// `ValidatorSetHbbft.newValidatorSet` function.\ncontract RandomHbbft is UpgradeabilityAdmin, IRandomHbbft {\n\n    // =============================================== Storage ========================================================\n\n    // WARNING: since this contract is upgradeable, do not remove\n    // existing storage variables and do not change their types!\n\n\n    /// @dev The current random seed accumulated during RANDAO or another process\n    /// (depending on implementation).\n    uint256 public currentSeed;\n\n    // ============================================== Modifiers =======================================================\n\n    /// @dev Ensures the caller is the SYSTEM_ADDRESS. See https://wiki.parity.io/Validator-Set.html\n    modifier onlySystem() {\n        require(msg.sender == 0xffffFFFfFFffffffffffffffFfFFFfffFFFfFFfE, \"Must be executed by System\");\n        _;\n    }\n    // =============================================== Setters ========================================================\n\n    /// @dev The cooperative consens mechanism in HBBFT achieves to \n    /// generate a seed, that cannot be predicted by the nodes,\n    /// but can get used within smart contracts without having to wait for\n    /// an additional block.\n    /// this is one of the biggest benefits of HBBFT.\n    /// When the nodes are able to decrypt the transaction,\n    /// they know the seed, that can be used as random base for smart contract interactions.\n    /// setCurrentSeed is always the first transaction within a block,\n    /// and currentSeed is a public available value that can get used by all smart contracts.\n    function setCurrentSeed(uint256 _currentSeed)\n    external\n    onlySystem {\n        currentSeed = _currentSeed;\n    }\n}",
  "sourcePath": "/home/sn/dmd/dmd-meta/hbbft-posdao-contracts/contracts/RandomHbbft.sol",
  "compiler": {
    "name": "solc",
    "version": "0.5.17+commit.d19bba13.Emscripten.clang"
  },
  "schemaVersion": "3.3.1",
  "updatedAt": "2021-12-06T19:40:02.911Z",
  "devdoc": {
    "details": "Stores and uppdates a random seed that is used to form a new validator set by the `ValidatorSetHbbft.newValidatorSet` function.",
    "methods": {
      "setCurrentSeed(uint256)": {
        "details": "The cooperative consens mechanism in HBBFT achieves to  generate a seed, that cannot be predicted by the nodes, but can get used within smart contracts without having to wait for an additional block. this is one of the biggest benefits of HBBFT. When the nodes are able to decrypt the transaction, they know the seed, that can be used as random base for smart contract interactions. setCurrentSeed is always the first transaction within a block, and currentSeed is a public available value that can get used by all smart contracts."
      }
    }
  },
  "userdoc": {
    "methods": {}
  }
}