{
  "contractName": "RandomHbbftMock",
  "abi": [
    {
      "constant": true,
      "inputs": [],
      "name": "currentSeed",
      "outputs": [
        {
          "internalType": "uint256",
          "name": "",
          "type": "uint256"
        }
      ],
      "payable": false,
      "stateMutability": "view",
      "type": "function"
    },
    {
      "constant": false,
      "inputs": [
        {
          "internalType": "uint256",
          "name": "_currentSeed",
          "type": "uint256"
        }
      ],
      "name": "setCurrentSeed",
      "outputs": [],
      "payable": false,
      "stateMutability": "nonpayable",
      "type": "function"
    },
    {
      "constant": false,
      "inputs": [
        {
          "internalType": "address",
          "name": "_base",
          "type": "address"
        }
      ],
      "name": "setCoinbase",
      "outputs": [],
      "payable": false,
      "stateMutability": "nonpayable",
      "type": "function"
    },
    {
      "constant": false,
      "inputs": [
        {
          "internalType": "address",
          "name": "_address",
          "type": "address"
        }
      ],
      "name": "setSystemAddress",
      "outputs": [],
      "payable": false,
      "stateMutability": "nonpayable",
      "type": "function"
    }
  ],
  "bytecode": "0x608060405234801561001057600080fd5b5061018e806100206000396000f3fe608060405234801561001057600080fd5b506004361061004c5760003560e01c806306210197146100515780631da420cd14610079578063832206261461009f578063919cc19c146100b9575b600080fd5b6100776004803603602081101561006757600080fd5b50356001600160a01b03166100d6565b005b6100776004803603602081101561008f57600080fd5b50356001600160a01b03166100f8565b6100a761011a565b60408051918252519081900360200190f35b610077600480360360208110156100cf57600080fd5b5035610120565b600280546001600160a01b0319166001600160a01b0392909216919091179055565b600180546001600160a01b0319166001600160a01b0392909216919091179055565b60005481565b61012861014a565b6001600160a01b0316336001600160a01b03161461014557600080fd5b600055565b6002546001600160a01b03169056fea265627a7a72315820fad9167952c926f0dc1ef8e2a5aecf49561eae5400cef6c0e919fab23e8a19a064736f6c63430005110032",
  "source": "pragma solidity ^0.5.16;\n\nimport '../../contracts/RandomHbbft.sol';\n\n\ncontract RandomHbbftMock is RandomHbbft {\n\n    address internal _coinbase;\n    address internal _systemAddress;\n\n    // ============================================== Modifiers =======================================================\n\n    modifier onlySystem() {\n        require(msg.sender == _getSystemAddress());\n        _;\n    }\n\n    // =============================================== Setters ========================================================\n\n    function setCoinbase(address _base) public {\n        _coinbase = _base;\n    }\n\n    function setSystemAddress(address _address) public {\n        _systemAddress = _address;\n    }\n\n    // =============================================== Private ========================================================\n\n    function _getSystemAddress() internal view returns(address) {\n        return _systemAddress;\n    }\n}\n",
  "sourcePath": "/home/sn/dmd/dmd-meta/hbbft-posdao-contracts/contracts/mockContracts/RandomHbbftMock.sol",
  "compiler": {
    "name": "solc",
    "version": "0.5.17+commit.d19bba13.Emscripten.clang"
  },
  "schemaVersion": "3.3.1",
  "updatedAt": "2021-12-06T19:40:03.045Z",
  "devdoc": {
    "methods": {
      "setCurrentSeed(uint256)": {
        "details": "The cooperative consens mechanism in HBBFT achieves to  generate a seed, that cannot be predicted by the nodes, but can get used within smart contracts without having to wait for an additional block. this is one of the biggest benefits of HBBFT. When the nodes are able to decrypt the transaction, they know the seed, that can be used as random base for smart contract interactions. setCurrentSeed is always the first transaction within a block, and currentSeed is a public available value that can get used by all smart contracts."
      }
    }
  },
  "userdoc": {
    "methods": {}
  }
}