{
  "_format": "hh-sol-artifact-1",
  "contractName": "RandomHbbft",
  "sourceName": "contracts/RandomHbbft.sol",
  "abi": [
    {
      "inputs": [],
      "name": "currentSeed",
      "outputs": [
        {
          "internalType": "uint256",
          "name": "",
          "type": "uint256"
        }
      ],
      "stateMutability": "view",
      "type": "function"
    },
    {
      "inputs": [
        {
          "internalType": "uint256",
          "name": "_blocknumber",
          "type": "uint256"
        }
      ],
      "name": "getSeedHistoric",
      "outputs": [
        {
          "internalType": "uint256",
          "name": "",
          "type": "uint256"
        }
      ],
      "stateMutability": "view",
      "type": "function"
    },
    {
      "inputs": [
        {
          "internalType": "uint256[]",
          "name": "_blocknumbers",
          "type": "uint256[]"
        }
      ],
      "name": "getSeedsHistoric",
      "outputs": [
        {
          "internalType": "uint256[]",
          "name": "",
          "type": "uint256[]"
        }
      ],
      "stateMutability": "view",
      "type": "function"
    },
    {
      "inputs": [
        {
          "internalType": "address",
          "name": "_validatorSetContract",
          "type": "address"
        }
      ],
      "name": "initialize",
      "outputs": [],
      "stateMutability": "nonpayable",
      "type": "function"
    },
    {
      "inputs": [],
      "name": "isFullHealth",
      "outputs": [
        {
          "internalType": "bool",
          "name": "",
          "type": "bool"
        }
      ],
      "stateMutability": "view",
      "type": "function"
    },
    {
      "inputs": [
        {
          "internalType": "uint256",
          "name": "_blocknumber",
          "type": "uint256"
        }
      ],
      "name": "isFullHealthHistoric",
      "outputs": [
        {
          "internalType": "bool",
          "name": "",
          "type": "bool"
        }
      ],
      "stateMutability": "view",
      "type": "function"
    },
    {
      "inputs": [
        {
          "internalType": "uint256[]",
          "name": "_blocknumbers",
          "type": "uint256[]"
        }
      ],
      "name": "isFullHealthsHistoric",
      "outputs": [
        {
          "internalType": "bool[]",
          "name": "",
          "type": "bool[]"
        }
      ],
      "stateMutability": "view",
      "type": "function"
    },
    {
      "inputs": [
        {
          "internalType": "uint256",
          "name": "_currentSeed",
          "type": "uint256"
        }
      ],
      "name": "setCurrentSeed",
      "outputs": [],
      "stateMutability": "nonpayable",
      "type": "function"
    },
    {
      "inputs": [],
      "name": "validatorSetContract",
      "outputs": [
        {
          "internalType": "contract IValidatorSetHbbft",
          "name": "",
          "type": "address"
        }
      ],
      "stateMutability": "view",
      "type": "function"
    }
  ],
  "bytecode": "0x608060405234801561001057600080fd5b50610787806100206000396000f3fe608060405234801561001057600080fd5b50600436106100a35760003560e01c8063a49904e511610076578063d9ba8eef1161005b578063d9ba8eef14610162578063dfc8bf4e14610182578063e45006d6146101ad57600080fd5b8063a49904e514610147578063c4d66de81461014f57600080fd5b8063015e2315146100a857806330842eeb146100db578063832206261461011d578063919cc19c14610132575b600080fd5b6100c86100b63660046105a0565b60009081526001602052604090205490565b6040519081526020015b60405180910390f35b61010d6100e93660046105a0565b600881901c600090815260026020526040902054600160ff9092169190911b161590565b60405190151581526020016100d2565b436000908152600160205260409020546100c8565b6101456101403660046105a0565b6101cd565b005b61010d6102e3565b61014561015d3660046105b9565b610356565b6101756101703660046105e9565b61040f565b6040516100d2919061065e565b600354610195906001600160a01b031681565b6040516001600160a01b0390911681526020016100d2565b6101c06101bb3660046105e9565b6104c8565b6040516100d291906106a2565b73fffffffffffffffffffffffffffffffffffffffe33146102355760405162461bcd60e51b815260206004820152601a60248201527f4d7573742062652065786563757465642062792053797374656d00000000000060448201526064015b60405180910390fd5b43600090815260016020908152604091829020839055600354825163a49904e560e01b815292516001600160a01b039091169263a49904e59260048083019391928290030181865afa15801561028f573d6000803e3d6000fd5b505050506040513d601f19601f820116820180604052508101906102b391906106dc565b6102e05743600881901c60009081526002602052604090208054600160ff9093169290921b909117905550565b50565b6003546040805163a49904e560e01b815290516000926001600160a01b03169163a49904e59160048083019260209291908290030181865afa15801561032d573d6000803e3d6000fd5b505050506040513d601f19601f8201168201806040525081019061035191906106dc565b905090565b6003546001600160a01b0316156103d55760405162461bcd60e51b815260206004820152602b60248201527f52616e646f6d4862626674206d757374206e6f7420626520616c72656164792060448201527f696e697469616c697a6564000000000000000000000000000000000000000000606482015260840161022c565b600380547fffffffffffffffffffffffff0000000000000000000000000000000000000000166001600160a01b0392909216919091179055565b60608160008167ffffffffffffffff81111561042d5761042d6106fe565b604051908082528060200260200182016040528015610456578160200160208202803683370190505b50905060005b828110156104bf576001600087878481811061047a5761047a610714565b905060200201358152602001908152602001600020548282815181106104a2576104a2610714565b6020908102919091010152806104b78161072a565b91505061045c565b50949350505050565b60608160008167ffffffffffffffff8111156104e6576104e66106fe565b60405190808252806020026020018201604052801561050f578160200160208202803683370190505b50905060005b828110156104bf5761054986868381811061053257610532610714565b90506020020135600261057c90919063ffffffff16565b1582828151811061055c5761055c610714565b911515602092830291909101909101526105758161072a565b9050610515565b600881901c600090815260208390526040902054600160ff83161b16151592915050565b6000602082840312156105b257600080fd5b5035919050565b6000602082840312156105cb57600080fd5b81356001600160a01b03811681146105e257600080fd5b9392505050565b600080602083850312156105fc57600080fd5b823567ffffffffffffffff8082111561061457600080fd5b818501915085601f83011261062857600080fd5b81358181111561063757600080fd5b8660208260051b850101111561064c57600080fd5b60209290920196919550909350505050565b6020808252825182820181905260009190848201906040850190845b818110156106965783518352928401929184019160010161067a565b50909695505050505050565b6020808252825182820181905260009190848201906040850190845b818110156106965783511515835292840192918401916001016106be565b6000602082840312156106ee57600080fd5b815180151581146105e257600080fd5b634e487b7160e01b600052604160045260246000fd5b634e487b7160e01b600052603260045260246000fd5b60006001820161074a57634e487b7160e01b600052601160045260246000fd5b506001019056fea264697066735822122099e55a6eba6a6a5b509dcff09477f29af099e32cb3f491ac5d1c72a6e47482f464736f6c63430008110033",
  "linkReferences": {},
  "deployedLinkReferences": {}
}