{
  "_format": "hh-sol-artifact-1",
  "contractName": "RandomHbbftMock",
  "sourceName": "contracts/mockContracts/RandomHbbftMock.sol",
  "abi": [
    {
      "inputs": [],
      "name": "currentSeed",
      "outputs": [
        {
          "internalType": "uint256",
          "name": "",
          "type": "uint256"
        }
      ],
      "stateMutability": "view",
      "type": "function"
    },
    {
      "inputs": [
        {
          "internalType": "uint256",
          "name": "_blocknumber",
          "type": "uint256"
        }
      ],
      "name": "getSeedHistoric",
      "outputs": [
        {
          "internalType": "uint256",
          "name": "",
          "type": "uint256"
        }
      ],
      "stateMutability": "view",
      "type": "function"
    },
    {
      "inputs": [
        {
          "internalType": "uint256[]",
          "name": "_blocknumbers",
          "type": "uint256[]"
        }
      ],
      "name": "getSeedsHistoric",
      "outputs": [
        {
          "internalType": "uint256[]",
          "name": "",
          "type": "uint256[]"
        }
      ],
      "stateMutability": "view",
      "type": "function"
    },
    {
      "inputs": [
        {
          "internalType": "address",
          "name": "_validatorSetContract",
          "type": "address"
        }
      ],
      "name": "initialize",
      "outputs": [],
      "stateMutability": "nonpayable",
      "type": "function"
    },
    {
      "inputs": [],
      "name": "isFullHealth",
      "outputs": [
        {
          "internalType": "bool",
          "name": "",
          "type": "bool"
        }
      ],
      "stateMutability": "view",
      "type": "function"
    },
    {
      "inputs": [
        {
          "internalType": "uint256",
          "name": "_blocknumber",
          "type": "uint256"
        }
      ],
      "name": "isFullHealthHistoric",
      "outputs": [
        {
          "internalType": "bool",
          "name": "",
          "type": "bool"
        }
      ],
      "stateMutability": "view",
      "type": "function"
    },
    {
      "inputs": [
        {
          "internalType": "uint256[]",
          "name": "_blocknumbers",
          "type": "uint256[]"
        }
      ],
      "name": "isFullHealthsHistoric",
      "outputs": [
        {
          "internalType": "bool[]",
          "name": "",
          "type": "bool[]"
        }
      ],
      "stateMutability": "view",
      "type": "function"
    },
    {
      "inputs": [
        {
          "internalType": "address",
          "name": "_base",
          "type": "address"
        }
      ],
      "name": "setCoinbase",
      "outputs": [],
      "stateMutability": "nonpayable",
      "type": "function"
    },
    {
      "inputs": [
        {
          "internalType": "uint256",
          "name": "_currentSeed",
          "type": "uint256"
        }
      ],
      "name": "setCurrentSeed",
      "outputs": [],
      "stateMutability": "nonpayable",
      "type": "function"
    },
    {
      "inputs": [
        {
          "internalType": "address",
          "name": "_address",
          "type": "address"
        }
      ],
      "name": "setSystemAddress",
      "outputs": [],
      "stateMutability": "nonpayable",
      "type": "function"
    },
    {
      "inputs": [],
      "name": "validatorSetContract",
      "outputs": [
        {
          "internalType": "contract IValidatorSetHbbft",
          "name": "",
          "type": "address"
        }
      ],
      "stateMutability": "view",
      "type": "function"
    }
  ],
  "bytecode": "0x608060405234801561001057600080fd5b506107cf806100206000396000f3fe608060405234801561001057600080fd5b50600436106100c95760003560e01c8063919cc19c11610081578063d9ba8eef1161005b578063d9ba8eef14610202578063dfc8bf4e14610222578063e45006d61461024d57600080fd5b8063919cc19c146101d4578063a49904e5146101e7578063c4d66de8146101ef57600080fd5b80631da420cd116100b25780631da420cd1461014057806330842eeb1461017d57806383220626146101bf57600080fd5b8063015e2315146100ce5780630621019714610101575b600080fd5b6100ee6100dc3660046105e8565b60009081526001602052604090205490565b6040519081526020015b60405180910390f35b61013e61010f366004610601565b6005805473ffffffffffffffffffffffffffffffffffffffff19166001600160a01b0392909216919091179055565b005b61013e61014e366004610601565b6004805473ffffffffffffffffffffffffffffffffffffffff19166001600160a01b0392909216919091179055565b6101af61018b3660046105e8565b600881901c600090815260026020526040902054600160ff9092169190911b161590565b60405190151581526020016100f8565b436000908152600160205260409020546100ee565b61013e6101e23660046105e8565b61026d565b6101af610332565b61013e6101fd366004610601565b6103a5565b610215610210366004610631565b610457565b6040516100f891906106a6565b600354610235906001600160a01b031681565b6040516001600160a01b0390911681526020016100f8565b61026061025b366004610631565b610510565b6040516100f891906106ea565b6005546001600160a01b0316331461028457600080fd5b43600090815260016020908152604091829020839055600354825163a49904e560e01b815292516001600160a01b039091169263a49904e59260048083019391928290030181865afa1580156102de573d6000803e3d6000fd5b505050506040513d601f19601f820116820180604052508101906103029190610724565b61032f5743600881901c60009081526002602052604090208054600160ff9093169290921b909117905550565b50565b6003546040805163a49904e560e01b815290516000926001600160a01b03169163a49904e59160048083019260209291908290030181865afa15801561037c573d6000803e3d6000fd5b505050506040513d601f19601f820116820180604052508101906103a09190610724565b905090565b6003546001600160a01b0316156104285760405162461bcd60e51b815260206004820152602b60248201527f52616e646f6d4862626674206d757374206e6f7420626520616c72656164792060448201527f696e697469616c697a6564000000000000000000000000000000000000000000606482015260840160405180910390fd5b6003805473ffffffffffffffffffffffffffffffffffffffff19166001600160a01b0392909216919091179055565b60608160008167ffffffffffffffff81111561047557610475610746565b60405190808252806020026020018201604052801561049e578160200160208202803683370190505b50905060005b8281101561050757600160008787848181106104c2576104c261075c565b905060200201358152602001908152602001600020548282815181106104ea576104ea61075c565b6020908102919091010152806104ff81610772565b9150506104a4565b50949350505050565b60608160008167ffffffffffffffff81111561052e5761052e610746565b604051908082528060200260200182016040528015610557578160200160208202803683370190505b50905060005b828110156105075761059186868381811061057a5761057a61075c565b9050602002013560026105c490919063ffffffff16565b158282815181106105a4576105a461075c565b911515602092830291909101909101526105bd81610772565b905061055d565b600881901c600090815260208390526040902054600160ff83161b16151592915050565b6000602082840312156105fa57600080fd5b5035919050565b60006020828403121561061357600080fd5b81356001600160a01b038116811461062a57600080fd5b9392505050565b6000806020838503121561064457600080fd5b823567ffffffffffffffff8082111561065c57600080fd5b818501915085601f83011261067057600080fd5b81358181111561067f57600080fd5b8660208260051b850101111561069457600080fd5b60209290920196919550909350505050565b6020808252825182820181905260009190848201906040850190845b818110156106de578351835292840192918401916001016106c2565b50909695505050505050565b6020808252825182820181905260009190848201906040850190845b818110156106de578351151583529284019291840191600101610706565b60006020828403121561073657600080fd5b8151801515811461062a57600080fd5b634e487b7160e01b600052604160045260246000fd5b634e487b7160e01b600052603260045260246000fd5b60006001820161079257634e487b7160e01b600052601160045260246000fd5b506001019056fea2646970667358221220c4855ab993c36c3825d4f85f454f4fe41ae86a97e107dd25ab3b2ca59c33e54b64736f6c63430008110033",
  "linkReferences": {},
  "deployedLinkReferences": {}
}