{
  "_format": "hh-sol-artifact-1",
  "contractName": "RandomHbbft",
  "sourceName": "contracts/RandomHbbft.sol",
  "abi": [
    {
      "inputs": [],
      "name": "currentSeed",
      "outputs": [
        {
          "internalType": "uint256",
          "name": "",
          "type": "uint256"
        }
      ],
      "stateMutability": "view",
      "type": "function"
    },
    {
      "inputs": [
        {
          "internalType": "uint256",
          "name": "_blocknumber",
          "type": "uint256"
        }
      ],
      "name": "getSeedHistoric",
      "outputs": [
        {
          "internalType": "uint256",
          "name": "",
          "type": "uint256"
        }
      ],
      "stateMutability": "view",
      "type": "function"
    },
    {
      "inputs": [
        {
          "internalType": "uint256[]",
          "name": "_blocknumbers",
          "type": "uint256[]"
        }
      ],
      "name": "getSeedsHistoric",
      "outputs": [
        {
          "internalType": "uint256[]",
          "name": "",
          "type": "uint256[]"
        }
      ],
      "stateMutability": "view",
      "type": "function"
    },
    {
      "inputs": [
        {
          "internalType": "address",
          "name": "_validatorSet",
          "type": "address"
        }
      ],
      "name": "initialize",
      "outputs": [],
      "stateMutability": "nonpayable",
      "type": "function"
    },
    {
      "inputs": [],
      "name": "isFullHealth",
      "outputs": [
        {
          "internalType": "bool",
          "name": "",
          "type": "bool"
        }
      ],
      "stateMutability": "view",
      "type": "function"
    },
    {
      "inputs": [
        {
          "internalType": "uint256",
          "name": "_blocknumber",
          "type": "uint256"
        }
      ],
      "name": "isFullHealthHistoric",
      "outputs": [
        {
          "internalType": "bool",
          "name": "",
          "type": "bool"
        }
      ],
      "stateMutability": "view",
      "type": "function"
    },
    {
      "inputs": [
        {
          "internalType": "uint256[]",
          "name": "_blocknumbers",
          "type": "uint256[]"
        }
      ],
      "name": "isFullHealthsHistoric",
      "outputs": [
        {
          "internalType": "bool[]",
          "name": "",
          "type": "bool[]"
        }
      ],
      "stateMutability": "view",
      "type": "function"
    },
    {
      "inputs": [],
      "name": "isInitialized",
      "outputs": [
        {
          "internalType": "bool",
          "name": "",
          "type": "bool"
        }
      ],
      "stateMutability": "view",
      "type": "function"
    },
    {
      "inputs": [
        {
          "internalType": "uint256",
          "name": "_currentSeed",
          "type": "uint256"
        }
      ],
      "name": "setCurrentSeed",
      "outputs": [],
      "stateMutability": "nonpayable",
      "type": "function"
    },
    {
      "inputs": [],
      "name": "validatorSetContract",
      "outputs": [
        {
          "internalType": "contract IValidatorSetHbbft",
          "name": "",
          "type": "address"
        }
      ],
      "stateMutability": "view",
      "type": "function"
    }
  ],
  "bytecode": "0x608060405234801561001057600080fd5b50610912806100206000396000f3fe608060405234801561001057600080fd5b50600436106100be5760003560e01c8063a49904e511610076578063d9ba8eef1161005b578063d9ba8eef14610190578063dfc8bf4e146101b0578063e45006d6146101db57600080fd5b8063a49904e514610175578063c4d66de81461017d57600080fd5b8063392e53cd116100a7578063392e53cd14610138578063832206261461014b578063919cc19c1461016057600080fd5b8063015e2315146100c357806330842eeb146100f6575b600080fd5b6100e36100d136600461072b565b60009081526001602052604090205490565b6040519081526020015b60405180910390f35b61012861010436600461072b565b600881901c600090815260026020526040902054600160ff9092169190911b161590565b60405190151581526020016100ed565b6003546001600160a01b03161515610128565b436000908152600160205260409020546100e3565b61017361016e36600461072b565b6101fb565b005b610128610311565b61017361018b366004610744565b610384565b6101a361019e366004610774565b61059a565b6040516100ed91906107e9565b6003546101c3906001600160a01b031681565b6040516001600160a01b0390911681526020016100ed565b6101ee6101e9366004610774565b610653565b6040516100ed919061082d565b73fffffffffffffffffffffffffffffffffffffffe33146102635760405162461bcd60e51b815260206004820152601a60248201527f4d7573742062652065786563757465642062792053797374656d00000000000060448201526064015b60405180910390fd5b43600090815260016020908152604091829020839055600354825163a49904e560e01b815292516001600160a01b039091169263a49904e59260048083019391928290030181865afa1580156102bd573d6000803e3d6000fd5b505050506040513d601f19601f820116820180604052508101906102e19190610867565b61030e5743600881901c60009081526002602052604090208054600160ff9093169290921b909117905550565b50565b6003546040805163a49904e560e01b815290516000926001600160a01b03169163a49904e59160048083019260209291908290030181865afa15801561035b573d6000803e3d6000fd5b505050506040513d601f19601f8201168201806040525081019061037f9190610867565b905090565b7fb53127684a568b3173ae13b9f8a6016e243e63b6e8ee1178d6a717850b5d6103546001600160a01b0316336001600160a01b031614806103f757507fb53127684a568b3173ae13b9f8a6016e243e63b6e8ee1178d6a717850b5d6103546001600160a01b0316326001600160a01b0316145b8061042a57507fb53127684a568b3173ae13b9f8a6016e243e63b6e8ee1178d6a717850b5d6103546001600160a01b0316155b80610433575043155b6104a55760405162461bcd60e51b815260206004820152603060248201527f496e697469616c697a6174696f6e206f6e6c79206f6e2067656e65736973206260448201527f6c6f636b206f722062792061646d696e00000000000000000000000000000000606482015260840161025a565b6003546001600160a01b03161561050a5760405162461bcd60e51b8152602060048201526024808201527f696e697469616c697a6174696f6e2063616e206f6e6c7920626520646f6e65206044820152636f6e636560e01b606482015260840161025a565b6001600160a01b0381166105605760405162461bcd60e51b815260206004820152601a60248201527f56616c696461746f72536574206d757374206e6f742062652030000000000000604482015260640161025a565b600380547fffffffffffffffffffffffff0000000000000000000000000000000000000000166001600160a01b0392909216919091179055565b60608160008167ffffffffffffffff8111156105b8576105b8610889565b6040519080825280602002602001820160405280156105e1578160200160208202803683370190505b50905060005b8281101561064a57600160008787848181106106055761060561089f565b9050602002013581526020019081526020016000205482828151811061062d5761062d61089f565b602090810291909101015280610642816108b5565b9150506105e7565b50949350505050565b60608160008167ffffffffffffffff81111561067157610671610889565b60405190808252806020026020018201604052801561069a578160200160208202803683370190505b50905060005b8281101561064a576106d48686838181106106bd576106bd61089f565b90506020020135600261070790919063ffffffff16565b158282815181106106e7576106e761089f565b91151560209283029190910190910152610700816108b5565b90506106a0565b600881901c600090815260208390526040902054600160ff83161b16151592915050565b60006020828403121561073d57600080fd5b5035919050565b60006020828403121561075657600080fd5b81356001600160a01b038116811461076d57600080fd5b9392505050565b6000806020838503121561078757600080fd5b823567ffffffffffffffff8082111561079f57600080fd5b818501915085601f8301126107b357600080fd5b8135818111156107c257600080fd5b8660208260051b85010111156107d757600080fd5b60209290920196919550909350505050565b6020808252825182820181905260009190848201906040850190845b8181101561082157835183529284019291840191600101610805565b50909695505050505050565b6020808252825182820181905260009190848201906040850190845b81811015610821578351151583529284019291840191600101610849565b60006020828403121561087957600080fd5b8151801515811461076d57600080fd5b634e487b7160e01b600052604160045260246000fd5b634e487b7160e01b600052603260045260246000fd5b6000600182016108d557634e487b7160e01b600052601160045260246000fd5b506001019056fea2646970667358221220621d01735dfb779da6b902599c3005315b287680dd8f4a1764a5714daaeb7b7e64736f6c63430008110033",
  "linkReferences": {},
  "deployedLinkReferences": {}
}