{
  "_format": "hh-sol-artifact-1",
  "contractName": "RandomHbbftMock",
  "sourceName": "contracts/mockContracts/RandomHbbftMock.sol",
  "abi": [
    {
      "inputs": [],
      "name": "currentSeed",
      "outputs": [
        {
          "internalType": "uint256",
          "name": "",
          "type": "uint256"
        }
      ],
      "stateMutability": "view",
      "type": "function"
    },
    {
      "inputs": [
        {
          "internalType": "uint256",
          "name": "_blocknumber",
          "type": "uint256"
        }
      ],
      "name": "getSeedHistoric",
      "outputs": [
        {
          "internalType": "uint256",
          "name": "",
          "type": "uint256"
        }
      ],
      "stateMutability": "view",
      "type": "function"
    },
    {
      "inputs": [
        {
          "internalType": "uint256[]",
          "name": "_blocknumbers",
          "type": "uint256[]"
        }
      ],
      "name": "getSeedsHistoric",
      "outputs": [
        {
          "internalType": "uint256[]",
          "name": "",
          "type": "uint256[]"
        }
      ],
      "stateMutability": "view",
      "type": "function"
    },
    {
      "inputs": [
        {
          "internalType": "address",
          "name": "_validatorSetContract",
          "type": "address"
        }
      ],
      "name": "initialize",
      "outputs": [],
      "stateMutability": "nonpayable",
      "type": "function"
    },
    {
      "inputs": [],
      "name": "isFullHealth",
      "outputs": [
        {
          "internalType": "bool",
          "name": "",
          "type": "bool"
        }
      ],
      "stateMutability": "view",
      "type": "function"
    },
    {
      "inputs": [
        {
          "internalType": "uint256[]",
          "name": "_blocknumbers",
          "type": "uint256[]"
        }
      ],
      "name": "isFullHealthHistoric",
      "outputs": [
        {
          "internalType": "bool[]",
          "name": "",
          "type": "bool[]"
        }
      ],
      "stateMutability": "view",
      "type": "function"
    },
    {
      "inputs": [
        {
          "internalType": "address",
          "name": "_base",
          "type": "address"
        }
      ],
      "name": "setCoinbase",
      "outputs": [],
      "stateMutability": "nonpayable",
      "type": "function"
    },
    {
      "inputs": [
        {
          "internalType": "uint256",
          "name": "_currentSeed",
          "type": "uint256"
        }
      ],
      "name": "setCurrentSeed",
      "outputs": [],
      "stateMutability": "nonpayable",
      "type": "function"
    },
    {
      "inputs": [
        {
          "internalType": "address",
          "name": "_address",
          "type": "address"
        }
      ],
      "name": "setSystemAddress",
      "outputs": [],
      "stateMutability": "nonpayable",
      "type": "function"
    },
    {
      "inputs": [],
      "name": "validatorSetContract",
      "outputs": [
        {
          "internalType": "contract IValidatorSetHbbft",
          "name": "",
          "type": "address"
        }
      ],
      "stateMutability": "view",
      "type": "function"
    }
  ],
  "bytecode": "0x608060405234801561001057600080fd5b5061070a806100206000396000f3fe608060405234801561001057600080fd5b50600436106100be5760003560e01c8063919cc19c11610076578063c4d66de81161005b578063c4d66de8146101d2578063d9ba8eef1461020f578063dfc8bf4e1461022f57600080fd5b8063919cc19c146101a7578063a49904e5146101ba57600080fd5b80631da420cd116100a75780631da420cd146101355780637e2cb34d14610172578063832206261461019257600080fd5b8063015e2315146100c357806306210197146100f6575b600080fd5b6100e36100d1366004610523565b60009081526001602052604090205490565b6040519081526020015b60405180910390f35b61013361010436600461053c565b6005805473ffffffffffffffffffffffffffffffffffffffff19166001600160a01b0392909216919091179055565b005b61013361014336600461053c565b6004805473ffffffffffffffffffffffffffffffffffffffff19166001600160a01b0392909216919091179055565b61018561018036600461056c565b61025a565b6040516100ed91906105e1565b436000908152600160205260409020546100e3565b6101336101b5366004610523565b610317565b6101c26103dc565b60405190151581526020016100ed565b6101336101e036600461053c565b6003805473ffffffffffffffffffffffffffffffffffffffff19166001600160a01b0392909216919091179055565b61022261021d36600461056c565b61044f565b6040516100ed9190610627565b600354610242906001600160a01b031681565b6040516001600160a01b0390911681526020016100ed565b60608160008167ffffffffffffffff8111156102785761027861065f565b6040519080825280602002602001820160405280156102a1578160200160208202803683370190505b50905060005b8281101561030e576102db8686838181106102c4576102c4610675565b9050602002013560026104ff90919063ffffffff16565b158282815181106102ee576102ee610675565b911515602092830291909101909101526103078161068b565b90506102a7565b50949350505050565b6005546001600160a01b0316331461032e57600080fd5b43600090815260016020908152604091829020839055600354825163a49904e560e01b815292516001600160a01b039091169263a49904e59260048083019391928290030181865afa158015610388573d6000803e3d6000fd5b505050506040513d601f19601f820116820180604052508101906103ac91906106b2565b6103d95743600881901c60009081526002602052604090208054600160ff9093169290921b909117905550565b50565b6003546040805163a49904e560e01b815290516000926001600160a01b03169163a49904e59160048083019260209291908290030181865afa158015610426573d6000803e3d6000fd5b505050506040513d601f19601f8201168201806040525081019061044a91906106b2565b905090565b60608160008167ffffffffffffffff81111561046d5761046d61065f565b604051908082528060200260200182016040528015610496578160200160208202803683370190505b50905060005b8281101561030e57600160008787848181106104ba576104ba610675565b905060200201358152602001908152602001600020548282815181106104e2576104e2610675565b6020908102919091010152806104f78161068b565b91505061049c565b600881901c600090815260208390526040902054600160ff83161b16151592915050565b60006020828403121561053557600080fd5b5035919050565b60006020828403121561054e57600080fd5b81356001600160a01b038116811461056557600080fd5b9392505050565b6000806020838503121561057f57600080fd5b823567ffffffffffffffff8082111561059757600080fd5b818501915085601f8301126105ab57600080fd5b8135818111156105ba57600080fd5b8660208260051b85010111156105cf57600080fd5b60209290920196919550909350505050565b6020808252825182820181905260009190848201906040850190845b8181101561061b5783511515835292840192918401916001016105fd565b50909695505050505050565b6020808252825182820181905260009190848201906040850190845b8181101561061b57835183529284019291840191600101610643565b634e487b7160e01b600052604160045260246000fd5b634e487b7160e01b600052603260045260246000fd5b6000600182016106ab57634e487b7160e01b600052601160045260246000fd5b5060010190565b6000602082840312156106c457600080fd5b8151801515811461056557600080fdfea2646970667358221220c38ad8e5d5948a8c075ef513ba7a93f1aa91e43dcd816a904aa495a5abcf185a64736f6c63430008110033",
  "linkReferences": {},
  "deployedLinkReferences": {}
}