{
  "_format": "hh-sol-artifact-1",
  "contractName": "RandomHbbft",
  "sourceName": "contracts/RandomHbbft.sol",
  "abi": [
    {
      "inputs": [],
      "name": "currentSeed",
      "outputs": [
        {
          "internalType": "uint256",
          "name": "",
          "type": "uint256"
        }
      ],
      "stateMutability": "view",
      "type": "function"
    },
    {
      "inputs": [
        {
          "internalType": "uint256",
          "name": "_blocknumber",
          "type": "uint256"
        }
      ],
      "name": "getSeedHistoric",
      "outputs": [
        {
          "internalType": "uint256",
          "name": "",
          "type": "uint256"
        }
      ],
      "stateMutability": "view",
      "type": "function"
    },
    {
      "inputs": [
        {
          "internalType": "uint256[]",
          "name": "_blocknumbers",
          "type": "uint256[]"
        }
      ],
      "name": "getSeedsHistoric",
      "outputs": [
        {
          "internalType": "uint256[]",
          "name": "",
          "type": "uint256[]"
        }
      ],
      "stateMutability": "view",
      "type": "function"
    },
    {
      "inputs": [
        {
          "internalType": "address",
          "name": "_validatorSetContract",
          "type": "address"
        }
      ],
      "name": "initialize",
      "outputs": [],
      "stateMutability": "nonpayable",
      "type": "function"
    },
    {
      "inputs": [],
      "name": "isFullHealth",
      "outputs": [
        {
          "internalType": "bool",
          "name": "",
          "type": "bool"
        }
      ],
      "stateMutability": "view",
      "type": "function"
    },
    {
      "inputs": [
        {
          "internalType": "uint256[]",
          "name": "_blocknumbers",
          "type": "uint256[]"
        }
      ],
      "name": "isFullHealthHistoric",
      "outputs": [
        {
          "internalType": "bool[]",
          "name": "",
          "type": "bool[]"
        }
      ],
      "stateMutability": "view",
      "type": "function"
    },
    {
      "inputs": [
        {
          "internalType": "uint256",
          "name": "_currentSeed",
          "type": "uint256"
        }
      ],
      "name": "setCurrentSeed",
      "outputs": [],
      "stateMutability": "nonpayable",
      "type": "function"
    },
    {
      "inputs": [],
      "name": "validatorSetContract",
      "outputs": [
        {
          "internalType": "contract IValidatorSetHbbft",
          "name": "",
          "type": "address"
        }
      ],
      "stateMutability": "view",
      "type": "function"
    }
  ],
  "bytecode": "0x608060405234801561001057600080fd5b506106b5806100206000396000f3fe608060405234801561001057600080fd5b50600436106100885760003560e01c8063a49904e51161005b578063a49904e51461010a578063c4d66de814610122578063d9ba8eef1461016a578063dfc8bf4e1461018a57600080fd5b8063015e23151461008d5780637e2cb34d146100c057806383220626146100e0578063919cc19c146100f5575b600080fd5b6100ad61009b3660046104ce565b60009081526001602052604090205490565b6040519081526020015b60405180910390f35b6100d36100ce3660046104e7565b6101b5565b6040516100b7919061055c565b436000908152600160205260409020546100ad565b6101086101033660046104ce565b610272565b005b610112610387565b60405190151581526020016100b7565b6101086101303660046105a2565b600380547fffffffffffffffffffffffff0000000000000000000000000000000000000000166001600160a01b0392909216919091179055565b61017d6101783660046104e7565b6103fa565b6040516100b791906105d2565b60035461019d906001600160a01b031681565b6040516001600160a01b0390911681526020016100b7565b60608160008167ffffffffffffffff8111156101d3576101d361060a565b6040519080825280602002602001820160405280156101fc578160200160208202803683370190505b50905060005b828110156102695761023686868381811061021f5761021f610620565b9050602002013560026104aa90919063ffffffff16565b1582828151811061024957610249610620565b9115156020928302919091019091015261026281610636565b9050610202565b50949350505050565b73fffffffffffffffffffffffffffffffffffffffe33146102d95760405162461bcd60e51b815260206004820152601a60248201527f4d7573742062652065786563757465642062792053797374656d000000000000604482015260640160405180910390fd5b43600090815260016020908152604091829020839055600354825163a49904e560e01b815292516001600160a01b039091169263a49904e59260048083019391928290030181865afa158015610333573d6000803e3d6000fd5b505050506040513d601f19601f82011682018060405250810190610357919061065d565b6103845743600881901c60009081526002602052604090208054600160ff9093169290921b909117905550565b50565b6003546040805163a49904e560e01b815290516000926001600160a01b03169163a49904e59160048083019260209291908290030181865afa1580156103d1573d6000803e3d6000fd5b505050506040513d601f19601f820116820180604052508101906103f5919061065d565b905090565b60608160008167ffffffffffffffff8111156104185761041861060a565b604051908082528060200260200182016040528015610441578160200160208202803683370190505b50905060005b82811015610269576001600087878481811061046557610465610620565b9050602002013581526020019081526020016000205482828151811061048d5761048d610620565b6020908102919091010152806104a281610636565b915050610447565b600881901c600090815260208390526040902054600160ff83161b16151592915050565b6000602082840312156104e057600080fd5b5035919050565b600080602083850312156104fa57600080fd5b823567ffffffffffffffff8082111561051257600080fd5b818501915085601f83011261052657600080fd5b81358181111561053557600080fd5b8660208260051b850101111561054a57600080fd5b60209290920196919550909350505050565b6020808252825182820181905260009190848201906040850190845b81811015610596578351151583529284019291840191600101610578565b50909695505050505050565b6000602082840312156105b457600080fd5b81356001600160a01b03811681146105cb57600080fd5b9392505050565b6020808252825182820181905260009190848201906040850190845b81811015610596578351835292840192918401916001016105ee565b634e487b7160e01b600052604160045260246000fd5b634e487b7160e01b600052603260045260246000fd5b60006001820161065657634e487b7160e01b600052601160045260246000fd5b5060010190565b60006020828403121561066f57600080fd5b815180151581146105cb57600080fdfea264697066735822122097e1e099bfb3b26c8a60a2e6395ff07e767b3a02b7829d00bf3fbc8fd015452464736f6c63430008110033",
  "linkReferences": {},
  "deployedLinkReferences": {}
}