{
  "contractName": "Registry",
  "abi": [
    {
      "inputs": [
        {
          "internalType": "address",
          "name": "_certifierContract",
          "type": "address"
        },
        {
          "internalType": "address",
          "name": "_owner",
          "type": "address"
        }
      ],
      "payable": false,
      "stateMutability": "nonpayable",
      "type": "constructor"
    },
    {
      "anonymous": false,
      "inputs": [
        {
          "indexed": true,
          "internalType": "bytes32",
          "name": "name",
          "type": "bytes32"
        },
        {
          "indexed": false,
          "internalType": "string",
          "name": "key",
          "type": "string"
        },
        {
          "indexed": false,
          "internalType": "string",
          "name": "plainKey",
          "type": "string"
        }
      ],
      "name": "DataChanged",
      "type": "event"
    },
    {
      "anonymous": false,
      "inputs": [
        {
          "indexed": false,
          "internalType": "uint256",
          "name": "amount",
          "type": "uint256"
        }
      ],
      "name": "Drained",
      "type": "event"
    },
    {
      "anonymous": false,
      "inputs": [
        {
          "indexed": true,
          "internalType": "bytes32",
          "name": "name",
          "type": "bytes32"
        },
        {
          "indexed": true,
          "internalType": "address",
          "name": "owner",
          "type": "address"
        }
      ],
      "name": "Dropped",
      "type": "event"
    },
    {
      "anonymous": false,
      "inputs": [
        {
          "indexed": false,
          "internalType": "uint256",
          "name": "amount",
          "type": "uint256"
        }
      ],
      "name": "FeeChanged",
      "type": "event"
    },
    {
      "anonymous": false,
      "inputs": [
        {
          "indexed": true,
          "internalType": "address",
          "name": "old",
          "type": "address"
        },
        {
          "indexed": true,
          "internalType": "address",
          "name": "current",
          "type": "address"
        }
      ],
      "name": "NewOwner",
      "type": "event"
    },
    {
      "anonymous": false,
      "inputs": [
        {
          "indexed": true,
          "internalType": "bytes32",
          "name": "name",
          "type": "bytes32"
        },
        {
          "indexed": true,
          "internalType": "address",
          "name": "owner",
          "type": "address"
        }
      ],
      "name": "Reserved",
      "type": "event"
    },
    {
      "anonymous": false,
      "inputs": [
        {
          "indexed": false,
          "internalType": "string",
          "name": "name",
          "type": "string"
        },
        {
          "indexed": true,
          "internalType": "address",
          "name": "reverse",
          "type": "address"
        }
      ],
      "name": "ReverseConfirmed",
      "type": "event"
    },
    {
      "anonymous": false,
      "inputs": [
        {
          "indexed": false,
          "internalType": "string",
          "name": "name",
          "type": "string"
        },
        {
          "indexed": true,
          "internalType": "address",
          "name": "reverse",
          "type": "address"
        }
      ],
      "name": "ReverseProposed",
      "type": "event"
    },
    {
      "anonymous": false,
      "inputs": [
        {
          "indexed": false,
          "internalType": "string",
          "name": "name",
          "type": "string"
        },
        {
          "indexed": true,
          "internalType": "address",
          "name": "reverse",
          "type": "address"
        }
      ],
      "name": "ReverseRemoved",
      "type": "event"
    },
    {
      "anonymous": false,
      "inputs": [
        {
          "indexed": true,
          "internalType": "bytes32",
          "name": "name",
          "type": "bytes32"
        },
        {
          "indexed": true,
          "internalType": "address",
          "name": "oldOwner",
          "type": "address"
        },
        {
          "indexed": true,
          "internalType": "address",
          "name": "newOwner",
          "type": "address"
        }
      ],
      "name": "Transferred",
      "type": "event"
    },
    {
      "constant": true,
      "inputs": [],
      "name": "fee",
      "outputs": [
        {
          "internalType": "uint256",
          "name": "",
          "type": "uint256"
        }
      ],
      "payable": false,
      "stateMutability": "view",
      "type": "function"
    },
    {
      "constant": true,
      "inputs": [],
      "name": "owner",
      "outputs": [
        {
          "internalType": "address",
          "name": "",
          "type": "address"
        }
      ],
      "payable": false,
      "stateMutability": "view",
      "type": "function"
    },
    {
      "constant": false,
      "inputs": [
        {
          "internalType": "address",
          "name": "_new",
          "type": "address"
        }
      ],
      "name": "setOwner",
      "outputs": [],
      "payable": false,
      "stateMutability": "nonpayable",
      "type": "function"
    },
    {
      "constant": false,
      "inputs": [
        {
          "internalType": "bytes32",
          "name": "_name",
          "type": "bytes32"
        }
      ],
      "name": "reserve",
      "outputs": [
        {
          "internalType": "bool",
          "name": "success",
          "type": "bool"
        }
      ],
      "payable": true,
      "stateMutability": "payable",
      "type": "function"
    },
    {
      "constant": false,
      "inputs": [
        {
          "internalType": "bytes32",
          "name": "_name",
          "type": "bytes32"
        },
        {
          "internalType": "address",
          "name": "_to",
          "type": "address"
        }
      ],
      "name": "transfer",
      "outputs": [
        {
          "internalType": "bool",
          "name": "success",
          "type": "bool"
        }
      ],
      "payable": false,
      "stateMutability": "nonpayable",
      "type": "function"
    },
    {
      "constant": false,
      "inputs": [
        {
          "internalType": "bytes32",
          "name": "_name",
          "type": "bytes32"
        }
      ],
      "name": "drop",
      "outputs": [
        {
          "internalType": "bool",
          "name": "success",
          "type": "bool"
        }
      ],
      "payable": false,
      "stateMutability": "nonpayable",
      "type": "function"
    },
    {
      "constant": false,
      "inputs": [
        {
          "internalType": "bytes32",
          "name": "_name",
          "type": "bytes32"
        },
        {
          "internalType": "string",
          "name": "_key",
          "type": "string"
        },
        {
          "internalType": "bytes32",
          "name": "_value",
          "type": "bytes32"
        }
      ],
      "name": "setData",
      "outputs": [
        {
          "internalType": "bool",
          "name": "success",
          "type": "bool"
        }
      ],
      "payable": false,
      "stateMutability": "nonpayable",
      "type": "function"
    },
    {
      "constant": false,
      "inputs": [
        {
          "internalType": "bytes32",
          "name": "_name",
          "type": "bytes32"
        },
        {
          "internalType": "string",
          "name": "_key",
          "type": "string"
        },
        {
          "internalType": "address",
          "name": "_value",
          "type": "address"
        }
      ],
      "name": "setAddress",
      "outputs": [
        {
          "internalType": "bool",
          "name": "success",
          "type": "bool"
        }
      ],
      "payable": false,
      "stateMutability": "nonpayable",
      "type": "function"
    },
    {
      "constant": false,
      "inputs": [
        {
          "internalType": "bytes32",
          "name": "_name",
          "type": "bytes32"
        },
        {
          "internalType": "string",
          "name": "_key",
          "type": "string"
        },
        {
          "internalType": "uint256",
          "name": "_value",
          "type": "uint256"
        }
      ],
      "name": "setUint",
      "outputs": [
        {
          "internalType": "bool",
          "name": "success",
          "type": "bool"
        }
      ],
      "payable": false,
      "stateMutability": "nonpayable",
      "type": "function"
    },
    {
      "constant": false,
      "inputs": [
        {
          "internalType": "string",
          "name": "_name",
          "type": "string"
        },
        {
          "internalType": "address",
          "name": "_who",
          "type": "address"
        }
      ],
      "name": "proposeReverse",
      "outputs": [
        {
          "internalType": "bool",
          "name": "success",
          "type": "bool"
        }
      ],
      "payable": false,
      "stateMutability": "nonpayable",
      "type": "function"
    },
    {
      "constant": false,
      "inputs": [
        {
          "internalType": "string",
          "name": "_name",
          "type": "string"
        }
      ],
      "name": "confirmReverse",
      "outputs": [
        {
          "internalType": "bool",
          "name": "success",
          "type": "bool"
        }
      ],
      "payable": false,
      "stateMutability": "nonpayable",
      "type": "function"
    },
    {
      "constant": false,
      "inputs": [
        {
          "internalType": "string",
          "name": "_name",
          "type": "string"
        },
        {
          "internalType": "address",
          "name": "_who",
          "type": "address"
        }
      ],
      "name": "confirmReverseAs",
      "outputs": [
        {
          "internalType": "bool",
          "name": "success",
          "type": "bool"
        }
      ],
      "payable": false,
      "stateMutability": "nonpayable",
      "type": "function"
    },
    {
      "constant": false,
      "inputs": [],
      "name": "removeReverse",
      "outputs": [],
      "payable": false,
      "stateMutability": "nonpayable",
      "type": "function"
    },
    {
      "constant": false,
      "inputs": [
        {
          "internalType": "uint256",
          "name": "_amount",
          "type": "uint256"
        }
      ],
      "name": "setFee",
      "outputs": [
        {
          "internalType": "bool",
          "name": "",
          "type": "bool"
        }
      ],
      "payable": false,
      "stateMutability": "nonpayable",
      "type": "function"
    },
    {
      "constant": false,
      "inputs": [],
      "name": "drain",
      "outputs": [
        {
          "internalType": "bool",
          "name": "",
          "type": "bool"
        }
      ],
      "payable": false,
      "stateMutability": "nonpayable",
      "type": "function"
    },
    {
      "constant": true,
      "inputs": [
        {
          "internalType": "bytes32",
          "name": "_name",
          "type": "bytes32"
        },
        {
          "internalType": "string",
          "name": "_key",
          "type": "string"
        }
      ],
      "name": "getData",
      "outputs": [
        {
          "internalType": "bytes32",
          "name": "",
          "type": "bytes32"
        }
      ],
      "payable": false,
      "stateMutability": "view",
      "type": "function"
    },
    {
      "constant": true,
      "inputs": [
        {
          "internalType": "bytes32",
          "name": "_name",
          "type": "bytes32"
        },
        {
          "internalType": "string",
          "name": "_key",
          "type": "string"
        }
      ],
      "name": "getAddress",
      "outputs": [
        {
          "internalType": "address",
          "name": "",
          "type": "address"
        }
      ],
      "payable": false,
      "stateMutability": "view",
      "type": "function"
    },
    {
      "constant": true,
      "inputs": [
        {
          "internalType": "bytes32",
          "name": "_name",
          "type": "bytes32"
        },
        {
          "internalType": "string",
          "name": "_key",
          "type": "string"
        }
      ],
      "name": "getUint",
      "outputs": [
        {
          "internalType": "uint256",
          "name": "",
          "type": "uint256"
        }
      ],
      "payable": false,
      "stateMutability": "view",
      "type": "function"
    },
    {
      "constant": true,
      "inputs": [
        {
          "internalType": "bytes32",
          "name": "_name",
          "type": "bytes32"
        }
      ],
      "name": "getOwner",
      "outputs": [
        {
          "internalType": "address",
          "name": "",
          "type": "address"
        }
      ],
      "payable": false,
      "stateMutability": "view",
      "type": "function"
    },
    {
      "constant": true,
      "inputs": [
        {
          "internalType": "bytes32",
          "name": "_name",
          "type": "bytes32"
        }
      ],
      "name": "hasReverse",
      "outputs": [
        {
          "internalType": "bool",
          "name": "",
          "type": "bool"
        }
      ],
      "payable": false,
      "stateMutability": "view",
      "type": "function"
    },
    {
      "constant": true,
      "inputs": [
        {
          "internalType": "bytes32",
          "name": "_name",
          "type": "bytes32"
        }
      ],
      "name": "getReverse",
      "outputs": [
        {
          "internalType": "address",
          "name": "",
          "type": "address"
        }
      ],
      "payable": false,
      "stateMutability": "view",
      "type": "function"
    },
    {
      "constant": true,
      "inputs": [
        {
          "internalType": "address",
          "name": "_data",
          "type": "address"
        }
      ],
      "name": "canReverse",
      "outputs": [
        {
          "internalType": "bool",
          "name": "",
          "type": "bool"
        }
      ],
      "payable": false,
      "stateMutability": "view",
      "type": "function"
    },
    {
      "constant": true,
      "inputs": [
        {
          "internalType": "address",
          "name": "_data",
          "type": "address"
        }
      ],
      "name": "reverse",
      "outputs": [
        {
          "internalType": "string",
          "name": "",
          "type": "string"
        }
      ],
      "payable": false,
      "stateMutability": "view",
      "type": "function"
    },
    {
      "constant": true,
      "inputs": [
        {
          "internalType": "bytes32",
          "name": "_name",
          "type": "bytes32"
        }
      ],
      "name": "reserved",
      "outputs": [
        {
          "internalType": "bool",
          "name": "",
          "type": "bool"
        }
      ],
      "payable": false,
      "stateMutability": "view",
      "type": "function"
    }
  ],
  "bytecode": "0x6080604052600080546001600160a01b03191633179055670de0b6b3a764000060035534801561002e57600080fd5b5060405161219a38038061219a8339818101604052604081101561005157600080fd5b5080516020909101516001600160a01b03821661006d57600080fd5b604080517f736572766963655f7472616e73616374696f6e5f636865636b657200000000008152905190819003601b019020336001600160a01b038316156100cd5750600080546001600160a01b0319166001600160a01b038416179055815b600082815260016020819052604080832080546001600160a01b0386166001600160a01b0319909116811782558251604160f81b815260029092019382019390935290519081900360210181206001600160601b0319606089901b169055909184917f4963513eca575aba66fdcd25f267aae85958fe6fb97e75fa25d783f1a091a2219190a3604080518181526001818301819052604160f81b6060830181905260806020840181905283019190915260a0820152905183917fb829c3e412537bbe794c048ccb9e4605bb4aaaa8e4d4c15c1a6e0c2adc1716ea919081900360c00190a250505050611fd6806101c46000396000f3fe60806040526004361061014b5760003560e01c80639890220b116100b6578063df57b7421161006f578063df57b742146105e6578063e30bd74014610610578063eadf9760146106b8578063ef5454d61461073a578063f25eb5c1146107be578063f6d339e4146107d35761014b565b80639890220b146104e4578063ac4e73f9146104f9578063ac72c1201461057d578063c3a3582514610426578063ddca3f43146105a7578063deb931a2146105bc5761014b565b80636795dbcd116101085780636795dbcd1461031057806369fe0e2d146103ae57806379ce9fac146103d85780638da5cb5b1461041157806390b97fc11461042657806392698814146104ba5761014b565b806306b2ff471461015057806313af40351461019757806319362a28146101cc5780633f3935d11461024e578063432ced04146102c95780634f39ca59146102e6575b600080fd5b34801561015c57600080fd5b506101836004803603602081101561017357600080fd5b50356001600160a01b031661085e565b604080519115158252519081900360200190f35b3480156101a357600080fd5b506101ca600480360360208110156101ba57600080fd5b50356001600160a01b031661088d565b005b3480156101d857600080fd5b50610183600480360360608110156101ef57600080fd5b81359190810190604081016020820135600160201b81111561021057600080fd5b82018360208201111561022257600080fd5b803590602001918460018302840111600160201b8311171561024357600080fd5b919350915035610990565b34801561025a57600080fd5b506101836004803603602081101561027157600080fd5b810190602081018135600160201b81111561028b57600080fd5b82018360208201111561029d57600080fd5b803590602001918460018302840111600160201b831117156102be57600080fd5b509092509050610ad9565b610183600480360360208110156102df57600080fd5b5035610c62565b3480156102f257600080fd5b506101836004803603602081101561030957600080fd5b5035610d0f565b34801561031c57600080fd5b506103926004803603604081101561033357600080fd5b81359190810190604081016020820135600160201b81111561035457600080fd5b82018360208201111561036657600080fd5b803590602001918460018302840111600160201b8311171561038757600080fd5b509092509050610f78565b604080516001600160a01b039092168252519081900360200190f35b3480156103ba57600080fd5b50610183600480360360208110156103d157600080fd5b503561100a565b3480156103e457600080fd5b50610183600480360360408110156103fb57600080fd5b50803590602001356001600160a01b0316611098565b34801561041d57600080fd5b50610392611168565b34801561043257600080fd5b506104a86004803603604081101561044957600080fd5b81359190810190604081016020820135600160201b81111561046a57600080fd5b82018360208201111561047c57600080fd5b803590602001918460018302840111600160201b8311171561049d57600080fd5b509092509050611177565b60408051918252519081900360200190f35b3480156104c657600080fd5b50610183600480360360208110156104dd57600080fd5b5035611206565b3480156104f057600080fd5b5061018361126f565b34801561050557600080fd5b506101836004803603604081101561051c57600080fd5b810190602081018135600160201b81111561053657600080fd5b82018360208201111561054857600080fd5b803590602001918460018302840111600160201b8311171561056957600080fd5b9193509150356001600160a01b0316611325565b34801561058957600080fd5b50610183600480360360208110156105a057600080fd5b503561162e565b3480156105b357600080fd5b506104a861169b565b3480156105c857600080fd5b50610392600480360360208110156105df57600080fd5b50356116a1565b3480156105f257600080fd5b506103926004803603602081101561060957600080fd5b5035611708565b34801561061c57600080fd5b506106436004803603602081101561063357600080fd5b50356001600160a01b0316611773565b6040805160208082528351818301528351919283929083019185019080838360005b8381101561067d578181015183820152602001610665565b50505050905090810190601f1680156106aa5780820380516001836020036101000a031916815260200191505b509250505060405180910390f35b3480156106c457600080fd5b50610183600480360360608110156106db57600080fd5b81359190810190604081016020820135600160201b8111156106fc57600080fd5b82018360208201111561070e57600080fd5b803590602001918460018302840111600160201b8311171561072f57600080fd5b91935091503561181c565b34801561074657600080fd5b506101836004803603604081101561075d57600080fd5b810190602081018135600160201b81111561077757600080fd5b82018360208201111561078957600080fd5b803590602001918460018302840111600160201b831117156107aa57600080fd5b9193509150356001600160a01b0316611968565b3480156107ca57600080fd5b506101ca611ae2565b3480156107df57600080fd5b50610183600480360360608110156107f657600080fd5b81359190810190604081016020820135600160201b81111561081757600080fd5b82018360208201111561082957600080fd5b803590602001918460018302840111600160201b8311171561084a57600080fd5b9193509150356001600160a01b0316611d4e565b6001600160a01b0316600090815260026020819052604090912054600181161561010002600019011604151590565b6000546001600160a01b031633146108da576040805162461bcd60e51b81526020600482018190526024820152600080516020611f82833981519152604482015290519081900360640190fd5b6001600160a01b038116610935576040805162461bcd60e51b815260206004820152601960248201527f4e6577206f776e6572206d757374206e6f742062652030783000000000000000604482015290519081900360640190fd5b600080546040516001600160a01b03808516939216917f70aea8d848e8a90fb7661b227dc522eb6395c3dac71b63cb59edd5c9899b236491a3600080546001600160a01b0319166001600160a01b0392909216919091179055565b6000848152600160208190526040822001548590600160a01b900460ff161580156109d157506000818152600160205260409020546001600160a01b031615155b6109da57600080fd5b60008681526001602052604090205486906001600160a01b031633146109ff57600080fd5b83600160008981526020019081526020016000206002018787604051808383808284378083019250505092505050908152602001604051809103902081905550867fb829c3e412537bbe794c048ccb9e4605bb4aaaa8e4d4c15c1a6e0c2adc1716ea878789896040518080602001806020018381038352878782818152602001925080828437600083820152601f01601f191690910184810383528581526020019050858580828437600083820152604051601f909101601f19169092018290039850909650505050505050a25060019695505050505050565b600082828080601f01602080910402602001604051908101604052809392919081815260200183838082843760009201829052508451602080870191909120825260019081905260409091200154600160a01b900460ff161592505081159050610b64575080516020808301919091206000908152600190915260409020546001600160a01b031615155b610b6d57600080fd5b83838080601f016020809104026020016040519081016040528093929190818152602001838380828437600092018290525084516020808701919091208252600190819052604090912001546001600160a01b031633149250610bd291505057600080fd5b336000908152600260205260409020610bec908686611ea9565b50336001600160a01b03167f098ae8581bb8bd9af1beaf7f2e9f51f31a8e5a8bfada4e303a645d71d9c91920868660405180806020018281038252848482818152602001925080828437600083820152604051601f909101601f19169092018290039550909350505050a2506001949350505050565b6000818152600160208190526040822001548290600160a01b900460ff16158015610ca257506000818152600160205260409020546001600160a01b0316155b610cab57600080fd5b600354341015610cba57600080fd5b60008381526001602052604080822080546001600160a01b031916339081179091559051909185917f4963513eca575aba66fdcd25f267aae85958fe6fb97e75fa25d783f1a091a2219190a350600192915050565b6000818152600160208190526040822001548290600160a01b900460ff16158015610d5057506000818152600160205260409020546001600160a01b031615155b610d5957600080fd5b60008381526001602052604090205483906001600160a01b03163314610d7e57600080fd5b60008481526001602081815260408084208301546001600160a01b03168452600291829052928390209251835488949391928392859260001991811615610100029190910116048015610e085780601f10610de6576101008083540402835291820191610e08565b820191906000526020600020905b815481529060010190602001808311610df4575b505091505060405180910390201415610f205760008481526001602081815260408084208301546001600160a01b03168085526002808452948290208251848152815460001996811615610100029690960190951695909504928401839052937f12491ad95fd945e444d88a894ffad3c21959880a4dcd8af99d4ae4ffc71d4abd939092909182919082019084908015610ee35780601f10610eb857610100808354040283529160200191610ee3565b820191906000526020600020905b815481529060010190602001808311610ec657829003601f168201915b50509250505060405180910390a26000848152600160208181526040808420909201546001600160a01b03168352600290528120610f2091611f27565b6000848152600160208190526040808320909101805460ff60a01b1916600160a01b17905551339186917fef1961b4d2909dc23643b309bfe5c3e5646842d98c3a58517037ef3871185af39190a35060019392505050565b6000838152600160208190526040822001548490600160a01b900460ff16158015610fb957506000818152600160205260409020546001600160a01b031615155b610fc257600080fd5b60016000868152602001908152602001600020600201848460405180838380828437919091019485525050604051928390036020019092205460601c93505050509392505050565b600080546001600160a01b03163314611058576040805162461bcd60e51b81526020600482018190526024820152600080516020611f82833981519152604482015290519081900360640190fd5b60038290556040805183815290517f6bbc57480a46553fa4d156ce702beef5f3ad66303b0ed1a5d4cb44966c6584c39181900360200190a1506001919050565b6000828152600160208190526040822001548390600160a01b900460ff161580156110d957506000818152600160205260409020546001600160a01b031615155b6110e257600080fd5b60008481526001602052604090205484906001600160a01b0316331461110757600080fd5b60008581526001602052604080822080546001600160a01b0319166001600160a01b03881690811790915590519091339188917f7b97c62130aa09acbbcbf7482630e756592496f1759eaf702f469cf64dfb779491a4506001949350505050565b6000546001600160a01b031681565b6000838152600160208190526040822001548490600160a01b900460ff161580156111b857506000818152600160205260409020546001600160a01b031615155b6111c157600080fd5b60016000868152602001908152602001600020600201848460405180838380828437919091019485525050604051928390036020019092205493505050509392505050565b6000818152600160208190526040822001548290600160a01b900460ff1615801561124757506000818152600160205260409020546001600160a01b031615155b61125057600080fd5b50506000908152600160205260409020546001600160a01b0316151590565b600080546001600160a01b031633146112bd576040805162461bcd60e51b81526020600482018190526024820152600080516020611f82833981519152604482015290519081900360640190fd5b6040805147815290517fdef931299fe61d176f949118058530c1f3f539dcb6950b4e372c9b835c33ca079181900360200190a160405133904780156108fc02916000818181858888f1935050505015801561131c573d6000803e3d6000fd5b50600190505b90565b600083838080601f01602080910402602001604051908101604052809392919081815260200183838082843760009201829052508451602080870191909120825260019081905260409091200154600160a01b900460ff1615925050811590506113b0575080516020808301919091206000908152600190915260409020546001600160a01b031615155b6113b957600080fd5b8484604051808383808284376040805193909101839003909220600081815260016020529290922054919450506001600160a01b0316331491506113fe905057600080fd5b60008686604051808383808284376040805191909301819003902060008181526001602081905293902090920154919550506001600160a01b0316158015935091506114e09050575060008181526001602081815260408084208301546001600160a01b031684526002918290529283902092518354859493919283928592600019918116156101000291909101160480156114d15780601f106114af5761010080835404028352918201916114d1565b820191906000526020600020905b8154815290600101906020018083116114bd575b50509150506040518091039020145b15611592576000818152600160208181526040808420909201546001600160a01b0316835260029052812061151491611f27565b6000818152600160208181526040928390209091015482518281529182018990526001600160a01b0316917f12491ad95fd945e444d88a894ffad3c21959880a4dcd8af99d4ae4ffc71d4abd918a918a919081908101848480828437600083820152604051601f909101601f19169092018290039550909350505050a25b60008181526001602081815260409283902090910180546001600160a01b0319166001600160a01b0389169081179091558251828152918201899052917f728435a0031f6a04538fcdd24922a7e06bc7bc945db03e83d22122d1bc5f28df918a918a919081908101848480828437600083820152604051601f909101601f19169092018290039550909350505050a25060019695505050505050565b6000818152600160208190526040822001548290600160a01b900460ff1615801561166f57506000818152600160205260409020546001600160a01b031615155b61167857600080fd5b5050600090815260016020819052604090912001546001600160a01b0316151590565b60035481565b6000818152600160208190526040822001548290600160a01b900460ff161580156116e257506000818152600160205260409020546001600160a01b031615155b6116eb57600080fd5b50506000908152600160205260409020546001600160a01b031690565b6000818152600160208190526040822001548290600160a01b900460ff1615801561174957506000818152600160205260409020546001600160a01b031615155b61175257600080fd5b5050600090815260016020819052604090912001546001600160a01b031690565b6001600160a01b038116600090815260026020818152604092839020805484516001821615610100026000190190911693909304601f810183900483028401830190945283835260609390918301828280156118105780601f106117e557610100808354040283529160200191611810565b820191906000526020600020905b8154815290600101906020018083116117f357829003601f168201915b50505050509050919050565b6000848152600160208190526040822001548590600160a01b900460ff1615801561185d57506000818152600160205260409020546001600160a01b031615155b61186657600080fd5b60008681526001602052604090205486906001600160a01b0316331461188b57600080fd5b8360001b600160008981526020019081526020016000206002018787604051808383808284378083019250505092505050908152602001604051809103902081905550867fb829c3e412537bbe794c048ccb9e4605bb4aaaa8e4d4c15c1a6e0c2adc1716ea878789896040518080602001806020018381038352878782818152602001925080828437600083820152601f01601f191690910184810383528581526020019050858580828437600083820152604051601f909101601f19169092018290039850909650505050505050a25060019695505050505050565b600083838080601f01602080910402602001604051908101604052809392919081815260200183838082843760009201829052508451602080870191909120825260019081905260409091200154600160a01b900460ff1615925050811590506119f3575080516020808301919091206000908152600190915260409020546001600160a01b031615155b6119fc57600080fd5b6000546001600160a01b03163314611a49576040805162461bcd60e51b81526020600482018190526024820152600080516020611f82833981519152604482015290519081900360640190fd5b6001600160a01b0383166000908152600260205260409020611a6c908686611ea9565b50826001600160a01b03167f098ae8581bb8bd9af1beaf7f2e9f51f31a8e5a8bfada4e303a645d71d9c91920868660405180806020018281038252848482818152602001925080828437600083820152604051601f909101601f19169092018290039550909350505050a2506001949350505050565b33600090815260026020818152604092839020805484516001821615610100026000190190911693909304601f8101839004830284018301909452838352919290830182828015611b745780601f10611b4957610100808354040283529160200191611b74565b820191906000526020600020905b815481529060010190602001808311611b5757829003601f168201915b5050505050600160008280519060200120815260200190815260200160002060010160149054906101000a900460ff16158015611bd2575080516020808301919091206000908152600190915260409020546001600160a01b031615155b611bdb57600080fd5b33600081815260026020818152604092839020835182815281546000196101006001831615020116939093049183018290527f12491ad95fd945e444d88a894ffad3c21959880a4dcd8af99d4ae4ffc71d4abd93909291829182019084908015611c865780601f10611c5b57610100808354040283529160200191611c86565b820191906000526020600020905b815481529060010190602001808311611c6957829003601f168201915b50509250505060405180910390a2336000908152600260208190526040808320905181546001949382918491600019610100838a16150201909116048015611d055780601f10611ce3576101008083540402835291820191611d05565b820191906000526020600020905b815481529060010190602001808311611cf1575b505060408051918290039091208452602080850195909552928301600090812060010180546001600160a01b0319169055338152600290945250508120611d4b91611f27565b50565b6000848152600160208190526040822001548590600160a01b900460ff16158015611d8f57506000818152600160205260409020546001600160a01b031615155b611d9857600080fd5b60008681526001602052604090205486906001600160a01b03163314611dbd57600080fd5b8360601b6bffffffffffffffffffffffff1916600160008981526020019081526020016000206002018787604051808383808284378083019250505092505050908152602001604051809103902081905550867fb829c3e412537bbe794c048ccb9e4605bb4aaaa8e4d4c15c1a6e0c2adc1716ea878789896040518080602001806020018381038352878782818152602001925080828437600083820152601f01601f191690910184810383528581526020019050858580828437600083820152604051601f909101601f19169092018290039850909650505050505050a25060019695505050505050565b828054600181600116156101000203166002900490600052602060002090601f016020900481019282601f10611eea5782800160ff19823516178555611f17565b82800160010185558215611f17579182015b82811115611f17578235825591602001919060010190611efc565b50611f23929150611f67565b5090565b50805460018160011615610100020316600290046000825580601f10611f4d5750611d4b565b601f016020900490600052602060002090810190611d4b91905b61132291905b80821115611f235760008155600101611f6d56fe4f6e6c79206f776e657220697320616c6c6f77656420746f2065786563757465a265627a7a72315820af42cade024dc854c79f80704cecd8d5680da298aa152b2be29b39f1dcdba83f64736f6c63430005100032",
  "source": "pragma solidity ^0.5.0;\n\nimport \"./interfaces/IMetadataRegistry.sol\";\nimport \"./interfaces/IOwnerRegistry.sol\";\nimport \"./interfaces/IReverseRegistry.sol\";\n\n\ncontract Owned {\n    event NewOwner(address indexed old, address indexed current);\n\n    address public owner = msg.sender;\n\n    modifier onlyOwner {\n        require(msg.sender == owner, \"Only owner is allowed to execute\");\n        _;\n    }\n\n    function setOwner(address _new)\n    external\n    onlyOwner {\n        require(_new != address(0), \"New owner must not be 0x0\");\n        emit NewOwner(owner, _new);\n        owner = _new;\n    }\n}\n\n\n/// @dev Stores human-readable keys associated with addresses, like DNS information\n/// (see https://wiki.parity.io/Parity-name-registry.html). Needed primarily to store the address\n/// of the `TxPermission` contract (see https://wiki.parity.io/Permissioning.html#transaction-type for details).\ncontract Registry is Owned, IMetadataRegistry, IOwnerRegistry, IReverseRegistry {\n    struct Entry {\n        address owner;\n        address reverse;\n        bool deleted;\n        mapping(string => bytes32) data;\n    }\n\n    event Drained(uint amount);\n    event FeeChanged(uint amount);\n    event ReverseProposed(string name, address indexed reverse);\n\n    mapping(bytes32 => Entry) internal entries;\n    mapping(address => string) internal reverses;\n\n    uint256 public fee = 1 ether;\n\n    modifier whenUnreserved(bytes32 _name) {\n        require(!entries[_name].deleted && entries[_name].owner == address(0));\n        _;\n    }\n\n    modifier onlyOwnerOf(bytes32 _name) {\n        require(entries[_name].owner == msg.sender);\n        _;\n    }\n\n    modifier whenProposed(string memory _name) {\n        require(entries[keccak256(bytes(_name))].reverse == msg.sender);\n        _;\n    }\n\n    modifier whenEntry(string memory _name) {\n        require(\n            !entries[keccak256(bytes(_name))].deleted &&\n            entries[keccak256(bytes(_name))].owner != address(0)\n        );\n        _;\n    }\n\n    modifier whenEntryRaw(bytes32 _name) {\n        require(\n            !entries[_name].deleted &&\n            entries[_name].owner != address(0)\n        );\n        _;\n    }\n\n    modifier whenFeePaid {\n        require(msg.value >= fee);\n        _;\n    }\n\n    constructor(address _certifierContract, address _owner) public {\n        require(_certifierContract != address(0));\n        bytes32 serviceTransactionChecker = keccak256(\"service_transaction_checker\");\n        address entryOwner = msg.sender;\n        if (_owner != address(0)) {\n            owner = _owner;\n            entryOwner = _owner;\n        }\n        entries[serviceTransactionChecker].owner = entryOwner;\n        entries[serviceTransactionChecker].data[\"A\"] = bytes20(_certifierContract);\n        emit Reserved(serviceTransactionChecker, entryOwner);\n        emit DataChanged(serviceTransactionChecker, \"A\", \"A\");\n    }\n\n    // Reservation functions\n    function reserve(bytes32 _name)\n        external\n        payable\n        whenUnreserved(_name)\n        whenFeePaid\n        returns (bool success)\n    {\n        entries[_name].owner = msg.sender;\n        emit Reserved(_name, msg.sender);\n        return true;\n    }\n\n    function transfer(bytes32 _name, address _to)\n        external\n        whenEntryRaw(_name)\n        onlyOwnerOf(_name)\n        returns (bool success)\n    {\n        entries[_name].owner = _to;\n        emit Transferred(_name, msg.sender, _to);\n        return true;\n    }\n\n    function drop(bytes32 _name)\n        external\n        whenEntryRaw(_name)\n        onlyOwnerOf(_name)\n        returns (bool success)\n    {\n        if (keccak256(bytes(reverses[entries[_name].reverse])) == _name) {\n            emit ReverseRemoved(reverses[entries[_name].reverse], entries[_name].reverse);\n            delete reverses[entries[_name].reverse];\n        }\n        entries[_name].deleted = true;\n        emit Dropped(_name, msg.sender);\n        return true;\n    }\n\n    // Data admin functions\n    function setData(bytes32 _name, string calldata _key, bytes32 _value)\n        external\n        whenEntryRaw(_name)\n        onlyOwnerOf(_name)\n        returns (bool success)\n    {\n        entries[_name].data[_key] = _value;\n        emit DataChanged(_name, _key, _key);\n        return true;\n    }\n\n    function setAddress(bytes32 _name, string calldata _key, address _value)\n        external\n        whenEntryRaw(_name)\n        onlyOwnerOf(_name)\n        returns (bool success)\n    {\n        entries[_name].data[_key] = bytes20(_value);\n        emit DataChanged(_name, _key, _key);\n        return true;\n    }\n\n    function setUint(bytes32 _name, string calldata _key, uint _value)\n        external\n        whenEntryRaw(_name)\n        onlyOwnerOf(_name)\n        returns (bool success)\n    {\n        entries[_name].data[_key] = bytes32(_value);\n        emit DataChanged(_name, _key, _key);\n        return true;\n    }\n\n    // Reverse registration functions\n    function proposeReverse(string calldata _name, address _who)\n        external\n        whenEntry(_name)\n        onlyOwnerOf(keccak256(bytes(_name)))\n        returns (bool success)\n    {\n        bytes32 sha3Name = keccak256(bytes(_name));\n        if (\n            entries[sha3Name].reverse != address(0) &&\n            keccak256(bytes(reverses[entries[sha3Name].reverse])) == sha3Name\n        ) {\n            delete reverses[entries[sha3Name].reverse];\n            emit ReverseRemoved(_name, entries[sha3Name].reverse);\n        }\n        entries[sha3Name].reverse = _who;\n        emit ReverseProposed(_name, _who);\n        return true;\n    }\n\n    function confirmReverse(string calldata _name)\n        external\n        whenEntry(_name)\n        whenProposed(_name)\n        returns (bool success)\n    {\n        reverses[msg.sender] = _name;\n        emit ReverseConfirmed(_name, msg.sender);\n        return true;\n    }\n\n    function confirmReverseAs(string calldata _name, address _who)\n        external\n        whenEntry(_name)\n        onlyOwner\n        returns (bool success)\n    {\n        reverses[_who] = _name;\n        emit ReverseConfirmed(_name, _who);\n        return true;\n    }\n\n    function removeReverse()\n        external\n        whenEntry(reverses[msg.sender])\n    {\n        emit ReverseRemoved(reverses[msg.sender], msg.sender);\n        delete entries[keccak256(bytes(reverses[msg.sender]))].reverse;\n        delete reverses[msg.sender];\n    }\n\n    // Admin functions for the owner\n    function setFee(uint _amount)\n        external\n        onlyOwner\n        returns (bool)\n    {\n        fee = _amount;\n        emit FeeChanged(_amount);\n        return true;\n    }\n\n    function drain()\n        external\n        onlyOwner\n        returns (bool)\n    {\n        emit Drained(address(this).balance);\n        msg.sender.transfer(address(this).balance);\n        return true;\n    }\n\n    // MetadataRegistry views\n    function getData(bytes32 _name, string calldata _key)\n        external\n        view\n        whenEntryRaw(_name)\n        returns (bytes32)\n    {\n        return entries[_name].data[_key];\n    }\n\n    function getAddress(bytes32 _name, string calldata _key)\n        external\n        view\n        whenEntryRaw(_name)\n        returns (address)\n    {\n        return address(bytes20(entries[_name].data[_key]));\n    }\n\n    function getUint(bytes32 _name, string calldata _key)\n        external\n        view\n        whenEntryRaw(_name)\n        returns (uint)\n    {\n        return uint(entries[_name].data[_key]);\n    }\n\n    // OwnerRegistry views\n    function getOwner(bytes32 _name)\n        external\n        view\n        whenEntryRaw(_name)\n        returns (address)\n    {\n        return entries[_name].owner;\n    }\n\n    // ReversibleRegistry views\n    function hasReverse(bytes32 _name)\n        external\n        view\n        whenEntryRaw(_name)\n        returns (bool)\n    {\n        return entries[_name].reverse != address(0);\n    }\n\n    function getReverse(bytes32 _name)\n        external\n        view\n        whenEntryRaw(_name)\n        returns (address)\n    {\n        return entries[_name].reverse;\n    }\n\n    function canReverse(address _data)\n        external\n        view\n        returns (bool)\n    {\n        return bytes(reverses[_data]).length != 0;\n    }\n\n    function reverse(address _data)\n        external\n        view\n        returns (string memory)\n    {\n        return reverses[_data];\n    }\n\n    function reserved(bytes32 _name)\n        external\n        view\n        whenEntryRaw(_name)\n        returns (bool)\n    {\n        return entries[_name].owner != address(0);\n    }\n}\n",
  "sourcePath": "/home/sn/dmd/dmd-meta/hbbft-posdao-contracts/contracts/Registry.sol",
  "compiler": {
    "name": "solc",
    "version": "0.5.16+commit.9c3226ce.Emscripten.clang"
  },
  "schemaVersion": "3.3.1",
  "updatedAt": "2020-11-10T08:59:05.960Z",
  "devdoc": {
    "details": "Stores human-readable keys associated with addresses, like DNS information (see https://wiki.parity.io/Parity-name-registry.html). Needed primarily to store the address of the `TxPermission` contract (see https://wiki.parity.io/Permissioning.html#transaction-type for details).",
    "methods": {}
  },
  "userdoc": {
    "methods": {}
  }
}