{
  "_format": "hh-sol-artifact-1",
  "contractName": "Registry",
  "sourceName": "contracts/Registry.sol",
  "abi": [
    {
      "inputs": [
        {
          "internalType": "address",
          "name": "_certifierContract",
          "type": "address"
        },
        {
          "internalType": "address",
          "name": "_owner",
          "type": "address"
        }
      ],
      "stateMutability": "nonpayable",
      "type": "constructor"
    },
    {
      "anonymous": false,
      "inputs": [
        {
          "indexed": true,
          "internalType": "bytes32",
          "name": "name",
          "type": "bytes32"
        },
        {
          "indexed": false,
          "internalType": "string",
          "name": "key",
          "type": "string"
        },
        {
          "indexed": false,
          "internalType": "string",
          "name": "plainKey",
          "type": "string"
        }
      ],
      "name": "DataChanged",
      "type": "event"
    },
    {
      "anonymous": false,
      "inputs": [
        {
          "indexed": false,
          "internalType": "uint256",
          "name": "amount",
          "type": "uint256"
        }
      ],
      "name": "Drained",
      "type": "event"
    },
    {
      "anonymous": false,
      "inputs": [
        {
          "indexed": true,
          "internalType": "bytes32",
          "name": "name",
          "type": "bytes32"
        },
        {
          "indexed": true,
          "internalType": "address",
          "name": "owner",
          "type": "address"
        }
      ],
      "name": "Dropped",
      "type": "event"
    },
    {
      "anonymous": false,
      "inputs": [
        {
          "indexed": false,
          "internalType": "uint256",
          "name": "amount",
          "type": "uint256"
        }
      ],
      "name": "FeeChanged",
      "type": "event"
    },
    {
      "anonymous": false,
      "inputs": [
        {
          "indexed": true,
          "internalType": "address",
          "name": "old",
          "type": "address"
        },
        {
          "indexed": true,
          "internalType": "address",
          "name": "current",
          "type": "address"
        }
      ],
      "name": "NewOwner",
      "type": "event"
    },
    {
      "anonymous": false,
      "inputs": [
        {
          "indexed": true,
          "internalType": "bytes32",
          "name": "name",
          "type": "bytes32"
        },
        {
          "indexed": true,
          "internalType": "address",
          "name": "owner",
          "type": "address"
        }
      ],
      "name": "Reserved",
      "type": "event"
    },
    {
      "anonymous": false,
      "inputs": [
        {
          "indexed": false,
          "internalType": "string",
          "name": "name",
          "type": "string"
        },
        {
          "indexed": true,
          "internalType": "address",
          "name": "reverse",
          "type": "address"
        }
      ],
      "name": "ReverseConfirmed",
      "type": "event"
    },
    {
      "anonymous": false,
      "inputs": [
        {
          "indexed": false,
          "internalType": "string",
          "name": "name",
          "type": "string"
        },
        {
          "indexed": true,
          "internalType": "address",
          "name": "reverse",
          "type": "address"
        }
      ],
      "name": "ReverseProposed",
      "type": "event"
    },
    {
      "anonymous": false,
      "inputs": [
        {
          "indexed": false,
          "internalType": "string",
          "name": "name",
          "type": "string"
        },
        {
          "indexed": true,
          "internalType": "address",
          "name": "reverse",
          "type": "address"
        }
      ],
      "name": "ReverseRemoved",
      "type": "event"
    },
    {
      "anonymous": false,
      "inputs": [
        {
          "indexed": true,
          "internalType": "bytes32",
          "name": "name",
          "type": "bytes32"
        },
        {
          "indexed": true,
          "internalType": "address",
          "name": "oldOwner",
          "type": "address"
        },
        {
          "indexed": true,
          "internalType": "address",
          "name": "newOwner",
          "type": "address"
        }
      ],
      "name": "Transferred",
      "type": "event"
    },
    {
      "inputs": [
        {
          "internalType": "address",
          "name": "_data",
          "type": "address"
        }
      ],
      "name": "canReverse",
      "outputs": [
        {
          "internalType": "bool",
          "name": "",
          "type": "bool"
        }
      ],
      "stateMutability": "view",
      "type": "function"
    },
    {
      "inputs": [
        {
          "internalType": "string",
          "name": "_name",
          "type": "string"
        }
      ],
      "name": "confirmReverse",
      "outputs": [
        {
          "internalType": "bool",
          "name": "success",
          "type": "bool"
        }
      ],
      "stateMutability": "nonpayable",
      "type": "function"
    },
    {
      "inputs": [
        {
          "internalType": "string",
          "name": "_name",
          "type": "string"
        },
        {
          "internalType": "address",
          "name": "_who",
          "type": "address"
        }
      ],
      "name": "confirmReverseAs",
      "outputs": [
        {
          "internalType": "bool",
          "name": "success",
          "type": "bool"
        }
      ],
      "stateMutability": "nonpayable",
      "type": "function"
    },
    {
      "inputs": [],
      "name": "drain",
      "outputs": [
        {
          "internalType": "bool",
          "name": "",
          "type": "bool"
        }
      ],
      "stateMutability": "nonpayable",
      "type": "function"
    },
    {
      "inputs": [
        {
          "internalType": "bytes32",
          "name": "_name",
          "type": "bytes32"
        }
      ],
      "name": "drop",
      "outputs": [
        {
          "internalType": "bool",
          "name": "success",
          "type": "bool"
        }
      ],
      "stateMutability": "nonpayable",
      "type": "function"
    },
    {
      "inputs": [],
      "name": "fee",
      "outputs": [
        {
          "internalType": "uint256",
          "name": "",
          "type": "uint256"
        }
      ],
      "stateMutability": "view",
      "type": "function"
    },
    {
      "inputs": [
        {
          "internalType": "bytes32",
          "name": "_name",
          "type": "bytes32"
        },
        {
          "internalType": "string",
          "name": "_key",
          "type": "string"
        }
      ],
      "name": "getAddress",
      "outputs": [
        {
          "internalType": "address",
          "name": "",
          "type": "address"
        }
      ],
      "stateMutability": "view",
      "type": "function"
    },
    {
      "inputs": [
        {
          "internalType": "bytes32",
          "name": "_name",
          "type": "bytes32"
        },
        {
          "internalType": "string",
          "name": "_key",
          "type": "string"
        }
      ],
      "name": "getData",
      "outputs": [
        {
          "internalType": "bytes32",
          "name": "",
          "type": "bytes32"
        }
      ],
      "stateMutability": "view",
      "type": "function"
    },
    {
      "inputs": [
        {
          "internalType": "bytes32",
          "name": "_name",
          "type": "bytes32"
        }
      ],
      "name": "getOwner",
      "outputs": [
        {
          "internalType": "address",
          "name": "",
          "type": "address"
        }
      ],
      "stateMutability": "view",
      "type": "function"
    },
    {
      "inputs": [
        {
          "internalType": "bytes32",
          "name": "_name",
          "type": "bytes32"
        }
      ],
      "name": "getReverse",
      "outputs": [
        {
          "internalType": "address",
          "name": "",
          "type": "address"
        }
      ],
      "stateMutability": "view",
      "type": "function"
    },
    {
      "inputs": [
        {
          "internalType": "bytes32",
          "name": "_name",
          "type": "bytes32"
        },
        {
          "internalType": "string",
          "name": "_key",
          "type": "string"
        }
      ],
      "name": "getUint",
      "outputs": [
        {
          "internalType": "uint256",
          "name": "",
          "type": "uint256"
        }
      ],
      "stateMutability": "view",
      "type": "function"
    },
    {
      "inputs": [
        {
          "internalType": "bytes32",
          "name": "_name",
          "type": "bytes32"
        }
      ],
      "name": "hasReverse",
      "outputs": [
        {
          "internalType": "bool",
          "name": "",
          "type": "bool"
        }
      ],
      "stateMutability": "view",
      "type": "function"
    },
    {
      "inputs": [],
      "name": "owner",
      "outputs": [
        {
          "internalType": "address",
          "name": "",
          "type": "address"
        }
      ],
      "stateMutability": "view",
      "type": "function"
    },
    {
      "inputs": [
        {
          "internalType": "string",
          "name": "_name",
          "type": "string"
        },
        {
          "internalType": "address",
          "name": "_who",
          "type": "address"
        }
      ],
      "name": "proposeReverse",
      "outputs": [
        {
          "internalType": "bool",
          "name": "success",
          "type": "bool"
        }
      ],
      "stateMutability": "nonpayable",
      "type": "function"
    },
    {
      "inputs": [],
      "name": "removeReverse",
      "outputs": [],
      "stateMutability": "nonpayable",
      "type": "function"
    },
    {
      "inputs": [
        {
          "internalType": "bytes32",
          "name": "_name",
          "type": "bytes32"
        }
      ],
      "name": "reserve",
      "outputs": [
        {
          "internalType": "bool",
          "name": "success",
          "type": "bool"
        }
      ],
      "stateMutability": "payable",
      "type": "function"
    },
    {
      "inputs": [
        {
          "internalType": "bytes32",
          "name": "_name",
          "type": "bytes32"
        }
      ],
      "name": "reserved",
      "outputs": [
        {
          "internalType": "bool",
          "name": "",
          "type": "bool"
        }
      ],
      "stateMutability": "view",
      "type": "function"
    },
    {
      "inputs": [
        {
          "internalType": "address",
          "name": "_data",
          "type": "address"
        }
      ],
      "name": "reverse",
      "outputs": [
        {
          "internalType": "string",
          "name": "",
          "type": "string"
        }
      ],
      "stateMutability": "view",
      "type": "function"
    },
    {
      "inputs": [
        {
          "internalType": "bytes32",
          "name": "_name",
          "type": "bytes32"
        },
        {
          "internalType": "string",
          "name": "_key",
          "type": "string"
        },
        {
          "internalType": "address",
          "name": "_value",
          "type": "address"
        }
      ],
      "name": "setAddress",
      "outputs": [
        {
          "internalType": "bool",
          "name": "success",
          "type": "bool"
        }
      ],
      "stateMutability": "nonpayable",
      "type": "function"
    },
    {
      "inputs": [
        {
          "internalType": "bytes32",
          "name": "_name",
          "type": "bytes32"
        },
        {
          "internalType": "string",
          "name": "_key",
          "type": "string"
        },
        {
          "internalType": "bytes32",
          "name": "_value",
          "type": "bytes32"
        }
      ],
      "name": "setData",
      "outputs": [
        {
          "internalType": "bool",
          "name": "success",
          "type": "bool"
        }
      ],
      "stateMutability": "nonpayable",
      "type": "function"
    },
    {
      "inputs": [
        {
          "internalType": "uint256",
          "name": "_amount",
          "type": "uint256"
        }
      ],
      "name": "setFee",
      "outputs": [
        {
          "internalType": "bool",
          "name": "",
          "type": "bool"
        }
      ],
      "stateMutability": "nonpayable",
      "type": "function"
    },
    {
      "inputs": [
        {
          "internalType": "address",
          "name": "_new",
          "type": "address"
        }
      ],
      "name": "setOwner",
      "outputs": [],
      "stateMutability": "nonpayable",
      "type": "function"
    },
    {
      "inputs": [
        {
          "internalType": "bytes32",
          "name": "_name",
          "type": "bytes32"
        },
        {
          "internalType": "string",
          "name": "_key",
          "type": "string"
        },
        {
          "internalType": "uint256",
          "name": "_value",
          "type": "uint256"
        }
      ],
      "name": "setUint",
      "outputs": [
        {
          "internalType": "bool",
          "name": "success",
          "type": "bool"
        }
      ],
      "stateMutability": "nonpayable",
      "type": "function"
    },
    {
      "inputs": [
        {
          "internalType": "bytes32",
          "name": "_name",
          "type": "bytes32"
        },
        {
          "internalType": "address",
          "name": "_to",
          "type": "address"
        }
      ],
      "name": "transfer",
      "outputs": [
        {
          "internalType": "bool",
          "name": "success",
          "type": "bool"
        }
      ],
      "stateMutability": "nonpayable",
      "type": "function"
    }
  ],
  "bytecode": "0x6080604052600080546001600160a01b03191633179055670de0b6b3a76400006003553480156200002f57600080fd5b5060405162001f7538038062001f758339810160408190526200005291620001a4565b6001600160a01b0382166200006657600080fd5b7f6d3815e6a4f3c7fcec92b83d73dda2754a69c601f07723ec5a2274bd6e81e155336001600160a01b03831615620000b65750600080546001600160a01b0319166001600160a01b038416179055815b60008281526001602081905260409182902080546001600160a01b0319166001600160a01b0385161781559151604160f81b8152606087901b6001600160601b031916926002019101908152604051908190036020018120919091556001600160a01b0382169083907f4963513eca575aba66fdcd25f267aae85958fe6fb97e75fa25d783f1a091a22190600090a3817fb829c3e412537bbe794c048ccb9e4605bb4aaaa8e4d4c15c1a6e0c2adc1716ea6040516200017590620001dc565b60405180910390a25050505062000226565b80516001600160a01b03811681146200019f57600080fd5b919050565b60008060408385031215620001b857600080fd5b620001c38362000187565b9150620001d36020840162000187565b90509250929050565b604081526000620001fe6040830160018152604160f81b602082015260400190565b82810360208401526200021f8160018152604160f81b602082015260400190565b9392505050565b611d3f80620002366000396000f3fe60806040526004361061018b5760003560e01c80639890220b116100d6578063df57b7421161007f578063ef5454d611610059578063ef5454d614610458578063f25eb5c114610478578063f6d339e41461048d57600080fd5b8063df57b742146103eb578063e30bd7401461040b578063eadf97601461043857600080fd5b8063c3a35825116100b0578063c3a3582514610395578063ddca3f43146103b5578063deb931a2146103cb57600080fd5b80639890220b14610340578063ac4e73f914610355578063ac72c1201461037557600080fd5b80636795dbcd116101385780638da5cb5b116101125780638da5cb5b146102d257806390b97fc1146102f2578063926988141461032057600080fd5b80636795dbcd1461025a57806369fe0e2d1461029257806379ce9fac146102b257600080fd5b80633f3935d1116101695780633f3935d114610207578063432ced04146102275780634f39ca591461023a57600080fd5b806306b2ff471461019057806313af4035146101c557806319362a28146101e7575b600080fd5b34801561019c57600080fd5b506101b06101ab366004611796565b6104ad565b60405190151581526020015b60405180910390f35b3480156101d157600080fd5b506101e56101e0366004611796565b6104d9565b005b3480156101f357600080fd5b506101b0610202366004611801565b6105e9565b34801561021357600080fd5b506101b0610222366004611854565b6106dc565b6101b0610235366004611896565b61083e565b34801561024657600080fd5b506101b0610255366004611896565b6108ed565b34801561026657600080fd5b5061027a6102753660046118af565b610a9f565b6040516001600160a01b0390911681526020016101bc565b34801561029e57600080fd5b506101b06102ad366004611896565b610b2b565b3480156102be57600080fd5b506101b06102cd3660046118fb565b610bc7565b3480156102de57600080fd5b5060005461027a906001600160a01b031681565b3480156102fe57600080fd5b5061031261030d3660046118af565b610c97565b6040519081526020016101bc565b34801561032c57600080fd5b506101b061033b366004611896565b610d20565b34801561034c57600080fd5b506101b0610d89565b34801561036157600080fd5b506101b0610370366004611927565b610e4b565b34801561038157600080fd5b506101b0610390366004611896565b61108f565b3480156103a157600080fd5b506103126103b03660046118af565b6110fc565b3480156103c157600080fd5b5061031260035481565b3480156103d757600080fd5b5061027a6103e6366004611896565b611186565b3480156103f757600080fd5b5061027a610406366004611896565b6111ed565b34801561041757600080fd5b5061042b610426366004611796565b611258565b6040516101bc919061197b565b34801561044457600080fd5b506101b0610453366004611801565b611304565b34801561046457600080fd5b506101b0610473366004611927565b611398565b34801561048457600080fd5b506101e56114e5565b34801561049957600080fd5b506101b06104a83660046119c9565b611689565b6001600160a01b038116600090815260026020526040812080546104d090611a27565b15159392505050565b6000546001600160a01b031633146105385760405162461bcd60e51b815260206004820181905260248201527f4f6e6c79206f776e657220697320616c6c6f77656420746f206578656375746560448201526064015b60405180910390fd5b6001600160a01b03811661058e5760405162461bcd60e51b815260206004820152601960248201527f4e6577206f776e6572206d757374206e6f742062652030783000000000000000604482015260640161052f565b600080546040516001600160a01b03808516939216917f70aea8d848e8a90fb7661b227dc522eb6395c3dac71b63cb59edd5c9899b236491a3600080546001600160a01b0319166001600160a01b0392909216919091179055565b6000848152600160208190526040822001548590600160a01b900460ff1615801561062a57506000818152600160205260409020546001600160a01b031615155b61063357600080fd5b60008681526001602052604090205486906001600160a01b0316331461065857600080fd5b8360016000898152602001908152602001600020600201878760405161067f929190611a5b565b908152602001604051809103902081905550867fb829c3e412537bbe794c048ccb9e4605bb4aaaa8e4d4c15c1a6e0c2adc1716ea878789896040516106c79493929190611a94565b60405180910390a25060019695505050505050565b600082828080601f01602080910402602001604051908101604052809392919081815260200183838082843760009201829052508451602080870191909120825260019081905260409091200154600160a01b900460ff161592505081159050610767575080516020808301919091206000908152600190915260409020546001600160a01b031615155b61077057600080fd5b83838080601f016020809104026020016040519081016040528093929190818152602001838380828437600092018290525084516020808701919091208252600190819052604090912001546001600160a01b0316331492506107d591505057600080fd5b3360009081526002602052604090206107ef858783611b2b565b50336001600160a01b03167f098ae8581bb8bd9af1beaf7f2e9f51f31a8e5a8bfada4e303a645d71d9c91920868660405161082b929190611bec565b60405180910390a2506001949350505050565b6000818152600160208190526040822001548290600160a01b900460ff1615801561087e57506000818152600160205260409020546001600160a01b0316155b61088757600080fd5b60035434101561089657600080fd5b60008381526001602052604080822080546001600160a01b031916339081179091559051909185917f4963513eca575aba66fdcd25f267aae85958fe6fb97e75fa25d783f1a091a2219190a3600191505b50919050565b6000818152600160208190526040822001548290600160a01b900460ff1615801561092e57506000818152600160205260409020546001600160a01b031615155b61093757600080fd5b60008381526001602052604090205483906001600160a01b0316331461095c57600080fd5b6000848152600160208181526040808420909201546001600160a01b0316835260029052908190209051859161099191611c08565b604051809103902003610a2c576000848152600160208181526040808420909201546001600160a01b031680845260029091529181902090517f12491ad95fd945e444d88a894ffad3c21959880a4dcd8af99d4ae4ffc71d4abd916109f591611c7e565b60405180910390a26000848152600160208181526040808420909201546001600160a01b03168352600290528120610a2c91611731565b600084815260016020819052604080832090910180547fffffffffffffffffffffff00ffffffffffffffffffffffffffffffffffffffff16600160a01b17905551339186917fef1961b4d2909dc23643b309bfe5c3e5646842d98c3a58517037ef3871185af39190a35060019392505050565b6000838152600160208190526040822001548490600160a01b900460ff16158015610ae057506000818152600160205260409020546001600160a01b031615155b610ae957600080fd5b600160008681526020019081526020016000206002018484604051610b0f929190611a5b565b90815260200160405180910390205460601c9150509392505050565b600080546001600160a01b03163314610b865760405162461bcd60e51b815260206004820181905260248201527f4f6e6c79206f776e657220697320616c6c6f77656420746f2065786563757465604482015260640161052f565b60038290556040518281527f6bbc57480a46553fa4d156ce702beef5f3ad66303b0ed1a5d4cb44966c6584c39060200160405180910390a15060015b919050565b6000828152600160208190526040822001548390600160a01b900460ff16158015610c0857506000818152600160205260409020546001600160a01b031615155b610c1157600080fd5b60008481526001602052604090205484906001600160a01b03163314610c3657600080fd5b60008581526001602052604080822080546001600160a01b0319166001600160a01b03881690811790915590519091339188917f7b97c62130aa09acbbcbf7482630e756592496f1759eaf702f469cf64dfb779491a4506001949350505050565b6000838152600160208190526040822001548490600160a01b900460ff16158015610cd857506000818152600160205260409020546001600160a01b031615155b610ce157600080fd5b600160008681526020019081526020016000206002018484604051610d07929190611a5b565b9081526020016040518091039020549150509392505050565b6000818152600160208190526040822001548290600160a01b900460ff16158015610d6157506000818152600160205260409020546001600160a01b031615155b610d6a57600080fd5b50506000908152600160205260409020546001600160a01b0316151590565b600080546001600160a01b03163314610de45760405162461bcd60e51b815260206004820181905260248201527f4f6e6c79206f776e657220697320616c6c6f77656420746f2065786563757465604482015260640161052f565b6040514781527fdef931299fe61d176f949118058530c1f3f539dcb6950b4e372c9b835c33ca079060200160405180910390a160405133904780156108fc02916000818181858888f19350505050158015610e43573d6000803e3d6000fd5b506001905090565b600083838080601f01602080910402602001604051908101604052809392919081815260200183838082843760009201829052508451602080870191909120825260019081905260409091200154600160a01b900460ff161592505081159050610ed6575080516020808301919091206000908152600190915260409020546001600160a01b031615155b610edf57600080fd5b8484604051610eef929190611a5b565b60408051918290039091206000818152600160205291909120546001600160a01b03163314610f1d57600080fd5b60008686604051610f2f929190611a5b565b6040805191829003909120600081815260016020819052929020909101549091506001600160a01b031615801590610fa157506000818152600160208181526040808420909201546001600160a01b03168352600290529081902090518291610f9791611c08565b6040518091039020145b1561102f576000818152600160208181526040808420909201546001600160a01b03168352600290528120610fd591611731565b600081815260016020819052604091829020015490516001600160a01b03909116907f12491ad95fd945e444d88a894ffad3c21959880a4dcd8af99d4ae4ffc71d4abd90611026908a908a90611bec565b60405180910390a25b6000818152600160208190526040918290200180546001600160a01b0319166001600160a01b03881690811790915590517f728435a0031f6a04538fcdd24922a7e06bc7bc945db03e83d22122d1bc5f28df906106c7908a908a90611bec565b6000818152600160208190526040822001548290600160a01b900460ff161580156110d057506000818152600160205260409020546001600160a01b031615155b6110d957600080fd5b5050600090815260016020819052604090912001546001600160a01b0316151590565b6000838152600160208190526040822001548490600160a01b900460ff1615801561113d57506000818152600160205260409020546001600160a01b031615155b61114657600080fd5b60016000868152602001908152602001600020600201848460405161116c929190611a5b565b908152604051908190036020019020549150509392505050565b6000818152600160208190526040822001548290600160a01b900460ff161580156111c757506000818152600160205260409020546001600160a01b031615155b6111d057600080fd5b50506000908152600160205260409020546001600160a01b031690565b6000818152600160208190526040822001548290600160a01b900460ff1615801561122e57506000818152600160205260409020546001600160a01b031615155b61123757600080fd5b5050600090815260016020819052604090912001546001600160a01b031690565b6001600160a01b038116600090815260026020526040902080546060919061127f90611a27565b80601f01602080910402602001604051908101604052809291908181526020018280546112ab90611a27565b80156112f85780601f106112cd576101008083540402835291602001916112f8565b820191906000526020600020905b8154815290600101906020018083116112db57829003601f168201915b50505050509050919050565b6000848152600160208190526040822001548590600160a01b900460ff1615801561134557506000818152600160205260409020546001600160a01b031615155b61134e57600080fd5b60008681526001602052604090205486906001600160a01b0316331461137357600080fd5b60008781526001602052604090819020905185916002019061067f9089908990611a5b565b600083838080601f01602080910402602001604051908101604052809392919081815260200183838082843760009201829052508451602080870191909120825260019081905260409091200154600160a01b900460ff161592505081159050611423575080516020808301919091206000908152600190915260409020546001600160a01b031615155b61142c57600080fd5b6000546001600160a01b031633146114865760405162461bcd60e51b815260206004820181905260248201527f4f6e6c79206f776e657220697320616c6c6f77656420746f2065786563757465604482015260640161052f565b6001600160a01b03831660009081526002602052604090206114a9858783611b2b565b50826001600160a01b03167f098ae8581bb8bd9af1beaf7f2e9f51f31a8e5a8bfada4e303a645d71d9c91920868660405161082b929190611bec565b33600090815260026020526040902080546114ff90611a27565b80601f016020809104026020016040519081016040528092919081815260200182805461152b90611a27565b80156115785780601f1061154d57610100808354040283529160200191611578565b820191906000526020600020905b81548152906001019060200180831161155b57829003601f168201915b5050505050600160008280519060200120815260200190815260200160002060010160149054906101000a900460ff161580156115d6575080516020808301919091206000908152600190915260409020546001600160a01b031615155b6115df57600080fd5b336000818152600260205260409081902090517f12491ad95fd945e444d88a894ffad3c21959880a4dcd8af99d4ae4ffc71d4abd9161161d91611c7e565b60405180910390a23360009081526002602052604080822090516001929161164491611c08565b60408051918290039091208252602080830193909352908101600090812060010180546001600160a01b03191690553381526002909252812061168691611731565b50565b6000848152600160208190526040822001548590600160a01b900460ff161580156116ca57506000818152600160205260409020546001600160a01b031615155b6116d357600080fd5b60008681526001602052604090205486906001600160a01b031633146116f857600080fd5b8360601b6bffffffffffffffffffffffff191660016000898152602001908152602001600020600201878760405161067f929190611a5b565b50805461173d90611a27565b6000825580601f1061174d575050565b601f01602090049060005260206000209081019061168691905b8082111561177b5760008155600101611767565b5090565b80356001600160a01b0381168114610bc257600080fd5b6000602082840312156117a857600080fd5b6117b18261177f565b9392505050565b60008083601f8401126117ca57600080fd5b50813567ffffffffffffffff8111156117e257600080fd5b6020830191508360208285010111156117fa57600080fd5b9250929050565b6000806000806060858703121561181757600080fd5b84359350602085013567ffffffffffffffff81111561183557600080fd5b611841878288016117b8565b9598909750949560400135949350505050565b6000806020838503121561186757600080fd5b823567ffffffffffffffff81111561187e57600080fd5b61188a858286016117b8565b90969095509350505050565b6000602082840312156118a857600080fd5b5035919050565b6000806000604084860312156118c457600080fd5b83359250602084013567ffffffffffffffff8111156118e257600080fd5b6118ee868287016117b8565b9497909650939450505050565b6000806040838503121561190e57600080fd5b8235915061191e6020840161177f565b90509250929050565b60008060006040848603121561193c57600080fd5b833567ffffffffffffffff81111561195357600080fd5b61195f868287016117b8565b909450925061197290506020850161177f565b90509250925092565b600060208083528351808285015260005b818110156119a85785810183015185820160400152820161198c565b506000604082860101526040601f19601f8301168501019250505092915050565b600080600080606085870312156119df57600080fd5b84359350602085013567ffffffffffffffff8111156119fd57600080fd5b611a09878288016117b8565b9094509250611a1c90506040860161177f565b905092959194509250565b600181811c90821680611a3b57607f821691505b6020821081036108e757634e487b7160e01b600052602260045260246000fd5b8183823760009101908152919050565b81835281816020850137506000828201602090810191909152601f909101601f19169091010190565b604081526000611aa8604083018688611a6b565b8281036020840152611abb818587611a6b565b979650505050505050565b634e487b7160e01b600052604160045260246000fd5b601f821115611b2657600081815260208120601f850160051c81016020861015611b035750805b601f850160051c820191505b81811015611b2257828155600101611b0f565b5050505b505050565b67ffffffffffffffff831115611b4357611b43611ac6565b611b5783611b518354611a27565b83611adc565b6000601f841160018114611b8b5760008515611b735750838201355b600019600387901b1c1916600186901b178355611be5565b600083815260209020601f19861690835b82811015611bbc5786850135825560209485019460019092019101611b9c565b5086821015611bd95760001960f88860031b161c19848701351681555b505060018560011b0183555b5050505050565b602081526000611c00602083018486611a6b565b949350505050565b6000808354611c1681611a27565b60018281168015611c2e5760018114611c4357611c72565b60ff1984168752821515830287019450611c72565b8760005260208060002060005b85811015611c695781548a820152908401908201611c50565b50505082870194505b50929695505050505050565b6000602080835260008454611c9281611a27565b80848701526040600180841660008114611cb35760018114611ccd57611cfb565b60ff1985168984015283151560051b890183019550611cfb565b896000528660002060005b85811015611cf35781548b8201860152908301908801611cd8565b8a0184019650505b50939897505050505050505056fea26469706673582212201cd45776e18dee044aad4025868b219e4101962cb057fa043b6f7c71ed26640c64736f6c63430008110033",
  "linkReferences": {},
  "deployedLinkReferences": {}
}