{
  "contractName": "StakingHbbft",
  "abi": [
    {
      "anonymous": false,
      "inputs": [
        {
          "indexed": true,
          "internalType": "address",
          "name": "fromPoolStakingAddress",
          "type": "address"
        },
        {
          "indexed": true,
          "internalType": "address",
          "name": "staker",
          "type": "address"
        },
        {
          "indexed": true,
          "internalType": "uint256",
          "name": "stakingEpoch",
          "type": "uint256"
        },
        {
          "indexed": false,
          "internalType": "uint256",
          "name": "amount",
          "type": "uint256"
        }
      ],
      "name": "ClaimedOrderedWithdrawal",
      "type": "event"
    },
    {
      "anonymous": false,
      "inputs": [
        {
          "indexed": true,
          "internalType": "address",
          "name": "fromPoolStakingAddress",
          "type": "address"
        },
        {
          "indexed": true,
          "internalType": "address",
          "name": "staker",
          "type": "address"
        },
        {
          "indexed": true,
          "internalType": "uint256",
          "name": "stakingEpoch",
          "type": "uint256"
        },
        {
          "indexed": false,
          "internalType": "uint256",
          "name": "nativeCoinsAmount",
          "type": "uint256"
        }
      ],
      "name": "ClaimedReward",
      "type": "event"
    },
    {
      "anonymous": false,
      "inputs": [
        {
          "indexed": false,
          "internalType": "address",
          "name": "fromPoolStakingAddress",
          "type": "address"
        },
        {
          "indexed": true,
          "internalType": "address",
          "name": "toPoolStakingAddress",
          "type": "address"
        },
        {
          "indexed": true,
          "internalType": "address",
          "name": "staker",
          "type": "address"
        },
        {
          "indexed": true,
          "internalType": "uint256",
          "name": "stakingEpoch",
          "type": "uint256"
        },
        {
          "indexed": false,
          "internalType": "uint256",
          "name": "amount",
          "type": "uint256"
        }
      ],
      "name": "MovedStake",
      "type": "event"
    },
    {
      "anonymous": false,
      "inputs": [
        {
          "indexed": true,
          "internalType": "address",
          "name": "fromPoolStakingAddress",
          "type": "address"
        },
        {
          "indexed": true,
          "internalType": "address",
          "name": "staker",
          "type": "address"
        },
        {
          "indexed": true,
          "internalType": "uint256",
          "name": "stakingEpoch",
          "type": "uint256"
        },
        {
          "indexed": false,
          "internalType": "int256",
          "name": "amount",
          "type": "int256"
        }
      ],
      "name": "OrderedWithdrawal",
      "type": "event"
    },
    {
      "anonymous": false,
      "inputs": [
        {
          "indexed": true,
          "internalType": "address",
          "name": "toPoolStakingAddress",
          "type": "address"
        },
        {
          "indexed": true,
          "internalType": "address",
          "name": "staker",
          "type": "address"
        },
        {
          "indexed": true,
          "internalType": "uint256",
          "name": "stakingEpoch",
          "type": "uint256"
        },
        {
          "indexed": false,
          "internalType": "uint256",
          "name": "amount",
          "type": "uint256"
        }
      ],
      "name": "PlacedStake",
      "type": "event"
    },
    {
      "anonymous": false,
      "inputs": [
        {
          "indexed": true,
          "internalType": "address",
          "name": "fromPoolStakingAddress",
          "type": "address"
        },
        {
          "indexed": true,
          "internalType": "address",
          "name": "staker",
          "type": "address"
        },
        {
          "indexed": true,
          "internalType": "uint256",
          "name": "stakingEpoch",
          "type": "uint256"
        },
        {
          "indexed": false,
          "internalType": "uint256",
          "name": "amount",
          "type": "uint256"
        }
      ],
      "name": "WithdrewStake",
      "type": "event"
    },
    {
      "payable": true,
      "stateMutability": "payable",
      "type": "fallback"
    },
    {
      "constant": true,
      "inputs": [],
      "name": "MAX_CANDIDATES",
      "outputs": [
        {
          "internalType": "uint256",
          "name": "",
          "type": "uint256"
        }
      ],
      "payable": false,
      "stateMutability": "view",
      "type": "function"
    },
    {
      "constant": false,
      "inputs": [
        {
          "internalType": "address",
          "name": "_miningAddress",
          "type": "address"
        },
        {
          "internalType": "bytes",
          "name": "_publicKey",
          "type": "bytes"
        },
        {
          "internalType": "bytes16",
          "name": "_ip",
          "type": "bytes16"
        }
      ],
      "name": "addPool",
      "outputs": [],
      "payable": true,
      "stateMutability": "payable",
      "type": "function"
    },
    {
      "constant": true,
      "inputs": [],
      "name": "areStakeAndWithdrawAllowed",
      "outputs": [
        {
          "internalType": "bool",
          "name": "",
          "type": "bool"
        }
      ],
      "payable": false,
      "stateMutability": "view",
      "type": "function"
    },
    {
      "constant": true,
      "inputs": [],
      "name": "candidateMinStake",
      "outputs": [
        {
          "internalType": "uint256",
          "name": "",
          "type": "uint256"
        }
      ],
      "payable": false,
      "stateMutability": "view",
      "type": "function"
    },
    {
      "constant": false,
      "inputs": [
        {
          "internalType": "address",
          "name": "_poolStakingAddress",
          "type": "address"
        }
      ],
      "name": "claimOrderedWithdraw",
      "outputs": [],
      "payable": false,
      "stateMutability": "nonpayable",
      "type": "function"
    },
    {
      "constant": false,
      "inputs": [
        {
          "internalType": "uint256[]",
          "name": "_stakingEpochs",
          "type": "uint256[]"
        },
        {
          "internalType": "address",
          "name": "_poolStakingAddress",
          "type": "address"
        }
      ],
      "name": "claimReward",
      "outputs": [],
      "payable": false,
      "stateMutability": "nonpayable",
      "type": "function"
    },
    {
      "constant": true,
      "inputs": [],
      "name": "currentKeyGenExtraTimeWindow",
      "outputs": [
        {
          "internalType": "uint256",
          "name": "",
          "type": "uint256"
        }
      ],
      "payable": false,
      "stateMutability": "view",
      "type": "function"
    },
    {
      "constant": true,
      "inputs": [],
      "name": "delegatorMinStake",
      "outputs": [
        {
          "internalType": "uint256",
          "name": "",
          "type": "uint256"
        }
      ],
      "payable": false,
      "stateMutability": "view",
      "type": "function"
    },
    {
      "constant": true,
      "inputs": [
        {
          "internalType": "address",
          "name": "",
          "type": "address"
        },
        {
          "internalType": "address",
          "name": "",
          "type": "address"
        },
        {
          "internalType": "uint256",
          "name": "",
          "type": "uint256"
        }
      ],
      "name": "delegatorStakeSnapshot",
      "outputs": [
        {
          "internalType": "uint256",
          "name": "",
          "type": "uint256"
        }
      ],
      "payable": false,
      "stateMutability": "view",
      "type": "function"
    },
    {
      "constant": true,
      "inputs": [
        {
          "internalType": "address",
          "name": "_poolAddress",
          "type": "address"
        }
      ],
      "name": "getPoolInternetAddress",
      "outputs": [
        {
          "internalType": "bytes16",
          "name": "",
          "type": "bytes16"
        }
      ],
      "payable": false,
      "stateMutability": "view",
      "type": "function"
    },
    {
      "constant": true,
      "inputs": [
        {
          "internalType": "address",
          "name": "_poolAddress",
          "type": "address"
        }
      ],
      "name": "getPoolPublicKey",
      "outputs": [
        {
          "internalType": "bytes",
          "name": "",
          "type": "bytes"
        }
      ],
      "payable": false,
      "stateMutability": "view",
      "type": "function"
    },
    {
      "constant": true,
      "inputs": [],
      "name": "getPools",
      "outputs": [
        {
          "internalType": "address[]",
          "name": "",
          "type": "address[]"
        }
      ],
      "payable": false,
      "stateMutability": "view",
      "type": "function"
    },
    {
      "constant": true,
      "inputs": [],
      "name": "getPoolsInactive",
      "outputs": [
        {
          "internalType": "address[]",
          "name": "",
          "type": "address[]"
        }
      ],
      "payable": false,
      "stateMutability": "view",
      "type": "function"
    },
    {
      "constant": true,
      "inputs": [],
      "name": "getPoolsLikelihood",
      "outputs": [
        {
          "internalType": "uint256[]",
          "name": "likelihoods",
          "type": "uint256[]"
        },
        {
          "internalType": "uint256",
          "name": "sum",
          "type": "uint256"
        }
      ],
      "payable": false,
      "stateMutability": "view",
      "type": "function"
    },
    {
      "constant": true,
      "inputs": [],
      "name": "getPoolsToBeElected",
      "outputs": [
        {
          "internalType": "address[]",
          "name": "",
          "type": "address[]"
        }
      ],
      "payable": false,
      "stateMutability": "view",
      "type": "function"
    },
    {
      "constant": true,
      "inputs": [],
      "name": "getPoolsToBeRemoved",
      "outputs": [
        {
          "internalType": "address[]",
          "name": "",
          "type": "address[]"
        }
      ],
      "payable": false,
      "stateMutability": "view",
      "type": "function"
    },
    {
      "constant": true,
      "inputs": [
        {
          "internalType": "uint256[]",
          "name": "_stakingEpochs",
          "type": "uint256[]"
        },
        {
          "internalType": "address",
          "name": "_poolStakingAddress",
          "type": "address"
        },
        {
          "internalType": "address",
          "name": "_staker",
          "type": "address"
        }
      ],
      "name": "getRewardAmount",
      "outputs": [
        {
          "internalType": "uint256",
          "name": "",
          "type": "uint256"
        }
      ],
      "payable": false,
      "stateMutability": "view",
      "type": "function"
    },
    {
      "constant": false,
      "inputs": [],
      "name": "incrementStakingEpoch",
      "outputs": [],
      "payable": false,
      "stateMutability": "nonpayable",
      "type": "function"
    },
    {
      "constant": false,
      "inputs": [
        {
          "internalType": "address",
          "name": "_validatorSetContract",
          "type": "address"
        },
        {
          "internalType": "address[]",
          "name": "_initialStakingAddresses",
          "type": "address[]"
        },
        {
          "internalType": "uint256",
          "name": "_delegatorMinStake",
          "type": "uint256"
        },
        {
          "internalType": "uint256",
          "name": "_candidateMinStake",
          "type": "uint256"
        },
        {
          "internalType": "uint256",
          "name": "_stakingFixedEpochDuration",
          "type": "uint256"
        },
        {
          "internalType": "uint256",
          "name": "_stakingTransitionTimeframeLength",
          "type": "uint256"
        },
        {
          "internalType": "uint256",
          "name": "_stakingWithdrawDisallowPeriod",
          "type": "uint256"
        },
        {
          "internalType": "bytes32[]",
          "name": "_publicKeys",
          "type": "bytes32[]"
        },
        {
          "internalType": "bytes16[]",
          "name": "_internetAddresses",
          "type": "bytes16[]"
        }
      ],
      "name": "initialize",
      "outputs": [],
      "payable": false,
      "stateMutability": "nonpayable",
      "type": "function"
    },
    {
      "constant": true,
      "inputs": [],
      "name": "isInitialized",
      "outputs": [
        {
          "internalType": "bool",
          "name": "",
          "type": "bool"
        }
      ],
      "payable": false,
      "stateMutability": "view",
      "type": "function"
    },
    {
      "constant": true,
      "inputs": [
        {
          "internalType": "address",
          "name": "_stakingAddress",
          "type": "address"
        }
      ],
      "name": "isPoolActive",
      "outputs": [
        {
          "internalType": "bool",
          "name": "",
          "type": "bool"
        }
      ],
      "payable": false,
      "stateMutability": "view",
      "type": "function"
    },
    {
      "constant": true,
      "inputs": [
        {
          "internalType": "address",
          "name": "_poolStakingAddress",
          "type": "address"
        },
        {
          "internalType": "address",
          "name": "_staker",
          "type": "address"
        }
      ],
      "name": "maxWithdrawAllowed",
      "outputs": [
        {
          "internalType": "uint256",
          "name": "",
          "type": "uint256"
        }
      ],
      "payable": false,
      "stateMutability": "view",
      "type": "function"
    },
    {
      "constant": true,
      "inputs": [
        {
          "internalType": "address",
          "name": "_poolStakingAddress",
          "type": "address"
        },
        {
          "internalType": "address",
          "name": "_staker",
          "type": "address"
        }
      ],
      "name": "maxWithdrawOrderAllowed",
      "outputs": [
        {
          "internalType": "uint256",
          "name": "",
          "type": "uint256"
        }
      ],
      "payable": false,
      "stateMutability": "view",
      "type": "function"
    },
    {
      "constant": false,
      "inputs": [
        {
          "internalType": "address",
          "name": "_fromPoolStakingAddress",
          "type": "address"
        },
        {
          "internalType": "address",
          "name": "_toPoolStakingAddress",
          "type": "address"
        },
        {
          "internalType": "uint256",
          "name": "_amount",
          "type": "uint256"
        }
      ],
      "name": "moveStake",
      "outputs": [],
      "payable": false,
      "stateMutability": "nonpayable",
      "type": "function"
    },
    {
      "constant": false,
      "inputs": [
        {
          "internalType": "address",
          "name": "_stakingAddress",
          "type": "address"
        }
      ],
      "name": "notifyAvailability",
      "outputs": [],
      "payable": false,
      "stateMutability": "nonpayable",
      "type": "function"
    },
    {
      "constant": false,
      "inputs": [],
      "name": "notifyKeyGenFailed",
      "outputs": [],
      "payable": false,
      "stateMutability": "nonpayable",
      "type": "function"
    },
    {
      "constant": false,
      "inputs": [
        {
          "internalType": "uint256",
          "name": "detectedOfflineTime",
          "type": "uint256"
        }
      ],
      "name": "notifyNetworkOfftimeDetected",
      "outputs": [],
      "payable": false,
      "stateMutability": "nonpayable",
      "type": "function"
    },
    {
      "constant": false,
      "inputs": [
        {
          "internalType": "address",
          "name": "_poolStakingAddress",
          "type": "address"
        },
        {
          "internalType": "int256",
          "name": "_amount",
          "type": "int256"
        }
      ],
      "name": "orderWithdraw",
      "outputs": [],
      "payable": false,
      "stateMutability": "nonpayable",
      "type": "function"
    },
    {
      "constant": true,
      "inputs": [
        {
          "internalType": "address",
          "name": "",
          "type": "address"
        },
        {
          "internalType": "address",
          "name": "",
          "type": "address"
        }
      ],
      "name": "orderWithdrawEpoch",
      "outputs": [
        {
          "internalType": "uint256",
          "name": "",
          "type": "uint256"
        }
      ],
      "payable": false,
      "stateMutability": "view",
      "type": "function"
    },
    {
      "constant": true,
      "inputs": [
        {
          "internalType": "address",
          "name": "",
          "type": "address"
        },
        {
          "internalType": "address",
          "name": "",
          "type": "address"
        }
      ],
      "name": "orderedWithdrawAmount",
      "outputs": [
        {
          "internalType": "uint256",
          "name": "",
          "type": "uint256"
        }
      ],
      "payable": false,
      "stateMutability": "view",
      "type": "function"
    },
    {
      "constant": true,
      "inputs": [
        {
          "internalType": "address",
          "name": "",
          "type": "address"
        }
      ],
      "name": "orderedWithdrawAmountTotal",
      "outputs": [
        {
          "internalType": "uint256",
          "name": "",
          "type": "uint256"
        }
      ],
      "payable": false,
      "stateMutability": "view",
      "type": "function"
    },
    {
      "constant": true,
      "inputs": [
        {
          "internalType": "address",
          "name": "",
          "type": "address"
        },
        {
          "internalType": "address",
          "name": "",
          "type": "address"
        }
      ],
      "name": "poolDelegatorInactiveIndex",
      "outputs": [
        {
          "internalType": "uint256",
          "name": "",
          "type": "uint256"
        }
      ],
      "payable": false,
      "stateMutability": "view",
      "type": "function"
    },
    {
      "constant": true,
      "inputs": [
        {
          "internalType": "address",
          "name": "",
          "type": "address"
        },
        {
          "internalType": "address",
          "name": "",
          "type": "address"
        }
      ],
      "name": "poolDelegatorIndex",
      "outputs": [
        {
          "internalType": "uint256",
          "name": "",
          "type": "uint256"
        }
      ],
      "payable": false,
      "stateMutability": "view",
      "type": "function"
    },
    {
      "constant": true,
      "inputs": [
        {
          "internalType": "address",
          "name": "_poolStakingAddress",
          "type": "address"
        }
      ],
      "name": "poolDelegators",
      "outputs": [
        {
          "internalType": "address[]",
          "name": "",
          "type": "address[]"
        }
      ],
      "payable": false,
      "stateMutability": "view",
      "type": "function"
    },
    {
      "constant": true,
      "inputs": [
        {
          "internalType": "address",
          "name": "_poolStakingAddress",
          "type": "address"
        }
      ],
      "name": "poolDelegatorsInactive",
      "outputs": [
        {
          "internalType": "address[]",
          "name": "",
          "type": "address[]"
        }
      ],
      "payable": false,
      "stateMutability": "view",
      "type": "function"
    },
    {
      "constant": true,
      "inputs": [
        {
          "internalType": "address",
          "name": "",
          "type": "address"
        }
      ],
      "name": "poolInactiveIndex",
      "outputs": [
        {
          "internalType": "uint256",
          "name": "",
          "type": "uint256"
        }
      ],
      "payable": false,
      "stateMutability": "view",
      "type": "function"
    },
    {
      "constant": true,
      "inputs": [
        {
          "internalType": "address",
          "name": "",
          "type": "address"
        }
      ],
      "name": "poolIndex",
      "outputs": [
        {
          "internalType": "uint256",
          "name": "",
          "type": "uint256"
        }
      ],
      "payable": false,
      "stateMutability": "view",
      "type": "function"
    },
    {
      "constant": true,
      "inputs": [
        {
          "internalType": "address",
          "name": "",
          "type": "address"
        }
      ],
      "name": "poolInfo",
      "outputs": [
        {
          "internalType": "bytes",
          "name": "publicKey",
          "type": "bytes"
        },
        {
          "internalType": "bytes16",
          "name": "internetAddress",
          "type": "bytes16"
        }
      ],
      "payable": false,
      "stateMutability": "view",
      "type": "function"
    },
    {
      "constant": true,
      "inputs": [
        {
          "internalType": "address",
          "name": "",
          "type": "address"
        }
      ],
      "name": "poolToBeElectedIndex",
      "outputs": [
        {
          "internalType": "uint256",
          "name": "",
          "type": "uint256"
        }
      ],
      "payable": false,
      "stateMutability": "view",
      "type": "function"
    },
    {
      "constant": true,
      "inputs": [
        {
          "internalType": "address",
          "name": "",
          "type": "address"
        }
      ],
      "name": "poolToBeRemovedIndex",
      "outputs": [
        {
          "internalType": "uint256",
          "name": "",
          "type": "uint256"
        }
      ],
      "payable": false,
      "stateMutability": "view",
      "type": "function"
    },
    {
      "constant": false,
      "inputs": [],
      "name": "removeMyPool",
      "outputs": [],
      "payable": false,
      "stateMutability": "nonpayable",
      "type": "function"
    },
    {
      "constant": false,
      "inputs": [
        {
          "internalType": "address",
          "name": "_stakingAddress",
          "type": "address"
        }
      ],
      "name": "removePool",
      "outputs": [],
      "payable": false,
      "stateMutability": "nonpayable",
      "type": "function"
    },
    {
      "constant": false,
      "inputs": [],
      "name": "removePools",
      "outputs": [],
      "payable": false,
      "stateMutability": "nonpayable",
      "type": "function"
    },
    {
      "constant": true,
      "inputs": [
        {
          "internalType": "address",
          "name": "",
          "type": "address"
        },
        {
          "internalType": "address",
          "name": "",
          "type": "address"
        },
        {
          "internalType": "uint256",
          "name": "",
          "type": "uint256"
        }
      ],
      "name": "rewardWasTaken",
      "outputs": [
        {
          "internalType": "bool",
          "name": "",
          "type": "bool"
        }
      ],
      "payable": false,
      "stateMutability": "view",
      "type": "function"
    },
    {
      "constant": false,
      "inputs": [
        {
          "internalType": "uint256",
          "name": "_minStake",
          "type": "uint256"
        }
      ],
      "name": "setCandidateMinStake",
      "outputs": [],
      "payable": false,
      "stateMutability": "nonpayable",
      "type": "function"
    },
    {
      "constant": false,
      "inputs": [
        {
          "internalType": "uint256",
          "name": "_minStake",
          "type": "uint256"
        }
      ],
      "name": "setDelegatorMinStake",
      "outputs": [],
      "payable": false,
      "stateMutability": "nonpayable",
      "type": "function"
    },
    {
      "constant": false,
      "inputs": [
        {
          "internalType": "bytes",
          "name": "_publicKey",
          "type": "bytes"
        },
        {
          "internalType": "bytes16",
          "name": "_ip",
          "type": "bytes16"
        }
      ],
      "name": "setPoolInfo",
      "outputs": [],
      "payable": false,
      "stateMutability": "nonpayable",
      "type": "function"
    },
    {
      "constant": false,
      "inputs": [
        {
          "internalType": "uint256",
          "name": "_timestamp",
          "type": "uint256"
        }
      ],
      "name": "setStakingEpochStartTime",
      "outputs": [],
      "payable": false,
      "stateMutability": "nonpayable",
      "type": "function"
    },
    {
      "constant": false,
      "inputs": [
        {
          "internalType": "address",
          "name": "_toPoolStakingAddress",
          "type": "address"
        }
      ],
      "name": "stake",
      "outputs": [],
      "payable": true,
      "stateMutability": "payable",
      "type": "function"
    },
    {
      "constant": true,
      "inputs": [
        {
          "internalType": "address",
          "name": "",
          "type": "address"
        },
        {
          "internalType": "address",
          "name": "",
          "type": "address"
        }
      ],
      "name": "stakeAmount",
      "outputs": [
        {
          "internalType": "uint256",
          "name": "",
          "type": "uint256"
        }
      ],
      "payable": false,
      "stateMutability": "view",
      "type": "function"
    },
    {
      "constant": true,
      "inputs": [
        {
          "internalType": "address",
          "name": "_poolStakingAddress",
          "type": "address"
        },
        {
          "internalType": "address",
          "name": "_staker",
          "type": "address"
        }
      ],
      "name": "stakeAmountByCurrentEpoch",
      "outputs": [
        {
          "internalType": "uint256",
          "name": "",
          "type": "uint256"
        }
      ],
      "payable": false,
      "stateMutability": "view",
      "type": "function"
    },
    {
      "constant": true,
      "inputs": [
        {
          "internalType": "address",
          "name": "",
          "type": "address"
        }
      ],
      "name": "stakeAmountTotal",
      "outputs": [
        {
          "internalType": "uint256",
          "name": "",
          "type": "uint256"
        }
      ],
      "payable": false,
      "stateMutability": "view",
      "type": "function"
    },
    {
      "constant": true,
      "inputs": [
        {
          "internalType": "address",
          "name": "",
          "type": "address"
        },
        {
          "internalType": "address",
          "name": "",
          "type": "address"
        }
      ],
      "name": "stakeFirstEpoch",
      "outputs": [
        {
          "internalType": "uint256",
          "name": "",
          "type": "uint256"
        }
      ],
      "payable": false,
      "stateMutability": "view",
      "type": "function"
    },
    {
      "constant": true,
      "inputs": [
        {
          "internalType": "address",
          "name": "",
          "type": "address"
        },
        {
          "internalType": "address",
          "name": "",
          "type": "address"
        }
      ],
      "name": "stakeLastEpoch",
      "outputs": [
        {
          "internalType": "uint256",
          "name": "",
          "type": "uint256"
        }
      ],
      "payable": false,
      "stateMutability": "view",
      "type": "function"
    },
    {
      "constant": true,
      "inputs": [],
      "name": "stakingEpoch",
      "outputs": [
        {
          "internalType": "uint256",
          "name": "",
          "type": "uint256"
        }
      ],
      "payable": false,
      "stateMutability": "view",
      "type": "function"
    },
    {
      "constant": true,
      "inputs": [],
      "name": "stakingEpochStartBlock",
      "outputs": [
        {
          "internalType": "uint256",
          "name": "",
          "type": "uint256"
        }
      ],
      "payable": false,
      "stateMutability": "view",
      "type": "function"
    },
    {
      "constant": true,
      "inputs": [],
      "name": "stakingEpochStartTime",
      "outputs": [
        {
          "internalType": "uint256",
          "name": "",
          "type": "uint256"
        }
      ],
      "payable": false,
      "stateMutability": "view",
      "type": "function"
    },
    {
      "constant": true,
      "inputs": [],
      "name": "stakingFixedEpochDuration",
      "outputs": [
        {
          "internalType": "uint256",
          "name": "",
          "type": "uint256"
        }
      ],
      "payable": false,
      "stateMutability": "view",
      "type": "function"
    },
    {
      "constant": true,
      "inputs": [],
      "name": "stakingFixedEpochEndTime",
      "outputs": [
        {
          "internalType": "uint256",
          "name": "",
          "type": "uint256"
        }
      ],
      "payable": false,
      "stateMutability": "view",
      "type": "function"
    },
    {
      "constant": true,
      "inputs": [],
      "name": "stakingTransitionTimeframeLength",
      "outputs": [
        {
          "internalType": "uint256",
          "name": "",
          "type": "uint256"
        }
      ],
      "payable": false,
      "stateMutability": "view",
      "type": "function"
    },
    {
      "constant": true,
      "inputs": [],
      "name": "stakingWithdrawDisallowPeriod",
      "outputs": [
        {
          "internalType": "uint256",
          "name": "",
          "type": "uint256"
        }
      ],
      "payable": false,
      "stateMutability": "view",
      "type": "function"
    },
    {
      "constant": true,
      "inputs": [],
      "name": "startTimeOfNextPhaseTransition",
      "outputs": [
        {
          "internalType": "uint256",
          "name": "",
          "type": "uint256"
        }
      ],
      "payable": false,
      "stateMutability": "view",
      "type": "function"
    },
    {
      "constant": true,
      "inputs": [],
      "name": "validatorSetContract",
      "outputs": [
        {
          "internalType": "contract IValidatorSetHbbft",
          "name": "",
          "type": "address"
        }
      ],
      "payable": false,
      "stateMutability": "view",
      "type": "function"
    },
    {
      "constant": false,
      "inputs": [
        {
          "internalType": "address",
          "name": "_fromPoolStakingAddress",
          "type": "address"
        },
        {
          "internalType": "uint256",
          "name": "_amount",
          "type": "uint256"
        }
      ],
      "name": "withdraw",
      "outputs": [],
      "payable": false,
      "stateMutability": "nonpayable",
      "type": "function"
    }
  ],
  "bytecode": "0x608060405234801561001057600080fd5b5061633b80620000216000396000f3fe6080604052600436106103c25760003560e01c80639518c481116101f2578063cfef14411161010d578063edd7db75116100a0578063f3fef3a31161006f578063f3fef3a3146111ec578063f494250114611225578063fa4aaf471461123a578063fb367a9b1461126d576103c2565b8063edd7db751461117a578063edf94b821461118f578063ee435f55146111c2578063f0786096146111d7576103c2565b8063dadee88a116100dc578063dadee88a146110c6578063df6f55f5146110f9578063dfc8bf4e1461110e578063e9ab03001461113f576103c2565b8063cfef144114610fe4578063d290c21d14611017578063d958e2e91461102c578063da7a9b6a146110b1576103c2565b8063a697ecff11610185578063b42754a511610154578063b42754a514610f28578063b61ed63a14610f5b578063bc9eb2c314610f94578063c6912cc014610fcf576103c2565b8063a697ecff14610e90578063a711e6a114610ecb578063adddc0cf14610efe578063ae1aaf8014610f13576103c2565b80639e72c635116101c15780639e72c63514610de35780639ea8082b14610e0d578063a420596714610e40578063a5d54f6514610e7b576103c2565b80639518c48114610c5d578063957950a714610c985780639a7b5f1114610d085780639b03d74414610dce576103c2565b80634e9b426d116102e25780636bda157711610275578063794c0c6811610244578063794c0c6814610bb05780637b15b94c14610bc55780638247a23914610bf8578063950a651314610c22576103c2565b80636bda157714610af25780637069e74614610b2d57806373c2180314610b42578063750dd2a114610b75576103c2565b806356e4d6c2116102b157806356e4d6c2146109bd5780635fef764314610a455780636511391814610a5a578063673a2a1f14610a8d576103c2565b80634e9b426d146108925780634f9a8d8f1461093a5780635267e1d61461094f5780635659b74214610982576103c2565b80632bafde8d1161035a5780633b7d0946116103295780633b7d0946146106325780633ea15d621461066557806348aaa4a21461071e5780634d73b02c14610748576103c2565b80632bafde8d1461058757806331727730146105b1578063379b046a14610608578063392e53cd1461061d576103c2565b80631fb31e43116103965780631fb31e43146104b957806322e3d98614610509578063251441a91461051e5780632647620414610561576103c2565b80622ceebc146103fd578063028b8bdb146104525780630868c0d6146104675780631555371c146104a2575b6040805162461bcd60e51b815260206004820152600b60248201526a4e6f742070617961626c6560a81b604482015290519081900360640190fd5b34801561040957600080fd5b506104406004803603606081101561042057600080fd5b506001600160a01b03813581169160208101359091169060400135611331565b60408051918252519081900360200190f35b34801561045e57600080fd5b50610440611354565b34801561047357600080fd5b506104406004803603604081101561048a57600080fd5b506001600160a01b038135811691602001351661135a565b3480156104ae57600080fd5b506104b7611377565b005b3480156104c557600080fd5b506104ec600480360360208110156104dc57600080fd5b50356001600160a01b031661145f565b604080516001600160801b03199092168252519081900360200190f35b34801561051557600080fd5b50610440611480565b34801561052a57600080fd5b506104b76004803603606081101561054157600080fd5b506001600160a01b038135811691602081013590911690604001356114ad565b6104b76004803603602081101561057757600080fd5b50356001600160a01b03166115f2565b34801561059357600080fd5b506104b7600480360360208110156105aa57600080fd5b5035611646565b3480156105bd57600080fd5b506105f4600480360360608110156105d457600080fd5b506001600160a01b038135811691602081013590911690604001356116e9565b604080519115158252519081900360200190f35b34801561061457600080fd5b5061044061170f565b34801561062957600080fd5b506105f4611715565b34801561063e57600080fd5b506104b76004803603602081101561065557600080fd5b50356001600160a01b0316611726565b34801561067157600080fd5b506104b76004803603604081101561068857600080fd5b810190602081018135600160201b8111156106a257600080fd5b8201836020820111156106b457600080fd5b803590602001918460208302840111600160201b831117156106d557600080fd5b919080806020026020016040519081016040528093929190818152602001838360200280828437600092019190915250929550505090356001600160a01b031691506117859050565b34801561072a57600080fd5b506104b76004803603602081101561074157600080fd5b5035611ed4565b34801561075457600080fd5b506104b7600480360361012081101561076c57600080fd5b6001600160a01b038235169190810190604081016020820135600160201b81111561079657600080fd5b8201836020820111156107a857600080fd5b803590602001918460208302840111600160201b831117156107c957600080fd5b91939092823592602081013592604082013592606083013592608081013592919060c081019060a00135600160201b81111561080457600080fd5b82018360208201111561081657600080fd5b803590602001918460208302840111600160201b8311171561083757600080fd5b919390929091602081019035600160201b81111561085457600080fd5b82018360208201111561086657600080fd5b803590602001918460208302840111600160201b8311171561088757600080fd5b509092509050611f77565b34801561089e57600080fd5b506108c5600480360360208110156108b557600080fd5b50356001600160a01b0316612216565b6040805160208082528351818301528351919283929083019185019080838360005b838110156108ff5781810151838201526020016108e7565b50505050905090810190601f16801561092c5780820380516001836020036101000a031916815260200191505b509250505060405180910390f35b34801561094657600080fd5b506104406122c1565b34801561095b57600080fd5b506104406004803603602081101561097257600080fd5b50356001600160a01b03166122c7565b34801561098e57600080fd5b50610440600480360360408110156109a557600080fd5b506001600160a01b03813581169160200135166122d8565b6104b7600480360360608110156109d357600080fd5b6001600160a01b038235169190810190604081016020820135600160201b8111156109fd57600080fd5b820183602082011115610a0f57600080fd5b803590602001918460018302840111600160201b83111715610a3057600080fd5b9193509150356001600160801b0319166122f5565b348015610a5157600080fd5b5061044061240e565b348015610a6657600080fd5b5061044060048036036020811015610a7d57600080fd5b50356001600160a01b0316612414565b348015610a9957600080fd5b50610aa2612426565b60408051602080825283518183015283519192839290830191858101910280838360005b83811015610ade578181015183820152602001610ac6565b505050509050019250505060405180910390f35b348015610afe57600080fd5b5061044060048036036040811015610b1557600080fd5b506001600160a01b0381358116916020013516612488565b348015610b3957600080fd5b506104406125ef565b348015610b4e57600080fd5b50610aa260048036036020811015610b6557600080fd5b50356001600160a01b03166125f5565b348015610b8157600080fd5b5061044060048036036040811015610b9857600080fd5b506001600160a01b038135811691602001351661266a565b348015610bbc57600080fd5b5061044061269f565b348015610bd157600080fd5b506104b760048036036020811015610be857600080fd5b50356001600160a01b03166126a5565b348015610c0457600080fd5b506104b760048036036020811015610c1b57600080fd5b5035612735565b348015610c2e57600080fd5b5061044060048036036040811015610c4557600080fd5b506001600160a01b0381358116916020013516612791565b348015610c6957600080fd5b5061044060048036036040811015610c8057600080fd5b506001600160a01b0381358116916020013516612901565b348015610ca457600080fd5b50610cad61291e565b6040518080602001838152602001828103825284818151815260200191508051906020019060200280838360005b83811015610cf3578181015183820152602001610cdb565b50505050905001935050505060405180910390f35b348015610d1457600080fd5b50610d3b60048036036020811015610d2b57600080fd5b50356001600160a01b0316612981565b6040518080602001836001600160801b0319166001600160801b0319168152602001828103825284818151815260200191508051906020019080838360005b83811015610d92578181015183820152602001610d7a565b50505050905090810190601f168015610dbf5780820380516001836020036101000a031916815260200191505b50935050505060405180910390f35b348015610dda57600080fd5b50610440612a2b565b348015610def57600080fd5b506104b760048036036020811015610e0657600080fd5b5035612a31565b348015610e1957600080fd5b50610aa260048036036020811015610e3057600080fd5b50356001600160a01b0316612a93565b348015610e4c57600080fd5b5061044060048036036040811015610e6357600080fd5b506001600160a01b0381358116916020013516612b07565b348015610e8757600080fd5b50610aa2612b24565b348015610e9c57600080fd5b5061044060048036036040811015610eb357600080fd5b506001600160a01b0381358116916020013516612b84565b348015610ed757600080fd5b506105f460048036036020811015610eee57600080fd5b50356001600160a01b0316612ba1565b348015610f0a57600080fd5b506104b7612bfa565b348015610f1f57600080fd5b50610440612c5b565b348015610f3457600080fd5b5061044060048036036020811015610f4b57600080fd5b50356001600160a01b0316612c61565b348015610f6757600080fd5b506104b760048036036040811015610f7e57600080fd5b506001600160a01b038135169060200135612c73565b348015610fa057600080fd5b5061044060048036036040811015610fb757600080fd5b506001600160a01b0381358116916020013516613172565b348015610fdb57600080fd5b5061044061318f565b348015610ff057600080fd5b506104b76004803603602081101561100757600080fd5b50356001600160a01b031661319d565b34801561102357600080fd5b50610aa26134af565b34801561103857600080fd5b506104b76004803603604081101561104f57600080fd5b810190602081018135600160201b81111561106957600080fd5b82018360208201111561107b57600080fd5b803590602001918460018302840111600160201b8311171561109c57600080fd5b9193509150356001600160801b03191661350f565b3480156110bd57600080fd5b50610440613558565b3480156110d257600080fd5b50610440600480360360208110156110e957600080fd5b50356001600160a01b031661355e565b34801561110557600080fd5b50610aa2613570565b34801561111a57600080fd5b506111236135d0565b604080516001600160a01b039092168252519081900360200190f35b34801561114b57600080fd5b506104406004803603604081101561116257600080fd5b506001600160a01b03813581169160200135166135df565b34801561118657600080fd5b506104b76135fc565b34801561119b57600080fd5b50610440600480360360208110156111b257600080fd5b50356001600160a01b03166137cd565b3480156111ce57600080fd5b506104b76137df565b3480156111e357600080fd5b50610440613842565b3480156111f857600080fd5b506104b76004803603604081101561120f57600080fd5b506001600160a01b038135169060200135613848565b34801561123157600080fd5b506105f461393a565b34801561124657600080fd5b506104406004803603602081101561125d57600080fd5b50356001600160a01b031661393f565b34801561127957600080fd5b506104406004803603606081101561129057600080fd5b810190602081018135600160201b8111156112aa57600080fd5b8201836020820111156112bc57600080fd5b803590602001918460208302840111600160201b831117156112dd57600080fd5b919080806020026020016040519081016040528093929190818152602001838360200280828437600092019190915250929550506001600160a01b0383358116945060209093013590921691506139519050565b600b60209081526000938452604080852082529284528284209052825290205481565b60195481565b600f60209081526000928352604080842090915290825290205481565b6021546001600160a01b031633146113ca576040805162461bcd60e51b815260206004820152601160248201527013db9b1e4815985b1a59185d1bdc94d95d607a1b604482015290519081900360640190fd5b6060600380548060200260200160405190810160405280929190818152602001828054801561142257602002820191906000526020600020905b81546001600160a01b03168152600190910190602001808311611404575b50939450600093505050505b815181101561145b5761145382828151811061144657fe5b6020026020010151613eb3565b60010161142e565b5050565b6001600160a01b031660009081526022602052604090206001015460801b90565b601d54601b546000919015611496576001611499565b60005b60ff16601f54601b54830101039150505b90565b3a6114ef576040805162461bcd60e51b815260206004820152600d60248201526c04761735072696365206973203609c1b604482015290519081900360640190fd5b6114f7611715565b611536576040805162461bcd60e51b8152602060048201526018602482015260008051602061611d833981519152604482015290519081900360640190fd5b816001600160a01b0316836001600160a01b031614156115875760405162461bcd60e51b815260040180806020018281038252602781526020018061613d6027913960400191505060405180910390fd5b33611593848284613fd4565b61159e838284614250565b601a54604080516001600160a01b03878116825260208201869052825181861693918816927f4480d8e4b1e9095b94bf513961d26fe1d32386ebdd103d18fe8738cf4b2223ff92908290030190a450505050565b3a611634576040805162461bcd60e51b815260206004820152600d60248201526c04761735072696365206973203609c1b604482015290519081900360640190fd5b3334611641838383614250565b505050565b61164e6146f7565b6001600160a01b0316336001600160a01b03161461169d5760405162461bcd60e51b815260040180806020018281038252602b815260200180616271602b913960400191505060405180910390fd5b6116a5611715565b6116e4576040805162461bcd60e51b8152602060048201526018602482015260008051602061611d833981519152604482015290519081900360640190fd5b600a55565b601560209081526000938452604080852082529284528284209052825290205460ff1681565b601f5481565b6021546001600160a01b0316151590565b6021546001600160a01b03163314611779576040805162461bcd60e51b815260206004820152601160248201527013db9b1e4815985b1a59185d1bdc94d95d607a1b604482015290519081900360640190fd5b61178281613eb3565b50565b3a6117c7576040805162461bcd60e51b815260206004820152600d60248201526c04761735072696365206973203609c1b604482015290519081900360640190fd5b6117cf611715565b61180e576040805162461bcd60e51b8152602060048201526018602482015260008051602061611d833981519152604482015290519081900360640190fd5b336000806001600160a01b03841683146118c4576001600160a01b0380851660009081526017602090815260408083209387168352929052205491508161189c576040805162461bcd60e51b815260206004820152601d60248201527f436c61696d3a2066697273742065706f63682063616e27742062652030000000604482015290519081900360640190fd5b506001600160a01b038084166000908152601860209081526040808320938616835292905220545b60215460408051632b5aa5d760e11b815290516000926001600160a01b0316916356b54bae916004808301926020929190829003018186803b15801561190957600080fd5b505afa15801561191d573d6000803e3d6000fd5b505050506040513d602081101561193357600080fd5b5051602154604080516253517560e01b81526001600160a01b0389811660048301529151939450600093919092169162535175916024808301926020929190829003018186803b15801561198657600080fd5b505afa15801561199a573d6000803e3d6000fd5b505050506040513d60208110156119b057600080fd5b505187519091506000908190611ae057836001600160a01b031663dd03f5b9846040518263ffffffff1660e01b815260040180826001600160a01b03166001600160a01b0316815260200191505060006040518083038186803b158015611a1657600080fd5b505afa158015611a2a573d6000803e3d6000fd5b505050506040513d6000823e601f3d908101601f191682016040526020811015611a5357600080fd5b8101908080516040519392919084600160201b821115611a7257600080fd5b908301906020820185811115611a8757600080fd5b82518660208202830111600160201b82111715611aa357600080fd5b82525081516020918201928201910280838360005b83811015611ad0578181015183820152602001611ab8565b5050505090500160405250505098505b60005b8951811015611e505760008a8281518110611afa57fe5b602002602001015190508160001480611b2857508a6001830381518110611b1d57fe5b602002602001015181115b611b635760405162461bcd60e51b8152600401808060200182810382526025815260200180615dff6025913960400191505060405180910390fd5b601a548110611bb9576040805162461bcd60e51b815260206004820181905260248201527f436c61696d3a206f6e6c79206265666f72652063757272656e742065706f6368604482015290519081900360640190fd5b6001600160a01b03808b166000908152601560209081526040808320938d1683529281528282208483529052205460ff1615611bf55750611e48565b6000896001600160a01b03168b6001600160a01b031614611ce85788821015611c1f575050611e48565b818811158015611c2e57508715155b15611c3a575050611e50565b611c47828a868e8e61471c565b9350816001019850866001600160a01b031663e1ab96d88584896040518463ffffffff1660e01b815260040180848152602001838152602001826001600160a01b03166001600160a01b03168152602001935050505060206040518083038186803b158015611cb557600080fd5b505afa158015611cc9573d6000803e3d6000fd5b505050506040513d6020811015611cdf57600080fd5b50519050611d75565b866001600160a01b031663ba2d759783886040518363ffffffff1660e01b815260040180838152602001826001600160a01b03166001600160a01b031681526020019250505060206040518083038186803b158015611d4657600080fd5b505afa158015611d5a573d6000803e3d6000fd5b505050506040513d6020811015611d7057600080fd5b505190505b611d85858263ffffffff61479116565b94506001601560008d6001600160a01b03166001600160a01b0316815260200190815260200160002060008c6001600160a01b03166001600160a01b03168152602001908152602001600020600084815260200190815260200160002060006101000a81548160ff021916908315150217905550818a6001600160a01b03168c6001600160a01b03167fd3208fd5300db64b97bc442f47ade72b7ebcd9272aaecdcc04c777bb762861b9846040518082815260200191505060405180910390a450505b600101611ae3565b50836001600160a01b031663469507c683896040518363ffffffff1660e01b815260040180838152602001826001600160a01b03166001600160a01b0316815260200192505050600060405180830381600087803b158015611eb157600080fd5b505af1158015611ec5573d6000803e3d6000fd5b50505050505050505050505050565b611edc6146f7565b6001600160a01b0316336001600160a01b031614611f2b5760405162461bcd60e51b815260040180806020018281038252602b815260200180616271602b913960400191505060405180910390fd5b611f33611715565b611f72576040805162461bcd60e51b8152602060048201526018602482015260008051602061611d833981519152604482015290519081900360640190fd5b600955565b86611fc9576040805162461bcd60e51b815260206004820152601760248201527f466978656445706f63684475726174696f6e2069732030000000000000000000604482015290519081900360640190fd5b8487116120075760405162461bcd60e51b815260040180806020018281038252603d815260200180616030603d913960400191505060405180910390fd5b84612059576040805162461bcd60e51b815260206004820152601b60248201527f5769746864726177446973616c6c6f77506572696f6420697320300000000000604482015290519081900360640190fd5b856120955760405162461bcd60e51b815260040180806020018281038252602e815260200180615fdd602e913960400191505060405180910390fd5b8686106120d35760405162461bcd60e51b81526004018080602001828103825260408152602001806161dd6040913960400191505060405180910390fd5b6121858c8c8c80806020026020016040519081016040528093929190818152602001838360200280828437600081840152601f19601f820116905080830192505050505050508b8b88888080602002602001604051908101604052809392919081815260200183836020028082843760009201919091525050604080516020808c0282810182019093528b82529093508b92508a9182918501908490808284376000920191909152506147a392505050565b601b879055601985905560215460408051636c9230db60e01b815290516001600160a01b0390921691636c9230db91600480820192602092909190829003018186803b1580156121d457600080fd5b505afa1580156121e8573d6000803e3d6000fd5b505050506040513d60208110156121fe57600080fd5b5051601d55505050601c929092555050505050505050565b6001600160a01b03811660009081526022602090815260409182902080548351601f60026000196101006001861615020190931692909204918201849004840281018401909452808452606093928301828280156122b55780601f1061228a576101008083540402835291602001916122b5565b820191906000526020600020905b81548152906001019060200180831161229857829003601f168201915b50505050509050919050565b601b5481565b602080526000908152604090205481565b601760209081526000928352604080842090915290825290205481565b3a612337576040805162461bcd60e51b815260206004820152600d60248201526c04761735072696365206973203609c1b604482015290519081900360640190fd5b60215460408051630526083960e11b81526001600160a01b0387811660048301523360248301819052925192933493911691630a4c107291604480830192600092919082900301818387803b15801561238f57600080fd5b505af11580156123a3573d6000803e3d6000fd5b505050506123b2828383614250565b6001600160a01b03821660009081526022602052604090206123d5908686615c62565b50506001600160a01b0316600090815260226020526040902060010180546001600160801b03191660809290921c919091179055505050565b60095481565b60116020526000908152604090205481565b6060600080548060200260200160405190810160405280929190818152602001828054801561247e57602002820191906000526020600020905b81546001600160a01b03168152600190910190602001808311612460575b5050505050905090565b602154604080516253517560e01b81526001600160a01b03858116600483015291516000938493169162535175916024808301926020929190829003018186803b1580156124d557600080fd5b505afa1580156124e9573d6000803e3d6000fd5b505050506040513d60208110156124ff57600080fd5b5051905061251c816001600160a01b038681169086161415614c38565b61252a5760009150506125e9565b6001600160a01b038085166000908152601660209081526040808320878516845282529182902054602154835163a0d16cad60e01b8152868616600482015293519194169263a0d16cad926024808301939192829003018186803b15801561259157600080fd5b505afa1580156125a5573d6000803e3d6000fd5b505050506040513d60208110156125bb57600080fd5b50516125ca5791506125e99050565b60006125d6868661266a565b9050808211156125e4578091505b509150505b92915050565b601e5481565b6001600160a01b0381166000908152600760209081526040918290208054835181840281018401909452808452606093928301828280156122b557602002820191906000526020600020905b81546001600160a01b031681526001909101906020018083116126415750505050509050919050565b6001600160a01b039182166000908152600860209081526040808320939094168252918252828120601a548252909152205490565b601a5481565b6021546001600160a01b031633146126f8576040805162461bcd60e51b815260206004820152601160248201527013db9b1e4815985b1a59185d1bdc94d95d607a1b604482015290519081900360640190fd5b6009546001600160a01b0382166000908152601660209081526040808320909152902054106117825761272c816001614d6e565b61178281614e4a565b6021546001600160a01b03163314612788576040805162461bcd60e51b815260206004820152601160248201527013db9b1e4815985b1a59185d1bdc94d95d607a1b604482015290519081900360640190fd5b601d5543601e55565b602154604080516253517560e01b81526001600160a01b03858116600483015291516000938493169162535175916024808301926020929190829003018186803b1580156127de57600080fd5b505afa1580156127f2573d6000803e3d6000fd5b505050506040513d602081101561280857600080fd5b50519050612825816001600160a01b038681169086161415614c38565b6128335760009150506125e9565b6021546040805163a0d16cad60e01b81526001600160a01b0384811660048301529151919092169163a0d16cad916024808301926020929190829003018186803b15801561288057600080fd5b505afa158015612894573d6000803e3d6000fd5b505050506040513d60208110156128aa57600080fd5b50516128ba5760009150506125e9565b6128f96128c7858561266a565b6001600160a01b038087166000908152601660209081526040808320938916835292905220549063ffffffff614f0a16565b949350505050565b601060209081526000928352604080842090915290825290205481565b6060600060046005548180548060200260200160405190810160405280929190818152602001828054801561297257602002820191906000526020600020905b81548152602001906001019080831161295e575b50505050509150915091509091565b60226020908152600091825260409182902080548351601f60026000196101006001861615020190931692909204918201849004840281018401909452808452909291839190830182828015612a185780601f106129ed57610100808354040283529160200191612a18565b820191906000526020600020905b8154815290600101906020018083116129fb57829003601f168201915b5050506001909301549192505060801b82565b601d5481565b6021546001600160a01b03163314612a84576040805162461bcd60e51b815260206004820152601160248201527013db9b1e4815985b1a59185d1bdc94d95d607a1b604482015290519081900360640190fd5b601c54601f8054909201019055565b6001600160a01b0381166000908152600660209081526040918290208054835181840281018401909452808452606093928301828280156122b5576020028201919060005260206000209081546001600160a01b031681526001909101906020018083116126415750505050509050919050565b600e60209081526000928352604080842090915290825290205481565b6060600280548060200260200160405190810160405280929190818152602001828054801561247e576020028201919060005260206000209081546001600160a01b03168152600190910190602001808311612460575050505050905090565b601660209081526000928352604080842090915290825290205481565b6001600160a01b038116600090815260126020526040812054815481108015612bf35750826001600160a01b031660008281548110612bdc57fe5b6000918252602090912001546001600160a01b0316145b9392505050565b6021546001600160a01b03163314612c4d576040805162461bcd60e51b815260206004820152601160248201527013db9b1e4815985b1a59185d1bdc94d95d607a1b604482015290519081900360640190fd5b601c54601f80549091019055565b601c5481565b60126020526000908152604090205481565b3a612cb5576040805162461bcd60e51b815260206004820152600d60248201526c04761735072696365206973203609c1b604482015290519081900360640190fd5b612cbd611715565b612cfc576040805162461bcd60e51b8152602060048201526018602482015260008051602061611d833981519152604482015290519081900360640190fd5b6001600160a01b038216612d415760405162461bcd60e51b8152600401808060200182810382526022815260200180615e826022913960400191505060405180910390fd5b80612d7d5760405162461bcd60e51b815260040180806020018281038252602581526020018061600b6025913960400191505060405180910390fd5b602154604080516253517560e01b81526001600160a01b03858116600483015291513393612e0c93169162535175916024808301926020929190829003018186803b158015612dcb57600080fd5b505afa158015612ddf573d6000803e3d6000fd5b505050506040513d6020811015612df557600080fd5b50516001600160a01b038381169086161415614c38565b612e5d576040805162461bcd60e51b815260206004820152601a60248201527f4f7264657257697468647261773a206e6f7420616c6c6f776564000000000000604482015290519081900360640190fd5b6001600160a01b038084166000818152600c6020908152604080832094861680845294825280832054848452600d835281842054601684528285209685529583528184205494845291805282205490939291861315612f775785612ec18887612791565b811115612eff5760405162461bcd60e51b815260040180806020018281038252602f8152602001806162d8602f913960400191505060405180910390fd5b612f0f858263ffffffff61479116565b9450612f21848263ffffffff61479116565b9350612f33838263ffffffff614f0a16565b9250612f45828263ffffffff614f0a16565b601a546001600160a01b03808b166000908152600e60209081526040808320938c16835292905220559150612fc69050565b6000869003612f8c858263ffffffff614f0a16565b9450612f9e848263ffffffff614f0a16565b9350612fb0838263ffffffff61479116565b9250612fc2828263ffffffff61479116565b9150505b6001600160a01b038088166000818152600c60209081526040808320948a16808452948252808320899055838352600d8252808320889055601682528083208584528252808320879055838352908052902083905514156130975781158061303057506009548210155b61306b5760405162461bcd60e51b8152600401808060200182810382526033815260200180615ea46033913960400191505060405180910390fd5b600086131561308757816130825761308287614f1f565b613092565b613092876001614d6e565b613112565b8115806130a65750600a548210155b6130e15760405162461bcd60e51b8152600401808060200182810382526033815260200180615ea46033913960400191505060405180910390fd5b60008613156130fe57816130f9576130f98786614fdd565b613108565b6131088786615135565b61311287866151f7565b61311b87614e4a565b601a54856001600160a01b0316886001600160a01b03167f80d5c777e5f7ac6ee89723223803ca5c0ec0204f89e99c1b0cde973c66a64594896040518082815260200191505060405180910390a450505050505050565b601860209081526000928352604080842090915290825290205481565b601c54601b54601d54010390565b3a6131df576040805162461bcd60e51b815260206004820152600d60248201526c04761735072696365206973203609c1b604482015290519081900360640190fd5b6131e7611715565b613226576040805162461bcd60e51b8152602060048201526018602482015260008051602061611d833981519152604482015290519081900360640190fd5b6001600160a01b0381166000908152600e6020908152604080832033808552925290912054601a541161328a5760405162461bcd60e51b815260040180806020018281038252603f815260200180616096603f913960400191505060405180910390fd5b602154604080516253517560e01b81526001600160a01b038581166004830152915161331b9392909216916253517591602480820192602092909190829003018186803b1580156132da57600080fd5b505afa1580156132ee573d6000803e3d6000fd5b505050506040513d602081101561330457600080fd5b50516001600160a01b038381169085161415614c38565b6133565760405162461bcd60e51b815260040180806020018281038252602a815260200180616247602a913960400191505060405180910390fd5b6001600160a01b038083166000908152600c6020908152604080832093851683529290522054806133ce576040805162461bcd60e51b815260206004820152601a60248201527f636c61696d20616d6f756e74206d757374206e6f742062652030000000000000604482015290519081900360640190fd5b6001600160a01b038084166000818152600c602090815260408083209487168352938152838220829055918152600d9091522054613412908263ffffffff614f0a16565b6001600160a01b038085166000908152600d60209081526040808320949094556016815283822092861682529190915220546134525761345283836152e9565b61345c828261543c565b601a54826001600160a01b0316846001600160a01b03167ff380b0bc887e00f5b50d3c9d4eaaf5c9a0afd97b956316b995159384c4ede9b3846040518082815260200191505060405180910390a4505050565b6060600380548060200260200160405190810160405280929190818152602001828054801561247e576020028201919060005260206000209081546001600160a01b03168152600190910190602001808311612460575050505050905090565b336000908152602260205260409020613529908484615c62565b5033600090815260226020526040902060010180546001600160801b03191660809290921c9190911790555050565b600a5481565b600d6020526000908152604090205481565b6060600180548060200260200160405190810160405280929190818152602001828054801561247e576020028201919060005260206000209081546001600160a01b03168152600190910190602001808311612460575050505050905090565b6021546001600160a01b031681565b600c60209081526000928352604080842090915290825290205481565b3a61363e576040805162461bcd60e51b815260206004820152600d60248201526c04761735072696365206973203609c1b604482015290519081900360640190fd5b613646611715565b613685576040805162461bcd60e51b8152602060048201526018602482015260008051602061611d833981519152604482015290519081900360640190fd5b602154604080516253517560e01b81523360048201819052915191926000926001600160a01b039091169162535175916024808301926020929190829003018186803b1580156136d457600080fd5b505afa1580156136e8573d6000803e3d6000fd5b505050506040513d60208110156136fe57600080fd5b5051601a5490915015158061378957506021546040805163facd743b60e01b81526001600160a01b0384811660048301529151919092169163facd743b916024808301926020929190829003018186803b15801561375b57600080fd5b505afa15801561376f573d6000803e3d6000fd5b505050506040513d602081101561378557600080fd5b5051155b6137c45760405162461bcd60e51b815260040180806020018281038252602a81526020018061621d602a913960400191505060405180910390fd5b61145b82613eb3565b60146020526000908152604090205481565b6021546001600160a01b03163314613832576040805162461bcd60e51b815260206004820152601160248201527013db9b1e4815985b1a59185d1bdc94d95d607a1b604482015290519081900360640190fd5b601a805460010190556000601f55565b610bb881565b3a61388a576040805162461bcd60e51b815260206004820152600d60248201526c04761735072696365206973203609c1b604482015290519081900360640190fd5b613892611715565b6138d1576040805162461bcd60e51b8152602060048201526018602482015260008051602061611d833981519152604482015290519081900360640190fd5b336138dd838284613fd4565b6138e7818361543c565b601a54816001600160a01b0316846001600160a01b03167fa7c0f0cac6bd4d18042007706c84a8abe823751cf289b69c01e83eef7b5915c7856040518082815260200191505060405180910390a4505050565b600190565b60136020526000908152604090205481565b6000806000836001600160a01b0316856001600160a01b0316146139fb576001600160a01b038086166000908152601760209081526040808320938816835292905220549150816139d35760405162461bcd60e51b815260040180806020018281038252602e815260200180615e24602e913960400191505060405180910390fd5b506001600160a01b038085166000908152601860209081526040808320938716835292905220545b60215460408051632b5aa5d760e11b815290516000926001600160a01b0316916356b54bae916004808301926020929190829003018186803b158015613a4057600080fd5b505afa158015613a54573d6000803e3d6000fd5b505050506040513d6020811015613a6a57600080fd5b5051602154604080516253517560e01b81526001600160a01b038a811660048301529151939450600093919092169162535175916024808301926020929190829003018186803b158015613abd57600080fd5b505afa158015613ad1573d6000803e3d6000fd5b505050506040513d6020811015613ae757600080fd5b505188519091506000908190613c1757836001600160a01b031663dd03f5b9846040518263ffffffff1660e01b815260040180826001600160a01b03166001600160a01b0316815260200191505060006040518083038186803b158015613b4d57600080fd5b505afa158015613b61573d6000803e3d6000fd5b505050506040513d6000823e601f3d908101601f191682016040526020811015613b8a57600080fd5b8101908080516040519392919084600160201b821115613ba957600080fd5b908301906020820185811115613bbe57600080fd5b82518660208202830111600160201b82111715613bda57600080fd5b82525081516020918201928201910280838360005b83811015613c07578181015183820152602001613bef565b5050505090500160405250505099505b60005b8a51811015613ea55760008b8281518110613c3157fe5b602002602001015190508160001480613c5f57508b6001830381518110613c5457fe5b602002602001015181115b613c9a5760405162461bcd60e51b8152600401808060200182810382526036815260200180615efc6036913960400191505060405180910390fd5b601a548110613cda5760405162461bcd60e51b815260040180806020018281038252603c81526020018061629c603c913960400191505060405180910390fd5b6001600160a01b03808c166000908152601560209081526040808320938e1683529281528282208483529052205460ff1615613d165750613e9d565b60008a6001600160a01b03168c6001600160a01b031614613e095788821015613d40575050613e9d565b818811158015613d4f57508715155b15613d5b575050613ea5565b613d68828a878f8f61471c565b9450816001019850866001600160a01b031663e1ab96d88684896040518463ffffffff1660e01b815260040180848152602001838152602001826001600160a01b03166001600160a01b03168152602001935050505060206040518083038186803b158015613dd657600080fd5b505afa158015613dea573d6000803e3d6000fd5b505050506040513d6020811015613e0057600080fd5b50519050613e96565b866001600160a01b031663ba2d759783886040518363ffffffff1660e01b815260040180838152602001826001600160a01b03166001600160a01b031681526020019250505060206040518083038186803b158015613e6757600080fd5b505afa158015613e7b573d6000803e3d6000fd5b505050506040513d6020811015613e9157600080fd5b505190505b9290920191505b600101613c1a565b509998505050505050505050565b6001600160a01b038116600090815260126020526040812054905481108015613f055750816001600160a01b031660008281548110613eee57fe5b6000918252602090912001546001600160a01b0316145b15613f9d576000805481906000198101908110613f1e57fe5b600091825260208220015481546001600160a01b03909116925082919084908110613f4557fe5b600091825260208083209190910180546001600160a01b0319166001600160a01b0394851617905583831682526012905260408082208590559185168152908120819055805490613f9a906000198301615ce0565b50505b613fa68261549f565b15613fb957613fb4826154dc565b613fc2565b613fc2826155c8565b613fcb82615680565b61145b82615824565b6001600160a01b0383166140195760405162461bcd60e51b815260040180806020018281038252602e815260200180615f32602e913960400191505060405180910390fd5b8061406b576040805162461bcd60e51b815260206004820181905260248201527f616d6f756e7420746f207769746864726177206d757374206e6f742062652030604482015290519081900360640190fd5b6140758383612488565b8111156140b35760405162461bcd60e51b8152600401808060200182810382526025815260200180615ed76025913960400191505060405180910390fd5b6001600160a01b0380841660009081526016602090815260408083209386168352929052908120546140eb908363ffffffff614f0a16565b90506000836001600160a01b0316856001600160a01b03161461411057600a54614114565b6009545b90508115806141235750808210155b61415e5760405162461bcd60e51b81526004018080602001828103825260398152602001806161a46039913960400191505060405180910390fd5b6001600160a01b0380861660009081526016602090815260408083209388168352929052908120839055614192868661266a565b9050838110156141a35760006141a7565b8381035b6001600160a01b038088166000818152600860209081526040808320948b168352938152838220601a5483528152838220949094559081529180529020546141f5908563ffffffff614f0a16565b6001600160a01b03871660009081526020805260409020558261421c5761421c86866152e9565b856001600160a01b0316856001600160a01b03161461423f5761423f86866151f7565b61424886614e4a565b505050505050565b602154604080516253517560e01b81526001600160a01b038681166004830152915160009392909216916253517591602480820192602092909190829003018186803b15801561429f57600080fd5b505afa1580156142b3573d6000803e3d6000fd5b505050506040513d60208110156142c957600080fd5b505190506001600160a01b0381166143125760405162461bcd60e51b81526004018080602001828103825260408152602001806161646040913960400191505060405180910390fd5b6001600160a01b03841661436d576040805162461bcd60e51b815260206004820152601a60248201527f5374616b653a207374616b696e67416464726573732069732030000000000000604482015290519081900360640190fd5b816143bf576040805162461bcd60e51b815260206004820152601960248201527f5374616b653a207374616b696e67416d6f756e74206973203000000000000000604482015290519081900360640190fd5b60215460408051635491295760e11b81526001600160a01b0384811660048301529151919092169163a92252ae916024808301926020929190829003018186803b15801561440c57600080fd5b505afa158015614420573d6000803e3d6000fd5b505050506040513d602081101561443657600080fd5b50511561448a576040805162461bcd60e51b815260206004820152601f60248201527f5374616b653a204d696e696e6720616464726573732069732062616e6e656400604482015290519081900360640190fd5b6001600160a01b0380851660009081526016602090815260408083209387168352929052908120546144c2908463ffffffff61479116565b9050846001600160a01b0316846001600160a01b031614156145245760095481101561451f5760405162461bcd60e51b8152600401808060200182810382526031815260200180615f8a6031913960400191505060405180910390fd5b6145c1565b600a548110156145655760405162461bcd60e51b8152600401808060200182810382526034815260200180615dcb6034913960400191505060405180910390fd5b6001600160a01b03851660009081526016602090815260408083209091529020546145c15760405162461bcd60e51b81526004018080602001828103825260238152602001806160fa6023913960400191505060405180910390fd5b6001600160a01b038086166000908152601660209081526040808320938816835292905220819055614603836145f7878761266a565b9063ffffffff61479116565b6001600160a01b038087166000818152600860209081526040808320948a168352938152838220601a548352815283822094909455908152918052902054614651908463ffffffff61479116565b6001600160a01b0380871660008181526020805260409020929092558516141561468557614680856001614d6e565b614699565b61468f8585615135565b61469985856151f7565b6146a285614e4a565b601a54846001600160a01b0316866001600160a01b03167f2273de02cb1f69ba6259d22c4bc22c60e4c94c193265ef6afee324a04a9b6d22866040518082815260200191505060405180910390a45050505050565b7fb53127684a568b3173ae13b9f8a6016e243e63b6e8ee1178d6a717850b5d61035490565b60005b506001600160a01b038083166000908152600b60209081526040808320938516835292815282822088835290522054801561476d5760001981146147635780614766565b60005b9050614788565b8486141561477c575082614788565b6000199095019461471f565b95945050505050565b600082820183811015612bf357600080fd5b6147ab6146f7565b6001600160a01b0316336001600160a01b031614806147e257506147cd6146f7565b6001600160a01b0316326001600160a01b0316145b806147fb57506147f06146f7565b6001600160a01b0316155b80614804575043155b61483f5760405162461bcd60e51b8152600401808060200182810382526030815260200180615e526030913960400191505060405180910390fd5b614847611715565b1561488f576040805162461bcd60e51b8152602060048201526013602482015272105b1c9958591e481a5b9a5d1a585b1a5e9959606a1b604482015290519081900360640190fd5b6001600160a01b0386166148ea576040805162461bcd60e51b815260206004820152601760248201527f56616c696461746f725365742063616e27742062652030000000000000000000604482015290519081900360640190fd5b600085511161492a5760405162461bcd60e51b81526004018080602001828103825260258152602001806160d56025913960400191505060405180910390fd5b8151855161493f90600263ffffffff61591016565b1461497b5760405162461bcd60e51b815260040180806020018281038252602981526020018061606d6029913960400191505060405180910390fd5b80518551146149bb5760405162461bcd60e51b815260040180806020018281038252602a815260200180615f60602a913960400191505060405180910390fd5b83614a06576040805162461bcd60e51b8152602060048201526016602482015275044656c656761746f724d696e5374616b6520697320360541b604482015290519081900360640190fd5b82614a51576040805162461bcd60e51b8152602060048201526016602482015275043616e6469646174654d696e5374616b6520697320360541b604482015290519081900360640190fd5b602180546001600160a01b0319166001600160a01b03881617905560005b8551811015614c285760006001600160a01b0316868281518110614a8f57fe5b60200260200101516001600160a01b03161415614add5760405162461bcd60e51b8152600401808060200182810382526022815260200180615fbb6022913960400191505060405180910390fd5b614afb868281518110614aec57fe5b60200260200101516000614d6e565b614b17868281518110614b0a57fe5b6020026020010151614f1f565b828160020281518110614b2657fe5b6020026020010151838260020260010181518110614b4057fe5b6020026020010151604051602001808381526020018281526020019250505060405160208183030381529060405260226000888481518110614b7e57fe5b60200260200101516001600160a01b03166001600160a01b031681526020019081526020016000206000019080519060200190614bbc929190615d04565b50818181518110614bc957fe5b602002602001015160226000888481518110614be157fe5b6020908102919091018101516001600160a01b03168252810191909152604001600020600190810180546001600160801b03191660809390931c9290921790915501614a6f565b505050600a919091556009555050565b60008115614ccb576021546040805163a881c5fd60e01b81526001600160a01b0386811660048301529151919092169163a881c5fd916024808301926020929190829003018186803b158015614c8d57600080fd5b505afa158015614ca1573d6000803e3d6000fd5b505050506040513d6020811015614cb757600080fd5b505115614cc6575060006125e9565b614d51565b60215460408051635491295760e11b81526001600160a01b0386811660048301529151919092169163a92252ae916024808301926020929190829003018186803b158015614d1857600080fd5b505afa158015614d2c573d6000803e3d6000fd5b505050506040513d6020811015614d4257600080fd5b505115614d51575060006125e9565b614d5961393a565b614d65575060006125e9565b50600192915050565b614d7782612ba1565b614e3257600080546001600160a01b0384168083526012602052604083208290556001820183559180527f290decd9548b62a8d60345a988386fc84ba6bc95484008f6362f93160ef3e5630180546001600160a01b0319169091179055614ddc615937565b6000541115614e32576040805162461bcd60e51b815260206004820152601d60248201527f4d41585f43414e4449444154455320706f6f6c73206578636565646564000000604482015290519081900360640190fd5b614e3b826154dc565b801561145b5761145b8261593d565b600080614e5683615a2c565b9150915081614e66575050611782565b600060048281548110614e7557fe5b90600052602060002001549050600060206000866001600160a01b03166001600160a01b031681526020019081526020016000205490508060048481548110614eba57fe5b600091825260209091200155818110614eea57600554614ee29083830363ffffffff61479116565b600555614f03565b600554614eff9082840363ffffffff614f0a16565b6005555b5050505050565b600082821115614f1957600080fd5b50900390565b6001600160a01b0381166000908152601460205260409020546003548082101580614f745750826001600160a01b031660038381548110614f5c57fe5b6000918252602090912001546001600160a01b031614155b15614fd4576001600160a01b03831660008181526014602052604081208390556003805460018101825591527fc2575a0e9e593c00f959f8c92f12db2869c3395a3b0502d05e2516446f71f85b0180546001600160a01b03191690911790555b61164183615680565b6001600160a01b038083166000908152600660209081526040808320600f83528184209486168452939091529020548154811080156150445750826001600160a01b031682828154811061502d57fe5b6000918252602090912001546001600160a01b0316145b156150eb5781546000908390600019810190811061505e57fe5b9060005260206000200160009054906101000a90046001600160a01b031690508083838154811061508b57fe5b600091825260208083209190910180546001600160a01b0319166001600160a01b039485161790558783168252600f81526040808320858516845290915280822085905591861681529081205582546150e8846000198301615ce0565b50505b6001600160a01b038085166000908152600c602090815260408083209387168352929052205415615125576151208484615a99565b61512f565b61512f8484615b57565b50505050565b6001600160a01b038083166000908152600660209081526040808320600f83528184209486168452939091529020548154808210158061519e5750836001600160a01b031683838154811061518657fe5b6000918252602090912001546001600160a01b031614155b156151ed576001600160a01b038086166000908152600f602090815260408083209388168084529382528220849055855460018101875586835291200180546001600160a01b03191690911790555b614f038585615b57565b601a546001600160a01b038084166000908152601660209081526040808320938616835292905220546001909101908061523357600019615235565b805b6001600160a01b038086166000818152600b602090815260408083209489168084529482528083208884528252808320959095559181526017825283812092815291905220546152a8576001600160a01b0380851660009081526017602090815260408083209387168352929052208290555b80156152b55760006152b7565b815b6001600160a01b0394851660009081526018602090815260408083209690971682529490945293909220929092555050565b816001600160a01b0316816001600160a01b0316141561541b57602154604080516253517560e01b81526001600160a01b038581166004830152915160009392909216916253517591602480820192602092909190829003018186803b15801561535257600080fd5b505afa158015615366573d6000803e3d6000fd5b505050506040513d602081101561537c57600080fd5b50516021546040805163facd743b60e01b81526001600160a01b038085166004830152915193945091169163facd743b91602480820192602092909190829003018186803b1580156153cd57600080fd5b505afa1580156153e1573d6000803e3d6000fd5b505050506040513d60208110156153f757600080fd5b50511561540c5761540783614f1f565b615415565b61541583613eb3565b5061145b565b6154258282614fdd565b61542e8261549f565b1561145b5761145b826154dc565b6040516001600160a01b0383169082156108fc029083906000818181858888f1935050505061145b57808260405161547390615d72565b6001600160a01b039091168152604051908190036020019082f080158015614f03573d6000803e3d6000fd5b6001600160a01b03811660009081526020805260408120541580156125e95750506001600160a01b03166000908152600d60205260409020541590565b6001600160a01b0381166000908152601160205260409020546001548110801561552f5750816001600160a01b03166001828154811061551857fe5b6000918252602090912001546001600160a01b0316145b1561145b576001805460009190600019810190811061554a57fe5b600091825260209091200154600180546001600160a01b03909216925082918490811061557357fe5b600091825260208083209190910180546001600160a01b0319166001600160a01b039485161790558383168252601190526040808220859055918516815290812055600180549061512f906000198301615ce0565b6001600160a01b038116600090815260116020526040902054600154808210158061561d5750826001600160a01b03166001838154811061560557fe5b6000918252602090912001546001600160a01b031614155b15611641576001600160a01b038316600081815260116020526040812083905560018054808201825591527fb10e2d527612073b26eecdfd717e6a320cf44b4afac2b0732d9fcbe2b7fa0cf60180546001600160a01b0319169091179055505050565b6004546002541461569057611782565b6001600160a01b038116600090815260136020526040902054600254811080156156e35750816001600160a01b0316600282815481106156cc57fe5b6000918252602090912001546001600160a01b0316145b1561145b57600481815481106156f557fe5b906000526020600020015460055410615730576004818154811061571557fe5b60009182526020909120015460058054919091039055615736565b60006005555b600280546000198101916000918390811061574d57fe5b600091825260209091200154600280546001600160a01b03909216925082918590811061577657fe5b9060005260206000200160006101000a8154816001600160a01b0302191690836001600160a01b03160217905550600482815481106157b157fe5b9060005260206000200154600484815481106157c957fe5b60009182526020808320909101929092556001600160a01b038084168252601390925260408082208690559186168152908120556002805490615810906000198301615ce0565b506004805490614f03906000198301615ce0565b6001600160a01b038116600090815260146020526040902054600354811080156158775750816001600160a01b03166003828154811061586057fe5b6000918252602090912001546001600160a01b0316145b1561145b576003805460009190600019810190811061589257fe5b600091825260209091200154600380546001600160a01b0390921692508291849081106158bb57fe5b600091825260208083209190910180546001600160a01b0319166001600160a01b039485161790558383168252601490526040808220859055918516815290812055600380549061512f906000198301615ce0565b60008261591f575060006125e9565b8282028284828161592c57fe5b0414612bf357600080fd5b610bb890565b6001600160a01b03811660009081526013602052604090205460025480821015806159925750826001600160a01b03166002838154811061597a57fe5b6000918252602090912001546001600160a01b031614155b15615a23576001600160a01b03831660008181526013602052604081208390556002805460018181019092557f405787fa12a823e0f2b7631cc41b3ba8828b3321ca811111fa75cd3aa3bb5ace0180546001600160a01b03191690931790925560048054928301815581527f8a35acfbc15ff81a39ae7d344fd709f28e8600b4aa8c65c6b64bfe7fe36bd19b909101555b61164183615824565b6001600160a01b03811660009081526013602052604081205460025481108015615a7f5750826001600160a01b031660028281548110615a6857fe5b6000918252602090912001546001600160a01b0316145b15615a8d5760019150615a94565b5060009050805b915091565b6001600160a01b0380831660009081526007602090815260408083206010835281842094861684529390915290205481548082101580615b025750836001600160a01b0316838381548110615aea57fe5b6000918252602090912001546001600160a01b031614155b15614f03576001600160a01b0380861660009081526010602090815260408083209388168084529382528220849055855460018101875586835291200180546001600160a01b03191690911790555050505050565b6001600160a01b03808316600090815260076020908152604080832060108352818420948616845293909152902054815481108015615bbe5750826001600160a01b0316828281548110615ba757fe5b6000918252602090912001546001600160a01b0316145b1561512f57815460009083906000198101908110615bd857fe5b9060005260206000200160009054906101000a90046001600160a01b0316905080838381548110615c0557fe5b600091825260208083209190910180546001600160a01b0319166001600160a01b03948516179055878316825260108152604080832085851684529091528082208590559186168152908120558254614248846000198301615ce0565b828054600181600116156101000203166002900490600052602060002090601f016020900481019282601f10615ca35782800160ff19823516178555615cd0565b82800160010185558215615cd0579182015b82811115615cd0578235825591602001919060010190615cb5565b50615cdc929150615d7e565b5090565b81548183558181111561164157600083815260209020611641918101908301615d7e565b828054600181600116156101000203166002900490600052602060002090601f016020900481019282601f10615d4557805160ff1916838001178555615cd0565b82800160010185558215615cd0579182015b82811115615cd0578251825591602001919060010190615d57565b603280615d9983390190565b6114aa91905b80821115615cdc5760008155600101615d8456fe60806040526040516032380380603283398181016040526020811015602357600080fd5b50516001600160a01b038116fffe5374616b653a2064656c656761746f725374616b65206973206c657373207468616e2064656c656761746f724d696e5374616b65436c61696d3a206e656564207374726963746c7920696e6372656173696e67206f72646572556e61626c6520746f206765742072657761726420616d6f756e74206966206e6f2066697273742065706f63682e496e697469616c697a6174696f6e206f6e6c79206f6e2067656e6573697320626c6f636b206f722062792061646d696e706f6f6c5374616b696e6741646472657373206d757374206e6f74206265203078306e65775374616b6520416d6f756e74206d7573742062652067726561746572207468616e20746865206d696e207374616b652e57697468647261773a206d61785769746864726177416c6c6f776564206578636565646564696e7465726e616c204572726f723a205374616b696e672045706f63687320726571756972656420746f206265206f7264657265642e576974686472617720706f6f6c207374616b696e672061646472657373206d757374206e6f74206265206e756c6c4d7573742070726f7669646520636f7272656374206e756d626572206f662049502061647265737365735374616b653a2063616e6469646174655374616b65206c657373207468616e2063616e6469646174654d696e5374616b65496e697469616c5374616b696e674164647265737365732063616e27742062652030546865207472616e736974696f6e2074696d656672616d65206d757374206265206c6f6e676572207468616e20306f72646572656420776974686472617720616d6f756e74206d757374206e6f742062652030466978656445706f63684475726174696f6e206d757374206265206c6f6e676572207468616e207769746864726177446973616c6c6f77506572696f644d7573742070726f7669646520636f7272656374206e756d626572206f66207075626c69634b65797363616e6e6f7420636c61696d206f72646572656420776974686472617720696e207468652073616d652065706f636820697420776173206f7264657265642e4d7573742070726f7669646520696e697469616c206d696e696e67206164647265737365735374616b653a2063616e27742064656c656761746520696e20656d70747920706f6f6c436f6e7472616374206e6f7420696e697469616c697a656400000000000000004d6f76655374616b653a2073726320616e642064737420706f6f6c206973207468652073616d65506f6f6c20646f6573206e6f742065786973742e206d696e696e674164647265737320666f722074686174207374616b696e67206164647265737320697320306e65775374616b6520616d6f756e74206d757374206265206772656174657220657175616c207468616e20746865206d696e207374616b652e546865207472616e736974696f6e2074696d656672616d65206d7573742062652073686f72746572207468656e207468652065706f6368206475726174696f6e43616e27742072656d6f766520706f6f6c20647572696e6720317374207374616b696e672065706f6368436c61696d4f72646572656457697468647261773a205769746864726177206e6f7420616c6c6f7765646f6e6c792061646d696e20697320616c6c6f77656420746f2063616c6c20746869732066756e6374696f6e696e7465726e616c204572726f723a2065706f6368206d757374206e6f74206265206c6573736572207468616e2063757272656e742065706f63682e4f7264657257697468647261773a206d617857697468647261774f72646572416c6c6f776564206578636565646564a265627a7a72315820585ee82f6d17ae49f7a5f2ae416929ebce325ab3b7e0e9fc018acbff247d48ef64736f6c63430005110032",
  "source": "pragma solidity ^0.5.16;\n\nimport \"./base/StakingHbbftCoins.sol\";\n\n\ncontract StakingHbbft is StakingHbbftCoins {}\n",
  "sourcePath": "/home/sn/dmd/dmd-meta/hbbft-posdao-contracts/contracts/StakingHbbft.sol",
  "compiler": {
    "name": "solc",
    "version": "0.5.17+commit.d19bba13.Emscripten.clang"
  },
  "schemaVersion": "3.3.1",
  "updatedAt": "2021-08-10T15:39:34.179Z",
  "devdoc": {
    "methods": {
      "addPool(address,bytes,bytes16)": {
        "details": "Adds a new candidate's pool to the list of active pools (see the `getPools` getter) and moves the specified amount of staking coins from the candidate's staking address to the candidate's pool. A participant calls this function using their staking address when they want to create a pool. This is a wrapper for the `stake` function.",
        "params": {
          "_miningAddress": "The mining address of the candidate. The mining address is bound to the staking address (msg.sender). This address cannot be equal to `msg.sender`."
        }
      },
      "areStakeAndWithdrawAllowed()": {
        "details": "Determines whether staking/withdrawal operations are allowed at the moment. Used by all staking/withdrawal functions."
      },
      "claimOrderedWithdraw(address)": {
        "details": "Withdraws the staking coins from the specified pool ordered during the previous staking epochs with the `orderWithdraw` function. The ordered amount can be retrieved by the `orderedWithdrawAmount` getter.",
        "params": {
          "_poolStakingAddress": "The staking address of the pool from which the ordered coins are withdrawn."
        }
      },
      "claimReward(uint256[],address)": {
        "details": "Withdraws a reward from the specified pool for the specified staking epochs to the staker address (msg.sender).",
        "params": {
          "_poolStakingAddress": "The staking address of the pool from which the reward needs to be withdrawn.",
          "_stakingEpochs": "The list of staking epochs in ascending order. If the list is empty, it is taken with `BlockRewardHbbft.epochsPoolGotRewardFor` getter."
        }
      },
      "getPoolInternetAddress(address)": {
        "details": "Returns the registered IPv4 Address for the node.",
        "params": {
          "_poolAddress": "The Pool Address to query the IPv4Address for."
        },
        "return": "IPv4 Address for the given pool address. "
      },
      "getPoolPublicKey(address)": {
        "details": "Return the Public Key used by a Node to send targeted HBBFT Consensus Messages.",
        "params": {
          "_poolAddress": "The Pool Address to query the public key for."
        },
        "return": "the public key for the given pool address.  Note that the public key does not convert to the ethereum address of the pool address. The pool address is used for stacking, and not for signing HBBFT messages."
      },
      "getPools()": {
        "details": "Returns an array of the current active pools (the staking addresses of candidates and validators). The size of the array cannot exceed MAX_CANDIDATES. A pool can be added to this array with the `_addPoolActive` internal function which is called by the `stake` or `orderWithdraw` function. A pool is considered active if its address has at least the minimum stake and this stake is not ordered to be withdrawn."
      },
      "getPoolsInactive()": {
        "details": "Returns an array of the current inactive pools (the staking addresses of former candidates). A pool can be added to this array with the `_addPoolInactive` internal function which is called by `_removePool`. A pool is considered inactive if it is banned for some reason, if its address has zero stake, or if its entire stake is ordered to be withdrawn."
      },
      "getPoolsLikelihood()": {
        "details": "Returns the array of stake amounts for each corresponding address in the `poolsToBeElected` array (see the `getPoolsToBeElected` getter) and a sum of these amounts. Used by the `ValidatorSetHbbft.newValidatorSet` function when randomly selecting new validators at the last block of a staking epoch. An array value is updated every time any staked amount is changed in this pool (see the `_setLikelihood` internal function).",
        "return": "`uint256[] likelihoods` - The array of the coefficients. The array length is always equal to the length of the `poolsToBeElected` array. `uint256 sum` - The total sum of the amounts."
      },
      "getPoolsToBeElected()": {
        "details": "Returns the list of pools (their staking addresses) which will participate in a new validator set selection process in the `ValidatorSetHbbft.newValidatorSet` function. This is an array of pools which will be considered as candidates when forming a new validator set (at the last block of a staking epoch). This array is kept updated by the `_addPoolToBeElected` and `_deletePoolToBeElected` internal functions."
      },
      "getPoolsToBeRemoved()": {
        "details": "Returns the list of pools (their staking addresses) which will be removed by the `ValidatorSetHbbft.newValidatorSet` function from the active `pools` array (at the last block of a staking epoch). This array is kept updated by the `_addPoolToBeRemoved` and `_deletePoolToBeRemoved` internal functions. A pool is added to this array when the pool's address withdraws (or orders) all of its own staking coins from the pool, inactivating the pool."
      },
      "getRewardAmount(uint256[],address,address)": {
        "details": "Returns reward amount in native coins for the specified pool, the specified staking epochs, and the specified staker address (delegator or validator).",
        "params": {
          "_poolStakingAddress": "The staking address of the pool for which the amounts need to be returned.",
          "_staker": "The staker address (validator's staking address or delegator's address).",
          "_stakingEpochs": "The list of staking epochs in ascending order. If the list is empty, it is taken with `BlockRewardHbbft.epochsPoolGotRewardFor` getter."
        }
      },
      "incrementStakingEpoch()": {
        "details": "Increments the serial number of the current staking epoch. Called by the `ValidatorSetHbbft.newValidatorSet` at the last block of the finished staking epoch."
      },
      "initialize(address,address[],uint256,uint256,uint256,uint256,uint256,bytes32[],bytes16[])": {
        "details": "Initializes the network parameters. Can only be called by the constructor of the `InitializerHbbft` contract or owner.",
        "params": {
          "_candidateMinStake": "The minimum allowed amount of candidate/validator stake in Wei.",
          "_delegatorMinStake": "The minimum allowed amount of delegator stake in Wei.",
          "_initialStakingAddresses": "The array of initial validators' staking addresses.",
          "_stakingFixedEpochDuration": "The fixed duration of each epoch before keyGen starts.",
          "_stakingTransitionTimeframeLength": "Length of the timeframe in seconds for the transition to the new validator set.",
          "_stakingWithdrawDisallowPeriod": "The duration period at the end of a staking epoch during which participants cannot stake/withdraw/order/claim their staking coins",
          "_validatorSetContract": "The address of the `ValidatorSetHbbft` contract."
        }
      },
      "isInitialized()": {
        "details": "Returns a boolean flag indicating if the `initialize` function has been called."
      },
      "isPoolActive(address)": {
        "details": "Returns a flag indicating whether a specified address is in the `pools` array. See the `getPools` getter.",
        "params": {
          "_stakingAddress": "The staking address of the pool."
        }
      },
      "maxWithdrawAllowed(address,address)": {
        "details": "Returns the maximum amount which can be withdrawn from the specified pool by the specified staker at the moment. Used by the `withdraw` and `moveStake` functions.",
        "params": {
          "_poolStakingAddress": "The pool staking address from which the withdrawal will be made.",
          "_staker": "The staker address that is going to withdraw."
        }
      },
      "maxWithdrawOrderAllowed(address,address)": {
        "details": "Returns the maximum amount which can be ordered to be withdrawn from the specified pool by the specified staker at the moment. Used by the `orderWithdraw` function.",
        "params": {
          "_poolStakingAddress": "The pool staking address from which the withdrawal will be ordered.",
          "_staker": "The staker address that is going to order the withdrawal."
        }
      },
      "moveStake(address,address,uint256)": {
        "details": "Moves staking coins from one pool to another. A staker calls this function when they want to move their coins from one pool to another without withdrawing their coins.",
        "params": {
          "_amount": "The amount of staking coins to be moved. The amount cannot exceed the value returned by the `maxWithdrawAllowed` getter.",
          "_fromPoolStakingAddress": "The staking address of the source pool.",
          "_toPoolStakingAddress": "The staking address of the target pool."
        }
      },
      "notifyAvailability(address)": {
        "details": "Notifies hbbft staking contract that a validator asociated with the given `_stakingAddress` became available again and can be put on to the list  of available nodes again."
      },
      "notifyKeyGenFailed()": {
        "details": "Notifies hbbft staking contract that the key generation has failed, and a new round  of keygeneration starts."
      },
      "notifyNetworkOfftimeDetected(uint256)": {
        "details": "Notifies hbbft staking contract about a detected network offline time. if there is no handling for this, validators got chosen outside the transition timewindow and get banned immediatly, since they never got their chance to write their keys. more about: https://github.com/DMDcoin/hbbft-posdao-contracts/issues/96"
      },
      "orderWithdraw(address,int256)": {
        "details": "Orders coins withdrawal from the staking address of the specified pool to the staker's address. The requested coins can be claimed after the current staking epoch is complete using the `claimOrderedWithdraw` function.",
        "params": {
          "_amount": "The amount to be withdrawn. A positive value means the staker wants to either set or increase their withdrawal amount. A negative value means the staker wants to decrease a withdrawal amount that was previously set. The amount cannot exceed the value returned by the `maxWithdrawOrderAllowed` getter.",
          "_poolStakingAddress": "The staking address of the pool from which the amount will be withdrawn."
        }
      },
      "poolDelegators(address)": {
        "details": "Returns an array of the current active delegators of the specified pool. A delegator is considered active if they have staked into the specified pool and their stake is not ordered to be withdrawn.",
        "params": {
          "_poolStakingAddress": "The pool staking address."
        }
      },
      "poolDelegatorsInactive(address)": {
        "details": "Returns an array of the current inactive delegators of the specified pool. A delegator is considered inactive if their entire stake is ordered to be withdrawn but not yet claimed.",
        "params": {
          "_poolStakingAddress": "The pool staking address."
        }
      },
      "removeMyPool()": {
        "details": "Removes the candidate's or validator's pool from the `pools` array (a list of active pools which can be retrieved by the `getPools` getter). When a candidate or validator wants to remove their pool, they should call this function from their staking address."
      },
      "removePool(address)": {
        "details": "Removes a specified pool from the `pools` array (a list of active pools which can be retrieved by the `getPools` getter). Called by the `ValidatorSetHbbft._removeMaliciousValidator` internal function,  and the `ValidatorSetHbbft.handleFailedKeyGeneration` function when a pool must be removed by the algorithm.",
        "params": {
          "_stakingAddress": "The staking address of the pool to be removed."
        }
      },
      "removePools()": {
        "details": "Removes pools which are in the `_poolsToBeRemoved` internal array from the `pools` array. Called by the `ValidatorSetHbbft.newValidatorSet` function when a pool must be removed by the algorithm."
      },
      "setCandidateMinStake(uint256)": {
        "details": "Sets (updates) the limit of the minimum candidate stake (CANDIDATE_MIN_STAKE). Can only be called by the `owner`.",
        "params": {
          "_minStake": "The value of a new limit in Wei."
        }
      },
      "setDelegatorMinStake(uint256)": {
        "details": "Sets (updates) the limit of the minimum delegator stake (DELEGATOR_MIN_STAKE). Can only be called by the `owner`.",
        "params": {
          "_minStake": "The value of a new limit in Wei."
        }
      },
      "setPoolInfo(bytes,bytes16)": {
        "details": "set's the pool info for a specific ethereum address.",
        "params": {
          "_ip": "(optional) IPV4 address of a running Node Software or Proxy. Stores the supplied data for a staking (pool) address. This function is external available without security checks, since no array operations are used in the implementation, this allows the flexibility to set the pool information before adding the stake to the pool.",
          "_publicKey": "public key of the (future) signing address."
        }
      },
      "setStakingEpochStartTime(uint256)": {
        "details": "Sets the timetamp of the current epoch's last block as the start time of the upcoming staking epoch. Called by the `ValidatorSetHbbft.newValidatorSet` function at the last block of a staking epoch.",
        "params": {
          "_timestamp": "The starting time of the very first block in the upcoming staking epoch."
        }
      },
      "stake(address)": {
        "details": "Moves the specified amount of staking coins from the staker's address to the staking address of the specified pool. Actually, the amount is stored in a balance of this StakingHbbft contract. A staker calls this function when they want to make a stake into a pool.",
        "params": {
          "_toPoolStakingAddress": "The staking address of the pool where the coins should be staked."
        }
      },
      "stakeAmountByCurrentEpoch(address,address)": {
        "details": "Returns the amount of staking coins staked into the specified pool by the specified staker during the current staking epoch (see the `stakingEpoch` getter). Used by the `stake`, `withdraw`, and `orderWithdraw` functions.",
        "params": {
          "_poolStakingAddress": "The pool staking address.",
          "_staker": "The staker's address."
        }
      },
      "stakingFixedEpochEndTime()": {
        "details": "Returns an indicative time of the last block of the current staking epoch before key generation starts."
      },
      "startTimeOfNextPhaseTransition()": {
        "details": "indicates the time when the new validatorset for the next epoch gets chosen. this is the start of a timeframe before the end of the epoch, that is long enough for the validators to create a new shared key."
      },
      "withdraw(address,uint256)": {
        "details": "Moves the specified amount of staking coins from the staking address of the specified pool to the staker's address. A staker calls this function when they want to withdraw their coins.",
        "params": {
          "_amount": "The amount of coins to be withdrawn. The amount cannot exceed the value returned by the `maxWithdrawAllowed` getter.",
          "_fromPoolStakingAddress": "The staking address of the pool from which the coins should be withdrawn."
        }
      }
    }
  },
  "userdoc": {
    "methods": {}
  }
}