{
  "contractName": "StakingHbbft",
  "abi": [
    {
      "anonymous": false,
      "inputs": [
        {
          "indexed": true,
          "internalType": "address",
          "name": "fromPoolStakingAddress",
          "type": "address"
        },
        {
          "indexed": true,
          "internalType": "address",
          "name": "staker",
          "type": "address"
        },
        {
          "indexed": true,
          "internalType": "uint256",
          "name": "stakingEpoch",
          "type": "uint256"
        },
        {
          "indexed": false,
          "internalType": "uint256",
          "name": "amount",
          "type": "uint256"
        }
      ],
      "name": "ClaimedOrderedWithdrawal",
      "type": "event"
    },
    {
      "anonymous": false,
      "inputs": [
        {
          "indexed": true,
          "internalType": "address",
          "name": "fromPoolStakingAddress",
          "type": "address"
        },
        {
          "indexed": true,
          "internalType": "address",
          "name": "staker",
          "type": "address"
        },
        {
          "indexed": true,
          "internalType": "uint256",
          "name": "stakingEpoch",
          "type": "uint256"
        },
        {
          "indexed": false,
          "internalType": "uint256",
          "name": "nativeCoinsAmount",
          "type": "uint256"
        }
      ],
      "name": "ClaimedReward",
      "type": "event"
    },
    {
      "anonymous": false,
      "inputs": [
        {
          "indexed": false,
          "internalType": "address",
          "name": "fromPoolStakingAddress",
          "type": "address"
        },
        {
          "indexed": true,
          "internalType": "address",
          "name": "toPoolStakingAddress",
          "type": "address"
        },
        {
          "indexed": true,
          "internalType": "address",
          "name": "staker",
          "type": "address"
        },
        {
          "indexed": true,
          "internalType": "uint256",
          "name": "stakingEpoch",
          "type": "uint256"
        },
        {
          "indexed": false,
          "internalType": "uint256",
          "name": "amount",
          "type": "uint256"
        }
      ],
      "name": "MovedStake",
      "type": "event"
    },
    {
      "anonymous": false,
      "inputs": [
        {
          "indexed": true,
          "internalType": "address",
          "name": "fromPoolStakingAddress",
          "type": "address"
        },
        {
          "indexed": true,
          "internalType": "address",
          "name": "staker",
          "type": "address"
        },
        {
          "indexed": true,
          "internalType": "uint256",
          "name": "stakingEpoch",
          "type": "uint256"
        },
        {
          "indexed": false,
          "internalType": "int256",
          "name": "amount",
          "type": "int256"
        }
      ],
      "name": "OrderedWithdrawal",
      "type": "event"
    },
    {
      "anonymous": false,
      "inputs": [
        {
          "indexed": true,
          "internalType": "address",
          "name": "toPoolStakingAddress",
          "type": "address"
        },
        {
          "indexed": true,
          "internalType": "address",
          "name": "staker",
          "type": "address"
        },
        {
          "indexed": true,
          "internalType": "uint256",
          "name": "stakingEpoch",
          "type": "uint256"
        },
        {
          "indexed": false,
          "internalType": "uint256",
          "name": "amount",
          "type": "uint256"
        }
      ],
      "name": "PlacedStake",
      "type": "event"
    },
    {
      "anonymous": false,
      "inputs": [
        {
          "indexed": true,
          "internalType": "address",
          "name": "fromPoolStakingAddress",
          "type": "address"
        },
        {
          "indexed": true,
          "internalType": "address",
          "name": "staker",
          "type": "address"
        },
        {
          "indexed": true,
          "internalType": "uint256",
          "name": "stakingEpoch",
          "type": "uint256"
        },
        {
          "indexed": false,
          "internalType": "uint256",
          "name": "amount",
          "type": "uint256"
        }
      ],
      "name": "WithdrewStake",
      "type": "event"
    },
    {
      "payable": true,
      "stateMutability": "payable",
      "type": "fallback"
    },
    {
      "constant": true,
      "inputs": [],
      "name": "MAX_CANDIDATES",
      "outputs": [
        {
          "internalType": "uint256",
          "name": "",
          "type": "uint256"
        }
      ],
      "payable": false,
      "stateMutability": "view",
      "type": "function"
    },
    {
      "constant": false,
      "inputs": [
        {
          "internalType": "address",
          "name": "_miningAddress",
          "type": "address"
        },
        {
          "internalType": "bytes",
          "name": "_publicKey",
          "type": "bytes"
        },
        {
          "internalType": "bytes16",
          "name": "_ip",
          "type": "bytes16"
        }
      ],
      "name": "addPool",
      "outputs": [],
      "payable": true,
      "stateMutability": "payable",
      "type": "function"
    },
    {
      "constant": true,
      "inputs": [],
      "name": "areStakeAndWithdrawAllowed",
      "outputs": [
        {
          "internalType": "bool",
          "name": "",
          "type": "bool"
        }
      ],
      "payable": false,
      "stateMutability": "view",
      "type": "function"
    },
    {
      "constant": true,
      "inputs": [],
      "name": "candidateMinStake",
      "outputs": [
        {
          "internalType": "uint256",
          "name": "",
          "type": "uint256"
        }
      ],
      "payable": false,
      "stateMutability": "view",
      "type": "function"
    },
    {
      "constant": false,
      "inputs": [
        {
          "internalType": "address",
          "name": "_poolStakingAddress",
          "type": "address"
        }
      ],
      "name": "claimOrderedWithdraw",
      "outputs": [],
      "payable": false,
      "stateMutability": "nonpayable",
      "type": "function"
    },
    {
      "constant": false,
      "inputs": [
        {
          "internalType": "uint256[]",
          "name": "_stakingEpochs",
          "type": "uint256[]"
        },
        {
          "internalType": "address",
          "name": "_poolStakingAddress",
          "type": "address"
        }
      ],
      "name": "claimReward",
      "outputs": [],
      "payable": false,
      "stateMutability": "nonpayable",
      "type": "function"
    },
    {
      "constant": true,
      "inputs": [],
      "name": "currentKeyGenExtraTimeWindow",
      "outputs": [
        {
          "internalType": "uint256",
          "name": "",
          "type": "uint256"
        }
      ],
      "payable": false,
      "stateMutability": "view",
      "type": "function"
    },
    {
      "constant": true,
      "inputs": [],
      "name": "delegatorMinStake",
      "outputs": [
        {
          "internalType": "uint256",
          "name": "",
          "type": "uint256"
        }
      ],
      "payable": false,
      "stateMutability": "view",
      "type": "function"
    },
    {
      "constant": true,
      "inputs": [
        {
          "internalType": "address",
          "name": "",
          "type": "address"
        },
        {
          "internalType": "address",
          "name": "",
          "type": "address"
        },
        {
          "internalType": "uint256",
          "name": "",
          "type": "uint256"
        }
      ],
      "name": "delegatorStakeSnapshot",
      "outputs": [
        {
          "internalType": "uint256",
          "name": "",
          "type": "uint256"
        }
      ],
      "payable": false,
      "stateMutability": "view",
      "type": "function"
    },
    {
      "constant": true,
      "inputs": [
        {
          "internalType": "address",
          "name": "_poolAddress",
          "type": "address"
        }
      ],
      "name": "getPoolInternetAddress",
      "outputs": [
        {
          "internalType": "bytes16",
          "name": "",
          "type": "bytes16"
        }
      ],
      "payable": false,
      "stateMutability": "view",
      "type": "function"
    },
    {
      "constant": true,
      "inputs": [
        {
          "internalType": "address",
          "name": "_poolAddress",
          "type": "address"
        }
      ],
      "name": "getPoolPublicKey",
      "outputs": [
        {
          "internalType": "bytes",
          "name": "",
          "type": "bytes"
        }
      ],
      "payable": false,
      "stateMutability": "view",
      "type": "function"
    },
    {
      "constant": true,
      "inputs": [],
      "name": "getPools",
      "outputs": [
        {
          "internalType": "address[]",
          "name": "",
          "type": "address[]"
        }
      ],
      "payable": false,
      "stateMutability": "view",
      "type": "function"
    },
    {
      "constant": true,
      "inputs": [],
      "name": "getPoolsInactive",
      "outputs": [
        {
          "internalType": "address[]",
          "name": "",
          "type": "address[]"
        }
      ],
      "payable": false,
      "stateMutability": "view",
      "type": "function"
    },
    {
      "constant": true,
      "inputs": [],
      "name": "getPoolsLikelihood",
      "outputs": [
        {
          "internalType": "uint256[]",
          "name": "likelihoods",
          "type": "uint256[]"
        },
        {
          "internalType": "uint256",
          "name": "sum",
          "type": "uint256"
        }
      ],
      "payable": false,
      "stateMutability": "view",
      "type": "function"
    },
    {
      "constant": true,
      "inputs": [],
      "name": "getPoolsToBeElected",
      "outputs": [
        {
          "internalType": "address[]",
          "name": "",
          "type": "address[]"
        }
      ],
      "payable": false,
      "stateMutability": "view",
      "type": "function"
    },
    {
      "constant": true,
      "inputs": [],
      "name": "getPoolsToBeRemoved",
      "outputs": [
        {
          "internalType": "address[]",
          "name": "",
          "type": "address[]"
        }
      ],
      "payable": false,
      "stateMutability": "view",
      "type": "function"
    },
    {
      "constant": true,
      "inputs": [
        {
          "internalType": "uint256[]",
          "name": "_stakingEpochs",
          "type": "uint256[]"
        },
        {
          "internalType": "address",
          "name": "_poolStakingAddress",
          "type": "address"
        },
        {
          "internalType": "address",
          "name": "_staker",
          "type": "address"
        }
      ],
      "name": "getRewardAmount",
      "outputs": [
        {
          "internalType": "uint256",
          "name": "",
          "type": "uint256"
        }
      ],
      "payable": false,
      "stateMutability": "view",
      "type": "function"
    },
    {
      "constant": false,
      "inputs": [],
      "name": "incrementStakingEpoch",
      "outputs": [],
      "payable": false,
      "stateMutability": "nonpayable",
      "type": "function"
    },
    {
      "constant": false,
      "inputs": [
        {
          "internalType": "address",
          "name": "_validatorSetContract",
          "type": "address"
        },
        {
          "internalType": "address[]",
          "name": "_initialStakingAddresses",
          "type": "address[]"
        },
        {
          "internalType": "uint256",
          "name": "_delegatorMinStake",
          "type": "uint256"
        },
        {
          "internalType": "uint256",
          "name": "_candidateMinStake",
          "type": "uint256"
        },
        {
          "internalType": "uint256",
          "name": "_maxStake",
          "type": "uint256"
        },
        {
          "internalType": "uint256",
          "name": "_stakingFixedEpochDuration",
          "type": "uint256"
        },
        {
          "internalType": "uint256",
          "name": "_stakingTransitionTimeframeLength",
          "type": "uint256"
        },
        {
          "internalType": "uint256",
          "name": "_stakingWithdrawDisallowPeriod",
          "type": "uint256"
        },
        {
          "internalType": "bytes32[]",
          "name": "_publicKeys",
          "type": "bytes32[]"
        },
        {
          "internalType": "bytes16[]",
          "name": "_internetAddresses",
          "type": "bytes16[]"
        }
      ],
      "name": "initialize",
      "outputs": [],
      "payable": false,
      "stateMutability": "nonpayable",
      "type": "function"
    },
    {
      "constant": true,
      "inputs": [],
      "name": "isInitialized",
      "outputs": [
        {
          "internalType": "bool",
          "name": "",
          "type": "bool"
        }
      ],
      "payable": false,
      "stateMutability": "view",
      "type": "function"
    },
    {
      "constant": true,
      "inputs": [
        {
          "internalType": "address",
          "name": "_stakingAddress",
          "type": "address"
        }
      ],
      "name": "isPoolActive",
      "outputs": [
        {
          "internalType": "bool",
          "name": "",
          "type": "bool"
        }
      ],
      "payable": false,
      "stateMutability": "view",
      "type": "function"
    },
    {
      "constant": true,
      "inputs": [],
      "name": "maxStakeAmount",
      "outputs": [
        {
          "internalType": "uint256",
          "name": "",
          "type": "uint256"
        }
      ],
      "payable": false,
      "stateMutability": "view",
      "type": "function"
    },
    {
      "constant": true,
      "inputs": [
        {
          "internalType": "address",
          "name": "_poolStakingAddress",
          "type": "address"
        },
        {
          "internalType": "address",
          "name": "_staker",
          "type": "address"
        }
      ],
      "name": "maxWithdrawAllowed",
      "outputs": [
        {
          "internalType": "uint256",
          "name": "",
          "type": "uint256"
        }
      ],
      "payable": false,
      "stateMutability": "view",
      "type": "function"
    },
    {
      "constant": true,
      "inputs": [
        {
          "internalType": "address",
          "name": "_poolStakingAddress",
          "type": "address"
        },
        {
          "internalType": "address",
          "name": "_staker",
          "type": "address"
        }
      ],
      "name": "maxWithdrawOrderAllowed",
      "outputs": [
        {
          "internalType": "uint256",
          "name": "",
          "type": "uint256"
        }
      ],
      "payable": false,
      "stateMutability": "view",
      "type": "function"
    },
    {
      "constant": false,
      "inputs": [
        {
          "internalType": "address",
          "name": "_fromPoolStakingAddress",
          "type": "address"
        },
        {
          "internalType": "address",
          "name": "_toPoolStakingAddress",
          "type": "address"
        },
        {
          "internalType": "uint256",
          "name": "_amount",
          "type": "uint256"
        }
      ],
      "name": "moveStake",
      "outputs": [],
      "payable": false,
      "stateMutability": "nonpayable",
      "type": "function"
    },
    {
      "constant": false,
      "inputs": [
        {
          "internalType": "address",
          "name": "_stakingAddress",
          "type": "address"
        }
      ],
      "name": "notifyAvailability",
      "outputs": [],
      "payable": false,
      "stateMutability": "nonpayable",
      "type": "function"
    },
    {
      "constant": false,
      "inputs": [],
      "name": "notifyKeyGenFailed",
      "outputs": [],
      "payable": false,
      "stateMutability": "nonpayable",
      "type": "function"
    },
    {
      "constant": false,
      "inputs": [
        {
          "internalType": "uint256",
          "name": "detectedOfflineTime",
          "type": "uint256"
        }
      ],
      "name": "notifyNetworkOfftimeDetected",
      "outputs": [],
      "payable": false,
      "stateMutability": "nonpayable",
      "type": "function"
    },
    {
      "constant": false,
      "inputs": [
        {
          "internalType": "address",
          "name": "_poolStakingAddress",
          "type": "address"
        },
        {
          "internalType": "int256",
          "name": "_amount",
          "type": "int256"
        }
      ],
      "name": "orderWithdraw",
      "outputs": [],
      "payable": false,
      "stateMutability": "nonpayable",
      "type": "function"
    },
    {
      "constant": true,
      "inputs": [
        {
          "internalType": "address",
          "name": "",
          "type": "address"
        },
        {
          "internalType": "address",
          "name": "",
          "type": "address"
        }
      ],
      "name": "orderWithdrawEpoch",
      "outputs": [
        {
          "internalType": "uint256",
          "name": "",
          "type": "uint256"
        }
      ],
      "payable": false,
      "stateMutability": "view",
      "type": "function"
    },
    {
      "constant": true,
      "inputs": [
        {
          "internalType": "address",
          "name": "",
          "type": "address"
        },
        {
          "internalType": "address",
          "name": "",
          "type": "address"
        }
      ],
      "name": "orderedWithdrawAmount",
      "outputs": [
        {
          "internalType": "uint256",
          "name": "",
          "type": "uint256"
        }
      ],
      "payable": false,
      "stateMutability": "view",
      "type": "function"
    },
    {
      "constant": true,
      "inputs": [
        {
          "internalType": "address",
          "name": "",
          "type": "address"
        }
      ],
      "name": "orderedWithdrawAmountTotal",
      "outputs": [
        {
          "internalType": "uint256",
          "name": "",
          "type": "uint256"
        }
      ],
      "payable": false,
      "stateMutability": "view",
      "type": "function"
    },
    {
      "constant": true,
      "inputs": [
        {
          "internalType": "address",
          "name": "",
          "type": "address"
        },
        {
          "internalType": "address",
          "name": "",
          "type": "address"
        }
      ],
      "name": "poolDelegatorInactiveIndex",
      "outputs": [
        {
          "internalType": "uint256",
          "name": "",
          "type": "uint256"
        }
      ],
      "payable": false,
      "stateMutability": "view",
      "type": "function"
    },
    {
      "constant": true,
      "inputs": [
        {
          "internalType": "address",
          "name": "",
          "type": "address"
        },
        {
          "internalType": "address",
          "name": "",
          "type": "address"
        }
      ],
      "name": "poolDelegatorIndex",
      "outputs": [
        {
          "internalType": "uint256",
          "name": "",
          "type": "uint256"
        }
      ],
      "payable": false,
      "stateMutability": "view",
      "type": "function"
    },
    {
      "constant": true,
      "inputs": [
        {
          "internalType": "address",
          "name": "_poolStakingAddress",
          "type": "address"
        }
      ],
      "name": "poolDelegators",
      "outputs": [
        {
          "internalType": "address[]",
          "name": "",
          "type": "address[]"
        }
      ],
      "payable": false,
      "stateMutability": "view",
      "type": "function"
    },
    {
      "constant": true,
      "inputs": [
        {
          "internalType": "address",
          "name": "_poolStakingAddress",
          "type": "address"
        }
      ],
      "name": "poolDelegatorsInactive",
      "outputs": [
        {
          "internalType": "address[]",
          "name": "",
          "type": "address[]"
        }
      ],
      "payable": false,
      "stateMutability": "view",
      "type": "function"
    },
    {
      "constant": true,
      "inputs": [
        {
          "internalType": "address",
          "name": "",
          "type": "address"
        }
      ],
      "name": "poolInactiveIndex",
      "outputs": [
        {
          "internalType": "uint256",
          "name": "",
          "type": "uint256"
        }
      ],
      "payable": false,
      "stateMutability": "view",
      "type": "function"
    },
    {
      "constant": true,
      "inputs": [
        {
          "internalType": "address",
          "name": "",
          "type": "address"
        }
      ],
      "name": "poolIndex",
      "outputs": [
        {
          "internalType": "uint256",
          "name": "",
          "type": "uint256"
        }
      ],
      "payable": false,
      "stateMutability": "view",
      "type": "function"
    },
    {
      "constant": true,
      "inputs": [
        {
          "internalType": "address",
          "name": "",
          "type": "address"
        }
      ],
      "name": "poolInfo",
      "outputs": [
        {
          "internalType": "bytes",
          "name": "publicKey",
          "type": "bytes"
        },
        {
          "internalType": "bytes16",
          "name": "internetAddress",
          "type": "bytes16"
        }
      ],
      "payable": false,
      "stateMutability": "view",
      "type": "function"
    },
    {
      "constant": true,
      "inputs": [
        {
          "internalType": "address",
          "name": "",
          "type": "address"
        }
      ],
      "name": "poolToBeElectedIndex",
      "outputs": [
        {
          "internalType": "uint256",
          "name": "",
          "type": "uint256"
        }
      ],
      "payable": false,
      "stateMutability": "view",
      "type": "function"
    },
    {
      "constant": true,
      "inputs": [
        {
          "internalType": "address",
          "name": "",
          "type": "address"
        }
      ],
      "name": "poolToBeRemovedIndex",
      "outputs": [
        {
          "internalType": "uint256",
          "name": "",
          "type": "uint256"
        }
      ],
      "payable": false,
      "stateMutability": "view",
      "type": "function"
    },
    {
      "constant": false,
      "inputs": [],
      "name": "removeMyPool",
      "outputs": [],
      "payable": false,
      "stateMutability": "nonpayable",
      "type": "function"
    },
    {
      "constant": false,
      "inputs": [
        {
          "internalType": "address",
          "name": "_stakingAddress",
          "type": "address"
        }
      ],
      "name": "removePool",
      "outputs": [],
      "payable": false,
      "stateMutability": "nonpayable",
      "type": "function"
    },
    {
      "constant": false,
      "inputs": [],
      "name": "removePools",
      "outputs": [],
      "payable": false,
      "stateMutability": "nonpayable",
      "type": "function"
    },
    {
      "constant": true,
      "inputs": [
        {
          "internalType": "address",
          "name": "",
          "type": "address"
        },
        {
          "internalType": "address",
          "name": "",
          "type": "address"
        },
        {
          "internalType": "uint256",
          "name": "",
          "type": "uint256"
        }
      ],
      "name": "rewardWasTaken",
      "outputs": [
        {
          "internalType": "bool",
          "name": "",
          "type": "bool"
        }
      ],
      "payable": false,
      "stateMutability": "view",
      "type": "function"
    },
    {
      "constant": false,
      "inputs": [
        {
          "internalType": "uint256",
          "name": "_minStake",
          "type": "uint256"
        }
      ],
      "name": "setCandidateMinStake",
      "outputs": [],
      "payable": false,
      "stateMutability": "nonpayable",
      "type": "function"
    },
    {
      "constant": false,
      "inputs": [
        {
          "internalType": "uint256",
          "name": "_minStake",
          "type": "uint256"
        }
      ],
      "name": "setDelegatorMinStake",
      "outputs": [],
      "payable": false,
      "stateMutability": "nonpayable",
      "type": "function"
    },
    {
      "constant": false,
      "inputs": [
        {
          "internalType": "bytes",
          "name": "_publicKey",
          "type": "bytes"
        },
        {
          "internalType": "bytes16",
          "name": "_ip",
          "type": "bytes16"
        }
      ],
      "name": "setPoolInfo",
      "outputs": [],
      "payable": false,
      "stateMutability": "nonpayable",
      "type": "function"
    },
    {
      "constant": false,
      "inputs": [
        {
          "internalType": "uint256",
          "name": "_timestamp",
          "type": "uint256"
        }
      ],
      "name": "setStakingEpochStartTime",
      "outputs": [],
      "payable": false,
      "stateMutability": "nonpayable",
      "type": "function"
    },
    {
      "constant": false,
      "inputs": [
        {
          "internalType": "address",
          "name": "_toPoolStakingAddress",
          "type": "address"
        }
      ],
      "name": "stake",
      "outputs": [],
      "payable": true,
      "stateMutability": "payable",
      "type": "function"
    },
    {
      "constant": true,
      "inputs": [
        {
          "internalType": "address",
          "name": "",
          "type": "address"
        },
        {
          "internalType": "address",
          "name": "",
          "type": "address"
        }
      ],
      "name": "stakeAmount",
      "outputs": [
        {
          "internalType": "uint256",
          "name": "",
          "type": "uint256"
        }
      ],
      "payable": false,
      "stateMutability": "view",
      "type": "function"
    },
    {
      "constant": true,
      "inputs": [
        {
          "internalType": "address",
          "name": "_poolStakingAddress",
          "type": "address"
        },
        {
          "internalType": "address",
          "name": "_staker",
          "type": "address"
        }
      ],
      "name": "stakeAmountByCurrentEpoch",
      "outputs": [
        {
          "internalType": "uint256",
          "name": "",
          "type": "uint256"
        }
      ],
      "payable": false,
      "stateMutability": "view",
      "type": "function"
    },
    {
      "constant": true,
      "inputs": [
        {
          "internalType": "address",
          "name": "",
          "type": "address"
        }
      ],
      "name": "stakeAmountTotal",
      "outputs": [
        {
          "internalType": "uint256",
          "name": "",
          "type": "uint256"
        }
      ],
      "payable": false,
      "stateMutability": "view",
      "type": "function"
    },
    {
      "constant": true,
      "inputs": [
        {
          "internalType": "address",
          "name": "",
          "type": "address"
        },
        {
          "internalType": "address",
          "name": "",
          "type": "address"
        }
      ],
      "name": "stakeFirstEpoch",
      "outputs": [
        {
          "internalType": "uint256",
          "name": "",
          "type": "uint256"
        }
      ],
      "payable": false,
      "stateMutability": "view",
      "type": "function"
    },
    {
      "constant": true,
      "inputs": [
        {
          "internalType": "address",
          "name": "",
          "type": "address"
        },
        {
          "internalType": "address",
          "name": "",
          "type": "address"
        }
      ],
      "name": "stakeLastEpoch",
      "outputs": [
        {
          "internalType": "uint256",
          "name": "",
          "type": "uint256"
        }
      ],
      "payable": false,
      "stateMutability": "view",
      "type": "function"
    },
    {
      "constant": true,
      "inputs": [],
      "name": "stakingEpoch",
      "outputs": [
        {
          "internalType": "uint256",
          "name": "",
          "type": "uint256"
        }
      ],
      "payable": false,
      "stateMutability": "view",
      "type": "function"
    },
    {
      "constant": true,
      "inputs": [],
      "name": "stakingEpochStartBlock",
      "outputs": [
        {
          "internalType": "uint256",
          "name": "",
          "type": "uint256"
        }
      ],
      "payable": false,
      "stateMutability": "view",
      "type": "function"
    },
    {
      "constant": true,
      "inputs": [],
      "name": "stakingEpochStartTime",
      "outputs": [
        {
          "internalType": "uint256",
          "name": "",
          "type": "uint256"
        }
      ],
      "payable": false,
      "stateMutability": "view",
      "type": "function"
    },
    {
      "constant": true,
      "inputs": [],
      "name": "stakingFixedEpochDuration",
      "outputs": [
        {
          "internalType": "uint256",
          "name": "",
          "type": "uint256"
        }
      ],
      "payable": false,
      "stateMutability": "view",
      "type": "function"
    },
    {
      "constant": true,
      "inputs": [],
      "name": "stakingFixedEpochEndTime",
      "outputs": [
        {
          "internalType": "uint256",
          "name": "",
          "type": "uint256"
        }
      ],
      "payable": false,
      "stateMutability": "view",
      "type": "function"
    },
    {
      "constant": true,
      "inputs": [],
      "name": "stakingTransitionTimeframeLength",
      "outputs": [
        {
          "internalType": "uint256",
          "name": "",
          "type": "uint256"
        }
      ],
      "payable": false,
      "stateMutability": "view",
      "type": "function"
    },
    {
      "constant": true,
      "inputs": [],
      "name": "stakingWithdrawDisallowPeriod",
      "outputs": [
        {
          "internalType": "uint256",
          "name": "",
          "type": "uint256"
        }
      ],
      "payable": false,
      "stateMutability": "view",
      "type": "function"
    },
    {
      "constant": true,
      "inputs": [],
      "name": "startTimeOfNextPhaseTransition",
      "outputs": [
        {
          "internalType": "uint256",
          "name": "",
          "type": "uint256"
        }
      ],
      "payable": false,
      "stateMutability": "view",
      "type": "function"
    },
    {
      "constant": false,
      "inputs": [],
      "name": "upgrade",
      "outputs": [],
      "payable": false,
      "stateMutability": "nonpayable",
      "type": "function"
    },
    {
      "constant": true,
      "inputs": [],
      "name": "validatorSetContract",
      "outputs": [
        {
          "internalType": "contract IValidatorSetHbbft",
          "name": "",
          "type": "address"
        }
      ],
      "payable": false,
      "stateMutability": "view",
      "type": "function"
    },
    {
      "constant": false,
      "inputs": [
        {
          "internalType": "address",
          "name": "_fromPoolStakingAddress",
          "type": "address"
        },
        {
          "internalType": "uint256",
          "name": "_amount",
          "type": "uint256"
        }
      ],
      "name": "withdraw",
      "outputs": [],
      "payable": false,
      "stateMutability": "nonpayable",
      "type": "function"
    }
  ],
  "bytecode": "0x608060405234801561001057600080fd5b5061649180620000216000396000f3fe6080604052600436106103d85760003560e01c80639518c481116101fd578063cfef144111610118578063e9ab0300116100ab578063f07860961161007a578063f07860961461121d578063f3fef3a314611232578063f49425011461126b578063fa4aaf4714611280578063fb367a9b146112b3576103d8565b8063e9ab030014611185578063edd7db75146111c0578063edf94b82146111d5578063ee435f5514611208576103d8565b8063da7a9b6a116100e7578063da7a9b6a146110f7578063dadee88a1461110c578063df6f55f51461113f578063dfc8bf4e14611154576103d8565b8063cfef144114611015578063d290c21d14611048578063d55ec6971461105d578063d958e2e914611072576103d8565b8063a697ecff11610190578063b42754a51161015f578063b42754a514610f59578063b61ed63a14610f8c578063bc9eb2c314610fc5578063c6912cc014611000576103d8565b8063a697ecff14610ec1578063a711e6a114610efc578063adddc0cf14610f2f578063ae1aaf8014610f44576103d8565b80639e72c635116101cc5780639e72c63514610e145780639ea8082b14610e3e578063a420596714610e71578063a5d54f6514610eac576103d8565b80639518c48114610c8e578063957950a714610cc95780639a7b5f1114610d395780639b03d74414610dff576103d8565b80634e9b426d116102f8578063673a2a1f1161028b578063750dd2a11161025a578063750dd2a114610ba6578063794c0c6814610be15780637b15b94c14610bf65780638247a23914610c29578063950a651314610c53576103d8565b8063673a2a1f14610abe5780636bda157714610b235780637069e74614610b5e57806373c2180314610b73576103d8565b806356e4d6c2116102c757806356e4d6c2146109d95780635d80ca3214610a615780635fef764314610a765780636511391814610a8b576103d8565b80634e9b426d146108ae5780634f9a8d8f146109565780635267e1d61461096b5780635659b7421461099e576103d8565b80632647620411610370578063392e53cd1161033f578063392e53cd146107835780633b7d0946146107985780633ea15d62146107cb57806348aaa4a214610884576103d8565b806326476204146106c75780632bafde8d146106ed5780633172773014610717578063379b046a1461076e576103d8565b80631555371c116103ac5780631555371c1461060a5780631fb31e431461061f57806322e3d9861461066f578063251441a914610684576103d8565b80622ceebc14610413578063028b8bdb146104685780630868c0d61461047d5780630b0eb666146104b8575b6040805162461bcd60e51b815260206004820152600b60248201526a4e6f742070617961626c6560a81b604482015290519081900360640190fd5b34801561041f57600080fd5b506104566004803603606081101561043657600080fd5b506001600160a01b03813581169160208101359091169060400135611377565b60408051918252519081900360200190f35b34801561047457600080fd5b5061045661139a565b34801561048957600080fd5b50610456600480360360408110156104a057600080fd5b506001600160a01b03813581169160200135166113a0565b3480156104c457600080fd5b5061060860048036036101408110156104dc57600080fd5b6001600160a01b038235169190810190604081016020820135600160201b81111561050657600080fd5b82018360208201111561051857600080fd5b803590602001918460208302840111600160201b8311171561053957600080fd5b9193909282359260208101359260408201359260608301359260808101359260a082013592909160e081019060c00135600160201b81111561057a57600080fd5b82018360208201111561058c57600080fd5b803590602001918460208302840111600160201b831117156105ad57600080fd5b919390929091602081019035600160201b8111156105ca57600080fd5b8201836020820111156105dc57600080fd5b803590602001918460208302840111600160201b831117156105fd57600080fd5b5090925090506113bd565b005b34801561061657600080fd5b5061060861165e565b34801561062b57600080fd5b506106526004803603602081101561064257600080fd5b50356001600160a01b0316611746565b604080516001600160801b03199092168252519081900360200190f35b34801561067b57600080fd5b50610456611767565b34801561069057600080fd5b50610608600480360360608110156106a757600080fd5b506001600160a01b03813581169160208101359091169060400135611794565b610608600480360360208110156106dd57600080fd5b50356001600160a01b03166118d9565b3480156106f957600080fd5b506106086004803603602081101561071057600080fd5b503561192d565b34801561072357600080fd5b5061075a6004803603606081101561073a57600080fd5b506001600160a01b038135811691602081013590911690604001356119d0565b604080519115158252519081900360200190f35b34801561077a57600080fd5b506104566119f6565b34801561078f57600080fd5b5061075a6119fc565b3480156107a457600080fd5b50610608600480360360208110156107bb57600080fd5b50356001600160a01b0316611a0d565b3480156107d757600080fd5b50610608600480360360408110156107ee57600080fd5b810190602081018135600160201b81111561080857600080fd5b82018360208201111561081a57600080fd5b803590602001918460208302840111600160201b8311171561083b57600080fd5b919080806020026020016040519081016040528093929190818152602001838360200280828437600092019190915250929550505090356001600160a01b03169150611a6c9050565b34801561089057600080fd5b50610608600480360360208110156108a757600080fd5b50356121bb565b3480156108ba57600080fd5b506108e1600480360360208110156108d157600080fd5b50356001600160a01b031661225e565b6040805160208082528351818301528351919283929083019185019080838360005b8381101561091b578181015183820152602001610903565b50505050905090810190601f1680156109485780820380516001836020036101000a031916815260200191505b509250505060405180910390f35b34801561096257600080fd5b50610456612309565b34801561097757600080fd5b506104566004803603602081101561098e57600080fd5b50356001600160a01b031661230f565b3480156109aa57600080fd5b50610456600480360360408110156109c157600080fd5b506001600160a01b0381358116916020013516612320565b610608600480360360608110156109ef57600080fd5b6001600160a01b038235169190810190604081016020820135600160201b811115610a1957600080fd5b820183602082011115610a2b57600080fd5b803590602001918460018302840111600160201b83111715610a4c57600080fd5b9193509150356001600160801b03191661233d565b348015610a6d57600080fd5b50610456612456565b348015610a8257600080fd5b5061045661245c565b348015610a9757600080fd5b5061045660048036036020811015610aae57600080fd5b50356001600160a01b0316612462565b348015610aca57600080fd5b50610ad3612474565b60408051602080825283518183015283519192839290830191858101910280838360005b83811015610b0f578181015183820152602001610af7565b505050509050019250505060405180910390f35b348015610b2f57600080fd5b5061045660048036036040811015610b4657600080fd5b506001600160a01b03813581169160200135166124d6565b348015610b6a57600080fd5b5061045661263d565b348015610b7f57600080fd5b50610ad360048036036020811015610b9657600080fd5b50356001600160a01b0316612643565b348015610bb257600080fd5b5061045660048036036040811015610bc957600080fd5b506001600160a01b03813581169160200135166126b8565b348015610bed57600080fd5b506104566126ed565b348015610c0257600080fd5b5061060860048036036020811015610c1957600080fd5b50356001600160a01b03166126f3565b348015610c3557600080fd5b5061060860048036036020811015610c4c57600080fd5b5035612783565b348015610c5f57600080fd5b5061045660048036036040811015610c7657600080fd5b506001600160a01b03813581169160200135166127df565b348015610c9a57600080fd5b5061045660048036036040811015610cb157600080fd5b506001600160a01b038135811691602001351661294f565b348015610cd557600080fd5b50610cde61296c565b6040518080602001838152602001828103825284818151815260200191508051906020019060200280838360005b83811015610d24578181015183820152602001610d0c565b50505050905001935050505060405180910390f35b348015610d4557600080fd5b50610d6c60048036036020811015610d5c57600080fd5b50356001600160a01b03166129cf565b6040518080602001836001600160801b0319166001600160801b0319168152602001828103825284818151815260200191508051906020019080838360005b83811015610dc3578181015183820152602001610dab565b50505050905090810190601f168015610df05780820380516001836020036101000a031916815260200191505b50935050505060405180910390f35b348015610e0b57600080fd5b50610456612a79565b348015610e2057600080fd5b5061060860048036036020811015610e3757600080fd5b5035612a7f565b348015610e4a57600080fd5b50610ad360048036036020811015610e6157600080fd5b50356001600160a01b0316612ae1565b348015610e7d57600080fd5b5061045660048036036040811015610e9457600080fd5b506001600160a01b0381358116916020013516612b55565b348015610eb857600080fd5b50610ad3612b72565b348015610ecd57600080fd5b5061045660048036036040811015610ee457600080fd5b506001600160a01b0381358116916020013516612bd2565b348015610f0857600080fd5b5061075a60048036036020811015610f1f57600080fd5b50356001600160a01b0316612bef565b348015610f3b57600080fd5b50610608612c48565b348015610f5057600080fd5b50610456612ca9565b348015610f6557600080fd5b5061045660048036036020811015610f7c57600080fd5b50356001600160a01b0316612caf565b348015610f9857600080fd5b5061060860048036036040811015610faf57600080fd5b506001600160a01b038135169060200135612cc1565b348015610fd157600080fd5b5061045660048036036040811015610fe857600080fd5b506001600160a01b03813581169160200135166131c0565b34801561100c57600080fd5b506104566131dd565b34801561102157600080fd5b506106086004803603602081101561103857600080fd5b50356001600160a01b03166131eb565b34801561105457600080fd5b50610ad36134fd565b34801561106957600080fd5b5061060861355d565b34801561107e57600080fd5b506106086004803603604081101561109557600080fd5b810190602081018135600160201b8111156110af57600080fd5b8201836020820111156110c157600080fd5b803590602001918460018302840111600160201b831117156110e257600080fd5b9193509150356001600160801b031916613575565b34801561110357600080fd5b506104566135be565b34801561111857600080fd5b506104566004803603602081101561112f57600080fd5b50356001600160a01b03166135c4565b34801561114b57600080fd5b50610ad36135d6565b34801561116057600080fd5b50611169613636565b604080516001600160a01b039092168252519081900360200190f35b34801561119157600080fd5b50610456600480360360408110156111a857600080fd5b506001600160a01b0381358116916020013516613645565b3480156111cc57600080fd5b50610608613662565b3480156111e157600080fd5b50610456600480360360208110156111f857600080fd5b50356001600160a01b0316613833565b34801561121457600080fd5b50610608613845565b34801561122957600080fd5b506104566138a8565b34801561123e57600080fd5b506106086004803603604081101561125557600080fd5b506001600160a01b0381351690602001356138ae565b34801561127757600080fd5b5061075a6139a0565b34801561128c57600080fd5b50610456600480360360208110156112a357600080fd5b50356001600160a01b03166139a5565b3480156112bf57600080fd5b50610456600480360360608110156112d657600080fd5b810190602081018135600160201b8111156112f057600080fd5b82018360208201111561130257600080fd5b803590602001918460208302840111600160201b8311171561132357600080fd5b919080806020026020016040519081016040528093929190818152602001838360200280828437600092019190915250929550506001600160a01b0383358116945060209093013590921691506139b79050565b600b60209081526000938452604080852082529284528284209052825290205481565b60195481565b600f60209081526000928352604080842090915290825290205481565b8661140f576040805162461bcd60e51b815260206004820152601760248201527f466978656445706f63684475726174696f6e2069732030000000000000000000604482015290519081900360640190fd5b84871161144d5760405162461bcd60e51b815260040180806020018281038252603d815260200180616155603d913960400191505060405180910390fd5b8461149f576040805162461bcd60e51b815260206004820152601b60248201527f5769746864726177446973616c6c6f77506572696f6420697320300000000000604482015290519081900360640190fd5b856114db5760405162461bcd60e51b815260040180806020018281038252602e815260200180616102602e913960400191505060405180910390fd5b8686106115195760405162461bcd60e51b81526004018080602001828103825260408152602001806163336040913960400191505060405180910390fd5b6115cc8d8d8d80806020026020016040519081016040528093929190818152602001838360200280828437600081840152601f19601f820116905080830192505050505050508c8c8c89898080602002602001604051908101604052809392919081815260200183836020028082843760009201919091525050604080516020808d0282810182019093528c82529093508c92508b918291850190849080828437600092019190915250613f1992505050565b601b879055601985905560215460408051636c9230db60e01b815290516001600160a01b0390921691636c9230db91600480820192602092909190829003018186803b15801561161b57600080fd5b505afa15801561162f573d6000803e3d6000fd5b505050506040513d602081101561164557600080fd5b5051601d55505050601c92909255505050505050505050565b6021546001600160a01b031633146116b1576040805162461bcd60e51b815260206004820152601160248201527013db9b1e4815985b1a59185d1bdc94d95d607a1b604482015290519081900360640190fd5b6060600380548060200260200160405190810160405280929190818152602001828054801561170957602002820191906000526020600020905b81546001600160a01b031681526001909101906020018083116116eb575b50939450600093505050505b81518110156117425761173a82828151811061172d57fe5b60200260200101516143ef565b600101611715565b5050565b6001600160a01b031660009081526022602052604090206001015460801b90565b601d54601b54600091901561177d576001611780565b60005b60ff16601f54601b54830101039150505b90565b3a6117d6576040805162461bcd60e51b815260206004820152600d60248201526c04761735072696365206973203609c1b604482015290519081900360640190fd5b6117de6119fc565b61181d576040805162461bcd60e51b81526020600482015260186024820152600080516020616242833981519152604482015290519081900360640190fd5b816001600160a01b0316836001600160a01b0316141561186e5760405162461bcd60e51b81526004018080602001828103825260278152602001806162936027913960400191505060405180910390fd5b3361187a848284614510565b61188583828461478c565b601a54604080516001600160a01b03878116825260208201869052825181861693918816927f4480d8e4b1e9095b94bf513961d26fe1d32386ebdd103d18fe8738cf4b2223ff92908290030190a450505050565b3a61191b576040805162461bcd60e51b815260206004820152600d60248201526c04761735072696365206973203609c1b604482015290519081900360640190fd5b333461192883838361478c565b505050565b611935614cb1565b6001600160a01b0316336001600160a01b0316146119845760405162461bcd60e51b815260040180806020018281038252602b8152602001806163c7602b913960400191505060405180910390fd5b61198c6119fc565b6119cb576040805162461bcd60e51b81526020600482015260186024820152600080516020616242833981519152604482015290519081900360640190fd5b600a55565b601560209081526000938452604080852082529284528284209052825290205460ff1681565b601f5481565b6021546001600160a01b0316151590565b6021546001600160a01b03163314611a60576040805162461bcd60e51b815260206004820152601160248201527013db9b1e4815985b1a59185d1bdc94d95d607a1b604482015290519081900360640190fd5b611a69816143ef565b50565b3a611aae576040805162461bcd60e51b815260206004820152600d60248201526c04761735072696365206973203609c1b604482015290519081900360640190fd5b611ab66119fc565b611af5576040805162461bcd60e51b81526020600482015260186024820152600080516020616242833981519152604482015290519081900360640190fd5b336000806001600160a01b0384168314611bab576001600160a01b03808516600090815260176020908152604080832093871683529290522054915081611b83576040805162461bcd60e51b815260206004820152601d60248201527f436c61696d3a2066697273742065706f63682063616e27742062652030000000604482015290519081900360640190fd5b506001600160a01b038084166000908152601860209081526040808320938616835292905220545b60215460408051632b5aa5d760e11b815290516000926001600160a01b0316916356b54bae916004808301926020929190829003018186803b158015611bf057600080fd5b505afa158015611c04573d6000803e3d6000fd5b505050506040513d6020811015611c1a57600080fd5b5051602154604080516253517560e01b81526001600160a01b0389811660048301529151939450600093919092169162535175916024808301926020929190829003018186803b158015611c6d57600080fd5b505afa158015611c81573d6000803e3d6000fd5b505050506040513d6020811015611c9757600080fd5b505187519091506000908190611dc757836001600160a01b031663dd03f5b9846040518263ffffffff1660e01b815260040180826001600160a01b03166001600160a01b0316815260200191505060006040518083038186803b158015611cfd57600080fd5b505afa158015611d11573d6000803e3d6000fd5b505050506040513d6000823e601f3d908101601f191682016040526020811015611d3a57600080fd5b8101908080516040519392919084600160201b821115611d5957600080fd5b908301906020820185811115611d6e57600080fd5b82518660208202830111600160201b82111715611d8a57600080fd5b82525081516020918201928201910280838360005b83811015611db7578181015183820152602001611d9f565b5050505090500160405250505098505b60005b89518110156121375760008a8281518110611de157fe5b602002602001015190508160001480611e0f57508a6001830381518110611e0457fe5b602002602001015181115b611e4a5760405162461bcd60e51b8152600401808060200182810382526025815260200180615f246025913960400191505060405180910390fd5b601a548110611ea0576040805162461bcd60e51b815260206004820181905260248201527f436c61696d3a206f6e6c79206265666f72652063757272656e742065706f6368604482015290519081900360640190fd5b6001600160a01b03808b166000908152601560209081526040808320938d1683529281528282208483529052205460ff1615611edc575061212f565b6000896001600160a01b03168b6001600160a01b031614611fcf5788821015611f0657505061212f565b818811158015611f1557508715155b15611f21575050612137565b611f2e828a868e8e614cd6565b9350816001019850866001600160a01b031663e1ab96d88584896040518463ffffffff1660e01b815260040180848152602001838152602001826001600160a01b03166001600160a01b03168152602001935050505060206040518083038186803b158015611f9c57600080fd5b505afa158015611fb0573d6000803e3d6000fd5b505050506040513d6020811015611fc657600080fd5b5051905061205c565b866001600160a01b031663ba2d759783886040518363ffffffff1660e01b815260040180838152602001826001600160a01b03166001600160a01b031681526020019250505060206040518083038186803b15801561202d57600080fd5b505afa158015612041573d6000803e3d6000fd5b505050506040513d602081101561205757600080fd5b505190505b61206c858263ffffffff614d4b16565b94506001601560008d6001600160a01b03166001600160a01b0316815260200190815260200160002060008c6001600160a01b03166001600160a01b03168152602001908152602001600020600084815260200190815260200160002060006101000a81548160ff021916908315150217905550818a6001600160a01b03168c6001600160a01b03167fd3208fd5300db64b97bc442f47ade72b7ebcd9272aaecdcc04c777bb762861b9846040518082815260200191505060405180910390a450505b600101611dca565b50836001600160a01b031663469507c683896040518363ffffffff1660e01b815260040180838152602001826001600160a01b03166001600160a01b0316815260200192505050600060405180830381600087803b15801561219857600080fd5b505af11580156121ac573d6000803e3d6000fd5b50505050505050505050505050565b6121c3614cb1565b6001600160a01b0316336001600160a01b0316146122125760405162461bcd60e51b815260040180806020018281038252602b8152602001806163c7602b913960400191505060405180910390fd5b61221a6119fc565b612259576040805162461bcd60e51b81526020600482015260186024820152600080516020616242833981519152604482015290519081900360640190fd5b600955565b6001600160a01b03811660009081526022602090815260409182902080548351601f60026000196101006001861615020190931692909204918201849004840281018401909452808452606093928301828280156122fd5780601f106122d2576101008083540402835291602001916122fd565b820191906000526020600020905b8154815290600101906020018083116122e057829003601f168201915b50505050509050919050565b601b5481565b602080526000908152604090205481565b601760209081526000928352604080842090915290825290205481565b3a61237f576040805162461bcd60e51b815260206004820152600d60248201526c04761735072696365206973203609c1b604482015290519081900360640190fd5b60215460408051630526083960e11b81526001600160a01b0387811660048301523360248301819052925192933493911691630a4c107291604480830192600092919082900301818387803b1580156123d757600080fd5b505af11580156123eb573d6000803e3d6000fd5b505050506123fa82838361478c565b6001600160a01b038216600090815260226020526040902061241d908686615d87565b50506001600160a01b0316600090815260226020526040902060010180546001600160801b03191660809290921c919091179055505050565b60235481565b60095481565b60116020526000908152604090205481565b606060008054806020026020016040519081016040528092919081815260200182805480156124cc57602002820191906000526020600020905b81546001600160a01b031681526001909101906020018083116124ae575b5050505050905090565b602154604080516253517560e01b81526001600160a01b03858116600483015291516000938493169162535175916024808301926020929190829003018186803b15801561252357600080fd5b505afa158015612537573d6000803e3d6000fd5b505050506040513d602081101561254d57600080fd5b5051905061256a816001600160a01b038681169086161415614d5d565b612578576000915050612637565b6001600160a01b038085166000908152601660209081526040808320878516845282529182902054602154835163a0d16cad60e01b8152868616600482015293519194169263a0d16cad926024808301939192829003018186803b1580156125df57600080fd5b505afa1580156125f3573d6000803e3d6000fd5b505050506040513d602081101561260957600080fd5b50516126185791506126379050565b600061262486866126b8565b905080821115612632578091505b509150505b92915050565b601e5481565b6001600160a01b0381166000908152600760209081526040918290208054835181840281018401909452808452606093928301828280156122fd57602002820191906000526020600020905b81546001600160a01b0316815260019091019060200180831161268f5750505050509050919050565b6001600160a01b039182166000908152600860209081526040808320939094168252918252828120601a548252909152205490565b601a5481565b6021546001600160a01b03163314612746576040805162461bcd60e51b815260206004820152601160248201527013db9b1e4815985b1a59185d1bdc94d95d607a1b604482015290519081900360640190fd5b6009546001600160a01b038216600090815260166020908152604080832090915290205410611a695761277a816001614e93565b611a6981614f6f565b6021546001600160a01b031633146127d6576040805162461bcd60e51b815260206004820152601160248201527013db9b1e4815985b1a59185d1bdc94d95d607a1b604482015290519081900360640190fd5b601d5543601e55565b602154604080516253517560e01b81526001600160a01b03858116600483015291516000938493169162535175916024808301926020929190829003018186803b15801561282c57600080fd5b505afa158015612840573d6000803e3d6000fd5b505050506040513d602081101561285657600080fd5b50519050612873816001600160a01b038681169086161415614d5d565b612881576000915050612637565b6021546040805163a0d16cad60e01b81526001600160a01b0384811660048301529151919092169163a0d16cad916024808301926020929190829003018186803b1580156128ce57600080fd5b505afa1580156128e2573d6000803e3d6000fd5b505050506040513d60208110156128f857600080fd5b5051612908576000915050612637565b61294761291585856126b8565b6001600160a01b038087166000908152601660209081526040808320938916835292905220549063ffffffff61502f16565b949350505050565b601060209081526000928352604080842090915290825290205481565b606060006004600554818054806020026020016040519081016040528092919081815260200182805480156129c057602002820191906000526020600020905b8154815260200190600101908083116129ac575b50505050509150915091509091565b60226020908152600091825260409182902080548351601f60026000196101006001861615020190931692909204918201849004840281018401909452808452909291839190830182828015612a665780601f10612a3b57610100808354040283529160200191612a66565b820191906000526020600020905b815481529060010190602001808311612a4957829003601f168201915b5050506001909301549192505060801b82565b601d5481565b6021546001600160a01b03163314612ad2576040805162461bcd60e51b815260206004820152601160248201527013db9b1e4815985b1a59185d1bdc94d95d607a1b604482015290519081900360640190fd5b601c54601f8054909201019055565b6001600160a01b0381166000908152600660209081526040918290208054835181840281018401909452808452606093928301828280156122fd576020028201919060005260206000209081546001600160a01b0316815260019091019060200180831161268f5750505050509050919050565b600e60209081526000928352604080842090915290825290205481565b606060028054806020026020016040519081016040528092919081815260200182805480156124cc576020028201919060005260206000209081546001600160a01b031681526001909101906020018083116124ae575050505050905090565b601660209081526000928352604080842090915290825290205481565b6001600160a01b038116600090815260126020526040812054815481108015612c415750826001600160a01b031660008281548110612c2a57fe5b6000918252602090912001546001600160a01b0316145b9392505050565b6021546001600160a01b03163314612c9b576040805162461bcd60e51b815260206004820152601160248201527013db9b1e4815985b1a59185d1bdc94d95d607a1b604482015290519081900360640190fd5b601c54601f80549091019055565b601c5481565b60126020526000908152604090205481565b3a612d03576040805162461bcd60e51b815260206004820152600d60248201526c04761735072696365206973203609c1b604482015290519081900360640190fd5b612d0b6119fc565b612d4a576040805162461bcd60e51b81526020600482015260186024820152600080516020616242833981519152604482015290519081900360640190fd5b6001600160a01b038216612d8f5760405162461bcd60e51b8152600401808060200182810382526022815260200180615fa76022913960400191505060405180910390fd5b80612dcb5760405162461bcd60e51b81526004018080602001828103825260258152602001806161306025913960400191505060405180910390fd5b602154604080516253517560e01b81526001600160a01b03858116600483015291513393612e5a93169162535175916024808301926020929190829003018186803b158015612e1957600080fd5b505afa158015612e2d573d6000803e3d6000fd5b505050506040513d6020811015612e4357600080fd5b50516001600160a01b038381169086161415614d5d565b612eab576040805162461bcd60e51b815260206004820152601a60248201527f4f7264657257697468647261773a206e6f7420616c6c6f776564000000000000604482015290519081900360640190fd5b6001600160a01b038084166000818152600c6020908152604080832094861680845294825280832054848452600d835281842054601684528285209685529583528184205494845291805282205490939291861315612fc55785612f0f88876127df565b811115612f4d5760405162461bcd60e51b815260040180806020018281038252602f81526020018061642e602f913960400191505060405180910390fd5b612f5d858263ffffffff614d4b16565b9450612f6f848263ffffffff614d4b16565b9350612f81838263ffffffff61502f16565b9250612f93828263ffffffff61502f16565b601a546001600160a01b03808b166000908152600e60209081526040808320938c168352929052205591506130149050565b6000869003612fda858263ffffffff61502f16565b9450612fec848263ffffffff61502f16565b9350612ffe838263ffffffff614d4b16565b9250613010828263ffffffff614d4b16565b9150505b6001600160a01b038088166000818152600c60209081526040808320948a16808452948252808320899055838352600d8252808320889055601682528083208584528252808320879055838352908052902083905514156130e55781158061307e57506009548210155b6130b95760405162461bcd60e51b8152600401808060200182810382526033815260200180615fc96033913960400191505060405180910390fd5b60008613156130d557816130d0576130d087615044565b6130e0565b6130e0876001614e93565b613160565b8115806130f45750600a548210155b61312f5760405162461bcd60e51b8152600401808060200182810382526033815260200180615fc96033913960400191505060405180910390fd5b600086131561314c5781613147576131478786615102565b613156565b613156878661525a565b613160878661531c565b61316987614f6f565b601a54856001600160a01b0316886001600160a01b03167f80d5c777e5f7ac6ee89723223803ca5c0ec0204f89e99c1b0cde973c66a64594896040518082815260200191505060405180910390a450505050505050565b601860209081526000928352604080842090915290825290205481565b601c54601b54601d54010390565b3a61322d576040805162461bcd60e51b815260206004820152600d60248201526c04761735072696365206973203609c1b604482015290519081900360640190fd5b6132356119fc565b613274576040805162461bcd60e51b81526020600482015260186024820152600080516020616242833981519152604482015290519081900360640190fd5b6001600160a01b0381166000908152600e6020908152604080832033808552925290912054601a54116132d85760405162461bcd60e51b815260040180806020018281038252603f8152602001806161bb603f913960400191505060405180910390fd5b602154604080516253517560e01b81526001600160a01b03858116600483015291516133699392909216916253517591602480820192602092909190829003018186803b15801561332857600080fd5b505afa15801561333c573d6000803e3d6000fd5b505050506040513d602081101561335257600080fd5b50516001600160a01b038381169085161415614d5d565b6133a45760405162461bcd60e51b815260040180806020018281038252602a81526020018061639d602a913960400191505060405180910390fd5b6001600160a01b038083166000908152600c60209081526040808320938516835292905220548061341c576040805162461bcd60e51b815260206004820152601a60248201527f636c61696d20616d6f756e74206d757374206e6f742062652030000000000000604482015290519081900360640190fd5b6001600160a01b038084166000818152600c602090815260408083209487168352938152838220829055918152600d9091522054613460908263ffffffff61502f16565b6001600160a01b038085166000908152600d60209081526040808320949094556016815283822092861682529190915220546134a0576134a0838361540e565b6134aa8282615561565b601a54826001600160a01b0316846001600160a01b03167ff380b0bc887e00f5b50d3c9d4eaaf5c9a0afd97b956316b995159384c4ede9b3846040518082815260200191505060405180910390a4505050565b606060038054806020026020016040519081016040528092919081815260200182805480156124cc576020028201919060005260206000209081546001600160a01b031681526001909101906020018083116124ae575050505050905090565b60235461357357690a968163f0a57b4000006023555b565b33600090815260226020526040902061358f908484615d87565b5033600090815260226020526040902060010180546001600160801b03191660809290921c9190911790555050565b600a5481565b600d6020526000908152604090205481565b606060018054806020026020016040519081016040528092919081815260200182805480156124cc576020028201919060005260206000209081546001600160a01b031681526001909101906020018083116124ae575050505050905090565b6021546001600160a01b031681565b600c60209081526000928352604080842090915290825290205481565b3a6136a4576040805162461bcd60e51b815260206004820152600d60248201526c04761735072696365206973203609c1b604482015290519081900360640190fd5b6136ac6119fc565b6136eb576040805162461bcd60e51b81526020600482015260186024820152600080516020616242833981519152604482015290519081900360640190fd5b602154604080516253517560e01b81523360048201819052915191926000926001600160a01b039091169162535175916024808301926020929190829003018186803b15801561373a57600080fd5b505afa15801561374e573d6000803e3d6000fd5b505050506040513d602081101561376457600080fd5b5051601a549091501515806137ef57506021546040805163facd743b60e01b81526001600160a01b0384811660048301529151919092169163facd743b916024808301926020929190829003018186803b1580156137c157600080fd5b505afa1580156137d5573d6000803e3d6000fd5b505050506040513d60208110156137eb57600080fd5b5051155b61382a5760405162461bcd60e51b815260040180806020018281038252602a815260200180616373602a913960400191505060405180910390fd5b611742826143ef565b60146020526000908152604090205481565b6021546001600160a01b03163314613898576040805162461bcd60e51b815260206004820152601160248201527013db9b1e4815985b1a59185d1bdc94d95d607a1b604482015290519081900360640190fd5b601a805460010190556000601f55565b610bb881565b3a6138f0576040805162461bcd60e51b815260206004820152600d60248201526c04761735072696365206973203609c1b604482015290519081900360640190fd5b6138f86119fc565b613937576040805162461bcd60e51b81526020600482015260186024820152600080516020616242833981519152604482015290519081900360640190fd5b33613943838284614510565b61394d8183615561565b601a54816001600160a01b0316846001600160a01b03167fa7c0f0cac6bd4d18042007706c84a8abe823751cf289b69c01e83eef7b5915c7856040518082815260200191505060405180910390a4505050565b600190565b60136020526000908152604090205481565b6000806000836001600160a01b0316856001600160a01b031614613a61576001600160a01b03808616600090815260176020908152604080832093881683529290522054915081613a395760405162461bcd60e51b815260040180806020018281038252602e815260200180615f49602e913960400191505060405180910390fd5b506001600160a01b038085166000908152601860209081526040808320938716835292905220545b60215460408051632b5aa5d760e11b815290516000926001600160a01b0316916356b54bae916004808301926020929190829003018186803b158015613aa657600080fd5b505afa158015613aba573d6000803e3d6000fd5b505050506040513d6020811015613ad057600080fd5b5051602154604080516253517560e01b81526001600160a01b038a811660048301529151939450600093919092169162535175916024808301926020929190829003018186803b158015613b2357600080fd5b505afa158015613b37573d6000803e3d6000fd5b505050506040513d6020811015613b4d57600080fd5b505188519091506000908190613c7d57836001600160a01b031663dd03f5b9846040518263ffffffff1660e01b815260040180826001600160a01b03166001600160a01b0316815260200191505060006040518083038186803b158015613bb357600080fd5b505afa158015613bc7573d6000803e3d6000fd5b505050506040513d6000823e601f3d908101601f191682016040526020811015613bf057600080fd5b8101908080516040519392919084600160201b821115613c0f57600080fd5b908301906020820185811115613c2457600080fd5b82518660208202830111600160201b82111715613c4057600080fd5b82525081516020918201928201910280838360005b83811015613c6d578181015183820152602001613c55565b5050505090500160405250505099505b60005b8a51811015613f0b5760008b8281518110613c9757fe5b602002602001015190508160001480613cc557508b6001830381518110613cba57fe5b602002602001015181115b613d005760405162461bcd60e51b81526004018080602001828103825260368152602001806160216036913960400191505060405180910390fd5b601a548110613d405760405162461bcd60e51b815260040180806020018281038252603c8152602001806163f2603c913960400191505060405180910390fd5b6001600160a01b03808c166000908152601560209081526040808320938e1683529281528282208483529052205460ff1615613d7c5750613f03565b60008a6001600160a01b03168c6001600160a01b031614613e6f5788821015613da6575050613f03565b818811158015613db557508715155b15613dc1575050613f0b565b613dce828a878f8f614cd6565b9450816001019850866001600160a01b031663e1ab96d88684896040518463ffffffff1660e01b815260040180848152602001838152602001826001600160a01b03166001600160a01b03168152602001935050505060206040518083038186803b158015613e3c57600080fd5b505afa158015613e50573d6000803e3d6000fd5b505050506040513d6020811015613e6657600080fd5b50519050613efc565b866001600160a01b031663ba2d759783886040518363ffffffff1660e01b815260040180838152602001826001600160a01b03166001600160a01b031681526020019250505060206040518083038186803b158015613ecd57600080fd5b505afa158015613ee1573d6000803e3d6000fd5b505050506040513d6020811015613ef757600080fd5b505190505b9290920191505b600101613c80565b509998505050505050505050565b613f21614cb1565b6001600160a01b0316336001600160a01b03161480613f585750613f43614cb1565b6001600160a01b0316326001600160a01b0316145b80613f715750613f66614cb1565b6001600160a01b0316155b80613f7a575043155b613fb55760405162461bcd60e51b8152600401808060200182810382526030815260200180615f776030913960400191505060405180910390fd5b613fbd6119fc565b15614005576040805162461bcd60e51b8152602060048201526013602482015272105b1c9958591e481a5b9a5d1a585b1a5e9959606a1b604482015290519081900360640190fd5b6001600160a01b038716614060576040805162461bcd60e51b815260206004820152601760248201527f56616c696461746f725365742063616e27742062652030000000000000000000604482015290519081900360640190fd5b60008651116140a05760405162461bcd60e51b81526004018080602001828103825260258152602001806161fa6025913960400191505060405180910390fd5b815186516140b590600263ffffffff6155c416565b146140f15760405162461bcd60e51b81526004018080602001828103825260298152602001806161926029913960400191505060405180910390fd5b80518651146141315760405162461bcd60e51b815260040180806020018281038252602a815260200180616085602a913960400191505060405180910390fd5b8461417c576040805162461bcd60e51b8152602060048201526016602482015275044656c656761746f724d696e5374616b6520697320360541b604482015290519081900360640190fd5b836141c7576040805162461bcd60e51b8152602060048201526016602482015275043616e6469646174654d696e5374616b6520697320360541b604482015290519081900360640190fd5b8383116142055760405162461bcd60e51b81526004018080602001828103825260318152602001806162626031913960400191505060405180910390fd5b602180546001600160a01b0319166001600160a01b03891617905560005b86518110156143dc5760006001600160a01b031687828151811061424357fe5b60200260200101516001600160a01b031614156142915760405162461bcd60e51b81526004018080602001828103825260228152602001806160e06022913960400191505060405180910390fd5b6142af8782815181106142a057fe5b60200260200101516000614e93565b6142cb8782815181106142be57fe5b6020026020010151615044565b8281600202815181106142da57fe5b60200260200101518382600202600101815181106142f457fe5b602002602001015160405160200180838152602001828152602001925050506040516020818303038152906040526022600089848151811061433257fe5b60200260200101516001600160a01b03166001600160a01b031681526020019081526020016000206000019080519060200190614370929190615e05565b5081818151811061437d57fe5b60200260200101516022600089848151811061439557fe5b6020908102919091018101516001600160a01b03168252810191909152604001600020600190810180546001600160801b03191660809390931c9290921790915501614223565b505050600a929092556009556023555050565b6001600160a01b0381166000908152601260205260408120549054811080156144415750816001600160a01b03166000828154811061442a57fe5b6000918252602090912001546001600160a01b0316145b156144d957600080548190600019810190811061445a57fe5b600091825260208220015481546001600160a01b0390911692508291908490811061448157fe5b600091825260208083209190910180546001600160a01b0319166001600160a01b03948516179055838316825260129052604080822085905591851681529081208190558054906144d6906000198301615e73565b50505b6144e2826155eb565b156144f5576144f082615628565b6144fe565b6144fe82615714565b614507826157cc565b61174282615970565b6001600160a01b0383166145555760405162461bcd60e51b815260040180806020018281038252602e815260200180616057602e913960400191505060405180910390fd5b806145a7576040805162461bcd60e51b815260206004820181905260248201527f616d6f756e7420746f207769746864726177206d757374206e6f742062652030604482015290519081900360640190fd5b6145b183836124d6565b8111156145ef5760405162461bcd60e51b8152600401808060200182810382526025815260200180615ffc6025913960400191505060405180910390fd5b6001600160a01b038084166000908152601660209081526040808320938616835292905290812054614627908363ffffffff61502f16565b90506000836001600160a01b0316856001600160a01b03161461464c57600a54614650565b6009545b905081158061465f5750808210155b61469a5760405162461bcd60e51b81526004018080602001828103825260398152602001806162fa6039913960400191505060405180910390fd5b6001600160a01b03808616600090815260166020908152604080832093881683529290529081208390556146ce86866126b8565b9050838110156146df5760006146e3565b8381035b6001600160a01b038088166000818152600860209081526040808320948b168352938152838220601a548352815283822094909455908152918052902054614731908563ffffffff61502f16565b6001600160a01b03871660009081526020805260409020558261475857614758868661540e565b856001600160a01b0316856001600160a01b03161461477b5761477b868661531c565b61478486614f6f565b505050505050565b602154604080516253517560e01b81526001600160a01b038681166004830152915160009392909216916253517591602480820192602092909190829003018186803b1580156147db57600080fd5b505afa1580156147ef573d6000803e3d6000fd5b505050506040513d602081101561480557600080fd5b505190506001600160a01b03811661484e5760405162461bcd60e51b81526004018080602001828103825260408152602001806162ba6040913960400191505060405180910390fd5b6001600160a01b0384166148a9576040805162461bcd60e51b815260206004820152601a60248201527f5374616b653a207374616b696e67416464726573732069732030000000000000604482015290519081900360640190fd5b816148fb576040805162461bcd60e51b815260206004820152601960248201527f5374616b653a207374616b696e67416d6f756e74206973203000000000000000604482015290519081900360640190fd5b60215460408051635491295760e11b81526001600160a01b0384811660048301529151919092169163a92252ae916024808301926020929190829003018186803b15801561494857600080fd5b505afa15801561495c573d6000803e3d6000fd5b505050506040513d602081101561497257600080fd5b5051156149c6576040805162461bcd60e51b815260206004820152601f60248201527f5374616b653a204d696e696e6720616464726573732069732062616e6e656400604482015290519081900360640190fd5b6001600160a01b0380851660009081526016602090815260408083209387168352929052908120546149fe908463ffffffff614d4b16565b9050846001600160a01b0316846001600160a01b03161415614a6057600954811015614a5b5760405162461bcd60e51b81526004018080602001828103825260318152602001806160af6031913960400191505060405180910390fd5b614afd565b600a54811015614aa15760405162461bcd60e51b8152600401808060200182810382526034815260200180615ef06034913960400191505060405180910390fd5b6001600160a01b0385166000908152601660209081526040808320909152902054614afd5760405162461bcd60e51b815260040180806020018281038252602381526020018061621f6023913960400191505060405180910390fd5b6023546001600160a01b0386166000908152602080526040902054614b28908563ffffffff614d4b16565b1115614b7b576040805162461bcd60e51b815260206004820152601d60248201527f7374616b65206c696d697420686173206265656e206578636565646564000000604482015290519081900360640190fd5b6001600160a01b038086166000908152601660209081526040808320938816835292905220819055614bbd83614bb187876126b8565b9063ffffffff614d4b16565b6001600160a01b038087166000818152600860209081526040808320948a168352938152838220601a548352815283822094909455908152918052902054614c0b908463ffffffff614d4b16565b6001600160a01b03808716600081815260208052604090209290925585161415614c3f57614c3a856001614e93565b614c53565b614c49858561525a565b614c53858561531c565b614c5c85614f6f565b601a54846001600160a01b0316866001600160a01b03167f2273de02cb1f69ba6259d22c4bc22c60e4c94c193265ef6afee324a04a9b6d22866040518082815260200191505060405180910390a45050505050565b7fb53127684a568b3173ae13b9f8a6016e243e63b6e8ee1178d6a717850b5d61035490565b60005b506001600160a01b038083166000908152600b602090815260408083209385168352928152828220888352905220548015614d27576000198114614d1d5780614d20565b60005b9050614d42565b84861415614d36575082614d42565b60001990950194614cd9565b95945050505050565b600082820183811015612c4157600080fd5b60008115614df0576021546040805163a881c5fd60e01b81526001600160a01b0386811660048301529151919092169163a881c5fd916024808301926020929190829003018186803b158015614db257600080fd5b505afa158015614dc6573d6000803e3d6000fd5b505050506040513d6020811015614ddc57600080fd5b505115614deb57506000612637565b614e76565b60215460408051635491295760e11b81526001600160a01b0386811660048301529151919092169163a92252ae916024808301926020929190829003018186803b158015614e3d57600080fd5b505afa158015614e51573d6000803e3d6000fd5b505050506040513d6020811015614e6757600080fd5b505115614e7657506000612637565b614e7e6139a0565b614e8a57506000612637565b50600192915050565b614e9c82612bef565b614f5757600080546001600160a01b0384168083526012602052604083208290556001820183559180527f290decd9548b62a8d60345a988386fc84ba6bc95484008f6362f93160ef3e5630180546001600160a01b0319169091179055614f01615a5c565b6000541115614f57576040805162461bcd60e51b815260206004820152601d60248201527f4d41585f43414e4449444154455320706f6f6c73206578636565646564000000604482015290519081900360640190fd5b614f6082615628565b80156117425761174282615a62565b600080614f7b83615b51565b9150915081614f8b575050611a69565b600060048281548110614f9a57fe5b90600052602060002001549050600060206000866001600160a01b03166001600160a01b031681526020019081526020016000205490508060048481548110614fdf57fe5b60009182526020909120015581811061500f576005546150079083830363ffffffff614d4b16565b600555615028565b6005546150249082840363ffffffff61502f16565b6005555b5050505050565b60008282111561503e57600080fd5b50900390565b6001600160a01b03811660009081526014602052604090205460035480821015806150995750826001600160a01b03166003838154811061508157fe5b6000918252602090912001546001600160a01b031614155b156150f9576001600160a01b03831660008181526014602052604081208390556003805460018101825591527fc2575a0e9e593c00f959f8c92f12db2869c3395a3b0502d05e2516446f71f85b0180546001600160a01b03191690911790555b611928836157cc565b6001600160a01b038083166000908152600660209081526040808320600f83528184209486168452939091529020548154811080156151695750826001600160a01b031682828154811061515257fe5b6000918252602090912001546001600160a01b0316145b156152105781546000908390600019810190811061518357fe5b9060005260206000200160009054906101000a90046001600160a01b03169050808383815481106151b057fe5b600091825260208083209190910180546001600160a01b0319166001600160a01b039485161790558783168252600f815260408083208585168452909152808220859055918616815290812055825461520d846000198301615e73565b50505b6001600160a01b038085166000908152600c60209081526040808320938716835292905220541561524a576152458484615bbe565b615254565b6152548484615c7c565b50505050565b6001600160a01b038083166000908152600660209081526040808320600f8352818420948616845293909152902054815480821015806152c35750836001600160a01b03168383815481106152ab57fe5b6000918252602090912001546001600160a01b031614155b15615312576001600160a01b038086166000908152600f602090815260408083209388168084529382528220849055855460018101875586835291200180546001600160a01b03191690911790555b6150288585615c7c565b601a546001600160a01b03808416600090815260166020908152604080832093861683529290522054600190910190806153585760001961535a565b805b6001600160a01b038086166000818152600b602090815260408083209489168084529482528083208884528252808320959095559181526017825283812092815291905220546153cd576001600160a01b0380851660009081526017602090815260408083209387168352929052208290555b80156153da5760006153dc565b815b6001600160a01b0394851660009081526018602090815260408083209690971682529490945293909220929092555050565b816001600160a01b0316816001600160a01b0316141561554057602154604080516253517560e01b81526001600160a01b038581166004830152915160009392909216916253517591602480820192602092909190829003018186803b15801561547757600080fd5b505afa15801561548b573d6000803e3d6000fd5b505050506040513d60208110156154a157600080fd5b50516021546040805163facd743b60e01b81526001600160a01b038085166004830152915193945091169163facd743b91602480820192602092909190829003018186803b1580156154f257600080fd5b505afa158015615506573d6000803e3d6000fd5b505050506040513d602081101561551c57600080fd5b5051156155315761552c83615044565b61553a565b61553a836143ef565b50611742565b61554a8282615102565b615553826155eb565b156117425761174282615628565b6040516001600160a01b0383169082156108fc029083906000818181858888f1935050505061174257808260405161559890615e97565b6001600160a01b039091168152604051908190036020019082f080158015615028573d6000803e3d6000fd5b6000826155d357506000612637565b828202828482816155e057fe5b0414612c4157600080fd5b6001600160a01b03811660009081526020805260408120541580156126375750506001600160a01b03166000908152600d60205260409020541590565b6001600160a01b0381166000908152601160205260409020546001548110801561567b5750816001600160a01b03166001828154811061566457fe5b6000918252602090912001546001600160a01b0316145b15611742576001805460009190600019810190811061569657fe5b600091825260209091200154600180546001600160a01b0390921692508291849081106156bf57fe5b600091825260208083209190910180546001600160a01b0319166001600160a01b0394851617905583831682526011905260408082208590559185168152908120556001805490615254906000198301615e73565b6001600160a01b03811660009081526011602052604090205460015480821015806157695750826001600160a01b03166001838154811061575157fe5b6000918252602090912001546001600160a01b031614155b15611928576001600160a01b038316600081815260116020526040812083905560018054808201825591527fb10e2d527612073b26eecdfd717e6a320cf44b4afac2b0732d9fcbe2b7fa0cf60180546001600160a01b0319169091179055505050565b600454600254146157dc57611a69565b6001600160a01b0381166000908152601360205260409020546002548110801561582f5750816001600160a01b03166002828154811061581857fe5b6000918252602090912001546001600160a01b0316145b15611742576004818154811061584157fe5b90600052602060002001546005541061587c576004818154811061586157fe5b60009182526020909120015460058054919091039055615882565b60006005555b600280546000198101916000918390811061589957fe5b600091825260209091200154600280546001600160a01b0390921692508291859081106158c257fe5b9060005260206000200160006101000a8154816001600160a01b0302191690836001600160a01b03160217905550600482815481106158fd57fe5b90600052602060002001546004848154811061591557fe5b60009182526020808320909101929092556001600160a01b03808416825260139092526040808220869055918616815290812055600280549061595c906000198301615e73565b506004805490615028906000198301615e73565b6001600160a01b038116600090815260146020526040902054600354811080156159c35750816001600160a01b0316600382815481106159ac57fe5b6000918252602090912001546001600160a01b0316145b1561174257600380546000919060001981019081106159de57fe5b600091825260209091200154600380546001600160a01b039092169250829184908110615a0757fe5b600091825260208083209190910180546001600160a01b0319166001600160a01b0394851617905583831682526014905260408082208590559185168152908120556003805490615254906000198301615e73565b610bb890565b6001600160a01b0381166000908152601360205260409020546002548082101580615ab75750826001600160a01b031660028381548110615a9f57fe5b6000918252602090912001546001600160a01b031614155b15615b48576001600160a01b03831660008181526013602052604081208390556002805460018181019092557f405787fa12a823e0f2b7631cc41b3ba8828b3321ca811111fa75cd3aa3bb5ace0180546001600160a01b03191690931790925560048054928301815581527f8a35acfbc15ff81a39ae7d344fd709f28e8600b4aa8c65c6b64bfe7fe36bd19b909101555b61192883615970565b6001600160a01b03811660009081526013602052604081205460025481108015615ba45750826001600160a01b031660028281548110615b8d57fe5b6000918252602090912001546001600160a01b0316145b15615bb25760019150615bb9565b5060009050805b915091565b6001600160a01b0380831660009081526007602090815260408083206010835281842094861684529390915290205481548082101580615c275750836001600160a01b0316838381548110615c0f57fe5b6000918252602090912001546001600160a01b031614155b15615028576001600160a01b0380861660009081526010602090815260408083209388168084529382528220849055855460018101875586835291200180546001600160a01b03191690911790555050505050565b6001600160a01b03808316600090815260076020908152604080832060108352818420948616845293909152902054815481108015615ce35750826001600160a01b0316828281548110615ccc57fe5b6000918252602090912001546001600160a01b0316145b1561525457815460009083906000198101908110615cfd57fe5b9060005260206000200160009054906101000a90046001600160a01b0316905080838381548110615d2a57fe5b600091825260208083209190910180546001600160a01b0319166001600160a01b03948516179055878316825260108152604080832085851684529091528082208590559186168152908120558254614784846000198301615e73565b828054600181600116156101000203166002900490600052602060002090601f016020900481019282601f10615dc85782800160ff19823516178555615df5565b82800160010185558215615df5579182015b82811115615df5578235825591602001919060010190615dda565b50615e01929150615ea3565b5090565b828054600181600116156101000203166002900490600052602060002090601f016020900481019282601f10615e4657805160ff1916838001178555615df5565b82800160010185558215615df5579182015b82811115615df5578251825591602001919060010190615e58565b81548183558181111561192857600083815260209020611928918101908301615ea3565b603280615ebe83390190565b61179191905b80821115615e015760008155600101615ea956fe60806040526040516032380380603283398181016040526020811015602357600080fd5b50516001600160a01b038116fffe5374616b653a2064656c656761746f725374616b65206973206c657373207468616e2064656c656761746f724d696e5374616b65436c61696d3a206e656564207374726963746c7920696e6372656173696e67206f72646572556e61626c6520746f206765742072657761726420616d6f756e74206966206e6f2066697273742065706f63682e496e697469616c697a6174696f6e206f6e6c79206f6e2067656e6573697320626c6f636b206f722062792061646d696e706f6f6c5374616b696e6741646472657373206d757374206e6f74206265203078306e65775374616b6520416d6f756e74206d7573742062652067726561746572207468616e20746865206d696e207374616b652e57697468647261773a206d61785769746864726177416c6c6f776564206578636565646564696e7465726e616c204572726f723a205374616b696e672045706f63687320726571756972656420746f206265206f7264657265642e576974686472617720706f6f6c207374616b696e672061646472657373206d757374206e6f74206265206e756c6c4d7573742070726f7669646520636f7272656374206e756d626572206f662049502061647265737365735374616b653a2063616e6469646174655374616b65206c657373207468616e2063616e6469646174654d696e5374616b65496e697469616c5374616b696e674164647265737365732063616e27742062652030546865207472616e736974696f6e2074696d656672616d65206d757374206265206c6f6e676572207468616e20306f72646572656420776974686472617720616d6f756e74206d757374206e6f742062652030466978656445706f63684475726174696f6e206d757374206265206c6f6e676572207468616e207769746864726177446973616c6c6f77506572696f644d7573742070726f7669646520636f7272656374206e756d626572206f66207075626c69634b65797363616e6e6f7420636c61696d206f72646572656420776974686472617720696e207468652073616d652065706f636820697420776173206f7264657265642e4d7573742070726f7669646520696e697469616c206d696e696e67206164647265737365735374616b653a2063616e27742064656c656761746520696e20656d70747920706f6f6c436f6e7472616374206e6f7420696e697469616c697a656400000000000000006d6178696d756d207374616b65206d7573742062652067726561746572207468656e206d696e696d756d207374616b652e4d6f76655374616b653a2073726320616e642064737420706f6f6c206973207468652073616d65506f6f6c20646f6573206e6f742065786973742e206d696e696e674164647265737320666f722074686174207374616b696e67206164647265737320697320306e65775374616b6520616d6f756e74206d757374206265206772656174657220657175616c207468616e20746865206d696e207374616b652e546865207472616e736974696f6e2074696d656672616d65206d7573742062652073686f72746572207468656e207468652065706f6368206475726174696f6e43616e27742072656d6f766520706f6f6c20647572696e6720317374207374616b696e672065706f6368436c61696d4f72646572656457697468647261773a205769746864726177206e6f7420616c6c6f7765646f6e6c792061646d696e20697320616c6c6f77656420746f2063616c6c20746869732066756e6374696f6e696e7465726e616c204572726f723a2065706f6368206d757374206e6f74206265206c6573736572207468616e2063757272656e742065706f63682e4f7264657257697468647261773a206d617857697468647261774f72646572416c6c6f776564206578636565646564a265627a7a72315820b54a7068aab20ac81a732406848a9018c4f3b494c2eeec33287454cc79a3650b64736f6c63430005110032",
  "source": "pragma solidity ^0.5.16;\n\nimport \"./base/StakingHbbftCoins.sol\";\n\n\ncontract StakingHbbft is StakingHbbftCoins {}\n",
  "sourcePath": "/home/sn/dmd/dmd-meta/hbbft-posdao-contracts/contracts/StakingHbbft.sol",
  "compiler": {
    "name": "solc",
    "version": "0.5.17+commit.d19bba13.Emscripten.clang"
  },
  "schemaVersion": "3.3.1",
  "updatedAt": "2022-01-07T23:00:13.302Z",
  "devdoc": {
    "methods": {
      "addPool(address,bytes,bytes16)": {
        "details": "Adds a new candidate's pool to the list of active pools (see the `getPools` getter) and moves the specified amount of staking coins from the candidate's staking address to the candidate's pool. A participant calls this function using their staking address when they want to create a pool. This is a wrapper for the `stake` function.",
        "params": {
          "_miningAddress": "The mining address of the candidate. The mining address is bound to the staking address (msg.sender). This address cannot be equal to `msg.sender`."
        }
      },
      "areStakeAndWithdrawAllowed()": {
        "details": "Determines whether staking/withdrawal operations are allowed at the moment. Used by all staking/withdrawal functions."
      },
      "claimOrderedWithdraw(address)": {
        "details": "Withdraws the staking coins from the specified pool ordered during the previous staking epochs with the `orderWithdraw` function. The ordered amount can be retrieved by the `orderedWithdrawAmount` getter.",
        "params": {
          "_poolStakingAddress": "The staking address of the pool from which the ordered coins are withdrawn."
        }
      },
      "claimReward(uint256[],address)": {
        "details": "Withdraws a reward from the specified pool for the specified staking epochs to the staker address (msg.sender).",
        "params": {
          "_poolStakingAddress": "The staking address of the pool from which the reward needs to be withdrawn.",
          "_stakingEpochs": "The list of staking epochs in ascending order. If the list is empty, it is taken with `BlockRewardHbbft.epochsPoolGotRewardFor` getter."
        }
      },
      "getPoolInternetAddress(address)": {
        "details": "Returns the registered IPv4 Address for the node.",
        "params": {
          "_poolAddress": "The Pool Address to query the IPv4Address for."
        },
        "return": "IPv4 Address for the given pool address. "
      },
      "getPoolPublicKey(address)": {
        "details": "Return the Public Key used by a Node to send targeted HBBFT Consensus Messages.",
        "params": {
          "_poolAddress": "The Pool Address to query the public key for."
        },
        "return": "the public key for the given pool address.  Note that the public key does not convert to the ethereum address of the pool address. The pool address is used for stacking, and not for signing HBBFT messages."
      },
      "getPools()": {
        "details": "Returns an array of the current active pools (the staking addresses of candidates and validators). The size of the array cannot exceed MAX_CANDIDATES. A pool can be added to this array with the `_addPoolActive` internal function which is called by the `stake` or `orderWithdraw` function. A pool is considered active if its address has at least the minimum stake and this stake is not ordered to be withdrawn."
      },
      "getPoolsInactive()": {
        "details": "Returns an array of the current inactive pools (the staking addresses of former candidates). A pool can be added to this array with the `_addPoolInactive` internal function which is called by `_removePool`. A pool is considered inactive if it is banned for some reason, if its address has zero stake, or if its entire stake is ordered to be withdrawn."
      },
      "getPoolsLikelihood()": {
        "details": "Returns the array of stake amounts for each corresponding address in the `poolsToBeElected` array (see the `getPoolsToBeElected` getter) and a sum of these amounts. Used by the `ValidatorSetHbbft.newValidatorSet` function when randomly selecting new validators at the last block of a staking epoch. An array value is updated every time any staked amount is changed in this pool (see the `_setLikelihood` internal function).",
        "return": "`uint256[] likelihoods` - The array of the coefficients. The array length is always equal to the length of the `poolsToBeElected` array. `uint256 sum` - The total sum of the amounts."
      },
      "getPoolsToBeElected()": {
        "details": "Returns the list of pools (their staking addresses) which will participate in a new validator set selection process in the `ValidatorSetHbbft.newValidatorSet` function. This is an array of pools which will be considered as candidates when forming a new validator set (at the last block of a staking epoch). This array is kept updated by the `_addPoolToBeElected` and `_deletePoolToBeElected` internal functions."
      },
      "getPoolsToBeRemoved()": {
        "details": "Returns the list of pools (their staking addresses) which will be removed by the `ValidatorSetHbbft.newValidatorSet` function from the active `pools` array (at the last block of a staking epoch). This array is kept updated by the `_addPoolToBeRemoved` and `_deletePoolToBeRemoved` internal functions. A pool is added to this array when the pool's address withdraws (or orders) all of its own staking coins from the pool, inactivating the pool."
      },
      "getRewardAmount(uint256[],address,address)": {
        "details": "Returns reward amount in native coins for the specified pool, the specified staking epochs, and the specified staker address (delegator or validator).",
        "params": {
          "_poolStakingAddress": "The staking address of the pool for which the amounts need to be returned.",
          "_staker": "The staker address (validator's staking address or delegator's address).",
          "_stakingEpochs": "The list of staking epochs in ascending order. If the list is empty, it is taken with `BlockRewardHbbft.epochsPoolGotRewardFor` getter."
        }
      },
      "incrementStakingEpoch()": {
        "details": "Increments the serial number of the current staking epoch. Called by the `ValidatorSetHbbft.newValidatorSet` at the last block of the finished staking epoch."
      },
      "initialize(address,address[],uint256,uint256,uint256,uint256,uint256,uint256,bytes32[],bytes16[])": {
        "details": "Initializes the network parameters. Can only be called by the constructor of the `InitializerHbbft` contract or owner.",
        "params": {
          "_candidateMinStake": "The minimum allowed amount of candidate/validator stake in Wei.",
          "_delegatorMinStake": "The minimum allowed amount of delegator stake in Wei.",
          "_initialStakingAddresses": "The array of initial validators' staking addresses.",
          "_stakingFixedEpochDuration": "The fixed duration of each epoch before keyGen starts.",
          "_stakingTransitionTimeframeLength": "Length of the timeframe in seconds for the transition to the new validator set.",
          "_stakingWithdrawDisallowPeriod": "The duration period at the end of a staking epoch during which participants cannot stake/withdraw/order/claim their staking coins",
          "_validatorSetContract": "The address of the `ValidatorSetHbbft` contract."
        }
      },
      "isInitialized()": {
        "details": "Returns a boolean flag indicating if the `initialize` function has been called."
      },
      "isPoolActive(address)": {
        "details": "Returns a flag indicating whether a specified address is in the `pools` array. See the `getPools` getter.",
        "params": {
          "_stakingAddress": "The staking address of the pool."
        }
      },
      "maxWithdrawAllowed(address,address)": {
        "details": "Returns the maximum amount which can be withdrawn from the specified pool by the specified staker at the moment. Used by the `withdraw` and `moveStake` functions.",
        "params": {
          "_poolStakingAddress": "The pool staking address from which the withdrawal will be made.",
          "_staker": "The staker address that is going to withdraw."
        }
      },
      "maxWithdrawOrderAllowed(address,address)": {
        "details": "Returns the maximum amount which can be ordered to be withdrawn from the specified pool by the specified staker at the moment. Used by the `orderWithdraw` function.",
        "params": {
          "_poolStakingAddress": "The pool staking address from which the withdrawal will be ordered.",
          "_staker": "The staker address that is going to order the withdrawal."
        }
      },
      "moveStake(address,address,uint256)": {
        "details": "Moves staking coins from one pool to another. A staker calls this function when they want to move their coins from one pool to another without withdrawing their coins.",
        "params": {
          "_amount": "The amount of staking coins to be moved. The amount cannot exceed the value returned by the `maxWithdrawAllowed` getter.",
          "_fromPoolStakingAddress": "The staking address of the source pool.",
          "_toPoolStakingAddress": "The staking address of the target pool."
        }
      },
      "notifyAvailability(address)": {
        "details": "Notifies hbbft staking contract that a validator asociated with the given `_stakingAddress` became available again and can be put on to the list  of available nodes again."
      },
      "notifyKeyGenFailed()": {
        "details": "Notifies hbbft staking contract that the key generation has failed, and a new round  of keygeneration starts."
      },
      "notifyNetworkOfftimeDetected(uint256)": {
        "details": "Notifies hbbft staking contract about a detected network offline time. if there is no handling for this, validators got chosen outside the transition timewindow and get banned immediatly, since they never got their chance to write their keys. more about: https://github.com/DMDcoin/hbbft-posdao-contracts/issues/96"
      },
      "orderWithdraw(address,int256)": {
        "details": "Orders coins withdrawal from the staking address of the specified pool to the staker's address. The requested coins can be claimed after the current staking epoch is complete using the `claimOrderedWithdraw` function.",
        "params": {
          "_amount": "The amount to be withdrawn. A positive value means the staker wants to either set or increase their withdrawal amount. A negative value means the staker wants to decrease a withdrawal amount that was previously set. The amount cannot exceed the value returned by the `maxWithdrawOrderAllowed` getter.",
          "_poolStakingAddress": "The staking address of the pool from which the amount will be withdrawn."
        }
      },
      "poolDelegators(address)": {
        "details": "Returns an array of the current active delegators of the specified pool. A delegator is considered active if they have staked into the specified pool and their stake is not ordered to be withdrawn.",
        "params": {
          "_poolStakingAddress": "The pool staking address."
        }
      },
      "poolDelegatorsInactive(address)": {
        "details": "Returns an array of the current inactive delegators of the specified pool. A delegator is considered inactive if their entire stake is ordered to be withdrawn but not yet claimed.",
        "params": {
          "_poolStakingAddress": "The pool staking address."
        }
      },
      "removeMyPool()": {
        "details": "Removes the candidate's or validator's pool from the `pools` array (a list of active pools which can be retrieved by the `getPools` getter). When a candidate or validator wants to remove their pool, they should call this function from their staking address."
      },
      "removePool(address)": {
        "details": "Removes a specified pool from the `pools` array (a list of active pools which can be retrieved by the `getPools` getter). Called by the `ValidatorSetHbbft._removeMaliciousValidator` internal function,  and the `ValidatorSetHbbft.handleFailedKeyGeneration` function when a pool must be removed by the algorithm.",
        "params": {
          "_stakingAddress": "The staking address of the pool to be removed."
        }
      },
      "removePools()": {
        "details": "Removes pools which are in the `_poolsToBeRemoved` internal array from the `pools` array. Called by the `ValidatorSetHbbft.newValidatorSet` function when a pool must be removed by the algorithm."
      },
      "setCandidateMinStake(uint256)": {
        "details": "Sets (updates) the limit of the minimum candidate stake (CANDIDATE_MIN_STAKE). Can only be called by the `owner`.",
        "params": {
          "_minStake": "The value of a new limit in Wei."
        }
      },
      "setDelegatorMinStake(uint256)": {
        "details": "Sets (updates) the limit of the minimum delegator stake (DELEGATOR_MIN_STAKE). Can only be called by the `owner`.",
        "params": {
          "_minStake": "The value of a new limit in Wei."
        }
      },
      "setPoolInfo(bytes,bytes16)": {
        "details": "set's the pool info for a specific ethereum address.",
        "params": {
          "_ip": "(optional) IPV4 address of a running Node Software or Proxy. Stores the supplied data for a staking (pool) address. This function is external available without security checks, since no array operations are used in the implementation, this allows the flexibility to set the pool information before adding the stake to the pool.",
          "_publicKey": "public key of the (future) signing address."
        }
      },
      "setStakingEpochStartTime(uint256)": {
        "details": "Sets the timetamp of the current epoch's last block as the start time of the upcoming staking epoch. Called by the `ValidatorSetHbbft.newValidatorSet` function at the last block of a staking epoch.",
        "params": {
          "_timestamp": "The starting time of the very first block in the upcoming staking epoch."
        }
      },
      "stake(address)": {
        "details": "Moves the specified amount of staking coins from the staker's address to the staking address of the specified pool. Actually, the amount is stored in a balance of this StakingHbbft contract. A staker calls this function when they want to make a stake into a pool.",
        "params": {
          "_toPoolStakingAddress": "The staking address of the pool where the coins should be staked."
        }
      },
      "stakeAmountByCurrentEpoch(address,address)": {
        "details": "Returns the amount of staking coins staked into the specified pool by the specified staker during the current staking epoch (see the `stakingEpoch` getter). Used by the `stake`, `withdraw`, and `orderWithdraw` functions.",
        "params": {
          "_poolStakingAddress": "The pool staking address.",
          "_staker": "The staker's address."
        }
      },
      "stakingFixedEpochEndTime()": {
        "details": "Returns an indicative time of the last block of the current staking epoch before key generation starts."
      },
      "startTimeOfNextPhaseTransition()": {
        "details": "indicates the time when the new validatorset for the next epoch gets chosen. this is the start of a timeframe before the end of the epoch, that is long enough for the validators to create a new shared key."
      },
      "upgrade()": {
        "details": "save function that can be called by anyone that fixes uninitialzed values."
      },
      "withdraw(address,uint256)": {
        "details": "Moves the specified amount of staking coins from the staking address of the specified pool to the staker's address. A staker calls this function when they want to withdraw their coins.",
        "params": {
          "_amount": "The amount of coins to be withdrawn. The amount cannot exceed the value returned by the `maxWithdrawAllowed` getter.",
          "_fromPoolStakingAddress": "The staking address of the pool from which the coins should be withdrawn."
        }
      }
    }
  },
  "userdoc": {
    "methods": {}
  }
}