{
  "_format": "hh-sol-artifact-1",
  "contractName": "StakingHbbft",
  "sourceName": "contracts/StakingHbbft.sol",
  "abi": [
    {
      "anonymous": false,
      "inputs": [
        {
          "indexed": true,
          "internalType": "address",
          "name": "fromPoolStakingAddress",
          "type": "address"
        },
        {
          "indexed": true,
          "internalType": "address",
          "name": "staker",
          "type": "address"
        },
        {
          "indexed": true,
          "internalType": "uint256",
          "name": "stakingEpoch",
          "type": "uint256"
        },
        {
          "indexed": false,
          "internalType": "uint256",
          "name": "amount",
          "type": "uint256"
        }
      ],
      "name": "ClaimedOrderedWithdrawal",
      "type": "event"
    },
    {
      "anonymous": false,
      "inputs": [
        {
          "indexed": true,
          "internalType": "address",
          "name": "fromPoolStakingAddress",
          "type": "address"
        },
        {
          "indexed": true,
          "internalType": "address",
          "name": "staker",
          "type": "address"
        },
        {
          "indexed": true,
          "internalType": "uint256",
          "name": "stakingEpoch",
          "type": "uint256"
        },
        {
          "indexed": false,
          "internalType": "uint256",
          "name": "nativeCoinsAmount",
          "type": "uint256"
        }
      ],
      "name": "ClaimedReward",
      "type": "event"
    },
    {
      "anonymous": false,
      "inputs": [
        {
          "indexed": false,
          "internalType": "address",
          "name": "fromPoolStakingAddress",
          "type": "address"
        },
        {
          "indexed": true,
          "internalType": "address",
          "name": "toPoolStakingAddress",
          "type": "address"
        },
        {
          "indexed": true,
          "internalType": "address",
          "name": "staker",
          "type": "address"
        },
        {
          "indexed": true,
          "internalType": "uint256",
          "name": "stakingEpoch",
          "type": "uint256"
        },
        {
          "indexed": false,
          "internalType": "uint256",
          "name": "amount",
          "type": "uint256"
        }
      ],
      "name": "MovedStake",
      "type": "event"
    },
    {
      "anonymous": false,
      "inputs": [
        {
          "indexed": true,
          "internalType": "address",
          "name": "fromPoolStakingAddress",
          "type": "address"
        },
        {
          "indexed": true,
          "internalType": "address",
          "name": "staker",
          "type": "address"
        },
        {
          "indexed": true,
          "internalType": "uint256",
          "name": "stakingEpoch",
          "type": "uint256"
        },
        {
          "indexed": false,
          "internalType": "int256",
          "name": "amount",
          "type": "int256"
        }
      ],
      "name": "OrderedWithdrawal",
      "type": "event"
    },
    {
      "anonymous": false,
      "inputs": [
        {
          "indexed": true,
          "internalType": "address",
          "name": "toPoolStakingAddress",
          "type": "address"
        },
        {
          "indexed": true,
          "internalType": "address",
          "name": "staker",
          "type": "address"
        },
        {
          "indexed": true,
          "internalType": "uint256",
          "name": "stakingEpoch",
          "type": "uint256"
        },
        {
          "indexed": false,
          "internalType": "uint256",
          "name": "amount",
          "type": "uint256"
        }
      ],
      "name": "PlacedStake",
      "type": "event"
    },
    {
      "anonymous": false,
      "inputs": [
        {
          "indexed": true,
          "internalType": "address",
          "name": "fromPoolStakingAddress",
          "type": "address"
        },
        {
          "indexed": true,
          "internalType": "address",
          "name": "staker",
          "type": "address"
        },
        {
          "indexed": true,
          "internalType": "uint256",
          "name": "stakingEpoch",
          "type": "uint256"
        },
        {
          "indexed": false,
          "internalType": "uint256",
          "name": "amount",
          "type": "uint256"
        }
      ],
      "name": "WithdrewStake",
      "type": "event"
    },
    {
      "inputs": [],
      "name": "MAX_CANDIDATES",
      "outputs": [
        {
          "internalType": "uint256",
          "name": "",
          "type": "uint256"
        }
      ],
      "stateMutability": "view",
      "type": "function"
    },
    {
      "inputs": [
        {
          "internalType": "address",
          "name": "_miningAddress",
          "type": "address"
        },
        {
          "internalType": "bytes",
          "name": "_publicKey",
          "type": "bytes"
        },
        {
          "internalType": "bytes16",
          "name": "_ip",
          "type": "bytes16"
        }
      ],
      "name": "addPool",
      "outputs": [],
      "stateMutability": "payable",
      "type": "function"
    },
    {
      "inputs": [],
      "name": "areStakeAndWithdrawAllowed",
      "outputs": [
        {
          "internalType": "bool",
          "name": "",
          "type": "bool"
        }
      ],
      "stateMutability": "view",
      "type": "function"
    },
    {
      "inputs": [],
      "name": "candidateMinStake",
      "outputs": [
        {
          "internalType": "uint256",
          "name": "",
          "type": "uint256"
        }
      ],
      "stateMutability": "view",
      "type": "function"
    },
    {
      "inputs": [
        {
          "internalType": "address",
          "name": "_poolStakingAddress",
          "type": "address"
        }
      ],
      "name": "claimOrderedWithdraw",
      "outputs": [],
      "stateMutability": "nonpayable",
      "type": "function"
    },
    {
      "inputs": [
        {
          "internalType": "uint256[]",
          "name": "_stakingEpochs",
          "type": "uint256[]"
        },
        {
          "internalType": "address",
          "name": "_poolStakingAddress",
          "type": "address"
        }
      ],
      "name": "claimReward",
      "outputs": [],
      "stateMutability": "nonpayable",
      "type": "function"
    },
    {
      "inputs": [],
      "name": "currentKeyGenExtraTimeWindow",
      "outputs": [
        {
          "internalType": "uint256",
          "name": "",
          "type": "uint256"
        }
      ],
      "stateMutability": "view",
      "type": "function"
    },
    {
      "inputs": [],
      "name": "delegatorMinStake",
      "outputs": [
        {
          "internalType": "uint256",
          "name": "",
          "type": "uint256"
        }
      ],
      "stateMutability": "view",
      "type": "function"
    },
    {
      "inputs": [
        {
          "internalType": "address",
          "name": "",
          "type": "address"
        },
        {
          "internalType": "address",
          "name": "",
          "type": "address"
        },
        {
          "internalType": "uint256",
          "name": "",
          "type": "uint256"
        }
      ],
      "name": "delegatorStakeSnapshot",
      "outputs": [
        {
          "internalType": "uint256",
          "name": "",
          "type": "uint256"
        }
      ],
      "stateMutability": "view",
      "type": "function"
    },
    {
      "inputs": [
        {
          "internalType": "address",
          "name": "_poolAddress",
          "type": "address"
        }
      ],
      "name": "getPoolInternetAddress",
      "outputs": [
        {
          "internalType": "bytes16",
          "name": "",
          "type": "bytes16"
        },
        {
          "internalType": "bytes2",
          "name": "",
          "type": "bytes2"
        }
      ],
      "stateMutability": "view",
      "type": "function"
    },
    {
      "inputs": [
        {
          "internalType": "address",
          "name": "_poolAddress",
          "type": "address"
        }
      ],
      "name": "getPoolPublicKey",
      "outputs": [
        {
          "internalType": "bytes",
          "name": "",
          "type": "bytes"
        }
      ],
      "stateMutability": "view",
      "type": "function"
    },
    {
      "inputs": [],
      "name": "getPools",
      "outputs": [
        {
          "internalType": "address[]",
          "name": "",
          "type": "address[]"
        }
      ],
      "stateMutability": "view",
      "type": "function"
    },
    {
      "inputs": [],
      "name": "getPoolsInactive",
      "outputs": [
        {
          "internalType": "address[]",
          "name": "",
          "type": "address[]"
        }
      ],
      "stateMutability": "view",
      "type": "function"
    },
    {
      "inputs": [],
      "name": "getPoolsLikelihood",
      "outputs": [
        {
          "internalType": "uint256[]",
          "name": "likelihoods",
          "type": "uint256[]"
        },
        {
          "internalType": "uint256",
          "name": "sum",
          "type": "uint256"
        }
      ],
      "stateMutability": "view",
      "type": "function"
    },
    {
      "inputs": [],
      "name": "getPoolsToBeElected",
      "outputs": [
        {
          "internalType": "address[]",
          "name": "",
          "type": "address[]"
        }
      ],
      "stateMutability": "view",
      "type": "function"
    },
    {
      "inputs": [],
      "name": "getPoolsToBeRemoved",
      "outputs": [
        {
          "internalType": "address[]",
          "name": "",
          "type": "address[]"
        }
      ],
      "stateMutability": "view",
      "type": "function"
    },
    {
      "inputs": [
        {
          "internalType": "uint256[]",
          "name": "_stakingEpochs",
          "type": "uint256[]"
        },
        {
          "internalType": "address",
          "name": "_poolStakingAddress",
          "type": "address"
        },
        {
          "internalType": "address",
          "name": "_staker",
          "type": "address"
        }
      ],
      "name": "getRewardAmount",
      "outputs": [
        {
          "internalType": "uint256",
          "name": "",
          "type": "uint256"
        }
      ],
      "stateMutability": "view",
      "type": "function"
    },
    {
      "inputs": [],
      "name": "incrementStakingEpoch",
      "outputs": [],
      "stateMutability": "nonpayable",
      "type": "function"
    },
    {
      "inputs": [
        {
          "components": [
            {
              "internalType": "address",
              "name": "_validatorSetContract",
              "type": "address"
            },
            {
              "internalType": "address[]",
              "name": "_initialStakingAddresses",
              "type": "address[]"
            },
            {
              "internalType": "uint256",
              "name": "_delegatorMinStake",
              "type": "uint256"
            },
            {
              "internalType": "uint256",
              "name": "_candidateMinStake",
              "type": "uint256"
            },
            {
              "internalType": "uint256",
              "name": "_maxStake",
              "type": "uint256"
            },
            {
              "internalType": "uint256",
              "name": "_stakingFixedEpochDuration",
              "type": "uint256"
            },
            {
              "internalType": "uint256",
              "name": "_stakingTransitionTimeframeLength",
              "type": "uint256"
            },
            {
              "internalType": "uint256",
              "name": "_stakingWithdrawDisallowPeriod",
              "type": "uint256"
            }
          ],
          "internalType": "struct IStakingHbbft.StakingParams",
          "name": "stakingParams",
          "type": "tuple"
        },
        {
          "internalType": "bytes32[]",
          "name": "_publicKeys",
          "type": "bytes32[]"
        },
        {
          "internalType": "bytes16[]",
          "name": "_internetAddresses",
          "type": "bytes16[]"
        }
      ],
      "name": "initialize",
      "outputs": [],
      "stateMutability": "nonpayable",
      "type": "function"
    },
    {
      "inputs": [],
      "name": "isInitialized",
      "outputs": [
        {
          "internalType": "bool",
          "name": "",
          "type": "bool"
        }
      ],
      "stateMutability": "view",
      "type": "function"
    },
    {
      "inputs": [
        {
          "internalType": "address",
          "name": "_stakingAddress",
          "type": "address"
        }
      ],
      "name": "isPoolActive",
      "outputs": [
        {
          "internalType": "bool",
          "name": "",
          "type": "bool"
        }
      ],
      "stateMutability": "view",
      "type": "function"
    },
    {
      "inputs": [],
      "name": "maxStakeAmount",
      "outputs": [
        {
          "internalType": "uint256",
          "name": "",
          "type": "uint256"
        }
      ],
      "stateMutability": "view",
      "type": "function"
    },
    {
      "inputs": [
        {
          "internalType": "address",
          "name": "_poolStakingAddress",
          "type": "address"
        },
        {
          "internalType": "address",
          "name": "_staker",
          "type": "address"
        }
      ],
      "name": "maxWithdrawAllowed",
      "outputs": [
        {
          "internalType": "uint256",
          "name": "",
          "type": "uint256"
        }
      ],
      "stateMutability": "view",
      "type": "function"
    },
    {
      "inputs": [
        {
          "internalType": "address",
          "name": "_poolStakingAddress",
          "type": "address"
        },
        {
          "internalType": "address",
          "name": "_staker",
          "type": "address"
        }
      ],
      "name": "maxWithdrawOrderAllowed",
      "outputs": [
        {
          "internalType": "uint256",
          "name": "",
          "type": "uint256"
        }
      ],
      "stateMutability": "view",
      "type": "function"
    },
    {
      "inputs": [
        {
          "internalType": "address",
          "name": "_fromPoolStakingAddress",
          "type": "address"
        },
        {
          "internalType": "address",
          "name": "_toPoolStakingAddress",
          "type": "address"
        },
        {
          "internalType": "uint256",
          "name": "_amount",
          "type": "uint256"
        }
      ],
      "name": "moveStake",
      "outputs": [],
      "stateMutability": "nonpayable",
      "type": "function"
    },
    {
      "inputs": [
        {
          "internalType": "address",
          "name": "_stakingAddress",
          "type": "address"
        }
      ],
      "name": "notifyAvailability",
      "outputs": [],
      "stateMutability": "nonpayable",
      "type": "function"
    },
    {
      "inputs": [],
      "name": "notifyKeyGenFailed",
      "outputs": [],
      "stateMutability": "nonpayable",
      "type": "function"
    },
    {
      "inputs": [
        {
          "internalType": "uint256",
          "name": "detectedOfflineTime",
          "type": "uint256"
        }
      ],
      "name": "notifyNetworkOfftimeDetected",
      "outputs": [],
      "stateMutability": "nonpayable",
      "type": "function"
    },
    {
      "inputs": [
        {
          "internalType": "address",
          "name": "_poolStakingAddress",
          "type": "address"
        },
        {
          "internalType": "int256",
          "name": "_amount",
          "type": "int256"
        }
      ],
      "name": "orderWithdraw",
      "outputs": [],
      "stateMutability": "nonpayable",
      "type": "function"
    },
    {
      "inputs": [
        {
          "internalType": "address",
          "name": "",
          "type": "address"
        },
        {
          "internalType": "address",
          "name": "",
          "type": "address"
        }
      ],
      "name": "orderWithdrawEpoch",
      "outputs": [
        {
          "internalType": "uint256",
          "name": "",
          "type": "uint256"
        }
      ],
      "stateMutability": "view",
      "type": "function"
    },
    {
      "inputs": [
        {
          "internalType": "address",
          "name": "",
          "type": "address"
        },
        {
          "internalType": "address",
          "name": "",
          "type": "address"
        }
      ],
      "name": "orderedWithdrawAmount",
      "outputs": [
        {
          "internalType": "uint256",
          "name": "",
          "type": "uint256"
        }
      ],
      "stateMutability": "view",
      "type": "function"
    },
    {
      "inputs": [
        {
          "internalType": "address",
          "name": "",
          "type": "address"
        }
      ],
      "name": "orderedWithdrawAmountTotal",
      "outputs": [
        {
          "internalType": "uint256",
          "name": "",
          "type": "uint256"
        }
      ],
      "stateMutability": "view",
      "type": "function"
    },
    {
      "inputs": [
        {
          "internalType": "address",
          "name": "",
          "type": "address"
        },
        {
          "internalType": "address",
          "name": "",
          "type": "address"
        }
      ],
      "name": "poolDelegatorInactiveIndex",
      "outputs": [
        {
          "internalType": "uint256",
          "name": "",
          "type": "uint256"
        }
      ],
      "stateMutability": "view",
      "type": "function"
    },
    {
      "inputs": [
        {
          "internalType": "address",
          "name": "",
          "type": "address"
        },
        {
          "internalType": "address",
          "name": "",
          "type": "address"
        }
      ],
      "name": "poolDelegatorIndex",
      "outputs": [
        {
          "internalType": "uint256",
          "name": "",
          "type": "uint256"
        }
      ],
      "stateMutability": "view",
      "type": "function"
    },
    {
      "inputs": [
        {
          "internalType": "address",
          "name": "_poolStakingAddress",
          "type": "address"
        }
      ],
      "name": "poolDelegators",
      "outputs": [
        {
          "internalType": "address[]",
          "name": "",
          "type": "address[]"
        }
      ],
      "stateMutability": "view",
      "type": "function"
    },
    {
      "inputs": [
        {
          "internalType": "address",
          "name": "_poolStakingAddress",
          "type": "address"
        }
      ],
      "name": "poolDelegatorsInactive",
      "outputs": [
        {
          "internalType": "address[]",
          "name": "",
          "type": "address[]"
        }
      ],
      "stateMutability": "view",
      "type": "function"
    },
    {
      "inputs": [
        {
          "internalType": "address",
          "name": "",
          "type": "address"
        }
      ],
      "name": "poolInactiveIndex",
      "outputs": [
        {
          "internalType": "uint256",
          "name": "",
          "type": "uint256"
        }
      ],
      "stateMutability": "view",
      "type": "function"
    },
    {
      "inputs": [
        {
          "internalType": "address",
          "name": "",
          "type": "address"
        }
      ],
      "name": "poolIndex",
      "outputs": [
        {
          "internalType": "uint256",
          "name": "",
          "type": "uint256"
        }
      ],
      "stateMutability": "view",
      "type": "function"
    },
    {
      "inputs": [
        {
          "internalType": "address",
          "name": "",
          "type": "address"
        }
      ],
      "name": "poolInfo",
      "outputs": [
        {
          "internalType": "bytes",
          "name": "publicKey",
          "type": "bytes"
        },
        {
          "internalType": "bytes16",
          "name": "internetAddress",
          "type": "bytes16"
        },
        {
          "internalType": "bytes2",
          "name": "port",
          "type": "bytes2"
        }
      ],
      "stateMutability": "view",
      "type": "function"
    },
    {
      "inputs": [
        {
          "internalType": "address",
          "name": "",
          "type": "address"
        }
      ],
      "name": "poolToBeElectedIndex",
      "outputs": [
        {
          "internalType": "uint256",
          "name": "",
          "type": "uint256"
        }
      ],
      "stateMutability": "view",
      "type": "function"
    },
    {
      "inputs": [
        {
          "internalType": "address",
          "name": "",
          "type": "address"
        }
      ],
      "name": "poolToBeRemovedIndex",
      "outputs": [
        {
          "internalType": "uint256",
          "name": "",
          "type": "uint256"
        }
      ],
      "stateMutability": "view",
      "type": "function"
    },
    {
      "inputs": [],
      "name": "removeMyPool",
      "outputs": [],
      "stateMutability": "nonpayable",
      "type": "function"
    },
    {
      "inputs": [
        {
          "internalType": "address",
          "name": "_stakingAddress",
          "type": "address"
        }
      ],
      "name": "removePool",
      "outputs": [],
      "stateMutability": "nonpayable",
      "type": "function"
    },
    {
      "inputs": [],
      "name": "removePools",
      "outputs": [],
      "stateMutability": "nonpayable",
      "type": "function"
    },
    {
      "inputs": [
        {
          "internalType": "address",
          "name": "",
          "type": "address"
        },
        {
          "internalType": "address",
          "name": "",
          "type": "address"
        },
        {
          "internalType": "uint256",
          "name": "",
          "type": "uint256"
        }
      ],
      "name": "rewardWasTaken",
      "outputs": [
        {
          "internalType": "bool",
          "name": "",
          "type": "bool"
        }
      ],
      "stateMutability": "view",
      "type": "function"
    },
    {
      "inputs": [
        {
          "internalType": "uint256",
          "name": "_minStake",
          "type": "uint256"
        }
      ],
      "name": "setCandidateMinStake",
      "outputs": [],
      "stateMutability": "nonpayable",
      "type": "function"
    },
    {
      "inputs": [
        {
          "internalType": "uint256",
          "name": "_minStake",
          "type": "uint256"
        }
      ],
      "name": "setDelegatorMinStake",
      "outputs": [],
      "stateMutability": "nonpayable",
      "type": "function"
    },
    {
      "inputs": [
        {
          "internalType": "bytes",
          "name": "_publicKey",
          "type": "bytes"
        },
        {
          "internalType": "bytes16",
          "name": "_ip",
          "type": "bytes16"
        },
        {
          "internalType": "bytes2",
          "name": "_port",
          "type": "bytes2"
        }
      ],
      "name": "setPoolInfo",
      "outputs": [],
      "stateMutability": "nonpayable",
      "type": "function"
    },
    {
      "inputs": [
        {
          "internalType": "uint256",
          "name": "_timestamp",
          "type": "uint256"
        }
      ],
      "name": "setStakingEpochStartTime",
      "outputs": [],
      "stateMutability": "nonpayable",
      "type": "function"
    },
    {
      "inputs": [
        {
          "internalType": "address",
          "name": "_validatorAddress",
          "type": "address"
        },
        {
          "internalType": "bytes16",
          "name": "_ip",
          "type": "bytes16"
        },
        {
          "internalType": "bytes2",
          "name": "_port",
          "type": "bytes2"
        }
      ],
      "name": "setValidatorInternetAddress",
      "outputs": [],
      "stateMutability": "nonpayable",
      "type": "function"
    },
    {
      "inputs": [
        {
          "internalType": "address",
          "name": "_toPoolStakingAddress",
          "type": "address"
        }
      ],
      "name": "stake",
      "outputs": [],
      "stateMutability": "payable",
      "type": "function"
    },
    {
      "inputs": [
        {
          "internalType": "address",
          "name": "",
          "type": "address"
        },
        {
          "internalType": "address",
          "name": "",
          "type": "address"
        }
      ],
      "name": "stakeAmount",
      "outputs": [
        {
          "internalType": "uint256",
          "name": "",
          "type": "uint256"
        }
      ],
      "stateMutability": "view",
      "type": "function"
    },
    {
      "inputs": [
        {
          "internalType": "address",
          "name": "_poolStakingAddress",
          "type": "address"
        },
        {
          "internalType": "address",
          "name": "_staker",
          "type": "address"
        }
      ],
      "name": "stakeAmountByCurrentEpoch",
      "outputs": [
        {
          "internalType": "uint256",
          "name": "",
          "type": "uint256"
        }
      ],
      "stateMutability": "view",
      "type": "function"
    },
    {
      "inputs": [
        {
          "internalType": "address",
          "name": "",
          "type": "address"
        }
      ],
      "name": "stakeAmountTotal",
      "outputs": [
        {
          "internalType": "uint256",
          "name": "",
          "type": "uint256"
        }
      ],
      "stateMutability": "view",
      "type": "function"
    },
    {
      "inputs": [
        {
          "internalType": "address",
          "name": "",
          "type": "address"
        },
        {
          "internalType": "address",
          "name": "",
          "type": "address"
        }
      ],
      "name": "stakeFirstEpoch",
      "outputs": [
        {
          "internalType": "uint256",
          "name": "",
          "type": "uint256"
        }
      ],
      "stateMutability": "view",
      "type": "function"
    },
    {
      "inputs": [
        {
          "internalType": "address",
          "name": "",
          "type": "address"
        },
        {
          "internalType": "address",
          "name": "",
          "type": "address"
        }
      ],
      "name": "stakeLastEpoch",
      "outputs": [
        {
          "internalType": "uint256",
          "name": "",
          "type": "uint256"
        }
      ],
      "stateMutability": "view",
      "type": "function"
    },
    {
      "inputs": [],
      "name": "stakingEpoch",
      "outputs": [
        {
          "internalType": "uint256",
          "name": "",
          "type": "uint256"
        }
      ],
      "stateMutability": "view",
      "type": "function"
    },
    {
      "inputs": [],
      "name": "stakingEpochStartBlock",
      "outputs": [
        {
          "internalType": "uint256",
          "name": "",
          "type": "uint256"
        }
      ],
      "stateMutability": "view",
      "type": "function"
    },
    {
      "inputs": [],
      "name": "stakingEpochStartTime",
      "outputs": [
        {
          "internalType": "uint256",
          "name": "",
          "type": "uint256"
        }
      ],
      "stateMutability": "view",
      "type": "function"
    },
    {
      "inputs": [],
      "name": "stakingFixedEpochDuration",
      "outputs": [
        {
          "internalType": "uint256",
          "name": "",
          "type": "uint256"
        }
      ],
      "stateMutability": "view",
      "type": "function"
    },
    {
      "inputs": [],
      "name": "stakingFixedEpochEndTime",
      "outputs": [
        {
          "internalType": "uint256",
          "name": "",
          "type": "uint256"
        }
      ],
      "stateMutability": "view",
      "type": "function"
    },
    {
      "inputs": [],
      "name": "stakingTransitionTimeframeLength",
      "outputs": [
        {
          "internalType": "uint256",
          "name": "",
          "type": "uint256"
        }
      ],
      "stateMutability": "view",
      "type": "function"
    },
    {
      "inputs": [],
      "name": "stakingWithdrawDisallowPeriod",
      "outputs": [
        {
          "internalType": "uint256",
          "name": "",
          "type": "uint256"
        }
      ],
      "stateMutability": "view",
      "type": "function"
    },
    {
      "inputs": [],
      "name": "startTimeOfNextPhaseTransition",
      "outputs": [
        {
          "internalType": "uint256",
          "name": "",
          "type": "uint256"
        }
      ],
      "stateMutability": "view",
      "type": "function"
    },
    {
      "inputs": [],
      "name": "validatorSetContract",
      "outputs": [
        {
          "internalType": "contract IValidatorSetHbbft",
          "name": "",
          "type": "address"
        }
      ],
      "stateMutability": "view",
      "type": "function"
    },
    {
      "inputs": [
        {
          "internalType": "address",
          "name": "_fromPoolStakingAddress",
          "type": "address"
        },
        {
          "internalType": "uint256",
          "name": "_amount",
          "type": "uint256"
        }
      ],
      "name": "withdraw",
      "outputs": [],
      "stateMutability": "nonpayable",
      "type": "function"
    },
    {
      "stateMutability": "payable",
      "type": "receive"
    }
  ],
  "bytecode": "0x608060405234801561001057600080fd5b50616cee80620000216000396000f3fe608060405260043610620004505760003560e01c8063862be2871162000238578063bc9eb2c31162000140578063e9ab030011620000ca578063f07860961162000095578063f49425011162000078578063f49425011462000ea5578063fa4aaf471462000ebb578063fb367a9b1462000eec57600080fd5b8063f07860961462000e68578063f3fef3a31462000e8057600080fd5b8063e9ab03001462000dcb578063edd7db751462000e07578063edf94b821462000e1f578063ee435f551462000e5057600080fd5b8063da7a9b6a116200010b578063da7a9b6a1462000d2f578063dadee88a1462000d47578063df6f55f51462000d78578063dfc8bf4e1462000d9057600080fd5b8063bc9eb2c31462000c9e578063c6912cc01462000cda578063cfef14411462000cf2578063d290c21d1462000d1757600080fd5b8063a420596711620001c2578063adddc0cf116200018d578063adddc0cf1462000c18578063ae1aaf801462000c30578063b42754a51462000c48578063b61ed63a1462000c7957600080fd5b8063a42059671462000b63578063a5d54f651462000b9f578063a697ecff1462000bb7578063a711e6a11462000bf357600080fd5b80639a7b5f1111620002035780639a7b5f111462000acb5780639b03d7441462000b015780639e72c6351462000b195780639ea8082b1462000b3e57600080fd5b8063862be2871462000a1d578063950a65131462000a425780639518c4811462000a67578063957950a71462000aa357600080fd5b80634e9b426d1162000359578063673a2a1f11620002e3578063750dd2a111620002ae5780637b0a0f9b11620002915780637b0a0f9b14620009ae5780637b15b94c14620009d35780638247a23914620009f857600080fd5b8063750dd2a11462000942578063794c0c68146200099657600080fd5b8063673a2a1f14620008b95780636bda157714620008e05780637069e746146200090557806373c21803146200091d57600080fd5b806356e4d6c2116200032457806356e4d6c214620008415780635d80ca3214620008585780635fef7643146200087057806365113918146200088857600080fd5b80634e9b426d14620007895780634f9a8d8f14620007bd5780635267e1d614620007d55780635659b742146200080557600080fd5b80632bafde8d11620003db5780633b7d094611620003a65780633b7d094614620006f55780633ea15d62146200071a57806348aaa4a2146200073f5780634cf83f9c146200076457600080fd5b80632bafde8d1462000640578063317277301462000665578063379b046a14620006bb578063392e53cd14620006d357600080fd5b80631fb31e43116200041c5780631fb31e43146200056b57806322e3d98614620005ec578063251441a9146200060457806326476204146200062957600080fd5b80622ceebc14620004a8578063028b8bdb14620004fd5780630868c0d614620005155780631555371c146200055157600080fd5b36620004a35760405162461bcd60e51b815260206004820152600b60248201527f4e6f742070617961626c6500000000000000000000000000000000000000000060448201526064015b60405180910390fd5b600080fd5b348015620004b557600080fd5b50620004ea620004c7366004620061bc565b600b60209081526000938452604080852082529284528284209052825290205481565b6040519081526020015b60405180910390f35b3480156200050a57600080fd5b50620004ea60195481565b3480156200052257600080fd5b50620004ea6200053436600462006202565b600f60209081526000928352604080842090915290825290205481565b3480156200055e57600080fd5b506200056962000f11565b005b3480156200057857600080fd5b50620005b96200058a36600462006240565b6001600160a01b0316600090815260226020526040902060010154608081901b91600160801b90910460f01b90565b604080516fffffffffffffffffffffffffffffffff1990931683526001600160f01b0319909116602083015201620004f4565b348015620005f957600080fd5b50620004ea6200100f565b3480156200061157600080fd5b506200056962000623366004620061bc565b6200105e565b620005696200063a36600462006240565b620011ed565b3480156200064d57600080fd5b50620005696200065f36600462006260565b62001243565b3480156200067257600080fd5b50620006aa62000684366004620061bc565b601560209081526000938452604080852082529284528284209052825290205460ff1681565b6040519015158152602001620004f4565b348015620006c857600080fd5b50620004ea601f5481565b348015620006e057600080fd5b506021546001600160a01b03161515620006aa565b3480156200070257600080fd5b50620005696200071436600462006240565b62001335565b3480156200072757600080fd5b5062000569620007393660046200635e565b62001393565b3480156200074c57600080fd5b50620005696200075e36600462006260565b62001a73565b3480156200077157600080fd5b506200056962000783366004620063fa565b62001b65565b3480156200079657600080fd5b50620007ae620007a836600462006240565b62001ee8565b604051620004f49190620064e9565b348015620007ca57600080fd5b50620004ea601b5481565b348015620007e257600080fd5b50620004ea620007f436600462006240565b602080526000908152604090205481565b3480156200081257600080fd5b50620004ea6200082436600462006202565b601760209081526000928352604080842090915290825290205481565b62000569620008523660046200656a565b62001f9c565b3480156200086557600080fd5b50620004ea60235481565b3480156200087d57600080fd5b50620004ea60095481565b3480156200089557600080fd5b50620004ea620008a736600462006240565b60116020526000908152604090205481565b348015620008c657600080fd5b50620008d1620020bd565b604051620004f49190620065d9565b348015620008ed57600080fd5b50620004ea620008ff36600462006202565b62002121565b3480156200091257600080fd5b50620004ea601e5481565b3480156200092a57600080fd5b50620008d16200093c36600462006240565b620022b2565b3480156200094f57600080fd5b50620004ea6200096136600462006202565b6001600160a01b039182166000908152600860209081526040808320939094168252918252828120601a548252909152205490565b348015620009a357600080fd5b50620004ea601a5481565b348015620009bb57600080fd5b5062000569620009cd36600462006641565b62002329565b348015620009e057600080fd5b5062000569620009f236600462006240565b620023cc565b34801562000a0557600080fd5b506200056962000a1736600462006260565b6200245e565b34801562000a2a57600080fd5b506200056962000a3c3660046200668d565b620024b7565b34801562000a4f57600080fd5b50620004ea62000a6136600462006202565b6200251c565b34801562000a7457600080fd5b50620004ea62000a8636600462006202565b601060209081526000928352604080842090915290825290205481565b34801562000ab057600080fd5b5062000abb6200269f565b604051620004f4929190620066ef565b34801562000ad857600080fd5b5062000af062000aea36600462006240565b62002704565b604051620004f49392919062006739565b34801562000b0e57600080fd5b50620004ea601d5481565b34801562000b2657600080fd5b506200056962000b3836600462006260565b620027c0565b34801562000b4b57600080fd5b50620008d162000b5d36600462006240565b62002835565b34801562000b7057600080fd5b50620004ea62000b8236600462006202565b600e60209081526000928352604080842090915290825290205481565b34801562000bac57600080fd5b50620008d1620028ab565b34801562000bc457600080fd5b50620004ea62000bd636600462006202565b601660209081526000928352604080842090915290825290205481565b34801562000c0057600080fd5b50620006aa62000c1236600462006240565b6200290d565b34801562000c2557600080fd5b506200056962002970565b34801562000c3d57600080fd5b50620004ea601c5481565b34801562000c5557600080fd5b50620004ea62000c6736600462006240565b60126020526000908152604090205481565b34801562000c8657600080fd5b506200056962000c9836600462006782565b620029dd565b34801562000cab57600080fd5b50620004ea62000cbd36600462006202565b601860209081526000928352604080842090915290825290205481565b34801562000ce757600080fd5b50620004ea62002ff5565b34801562000cff57600080fd5b506200056962000d1136600462006240565b6200301d565b34801562000d2457600080fd5b50620008d1620033b7565b34801562000d3c57600080fd5b50620004ea600a5481565b34801562000d5457600080fd5b50620004ea62000d6636600462006240565b600d6020526000908152604090205481565b34801562000d8557600080fd5b50620008d162003419565b34801562000d9d57600080fd5b5060215462000db2906001600160a01b031681565b6040516001600160a01b039091168152602001620004f4565b34801562000dd857600080fd5b50620004ea62000dea36600462006202565b600c60209081526000928352604080842090915290825290205481565b34801562000e1457600080fd5b50620005696200347b565b34801562000e2c57600080fd5b50620004ea62000e3e36600462006240565b60146020526000908152604090205481565b34801562000e5d57600080fd5b506200056962003686565b34801562000e7557600080fd5b50620004ea610bb881565b34801562000e8d57600080fd5b506200056962000e9f36600462006782565b620036f4565b34801562000eb257600080fd5b506001620006aa565b34801562000ec857600080fd5b50620004ea62000eda36600462006240565b60136020526000908152604090205481565b34801562000ef957600080fd5b50620004ea62000f0b366004620067b1565b620037ee565b6021546001600160a01b0316331462000f615760405162461bcd60e51b815260206004820152601160248201527013db9b1e4815985b1a59185d1bdc94d95d607a1b60448201526064016200049a565b6000600380548060200260200160405190810160405280929190818152602001828054801562000fbb57602002820191906000526020600020905b81546001600160a01b0316815260019091019060200180831162000f9c575b5050505050905060005b81518110156200100b5762000ff682828151811062000fe85762000fe86200681d565b602002602001015162003d6a565b80620010028162006849565b91505062000fc5565b5050565b601d54601b546000919015620010275760016200102a565b60005b60ff16601f54601b548362001040919062006865565b6200104c919062006865565b6200105891906200687b565b91505090565b3a600003620010a05760405162461bcd60e51b815260206004820152600d60248201526c04761735072696365206973203609c1b60448201526064016200049a565b6021546001600160a01b0316620010f55760405162461bcd60e51b815260206004820152601860248201527710dbdb9d1c9858dd081b9bdd081a5b9a5d1a585b1a5e995960421b60448201526064016200049a565b816001600160a01b0316836001600160a01b0316036200117e5760405162461bcd60e51b815260206004820152602760248201527f4d6f76655374616b653a2073726320616e642064737420706f6f6c206973207460448201527f68652073616d650000000000000000000000000000000000000000000000000060648201526084016200049a565b336200118c84828462003ee0565b6200119983828462004230565b601a54604080516001600160a01b0387811682526020820186905280851692908716917f4480d8e4b1e9095b94bf513961d26fe1d32386ebdd103d18fe8738cf4b2223ff910160405180910390a450505050565b3a6000036200122f5760405162461bcd60e51b815260206004820152600d60248201526c04761735072696365206973203609c1b60448201526064016200049a565b33346200123e83838362004230565b505050565b7fb53127684a568b3173ae13b9f8a6016e243e63b6e8ee1178d6a717850b5d6103546001600160a01b0316336001600160a01b031614620012db5760405162461bcd60e51b815260206004820152602b60248201527f6f6e6c792061646d696e20697320616c6c6f77656420746f2063616c6c20746860448201526a34b990333ab731ba34b7b760a91b60648201526084016200049a565b6021546001600160a01b0316620013305760405162461bcd60e51b815260206004820152601860248201527710dbdb9d1c9858dd081b9bdd081a5b9a5d1a585b1a5e995960421b60448201526064016200049a565b600a55565b6021546001600160a01b03163314620013855760405162461bcd60e51b815260206004820152601160248201527013db9b1e4815985b1a59185d1bdc94d95d607a1b60448201526064016200049a565b620013908162003d6a565b50565b3a600003620013d55760405162461bcd60e51b815260206004820152600d60248201526c04761735072696365206973203609c1b60448201526064016200049a565b6021546001600160a01b03166200142a5760405162461bcd60e51b815260206004820152601860248201527710dbdb9d1c9858dd081b9bdd081a5b9a5d1a585b1a5e995960421b60448201526064016200049a565b336000806001600160a01b0384168314620014e2576001600160a01b0380851660009081526017602090815260408083209387168352929052908120549250829003620014ba5760405162461bcd60e51b815260206004820152601d60248201527f436c61696d3a2066697273742065706f63682063616e2774206265203000000060448201526064016200049a565b506001600160a01b038084166000908152601860209081526040808320938616835292905220545b60215460408051632b5aa5d760e11b815290516000926001600160a01b0316916356b54bae9160048083019260209291908290030181865afa1580156200152d573d6000803e3d6000fd5b505050506040513d601f19601f8201168201806040525081019062001553919062006891565b6021546040516253517560e01b81526001600160a01b038881166004830152929350600092909116906253517590602401602060405180830381865afa158015620015a2573d6000803e3d6000fd5b505050506040513d601f19601f82011682018060405250810190620015c8919062006891565b905060008088516000036200164b5760405163dd03f5b960e01b81526001600160a01b03848116600483015285169063dd03f5b990602401600060405180830381865afa1580156200161e573d6000803e3d6000fd5b505050506040513d6000823e601f3d908101601f19168201604052620016489190810190620068b1565b98505b60005b895181101562001a035760008a82815181106200166f576200166f6200681d565b602002602001015190508160001480620016b057508a620016926001846200687b565b81518110620016a557620016a56200681d565b602002602001015181115b620017245760405162461bcd60e51b815260206004820152602560248201527f436c61696d3a206e656564207374726963746c7920696e6372656173696e672060448201527f6f7264657200000000000000000000000000000000000000000000000000000060648201526084016200049a565b601a548110620017775760405162461bcd60e51b815260206004820181905260248201527f436c61696d3a206f6e6c79206265666f72652063757272656e742065706f636860448201526064016200049a565b6001600160a01b03808b166000908152601560209081526040808320938d1683529281528282208483529052205460ff1615620017b55750620019ee565b6000896001600160a01b03168b6001600160a01b031614620018a55788821015620017e2575050620019ee565b818811158015620017f257508715155b156200180057505062001a03565b6200180f828a868e8e6200481f565b93506200181e82600162006865565b604051631c3572db60e31b815260048101869052602481018490526001600160a01b038881166044830152919a509088169063e1ab96d890606401602060405180830381865afa15801562001877573d6000803e3d6000fd5b505050506040513d601f19601f820116820180604052508101906200189d91906200694b565b90506200191c565b60405163ba2d759760e01b8152600481018390526001600160a01b03878116602483015288169063ba2d759790604401602060405180830381865afa158015620018f3573d6000803e3d6000fd5b505050506040513d601f19601f820116820180604052508101906200191991906200694b565b90505b62001928818662006865565b94506001601560008d6001600160a01b03166001600160a01b0316815260200190815260200160002060008c6001600160a01b03166001600160a01b03168152602001908152602001600020600084815260200190815260200160002060006101000a81548160ff021916908315150217905550818a6001600160a01b03168c6001600160a01b03167fd3208fd5300db64b97bc442f47ade72b7ebcd9272aaecdcc04c777bb762861b984604051620019e391815260200190565b60405180910390a450505b80620019fa8162006849565b9150506200164e565b5060405163234a83e360e11b8152600481018390526001600160a01b03888116602483015285169063469507c690604401600060405180830381600087803b15801562001a4f57600080fd5b505af115801562001a64573d6000803e3d6000fd5b50505050505050505050505050565b7fb53127684a568b3173ae13b9f8a6016e243e63b6e8ee1178d6a717850b5d6103546001600160a01b0316336001600160a01b03161462001b0b5760405162461bcd60e51b815260206004820152602b60248201527f6f6e6c792061646d696e20697320616c6c6f77656420746f2063616c6c20746860448201526a34b990333ab731ba34b7b760a91b60648201526084016200049a565b6021546001600160a01b031662001b605760405162461bcd60e51b815260206004820152601860248201527710dbdb9d1c9858dd081b9bdd081a5b9a5d1a585b1a5e995960421b60448201526064016200049a565b600955565b8460a0013560000362001bbb5760405162461bcd60e51b815260206004820152601760248201527f466978656445706f63684475726174696f6e206973203000000000000000000060448201526064016200049a565b8460e001358560a001351162001c3a5760405162461bcd60e51b815260206004820152603d60248201527f466978656445706f63684475726174696f6e206d757374206265206c6f6e676560448201527f72207468616e207769746864726177446973616c6c6f77506572696f6400000060648201526084016200049a565b8460e0013560000362001c905760405162461bcd60e51b815260206004820152601b60248201527f5769746864726177446973616c6c6f77506572696f642069732030000000000060448201526064016200049a565b8460c0013560000362001d0c5760405162461bcd60e51b815260206004820152602e60248201527f546865207472616e736974696f6e2074696d656672616d65206d75737420626560448201527f206c6f6e676572207468616e203000000000000000000000000000000000000060648201526084016200049a565b8460a001358560c001351062001d8d576040805162461bcd60e51b81526020600482015260248101919091527f546865207472616e736974696f6e2074696d656672616d65206d75737420626560448201527f2073686f72746572207468656e207468652065706f6368206475726174696f6e60648201526084016200049a565b62001e5762001da0602087018762006240565b62001daf602088018862006965565b8080602002602001604051908101604052809392919081815260200183836020028082843760009201919091525050604080516020808b02828101820184528b8352928d0135945060608d0135935060808d0135928c918c91829185019084908082843760009201919091525050604080516020808d0282810182019093528c82529093508c92508b918291850190849080828437600092019190915250620048a292505050565b60a0850135601b5560e085013560195560215460408051636c9230db60e01b815290516001600160a01b0390921691636c9230db916004808201926020929091908290030181865afa15801562001eb2573d6000803e3d6000fd5b505050506040513d601f19601f8201168201806040525081019062001ed891906200694b565b601d555050505060c00135601c55565b6001600160a01b038116600090815260226020526040902080546060919062001f1190620069b2565b80601f016020809104026020016040519081016040528092919081815260200182805462001f3f90620069b2565b801562001f905780601f1062001f645761010080835404028352916020019162001f90565b820191906000526020600020905b81548152906001019060200180831162001f7257829003601f168201915b50505050509050919050565b3a60000362001fde5760405162461bcd60e51b815260206004820152600d60248201526c04761735072696365206973203609c1b60448201526064016200049a565b602154604051630526083960e11b81526001600160a01b0386811660048301523360248301819052923492911690630a4c107290604401600060405180830381600087803b1580156200203057600080fd5b505af115801562002045573d6000803e3d6000fd5b505050506200205682838362004230565b6001600160a01b03821660009081526022602052604090206200207b85878362006a38565b50506001600160a01b0316600090815260226020526040902060010180546fffffffffffffffffffffffffffffffff191660809290921c919091179055505050565b606060008054806020026020016040519081016040528092919081815260200182805480156200211757602002820191906000526020600020905b81546001600160a01b03168152600190910190602001808311620020f8575b5050505050905090565b6021546040516253517560e01b81526001600160a01b03848116600483015260009283929116906253517590602401602060405180830381865afa1580156200216e573d6000803e3d6000fd5b505050506040513d601f19601f8201168201806040525081019062002194919062006891565b9050620021b781846001600160a01b0316866001600160a01b0316141562004fa0565b620021c7576000915050620022ac565b6001600160a01b03848116600090815260166020908152604080832087851684529091529081902054602154915163a0d16cad60e01b815284841660048201529092919091169063a0d16cad90602401602060405180830381865afa15801562002235573d6000803e3d6000fd5b505050506040513d601f19601f820116820180604052508101906200225b919062006b05565b6200226a579150620022ac9050565b6001600160a01b0385811660009081526008602090815260408083209388168352928152828220601a5483529052205480821115620022a7578091505b509150505b92915050565b6001600160a01b03811660009081526007602090815260409182902080548351818402810184019094528084526060939283018282801562001f9057602002820191906000526020600020905b81546001600160a01b03168152600190910190602001808311620022ff5750505050509050919050565b6021546001600160a01b03163314620023795760405162461bcd60e51b815260206004820152601160248201527013db9b1e4815985b1a59185d1bdc94d95d607a1b60448201526064016200049a565b6001600160a01b039092166000908152602260205260409020600101805460f09390931c600160801b0271ffffffffffffffffffffffffffffffffffff1990931660809290921c91909117919091179055565b6021546001600160a01b031633146200241c5760405162461bcd60e51b815260206004820152601160248201527013db9b1e4815985b1a59185d1bdc94d95d607a1b60448201526064016200049a565b6009546001600160a01b038216600090815260166020908152604080832090915290205410620013905762002453816001620050b8565b620013908162005194565b6021546001600160a01b03163314620024ae5760405162461bcd60e51b815260206004820152601160248201527013db9b1e4815985b1a59185d1bdc94d95d607a1b60448201526064016200049a565b601d5543601e55565b336000908152602260205260409020620024d384868362006a38565b50336000908152602260205260409020600101805460f09290921c600160801b0271ffffffffffffffffffffffffffffffffffff1990921660809390931c929092171790555050565b6021546040516253517560e01b81526001600160a01b03848116600483015260009283929116906253517590602401602060405180830381865afa15801562002569573d6000803e3d6000fd5b505050506040513d601f19601f820116820180604052508101906200258f919062006891565b9050620025b281846001600160a01b0316866001600160a01b0316141562004fa0565b620025c2576000915050620022ac565b60215460405163a0d16cad60e01b81526001600160a01b0383811660048301529091169063a0d16cad90602401602060405180830381865afa1580156200260d573d6000803e3d6000fd5b505050506040513d601f19601f8201168201806040525081019062002633919062006b05565b62002643576000915050620022ac565b6001600160a01b038481166000818152600860209081526040808320948816808452948252808320601a5484528252808320549383526016825280832094835293905291909120546200269791906200687b565b949350505050565b60606000600460055481805480602002602001604051908101604052809291908181526020018280548015620026f557602002820191906000526020600020905b815481526020019060010190808311620026e0575b50505050509150915091509091565b6022602052600090815260409020805481906200272190620069b2565b80601f01602080910402602001604051908101604052809291908181526020018280546200274f90620069b2565b8015620027a05780601f106200277457610100808354040283529160200191620027a0565b820191906000526020600020905b8154815290600101906020018083116200278257829003601f168201915b50505060019093015491925050608081901b90600160801b900460f01b83565b6021546001600160a01b03163314620028105760405162461bcd60e51b815260206004820152601160248201527013db9b1e4815985b1a59185d1bdc94d95d607a1b60448201526064016200049a565b601c5481601f5462002823919062006865565b6200282f919062006865565b601f5550565b6001600160a01b03811660009081526006602090815260409182902080548351818402810184019094528084526060939283018282801562001f90576020028201919060005260206000209081546001600160a01b03168152600190910190602001808311620022ff5750505050509050919050565b6060600280548060200260200160405190810160405280929190818152602001828054801562002117576020028201919060005260206000209081546001600160a01b03168152600190910190602001808311620020f8575050505050905090565b6001600160a01b038116600090815260126020526040812054815481108015620029695750826001600160a01b0316600082815481106200295257620029526200681d565b6000918252602090912001546001600160a01b0316145b9392505050565b6021546001600160a01b03163314620029c05760405162461bcd60e51b815260206004820152601160248201527013db9b1e4815985b1a59185d1bdc94d95d607a1b60448201526064016200049a565b601c54601f6000828254620029d6919062006865565b9091555050565b3a60000362002a1f5760405162461bcd60e51b815260206004820152600d60248201526c04761735072696365206973203609c1b60448201526064016200049a565b6021546001600160a01b031662002a745760405162461bcd60e51b815260206004820152601860248201527710dbdb9d1c9858dd081b9bdd081a5b9a5d1a585b1a5e995960421b60448201526064016200049a565b6001600160a01b03821662002ad75760405162461bcd60e51b815260206004820152602260248201527f706f6f6c5374616b696e6741646472657373206d757374206e6f742062652030604482015261078360f41b60648201526084016200049a565b8060000362002b4f5760405162461bcd60e51b815260206004820152602560248201527f6f72646572656420776974686472617720616d6f756e74206d757374206e6f7460448201527f206265203000000000000000000000000000000000000000000000000000000060648201526084016200049a565b6021546040516253517560e01b81526001600160a01b038481166004830152339262002be0929116906253517590602401602060405180830381865afa15801562002b9e573d6000803e3d6000fd5b505050506040513d601f19601f8201168201806040525081019062002bc4919062006891565b846001600160a01b0316836001600160a01b0316141562004fa0565b62002c2e5760405162461bcd60e51b815260206004820152601a60248201527f4f7264657257697468647261773a206e6f7420616c6c6f77656400000000000060448201526064016200049a565b6001600160a01b038084166000818152600c6020908152604080832094861680845294825280832054848452600d83528184205460168452828520968552958352818420549484529180528220549093929186131562002d75578562002c9588876200251c565b81111562002d0c5760405162461bcd60e51b815260206004820152602f60248201527f4f7264657257697468647261773a206d617857697468647261774f726465724160448201527f6c6c6f776564206578636565646564000000000000000000000000000000000060648201526084016200049a565b62002d18818662006865565b945062002d26818562006865565b935062002d3481846200687b565b925062002d4281836200687b565b601a546001600160a01b03808b166000908152600e60209081526040808320938c1683529290522055915062002dbe9050565b600062002d828762006b29565b905062002d9081866200687b565b945062002d9e81856200687b565b935062002dac818462006865565b925062002dba818362006865565b9150505b6001600160a01b038088166000818152600c60209081526040808320948a16808452948252808320899055838352600d82528083208890556016825280832085845282528083208790558383529080529020839055900362002ecf5781158062002e2a57506009548210155b62002e9e5760405162461bcd60e51b815260206004820152603360248201527f6e65775374616b6520416d6f756e74206d75737420626520677265617465722060448201527f7468616e20746865206d696e207374616b652e0000000000000000000000000060648201526084016200049a565b600086131562002ec2578160000362002ebc5762002ebc8762005275565b62002f90565b62002ebc876001620050b8565b81158062002edf5750600a548210155b62002f535760405162461bcd60e51b815260206004820152603360248201527f6e65775374616b6520416d6f756e74206d75737420626520677265617465722060448201527f7468616e20746865206d696e207374616b652e0000000000000000000000000060648201526084016200049a565b600086131562002f78578160000362002f725762002f72878662005340565b62002f84565b62002f848786620054ea565b62002f908786620055b9565b62002f9b8762005194565b601a54856001600160a01b0316886001600160a01b03167f80d5c777e5f7ac6ee89723223803ca5c0ec0204f89e99c1b0cde973c66a645948960405162002fe491815260200190565b60405180910390a450505050505050565b6000601c54601b54601d546200300c919062006865565b6200301891906200687b565b905090565b3a6000036200305f5760405162461bcd60e51b815260206004820152600d60248201526c04761735072696365206973203609c1b60448201526064016200049a565b6021546001600160a01b0316620030b45760405162461bcd60e51b815260206004820152601860248201527710dbdb9d1c9858dd081b9bdd081a5b9a5d1a585b1a5e995960421b60448201526064016200049a565b6001600160a01b0381166000908152600e6020908152604080832033808552925290912054601a5411620031515760405162461bcd60e51b815260206004820152603f60248201527f63616e6e6f7420636c61696d206f72646572656420776974686472617720696e60448201527f207468652073616d652065706f636820697420776173206f7264657265642e0060648201526084016200049a565b6021546040516253517560e01b81526001600160a01b038481166004830152620031df9216906253517590602401602060405180830381865afa1580156200319d573d6000803e3d6000fd5b505050506040513d601f19601f82011682018060405250810190620031c3919062006891565b836001600160a01b0316836001600160a01b0316141562004fa0565b620032535760405162461bcd60e51b815260206004820152602a60248201527f436c61696d4f72646572656457697468647261773a205769746864726177206e60448201527f6f7420616c6c6f7765640000000000000000000000000000000000000000000060648201526084016200049a565b6001600160a01b038083166000908152600c6020908152604080832093851683529290529081205490819003620032cd5760405162461bcd60e51b815260206004820152601a60248201527f636c61696d20616d6f756e74206d757374206e6f74206265203000000000000060448201526064016200049a565b6001600160a01b038084166000818152600c602090815260408083209487168352938152838220829055918152600d90915220546200330e9082906200687b565b6001600160a01b038085166000908152600d6020908152604080832094909455601681528382209286168252919091529081205490036200335557620033558383620056c5565b62003361828262005806565b601a54826001600160a01b0316846001600160a01b03167ff380b0bc887e00f5b50d3c9d4eaaf5c9a0afd97b956316b995159384c4ede9b384604051620033aa91815260200190565b60405180910390a4505050565b6060600380548060200260200160405190810160405280929190818152602001828054801562002117576020028201919060005260206000209081546001600160a01b03168152600190910190602001808311620020f8575050505050905090565b6060600180548060200260200160405190810160405280929190818152602001828054801562002117576020028201919060005260206000209081546001600160a01b03168152600190910190602001808311620020f8575050505050905090565b3a600003620034bd5760405162461bcd60e51b815260206004820152600d60248201526c04761735072696365206973203609c1b60448201526064016200049a565b6021546001600160a01b0316620035125760405162461bcd60e51b815260206004820152601860248201527710dbdb9d1c9858dd081b9bdd081a5b9a5d1a585b1a5e995960421b60448201526064016200049a565b6021546040516253517560e01b81523360048201819052916000916001600160a01b03909116906253517590602401602060405180830381865afa1580156200355f573d6000803e3d6000fd5b505050506040513d601f19601f8201168201806040525081019062003585919062006891565b90506000601a54118062003607575060215460405163facd743b60e01b81526001600160a01b0383811660048301529091169063facd743b90602401602060405180830381865afa158015620035df573d6000803e3d6000fd5b505050506040513d601f19601f8201168201806040525081019062003605919062006b05565b155b6200367b5760405162461bcd60e51b815260206004820152602a60248201527f43616e27742072656d6f766520706f6f6c20647572696e67203173742073746160448201527f6b696e672065706f63680000000000000000000000000000000000000000000060648201526084016200049a565b6200100b8262003d6a565b6021546001600160a01b03163314620036d65760405162461bcd60e51b815260206004820152601160248201527013db9b1e4815985b1a59185d1bdc94d95d607a1b60448201526064016200049a565b601a8054906000620036e88362006849565b90915550506000601f55565b3a600003620037365760405162461bcd60e51b815260206004820152600d60248201526c04761735072696365206973203609c1b60448201526064016200049a565b6021546001600160a01b03166200378b5760405162461bcd60e51b815260206004820152601860248201527710dbdb9d1c9858dd081b9bdd081a5b9a5d1a585b1a5e995960421b60448201526064016200049a565b336200379983828462003ee0565b620037a5818362005806565b601a54816001600160a01b0316846001600160a01b03167fa7c0f0cac6bd4d18042007706c84a8abe823751cf289b69c01e83eef7b5915c785604051620033aa91815260200190565b6000806000836001600160a01b0316856001600160a01b031614620038d6576001600160a01b0380861660009081526017602090815260408083209388168352929052908120549250829003620038ae5760405162461bcd60e51b815260206004820152602e60248201527f556e61626c6520746f206765742072657761726420616d6f756e74206966206e60448201527f6f2066697273742065706f63682e00000000000000000000000000000000000060648201526084016200049a565b506001600160a01b038085166000908152601860209081526040808320938716835292905220545b60215460408051632b5aa5d760e11b815290516000926001600160a01b0316916356b54bae9160048083019260209291908290030181865afa15801562003921573d6000803e3d6000fd5b505050506040513d601f19601f8201168201806040525081019062003947919062006891565b6021546040516253517560e01b81526001600160a01b038981166004830152929350600092909116906253517590602401602060405180830381865afa15801562003996573d6000803e3d6000fd5b505050506040513d601f19601f82011682018060405250810190620039bc919062006891565b9050600080895160000362003a3f5760405163dd03f5b960e01b81526001600160a01b03848116600483015285169063dd03f5b990602401600060405180830381865afa15801562003a12573d6000803e3d6000fd5b505050506040513d6000823e601f3d908101601f1916820160405262003a3c9190810190620068b1565b99505b60005b8a5181101562003d5c5760008b828151811062003a635762003a636200681d565b60200260200101519050816000148062003aa457508b62003a866001846200687b565b8151811062003a995762003a996200681d565b602002602001015181115b62003b185760405162461bcd60e51b815260206004820152603660248201527f696e7465726e616c204572726f723a205374616b696e672045706f636873207260448201527f6571756972656420746f206265206f7264657265642e0000000000000000000060648201526084016200049a565b601a54811062003b915760405162461bcd60e51b815260206004820152603c60248201527f696e7465726e616c204572726f723a2065706f6368206d757374206e6f74206260448201527f65206c6573736572207468616e2063757272656e742065706f63682e0000000060648201526084016200049a565b6001600160a01b03808c166000908152601560209081526040808320938e1683529281528282208483529052205460ff161562003bcf575062003d47565b60008a6001600160a01b03168c6001600160a01b03161462003cbf578882101562003bfc57505062003d47565b81881115801562003c0c57508715155b1562003c1a57505062003d5c565b62003c29828a878f8f6200481f565b945062003c3882600162006865565b604051631c3572db60e31b815260048101879052602481018490526001600160a01b038881166044830152919a509088169063e1ab96d890606401602060405180830381865afa15801562003c91573d6000803e3d6000fd5b505050506040513d601f19601f8201168201806040525081019062003cb791906200694b565b905062003d36565b60405163ba2d759760e01b8152600481018390526001600160a01b03878116602483015288169063ba2d759790604401602060405180830381865afa15801562003d0d573d6000803e3d6000fd5b505050506040513d601f19601f8201168201806040525081019062003d3391906200694b565b90505b62003d42818562006865565b935050505b8062003d538162006849565b91505062003a42565b509998505050505050505050565b6001600160a01b03811660009081526012602052604081205490548110801562003dc65750816001600160a01b03166000828154811062003daf5762003daf6200681d565b6000918252602090912001546001600160a01b0316145b1562003e9d5760008054819062003de0906001906200687b565b8154811062003df35762003df36200681d565b600091825260208220015481546001600160a01b0390911692508291908490811062003e235762003e236200681d565b600091825260208083209190910180546001600160a01b0319166001600160a01b039485161790558383168252601290526040808220859055918516815290812081905580548062003e795762003e7962006b48565b600082815260209020810160001990810180546001600160a01b0319169055019055505b62003ea8826200586e565b1562003ebf5762003eb982620058ac565b62003eca565b62003eca82620059e6565b62003ed58262005aa9565b6200100b8262005cea565b6001600160a01b03831662003f5e5760405162461bcd60e51b815260206004820152602e60248201527f576974686472617720706f6f6c207374616b696e672061646472657373206d7560448201527f7374206e6f74206265206e756c6c00000000000000000000000000000000000060648201526084016200049a565b8060000362003fb05760405162461bcd60e51b815260206004820181905260248201527f616d6f756e7420746f207769746864726177206d757374206e6f74206265203060448201526064016200049a565b62003fbc838362002121565b811115620040335760405162461bcd60e51b815260206004820152602560248201527f57697468647261773a206d61785769746864726177416c6c6f7765642065786360448201527f656564656400000000000000000000000000000000000000000000000000000060648201526084016200049a565b6001600160a01b038084166000908152601660209081526040808320938616835292905290812054620040689083906200687b565b90506000836001600160a01b0316856001600160a01b0316146200408f57600a5462004093565b6009545b9050811580620040a35750808210155b620041175760405162461bcd60e51b815260206004820152603960248201527f6e65775374616b6520616d6f756e74206d75737420626520677265617465722060448201527f657175616c207468616e20746865206d696e207374616b652e0000000000000060648201526084016200049a565b6001600160a01b03858116600081815260166020908152604080832094891680845294825280832087905592825260088152828220938252928352818120601a54825290925290205483811015620041715760006200417d565b6200417d84826200687b565b6001600160a01b038088166000818152600860209081526040808320948b168352938152838220601a548352815283822094909455908152918052902054620041c89085906200687b565b6001600160a01b0387166000908152602080526040812091909155839003620041f757620041f78686620056c5565b856001600160a01b0316856001600160a01b0316146200421d576200421d8686620055b9565b620042288662005194565b505050505050565b6021546040516253517560e01b81526001600160a01b03858116600483015260009216906253517590602401602060405180830381865afa1580156200427a573d6000803e3d6000fd5b505050506040513d601f19601f82011682018060405250810190620042a0919062006891565b90506001600160a01b03811662004322576040805162461bcd60e51b81526020600482015260248101919091527f506f6f6c20646f6573206e6f742065786973742e206d696e696e67416464726560448201527f737320666f722074686174207374616b696e672061646472657373206973203060648201526084016200049a565b6001600160a01b0384166200437a5760405162461bcd60e51b815260206004820152601a60248201527f5374616b653a207374616b696e6741646472657373206973203000000000000060448201526064016200049a565b81600003620043cc5760405162461bcd60e51b815260206004820152601960248201527f5374616b653a207374616b696e67416d6f756e7420697320300000000000000060448201526064016200049a565b602154604051635491295760e11b81526001600160a01b0383811660048301529091169063a92252ae90602401602060405180830381865afa15801562004417573d6000803e3d6000fd5b505050506040513d601f19601f820116820180604052508101906200443d919062006b05565b156200448c5760405162461bcd60e51b815260206004820152601f60248201527f5374616b653a204d696e696e6720616464726573732069732062616e6e65640060448201526064016200049a565b6001600160a01b038085166000908152601660209081526040808320938716835292905290812054620044c190849062006865565b9050846001600160a01b0316846001600160a01b0316036200455d57600954811015620045575760405162461bcd60e51b815260206004820152603160248201527f5374616b653a2063616e6469646174655374616b65206c657373207468616e2060448201527f63616e6469646174654d696e5374616b6500000000000000000000000000000060648201526084016200049a565b62004654565b600a54811015620045d75760405162461bcd60e51b815260206004820152603460248201527f5374616b653a2064656c656761746f725374616b65206973206c65737320746860448201527f616e2064656c656761746f724d696e5374616b6500000000000000000000000060648201526084016200049a565b6001600160a01b03851660009081526016602090815260408083209091528120549003620046545760405162461bcd60e51b815260206004820152602360248201527f5374616b653a2063616e27742064656c656761746520696e20656d70747920706044820152621bdbdb60ea1b60648201526084016200049a565b6023546001600160a01b03861660009081526020805260409020546200467c90859062006865565b1115620046cc5760405162461bcd60e51b815260206004820152601d60248201527f7374616b65206c696d697420686173206265656e20657863656564656400000060448201526064016200049a565b6001600160a01b03858116600081815260166020908152604080832094891680845294825280832086905592825260088152828220938252928352818120601a5482529092529020546200472290849062006865565b6001600160a01b038087166000818152600860209081526040808320948a168352938152838220601a5483528152838220949094559081529180529020546200476d90849062006865565b6001600160a01b038087166000818152602080526040902092909255851603620047a4576200479e856001620050b8565b620047bc565b620047b08585620054ea565b620047bc8585620055b9565b620047c78562005194565b601a54846001600160a01b0316866001600160a01b03167f2273de02cb1f69ba6259d22c4bc22c60e4c94c193265ef6afee324a04a9b6d22866040516200481091815260200190565b60405180910390a45050505050565b60005b506001600160a01b038083166000908152600b602090815260408083209385168352928152828220888352905220548015620048745760001981146200486957806200486c565b60005b905062004899565b8486036200488457508262004899565b85620048908162006b5e565b96505062004822565b95945050505050565b7fb53127684a568b3173ae13b9f8a6016e243e63b6e8ee1178d6a717850b5d6103546001600160a01b0316336001600160a01b031614806200491657507fb53127684a568b3173ae13b9f8a6016e243e63b6e8ee1178d6a717850b5d6103546001600160a01b0316326001600160a01b0316145b806200494a57507fb53127684a568b3173ae13b9f8a6016e243e63b6e8ee1178d6a717850b5d6103546001600160a01b0316155b8062004954575043155b620049c85760405162461bcd60e51b815260206004820152603060248201527f496e697469616c697a6174696f6e206f6e6c79206f6e2067656e65736973206260448201527f6c6f636b206f722062792061646d696e0000000000000000000000000000000060648201526084016200049a565b6021546001600160a01b03161562004a235760405162461bcd60e51b815260206004820152601360248201527f416c726561647920696e697469616c697a65640000000000000000000000000060448201526064016200049a565b6001600160a01b03871662004a7b5760405162461bcd60e51b815260206004820152601760248201527f56616c696461746f725365742063616e2774206265203000000000000000000060448201526064016200049a565b600086511162004af45760405162461bcd60e51b815260206004820152602560248201527f4d7573742070726f7669646520696e697469616c206d696e696e67206164647260448201527f657373657300000000000000000000000000000000000000000000000000000060648201526084016200049a565b8151865162004b0590600262006b78565b1462004b7a5760405162461bcd60e51b815260206004820152602960248201527f4d7573742070726f7669646520636f7272656374206e756d626572206f66207060448201527f75626c69634b657973000000000000000000000000000000000000000000000060648201526084016200049a565b805186511462004bf35760405162461bcd60e51b815260206004820152602a60248201527f4d7573742070726f7669646520636f7272656374206e756d626572206f66204960448201527f502061647265737365730000000000000000000000000000000000000000000060648201526084016200049a565b8460000362004c455760405162461bcd60e51b815260206004820152601660248201527f44656c656761746f724d696e5374616b6520697320300000000000000000000060448201526064016200049a565b8360000362004c975760405162461bcd60e51b815260206004820152601660248201527f43616e6469646174654d696e5374616b6520697320300000000000000000000060448201526064016200049a565b83831162004d0e5760405162461bcd60e51b815260206004820152603160248201527f6d6178696d756d207374616b65206d757374206265206772656174657220746860448201527f656e206d696e696d756d207374616b652e00000000000000000000000000000060648201526084016200049a565b602180546001600160a01b0319166001600160a01b03891617905560005b865181101562004f8d5760006001600160a01b031687828151811062004d565762004d566200681d565b60200260200101516001600160a01b03160362004dc15760405162461bcd60e51b815260206004820152602260248201527f496e697469616c5374616b696e674164647265737365732063616e2774206265604482015261020360f41b60648201526084016200049a565b62004dea87828151811062004dda5762004dda6200681d565b60200260200101516000620050b8565b62004e1187828151811062004e035762004e036200681d565b602002602001015162005275565b8262004e1f82600262006b78565b8151811062004e325762004e326200681d565b60200260200101518382600262004e4a919062006b78565b62004e5790600162006865565b8151811062004e6a5762004e6a6200681d565b602002602001015160405160200162004e8d929190918252602082015260400190565b6040516020818303038152906040526022600089848151811062004eb55762004eb56200681d565b60200260200101516001600160a01b03166001600160a01b03168152602001908152602001600020600001908162004eee919062006b92565b5081818151811062004f045762004f046200681d565b60200260200101516022600089848151811062004f255762004f256200681d565b60200260200101516001600160a01b03166001600160a01b0316815260200190815260200160002060010160006101000a8154816fffffffffffffffffffffffffffffffff021916908360801c0217905550808062004f849062006849565b91505062004d2c565b505050600a929092556009556023555050565b600081156200502f5760215460405163a881c5fd60e01b81526001600160a01b0385811660048301529091169063a881c5fd90602401602060405180830381865afa15801562004ff4573d6000803e3d6000fd5b505050506040513d601f19601f820116820180604052508101906200501a919062006b05565b156200502957506000620022ac565b620050af565b602154604051635491295760e11b81526001600160a01b0385811660048301529091169063a92252ae90602401602060405180830381865afa1580156200507a573d6000803e3d6000fd5b505050506040513d601f19601f82011682018060405250810190620050a0919062006b05565b15620050af57506000620022ac565b50600192915050565b620050c3826200290d565b6200517757600080546001600160a01b0384168083526012602052604083208290556001820183559180527f290decd9548b62a8d60345a988386fc84ba6bc95484008f6362f93160ef3e5630180546001600160a01b0319169091179055610bb86000541115620051775760405162461bcd60e51b815260206004820152601d60248201527f4d41585f43414e4449444154455320706f6f6c7320657863656564656400000060448201526064016200049a565b6200518282620058ac565b80156200100b576200100b8262005dfe565b600080620051a28362005efa565b9150915081620051b157505050565b600060048281548110620051c957620051c96200681d565b90600052602060002001549050600060206000866001600160a01b03166001600160a01b0316815260200190815260200160002054905080600484815481106200521757620052176200681d565b6000918252602090912001558181106200524f576200523782826200687b565b60055462005246919062006865565b6005556200526e565b6200525b81836200687b565b6005546200526a91906200687b565b6005555b5050505050565b6001600160a01b0381166000908152601460205260409020546003548082101580620052d45750826001600160a01b031660038381548110620052bc57620052bc6200681d565b6000918252602090912001546001600160a01b031614155b1562005335576001600160a01b03831660008181526014602052604081208390556003805460018101825591527fc2575a0e9e593c00f959f8c92f12db2869c3395a3b0502d05e2516446f71f85b0180546001600160a01b03191690911790555b6200123e8362005aa9565b6001600160a01b038083166000908152600660209081526040808320600f8352818420948616845293909152902054815481108015620053b15750826001600160a01b03168282815481106200539a576200539a6200681d565b6000918252602090912001546001600160a01b0316145b156200549a5781546000908390620053cc906001906200687b565b81548110620053df57620053df6200681d565b9060005260206000200160009054906101000a90046001600160a01b03169050808383815481106200541557620054156200681d565b600091825260208083209190910180546001600160a01b0319166001600160a01b039485161790558783168252600f815260408083208585168452909152808220859055918616815290812055825483908062005476576200547662006b48565b600082815260209020810160001990810180546001600160a01b0319169055019055505b6001600160a01b038085166000908152600c602090815260408083209387168352929052205415620054d857620054d2848462005f71565b620054e4565b620054e484846200603a565b50505050565b6001600160a01b038083166000908152600660209081526040808320600f8352818420948616845293909152902054815480821015806200555d5750836001600160a01b03168383815481106200554557620055456200681d565b6000918252602090912001546001600160a01b031614155b15620055ad576001600160a01b038086166000908152600f602090815260408083209388168084529382528220849055855460018101875586835291200180546001600160a01b03191690911790555b6200526e85856200603a565b6000601a546001620055cc919062006865565b6001600160a01b03808516600090815260166020908152604080832093871683529290529081205491925081900362005608576000196200560a565b805b6001600160a01b038086166000818152600b602090815260408083209489168084529482528083208884528252808320959095559181526017825283812092815291905290812054900362005682576001600160a01b0380851660009081526017602090815260408083209387168352929052208290555b80156200569157600062005693565b815b6001600160a01b0394851660009081526018602090815260408083209690971682529490945293909220929092555050565b816001600160a01b0316816001600160a01b031603620057de576021546040516253517560e01b81526001600160a01b03848116600483015260009216906253517590602401602060405180830381865afa15801562005729573d6000803e3d6000fd5b505050506040513d601f19601f820116820180604052508101906200574f919062006891565b60215460405163facd743b60e01b81526001600160a01b03808416600483015292935091169063facd743b90602401602060405180830381865afa1580156200579c573d6000803e3d6000fd5b505050506040513d601f19601f82011682018060405250810190620057c2919062006b05565b15620057d3576200123e8362005275565b6200123e8362003d6a565b620057ea828262005340565b620057f5826200586e565b156200100b576200100b82620058ac565b6040516001600160a01b0383169082156108fc029083906000818181858888f193505050506200100b578082604051620058409062006199565b6001600160a01b0390911681526020016040518091039082f0905080158015620054e4573d6000803e3d6000fd5b6001600160a01b0381166000908152602080526040812054158015620022ac5750506001600160a01b03166000908152600d60205260409020541590565b6001600160a01b03811660009081526011602052604090205460015481108015620059095750816001600160a01b031660018281548110620058f257620058f26200681d565b6000918252602090912001546001600160a01b0316145b156200100b576001805460009190620059249082906200687b565b815481106200593757620059376200681d565b600091825260209091200154600180546001600160a01b0390921692508291849081106200596957620059696200681d565b600091825260208083209190910180546001600160a01b0319166001600160a01b0394851617905583831682526011905260408082208590559185168152908120556001805480620059bf57620059bf62006b48565b600082815260209020810160001990810180546001600160a01b0319169055019055505050565b6001600160a01b038116600090815260116020526040902054600154808210158062005a455750826001600160a01b03166001838154811062005a2d5762005a2d6200681d565b6000918252602090912001546001600160a01b031614155b156200123e576001600160a01b038316600081815260116020526040812083905560018054808201825591527fb10e2d527612073b26eecdfd717e6a320cf44b4afac2b0732d9fcbe2b7fa0cf60180546001600160a01b0319169091179055505050565b6004546002541462005ab85750565b6001600160a01b0381166000908152601360205260409020546002548110801562005b155750816001600160a01b03166002828154811062005afe5762005afe6200681d565b6000918252602090912001546001600160a01b0316145b156200100b576004818154811062005b315762005b316200681d565b90600052602060002001546005541062005b85576004818154811062005b5b5762005b5b6200681d565b90600052602060002001546005600082825462005b7991906200687b565b9091555062005b8b9050565b60006005555b60025460009062005b9f906001906200687b565b905060006002828154811062005bb95762005bb96200681d565b600091825260209091200154600280546001600160a01b03909216925082918590811062005beb5762005beb6200681d565b9060005260206000200160006101000a8154816001600160a01b0302191690836001600160a01b031602179055506004828154811062005c2f5762005c2f6200681d565b90600052602060002001546004848154811062005c505762005c506200681d565b60009182526020808320909101929092556001600160a01b03808416825260139092526040808220869055918616815290812055600280548062005c985762005c9862006b48565b600082815260209020810160001990810180546001600160a01b0319169055019055600480548062005cce5762005cce62006b48565b6001900381819060005260206000200160009055905550505050565b6001600160a01b0381166000908152601460205260409020546003548110801562005d475750816001600160a01b03166003828154811062005d305762005d306200681d565b6000918252602090912001546001600160a01b0316145b156200100b57600380546000919062005d63906001906200687b565b8154811062005d765762005d766200681d565b600091825260209091200154600380546001600160a01b03909216925082918490811062005da85762005da86200681d565b600091825260208083209190910180546001600160a01b0319166001600160a01b0394851617905583831682526014905260408082208590559185168152908120556003805480620059bf57620059bf62006b48565b6001600160a01b038116600090815260136020526040902054600254808210158062005e5d5750826001600160a01b03166002838154811062005e455762005e456200681d565b6000918252602090912001546001600160a01b031614155b1562005eef576001600160a01b03831660008181526013602052604081208390556002805460018181019092557f405787fa12a823e0f2b7631cc41b3ba8828b3321ca811111fa75cd3aa3bb5ace0180546001600160a01b03191690931790925560048054928301815581527f8a35acfbc15ff81a39ae7d344fd709f28e8600b4aa8c65c6b64bfe7fe36bd19b909101555b6200123e8362005cea565b6001600160a01b0381166000908152601360205260408120546002548110801562005f575750826001600160a01b03166002828154811062005f405762005f406200681d565b6000918252602090912001546001600160a01b0316145b1562005f665760019150915091565b506000928392509050565b6001600160a01b038083166000908152600760209081526040808320601083528184209486168452939091529020548154808210158062005fe45750836001600160a01b031683838154811062005fcc5762005fcc6200681d565b6000918252602090912001546001600160a01b031614155b156200526e576001600160a01b0380861660009081526010602090815260408083209388168084529382528220849055855460018101875586835291200180546001600160a01b03191690911790555050505050565b6001600160a01b03808316600090815260076020908152604080832060108352818420948616845293909152902054815481108015620060ab5750826001600160a01b03168282815481106200609457620060946200681d565b6000918252602090912001546001600160a01b0316145b15620054e45781546000908390620060c6906001906200687b565b81548110620060d957620060d96200681d565b9060005260206000200160009054906101000a90046001600160a01b03169050808383815481106200610f576200610f6200681d565b600091825260208083209190910180546001600160a01b0319166001600160a01b0394851617905587831682526010815260408083208585168452909152808220859055918616815290812055825483908062006170576200617062006b48565b600082815260209020810160001990810180546001600160a01b03191690550190555050505050565b60598062006c6083390190565b6001600160a01b03811681146200139057600080fd5b600080600060608486031215620061d257600080fd5b8335620061df81620061a6565b92506020840135620061f181620061a6565b929592945050506040919091013590565b600080604083850312156200621657600080fd5b82356200622381620061a6565b915060208301356200623581620061a6565b809150509250929050565b6000602082840312156200625357600080fd5b81356200296981620061a6565b6000602082840312156200627357600080fd5b5035919050565b634e487b7160e01b600052604160045260246000fd5b604051601f8201601f1916810167ffffffffffffffff81118282101715620062bc57620062bc6200627a565b604052919050565b600067ffffffffffffffff821115620062e157620062e16200627a565b5060051b60200190565b600082601f830112620062fd57600080fd5b81356020620063166200631083620062c4565b62006290565b82815260059290921b840181019181810190868411156200633657600080fd5b8286015b848110156200635357803583529183019183016200633a565b509695505050505050565b600080604083850312156200637257600080fd5b823567ffffffffffffffff8111156200638a57600080fd5b6200639885828601620062eb565b92505060208301356200623581620061a6565b60008083601f840112620063be57600080fd5b50813567ffffffffffffffff811115620063d757600080fd5b6020830191508360208260051b8501011115620063f357600080fd5b9250929050565b6000806000806000606086880312156200641357600080fd5b853567ffffffffffffffff808211156200642c57600080fd5b90870190610100828a0312156200644257600080fd5b909550602087013590808211156200645957600080fd5b6200646789838a01620063ab565b909650945060408801359150808211156200648157600080fd5b506200649088828901620063ab565b969995985093965092949392505050565b6000815180845260005b81811015620064c957602081850181015186830182015201620064ab565b506000602082860101526020601f19601f83011685010191505092915050565b602081526000620029696020830184620064a1565b60008083601f8401126200651157600080fd5b50813567ffffffffffffffff8111156200652a57600080fd5b602083019150836020828501011115620063f357600080fd5b80356fffffffffffffffffffffffffffffffff19811681146200656557600080fd5b919050565b600080600080606085870312156200658157600080fd5b84356200658e81620061a6565b9350602085013567ffffffffffffffff811115620065ab57600080fd5b620065b987828801620064fe565b9094509250620065ce90506040860162006543565b905092959194509250565b6020808252825182820181905260009190848201906040850190845b818110156200661c5783516001600160a01b031683529284019291840191600101620065f5565b50909695505050505050565b80356001600160f01b0319811681146200656557600080fd5b6000806000606084860312156200665757600080fd5b83356200666481620061a6565b9250620066746020850162006543565b9150620066846040850162006628565b90509250925092565b60008060008060608587031215620066a457600080fd5b843567ffffffffffffffff811115620066bc57600080fd5b620066ca87828801620064fe565b9095509350620066df90506020860162006543565b9150620065ce6040860162006628565b604080825283519082018190526000906020906060840190828701845b828110156200672a578151845292840192908401906001016200670c565b50505092019290925292915050565b6060815260006200674e6060830186620064a1565b6fffffffffffffffffffffffffffffffff19949094166020830152506001600160f01b031991909116604090910152919050565b600080604083850312156200679657600080fd5b8235620067a381620061a6565b946020939093013593505050565b600080600060608486031215620067c757600080fd5b833567ffffffffffffffff811115620067df57600080fd5b620067ed86828701620062eb565b93505060208401356200680081620061a6565b915060408401356200681281620061a6565b809150509250925092565b634e487b7160e01b600052603260045260246000fd5b634e487b7160e01b600052601160045260246000fd5b6000600182016200685e576200685e62006833565b5060010190565b80820180821115620022ac57620022ac62006833565b81810381811115620022ac57620022ac62006833565b600060208284031215620068a457600080fd5b81516200296981620061a6565b60006020808385031215620068c557600080fd5b825167ffffffffffffffff811115620068dd57600080fd5b8301601f81018513620068ef57600080fd5b8051620069006200631082620062c4565b81815260059190911b820183019083810190878311156200692057600080fd5b928401925b82841015620069405783518252928401929084019062006925565b979650505050505050565b6000602082840312156200695e57600080fd5b5051919050565b6000808335601e198436030181126200697d57600080fd5b83018035915067ffffffffffffffff8211156200699957600080fd5b6020019150600581901b3603821315620063f357600080fd5b600181811c90821680620069c757607f821691505b602082108103620069e857634e487b7160e01b600052602260045260246000fd5b50919050565b601f8211156200123e57600081815260208120601f850160051c8101602086101562006a175750805b601f850160051c820191505b81811015620042285782815560010162006a23565b67ffffffffffffffff83111562006a535762006a536200627a565b62006a6b8362006a648354620069b2565b83620069ee565b6000601f84116001811462006aa2576000851562006a895750838201355b600019600387901b1c1916600186901b1783556200526e565b600083815260209020601f19861690835b8281101562006ad5578685013582556020948501946001909201910162006ab3565b508682101562006af35760001960f88860031b161c19848701351681555b505060018560011b0183555050505050565b60006020828403121562006b1857600080fd5b815180151581146200296957600080fd5b6000600160ff1b820162006b415762006b4162006833565b5060000390565b634e487b7160e01b600052603160045260246000fd5b60008162006b705762006b7062006833565b506000190190565b8082028115828204841417620022ac57620022ac62006833565b815167ffffffffffffffff81111562006baf5762006baf6200627a565b62006bc78162006bc08454620069b2565b84620069ee565b602080601f83116001811462006bff576000841562006be65750858301515b600019600386901b1c1916600185901b17855562004228565b600085815260208120601f198616915b8281101562006c305788860151825594840194600190910190840162006c0f565b508582101562006c4f5787850151600019600388901b60f8161c191681555b5050505050600190811b0190555056fe608060405260405160593803806059833981016040819052601e91602a565b806001600160a01b0316ff5b600060208284031215603b57600080fd5b81516001600160a01b0381168114605157600080fd5b939250505056fea2646970667358221220b78ecfde335926b5028aff6efcdade89e126a21fe6a5df7b5137c1e244a03e3364736f6c63430008110033",
  "linkReferences": {},
  "deployedLinkReferences": {}
}