{
  "contractName": "StakingHbbftCoinsMock",
  "abi": [
    {
      "anonymous": false,
      "inputs": [
        {
          "indexed": true,
          "internalType": "address",
          "name": "fromPoolStakingAddress",
          "type": "address"
        },
        {
          "indexed": true,
          "internalType": "address",
          "name": "staker",
          "type": "address"
        },
        {
          "indexed": true,
          "internalType": "uint256",
          "name": "stakingEpoch",
          "type": "uint256"
        },
        {
          "indexed": false,
          "internalType": "uint256",
          "name": "amount",
          "type": "uint256"
        }
      ],
      "name": "ClaimedOrderedWithdrawal",
      "type": "event"
    },
    {
      "anonymous": false,
      "inputs": [
        {
          "indexed": true,
          "internalType": "address",
          "name": "fromPoolStakingAddress",
          "type": "address"
        },
        {
          "indexed": true,
          "internalType": "address",
          "name": "staker",
          "type": "address"
        },
        {
          "indexed": true,
          "internalType": "uint256",
          "name": "stakingEpoch",
          "type": "uint256"
        },
        {
          "indexed": false,
          "internalType": "uint256",
          "name": "nativeCoinsAmount",
          "type": "uint256"
        }
      ],
      "name": "ClaimedReward",
      "type": "event"
    },
    {
      "anonymous": false,
      "inputs": [
        {
          "indexed": false,
          "internalType": "address",
          "name": "fromPoolStakingAddress",
          "type": "address"
        },
        {
          "indexed": true,
          "internalType": "address",
          "name": "toPoolStakingAddress",
          "type": "address"
        },
        {
          "indexed": true,
          "internalType": "address",
          "name": "staker",
          "type": "address"
        },
        {
          "indexed": true,
          "internalType": "uint256",
          "name": "stakingEpoch",
          "type": "uint256"
        },
        {
          "indexed": false,
          "internalType": "uint256",
          "name": "amount",
          "type": "uint256"
        }
      ],
      "name": "MovedStake",
      "type": "event"
    },
    {
      "anonymous": false,
      "inputs": [
        {
          "indexed": true,
          "internalType": "address",
          "name": "fromPoolStakingAddress",
          "type": "address"
        },
        {
          "indexed": true,
          "internalType": "address",
          "name": "staker",
          "type": "address"
        },
        {
          "indexed": true,
          "internalType": "uint256",
          "name": "stakingEpoch",
          "type": "uint256"
        },
        {
          "indexed": false,
          "internalType": "int256",
          "name": "amount",
          "type": "int256"
        }
      ],
      "name": "OrderedWithdrawal",
      "type": "event"
    },
    {
      "anonymous": false,
      "inputs": [
        {
          "indexed": true,
          "internalType": "address",
          "name": "toPoolStakingAddress",
          "type": "address"
        },
        {
          "indexed": true,
          "internalType": "address",
          "name": "staker",
          "type": "address"
        },
        {
          "indexed": true,
          "internalType": "uint256",
          "name": "stakingEpoch",
          "type": "uint256"
        },
        {
          "indexed": false,
          "internalType": "uint256",
          "name": "amount",
          "type": "uint256"
        }
      ],
      "name": "PlacedStake",
      "type": "event"
    },
    {
      "anonymous": false,
      "inputs": [
        {
          "indexed": true,
          "internalType": "address",
          "name": "fromPoolStakingAddress",
          "type": "address"
        },
        {
          "indexed": true,
          "internalType": "address",
          "name": "staker",
          "type": "address"
        },
        {
          "indexed": true,
          "internalType": "uint256",
          "name": "stakingEpoch",
          "type": "uint256"
        },
        {
          "indexed": false,
          "internalType": "uint256",
          "name": "amount",
          "type": "uint256"
        }
      ],
      "name": "WithdrewStake",
      "type": "event"
    },
    {
      "payable": true,
      "stateMutability": "payable",
      "type": "fallback"
    },
    {
      "constant": true,
      "inputs": [],
      "name": "MAX_CANDIDATES",
      "outputs": [
        {
          "internalType": "uint256",
          "name": "",
          "type": "uint256"
        }
      ],
      "payable": false,
      "stateMutability": "view",
      "type": "function"
    },
    {
      "constant": false,
      "inputs": [
        {
          "internalType": "address",
          "name": "_miningAddress",
          "type": "address"
        },
        {
          "internalType": "bytes",
          "name": "_publicKey",
          "type": "bytes"
        },
        {
          "internalType": "bytes16",
          "name": "_ip",
          "type": "bytes16"
        }
      ],
      "name": "addPool",
      "outputs": [],
      "payable": true,
      "stateMutability": "payable",
      "type": "function"
    },
    {
      "constant": false,
      "inputs": [
        {
          "internalType": "address",
          "name": "_stakingAddress",
          "type": "address"
        }
      ],
      "name": "addPoolActiveMock",
      "outputs": [],
      "payable": false,
      "stateMutability": "nonpayable",
      "type": "function"
    },
    {
      "constant": false,
      "inputs": [
        {
          "internalType": "address",
          "name": "_stakingAddress",
          "type": "address"
        }
      ],
      "name": "addPoolInactiveMock",
      "outputs": [],
      "payable": false,
      "stateMutability": "nonpayable",
      "type": "function"
    },
    {
      "constant": true,
      "inputs": [],
      "name": "areStakeAndWithdrawAllowed",
      "outputs": [
        {
          "internalType": "bool",
          "name": "",
          "type": "bool"
        }
      ],
      "payable": false,
      "stateMutability": "view",
      "type": "function"
    },
    {
      "constant": true,
      "inputs": [],
      "name": "candidateMinStake",
      "outputs": [
        {
          "internalType": "uint256",
          "name": "",
          "type": "uint256"
        }
      ],
      "payable": false,
      "stateMutability": "view",
      "type": "function"
    },
    {
      "constant": false,
      "inputs": [
        {
          "internalType": "address",
          "name": "_poolStakingAddress",
          "type": "address"
        }
      ],
      "name": "claimOrderedWithdraw",
      "outputs": [],
      "payable": false,
      "stateMutability": "nonpayable",
      "type": "function"
    },
    {
      "constant": false,
      "inputs": [
        {
          "internalType": "uint256[]",
          "name": "_stakingEpochs",
          "type": "uint256[]"
        },
        {
          "internalType": "address",
          "name": "_poolStakingAddress",
          "type": "address"
        }
      ],
      "name": "claimReward",
      "outputs": [],
      "payable": false,
      "stateMutability": "nonpayable",
      "type": "function"
    },
    {
      "constant": false,
      "inputs": [
        {
          "internalType": "address",
          "name": "_poolStakingAddress",
          "type": "address"
        },
        {
          "internalType": "address",
          "name": "_delegator",
          "type": "address"
        },
        {
          "internalType": "uint256",
          "name": "_stakingEpoch",
          "type": "uint256"
        }
      ],
      "name": "clearDelegatorStakeSnapshot",
      "outputs": [],
      "payable": false,
      "stateMutability": "nonpayable",
      "type": "function"
    },
    {
      "constant": false,
      "inputs": [
        {
          "internalType": "address",
          "name": "_poolStakingAddress",
          "type": "address"
        },
        {
          "internalType": "address",
          "name": "_staker",
          "type": "address"
        },
        {
          "internalType": "uint256",
          "name": "_epoch",
          "type": "uint256"
        }
      ],
      "name": "clearRewardWasTaken",
      "outputs": [],
      "payable": false,
      "stateMutability": "nonpayable",
      "type": "function"
    },
    {
      "constant": true,
      "inputs": [],
      "name": "currentKeyGenExtraTimeWindow",
      "outputs": [
        {
          "internalType": "uint256",
          "name": "",
          "type": "uint256"
        }
      ],
      "payable": false,
      "stateMutability": "view",
      "type": "function"
    },
    {
      "constant": true,
      "inputs": [],
      "name": "delegatorMinStake",
      "outputs": [
        {
          "internalType": "uint256",
          "name": "",
          "type": "uint256"
        }
      ],
      "payable": false,
      "stateMutability": "view",
      "type": "function"
    },
    {
      "constant": true,
      "inputs": [
        {
          "internalType": "address",
          "name": "",
          "type": "address"
        },
        {
          "internalType": "address",
          "name": "",
          "type": "address"
        },
        {
          "internalType": "uint256",
          "name": "",
          "type": "uint256"
        }
      ],
      "name": "delegatorStakeSnapshot",
      "outputs": [
        {
          "internalType": "uint256",
          "name": "",
          "type": "uint256"
        }
      ],
      "payable": false,
      "stateMutability": "view",
      "type": "function"
    },
    {
      "constant": true,
      "inputs": [
        {
          "internalType": "address",
          "name": "_poolAddress",
          "type": "address"
        }
      ],
      "name": "getPoolInternetAddress",
      "outputs": [
        {
          "internalType": "bytes16",
          "name": "",
          "type": "bytes16"
        }
      ],
      "payable": false,
      "stateMutability": "view",
      "type": "function"
    },
    {
      "constant": true,
      "inputs": [
        {
          "internalType": "address",
          "name": "_poolAddress",
          "type": "address"
        }
      ],
      "name": "getPoolPublicKey",
      "outputs": [
        {
          "internalType": "bytes",
          "name": "",
          "type": "bytes"
        }
      ],
      "payable": false,
      "stateMutability": "view",
      "type": "function"
    },
    {
      "constant": true,
      "inputs": [],
      "name": "getPools",
      "outputs": [
        {
          "internalType": "address[]",
          "name": "",
          "type": "address[]"
        }
      ],
      "payable": false,
      "stateMutability": "view",
      "type": "function"
    },
    {
      "constant": true,
      "inputs": [],
      "name": "getPoolsInactive",
      "outputs": [
        {
          "internalType": "address[]",
          "name": "",
          "type": "address[]"
        }
      ],
      "payable": false,
      "stateMutability": "view",
      "type": "function"
    },
    {
      "constant": true,
      "inputs": [],
      "name": "getPoolsLikelihood",
      "outputs": [
        {
          "internalType": "uint256[]",
          "name": "likelihoods",
          "type": "uint256[]"
        },
        {
          "internalType": "uint256",
          "name": "sum",
          "type": "uint256"
        }
      ],
      "payable": false,
      "stateMutability": "view",
      "type": "function"
    },
    {
      "constant": true,
      "inputs": [],
      "name": "getPoolsToBeElected",
      "outputs": [
        {
          "internalType": "address[]",
          "name": "",
          "type": "address[]"
        }
      ],
      "payable": false,
      "stateMutability": "view",
      "type": "function"
    },
    {
      "constant": true,
      "inputs": [],
      "name": "getPoolsToBeRemoved",
      "outputs": [
        {
          "internalType": "address[]",
          "name": "",
          "type": "address[]"
        }
      ],
      "payable": false,
      "stateMutability": "view",
      "type": "function"
    },
    {
      "constant": true,
      "inputs": [
        {
          "internalType": "uint256[]",
          "name": "_stakingEpochs",
          "type": "uint256[]"
        },
        {
          "internalType": "address",
          "name": "_poolStakingAddress",
          "type": "address"
        },
        {
          "internalType": "address",
          "name": "_staker",
          "type": "address"
        }
      ],
      "name": "getRewardAmount",
      "outputs": [
        {
          "internalType": "uint256",
          "name": "",
          "type": "uint256"
        }
      ],
      "payable": false,
      "stateMutability": "view",
      "type": "function"
    },
    {
      "constant": false,
      "inputs": [],
      "name": "incrementStakingEpoch",
      "outputs": [],
      "payable": false,
      "stateMutability": "nonpayable",
      "type": "function"
    },
    {
      "constant": false,
      "inputs": [
        {
          "internalType": "address",
          "name": "_validatorSetContract",
          "type": "address"
        },
        {
          "internalType": "address[]",
          "name": "_initialStakingAddresses",
          "type": "address[]"
        },
        {
          "internalType": "uint256",
          "name": "_delegatorMinStake",
          "type": "uint256"
        },
        {
          "internalType": "uint256",
          "name": "_candidateMinStake",
          "type": "uint256"
        },
        {
          "internalType": "uint256",
          "name": "_stakingFixedEpochDuration",
          "type": "uint256"
        },
        {
          "internalType": "uint256",
          "name": "_stakingTransitionTimeframeLength",
          "type": "uint256"
        },
        {
          "internalType": "uint256",
          "name": "_stakingWithdrawDisallowPeriod",
          "type": "uint256"
        },
        {
          "internalType": "bytes32[]",
          "name": "_publicKeys",
          "type": "bytes32[]"
        },
        {
          "internalType": "bytes16[]",
          "name": "_internetAddresses",
          "type": "bytes16[]"
        }
      ],
      "name": "initialize",
      "outputs": [],
      "payable": false,
      "stateMutability": "nonpayable",
      "type": "function"
    },
    {
      "constant": true,
      "inputs": [],
      "name": "isInitialized",
      "outputs": [
        {
          "internalType": "bool",
          "name": "",
          "type": "bool"
        }
      ],
      "payable": false,
      "stateMutability": "view",
      "type": "function"
    },
    {
      "constant": true,
      "inputs": [
        {
          "internalType": "address",
          "name": "_stakingAddress",
          "type": "address"
        }
      ],
      "name": "isPoolActive",
      "outputs": [
        {
          "internalType": "bool",
          "name": "",
          "type": "bool"
        }
      ],
      "payable": false,
      "stateMutability": "view",
      "type": "function"
    },
    {
      "constant": true,
      "inputs": [
        {
          "internalType": "address",
          "name": "_poolStakingAddress",
          "type": "address"
        },
        {
          "internalType": "address",
          "name": "_staker",
          "type": "address"
        }
      ],
      "name": "maxWithdrawAllowed",
      "outputs": [
        {
          "internalType": "uint256",
          "name": "",
          "type": "uint256"
        }
      ],
      "payable": false,
      "stateMutability": "view",
      "type": "function"
    },
    {
      "constant": true,
      "inputs": [
        {
          "internalType": "address",
          "name": "_poolStakingAddress",
          "type": "address"
        },
        {
          "internalType": "address",
          "name": "_staker",
          "type": "address"
        }
      ],
      "name": "maxWithdrawOrderAllowed",
      "outputs": [
        {
          "internalType": "uint256",
          "name": "",
          "type": "uint256"
        }
      ],
      "payable": false,
      "stateMutability": "view",
      "type": "function"
    },
    {
      "constant": false,
      "inputs": [
        {
          "internalType": "address",
          "name": "_fromPoolStakingAddress",
          "type": "address"
        },
        {
          "internalType": "address",
          "name": "_toPoolStakingAddress",
          "type": "address"
        },
        {
          "internalType": "uint256",
          "name": "_amount",
          "type": "uint256"
        }
      ],
      "name": "moveStake",
      "outputs": [],
      "payable": false,
      "stateMutability": "nonpayable",
      "type": "function"
    },
    {
      "constant": false,
      "inputs": [
        {
          "internalType": "address",
          "name": "_stakingAddress",
          "type": "address"
        }
      ],
      "name": "notifyAvailability",
      "outputs": [],
      "payable": false,
      "stateMutability": "nonpayable",
      "type": "function"
    },
    {
      "constant": false,
      "inputs": [],
      "name": "notifyKeyGenFailed",
      "outputs": [],
      "payable": false,
      "stateMutability": "nonpayable",
      "type": "function"
    },
    {
      "constant": false,
      "inputs": [
        {
          "internalType": "uint256",
          "name": "detectedOfflineTime",
          "type": "uint256"
        }
      ],
      "name": "notifyNetworkOfftimeDetected",
      "outputs": [],
      "payable": false,
      "stateMutability": "nonpayable",
      "type": "function"
    },
    {
      "constant": false,
      "inputs": [
        {
          "internalType": "address",
          "name": "_poolStakingAddress",
          "type": "address"
        },
        {
          "internalType": "int256",
          "name": "_amount",
          "type": "int256"
        }
      ],
      "name": "orderWithdraw",
      "outputs": [],
      "payable": false,
      "stateMutability": "nonpayable",
      "type": "function"
    },
    {
      "constant": true,
      "inputs": [
        {
          "internalType": "address",
          "name": "",
          "type": "address"
        },
        {
          "internalType": "address",
          "name": "",
          "type": "address"
        }
      ],
      "name": "orderWithdrawEpoch",
      "outputs": [
        {
          "internalType": "uint256",
          "name": "",
          "type": "uint256"
        }
      ],
      "payable": false,
      "stateMutability": "view",
      "type": "function"
    },
    {
      "constant": true,
      "inputs": [
        {
          "internalType": "address",
          "name": "",
          "type": "address"
        },
        {
          "internalType": "address",
          "name": "",
          "type": "address"
        }
      ],
      "name": "orderedWithdrawAmount",
      "outputs": [
        {
          "internalType": "uint256",
          "name": "",
          "type": "uint256"
        }
      ],
      "payable": false,
      "stateMutability": "view",
      "type": "function"
    },
    {
      "constant": true,
      "inputs": [
        {
          "internalType": "address",
          "name": "",
          "type": "address"
        }
      ],
      "name": "orderedWithdrawAmountTotal",
      "outputs": [
        {
          "internalType": "uint256",
          "name": "",
          "type": "uint256"
        }
      ],
      "payable": false,
      "stateMutability": "view",
      "type": "function"
    },
    {
      "constant": true,
      "inputs": [
        {
          "internalType": "address",
          "name": "",
          "type": "address"
        },
        {
          "internalType": "address",
          "name": "",
          "type": "address"
        }
      ],
      "name": "poolDelegatorInactiveIndex",
      "outputs": [
        {
          "internalType": "uint256",
          "name": "",
          "type": "uint256"
        }
      ],
      "payable": false,
      "stateMutability": "view",
      "type": "function"
    },
    {
      "constant": true,
      "inputs": [
        {
          "internalType": "address",
          "name": "",
          "type": "address"
        },
        {
          "internalType": "address",
          "name": "",
          "type": "address"
        }
      ],
      "name": "poolDelegatorIndex",
      "outputs": [
        {
          "internalType": "uint256",
          "name": "",
          "type": "uint256"
        }
      ],
      "payable": false,
      "stateMutability": "view",
      "type": "function"
    },
    {
      "constant": true,
      "inputs": [
        {
          "internalType": "address",
          "name": "_poolStakingAddress",
          "type": "address"
        }
      ],
      "name": "poolDelegators",
      "outputs": [
        {
          "internalType": "address[]",
          "name": "",
          "type": "address[]"
        }
      ],
      "payable": false,
      "stateMutability": "view",
      "type": "function"
    },
    {
      "constant": true,
      "inputs": [
        {
          "internalType": "address",
          "name": "_poolStakingAddress",
          "type": "address"
        }
      ],
      "name": "poolDelegatorsInactive",
      "outputs": [
        {
          "internalType": "address[]",
          "name": "",
          "type": "address[]"
        }
      ],
      "payable": false,
      "stateMutability": "view",
      "type": "function"
    },
    {
      "constant": true,
      "inputs": [
        {
          "internalType": "address",
          "name": "",
          "type": "address"
        }
      ],
      "name": "poolInactiveIndex",
      "outputs": [
        {
          "internalType": "uint256",
          "name": "",
          "type": "uint256"
        }
      ],
      "payable": false,
      "stateMutability": "view",
      "type": "function"
    },
    {
      "constant": true,
      "inputs": [
        {
          "internalType": "address",
          "name": "",
          "type": "address"
        }
      ],
      "name": "poolIndex",
      "outputs": [
        {
          "internalType": "uint256",
          "name": "",
          "type": "uint256"
        }
      ],
      "payable": false,
      "stateMutability": "view",
      "type": "function"
    },
    {
      "constant": true,
      "inputs": [
        {
          "internalType": "address",
          "name": "",
          "type": "address"
        }
      ],
      "name": "poolInfo",
      "outputs": [
        {
          "internalType": "bytes",
          "name": "publicKey",
          "type": "bytes"
        },
        {
          "internalType": "bytes16",
          "name": "internetAddress",
          "type": "bytes16"
        }
      ],
      "payable": false,
      "stateMutability": "view",
      "type": "function"
    },
    {
      "constant": true,
      "inputs": [
        {
          "internalType": "address",
          "name": "",
          "type": "address"
        }
      ],
      "name": "poolToBeElectedIndex",
      "outputs": [
        {
          "internalType": "uint256",
          "name": "",
          "type": "uint256"
        }
      ],
      "payable": false,
      "stateMutability": "view",
      "type": "function"
    },
    {
      "constant": true,
      "inputs": [
        {
          "internalType": "address",
          "name": "",
          "type": "address"
        }
      ],
      "name": "poolToBeRemovedIndex",
      "outputs": [
        {
          "internalType": "uint256",
          "name": "",
          "type": "uint256"
        }
      ],
      "payable": false,
      "stateMutability": "view",
      "type": "function"
    },
    {
      "constant": false,
      "inputs": [],
      "name": "removeMyPool",
      "outputs": [],
      "payable": false,
      "stateMutability": "nonpayable",
      "type": "function"
    },
    {
      "constant": false,
      "inputs": [
        {
          "internalType": "address",
          "name": "_stakingAddress",
          "type": "address"
        }
      ],
      "name": "removePool",
      "outputs": [],
      "payable": false,
      "stateMutability": "nonpayable",
      "type": "function"
    },
    {
      "constant": false,
      "inputs": [],
      "name": "removePools",
      "outputs": [],
      "payable": false,
      "stateMutability": "nonpayable",
      "type": "function"
    },
    {
      "constant": true,
      "inputs": [
        {
          "internalType": "address",
          "name": "",
          "type": "address"
        },
        {
          "internalType": "address",
          "name": "",
          "type": "address"
        },
        {
          "internalType": "uint256",
          "name": "",
          "type": "uint256"
        }
      ],
      "name": "rewardWasTaken",
      "outputs": [
        {
          "internalType": "bool",
          "name": "",
          "type": "bool"
        }
      ],
      "payable": false,
      "stateMutability": "view",
      "type": "function"
    },
    {
      "constant": false,
      "inputs": [
        {
          "internalType": "uint256",
          "name": "_minStake",
          "type": "uint256"
        }
      ],
      "name": "setCandidateMinStake",
      "outputs": [],
      "payable": false,
      "stateMutability": "nonpayable",
      "type": "function"
    },
    {
      "constant": false,
      "inputs": [
        {
          "internalType": "uint256",
          "name": "_minStake",
          "type": "uint256"
        }
      ],
      "name": "setDelegatorMinStake",
      "outputs": [],
      "payable": false,
      "stateMutability": "nonpayable",
      "type": "function"
    },
    {
      "constant": false,
      "inputs": [
        {
          "internalType": "bytes",
          "name": "_publicKey",
          "type": "bytes"
        },
        {
          "internalType": "bytes16",
          "name": "_ip",
          "type": "bytes16"
        }
      ],
      "name": "setPoolInfo",
      "outputs": [],
      "payable": false,
      "stateMutability": "nonpayable",
      "type": "function"
    },
    {
      "constant": false,
      "inputs": [
        {
          "internalType": "address",
          "name": "_poolStakingAddress",
          "type": "address"
        },
        {
          "internalType": "uint256",
          "name": "_amount",
          "type": "uint256"
        }
      ],
      "name": "setStakeAmountTotal",
      "outputs": [],
      "payable": false,
      "stateMutability": "nonpayable",
      "type": "function"
    },
    {
      "constant": false,
      "inputs": [
        {
          "internalType": "address",
          "name": "_poolStakingAddress",
          "type": "address"
        },
        {
          "internalType": "address",
          "name": "_delegator",
          "type": "address"
        },
        {
          "internalType": "uint256",
          "name": "_value",
          "type": "uint256"
        }
      ],
      "name": "setStakeFirstEpoch",
      "outputs": [],
      "payable": false,
      "stateMutability": "nonpayable",
      "type": "function"
    },
    {
      "constant": false,
      "inputs": [
        {
          "internalType": "address",
          "name": "_poolStakingAddress",
          "type": "address"
        },
        {
          "internalType": "address",
          "name": "_delegator",
          "type": "address"
        },
        {
          "internalType": "uint256",
          "name": "_value",
          "type": "uint256"
        }
      ],
      "name": "setStakeLastEpoch",
      "outputs": [],
      "payable": false,
      "stateMutability": "nonpayable",
      "type": "function"
    },
    {
      "constant": false,
      "inputs": [
        {
          "internalType": "uint256",
          "name": "_stakingEpoch",
          "type": "uint256"
        }
      ],
      "name": "setStakingEpoch",
      "outputs": [],
      "payable": false,
      "stateMutability": "nonpayable",
      "type": "function"
    },
    {
      "constant": false,
      "inputs": [
        {
          "internalType": "uint256",
          "name": "_timestamp",
          "type": "uint256"
        }
      ],
      "name": "setStakingEpochStartTime",
      "outputs": [],
      "payable": false,
      "stateMutability": "nonpayable",
      "type": "function"
    },
    {
      "constant": false,
      "inputs": [
        {
          "internalType": "contract IValidatorSetHbbft",
          "name": "_validatorSetAddress",
          "type": "address"
        }
      ],
      "name": "setValidatorSetAddress",
      "outputs": [],
      "payable": false,
      "stateMutability": "nonpayable",
      "type": "function"
    },
    {
      "constant": false,
      "inputs": [
        {
          "internalType": "address",
          "name": "_toPoolStakingAddress",
          "type": "address"
        }
      ],
      "name": "stake",
      "outputs": [],
      "payable": true,
      "stateMutability": "payable",
      "type": "function"
    },
    {
      "constant": true,
      "inputs": [
        {
          "internalType": "address",
          "name": "",
          "type": "address"
        },
        {
          "internalType": "address",
          "name": "",
          "type": "address"
        }
      ],
      "name": "stakeAmount",
      "outputs": [
        {
          "internalType": "uint256",
          "name": "",
          "type": "uint256"
        }
      ],
      "payable": false,
      "stateMutability": "view",
      "type": "function"
    },
    {
      "constant": true,
      "inputs": [
        {
          "internalType": "address",
          "name": "_poolStakingAddress",
          "type": "address"
        },
        {
          "internalType": "address",
          "name": "_staker",
          "type": "address"
        }
      ],
      "name": "stakeAmountByCurrentEpoch",
      "outputs": [
        {
          "internalType": "uint256",
          "name": "",
          "type": "uint256"
        }
      ],
      "payable": false,
      "stateMutability": "view",
      "type": "function"
    },
    {
      "constant": true,
      "inputs": [
        {
          "internalType": "address",
          "name": "",
          "type": "address"
        }
      ],
      "name": "stakeAmountTotal",
      "outputs": [
        {
          "internalType": "uint256",
          "name": "",
          "type": "uint256"
        }
      ],
      "payable": false,
      "stateMutability": "view",
      "type": "function"
    },
    {
      "constant": true,
      "inputs": [
        {
          "internalType": "address",
          "name": "",
          "type": "address"
        },
        {
          "internalType": "address",
          "name": "",
          "type": "address"
        }
      ],
      "name": "stakeFirstEpoch",
      "outputs": [
        {
          "internalType": "uint256",
          "name": "",
          "type": "uint256"
        }
      ],
      "payable": false,
      "stateMutability": "view",
      "type": "function"
    },
    {
      "constant": true,
      "inputs": [
        {
          "internalType": "address",
          "name": "",
          "type": "address"
        },
        {
          "internalType": "address",
          "name": "",
          "type": "address"
        }
      ],
      "name": "stakeLastEpoch",
      "outputs": [
        {
          "internalType": "uint256",
          "name": "",
          "type": "uint256"
        }
      ],
      "payable": false,
      "stateMutability": "view",
      "type": "function"
    },
    {
      "constant": true,
      "inputs": [],
      "name": "stakingEpoch",
      "outputs": [
        {
          "internalType": "uint256",
          "name": "",
          "type": "uint256"
        }
      ],
      "payable": false,
      "stateMutability": "view",
      "type": "function"
    },
    {
      "constant": true,
      "inputs": [],
      "name": "stakingEpochStartBlock",
      "outputs": [
        {
          "internalType": "uint256",
          "name": "",
          "type": "uint256"
        }
      ],
      "payable": false,
      "stateMutability": "view",
      "type": "function"
    },
    {
      "constant": true,
      "inputs": [],
      "name": "stakingEpochStartTime",
      "outputs": [
        {
          "internalType": "uint256",
          "name": "",
          "type": "uint256"
        }
      ],
      "payable": false,
      "stateMutability": "view",
      "type": "function"
    },
    {
      "constant": true,
      "inputs": [],
      "name": "stakingFixedEpochDuration",
      "outputs": [
        {
          "internalType": "uint256",
          "name": "",
          "type": "uint256"
        }
      ],
      "payable": false,
      "stateMutability": "view",
      "type": "function"
    },
    {
      "constant": true,
      "inputs": [],
      "name": "stakingFixedEpochEndTime",
      "outputs": [
        {
          "internalType": "uint256",
          "name": "",
          "type": "uint256"
        }
      ],
      "payable": false,
      "stateMutability": "view",
      "type": "function"
    },
    {
      "constant": true,
      "inputs": [],
      "name": "stakingTransitionTimeframeLength",
      "outputs": [
        {
          "internalType": "uint256",
          "name": "",
          "type": "uint256"
        }
      ],
      "payable": false,
      "stateMutability": "view",
      "type": "function"
    },
    {
      "constant": true,
      "inputs": [],
      "name": "stakingWithdrawDisallowPeriod",
      "outputs": [
        {
          "internalType": "uint256",
          "name": "",
          "type": "uint256"
        }
      ],
      "payable": false,
      "stateMutability": "view",
      "type": "function"
    },
    {
      "constant": true,
      "inputs": [],
      "name": "startTimeOfNextPhaseTransition",
      "outputs": [
        {
          "internalType": "uint256",
          "name": "",
          "type": "uint256"
        }
      ],
      "payable": false,
      "stateMutability": "view",
      "type": "function"
    },
    {
      "constant": true,
      "inputs": [],
      "name": "validatorSetContract",
      "outputs": [
        {
          "internalType": "contract IValidatorSetHbbft",
          "name": "",
          "type": "address"
        }
      ],
      "payable": false,
      "stateMutability": "view",
      "type": "function"
    },
    {
      "constant": false,
      "inputs": [
        {
          "internalType": "address",
          "name": "_fromPoolStakingAddress",
          "type": "address"
        },
        {
          "internalType": "uint256",
          "name": "_amount",
          "type": "uint256"
        }
      ],
      "name": "withdraw",
      "outputs": [],
      "payable": false,
      "stateMutability": "nonpayable",
      "type": "function"
    }
  ],
  "bytecode": "0x608060405234801561001057600080fd5b506166be80620000216000396000f3fe6080604052600436106104255760003560e01c8063950a651311610229578063cfef14411161012e578063eb3efa16116100b6578063f3fef3a31161007a578063f3fef3a314611424578063f49425011461145d578063fa4aaf4714611472578063fb367a9b146114a5578063ffada8621461156957610425565b8063eb3efa161461137f578063edd7db75146113b2578063edf94b82146113c7578063ee435f55146113fa578063f07860961461140f57610425565b8063dadee88a116100fd578063dadee88a14611292578063df6f55f5146112c5578063dfc8bf4e146112da578063e2a43cd91461130b578063e9ab03001461134457610425565b8063cfef1441146111b0578063d290c21d146111e3578063d958e2e9146111f8578063da7a9b6a1461127d57610425565b8063a697ecff116101b1578063b42754a511610180578063b42754a5146110b1578063b61ed63a146110e4578063bc9eb2c31461111d578063bd30d31d14611158578063c6912cc01461119b57610425565b8063a697ecff14611019578063a711e6a114611054578063adddc0cf14611087578063ae1aaf801461109c57610425565b80639b03d744116101f85780639b03d74414610f575780639e72c63514610f6c5780639ea8082b14610f96578063a420596714610fc9578063a5d54f651461100457610425565b8063950a651314610dab5780639518c48114610de6578063957950a714610e215780639a7b5f1114610e9157610425565b80634f9a8d8f1161032f578063673a2a1f116102b757806373c218031161028657806373c2180314610ccb578063750dd2a114610cfe578063794c0c6814610d395780637b15b94c14610d4e5780638247a23914610d8157610425565b8063673a2a1f14610bd35780636bda157714610c385780636eda21dc14610c735780637069e74614610cb657610425565b80635ca2b650116102fe5780635ca2b65014610aeb5780635fef764314610b15578063611d760c14610b2a5780636421314714610b5d5780636511391814610ba057610425565b80634f9a8d8f146109e05780635267e1d6146109f55780635659b74214610a2857806356e4d6c214610a6357610425565b80632bafde8d116103b25780633b7d0946116103815780633b7d0946146106d85780633ea15d621461070b57806348aaa4a2146107c45780634d73b02c146107ee5780634e9b426d1461093857610425565b80632bafde8d1461062d5780633172773014610657578063379b046a146106ae578063392e53cd146106c357610425565b80631555371c116103f95780631555371c1461054a5780631fb31e431461055f57806322e3d986146105af578063251441a9146105c4578063264762041461060757610425565b80622ceebc14610460578063028b8bdb146104b557806303a81065146104ca5780630868c0d61461050f575b6040805162461bcd60e51b815260206004820152600b60248201526a4e6f742070617961626c6560a81b604482015290519081900360640190fd5b34801561046c57600080fd5b506104a36004803603606081101561048357600080fd5b506001600160a01b0381358116916020810135909116906040013561159c565b60408051918252519081900360200190f35b3480156104c157600080fd5b506104a36115bf565b3480156104d657600080fd5b5061050d600480360360608110156104ed57600080fd5b506001600160a01b038135811691602081013590911690604001356115c5565b005b34801561051b57600080fd5b506104a36004803603604081101561053257600080fd5b506001600160a01b03813581169160200135166115f8565b34801561055657600080fd5b5061050d611615565b34801561056b57600080fd5b506105926004803603602081101561058257600080fd5b50356001600160a01b03166116fd565b604080516001600160801b03199092168252519081900360200190f35b3480156105bb57600080fd5b506104a361171e565b3480156105d057600080fd5b5061050d600480360360608110156105e757600080fd5b506001600160a01b0381358116916020810135909116906040013561174b565b61050d6004803603602081101561061d57600080fd5b50356001600160a01b0316611890565b34801561063957600080fd5b5061050d6004803603602081101561065057600080fd5b50356118e4565b34801561066357600080fd5b5061069a6004803603606081101561067a57600080fd5b506001600160a01b03813581169160208101359091169060400135611987565b604080519115158252519081900360200190f35b3480156106ba57600080fd5b506104a36119ad565b3480156106cf57600080fd5b5061069a6119b3565b3480156106e457600080fd5b5061050d600480360360208110156106fb57600080fd5b50356001600160a01b03166119c4565b34801561071757600080fd5b5061050d6004803603604081101561072e57600080fd5b810190602081018135600160201b81111561074857600080fd5b82018360208201111561075a57600080fd5b803590602001918460208302840111600160201b8311171561077b57600080fd5b919080806020026020016040519081016040528093929190818152602001838360200280828437600092019190915250929550505090356001600160a01b03169150611a239050565b3480156107d057600080fd5b5061050d600480360360208110156107e757600080fd5b5035612172565b3480156107fa57600080fd5b5061050d600480360361012081101561081257600080fd5b6001600160a01b038235169190810190604081016020820135600160201b81111561083c57600080fd5b82018360208201111561084e57600080fd5b803590602001918460208302840111600160201b8311171561086f57600080fd5b91939092823592602081013592604082013592606083013592608081013592919060c081019060a00135600160201b8111156108aa57600080fd5b8201836020820111156108bc57600080fd5b803590602001918460208302840111600160201b831117156108dd57600080fd5b919390929091602081019035600160201b8111156108fa57600080fd5b82018360208201111561090c57600080fd5b803590602001918460208302840111600160201b8311171561092d57600080fd5b509092509050612215565b34801561094457600080fd5b5061096b6004803603602081101561095b57600080fd5b50356001600160a01b03166124b4565b6040805160208082528351818301528351919283929083019185019080838360005b838110156109a557818101518382015260200161098d565b50505050905090810190601f1680156109d25780820380516001836020036101000a031916815260200191505b509250505060405180910390f35b3480156109ec57600080fd5b506104a361255f565b348015610a0157600080fd5b506104a360048036036020811015610a1857600080fd5b50356001600160a01b0316612565565b348015610a3457600080fd5b506104a360048036036040811015610a4b57600080fd5b506001600160a01b0381358116916020013516612576565b61050d60048036036060811015610a7957600080fd5b6001600160a01b038235169190810190604081016020820135600160201b811115610aa357600080fd5b820183602082011115610ab557600080fd5b803590602001918460018302840111600160201b83111715610ad657600080fd5b9193509150356001600160801b031916612593565b348015610af757600080fd5b5061050d60048036036020811015610b0e57600080fd5b50356126ac565b348015610b2157600080fd5b506104a36126b1565b348015610b3657600080fd5b5061050d60048036036020811015610b4d57600080fd5b50356001600160a01b03166126b7565b348015610b6957600080fd5b5061050d60048036036060811015610b8057600080fd5b506001600160a01b038135811691602081013590911690604001356126c2565b348015610bac57600080fd5b506104a360048036036020811015610bc357600080fd5b50356001600160a01b03166126ee565b348015610bdf57600080fd5b50610be8612700565b60408051602080825283518183015283519192839290830191858101910280838360005b83811015610c24578181015183820152602001610c0c565b505050509050019250505060405180910390f35b348015610c4457600080fd5b506104a360048036036040811015610c5b57600080fd5b506001600160a01b0381358116916020013516612762565b348015610c7f57600080fd5b5061050d60048036036060811015610c9657600080fd5b506001600160a01b038135811691602081013590911690604001356128c9565b348015610cc257600080fd5b506104a3612901565b348015610cd757600080fd5b50610be860048036036020811015610cee57600080fd5b50356001600160a01b0316612907565b348015610d0a57600080fd5b506104a360048036036040811015610d2157600080fd5b506001600160a01b038135811691602001351661297c565b348015610d4557600080fd5b506104a36129b1565b348015610d5a57600080fd5b5061050d60048036036020811015610d7157600080fd5b50356001600160a01b03166129b7565b348015610d8d57600080fd5b5061050d60048036036020811015610da457600080fd5b5035612a47565b348015610db757600080fd5b506104a360048036036040811015610dce57600080fd5b506001600160a01b0381358116916020013516612aa3565b348015610df257600080fd5b506104a360048036036040811015610e0957600080fd5b506001600160a01b0381358116916020013516612c13565b348015610e2d57600080fd5b50610e36612c30565b6040518080602001838152602001828103825284818151815260200191508051906020019060200280838360005b83811015610e7c578181015183820152602001610e64565b50505050905001935050505060405180910390f35b348015610e9d57600080fd5b50610ec460048036036020811015610eb457600080fd5b50356001600160a01b0316612c93565b6040518080602001836001600160801b0319166001600160801b0319168152602001828103825284818151815260200191508051906020019080838360005b83811015610f1b578181015183820152602001610f03565b50505050905090810190601f168015610f485780820380516001836020036101000a031916815260200191505b50935050505060405180910390f35b348015610f6357600080fd5b506104a3612d3d565b348015610f7857600080fd5b5061050d60048036036020811015610f8f57600080fd5b5035612d43565b348015610fa257600080fd5b50610be860048036036020811015610fb957600080fd5b50356001600160a01b0316612da5565b348015610fd557600080fd5b506104a360048036036040811015610fec57600080fd5b506001600160a01b0381358116916020013516612e19565b34801561101057600080fd5b50610be8612e36565b34801561102557600080fd5b506104a36004803603604081101561103c57600080fd5b506001600160a01b0381358116916020013516612e96565b34801561106057600080fd5b5061069a6004803603602081101561107757600080fd5b50356001600160a01b0316612eb3565b34801561109357600080fd5b5061050d612f0c565b3480156110a857600080fd5b506104a3612f6d565b3480156110bd57600080fd5b506104a3600480360360208110156110d457600080fd5b50356001600160a01b0316612f73565b3480156110f057600080fd5b5061050d6004803603604081101561110757600080fd5b506001600160a01b038135169060200135612f85565b34801561112957600080fd5b506104a36004803603604081101561114057600080fd5b506001600160a01b0381358116916020013516613484565b34801561116457600080fd5b5061050d6004803603606081101561117b57600080fd5b506001600160a01b038135811691602081013590911690604001356134a1565b3480156111a757600080fd5b506104a36134cd565b3480156111bc57600080fd5b5061050d600480360360208110156111d357600080fd5b50356001600160a01b03166134db565b3480156111ef57600080fd5b50610be86137ed565b34801561120457600080fd5b5061050d6004803603604081101561121b57600080fd5b810190602081018135600160201b81111561123557600080fd5b82018360208201111561124757600080fd5b803590602001918460018302840111600160201b8311171561126857600080fd5b9193509150356001600160801b03191661384d565b34801561128957600080fd5b506104a3613896565b34801561129e57600080fd5b506104a3600480360360208110156112b557600080fd5b50356001600160a01b031661389c565b3480156112d157600080fd5b50610be86138ae565b3480156112e657600080fd5b506112ef61390e565b604080516001600160a01b039092168252519081900360200190f35b34801561131757600080fd5b5061050d6004803603604081101561132e57600080fd5b506001600160a01b03813516906020013561391d565b34801561135057600080fd5b506104a36004803603604081101561136757600080fd5b506001600160a01b0381358116916020013516613938565b34801561138b57600080fd5b5061050d600480360360208110156113a257600080fd5b50356001600160a01b0316613955565b3480156113be57600080fd5b5061050d613977565b3480156113d357600080fd5b506104a3600480360360208110156113ea57600080fd5b50356001600160a01b0316613b48565b34801561140657600080fd5b5061050d613b5a565b34801561141b57600080fd5b506104a3613bbd565b34801561143057600080fd5b5061050d6004803603604081101561144757600080fd5b506001600160a01b038135169060200135613bc3565b34801561146957600080fd5b5061069a613cb5565b34801561147e57600080fd5b506104a36004803603602081101561149557600080fd5b50356001600160a01b0316613cba565b3480156114b157600080fd5b506104a3600480360360608110156114c857600080fd5b810190602081018135600160201b8111156114e257600080fd5b8201836020820111156114f457600080fd5b803590602001918460208302840111600160201b8311171561151557600080fd5b919080806020026020016040519081016040528093929190818152602001838360200280828437600092019190915250929550506001600160a01b038335811694506020909301359092169150613ccc9050565b34801561157557600080fd5b5061050d6004803603602081101561158c57600080fd5b50356001600160a01b031661422e565b600b60209081526000938452604080852082529284528284209052825290205481565b60195481565b6001600160a01b039283166000908152600b60209081526040808320949095168252928352838120918152915290812055565b600f60209081526000928352604080842090915290825290205481565b6021546001600160a01b03163314611668576040805162461bcd60e51b815260206004820152601160248201527013db9b1e4815985b1a59185d1bdc94d95d607a1b604482015290519081900360640190fd5b606060038054806020026020016040519081016040528092919081815260200182805480156116c057602002820191906000526020600020905b81546001600160a01b031681526001909101906020018083116116a2575b50939450600093505050505b81518110156116f9576116f18282815181106116e457fe5b6020026020010151614237565b6001016116cc565b5050565b6001600160a01b031660009081526022602052604090206001015460801b90565b601d54601b546000919015611734576001611737565b60005b60ff16601f54601b54830101039150505b90565b3a61178d576040805162461bcd60e51b815260206004820152600d60248201526c04761735072696365206973203609c1b604482015290519081900360640190fd5b6117956119b3565b6117d4576040805162461bcd60e51b815260206004820152601860248201526000805160206164a0833981519152604482015290519081900360640190fd5b816001600160a01b0316836001600160a01b031614156118255760405162461bcd60e51b81526004018080602001828103825260278152602001806164c06027913960400191505060405180910390fd5b33611831848284614358565b61183c8382846145d4565b601a54604080516001600160a01b03878116825260208201869052825181861693918816927f4480d8e4b1e9095b94bf513961d26fe1d32386ebdd103d18fe8738cf4b2223ff92908290030190a450505050565b3a6118d2576040805162461bcd60e51b815260206004820152600d60248201526c04761735072696365206973203609c1b604482015290519081900360640190fd5b33346118df8383836145d4565b505050565b6118ec614a7b565b6001600160a01b0316336001600160a01b03161461193b5760405162461bcd60e51b815260040180806020018281038252602b8152602001806165f4602b913960400191505060405180910390fd5b6119436119b3565b611982576040805162461bcd60e51b815260206004820152601860248201526000805160206164a0833981519152604482015290519081900360640190fd5b600a55565b601560209081526000938452604080852082529284528284209052825290205460ff1681565b601f5481565b6021546001600160a01b0316151590565b6021546001600160a01b03163314611a17576040805162461bcd60e51b815260206004820152601160248201527013db9b1e4815985b1a59185d1bdc94d95d607a1b604482015290519081900360640190fd5b611a2081614237565b50565b3a611a65576040805162461bcd60e51b815260206004820152600d60248201526c04761735072696365206973203609c1b604482015290519081900360640190fd5b611a6d6119b3565b611aac576040805162461bcd60e51b815260206004820152601860248201526000805160206164a0833981519152604482015290519081900360640190fd5b336000806001600160a01b0384168314611b62576001600160a01b03808516600090815260176020908152604080832093871683529290522054915081611b3a576040805162461bcd60e51b815260206004820152601d60248201527f436c61696d3a2066697273742065706f63682063616e27742062652030000000604482015290519081900360640190fd5b506001600160a01b038084166000908152601860209081526040808320938616835292905220545b60215460408051632b5aa5d760e11b815290516000926001600160a01b0316916356b54bae916004808301926020929190829003018186803b158015611ba757600080fd5b505afa158015611bbb573d6000803e3d6000fd5b505050506040513d6020811015611bd157600080fd5b5051602154604080516253517560e01b81526001600160a01b0389811660048301529151939450600093919092169162535175916024808301926020929190829003018186803b158015611c2457600080fd5b505afa158015611c38573d6000803e3d6000fd5b505050506040513d6020811015611c4e57600080fd5b505187519091506000908190611d7e57836001600160a01b031663dd03f5b9846040518263ffffffff1660e01b815260040180826001600160a01b03166001600160a01b0316815260200191505060006040518083038186803b158015611cb457600080fd5b505afa158015611cc8573d6000803e3d6000fd5b505050506040513d6000823e601f3d908101601f191682016040526020811015611cf157600080fd5b8101908080516040519392919084600160201b821115611d1057600080fd5b908301906020820185811115611d2557600080fd5b82518660208202830111600160201b82111715611d4157600080fd5b82525081516020918201928201910280838360005b83811015611d6e578181015183820152602001611d56565b5050505090500160405250505098505b60005b89518110156120ee5760008a8281518110611d9857fe5b602002602001015190508160001480611dc657508a6001830381518110611dbb57fe5b602002602001015181115b611e015760405162461bcd60e51b81526004018080602001828103825260258152602001806161826025913960400191505060405180910390fd5b601a548110611e57576040805162461bcd60e51b815260206004820181905260248201527f436c61696d3a206f6e6c79206265666f72652063757272656e742065706f6368604482015290519081900360640190fd5b6001600160a01b03808b166000908152601560209081526040808320938d1683529281528282208483529052205460ff1615611e9357506120e6565b6000896001600160a01b03168b6001600160a01b031614611f865788821015611ebd5750506120e6565b818811158015611ecc57508715155b15611ed85750506120ee565b611ee5828a868e8e614aa0565b9350816001019850866001600160a01b031663e1ab96d88584896040518463ffffffff1660e01b815260040180848152602001838152602001826001600160a01b03166001600160a01b03168152602001935050505060206040518083038186803b158015611f5357600080fd5b505afa158015611f67573d6000803e3d6000fd5b505050506040513d6020811015611f7d57600080fd5b50519050612013565b866001600160a01b031663ba2d759783886040518363ffffffff1660e01b815260040180838152602001826001600160a01b03166001600160a01b031681526020019250505060206040518083038186803b158015611fe457600080fd5b505afa158015611ff8573d6000803e3d6000fd5b505050506040513d602081101561200e57600080fd5b505190505b612023858263ffffffff614b1516565b94506001601560008d6001600160a01b03166001600160a01b0316815260200190815260200160002060008c6001600160a01b03166001600160a01b03168152602001908152602001600020600084815260200190815260200160002060006101000a81548160ff021916908315150217905550818a6001600160a01b03168c6001600160a01b03167fd3208fd5300db64b97bc442f47ade72b7ebcd9272aaecdcc04c777bb762861b9846040518082815260200191505060405180910390a450505b600101611d81565b50836001600160a01b031663469507c683896040518363ffffffff1660e01b815260040180838152602001826001600160a01b03166001600160a01b0316815260200192505050600060405180830381600087803b15801561214f57600080fd5b505af1158015612163573d6000803e3d6000fd5b50505050505050505050505050565b61217a614a7b565b6001600160a01b0316336001600160a01b0316146121c95760405162461bcd60e51b815260040180806020018281038252602b8152602001806165f4602b913960400191505060405180910390fd5b6121d16119b3565b612210576040805162461bcd60e51b815260206004820152601860248201526000805160206164a0833981519152604482015290519081900360640190fd5b600955565b86612267576040805162461bcd60e51b815260206004820152601760248201527f466978656445706f63684475726174696f6e2069732030000000000000000000604482015290519081900360640190fd5b8487116122a55760405162461bcd60e51b815260040180806020018281038252603d8152602001806163b3603d913960400191505060405180910390fd5b846122f7576040805162461bcd60e51b815260206004820152601b60248201527f5769746864726177446973616c6c6f77506572696f6420697320300000000000604482015290519081900360640190fd5b856123335760405162461bcd60e51b815260040180806020018281038252602e815260200180616360602e913960400191505060405180910390fd5b8686106123715760405162461bcd60e51b81526004018080602001828103825260408152602001806165606040913960400191505060405180910390fd5b6124238c8c8c80806020026020016040519081016040528093929190818152602001838360200280828437600081840152601f19601f820116905080830192505050505050508b8b88888080602002602001604051908101604052809392919081815260200183836020028082843760009201919091525050604080516020808c0282810182019093528b82529093508b92508a918291850190849080828437600092019190915250614b2792505050565b601b879055601985905560215460408051636c9230db60e01b815290516001600160a01b0390921691636c9230db91600480820192602092909190829003018186803b15801561247257600080fd5b505afa158015612486573d6000803e3d6000fd5b505050506040513d602081101561249c57600080fd5b5051601d55505050601c929092555050505050505050565b6001600160a01b03811660009081526022602090815260409182902080548351601f60026000196101006001861615020190931692909204918201849004840281018401909452808452606093928301828280156125535780601f1061252857610100808354040283529160200191612553565b820191906000526020600020905b81548152906001019060200180831161253657829003601f168201915b50505050509050919050565b601b5481565b602080526000908152604090205481565b601760209081526000928352604080842090915290825290205481565b3a6125d5576040805162461bcd60e51b815260206004820152600d60248201526c04761735072696365206973203609c1b604482015290519081900360640190fd5b60215460408051630526083960e11b81526001600160a01b0387811660048301523360248301819052925192933493911691630a4c107291604480830192600092919082900301818387803b15801561262d57600080fd5b505af1158015612641573d6000803e3d6000fd5b505050506126508283836145d4565b6001600160a01b0382166000908152602260205260409020612673908686615fe5565b50506001600160a01b0316600090815260226020526040902060010180546001600160801b03191660809290921c919091179055505050565b601a55565b60095481565b611a20816001614fbc565b6001600160a01b0392831660009081526018602090815260408083209490951682529290925291902055565b60116020526000908152604090205481565b6060600080548060200260200160405190810160405280929190818152602001828054801561275857602002820191906000526020600020905b81546001600160a01b0316815260019091019060200180831161273a575b5050505050905090565b602154604080516253517560e01b81526001600160a01b03858116600483015291516000938493169162535175916024808301926020929190829003018186803b1580156127af57600080fd5b505afa1580156127c3573d6000803e3d6000fd5b505050506040513d60208110156127d957600080fd5b505190506127f6816001600160a01b038681169086161415615098565b6128045760009150506128c3565b6001600160a01b038085166000908152601660209081526040808320878516845282529182902054602154835163a0d16cad60e01b8152868616600482015293519194169263a0d16cad926024808301939192829003018186803b15801561286b57600080fd5b505afa15801561287f573d6000803e3d6000fd5b505050506040513d602081101561289557600080fd5b50516128a45791506128c39050565b60006128b0868661297c565b9050808211156128be578091505b509150505b92915050565b6001600160a01b039283166000908152601560209081526040808320949095168252928352838120918152915220805460ff19169055565b601e5481565b6001600160a01b03811660009081526007602090815260409182902080548351818402810184019094528084526060939283018282801561255357602002820191906000526020600020905b81546001600160a01b031681526001909101906020018083116129535750505050509050919050565b6001600160a01b039182166000908152600860209081526040808320939094168252918252828120601a548252909152205490565b601a5481565b6021546001600160a01b03163314612a0a576040805162461bcd60e51b815260206004820152601160248201527013db9b1e4815985b1a59185d1bdc94d95d607a1b604482015290519081900360640190fd5b6009546001600160a01b038216600090815260166020908152604080832090915290205410611a2057612a3e816001614fbc565b611a20816151ce565b6021546001600160a01b03163314612a9a576040805162461bcd60e51b815260206004820152601160248201527013db9b1e4815985b1a59185d1bdc94d95d607a1b604482015290519081900360640190fd5b601d5543601e55565b602154604080516253517560e01b81526001600160a01b03858116600483015291516000938493169162535175916024808301926020929190829003018186803b158015612af057600080fd5b505afa158015612b04573d6000803e3d6000fd5b505050506040513d6020811015612b1a57600080fd5b50519050612b37816001600160a01b038681169086161415615098565b612b455760009150506128c3565b6021546040805163a0d16cad60e01b81526001600160a01b0384811660048301529151919092169163a0d16cad916024808301926020929190829003018186803b158015612b9257600080fd5b505afa158015612ba6573d6000803e3d6000fd5b505050506040513d6020811015612bbc57600080fd5b5051612bcc5760009150506128c3565b612c0b612bd9858561297c565b6001600160a01b038087166000908152601660209081526040808320938916835292905220549063ffffffff61528e16565b949350505050565b601060209081526000928352604080842090915290825290205481565b60606000600460055481805480602002602001604051908101604052809291908181526020018280548015612c8457602002820191906000526020600020905b815481526020019060010190808311612c70575b50505050509150915091509091565b60226020908152600091825260409182902080548351601f60026000196101006001861615020190931692909204918201849004840281018401909452808452909291839190830182828015612d2a5780601f10612cff57610100808354040283529160200191612d2a565b820191906000526020600020905b815481529060010190602001808311612d0d57829003601f168201915b5050506001909301549192505060801b82565b601d5481565b6021546001600160a01b03163314612d96576040805162461bcd60e51b815260206004820152601160248201527013db9b1e4815985b1a59185d1bdc94d95d607a1b604482015290519081900360640190fd5b601c54601f8054909201019055565b6001600160a01b038116600090815260066020908152604091829020805483518184028101840190945280845260609392830182828015612553576020028201919060005260206000209081546001600160a01b031681526001909101906020018083116129535750505050509050919050565b600e60209081526000928352604080842090915290825290205481565b60606002805480602002602001604051908101604052809291908181526020018280548015612758576020028201919060005260206000209081546001600160a01b0316815260019091019060200180831161273a575050505050905090565b601660209081526000928352604080842090915290825290205481565b6001600160a01b038116600090815260126020526040812054815481108015612f055750826001600160a01b031660008281548110612eee57fe5b6000918252602090912001546001600160a01b0316145b9392505050565b6021546001600160a01b03163314612f5f576040805162461bcd60e51b815260206004820152601160248201527013db9b1e4815985b1a59185d1bdc94d95d607a1b604482015290519081900360640190fd5b601c54601f80549091019055565b601c5481565b60126020526000908152604090205481565b3a612fc7576040805162461bcd60e51b815260206004820152600d60248201526c04761735072696365206973203609c1b604482015290519081900360640190fd5b612fcf6119b3565b61300e576040805162461bcd60e51b815260206004820152601860248201526000805160206164a0833981519152604482015290519081900360640190fd5b6001600160a01b0382166130535760405162461bcd60e51b81526004018080602001828103825260228152602001806162056022913960400191505060405180910390fd5b8061308f5760405162461bcd60e51b815260040180806020018281038252602581526020018061638e6025913960400191505060405180910390fd5b602154604080516253517560e01b81526001600160a01b0385811660048301529151339361311e93169162535175916024808301926020929190829003018186803b1580156130dd57600080fd5b505afa1580156130f1573d6000803e3d6000fd5b505050506040513d602081101561310757600080fd5b50516001600160a01b038381169086161415615098565b61316f576040805162461bcd60e51b815260206004820152601a60248201527f4f7264657257697468647261773a206e6f7420616c6c6f776564000000000000604482015290519081900360640190fd5b6001600160a01b038084166000818152600c6020908152604080832094861680845294825280832054848452600d83528184205460168452828520968552958352818420549484529180528220549093929186131561328957856131d38887612aa3565b8111156132115760405162461bcd60e51b815260040180806020018281038252602f81526020018061665b602f913960400191505060405180910390fd5b613221858263ffffffff614b1516565b9450613233848263ffffffff614b1516565b9350613245838263ffffffff61528e16565b9250613257828263ffffffff61528e16565b601a546001600160a01b03808b166000908152600e60209081526040808320938c168352929052205591506132d89050565b600086900361329e858263ffffffff61528e16565b94506132b0848263ffffffff61528e16565b93506132c2838263ffffffff614b1516565b92506132d4828263ffffffff614b1516565b9150505b6001600160a01b038088166000818152600c60209081526040808320948a16808452948252808320899055838352600d8252808320889055601682528083208584528252808320879055838352908052902083905514156133a95781158061334257506009548210155b61337d5760405162461bcd60e51b81526004018080602001828103825260338152602001806162276033913960400191505060405180910390fd5b6000861315613399578161339457613394876152a3565b6133a4565b6133a4876001614fbc565b613424565b8115806133b85750600a548210155b6133f35760405162461bcd60e51b81526004018080602001828103825260338152602001806162276033913960400191505060405180910390fd5b6000861315613410578161340b5761340b8786615361565b61341a565b61341a87866154b9565b613424878661557b565b61342d876151ce565b601a54856001600160a01b0316886001600160a01b03167f80d5c777e5f7ac6ee89723223803ca5c0ec0204f89e99c1b0cde973c66a64594896040518082815260200191505060405180910390a450505050505050565b601860209081526000928352604080842090915290825290205481565b6001600160a01b0392831660009081526017602090815260408083209490951682529290925291902055565b601c54601b54601d54010390565b3a61351d576040805162461bcd60e51b815260206004820152600d60248201526c04761735072696365206973203609c1b604482015290519081900360640190fd5b6135256119b3565b613564576040805162461bcd60e51b815260206004820152601860248201526000805160206164a0833981519152604482015290519081900360640190fd5b6001600160a01b0381166000908152600e6020908152604080832033808552925290912054601a54116135c85760405162461bcd60e51b815260040180806020018281038252603f815260200180616419603f913960400191505060405180910390fd5b602154604080516253517560e01b81526001600160a01b03858116600483015291516136599392909216916253517591602480820192602092909190829003018186803b15801561361857600080fd5b505afa15801561362c573d6000803e3d6000fd5b505050506040513d602081101561364257600080fd5b50516001600160a01b038381169085161415615098565b6136945760405162461bcd60e51b815260040180806020018281038252602a8152602001806165ca602a913960400191505060405180910390fd5b6001600160a01b038083166000908152600c60209081526040808320938516835292905220548061370c576040805162461bcd60e51b815260206004820152601a60248201527f636c61696d20616d6f756e74206d757374206e6f742062652030000000000000604482015290519081900360640190fd5b6001600160a01b038084166000818152600c602090815260408083209487168352938152838220829055918152600d9091522054613750908263ffffffff61528e16565b6001600160a01b038085166000908152600d602090815260408083209490945560168152838220928616825291909152205461379057613790838361566d565b61379a82826157c0565b601a54826001600160a01b0316846001600160a01b03167ff380b0bc887e00f5b50d3c9d4eaaf5c9a0afd97b956316b995159384c4ede9b3846040518082815260200191505060405180910390a4505050565b60606003805480602002602001604051908101604052809291908181526020018280548015612758576020028201919060005260206000209081546001600160a01b0316815260019091019060200180831161273a575050505050905090565b336000908152602260205260409020613867908484615fe5565b5033600090815260226020526040902060010180546001600160801b03191660809290921c9190911790555050565b600a5481565b600d6020526000908152604090205481565b60606001805480602002602001604051908101604052809291908181526020018280548015612758576020028201919060005260206000209081546001600160a01b0316815260019091019060200180831161273a575050505050905090565b6021546001600160a01b031681565b6001600160a01b039091166000908152602080526040902055565b600c60209081526000928352604080842090915290825290205481565b602180546001600160a01b0319166001600160a01b0392909216919091179055565b3a6139b9576040805162461bcd60e51b815260206004820152600d60248201526c04761735072696365206973203609c1b604482015290519081900360640190fd5b6139c16119b3565b613a00576040805162461bcd60e51b815260206004820152601860248201526000805160206164a0833981519152604482015290519081900360640190fd5b602154604080516253517560e01b81523360048201819052915191926000926001600160a01b039091169162535175916024808301926020929190829003018186803b158015613a4f57600080fd5b505afa158015613a63573d6000803e3d6000fd5b505050506040513d6020811015613a7957600080fd5b5051601a54909150151580613b0457506021546040805163facd743b60e01b81526001600160a01b0384811660048301529151919092169163facd743b916024808301926020929190829003018186803b158015613ad657600080fd5b505afa158015613aea573d6000803e3d6000fd5b505050506040513d6020811015613b0057600080fd5b5051155b613b3f5760405162461bcd60e51b815260040180806020018281038252602a8152602001806165a0602a913960400191505060405180910390fd5b6116f982614237565b60146020526000908152604090205481565b6021546001600160a01b03163314613bad576040805162461bcd60e51b815260206004820152601160248201527013db9b1e4815985b1a59185d1bdc94d95d607a1b604482015290519081900360640190fd5b601a805460010190556000601f55565b610bb881565b3a613c05576040805162461bcd60e51b815260206004820152600d60248201526c04761735072696365206973203609c1b604482015290519081900360640190fd5b613c0d6119b3565b613c4c576040805162461bcd60e51b815260206004820152601860248201526000805160206164a0833981519152604482015290519081900360640190fd5b33613c58838284614358565b613c6281836157c0565b601a54816001600160a01b0316846001600160a01b03167fa7c0f0cac6bd4d18042007706c84a8abe823751cf289b69c01e83eef7b5915c7856040518082815260200191505060405180910390a4505050565b600190565b60136020526000908152604090205481565b6000806000836001600160a01b0316856001600160a01b031614613d76576001600160a01b03808616600090815260176020908152604080832093881683529290522054915081613d4e5760405162461bcd60e51b815260040180806020018281038252602e8152602001806161a7602e913960400191505060405180910390fd5b506001600160a01b038085166000908152601860209081526040808320938716835292905220545b60215460408051632b5aa5d760e11b815290516000926001600160a01b0316916356b54bae916004808301926020929190829003018186803b158015613dbb57600080fd5b505afa158015613dcf573d6000803e3d6000fd5b505050506040513d6020811015613de557600080fd5b5051602154604080516253517560e01b81526001600160a01b038a811660048301529151939450600093919092169162535175916024808301926020929190829003018186803b158015613e3857600080fd5b505afa158015613e4c573d6000803e3d6000fd5b505050506040513d6020811015613e6257600080fd5b505188519091506000908190613f9257836001600160a01b031663dd03f5b9846040518263ffffffff1660e01b815260040180826001600160a01b03166001600160a01b0316815260200191505060006040518083038186803b158015613ec857600080fd5b505afa158015613edc573d6000803e3d6000fd5b505050506040513d6000823e601f3d908101601f191682016040526020811015613f0557600080fd5b8101908080516040519392919084600160201b821115613f2457600080fd5b908301906020820185811115613f3957600080fd5b82518660208202830111600160201b82111715613f5557600080fd5b82525081516020918201928201910280838360005b83811015613f82578181015183820152602001613f6a565b5050505090500160405250505099505b60005b8a518110156142205760008b8281518110613fac57fe5b602002602001015190508160001480613fda57508b6001830381518110613fcf57fe5b602002602001015181115b6140155760405162461bcd60e51b815260040180806020018281038252603681526020018061627f6036913960400191505060405180910390fd5b601a5481106140555760405162461bcd60e51b815260040180806020018281038252603c81526020018061661f603c913960400191505060405180910390fd5b6001600160a01b03808c166000908152601560209081526040808320938e1683529281528282208483529052205460ff16156140915750614218565b60008a6001600160a01b03168c6001600160a01b03161461418457888210156140bb575050614218565b8188111580156140ca57508715155b156140d6575050614220565b6140e3828a878f8f614aa0565b9450816001019850866001600160a01b031663e1ab96d88684896040518463ffffffff1660e01b815260040180848152602001838152602001826001600160a01b03166001600160a01b03168152602001935050505060206040518083038186803b15801561415157600080fd5b505afa158015614165573d6000803e3d6000fd5b505050506040513d602081101561417b57600080fd5b50519050614211565b866001600160a01b031663ba2d759783886040518363ffffffff1660e01b815260040180838152602001826001600160a01b03166001600160a01b031681526020019250505060206040518083038186803b1580156141e257600080fd5b505afa1580156141f6573d6000803e3d6000fd5b505050506040513d602081101561420c57600080fd5b505190505b9290920191505b600101613f95565b509998505050505050505050565b611a2081615823565b6001600160a01b0381166000908152601260205260408120549054811080156142895750816001600160a01b03166000828154811061427257fe5b6000918252602090912001546001600160a01b0316145b156143215760008054819060001981019081106142a257fe5b600091825260208220015481546001600160a01b039091169250829190849081106142c957fe5b600091825260208083209190910180546001600160a01b0319166001600160a01b039485161790558383168252601290526040808220859055918516815290812081905580549061431e906000198301616063565b50505b61432a826158db565b1561433d5761433882615918565b614346565b61434682615823565b61434f82615a04565b6116f982615ba8565b6001600160a01b03831661439d5760405162461bcd60e51b815260040180806020018281038252602e8152602001806162b5602e913960400191505060405180910390fd5b806143ef576040805162461bcd60e51b815260206004820181905260248201527f616d6f756e7420746f207769746864726177206d757374206e6f742062652030604482015290519081900360640190fd5b6143f98383612762565b8111156144375760405162461bcd60e51b815260040180806020018281038252602581526020018061625a6025913960400191505060405180910390fd5b6001600160a01b03808416600090815260166020908152604080832093861683529290529081205461446f908363ffffffff61528e16565b90506000836001600160a01b0316856001600160a01b03161461449457600a54614498565b6009545b90508115806144a75750808210155b6144e25760405162461bcd60e51b81526004018080602001828103825260398152602001806165276039913960400191505060405180910390fd5b6001600160a01b0380861660009081526016602090815260408083209388168352929052908120839055614516868661297c565b90508381101561452757600061452b565b8381035b6001600160a01b038088166000818152600860209081526040808320948b168352938152838220601a548352815283822094909455908152918052902054614579908563ffffffff61528e16565b6001600160a01b0387166000908152602080526040902055826145a0576145a0868661566d565b856001600160a01b0316856001600160a01b0316146145c3576145c3868661557b565b6145cc866151ce565b505050505050565b602154604080516253517560e01b81526001600160a01b038681166004830152915160009392909216916253517591602480820192602092909190829003018186803b15801561462357600080fd5b505afa158015614637573d6000803e3d6000fd5b505050506040513d602081101561464d57600080fd5b505190506001600160a01b0381166146965760405162461bcd60e51b81526004018080602001828103825260408152602001806164e76040913960400191505060405180910390fd5b6001600160a01b0384166146f1576040805162461bcd60e51b815260206004820152601a60248201527f5374616b653a207374616b696e67416464726573732069732030000000000000604482015290519081900360640190fd5b81614743576040805162461bcd60e51b815260206004820152601960248201527f5374616b653a207374616b696e67416d6f756e74206973203000000000000000604482015290519081900360640190fd5b60215460408051635491295760e11b81526001600160a01b0384811660048301529151919092169163a92252ae916024808301926020929190829003018186803b15801561479057600080fd5b505afa1580156147a4573d6000803e3d6000fd5b505050506040513d60208110156147ba57600080fd5b50511561480e576040805162461bcd60e51b815260206004820152601f60248201527f5374616b653a204d696e696e6720616464726573732069732062616e6e656400604482015290519081900360640190fd5b6001600160a01b038085166000908152601660209081526040808320938716835292905290812054614846908463ffffffff614b1516565b9050846001600160a01b0316846001600160a01b031614156148a8576009548110156148a35760405162461bcd60e51b815260040180806020018281038252603181526020018061630d6031913960400191505060405180910390fd5b614945565b600a548110156148e95760405162461bcd60e51b815260040180806020018281038252603481526020018061614e6034913960400191505060405180910390fd5b6001600160a01b03851660009081526016602090815260408083209091529020546149455760405162461bcd60e51b815260040180806020018281038252602381526020018061647d6023913960400191505060405180910390fd5b6001600160a01b0380861660009081526016602090815260408083209388168352929052208190556149878361497b878761297c565b9063ffffffff614b1516565b6001600160a01b038087166000818152600860209081526040808320948a168352938152838220601a5483528152838220949094559081529180529020546149d5908463ffffffff614b1516565b6001600160a01b03808716600081815260208052604090209290925585161415614a0957614a04856001614fbc565b614a1d565b614a1385856154b9565b614a1d858561557b565b614a26856151ce565b601a54846001600160a01b0316866001600160a01b03167f2273de02cb1f69ba6259d22c4bc22c60e4c94c193265ef6afee324a04a9b6d22866040518082815260200191505060405180910390a45050505050565b7fb53127684a568b3173ae13b9f8a6016e243e63b6e8ee1178d6a717850b5d61035490565b60005b506001600160a01b038083166000908152600b602090815260408083209385168352928152828220888352905220548015614af1576000198114614ae75780614aea565b60005b9050614b0c565b84861415614b00575082614b0c565b60001990950194614aa3565b95945050505050565b600082820183811015612f0557600080fd5b614b2f614a7b565b6001600160a01b0316336001600160a01b03161480614b665750614b51614a7b565b6001600160a01b0316326001600160a01b0316145b80614b7f5750614b74614a7b565b6001600160a01b0316155b80614b88575043155b614bc35760405162461bcd60e51b81526004018080602001828103825260308152602001806161d56030913960400191505060405180910390fd5b614bcb6119b3565b15614c13576040805162461bcd60e51b8152602060048201526013602482015272105b1c9958591e481a5b9a5d1a585b1a5e9959606a1b604482015290519081900360640190fd5b6001600160a01b038616614c6e576040805162461bcd60e51b815260206004820152601760248201527f56616c696461746f725365742063616e27742062652030000000000000000000604482015290519081900360640190fd5b6000855111614cae5760405162461bcd60e51b81526004018080602001828103825260258152602001806164586025913960400191505060405180910390fd5b81518551614cc390600263ffffffff615c9416565b14614cff5760405162461bcd60e51b81526004018080602001828103825260298152602001806163f06029913960400191505060405180910390fd5b8051855114614d3f5760405162461bcd60e51b815260040180806020018281038252602a8152602001806162e3602a913960400191505060405180910390fd5b83614d8a576040805162461bcd60e51b8152602060048201526016602482015275044656c656761746f724d696e5374616b6520697320360541b604482015290519081900360640190fd5b82614dd5576040805162461bcd60e51b8152602060048201526016602482015275043616e6469646174654d696e5374616b6520697320360541b604482015290519081900360640190fd5b602180546001600160a01b0319166001600160a01b03881617905560005b8551811015614fac5760006001600160a01b0316868281518110614e1357fe5b60200260200101516001600160a01b03161415614e615760405162461bcd60e51b815260040180806020018281038252602281526020018061633e6022913960400191505060405180910390fd5b614e7f868281518110614e7057fe5b60200260200101516000614fbc565b614e9b868281518110614e8e57fe5b60200260200101516152a3565b828160020281518110614eaa57fe5b6020026020010151838260020260010181518110614ec457fe5b6020026020010151604051602001808381526020018281526020019250505060405160208183030381529060405260226000888481518110614f0257fe5b60200260200101516001600160a01b03166001600160a01b031681526020019081526020016000206000019080519060200190614f40929190616087565b50818181518110614f4d57fe5b602002602001015160226000888481518110614f6557fe5b6020908102919091018101516001600160a01b03168252810191909152604001600020600190810180546001600160801b03191660809390931c9290921790915501614df3565b505050600a919091556009555050565b614fc582612eb3565b61508057600080546001600160a01b0384168083526012602052604083208290556001820183559180527f290decd9548b62a8d60345a988386fc84ba6bc95484008f6362f93160ef3e5630180546001600160a01b031916909117905561502a615cbb565b6000541115615080576040805162461bcd60e51b815260206004820152601d60248201527f4d41585f43414e4449444154455320706f6f6c73206578636565646564000000604482015290519081900360640190fd5b61508982615918565b80156116f9576116f982615cc0565b6000811561512b576021546040805163a881c5fd60e01b81526001600160a01b0386811660048301529151919092169163a881c5fd916024808301926020929190829003018186803b1580156150ed57600080fd5b505afa158015615101573d6000803e3d6000fd5b505050506040513d602081101561511757600080fd5b505115615126575060006128c3565b6151b1565b60215460408051635491295760e11b81526001600160a01b0386811660048301529151919092169163a92252ae916024808301926020929190829003018186803b15801561517857600080fd5b505afa15801561518c573d6000803e3d6000fd5b505050506040513d60208110156151a257600080fd5b5051156151b1575060006128c3565b6151b9613cb5565b6151c5575060006128c3565b50600192915050565b6000806151da83615daf565b91509150816151ea575050611a20565b6000600482815481106151f957fe5b90600052602060002001549050600060206000866001600160a01b03166001600160a01b03168152602001908152602001600020549050806004848154811061523e57fe5b60009182526020909120015581811061526e576005546152669083830363ffffffff614b1516565b600555615287565b6005546152839082840363ffffffff61528e16565b6005555b5050505050565b60008282111561529d57600080fd5b50900390565b6001600160a01b03811660009081526014602052604090205460035480821015806152f85750826001600160a01b0316600383815481106152e057fe5b6000918252602090912001546001600160a01b031614155b15615358576001600160a01b03831660008181526014602052604081208390556003805460018101825591527fc2575a0e9e593c00f959f8c92f12db2869c3395a3b0502d05e2516446f71f85b0180546001600160a01b03191690911790555b6118df83615a04565b6001600160a01b038083166000908152600660209081526040808320600f83528184209486168452939091529020548154811080156153c85750826001600160a01b03168282815481106153b157fe5b6000918252602090912001546001600160a01b0316145b1561546f578154600090839060001981019081106153e257fe5b9060005260206000200160009054906101000a90046001600160a01b031690508083838154811061540f57fe5b600091825260208083209190910180546001600160a01b0319166001600160a01b039485161790558783168252600f815260408083208585168452909152808220859055918616815290812055825461546c846000198301616063565b50505b6001600160a01b038085166000908152600c6020908152604080832093871683529290522054156154a9576154a48484615e1c565b6154b3565b6154b38484615eda565b50505050565b6001600160a01b038083166000908152600660209081526040808320600f8352818420948616845293909152902054815480821015806155225750836001600160a01b031683838154811061550a57fe5b6000918252602090912001546001600160a01b031614155b15615571576001600160a01b038086166000908152600f602090815260408083209388168084529382528220849055855460018101875586835291200180546001600160a01b03191690911790555b6152878585615eda565b601a546001600160a01b03808416600090815260166020908152604080832093861683529290522054600190910190806155b7576000196155b9565b805b6001600160a01b038086166000818152600b6020908152604080832094891680845294825280832088845282528083209590955591815260178252838120928152919052205461562c576001600160a01b0380851660009081526017602090815260408083209387168352929052208290555b801561563957600061563b565b815b6001600160a01b0394851660009081526018602090815260408083209690971682529490945293909220929092555050565b816001600160a01b0316816001600160a01b0316141561579f57602154604080516253517560e01b81526001600160a01b038581166004830152915160009392909216916253517591602480820192602092909190829003018186803b1580156156d657600080fd5b505afa1580156156ea573d6000803e3d6000fd5b505050506040513d602081101561570057600080fd5b50516021546040805163facd743b60e01b81526001600160a01b038085166004830152915193945091169163facd743b91602480820192602092909190829003018186803b15801561575157600080fd5b505afa158015615765573d6000803e3d6000fd5b505050506040513d602081101561577b57600080fd5b5051156157905761578b836152a3565b615799565b61579983614237565b506116f9565b6157a98282615361565b6157b2826158db565b156116f9576116f982615918565b6040516001600160a01b0383169082156108fc029083906000818181858888f193505050506116f95780826040516157f7906160f5565b6001600160a01b039091168152604051908190036020019082f080158015615287573d6000803e3d6000fd5b6001600160a01b03811660009081526011602052604090205460015480821015806158785750826001600160a01b03166001838154811061586057fe5b6000918252602090912001546001600160a01b031614155b156118df576001600160a01b038316600081815260116020526040812083905560018054808201825591527fb10e2d527612073b26eecdfd717e6a320cf44b4afac2b0732d9fcbe2b7fa0cf60180546001600160a01b0319169091179055505050565b6001600160a01b03811660009081526020805260408120541580156128c35750506001600160a01b03166000908152600d60205260409020541590565b6001600160a01b0381166000908152601160205260409020546001548110801561596b5750816001600160a01b03166001828154811061595457fe5b6000918252602090912001546001600160a01b0316145b156116f9576001805460009190600019810190811061598657fe5b600091825260209091200154600180546001600160a01b0390921692508291849081106159af57fe5b600091825260208083209190910180546001600160a01b0319166001600160a01b03948516179055838316825260119052604080822085905591851681529081205560018054906154b3906000198301616063565b60045460025414615a1457611a20565b6001600160a01b03811660009081526013602052604090205460025481108015615a675750816001600160a01b031660028281548110615a5057fe5b6000918252602090912001546001600160a01b0316145b156116f95760048181548110615a7957fe5b906000526020600020015460055410615ab45760048181548110615a9957fe5b60009182526020909120015460058054919091039055615aba565b60006005555b6002805460001981019160009183908110615ad157fe5b600091825260209091200154600280546001600160a01b039092169250829185908110615afa57fe5b9060005260206000200160006101000a8154816001600160a01b0302191690836001600160a01b0316021790555060048281548110615b3557fe5b906000526020600020015460048481548110615b4d57fe5b60009182526020808320909101929092556001600160a01b038084168252601390925260408082208690559186168152908120556002805490615b94906000198301616063565b506004805490615287906000198301616063565b6001600160a01b03811660009081526014602052604090205460035481108015615bfb5750816001600160a01b031660038281548110615be457fe5b6000918252602090912001546001600160a01b0316145b156116f95760038054600091906000198101908110615c1657fe5b600091825260209091200154600380546001600160a01b039092169250829184908110615c3f57fe5b600091825260208083209190910180546001600160a01b0319166001600160a01b03948516179055838316825260149052604080822085905591851681529081205560038054906154b3906000198301616063565b600082615ca3575060006128c3565b82820282848281615cb057fe5b0414612f0557600080fd5b606490565b6001600160a01b0381166000908152601360205260409020546002548082101580615d155750826001600160a01b031660028381548110615cfd57fe5b6000918252602090912001546001600160a01b031614155b15615da6576001600160a01b03831660008181526013602052604081208390556002805460018181019092557f405787fa12a823e0f2b7631cc41b3ba8828b3321ca811111fa75cd3aa3bb5ace0180546001600160a01b03191690931790925560048054928301815581527f8a35acfbc15ff81a39ae7d344fd709f28e8600b4aa8c65c6b64bfe7fe36bd19b909101555b6118df83615ba8565b6001600160a01b03811660009081526013602052604081205460025481108015615e025750826001600160a01b031660028281548110615deb57fe5b6000918252602090912001546001600160a01b0316145b15615e105760019150615e17565b5060009050805b915091565b6001600160a01b0380831660009081526007602090815260408083206010835281842094861684529390915290205481548082101580615e855750836001600160a01b0316838381548110615e6d57fe5b6000918252602090912001546001600160a01b031614155b15615287576001600160a01b0380861660009081526010602090815260408083209388168084529382528220849055855460018101875586835291200180546001600160a01b03191690911790555050505050565b6001600160a01b03808316600090815260076020908152604080832060108352818420948616845293909152902054815481108015615f415750826001600160a01b0316828281548110615f2a57fe5b6000918252602090912001546001600160a01b0316145b156154b357815460009083906000198101908110615f5b57fe5b9060005260206000200160009054906101000a90046001600160a01b0316905080838381548110615f8857fe5b600091825260208083209190910180546001600160a01b0319166001600160a01b039485161790558783168252601081526040808320858516845290915280822085905591861681529081205582546145cc846000198301616063565b828054600181600116156101000203166002900490600052602060002090601f016020900481019282601f106160265782800160ff19823516178555616053565b82800160010185558215616053579182015b82811115616053578235825591602001919060010190616038565b5061605f929150616101565b5090565b8154818355818111156118df576000838152602090206118df918101908301616101565b828054600181600116156101000203166002900490600052602060002090601f016020900481019282601f106160c857805160ff1916838001178555616053565b82800160010185558215616053579182015b828111156160535782518255916020019190600101906160da565b60328061611c83390190565b61174891905b8082111561605f576000815560010161610756fe60806040526040516032380380603283398181016040526020811015602357600080fd5b50516001600160a01b038116fffe5374616b653a2064656c656761746f725374616b65206973206c657373207468616e2064656c656761746f724d696e5374616b65436c61696d3a206e656564207374726963746c7920696e6372656173696e67206f72646572556e61626c6520746f206765742072657761726420616d6f756e74206966206e6f2066697273742065706f63682e496e697469616c697a6174696f6e206f6e6c79206f6e2067656e6573697320626c6f636b206f722062792061646d696e706f6f6c5374616b696e6741646472657373206d757374206e6f74206265203078306e65775374616b6520416d6f756e74206d7573742062652067726561746572207468616e20746865206d696e207374616b652e57697468647261773a206d61785769746864726177416c6c6f776564206578636565646564696e7465726e616c204572726f723a205374616b696e672045706f63687320726571756972656420746f206265206f7264657265642e576974686472617720706f6f6c207374616b696e672061646472657373206d757374206e6f74206265206e756c6c4d7573742070726f7669646520636f7272656374206e756d626572206f662049502061647265737365735374616b653a2063616e6469646174655374616b65206c657373207468616e2063616e6469646174654d696e5374616b65496e697469616c5374616b696e674164647265737365732063616e27742062652030546865207472616e736974696f6e2074696d656672616d65206d757374206265206c6f6e676572207468616e20306f72646572656420776974686472617720616d6f756e74206d757374206e6f742062652030466978656445706f63684475726174696f6e206d757374206265206c6f6e676572207468616e207769746864726177446973616c6c6f77506572696f644d7573742070726f7669646520636f7272656374206e756d626572206f66207075626c69634b65797363616e6e6f7420636c61696d206f72646572656420776974686472617720696e207468652073616d652065706f636820697420776173206f7264657265642e4d7573742070726f7669646520696e697469616c206d696e696e67206164647265737365735374616b653a2063616e27742064656c656761746520696e20656d70747920706f6f6c436f6e7472616374206e6f7420696e697469616c697a656400000000000000004d6f76655374616b653a2073726320616e642064737420706f6f6c206973207468652073616d65506f6f6c20646f6573206e6f742065786973742e206d696e696e674164647265737320666f722074686174207374616b696e67206164647265737320697320306e65775374616b6520616d6f756e74206d757374206265206772656174657220657175616c207468616e20746865206d696e207374616b652e546865207472616e736974696f6e2074696d656672616d65206d7573742062652073686f72746572207468656e207468652065706f6368206475726174696f6e43616e27742072656d6f766520706f6f6c20647572696e6720317374207374616b696e672065706f6368436c61696d4f72646572656457697468647261773a205769746864726177206e6f7420616c6c6f7765646f6e6c792061646d696e20697320616c6c6f77656420746f2063616c6c20746869732066756e6374696f6e696e7465726e616c204572726f723a2065706f6368206d757374206e6f74206265206c6573736572207468616e2063757272656e742065706f63682e4f7264657257697468647261773a206d617857697468647261774f72646572416c6c6f776564206578636565646564a265627a7a723158202b58e8f94568d2cc405a131228f0e8b73218c94932d1036f9f514626aaa4103d64736f6c63430005110032",
  "source": "pragma solidity ^0.5.16;\n\nimport './StakingHbbftBaseMock.sol';\nimport '../../contracts/base/StakingHbbftCoins.sol';\n\n\ncontract StakingHbbftCoinsMock is StakingHbbftCoins, StakingHbbftBaseMock {\n\n}\n",
  "sourcePath": "/home/sn/dmd/dmd-meta/hbbft-posdao-contracts/contracts/mockContracts/StakingHbbftCoinsMock.sol",
  "compiler": {
    "name": "solc",
    "version": "0.5.17+commit.d19bba13.Emscripten.clang"
  },
  "schemaVersion": "3.3.1",
  "updatedAt": "2021-08-10T15:39:34.296Z",
  "devdoc": {
    "methods": {
      "addPool(address,bytes,bytes16)": {
        "details": "Adds a new candidate's pool to the list of active pools (see the `getPools` getter) and moves the specified amount of staking coins from the candidate's staking address to the candidate's pool. A participant calls this function using their staking address when they want to create a pool. This is a wrapper for the `stake` function.",
        "params": {
          "_miningAddress": "The mining address of the candidate. The mining address is bound to the staking address (msg.sender). This address cannot be equal to `msg.sender`."
        }
      },
      "areStakeAndWithdrawAllowed()": {
        "details": "Determines whether staking/withdrawal operations are allowed at the moment. Used by all staking/withdrawal functions."
      },
      "claimOrderedWithdraw(address)": {
        "details": "Withdraws the staking coins from the specified pool ordered during the previous staking epochs with the `orderWithdraw` function. The ordered amount can be retrieved by the `orderedWithdrawAmount` getter.",
        "params": {
          "_poolStakingAddress": "The staking address of the pool from which the ordered coins are withdrawn."
        }
      },
      "claimReward(uint256[],address)": {
        "details": "Withdraws a reward from the specified pool for the specified staking epochs to the staker address (msg.sender).",
        "params": {
          "_poolStakingAddress": "The staking address of the pool from which the reward needs to be withdrawn.",
          "_stakingEpochs": "The list of staking epochs in ascending order. If the list is empty, it is taken with `BlockRewardHbbft.epochsPoolGotRewardFor` getter."
        }
      },
      "getPoolInternetAddress(address)": {
        "details": "Returns the registered IPv4 Address for the node.",
        "params": {
          "_poolAddress": "The Pool Address to query the IPv4Address for."
        },
        "return": "IPv4 Address for the given pool address. "
      },
      "getPoolPublicKey(address)": {
        "details": "Return the Public Key used by a Node to send targeted HBBFT Consensus Messages.",
        "params": {
          "_poolAddress": "The Pool Address to query the public key for."
        },
        "return": "the public key for the given pool address.  Note that the public key does not convert to the ethereum address of the pool address. The pool address is used for stacking, and not for signing HBBFT messages."
      },
      "getPools()": {
        "details": "Returns an array of the current active pools (the staking addresses of candidates and validators). The size of the array cannot exceed MAX_CANDIDATES. A pool can be added to this array with the `_addPoolActive` internal function which is called by the `stake` or `orderWithdraw` function. A pool is considered active if its address has at least the minimum stake and this stake is not ordered to be withdrawn."
      },
      "getPoolsInactive()": {
        "details": "Returns an array of the current inactive pools (the staking addresses of former candidates). A pool can be added to this array with the `_addPoolInactive` internal function which is called by `_removePool`. A pool is considered inactive if it is banned for some reason, if its address has zero stake, or if its entire stake is ordered to be withdrawn."
      },
      "getPoolsLikelihood()": {
        "details": "Returns the array of stake amounts for each corresponding address in the `poolsToBeElected` array (see the `getPoolsToBeElected` getter) and a sum of these amounts. Used by the `ValidatorSetHbbft.newValidatorSet` function when randomly selecting new validators at the last block of a staking epoch. An array value is updated every time any staked amount is changed in this pool (see the `_setLikelihood` internal function).",
        "return": "`uint256[] likelihoods` - The array of the coefficients. The array length is always equal to the length of the `poolsToBeElected` array. `uint256 sum` - The total sum of the amounts."
      },
      "getPoolsToBeElected()": {
        "details": "Returns the list of pools (their staking addresses) which will participate in a new validator set selection process in the `ValidatorSetHbbft.newValidatorSet` function. This is an array of pools which will be considered as candidates when forming a new validator set (at the last block of a staking epoch). This array is kept updated by the `_addPoolToBeElected` and `_deletePoolToBeElected` internal functions."
      },
      "getPoolsToBeRemoved()": {
        "details": "Returns the list of pools (their staking addresses) which will be removed by the `ValidatorSetHbbft.newValidatorSet` function from the active `pools` array (at the last block of a staking epoch). This array is kept updated by the `_addPoolToBeRemoved` and `_deletePoolToBeRemoved` internal functions. A pool is added to this array when the pool's address withdraws (or orders) all of its own staking coins from the pool, inactivating the pool."
      },
      "getRewardAmount(uint256[],address,address)": {
        "details": "Returns reward amount in native coins for the specified pool, the specified staking epochs, and the specified staker address (delegator or validator).",
        "params": {
          "_poolStakingAddress": "The staking address of the pool for which the amounts need to be returned.",
          "_staker": "The staker address (validator's staking address or delegator's address).",
          "_stakingEpochs": "The list of staking epochs in ascending order. If the list is empty, it is taken with `BlockRewardHbbft.epochsPoolGotRewardFor` getter."
        }
      },
      "incrementStakingEpoch()": {
        "details": "Increments the serial number of the current staking epoch. Called by the `ValidatorSetHbbft.newValidatorSet` at the last block of the finished staking epoch."
      },
      "initialize(address,address[],uint256,uint256,uint256,uint256,uint256,bytes32[],bytes16[])": {
        "details": "Initializes the network parameters. Can only be called by the constructor of the `InitializerHbbft` contract or owner.",
        "params": {
          "_candidateMinStake": "The minimum allowed amount of candidate/validator stake in Wei.",
          "_delegatorMinStake": "The minimum allowed amount of delegator stake in Wei.",
          "_initialStakingAddresses": "The array of initial validators' staking addresses.",
          "_stakingFixedEpochDuration": "The fixed duration of each epoch before keyGen starts.",
          "_stakingTransitionTimeframeLength": "Length of the timeframe in seconds for the transition to the new validator set.",
          "_stakingWithdrawDisallowPeriod": "The duration period at the end of a staking epoch during which participants cannot stake/withdraw/order/claim their staking coins",
          "_validatorSetContract": "The address of the `ValidatorSetHbbft` contract."
        }
      },
      "isInitialized()": {
        "details": "Returns a boolean flag indicating if the `initialize` function has been called."
      },
      "isPoolActive(address)": {
        "details": "Returns a flag indicating whether a specified address is in the `pools` array. See the `getPools` getter.",
        "params": {
          "_stakingAddress": "The staking address of the pool."
        }
      },
      "maxWithdrawAllowed(address,address)": {
        "details": "Returns the maximum amount which can be withdrawn from the specified pool by the specified staker at the moment. Used by the `withdraw` and `moveStake` functions.",
        "params": {
          "_poolStakingAddress": "The pool staking address from which the withdrawal will be made.",
          "_staker": "The staker address that is going to withdraw."
        }
      },
      "maxWithdrawOrderAllowed(address,address)": {
        "details": "Returns the maximum amount which can be ordered to be withdrawn from the specified pool by the specified staker at the moment. Used by the `orderWithdraw` function.",
        "params": {
          "_poolStakingAddress": "The pool staking address from which the withdrawal will be ordered.",
          "_staker": "The staker address that is going to order the withdrawal."
        }
      },
      "moveStake(address,address,uint256)": {
        "details": "Moves staking coins from one pool to another. A staker calls this function when they want to move their coins from one pool to another without withdrawing their coins.",
        "params": {
          "_amount": "The amount of staking coins to be moved. The amount cannot exceed the value returned by the `maxWithdrawAllowed` getter.",
          "_fromPoolStakingAddress": "The staking address of the source pool.",
          "_toPoolStakingAddress": "The staking address of the target pool."
        }
      },
      "notifyAvailability(address)": {
        "details": "Notifies hbbft staking contract that a validator asociated with the given `_stakingAddress` became available again and can be put on to the list  of available nodes again."
      },
      "notifyKeyGenFailed()": {
        "details": "Notifies hbbft staking contract that the key generation has failed, and a new round  of keygeneration starts."
      },
      "notifyNetworkOfftimeDetected(uint256)": {
        "details": "Notifies hbbft staking contract about a detected network offline time. if there is no handling for this, validators got chosen outside the transition timewindow and get banned immediatly, since they never got their chance to write their keys. more about: https://github.com/DMDcoin/hbbft-posdao-contracts/issues/96"
      },
      "orderWithdraw(address,int256)": {
        "details": "Orders coins withdrawal from the staking address of the specified pool to the staker's address. The requested coins can be claimed after the current staking epoch is complete using the `claimOrderedWithdraw` function.",
        "params": {
          "_amount": "The amount to be withdrawn. A positive value means the staker wants to either set or increase their withdrawal amount. A negative value means the staker wants to decrease a withdrawal amount that was previously set. The amount cannot exceed the value returned by the `maxWithdrawOrderAllowed` getter.",
          "_poolStakingAddress": "The staking address of the pool from which the amount will be withdrawn."
        }
      },
      "poolDelegators(address)": {
        "details": "Returns an array of the current active delegators of the specified pool. A delegator is considered active if they have staked into the specified pool and their stake is not ordered to be withdrawn.",
        "params": {
          "_poolStakingAddress": "The pool staking address."
        }
      },
      "poolDelegatorsInactive(address)": {
        "details": "Returns an array of the current inactive delegators of the specified pool. A delegator is considered inactive if their entire stake is ordered to be withdrawn but not yet claimed.",
        "params": {
          "_poolStakingAddress": "The pool staking address."
        }
      },
      "removeMyPool()": {
        "details": "Removes the candidate's or validator's pool from the `pools` array (a list of active pools which can be retrieved by the `getPools` getter). When a candidate or validator wants to remove their pool, they should call this function from their staking address."
      },
      "removePool(address)": {
        "details": "Removes a specified pool from the `pools` array (a list of active pools which can be retrieved by the `getPools` getter). Called by the `ValidatorSetHbbft._removeMaliciousValidator` internal function,  and the `ValidatorSetHbbft.handleFailedKeyGeneration` function when a pool must be removed by the algorithm.",
        "params": {
          "_stakingAddress": "The staking address of the pool to be removed."
        }
      },
      "removePools()": {
        "details": "Removes pools which are in the `_poolsToBeRemoved` internal array from the `pools` array. Called by the `ValidatorSetHbbft.newValidatorSet` function when a pool must be removed by the algorithm."
      },
      "setCandidateMinStake(uint256)": {
        "details": "Sets (updates) the limit of the minimum candidate stake (CANDIDATE_MIN_STAKE). Can only be called by the `owner`.",
        "params": {
          "_minStake": "The value of a new limit in Wei."
        }
      },
      "setDelegatorMinStake(uint256)": {
        "details": "Sets (updates) the limit of the minimum delegator stake (DELEGATOR_MIN_STAKE). Can only be called by the `owner`.",
        "params": {
          "_minStake": "The value of a new limit in Wei."
        }
      },
      "setPoolInfo(bytes,bytes16)": {
        "details": "set's the pool info for a specific ethereum address.",
        "params": {
          "_ip": "(optional) IPV4 address of a running Node Software or Proxy. Stores the supplied data for a staking (pool) address. This function is external available without security checks, since no array operations are used in the implementation, this allows the flexibility to set the pool information before adding the stake to the pool.",
          "_publicKey": "public key of the (future) signing address."
        }
      },
      "setStakingEpochStartTime(uint256)": {
        "details": "Sets the timetamp of the current epoch's last block as the start time of the upcoming staking epoch. Called by the `ValidatorSetHbbft.newValidatorSet` function at the last block of a staking epoch.",
        "params": {
          "_timestamp": "The starting time of the very first block in the upcoming staking epoch."
        }
      },
      "stake(address)": {
        "details": "Moves the specified amount of staking coins from the staker's address to the staking address of the specified pool. Actually, the amount is stored in a balance of this StakingHbbft contract. A staker calls this function when they want to make a stake into a pool.",
        "params": {
          "_toPoolStakingAddress": "The staking address of the pool where the coins should be staked."
        }
      },
      "stakeAmountByCurrentEpoch(address,address)": {
        "details": "Returns the amount of staking coins staked into the specified pool by the specified staker during the current staking epoch (see the `stakingEpoch` getter). Used by the `stake`, `withdraw`, and `orderWithdraw` functions.",
        "params": {
          "_poolStakingAddress": "The pool staking address.",
          "_staker": "The staker's address."
        }
      },
      "stakingFixedEpochEndTime()": {
        "details": "Returns an indicative time of the last block of the current staking epoch before key generation starts."
      },
      "startTimeOfNextPhaseTransition()": {
        "details": "indicates the time when the new validatorset for the next epoch gets chosen. this is the start of a timeframe before the end of the epoch, that is long enough for the validators to create a new shared key."
      },
      "withdraw(address,uint256)": {
        "details": "Moves the specified amount of staking coins from the staking address of the specified pool to the staker's address. A staker calls this function when they want to withdraw their coins.",
        "params": {
          "_amount": "The amount of coins to be withdrawn. The amount cannot exceed the value returned by the `maxWithdrawAllowed` getter.",
          "_fromPoolStakingAddress": "The staking address of the pool from which the coins should be withdrawn."
        }
      }
    }
  },
  "userdoc": {
    "methods": {}
  }
}