{
  "_format": "hh-sol-artifact-1",
  "contractName": "StakingHbbftBase",
  "sourceName": "contracts/base/StakingHbbftBase.sol",
  "abi": [
    {
      "anonymous": false,
      "inputs": [
        {
          "indexed": true,
          "internalType": "address",
          "name": "fromPoolStakingAddress",
          "type": "address"
        },
        {
          "indexed": true,
          "internalType": "address",
          "name": "staker",
          "type": "address"
        },
        {
          "indexed": true,
          "internalType": "uint256",
          "name": "stakingEpoch",
          "type": "uint256"
        },
        {
          "indexed": false,
          "internalType": "uint256",
          "name": "amount",
          "type": "uint256"
        }
      ],
      "name": "ClaimedOrderedWithdrawal",
      "type": "event"
    },
    {
      "anonymous": false,
      "inputs": [
        {
          "indexed": false,
          "internalType": "address",
          "name": "fromPoolStakingAddress",
          "type": "address"
        },
        {
          "indexed": true,
          "internalType": "address",
          "name": "toPoolStakingAddress",
          "type": "address"
        },
        {
          "indexed": true,
          "internalType": "address",
          "name": "staker",
          "type": "address"
        },
        {
          "indexed": true,
          "internalType": "uint256",
          "name": "stakingEpoch",
          "type": "uint256"
        },
        {
          "indexed": false,
          "internalType": "uint256",
          "name": "amount",
          "type": "uint256"
        }
      ],
      "name": "MovedStake",
      "type": "event"
    },
    {
      "anonymous": false,
      "inputs": [
        {
          "indexed": true,
          "internalType": "address",
          "name": "fromPoolStakingAddress",
          "type": "address"
        },
        {
          "indexed": true,
          "internalType": "address",
          "name": "staker",
          "type": "address"
        },
        {
          "indexed": true,
          "internalType": "uint256",
          "name": "stakingEpoch",
          "type": "uint256"
        },
        {
          "indexed": false,
          "internalType": "int256",
          "name": "amount",
          "type": "int256"
        }
      ],
      "name": "OrderedWithdrawal",
      "type": "event"
    },
    {
      "anonymous": false,
      "inputs": [
        {
          "indexed": true,
          "internalType": "address",
          "name": "toPoolStakingAddress",
          "type": "address"
        },
        {
          "indexed": true,
          "internalType": "address",
          "name": "staker",
          "type": "address"
        },
        {
          "indexed": true,
          "internalType": "uint256",
          "name": "stakingEpoch",
          "type": "uint256"
        },
        {
          "indexed": false,
          "internalType": "uint256",
          "name": "amount",
          "type": "uint256"
        }
      ],
      "name": "PlacedStake",
      "type": "event"
    },
    {
      "anonymous": false,
      "inputs": [
        {
          "indexed": true,
          "internalType": "address",
          "name": "fromPoolStakingAddress",
          "type": "address"
        },
        {
          "indexed": true,
          "internalType": "address",
          "name": "staker",
          "type": "address"
        },
        {
          "indexed": true,
          "internalType": "uint256",
          "name": "stakingEpoch",
          "type": "uint256"
        },
        {
          "indexed": false,
          "internalType": "uint256",
          "name": "amount",
          "type": "uint256"
        }
      ],
      "name": "WithdrewStake",
      "type": "event"
    },
    {
      "inputs": [],
      "name": "MAX_CANDIDATES",
      "outputs": [
        {
          "internalType": "uint256",
          "name": "",
          "type": "uint256"
        }
      ],
      "stateMutability": "view",
      "type": "function"
    },
    {
      "inputs": [
        {
          "internalType": "address",
          "name": "_miningAddress",
          "type": "address"
        },
        {
          "internalType": "bytes",
          "name": "_publicKey",
          "type": "bytes"
        },
        {
          "internalType": "bytes16",
          "name": "_ip",
          "type": "bytes16"
        }
      ],
      "name": "addPool",
      "outputs": [],
      "stateMutability": "payable",
      "type": "function"
    },
    {
      "inputs": [],
      "name": "areStakeAndWithdrawAllowed",
      "outputs": [
        {
          "internalType": "bool",
          "name": "",
          "type": "bool"
        }
      ],
      "stateMutability": "view",
      "type": "function"
    },
    {
      "inputs": [],
      "name": "candidateMinStake",
      "outputs": [
        {
          "internalType": "uint256",
          "name": "",
          "type": "uint256"
        }
      ],
      "stateMutability": "view",
      "type": "function"
    },
    {
      "inputs": [
        {
          "internalType": "address",
          "name": "_poolStakingAddress",
          "type": "address"
        }
      ],
      "name": "claimOrderedWithdraw",
      "outputs": [],
      "stateMutability": "nonpayable",
      "type": "function"
    },
    {
      "inputs": [],
      "name": "currentKeyGenExtraTimeWindow",
      "outputs": [
        {
          "internalType": "uint256",
          "name": "",
          "type": "uint256"
        }
      ],
      "stateMutability": "view",
      "type": "function"
    },
    {
      "inputs": [],
      "name": "delegatorMinStake",
      "outputs": [
        {
          "internalType": "uint256",
          "name": "",
          "type": "uint256"
        }
      ],
      "stateMutability": "view",
      "type": "function"
    },
    {
      "inputs": [
        {
          "internalType": "address",
          "name": "",
          "type": "address"
        },
        {
          "internalType": "address",
          "name": "",
          "type": "address"
        },
        {
          "internalType": "uint256",
          "name": "",
          "type": "uint256"
        }
      ],
      "name": "delegatorStakeSnapshot",
      "outputs": [
        {
          "internalType": "uint256",
          "name": "",
          "type": "uint256"
        }
      ],
      "stateMutability": "view",
      "type": "function"
    },
    {
      "inputs": [
        {
          "internalType": "address",
          "name": "_poolAddress",
          "type": "address"
        }
      ],
      "name": "getPoolInternetAddress",
      "outputs": [
        {
          "internalType": "bytes16",
          "name": "",
          "type": "bytes16"
        },
        {
          "internalType": "bytes2",
          "name": "",
          "type": "bytes2"
        }
      ],
      "stateMutability": "view",
      "type": "function"
    },
    {
      "inputs": [
        {
          "internalType": "address",
          "name": "_poolAddress",
          "type": "address"
        }
      ],
      "name": "getPoolPublicKey",
      "outputs": [
        {
          "internalType": "bytes",
          "name": "",
          "type": "bytes"
        }
      ],
      "stateMutability": "view",
      "type": "function"
    },
    {
      "inputs": [],
      "name": "getPools",
      "outputs": [
        {
          "internalType": "address[]",
          "name": "",
          "type": "address[]"
        }
      ],
      "stateMutability": "view",
      "type": "function"
    },
    {
      "inputs": [],
      "name": "getPoolsInactive",
      "outputs": [
        {
          "internalType": "address[]",
          "name": "",
          "type": "address[]"
        }
      ],
      "stateMutability": "view",
      "type": "function"
    },
    {
      "inputs": [],
      "name": "getPoolsLikelihood",
      "outputs": [
        {
          "internalType": "uint256[]",
          "name": "likelihoods",
          "type": "uint256[]"
        },
        {
          "internalType": "uint256",
          "name": "sum",
          "type": "uint256"
        }
      ],
      "stateMutability": "view",
      "type": "function"
    },
    {
      "inputs": [],
      "name": "getPoolsToBeElected",
      "outputs": [
        {
          "internalType": "address[]",
          "name": "",
          "type": "address[]"
        }
      ],
      "stateMutability": "view",
      "type": "function"
    },
    {
      "inputs": [],
      "name": "getPoolsToBeRemoved",
      "outputs": [
        {
          "internalType": "address[]",
          "name": "",
          "type": "address[]"
        }
      ],
      "stateMutability": "view",
      "type": "function"
    },
    {
      "inputs": [],
      "name": "incrementStakingEpoch",
      "outputs": [],
      "stateMutability": "nonpayable",
      "type": "function"
    },
    {
      "inputs": [
        {
          "components": [
            {
              "internalType": "address",
              "name": "_validatorSetContract",
              "type": "address"
            },
            {
              "internalType": "address[]",
              "name": "_initialStakingAddresses",
              "type": "address[]"
            },
            {
              "internalType": "uint256",
              "name": "_delegatorMinStake",
              "type": "uint256"
            },
            {
              "internalType": "uint256",
              "name": "_candidateMinStake",
              "type": "uint256"
            },
            {
              "internalType": "uint256",
              "name": "_maxStake",
              "type": "uint256"
            },
            {
              "internalType": "uint256",
              "name": "_stakingFixedEpochDuration",
              "type": "uint256"
            },
            {
              "internalType": "uint256",
              "name": "_stakingTransitionTimeframeLength",
              "type": "uint256"
            },
            {
              "internalType": "uint256",
              "name": "_stakingWithdrawDisallowPeriod",
              "type": "uint256"
            }
          ],
          "internalType": "struct IStakingHbbft.StakingParams",
          "name": "stakingParams",
          "type": "tuple"
        },
        {
          "internalType": "bytes32[]",
          "name": "_publicKeys",
          "type": "bytes32[]"
        },
        {
          "internalType": "bytes16[]",
          "name": "_internetAddresses",
          "type": "bytes16[]"
        }
      ],
      "name": "initialize",
      "outputs": [],
      "stateMutability": "nonpayable",
      "type": "function"
    },
    {
      "inputs": [],
      "name": "isInitialized",
      "outputs": [
        {
          "internalType": "bool",
          "name": "",
          "type": "bool"
        }
      ],
      "stateMutability": "view",
      "type": "function"
    },
    {
      "inputs": [
        {
          "internalType": "address",
          "name": "_stakingAddress",
          "type": "address"
        }
      ],
      "name": "isPoolActive",
      "outputs": [
        {
          "internalType": "bool",
          "name": "",
          "type": "bool"
        }
      ],
      "stateMutability": "view",
      "type": "function"
    },
    {
      "inputs": [],
      "name": "maxStakeAmount",
      "outputs": [
        {
          "internalType": "uint256",
          "name": "",
          "type": "uint256"
        }
      ],
      "stateMutability": "view",
      "type": "function"
    },
    {
      "inputs": [
        {
          "internalType": "address",
          "name": "_poolStakingAddress",
          "type": "address"
        },
        {
          "internalType": "address",
          "name": "_staker",
          "type": "address"
        }
      ],
      "name": "maxWithdrawAllowed",
      "outputs": [
        {
          "internalType": "uint256",
          "name": "",
          "type": "uint256"
        }
      ],
      "stateMutability": "view",
      "type": "function"
    },
    {
      "inputs": [
        {
          "internalType": "address",
          "name": "_poolStakingAddress",
          "type": "address"
        },
        {
          "internalType": "address",
          "name": "_staker",
          "type": "address"
        }
      ],
      "name": "maxWithdrawOrderAllowed",
      "outputs": [
        {
          "internalType": "uint256",
          "name": "",
          "type": "uint256"
        }
      ],
      "stateMutability": "view",
      "type": "function"
    },
    {
      "inputs": [
        {
          "internalType": "address",
          "name": "_fromPoolStakingAddress",
          "type": "address"
        },
        {
          "internalType": "address",
          "name": "_toPoolStakingAddress",
          "type": "address"
        },
        {
          "internalType": "uint256",
          "name": "_amount",
          "type": "uint256"
        }
      ],
      "name": "moveStake",
      "outputs": [],
      "stateMutability": "nonpayable",
      "type": "function"
    },
    {
      "inputs": [
        {
          "internalType": "address",
          "name": "_stakingAddress",
          "type": "address"
        }
      ],
      "name": "notifyAvailability",
      "outputs": [],
      "stateMutability": "nonpayable",
      "type": "function"
    },
    {
      "inputs": [],
      "name": "notifyKeyGenFailed",
      "outputs": [],
      "stateMutability": "nonpayable",
      "type": "function"
    },
    {
      "inputs": [
        {
          "internalType": "uint256",
          "name": "detectedOfflineTime",
          "type": "uint256"
        }
      ],
      "name": "notifyNetworkOfftimeDetected",
      "outputs": [],
      "stateMutability": "nonpayable",
      "type": "function"
    },
    {
      "inputs": [
        {
          "internalType": "address",
          "name": "_poolStakingAddress",
          "type": "address"
        },
        {
          "internalType": "int256",
          "name": "_amount",
          "type": "int256"
        }
      ],
      "name": "orderWithdraw",
      "outputs": [],
      "stateMutability": "nonpayable",
      "type": "function"
    },
    {
      "inputs": [
        {
          "internalType": "address",
          "name": "",
          "type": "address"
        },
        {
          "internalType": "address",
          "name": "",
          "type": "address"
        }
      ],
      "name": "orderWithdrawEpoch",
      "outputs": [
        {
          "internalType": "uint256",
          "name": "",
          "type": "uint256"
        }
      ],
      "stateMutability": "view",
      "type": "function"
    },
    {
      "inputs": [
        {
          "internalType": "address",
          "name": "",
          "type": "address"
        },
        {
          "internalType": "address",
          "name": "",
          "type": "address"
        }
      ],
      "name": "orderedWithdrawAmount",
      "outputs": [
        {
          "internalType": "uint256",
          "name": "",
          "type": "uint256"
        }
      ],
      "stateMutability": "view",
      "type": "function"
    },
    {
      "inputs": [
        {
          "internalType": "address",
          "name": "",
          "type": "address"
        }
      ],
      "name": "orderedWithdrawAmountTotal",
      "outputs": [
        {
          "internalType": "uint256",
          "name": "",
          "type": "uint256"
        }
      ],
      "stateMutability": "view",
      "type": "function"
    },
    {
      "inputs": [
        {
          "internalType": "address",
          "name": "",
          "type": "address"
        },
        {
          "internalType": "address",
          "name": "",
          "type": "address"
        }
      ],
      "name": "poolDelegatorInactiveIndex",
      "outputs": [
        {
          "internalType": "uint256",
          "name": "",
          "type": "uint256"
        }
      ],
      "stateMutability": "view",
      "type": "function"
    },
    {
      "inputs": [
        {
          "internalType": "address",
          "name": "",
          "type": "address"
        },
        {
          "internalType": "address",
          "name": "",
          "type": "address"
        }
      ],
      "name": "poolDelegatorIndex",
      "outputs": [
        {
          "internalType": "uint256",
          "name": "",
          "type": "uint256"
        }
      ],
      "stateMutability": "view",
      "type": "function"
    },
    {
      "inputs": [
        {
          "internalType": "address",
          "name": "_poolStakingAddress",
          "type": "address"
        }
      ],
      "name": "poolDelegators",
      "outputs": [
        {
          "internalType": "address[]",
          "name": "",
          "type": "address[]"
        }
      ],
      "stateMutability": "view",
      "type": "function"
    },
    {
      "inputs": [
        {
          "internalType": "address",
          "name": "_poolStakingAddress",
          "type": "address"
        }
      ],
      "name": "poolDelegatorsInactive",
      "outputs": [
        {
          "internalType": "address[]",
          "name": "",
          "type": "address[]"
        }
      ],
      "stateMutability": "view",
      "type": "function"
    },
    {
      "inputs": [
        {
          "internalType": "address",
          "name": "",
          "type": "address"
        }
      ],
      "name": "poolInactiveIndex",
      "outputs": [
        {
          "internalType": "uint256",
          "name": "",
          "type": "uint256"
        }
      ],
      "stateMutability": "view",
      "type": "function"
    },
    {
      "inputs": [
        {
          "internalType": "address",
          "name": "",
          "type": "address"
        }
      ],
      "name": "poolIndex",
      "outputs": [
        {
          "internalType": "uint256",
          "name": "",
          "type": "uint256"
        }
      ],
      "stateMutability": "view",
      "type": "function"
    },
    {
      "inputs": [
        {
          "internalType": "address",
          "name": "",
          "type": "address"
        }
      ],
      "name": "poolInfo",
      "outputs": [
        {
          "internalType": "bytes",
          "name": "publicKey",
          "type": "bytes"
        },
        {
          "internalType": "bytes16",
          "name": "internetAddress",
          "type": "bytes16"
        },
        {
          "internalType": "bytes2",
          "name": "port",
          "type": "bytes2"
        }
      ],
      "stateMutability": "view",
      "type": "function"
    },
    {
      "inputs": [
        {
          "internalType": "address",
          "name": "",
          "type": "address"
        }
      ],
      "name": "poolToBeElectedIndex",
      "outputs": [
        {
          "internalType": "uint256",
          "name": "",
          "type": "uint256"
        }
      ],
      "stateMutability": "view",
      "type": "function"
    },
    {
      "inputs": [
        {
          "internalType": "address",
          "name": "",
          "type": "address"
        }
      ],
      "name": "poolToBeRemovedIndex",
      "outputs": [
        {
          "internalType": "uint256",
          "name": "",
          "type": "uint256"
        }
      ],
      "stateMutability": "view",
      "type": "function"
    },
    {
      "inputs": [],
      "name": "removeMyPool",
      "outputs": [],
      "stateMutability": "nonpayable",
      "type": "function"
    },
    {
      "inputs": [
        {
          "internalType": "address",
          "name": "_stakingAddress",
          "type": "address"
        }
      ],
      "name": "removePool",
      "outputs": [],
      "stateMutability": "nonpayable",
      "type": "function"
    },
    {
      "inputs": [],
      "name": "removePools",
      "outputs": [],
      "stateMutability": "nonpayable",
      "type": "function"
    },
    {
      "inputs": [
        {
          "internalType": "address",
          "name": "",
          "type": "address"
        },
        {
          "internalType": "address",
          "name": "",
          "type": "address"
        },
        {
          "internalType": "uint256",
          "name": "",
          "type": "uint256"
        }
      ],
      "name": "rewardWasTaken",
      "outputs": [
        {
          "internalType": "bool",
          "name": "",
          "type": "bool"
        }
      ],
      "stateMutability": "view",
      "type": "function"
    },
    {
      "inputs": [
        {
          "internalType": "uint256",
          "name": "_minStake",
          "type": "uint256"
        }
      ],
      "name": "setCandidateMinStake",
      "outputs": [],
      "stateMutability": "nonpayable",
      "type": "function"
    },
    {
      "inputs": [
        {
          "internalType": "uint256",
          "name": "_minStake",
          "type": "uint256"
        }
      ],
      "name": "setDelegatorMinStake",
      "outputs": [],
      "stateMutability": "nonpayable",
      "type": "function"
    },
    {
      "inputs": [
        {
          "internalType": "bytes",
          "name": "_publicKey",
          "type": "bytes"
        },
        {
          "internalType": "bytes16",
          "name": "_ip",
          "type": "bytes16"
        },
        {
          "internalType": "bytes2",
          "name": "_port",
          "type": "bytes2"
        }
      ],
      "name": "setPoolInfo",
      "outputs": [],
      "stateMutability": "nonpayable",
      "type": "function"
    },
    {
      "inputs": [
        {
          "internalType": "uint256",
          "name": "_timestamp",
          "type": "uint256"
        }
      ],
      "name": "setStakingEpochStartTime",
      "outputs": [],
      "stateMutability": "nonpayable",
      "type": "function"
    },
    {
      "inputs": [
        {
          "internalType": "address",
          "name": "_validatorAddress",
          "type": "address"
        },
        {
          "internalType": "bytes16",
          "name": "_ip",
          "type": "bytes16"
        },
        {
          "internalType": "bytes2",
          "name": "_port",
          "type": "bytes2"
        }
      ],
      "name": "setValidatorInternetAddress",
      "outputs": [],
      "stateMutability": "nonpayable",
      "type": "function"
    },
    {
      "inputs": [
        {
          "internalType": "address",
          "name": "_toPoolStakingAddress",
          "type": "address"
        }
      ],
      "name": "stake",
      "outputs": [],
      "stateMutability": "payable",
      "type": "function"
    },
    {
      "inputs": [
        {
          "internalType": "address",
          "name": "",
          "type": "address"
        },
        {
          "internalType": "address",
          "name": "",
          "type": "address"
        }
      ],
      "name": "stakeAmount",
      "outputs": [
        {
          "internalType": "uint256",
          "name": "",
          "type": "uint256"
        }
      ],
      "stateMutability": "view",
      "type": "function"
    },
    {
      "inputs": [
        {
          "internalType": "address",
          "name": "_poolStakingAddress",
          "type": "address"
        },
        {
          "internalType": "address",
          "name": "_staker",
          "type": "address"
        }
      ],
      "name": "stakeAmountByCurrentEpoch",
      "outputs": [
        {
          "internalType": "uint256",
          "name": "",
          "type": "uint256"
        }
      ],
      "stateMutability": "view",
      "type": "function"
    },
    {
      "inputs": [
        {
          "internalType": "address",
          "name": "",
          "type": "address"
        }
      ],
      "name": "stakeAmountTotal",
      "outputs": [
        {
          "internalType": "uint256",
          "name": "",
          "type": "uint256"
        }
      ],
      "stateMutability": "view",
      "type": "function"
    },
    {
      "inputs": [
        {
          "internalType": "address",
          "name": "",
          "type": "address"
        },
        {
          "internalType": "address",
          "name": "",
          "type": "address"
        }
      ],
      "name": "stakeFirstEpoch",
      "outputs": [
        {
          "internalType": "uint256",
          "name": "",
          "type": "uint256"
        }
      ],
      "stateMutability": "view",
      "type": "function"
    },
    {
      "inputs": [
        {
          "internalType": "address",
          "name": "",
          "type": "address"
        },
        {
          "internalType": "address",
          "name": "",
          "type": "address"
        }
      ],
      "name": "stakeLastEpoch",
      "outputs": [
        {
          "internalType": "uint256",
          "name": "",
          "type": "uint256"
        }
      ],
      "stateMutability": "view",
      "type": "function"
    },
    {
      "inputs": [],
      "name": "stakingEpoch",
      "outputs": [
        {
          "internalType": "uint256",
          "name": "",
          "type": "uint256"
        }
      ],
      "stateMutability": "view",
      "type": "function"
    },
    {
      "inputs": [],
      "name": "stakingEpochStartBlock",
      "outputs": [
        {
          "internalType": "uint256",
          "name": "",
          "type": "uint256"
        }
      ],
      "stateMutability": "view",
      "type": "function"
    },
    {
      "inputs": [],
      "name": "stakingEpochStartTime",
      "outputs": [
        {
          "internalType": "uint256",
          "name": "",
          "type": "uint256"
        }
      ],
      "stateMutability": "view",
      "type": "function"
    },
    {
      "inputs": [],
      "name": "stakingFixedEpochDuration",
      "outputs": [
        {
          "internalType": "uint256",
          "name": "",
          "type": "uint256"
        }
      ],
      "stateMutability": "view",
      "type": "function"
    },
    {
      "inputs": [],
      "name": "stakingFixedEpochEndTime",
      "outputs": [
        {
          "internalType": "uint256",
          "name": "",
          "type": "uint256"
        }
      ],
      "stateMutability": "view",
      "type": "function"
    },
    {
      "inputs": [],
      "name": "stakingTransitionTimeframeLength",
      "outputs": [
        {
          "internalType": "uint256",
          "name": "",
          "type": "uint256"
        }
      ],
      "stateMutability": "view",
      "type": "function"
    },
    {
      "inputs": [],
      "name": "stakingWithdrawDisallowPeriod",
      "outputs": [
        {
          "internalType": "uint256",
          "name": "",
          "type": "uint256"
        }
      ],
      "stateMutability": "view",
      "type": "function"
    },
    {
      "inputs": [],
      "name": "startTimeOfNextPhaseTransition",
      "outputs": [
        {
          "internalType": "uint256",
          "name": "",
          "type": "uint256"
        }
      ],
      "stateMutability": "view",
      "type": "function"
    },
    {
      "inputs": [],
      "name": "validatorSetContract",
      "outputs": [
        {
          "internalType": "contract IValidatorSetHbbft",
          "name": "",
          "type": "address"
        }
      ],
      "stateMutability": "view",
      "type": "function"
    },
    {
      "inputs": [
        {
          "internalType": "address",
          "name": "_fromPoolStakingAddress",
          "type": "address"
        },
        {
          "internalType": "uint256",
          "name": "_amount",
          "type": "uint256"
        }
      ],
      "name": "withdraw",
      "outputs": [],
      "stateMutability": "nonpayable",
      "type": "function"
    },
    {
      "stateMutability": "payable",
      "type": "receive"
    }
  ],
  "bytecode": "0x608060405234801561001057600080fd5b5061581b80620000216000396000f3fe6080604052600436106103c65760003560e01c8063862be287116101f2578063bc9eb2c31161010d578063e9ab0300116100a0578063f07860961161006f578063f078609614610ccd578063f3fef3a314610ce3578063f494250114610d03578063fa4aaf4714610d1757600080fd5b8063e9ab030014610c3e578063edd7db7514610c76578063edf94b8214610c8b578063ee435f5514610cb857600080fd5b8063da7a9b6a116100dc578063da7a9b6a14610bae578063dadee88a14610bc4578063df6f55f514610bf1578063dfc8bf4e14610c0657600080fd5b8063bc9eb2c314610b2c578063c6912cc014610b64578063cfef144114610b79578063d290c21d14610b9957600080fd5b8063a420596711610185578063adddc0cf11610154578063adddc0cf14610ab4578063ae1aaf8014610ac9578063b42754a514610adf578063b61ed63a14610b0c57600080fd5b8063a420596714610a0f578063a5d54f6514610a47578063a697ecff14610a5c578063a711e6a114610a9457600080fd5b80639a7b5f11116101c15780639a7b5f111461098a5780639b03d744146109b95780639e72c635146109cf5780639ea8082b146109ef57600080fd5b8063862be287146108ef578063950a65131461090f5780639518c4811461092f578063957950a71461096757600080fd5b80634f9a8d8f116102e25780636bda157711610275578063794c0c6811610244578063794c0c68146108795780637b0a0f9b1461088f5780637b15b94c146108af5780638247a239146108cf57600080fd5b80636bda1577146107d35780637069e746146107f357806373c2180314610809578063750dd2a11461082957600080fd5b80635d80ca32116102b15780635d80ca32146107585780635fef76431461076e5780636511391814610784578063673a2a1f146107b157600080fd5b80634f9a8d8f146106cb5780635267e1d6146106e15780635659b7421461070d57806356e4d6c21461074557600080fd5b80632bafde8d1161035a5780633b7d0946116103295780633b7d09461461063e57806348aaa4a21461065e5780634cf83f9c1461067e5780634e9b426d1461069e57600080fd5b80632bafde8d1461059757806331727730146105b7578063379b046a14610608578063392e53cd1461061e57600080fd5b80631fb31e43116103965780631fb31e43146104d357806322e3d9861461054f578063251441a914610564578063264762041461058457600080fd5b80622ceebc1461041d578063028b8bdb1461046e5780630868c0d6146104845780631555371c146104bc57600080fd5b366104185760405162461bcd60e51b815260206004820152600b60248201527f4e6f742070617961626c6500000000000000000000000000000000000000000060448201526064015b60405180910390fd5b600080fd5b34801561042957600080fd5b5061045b610438366004614ff8565b600b60209081526000938452604080852082529284528284209052825290205481565b6040519081526020015b60405180910390f35b34801561047a57600080fd5b5061045b60195481565b34801561049057600080fd5b5061045b61049f366004615039565b600f60209081526000928352604080842090915290825290205481565b3480156104c857600080fd5b506104d1610d44565b005b3480156104df57600080fd5b5061051d6104ee366004615072565b6001600160a01b0316600090815260226020526040902060010154608081901b91600160801b90910460f01b90565b604080516fffffffffffffffffffffffffffffffff1990931683526001600160f01b0319909116602083015201610465565b34801561055b57600080fd5b5061045b610e35565b34801561057057600080fd5b506104d161057f366004614ff8565b610e7c565b6104d1610592366004615072565b611001565b3480156105a357600080fd5b506104d16105b236600461508f565b611053565b3480156105c357600080fd5b506105f86105d2366004614ff8565b601560209081526000938452604080852082529284528284209052825290205460ff1681565b6040519015158152602001610465565b34801561061457600080fd5b5061045b601f5481565b34801561062a57600080fd5b506021546001600160a01b031615156105f8565b34801561064a57600080fd5b506104d1610659366004615072565b611141565b34801561066a57600080fd5b506104d161067936600461508f565b61119b565b34801561068a57600080fd5b506104d16106993660046150f4565b611289565b3480156106aa57600080fd5b506106be6106b9366004615072565b6115f9565b60405161046591906151d8565b3480156106d757600080fd5b5061045b601b5481565b3480156106ed57600080fd5b5061045b6106fc366004615072565b602080526000908152604090205481565b34801561071957600080fd5b5061045b610728366004615039565b601760209081526000928352604080842090915290825290205481565b6104d1610753366004615253565b6116a5565b34801561076457600080fd5b5061045b60235481565b34801561077a57600080fd5b5061045b60095481565b34801561079057600080fd5b5061045b61079f366004615072565b60116020526000908152604090205481565b3480156107bd57600080fd5b506107c66117be565b60405161046591906152ba565b3480156107df57600080fd5b5061045b6107ee366004615039565b611820565b3480156107ff57600080fd5b5061045b601e5481565b34801561081557600080fd5b506107c6610824366004615072565b6119a4565b34801561083557600080fd5b5061045b610844366004615039565b6001600160a01b039182166000908152600860209081526040808320939094168252918252828120601a548252909152205490565b34801561088557600080fd5b5061045b601a5481565b34801561089b57600080fd5b506104d16108aa36600461531f565b611a19565b3480156108bb57600080fd5b506104d16108ca366004615072565b611aba565b3480156108db57600080fd5b506104d16108ea36600461508f565b611b45565b3480156108fb57600080fd5b506104d161090a366004615364565b611b9c565b34801561091b57600080fd5b5061045b61092a366004615039565b611bff565b34801561093b57600080fd5b5061045b61094a366004615039565b601060209081526000928352604080842090915290825290205481565b34801561097357600080fd5b5061097c611d74565b6040516104659291906153be565b34801561099657600080fd5b506109aa6109a5366004615072565b611dd7565b60405161046593929190615406565b3480156109c557600080fd5b5061045b601d5481565b3480156109db57600080fd5b506104d16109ea36600461508f565b611e8b565b3480156109fb57600080fd5b506107c6610a0a366004615072565b611efa565b348015610a1b57600080fd5b5061045b610a2a366004615039565b600e60209081526000928352604080842090915290825290205481565b348015610a5357600080fd5b506107c6611f6e565b348015610a6857600080fd5b5061045b610a77366004615039565b601660209081526000928352604080842090915290825290205481565b348015610aa057600080fd5b506105f8610aaf366004615072565b611fce565b348015610ac057600080fd5b506104d161202d565b348015610ad557600080fd5b5061045b601c5481565b348015610aeb57600080fd5b5061045b610afa366004615072565b60126020526000908152604090205481565b348015610b1857600080fd5b506104d1610b2736600461544d565b612096565b348015610b3857600080fd5b5061045b610b47366004615039565b601860209081526000928352604080842090915290825290205481565b348015610b7057600080fd5b5061045b61266d565b348015610b8557600080fd5b506104d1610b94366004615072565b612691565b348015610ba557600080fd5b506107c6612a0a565b348015610bba57600080fd5b5061045b600a5481565b348015610bd057600080fd5b5061045b610bdf366004615072565b600d6020526000908152604090205481565b348015610bfd57600080fd5b506107c6612a6a565b348015610c1257600080fd5b50602154610c26906001600160a01b031681565b6040516001600160a01b039091168152602001610465565b348015610c4a57600080fd5b5061045b610c59366004615039565b600c60209081526000928352604080842090915290825290205481565b348015610c8257600080fd5b506104d1612aca565b348015610c9757600080fd5b5061045b610ca6366004615072565b60146020526000908152604090205481565b348015610cc457600080fd5b506104d1612cc6565b348015610cd957600080fd5b5061045b610bb881565b348015610cef57600080fd5b506104d1610cfe36600461544d565b612d30565b348015610d0f57600080fd5b5060016105f8565b348015610d2357600080fd5b5061045b610d32366004615072565b60136020526000908152604090205481565b6021546001600160a01b03163314610d925760405162461bcd60e51b815260206004820152601160248201527013db9b1e4815985b1a59185d1bdc94d95d607a1b604482015260640161040f565b60006003805480602002602001604051908101604052809291908181526020018280548015610dea57602002820191906000526020600020905b81546001600160a01b03168152600190910190602001808311610dcc575b5050505050905060005b8151811015610e3157610e1f828281518110610e1257610e12615479565b6020026020010151612e17565b80610e29816154a5565b915050610df4565b5050565b601d54601b546000919015610e4b576001610e4e565b60005b60ff16601f54601b5483610e6291906154be565b610e6c91906154be565b610e7691906154d1565b91505090565b3a600003610ebc5760405162461bcd60e51b815260206004820152600d60248201526c04761735072696365206973203609c1b604482015260640161040f565b6021546001600160a01b0316610f0f5760405162461bcd60e51b815260206004820152601860248201527710dbdb9d1c9858dd081b9bdd081a5b9a5d1a585b1a5e995960421b604482015260640161040f565b816001600160a01b0316836001600160a01b031603610f965760405162461bcd60e51b815260206004820152602760248201527f4d6f76655374616b653a2073726320616e642064737420706f6f6c206973207460448201527f68652073616d6500000000000000000000000000000000000000000000000000606482015260840161040f565b33610fa2848284612f71565b610fad8382846132a4565b601a54604080516001600160a01b0387811682526020820186905280851692908716917f4480d8e4b1e9095b94bf513961d26fe1d32386ebdd103d18fe8738cf4b2223ff910160405180910390a450505050565b3a6000036110415760405162461bcd60e51b815260206004820152600d60248201526c04761735072696365206973203609c1b604482015260640161040f565b333461104e8383836132a4565b505050565b7fb53127684a568b3173ae13b9f8a6016e243e63b6e8ee1178d6a717850b5d6103546001600160a01b0316336001600160a01b0316146110e95760405162461bcd60e51b815260206004820152602b60248201527f6f6e6c792061646d696e20697320616c6c6f77656420746f2063616c6c20746860448201526a34b990333ab731ba34b7b760a91b606482015260840161040f565b6021546001600160a01b031661113c5760405162461bcd60e51b815260206004820152601860248201527710dbdb9d1c9858dd081b9bdd081a5b9a5d1a585b1a5e995960421b604482015260640161040f565b600a55565b6021546001600160a01b0316331461118f5760405162461bcd60e51b815260206004820152601160248201527013db9b1e4815985b1a59185d1bdc94d95d607a1b604482015260640161040f565b61119881612e17565b50565b7fb53127684a568b3173ae13b9f8a6016e243e63b6e8ee1178d6a717850b5d6103546001600160a01b0316336001600160a01b0316146112315760405162461bcd60e51b815260206004820152602b60248201527f6f6e6c792061646d696e20697320616c6c6f77656420746f2063616c6c20746860448201526a34b990333ab731ba34b7b760a91b606482015260840161040f565b6021546001600160a01b03166112845760405162461bcd60e51b815260206004820152601860248201527710dbdb9d1c9858dd081b9bdd081a5b9a5d1a585b1a5e995960421b604482015260640161040f565b600955565b8460a001356000036112dd5760405162461bcd60e51b815260206004820152601760248201527f466978656445706f63684475726174696f6e2069732030000000000000000000604482015260640161040f565b8460e001358560a001351161135a5760405162461bcd60e51b815260206004820152603d60248201527f466978656445706f63684475726174696f6e206d757374206265206c6f6e676560448201527f72207468616e207769746864726177446973616c6c6f77506572696f64000000606482015260840161040f565b8460e001356000036113ae5760405162461bcd60e51b815260206004820152601b60248201527f5769746864726177446973616c6c6f77506572696f6420697320300000000000604482015260640161040f565b8460c001356000036114285760405162461bcd60e51b815260206004820152602e60248201527f546865207472616e736974696f6e2074696d656672616d65206d75737420626560448201527f206c6f6e676572207468616e2030000000000000000000000000000000000000606482015260840161040f565b8460a001358560c00135106114a7576040805162461bcd60e51b81526020600482015260248101919091527f546865207472616e736974696f6e2074696d656672616d65206d75737420626560448201527f2073686f72746572207468656e207468652065706f6368206475726174696f6e606482015260840161040f565b61156b6114b76020870187615072565b6114c460208801886154e4565b8080602002602001604051908101604052809392919081815260200183836020028082843760009201919091525050604080516020808b02828101820184528b8352928d0135945060608d0135935060808d0135928c918c91829185019084908082843760009201919091525050604080516020808d0282810182019093528c82529093508c92508b91829185019084908082843760009201919091525061386892505050565b60a0850135601b5560e085013560195560215460408051636c9230db60e01b815290516001600160a01b0390921691636c9230db916004808201926020929091908290030181865afa1580156115c5573d6000803e3d6000fd5b505050506040513d601f19601f820116820180604052508101906115e9919061552e565b601d555050505060c00135601c55565b6001600160a01b038116600090815260226020526040902080546060919061162090615547565b80601f016020809104026020016040519081016040528092919081815260200182805461164c90615547565b80156116995780601f1061166e57610100808354040283529160200191611699565b820191906000526020600020905b81548152906001019060200180831161167c57829003601f168201915b50505050509050919050565b3a6000036116e55760405162461bcd60e51b815260206004820152600d60248201526c04761735072696365206973203609c1b604482015260640161040f565b602154604051630526083960e11b81526001600160a01b0386811660048301523360248301819052923492911690630a4c107290604401600060405180830381600087803b15801561173657600080fd5b505af115801561174a573d6000803e3d6000fd5b505050506117598283836132a4565b6001600160a01b038216600090815260226020526040902061177c8587836155dd565b50506001600160a01b0316600090815260226020526040902060010180546fffffffffffffffffffffffffffffffff191660809290921c919091179055505050565b6060600080548060200260200160405190810160405280929190818152602001828054801561181657602002820191906000526020600020905b81546001600160a01b031681526001909101906020018083116117f8575b5050505050905090565b6021546040516253517560e01b81526001600160a01b03848116600483015260009283929116906253517590602401602060405180830381865afa15801561186c573d6000803e3d6000fd5b505050506040513d601f19601f82011682018060405250810190611890919061569d565b90506118b181846001600160a01b0316866001600160a01b03161415613f24565b6118bf57600091505061199e565b6001600160a01b03848116600090815260166020908152604080832087851684529091529081902054602154915163a0d16cad60e01b815284841660048201529092919091169063a0d16cad90602401602060405180830381865afa15801561192c573d6000803e3d6000fd5b505050506040513d601f19601f8201168201806040525081019061195091906156ba565b61195d57915061199e9050565b6001600160a01b0385811660009081526008602090815260408083209388168352928152828220601a5483529052205480821115611999578091505b509150505b92915050565b6001600160a01b03811660009081526007602090815260409182902080548351818402810184019094528084526060939283018282801561169957602002820191906000526020600020905b81546001600160a01b031681526001909101906020018083116119f05750505050509050919050565b6021546001600160a01b03163314611a675760405162461bcd60e51b815260206004820152601160248201527013db9b1e4815985b1a59185d1bdc94d95d607a1b604482015260640161040f565b6001600160a01b039092166000908152602260205260409020600101805460f09390931c600160801b0271ffffffffffffffffffffffffffffffffffff1990931660809290921c91909117919091179055565b6021546001600160a01b03163314611b085760405162461bcd60e51b815260206004820152601160248201527013db9b1e4815985b1a59185d1bdc94d95d607a1b604482015260640161040f565b6009546001600160a01b03821660009081526016602090815260408083209091529020541061119857611b3c816001614030565b61119881614102565b6021546001600160a01b03163314611b935760405162461bcd60e51b815260206004820152601160248201527013db9b1e4815985b1a59185d1bdc94d95d607a1b604482015260640161040f565b601d5543601e55565b336000908152602260205260409020611bb68486836155dd565b50336000908152602260205260409020600101805460f09290921c600160801b0271ffffffffffffffffffffffffffffffffffff1990921660809390931c929092171790555050565b6021546040516253517560e01b81526001600160a01b03848116600483015260009283929116906253517590602401602060405180830381865afa158015611c4b573d6000803e3d6000fd5b505050506040513d601f19601f82011682018060405250810190611c6f919061569d565b9050611c9081846001600160a01b0316866001600160a01b03161415613f24565b611c9e57600091505061199e565b60215460405163a0d16cad60e01b81526001600160a01b0383811660048301529091169063a0d16cad90602401602060405180830381865afa158015611ce8573d6000803e3d6000fd5b505050506040513d601f19601f82011682018060405250810190611d0c91906156ba565b611d1a57600091505061199e565b6001600160a01b038481166000818152600860209081526040808320948816808452948252808320601a548452825280832054938352601682528083209483529390529190912054611d6c91906154d1565b949350505050565b60606000600460055481805480602002602001604051908101604052809291908181526020018280548015611dc857602002820191906000526020600020905b815481526020019060010190808311611db4575b50505050509150915091509091565b602260205260009081526040902080548190611df290615547565b80601f0160208091040260200160405190810160405280929190818152602001828054611e1e90615547565b8015611e6b5780601f10611e4057610100808354040283529160200191611e6b565b820191906000526020600020905b815481529060010190602001808311611e4e57829003601f168201915b50505060019093015491925050608081901b90600160801b900460f01b83565b6021546001600160a01b03163314611ed95760405162461bcd60e51b815260206004820152601160248201527013db9b1e4815985b1a59185d1bdc94d95d607a1b604482015260640161040f565b601c5481601f54611eea91906154be565b611ef491906154be565b601f5550565b6001600160a01b038116600090815260066020908152604091829020805483518184028101840190945280845260609392830182828015611699576020028201919060005260206000209081546001600160a01b031681526001909101906020018083116119f05750505050509050919050565b60606002805480602002602001604051908101604052809291908181526020018280548015611816576020028201919060005260206000209081546001600160a01b031681526001909101906020018083116117f8575050505050905090565b6001600160a01b0381166000908152601260205260408120548154811080156120265750826001600160a01b03166000828154811061200f5761200f615479565b6000918252602090912001546001600160a01b0316145b9392505050565b6021546001600160a01b0316331461207b5760405162461bcd60e51b815260206004820152601160248201527013db9b1e4815985b1a59185d1bdc94d95d607a1b604482015260640161040f565b601c54601f600082825461208f91906154be565b9091555050565b3a6000036120d65760405162461bcd60e51b815260206004820152600d60248201526c04761735072696365206973203609c1b604482015260640161040f565b6021546001600160a01b03166121295760405162461bcd60e51b815260206004820152601860248201527710dbdb9d1c9858dd081b9bdd081a5b9a5d1a585b1a5e995960421b604482015260640161040f565b6001600160a01b03821661218a5760405162461bcd60e51b815260206004820152602260248201527f706f6f6c5374616b696e6741646472657373206d757374206e6f742062652030604482015261078360f41b606482015260840161040f565b806000036122005760405162461bcd60e51b815260206004820152602560248201527f6f72646572656420776974686472617720616d6f756e74206d757374206e6f7460448201527f2062652030000000000000000000000000000000000000000000000000000000606482015260840161040f565b6021546040516253517560e01b81526001600160a01b038481166004830152339261228c929116906253517590602401602060405180830381865afa15801561224d573d6000803e3d6000fd5b505050506040513d601f19601f82011682018060405250810190612271919061569d565b846001600160a01b0316836001600160a01b03161415613f24565b6122d85760405162461bcd60e51b815260206004820152601a60248201527f4f7264657257697468647261773a206e6f7420616c6c6f776564000000000000604482015260640161040f565b6001600160a01b038084166000818152600c6020908152604080832094861680845294825280832054848452600d835281842054601684528285209685529583528184205494845291805282205490939291861315612411578561233c8887611bff565b8111156123b15760405162461bcd60e51b815260206004820152602f60248201527f4f7264657257697468647261773a206d617857697468647261774f726465724160448201527f6c6c6f7765642065786365656465640000000000000000000000000000000000606482015260840161040f565b6123bb81866154be565b94506123c781856154be565b93506123d381846154d1565b92506123df81836154d1565b601a546001600160a01b03808b166000908152600e60209081526040808320938c168352929052205591506124509050565b600061241c876156dc565b905061242881866154d1565b945061243481856154d1565b935061244081846154be565b925061244c81836154be565b9150505b6001600160a01b038088166000818152600c60209081526040808320948a16808452948252808320899055838352600d825280832088905560168252808320858452825280832087905583835290805290208390559003612556578115806124ba57506009548210155b61252c5760405162461bcd60e51b815260206004820152603360248201527f6e65775374616b6520416d6f756e74206d75737420626520677265617465722060448201527f7468616e20746865206d696e207374616b652e00000000000000000000000000606482015260840161040f565b600086131561254b578160000361254657612546876141d0565b61260b565b612546876001614030565b8115806125655750600a548210155b6125d75760405162461bcd60e51b815260206004820152603360248201527f6e65775374616b6520416d6f756e74206d75737420626520677265617465722060448201527f7468616e20746865206d696e207374616b652e00000000000000000000000000606482015260840161040f565b60008613156125f757816000036125f2576125f28786614294565b612601565b6126018786614428565b61260b87866144f0565b61261487614102565b601a54856001600160a01b0316886001600160a01b03167f80d5c777e5f7ac6ee89723223803ca5c0ec0204f89e99c1b0cde973c66a645948960405161265c91815260200190565b60405180910390a450505050505050565b6000601c54601b54601d5461268291906154be565b61268c91906154d1565b905090565b3a6000036126d15760405162461bcd60e51b815260206004820152600d60248201526c04761735072696365206973203609c1b604482015260640161040f565b6021546001600160a01b03166127245760405162461bcd60e51b815260206004820152601860248201527710dbdb9d1c9858dd081b9bdd081a5b9a5d1a585b1a5e995960421b604482015260640161040f565b6001600160a01b0381166000908152600e6020908152604080832033808552925290912054601a54116127bf5760405162461bcd60e51b815260206004820152603f60248201527f63616e6e6f7420636c61696d206f72646572656420776974686472617720696e60448201527f207468652073616d652065706f636820697420776173206f7264657265642e00606482015260840161040f565b6021546040516253517560e01b81526001600160a01b0384811660048301526128489216906253517590602401602060405180830381865afa158015612809573d6000803e3d6000fd5b505050506040513d601f19601f8201168201806040525081019061282d919061569d565b836001600160a01b0316836001600160a01b03161415613f24565b6128ba5760405162461bcd60e51b815260206004820152602a60248201527f436c61696d4f72646572656457697468647261773a205769746864726177206e60448201527f6f7420616c6c6f77656400000000000000000000000000000000000000000000606482015260840161040f565b6001600160a01b038083166000908152600c60209081526040808320938516835292905290812054908190036129325760405162461bcd60e51b815260206004820152601a60248201527f636c61696d20616d6f756e74206d757374206e6f742062652030000000000000604482015260640161040f565b6001600160a01b038084166000818152600c602090815260408083209487168352938152838220829055918152600d90915220546129719082906154d1565b6001600160a01b038085166000908152600d6020908152604080832094909455601681528382209286168252919091529081205490036129b5576129b583836145f5565b601a54826001600160a01b0316846001600160a01b03167ff380b0bc887e00f5b50d3c9d4eaaf5c9a0afd97b956316b995159384c4ede9b3846040516129fd91815260200190565b60405180910390a4505050565b60606003805480602002602001604051908101604052809291908181526020018280548015611816576020028201919060005260206000209081546001600160a01b031681526001909101906020018083116117f8575050505050905090565b60606001805480602002602001604051908101604052809291908181526020018280548015611816576020028201919060005260206000209081546001600160a01b031681526001909101906020018083116117f8575050505050905090565b3a600003612b0a5760405162461bcd60e51b815260206004820152600d60248201526c04761735072696365206973203609c1b604482015260640161040f565b6021546001600160a01b0316612b5d5760405162461bcd60e51b815260206004820152601860248201527710dbdb9d1c9858dd081b9bdd081a5b9a5d1a585b1a5e995960421b604482015260640161040f565b6021546040516253517560e01b81523360048201819052916000916001600160a01b03909116906253517590602401602060405180830381865afa158015612ba9573d6000803e3d6000fd5b505050506040513d601f19601f82011682018060405250810190612bcd919061569d565b90506000601a541180612c4b575060215460405163facd743b60e01b81526001600160a01b0383811660048301529091169063facd743b90602401602060405180830381865afa158015612c25573d6000803e3d6000fd5b505050506040513d601f19601f82011682018060405250810190612c4991906156ba565b155b612cbd5760405162461bcd60e51b815260206004820152602a60248201527f43616e27742072656d6f766520706f6f6c20647572696e67203173742073746160448201527f6b696e672065706f636800000000000000000000000000000000000000000000606482015260840161040f565b610e3182612e17565b6021546001600160a01b03163314612d145760405162461bcd60e51b815260206004820152601160248201527013db9b1e4815985b1a59185d1bdc94d95d607a1b604482015260640161040f565b601a8054906000612d24836154a5565b90915550506000601f55565b3a600003612d705760405162461bcd60e51b815260206004820152600d60248201526c04761735072696365206973203609c1b604482015260640161040f565b6021546001600160a01b0316612dc35760405162461bcd60e51b815260206004820152601860248201527710dbdb9d1c9858dd081b9bdd081a5b9a5d1a585b1a5e995960421b604482015260640161040f565b33612dcf838284612f71565b601a54816001600160a01b0316846001600160a01b03167fa7c0f0cac6bd4d18042007706c84a8abe823751cf289b69c01e83eef7b5915c7856040516129fd91815260200190565b6001600160a01b038116600090815260126020526040812054905481108015612e6f5750816001600160a01b031660008281548110612e5857612e58615479565b6000918252602090912001546001600160a01b0316145b15612f3a57600080548190612e86906001906154d1565b81548110612e9657612e96615479565b600091825260208220015481546001600160a01b03909116925082919084908110612ec357612ec3615479565b600091825260208083209190910180546001600160a01b0319166001600160a01b0394851617905583831682526012905260408082208590559185168152908120819055805480612f1657612f166156f8565b600082815260209020810160001990810180546001600160a01b0319169055019055505b612f4382614723565b15612f5657612f5182614760565b612f5f565b612f5f8261488a565b612f6882614948565b610e3182614b65565b6001600160a01b038316612fed5760405162461bcd60e51b815260206004820152602e60248201527f576974686472617720706f6f6c207374616b696e672061646472657373206d7560448201527f7374206e6f74206265206e756c6c000000000000000000000000000000000000606482015260840161040f565b8060000361303d5760405162461bcd60e51b815260206004820181905260248201527f616d6f756e7420746f207769746864726177206d757374206e6f742062652030604482015260640161040f565b6130478383611820565b8111156130bc5760405162461bcd60e51b815260206004820152602560248201527f57697468647261773a206d61785769746864726177416c6c6f7765642065786360448201527f6565646564000000000000000000000000000000000000000000000000000000606482015260840161040f565b6001600160a01b0380841660009081526016602090815260408083209386168352929052908120546130ef9083906154d1565b90506000836001600160a01b0316856001600160a01b03161461311457600a54613118565b6009545b90508115806131275750808210155b6131995760405162461bcd60e51b815260206004820152603960248201527f6e65775374616b6520616d6f756e74206d75737420626520677265617465722060448201527f657175616c207468616e20746865206d696e207374616b652e00000000000000606482015260840161040f565b6001600160a01b03858116600081815260166020908152604080832094891680845294825280832087905592825260088152828220938252928352818120601a548252909252902054838110156131f15760006131fb565b6131fb84826154d1565b6001600160a01b038088166000818152600860209081526040808320948b168352938152838220601a5483528152838220949094559081529180529020546132449085906154d1565b6001600160a01b03871660009081526020805260408120919091558390036132705761327086866145f5565b856001600160a01b0316856001600160a01b0316146132935761329386866144f0565b61329c86614102565b505050505050565b6021546040516253517560e01b81526001600160a01b03858116600483015260009216906253517590602401602060405180830381865afa1580156132ed573d6000803e3d6000fd5b505050506040513d601f19601f82011682018060405250810190613311919061569d565b90506001600160a01b038116613391576040805162461bcd60e51b81526020600482015260248101919091527f506f6f6c20646f6573206e6f742065786973742e206d696e696e67416464726560448201527f737320666f722074686174207374616b696e6720616464726573732069732030606482015260840161040f565b6001600160a01b0384166133e75760405162461bcd60e51b815260206004820152601a60248201527f5374616b653a207374616b696e67416464726573732069732030000000000000604482015260640161040f565b816000036134375760405162461bcd60e51b815260206004820152601960248201527f5374616b653a207374616b696e67416d6f756e74206973203000000000000000604482015260640161040f565b602154604051635491295760e11b81526001600160a01b0383811660048301529091169063a92252ae90602401602060405180830381865afa158015613481573d6000803e3d6000fd5b505050506040513d601f19601f820116820180604052508101906134a591906156ba565b156134f25760405162461bcd60e51b815260206004820152601f60248201527f5374616b653a204d696e696e6720616464726573732069732062616e6e656400604482015260640161040f565b6001600160a01b0380851660009081526016602090815260408083209387168352929052908120546135259084906154be565b9050846001600160a01b0316846001600160a01b0316036135bd576009548110156135b85760405162461bcd60e51b815260206004820152603160248201527f5374616b653a2063616e6469646174655374616b65206c657373207468616e2060448201527f63616e6469646174654d696e5374616b65000000000000000000000000000000606482015260840161040f565b6136b0565b600a548110156136355760405162461bcd60e51b815260206004820152603460248201527f5374616b653a2064656c656761746f725374616b65206973206c65737320746860448201527f616e2064656c656761746f724d696e5374616b65000000000000000000000000606482015260840161040f565b6001600160a01b038516600090815260166020908152604080832090915281205490036136b05760405162461bcd60e51b815260206004820152602360248201527f5374616b653a2063616e27742064656c656761746520696e20656d70747920706044820152621bdbdb60ea1b606482015260840161040f565b6023546001600160a01b03861660009081526020805260409020546136d69085906154be565b11156137245760405162461bcd60e51b815260206004820152601d60248201527f7374616b65206c696d697420686173206265656e206578636565646564000000604482015260640161040f565b6001600160a01b03858116600081815260166020908152604080832094891680845294825280832086905592825260088152828220938252928352818120601a5482529092529020546137789084906154be565b6001600160a01b038087166000818152600860209081526040808320948a168352938152838220601a5483528152838220949094559081529180529020546137c19084906154be565b6001600160a01b0380871660008181526020805260409020929092558516036137f4576137ef856001614030565b613808565b6137fe8585614428565b61380885856144f0565b61381185614102565b601a54846001600160a01b0316866001600160a01b03167f2273de02cb1f69ba6259d22c4bc22c60e4c94c193265ef6afee324a04a9b6d228660405161385991815260200190565b60405180910390a45050505050565b7fb53127684a568b3173ae13b9f8a6016e243e63b6e8ee1178d6a717850b5d6103546001600160a01b0316336001600160a01b031614806138db57507fb53127684a568b3173ae13b9f8a6016e243e63b6e8ee1178d6a717850b5d6103546001600160a01b0316326001600160a01b0316145b8061390e57507fb53127684a568b3173ae13b9f8a6016e243e63b6e8ee1178d6a717850b5d6103546001600160a01b0316155b80613917575043155b6139895760405162461bcd60e51b815260206004820152603060248201527f496e697469616c697a6174696f6e206f6e6c79206f6e2067656e65736973206260448201527f6c6f636b206f722062792061646d696e00000000000000000000000000000000606482015260840161040f565b6021546001600160a01b0316156139e25760405162461bcd60e51b815260206004820152601360248201527f416c726561647920696e697469616c697a656400000000000000000000000000604482015260640161040f565b6001600160a01b038716613a385760405162461bcd60e51b815260206004820152601760248201527f56616c696461746f725365742063616e27742062652030000000000000000000604482015260640161040f565b6000865111613aaf5760405162461bcd60e51b815260206004820152602560248201527f4d7573742070726f7669646520696e697469616c206d696e696e67206164647260448201527f6573736573000000000000000000000000000000000000000000000000000000606482015260840161040f565b81518651613abe90600261570e565b14613b315760405162461bcd60e51b815260206004820152602960248201527f4d7573742070726f7669646520636f7272656374206e756d626572206f66207060448201527f75626c69634b6579730000000000000000000000000000000000000000000000606482015260840161040f565b8051865114613ba85760405162461bcd60e51b815260206004820152602a60248201527f4d7573742070726f7669646520636f7272656374206e756d626572206f66204960448201527f5020616472657373657300000000000000000000000000000000000000000000606482015260840161040f565b84600003613bf85760405162461bcd60e51b815260206004820152601660248201527f44656c656761746f724d696e5374616b65206973203000000000000000000000604482015260640161040f565b83600003613c485760405162461bcd60e51b815260206004820152601660248201527f43616e6469646174654d696e5374616b65206973203000000000000000000000604482015260640161040f565b838311613cbd5760405162461bcd60e51b815260206004820152603160248201527f6d6178696d756d207374616b65206d757374206265206772656174657220746860448201527f656e206d696e696d756d207374616b652e000000000000000000000000000000606482015260840161040f565b602180546001600160a01b0319166001600160a01b03891617905560005b8651811015613f115760006001600160a01b0316878281518110613d0157613d01615479565b60200260200101516001600160a01b031603613d6a5760405162461bcd60e51b815260206004820152602260248201527f496e697469616c5374616b696e674164647265737365732063616e2774206265604482015261020360f41b606482015260840161040f565b613d8e878281518110613d7f57613d7f615479565b60200260200101516000614030565b613db0878281518110613da357613da3615479565b60200260200101516141d0565b82613dbc82600261570e565b81518110613dcc57613dcc615479565b602002602001015183826002613de2919061570e565b613ded9060016154be565b81518110613dfd57613dfd615479565b6020026020010151604051602001613e1f929190918252602082015260400190565b60405160208183030381529060405260226000898481518110613e4457613e44615479565b60200260200101516001600160a01b03166001600160a01b031681526020019081526020016000206000019081613e7b9190615725565b50818181518110613e8e57613e8e615479565b602002602001015160226000898481518110613eac57613eac615479565b60200260200101516001600160a01b03166001600160a01b0316815260200190815260200160002060010160006101000a8154816fffffffffffffffffffffffffffffffff021916908360801c02179055508080613f09906154a5565b915050613cdb565b505050600a929092556009556023555050565b60008115613fac5760215460405163a881c5fd60e01b81526001600160a01b0385811660048301529091169063a881c5fd90602401602060405180830381865afa158015613f76573d6000803e3d6000fd5b505050506040513d601f19601f82011682018060405250810190613f9a91906156ba565b15613fa75750600061199e565b614027565b602154604051635491295760e11b81526001600160a01b0385811660048301529091169063a92252ae90602401602060405180830381865afa158015613ff6573d6000803e3d6000fd5b505050506040513d601f19601f8201168201806040525081019061401a91906156ba565b156140275750600061199e565b50600192915050565b61403982611fce565b6140ea57600080546001600160a01b0384168083526012602052604083208290556001820183559180527f290decd9548b62a8d60345a988386fc84ba6bc95484008f6362f93160ef3e5630180546001600160a01b0319169091179055610bb860005411156140ea5760405162461bcd60e51b815260206004820152601d60248201527f4d41585f43414e4449444154455320706f6f6c73206578636565646564000000604482015260640161040f565b6140f382614760565b8015610e3157610e3182614c69565b60008061410e83614d5e565b915091508161411c57505050565b60006004828154811061413157614131615479565b90600052602060002001549050600060206000866001600160a01b03166001600160a01b03168152602001908152602001600020549050806004848154811061417c5761417c615479565b6000918252602090912001558181106141ae5761419982826154d1565b6005546141a691906154be565b6005556141c9565b6141b881836154d1565b6005546141c591906154d1565b6005555b5050505050565b6001600160a01b038116600090815260146020526040902054600354808210158061422b5750826001600160a01b03166003838154811061421357614213615479565b6000918252602090912001546001600160a01b031614155b1561428b576001600160a01b03831660008181526014602052604081208390556003805460018101825591527fc2575a0e9e593c00f959f8c92f12db2869c3395a3b0502d05e2516446f71f85b0180546001600160a01b03191690911790555b61104e83614948565b6001600160a01b038083166000908152600660209081526040808320600f83528184209486168452939091529020548154811080156143015750826001600160a01b03168282815481106142ea576142ea615479565b6000918252602090912001546001600160a01b0316145b156143de5781546000908390614319906001906154d1565b8154811061432957614329615479565b9060005260206000200160009054906101000a90046001600160a01b031690508083838154811061435c5761435c615479565b600091825260208083209190910180546001600160a01b0319166001600160a01b039485161790558783168252600f81526040808320858516845290915280822085905591861681529081205582548390806143ba576143ba6156f8565b600082815260209020810160001990810180546001600160a01b0319169055019055505b6001600160a01b038085166000908152600c602090815260408083209387168352929052205415614418576144138484614dd0565b614422565b6144228484614e94565b50505050565b6001600160a01b038083166000908152600660209081526040808320600f8352818420948616845293909152902054815480821015806144975750836001600160a01b031683838154811061447f5761447f615479565b6000918252602090912001546001600160a01b031614155b156144e6576001600160a01b038086166000908152600f602090815260408083209388168084529382528220849055855460018101875586835291200180546001600160a01b03191690911790555b6141c98585614e94565b6000601a54600161450191906154be565b6001600160a01b03808516600090815260166020908152604080832093871683529290529081205491925081900361453b5760001961453d565b805b6001600160a01b038086166000818152600b60209081526040808320948916808452948252808320888452825280832095909555918152601782528381209281529190529081205490036145b4576001600160a01b0380851660009081526017602090815260408083209387168352929052208290555b80156145c15760006145c3565b815b6001600160a01b0394851660009081526018602090815260408083209690971682529490945293909220929092555050565b816001600160a01b0316816001600160a01b031603614702576021546040516253517560e01b81526001600160a01b03848116600483015260009216906253517590602401602060405180830381865afa158015614657573d6000803e3d6000fd5b505050506040513d601f19601f8201168201806040525081019061467b919061569d565b60215460405163facd743b60e01b81526001600160a01b03808416600483015292935091169063facd743b90602401602060405180830381865afa1580156146c7573d6000803e3d6000fd5b505050506040513d601f19601f820116820180604052508101906146eb91906156ba565b156146f95761104e836141d0565b61104e83612e17565b61470c8282614294565b61471582614723565b15610e3157610e3182614760565b6001600160a01b038116600090815260208052604081205415801561199e5750506001600160a01b03166000908152600d60205260409020541590565b6001600160a01b038116600090815260116020526040902054600154811080156147b95750816001600160a01b0316600182815481106147a2576147a2615479565b6000918252602090912001546001600160a01b0316145b15610e315760018054600091906147d19082906154d1565b815481106147e1576147e1615479565b600091825260209091200154600180546001600160a01b03909216925082918490811061481057614810615479565b600091825260208083209190910180546001600160a01b0319166001600160a01b0394851617905583831682526011905260408082208590559185168152908120556001805480614863576148636156f8565b600082815260209020810160001990810180546001600160a01b0319169055019055505050565b6001600160a01b03811660009081526011602052604090205460015480821015806148e55750826001600160a01b0316600183815481106148cd576148cd615479565b6000918252602090912001546001600160a01b031614155b1561104e576001600160a01b038316600081815260116020526040812083905560018054808201825591527fb10e2d527612073b26eecdfd717e6a320cf44b4afac2b0732d9fcbe2b7fa0cf60180546001600160a01b0319169091179055505050565b600454600254146149565750565b6001600160a01b038116600090815260136020526040902054600254811080156149af5750816001600160a01b03166002828154811061499857614998615479565b6000918252602090912001546001600160a01b0316145b15610e3157600481815481106149c7576149c7615479565b906000526020600020015460055410614a1457600481815481106149ed576149ed615479565b906000526020600020015460056000828254614a0991906154d1565b90915550614a1a9050565b60006005555b600254600090614a2c906001906154d1565b9050600060028281548110614a4357614a43615479565b600091825260209091200154600280546001600160a01b039092169250829185908110614a7257614a72615479565b9060005260206000200160006101000a8154816001600160a01b0302191690836001600160a01b0316021790555060048281548110614ab357614ab3615479565b906000526020600020015460048481548110614ad157614ad1615479565b60009182526020808320909101929092556001600160a01b038084168252601390925260408082208690559186168152908120556002805480614b1657614b166156f8565b600082815260209020810160001990810180546001600160a01b03191690550190556004805480614b4957614b496156f8565b6001900381819060005260206000200160009055905550505050565b6001600160a01b03811660009081526014602052604090205460035481108015614bbe5750816001600160a01b031660038281548110614ba757614ba7615479565b6000918252602090912001546001600160a01b0316145b15610e31576003805460009190614bd7906001906154d1565b81548110614be757614be7615479565b600091825260209091200154600380546001600160a01b039092169250829184908110614c1657614c16615479565b600091825260208083209190910180546001600160a01b0319166001600160a01b0394851617905583831682526014905260408082208590559185168152908120556003805480614863576148636156f8565b6001600160a01b0381166000908152601360205260409020546002548082101580614cc45750826001600160a01b031660028381548110614cac57614cac615479565b6000918252602090912001546001600160a01b031614155b15614d55576001600160a01b03831660008181526013602052604081208390556002805460018181019092557f405787fa12a823e0f2b7631cc41b3ba8828b3321ca811111fa75cd3aa3bb5ace0180546001600160a01b03191690931790925560048054928301815581527f8a35acfbc15ff81a39ae7d344fd709f28e8600b4aa8c65c6b64bfe7fe36bd19b909101555b61104e83614b65565b6001600160a01b03811660009081526013602052604081205460025481108015614db75750826001600160a01b031660028281548110614da057614da0615479565b6000918252602090912001546001600160a01b0316145b15614dc55760019150915091565b506000928392509050565b6001600160a01b0380831660009081526007602090815260408083206010835281842094861684529390915290205481548082101580614e3f5750836001600160a01b0316838381548110614e2757614e27615479565b6000918252602090912001546001600160a01b031614155b156141c9576001600160a01b0380861660009081526010602090815260408083209388168084529382528220849055855460018101875586835291200180546001600160a01b03191690911790555050505050565b6001600160a01b03808316600090815260076020908152604080832060108352818420948616845293909152902054815481108015614f015750826001600160a01b0316828281548110614eea57614eea615479565b6000918252602090912001546001600160a01b0316145b156144225781546000908390614f19906001906154d1565b81548110614f2957614f29615479565b9060005260206000200160009054906101000a90046001600160a01b0316905080838381548110614f5c57614f5c615479565b600091825260208083209190910180546001600160a01b0319166001600160a01b03948516179055878316825260108152604080832085851684529091528082208590559186168152908120558254839080614fba57614fba6156f8565b600082815260209020810160001990810180546001600160a01b03191690550190555050505050565b6001600160a01b038116811461119857600080fd5b60008060006060848603121561500d57600080fd5b833561501881614fe3565b9250602084013561502881614fe3565b929592945050506040919091013590565b6000806040838503121561504c57600080fd5b823561505781614fe3565b9150602083013561506781614fe3565b809150509250929050565b60006020828403121561508457600080fd5b813561202681614fe3565b6000602082840312156150a157600080fd5b5035919050565b60008083601f8401126150ba57600080fd5b50813567ffffffffffffffff8111156150d257600080fd5b6020830191508360208260051b85010111156150ed57600080fd5b9250929050565b60008060008060006060868803121561510c57600080fd5b853567ffffffffffffffff8082111561512457600080fd5b90870190610100828a03121561513957600080fd5b9095506020870135908082111561514f57600080fd5b61515b89838a016150a8565b9096509450604088013591508082111561517457600080fd5b50615181888289016150a8565b969995985093965092949392505050565b6000815180845260005b818110156151b85760208185018101518683018201520161519c565b506000602082860101526020601f19601f83011685010191505092915050565b6020815260006120266020830184615192565b60008083601f8401126151fd57600080fd5b50813567ffffffffffffffff81111561521557600080fd5b6020830191508360208285010111156150ed57600080fd5b80356fffffffffffffffffffffffffffffffff198116811461524e57600080fd5b919050565b6000806000806060858703121561526957600080fd5b843561527481614fe3565b9350602085013567ffffffffffffffff81111561529057600080fd5b61529c878288016151eb565b90945092506152af90506040860161522d565b905092959194509250565b6020808252825182820181905260009190848201906040850190845b818110156152fb5783516001600160a01b0316835292840192918401916001016152d6565b50909695505050505050565b80356001600160f01b03198116811461524e57600080fd5b60008060006060848603121561533457600080fd5b833561533f81614fe3565b925061534d6020850161522d565b915061535b60408501615307565b90509250925092565b6000806000806060858703121561537a57600080fd5b843567ffffffffffffffff81111561539157600080fd5b61539d878288016151eb565b90955093506153b090506020860161522d565b91506152af60408601615307565b604080825283519082018190526000906020906060840190828701845b828110156153f7578151845292840192908401906001016153db565b50505092019290925292915050565b6060815260006154196060830186615192565b6fffffffffffffffffffffffffffffffff19949094166020830152506001600160f01b031991909116604090910152919050565b6000806040838503121561546057600080fd5b823561546b81614fe3565b946020939093013593505050565b634e487b7160e01b600052603260045260246000fd5b634e487b7160e01b600052601160045260246000fd5b6000600182016154b7576154b761548f565b5060010190565b8082018082111561199e5761199e61548f565b8181038181111561199e5761199e61548f565b6000808335601e198436030181126154fb57600080fd5b83018035915067ffffffffffffffff82111561551657600080fd5b6020019150600581901b36038213156150ed57600080fd5b60006020828403121561554057600080fd5b5051919050565b600181811c9082168061555b57607f821691505b60208210810361557b57634e487b7160e01b600052602260045260246000fd5b50919050565b634e487b7160e01b600052604160045260246000fd5b601f82111561104e57600081815260208120601f850160051c810160208610156155be5750805b601f850160051c820191505b8181101561329c578281556001016155ca565b67ffffffffffffffff8311156155f5576155f5615581565b615609836156038354615547565b83615597565b6000601f84116001811461563d57600085156156255750838201355b600019600387901b1c1916600186901b1783556141c9565b600083815260209020601f19861690835b8281101561566e578685013582556020948501946001909201910161564e565b508682101561568b5760001960f88860031b161c19848701351681555b505060018560011b0183555050505050565b6000602082840312156156af57600080fd5b815161202681614fe3565b6000602082840312156156cc57600080fd5b8151801515811461202657600080fd5b6000600160ff1b82016156f1576156f161548f565b5060000390565b634e487b7160e01b600052603160045260246000fd5b808202811582820484141761199e5761199e61548f565b815167ffffffffffffffff81111561573f5761573f615581565b6157538161574d8454615547565b84615597565b602080601f83116001811461578857600084156157705750858301515b600019600386901b1c1916600185901b17855561329c565b600085815260208120601f198616915b828110156157b757888601518255948401946001909101908401615798565b50858210156157d55787850151600019600388901b60f8161c191681555b5050505050600190811b0190555056fea2646970667358221220378034e6a3c0acfcaa7f72e77c545c11252042bc1604e6488a07238fa8c8e26364736f6c63430008110033",
  "linkReferences": {},
  "deployedLinkReferences": {}
}