{
  "_format": "hh-sol-artifact-1",
  "contractName": "StakingHbbftCoinsMock",
  "sourceName": "contracts/mockContracts/StakingHbbftCoinsMock.sol",
  "abi": [
    {
      "anonymous": false,
      "inputs": [
        {
          "indexed": true,
          "internalType": "address",
          "name": "fromPoolStakingAddress",
          "type": "address"
        },
        {
          "indexed": true,
          "internalType": "address",
          "name": "staker",
          "type": "address"
        },
        {
          "indexed": true,
          "internalType": "uint256",
          "name": "stakingEpoch",
          "type": "uint256"
        },
        {
          "indexed": false,
          "internalType": "uint256",
          "name": "amount",
          "type": "uint256"
        }
      ],
      "name": "ClaimedOrderedWithdrawal",
      "type": "event"
    },
    {
      "anonymous": false,
      "inputs": [
        {
          "indexed": true,
          "internalType": "address",
          "name": "fromPoolStakingAddress",
          "type": "address"
        },
        {
          "indexed": true,
          "internalType": "address",
          "name": "staker",
          "type": "address"
        },
        {
          "indexed": true,
          "internalType": "uint256",
          "name": "stakingEpoch",
          "type": "uint256"
        },
        {
          "indexed": false,
          "internalType": "uint256",
          "name": "nativeCoinsAmount",
          "type": "uint256"
        }
      ],
      "name": "ClaimedReward",
      "type": "event"
    },
    {
      "anonymous": false,
      "inputs": [
        {
          "indexed": false,
          "internalType": "address",
          "name": "fromPoolStakingAddress",
          "type": "address"
        },
        {
          "indexed": true,
          "internalType": "address",
          "name": "toPoolStakingAddress",
          "type": "address"
        },
        {
          "indexed": true,
          "internalType": "address",
          "name": "staker",
          "type": "address"
        },
        {
          "indexed": true,
          "internalType": "uint256",
          "name": "stakingEpoch",
          "type": "uint256"
        },
        {
          "indexed": false,
          "internalType": "uint256",
          "name": "amount",
          "type": "uint256"
        }
      ],
      "name": "MovedStake",
      "type": "event"
    },
    {
      "anonymous": false,
      "inputs": [
        {
          "indexed": true,
          "internalType": "address",
          "name": "fromPoolStakingAddress",
          "type": "address"
        },
        {
          "indexed": true,
          "internalType": "address",
          "name": "staker",
          "type": "address"
        },
        {
          "indexed": true,
          "internalType": "uint256",
          "name": "stakingEpoch",
          "type": "uint256"
        },
        {
          "indexed": false,
          "internalType": "int256",
          "name": "amount",
          "type": "int256"
        }
      ],
      "name": "OrderedWithdrawal",
      "type": "event"
    },
    {
      "anonymous": false,
      "inputs": [
        {
          "indexed": true,
          "internalType": "address",
          "name": "toPoolStakingAddress",
          "type": "address"
        },
        {
          "indexed": true,
          "internalType": "address",
          "name": "staker",
          "type": "address"
        },
        {
          "indexed": true,
          "internalType": "uint256",
          "name": "stakingEpoch",
          "type": "uint256"
        },
        {
          "indexed": false,
          "internalType": "uint256",
          "name": "amount",
          "type": "uint256"
        }
      ],
      "name": "PlacedStake",
      "type": "event"
    },
    {
      "anonymous": false,
      "inputs": [
        {
          "indexed": true,
          "internalType": "address",
          "name": "fromPoolStakingAddress",
          "type": "address"
        },
        {
          "indexed": true,
          "internalType": "address",
          "name": "staker",
          "type": "address"
        },
        {
          "indexed": true,
          "internalType": "uint256",
          "name": "stakingEpoch",
          "type": "uint256"
        },
        {
          "indexed": false,
          "internalType": "uint256",
          "name": "amount",
          "type": "uint256"
        }
      ],
      "name": "WithdrewStake",
      "type": "event"
    },
    {
      "inputs": [],
      "name": "MAX_CANDIDATES",
      "outputs": [
        {
          "internalType": "uint256",
          "name": "",
          "type": "uint256"
        }
      ],
      "stateMutability": "view",
      "type": "function"
    },
    {
      "inputs": [
        {
          "internalType": "address",
          "name": "_miningAddress",
          "type": "address"
        },
        {
          "internalType": "bytes",
          "name": "_publicKey",
          "type": "bytes"
        },
        {
          "internalType": "bytes16",
          "name": "_ip",
          "type": "bytes16"
        }
      ],
      "name": "addPool",
      "outputs": [],
      "stateMutability": "payable",
      "type": "function"
    },
    {
      "inputs": [
        {
          "internalType": "address",
          "name": "_stakingAddress",
          "type": "address"
        }
      ],
      "name": "addPoolActiveMock",
      "outputs": [],
      "stateMutability": "nonpayable",
      "type": "function"
    },
    {
      "inputs": [
        {
          "internalType": "address",
          "name": "_stakingAddress",
          "type": "address"
        }
      ],
      "name": "addPoolInactiveMock",
      "outputs": [],
      "stateMutability": "nonpayable",
      "type": "function"
    },
    {
      "inputs": [],
      "name": "areStakeAndWithdrawAllowed",
      "outputs": [
        {
          "internalType": "bool",
          "name": "",
          "type": "bool"
        }
      ],
      "stateMutability": "view",
      "type": "function"
    },
    {
      "inputs": [],
      "name": "candidateMinStake",
      "outputs": [
        {
          "internalType": "uint256",
          "name": "",
          "type": "uint256"
        }
      ],
      "stateMutability": "view",
      "type": "function"
    },
    {
      "inputs": [
        {
          "internalType": "address",
          "name": "_poolStakingAddress",
          "type": "address"
        }
      ],
      "name": "claimOrderedWithdraw",
      "outputs": [],
      "stateMutability": "nonpayable",
      "type": "function"
    },
    {
      "inputs": [
        {
          "internalType": "uint256[]",
          "name": "_stakingEpochs",
          "type": "uint256[]"
        },
        {
          "internalType": "address",
          "name": "_poolStakingAddress",
          "type": "address"
        }
      ],
      "name": "claimReward",
      "outputs": [],
      "stateMutability": "nonpayable",
      "type": "function"
    },
    {
      "inputs": [
        {
          "internalType": "address",
          "name": "_poolStakingAddress",
          "type": "address"
        },
        {
          "internalType": "address",
          "name": "_delegator",
          "type": "address"
        },
        {
          "internalType": "uint256",
          "name": "_stakingEpoch",
          "type": "uint256"
        }
      ],
      "name": "clearDelegatorStakeSnapshot",
      "outputs": [],
      "stateMutability": "nonpayable",
      "type": "function"
    },
    {
      "inputs": [
        {
          "internalType": "address",
          "name": "_poolStakingAddress",
          "type": "address"
        },
        {
          "internalType": "address",
          "name": "_staker",
          "type": "address"
        },
        {
          "internalType": "uint256",
          "name": "_epoch",
          "type": "uint256"
        }
      ],
      "name": "clearRewardWasTaken",
      "outputs": [],
      "stateMutability": "nonpayable",
      "type": "function"
    },
    {
      "inputs": [],
      "name": "currentKeyGenExtraTimeWindow",
      "outputs": [
        {
          "internalType": "uint256",
          "name": "",
          "type": "uint256"
        }
      ],
      "stateMutability": "view",
      "type": "function"
    },
    {
      "inputs": [],
      "name": "delegatorMinStake",
      "outputs": [
        {
          "internalType": "uint256",
          "name": "",
          "type": "uint256"
        }
      ],
      "stateMutability": "view",
      "type": "function"
    },
    {
      "inputs": [
        {
          "internalType": "address",
          "name": "",
          "type": "address"
        },
        {
          "internalType": "address",
          "name": "",
          "type": "address"
        },
        {
          "internalType": "uint256",
          "name": "",
          "type": "uint256"
        }
      ],
      "name": "delegatorStakeSnapshot",
      "outputs": [
        {
          "internalType": "uint256",
          "name": "",
          "type": "uint256"
        }
      ],
      "stateMutability": "view",
      "type": "function"
    },
    {
      "inputs": [
        {
          "internalType": "address",
          "name": "_poolAddress",
          "type": "address"
        }
      ],
      "name": "getPoolInternetAddress",
      "outputs": [
        {
          "internalType": "bytes16",
          "name": "",
          "type": "bytes16"
        },
        {
          "internalType": "bytes2",
          "name": "",
          "type": "bytes2"
        }
      ],
      "stateMutability": "view",
      "type": "function"
    },
    {
      "inputs": [
        {
          "internalType": "address",
          "name": "_poolAddress",
          "type": "address"
        }
      ],
      "name": "getPoolPublicKey",
      "outputs": [
        {
          "internalType": "bytes",
          "name": "",
          "type": "bytes"
        }
      ],
      "stateMutability": "view",
      "type": "function"
    },
    {
      "inputs": [],
      "name": "getPools",
      "outputs": [
        {
          "internalType": "address[]",
          "name": "",
          "type": "address[]"
        }
      ],
      "stateMutability": "view",
      "type": "function"
    },
    {
      "inputs": [],
      "name": "getPoolsInactive",
      "outputs": [
        {
          "internalType": "address[]",
          "name": "",
          "type": "address[]"
        }
      ],
      "stateMutability": "view",
      "type": "function"
    },
    {
      "inputs": [],
      "name": "getPoolsLikelihood",
      "outputs": [
        {
          "internalType": "uint256[]",
          "name": "likelihoods",
          "type": "uint256[]"
        },
        {
          "internalType": "uint256",
          "name": "sum",
          "type": "uint256"
        }
      ],
      "stateMutability": "view",
      "type": "function"
    },
    {
      "inputs": [],
      "name": "getPoolsToBeElected",
      "outputs": [
        {
          "internalType": "address[]",
          "name": "",
          "type": "address[]"
        }
      ],
      "stateMutability": "view",
      "type": "function"
    },
    {
      "inputs": [],
      "name": "getPoolsToBeRemoved",
      "outputs": [
        {
          "internalType": "address[]",
          "name": "",
          "type": "address[]"
        }
      ],
      "stateMutability": "view",
      "type": "function"
    },
    {
      "inputs": [
        {
          "internalType": "uint256[]",
          "name": "_stakingEpochs",
          "type": "uint256[]"
        },
        {
          "internalType": "address",
          "name": "_poolStakingAddress",
          "type": "address"
        },
        {
          "internalType": "address",
          "name": "_staker",
          "type": "address"
        }
      ],
      "name": "getRewardAmount",
      "outputs": [
        {
          "internalType": "uint256",
          "name": "",
          "type": "uint256"
        }
      ],
      "stateMutability": "view",
      "type": "function"
    },
    {
      "inputs": [],
      "name": "incrementStakingEpoch",
      "outputs": [],
      "stateMutability": "nonpayable",
      "type": "function"
    },
    {
      "inputs": [
        {
          "components": [
            {
              "internalType": "address",
              "name": "_validatorSetContract",
              "type": "address"
            },
            {
              "internalType": "address[]",
              "name": "_initialStakingAddresses",
              "type": "address[]"
            },
            {
              "internalType": "uint256",
              "name": "_delegatorMinStake",
              "type": "uint256"
            },
            {
              "internalType": "uint256",
              "name": "_candidateMinStake",
              "type": "uint256"
            },
            {
              "internalType": "uint256",
              "name": "_maxStake",
              "type": "uint256"
            },
            {
              "internalType": "uint256",
              "name": "_stakingFixedEpochDuration",
              "type": "uint256"
            },
            {
              "internalType": "uint256",
              "name": "_stakingTransitionTimeframeLength",
              "type": "uint256"
            },
            {
              "internalType": "uint256",
              "name": "_stakingWithdrawDisallowPeriod",
              "type": "uint256"
            }
          ],
          "internalType": "struct IStakingHbbft.StakingParams",
          "name": "stakingParams",
          "type": "tuple"
        },
        {
          "internalType": "bytes32[]",
          "name": "_publicKeys",
          "type": "bytes32[]"
        },
        {
          "internalType": "bytes16[]",
          "name": "_internetAddresses",
          "type": "bytes16[]"
        }
      ],
      "name": "initialize",
      "outputs": [],
      "stateMutability": "nonpayable",
      "type": "function"
    },
    {
      "inputs": [],
      "name": "isInitialized",
      "outputs": [
        {
          "internalType": "bool",
          "name": "",
          "type": "bool"
        }
      ],
      "stateMutability": "view",
      "type": "function"
    },
    {
      "inputs": [
        {
          "internalType": "address",
          "name": "_stakingAddress",
          "type": "address"
        }
      ],
      "name": "isPoolActive",
      "outputs": [
        {
          "internalType": "bool",
          "name": "",
          "type": "bool"
        }
      ],
      "stateMutability": "view",
      "type": "function"
    },
    {
      "inputs": [],
      "name": "maxStakeAmount",
      "outputs": [
        {
          "internalType": "uint256",
          "name": "",
          "type": "uint256"
        }
      ],
      "stateMutability": "view",
      "type": "function"
    },
    {
      "inputs": [
        {
          "internalType": "address",
          "name": "_poolStakingAddress",
          "type": "address"
        },
        {
          "internalType": "address",
          "name": "_staker",
          "type": "address"
        }
      ],
      "name": "maxWithdrawAllowed",
      "outputs": [
        {
          "internalType": "uint256",
          "name": "",
          "type": "uint256"
        }
      ],
      "stateMutability": "view",
      "type": "function"
    },
    {
      "inputs": [
        {
          "internalType": "address",
          "name": "_poolStakingAddress",
          "type": "address"
        },
        {
          "internalType": "address",
          "name": "_staker",
          "type": "address"
        }
      ],
      "name": "maxWithdrawOrderAllowed",
      "outputs": [
        {
          "internalType": "uint256",
          "name": "",
          "type": "uint256"
        }
      ],
      "stateMutability": "view",
      "type": "function"
    },
    {
      "inputs": [
        {
          "internalType": "address",
          "name": "_fromPoolStakingAddress",
          "type": "address"
        },
        {
          "internalType": "address",
          "name": "_toPoolStakingAddress",
          "type": "address"
        },
        {
          "internalType": "uint256",
          "name": "_amount",
          "type": "uint256"
        }
      ],
      "name": "moveStake",
      "outputs": [],
      "stateMutability": "nonpayable",
      "type": "function"
    },
    {
      "inputs": [
        {
          "internalType": "address",
          "name": "_stakingAddress",
          "type": "address"
        }
      ],
      "name": "notifyAvailability",
      "outputs": [],
      "stateMutability": "nonpayable",
      "type": "function"
    },
    {
      "inputs": [],
      "name": "notifyKeyGenFailed",
      "outputs": [],
      "stateMutability": "nonpayable",
      "type": "function"
    },
    {
      "inputs": [
        {
          "internalType": "uint256",
          "name": "detectedOfflineTime",
          "type": "uint256"
        }
      ],
      "name": "notifyNetworkOfftimeDetected",
      "outputs": [],
      "stateMutability": "nonpayable",
      "type": "function"
    },
    {
      "inputs": [
        {
          "internalType": "address",
          "name": "_poolStakingAddress",
          "type": "address"
        },
        {
          "internalType": "int256",
          "name": "_amount",
          "type": "int256"
        }
      ],
      "name": "orderWithdraw",
      "outputs": [],
      "stateMutability": "nonpayable",
      "type": "function"
    },
    {
      "inputs": [
        {
          "internalType": "address",
          "name": "",
          "type": "address"
        },
        {
          "internalType": "address",
          "name": "",
          "type": "address"
        }
      ],
      "name": "orderWithdrawEpoch",
      "outputs": [
        {
          "internalType": "uint256",
          "name": "",
          "type": "uint256"
        }
      ],
      "stateMutability": "view",
      "type": "function"
    },
    {
      "inputs": [
        {
          "internalType": "address",
          "name": "",
          "type": "address"
        },
        {
          "internalType": "address",
          "name": "",
          "type": "address"
        }
      ],
      "name": "orderedWithdrawAmount",
      "outputs": [
        {
          "internalType": "uint256",
          "name": "",
          "type": "uint256"
        }
      ],
      "stateMutability": "view",
      "type": "function"
    },
    {
      "inputs": [
        {
          "internalType": "address",
          "name": "",
          "type": "address"
        }
      ],
      "name": "orderedWithdrawAmountTotal",
      "outputs": [
        {
          "internalType": "uint256",
          "name": "",
          "type": "uint256"
        }
      ],
      "stateMutability": "view",
      "type": "function"
    },
    {
      "inputs": [
        {
          "internalType": "address",
          "name": "",
          "type": "address"
        },
        {
          "internalType": "address",
          "name": "",
          "type": "address"
        }
      ],
      "name": "poolDelegatorInactiveIndex",
      "outputs": [
        {
          "internalType": "uint256",
          "name": "",
          "type": "uint256"
        }
      ],
      "stateMutability": "view",
      "type": "function"
    },
    {
      "inputs": [
        {
          "internalType": "address",
          "name": "",
          "type": "address"
        },
        {
          "internalType": "address",
          "name": "",
          "type": "address"
        }
      ],
      "name": "poolDelegatorIndex",
      "outputs": [
        {
          "internalType": "uint256",
          "name": "",
          "type": "uint256"
        }
      ],
      "stateMutability": "view",
      "type": "function"
    },
    {
      "inputs": [
        {
          "internalType": "address",
          "name": "_poolStakingAddress",
          "type": "address"
        }
      ],
      "name": "poolDelegators",
      "outputs": [
        {
          "internalType": "address[]",
          "name": "",
          "type": "address[]"
        }
      ],
      "stateMutability": "view",
      "type": "function"
    },
    {
      "inputs": [
        {
          "internalType": "address",
          "name": "_poolStakingAddress",
          "type": "address"
        }
      ],
      "name": "poolDelegatorsInactive",
      "outputs": [
        {
          "internalType": "address[]",
          "name": "",
          "type": "address[]"
        }
      ],
      "stateMutability": "view",
      "type": "function"
    },
    {
      "inputs": [
        {
          "internalType": "address",
          "name": "",
          "type": "address"
        }
      ],
      "name": "poolInactiveIndex",
      "outputs": [
        {
          "internalType": "uint256",
          "name": "",
          "type": "uint256"
        }
      ],
      "stateMutability": "view",
      "type": "function"
    },
    {
      "inputs": [
        {
          "internalType": "address",
          "name": "",
          "type": "address"
        }
      ],
      "name": "poolIndex",
      "outputs": [
        {
          "internalType": "uint256",
          "name": "",
          "type": "uint256"
        }
      ],
      "stateMutability": "view",
      "type": "function"
    },
    {
      "inputs": [
        {
          "internalType": "address",
          "name": "",
          "type": "address"
        }
      ],
      "name": "poolInfo",
      "outputs": [
        {
          "internalType": "bytes",
          "name": "publicKey",
          "type": "bytes"
        },
        {
          "internalType": "bytes16",
          "name": "internetAddress",
          "type": "bytes16"
        },
        {
          "internalType": "bytes2",
          "name": "port",
          "type": "bytes2"
        }
      ],
      "stateMutability": "view",
      "type": "function"
    },
    {
      "inputs": [
        {
          "internalType": "address",
          "name": "",
          "type": "address"
        }
      ],
      "name": "poolToBeElectedIndex",
      "outputs": [
        {
          "internalType": "uint256",
          "name": "",
          "type": "uint256"
        }
      ],
      "stateMutability": "view",
      "type": "function"
    },
    {
      "inputs": [
        {
          "internalType": "address",
          "name": "",
          "type": "address"
        }
      ],
      "name": "poolToBeRemovedIndex",
      "outputs": [
        {
          "internalType": "uint256",
          "name": "",
          "type": "uint256"
        }
      ],
      "stateMutability": "view",
      "type": "function"
    },
    {
      "inputs": [],
      "name": "removeMyPool",
      "outputs": [],
      "stateMutability": "nonpayable",
      "type": "function"
    },
    {
      "inputs": [
        {
          "internalType": "address",
          "name": "_stakingAddress",
          "type": "address"
        }
      ],
      "name": "removePool",
      "outputs": [],
      "stateMutability": "nonpayable",
      "type": "function"
    },
    {
      "inputs": [],
      "name": "removePools",
      "outputs": [],
      "stateMutability": "nonpayable",
      "type": "function"
    },
    {
      "inputs": [
        {
          "internalType": "address",
          "name": "",
          "type": "address"
        },
        {
          "internalType": "address",
          "name": "",
          "type": "address"
        },
        {
          "internalType": "uint256",
          "name": "",
          "type": "uint256"
        }
      ],
      "name": "rewardWasTaken",
      "outputs": [
        {
          "internalType": "bool",
          "name": "",
          "type": "bool"
        }
      ],
      "stateMutability": "view",
      "type": "function"
    },
    {
      "inputs": [
        {
          "internalType": "uint256",
          "name": "_minStake",
          "type": "uint256"
        }
      ],
      "name": "setCandidateMinStake",
      "outputs": [],
      "stateMutability": "nonpayable",
      "type": "function"
    },
    {
      "inputs": [
        {
          "internalType": "uint256",
          "name": "_minStake",
          "type": "uint256"
        }
      ],
      "name": "setDelegatorMinStake",
      "outputs": [],
      "stateMutability": "nonpayable",
      "type": "function"
    },
    {
      "inputs": [
        {
          "internalType": "bytes",
          "name": "_publicKey",
          "type": "bytes"
        },
        {
          "internalType": "bytes16",
          "name": "_ip",
          "type": "bytes16"
        },
        {
          "internalType": "bytes2",
          "name": "_port",
          "type": "bytes2"
        }
      ],
      "name": "setPoolInfo",
      "outputs": [],
      "stateMutability": "nonpayable",
      "type": "function"
    },
    {
      "inputs": [
        {
          "internalType": "address",
          "name": "_poolStakingAddress",
          "type": "address"
        },
        {
          "internalType": "uint256",
          "name": "_amount",
          "type": "uint256"
        }
      ],
      "name": "setStakeAmountTotal",
      "outputs": [],
      "stateMutability": "nonpayable",
      "type": "function"
    },
    {
      "inputs": [
        {
          "internalType": "address",
          "name": "_poolStakingAddress",
          "type": "address"
        },
        {
          "internalType": "address",
          "name": "_delegator",
          "type": "address"
        },
        {
          "internalType": "uint256",
          "name": "_value",
          "type": "uint256"
        }
      ],
      "name": "setStakeFirstEpoch",
      "outputs": [],
      "stateMutability": "nonpayable",
      "type": "function"
    },
    {
      "inputs": [
        {
          "internalType": "address",
          "name": "_poolStakingAddress",
          "type": "address"
        },
        {
          "internalType": "address",
          "name": "_delegator",
          "type": "address"
        },
        {
          "internalType": "uint256",
          "name": "_value",
          "type": "uint256"
        }
      ],
      "name": "setStakeLastEpoch",
      "outputs": [],
      "stateMutability": "nonpayable",
      "type": "function"
    },
    {
      "inputs": [
        {
          "internalType": "uint256",
          "name": "_stakingEpoch",
          "type": "uint256"
        }
      ],
      "name": "setStakingEpoch",
      "outputs": [],
      "stateMutability": "nonpayable",
      "type": "function"
    },
    {
      "inputs": [
        {
          "internalType": "uint256",
          "name": "_timestamp",
          "type": "uint256"
        }
      ],
      "name": "setStakingEpochStartTime",
      "outputs": [],
      "stateMutability": "nonpayable",
      "type": "function"
    },
    {
      "inputs": [
        {
          "internalType": "address",
          "name": "_validatorAddress",
          "type": "address"
        },
        {
          "internalType": "bytes16",
          "name": "_ip",
          "type": "bytes16"
        },
        {
          "internalType": "bytes2",
          "name": "_port",
          "type": "bytes2"
        }
      ],
      "name": "setValidatorInternetAddress",
      "outputs": [],
      "stateMutability": "nonpayable",
      "type": "function"
    },
    {
      "inputs": [
        {
          "internalType": "contract IValidatorSetHbbft",
          "name": "_validatorSetAddress",
          "type": "address"
        }
      ],
      "name": "setValidatorMockSetAddress",
      "outputs": [],
      "stateMutability": "nonpayable",
      "type": "function"
    },
    {
      "inputs": [
        {
          "internalType": "contract IValidatorSetHbbft",
          "name": "_validatorSetAddress",
          "type": "address"
        }
      ],
      "name": "setValidatorSetAddress",
      "outputs": [],
      "stateMutability": "nonpayable",
      "type": "function"
    },
    {
      "inputs": [
        {
          "internalType": "address",
          "name": "_toPoolStakingAddress",
          "type": "address"
        }
      ],
      "name": "stake",
      "outputs": [],
      "stateMutability": "payable",
      "type": "function"
    },
    {
      "inputs": [
        {
          "internalType": "address",
          "name": "",
          "type": "address"
        },
        {
          "internalType": "address",
          "name": "",
          "type": "address"
        }
      ],
      "name": "stakeAmount",
      "outputs": [
        {
          "internalType": "uint256",
          "name": "",
          "type": "uint256"
        }
      ],
      "stateMutability": "view",
      "type": "function"
    },
    {
      "inputs": [
        {
          "internalType": "address",
          "name": "_poolStakingAddress",
          "type": "address"
        },
        {
          "internalType": "address",
          "name": "_staker",
          "type": "address"
        }
      ],
      "name": "stakeAmountByCurrentEpoch",
      "outputs": [
        {
          "internalType": "uint256",
          "name": "",
          "type": "uint256"
        }
      ],
      "stateMutability": "view",
      "type": "function"
    },
    {
      "inputs": [
        {
          "internalType": "address",
          "name": "",
          "type": "address"
        }
      ],
      "name": "stakeAmountTotal",
      "outputs": [
        {
          "internalType": "uint256",
          "name": "",
          "type": "uint256"
        }
      ],
      "stateMutability": "view",
      "type": "function"
    },
    {
      "inputs": [
        {
          "internalType": "address",
          "name": "",
          "type": "address"
        },
        {
          "internalType": "address",
          "name": "",
          "type": "address"
        }
      ],
      "name": "stakeFirstEpoch",
      "outputs": [
        {
          "internalType": "uint256",
          "name": "",
          "type": "uint256"
        }
      ],
      "stateMutability": "view",
      "type": "function"
    },
    {
      "inputs": [
        {
          "internalType": "address",
          "name": "",
          "type": "address"
        },
        {
          "internalType": "address",
          "name": "",
          "type": "address"
        }
      ],
      "name": "stakeLastEpoch",
      "outputs": [
        {
          "internalType": "uint256",
          "name": "",
          "type": "uint256"
        }
      ],
      "stateMutability": "view",
      "type": "function"
    },
    {
      "inputs": [],
      "name": "stakingEpoch",
      "outputs": [
        {
          "internalType": "uint256",
          "name": "",
          "type": "uint256"
        }
      ],
      "stateMutability": "view",
      "type": "function"
    },
    {
      "inputs": [],
      "name": "stakingEpochStartBlock",
      "outputs": [
        {
          "internalType": "uint256",
          "name": "",
          "type": "uint256"
        }
      ],
      "stateMutability": "view",
      "type": "function"
    },
    {
      "inputs": [],
      "name": "stakingEpochStartTime",
      "outputs": [
        {
          "internalType": "uint256",
          "name": "",
          "type": "uint256"
        }
      ],
      "stateMutability": "view",
      "type": "function"
    },
    {
      "inputs": [],
      "name": "stakingFixedEpochDuration",
      "outputs": [
        {
          "internalType": "uint256",
          "name": "",
          "type": "uint256"
        }
      ],
      "stateMutability": "view",
      "type": "function"
    },
    {
      "inputs": [],
      "name": "stakingFixedEpochEndTime",
      "outputs": [
        {
          "internalType": "uint256",
          "name": "",
          "type": "uint256"
        }
      ],
      "stateMutability": "view",
      "type": "function"
    },
    {
      "inputs": [],
      "name": "stakingTransitionTimeframeLength",
      "outputs": [
        {
          "internalType": "uint256",
          "name": "",
          "type": "uint256"
        }
      ],
      "stateMutability": "view",
      "type": "function"
    },
    {
      "inputs": [],
      "name": "stakingWithdrawDisallowPeriod",
      "outputs": [
        {
          "internalType": "uint256",
          "name": "",
          "type": "uint256"
        }
      ],
      "stateMutability": "view",
      "type": "function"
    },
    {
      "inputs": [],
      "name": "startTimeOfNextPhaseTransition",
      "outputs": [
        {
          "internalType": "uint256",
          "name": "",
          "type": "uint256"
        }
      ],
      "stateMutability": "view",
      "type": "function"
    },
    {
      "inputs": [],
      "name": "validatorSetContract",
      "outputs": [
        {
          "internalType": "contract IValidatorSetHbbft",
          "name": "",
          "type": "address"
        }
      ],
      "stateMutability": "view",
      "type": "function"
    },
    {
      "inputs": [
        {
          "internalType": "address",
          "name": "_fromPoolStakingAddress",
          "type": "address"
        },
        {
          "internalType": "uint256",
          "name": "_amount",
          "type": "uint256"
        }
      ],
      "name": "withdraw",
      "outputs": [],
      "stateMutability": "nonpayable",
      "type": "function"
    },
    {
      "stateMutability": "payable",
      "type": "receive"
    }
  ],
  "bytecode": "0x608060405234801561001057600080fd5b5061714080620000216000396000f3fe608060405260043610620005725760003560e01c8063862be28711620002c9578063cfef1441116200017a578063eb3efa1611620000e7578063f3fef3a31162000095578063fa4aaf471162000078578063fa4aaf471462001221578063fb367a9b1462001252578063ffada862146200127757600080fd5b8063f3fef3a314620011e6578063f4942501146200120b57600080fd5b8063edf94b8211620000ca578063edf94b821462001185578063ee435f5514620011b6578063f078609614620011ce57600080fd5b8063eb3efa16146200112c578063edd7db75146200116d57600080fd5b8063df6f55f51162000145578063e2a43cd91162000128578063e2a43cd91462001075578063e5b1d59314620010af578063e9ab030014620010f057600080fd5b8063df6f55f51462001022578063dfc8bf4e146200103a57600080fd5b8063cfef14411462000f9c578063d290c21d1462000fc1578063da7a9b6a1462000fd9578063dadee88a1462000ff157600080fd5b8063a5d54f651162000236578063b42754a511620001e4578063bc9eb2c311620001c7578063bc9eb2c31462000efd578063bd30d31d1462000f39578063c6912cc01462000f8457600080fd5b8063b42754a51462000ea7578063b61ed63a1462000ed857600080fd5b8063a711e6a11162000219578063a711e6a11462000e52578063adddc0cf1462000e77578063ae1aaf801462000e8f57600080fd5b8063a5d54f651462000dfe578063a697ecff1462000e1657600080fd5b80639a7b5f1111620002945780639e72c63511620002775780639e72c6351462000d785780639ea8082b1462000d9d578063a42059671462000dc257600080fd5b80639a7b5f111462000d2a5780639b03d7441462000d6057600080fd5b8063862be2871462000c7c578063950a65131462000ca15780639518c4811462000cc6578063957950a71462000d0257600080fd5b80635267e1d61162000424578063673a2a1f1162000391578063750dd2a1116200033f5780637b0a0f9b11620003225780637b0a0f9b1462000c0d5780637b15b94c1462000c325780638247a2391462000c5757600080fd5b8063750dd2a11462000ba1578063794c0c681462000bf557600080fd5b80636eda21dc11620003745780636eda21dc1462000b0d5780637069e7461462000b6457806373c218031462000b7c57600080fd5b8063673a2a1f1462000ac15780636bda15771462000ae857600080fd5b80635d80ca3211620003ef578063611d760c11620003d2578063611d760c1462000a20578063642131471462000a45578063651139181462000a9057600080fd5b80635d80ca3214620009f05780635fef76431462000a0857600080fd5b80635267e1d614620009495780635659b742146200097957806356e4d6c214620009b55780635ca2b65014620009cc57600080fd5b80632bafde8d11620004e05780633ea15d62116200048e5780634cf83f9c11620004715780634cf83f9c14620008d85780634e9b426d14620008fd5780634f9a8d8f146200093157600080fd5b80633ea15d62146200088e57806348aaa4a214620008b357600080fd5b8063379b046a11620004c3578063379b046a146200082f578063392e53cd14620008475780633b7d0946146200086957600080fd5b80632bafde8d14620007b45780633172773014620007d957600080fd5b80631555371c116200053e57806322e3d986116200052157806322e3d9861462000760578063251441a9146200077857806326476204146200079d57600080fd5b80631555371c14620006c75780631fb31e4314620006df57600080fd5b80622ceebc14620005ca578063028b8bdb146200061f57806303a8106514620006375780630868c0d6146200068b57600080fd5b36620005c55760405162461bcd60e51b815260206004820152600b60248201527f4e6f742070617961626c6500000000000000000000000000000000000000000060448201526064015b60405180910390fd5b600080fd5b348015620005d757600080fd5b506200060c620005e93660046200660e565b600b60209081526000938452604080852082529284528284209052825290205481565b6040519081526020015b60405180910390f35b3480156200062c57600080fd5b506200060c60195481565b3480156200064457600080fd5b5062000689620006563660046200660e565b6001600160a01b039283166000908152600b60209081526040808320949095168252928352838120918152915290812055565b005b3480156200069857600080fd5b506200060c620006aa36600462006654565b600f60209081526000928352604080842090915290825290205481565b348015620006d457600080fd5b50620006896200129c565b348015620006ec57600080fd5b506200072d620006fe36600462006692565b6001600160a01b0316600090815260226020526040902060010154608081901b91600160801b90910460f01b90565b604080516fffffffffffffffffffffffffffffffff1990931683526001600160f01b031990911660208301520162000616565b3480156200076d57600080fd5b506200060c620013b0565b3480156200078557600080fd5b5062000689620007973660046200660e565b620013ff565b62000689620007ae36600462006692565b6200158e565b348015620007c157600080fd5b5062000689620007d3366004620066b2565b620015e4565b348015620007e657600080fd5b506200081e620007f83660046200660e565b601560209081526000938452604080852082529284528284209052825290205460ff1681565b604051901515815260200162000616565b3480156200083c57600080fd5b506200060c601f5481565b3480156200085457600080fd5b506021546001600160a01b031615156200081e565b3480156200087657600080fd5b50620006896200088836600462006692565b620016d6565b3480156200089b57600080fd5b5062000689620008ad366004620067b0565b6200174a565b348015620008c057600080fd5b5062000689620008d2366004620066b2565b62001e2a565b348015620008e557600080fd5b5062000689620008f73660046200684c565b62001f1c565b3480156200090a57600080fd5b50620009226200091c36600462006692565b6200229f565b6040516200061691906200693b565b3480156200093e57600080fd5b506200060c601b5481565b3480156200095657600080fd5b506200060c6200096836600462006692565b602080526000908152604090205481565b3480156200098657600080fd5b506200060c6200099836600462006654565b601760209081526000928352604080842090915290825290205481565b62000689620009c6366004620069bc565b62002353565b348015620009d957600080fd5b5062000689620009eb366004620066b2565b601a55565b348015620009fd57600080fd5b506200060c60235481565b34801562000a1557600080fd5b506200060c60095481565b34801562000a2d57600080fd5b506200068962000a3f36600462006692565b62002474565b34801562000a5257600080fd5b506200068962000a643660046200660e565b6001600160a01b0392831660009081526018602090815260408083209490951682529290925291902055565b34801562000a9d57600080fd5b506200060c62000aaf36600462006692565b60116020526000908152604090205481565b34801562000ace57600080fd5b5062000ad962002481565b60405162000616919062006a2b565b34801562000af557600080fd5b506200060c62000b0736600462006654565b620024e5565b34801562000b1a57600080fd5b506200068962000b2c3660046200660e565b6001600160a01b039283166000908152601560209081526040808320949095168252928352838120918152915220805460ff19169055565b34801562000b7157600080fd5b506200060c601e5481565b34801562000b8957600080fd5b5062000ad962000b9b36600462006692565b62002676565b34801562000bae57600080fd5b506200060c62000bc036600462006654565b6001600160a01b039182166000908152600860209081526040808320939094168252918252828120601a548252909152205490565b34801562000c0257600080fd5b506200060c601a5481565b34801562000c1a57600080fd5b506200068962000c2c36600462006a93565b620026ed565b34801562000c3f57600080fd5b506200068962000c5136600462006692565b620027a6565b34801562000c6457600080fd5b506200068962000c76366004620066b2565b6200284e565b34801562000c8957600080fd5b506200068962000c9b36600462006adf565b620028bd565b34801562000cae57600080fd5b506200060c62000cc036600462006654565b62002922565b34801562000cd357600080fd5b506200060c62000ce536600462006654565b601060209081526000928352604080842090915290825290205481565b34801562000d0f57600080fd5b5062000d1a62002aa5565b6040516200061692919062006b41565b34801562000d3757600080fd5b5062000d4f62000d4936600462006692565b62002b0a565b604051620006169392919062006b8b565b34801562000d6d57600080fd5b506200060c601d5481565b34801562000d8557600080fd5b506200068962000d97366004620066b2565b62002bc6565b34801562000daa57600080fd5b5062000ad962000dbc36600462006692565b62002c51565b34801562000dcf57600080fd5b506200060c62000de136600462006654565b600e60209081526000928352604080842090915290825290205481565b34801562000e0b57600080fd5b5062000ad962002cc7565b34801562000e2357600080fd5b506200060c62000e3536600462006654565b601660209081526000928352604080842090915290825290205481565b34801562000e5f57600080fd5b506200081e62000e7136600462006692565b62002d29565b34801562000e8457600080fd5b506200068962002d8c565b34801562000e9c57600080fd5b506200060c601c5481565b34801562000eb457600080fd5b506200060c62000ec636600462006692565b60126020526000908152604090205481565b34801562000ee557600080fd5b506200068962000ef736600462006bd4565b62002e0f565b34801562000f0a57600080fd5b506200060c62000f1c36600462006654565b601860209081526000928352604080842090915290825290205481565b34801562000f4657600080fd5b506200068962000f583660046200660e565b6001600160a01b0392831660009081526017602090815260408083209490951682529290925291902055565b34801562000f9157600080fd5b506200060c62003427565b34801562000fa957600080fd5b506200068962000fbb36600462006692565b6200344f565b34801562000fce57600080fd5b5062000ad9620037e9565b34801562000fe657600080fd5b506200060c600a5481565b34801562000ffe57600080fd5b506200060c6200101036600462006692565b600d6020526000908152604090205481565b3480156200102f57600080fd5b5062000ad96200384b565b3480156200104757600080fd5b506021546200105c906001600160a01b031681565b6040516001600160a01b03909116815260200162000616565b3480156200108257600080fd5b50620006896200109436600462006bd4565b6001600160a01b039091166000908152602080526040902055565b348015620010bc57600080fd5b5062000689620010ce36600462006692565b602480546001600160a01b0319166001600160a01b0392909216919091179055565b348015620010fd57600080fd5b506200060c6200110f36600462006654565b600c60209081526000928352604080842090915290825290205481565b3480156200113957600080fd5b50620006896200114b36600462006692565b602180546001600160a01b0319166001600160a01b0392909216919091179055565b3480156200117a57600080fd5b5062000689620038ad565b3480156200119257600080fd5b506200060c620011a436600462006692565b60146020526000908152604090205481565b348015620011c357600080fd5b506200068962003ab8565b348015620011db57600080fd5b506200060c610bb881565b348015620011f357600080fd5b50620006896200120536600462006bd4565b62003b3c565b3480156200121857600080fd5b5060016200081e565b3480156200122e57600080fd5b506200060c6200124036600462006692565b60136020526000908152604090205481565b3480156200125f57600080fd5b506200060c6200127136600462006c03565b62003c36565b3480156200128457600080fd5b50620006896200129636600462006692565b620041b2565b6021546001600160a01b0316331480620012c057506024546001600160a01b031633145b620013025760405162461bcd60e51b815260206004820152601160248201527013db9b1e4815985b1a59185d1bdc94d95d607a1b6044820152606401620005bc565b600060038054806020026020016040519081016040528092919081815260200182805480156200135c57602002820191906000526020600020905b81546001600160a01b031681526001909101906020018083116200133d575b5050505050905060005b8151811015620013ac576200139782828151811062001389576200138962006c6f565b6020026020010151620041bd565b80620013a38162006c9b565b91505062001366565b5050565b601d54601b546000919015620013c8576001620013cb565b60005b60ff16601f54601b5483620013e1919062006cb7565b620013ed919062006cb7565b620013f9919062006ccd565b91505090565b3a600003620014415760405162461bcd60e51b815260206004820152600d60248201526c04761735072696365206973203609c1b6044820152606401620005bc565b6021546001600160a01b0316620014965760405162461bcd60e51b815260206004820152601860248201527710dbdb9d1c9858dd081b9bdd081a5b9a5d1a585b1a5e995960421b6044820152606401620005bc565b816001600160a01b0316836001600160a01b0316036200151f5760405162461bcd60e51b815260206004820152602760248201527f4d6f76655374616b653a2073726320616e642064737420706f6f6c206973207460448201527f68652073616d65000000000000000000000000000000000000000000000000006064820152608401620005bc565b336200152d84828462004333565b6200153a83828462004683565b601a54604080516001600160a01b0387811682526020820186905280851692908716917f4480d8e4b1e9095b94bf513961d26fe1d32386ebdd103d18fe8738cf4b2223ff910160405180910390a450505050565b3a600003620015d05760405162461bcd60e51b815260206004820152600d60248201526c04761735072696365206973203609c1b6044820152606401620005bc565b3334620015df83838362004683565b505050565b7fb53127684a568b3173ae13b9f8a6016e243e63b6e8ee1178d6a717850b5d6103546001600160a01b0316336001600160a01b0316146200167c5760405162461bcd60e51b815260206004820152602b60248201527f6f6e6c792061646d696e20697320616c6c6f77656420746f2063616c6c20746860448201526a34b990333ab731ba34b7b760a91b6064820152608401620005bc565b6021546001600160a01b0316620016d15760405162461bcd60e51b815260206004820152601860248201527710dbdb9d1c9858dd081b9bdd081a5b9a5d1a585b1a5e995960421b6044820152606401620005bc565b600a55565b6021546001600160a01b0316331480620016fa57506024546001600160a01b031633145b6200173c5760405162461bcd60e51b815260206004820152601160248201527013db9b1e4815985b1a59185d1bdc94d95d607a1b6044820152606401620005bc565b6200174781620041bd565b50565b3a6000036200178c5760405162461bcd60e51b815260206004820152600d60248201526c04761735072696365206973203609c1b6044820152606401620005bc565b6021546001600160a01b0316620017e15760405162461bcd60e51b815260206004820152601860248201527710dbdb9d1c9858dd081b9bdd081a5b9a5d1a585b1a5e995960421b6044820152606401620005bc565b336000806001600160a01b038416831462001899576001600160a01b0380851660009081526017602090815260408083209387168352929052908120549250829003620018715760405162461bcd60e51b815260206004820152601d60248201527f436c61696d3a2066697273742065706f63682063616e277420626520300000006044820152606401620005bc565b506001600160a01b038084166000908152601860209081526040808320938616835292905220545b60215460408051632b5aa5d760e11b815290516000926001600160a01b0316916356b54bae9160048083019260209291908290030181865afa158015620018e4573d6000803e3d6000fd5b505050506040513d601f19601f820116820180604052508101906200190a919062006ce3565b6021546040516253517560e01b81526001600160a01b038881166004830152929350600092909116906253517590602401602060405180830381865afa15801562001959573d6000803e3d6000fd5b505050506040513d601f19601f820116820180604052508101906200197f919062006ce3565b9050600080885160000362001a025760405163dd03f5b960e01b81526001600160a01b03848116600483015285169063dd03f5b990602401600060405180830381865afa158015620019d5573d6000803e3d6000fd5b505050506040513d6000823e601f3d908101601f19168201604052620019ff919081019062006d03565b98505b60005b895181101562001dba5760008a828151811062001a265762001a2662006c6f565b60200260200101519050816000148062001a6757508a62001a4960018462006ccd565b8151811062001a5c5762001a5c62006c6f565b602002602001015181115b62001adb5760405162461bcd60e51b815260206004820152602560248201527f436c61696d3a206e656564207374726963746c7920696e6372656173696e672060448201527f6f726465720000000000000000000000000000000000000000000000000000006064820152608401620005bc565b601a54811062001b2e5760405162461bcd60e51b815260206004820181905260248201527f436c61696d3a206f6e6c79206265666f72652063757272656e742065706f63686044820152606401620005bc565b6001600160a01b03808b166000908152601560209081526040808320938d1683529281528282208483529052205460ff161562001b6c575062001da5565b6000896001600160a01b03168b6001600160a01b03161462001c5c578882101562001b9957505062001da5565b81881115801562001ba957508715155b1562001bb757505062001dba565b62001bc6828a868e8e62004c72565b935062001bd582600162006cb7565b604051631c3572db60e31b815260048101869052602481018490526001600160a01b038881166044830152919a509088169063e1ab96d890606401602060405180830381865afa15801562001c2e573d6000803e3d6000fd5b505050506040513d601f19601f8201168201806040525081019062001c54919062006d9d565b905062001cd3565b60405163ba2d759760e01b8152600481018390526001600160a01b03878116602483015288169063ba2d759790604401602060405180830381865afa15801562001caa573d6000803e3d6000fd5b505050506040513d601f19601f8201168201806040525081019062001cd0919062006d9d565b90505b62001cdf818662006cb7565b94506001601560008d6001600160a01b03166001600160a01b0316815260200190815260200160002060008c6001600160a01b03166001600160a01b03168152602001908152602001600020600084815260200190815260200160002060006101000a81548160ff021916908315150217905550818a6001600160a01b03168c6001600160a01b03167fd3208fd5300db64b97bc442f47ade72b7ebcd9272aaecdcc04c777bb762861b98460405162001d9a91815260200190565b60405180910390a450505b8062001db18162006c9b565b91505062001a05565b5060405163234a83e360e11b8152600481018390526001600160a01b03888116602483015285169063469507c690604401600060405180830381600087803b15801562001e0657600080fd5b505af115801562001e1b573d6000803e3d6000fd5b50505050505050505050505050565b7fb53127684a568b3173ae13b9f8a6016e243e63b6e8ee1178d6a717850b5d6103546001600160a01b0316336001600160a01b03161462001ec25760405162461bcd60e51b815260206004820152602b60248201527f6f6e6c792061646d696e20697320616c6c6f77656420746f2063616c6c20746860448201526a34b990333ab731ba34b7b760a91b6064820152608401620005bc565b6021546001600160a01b031662001f175760405162461bcd60e51b815260206004820152601860248201527710dbdb9d1c9858dd081b9bdd081a5b9a5d1a585b1a5e995960421b6044820152606401620005bc565b600955565b8460a0013560000362001f725760405162461bcd60e51b815260206004820152601760248201527f466978656445706f63684475726174696f6e20697320300000000000000000006044820152606401620005bc565b8460e001358560a001351162001ff15760405162461bcd60e51b815260206004820152603d60248201527f466978656445706f63684475726174696f6e206d757374206265206c6f6e676560448201527f72207468616e207769746864726177446973616c6c6f77506572696f640000006064820152608401620005bc565b8460e00135600003620020475760405162461bcd60e51b815260206004820152601b60248201527f5769746864726177446973616c6c6f77506572696f64206973203000000000006044820152606401620005bc565b8460c00135600003620020c35760405162461bcd60e51b815260206004820152602e60248201527f546865207472616e736974696f6e2074696d656672616d65206d75737420626560448201527f206c6f6e676572207468616e20300000000000000000000000000000000000006064820152608401620005bc565b8460a001358560c001351062002144576040805162461bcd60e51b81526020600482015260248101919091527f546865207472616e736974696f6e2074696d656672616d65206d75737420626560448201527f2073686f72746572207468656e207468652065706f6368206475726174696f6e6064820152608401620005bc565b6200220e62002157602087018762006692565b62002166602088018862006db7565b8080602002602001604051908101604052809392919081815260200183836020028082843760009201919091525050604080516020808b02828101820184528b8352928d0135945060608d0135935060808d0135928c918c91829185019084908082843760009201919091525050604080516020808d0282810182019093528c82529093508c92508b91829185019084908082843760009201919091525062004cf592505050565b60a0850135601b5560e085013560195560215460408051636c9230db60e01b815290516001600160a01b0390921691636c9230db916004808201926020929091908290030181865afa15801562002269573d6000803e3d6000fd5b505050506040513d601f19601f820116820180604052508101906200228f919062006d9d565b601d555050505060c00135601c55565b6001600160a01b0381166000908152602260205260409020805460609190620022c89062006e04565b80601f0160208091040260200160405190810160405280929190818152602001828054620022f69062006e04565b8015620023475780601f106200231b5761010080835404028352916020019162002347565b820191906000526020600020905b8154815290600101906020018083116200232957829003601f168201915b50505050509050919050565b3a600003620023955760405162461bcd60e51b815260206004820152600d60248201526c04761735072696365206973203609c1b6044820152606401620005bc565b602154604051630526083960e11b81526001600160a01b0386811660048301523360248301819052923492911690630a4c107290604401600060405180830381600087803b158015620023e757600080fd5b505af1158015620023fc573d6000803e3d6000fd5b505050506200240d82838362004683565b6001600160a01b03821660009081526022602052604090206200243285878362006e8a565b50506001600160a01b0316600090815260226020526040902060010180546fffffffffffffffffffffffffffffffff191660809290921c919091179055505050565b62001747816001620053f3565b60606000805480602002602001604051908101604052809291908181526020018280548015620024db57602002820191906000526020600020905b81546001600160a01b03168152600190910190602001808311620024bc575b5050505050905090565b6021546040516253517560e01b81526001600160a01b03848116600483015260009283929116906253517590602401602060405180830381865afa15801562002532573d6000803e3d6000fd5b505050506040513d601f19601f8201168201806040525081019062002558919062006ce3565b90506200257b81846001600160a01b0316866001600160a01b03161415620054ce565b6200258b57600091505062002670565b6001600160a01b03848116600090815260166020908152604080832087851684529091529081902054602154915163a0d16cad60e01b815284841660048201529092919091169063a0d16cad90602401602060405180830381865afa158015620025f9573d6000803e3d6000fd5b505050506040513d601f19601f820116820180604052508101906200261f919062006f57565b6200262e579150620026709050565b6001600160a01b0385811660009081526008602090815260408083209388168352928152828220601a54835290522054808211156200266b578091505b509150505b92915050565b6001600160a01b0381166000908152600760209081526040918290208054835181840281018401909452808452606093928301828280156200234757602002820191906000526020600020905b81546001600160a01b03168152600190910190602001808311620026c35750505050509050919050565b6021546001600160a01b03163314806200271157506024546001600160a01b031633145b620027535760405162461bcd60e51b815260206004820152601160248201527013db9b1e4815985b1a59185d1bdc94d95d607a1b6044820152606401620005bc565b6001600160a01b039092166000908152602260205260409020600101805460f09390931c600160801b0271ffffffffffffffffffffffffffffffffffff1990931660809290921c91909117919091179055565b6021546001600160a01b0316331480620027ca57506024546001600160a01b031633145b6200280c5760405162461bcd60e51b815260206004820152601160248201527013db9b1e4815985b1a59185d1bdc94d95d607a1b6044820152606401620005bc565b6009546001600160a01b038216600090815260166020908152604080832090915290205410620017475762002843816001620053f3565b6200174781620055e6565b6021546001600160a01b03163314806200287257506024546001600160a01b031633145b620028b45760405162461bcd60e51b815260206004820152601160248201527013db9b1e4815985b1a59185d1bdc94d95d607a1b6044820152606401620005bc565b601d5543601e55565b336000908152602260205260409020620028d984868362006e8a565b50336000908152602260205260409020600101805460f09290921c600160801b0271ffffffffffffffffffffffffffffffffffff1990921660809390931c929092171790555050565b6021546040516253517560e01b81526001600160a01b03848116600483015260009283929116906253517590602401602060405180830381865afa1580156200296f573d6000803e3d6000fd5b505050506040513d601f19601f8201168201806040525081019062002995919062006ce3565b9050620029b881846001600160a01b0316866001600160a01b03161415620054ce565b620029c857600091505062002670565b60215460405163a0d16cad60e01b81526001600160a01b0383811660048301529091169063a0d16cad90602401602060405180830381865afa15801562002a13573d6000803e3d6000fd5b505050506040513d601f19601f8201168201806040525081019062002a39919062006f57565b62002a4957600091505062002670565b6001600160a01b038481166000818152600860209081526040808320948816808452948252808320601a54845282528083205493835260168252808320948352939052919091205462002a9d919062006ccd565b949350505050565b6060600060046005548180548060200260200160405190810160405280929190818152602001828054801562002afb57602002820191906000526020600020905b81548152602001906001019080831162002ae6575b50505050509150915091509091565b60226020526000908152604090208054819062002b279062006e04565b80601f016020809104026020016040519081016040528092919081815260200182805462002b559062006e04565b801562002ba65780601f1062002b7a5761010080835404028352916020019162002ba6565b820191906000526020600020905b81548152906001019060200180831162002b8857829003601f168201915b50505060019093015491925050608081901b90600160801b900460f01b83565b6021546001600160a01b031633148062002bea57506024546001600160a01b031633145b62002c2c5760405162461bcd60e51b815260206004820152601160248201527013db9b1e4815985b1a59185d1bdc94d95d607a1b6044820152606401620005bc565b601c5481601f5462002c3f919062006cb7565b62002c4b919062006cb7565b601f5550565b6001600160a01b03811660009081526006602090815260409182902080548351818402810184019094528084526060939283018282801562002347576020028201919060005260206000209081546001600160a01b03168152600190910190602001808311620026c35750505050509050919050565b60606002805480602002602001604051908101604052809291908181526020018280548015620024db576020028201919060005260206000209081546001600160a01b03168152600190910190602001808311620024bc575050505050905090565b6001600160a01b03811660009081526012602052604081205481548110801562002d855750826001600160a01b03166000828154811062002d6e5762002d6e62006c6f565b6000918252602090912001546001600160a01b0316145b9392505050565b6021546001600160a01b031633148062002db057506024546001600160a01b031633145b62002df25760405162461bcd60e51b815260206004820152601160248201527013db9b1e4815985b1a59185d1bdc94d95d607a1b6044820152606401620005bc565b601c54601f600082825462002e08919062006cb7565b9091555050565b3a60000362002e515760405162461bcd60e51b815260206004820152600d60248201526c04761735072696365206973203609c1b6044820152606401620005bc565b6021546001600160a01b031662002ea65760405162461bcd60e51b815260206004820152601860248201527710dbdb9d1c9858dd081b9bdd081a5b9a5d1a585b1a5e995960421b6044820152606401620005bc565b6001600160a01b03821662002f095760405162461bcd60e51b815260206004820152602260248201527f706f6f6c5374616b696e6741646472657373206d757374206e6f742062652030604482015261078360f41b6064820152608401620005bc565b8060000362002f815760405162461bcd60e51b815260206004820152602560248201527f6f72646572656420776974686472617720616d6f756e74206d757374206e6f7460448201527f20626520300000000000000000000000000000000000000000000000000000006064820152608401620005bc565b6021546040516253517560e01b81526001600160a01b038481166004830152339262003012929116906253517590602401602060405180830381865afa15801562002fd0573d6000803e3d6000fd5b505050506040513d601f19601f8201168201806040525081019062002ff6919062006ce3565b846001600160a01b0316836001600160a01b03161415620054ce565b620030605760405162461bcd60e51b815260206004820152601a60248201527f4f7264657257697468647261773a206e6f7420616c6c6f7765640000000000006044820152606401620005bc565b6001600160a01b038084166000818152600c6020908152604080832094861680845294825280832054848452600d835281842054601684528285209685529583528184205494845291805282205490939291861315620031a75785620030c7888762002922565b8111156200313e5760405162461bcd60e51b815260206004820152602f60248201527f4f7264657257697468647261773a206d617857697468647261774f726465724160448201527f6c6c6f77656420657863656564656400000000000000000000000000000000006064820152608401620005bc565b6200314a818662006cb7565b945062003158818562006cb7565b935062003166818462006ccd565b925062003174818362006ccd565b601a546001600160a01b03808b166000908152600e60209081526040808320938c16835292905220559150620031f09050565b6000620031b48762006f7b565b9050620031c2818662006ccd565b9450620031d0818562006ccd565b9350620031de818462006cb7565b9250620031ec818362006cb7565b9150505b6001600160a01b038088166000818152600c60209081526040808320948a16808452948252808320899055838352600d82528083208890556016825280832085845282528083208790558383529080529020839055900362003301578115806200325c57506009548210155b620032d05760405162461bcd60e51b815260206004820152603360248201527f6e65775374616b6520416d6f756e74206d75737420626520677265617465722060448201527f7468616e20746865206d696e207374616b652e000000000000000000000000006064820152608401620005bc565b6000861315620032f45781600003620032ee57620032ee87620056c7565b620033c2565b620032ee876001620053f3565b811580620033115750600a548210155b620033855760405162461bcd60e51b815260206004820152603360248201527f6e65775374616b6520416d6f756e74206d75737420626520677265617465722060448201527f7468616e20746865206d696e207374616b652e000000000000000000000000006064820152608401620005bc565b6000861315620033aa5781600003620033a457620033a4878662005792565b620033b6565b620033b687866200593c565b620033c2878662005a0b565b620033cd87620055e6565b601a54856001600160a01b0316886001600160a01b03167f80d5c777e5f7ac6ee89723223803ca5c0ec0204f89e99c1b0cde973c66a64594896040516200341691815260200190565b60405180910390a450505050505050565b6000601c54601b54601d546200343e919062006cb7565b6200344a919062006ccd565b905090565b3a600003620034915760405162461bcd60e51b815260206004820152600d60248201526c04761735072696365206973203609c1b6044820152606401620005bc565b6021546001600160a01b0316620034e65760405162461bcd60e51b815260206004820152601860248201527710dbdb9d1c9858dd081b9bdd081a5b9a5d1a585b1a5e995960421b6044820152606401620005bc565b6001600160a01b0381166000908152600e6020908152604080832033808552925290912054601a5411620035835760405162461bcd60e51b815260206004820152603f60248201527f63616e6e6f7420636c61696d206f72646572656420776974686472617720696e60448201527f207468652073616d652065706f636820697420776173206f7264657265642e006064820152608401620005bc565b6021546040516253517560e01b81526001600160a01b038481166004830152620036119216906253517590602401602060405180830381865afa158015620035cf573d6000803e3d6000fd5b505050506040513d601f19601f82011682018060405250810190620035f5919062006ce3565b836001600160a01b0316836001600160a01b03161415620054ce565b620036855760405162461bcd60e51b815260206004820152602a60248201527f436c61696d4f72646572656457697468647261773a205769746864726177206e60448201527f6f7420616c6c6f776564000000000000000000000000000000000000000000006064820152608401620005bc565b6001600160a01b038083166000908152600c6020908152604080832093851683529290529081205490819003620036ff5760405162461bcd60e51b815260206004820152601a60248201527f636c61696d20616d6f756e74206d757374206e6f7420626520300000000000006044820152606401620005bc565b6001600160a01b038084166000818152600c602090815260408083209487168352938152838220829055918152600d90915220546200374090829062006ccd565b6001600160a01b038085166000908152600d602090815260408083209490945560168152838220928616825291909152908120549003620037875762003787838362005b17565b62003793828262005c58565b601a54826001600160a01b0316846001600160a01b03167ff380b0bc887e00f5b50d3c9d4eaaf5c9a0afd97b956316b995159384c4ede9b384604051620037dc91815260200190565b60405180910390a4505050565b60606003805480602002602001604051908101604052809291908181526020018280548015620024db576020028201919060005260206000209081546001600160a01b03168152600190910190602001808311620024bc575050505050905090565b60606001805480602002602001604051908101604052809291908181526020018280548015620024db576020028201919060005260206000209081546001600160a01b03168152600190910190602001808311620024bc575050505050905090565b3a600003620038ef5760405162461bcd60e51b815260206004820152600d60248201526c04761735072696365206973203609c1b6044820152606401620005bc565b6021546001600160a01b0316620039445760405162461bcd60e51b815260206004820152601860248201527710dbdb9d1c9858dd081b9bdd081a5b9a5d1a585b1a5e995960421b6044820152606401620005bc565b6021546040516253517560e01b81523360048201819052916000916001600160a01b03909116906253517590602401602060405180830381865afa15801562003991573d6000803e3d6000fd5b505050506040513d601f19601f82011682018060405250810190620039b7919062006ce3565b90506000601a54118062003a39575060215460405163facd743b60e01b81526001600160a01b0383811660048301529091169063facd743b90602401602060405180830381865afa15801562003a11573d6000803e3d6000fd5b505050506040513d601f19601f8201168201806040525081019062003a37919062006f57565b155b62003aad5760405162461bcd60e51b815260206004820152602a60248201527f43616e27742072656d6f766520706f6f6c20647572696e67203173742073746160448201527f6b696e672065706f6368000000000000000000000000000000000000000000006064820152608401620005bc565b620013ac82620041bd565b6021546001600160a01b031633148062003adc57506024546001600160a01b031633145b62003b1e5760405162461bcd60e51b815260206004820152601160248201527013db9b1e4815985b1a59185d1bdc94d95d607a1b6044820152606401620005bc565b601a805490600062003b308362006c9b565b90915550506000601f55565b3a60000362003b7e5760405162461bcd60e51b815260206004820152600d60248201526c04761735072696365206973203609c1b6044820152606401620005bc565b6021546001600160a01b031662003bd35760405162461bcd60e51b815260206004820152601860248201527710dbdb9d1c9858dd081b9bdd081a5b9a5d1a585b1a5e995960421b6044820152606401620005bc565b3362003be183828462004333565b62003bed818362005c58565b601a54816001600160a01b0316846001600160a01b03167fa7c0f0cac6bd4d18042007706c84a8abe823751cf289b69c01e83eef7b5915c785604051620037dc91815260200190565b6000806000836001600160a01b0316856001600160a01b03161462003d1e576001600160a01b038086166000908152601760209081526040808320938816835292905290812054925082900362003cf65760405162461bcd60e51b815260206004820152602e60248201527f556e61626c6520746f206765742072657761726420616d6f756e74206966206e60448201527f6f2066697273742065706f63682e0000000000000000000000000000000000006064820152608401620005bc565b506001600160a01b038085166000908152601860209081526040808320938716835292905220545b60215460408051632b5aa5d760e11b815290516000926001600160a01b0316916356b54bae9160048083019260209291908290030181865afa15801562003d69573d6000803e3d6000fd5b505050506040513d601f19601f8201168201806040525081019062003d8f919062006ce3565b6021546040516253517560e01b81526001600160a01b038981166004830152929350600092909116906253517590602401602060405180830381865afa15801562003dde573d6000803e3d6000fd5b505050506040513d601f19601f8201168201806040525081019062003e04919062006ce3565b9050600080895160000362003e875760405163dd03f5b960e01b81526001600160a01b03848116600483015285169063dd03f5b990602401600060405180830381865afa15801562003e5a573d6000803e3d6000fd5b505050506040513d6000823e601f3d908101601f1916820160405262003e84919081019062006d03565b99505b60005b8a51811015620041a45760008b828151811062003eab5762003eab62006c6f565b60200260200101519050816000148062003eec57508b62003ece60018462006ccd565b8151811062003ee15762003ee162006c6f565b602002602001015181115b62003f605760405162461bcd60e51b815260206004820152603660248201527f696e7465726e616c204572726f723a205374616b696e672045706f636873207260448201527f6571756972656420746f206265206f7264657265642e000000000000000000006064820152608401620005bc565b601a54811062003fd95760405162461bcd60e51b815260206004820152603c60248201527f696e7465726e616c204572726f723a2065706f6368206d757374206e6f74206260448201527f65206c6573736572207468616e2063757272656e742065706f63682e000000006064820152608401620005bc565b6001600160a01b03808c166000908152601560209081526040808320938e1683529281528282208483529052205460ff16156200401757506200418f565b60008a6001600160a01b03168c6001600160a01b031614620041075788821015620040445750506200418f565b8188111580156200405457508715155b1562004062575050620041a4565b62004071828a878f8f62004c72565b94506200408082600162006cb7565b604051631c3572db60e31b815260048101879052602481018490526001600160a01b038881166044830152919a509088169063e1ab96d890606401602060405180830381865afa158015620040d9573d6000803e3d6000fd5b505050506040513d601f19601f82011682018060405250810190620040ff919062006d9d565b90506200417e565b60405163ba2d759760e01b8152600481018390526001600160a01b03878116602483015288169063ba2d759790604401602060405180830381865afa15801562004155573d6000803e3d6000fd5b505050506040513d601f19601f820116820180604052508101906200417b919062006d9d565b90505b6200418a818562006cb7565b935050505b806200419b8162006c9b565b91505062003e8a565b509998505050505050505050565b620017478162005cc0565b6001600160a01b038116600090815260126020526040812054905481108015620042195750816001600160a01b03166000828154811062004202576200420262006c6f565b6000918252602090912001546001600160a01b0316145b15620042f057600080548190620042339060019062006ccd565b8154811062004246576200424662006c6f565b600091825260208220015481546001600160a01b0390911692508291908490811062004276576200427662006c6f565b600091825260208083209190910180546001600160a01b0319166001600160a01b0394851617905583831682526012905260408082208590559185168152908120819055805480620042cc57620042cc62006f9a565b600082815260209020810160001990810180546001600160a01b0319169055019055505b620042fb8262005d83565b1562004312576200430c8262005dc1565b6200431d565b6200431d8262005cc0565b620043288262005efb565b620013ac826200613c565b6001600160a01b038316620043b15760405162461bcd60e51b815260206004820152602e60248201527f576974686472617720706f6f6c207374616b696e672061646472657373206d7560448201527f7374206e6f74206265206e756c6c0000000000000000000000000000000000006064820152608401620005bc565b80600003620044035760405162461bcd60e51b815260206004820181905260248201527f616d6f756e7420746f207769746864726177206d757374206e6f7420626520306044820152606401620005bc565b6200440f8383620024e5565b811115620044865760405162461bcd60e51b815260206004820152602560248201527f57697468647261773a206d61785769746864726177416c6c6f7765642065786360448201527f65656465640000000000000000000000000000000000000000000000000000006064820152608401620005bc565b6001600160a01b038084166000908152601660209081526040808320938616835292905290812054620044bb90839062006ccd565b90506000836001600160a01b0316856001600160a01b031614620044e257600a54620044e6565b6009545b9050811580620044f65750808210155b6200456a5760405162461bcd60e51b815260206004820152603960248201527f6e65775374616b6520616d6f756e74206d75737420626520677265617465722060448201527f657175616c207468616e20746865206d696e207374616b652e000000000000006064820152608401620005bc565b6001600160a01b03858116600081815260166020908152604080832094891680845294825280832087905592825260088152828220938252928352818120601a54825290925290205483811015620045c4576000620045d0565b620045d0848262006ccd565b6001600160a01b038088166000818152600860209081526040808320948b168352938152838220601a5483528152838220949094559081529180529020546200461b90859062006ccd565b6001600160a01b03871660009081526020805260408120919091558390036200464a576200464a868662005b17565b856001600160a01b0316856001600160a01b031614620046705762004670868662005a0b565b6200467b86620055e6565b505050505050565b6021546040516253517560e01b81526001600160a01b03858116600483015260009216906253517590602401602060405180830381865afa158015620046cd573d6000803e3d6000fd5b505050506040513d601f19601f82011682018060405250810190620046f3919062006ce3565b90506001600160a01b03811662004775576040805162461bcd60e51b81526020600482015260248101919091527f506f6f6c20646f6573206e6f742065786973742e206d696e696e67416464726560448201527f737320666f722074686174207374616b696e67206164647265737320697320306064820152608401620005bc565b6001600160a01b038416620047cd5760405162461bcd60e51b815260206004820152601a60248201527f5374616b653a207374616b696e674164647265737320697320300000000000006044820152606401620005bc565b816000036200481f5760405162461bcd60e51b815260206004820152601960248201527f5374616b653a207374616b696e67416d6f756e742069732030000000000000006044820152606401620005bc565b602154604051635491295760e11b81526001600160a01b0383811660048301529091169063a92252ae90602401602060405180830381865afa1580156200486a573d6000803e3d6000fd5b505050506040513d601f19601f8201168201806040525081019062004890919062006f57565b15620048df5760405162461bcd60e51b815260206004820152601f60248201527f5374616b653a204d696e696e6720616464726573732069732062616e6e6564006044820152606401620005bc565b6001600160a01b0380851660009081526016602090815260408083209387168352929052908120546200491490849062006cb7565b9050846001600160a01b0316846001600160a01b031603620049b057600954811015620049aa5760405162461bcd60e51b815260206004820152603160248201527f5374616b653a2063616e6469646174655374616b65206c657373207468616e2060448201527f63616e6469646174654d696e5374616b650000000000000000000000000000006064820152608401620005bc565b62004aa7565b600a5481101562004a2a5760405162461bcd60e51b815260206004820152603460248201527f5374616b653a2064656c656761746f725374616b65206973206c65737320746860448201527f616e2064656c656761746f724d696e5374616b650000000000000000000000006064820152608401620005bc565b6001600160a01b0385166000908152601660209081526040808320909152812054900362004aa75760405162461bcd60e51b815260206004820152602360248201527f5374616b653a2063616e27742064656c656761746520696e20656d70747920706044820152621bdbdb60ea1b6064820152608401620005bc565b6023546001600160a01b038616600090815260208052604090205462004acf90859062006cb7565b111562004b1f5760405162461bcd60e51b815260206004820152601d60248201527f7374616b65206c696d697420686173206265656e2065786365656465640000006044820152606401620005bc565b6001600160a01b03858116600081815260166020908152604080832094891680845294825280832086905592825260088152828220938252928352818120601a54825290925290205462004b7590849062006cb7565b6001600160a01b038087166000818152600860209081526040808320948a168352938152838220601a54835281528382209490945590815291805290205462004bc090849062006cb7565b6001600160a01b03808716600081815260208052604090209290925585160362004bf75762004bf1856001620053f3565b62004c0f565b62004c0385856200593c565b62004c0f858562005a0b565b62004c1a85620055e6565b601a54846001600160a01b0316866001600160a01b03167f2273de02cb1f69ba6259d22c4bc22c60e4c94c193265ef6afee324a04a9b6d228660405162004c6391815260200190565b60405180910390a45050505050565b60005b506001600160a01b038083166000908152600b60209081526040808320938516835292815282822088835290522054801562004cc757600019811462004cbc578062004cbf565b60005b905062004cec565b84860362004cd757508262004cec565b8562004ce38162006fb0565b96505062004c75565b95945050505050565b7fb53127684a568b3173ae13b9f8a6016e243e63b6e8ee1178d6a717850b5d6103546001600160a01b0316336001600160a01b0316148062004d6957507fb53127684a568b3173ae13b9f8a6016e243e63b6e8ee1178d6a717850b5d6103546001600160a01b0316326001600160a01b0316145b8062004d9d57507fb53127684a568b3173ae13b9f8a6016e243e63b6e8ee1178d6a717850b5d6103546001600160a01b0316155b8062004da7575043155b62004e1b5760405162461bcd60e51b815260206004820152603060248201527f496e697469616c697a6174696f6e206f6e6c79206f6e2067656e65736973206260448201527f6c6f636b206f722062792061646d696e000000000000000000000000000000006064820152608401620005bc565b6021546001600160a01b03161562004e765760405162461bcd60e51b815260206004820152601360248201527f416c726561647920696e697469616c697a6564000000000000000000000000006044820152606401620005bc565b6001600160a01b03871662004ece5760405162461bcd60e51b815260206004820152601760248201527f56616c696461746f725365742063616e277420626520300000000000000000006044820152606401620005bc565b600086511162004f475760405162461bcd60e51b815260206004820152602560248201527f4d7573742070726f7669646520696e697469616c206d696e696e67206164647260448201527f65737365730000000000000000000000000000000000000000000000000000006064820152608401620005bc565b8151865162004f5890600262006fca565b1462004fcd5760405162461bcd60e51b815260206004820152602960248201527f4d7573742070726f7669646520636f7272656374206e756d626572206f66207060448201527f75626c69634b65797300000000000000000000000000000000000000000000006064820152608401620005bc565b8051865114620050465760405162461bcd60e51b815260206004820152602a60248201527f4d7573742070726f7669646520636f7272656374206e756d626572206f66204960448201527f50206164726573736573000000000000000000000000000000000000000000006064820152608401620005bc565b84600003620050985760405162461bcd60e51b815260206004820152601660248201527f44656c656761746f724d696e5374616b652069732030000000000000000000006044820152606401620005bc565b83600003620050ea5760405162461bcd60e51b815260206004820152601660248201527f43616e6469646174654d696e5374616b652069732030000000000000000000006044820152606401620005bc565b838311620051615760405162461bcd60e51b815260206004820152603160248201527f6d6178696d756d207374616b65206d757374206265206772656174657220746860448201527f656e206d696e696d756d207374616b652e0000000000000000000000000000006064820152608401620005bc565b602180546001600160a01b0319166001600160a01b03891617905560005b8651811015620053e05760006001600160a01b0316878281518110620051a957620051a962006c6f565b60200260200101516001600160a01b031603620052145760405162461bcd60e51b815260206004820152602260248201527f496e697469616c5374616b696e674164647265737365732063616e2774206265604482015261020360f41b6064820152608401620005bc565b6200523d8782815181106200522d576200522d62006c6f565b60200260200101516000620053f3565b6200526487828151811062005256576200525662006c6f565b6020026020010151620056c7565b826200527282600262006fca565b8151811062005285576200528562006c6f565b6020026020010151838260026200529d919062006fca565b620052aa90600162006cb7565b81518110620052bd57620052bd62006c6f565b6020026020010151604051602001620052e0929190918252602082015260400190565b6040516020818303038152906040526022600089848151811062005308576200530862006c6f565b60200260200101516001600160a01b03166001600160a01b03168152602001908152602001600020600001908162005341919062006fe4565b5081818151811062005357576200535762006c6f565b60200260200101516022600089848151811062005378576200537862006c6f565b60200260200101516001600160a01b03166001600160a01b0316815260200190815260200160002060010160006101000a8154816fffffffffffffffffffffffffffffffff021916908360801c02179055508080620053d79062006c9b565b9150506200517f565b505050600a929092556009556023555050565b620053fe8262002d29565b620054b157600080546001600160a01b0384168083526012602052604083208290556001820183559180527f290decd9548b62a8d60345a988386fc84ba6bc95484008f6362f93160ef3e5630180546001600160a01b031916909117905560646000541115620054b15760405162461bcd60e51b815260206004820152601d60248201527f4d41585f43414e4449444154455320706f6f6c732065786365656465640000006044820152606401620005bc565b620054bc8262005dc1565b8015620013ac57620013ac8262006250565b600081156200555d5760215460405163a881c5fd60e01b81526001600160a01b0385811660048301529091169063a881c5fd90602401602060405180830381865afa15801562005522573d6000803e3d6000fd5b505050506040513d601f19601f8201168201806040525081019062005548919062006f57565b15620055575750600062002670565b620055dd565b602154604051635491295760e11b81526001600160a01b0385811660048301529091169063a92252ae90602401602060405180830381865afa158015620055a8573d6000803e3d6000fd5b505050506040513d601f19601f82011682018060405250810190620055ce919062006f57565b15620055dd5750600062002670565b50600192915050565b600080620055f4836200634c565b91509150816200560357505050565b6000600482815481106200561b576200561b62006c6f565b90600052602060002001549050600060206000866001600160a01b03166001600160a01b03168152602001908152602001600020549050806004848154811062005669576200566962006c6f565b600091825260209091200155818110620056a15762005689828262006ccd565b60055462005698919062006cb7565b600555620056c0565b620056ad818362006ccd565b600554620056bc919062006ccd565b6005555b5050505050565b6001600160a01b0381166000908152601460205260409020546003548082101580620057265750826001600160a01b0316600383815481106200570e576200570e62006c6f565b6000918252602090912001546001600160a01b031614155b1562005787576001600160a01b03831660008181526014602052604081208390556003805460018101825591527fc2575a0e9e593c00f959f8c92f12db2869c3395a3b0502d05e2516446f71f85b0180546001600160a01b03191690911790555b620015df8362005efb565b6001600160a01b038083166000908152600660209081526040808320600f8352818420948616845293909152902054815481108015620058035750826001600160a01b0316828281548110620057ec57620057ec62006c6f565b6000918252602090912001546001600160a01b0316145b15620058ec57815460009083906200581e9060019062006ccd565b8154811062005831576200583162006c6f565b9060005260206000200160009054906101000a90046001600160a01b031690508083838154811062005867576200586762006c6f565b600091825260208083209190910180546001600160a01b0319166001600160a01b039485161790558783168252600f8152604080832085851684529091528082208590559186168152908120558254839080620058c857620058c862006f9a565b600082815260209020810160001990810180546001600160a01b0319169055019055505b6001600160a01b038085166000908152600c6020908152604080832093871683529290522054156200592a57620059248484620063c3565b62005936565b6200593684846200648c565b50505050565b6001600160a01b038083166000908152600660209081526040808320600f835281842094861684529390915290205481548082101580620059af5750836001600160a01b031683838154811062005997576200599762006c6f565b6000918252602090912001546001600160a01b031614155b15620059ff576001600160a01b038086166000908152600f602090815260408083209388168084529382528220849055855460018101875586835291200180546001600160a01b03191690911790555b620056c085856200648c565b6000601a54600162005a1e919062006cb7565b6001600160a01b03808516600090815260166020908152604080832093871683529290529081205491925081900362005a5a5760001962005a5c565b805b6001600160a01b038086166000818152600b602090815260408083209489168084529482528083208884528252808320959095559181526017825283812092815291905290812054900362005ad4576001600160a01b0380851660009081526017602090815260408083209387168352929052208290555b801562005ae357600062005ae5565b815b6001600160a01b0394851660009081526018602090815260408083209690971682529490945293909220929092555050565b816001600160a01b0316816001600160a01b03160362005c30576021546040516253517560e01b81526001600160a01b03848116600483015260009216906253517590602401602060405180830381865afa15801562005b7b573d6000803e3d6000fd5b505050506040513d601f19601f8201168201806040525081019062005ba1919062006ce3565b60215460405163facd743b60e01b81526001600160a01b03808416600483015292935091169063facd743b90602401602060405180830381865afa15801562005bee573d6000803e3d6000fd5b505050506040513d601f19601f8201168201806040525081019062005c14919062006f57565b1562005c2557620015df83620056c7565b620015df83620041bd565b62005c3c828262005792565b62005c478262005d83565b15620013ac57620013ac8262005dc1565b6040516001600160a01b0383169082156108fc029083906000818181858888f19350505050620013ac57808260405162005c9290620065eb565b6001600160a01b0390911681526020016040518091039082f090508015801562005936573d6000803e3d6000fd5b6001600160a01b038116600090815260116020526040902054600154808210158062005d1f5750826001600160a01b03166001838154811062005d075762005d0762006c6f565b6000918252602090912001546001600160a01b031614155b15620015df576001600160a01b038316600081815260116020526040812083905560018054808201825591527fb10e2d527612073b26eecdfd717e6a320cf44b4afac2b0732d9fcbe2b7fa0cf60180546001600160a01b0319169091179055505050565b6001600160a01b0381166000908152602080526040812054158015620026705750506001600160a01b03166000908152600d60205260409020541590565b6001600160a01b0381166000908152601160205260409020546001548110801562005e1e5750816001600160a01b03166001828154811062005e075762005e0762006c6f565b6000918252602090912001546001600160a01b0316145b15620013ac57600180546000919062005e3990829062006ccd565b8154811062005e4c5762005e4c62006c6f565b600091825260209091200154600180546001600160a01b03909216925082918490811062005e7e5762005e7e62006c6f565b600091825260208083209190910180546001600160a01b0319166001600160a01b039485161790558383168252601190526040808220859055918516815290812055600180548062005ed45762005ed462006f9a565b600082815260209020810160001990810180546001600160a01b0319169055019055505050565b6004546002541462005f0a5750565b6001600160a01b0381166000908152601360205260409020546002548110801562005f675750816001600160a01b03166002828154811062005f505762005f5062006c6f565b6000918252602090912001546001600160a01b0316145b15620013ac576004818154811062005f835762005f8362006c6f565b90600052602060002001546005541062005fd7576004818154811062005fad5762005fad62006c6f565b90600052602060002001546005600082825462005fcb919062006ccd565b9091555062005fdd9050565b60006005555b60025460009062005ff19060019062006ccd565b90506000600282815481106200600b576200600b62006c6f565b600091825260209091200154600280546001600160a01b0390921692508291859081106200603d576200603d62006c6f565b9060005260206000200160006101000a8154816001600160a01b0302191690836001600160a01b031602179055506004828154811062006081576200608162006c6f565b906000526020600020015460048481548110620060a257620060a262006c6f565b60009182526020808320909101929092556001600160a01b038084168252601390925260408082208690559186168152908120556002805480620060ea57620060ea62006f9a565b600082815260209020810160001990810180546001600160a01b0319169055019055600480548062006120576200612062006f9a565b6001900381819060005260206000200160009055905550505050565b6001600160a01b03811660009081526014602052604090205460035481108015620061995750816001600160a01b03166003828154811062006182576200618262006c6f565b6000918252602090912001546001600160a01b0316145b15620013ac576003805460009190620061b59060019062006ccd565b81548110620061c857620061c862006c6f565b600091825260209091200154600380546001600160a01b039092169250829184908110620061fa57620061fa62006c6f565b600091825260208083209190910180546001600160a01b0319166001600160a01b039485161790558383168252601490526040808220859055918516815290812055600380548062005ed45762005ed462006f9a565b6001600160a01b0381166000908152601360205260409020546002548082101580620062af5750826001600160a01b03166002838154811062006297576200629762006c6f565b6000918252602090912001546001600160a01b031614155b1562006341576001600160a01b03831660008181526013602052604081208390556002805460018181019092557f405787fa12a823e0f2b7631cc41b3ba8828b3321ca811111fa75cd3aa3bb5ace0180546001600160a01b03191690931790925560048054928301815581527f8a35acfbc15ff81a39ae7d344fd709f28e8600b4aa8c65c6b64bfe7fe36bd19b909101555b620015df836200613c565b6001600160a01b03811660009081526013602052604081205460025481108015620063a95750826001600160a01b03166002828154811062006392576200639262006c6f565b6000918252602090912001546001600160a01b0316145b15620063b85760019150915091565b506000928392509050565b6001600160a01b0380831660009081526007602090815260408083206010835281842094861684529390915290205481548082101580620064365750836001600160a01b03168383815481106200641e576200641e62006c6f565b6000918252602090912001546001600160a01b031614155b15620056c0576001600160a01b0380861660009081526010602090815260408083209388168084529382528220849055855460018101875586835291200180546001600160a01b03191690911790555050505050565b6001600160a01b03808316600090815260076020908152604080832060108352818420948616845293909152902054815481108015620064fd5750826001600160a01b0316828281548110620064e657620064e662006c6f565b6000918252602090912001546001600160a01b0316145b15620059365781546000908390620065189060019062006ccd565b815481106200652b576200652b62006c6f565b9060005260206000200160009054906101000a90046001600160a01b031690508083838154811062006561576200656162006c6f565b600091825260208083209190910180546001600160a01b0319166001600160a01b03948516179055878316825260108152604080832085851684529091528082208590559186168152908120558254839080620065c257620065c262006f9a565b600082815260209020810160001990810180546001600160a01b03191690550190555050505050565b605980620070b283390190565b6001600160a01b03811681146200174757600080fd5b6000806000606084860312156200662457600080fd5b83356200663181620065f8565b925060208401356200664381620065f8565b929592945050506040919091013590565b600080604083850312156200666857600080fd5b82356200667581620065f8565b915060208301356200668781620065f8565b809150509250929050565b600060208284031215620066a557600080fd5b813562002d8581620065f8565b600060208284031215620066c557600080fd5b5035919050565b634e487b7160e01b600052604160045260246000fd5b604051601f8201601f1916810167ffffffffffffffff811182821017156200670e576200670e620066cc565b604052919050565b600067ffffffffffffffff821115620067335762006733620066cc565b5060051b60200190565b600082601f8301126200674f57600080fd5b8135602062006768620067628362006716565b620066e2565b82815260059290921b840181019181810190868411156200678857600080fd5b8286015b84811015620067a557803583529183019183016200678c565b509695505050505050565b60008060408385031215620067c457600080fd5b823567ffffffffffffffff811115620067dc57600080fd5b620067ea858286016200673d565b92505060208301356200668781620065f8565b60008083601f8401126200681057600080fd5b50813567ffffffffffffffff8111156200682957600080fd5b6020830191508360208260051b85010111156200684557600080fd5b9250929050565b6000806000806000606086880312156200686557600080fd5b853567ffffffffffffffff808211156200687e57600080fd5b90870190610100828a0312156200689457600080fd5b90955060208701359080821115620068ab57600080fd5b620068b989838a01620067fd565b90965094506040880135915080821115620068d357600080fd5b50620068e288828901620067fd565b969995985093965092949392505050565b6000815180845260005b818110156200691b57602081850181015186830182015201620068fd565b506000602082860101526020601f19601f83011685010191505092915050565b60208152600062002d856020830184620068f3565b60008083601f8401126200696357600080fd5b50813567ffffffffffffffff8111156200697c57600080fd5b6020830191508360208285010111156200684557600080fd5b80356fffffffffffffffffffffffffffffffff1981168114620069b757600080fd5b919050565b60008060008060608587031215620069d357600080fd5b8435620069e081620065f8565b9350602085013567ffffffffffffffff811115620069fd57600080fd5b62006a0b8782880162006950565b909450925062006a2090506040860162006995565b905092959194509250565b6020808252825182820181905260009190848201906040850190845b8181101562006a6e5783516001600160a01b03168352928401929184019160010162006a47565b50909695505050505050565b80356001600160f01b031981168114620069b757600080fd5b60008060006060848603121562006aa957600080fd5b833562006ab681620065f8565b925062006ac66020850162006995565b915062006ad66040850162006a7a565b90509250925092565b6000806000806060858703121562006af657600080fd5b843567ffffffffffffffff81111562006b0e57600080fd5b62006b1c8782880162006950565b909550935062006b3190506020860162006995565b915062006a206040860162006a7a565b604080825283519082018190526000906020906060840190828701845b8281101562006b7c5781518452928401929084019060010162006b5e565b50505092019290925292915050565b60608152600062006ba06060830186620068f3565b6fffffffffffffffffffffffffffffffff19949094166020830152506001600160f01b031991909116604090910152919050565b6000806040838503121562006be857600080fd5b823562006bf581620065f8565b946020939093013593505050565b60008060006060848603121562006c1957600080fd5b833567ffffffffffffffff81111562006c3157600080fd5b62006c3f868287016200673d565b935050602084013562006c5281620065f8565b9150604084013562006c6481620065f8565b809150509250925092565b634e487b7160e01b600052603260045260246000fd5b634e487b7160e01b600052601160045260246000fd5b60006001820162006cb05762006cb062006c85565b5060010190565b8082018082111562002670576200267062006c85565b8181038181111562002670576200267062006c85565b60006020828403121562006cf657600080fd5b815162002d8581620065f8565b6000602080838503121562006d1757600080fd5b825167ffffffffffffffff81111562006d2f57600080fd5b8301601f8101851362006d4157600080fd5b805162006d52620067628262006716565b81815260059190911b8201830190838101908783111562006d7257600080fd5b928401925b8284101562006d925783518252928401929084019062006d77565b979650505050505050565b60006020828403121562006db057600080fd5b5051919050565b6000808335601e1984360301811262006dcf57600080fd5b83018035915067ffffffffffffffff82111562006deb57600080fd5b6020019150600581901b36038213156200684557600080fd5b600181811c9082168062006e1957607f821691505b60208210810362006e3a57634e487b7160e01b600052602260045260246000fd5b50919050565b601f821115620015df57600081815260208120601f850160051c8101602086101562006e695750805b601f850160051c820191505b818110156200467b5782815560010162006e75565b67ffffffffffffffff83111562006ea55762006ea5620066cc565b62006ebd8362006eb6835462006e04565b8362006e40565b6000601f84116001811462006ef4576000851562006edb5750838201355b600019600387901b1c1916600186901b178355620056c0565b600083815260209020601f19861690835b8281101562006f27578685013582556020948501946001909201910162006f05565b508682101562006f455760001960f88860031b161c19848701351681555b505060018560011b0183555050505050565b60006020828403121562006f6a57600080fd5b8151801515811462002d8557600080fd5b6000600160ff1b820162006f935762006f9362006c85565b5060000390565b634e487b7160e01b600052603160045260246000fd5b60008162006fc25762006fc262006c85565b506000190190565b808202811582820484141762002670576200267062006c85565b815167ffffffffffffffff811115620070015762007001620066cc565b620070198162007012845462006e04565b8462006e40565b602080601f831160018114620070515760008415620070385750858301515b600019600386901b1c1916600185901b1785556200467b565b600085815260208120601f198616915b82811015620070825788860151825594840194600190910190840162007061565b5085821015620070a15787850151600019600388901b60f8161c191681555b5050505050600190811b0190555056fe608060405260405160593803806059833981016040819052601e91602a565b806001600160a01b0316ff5b600060208284031215603b57600080fd5b81516001600160a01b0381168114605157600080fd5b939250505056fea26469706673582212203e359834178c04c50af49c1ecda80b4e6852f295df931ee42a8e91c25561653c64736f6c63430008110033",
  "linkReferences": {},
  "deployedLinkReferences": {}
}