{
  "_format": "hh-sol-artifact-1",
  "contractName": "StakingHbbftBase",
  "sourceName": "contracts/base/StakingHbbftBase.sol",
  "abi": [
    {
      "anonymous": false,
      "inputs": [
        {
          "indexed": true,
          "internalType": "address",
          "name": "fromPoolStakingAddress",
          "type": "address"
        },
        {
          "indexed": true,
          "internalType": "address",
          "name": "staker",
          "type": "address"
        },
        {
          "indexed": true,
          "internalType": "uint256",
          "name": "stakingEpoch",
          "type": "uint256"
        },
        {
          "indexed": false,
          "internalType": "uint256",
          "name": "amount",
          "type": "uint256"
        }
      ],
      "name": "ClaimedOrderedWithdrawal",
      "type": "event"
    },
    {
      "anonymous": false,
      "inputs": [
        {
          "indexed": true,
          "internalType": "address",
          "name": "caller",
          "type": "address"
        },
        {
          "indexed": true,
          "internalType": "address",
          "name": "stakingAddress",
          "type": "address"
        },
        {
          "indexed": false,
          "internalType": "uint256",
          "name": "gatheredFunds",
          "type": "uint256"
        }
      ],
      "name": "GatherAbandonedStakes",
      "type": "event"
    },
    {
      "anonymous": false,
      "inputs": [
        {
          "indexed": false,
          "internalType": "address",
          "name": "fromPoolStakingAddress",
          "type": "address"
        },
        {
          "indexed": true,
          "internalType": "address",
          "name": "toPoolStakingAddress",
          "type": "address"
        },
        {
          "indexed": true,
          "internalType": "address",
          "name": "staker",
          "type": "address"
        },
        {
          "indexed": true,
          "internalType": "uint256",
          "name": "stakingEpoch",
          "type": "uint256"
        },
        {
          "indexed": false,
          "internalType": "uint256",
          "name": "amount",
          "type": "uint256"
        }
      ],
      "name": "MovedStake",
      "type": "event"
    },
    {
      "anonymous": false,
      "inputs": [
        {
          "indexed": true,
          "internalType": "address",
          "name": "fromPoolStakingAddress",
          "type": "address"
        },
        {
          "indexed": true,
          "internalType": "address",
          "name": "staker",
          "type": "address"
        },
        {
          "indexed": true,
          "internalType": "uint256",
          "name": "stakingEpoch",
          "type": "uint256"
        },
        {
          "indexed": false,
          "internalType": "int256",
          "name": "amount",
          "type": "int256"
        }
      ],
      "name": "OrderedWithdrawal",
      "type": "event"
    },
    {
      "anonymous": false,
      "inputs": [
        {
          "indexed": true,
          "internalType": "address",
          "name": "toPoolStakingAddress",
          "type": "address"
        },
        {
          "indexed": true,
          "internalType": "address",
          "name": "staker",
          "type": "address"
        },
        {
          "indexed": true,
          "internalType": "uint256",
          "name": "stakingEpoch",
          "type": "uint256"
        },
        {
          "indexed": false,
          "internalType": "uint256",
          "name": "amount",
          "type": "uint256"
        }
      ],
      "name": "PlacedStake",
      "type": "event"
    },
    {
      "anonymous": false,
      "inputs": [
        {
          "indexed": true,
          "internalType": "address",
          "name": "caller",
          "type": "address"
        },
        {
          "indexed": false,
          "internalType": "uint256",
          "name": "reinsertShare",
          "type": "uint256"
        },
        {
          "indexed": false,
          "internalType": "uint256",
          "name": "governanceShare",
          "type": "uint256"
        }
      ],
      "name": "RecoverAbandonedStakes",
      "type": "event"
    },
    {
      "anonymous": false,
      "inputs": [
        {
          "indexed": true,
          "internalType": "address",
          "name": "fromPoolStakingAddress",
          "type": "address"
        },
        {
          "indexed": true,
          "internalType": "address",
          "name": "staker",
          "type": "address"
        },
        {
          "indexed": true,
          "internalType": "uint256",
          "name": "stakingEpoch",
          "type": "uint256"
        },
        {
          "indexed": false,
          "internalType": "uint256",
          "name": "amount",
          "type": "uint256"
        }
      ],
      "name": "WithdrewStake",
      "type": "event"
    },
    {
      "inputs": [],
      "name": "MAX_CANDIDATES",
      "outputs": [
        {
          "internalType": "uint256",
          "name": "",
          "type": "uint256"
        }
      ],
      "stateMutability": "view",
      "type": "function"
    },
    {
      "inputs": [
        {
          "internalType": "address",
          "name": "",
          "type": "address"
        }
      ],
      "name": "abandonedAndRemoved",
      "outputs": [
        {
          "internalType": "bool",
          "name": "",
          "type": "bool"
        }
      ],
      "stateMutability": "view",
      "type": "function"
    },
    {
      "inputs": [
        {
          "internalType": "address",
          "name": "_miningAddress",
          "type": "address"
        },
        {
          "internalType": "bytes",
          "name": "_publicKey",
          "type": "bytes"
        },
        {
          "internalType": "bytes16",
          "name": "_ip",
          "type": "bytes16"
        }
      ],
      "name": "addPool",
      "outputs": [],
      "stateMutability": "payable",
      "type": "function"
    },
    {
      "inputs": [],
      "name": "areStakeAndWithdrawAllowed",
      "outputs": [
        {
          "internalType": "bool",
          "name": "",
          "type": "bool"
        }
      ],
      "stateMutability": "view",
      "type": "function"
    },
    {
      "inputs": [],
      "name": "blockRewardHbbft",
      "outputs": [
        {
          "internalType": "contract IBlockRewardHbbft",
          "name": "",
          "type": "address"
        }
      ],
      "stateMutability": "view",
      "type": "function"
    },
    {
      "inputs": [],
      "name": "candidateMinStake",
      "outputs": [
        {
          "internalType": "uint256",
          "name": "",
          "type": "uint256"
        }
      ],
      "stateMutability": "view",
      "type": "function"
    },
    {
      "inputs": [
        {
          "internalType": "address",
          "name": "_poolStakingAddress",
          "type": "address"
        }
      ],
      "name": "claimOrderedWithdraw",
      "outputs": [],
      "stateMutability": "nonpayable",
      "type": "function"
    },
    {
      "inputs": [],
      "name": "currentKeyGenExtraTimeWindow",
      "outputs": [
        {
          "internalType": "uint256",
          "name": "",
          "type": "uint256"
        }
      ],
      "stateMutability": "view",
      "type": "function"
    },
    {
      "inputs": [],
      "name": "delegatorMinStake",
      "outputs": [
        {
          "internalType": "uint256",
          "name": "",
          "type": "uint256"
        }
      ],
      "stateMutability": "view",
      "type": "function"
    },
    {
      "inputs": [
        {
          "internalType": "address",
          "name": "",
          "type": "address"
        },
        {
          "internalType": "address",
          "name": "",
          "type": "address"
        },
        {
          "internalType": "uint256",
          "name": "",
          "type": "uint256"
        }
      ],
      "name": "delegatorStakeSnapshot",
      "outputs": [
        {
          "internalType": "uint256",
          "name": "",
          "type": "uint256"
        }
      ],
      "stateMutability": "view",
      "type": "function"
    },
    {
      "inputs": [
        {
          "internalType": "address",
          "name": "_poolAddress",
          "type": "address"
        }
      ],
      "name": "getPoolInternetAddress",
      "outputs": [
        {
          "internalType": "bytes16",
          "name": "",
          "type": "bytes16"
        },
        {
          "internalType": "bytes2",
          "name": "",
          "type": "bytes2"
        }
      ],
      "stateMutability": "view",
      "type": "function"
    },
    {
      "inputs": [
        {
          "internalType": "address",
          "name": "_poolAddress",
          "type": "address"
        }
      ],
      "name": "getPoolPublicKey",
      "outputs": [
        {
          "internalType": "bytes",
          "name": "",
          "type": "bytes"
        }
      ],
      "stateMutability": "view",
      "type": "function"
    },
    {
      "inputs": [],
      "name": "getPools",
      "outputs": [
        {
          "internalType": "address[]",
          "name": "",
          "type": "address[]"
        }
      ],
      "stateMutability": "view",
      "type": "function"
    },
    {
      "inputs": [],
      "name": "getPoolsInactive",
      "outputs": [
        {
          "internalType": "address[]",
          "name": "",
          "type": "address[]"
        }
      ],
      "stateMutability": "view",
      "type": "function"
    },
    {
      "inputs": [],
      "name": "getPoolsLikelihood",
      "outputs": [
        {
          "internalType": "uint256[]",
          "name": "likelihoods",
          "type": "uint256[]"
        },
        {
          "internalType": "uint256",
          "name": "sum",
          "type": "uint256"
        }
      ],
      "stateMutability": "view",
      "type": "function"
    },
    {
      "inputs": [],
      "name": "getPoolsToBeElected",
      "outputs": [
        {
          "internalType": "address[]",
          "name": "",
          "type": "address[]"
        }
      ],
      "stateMutability": "view",
      "type": "function"
    },
    {
      "inputs": [],
      "name": "getPoolsToBeRemoved",
      "outputs": [
        {
          "internalType": "address[]",
          "name": "",
          "type": "address[]"
        }
      ],
      "stateMutability": "view",
      "type": "function"
    },
    {
      "inputs": [],
      "name": "incrementStakingEpoch",
      "outputs": [],
      "stateMutability": "nonpayable",
      "type": "function"
    },
    {
      "inputs": [
        {
          "components": [
            {
              "internalType": "address",
              "name": "_validatorSetContract",
              "type": "address"
            },
            {
              "internalType": "address[]",
              "name": "_initialStakingAddresses",
              "type": "address[]"
            },
            {
              "internalType": "uint256",
              "name": "_delegatorMinStake",
              "type": "uint256"
            },
            {
              "internalType": "uint256",
              "name": "_candidateMinStake",
              "type": "uint256"
            },
            {
              "internalType": "uint256",
              "name": "_maxStake",
              "type": "uint256"
            },
            {
              "internalType": "uint256",
              "name": "_stakingFixedEpochDuration",
              "type": "uint256"
            },
            {
              "internalType": "uint256",
              "name": "_stakingTransitionTimeframeLength",
              "type": "uint256"
            },
            {
              "internalType": "uint256",
              "name": "_stakingWithdrawDisallowPeriod",
              "type": "uint256"
            }
          ],
          "internalType": "struct IStakingHbbft.StakingParams",
          "name": "stakingParams",
          "type": "tuple"
        },
        {
          "internalType": "bytes32[]",
          "name": "_publicKeys",
          "type": "bytes32[]"
        },
        {
          "internalType": "bytes16[]",
          "name": "_internetAddresses",
          "type": "bytes16[]"
        }
      ],
      "name": "initialize",
      "outputs": [],
      "stateMutability": "nonpayable",
      "type": "function"
    },
    {
      "inputs": [],
      "name": "isInitialized",
      "outputs": [
        {
          "internalType": "bool",
          "name": "",
          "type": "bool"
        }
      ],
      "stateMutability": "view",
      "type": "function"
    },
    {
      "inputs": [
        {
          "internalType": "address",
          "name": "_stakingAddress",
          "type": "address"
        }
      ],
      "name": "isPoolActive",
      "outputs": [
        {
          "internalType": "bool",
          "name": "",
          "type": "bool"
        }
      ],
      "stateMutability": "view",
      "type": "function"
    },
    {
      "inputs": [],
      "name": "maxStakeAmount",
      "outputs": [
        {
          "internalType": "uint256",
          "name": "",
          "type": "uint256"
        }
      ],
      "stateMutability": "view",
      "type": "function"
    },
    {
      "inputs": [
        {
          "internalType": "address",
          "name": "_poolStakingAddress",
          "type": "address"
        },
        {
          "internalType": "address",
          "name": "_staker",
          "type": "address"
        }
      ],
      "name": "maxWithdrawAllowed",
      "outputs": [
        {
          "internalType": "uint256",
          "name": "",
          "type": "uint256"
        }
      ],
      "stateMutability": "view",
      "type": "function"
    },
    {
      "inputs": [
        {
          "internalType": "address",
          "name": "_poolStakingAddress",
          "type": "address"
        },
        {
          "internalType": "address",
          "name": "_staker",
          "type": "address"
        }
      ],
      "name": "maxWithdrawOrderAllowed",
      "outputs": [
        {
          "internalType": "uint256",
          "name": "",
          "type": "uint256"
        }
      ],
      "stateMutability": "view",
      "type": "function"
    },
    {
      "inputs": [
        {
          "internalType": "address",
          "name": "_fromPoolStakingAddress",
          "type": "address"
        },
        {
          "internalType": "address",
          "name": "_toPoolStakingAddress",
          "type": "address"
        },
        {
          "internalType": "uint256",
          "name": "_amount",
          "type": "uint256"
        }
      ],
      "name": "moveStake",
      "outputs": [],
      "stateMutability": "nonpayable",
      "type": "function"
    },
    {
      "inputs": [
        {
          "internalType": "address",
          "name": "_stakingAddress",
          "type": "address"
        }
      ],
      "name": "notifyAvailability",
      "outputs": [],
      "stateMutability": "nonpayable",
      "type": "function"
    },
    {
      "inputs": [],
      "name": "notifyKeyGenFailed",
      "outputs": [],
      "stateMutability": "nonpayable",
      "type": "function"
    },
    {
      "inputs": [
        {
          "internalType": "uint256",
          "name": "detectedOfflineTime",
          "type": "uint256"
        }
      ],
      "name": "notifyNetworkOfftimeDetected",
      "outputs": [],
      "stateMutability": "nonpayable",
      "type": "function"
    },
    {
      "inputs": [
        {
          "internalType": "address",
          "name": "_poolStakingAddress",
          "type": "address"
        },
        {
          "internalType": "int256",
          "name": "_amount",
          "type": "int256"
        }
      ],
      "name": "orderWithdraw",
      "outputs": [],
      "stateMutability": "nonpayable",
      "type": "function"
    },
    {
      "inputs": [
        {
          "internalType": "address",
          "name": "",
          "type": "address"
        },
        {
          "internalType": "address",
          "name": "",
          "type": "address"
        }
      ],
      "name": "orderWithdrawEpoch",
      "outputs": [
        {
          "internalType": "uint256",
          "name": "",
          "type": "uint256"
        }
      ],
      "stateMutability": "view",
      "type": "function"
    },
    {
      "inputs": [
        {
          "internalType": "address",
          "name": "",
          "type": "address"
        },
        {
          "internalType": "address",
          "name": "",
          "type": "address"
        }
      ],
      "name": "orderedWithdrawAmount",
      "outputs": [
        {
          "internalType": "uint256",
          "name": "",
          "type": "uint256"
        }
      ],
      "stateMutability": "view",
      "type": "function"
    },
    {
      "inputs": [
        {
          "internalType": "address",
          "name": "",
          "type": "address"
        }
      ],
      "name": "orderedWithdrawAmountTotal",
      "outputs": [
        {
          "internalType": "uint256",
          "name": "",
          "type": "uint256"
        }
      ],
      "stateMutability": "view",
      "type": "function"
    },
    {
      "inputs": [
        {
          "internalType": "address",
          "name": "",
          "type": "address"
        },
        {
          "internalType": "address",
          "name": "",
          "type": "address"
        }
      ],
      "name": "poolDelegatorInactiveIndex",
      "outputs": [
        {
          "internalType": "uint256",
          "name": "",
          "type": "uint256"
        }
      ],
      "stateMutability": "view",
      "type": "function"
    },
    {
      "inputs": [
        {
          "internalType": "address",
          "name": "",
          "type": "address"
        },
        {
          "internalType": "address",
          "name": "",
          "type": "address"
        }
      ],
      "name": "poolDelegatorIndex",
      "outputs": [
        {
          "internalType": "uint256",
          "name": "",
          "type": "uint256"
        }
      ],
      "stateMutability": "view",
      "type": "function"
    },
    {
      "inputs": [
        {
          "internalType": "address",
          "name": "_poolStakingAddress",
          "type": "address"
        }
      ],
      "name": "poolDelegators",
      "outputs": [
        {
          "internalType": "address[]",
          "name": "",
          "type": "address[]"
        }
      ],
      "stateMutability": "view",
      "type": "function"
    },
    {
      "inputs": [
        {
          "internalType": "address",
          "name": "_poolStakingAddress",
          "type": "address"
        }
      ],
      "name": "poolDelegatorsInactive",
      "outputs": [
        {
          "internalType": "address[]",
          "name": "",
          "type": "address[]"
        }
      ],
      "stateMutability": "view",
      "type": "function"
    },
    {
      "inputs": [
        {
          "internalType": "address",
          "name": "",
          "type": "address"
        }
      ],
      "name": "poolInactiveIndex",
      "outputs": [
        {
          "internalType": "uint256",
          "name": "",
          "type": "uint256"
        }
      ],
      "stateMutability": "view",
      "type": "function"
    },
    {
      "inputs": [
        {
          "internalType": "address",
          "name": "",
          "type": "address"
        }
      ],
      "name": "poolIndex",
      "outputs": [
        {
          "internalType": "uint256",
          "name": "",
          "type": "uint256"
        }
      ],
      "stateMutability": "view",
      "type": "function"
    },
    {
      "inputs": [
        {
          "internalType": "address",
          "name": "",
          "type": "address"
        }
      ],
      "name": "poolInfo",
      "outputs": [
        {
          "internalType": "bytes",
          "name": "publicKey",
          "type": "bytes"
        },
        {
          "internalType": "bytes16",
          "name": "internetAddress",
          "type": "bytes16"
        },
        {
          "internalType": "bytes2",
          "name": "port",
          "type": "bytes2"
        }
      ],
      "stateMutability": "view",
      "type": "function"
    },
    {
      "inputs": [
        {
          "internalType": "address",
          "name": "",
          "type": "address"
        }
      ],
      "name": "poolToBeElectedIndex",
      "outputs": [
        {
          "internalType": "uint256",
          "name": "",
          "type": "uint256"
        }
      ],
      "stateMutability": "view",
      "type": "function"
    },
    {
      "inputs": [
        {
          "internalType": "address",
          "name": "",
          "type": "address"
        }
      ],
      "name": "poolToBeRemovedIndex",
      "outputs": [
        {
          "internalType": "uint256",
          "name": "",
          "type": "uint256"
        }
      ],
      "stateMutability": "view",
      "type": "function"
    },
    {
      "inputs": [],
      "name": "recoverAbandonedStakes",
      "outputs": [],
      "stateMutability": "nonpayable",
      "type": "function"
    },
    {
      "inputs": [],
      "name": "removeMyPool",
      "outputs": [],
      "stateMutability": "nonpayable",
      "type": "function"
    },
    {
      "inputs": [
        {
          "internalType": "address",
          "name": "_stakingAddress",
          "type": "address"
        }
      ],
      "name": "removePool",
      "outputs": [],
      "stateMutability": "nonpayable",
      "type": "function"
    },
    {
      "inputs": [],
      "name": "removePools",
      "outputs": [],
      "stateMutability": "nonpayable",
      "type": "function"
    },
    {
      "inputs": [
        {
          "internalType": "address",
          "name": "",
          "type": "address"
        },
        {
          "internalType": "address",
          "name": "",
          "type": "address"
        },
        {
          "internalType": "uint256",
          "name": "",
          "type": "uint256"
        }
      ],
      "name": "rewardWasTaken",
      "outputs": [
        {
          "internalType": "bool",
          "name": "",
          "type": "bool"
        }
      ],
      "stateMutability": "view",
      "type": "function"
    },
    {
      "inputs": [
        {
          "internalType": "uint256",
          "name": "_minStake",
          "type": "uint256"
        }
      ],
      "name": "setCandidateMinStake",
      "outputs": [],
      "stateMutability": "nonpayable",
      "type": "function"
    },
    {
      "inputs": [
        {
          "internalType": "uint256",
          "name": "_minStake",
          "type": "uint256"
        }
      ],
      "name": "setDelegatorMinStake",
      "outputs": [],
      "stateMutability": "nonpayable",
      "type": "function"
    },
    {
      "inputs": [
        {
          "internalType": "bytes",
          "name": "_publicKey",
          "type": "bytes"
        },
        {
          "internalType": "bytes16",
          "name": "_ip",
          "type": "bytes16"
        },
        {
          "internalType": "bytes2",
          "name": "_port",
          "type": "bytes2"
        }
      ],
      "name": "setPoolInfo",
      "outputs": [],
      "stateMutability": "nonpayable",
      "type": "function"
    },
    {
      "inputs": [
        {
          "internalType": "uint256",
          "name": "_timestamp",
          "type": "uint256"
        }
      ],
      "name": "setStakingEpochStartTime",
      "outputs": [],
      "stateMutability": "nonpayable",
      "type": "function"
    },
    {
      "inputs": [
        {
          "internalType": "address",
          "name": "_validatorAddress",
          "type": "address"
        },
        {
          "internalType": "bytes16",
          "name": "_ip",
          "type": "bytes16"
        },
        {
          "internalType": "bytes2",
          "name": "_port",
          "type": "bytes2"
        }
      ],
      "name": "setValidatorInternetAddress",
      "outputs": [],
      "stateMutability": "nonpayable",
      "type": "function"
    },
    {
      "inputs": [
        {
          "internalType": "address",
          "name": "_toPoolStakingAddress",
          "type": "address"
        }
      ],
      "name": "stake",
      "outputs": [],
      "stateMutability": "payable",
      "type": "function"
    },
    {
      "inputs": [
        {
          "internalType": "address",
          "name": "",
          "type": "address"
        },
        {
          "internalType": "address",
          "name": "",
          "type": "address"
        }
      ],
      "name": "stakeAmount",
      "outputs": [
        {
          "internalType": "uint256",
          "name": "",
          "type": "uint256"
        }
      ],
      "stateMutability": "view",
      "type": "function"
    },
    {
      "inputs": [
        {
          "internalType": "address",
          "name": "_poolStakingAddress",
          "type": "address"
        },
        {
          "internalType": "address",
          "name": "_staker",
          "type": "address"
        }
      ],
      "name": "stakeAmountByCurrentEpoch",
      "outputs": [
        {
          "internalType": "uint256",
          "name": "",
          "type": "uint256"
        }
      ],
      "stateMutability": "view",
      "type": "function"
    },
    {
      "inputs": [
        {
          "internalType": "address",
          "name": "",
          "type": "address"
        }
      ],
      "name": "stakeAmountTotal",
      "outputs": [
        {
          "internalType": "uint256",
          "name": "",
          "type": "uint256"
        }
      ],
      "stateMutability": "view",
      "type": "function"
    },
    {
      "inputs": [
        {
          "internalType": "address",
          "name": "",
          "type": "address"
        },
        {
          "internalType": "address",
          "name": "",
          "type": "address"
        }
      ],
      "name": "stakeFirstEpoch",
      "outputs": [
        {
          "internalType": "uint256",
          "name": "",
          "type": "uint256"
        }
      ],
      "stateMutability": "view",
      "type": "function"
    },
    {
      "inputs": [
        {
          "internalType": "address",
          "name": "",
          "type": "address"
        },
        {
          "internalType": "address",
          "name": "",
          "type": "address"
        }
      ],
      "name": "stakeLastEpoch",
      "outputs": [
        {
          "internalType": "uint256",
          "name": "",
          "type": "uint256"
        }
      ],
      "stateMutability": "view",
      "type": "function"
    },
    {
      "inputs": [],
      "name": "stakingEpoch",
      "outputs": [
        {
          "internalType": "uint256",
          "name": "",
          "type": "uint256"
        }
      ],
      "stateMutability": "view",
      "type": "function"
    },
    {
      "inputs": [],
      "name": "stakingEpochStartBlock",
      "outputs": [
        {
          "internalType": "uint256",
          "name": "",
          "type": "uint256"
        }
      ],
      "stateMutability": "view",
      "type": "function"
    },
    {
      "inputs": [],
      "name": "stakingEpochStartTime",
      "outputs": [
        {
          "internalType": "uint256",
          "name": "",
          "type": "uint256"
        }
      ],
      "stateMutability": "view",
      "type": "function"
    },
    {
      "inputs": [],
      "name": "stakingFixedEpochDuration",
      "outputs": [
        {
          "internalType": "uint256",
          "name": "",
          "type": "uint256"
        }
      ],
      "stateMutability": "view",
      "type": "function"
    },
    {
      "inputs": [],
      "name": "stakingFixedEpochEndTime",
      "outputs": [
        {
          "internalType": "uint256",
          "name": "",
          "type": "uint256"
        }
      ],
      "stateMutability": "view",
      "type": "function"
    },
    {
      "inputs": [],
      "name": "stakingTransitionTimeframeLength",
      "outputs": [
        {
          "internalType": "uint256",
          "name": "",
          "type": "uint256"
        }
      ],
      "stateMutability": "view",
      "type": "function"
    },
    {
      "inputs": [],
      "name": "stakingWithdrawDisallowPeriod",
      "outputs": [
        {
          "internalType": "uint256",
          "name": "",
          "type": "uint256"
        }
      ],
      "stateMutability": "view",
      "type": "function"
    },
    {
      "inputs": [],
      "name": "startTimeOfNextPhaseTransition",
      "outputs": [
        {
          "internalType": "uint256",
          "name": "",
          "type": "uint256"
        }
      ],
      "stateMutability": "view",
      "type": "function"
    },
    {
      "inputs": [],
      "name": "validatorSetContract",
      "outputs": [
        {
          "internalType": "contract IValidatorSetHbbft",
          "name": "",
          "type": "address"
        }
      ],
      "stateMutability": "view",
      "type": "function"
    },
    {
      "inputs": [
        {
          "internalType": "address",
          "name": "_fromPoolStakingAddress",
          "type": "address"
        },
        {
          "internalType": "uint256",
          "name": "_amount",
          "type": "uint256"
        }
      ],
      "name": "withdraw",
      "outputs": [],
      "stateMutability": "nonpayable",
      "type": "function"
    },
    {
      "stateMutability": "payable",
      "type": "receive"
    }
  ],
  "bytecode": "0x608060405234801561001057600080fd5b50615f7080620000216000396000f3fe6080604052600436106104175760003560e01c80638247a23911610228578063b6bbbcea11610128578063dfc8bf4e116100bb578063ee435f551161008a578063f3fef3a31161006f578063f3fef3a314610d99578063f494250114610db9578063fa4aaf4714610dcd57600080fd5b8063ee435f5514610d6e578063f078609614610d8357600080fd5b8063dfc8bf4e14610cd4578063e9ab030014610cf4578063edd7db7514610d2c578063edf94b8214610d4157600080fd5b8063d290c21d116100f7578063d290c21d14610c67578063da7a9b6a14610c7c578063dadee88a14610c92578063df6f55f514610cbf57600080fd5b8063b6bbbcea14610bc2578063bc9eb2c314610bfa578063c6912cc014610c32578063cfef144114610c4757600080fd5b80639ea8082b116101bb578063a711e6a11161018a578063ae1aaf801161016f578063ae1aaf8014610b5f578063b42754a514610b75578063b61ed63a14610ba257600080fd5b8063a711e6a114610b2a578063adddc0cf14610b4a57600080fd5b80639ea8082b14610a85578063a420596714610aa5578063a5d54f6514610add578063a697ecff14610af257600080fd5b8063957950a7116101f7578063957950a7146109fd5780639a7b5f1114610a205780639b03d74414610a4f5780639e72c63514610a6557600080fd5b80638247a23914610965578063862be28714610985578063950a6513146109a55780639518c481146109c557600080fd5b80634cf83f9c1161033357806365113918116102c657806373c2180311610295578063794c0c681161027a578063794c0c681461090f5780637b0a0f9b146109255780637b15b94c1461094557600080fd5b806373c218031461089f578063750dd2a1146108bf57600080fd5b8063651139181461081a578063673a2a1f146108475780636bda1577146108695780637069e7461461088957600080fd5b80635659b742116103025780635659b742146107a357806356e4d6c2146107db5780635d80ca32146107ee5780635fef76431461080457600080fd5b80634cf83f9c146107145780634e9b426d146107345780634f9a8d8f146107615780635267e1d61461077757600080fd5b80632bafde8d116103ab578063379b046a1161037a578063379b046a1461069e578063392e53cd146106b45780633b7d0946146106d457806348aaa4a2146106f457600080fd5b80632bafde8d146105e857806331727730146106085780633219d60014610659578063371542631461068957600080fd5b80631fb31e43116103e75780631fb31e431461052457806322e3d986146105a0578063251441a9146105b557806326476204146105d557600080fd5b80622ceebc1461046e578063028b8bdb146104bf5780630868c0d6146104d55780631555371c1461050d57600080fd5b366104695760405162461bcd60e51b815260206004820152600b60248201527f4e6f742070617961626c6500000000000000000000000000000000000000000060448201526064015b60405180910390fd5b600080fd5b34801561047a57600080fd5b506104ac61048936600461572b565b600b60209081526000938452604080852082529284528284209052825290205481565b6040519081526020015b60405180910390f35b3480156104cb57600080fd5b506104ac60195481565b3480156104e157600080fd5b506104ac6104f036600461576c565b600f60209081526000928352604080842090915290825290205481565b34801561051957600080fd5b50610522610dfa565b005b34801561053057600080fd5b5061056e61053f3660046157a5565b6001600160a01b0316600090815260226020526040902060010154608081901b91600160801b90910460f01b90565b604080516fffffffffffffffffffffffffffffffff1990931683526001600160f01b03199091166020830152016104b6565b3480156105ac57600080fd5b506104ac610eeb565b3480156105c157600080fd5b506105226105d036600461572b565b610f32565b6105226105e33660046157a5565b6110b7565b3480156105f457600080fd5b506105226106033660046157c2565b611109565b34801561061457600080fd5b5061064961062336600461572b565b601560209081526000938452604080852082529284528284209052825290205460ff1681565b60405190151581526020016104b6565b34801561066557600080fd5b506106496106743660046157a5565b60256020526000908152604090205460ff1681565b34801561069557600080fd5b506105226111f7565b3480156106aa57600080fd5b506104ac601f5481565b3480156106c057600080fd5b506021546001600160a01b03161515610649565b3480156106e057600080fd5b506105226106ef3660046157a5565b61165f565b34801561070057600080fd5b5061052261070f3660046157c2565b6116b9565b34801561072057600080fd5b5061052261072f366004615827565b6117a7565b34801561074057600080fd5b5061075461074f3660046157a5565b611b17565b6040516104b6919061590b565b34801561076d57600080fd5b506104ac601b5481565b34801561078357600080fd5b506104ac6107923660046157a5565b602080526000908152604090205481565b3480156107af57600080fd5b506104ac6107be36600461576c565b601760209081526000928352604080842090915290825290205481565b6105226107e9366004615986565b611bc3565b3480156107fa57600080fd5b506104ac60235481565b34801561081057600080fd5b506104ac60095481565b34801561082657600080fd5b506104ac6108353660046157a5565b60116020526000908152604090205481565b34801561085357600080fd5b5061085c611cdc565b6040516104b691906159ed565b34801561087557600080fd5b506104ac61088436600461576c565b611d3e565b34801561089557600080fd5b506104ac601e5481565b3480156108ab57600080fd5b5061085c6108ba3660046157a5565b611ee7565b3480156108cb57600080fd5b506104ac6108da36600461576c565b6001600160a01b039182166000908152600860209081526040808320939094168252918252828120601a548252909152205490565b34801561091b57600080fd5b506104ac601a5481565b34801561093157600080fd5b50610522610940366004615a52565b611f5c565b34801561095157600080fd5b506105226109603660046157a5565b611ffd565b34801561097157600080fd5b506105226109803660046157c2565b612088565b34801561099157600080fd5b506105226109a0366004615a97565b6120df565b3480156109b157600080fd5b506104ac6109c036600461576c565b612142565b3480156109d157600080fd5b506104ac6109e036600461576c565b601060209081526000928352604080842090915290825290205481565b348015610a0957600080fd5b50610a126122b7565b6040516104b6929190615af1565b348015610a2c57600080fd5b50610a40610a3b3660046157a5565b61231a565b6040516104b693929190615b39565b348015610a5b57600080fd5b506104ac601d5481565b348015610a7157600080fd5b50610522610a803660046157c2565b6123ce565b348015610a9157600080fd5b5061085c610aa03660046157a5565b61243d565b348015610ab157600080fd5b506104ac610ac036600461576c565b600e60209081526000928352604080842090915290825290205481565b348015610ae957600080fd5b5061085c6124b1565b348015610afe57600080fd5b506104ac610b0d36600461576c565b601660209081526000928352604080842090915290825290205481565b348015610b3657600080fd5b50610649610b453660046157a5565b612511565b348015610b5657600080fd5b50610522612570565b348015610b6b57600080fd5b506104ac601c5481565b348015610b8157600080fd5b506104ac610b903660046157a5565b60126020526000908152604090205481565b348015610bae57600080fd5b50610522610bbd366004615b80565b6125d9565b348015610bce57600080fd5b50602454610be2906001600160a01b031681565b6040516001600160a01b0390911681526020016104b6565b348015610c0657600080fd5b506104ac610c1536600461576c565b601860209081526000928352604080842090915290825290205481565b348015610c3e57600080fd5b506104ac612bb0565b348015610c5357600080fd5b50610522610c623660046157a5565b612bd4565b348015610c7357600080fd5b5061085c612f4d565b348015610c8857600080fd5b506104ac600a5481565b348015610c9e57600080fd5b506104ac610cad3660046157a5565b600d6020526000908152604090205481565b348015610ccb57600080fd5b5061085c612fad565b348015610ce057600080fd5b50602154610be2906001600160a01b031681565b348015610d0057600080fd5b506104ac610d0f36600461576c565b600c60209081526000928352604080842090915290825290205481565b348015610d3857600080fd5b5061052261300d565b348015610d4d57600080fd5b506104ac610d5c3660046157a5565b60146020526000908152604090205481565b348015610d7a57600080fd5b50610522613209565b348015610d8f57600080fd5b506104ac610bb881565b348015610da557600080fd5b50610522610db4366004615b80565b613273565b348015610dc557600080fd5b506001610649565b348015610dd957600080fd5b506104ac610de83660046157a5565b60136020526000908152604090205481565b6021546001600160a01b03163314610e485760405162461bcd60e51b815260206004820152601160248201527013db9b1e4815985b1a59185d1bdc94d95d607a1b6044820152606401610460565b60006003805480602002602001604051908101604052809291908181526020018280548015610ea057602002820191906000526020600020905b81546001600160a01b03168152600190910190602001808311610e82575b5050505050905060005b8151811015610ee757610ed5828281518110610ec857610ec8615bac565b602002602001015161335a565b80610edf81615bd8565b915050610eaa565b5050565b601d54601b546000919015610f01576001610f04565b60005b60ff16601f54601b5483610f189190615bf1565b610f229190615bf1565b610f2c9190615c04565b91505090565b3a600003610f725760405162461bcd60e51b815260206004820152600d60248201526c04761735072696365206973203609c1b6044820152606401610460565b6021546001600160a01b0316610fc55760405162461bcd60e51b815260206004820152601860248201527710dbdb9d1c9858dd081b9bdd081a5b9a5d1a585b1a5e995960421b6044820152606401610460565b816001600160a01b0316836001600160a01b03160361104c5760405162461bcd60e51b815260206004820152602760248201527f4d6f76655374616b653a2073726320616e642064737420706f6f6c206973207460448201527f68652073616d65000000000000000000000000000000000000000000000000006064820152608401610460565b336110588482846134b4565b6110638382846137e7565b601a54604080516001600160a01b0387811682526020820186905280851692908716917f4480d8e4b1e9095b94bf513961d26fe1d32386ebdd103d18fe8738cf4b2223ff910160405180910390a450505050565b3a6000036110f75760405162461bcd60e51b815260206004820152600d60248201526c04761735072696365206973203609c1b6044820152606401610460565b33346111048383836137e7565b505050565b7fb53127684a568b3173ae13b9f8a6016e243e63b6e8ee1178d6a717850b5d6103546001600160a01b0316336001600160a01b03161461119f5760405162461bcd60e51b815260206004820152602b60248201527f6f6e6c792061646d696e20697320616c6c6f77656420746f2063616c6c20746860448201526a34b990333ab731ba34b7b760a91b6064820152608401610460565b6021546001600160a01b03166111f25760405162461bcd60e51b815260206004820152601860248201527710dbdb9d1c9858dd081b9bdd081a5b9a5d1a585b1a5e995960421b6044820152606401610460565b600a55565b3a6000036112375760405162461bcd60e51b815260206004820152600d60248201526c04761735072696365206973203609c1b6044820152606401610460565b600080600180548060200260200160405190810160405280929190818152602001828054801561129057602002820191906000526020600020905b81546001600160a01b03168152600190910190602001808311611272575b5050505050905080516000036112e85760405162461bcd60e51b815260206004820152601260248201527f6e6f7468696e6720746f207265636f76657200000000000000000000000000006044820152606401610460565b60005b81518110156114c157600082828151811061130857611308615bac565b6020026020010151905061131b81613e14565b806113915750602154604051639d6fc1d160e01b81526001600160a01b03838116600483015290911690639d6fc1d190602401602060405180830381865afa15801561136b573d6000803e3d6000fd5b505050506040513d601f19601f8201168201806040525081019061138f9190615c17565b155b1561139c57506114b1565b6113a581613e51565b6001600160a01b0381166000908152602560209081526040808320805460ff191660011790559080528120805490829055906113e08361243d565b905060005b815181101561145357600082828151811061140257611402615bac565b6020908102919091018101516001600160a01b03808816600090815260168452604080822092841682529190935282209190915590506114428582613f7b565b5061144c81615bd8565b90506113e5565b5061145e8287615bf1565b9550826001600160a01b0316336001600160a01b03167f8e6a4ccd7dccdca9ac211d00fcc3fa7c71be75ff73d3a35f63ea023173cc1004846040516114a591815260200190565b60405180910390a35050505b6114ba81615bd8565b90506112eb565b50816000036115125760405162461bcd60e51b815260206004820152601260248201527f6e6f7468696e6720746f207265636f76657200000000000000000000000000006044820152606401610460565b600061151f600284615c39565b9050600061152d8285615c04565b90506000602460009054906101000a90046001600160a01b03166001600160a01b03166319cee8976040518163ffffffff1660e01b8152600401602060405180830381865afa158015611584573d6000803e3d6000fd5b505050506040513d601f19601f820116820180604052508101906115a89190615c5b565b9050602460009054906101000a90046001600160a01b03166001600160a01b031663af182535836040518263ffffffff1660e01b81526004016000604051808303818588803b1580156115fa57600080fd5b505af115801561160e573d6000803e3d6000fd5b505050505061161d818461410f565b604080518381526020810185905233917f1c113e6bae9530fea40323e612aeb0cb7817dedb5a0b0f6bdfbff97d55920dc7910160405180910390a25050505050565b6021546001600160a01b031633146116ad5760405162461bcd60e51b815260206004820152601160248201527013db9b1e4815985b1a59185d1bdc94d95d607a1b6044820152606401610460565b6116b68161335a565b50565b7fb53127684a568b3173ae13b9f8a6016e243e63b6e8ee1178d6a717850b5d6103546001600160a01b0316336001600160a01b03161461174f5760405162461bcd60e51b815260206004820152602b60248201527f6f6e6c792061646d696e20697320616c6c6f77656420746f2063616c6c20746860448201526a34b990333ab731ba34b7b760a91b6064820152608401610460565b6021546001600160a01b03166117a25760405162461bcd60e51b815260206004820152601860248201527710dbdb9d1c9858dd081b9bdd081a5b9a5d1a585b1a5e995960421b6044820152606401610460565b600955565b8460a001356000036117fb5760405162461bcd60e51b815260206004820152601760248201527f466978656445706f63684475726174696f6e20697320300000000000000000006044820152606401610460565b8460e001358560a00135116118785760405162461bcd60e51b815260206004820152603d60248201527f466978656445706f63684475726174696f6e206d757374206265206c6f6e676560448201527f72207468616e207769746864726177446973616c6c6f77506572696f640000006064820152608401610460565b8460e001356000036118cc5760405162461bcd60e51b815260206004820152601b60248201527f5769746864726177446973616c6c6f77506572696f64206973203000000000006044820152606401610460565b8460c001356000036119465760405162461bcd60e51b815260206004820152602e60248201527f546865207472616e736974696f6e2074696d656672616d65206d75737420626560448201527f206c6f6e676572207468616e20300000000000000000000000000000000000006064820152608401610460565b8460a001358560c00135106119c5576040805162461bcd60e51b81526020600482015260248101919091527f546865207472616e736974696f6e2074696d656672616d65206d75737420626560448201527f2073686f72746572207468656e207468652065706f6368206475726174696f6e6064820152608401610460565b611a896119d560208701876157a5565b6119e26020880188615c78565b8080602002602001604051908101604052809392919081815260200183836020028082843760009201919091525050604080516020808b02828101820184528b8352928d0135945060608d0135935060808d0135928c918c91829185019084908082843760009201919091525050604080516020808d0282810182019093528c82529093508c92508b91829185019084908082843760009201919091525061420292505050565b60a0850135601b5560e085013560195560215460408051636c9230db60e01b815290516001600160a01b0390921691636c9230db916004808201926020929091908290030181865afa158015611ae3573d6000803e3d6000fd5b505050506040513d601f19601f82011682018060405250810190611b079190615cc2565b601d555050505060c00135601c55565b6001600160a01b0381166000908152602260205260409020805460609190611b3e90615cdb565b80601f0160208091040260200160405190810160405280929190818152602001828054611b6a90615cdb565b8015611bb75780601f10611b8c57610100808354040283529160200191611bb7565b820191906000526020600020905b815481529060010190602001808311611b9a57829003601f168201915b50505050509050919050565b3a600003611c035760405162461bcd60e51b815260206004820152600d60248201526c04761735072696365206973203609c1b6044820152606401610460565b602154604051630526083960e11b81526001600160a01b0386811660048301523360248301819052923492911690630a4c107290604401600060405180830381600087803b158015611c5457600080fd5b505af1158015611c68573d6000803e3d6000fd5b50505050611c778283836137e7565b6001600160a01b0382166000908152602260205260409020611c9a858783615d71565b50506001600160a01b0316600090815260226020526040902060010180546fffffffffffffffffffffffffffffffff191660809290921c919091179055505050565b60606000805480602002602001604051908101604052809291908181526020018280548015611d3457602002820191906000526020600020905b81546001600160a01b03168152600190910190602001808311611d16575b5050505050905090565b6021546040516253517560e01b81526001600160a01b03848116600483015260009283929116906253517590602401602060405180830381865afa158015611d8a573d6000803e3d6000fd5b505050506040513d601f19601f82011682018060405250810190611dae9190615c5b565b9050611dcf81846001600160a01b0316866001600160a01b03161415614952565b1580611df357506001600160a01b03841660009081526025602052604090205460ff165b15611e02576000915050611ee1565b6001600160a01b03848116600090815260166020908152604080832087851684529091529081902054602154915163a0d16cad60e01b815284841660048201529092919091169063a0d16cad90602401602060405180830381865afa158015611e6f573d6000803e3d6000fd5b505050506040513d601f19601f82011682018060405250810190611e939190615c17565b611ea0579150611ee19050565b6001600160a01b0385811660009081526008602090815260408083209388168352928152828220601a5483529052205480821115611edc578091505b509150505b92915050565b6001600160a01b038116600090815260076020908152604091829020805483518184028101840190945280845260609392830182828015611bb757602002820191906000526020600020905b81546001600160a01b03168152600190910190602001808311611f335750505050509050919050565b6021546001600160a01b03163314611faa5760405162461bcd60e51b815260206004820152601160248201527013db9b1e4815985b1a59185d1bdc94d95d607a1b6044820152606401610460565b6001600160a01b039092166000908152602260205260409020600101805460f09390931c600160801b0271ffffffffffffffffffffffffffffffffffff1990931660809290921c91909117919091179055565b6021546001600160a01b0316331461204b5760405162461bcd60e51b815260206004820152601160248201527013db9b1e4815985b1a59185d1bdc94d95d607a1b6044820152606401610460565b6009546001600160a01b0382166000908152601660209081526040808320909152902054106116b65761207f816001614a5e565b6116b681614b30565b6021546001600160a01b031633146120d65760405162461bcd60e51b815260206004820152601160248201527013db9b1e4815985b1a59185d1bdc94d95d607a1b6044820152606401610460565b601d5543601e55565b3360009081526022602052604090206120f9848683615d71565b50336000908152602260205260409020600101805460f09290921c600160801b0271ffffffffffffffffffffffffffffffffffff1990921660809390931c929092171790555050565b6021546040516253517560e01b81526001600160a01b03848116600483015260009283929116906253517590602401602060405180830381865afa15801561218e573d6000803e3d6000fd5b505050506040513d601f19601f820116820180604052508101906121b29190615c5b565b90506121d381846001600160a01b0316866001600160a01b03161415614952565b6121e1576000915050611ee1565b60215460405163a0d16cad60e01b81526001600160a01b0383811660048301529091169063a0d16cad90602401602060405180830381865afa15801561222b573d6000803e3d6000fd5b505050506040513d601f19601f8201168201806040525081019061224f9190615c17565b61225d576000915050611ee1565b6001600160a01b038481166000818152600860209081526040808320948816808452948252808320601a5484528252808320549383526016825280832094835293905291909120546122af9190615c04565b949350505050565b6060600060046005548180548060200260200160405190810160405280929190818152602001828054801561230b57602002820191906000526020600020905b8154815260200190600101908083116122f7575b50505050509150915091509091565b60226020526000908152604090208054819061233590615cdb565b80601f016020809104026020016040519081016040528092919081815260200182805461236190615cdb565b80156123ae5780601f10612383576101008083540402835291602001916123ae565b820191906000526020600020905b81548152906001019060200180831161239157829003601f168201915b50505060019093015491925050608081901b90600160801b900460f01b83565b6021546001600160a01b0316331461241c5760405162461bcd60e51b815260206004820152601160248201527013db9b1e4815985b1a59185d1bdc94d95d607a1b6044820152606401610460565b601c5481601f5461242d9190615bf1565b6124379190615bf1565b601f5550565b6001600160a01b038116600090815260066020908152604091829020805483518184028101840190945280845260609392830182828015611bb7576020028201919060005260206000209081546001600160a01b03168152600190910190602001808311611f335750505050509050919050565b60606002805480602002602001604051908101604052809291908181526020018280548015611d34576020028201919060005260206000209081546001600160a01b03168152600190910190602001808311611d16575050505050905090565b6001600160a01b0381166000908152601260205260408120548154811080156125695750826001600160a01b03166000828154811061255257612552615bac565b6000918252602090912001546001600160a01b0316145b9392505050565b6021546001600160a01b031633146125be5760405162461bcd60e51b815260206004820152601160248201527013db9b1e4815985b1a59185d1bdc94d95d607a1b6044820152606401610460565b601c54601f60008282546125d29190615bf1565b9091555050565b3a6000036126195760405162461bcd60e51b815260206004820152600d60248201526c04761735072696365206973203609c1b6044820152606401610460565b6021546001600160a01b031661266c5760405162461bcd60e51b815260206004820152601860248201527710dbdb9d1c9858dd081b9bdd081a5b9a5d1a585b1a5e995960421b6044820152606401610460565b6001600160a01b0382166126cd5760405162461bcd60e51b815260206004820152602260248201527f706f6f6c5374616b696e6741646472657373206d757374206e6f742062652030604482015261078360f41b6064820152608401610460565b806000036127435760405162461bcd60e51b815260206004820152602560248201527f6f72646572656420776974686472617720616d6f756e74206d757374206e6f7460448201527f20626520300000000000000000000000000000000000000000000000000000006064820152608401610460565b6021546040516253517560e01b81526001600160a01b03848116600483015233926127cf929116906253517590602401602060405180830381865afa158015612790573d6000803e3d6000fd5b505050506040513d601f19601f820116820180604052508101906127b49190615c5b565b846001600160a01b0316836001600160a01b03161415614952565b61281b5760405162461bcd60e51b815260206004820152601a60248201527f4f7264657257697468647261773a206e6f7420616c6c6f7765640000000000006044820152606401610460565b6001600160a01b038084166000818152600c6020908152604080832094861680845294825280832054848452600d835281842054601684528285209685529583528184205494845291805282205490939291861315612954578561287f8887612142565b8111156128f45760405162461bcd60e51b815260206004820152602f60248201527f4f7264657257697468647261773a206d617857697468647261774f726465724160448201527f6c6c6f77656420657863656564656400000000000000000000000000000000006064820152608401610460565b6128fe8186615bf1565b945061290a8185615bf1565b93506129168184615c04565b92506129228183615c04565b601a546001600160a01b03808b166000908152600e60209081526040808320938c168352929052205591506129939050565b600061295f87615e31565b905061296b8186615c04565b94506129778185615c04565b93506129838184615bf1565b925061298f8183615bf1565b9150505b6001600160a01b038088166000818152600c60209081526040808320948a16808452948252808320899055838352600d825280832088905560168252808320858452825280832087905583835290805290208390559003612a99578115806129fd57506009548210155b612a6f5760405162461bcd60e51b815260206004820152603360248201527f6e65775374616b6520416d6f756e74206d75737420626520677265617465722060448201527f7468616e20746865206d696e207374616b652e000000000000000000000000006064820152608401610460565b6000861315612a8e5781600003612a8957612a8987614bfe565b612b4e565b612a89876001614a5e565b811580612aa85750600a548210155b612b1a5760405162461bcd60e51b815260206004820152603360248201527f6e65775374616b6520416d6f756e74206d75737420626520677265617465722060448201527f7468616e20746865206d696e207374616b652e000000000000000000000000006064820152608401610460565b6000861315612b3a5781600003612b3557612b358786613f7b565b612b44565b612b448786614cc2565b612b4e8786614d8a565b612b5787614b30565b601a54856001600160a01b0316886001600160a01b03167f80d5c777e5f7ac6ee89723223803ca5c0ec0204f89e99c1b0cde973c66a6459489604051612b9f91815260200190565b60405180910390a450505050505050565b6000601c54601b54601d54612bc59190615bf1565b612bcf9190615c04565b905090565b3a600003612c145760405162461bcd60e51b815260206004820152600d60248201526c04761735072696365206973203609c1b6044820152606401610460565b6021546001600160a01b0316612c675760405162461bcd60e51b815260206004820152601860248201527710dbdb9d1c9858dd081b9bdd081a5b9a5d1a585b1a5e995960421b6044820152606401610460565b6001600160a01b0381166000908152600e6020908152604080832033808552925290912054601a5411612d025760405162461bcd60e51b815260206004820152603f60248201527f63616e6e6f7420636c61696d206f72646572656420776974686472617720696e60448201527f207468652073616d652065706f636820697420776173206f7264657265642e006064820152608401610460565b6021546040516253517560e01b81526001600160a01b038481166004830152612d8b9216906253517590602401602060405180830381865afa158015612d4c573d6000803e3d6000fd5b505050506040513d601f19601f82011682018060405250810190612d709190615c5b565b836001600160a01b0316836001600160a01b03161415614952565b612dfd5760405162461bcd60e51b815260206004820152602a60248201527f436c61696d4f72646572656457697468647261773a205769746864726177206e60448201527f6f7420616c6c6f776564000000000000000000000000000000000000000000006064820152608401610460565b6001600160a01b038083166000908152600c6020908152604080832093851683529290529081205490819003612e755760405162461bcd60e51b815260206004820152601a60248201527f636c61696d20616d6f756e74206d757374206e6f7420626520300000000000006044820152606401610460565b6001600160a01b038084166000818152600c602090815260408083209487168352938152838220829055918152600d9091522054612eb4908290615c04565b6001600160a01b038085166000908152600d602090815260408083209490945560168152838220928616825291909152908120549003612ef857612ef88383614e8f565b601a54826001600160a01b0316846001600160a01b03167ff380b0bc887e00f5b50d3c9d4eaaf5c9a0afd97b956316b995159384c4ede9b384604051612f4091815260200190565b60405180910390a4505050565b60606003805480602002602001604051908101604052809291908181526020018280548015611d34576020028201919060005260206000209081546001600160a01b03168152600190910190602001808311611d16575050505050905090565b60606001805480602002602001604051908101604052809291908181526020018280548015611d34576020028201919060005260206000209081546001600160a01b03168152600190910190602001808311611d16575050505050905090565b3a60000361304d5760405162461bcd60e51b815260206004820152600d60248201526c04761735072696365206973203609c1b6044820152606401610460565b6021546001600160a01b03166130a05760405162461bcd60e51b815260206004820152601860248201527710dbdb9d1c9858dd081b9bdd081a5b9a5d1a585b1a5e995960421b6044820152606401610460565b6021546040516253517560e01b81523360048201819052916000916001600160a01b03909116906253517590602401602060405180830381865afa1580156130ec573d6000803e3d6000fd5b505050506040513d601f19601f820116820180604052508101906131109190615c5b565b90506000601a54118061318e575060215460405163facd743b60e01b81526001600160a01b0383811660048301529091169063facd743b90602401602060405180830381865afa158015613168573d6000803e3d6000fd5b505050506040513d601f19601f8201168201806040525081019061318c9190615c17565b155b6132005760405162461bcd60e51b815260206004820152602a60248201527f43616e27742072656d6f766520706f6f6c20647572696e67203173742073746160448201527f6b696e672065706f6368000000000000000000000000000000000000000000006064820152608401610460565b610ee78261335a565b6021546001600160a01b031633146132575760405162461bcd60e51b815260206004820152601160248201527013db9b1e4815985b1a59185d1bdc94d95d607a1b6044820152606401610460565b601a805490600061326783615bd8565b90915550506000601f55565b3a6000036132b35760405162461bcd60e51b815260206004820152600d60248201526c04761735072696365206973203609c1b6044820152606401610460565b6021546001600160a01b03166133065760405162461bcd60e51b815260206004820152601860248201527710dbdb9d1c9858dd081b9bdd081a5b9a5d1a585b1a5e995960421b6044820152606401610460565b336133128382846134b4565b601a54816001600160a01b0316846001600160a01b03167fa7c0f0cac6bd4d18042007706c84a8abe823751cf289b69c01e83eef7b5915c785604051612f4091815260200190565b6001600160a01b0381166000908152601260205260408120549054811080156133b25750816001600160a01b03166000828154811061339b5761339b615bac565b6000918252602090912001546001600160a01b0316145b1561347d576000805481906133c990600190615c04565b815481106133d9576133d9615bac565b600091825260208220015481546001600160a01b0390911692508291908490811061340657613406615bac565b600091825260208083209190910180546001600160a01b0319166001600160a01b039485161790558383168252601290526040808220859055918516815290812081905580548061345957613459615e4d565b600082815260209020810160001990810180546001600160a01b0319169055019055505b61348682613e14565b156134995761349482613e51565b6134a2565b6134a282614fbd565b6134ab8261507b565b610ee782615298565b6001600160a01b0383166135305760405162461bcd60e51b815260206004820152602e60248201527f576974686472617720706f6f6c207374616b696e672061646472657373206d7560448201527f7374206e6f74206265206e756c6c0000000000000000000000000000000000006064820152608401610460565b806000036135805760405162461bcd60e51b815260206004820181905260248201527f616d6f756e7420746f207769746864726177206d757374206e6f7420626520306044820152606401610460565b61358a8383611d3e565b8111156135ff5760405162461bcd60e51b815260206004820152602560248201527f57697468647261773a206d61785769746864726177416c6c6f7765642065786360448201527f65656465640000000000000000000000000000000000000000000000000000006064820152608401610460565b6001600160a01b038084166000908152601660209081526040808320938616835292905290812054613632908390615c04565b90506000836001600160a01b0316856001600160a01b03161461365757600a5461365b565b6009545b905081158061366a5750808210155b6136dc5760405162461bcd60e51b815260206004820152603960248201527f6e65775374616b6520616d6f756e74206d75737420626520677265617465722060448201527f657175616c207468616e20746865206d696e207374616b652e000000000000006064820152608401610460565b6001600160a01b03858116600081815260166020908152604080832094891680845294825280832087905592825260088152828220938252928352818120601a5482529092529020548381101561373457600061373e565b61373e8482615c04565b6001600160a01b038088166000818152600860209081526040808320948b168352938152838220601a548352815283822094909455908152918052902054613787908590615c04565b6001600160a01b03871660009081526020805260408120919091558390036137b3576137b38686614e8f565b856001600160a01b0316856001600160a01b0316146137d6576137d68686614d8a565b6137df86614b30565b505050505050565b6021546040516253517560e01b81526001600160a01b03858116600483015260009216906253517590602401602060405180830381865afa158015613830573d6000803e3d6000fd5b505050506040513d601f19601f820116820180604052508101906138549190615c5b565b90506001600160a01b0381166138d4576040805162461bcd60e51b81526020600482015260248101919091527f506f6f6c20646f6573206e6f742065786973742e206d696e696e67416464726560448201527f737320666f722074686174207374616b696e67206164647265737320697320306064820152608401610460565b6001600160a01b03841661392a5760405162461bcd60e51b815260206004820152601a60248201527f5374616b653a207374616b696e674164647265737320697320300000000000006044820152606401610460565b8160000361397a5760405162461bcd60e51b815260206004820152601960248201527f5374616b653a207374616b696e67416d6f756e742069732030000000000000006044820152606401610460565b602154604051635491295760e11b81526001600160a01b0383811660048301529091169063a92252ae90602401602060405180830381865afa1580156139c4573d6000803e3d6000fd5b505050506040513d601f19601f820116820180604052508101906139e89190615c17565b15613a355760405162461bcd60e51b815260206004820152601f60248201527f5374616b653a204d696e696e6720616464726573732069732062616e6e6564006044820152606401610460565b6001600160a01b03841660009081526025602052604090205460ff1615613a9e5760405162461bcd60e51b815260206004820152601560248201527f5374616b653a20706f6f6c206162616e646f6e656400000000000000000000006044820152606401610460565b6001600160a01b038085166000908152601660209081526040808320938716835292905290812054613ad1908490615bf1565b9050846001600160a01b0316846001600160a01b031603613b6957600954811015613b645760405162461bcd60e51b815260206004820152603160248201527f5374616b653a2063616e6469646174655374616b65206c657373207468616e2060448201527f63616e6469646174654d696e5374616b650000000000000000000000000000006064820152608401610460565b613c5c565b600a54811015613be15760405162461bcd60e51b815260206004820152603460248201527f5374616b653a2064656c656761746f725374616b65206973206c65737320746860448201527f616e2064656c656761746f724d696e5374616b650000000000000000000000006064820152608401610460565b6001600160a01b03851660009081526016602090815260408083209091528120549003613c5c5760405162461bcd60e51b815260206004820152602360248201527f5374616b653a2063616e27742064656c656761746520696e20656d70747920706044820152621bdbdb60ea1b6064820152608401610460565b6023546001600160a01b0386166000908152602080526040902054613c82908590615bf1565b1115613cd05760405162461bcd60e51b815260206004820152601d60248201527f7374616b65206c696d697420686173206265656e2065786365656465640000006044820152606401610460565b6001600160a01b03858116600081815260166020908152604080832094891680845294825280832086905592825260088152828220938252928352818120601a548252909252902054613d24908490615bf1565b6001600160a01b038087166000818152600860209081526040808320948a168352938152838220601a548352815283822094909455908152918052902054613d6d908490615bf1565b6001600160a01b038087166000818152602080526040902092909255851603613da057613d9b856001614a5e565b613db4565b613daa8585614cc2565b613db48585614d8a565b613dbd85614b30565b601a54846001600160a01b0316866001600160a01b03167f2273de02cb1f69ba6259d22c4bc22c60e4c94c193265ef6afee324a04a9b6d2286604051613e0591815260200190565b60405180910390a45050505050565b6001600160a01b0381166000908152602080526040812054158015611ee15750506001600160a01b03166000908152600d60205260409020541590565b6001600160a01b03811660009081526011602052604090205460015481108015613eaa5750816001600160a01b031660018281548110613e9357613e93615bac565b6000918252602090912001546001600160a01b0316145b15610ee7576001805460009190613ec2908290615c04565b81548110613ed257613ed2615bac565b600091825260209091200154600180546001600160a01b039092169250829184908110613f0157613f01615bac565b600091825260208083209190910180546001600160a01b0319166001600160a01b0394851617905583831682526011905260408082208590559185168152908120556001805480613f5457613f54615e4d565b600082815260209020810160001990810180546001600160a01b0319169055019055505050565b6001600160a01b038083166000908152600660209081526040808320600f8352818420948616845293909152902054815481108015613fe85750826001600160a01b0316828281548110613fd157613fd1615bac565b6000918252602090912001546001600160a01b0316145b156140c5578154600090839061400090600190615c04565b8154811061401057614010615bac565b9060005260206000200160009054906101000a90046001600160a01b031690508083838154811061404357614043615bac565b600091825260208083209190910180546001600160a01b0319166001600160a01b039485161790558783168252600f81526040808320858516845290915280822085905591861681529081205582548390806140a1576140a1615e4d565b600082815260209020810160001990810180546001600160a01b0319169055019055505b6001600160a01b038085166000908152600c6020908152604080832093871683529290522054156140ff576140fa848461539c565b614109565b6141098484615460565b50505050565b8047101561415f5760405162461bcd60e51b815260206004820152601460248201527f496e73756666696369656e742062616c616e63650000000000000000000000006044820152606401610460565b6000826001600160a01b03168260405160006040518083038185875af1925050503d80600081146141ac576040519150601f19603f3d011682016040523d82523d6000602084013e6141b1565b606091505b50509050806111045760405162461bcd60e51b815260206004820152600f60248201527f5472616e73666572206661696c656400000000000000000000000000000000006044820152606401610460565b7fb53127684a568b3173ae13b9f8a6016e243e63b6e8ee1178d6a717850b5d6103546001600160a01b0316336001600160a01b0316148061427557507fb53127684a568b3173ae13b9f8a6016e243e63b6e8ee1178d6a717850b5d6103546001600160a01b0316326001600160a01b0316145b806142a857507fb53127684a568b3173ae13b9f8a6016e243e63b6e8ee1178d6a717850b5d6103546001600160a01b0316155b806142b1575043155b6143235760405162461bcd60e51b815260206004820152603060248201527f496e697469616c697a6174696f6e206f6e6c79206f6e2067656e65736973206260448201527f6c6f636b206f722062792061646d696e000000000000000000000000000000006064820152608401610460565b6021546001600160a01b03161561437c5760405162461bcd60e51b815260206004820152601360248201527f416c726561647920696e697469616c697a6564000000000000000000000000006044820152606401610460565b6001600160a01b0387166143d25760405162461bcd60e51b815260206004820152601760248201527f56616c696461746f725365742063616e277420626520300000000000000000006044820152606401610460565b60008651116144495760405162461bcd60e51b815260206004820152602560248201527f4d7573742070726f7669646520696e697469616c206d696e696e67206164647260448201527f65737365730000000000000000000000000000000000000000000000000000006064820152608401610460565b81518651614458906002615e63565b146144cb5760405162461bcd60e51b815260206004820152602960248201527f4d7573742070726f7669646520636f7272656374206e756d626572206f66207060448201527f75626c69634b65797300000000000000000000000000000000000000000000006064820152608401610460565b80518651146145425760405162461bcd60e51b815260206004820152602a60248201527f4d7573742070726f7669646520636f7272656374206e756d626572206f66204960448201527f50206164726573736573000000000000000000000000000000000000000000006064820152608401610460565b846000036145925760405162461bcd60e51b815260206004820152601660248201527f44656c656761746f724d696e5374616b652069732030000000000000000000006044820152606401610460565b836000036145e25760405162461bcd60e51b815260206004820152601660248201527f43616e6469646174654d696e5374616b652069732030000000000000000000006044820152606401610460565b8383116146575760405162461bcd60e51b815260206004820152603160248201527f6d6178696d756d207374616b65206d757374206265206772656174657220746860448201527f656e206d696e696d756d207374616b652e0000000000000000000000000000006064820152608401610460565b602180546001600160a01b0319166001600160a01b03891617905560005b86518110156148ab5760006001600160a01b031687828151811061469b5761469b615bac565b60200260200101516001600160a01b0316036147045760405162461bcd60e51b815260206004820152602260248201527f496e697469616c5374616b696e674164647265737365732063616e2774206265604482015261020360f41b6064820152608401610460565b61472887828151811061471957614719615bac565b60200260200101516000614a5e565b61474a87828151811061473d5761473d615bac565b6020026020010151614bfe565b82614756826002615e63565b8151811061476657614766615bac565b60200260200101518382600261477c9190615e63565b614787906001615bf1565b8151811061479757614797615bac565b60200260200101516040516020016147b9929190918252602082015260400190565b604051602081830303815290604052602260008984815181106147de576147de615bac565b60200260200101516001600160a01b03166001600160a01b0316815260200190815260200160002060000190816148159190615e7a565b5081818151811061482857614828615bac565b60200260200101516022600089848151811061484657614846615bac565b60200260200101516001600160a01b03166001600160a01b0316815260200190815260200160002060010160006101000a8154816fffffffffffffffffffffffffffffffff021916908360801c021790555080806148a390615bd8565b915050614675565b50600a8590556009849055602383905560215460408051632b5aa5d760e11b815290516001600160a01b03909216916356b54bae916004808201926020929091908290030181865afa158015614905573d6000803e3d6000fd5b505050506040513d601f19601f820116820180604052508101906149299190615c5b565b602480546001600160a01b0319166001600160a01b039290921691909117905550505050505050565b600081156149da5760215460405163a881c5fd60e01b81526001600160a01b0385811660048301529091169063a881c5fd90602401602060405180830381865afa1580156149a4573d6000803e3d6000fd5b505050506040513d601f19601f820116820180604052508101906149c89190615c17565b156149d557506000611ee1565b614a55565b602154604051635491295760e11b81526001600160a01b0385811660048301529091169063a92252ae90602401602060405180830381865afa158015614a24573d6000803e3d6000fd5b505050506040513d601f19601f82011682018060405250810190614a489190615c17565b15614a5557506000611ee1565b50600192915050565b614a6782612511565b614b1857600080546001600160a01b0384168083526012602052604083208290556001820183559180527f290decd9548b62a8d60345a988386fc84ba6bc95484008f6362f93160ef3e5630180546001600160a01b0319169091179055610bb86000541115614b185760405162461bcd60e51b815260206004820152601d60248201527f4d41585f43414e4449444154455320706f6f6c732065786365656465640000006044820152606401610460565b614b2182613e51565b8015610ee757610ee7826155af565b600080614b3c836156a4565b9150915081614b4a57505050565b600060048281548110614b5f57614b5f615bac565b90600052602060002001549050600060206000866001600160a01b03166001600160a01b031681526020019081526020016000205490508060048481548110614baa57614baa615bac565b600091825260209091200155818110614bdc57614bc78282615c04565b600554614bd49190615bf1565b600555614bf7565b614be68183615c04565b600554614bf39190615c04565b6005555b5050505050565b6001600160a01b0381166000908152601460205260409020546003548082101580614c595750826001600160a01b031660038381548110614c4157614c41615bac565b6000918252602090912001546001600160a01b031614155b15614cb9576001600160a01b03831660008181526014602052604081208390556003805460018101825591527fc2575a0e9e593c00f959f8c92f12db2869c3395a3b0502d05e2516446f71f85b0180546001600160a01b03191690911790555b6111048361507b565b6001600160a01b038083166000908152600660209081526040808320600f835281842094861684529390915290205481548082101580614d315750836001600160a01b0316838381548110614d1957614d19615bac565b6000918252602090912001546001600160a01b031614155b15614d80576001600160a01b038086166000908152600f602090815260408083209388168084529382528220849055855460018101875586835291200180546001600160a01b03191690911790555b614bf78585615460565b6000601a546001614d9b9190615bf1565b6001600160a01b038085166000908152601660209081526040808320938716835292905290812054919250819003614dd557600019614dd7565b805b6001600160a01b038086166000818152600b6020908152604080832094891680845294825280832088845282528083209590955591815260178252838120928152919052908120549003614e4e576001600160a01b0380851660009081526017602090815260408083209387168352929052208290555b8015614e5b576000614e5d565b815b6001600160a01b0394851660009081526018602090815260408083209690971682529490945293909220929092555050565b816001600160a01b0316816001600160a01b031603614f9c576021546040516253517560e01b81526001600160a01b03848116600483015260009216906253517590602401602060405180830381865afa158015614ef1573d6000803e3d6000fd5b505050506040513d601f19601f82011682018060405250810190614f159190615c5b565b60215460405163facd743b60e01b81526001600160a01b03808416600483015292935091169063facd743b90602401602060405180830381865afa158015614f61573d6000803e3d6000fd5b505050506040513d601f19601f82011682018060405250810190614f859190615c17565b15614f935761110483614bfe565b6111048361335a565b614fa68282613f7b565b614faf82613e14565b15610ee757610ee782613e51565b6001600160a01b03811660009081526011602052604090205460015480821015806150185750826001600160a01b03166001838154811061500057615000615bac565b6000918252602090912001546001600160a01b031614155b15611104576001600160a01b038316600081815260116020526040812083905560018054808201825591527fb10e2d527612073b26eecdfd717e6a320cf44b4afac2b0732d9fcbe2b7fa0cf60180546001600160a01b0319169091179055505050565b600454600254146150895750565b6001600160a01b038116600090815260136020526040902054600254811080156150e25750816001600160a01b0316600282815481106150cb576150cb615bac565b6000918252602090912001546001600160a01b0316145b15610ee757600481815481106150fa576150fa615bac565b906000526020600020015460055410615147576004818154811061512057615120615bac565b90600052602060002001546005600082825461513c9190615c04565b9091555061514d9050565b60006005555b60025460009061515f90600190615c04565b905060006002828154811061517657615176615bac565b600091825260209091200154600280546001600160a01b0390921692508291859081106151a5576151a5615bac565b9060005260206000200160006101000a8154816001600160a01b0302191690836001600160a01b03160217905550600482815481106151e6576151e6615bac565b90600052602060002001546004848154811061520457615204615bac565b60009182526020808320909101929092556001600160a01b03808416825260139092526040808220869055918616815290812055600280548061524957615249615e4d565b600082815260209020810160001990810180546001600160a01b0319169055019055600480548061527c5761527c615e4d565b6001900381819060005260206000200160009055905550505050565b6001600160a01b038116600090815260146020526040902054600354811080156152f15750816001600160a01b0316600382815481106152da576152da615bac565b6000918252602090912001546001600160a01b0316145b15610ee757600380546000919061530a90600190615c04565b8154811061531a5761531a615bac565b600091825260209091200154600380546001600160a01b03909216925082918490811061534957615349615bac565b600091825260208083209190910180546001600160a01b0319166001600160a01b0394851617905583831682526014905260408082208590559185168152908120556003805480613f5457613f54615e4d565b6001600160a01b038083166000908152600760209081526040808320601083528184209486168452939091529020548154808210158061540b5750836001600160a01b03168383815481106153f3576153f3615bac565b6000918252602090912001546001600160a01b031614155b15614bf7576001600160a01b0380861660009081526010602090815260408083209388168084529382528220849055855460018101875586835291200180546001600160a01b03191690911790555050505050565b6001600160a01b038083166000908152600760209081526040808320601083528184209486168452939091529020548154811080156154cd5750826001600160a01b03168282815481106154b6576154b6615bac565b6000918252602090912001546001600160a01b0316145b1561410957815460009083906154e590600190615c04565b815481106154f5576154f5615bac565b9060005260206000200160009054906101000a90046001600160a01b031690508083838154811061552857615528615bac565b600091825260208083209190910180546001600160a01b0319166001600160a01b0394851617905587831682526010815260408083208585168452909152808220859055918616815290812055825483908061558657615586615e4d565b600082815260209020810160001990810180546001600160a01b03191690550190555050505050565b6001600160a01b038116600090815260136020526040902054600254808210158061560a5750826001600160a01b0316600283815481106155f2576155f2615bac565b6000918252602090912001546001600160a01b031614155b1561569b576001600160a01b03831660008181526013602052604081208390556002805460018181019092557f405787fa12a823e0f2b7631cc41b3ba8828b3321ca811111fa75cd3aa3bb5ace0180546001600160a01b03191690931790925560048054928301815581527f8a35acfbc15ff81a39ae7d344fd709f28e8600b4aa8c65c6b64bfe7fe36bd19b909101555b61110483615298565b6001600160a01b038116600090815260136020526040812054600254811080156156fd5750826001600160a01b0316600282815481106156e6576156e6615bac565b6000918252602090912001546001600160a01b0316145b1561570b5760019150915091565b506000928392509050565b6001600160a01b03811681146116b657600080fd5b60008060006060848603121561574057600080fd5b833561574b81615716565b9250602084013561575b81615716565b929592945050506040919091013590565b6000806040838503121561577f57600080fd5b823561578a81615716565b9150602083013561579a81615716565b809150509250929050565b6000602082840312156157b757600080fd5b813561256981615716565b6000602082840312156157d457600080fd5b5035919050565b60008083601f8401126157ed57600080fd5b50813567ffffffffffffffff81111561580557600080fd5b6020830191508360208260051b850101111561582057600080fd5b9250929050565b60008060008060006060868803121561583f57600080fd5b853567ffffffffffffffff8082111561585757600080fd5b90870190610100828a03121561586c57600080fd5b9095506020870135908082111561588257600080fd5b61588e89838a016157db565b909650945060408801359150808211156158a757600080fd5b506158b4888289016157db565b969995985093965092949392505050565b6000815180845260005b818110156158eb576020818501810151868301820152016158cf565b506000602082860101526020601f19601f83011685010191505092915050565b60208152600061256960208301846158c5565b60008083601f84011261593057600080fd5b50813567ffffffffffffffff81111561594857600080fd5b60208301915083602082850101111561582057600080fd5b80356fffffffffffffffffffffffffffffffff198116811461598157600080fd5b919050565b6000806000806060858703121561599c57600080fd5b84356159a781615716565b9350602085013567ffffffffffffffff8111156159c357600080fd5b6159cf8782880161591e565b90945092506159e2905060408601615960565b905092959194509250565b6020808252825182820181905260009190848201906040850190845b81811015615a2e5783516001600160a01b031683529284019291840191600101615a09565b50909695505050505050565b80356001600160f01b03198116811461598157600080fd5b600080600060608486031215615a6757600080fd5b8335615a7281615716565b9250615a8060208501615960565b9150615a8e60408501615a3a565b90509250925092565b60008060008060608587031215615aad57600080fd5b843567ffffffffffffffff811115615ac457600080fd5b615ad08782880161591e565b9095509350615ae3905060208601615960565b91506159e260408601615a3a565b604080825283519082018190526000906020906060840190828701845b82811015615b2a57815184529284019290840190600101615b0e565b50505092019290925292915050565b606081526000615b4c60608301866158c5565b6fffffffffffffffffffffffffffffffff19949094166020830152506001600160f01b031991909116604090910152919050565b60008060408385031215615b9357600080fd5b8235615b9e81615716565b946020939093013593505050565b634e487b7160e01b600052603260045260246000fd5b634e487b7160e01b600052601160045260246000fd5b600060018201615bea57615bea615bc2565b5060010190565b80820180821115611ee157611ee1615bc2565b81810381811115611ee157611ee1615bc2565b600060208284031215615c2957600080fd5b8151801515811461256957600080fd5b600082615c5657634e487b7160e01b600052601260045260246000fd5b500490565b600060208284031215615c6d57600080fd5b815161256981615716565b6000808335601e19843603018112615c8f57600080fd5b83018035915067ffffffffffffffff821115615caa57600080fd5b6020019150600581901b360382131561582057600080fd5b600060208284031215615cd457600080fd5b5051919050565b600181811c90821680615cef57607f821691505b602082108103615d0f57634e487b7160e01b600052602260045260246000fd5b50919050565b634e487b7160e01b600052604160045260246000fd5b601f82111561110457600081815260208120601f850160051c81016020861015615d525750805b601f850160051c820191505b818110156137df57828155600101615d5e565b67ffffffffffffffff831115615d8957615d89615d15565b615d9d83615d978354615cdb565b83615d2b565b6000601f841160018114615dd15760008515615db95750838201355b600019600387901b1c1916600186901b178355614bf7565b600083815260209020601f19861690835b82811015615e025786850135825560209485019460019092019101615de2565b5086821015615e1f5760001960f88860031b161c19848701351681555b505060018560011b0183555050505050565b6000600160ff1b8201615e4657615e46615bc2565b5060000390565b634e487b7160e01b600052603160045260246000fd5b8082028115828204841417611ee157611ee1615bc2565b815167ffffffffffffffff811115615e9457615e94615d15565b615ea881615ea28454615cdb565b84615d2b565b602080601f831160018114615edd5760008415615ec55750858301515b600019600386901b1c1916600185901b1785556137df565b600085815260208120601f198616915b82811015615f0c57888601518255948401946001909101908401615eed565b5085821015615f2a5787850151600019600388901b60f8161c191681555b5050505050600190811b0190555056fea26469706673582212209d500002519bd803efb1650446d6bd3209107d8f133a6558109863321ed5008364736f6c63430008110033",
  "linkReferences": {},
  "deployedLinkReferences": {}
}