{
  "_format": "hh-sol-artifact-1",
  "contractName": "StakingHbbftBaseMock",
  "sourceName": "contracts/mockContracts/StakingHbbftBaseMock.sol",
  "abi": [
    {
      "anonymous": false,
      "inputs": [
        {
          "indexed": true,
          "internalType": "address",
          "name": "fromPoolStakingAddress",
          "type": "address"
        },
        {
          "indexed": true,
          "internalType": "address",
          "name": "staker",
          "type": "address"
        },
        {
          "indexed": true,
          "internalType": "uint256",
          "name": "stakingEpoch",
          "type": "uint256"
        },
        {
          "indexed": false,
          "internalType": "uint256",
          "name": "amount",
          "type": "uint256"
        }
      ],
      "name": "ClaimedOrderedWithdrawal",
      "type": "event"
    },
    {
      "anonymous": false,
      "inputs": [
        {
          "indexed": true,
          "internalType": "address",
          "name": "caller",
          "type": "address"
        },
        {
          "indexed": true,
          "internalType": "address",
          "name": "stakingAddress",
          "type": "address"
        },
        {
          "indexed": false,
          "internalType": "uint256",
          "name": "gatheredFunds",
          "type": "uint256"
        }
      ],
      "name": "GatherAbandonedStakes",
      "type": "event"
    },
    {
      "anonymous": false,
      "inputs": [
        {
          "indexed": false,
          "internalType": "address",
          "name": "fromPoolStakingAddress",
          "type": "address"
        },
        {
          "indexed": true,
          "internalType": "address",
          "name": "toPoolStakingAddress",
          "type": "address"
        },
        {
          "indexed": true,
          "internalType": "address",
          "name": "staker",
          "type": "address"
        },
        {
          "indexed": true,
          "internalType": "uint256",
          "name": "stakingEpoch",
          "type": "uint256"
        },
        {
          "indexed": false,
          "internalType": "uint256",
          "name": "amount",
          "type": "uint256"
        }
      ],
      "name": "MovedStake",
      "type": "event"
    },
    {
      "anonymous": false,
      "inputs": [
        {
          "indexed": true,
          "internalType": "address",
          "name": "fromPoolStakingAddress",
          "type": "address"
        },
        {
          "indexed": true,
          "internalType": "address",
          "name": "staker",
          "type": "address"
        },
        {
          "indexed": true,
          "internalType": "uint256",
          "name": "stakingEpoch",
          "type": "uint256"
        },
        {
          "indexed": false,
          "internalType": "int256",
          "name": "amount",
          "type": "int256"
        }
      ],
      "name": "OrderedWithdrawal",
      "type": "event"
    },
    {
      "anonymous": false,
      "inputs": [
        {
          "indexed": true,
          "internalType": "address",
          "name": "toPoolStakingAddress",
          "type": "address"
        },
        {
          "indexed": true,
          "internalType": "address",
          "name": "staker",
          "type": "address"
        },
        {
          "indexed": true,
          "internalType": "uint256",
          "name": "stakingEpoch",
          "type": "uint256"
        },
        {
          "indexed": false,
          "internalType": "uint256",
          "name": "amount",
          "type": "uint256"
        }
      ],
      "name": "PlacedStake",
      "type": "event"
    },
    {
      "anonymous": false,
      "inputs": [
        {
          "indexed": true,
          "internalType": "address",
          "name": "caller",
          "type": "address"
        },
        {
          "indexed": false,
          "internalType": "uint256",
          "name": "reinsertShare",
          "type": "uint256"
        },
        {
          "indexed": false,
          "internalType": "uint256",
          "name": "governanceShare",
          "type": "uint256"
        }
      ],
      "name": "RecoverAbandonedStakes",
      "type": "event"
    },
    {
      "anonymous": false,
      "inputs": [
        {
          "indexed": true,
          "internalType": "address",
          "name": "fromPoolStakingAddress",
          "type": "address"
        },
        {
          "indexed": true,
          "internalType": "address",
          "name": "staker",
          "type": "address"
        },
        {
          "indexed": true,
          "internalType": "uint256",
          "name": "stakingEpoch",
          "type": "uint256"
        },
        {
          "indexed": false,
          "internalType": "uint256",
          "name": "amount",
          "type": "uint256"
        }
      ],
      "name": "WithdrewStake",
      "type": "event"
    },
    {
      "inputs": [],
      "name": "MAX_CANDIDATES",
      "outputs": [
        {
          "internalType": "uint256",
          "name": "",
          "type": "uint256"
        }
      ],
      "stateMutability": "view",
      "type": "function"
    },
    {
      "inputs": [
        {
          "internalType": "address",
          "name": "",
          "type": "address"
        }
      ],
      "name": "abandonedAndRemoved",
      "outputs": [
        {
          "internalType": "bool",
          "name": "",
          "type": "bool"
        }
      ],
      "stateMutability": "view",
      "type": "function"
    },
    {
      "inputs": [
        {
          "internalType": "address",
          "name": "_miningAddress",
          "type": "address"
        },
        {
          "internalType": "bytes",
          "name": "_publicKey",
          "type": "bytes"
        },
        {
          "internalType": "bytes16",
          "name": "_ip",
          "type": "bytes16"
        }
      ],
      "name": "addPool",
      "outputs": [],
      "stateMutability": "payable",
      "type": "function"
    },
    {
      "inputs": [
        {
          "internalType": "address",
          "name": "_stakingAddress",
          "type": "address"
        }
      ],
      "name": "addPoolActiveMock",
      "outputs": [],
      "stateMutability": "nonpayable",
      "type": "function"
    },
    {
      "inputs": [
        {
          "internalType": "address",
          "name": "_stakingAddress",
          "type": "address"
        }
      ],
      "name": "addPoolInactiveMock",
      "outputs": [],
      "stateMutability": "nonpayable",
      "type": "function"
    },
    {
      "inputs": [],
      "name": "areStakeAndWithdrawAllowed",
      "outputs": [
        {
          "internalType": "bool",
          "name": "",
          "type": "bool"
        }
      ],
      "stateMutability": "view",
      "type": "function"
    },
    {
      "inputs": [],
      "name": "blockRewardHbbft",
      "outputs": [
        {
          "internalType": "contract IBlockRewardHbbft",
          "name": "",
          "type": "address"
        }
      ],
      "stateMutability": "view",
      "type": "function"
    },
    {
      "inputs": [],
      "name": "candidateMinStake",
      "outputs": [
        {
          "internalType": "uint256",
          "name": "",
          "type": "uint256"
        }
      ],
      "stateMutability": "view",
      "type": "function"
    },
    {
      "inputs": [
        {
          "internalType": "address",
          "name": "_poolStakingAddress",
          "type": "address"
        }
      ],
      "name": "claimOrderedWithdraw",
      "outputs": [],
      "stateMutability": "nonpayable",
      "type": "function"
    },
    {
      "inputs": [
        {
          "internalType": "address",
          "name": "_poolStakingAddress",
          "type": "address"
        },
        {
          "internalType": "address",
          "name": "_delegator",
          "type": "address"
        },
        {
          "internalType": "uint256",
          "name": "_stakingEpoch",
          "type": "uint256"
        }
      ],
      "name": "clearDelegatorStakeSnapshot",
      "outputs": [],
      "stateMutability": "nonpayable",
      "type": "function"
    },
    {
      "inputs": [
        {
          "internalType": "address",
          "name": "_poolStakingAddress",
          "type": "address"
        },
        {
          "internalType": "address",
          "name": "_staker",
          "type": "address"
        },
        {
          "internalType": "uint256",
          "name": "_epoch",
          "type": "uint256"
        }
      ],
      "name": "clearRewardWasTaken",
      "outputs": [],
      "stateMutability": "nonpayable",
      "type": "function"
    },
    {
      "inputs": [],
      "name": "currentKeyGenExtraTimeWindow",
      "outputs": [
        {
          "internalType": "uint256",
          "name": "",
          "type": "uint256"
        }
      ],
      "stateMutability": "view",
      "type": "function"
    },
    {
      "inputs": [],
      "name": "delegatorMinStake",
      "outputs": [
        {
          "internalType": "uint256",
          "name": "",
          "type": "uint256"
        }
      ],
      "stateMutability": "view",
      "type": "function"
    },
    {
      "inputs": [
        {
          "internalType": "address",
          "name": "",
          "type": "address"
        },
        {
          "internalType": "address",
          "name": "",
          "type": "address"
        },
        {
          "internalType": "uint256",
          "name": "",
          "type": "uint256"
        }
      ],
      "name": "delegatorStakeSnapshot",
      "outputs": [
        {
          "internalType": "uint256",
          "name": "",
          "type": "uint256"
        }
      ],
      "stateMutability": "view",
      "type": "function"
    },
    {
      "inputs": [
        {
          "internalType": "address",
          "name": "_poolAddress",
          "type": "address"
        }
      ],
      "name": "getPoolInternetAddress",
      "outputs": [
        {
          "internalType": "bytes16",
          "name": "",
          "type": "bytes16"
        },
        {
          "internalType": "bytes2",
          "name": "",
          "type": "bytes2"
        }
      ],
      "stateMutability": "view",
      "type": "function"
    },
    {
      "inputs": [
        {
          "internalType": "address",
          "name": "_poolAddress",
          "type": "address"
        }
      ],
      "name": "getPoolPublicKey",
      "outputs": [
        {
          "internalType": "bytes",
          "name": "",
          "type": "bytes"
        }
      ],
      "stateMutability": "view",
      "type": "function"
    },
    {
      "inputs": [],
      "name": "getPools",
      "outputs": [
        {
          "internalType": "address[]",
          "name": "",
          "type": "address[]"
        }
      ],
      "stateMutability": "view",
      "type": "function"
    },
    {
      "inputs": [],
      "name": "getPoolsInactive",
      "outputs": [
        {
          "internalType": "address[]",
          "name": "",
          "type": "address[]"
        }
      ],
      "stateMutability": "view",
      "type": "function"
    },
    {
      "inputs": [],
      "name": "getPoolsLikelihood",
      "outputs": [
        {
          "internalType": "uint256[]",
          "name": "likelihoods",
          "type": "uint256[]"
        },
        {
          "internalType": "uint256",
          "name": "sum",
          "type": "uint256"
        }
      ],
      "stateMutability": "view",
      "type": "function"
    },
    {
      "inputs": [],
      "name": "getPoolsToBeElected",
      "outputs": [
        {
          "internalType": "address[]",
          "name": "",
          "type": "address[]"
        }
      ],
      "stateMutability": "view",
      "type": "function"
    },
    {
      "inputs": [],
      "name": "getPoolsToBeRemoved",
      "outputs": [
        {
          "internalType": "address[]",
          "name": "",
          "type": "address[]"
        }
      ],
      "stateMutability": "view",
      "type": "function"
    },
    {
      "inputs": [],
      "name": "incrementStakingEpoch",
      "outputs": [],
      "stateMutability": "nonpayable",
      "type": "function"
    },
    {
      "inputs": [
        {
          "components": [
            {
              "internalType": "address",
              "name": "_validatorSetContract",
              "type": "address"
            },
            {
              "internalType": "address[]",
              "name": "_initialStakingAddresses",
              "type": "address[]"
            },
            {
              "internalType": "uint256",
              "name": "_delegatorMinStake",
              "type": "uint256"
            },
            {
              "internalType": "uint256",
              "name": "_candidateMinStake",
              "type": "uint256"
            },
            {
              "internalType": "uint256",
              "name": "_maxStake",
              "type": "uint256"
            },
            {
              "internalType": "uint256",
              "name": "_stakingFixedEpochDuration",
              "type": "uint256"
            },
            {
              "internalType": "uint256",
              "name": "_stakingTransitionTimeframeLength",
              "type": "uint256"
            },
            {
              "internalType": "uint256",
              "name": "_stakingWithdrawDisallowPeriod",
              "type": "uint256"
            }
          ],
          "internalType": "struct IStakingHbbft.StakingParams",
          "name": "stakingParams",
          "type": "tuple"
        },
        {
          "internalType": "bytes32[]",
          "name": "_publicKeys",
          "type": "bytes32[]"
        },
        {
          "internalType": "bytes16[]",
          "name": "_internetAddresses",
          "type": "bytes16[]"
        }
      ],
      "name": "initialize",
      "outputs": [],
      "stateMutability": "nonpayable",
      "type": "function"
    },
    {
      "inputs": [],
      "name": "isInitialized",
      "outputs": [
        {
          "internalType": "bool",
          "name": "",
          "type": "bool"
        }
      ],
      "stateMutability": "view",
      "type": "function"
    },
    {
      "inputs": [
        {
          "internalType": "address",
          "name": "_stakingAddress",
          "type": "address"
        }
      ],
      "name": "isPoolActive",
      "outputs": [
        {
          "internalType": "bool",
          "name": "",
          "type": "bool"
        }
      ],
      "stateMutability": "view",
      "type": "function"
    },
    {
      "inputs": [],
      "name": "maxStakeAmount",
      "outputs": [
        {
          "internalType": "uint256",
          "name": "",
          "type": "uint256"
        }
      ],
      "stateMutability": "view",
      "type": "function"
    },
    {
      "inputs": [
        {
          "internalType": "address",
          "name": "_poolStakingAddress",
          "type": "address"
        },
        {
          "internalType": "address",
          "name": "_staker",
          "type": "address"
        }
      ],
      "name": "maxWithdrawAllowed",
      "outputs": [
        {
          "internalType": "uint256",
          "name": "",
          "type": "uint256"
        }
      ],
      "stateMutability": "view",
      "type": "function"
    },
    {
      "inputs": [
        {
          "internalType": "address",
          "name": "_poolStakingAddress",
          "type": "address"
        },
        {
          "internalType": "address",
          "name": "_staker",
          "type": "address"
        }
      ],
      "name": "maxWithdrawOrderAllowed",
      "outputs": [
        {
          "internalType": "uint256",
          "name": "",
          "type": "uint256"
        }
      ],
      "stateMutability": "view",
      "type": "function"
    },
    {
      "inputs": [
        {
          "internalType": "address",
          "name": "_fromPoolStakingAddress",
          "type": "address"
        },
        {
          "internalType": "address",
          "name": "_toPoolStakingAddress",
          "type": "address"
        },
        {
          "internalType": "uint256",
          "name": "_amount",
          "type": "uint256"
        }
      ],
      "name": "moveStake",
      "outputs": [],
      "stateMutability": "nonpayable",
      "type": "function"
    },
    {
      "inputs": [
        {
          "internalType": "address",
          "name": "_stakingAddress",
          "type": "address"
        }
      ],
      "name": "notifyAvailability",
      "outputs": [],
      "stateMutability": "nonpayable",
      "type": "function"
    },
    {
      "inputs": [],
      "name": "notifyKeyGenFailed",
      "outputs": [],
      "stateMutability": "nonpayable",
      "type": "function"
    },
    {
      "inputs": [
        {
          "internalType": "uint256",
          "name": "detectedOfflineTime",
          "type": "uint256"
        }
      ],
      "name": "notifyNetworkOfftimeDetected",
      "outputs": [],
      "stateMutability": "nonpayable",
      "type": "function"
    },
    {
      "inputs": [
        {
          "internalType": "address",
          "name": "_poolStakingAddress",
          "type": "address"
        },
        {
          "internalType": "int256",
          "name": "_amount",
          "type": "int256"
        }
      ],
      "name": "orderWithdraw",
      "outputs": [],
      "stateMutability": "nonpayable",
      "type": "function"
    },
    {
      "inputs": [
        {
          "internalType": "address",
          "name": "",
          "type": "address"
        },
        {
          "internalType": "address",
          "name": "",
          "type": "address"
        }
      ],
      "name": "orderWithdrawEpoch",
      "outputs": [
        {
          "internalType": "uint256",
          "name": "",
          "type": "uint256"
        }
      ],
      "stateMutability": "view",
      "type": "function"
    },
    {
      "inputs": [
        {
          "internalType": "address",
          "name": "",
          "type": "address"
        },
        {
          "internalType": "address",
          "name": "",
          "type": "address"
        }
      ],
      "name": "orderedWithdrawAmount",
      "outputs": [
        {
          "internalType": "uint256",
          "name": "",
          "type": "uint256"
        }
      ],
      "stateMutability": "view",
      "type": "function"
    },
    {
      "inputs": [
        {
          "internalType": "address",
          "name": "",
          "type": "address"
        }
      ],
      "name": "orderedWithdrawAmountTotal",
      "outputs": [
        {
          "internalType": "uint256",
          "name": "",
          "type": "uint256"
        }
      ],
      "stateMutability": "view",
      "type": "function"
    },
    {
      "inputs": [
        {
          "internalType": "address",
          "name": "",
          "type": "address"
        },
        {
          "internalType": "address",
          "name": "",
          "type": "address"
        }
      ],
      "name": "poolDelegatorInactiveIndex",
      "outputs": [
        {
          "internalType": "uint256",
          "name": "",
          "type": "uint256"
        }
      ],
      "stateMutability": "view",
      "type": "function"
    },
    {
      "inputs": [
        {
          "internalType": "address",
          "name": "",
          "type": "address"
        },
        {
          "internalType": "address",
          "name": "",
          "type": "address"
        }
      ],
      "name": "poolDelegatorIndex",
      "outputs": [
        {
          "internalType": "uint256",
          "name": "",
          "type": "uint256"
        }
      ],
      "stateMutability": "view",
      "type": "function"
    },
    {
      "inputs": [
        {
          "internalType": "address",
          "name": "_poolStakingAddress",
          "type": "address"
        }
      ],
      "name": "poolDelegators",
      "outputs": [
        {
          "internalType": "address[]",
          "name": "",
          "type": "address[]"
        }
      ],
      "stateMutability": "view",
      "type": "function"
    },
    {
      "inputs": [
        {
          "internalType": "address",
          "name": "_poolStakingAddress",
          "type": "address"
        }
      ],
      "name": "poolDelegatorsInactive",
      "outputs": [
        {
          "internalType": "address[]",
          "name": "",
          "type": "address[]"
        }
      ],
      "stateMutability": "view",
      "type": "function"
    },
    {
      "inputs": [
        {
          "internalType": "address",
          "name": "",
          "type": "address"
        }
      ],
      "name": "poolInactiveIndex",
      "outputs": [
        {
          "internalType": "uint256",
          "name": "",
          "type": "uint256"
        }
      ],
      "stateMutability": "view",
      "type": "function"
    },
    {
      "inputs": [
        {
          "internalType": "address",
          "name": "",
          "type": "address"
        }
      ],
      "name": "poolIndex",
      "outputs": [
        {
          "internalType": "uint256",
          "name": "",
          "type": "uint256"
        }
      ],
      "stateMutability": "view",
      "type": "function"
    },
    {
      "inputs": [
        {
          "internalType": "address",
          "name": "",
          "type": "address"
        }
      ],
      "name": "poolInfo",
      "outputs": [
        {
          "internalType": "bytes",
          "name": "publicKey",
          "type": "bytes"
        },
        {
          "internalType": "bytes16",
          "name": "internetAddress",
          "type": "bytes16"
        },
        {
          "internalType": "bytes2",
          "name": "port",
          "type": "bytes2"
        }
      ],
      "stateMutability": "view",
      "type": "function"
    },
    {
      "inputs": [
        {
          "internalType": "address",
          "name": "",
          "type": "address"
        }
      ],
      "name": "poolToBeElectedIndex",
      "outputs": [
        {
          "internalType": "uint256",
          "name": "",
          "type": "uint256"
        }
      ],
      "stateMutability": "view",
      "type": "function"
    },
    {
      "inputs": [
        {
          "internalType": "address",
          "name": "",
          "type": "address"
        }
      ],
      "name": "poolToBeRemovedIndex",
      "outputs": [
        {
          "internalType": "uint256",
          "name": "",
          "type": "uint256"
        }
      ],
      "stateMutability": "view",
      "type": "function"
    },
    {
      "inputs": [],
      "name": "recoverAbandonedStakes",
      "outputs": [],
      "stateMutability": "nonpayable",
      "type": "function"
    },
    {
      "inputs": [],
      "name": "removeMyPool",
      "outputs": [],
      "stateMutability": "nonpayable",
      "type": "function"
    },
    {
      "inputs": [
        {
          "internalType": "address",
          "name": "_stakingAddress",
          "type": "address"
        }
      ],
      "name": "removePool",
      "outputs": [],
      "stateMutability": "nonpayable",
      "type": "function"
    },
    {
      "inputs": [],
      "name": "removePools",
      "outputs": [],
      "stateMutability": "nonpayable",
      "type": "function"
    },
    {
      "inputs": [
        {
          "internalType": "address",
          "name": "",
          "type": "address"
        },
        {
          "internalType": "address",
          "name": "",
          "type": "address"
        },
        {
          "internalType": "uint256",
          "name": "",
          "type": "uint256"
        }
      ],
      "name": "rewardWasTaken",
      "outputs": [
        {
          "internalType": "bool",
          "name": "",
          "type": "bool"
        }
      ],
      "stateMutability": "view",
      "type": "function"
    },
    {
      "inputs": [
        {
          "internalType": "uint256",
          "name": "_minStake",
          "type": "uint256"
        }
      ],
      "name": "setCandidateMinStake",
      "outputs": [],
      "stateMutability": "nonpayable",
      "type": "function"
    },
    {
      "inputs": [
        {
          "internalType": "uint256",
          "name": "_minStake",
          "type": "uint256"
        }
      ],
      "name": "setDelegatorMinStake",
      "outputs": [],
      "stateMutability": "nonpayable",
      "type": "function"
    },
    {
      "inputs": [
        {
          "internalType": "bytes",
          "name": "_publicKey",
          "type": "bytes"
        },
        {
          "internalType": "bytes16",
          "name": "_ip",
          "type": "bytes16"
        },
        {
          "internalType": "bytes2",
          "name": "_port",
          "type": "bytes2"
        }
      ],
      "name": "setPoolInfo",
      "outputs": [],
      "stateMutability": "nonpayable",
      "type": "function"
    },
    {
      "inputs": [
        {
          "internalType": "address",
          "name": "_poolStakingAddress",
          "type": "address"
        },
        {
          "internalType": "uint256",
          "name": "_amount",
          "type": "uint256"
        }
      ],
      "name": "setStakeAmountTotal",
      "outputs": [],
      "stateMutability": "nonpayable",
      "type": "function"
    },
    {
      "inputs": [
        {
          "internalType": "address",
          "name": "_poolStakingAddress",
          "type": "address"
        },
        {
          "internalType": "address",
          "name": "_delegator",
          "type": "address"
        },
        {
          "internalType": "uint256",
          "name": "_value",
          "type": "uint256"
        }
      ],
      "name": "setStakeFirstEpoch",
      "outputs": [],
      "stateMutability": "nonpayable",
      "type": "function"
    },
    {
      "inputs": [
        {
          "internalType": "address",
          "name": "_poolStakingAddress",
          "type": "address"
        },
        {
          "internalType": "address",
          "name": "_delegator",
          "type": "address"
        },
        {
          "internalType": "uint256",
          "name": "_value",
          "type": "uint256"
        }
      ],
      "name": "setStakeLastEpoch",
      "outputs": [],
      "stateMutability": "nonpayable",
      "type": "function"
    },
    {
      "inputs": [
        {
          "internalType": "uint256",
          "name": "_stakingEpoch",
          "type": "uint256"
        }
      ],
      "name": "setStakingEpoch",
      "outputs": [],
      "stateMutability": "nonpayable",
      "type": "function"
    },
    {
      "inputs": [
        {
          "internalType": "uint256",
          "name": "_timestamp",
          "type": "uint256"
        }
      ],
      "name": "setStakingEpochStartTime",
      "outputs": [],
      "stateMutability": "nonpayable",
      "type": "function"
    },
    {
      "inputs": [
        {
          "internalType": "address",
          "name": "_validatorAddress",
          "type": "address"
        },
        {
          "internalType": "bytes16",
          "name": "_ip",
          "type": "bytes16"
        },
        {
          "internalType": "bytes2",
          "name": "_port",
          "type": "bytes2"
        }
      ],
      "name": "setValidatorInternetAddress",
      "outputs": [],
      "stateMutability": "nonpayable",
      "type": "function"
    },
    {
      "inputs": [
        {
          "internalType": "contract IValidatorSetHbbft",
          "name": "_validatorSetAddress",
          "type": "address"
        }
      ],
      "name": "setValidatorMockSetAddress",
      "outputs": [],
      "stateMutability": "nonpayable",
      "type": "function"
    },
    {
      "inputs": [
        {
          "internalType": "contract IValidatorSetHbbft",
          "name": "_validatorSetAddress",
          "type": "address"
        }
      ],
      "name": "setValidatorSetAddress",
      "outputs": [],
      "stateMutability": "nonpayable",
      "type": "function"
    },
    {
      "inputs": [
        {
          "internalType": "address",
          "name": "_toPoolStakingAddress",
          "type": "address"
        }
      ],
      "name": "stake",
      "outputs": [],
      "stateMutability": "payable",
      "type": "function"
    },
    {
      "inputs": [
        {
          "internalType": "address",
          "name": "",
          "type": "address"
        },
        {
          "internalType": "address",
          "name": "",
          "type": "address"
        }
      ],
      "name": "stakeAmount",
      "outputs": [
        {
          "internalType": "uint256",
          "name": "",
          "type": "uint256"
        }
      ],
      "stateMutability": "view",
      "type": "function"
    },
    {
      "inputs": [
        {
          "internalType": "address",
          "name": "_poolStakingAddress",
          "type": "address"
        },
        {
          "internalType": "address",
          "name": "_staker",
          "type": "address"
        }
      ],
      "name": "stakeAmountByCurrentEpoch",
      "outputs": [
        {
          "internalType": "uint256",
          "name": "",
          "type": "uint256"
        }
      ],
      "stateMutability": "view",
      "type": "function"
    },
    {
      "inputs": [
        {
          "internalType": "address",
          "name": "",
          "type": "address"
        }
      ],
      "name": "stakeAmountTotal",
      "outputs": [
        {
          "internalType": "uint256",
          "name": "",
          "type": "uint256"
        }
      ],
      "stateMutability": "view",
      "type": "function"
    },
    {
      "inputs": [
        {
          "internalType": "address",
          "name": "",
          "type": "address"
        },
        {
          "internalType": "address",
          "name": "",
          "type": "address"
        }
      ],
      "name": "stakeFirstEpoch",
      "outputs": [
        {
          "internalType": "uint256",
          "name": "",
          "type": "uint256"
        }
      ],
      "stateMutability": "view",
      "type": "function"
    },
    {
      "inputs": [
        {
          "internalType": "address",
          "name": "",
          "type": "address"
        },
        {
          "internalType": "address",
          "name": "",
          "type": "address"
        }
      ],
      "name": "stakeLastEpoch",
      "outputs": [
        {
          "internalType": "uint256",
          "name": "",
          "type": "uint256"
        }
      ],
      "stateMutability": "view",
      "type": "function"
    },
    {
      "inputs": [],
      "name": "stakingEpoch",
      "outputs": [
        {
          "internalType": "uint256",
          "name": "",
          "type": "uint256"
        }
      ],
      "stateMutability": "view",
      "type": "function"
    },
    {
      "inputs": [],
      "name": "stakingEpochStartBlock",
      "outputs": [
        {
          "internalType": "uint256",
          "name": "",
          "type": "uint256"
        }
      ],
      "stateMutability": "view",
      "type": "function"
    },
    {
      "inputs": [],
      "name": "stakingEpochStartTime",
      "outputs": [
        {
          "internalType": "uint256",
          "name": "",
          "type": "uint256"
        }
      ],
      "stateMutability": "view",
      "type": "function"
    },
    {
      "inputs": [],
      "name": "stakingFixedEpochDuration",
      "outputs": [
        {
          "internalType": "uint256",
          "name": "",
          "type": "uint256"
        }
      ],
      "stateMutability": "view",
      "type": "function"
    },
    {
      "inputs": [],
      "name": "stakingFixedEpochEndTime",
      "outputs": [
        {
          "internalType": "uint256",
          "name": "",
          "type": "uint256"
        }
      ],
      "stateMutability": "view",
      "type": "function"
    },
    {
      "inputs": [],
      "name": "stakingTransitionTimeframeLength",
      "outputs": [
        {
          "internalType": "uint256",
          "name": "",
          "type": "uint256"
        }
      ],
      "stateMutability": "view",
      "type": "function"
    },
    {
      "inputs": [],
      "name": "stakingWithdrawDisallowPeriod",
      "outputs": [
        {
          "internalType": "uint256",
          "name": "",
          "type": "uint256"
        }
      ],
      "stateMutability": "view",
      "type": "function"
    },
    {
      "inputs": [],
      "name": "startTimeOfNextPhaseTransition",
      "outputs": [
        {
          "internalType": "uint256",
          "name": "",
          "type": "uint256"
        }
      ],
      "stateMutability": "view",
      "type": "function"
    },
    {
      "inputs": [],
      "name": "validatorSetContract",
      "outputs": [
        {
          "internalType": "contract IValidatorSetHbbft",
          "name": "",
          "type": "address"
        }
      ],
      "stateMutability": "view",
      "type": "function"
    },
    {
      "inputs": [
        {
          "internalType": "address",
          "name": "_fromPoolStakingAddress",
          "type": "address"
        },
        {
          "internalType": "uint256",
          "name": "_amount",
          "type": "uint256"
        }
      ],
      "name": "withdraw",
      "outputs": [],
      "stateMutability": "nonpayable",
      "type": "function"
    },
    {
      "stateMutability": "payable",
      "type": "receive"
    }
  ],
  "bytecode": "0x608060405234801561001057600080fd5b5061605680620000216000396000f3fe6080604052600436106105255760003560e01c80638247a239116102af578063bd30d31d11610179578063e9ab0300116100d6578063f07860961161008a578063f49425011161006f578063f494250114611138578063fa4aaf471461114c578063ffada8621461117957600080fd5b8063f078609614611102578063f3fef3a31461111857600080fd5b8063edd7db75116100bb578063edd7db75146110ab578063edf94b82146110c0578063ee435f55146110ed57600080fd5b8063e9ab030014611036578063eb3efa161461106e57600080fd5b8063dadee88a1161012d578063dfc8bf4e11610112578063dfc8bf4e14610fa3578063e2a43cd914610fc3578063e5b1d59314610ff957600080fd5b8063dadee88a14610f61578063df6f55f514610f8e57600080fd5b8063cfef14411161015e578063cfef144114610f16578063d290c21d14610f36578063da7a9b6a14610f4b57600080fd5b8063bd30d31d14610eba578063c6912cc014610f0157600080fd5b8063a420596711610227578063ae1aaf80116101db578063b61ed63a116101c0578063b61ed63a14610e2a578063b6bbbcea14610e4a578063bc9eb2c314610e8257600080fd5b8063ae1aaf8014610de7578063b42754a514610dfd57600080fd5b8063a697ecff1161020c578063a697ecff14610d7a578063a711e6a114610db2578063adddc0cf14610dd257600080fd5b8063a420596714610d2d578063a5d54f6514610d6557600080fd5b8063957950a71161027e5780639b03d744116102635780639b03d74414610cd75780639e72c63514610ced5780639ea8082b14610d0d57600080fd5b8063957950a714610c855780639a7b5f1114610ca857600080fd5b80638247a23914610be9578063862be28714610c0d578063950a651314610c2d5780639518c48114610c4d57600080fd5b80634f9a8d8f116103f0578063651139181161036857806373c218031161031c578063794c0c6811610301578063794c0c6814610b455780637b0a0f9b14610b5b5780637b15b94c14610bc957600080fd5b806373c2180314610ad5578063750dd2a114610af557600080fd5b80636bda15771161034d5780636bda157714610a4c5780636eda21dc14610a6c5780637069e74614610abf57600080fd5b806365113918146109fd578063673a2a1f14610a2a57600080fd5b80635ca2b650116103bf5780635fef7643116103a45780635fef764314610980578063611d760c1461099657806364213147146109b657600080fd5b80635ca2b6501461094a5780635d80ca321461096a57600080fd5b80634f9a8d8f146108bd5780635267e1d6146108d35780635659b742146108ff57806356e4d6c21461093757600080fd5b80632bafde8d1161049e578063392e53cd1161045257806348aaa4a21161043757806348aaa4a2146108505780634cf83f9c146108705780634e9b426d1461089057600080fd5b8063392e53cd146108105780633b7d09461461083057600080fd5b80633219d600116104835780633219d600146107b557806337154263146107e5578063379b046a146107fa57600080fd5b80632bafde8d14610744578063317277301461076457600080fd5b80631555371c116104f557806322e3d986116104da57806322e3d986146106fc578063251441a914610711578063264762041461073157600080fd5b80631555371c1461066b5780631fb31e431461068057600080fd5b80622ceebc1461057c578063028b8bdb146105cd57806303a81065146105e35780630868c0d61461063357600080fd5b366105775760405162461bcd60e51b815260206004820152600b60248201527f4e6f742070617961626c6500000000000000000000000000000000000000000060448201526064015b60405180910390fd5b600080fd5b34801561058857600080fd5b506105ba610597366004615811565b600b60209081526000938452604080852082529284528284209052825290205481565b6040519081526020015b60405180910390f35b3480156105d957600080fd5b506105ba60195481565b3480156105ef57600080fd5b506106316105fe366004615811565b6001600160a01b039283166000908152600b60209081526040808320949095168252928352838120918152915290812055565b005b34801561063f57600080fd5b506105ba61064e366004615852565b600f60209081526000928352604080842090915290825290205481565b34801561067757600080fd5b50610631611199565b34801561068c57600080fd5b506106ca61069b36600461588b565b6001600160a01b0316600090815260226020526040902060010154608081901b91600160801b90910460f01b90565b604080516fffffffffffffffffffffffffffffffff1990931683526001600160f01b03199091166020830152016105c4565b34801561070857600080fd5b506105ba61123c565b34801561071d57600080fd5b5061063161072c366004615811565b611283565b61063161073f36600461588b565b611408565b34801561075057600080fd5b5061063161075f3660046158a8565b61145a565b34801561077057600080fd5b506107a561077f366004615811565b601560209081526000938452604080852082529284528284209052825290205460ff1681565b60405190151581526020016105c4565b3480156107c157600080fd5b506107a56107d036600461588b565b60256020526000908152604090205460ff1681565b3480156107f157600080fd5b50610631611548565b34801561080657600080fd5b506105ba601f5481565b34801561081c57600080fd5b506021546001600160a01b031615156107a5565b34801561083c57600080fd5b5061063161084b36600461588b565b6119b0565b34801561085c57600080fd5b5061063161086b3660046158a8565b6119bc565b34801561087c57600080fd5b5061063161088b36600461590d565b611aaa565b34801561089c57600080fd5b506108b06108ab36600461588b565b611e1a565b6040516105c491906159f1565b3480156108c957600080fd5b506105ba601b5481565b3480156108df57600080fd5b506105ba6108ee36600461588b565b602080526000908152604090205481565b34801561090b57600080fd5b506105ba61091a366004615852565b601760209081526000928352604080842090915290825290205481565b610631610945366004615a6c565b611ec6565b34801561095657600080fd5b506106316109653660046158a8565b601a55565b34801561097657600080fd5b506105ba60235481565b34801561098c57600080fd5b506105ba60095481565b3480156109a257600080fd5b506106316109b136600461588b565b611fdf565b3480156109c257600080fd5b506106316109d1366004615811565b6001600160a01b0392831660009081526018602090815260408083209490951682529290925291902055565b348015610a0957600080fd5b506105ba610a1836600461588b565b60116020526000908152604090205481565b348015610a3657600080fd5b50610a3f611fea565b6040516105c49190615ad3565b348015610a5857600080fd5b506105ba610a67366004615852565b61204c565b348015610a7857600080fd5b50610631610a87366004615811565b6001600160a01b039283166000908152601560209081526040808320949095168252928352838120918152915220805460ff19169055565b348015610acb57600080fd5b506105ba601e5481565b348015610ae157600080fd5b50610a3f610af036600461588b565b6121f5565b348015610b0157600080fd5b506105ba610b10366004615852565b6001600160a01b039182166000908152600860209081526040808320939094168252918252828120601a548252909152205490565b348015610b5157600080fd5b506105ba601a5481565b348015610b6757600080fd5b50610631610b76366004615b38565b6001600160a01b039092166000908152602260205260409020600101805460f09390931c600160801b0271ffffffffffffffffffffffffffffffffffff1990931660809290921c91909117919091179055565b348015610bd557600080fd5b50610631610be436600461588b565b61226a565b348015610bf557600080fd5b50610631610c043660046158a8565b601d5543601e55565b348015610c1957600080fd5b50610631610c28366004615b7d565b6122a7565b348015610c3957600080fd5b506105ba610c48366004615852565b61230a565b348015610c5957600080fd5b506105ba610c68366004615852565b601060209081526000928352604080842090915290825290205481565b348015610c9157600080fd5b50610c9a61247f565b6040516105c4929190615bd7565b348015610cb457600080fd5b50610cc8610cc336600461588b565b6124e2565b6040516105c493929190615c1f565b348015610ce357600080fd5b506105ba601d5481565b348015610cf957600080fd5b50610631610d083660046158a8565b612596565b348015610d1957600080fd5b50610a3f610d2836600461588b565b6125b7565b348015610d3957600080fd5b506105ba610d48366004615852565b600e60209081526000928352604080842090915290825290205481565b348015610d7157600080fd5b50610a3f61262b565b348015610d8657600080fd5b506105ba610d95366004615852565b601660209081526000928352604080842090915290825290205481565b348015610dbe57600080fd5b506107a5610dcd36600461588b565b61268b565b348015610dde57600080fd5b506106316126ea565b348015610df357600080fd5b506105ba601c5481565b348015610e0957600080fd5b506105ba610e1836600461588b565b60126020526000908152604090205481565b348015610e3657600080fd5b50610631610e45366004615c66565b612705565b348015610e5657600080fd5b50602454610e6a906001600160a01b031681565b6040516001600160a01b0390911681526020016105c4565b348015610e8e57600080fd5b506105ba610e9d366004615852565b601860209081526000928352604080842090915290825290205481565b348015610ec657600080fd5b50610631610ed5366004615811565b6001600160a01b0392831660009081526017602090815260408083209490951682529290925291902055565b348015610f0d57600080fd5b506105ba612cdc565b348015610f2257600080fd5b50610631610f3136600461588b565b612d00565b348015610f4257600080fd5b50610a3f613079565b348015610f5757600080fd5b506105ba600a5481565b348015610f6d57600080fd5b506105ba610f7c36600461588b565b600d6020526000908152604090205481565b348015610f9a57600080fd5b50610a3f6130d9565b348015610faf57600080fd5b50602154610e6a906001600160a01b031681565b348015610fcf57600080fd5b50610631610fde366004615c66565b6001600160a01b039091166000908152602080526040902055565b34801561100557600080fd5b5061063161101436600461588b565b602680546001600160a01b0319166001600160a01b0392909216919091179055565b34801561104257600080fd5b506105ba611051366004615852565b600c60209081526000928352604080842090915290825290205481565b34801561107a57600080fd5b5061063161108936600461588b565b602180546001600160a01b0319166001600160a01b0392909216919091179055565b3480156110b757600080fd5b50610631613139565b3480156110cc57600080fd5b506105ba6110db36600461588b565b60146020526000908152604090205481565b3480156110f957600080fd5b50610631613335565b34801561110e57600080fd5b506105ba610bb881565b34801561112457600080fd5b50610631611133366004615c66565b613351565b34801561114457600080fd5b5060016107a5565b34801561115857600080fd5b506105ba61116736600461588b565b60136020526000908152604090205481565b34801561118557600080fd5b5061063161119436600461588b565b613438565b600060038054806020026020016040519081016040528092919081815260200182805480156111f157602002820191906000526020600020905b81546001600160a01b031681526001909101906020018083116111d3575b5050505050905060005b81518110156112385761122682828151811061121957611219615c92565b6020026020010151613441565b8061123081615cbe565b9150506111fb565b5050565b601d54601b546000919015611252576001611255565b60005b60ff16601f54601b54836112699190615cd7565b6112739190615cd7565b61127d9190615cea565b91505090565b3a6000036112c35760405162461bcd60e51b815260206004820152600d60248201526c04761735072696365206973203609c1b604482015260640161056e565b6021546001600160a01b03166113165760405162461bcd60e51b815260206004820152601860248201527710dbdb9d1c9858dd081b9bdd081a5b9a5d1a585b1a5e995960421b604482015260640161056e565b816001600160a01b0316836001600160a01b03160361139d5760405162461bcd60e51b815260206004820152602760248201527f4d6f76655374616b653a2073726320616e642064737420706f6f6c206973207460448201527f68652073616d6500000000000000000000000000000000000000000000000000606482015260840161056e565b336113a984828461359b565b6113b48382846138ce565b601a54604080516001600160a01b0387811682526020820186905280851692908716917f4480d8e4b1e9095b94bf513961d26fe1d32386ebdd103d18fe8738cf4b2223ff910160405180910390a450505050565b3a6000036114485760405162461bcd60e51b815260206004820152600d60248201526c04761735072696365206973203609c1b604482015260640161056e565b33346114558383836138ce565b505050565b7fb53127684a568b3173ae13b9f8a6016e243e63b6e8ee1178d6a717850b5d6103546001600160a01b0316336001600160a01b0316146114f05760405162461bcd60e51b815260206004820152602b60248201527f6f6e6c792061646d696e20697320616c6c6f77656420746f2063616c6c20746860448201526a34b990333ab731ba34b7b760a91b606482015260840161056e565b6021546001600160a01b03166115435760405162461bcd60e51b815260206004820152601860248201527710dbdb9d1c9858dd081b9bdd081a5b9a5d1a585b1a5e995960421b604482015260640161056e565b600a55565b3a6000036115885760405162461bcd60e51b815260206004820152600d60248201526c04761735072696365206973203609c1b604482015260640161056e565b60008060018054806020026020016040519081016040528092919081815260200182805480156115e157602002820191906000526020600020905b81546001600160a01b031681526001909101906020018083116115c3575b5050505050905080516000036116395760405162461bcd60e51b815260206004820152601260248201527f6e6f7468696e6720746f207265636f7665720000000000000000000000000000604482015260640161056e565b60005b815181101561181257600082828151811061165957611659615c92565b6020026020010151905061166c81613efb565b806116e25750602154604051639d6fc1d160e01b81526001600160a01b03838116600483015290911690639d6fc1d190602401602060405180830381865afa1580156116bc573d6000803e3d6000fd5b505050506040513d601f19601f820116820180604052508101906116e09190615cfd565b155b156116ed5750611802565b6116f681613f38565b6001600160a01b0381166000908152602560209081526040808320805460ff19166001179055908052812080549082905590611731836125b7565b905060005b81518110156117a457600082828151811061175357611753615c92565b6020908102919091018101516001600160a01b03808816600090815260168452604080822092841682529190935282209190915590506117938582614062565b5061179d81615cbe565b9050611736565b506117af8287615cd7565b9550826001600160a01b0316336001600160a01b03167f8e6a4ccd7dccdca9ac211d00fcc3fa7c71be75ff73d3a35f63ea023173cc1004846040516117f691815260200190565b60405180910390a35050505b61180b81615cbe565b905061163c565b50816000036118635760405162461bcd60e51b815260206004820152601260248201527f6e6f7468696e6720746f207265636f7665720000000000000000000000000000604482015260640161056e565b6000611870600284615d1f565b9050600061187e8285615cea565b90506000602460009054906101000a90046001600160a01b03166001600160a01b03166319cee8976040518163ffffffff1660e01b8152600401602060405180830381865afa1580156118d5573d6000803e3d6000fd5b505050506040513d601f19601f820116820180604052508101906118f99190615d41565b9050602460009054906101000a90046001600160a01b03166001600160a01b031663af182535836040518263ffffffff1660e01b81526004016000604051808303818588803b15801561194b57600080fd5b505af115801561195f573d6000803e3d6000fd5b505050505061196e81846141f6565b604080518381526020810185905233917f1c113e6bae9530fea40323e612aeb0cb7817dedb5a0b0f6bdfbff97d55920dc7910160405180910390a25050505050565b6119b981613441565b50565b7fb53127684a568b3173ae13b9f8a6016e243e63b6e8ee1178d6a717850b5d6103546001600160a01b0316336001600160a01b031614611a525760405162461bcd60e51b815260206004820152602b60248201527f6f6e6c792061646d696e20697320616c6c6f77656420746f2063616c6c20746860448201526a34b990333ab731ba34b7b760a91b606482015260840161056e565b6021546001600160a01b0316611aa55760405162461bcd60e51b815260206004820152601860248201527710dbdb9d1c9858dd081b9bdd081a5b9a5d1a585b1a5e995960421b604482015260640161056e565b600955565b8460a00135600003611afe5760405162461bcd60e51b815260206004820152601760248201527f466978656445706f63684475726174696f6e2069732030000000000000000000604482015260640161056e565b8460e001358560a0013511611b7b5760405162461bcd60e51b815260206004820152603d60248201527f466978656445706f63684475726174696f6e206d757374206265206c6f6e676560448201527f72207468616e207769746864726177446973616c6c6f77506572696f64000000606482015260840161056e565b8460e00135600003611bcf5760405162461bcd60e51b815260206004820152601b60248201527f5769746864726177446973616c6c6f77506572696f6420697320300000000000604482015260640161056e565b8460c00135600003611c495760405162461bcd60e51b815260206004820152602e60248201527f546865207472616e736974696f6e2074696d656672616d65206d75737420626560448201527f206c6f6e676572207468616e2030000000000000000000000000000000000000606482015260840161056e565b8460a001358560c0013510611cc8576040805162461bcd60e51b81526020600482015260248101919091527f546865207472616e736974696f6e2074696d656672616d65206d75737420626560448201527f2073686f72746572207468656e207468652065706f6368206475726174696f6e606482015260840161056e565b611d8c611cd8602087018761588b565b611ce56020880188615d5e565b8080602002602001604051908101604052809392919081815260200183836020028082843760009201919091525050604080516020808b02828101820184528b8352928d0135945060608d0135935060808d0135928c918c91829185019084908082843760009201919091525050604080516020808d0282810182019093528c82529093508c92508b9182918501908490808284376000920191909152506142e992505050565b60a0850135601b5560e085013560195560215460408051636c9230db60e01b815290516001600160a01b0390921691636c9230db916004808201926020929091908290030181865afa158015611de6573d6000803e3d6000fd5b505050506040513d601f19601f82011682018060405250810190611e0a9190615da8565b601d555050505060c00135601c55565b6001600160a01b0381166000908152602260205260409020805460609190611e4190615dc1565b80601f0160208091040260200160405190810160405280929190818152602001828054611e6d90615dc1565b8015611eba5780601f10611e8f57610100808354040283529160200191611eba565b820191906000526020600020905b815481529060010190602001808311611e9d57829003601f168201915b50505050509050919050565b3a600003611f065760405162461bcd60e51b815260206004820152600d60248201526c04761735072696365206973203609c1b604482015260640161056e565b602154604051630526083960e11b81526001600160a01b0386811660048301523360248301819052923492911690630a4c107290604401600060405180830381600087803b158015611f5757600080fd5b505af1158015611f6b573d6000803e3d6000fd5b50505050611f7a8283836138ce565b6001600160a01b0382166000908152602260205260409020611f9d858783615e57565b50506001600160a01b0316600090815260226020526040902060010180546fffffffffffffffffffffffffffffffff191660809290921c919091179055505050565b6119b9816001614a39565b6060600080548060200260200160405190810160405280929190818152602001828054801561204257602002820191906000526020600020905b81546001600160a01b03168152600190910190602001808311612024575b5050505050905090565b6021546040516253517560e01b81526001600160a01b03848116600483015260009283929116906253517590602401602060405180830381865afa158015612098573d6000803e3d6000fd5b505050506040513d601f19601f820116820180604052508101906120bc9190615d41565b90506120dd81846001600160a01b0316866001600160a01b03161415614b0a565b158061210157506001600160a01b03841660009081526025602052604090205460ff165b156121105760009150506121ef565b6001600160a01b03848116600090815260166020908152604080832087851684529091529081902054602154915163a0d16cad60e01b815284841660048201529092919091169063a0d16cad90602401602060405180830381865afa15801561217d573d6000803e3d6000fd5b505050506040513d601f19601f820116820180604052508101906121a19190615cfd565b6121ae5791506121ef9050565b6001600160a01b0385811660009081526008602090815260408083209388168352928152828220601a54835290522054808211156121ea578091505b509150505b92915050565b6001600160a01b038116600090815260076020908152604091829020805483518184028101840190945280845260609392830182828015611eba57602002820191906000526020600020905b81546001600160a01b031681526001909101906020018083116122415750505050509050919050565b6009546001600160a01b0382166000908152601660209081526040808320909152902054106119b95761229e816001614a39565b6119b981614c16565b3360009081526022602052604090206122c1848683615e57565b50336000908152602260205260409020600101805460f09290921c600160801b0271ffffffffffffffffffffffffffffffffffff1990921660809390931c929092171790555050565b6021546040516253517560e01b81526001600160a01b03848116600483015260009283929116906253517590602401602060405180830381865afa158015612356573d6000803e3d6000fd5b505050506040513d601f19601f8201168201806040525081019061237a9190615d41565b905061239b81846001600160a01b0316866001600160a01b03161415614b0a565b6123a95760009150506121ef565b60215460405163a0d16cad60e01b81526001600160a01b0383811660048301529091169063a0d16cad90602401602060405180830381865afa1580156123f3573d6000803e3d6000fd5b505050506040513d601f19601f820116820180604052508101906124179190615cfd565b6124255760009150506121ef565b6001600160a01b038481166000818152600860209081526040808320948816808452948252808320601a5484528252808320549383526016825280832094835293905291909120546124779190615cea565b949350505050565b606060006004600554818054806020026020016040519081016040528092919081815260200182805480156124d357602002820191906000526020600020905b8154815260200190600101908083116124bf575b50505050509150915091509091565b6022602052600090815260409020805481906124fd90615dc1565b80601f016020809104026020016040519081016040528092919081815260200182805461252990615dc1565b80156125765780601f1061254b57610100808354040283529160200191612576565b820191906000526020600020905b81548152906001019060200180831161255957829003601f168201915b50505060019093015491925050608081901b90600160801b900460f01b83565b601c5481601f546125a79190615cd7565b6125b19190615cd7565b601f5550565b6001600160a01b038116600090815260066020908152604091829020805483518184028101840190945280845260609392830182828015611eba576020028201919060005260206000209081546001600160a01b031681526001909101906020018083116122415750505050509050919050565b60606002805480602002602001604051908101604052809291908181526020018280548015612042576020028201919060005260206000209081546001600160a01b03168152600190910190602001808311612024575050505050905090565b6001600160a01b0381166000908152601260205260408120548154811080156126e35750826001600160a01b0316600082815481106126cc576126cc615c92565b6000918252602090912001546001600160a01b0316145b9392505050565b601c54601f60008282546126fe9190615cd7565b9091555050565b3a6000036127455760405162461bcd60e51b815260206004820152600d60248201526c04761735072696365206973203609c1b604482015260640161056e565b6021546001600160a01b03166127985760405162461bcd60e51b815260206004820152601860248201527710dbdb9d1c9858dd081b9bdd081a5b9a5d1a585b1a5e995960421b604482015260640161056e565b6001600160a01b0382166127f95760405162461bcd60e51b815260206004820152602260248201527f706f6f6c5374616b696e6741646472657373206d757374206e6f742062652030604482015261078360f41b606482015260840161056e565b8060000361286f5760405162461bcd60e51b815260206004820152602560248201527f6f72646572656420776974686472617720616d6f756e74206d757374206e6f7460448201527f2062652030000000000000000000000000000000000000000000000000000000606482015260840161056e565b6021546040516253517560e01b81526001600160a01b03848116600483015233926128fb929116906253517590602401602060405180830381865afa1580156128bc573d6000803e3d6000fd5b505050506040513d601f19601f820116820180604052508101906128e09190615d41565b846001600160a01b0316836001600160a01b03161415614b0a565b6129475760405162461bcd60e51b815260206004820152601a60248201527f4f7264657257697468647261773a206e6f7420616c6c6f776564000000000000604482015260640161056e565b6001600160a01b038084166000818152600c6020908152604080832094861680845294825280832054848452600d835281842054601684528285209685529583528184205494845291805282205490939291861315612a8057856129ab888761230a565b811115612a205760405162461bcd60e51b815260206004820152602f60248201527f4f7264657257697468647261773a206d617857697468647261774f726465724160448201527f6c6c6f7765642065786365656465640000000000000000000000000000000000606482015260840161056e565b612a2a8186615cd7565b9450612a368185615cd7565b9350612a428184615cea565b9250612a4e8183615cea565b601a546001600160a01b03808b166000908152600e60209081526040808320938c16835292905220559150612abf9050565b6000612a8b87615f17565b9050612a978186615cea565b9450612aa38185615cea565b9350612aaf8184615cd7565b9250612abb8183615cd7565b9150505b6001600160a01b038088166000818152600c60209081526040808320948a16808452948252808320899055838352600d825280832088905560168252808320858452825280832087905583835290805290208390559003612bc557811580612b2957506009548210155b612b9b5760405162461bcd60e51b815260206004820152603360248201527f6e65775374616b6520416d6f756e74206d75737420626520677265617465722060448201527f7468616e20746865206d696e207374616b652e00000000000000000000000000606482015260840161056e565b6000861315612bba5781600003612bb557612bb587614ce4565b612c7a565b612bb5876001614a39565b811580612bd45750600a548210155b612c465760405162461bcd60e51b815260206004820152603360248201527f6e65775374616b6520416d6f756e74206d75737420626520677265617465722060448201527f7468616e20746865206d696e207374616b652e00000000000000000000000000606482015260840161056e565b6000861315612c665781600003612c6157612c618786614062565b612c70565b612c708786614da8565b612c7a8786614e70565b612c8387614c16565b601a54856001600160a01b0316886001600160a01b03167f80d5c777e5f7ac6ee89723223803ca5c0ec0204f89e99c1b0cde973c66a6459489604051612ccb91815260200190565b60405180910390a450505050505050565b6000601c54601b54601d54612cf19190615cd7565b612cfb9190615cea565b905090565b3a600003612d405760405162461bcd60e51b815260206004820152600d60248201526c04761735072696365206973203609c1b604482015260640161056e565b6021546001600160a01b0316612d935760405162461bcd60e51b815260206004820152601860248201527710dbdb9d1c9858dd081b9bdd081a5b9a5d1a585b1a5e995960421b604482015260640161056e565b6001600160a01b0381166000908152600e6020908152604080832033808552925290912054601a5411612e2e5760405162461bcd60e51b815260206004820152603f60248201527f63616e6e6f7420636c61696d206f72646572656420776974686472617720696e60448201527f207468652073616d652065706f636820697420776173206f7264657265642e00606482015260840161056e565b6021546040516253517560e01b81526001600160a01b038481166004830152612eb79216906253517590602401602060405180830381865afa158015612e78573d6000803e3d6000fd5b505050506040513d601f19601f82011682018060405250810190612e9c9190615d41565b836001600160a01b0316836001600160a01b03161415614b0a565b612f295760405162461bcd60e51b815260206004820152602a60248201527f436c61696d4f72646572656457697468647261773a205769746864726177206e60448201527f6f7420616c6c6f77656400000000000000000000000000000000000000000000606482015260840161056e565b6001600160a01b038083166000908152600c6020908152604080832093851683529290529081205490819003612fa15760405162461bcd60e51b815260206004820152601a60248201527f636c61696d20616d6f756e74206d757374206e6f742062652030000000000000604482015260640161056e565b6001600160a01b038084166000818152600c602090815260408083209487168352938152838220829055918152600d9091522054612fe0908290615cea565b6001600160a01b038085166000908152600d602090815260408083209490945560168152838220928616825291909152908120549003613024576130248383614f75565b601a54826001600160a01b0316846001600160a01b03167ff380b0bc887e00f5b50d3c9d4eaaf5c9a0afd97b956316b995159384c4ede9b38460405161306c91815260200190565b60405180910390a4505050565b60606003805480602002602001604051908101604052809291908181526020018280548015612042576020028201919060005260206000209081546001600160a01b03168152600190910190602001808311612024575050505050905090565b60606001805480602002602001604051908101604052809291908181526020018280548015612042576020028201919060005260206000209081546001600160a01b03168152600190910190602001808311612024575050505050905090565b3a6000036131795760405162461bcd60e51b815260206004820152600d60248201526c04761735072696365206973203609c1b604482015260640161056e565b6021546001600160a01b03166131cc5760405162461bcd60e51b815260206004820152601860248201527710dbdb9d1c9858dd081b9bdd081a5b9a5d1a585b1a5e995960421b604482015260640161056e565b6021546040516253517560e01b81523360048201819052916000916001600160a01b03909116906253517590602401602060405180830381865afa158015613218573d6000803e3d6000fd5b505050506040513d601f19601f8201168201806040525081019061323c9190615d41565b90506000601a5411806132ba575060215460405163facd743b60e01b81526001600160a01b0383811660048301529091169063facd743b90602401602060405180830381865afa158015613294573d6000803e3d6000fd5b505050506040513d601f19601f820116820180604052508101906132b89190615cfd565b155b61332c5760405162461bcd60e51b815260206004820152602a60248201527f43616e27742072656d6f766520706f6f6c20647572696e67203173742073746160448201527f6b696e672065706f636800000000000000000000000000000000000000000000606482015260840161056e565b61123882613441565b601a805490600061334583615cbe565b90915550506000601f55565b3a6000036133915760405162461bcd60e51b815260206004820152600d60248201526c04761735072696365206973203609c1b604482015260640161056e565b6021546001600160a01b03166133e45760405162461bcd60e51b815260206004820152601860248201527710dbdb9d1c9858dd081b9bdd081a5b9a5d1a585b1a5e995960421b604482015260640161056e565b336133f083828461359b565b601a54816001600160a01b0316846001600160a01b03167fa7c0f0cac6bd4d18042007706c84a8abe823751cf289b69c01e83eef7b5915c78560405161306c91815260200190565b6119b9816150a3565b6001600160a01b0381166000908152601260205260408120549054811080156134995750816001600160a01b03166000828154811061348257613482615c92565b6000918252602090912001546001600160a01b0316145b15613564576000805481906134b090600190615cea565b815481106134c0576134c0615c92565b600091825260208220015481546001600160a01b039091169250829190849081106134ed576134ed615c92565b600091825260208083209190910180546001600160a01b0319166001600160a01b039485161790558383168252601290526040808220859055918516815290812081905580548061354057613540615f33565b600082815260209020810160001990810180546001600160a01b0319169055019055505b61356d82613efb565b156135805761357b82613f38565b613589565b613589826150a3565b61359282615161565b6112388261537e565b6001600160a01b0383166136175760405162461bcd60e51b815260206004820152602e60248201527f576974686472617720706f6f6c207374616b696e672061646472657373206d7560448201527f7374206e6f74206265206e756c6c000000000000000000000000000000000000606482015260840161056e565b806000036136675760405162461bcd60e51b815260206004820181905260248201527f616d6f756e7420746f207769746864726177206d757374206e6f742062652030604482015260640161056e565b613671838361204c565b8111156136e65760405162461bcd60e51b815260206004820152602560248201527f57697468647261773a206d61785769746864726177416c6c6f7765642065786360448201527f6565646564000000000000000000000000000000000000000000000000000000606482015260840161056e565b6001600160a01b038084166000908152601660209081526040808320938616835292905290812054613719908390615cea565b90506000836001600160a01b0316856001600160a01b03161461373e57600a54613742565b6009545b90508115806137515750808210155b6137c35760405162461bcd60e51b815260206004820152603960248201527f6e65775374616b6520616d6f756e74206d75737420626520677265617465722060448201527f657175616c207468616e20746865206d696e207374616b652e00000000000000606482015260840161056e565b6001600160a01b03858116600081815260166020908152604080832094891680845294825280832087905592825260088152828220938252928352818120601a5482529092529020548381101561381b576000613825565b6138258482615cea565b6001600160a01b038088166000818152600860209081526040808320948b168352938152838220601a54835281528382209490945590815291805290205461386e908590615cea565b6001600160a01b038716600090815260208052604081209190915583900361389a5761389a8686614f75565b856001600160a01b0316856001600160a01b0316146138bd576138bd8686614e70565b6138c686614c16565b505050505050565b6021546040516253517560e01b81526001600160a01b03858116600483015260009216906253517590602401602060405180830381865afa158015613917573d6000803e3d6000fd5b505050506040513d601f19601f8201168201806040525081019061393b9190615d41565b90506001600160a01b0381166139bb576040805162461bcd60e51b81526020600482015260248101919091527f506f6f6c20646f6573206e6f742065786973742e206d696e696e67416464726560448201527f737320666f722074686174207374616b696e6720616464726573732069732030606482015260840161056e565b6001600160a01b038416613a115760405162461bcd60e51b815260206004820152601a60248201527f5374616b653a207374616b696e67416464726573732069732030000000000000604482015260640161056e565b81600003613a615760405162461bcd60e51b815260206004820152601960248201527f5374616b653a207374616b696e67416d6f756e74206973203000000000000000604482015260640161056e565b602154604051635491295760e11b81526001600160a01b0383811660048301529091169063a92252ae90602401602060405180830381865afa158015613aab573d6000803e3d6000fd5b505050506040513d601f19601f82011682018060405250810190613acf9190615cfd565b15613b1c5760405162461bcd60e51b815260206004820152601f60248201527f5374616b653a204d696e696e6720616464726573732069732062616e6e656400604482015260640161056e565b6001600160a01b03841660009081526025602052604090205460ff1615613b855760405162461bcd60e51b815260206004820152601560248201527f5374616b653a20706f6f6c206162616e646f6e65640000000000000000000000604482015260640161056e565b6001600160a01b038085166000908152601660209081526040808320938716835292905290812054613bb8908490615cd7565b9050846001600160a01b0316846001600160a01b031603613c5057600954811015613c4b5760405162461bcd60e51b815260206004820152603160248201527f5374616b653a2063616e6469646174655374616b65206c657373207468616e2060448201527f63616e6469646174654d696e5374616b65000000000000000000000000000000606482015260840161056e565b613d43565b600a54811015613cc85760405162461bcd60e51b815260206004820152603460248201527f5374616b653a2064656c656761746f725374616b65206973206c65737320746860448201527f616e2064656c656761746f724d696e5374616b65000000000000000000000000606482015260840161056e565b6001600160a01b03851660009081526016602090815260408083209091528120549003613d435760405162461bcd60e51b815260206004820152602360248201527f5374616b653a2063616e27742064656c656761746520696e20656d70747920706044820152621bdbdb60ea1b606482015260840161056e565b6023546001600160a01b0386166000908152602080526040902054613d69908590615cd7565b1115613db75760405162461bcd60e51b815260206004820152601d60248201527f7374616b65206c696d697420686173206265656e206578636565646564000000604482015260640161056e565b6001600160a01b03858116600081815260166020908152604080832094891680845294825280832086905592825260088152828220938252928352818120601a548252909252902054613e0b908490615cd7565b6001600160a01b038087166000818152600860209081526040808320948a168352938152838220601a548352815283822094909455908152918052902054613e54908490615cd7565b6001600160a01b038087166000818152602080526040902092909255851603613e8757613e82856001614a39565b613e9b565b613e918585614da8565b613e9b8585614e70565b613ea485614c16565b601a54846001600160a01b0316866001600160a01b03167f2273de02cb1f69ba6259d22c4bc22c60e4c94c193265ef6afee324a04a9b6d2286604051613eec91815260200190565b60405180910390a45050505050565b6001600160a01b03811660009081526020805260408120541580156121ef5750506001600160a01b03166000908152600d60205260409020541590565b6001600160a01b03811660009081526011602052604090205460015481108015613f915750816001600160a01b031660018281548110613f7a57613f7a615c92565b6000918252602090912001546001600160a01b0316145b15611238576001805460009190613fa9908290615cea565b81548110613fb957613fb9615c92565b600091825260209091200154600180546001600160a01b039092169250829184908110613fe857613fe8615c92565b600091825260208083209190910180546001600160a01b0319166001600160a01b039485161790558383168252601190526040808220859055918516815290812055600180548061403b5761403b615f33565b600082815260209020810160001990810180546001600160a01b0319169055019055505050565b6001600160a01b038083166000908152600660209081526040808320600f83528184209486168452939091529020548154811080156140cf5750826001600160a01b03168282815481106140b8576140b8615c92565b6000918252602090912001546001600160a01b0316145b156141ac57815460009083906140e790600190615cea565b815481106140f7576140f7615c92565b9060005260206000200160009054906101000a90046001600160a01b031690508083838154811061412a5761412a615c92565b600091825260208083209190910180546001600160a01b0319166001600160a01b039485161790558783168252600f815260408083208585168452909152808220859055918616815290812055825483908061418857614188615f33565b600082815260209020810160001990810180546001600160a01b0319169055019055505b6001600160a01b038085166000908152600c6020908152604080832093871683529290522054156141e6576141e18484615482565b6141f0565b6141f08484615546565b50505050565b804710156142465760405162461bcd60e51b815260206004820152601460248201527f496e73756666696369656e742062616c616e6365000000000000000000000000604482015260640161056e565b6000826001600160a01b03168260405160006040518083038185875af1925050503d8060008114614293576040519150601f19603f3d011682016040523d82523d6000602084013e614298565b606091505b50509050806114555760405162461bcd60e51b815260206004820152600f60248201527f5472616e73666572206661696c65640000000000000000000000000000000000604482015260640161056e565b7fb53127684a568b3173ae13b9f8a6016e243e63b6e8ee1178d6a717850b5d6103546001600160a01b0316336001600160a01b0316148061435c57507fb53127684a568b3173ae13b9f8a6016e243e63b6e8ee1178d6a717850b5d6103546001600160a01b0316326001600160a01b0316145b8061438f57507fb53127684a568b3173ae13b9f8a6016e243e63b6e8ee1178d6a717850b5d6103546001600160a01b0316155b80614398575043155b61440a5760405162461bcd60e51b815260206004820152603060248201527f496e697469616c697a6174696f6e206f6e6c79206f6e2067656e65736973206260448201527f6c6f636b206f722062792061646d696e00000000000000000000000000000000606482015260840161056e565b6021546001600160a01b0316156144635760405162461bcd60e51b815260206004820152601360248201527f416c726561647920696e697469616c697a656400000000000000000000000000604482015260640161056e565b6001600160a01b0387166144b95760405162461bcd60e51b815260206004820152601760248201527f56616c696461746f725365742063616e27742062652030000000000000000000604482015260640161056e565b60008651116145305760405162461bcd60e51b815260206004820152602560248201527f4d7573742070726f7669646520696e697469616c206d696e696e67206164647260448201527f6573736573000000000000000000000000000000000000000000000000000000606482015260840161056e565b8151865161453f906002615f49565b146145b25760405162461bcd60e51b815260206004820152602960248201527f4d7573742070726f7669646520636f7272656374206e756d626572206f66207060448201527f75626c69634b6579730000000000000000000000000000000000000000000000606482015260840161056e565b80518651146146295760405162461bcd60e51b815260206004820152602a60248201527f4d7573742070726f7669646520636f7272656374206e756d626572206f66204960448201527f5020616472657373657300000000000000000000000000000000000000000000606482015260840161056e565b846000036146795760405162461bcd60e51b815260206004820152601660248201527f44656c656761746f724d696e5374616b65206973203000000000000000000000604482015260640161056e565b836000036146c95760405162461bcd60e51b815260206004820152601660248201527f43616e6469646174654d696e5374616b65206973203000000000000000000000604482015260640161056e565b83831161473e5760405162461bcd60e51b815260206004820152603160248201527f6d6178696d756d207374616b65206d757374206265206772656174657220746860448201527f656e206d696e696d756d207374616b652e000000000000000000000000000000606482015260840161056e565b602180546001600160a01b0319166001600160a01b03891617905560005b86518110156149925760006001600160a01b031687828151811061478257614782615c92565b60200260200101516001600160a01b0316036147eb5760405162461bcd60e51b815260206004820152602260248201527f496e697469616c5374616b696e674164647265737365732063616e2774206265604482015261020360f41b606482015260840161056e565b61480f87828151811061480057614800615c92565b60200260200101516000614a39565b61483187828151811061482457614824615c92565b6020026020010151614ce4565b8261483d826002615f49565b8151811061484d5761484d615c92565b6020026020010151838260026148639190615f49565b61486e906001615cd7565b8151811061487e5761487e615c92565b60200260200101516040516020016148a0929190918252602082015260400190565b604051602081830303815290604052602260008984815181106148c5576148c5615c92565b60200260200101516001600160a01b03166001600160a01b0316815260200190815260200160002060000190816148fc9190615f60565b5081818151811061490f5761490f615c92565b60200260200101516022600089848151811061492d5761492d615c92565b60200260200101516001600160a01b03166001600160a01b0316815260200190815260200160002060010160006101000a8154816fffffffffffffffffffffffffffffffff021916908360801c0217905550808061498a90615cbe565b91505061475c565b50600a8590556009849055602383905560215460408051632b5aa5d760e11b815290516001600160a01b03909216916356b54bae916004808201926020929091908290030181865afa1580156149ec573d6000803e3d6000fd5b505050506040513d601f19601f82011682018060405250810190614a109190615d41565b602480546001600160a01b0319166001600160a01b039290921691909117905550505050505050565b614a428261268b565b614af257600080546001600160a01b0384168083526012602052604083208290556001820183559180527f290decd9548b62a8d60345a988386fc84ba6bc95484008f6362f93160ef3e5630180546001600160a01b031916909117905560646000541115614af25760405162461bcd60e51b815260206004820152601d60248201527f4d41585f43414e4449444154455320706f6f6c73206578636565646564000000604482015260640161056e565b614afb82613f38565b80156112385761123882615695565b60008115614b925760215460405163a881c5fd60e01b81526001600160a01b0385811660048301529091169063a881c5fd90602401602060405180830381865afa158015614b5c573d6000803e3d6000fd5b505050506040513d601f19601f82011682018060405250810190614b809190615cfd565b15614b8d575060006121ef565b614c0d565b602154604051635491295760e11b81526001600160a01b0385811660048301529091169063a92252ae90602401602060405180830381865afa158015614bdc573d6000803e3d6000fd5b505050506040513d601f19601f82011682018060405250810190614c009190615cfd565b15614c0d575060006121ef565b50600192915050565b600080614c228361578a565b9150915081614c3057505050565b600060048281548110614c4557614c45615c92565b90600052602060002001549050600060206000866001600160a01b03166001600160a01b031681526020019081526020016000205490508060048481548110614c9057614c90615c92565b600091825260209091200155818110614cc257614cad8282615cea565b600554614cba9190615cd7565b600555614cdd565b614ccc8183615cea565b600554614cd99190615cea565b6005555b5050505050565b6001600160a01b0381166000908152601460205260409020546003548082101580614d3f5750826001600160a01b031660038381548110614d2757614d27615c92565b6000918252602090912001546001600160a01b031614155b15614d9f576001600160a01b03831660008181526014602052604081208390556003805460018101825591527fc2575a0e9e593c00f959f8c92f12db2869c3395a3b0502d05e2516446f71f85b0180546001600160a01b03191690911790555b61145583615161565b6001600160a01b038083166000908152600660209081526040808320600f835281842094861684529390915290205481548082101580614e175750836001600160a01b0316838381548110614dff57614dff615c92565b6000918252602090912001546001600160a01b031614155b15614e66576001600160a01b038086166000908152600f602090815260408083209388168084529382528220849055855460018101875586835291200180546001600160a01b03191690911790555b614cdd8585615546565b6000601a546001614e819190615cd7565b6001600160a01b038085166000908152601660209081526040808320938716835292905290812054919250819003614ebb57600019614ebd565b805b6001600160a01b038086166000818152600b6020908152604080832094891680845294825280832088845282528083209590955591815260178252838120928152919052908120549003614f34576001600160a01b0380851660009081526017602090815260408083209387168352929052208290555b8015614f41576000614f43565b815b6001600160a01b0394851660009081526018602090815260408083209690971682529490945293909220929092555050565b816001600160a01b0316816001600160a01b031603615082576021546040516253517560e01b81526001600160a01b03848116600483015260009216906253517590602401602060405180830381865afa158015614fd7573d6000803e3d6000fd5b505050506040513d601f19601f82011682018060405250810190614ffb9190615d41565b60215460405163facd743b60e01b81526001600160a01b03808416600483015292935091169063facd743b90602401602060405180830381865afa158015615047573d6000803e3d6000fd5b505050506040513d601f19601f8201168201806040525081019061506b9190615cfd565b156150795761145583614ce4565b61145583613441565b61508c8282614062565b61509582613efb565b156112385761123882613f38565b6001600160a01b03811660009081526011602052604090205460015480821015806150fe5750826001600160a01b0316600183815481106150e6576150e6615c92565b6000918252602090912001546001600160a01b031614155b15611455576001600160a01b038316600081815260116020526040812083905560018054808201825591527fb10e2d527612073b26eecdfd717e6a320cf44b4afac2b0732d9fcbe2b7fa0cf60180546001600160a01b0319169091179055505050565b6004546002541461516f5750565b6001600160a01b038116600090815260136020526040902054600254811080156151c85750816001600160a01b0316600282815481106151b1576151b1615c92565b6000918252602090912001546001600160a01b0316145b1561123857600481815481106151e0576151e0615c92565b90600052602060002001546005541061522d576004818154811061520657615206615c92565b9060005260206000200154600560008282546152229190615cea565b909155506152339050565b60006005555b60025460009061524590600190615cea565b905060006002828154811061525c5761525c615c92565b600091825260209091200154600280546001600160a01b03909216925082918590811061528b5761528b615c92565b9060005260206000200160006101000a8154816001600160a01b0302191690836001600160a01b03160217905550600482815481106152cc576152cc615c92565b9060005260206000200154600484815481106152ea576152ea615c92565b60009182526020808320909101929092556001600160a01b03808416825260139092526040808220869055918616815290812055600280548061532f5761532f615f33565b600082815260209020810160001990810180546001600160a01b0319169055019055600480548061536257615362615f33565b6001900381819060005260206000200160009055905550505050565b6001600160a01b038116600090815260146020526040902054600354811080156153d75750816001600160a01b0316600382815481106153c0576153c0615c92565b6000918252602090912001546001600160a01b0316145b156112385760038054600091906153f090600190615cea565b8154811061540057615400615c92565b600091825260209091200154600380546001600160a01b03909216925082918490811061542f5761542f615c92565b600091825260208083209190910180546001600160a01b0319166001600160a01b039485161790558383168252601490526040808220859055918516815290812055600380548061403b5761403b615f33565b6001600160a01b03808316600090815260076020908152604080832060108352818420948616845293909152902054815480821015806154f15750836001600160a01b03168383815481106154d9576154d9615c92565b6000918252602090912001546001600160a01b031614155b15614cdd576001600160a01b0380861660009081526010602090815260408083209388168084529382528220849055855460018101875586835291200180546001600160a01b03191690911790555050505050565b6001600160a01b038083166000908152600760209081526040808320601083528184209486168452939091529020548154811080156155b35750826001600160a01b031682828154811061559c5761559c615c92565b6000918252602090912001546001600160a01b0316145b156141f057815460009083906155cb90600190615cea565b815481106155db576155db615c92565b9060005260206000200160009054906101000a90046001600160a01b031690508083838154811061560e5761560e615c92565b600091825260208083209190910180546001600160a01b0319166001600160a01b0394851617905587831682526010815260408083208585168452909152808220859055918616815290812055825483908061566c5761566c615f33565b600082815260209020810160001990810180546001600160a01b03191690550190555050505050565b6001600160a01b03811660009081526013602052604090205460025480821015806156f05750826001600160a01b0316600283815481106156d8576156d8615c92565b6000918252602090912001546001600160a01b031614155b15615781576001600160a01b03831660008181526013602052604081208390556002805460018181019092557f405787fa12a823e0f2b7631cc41b3ba8828b3321ca811111fa75cd3aa3bb5ace0180546001600160a01b03191690931790925560048054928301815581527f8a35acfbc15ff81a39ae7d344fd709f28e8600b4aa8c65c6b64bfe7fe36bd19b909101555b6114558361537e565b6001600160a01b038116600090815260136020526040812054600254811080156157e35750826001600160a01b0316600282815481106157cc576157cc615c92565b6000918252602090912001546001600160a01b0316145b156157f15760019150915091565b506000928392509050565b6001600160a01b03811681146119b957600080fd5b60008060006060848603121561582657600080fd5b8335615831816157fc565b92506020840135615841816157fc565b929592945050506040919091013590565b6000806040838503121561586557600080fd5b8235615870816157fc565b91506020830135615880816157fc565b809150509250929050565b60006020828403121561589d57600080fd5b81356126e3816157fc565b6000602082840312156158ba57600080fd5b5035919050565b60008083601f8401126158d357600080fd5b50813567ffffffffffffffff8111156158eb57600080fd5b6020830191508360208260051b850101111561590657600080fd5b9250929050565b60008060008060006060868803121561592557600080fd5b853567ffffffffffffffff8082111561593d57600080fd5b90870190610100828a03121561595257600080fd5b9095506020870135908082111561596857600080fd5b61597489838a016158c1565b9096509450604088013591508082111561598d57600080fd5b5061599a888289016158c1565b969995985093965092949392505050565b6000815180845260005b818110156159d1576020818501810151868301820152016159b5565b506000602082860101526020601f19601f83011685010191505092915050565b6020815260006126e360208301846159ab565b60008083601f840112615a1657600080fd5b50813567ffffffffffffffff811115615a2e57600080fd5b60208301915083602082850101111561590657600080fd5b80356fffffffffffffffffffffffffffffffff1981168114615a6757600080fd5b919050565b60008060008060608587031215615a8257600080fd5b8435615a8d816157fc565b9350602085013567ffffffffffffffff811115615aa957600080fd5b615ab587828801615a04565b9094509250615ac8905060408601615a46565b905092959194509250565b6020808252825182820181905260009190848201906040850190845b81811015615b145783516001600160a01b031683529284019291840191600101615aef565b50909695505050505050565b80356001600160f01b031981168114615a6757600080fd5b600080600060608486031215615b4d57600080fd5b8335615b58816157fc565b9250615b6660208501615a46565b9150615b7460408501615b20565b90509250925092565b60008060008060608587031215615b9357600080fd5b843567ffffffffffffffff811115615baa57600080fd5b615bb687828801615a04565b9095509350615bc9905060208601615a46565b9150615ac860408601615b20565b604080825283519082018190526000906020906060840190828701845b82811015615c1057815184529284019290840190600101615bf4565b50505092019290925292915050565b606081526000615c3260608301866159ab565b6fffffffffffffffffffffffffffffffff19949094166020830152506001600160f01b031991909116604090910152919050565b60008060408385031215615c7957600080fd5b8235615c84816157fc565b946020939093013593505050565b634e487b7160e01b600052603260045260246000fd5b634e487b7160e01b600052601160045260246000fd5b600060018201615cd057615cd0615ca8565b5060010190565b808201808211156121ef576121ef615ca8565b818103818111156121ef576121ef615ca8565b600060208284031215615d0f57600080fd5b815180151581146126e357600080fd5b600082615d3c57634e487b7160e01b600052601260045260246000fd5b500490565b600060208284031215615d5357600080fd5b81516126e3816157fc565b6000808335601e19843603018112615d7557600080fd5b83018035915067ffffffffffffffff821115615d9057600080fd5b6020019150600581901b360382131561590657600080fd5b600060208284031215615dba57600080fd5b5051919050565b600181811c90821680615dd557607f821691505b602082108103615df557634e487b7160e01b600052602260045260246000fd5b50919050565b634e487b7160e01b600052604160045260246000fd5b601f82111561145557600081815260208120601f850160051c81016020861015615e385750805b601f850160051c820191505b818110156138c657828155600101615e44565b67ffffffffffffffff831115615e6f57615e6f615dfb565b615e8383615e7d8354615dc1565b83615e11565b6000601f841160018114615eb75760008515615e9f5750838201355b600019600387901b1c1916600186901b178355614cdd565b600083815260209020601f19861690835b82811015615ee85786850135825560209485019460019092019101615ec8565b5086821015615f055760001960f88860031b161c19848701351681555b505060018560011b0183555050505050565b6000600160ff1b8201615f2c57615f2c615ca8565b5060000390565b634e487b7160e01b600052603160045260246000fd5b80820281158282048414176121ef576121ef615ca8565b815167ffffffffffffffff811115615f7a57615f7a615dfb565b615f8e81615f888454615dc1565b84615e11565b602080601f831160018114615fc35760008415615fab5750858301515b600019600386901b1c1916600185901b1785556138c6565b600085815260208120601f198616915b82811015615ff257888601518255948401946001909101908401615fd3565b50858210156160105787850151600019600388901b60f8161c191681555b5050505050600190811b0190555056fea2646970667358221220e17944c178270ee330ff70a1a02cb69cc35ca4382cd1a556d39678b1450634c364736f6c63430008110033",
  "linkReferences": {},
  "deployedLinkReferences": {}
}