{
  "_format": "hh-sol-artifact-1",
  "contractName": "StakingHbbftCoinsMock",
  "sourceName": "contracts/mockContracts/StakingHbbftCoinsMock.sol",
  "abi": [
    {
      "anonymous": false,
      "inputs": [
        {
          "indexed": true,
          "internalType": "address",
          "name": "fromPoolStakingAddress",
          "type": "address"
        },
        {
          "indexed": true,
          "internalType": "address",
          "name": "staker",
          "type": "address"
        },
        {
          "indexed": true,
          "internalType": "uint256",
          "name": "stakingEpoch",
          "type": "uint256"
        },
        {
          "indexed": false,
          "internalType": "uint256",
          "name": "amount",
          "type": "uint256"
        }
      ],
      "name": "ClaimedOrderedWithdrawal",
      "type": "event"
    },
    {
      "anonymous": false,
      "inputs": [
        {
          "indexed": true,
          "internalType": "address",
          "name": "fromPoolStakingAddress",
          "type": "address"
        },
        {
          "indexed": true,
          "internalType": "address",
          "name": "staker",
          "type": "address"
        },
        {
          "indexed": true,
          "internalType": "uint256",
          "name": "stakingEpoch",
          "type": "uint256"
        },
        {
          "indexed": false,
          "internalType": "uint256",
          "name": "nativeCoinsAmount",
          "type": "uint256"
        }
      ],
      "name": "ClaimedReward",
      "type": "event"
    },
    {
      "anonymous": false,
      "inputs": [
        {
          "indexed": true,
          "internalType": "address",
          "name": "caller",
          "type": "address"
        },
        {
          "indexed": true,
          "internalType": "address",
          "name": "stakingAddress",
          "type": "address"
        },
        {
          "indexed": false,
          "internalType": "uint256",
          "name": "gatheredFunds",
          "type": "uint256"
        }
      ],
      "name": "GatherAbandonedStakes",
      "type": "event"
    },
    {
      "anonymous": false,
      "inputs": [
        {
          "indexed": false,
          "internalType": "address",
          "name": "fromPoolStakingAddress",
          "type": "address"
        },
        {
          "indexed": true,
          "internalType": "address",
          "name": "toPoolStakingAddress",
          "type": "address"
        },
        {
          "indexed": true,
          "internalType": "address",
          "name": "staker",
          "type": "address"
        },
        {
          "indexed": true,
          "internalType": "uint256",
          "name": "stakingEpoch",
          "type": "uint256"
        },
        {
          "indexed": false,
          "internalType": "uint256",
          "name": "amount",
          "type": "uint256"
        }
      ],
      "name": "MovedStake",
      "type": "event"
    },
    {
      "anonymous": false,
      "inputs": [
        {
          "indexed": true,
          "internalType": "address",
          "name": "fromPoolStakingAddress",
          "type": "address"
        },
        {
          "indexed": true,
          "internalType": "address",
          "name": "staker",
          "type": "address"
        },
        {
          "indexed": true,
          "internalType": "uint256",
          "name": "stakingEpoch",
          "type": "uint256"
        },
        {
          "indexed": false,
          "internalType": "int256",
          "name": "amount",
          "type": "int256"
        }
      ],
      "name": "OrderedWithdrawal",
      "type": "event"
    },
    {
      "anonymous": false,
      "inputs": [
        {
          "indexed": true,
          "internalType": "address",
          "name": "toPoolStakingAddress",
          "type": "address"
        },
        {
          "indexed": true,
          "internalType": "address",
          "name": "staker",
          "type": "address"
        },
        {
          "indexed": true,
          "internalType": "uint256",
          "name": "stakingEpoch",
          "type": "uint256"
        },
        {
          "indexed": false,
          "internalType": "uint256",
          "name": "amount",
          "type": "uint256"
        }
      ],
      "name": "PlacedStake",
      "type": "event"
    },
    {
      "anonymous": false,
      "inputs": [
        {
          "indexed": true,
          "internalType": "address",
          "name": "caller",
          "type": "address"
        },
        {
          "indexed": false,
          "internalType": "uint256",
          "name": "reinsertShare",
          "type": "uint256"
        },
        {
          "indexed": false,
          "internalType": "uint256",
          "name": "governanceShare",
          "type": "uint256"
        }
      ],
      "name": "RecoverAbandonedStakes",
      "type": "event"
    },
    {
      "anonymous": false,
      "inputs": [
        {
          "indexed": true,
          "internalType": "address",
          "name": "fromPoolStakingAddress",
          "type": "address"
        },
        {
          "indexed": true,
          "internalType": "address",
          "name": "staker",
          "type": "address"
        },
        {
          "indexed": true,
          "internalType": "uint256",
          "name": "stakingEpoch",
          "type": "uint256"
        },
        {
          "indexed": false,
          "internalType": "uint256",
          "name": "amount",
          "type": "uint256"
        }
      ],
      "name": "WithdrewStake",
      "type": "event"
    },
    {
      "inputs": [],
      "name": "MAX_CANDIDATES",
      "outputs": [
        {
          "internalType": "uint256",
          "name": "",
          "type": "uint256"
        }
      ],
      "stateMutability": "view",
      "type": "function"
    },
    {
      "inputs": [
        {
          "internalType": "address",
          "name": "",
          "type": "address"
        }
      ],
      "name": "abandonedAndRemoved",
      "outputs": [
        {
          "internalType": "bool",
          "name": "",
          "type": "bool"
        }
      ],
      "stateMutability": "view",
      "type": "function"
    },
    {
      "inputs": [
        {
          "internalType": "address",
          "name": "_miningAddress",
          "type": "address"
        },
        {
          "internalType": "bytes",
          "name": "_publicKey",
          "type": "bytes"
        },
        {
          "internalType": "bytes16",
          "name": "_ip",
          "type": "bytes16"
        }
      ],
      "name": "addPool",
      "outputs": [],
      "stateMutability": "payable",
      "type": "function"
    },
    {
      "inputs": [
        {
          "internalType": "address",
          "name": "_stakingAddress",
          "type": "address"
        }
      ],
      "name": "addPoolActiveMock",
      "outputs": [],
      "stateMutability": "nonpayable",
      "type": "function"
    },
    {
      "inputs": [
        {
          "internalType": "address",
          "name": "_stakingAddress",
          "type": "address"
        }
      ],
      "name": "addPoolInactiveMock",
      "outputs": [],
      "stateMutability": "nonpayable",
      "type": "function"
    },
    {
      "inputs": [],
      "name": "areStakeAndWithdrawAllowed",
      "outputs": [
        {
          "internalType": "bool",
          "name": "",
          "type": "bool"
        }
      ],
      "stateMutability": "view",
      "type": "function"
    },
    {
      "inputs": [],
      "name": "blockRewardHbbft",
      "outputs": [
        {
          "internalType": "contract IBlockRewardHbbft",
          "name": "",
          "type": "address"
        }
      ],
      "stateMutability": "view",
      "type": "function"
    },
    {
      "inputs": [],
      "name": "candidateMinStake",
      "outputs": [
        {
          "internalType": "uint256",
          "name": "",
          "type": "uint256"
        }
      ],
      "stateMutability": "view",
      "type": "function"
    },
    {
      "inputs": [
        {
          "internalType": "address",
          "name": "_poolStakingAddress",
          "type": "address"
        }
      ],
      "name": "claimOrderedWithdraw",
      "outputs": [],
      "stateMutability": "nonpayable",
      "type": "function"
    },
    {
      "inputs": [
        {
          "internalType": "uint256[]",
          "name": "_stakingEpochs",
          "type": "uint256[]"
        },
        {
          "internalType": "address",
          "name": "_poolStakingAddress",
          "type": "address"
        }
      ],
      "name": "claimReward",
      "outputs": [],
      "stateMutability": "nonpayable",
      "type": "function"
    },
    {
      "inputs": [
        {
          "internalType": "address",
          "name": "_poolStakingAddress",
          "type": "address"
        },
        {
          "internalType": "address",
          "name": "_delegator",
          "type": "address"
        },
        {
          "internalType": "uint256",
          "name": "_stakingEpoch",
          "type": "uint256"
        }
      ],
      "name": "clearDelegatorStakeSnapshot",
      "outputs": [],
      "stateMutability": "nonpayable",
      "type": "function"
    },
    {
      "inputs": [
        {
          "internalType": "address",
          "name": "_poolStakingAddress",
          "type": "address"
        },
        {
          "internalType": "address",
          "name": "_staker",
          "type": "address"
        },
        {
          "internalType": "uint256",
          "name": "_epoch",
          "type": "uint256"
        }
      ],
      "name": "clearRewardWasTaken",
      "outputs": [],
      "stateMutability": "nonpayable",
      "type": "function"
    },
    {
      "inputs": [],
      "name": "currentKeyGenExtraTimeWindow",
      "outputs": [
        {
          "internalType": "uint256",
          "name": "",
          "type": "uint256"
        }
      ],
      "stateMutability": "view",
      "type": "function"
    },
    {
      "inputs": [],
      "name": "delegatorMinStake",
      "outputs": [
        {
          "internalType": "uint256",
          "name": "",
          "type": "uint256"
        }
      ],
      "stateMutability": "view",
      "type": "function"
    },
    {
      "inputs": [
        {
          "internalType": "address",
          "name": "",
          "type": "address"
        },
        {
          "internalType": "address",
          "name": "",
          "type": "address"
        },
        {
          "internalType": "uint256",
          "name": "",
          "type": "uint256"
        }
      ],
      "name": "delegatorStakeSnapshot",
      "outputs": [
        {
          "internalType": "uint256",
          "name": "",
          "type": "uint256"
        }
      ],
      "stateMutability": "view",
      "type": "function"
    },
    {
      "inputs": [
        {
          "internalType": "address",
          "name": "_poolAddress",
          "type": "address"
        }
      ],
      "name": "getPoolInternetAddress",
      "outputs": [
        {
          "internalType": "bytes16",
          "name": "",
          "type": "bytes16"
        },
        {
          "internalType": "bytes2",
          "name": "",
          "type": "bytes2"
        }
      ],
      "stateMutability": "view",
      "type": "function"
    },
    {
      "inputs": [
        {
          "internalType": "address",
          "name": "_poolAddress",
          "type": "address"
        }
      ],
      "name": "getPoolPublicKey",
      "outputs": [
        {
          "internalType": "bytes",
          "name": "",
          "type": "bytes"
        }
      ],
      "stateMutability": "view",
      "type": "function"
    },
    {
      "inputs": [],
      "name": "getPools",
      "outputs": [
        {
          "internalType": "address[]",
          "name": "",
          "type": "address[]"
        }
      ],
      "stateMutability": "view",
      "type": "function"
    },
    {
      "inputs": [],
      "name": "getPoolsInactive",
      "outputs": [
        {
          "internalType": "address[]",
          "name": "",
          "type": "address[]"
        }
      ],
      "stateMutability": "view",
      "type": "function"
    },
    {
      "inputs": [],
      "name": "getPoolsLikelihood",
      "outputs": [
        {
          "internalType": "uint256[]",
          "name": "likelihoods",
          "type": "uint256[]"
        },
        {
          "internalType": "uint256",
          "name": "sum",
          "type": "uint256"
        }
      ],
      "stateMutability": "view",
      "type": "function"
    },
    {
      "inputs": [],
      "name": "getPoolsToBeElected",
      "outputs": [
        {
          "internalType": "address[]",
          "name": "",
          "type": "address[]"
        }
      ],
      "stateMutability": "view",
      "type": "function"
    },
    {
      "inputs": [],
      "name": "getPoolsToBeRemoved",
      "outputs": [
        {
          "internalType": "address[]",
          "name": "",
          "type": "address[]"
        }
      ],
      "stateMutability": "view",
      "type": "function"
    },
    {
      "inputs": [
        {
          "internalType": "uint256[]",
          "name": "_stakingEpochs",
          "type": "uint256[]"
        },
        {
          "internalType": "address",
          "name": "_poolStakingAddress",
          "type": "address"
        },
        {
          "internalType": "address",
          "name": "_staker",
          "type": "address"
        }
      ],
      "name": "getRewardAmount",
      "outputs": [
        {
          "internalType": "uint256",
          "name": "",
          "type": "uint256"
        }
      ],
      "stateMutability": "view",
      "type": "function"
    },
    {
      "inputs": [],
      "name": "incrementStakingEpoch",
      "outputs": [],
      "stateMutability": "nonpayable",
      "type": "function"
    },
    {
      "inputs": [
        {
          "components": [
            {
              "internalType": "address",
              "name": "_validatorSetContract",
              "type": "address"
            },
            {
              "internalType": "address[]",
              "name": "_initialStakingAddresses",
              "type": "address[]"
            },
            {
              "internalType": "uint256",
              "name": "_delegatorMinStake",
              "type": "uint256"
            },
            {
              "internalType": "uint256",
              "name": "_candidateMinStake",
              "type": "uint256"
            },
            {
              "internalType": "uint256",
              "name": "_maxStake",
              "type": "uint256"
            },
            {
              "internalType": "uint256",
              "name": "_stakingFixedEpochDuration",
              "type": "uint256"
            },
            {
              "internalType": "uint256",
              "name": "_stakingTransitionTimeframeLength",
              "type": "uint256"
            },
            {
              "internalType": "uint256",
              "name": "_stakingWithdrawDisallowPeriod",
              "type": "uint256"
            }
          ],
          "internalType": "struct IStakingHbbft.StakingParams",
          "name": "stakingParams",
          "type": "tuple"
        },
        {
          "internalType": "bytes32[]",
          "name": "_publicKeys",
          "type": "bytes32[]"
        },
        {
          "internalType": "bytes16[]",
          "name": "_internetAddresses",
          "type": "bytes16[]"
        }
      ],
      "name": "initialize",
      "outputs": [],
      "stateMutability": "nonpayable",
      "type": "function"
    },
    {
      "inputs": [],
      "name": "isInitialized",
      "outputs": [
        {
          "internalType": "bool",
          "name": "",
          "type": "bool"
        }
      ],
      "stateMutability": "view",
      "type": "function"
    },
    {
      "inputs": [
        {
          "internalType": "address",
          "name": "_stakingAddress",
          "type": "address"
        }
      ],
      "name": "isPoolActive",
      "outputs": [
        {
          "internalType": "bool",
          "name": "",
          "type": "bool"
        }
      ],
      "stateMutability": "view",
      "type": "function"
    },
    {
      "inputs": [],
      "name": "maxStakeAmount",
      "outputs": [
        {
          "internalType": "uint256",
          "name": "",
          "type": "uint256"
        }
      ],
      "stateMutability": "view",
      "type": "function"
    },
    {
      "inputs": [
        {
          "internalType": "address",
          "name": "_poolStakingAddress",
          "type": "address"
        },
        {
          "internalType": "address",
          "name": "_staker",
          "type": "address"
        }
      ],
      "name": "maxWithdrawAllowed",
      "outputs": [
        {
          "internalType": "uint256",
          "name": "",
          "type": "uint256"
        }
      ],
      "stateMutability": "view",
      "type": "function"
    },
    {
      "inputs": [
        {
          "internalType": "address",
          "name": "_poolStakingAddress",
          "type": "address"
        },
        {
          "internalType": "address",
          "name": "_staker",
          "type": "address"
        }
      ],
      "name": "maxWithdrawOrderAllowed",
      "outputs": [
        {
          "internalType": "uint256",
          "name": "",
          "type": "uint256"
        }
      ],
      "stateMutability": "view",
      "type": "function"
    },
    {
      "inputs": [
        {
          "internalType": "address",
          "name": "_fromPoolStakingAddress",
          "type": "address"
        },
        {
          "internalType": "address",
          "name": "_toPoolStakingAddress",
          "type": "address"
        },
        {
          "internalType": "uint256",
          "name": "_amount",
          "type": "uint256"
        }
      ],
      "name": "moveStake",
      "outputs": [],
      "stateMutability": "nonpayable",
      "type": "function"
    },
    {
      "inputs": [
        {
          "internalType": "address",
          "name": "_stakingAddress",
          "type": "address"
        }
      ],
      "name": "notifyAvailability",
      "outputs": [],
      "stateMutability": "nonpayable",
      "type": "function"
    },
    {
      "inputs": [],
      "name": "notifyKeyGenFailed",
      "outputs": [],
      "stateMutability": "nonpayable",
      "type": "function"
    },
    {
      "inputs": [
        {
          "internalType": "uint256",
          "name": "detectedOfflineTime",
          "type": "uint256"
        }
      ],
      "name": "notifyNetworkOfftimeDetected",
      "outputs": [],
      "stateMutability": "nonpayable",
      "type": "function"
    },
    {
      "inputs": [
        {
          "internalType": "address",
          "name": "_poolStakingAddress",
          "type": "address"
        },
        {
          "internalType": "int256",
          "name": "_amount",
          "type": "int256"
        }
      ],
      "name": "orderWithdraw",
      "outputs": [],
      "stateMutability": "nonpayable",
      "type": "function"
    },
    {
      "inputs": [
        {
          "internalType": "address",
          "name": "",
          "type": "address"
        },
        {
          "internalType": "address",
          "name": "",
          "type": "address"
        }
      ],
      "name": "orderWithdrawEpoch",
      "outputs": [
        {
          "internalType": "uint256",
          "name": "",
          "type": "uint256"
        }
      ],
      "stateMutability": "view",
      "type": "function"
    },
    {
      "inputs": [
        {
          "internalType": "address",
          "name": "",
          "type": "address"
        },
        {
          "internalType": "address",
          "name": "",
          "type": "address"
        }
      ],
      "name": "orderedWithdrawAmount",
      "outputs": [
        {
          "internalType": "uint256",
          "name": "",
          "type": "uint256"
        }
      ],
      "stateMutability": "view",
      "type": "function"
    },
    {
      "inputs": [
        {
          "internalType": "address",
          "name": "",
          "type": "address"
        }
      ],
      "name": "orderedWithdrawAmountTotal",
      "outputs": [
        {
          "internalType": "uint256",
          "name": "",
          "type": "uint256"
        }
      ],
      "stateMutability": "view",
      "type": "function"
    },
    {
      "inputs": [
        {
          "internalType": "address",
          "name": "",
          "type": "address"
        },
        {
          "internalType": "address",
          "name": "",
          "type": "address"
        }
      ],
      "name": "poolDelegatorInactiveIndex",
      "outputs": [
        {
          "internalType": "uint256",
          "name": "",
          "type": "uint256"
        }
      ],
      "stateMutability": "view",
      "type": "function"
    },
    {
      "inputs": [
        {
          "internalType": "address",
          "name": "",
          "type": "address"
        },
        {
          "internalType": "address",
          "name": "",
          "type": "address"
        }
      ],
      "name": "poolDelegatorIndex",
      "outputs": [
        {
          "internalType": "uint256",
          "name": "",
          "type": "uint256"
        }
      ],
      "stateMutability": "view",
      "type": "function"
    },
    {
      "inputs": [
        {
          "internalType": "address",
          "name": "_poolStakingAddress",
          "type": "address"
        }
      ],
      "name": "poolDelegators",
      "outputs": [
        {
          "internalType": "address[]",
          "name": "",
          "type": "address[]"
        }
      ],
      "stateMutability": "view",
      "type": "function"
    },
    {
      "inputs": [
        {
          "internalType": "address",
          "name": "_poolStakingAddress",
          "type": "address"
        }
      ],
      "name": "poolDelegatorsInactive",
      "outputs": [
        {
          "internalType": "address[]",
          "name": "",
          "type": "address[]"
        }
      ],
      "stateMutability": "view",
      "type": "function"
    },
    {
      "inputs": [
        {
          "internalType": "address",
          "name": "",
          "type": "address"
        }
      ],
      "name": "poolInactiveIndex",
      "outputs": [
        {
          "internalType": "uint256",
          "name": "",
          "type": "uint256"
        }
      ],
      "stateMutability": "view",
      "type": "function"
    },
    {
      "inputs": [
        {
          "internalType": "address",
          "name": "",
          "type": "address"
        }
      ],
      "name": "poolIndex",
      "outputs": [
        {
          "internalType": "uint256",
          "name": "",
          "type": "uint256"
        }
      ],
      "stateMutability": "view",
      "type": "function"
    },
    {
      "inputs": [
        {
          "internalType": "address",
          "name": "",
          "type": "address"
        }
      ],
      "name": "poolInfo",
      "outputs": [
        {
          "internalType": "bytes",
          "name": "publicKey",
          "type": "bytes"
        },
        {
          "internalType": "bytes16",
          "name": "internetAddress",
          "type": "bytes16"
        },
        {
          "internalType": "bytes2",
          "name": "port",
          "type": "bytes2"
        }
      ],
      "stateMutability": "view",
      "type": "function"
    },
    {
      "inputs": [
        {
          "internalType": "address",
          "name": "",
          "type": "address"
        }
      ],
      "name": "poolToBeElectedIndex",
      "outputs": [
        {
          "internalType": "uint256",
          "name": "",
          "type": "uint256"
        }
      ],
      "stateMutability": "view",
      "type": "function"
    },
    {
      "inputs": [
        {
          "internalType": "address",
          "name": "",
          "type": "address"
        }
      ],
      "name": "poolToBeRemovedIndex",
      "outputs": [
        {
          "internalType": "uint256",
          "name": "",
          "type": "uint256"
        }
      ],
      "stateMutability": "view",
      "type": "function"
    },
    {
      "inputs": [],
      "name": "recoverAbandonedStakes",
      "outputs": [],
      "stateMutability": "nonpayable",
      "type": "function"
    },
    {
      "inputs": [],
      "name": "removeMyPool",
      "outputs": [],
      "stateMutability": "nonpayable",
      "type": "function"
    },
    {
      "inputs": [
        {
          "internalType": "address",
          "name": "_stakingAddress",
          "type": "address"
        }
      ],
      "name": "removePool",
      "outputs": [],
      "stateMutability": "nonpayable",
      "type": "function"
    },
    {
      "inputs": [],
      "name": "removePools",
      "outputs": [],
      "stateMutability": "nonpayable",
      "type": "function"
    },
    {
      "inputs": [
        {
          "internalType": "address",
          "name": "",
          "type": "address"
        },
        {
          "internalType": "address",
          "name": "",
          "type": "address"
        },
        {
          "internalType": "uint256",
          "name": "",
          "type": "uint256"
        }
      ],
      "name": "rewardWasTaken",
      "outputs": [
        {
          "internalType": "bool",
          "name": "",
          "type": "bool"
        }
      ],
      "stateMutability": "view",
      "type": "function"
    },
    {
      "inputs": [
        {
          "internalType": "uint256",
          "name": "_minStake",
          "type": "uint256"
        }
      ],
      "name": "setCandidateMinStake",
      "outputs": [],
      "stateMutability": "nonpayable",
      "type": "function"
    },
    {
      "inputs": [
        {
          "internalType": "uint256",
          "name": "_minStake",
          "type": "uint256"
        }
      ],
      "name": "setDelegatorMinStake",
      "outputs": [],
      "stateMutability": "nonpayable",
      "type": "function"
    },
    {
      "inputs": [
        {
          "internalType": "bytes",
          "name": "_publicKey",
          "type": "bytes"
        },
        {
          "internalType": "bytes16",
          "name": "_ip",
          "type": "bytes16"
        },
        {
          "internalType": "bytes2",
          "name": "_port",
          "type": "bytes2"
        }
      ],
      "name": "setPoolInfo",
      "outputs": [],
      "stateMutability": "nonpayable",
      "type": "function"
    },
    {
      "inputs": [
        {
          "internalType": "address",
          "name": "_poolStakingAddress",
          "type": "address"
        },
        {
          "internalType": "uint256",
          "name": "_amount",
          "type": "uint256"
        }
      ],
      "name": "setStakeAmountTotal",
      "outputs": [],
      "stateMutability": "nonpayable",
      "type": "function"
    },
    {
      "inputs": [
        {
          "internalType": "address",
          "name": "_poolStakingAddress",
          "type": "address"
        },
        {
          "internalType": "address",
          "name": "_delegator",
          "type": "address"
        },
        {
          "internalType": "uint256",
          "name": "_value",
          "type": "uint256"
        }
      ],
      "name": "setStakeFirstEpoch",
      "outputs": [],
      "stateMutability": "nonpayable",
      "type": "function"
    },
    {
      "inputs": [
        {
          "internalType": "address",
          "name": "_poolStakingAddress",
          "type": "address"
        },
        {
          "internalType": "address",
          "name": "_delegator",
          "type": "address"
        },
        {
          "internalType": "uint256",
          "name": "_value",
          "type": "uint256"
        }
      ],
      "name": "setStakeLastEpoch",
      "outputs": [],
      "stateMutability": "nonpayable",
      "type": "function"
    },
    {
      "inputs": [
        {
          "internalType": "uint256",
          "name": "_stakingEpoch",
          "type": "uint256"
        }
      ],
      "name": "setStakingEpoch",
      "outputs": [],
      "stateMutability": "nonpayable",
      "type": "function"
    },
    {
      "inputs": [
        {
          "internalType": "uint256",
          "name": "_timestamp",
          "type": "uint256"
        }
      ],
      "name": "setStakingEpochStartTime",
      "outputs": [],
      "stateMutability": "nonpayable",
      "type": "function"
    },
    {
      "inputs": [
        {
          "internalType": "address",
          "name": "_validatorAddress",
          "type": "address"
        },
        {
          "internalType": "bytes16",
          "name": "_ip",
          "type": "bytes16"
        },
        {
          "internalType": "bytes2",
          "name": "_port",
          "type": "bytes2"
        }
      ],
      "name": "setValidatorInternetAddress",
      "outputs": [],
      "stateMutability": "nonpayable",
      "type": "function"
    },
    {
      "inputs": [
        {
          "internalType": "contract IValidatorSetHbbft",
          "name": "_validatorSetAddress",
          "type": "address"
        }
      ],
      "name": "setValidatorMockSetAddress",
      "outputs": [],
      "stateMutability": "nonpayable",
      "type": "function"
    },
    {
      "inputs": [
        {
          "internalType": "contract IValidatorSetHbbft",
          "name": "_validatorSetAddress",
          "type": "address"
        }
      ],
      "name": "setValidatorSetAddress",
      "outputs": [],
      "stateMutability": "nonpayable",
      "type": "function"
    },
    {
      "inputs": [
        {
          "internalType": "address",
          "name": "_toPoolStakingAddress",
          "type": "address"
        }
      ],
      "name": "stake",
      "outputs": [],
      "stateMutability": "payable",
      "type": "function"
    },
    {
      "inputs": [
        {
          "internalType": "address",
          "name": "",
          "type": "address"
        },
        {
          "internalType": "address",
          "name": "",
          "type": "address"
        }
      ],
      "name": "stakeAmount",
      "outputs": [
        {
          "internalType": "uint256",
          "name": "",
          "type": "uint256"
        }
      ],
      "stateMutability": "view",
      "type": "function"
    },
    {
      "inputs": [
        {
          "internalType": "address",
          "name": "_poolStakingAddress",
          "type": "address"
        },
        {
          "internalType": "address",
          "name": "_staker",
          "type": "address"
        }
      ],
      "name": "stakeAmountByCurrentEpoch",
      "outputs": [
        {
          "internalType": "uint256",
          "name": "",
          "type": "uint256"
        }
      ],
      "stateMutability": "view",
      "type": "function"
    },
    {
      "inputs": [
        {
          "internalType": "address",
          "name": "",
          "type": "address"
        }
      ],
      "name": "stakeAmountTotal",
      "outputs": [
        {
          "internalType": "uint256",
          "name": "",
          "type": "uint256"
        }
      ],
      "stateMutability": "view",
      "type": "function"
    },
    {
      "inputs": [
        {
          "internalType": "address",
          "name": "",
          "type": "address"
        },
        {
          "internalType": "address",
          "name": "",
          "type": "address"
        }
      ],
      "name": "stakeFirstEpoch",
      "outputs": [
        {
          "internalType": "uint256",
          "name": "",
          "type": "uint256"
        }
      ],
      "stateMutability": "view",
      "type": "function"
    },
    {
      "inputs": [
        {
          "internalType": "address",
          "name": "",
          "type": "address"
        },
        {
          "internalType": "address",
          "name": "",
          "type": "address"
        }
      ],
      "name": "stakeLastEpoch",
      "outputs": [
        {
          "internalType": "uint256",
          "name": "",
          "type": "uint256"
        }
      ],
      "stateMutability": "view",
      "type": "function"
    },
    {
      "inputs": [],
      "name": "stakingEpoch",
      "outputs": [
        {
          "internalType": "uint256",
          "name": "",
          "type": "uint256"
        }
      ],
      "stateMutability": "view",
      "type": "function"
    },
    {
      "inputs": [],
      "name": "stakingEpochStartBlock",
      "outputs": [
        {
          "internalType": "uint256",
          "name": "",
          "type": "uint256"
        }
      ],
      "stateMutability": "view",
      "type": "function"
    },
    {
      "inputs": [],
      "name": "stakingEpochStartTime",
      "outputs": [
        {
          "internalType": "uint256",
          "name": "",
          "type": "uint256"
        }
      ],
      "stateMutability": "view",
      "type": "function"
    },
    {
      "inputs": [],
      "name": "stakingFixedEpochDuration",
      "outputs": [
        {
          "internalType": "uint256",
          "name": "",
          "type": "uint256"
        }
      ],
      "stateMutability": "view",
      "type": "function"
    },
    {
      "inputs": [],
      "name": "stakingFixedEpochEndTime",
      "outputs": [
        {
          "internalType": "uint256",
          "name": "",
          "type": "uint256"
        }
      ],
      "stateMutability": "view",
      "type": "function"
    },
    {
      "inputs": [],
      "name": "stakingTransitionTimeframeLength",
      "outputs": [
        {
          "internalType": "uint256",
          "name": "",
          "type": "uint256"
        }
      ],
      "stateMutability": "view",
      "type": "function"
    },
    {
      "inputs": [],
      "name": "stakingWithdrawDisallowPeriod",
      "outputs": [
        {
          "internalType": "uint256",
          "name": "",
          "type": "uint256"
        }
      ],
      "stateMutability": "view",
      "type": "function"
    },
    {
      "inputs": [],
      "name": "startTimeOfNextPhaseTransition",
      "outputs": [
        {
          "internalType": "uint256",
          "name": "",
          "type": "uint256"
        }
      ],
      "stateMutability": "view",
      "type": "function"
    },
    {
      "inputs": [],
      "name": "validatorSetContract",
      "outputs": [
        {
          "internalType": "contract IValidatorSetHbbft",
          "name": "",
          "type": "address"
        }
      ],
      "stateMutability": "view",
      "type": "function"
    },
    {
      "inputs": [
        {
          "internalType": "address",
          "name": "_fromPoolStakingAddress",
          "type": "address"
        },
        {
          "internalType": "uint256",
          "name": "_amount",
          "type": "uint256"
        }
      ],
      "name": "withdraw",
      "outputs": [],
      "stateMutability": "nonpayable",
      "type": "function"
    },
    {
      "stateMutability": "payable",
      "type": "receive"
    }
  ],
  "bytecode": "0x608060405234801561001057600080fd5b506178dc80620000216000396000f3fe608060405260043610620005c95760003560e01c80638247a2391162000303578063c6912cc01162000197578063eb3efa1611620000e7578063f3fef3a31162000095578063fa4aaf471162000078578063fa4aaf4714620012e6578063fb367a9b1462001317578063ffada862146200133c57600080fd5b8063f3fef3a314620012ab578063f494250114620012d057600080fd5b8063edf94b8211620000ca578063edf94b82146200124a578063ee435f55146200127b578063f0786096146200129357600080fd5b8063eb3efa1614620011f1578063edd7db75146200123257600080fd5b8063df6f55f51162000145578063e2a43cd91162000128578063e2a43cd9146200113a578063e5b1d5931462001174578063e9ab030014620011b557600080fd5b8063df6f55f51462001100578063dfc8bf4e146200111857600080fd5b8063d290c21d116200017a578063d290c21d146200109f578063da7a9b6a14620010b7578063dadee88a14620010cf57600080fd5b8063c6912cc01462001062578063cfef1441146200107a57600080fd5b8063a5d54f651162000253578063b42754a51162000201578063b6bbbcea11620001e4578063b6bbbcea1462000fa0578063bc9eb2c31462000fdb578063bd30d31d146200101757600080fd5b8063b42754a51462000f4a578063b61ed63a1462000f7b57600080fd5b8063a711e6a11162000236578063a711e6a11462000ef5578063adddc0cf1462000f1a578063ae1aaf801462000f3257600080fd5b8063a5d54f651462000ea1578063a697ecff1462000eb957600080fd5b80639a7b5f1111620002b15780639e72c63511620002945780639e72c6351462000e1b5780639ea8082b1462000e40578063a42059671462000e6557600080fd5b80639a7b5f111462000dcd5780639b03d7441462000e0357600080fd5b8063950a651311620002e6578063950a65131462000d445780639518c4811462000d69578063957950a71462000da557600080fd5b80638247a2391462000cfa578063862be2871462000d1f57600080fd5b80634e9b426d116200047b5780636511391811620003cb57806373c218031162000379578063794c0c68116200035c578063794c0c681462000c985780637b0a0f9b1462000cb05780637b15b94c1462000cd557600080fd5b806373c218031462000c1f578063750dd2a11462000c4457600080fd5b80636bda157711620003ae5780636bda15771462000b8b5780636eda21dc1462000bb05780637069e7461462000c0757600080fd5b8063651139181462000b33578063673a2a1f1462000b6457600080fd5b80635ca2b65011620004295780635fef7643116200040c5780635fef76431462000aab578063611d760c1462000ac3578063642131471462000ae857600080fd5b80635ca2b6501462000a6f5780635d80ca321462000a9357600080fd5b80635267e1d6116200045e5780635267e1d614620009ec5780635659b7421462000a1c57806356e4d6c21462000a5857600080fd5b80634e9b426d14620009a05780634f9a8d8f14620009d457600080fd5b80632bafde8d1162000537578063392e53cd11620004e55780633ea15d6211620004c85780633ea15d62146200093157806348aaa4a214620009565780634cf83f9c146200097b57600080fd5b8063392e53cd14620008ea5780633b7d0946146200090c57600080fd5b80633219d600116200051a5780633219d60014620008865780633715426314620008ba578063379b046a14620008d257600080fd5b80632bafde8d146200080b57806331727730146200083057600080fd5b80631555371c116200059557806322e3d986116200057857806322e3d98614620007b7578063251441a914620007cf5780632647620414620007f457600080fd5b80631555371c146200071e5780631fb31e43146200073657600080fd5b80622ceebc1462000621578063028b8bdb146200067657806303a81065146200068e5780630868c0d614620006e257600080fd5b366200061c5760405162461bcd60e51b815260206004820152600b60248201527f4e6f742070617961626c6500000000000000000000000000000000000000000060448201526064015b60405180910390fd5b600080fd5b3480156200062e57600080fd5b50620006636200064036600462006d87565b600b60209081526000938452604080852082529284528284209052825290205481565b6040519081526020015b60405180910390f35b3480156200068357600080fd5b506200066360195481565b3480156200069b57600080fd5b50620006e0620006ad36600462006d87565b6001600160a01b039283166000908152600b60209081526040808320949095168252928352838120918152915290812055565b005b348015620006ef57600080fd5b50620006636200070136600462006dcd565b600f60209081526000928352604080842090915290825290205481565b3480156200072b57600080fd5b50620006e062001361565b3480156200074357600080fd5b50620007846200075536600462006e0b565b6001600160a01b0316600090815260226020526040902060010154608081901b91600160801b90910460f01b90565b604080516fffffffffffffffffffffffffffffffff1990931683526001600160f01b03199091166020830152016200066d565b348015620007c457600080fd5b506200066362001475565b348015620007dc57600080fd5b50620006e0620007ee36600462006d87565b620014c4565b620006e06200080536600462006e0b565b62001653565b3480156200081857600080fd5b50620006e06200082a36600462006e2b565b620016a9565b3480156200083d57600080fd5b50620008756200084f36600462006d87565b601560209081526000938452604080852082529284528284209052825290205460ff1681565b60405190151581526020016200066d565b3480156200089357600080fd5b5062000875620008a536600462006e0b565b60256020526000908152604090205460ff1681565b348015620008c757600080fd5b50620006e06200179b565b348015620008df57600080fd5b5062000663601f5481565b348015620008f757600080fd5b506021546001600160a01b0316151562000875565b3480156200091957600080fd5b50620006e06200092b36600462006e0b565b62001c35565b3480156200093e57600080fd5b50620006e06200095036600462006f29565b62001ca9565b3480156200096357600080fd5b50620006e06200097536600462006e2b565b62002389565b3480156200098857600080fd5b50620006e06200099a36600462006fc5565b6200247b565b348015620009ad57600080fd5b50620009c5620009bf36600462006e0b565b620027fe565b6040516200066d9190620070b4565b348015620009e157600080fd5b5062000663601b5481565b348015620009f957600080fd5b506200066362000a0b36600462006e0b565b602080526000908152604090205481565b34801562000a2957600080fd5b506200066362000a3b36600462006dcd565b601760209081526000928352604080842090915290825290205481565b620006e062000a6936600462007135565b620028b2565b34801562000a7c57600080fd5b50620006e062000a8e36600462006e2b565b601a55565b34801562000aa057600080fd5b506200066360235481565b34801562000ab857600080fd5b506200066360095481565b34801562000ad057600080fd5b50620006e062000ae236600462006e0b565b620029d3565b34801562000af557600080fd5b50620006e062000b0736600462006d87565b6001600160a01b0392831660009081526018602090815260408083209490951682529290925291902055565b34801562000b4057600080fd5b506200066362000b5236600462006e0b565b60116020526000908152604090205481565b34801562000b7157600080fd5b5062000b7c620029e0565b6040516200066d9190620071a4565b34801562000b9857600080fd5b506200066362000baa36600462006dcd565b62002a44565b34801562000bbd57600080fd5b50620006e062000bcf36600462006d87565b6001600160a01b039283166000908152601560209081526040808320949095168252928352838120918152915220805460ff19169055565b34801562000c1457600080fd5b5062000663601e5481565b34801562000c2c57600080fd5b5062000b7c62000c3e36600462006e0b565b62002bfb565b34801562000c5157600080fd5b506200066362000c6336600462006dcd565b6001600160a01b039182166000908152600860209081526040808320939094168252918252828120601a548252909152205490565b34801562000ca557600080fd5b5062000663601a5481565b34801562000cbd57600080fd5b50620006e062000ccf3660046200720c565b62002c72565b34801562000ce257600080fd5b50620006e062000cf436600462006e0b565b62002d2b565b34801562000d0757600080fd5b50620006e062000d1936600462006e2b565b62002dd3565b34801562000d2c57600080fd5b50620006e062000d3e36600462007258565b62002e42565b34801562000d5157600080fd5b506200066362000d6336600462006dcd565b62002ea7565b34801562000d7657600080fd5b506200066362000d8836600462006dcd565b601060209081526000928352604080842090915290825290205481565b34801562000db257600080fd5b5062000dbd6200302a565b6040516200066d929190620072ba565b34801562000dda57600080fd5b5062000df262000dec36600462006e0b565b6200308f565b6040516200066d9392919062007304565b34801562000e1057600080fd5b5062000663601d5481565b34801562000e2857600080fd5b50620006e062000e3a36600462006e2b565b6200314b565b34801562000e4d57600080fd5b5062000b7c62000e5f36600462006e0b565b620031d6565b34801562000e7257600080fd5b506200066362000e8436600462006dcd565b600e60209081526000928352604080842090915290825290205481565b34801562000eae57600080fd5b5062000b7c6200324c565b34801562000ec657600080fd5b506200066362000ed836600462006dcd565b601660209081526000928352604080842090915290825290205481565b34801562000f0257600080fd5b506200087562000f1436600462006e0b565b620032ae565b34801562000f2757600080fd5b50620006e062003311565b34801562000f3f57600080fd5b5062000663601c5481565b34801562000f5757600080fd5b506200066362000f6936600462006e0b565b60126020526000908152604090205481565b34801562000f8857600080fd5b50620006e062000f9a3660046200734d565b62003394565b34801562000fad57600080fd5b5060245462000fc2906001600160a01b031681565b6040516001600160a01b0390911681526020016200066d565b34801562000fe857600080fd5b506200066362000ffa36600462006dcd565b601860209081526000928352604080842090915290825290205481565b3480156200102457600080fd5b50620006e06200103636600462006d87565b6001600160a01b0392831660009081526017602090815260408083209490951682529290925291902055565b3480156200106f57600080fd5b5062000663620039ac565b3480156200108757600080fd5b50620006e06200109936600462006e0b565b620039d4565b348015620010ac57600080fd5b5062000b7c62003d6e565b348015620010c457600080fd5b5062000663600a5481565b348015620010dc57600080fd5b5062000663620010ee36600462006e0b565b600d6020526000908152604090205481565b3480156200110d57600080fd5b5062000b7c62003dd0565b3480156200112557600080fd5b5060215462000fc2906001600160a01b031681565b3480156200114757600080fd5b50620006e0620011593660046200734d565b6001600160a01b039091166000908152602080526040902055565b3480156200118157600080fd5b50620006e06200119336600462006e0b565b602680546001600160a01b0319166001600160a01b0392909216919091179055565b348015620011c257600080fd5b5062000663620011d436600462006dcd565b600c60209081526000928352604080842090915290825290205481565b348015620011fe57600080fd5b50620006e06200121036600462006e0b565b602180546001600160a01b0319166001600160a01b0392909216919091179055565b3480156200123f57600080fd5b50620006e062003e32565b3480156200125757600080fd5b50620006636200126936600462006e0b565b60146020526000908152604090205481565b3480156200128857600080fd5b50620006e06200403d565b348015620012a057600080fd5b5062000663610bb881565b348015620012b857600080fd5b50620006e0620012ca3660046200734d565b620040c1565b348015620012dd57600080fd5b50600162000875565b348015620012f357600080fd5b50620006636200130536600462006e0b565b60136020526000908152604090205481565b3480156200132457600080fd5b5062000663620013363660046200737c565b620041bb565b3480156200134957600080fd5b50620006e06200135b36600462006e0b565b62004730565b6021546001600160a01b03163314806200138557506026546001600160a01b031633145b620013c75760405162461bcd60e51b815260206004820152601160248201527013db9b1e4815985b1a59185d1bdc94d95d607a1b604482015260640162000613565b600060038054806020026020016040519081016040528092919081815260200182805480156200142157602002820191906000526020600020905b81546001600160a01b0316815260019091019060200180831162001402575b5050505050905060005b815181101562001471576200145c8282815181106200144e576200144e620073e8565b60200260200101516200473b565b80620014688162007414565b9150506200142b565b5050565b601d54601b5460009190156200148d57600162001490565b60005b60ff16601f54601b5483620014a6919062007430565b620014b2919062007430565b620014be919062007446565b91505090565b3a600003620015065760405162461bcd60e51b815260206004820152600d60248201526c04761735072696365206973203609c1b604482015260640162000613565b6021546001600160a01b03166200155b5760405162461bcd60e51b815260206004820152601860248201527710dbdb9d1c9858dd081b9bdd081a5b9a5d1a585b1a5e995960421b604482015260640162000613565b816001600160a01b0316836001600160a01b031603620015e45760405162461bcd60e51b815260206004820152602760248201527f4d6f76655374616b653a2073726320616e642064737420706f6f6c206973207460448201527f68652073616d6500000000000000000000000000000000000000000000000000606482015260840162000613565b33620015f2848284620048b1565b620015ff83828462004c01565b601a54604080516001600160a01b0387811682526020820186905280851692908716917f4480d8e4b1e9095b94bf513961d26fe1d32386ebdd103d18fe8738cf4b2223ff910160405180910390a450505050565b3a600003620016955760405162461bcd60e51b815260206004820152600d60248201526c04761735072696365206973203609c1b604482015260640162000613565b3334620016a483838362004c01565b505050565b7fb53127684a568b3173ae13b9f8a6016e243e63b6e8ee1178d6a717850b5d6103546001600160a01b0316336001600160a01b031614620017415760405162461bcd60e51b815260206004820152602b60248201527f6f6e6c792061646d696e20697320616c6c6f77656420746f2063616c6c20746860448201526a34b990333ab731ba34b7b760a91b606482015260840162000613565b6021546001600160a01b0316620017965760405162461bcd60e51b815260206004820152601860248201527710dbdb9d1c9858dd081b9bdd081a5b9a5d1a585b1a5e995960421b604482015260640162000613565b600a55565b3a600003620017dd5760405162461bcd60e51b815260206004820152600d60248201526c04761735072696365206973203609c1b604482015260640162000613565b60008060018054806020026020016040519081016040528092919081815260200182805480156200183857602002820191906000526020600020905b81546001600160a01b0316815260019091019060200180831162001819575b505050505090508051600003620018925760405162461bcd60e51b815260206004820152601260248201527f6e6f7468696e6720746f207265636f7665720000000000000000000000000000604482015260640162000613565b60005b815181101562001a8a576000828281518110620018b657620018b6620073e8565b60200260200101519050620018cb816200525b565b80620019455750602154604051639d6fc1d160e01b81526001600160a01b03838116600483015290911690639d6fc1d190602401602060405180830381865afa1580156200191d573d6000803e3d6000fd5b505050506040513d601f19601f820116820180604052508101906200194391906200745c565b155b1562001952575062001a77565b6200195d8162005299565b6001600160a01b0381166000908152602560209081526040808320805460ff191660011790559080528120805490829055906200199a83620031d6565b905060005b815181101562001a16576000828281518110620019c057620019c0620073e8565b6020908102919091018101516001600160a01b038088166000908152601684526040808220928416825291909352822091909155905062001a028582620053d3565b5062001a0e8162007414565b90506200199f565b5062001a23828762007430565b9550826001600160a01b0316336001600160a01b03167f8e6a4ccd7dccdca9ac211d00fcc3fa7c71be75ff73d3a35f63ea023173cc10048460405162001a6b91815260200190565b60405180910390a35050505b62001a828162007414565b905062001895565b508160000362001add5760405162461bcd60e51b815260206004820152601260248201527f6e6f7468696e6720746f207265636f7665720000000000000000000000000000604482015260640162000613565b600062001aec60028462007480565b9050600062001afc828562007446565b90506000602460009054906101000a90046001600160a01b03166001600160a01b03166319cee8976040518163ffffffff1660e01b8152600401602060405180830381865afa15801562001b54573d6000803e3d6000fd5b505050506040513d601f19601f8201168201806040525081019062001b7a9190620074a3565b9050602460009054906101000a90046001600160a01b03166001600160a01b031663af182535836040518263ffffffff1660e01b81526004016000604051808303818588803b15801562001bcd57600080fd5b505af115801562001be2573d6000803e3d6000fd5b505050505062001bf381846200557d565b604080518381526020810185905233917f1c113e6bae9530fea40323e612aeb0cb7817dedb5a0b0f6bdfbff97d55920dc7910160405180910390a25050505050565b6021546001600160a01b031633148062001c5957506026546001600160a01b031633145b62001c9b5760405162461bcd60e51b815260206004820152601160248201527013db9b1e4815985b1a59185d1bdc94d95d607a1b604482015260640162000613565b62001ca6816200473b565b50565b3a60000362001ceb5760405162461bcd60e51b815260206004820152600d60248201526c04761735072696365206973203609c1b604482015260640162000613565b6021546001600160a01b031662001d405760405162461bcd60e51b815260206004820152601860248201527710dbdb9d1c9858dd081b9bdd081a5b9a5d1a585b1a5e995960421b604482015260640162000613565b336000806001600160a01b038416831462001df8576001600160a01b038085166000908152601760209081526040808320938716835292905290812054925082900362001dd05760405162461bcd60e51b815260206004820152601d60248201527f436c61696d3a2066697273742065706f63682063616e27742062652030000000604482015260640162000613565b506001600160a01b038084166000908152601860209081526040808320938616835292905220545b60215460408051632b5aa5d760e11b815290516000926001600160a01b0316916356b54bae9160048083019260209291908290030181865afa15801562001e43573d6000803e3d6000fd5b505050506040513d601f19601f8201168201806040525081019062001e699190620074a3565b6021546040516253517560e01b81526001600160a01b038881166004830152929350600092909116906253517590602401602060405180830381865afa15801562001eb8573d6000803e3d6000fd5b505050506040513d601f19601f8201168201806040525081019062001ede9190620074a3565b9050600080885160000362001f615760405163dd03f5b960e01b81526001600160a01b03848116600483015285169063dd03f5b990602401600060405180830381865afa15801562001f34573d6000803e3d6000fd5b505050506040513d6000823e601f3d908101601f1916820160405262001f5e9190810190620074c3565b98505b60005b8951811015620023195760008a828151811062001f855762001f85620073e8565b60200260200101519050816000148062001fc657508a62001fa860018462007446565b8151811062001fbb5762001fbb620073e8565b602002602001015181115b6200203a5760405162461bcd60e51b815260206004820152602560248201527f436c61696d3a206e656564207374726963746c7920696e6372656173696e672060448201527f6f72646572000000000000000000000000000000000000000000000000000000606482015260840162000613565b601a5481106200208d5760405162461bcd60e51b815260206004820181905260248201527f436c61696d3a206f6e6c79206265666f72652063757272656e742065706f6368604482015260640162000613565b6001600160a01b03808b166000908152601560209081526040808320938d1683529281528282208483529052205460ff1615620020cb575062002304565b6000896001600160a01b03168b6001600160a01b031614620021bb5788821015620020f857505062002304565b8188111580156200210857508715155b156200211657505062002319565b62002125828a868e8e62005676565b93506200213482600162007430565b604051631c3572db60e31b815260048101869052602481018490526001600160a01b038881166044830152919a509088169063e1ab96d890606401602060405180830381865afa1580156200218d573d6000803e3d6000fd5b505050506040513d601f19601f82011682018060405250810190620021b391906200755d565b905062002232565b60405163ba2d759760e01b8152600481018390526001600160a01b03878116602483015288169063ba2d759790604401602060405180830381865afa15801562002209573d6000803e3d6000fd5b505050506040513d601f19601f820116820180604052508101906200222f91906200755d565b90505b6200223e818662007430565b94506001601560008d6001600160a01b03166001600160a01b0316815260200190815260200160002060008c6001600160a01b03166001600160a01b03168152602001908152602001600020600084815260200190815260200160002060006101000a81548160ff021916908315150217905550818a6001600160a01b03168c6001600160a01b03167fd3208fd5300db64b97bc442f47ade72b7ebcd9272aaecdcc04c777bb762861b984604051620022f991815260200190565b60405180910390a450505b80620023108162007414565b91505062001f64565b5060405163234a83e360e11b8152600481018390526001600160a01b03888116602483015285169063469507c690604401600060405180830381600087803b1580156200236557600080fd5b505af11580156200237a573d6000803e3d6000fd5b50505050505050505050505050565b7fb53127684a568b3173ae13b9f8a6016e243e63b6e8ee1178d6a717850b5d6103546001600160a01b0316336001600160a01b031614620024215760405162461bcd60e51b815260206004820152602b60248201527f6f6e6c792061646d696e20697320616c6c6f77656420746f2063616c6c20746860448201526a34b990333ab731ba34b7b760a91b606482015260840162000613565b6021546001600160a01b0316620024765760405162461bcd60e51b815260206004820152601860248201527710dbdb9d1c9858dd081b9bdd081a5b9a5d1a585b1a5e995960421b604482015260640162000613565b600955565b8460a00135600003620024d15760405162461bcd60e51b815260206004820152601760248201527f466978656445706f63684475726174696f6e2069732030000000000000000000604482015260640162000613565b8460e001358560a0013511620025505760405162461bcd60e51b815260206004820152603d60248201527f466978656445706f63684475726174696f6e206d757374206265206c6f6e676560448201527f72207468616e207769746864726177446973616c6c6f77506572696f64000000606482015260840162000613565b8460e00135600003620025a65760405162461bcd60e51b815260206004820152601b60248201527f5769746864726177446973616c6c6f77506572696f6420697320300000000000604482015260640162000613565b8460c00135600003620026225760405162461bcd60e51b815260206004820152602e60248201527f546865207472616e736974696f6e2074696d656672616d65206d75737420626560448201527f206c6f6e676572207468616e2030000000000000000000000000000000000000606482015260840162000613565b8460a001358560c0013510620026a3576040805162461bcd60e51b81526020600482015260248101919091527f546865207472616e736974696f6e2074696d656672616d65206d75737420626560448201527f2073686f72746572207468656e207468652065706f6368206475726174696f6e606482015260840162000613565b6200276d620026b6602087018762006e0b565b620026c5602088018862007577565b8080602002602001604051908101604052809392919081815260200183836020028082843760009201919091525050604080516020808b02828101820184528b8352928d0135945060608d0135935060808d0135928c918c91829185019084908082843760009201919091525050604080516020808d0282810182019093528c82529093508c92508b918291850190849080828437600092019190915250620056f992505050565b60a0850135601b5560e085013560195560215460408051636c9230db60e01b815290516001600160a01b0390921691636c9230db916004808201926020929091908290030181865afa158015620027c8573d6000803e3d6000fd5b505050506040513d601f19601f82011682018060405250810190620027ee91906200755d565b601d555050505060c00135601c55565b6001600160a01b03811660009081526022602052604090208054606091906200282790620075c4565b80601f01602080910402602001604051908101604052809291908181526020018280546200285590620075c4565b8015620028a65780601f106200287a57610100808354040283529160200191620028a6565b820191906000526020600020905b8154815290600101906020018083116200288857829003601f168201915b50505050509050919050565b3a600003620028f45760405162461bcd60e51b815260206004820152600d60248201526c04761735072696365206973203609c1b604482015260640162000613565b602154604051630526083960e11b81526001600160a01b0386811660048301523360248301819052923492911690630a4c107290604401600060405180830381600087803b1580156200294657600080fd5b505af11580156200295b573d6000803e3d6000fd5b505050506200296c82838362004c01565b6001600160a01b0382166000908152602260205260409020620029918587836200764a565b50506001600160a01b0316600090815260226020526040902060010180546fffffffffffffffffffffffffffffffff191660809290921c919091179055505050565b62001ca681600162005e8e565b6060600080548060200260200160405190810160405280929190818152602001828054801562002a3a57602002820191906000526020600020905b81546001600160a01b0316815260019091019060200180831162002a1b575b5050505050905090565b6021546040516253517560e01b81526001600160a01b03848116600483015260009283929116906253517590602401602060405180830381865afa15801562002a91573d6000803e3d6000fd5b505050506040513d601f19601f8201168201806040525081019062002ab79190620074a3565b905062002ada81846001600160a01b0316866001600160a01b0316141562005f69565b158062002aff57506001600160a01b03841660009081526025602052604090205460ff165b1562002b1057600091505062002bf5565b6001600160a01b03848116600090815260166020908152604080832087851684529091529081902054602154915163a0d16cad60e01b815284841660048201529092919091169063a0d16cad90602401602060405180830381865afa15801562002b7e573d6000803e3d6000fd5b505050506040513d601f19601f8201168201806040525081019062002ba491906200745c565b62002bb357915062002bf59050565b6001600160a01b0385811660009081526008602090815260408083209388168352928152828220601a548352905220548082111562002bf0578091505b509150505b92915050565b6001600160a01b038116600090815260076020908152604091829020805483518184028101840190945280845260609392830182828015620028a657602002820191906000526020600020905b81546001600160a01b0316815260019091019060200180831162002c485750505050509050919050565b6021546001600160a01b031633148062002c9657506026546001600160a01b031633145b62002cd85760405162461bcd60e51b815260206004820152601160248201527013db9b1e4815985b1a59185d1bdc94d95d607a1b604482015260640162000613565b6001600160a01b039092166000908152602260205260409020600101805460f09390931c600160801b0271ffffffffffffffffffffffffffffffffffff1990931660809290921c91909117919091179055565b6021546001600160a01b031633148062002d4f57506026546001600160a01b031633145b62002d915760405162461bcd60e51b815260206004820152601160248201527013db9b1e4815985b1a59185d1bdc94d95d607a1b604482015260640162000613565b6009546001600160a01b03821660009081526016602090815260408083209091529020541062001ca65762002dc881600162005e8e565b62001ca68162006081565b6021546001600160a01b031633148062002df757506026546001600160a01b031633145b62002e395760405162461bcd60e51b815260206004820152601160248201527013db9b1e4815985b1a59185d1bdc94d95d607a1b604482015260640162000613565b601d5543601e55565b33600090815260226020526040902062002e5e8486836200764a565b50336000908152602260205260409020600101805460f09290921c600160801b0271ffffffffffffffffffffffffffffffffffff1990921660809390931c929092171790555050565b6021546040516253517560e01b81526001600160a01b03848116600483015260009283929116906253517590602401602060405180830381865afa15801562002ef4573d6000803e3d6000fd5b505050506040513d601f19601f8201168201806040525081019062002f1a9190620074a3565b905062002f3d81846001600160a01b0316866001600160a01b0316141562005f69565b62002f4d57600091505062002bf5565b60215460405163a0d16cad60e01b81526001600160a01b0383811660048301529091169063a0d16cad90602401602060405180830381865afa15801562002f98573d6000803e3d6000fd5b505050506040513d601f19601f8201168201806040525081019062002fbe91906200745c565b62002fce57600091505062002bf5565b6001600160a01b038481166000818152600860209081526040808320948816808452948252808320601a54845282528083205493835260168252808320948352939052919091205462003022919062007446565b949350505050565b606060006004600554818054806020026020016040519081016040528092919081815260200182805480156200308057602002820191906000526020600020905b8154815260200190600101908083116200306b575b50505050509150915091509091565b602260205260009081526040902080548190620030ac90620075c4565b80601f0160208091040260200160405190810160405280929190818152602001828054620030da90620075c4565b80156200312b5780601f10620030ff576101008083540402835291602001916200312b565b820191906000526020600020905b8154815290600101906020018083116200310d57829003601f168201915b50505060019093015491925050608081901b90600160801b900460f01b83565b6021546001600160a01b03163314806200316f57506026546001600160a01b031633145b620031b15760405162461bcd60e51b815260206004820152601160248201527013db9b1e4815985b1a59185d1bdc94d95d607a1b604482015260640162000613565b601c5481601f54620031c4919062007430565b620031d0919062007430565b601f5550565b6001600160a01b038116600090815260066020908152604091829020805483518184028101840190945280845260609392830182828015620028a6576020028201919060005260206000209081546001600160a01b0316815260019091019060200180831162002c485750505050509050919050565b6060600280548060200260200160405190810160405280929190818152602001828054801562002a3a576020028201919060005260206000209081546001600160a01b0316815260019091019060200180831162002a1b575050505050905090565b6001600160a01b0381166000908152601260205260408120548154811080156200330a5750826001600160a01b031660008281548110620032f357620032f3620073e8565b6000918252602090912001546001600160a01b0316145b9392505050565b6021546001600160a01b03163314806200333557506026546001600160a01b031633145b620033775760405162461bcd60e51b815260206004820152601160248201527013db9b1e4815985b1a59185d1bdc94d95d607a1b604482015260640162000613565b601c54601f60008282546200338d919062007430565b9091555050565b3a600003620033d65760405162461bcd60e51b815260206004820152600d60248201526c04761735072696365206973203609c1b604482015260640162000613565b6021546001600160a01b03166200342b5760405162461bcd60e51b815260206004820152601860248201527710dbdb9d1c9858dd081b9bdd081a5b9a5d1a585b1a5e995960421b604482015260640162000613565b6001600160a01b0382166200348e5760405162461bcd60e51b815260206004820152602260248201527f706f6f6c5374616b696e6741646472657373206d757374206e6f742062652030604482015261078360f41b606482015260840162000613565b80600003620035065760405162461bcd60e51b815260206004820152602560248201527f6f72646572656420776974686472617720616d6f756e74206d757374206e6f7460448201527f2062652030000000000000000000000000000000000000000000000000000000606482015260840162000613565b6021546040516253517560e01b81526001600160a01b038481166004830152339262003597929116906253517590602401602060405180830381865afa15801562003555573d6000803e3d6000fd5b505050506040513d601f19601f820116820180604052508101906200357b9190620074a3565b846001600160a01b0316836001600160a01b0316141562005f69565b620035e55760405162461bcd60e51b815260206004820152601a60248201527f4f7264657257697468647261773a206e6f7420616c6c6f776564000000000000604482015260640162000613565b6001600160a01b038084166000818152600c6020908152604080832094861680845294825280832054848452600d8352818420546016845282852096855295835281842054948452918052822054909392918613156200372c57856200364c888762002ea7565b811115620036c35760405162461bcd60e51b815260206004820152602f60248201527f4f7264657257697468647261773a206d617857697468647261774f726465724160448201527f6c6c6f7765642065786365656465640000000000000000000000000000000000606482015260840162000613565b620036cf818662007430565b9450620036dd818562007430565b9350620036eb818462007446565b9250620036f9818362007446565b601a546001600160a01b03808b166000908152600e60209081526040808320938c16835292905220559150620037759050565b6000620037398762007717565b905062003747818662007446565b945062003755818562007446565b935062003763818462007430565b925062003771818362007430565b9150505b6001600160a01b038088166000818152600c60209081526040808320948a16808452948252808320899055838352600d8252808320889055601682528083208584528252808320879055838352908052902083905590036200388657811580620037e157506009548210155b620038555760405162461bcd60e51b815260206004820152603360248201527f6e65775374616b6520416d6f756e74206d75737420626520677265617465722060448201527f7468616e20746865206d696e207374616b652e00000000000000000000000000606482015260840162000613565b60008613156200387957816000036200387357620038738762006162565b62003947565b6200387387600162005e8e565b811580620038965750600a548210155b6200390a5760405162461bcd60e51b815260206004820152603360248201527f6e65775374616b6520416d6f756e74206d75737420626520677265617465722060448201527f7468616e20746865206d696e207374616b652e00000000000000000000000000606482015260840162000613565b60008613156200392f57816000036200392957620039298786620053d3565b6200393b565b6200393b87866200622d565b620039478786620062fc565b620039528762006081565b601a54856001600160a01b0316886001600160a01b03167f80d5c777e5f7ac6ee89723223803ca5c0ec0204f89e99c1b0cde973c66a64594896040516200399b91815260200190565b60405180910390a450505050505050565b6000601c54601b54601d54620039c3919062007430565b620039cf919062007446565b905090565b3a60000362003a165760405162461bcd60e51b815260206004820152600d60248201526c04761735072696365206973203609c1b604482015260640162000613565b6021546001600160a01b031662003a6b5760405162461bcd60e51b815260206004820152601860248201527710dbdb9d1c9858dd081b9bdd081a5b9a5d1a585b1a5e995960421b604482015260640162000613565b6001600160a01b0381166000908152600e6020908152604080832033808552925290912054601a541162003b085760405162461bcd60e51b815260206004820152603f60248201527f63616e6e6f7420636c61696d206f72646572656420776974686472617720696e60448201527f207468652073616d652065706f636820697420776173206f7264657265642e00606482015260840162000613565b6021546040516253517560e01b81526001600160a01b03848116600483015262003b969216906253517590602401602060405180830381865afa15801562003b54573d6000803e3d6000fd5b505050506040513d601f19601f8201168201806040525081019062003b7a9190620074a3565b836001600160a01b0316836001600160a01b0316141562005f69565b62003c0a5760405162461bcd60e51b815260206004820152602a60248201527f436c61696d4f72646572656457697468647261773a205769746864726177206e60448201527f6f7420616c6c6f77656400000000000000000000000000000000000000000000606482015260840162000613565b6001600160a01b038083166000908152600c602090815260408083209385168352929052908120549081900362003c845760405162461bcd60e51b815260206004820152601a60248201527f636c61696d20616d6f756e74206d757374206e6f742062652030000000000000604482015260640162000613565b6001600160a01b038084166000818152600c602090815260408083209487168352938152838220829055918152600d909152205462003cc590829062007446565b6001600160a01b038085166000908152600d60209081526040808320949094556016815283822092861682529190915290812054900362003d0c5762003d0c838362006408565b62003d18828262006549565b601a54826001600160a01b0316846001600160a01b03167ff380b0bc887e00f5b50d3c9d4eaaf5c9a0afd97b956316b995159384c4ede9b38460405162003d6191815260200190565b60405180910390a4505050565b6060600380548060200260200160405190810160405280929190818152602001828054801562002a3a576020028201919060005260206000209081546001600160a01b0316815260019091019060200180831162002a1b575050505050905090565b6060600180548060200260200160405190810160405280929190818152602001828054801562002a3a576020028201919060005260206000209081546001600160a01b0316815260019091019060200180831162002a1b575050505050905090565b3a60000362003e745760405162461bcd60e51b815260206004820152600d60248201526c04761735072696365206973203609c1b604482015260640162000613565b6021546001600160a01b031662003ec95760405162461bcd60e51b815260206004820152601860248201527710dbdb9d1c9858dd081b9bdd081a5b9a5d1a585b1a5e995960421b604482015260640162000613565b6021546040516253517560e01b81523360048201819052916000916001600160a01b03909116906253517590602401602060405180830381865afa15801562003f16573d6000803e3d6000fd5b505050506040513d601f19601f8201168201806040525081019062003f3c9190620074a3565b90506000601a54118062003fbe575060215460405163facd743b60e01b81526001600160a01b0383811660048301529091169063facd743b90602401602060405180830381865afa15801562003f96573d6000803e3d6000fd5b505050506040513d601f19601f8201168201806040525081019062003fbc91906200745c565b155b620040325760405162461bcd60e51b815260206004820152602a60248201527f43616e27742072656d6f766520706f6f6c20647572696e67203173742073746160448201527f6b696e672065706f636800000000000000000000000000000000000000000000606482015260840162000613565b62001471826200473b565b6021546001600160a01b03163314806200406157506026546001600160a01b031633145b620040a35760405162461bcd60e51b815260206004820152601160248201527013db9b1e4815985b1a59185d1bdc94d95d607a1b604482015260640162000613565b601a8054906000620040b58362007414565b90915550506000601f55565b3a600003620041035760405162461bcd60e51b815260206004820152600d60248201526c04761735072696365206973203609c1b604482015260640162000613565b6021546001600160a01b0316620041585760405162461bcd60e51b815260206004820152601860248201527710dbdb9d1c9858dd081b9bdd081a5b9a5d1a585b1a5e995960421b604482015260640162000613565b3362004166838284620048b1565b62004172818362006549565b601a54816001600160a01b0316846001600160a01b03167fa7c0f0cac6bd4d18042007706c84a8abe823751cf289b69c01e83eef7b5915c78560405162003d6191815260200190565b600080806001600160a01b03858116908516146200429c576001600160a01b0380861660009081526017602090815260408083209388168352929052908120549250829003620042745760405162461bcd60e51b815260206004820152602e60248201527f556e61626c6520746f206765742072657761726420616d6f756e74206966206e60448201527f6f2066697273742065706f63682e000000000000000000000000000000000000606482015260840162000613565b506001600160a01b038085166000908152601860209081526040808320938716835292905220545b60215460408051632b5aa5d760e11b815290516000926001600160a01b0316916356b54bae9160048083019260209291908290030181865afa158015620042e7573d6000803e3d6000fd5b505050506040513d601f19601f820116820180604052508101906200430d9190620074a3565b6021546040516253517560e01b81526001600160a01b038981166004830152929350600092909116906253517590602401602060405180830381865afa1580156200435c573d6000803e3d6000fd5b505050506040513d601f19601f82011682018060405250810190620043829190620074a3565b90506000808951600003620044055760405163dd03f5b960e01b81526001600160a01b03848116600483015285169063dd03f5b990602401600060405180830381865afa158015620043d8573d6000803e3d6000fd5b505050506040513d6000823e601f3d908101601f19168201604052620044029190810190620074c3565b99505b60005b8a51811015620047225760008b8281518110620044295762004429620073e8565b6020026020010151905081600014806200446a57508b6200444c60018462007446565b815181106200445f576200445f620073e8565b602002602001015181115b620044de5760405162461bcd60e51b815260206004820152603660248201527f696e7465726e616c204572726f723a205374616b696e672045706f636873207260448201527f6571756972656420746f206265206f7264657265642e00000000000000000000606482015260840162000613565b601a548110620045575760405162461bcd60e51b815260206004820152603c60248201527f696e7465726e616c204572726f723a2065706f6368206d757374206e6f74206260448201527f65206c6573736572207468616e2063757272656e742065706f63682e00000000606482015260840162000613565b6001600160a01b03808c166000908152601560209081526040808320938e1683529281528282208483529052205460ff16156200459557506200470d565b60008a6001600160a01b03168c6001600160a01b031614620046855788821015620045c25750506200470d565b818811158015620045d257508715155b15620045e057505062004722565b620045ef828a878f8f62005676565b9450620045fe82600162007430565b604051631c3572db60e31b815260048101879052602481018490526001600160a01b038881166044830152919a509088169063e1ab96d890606401602060405180830381865afa15801562004657573d6000803e3d6000fd5b505050506040513d601f19601f820116820180604052508101906200467d91906200755d565b9050620046fc565b60405163ba2d759760e01b8152600481018390526001600160a01b03878116602483015288169063ba2d759790604401602060405180830381865afa158015620046d3573d6000803e3d6000fd5b505050506040513d601f19601f82011682018060405250810190620046f991906200755d565b90505b62004708818562007430565b935050505b80620047198162007414565b91505062004408565b509998505050505050505050565b62001ca681620065b1565b6001600160a01b038116600090815260126020526040812054905481108015620047975750816001600160a01b031660008281548110620047805762004780620073e8565b6000918252602090912001546001600160a01b0316145b156200486e57600080548190620047b19060019062007446565b81548110620047c457620047c4620073e8565b600091825260208220015481546001600160a01b03909116925082919084908110620047f457620047f4620073e8565b600091825260208083209190910180546001600160a01b0319166001600160a01b03948516179055838316825260129052604080822085905591851681529081208190558054806200484a576200484a62007736565b600082815260209020810160001990810180546001600160a01b0319169055019055505b62004879826200525b565b1562004890576200488a8262005299565b6200489b565b6200489b82620065b1565b620048a68262006674565b6200147182620068b5565b6001600160a01b0383166200492f5760405162461bcd60e51b815260206004820152602e60248201527f576974686472617720706f6f6c207374616b696e672061646472657373206d7560448201527f7374206e6f74206265206e756c6c000000000000000000000000000000000000606482015260840162000613565b80600003620049815760405162461bcd60e51b815260206004820181905260248201527f616d6f756e7420746f207769746864726177206d757374206e6f742062652030604482015260640162000613565b6200498d838362002a44565b81111562004a045760405162461bcd60e51b815260206004820152602560248201527f57697468647261773a206d61785769746864726177416c6c6f7765642065786360448201527f6565646564000000000000000000000000000000000000000000000000000000606482015260840162000613565b6001600160a01b03808416600090815260166020908152604080832093861683529290529081205462004a3990839062007446565b90506000836001600160a01b0316856001600160a01b03161462004a6057600a5462004a64565b6009545b905081158062004a745750808210155b62004ae85760405162461bcd60e51b815260206004820152603960248201527f6e65775374616b6520616d6f756e74206d75737420626520677265617465722060448201527f657175616c207468616e20746865206d696e207374616b652e00000000000000606482015260840162000613565b6001600160a01b03858116600081815260166020908152604080832094891680845294825280832087905592825260088152828220938252928352818120601a5482529092529020548381101562004b4257600062004b4e565b62004b4e848262007446565b6001600160a01b038088166000818152600860209081526040808320948b168352938152838220601a54835281528382209490945590815291805290205462004b9990859062007446565b6001600160a01b038716600090815260208052604081209190915583900362004bc85762004bc8868662006408565b856001600160a01b0316856001600160a01b03161462004bee5762004bee8686620062fc565b62004bf98662006081565b505050505050565b6021546040516253517560e01b81526001600160a01b03858116600483015260009216906253517590602401602060405180830381865afa15801562004c4b573d6000803e3d6000fd5b505050506040513d601f19601f8201168201806040525081019062004c719190620074a3565b90506001600160a01b03811662004cf3576040805162461bcd60e51b81526020600482015260248101919091527f506f6f6c20646f6573206e6f742065786973742e206d696e696e67416464726560448201527f737320666f722074686174207374616b696e6720616464726573732069732030606482015260840162000613565b6001600160a01b03841662004d4b5760405162461bcd60e51b815260206004820152601a60248201527f5374616b653a207374616b696e67416464726573732069732030000000000000604482015260640162000613565b8160000362004d9d5760405162461bcd60e51b815260206004820152601960248201527f5374616b653a207374616b696e67416d6f756e74206973203000000000000000604482015260640162000613565b602154604051635491295760e11b81526001600160a01b0383811660048301529091169063a92252ae90602401602060405180830381865afa15801562004de8573d6000803e3d6000fd5b505050506040513d601f19601f8201168201806040525081019062004e0e91906200745c565b1562004e5d5760405162461bcd60e51b815260206004820152601f60248201527f5374616b653a204d696e696e6720616464726573732069732062616e6e656400604482015260640162000613565b6001600160a01b03841660009081526025602052604090205460ff161562004ec85760405162461bcd60e51b815260206004820152601560248201527f5374616b653a20706f6f6c206162616e646f6e65640000000000000000000000604482015260640162000613565b6001600160a01b03808516600090815260166020908152604080832093871683529290529081205462004efd90849062007430565b9050846001600160a01b0316846001600160a01b03160362004f995760095481101562004f935760405162461bcd60e51b815260206004820152603160248201527f5374616b653a2063616e6469646174655374616b65206c657373207468616e2060448201527f63616e6469646174654d696e5374616b65000000000000000000000000000000606482015260840162000613565b62005090565b600a54811015620050135760405162461bcd60e51b815260206004820152603460248201527f5374616b653a2064656c656761746f725374616b65206973206c65737320746860448201527f616e2064656c656761746f724d696e5374616b65000000000000000000000000606482015260840162000613565b6001600160a01b03851660009081526016602090815260408083209091528120549003620050905760405162461bcd60e51b815260206004820152602360248201527f5374616b653a2063616e27742064656c656761746520696e20656d70747920706044820152621bdbdb60ea1b606482015260840162000613565b6023546001600160a01b0386166000908152602080526040902054620050b890859062007430565b1115620051085760405162461bcd60e51b815260206004820152601d60248201527f7374616b65206c696d697420686173206265656e206578636565646564000000604482015260640162000613565b6001600160a01b03858116600081815260166020908152604080832094891680845294825280832086905592825260088152828220938252928352818120601a5482529092529020546200515e90849062007430565b6001600160a01b038087166000818152600860209081526040808320948a168352938152838220601a548352815283822094909455908152918052902054620051a990849062007430565b6001600160a01b038087166000818152602080526040902092909255851603620051e057620051da85600162005e8e565b620051f8565b620051ec85856200622d565b620051f88585620062fc565b620052038562006081565b601a54846001600160a01b0316866001600160a01b03167f2273de02cb1f69ba6259d22c4bc22c60e4c94c193265ef6afee324a04a9b6d22866040516200524c91815260200190565b60405180910390a45050505050565b6001600160a01b038116600090815260208052604081205415801562002bf55750506001600160a01b03166000908152600d60205260409020541590565b6001600160a01b03811660009081526011602052604090205460015481108015620052f65750816001600160a01b031660018281548110620052df57620052df620073e8565b6000918252602090912001546001600160a01b0316145b15620014715760018054600091906200531190829062007446565b81548110620053245762005324620073e8565b600091825260209091200154600180546001600160a01b039092169250829184908110620053565762005356620073e8565b600091825260208083209190910180546001600160a01b0319166001600160a01b0394851617905583831682526011905260408082208590559185168152908120556001805480620053ac57620053ac62007736565b600082815260209020810160001990810180546001600160a01b0319169055019055505050565b6001600160a01b038083166000908152600660209081526040808320600f8352818420948616845293909152902054815481108015620054445750826001600160a01b03168282815481106200542d576200542d620073e8565b6000918252602090912001546001600160a01b0316145b156200552d57815460009083906200545f9060019062007446565b81548110620054725762005472620073e8565b9060005260206000200160009054906101000a90046001600160a01b0316905080838381548110620054a857620054a8620073e8565b600091825260208083209190910180546001600160a01b0319166001600160a01b039485161790558783168252600f815260408083208585168452909152808220859055918616815290812055825483908062005509576200550962007736565b600082815260209020810160001990810180546001600160a01b0319169055019055505b6001600160a01b038085166000908152600c6020908152604080832093871683529290522054156200556b57620055658484620069c9565b62005577565b62005577848462006a92565b50505050565b80471015620055cf5760405162461bcd60e51b815260206004820152601460248201527f496e73756666696369656e742062616c616e6365000000000000000000000000604482015260640162000613565b6000826001600160a01b03168260405160006040518083038185875af1925050503d80600081146200561e576040519150601f19603f3d011682016040523d82523d6000602084013e62005623565b606091505b5050905080620016a45760405162461bcd60e51b815260206004820152600f60248201527f5472616e73666572206661696c65640000000000000000000000000000000000604482015260640162000613565b60005b506001600160a01b038083166000908152600b602090815260408083209385168352928152828220888352905220548015620056cb576000198114620056c05780620056c3565b60005b9050620056f0565b848603620056db575082620056f0565b85620056e7816200774c565b96505062005679565b95945050505050565b7fb53127684a568b3173ae13b9f8a6016e243e63b6e8ee1178d6a717850b5d6103546001600160a01b0316336001600160a01b031614806200576d57507fb53127684a568b3173ae13b9f8a6016e243e63b6e8ee1178d6a717850b5d6103546001600160a01b0316326001600160a01b0316145b80620057a157507fb53127684a568b3173ae13b9f8a6016e243e63b6e8ee1178d6a717850b5d6103546001600160a01b0316155b80620057ab575043155b6200581f5760405162461bcd60e51b815260206004820152603060248201527f496e697469616c697a6174696f6e206f6e6c79206f6e2067656e65736973206260448201527f6c6f636b206f722062792061646d696e00000000000000000000000000000000606482015260840162000613565b6021546001600160a01b0316156200587a5760405162461bcd60e51b815260206004820152601360248201527f416c726561647920696e697469616c697a656400000000000000000000000000604482015260640162000613565b6001600160a01b038716620058d25760405162461bcd60e51b815260206004820152601760248201527f56616c696461746f725365742063616e27742062652030000000000000000000604482015260640162000613565b60008651116200594b5760405162461bcd60e51b815260206004820152602560248201527f4d7573742070726f7669646520696e697469616c206d696e696e67206164647260448201527f6573736573000000000000000000000000000000000000000000000000000000606482015260840162000613565b815186516200595c90600262007766565b14620059d15760405162461bcd60e51b815260206004820152602960248201527f4d7573742070726f7669646520636f7272656374206e756d626572206f66207060448201527f75626c69634b6579730000000000000000000000000000000000000000000000606482015260840162000613565b805186511462005a4a5760405162461bcd60e51b815260206004820152602a60248201527f4d7573742070726f7669646520636f7272656374206e756d626572206f66204960448201527f5020616472657373657300000000000000000000000000000000000000000000606482015260840162000613565b8460000362005a9c5760405162461bcd60e51b815260206004820152601660248201527f44656c656761746f724d696e5374616b65206973203000000000000000000000604482015260640162000613565b8360000362005aee5760405162461bcd60e51b815260206004820152601660248201527f43616e6469646174654d696e5374616b65206973203000000000000000000000604482015260640162000613565b83831162005b655760405162461bcd60e51b815260206004820152603160248201527f6d6178696d756d207374616b65206d757374206265206772656174657220746860448201527f656e206d696e696d756d207374616b652e000000000000000000000000000000606482015260840162000613565b602180546001600160a01b0319166001600160a01b03891617905560005b865181101562005de45760006001600160a01b031687828151811062005bad5762005bad620073e8565b60200260200101516001600160a01b03160362005c185760405162461bcd60e51b815260206004820152602260248201527f496e697469616c5374616b696e674164647265737365732063616e2774206265604482015261020360f41b606482015260840162000613565b62005c4187828151811062005c315762005c31620073e8565b6020026020010151600062005e8e565b62005c6887828151811062005c5a5762005c5a620073e8565b602002602001015162006162565b8262005c7682600262007766565b8151811062005c895762005c89620073e8565b60200260200101518382600262005ca1919062007766565b62005cae90600162007430565b8151811062005cc15762005cc1620073e8565b602002602001015160405160200162005ce4929190918252602082015260400190565b6040516020818303038152906040526022600089848151811062005d0c5762005d0c620073e8565b60200260200101516001600160a01b03166001600160a01b03168152602001908152602001600020600001908162005d45919062007780565b5081818151811062005d5b5762005d5b620073e8565b60200260200101516022600089848151811062005d7c5762005d7c620073e8565b60200260200101516001600160a01b03166001600160a01b0316815260200190815260200160002060010160006101000a8154816fffffffffffffffffffffffffffffffff021916908360801c0217905550808062005ddb9062007414565b91505062005b83565b50600a8590556009849055602383905560215460408051632b5aa5d760e11b815290516001600160a01b03909216916356b54bae916004808201926020929091908290030181865afa15801562005e3f573d6000803e3d6000fd5b505050506040513d601f19601f8201168201806040525081019062005e659190620074a3565b602480546001600160a01b0319166001600160a01b039290921691909117905550505050505050565b62005e9982620032ae565b62005f4c57600080546001600160a01b0384168083526012602052604083208290556001820183559180527f290decd9548b62a8d60345a988386fc84ba6bc95484008f6362f93160ef3e5630180546001600160a01b03191690911790556064600054111562005f4c5760405162461bcd60e51b815260206004820152601d60248201527f4d41585f43414e4449444154455320706f6f6c73206578636565646564000000604482015260640162000613565b62005f578262005299565b80156200147157620014718262006bf1565b6000811562005ff85760215460405163a881c5fd60e01b81526001600160a01b0385811660048301529091169063a881c5fd90602401602060405180830381865afa15801562005fbd573d6000803e3d6000fd5b505050506040513d601f19601f8201168201806040525081019062005fe391906200745c565b1562005ff25750600062002bf5565b62006078565b602154604051635491295760e11b81526001600160a01b0385811660048301529091169063a92252ae90602401602060405180830381865afa15801562006043573d6000803e3d6000fd5b505050506040513d601f19601f820116820180604052508101906200606991906200745c565b15620060785750600062002bf5565b50600192915050565b6000806200608f8362006ced565b91509150816200609e57505050565b600060048281548110620060b657620060b6620073e8565b90600052602060002001549050600060206000866001600160a01b03166001600160a01b031681526020019081526020016000205490508060048481548110620061045762006104620073e8565b6000918252602090912001558181106200613c5762006124828262007446565b60055462006133919062007430565b6005556200615b565b62006148818362007446565b60055462006157919062007446565b6005555b5050505050565b6001600160a01b0381166000908152601460205260409020546003548082101580620061c15750826001600160a01b031660038381548110620061a957620061a9620073e8565b6000918252602090912001546001600160a01b031614155b1562006222576001600160a01b03831660008181526014602052604081208390556003805460018101825591527fc2575a0e9e593c00f959f8c92f12db2869c3395a3b0502d05e2516446f71f85b0180546001600160a01b03191690911790555b620016a48362006674565b6001600160a01b038083166000908152600660209081526040808320600f835281842094861684529390915290205481548082101580620062a05750836001600160a01b0316838381548110620062885762006288620073e8565b6000918252602090912001546001600160a01b031614155b15620062f0576001600160a01b038086166000908152600f602090815260408083209388168084529382528220849055855460018101875586835291200180546001600160a01b03191690911790555b6200615b858562006a92565b6000601a5460016200630f919062007430565b6001600160a01b0380851660009081526016602090815260408083209387168352929052908120549192508190036200634b576000196200634d565b805b6001600160a01b038086166000818152600b6020908152604080832094891680845294825280832088845282528083209590955591815260178252838120928152919052908120549003620063c5576001600160a01b0380851660009081526017602090815260408083209387168352929052208290555b8015620063d4576000620063d6565b815b6001600160a01b0394851660009081526018602090815260408083209690971682529490945293909220929092555050565b816001600160a01b0316816001600160a01b03160362006521576021546040516253517560e01b81526001600160a01b03848116600483015260009216906253517590602401602060405180830381865afa1580156200646c573d6000803e3d6000fd5b505050506040513d601f19601f82011682018060405250810190620064929190620074a3565b60215460405163facd743b60e01b81526001600160a01b03808416600483015292935091169063facd743b90602401602060405180830381865afa158015620064df573d6000803e3d6000fd5b505050506040513d601f19601f820116820180604052508101906200650591906200745c565b156200651657620016a48362006162565b620016a4836200473b565b6200652d8282620053d3565b62006538826200525b565b156200147157620014718262005299565b6040516001600160a01b0383169082156108fc029083906000818181858888f1935050505062001471578082604051620065839062006d64565b6001600160a01b0390911681526020016040518091039082f090508015801562005577573d6000803e3d6000fd5b6001600160a01b0381166000908152601160205260409020546001548082101580620066105750826001600160a01b031660018381548110620065f857620065f8620073e8565b6000918252602090912001546001600160a01b031614155b15620016a4576001600160a01b038316600081815260116020526040812083905560018054808201825591527fb10e2d527612073b26eecdfd717e6a320cf44b4afac2b0732d9fcbe2b7fa0cf60180546001600160a01b0319169091179055505050565b60045460025414620066835750565b6001600160a01b03811660009081526013602052604090205460025481108015620066e05750816001600160a01b031660028281548110620066c957620066c9620073e8565b6000918252602090912001546001600160a01b0316145b15620014715760048181548110620066fc57620066fc620073e8565b906000526020600020015460055410620067505760048181548110620067265762006726620073e8565b90600052602060002001546005600082825462006744919062007446565b90915550620067569050565b60006005555b6002546000906200676a9060019062007446565b9050600060028281548110620067845762006784620073e8565b600091825260209091200154600280546001600160a01b039092169250829185908110620067b657620067b6620073e8565b9060005260206000200160006101000a8154816001600160a01b0302191690836001600160a01b0316021790555060048281548110620067fa57620067fa620073e8565b9060005260206000200154600484815481106200681b576200681b620073e8565b60009182526020808320909101929092556001600160a01b03808416825260139092526040808220869055918616815290812055600280548062006863576200686362007736565b600082815260209020810160001990810180546001600160a01b0319169055019055600480548062006899576200689962007736565b6001900381819060005260206000200160009055905550505050565b6001600160a01b03811660009081526014602052604090205460035481108015620069125750816001600160a01b031660038281548110620068fb57620068fb620073e8565b6000918252602090912001546001600160a01b0316145b15620014715760038054600091906200692e9060019062007446565b81548110620069415762006941620073e8565b600091825260209091200154600380546001600160a01b039092169250829184908110620069735762006973620073e8565b600091825260208083209190910180546001600160a01b0319166001600160a01b0394851617905583831682526014905260408082208590559185168152908120556003805480620053ac57620053ac62007736565b6001600160a01b038083166000908152600760209081526040808320601083528184209486168452939091529020548154808210158062006a3c5750836001600160a01b031683838154811062006a245762006a24620073e8565b6000918252602090912001546001600160a01b031614155b156200615b576001600160a01b0380861660009081526010602090815260408083209388168084529382528220849055855460018101875586835291200180546001600160a01b03191690911790555050505050565b6001600160a01b0380831660009081526007602090815260408083206010835281842094861684529390915290205481548110801562006b035750826001600160a01b031682828154811062006aec5762006aec620073e8565b6000918252602090912001546001600160a01b0316145b1562005577578154600090839062006b1e9060019062007446565b8154811062006b315762006b31620073e8565b9060005260206000200160009054906101000a90046001600160a01b031690508083838154811062006b675762006b67620073e8565b600091825260208083209190910180546001600160a01b0319166001600160a01b0394851617905587831682526010815260408083208585168452909152808220859055918616815290812055825483908062006bc85762006bc862007736565b600082815260209020810160001990810180546001600160a01b03191690550190555050505050565b6001600160a01b038116600090815260136020526040902054600254808210158062006c505750826001600160a01b03166002838154811062006c385762006c38620073e8565b6000918252602090912001546001600160a01b031614155b1562006ce2576001600160a01b03831660008181526013602052604081208390556002805460018181019092557f405787fa12a823e0f2b7631cc41b3ba8828b3321ca811111fa75cd3aa3bb5ace0180546001600160a01b03191690931790925560048054928301815581527f8a35acfbc15ff81a39ae7d344fd709f28e8600b4aa8c65c6b64bfe7fe36bd19b909101555b620016a483620068b5565b6001600160a01b0381166000908152601360205260408120546002548110801562006d4a5750826001600160a01b03166002828154811062006d335762006d33620073e8565b6000918252602090912001546001600160a01b0316145b1562006d595760019150915091565b506000928392509050565b6059806200784e83390190565b6001600160a01b038116811462001ca657600080fd5b60008060006060848603121562006d9d57600080fd5b833562006daa8162006d71565b9250602084013562006dbc8162006d71565b929592945050506040919091013590565b6000806040838503121562006de157600080fd5b823562006dee8162006d71565b9150602083013562006e008162006d71565b809150509250929050565b60006020828403121562006e1e57600080fd5b81356200330a8162006d71565b60006020828403121562006e3e57600080fd5b5035919050565b634e487b7160e01b600052604160045260246000fd5b604051601f8201601f1916810167ffffffffffffffff8111828210171562006e875762006e8762006e45565b604052919050565b600067ffffffffffffffff82111562006eac5762006eac62006e45565b5060051b60200190565b600082601f83011262006ec857600080fd5b8135602062006ee162006edb8362006e8f565b62006e5b565b82815260059290921b8401810191818101908684111562006f0157600080fd5b8286015b8481101562006f1e578035835291830191830162006f05565b509695505050505050565b6000806040838503121562006f3d57600080fd5b823567ffffffffffffffff81111562006f5557600080fd5b62006f638582860162006eb6565b925050602083013562006e008162006d71565b60008083601f84011262006f8957600080fd5b50813567ffffffffffffffff81111562006fa257600080fd5b6020830191508360208260051b850101111562006fbe57600080fd5b9250929050565b60008060008060006060868803121562006fde57600080fd5b853567ffffffffffffffff8082111562006ff757600080fd5b90870190610100828a0312156200700d57600080fd5b909550602087013590808211156200702457600080fd5b6200703289838a0162006f76565b909650945060408801359150808211156200704c57600080fd5b506200705b8882890162006f76565b969995985093965092949392505050565b6000815180845260005b81811015620070945760208185018101518683018201520162007076565b506000602082860101526020601f19601f83011685010191505092915050565b6020815260006200330a60208301846200706c565b60008083601f840112620070dc57600080fd5b50813567ffffffffffffffff811115620070f557600080fd5b60208301915083602082850101111562006fbe57600080fd5b80356fffffffffffffffffffffffffffffffff19811681146200713057600080fd5b919050565b600080600080606085870312156200714c57600080fd5b8435620071598162006d71565b9350602085013567ffffffffffffffff8111156200717657600080fd5b6200718487828801620070c9565b9094509250620071999050604086016200710e565b905092959194509250565b6020808252825182820181905260009190848201906040850190845b81811015620071e75783516001600160a01b031683529284019291840191600101620071c0565b50909695505050505050565b80356001600160f01b0319811681146200713057600080fd5b6000806000606084860312156200722257600080fd5b83356200722f8162006d71565b92506200723f602085016200710e565b91506200724f60408501620071f3565b90509250925092565b600080600080606085870312156200726f57600080fd5b843567ffffffffffffffff8111156200728757600080fd5b6200729587828801620070c9565b9095509350620072aa9050602086016200710e565b91506200719960408601620071f3565b604080825283519082018190526000906020906060840190828701845b82811015620072f557815184529284019290840190600101620072d7565b50505092019290925292915050565b6060815260006200731960608301866200706c565b6fffffffffffffffffffffffffffffffff19949094166020830152506001600160f01b031991909116604090910152919050565b600080604083850312156200736157600080fd5b82356200736e8162006d71565b946020939093013593505050565b6000806000606084860312156200739257600080fd5b833567ffffffffffffffff811115620073aa57600080fd5b620073b88682870162006eb6565b9350506020840135620073cb8162006d71565b91506040840135620073dd8162006d71565b809150509250925092565b634e487b7160e01b600052603260045260246000fd5b634e487b7160e01b600052601160045260246000fd5b600060018201620074295762007429620073fe565b5060010190565b8082018082111562002bf55762002bf5620073fe565b8181038181111562002bf55762002bf5620073fe565b6000602082840312156200746f57600080fd5b815180151581146200330a57600080fd5b6000826200749e57634e487b7160e01b600052601260045260246000fd5b500490565b600060208284031215620074b657600080fd5b81516200330a8162006d71565b60006020808385031215620074d757600080fd5b825167ffffffffffffffff811115620074ef57600080fd5b8301601f810185136200750157600080fd5b80516200751262006edb8262006e8f565b81815260059190911b820183019083810190878311156200753257600080fd5b928401925b82841015620075525783518252928401929084019062007537565b979650505050505050565b6000602082840312156200757057600080fd5b5051919050565b6000808335601e198436030181126200758f57600080fd5b83018035915067ffffffffffffffff821115620075ab57600080fd5b6020019150600581901b360382131562006fbe57600080fd5b600181811c90821680620075d957607f821691505b602082108103620075fa57634e487b7160e01b600052602260045260246000fd5b50919050565b601f821115620016a457600081815260208120601f850160051c81016020861015620076295750805b601f850160051c820191505b8181101562004bf95782815560010162007635565b67ffffffffffffffff83111562007665576200766562006e45565b6200767d83620076768354620075c4565b8362007600565b6000601f841160018114620076b457600085156200769b5750838201355b600019600387901b1c1916600186901b1783556200615b565b600083815260209020601f19861690835b82811015620076e75786850135825560209485019460019092019101620076c5565b5086821015620077055760001960f88860031b161c19848701351681555b505060018560011b0183555050505050565b6000600160ff1b82016200772f576200772f620073fe565b5060000390565b634e487b7160e01b600052603160045260246000fd5b6000816200775e576200775e620073fe565b506000190190565b808202811582820484141762002bf55762002bf5620073fe565b815167ffffffffffffffff8111156200779d576200779d62006e45565b620077b581620077ae8454620075c4565b8462007600565b602080601f831160018114620077ed5760008415620077d45750858301515b600019600386901b1c1916600185901b17855562004bf9565b600085815260208120601f198616915b828110156200781e57888601518255948401946001909101908401620077fd565b50858210156200783d5787850151600019600388901b60f8161c191681555b5050505050600190811b0190555056fe608060405260405160593803806059833981016040819052601e91602a565b806001600160a01b0316ff5b600060208284031215603b57600080fd5b81516001600160a01b0381168114605157600080fd5b939250505056fea26469706673582212209a0edcd86b90f908f7d3abfecdbf49e9f59dd116ba00b366670517d4b6c5c00a64736f6c63430008110033",
  "linkReferences": {},
  "deployedLinkReferences": {}
}