{
  "contractName": "StakingHbbftCoinsMock",
  "abi": [
    {
      "anonymous": false,
      "inputs": [
        {
          "indexed": true,
          "internalType": "address",
          "name": "fromPoolStakingAddress",
          "type": "address"
        },
        {
          "indexed": true,
          "internalType": "address",
          "name": "staker",
          "type": "address"
        },
        {
          "indexed": true,
          "internalType": "uint256",
          "name": "stakingEpoch",
          "type": "uint256"
        },
        {
          "indexed": false,
          "internalType": "uint256",
          "name": "amount",
          "type": "uint256"
        }
      ],
      "name": "ClaimedOrderedWithdrawal",
      "type": "event"
    },
    {
      "anonymous": false,
      "inputs": [
        {
          "indexed": true,
          "internalType": "address",
          "name": "fromPoolStakingAddress",
          "type": "address"
        },
        {
          "indexed": true,
          "internalType": "address",
          "name": "staker",
          "type": "address"
        },
        {
          "indexed": true,
          "internalType": "uint256",
          "name": "stakingEpoch",
          "type": "uint256"
        },
        {
          "indexed": false,
          "internalType": "uint256",
          "name": "nativeCoinsAmount",
          "type": "uint256"
        }
      ],
      "name": "ClaimedReward",
      "type": "event"
    },
    {
      "anonymous": false,
      "inputs": [
        {
          "indexed": false,
          "internalType": "address",
          "name": "fromPoolStakingAddress",
          "type": "address"
        },
        {
          "indexed": true,
          "internalType": "address",
          "name": "toPoolStakingAddress",
          "type": "address"
        },
        {
          "indexed": true,
          "internalType": "address",
          "name": "staker",
          "type": "address"
        },
        {
          "indexed": true,
          "internalType": "uint256",
          "name": "stakingEpoch",
          "type": "uint256"
        },
        {
          "indexed": false,
          "internalType": "uint256",
          "name": "amount",
          "type": "uint256"
        }
      ],
      "name": "MovedStake",
      "type": "event"
    },
    {
      "anonymous": false,
      "inputs": [
        {
          "indexed": true,
          "internalType": "address",
          "name": "fromPoolStakingAddress",
          "type": "address"
        },
        {
          "indexed": true,
          "internalType": "address",
          "name": "staker",
          "type": "address"
        },
        {
          "indexed": true,
          "internalType": "uint256",
          "name": "stakingEpoch",
          "type": "uint256"
        },
        {
          "indexed": false,
          "internalType": "int256",
          "name": "amount",
          "type": "int256"
        }
      ],
      "name": "OrderedWithdrawal",
      "type": "event"
    },
    {
      "anonymous": false,
      "inputs": [
        {
          "indexed": true,
          "internalType": "address",
          "name": "toPoolStakingAddress",
          "type": "address"
        },
        {
          "indexed": true,
          "internalType": "address",
          "name": "staker",
          "type": "address"
        },
        {
          "indexed": true,
          "internalType": "uint256",
          "name": "stakingEpoch",
          "type": "uint256"
        },
        {
          "indexed": false,
          "internalType": "uint256",
          "name": "amount",
          "type": "uint256"
        }
      ],
      "name": "PlacedStake",
      "type": "event"
    },
    {
      "anonymous": false,
      "inputs": [
        {
          "indexed": true,
          "internalType": "address",
          "name": "fromPoolStakingAddress",
          "type": "address"
        },
        {
          "indexed": true,
          "internalType": "address",
          "name": "staker",
          "type": "address"
        },
        {
          "indexed": true,
          "internalType": "uint256",
          "name": "stakingEpoch",
          "type": "uint256"
        },
        {
          "indexed": false,
          "internalType": "uint256",
          "name": "amount",
          "type": "uint256"
        }
      ],
      "name": "WithdrewStake",
      "type": "event"
    },
    {
      "payable": true,
      "stateMutability": "payable",
      "type": "fallback"
    },
    {
      "constant": true,
      "inputs": [],
      "name": "MAX_CANDIDATES",
      "outputs": [
        {
          "internalType": "uint256",
          "name": "",
          "type": "uint256"
        }
      ],
      "payable": false,
      "stateMutability": "view",
      "type": "function"
    },
    {
      "constant": false,
      "inputs": [
        {
          "internalType": "address",
          "name": "_miningAddress",
          "type": "address"
        },
        {
          "internalType": "bytes",
          "name": "_publicKey",
          "type": "bytes"
        },
        {
          "internalType": "bytes16",
          "name": "_ip",
          "type": "bytes16"
        }
      ],
      "name": "addPool",
      "outputs": [],
      "payable": true,
      "stateMutability": "payable",
      "type": "function"
    },
    {
      "constant": false,
      "inputs": [
        {
          "internalType": "address",
          "name": "_stakingAddress",
          "type": "address"
        }
      ],
      "name": "addPoolActiveMock",
      "outputs": [],
      "payable": false,
      "stateMutability": "nonpayable",
      "type": "function"
    },
    {
      "constant": false,
      "inputs": [
        {
          "internalType": "address",
          "name": "_stakingAddress",
          "type": "address"
        }
      ],
      "name": "addPoolInactiveMock",
      "outputs": [],
      "payable": false,
      "stateMutability": "nonpayable",
      "type": "function"
    },
    {
      "constant": true,
      "inputs": [],
      "name": "areStakeAndWithdrawAllowed",
      "outputs": [
        {
          "internalType": "bool",
          "name": "",
          "type": "bool"
        }
      ],
      "payable": false,
      "stateMutability": "view",
      "type": "function"
    },
    {
      "constant": true,
      "inputs": [],
      "name": "candidateMinStake",
      "outputs": [
        {
          "internalType": "uint256",
          "name": "",
          "type": "uint256"
        }
      ],
      "payable": false,
      "stateMutability": "view",
      "type": "function"
    },
    {
      "constant": false,
      "inputs": [
        {
          "internalType": "address",
          "name": "_poolStakingAddress",
          "type": "address"
        }
      ],
      "name": "claimOrderedWithdraw",
      "outputs": [],
      "payable": false,
      "stateMutability": "nonpayable",
      "type": "function"
    },
    {
      "constant": false,
      "inputs": [
        {
          "internalType": "uint256[]",
          "name": "_stakingEpochs",
          "type": "uint256[]"
        },
        {
          "internalType": "address",
          "name": "_poolStakingAddress",
          "type": "address"
        }
      ],
      "name": "claimReward",
      "outputs": [],
      "payable": false,
      "stateMutability": "nonpayable",
      "type": "function"
    },
    {
      "constant": false,
      "inputs": [
        {
          "internalType": "address",
          "name": "_poolStakingAddress",
          "type": "address"
        },
        {
          "internalType": "address",
          "name": "_delegator",
          "type": "address"
        },
        {
          "internalType": "uint256",
          "name": "_stakingEpoch",
          "type": "uint256"
        }
      ],
      "name": "clearDelegatorStakeSnapshot",
      "outputs": [],
      "payable": false,
      "stateMutability": "nonpayable",
      "type": "function"
    },
    {
      "constant": false,
      "inputs": [
        {
          "internalType": "address",
          "name": "_poolStakingAddress",
          "type": "address"
        },
        {
          "internalType": "address",
          "name": "_staker",
          "type": "address"
        },
        {
          "internalType": "uint256",
          "name": "_epoch",
          "type": "uint256"
        }
      ],
      "name": "clearRewardWasTaken",
      "outputs": [],
      "payable": false,
      "stateMutability": "nonpayable",
      "type": "function"
    },
    {
      "constant": true,
      "inputs": [],
      "name": "currentKeyGenExtraTimeWindow",
      "outputs": [
        {
          "internalType": "uint256",
          "name": "",
          "type": "uint256"
        }
      ],
      "payable": false,
      "stateMutability": "view",
      "type": "function"
    },
    {
      "constant": true,
      "inputs": [],
      "name": "delegatorMinStake",
      "outputs": [
        {
          "internalType": "uint256",
          "name": "",
          "type": "uint256"
        }
      ],
      "payable": false,
      "stateMutability": "view",
      "type": "function"
    },
    {
      "constant": true,
      "inputs": [
        {
          "internalType": "address",
          "name": "",
          "type": "address"
        },
        {
          "internalType": "address",
          "name": "",
          "type": "address"
        },
        {
          "internalType": "uint256",
          "name": "",
          "type": "uint256"
        }
      ],
      "name": "delegatorStakeSnapshot",
      "outputs": [
        {
          "internalType": "uint256",
          "name": "",
          "type": "uint256"
        }
      ],
      "payable": false,
      "stateMutability": "view",
      "type": "function"
    },
    {
      "constant": true,
      "inputs": [
        {
          "internalType": "address",
          "name": "_poolAddress",
          "type": "address"
        }
      ],
      "name": "getPoolInternetAddress",
      "outputs": [
        {
          "internalType": "bytes16",
          "name": "",
          "type": "bytes16"
        }
      ],
      "payable": false,
      "stateMutability": "view",
      "type": "function"
    },
    {
      "constant": true,
      "inputs": [
        {
          "internalType": "address",
          "name": "_poolAddress",
          "type": "address"
        }
      ],
      "name": "getPoolPublicKey",
      "outputs": [
        {
          "internalType": "bytes",
          "name": "",
          "type": "bytes"
        }
      ],
      "payable": false,
      "stateMutability": "view",
      "type": "function"
    },
    {
      "constant": true,
      "inputs": [],
      "name": "getPools",
      "outputs": [
        {
          "internalType": "address[]",
          "name": "",
          "type": "address[]"
        }
      ],
      "payable": false,
      "stateMutability": "view",
      "type": "function"
    },
    {
      "constant": true,
      "inputs": [],
      "name": "getPoolsInactive",
      "outputs": [
        {
          "internalType": "address[]",
          "name": "",
          "type": "address[]"
        }
      ],
      "payable": false,
      "stateMutability": "view",
      "type": "function"
    },
    {
      "constant": true,
      "inputs": [],
      "name": "getPoolsLikelihood",
      "outputs": [
        {
          "internalType": "uint256[]",
          "name": "likelihoods",
          "type": "uint256[]"
        },
        {
          "internalType": "uint256",
          "name": "sum",
          "type": "uint256"
        }
      ],
      "payable": false,
      "stateMutability": "view",
      "type": "function"
    },
    {
      "constant": true,
      "inputs": [],
      "name": "getPoolsToBeElected",
      "outputs": [
        {
          "internalType": "address[]",
          "name": "",
          "type": "address[]"
        }
      ],
      "payable": false,
      "stateMutability": "view",
      "type": "function"
    },
    {
      "constant": true,
      "inputs": [],
      "name": "getPoolsToBeRemoved",
      "outputs": [
        {
          "internalType": "address[]",
          "name": "",
          "type": "address[]"
        }
      ],
      "payable": false,
      "stateMutability": "view",
      "type": "function"
    },
    {
      "constant": true,
      "inputs": [
        {
          "internalType": "uint256[]",
          "name": "_stakingEpochs",
          "type": "uint256[]"
        },
        {
          "internalType": "address",
          "name": "_poolStakingAddress",
          "type": "address"
        },
        {
          "internalType": "address",
          "name": "_staker",
          "type": "address"
        }
      ],
      "name": "getRewardAmount",
      "outputs": [
        {
          "internalType": "uint256",
          "name": "",
          "type": "uint256"
        }
      ],
      "payable": false,
      "stateMutability": "view",
      "type": "function"
    },
    {
      "constant": false,
      "inputs": [],
      "name": "incrementStakingEpoch",
      "outputs": [],
      "payable": false,
      "stateMutability": "nonpayable",
      "type": "function"
    },
    {
      "constant": false,
      "inputs": [
        {
          "internalType": "address",
          "name": "_validatorSetContract",
          "type": "address"
        },
        {
          "internalType": "address[]",
          "name": "_initialStakingAddresses",
          "type": "address[]"
        },
        {
          "internalType": "uint256",
          "name": "_delegatorMinStake",
          "type": "uint256"
        },
        {
          "internalType": "uint256",
          "name": "_candidateMinStake",
          "type": "uint256"
        },
        {
          "internalType": "uint256",
          "name": "_maxStake",
          "type": "uint256"
        },
        {
          "internalType": "uint256",
          "name": "_stakingFixedEpochDuration",
          "type": "uint256"
        },
        {
          "internalType": "uint256",
          "name": "_stakingTransitionTimeframeLength",
          "type": "uint256"
        },
        {
          "internalType": "uint256",
          "name": "_stakingWithdrawDisallowPeriod",
          "type": "uint256"
        },
        {
          "internalType": "bytes32[]",
          "name": "_publicKeys",
          "type": "bytes32[]"
        },
        {
          "internalType": "bytes16[]",
          "name": "_internetAddresses",
          "type": "bytes16[]"
        }
      ],
      "name": "initialize",
      "outputs": [],
      "payable": false,
      "stateMutability": "nonpayable",
      "type": "function"
    },
    {
      "constant": true,
      "inputs": [],
      "name": "isInitialized",
      "outputs": [
        {
          "internalType": "bool",
          "name": "",
          "type": "bool"
        }
      ],
      "payable": false,
      "stateMutability": "view",
      "type": "function"
    },
    {
      "constant": true,
      "inputs": [
        {
          "internalType": "address",
          "name": "_stakingAddress",
          "type": "address"
        }
      ],
      "name": "isPoolActive",
      "outputs": [
        {
          "internalType": "bool",
          "name": "",
          "type": "bool"
        }
      ],
      "payable": false,
      "stateMutability": "view",
      "type": "function"
    },
    {
      "constant": true,
      "inputs": [],
      "name": "maxStakeAmount",
      "outputs": [
        {
          "internalType": "uint256",
          "name": "",
          "type": "uint256"
        }
      ],
      "payable": false,
      "stateMutability": "view",
      "type": "function"
    },
    {
      "constant": true,
      "inputs": [
        {
          "internalType": "address",
          "name": "_poolStakingAddress",
          "type": "address"
        },
        {
          "internalType": "address",
          "name": "_staker",
          "type": "address"
        }
      ],
      "name": "maxWithdrawAllowed",
      "outputs": [
        {
          "internalType": "uint256",
          "name": "",
          "type": "uint256"
        }
      ],
      "payable": false,
      "stateMutability": "view",
      "type": "function"
    },
    {
      "constant": true,
      "inputs": [
        {
          "internalType": "address",
          "name": "_poolStakingAddress",
          "type": "address"
        },
        {
          "internalType": "address",
          "name": "_staker",
          "type": "address"
        }
      ],
      "name": "maxWithdrawOrderAllowed",
      "outputs": [
        {
          "internalType": "uint256",
          "name": "",
          "type": "uint256"
        }
      ],
      "payable": false,
      "stateMutability": "view",
      "type": "function"
    },
    {
      "constant": false,
      "inputs": [
        {
          "internalType": "address",
          "name": "_fromPoolStakingAddress",
          "type": "address"
        },
        {
          "internalType": "address",
          "name": "_toPoolStakingAddress",
          "type": "address"
        },
        {
          "internalType": "uint256",
          "name": "_amount",
          "type": "uint256"
        }
      ],
      "name": "moveStake",
      "outputs": [],
      "payable": false,
      "stateMutability": "nonpayable",
      "type": "function"
    },
    {
      "constant": false,
      "inputs": [
        {
          "internalType": "address",
          "name": "_stakingAddress",
          "type": "address"
        }
      ],
      "name": "notifyAvailability",
      "outputs": [],
      "payable": false,
      "stateMutability": "nonpayable",
      "type": "function"
    },
    {
      "constant": false,
      "inputs": [],
      "name": "notifyKeyGenFailed",
      "outputs": [],
      "payable": false,
      "stateMutability": "nonpayable",
      "type": "function"
    },
    {
      "constant": false,
      "inputs": [
        {
          "internalType": "uint256",
          "name": "detectedOfflineTime",
          "type": "uint256"
        }
      ],
      "name": "notifyNetworkOfftimeDetected",
      "outputs": [],
      "payable": false,
      "stateMutability": "nonpayable",
      "type": "function"
    },
    {
      "constant": false,
      "inputs": [
        {
          "internalType": "address",
          "name": "_poolStakingAddress",
          "type": "address"
        },
        {
          "internalType": "int256",
          "name": "_amount",
          "type": "int256"
        }
      ],
      "name": "orderWithdraw",
      "outputs": [],
      "payable": false,
      "stateMutability": "nonpayable",
      "type": "function"
    },
    {
      "constant": true,
      "inputs": [
        {
          "internalType": "address",
          "name": "",
          "type": "address"
        },
        {
          "internalType": "address",
          "name": "",
          "type": "address"
        }
      ],
      "name": "orderWithdrawEpoch",
      "outputs": [
        {
          "internalType": "uint256",
          "name": "",
          "type": "uint256"
        }
      ],
      "payable": false,
      "stateMutability": "view",
      "type": "function"
    },
    {
      "constant": true,
      "inputs": [
        {
          "internalType": "address",
          "name": "",
          "type": "address"
        },
        {
          "internalType": "address",
          "name": "",
          "type": "address"
        }
      ],
      "name": "orderedWithdrawAmount",
      "outputs": [
        {
          "internalType": "uint256",
          "name": "",
          "type": "uint256"
        }
      ],
      "payable": false,
      "stateMutability": "view",
      "type": "function"
    },
    {
      "constant": true,
      "inputs": [
        {
          "internalType": "address",
          "name": "",
          "type": "address"
        }
      ],
      "name": "orderedWithdrawAmountTotal",
      "outputs": [
        {
          "internalType": "uint256",
          "name": "",
          "type": "uint256"
        }
      ],
      "payable": false,
      "stateMutability": "view",
      "type": "function"
    },
    {
      "constant": true,
      "inputs": [
        {
          "internalType": "address",
          "name": "",
          "type": "address"
        },
        {
          "internalType": "address",
          "name": "",
          "type": "address"
        }
      ],
      "name": "poolDelegatorInactiveIndex",
      "outputs": [
        {
          "internalType": "uint256",
          "name": "",
          "type": "uint256"
        }
      ],
      "payable": false,
      "stateMutability": "view",
      "type": "function"
    },
    {
      "constant": true,
      "inputs": [
        {
          "internalType": "address",
          "name": "",
          "type": "address"
        },
        {
          "internalType": "address",
          "name": "",
          "type": "address"
        }
      ],
      "name": "poolDelegatorIndex",
      "outputs": [
        {
          "internalType": "uint256",
          "name": "",
          "type": "uint256"
        }
      ],
      "payable": false,
      "stateMutability": "view",
      "type": "function"
    },
    {
      "constant": true,
      "inputs": [
        {
          "internalType": "address",
          "name": "_poolStakingAddress",
          "type": "address"
        }
      ],
      "name": "poolDelegators",
      "outputs": [
        {
          "internalType": "address[]",
          "name": "",
          "type": "address[]"
        }
      ],
      "payable": false,
      "stateMutability": "view",
      "type": "function"
    },
    {
      "constant": true,
      "inputs": [
        {
          "internalType": "address",
          "name": "_poolStakingAddress",
          "type": "address"
        }
      ],
      "name": "poolDelegatorsInactive",
      "outputs": [
        {
          "internalType": "address[]",
          "name": "",
          "type": "address[]"
        }
      ],
      "payable": false,
      "stateMutability": "view",
      "type": "function"
    },
    {
      "constant": true,
      "inputs": [
        {
          "internalType": "address",
          "name": "",
          "type": "address"
        }
      ],
      "name": "poolInactiveIndex",
      "outputs": [
        {
          "internalType": "uint256",
          "name": "",
          "type": "uint256"
        }
      ],
      "payable": false,
      "stateMutability": "view",
      "type": "function"
    },
    {
      "constant": true,
      "inputs": [
        {
          "internalType": "address",
          "name": "",
          "type": "address"
        }
      ],
      "name": "poolIndex",
      "outputs": [
        {
          "internalType": "uint256",
          "name": "",
          "type": "uint256"
        }
      ],
      "payable": false,
      "stateMutability": "view",
      "type": "function"
    },
    {
      "constant": true,
      "inputs": [
        {
          "internalType": "address",
          "name": "",
          "type": "address"
        }
      ],
      "name": "poolInfo",
      "outputs": [
        {
          "internalType": "bytes",
          "name": "publicKey",
          "type": "bytes"
        },
        {
          "internalType": "bytes16",
          "name": "internetAddress",
          "type": "bytes16"
        }
      ],
      "payable": false,
      "stateMutability": "view",
      "type": "function"
    },
    {
      "constant": true,
      "inputs": [
        {
          "internalType": "address",
          "name": "",
          "type": "address"
        }
      ],
      "name": "poolToBeElectedIndex",
      "outputs": [
        {
          "internalType": "uint256",
          "name": "",
          "type": "uint256"
        }
      ],
      "payable": false,
      "stateMutability": "view",
      "type": "function"
    },
    {
      "constant": true,
      "inputs": [
        {
          "internalType": "address",
          "name": "",
          "type": "address"
        }
      ],
      "name": "poolToBeRemovedIndex",
      "outputs": [
        {
          "internalType": "uint256",
          "name": "",
          "type": "uint256"
        }
      ],
      "payable": false,
      "stateMutability": "view",
      "type": "function"
    },
    {
      "constant": false,
      "inputs": [],
      "name": "removeMyPool",
      "outputs": [],
      "payable": false,
      "stateMutability": "nonpayable",
      "type": "function"
    },
    {
      "constant": false,
      "inputs": [
        {
          "internalType": "address",
          "name": "_stakingAddress",
          "type": "address"
        }
      ],
      "name": "removePool",
      "outputs": [],
      "payable": false,
      "stateMutability": "nonpayable",
      "type": "function"
    },
    {
      "constant": false,
      "inputs": [],
      "name": "removePools",
      "outputs": [],
      "payable": false,
      "stateMutability": "nonpayable",
      "type": "function"
    },
    {
      "constant": true,
      "inputs": [
        {
          "internalType": "address",
          "name": "",
          "type": "address"
        },
        {
          "internalType": "address",
          "name": "",
          "type": "address"
        },
        {
          "internalType": "uint256",
          "name": "",
          "type": "uint256"
        }
      ],
      "name": "rewardWasTaken",
      "outputs": [
        {
          "internalType": "bool",
          "name": "",
          "type": "bool"
        }
      ],
      "payable": false,
      "stateMutability": "view",
      "type": "function"
    },
    {
      "constant": false,
      "inputs": [
        {
          "internalType": "uint256",
          "name": "_minStake",
          "type": "uint256"
        }
      ],
      "name": "setCandidateMinStake",
      "outputs": [],
      "payable": false,
      "stateMutability": "nonpayable",
      "type": "function"
    },
    {
      "constant": false,
      "inputs": [
        {
          "internalType": "uint256",
          "name": "_minStake",
          "type": "uint256"
        }
      ],
      "name": "setDelegatorMinStake",
      "outputs": [],
      "payable": false,
      "stateMutability": "nonpayable",
      "type": "function"
    },
    {
      "constant": false,
      "inputs": [
        {
          "internalType": "bytes",
          "name": "_publicKey",
          "type": "bytes"
        },
        {
          "internalType": "bytes16",
          "name": "_ip",
          "type": "bytes16"
        }
      ],
      "name": "setPoolInfo",
      "outputs": [],
      "payable": false,
      "stateMutability": "nonpayable",
      "type": "function"
    },
    {
      "constant": false,
      "inputs": [
        {
          "internalType": "address",
          "name": "_poolStakingAddress",
          "type": "address"
        },
        {
          "internalType": "uint256",
          "name": "_amount",
          "type": "uint256"
        }
      ],
      "name": "setStakeAmountTotal",
      "outputs": [],
      "payable": false,
      "stateMutability": "nonpayable",
      "type": "function"
    },
    {
      "constant": false,
      "inputs": [
        {
          "internalType": "address",
          "name": "_poolStakingAddress",
          "type": "address"
        },
        {
          "internalType": "address",
          "name": "_delegator",
          "type": "address"
        },
        {
          "internalType": "uint256",
          "name": "_value",
          "type": "uint256"
        }
      ],
      "name": "setStakeFirstEpoch",
      "outputs": [],
      "payable": false,
      "stateMutability": "nonpayable",
      "type": "function"
    },
    {
      "constant": false,
      "inputs": [
        {
          "internalType": "address",
          "name": "_poolStakingAddress",
          "type": "address"
        },
        {
          "internalType": "address",
          "name": "_delegator",
          "type": "address"
        },
        {
          "internalType": "uint256",
          "name": "_value",
          "type": "uint256"
        }
      ],
      "name": "setStakeLastEpoch",
      "outputs": [],
      "payable": false,
      "stateMutability": "nonpayable",
      "type": "function"
    },
    {
      "constant": false,
      "inputs": [
        {
          "internalType": "uint256",
          "name": "_stakingEpoch",
          "type": "uint256"
        }
      ],
      "name": "setStakingEpoch",
      "outputs": [],
      "payable": false,
      "stateMutability": "nonpayable",
      "type": "function"
    },
    {
      "constant": false,
      "inputs": [
        {
          "internalType": "uint256",
          "name": "_timestamp",
          "type": "uint256"
        }
      ],
      "name": "setStakingEpochStartTime",
      "outputs": [],
      "payable": false,
      "stateMutability": "nonpayable",
      "type": "function"
    },
    {
      "constant": false,
      "inputs": [
        {
          "internalType": "contract IValidatorSetHbbft",
          "name": "_validatorSetAddress",
          "type": "address"
        }
      ],
      "name": "setValidatorSetAddress",
      "outputs": [],
      "payable": false,
      "stateMutability": "nonpayable",
      "type": "function"
    },
    {
      "constant": false,
      "inputs": [
        {
          "internalType": "address",
          "name": "_toPoolStakingAddress",
          "type": "address"
        }
      ],
      "name": "stake",
      "outputs": [],
      "payable": true,
      "stateMutability": "payable",
      "type": "function"
    },
    {
      "constant": true,
      "inputs": [
        {
          "internalType": "address",
          "name": "",
          "type": "address"
        },
        {
          "internalType": "address",
          "name": "",
          "type": "address"
        }
      ],
      "name": "stakeAmount",
      "outputs": [
        {
          "internalType": "uint256",
          "name": "",
          "type": "uint256"
        }
      ],
      "payable": false,
      "stateMutability": "view",
      "type": "function"
    },
    {
      "constant": true,
      "inputs": [
        {
          "internalType": "address",
          "name": "_poolStakingAddress",
          "type": "address"
        },
        {
          "internalType": "address",
          "name": "_staker",
          "type": "address"
        }
      ],
      "name": "stakeAmountByCurrentEpoch",
      "outputs": [
        {
          "internalType": "uint256",
          "name": "",
          "type": "uint256"
        }
      ],
      "payable": false,
      "stateMutability": "view",
      "type": "function"
    },
    {
      "constant": true,
      "inputs": [
        {
          "internalType": "address",
          "name": "",
          "type": "address"
        }
      ],
      "name": "stakeAmountTotal",
      "outputs": [
        {
          "internalType": "uint256",
          "name": "",
          "type": "uint256"
        }
      ],
      "payable": false,
      "stateMutability": "view",
      "type": "function"
    },
    {
      "constant": true,
      "inputs": [
        {
          "internalType": "address",
          "name": "",
          "type": "address"
        },
        {
          "internalType": "address",
          "name": "",
          "type": "address"
        }
      ],
      "name": "stakeFirstEpoch",
      "outputs": [
        {
          "internalType": "uint256",
          "name": "",
          "type": "uint256"
        }
      ],
      "payable": false,
      "stateMutability": "view",
      "type": "function"
    },
    {
      "constant": true,
      "inputs": [
        {
          "internalType": "address",
          "name": "",
          "type": "address"
        },
        {
          "internalType": "address",
          "name": "",
          "type": "address"
        }
      ],
      "name": "stakeLastEpoch",
      "outputs": [
        {
          "internalType": "uint256",
          "name": "",
          "type": "uint256"
        }
      ],
      "payable": false,
      "stateMutability": "view",
      "type": "function"
    },
    {
      "constant": true,
      "inputs": [],
      "name": "stakingEpoch",
      "outputs": [
        {
          "internalType": "uint256",
          "name": "",
          "type": "uint256"
        }
      ],
      "payable": false,
      "stateMutability": "view",
      "type": "function"
    },
    {
      "constant": true,
      "inputs": [],
      "name": "stakingEpochStartBlock",
      "outputs": [
        {
          "internalType": "uint256",
          "name": "",
          "type": "uint256"
        }
      ],
      "payable": false,
      "stateMutability": "view",
      "type": "function"
    },
    {
      "constant": true,
      "inputs": [],
      "name": "stakingEpochStartTime",
      "outputs": [
        {
          "internalType": "uint256",
          "name": "",
          "type": "uint256"
        }
      ],
      "payable": false,
      "stateMutability": "view",
      "type": "function"
    },
    {
      "constant": true,
      "inputs": [],
      "name": "stakingFixedEpochDuration",
      "outputs": [
        {
          "internalType": "uint256",
          "name": "",
          "type": "uint256"
        }
      ],
      "payable": false,
      "stateMutability": "view",
      "type": "function"
    },
    {
      "constant": true,
      "inputs": [],
      "name": "stakingFixedEpochEndTime",
      "outputs": [
        {
          "internalType": "uint256",
          "name": "",
          "type": "uint256"
        }
      ],
      "payable": false,
      "stateMutability": "view",
      "type": "function"
    },
    {
      "constant": true,
      "inputs": [],
      "name": "stakingTransitionTimeframeLength",
      "outputs": [
        {
          "internalType": "uint256",
          "name": "",
          "type": "uint256"
        }
      ],
      "payable": false,
      "stateMutability": "view",
      "type": "function"
    },
    {
      "constant": true,
      "inputs": [],
      "name": "stakingWithdrawDisallowPeriod",
      "outputs": [
        {
          "internalType": "uint256",
          "name": "",
          "type": "uint256"
        }
      ],
      "payable": false,
      "stateMutability": "view",
      "type": "function"
    },
    {
      "constant": true,
      "inputs": [],
      "name": "startTimeOfNextPhaseTransition",
      "outputs": [
        {
          "internalType": "uint256",
          "name": "",
          "type": "uint256"
        }
      ],
      "payable": false,
      "stateMutability": "view",
      "type": "function"
    },
    {
      "constant": false,
      "inputs": [],
      "name": "upgrade",
      "outputs": [],
      "payable": false,
      "stateMutability": "nonpayable",
      "type": "function"
    },
    {
      "constant": true,
      "inputs": [],
      "name": "validatorSetContract",
      "outputs": [
        {
          "internalType": "contract IValidatorSetHbbft",
          "name": "",
          "type": "address"
        }
      ],
      "payable": false,
      "stateMutability": "view",
      "type": "function"
    },
    {
      "constant": false,
      "inputs": [
        {
          "internalType": "address",
          "name": "_fromPoolStakingAddress",
          "type": "address"
        },
        {
          "internalType": "uint256",
          "name": "_amount",
          "type": "uint256"
        }
      ],
      "name": "withdraw",
      "outputs": [],
      "payable": false,
      "stateMutability": "nonpayable",
      "type": "function"
    }
  ],
  "bytecode": "0x608060405234801561001057600080fd5b5061681480620000216000396000f3fe60806040526004361061043b5760003560e01c8063950a651311610234578063d290c21d1161012e578063eb3efa16116100b6578063f3fef3a31161007a578063f3fef3a31461146a578063f4942501146114a3578063fa4aaf47146114b8578063fb367a9b146114eb578063ffada862146115af5761043b565b8063eb3efa16146113c5578063edd7db75146113f8578063edf94b821461140d578063ee435f5514611440578063f0786096146114555761043b565b8063dadee88a116100fd578063dadee88a146112d8578063df6f55f51461130b578063dfc8bf4e14611320578063e2a43cd914611351578063e9ab03001461138a5761043b565b8063d290c21d14611214578063d55ec69714611229578063d958e2e91461123e578063da7a9b6a146112c35761043b565b8063a697ecff116101bc578063b61ed63a11610180578063b61ed63a14611115578063bc9eb2c31461114e578063bd30d31d14611189578063c6912cc0146111cc578063cfef1441146111e15761043b565b8063a697ecff1461104a578063a711e6a114611085578063adddc0cf146110b8578063ae1aaf80146110cd578063b42754a5146110e25761043b565b80639b03d744116102035780639b03d74414610f885780639e72c63514610f9d5780639ea8082b14610fc7578063a420596714610ffa578063a5d54f65146110355761043b565b8063950a651314610ddc5780639518c48114610e17578063957950a714610e525780639a7b5f1114610ec25761043b565b80634f9a8d8f1161034557806365113918116102cd57806373c218031161029157806373c2180314610cfc578063750dd2a114610d2f578063794c0c6814610d6a5780637b15b94c14610d7f5780638247a23914610db25761043b565b80636511391814610bd1578063673a2a1f14610c045780636bda157714610c695780636eda21dc14610ca45780637069e74614610ce75761043b565b80635ca2b650116103145780635ca2b65014610b075780635d80ca3214610b315780635fef764314610b46578063611d760c14610b5b5780636421314714610b8e5761043b565b80634f9a8d8f146109fc5780635267e1d614610a115780635659b74214610a4457806356e4d6c214610a7f5761043b565b806326476204116103c8578063392e53cd11610397578063392e53cd146108295780633b7d09461461083e5780633ea15d621461087157806348aaa4a21461092a5780634e9b426d146109545761043b565b8063264762041461076d5780632bafde8d1461079357806331727730146107bd578063379b046a146108145761043b565b80630b0eb6661161040f5780630b0eb666146105605780631555371c146106b05780631fb31e43146106c557806322e3d98614610715578063251441a91461072a5761043b565b80622ceebc14610476578063028b8bdb146104cb57806303a81065146104e05780630868c0d614610525575b6040805162461bcd60e51b815260206004820152600b60248201526a4e6f742070617961626c6560a81b604482015290519081900360640190fd5b34801561048257600080fd5b506104b96004803603606081101561049957600080fd5b506001600160a01b038135811691602081013590911690604001356115e2565b60408051918252519081900360200190f35b3480156104d757600080fd5b506104b9611605565b3480156104ec57600080fd5b506105236004803603606081101561050357600080fd5b506001600160a01b0381358116916020810135909116906040013561160b565b005b34801561053157600080fd5b506104b96004803603604081101561054857600080fd5b506001600160a01b038135811691602001351661163e565b34801561056c57600080fd5b50610523600480360361014081101561058457600080fd5b6001600160a01b038235169190810190604081016020820135600160201b8111156105ae57600080fd5b8201836020820111156105c057600080fd5b803590602001918460208302840111600160201b831117156105e157600080fd5b9193909282359260208101359260408201359260608301359260808101359260a082013592909160e081019060c00135600160201b81111561062257600080fd5b82018360208201111561063457600080fd5b803590602001918460208302840111600160201b8311171561065557600080fd5b919390929091602081019035600160201b81111561067257600080fd5b82018360208201111561068457600080fd5b803590602001918460208302840111600160201b831117156106a557600080fd5b50909250905061165b565b3480156106bc57600080fd5b506105236118fc565b3480156106d157600080fd5b506106f8600480360360208110156106e857600080fd5b50356001600160a01b03166119e4565b604080516001600160801b03199092168252519081900360200190f35b34801561072157600080fd5b506104b9611a05565b34801561073657600080fd5b506105236004803603606081101561074d57600080fd5b506001600160a01b03813581169160208101359091169060400135611a32565b6105236004803603602081101561078357600080fd5b50356001600160a01b0316611b77565b34801561079f57600080fd5b50610523600480360360208110156107b657600080fd5b5035611bcb565b3480156107c957600080fd5b50610800600480360360608110156107e057600080fd5b506001600160a01b03813581169160208101359091169060400135611c6e565b604080519115158252519081900360200190f35b34801561082057600080fd5b506104b9611c94565b34801561083557600080fd5b50610800611c9a565b34801561084a57600080fd5b506105236004803603602081101561086157600080fd5b50356001600160a01b0316611cab565b34801561087d57600080fd5b506105236004803603604081101561089457600080fd5b810190602081018135600160201b8111156108ae57600080fd5b8201836020820111156108c057600080fd5b803590602001918460208302840111600160201b831117156108e157600080fd5b919080806020026020016040519081016040528093929190818152602001838360200280828437600092019190915250929550505090356001600160a01b03169150611d0a9050565b34801561093657600080fd5b506105236004803603602081101561094d57600080fd5b5035612459565b34801561096057600080fd5b506109876004803603602081101561097757600080fd5b50356001600160a01b03166124fc565b6040805160208082528351818301528351919283929083019185019080838360005b838110156109c15781810151838201526020016109a9565b50505050905090810190601f1680156109ee5780820380516001836020036101000a031916815260200191505b509250505060405180910390f35b348015610a0857600080fd5b506104b96125a7565b348015610a1d57600080fd5b506104b960048036036020811015610a3457600080fd5b50356001600160a01b03166125ad565b348015610a5057600080fd5b506104b960048036036040811015610a6757600080fd5b506001600160a01b03813581169160200135166125be565b61052360048036036060811015610a9557600080fd5b6001600160a01b038235169190810190604081016020820135600160201b811115610abf57600080fd5b820183602082011115610ad157600080fd5b803590602001918460018302840111600160201b83111715610af257600080fd5b9193509150356001600160801b0319166125db565b348015610b1357600080fd5b5061052360048036036020811015610b2a57600080fd5b50356126f4565b348015610b3d57600080fd5b506104b96126f9565b348015610b5257600080fd5b506104b96126ff565b348015610b6757600080fd5b5061052360048036036020811015610b7e57600080fd5b50356001600160a01b0316612705565b348015610b9a57600080fd5b5061052360048036036060811015610bb157600080fd5b506001600160a01b03813581169160208101359091169060400135612710565b348015610bdd57600080fd5b506104b960048036036020811015610bf457600080fd5b50356001600160a01b031661273c565b348015610c1057600080fd5b50610c1961274e565b60408051602080825283518183015283519192839290830191858101910280838360005b83811015610c55578181015183820152602001610c3d565b505050509050019250505060405180910390f35b348015610c7557600080fd5b506104b960048036036040811015610c8c57600080fd5b506001600160a01b03813581169160200135166127b0565b348015610cb057600080fd5b5061052360048036036060811015610cc757600080fd5b506001600160a01b03813581169160208101359091169060400135612917565b348015610cf357600080fd5b506104b961294f565b348015610d0857600080fd5b50610c1960048036036020811015610d1f57600080fd5b50356001600160a01b0316612955565b348015610d3b57600080fd5b506104b960048036036040811015610d5257600080fd5b506001600160a01b03813581169160200135166129ca565b348015610d7657600080fd5b506104b96129ff565b348015610d8b57600080fd5b5061052360048036036020811015610da257600080fd5b50356001600160a01b0316612a05565b348015610dbe57600080fd5b5061052360048036036020811015610dd557600080fd5b5035612a95565b348015610de857600080fd5b506104b960048036036040811015610dff57600080fd5b506001600160a01b0381358116916020013516612af1565b348015610e2357600080fd5b506104b960048036036040811015610e3a57600080fd5b506001600160a01b0381358116916020013516612c61565b348015610e5e57600080fd5b50610e67612c7e565b6040518080602001838152602001828103825284818151815260200191508051906020019060200280838360005b83811015610ead578181015183820152602001610e95565b50505050905001935050505060405180910390f35b348015610ece57600080fd5b50610ef560048036036020811015610ee557600080fd5b50356001600160a01b0316612ce1565b6040518080602001836001600160801b0319166001600160801b0319168152602001828103825284818151815260200191508051906020019080838360005b83811015610f4c578181015183820152602001610f34565b50505050905090810190601f168015610f795780820380516001836020036101000a031916815260200191505b50935050505060405180910390f35b348015610f9457600080fd5b506104b9612d8b565b348015610fa957600080fd5b5061052360048036036020811015610fc057600080fd5b5035612d91565b348015610fd357600080fd5b50610c1960048036036020811015610fea57600080fd5b50356001600160a01b0316612df3565b34801561100657600080fd5b506104b96004803603604081101561101d57600080fd5b506001600160a01b0381358116916020013516612e67565b34801561104157600080fd5b50610c19612e84565b34801561105657600080fd5b506104b96004803603604081101561106d57600080fd5b506001600160a01b0381358116916020013516612ee4565b34801561109157600080fd5b50610800600480360360208110156110a857600080fd5b50356001600160a01b0316612f01565b3480156110c457600080fd5b50610523612f5a565b3480156110d957600080fd5b506104b9612fbb565b3480156110ee57600080fd5b506104b96004803603602081101561110557600080fd5b50356001600160a01b0316612fc1565b34801561112157600080fd5b506105236004803603604081101561113857600080fd5b506001600160a01b038135169060200135612fd3565b34801561115a57600080fd5b506104b96004803603604081101561117157600080fd5b506001600160a01b03813581169160200135166134d2565b34801561119557600080fd5b50610523600480360360608110156111ac57600080fd5b506001600160a01b038135811691602081013590911690604001356134ef565b3480156111d857600080fd5b506104b961351b565b3480156111ed57600080fd5b506105236004803603602081101561120457600080fd5b50356001600160a01b0316613529565b34801561122057600080fd5b50610c1961383b565b34801561123557600080fd5b5061052361389b565b34801561124a57600080fd5b506105236004803603604081101561126157600080fd5b810190602081018135600160201b81111561127b57600080fd5b82018360208201111561128d57600080fd5b803590602001918460018302840111600160201b831117156112ae57600080fd5b9193509150356001600160801b0319166138b3565b3480156112cf57600080fd5b506104b96138fc565b3480156112e457600080fd5b506104b9600480360360208110156112fb57600080fd5b50356001600160a01b0316613902565b34801561131757600080fd5b50610c19613914565b34801561132c57600080fd5b50611335613974565b604080516001600160a01b039092168252519081900360200190f35b34801561135d57600080fd5b506105236004803603604081101561137457600080fd5b506001600160a01b038135169060200135613983565b34801561139657600080fd5b506104b9600480360360408110156113ad57600080fd5b506001600160a01b038135811691602001351661399e565b3480156113d157600080fd5b50610523600480360360208110156113e857600080fd5b50356001600160a01b03166139bb565b34801561140457600080fd5b506105236139dd565b34801561141957600080fd5b506104b96004803603602081101561143057600080fd5b50356001600160a01b0316613bae565b34801561144c57600080fd5b50610523613bc0565b34801561146157600080fd5b506104b9613c23565b34801561147657600080fd5b506105236004803603604081101561148d57600080fd5b506001600160a01b038135169060200135613c29565b3480156114af57600080fd5b50610800613d1b565b3480156114c457600080fd5b506104b9600480360360208110156114db57600080fd5b50356001600160a01b0316613d20565b3480156114f757600080fd5b506104b96004803603606081101561150e57600080fd5b810190602081018135600160201b81111561152857600080fd5b82018360208201111561153a57600080fd5b803590602001918460208302840111600160201b8311171561155b57600080fd5b919080806020026020016040519081016040528093929190818152602001838360200280828437600092019190915250929550506001600160a01b038335811694506020909301359092169150613d329050565b3480156115bb57600080fd5b50610523600480360360208110156115d257600080fd5b50356001600160a01b0316614294565b600b60209081526000938452604080852082529284528284209052825290205481565b60195481565b6001600160a01b039283166000908152600b60209081526040808320949095168252928352838120918152915290812055565b600f60209081526000928352604080842090915290825290205481565b866116ad576040805162461bcd60e51b815260206004820152601760248201527f466978656445706f63684475726174696f6e2069732030000000000000000000604482015290519081900360640190fd5b8487116116eb5760405162461bcd60e51b815260040180806020018281038252603d8152602001806164d8603d913960400191505060405180910390fd5b8461173d576040805162461bcd60e51b815260206004820152601b60248201527f5769746864726177446973616c6c6f77506572696f6420697320300000000000604482015290519081900360640190fd5b856117795760405162461bcd60e51b815260040180806020018281038252602e815260200180616485602e913960400191505060405180910390fd5b8686106117b75760405162461bcd60e51b81526004018080602001828103825260408152602001806166b66040913960400191505060405180910390fd5b61186a8d8d8d80806020026020016040519081016040528093929190818152602001838360200280828437600081840152601f19601f820116905080830192505050505050508c8c8c89898080602002602001604051908101604052809392919081815260200183836020028082843760009201919091525050604080516020808d0282810182019093528c82529093508c92508b91829185019084908082843760009201919091525061429d92505050565b601b879055601985905560215460408051636c9230db60e01b815290516001600160a01b0390921691636c9230db91600480820192602092909190829003018186803b1580156118b957600080fd5b505afa1580156118cd573d6000803e3d6000fd5b505050506040513d60208110156118e357600080fd5b5051601d55505050601c92909255505050505050505050565b6021546001600160a01b0316331461194f576040805162461bcd60e51b815260206004820152601160248201527013db9b1e4815985b1a59185d1bdc94d95d607a1b604482015290519081900360640190fd5b606060038054806020026020016040519081016040528092919081815260200182805480156119a757602002820191906000526020600020905b81546001600160a01b03168152600190910190602001808311611989575b50939450600093505050505b81518110156119e0576119d88282815181106119cb57fe5b6020026020010151614773565b6001016119b3565b5050565b6001600160a01b031660009081526022602052604090206001015460801b90565b601d54601b546000919015611a1b576001611a1e565b60005b60ff16601f54601b54830101039150505b90565b3a611a74576040805162461bcd60e51b815260206004820152600d60248201526c04761735072696365206973203609c1b604482015290519081900360640190fd5b611a7c611c9a565b611abb576040805162461bcd60e51b815260206004820152601860248201526000805160206165c5833981519152604482015290519081900360640190fd5b816001600160a01b0316836001600160a01b03161415611b0c5760405162461bcd60e51b81526004018080602001828103825260278152602001806166166027913960400191505060405180910390fd5b33611b18848284614894565b611b23838284614b10565b601a54604080516001600160a01b03878116825260208201869052825181861693918816927f4480d8e4b1e9095b94bf513961d26fe1d32386ebdd103d18fe8738cf4b2223ff92908290030190a450505050565b3a611bb9576040805162461bcd60e51b815260206004820152600d60248201526c04761735072696365206973203609c1b604482015290519081900360640190fd5b3334611bc6838383614b10565b505050565b611bd3615035565b6001600160a01b0316336001600160a01b031614611c225760405162461bcd60e51b815260040180806020018281038252602b81526020018061674a602b913960400191505060405180910390fd5b611c2a611c9a565b611c69576040805162461bcd60e51b815260206004820152601860248201526000805160206165c5833981519152604482015290519081900360640190fd5b600a55565b601560209081526000938452604080852082529284528284209052825290205460ff1681565b601f5481565b6021546001600160a01b0316151590565b6021546001600160a01b03163314611cfe576040805162461bcd60e51b815260206004820152601160248201527013db9b1e4815985b1a59185d1bdc94d95d607a1b604482015290519081900360640190fd5b611d0781614773565b50565b3a611d4c576040805162461bcd60e51b815260206004820152600d60248201526c04761735072696365206973203609c1b604482015290519081900360640190fd5b611d54611c9a565b611d93576040805162461bcd60e51b815260206004820152601860248201526000805160206165c5833981519152604482015290519081900360640190fd5b336000806001600160a01b0384168314611e49576001600160a01b03808516600090815260176020908152604080832093871683529290522054915081611e21576040805162461bcd60e51b815260206004820152601d60248201527f436c61696d3a2066697273742065706f63682063616e27742062652030000000604482015290519081900360640190fd5b506001600160a01b038084166000908152601860209081526040808320938616835292905220545b60215460408051632b5aa5d760e11b815290516000926001600160a01b0316916356b54bae916004808301926020929190829003018186803b158015611e8e57600080fd5b505afa158015611ea2573d6000803e3d6000fd5b505050506040513d6020811015611eb857600080fd5b5051602154604080516253517560e01b81526001600160a01b0389811660048301529151939450600093919092169162535175916024808301926020929190829003018186803b158015611f0b57600080fd5b505afa158015611f1f573d6000803e3d6000fd5b505050506040513d6020811015611f3557600080fd5b50518751909150600090819061206557836001600160a01b031663dd03f5b9846040518263ffffffff1660e01b815260040180826001600160a01b03166001600160a01b0316815260200191505060006040518083038186803b158015611f9b57600080fd5b505afa158015611faf573d6000803e3d6000fd5b505050506040513d6000823e601f3d908101601f191682016040526020811015611fd857600080fd5b8101908080516040519392919084600160201b821115611ff757600080fd5b90830190602082018581111561200c57600080fd5b82518660208202830111600160201b8211171561202857600080fd5b82525081516020918201928201910280838360005b8381101561205557818101518382015260200161203d565b5050505090500160405250505098505b60005b89518110156123d55760008a828151811061207f57fe5b6020026020010151905081600014806120ad57508a60018303815181106120a257fe5b602002602001015181115b6120e85760405162461bcd60e51b81526004018080602001828103825260258152602001806162a76025913960400191505060405180910390fd5b601a54811061213e576040805162461bcd60e51b815260206004820181905260248201527f436c61696d3a206f6e6c79206265666f72652063757272656e742065706f6368604482015290519081900360640190fd5b6001600160a01b03808b166000908152601560209081526040808320938d1683529281528282208483529052205460ff161561217a57506123cd565b6000896001600160a01b03168b6001600160a01b03161461226d57888210156121a45750506123cd565b8188111580156121b357508715155b156121bf5750506123d5565b6121cc828a868e8e61505a565b9350816001019850866001600160a01b031663e1ab96d88584896040518463ffffffff1660e01b815260040180848152602001838152602001826001600160a01b03166001600160a01b03168152602001935050505060206040518083038186803b15801561223a57600080fd5b505afa15801561224e573d6000803e3d6000fd5b505050506040513d602081101561226457600080fd5b505190506122fa565b866001600160a01b031663ba2d759783886040518363ffffffff1660e01b815260040180838152602001826001600160a01b03166001600160a01b031681526020019250505060206040518083038186803b1580156122cb57600080fd5b505afa1580156122df573d6000803e3d6000fd5b505050506040513d60208110156122f557600080fd5b505190505b61230a858263ffffffff6150cf16565b94506001601560008d6001600160a01b03166001600160a01b0316815260200190815260200160002060008c6001600160a01b03166001600160a01b03168152602001908152602001600020600084815260200190815260200160002060006101000a81548160ff021916908315150217905550818a6001600160a01b03168c6001600160a01b03167fd3208fd5300db64b97bc442f47ade72b7ebcd9272aaecdcc04c777bb762861b9846040518082815260200191505060405180910390a450505b600101612068565b50836001600160a01b031663469507c683896040518363ffffffff1660e01b815260040180838152602001826001600160a01b03166001600160a01b0316815260200192505050600060405180830381600087803b15801561243657600080fd5b505af115801561244a573d6000803e3d6000fd5b50505050505050505050505050565b612461615035565b6001600160a01b0316336001600160a01b0316146124b05760405162461bcd60e51b815260040180806020018281038252602b81526020018061674a602b913960400191505060405180910390fd5b6124b8611c9a565b6124f7576040805162461bcd60e51b815260206004820152601860248201526000805160206165c5833981519152604482015290519081900360640190fd5b600955565b6001600160a01b03811660009081526022602090815260409182902080548351601f600260001961010060018616150201909316929092049182018490048402810184019094528084526060939283018282801561259b5780601f106125705761010080835404028352916020019161259b565b820191906000526020600020905b81548152906001019060200180831161257e57829003601f168201915b50505050509050919050565b601b5481565b602080526000908152604090205481565b601760209081526000928352604080842090915290825290205481565b3a61261d576040805162461bcd60e51b815260206004820152600d60248201526c04761735072696365206973203609c1b604482015290519081900360640190fd5b60215460408051630526083960e11b81526001600160a01b0387811660048301523360248301819052925192933493911691630a4c107291604480830192600092919082900301818387803b15801561267557600080fd5b505af1158015612689573d6000803e3d6000fd5b50505050612698828383614b10565b6001600160a01b03821660009081526022602052604090206126bb90868661610a565b50506001600160a01b0316600090815260226020526040902060010180546001600160801b03191660809290921c919091179055505050565b601a55565b60235481565b60095481565b611d078160016150e1565b6001600160a01b0392831660009081526018602090815260408083209490951682529290925291902055565b60116020526000908152604090205481565b606060008054806020026020016040519081016040528092919081815260200182805480156127a657602002820191906000526020600020905b81546001600160a01b03168152600190910190602001808311612788575b5050505050905090565b602154604080516253517560e01b81526001600160a01b03858116600483015291516000938493169162535175916024808301926020929190829003018186803b1580156127fd57600080fd5b505afa158015612811573d6000803e3d6000fd5b505050506040513d602081101561282757600080fd5b50519050612844816001600160a01b0386811690861614156151bd565b612852576000915050612911565b6001600160a01b038085166000908152601660209081526040808320878516845282529182902054602154835163a0d16cad60e01b8152868616600482015293519194169263a0d16cad926024808301939192829003018186803b1580156128b957600080fd5b505afa1580156128cd573d6000803e3d6000fd5b505050506040513d60208110156128e357600080fd5b50516128f25791506129119050565b60006128fe86866129ca565b90508082111561290c578091505b509150505b92915050565b6001600160a01b039283166000908152601560209081526040808320949095168252928352838120918152915220805460ff19169055565b601e5481565b6001600160a01b03811660009081526007602090815260409182902080548351818402810184019094528084526060939283018282801561259b57602002820191906000526020600020905b81546001600160a01b031681526001909101906020018083116129a15750505050509050919050565b6001600160a01b039182166000908152600860209081526040808320939094168252918252828120601a548252909152205490565b601a5481565b6021546001600160a01b03163314612a58576040805162461bcd60e51b815260206004820152601160248201527013db9b1e4815985b1a59185d1bdc94d95d607a1b604482015290519081900360640190fd5b6009546001600160a01b038216600090815260166020908152604080832090915290205410611d0757612a8c8160016150e1565b611d07816152f3565b6021546001600160a01b03163314612ae8576040805162461bcd60e51b815260206004820152601160248201527013db9b1e4815985b1a59185d1bdc94d95d607a1b604482015290519081900360640190fd5b601d5543601e55565b602154604080516253517560e01b81526001600160a01b03858116600483015291516000938493169162535175916024808301926020929190829003018186803b158015612b3e57600080fd5b505afa158015612b52573d6000803e3d6000fd5b505050506040513d6020811015612b6857600080fd5b50519050612b85816001600160a01b0386811690861614156151bd565b612b93576000915050612911565b6021546040805163a0d16cad60e01b81526001600160a01b0384811660048301529151919092169163a0d16cad916024808301926020929190829003018186803b158015612be057600080fd5b505afa158015612bf4573d6000803e3d6000fd5b505050506040513d6020811015612c0a57600080fd5b5051612c1a576000915050612911565b612c59612c2785856129ca565b6001600160a01b038087166000908152601660209081526040808320938916835292905220549063ffffffff6153b316565b949350505050565b601060209081526000928352604080842090915290825290205481565b60606000600460055481805480602002602001604051908101604052809291908181526020018280548015612cd257602002820191906000526020600020905b815481526020019060010190808311612cbe575b50505050509150915091509091565b60226020908152600091825260409182902080548351601f60026000196101006001861615020190931692909204918201849004840281018401909452808452909291839190830182828015612d785780601f10612d4d57610100808354040283529160200191612d78565b820191906000526020600020905b815481529060010190602001808311612d5b57829003601f168201915b5050506001909301549192505060801b82565b601d5481565b6021546001600160a01b03163314612de4576040805162461bcd60e51b815260206004820152601160248201527013db9b1e4815985b1a59185d1bdc94d95d607a1b604482015290519081900360640190fd5b601c54601f8054909201019055565b6001600160a01b03811660009081526006602090815260409182902080548351818402810184019094528084526060939283018282801561259b576020028201919060005260206000209081546001600160a01b031681526001909101906020018083116129a15750505050509050919050565b600e60209081526000928352604080842090915290825290205481565b606060028054806020026020016040519081016040528092919081815260200182805480156127a6576020028201919060005260206000209081546001600160a01b03168152600190910190602001808311612788575050505050905090565b601660209081526000928352604080842090915290825290205481565b6001600160a01b038116600090815260126020526040812054815481108015612f535750826001600160a01b031660008281548110612f3c57fe5b6000918252602090912001546001600160a01b0316145b9392505050565b6021546001600160a01b03163314612fad576040805162461bcd60e51b815260206004820152601160248201527013db9b1e4815985b1a59185d1bdc94d95d607a1b604482015290519081900360640190fd5b601c54601f80549091019055565b601c5481565b60126020526000908152604090205481565b3a613015576040805162461bcd60e51b815260206004820152600d60248201526c04761735072696365206973203609c1b604482015290519081900360640190fd5b61301d611c9a565b61305c576040805162461bcd60e51b815260206004820152601860248201526000805160206165c5833981519152604482015290519081900360640190fd5b6001600160a01b0382166130a15760405162461bcd60e51b815260040180806020018281038252602281526020018061632a6022913960400191505060405180910390fd5b806130dd5760405162461bcd60e51b81526004018080602001828103825260258152602001806164b36025913960400191505060405180910390fd5b602154604080516253517560e01b81526001600160a01b0385811660048301529151339361316c93169162535175916024808301926020929190829003018186803b15801561312b57600080fd5b505afa15801561313f573d6000803e3d6000fd5b505050506040513d602081101561315557600080fd5b50516001600160a01b0383811690861614156151bd565b6131bd576040805162461bcd60e51b815260206004820152601a60248201527f4f7264657257697468647261773a206e6f7420616c6c6f776564000000000000604482015290519081900360640190fd5b6001600160a01b038084166000818152600c6020908152604080832094861680845294825280832054848452600d8352818420546016845282852096855295835281842054948452918052822054909392918613156132d757856132218887612af1565b81111561325f5760405162461bcd60e51b815260040180806020018281038252602f8152602001806167b1602f913960400191505060405180910390fd5b61326f858263ffffffff6150cf16565b9450613281848263ffffffff6150cf16565b9350613293838263ffffffff6153b316565b92506132a5828263ffffffff6153b316565b601a546001600160a01b03808b166000908152600e60209081526040808320938c168352929052205591506133269050565b60008690036132ec858263ffffffff6153b316565b94506132fe848263ffffffff6153b316565b9350613310838263ffffffff6150cf16565b9250613322828263ffffffff6150cf16565b9150505b6001600160a01b038088166000818152600c60209081526040808320948a16808452948252808320899055838352600d8252808320889055601682528083208584528252808320879055838352908052902083905514156133f75781158061339057506009548210155b6133cb5760405162461bcd60e51b815260040180806020018281038252603381526020018061634c6033913960400191505060405180910390fd5b60008613156133e757816133e2576133e2876153c8565b6133f2565b6133f28760016150e1565b613472565b8115806134065750600a548210155b6134415760405162461bcd60e51b815260040180806020018281038252603381526020018061634c6033913960400191505060405180910390fd5b600086131561345e5781613459576134598786615486565b613468565b61346887866155de565b61347287866156a0565b61347b876152f3565b601a54856001600160a01b0316886001600160a01b03167f80d5c777e5f7ac6ee89723223803ca5c0ec0204f89e99c1b0cde973c66a64594896040518082815260200191505060405180910390a450505050505050565b601860209081526000928352604080842090915290825290205481565b6001600160a01b0392831660009081526017602090815260408083209490951682529290925291902055565b601c54601b54601d54010390565b3a61356b576040805162461bcd60e51b815260206004820152600d60248201526c04761735072696365206973203609c1b604482015290519081900360640190fd5b613573611c9a565b6135b2576040805162461bcd60e51b815260206004820152601860248201526000805160206165c5833981519152604482015290519081900360640190fd5b6001600160a01b0381166000908152600e6020908152604080832033808552925290912054601a54116136165760405162461bcd60e51b815260040180806020018281038252603f81526020018061653e603f913960400191505060405180910390fd5b602154604080516253517560e01b81526001600160a01b03858116600483015291516136a79392909216916253517591602480820192602092909190829003018186803b15801561366657600080fd5b505afa15801561367a573d6000803e3d6000fd5b505050506040513d602081101561369057600080fd5b50516001600160a01b0383811690851614156151bd565b6136e25760405162461bcd60e51b815260040180806020018281038252602a815260200180616720602a913960400191505060405180910390fd5b6001600160a01b038083166000908152600c60209081526040808320938516835292905220548061375a576040805162461bcd60e51b815260206004820152601a60248201527f636c61696d20616d6f756e74206d757374206e6f742062652030000000000000604482015290519081900360640190fd5b6001600160a01b038084166000818152600c602090815260408083209487168352938152838220829055918152600d909152205461379e908263ffffffff6153b316565b6001600160a01b038085166000908152600d60209081526040808320949094556016815283822092861682529190915220546137de576137de8383615792565b6137e882826158e5565b601a54826001600160a01b0316846001600160a01b03167ff380b0bc887e00f5b50d3c9d4eaaf5c9a0afd97b956316b995159384c4ede9b3846040518082815260200191505060405180910390a4505050565b606060038054806020026020016040519081016040528092919081815260200182805480156127a6576020028201919060005260206000209081546001600160a01b03168152600190910190602001808311612788575050505050905090565b6023546138b157690a968163f0a57b4000006023555b565b3360009081526022602052604090206138cd90848461610a565b5033600090815260226020526040902060010180546001600160801b03191660809290921c9190911790555050565b600a5481565b600d6020526000908152604090205481565b606060018054806020026020016040519081016040528092919081815260200182805480156127a6576020028201919060005260206000209081546001600160a01b03168152600190910190602001808311612788575050505050905090565b6021546001600160a01b031681565b6001600160a01b039091166000908152602080526040902055565b600c60209081526000928352604080842090915290825290205481565b602180546001600160a01b0319166001600160a01b0392909216919091179055565b3a613a1f576040805162461bcd60e51b815260206004820152600d60248201526c04761735072696365206973203609c1b604482015290519081900360640190fd5b613a27611c9a565b613a66576040805162461bcd60e51b815260206004820152601860248201526000805160206165c5833981519152604482015290519081900360640190fd5b602154604080516253517560e01b81523360048201819052915191926000926001600160a01b039091169162535175916024808301926020929190829003018186803b158015613ab557600080fd5b505afa158015613ac9573d6000803e3d6000fd5b505050506040513d6020811015613adf57600080fd5b5051601a54909150151580613b6a57506021546040805163facd743b60e01b81526001600160a01b0384811660048301529151919092169163facd743b916024808301926020929190829003018186803b158015613b3c57600080fd5b505afa158015613b50573d6000803e3d6000fd5b505050506040513d6020811015613b6657600080fd5b5051155b613ba55760405162461bcd60e51b815260040180806020018281038252602a8152602001806166f6602a913960400191505060405180910390fd5b6119e082614773565b60146020526000908152604090205481565b6021546001600160a01b03163314613c13576040805162461bcd60e51b815260206004820152601160248201527013db9b1e4815985b1a59185d1bdc94d95d607a1b604482015290519081900360640190fd5b601a805460010190556000601f55565b610bb881565b3a613c6b576040805162461bcd60e51b815260206004820152600d60248201526c04761735072696365206973203609c1b604482015290519081900360640190fd5b613c73611c9a565b613cb2576040805162461bcd60e51b815260206004820152601860248201526000805160206165c5833981519152604482015290519081900360640190fd5b33613cbe838284614894565b613cc881836158e5565b601a54816001600160a01b0316846001600160a01b03167fa7c0f0cac6bd4d18042007706c84a8abe823751cf289b69c01e83eef7b5915c7856040518082815260200191505060405180910390a4505050565b600190565b60136020526000908152604090205481565b6000806000836001600160a01b0316856001600160a01b031614613ddc576001600160a01b03808616600090815260176020908152604080832093881683529290522054915081613db45760405162461bcd60e51b815260040180806020018281038252602e8152602001806162cc602e913960400191505060405180910390fd5b506001600160a01b038085166000908152601860209081526040808320938716835292905220545b60215460408051632b5aa5d760e11b815290516000926001600160a01b0316916356b54bae916004808301926020929190829003018186803b158015613e2157600080fd5b505afa158015613e35573d6000803e3d6000fd5b505050506040513d6020811015613e4b57600080fd5b5051602154604080516253517560e01b81526001600160a01b038a811660048301529151939450600093919092169162535175916024808301926020929190829003018186803b158015613e9e57600080fd5b505afa158015613eb2573d6000803e3d6000fd5b505050506040513d6020811015613ec857600080fd5b505188519091506000908190613ff857836001600160a01b031663dd03f5b9846040518263ffffffff1660e01b815260040180826001600160a01b03166001600160a01b0316815260200191505060006040518083038186803b158015613f2e57600080fd5b505afa158015613f42573d6000803e3d6000fd5b505050506040513d6000823e601f3d908101601f191682016040526020811015613f6b57600080fd5b8101908080516040519392919084600160201b821115613f8a57600080fd5b908301906020820185811115613f9f57600080fd5b82518660208202830111600160201b82111715613fbb57600080fd5b82525081516020918201928201910280838360005b83811015613fe8578181015183820152602001613fd0565b5050505090500160405250505099505b60005b8a518110156142865760008b828151811061401257fe5b60200260200101519050816000148061404057508b600183038151811061403557fe5b602002602001015181115b61407b5760405162461bcd60e51b81526004018080602001828103825260368152602001806163a46036913960400191505060405180910390fd5b601a5481106140bb5760405162461bcd60e51b815260040180806020018281038252603c815260200180616775603c913960400191505060405180910390fd5b6001600160a01b03808c166000908152601560209081526040808320938e1683529281528282208483529052205460ff16156140f7575061427e565b60008a6001600160a01b03168c6001600160a01b0316146141ea578882101561412157505061427e565b81881115801561413057508715155b1561413c575050614286565b614149828a878f8f61505a565b9450816001019850866001600160a01b031663e1ab96d88684896040518463ffffffff1660e01b815260040180848152602001838152602001826001600160a01b03166001600160a01b03168152602001935050505060206040518083038186803b1580156141b757600080fd5b505afa1580156141cb573d6000803e3d6000fd5b505050506040513d60208110156141e157600080fd5b50519050614277565b866001600160a01b031663ba2d759783886040518363ffffffff1660e01b815260040180838152602001826001600160a01b03166001600160a01b031681526020019250505060206040518083038186803b15801561424857600080fd5b505afa15801561425c573d6000803e3d6000fd5b505050506040513d602081101561427257600080fd5b505190505b9290920191505b600101613ffb565b509998505050505050505050565b611d0781615948565b6142a5615035565b6001600160a01b0316336001600160a01b031614806142dc57506142c7615035565b6001600160a01b0316326001600160a01b0316145b806142f557506142ea615035565b6001600160a01b0316155b806142fe575043155b6143395760405162461bcd60e51b81526004018080602001828103825260308152602001806162fa6030913960400191505060405180910390fd5b614341611c9a565b15614389576040805162461bcd60e51b8152602060048201526013602482015272105b1c9958591e481a5b9a5d1a585b1a5e9959606a1b604482015290519081900360640190fd5b6001600160a01b0387166143e4576040805162461bcd60e51b815260206004820152601760248201527f56616c696461746f725365742063616e27742062652030000000000000000000604482015290519081900360640190fd5b60008651116144245760405162461bcd60e51b815260040180806020018281038252602581526020018061657d6025913960400191505060405180910390fd5b8151865161443990600263ffffffff615a0016565b146144755760405162461bcd60e51b81526004018080602001828103825260298152602001806165156029913960400191505060405180910390fd5b80518651146144b55760405162461bcd60e51b815260040180806020018281038252602a815260200180616408602a913960400191505060405180910390fd5b84614500576040805162461bcd60e51b8152602060048201526016602482015275044656c656761746f724d696e5374616b6520697320360541b604482015290519081900360640190fd5b8361454b576040805162461bcd60e51b8152602060048201526016602482015275043616e6469646174654d696e5374616b6520697320360541b604482015290519081900360640190fd5b8383116145895760405162461bcd60e51b81526004018080602001828103825260318152602001806165e56031913960400191505060405180910390fd5b602180546001600160a01b0319166001600160a01b03891617905560005b86518110156147605760006001600160a01b03168782815181106145c757fe5b60200260200101516001600160a01b031614156146155760405162461bcd60e51b81526004018080602001828103825260228152602001806164636022913960400191505060405180910390fd5b61463387828151811061462457fe5b602002602001015160006150e1565b61464f87828151811061464257fe5b60200260200101516153c8565b82816002028151811061465e57fe5b602002602001015183826002026001018151811061467857fe5b60200260200101516040516020018083815260200182815260200192505050604051602081830303815290604052602260008984815181106146b657fe5b60200260200101516001600160a01b03166001600160a01b0316815260200190815260200160002060000190805190602001906146f4929190616188565b5081818151811061470157fe5b60200260200101516022600089848151811061471957fe5b6020908102919091018101516001600160a01b03168252810191909152604001600020600190810180546001600160801b03191660809390931c92909217909155016145a7565b505050600a929092556009556023555050565b6001600160a01b0381166000908152601260205260408120549054811080156147c55750816001600160a01b0316600082815481106147ae57fe5b6000918252602090912001546001600160a01b0316145b1561485d5760008054819060001981019081106147de57fe5b600091825260208220015481546001600160a01b0390911692508291908490811061480557fe5b600091825260208083209190910180546001600160a01b0319166001600160a01b039485161790558383168252601290526040808220859055918516815290812081905580549061485a9060001983016161f6565b50505b61486682615a27565b156148795761487482615a64565b614882565b61488282615948565b61488b82615b50565b6119e082615cf4565b6001600160a01b0383166148d95760405162461bcd60e51b815260040180806020018281038252602e8152602001806163da602e913960400191505060405180910390fd5b8061492b576040805162461bcd60e51b815260206004820181905260248201527f616d6f756e7420746f207769746864726177206d757374206e6f742062652030604482015290519081900360640190fd5b61493583836127b0565b8111156149735760405162461bcd60e51b815260040180806020018281038252602581526020018061637f6025913960400191505060405180910390fd5b6001600160a01b0380841660009081526016602090815260408083209386168352929052908120546149ab908363ffffffff6153b316565b90506000836001600160a01b0316856001600160a01b0316146149d057600a546149d4565b6009545b90508115806149e35750808210155b614a1e5760405162461bcd60e51b815260040180806020018281038252603981526020018061667d6039913960400191505060405180910390fd5b6001600160a01b0380861660009081526016602090815260408083209388168352929052908120839055614a5286866129ca565b905083811015614a63576000614a67565b8381035b6001600160a01b038088166000818152600860209081526040808320948b168352938152838220601a548352815283822094909455908152918052902054614ab5908563ffffffff6153b316565b6001600160a01b038716600090815260208052604090205582614adc57614adc8686615792565b856001600160a01b0316856001600160a01b031614614aff57614aff86866156a0565b614b08866152f3565b505050505050565b602154604080516253517560e01b81526001600160a01b038681166004830152915160009392909216916253517591602480820192602092909190829003018186803b158015614b5f57600080fd5b505afa158015614b73573d6000803e3d6000fd5b505050506040513d6020811015614b8957600080fd5b505190506001600160a01b038116614bd25760405162461bcd60e51b815260040180806020018281038252604081526020018061663d6040913960400191505060405180910390fd5b6001600160a01b038416614c2d576040805162461bcd60e51b815260206004820152601a60248201527f5374616b653a207374616b696e67416464726573732069732030000000000000604482015290519081900360640190fd5b81614c7f576040805162461bcd60e51b815260206004820152601960248201527f5374616b653a207374616b696e67416d6f756e74206973203000000000000000604482015290519081900360640190fd5b60215460408051635491295760e11b81526001600160a01b0384811660048301529151919092169163a92252ae916024808301926020929190829003018186803b158015614ccc57600080fd5b505afa158015614ce0573d6000803e3d6000fd5b505050506040513d6020811015614cf657600080fd5b505115614d4a576040805162461bcd60e51b815260206004820152601f60248201527f5374616b653a204d696e696e6720616464726573732069732062616e6e656400604482015290519081900360640190fd5b6001600160a01b038085166000908152601660209081526040808320938716835292905290812054614d82908463ffffffff6150cf16565b9050846001600160a01b0316846001600160a01b03161415614de457600954811015614ddf5760405162461bcd60e51b81526004018080602001828103825260318152602001806164326031913960400191505060405180910390fd5b614e81565b600a54811015614e255760405162461bcd60e51b81526004018080602001828103825260348152602001806162736034913960400191505060405180910390fd5b6001600160a01b0385166000908152601660209081526040808320909152902054614e815760405162461bcd60e51b81526004018080602001828103825260238152602001806165a26023913960400191505060405180910390fd5b6023546001600160a01b0386166000908152602080526040902054614eac908563ffffffff6150cf16565b1115614eff576040805162461bcd60e51b815260206004820152601d60248201527f7374616b65206c696d697420686173206265656e206578636565646564000000604482015290519081900360640190fd5b6001600160a01b038086166000908152601660209081526040808320938816835292905220819055614f4183614f3587876129ca565b9063ffffffff6150cf16565b6001600160a01b038087166000818152600860209081526040808320948a168352938152838220601a548352815283822094909455908152918052902054614f8f908463ffffffff6150cf16565b6001600160a01b03808716600081815260208052604090209290925585161415614fc357614fbe8560016150e1565b614fd7565b614fcd85856155de565b614fd785856156a0565b614fe0856152f3565b601a54846001600160a01b0316866001600160a01b03167f2273de02cb1f69ba6259d22c4bc22c60e4c94c193265ef6afee324a04a9b6d22866040518082815260200191505060405180910390a45050505050565b7fb53127684a568b3173ae13b9f8a6016e243e63b6e8ee1178d6a717850b5d61035490565b60005b506001600160a01b038083166000908152600b6020908152604080832093851683529281528282208883529052205480156150ab5760001981146150a157806150a4565b60005b90506150c6565b848614156150ba5750826150c6565b6000199095019461505d565b95945050505050565b600082820183811015612f5357600080fd5b6150ea82612f01565b6151a557600080546001600160a01b0384168083526012602052604083208290556001820183559180527f290decd9548b62a8d60345a988386fc84ba6bc95484008f6362f93160ef3e5630180546001600160a01b031916909117905561514f615de0565b60005411156151a5576040805162461bcd60e51b815260206004820152601d60248201527f4d41585f43414e4449444154455320706f6f6c73206578636565646564000000604482015290519081900360640190fd5b6151ae82615a64565b80156119e0576119e082615de5565b60008115615250576021546040805163a881c5fd60e01b81526001600160a01b0386811660048301529151919092169163a881c5fd916024808301926020929190829003018186803b15801561521257600080fd5b505afa158015615226573d6000803e3d6000fd5b505050506040513d602081101561523c57600080fd5b50511561524b57506000612911565b6152d6565b60215460408051635491295760e11b81526001600160a01b0386811660048301529151919092169163a92252ae916024808301926020929190829003018186803b15801561529d57600080fd5b505afa1580156152b1573d6000803e3d6000fd5b505050506040513d60208110156152c757600080fd5b5051156152d657506000612911565b6152de613d1b565b6152ea57506000612911565b50600192915050565b6000806152ff83615ed4565b915091508161530f575050611d07565b60006004828154811061531e57fe5b90600052602060002001549050600060206000866001600160a01b03166001600160a01b03168152602001908152602001600020549050806004848154811061536357fe5b6000918252602090912001558181106153935760055461538b9083830363ffffffff6150cf16565b6005556153ac565b6005546153a89082840363ffffffff6153b316565b6005555b5050505050565b6000828211156153c257600080fd5b50900390565b6001600160a01b038116600090815260146020526040902054600354808210158061541d5750826001600160a01b03166003838154811061540557fe5b6000918252602090912001546001600160a01b031614155b1561547d576001600160a01b03831660008181526014602052604081208390556003805460018101825591527fc2575a0e9e593c00f959f8c92f12db2869c3395a3b0502d05e2516446f71f85b0180546001600160a01b03191690911790555b611bc683615b50565b6001600160a01b038083166000908152600660209081526040808320600f83528184209486168452939091529020548154811080156154ed5750826001600160a01b03168282815481106154d657fe5b6000918252602090912001546001600160a01b0316145b156155945781546000908390600019810190811061550757fe5b9060005260206000200160009054906101000a90046001600160a01b031690508083838154811061553457fe5b600091825260208083209190910180546001600160a01b0319166001600160a01b039485161790558783168252600f81526040808320858516845290915280822085905591861681529081205582546155918460001983016161f6565b50505b6001600160a01b038085166000908152600c6020908152604080832093871683529290522054156155ce576155c98484615f41565b6155d8565b6155d88484615fff565b50505050565b6001600160a01b038083166000908152600660209081526040808320600f8352818420948616845293909152902054815480821015806156475750836001600160a01b031683838154811061562f57fe5b6000918252602090912001546001600160a01b031614155b15615696576001600160a01b038086166000908152600f602090815260408083209388168084529382528220849055855460018101875586835291200180546001600160a01b03191690911790555b6153ac8585615fff565b601a546001600160a01b03808416600090815260166020908152604080832093861683529290522054600190910190806156dc576000196156de565b805b6001600160a01b038086166000818152600b60209081526040808320948916808452948252808320888452825280832095909555918152601782528381209281529190522054615751576001600160a01b0380851660009081526017602090815260408083209387168352929052208290555b801561575e576000615760565b815b6001600160a01b0394851660009081526018602090815260408083209690971682529490945293909220929092555050565b816001600160a01b0316816001600160a01b031614156158c457602154604080516253517560e01b81526001600160a01b038581166004830152915160009392909216916253517591602480820192602092909190829003018186803b1580156157fb57600080fd5b505afa15801561580f573d6000803e3d6000fd5b505050506040513d602081101561582557600080fd5b50516021546040805163facd743b60e01b81526001600160a01b038085166004830152915193945091169163facd743b91602480820192602092909190829003018186803b15801561587657600080fd5b505afa15801561588a573d6000803e3d6000fd5b505050506040513d60208110156158a057600080fd5b5051156158b5576158b0836153c8565b6158be565b6158be83614773565b506119e0565b6158ce8282615486565b6158d782615a27565b156119e0576119e082615a64565b6040516001600160a01b0383169082156108fc029083906000818181858888f193505050506119e057808260405161591c9061621a565b6001600160a01b039091168152604051908190036020019082f0801580156153ac573d6000803e3d6000fd5b6001600160a01b038116600090815260116020526040902054600154808210158061599d5750826001600160a01b03166001838154811061598557fe5b6000918252602090912001546001600160a01b031614155b15611bc6576001600160a01b038316600081815260116020526040812083905560018054808201825591527fb10e2d527612073b26eecdfd717e6a320cf44b4afac2b0732d9fcbe2b7fa0cf60180546001600160a01b0319169091179055505050565b600082615a0f57506000612911565b82820282848281615a1c57fe5b0414612f5357600080fd5b6001600160a01b03811660009081526020805260408120541580156129115750506001600160a01b03166000908152600d60205260409020541590565b6001600160a01b03811660009081526011602052604090205460015481108015615ab75750816001600160a01b031660018281548110615aa057fe5b6000918252602090912001546001600160a01b0316145b156119e05760018054600091906000198101908110615ad257fe5b600091825260209091200154600180546001600160a01b039092169250829184908110615afb57fe5b600091825260208083209190910180546001600160a01b0319166001600160a01b03948516179055838316825260119052604080822085905591851681529081205560018054906155d89060001983016161f6565b60045460025414615b6057611d07565b6001600160a01b03811660009081526013602052604090205460025481108015615bb35750816001600160a01b031660028281548110615b9c57fe5b6000918252602090912001546001600160a01b0316145b156119e05760048181548110615bc557fe5b906000526020600020015460055410615c005760048181548110615be557fe5b60009182526020909120015460058054919091039055615c06565b60006005555b6002805460001981019160009183908110615c1d57fe5b600091825260209091200154600280546001600160a01b039092169250829185908110615c4657fe5b9060005260206000200160006101000a8154816001600160a01b0302191690836001600160a01b0316021790555060048281548110615c8157fe5b906000526020600020015460048481548110615c9957fe5b60009182526020808320909101929092556001600160a01b038084168252601390925260408082208690559186168152908120556002805490615ce09060001983016161f6565b5060048054906153ac9060001983016161f6565b6001600160a01b03811660009081526014602052604090205460035481108015615d475750816001600160a01b031660038281548110615d3057fe5b6000918252602090912001546001600160a01b0316145b156119e05760038054600091906000198101908110615d6257fe5b600091825260209091200154600380546001600160a01b039092169250829184908110615d8b57fe5b600091825260208083209190910180546001600160a01b0319166001600160a01b03948516179055838316825260149052604080822085905591851681529081205560038054906155d89060001983016161f6565b606490565b6001600160a01b0381166000908152601360205260409020546002548082101580615e3a5750826001600160a01b031660028381548110615e2257fe5b6000918252602090912001546001600160a01b031614155b15615ecb576001600160a01b03831660008181526013602052604081208390556002805460018181019092557f405787fa12a823e0f2b7631cc41b3ba8828b3321ca811111fa75cd3aa3bb5ace0180546001600160a01b03191690931790925560048054928301815581527f8a35acfbc15ff81a39ae7d344fd709f28e8600b4aa8c65c6b64bfe7fe36bd19b909101555b611bc683615cf4565b6001600160a01b03811660009081526013602052604081205460025481108015615f275750826001600160a01b031660028281548110615f1057fe5b6000918252602090912001546001600160a01b0316145b15615f355760019150615f3c565b5060009050805b915091565b6001600160a01b0380831660009081526007602090815260408083206010835281842094861684529390915290205481548082101580615faa5750836001600160a01b0316838381548110615f9257fe5b6000918252602090912001546001600160a01b031614155b156153ac576001600160a01b0380861660009081526010602090815260408083209388168084529382528220849055855460018101875586835291200180546001600160a01b03191690911790555050505050565b6001600160a01b038083166000908152600760209081526040808320601083528184209486168452939091529020548154811080156160665750826001600160a01b031682828154811061604f57fe5b6000918252602090912001546001600160a01b0316145b156155d85781546000908390600019810190811061608057fe5b9060005260206000200160009054906101000a90046001600160a01b03169050808383815481106160ad57fe5b600091825260208083209190910180546001600160a01b0319166001600160a01b03948516179055878316825260108152604080832085851684529091528082208590559186168152908120558254614b088460001983016161f6565b828054600181600116156101000203166002900490600052602060002090601f016020900481019282601f1061614b5782800160ff19823516178555616178565b82800160010185558215616178579182015b8281111561617857823582559160200191906001019061615d565b50616184929150616226565b5090565b828054600181600116156101000203166002900490600052602060002090601f016020900481019282601f106161c957805160ff1916838001178555616178565b82800160010185558215616178579182015b828111156161785782518255916020019190600101906161db565b815481835581811115611bc657600083815260209020611bc6918101908301616226565b60328061624183390190565b611a2f91905b80821115616184576000815560010161622c56fe60806040526040516032380380603283398181016040526020811015602357600080fd5b50516001600160a01b038116fffe5374616b653a2064656c656761746f725374616b65206973206c657373207468616e2064656c656761746f724d696e5374616b65436c61696d3a206e656564207374726963746c7920696e6372656173696e67206f72646572556e61626c6520746f206765742072657761726420616d6f756e74206966206e6f2066697273742065706f63682e496e697469616c697a6174696f6e206f6e6c79206f6e2067656e6573697320626c6f636b206f722062792061646d696e706f6f6c5374616b696e6741646472657373206d757374206e6f74206265203078306e65775374616b6520416d6f756e74206d7573742062652067726561746572207468616e20746865206d696e207374616b652e57697468647261773a206d61785769746864726177416c6c6f776564206578636565646564696e7465726e616c204572726f723a205374616b696e672045706f63687320726571756972656420746f206265206f7264657265642e576974686472617720706f6f6c207374616b696e672061646472657373206d757374206e6f74206265206e756c6c4d7573742070726f7669646520636f7272656374206e756d626572206f662049502061647265737365735374616b653a2063616e6469646174655374616b65206c657373207468616e2063616e6469646174654d696e5374616b65496e697469616c5374616b696e674164647265737365732063616e27742062652030546865207472616e736974696f6e2074696d656672616d65206d757374206265206c6f6e676572207468616e20306f72646572656420776974686472617720616d6f756e74206d757374206e6f742062652030466978656445706f63684475726174696f6e206d757374206265206c6f6e676572207468616e207769746864726177446973616c6c6f77506572696f644d7573742070726f7669646520636f7272656374206e756d626572206f66207075626c69634b65797363616e6e6f7420636c61696d206f72646572656420776974686472617720696e207468652073616d652065706f636820697420776173206f7264657265642e4d7573742070726f7669646520696e697469616c206d696e696e67206164647265737365735374616b653a2063616e27742064656c656761746520696e20656d70747920706f6f6c436f6e7472616374206e6f7420696e697469616c697a656400000000000000006d6178696d756d207374616b65206d7573742062652067726561746572207468656e206d696e696d756d207374616b652e4d6f76655374616b653a2073726320616e642064737420706f6f6c206973207468652073616d65506f6f6c20646f6573206e6f742065786973742e206d696e696e674164647265737320666f722074686174207374616b696e67206164647265737320697320306e65775374616b6520616d6f756e74206d757374206265206772656174657220657175616c207468616e20746865206d696e207374616b652e546865207472616e736974696f6e2074696d656672616d65206d7573742062652073686f72746572207468656e207468652065706f6368206475726174696f6e43616e27742072656d6f766520706f6f6c20647572696e6720317374207374616b696e672065706f6368436c61696d4f72646572656457697468647261773a205769746864726177206e6f7420616c6c6f7765646f6e6c792061646d696e20697320616c6c6f77656420746f2063616c6c20746869732066756e6374696f6e696e7465726e616c204572726f723a2065706f6368206d757374206e6f74206265206c6573736572207468616e2063757272656e742065706f63682e4f7264657257697468647261773a206d617857697468647261774f72646572416c6c6f776564206578636565646564a265627a7a72315820fd9291622902a3e74710bf21988f7e6130ab963bec69766edd062820e5e47a4d64736f6c63430005110032",
  "source": "pragma solidity ^0.5.16;\n\nimport './StakingHbbftBaseMock.sol';\nimport '../../contracts/base/StakingHbbftCoins.sol';\n\n\ncontract StakingHbbftCoinsMock is StakingHbbftCoins, StakingHbbftBaseMock {\n\n}\n",
  "sourcePath": "/home/sn/dmd/dmd-meta/hbbft-posdao-contracts/contracts/mockContracts/StakingHbbftCoinsMock.sol",
  "compiler": {
    "name": "solc",
    "version": "0.5.17+commit.d19bba13.Emscripten.clang"
  },
  "schemaVersion": "3.3.1",
  "updatedAt": "2022-01-07T23:00:13.465Z",
  "devdoc": {
    "methods": {
      "addPool(address,bytes,bytes16)": {
        "details": "Adds a new candidate's pool to the list of active pools (see the `getPools` getter) and moves the specified amount of staking coins from the candidate's staking address to the candidate's pool. A participant calls this function using their staking address when they want to create a pool. This is a wrapper for the `stake` function.",
        "params": {
          "_miningAddress": "The mining address of the candidate. The mining address is bound to the staking address (msg.sender). This address cannot be equal to `msg.sender`."
        }
      },
      "areStakeAndWithdrawAllowed()": {
        "details": "Determines whether staking/withdrawal operations are allowed at the moment. Used by all staking/withdrawal functions."
      },
      "claimOrderedWithdraw(address)": {
        "details": "Withdraws the staking coins from the specified pool ordered during the previous staking epochs with the `orderWithdraw` function. The ordered amount can be retrieved by the `orderedWithdrawAmount` getter.",
        "params": {
          "_poolStakingAddress": "The staking address of the pool from which the ordered coins are withdrawn."
        }
      },
      "claimReward(uint256[],address)": {
        "details": "Withdraws a reward from the specified pool for the specified staking epochs to the staker address (msg.sender).",
        "params": {
          "_poolStakingAddress": "The staking address of the pool from which the reward needs to be withdrawn.",
          "_stakingEpochs": "The list of staking epochs in ascending order. If the list is empty, it is taken with `BlockRewardHbbft.epochsPoolGotRewardFor` getter."
        }
      },
      "getPoolInternetAddress(address)": {
        "details": "Returns the registered IPv4 Address for the node.",
        "params": {
          "_poolAddress": "The Pool Address to query the IPv4Address for."
        },
        "return": "IPv4 Address for the given pool address. "
      },
      "getPoolPublicKey(address)": {
        "details": "Return the Public Key used by a Node to send targeted HBBFT Consensus Messages.",
        "params": {
          "_poolAddress": "The Pool Address to query the public key for."
        },
        "return": "the public key for the given pool address.  Note that the public key does not convert to the ethereum address of the pool address. The pool address is used for stacking, and not for signing HBBFT messages."
      },
      "getPools()": {
        "details": "Returns an array of the current active pools (the staking addresses of candidates and validators). The size of the array cannot exceed MAX_CANDIDATES. A pool can be added to this array with the `_addPoolActive` internal function which is called by the `stake` or `orderWithdraw` function. A pool is considered active if its address has at least the minimum stake and this stake is not ordered to be withdrawn."
      },
      "getPoolsInactive()": {
        "details": "Returns an array of the current inactive pools (the staking addresses of former candidates). A pool can be added to this array with the `_addPoolInactive` internal function which is called by `_removePool`. A pool is considered inactive if it is banned for some reason, if its address has zero stake, or if its entire stake is ordered to be withdrawn."
      },
      "getPoolsLikelihood()": {
        "details": "Returns the array of stake amounts for each corresponding address in the `poolsToBeElected` array (see the `getPoolsToBeElected` getter) and a sum of these amounts. Used by the `ValidatorSetHbbft.newValidatorSet` function when randomly selecting new validators at the last block of a staking epoch. An array value is updated every time any staked amount is changed in this pool (see the `_setLikelihood` internal function).",
        "return": "`uint256[] likelihoods` - The array of the coefficients. The array length is always equal to the length of the `poolsToBeElected` array. `uint256 sum` - The total sum of the amounts."
      },
      "getPoolsToBeElected()": {
        "details": "Returns the list of pools (their staking addresses) which will participate in a new validator set selection process in the `ValidatorSetHbbft.newValidatorSet` function. This is an array of pools which will be considered as candidates when forming a new validator set (at the last block of a staking epoch). This array is kept updated by the `_addPoolToBeElected` and `_deletePoolToBeElected` internal functions."
      },
      "getPoolsToBeRemoved()": {
        "details": "Returns the list of pools (their staking addresses) which will be removed by the `ValidatorSetHbbft.newValidatorSet` function from the active `pools` array (at the last block of a staking epoch). This array is kept updated by the `_addPoolToBeRemoved` and `_deletePoolToBeRemoved` internal functions. A pool is added to this array when the pool's address withdraws (or orders) all of its own staking coins from the pool, inactivating the pool."
      },
      "getRewardAmount(uint256[],address,address)": {
        "details": "Returns reward amount in native coins for the specified pool, the specified staking epochs, and the specified staker address (delegator or validator).",
        "params": {
          "_poolStakingAddress": "The staking address of the pool for which the amounts need to be returned.",
          "_staker": "The staker address (validator's staking address or delegator's address).",
          "_stakingEpochs": "The list of staking epochs in ascending order. If the list is empty, it is taken with `BlockRewardHbbft.epochsPoolGotRewardFor` getter."
        }
      },
      "incrementStakingEpoch()": {
        "details": "Increments the serial number of the current staking epoch. Called by the `ValidatorSetHbbft.newValidatorSet` at the last block of the finished staking epoch."
      },
      "initialize(address,address[],uint256,uint256,uint256,uint256,uint256,uint256,bytes32[],bytes16[])": {
        "details": "Initializes the network parameters. Can only be called by the constructor of the `InitializerHbbft` contract or owner.",
        "params": {
          "_candidateMinStake": "The minimum allowed amount of candidate/validator stake in Wei.",
          "_delegatorMinStake": "The minimum allowed amount of delegator stake in Wei.",
          "_initialStakingAddresses": "The array of initial validators' staking addresses.",
          "_stakingFixedEpochDuration": "The fixed duration of each epoch before keyGen starts.",
          "_stakingTransitionTimeframeLength": "Length of the timeframe in seconds for the transition to the new validator set.",
          "_stakingWithdrawDisallowPeriod": "The duration period at the end of a staking epoch during which participants cannot stake/withdraw/order/claim their staking coins",
          "_validatorSetContract": "The address of the `ValidatorSetHbbft` contract."
        }
      },
      "isInitialized()": {
        "details": "Returns a boolean flag indicating if the `initialize` function has been called."
      },
      "isPoolActive(address)": {
        "details": "Returns a flag indicating whether a specified address is in the `pools` array. See the `getPools` getter.",
        "params": {
          "_stakingAddress": "The staking address of the pool."
        }
      },
      "maxWithdrawAllowed(address,address)": {
        "details": "Returns the maximum amount which can be withdrawn from the specified pool by the specified staker at the moment. Used by the `withdraw` and `moveStake` functions.",
        "params": {
          "_poolStakingAddress": "The pool staking address from which the withdrawal will be made.",
          "_staker": "The staker address that is going to withdraw."
        }
      },
      "maxWithdrawOrderAllowed(address,address)": {
        "details": "Returns the maximum amount which can be ordered to be withdrawn from the specified pool by the specified staker at the moment. Used by the `orderWithdraw` function.",
        "params": {
          "_poolStakingAddress": "The pool staking address from which the withdrawal will be ordered.",
          "_staker": "The staker address that is going to order the withdrawal."
        }
      },
      "moveStake(address,address,uint256)": {
        "details": "Moves staking coins from one pool to another. A staker calls this function when they want to move their coins from one pool to another without withdrawing their coins.",
        "params": {
          "_amount": "The amount of staking coins to be moved. The amount cannot exceed the value returned by the `maxWithdrawAllowed` getter.",
          "_fromPoolStakingAddress": "The staking address of the source pool.",
          "_toPoolStakingAddress": "The staking address of the target pool."
        }
      },
      "notifyAvailability(address)": {
        "details": "Notifies hbbft staking contract that a validator asociated with the given `_stakingAddress` became available again and can be put on to the list  of available nodes again."
      },
      "notifyKeyGenFailed()": {
        "details": "Notifies hbbft staking contract that the key generation has failed, and a new round  of keygeneration starts."
      },
      "notifyNetworkOfftimeDetected(uint256)": {
        "details": "Notifies hbbft staking contract about a detected network offline time. if there is no handling for this, validators got chosen outside the transition timewindow and get banned immediatly, since they never got their chance to write their keys. more about: https://github.com/DMDcoin/hbbft-posdao-contracts/issues/96"
      },
      "orderWithdraw(address,int256)": {
        "details": "Orders coins withdrawal from the staking address of the specified pool to the staker's address. The requested coins can be claimed after the current staking epoch is complete using the `claimOrderedWithdraw` function.",
        "params": {
          "_amount": "The amount to be withdrawn. A positive value means the staker wants to either set or increase their withdrawal amount. A negative value means the staker wants to decrease a withdrawal amount that was previously set. The amount cannot exceed the value returned by the `maxWithdrawOrderAllowed` getter.",
          "_poolStakingAddress": "The staking address of the pool from which the amount will be withdrawn."
        }
      },
      "poolDelegators(address)": {
        "details": "Returns an array of the current active delegators of the specified pool. A delegator is considered active if they have staked into the specified pool and their stake is not ordered to be withdrawn.",
        "params": {
          "_poolStakingAddress": "The pool staking address."
        }
      },
      "poolDelegatorsInactive(address)": {
        "details": "Returns an array of the current inactive delegators of the specified pool. A delegator is considered inactive if their entire stake is ordered to be withdrawn but not yet claimed.",
        "params": {
          "_poolStakingAddress": "The pool staking address."
        }
      },
      "removeMyPool()": {
        "details": "Removes the candidate's or validator's pool from the `pools` array (a list of active pools which can be retrieved by the `getPools` getter). When a candidate or validator wants to remove their pool, they should call this function from their staking address."
      },
      "removePool(address)": {
        "details": "Removes a specified pool from the `pools` array (a list of active pools which can be retrieved by the `getPools` getter). Called by the `ValidatorSetHbbft._removeMaliciousValidator` internal function,  and the `ValidatorSetHbbft.handleFailedKeyGeneration` function when a pool must be removed by the algorithm.",
        "params": {
          "_stakingAddress": "The staking address of the pool to be removed."
        }
      },
      "removePools()": {
        "details": "Removes pools which are in the `_poolsToBeRemoved` internal array from the `pools` array. Called by the `ValidatorSetHbbft.newValidatorSet` function when a pool must be removed by the algorithm."
      },
      "setCandidateMinStake(uint256)": {
        "details": "Sets (updates) the limit of the minimum candidate stake (CANDIDATE_MIN_STAKE). Can only be called by the `owner`.",
        "params": {
          "_minStake": "The value of a new limit in Wei."
        }
      },
      "setDelegatorMinStake(uint256)": {
        "details": "Sets (updates) the limit of the minimum delegator stake (DELEGATOR_MIN_STAKE). Can only be called by the `owner`.",
        "params": {
          "_minStake": "The value of a new limit in Wei."
        }
      },
      "setPoolInfo(bytes,bytes16)": {
        "details": "set's the pool info for a specific ethereum address.",
        "params": {
          "_ip": "(optional) IPV4 address of a running Node Software or Proxy. Stores the supplied data for a staking (pool) address. This function is external available without security checks, since no array operations are used in the implementation, this allows the flexibility to set the pool information before adding the stake to the pool.",
          "_publicKey": "public key of the (future) signing address."
        }
      },
      "setStakingEpochStartTime(uint256)": {
        "details": "Sets the timetamp of the current epoch's last block as the start time of the upcoming staking epoch. Called by the `ValidatorSetHbbft.newValidatorSet` function at the last block of a staking epoch.",
        "params": {
          "_timestamp": "The starting time of the very first block in the upcoming staking epoch."
        }
      },
      "stake(address)": {
        "details": "Moves the specified amount of staking coins from the staker's address to the staking address of the specified pool. Actually, the amount is stored in a balance of this StakingHbbft contract. A staker calls this function when they want to make a stake into a pool.",
        "params": {
          "_toPoolStakingAddress": "The staking address of the pool where the coins should be staked."
        }
      },
      "stakeAmountByCurrentEpoch(address,address)": {
        "details": "Returns the amount of staking coins staked into the specified pool by the specified staker during the current staking epoch (see the `stakingEpoch` getter). Used by the `stake`, `withdraw`, and `orderWithdraw` functions.",
        "params": {
          "_poolStakingAddress": "The pool staking address.",
          "_staker": "The staker's address."
        }
      },
      "stakingFixedEpochEndTime()": {
        "details": "Returns an indicative time of the last block of the current staking epoch before key generation starts."
      },
      "startTimeOfNextPhaseTransition()": {
        "details": "indicates the time when the new validatorset for the next epoch gets chosen. this is the start of a timeframe before the end of the epoch, that is long enough for the validators to create a new shared key."
      },
      "upgrade()": {
        "details": "save function that can be called by anyone that fixes uninitialzed values."
      },
      "withdraw(address,uint256)": {
        "details": "Moves the specified amount of staking coins from the staking address of the specified pool to the staker's address. A staker calls this function when they want to withdraw their coins.",
        "params": {
          "_amount": "The amount of coins to be withdrawn. The amount cannot exceed the value returned by the `maxWithdrawAllowed` getter.",
          "_fromPoolStakingAddress": "The staking address of the pool from which the coins should be withdrawn."
        }
      }
    }
  },
  "userdoc": {
    "methods": {}
  }
}