{
  "_format": "hh-sol-artifact-1",
  "contractName": "StakingHbbftBaseMock",
  "sourceName": "contracts/mockContracts/StakingHbbftBaseMock.sol",
  "abi": [
    {
      "anonymous": false,
      "inputs": [
        {
          "indexed": true,
          "internalType": "address",
          "name": "fromPoolStakingAddress",
          "type": "address"
        },
        {
          "indexed": true,
          "internalType": "address",
          "name": "staker",
          "type": "address"
        },
        {
          "indexed": true,
          "internalType": "uint256",
          "name": "stakingEpoch",
          "type": "uint256"
        },
        {
          "indexed": false,
          "internalType": "uint256",
          "name": "amount",
          "type": "uint256"
        }
      ],
      "name": "ClaimedOrderedWithdrawal",
      "type": "event"
    },
    {
      "anonymous": false,
      "inputs": [
        {
          "indexed": false,
          "internalType": "address",
          "name": "fromPoolStakingAddress",
          "type": "address"
        },
        {
          "indexed": true,
          "internalType": "address",
          "name": "toPoolStakingAddress",
          "type": "address"
        },
        {
          "indexed": true,
          "internalType": "address",
          "name": "staker",
          "type": "address"
        },
        {
          "indexed": true,
          "internalType": "uint256",
          "name": "stakingEpoch",
          "type": "uint256"
        },
        {
          "indexed": false,
          "internalType": "uint256",
          "name": "amount",
          "type": "uint256"
        }
      ],
      "name": "MovedStake",
      "type": "event"
    },
    {
      "anonymous": false,
      "inputs": [
        {
          "indexed": true,
          "internalType": "address",
          "name": "fromPoolStakingAddress",
          "type": "address"
        },
        {
          "indexed": true,
          "internalType": "address",
          "name": "staker",
          "type": "address"
        },
        {
          "indexed": true,
          "internalType": "uint256",
          "name": "stakingEpoch",
          "type": "uint256"
        },
        {
          "indexed": false,
          "internalType": "int256",
          "name": "amount",
          "type": "int256"
        }
      ],
      "name": "OrderedWithdrawal",
      "type": "event"
    },
    {
      "anonymous": false,
      "inputs": [
        {
          "indexed": true,
          "internalType": "address",
          "name": "toPoolStakingAddress",
          "type": "address"
        },
        {
          "indexed": true,
          "internalType": "address",
          "name": "staker",
          "type": "address"
        },
        {
          "indexed": true,
          "internalType": "uint256",
          "name": "stakingEpoch",
          "type": "uint256"
        },
        {
          "indexed": false,
          "internalType": "uint256",
          "name": "amount",
          "type": "uint256"
        }
      ],
      "name": "PlacedStake",
      "type": "event"
    },
    {
      "anonymous": false,
      "inputs": [
        {
          "indexed": true,
          "internalType": "address",
          "name": "fromPoolStakingAddress",
          "type": "address"
        },
        {
          "indexed": true,
          "internalType": "address",
          "name": "staker",
          "type": "address"
        },
        {
          "indexed": true,
          "internalType": "uint256",
          "name": "stakingEpoch",
          "type": "uint256"
        },
        {
          "indexed": false,
          "internalType": "uint256",
          "name": "amount",
          "type": "uint256"
        }
      ],
      "name": "WithdrewStake",
      "type": "event"
    },
    {
      "inputs": [],
      "name": "MAX_CANDIDATES",
      "outputs": [
        {
          "internalType": "uint256",
          "name": "",
          "type": "uint256"
        }
      ],
      "stateMutability": "view",
      "type": "function"
    },
    {
      "inputs": [
        {
          "internalType": "address",
          "name": "_miningAddress",
          "type": "address"
        },
        {
          "internalType": "bytes",
          "name": "_publicKey",
          "type": "bytes"
        },
        {
          "internalType": "bytes16",
          "name": "_ip",
          "type": "bytes16"
        }
      ],
      "name": "addPool",
      "outputs": [],
      "stateMutability": "payable",
      "type": "function"
    },
    {
      "inputs": [
        {
          "internalType": "address",
          "name": "_stakingAddress",
          "type": "address"
        }
      ],
      "name": "addPoolActiveMock",
      "outputs": [],
      "stateMutability": "nonpayable",
      "type": "function"
    },
    {
      "inputs": [
        {
          "internalType": "address",
          "name": "_stakingAddress",
          "type": "address"
        }
      ],
      "name": "addPoolInactiveMock",
      "outputs": [],
      "stateMutability": "nonpayable",
      "type": "function"
    },
    {
      "inputs": [],
      "name": "areStakeAndWithdrawAllowed",
      "outputs": [
        {
          "internalType": "bool",
          "name": "",
          "type": "bool"
        }
      ],
      "stateMutability": "view",
      "type": "function"
    },
    {
      "inputs": [],
      "name": "candidateMinStake",
      "outputs": [
        {
          "internalType": "uint256",
          "name": "",
          "type": "uint256"
        }
      ],
      "stateMutability": "view",
      "type": "function"
    },
    {
      "inputs": [
        {
          "internalType": "address",
          "name": "_poolStakingAddress",
          "type": "address"
        }
      ],
      "name": "claimOrderedWithdraw",
      "outputs": [],
      "stateMutability": "nonpayable",
      "type": "function"
    },
    {
      "inputs": [
        {
          "internalType": "address",
          "name": "_poolStakingAddress",
          "type": "address"
        },
        {
          "internalType": "address",
          "name": "_delegator",
          "type": "address"
        },
        {
          "internalType": "uint256",
          "name": "_stakingEpoch",
          "type": "uint256"
        }
      ],
      "name": "clearDelegatorStakeSnapshot",
      "outputs": [],
      "stateMutability": "nonpayable",
      "type": "function"
    },
    {
      "inputs": [
        {
          "internalType": "address",
          "name": "_poolStakingAddress",
          "type": "address"
        },
        {
          "internalType": "address",
          "name": "_staker",
          "type": "address"
        },
        {
          "internalType": "uint256",
          "name": "_epoch",
          "type": "uint256"
        }
      ],
      "name": "clearRewardWasTaken",
      "outputs": [],
      "stateMutability": "nonpayable",
      "type": "function"
    },
    {
      "inputs": [],
      "name": "currentKeyGenExtraTimeWindow",
      "outputs": [
        {
          "internalType": "uint256",
          "name": "",
          "type": "uint256"
        }
      ],
      "stateMutability": "view",
      "type": "function"
    },
    {
      "inputs": [],
      "name": "delegatorMinStake",
      "outputs": [
        {
          "internalType": "uint256",
          "name": "",
          "type": "uint256"
        }
      ],
      "stateMutability": "view",
      "type": "function"
    },
    {
      "inputs": [
        {
          "internalType": "address",
          "name": "",
          "type": "address"
        },
        {
          "internalType": "address",
          "name": "",
          "type": "address"
        },
        {
          "internalType": "uint256",
          "name": "",
          "type": "uint256"
        }
      ],
      "name": "delegatorStakeSnapshot",
      "outputs": [
        {
          "internalType": "uint256",
          "name": "",
          "type": "uint256"
        }
      ],
      "stateMutability": "view",
      "type": "function"
    },
    {
      "inputs": [
        {
          "internalType": "address",
          "name": "_poolAddress",
          "type": "address"
        }
      ],
      "name": "getPoolInternetAddress",
      "outputs": [
        {
          "internalType": "bytes16",
          "name": "",
          "type": "bytes16"
        },
        {
          "internalType": "bytes2",
          "name": "",
          "type": "bytes2"
        }
      ],
      "stateMutability": "view",
      "type": "function"
    },
    {
      "inputs": [
        {
          "internalType": "address",
          "name": "_poolAddress",
          "type": "address"
        }
      ],
      "name": "getPoolPublicKey",
      "outputs": [
        {
          "internalType": "bytes",
          "name": "",
          "type": "bytes"
        }
      ],
      "stateMutability": "view",
      "type": "function"
    },
    {
      "inputs": [],
      "name": "getPools",
      "outputs": [
        {
          "internalType": "address[]",
          "name": "",
          "type": "address[]"
        }
      ],
      "stateMutability": "view",
      "type": "function"
    },
    {
      "inputs": [],
      "name": "getPoolsInactive",
      "outputs": [
        {
          "internalType": "address[]",
          "name": "",
          "type": "address[]"
        }
      ],
      "stateMutability": "view",
      "type": "function"
    },
    {
      "inputs": [],
      "name": "getPoolsLikelihood",
      "outputs": [
        {
          "internalType": "uint256[]",
          "name": "likelihoods",
          "type": "uint256[]"
        },
        {
          "internalType": "uint256",
          "name": "sum",
          "type": "uint256"
        }
      ],
      "stateMutability": "view",
      "type": "function"
    },
    {
      "inputs": [],
      "name": "getPoolsToBeElected",
      "outputs": [
        {
          "internalType": "address[]",
          "name": "",
          "type": "address[]"
        }
      ],
      "stateMutability": "view",
      "type": "function"
    },
    {
      "inputs": [],
      "name": "getPoolsToBeRemoved",
      "outputs": [
        {
          "internalType": "address[]",
          "name": "",
          "type": "address[]"
        }
      ],
      "stateMutability": "view",
      "type": "function"
    },
    {
      "inputs": [],
      "name": "incrementStakingEpoch",
      "outputs": [],
      "stateMutability": "nonpayable",
      "type": "function"
    },
    {
      "inputs": [
        {
          "components": [
            {
              "internalType": "address",
              "name": "_validatorSetContract",
              "type": "address"
            },
            {
              "internalType": "address[]",
              "name": "_initialStakingAddresses",
              "type": "address[]"
            },
            {
              "internalType": "uint256",
              "name": "_delegatorMinStake",
              "type": "uint256"
            },
            {
              "internalType": "uint256",
              "name": "_candidateMinStake",
              "type": "uint256"
            },
            {
              "internalType": "uint256",
              "name": "_maxStake",
              "type": "uint256"
            },
            {
              "internalType": "uint256",
              "name": "_stakingFixedEpochDuration",
              "type": "uint256"
            },
            {
              "internalType": "uint256",
              "name": "_stakingTransitionTimeframeLength",
              "type": "uint256"
            },
            {
              "internalType": "uint256",
              "name": "_stakingWithdrawDisallowPeriod",
              "type": "uint256"
            }
          ],
          "internalType": "struct IStakingHbbft.StakingParams",
          "name": "stakingParams",
          "type": "tuple"
        },
        {
          "internalType": "bytes32[]",
          "name": "_publicKeys",
          "type": "bytes32[]"
        },
        {
          "internalType": "bytes16[]",
          "name": "_internetAddresses",
          "type": "bytes16[]"
        }
      ],
      "name": "initialize",
      "outputs": [],
      "stateMutability": "nonpayable",
      "type": "function"
    },
    {
      "inputs": [],
      "name": "isInitialized",
      "outputs": [
        {
          "internalType": "bool",
          "name": "",
          "type": "bool"
        }
      ],
      "stateMutability": "view",
      "type": "function"
    },
    {
      "inputs": [
        {
          "internalType": "address",
          "name": "_stakingAddress",
          "type": "address"
        }
      ],
      "name": "isPoolActive",
      "outputs": [
        {
          "internalType": "bool",
          "name": "",
          "type": "bool"
        }
      ],
      "stateMutability": "view",
      "type": "function"
    },
    {
      "inputs": [],
      "name": "maxStakeAmount",
      "outputs": [
        {
          "internalType": "uint256",
          "name": "",
          "type": "uint256"
        }
      ],
      "stateMutability": "view",
      "type": "function"
    },
    {
      "inputs": [
        {
          "internalType": "address",
          "name": "_poolStakingAddress",
          "type": "address"
        },
        {
          "internalType": "address",
          "name": "_staker",
          "type": "address"
        }
      ],
      "name": "maxWithdrawAllowed",
      "outputs": [
        {
          "internalType": "uint256",
          "name": "",
          "type": "uint256"
        }
      ],
      "stateMutability": "view",
      "type": "function"
    },
    {
      "inputs": [
        {
          "internalType": "address",
          "name": "_poolStakingAddress",
          "type": "address"
        },
        {
          "internalType": "address",
          "name": "_staker",
          "type": "address"
        }
      ],
      "name": "maxWithdrawOrderAllowed",
      "outputs": [
        {
          "internalType": "uint256",
          "name": "",
          "type": "uint256"
        }
      ],
      "stateMutability": "view",
      "type": "function"
    },
    {
      "inputs": [
        {
          "internalType": "address",
          "name": "_fromPoolStakingAddress",
          "type": "address"
        },
        {
          "internalType": "address",
          "name": "_toPoolStakingAddress",
          "type": "address"
        },
        {
          "internalType": "uint256",
          "name": "_amount",
          "type": "uint256"
        }
      ],
      "name": "moveStake",
      "outputs": [],
      "stateMutability": "nonpayable",
      "type": "function"
    },
    {
      "inputs": [
        {
          "internalType": "address",
          "name": "_stakingAddress",
          "type": "address"
        }
      ],
      "name": "notifyAvailability",
      "outputs": [],
      "stateMutability": "nonpayable",
      "type": "function"
    },
    {
      "inputs": [],
      "name": "notifyKeyGenFailed",
      "outputs": [],
      "stateMutability": "nonpayable",
      "type": "function"
    },
    {
      "inputs": [
        {
          "internalType": "uint256",
          "name": "detectedOfflineTime",
          "type": "uint256"
        }
      ],
      "name": "notifyNetworkOfftimeDetected",
      "outputs": [],
      "stateMutability": "nonpayable",
      "type": "function"
    },
    {
      "inputs": [
        {
          "internalType": "address",
          "name": "_poolStakingAddress",
          "type": "address"
        },
        {
          "internalType": "int256",
          "name": "_amount",
          "type": "int256"
        }
      ],
      "name": "orderWithdraw",
      "outputs": [],
      "stateMutability": "nonpayable",
      "type": "function"
    },
    {
      "inputs": [
        {
          "internalType": "address",
          "name": "",
          "type": "address"
        },
        {
          "internalType": "address",
          "name": "",
          "type": "address"
        }
      ],
      "name": "orderWithdrawEpoch",
      "outputs": [
        {
          "internalType": "uint256",
          "name": "",
          "type": "uint256"
        }
      ],
      "stateMutability": "view",
      "type": "function"
    },
    {
      "inputs": [
        {
          "internalType": "address",
          "name": "",
          "type": "address"
        },
        {
          "internalType": "address",
          "name": "",
          "type": "address"
        }
      ],
      "name": "orderedWithdrawAmount",
      "outputs": [
        {
          "internalType": "uint256",
          "name": "",
          "type": "uint256"
        }
      ],
      "stateMutability": "view",
      "type": "function"
    },
    {
      "inputs": [
        {
          "internalType": "address",
          "name": "",
          "type": "address"
        }
      ],
      "name": "orderedWithdrawAmountTotal",
      "outputs": [
        {
          "internalType": "uint256",
          "name": "",
          "type": "uint256"
        }
      ],
      "stateMutability": "view",
      "type": "function"
    },
    {
      "inputs": [
        {
          "internalType": "address",
          "name": "",
          "type": "address"
        },
        {
          "internalType": "address",
          "name": "",
          "type": "address"
        }
      ],
      "name": "poolDelegatorInactiveIndex",
      "outputs": [
        {
          "internalType": "uint256",
          "name": "",
          "type": "uint256"
        }
      ],
      "stateMutability": "view",
      "type": "function"
    },
    {
      "inputs": [
        {
          "internalType": "address",
          "name": "",
          "type": "address"
        },
        {
          "internalType": "address",
          "name": "",
          "type": "address"
        }
      ],
      "name": "poolDelegatorIndex",
      "outputs": [
        {
          "internalType": "uint256",
          "name": "",
          "type": "uint256"
        }
      ],
      "stateMutability": "view",
      "type": "function"
    },
    {
      "inputs": [
        {
          "internalType": "address",
          "name": "_poolStakingAddress",
          "type": "address"
        }
      ],
      "name": "poolDelegators",
      "outputs": [
        {
          "internalType": "address[]",
          "name": "",
          "type": "address[]"
        }
      ],
      "stateMutability": "view",
      "type": "function"
    },
    {
      "inputs": [
        {
          "internalType": "address",
          "name": "_poolStakingAddress",
          "type": "address"
        }
      ],
      "name": "poolDelegatorsInactive",
      "outputs": [
        {
          "internalType": "address[]",
          "name": "",
          "type": "address[]"
        }
      ],
      "stateMutability": "view",
      "type": "function"
    },
    {
      "inputs": [
        {
          "internalType": "address",
          "name": "",
          "type": "address"
        }
      ],
      "name": "poolInactiveIndex",
      "outputs": [
        {
          "internalType": "uint256",
          "name": "",
          "type": "uint256"
        }
      ],
      "stateMutability": "view",
      "type": "function"
    },
    {
      "inputs": [
        {
          "internalType": "address",
          "name": "",
          "type": "address"
        }
      ],
      "name": "poolIndex",
      "outputs": [
        {
          "internalType": "uint256",
          "name": "",
          "type": "uint256"
        }
      ],
      "stateMutability": "view",
      "type": "function"
    },
    {
      "inputs": [
        {
          "internalType": "address",
          "name": "",
          "type": "address"
        }
      ],
      "name": "poolInfo",
      "outputs": [
        {
          "internalType": "bytes",
          "name": "publicKey",
          "type": "bytes"
        },
        {
          "internalType": "bytes16",
          "name": "internetAddress",
          "type": "bytes16"
        },
        {
          "internalType": "bytes2",
          "name": "port",
          "type": "bytes2"
        }
      ],
      "stateMutability": "view",
      "type": "function"
    },
    {
      "inputs": [
        {
          "internalType": "address",
          "name": "",
          "type": "address"
        }
      ],
      "name": "poolToBeElectedIndex",
      "outputs": [
        {
          "internalType": "uint256",
          "name": "",
          "type": "uint256"
        }
      ],
      "stateMutability": "view",
      "type": "function"
    },
    {
      "inputs": [
        {
          "internalType": "address",
          "name": "",
          "type": "address"
        }
      ],
      "name": "poolToBeRemovedIndex",
      "outputs": [
        {
          "internalType": "uint256",
          "name": "",
          "type": "uint256"
        }
      ],
      "stateMutability": "view",
      "type": "function"
    },
    {
      "inputs": [],
      "name": "removeMyPool",
      "outputs": [],
      "stateMutability": "nonpayable",
      "type": "function"
    },
    {
      "inputs": [
        {
          "internalType": "address",
          "name": "_stakingAddress",
          "type": "address"
        }
      ],
      "name": "removePool",
      "outputs": [],
      "stateMutability": "nonpayable",
      "type": "function"
    },
    {
      "inputs": [],
      "name": "removePools",
      "outputs": [],
      "stateMutability": "nonpayable",
      "type": "function"
    },
    {
      "inputs": [
        {
          "internalType": "address",
          "name": "",
          "type": "address"
        },
        {
          "internalType": "address",
          "name": "",
          "type": "address"
        },
        {
          "internalType": "uint256",
          "name": "",
          "type": "uint256"
        }
      ],
      "name": "rewardWasTaken",
      "outputs": [
        {
          "internalType": "bool",
          "name": "",
          "type": "bool"
        }
      ],
      "stateMutability": "view",
      "type": "function"
    },
    {
      "inputs": [
        {
          "internalType": "uint256",
          "name": "_minStake",
          "type": "uint256"
        }
      ],
      "name": "setCandidateMinStake",
      "outputs": [],
      "stateMutability": "nonpayable",
      "type": "function"
    },
    {
      "inputs": [
        {
          "internalType": "uint256",
          "name": "_minStake",
          "type": "uint256"
        }
      ],
      "name": "setDelegatorMinStake",
      "outputs": [],
      "stateMutability": "nonpayable",
      "type": "function"
    },
    {
      "inputs": [
        {
          "internalType": "bytes",
          "name": "_publicKey",
          "type": "bytes"
        },
        {
          "internalType": "bytes16",
          "name": "_ip",
          "type": "bytes16"
        },
        {
          "internalType": "bytes2",
          "name": "_port",
          "type": "bytes2"
        }
      ],
      "name": "setPoolInfo",
      "outputs": [],
      "stateMutability": "nonpayable",
      "type": "function"
    },
    {
      "inputs": [
        {
          "internalType": "address",
          "name": "_poolStakingAddress",
          "type": "address"
        },
        {
          "internalType": "uint256",
          "name": "_amount",
          "type": "uint256"
        }
      ],
      "name": "setStakeAmountTotal",
      "outputs": [],
      "stateMutability": "nonpayable",
      "type": "function"
    },
    {
      "inputs": [
        {
          "internalType": "address",
          "name": "_poolStakingAddress",
          "type": "address"
        },
        {
          "internalType": "address",
          "name": "_delegator",
          "type": "address"
        },
        {
          "internalType": "uint256",
          "name": "_value",
          "type": "uint256"
        }
      ],
      "name": "setStakeFirstEpoch",
      "outputs": [],
      "stateMutability": "nonpayable",
      "type": "function"
    },
    {
      "inputs": [
        {
          "internalType": "address",
          "name": "_poolStakingAddress",
          "type": "address"
        },
        {
          "internalType": "address",
          "name": "_delegator",
          "type": "address"
        },
        {
          "internalType": "uint256",
          "name": "_value",
          "type": "uint256"
        }
      ],
      "name": "setStakeLastEpoch",
      "outputs": [],
      "stateMutability": "nonpayable",
      "type": "function"
    },
    {
      "inputs": [
        {
          "internalType": "uint256",
          "name": "_stakingEpoch",
          "type": "uint256"
        }
      ],
      "name": "setStakingEpoch",
      "outputs": [],
      "stateMutability": "nonpayable",
      "type": "function"
    },
    {
      "inputs": [
        {
          "internalType": "uint256",
          "name": "_timestamp",
          "type": "uint256"
        }
      ],
      "name": "setStakingEpochStartTime",
      "outputs": [],
      "stateMutability": "nonpayable",
      "type": "function"
    },
    {
      "inputs": [
        {
          "internalType": "address",
          "name": "_validatorAddress",
          "type": "address"
        },
        {
          "internalType": "bytes16",
          "name": "_ip",
          "type": "bytes16"
        },
        {
          "internalType": "bytes2",
          "name": "_port",
          "type": "bytes2"
        }
      ],
      "name": "setValidatorInternetAddress",
      "outputs": [],
      "stateMutability": "nonpayable",
      "type": "function"
    },
    {
      "inputs": [
        {
          "internalType": "contract IValidatorSetHbbft",
          "name": "_validatorSetAddress",
          "type": "address"
        }
      ],
      "name": "setValidatorMockSetAddress",
      "outputs": [],
      "stateMutability": "nonpayable",
      "type": "function"
    },
    {
      "inputs": [
        {
          "internalType": "contract IValidatorSetHbbft",
          "name": "_validatorSetAddress",
          "type": "address"
        }
      ],
      "name": "setValidatorSetAddress",
      "outputs": [],
      "stateMutability": "nonpayable",
      "type": "function"
    },
    {
      "inputs": [
        {
          "internalType": "address",
          "name": "_toPoolStakingAddress",
          "type": "address"
        }
      ],
      "name": "stake",
      "outputs": [],
      "stateMutability": "payable",
      "type": "function"
    },
    {
      "inputs": [
        {
          "internalType": "address",
          "name": "",
          "type": "address"
        },
        {
          "internalType": "address",
          "name": "",
          "type": "address"
        }
      ],
      "name": "stakeAmount",
      "outputs": [
        {
          "internalType": "uint256",
          "name": "",
          "type": "uint256"
        }
      ],
      "stateMutability": "view",
      "type": "function"
    },
    {
      "inputs": [
        {
          "internalType": "address",
          "name": "_poolStakingAddress",
          "type": "address"
        },
        {
          "internalType": "address",
          "name": "_staker",
          "type": "address"
        }
      ],
      "name": "stakeAmountByCurrentEpoch",
      "outputs": [
        {
          "internalType": "uint256",
          "name": "",
          "type": "uint256"
        }
      ],
      "stateMutability": "view",
      "type": "function"
    },
    {
      "inputs": [
        {
          "internalType": "address",
          "name": "",
          "type": "address"
        }
      ],
      "name": "stakeAmountTotal",
      "outputs": [
        {
          "internalType": "uint256",
          "name": "",
          "type": "uint256"
        }
      ],
      "stateMutability": "view",
      "type": "function"
    },
    {
      "inputs": [
        {
          "internalType": "address",
          "name": "",
          "type": "address"
        },
        {
          "internalType": "address",
          "name": "",
          "type": "address"
        }
      ],
      "name": "stakeFirstEpoch",
      "outputs": [
        {
          "internalType": "uint256",
          "name": "",
          "type": "uint256"
        }
      ],
      "stateMutability": "view",
      "type": "function"
    },
    {
      "inputs": [
        {
          "internalType": "address",
          "name": "",
          "type": "address"
        },
        {
          "internalType": "address",
          "name": "",
          "type": "address"
        }
      ],
      "name": "stakeLastEpoch",
      "outputs": [
        {
          "internalType": "uint256",
          "name": "",
          "type": "uint256"
        }
      ],
      "stateMutability": "view",
      "type": "function"
    },
    {
      "inputs": [],
      "name": "stakingEpoch",
      "outputs": [
        {
          "internalType": "uint256",
          "name": "",
          "type": "uint256"
        }
      ],
      "stateMutability": "view",
      "type": "function"
    },
    {
      "inputs": [],
      "name": "stakingEpochStartBlock",
      "outputs": [
        {
          "internalType": "uint256",
          "name": "",
          "type": "uint256"
        }
      ],
      "stateMutability": "view",
      "type": "function"
    },
    {
      "inputs": [],
      "name": "stakingEpochStartTime",
      "outputs": [
        {
          "internalType": "uint256",
          "name": "",
          "type": "uint256"
        }
      ],
      "stateMutability": "view",
      "type": "function"
    },
    {
      "inputs": [],
      "name": "stakingFixedEpochDuration",
      "outputs": [
        {
          "internalType": "uint256",
          "name": "",
          "type": "uint256"
        }
      ],
      "stateMutability": "view",
      "type": "function"
    },
    {
      "inputs": [],
      "name": "stakingFixedEpochEndTime",
      "outputs": [
        {
          "internalType": "uint256",
          "name": "",
          "type": "uint256"
        }
      ],
      "stateMutability": "view",
      "type": "function"
    },
    {
      "inputs": [],
      "name": "stakingTransitionTimeframeLength",
      "outputs": [
        {
          "internalType": "uint256",
          "name": "",
          "type": "uint256"
        }
      ],
      "stateMutability": "view",
      "type": "function"
    },
    {
      "inputs": [],
      "name": "stakingWithdrawDisallowPeriod",
      "outputs": [
        {
          "internalType": "uint256",
          "name": "",
          "type": "uint256"
        }
      ],
      "stateMutability": "view",
      "type": "function"
    },
    {
      "inputs": [],
      "name": "startTimeOfNextPhaseTransition",
      "outputs": [
        {
          "internalType": "uint256",
          "name": "",
          "type": "uint256"
        }
      ],
      "stateMutability": "view",
      "type": "function"
    },
    {
      "inputs": [],
      "name": "validatorSetContract",
      "outputs": [
        {
          "internalType": "contract IValidatorSetHbbft",
          "name": "",
          "type": "address"
        }
      ],
      "stateMutability": "view",
      "type": "function"
    },
    {
      "inputs": [
        {
          "internalType": "address",
          "name": "_fromPoolStakingAddress",
          "type": "address"
        },
        {
          "internalType": "uint256",
          "name": "_amount",
          "type": "uint256"
        }
      ],
      "name": "withdraw",
      "outputs": [],
      "stateMutability": "nonpayable",
      "type": "function"
    },
    {
      "stateMutability": "payable",
      "type": "receive"
    }
  ],
  "bytecode": "0x608060405234801561001057600080fd5b5061590180620000216000396000f3fe6080604052600436106104d45760003560e01c8063862be28711610279578063c6912cc01161015e578063e9ab0300116100d6578063f07860961161008a578063f49425011161006f578063f494250114611082578063fa4aaf4714611096578063ffada862146110c357600080fd5b8063f07860961461104c578063f3fef3a31461106257600080fd5b8063edd7db75116100bb578063edd7db7514610ff5578063edf94b821461100a578063ee435f551461103757600080fd5b8063e9ab030014610f80578063eb3efa1614610fb857600080fd5b8063dadee88a1161012d578063dfc8bf4e11610112578063dfc8bf4e14610ed5578063e2a43cd914610f0d578063e5b1d59314610f4357600080fd5b8063dadee88a14610e93578063df6f55f514610ec057600080fd5b8063c6912cc014610e33578063cfef144114610e48578063d290c21d14610e68578063da7a9b6a14610e7d57600080fd5b8063a5d54f65116101f1578063ae1aaf80116101c0578063b61ed63a116101a5578063b61ed63a14610d94578063bc9eb2c314610db4578063bd30d31d14610dec57600080fd5b8063ae1aaf8014610d51578063b42754a514610d6757600080fd5b8063a5d54f6514610ccf578063a697ecff14610ce4578063a711e6a114610d1c578063adddc0cf14610d3c57600080fd5b80639a7b5f11116102485780639e72c6351161022d5780639e72c63514610c575780639ea8082b14610c77578063a420596714610c9757600080fd5b80639a7b5f1114610c125780639b03d74414610c4157600080fd5b8063862be28714610b77578063950a651314610b975780639518c48114610bb7578063957950a714610bef57600080fd5b80635267e1d6116103ba578063673a2a1f11610332578063750dd2a1116102e65780637b0a0f9b116102cb5780637b0a0f9b14610ac55780637b15b94c14610b335780638247a23914610b5357600080fd5b8063750dd2a114610a5f578063794c0c6814610aaf57600080fd5b80636eda21dc116103175780636eda21dc146109d65780637069e74614610a2957806373c2180314610a3f57600080fd5b8063673a2a1f146109945780636bda1577146109b657600080fd5b80635d80ca3211610389578063611d760c1161036e578063611d760c146109005780636421314714610920578063651139181461096757600080fd5b80635d80ca32146108d45780635fef7643146108ea57600080fd5b80635267e1d61461083d5780635659b7421461086957806356e4d6c2146108a15780635ca2b650146108b457600080fd5b80632bafde8d1161044d5780633b7d09461161041c5780634cf83f9c116104015780634cf83f9c146107da5780634e9b426d146107fa5780634f9a8d8f1461082757600080fd5b80633b7d09461461079a57806348aaa4a2146107ba57600080fd5b80632bafde8d146106f35780633172773014610713578063379b046a14610764578063392e53cd1461077a57600080fd5b80631555371c116104a457806322e3d9861161048957806322e3d986146106ab578063251441a9146106c057806326476204146106e057600080fd5b80631555371c1461061a5780631fb31e431461062f57600080fd5b80622ceebc1461052b578063028b8bdb1461057c57806303a81065146105925780630868c0d6146105e257600080fd5b366105265760405162461bcd60e51b815260206004820152600b60248201527f4e6f742070617961626c6500000000000000000000000000000000000000000060448201526064015b60405180910390fd5b600080fd5b34801561053757600080fd5b506105696105463660046150de565b600b60209081526000938452604080852082529284528284209052825290205481565b6040519081526020015b60405180910390f35b34801561058857600080fd5b5061056960195481565b34801561059e57600080fd5b506105e06105ad3660046150de565b6001600160a01b039283166000908152600b60209081526040808320949095168252928352838120918152915290812055565b005b3480156105ee57600080fd5b506105696105fd36600461511f565b600f60209081526000928352604080842090915290825290205481565b34801561062657600080fd5b506105e06110e3565b34801561063b57600080fd5b5061067961064a366004615158565b6001600160a01b0316600090815260226020526040902060010154608081901b91600160801b90910460f01b90565b604080516fffffffffffffffffffffffffffffffff1990931683526001600160f01b0319909116602083015201610573565b3480156106b757600080fd5b50610569611186565b3480156106cc57600080fd5b506105e06106db3660046150de565b6111cd565b6105e06106ee366004615158565b611352565b3480156106ff57600080fd5b506105e061070e366004615175565b6113a4565b34801561071f57600080fd5b5061075461072e3660046150de565b601560209081526000938452604080852082529284528284209052825290205460ff1681565b6040519015158152602001610573565b34801561077057600080fd5b50610569601f5481565b34801561078657600080fd5b506021546001600160a01b03161515610754565b3480156107a657600080fd5b506105e06107b5366004615158565b611492565b3480156107c657600080fd5b506105e06107d5366004615175565b61149e565b3480156107e657600080fd5b506105e06107f53660046151da565b61158c565b34801561080657600080fd5b5061081a610815366004615158565b6118fc565b60405161057391906152be565b34801561083357600080fd5b50610569601b5481565b34801561084957600080fd5b50610569610858366004615158565b602080526000908152604090205481565b34801561087557600080fd5b5061056961088436600461511f565b601760209081526000928352604080842090915290825290205481565b6105e06108af366004615339565b6119a8565b3480156108c057600080fd5b506105e06108cf366004615175565b601a55565b3480156108e057600080fd5b5061056960235481565b3480156108f657600080fd5b5061056960095481565b34801561090c57600080fd5b506105e061091b366004615158565b611ac1565b34801561092c57600080fd5b506105e061093b3660046150de565b6001600160a01b0392831660009081526018602090815260408083209490951682529290925291902055565b34801561097357600080fd5b50610569610982366004615158565b60116020526000908152604090205481565b3480156109a057600080fd5b506109a9611acc565b60405161057391906153a0565b3480156109c257600080fd5b506105696109d136600461511f565b611b2e565b3480156109e257600080fd5b506105e06109f13660046150de565b6001600160a01b039283166000908152601560209081526040808320949095168252928352838120918152915220805460ff19169055565b348015610a3557600080fd5b50610569601e5481565b348015610a4b57600080fd5b506109a9610a5a366004615158565b611cb2565b348015610a6b57600080fd5b50610569610a7a36600461511f565b6001600160a01b039182166000908152600860209081526040808320939094168252918252828120601a548252909152205490565b348015610abb57600080fd5b50610569601a5481565b348015610ad157600080fd5b506105e0610ae0366004615405565b6001600160a01b039092166000908152602260205260409020600101805460f09390931c600160801b0271ffffffffffffffffffffffffffffffffffff1990931660809290921c91909117919091179055565b348015610b3f57600080fd5b506105e0610b4e366004615158565b611d27565b348015610b5f57600080fd5b506105e0610b6e366004615175565b601d5543601e55565b348015610b8357600080fd5b506105e0610b9236600461544a565b611d64565b348015610ba357600080fd5b50610569610bb236600461511f565b611dc7565b348015610bc357600080fd5b50610569610bd236600461511f565b601060209081526000928352604080842090915290825290205481565b348015610bfb57600080fd5b50610c04611f3c565b6040516105739291906154a4565b348015610c1e57600080fd5b50610c32610c2d366004615158565b611f9f565b604051610573939291906154ec565b348015610c4d57600080fd5b50610569601d5481565b348015610c6357600080fd5b506105e0610c72366004615175565b612053565b348015610c8357600080fd5b506109a9610c92366004615158565b612074565b348015610ca357600080fd5b50610569610cb236600461511f565b600e60209081526000928352604080842090915290825290205481565b348015610cdb57600080fd5b506109a96120e8565b348015610cf057600080fd5b50610569610cff36600461511f565b601660209081526000928352604080842090915290825290205481565b348015610d2857600080fd5b50610754610d37366004615158565b612148565b348015610d4857600080fd5b506105e06121a7565b348015610d5d57600080fd5b50610569601c5481565b348015610d7357600080fd5b50610569610d82366004615158565b60126020526000908152604090205481565b348015610da057600080fd5b506105e0610daf366004615533565b6121c2565b348015610dc057600080fd5b50610569610dcf36600461511f565b601860209081526000928352604080842090915290825290205481565b348015610df857600080fd5b506105e0610e073660046150de565b6001600160a01b0392831660009081526017602090815260408083209490951682529290925291902055565b348015610e3f57600080fd5b50610569612799565b348015610e5457600080fd5b506105e0610e63366004615158565b6127bd565b348015610e7457600080fd5b506109a9612b36565b348015610e8957600080fd5b50610569600a5481565b348015610e9f57600080fd5b50610569610eae366004615158565b600d6020526000908152604090205481565b348015610ecc57600080fd5b506109a9612b96565b348015610ee157600080fd5b50602154610ef5906001600160a01b031681565b6040516001600160a01b039091168152602001610573565b348015610f1957600080fd5b506105e0610f28366004615533565b6001600160a01b039091166000908152602080526040902055565b348015610f4f57600080fd5b506105e0610f5e366004615158565b602480546001600160a01b0319166001600160a01b0392909216919091179055565b348015610f8c57600080fd5b50610569610f9b36600461511f565b600c60209081526000928352604080842090915290825290205481565b348015610fc457600080fd5b506105e0610fd3366004615158565b602180546001600160a01b0319166001600160a01b0392909216919091179055565b34801561100157600080fd5b506105e0612bf6565b34801561101657600080fd5b50610569611025366004615158565b60146020526000908152604090205481565b34801561104357600080fd5b506105e0612df2565b34801561105857600080fd5b50610569610bb881565b34801561106e57600080fd5b506105e061107d366004615533565b612e0e565b34801561108e57600080fd5b506001610754565b3480156110a257600080fd5b506105696110b1366004615158565b60136020526000908152604090205481565b3480156110cf57600080fd5b506105e06110de366004615158565b612ef5565b6000600380548060200260200160405190810160405280929190818152602001828054801561113b57602002820191906000526020600020905b81546001600160a01b0316815260019091019060200180831161111d575b5050505050905060005b8151811015611182576111708282815181106111635761116361555f565b6020026020010151612efe565b8061117a8161558b565b915050611145565b5050565b601d54601b54600091901561119c57600161119f565b60005b60ff16601f54601b54836111b391906155a4565b6111bd91906155a4565b6111c791906155b7565b91505090565b3a60000361120d5760405162461bcd60e51b815260206004820152600d60248201526c04761735072696365206973203609c1b604482015260640161051d565b6021546001600160a01b03166112605760405162461bcd60e51b815260206004820152601860248201527710dbdb9d1c9858dd081b9bdd081a5b9a5d1a585b1a5e995960421b604482015260640161051d565b816001600160a01b0316836001600160a01b0316036112e75760405162461bcd60e51b815260206004820152602760248201527f4d6f76655374616b653a2073726320616e642064737420706f6f6c206973207460448201527f68652073616d6500000000000000000000000000000000000000000000000000606482015260840161051d565b336112f3848284613058565b6112fe83828461338b565b601a54604080516001600160a01b0387811682526020820186905280851692908716917f4480d8e4b1e9095b94bf513961d26fe1d32386ebdd103d18fe8738cf4b2223ff910160405180910390a450505050565b3a6000036113925760405162461bcd60e51b815260206004820152600d60248201526c04761735072696365206973203609c1b604482015260640161051d565b333461139f83838361338b565b505050565b7fb53127684a568b3173ae13b9f8a6016e243e63b6e8ee1178d6a717850b5d6103546001600160a01b0316336001600160a01b03161461143a5760405162461bcd60e51b815260206004820152602b60248201527f6f6e6c792061646d696e20697320616c6c6f77656420746f2063616c6c20746860448201526a34b990333ab731ba34b7b760a91b606482015260840161051d565b6021546001600160a01b031661148d5760405162461bcd60e51b815260206004820152601860248201527710dbdb9d1c9858dd081b9bdd081a5b9a5d1a585b1a5e995960421b604482015260640161051d565b600a55565b61149b81612efe565b50565b7fb53127684a568b3173ae13b9f8a6016e243e63b6e8ee1178d6a717850b5d6103546001600160a01b0316336001600160a01b0316146115345760405162461bcd60e51b815260206004820152602b60248201527f6f6e6c792061646d696e20697320616c6c6f77656420746f2063616c6c20746860448201526a34b990333ab731ba34b7b760a91b606482015260840161051d565b6021546001600160a01b03166115875760405162461bcd60e51b815260206004820152601860248201527710dbdb9d1c9858dd081b9bdd081a5b9a5d1a585b1a5e995960421b604482015260640161051d565b600955565b8460a001356000036115e05760405162461bcd60e51b815260206004820152601760248201527f466978656445706f63684475726174696f6e2069732030000000000000000000604482015260640161051d565b8460e001358560a001351161165d5760405162461bcd60e51b815260206004820152603d60248201527f466978656445706f63684475726174696f6e206d757374206265206c6f6e676560448201527f72207468616e207769746864726177446973616c6c6f77506572696f64000000606482015260840161051d565b8460e001356000036116b15760405162461bcd60e51b815260206004820152601b60248201527f5769746864726177446973616c6c6f77506572696f6420697320300000000000604482015260640161051d565b8460c0013560000361172b5760405162461bcd60e51b815260206004820152602e60248201527f546865207472616e736974696f6e2074696d656672616d65206d75737420626560448201527f206c6f6e676572207468616e2030000000000000000000000000000000000000606482015260840161051d565b8460a001358560c00135106117aa576040805162461bcd60e51b81526020600482015260248101919091527f546865207472616e736974696f6e2074696d656672616d65206d75737420626560448201527f2073686f72746572207468656e207468652065706f6368206475726174696f6e606482015260840161051d565b61186e6117ba6020870187615158565b6117c760208801886155ca565b8080602002602001604051908101604052809392919081815260200183836020028082843760009201919091525050604080516020808b02828101820184528b8352928d0135945060608d0135935060808d0135928c918c91829185019084908082843760009201919091525050604080516020808d0282810182019093528c82529093508c92508b91829185019084908082843760009201919091525061394f92505050565b60a0850135601b5560e085013560195560215460408051636c9230db60e01b815290516001600160a01b0390921691636c9230db916004808201926020929091908290030181865afa1580156118c8573d6000803e3d6000fd5b505050506040513d601f19601f820116820180604052508101906118ec9190615614565b601d555050505060c00135601c55565b6001600160a01b03811660009081526022602052604090208054606091906119239061562d565b80601f016020809104026020016040519081016040528092919081815260200182805461194f9061562d565b801561199c5780601f106119715761010080835404028352916020019161199c565b820191906000526020600020905b81548152906001019060200180831161197f57829003601f168201915b50505050509050919050565b3a6000036119e85760405162461bcd60e51b815260206004820152600d60248201526c04761735072696365206973203609c1b604482015260640161051d565b602154604051630526083960e11b81526001600160a01b0386811660048301523360248301819052923492911690630a4c107290604401600060405180830381600087803b158015611a3957600080fd5b505af1158015611a4d573d6000803e3d6000fd5b50505050611a5c82838361338b565b6001600160a01b0382166000908152602260205260409020611a7f8587836156c3565b50506001600160a01b0316600090815260226020526040902060010180546fffffffffffffffffffffffffffffffff191660809290921c919091179055505050565b61149b81600161400b565b60606000805480602002602001604051908101604052809291908181526020018280548015611b2457602002820191906000526020600020905b81546001600160a01b03168152600190910190602001808311611b06575b5050505050905090565b6021546040516253517560e01b81526001600160a01b03848116600483015260009283929116906253517590602401602060405180830381865afa158015611b7a573d6000803e3d6000fd5b505050506040513d601f19601f82011682018060405250810190611b9e9190615783565b9050611bbf81846001600160a01b0316866001600160a01b031614156140dc565b611bcd576000915050611cac565b6001600160a01b03848116600090815260166020908152604080832087851684529091529081902054602154915163a0d16cad60e01b815284841660048201529092919091169063a0d16cad90602401602060405180830381865afa158015611c3a573d6000803e3d6000fd5b505050506040513d601f19601f82011682018060405250810190611c5e91906157a0565b611c6b579150611cac9050565b6001600160a01b0385811660009081526008602090815260408083209388168352928152828220601a5483529052205480821115611ca7578091505b509150505b92915050565b6001600160a01b03811660009081526007602090815260409182902080548351818402810184019094528084526060939283018282801561199c57602002820191906000526020600020905b81546001600160a01b03168152600190910190602001808311611cfe5750505050509050919050565b6009546001600160a01b03821660009081526016602090815260408083209091529020541061149b57611d5b81600161400b565b61149b816141e8565b336000908152602260205260409020611d7e8486836156c3565b50336000908152602260205260409020600101805460f09290921c600160801b0271ffffffffffffffffffffffffffffffffffff1990921660809390931c929092171790555050565b6021546040516253517560e01b81526001600160a01b03848116600483015260009283929116906253517590602401602060405180830381865afa158015611e13573d6000803e3d6000fd5b505050506040513d601f19601f82011682018060405250810190611e379190615783565b9050611e5881846001600160a01b0316866001600160a01b031614156140dc565b611e66576000915050611cac565b60215460405163a0d16cad60e01b81526001600160a01b0383811660048301529091169063a0d16cad90602401602060405180830381865afa158015611eb0573d6000803e3d6000fd5b505050506040513d601f19601f82011682018060405250810190611ed491906157a0565b611ee2576000915050611cac565b6001600160a01b038481166000818152600860209081526040808320948816808452948252808320601a548452825280832054938352601682528083209483529390529190912054611f3491906155b7565b949350505050565b60606000600460055481805480602002602001604051908101604052809291908181526020018280548015611f9057602002820191906000526020600020905b815481526020019060010190808311611f7c575b50505050509150915091509091565b602260205260009081526040902080548190611fba9061562d565b80601f0160208091040260200160405190810160405280929190818152602001828054611fe69061562d565b80156120335780601f1061200857610100808354040283529160200191612033565b820191906000526020600020905b81548152906001019060200180831161201657829003601f168201915b50505060019093015491925050608081901b90600160801b900460f01b83565b601c5481601f5461206491906155a4565b61206e91906155a4565b601f5550565b6001600160a01b03811660009081526006602090815260409182902080548351818402810184019094528084526060939283018282801561199c576020028201919060005260206000209081546001600160a01b03168152600190910190602001808311611cfe5750505050509050919050565b60606002805480602002602001604051908101604052809291908181526020018280548015611b24576020028201919060005260206000209081546001600160a01b03168152600190910190602001808311611b06575050505050905090565b6001600160a01b0381166000908152601260205260408120548154811080156121a05750826001600160a01b0316600082815481106121895761218961555f565b6000918252602090912001546001600160a01b0316145b9392505050565b601c54601f60008282546121bb91906155a4565b9091555050565b3a6000036122025760405162461bcd60e51b815260206004820152600d60248201526c04761735072696365206973203609c1b604482015260640161051d565b6021546001600160a01b03166122555760405162461bcd60e51b815260206004820152601860248201527710dbdb9d1c9858dd081b9bdd081a5b9a5d1a585b1a5e995960421b604482015260640161051d565b6001600160a01b0382166122b65760405162461bcd60e51b815260206004820152602260248201527f706f6f6c5374616b696e6741646472657373206d757374206e6f742062652030604482015261078360f41b606482015260840161051d565b8060000361232c5760405162461bcd60e51b815260206004820152602560248201527f6f72646572656420776974686472617720616d6f756e74206d757374206e6f7460448201527f2062652030000000000000000000000000000000000000000000000000000000606482015260840161051d565b6021546040516253517560e01b81526001600160a01b03848116600483015233926123b8929116906253517590602401602060405180830381865afa158015612379573d6000803e3d6000fd5b505050506040513d601f19601f8201168201806040525081019061239d9190615783565b846001600160a01b0316836001600160a01b031614156140dc565b6124045760405162461bcd60e51b815260206004820152601a60248201527f4f7264657257697468647261773a206e6f7420616c6c6f776564000000000000604482015260640161051d565b6001600160a01b038084166000818152600c6020908152604080832094861680845294825280832054848452600d83528184205460168452828520968552958352818420549484529180528220549093929186131561253d57856124688887611dc7565b8111156124dd5760405162461bcd60e51b815260206004820152602f60248201527f4f7264657257697468647261773a206d617857697468647261774f726465724160448201527f6c6c6f7765642065786365656465640000000000000000000000000000000000606482015260840161051d565b6124e781866155a4565b94506124f381856155a4565b93506124ff81846155b7565b925061250b81836155b7565b601a546001600160a01b03808b166000908152600e60209081526040808320938c1683529290522055915061257c9050565b6000612548876157c2565b905061255481866155b7565b945061256081856155b7565b935061256c81846155a4565b925061257881836155a4565b9150505b6001600160a01b038088166000818152600c60209081526040808320948a16808452948252808320899055838352600d825280832088905560168252808320858452825280832087905583835290805290208390559003612682578115806125e657506009548210155b6126585760405162461bcd60e51b815260206004820152603360248201527f6e65775374616b6520416d6f756e74206d75737420626520677265617465722060448201527f7468616e20746865206d696e207374616b652e00000000000000000000000000606482015260840161051d565b6000861315612677578160000361267257612672876142b6565b612737565b61267287600161400b565b8115806126915750600a548210155b6127035760405162461bcd60e51b815260206004820152603360248201527f6e65775374616b6520416d6f756e74206d75737420626520677265617465722060448201527f7468616e20746865206d696e207374616b652e00000000000000000000000000606482015260840161051d565b6000861315612723578160000361271e5761271e878661437a565b61272d565b61272d878661450e565b61273787866145d6565b612740876141e8565b601a54856001600160a01b0316886001600160a01b03167f80d5c777e5f7ac6ee89723223803ca5c0ec0204f89e99c1b0cde973c66a645948960405161278891815260200190565b60405180910390a450505050505050565b6000601c54601b54601d546127ae91906155a4565b6127b891906155b7565b905090565b3a6000036127fd5760405162461bcd60e51b815260206004820152600d60248201526c04761735072696365206973203609c1b604482015260640161051d565b6021546001600160a01b03166128505760405162461bcd60e51b815260206004820152601860248201527710dbdb9d1c9858dd081b9bdd081a5b9a5d1a585b1a5e995960421b604482015260640161051d565b6001600160a01b0381166000908152600e6020908152604080832033808552925290912054601a54116128eb5760405162461bcd60e51b815260206004820152603f60248201527f63616e6e6f7420636c61696d206f72646572656420776974686472617720696e60448201527f207468652073616d652065706f636820697420776173206f7264657265642e00606482015260840161051d565b6021546040516253517560e01b81526001600160a01b0384811660048301526129749216906253517590602401602060405180830381865afa158015612935573d6000803e3d6000fd5b505050506040513d601f19601f820116820180604052508101906129599190615783565b836001600160a01b0316836001600160a01b031614156140dc565b6129e65760405162461bcd60e51b815260206004820152602a60248201527f436c61696d4f72646572656457697468647261773a205769746864726177206e60448201527f6f7420616c6c6f77656400000000000000000000000000000000000000000000606482015260840161051d565b6001600160a01b038083166000908152600c6020908152604080832093851683529290529081205490819003612a5e5760405162461bcd60e51b815260206004820152601a60248201527f636c61696d20616d6f756e74206d757374206e6f742062652030000000000000604482015260640161051d565b6001600160a01b038084166000818152600c602090815260408083209487168352938152838220829055918152600d9091522054612a9d9082906155b7565b6001600160a01b038085166000908152600d602090815260408083209490945560168152838220928616825291909152908120549003612ae157612ae183836146db565b601a54826001600160a01b0316846001600160a01b03167ff380b0bc887e00f5b50d3c9d4eaaf5c9a0afd97b956316b995159384c4ede9b384604051612b2991815260200190565b60405180910390a4505050565b60606003805480602002602001604051908101604052809291908181526020018280548015611b24576020028201919060005260206000209081546001600160a01b03168152600190910190602001808311611b06575050505050905090565b60606001805480602002602001604051908101604052809291908181526020018280548015611b24576020028201919060005260206000209081546001600160a01b03168152600190910190602001808311611b06575050505050905090565b3a600003612c365760405162461bcd60e51b815260206004820152600d60248201526c04761735072696365206973203609c1b604482015260640161051d565b6021546001600160a01b0316612c895760405162461bcd60e51b815260206004820152601860248201527710dbdb9d1c9858dd081b9bdd081a5b9a5d1a585b1a5e995960421b604482015260640161051d565b6021546040516253517560e01b81523360048201819052916000916001600160a01b03909116906253517590602401602060405180830381865afa158015612cd5573d6000803e3d6000fd5b505050506040513d601f19601f82011682018060405250810190612cf99190615783565b90506000601a541180612d77575060215460405163facd743b60e01b81526001600160a01b0383811660048301529091169063facd743b90602401602060405180830381865afa158015612d51573d6000803e3d6000fd5b505050506040513d601f19601f82011682018060405250810190612d7591906157a0565b155b612de95760405162461bcd60e51b815260206004820152602a60248201527f43616e27742072656d6f766520706f6f6c20647572696e67203173742073746160448201527f6b696e672065706f636800000000000000000000000000000000000000000000606482015260840161051d565b61118282612efe565b601a8054906000612e028361558b565b90915550506000601f55565b3a600003612e4e5760405162461bcd60e51b815260206004820152600d60248201526c04761735072696365206973203609c1b604482015260640161051d565b6021546001600160a01b0316612ea15760405162461bcd60e51b815260206004820152601860248201527710dbdb9d1c9858dd081b9bdd081a5b9a5d1a585b1a5e995960421b604482015260640161051d565b33612ead838284613058565b601a54816001600160a01b0316846001600160a01b03167fa7c0f0cac6bd4d18042007706c84a8abe823751cf289b69c01e83eef7b5915c785604051612b2991815260200190565b61149b81614809565b6001600160a01b038116600090815260126020526040812054905481108015612f565750816001600160a01b031660008281548110612f3f57612f3f61555f565b6000918252602090912001546001600160a01b0316145b1561302157600080548190612f6d906001906155b7565b81548110612f7d57612f7d61555f565b600091825260208220015481546001600160a01b03909116925082919084908110612faa57612faa61555f565b600091825260208083209190910180546001600160a01b0319166001600160a01b0394851617905583831682526012905260408082208590559185168152908120819055805480612ffd57612ffd6157de565b600082815260209020810160001990810180546001600160a01b0319169055019055505b61302a826148c7565b1561303d5761303882614904565b613046565b61304682614809565b61304f82614a2e565b61118282614c4b565b6001600160a01b0383166130d45760405162461bcd60e51b815260206004820152602e60248201527f576974686472617720706f6f6c207374616b696e672061646472657373206d7560448201527f7374206e6f74206265206e756c6c000000000000000000000000000000000000606482015260840161051d565b806000036131245760405162461bcd60e51b815260206004820181905260248201527f616d6f756e7420746f207769746864726177206d757374206e6f742062652030604482015260640161051d565b61312e8383611b2e565b8111156131a35760405162461bcd60e51b815260206004820152602560248201527f57697468647261773a206d61785769746864726177416c6c6f7765642065786360448201527f6565646564000000000000000000000000000000000000000000000000000000606482015260840161051d565b6001600160a01b0380841660009081526016602090815260408083209386168352929052908120546131d69083906155b7565b90506000836001600160a01b0316856001600160a01b0316146131fb57600a546131ff565b6009545b905081158061320e5750808210155b6132805760405162461bcd60e51b815260206004820152603960248201527f6e65775374616b6520616d6f756e74206d75737420626520677265617465722060448201527f657175616c207468616e20746865206d696e207374616b652e00000000000000606482015260840161051d565b6001600160a01b03858116600081815260166020908152604080832094891680845294825280832087905592825260088152828220938252928352818120601a548252909252902054838110156132d85760006132e2565b6132e284826155b7565b6001600160a01b038088166000818152600860209081526040808320948b168352938152838220601a54835281528382209490945590815291805290205461332b9085906155b7565b6001600160a01b03871660009081526020805260408120919091558390036133575761335786866146db565b856001600160a01b0316856001600160a01b03161461337a5761337a86866145d6565b613383866141e8565b505050505050565b6021546040516253517560e01b81526001600160a01b03858116600483015260009216906253517590602401602060405180830381865afa1580156133d4573d6000803e3d6000fd5b505050506040513d601f19601f820116820180604052508101906133f89190615783565b90506001600160a01b038116613478576040805162461bcd60e51b81526020600482015260248101919091527f506f6f6c20646f6573206e6f742065786973742e206d696e696e67416464726560448201527f737320666f722074686174207374616b696e6720616464726573732069732030606482015260840161051d565b6001600160a01b0384166134ce5760405162461bcd60e51b815260206004820152601a60248201527f5374616b653a207374616b696e67416464726573732069732030000000000000604482015260640161051d565b8160000361351e5760405162461bcd60e51b815260206004820152601960248201527f5374616b653a207374616b696e67416d6f756e74206973203000000000000000604482015260640161051d565b602154604051635491295760e11b81526001600160a01b0383811660048301529091169063a92252ae90602401602060405180830381865afa158015613568573d6000803e3d6000fd5b505050506040513d601f19601f8201168201806040525081019061358c91906157a0565b156135d95760405162461bcd60e51b815260206004820152601f60248201527f5374616b653a204d696e696e6720616464726573732069732062616e6e656400604482015260640161051d565b6001600160a01b03808516600090815260166020908152604080832093871683529290529081205461360c9084906155a4565b9050846001600160a01b0316846001600160a01b0316036136a45760095481101561369f5760405162461bcd60e51b815260206004820152603160248201527f5374616b653a2063616e6469646174655374616b65206c657373207468616e2060448201527f63616e6469646174654d696e5374616b65000000000000000000000000000000606482015260840161051d565b613797565b600a5481101561371c5760405162461bcd60e51b815260206004820152603460248201527f5374616b653a2064656c656761746f725374616b65206973206c65737320746860448201527f616e2064656c656761746f724d696e5374616b65000000000000000000000000606482015260840161051d565b6001600160a01b038516600090815260166020908152604080832090915281205490036137975760405162461bcd60e51b815260206004820152602360248201527f5374616b653a2063616e27742064656c656761746520696e20656d70747920706044820152621bdbdb60ea1b606482015260840161051d565b6023546001600160a01b03861660009081526020805260409020546137bd9085906155a4565b111561380b5760405162461bcd60e51b815260206004820152601d60248201527f7374616b65206c696d697420686173206265656e206578636565646564000000604482015260640161051d565b6001600160a01b03858116600081815260166020908152604080832094891680845294825280832086905592825260088152828220938252928352818120601a54825290925290205461385f9084906155a4565b6001600160a01b038087166000818152600860209081526040808320948a168352938152838220601a5483528152838220949094559081529180529020546138a89084906155a4565b6001600160a01b0380871660008181526020805260409020929092558516036138db576138d685600161400b565b6138ef565b6138e5858561450e565b6138ef85856145d6565b6138f8856141e8565b601a54846001600160a01b0316866001600160a01b03167f2273de02cb1f69ba6259d22c4bc22c60e4c94c193265ef6afee324a04a9b6d228660405161394091815260200190565b60405180910390a45050505050565b7fb53127684a568b3173ae13b9f8a6016e243e63b6e8ee1178d6a717850b5d6103546001600160a01b0316336001600160a01b031614806139c257507fb53127684a568b3173ae13b9f8a6016e243e63b6e8ee1178d6a717850b5d6103546001600160a01b0316326001600160a01b0316145b806139f557507fb53127684a568b3173ae13b9f8a6016e243e63b6e8ee1178d6a717850b5d6103546001600160a01b0316155b806139fe575043155b613a705760405162461bcd60e51b815260206004820152603060248201527f496e697469616c697a6174696f6e206f6e6c79206f6e2067656e65736973206260448201527f6c6f636b206f722062792061646d696e00000000000000000000000000000000606482015260840161051d565b6021546001600160a01b031615613ac95760405162461bcd60e51b815260206004820152601360248201527f416c726561647920696e697469616c697a656400000000000000000000000000604482015260640161051d565b6001600160a01b038716613b1f5760405162461bcd60e51b815260206004820152601760248201527f56616c696461746f725365742063616e27742062652030000000000000000000604482015260640161051d565b6000865111613b965760405162461bcd60e51b815260206004820152602560248201527f4d7573742070726f7669646520696e697469616c206d696e696e67206164647260448201527f6573736573000000000000000000000000000000000000000000000000000000606482015260840161051d565b81518651613ba59060026157f4565b14613c185760405162461bcd60e51b815260206004820152602960248201527f4d7573742070726f7669646520636f7272656374206e756d626572206f66207060448201527f75626c69634b6579730000000000000000000000000000000000000000000000606482015260840161051d565b8051865114613c8f5760405162461bcd60e51b815260206004820152602a60248201527f4d7573742070726f7669646520636f7272656374206e756d626572206f66204960448201527f5020616472657373657300000000000000000000000000000000000000000000606482015260840161051d565b84600003613cdf5760405162461bcd60e51b815260206004820152601660248201527f44656c656761746f724d696e5374616b65206973203000000000000000000000604482015260640161051d565b83600003613d2f5760405162461bcd60e51b815260206004820152601660248201527f43616e6469646174654d696e5374616b65206973203000000000000000000000604482015260640161051d565b838311613da45760405162461bcd60e51b815260206004820152603160248201527f6d6178696d756d207374616b65206d757374206265206772656174657220746860448201527f656e206d696e696d756d207374616b652e000000000000000000000000000000606482015260840161051d565b602180546001600160a01b0319166001600160a01b03891617905560005b8651811015613ff85760006001600160a01b0316878281518110613de857613de861555f565b60200260200101516001600160a01b031603613e515760405162461bcd60e51b815260206004820152602260248201527f496e697469616c5374616b696e674164647265737365732063616e2774206265604482015261020360f41b606482015260840161051d565b613e75878281518110613e6657613e6661555f565b6020026020010151600061400b565b613e97878281518110613e8a57613e8a61555f565b60200260200101516142b6565b82613ea38260026157f4565b81518110613eb357613eb361555f565b602002602001015183826002613ec991906157f4565b613ed49060016155a4565b81518110613ee457613ee461555f565b6020026020010151604051602001613f06929190918252602082015260400190565b60405160208183030381529060405260226000898481518110613f2b57613f2b61555f565b60200260200101516001600160a01b03166001600160a01b031681526020019081526020016000206000019081613f62919061580b565b50818181518110613f7557613f7561555f565b602002602001015160226000898481518110613f9357613f9361555f565b60200260200101516001600160a01b03166001600160a01b0316815260200190815260200160002060010160006101000a8154816fffffffffffffffffffffffffffffffff021916908360801c02179055508080613ff09061558b565b915050613dc2565b505050600a929092556009556023555050565b61401482612148565b6140c457600080546001600160a01b0384168083526012602052604083208290556001820183559180527f290decd9548b62a8d60345a988386fc84ba6bc95484008f6362f93160ef3e5630180546001600160a01b0319169091179055606460005411156140c45760405162461bcd60e51b815260206004820152601d60248201527f4d41585f43414e4449444154455320706f6f6c73206578636565646564000000604482015260640161051d565b6140cd82614904565b80156111825761118282614d4f565b600081156141645760215460405163a881c5fd60e01b81526001600160a01b0385811660048301529091169063a881c5fd90602401602060405180830381865afa15801561412e573d6000803e3d6000fd5b505050506040513d601f19601f8201168201806040525081019061415291906157a0565b1561415f57506000611cac565b6141df565b602154604051635491295760e11b81526001600160a01b0385811660048301529091169063a92252ae90602401602060405180830381865afa1580156141ae573d6000803e3d6000fd5b505050506040513d601f19601f820116820180604052508101906141d291906157a0565b156141df57506000611cac565b50600192915050565b6000806141f483614e44565b915091508161420257505050565b6000600482815481106142175761421761555f565b90600052602060002001549050600060206000866001600160a01b03166001600160a01b0316815260200190815260200160002054905080600484815481106142625761426261555f565b6000918252602090912001558181106142945761427f82826155b7565b60055461428c91906155a4565b6005556142af565b61429e81836155b7565b6005546142ab91906155b7565b6005555b5050505050565b6001600160a01b03811660009081526014602052604090205460035480821015806143115750826001600160a01b0316600383815481106142f9576142f961555f565b6000918252602090912001546001600160a01b031614155b15614371576001600160a01b03831660008181526014602052604081208390556003805460018101825591527fc2575a0e9e593c00f959f8c92f12db2869c3395a3b0502d05e2516446f71f85b0180546001600160a01b03191690911790555b61139f83614a2e565b6001600160a01b038083166000908152600660209081526040808320600f83528184209486168452939091529020548154811080156143e75750826001600160a01b03168282815481106143d0576143d061555f565b6000918252602090912001546001600160a01b0316145b156144c457815460009083906143ff906001906155b7565b8154811061440f5761440f61555f565b9060005260206000200160009054906101000a90046001600160a01b03169050808383815481106144425761444261555f565b600091825260208083209190910180546001600160a01b0319166001600160a01b039485161790558783168252600f81526040808320858516845290915280822085905591861681529081205582548390806144a0576144a06157de565b600082815260209020810160001990810180546001600160a01b0319169055019055505b6001600160a01b038085166000908152600c6020908152604080832093871683529290522054156144fe576144f98484614eb6565b614508565b6145088484614f7a565b50505050565b6001600160a01b038083166000908152600660209081526040808320600f83528184209486168452939091529020548154808210158061457d5750836001600160a01b03168383815481106145655761456561555f565b6000918252602090912001546001600160a01b031614155b156145cc576001600160a01b038086166000908152600f602090815260408083209388168084529382528220849055855460018101875586835291200180546001600160a01b03191690911790555b6142af8585614f7a565b6000601a5460016145e791906155a4565b6001600160a01b03808516600090815260166020908152604080832093871683529290529081205491925081900361462157600019614623565b805b6001600160a01b038086166000818152600b602090815260408083209489168084529482528083208884528252808320959095559181526017825283812092815291905290812054900361469a576001600160a01b0380851660009081526017602090815260408083209387168352929052208290555b80156146a75760006146a9565b815b6001600160a01b0394851660009081526018602090815260408083209690971682529490945293909220929092555050565b816001600160a01b0316816001600160a01b0316036147e8576021546040516253517560e01b81526001600160a01b03848116600483015260009216906253517590602401602060405180830381865afa15801561473d573d6000803e3d6000fd5b505050506040513d601f19601f820116820180604052508101906147619190615783565b60215460405163facd743b60e01b81526001600160a01b03808416600483015292935091169063facd743b90602401602060405180830381865afa1580156147ad573d6000803e3d6000fd5b505050506040513d601f19601f820116820180604052508101906147d191906157a0565b156147df5761139f836142b6565b61139f83612efe565b6147f2828261437a565b6147fb826148c7565b156111825761118282614904565b6001600160a01b03811660009081526011602052604090205460015480821015806148645750826001600160a01b03166001838154811061484c5761484c61555f565b6000918252602090912001546001600160a01b031614155b1561139f576001600160a01b038316600081815260116020526040812083905560018054808201825591527fb10e2d527612073b26eecdfd717e6a320cf44b4afac2b0732d9fcbe2b7fa0cf60180546001600160a01b0319169091179055505050565b6001600160a01b0381166000908152602080526040812054158015611cac5750506001600160a01b03166000908152600d60205260409020541590565b6001600160a01b0381166000908152601160205260409020546001548110801561495d5750816001600160a01b0316600182815481106149465761494661555f565b6000918252602090912001546001600160a01b0316145b156111825760018054600091906149759082906155b7565b815481106149855761498561555f565b600091825260209091200154600180546001600160a01b0390921692508291849081106149b4576149b461555f565b600091825260208083209190910180546001600160a01b0319166001600160a01b0394851617905583831682526011905260408082208590559185168152908120556001805480614a0757614a076157de565b600082815260209020810160001990810180546001600160a01b0319169055019055505050565b60045460025414614a3c5750565b6001600160a01b03811660009081526013602052604090205460025481108015614a955750816001600160a01b031660028281548110614a7e57614a7e61555f565b6000918252602090912001546001600160a01b0316145b156111825760048181548110614aad57614aad61555f565b906000526020600020015460055410614afa5760048181548110614ad357614ad361555f565b906000526020600020015460056000828254614aef91906155b7565b90915550614b009050565b60006005555b600254600090614b12906001906155b7565b9050600060028281548110614b2957614b2961555f565b600091825260209091200154600280546001600160a01b039092169250829185908110614b5857614b5861555f565b9060005260206000200160006101000a8154816001600160a01b0302191690836001600160a01b0316021790555060048281548110614b9957614b9961555f565b906000526020600020015460048481548110614bb757614bb761555f565b60009182526020808320909101929092556001600160a01b038084168252601390925260408082208690559186168152908120556002805480614bfc57614bfc6157de565b600082815260209020810160001990810180546001600160a01b03191690550190556004805480614c2f57614c2f6157de565b6001900381819060005260206000200160009055905550505050565b6001600160a01b03811660009081526014602052604090205460035481108015614ca45750816001600160a01b031660038281548110614c8d57614c8d61555f565b6000918252602090912001546001600160a01b0316145b15611182576003805460009190614cbd906001906155b7565b81548110614ccd57614ccd61555f565b600091825260209091200154600380546001600160a01b039092169250829184908110614cfc57614cfc61555f565b600091825260208083209190910180546001600160a01b0319166001600160a01b0394851617905583831682526014905260408082208590559185168152908120556003805480614a0757614a076157de565b6001600160a01b0381166000908152601360205260409020546002548082101580614daa5750826001600160a01b031660028381548110614d9257614d9261555f565b6000918252602090912001546001600160a01b031614155b15614e3b576001600160a01b03831660008181526013602052604081208390556002805460018181019092557f405787fa12a823e0f2b7631cc41b3ba8828b3321ca811111fa75cd3aa3bb5ace0180546001600160a01b03191690931790925560048054928301815581527f8a35acfbc15ff81a39ae7d344fd709f28e8600b4aa8c65c6b64bfe7fe36bd19b909101555b61139f83614c4b565b6001600160a01b03811660009081526013602052604081205460025481108015614e9d5750826001600160a01b031660028281548110614e8657614e8661555f565b6000918252602090912001546001600160a01b0316145b15614eab5760019150915091565b506000928392509050565b6001600160a01b0380831660009081526007602090815260408083206010835281842094861684529390915290205481548082101580614f255750836001600160a01b0316838381548110614f0d57614f0d61555f565b6000918252602090912001546001600160a01b031614155b156142af576001600160a01b0380861660009081526010602090815260408083209388168084529382528220849055855460018101875586835291200180546001600160a01b03191690911790555050505050565b6001600160a01b03808316600090815260076020908152604080832060108352818420948616845293909152902054815481108015614fe75750826001600160a01b0316828281548110614fd057614fd061555f565b6000918252602090912001546001600160a01b0316145b156145085781546000908390614fff906001906155b7565b8154811061500f5761500f61555f565b9060005260206000200160009054906101000a90046001600160a01b03169050808383815481106150425761504261555f565b600091825260208083209190910180546001600160a01b0319166001600160a01b039485161790558783168252601081526040808320858516845290915280822085905591861681529081205582548390806150a0576150a06157de565b600082815260209020810160001990810180546001600160a01b03191690550190555050505050565b6001600160a01b038116811461149b57600080fd5b6000806000606084860312156150f357600080fd5b83356150fe816150c9565b9250602084013561510e816150c9565b929592945050506040919091013590565b6000806040838503121561513257600080fd5b823561513d816150c9565b9150602083013561514d816150c9565b809150509250929050565b60006020828403121561516a57600080fd5b81356121a0816150c9565b60006020828403121561518757600080fd5b5035919050565b60008083601f8401126151a057600080fd5b50813567ffffffffffffffff8111156151b857600080fd5b6020830191508360208260051b85010111156151d357600080fd5b9250929050565b6000806000806000606086880312156151f257600080fd5b853567ffffffffffffffff8082111561520a57600080fd5b90870190610100828a03121561521f57600080fd5b9095506020870135908082111561523557600080fd5b61524189838a0161518e565b9096509450604088013591508082111561525a57600080fd5b506152678882890161518e565b969995985093965092949392505050565b6000815180845260005b8181101561529e57602081850181015186830182015201615282565b506000602082860101526020601f19601f83011685010191505092915050565b6020815260006121a06020830184615278565b60008083601f8401126152e357600080fd5b50813567ffffffffffffffff8111156152fb57600080fd5b6020830191508360208285010111156151d357600080fd5b80356fffffffffffffffffffffffffffffffff198116811461533457600080fd5b919050565b6000806000806060858703121561534f57600080fd5b843561535a816150c9565b9350602085013567ffffffffffffffff81111561537657600080fd5b615382878288016152d1565b9094509250615395905060408601615313565b905092959194509250565b6020808252825182820181905260009190848201906040850190845b818110156153e15783516001600160a01b0316835292840192918401916001016153bc565b50909695505050505050565b80356001600160f01b03198116811461533457600080fd5b60008060006060848603121561541a57600080fd5b8335615425816150c9565b925061543360208501615313565b9150615441604085016153ed565b90509250925092565b6000806000806060858703121561546057600080fd5b843567ffffffffffffffff81111561547757600080fd5b615483878288016152d1565b9095509350615496905060208601615313565b9150615395604086016153ed565b604080825283519082018190526000906020906060840190828701845b828110156154dd578151845292840192908401906001016154c1565b50505092019290925292915050565b6060815260006154ff6060830186615278565b6fffffffffffffffffffffffffffffffff19949094166020830152506001600160f01b031991909116604090910152919050565b6000806040838503121561554657600080fd5b8235615551816150c9565b946020939093013593505050565b634e487b7160e01b600052603260045260246000fd5b634e487b7160e01b600052601160045260246000fd5b60006001820161559d5761559d615575565b5060010190565b80820180821115611cac57611cac615575565b81810381811115611cac57611cac615575565b6000808335601e198436030181126155e157600080fd5b83018035915067ffffffffffffffff8211156155fc57600080fd5b6020019150600581901b36038213156151d357600080fd5b60006020828403121561562657600080fd5b5051919050565b600181811c9082168061564157607f821691505b60208210810361566157634e487b7160e01b600052602260045260246000fd5b50919050565b634e487b7160e01b600052604160045260246000fd5b601f82111561139f57600081815260208120601f850160051c810160208610156156a45750805b601f850160051c820191505b81811015613383578281556001016156b0565b67ffffffffffffffff8311156156db576156db615667565b6156ef836156e9835461562d565b8361567d565b6000601f841160018114615723576000851561570b5750838201355b600019600387901b1c1916600186901b1783556142af565b600083815260209020601f19861690835b828110156157545786850135825560209485019460019092019101615734565b50868210156157715760001960f88860031b161c19848701351681555b505060018560011b0183555050505050565b60006020828403121561579557600080fd5b81516121a0816150c9565b6000602082840312156157b257600080fd5b815180151581146121a057600080fd5b6000600160ff1b82016157d7576157d7615575565b5060000390565b634e487b7160e01b600052603160045260246000fd5b8082028115828204841417611cac57611cac615575565b815167ffffffffffffffff81111561582557615825615667565b61583981615833845461562d565b8461567d565b602080601f83116001811461586e57600084156158565750858301515b600019600386901b1c1916600185901b178555613383565b600085815260208120601f198616915b8281101561589d5788860151825594840194600190910190840161587e565b50858210156158bb5787850151600019600388901b60f8161c191681555b5050505050600190811b0190555056fea2646970667358221220c062ce0e469b0c731df2e4de5e72f7b39456bfc97ae921f154676bbeb21a4e1864736f6c63430008110033",
  "linkReferences": {},
  "deployedLinkReferences": {}
}