{
  "_format": "hh-sol-artifact-1",
  "contractName": "TxPermissionHbbft",
  "sourceName": "contracts/TxPermissionHbbft.sol",
  "abi": [
    {
      "anonymous": false,
      "inputs": [
        {
          "indexed": false,
          "internalType": "uint256",
          "name": "_value",
          "type": "uint256"
        }
      ],
      "name": "gasPriceChanged",
      "type": "event"
    },
    {
      "inputs": [],
      "name": "ANNOUNCE_AVAILABILITY_SIGNATURE",
      "outputs": [
        {
          "internalType": "bytes4",
          "name": "",
          "type": "bytes4"
        }
      ],
      "stateMutability": "view",
      "type": "function"
    },
    {
      "inputs": [],
      "name": "REPORT_MALICIOUS_SIGNATURE",
      "outputs": [
        {
          "internalType": "bytes4",
          "name": "",
          "type": "bytes4"
        }
      ],
      "stateMutability": "view",
      "type": "function"
    },
    {
      "inputs": [],
      "name": "SET_VALIDATOR_IP",
      "outputs": [
        {
          "internalType": "bytes4",
          "name": "",
          "type": "bytes4"
        }
      ],
      "stateMutability": "view",
      "type": "function"
    },
    {
      "inputs": [],
      "name": "WRITE_ACKS_SIGNATURE",
      "outputs": [
        {
          "internalType": "bytes4",
          "name": "",
          "type": "bytes4"
        }
      ],
      "stateMutability": "view",
      "type": "function"
    },
    {
      "inputs": [],
      "name": "WRITE_PART_SIGNATURE",
      "outputs": [
        {
          "internalType": "bytes4",
          "name": "",
          "type": "bytes4"
        }
      ],
      "stateMutability": "view",
      "type": "function"
    },
    {
      "inputs": [
        {
          "internalType": "address",
          "name": "_sender",
          "type": "address"
        }
      ],
      "name": "addAllowedSender",
      "outputs": [],
      "stateMutability": "nonpayable",
      "type": "function"
    },
    {
      "inputs": [],
      "name": "allowedSenders",
      "outputs": [
        {
          "internalType": "address[]",
          "name": "",
          "type": "address[]"
        }
      ],
      "stateMutability": "view",
      "type": "function"
    },
    {
      "inputs": [
        {
          "internalType": "address",
          "name": "_sender",
          "type": "address"
        },
        {
          "internalType": "address",
          "name": "_to",
          "type": "address"
        },
        {
          "internalType": "uint256",
          "name": "",
          "type": "uint256"
        },
        {
          "internalType": "uint256",
          "name": "_gasPrice",
          "type": "uint256"
        },
        {
          "internalType": "bytes",
          "name": "_data",
          "type": "bytes"
        }
      ],
      "name": "allowedTxTypes",
      "outputs": [
        {
          "internalType": "uint32",
          "name": "typesMask",
          "type": "uint32"
        },
        {
          "internalType": "bool",
          "name": "cache",
          "type": "bool"
        }
      ],
      "stateMutability": "view",
      "type": "function"
    },
    {
      "inputs": [],
      "name": "blockGasLimit",
      "outputs": [
        {
          "internalType": "uint256",
          "name": "",
          "type": "uint256"
        }
      ],
      "stateMutability": "view",
      "type": "function"
    },
    {
      "inputs": [],
      "name": "certifierContract",
      "outputs": [
        {
          "internalType": "contract ICertifier",
          "name": "",
          "type": "address"
        }
      ],
      "stateMutability": "view",
      "type": "function"
    },
    {
      "inputs": [],
      "name": "contractName",
      "outputs": [
        {
          "internalType": "string",
          "name": "",
          "type": "string"
        }
      ],
      "stateMutability": "pure",
      "type": "function"
    },
    {
      "inputs": [],
      "name": "contractNameHash",
      "outputs": [
        {
          "internalType": "bytes32",
          "name": "",
          "type": "bytes32"
        }
      ],
      "stateMutability": "pure",
      "type": "function"
    },
    {
      "inputs": [],
      "name": "contractVersion",
      "outputs": [
        {
          "internalType": "uint256",
          "name": "",
          "type": "uint256"
        }
      ],
      "stateMutability": "pure",
      "type": "function"
    },
    {
      "inputs": [
        {
          "internalType": "address[]",
          "name": "_allowed",
          "type": "address[]"
        },
        {
          "internalType": "address",
          "name": "_certifier",
          "type": "address"
        },
        {
          "internalType": "address",
          "name": "_validatorSet",
          "type": "address"
        },
        {
          "internalType": "address",
          "name": "_keyGenHistoryContract",
          "type": "address"
        }
      ],
      "name": "initialize",
      "outputs": [],
      "stateMutability": "nonpayable",
      "type": "function"
    },
    {
      "inputs": [],
      "name": "isInitialized",
      "outputs": [
        {
          "internalType": "bool",
          "name": "",
          "type": "bool"
        }
      ],
      "stateMutability": "view",
      "type": "function"
    },
    {
      "inputs": [
        {
          "internalType": "address",
          "name": "",
          "type": "address"
        }
      ],
      "name": "isSenderAllowed",
      "outputs": [
        {
          "internalType": "bool",
          "name": "",
          "type": "bool"
        }
      ],
      "stateMutability": "view",
      "type": "function"
    },
    {
      "inputs": [],
      "name": "keyGenHistoryContract",
      "outputs": [
        {
          "internalType": "contract IKeyGenHistory",
          "name": "",
          "type": "address"
        }
      ],
      "stateMutability": "view",
      "type": "function"
    },
    {
      "inputs": [],
      "name": "minimumGasPrice",
      "outputs": [
        {
          "internalType": "uint256",
          "name": "",
          "type": "uint256"
        }
      ],
      "stateMutability": "view",
      "type": "function"
    },
    {
      "inputs": [
        {
          "internalType": "address",
          "name": "_sender",
          "type": "address"
        }
      ],
      "name": "removeAllowedSender",
      "outputs": [],
      "stateMutability": "nonpayable",
      "type": "function"
    },
    {
      "inputs": [
        {
          "internalType": "uint256",
          "name": "_value",
          "type": "uint256"
        }
      ],
      "name": "setBlockGasLimit",
      "outputs": [],
      "stateMutability": "nonpayable",
      "type": "function"
    },
    {
      "inputs": [
        {
          "internalType": "uint256",
          "name": "_value",
          "type": "uint256"
        }
      ],
      "name": "setMinimumGasPrice",
      "outputs": [],
      "stateMutability": "nonpayable",
      "type": "function"
    },
    {
      "inputs": [],
      "name": "validatorSetContract",
      "outputs": [
        {
          "internalType": "contract IValidatorSetHbbft",
          "name": "",
          "type": "address"
        }
      ],
      "stateMutability": "view",
      "type": "function"
    }
  ],
  "bytecode": "0x608060405234801561001057600080fd5b50611e2f806100206000396000f3fe608060405234801561001057600080fd5b50600436106101825760003560e01c806379167bdd116100d8578063c746c8f41161008c578063df3cecf611610066578063df3cecf614610352578063dfc8bf4e1461035b578063efc784011461036e57600080fd5b8063c746c8f414610319578063d249b31c1461032c578063d46005b11461033f57600080fd5b8063a69257f3116100bd578063a69257f3146102c4578063b47aef1f146102d7578063b9056afa146102ea57600080fd5b806379167bdd146102af578063a0a8e460146102bd57600080fd5b8063469ab1e31161013a57806375d0c0dc1161011457806375d0c0dc14610259578063782f0177146102985780637877a797146102a657600080fd5b8063469ab1e314610220578063471eab5c146102365780635f0664bf1461024b57600080fd5b8063305d526c1161016b578063305d526c146101de5780633272b28c146101ec578063392e53cd1461020157600080fd5b80631a9ebeaa1461018757806324bdf37b146101b7575b600080fd5b60015461019a906001600160a01b031681565b6040516001600160a01b0390911681526020015b60405180910390f35b6101c563a42bdee960e01b81565b6040516001600160e01b031990911681526020016101ae565b6101c5632b11904760e11b81565b6101f4610391565b6040516101ae91906118b5565b6004546001600160a01b031615155b60405190151581526020016101ae565b6102286103f3565b6040519081526020016101ae565b610249610244366004611917565b61045a565b005b6101c56343bcce9f60e01b81565b604080518082018252601681527f54585f5045524d495353494f4e5f434f4e545241435400000000000000000000602082015290516101ae919061195f565b6101c5630b53784960e21b81565b61022860065481565b6101c5630311db7560e61b81565b6003610228565b6102496102d2366004611992565b61064a565b60025461019a906001600160a01b031681565b6102fd6102f83660046119c1565b610773565b6040805163ffffffff90931683529015156020830152016101ae565b610249610327366004611917565b61137d565b61024961033a366004611992565b611434565b61024961034d366004611aab565b611572565b61022860055481565b60045461019a906001600160a01b031681565b61021061037c366004611917565b60036020526000908152604090205460ff1681565b606060008054806020026020016040519081016040528092919081815260200182805480156103e957602002820191906000526020600020905b81546001600160a01b031681526001909101906020018083116103cb575b5050505050905090565b600061042f60408051808201909152601681527f54585f5045524d495353494f4e5f434f4e545241435400000000000000000000602082015290565b60405160200161043f9190611b57565b60405160208183030381529060405280519060200120905090565b7fb53127684a568b3173ae13b9f8a6016e243e63b6e8ee1178d6a717850b5d6103546001600160a01b0316336001600160a01b0316146104f55760405162461bcd60e51b815260206004820152602b60248201527f6f6e6c792061646d696e20697320616c6c6f77656420746f2063616c6c20746860448201526a34b990333ab731ba34b7b760a91b60648201526084015b60405180910390fd5b6004546001600160a01b031661050a57600080fd5b6001600160a01b03811660009081526003602052604090205460ff1661052f57600080fd5b60008054905b81811015610627576000818154811061055057610550611b73565b6000918252602090912001546001600160a01b039081169084160361061557600061057c600184611b9f565b8154811061058c5761058c611b73565b600091825260208220015481546001600160a01b039091169190839081106105b6576105b6611b73565b6000918252602082200180546001600160a01b0319166001600160a01b0393909316929092179091558054806105ee576105ee611bb2565b600082815260209020810160001990810180546001600160a01b0319169055019055610627565b8061061f81611bc8565b915050610535565b50506001600160a01b03166000908152600360205260409020805460ff19169055565b7fb53127684a568b3173ae13b9f8a6016e243e63b6e8ee1178d6a717850b5d6103546001600160a01b0316336001600160a01b0316146106e05760405162461bcd60e51b815260206004820152602b60248201527f6f6e6c792061646d696e20697320616c6c6f77656420746f2063616c6c20746860448201526a34b990333ab731ba34b7b760a91b60648201526084016104ec565b6004546001600160a01b03166106f557600080fd5b620f424081101561076e5760405162461bcd60e51b815260206004820152603660248201527f426c6f636b20476173206c696d697420676173207072696365206d757374206260448201527f65206174206d696e696d756d20312c3030302c3030300000000000000000000060648201526084016104ec565b600655565b6001600160a01b038516600090815260036020526040812054819060ff16156107a5575063ffffffff90506000611373565b6000805b60048551101580156107bb5750600481105b1561081d576107cb816008611be1565b8582815181106107dd576107dd611b73565b01602001517fff0000000000000000000000000000000000000000000000000000000000000016901c91909117908061081581611bc8565b9150506107a9565b6004546001600160a01b0390811690891603610d1a5762ee248b60e61b6001600160e01b0319831601610a4457606060406004875161085c9190611b9f565b11156108845760408051818152606081018252906020820181803683370190505090506108d8565b600486516108929190611b9f565b67ffffffffffffffff8111156108aa576108aa6119ab565b6040519080825280601f01601f1916602001820160405280156108d4576020820181803683370190505b5090505b600091505b805182101561096057856108f2836004611bf8565b8151811061090257610902611b73565b602001015160f81c60f81b81838151811061091f5761091f611b73565b60200101907effffffffffffffffffffffffffffffffffffffffffffffffffffffffffffff1916908160001a9053508161095881611bc8565b9250506108dd565b600080828060200190518101906109779190611c0b565b915091506000600460009054906101000a90046001600160a01b03166001600160a01b031663a670eb568e85856040518463ffffffff1660e01b81526004016109e1939291906001600160a01b039384168152919092166020820152604081019190915260600190565b6040805180830381865afa1580156109fd573d6000803e3d6000fd5b505050506040513d601f19601f82011682018060405250810190610a219190611c4e565b50905080610a30576000610a33565b60025b600097509750505050505050611373565b63bc43316160e01b6001600160e01b0319831601610ae75760048054604051630f51726f60e41b81526001600160a01b038c81169382019390935291169063f51726f090602401602060405180830381865afa158015610aa8573d6000803e3d6000fd5b505050506040513d601f19601f82011682018060405250810190610acc9190611c81565b610ad7576000610ada565b60025b6000935093505050611373565b635bd4211760e01b6001600160e01b0319831601610c8657600480546040516307b9342f60e21b81526001600160a01b038c81169382019390935260009290911690631ee4d0bc90602401602060405180830381865afa158015610b4f573d6000803e3d6000fd5b505050506040513d601f19601f82011682018060405250810190610b739190611c9c565b90506001600160a01b03811615610c7757600480546040805163239a373960e21b815290516001600160a01b0390921692638e68dce49282820192602092908290030181865afa158015610bcb573d6000803e3d6000fd5b505050506040513d601f19601f82011682018060405250810190610bef9190611c9c565b60405163a711e6a160e01b81526001600160a01b038381166004830152919091169063a711e6a190602401602060405180830381865afa158015610c37573d6000803e3d6000fd5b505050506040513d601f19601f82011682018060405250810190610c5b9190611c81565b610c66576000610c69565b60025b600094509450505050611373565b60008094509450505050611373565b8515610d15576004805460405163facd743b60e01b81526001600160a01b038c81169382019390935291169063facd743b90602401602060405180830381865afa158015610cd8573d6000803e3d6000fd5b505050506040513d601f19601f82011682018060405250810190610cfc9190611c81565b610d07576002610ada565b600080935093505050611373565b611194565b6002546001600160a01b0390811690891603611194576334ac87b760e21b6001600160e01b0319831601610ef05760016004805460405163014e28d960e41b81526001600160a01b038d8116938201939093529116906314e28d9090602401602060405180830381865afa158015610d96573d6000803e3d6000fd5b505050506040513d601f19601f82011682018060405250810190610dba9190611ccf565b6005811115610dcb57610dcb611cb9565b03610d0757602485511015610de857600080935093505050611373565b6000610df5600487611793565b9050600460009054906101000a90046001600160a01b03166001600160a01b0316638e68dce46040518163ffffffff1660e01b8152600401602060405180830381865afa158015610e4a573d6000803e3d6000fd5b505050506040513d601f19601f82011682018060405250810190610e6e9190611c9c565b6001600160a01b031663794c0c686040518163ffffffff1660e01b8152600401602060405180830381865afa158015610eab573d6000803e3d6000fd5b505050506040513d601f19601f82011682018060405250810190610ecf9190611cf0565b610eda906001611bf8565b8103610c77576002600094509450505050611373565b6354ee6fb960e11b6001600160e01b03198316016111945760036004805460405163014e28d960e41b81526001600160a01b038d8116938201939093529116906314e28d9090602401602060405180830381865afa158015610f56573d6000803e3d6000fd5b505050506040513d601f19601f82011682018060405250810190610f7a9190611ccf565b6005811115610f8b57610f8b611cb9565b03610d0757602485511015610fa857600080935093505050611373565b600480546040805163239a373960e21b815290516001600160a01b0390921692638e68dce49282820192602092908290030181865afa158015610fef573d6000803e3d6000fd5b505050506040513d601f19601f820116820180604052508101906110139190611c9c565b6001600160a01b031663794c0c686040518163ffffffff1660e01b8152600401602060405180830381865afa158015611050573d6000803e3d6000fd5b505050506040513d601f19601f820116820180604052508101906110749190611cf0565b61107f906001611bf8565b61108a600487611793565b0361109e5760026000935093505050611373565b600480546040805163239a373960e21b815290516001600160a01b0390921692638e68dce49282820192602092908290030181865afa1580156110e5573d6000803e3d6000fd5b505050506040513d601f19601f820116820180604052508101906111099190611c9c565b6001600160a01b031663794c0c686040518163ffffffff1660e01b8152600401602060405180830381865afa158015611146573d6000803e3d6000fd5b505050506040513d601f19601f8201168201806040525081019061116a9190611cf0565b611175906001611bf8565b611180602487611793565b03610d075760026000935093505050611373565b6004805460405163facd743b60e01b81526001600160a01b038c81169382019390935291169063facd743b90602401602060405180830381865afa1580156111e0573d6000803e3d6000fd5b505050506040513d601f19601f820116820180604052508101906112049190611c81565b80156112105750600086115b1561123d576000896001600160a01b0316311161122e576000610ada565b60016000935093505050611373565b6004805460405163facd743b60e01b81526001600160a01b038b81169382019390935291169063facd743b90602401602060405180830381865afa158015611289573d6000803e3d6000fd5b505050506040513d601f19601f820116820180604052508101906112ad9190611c81565b156112c057600080935093505050611373565b85600003611353576001546040516303a388eb60e61b81526001600160a01b038b811660048301529091169063e8e23ac090602401602060405180830381865afa158015611312573d6000803e3d6000fd5b505050506040513d601f19601f820116820180604052508101906113369190611c81565b611341576000610ada565b63ffffffff6000935093505050611373565b60055486101561136457600061136a565b63ffffffff5b60009350935050505b9550959350505050565b7fb53127684a568b3173ae13b9f8a6016e243e63b6e8ee1178d6a717850b5d6103546001600160a01b0316336001600160a01b0316146114135760405162461bcd60e51b815260206004820152602b60248201527f6f6e6c792061646d696e20697320616c6c6f77656420746f2063616c6c20746860448201526a34b990333ab731ba34b7b760a91b60648201526084016104ec565b6004546001600160a01b031661142857600080fd5b61143181611817565b50565b7fb53127684a568b3173ae13b9f8a6016e243e63b6e8ee1178d6a717850b5d6103546001600160a01b0316336001600160a01b0316146114ca5760405162461bcd60e51b815260206004820152602b60248201527f6f6e6c792061646d696e20697320616c6c6f77656420746f2063616c6c20746860448201526a34b990333ab731ba34b7b760a91b60648201526084016104ec565b6004546001600160a01b03166114df57600080fd5b6000811161153a5760405162461bcd60e51b815260206004820152602260248201527f4d696e696d756d20676173207072696365206d757374206e6f74206265207a65604482015261726f60f01b60648201526084016104ec565b6040518181527f190dff62907e2863cc21469fe75fc83230ae6ab1482825f6e5a75bc7471854779060200160405180910390a1600555565b7fb53127684a568b3173ae13b9f8a6016e243e63b6e8ee1178d6a717850b5d6103546001600160a01b0316336001600160a01b031614806115e557507fb53127684a568b3173ae13b9f8a6016e243e63b6e8ee1178d6a717850b5d6103546001600160a01b0316326001600160a01b0316145b8061161857507fb53127684a568b3173ae13b9f8a6016e243e63b6e8ee1178d6a717850b5d6103546001600160a01b0316155b80611621575043155b61162a57600080fd5b6004546001600160a01b03161561168f5760405162461bcd60e51b8152602060048201526024808201527f696e697469616c697a6174696f6e2063616e206f6e6c7920626520646f6e65206044820152636f6e636560e01b60648201526084016104ec565b6001600160a01b0383166116a257600080fd5b6001600160a01b0382166116f85760405162461bcd60e51b815260206004820152601a60248201527f56616c696461746f72536574206d757374206e6f74206265203000000000000060448201526064016104ec565b60005b848110156117445761173286868381811061171857611718611b73565b905060200201602081019061172d9190611917565b611817565b8061173c81611bc8565b9150506116fb565b50600180546001600160a01b039485166001600160a01b0319918216179091556004805493851693821693909317909255600280549190931691161790555050633b9aca006005819055600655565b600080805b602081101561180d576117ac81601f611b9f565b6117b7906008611be1565b6117c2906002611ded565b846117cd8388611bf8565b815181106117dd576117dd611b73565b01602001516117ef919060f81c611be1565b6117f99083611bf8565b91508061180581611bc8565b915050611798565b5090505b92915050565b6001600160a01b03811660009081526003602052604090205460ff161561183d57600080fd5b6001600160a01b03811661185057600080fd5b60008054600181810183557f290decd9548b62a8d60345a988386fc84ba6bc95484008f6362f93160ef3e56390910180546001600160a01b039094166001600160a01b031990941684179055918152600360205260409020805460ff19169091179055565b6020808252825182820181905260009190848201906040850190845b818110156118f65783516001600160a01b0316835292840192918401916001016118d1565b50909695505050505050565b6001600160a01b038116811461143157600080fd5b60006020828403121561192957600080fd5b813561193481611902565b9392505050565b60005b8381101561195657818101518382015260200161193e565b50506000910152565b602081526000825180602084015261197e81604085016020870161193b565b601f01601f19169190910160400192915050565b6000602082840312156119a457600080fd5b5035919050565b634e487b7160e01b600052604160045260246000fd5b600080600080600060a086880312156119d957600080fd5b85356119e481611902565b945060208601356119f481611902565b93506040860135925060608601359150608086013567ffffffffffffffff80821115611a1f57600080fd5b818801915088601f830112611a3357600080fd5b813581811115611a4557611a456119ab565b604051601f8201601f19908116603f01168101908382118183101715611a6d57611a6d6119ab565b816040528281528b6020848701011115611a8657600080fd5b8260208601602083013760006020848301015280955050505050509295509295909350565b600080600080600060808688031215611ac357600080fd5b853567ffffffffffffffff80821115611adb57600080fd5b818801915088601f830112611aef57600080fd5b813581811115611afe57600080fd5b8960208260051b8501011115611b1357600080fd5b60209283019750955050860135611b2981611902565b92506040860135611b3981611902565b91506060860135611b4981611902565b809150509295509295909350565b60008251611b6981846020870161193b565b9190910192915050565b634e487b7160e01b600052603260045260246000fd5b634e487b7160e01b600052601160045260246000fd5b8181038181111561181157611811611b89565b634e487b7160e01b600052603160045260246000fd5b600060018201611bda57611bda611b89565b5060010190565b808202811582820484141761181157611811611b89565b8082018082111561181157611811611b89565b60008060408385031215611c1e57600080fd5b8251611c2981611902565b6020939093015192949293505050565b80518015158114611c4957600080fd5b919050565b60008060408385031215611c6157600080fd5b611c6a83611c39565b9150611c7860208401611c39565b90509250929050565b600060208284031215611c9357600080fd5b61193482611c39565b600060208284031215611cae57600080fd5b815161193481611902565b634e487b7160e01b600052602160045260246000fd5b600060208284031215611ce157600080fd5b81516006811061193457600080fd5b600060208284031215611d0257600080fd5b5051919050565b600181815b80851115611d44578160001904821115611d2a57611d2a611b89565b80851615611d3757918102915b93841c9390800290611d0e565b509250929050565b600082611d5b57506001611811565b81611d6857506000611811565b8160018114611d7e5760028114611d8857611da4565b6001915050611811565b60ff841115611d9957611d99611b89565b50506001821b611811565b5060208310610133831016604e8410600b8410161715611dc7575081810a611811565b611dd18383611d09565b8060001904821115611de557611de5611b89565b029392505050565b60006119348383611d4c56fea26469706673582212207c6b2e1283d60bac24e9ebbe9e8374464857a39efab13eacd1a6f1e14726a50264736f6c63430008110033",
  "linkReferences": {},
  "deployedLinkReferences": {}
}