{
  "_format": "hh-sol-artifact-1",
  "contractName": "TxPermissionHbbft",
  "sourceName": "contracts/TxPermissionHbbft.sol",
  "abi": [
    {
      "inputs": [],
      "name": "ANNOUNCE_AVAILABILITY_SIGNATURE",
      "outputs": [
        {
          "internalType": "bytes4",
          "name": "",
          "type": "bytes4"
        }
      ],
      "stateMutability": "view",
      "type": "function"
    },
    {
      "inputs": [],
      "name": "REPORT_MALICIOUS_SIGNATURE",
      "outputs": [
        {
          "internalType": "bytes4",
          "name": "",
          "type": "bytes4"
        }
      ],
      "stateMutability": "view",
      "type": "function"
    },
    {
      "inputs": [],
      "name": "SET_VALIDATOR_IP",
      "outputs": [
        {
          "internalType": "bytes4",
          "name": "",
          "type": "bytes4"
        }
      ],
      "stateMutability": "view",
      "type": "function"
    },
    {
      "inputs": [],
      "name": "WRITE_ACKS_SIGNATURE",
      "outputs": [
        {
          "internalType": "bytes4",
          "name": "",
          "type": "bytes4"
        }
      ],
      "stateMutability": "view",
      "type": "function"
    },
    {
      "inputs": [],
      "name": "WRITE_PART_SIGNATURE",
      "outputs": [
        {
          "internalType": "bytes4",
          "name": "",
          "type": "bytes4"
        }
      ],
      "stateMutability": "view",
      "type": "function"
    },
    {
      "inputs": [
        {
          "internalType": "address",
          "name": "_sender",
          "type": "address"
        }
      ],
      "name": "addAllowedSender",
      "outputs": [],
      "stateMutability": "nonpayable",
      "type": "function"
    },
    {
      "inputs": [],
      "name": "allowedSenders",
      "outputs": [
        {
          "internalType": "address[]",
          "name": "",
          "type": "address[]"
        }
      ],
      "stateMutability": "view",
      "type": "function"
    },
    {
      "inputs": [
        {
          "internalType": "address",
          "name": "_sender",
          "type": "address"
        },
        {
          "internalType": "address",
          "name": "_to",
          "type": "address"
        },
        {
          "internalType": "uint256",
          "name": "",
          "type": "uint256"
        },
        {
          "internalType": "uint256",
          "name": "_gasPrice",
          "type": "uint256"
        },
        {
          "internalType": "bytes",
          "name": "_data",
          "type": "bytes"
        }
      ],
      "name": "allowedTxTypes",
      "outputs": [
        {
          "internalType": "uint32",
          "name": "typesMask",
          "type": "uint32"
        },
        {
          "internalType": "bool",
          "name": "cache",
          "type": "bool"
        }
      ],
      "stateMutability": "view",
      "type": "function"
    },
    {
      "inputs": [],
      "name": "blockGasLimit",
      "outputs": [
        {
          "internalType": "uint256",
          "name": "",
          "type": "uint256"
        }
      ],
      "stateMutability": "view",
      "type": "function"
    },
    {
      "inputs": [],
      "name": "certifierContract",
      "outputs": [
        {
          "internalType": "contract ICertifier",
          "name": "",
          "type": "address"
        }
      ],
      "stateMutability": "view",
      "type": "function"
    },
    {
      "inputs": [],
      "name": "contractName",
      "outputs": [
        {
          "internalType": "string",
          "name": "",
          "type": "string"
        }
      ],
      "stateMutability": "pure",
      "type": "function"
    },
    {
      "inputs": [],
      "name": "contractNameHash",
      "outputs": [
        {
          "internalType": "bytes32",
          "name": "",
          "type": "bytes32"
        }
      ],
      "stateMutability": "pure",
      "type": "function"
    },
    {
      "inputs": [],
      "name": "contractVersion",
      "outputs": [
        {
          "internalType": "uint256",
          "name": "",
          "type": "uint256"
        }
      ],
      "stateMutability": "pure",
      "type": "function"
    },
    {
      "inputs": [
        {
          "internalType": "address[]",
          "name": "_allowed",
          "type": "address[]"
        },
        {
          "internalType": "address",
          "name": "_certifier",
          "type": "address"
        },
        {
          "internalType": "address",
          "name": "_validatorSet",
          "type": "address"
        },
        {
          "internalType": "address",
          "name": "_keyGenHistoryContract",
          "type": "address"
        }
      ],
      "name": "initialize",
      "outputs": [],
      "stateMutability": "nonpayable",
      "type": "function"
    },
    {
      "inputs": [],
      "name": "isInitialized",
      "outputs": [
        {
          "internalType": "bool",
          "name": "",
          "type": "bool"
        }
      ],
      "stateMutability": "view",
      "type": "function"
    },
    {
      "inputs": [
        {
          "internalType": "address",
          "name": "",
          "type": "address"
        }
      ],
      "name": "isSenderAllowed",
      "outputs": [
        {
          "internalType": "bool",
          "name": "",
          "type": "bool"
        }
      ],
      "stateMutability": "view",
      "type": "function"
    },
    {
      "inputs": [],
      "name": "keyGenHistoryContract",
      "outputs": [
        {
          "internalType": "contract IKeyGenHistory",
          "name": "",
          "type": "address"
        }
      ],
      "stateMutability": "view",
      "type": "function"
    },
    {
      "inputs": [],
      "name": "minimumGasPrice",
      "outputs": [
        {
          "internalType": "uint256",
          "name": "",
          "type": "uint256"
        }
      ],
      "stateMutability": "view",
      "type": "function"
    },
    {
      "inputs": [
        {
          "internalType": "address",
          "name": "_sender",
          "type": "address"
        }
      ],
      "name": "removeAllowedSender",
      "outputs": [],
      "stateMutability": "nonpayable",
      "type": "function"
    },
    {
      "inputs": [
        {
          "internalType": "uint256",
          "name": "_value",
          "type": "uint256"
        }
      ],
      "name": "setBlockGasLimit",
      "outputs": [],
      "stateMutability": "nonpayable",
      "type": "function"
    },
    {
      "inputs": [
        {
          "internalType": "uint256",
          "name": "_value",
          "type": "uint256"
        }
      ],
      "name": "setMinimumGasPrice",
      "outputs": [],
      "stateMutability": "nonpayable",
      "type": "function"
    },
    {
      "inputs": [],
      "name": "validatorSetContract",
      "outputs": [
        {
          "internalType": "contract IValidatorSetHbbft",
          "name": "",
          "type": "address"
        }
      ],
      "stateMutability": "view",
      "type": "function"
    }
  ],
  "bytecode": "0x608060405234801561001057600080fd5b50611de0806100206000396000f3fe608060405234801561001057600080fd5b50600436106101825760003560e01c806379167bdd116100d8578063c746c8f41161008c578063df3cecf611610066578063df3cecf614610352578063dfc8bf4e1461035b578063efc784011461036e57600080fd5b8063c746c8f414610319578063d249b31c1461032c578063d46005b11461033f57600080fd5b8063a69257f3116100bd578063a69257f3146102c4578063b47aef1f146102d7578063b9056afa146102ea57600080fd5b806379167bdd146102af578063a0a8e460146102bd57600080fd5b8063469ab1e31161013a57806375d0c0dc1161011457806375d0c0dc14610259578063782f0177146102985780637877a797146102a657600080fd5b8063469ab1e314610220578063471eab5c146102365780635f0664bf1461024b57600080fd5b8063305d526c1161016b578063305d526c146101de5780633272b28c146101ec578063392e53cd1461020157600080fd5b80631a9ebeaa1461018757806324bdf37b146101b7575b600080fd5b60015461019a906001600160a01b031681565b6040516001600160a01b0390911681526020015b60405180910390f35b6101c5635554aba160e01b81565b6040516001600160e01b031990911681526020016101ae565b6101c5632b11904760e11b81565b6101f4610391565b6040516101ae9190611866565b6004546001600160a01b031615155b60405190151581526020016101ae565b6102286103f3565b6040519081526020016101ae565b6102496102443660046118c8565b61045a565b005b6101c56343bcce9f60e01b81565b604080518082018252601681527f54585f5045524d495353494f4e5f434f4e545241435400000000000000000000602082015290516101ae9190611910565b6101c5630b53784960e21b81565b61022860065481565b6101c5630311db7560e61b81565b6003610228565b6102496102d2366004611943565b61064a565b60025461019a906001600160a01b031681565b6102fd6102f8366004611972565b610773565b6040805163ffffffff90931683529015156020830152016101ae565b6102496103273660046118c8565b611361565b61024961033a366004611943565b611418565b61024961034d366004611a5c565b611523565b61022860055481565b60045461019a906001600160a01b031681565b61021061037c3660046118c8565b60036020526000908152604090205460ff1681565b606060008054806020026020016040519081016040528092919081815260200182805480156103e957602002820191906000526020600020905b81546001600160a01b031681526001909101906020018083116103cb575b5050505050905090565b600061042f60408051808201909152601681527f54585f5045524d495353494f4e5f434f4e545241435400000000000000000000602082015290565b60405160200161043f9190611b08565b60405160208183030381529060405280519060200120905090565b7fb53127684a568b3173ae13b9f8a6016e243e63b6e8ee1178d6a717850b5d6103546001600160a01b0316336001600160a01b0316146104f55760405162461bcd60e51b815260206004820152602b60248201527f6f6e6c792061646d696e20697320616c6c6f77656420746f2063616c6c20746860448201526a34b990333ab731ba34b7b760a91b60648201526084015b60405180910390fd5b6004546001600160a01b031661050a57600080fd5b6001600160a01b03811660009081526003602052604090205460ff1661052f57600080fd5b60008054905b81811015610627576000818154811061055057610550611b24565b6000918252602090912001546001600160a01b039081169084160361061557600061057c600184611b50565b8154811061058c5761058c611b24565b600091825260208220015481546001600160a01b039091169190839081106105b6576105b6611b24565b6000918252602082200180546001600160a01b0319166001600160a01b0393909316929092179091558054806105ee576105ee611b63565b600082815260209020810160001990810180546001600160a01b0319169055019055610627565b8061061f81611b79565b915050610535565b50506001600160a01b03166000908152600360205260409020805460ff19169055565b7fb53127684a568b3173ae13b9f8a6016e243e63b6e8ee1178d6a717850b5d6103546001600160a01b0316336001600160a01b0316146106e05760405162461bcd60e51b815260206004820152602b60248201527f6f6e6c792061646d696e20697320616c6c6f77656420746f2063616c6c20746860448201526a34b990333ab731ba34b7b760a91b60648201526084016104ec565b6004546001600160a01b03166106f557600080fd5b620f424081101561076e5760405162461bcd60e51b815260206004820152603660248201527f426c6f636b20476173206c696d697420676173207072696365206d757374206260448201527f65206174206d696e696d756d20312c3030302c3030300000000000000000000060648201526084016104ec565b600655565b6001600160a01b038516600090815260036020526040812054819060ff16156107a5575063ffffffff90506000611357565b6000805b60048551101580156107bb5750600481105b1561081d576107cb816008611b92565b8582815181106107dd576107dd611b24565b01602001517fff0000000000000000000000000000000000000000000000000000000000000016901c91909117908061081581611b79565b9150506107a9565b6004546001600160a01b0390811690891603610cfe5762ee248b60e61b6001600160e01b0319831601610a2857606060406004875161085c9190611b50565b11610874576004865161086f9190611b50565b610877565b60405b67ffffffffffffffff81111561088f5761088f61195c565b6040519080825280601f01601f1916602001820160405280156108b9576020820181803683370190505b509050600091505b805182101561094457856108d6836004611ba9565b815181106108e6576108e6611b24565b602001015160f81c60f81b81838151811061090357610903611b24565b60200101907effffffffffffffffffffffffffffffffffffffffffffffffffffffffffffff1916908160001a9053508161093c81611b79565b9250506108c1565b6000808280602001905181019061095b9190611bbc565b915091506000600460009054906101000a90046001600160a01b03166001600160a01b031663a670eb568e85856040518463ffffffff1660e01b81526004016109c5939291906001600160a01b039384168152919092166020820152604081019190915260600190565b6040805180830381865afa1580156109e1573d6000803e3d6000fd5b505050506040513d601f19601f82011682018060405250810190610a059190611bff565b50905080610a14576000610a17565b60025b600097509750505050505050611357565b63bc43316160e01b6001600160e01b0319831601610acb5760048054604051630f51726f60e41b81526001600160a01b038c81169382019390935291169063f51726f090602401602060405180830381865afa158015610a8c573d6000803e3d6000fd5b505050506040513d601f19601f82011682018060405250810190610ab09190611c32565b610abb576000610abe565b60025b6000935093505050611357565b63aaab545f60e01b6001600160e01b0319831601610c6a57600480546040516307b9342f60e21b81526001600160a01b038c81169382019390935260009290911690631ee4d0bc90602401602060405180830381865afa158015610b33573d6000803e3d6000fd5b505050506040513d601f19601f82011682018060405250810190610b579190611c4d565b90506001600160a01b03811615610c5b57600480546040805163239a373960e21b815290516001600160a01b0390921692638e68dce49282820192602092908290030181865afa158015610baf573d6000803e3d6000fd5b505050506040513d601f19601f82011682018060405250810190610bd39190611c4d565b60405163a711e6a160e01b81526001600160a01b038381166004830152919091169063a711e6a190602401602060405180830381865afa158015610c1b573d6000803e3d6000fd5b505050506040513d601f19601f82011682018060405250810190610c3f9190611c32565b610c4a576000610c4d565b60025b600094509450505050611357565b60008094509450505050611357565b8515610cf9576004805460405163facd743b60e01b81526001600160a01b038c81169382019390935291169063facd743b90602401602060405180830381865afa158015610cbc573d6000803e3d6000fd5b505050506040513d601f19601f82011682018060405250810190610ce09190611c32565b610ceb576002610abe565b600080935093505050611357565b611178565b6002546001600160a01b0390811690891603611178576334ac87b760e21b6001600160e01b0319831601610ed45760016004805460405163014e28d960e41b81526001600160a01b038d8116938201939093529116906314e28d9090602401602060405180830381865afa158015610d7a573d6000803e3d6000fd5b505050506040513d601f19601f82011682018060405250810190610d9e9190611c80565b6005811115610daf57610daf611c6a565b03610ceb57602485511015610dcc57600080935093505050611357565b6000610dd9600487611744565b9050600460009054906101000a90046001600160a01b03166001600160a01b0316638e68dce46040518163ffffffff1660e01b8152600401602060405180830381865afa158015610e2e573d6000803e3d6000fd5b505050506040513d601f19601f82011682018060405250810190610e529190611c4d565b6001600160a01b031663794c0c686040518163ffffffff1660e01b8152600401602060405180830381865afa158015610e8f573d6000803e3d6000fd5b505050506040513d601f19601f82011682018060405250810190610eb39190611ca1565b610ebe906001611ba9565b8103610c5b576002600094509450505050611357565b6354ee6fb960e11b6001600160e01b03198316016111785760036004805460405163014e28d960e41b81526001600160a01b038d8116938201939093529116906314e28d9090602401602060405180830381865afa158015610f3a573d6000803e3d6000fd5b505050506040513d601f19601f82011682018060405250810190610f5e9190611c80565b6005811115610f6f57610f6f611c6a565b03610ceb57602485511015610f8c57600080935093505050611357565b600480546040805163239a373960e21b815290516001600160a01b0390921692638e68dce49282820192602092908290030181865afa158015610fd3573d6000803e3d6000fd5b505050506040513d601f19601f82011682018060405250810190610ff79190611c4d565b6001600160a01b031663794c0c686040518163ffffffff1660e01b8152600401602060405180830381865afa158015611034573d6000803e3d6000fd5b505050506040513d601f19601f820116820180604052508101906110589190611ca1565b611063906001611ba9565b61106e600487611744565b036110825760026000935093505050611357565b600480546040805163239a373960e21b815290516001600160a01b0390921692638e68dce49282820192602092908290030181865afa1580156110c9573d6000803e3d6000fd5b505050506040513d601f19601f820116820180604052508101906110ed9190611c4d565b6001600160a01b031663794c0c686040518163ffffffff1660e01b8152600401602060405180830381865afa15801561112a573d6000803e3d6000fd5b505050506040513d601f19601f8201168201806040525081019061114e9190611ca1565b611159906001611ba9565b611164602487611744565b03610ceb5760026000935093505050611357565b6004805460405163facd743b60e01b81526001600160a01b038c81169382019390935291169063facd743b90602401602060405180830381865afa1580156111c4573d6000803e3d6000fd5b505050506040513d601f19601f820116820180604052508101906111e89190611c32565b80156111f45750600086115b15611221576000896001600160a01b03163111611212576000610abe565b60016000935093505050611357565b6004805460405163facd743b60e01b81526001600160a01b038b81169382019390935291169063facd743b90602401602060405180830381865afa15801561126d573d6000803e3d6000fd5b505050506040513d601f19601f820116820180604052508101906112919190611c32565b156112a457600080935093505050611357565b85600003611337576001546040516303a388eb60e61b81526001600160a01b038b811660048301529091169063e8e23ac090602401602060405180830381865afa1580156112f6573d6000803e3d6000fd5b505050506040513d601f19601f8201168201806040525081019061131a9190611c32565b611325576000610abe565b63ffffffff6000935093505050611357565b60055486101561134857600061134e565b63ffffffff5b60009350935050505b9550959350505050565b7fb53127684a568b3173ae13b9f8a6016e243e63b6e8ee1178d6a717850b5d6103546001600160a01b0316336001600160a01b0316146113f75760405162461bcd60e51b815260206004820152602b60248201527f6f6e6c792061646d696e20697320616c6c6f77656420746f2063616c6c20746860448201526a34b990333ab731ba34b7b760a91b60648201526084016104ec565b6004546001600160a01b031661140c57600080fd5b611415816117c8565b50565b7fb53127684a568b3173ae13b9f8a6016e243e63b6e8ee1178d6a717850b5d6103546001600160a01b0316336001600160a01b0316146114ae5760405162461bcd60e51b815260206004820152602b60248201527f6f6e6c792061646d696e20697320616c6c6f77656420746f2063616c6c20746860448201526a34b990333ab731ba34b7b760a91b60648201526084016104ec565b6004546001600160a01b03166114c357600080fd5b6000811161151e5760405162461bcd60e51b815260206004820152602260248201527f4d696e696d756d20676173207072696365206d757374206e6f74206265207a65604482015261726f60f01b60648201526084016104ec565b600555565b7fb53127684a568b3173ae13b9f8a6016e243e63b6e8ee1178d6a717850b5d6103546001600160a01b0316336001600160a01b0316148061159657507fb53127684a568b3173ae13b9f8a6016e243e63b6e8ee1178d6a717850b5d6103546001600160a01b0316326001600160a01b0316145b806115c957507fb53127684a568b3173ae13b9f8a6016e243e63b6e8ee1178d6a717850b5d6103546001600160a01b0316155b806115d2575043155b6115db57600080fd5b6004546001600160a01b0316156116405760405162461bcd60e51b8152602060048201526024808201527f696e697469616c697a6174696f6e2063616e206f6e6c7920626520646f6e65206044820152636f6e636560e01b60648201526084016104ec565b6001600160a01b03831661165357600080fd5b6001600160a01b0382166116a95760405162461bcd60e51b815260206004820152601a60248201527f56616c696461746f72536574206d757374206e6f74206265203000000000000060448201526064016104ec565b60005b848110156116f5576116e38686838181106116c9576116c9611b24565b90506020020160208101906116de91906118c8565b6117c8565b806116ed81611b79565b9150506116ac565b50600180546001600160a01b039485166001600160a01b0319918216179091556004805493851693821693909317909255600280549190931691161790555050633b9aca006005819055600655565b600080805b60208110156117be5761175d81601f611b50565b611768906008611b92565b611773906002611d9e565b8461177e8388611ba9565b8151811061178e5761178e611b24565b01602001516117a0919060f81c611b92565b6117aa9083611ba9565b9150806117b681611b79565b915050611749565b5090505b92915050565b6001600160a01b03811660009081526003602052604090205460ff16156117ee57600080fd5b6001600160a01b03811661180157600080fd5b60008054600181810183557f290decd9548b62a8d60345a988386fc84ba6bc95484008f6362f93160ef3e56390910180546001600160a01b039094166001600160a01b031990941684179055918152600360205260409020805460ff19169091179055565b6020808252825182820181905260009190848201906040850190845b818110156118a75783516001600160a01b031683529284019291840191600101611882565b50909695505050505050565b6001600160a01b038116811461141557600080fd5b6000602082840312156118da57600080fd5b81356118e5816118b3565b9392505050565b60005b838110156119075781810151838201526020016118ef565b50506000910152565b602081526000825180602084015261192f8160408501602087016118ec565b601f01601f19169190910160400192915050565b60006020828403121561195557600080fd5b5035919050565b634e487b7160e01b600052604160045260246000fd5b600080600080600060a0868803121561198a57600080fd5b8535611995816118b3565b945060208601356119a5816118b3565b93506040860135925060608601359150608086013567ffffffffffffffff808211156119d057600080fd5b818801915088601f8301126119e457600080fd5b8135818111156119f6576119f661195c565b604051601f8201601f19908116603f01168101908382118183101715611a1e57611a1e61195c565b816040528281528b6020848701011115611a3757600080fd5b8260208601602083013760006020848301015280955050505050509295509295909350565b600080600080600060808688031215611a7457600080fd5b853567ffffffffffffffff80821115611a8c57600080fd5b818801915088601f830112611aa057600080fd5b813581811115611aaf57600080fd5b8960208260051b8501011115611ac457600080fd5b60209283019750955050860135611ada816118b3565b92506040860135611aea816118b3565b91506060860135611afa816118b3565b809150509295509295909350565b60008251611b1a8184602087016118ec565b9190910192915050565b634e487b7160e01b600052603260045260246000fd5b634e487b7160e01b600052601160045260246000fd5b818103818111156117c2576117c2611b3a565b634e487b7160e01b600052603160045260246000fd5b600060018201611b8b57611b8b611b3a565b5060010190565b80820281158282048414176117c2576117c2611b3a565b808201808211156117c2576117c2611b3a565b60008060408385031215611bcf57600080fd5b8251611bda816118b3565b6020939093015192949293505050565b80518015158114611bfa57600080fd5b919050565b60008060408385031215611c1257600080fd5b611c1b83611bea565b9150611c2960208401611bea565b90509250929050565b600060208284031215611c4457600080fd5b6118e582611bea565b600060208284031215611c5f57600080fd5b81516118e5816118b3565b634e487b7160e01b600052602160045260246000fd5b600060208284031215611c9257600080fd5b8151600681106118e557600080fd5b600060208284031215611cb357600080fd5b5051919050565b600181815b80851115611cf5578160001904821115611cdb57611cdb611b3a565b80851615611ce857918102915b93841c9390800290611cbf565b509250929050565b600082611d0c575060016117c2565b81611d19575060006117c2565b8160018114611d2f5760028114611d3957611d55565b60019150506117c2565b60ff841115611d4a57611d4a611b3a565b50506001821b6117c2565b5060208310610133831016604e8410600b8410161715611d78575081810a6117c2565b611d828383611cba565b8060001904821115611d9657611d96611b3a565b029392505050565b60006118e58383611cfd56fea26469706673582212208e0c78164f9d2a825806da91005e53157d0d76d6598745107cdcac2950e282b564736f6c63430008110033",
  "linkReferences": {},
  "deployedLinkReferences": {}
}