{
  "_format": "hh-sol-artifact-1",
  "contractName": "ValidatorSetHbbftMock",
  "sourceName": "contracts/mockContracts/ValidatorSetHbbftMock.sol",
  "abi": [
    {
      "anonymous": false,
      "inputs": [
        {
          "indexed": false,
          "internalType": "address",
          "name": "reportingValidator",
          "type": "address"
        },
        {
          "indexed": false,
          "internalType": "address",
          "name": "maliciousValidator",
          "type": "address"
        },
        {
          "indexed": false,
          "internalType": "uint256",
          "name": "blockNumber",
          "type": "uint256"
        }
      ],
      "name": "ReportedMalicious",
      "type": "event"
    },
    {
      "anonymous": false,
      "inputs": [
        {
          "indexed": false,
          "internalType": "address",
          "name": "validator",
          "type": "address"
        },
        {
          "indexed": false,
          "internalType": "uint256",
          "name": "timestamp",
          "type": "uint256"
        }
      ],
      "name": "ValidatorAvailable",
      "type": "event"
    },
    {
      "anonymous": false,
      "inputs": [
        {
          "indexed": false,
          "internalType": "address",
          "name": "validator",
          "type": "address"
        },
        {
          "indexed": false,
          "internalType": "uint256",
          "name": "timestamp",
          "type": "uint256"
        }
      ],
      "name": "ValidatorUnavailable",
      "type": "event"
    },
    {
      "inputs": [
        {
          "internalType": "uint256",
          "name": "_blockNumber",
          "type": "uint256"
        },
        {
          "internalType": "bytes32",
          "name": "_blockhash",
          "type": "bytes32"
        }
      ],
      "name": "announceAvailability",
      "outputs": [],
      "stateMutability": "nonpayable",
      "type": "function"
    },
    {
      "inputs": [
        {
          "internalType": "address",
          "name": "_miningAddress",
          "type": "address"
        }
      ],
      "name": "areDelegatorsBanned",
      "outputs": [
        {
          "internalType": "bool",
          "name": "",
          "type": "bool"
        }
      ],
      "stateMutability": "view",
      "type": "function"
    },
    {
      "inputs": [
        {
          "internalType": "address",
          "name": "",
          "type": "address"
        }
      ],
      "name": "banCounter",
      "outputs": [
        {
          "internalType": "uint256",
          "name": "",
          "type": "uint256"
        }
      ],
      "stateMutability": "view",
      "type": "function"
    },
    {
      "inputs": [
        {
          "internalType": "address",
          "name": "",
          "type": "address"
        }
      ],
      "name": "banReason",
      "outputs": [
        {
          "internalType": "bytes32",
          "name": "",
          "type": "bytes32"
        }
      ],
      "stateMutability": "view",
      "type": "function"
    },
    {
      "inputs": [
        {
          "internalType": "address",
          "name": "",
          "type": "address"
        }
      ],
      "name": "bannedDelegatorsUntil",
      "outputs": [
        {
          "internalType": "uint256",
          "name": "",
          "type": "uint256"
        }
      ],
      "stateMutability": "view",
      "type": "function"
    },
    {
      "inputs": [
        {
          "internalType": "address",
          "name": "",
          "type": "address"
        }
      ],
      "name": "bannedUntil",
      "outputs": [
        {
          "internalType": "uint256",
          "name": "",
          "type": "uint256"
        }
      ],
      "stateMutability": "view",
      "type": "function"
    },
    {
      "inputs": [],
      "name": "blockRewardContract",
      "outputs": [
        {
          "internalType": "address",
          "name": "",
          "type": "address"
        }
      ],
      "stateMutability": "view",
      "type": "function"
    },
    {
      "inputs": [
        {
          "internalType": "address",
          "name": "_miningAddress",
          "type": "address"
        }
      ],
      "name": "canCallAnnounceAvailability",
      "outputs": [
        {
          "internalType": "bool",
          "name": "",
          "type": "bool"
        }
      ],
      "stateMutability": "view",
      "type": "function"
    },
    {
      "inputs": [],
      "name": "finalizeChange",
      "outputs": [],
      "stateMutability": "nonpayable",
      "type": "function"
    },
    {
      "inputs": [],
      "name": "getCurrentTimestamp",
      "outputs": [
        {
          "internalType": "uint256",
          "name": "",
          "type": "uint256"
        }
      ],
      "stateMutability": "view",
      "type": "function"
    },
    {
      "inputs": [
        {
          "internalType": "address",
          "name": "_miningAddress",
          "type": "address"
        }
      ],
      "name": "getPendingValidatorKeyGenerationMode",
      "outputs": [
        {
          "internalType": "enum IValidatorSetHbbft.KeyGenMode",
          "name": "",
          "type": "uint8"
        }
      ],
      "stateMutability": "view",
      "type": "function"
    },
    {
      "inputs": [],
      "name": "getPendingValidators",
      "outputs": [
        {
          "internalType": "address[]",
          "name": "",
          "type": "address[]"
        }
      ],
      "stateMutability": "view",
      "type": "function"
    },
    {
      "inputs": [],
      "name": "getPreviousValidators",
      "outputs": [
        {
          "internalType": "address[]",
          "name": "",
          "type": "address[]"
        }
      ],
      "stateMutability": "view",
      "type": "function"
    },
    {
      "inputs": [
        {
          "internalType": "address",
          "name": "_miningAddress",
          "type": "address"
        }
      ],
      "name": "getPublicKey",
      "outputs": [
        {
          "internalType": "bytes",
          "name": "",
          "type": "bytes"
        }
      ],
      "stateMutability": "view",
      "type": "function"
    },
    {
      "inputs": [
        {
          "internalType": "uint256[]",
          "name": "_likelihood",
          "type": "uint256[]"
        },
        {
          "internalType": "uint256",
          "name": "_likelihoodSum",
          "type": "uint256"
        },
        {
          "internalType": "uint256",
          "name": "_randomNumber",
          "type": "uint256"
        }
      ],
      "name": "getRandomIndex",
      "outputs": [
        {
          "internalType": "uint256",
          "name": "",
          "type": "uint256"
        }
      ],
      "stateMutability": "pure",
      "type": "function"
    },
    {
      "inputs": [],
      "name": "getStakingContract",
      "outputs": [
        {
          "internalType": "address",
          "name": "",
          "type": "address"
        }
      ],
      "stateMutability": "view",
      "type": "function"
    },
    {
      "inputs": [
        {
          "internalType": "uint256",
          "name": "_possibleValidatorCount",
          "type": "uint256"
        }
      ],
      "name": "getValidatorCountSweetSpot",
      "outputs": [
        {
          "internalType": "uint256",
          "name": "",
          "type": "uint256"
        }
      ],
      "stateMutability": "view",
      "type": "function"
    },
    {
      "inputs": [],
      "name": "getValidators",
      "outputs": [
        {
          "internalType": "address[]",
          "name": "",
          "type": "address[]"
        }
      ],
      "stateMutability": "view",
      "type": "function"
    },
    {
      "inputs": [],
      "name": "handleFailedKeyGeneration",
      "outputs": [],
      "stateMutability": "nonpayable",
      "type": "function"
    },
    {
      "inputs": [
        {
          "internalType": "address",
          "name": "_blockRewardContract",
          "type": "address"
        },
        {
          "internalType": "address",
          "name": "_randomContract",
          "type": "address"
        },
        {
          "internalType": "address",
          "name": "_stakingContract",
          "type": "address"
        },
        {
          "internalType": "address",
          "name": "_keyGenHistoryContract",
          "type": "address"
        },
        {
          "internalType": "address[]",
          "name": "_initialMiningAddresses",
          "type": "address[]"
        },
        {
          "internalType": "address[]",
          "name": "_initialStakingAddresses",
          "type": "address[]"
        }
      ],
      "name": "initialize",
      "outputs": [],
      "stateMutability": "nonpayable",
      "type": "function"
    },
    {
      "inputs": [],
      "name": "isFullHealth",
      "outputs": [
        {
          "internalType": "bool",
          "name": "",
          "type": "bool"
        }
      ],
      "stateMutability": "view",
      "type": "function"
    },
    {
      "inputs": [],
      "name": "isInitialized",
      "outputs": [
        {
          "internalType": "bool",
          "name": "",
          "type": "bool"
        }
      ],
      "stateMutability": "view",
      "type": "function"
    },
    {
      "inputs": [
        {
          "internalType": "address",
          "name": "_miningAddress",
          "type": "address"
        }
      ],
      "name": "isPendingValidator",
      "outputs": [
        {
          "internalType": "bool",
          "name": "",
          "type": "bool"
        }
      ],
      "stateMutability": "view",
      "type": "function"
    },
    {
      "inputs": [
        {
          "internalType": "address",
          "name": "_miningAddress",
          "type": "address"
        }
      ],
      "name": "isReportValidatorValid",
      "outputs": [
        {
          "internalType": "bool",
          "name": "",
          "type": "bool"
        }
      ],
      "stateMutability": "view",
      "type": "function"
    },
    {
      "inputs": [
        {
          "internalType": "address",
          "name": "",
          "type": "address"
        }
      ],
      "name": "isValidator",
      "outputs": [
        {
          "internalType": "bool",
          "name": "",
          "type": "bool"
        }
      ],
      "stateMutability": "view",
      "type": "function"
    },
    {
      "inputs": [
        {
          "internalType": "address",
          "name": "_miningAddress",
          "type": "address"
        }
      ],
      "name": "isValidatorBanned",
      "outputs": [
        {
          "internalType": "bool",
          "name": "",
          "type": "bool"
        }
      ],
      "stateMutability": "view",
      "type": "function"
    },
    {
      "inputs": [
        {
          "internalType": "address",
          "name": "_miningAddress",
          "type": "address"
        }
      ],
      "name": "isValidatorOrPending",
      "outputs": [
        {
          "internalType": "bool",
          "name": "",
          "type": "bool"
        }
      ],
      "stateMutability": "view",
      "type": "function"
    },
    {
      "inputs": [
        {
          "internalType": "address",
          "name": "",
          "type": "address"
        }
      ],
      "name": "isValidatorPrevious",
      "outputs": [
        {
          "internalType": "bool",
          "name": "",
          "type": "bool"
        }
      ],
      "stateMutability": "view",
      "type": "function"
    },
    {
      "inputs": [],
      "name": "keyGenHistoryContract",
      "outputs": [
        {
          "internalType": "contract IKeyGenHistory",
          "name": "",
          "type": "address"
        }
      ],
      "stateMutability": "view",
      "type": "function"
    },
    {
      "inputs": [
        {
          "internalType": "address",
          "name": "_miningAddress",
          "type": "address"
        },
        {
          "internalType": "uint256",
          "name": "_blockNumber",
          "type": "uint256"
        }
      ],
      "name": "maliceReportedForBlock",
      "outputs": [
        {
          "internalType": "address[]",
          "name": "",
          "type": "address[]"
        }
      ],
      "stateMutability": "view",
      "type": "function"
    },
    {
      "inputs": [],
      "name": "maxValidators",
      "outputs": [
        {
          "internalType": "uint256",
          "name": "",
          "type": "uint256"
        }
      ],
      "stateMutability": "view",
      "type": "function"
    },
    {
      "inputs": [
        {
          "internalType": "address",
          "name": "",
          "type": "address"
        }
      ],
      "name": "miningByStakingAddress",
      "outputs": [
        {
          "internalType": "address",
          "name": "",
          "type": "address"
        }
      ],
      "stateMutability": "view",
      "type": "function"
    },
    {
      "inputs": [],
      "name": "newValidatorSet",
      "outputs": [],
      "stateMutability": "nonpayable",
      "type": "function"
    },
    {
      "inputs": [
        {
          "internalType": "address",
          "name": "_stakingAddress",
          "type": "address"
        }
      ],
      "name": "notifyUnavailability",
      "outputs": [],
      "stateMutability": "nonpayable",
      "type": "function"
    },
    {
      "inputs": [
        {
          "internalType": "address",
          "name": "_stakingAddress",
          "type": "address"
        }
      ],
      "name": "publicKeyByStakingAddress",
      "outputs": [
        {
          "internalType": "bytes",
          "name": "",
          "type": "bytes"
        }
      ],
      "stateMutability": "view",
      "type": "function"
    },
    {
      "inputs": [],
      "name": "randomContract",
      "outputs": [
        {
          "internalType": "address",
          "name": "",
          "type": "address"
        }
      ],
      "stateMutability": "view",
      "type": "function"
    },
    {
      "inputs": [
        {
          "internalType": "address[]",
          "name": "_miningAddresses",
          "type": "address[]"
        }
      ],
      "name": "removeMaliciousValidators",
      "outputs": [],
      "stateMutability": "nonpayable",
      "type": "function"
    },
    {
      "inputs": [
        {
          "internalType": "address",
          "name": "_maliciousMiningAddress",
          "type": "address"
        },
        {
          "internalType": "uint256",
          "name": "_blockNumber",
          "type": "uint256"
        },
        {
          "internalType": "bytes",
          "name": "",
          "type": "bytes"
        }
      ],
      "name": "reportMalicious",
      "outputs": [],
      "stateMutability": "nonpayable",
      "type": "function"
    },
    {
      "inputs": [
        {
          "internalType": "address",
          "name": "_reportingMiningAddress",
          "type": "address"
        },
        {
          "internalType": "address",
          "name": "_maliciousMiningAddress",
          "type": "address"
        },
        {
          "internalType": "uint256",
          "name": "_blockNumber",
          "type": "uint256"
        }
      ],
      "name": "reportMaliciousCallable",
      "outputs": [
        {
          "internalType": "bool",
          "name": "callable",
          "type": "bool"
        },
        {
          "internalType": "bool",
          "name": "removeReportingValidator",
          "type": "bool"
        }
      ],
      "stateMutability": "view",
      "type": "function"
    },
    {
      "inputs": [
        {
          "internalType": "address",
          "name": "",
          "type": "address"
        },
        {
          "internalType": "uint256",
          "name": "",
          "type": "uint256"
        }
      ],
      "name": "reportingCounter",
      "outputs": [
        {
          "internalType": "uint256",
          "name": "",
          "type": "uint256"
        }
      ],
      "stateMutability": "view",
      "type": "function"
    },
    {
      "inputs": [
        {
          "internalType": "uint256",
          "name": "",
          "type": "uint256"
        }
      ],
      "name": "reportingCounterTotal",
      "outputs": [
        {
          "internalType": "uint256",
          "name": "",
          "type": "uint256"
        }
      ],
      "stateMutability": "view",
      "type": "function"
    },
    {
      "inputs": [
        {
          "internalType": "address",
          "name": "_miningAddress",
          "type": "address"
        },
        {
          "internalType": "uint256",
          "name": "_bannedUntil",
          "type": "uint256"
        }
      ],
      "name": "setBannedUntil",
      "outputs": [],
      "stateMutability": "nonpayable",
      "type": "function"
    },
    {
      "inputs": [
        {
          "internalType": "address",
          "name": "_address",
          "type": "address"
        }
      ],
      "name": "setBlockRewardContract",
      "outputs": [],
      "stateMutability": "nonpayable",
      "type": "function"
    },
    {
      "inputs": [
        {
          "internalType": "uint256",
          "name": "_timeStamp",
          "type": "uint256"
        }
      ],
      "name": "setCurrentTimestamp",
      "outputs": [],
      "stateMutability": "nonpayable",
      "type": "function"
    },
    {
      "inputs": [
        {
          "internalType": "uint256",
          "name": "_maxValidators",
          "type": "uint256"
        }
      ],
      "name": "setMaxValidators",
      "outputs": [],
      "stateMutability": "nonpayable",
      "type": "function"
    },
    {
      "inputs": [
        {
          "internalType": "address",
          "name": "_address",
          "type": "address"
        }
      ],
      "name": "setRandomContract",
      "outputs": [],
      "stateMutability": "nonpayable",
      "type": "function"
    },
    {
      "inputs": [
        {
          "internalType": "address",
          "name": "_miningAddress",
          "type": "address"
        },
        {
          "internalType": "address",
          "name": "_stakingAddress",
          "type": "address"
        }
      ],
      "name": "setStakingAddress",
      "outputs": [],
      "stateMutability": "nonpayable",
      "type": "function"
    },
    {
      "inputs": [
        {
          "internalType": "address",
          "name": "_address",
          "type": "address"
        }
      ],
      "name": "setStakingContract",
      "outputs": [],
      "stateMutability": "nonpayable",
      "type": "function"
    },
    {
      "inputs": [
        {
          "internalType": "address",
          "name": "_address",
          "type": "address"
        }
      ],
      "name": "setSystemAddress",
      "outputs": [],
      "stateMutability": "nonpayable",
      "type": "function"
    },
    {
      "inputs": [
        {
          "internalType": "bytes16",
          "name": "_ip",
          "type": "bytes16"
        },
        {
          "internalType": "bytes2",
          "name": "_port",
          "type": "bytes2"
        }
      ],
      "name": "setValidatorInternetAddress",
      "outputs": [],
      "stateMutability": "nonpayable",
      "type": "function"
    },
    {
      "inputs": [
        {
          "internalType": "address",
          "name": "",
          "type": "address"
        }
      ],
      "name": "stakingByMiningAddress",
      "outputs": [
        {
          "internalType": "address",
          "name": "",
          "type": "address"
        }
      ],
      "stateMutability": "view",
      "type": "function"
    },
    {
      "inputs": [],
      "name": "stakingContract",
      "outputs": [
        {
          "internalType": "contract IStakingHbbft",
          "name": "",
          "type": "address"
        }
      ],
      "stateMutability": "view",
      "type": "function"
    },
    {
      "inputs": [
        {
          "internalType": "address",
          "name": "",
          "type": "address"
        }
      ],
      "name": "validatorAvailableSince",
      "outputs": [
        {
          "internalType": "uint256",
          "name": "",
          "type": "uint256"
        }
      ],
      "stateMutability": "view",
      "type": "function"
    },
    {
      "inputs": [
        {
          "internalType": "address",
          "name": "",
          "type": "address"
        }
      ],
      "name": "validatorCounter",
      "outputs": [
        {
          "internalType": "uint256",
          "name": "",
          "type": "uint256"
        }
      ],
      "stateMutability": "view",
      "type": "function"
    },
    {
      "inputs": [
        {
          "internalType": "address",
          "name": "",
          "type": "address"
        }
      ],
      "name": "validatorLastSuccess",
      "outputs": [
        {
          "internalType": "uint256",
          "name": "",
          "type": "uint256"
        }
      ],
      "stateMutability": "view",
      "type": "function"
    }
  ],
  "bytecode": "0x608060405234801561001057600080fd5b50614ebb806100206000396000f3fe608060405234801561001057600080fd5b506004361061036c5760003560e01c806387eed76a116101d3578063b47aef1f11610104578063db2c870c116100a2578063efd049471161007c578063efd04947146108a5578063f51726f0146108b8578063facd743b146108cb578063fb64aac1146108ee57600080fd5b8063db2c870c1461086a578063ee99205c1461088a578063eebc7a391461089d57600080fd5b8063c476dd40116100de578063c476dd4014610804578063c9e9694d14610817578063ccf69e9b14610837578063d2dd2f161461084a57600080fd5b8063b47aef1f146107d6578063b56b366b146107e9578063b7ab4db5146107fc57600080fd5b8063a49904e511610171578063a881c5fd1161014b578063a881c5fd14610788578063a92252ae1461079b578063ade1900a146107ae578063b41832e4146107b657600080fd5b8063a49904e51461072f578063a670eb561461073b578063a68b5b761461076557600080fd5b80639bb2ea5a116101ad5780639bb2ea5a146106c65780639dd373b9146106d9578063a0d16cad14610709578063a42bdee91461071c57600080fd5b806387eed76a1461068f5780638e68dce4146106a25780639881933d146106b357600080fd5b80633755243b116102ad57806360e5c5201161024b578063717662ee11610225578063717662ee1461063f578063752862111461065257806385602ad51461065a578063857cdbb81461066f57600080fd5b806360e5c5201461060457806366efcb78146106245780636c9230db1461063757600080fd5b8063515bbf2c11610287578063515bbf2c146105b657806356b54bae146105c95780635836d08a146105dc5780635ccee1de146105fc57600080fd5b80633755243b14610559578063392e53cd1461058457806343bcce9f146105a357600080fd5b80630a4c10721161031a5780631a7fa237116102f45780631a7fa237146104c05780631d0cd4c6146104e05780631ee4d0bc1461050057806327a3e16b1461052957600080fd5b80630a4c10721461047a57806314e28d901461048d5780631761edb1146104ad57600080fd5b80630636bdac1161034b5780630636bdac1461042057806308ac5256146104335780630933e3a71461044a57600080fd5b806253517514610371578063030360d2146103b757806306210197146103f0575b600080fd5b61039a61037f3660046145e9565b600b602052600090815260409020546001600160a01b031681565b6040516001600160a01b0390911681526020015b60405180910390f35b6103ee6103c536600461460d565b6001600160a01b0390911660009081526005602090815260408083208490556006909152902055565b005b6103ee6103fe3660046145e9565b601780546001600160a01b0319166001600160a01b0392909216919091179055565b6103ee61042e366004614685565b610901565b61043c60155481565b6040519081526020016103ae565b6103ee6104583660046145e9565b600c80546001600160a01b0319166001600160a01b0392909216919091179055565b6103ee6104883660046146c7565b61097a565b6104a061049b3660046145e9565b6109e3565b6040516103ae9190614700565b61043c6104bb366004614793565b610bcc565b61043c6104ce3660046145e9565b60066020526000908152604090205481565b61043c6104ee3660046145e9565b60046020526000908152604090205481565b61039a61050e3660046145e9565b600f602052600090815260409020546001600160a01b031681565b6103ee6105373660046145e9565b600880546001600160a01b0319166001600160a01b0392909216919091179055565b61043c61056736600461460d565b600d60209081526000928352604080842090915290825290205481565b6008546001600160a01b031615155b60405190151581526020016103ae565b6103ee6105b1366004614839565b610c0c565b6103ee6105c436600461485b565b610f4c565b60085461039a906001600160a01b031681565b61043c6105ea3660046145e9565b60056020526000908152604090205481565b6103ee6114fa565b61043c6106123660046145e9565b60146020526000908152604090205481565b6103ee610632366004614915565b61156e565b60165461043c565b6103ee61064d3660046145e9565b6115ea565b6103ee611670565b610662611898565b6040516103ae919061492e565b61068261067d3660046145e9565b6118fa565b6040516103ae919061499f565b61059361069d3660046145e9565b61198a565b6010546001600160a01b031661039a565b6106826106c13660046145e9565b611bca565b6103ee6106d4366004614915565b611bfd565b6103ee6106e73660046145e9565b601080546001600160a01b0319166001600160a01b0392909216919091179055565b6105936107173660046145e9565b611caa565b6103ee61072a3660046149d2565b611cdc565b60005460155414610593565b61074e610749366004614a3b565b611dc1565b6040805192151583529015156020830152016103ae565b6105936107733660046145e9565b600a6020526000908152604090205460ff1681565b6105936107963660046145e9565b611feb565b6105936107a93660046145e9565b61206b565b6103ee6120bf565b61043c6107c43660046145e9565b60126020526000908152604090205481565b60115461039a906001600160a01b031681565b6106626107f736600461460d565b612971565b6106626129f0565b6103ee610812366004614a7c565b612a50565b61043c6108253660046145e9565b60076020526000908152604090205481565b600c5461039a906001600160a01b031681565b61043c610858366004614915565b600e6020526000908152604090205481565b61043c6108783660046145e9565b60136020526000908152604090205481565b60105461039a906001600160a01b031681565b610662612c9f565b61043c6108b3366004614915565b612cff565b6105936108c63660046145e9565b612db0565b6105936108d93660046145e9565b60096020526000908152604090205460ff1681565b6105936108fc3660046145e9565b612e07565b6017546001600160a01b0316331461091857600080fd5b6109768282808060200260200160405190810160405280939291908181526020018383602002808284376000920191909152507f696e6163746976650000000000000000000000000000000000000000000000009250612e6b915050565b5050565b6010546001600160a01b031633146109d95760405162461bcd60e51b815260206004820152601560248201527f4f6e6c79205374616b696e6720436f6e7472616374000000000000000000000060448201526064015b60405180910390fd5b6109768282612ed3565b60006109ee82612e07565b6109fa57506000919050565b60115460408051637be02c2b60e01b8152815160009384936001600160a01b0390911692637be02c2b92600480830193928290030181865afa158015610a44573d6000803e3d6000fd5b505050506040513d601f19601f82011682018060405250810190610a689190614b2a565b60015491935091506fffffffffffffffffffffffffffffffff83161015610b1d576011546040516399de1a4360e01b81526001600160a01b03868116600483015260009216906399de1a4390602401600060405180830381865afa158015610ad4573d6000803e3d6000fd5b505050506040513d6000823e601f3d908101601f19168201604052610afc9190810190614b5d565b90508051600003610b1257506001949350505050565b506002949350505050565b6001546fffffffffffffffffffffffffffffffff82161015610bc257601154604051631baeec3f60e31b81526001600160a01b0386811660048301529091169063dd7761f890602401602060405180830381865afa158015610b83573d6000803e3d6000fd5b505050506040513d601f19601f82011682018060405250810190610ba79190614bf1565b600003610bb8575060039392505050565b5060049392505050565b5060059392505050565b6000610c04848484604051602001610be691815260200190565b6040516020818303038152906040528051906020012060001c613288565b949350505050565b610c1533612db0565b610c875760405162461bcd60e51b815260206004820152602560248201527f416e6e6f756e63696e6720617661696c6162696c697479206e6f7420706f737360448201527f69626c652e00000000000000000000000000000000000000000000000000000060648201526084016109d0565b438210610cfc5760405162461bcd60e51b815260206004820152602a60248201527f5f626c6f636b4e756d62657220617267756d656e74206d75737420626520696e60448201527f2074686520706173742e0000000000000000000000000000000000000000000060648201526084016109d0565b43610d08836010614c20565b11610da15760405162461bcd60e51b815260206004820152604560248201527f5f626c6f636b4e756d62657220617267756d656e74206d75737420626520696e60448201527f2074686520706173742077697468696e20746865206c6173742032353520626c60648201527f6f636b732e000000000000000000000000000000000000000000000000000000608482015260a4016109d0565b80824014610e175760405162461bcd60e51b815260206004820152603360248201527f70726f766964656420626c6f636b68617368206d757374206d6174636820626c60448201527f6f636b636861696e7320626c6f636b686173680000000000000000000000000060648201526084016109d0565b6000306001600160a01b0316636c9230db6040518163ffffffff1660e01b8152600401602060405180830381865afa158015610e57573d6000803e3d6000fd5b505050506040513d601f19601f82011682018060405250810190610e7b9190614bf1565b33600081815260146020908152604091829020849055815192835282018390529192507f705d65dbee06de60e6465d68371ce849d5a1ead53e53d01a413b2b01393aa022910160405180910390a1610ed23361206b565b610f4757601054336000908152600f602052604090819020549051631ec56e5360e21b81526001600160a01b039182166004820152911690637b15b94c906024015b600060405180830381600087803b158015610f2e57600080fd5b505af1158015610f42573d6000803e3d6000fd5b505050505b505050565b7fb53127684a568b3173ae13b9f8a6016e243e63b6e8ee1178d6a717850b5d6103546001600160a01b0316336001600160a01b03161480610fbf57507fb53127684a568b3173ae13b9f8a6016e243e63b6e8ee1178d6a717850b5d6103546001600160a01b0316326001600160a01b0316145b80610ff257507fb53127684a568b3173ae13b9f8a6016e243e63b6e8ee1178d6a717850b5d6103546001600160a01b0316155b80610ffb575043155b61106d5760405162461bcd60e51b815260206004820152603e60248201527f56616c696461746f725365743a20496e697469616c697a6174696f6e206f6e6c60448201527f79206f6e2067656e6573697320626c6f636b206f722062792061646d696e000060648201526084016109d0565b6008546001600160a01b0316156110ec5760405162461bcd60e51b815260206004820152602c60248201527f56616c696461746f7253657420636f6e747261637420697320616c726561647960448201527f20696e697469616c697a6564000000000000000000000000000000000000000060648201526084016109d0565b6001600160a01b0388166111685760405162461bcd60e51b815260206004820152602960248201527f426c6f636b52657761726420636f6e747261637420616464726573732063616e60448201527f277420626520307830000000000000000000000000000000000000000000000060648201526084016109d0565b6001600160a01b0387166111ca5760405162461bcd60e51b8152602060048201526024808201527f52616e646f6d20636f6e747261637420616464726573732063616e27742062656044820152630203078360e41b60648201526084016109d0565b6001600160a01b0386166112465760405162461bcd60e51b815260206004820152602560248201527f5374616b696e6720636f6e747261637420616464726573732063616e2774206260448201527f652030783000000000000000000000000000000000000000000000000000000060648201526084016109d0565b6001600160a01b0385166112c25760405162461bcd60e51b815260206004820152602b60248201527f4b657947656e486973746f727920636f6e74726163742061646472657373206360448201527f616e27742062652030783000000000000000000000000000000000000000000060648201526084016109d0565b826113355760405162461bcd60e51b815260206004820152602560248201527f4d7573742070726f7669646520696e697469616c206d696e696e67206164647260448201527f657373657300000000000000000000000000000000000000000000000000000060648201526084016109d0565b8281146113aa5760405162461bcd60e51b815260206004820152603860248201527f4d7573742070726f76696465207468652073616d6520616d6f756e74206f662060448201527f6d696e696e672f7374616b696e6720616464726573736573000000000000000060648201526084016109d0565b600880546001600160a01b03808b166001600160a01b031992831617909255600c80548a841690831617905560108054898416908316179055601180549288169290911691909117905560005b838110156114ea57600085858381811061141357611413614c33565b905060200201602081019061142891906145e9565b60008054600180820183557f290decd9548b62a8d60345a988386fc84ba6bc95484008f6362f93160ef3e56390910180546001600160a01b0319166001600160a01b0385169081179091558252600960209081526040808420805460ff19169093179092556012905281208054929350906114a283614c49565b91905055506114d7818585858181106114bd576114bd614c33565b90506020020160208101906114d291906145e9565b612ed3565b50806114e281614c49565b9150506113f7565b5050601960155550505050505050565b6008546001600160a01b031633146115545760405162461bcd60e51b815260206004820152601960248201527f4f6e6c7920426c6f636b52657761726420636f6e74726163740000000000000060448201526064016109d0565b60408051600081526020810190915261156c906132f1565b565b60165481116115e55760405162461bcd60e51b815260206004820152603760248201527f73657443757272656e7454696d657374616d703a2043616e27742074696d657460448201527f726176656c206261636b20746f2074686520706173742100000000000000000060648201526084016109d0565b601655565b6010546001600160a01b031633146116445760405162461bcd60e51b815260206004820152601560248201527f4f6e6c79205374616b696e6720436f6e7472616374000000000000000000000060448201526064016109d0565b6001600160a01b039081166000908152600b602090815260408083205490931682526014905290812055565b6008546001600160a01b031633146116ca5760405162461bcd60e51b815260206004820152601960248201527f4f6e6c7920426c6f636b52657761726420636f6e74726163740000000000000060448201526064016109d0565b600154156116e2576116da613aa4565b6116e2613b8f565b601060009054906101000a90046001600160a01b03166001600160a01b031663ee435f556040518163ffffffff1660e01b8152600401600060405180830381600087803b15801561173257600080fd5b505af1158015611746573d6000803e3d6000fd5b50505050601160009054906101000a90046001600160a01b03166001600160a01b0316632c6f194d6040518163ffffffff1660e01b8152600401600060405180830381600087803b15801561179a57600080fd5b505af11580156117ae573d6000803e3d6000fd5b50505050600160006117c09190614551565b601060009054906101000a90046001600160a01b03166001600160a01b0316638247a239306001600160a01b0316636c9230db6040518163ffffffff1660e01b8152600401602060405180830381865afa158015611822573d6000803e3d6000fd5b505050506040513d601f19601f820116820180604052508101906118469190614bf1565b6040518263ffffffff1660e01b815260040161186491815260200190565b600060405180830381600087803b15801561187e57600080fd5b505af1158015611892573d6000803e3d6000fd5b50505050565b606060028054806020026020016040519081016040528092919081815260200182805480156118f057602002820191906000526020600020905b81546001600160a01b031681526001909101906020018083116118d2575b5050505050905090565b6010546001600160a01b038281166000908152600f602052604090819020549051634e9b426d60e01b815290821660048201526060929190911690634e9b426d906024015b600060405180830381865afa15801561195c573d6000803e3d6000fd5b505050506040513d6000823e601f3d908101601f191682016040526119849190810190614b5d565b92915050565b6001600160a01b038116600090815260096020526040812054819060ff1680156119ba57506119b88361206b565b155b9050601060009054906101000a90046001600160a01b03166001600160a01b031663794c0c686040518163ffffffff1660e01b8152600401602060405180830381865afa158015611a0f573d6000803e3d6000fd5b505050506040513d601f19601f82011682018060405250810190611a339190614bf1565b600003611a405792915050565b60105460408051634f9a8d8f60e01b815290516005926001600160a01b031691634f9a8d8f9160048083019260209291908290030181865afa158015611a8a573d6000803e3d6000fd5b505050506040513d601f19601f82011682018060405250810190611aae9190614bf1565b611ab89190614c78565b601060009054906101000a90046001600160a01b03166001600160a01b0316639b03d7446040518163ffffffff1660e01b8152600401602060405180830381865afa158015611b0b573d6000803e3d6000fd5b505050506040513d601f19601f82011682018060405250810190611b2f9190614bf1565b306001600160a01b0316636c9230db6040518163ffffffff1660e01b8152600401602060405180830381865afa158015611b6d573d6000803e3d6000fd5b505050506040513d601f19601f82011682018060405250810190611b919190614bf1565b611b9b9190614c8c565b11611984576001600160a01b0383166000908152600a602052604090205460ff168180610c0457509392505050565b601054604051634e9b426d60e01b81526001600160a01b0383811660048301526060921690634e9b426d9060240161193f565b7fb53127684a568b3173ae13b9f8a6016e243e63b6e8ee1178d6a717850b5d6103546001600160a01b0316336001600160a01b031614611ca55760405162461bcd60e51b815260206004820152602b60248201527f6f6e6c792061646d696e20697320616c6c6f77656420746f2063616c6c20746860448201527f69732066756e6374696f6e00000000000000000000000000000000000000000060648201526084016109d0565b601555565b6001600160a01b03811660009081526009602052604081205460ff1615611cd357506001919050565b61198482612e07565b336000908152600f60205260409020546001600160a01b031680611d4e5760405162461bcd60e51b815260206004820152602360248201527f4e6f20506f6f6c20646566696e656420666f7220746869732076616c6964617460448201526237b91760e91b60648201526084016109d0565b601054604051637b0a0f9b60e01b81526001600160a01b0383811660048301526fffffffffffffffffffffffffffffffff19861660248301527fffff0000000000000000000000000000000000000000000000000000000000008516604483015290911690637b0a0f9b90606401610f14565b600080611dcd8561198a565b611ddc57506000905080611fe3565b611de58461198a565b611df457506000905080611fe3565b6000546001811115611f065760105460408051630f29818d60e31b815290516000926001600160a01b03169163794c0c689160048083019260209291908290030181865afa158015611e4a573d6000803e3d6000fd5b505050506040513d601f19601f82011682018060405250810190611e6e9190614bf1565b6001600160a01b0388166000908152600d60209081526040808320848452825280832054600e9092528220549293509190828210611ec857611eb1600186614c8c565b611ebb8484614c8c565b611ec59190614c78565b90505b611ed3856032614c9f565b83118015611eea5750611ee781600a614c9f565b83115b15611f015760006001965096505050505050611fe3565b505050505b4380851115611f1d57600080935093505050611fe3565b60648082118015611f365750611f338183614c8c565b86105b15611f4a5760008094509450505050611fe3565b6001600160a01b03871660009081526003602090815260408083208984529091528120805490915b81811015611fd4578a6001600160a01b0316838281548110611f9657611f96614c33565b6000918252602090912001546001600160a01b031603611fc25760008097509750505050505050611fe3565b80611fcc81614c49565b915050611f72565b50600160009650965050505050505b935093915050565b6001600160a01b0381166000908152600660209081526040808320548151636c9230db60e01b8152915190923092636c9230db92600480830193928290030181865afa15801561203f573d6000803e3d6000fd5b505050506040513d601f19601f820116820180604052508101906120639190614bf1565b111592915050565b6001600160a01b0381166000908152600560209081526040808320548151636c9230db60e01b8152915190923092636c9230db92600480830193928290030181865afa15801561203f573d6000803e3d6000fd5b6008546001600160a01b031633146121195760405162461bcd60e51b815260206004820152601960248201527f4f6e6c7920426c6f636b52657761726420636f6e74726163740000000000000060448201526064016109d0565b601060009054906101000a90046001600160a01b03166001600160a01b03166322e3d9866040518163ffffffff1660e01b8152600401602060405180830381865afa15801561216c573d6000803e3d6000fd5b505050506040513d601f19601f820116820180604052508101906121909190614bf1565b306001600160a01b0316636c9230db6040518163ffffffff1660e01b8152600401602060405180830381865afa1580156121ce573d6000803e3d6000fd5b505050506040513d601f19601f820116820180604052508101906121f29190614bf1565b101561228c5760405162461bcd60e51b815260206004820152604c60248201527f6661696c6564206b65792067656e65726174696f6e2063616e206f6e6c79206260448201527f652070726f63657373656420616674657220746865207374616b696e6720657060648201527f6f6368206973206f7665722e0000000000000000000000000000000000000000608482015260a4016109d0565b601060009054906101000a90046001600160a01b03166001600160a01b031663a5d54f656040518163ffffffff1660e01b8152600401600060405180830381865afa1580156122df573d6000803e3d6000fd5b505050506040513d6000823e601f3d908101601f191682016040526123079190810190614cb6565b511561156c576001541561156c576001805460009161232591614c8c565b67ffffffffffffffff81111561233d5761233d614728565b604051908082528060200260200182016040528015612366578160200160208202803683370190505b50905060008080601160009054906101000a90046001600160a01b03166001600160a01b0316637be02c2b6040518163ffffffff1660e01b81526004016040805180830381865afa1580156123bf573d6000803e3d6000fd5b505050506040513d601f19601f820116820180604052508101906123e39190614b2a565b9150915060005b6001548110156127005760006001828154811061240957612409614c33565b60009182526020822001546001546001600160a01b0390911692506fffffffffffffffffffffffffffffffff861610156124b9576011546040516399de1a4360e01b81526001600160a01b03848116600483015260009216906399de1a4390602401600060405180830381865afa158015612488573d6000803e3d6000fd5b505050506040513d6000823e601f3d908101601f191682016040526124b09190810190614b5d565b51119050612548565b6001546fffffffffffffffffffffffffffffffff8516101561254857601154604051631baeec3f60e31b81526001600160a01b038481166004830152600092169063dd7761f890602401602060405180830381865afa158015612520573d6000803e3d6000fd5b505050506040513d601f19601f820116820180604052508101906125449190614bf1565b1190505b80156125bb576001838154811061256157612561614c33565b9060005260206000200160009054906101000a90046001600160a01b031687878151811061259157612591614c33565b6001600160a01b0390921660209283029190910190910152856125b381614c49565b9650506126eb565b6010546001600160a01b038381166000908152600f602052604090819020549051631dbe84a360e11b81529082166004820152911690633b7d094690602401600060405180830381600087803b15801561261457600080fd5b505af1158015612628573d6000803e3d6000fd5b5050506001600160a01b0383166000908152601460209081526040808320929092558151636c9230db60e01b815291517f7ec36d1734626f8b3686f8791130187e1633c843b1995003e788cd2b33d56903935085923092636c9230db926004808401938290030181865afa1580156126a4573d6000803e3d6000fd5b505050506040513d601f19601f820116820180604052508101906126c89190614bf1565b604080516001600160a01b03909316835260208301919091520160405180910390a15b505080806126f890614c49565b9150506123ea565b50601154604051632f8ba4bf60e11b81526001600160a01b0390911690635f17497e9061273290600190600401614d45565b600060405180830381600087803b15801561274c57600080fd5b505af1158015612760573d6000803e3d6000fd5b50505050601160009054906101000a90046001600160a01b03166001600160a01b031663adddc0cf6040518163ffffffff1660e01b8152600401600060405180830381600087803b1580156127b457600080fd5b505af11580156127c8573d6000803e3d6000fd5b5050505060008367ffffffffffffffff8111156127e7576127e7614728565b604051908082528060200260200182016040528015612810578160200160208202803683370190505b50905060005b848110156128745785818151811061283057612830614c33565b602002602001015182828151811061284a5761284a614c33565b6001600160a01b03909216602092830291909101909101528061286c81614c49565b915050612816565b50601060009054906101000a90046001600160a01b03166001600160a01b031663adddc0cf6040518163ffffffff1660e01b8152600401600060405180830381600087803b1580156128c557600080fd5b505af11580156128d9573d6000803e3d6000fd5b505050506000601060009054906101000a90046001600160a01b03166001600160a01b031663a5d54f656040518163ffffffff1660e01b8152600401600060405180830381865afa158015612932573d6000803e3d6000fd5b505050506040513d6000823e601f3d908101601f1916820160405261295a9190810190614cb6565b51111561296a5761296a816132f1565b5050505050565b6001600160a01b03821660009081526003602090815260408083208484528252918290208054835181840281018401909452808452606093928301828280156129e357602002820191906000526020600020905b81546001600160a01b031681526001909101906020018083116129c5575b5050505050905092915050565b606060008054806020026020016040519081016040528092919081815260200182805480156118f0576020028201919060005260206000209081546001600160a01b031681526001909101906020018083116118d2575050505050905090565b6008546001600160a01b0316612aa85760405162461bcd60e51b815260206004820152601d60248201527f56616c696461746f725365743a206e6f7420696e697469616c697a656400000060448201526064016109d0565b33612ab281613d49565b600080612ac0838888611dc1565b9150915081612b40578015612b3857604080516001808252818301909252600091602080830190803683370190505090508381600081518110612b0557612b05614c33565b60200260200101906001600160a01b031690816001600160a01b031681525050612b3681637370616d60e01b612e6b565b505b505050611892565b6001600160a01b0387811660008181526003602090815260408083208b8452825280832080546001810182558185529383902090930180546001600160a01b0319169589169586179055805194855290840192909252908201889052907f729a19138e072a5a8d3a56d74ae0b5c84530f09aacd6e12b24c5b2fdc3f8a3d09060600160405180910390a160008054906003821115612bf857612be3826002614c9f565b8354612bf0906003614c9f565b119050612c0b565b82548290612c07906002614c9f565b1190505b8015612c9357604080516001808252818301909252600091602080830190803683370190505090508a81600081518110612c4757612c47614c33565b60200260200101906001600160a01b031690816001600160a01b031681525050612c91817f6d616c6963696f75730000000000000000000000000000000000000000000000612e6b565b505b50505050505050505050565b606060018054806020026020016040519081016040528092919081815260200182805480156118f0576020028201919060005260206000209081546001600160a01b031681526001909101906020018083116118d2575050505050905090565b6000808211612d765760405162461bcd60e51b815260206004820152602560248201527f5f706f737369626c6556616c696461746f72436f756e74206d757374206e6f7460448201527f206265203000000000000000000000000000000000000000000000000000000060648201526084016109d0565b6004821015612d83575090565b6003612d90600184614c8c565b612d9a9190614c78565b612da5906003614c9f565b611984906001614c20565b6001600160a01b038181166000908152600f6020526040812054909116612dd957506000919050565b6001600160a01b03821660009081526014602052604090205415612dff57506000919050565b506001919050565b6000805b600154811015612e625760018181548110612e2857612e28614c33565b6000918252602090912001546001600160a01b0390811690841603612e505750600192915050565b80612e5a81614c49565b915050612e0b565b50600092915050565b60005b8251811015610f4757612e9a838281518110612e8c57612e8c614c33565b602002602001015183613e21565b15612ec157612ec1838281518110612eb457612eb4614c33565b602002602001015161404d565b80612ecb81614c49565b915050612e6e565b6001600160a01b038216612f295760405162461bcd60e51b815260206004820152601960248201527f4d696e696e6720616464726573732063616e277420626520300000000000000060448201526064016109d0565b6001600160a01b038116612f7f5760405162461bcd60e51b815260206004820152601a60248201527f5374616b696e6720616464726573732063616e2774206265203000000000000060448201526064016109d0565b806001600160a01b0316826001600160a01b0316036130065760405162461bcd60e51b815260206004820152603460248201527f4d696e696e6720616464726573732063616e6e6f74206265207468652073616d60448201527f6520617320746865207374616b696e67206f6e6500000000000000000000000060648201526084016109d0565b6001600160a01b038181166000908152600b602052604090205416156130945760405162461bcd60e51b815260206004820152602d60248201527f5374616b696e67206164647265737320616c726561647920757365642061732060448201527f61207374616b696e67206f6e650000000000000000000000000000000000000060648201526084016109d0565b6001600160a01b038281166000908152600b602052604090205416156131225760405162461bcd60e51b815260206004820152602c60248201527f4d696e696e67206164647265737320616c72656164792075736564206173206160448201527f207374616b696e67206f6e65000000000000000000000000000000000000000060648201526084016109d0565b6001600160a01b038181166000908152600f602052604090205416156131b05760405162461bcd60e51b815260206004820152602c60248201527f5374616b696e67206164647265737320616c726561647920757365642061732060448201527f61206d696e696e67206f6e65000000000000000000000000000000000000000060648201526084016109d0565b6001600160a01b038281166000908152600f6020526040902054161561323e5760405162461bcd60e51b815260206004820152602b60248201527f4d696e696e67206164647265737320616c72656164792075736564206173206160448201527f206d696e696e67206f6e6500000000000000000000000000000000000000000060648201526084016109d0565b6001600160a01b039081166000818152600b602090815260408083208054959096166001600160a01b03199586168117909655948252600f90529290922080549091169091179055565b6000806132958484614d89565b90506000805b8282116132db578681815181106132b4576132b4614c33565b6020026020010151826132c79190614c20565b9150806132d381614c49565b91505061329b565b6132e6600182614c8c565b979650505050505050565b6010546040805163a5d54f6560e01b815290516000926001600160a01b03169163a5d54f6591600480830192869291908290030181865afa15801561333a573d6000803e3d6000fd5b505050506040513d6000823e601f3d908101601f191682016040526133629190810190614cb6565b90506000601554825110158061337757508151155b61338a576133858251612cff565b61338e565b6015545b905080825111156137e75781516010546040805163957950a760e01b8152905160009283926001600160a01b039091169163957950a79160048082019286929091908290030181865afa1580156133e9573d6000803e3d6000fd5b505050506040513d6000823e601f3d908101601f191682016040526134119190810190614d9d565b9150915060008467ffffffffffffffff81111561343057613430614728565b604051908082528060200260200182016040528015613459578160200160208202803683370190505b5090506000805b88518110156135f25760005b868110156135df5789828151811061348657613486614c33565b60200260200101516001600160a01b03168982815181106134a9576134a9614c33565b60200260200101516001600160a01b0316036135cd578982815181106134d1576134d1614c33565b60200260200101518484815181106134eb576134eb614c33565b6001600160a01b03909216602092830291909101909101528261350d81614c49565b93505085818151811061352257613522614c33565b6020026020010151856135359190614c8c565b94508661354181614e36565b97505088878151811061355657613556614c33565b602002602001015189828151811061357057613570614c33565b60200260200101906001600160a01b031690816001600160a01b0316815250508587815181106135a2576135a2614c33565b60200260200101518682815181106135bc576135bc614c33565b6020026020010181815250506135df565b806135d781614c49565b91505061346c565b50806135ea81614c49565b915050613460565b50600c5460408051634191031360e11b815290516000926001600160a01b03169163832206269160048083019260209291908290030181865afa15801561363d573d6000803e3d6000fd5b505050506040513d601f19601f820116820180604052508101906136619190614bf1565b9050600085511180156136745750600084115b156137dc5760005b83518110156137d257604080514284186020820152016040516020818303038152906040528051906020012060001c915060006136ba878785613288565b90508981815181106136ce576136ce614c33565b60200260200101518583815181106136e8576136e8614c33565b60200260200101906001600160a01b031690816001600160a01b03168152505086818151811061371a5761371a614c33565b60200260200101518661372d9190614c8c565b95508761373981614e36565b98505089888151811061374e5761374e614c33565b60200260200101518a828151811061376857613768614c33565b60200260200101906001600160a01b031690816001600160a01b03168152505086888151811061379a5761379a614c33565b60200260200101518782815181106137b4576137b4614c33565b602090810291909101015250806137ca81614c49565b91505061367c565b506137dc83614134565b5050505050506137f0565b6137f082614134565b601154604051632f8ba4bf60e11b81526001600160a01b0390911690635f17497e9061382190600090600401614d45565b600060405180830381600087803b15801561383b57600080fd5b505af115801561384f573d6000803e3d6000fd5b5050505081516000146138c557601060009054906101000a90046001600160a01b03166001600160a01b0316631555371c6040518163ffffffff1660e01b8152600401600060405180830381600087803b1580156138ac57600080fd5b505af11580156138c0573d6000803e3d6000fd5b505050505b601060009054906101000a90046001600160a01b03166001600160a01b03166322e3d9866040518163ffffffff1660e01b8152600401602060405180830381865afa158015613918573d6000803e3d6000fd5b505050506040513d601f19601f8201168201806040525081019061393c9190614bf1565b306001600160a01b0316636c9230db6040518163ffffffff1660e01b8152600401602060405180830381865afa15801561397a573d6000803e3d6000fd5b505050506040513d601f19601f8201168201806040525081019061399e9190614bf1565b1115610f475760105460408051631171ecc360e11b815290516001600160a01b0390921691639e72c6359183916322e3d986916004808201926020929091908290030181865afa1580156139f6573d6000803e3d6000fd5b505050506040513d601f19601f82011682018060405250810190613a1a9190614bf1565b306001600160a01b0316636c9230db6040518163ffffffff1660e01b8152600401602060405180830381865afa158015613a58573d6000803e3d6000fd5b505050506040513d601f19601f82011682018060405250810190613a7c9190614bf1565b613a869190614c8c565b6040518263ffffffff1660e01b8152600401610f1491815260200190565b60025460005b81811015613b11576000600a600060028481548110613acb57613acb614c33565b6000918252602080832091909101546001600160a01b031683528201929092526040019020805460ff191691151591909117905580613b0981614c49565b915050613aaa565b505060008054905b81811015613b7f576001600a6000808481548110613b3957613b39614c33565b6000918252602080832091909101546001600160a01b031683528201929092526040019020805460ff191691151591909117905580613b7781614c49565b915050613b19565b60008054610f479160029161456f565b6060600080805480602002602001604051908101604052809291908181526020018280548015613be857602002820191906000526020600020905b81546001600160a01b03168152600190910190602001808311613bca575b50505050509150600090505b8151811015613c5957600060096000848481518110613c1557613c15614c33565b6020908102919091018101516001600160a01b03168252810191909152604001600020805460ff191691151591909117905580613c5181614c49565b915050613bf4565b60018054613c699160009161456f565b506000805480602002602001604051908101604052809291908181526020018280548015613cc057602002820191906000526020600020905b81546001600160a01b03168152600190910190602001808311613ca2575b50505050509150600090505b8151811015610976576000828281518110613ce957613ce9614c33565b6020908102919091018101516001600160a01b0381166000908152600983526040808220805460ff19166001179055601290935291822080549193509091613d3083614c49565b9190505550508080613d4190614c49565b915050613ccc565b613d528161198a565b613d595750565b60105460408051630f29818d60e31b815290516000926001600160a01b03169163794c0c689160048083019260209291908290030181865afa158015613da3573d6000803e3d6000fd5b505050506040513d601f19601f82011682018060405250810190613dc79190614bf1565b6001600160a01b0383166000908152600d602090815260408083208484529091528120805492935090613df983614c49565b90915550506000818152600e60205260408120805491613e1883614c49565b91905055505050565b600080613e2d8461206b565b90506000613e396143c6565b6001600160a01b0386166000908152600460205260408120805492935090613e6083614c49565b90915550506001600160a01b0385166000908152600560209081526040808320849055600790915290208490558115613e9e57600092505050611984565b6001600160a01b038581166000908152600660209081526040808320859055600f90915290819020546010549151631dbe84a360e11b815290831660048201819052929190911690633b7d094690602401600060405180830381600087803b158015613f0957600080fd5b505af1158015613f1d573d6000803e3d6000fd5b50506000549150506001819003613f3b576000945050505050611984565b60005b8181101561403f57876001600160a01b031660008281548110613f6357613f63614c33565b6000918252602090912001546001600160a01b03160361402d576000613f8a600184614c8c565b81548110613f9a57613f9a614c33565b600091825260208220015481546001600160a01b03909116919083908110613fc457613fc4614c33565b6000918252602082200180546001600160a01b0319166001600160a01b039390931692909217909155805480613ffc57613ffc614e4d565b600082815260209020810160001990810180546001600160a01b031916905501905550600194506119849350505050565b8061403781614c49565b915050613f3e565b506000979650505050505050565b60105460408051630f29818d60e31b815290516000926001600160a01b03169163794c0c689160048083019260209291908290030181865afa158015614097573d6000803e3d6000fd5b505050506040513d601f19601f820116820180604052508101906140bb9190614bf1565b6000818152600e60209081526040808320546001600160a01b0387168452600d835281842085855290925282208054929055919250808210614120576000838152600e602052604081208054839290614115908490614c8c565b909155506118929050565b50506000908152600e602052604081205550565b61414060016000614551565b805160000361433e5760005b6000548110156142df57600080828154811061416a5761416a614c33565b6000918252602080832091909101546001600160a01b03908116808452600f90925260409283902054601054935163a711e6a160e01b8152908216600482018190529294509192169063a711e6a190602401602060405180830381865afa1580156141d9573d6000803e3d6000fd5b505050506040513d601f19601f820116820180604052508101906141fd9190614e63565b801561427a575060105460405162e9ab0360e81b81526001600160a01b038381166004830181905260248301529091169063e9ab030090604401602060405180830381865afa158015614254573d6000803e3d6000fd5b505050506040513d601f19601f820116820180604052508101906142789190614bf1565b155b156142ca576001805480820182556000919091527fb10e2d527612073b26eecdfd717e6a320cf44b4afac2b0732d9fcbe2b7fa0cf60180546001600160a01b0319166001600160a01b0384161790555b505080806142d790614c49565b91505061414c565b5060015460000361433b576001600080815481106142ff576142ff614c33565b60009182526020808320909101548354600181018555938352912090910180546001600160a01b0319166001600160a01b039092169190911790555b50565b60005b8151811015610976576001600b600084848151811061436257614362614c33565b6020908102919091018101516001600160a01b039081168352828201939093526040909101600090812054845460018101865594825291902090920180546001600160a01b03191692909116919091179055806143be81614c49565b915050614341565b600080306001600160a01b0316636c9230db6040518163ffffffff1660e01b8152600401602060405180830381865afa158015614407573d6000803e3d6000fd5b505050506040513d601f19601f8201168201806040525081019061442b9190614bf1565b9050600081601060009054906101000a90046001600160a01b03166001600160a01b03166322e3d9866040518163ffffffff1660e01b8152600401602060405180830381865afa158015614483573d6000803e3d6000fd5b505050506040513d601f19601f820116820180604052508101906144a79190614bf1565b6144b19190614c8c565b905080601060009054906101000a90046001600160a01b03166001600160a01b0316634f9a8d8f6040518163ffffffff1660e01b8152600401602060405180830381865afa158015614507573d6000803e3d6000fd5b505050506040513d601f19601f8201168201806040525081019061452b9190614bf1565b61453690600c614c9f565b6145409084614c20565b61454a9190614c20565b9250505090565b508054600082559060005260206000209081019061433b91906145bf565b8280548282559060005260206000209081019282156145af5760005260206000209182015b828111156145af578254825591600101919060010190614594565b506145bb9291506145bf565b5090565b5b808211156145bb57600081556001016145c0565b6001600160a01b038116811461433b57600080fd5b6000602082840312156145fb57600080fd5b8135614606816145d4565b9392505050565b6000806040838503121561462057600080fd5b823561462b816145d4565b946020939093013593505050565b60008083601f84011261464b57600080fd5b50813567ffffffffffffffff81111561466357600080fd5b6020830191508360208260051b850101111561467e57600080fd5b9250929050565b6000806020838503121561469857600080fd5b823567ffffffffffffffff8111156146af57600080fd5b6146bb85828601614639565b90969095509350505050565b600080604083850312156146da57600080fd5b82356146e5816145d4565b915060208301356146f5816145d4565b809150509250929050565b602081016006831061472257634e487b7160e01b600052602160045260246000fd5b91905290565b634e487b7160e01b600052604160045260246000fd5b604051601f8201601f1916810167ffffffffffffffff8111828210171561476757614767614728565b604052919050565b600067ffffffffffffffff82111561478957614789614728565b5060051b60200190565b6000806000606084860312156147a857600080fd5b833567ffffffffffffffff8111156147bf57600080fd5b8401601f810186136147d057600080fd5b803560206147e56147e08361476f565b61473e565b82815260059290921b8301810191818101908984111561480457600080fd5b938201935b8385101561482257843582529382019390820190614809565b999188013598505060409096013595945050505050565b6000806040838503121561484c57600080fd5b50508035926020909101359150565b60008060008060008060008060c0898b03121561487757600080fd5b8835614882816145d4565b97506020890135614892816145d4565b965060408901356148a2816145d4565b955060608901356148b2816145d4565b9450608089013567ffffffffffffffff808211156148cf57600080fd5b6148db8c838d01614639565b909650945060a08b01359150808211156148f457600080fd5b506149018b828c01614639565b999c989b5096995094979396929594505050565b60006020828403121561492757600080fd5b5035919050565b6020808252825182820181905260009190848201906040850190845b8181101561496f5783516001600160a01b03168352928401929184019160010161494a565b50909695505050505050565b60005b8381101561499657818101518382015260200161497e565b50506000910152565b60208152600082518060208401526149be81604085016020870161497b565b601f01601f19169190910160400192915050565b600080604083850312156149e557600080fd5b82356fffffffffffffffffffffffffffffffff1981168114614a0657600080fd5b915060208301357fffff000000000000000000000000000000000000000000000000000000000000811681146146f557600080fd5b600080600060608486031215614a5057600080fd5b8335614a5b816145d4565b92506020840135614a6b816145d4565b929592945050506040919091013590565b60008060008060608587031215614a9257600080fd5b8435614a9d816145d4565b935060208501359250604085013567ffffffffffffffff80821115614ac157600080fd5b818701915087601f830112614ad557600080fd5b813581811115614ae457600080fd5b886020828501011115614af657600080fd5b95989497505060200194505050565b80516fffffffffffffffffffffffffffffffff81168114614b2557600080fd5b919050565b60008060408385031215614b3d57600080fd5b614b4683614b05565b9150614b5460208401614b05565b90509250929050565b600060208284031215614b6f57600080fd5b815167ffffffffffffffff80821115614b8757600080fd5b818401915084601f830112614b9b57600080fd5b815181811115614bad57614bad614728565b614bc0601f8201601f191660200161473e565b9150808252856020828501011115614bd757600080fd5b614be881602084016020860161497b565b50949350505050565b600060208284031215614c0357600080fd5b5051919050565b634e487b7160e01b600052601160045260246000fd5b8082018082111561198457611984614c0a565b634e487b7160e01b600052603260045260246000fd5b600060018201614c5b57614c5b614c0a565b5060010190565b634e487b7160e01b600052601260045260246000fd5b600082614c8757614c87614c62565b500490565b8181038181111561198457611984614c0a565b808202811582820484141761198457611984614c0a565b60006020808385031215614cc957600080fd5b825167ffffffffffffffff811115614ce057600080fd5b8301601f81018513614cf157600080fd5b8051614cff6147e08261476f565b81815260059190911b82018301908381019087831115614d1e57600080fd5b928401925b828410156132e6578351614d36816145d4565b82529284019290840190614d23565b6020808252825482820181905260008481528281209092916040850190845b8181101561496f5783546001600160a01b031683526001938401939285019201614d64565b600082614d9857614d98614c62565b500690565b60008060408385031215614db057600080fd5b825167ffffffffffffffff811115614dc757600080fd5b8301601f81018513614dd857600080fd5b80516020614de86147e08361476f565b82815260059290921b83018101918181019088841115614e0757600080fd5b938201935b83851015614e2557845182529382019390820190614e0c565b969091015195979596505050505050565b600081614e4557614e45614c0a565b506000190190565b634e487b7160e01b600052603160045260246000fd5b600060208284031215614e7557600080fd5b8151801515811461460657600080fdfea2646970667358221220f7385109169bc62bd6c5cd5595b3ee2118aee9d27713735f91ae13c82b9f895464736f6c63430008110033",
  "linkReferences": {},
  "deployedLinkReferences": {}
}