{
  "_format": "hh-sol-artifact-1",
  "contractName": "ValidatorSetHbbft",
  "sourceName": "contracts/ValidatorSetHbbft.sol",
  "abi": [
    {
      "anonymous": false,
      "inputs": [
        {
          "indexed": false,
          "internalType": "address",
          "name": "reportingValidator",
          "type": "address"
        },
        {
          "indexed": false,
          "internalType": "address",
          "name": "maliciousValidator",
          "type": "address"
        },
        {
          "indexed": false,
          "internalType": "uint256",
          "name": "blockNumber",
          "type": "uint256"
        }
      ],
      "name": "ReportedMalicious",
      "type": "event"
    },
    {
      "anonymous": false,
      "inputs": [
        {
          "indexed": false,
          "internalType": "address",
          "name": "validator",
          "type": "address"
        },
        {
          "indexed": false,
          "internalType": "uint256",
          "name": "timestamp",
          "type": "uint256"
        }
      ],
      "name": "ValidatorAvailable",
      "type": "event"
    },
    {
      "anonymous": false,
      "inputs": [
        {
          "indexed": false,
          "internalType": "address",
          "name": "validator",
          "type": "address"
        },
        {
          "indexed": false,
          "internalType": "uint256",
          "name": "timestamp",
          "type": "uint256"
        }
      ],
      "name": "ValidatorUnavailable",
      "type": "event"
    },
    {
      "inputs": [
        {
          "internalType": "uint256",
          "name": "_blockNumber",
          "type": "uint256"
        },
        {
          "internalType": "bytes32",
          "name": "_blockhash",
          "type": "bytes32"
        }
      ],
      "name": "announceAvailability",
      "outputs": [],
      "stateMutability": "nonpayable",
      "type": "function"
    },
    {
      "inputs": [
        {
          "internalType": "address",
          "name": "_miningAddress",
          "type": "address"
        }
      ],
      "name": "areDelegatorsBanned",
      "outputs": [
        {
          "internalType": "bool",
          "name": "",
          "type": "bool"
        }
      ],
      "stateMutability": "view",
      "type": "function"
    },
    {
      "inputs": [
        {
          "internalType": "address",
          "name": "",
          "type": "address"
        }
      ],
      "name": "banCounter",
      "outputs": [
        {
          "internalType": "uint256",
          "name": "",
          "type": "uint256"
        }
      ],
      "stateMutability": "view",
      "type": "function"
    },
    {
      "inputs": [],
      "name": "banDuration",
      "outputs": [
        {
          "internalType": "uint256",
          "name": "",
          "type": "uint256"
        }
      ],
      "stateMutability": "view",
      "type": "function"
    },
    {
      "inputs": [
        {
          "internalType": "address",
          "name": "",
          "type": "address"
        }
      ],
      "name": "banReason",
      "outputs": [
        {
          "internalType": "bytes32",
          "name": "",
          "type": "bytes32"
        }
      ],
      "stateMutability": "view",
      "type": "function"
    },
    {
      "inputs": [
        {
          "internalType": "address",
          "name": "",
          "type": "address"
        }
      ],
      "name": "bannedDelegatorsUntil",
      "outputs": [
        {
          "internalType": "uint256",
          "name": "",
          "type": "uint256"
        }
      ],
      "stateMutability": "view",
      "type": "function"
    },
    {
      "inputs": [
        {
          "internalType": "address",
          "name": "",
          "type": "address"
        }
      ],
      "name": "bannedUntil",
      "outputs": [
        {
          "internalType": "uint256",
          "name": "",
          "type": "uint256"
        }
      ],
      "stateMutability": "view",
      "type": "function"
    },
    {
      "inputs": [],
      "name": "blockRewardContract",
      "outputs": [
        {
          "internalType": "address",
          "name": "",
          "type": "address"
        }
      ],
      "stateMutability": "view",
      "type": "function"
    },
    {
      "inputs": [
        {
          "internalType": "address",
          "name": "_miningAddress",
          "type": "address"
        }
      ],
      "name": "canCallAnnounceAvailability",
      "outputs": [
        {
          "internalType": "bool",
          "name": "",
          "type": "bool"
        }
      ],
      "stateMutability": "view",
      "type": "function"
    },
    {
      "inputs": [],
      "name": "finalizeChange",
      "outputs": [],
      "stateMutability": "nonpayable",
      "type": "function"
    },
    {
      "inputs": [],
      "name": "getCurrentTimestamp",
      "outputs": [
        {
          "internalType": "uint256",
          "name": "",
          "type": "uint256"
        }
      ],
      "stateMutability": "view",
      "type": "function"
    },
    {
      "inputs": [
        {
          "internalType": "address",
          "name": "_miningAddress",
          "type": "address"
        }
      ],
      "name": "getPendingValidatorKeyGenerationMode",
      "outputs": [
        {
          "internalType": "enum IValidatorSetHbbft.KeyGenMode",
          "name": "",
          "type": "uint8"
        }
      ],
      "stateMutability": "view",
      "type": "function"
    },
    {
      "inputs": [],
      "name": "getPendingValidators",
      "outputs": [
        {
          "internalType": "address[]",
          "name": "",
          "type": "address[]"
        }
      ],
      "stateMutability": "view",
      "type": "function"
    },
    {
      "inputs": [],
      "name": "getPreviousValidators",
      "outputs": [
        {
          "internalType": "address[]",
          "name": "",
          "type": "address[]"
        }
      ],
      "stateMutability": "view",
      "type": "function"
    },
    {
      "inputs": [
        {
          "internalType": "address",
          "name": "_miningAddress",
          "type": "address"
        }
      ],
      "name": "getPublicKey",
      "outputs": [
        {
          "internalType": "bytes",
          "name": "",
          "type": "bytes"
        }
      ],
      "stateMutability": "view",
      "type": "function"
    },
    {
      "inputs": [],
      "name": "getStakingContract",
      "outputs": [
        {
          "internalType": "address",
          "name": "",
          "type": "address"
        }
      ],
      "stateMutability": "view",
      "type": "function"
    },
    {
      "inputs": [
        {
          "internalType": "uint256",
          "name": "_possibleValidatorCount",
          "type": "uint256"
        }
      ],
      "name": "getValidatorCountSweetSpot",
      "outputs": [
        {
          "internalType": "uint256",
          "name": "",
          "type": "uint256"
        }
      ],
      "stateMutability": "view",
      "type": "function"
    },
    {
      "inputs": [],
      "name": "getValidators",
      "outputs": [
        {
          "internalType": "address[]",
          "name": "",
          "type": "address[]"
        }
      ],
      "stateMutability": "view",
      "type": "function"
    },
    {
      "inputs": [],
      "name": "handleFailedKeyGeneration",
      "outputs": [],
      "stateMutability": "nonpayable",
      "type": "function"
    },
    {
      "inputs": [
        {
          "internalType": "address",
          "name": "_blockRewardContract",
          "type": "address"
        },
        {
          "internalType": "address",
          "name": "_randomContract",
          "type": "address"
        },
        {
          "internalType": "address",
          "name": "_stakingContract",
          "type": "address"
        },
        {
          "internalType": "address",
          "name": "_keyGenHistoryContract",
          "type": "address"
        },
        {
          "internalType": "uint256",
          "name": "_validatorInactivityThreshold",
          "type": "uint256"
        },
        {
          "internalType": "address[]",
          "name": "_initialMiningAddresses",
          "type": "address[]"
        },
        {
          "internalType": "address[]",
          "name": "_initialStakingAddresses",
          "type": "address[]"
        }
      ],
      "name": "initialize",
      "outputs": [],
      "stateMutability": "nonpayable",
      "type": "function"
    },
    {
      "inputs": [],
      "name": "isFullHealth",
      "outputs": [
        {
          "internalType": "bool",
          "name": "",
          "type": "bool"
        }
      ],
      "stateMutability": "view",
      "type": "function"
    },
    {
      "inputs": [],
      "name": "isInitialized",
      "outputs": [
        {
          "internalType": "bool",
          "name": "",
          "type": "bool"
        }
      ],
      "stateMutability": "view",
      "type": "function"
    },
    {
      "inputs": [
        {
          "internalType": "address",
          "name": "_miningAddress",
          "type": "address"
        }
      ],
      "name": "isPendingValidator",
      "outputs": [
        {
          "internalType": "bool",
          "name": "",
          "type": "bool"
        }
      ],
      "stateMutability": "view",
      "type": "function"
    },
    {
      "inputs": [
        {
          "internalType": "address",
          "name": "_miningAddress",
          "type": "address"
        }
      ],
      "name": "isReportValidatorValid",
      "outputs": [
        {
          "internalType": "bool",
          "name": "",
          "type": "bool"
        }
      ],
      "stateMutability": "view",
      "type": "function"
    },
    {
      "inputs": [
        {
          "internalType": "address",
          "name": "",
          "type": "address"
        }
      ],
      "name": "isValidator",
      "outputs": [
        {
          "internalType": "bool",
          "name": "",
          "type": "bool"
        }
      ],
      "stateMutability": "view",
      "type": "function"
    },
    {
      "inputs": [
        {
          "internalType": "address",
          "name": "_stakingAddress",
          "type": "address"
        }
      ],
      "name": "isValidatorAbandoned",
      "outputs": [
        {
          "internalType": "bool",
          "name": "",
          "type": "bool"
        }
      ],
      "stateMutability": "view",
      "type": "function"
    },
    {
      "inputs": [
        {
          "internalType": "address",
          "name": "_miningAddress",
          "type": "address"
        }
      ],
      "name": "isValidatorBanned",
      "outputs": [
        {
          "internalType": "bool",
          "name": "",
          "type": "bool"
        }
      ],
      "stateMutability": "view",
      "type": "function"
    },
    {
      "inputs": [
        {
          "internalType": "address",
          "name": "_miningAddress",
          "type": "address"
        }
      ],
      "name": "isValidatorOrPending",
      "outputs": [
        {
          "internalType": "bool",
          "name": "",
          "type": "bool"
        }
      ],
      "stateMutability": "view",
      "type": "function"
    },
    {
      "inputs": [
        {
          "internalType": "address",
          "name": "",
          "type": "address"
        }
      ],
      "name": "isValidatorPrevious",
      "outputs": [
        {
          "internalType": "bool",
          "name": "",
          "type": "bool"
        }
      ],
      "stateMutability": "view",
      "type": "function"
    },
    {
      "inputs": [],
      "name": "keyGenHistoryContract",
      "outputs": [
        {
          "internalType": "contract IKeyGenHistory",
          "name": "",
          "type": "address"
        }
      ],
      "stateMutability": "view",
      "type": "function"
    },
    {
      "inputs": [
        {
          "internalType": "address",
          "name": "_miningAddress",
          "type": "address"
        },
        {
          "internalType": "uint256",
          "name": "_blockNumber",
          "type": "uint256"
        }
      ],
      "name": "maliceReportedForBlock",
      "outputs": [
        {
          "internalType": "address[]",
          "name": "",
          "type": "address[]"
        }
      ],
      "stateMutability": "view",
      "type": "function"
    },
    {
      "inputs": [],
      "name": "maxValidators",
      "outputs": [
        {
          "internalType": "uint256",
          "name": "",
          "type": "uint256"
        }
      ],
      "stateMutability": "view",
      "type": "function"
    },
    {
      "inputs": [
        {
          "internalType": "address",
          "name": "",
          "type": "address"
        }
      ],
      "name": "miningByStakingAddress",
      "outputs": [
        {
          "internalType": "address",
          "name": "",
          "type": "address"
        }
      ],
      "stateMutability": "view",
      "type": "function"
    },
    {
      "inputs": [],
      "name": "newValidatorSet",
      "outputs": [],
      "stateMutability": "nonpayable",
      "type": "function"
    },
    {
      "inputs": [
        {
          "internalType": "address",
          "name": "_stakingAddress",
          "type": "address"
        }
      ],
      "name": "notifyUnavailability",
      "outputs": [],
      "stateMutability": "nonpayable",
      "type": "function"
    },
    {
      "inputs": [
        {
          "internalType": "address",
          "name": "_stakingAddress",
          "type": "address"
        }
      ],
      "name": "publicKeyByStakingAddress",
      "outputs": [
        {
          "internalType": "bytes",
          "name": "",
          "type": "bytes"
        }
      ],
      "stateMutability": "view",
      "type": "function"
    },
    {
      "inputs": [],
      "name": "randomContract",
      "outputs": [
        {
          "internalType": "address",
          "name": "",
          "type": "address"
        }
      ],
      "stateMutability": "view",
      "type": "function"
    },
    {
      "inputs": [
        {
          "internalType": "address[]",
          "name": "_miningAddresses",
          "type": "address[]"
        }
      ],
      "name": "removeMaliciousValidators",
      "outputs": [],
      "stateMutability": "nonpayable",
      "type": "function"
    },
    {
      "inputs": [
        {
          "internalType": "address",
          "name": "_maliciousMiningAddress",
          "type": "address"
        },
        {
          "internalType": "uint256",
          "name": "_blockNumber",
          "type": "uint256"
        },
        {
          "internalType": "bytes",
          "name": "",
          "type": "bytes"
        }
      ],
      "name": "reportMalicious",
      "outputs": [],
      "stateMutability": "nonpayable",
      "type": "function"
    },
    {
      "inputs": [
        {
          "internalType": "address",
          "name": "_reportingMiningAddress",
          "type": "address"
        },
        {
          "internalType": "address",
          "name": "_maliciousMiningAddress",
          "type": "address"
        },
        {
          "internalType": "uint256",
          "name": "_blockNumber",
          "type": "uint256"
        }
      ],
      "name": "reportMaliciousCallable",
      "outputs": [
        {
          "internalType": "bool",
          "name": "callable",
          "type": "bool"
        },
        {
          "internalType": "bool",
          "name": "removeReportingValidator",
          "type": "bool"
        }
      ],
      "stateMutability": "view",
      "type": "function"
    },
    {
      "inputs": [
        {
          "internalType": "address",
          "name": "",
          "type": "address"
        },
        {
          "internalType": "uint256",
          "name": "",
          "type": "uint256"
        }
      ],
      "name": "reportingCounter",
      "outputs": [
        {
          "internalType": "uint256",
          "name": "",
          "type": "uint256"
        }
      ],
      "stateMutability": "view",
      "type": "function"
    },
    {
      "inputs": [
        {
          "internalType": "uint256",
          "name": "",
          "type": "uint256"
        }
      ],
      "name": "reportingCounterTotal",
      "outputs": [
        {
          "internalType": "uint256",
          "name": "",
          "type": "uint256"
        }
      ],
      "stateMutability": "view",
      "type": "function"
    },
    {
      "inputs": [
        {
          "internalType": "uint256",
          "name": "_banDuration",
          "type": "uint256"
        }
      ],
      "name": "setBanDuration",
      "outputs": [],
      "stateMutability": "nonpayable",
      "type": "function"
    },
    {
      "inputs": [
        {
          "internalType": "uint256",
          "name": "_maxValidators",
          "type": "uint256"
        }
      ],
      "name": "setMaxValidators",
      "outputs": [],
      "stateMutability": "nonpayable",
      "type": "function"
    },
    {
      "inputs": [
        {
          "internalType": "address",
          "name": "_miningAddress",
          "type": "address"
        },
        {
          "internalType": "address",
          "name": "_stakingAddress",
          "type": "address"
        }
      ],
      "name": "setStakingAddress",
      "outputs": [],
      "stateMutability": "nonpayable",
      "type": "function"
    },
    {
      "inputs": [
        {
          "internalType": "bytes16",
          "name": "_ip",
          "type": "bytes16"
        },
        {
          "internalType": "bytes2",
          "name": "_port",
          "type": "bytes2"
        }
      ],
      "name": "setValidatorInternetAddress",
      "outputs": [],
      "stateMutability": "nonpayable",
      "type": "function"
    },
    {
      "inputs": [
        {
          "internalType": "address",
          "name": "",
          "type": "address"
        }
      ],
      "name": "stakingByMiningAddress",
      "outputs": [
        {
          "internalType": "address",
          "name": "",
          "type": "address"
        }
      ],
      "stateMutability": "view",
      "type": "function"
    },
    {
      "inputs": [],
      "name": "stakingContract",
      "outputs": [
        {
          "internalType": "contract IStakingHbbft",
          "name": "",
          "type": "address"
        }
      ],
      "stateMutability": "view",
      "type": "function"
    },
    {
      "inputs": [
        {
          "internalType": "address",
          "name": "",
          "type": "address"
        }
      ],
      "name": "validatorAvailableSince",
      "outputs": [
        {
          "internalType": "uint256",
          "name": "",
          "type": "uint256"
        }
      ],
      "stateMutability": "view",
      "type": "function"
    },
    {
      "inputs": [
        {
          "internalType": "address",
          "name": "",
          "type": "address"
        }
      ],
      "name": "validatorAvailableSinceLastWrite",
      "outputs": [
        {
          "internalType": "uint256",
          "name": "",
          "type": "uint256"
        }
      ],
      "stateMutability": "view",
      "type": "function"
    },
    {
      "inputs": [
        {
          "internalType": "address",
          "name": "",
          "type": "address"
        }
      ],
      "name": "validatorCounter",
      "outputs": [
        {
          "internalType": "uint256",
          "name": "",
          "type": "uint256"
        }
      ],
      "stateMutability": "view",
      "type": "function"
    },
    {
      "inputs": [],
      "name": "validatorInactivityThreshold",
      "outputs": [
        {
          "internalType": "uint256",
          "name": "",
          "type": "uint256"
        }
      ],
      "stateMutability": "view",
      "type": "function"
    }
  ],
  "bytecode": "0x608060405234801561001057600080fd5b50614e8e806100206000396000f3fe608060405234801561001057600080fd5b506004361061034b5760003560e01c80639881933d116101bd578063b56b366b116100f9578063ed7cba62116100a2578063efd049471161007c578063efd0494714610798578063f51726f0146107ab578063facd743b146107be578063fb64aac1146107e157600080fd5b8063ed7cba621461075d578063ee99205c1461077d578063eebc7a391461079057600080fd5b8063c9e9694d116100d3578063c9e9694d1461070a578063ccf69e9b1461072a578063d2dd2f161461073d57600080fd5b8063b56b366b146106dc578063b7ab4db5146106ef578063c476dd40146106f757600080fd5b8063a670eb5611610166578063a92252ae11610140578063a92252ae1461068e578063ade1900a146106a1578063b41832e4146106a9578063b47aef1f146106c957600080fd5b8063a670eb561461062e578063a68b5b7614610658578063a881c5fd1461067b57600080fd5b8063a0d16cad11610197578063a0d16cad14610601578063a42bdee914610614578063a49904e51461062757600080fd5b80639881933d146105c85780639bb2ea5a146105db5780639d6fc1d1146105ee57600080fd5b8063581e93d91161028c578063717662ee11610235578063857cdbb81161020f578063857cdbb81461057157806387eed76a146105915780638e68dce4146105a457806396f1a5a4146105b557600080fd5b8063717662ee14610541578063752862111461055457806385602ad51461055c57600080fd5b806360e5c5201161026657806360e5c520146105125780636b949ae8146105325780636c9230db1461053b57600080fd5b8063581e93d9146104d75780635836d08a146104ea5780635ccee1de1461050a57600080fd5b80631d0cd4c6116102f9578063392e53cd116102d3578063392e53cd14610489578063426d3cd6146104a857806343bcce9f146104b157806356b54bae146104c457600080fd5b80631d0cd4c6146104155780631ee4d0bc146104355780633755243b1461045e57600080fd5b80630a4c10721161032a5780630a4c1072146103c257806314e28d90146103d55780631a7fa237146103f557600080fd5b8062535175146103505780630636bdac1461039657806308ac5256146103ab575b600080fd5b61037961035e366004614651565b600b602052600090815260409020546001600160a01b031681565b6040516001600160a01b0390911681526020015b60405180910390f35b6103a96103a43660046146c1565b6107f4565b005b6103b460155481565b60405190815260200161038d565b6103a96103d0366004614703565b6108be565b6103e86103e3366004614651565b610922565b60405161038d919061473c565b6103b4610403366004614651565b60066020526000908152604090205481565b6103b4610423366004614651565b60046020526000908152604090205481565b610379610443366004614651565b600f602052600090815260409020546001600160a01b031681565b6103b461046c366004614764565b600d60209081526000928352604080842090915290825290205481565b6008546001600160a01b031615155b604051901515815260200161038d565b6103b460165481565b6103a96104bf366004614790565b610b0b565b600854610379906001600160a01b031681565b6103a96104e53660046147b2565b610e42565b6103b46104f8366004614651565b60056020526000908152604090205481565b6103a9610edd565b6103b4610520366004614651565b60146020526000908152604090205481565b6103b460175481565b426103b4565b6103a961054f366004614651565b610f51565b6103a9610fd3565b6105646111fb565b60405161038d91906147cb565b61058461057f366004614651565b61125d565b60405161038d919061483c565b61049861059f366004614651565b6112ed565b6010546001600160a01b0316610379565b6103a96105c336600461486f565b611530565b6105846105d6366004614651565b611ae9565b6103a96105e93660046147b2565b611b1c565b6104986105fc366004614651565b611bb7565b61049861060f366004614651565b611c83565b6103a9610622366004614935565b611cb5565b6001610498565b61064161063c36600461499e565b611d9a565b60408051921515835290151560208301520161038d565b610498610666366004614651565b600a6020526000908152604090205460ff1681565b610498610689366004614651565b611fc5565b61049861069c366004614651565b612045565b6103a9612099565b6103b46106b7366004614651565b60126020526000908152604090205481565b601154610379906001600160a01b031681565b6105646106ea366004614764565b61293e565b6105646129bd565b6103a96107053660046149df565b612a1d565b6103b4610718366004614651565b60076020526000908152604090205481565b600c54610379906001600160a01b031681565b6103b461074b3660046147b2565b600e6020526000908152604090205481565b6103b461076b366004614651565b60136020526000908152604090205481565b601054610379906001600160a01b031681565b610564612c6c565b6103b46107a63660046147b2565b612ccc565b6104986107b9366004614651565b612d7d565b6104986107cc366004614651565b60096020526000908152604090205460ff1681565b6104986107ef366004614651565b612dd4565b73fffffffffffffffffffffffffffffffffffffffe331461085c5760405162461bcd60e51b815260206004820152600b60248201527f4f6e6c792053797374656d00000000000000000000000000000000000000000060448201526064015b60405180910390fd5b6108ba8282808060200260200160405190810160405280939291908181526020018383602002808284376000920191909152507f696e6163746976650000000000000000000000000000000000000000000000009250612e38915050565b5050565b6010546001600160a01b031633146109185760405162461bcd60e51b815260206004820152601560248201527f4f6e6c79205374616b696e6720436f6e747261637400000000000000000000006044820152606401610853565b6108ba8282612ea0565b600061092d82612dd4565b61093957506000919050565b60115460408051637be02c2b60e01b8152815160009384936001600160a01b0390911692637be02c2b92600480830193928290030181865afa158015610983573d6000803e3d6000fd5b505050506040513d601f19601f820116820180604052508101906109a79190614a8d565b60015491935091506fffffffffffffffffffffffffffffffff83161015610a5c576011546040516399de1a4360e01b81526001600160a01b03868116600483015260009216906399de1a4390602401600060405180830381865afa158015610a13573d6000803e3d6000fd5b505050506040513d6000823e601f3d908101601f19168201604052610a3b9190810190614b07565b90508051600003610a5157506001949350505050565b506002949350505050565b6001546fffffffffffffffffffffffffffffffff82161015610b0157601154604051631baeec3f60e31b81526001600160a01b0386811660048301529091169063dd7761f890602401602060405180830381865afa158015610ac2573d6000803e3d6000fd5b505050506040513d601f19601f82011682018060405250810190610ae69190614b9b565b600003610af7575060039392505050565b5060049392505050565b5060059392505050565b610b1433612d7d565b610b865760405162461bcd60e51b815260206004820152602560248201527f416e6e6f756e63696e6720617661696c6162696c697479206e6f7420706f737360448201527f69626c652e0000000000000000000000000000000000000000000000000000006064820152608401610853565b438210610bfb5760405162461bcd60e51b815260206004820152602a60248201527f5f626c6f636b4e756d62657220617267756d656e74206d75737420626520696e60448201527f2074686520706173742e000000000000000000000000000000000000000000006064820152608401610853565b43610c07836010614bca565b11610ca05760405162461bcd60e51b815260206004820152604560248201527f5f626c6f636b4e756d62657220617267756d656e74206d75737420626520696e60448201527f2074686520706173742077697468696e20746865206c6173742032353520626c60648201527f6f636b732e000000000000000000000000000000000000000000000000000000608482015260a401610853565b80824014610d165760405162461bcd60e51b815260206004820152603360248201527f70726f766964656420626c6f636b68617368206d757374206d6174636820626c60448201527f6f636b636861696e7320626c6f636b68617368000000000000000000000000006064820152608401610853565b6000306001600160a01b0316636c9230db6040518163ffffffff1660e01b8152600401602060405180830381865afa158015610d56573d6000803e3d6000fd5b505050506040513d601f19601f82011682018060405250810190610d7a9190614b9b565b9050610d863382613255565b60408051338152602081018390527f705d65dbee06de60e6465d68371ce849d5a1ead53e53d01a413b2b01393aa022910160405180910390a1610dc833612045565b610e3d57601054336000908152600f602052604090819020549051631ec56e5360e21b81526001600160a01b039182166004820152911690637b15b94c906024015b600060405180830381600087803b158015610e2457600080fd5b505af1158015610e38573d6000803e3d6000fd5b505050505b505050565b7fb53127684a568b3173ae13b9f8a6016e243e63b6e8ee1178d6a717850b5d6103546001600160a01b0316336001600160a01b031614610ed85760405162461bcd60e51b815260206004820152602b60248201527f6f6e6c792061646d696e20697320616c6c6f77656420746f2063616c6c20746860448201526a34b990333ab731ba34b7b760a91b6064820152608401610853565b601655565b6008546001600160a01b03163314610f375760405162461bcd60e51b815260206004820152601960248201527f4f6e6c7920426c6f636b52657761726420636f6e7472616374000000000000006044820152606401610853565b604080516000815260208101909152610f4f906132ef565b565b6010546001600160a01b03163314610fab5760405162461bcd60e51b815260206004820152601560248201527f4f6e6c79205374616b696e6720436f6e747261637400000000000000000000006044820152606401610853565b6001600160a01b038082166000908152600b6020526040812054610fd0921690613255565b50565b6008546001600160a01b0316331461102d5760405162461bcd60e51b815260206004820152601960248201527f4f6e6c7920426c6f636b52657761726420636f6e7472616374000000000000006044820152606401610853565b600154156110455761103d613aa2565b611045613b8d565b601060009054906101000a90046001600160a01b03166001600160a01b031663ee435f556040518163ffffffff1660e01b8152600401600060405180830381600087803b15801561109557600080fd5b505af11580156110a9573d6000803e3d6000fd5b50505050601160009054906101000a90046001600160a01b03166001600160a01b0316632c6f194d6040518163ffffffff1660e01b8152600401600060405180830381600087803b1580156110fd57600080fd5b505af1158015611111573d6000803e3d6000fd5b505050506001600061112391906145b9565b601060009054906101000a90046001600160a01b03166001600160a01b0316638247a239306001600160a01b0316636c9230db6040518163ffffffff1660e01b8152600401602060405180830381865afa158015611185573d6000803e3d6000fd5b505050506040513d601f19601f820116820180604052508101906111a99190614b9b565b6040518263ffffffff1660e01b81526004016111c791815260200190565b600060405180830381600087803b1580156111e157600080fd5b505af11580156111f5573d6000803e3d6000fd5b50505050565b6060600280548060200260200160405190810160405280929190818152602001828054801561125357602002820191906000526020600020905b81546001600160a01b03168152600190910190602001808311611235575b5050505050905090565b6010546001600160a01b038281166000908152600f602052604090819020549051634e9b426d60e01b815290821660048201526060929190911690634e9b426d906024015b600060405180830381865afa1580156112bf573d6000803e3d6000fd5b505050506040513d6000823e601f3d908101601f191682016040526112e79190810190614b07565b92915050565b6001600160a01b038116600090815260096020526040812054819060ff16801561131d575061131b83612045565b155b9050601060009054906101000a90046001600160a01b03166001600160a01b031663794c0c686040518163ffffffff1660e01b8152600401602060405180830381865afa158015611372573d6000803e3d6000fd5b505050506040513d601f19601f820116820180604052508101906113969190614b9b565b6000036113a35792915050565b60105460408051634f9a8d8f60e01b815290516005926001600160a01b031691634f9a8d8f9160048083019260209291908290030181865afa1580156113ed573d6000803e3d6000fd5b505050506040513d601f19601f820116820180604052508101906114119190614b9b565b61141b9190614bf3565b601060009054906101000a90046001600160a01b03166001600160a01b0316639b03d7446040518163ffffffff1660e01b8152600401602060405180830381865afa15801561146e573d6000803e3d6000fd5b505050506040513d601f19601f820116820180604052508101906114929190614b9b565b306001600160a01b0316636c9230db6040518163ffffffff1660e01b8152600401602060405180830381865afa1580156114d0573d6000803e3d6000fd5b505050506040513d601f19601f820116820180604052508101906114f49190614b9b565b6114fe9190614c07565b116112e7576001600160a01b0383166000908152600a602052604090205460ff1681806115285750805b949350505050565b7fb53127684a568b3173ae13b9f8a6016e243e63b6e8ee1178d6a717850b5d6103546001600160a01b0316336001600160a01b031614806115a357507fb53127684a568b3173ae13b9f8a6016e243e63b6e8ee1178d6a717850b5d6103546001600160a01b0316326001600160a01b0316145b806115d657507fb53127684a568b3173ae13b9f8a6016e243e63b6e8ee1178d6a717850b5d6103546001600160a01b0316155b806115df575043155b6116515760405162461bcd60e51b815260206004820152603e60248201527f56616c696461746f725365743a20496e697469616c697a6174696f6e206f6e6c60448201527f79206f6e2067656e6573697320626c6f636b206f722062792061646d696e00006064820152608401610853565b6008546001600160a01b0316156116d05760405162461bcd60e51b815260206004820152602c60248201527f56616c696461746f7253657420636f6e747261637420697320616c726561647960448201527f20696e697469616c697a656400000000000000000000000000000000000000006064820152608401610853565b6001600160a01b03891661174c5760405162461bcd60e51b815260206004820152602960248201527f426c6f636b52657761726420636f6e747261637420616464726573732063616e60448201527f27742062652030783000000000000000000000000000000000000000000000006064820152608401610853565b6001600160a01b0388166117ae5760405162461bcd60e51b8152602060048201526024808201527f52616e646f6d20636f6e747261637420616464726573732063616e27742062656044820152630203078360e41b6064820152608401610853565b6001600160a01b03871661182a5760405162461bcd60e51b815260206004820152602560248201527f5374616b696e6720636f6e747261637420616464726573732063616e2774206260448201527f65203078300000000000000000000000000000000000000000000000000000006064820152608401610853565b6001600160a01b0386166118a65760405162461bcd60e51b815260206004820152602b60248201527f4b657947656e486973746f727920636f6e74726163742061646472657373206360448201527f616e2774206265203078300000000000000000000000000000000000000000006064820152608401610853565b826119195760405162461bcd60e51b815260206004820152602560248201527f4d7573742070726f7669646520696e697469616c206d696e696e67206164647260448201527f65737365730000000000000000000000000000000000000000000000000000006064820152608401610853565b82811461198e5760405162461bcd60e51b815260206004820152603860248201527f4d7573742070726f76696465207468652073616d6520616d6f756e74206f662060448201527f6d696e696e672f7374616b696e672061646472657373657300000000000000006064820152608401610853565b600880546001600160a01b03808c166001600160a01b031992831617909255600c80548b8416908316179055601080548a84169083161790556011805492891692909116919091179055601785905560005b83811015611ad35760008585838181106119fc576119fc614c1a565b9050602002016020810190611a119190614651565b60008054600180820183557f290decd9548b62a8d60345a988386fc84ba6bc95484008f6362f93160ef3e56390910180546001600160a01b0319166001600160a01b0385169081179091558252600960209081526040808420805460ff1916909317909255601290528120805492935090611a8b83614c30565b9190505550611ac081858585818110611aa657611aa6614c1a565b9050602002016020810190611abb9190614651565b612ea0565b5080611acb81614c30565b9150506119e0565b505060196015555050600c601655505050505050565b601054604051634e9b426d60e01b81526001600160a01b0383811660048301526060921690634e9b426d906024016112a2565b7fb53127684a568b3173ae13b9f8a6016e243e63b6e8ee1178d6a717850b5d6103546001600160a01b0316336001600160a01b031614611bb25760405162461bcd60e51b815260206004820152602b60248201527f6f6e6c792061646d696e20697320616c6c6f77656420746f2063616c6c20746860448201526a34b990333ab731ba34b7b760a91b6064820152608401610853565b601555565b6001600160a01b038082166000908152600b602090815260408083205490931680835260149091529181205490919015611bf45750600092915050565b6001600160a01b0381166000908152601360209081526040808320548151636c9230db60e01b8152915190923092636c9230db92600480830193928290030181865afa158015611c48573d6000803e3d6000fd5b505050506040513d601f19601f82011682018060405250810190611c6c9190614b9b565b611c769190614c07565b6017541115949350505050565b6001600160a01b03811660009081526009602052604081205460ff1615611cac57506001919050565b6112e782612dd4565b336000908152600f60205260409020546001600160a01b031680611d275760405162461bcd60e51b815260206004820152602360248201527f4e6f20506f6f6c20646566696e656420666f7220746869732076616c6964617460448201526237b91760e91b6064820152608401610853565b601054604051637b0a0f9b60e01b81526001600160a01b0383811660048301526fffffffffffffffffffffffffffffffff19861660248301527fffff0000000000000000000000000000000000000000000000000000000000008516604483015290911690637b0a0f9b90606401610e0a565b600080611da6856112ed565b611db557506000905080611fbd565b611dbe846112ed565b611dcd57506000905080611fbd565b6000546001811115611ee05760105460408051630f29818d60e31b815290516000926001600160a01b03169163794c0c689160048083019260209291908290030181865afa158015611e23573d6000803e3d6000fd5b505050506040513d601f19601f82011682018060405250810190611e479190614b9b565b6001600160a01b0388166000908152600d60209081526040808320848452825280832054600e9092528220549293509190828210611eac57611e8a600186614c07565b611e948484614c07565b611e9f90600a614c49565b611ea99190614bf3565b90505b611eb7856032614c49565b83118015611ec457508083115b15611edb5760006001965096505050505050611fbd565b505050505b4380851115611ef757600080935093505050611fbd565b60648082118015611f105750611f0d8183614c07565b86105b15611f245760008094509450505050611fbd565b6001600160a01b03871660009081526003602090815260408083208984529091528120805490915b81811015611fae578a6001600160a01b0316838281548110611f7057611f70614c1a565b6000918252602090912001546001600160a01b031603611f9c5760008097509750505050505050611fbd565b80611fa681614c30565b915050611f4c565b50600160009650965050505050505b935093915050565b6001600160a01b0381166000908152600660209081526040808320548151636c9230db60e01b8152915190923092636c9230db92600480830193928290030181865afa158015612019573d6000803e3d6000fd5b505050506040513d601f19601f8201168201806040525081019061203d9190614b9b565b111592915050565b6001600160a01b0381166000908152600560209081526040808320548151636c9230db60e01b8152915190923092636c9230db92600480830193928290030181865afa158015612019573d6000803e3d6000fd5b6008546001600160a01b031633146120f35760405162461bcd60e51b815260206004820152601960248201527f4f6e6c7920426c6f636b52657761726420636f6e7472616374000000000000006044820152606401610853565b601060009054906101000a90046001600160a01b03166001600160a01b03166322e3d9866040518163ffffffff1660e01b8152600401602060405180830381865afa158015612146573d6000803e3d6000fd5b505050506040513d601f19601f8201168201806040525081019061216a9190614b9b565b306001600160a01b0316636c9230db6040518163ffffffff1660e01b8152600401602060405180830381865afa1580156121a8573d6000803e3d6000fd5b505050506040513d601f19601f820116820180604052508101906121cc9190614b9b565b10156122665760405162461bcd60e51b815260206004820152604c60248201527f6661696c6564206b65792067656e65726174696f6e2063616e206f6e6c79206260448201527f652070726f63657373656420616674657220746865207374616b696e6720657060648201527f6f6368206973206f7665722e0000000000000000000000000000000000000000608482015260a401610853565b601060009054906101000a90046001600160a01b03166001600160a01b031663a5d54f656040518163ffffffff1660e01b8152600401600060405180830381865afa1580156122b9573d6000803e3d6000fd5b505050506040513d6000823e601f3d908101601f191682016040526122e19190810190614c84565b5115610f4f5760015415610f4f57600180546000916122ff91614c07565b67ffffffffffffffff81111561231757612317614ac0565b604051908082528060200260200182016040528015612340578160200160208202803683370190505b50905060008080601160009054906101000a90046001600160a01b03166001600160a01b0316637be02c2b6040518163ffffffff1660e01b81526004016040805180830381865afa158015612399573d6000803e3d6000fd5b505050506040513d601f19601f820116820180604052508101906123bd9190614a8d565b9150915060005b6001548110156126cd576000600182815481106123e3576123e3614c1a565b60009182526020822001546001546001600160a01b0390911692506fffffffffffffffffffffffffffffffff86161015612493576011546040516399de1a4360e01b81526001600160a01b03848116600483015260009216906399de1a4390602401600060405180830381865afa158015612462573d6000803e3d6000fd5b505050506040513d6000823e601f3d908101601f1916820160405261248a9190810190614b07565b51119050612522565b6001546fffffffffffffffffffffffffffffffff8516101561252257601154604051631baeec3f60e31b81526001600160a01b038481166004830152600092169063dd7761f890602401602060405180830381865afa1580156124fa573d6000803e3d6000fd5b505050506040513d601f19601f8201168201806040525081019061251e9190614b9b565b1190505b8015612595576001838154811061253b5761253b614c1a565b9060005260206000200160009054906101000a90046001600160a01b031687878151811061256b5761256b614c1a565b6001600160a01b03909216602092830291909101909101528561258d81614c30565b9650506126b8565b6010546001600160a01b038381166000908152600f602052604090819020549051631dbe84a360e11b81529082166004820152911690633b7d094690602401600060405180830381600087803b1580156125ee57600080fd5b505af1158015612602573d6000803e3d6000fd5b50505050612611826000613255565b7f7ec36d1734626f8b3686f8791130187e1633c843b1995003e788cd2b33d5690382306001600160a01b0316636c9230db6040518163ffffffff1660e01b8152600401602060405180830381865afa158015612671573d6000803e3d6000fd5b505050506040513d601f19601f820116820180604052508101906126959190614b9b565b604080516001600160a01b03909316835260208301919091520160405180910390a15b505080806126c590614c30565b9150506123c4565b50601154604051632f8ba4bf60e11b81526001600160a01b0390911690635f17497e906126ff90600190600401614d18565b600060405180830381600087803b15801561271957600080fd5b505af115801561272d573d6000803e3d6000fd5b50505050601160009054906101000a90046001600160a01b03166001600160a01b031663adddc0cf6040518163ffffffff1660e01b8152600401600060405180830381600087803b15801561278157600080fd5b505af1158015612795573d6000803e3d6000fd5b5050505060008367ffffffffffffffff8111156127b4576127b4614ac0565b6040519080825280602002602001820160405280156127dd578160200160208202803683370190505b50905060005b84811015612841578581815181106127fd576127fd614c1a565b602002602001015182828151811061281757612817614c1a565b6001600160a01b03909216602092830291909101909101528061283981614c30565b9150506127e3565b50601060009054906101000a90046001600160a01b03166001600160a01b031663adddc0cf6040518163ffffffff1660e01b8152600401600060405180830381600087803b15801561289257600080fd5b505af11580156128a6573d6000803e3d6000fd5b505050506000601060009054906101000a90046001600160a01b03166001600160a01b031663a5d54f656040518163ffffffff1660e01b8152600401600060405180830381865afa1580156128ff573d6000803e3d6000fd5b505050506040513d6000823e601f3d908101601f191682016040526129279190810190614c84565b51111561293757612937816132ef565b5050505050565b6001600160a01b03821660009081526003602090815260408083208484528252918290208054835181840281018401909452808452606093928301828280156129b057602002820191906000526020600020905b81546001600160a01b03168152600190910190602001808311612992575b5050505050905092915050565b60606000805480602002602001604051908101604052809291908181526020018280548015611253576020028201919060005260206000209081546001600160a01b03168152600190910190602001808311611235575050505050905090565b6008546001600160a01b0316612a755760405162461bcd60e51b815260206004820152601d60248201527f56616c696461746f725365743a206e6f7420696e697469616c697a65640000006044820152606401610853565b33612a7f81613d47565b600080612a8d838888611d9a565b9150915081612b0d578015612b0557604080516001808252818301909252600091602080830190803683370190505090508381600081518110612ad257612ad2614c1a565b60200260200101906001600160a01b031690816001600160a01b031681525050612b0381637370616d60e01b612e38565b505b5050506111f5565b6001600160a01b0387811660008181526003602090815260408083208b8452825280832080546001810182558185529383902090930180546001600160a01b0319169589169586179055805194855290840192909252908201889052907f729a19138e072a5a8d3a56d74ae0b5c84530f09aacd6e12b24c5b2fdc3f8a3d09060600160405180910390a160008054906003821115612bc557612bb0826002614c49565b8354612bbd906003614c49565b119050612bd8565b82548290612bd4906002614c49565b1190505b8015612c6057604080516001808252818301909252600091602080830190803683370190505090508a81600081518110612c1457612c14614c1a565b60200260200101906001600160a01b031690816001600160a01b031681525050612c5e817f6d616c6963696f75730000000000000000000000000000000000000000000000612e38565b505b50505050505050505050565b60606001805480602002602001604051908101604052809291908181526020018280548015611253576020028201919060005260206000209081546001600160a01b03168152600190910190602001808311611235575050505050905090565b6000808211612d435760405162461bcd60e51b815260206004820152602560248201527f5f706f737369626c6556616c696461746f72436f756e74206d757374206e6f7460448201527f20626520300000000000000000000000000000000000000000000000000000006064820152608401610853565b6004821015612d50575090565b6003612d5d600184614c07565b612d679190614bf3565b612d72906003614c49565b6112e7906001614bca565b6001600160a01b038181166000908152600f6020526040812054909116612da657506000919050565b6001600160a01b03821660009081526014602052604090205415612dcc57506000919050565b506001919050565b6000805b600154811015612e2f5760018181548110612df557612df5614c1a565b6000918252602090912001546001600160a01b0390811690841603612e1d5750600192915050565b80612e2781614c30565b915050612dd8565b50600092915050565b60005b8251811015610e3d57612e67838281518110612e5957612e59614c1a565b602002602001015183613e1f565b15612e8e57612e8e838281518110612e8157612e81614c1a565b602002602001015161404b565b80612e9881614c30565b915050612e3b565b6001600160a01b038216612ef65760405162461bcd60e51b815260206004820152601960248201527f4d696e696e6720616464726573732063616e27742062652030000000000000006044820152606401610853565b6001600160a01b038116612f4c5760405162461bcd60e51b815260206004820152601a60248201527f5374616b696e6720616464726573732063616e277420626520300000000000006044820152606401610853565b806001600160a01b0316826001600160a01b031603612fd35760405162461bcd60e51b815260206004820152603460248201527f4d696e696e6720616464726573732063616e6e6f74206265207468652073616d60448201527f6520617320746865207374616b696e67206f6e650000000000000000000000006064820152608401610853565b6001600160a01b038181166000908152600b602052604090205416156130615760405162461bcd60e51b815260206004820152602d60248201527f5374616b696e67206164647265737320616c726561647920757365642061732060448201527f61207374616b696e67206f6e65000000000000000000000000000000000000006064820152608401610853565b6001600160a01b038281166000908152600b602052604090205416156130ef5760405162461bcd60e51b815260206004820152602c60248201527f4d696e696e67206164647265737320616c72656164792075736564206173206160448201527f207374616b696e67206f6e6500000000000000000000000000000000000000006064820152608401610853565b6001600160a01b038181166000908152600f6020526040902054161561317d5760405162461bcd60e51b815260206004820152602c60248201527f5374616b696e67206164647265737320616c726561647920757365642061732060448201527f61206d696e696e67206f6e6500000000000000000000000000000000000000006064820152608401610853565b6001600160a01b038281166000908152600f6020526040902054161561320b5760405162461bcd60e51b815260206004820152602b60248201527f4d696e696e67206164647265737320616c72656164792075736564206173206160448201527f206d696e696e67206f6e650000000000000000000000000000000000000000006064820152608401610853565b6001600160a01b039081166000818152600b602090815260408083208054959096166001600160a01b03199586168117909655948252600f90529290922080549091169091179055565b6001600160a01b0382166000908152601460209081526040918290208390558151636c9230db60e01b815291513092636c9230db9260048083019391928290030181865afa1580156132ab573d6000803e3d6000fd5b505050506040513d601f19601f820116820180604052508101906132cf9190614b9b565b6001600160a01b0390921660009081526013602052604090209190915550565b6010546040805163a5d54f6560e01b815290516000926001600160a01b03169163a5d54f6591600480830192869291908290030181865afa158015613338573d6000803e3d6000fd5b505050506040513d6000823e601f3d908101601f191682016040526133609190810190614c84565b90506000601554825110158061337557508151155b613388576133838251612ccc565b61338c565b6015545b905080825111156137e55781516010546040805163957950a760e01b8152905160009283926001600160a01b039091169163957950a79160048082019286929091908290030181865afa1580156133e7573d6000803e3d6000fd5b505050506040513d6000823e601f3d908101601f1916820160405261340f9190810190614d5c565b9150915060008467ffffffffffffffff81111561342e5761342e614ac0565b604051908082528060200260200182016040528015613457578160200160208202803683370190505b5090506000805b88518110156135f05760005b868110156135dd5789828151811061348457613484614c1a565b60200260200101516001600160a01b03168982815181106134a7576134a7614c1a565b60200260200101516001600160a01b0316036135cb578982815181106134cf576134cf614c1a565b60200260200101518484815181106134e9576134e9614c1a565b6001600160a01b03909216602092830291909101909101528261350b81614c30565b93505085818151811061352057613520614c1a565b6020026020010151856135339190614c07565b94508661353f81614df5565b97505088878151811061355457613554614c1a565b602002602001015189828151811061356e5761356e614c1a565b60200260200101906001600160a01b031690816001600160a01b0316815250508587815181106135a0576135a0614c1a565b60200260200101518682815181106135ba576135ba614c1a565b6020026020010181815250506135dd565b806135d581614c30565b91505061346a565b50806135e881614c30565b91505061345e565b50600c5460408051634191031360e11b815290516000926001600160a01b03169163832206269160048083019260209291908290030181865afa15801561363b573d6000803e3d6000fd5b505050506040513d601f19601f8201168201806040525081019061365f9190614b9b565b9050600085511180156136725750600084115b156137da5760005b83518110156137d057604080514284186020820152016040516020818303038152906040528051906020012060001c915060006136b8878785614132565b90508981815181106136cc576136cc614c1a565b60200260200101518583815181106136e6576136e6614c1a565b60200260200101906001600160a01b031690816001600160a01b03168152505086818151811061371857613718614c1a565b60200260200101518661372b9190614c07565b95508761373781614df5565b98505089888151811061374c5761374c614c1a565b60200260200101518a828151811061376657613766614c1a565b60200260200101906001600160a01b031690816001600160a01b03168152505086888151811061379857613798614c1a565b60200260200101518782815181106137b2576137b2614c1a565b602090810291909101015250806137c881614c30565b91505061367a565b506137da8361419b565b5050505050506137ee565b6137ee8261419b565b601154604051632f8ba4bf60e11b81526001600160a01b0390911690635f17497e9061381f90600090600401614d18565b600060405180830381600087803b15801561383957600080fd5b505af115801561384d573d6000803e3d6000fd5b5050505081516000146138c357601060009054906101000a90046001600160a01b03166001600160a01b0316631555371c6040518163ffffffff1660e01b8152600401600060405180830381600087803b1580156138aa57600080fd5b505af11580156138be573d6000803e3d6000fd5b505050505b601060009054906101000a90046001600160a01b03166001600160a01b03166322e3d9866040518163ffffffff1660e01b8152600401602060405180830381865afa158015613916573d6000803e3d6000fd5b505050506040513d601f19601f8201168201806040525081019061393a9190614b9b565b306001600160a01b0316636c9230db6040518163ffffffff1660e01b8152600401602060405180830381865afa158015613978573d6000803e3d6000fd5b505050506040513d601f19601f8201168201806040525081019061399c9190614b9b565b1115610e3d5760105460408051631171ecc360e11b815290516001600160a01b0390921691639e72c6359183916322e3d986916004808201926020929091908290030181865afa1580156139f4573d6000803e3d6000fd5b505050506040513d601f19601f82011682018060405250810190613a189190614b9b565b306001600160a01b0316636c9230db6040518163ffffffff1660e01b8152600401602060405180830381865afa158015613a56573d6000803e3d6000fd5b505050506040513d601f19601f82011682018060405250810190613a7a9190614b9b565b613a849190614c07565b6040518263ffffffff1660e01b8152600401610e0a91815260200190565b60025460005b81811015613b0f576000600a600060028481548110613ac957613ac9614c1a565b6000918252602080832091909101546001600160a01b031683528201929092526040019020805460ff191691151591909117905580613b0781614c30565b915050613aa8565b505060008054905b81811015613b7d576001600a6000808481548110613b3757613b37614c1a565b6000918252602080832091909101546001600160a01b031683528201929092526040019020805460ff191691151591909117905580613b7581614c30565b915050613b17565b60008054610e3d916002916145d7565b6060600080805480602002602001604051908101604052809291908181526020018280548015613be657602002820191906000526020600020905b81546001600160a01b03168152600190910190602001808311613bc8575b50505050509150600090505b8151811015613c5757600060096000848481518110613c1357613c13614c1a565b6020908102919091018101516001600160a01b03168252810191909152604001600020805460ff191691151591909117905580613c4f81614c30565b915050613bf2565b60018054613c67916000916145d7565b506000805480602002602001604051908101604052809291908181526020018280548015613cbe57602002820191906000526020600020905b81546001600160a01b03168152600190910190602001808311613ca0575b50505050509150600090505b81518110156108ba576000828281518110613ce757613ce7614c1a565b6020908102919091018101516001600160a01b0381166000908152600983526040808220805460ff19166001179055601290935291822080549193509091613d2e83614c30565b9190505550508080613d3f90614c30565b915050613cca565b613d50816112ed565b613d575750565b60105460408051630f29818d60e31b815290516000926001600160a01b03169163794c0c689160048083019260209291908290030181865afa158015613da1573d6000803e3d6000fd5b505050506040513d601f19601f82011682018060405250810190613dc59190614b9b565b6001600160a01b0383166000908152600d602090815260408083208484529091528120805492935090613df783614c30565b90915550506000818152600e60205260408120805491613e1683614c30565b91905055505050565b600080613e2b84612045565b90506000613e3761442c565b6001600160a01b0386166000908152600460205260408120805492935090613e5e83614c30565b90915550506001600160a01b0385166000908152600560209081526040808320849055600790915290208490558115613e9c576000925050506112e7565b6001600160a01b038581166000908152600660209081526040808320859055600f90915290819020546010549151631dbe84a360e11b815290831660048201819052929190911690633b7d094690602401600060405180830381600087803b158015613f0757600080fd5b505af1158015613f1b573d6000803e3d6000fd5b50506000549150506001819003613f395760009450505050506112e7565b60005b8181101561403d57876001600160a01b031660008281548110613f6157613f61614c1a565b6000918252602090912001546001600160a01b03160361402b576000613f88600184614c07565b81548110613f9857613f98614c1a565b600091825260208220015481546001600160a01b03909116919083908110613fc257613fc2614c1a565b6000918252602082200180546001600160a01b0319166001600160a01b039390931692909217909155805480613ffa57613ffa614e0c565b600082815260209020810160001990810180546001600160a01b031916905501905550600194506112e79350505050565b8061403581614c30565b915050613f3c565b506000979650505050505050565b60105460408051630f29818d60e31b815290516000926001600160a01b03169163794c0c689160048083019260209291908290030181865afa158015614095573d6000803e3d6000fd5b505050506040513d601f19601f820116820180604052508101906140b99190614b9b565b6000818152600e60209081526040808320546001600160a01b0387168452600d83528184208585529092528220805492905591925080821061411e576000838152600e602052604081208054839290614113908490614c07565b909155506111f59050565b50506000908152600e602052604081205550565b60008061413f8484614e22565b90506000805b8282116141855786818151811061415e5761415e614c1a565b6020026020010151826141719190614bca565b91508061417d81614c30565b915050614145565b614190600182614c07565b979650505050505050565b6141a7600160006145b9565b80516000036143a45760005b6000548110156143465760008082815481106141d1576141d1614c1a565b6000918252602080832091909101546001600160a01b03908116808452600f90925260409283902054601054935163a711e6a160e01b8152908216600482018190529294509192169063a711e6a190602401602060405180830381865afa158015614240573d6000803e3d6000fd5b505050506040513d601f19601f820116820180604052508101906142649190614e36565b80156142e1575060105460405162e9ab0360e81b81526001600160a01b038381166004830181905260248301529091169063e9ab030090604401602060405180830381865afa1580156142bb573d6000803e3d6000fd5b505050506040513d601f19601f820116820180604052508101906142df9190614b9b565b155b15614331576001805480820182556000919091527fb10e2d527612073b26eecdfd717e6a320cf44b4afac2b0732d9fcbe2b7fa0cf60180546001600160a01b0319166001600160a01b0384161790555b5050808061433e90614c30565b9150506141b3565b50600154600003610fd05760016000808154811061436657614366614c1a565b60009182526020808320909101548354600181018555938352912090910180546001600160a01b0319166001600160a01b0390921691909117905550565b60005b81518110156108ba576001600b60008484815181106143c8576143c8614c1a565b6020908102919091018101516001600160a01b039081168352828201939093526040909101600090812054845460018101865594825291902090920180546001600160a01b031916929091169190911790558061442481614c30565b9150506143a7565b600080306001600160a01b0316636c9230db6040518163ffffffff1660e01b8152600401602060405180830381865afa15801561446d573d6000803e3d6000fd5b505050506040513d601f19601f820116820180604052508101906144919190614b9b565b9050600081601060009054906101000a90046001600160a01b03166001600160a01b03166322e3d9866040518163ffffffff1660e01b8152600401602060405180830381865afa1580156144e9573d6000803e3d6000fd5b505050506040513d601f19601f8201168201806040525081019061450d9190614b9b565b6145179190614c07565b905080601060009054906101000a90046001600160a01b03166001600160a01b0316634f9a8d8f6040518163ffffffff1660e01b8152600401602060405180830381865afa15801561456d573d6000803e3d6000fd5b505050506040513d601f19601f820116820180604052508101906145919190614b9b565b60165461459e9190614c49565b6145a89084614bca565b6145b29190614bca565b9250505090565b5080546000825590600052602060002090810190610fd09190614627565b8280548282559060005260206000209081019282156146175760005260206000209182015b828111156146175782548255916001019190600101906145fc565b50614623929150614627565b5090565b5b808211156146235760008155600101614628565b6001600160a01b0381168114610fd057600080fd5b60006020828403121561466357600080fd5b813561466e8161463c565b9392505050565b60008083601f84011261468757600080fd5b50813567ffffffffffffffff81111561469f57600080fd5b6020830191508360208260051b85010111156146ba57600080fd5b9250929050565b600080602083850312156146d457600080fd5b823567ffffffffffffffff8111156146eb57600080fd5b6146f785828601614675565b90969095509350505050565b6000806040838503121561471657600080fd5b82356147218161463c565b915060208301356147318161463c565b809150509250929050565b602081016006831061475e57634e487b7160e01b600052602160045260246000fd5b91905290565b6000806040838503121561477757600080fd5b82356147828161463c565b946020939093013593505050565b600080604083850312156147a357600080fd5b50508035926020909101359150565b6000602082840312156147c457600080fd5b5035919050565b6020808252825182820181905260009190848201906040850190845b8181101561480c5783516001600160a01b0316835292840192918401916001016147e7565b50909695505050505050565b60005b8381101561483357818101518382015260200161481b565b50506000910152565b602081526000825180602084015261485b816040850160208701614818565b601f01601f19169190910160400192915050565b600080600080600080600080600060e08a8c03121561488d57600080fd5b89356148988161463c565b985060208a01356148a88161463c565b975060408a01356148b88161463c565b965060608a01356148c88161463c565b955060808a0135945060a08a013567ffffffffffffffff808211156148ec57600080fd5b6148f88d838e01614675565b909650945060c08c013591508082111561491157600080fd5b5061491e8c828d01614675565b915080935050809150509295985092959850929598565b6000806040838503121561494857600080fd5b82356fffffffffffffffffffffffffffffffff198116811461496957600080fd5b915060208301357fffff0000000000000000000000000000000000000000000000000000000000008116811461473157600080fd5b6000806000606084860312156149b357600080fd5b83356149be8161463c565b925060208401356149ce8161463c565b929592945050506040919091013590565b600080600080606085870312156149f557600080fd5b8435614a008161463c565b935060208501359250604085013567ffffffffffffffff80821115614a2457600080fd5b818701915087601f830112614a3857600080fd5b813581811115614a4757600080fd5b886020828501011115614a5957600080fd5b95989497505060200194505050565b80516fffffffffffffffffffffffffffffffff81168114614a8857600080fd5b919050565b60008060408385031215614aa057600080fd5b614aa983614a68565b9150614ab760208401614a68565b90509250929050565b634e487b7160e01b600052604160045260246000fd5b604051601f8201601f1916810167ffffffffffffffff81118282101715614aff57614aff614ac0565b604052919050565b600060208284031215614b1957600080fd5b815167ffffffffffffffff80821115614b3157600080fd5b818401915084601f830112614b4557600080fd5b815181811115614b5757614b57614ac0565b614b6a601f8201601f1916602001614ad6565b9150808252856020828501011115614b8157600080fd5b614b92816020840160208601614818565b50949350505050565b600060208284031215614bad57600080fd5b5051919050565b634e487b7160e01b600052601160045260246000fd5b808201808211156112e7576112e7614bb4565b634e487b7160e01b600052601260045260246000fd5b600082614c0257614c02614bdd565b500490565b818103818111156112e7576112e7614bb4565b634e487b7160e01b600052603260045260246000fd5b600060018201614c4257614c42614bb4565b5060010190565b80820281158282048414176112e7576112e7614bb4565b600067ffffffffffffffff821115614c7a57614c7a614ac0565b5060051b60200190565b60006020808385031215614c9757600080fd5b825167ffffffffffffffff811115614cae57600080fd5b8301601f81018513614cbf57600080fd5b8051614cd2614ccd82614c60565b614ad6565b81815260059190911b82018301908381019087831115614cf157600080fd5b928401925b82841015614190578351614d098161463c565b82529284019290840190614cf6565b6020808252825482820181905260008481528281209092916040850190845b8181101561480c5783546001600160a01b031683526001938401939285019201614d37565b60008060408385031215614d6f57600080fd5b825167ffffffffffffffff811115614d8657600080fd5b8301601f81018513614d9757600080fd5b80516020614da7614ccd83614c60565b82815260059290921b83018101918181019088841115614dc657600080fd5b938201935b83851015614de457845182529382019390820190614dcb565b969091015195979596505050505050565b600081614e0457614e04614bb4565b506000190190565b634e487b7160e01b600052603160045260246000fd5b600082614e3157614e31614bdd565b500690565b600060208284031215614e4857600080fd5b8151801515811461466e57600080fdfea2646970667358221220ca96786bdb88f5406a19adda6b7cc9189bc88652860fc8cd6be7889a0340328964736f6c63430008110033",
  "linkReferences": {},
  "deployedLinkReferences": {}
}