{
  "contractName": "ValidatorSetHbbft",
  "abi": [
    {
      "anonymous": false,
      "inputs": [
        {
          "indexed": false,
          "internalType": "address",
          "name": "reportingValidator",
          "type": "address"
        },
        {
          "indexed": false,
          "internalType": "address",
          "name": "maliciousValidator",
          "type": "address"
        },
        {
          "indexed": false,
          "internalType": "uint256",
          "name": "blockNumber",
          "type": "uint256"
        }
      ],
      "name": "ReportedMalicious",
      "type": "event"
    },
    {
      "anonymous": false,
      "inputs": [
        {
          "indexed": false,
          "internalType": "address",
          "name": "validator",
          "type": "address"
        },
        {
          "indexed": false,
          "internalType": "uint256",
          "name": "timestamp",
          "type": "uint256"
        }
      ],
      "name": "ValidatorAvailable",
      "type": "event"
    },
    {
      "anonymous": false,
      "inputs": [
        {
          "indexed": false,
          "internalType": "address",
          "name": "validator",
          "type": "address"
        },
        {
          "indexed": false,
          "internalType": "uint256",
          "name": "timestamp",
          "type": "uint256"
        }
      ],
      "name": "ValidatorUnavailable",
      "type": "event"
    },
    {
      "constant": true,
      "inputs": [
        {
          "internalType": "address",
          "name": "",
          "type": "address"
        }
      ],
      "name": "banCounter",
      "outputs": [
        {
          "internalType": "uint256",
          "name": "",
          "type": "uint256"
        }
      ],
      "payable": false,
      "stateMutability": "view",
      "type": "function"
    },
    {
      "constant": true,
      "inputs": [
        {
          "internalType": "address",
          "name": "",
          "type": "address"
        }
      ],
      "name": "banReason",
      "outputs": [
        {
          "internalType": "bytes32",
          "name": "",
          "type": "bytes32"
        }
      ],
      "payable": false,
      "stateMutability": "view",
      "type": "function"
    },
    {
      "constant": true,
      "inputs": [
        {
          "internalType": "address",
          "name": "",
          "type": "address"
        }
      ],
      "name": "bannedDelegatorsUntil",
      "outputs": [
        {
          "internalType": "uint256",
          "name": "",
          "type": "uint256"
        }
      ],
      "payable": false,
      "stateMutability": "view",
      "type": "function"
    },
    {
      "constant": true,
      "inputs": [
        {
          "internalType": "address",
          "name": "",
          "type": "address"
        }
      ],
      "name": "bannedUntil",
      "outputs": [
        {
          "internalType": "uint256",
          "name": "",
          "type": "uint256"
        }
      ],
      "payable": false,
      "stateMutability": "view",
      "type": "function"
    },
    {
      "constant": true,
      "inputs": [],
      "name": "blockRewardContract",
      "outputs": [
        {
          "internalType": "address",
          "name": "",
          "type": "address"
        }
      ],
      "payable": false,
      "stateMutability": "view",
      "type": "function"
    },
    {
      "constant": true,
      "inputs": [
        {
          "internalType": "address",
          "name": "",
          "type": "address"
        }
      ],
      "name": "isValidator",
      "outputs": [
        {
          "internalType": "bool",
          "name": "",
          "type": "bool"
        }
      ],
      "payable": false,
      "stateMutability": "view",
      "type": "function"
    },
    {
      "constant": true,
      "inputs": [
        {
          "internalType": "address",
          "name": "",
          "type": "address"
        }
      ],
      "name": "isValidatorPrevious",
      "outputs": [
        {
          "internalType": "bool",
          "name": "",
          "type": "bool"
        }
      ],
      "payable": false,
      "stateMutability": "view",
      "type": "function"
    },
    {
      "constant": true,
      "inputs": [],
      "name": "keyGenHistoryContract",
      "outputs": [
        {
          "internalType": "contract IKeyGenHistory",
          "name": "",
          "type": "address"
        }
      ],
      "payable": false,
      "stateMutability": "view",
      "type": "function"
    },
    {
      "constant": true,
      "inputs": [],
      "name": "maxValidators",
      "outputs": [
        {
          "internalType": "uint256",
          "name": "",
          "type": "uint256"
        }
      ],
      "payable": false,
      "stateMutability": "view",
      "type": "function"
    },
    {
      "constant": true,
      "inputs": [
        {
          "internalType": "address",
          "name": "",
          "type": "address"
        }
      ],
      "name": "miningByStakingAddress",
      "outputs": [
        {
          "internalType": "address",
          "name": "",
          "type": "address"
        }
      ],
      "payable": false,
      "stateMutability": "view",
      "type": "function"
    },
    {
      "constant": true,
      "inputs": [],
      "name": "randomContract",
      "outputs": [
        {
          "internalType": "address",
          "name": "",
          "type": "address"
        }
      ],
      "payable": false,
      "stateMutability": "view",
      "type": "function"
    },
    {
      "constant": true,
      "inputs": [
        {
          "internalType": "address",
          "name": "",
          "type": "address"
        },
        {
          "internalType": "uint256",
          "name": "",
          "type": "uint256"
        }
      ],
      "name": "reportingCounter",
      "outputs": [
        {
          "internalType": "uint256",
          "name": "",
          "type": "uint256"
        }
      ],
      "payable": false,
      "stateMutability": "view",
      "type": "function"
    },
    {
      "constant": true,
      "inputs": [
        {
          "internalType": "uint256",
          "name": "",
          "type": "uint256"
        }
      ],
      "name": "reportingCounterTotal",
      "outputs": [
        {
          "internalType": "uint256",
          "name": "",
          "type": "uint256"
        }
      ],
      "payable": false,
      "stateMutability": "view",
      "type": "function"
    },
    {
      "constant": true,
      "inputs": [
        {
          "internalType": "address",
          "name": "",
          "type": "address"
        }
      ],
      "name": "stakingByMiningAddress",
      "outputs": [
        {
          "internalType": "address",
          "name": "",
          "type": "address"
        }
      ],
      "payable": false,
      "stateMutability": "view",
      "type": "function"
    },
    {
      "constant": true,
      "inputs": [],
      "name": "stakingContract",
      "outputs": [
        {
          "internalType": "contract IStakingHbbft",
          "name": "",
          "type": "address"
        }
      ],
      "payable": false,
      "stateMutability": "view",
      "type": "function"
    },
    {
      "constant": true,
      "inputs": [
        {
          "internalType": "address",
          "name": "",
          "type": "address"
        }
      ],
      "name": "validatorAvailableSince",
      "outputs": [
        {
          "internalType": "uint256",
          "name": "",
          "type": "uint256"
        }
      ],
      "payable": false,
      "stateMutability": "view",
      "type": "function"
    },
    {
      "constant": true,
      "inputs": [
        {
          "internalType": "address",
          "name": "",
          "type": "address"
        }
      ],
      "name": "validatorCounter",
      "outputs": [
        {
          "internalType": "uint256",
          "name": "",
          "type": "uint256"
        }
      ],
      "payable": false,
      "stateMutability": "view",
      "type": "function"
    },
    {
      "constant": true,
      "inputs": [
        {
          "internalType": "address",
          "name": "",
          "type": "address"
        }
      ],
      "name": "validatorLastSuccess",
      "outputs": [
        {
          "internalType": "uint256",
          "name": "",
          "type": "uint256"
        }
      ],
      "payable": false,
      "stateMutability": "view",
      "type": "function"
    },
    {
      "constant": true,
      "inputs": [],
      "name": "getCurrentTimestamp",
      "outputs": [
        {
          "internalType": "uint256",
          "name": "",
          "type": "uint256"
        }
      ],
      "payable": false,
      "stateMutability": "view",
      "type": "function"
    },
    {
      "constant": false,
      "inputs": [
        {
          "internalType": "address",
          "name": "_blockRewardContract",
          "type": "address"
        },
        {
          "internalType": "address",
          "name": "_randomContract",
          "type": "address"
        },
        {
          "internalType": "address",
          "name": "_stakingContract",
          "type": "address"
        },
        {
          "internalType": "address",
          "name": "_keyGenHistoryContract",
          "type": "address"
        },
        {
          "internalType": "address[]",
          "name": "_initialMiningAddresses",
          "type": "address[]"
        },
        {
          "internalType": "address[]",
          "name": "_initialStakingAddresses",
          "type": "address[]"
        }
      ],
      "name": "initialize",
      "outputs": [],
      "payable": false,
      "stateMutability": "nonpayable",
      "type": "function"
    },
    {
      "constant": false,
      "inputs": [],
      "name": "finalizeChange",
      "outputs": [],
      "payable": false,
      "stateMutability": "nonpayable",
      "type": "function"
    },
    {
      "constant": false,
      "inputs": [],
      "name": "newValidatorSet",
      "outputs": [],
      "payable": false,
      "stateMutability": "nonpayable",
      "type": "function"
    },
    {
      "constant": false,
      "inputs": [
        {
          "internalType": "address[]",
          "name": "_miningAddresses",
          "type": "address[]"
        }
      ],
      "name": "removeMaliciousValidators",
      "outputs": [],
      "payable": false,
      "stateMutability": "nonpayable",
      "type": "function"
    },
    {
      "constant": false,
      "inputs": [],
      "name": "announceAvailability",
      "outputs": [],
      "payable": false,
      "stateMutability": "nonpayable",
      "type": "function"
    },
    {
      "constant": false,
      "inputs": [],
      "name": "handleFailedKeyGeneration",
      "outputs": [],
      "payable": false,
      "stateMutability": "nonpayable",
      "type": "function"
    },
    {
      "constant": false,
      "inputs": [
        {
          "internalType": "address",
          "name": "_maliciousMiningAddress",
          "type": "address"
        },
        {
          "internalType": "uint256",
          "name": "_blockNumber",
          "type": "uint256"
        },
        {
          "internalType": "bytes",
          "name": "",
          "type": "bytes"
        }
      ],
      "name": "reportMalicious",
      "outputs": [],
      "payable": false,
      "stateMutability": "nonpayable",
      "type": "function"
    },
    {
      "constant": false,
      "inputs": [
        {
          "internalType": "address",
          "name": "_miningAddress",
          "type": "address"
        },
        {
          "internalType": "address",
          "name": "_stakingAddress",
          "type": "address"
        }
      ],
      "name": "setStakingAddress",
      "outputs": [],
      "payable": false,
      "stateMutability": "nonpayable",
      "type": "function"
    },
    {
      "constant": false,
      "inputs": [
        {
          "internalType": "uint256",
          "name": "_maxValidators",
          "type": "uint256"
        }
      ],
      "name": "setMaxValidators",
      "outputs": [],
      "payable": false,
      "stateMutability": "nonpayable",
      "type": "function"
    },
    {
      "constant": true,
      "inputs": [
        {
          "internalType": "address",
          "name": "_miningAddress",
          "type": "address"
        }
      ],
      "name": "areDelegatorsBanned",
      "outputs": [
        {
          "internalType": "bool",
          "name": "",
          "type": "bool"
        }
      ],
      "payable": false,
      "stateMutability": "view",
      "type": "function"
    },
    {
      "constant": true,
      "inputs": [],
      "name": "getPreviousValidators",
      "outputs": [
        {
          "internalType": "address[]",
          "name": "",
          "type": "address[]"
        }
      ],
      "payable": false,
      "stateMutability": "view",
      "type": "function"
    },
    {
      "constant": true,
      "inputs": [],
      "name": "getPendingValidators",
      "outputs": [
        {
          "internalType": "address[]",
          "name": "",
          "type": "address[]"
        }
      ],
      "payable": false,
      "stateMutability": "view",
      "type": "function"
    },
    {
      "constant": true,
      "inputs": [],
      "name": "getValidators",
      "outputs": [
        {
          "internalType": "address[]",
          "name": "",
          "type": "address[]"
        }
      ],
      "payable": false,
      "stateMutability": "view",
      "type": "function"
    },
    {
      "constant": true,
      "inputs": [],
      "name": "isInitialized",
      "outputs": [
        {
          "internalType": "bool",
          "name": "",
          "type": "bool"
        }
      ],
      "payable": false,
      "stateMutability": "view",
      "type": "function"
    },
    {
      "constant": true,
      "inputs": [
        {
          "internalType": "address",
          "name": "_miningAddress",
          "type": "address"
        }
      ],
      "name": "isReportValidatorValid",
      "outputs": [
        {
          "internalType": "bool",
          "name": "",
          "type": "bool"
        }
      ],
      "payable": false,
      "stateMutability": "view",
      "type": "function"
    },
    {
      "constant": true,
      "inputs": [
        {
          "internalType": "address",
          "name": "_miningAddress",
          "type": "address"
        }
      ],
      "name": "getPendingValidatorKeyGenerationMode",
      "outputs": [
        {
          "internalType": "enum IValidatorSetHbbft.KeyGenMode",
          "name": "",
          "type": "uint8"
        }
      ],
      "payable": false,
      "stateMutability": "view",
      "type": "function"
    },
    {
      "constant": true,
      "inputs": [
        {
          "internalType": "address",
          "name": "_miningAddress",
          "type": "address"
        }
      ],
      "name": "isValidatorBanned",
      "outputs": [
        {
          "internalType": "bool",
          "name": "",
          "type": "bool"
        }
      ],
      "payable": false,
      "stateMutability": "view",
      "type": "function"
    },
    {
      "constant": true,
      "inputs": [
        {
          "internalType": "address",
          "name": "_miningAddress",
          "type": "address"
        }
      ],
      "name": "isValidatorOrPending",
      "outputs": [
        {
          "internalType": "bool",
          "name": "",
          "type": "bool"
        }
      ],
      "payable": false,
      "stateMutability": "view",
      "type": "function"
    },
    {
      "constant": true,
      "inputs": [
        {
          "internalType": "address",
          "name": "_miningAddress",
          "type": "address"
        }
      ],
      "name": "isPendingValidator",
      "outputs": [
        {
          "internalType": "bool",
          "name": "",
          "type": "bool"
        }
      ],
      "payable": false,
      "stateMutability": "view",
      "type": "function"
    },
    {
      "constant": true,
      "inputs": [
        {
          "internalType": "address",
          "name": "_miningAddress",
          "type": "address"
        },
        {
          "internalType": "uint256",
          "name": "_blockNumber",
          "type": "uint256"
        }
      ],
      "name": "maliceReportedForBlock",
      "outputs": [
        {
          "internalType": "address[]",
          "name": "",
          "type": "address[]"
        }
      ],
      "payable": false,
      "stateMutability": "view",
      "type": "function"
    },
    {
      "constant": true,
      "inputs": [
        {
          "internalType": "address",
          "name": "_miningAddress",
          "type": "address"
        }
      ],
      "name": "canCallAnnounceAvailability",
      "outputs": [
        {
          "internalType": "bool",
          "name": "",
          "type": "bool"
        }
      ],
      "payable": false,
      "stateMutability": "view",
      "type": "function"
    },
    {
      "constant": true,
      "inputs": [
        {
          "internalType": "address",
          "name": "_reportingMiningAddress",
          "type": "address"
        },
        {
          "internalType": "address",
          "name": "_maliciousMiningAddress",
          "type": "address"
        },
        {
          "internalType": "uint256",
          "name": "_blockNumber",
          "type": "uint256"
        }
      ],
      "name": "reportMaliciousCallable",
      "outputs": [
        {
          "internalType": "bool",
          "name": "callable",
          "type": "bool"
        },
        {
          "internalType": "bool",
          "name": "removeReportingValidator",
          "type": "bool"
        }
      ],
      "payable": false,
      "stateMutability": "view",
      "type": "function"
    },
    {
      "constant": true,
      "inputs": [
        {
          "internalType": "address",
          "name": "_stakingAddress",
          "type": "address"
        }
      ],
      "name": "publicKeyByStakingAddress",
      "outputs": [
        {
          "internalType": "bytes",
          "name": "",
          "type": "bytes"
        }
      ],
      "payable": false,
      "stateMutability": "view",
      "type": "function"
    },
    {
      "constant": true,
      "inputs": [
        {
          "internalType": "address",
          "name": "_miningAddress",
          "type": "address"
        }
      ],
      "name": "getPublicKey",
      "outputs": [
        {
          "internalType": "bytes",
          "name": "",
          "type": "bytes"
        }
      ],
      "payable": false,
      "stateMutability": "view",
      "type": "function"
    },
    {
      "constant": true,
      "inputs": [
        {
          "internalType": "uint256",
          "name": "_possibleValidatorCount",
          "type": "uint256"
        }
      ],
      "name": "getValidatorCountSweetSpot",
      "outputs": [
        {
          "internalType": "uint256",
          "name": "",
          "type": "uint256"
        }
      ],
      "payable": false,
      "stateMutability": "view",
      "type": "function"
    }
  ],
  "bytecode": "0x608060405234801561001057600080fd5b506146f2806100206000396000f3fe608060405234801561001057600080fd5b50600436106102735760003560e01c80639bb2ea5a11610151578063c476dd40116100c3578063ee99205c11610087578063ee99205c14610973578063eebc7a391461097b578063efd0494714610983578063f51726f0146109a0578063facd743b146109c6578063fb64aac1146109ec57610273565b8063c476dd401461087f578063c9e9694d14610902578063ccf69e9b14610928578063d2dd2f1614610930578063db2c870c1461094d57610273565b8063a92252ae11610115578063a92252ae146107ef578063ade1900a14610815578063b41832e41461081d578063b47aef1f14610843578063b56b366b1461084b578063b7ab4db51461087757610273565b80639bb2ea5a1461070f578063a0d16cad1461072c578063a670eb5614610752578063a68b5b76146107a3578063a881c5fd146107c957610273565b8063515bbf2c116101ea5780636c9230db116101ae5780636c9230db146105c057806375286211146105c857806385602ad5146105d0578063857cdbb81461062857806387eed76a146106c35780639881933d146106e957610273565b8063515bbf2c1461047e57806356b54bae146105645780635836d08a1461056c5780635ccee1de1461059257806360e5c5201461059a57610273565b80631a7fa2371161023c5780631a7fa237146103bc5780631d0cd4c6146103e25780631ee4d0bc14610408578063292525af1461042e5780633755243b14610436578063392e53cd1461046257610273565b8062535175146102785780630636bdac146102ba57806308ac52561461032a5780630a4c10721461034457806314e28d9014610372575b600080fd5b61029e6004803603602081101561028e57600080fd5b50356001600160a01b0316610a12565b604080516001600160a01b039092168252519081900360200190f35b610328600480360360208110156102d057600080fd5b810190602081018135600160201b8111156102ea57600080fd5b8201836020820111156102fc57600080fd5b803590602001918460208302840111600160201b8311171561031d57600080fd5b509092509050610a2d565b005b610332610ac3565b60408051918252519081900360200190f35b6103286004803603604081101561035a57600080fd5b506001600160a01b0381358116916020013516610ac9565b6103986004803603602081101561038857600080fd5b50356001600160a01b0316610b2a565b604051808260058111156103a857fe5b60ff16815260200191505060405180910390f35b610332600480360360208110156103d257600080fd5b50356001600160a01b0316610de3565b610332600480360360208110156103f857600080fd5b50356001600160a01b0316610df5565b61029e6004803603602081101561041e57600080fd5b50356001600160a01b0316610e07565b610328610e22565b6103326004803603604081101561044c57600080fd5b506001600160a01b038135169060200135610f9d565b61046a610fba565b604080519115158252519081900360200190f35b610328600480360360c081101561049457600080fd5b6001600160a01b03823581169260208101358216926040820135831692606083013516919081019060a081016080820135600160201b8111156104d657600080fd5b8201836020820111156104e857600080fd5b803590602001918460208302840111600160201b8311171561050957600080fd5b919390929091602081019035600160201b81111561052657600080fd5b82018360208201111561053857600080fd5b803590602001918460208302840111600160201b8311171561055957600080fd5b509092509050610fcc565b61029e611357565b6103326004803603602081101561058257600080fd5b50356001600160a01b0316611366565b610328611378565b610332600480360360208110156105b057600080fd5b50356001600160a01b03166113ed565b6103326113ff565b610328611403565b6105d86115cd565b60408051602080825283518183015283519192839290830191858101910280838360005b838110156106145781810151838201526020016105fc565b505050509050019250505060405180910390f35b61064e6004803603602081101561063e57600080fd5b50356001600160a01b031661162f565b6040805160208082528351818301528351919283929083019185019080838360005b83811015610688578181015183820152602001610670565b50505050905090810190601f1680156106b55780820380516001836020036101000a031916815260200191505b509250505060405180910390f35b61046a600480360360208110156106d957600080fd5b50356001600160a01b0316611780565b61064e600480360360208110156106ff57600080fd5b50356001600160a01b03166119c7565b6103286004803603602081101561072557600080fd5b5035611a18565b61046a6004803603602081101561074257600080fd5b50356001600160a01b0316611a74565b6107886004803603606081101561076857600080fd5b506001600160a01b03813581169160208101359091169060400135611aa6565b60408051921515835290151560208301528051918290030190f35b61046a600480360360208110156107b957600080fd5b50356001600160a01b0316611c9f565b61046a600480360360208110156107df57600080fd5b50356001600160a01b0316611cb4565b61046a6004803603602081101561080557600080fd5b50356001600160a01b0316611d37565b610328611d86565b6103326004803603602081101561083357600080fd5b50356001600160a01b0316612759565b61029e61276b565b6105d86004803603604081101561086157600080fd5b506001600160a01b03813516906020013561277a565b6105d86127f9565b6103286004803603606081101561089557600080fd5b6001600160a01b0382351691602081013591810190606081016040820135600160201b8111156108c457600080fd5b8201836020820111156108d657600080fd5b803590602001918460018302840111600160201b831117156108f757600080fd5b509092509050612859565b6103326004803603602081101561091857600080fd5b50356001600160a01b0316612a9d565b61029e612aaf565b6103326004803603602081101561094657600080fd5b5035612abe565b6103326004803603602081101561096357600080fd5b50356001600160a01b0316612ad0565b61029e612ae2565b6105d8612af1565b6103326004803603602081101561099957600080fd5b5035612b51565b61046a600480360360208110156109b657600080fd5b50356001600160a01b0316612bb6565b61046a600480360360208110156109dc57600080fd5b50356001600160a01b0316612c0d565b61046a60048036036020811015610a0257600080fd5b50356001600160a01b0316612c22565b600b602052600090815260409020546001600160a01b031681565b6002600160a01b033314610a76576040805162461bcd60e51b815260206004820152600b60248201526a4f6e6c792053797374656d60a81b604482015290519081900360640190fd5b610abf82828080602002602001604051908101604052809392919081815260200183836020028082843760009201919091525067696e61637469766560c01b9250612c77915050565b5050565b60155481565b6010546001600160a01b03163314610b20576040805162461bcd60e51b815260206004820152601560248201527413db9b1e4814dd185ada5b99c810dbdb9d1c9858dd605a1b604482015290519081900360640190fd5b610abf8282612cce565b6000610b3582612c22565b610b4157506000610dde565b60115460408051637be02c2b60e01b8152815160009384936001600160a01b0390911692637be02c2b9260048083019392829003018186803b158015610b8657600080fd5b505afa158015610b9a573d6000803e3d6000fd5b505050506040513d6040811015610bb057600080fd5b50805160209091015160015491935091506001600160801b0383161015610d3157601154604080516399de1a4360e01b81526001600160a01b038781166004830152915160609392909216916399de1a4391602480820192600092909190829003018186803b158015610c2257600080fd5b505afa158015610c36573d6000803e3d6000fd5b505050506040513d6000823e601f3d908101601f191682016040526020811015610c5f57600080fd5b8101908080516040519392919084600160201b821115610c7e57600080fd5b908301906020820185811115610c9357600080fd5b8251600160201b811182820188101715610cac57600080fd5b82525081516020918201929091019080838360005b83811015610cd9578181015183820152602001610cc1565b50505050905090810190601f168015610d065780820380516001836020036101000a031916815260200191505b506040525050509050805160001415610d255760019350505050610dde565b60029350505050610dde565b6001546001600160801b0382161015610dd75760115460408051631baeec3f60e31b81526001600160a01b0387811660048301529151919092169163dd7761f8916024808301926020929190829003018186803b158015610d9157600080fd5b505afa158015610da5573d6000803e3d6000fd5b505050506040513d6020811015610dbb57600080fd5b5051610dcc57600392505050610dde565b600492505050610dde565b6005925050505b919050565b60066020526000908152604090205481565b60046020526000908152604090205481565b600f602052600090815260409020546001600160a01b031681565b610e2b33612bb6565b610e665760405162461bcd60e51b81526004018080602001828103825260248152602001806144b26024913960400191505060405180910390fd5b6000306001600160a01b0316636c9230db6040518163ffffffff1660e01b815260040160206040518083038186803b158015610ea157600080fd5b505afa158015610eb5573d6000803e3d6000fd5b505050506040513d6020811015610ecb57600080fd5b5051336000818152601460209081526040918290208490558151928352820183905280519293507f705d65dbee06de60e6465d68371ce849d5a1ead53e53d01a413b2b01393aa02292918290030190a1610f2433611d37565b610f9a57601054336000908152600f6020526040808220548151631ec56e5360e21b81526001600160a01b0391821660048201529151931692637b15b94c9260248084019391929182900301818387803b158015610f8157600080fd5b505af1158015610f95573d6000803e3d6000fd5b505050505b50565b600d60209081526000928352604080842090915290825290205481565b6008546001600160a01b031615155b90565b610fd4612f7b565b6001600160a01b0316336001600160a01b0316148061100b5750610ff6612f7b565b6001600160a01b0316326001600160a01b0316145b806110245750611019612f7b565b6001600160a01b0316155b8061102d575043155b6110685760405162461bcd60e51b815260040180806020018281038252603e8152602001806145cf603e913960400191505060405180910390fd5b611070610fba565b156110ac5760405162461bcd60e51b815260040180806020018281038252602c815260200180614486602c913960400191505060405180910390fd5b6001600160a01b0388166110f15760405162461bcd60e51b815260040180806020018281038252602981526020018061445d6029913960400191505060405180910390fd5b6001600160a01b0387166111365760405162461bcd60e51b81526004018080602001828103825260248152602001806144396024913960400191505060405180910390fd5b6001600160a01b03861661117b5760405162461bcd60e51b81526004018080602001828103825260258152602001806145aa6025913960400191505060405180910390fd5b6001600160a01b0385166111c05760405162461bcd60e51b815260040180806020018281038252602b815260200180614547602b913960400191505060405180910390fd5b826111fc5760405162461bcd60e51b81526004018080602001828103825260258152602001806145226025913960400191505060405180910390fd5b82811461123a5760405162461bcd60e51b81526004018080602001828103825260388152602001806145726038913960400191505060405180910390fd5b600880546001600160a01b03808b166001600160a01b031992831617909255600c80548a841690831617905560108054898416908316179055601180549288169290911691909117905560005b8381101561134757600085858381811061129d57fe5b60008054600180820183557f290decd9548b62a8d60345a988386fc84ba6bc95484008f6362f93160ef3e5639091018054602094850296909601356001600160a01b03166001600160a01b031990961686179055848252600983526040808320805460ff19168317905560129093529190208054909101905550905061133e8185858581811061132957fe5b905060200201356001600160a01b0316612cce565b50600101611287565b5050601960155550505050505050565b6008546001600160a01b031681565b60056020526000908152604090205481565b6008546001600160a01b031633146113d3576040805162461bcd60e51b815260206004820152601960248201527813db9b1e48109b1bd8dad4995dd85c990818dbdb9d1c9858dd603a1b604482015290519081900360640190fd5b6040805160008152602081019091526113eb90612fa0565b565b60146020526000908152604090205481565b4290565b6008546001600160a01b0316331461145e576040805162461bcd60e51b815260206004820152601960248201527813db9b1e48109b1bd8dad4995dd85c990818dbdb9d1c9858dd603a1b604482015290519081900360640190fd5b600154156114765761146e61387c565b611476613947565b601060009054906101000a90046001600160a01b03166001600160a01b031663ee435f556040518163ffffffff1660e01b8152600401600060405180830381600087803b1580156114c657600080fd5b505af11580156114da573d6000803e3d6000fd5b50505050600160006114ec91906142e9565b601060009054906101000a90046001600160a01b03166001600160a01b0316638247a239306001600160a01b0316636c9230db6040518163ffffffff1660e01b815260040160206040518083038186803b15801561154957600080fd5b505afa15801561155d573d6000803e3d6000fd5b505050506040513d602081101561157357600080fd5b5051604080516001600160e01b031960e085901b168152600481019290925251602480830192600092919082900301818387803b1580156115b357600080fd5b505af11580156115c7573d6000803e3d6000fd5b50505050565b6060600280548060200260200160405190810160405280929190818152602001828054801561162557602002820191906000526020600020905b81546001600160a01b03168152600190910190602001808311611607575b5050505050905090565b6010546001600160a01b038281166000908152600f6020526040808220548151634e9b426d60e01b8152908416600482015290516060949390931692634e9b426d92602480840193919291829003018186803b15801561168e57600080fd5b505afa1580156116a2573d6000803e3d6000fd5b505050506040513d6000823e601f3d908101601f1916820160405260208110156116cb57600080fd5b8101908080516040519392919084600160201b8211156116ea57600080fd5b9083019060208201858111156116ff57600080fd5b8251600160201b81118282018810171561171857600080fd5b82525081516020918201929091019080838360005b8381101561174557818101518382015260200161172d565b50505050905090810190601f1680156117725780820380516001836020036101000a031916815260200191505b506040525050509050919050565b6001600160a01b038116600090815260096020526040812054819060ff1680156117b057506117ae83611d37565b155b9050601060009054906101000a90046001600160a01b03166001600160a01b031663794c0c686040518163ffffffff1660e01b815260040160206040518083038186803b15801561180057600080fd5b505afa158015611814573d6000803e3d6000fd5b505050506040513d602081101561182a57600080fd5b5051611837579050610dde565b60105460408051634f9a8d8f60e01b815290516005926001600160a01b031691634f9a8d8f916004808301926020929190829003018186803b15801561187c57600080fd5b505afa158015611890573d6000803e3d6000fd5b505050506040513d60208110156118a657600080fd5b5051816118af57fe5b04601060009054906101000a90046001600160a01b03166001600160a01b0316639b03d7446040518163ffffffff1660e01b815260040160206040518083038186803b1580156118fe57600080fd5b505afa158015611912573d6000803e3d6000fd5b505050506040513d602081101561192857600080fd5b505160408051636c9230db60e01b815290513091636c9230db916004808301926020929190829003018186803b15801561196157600080fd5b505afa158015611975573d6000803e3d6000fd5b505050506040513d602081101561198b57600080fd5b505103116119c1576001600160a01b0383166000908152600a602052604090205460ff1681806119b85750805b92505050610dde565b92915050565b60105460408051634e9b426d60e01b81526001600160a01b03848116600483015291516060939290921691634e9b426d91602480820192600092909190829003018186803b15801561168e57600080fd5b611a20612f7b565b6001600160a01b0316336001600160a01b031614611a6f5760405162461bcd60e51b815260040180806020018281038252602b815260200180614693602b913960400191505060405180910390fd5b601555565b6001600160a01b03811660009081526009602052604081205460ff1615611a9d57506001610dde565b6119c182612c22565b600080611ab285611780565b611ac157506000905080611c97565b611aca84611780565b611ad957506000905080611c97565b6000546001811115611bd05760105460408051630f29818d60e31b815290516000926001600160a01b03169163794c0c68916004808301926020929190829003018186803b158015611b2a57600080fd5b505afa158015611b3e573d6000803e3d6000fd5b505050506040513d6020811015611b5457600080fd5b50516001600160a01b0388166000908152600d60209081526040808320848452825280832054600e9092528220549293509190828210611ba0576001850383830381611b9c57fe5b0490505b8460320283118015611bb4575080600a0283115b15611bcb5760006001965096505050505050611c97565b505050505b4380851115611be757600080935093505050611c97565b60648082118015611bf9575080820386105b15611c0d5760008094509450505050611c97565b6001600160a01b03871660009081526003602090815260408083208984529091528120805490915b81811015611c88578a6001600160a01b0316838281548110611c5357fe5b6000918252602090912001546001600160a01b03161415611c805760008097509750505050505050611c97565b600101611c35565b50600160009650965050505050505b935093915050565b600a6020526000908152604090205460ff1681565b6001600160a01b0381166000908152600660209081526040808320548151636c9230db60e01b8152915190923092636c9230db9260048083019392829003018186803b158015611d0357600080fd5b505afa158015611d17573d6000803e3d6000fd5b505050506040513d6020811015611d2d57600080fd5b5051111592915050565b6001600160a01b0381166000908152600560209081526040808320548151636c9230db60e01b8152915190923092636c9230db9260048083019392829003018186803b158015611d0357600080fd5b6008546001600160a01b03163314611de1576040805162461bcd60e51b815260206004820152601960248201527813db9b1e48109b1bd8dad4995dd85c990818dbdb9d1c9858dd603a1b604482015290519081900360640190fd5b601060009054906101000a90046001600160a01b03166001600160a01b03166322e3d9866040518163ffffffff1660e01b815260040160206040518083038186803b158015611e2f57600080fd5b505afa158015611e43573d6000803e3d6000fd5b505050506040513d6020811015611e5957600080fd5b505160408051636c9230db60e01b815290513091636c9230db916004808301926020929190829003018186803b158015611e9257600080fd5b505afa158015611ea6573d6000803e3d6000fd5b505050506040513d6020811015611ebc57600080fd5b50511015611efb5760405162461bcd60e51b815260040180806020018281038252604c8152602001806144d6604c913960600191505060405180910390fd5b601060009054906101000a90046001600160a01b03166001600160a01b031663a5d54f656040518163ffffffff1660e01b815260040160006040518083038186803b158015611f4957600080fd5b505afa158015611f5d573d6000803e3d6000fd5b505050506040513d6000823e601f3d908101601f191682016040526020811015611f8657600080fd5b8101908080516040519392919084600160201b821115611fa557600080fd5b908301906020820185811115611fba57600080fd5b82518660208202830111600160201b82111715611fd657600080fd5b82525081516020918201928201910280838360005b83811015612003578181015183820152602001611feb565b50505050905001604052505050516000141561201e576113eb565b60015461202a576113eb565b6060600180805490500360405190808252806020026020018201604052801561205d578160200160208202803883390190505b5060115460408051637be02c2b60e01b81528151939450600093849384936001600160a01b0390911692637be02c2b9260048083019392829003018186803b1580156120a857600080fd5b505afa1580156120bc573d6000803e3d6000fd5b505050506040513d60408110156120d257600080fd5b508051602090910151909250905060005b60015481101561249e576000600182815481106120fc57fe5b60009182526020822001546001546001600160a01b0390911692506001600160801b038616101561226b57601154604080516399de1a4360e01b81526001600160a01b038581166004830152915160009392909216916399de1a43916024808201928692909190829003018186803b15801561217757600080fd5b505afa15801561218b573d6000803e3d6000fd5b505050506040513d6000823e601f3d908101601f1916820160405260208110156121b457600080fd5b8101908080516040519392919084600160201b8211156121d357600080fd5b9083019060208201858111156121e857600080fd5b8251600160201b81118282018810171561220157600080fd5b82525081516020918201929091019080838360005b8381101561222e578181015183820152602001612216565b50505050905090810190601f16801561225b5780820380516001836020036101000a031916815260200191505b50604052505050511190506122ff565b6001546001600160801b03851610156122ff5760115460408051631baeec3f60e31b81526001600160a01b0385811660048301529151600093929092169163dd7761f891602480820192602092909190829003018186803b1580156122cf57600080fd5b505afa1580156122e3573d6000803e3d6000fd5b505050506040513d60208110156122f957600080fd5b50511190505b801561235f576001838154811061231257fe5b9060005260206000200160009054906101000a90046001600160a01b031687878151811061233c57fe5b6001600160a01b0390921660209283029190910190910152600190950194612494565b6010546001600160a01b038381166000908152600f6020526040808220548151631dbe84a360e11b8152908416600482015290519290931692633b7d0946926024808301939282900301818387803b1580156123ba57600080fd5b505af11580156123ce573d6000803e3d6000fd5b5050506001600160a01b0383166000908152601460209081526040808320929092558151636c9230db60e01b815291517f7ec36d1734626f8b3686f8791130187e1633c843b1995003e788cd2b33d56903935085923092636c9230db92600480840193829003018186803b15801561244557600080fd5b505afa158015612459573d6000803e3d6000fd5b505050506040513d602081101561246f57600080fd5b5051604080516001600160a01b03909316835260208301919091528051918290030190a15b50506001016120e3565b50601154604051632f8ba4bf60e11b815260206004820190815260018054602484018190526001600160a01b0390941693635f17497e9391929182916044909101908490801561251757602002820191906000526020600020905b81546001600160a01b031681526001909101906020018083116124f9575b505092505050600060405180830381600087803b15801561253757600080fd5b505af115801561254b573d6000803e3d6000fd5b5050505060608360405190808252806020026020018201604052801561257b578160200160208202803883390190505b50905060005b848110156125c95785818151811061259557fe5b60200260200101518282815181106125a957fe5b6001600160a01b0390921660209283029190910190910152600101612581565b50601060009054906101000a90046001600160a01b03166001600160a01b031663adddc0cf6040518163ffffffff1660e01b8152600401600060405180830381600087803b15801561261a57600080fd5b505af115801561262e573d6000803e3d6000fd5b505050506000601060009054906101000a90046001600160a01b03166001600160a01b031663a5d54f656040518163ffffffff1660e01b815260040160006040518083038186803b15801561268257600080fd5b505afa158015612696573d6000803e3d6000fd5b505050506040513d6000823e601f3d908101601f1916820160405260208110156126bf57600080fd5b8101908080516040519392919084600160201b8211156126de57600080fd5b9083019060208201858111156126f357600080fd5b82518660208202830111600160201b8211171561270f57600080fd5b82525081516020918201928201910280838360005b8381101561273c578181015183820152602001612724565b50505050905001604052505050511115610f9557610f9581612fa0565b60126020526000908152604090205481565b6011546001600160a01b031681565b6001600160a01b03821660009081526003602090815260408083208484528252918290208054835181840281018401909452808452606093928301828280156127ec57602002820191906000526020600020905b81546001600160a01b031681526001909101906020018083116127ce575b5050505050905092915050565b60606000805480602002602001604051908101604052809291908181526020018280548015611625576020028201919060005260206000209081546001600160a01b03168152600190910190602001808311611607575050505050905090565b612861610fba565b6128b2576040805162461bcd60e51b815260206004820152601d60248201527f56616c696461746f725365743a206e6f7420696e697469616c697a6564000000604482015290519081900360640190fd5b336128bc81613ad4565b6000806128ca838888611aa6565b915091508161294457801561293c5760408051600180825281830190925260609160208083019080388339019050509050838160008151811061290957fe5b60200260200101906001600160a01b031690816001600160a01b03168152505061293a81637370616d60e01b612c77565b505b5050506115c7565b6001600160a01b0380881660008181526003602090815260408083208b8452825280832080546001810182558185529383902090930180549589166001600160a01b031990961686179055805194855290840192909252828201899052905190917f729a19138e072a5a8d3a56d74ae0b5c84530f09aacd6e12b24c5b2fdc3f8a3d0919081900360600190a160008054906003821115612a0a576129ef82600263ffffffff613b9816565b8354612a0290600363ffffffff613b9816565b119050612a23565b82548290612a1f90600263ffffffff613b9816565b1190505b8015612a9157604080516001808252818301909252606091602080830190803883390190505090508a81600081518110612a5957fe5b60200260200101906001600160a01b031690816001600160a01b031681525050612a8f81686d616c6963696f757360b81b612c77565b505b50505050505050505050565b60076020526000908152604090205481565b600c546001600160a01b031681565b600e6020526000908152604090205481565b60136020526000908152604090205481565b6010546001600160a01b031681565b60606001805480602002602001604051908101604052809291908181526020018280548015611625576020028201919060005260206000209081546001600160a01b03168152600190910190602001808311611607575050505050905090565b6000808211612b915760405162461bcd60e51b815260040180806020018281038252602581526020018061460d6025913960400191505060405180910390fd5b6004821015612ba1575080610dde565b60036000198301046003026001019050919050565b6001600160a01b038181166000908152600f6020526040812054909116612bdf57506000610dde565b6001600160a01b03821660009081526014602052604090205415612c0557506000610dde565b506001919050565b60096020526000908152604090205460ff1681565b6000805b600154811015612c6e5760018181548110612c3d57fe5b6000918252602090912001546001600160a01b0384811691161415612c66576001915050610dde565b600101612c26565b50600092915050565b60005b8251811015612cc957612ca0838281518110612c9257fe5b602002602001015183613bc6565b15612cc157612cc1838281518110612cb457fe5b6020026020010151613d91565b600101612c7a565b505050565b6001600160a01b038216612d29576040805162461bcd60e51b815260206004820152601960248201527f4d696e696e6720616464726573732063616e2774206265203000000000000000604482015290519081900360640190fd5b6001600160a01b038116612d84576040805162461bcd60e51b815260206004820152601a60248201527f5374616b696e6720616464726573732063616e27742062652030000000000000604482015290519081900360640190fd5b806001600160a01b0316826001600160a01b03161415612dd55760405162461bcd60e51b815260040180806020018281038252603481526020018061465f6034913960400191505060405180910390fd5b6001600160a01b038181166000908152600b60205260409020541615612e2c5760405162461bcd60e51b815260040180806020018281038252602d815260200180614632602d913960400191505060405180910390fd5b6001600160a01b038281166000908152600b60205260409020541615612e835760405162461bcd60e51b815260040180806020018281038252602c8152602001806143b6602c913960400191505060405180910390fd5b6001600160a01b038181166000908152600f60205260409020541615612eda5760405162461bcd60e51b815260040180806020018281038252602c8152602001806143e2602c913960400191505060405180910390fd5b6001600160a01b038281166000908152600f60205260409020541615612f315760405162461bcd60e51b815260040180806020018281038252602b81526020018061440e602b913960400191505060405180910390fd5b6001600160a01b039081166000818152600b602090815260408083208054959096166001600160a01b03199586168117909655948252600f90529290922080549091169091179055565b7fb53127684a568b3173ae13b9f8a6016e243e63b6e8ee1178d6a717850b5d61035490565b6010546040805163a5d54f6560e01b815290516060926001600160a01b03169163a5d54f65916004808301926000929190829003018186803b158015612fe557600080fd5b505afa158015612ff9573d6000803e3d6000fd5b505050506040513d6000823e601f3d908101601f19168201604052602081101561302257600080fd5b8101908080516040519392919084600160201b82111561304157600080fd5b90830190602082018581111561305657600080fd5b82518660208202830111600160201b8211171561307257600080fd5b82525081516020918201928201910280838360005b8381101561309f578181015183820152602001613087565b505050509050016040525050509050600060155482511015806130c157508151155b6130d4576130cf8251612b51565b6130d8565b6015545b905080825111156135365781516010546040805163957950a760e01b815290516060926000926001600160a01b039091169163957950a7916004808201928692909190829003018186803b15801561312f57600080fd5b505afa158015613143573d6000803e3d6000fd5b505050506040513d6000823e601f3d908101601f19168201604090815281101561316c57600080fd5b8101908080516040519392919084600160201b82111561318b57600080fd5b9083019060208201858111156131a057600080fd5b82518660208202830111600160201b821117156131bc57600080fd5b82525081516020918201928201910280838360005b838110156131e95781810151838201526020016131d1565b505050509050016040526020018051906020019092919050505091509150606084604051908082528060200260200182016040528015613233578160200160208202803883390190505b5090506000805b88518110156133795760005b868110156133705789828151811061325a57fe5b60200260200101516001600160a01b031689828151811061327757fe5b60200260200101516001600160a01b031614156133685789828151811061329a57fe5b60200260200101518484815181106132ae57fe5b60200260200101906001600160a01b031690816001600160a01b03168152505082806001019350508581815181106132e257fe5b60200260200101518503945086806001900397505088878151811061330357fe5b602002602001015189828151811061331757fe5b60200260200101906001600160a01b031690816001600160a01b03168152505085878151811061334357fe5b602002602001015186828151811061335757fe5b602002602001018181525050613370565b600101613246565b5060010161323a565b50600c5460408051634191031360e11b815290516000926001600160a01b0316916383220626916004808301926020929190829003018186803b1580156133bf57600080fd5b505afa1580156133d3573d6000803e3d6000fd5b505050506040513d60208110156133e957600080fd5b50518551909150158015906133fe5750600084115b1561352b5760005b835181101561352157428218604051602001808281526020019150506040516020818303038152906040528051906020012060001c9150600061344a878785613e6c565b905089818151811061345857fe5b602002602001015185838151811061346c57fe5b60200260200101906001600160a01b031690816001600160a01b03168152505086818151811061349857fe5b6020026020010151860395508780600190039850508988815181106134b957fe5b60200260200101518a82815181106134cd57fe5b60200260200101906001600160a01b031690816001600160a01b0316815250508688815181106134f957fe5b602002602001015187828151811061350d57fe5b602090810291909101015250600101613406565b5061352b83613eb9565b50505050505061353f565b61353f82613eb9565b601154604051632f8ba4bf60e11b815260206004820190815260008054602484018190526001600160a01b0390941693635f17497e939192918291604490910190849080156135b757602002820191906000526020600020905b81546001600160a01b03168152600190910190602001808311613599575b505092505050600060405180830381600087803b1580156135d757600080fd5b505af11580156135eb573d6000803e3d6000fd5b50505050815160001461366157601060009054906101000a90046001600160a01b03166001600160a01b0316631555371c6040518163ffffffff1660e01b8152600401600060405180830381600087803b15801561364857600080fd5b505af115801561365c573d6000803e3d6000fd5b505050505b601060009054906101000a90046001600160a01b03166001600160a01b03166322e3d9866040518163ffffffff1660e01b815260040160206040518083038186803b1580156136af57600080fd5b505afa1580156136c3573d6000803e3d6000fd5b505050506040513d60208110156136d957600080fd5b505160408051636c9230db60e01b815290513091636c9230db916004808301926020929190829003018186803b15801561371257600080fd5b505afa158015613726573d6000803e3d6000fd5b505050506040513d602081101561373c57600080fd5b50511115612cc95760105460408051631171ecc360e11b815290516001600160a01b0390921691639e72c6359183916322e3d98691600480820192602092909190829003018186803b15801561379157600080fd5b505afa1580156137a5573d6000803e3d6000fd5b505050506040513d60208110156137bb57600080fd5b505160408051636c9230db60e01b815290513091636c9230db916004808301926020929190829003018186803b1580156137f457600080fd5b505afa158015613808573d6000803e3d6000fd5b505050506040513d602081101561381e57600080fd5b5051604080516001600160e01b031960e086901b16815292909103600483015251602480830192600092919082900301818387803b15801561385f57600080fd5b505af1158015613873573d6000803e3d6000fd5b50505050505050565b60025460005b818110156138d9576000600a60006002848154811061389d57fe5b6000918252602080832091909101546001600160a01b031683528201929092526040019020805460ff1916911515919091179055600101613882565b505060008054905b81811015613937576001600a60008084815481106138fb57fe5b6000918252602080832091909101546001600160a01b031683528201929092526040019020805460ff19169115159190911790556001016138e1565b60008054612cc991600291614307565b60606000808054806020026020016040519081016040528092919081815260200182805480156139a057602002820191906000526020600020905b81546001600160a01b03168152600190910190602001808311613982575b50505050509150600090505b8151811015613a01576000600960008484815181106139c757fe5b6020908102919091018101516001600160a01b03168252810191909152604001600020805460ff19169115159190911790556001016139ac565b60018054613a1191600091614307565b506000805480602002602001604051908101604052809291908181526020018280548015613a6857602002820191906000526020600020905b81546001600160a01b03168152600190910190602001808311613a4a575b50505050509150600090505b8151811015610abf576000828281518110613a8b57fe5b6020908102919091018101516001600160a01b03166000908152600982526040808220805460ff1916600190811790915560129093529020805482019055919091019050613a74565b613add81611780565b613ae657610f9a565b60105460408051630f29818d60e31b815290516000926001600160a01b03169163794c0c68916004808301926020929190829003018186803b158015613b2b57600080fd5b505afa158015613b3f573d6000803e3d6000fd5b505050506040513d6020811015613b5557600080fd5b50516001600160a01b0383166000908152600d6020908152604080832093835292815282822080546001908101909155600e909152919020805490910190555050565b600082613ba7575060006119c1565b82820282848281613bb457fe5b0414613bbf57600080fd5b9392505050565b600080613bd284611d37565b90506000613bde61412b565b6001600160a01b038616600090815260046020908152604080832080546001019055600582528083208490556007909152902085905590508115613c27576000925050506119c1565b6001600160a01b038581166000908152600660209081526040808320859055600f909152808220546010548251631dbe84a360e11b815291851660048301819052925192941692633b7d09469260248084019382900301818387803b158015613c8f57600080fd5b505af1158015613ca3573d6000803e3d6000fd5b50506000549150506001811415613cc15760009450505050506119c1565b60005b81811015613d8357876001600160a01b031660008281548110613ce357fe5b6000918252602090912001546001600160a01b03161415613d7b5760006001830381548110613d0e57fe5b600091825260208220015481546001600160a01b03909116919083908110613d3257fe5b6000918252602082200180546001600160a01b0319166001600160a01b039390931692909217909155805490613d6c906000198301614357565b506001955050505050506119c1565b600101613cc4565b506000979650505050505050565b60105460408051630f29818d60e31b815290516000926001600160a01b03169163794c0c68916004808301926020929190829003018186803b158015613dd657600080fd5b505afa158015613dea573d6000803e3d6000fd5b505050506040513d6020811015613e0057600080fd5b50516000818152600e60209081526040808320546001600160a01b0387168452600d835281842085855290925282208054929055919250808210613e58576000838152600e60205260409020805482900390556115c7565b50506000908152600e602052604081205550565b600080838381613e7857fe5b0690506000805b828211613eab57868181518110613e9257fe5b6020026020010151820191508080600101915050613e7f565b600019019695505050505050565b613ec5600160006142e9565b80516140b65760005b60005481101561405e576000808281548110613ee657fe5b60009182526020808320909101546001600160a01b03908116808452600f835260409384902054601054855163a711e6a160e01b81529184166004830181905295519296509092169263a711e6a19260248082019391829003018186803b158015613f5057600080fd5b505afa158015613f64573d6000803e3d6000fd5b505050506040513d6020811015613f7a57600080fd5b5051801561400457506010546040805162e9ab0360e81b81526001600160a01b038481166004830181905260248301529151919092169163e9ab0300916044808301926020929190829003018186803b158015613fd657600080fd5b505afa158015613fea573d6000803e3d6000fd5b505050506040513d602081101561400057600080fd5b5051155b15614054576001805480820182556000919091527fb10e2d527612073b26eecdfd717e6a320cf44b4afac2b0732d9fcbe2b7fa0cf60180546001600160a01b0319166001600160a01b0384161790555b5050600101613ece565b506001546140b15760016000808154811061407557fe5b60009182526020808320909101548354600181018555938352912090910180546001600160a01b0319166001600160a01b039092169190911790555b610f9a565b60005b8151811015610abf576001600b60008484815181106140d457fe5b6020908102919091018101516001600160a01b0390811683528282019390935260409091016000908120548454600181810187559583529290912090910180546001600160a01b03191691909216179055016140b9565b600080306001600160a01b0316636c9230db6040518163ffffffff1660e01b815260040160206040518083038186803b15801561416757600080fd5b505afa15801561417b573d6000803e3d6000fd5b505050506040513d602081101561419157600080fd5b505160105460408051631171ecc360e11b8152905192935060009261421c9285926001600160a01b03909116916322e3d98691600480820192602092909190829003018186803b1580156141e457600080fd5b505afa1580156141f8573d6000803e3d6000fd5b505050506040513d602081101561420e57600080fd5b50519063ffffffff6142c216565b90506142bb816142af601060009054906101000a90046001600160a01b03166001600160a01b0316634f9a8d8f6040518163ffffffff1660e01b815260040160206040518083038186803b15801561427357600080fd5b505afa158015614287573d6000803e3d6000fd5b505050506040513d602081101561429d57600080fd5b50518590600c0263ffffffff6142d716565b9063ffffffff6142d716565b9250505090565b6000828211156142d157600080fd5b50900390565b600082820183811015613bbf57600080fd5b5080546000825590600052602060002090810190610f9a9190614377565b8280548282559060005260206000209081019282156143475760005260206000209182015b8281111561434757825482559160010191906001019061432c565b50614353929150614391565b5090565b815481835581811115612cc957600083815260209020612cc99181019083015b610fc991905b80821115614353576000815560010161437d565b610fc991905b808211156143535780546001600160a01b031916815560010161439756fe4d696e696e67206164647265737320616c726561647920757365642061732061207374616b696e67206f6e655374616b696e67206164647265737320616c726561647920757365642061732061206d696e696e67206f6e654d696e696e67206164647265737320616c726561647920757365642061732061206d696e696e67206f6e6552616e646f6d20636f6e747261637420616464726573732063616e277420626520307830426c6f636b52657761726420636f6e747261637420616464726573732063616e27742062652030783056616c696461746f7253657420636f6e747261637420697320616c726561647920696e697469616c697a6564416e6e6f756e63696e6720617661696c6162696c697479206e6f7420706f737369626c656661696c6564206b65792067656e65726174696f6e2063616e206f6e6c792062652070726f63657373656420616674657220746865207374616b696e672065706f6368206973206f7665722e4d7573742070726f7669646520696e697469616c206d696e696e67206164647265737365734b657947656e486973746f727920636f6e747261637420616464726573732063616e2774206265203078304d7573742070726f76696465207468652073616d6520616d6f756e74206f66206d696e696e672f7374616b696e67206164647265737365735374616b696e6720636f6e747261637420616464726573732063616e27742062652030783056616c696461746f725365743a20496e697469616c697a6174696f6e206f6e6c79206f6e2067656e6573697320626c6f636b206f722062792061646d696e5f706f737369626c6556616c696461746f72436f756e74206d757374206e6f7420626520305374616b696e67206164647265737320616c726561647920757365642061732061207374616b696e67206f6e654d696e696e6720616464726573732063616e6e6f74206265207468652073616d6520617320746865207374616b696e67206f6e656f6e6c792061646d696e20697320616c6c6f77656420746f2063616c6c20746869732066756e6374696f6ea265627a7a72315820bae2dfc793cb8ba87caf78a9ac83c6615f61202254f75d9edfe2f91ab4f2334264736f6c63430005110032",
  "source": "pragma solidity ^0.5.16;\n\nimport \"./interfaces/IBlockRewardHbbft.sol\";\nimport \"./interfaces/IKeyGenHistory.sol\";\nimport \"./interfaces/IRandomHbbft.sol\";\nimport \"./interfaces/IStakingHbbft.sol\";\nimport \"./interfaces/IValidatorSetHbbft.sol\";\nimport \"./upgradeability/UpgradeableOwned.sol\";\nimport \"./libs/SafeMath.sol\";\n\n\n/// @dev Stores the current validator set and contains the logic for choosing new validators\n/// before each staking epoch. The logic uses a random seed generated and stored by the `RandomHbbft` contract.\ncontract ValidatorSetHbbft is UpgradeableOwned, IValidatorSetHbbft {\n    using SafeMath for uint256;\n\n    // =============================================== Storage ========================================================\n\n    // WARNING: since this contract is upgradeable, do not remove\n    // existing storage variables and do not change their types!\n    address[] internal _currentValidators;\n    address[] internal _pendingValidators;\n    address[] internal _previousValidators;\n\n    /// @dev Stores the validators that have reported the specific validator as malicious for the specified epoch.\n    mapping(address => mapping(uint256 => address[])) internal _maliceReportedForBlock;\n\n    /// @dev How many times a given mining address was banned.\n    mapping(address => uint256) public banCounter;\n\n    /// @dev Returns the time when the ban will be lifted for the specified mining address.\n    mapping(address => uint256) public bannedUntil;\n\n    /// @dev Returns the timestamp after which the ban will be lifted for delegators\n    /// of the specified pool (mining address).\n    mapping(address => uint256) public bannedDelegatorsUntil;\n\n    /// @dev The reason for the latest ban of the specified mining address. See the `_removeMaliciousValidator`\n    /// internal function description for the list of possible reasons.\n    mapping(address => bytes32) public banReason;\n\n    /// @dev The address of the `BlockRewardHbbft` contract.\n    address public blockRewardContract;\n\n    /// @dev A boolean flag indicating whether the specified mining address is in the current validator set.\n    /// See the `getValidators` getter.\n    mapping(address => bool) public isValidator;\n\n    /// @dev A boolean flag indicating whether the specified mining address was a validator in the previous set.\n    /// See the `getPreviousValidators` getter.\n    mapping(address => bool) public isValidatorPrevious;\n\n    /// @dev A mining address bound to a specified staking address.\n    /// See the `_setStakingAddress` internal function.\n    mapping(address => address) public miningByStakingAddress;\n\n    /// @dev The `RandomHbbft` contract address.\n    address public randomContract;\n\n    /// @dev The number of times the specified validator (mining address) reported misbehaviors during the specified\n    /// staking epoch. Used by the `reportMaliciousCallable` getter and `reportMalicious` function to determine\n    /// whether a validator reported too often.\n    mapping(address => mapping(uint256 => uint256)) public reportingCounter;\n\n    /// @dev How many times all validators reported misbehaviors during the specified staking epoch.\n    /// Used by the `reportMaliciousCallable` getter and `reportMalicious` function to determine\n    /// whether a validator reported too often.\n    mapping(uint256 => uint256) public reportingCounterTotal;\n\n    /// @dev A staking address bound to a specified mining address.\n    /// See the `_setStakingAddress` internal function.\n    mapping(address => address) public stakingByMiningAddress;\n\n    /// @dev The `StakingHbbft` contract address.\n    IStakingHbbft public stakingContract;\n\n    /// @dev The `KeyGenHistory` contract address.\n    IKeyGenHistory public keyGenHistoryContract;\n\n    /// @dev How many times the given mining address has become a validator.\n    mapping(address => uint256) public validatorCounter;\n\n    /// @dev Block Timestamp when a validator was successfully part of \n    mapping(address => uint256) public validatorLastSuccess;\n\n    /// @dev holds Availability information for each specific mining address\n    /// unavailability happens if a validator gets voted to become a pending validator,\n    /// but misses out the sending of the ACK or PART within the given timeframe.\n    /// validators are required to declare availability,\n    /// in order to become available for voting again.\n    /// the value is of type timestamp\n    mapping(address => uint256) public validatorAvailableSince;\n\n\n    /// @dev The max number of validators.\n    uint256 public maxValidators;\n\n    // ================================================ Events ========================================================\n\n    /// @dev Emitted by the `reportMalicious` function to signal that a specified validator reported\n    /// misbehavior by a specified malicious validator at a specified block number.\n    /// @param reportingValidator The mining address of the reporting validator.\n    /// @param maliciousValidator The mining address of the malicious validator.\n    /// @param blockNumber The block number at which the `maliciousValidator` misbehaved.\n    event ReportedMalicious(address reportingValidator, address maliciousValidator, uint256 blockNumber);\n\n    \n    event ValidatorAvailable(address validator, uint256 timestamp);\n\n    /// @dev Emitted by the `handleFailedKeyGeneration` function to signal that a specific validator was\n    /// marked as unavailable since he dit not contribute to the required key shares.\n    event ValidatorUnavailable(address validator, uint256 timestamp);\n\n    // ============================================== Modifiers =======================================================\n\n    /// @dev Ensures the `initialize` function was called before.\n    modifier onlyInitialized {\n        require(isInitialized(), \"ValidatorSet: not initialized\");\n        _;\n    }\n\n    /// @dev Ensures the caller is the BlockRewardHbbft contract address.\n    modifier onlyBlockRewardContract() {\n        require(msg.sender == blockRewardContract, \"Only BlockReward contract\");\n        _;\n    }\n\n    /// @dev Ensures the caller is the RandomHbbft contract address.\n    modifier onlyRandomContract() {\n        require(msg.sender == randomContract,\"Only Random Contract\");\n        _;\n    }\n\n    /// @dev Ensures the caller is the StakingHbbft contract address.\n    modifier onlyStakingContract() {\n        require(msg.sender == address(stakingContract),\"Only Staking Contract\");\n        _;\n    }\n\n    /// @dev Ensures the caller is the SYSTEM_ADDRESS. See https://wiki.parity.io/Validator-Set.html\n    modifier onlySystem() {\n        require(msg.sender == 0xffffFFFfFFffffffffffffffFfFFFfffFFFfFFfE, \"Only System\");\n        _;\n    }\n\n    /// @dev Returns the current timestamp.\n    function getCurrentTimestamp()\n    external\n    view\n    returns(uint256) {\n        return block.timestamp;\n    }\n\n    // function getInfo()\n    // public\n    // view \n    // returns (address sender, address admin) {\n    //     return (msg.sender, _admin());\n    // }\n\n    // =============================================== Setters ========================================================\n\n    /// @dev Initializes the network parameters. Used by the\n    /// constructor of the `InitializerHbbft` contract.\n    /// @param _blockRewardContract The address of the `BlockRewardHbbft` contract.\n    /// @param _randomContract The address of the `RandomHbbft` contract.\n    /// @param _stakingContract The address of the `StakingHbbft` contract.\n    /// @param _keyGenHistoryContract The address of the `KeyGenHistory` contract.\n    /// @param _initialMiningAddresses The array of initial validators' mining addresses.\n    /// @param _initialStakingAddresses The array of initial validators' staking addresses.\n    function initialize(\n        address _blockRewardContract,\n        address _randomContract,\n        address _stakingContract,\n        address _keyGenHistoryContract,\n        address[] calldata _initialMiningAddresses,\n        address[] calldata _initialStakingAddresses\n    ) external {\n        require(msg.sender == _admin() || tx.origin ==  _admin() \n            || address(0) ==  _admin() || block.number == 0, \n            \"ValidatorSet: Initialization only on genesis block or by admin\");\n        require(!isInitialized(), \"ValidatorSet contract is already initialized\");\n        require(_blockRewardContract != address(0), \"BlockReward contract address can't be 0x0\");\n        require(_randomContract != address(0), \"Random contract address can't be 0x0\");\n        require(_stakingContract != address(0), \"Staking contract address can't be 0x0\");\n        require(_keyGenHistoryContract != address(0), \"KeyGenHistory contract address can't be 0x0\");\n        require(_initialMiningAddresses.length > 0, \"Must provide initial mining addresses\");\n        require(_initialMiningAddresses.length == _initialStakingAddresses.length,\n            \"Must provide the same amount of mining/staking addresses\");\n\n        blockRewardContract = _blockRewardContract;\n        randomContract = _randomContract;\n        stakingContract = IStakingHbbft(_stakingContract);\n        keyGenHistoryContract = IKeyGenHistory(_keyGenHistoryContract);\n\n        // Add initial validators to the `_currentValidators` array\n        for (uint256 i = 0; i < _initialMiningAddresses.length; i++) {\n            address miningAddress = _initialMiningAddresses[i];\n            _currentValidators.push(miningAddress);\n            // _pendingValidators.push(miningAddress);\n            isValidator[miningAddress] = true;\n            validatorCounter[miningAddress]++;\n            _setStakingAddress(miningAddress, _initialStakingAddresses[i]);\n        }\n\n        maxValidators = 25;\n    }\n\n      /// @dev Called by the system when a pending validator set is ready to be activated.\n    /// Only valid when msg.sender == SUPER_USER (EIP96, 2**160 - 2).\n    /// After this function is called, the `getValidators` getter returns the new validator set.\n    /// If this function finalizes a new validator set formed by the `newValidatorSet` function,\n    /// an old validator set is also stored and can be read by the `getPreviousValidators` getter.\n    function finalizeChange()\n    external\n    onlyBlockRewardContract {\n\n        if (_pendingValidators.length != 0) {\n            // Apply a new validator set formed by the `newValidatorSet` function\n            _savePreviousValidators();\n            _finalizeNewValidators();\n        }\n\n        // new epoch starts\n        stakingContract.incrementStakingEpoch();\n        delete _pendingValidators;\n        stakingContract.setStakingEpochStartTime(this.getCurrentTimestamp());\n\n    }\n\n    /// @dev Implements the logic which forms a new validator set. If the number of active pools\n    /// is greater than maxValidators, the logic chooses the validators randomly using a random seed generated and\n    /// stored by the `RandomHbbft` contract.\n    /// Automatically called by the `BlockRewardHbbft.reward` function at the latest block of the staking epoch.\n    function newValidatorSet()\n    external\n    onlyBlockRewardContract {\n        _newValidatorSet(new address[](0));\n    }\n\n    /// @dev Removes malicious validators.\n    /// Called by the the Hbbft engine when a validator has been inactive for a long period.\n    /// @param _miningAddresses The mining addresses of the malicious validators.\n    function removeMaliciousValidators(address[] calldata _miningAddresses)\n    external\n    onlySystem {\n        _removeMaliciousValidators(_miningAddresses, \"inactive\");\n    }\n\n    /// @dev called by validators when a validator comes online after\n    /// getting marked as unavailable caused by a failed key generation.\n    function announceAvailability()\n    external {\n        require(canCallAnnounceAvailability(msg.sender), 'Announcing availability not possible');\n\n        uint timestamp = this.getCurrentTimestamp();\n        validatorAvailableSince[msg.sender] = timestamp;\n        emit ValidatorAvailable(msg.sender, timestamp);\n        // as long the mining node is not banned as well,\n        // it can be picked up as regular active node again.\n        if (!isValidatorBanned(msg.sender)) {\n            stakingContract.notifyAvailability(stakingByMiningAddress[msg.sender]);\n        }\n    }\n\n    /// @dev called by blockreward contract when a the reward when the block reward contract \n    /// came to the conclusion that the validators could not manage to create a new shared key together.\n    /// this starts the process to find replacements for the failing candites,\n    /// as well as marking them unavailable.\n    function handleFailedKeyGeneration()\n    external\n    onlyBlockRewardContract {\n\n\n        // we should only kick out nodes if the nodes have been really to late.\n\n        require(this.getCurrentTimestamp() >= stakingContract.stakingFixedEpochEndTime(),\n            \"failed key generation can only be processed after the staking epoch is over.\");\n\n        if (stakingContract.getPoolsToBeElected().length == 0) {\n            // if there is currently noone able to be elected, we just wait.\n            // probably this happens, until there is someone manages to make \n            // his pool available for staking again.\n            return;\n        }\n\n        if (_pendingValidators.length == 0) {\n            // if there are no \"pending validators\" that \n            // should write their keys, then there is\n            // nothing to do here.\n            return;\n        }\n\n        // check if the current epoch should have been ended already\n        // but some of the validators failed to write his PARTS / ACKS.\n\n        // there are 2 scenarious:\n        // 1.) missing Part: one or more validator was chosen, but never wrote his PART (most likely)\n        // 2.) missing ACK: all validators were able to write their parts, but one or more failed to write\n        // it's part.\n        //\n        // ad missing Part:\n        // in this case we can just replace the validator with another one,\n        // or if there is no other one available, continue with a smaller set.\n\n        // ad missing ACK:\n        // this case is more complex, since nodes did already write their acks for the parts\n        // of a node that now drops out.\n        // this should be a very rare case, and to make it simple, \n        // we can just start over with the random selection of validators again.\n\n        // temporary array to keep track of the good validators.\n        // not all storage slots might be used.\n        // we asume that there is at minimum 1 bad validator.\n        address[] memory goodValidators = new address[](_pendingValidators.length - 1);\n        uint goodValidatorsCount = 0;\n\n\n        (uint128 numberOfPartsWritten,uint128 numberOfAcksWritten)\n            = keyGenHistoryContract.getNumberOfKeyFragmentsWritten();\n        \n\n        //address[] memory badValidators = new address[];\n\n        for(uint i = 0; i < _pendingValidators.length; i++) {\n            \n            // get mining address for this pool.\n            // if the mining address did his job (writing PART or ACKS).\n            // add it to the good pool.\n            address miningAddress = _pendingValidators[i]; //miningByStakingAddress[];\n\n            // if a validator is good or bad, depends if he managed\n            // the write the information required for the current state.\n            bool isGood = false;\n\n            if (_pendingValidators.length > numberOfPartsWritten) {\n                // case 1: missing part scenario.\n                // pending validator that missed out writing their part ?\n                // maybe make a more precise length check in the future here ?\n                isGood =  keyGenHistoryContract.getPart(miningAddress).length > 0;\n            } else if (_pendingValidators.length > numberOfAcksWritten) {\n                // case 2: parts were written, but did this validator also write it's ACKS ??\n                // Note: we do not really need to check if the validator has written his part,\n                // since all validators managed to write it's part. \n                isGood = keyGenHistoryContract.getAcksLength(miningAddress) > 0;\n            }\n\n            if (isGood) {\n                // we track all good validators,\n                // so we can later pass the good validators\n                // to the _newValidatorSet function. \n                goodValidators[goodValidatorsCount] = _pendingValidators[i];\n                goodValidatorsCount++;\n            }\n            else {\n\n                // this Pool is not available anymore.\n                // the pool does not get a Ban,\n                // but is treated as \"inactive\" as long it does not `announceAvailability()`\n                \n                stakingContract.removePool(stakingByMiningAddress[miningAddress]);\n                // mark the Node address as not available.\n                validatorAvailableSince[miningAddress] = 0;\n                emit ValidatorUnavailable(miningAddress, this.getCurrentTimestamp());\n            }\n        }\n\n        keyGenHistoryContract.clearPrevKeyGenState(_pendingValidators);\n        // we might only set a subset to the newValidatorSet function,\n        // since the last indexes of the array are holding unused slots.\n        address[] memory forcedPools = new address[](goodValidatorsCount);\n        for (uint i = 0; i < goodValidatorsCount; i++) {\n            forcedPools[i] = goodValidators[i];\n        }\n\n        // this tells the staking contract that the key generation failed\n        // so the staking conract is able to prolong this staking period.\n        stakingContract.notifyKeyGenFailed();\n\n        // is there anyone left that can get elected ??\n        // if not, we just continue with the validator set we have now,\n        // for another round, \n        // hopefully that on or the other node operators get his pool fixed.\n        // the Deadline just stays a full time window.\n        // therefore the Node Operators might get a chance that\n        // many manage to fix the problem, \n        // and we can get a big takeover. \n        if (stakingContract.getPoolsToBeElected().length > 0) {\n            _newValidatorSet(forcedPools);\n        }\n    }\n\n    /// @dev Reports that the malicious validator misbehaved at the specified block.\n    /// Called by the node of each honest validator after the specified validator misbehaved.\n    /// See https://openethereum.github.io/Validator-Set.html#reporting-contract\n    /// Can only be called when the `reportMaliciousCallable` getter returns `true`.\n    /// @param _maliciousMiningAddress The mining address of the malicious validator.\n    /// @param _blockNumber The block number where the misbehavior was observed.\n    function reportMalicious(\n        address _maliciousMiningAddress,\n        uint256 _blockNumber,\n        bytes calldata\n    )\n    external\n    onlyInitialized {\n        address reportingMiningAddress = msg.sender;\n\n        _incrementReportingCounter(reportingMiningAddress);\n\n        (\n            bool callable,\n            bool removeReportingValidator\n        ) = reportMaliciousCallable(\n            reportingMiningAddress,\n            _maliciousMiningAddress,\n            _blockNumber\n        );\n\n        if (!callable) {\n            if (removeReportingValidator) {\n                // Reporting validator has been reporting too often, so\n                // treat them as a malicious as well (spam)\n                address[] memory miningAddresses = new address[](1);\n                miningAddresses[0] = reportingMiningAddress;\n                _removeMaliciousValidators(miningAddresses, \"spam\");\n            }\n            return;\n        }\n\n        address[] storage reportedValidators = _maliceReportedForBlock[_maliciousMiningAddress][_blockNumber];\n\n        reportedValidators.push(reportingMiningAddress);\n\n        emit ReportedMalicious(reportingMiningAddress, _maliciousMiningAddress, _blockNumber);\n\n        uint256 validatorsLength = _currentValidators.length;\n        bool remove;\n\n        if (validatorsLength > 3) {\n            // If more than 2/3 of validators reported about malicious validator\n            // for the same `blockNumber`\n            remove = reportedValidators.length.mul(3) > validatorsLength.mul(2);\n        } else {\n            // If more than 1/2 of validators reported about malicious validator\n            // for the same `blockNumber`\n            remove = reportedValidators.length.mul(2) > validatorsLength;\n        }\n\n        if (remove) {\n            address[] memory miningAddresses = new address[](1);\n            miningAddresses[0] = _maliciousMiningAddress;\n            _removeMaliciousValidators(miningAddresses, \"malicious\");\n        }\n    }\n\n    /// @dev Binds a mining address to the specified staking address. Called by the `StakingHbbft.addPool` function\n    /// when a user wants to become a candidate and creates a pool.\n    /// See also the `miningByStakingAddress` and `stakingByMiningAddress` public mappings.\n    /// @param _miningAddress The mining address of the newly created pool. Cannot be equal to the `_stakingAddress`\n    /// and should never be used as a pool before.\n    /// @param _stakingAddress The staking address of the newly created pool. Cannot be equal to the `_miningAddress`\n    /// and should never be used as a pool before.\n    function setStakingAddress(address _miningAddress, address _stakingAddress)\n    external\n    onlyStakingContract {\n        _setStakingAddress(_miningAddress, _stakingAddress);\n    }\n\n    function setMaxValidators(uint256 _maxValidators)\n    external\n    onlyOwner {\n        maxValidators = _maxValidators;\n    }\n\n    // =============================================== Getters ========================================================\n\n    /// @dev Returns a boolean flag indicating whether delegators of the specified pool are currently banned.\n    /// A validator pool can be banned when they misbehave (see the `_removeMaliciousValidator` function).\n    /// @param _miningAddress The mining address of the pool.\n    function areDelegatorsBanned(address _miningAddress)\n    public\n    view\n    returns(bool) {\n        return this.getCurrentTimestamp() <= bannedDelegatorsUntil[_miningAddress];\n    }\n\n    /// @dev Returns the previous validator set (validators' mining addresses array).\n    /// The array is stored by the `finalizeChange` function\n    /// when a new staking epoch's validator set is finalized.\n    function getPreviousValidators()\n    public\n    view\n    returns(address[] memory) {\n        return _previousValidators;\n    }\n\n    /// @dev Returns the current array of pending validators i.e. waiting to be activated in the new epoch\n    /// The pending array is changed when a validator is removed as malicious\n    /// or the validator set is updated by the `newValidatorSet` function.\n    function getPendingValidators()\n    public\n    view\n    returns(address[] memory) {\n        return _pendingValidators;\n    }\n\n    /// @dev Returns the current validator set (an array of mining addresses)\n    /// which always matches the validator set kept in validator's node.\n    function getValidators()\n    public\n    view\n    returns(address[] memory) {\n        return _currentValidators;\n    }\n\n    /// @dev Returns a boolean flag indicating if the `initialize` function has been called.\n    function isInitialized() public view returns(bool) {\n        return blockRewardContract != address(0);\n    }\n\n    /// @dev Returns a boolean flag indicating whether the specified validator (mining address)\n    /// is able to call the `reportMalicious` function or whether the specified validator (mining address)\n    /// can be reported as malicious. This function also allows a validator to call the `reportMalicious`\n    /// function several blocks after ceasing to be a validator. This is possible if a\n    /// validator did not have the opportunity to call the `reportMalicious` function prior to the\n    /// engine calling the `finalizeChange` function.\n    /// @param _miningAddress The validator's mining address.\n    function isReportValidatorValid(address _miningAddress) public view returns(bool) {\n        bool isValid = isValidator[_miningAddress] && !isValidatorBanned(_miningAddress);\n        if (stakingContract.stakingEpoch() == 0) {\n            return isValid;\n        }\n        // TO DO: arbitrarily chosen period stakingFixedEpochDuration/5.\n        if (this.getCurrentTimestamp() - stakingContract.stakingEpochStartTime() \n            <= stakingContract.stakingFixedEpochDuration()/5) {\n            // The current validator set was finalized by the engine,\n            // but we should let the previous validators finish\n            // reporting malicious validator within a few blocks\n            bool previousValidator = isValidatorPrevious[_miningAddress];\n            return isValid || previousValidator;\n        }\n        return isValid;\n    }\n\n    function getPendingValidatorKeyGenerationMode(address _miningAddress)\n    public\n    view\n    returns(KeyGenMode) {\n\n        // enum KeyGenMode { NotAPendingValidator, WritePart, WaitForOtherParts, \n        // WriteAck, WaitForOtherAcks, AllKeysDone }\n\n        if (!isPendingValidator(_miningAddress)) {\n            return KeyGenMode.NotAPendingValidator;\n        }\n\n        // since we got a part, maybe to validator is about to write his ack ?\n        // he is allowed to write his ack, if all nodes have written their part.\n\n        (uint128 numberOfPartsWritten, uint128 numberOfAcksWritten) \n            = keyGenHistoryContract.getNumberOfKeyFragmentsWritten();\n\n        if (numberOfPartsWritten < _pendingValidators.length) {\n\n            bytes memory part = keyGenHistoryContract.getPart(_miningAddress);\n            if (part.length == 0) {\n                // we know here that the validator is pending, \n                // but dit not have written the part yet.\n                // so he is allowed to write it's part.\n                return KeyGenMode.WritePart;\n            }\n            else {\n                // this mining address has written their part.\n                return KeyGenMode.WaitForOtherParts;\n            }\n\n        } else if (numberOfAcksWritten < _pendingValidators.length) {\n\n            // not all Acks Written, so the key is not complete.\n            // we know know that all Nodes have written their PART.\n            // but not all have written their ACK.\n            // are we the one who has written his ACK.\n\n            if (keyGenHistoryContract.getAcksLength(_miningAddress) == 0) {\n                return KeyGenMode.WriteAck;\n            }\n            else {\n                return KeyGenMode.WaitForOtherAcks;\n            }\n\n        } else {\n            return KeyGenMode.AllKeysDone;\n        }\n    }\n\n\n    /// @dev Returns a boolean flag indicating whether the specified mining address is currently banned.\n    /// A validator can be banned when they misbehave (see the `_removeMaliciousValidator` internal function).\n    /// @param _miningAddress The mining address.\n    function isValidatorBanned(address _miningAddress) public view returns(bool) {\n        return this.getCurrentTimestamp() <= bannedUntil[_miningAddress];\n    }\n\n    /// @dev Returns a boolean flag indicating whether the specified mining address is a validator\n    /// or is in the `_pendingValidators`.\n    /// Used by the `StakingHbbft.maxWithdrawAllowed` and `StakingHbbft.maxWithdrawOrderAllowed` getters.\n    /// @param _miningAddress The mining address.\n    function isValidatorOrPending(address _miningAddress)\n    public\n    view\n    returns(bool) {\n        if (isValidator[_miningAddress]) {\n            return true;\n        }\n\n        return isPendingValidator(_miningAddress);\n    }\n\n    /// @dev Returns a boolean flag indicating whether the specified mining address is a pending validator.\n    /// Used by the `isValidatorOrPending` and `KeyGenHistory.writeAck/Part` functions.\n    /// @param _miningAddress The mining address.\n    function isPendingValidator(address _miningAddress)\n    public\n    view\n    returns(bool) {\n\n        for (uint256 i = 0; i < _pendingValidators.length; i++) {\n            if (_miningAddress == _pendingValidators[i]) {\n                return true;\n            }\n        }\n\n        return false;\n    }\n\n    /// @dev Returns an array of the validators (their mining addresses) which reported that the specified malicious\n    /// validator misbehaved at the specified block.\n    /// @param _miningAddress The mining address of malicious validator.\n    /// @param _blockNumber The block number.\n    function maliceReportedForBlock(address _miningAddress, uint256 _blockNumber)\n    public\n    view\n    returns(address[] memory) {\n        return _maliceReportedForBlock[_miningAddress][_blockNumber];\n    }\n\n\n    /// @dev Returns if the specified _miningAddress is able to announce availability.\n    /// @param _miningAddress mining address that is allowed/disallowed.\n    function canCallAnnounceAvailability(address _miningAddress)\n    public\n    view\n    returns(bool) {\n\n        if (stakingByMiningAddress[_miningAddress] == address(0)) {\n            // not a validator node.\n            return false;\n        }\n\n        if (validatorAvailableSince[_miningAddress] != 0) {\n             // \"Validator was not marked as unavailable.\"\n            return false;\n        }\n\n        return true;\n    }\n\n\n    /// @dev Returns whether the `reportMalicious` function can be called by the specified validator with the\n    /// given parameters. Used by the `reportMalicious` function and `TxPermission` contract. Also, returns\n    /// a boolean flag indicating whether the reporting validator should be removed as malicious due to\n    /// excessive reporting during the current staking epoch.\n    /// @param _reportingMiningAddress The mining address of the reporting validator which is calling\n    /// the `reportMalicious` function.\n    /// @param _maliciousMiningAddress The mining address of the malicious validator which is passed to\n    /// the `reportMalicious` function.\n    /// @param _blockNumber The block number which is passed to the `reportMalicious` function.\n    /// @return `bool callable` - The boolean flag indicating whether the `reportMalicious` function can be called at\n    /// the moment. `bool removeReportingValidator` - The boolean flag indicating whether the reporting validator\n    /// should be removed as malicious due to excessive reporting. This flag is only used by the `reportMalicious`\n    /// function.\n    function reportMaliciousCallable(\n        address _reportingMiningAddress,\n        address _maliciousMiningAddress,\n        uint256 _blockNumber\n    )\n    public\n    view\n    returns(bool callable, bool removeReportingValidator) {\n        if (!isReportValidatorValid(_reportingMiningAddress)) return (false, false);\n        if (!isReportValidatorValid(_maliciousMiningAddress)) return (false, false);\n\n        uint256 validatorsNumber = _currentValidators.length;\n\n        if (validatorsNumber > 1) {\n            uint256 currentStakingEpoch = stakingContract.stakingEpoch();\n            uint256 reportsNumber = reportingCounter[_reportingMiningAddress][currentStakingEpoch];\n            uint256 reportsTotalNumber = reportingCounterTotal[currentStakingEpoch];\n            uint256 averageReportsNumber = 0;\n\n            if (reportsTotalNumber >= reportsNumber) {\n                averageReportsNumber = (reportsTotalNumber - reportsNumber) / (validatorsNumber - 1);\n            }\n\n            if (reportsNumber > validatorsNumber * 50 && reportsNumber > averageReportsNumber * 10) {\n                return (false, true);\n            }\n        }\n\n        uint256 currentBlock = block.number; // TODO: _getCurrentBlockNumber(); Make it time based here ?\n\n        if (_blockNumber > currentBlock) return (false, false); // avoid reporting about future blocks\n\n        uint256 ancientBlocksLimit = 100; //TODO: needs to be afjusted for HBBFT specifications i.e. time\n        if (currentBlock > ancientBlocksLimit && _blockNumber < currentBlock - ancientBlocksLimit) {\n            return (false, false); // avoid reporting about ancient blocks\n        }\n\n        address[] storage reportedValidators = _maliceReportedForBlock[_maliciousMiningAddress][_blockNumber];\n\n        // Don't allow reporting validator to report about the same misbehavior more than once\n        uint256 length = reportedValidators.length;\n        for (uint256 m = 0; m < length; m++) {\n            if (reportedValidators[m] == _reportingMiningAddress) {\n                return (false, false);\n            }\n        }\n\n        return (true, false);\n    }\n\n    /// @dev Returns the public key for the given stakingAddress\n    /// @param _stakingAddress staking address of the wanted public key.\n    /// @return public key of the _stakingAddress\n    function publicKeyByStakingAddress(address _stakingAddress) external view returns(bytes memory) {\n        return stakingContract.getPoolPublicKey(_stakingAddress);\n    }\n\n    /// @dev Returns the public key for the given miningAddress\n    /// @param _miningAddress mining address of the wanted public key.\n    /// @return public key of the _miningAddress\n    function getPublicKey(address _miningAddress) external view returns(bytes memory) {\n        return stakingContract.getPoolPublicKey(stakingByMiningAddress[_miningAddress]);\n    }\n\n    /// @dev in Hbbft there are sweet spots for the choice of validator counts\n    /// those are FLOOR((n - 1)/3) * 3 + 1\n    /// values: 1 - 4 - 7 - 10 - 13 - 16 - 19 - 22 - 25\n    /// more about: https://github.com/DMDcoin/hbbft-posdao-contracts/issues/84\n    /// @return a sweet spot n for a given number n\n    function getValidatorCountSweetSpot(uint256 _possibleValidatorCount)\n    public\n    view\n    returns(uint256) {\n        require(_possibleValidatorCount > 0, \"_possibleValidatorCount must not be 0\");\n        if (_possibleValidatorCount < 4) {\n            return _possibleValidatorCount;\n        }\n        return ((_possibleValidatorCount - 1) / 3) * 3 + 1;\n    }\n\n    // ============================================== Internal ========================================================\n\n    /// @dev Updates the total reporting counter (see the `reportingCounterTotal` public mapping) for the current\n    /// staking epoch after the specified validator is removed as malicious. The `reportMaliciousCallable` getter\n    /// uses this counter for reporting checks so it must be up-to-date. Called by the `_removeMaliciousValidators`\n    /// internal function.\n    /// @param _miningAddress The mining address of the removed malicious validator.\n    function _clearReportingCounter(address _miningAddress)\n    internal {\n        uint256 currentStakingEpoch = stakingContract.stakingEpoch();\n        uint256 total = reportingCounterTotal[currentStakingEpoch];\n        uint256 counter = reportingCounter[_miningAddress][currentStakingEpoch];\n\n        reportingCounter[_miningAddress][currentStakingEpoch] = 0;\n\n        if (total >= counter) {\n            reportingCounterTotal[currentStakingEpoch] -= counter;\n        } else {\n            reportingCounterTotal[currentStakingEpoch] = 0;\n        }\n    }\n    \n    function _newValidatorSet(address[] memory _forcedPools)\n    internal\n    {\n        address[] memory poolsToBeElected = stakingContract.getPoolsToBeElected();\n\n        uint256 numOfValidatorsToBeElected = \n            poolsToBeElected.length >= maxValidators || poolsToBeElected.length == 0 ? maxValidators : \n            getValidatorCountSweetSpot(poolsToBeElected.length); \n\n        // Choose new validators > )\n        if (poolsToBeElected.length > numOfValidatorsToBeElected) {\n\n            uint256 poolsToBeElectedLength = poolsToBeElected.length;\n            (uint256[] memory likelihood, uint256 likelihoodSum) = stakingContract.getPoolsLikelihood();\n            address[] memory newValidators = new address[](numOfValidatorsToBeElected);\n\n            uint256 indexNewValidator = 0;\n            for(uint256 iForced = 0; iForced < _forcedPools.length; iForced++) {\n                for(uint256 iPoolToBeElected = 0; iPoolToBeElected < poolsToBeElectedLength; iPoolToBeElected++) {\n                    if (poolsToBeElected[iPoolToBeElected] == _forcedPools[iForced]) {\n                        newValidators[indexNewValidator] = _forcedPools[iForced];\n                        indexNewValidator++;\n                        likelihoodSum -= likelihood[iPoolToBeElected];\n                        // kicking out this pools from the \"to be elected\" list,\n                        // by replacing it with the last element,\n                        // and virtually reducing it's size. \n                        poolsToBeElectedLength--;\n                        poolsToBeElected[iPoolToBeElected] = poolsToBeElected[poolsToBeElectedLength];\n                        likelihood[iPoolToBeElected] = likelihood[poolsToBeElectedLength];\n                        break;\n                    }\n                }\n            }\n\n            uint256 randomNumber = IRandomHbbft(randomContract).currentSeed();\n\n            if (likelihood.length > 0 && likelihoodSum > 0) {\n                for (uint256 i = 0; i < newValidators.length; i++) {\n                    randomNumber = uint256(keccak256(abi.encode(randomNumber ^ block.timestamp)));\n                    uint256 randomPoolIndex = _getRandomIndex(likelihood, likelihoodSum, randomNumber);\n                    newValidators[i] = poolsToBeElected[randomPoolIndex];\n                    likelihoodSum -= likelihood[randomPoolIndex];\n                    poolsToBeElectedLength--;\n                    poolsToBeElected[randomPoolIndex] = poolsToBeElected[poolsToBeElectedLength];\n                    likelihood[randomPoolIndex] = likelihood[poolsToBeElectedLength];\n                }\n\n                _setPendingValidators(newValidators);\n            }\n        } else {\n            //note: it is assumed here that _forcedPools is always a subset of poolsToBeElected.\n            // a forcedPool can never get picked up if it is not part of the poolsToBeElected.\n            // the logic needs to be that consistent.\n            _setPendingValidators(poolsToBeElected);\n        }\n        \n        // clear previousValidator KeyGenHistory state\n        keyGenHistoryContract.clearPrevKeyGenState(_currentValidators);\n\n        if (poolsToBeElected.length != 0) {\n            // Remove pools marked as `to be removed`\n            stakingContract.removePools();\n        }\n\n        // a new validator set can get choosen already outside the timeframe for phase 2.\n        // this can happen if the network got stuck and get's repaired.\n        // and the repair takes longer than a single epoch.\n        // we detect this case here and grant an extra time window\n        // so the selected nodes also get their chance to write their keys.\n        // more about: https://github.com/DMDcoin/hbbft-posdao-contracts/issues/96\n\n        // timescale:\n        // epoch start time ..... phase 2 transition .... current end of phase 2 ..... now ..... new end of phase 2.\n        \n        // new extra window size has to cover the difference between phase2 transition and now.\n        // to reach the new end of phase 2.\n\n        // current end of phase 2 : stakingContract.stakingFixedEpochEndTime()\n\n        // now: validatorSetContract.getCurrentTimestamp();\n\n        if (this.getCurrentTimestamp() > stakingContract.stakingFixedEpochEndTime()) {\n            stakingContract.notifyNetworkOfftimeDetected(this.getCurrentTimestamp()\n                - stakingContract.stakingFixedEpochEndTime());\n        }\n\n    }\n\n    /// @dev Sets a new validator set stored in `_pendingValidators` array.\n    /// Called by the `finalizeChange` function.\n    function _finalizeNewValidators()\n    internal {\n        address[] memory validators;\n        uint256 i;\n\n        validators = _currentValidators;\n        for (i = 0; i < validators.length; i++) {\n            isValidator[validators[i]] = false;\n        }\n\n        _currentValidators = _pendingValidators;\n\n        validators = _currentValidators;\n        for (i = 0; i < validators.length; i++) {\n            address miningAddress = validators[i];\n            isValidator[miningAddress] = true;\n            validatorCounter[miningAddress]++;\n        }\n    }\n\n    /// @dev Increments the reporting counter for the specified validator and the current staking epoch.\n    /// See the `reportingCounter` and `reportingCounterTotal` public mappings. Called by the `reportMalicious`\n    /// function when the validator reports a misbehavior.\n    /// @param _reportingMiningAddress The mining address of reporting validator.\n    function _incrementReportingCounter(address _reportingMiningAddress)\n    internal {\n        if (!isReportValidatorValid(_reportingMiningAddress)) return;\n        uint256 currentStakingEpoch = stakingContract.stakingEpoch();\n        reportingCounter[_reportingMiningAddress][currentStakingEpoch]++;\n        reportingCounterTotal[currentStakingEpoch]++;\n    }\n\n    /// @dev Removes the specified validator as malicious. Used by the `_removeMaliciousValidators` internal function.\n    /// @param _miningAddress The removed validator mining address.\n    /// @param _reason A short string of the reason why the mining address is treated as malicious:\n    /// \"inactive\" - the validator has not been contributing to block creation for sigificant period of time.\n    /// \"spam\" - the validator made a lot of `reportMalicious` callings compared with other validators.\n    /// \"malicious\" - the validator was reported as malicious by other validators with the `reportMalicious` function.\n    /// @return Returns `true` if the specified validator has been removed from the pending validator set.\n    /// Otherwise returns `false` (if the specified validator has already been removed or cannot be removed).\n    function _removeMaliciousValidator(address _miningAddress, bytes32 _reason)\n    internal\n    returns(bool) {\n\n        bool isBanned = isValidatorBanned(_miningAddress);\n        // Ban the malicious validator for at least the next 12 staking epochs\n        uint256 banUntil = _banUntil();\n\n        banCounter[_miningAddress]++;\n        bannedUntil[_miningAddress] = banUntil;\n        banReason[_miningAddress] = _reason;\n\n        if (isBanned) {\n            // The validator is already banned\n            return false;\n        } else {\n            bannedDelegatorsUntil[_miningAddress] = banUntil;\n        }\n\n        // Remove malicious validator from the `pools`\n        address stakingAddress = stakingByMiningAddress[_miningAddress];\n        stakingContract.removePool(stakingAddress);\n\n        // If the validator set has only one validator, don't remove it.\n        uint256 length = _currentValidators.length;\n        if (length == 1) {\n            return false;\n        }\n\n        for (uint256 i = 0; i < length; i++) {\n            if (_currentValidators[i] == _miningAddress) {\n                // Remove the malicious validator from `_pendingValidators`\n                _currentValidators[i] = _currentValidators[length - 1];\n                _currentValidators.length--;\n                return true;\n            }\n        }\n\n        return false;\n    }\n\n    /// @dev Removes the specified validators as malicious from the pending validator set. Does nothing if\n    /// the specified validators are already banned or don't exist in the pending validator set.\n    /// @param _miningAddresses The mining addresses of the malicious validators.\n    /// @param _reason A short string of the reason why the mining addresses are treated as malicious,\n    /// see the `_removeMaliciousValidator` internal function description for possible values.\n    function _removeMaliciousValidators(address[] memory _miningAddresses, bytes32 _reason) internal {\n        for (uint256 i = 0; i < _miningAddresses.length; i++) {\n            if (_removeMaliciousValidator(_miningAddresses[i], _reason)) {\n                // From this moment `getPendingValidators()` returns the new validator set\n                _clearReportingCounter(_miningAddresses[i]);\n            }\n        }\n    }\n\n    /// @dev Stores previous validators. Used by the `finalizeChange` function.\n    function _savePreviousValidators() internal {\n        uint256 length;\n        uint256 i;\n\n        // Save the previous validator set\n        length = _previousValidators.length;\n        for (i = 0; i < length; i++) {\n            isValidatorPrevious[_previousValidators[i]] = false;\n        }\n        length = _currentValidators.length;\n        for (i = 0; i < length; i++) {\n            isValidatorPrevious[_currentValidators[i]] = true;\n        }\n        _previousValidators = _currentValidators;\n    }\n\n    /// @dev Sets a new validator set as a pending.\n    /// Called by the `newValidatorSet` function.\n    /// @param _stakingAddresses The array of the new validators' staking addresses.\n    function _setPendingValidators(\n        address[] memory _stakingAddresses\n    ) internal {\n\n        // clear  the pending validators list first\n        delete _pendingValidators;\n\n        if (_stakingAddresses.length == 0) {\n            // If there are no `poolsToBeElected`, we remove the\n            // validators which want to exit from the validator set\n            for (uint256 i = 0; i < _currentValidators.length; i++) {\n                address pvMiningAddress = _currentValidators[i];\n                address pvStakingAddress = stakingByMiningAddress[pvMiningAddress];\n                if (\n                    stakingContract.isPoolActive(pvStakingAddress) &&\n                    stakingContract.orderedWithdrawAmount(pvStakingAddress, pvStakingAddress) == 0\n                ) {\n                    // The validator has an active pool and is not going to withdraw their\n                    // entire stake, so this validator doesn't want to exit from the validator set\n                    _pendingValidators.push(pvMiningAddress);\n                }   \n            }\n            if (_pendingValidators.length == 0) {\n                _pendingValidators.push(_currentValidators[0]); // add at least on validator\n            }\n        } else {\n            \n            for (uint256 i = 0; i < _stakingAddresses.length; i++) {\n                _pendingValidators.push(miningByStakingAddress[_stakingAddresses[i]]);\n            }\n        }\n    }\n\n    /// @dev Binds a mining address to the specified staking address. Used by the `setStakingAddress` function.\n    /// See also the `miningByStakingAddress` and `stakingByMiningAddress` public mappings.\n    /// @param _miningAddress The mining address of the newly created pool. Cannot be equal to the `_stakingAddress`\n    /// and should never be used as a pool before.\n    /// @param _stakingAddress The staking address of the newly created pool. Cannot be equal to the `_miningAddress`\n    /// and should never be used as a pool before.\n    function _setStakingAddress(address _miningAddress, address _stakingAddress) internal {\n        require(_miningAddress != address(0), \"Mining address can't be 0\");\n        require(_stakingAddress != address(0), \"Staking address can't be 0\");\n        require(_miningAddress != _stakingAddress, \"Mining address cannot be the same as the staking one\");\n        require(miningByStakingAddress[_stakingAddress] == address(0), \"Staking address already used as a staking one\");\n        require(miningByStakingAddress[_miningAddress] == address(0), \"Mining address already used as a staking one\");\n        require(stakingByMiningAddress[_stakingAddress] == address(0), \"Staking address already used as a mining one\");\n        require(stakingByMiningAddress[_miningAddress] == address(0), \"Mining address already used as a mining one\");\n        miningByStakingAddress[_stakingAddress] = _miningAddress;\n        stakingByMiningAddress[_miningAddress] = _stakingAddress;\n    }\n\n    /// @dev Returns the future timestamp until which a validator is banned.\n    /// Used by the `_removeMaliciousValidator` internal function.\n    function _banUntil() internal view returns(uint256) {\n        uint256 currentTimestamp = this.getCurrentTimestamp();\n        uint256 ticksUntilEnd = stakingContract.stakingFixedEpochEndTime().sub(currentTimestamp);\n        // Ban for at least 12 full staking epochs: \n        // currentTimestampt + stakingFixedEpochDuration + remainingEpochDuration. \n        return currentTimestamp.add(12 * stakingContract.stakingFixedEpochDuration()).add(ticksUntilEnd);\n    }\n\n    /// @dev Returns an index of a pool in the `poolsToBeElected` array\n    /// (see the `StakingHbbft.getPoolsToBeElected` public getter)\n    /// by a random number and the corresponding probability coefficients.\n    /// Used by the `newValidatorSet` function.\n    /// @param _likelihood An array of probability coefficients.\n    /// @param _likelihoodSum A sum of probability coefficients.\n    /// @param _randomNumber A random number.\n    function _getRandomIndex(uint256[] memory _likelihood, uint256 _likelihoodSum, uint256 _randomNumber)\n        internal\n        pure\n        returns(uint256)\n    {\n        uint256 random = _randomNumber % _likelihoodSum;\n        uint256 sum = 0;\n        uint256 index = 0;\n        while (sum <= random) {\n            sum += _likelihood[index];\n            index++;\n        }\n        return index - 1;\n    }\n}\n",
  "sourcePath": "/home/sn/dmd/dmd-meta/hbbft-posdao-contracts/contracts/ValidatorSetHbbft.sol",
  "compiler": {
    "name": "solc",
    "version": "0.5.17+commit.d19bba13.Emscripten.clang"
  },
  "schemaVersion": "3.3.1",
  "updatedAt": "2021-09-02T22:15:28.008Z",
  "devdoc": {
    "details": "Stores the current validator set and contains the logic for choosing new validators before each staking epoch. The logic uses a random seed generated and stored by the `RandomHbbft` contract.",
    "methods": {
      "announceAvailability()": {
        "details": "called by validators when a validator comes online after getting marked as unavailable caused by a failed key generation."
      },
      "areDelegatorsBanned(address)": {
        "details": "Returns a boolean flag indicating whether delegators of the specified pool are currently banned. A validator pool can be banned when they misbehave (see the `_removeMaliciousValidator` function).",
        "params": {
          "_miningAddress": "The mining address of the pool."
        }
      },
      "canCallAnnounceAvailability(address)": {
        "details": "Returns if the specified _miningAddress is able to announce availability.",
        "params": {
          "_miningAddress": "mining address that is allowed/disallowed."
        }
      },
      "finalizeChange()": {
        "details": "Called by the system when a pending validator set is ready to be activated. Only valid when msg.sender == SUPER_USER (EIP96, 2**160 - 2). After this function is called, the `getValidators` getter returns the new validator set. If this function finalizes a new validator set formed by the `newValidatorSet` function, an old validator set is also stored and can be read by the `getPreviousValidators` getter."
      },
      "getCurrentTimestamp()": {
        "details": "Returns the current timestamp."
      },
      "getPendingValidators()": {
        "details": "Returns the current array of pending validators i.e. waiting to be activated in the new epoch The pending array is changed when a validator is removed as malicious or the validator set is updated by the `newValidatorSet` function."
      },
      "getPreviousValidators()": {
        "details": "Returns the previous validator set (validators' mining addresses array). The array is stored by the `finalizeChange` function when a new staking epoch's validator set is finalized."
      },
      "getPublicKey(address)": {
        "details": "Returns the public key for the given miningAddress",
        "params": {
          "_miningAddress": "mining address of the wanted public key."
        },
        "return": "public key of the _miningAddress"
      },
      "getValidatorCountSweetSpot(uint256)": {
        "details": "in Hbbft there are sweet spots for the choice of validator counts those are FLOOR((n - 1)/3) * 3 + 1 values: 1 - 4 - 7 - 10 - 13 - 16 - 19 - 22 - 25 more about: https://github.com/DMDcoin/hbbft-posdao-contracts/issues/84",
        "return": "a sweet spot n for a given number n"
      },
      "getValidators()": {
        "details": "Returns the current validator set (an array of mining addresses) which always matches the validator set kept in validator's node."
      },
      "handleFailedKeyGeneration()": {
        "details": "called by blockreward contract when a the reward when the block reward contract  came to the conclusion that the validators could not manage to create a new shared key together. this starts the process to find replacements for the failing candites, as well as marking them unavailable."
      },
      "initialize(address,address,address,address,address[],address[])": {
        "details": "Initializes the network parameters. Used by the constructor of the `InitializerHbbft` contract.",
        "params": {
          "_blockRewardContract": "The address of the `BlockRewardHbbft` contract.",
          "_initialMiningAddresses": "The array of initial validators' mining addresses.",
          "_initialStakingAddresses": "The array of initial validators' staking addresses.",
          "_keyGenHistoryContract": "The address of the `KeyGenHistory` contract.",
          "_randomContract": "The address of the `RandomHbbft` contract.",
          "_stakingContract": "The address of the `StakingHbbft` contract."
        }
      },
      "isInitialized()": {
        "details": "Returns a boolean flag indicating if the `initialize` function has been called."
      },
      "isPendingValidator(address)": {
        "details": "Returns a boolean flag indicating whether the specified mining address is a pending validator. Used by the `isValidatorOrPending` and `KeyGenHistory.writeAck/Part` functions.",
        "params": {
          "_miningAddress": "The mining address."
        }
      },
      "isReportValidatorValid(address)": {
        "details": "Returns a boolean flag indicating whether the specified validator (mining address) is able to call the `reportMalicious` function or whether the specified validator (mining address) can be reported as malicious. This function also allows a validator to call the `reportMalicious` function several blocks after ceasing to be a validator. This is possible if a validator did not have the opportunity to call the `reportMalicious` function prior to the engine calling the `finalizeChange` function.",
        "params": {
          "_miningAddress": "The validator's mining address."
        }
      },
      "isValidatorBanned(address)": {
        "details": "Returns a boolean flag indicating whether the specified mining address is currently banned. A validator can be banned when they misbehave (see the `_removeMaliciousValidator` internal function).",
        "params": {
          "_miningAddress": "The mining address."
        }
      },
      "isValidatorOrPending(address)": {
        "details": "Returns a boolean flag indicating whether the specified mining address is a validator or is in the `_pendingValidators`. Used by the `StakingHbbft.maxWithdrawAllowed` and `StakingHbbft.maxWithdrawOrderAllowed` getters.",
        "params": {
          "_miningAddress": "The mining address."
        }
      },
      "maliceReportedForBlock(address,uint256)": {
        "details": "Returns an array of the validators (their mining addresses) which reported that the specified malicious validator misbehaved at the specified block.",
        "params": {
          "_blockNumber": "The block number.",
          "_miningAddress": "The mining address of malicious validator."
        }
      },
      "newValidatorSet()": {
        "details": "Implements the logic which forms a new validator set. If the number of active pools is greater than maxValidators, the logic chooses the validators randomly using a random seed generated and stored by the `RandomHbbft` contract. Automatically called by the `BlockRewardHbbft.reward` function at the latest block of the staking epoch."
      },
      "publicKeyByStakingAddress(address)": {
        "details": "Returns the public key for the given stakingAddress",
        "params": {
          "_stakingAddress": "staking address of the wanted public key."
        },
        "return": "public key of the _stakingAddress"
      },
      "removeMaliciousValidators(address[])": {
        "details": "Removes malicious validators. Called by the the Hbbft engine when a validator has been inactive for a long period.",
        "params": {
          "_miningAddresses": "The mining addresses of the malicious validators."
        }
      },
      "reportMalicious(address,uint256,bytes)": {
        "details": "Reports that the malicious validator misbehaved at the specified block. Called by the node of each honest validator after the specified validator misbehaved. See https://openethereum.github.io/Validator-Set.html#reporting-contract Can only be called when the `reportMaliciousCallable` getter returns `true`.",
        "params": {
          "_blockNumber": "The block number where the misbehavior was observed.",
          "_maliciousMiningAddress": "The mining address of the malicious validator."
        }
      },
      "reportMaliciousCallable(address,address,uint256)": {
        "details": "Returns whether the `reportMalicious` function can be called by the specified validator with the given parameters. Used by the `reportMalicious` function and `TxPermission` contract. Also, returns a boolean flag indicating whether the reporting validator should be removed as malicious due to excessive reporting during the current staking epoch.",
        "params": {
          "_blockNumber": "The block number which is passed to the `reportMalicious` function.",
          "_maliciousMiningAddress": "The mining address of the malicious validator which is passed to the `reportMalicious` function.",
          "_reportingMiningAddress": "The mining address of the reporting validator which is calling the `reportMalicious` function."
        },
        "return": "`bool callable` - The boolean flag indicating whether the `reportMalicious` function can be called at the moment. `bool removeReportingValidator` - The boolean flag indicating whether the reporting validator should be removed as malicious due to excessive reporting. This flag is only used by the `reportMalicious` function."
      },
      "setStakingAddress(address,address)": {
        "details": "Binds a mining address to the specified staking address. Called by the `StakingHbbft.addPool` function when a user wants to become a candidate and creates a pool. See also the `miningByStakingAddress` and `stakingByMiningAddress` public mappings.",
        "params": {
          "_miningAddress": "The mining address of the newly created pool. Cannot be equal to the `_stakingAddress` and should never be used as a pool before.",
          "_stakingAddress": "The staking address of the newly created pool. Cannot be equal to the `_miningAddress` and should never be used as a pool before."
        }
      }
    }
  },
  "userdoc": {
    "methods": {}
  }
}