{
  "_format": "hh-sol-artifact-1",
  "contractName": "ValidatorSetHbbftMock",
  "sourceName": "contracts/mockContracts/ValidatorSetHbbftMock.sol",
  "abi": [
    {
      "anonymous": false,
      "inputs": [
        {
          "indexed": false,
          "internalType": "address",
          "name": "reportingValidator",
          "type": "address"
        },
        {
          "indexed": false,
          "internalType": "address",
          "name": "maliciousValidator",
          "type": "address"
        },
        {
          "indexed": false,
          "internalType": "uint256",
          "name": "blockNumber",
          "type": "uint256"
        }
      ],
      "name": "ReportedMalicious",
      "type": "event"
    },
    {
      "anonymous": false,
      "inputs": [
        {
          "indexed": false,
          "internalType": "address",
          "name": "validator",
          "type": "address"
        },
        {
          "indexed": false,
          "internalType": "uint256",
          "name": "timestamp",
          "type": "uint256"
        }
      ],
      "name": "ValidatorAvailable",
      "type": "event"
    },
    {
      "anonymous": false,
      "inputs": [
        {
          "indexed": false,
          "internalType": "address",
          "name": "validator",
          "type": "address"
        },
        {
          "indexed": false,
          "internalType": "uint256",
          "name": "timestamp",
          "type": "uint256"
        }
      ],
      "name": "ValidatorUnavailable",
      "type": "event"
    },
    {
      "inputs": [
        {
          "internalType": "uint256",
          "name": "_blockNumber",
          "type": "uint256"
        },
        {
          "internalType": "bytes32",
          "name": "_blockhash",
          "type": "bytes32"
        }
      ],
      "name": "announceAvailability",
      "outputs": [],
      "stateMutability": "nonpayable",
      "type": "function"
    },
    {
      "inputs": [
        {
          "internalType": "address",
          "name": "_miningAddress",
          "type": "address"
        }
      ],
      "name": "areDelegatorsBanned",
      "outputs": [
        {
          "internalType": "bool",
          "name": "",
          "type": "bool"
        }
      ],
      "stateMutability": "view",
      "type": "function"
    },
    {
      "inputs": [
        {
          "internalType": "address",
          "name": "",
          "type": "address"
        }
      ],
      "name": "banCounter",
      "outputs": [
        {
          "internalType": "uint256",
          "name": "",
          "type": "uint256"
        }
      ],
      "stateMutability": "view",
      "type": "function"
    },
    {
      "inputs": [],
      "name": "banDuration",
      "outputs": [
        {
          "internalType": "uint256",
          "name": "",
          "type": "uint256"
        }
      ],
      "stateMutability": "view",
      "type": "function"
    },
    {
      "inputs": [
        {
          "internalType": "address",
          "name": "",
          "type": "address"
        }
      ],
      "name": "banReason",
      "outputs": [
        {
          "internalType": "bytes32",
          "name": "",
          "type": "bytes32"
        }
      ],
      "stateMutability": "view",
      "type": "function"
    },
    {
      "inputs": [
        {
          "internalType": "address",
          "name": "",
          "type": "address"
        }
      ],
      "name": "bannedDelegatorsUntil",
      "outputs": [
        {
          "internalType": "uint256",
          "name": "",
          "type": "uint256"
        }
      ],
      "stateMutability": "view",
      "type": "function"
    },
    {
      "inputs": [
        {
          "internalType": "address",
          "name": "",
          "type": "address"
        }
      ],
      "name": "bannedUntil",
      "outputs": [
        {
          "internalType": "uint256",
          "name": "",
          "type": "uint256"
        }
      ],
      "stateMutability": "view",
      "type": "function"
    },
    {
      "inputs": [],
      "name": "blockRewardContract",
      "outputs": [
        {
          "internalType": "address",
          "name": "",
          "type": "address"
        }
      ],
      "stateMutability": "view",
      "type": "function"
    },
    {
      "inputs": [
        {
          "internalType": "address",
          "name": "_miningAddress",
          "type": "address"
        }
      ],
      "name": "canCallAnnounceAvailability",
      "outputs": [
        {
          "internalType": "bool",
          "name": "",
          "type": "bool"
        }
      ],
      "stateMutability": "view",
      "type": "function"
    },
    {
      "inputs": [],
      "name": "finalizeChange",
      "outputs": [],
      "stateMutability": "nonpayable",
      "type": "function"
    },
    {
      "inputs": [],
      "name": "getCurrentTimestamp",
      "outputs": [
        {
          "internalType": "uint256",
          "name": "",
          "type": "uint256"
        }
      ],
      "stateMutability": "view",
      "type": "function"
    },
    {
      "inputs": [
        {
          "internalType": "address",
          "name": "_miningAddress",
          "type": "address"
        }
      ],
      "name": "getPendingValidatorKeyGenerationMode",
      "outputs": [
        {
          "internalType": "enum IValidatorSetHbbft.KeyGenMode",
          "name": "",
          "type": "uint8"
        }
      ],
      "stateMutability": "view",
      "type": "function"
    },
    {
      "inputs": [],
      "name": "getPendingValidators",
      "outputs": [
        {
          "internalType": "address[]",
          "name": "",
          "type": "address[]"
        }
      ],
      "stateMutability": "view",
      "type": "function"
    },
    {
      "inputs": [],
      "name": "getPreviousValidators",
      "outputs": [
        {
          "internalType": "address[]",
          "name": "",
          "type": "address[]"
        }
      ],
      "stateMutability": "view",
      "type": "function"
    },
    {
      "inputs": [
        {
          "internalType": "address",
          "name": "_miningAddress",
          "type": "address"
        }
      ],
      "name": "getPublicKey",
      "outputs": [
        {
          "internalType": "bytes",
          "name": "",
          "type": "bytes"
        }
      ],
      "stateMutability": "view",
      "type": "function"
    },
    {
      "inputs": [
        {
          "internalType": "uint256[]",
          "name": "_likelihood",
          "type": "uint256[]"
        },
        {
          "internalType": "uint256",
          "name": "_likelihoodSum",
          "type": "uint256"
        },
        {
          "internalType": "uint256",
          "name": "_randomNumber",
          "type": "uint256"
        }
      ],
      "name": "getRandomIndex",
      "outputs": [
        {
          "internalType": "uint256",
          "name": "",
          "type": "uint256"
        }
      ],
      "stateMutability": "pure",
      "type": "function"
    },
    {
      "inputs": [],
      "name": "getStakingContract",
      "outputs": [
        {
          "internalType": "address",
          "name": "",
          "type": "address"
        }
      ],
      "stateMutability": "view",
      "type": "function"
    },
    {
      "inputs": [
        {
          "internalType": "uint256",
          "name": "_possibleValidatorCount",
          "type": "uint256"
        }
      ],
      "name": "getValidatorCountSweetSpot",
      "outputs": [
        {
          "internalType": "uint256",
          "name": "",
          "type": "uint256"
        }
      ],
      "stateMutability": "view",
      "type": "function"
    },
    {
      "inputs": [],
      "name": "getValidators",
      "outputs": [
        {
          "internalType": "address[]",
          "name": "",
          "type": "address[]"
        }
      ],
      "stateMutability": "view",
      "type": "function"
    },
    {
      "inputs": [],
      "name": "handleFailedKeyGeneration",
      "outputs": [],
      "stateMutability": "nonpayable",
      "type": "function"
    },
    {
      "inputs": [
        {
          "internalType": "address",
          "name": "_blockRewardContract",
          "type": "address"
        },
        {
          "internalType": "address",
          "name": "_randomContract",
          "type": "address"
        },
        {
          "internalType": "address",
          "name": "_stakingContract",
          "type": "address"
        },
        {
          "internalType": "address",
          "name": "_keyGenHistoryContract",
          "type": "address"
        },
        {
          "internalType": "uint256",
          "name": "_validatorInactivityThreshold",
          "type": "uint256"
        },
        {
          "internalType": "address[]",
          "name": "_initialMiningAddresses",
          "type": "address[]"
        },
        {
          "internalType": "address[]",
          "name": "_initialStakingAddresses",
          "type": "address[]"
        }
      ],
      "name": "initialize",
      "outputs": [],
      "stateMutability": "nonpayable",
      "type": "function"
    },
    {
      "inputs": [],
      "name": "isFullHealth",
      "outputs": [
        {
          "internalType": "bool",
          "name": "",
          "type": "bool"
        }
      ],
      "stateMutability": "view",
      "type": "function"
    },
    {
      "inputs": [],
      "name": "isInitialized",
      "outputs": [
        {
          "internalType": "bool",
          "name": "",
          "type": "bool"
        }
      ],
      "stateMutability": "view",
      "type": "function"
    },
    {
      "inputs": [
        {
          "internalType": "address",
          "name": "_miningAddress",
          "type": "address"
        }
      ],
      "name": "isPendingValidator",
      "outputs": [
        {
          "internalType": "bool",
          "name": "",
          "type": "bool"
        }
      ],
      "stateMutability": "view",
      "type": "function"
    },
    {
      "inputs": [
        {
          "internalType": "address",
          "name": "_miningAddress",
          "type": "address"
        }
      ],
      "name": "isReportValidatorValid",
      "outputs": [
        {
          "internalType": "bool",
          "name": "",
          "type": "bool"
        }
      ],
      "stateMutability": "view",
      "type": "function"
    },
    {
      "inputs": [
        {
          "internalType": "address",
          "name": "",
          "type": "address"
        }
      ],
      "name": "isValidator",
      "outputs": [
        {
          "internalType": "bool",
          "name": "",
          "type": "bool"
        }
      ],
      "stateMutability": "view",
      "type": "function"
    },
    {
      "inputs": [
        {
          "internalType": "address",
          "name": "_stakingAddress",
          "type": "address"
        }
      ],
      "name": "isValidatorAbandoned",
      "outputs": [
        {
          "internalType": "bool",
          "name": "",
          "type": "bool"
        }
      ],
      "stateMutability": "view",
      "type": "function"
    },
    {
      "inputs": [
        {
          "internalType": "address",
          "name": "_miningAddress",
          "type": "address"
        }
      ],
      "name": "isValidatorBanned",
      "outputs": [
        {
          "internalType": "bool",
          "name": "",
          "type": "bool"
        }
      ],
      "stateMutability": "view",
      "type": "function"
    },
    {
      "inputs": [
        {
          "internalType": "address",
          "name": "_miningAddress",
          "type": "address"
        }
      ],
      "name": "isValidatorOrPending",
      "outputs": [
        {
          "internalType": "bool",
          "name": "",
          "type": "bool"
        }
      ],
      "stateMutability": "view",
      "type": "function"
    },
    {
      "inputs": [
        {
          "internalType": "address",
          "name": "",
          "type": "address"
        }
      ],
      "name": "isValidatorPrevious",
      "outputs": [
        {
          "internalType": "bool",
          "name": "",
          "type": "bool"
        }
      ],
      "stateMutability": "view",
      "type": "function"
    },
    {
      "inputs": [],
      "name": "keyGenHistoryContract",
      "outputs": [
        {
          "internalType": "contract IKeyGenHistory",
          "name": "",
          "type": "address"
        }
      ],
      "stateMutability": "view",
      "type": "function"
    },
    {
      "inputs": [
        {
          "internalType": "address",
          "name": "_miningAddress",
          "type": "address"
        },
        {
          "internalType": "uint256",
          "name": "_blockNumber",
          "type": "uint256"
        }
      ],
      "name": "maliceReportedForBlock",
      "outputs": [
        {
          "internalType": "address[]",
          "name": "",
          "type": "address[]"
        }
      ],
      "stateMutability": "view",
      "type": "function"
    },
    {
      "inputs": [],
      "name": "maxValidators",
      "outputs": [
        {
          "internalType": "uint256",
          "name": "",
          "type": "uint256"
        }
      ],
      "stateMutability": "view",
      "type": "function"
    },
    {
      "inputs": [
        {
          "internalType": "address",
          "name": "",
          "type": "address"
        }
      ],
      "name": "miningByStakingAddress",
      "outputs": [
        {
          "internalType": "address",
          "name": "",
          "type": "address"
        }
      ],
      "stateMutability": "view",
      "type": "function"
    },
    {
      "inputs": [],
      "name": "newValidatorSet",
      "outputs": [],
      "stateMutability": "nonpayable",
      "type": "function"
    },
    {
      "inputs": [
        {
          "internalType": "address",
          "name": "_stakingAddress",
          "type": "address"
        }
      ],
      "name": "notifyUnavailability",
      "outputs": [],
      "stateMutability": "nonpayable",
      "type": "function"
    },
    {
      "inputs": [
        {
          "internalType": "address",
          "name": "_stakingAddress",
          "type": "address"
        }
      ],
      "name": "publicKeyByStakingAddress",
      "outputs": [
        {
          "internalType": "bytes",
          "name": "",
          "type": "bytes"
        }
      ],
      "stateMutability": "view",
      "type": "function"
    },
    {
      "inputs": [],
      "name": "randomContract",
      "outputs": [
        {
          "internalType": "address",
          "name": "",
          "type": "address"
        }
      ],
      "stateMutability": "view",
      "type": "function"
    },
    {
      "inputs": [
        {
          "internalType": "address[]",
          "name": "_miningAddresses",
          "type": "address[]"
        }
      ],
      "name": "removeMaliciousValidators",
      "outputs": [],
      "stateMutability": "nonpayable",
      "type": "function"
    },
    {
      "inputs": [
        {
          "internalType": "address",
          "name": "_maliciousMiningAddress",
          "type": "address"
        },
        {
          "internalType": "uint256",
          "name": "_blockNumber",
          "type": "uint256"
        },
        {
          "internalType": "bytes",
          "name": "",
          "type": "bytes"
        }
      ],
      "name": "reportMalicious",
      "outputs": [],
      "stateMutability": "nonpayable",
      "type": "function"
    },
    {
      "inputs": [
        {
          "internalType": "address",
          "name": "_reportingMiningAddress",
          "type": "address"
        },
        {
          "internalType": "address",
          "name": "_maliciousMiningAddress",
          "type": "address"
        },
        {
          "internalType": "uint256",
          "name": "_blockNumber",
          "type": "uint256"
        }
      ],
      "name": "reportMaliciousCallable",
      "outputs": [
        {
          "internalType": "bool",
          "name": "callable",
          "type": "bool"
        },
        {
          "internalType": "bool",
          "name": "removeReportingValidator",
          "type": "bool"
        }
      ],
      "stateMutability": "view",
      "type": "function"
    },
    {
      "inputs": [
        {
          "internalType": "address",
          "name": "",
          "type": "address"
        },
        {
          "internalType": "uint256",
          "name": "",
          "type": "uint256"
        }
      ],
      "name": "reportingCounter",
      "outputs": [
        {
          "internalType": "uint256",
          "name": "",
          "type": "uint256"
        }
      ],
      "stateMutability": "view",
      "type": "function"
    },
    {
      "inputs": [
        {
          "internalType": "uint256",
          "name": "",
          "type": "uint256"
        }
      ],
      "name": "reportingCounterTotal",
      "outputs": [
        {
          "internalType": "uint256",
          "name": "",
          "type": "uint256"
        }
      ],
      "stateMutability": "view",
      "type": "function"
    },
    {
      "inputs": [
        {
          "internalType": "uint256",
          "name": "_banDuration",
          "type": "uint256"
        }
      ],
      "name": "setBanDuration",
      "outputs": [],
      "stateMutability": "nonpayable",
      "type": "function"
    },
    {
      "inputs": [
        {
          "internalType": "address",
          "name": "_miningAddress",
          "type": "address"
        },
        {
          "internalType": "uint256",
          "name": "_bannedUntil",
          "type": "uint256"
        }
      ],
      "name": "setBannedUntil",
      "outputs": [],
      "stateMutability": "nonpayable",
      "type": "function"
    },
    {
      "inputs": [
        {
          "internalType": "address",
          "name": "_address",
          "type": "address"
        }
      ],
      "name": "setBlockRewardContract",
      "outputs": [],
      "stateMutability": "nonpayable",
      "type": "function"
    },
    {
      "inputs": [
        {
          "internalType": "uint256",
          "name": "_timeStamp",
          "type": "uint256"
        }
      ],
      "name": "setCurrentTimestamp",
      "outputs": [],
      "stateMutability": "nonpayable",
      "type": "function"
    },
    {
      "inputs": [
        {
          "internalType": "uint256",
          "name": "_maxValidators",
          "type": "uint256"
        }
      ],
      "name": "setMaxValidators",
      "outputs": [],
      "stateMutability": "nonpayable",
      "type": "function"
    },
    {
      "inputs": [
        {
          "internalType": "address",
          "name": "_address",
          "type": "address"
        }
      ],
      "name": "setRandomContract",
      "outputs": [],
      "stateMutability": "nonpayable",
      "type": "function"
    },
    {
      "inputs": [
        {
          "internalType": "address",
          "name": "_miningAddress",
          "type": "address"
        },
        {
          "internalType": "address",
          "name": "_stakingAddress",
          "type": "address"
        }
      ],
      "name": "setStakingAddress",
      "outputs": [],
      "stateMutability": "nonpayable",
      "type": "function"
    },
    {
      "inputs": [
        {
          "internalType": "address",
          "name": "_address",
          "type": "address"
        }
      ],
      "name": "setStakingContract",
      "outputs": [],
      "stateMutability": "nonpayable",
      "type": "function"
    },
    {
      "inputs": [
        {
          "internalType": "address",
          "name": "_address",
          "type": "address"
        }
      ],
      "name": "setSystemAddress",
      "outputs": [],
      "stateMutability": "nonpayable",
      "type": "function"
    },
    {
      "inputs": [
        {
          "internalType": "address",
          "name": "_validator",
          "type": "address"
        },
        {
          "internalType": "uint256",
          "name": "_timestamp",
          "type": "uint256"
        }
      ],
      "name": "setValidatorAvailableSince",
      "outputs": [],
      "stateMutability": "nonpayable",
      "type": "function"
    },
    {
      "inputs": [
        {
          "internalType": "bytes16",
          "name": "_ip",
          "type": "bytes16"
        },
        {
          "internalType": "bytes2",
          "name": "_port",
          "type": "bytes2"
        }
      ],
      "name": "setValidatorInternetAddress",
      "outputs": [],
      "stateMutability": "nonpayable",
      "type": "function"
    },
    {
      "inputs": [
        {
          "internalType": "address",
          "name": "",
          "type": "address"
        }
      ],
      "name": "stakingByMiningAddress",
      "outputs": [
        {
          "internalType": "address",
          "name": "",
          "type": "address"
        }
      ],
      "stateMutability": "view",
      "type": "function"
    },
    {
      "inputs": [],
      "name": "stakingContract",
      "outputs": [
        {
          "internalType": "contract IStakingHbbft",
          "name": "",
          "type": "address"
        }
      ],
      "stateMutability": "view",
      "type": "function"
    },
    {
      "inputs": [
        {
          "internalType": "address",
          "name": "",
          "type": "address"
        }
      ],
      "name": "validatorAvailableSince",
      "outputs": [
        {
          "internalType": "uint256",
          "name": "",
          "type": "uint256"
        }
      ],
      "stateMutability": "view",
      "type": "function"
    },
    {
      "inputs": [
        {
          "internalType": "address",
          "name": "",
          "type": "address"
        }
      ],
      "name": "validatorAvailableSinceLastWrite",
      "outputs": [
        {
          "internalType": "uint256",
          "name": "",
          "type": "uint256"
        }
      ],
      "stateMutability": "view",
      "type": "function"
    },
    {
      "inputs": [
        {
          "internalType": "address",
          "name": "",
          "type": "address"
        }
      ],
      "name": "validatorCounter",
      "outputs": [
        {
          "internalType": "uint256",
          "name": "",
          "type": "uint256"
        }
      ],
      "stateMutability": "view",
      "type": "function"
    },
    {
      "inputs": [],
      "name": "validatorInactivityThreshold",
      "outputs": [
        {
          "internalType": "uint256",
          "name": "",
          "type": "uint256"
        }
      ],
      "stateMutability": "view",
      "type": "function"
    }
  ],
  "bytecode": "0x608060405234801561001057600080fd5b50615130806100206000396000f3fe608060405234801561001057600080fd5b50600436106103a35760003560e01c806387eed76a116101e9578063b41832e41161010f578063d2dd2f16116100ad578063efd049471161007c578063efd0494714610922578063f51726f014610935578063facd743b14610948578063fb64aac11461096b57600080fd5b8063d2dd2f16146108c7578063ed7cba62146108e7578063ee99205c14610907578063eebc7a391461091a57600080fd5b8063b7ab4db5116100e9578063b7ab4db514610879578063c476dd4014610881578063c9e9694d14610894578063ccf69e9b146108b457600080fd5b8063b41832e414610833578063b47aef1f14610853578063b56b366b1461086657600080fd5b8063a0d16cad11610187578063a68b5b7611610156578063a68b5b76146107e2578063a881c5fd14610805578063a92252ae14610818578063ade1900a1461082b57600080fd5b8063a0d16cad1461078b578063a42bdee91461079e578063a49904e5146107b1578063a670eb56146107b857600080fd5b80639881933d116101c35780639881933d146107225780639bb2ea5a146107355780639d6fc1d1146107485780639dd373b91461075b57600080fd5b806387eed76a146106eb5780638e68dce4146106fe57806396f1a5a41461070f57600080fd5b8063426d3cd6116102ce57806360e5c5201161026c578063717662ee1161023b578063717662ee1461069b57806375286211146106ae57806385602ad5146106b6578063857cdbb8146106cb57600080fd5b806360e5c5201461065757806366efcb78146106775780636b949ae81461068a5780636c9230db1461069357600080fd5b806356b54bae116102a857806356b54bae14610609578063581e93d91461061c5780635836d08a1461062f5780635ccee1de1461064f57600080fd5b8063426d3cd6146105da57806343bcce9f146105e357806351cc6646146105f657600080fd5b806314e28d90116103465780631ee4d0bc116103155780631ee4d0bc1461053757806327a3e16b146105605780633755243b14610590578063392e53cd146105bb57600080fd5b806314e28d90146104c45780631761edb1146104e45780631a7fa237146104f75780631d0cd4c61461051757600080fd5b80630636bdac116103825780630636bdac1461045757806308ac52561461046a5780630933e3a7146104815780630a4c1072146104b157600080fd5b8062535175146103a8578063030360d2146103ee5780630621019714610427575b600080fd5b6103d16103b6366004614852565b600b602052600090815260409020546001600160a01b031681565b6040516001600160a01b0390911681526020015b60405180910390f35b6104256103fc366004614876565b6001600160a01b0390911660009081526005602090815260408083208490556006909152902055565b005b610425610435366004614852565b601980546001600160a01b0319166001600160a01b0392909216919091179055565b6104256104653660046148ee565b61097e565b61047360155481565b6040519081526020016103e5565b61042561048f366004614852565b600c80546001600160a01b0319166001600160a01b0392909216919091179055565b6104256104bf366004614930565b6109f7565b6104d76104d2366004614852565b610a60565b6040516103e59190614969565b6104736104f23660046149fc565b610c49565b610473610505366004614852565b60066020526000908152604090205481565b610473610525366004614852565b60046020526000908152604090205481565b6103d1610545366004614852565b600f602052600090815260409020546001600160a01b031681565b61042561056e366004614852565b600880546001600160a01b0319166001600160a01b0392909216919091179055565b61047361059e366004614876565b600d60209081526000928352604080842090915290825290205481565b6008546001600160a01b031615155b60405190151581526020016103e5565b61047360165481565b6104256105f1366004614aa2565b610c89565b610425610604366004614876565b610fc0565b6008546103d1906001600160a01b031681565b61042561062a366004614ac4565b610fca565b61047361063d366004614852565b60056020526000908152604090205481565b610425611065565b610473610665366004614852565b60146020526000908152604090205481565b610425610685366004614ac4565b6110d9565b61047360175481565b601854610473565b6104256106a9366004614852565b611155565b6104256111d7565b6106be6113ff565b6040516103e59190614add565b6106de6106d9366004614852565b611461565b6040516103e59190614b4e565b6105ca6106f9366004614852565b6114f1565b6010546001600160a01b03166103d1565b61042561071d366004614b81565b611731565b6106de610730366004614852565b611cea565b610425610743366004614ac4565b611d1d565b6105ca610756366004614852565b611db8565b610425610769366004614852565b601080546001600160a01b0319166001600160a01b0392909216919091179055565b6105ca610799366004614852565b611e84565b6104256107ac366004614c47565b611eb6565b60016105ca565b6107cb6107c6366004614cb0565b611f9b565b6040805192151583529015156020830152016103e5565b6105ca6107f0366004614852565b600a6020526000908152604090205460ff1681565b6105ca610813366004614852565b6121c6565b6105ca610826366004614852565b612246565b61042561229a565b610473610841366004614852565b60126020526000908152604090205481565b6011546103d1906001600160a01b031681565b6106be610874366004614876565b612b3f565b6106be612bbe565b61042561088f366004614cf1565b612c1e565b6104736108a2366004614852565b60076020526000908152604090205481565b600c546103d1906001600160a01b031681565b6104736108d5366004614ac4565b600e6020526000908152604090205481565b6104736108f5366004614852565b60136020526000908152604090205481565b6010546103d1906001600160a01b031681565b6106be612e6d565b610473610930366004614ac4565b612ecd565b6105ca610943366004614852565b612f7e565b6105ca610956366004614852565b60096020526000908152604090205460ff1681565b6105ca610979366004614852565b612fd5565b6019546001600160a01b0316331461099557600080fd5b6109f38282808060200260200160405190810160405280939291908181526020018383602002808284376000920191909152507f696e6163746976650000000000000000000000000000000000000000000000009250613039915050565b5050565b6010546001600160a01b03163314610a565760405162461bcd60e51b815260206004820152601560248201527f4f6e6c79205374616b696e6720436f6e7472616374000000000000000000000060448201526064015b60405180910390fd5b6109f382826130a1565b6000610a6b82612fd5565b610a7757506000919050565b60115460408051637be02c2b60e01b8152815160009384936001600160a01b0390911692637be02c2b92600480830193928290030181865afa158015610ac1573d6000803e3d6000fd5b505050506040513d601f19601f82011682018060405250810190610ae59190614d9f565b60015491935091506fffffffffffffffffffffffffffffffff83161015610b9a576011546040516399de1a4360e01b81526001600160a01b03868116600483015260009216906399de1a4390602401600060405180830381865afa158015610b51573d6000803e3d6000fd5b505050506040513d6000823e601f3d908101601f19168201604052610b799190810190614dd2565b90508051600003610b8f57506001949350505050565b506002949350505050565b6001546fffffffffffffffffffffffffffffffff82161015610c3f57601154604051631baeec3f60e31b81526001600160a01b0386811660048301529091169063dd7761f890602401602060405180830381865afa158015610c00573d6000803e3d6000fd5b505050506040513d601f19601f82011682018060405250810190610c249190614e66565b600003610c35575060039392505050565b5060049392505050565b5060059392505050565b6000610c81848484604051602001610c6391815260200190565b6040516020818303038152906040528051906020012060001c613456565b949350505050565b610c9233612f7e565b610d045760405162461bcd60e51b815260206004820152602560248201527f416e6e6f756e63696e6720617661696c6162696c697479206e6f7420706f737360448201527f69626c652e0000000000000000000000000000000000000000000000000000006064820152608401610a4d565b438210610d795760405162461bcd60e51b815260206004820152602a60248201527f5f626c6f636b4e756d62657220617267756d656e74206d75737420626520696e60448201527f2074686520706173742e000000000000000000000000000000000000000000006064820152608401610a4d565b43610d85836010614e95565b11610e1e5760405162461bcd60e51b815260206004820152604560248201527f5f626c6f636b4e756d62657220617267756d656e74206d75737420626520696e60448201527f2074686520706173742077697468696e20746865206c6173742032353520626c60648201527f6f636b732e000000000000000000000000000000000000000000000000000000608482015260a401610a4d565b80824014610e945760405162461bcd60e51b815260206004820152603360248201527f70726f766964656420626c6f636b68617368206d757374206d6174636820626c60448201527f6f636b636861696e7320626c6f636b68617368000000000000000000000000006064820152608401610a4d565b6000306001600160a01b0316636c9230db6040518163ffffffff1660e01b8152600401602060405180830381865afa158015610ed4573d6000803e3d6000fd5b505050506040513d601f19601f82011682018060405250810190610ef89190614e66565b9050610f0433826134bf565b60408051338152602081018390527f705d65dbee06de60e6465d68371ce849d5a1ead53e53d01a413b2b01393aa022910160405180910390a1610f4633612246565b610fbb57601054336000908152600f602052604090819020549051631ec56e5360e21b81526001600160a01b039182166004820152911690637b15b94c906024015b600060405180830381600087803b158015610fa257600080fd5b505af1158015610fb6573d6000803e3d6000fd5b505050505b505050565b6109f382826134bf565b7fb53127684a568b3173ae13b9f8a6016e243e63b6e8ee1178d6a717850b5d6103546001600160a01b0316336001600160a01b0316146110605760405162461bcd60e51b815260206004820152602b60248201527f6f6e6c792061646d696e20697320616c6c6f77656420746f2063616c6c20746860448201526a34b990333ab731ba34b7b760a91b6064820152608401610a4d565b601655565b6008546001600160a01b031633146110bf5760405162461bcd60e51b815260206004820152601960248201527f4f6e6c7920426c6f636b52657761726420636f6e7472616374000000000000006044820152606401610a4d565b6040805160008152602081019091526110d790613559565b565b60185481116111505760405162461bcd60e51b815260206004820152603760248201527f73657443757272656e7454696d657374616d703a2043616e27742074696d657460448201527f726176656c206261636b20746f207468652070617374210000000000000000006064820152608401610a4d565b601855565b6010546001600160a01b031633146111af5760405162461bcd60e51b815260206004820152601560248201527f4f6e6c79205374616b696e6720436f6e747261637400000000000000000000006044820152606401610a4d565b6001600160a01b038082166000908152600b60205260408120546111d49216906134bf565b50565b6008546001600160a01b031633146112315760405162461bcd60e51b815260206004820152601960248201527f4f6e6c7920426c6f636b52657761726420636f6e7472616374000000000000006044820152606401610a4d565b6001541561124957611241613d0c565b611249613df7565b601060009054906101000a90046001600160a01b03166001600160a01b031663ee435f556040518163ffffffff1660e01b8152600401600060405180830381600087803b15801561129957600080fd5b505af11580156112ad573d6000803e3d6000fd5b50505050601160009054906101000a90046001600160a01b03166001600160a01b0316632c6f194d6040518163ffffffff1660e01b8152600401600060405180830381600087803b15801561130157600080fd5b505af1158015611315573d6000803e3d6000fd5b505050506001600061132791906147ba565b601060009054906101000a90046001600160a01b03166001600160a01b0316638247a239306001600160a01b0316636c9230db6040518163ffffffff1660e01b8152600401602060405180830381865afa158015611389573d6000803e3d6000fd5b505050506040513d601f19601f820116820180604052508101906113ad9190614e66565b6040518263ffffffff1660e01b81526004016113cb91815260200190565b600060405180830381600087803b1580156113e557600080fd5b505af11580156113f9573d6000803e3d6000fd5b50505050565b6060600280548060200260200160405190810160405280929190818152602001828054801561145757602002820191906000526020600020905b81546001600160a01b03168152600190910190602001808311611439575b5050505050905090565b6010546001600160a01b038281166000908152600f602052604090819020549051634e9b426d60e01b815290821660048201526060929190911690634e9b426d906024015b600060405180830381865afa1580156114c3573d6000803e3d6000fd5b505050506040513d6000823e601f3d908101601f191682016040526114eb9190810190614dd2565b92915050565b6001600160a01b038116600090815260096020526040812054819060ff168015611521575061151f83612246565b155b9050601060009054906101000a90046001600160a01b03166001600160a01b031663794c0c686040518163ffffffff1660e01b8152600401602060405180830381865afa158015611576573d6000803e3d6000fd5b505050506040513d601f19601f8201168201806040525081019061159a9190614e66565b6000036115a75792915050565b60105460408051634f9a8d8f60e01b815290516005926001600160a01b031691634f9a8d8f9160048083019260209291908290030181865afa1580156115f1573d6000803e3d6000fd5b505050506040513d601f19601f820116820180604052508101906116159190614e66565b61161f9190614ebe565b601060009054906101000a90046001600160a01b03166001600160a01b0316639b03d7446040518163ffffffff1660e01b8152600401602060405180830381865afa158015611672573d6000803e3d6000fd5b505050506040513d601f19601f820116820180604052508101906116969190614e66565b306001600160a01b0316636c9230db6040518163ffffffff1660e01b8152600401602060405180830381865afa1580156116d4573d6000803e3d6000fd5b505050506040513d601f19601f820116820180604052508101906116f89190614e66565b6117029190614ed2565b116114eb576001600160a01b0383166000908152600a602052604090205460ff168180610c8157509392505050565b7fb53127684a568b3173ae13b9f8a6016e243e63b6e8ee1178d6a717850b5d6103546001600160a01b0316336001600160a01b031614806117a457507fb53127684a568b3173ae13b9f8a6016e243e63b6e8ee1178d6a717850b5d6103546001600160a01b0316326001600160a01b0316145b806117d757507fb53127684a568b3173ae13b9f8a6016e243e63b6e8ee1178d6a717850b5d6103546001600160a01b0316155b806117e0575043155b6118525760405162461bcd60e51b815260206004820152603e60248201527f56616c696461746f725365743a20496e697469616c697a6174696f6e206f6e6c60448201527f79206f6e2067656e6573697320626c6f636b206f722062792061646d696e00006064820152608401610a4d565b6008546001600160a01b0316156118d15760405162461bcd60e51b815260206004820152602c60248201527f56616c696461746f7253657420636f6e747261637420697320616c726561647960448201527f20696e697469616c697a656400000000000000000000000000000000000000006064820152608401610a4d565b6001600160a01b03891661194d5760405162461bcd60e51b815260206004820152602960248201527f426c6f636b52657761726420636f6e747261637420616464726573732063616e60448201527f27742062652030783000000000000000000000000000000000000000000000006064820152608401610a4d565b6001600160a01b0388166119af5760405162461bcd60e51b8152602060048201526024808201527f52616e646f6d20636f6e747261637420616464726573732063616e27742062656044820152630203078360e41b6064820152608401610a4d565b6001600160a01b038716611a2b5760405162461bcd60e51b815260206004820152602560248201527f5374616b696e6720636f6e747261637420616464726573732063616e2774206260448201527f65203078300000000000000000000000000000000000000000000000000000006064820152608401610a4d565b6001600160a01b038616611aa75760405162461bcd60e51b815260206004820152602b60248201527f4b657947656e486973746f727920636f6e74726163742061646472657373206360448201527f616e2774206265203078300000000000000000000000000000000000000000006064820152608401610a4d565b82611b1a5760405162461bcd60e51b815260206004820152602560248201527f4d7573742070726f7669646520696e697469616c206d696e696e67206164647260448201527f65737365730000000000000000000000000000000000000000000000000000006064820152608401610a4d565b828114611b8f5760405162461bcd60e51b815260206004820152603860248201527f4d7573742070726f76696465207468652073616d6520616d6f756e74206f662060448201527f6d696e696e672f7374616b696e672061646472657373657300000000000000006064820152608401610a4d565b600880546001600160a01b03808c166001600160a01b031992831617909255600c80548b8416908316179055601080548a84169083161790556011805492891692909116919091179055601785905560005b83811015611cd4576000858583818110611bfd57611bfd614ee5565b9050602002016020810190611c129190614852565b60008054600180820183557f290decd9548b62a8d60345a988386fc84ba6bc95484008f6362f93160ef3e56390910180546001600160a01b0319166001600160a01b0385169081179091558252600960209081526040808420805460ff1916909317909255601290528120805492935090611c8c83614efb565b9190505550611cc181858585818110611ca757611ca7614ee5565b9050602002016020810190611cbc9190614852565b6130a1565b5080611ccc81614efb565b915050611be1565b505060196015555050600c601655505050505050565b601054604051634e9b426d60e01b81526001600160a01b0383811660048301526060921690634e9b426d906024016114a6565b7fb53127684a568b3173ae13b9f8a6016e243e63b6e8ee1178d6a717850b5d6103546001600160a01b0316336001600160a01b031614611db35760405162461bcd60e51b815260206004820152602b60248201527f6f6e6c792061646d696e20697320616c6c6f77656420746f2063616c6c20746860448201526a34b990333ab731ba34b7b760a91b6064820152608401610a4d565b601555565b6001600160a01b038082166000908152600b602090815260408083205490931680835260149091529181205490919015611df55750600092915050565b6001600160a01b0381166000908152601360209081526040808320548151636c9230db60e01b8152915190923092636c9230db92600480830193928290030181865afa158015611e49573d6000803e3d6000fd5b505050506040513d601f19601f82011682018060405250810190611e6d9190614e66565b611e779190614ed2565b6017541115949350505050565b6001600160a01b03811660009081526009602052604081205460ff1615611ead57506001919050565b6114eb82612fd5565b336000908152600f60205260409020546001600160a01b031680611f285760405162461bcd60e51b815260206004820152602360248201527f4e6f20506f6f6c20646566696e656420666f7220746869732076616c6964617460448201526237b91760e91b6064820152608401610a4d565b601054604051637b0a0f9b60e01b81526001600160a01b0383811660048301526fffffffffffffffffffffffffffffffff19861660248301527fffff0000000000000000000000000000000000000000000000000000000000008516604483015290911690637b0a0f9b90606401610f88565b600080611fa7856114f1565b611fb6575060009050806121be565b611fbf846114f1565b611fce575060009050806121be565b60005460018111156120e15760105460408051630f29818d60e31b815290516000926001600160a01b03169163794c0c689160048083019260209291908290030181865afa158015612024573d6000803e3d6000fd5b505050506040513d601f19601f820116820180604052508101906120489190614e66565b6001600160a01b0388166000908152600d60209081526040808320848452825280832054600e90925282205492935091908282106120ad5761208b600186614ed2565b6120958484614ed2565b6120a090600a614f14565b6120aa9190614ebe565b90505b6120b8856032614f14565b831180156120c557508083115b156120dc57600060019650965050505050506121be565b505050505b43808511156120f8576000809350935050506121be565b60648082118015612111575061210e8183614ed2565b86105b1561212557600080945094505050506121be565b6001600160a01b03871660009081526003602090815260408083208984529091528120805490915b818110156121af578a6001600160a01b031683828154811061217157612171614ee5565b6000918252602090912001546001600160a01b03160361219d57600080975097505050505050506121be565b806121a781614efb565b91505061214d565b50600160009650965050505050505b935093915050565b6001600160a01b0381166000908152600660209081526040808320548151636c9230db60e01b8152915190923092636c9230db92600480830193928290030181865afa15801561221a573d6000803e3d6000fd5b505050506040513d601f19601f8201168201806040525081019061223e9190614e66565b111592915050565b6001600160a01b0381166000908152600560209081526040808320548151636c9230db60e01b8152915190923092636c9230db92600480830193928290030181865afa15801561221a573d6000803e3d6000fd5b6008546001600160a01b031633146122f45760405162461bcd60e51b815260206004820152601960248201527f4f6e6c7920426c6f636b52657761726420636f6e7472616374000000000000006044820152606401610a4d565b601060009054906101000a90046001600160a01b03166001600160a01b03166322e3d9866040518163ffffffff1660e01b8152600401602060405180830381865afa158015612347573d6000803e3d6000fd5b505050506040513d601f19601f8201168201806040525081019061236b9190614e66565b306001600160a01b0316636c9230db6040518163ffffffff1660e01b8152600401602060405180830381865afa1580156123a9573d6000803e3d6000fd5b505050506040513d601f19601f820116820180604052508101906123cd9190614e66565b10156124675760405162461bcd60e51b815260206004820152604c60248201527f6661696c6564206b65792067656e65726174696f6e2063616e206f6e6c79206260448201527f652070726f63657373656420616674657220746865207374616b696e6720657060648201527f6f6368206973206f7665722e0000000000000000000000000000000000000000608482015260a401610a4d565b601060009054906101000a90046001600160a01b03166001600160a01b031663a5d54f656040518163ffffffff1660e01b8152600401600060405180830381865afa1580156124ba573d6000803e3d6000fd5b505050506040513d6000823e601f3d908101601f191682016040526124e29190810190614f2b565b51156110d757600154156110d7576001805460009161250091614ed2565b67ffffffffffffffff81111561251857612518614991565b604051908082528060200260200182016040528015612541578160200160208202803683370190505b50905060008080601160009054906101000a90046001600160a01b03166001600160a01b0316637be02c2b6040518163ffffffff1660e01b81526004016040805180830381865afa15801561259a573d6000803e3d6000fd5b505050506040513d601f19601f820116820180604052508101906125be9190614d9f565b9150915060005b6001548110156128ce576000600182815481106125e4576125e4614ee5565b60009182526020822001546001546001600160a01b0390911692506fffffffffffffffffffffffffffffffff86161015612694576011546040516399de1a4360e01b81526001600160a01b03848116600483015260009216906399de1a4390602401600060405180830381865afa158015612663573d6000803e3d6000fd5b505050506040513d6000823e601f3d908101601f1916820160405261268b9190810190614dd2565b51119050612723565b6001546fffffffffffffffffffffffffffffffff8516101561272357601154604051631baeec3f60e31b81526001600160a01b038481166004830152600092169063dd7761f890602401602060405180830381865afa1580156126fb573d6000803e3d6000fd5b505050506040513d601f19601f8201168201806040525081019061271f9190614e66565b1190505b8015612796576001838154811061273c5761273c614ee5565b9060005260206000200160009054906101000a90046001600160a01b031687878151811061276c5761276c614ee5565b6001600160a01b03909216602092830291909101909101528561278e81614efb565b9650506128b9565b6010546001600160a01b038381166000908152600f602052604090819020549051631dbe84a360e11b81529082166004820152911690633b7d094690602401600060405180830381600087803b1580156127ef57600080fd5b505af1158015612803573d6000803e3d6000fd5b505050506128128260006134bf565b7f7ec36d1734626f8b3686f8791130187e1633c843b1995003e788cd2b33d5690382306001600160a01b0316636c9230db6040518163ffffffff1660e01b8152600401602060405180830381865afa158015612872573d6000803e3d6000fd5b505050506040513d601f19601f820116820180604052508101906128969190614e66565b604080516001600160a01b03909316835260208301919091520160405180910390a15b505080806128c690614efb565b9150506125c5565b50601154604051632f8ba4bf60e11b81526001600160a01b0390911690635f17497e9061290090600190600401614fba565b600060405180830381600087803b15801561291a57600080fd5b505af115801561292e573d6000803e3d6000fd5b50505050601160009054906101000a90046001600160a01b03166001600160a01b031663adddc0cf6040518163ffffffff1660e01b8152600401600060405180830381600087803b15801561298257600080fd5b505af1158015612996573d6000803e3d6000fd5b5050505060008367ffffffffffffffff8111156129b5576129b5614991565b6040519080825280602002602001820160405280156129de578160200160208202803683370190505b50905060005b84811015612a42578581815181106129fe576129fe614ee5565b6020026020010151828281518110612a1857612a18614ee5565b6001600160a01b039092166020928302919091019091015280612a3a81614efb565b9150506129e4565b50601060009054906101000a90046001600160a01b03166001600160a01b031663adddc0cf6040518163ffffffff1660e01b8152600401600060405180830381600087803b158015612a9357600080fd5b505af1158015612aa7573d6000803e3d6000fd5b505050506000601060009054906101000a90046001600160a01b03166001600160a01b031663a5d54f656040518163ffffffff1660e01b8152600401600060405180830381865afa158015612b00573d6000803e3d6000fd5b505050506040513d6000823e601f3d908101601f19168201604052612b289190810190614f2b565b511115612b3857612b3881613559565b5050505050565b6001600160a01b0382166000908152600360209081526040808320848452825291829020805483518184028101840190945280845260609392830182828015612bb157602002820191906000526020600020905b81546001600160a01b03168152600190910190602001808311612b93575b5050505050905092915050565b60606000805480602002602001604051908101604052809291908181526020018280548015611457576020028201919060005260206000209081546001600160a01b03168152600190910190602001808311611439575050505050905090565b6008546001600160a01b0316612c765760405162461bcd60e51b815260206004820152601d60248201527f56616c696461746f725365743a206e6f7420696e697469616c697a65640000006044820152606401610a4d565b33612c8081613fb1565b600080612c8e838888611f9b565b9150915081612d0e578015612d0657604080516001808252818301909252600091602080830190803683370190505090508381600081518110612cd357612cd3614ee5565b60200260200101906001600160a01b031690816001600160a01b031681525050612d0481637370616d60e01b613039565b505b5050506113f9565b6001600160a01b0387811660008181526003602090815260408083208b8452825280832080546001810182558185529383902090930180546001600160a01b0319169589169586179055805194855290840192909252908201889052907f729a19138e072a5a8d3a56d74ae0b5c84530f09aacd6e12b24c5b2fdc3f8a3d09060600160405180910390a160008054906003821115612dc657612db1826002614f14565b8354612dbe906003614f14565b119050612dd9565b82548290612dd5906002614f14565b1190505b8015612e6157604080516001808252818301909252600091602080830190803683370190505090508a81600081518110612e1557612e15614ee5565b60200260200101906001600160a01b031690816001600160a01b031681525050612e5f817f6d616c6963696f75730000000000000000000000000000000000000000000000613039565b505b50505050505050505050565b60606001805480602002602001604051908101604052809291908181526020018280548015611457576020028201919060005260206000209081546001600160a01b03168152600190910190602001808311611439575050505050905090565b6000808211612f445760405162461bcd60e51b815260206004820152602560248201527f5f706f737369626c6556616c696461746f72436f756e74206d757374206e6f7460448201527f20626520300000000000000000000000000000000000000000000000000000006064820152608401610a4d565b6004821015612f51575090565b6003612f5e600184614ed2565b612f689190614ebe565b612f73906003614f14565b6114eb906001614e95565b6001600160a01b038181166000908152600f6020526040812054909116612fa757506000919050565b6001600160a01b03821660009081526014602052604090205415612fcd57506000919050565b506001919050565b6000805b6001548110156130305760018181548110612ff657612ff6614ee5565b6000918252602090912001546001600160a01b039081169084160361301e5750600192915050565b8061302881614efb565b915050612fd9565b50600092915050565b60005b8251811015610fbb5761306883828151811061305a5761305a614ee5565b602002602001015183614089565b1561308f5761308f83828151811061308257613082614ee5565b60200260200101516142b5565b8061309981614efb565b91505061303c565b6001600160a01b0382166130f75760405162461bcd60e51b815260206004820152601960248201527f4d696e696e6720616464726573732063616e27742062652030000000000000006044820152606401610a4d565b6001600160a01b03811661314d5760405162461bcd60e51b815260206004820152601a60248201527f5374616b696e6720616464726573732063616e277420626520300000000000006044820152606401610a4d565b806001600160a01b0316826001600160a01b0316036131d45760405162461bcd60e51b815260206004820152603460248201527f4d696e696e6720616464726573732063616e6e6f74206265207468652073616d60448201527f6520617320746865207374616b696e67206f6e650000000000000000000000006064820152608401610a4d565b6001600160a01b038181166000908152600b602052604090205416156132625760405162461bcd60e51b815260206004820152602d60248201527f5374616b696e67206164647265737320616c726561647920757365642061732060448201527f61207374616b696e67206f6e65000000000000000000000000000000000000006064820152608401610a4d565b6001600160a01b038281166000908152600b602052604090205416156132f05760405162461bcd60e51b815260206004820152602c60248201527f4d696e696e67206164647265737320616c72656164792075736564206173206160448201527f207374616b696e67206f6e6500000000000000000000000000000000000000006064820152608401610a4d565b6001600160a01b038181166000908152600f6020526040902054161561337e5760405162461bcd60e51b815260206004820152602c60248201527f5374616b696e67206164647265737320616c726561647920757365642061732060448201527f61206d696e696e67206f6e6500000000000000000000000000000000000000006064820152608401610a4d565b6001600160a01b038281166000908152600f6020526040902054161561340c5760405162461bcd60e51b815260206004820152602b60248201527f4d696e696e67206164647265737320616c72656164792075736564206173206160448201527f206d696e696e67206f6e650000000000000000000000000000000000000000006064820152608401610a4d565b6001600160a01b039081166000818152600b602090815260408083208054959096166001600160a01b03199586168117909655948252600f90529290922080549091169091179055565b6000806134638484614ffe565b90506000805b8282116134a95786818151811061348257613482614ee5565b6020026020010151826134959190614e95565b9150806134a181614efb565b915050613469565b6134b4600182614ed2565b979650505050505050565b6001600160a01b0382166000908152601460209081526040918290208390558151636c9230db60e01b815291513092636c9230db9260048083019391928290030181865afa158015613515573d6000803e3d6000fd5b505050506040513d601f19601f820116820180604052508101906135399190614e66565b6001600160a01b0390921660009081526013602052604090209190915550565b6010546040805163a5d54f6560e01b815290516000926001600160a01b03169163a5d54f6591600480830192869291908290030181865afa1580156135a2573d6000803e3d6000fd5b505050506040513d6000823e601f3d908101601f191682016040526135ca9190810190614f2b565b9050600060155482511015806135df57508151155b6135f2576135ed8251612ecd565b6135f6565b6015545b90508082511115613a4f5781516010546040805163957950a760e01b8152905160009283926001600160a01b039091169163957950a79160048082019286929091908290030181865afa158015613651573d6000803e3d6000fd5b505050506040513d6000823e601f3d908101601f191682016040526136799190810190615012565b9150915060008467ffffffffffffffff81111561369857613698614991565b6040519080825280602002602001820160405280156136c1578160200160208202803683370190505b5090506000805b885181101561385a5760005b86811015613847578982815181106136ee576136ee614ee5565b60200260200101516001600160a01b031689828151811061371157613711614ee5565b60200260200101516001600160a01b0316036138355789828151811061373957613739614ee5565b602002602001015184848151811061375357613753614ee5565b6001600160a01b03909216602092830291909101909101528261377581614efb565b93505085818151811061378a5761378a614ee5565b60200260200101518561379d9190614ed2565b9450866137a9816150ab565b9750508887815181106137be576137be614ee5565b60200260200101518982815181106137d8576137d8614ee5565b60200260200101906001600160a01b031690816001600160a01b03168152505085878151811061380a5761380a614ee5565b602002602001015186828151811061382457613824614ee5565b602002602001018181525050613847565b8061383f81614efb565b9150506136d4565b508061385281614efb565b9150506136c8565b50600c5460408051634191031360e11b815290516000926001600160a01b03169163832206269160048083019260209291908290030181865afa1580156138a5573d6000803e3d6000fd5b505050506040513d601f19601f820116820180604052508101906138c99190614e66565b9050600085511180156138dc5750600084115b15613a445760005b8351811015613a3a57604080514284186020820152016040516020818303038152906040528051906020012060001c91506000613922878785613456565b905089818151811061393657613936614ee5565b602002602001015185838151811061395057613950614ee5565b60200260200101906001600160a01b031690816001600160a01b03168152505086818151811061398257613982614ee5565b6020026020010151866139959190614ed2565b9550876139a1816150ab565b9850508988815181106139b6576139b6614ee5565b60200260200101518a82815181106139d0576139d0614ee5565b60200260200101906001600160a01b031690816001600160a01b031681525050868881518110613a0257613a02614ee5565b6020026020010151878281518110613a1c57613a1c614ee5565b60209081029190910101525080613a3281614efb565b9150506138e4565b50613a448361439c565b505050505050613a58565b613a588261439c565b601154604051632f8ba4bf60e11b81526001600160a01b0390911690635f17497e90613a8990600090600401614fba565b600060405180830381600087803b158015613aa357600080fd5b505af1158015613ab7573d6000803e3d6000fd5b505050508151600014613b2d57601060009054906101000a90046001600160a01b03166001600160a01b0316631555371c6040518163ffffffff1660e01b8152600401600060405180830381600087803b158015613b1457600080fd5b505af1158015613b28573d6000803e3d6000fd5b505050505b601060009054906101000a90046001600160a01b03166001600160a01b03166322e3d9866040518163ffffffff1660e01b8152600401602060405180830381865afa158015613b80573d6000803e3d6000fd5b505050506040513d601f19601f82011682018060405250810190613ba49190614e66565b306001600160a01b0316636c9230db6040518163ffffffff1660e01b8152600401602060405180830381865afa158015613be2573d6000803e3d6000fd5b505050506040513d601f19601f82011682018060405250810190613c069190614e66565b1115610fbb5760105460408051631171ecc360e11b815290516001600160a01b0390921691639e72c6359183916322e3d986916004808201926020929091908290030181865afa158015613c5e573d6000803e3d6000fd5b505050506040513d601f19601f82011682018060405250810190613c829190614e66565b306001600160a01b0316636c9230db6040518163ffffffff1660e01b8152600401602060405180830381865afa158015613cc0573d6000803e3d6000fd5b505050506040513d601f19601f82011682018060405250810190613ce49190614e66565b613cee9190614ed2565b6040518263ffffffff1660e01b8152600401610f8891815260200190565b60025460005b81811015613d79576000600a600060028481548110613d3357613d33614ee5565b6000918252602080832091909101546001600160a01b031683528201929092526040019020805460ff191691151591909117905580613d7181614efb565b915050613d12565b505060008054905b81811015613de7576001600a6000808481548110613da157613da1614ee5565b6000918252602080832091909101546001600160a01b031683528201929092526040019020805460ff191691151591909117905580613ddf81614efb565b915050613d81565b60008054610fbb916002916147d8565b6060600080805480602002602001604051908101604052809291908181526020018280548015613e5057602002820191906000526020600020905b81546001600160a01b03168152600190910190602001808311613e32575b50505050509150600090505b8151811015613ec157600060096000848481518110613e7d57613e7d614ee5565b6020908102919091018101516001600160a01b03168252810191909152604001600020805460ff191691151591909117905580613eb981614efb565b915050613e5c565b60018054613ed1916000916147d8565b506000805480602002602001604051908101604052809291908181526020018280548015613f2857602002820191906000526020600020905b81546001600160a01b03168152600190910190602001808311613f0a575b50505050509150600090505b81518110156109f3576000828281518110613f5157613f51614ee5565b6020908102919091018101516001600160a01b0381166000908152600983526040808220805460ff19166001179055601290935291822080549193509091613f9883614efb565b9190505550508080613fa990614efb565b915050613f34565b613fba816114f1565b613fc15750565b60105460408051630f29818d60e31b815290516000926001600160a01b03169163794c0c689160048083019260209291908290030181865afa15801561400b573d6000803e3d6000fd5b505050506040513d601f19601f8201168201806040525081019061402f9190614e66565b6001600160a01b0383166000908152600d60209081526040808320848452909152812080549293509061406183614efb565b90915550506000818152600e6020526040812080549161408083614efb565b91905055505050565b60008061409584612246565b905060006140a161462d565b6001600160a01b03861660009081526004602052604081208054929350906140c883614efb565b90915550506001600160a01b0385166000908152600560209081526040808320849055600790915290208490558115614106576000925050506114eb565b6001600160a01b038581166000908152600660209081526040808320859055600f90915290819020546010549151631dbe84a360e11b815290831660048201819052929190911690633b7d094690602401600060405180830381600087803b15801561417157600080fd5b505af1158015614185573d6000803e3d6000fd5b505060005491505060018190036141a35760009450505050506114eb565b60005b818110156142a757876001600160a01b0316600082815481106141cb576141cb614ee5565b6000918252602090912001546001600160a01b0316036142955760006141f2600184614ed2565b8154811061420257614202614ee5565b600091825260208220015481546001600160a01b0390911691908390811061422c5761422c614ee5565b6000918252602082200180546001600160a01b0319166001600160a01b039390931692909217909155805480614264576142646150c2565b600082815260209020810160001990810180546001600160a01b031916905501905550600194506114eb9350505050565b8061429f81614efb565b9150506141a6565b506000979650505050505050565b60105460408051630f29818d60e31b815290516000926001600160a01b03169163794c0c689160048083019260209291908290030181865afa1580156142ff573d6000803e3d6000fd5b505050506040513d601f19601f820116820180604052508101906143239190614e66565b6000818152600e60209081526040808320546001600160a01b0387168452600d835281842085855290925282208054929055919250808210614388576000838152600e60205260408120805483929061437d908490614ed2565b909155506113f99050565b50506000908152600e602052604081205550565b6143a8600160006147ba565b80516000036145a55760005b6000548110156145475760008082815481106143d2576143d2614ee5565b6000918252602080832091909101546001600160a01b03908116808452600f90925260409283902054601054935163a711e6a160e01b8152908216600482018190529294509192169063a711e6a190602401602060405180830381865afa158015614441573d6000803e3d6000fd5b505050506040513d601f19601f8201168201806040525081019061446591906150d8565b80156144e2575060105460405162e9ab0360e81b81526001600160a01b038381166004830181905260248301529091169063e9ab030090604401602060405180830381865afa1580156144bc573d6000803e3d6000fd5b505050506040513d601f19601f820116820180604052508101906144e09190614e66565b155b15614532576001805480820182556000919091527fb10e2d527612073b26eecdfd717e6a320cf44b4afac2b0732d9fcbe2b7fa0cf60180546001600160a01b0319166001600160a01b0384161790555b5050808061453f90614efb565b9150506143b4565b506001546000036111d45760016000808154811061456757614567614ee5565b60009182526020808320909101548354600181018555938352912090910180546001600160a01b0319166001600160a01b0390921691909117905550565b60005b81518110156109f3576001600b60008484815181106145c9576145c9614ee5565b6020908102919091018101516001600160a01b039081168352828201939093526040909101600090812054845460018101865594825291902090920180546001600160a01b031916929091169190911790558061462581614efb565b9150506145a8565b600080306001600160a01b0316636c9230db6040518163ffffffff1660e01b8152600401602060405180830381865afa15801561466e573d6000803e3d6000fd5b505050506040513d601f19601f820116820180604052508101906146929190614e66565b9050600081601060009054906101000a90046001600160a01b03166001600160a01b03166322e3d9866040518163ffffffff1660e01b8152600401602060405180830381865afa1580156146ea573d6000803e3d6000fd5b505050506040513d601f19601f8201168201806040525081019061470e9190614e66565b6147189190614ed2565b905080601060009054906101000a90046001600160a01b03166001600160a01b0316634f9a8d8f6040518163ffffffff1660e01b8152600401602060405180830381865afa15801561476e573d6000803e3d6000fd5b505050506040513d601f19601f820116820180604052508101906147929190614e66565b60165461479f9190614f14565b6147a99084614e95565b6147b39190614e95565b9250505090565b50805460008255906000526020600020908101906111d49190614828565b8280548282559060005260206000209081019282156148185760005260206000209182015b828111156148185782548255916001019190600101906147fd565b50614824929150614828565b5090565b5b808211156148245760008155600101614829565b6001600160a01b03811681146111d457600080fd5b60006020828403121561486457600080fd5b813561486f8161483d565b9392505050565b6000806040838503121561488957600080fd5b82356148948161483d565b946020939093013593505050565b60008083601f8401126148b457600080fd5b50813567ffffffffffffffff8111156148cc57600080fd5b6020830191508360208260051b85010111156148e757600080fd5b9250929050565b6000806020838503121561490157600080fd5b823567ffffffffffffffff81111561491857600080fd5b614924858286016148a2565b90969095509350505050565b6000806040838503121561494357600080fd5b823561494e8161483d565b9150602083013561495e8161483d565b809150509250929050565b602081016006831061498b57634e487b7160e01b600052602160045260246000fd5b91905290565b634e487b7160e01b600052604160045260246000fd5b604051601f8201601f1916810167ffffffffffffffff811182821017156149d0576149d0614991565b604052919050565b600067ffffffffffffffff8211156149f2576149f2614991565b5060051b60200190565b600080600060608486031215614a1157600080fd5b833567ffffffffffffffff811115614a2857600080fd5b8401601f81018613614a3957600080fd5b80356020614a4e614a49836149d8565b6149a7565b82815260059290921b83018101918181019089841115614a6d57600080fd5b938201935b83851015614a8b57843582529382019390820190614a72565b999188013598505060409096013595945050505050565b60008060408385031215614ab557600080fd5b50508035926020909101359150565b600060208284031215614ad657600080fd5b5035919050565b6020808252825182820181905260009190848201906040850190845b81811015614b1e5783516001600160a01b031683529284019291840191600101614af9565b50909695505050505050565b60005b83811015614b45578181015183820152602001614b2d565b50506000910152565b6020815260008251806020840152614b6d816040850160208701614b2a565b601f01601f19169190910160400192915050565b600080600080600080600080600060e08a8c031215614b9f57600080fd5b8935614baa8161483d565b985060208a0135614bba8161483d565b975060408a0135614bca8161483d565b965060608a0135614bda8161483d565b955060808a0135945060a08a013567ffffffffffffffff80821115614bfe57600080fd5b614c0a8d838e016148a2565b909650945060c08c0135915080821115614c2357600080fd5b50614c308c828d016148a2565b915080935050809150509295985092959850929598565b60008060408385031215614c5a57600080fd5b82356fffffffffffffffffffffffffffffffff1981168114614c7b57600080fd5b915060208301357fffff0000000000000000000000000000000000000000000000000000000000008116811461495e57600080fd5b600080600060608486031215614cc557600080fd5b8335614cd08161483d565b92506020840135614ce08161483d565b929592945050506040919091013590565b60008060008060608587031215614d0757600080fd5b8435614d128161483d565b935060208501359250604085013567ffffffffffffffff80821115614d3657600080fd5b818701915087601f830112614d4a57600080fd5b813581811115614d5957600080fd5b886020828501011115614d6b57600080fd5b95989497505060200194505050565b80516fffffffffffffffffffffffffffffffff81168114614d9a57600080fd5b919050565b60008060408385031215614db257600080fd5b614dbb83614d7a565b9150614dc960208401614d7a565b90509250929050565b600060208284031215614de457600080fd5b815167ffffffffffffffff80821115614dfc57600080fd5b818401915084601f830112614e1057600080fd5b815181811115614e2257614e22614991565b614e35601f8201601f19166020016149a7565b9150808252856020828501011115614e4c57600080fd5b614e5d816020840160208601614b2a565b50949350505050565b600060208284031215614e7857600080fd5b5051919050565b634e487b7160e01b600052601160045260246000fd5b808201808211156114eb576114eb614e7f565b634e487b7160e01b600052601260045260246000fd5b600082614ecd57614ecd614ea8565b500490565b818103818111156114eb576114eb614e7f565b634e487b7160e01b600052603260045260246000fd5b600060018201614f0d57614f0d614e7f565b5060010190565b80820281158282048414176114eb576114eb614e7f565b60006020808385031215614f3e57600080fd5b825167ffffffffffffffff811115614f5557600080fd5b8301601f81018513614f6657600080fd5b8051614f74614a49826149d8565b81815260059190911b82018301908381019087831115614f9357600080fd5b928401925b828410156134b4578351614fab8161483d565b82529284019290840190614f98565b6020808252825482820181905260008481528281209092916040850190845b81811015614b1e5783546001600160a01b031683526001938401939285019201614fd9565b60008261500d5761500d614ea8565b500690565b6000806040838503121561502557600080fd5b825167ffffffffffffffff81111561503c57600080fd5b8301601f8101851361504d57600080fd5b8051602061505d614a49836149d8565b82815260059290921b8301810191818101908884111561507c57600080fd5b938201935b8385101561509a57845182529382019390820190615081565b969091015195979596505050505050565b6000816150ba576150ba614e7f565b506000190190565b634e487b7160e01b600052603160045260246000fd5b6000602082840312156150ea57600080fd5b8151801515811461486f57600080fdfea264697066735822122037689af9b66e487e84e4ff3827a7d222fd31bc8abd7371b2ab19b69dced3ee5a64736f6c63430008110033",
  "linkReferences": {},
  "deployedLinkReferences": {}
}