{
  "contractName": "ValidatorSetHbbftMock",
  "abi": [
    {
      "anonymous": false,
      "inputs": [
        {
          "indexed": false,
          "internalType": "address",
          "name": "reportingValidator",
          "type": "address"
        },
        {
          "indexed": false,
          "internalType": "address",
          "name": "maliciousValidator",
          "type": "address"
        },
        {
          "indexed": false,
          "internalType": "uint256",
          "name": "blockNumber",
          "type": "uint256"
        }
      ],
      "name": "ReportedMalicious",
      "type": "event"
    },
    {
      "anonymous": false,
      "inputs": [
        {
          "indexed": false,
          "internalType": "address",
          "name": "validator",
          "type": "address"
        },
        {
          "indexed": false,
          "internalType": "uint256",
          "name": "timestamp",
          "type": "uint256"
        }
      ],
      "name": "ValidatorAvailable",
      "type": "event"
    },
    {
      "anonymous": false,
      "inputs": [
        {
          "indexed": false,
          "internalType": "address",
          "name": "validator",
          "type": "address"
        },
        {
          "indexed": false,
          "internalType": "uint256",
          "name": "timestamp",
          "type": "uint256"
        }
      ],
      "name": "ValidatorUnavailable",
      "type": "event"
    },
    {
      "constant": false,
      "inputs": [
        {
          "internalType": "uint256",
          "name": "_blockNumber",
          "type": "uint256"
        },
        {
          "internalType": "bytes32",
          "name": "_blockhash",
          "type": "bytes32"
        }
      ],
      "name": "announceAvailability",
      "outputs": [],
      "payable": false,
      "stateMutability": "nonpayable",
      "type": "function"
    },
    {
      "constant": true,
      "inputs": [
        {
          "internalType": "address",
          "name": "_miningAddress",
          "type": "address"
        }
      ],
      "name": "areDelegatorsBanned",
      "outputs": [
        {
          "internalType": "bool",
          "name": "",
          "type": "bool"
        }
      ],
      "payable": false,
      "stateMutability": "view",
      "type": "function"
    },
    {
      "constant": true,
      "inputs": [
        {
          "internalType": "address",
          "name": "",
          "type": "address"
        }
      ],
      "name": "banCounter",
      "outputs": [
        {
          "internalType": "uint256",
          "name": "",
          "type": "uint256"
        }
      ],
      "payable": false,
      "stateMutability": "view",
      "type": "function"
    },
    {
      "constant": true,
      "inputs": [
        {
          "internalType": "address",
          "name": "",
          "type": "address"
        }
      ],
      "name": "banReason",
      "outputs": [
        {
          "internalType": "bytes32",
          "name": "",
          "type": "bytes32"
        }
      ],
      "payable": false,
      "stateMutability": "view",
      "type": "function"
    },
    {
      "constant": true,
      "inputs": [
        {
          "internalType": "address",
          "name": "",
          "type": "address"
        }
      ],
      "name": "bannedDelegatorsUntil",
      "outputs": [
        {
          "internalType": "uint256",
          "name": "",
          "type": "uint256"
        }
      ],
      "payable": false,
      "stateMutability": "view",
      "type": "function"
    },
    {
      "constant": true,
      "inputs": [
        {
          "internalType": "address",
          "name": "",
          "type": "address"
        }
      ],
      "name": "bannedUntil",
      "outputs": [
        {
          "internalType": "uint256",
          "name": "",
          "type": "uint256"
        }
      ],
      "payable": false,
      "stateMutability": "view",
      "type": "function"
    },
    {
      "constant": true,
      "inputs": [],
      "name": "blockRewardContract",
      "outputs": [
        {
          "internalType": "address",
          "name": "",
          "type": "address"
        }
      ],
      "payable": false,
      "stateMutability": "view",
      "type": "function"
    },
    {
      "constant": true,
      "inputs": [
        {
          "internalType": "address",
          "name": "_miningAddress",
          "type": "address"
        }
      ],
      "name": "canCallAnnounceAvailability",
      "outputs": [
        {
          "internalType": "bool",
          "name": "",
          "type": "bool"
        }
      ],
      "payable": false,
      "stateMutability": "view",
      "type": "function"
    },
    {
      "constant": false,
      "inputs": [],
      "name": "finalizeChange",
      "outputs": [],
      "payable": false,
      "stateMutability": "nonpayable",
      "type": "function"
    },
    {
      "constant": true,
      "inputs": [
        {
          "internalType": "address",
          "name": "_miningAddress",
          "type": "address"
        }
      ],
      "name": "getPendingValidatorKeyGenerationMode",
      "outputs": [
        {
          "internalType": "enum IValidatorSetHbbft.KeyGenMode",
          "name": "",
          "type": "uint8"
        }
      ],
      "payable": false,
      "stateMutability": "view",
      "type": "function"
    },
    {
      "constant": true,
      "inputs": [],
      "name": "getPendingValidators",
      "outputs": [
        {
          "internalType": "address[]",
          "name": "",
          "type": "address[]"
        }
      ],
      "payable": false,
      "stateMutability": "view",
      "type": "function"
    },
    {
      "constant": true,
      "inputs": [],
      "name": "getPreviousValidators",
      "outputs": [
        {
          "internalType": "address[]",
          "name": "",
          "type": "address[]"
        }
      ],
      "payable": false,
      "stateMutability": "view",
      "type": "function"
    },
    {
      "constant": true,
      "inputs": [
        {
          "internalType": "address",
          "name": "_miningAddress",
          "type": "address"
        }
      ],
      "name": "getPublicKey",
      "outputs": [
        {
          "internalType": "bytes",
          "name": "",
          "type": "bytes"
        }
      ],
      "payable": false,
      "stateMutability": "view",
      "type": "function"
    },
    {
      "constant": true,
      "inputs": [
        {
          "internalType": "uint256",
          "name": "_possibleValidatorCount",
          "type": "uint256"
        }
      ],
      "name": "getValidatorCountSweetSpot",
      "outputs": [
        {
          "internalType": "uint256",
          "name": "",
          "type": "uint256"
        }
      ],
      "payable": false,
      "stateMutability": "view",
      "type": "function"
    },
    {
      "constant": true,
      "inputs": [],
      "name": "getValidators",
      "outputs": [
        {
          "internalType": "address[]",
          "name": "",
          "type": "address[]"
        }
      ],
      "payable": false,
      "stateMutability": "view",
      "type": "function"
    },
    {
      "constant": false,
      "inputs": [],
      "name": "handleFailedKeyGeneration",
      "outputs": [],
      "payable": false,
      "stateMutability": "nonpayable",
      "type": "function"
    },
    {
      "constant": false,
      "inputs": [
        {
          "internalType": "address",
          "name": "_blockRewardContract",
          "type": "address"
        },
        {
          "internalType": "address",
          "name": "_randomContract",
          "type": "address"
        },
        {
          "internalType": "address",
          "name": "_stakingContract",
          "type": "address"
        },
        {
          "internalType": "address",
          "name": "_keyGenHistoryContract",
          "type": "address"
        },
        {
          "internalType": "address[]",
          "name": "_initialMiningAddresses",
          "type": "address[]"
        },
        {
          "internalType": "address[]",
          "name": "_initialStakingAddresses",
          "type": "address[]"
        }
      ],
      "name": "initialize",
      "outputs": [],
      "payable": false,
      "stateMutability": "nonpayable",
      "type": "function"
    },
    {
      "constant": true,
      "inputs": [],
      "name": "isInitialized",
      "outputs": [
        {
          "internalType": "bool",
          "name": "",
          "type": "bool"
        }
      ],
      "payable": false,
      "stateMutability": "view",
      "type": "function"
    },
    {
      "constant": true,
      "inputs": [
        {
          "internalType": "address",
          "name": "_miningAddress",
          "type": "address"
        }
      ],
      "name": "isPendingValidator",
      "outputs": [
        {
          "internalType": "bool",
          "name": "",
          "type": "bool"
        }
      ],
      "payable": false,
      "stateMutability": "view",
      "type": "function"
    },
    {
      "constant": true,
      "inputs": [
        {
          "internalType": "address",
          "name": "_miningAddress",
          "type": "address"
        }
      ],
      "name": "isReportValidatorValid",
      "outputs": [
        {
          "internalType": "bool",
          "name": "",
          "type": "bool"
        }
      ],
      "payable": false,
      "stateMutability": "view",
      "type": "function"
    },
    {
      "constant": true,
      "inputs": [
        {
          "internalType": "address",
          "name": "",
          "type": "address"
        }
      ],
      "name": "isValidator",
      "outputs": [
        {
          "internalType": "bool",
          "name": "",
          "type": "bool"
        }
      ],
      "payable": false,
      "stateMutability": "view",
      "type": "function"
    },
    {
      "constant": true,
      "inputs": [
        {
          "internalType": "address",
          "name": "_miningAddress",
          "type": "address"
        }
      ],
      "name": "isValidatorBanned",
      "outputs": [
        {
          "internalType": "bool",
          "name": "",
          "type": "bool"
        }
      ],
      "payable": false,
      "stateMutability": "view",
      "type": "function"
    },
    {
      "constant": true,
      "inputs": [
        {
          "internalType": "address",
          "name": "_miningAddress",
          "type": "address"
        }
      ],
      "name": "isValidatorOrPending",
      "outputs": [
        {
          "internalType": "bool",
          "name": "",
          "type": "bool"
        }
      ],
      "payable": false,
      "stateMutability": "view",
      "type": "function"
    },
    {
      "constant": true,
      "inputs": [
        {
          "internalType": "address",
          "name": "",
          "type": "address"
        }
      ],
      "name": "isValidatorPrevious",
      "outputs": [
        {
          "internalType": "bool",
          "name": "",
          "type": "bool"
        }
      ],
      "payable": false,
      "stateMutability": "view",
      "type": "function"
    },
    {
      "constant": true,
      "inputs": [],
      "name": "keyGenHistoryContract",
      "outputs": [
        {
          "internalType": "contract IKeyGenHistory",
          "name": "",
          "type": "address"
        }
      ],
      "payable": false,
      "stateMutability": "view",
      "type": "function"
    },
    {
      "constant": true,
      "inputs": [
        {
          "internalType": "address",
          "name": "_miningAddress",
          "type": "address"
        },
        {
          "internalType": "uint256",
          "name": "_blockNumber",
          "type": "uint256"
        }
      ],
      "name": "maliceReportedForBlock",
      "outputs": [
        {
          "internalType": "address[]",
          "name": "",
          "type": "address[]"
        }
      ],
      "payable": false,
      "stateMutability": "view",
      "type": "function"
    },
    {
      "constant": true,
      "inputs": [],
      "name": "maxValidators",
      "outputs": [
        {
          "internalType": "uint256",
          "name": "",
          "type": "uint256"
        }
      ],
      "payable": false,
      "stateMutability": "view",
      "type": "function"
    },
    {
      "constant": true,
      "inputs": [
        {
          "internalType": "address",
          "name": "",
          "type": "address"
        }
      ],
      "name": "miningByStakingAddress",
      "outputs": [
        {
          "internalType": "address",
          "name": "",
          "type": "address"
        }
      ],
      "payable": false,
      "stateMutability": "view",
      "type": "function"
    },
    {
      "constant": false,
      "inputs": [],
      "name": "newValidatorSet",
      "outputs": [],
      "payable": false,
      "stateMutability": "nonpayable",
      "type": "function"
    },
    {
      "constant": true,
      "inputs": [
        {
          "internalType": "address",
          "name": "_stakingAddress",
          "type": "address"
        }
      ],
      "name": "publicKeyByStakingAddress",
      "outputs": [
        {
          "internalType": "bytes",
          "name": "",
          "type": "bytes"
        }
      ],
      "payable": false,
      "stateMutability": "view",
      "type": "function"
    },
    {
      "constant": true,
      "inputs": [],
      "name": "randomContract",
      "outputs": [
        {
          "internalType": "address",
          "name": "",
          "type": "address"
        }
      ],
      "payable": false,
      "stateMutability": "view",
      "type": "function"
    },
    {
      "constant": false,
      "inputs": [
        {
          "internalType": "address[]",
          "name": "_miningAddresses",
          "type": "address[]"
        }
      ],
      "name": "removeMaliciousValidators",
      "outputs": [],
      "payable": false,
      "stateMutability": "nonpayable",
      "type": "function"
    },
    {
      "constant": false,
      "inputs": [
        {
          "internalType": "address",
          "name": "_maliciousMiningAddress",
          "type": "address"
        },
        {
          "internalType": "uint256",
          "name": "_blockNumber",
          "type": "uint256"
        },
        {
          "internalType": "bytes",
          "name": "",
          "type": "bytes"
        }
      ],
      "name": "reportMalicious",
      "outputs": [],
      "payable": false,
      "stateMutability": "nonpayable",
      "type": "function"
    },
    {
      "constant": true,
      "inputs": [
        {
          "internalType": "address",
          "name": "_reportingMiningAddress",
          "type": "address"
        },
        {
          "internalType": "address",
          "name": "_maliciousMiningAddress",
          "type": "address"
        },
        {
          "internalType": "uint256",
          "name": "_blockNumber",
          "type": "uint256"
        }
      ],
      "name": "reportMaliciousCallable",
      "outputs": [
        {
          "internalType": "bool",
          "name": "callable",
          "type": "bool"
        },
        {
          "internalType": "bool",
          "name": "removeReportingValidator",
          "type": "bool"
        }
      ],
      "payable": false,
      "stateMutability": "view",
      "type": "function"
    },
    {
      "constant": true,
      "inputs": [
        {
          "internalType": "address",
          "name": "",
          "type": "address"
        },
        {
          "internalType": "uint256",
          "name": "",
          "type": "uint256"
        }
      ],
      "name": "reportingCounter",
      "outputs": [
        {
          "internalType": "uint256",
          "name": "",
          "type": "uint256"
        }
      ],
      "payable": false,
      "stateMutability": "view",
      "type": "function"
    },
    {
      "constant": true,
      "inputs": [
        {
          "internalType": "uint256",
          "name": "",
          "type": "uint256"
        }
      ],
      "name": "reportingCounterTotal",
      "outputs": [
        {
          "internalType": "uint256",
          "name": "",
          "type": "uint256"
        }
      ],
      "payable": false,
      "stateMutability": "view",
      "type": "function"
    },
    {
      "constant": false,
      "inputs": [
        {
          "internalType": "uint256",
          "name": "_maxValidators",
          "type": "uint256"
        }
      ],
      "name": "setMaxValidators",
      "outputs": [],
      "payable": false,
      "stateMutability": "nonpayable",
      "type": "function"
    },
    {
      "constant": false,
      "inputs": [
        {
          "internalType": "address",
          "name": "_miningAddress",
          "type": "address"
        },
        {
          "internalType": "address",
          "name": "_stakingAddress",
          "type": "address"
        }
      ],
      "name": "setStakingAddress",
      "outputs": [],
      "payable": false,
      "stateMutability": "nonpayable",
      "type": "function"
    },
    {
      "constant": true,
      "inputs": [
        {
          "internalType": "address",
          "name": "",
          "type": "address"
        }
      ],
      "name": "stakingByMiningAddress",
      "outputs": [
        {
          "internalType": "address",
          "name": "",
          "type": "address"
        }
      ],
      "payable": false,
      "stateMutability": "view",
      "type": "function"
    },
    {
      "constant": true,
      "inputs": [],
      "name": "stakingContract",
      "outputs": [
        {
          "internalType": "contract IStakingHbbft",
          "name": "",
          "type": "address"
        }
      ],
      "payable": false,
      "stateMutability": "view",
      "type": "function"
    },
    {
      "constant": true,
      "inputs": [
        {
          "internalType": "address",
          "name": "",
          "type": "address"
        }
      ],
      "name": "validatorAvailableSince",
      "outputs": [
        {
          "internalType": "uint256",
          "name": "",
          "type": "uint256"
        }
      ],
      "payable": false,
      "stateMutability": "view",
      "type": "function"
    },
    {
      "constant": true,
      "inputs": [
        {
          "internalType": "address",
          "name": "",
          "type": "address"
        }
      ],
      "name": "validatorCounter",
      "outputs": [
        {
          "internalType": "uint256",
          "name": "",
          "type": "uint256"
        }
      ],
      "payable": false,
      "stateMutability": "view",
      "type": "function"
    },
    {
      "constant": true,
      "inputs": [
        {
          "internalType": "address",
          "name": "",
          "type": "address"
        }
      ],
      "name": "validatorLastSuccess",
      "outputs": [
        {
          "internalType": "uint256",
          "name": "",
          "type": "uint256"
        }
      ],
      "payable": false,
      "stateMutability": "view",
      "type": "function"
    },
    {
      "constant": false,
      "inputs": [
        {
          "internalType": "address",
          "name": "_miningAddress",
          "type": "address"
        },
        {
          "internalType": "uint256",
          "name": "_bannedUntil",
          "type": "uint256"
        }
      ],
      "name": "setBannedUntil",
      "outputs": [],
      "payable": false,
      "stateMutability": "nonpayable",
      "type": "function"
    },
    {
      "constant": false,
      "inputs": [
        {
          "internalType": "address",
          "name": "_address",
          "type": "address"
        }
      ],
      "name": "setBlockRewardContract",
      "outputs": [],
      "payable": false,
      "stateMutability": "nonpayable",
      "type": "function"
    },
    {
      "constant": false,
      "inputs": [
        {
          "internalType": "address",
          "name": "_address",
          "type": "address"
        }
      ],
      "name": "setRandomContract",
      "outputs": [],
      "payable": false,
      "stateMutability": "nonpayable",
      "type": "function"
    },
    {
      "constant": false,
      "inputs": [
        {
          "internalType": "address",
          "name": "_address",
          "type": "address"
        }
      ],
      "name": "setStakingContract",
      "outputs": [],
      "payable": false,
      "stateMutability": "nonpayable",
      "type": "function"
    },
    {
      "constant": false,
      "inputs": [
        {
          "internalType": "address",
          "name": "_address",
          "type": "address"
        }
      ],
      "name": "setSystemAddress",
      "outputs": [],
      "payable": false,
      "stateMutability": "nonpayable",
      "type": "function"
    },
    {
      "constant": false,
      "inputs": [
        {
          "internalType": "uint256",
          "name": "_timeStamp",
          "type": "uint256"
        }
      ],
      "name": "setCurrentTimestamp",
      "outputs": [],
      "payable": false,
      "stateMutability": "nonpayable",
      "type": "function"
    },
    {
      "constant": true,
      "inputs": [
        {
          "internalType": "uint256[]",
          "name": "_likelihood",
          "type": "uint256[]"
        },
        {
          "internalType": "uint256",
          "name": "_likelihoodSum",
          "type": "uint256"
        },
        {
          "internalType": "uint256",
          "name": "_randomNumber",
          "type": "uint256"
        }
      ],
      "name": "getRandomIndex",
      "outputs": [
        {
          "internalType": "uint256",
          "name": "",
          "type": "uint256"
        }
      ],
      "payable": false,
      "stateMutability": "pure",
      "type": "function"
    },
    {
      "constant": true,
      "inputs": [],
      "name": "getCurrentTimestamp",
      "outputs": [
        {
          "internalType": "uint256",
          "name": "",
          "type": "uint256"
        }
      ],
      "payable": false,
      "stateMutability": "view",
      "type": "function"
    }
  ],
  "bytecode": "0x608060405234801561001057600080fd5b50614c82806100206000396000f3fe608060405234801561001057600080fd5b50600436106102f05760003560e01c8063857cdbb81161019d578063b56b366b116100e9578063db2c870c116100a2578063efd049471161007c578063efd0494714610ba2578063f51726f014610bbf578063facd743b14610be5578063fb64aac114610c0b576102f0565b8063db2c870c14610b6c578063ee99205c14610b92578063eebc7a3914610b9a576102f0565b8063b56b366b14610a6a578063b7ab4db514610a96578063c476dd4014610a9e578063c9e9694d14610b21578063ccf69e9b14610b47578063d2dd2f1614610b4f576102f0565b8063a670eb5611610156578063a92252ae11610130578063a92252ae14610a0e578063ade1900a14610a34578063b41832e414610a3c578063b47aef1f14610a62576102f0565b8063a670eb5614610971578063a68b5b76146109c2578063a881c5fd146109e8576102f0565b8063857cdbb81461082157806387eed76a146108bc5780639881933d146108e25780639bb2ea5a146109085780639dd373b914610925578063a0d16cad1461094b576102f0565b806327a3e16b1161025c5780635836d08a1161021557806366efcb78116101ef57806366efcb781461079c5780636c9230db146107b957806375286211146107c157806385602ad5146107c9576102f0565b80635836d08a146107485780635ccee1de1461076e57806360e5c52014610776576102f0565b806327a3e16b146105c95780633755243b146105ef578063392e53cd1461061b57806343bcce9f14610637578063515bbf2c1461065a57806356b54bae14610740576102f0565b80630a4c1072116102ae5780630a4c10721461043957806314e28d90146104675780631761edb1146104b15780631a7fa237146105575780631d0cd4c61461057d5780631ee4d0bc146105a3576102f0565b8062535175146102f5578063030360d21461033757806306210197146103655780630636bdac1461038b57806308ac5256146103f95780630933e3a714610413575b600080fd5b61031b6004803603602081101561030b57600080fd5b50356001600160a01b0316610c31565b604080516001600160a01b039092168252519081900360200190f35b6103636004803603604081101561034d57600080fd5b506001600160a01b038135169060200135610c4c565b005b6103636004803603602081101561037b57600080fd5b50356001600160a01b0316610c75565b610363600480360360208110156103a157600080fd5b810190602081018135600160201b8111156103bb57600080fd5b8201836020820111156103cd57600080fd5b803590602001918460208302840111600160201b831117156103ee57600080fd5b509092509050610c97565b610401610d09565b60408051918252519081900360200190f35b6103636004803603602081101561042957600080fd5b50356001600160a01b0316610d0f565b6103636004803603604081101561044f57600080fd5b506001600160a01b0381358116916020013516610d31565b61048d6004803603602081101561047d57600080fd5b50356001600160a01b0316610d92565b6040518082600581111561049d57fe5b60ff16815260200191505060405180910390f35b610401600480360360608110156104c757600080fd5b810190602081018135600160201b8111156104e157600080fd5b8201836020820111156104f357600080fd5b803590602001918460208302840111600160201b8311171561051457600080fd5b919080806020026020016040519081016040528093929190818152602001838360200280828437600092019190915250929550508235935050506020013561104b565b6104016004803603602081101561056d57600080fd5b50356001600160a01b0316611089565b6104016004803603602081101561059357600080fd5b50356001600160a01b031661109b565b61031b600480360360208110156105b957600080fd5b50356001600160a01b03166110ad565b610363600480360360208110156105df57600080fd5b50356001600160a01b03166110c8565b6104016004803603604081101561060557600080fd5b506001600160a01b0381351690602001356110ea565b610623611107565b604080519115158252519081900360200190f35b6103636004803603604081101561064d57600080fd5b5080359060200135611119565b610363600480360360c081101561067057600080fd5b6001600160a01b03823581169260208101358216926040820135831692606083013516919081019060a081016080820135600160201b8111156106b257600080fd5b8201836020820111156106c457600080fd5b803590602001918460208302840111600160201b831117156106e557600080fd5b919390929091602081019035600160201b81111561070257600080fd5b82018360208201111561071457600080fd5b803590602001918460208302840111600160201b8311171561073557600080fd5b509092509050611354565b61031b6116df565b6104016004803603602081101561075e57600080fd5b50356001600160a01b03166116ee565b610363611700565b6104016004803603602081101561078c57600080fd5b50356001600160a01b0316611775565b610363600480360360208110156107b257600080fd5b5035611787565b6104016117cc565b6103636117d2565b6107d1611a04565b60408051602080825283518183015283519192839290830191858101910280838360005b8381101561080d5781810151838201526020016107f5565b505050509050019250505060405180910390f35b6108476004803603602081101561083757600080fd5b50356001600160a01b0316611a66565b6040805160208082528351818301528351919283929083019185019080838360005b83811015610881578181015183820152602001610869565b50505050905090810190601f1680156108ae5780820380516001836020036101000a031916815260200191505b509250505060405180910390f35b610623600480360360208110156108d257600080fd5b50356001600160a01b0316611bb7565b610847600480360360208110156108f857600080fd5b50356001600160a01b0316611dfe565b6103636004803603602081101561091e57600080fd5b5035611e4f565b6103636004803603602081101561093b57600080fd5b50356001600160a01b0316611eab565b6106236004803603602081101561096157600080fd5b50356001600160a01b0316611ecd565b6109a76004803603606081101561098757600080fd5b506001600160a01b03813581169160208101359091169060400135611eff565b60408051921515835290151560208301528051918290030190f35b610623600480360360208110156109d857600080fd5b50356001600160a01b03166120f8565b610623600480360360208110156109fe57600080fd5b50356001600160a01b031661210d565b61062360048036036020811015610a2457600080fd5b50356001600160a01b0316612190565b6103636121df565b61040160048036036020811015610a5257600080fd5b50356001600160a01b0316612c21565b61031b612c33565b6107d160048036036040811015610a8057600080fd5b506001600160a01b038135169060200135612c42565b6107d1612cc1565b61036360048036036060811015610ab457600080fd5b6001600160a01b0382351691602081013591810190606081016040820135600160201b811115610ae357600080fd5b820183602082011115610af557600080fd5b803590602001918460018302840111600160201b83111715610b1657600080fd5b509092509050612d21565b61040160048036036020811015610b3757600080fd5b50356001600160a01b0316612f65565b61031b612f77565b61040160048036036020811015610b6557600080fd5b5035612f86565b61040160048036036020811015610b8257600080fd5b50356001600160a01b0316612f98565b61031b612faa565b6107d1612fb9565b61040160048036036020811015610bb857600080fd5b5035613019565b61062360048036036020811015610bd557600080fd5b50356001600160a01b031661307e565b61062360048036036020811015610bfb57600080fd5b50356001600160a01b03166130d5565b61062360048036036020811015610c2157600080fd5b50356001600160a01b03166130ea565b600b602052600090815260409020546001600160a01b031681565b6001600160a01b0390911660009081526005602090815260408083208490556006909152902055565b601780546001600160a01b0319166001600160a01b0392909216919091179055565b610c9f61313f565b6001600160a01b0316336001600160a01b031614610cbc57600080fd5b610d0582828080602002602001604051908101604052809392919081815260200183836020028082843760009201919091525067696e61637469766560c01b925061314e915050565b5050565b60155481565b600c80546001600160a01b0319166001600160a01b0392909216919091179055565b6010546001600160a01b03163314610d88576040805162461bcd60e51b815260206004820152601560248201527413db9b1e4814dd185ada5b99c810dbdb9d1c9858dd605a1b604482015290519081900360640190fd5b610d0582826131a0565b6000610d9d826130ea565b610da957506000611046565b60115460408051637be02c2b60e01b8152815160009384936001600160a01b0390911692637be02c2b9260048083019392829003018186803b158015610dee57600080fd5b505afa158015610e02573d6000803e3d6000fd5b505050506040513d6040811015610e1857600080fd5b50805160209091015160015491935091506001600160801b0383161015610f9957601154604080516399de1a4360e01b81526001600160a01b038781166004830152915160609392909216916399de1a4391602480820192600092909190829003018186803b158015610e8a57600080fd5b505afa158015610e9e573d6000803e3d6000fd5b505050506040513d6000823e601f3d908101601f191682016040526020811015610ec757600080fd5b8101908080516040519392919084600160201b821115610ee657600080fd5b908301906020820185811115610efb57600080fd5b8251600160201b811182820188101715610f1457600080fd5b82525081516020918201929091019080838360005b83811015610f41578181015183820152602001610f29565b50505050905090810190601f168015610f6e5780820380516001836020036101000a031916815260200191505b506040525050509050805160001415610f8d5760019350505050611046565b60029350505050611046565b6001546001600160801b038216101561103f5760115460408051631baeec3f60e31b81526001600160a01b0387811660048301529151919092169163dd7761f8916024808301926020929190829003018186803b158015610ff957600080fd5b505afa15801561100d573d6000803e3d6000fd5b505050506040513d602081101561102357600080fd5b505161103457600392505050611046565b600492505050611046565b6005925050505b919050565b6000611081848484604051602001808281526020019150506040516020818303038152906040528051906020012060001c61344d565b949350505050565b60066020526000908152604090205481565b60046020526000908152604090205481565b600f602052600090815260409020546001600160a01b031681565b600880546001600160a01b0319166001600160a01b0392909216919091179055565b600d60209081526000928352604080842090915290825290205481565b6008546001600160a01b031615155b90565b6111223361307e565b61115d5760405162461bcd60e51b8152600401808060200182810382526025815260200180614af56025913960400191505060405180910390fd5b43821061119b5760405162461bcd60e51b815260040180806020018281038252602a815260200180614acb602a913960400191505060405180910390fd5b4382601001116111dc5760405162461bcd60e51b8152600401808060200182810382526045815260200180614b7d6045913960600191505060405180910390fd5b8082401461121b5760405162461bcd60e51b815260040180806020018281038252603381526020018061493c6033913960400191505060405180910390fd5b6000306001600160a01b0316636c9230db6040518163ffffffff1660e01b815260040160206040518083038186803b15801561125657600080fd5b505afa15801561126a573d6000803e3d6000fd5b505050506040513d602081101561128057600080fd5b5051336000818152601460209081526040918290208490558151928352820183905280519293507f705d65dbee06de60e6465d68371ce849d5a1ead53e53d01a413b2b01393aa02292918290030190a16112d933612190565b61134f57601054336000908152600f6020526040808220548151631ec56e5360e21b81526001600160a01b0391821660048201529151931692637b15b94c9260248084019391929182900301818387803b15801561133657600080fd5b505af115801561134a573d6000803e3d6000fd5b505050505b505050565b61135c61349a565b6001600160a01b0316336001600160a01b03161480611393575061137e61349a565b6001600160a01b0316326001600160a01b0316145b806113ac57506113a161349a565b6001600160a01b0316155b806113b5575043155b6113f05760405162461bcd60e51b815260040180806020018281038252603e815260200180614b1a603e913960400191505060405180910390fd5b6113f8611107565b156114345760405162461bcd60e51b815260040180806020018281038252602c81526020018061496f602c913960400191505060405180910390fd5b6001600160a01b0388166114795760405162461bcd60e51b81526004018080602001828103825260298152602001806149136029913960400191505060405180910390fd5b6001600160a01b0387166114be5760405162461bcd60e51b81526004018080602001828103825260248152602001806148ef6024913960400191505060405180910390fd5b6001600160a01b0386166115035760405162461bcd60e51b8152600401808060200182810382526025815260200180614aa66025913960400191505060405180910390fd5b6001600160a01b0385166115485760405162461bcd60e51b815260040180806020018281038252602b815260200180614a0c602b913960400191505060405180910390fd5b826115845760405162461bcd60e51b81526004018080602001828103825260258152602001806149e76025913960400191505060405180910390fd5b8281146115c25760405162461bcd60e51b8152600401808060200182810382526038815260200180614a6e6038913960400191505060405180910390fd5b600880546001600160a01b03808b166001600160a01b031992831617909255600c80548a841690831617905560108054898416908316179055601180549288169290911691909117905560005b838110156116cf57600085858381811061162557fe5b60008054600180820183557f290decd9548b62a8d60345a988386fc84ba6bc95484008f6362f93160ef3e5639091018054602094850296909601356001600160a01b03166001600160a01b031990961686179055848252600983526040808320805460ff1916831790556012909352919020805490910190555090506116c6818585858181106116b157fe5b905060200201356001600160a01b03166131a0565b5060010161160f565b5050601960155550505050505050565b6008546001600160a01b031681565b60056020526000908152604090205481565b6008546001600160a01b0316331461175b576040805162461bcd60e51b815260206004820152601960248201527813db9b1e48109b1bd8dad4995dd85c990818dbdb9d1c9858dd603a1b604482015290519081900360640190fd5b604080516000815260208101909152611773906134bf565b565b60146020526000908152604090205481565b60165481116117c75760405162461bcd60e51b8152600401808060200182810382526037815260200180614a376037913960400191505060405180910390fd5b601655565b60165490565b6008546001600160a01b0316331461182d576040805162461bcd60e51b815260206004820152601960248201527813db9b1e48109b1bd8dad4995dd85c990818dbdb9d1c9858dd603a1b604482015290519081900360640190fd5b600154156118455761183d613d7e565b611845613e49565b601060009054906101000a90046001600160a01b03166001600160a01b031663ee435f556040518163ffffffff1660e01b8152600401600060405180830381600087803b15801561189557600080fd5b505af11580156118a9573d6000803e3d6000fd5b50505050601160009054906101000a90046001600160a01b03166001600160a01b0316632c6f194d6040518163ffffffff1660e01b8152600401600060405180830381600087803b1580156118fd57600080fd5b505af1158015611911573d6000803e3d6000fd5b5050505060016000611923919061479f565b601060009054906101000a90046001600160a01b03166001600160a01b0316638247a239306001600160a01b0316636c9230db6040518163ffffffff1660e01b815260040160206040518083038186803b15801561198057600080fd5b505afa158015611994573d6000803e3d6000fd5b505050506040513d60208110156119aa57600080fd5b5051604080516001600160e01b031960e085901b168152600481019290925251602480830192600092919082900301818387803b1580156119ea57600080fd5b505af11580156119fe573d6000803e3d6000fd5b50505050565b60606002805480602002602001604051908101604052809291908181526020018280548015611a5c57602002820191906000526020600020905b81546001600160a01b03168152600190910190602001808311611a3e575b5050505050905090565b6010546001600160a01b038281166000908152600f6020526040808220548151634e9b426d60e01b8152908416600482015290516060949390931692634e9b426d92602480840193919291829003018186803b158015611ac557600080fd5b505afa158015611ad9573d6000803e3d6000fd5b505050506040513d6000823e601f3d908101601f191682016040526020811015611b0257600080fd5b8101908080516040519392919084600160201b821115611b2157600080fd5b908301906020820185811115611b3657600080fd5b8251600160201b811182820188101715611b4f57600080fd5b82525081516020918201929091019080838360005b83811015611b7c578181015183820152602001611b64565b50505050905090810190601f168015611ba95780820380516001836020036101000a031916815260200191505b506040525050509050919050565b6001600160a01b038116600090815260096020526040812054819060ff168015611be75750611be583612190565b155b9050601060009054906101000a90046001600160a01b03166001600160a01b031663794c0c686040518163ffffffff1660e01b815260040160206040518083038186803b158015611c3757600080fd5b505afa158015611c4b573d6000803e3d6000fd5b505050506040513d6020811015611c6157600080fd5b5051611c6e579050611046565b60105460408051634f9a8d8f60e01b815290516005926001600160a01b031691634f9a8d8f916004808301926020929190829003018186803b158015611cb357600080fd5b505afa158015611cc7573d6000803e3d6000fd5b505050506040513d6020811015611cdd57600080fd5b505181611ce657fe5b04601060009054906101000a90046001600160a01b03166001600160a01b0316639b03d7446040518163ffffffff1660e01b815260040160206040518083038186803b158015611d3557600080fd5b505afa158015611d49573d6000803e3d6000fd5b505050506040513d6020811015611d5f57600080fd5b505160408051636c9230db60e01b815290513091636c9230db916004808301926020929190829003018186803b158015611d9857600080fd5b505afa158015611dac573d6000803e3d6000fd5b505050506040513d6020811015611dc257600080fd5b50510311611df8576001600160a01b0383166000908152600a602052604090205460ff168180611def5750805b92505050611046565b92915050565b60105460408051634e9b426d60e01b81526001600160a01b03848116600483015291516060939290921691634e9b426d91602480820192600092909190829003018186803b158015611ac557600080fd5b611e5761349a565b6001600160a01b0316336001600160a01b031614611ea65760405162461bcd60e51b815260040180806020018281038252602b815260200180614c23602b913960400191505060405180910390fd5b601555565b601080546001600160a01b0319166001600160a01b0392909216919091179055565b6001600160a01b03811660009081526009602052604081205460ff1615611ef657506001611046565b611df8826130ea565b600080611f0b85611bb7565b611f1a575060009050806120f0565b611f2384611bb7565b611f32575060009050806120f0565b60005460018111156120295760105460408051630f29818d60e31b815290516000926001600160a01b03169163794c0c68916004808301926020929190829003018186803b158015611f8357600080fd5b505afa158015611f97573d6000803e3d6000fd5b505050506040513d6020811015611fad57600080fd5b50516001600160a01b0388166000908152600d60209081526040808320848452825280832054600e9092528220549293509190828210611ff9576001850383830381611ff557fe5b0490505b846032028311801561200d575080600a0283115b1561202457600060019650965050505050506120f0565b505050505b4380851115612040576000809350935050506120f0565b60648082118015612052575080820386105b1561206657600080945094505050506120f0565b6001600160a01b03871660009081526003602090815260408083208984529091528120805490915b818110156120e1578a6001600160a01b03168382815481106120ac57fe5b6000918252602090912001546001600160a01b031614156120d957600080975097505050505050506120f0565b60010161208e565b50600160009650965050505050505b935093915050565b600a6020526000908152604090205460ff1681565b6001600160a01b0381166000908152600660209081526040808320548151636c9230db60e01b8152915190923092636c9230db9260048083019392829003018186803b15801561215c57600080fd5b505afa158015612170573d6000803e3d6000fd5b505050506040513d602081101561218657600080fd5b5051111592915050565b6001600160a01b0381166000908152600560209081526040808320548151636c9230db60e01b8152915190923092636c9230db9260048083019392829003018186803b15801561215c57600080fd5b6008546001600160a01b0316331461223a576040805162461bcd60e51b815260206004820152601960248201527813db9b1e48109b1bd8dad4995dd85c990818dbdb9d1c9858dd603a1b604482015290519081900360640190fd5b601060009054906101000a90046001600160a01b03166001600160a01b03166322e3d9866040518163ffffffff1660e01b815260040160206040518083038186803b15801561228857600080fd5b505afa15801561229c573d6000803e3d6000fd5b505050506040513d60208110156122b257600080fd5b505160408051636c9230db60e01b815290513091636c9230db916004808301926020929190829003018186803b1580156122eb57600080fd5b505afa1580156122ff573d6000803e3d6000fd5b505050506040513d602081101561231557600080fd5b505110156123545760405162461bcd60e51b815260040180806020018281038252604c81526020018061499b604c913960600191505060405180910390fd5b601060009054906101000a90046001600160a01b03166001600160a01b031663a5d54f656040518163ffffffff1660e01b815260040160006040518083038186803b1580156123a257600080fd5b505afa1580156123b6573d6000803e3d6000fd5b505050506040513d6000823e601f3d908101601f1916820160405260208110156123df57600080fd5b8101908080516040519392919084600160201b8211156123fe57600080fd5b90830190602082018581111561241357600080fd5b82518660208202830111600160201b8211171561242f57600080fd5b82525081516020918201928201910280838360005b8381101561245c578181015183820152602001612444565b50505050905001604052505050516000141561247757611773565b60015461248357611773565b606060018080549050036040519080825280602002602001820160405280156124b6578160200160208202803883390190505b5060115460408051637be02c2b60e01b81528151939450600093849384936001600160a01b0390911692637be02c2b9260048083019392829003018186803b15801561250157600080fd5b505afa158015612515573d6000803e3d6000fd5b505050506040513d604081101561252b57600080fd5b508051602090910151909250905060005b6001548110156128f75760006001828154811061255557fe5b60009182526020822001546001546001600160a01b0390911692506001600160801b03861610156126c457601154604080516399de1a4360e01b81526001600160a01b038581166004830152915160009392909216916399de1a43916024808201928692909190829003018186803b1580156125d057600080fd5b505afa1580156125e4573d6000803e3d6000fd5b505050506040513d6000823e601f3d908101601f19168201604052602081101561260d57600080fd5b8101908080516040519392919084600160201b82111561262c57600080fd5b90830190602082018581111561264157600080fd5b8251600160201b81118282018810171561265a57600080fd5b82525081516020918201929091019080838360005b8381101561268757818101518382015260200161266f565b50505050905090810190601f1680156126b45780820380516001836020036101000a031916815260200191505b5060405250505051119050612758565b6001546001600160801b03851610156127585760115460408051631baeec3f60e31b81526001600160a01b0385811660048301529151600093929092169163dd7761f891602480820192602092909190829003018186803b15801561272857600080fd5b505afa15801561273c573d6000803e3d6000fd5b505050506040513d602081101561275257600080fd5b50511190505b80156127b8576001838154811061276b57fe5b9060005260206000200160009054906101000a90046001600160a01b031687878151811061279557fe5b6001600160a01b03909216602092830291909101909101526001909501946128ed565b6010546001600160a01b038381166000908152600f6020526040808220548151631dbe84a360e11b8152908416600482015290519290931692633b7d0946926024808301939282900301818387803b15801561281357600080fd5b505af1158015612827573d6000803e3d6000fd5b5050506001600160a01b0383166000908152601460209081526040808320929092558151636c9230db60e01b815291517f7ec36d1734626f8b3686f8791130187e1633c843b1995003e788cd2b33d56903935085923092636c9230db92600480840193829003018186803b15801561289e57600080fd5b505afa1580156128b2573d6000803e3d6000fd5b505050506040513d60208110156128c857600080fd5b5051604080516001600160a01b03909316835260208301919091528051918290030190a15b505060010161253c565b50601154604051632f8ba4bf60e11b815260206004820190815260018054602484018190526001600160a01b0390941693635f17497e9391929182916044909101908490801561297057602002820191906000526020600020905b81546001600160a01b03168152600190910190602001808311612952575b505092505050600060405180830381600087803b15801561299057600080fd5b505af11580156129a4573d6000803e3d6000fd5b50505050601160009054906101000a90046001600160a01b03166001600160a01b031663adddc0cf6040518163ffffffff1660e01b8152600401600060405180830381600087803b1580156129f857600080fd5b505af1158015612a0c573d6000803e3d6000fd5b50505050606083604051908082528060200260200182016040528015612a3c578160200160208202803883390190505b50905060005b84811015612a8a57858181518110612a5657fe5b6020026020010151828281518110612a6a57fe5b6001600160a01b0390921660209283029190910190910152600101612a42565b50601060009054906101000a90046001600160a01b03166001600160a01b031663adddc0cf6040518163ffffffff1660e01b8152600401600060405180830381600087803b158015612adb57600080fd5b505af1158015612aef573d6000803e3d6000fd5b505050506000601060009054906101000a90046001600160a01b03166001600160a01b031663a5d54f656040518163ffffffff1660e01b815260040160006040518083038186803b158015612b4357600080fd5b505afa158015612b57573d6000803e3d6000fd5b505050506040513d6000823e601f3d908101601f191682016040526020811015612b8057600080fd5b8101908080516040519392919084600160201b821115612b9f57600080fd5b908301906020820185811115612bb457600080fd5b82518660208202830111600160201b82111715612bd057600080fd5b82525081516020918201928201910280838360005b83811015612bfd578181015183820152602001612be5565b50505050905001604052505050511115612c1a57612c1a816134bf565b5050505050565b60126020526000908152604090205481565b6011546001600160a01b031681565b6001600160a01b0382166000908152600360209081526040808320848452825291829020805483518184028101840190945280845260609392830182828015612cb457602002820191906000526020600020905b81546001600160a01b03168152600190910190602001808311612c96575b5050505050905092915050565b60606000805480602002602001604051908101604052809291908181526020018280548015611a5c576020028201919060005260206000209081546001600160a01b03168152600190910190602001808311611a3e575050505050905090565b612d29611107565b612d7a576040805162461bcd60e51b815260206004820152601d60248201527f56616c696461746f725365743a206e6f7420696e697469616c697a6564000000604482015290519081900360640190fd5b33612d8481613fd6565b600080612d92838888611eff565b9150915081612e0c578015612e0457604080516001808252818301909252606091602080830190803883390190505090508381600081518110612dd157fe5b60200260200101906001600160a01b031690816001600160a01b031681525050612e0281637370616d60e01b61314e565b505b5050506119fe565b6001600160a01b0380881660008181526003602090815260408083208b8452825280832080546001810182558185529383902090930180549589166001600160a01b031990961686179055805194855290840192909252828201899052905190917f729a19138e072a5a8d3a56d74ae0b5c84530f09aacd6e12b24c5b2fdc3f8a3d0919081900360600190a160008054906003821115612ed257612eb782600263ffffffff61409b16565b8354612eca90600363ffffffff61409b16565b119050612eeb565b82548290612ee790600263ffffffff61409b16565b1190505b8015612f5957604080516001808252818301909252606091602080830190803883390190505090508a81600081518110612f2157fe5b60200260200101906001600160a01b031690816001600160a01b031681525050612f5781686d616c6963696f757360b81b61314e565b505b50505050505050505050565b60076020526000908152604090205481565b600c546001600160a01b031681565b600e6020526000908152604090205481565b60136020526000908152604090205481565b6010546001600160a01b031681565b60606001805480602002602001604051908101604052809291908181526020018280548015611a5c576020028201919060005260206000209081546001600160a01b03168152600190910190602001808311611a3e575050505050905090565b60008082116130595760405162461bcd60e51b8152600401808060200182810382526025815260200180614b586025913960400191505060405180910390fd5b6004821015613069575080611046565b60036000198301046003026001019050919050565b6001600160a01b038181166000908152600f60205260408120549091166130a757506000611046565b6001600160a01b038216600090815260146020526040902054156130cd57506000611046565b506001919050565b60096020526000908152604090205460ff1681565b6000805b600154811015613136576001818154811061310557fe5b6000918252602090912001546001600160a01b038481169116141561312e576001915050611046565b6001016130ee565b50600092915050565b6017546001600160a01b031690565b60005b825181101561134f5761317783828151811061316957fe5b6020026020010151836140c9565b156131985761319883828151811061318b57fe5b6020026020010151614294565b600101613151565b6001600160a01b0382166131fb576040805162461bcd60e51b815260206004820152601960248201527f4d696e696e6720616464726573732063616e2774206265203000000000000000604482015290519081900360640190fd5b6001600160a01b038116613256576040805162461bcd60e51b815260206004820152601a60248201527f5374616b696e6720616464726573732063616e27742062652030000000000000604482015290519081900360640190fd5b806001600160a01b0316826001600160a01b031614156132a75760405162461bcd60e51b8152600401808060200182810382526034815260200180614bef6034913960400191505060405180910390fd5b6001600160a01b038181166000908152600b602052604090205416156132fe5760405162461bcd60e51b815260040180806020018281038252602d815260200180614bc2602d913960400191505060405180910390fd5b6001600160a01b038281166000908152600b602052604090205416156133555760405162461bcd60e51b815260040180806020018281038252602c81526020018061486c602c913960400191505060405180910390fd5b6001600160a01b038181166000908152600f602052604090205416156133ac5760405162461bcd60e51b815260040180806020018281038252602c815260200180614898602c913960400191505060405180910390fd5b6001600160a01b038281166000908152600f602052604090205416156134035760405162461bcd60e51b815260040180806020018281038252602b8152602001806148c4602b913960400191505060405180910390fd5b6001600160a01b039081166000818152600b602090815260408083208054959096166001600160a01b03199586168117909655948252600f90529290922080549091169091179055565b60008083838161345957fe5b0690506000805b82821161348c5786818151811061347357fe5b6020026020010151820191508080600101915050613460565b600019019695505050505050565b7fb53127684a568b3173ae13b9f8a6016e243e63b6e8ee1178d6a717850b5d61035490565b6010546040805163a5d54f6560e01b815290516060926001600160a01b03169163a5d54f65916004808301926000929190829003018186803b15801561350457600080fd5b505afa158015613518573d6000803e3d6000fd5b505050506040513d6000823e601f3d908101601f19168201604052602081101561354157600080fd5b8101908080516040519392919084600160201b82111561356057600080fd5b90830190602082018581111561357557600080fd5b82518660208202830111600160201b8211171561359157600080fd5b82525081516020918201928201910280838360005b838110156135be5781810151838201526020016135a6565b505050509050016040525050509050600060155482511015806135e057508151155b6135f3576135ee8251613019565b6135f7565b6015545b90508082511115613a555781516010546040805163957950a760e01b815290516060926000926001600160a01b039091169163957950a7916004808201928692909190829003018186803b15801561364e57600080fd5b505afa158015613662573d6000803e3d6000fd5b505050506040513d6000823e601f3d908101601f19168201604090815281101561368b57600080fd5b8101908080516040519392919084600160201b8211156136aa57600080fd5b9083019060208201858111156136bf57600080fd5b82518660208202830111600160201b821117156136db57600080fd5b82525081516020918201928201910280838360005b838110156137085781810151838201526020016136f0565b505050509050016040526020018051906020019092919050505091509150606084604051908082528060200260200182016040528015613752578160200160208202803883390190505b5090506000805b88518110156138985760005b8681101561388f5789828151811061377957fe5b60200260200101516001600160a01b031689828151811061379657fe5b60200260200101516001600160a01b03161415613887578982815181106137b957fe5b60200260200101518484815181106137cd57fe5b60200260200101906001600160a01b031690816001600160a01b031681525050828060010193505085818151811061380157fe5b60200260200101518503945086806001900397505088878151811061382257fe5b602002602001015189828151811061383657fe5b60200260200101906001600160a01b031690816001600160a01b03168152505085878151811061386257fe5b602002602001015186828151811061387657fe5b60200260200101818152505061388f565b600101613765565b50600101613759565b50600c5460408051634191031360e11b815290516000926001600160a01b0316916383220626916004808301926020929190829003018186803b1580156138de57600080fd5b505afa1580156138f2573d6000803e3d6000fd5b505050506040513d602081101561390857600080fd5b505185519091501580159061391d5750600084115b15613a4a5760005b8351811015613a4057428218604051602001808281526020019150506040516020818303038152906040528051906020012060001c9150600061396987878561344d565b905089818151811061397757fe5b602002602001015185838151811061398b57fe5b60200260200101906001600160a01b031690816001600160a01b0316815250508681815181106139b757fe5b6020026020010151860395508780600190039850508988815181106139d857fe5b60200260200101518a82815181106139ec57fe5b60200260200101906001600160a01b031690816001600160a01b031681525050868881518110613a1857fe5b6020026020010151878281518110613a2c57fe5b602090810291909101015250600101613925565b50613a4a8361436f565b505050505050613a5e565b613a5e8261436f565b601154604051632f8ba4bf60e11b815260206004820190815260008054602484018190526001600160a01b0390941693635f17497e93919291829160449091019084908015613ad657602002820191906000526020600020905b81546001600160a01b03168152600190910190602001808311613ab8575b505092505050600060405180830381600087803b158015613af657600080fd5b505af1158015613b0a573d6000803e3d6000fd5b505050508151600014613b8057601060009054906101000a90046001600160a01b03166001600160a01b0316631555371c6040518163ffffffff1660e01b8152600401600060405180830381600087803b158015613b6757600080fd5b505af1158015613b7b573d6000803e3d6000fd5b505050505b601060009054906101000a90046001600160a01b03166001600160a01b03166322e3d9866040518163ffffffff1660e01b815260040160206040518083038186803b158015613bce57600080fd5b505afa158015613be2573d6000803e3d6000fd5b505050506040513d6020811015613bf857600080fd5b505160408051636c9230db60e01b815290513091636c9230db916004808301926020929190829003018186803b158015613c3157600080fd5b505afa158015613c45573d6000803e3d6000fd5b505050506040513d6020811015613c5b57600080fd5b5051111561134f5760105460408051631171ecc360e11b815290516001600160a01b0390921691639e72c6359183916322e3d98691600480820192602092909190829003018186803b158015613cb057600080fd5b505afa158015613cc4573d6000803e3d6000fd5b505050506040513d6020811015613cda57600080fd5b505160408051636c9230db60e01b815290513091636c9230db916004808301926020929190829003018186803b158015613d1357600080fd5b505afa158015613d27573d6000803e3d6000fd5b505050506040513d6020811015613d3d57600080fd5b5051604080516001600160e01b031960e086901b16815292909103600483015251602480830192600092919082900301818387803b15801561133657600080fd5b60025460005b81811015613ddb576000600a600060028481548110613d9f57fe5b6000918252602080832091909101546001600160a01b031683528201929092526040019020805460ff1916911515919091179055600101613d84565b505060008054905b81811015613e39576001600a6000808481548110613dfd57fe5b6000918252602080832091909101546001600160a01b031683528201929092526040019020805460ff1916911515919091179055600101613de3565b6000805461134f916002916147bd565b6060600080805480602002602001604051908101604052809291908181526020018280548015613ea257602002820191906000526020600020905b81546001600160a01b03168152600190910190602001808311613e84575b50505050509150600090505b8151811015613f0357600060096000848481518110613ec957fe5b6020908102919091018101516001600160a01b03168252810191909152604001600020805460ff1916911515919091179055600101613eae565b60018054613f13916000916147bd565b506000805480602002602001604051908101604052809291908181526020018280548015613f6a57602002820191906000526020600020905b81546001600160a01b03168152600190910190602001808311613f4c575b50505050509150600090505b8151811015610d05576000828281518110613f8d57fe5b6020908102919091018101516001600160a01b03166000908152600982526040808220805460ff1916600190811790915560129093529020805482019055919091019050613f76565b613fdf81611bb7565b613fe857614098565b60105460408051630f29818d60e31b815290516000926001600160a01b03169163794c0c68916004808301926020929190829003018186803b15801561402d57600080fd5b505afa158015614041573d6000803e3d6000fd5b505050506040513d602081101561405757600080fd5b50516001600160a01b0383166000908152600d6020908152604080832093835292815282822080546001908101909155600e90915291902080549091019055505b50565b6000826140aa57506000611df8565b828202828482816140b757fe5b04146140c257600080fd5b9392505050565b6000806140d584612190565b905060006140e16145e1565b6001600160a01b03861660009081526004602090815260408083208054600101905560058252808320849055600790915290208590559050811561412a57600092505050611df8565b6001600160a01b038581166000908152600660209081526040808320859055600f909152808220546010548251631dbe84a360e11b815291851660048301819052925192941692633b7d09469260248084019382900301818387803b15801561419257600080fd5b505af11580156141a6573d6000803e3d6000fd5b505060005491505060018114156141c4576000945050505050611df8565b60005b8181101561428657876001600160a01b0316600082815481106141e657fe5b6000918252602090912001546001600160a01b0316141561427e576000600183038154811061421157fe5b600091825260208220015481546001600160a01b0390911691908390811061423557fe5b6000918252602082200180546001600160a01b0319166001600160a01b03939093169290921790915580549061426f90600019830161480d565b50600195505050505050611df8565b6001016141c7565b506000979650505050505050565b60105460408051630f29818d60e31b815290516000926001600160a01b03169163794c0c68916004808301926020929190829003018186803b1580156142d957600080fd5b505afa1580156142ed573d6000803e3d6000fd5b505050506040513d602081101561430357600080fd5b50516000818152600e60209081526040808320546001600160a01b0387168452600d83528184208585529092528220805492905591925080821061435b576000838152600e60205260409020805482900390556119fe565b50506000908152600e602052604081205550565b61437b6001600061479f565b805161456c5760005b60005481101561451457600080828154811061439c57fe5b60009182526020808320909101546001600160a01b03908116808452600f835260409384902054601054855163a711e6a160e01b81529184166004830181905295519296509092169263a711e6a19260248082019391829003018186803b15801561440657600080fd5b505afa15801561441a573d6000803e3d6000fd5b505050506040513d602081101561443057600080fd5b505180156144ba57506010546040805162e9ab0360e81b81526001600160a01b038481166004830181905260248301529151919092169163e9ab0300916044808301926020929190829003018186803b15801561448c57600080fd5b505afa1580156144a0573d6000803e3d6000fd5b505050506040513d60208110156144b657600080fd5b5051155b1561450a576001805480820182556000919091527fb10e2d527612073b26eecdfd717e6a320cf44b4afac2b0732d9fcbe2b7fa0cf60180546001600160a01b0319166001600160a01b0384161790555b5050600101614384565b506001546145675760016000808154811061452b57fe5b60009182526020808320909101548354600181018555938352912090910180546001600160a01b0319166001600160a01b039092169190911790555b614098565b60005b8151811015610d05576001600b600084848151811061458a57fe5b6020908102919091018101516001600160a01b0390811683528282019390935260409091016000908120548454600181810187559583529290912090910180546001600160a01b031916919092161790550161456f565b600080306001600160a01b0316636c9230db6040518163ffffffff1660e01b815260040160206040518083038186803b15801561461d57600080fd5b505afa158015614631573d6000803e3d6000fd5b505050506040513d602081101561464757600080fd5b505160105460408051631171ecc360e11b815290519293506000926146d29285926001600160a01b03909116916322e3d98691600480820192602092909190829003018186803b15801561469a57600080fd5b505afa1580156146ae573d6000803e3d6000fd5b505050506040513d60208110156146c457600080fd5b50519063ffffffff61477816565b905061477181614765601060009054906101000a90046001600160a01b03166001600160a01b0316634f9a8d8f6040518163ffffffff1660e01b815260040160206040518083038186803b15801561472957600080fd5b505afa15801561473d573d6000803e3d6000fd5b505050506040513d602081101561475357600080fd5b50518590600c0263ffffffff61478d16565b9063ffffffff61478d16565b9250505090565b60008282111561478757600080fd5b50900390565b6000828201838110156140c257600080fd5b5080546000825590600052602060002090810190614098919061482d565b8280548282559060005260206000209081019282156147fd5760005260206000209182015b828111156147fd5782548255916001019190600101906147e2565b50614809929150614847565b5090565b81548183558181111561134f5760008381526020902061134f9181019083015b61111691905b808211156148095760008155600101614833565b61111691905b808211156148095780546001600160a01b031916815560010161484d56fe4d696e696e67206164647265737320616c726561647920757365642061732061207374616b696e67206f6e655374616b696e67206164647265737320616c726561647920757365642061732061206d696e696e67206f6e654d696e696e67206164647265737320616c726561647920757365642061732061206d696e696e67206f6e6552616e646f6d20636f6e747261637420616464726573732063616e277420626520307830426c6f636b52657761726420636f6e747261637420616464726573732063616e27742062652030783070726f766964656420626c6f636b68617368206d757374206d6174636820626c6f636b636861696e7320626c6f636b6861736856616c696461746f7253657420636f6e747261637420697320616c726561647920696e697469616c697a65646661696c6564206b65792067656e65726174696f6e2063616e206f6e6c792062652070726f63657373656420616674657220746865207374616b696e672065706f6368206973206f7665722e4d7573742070726f7669646520696e697469616c206d696e696e67206164647265737365734b657947656e486973746f727920636f6e747261637420616464726573732063616e27742062652030783073657443757272656e7454696d657374616d703a2043616e27742074696d6574726176656c206261636b20746f207468652070617374214d7573742070726f76696465207468652073616d6520616d6f756e74206f66206d696e696e672f7374616b696e67206164647265737365735374616b696e6720636f6e747261637420616464726573732063616e2774206265203078305f626c6f636b4e756d62657220617267756d656e74206d75737420626520696e2074686520706173742e416e6e6f756e63696e6720617661696c6162696c697479206e6f7420706f737369626c652e56616c696461746f725365743a20496e697469616c697a6174696f6e206f6e6c79206f6e2067656e6573697320626c6f636b206f722062792061646d696e5f706f737369626c6556616c696461746f72436f756e74206d757374206e6f7420626520305f626c6f636b4e756d62657220617267756d656e74206d75737420626520696e2074686520706173742077697468696e20746865206c6173742032353520626c6f636b732e5374616b696e67206164647265737320616c726561647920757365642061732061207374616b696e67206f6e654d696e696e6720616464726573732063616e6e6f74206265207468652073616d6520617320746865207374616b696e67206f6e656f6e6c792061646d696e20697320616c6c6f77656420746f2063616c6c20746869732066756e6374696f6ea265627a7a72315820e99eb806a621ea6e1c9b4ad8b4813b3986d52183b39ff5a0e6ef665258ba920b64736f6c63430005110032",
  "source": "pragma solidity ^0.5.16;\n\nimport '../../contracts/ValidatorSetHbbft.sol';\n\n\ncontract ValidatorSetHbbftMock is ValidatorSetHbbft {\n\n    uint256 internal _currentTimeStamp;\n    address internal _systemAddress;\n\n    // ============================================== Modifiers =======================================================\n\n    modifier onlySystem() {\n        require(msg.sender == _getSystemAddress());\n        _;\n    }\n\n    // =============================================== Setters ========================================================\n\n    function setBannedUntil(address _miningAddress, uint256 _bannedUntil) public {\n        bannedUntil[_miningAddress] = _bannedUntil;\n        bannedDelegatorsUntil[_miningAddress] = _bannedUntil;\n    }\n    \n    function setBlockRewardContract(address _address) public {\n        blockRewardContract = _address;\n    }\n\n    function setRandomContract(address _address) public {\n        randomContract = _address;\n    }\n\n    function setStakingContract(address _address) public {\n        stakingContract = IStakingHbbft(_address);\n    }\n\n    function setSystemAddress(address _address) public {\n        _systemAddress = _address;\n    }\n\n\n    function setCurrentTimestamp(uint256 _timeStamp)\n    public {\n\n        // it makes sense to only allow to travel forward in time.\n        // this assumption makes tests more consistent,\n        // avoiding the usual time travel paradoxons.\n        require(_timeStamp > _currentTimeStamp, \"setCurrentTimestamp: Can't timetravel back to the past!\");\n        \n        _currentTimeStamp = _timeStamp;\n    }\n\n\n    // =============================================== Getters ========================================================\n\n    function getRandomIndex(\n        uint256[] memory _likelihood,\n        uint256 _likelihoodSum,\n        uint256 _randomNumber\n    ) public pure returns(uint256) {\n        return _getRandomIndex(\n            _likelihood,\n            _likelihoodSum,\n            uint256(keccak256(abi.encode(_randomNumber)))\n        );\n    }\n    \n    /// @dev overrides the calculation of the current timestamp\n    /// to use the internal stored \"fake\" timestamp for testing purposes.\n    function getCurrentTimestamp() external view returns(uint256) {\n        //require(_currentTimeStamp != 0, 'Timestamp is never expected to be 0');\n        return _currentTimeStamp;\n    }\n\n    // =============================================== Private ========================================================\n\n    function _getSystemAddress() internal view returns(address) {\n        return _systemAddress;\n    }\n}\n",
  "sourcePath": "/home/sn/dmd/dmd-meta/hbbft-posdao-contracts/contracts/mockContracts/ValidatorSetHbbftMock.sol",
  "compiler": {
    "name": "solc",
    "version": "0.5.17+commit.d19bba13.Emscripten.clang"
  },
  "schemaVersion": "3.3.1",
  "updatedAt": "2022-01-07T23:00:13.468Z",
  "devdoc": {
    "methods": {
      "announceAvailability(uint256,bytes32)": {
        "details": "called by validators when a validator comes online after getting marked as unavailable caused by a failed key generation."
      },
      "areDelegatorsBanned(address)": {
        "details": "Returns a boolean flag indicating whether delegators of the specified pool are currently banned. A validator pool can be banned when they misbehave (see the `_removeMaliciousValidator` function).",
        "params": {
          "_miningAddress": "The mining address of the pool."
        }
      },
      "canCallAnnounceAvailability(address)": {
        "details": "Returns if the specified _miningAddress is able to announce availability.",
        "params": {
          "_miningAddress": "mining address that is allowed/disallowed."
        }
      },
      "finalizeChange()": {
        "details": "Called by the system when a pending validator set is ready to be activated. Only valid when msg.sender == SUPER_USER (EIP96, 2**160 - 2). After this function is called, the `getValidators` getter returns the new validator set. If this function finalizes a new validator set formed by the `newValidatorSet` function, an old validator set is also stored and can be read by the `getPreviousValidators` getter."
      },
      "getCurrentTimestamp()": {
        "details": "overrides the calculation of the current timestamp to use the internal stored \"fake\" timestamp for testing purposes."
      },
      "getPendingValidators()": {
        "details": "Returns the current array of pending validators i.e. waiting to be activated in the new epoch The pending array is changed when a validator is removed as malicious or the validator set is updated by the `newValidatorSet` function."
      },
      "getPreviousValidators()": {
        "details": "Returns the previous validator set (validators' mining addresses array). The array is stored by the `finalizeChange` function when a new staking epoch's validator set is finalized."
      },
      "getPublicKey(address)": {
        "details": "Returns the public key for the given miningAddress",
        "params": {
          "_miningAddress": "mining address of the wanted public key."
        },
        "return": "public key of the _miningAddress"
      },
      "getValidatorCountSweetSpot(uint256)": {
        "details": "in Hbbft there are sweet spots for the choice of validator counts those are FLOOR((n - 1)/3) * 3 + 1 values: 1 - 4 - 7 - 10 - 13 - 16 - 19 - 22 - 25 more about: https://github.com/DMDcoin/hbbft-posdao-contracts/issues/84",
        "return": "a sweet spot n for a given number n"
      },
      "getValidators()": {
        "details": "Returns the current validator set (an array of mining addresses) which always matches the validator set kept in validator's node."
      },
      "handleFailedKeyGeneration()": {
        "details": "called by blockreward contract when a the reward when the block reward contract  came to the conclusion that the validators could not manage to create a new shared key together. this starts the process to find replacements for the failing candites, as well as marking them unavailable."
      },
      "initialize(address,address,address,address,address[],address[])": {
        "details": "Initializes the network parameters. Used by the constructor of the `InitializerHbbft` contract.",
        "params": {
          "_blockRewardContract": "The address of the `BlockRewardHbbft` contract.",
          "_initialMiningAddresses": "The array of initial validators' mining addresses.",
          "_initialStakingAddresses": "The array of initial validators' staking addresses.",
          "_keyGenHistoryContract": "The address of the `KeyGenHistory` contract.",
          "_randomContract": "The address of the `RandomHbbft` contract.",
          "_stakingContract": "The address of the `StakingHbbft` contract."
        }
      },
      "isInitialized()": {
        "details": "Returns a boolean flag indicating if the `initialize` function has been called."
      },
      "isPendingValidator(address)": {
        "details": "Returns a boolean flag indicating whether the specified mining address is a pending validator. Used by the `isValidatorOrPending` and `KeyGenHistory.writeAck/Part` functions.",
        "params": {
          "_miningAddress": "The mining address."
        }
      },
      "isReportValidatorValid(address)": {
        "details": "Returns a boolean flag indicating whether the specified validator (mining address) is able to call the `reportMalicious` function or whether the specified validator (mining address) can be reported as malicious. This function also allows a validator to call the `reportMalicious` function several blocks after ceasing to be a validator. This is possible if a validator did not have the opportunity to call the `reportMalicious` function prior to the engine calling the `finalizeChange` function.",
        "params": {
          "_miningAddress": "The validator's mining address."
        }
      },
      "isValidatorBanned(address)": {
        "details": "Returns a boolean flag indicating whether the specified mining address is currently banned. A validator can be banned when they misbehave (see the `_removeMaliciousValidator` internal function).",
        "params": {
          "_miningAddress": "The mining address."
        }
      },
      "isValidatorOrPending(address)": {
        "details": "Returns a boolean flag indicating whether the specified mining address is a validator or is in the `_pendingValidators`. Used by the `StakingHbbft.maxWithdrawAllowed` and `StakingHbbft.maxWithdrawOrderAllowed` getters.",
        "params": {
          "_miningAddress": "The mining address."
        }
      },
      "maliceReportedForBlock(address,uint256)": {
        "details": "Returns an array of the validators (their mining addresses) which reported that the specified malicious validator misbehaved at the specified block.",
        "params": {
          "_blockNumber": "The block number.",
          "_miningAddress": "The mining address of malicious validator."
        }
      },
      "newValidatorSet()": {
        "details": "Implements the logic which forms a new validator set. If the number of active pools is greater than maxValidators, the logic chooses the validators randomly using a random seed generated and stored by the `RandomHbbft` contract. Automatically called by the `BlockRewardHbbft.reward` function at the latest block of the staking epoch."
      },
      "publicKeyByStakingAddress(address)": {
        "details": "Returns the public key for the given stakingAddress",
        "params": {
          "_stakingAddress": "staking address of the wanted public key."
        },
        "return": "public key of the _stakingAddress"
      },
      "removeMaliciousValidators(address[])": {
        "details": "Removes malicious validators. Called by the the Hbbft engine when a validator has been inactive for a long period.",
        "params": {
          "_miningAddresses": "The mining addresses of the malicious validators."
        }
      },
      "reportMalicious(address,uint256,bytes)": {
        "details": "Reports that the malicious validator misbehaved at the specified block. Called by the node of each honest validator after the specified validator misbehaved. See https://openethereum.github.io/Validator-Set.html#reporting-contract Can only be called when the `reportMaliciousCallable` getter returns `true`.",
        "params": {
          "_blockNumber": "The block number where the misbehavior was observed.",
          "_maliciousMiningAddress": "The mining address of the malicious validator."
        }
      },
      "reportMaliciousCallable(address,address,uint256)": {
        "details": "Returns whether the `reportMalicious` function can be called by the specified validator with the given parameters. Used by the `reportMalicious` function and `TxPermission` contract. Also, returns a boolean flag indicating whether the reporting validator should be removed as malicious due to excessive reporting during the current staking epoch.",
        "params": {
          "_blockNumber": "The block number which is passed to the `reportMalicious` function.",
          "_maliciousMiningAddress": "The mining address of the malicious validator which is passed to the `reportMalicious` function.",
          "_reportingMiningAddress": "The mining address of the reporting validator which is calling the `reportMalicious` function."
        },
        "return": "`bool callable` - The boolean flag indicating whether the `reportMalicious` function can be called at the moment. `bool removeReportingValidator` - The boolean flag indicating whether the reporting validator should be removed as malicious due to excessive reporting. This flag is only used by the `reportMalicious` function."
      },
      "setStakingAddress(address,address)": {
        "details": "Binds a mining address to the specified staking address. Called by the `StakingHbbft.addPool` function when a user wants to become a candidate and creates a pool. See also the `miningByStakingAddress` and `stakingByMiningAddress` public mappings.",
        "params": {
          "_miningAddress": "The mining address of the newly created pool. Cannot be equal to the `_stakingAddress` and should never be used as a pool before.",
          "_stakingAddress": "The staking address of the newly created pool. Cannot be equal to the `_miningAddress` and should never be used as a pool before."
        }
      }
    }
  },
  "userdoc": {
    "methods": {}
  }
}