{
  "_format": "hh-sol-artifact-1",
  "contractName": "ValidatorSetHbbftMock",
  "sourceName": "contracts/mockContracts/ValidatorSetHbbftMock.sol",
  "abi": [
    {
      "anonymous": false,
      "inputs": [
        {
          "indexed": false,
          "internalType": "address",
          "name": "reportingValidator",
          "type": "address"
        },
        {
          "indexed": false,
          "internalType": "address",
          "name": "maliciousValidator",
          "type": "address"
        },
        {
          "indexed": false,
          "internalType": "uint256",
          "name": "blockNumber",
          "type": "uint256"
        }
      ],
      "name": "ReportedMalicious",
      "type": "event"
    },
    {
      "anonymous": false,
      "inputs": [
        {
          "indexed": false,
          "internalType": "address",
          "name": "validator",
          "type": "address"
        },
        {
          "indexed": false,
          "internalType": "uint256",
          "name": "timestamp",
          "type": "uint256"
        }
      ],
      "name": "ValidatorAvailable",
      "type": "event"
    },
    {
      "anonymous": false,
      "inputs": [
        {
          "indexed": false,
          "internalType": "address",
          "name": "validator",
          "type": "address"
        },
        {
          "indexed": false,
          "internalType": "uint256",
          "name": "timestamp",
          "type": "uint256"
        }
      ],
      "name": "ValidatorUnavailable",
      "type": "event"
    },
    {
      "inputs": [
        {
          "internalType": "uint256",
          "name": "_blockNumber",
          "type": "uint256"
        },
        {
          "internalType": "bytes32",
          "name": "_blockhash",
          "type": "bytes32"
        }
      ],
      "name": "announceAvailability",
      "outputs": [],
      "stateMutability": "nonpayable",
      "type": "function"
    },
    {
      "inputs": [
        {
          "internalType": "address",
          "name": "_miningAddress",
          "type": "address"
        }
      ],
      "name": "areDelegatorsBanned",
      "outputs": [
        {
          "internalType": "bool",
          "name": "",
          "type": "bool"
        }
      ],
      "stateMutability": "view",
      "type": "function"
    },
    {
      "inputs": [
        {
          "internalType": "address",
          "name": "",
          "type": "address"
        }
      ],
      "name": "banCounter",
      "outputs": [
        {
          "internalType": "uint256",
          "name": "",
          "type": "uint256"
        }
      ],
      "stateMutability": "view",
      "type": "function"
    },
    {
      "inputs": [
        {
          "internalType": "address",
          "name": "",
          "type": "address"
        }
      ],
      "name": "banReason",
      "outputs": [
        {
          "internalType": "bytes32",
          "name": "",
          "type": "bytes32"
        }
      ],
      "stateMutability": "view",
      "type": "function"
    },
    {
      "inputs": [
        {
          "internalType": "address",
          "name": "",
          "type": "address"
        }
      ],
      "name": "bannedDelegatorsUntil",
      "outputs": [
        {
          "internalType": "uint256",
          "name": "",
          "type": "uint256"
        }
      ],
      "stateMutability": "view",
      "type": "function"
    },
    {
      "inputs": [
        {
          "internalType": "address",
          "name": "",
          "type": "address"
        }
      ],
      "name": "bannedUntil",
      "outputs": [
        {
          "internalType": "uint256",
          "name": "",
          "type": "uint256"
        }
      ],
      "stateMutability": "view",
      "type": "function"
    },
    {
      "inputs": [],
      "name": "blockRewardContract",
      "outputs": [
        {
          "internalType": "address",
          "name": "",
          "type": "address"
        }
      ],
      "stateMutability": "view",
      "type": "function"
    },
    {
      "inputs": [
        {
          "internalType": "address",
          "name": "_miningAddress",
          "type": "address"
        }
      ],
      "name": "canCallAnnounceAvailability",
      "outputs": [
        {
          "internalType": "bool",
          "name": "",
          "type": "bool"
        }
      ],
      "stateMutability": "view",
      "type": "function"
    },
    {
      "inputs": [],
      "name": "finalizeChange",
      "outputs": [],
      "stateMutability": "nonpayable",
      "type": "function"
    },
    {
      "inputs": [],
      "name": "getCurrentTimestamp",
      "outputs": [
        {
          "internalType": "uint256",
          "name": "",
          "type": "uint256"
        }
      ],
      "stateMutability": "view",
      "type": "function"
    },
    {
      "inputs": [
        {
          "internalType": "address",
          "name": "_miningAddress",
          "type": "address"
        }
      ],
      "name": "getPendingValidatorKeyGenerationMode",
      "outputs": [
        {
          "internalType": "enum IValidatorSetHbbft.KeyGenMode",
          "name": "",
          "type": "uint8"
        }
      ],
      "stateMutability": "view",
      "type": "function"
    },
    {
      "inputs": [],
      "name": "getPendingValidators",
      "outputs": [
        {
          "internalType": "address[]",
          "name": "",
          "type": "address[]"
        }
      ],
      "stateMutability": "view",
      "type": "function"
    },
    {
      "inputs": [],
      "name": "getPreviousValidators",
      "outputs": [
        {
          "internalType": "address[]",
          "name": "",
          "type": "address[]"
        }
      ],
      "stateMutability": "view",
      "type": "function"
    },
    {
      "inputs": [
        {
          "internalType": "address",
          "name": "_miningAddress",
          "type": "address"
        }
      ],
      "name": "getPublicKey",
      "outputs": [
        {
          "internalType": "bytes",
          "name": "",
          "type": "bytes"
        }
      ],
      "stateMutability": "view",
      "type": "function"
    },
    {
      "inputs": [
        {
          "internalType": "uint256[]",
          "name": "_likelihood",
          "type": "uint256[]"
        },
        {
          "internalType": "uint256",
          "name": "_likelihoodSum",
          "type": "uint256"
        },
        {
          "internalType": "uint256",
          "name": "_randomNumber",
          "type": "uint256"
        }
      ],
      "name": "getRandomIndex",
      "outputs": [
        {
          "internalType": "uint256",
          "name": "",
          "type": "uint256"
        }
      ],
      "stateMutability": "pure",
      "type": "function"
    },
    {
      "inputs": [],
      "name": "getStakingContract",
      "outputs": [
        {
          "internalType": "address",
          "name": "",
          "type": "address"
        }
      ],
      "stateMutability": "view",
      "type": "function"
    },
    {
      "inputs": [
        {
          "internalType": "uint256",
          "name": "_possibleValidatorCount",
          "type": "uint256"
        }
      ],
      "name": "getValidatorCountSweetSpot",
      "outputs": [
        {
          "internalType": "uint256",
          "name": "",
          "type": "uint256"
        }
      ],
      "stateMutability": "view",
      "type": "function"
    },
    {
      "inputs": [],
      "name": "getValidators",
      "outputs": [
        {
          "internalType": "address[]",
          "name": "",
          "type": "address[]"
        }
      ],
      "stateMutability": "view",
      "type": "function"
    },
    {
      "inputs": [],
      "name": "handleFailedKeyGeneration",
      "outputs": [],
      "stateMutability": "nonpayable",
      "type": "function"
    },
    {
      "inputs": [
        {
          "internalType": "address",
          "name": "_blockRewardContract",
          "type": "address"
        },
        {
          "internalType": "address",
          "name": "_randomContract",
          "type": "address"
        },
        {
          "internalType": "address",
          "name": "_stakingContract",
          "type": "address"
        },
        {
          "internalType": "address",
          "name": "_keyGenHistoryContract",
          "type": "address"
        },
        {
          "internalType": "address[]",
          "name": "_initialMiningAddresses",
          "type": "address[]"
        },
        {
          "internalType": "address[]",
          "name": "_initialStakingAddresses",
          "type": "address[]"
        }
      ],
      "name": "initialize",
      "outputs": [],
      "stateMutability": "nonpayable",
      "type": "function"
    },
    {
      "inputs": [],
      "name": "isFullHealth",
      "outputs": [
        {
          "internalType": "bool",
          "name": "",
          "type": "bool"
        }
      ],
      "stateMutability": "view",
      "type": "function"
    },
    {
      "inputs": [],
      "name": "isInitialized",
      "outputs": [
        {
          "internalType": "bool",
          "name": "",
          "type": "bool"
        }
      ],
      "stateMutability": "view",
      "type": "function"
    },
    {
      "inputs": [
        {
          "internalType": "address",
          "name": "_miningAddress",
          "type": "address"
        }
      ],
      "name": "isPendingValidator",
      "outputs": [
        {
          "internalType": "bool",
          "name": "",
          "type": "bool"
        }
      ],
      "stateMutability": "view",
      "type": "function"
    },
    {
      "inputs": [
        {
          "internalType": "address",
          "name": "_miningAddress",
          "type": "address"
        }
      ],
      "name": "isReportValidatorValid",
      "outputs": [
        {
          "internalType": "bool",
          "name": "",
          "type": "bool"
        }
      ],
      "stateMutability": "view",
      "type": "function"
    },
    {
      "inputs": [
        {
          "internalType": "address",
          "name": "",
          "type": "address"
        }
      ],
      "name": "isValidator",
      "outputs": [
        {
          "internalType": "bool",
          "name": "",
          "type": "bool"
        }
      ],
      "stateMutability": "view",
      "type": "function"
    },
    {
      "inputs": [
        {
          "internalType": "address",
          "name": "_miningAddress",
          "type": "address"
        }
      ],
      "name": "isValidatorBanned",
      "outputs": [
        {
          "internalType": "bool",
          "name": "",
          "type": "bool"
        }
      ],
      "stateMutability": "view",
      "type": "function"
    },
    {
      "inputs": [
        {
          "internalType": "address",
          "name": "_miningAddress",
          "type": "address"
        }
      ],
      "name": "isValidatorOrPending",
      "outputs": [
        {
          "internalType": "bool",
          "name": "",
          "type": "bool"
        }
      ],
      "stateMutability": "view",
      "type": "function"
    },
    {
      "inputs": [
        {
          "internalType": "address",
          "name": "",
          "type": "address"
        }
      ],
      "name": "isValidatorPrevious",
      "outputs": [
        {
          "internalType": "bool",
          "name": "",
          "type": "bool"
        }
      ],
      "stateMutability": "view",
      "type": "function"
    },
    {
      "inputs": [],
      "name": "keyGenHistoryContract",
      "outputs": [
        {
          "internalType": "contract IKeyGenHistory",
          "name": "",
          "type": "address"
        }
      ],
      "stateMutability": "view",
      "type": "function"
    },
    {
      "inputs": [
        {
          "internalType": "address",
          "name": "_miningAddress",
          "type": "address"
        },
        {
          "internalType": "uint256",
          "name": "_blockNumber",
          "type": "uint256"
        }
      ],
      "name": "maliceReportedForBlock",
      "outputs": [
        {
          "internalType": "address[]",
          "name": "",
          "type": "address[]"
        }
      ],
      "stateMutability": "view",
      "type": "function"
    },
    {
      "inputs": [],
      "name": "maxValidators",
      "outputs": [
        {
          "internalType": "uint256",
          "name": "",
          "type": "uint256"
        }
      ],
      "stateMutability": "view",
      "type": "function"
    },
    {
      "inputs": [
        {
          "internalType": "address",
          "name": "",
          "type": "address"
        }
      ],
      "name": "miningByStakingAddress",
      "outputs": [
        {
          "internalType": "address",
          "name": "",
          "type": "address"
        }
      ],
      "stateMutability": "view",
      "type": "function"
    },
    {
      "inputs": [],
      "name": "newValidatorSet",
      "outputs": [],
      "stateMutability": "nonpayable",
      "type": "function"
    },
    {
      "inputs": [
        {
          "internalType": "address",
          "name": "_stakingAddress",
          "type": "address"
        }
      ],
      "name": "notifyUnavailability",
      "outputs": [],
      "stateMutability": "nonpayable",
      "type": "function"
    },
    {
      "inputs": [
        {
          "internalType": "address",
          "name": "_stakingAddress",
          "type": "address"
        }
      ],
      "name": "publicKeyByStakingAddress",
      "outputs": [
        {
          "internalType": "bytes",
          "name": "",
          "type": "bytes"
        }
      ],
      "stateMutability": "view",
      "type": "function"
    },
    {
      "inputs": [],
      "name": "randomContract",
      "outputs": [
        {
          "internalType": "address",
          "name": "",
          "type": "address"
        }
      ],
      "stateMutability": "view",
      "type": "function"
    },
    {
      "inputs": [
        {
          "internalType": "address[]",
          "name": "_miningAddresses",
          "type": "address[]"
        }
      ],
      "name": "removeMaliciousValidators",
      "outputs": [],
      "stateMutability": "nonpayable",
      "type": "function"
    },
    {
      "inputs": [
        {
          "internalType": "address",
          "name": "_maliciousMiningAddress",
          "type": "address"
        },
        {
          "internalType": "uint256",
          "name": "_blockNumber",
          "type": "uint256"
        },
        {
          "internalType": "bytes",
          "name": "",
          "type": "bytes"
        }
      ],
      "name": "reportMalicious",
      "outputs": [],
      "stateMutability": "nonpayable",
      "type": "function"
    },
    {
      "inputs": [
        {
          "internalType": "address",
          "name": "_reportingMiningAddress",
          "type": "address"
        },
        {
          "internalType": "address",
          "name": "_maliciousMiningAddress",
          "type": "address"
        },
        {
          "internalType": "uint256",
          "name": "_blockNumber",
          "type": "uint256"
        }
      ],
      "name": "reportMaliciousCallable",
      "outputs": [
        {
          "internalType": "bool",
          "name": "callable",
          "type": "bool"
        },
        {
          "internalType": "bool",
          "name": "removeReportingValidator",
          "type": "bool"
        }
      ],
      "stateMutability": "view",
      "type": "function"
    },
    {
      "inputs": [
        {
          "internalType": "address",
          "name": "",
          "type": "address"
        },
        {
          "internalType": "uint256",
          "name": "",
          "type": "uint256"
        }
      ],
      "name": "reportingCounter",
      "outputs": [
        {
          "internalType": "uint256",
          "name": "",
          "type": "uint256"
        }
      ],
      "stateMutability": "view",
      "type": "function"
    },
    {
      "inputs": [
        {
          "internalType": "uint256",
          "name": "",
          "type": "uint256"
        }
      ],
      "name": "reportingCounterTotal",
      "outputs": [
        {
          "internalType": "uint256",
          "name": "",
          "type": "uint256"
        }
      ],
      "stateMutability": "view",
      "type": "function"
    },
    {
      "inputs": [
        {
          "internalType": "address",
          "name": "_miningAddress",
          "type": "address"
        },
        {
          "internalType": "uint256",
          "name": "_bannedUntil",
          "type": "uint256"
        }
      ],
      "name": "setBannedUntil",
      "outputs": [],
      "stateMutability": "nonpayable",
      "type": "function"
    },
    {
      "inputs": [
        {
          "internalType": "address",
          "name": "_address",
          "type": "address"
        }
      ],
      "name": "setBlockRewardContract",
      "outputs": [],
      "stateMutability": "nonpayable",
      "type": "function"
    },
    {
      "inputs": [
        {
          "internalType": "uint256",
          "name": "_timeStamp",
          "type": "uint256"
        }
      ],
      "name": "setCurrentTimestamp",
      "outputs": [],
      "stateMutability": "nonpayable",
      "type": "function"
    },
    {
      "inputs": [
        {
          "internalType": "uint256",
          "name": "_maxValidators",
          "type": "uint256"
        }
      ],
      "name": "setMaxValidators",
      "outputs": [],
      "stateMutability": "nonpayable",
      "type": "function"
    },
    {
      "inputs": [
        {
          "internalType": "address",
          "name": "_address",
          "type": "address"
        }
      ],
      "name": "setRandomContract",
      "outputs": [],
      "stateMutability": "nonpayable",
      "type": "function"
    },
    {
      "inputs": [
        {
          "internalType": "address",
          "name": "_miningAddress",
          "type": "address"
        },
        {
          "internalType": "address",
          "name": "_stakingAddress",
          "type": "address"
        }
      ],
      "name": "setStakingAddress",
      "outputs": [],
      "stateMutability": "nonpayable",
      "type": "function"
    },
    {
      "inputs": [
        {
          "internalType": "address",
          "name": "_address",
          "type": "address"
        }
      ],
      "name": "setStakingContract",
      "outputs": [],
      "stateMutability": "nonpayable",
      "type": "function"
    },
    {
      "inputs": [
        {
          "internalType": "address",
          "name": "_address",
          "type": "address"
        }
      ],
      "name": "setSystemAddress",
      "outputs": [],
      "stateMutability": "nonpayable",
      "type": "function"
    },
    {
      "inputs": [
        {
          "internalType": "bytes16",
          "name": "_ip",
          "type": "bytes16"
        },
        {
          "internalType": "bytes2",
          "name": "_port",
          "type": "bytes2"
        }
      ],
      "name": "setValidatorInternetAddress",
      "outputs": [],
      "stateMutability": "nonpayable",
      "type": "function"
    },
    {
      "inputs": [
        {
          "internalType": "address",
          "name": "",
          "type": "address"
        }
      ],
      "name": "stakingByMiningAddress",
      "outputs": [
        {
          "internalType": "address",
          "name": "",
          "type": "address"
        }
      ],
      "stateMutability": "view",
      "type": "function"
    },
    {
      "inputs": [],
      "name": "stakingContract",
      "outputs": [
        {
          "internalType": "contract IStakingHbbft",
          "name": "",
          "type": "address"
        }
      ],
      "stateMutability": "view",
      "type": "function"
    },
    {
      "inputs": [
        {
          "internalType": "address",
          "name": "",
          "type": "address"
        }
      ],
      "name": "validatorAvailableSince",
      "outputs": [
        {
          "internalType": "uint256",
          "name": "",
          "type": "uint256"
        }
      ],
      "stateMutability": "view",
      "type": "function"
    },
    {
      "inputs": [
        {
          "internalType": "address",
          "name": "",
          "type": "address"
        }
      ],
      "name": "validatorCounter",
      "outputs": [
        {
          "internalType": "uint256",
          "name": "",
          "type": "uint256"
        }
      ],
      "stateMutability": "view",
      "type": "function"
    },
    {
      "inputs": [
        {
          "internalType": "address",
          "name": "",
          "type": "address"
        }
      ],
      "name": "validatorLastSuccess",
      "outputs": [
        {
          "internalType": "uint256",
          "name": "",
          "type": "uint256"
        }
      ],
      "stateMutability": "view",
      "type": "function"
    }
  ],
  "bytecode": "0x608060405234801561001057600080fd5b50614eb6806100206000396000f3fe608060405234801561001057600080fd5b506004361061036c5760003560e01c806387eed76a116101d3578063b47aef1f11610104578063db2c870c116100a2578063efd049471161007c578063efd04947146108a0578063f51726f0146108b3578063facd743b146108c6578063fb64aac1146108e957600080fd5b8063db2c870c14610865578063ee99205c14610885578063eebc7a391461089857600080fd5b8063c476dd40116100de578063c476dd40146107ff578063c9e9694d14610812578063ccf69e9b14610832578063d2dd2f161461084557600080fd5b8063b47aef1f146107d1578063b56b366b146107e4578063b7ab4db5146107f757600080fd5b8063a49904e511610171578063a881c5fd1161014b578063a881c5fd14610783578063a92252ae14610796578063ade1900a146107a9578063b41832e4146107b157600080fd5b8063a49904e51461072f578063a670eb5614610736578063a68b5b761461076057600080fd5b80639bb2ea5a116101ad5780639bb2ea5a146106c65780639dd373b9146106d9578063a0d16cad14610709578063a42bdee91461071c57600080fd5b806387eed76a1461068f5780638e68dce4146106a25780639881933d146106b357600080fd5b80633755243b116102ad57806360e5c5201161024b578063717662ee11610225578063717662ee1461063f578063752862111461065257806385602ad51461065a578063857cdbb81461066f57600080fd5b806360e5c5201461060457806366efcb78146106245780636c9230db1461063757600080fd5b8063515bbf2c11610287578063515bbf2c146105b657806356b54bae146105c95780635836d08a146105dc5780635ccee1de146105fc57600080fd5b80633755243b14610559578063392e53cd1461058457806343bcce9f146105a357600080fd5b80630a4c10721161031a5780631a7fa237116102f45780631a7fa237146104c05780631d0cd4c6146104e05780631ee4d0bc1461050057806327a3e16b1461052957600080fd5b80630a4c10721461047a57806314e28d901461048d5780631761edb1146104ad57600080fd5b80630636bdac1161034b5780630636bdac1461042057806308ac5256146104335780630933e3a71461044a57600080fd5b806253517514610371578063030360d2146103b757806306210197146103f0575b600080fd5b61039a61037f3660046145e4565b600b602052600090815260409020546001600160a01b031681565b6040516001600160a01b0390911681526020015b60405180910390f35b6103ee6103c5366004614608565b6001600160a01b0390911660009081526005602090815260408083208490556006909152902055565b005b6103ee6103fe3660046145e4565b601780546001600160a01b0319166001600160a01b0392909216919091179055565b6103ee61042e366004614680565b6108fc565b61043c60155481565b6040519081526020016103ae565b6103ee6104583660046145e4565b600c80546001600160a01b0319166001600160a01b0392909216919091179055565b6103ee6104883660046146c2565b610975565b6104a061049b3660046145e4565b6109de565b6040516103ae91906146fb565b61043c6104bb36600461478e565b610bc7565b61043c6104ce3660046145e4565b60066020526000908152604090205481565b61043c6104ee3660046145e4565b60046020526000908152604090205481565b61039a61050e3660046145e4565b600f602052600090815260409020546001600160a01b031681565b6103ee6105373660046145e4565b600880546001600160a01b0319166001600160a01b0392909216919091179055565b61043c610567366004614608565b600d60209081526000928352604080842090915290825290205481565b6008546001600160a01b031615155b60405190151581526020016103ae565b6103ee6105b1366004614834565b610c07565b6103ee6105c4366004614856565b610f47565b60085461039a906001600160a01b031681565b61043c6105ea3660046145e4565b60056020526000908152604090205481565b6103ee6114f5565b61043c6106123660046145e4565b60146020526000908152604090205481565b6103ee610632366004614910565b611569565b60165461043c565b6103ee61064d3660046145e4565b6115e5565b6103ee61166b565b610662611893565b6040516103ae9190614929565b61068261067d3660046145e4565b6118f5565b6040516103ae919061499a565b61059361069d3660046145e4565b611985565b6010546001600160a01b031661039a565b6106826106c13660046145e4565b611bc5565b6103ee6106d4366004614910565b611bf8565b6103ee6106e73660046145e4565b601080546001600160a01b0319166001600160a01b0392909216919091179055565b6105936107173660046145e4565b611ca5565b6103ee61072a3660046149cd565b611cd7565b6001610593565b610749610744366004614a36565b611dbc565b6040805192151583529015156020830152016103ae565b61059361076e3660046145e4565b600a6020526000908152604090205460ff1681565b6105936107913660046145e4565b611fe6565b6105936107a43660046145e4565b612066565b6103ee6120ba565b61043c6107bf3660046145e4565b60126020526000908152604090205481565b60115461039a906001600160a01b031681565b6106626107f2366004614608565b61296c565b6106626129eb565b6103ee61080d366004614a77565b612a4b565b61043c6108203660046145e4565b60076020526000908152604090205481565b600c5461039a906001600160a01b031681565b61043c610853366004614910565b600e6020526000908152604090205481565b61043c6108733660046145e4565b60136020526000908152604090205481565b60105461039a906001600160a01b031681565b610662612c9a565b61043c6108ae366004614910565b612cfa565b6105936108c13660046145e4565b612dab565b6105936108d43660046145e4565b60096020526000908152604090205460ff1681565b6105936108f73660046145e4565b612e02565b6017546001600160a01b0316331461091357600080fd5b6109718282808060200260200160405190810160405280939291908181526020018383602002808284376000920191909152507f696e6163746976650000000000000000000000000000000000000000000000009250612e66915050565b5050565b6010546001600160a01b031633146109d45760405162461bcd60e51b815260206004820152601560248201527f4f6e6c79205374616b696e6720436f6e7472616374000000000000000000000060448201526064015b60405180910390fd5b6109718282612ece565b60006109e982612e02565b6109f557506000919050565b60115460408051637be02c2b60e01b8152815160009384936001600160a01b0390911692637be02c2b92600480830193928290030181865afa158015610a3f573d6000803e3d6000fd5b505050506040513d601f19601f82011682018060405250810190610a639190614b25565b60015491935091506fffffffffffffffffffffffffffffffff83161015610b18576011546040516399de1a4360e01b81526001600160a01b03868116600483015260009216906399de1a4390602401600060405180830381865afa158015610acf573d6000803e3d6000fd5b505050506040513d6000823e601f3d908101601f19168201604052610af79190810190614b58565b90508051600003610b0d57506001949350505050565b506002949350505050565b6001546fffffffffffffffffffffffffffffffff82161015610bbd57601154604051631baeec3f60e31b81526001600160a01b0386811660048301529091169063dd7761f890602401602060405180830381865afa158015610b7e573d6000803e3d6000fd5b505050506040513d601f19601f82011682018060405250810190610ba29190614bec565b600003610bb3575060039392505050565b5060049392505050565b5060059392505050565b6000610bff848484604051602001610be191815260200190565b6040516020818303038152906040528051906020012060001c613283565b949350505050565b610c1033612dab565b610c825760405162461bcd60e51b815260206004820152602560248201527f416e6e6f756e63696e6720617661696c6162696c697479206e6f7420706f737360448201527f69626c652e00000000000000000000000000000000000000000000000000000060648201526084016109cb565b438210610cf75760405162461bcd60e51b815260206004820152602a60248201527f5f626c6f636b4e756d62657220617267756d656e74206d75737420626520696e60448201527f2074686520706173742e0000000000000000000000000000000000000000000060648201526084016109cb565b43610d03836010614c1b565b11610d9c5760405162461bcd60e51b815260206004820152604560248201527f5f626c6f636b4e756d62657220617267756d656e74206d75737420626520696e60448201527f2074686520706173742077697468696e20746865206c6173742032353520626c60648201527f6f636b732e000000000000000000000000000000000000000000000000000000608482015260a4016109cb565b80824014610e125760405162461bcd60e51b815260206004820152603360248201527f70726f766964656420626c6f636b68617368206d757374206d6174636820626c60448201527f6f636b636861696e7320626c6f636b686173680000000000000000000000000060648201526084016109cb565b6000306001600160a01b0316636c9230db6040518163ffffffff1660e01b8152600401602060405180830381865afa158015610e52573d6000803e3d6000fd5b505050506040513d601f19601f82011682018060405250810190610e769190614bec565b33600081815260146020908152604091829020849055815192835282018390529192507f705d65dbee06de60e6465d68371ce849d5a1ead53e53d01a413b2b01393aa022910160405180910390a1610ecd33612066565b610f4257601054336000908152600f602052604090819020549051631ec56e5360e21b81526001600160a01b039182166004820152911690637b15b94c906024015b600060405180830381600087803b158015610f2957600080fd5b505af1158015610f3d573d6000803e3d6000fd5b505050505b505050565b7fb53127684a568b3173ae13b9f8a6016e243e63b6e8ee1178d6a717850b5d6103546001600160a01b0316336001600160a01b03161480610fba57507fb53127684a568b3173ae13b9f8a6016e243e63b6e8ee1178d6a717850b5d6103546001600160a01b0316326001600160a01b0316145b80610fed57507fb53127684a568b3173ae13b9f8a6016e243e63b6e8ee1178d6a717850b5d6103546001600160a01b0316155b80610ff6575043155b6110685760405162461bcd60e51b815260206004820152603e60248201527f56616c696461746f725365743a20496e697469616c697a6174696f6e206f6e6c60448201527f79206f6e2067656e6573697320626c6f636b206f722062792061646d696e000060648201526084016109cb565b6008546001600160a01b0316156110e75760405162461bcd60e51b815260206004820152602c60248201527f56616c696461746f7253657420636f6e747261637420697320616c726561647960448201527f20696e697469616c697a6564000000000000000000000000000000000000000060648201526084016109cb565b6001600160a01b0388166111635760405162461bcd60e51b815260206004820152602960248201527f426c6f636b52657761726420636f6e747261637420616464726573732063616e60448201527f277420626520307830000000000000000000000000000000000000000000000060648201526084016109cb565b6001600160a01b0387166111c55760405162461bcd60e51b8152602060048201526024808201527f52616e646f6d20636f6e747261637420616464726573732063616e27742062656044820152630203078360e41b60648201526084016109cb565b6001600160a01b0386166112415760405162461bcd60e51b815260206004820152602560248201527f5374616b696e6720636f6e747261637420616464726573732063616e2774206260448201527f652030783000000000000000000000000000000000000000000000000000000060648201526084016109cb565b6001600160a01b0385166112bd5760405162461bcd60e51b815260206004820152602b60248201527f4b657947656e486973746f727920636f6e74726163742061646472657373206360448201527f616e27742062652030783000000000000000000000000000000000000000000060648201526084016109cb565b826113305760405162461bcd60e51b815260206004820152602560248201527f4d7573742070726f7669646520696e697469616c206d696e696e67206164647260448201527f657373657300000000000000000000000000000000000000000000000000000060648201526084016109cb565b8281146113a55760405162461bcd60e51b815260206004820152603860248201527f4d7573742070726f76696465207468652073616d6520616d6f756e74206f662060448201527f6d696e696e672f7374616b696e6720616464726573736573000000000000000060648201526084016109cb565b600880546001600160a01b03808b166001600160a01b031992831617909255600c80548a841690831617905560108054898416908316179055601180549288169290911691909117905560005b838110156114e557600085858381811061140e5761140e614c2e565b905060200201602081019061142391906145e4565b60008054600180820183557f290decd9548b62a8d60345a988386fc84ba6bc95484008f6362f93160ef3e56390910180546001600160a01b0319166001600160a01b0385169081179091558252600960209081526040808420805460ff191690931790925560129052812080549293509061149d83614c44565b91905055506114d2818585858181106114b8576114b8614c2e565b90506020020160208101906114cd91906145e4565b612ece565b50806114dd81614c44565b9150506113f2565b5050601960155550505050505050565b6008546001600160a01b0316331461154f5760405162461bcd60e51b815260206004820152601960248201527f4f6e6c7920426c6f636b52657761726420636f6e74726163740000000000000060448201526064016109cb565b604080516000815260208101909152611567906132ec565b565b60165481116115e05760405162461bcd60e51b815260206004820152603760248201527f73657443757272656e7454696d657374616d703a2043616e27742074696d657460448201527f726176656c206261636b20746f2074686520706173742100000000000000000060648201526084016109cb565b601655565b6010546001600160a01b0316331461163f5760405162461bcd60e51b815260206004820152601560248201527f4f6e6c79205374616b696e6720436f6e7472616374000000000000000000000060448201526064016109cb565b6001600160a01b039081166000908152600b602090815260408083205490931682526014905290812055565b6008546001600160a01b031633146116c55760405162461bcd60e51b815260206004820152601960248201527f4f6e6c7920426c6f636b52657761726420636f6e74726163740000000000000060448201526064016109cb565b600154156116dd576116d5613a9f565b6116dd613b8a565b601060009054906101000a90046001600160a01b03166001600160a01b031663ee435f556040518163ffffffff1660e01b8152600401600060405180830381600087803b15801561172d57600080fd5b505af1158015611741573d6000803e3d6000fd5b50505050601160009054906101000a90046001600160a01b03166001600160a01b0316632c6f194d6040518163ffffffff1660e01b8152600401600060405180830381600087803b15801561179557600080fd5b505af11580156117a9573d6000803e3d6000fd5b50505050600160006117bb919061454c565b601060009054906101000a90046001600160a01b03166001600160a01b0316638247a239306001600160a01b0316636c9230db6040518163ffffffff1660e01b8152600401602060405180830381865afa15801561181d573d6000803e3d6000fd5b505050506040513d601f19601f820116820180604052508101906118419190614bec565b6040518263ffffffff1660e01b815260040161185f91815260200190565b600060405180830381600087803b15801561187957600080fd5b505af115801561188d573d6000803e3d6000fd5b50505050565b606060028054806020026020016040519081016040528092919081815260200182805480156118eb57602002820191906000526020600020905b81546001600160a01b031681526001909101906020018083116118cd575b5050505050905090565b6010546001600160a01b038281166000908152600f602052604090819020549051634e9b426d60e01b815290821660048201526060929190911690634e9b426d906024015b600060405180830381865afa158015611957573d6000803e3d6000fd5b505050506040513d6000823e601f3d908101601f1916820160405261197f9190810190614b58565b92915050565b6001600160a01b038116600090815260096020526040812054819060ff1680156119b557506119b383612066565b155b9050601060009054906101000a90046001600160a01b03166001600160a01b031663794c0c686040518163ffffffff1660e01b8152600401602060405180830381865afa158015611a0a573d6000803e3d6000fd5b505050506040513d601f19601f82011682018060405250810190611a2e9190614bec565b600003611a3b5792915050565b60105460408051634f9a8d8f60e01b815290516005926001600160a01b031691634f9a8d8f9160048083019260209291908290030181865afa158015611a85573d6000803e3d6000fd5b505050506040513d601f19601f82011682018060405250810190611aa99190614bec565b611ab39190614c73565b601060009054906101000a90046001600160a01b03166001600160a01b0316639b03d7446040518163ffffffff1660e01b8152600401602060405180830381865afa158015611b06573d6000803e3d6000fd5b505050506040513d601f19601f82011682018060405250810190611b2a9190614bec565b306001600160a01b0316636c9230db6040518163ffffffff1660e01b8152600401602060405180830381865afa158015611b68573d6000803e3d6000fd5b505050506040513d601f19601f82011682018060405250810190611b8c9190614bec565b611b969190614c87565b1161197f576001600160a01b0383166000908152600a602052604090205460ff168180610bff57509392505050565b601054604051634e9b426d60e01b81526001600160a01b0383811660048301526060921690634e9b426d9060240161193a565b7fb53127684a568b3173ae13b9f8a6016e243e63b6e8ee1178d6a717850b5d6103546001600160a01b0316336001600160a01b031614611ca05760405162461bcd60e51b815260206004820152602b60248201527f6f6e6c792061646d696e20697320616c6c6f77656420746f2063616c6c20746860448201527f69732066756e6374696f6e00000000000000000000000000000000000000000060648201526084016109cb565b601555565b6001600160a01b03811660009081526009602052604081205460ff1615611cce57506001919050565b61197f82612e02565b336000908152600f60205260409020546001600160a01b031680611d495760405162461bcd60e51b815260206004820152602360248201527f4e6f20506f6f6c20646566696e656420666f7220746869732076616c6964617460448201526237b91760e91b60648201526084016109cb565b601054604051637b0a0f9b60e01b81526001600160a01b0383811660048301526fffffffffffffffffffffffffffffffff19861660248301527fffff0000000000000000000000000000000000000000000000000000000000008516604483015290911690637b0a0f9b90606401610f0f565b600080611dc885611985565b611dd757506000905080611fde565b611de084611985565b611def57506000905080611fde565b6000546001811115611f015760105460408051630f29818d60e31b815290516000926001600160a01b03169163794c0c689160048083019260209291908290030181865afa158015611e45573d6000803e3d6000fd5b505050506040513d601f19601f82011682018060405250810190611e699190614bec565b6001600160a01b0388166000908152600d60209081526040808320848452825280832054600e9092528220549293509190828210611ec357611eac600186614c87565b611eb68484614c87565b611ec09190614c73565b90505b611ece856032614c9a565b83118015611ee55750611ee281600a614c9a565b83115b15611efc5760006001965096505050505050611fde565b505050505b4380851115611f1857600080935093505050611fde565b60648082118015611f315750611f2e8183614c87565b86105b15611f455760008094509450505050611fde565b6001600160a01b03871660009081526003602090815260408083208984529091528120805490915b81811015611fcf578a6001600160a01b0316838281548110611f9157611f91614c2e565b6000918252602090912001546001600160a01b031603611fbd5760008097509750505050505050611fde565b80611fc781614c44565b915050611f6d565b50600160009650965050505050505b935093915050565b6001600160a01b0381166000908152600660209081526040808320548151636c9230db60e01b8152915190923092636c9230db92600480830193928290030181865afa15801561203a573d6000803e3d6000fd5b505050506040513d601f19601f8201168201806040525081019061205e9190614bec565b111592915050565b6001600160a01b0381166000908152600560209081526040808320548151636c9230db60e01b8152915190923092636c9230db92600480830193928290030181865afa15801561203a573d6000803e3d6000fd5b6008546001600160a01b031633146121145760405162461bcd60e51b815260206004820152601960248201527f4f6e6c7920426c6f636b52657761726420636f6e74726163740000000000000060448201526064016109cb565b601060009054906101000a90046001600160a01b03166001600160a01b03166322e3d9866040518163ffffffff1660e01b8152600401602060405180830381865afa158015612167573d6000803e3d6000fd5b505050506040513d601f19601f8201168201806040525081019061218b9190614bec565b306001600160a01b0316636c9230db6040518163ffffffff1660e01b8152600401602060405180830381865afa1580156121c9573d6000803e3d6000fd5b505050506040513d601f19601f820116820180604052508101906121ed9190614bec565b10156122875760405162461bcd60e51b815260206004820152604c60248201527f6661696c6564206b65792067656e65726174696f6e2063616e206f6e6c79206260448201527f652070726f63657373656420616674657220746865207374616b696e6720657060648201527f6f6368206973206f7665722e0000000000000000000000000000000000000000608482015260a4016109cb565b601060009054906101000a90046001600160a01b03166001600160a01b031663a5d54f656040518163ffffffff1660e01b8152600401600060405180830381865afa1580156122da573d6000803e3d6000fd5b505050506040513d6000823e601f3d908101601f191682016040526123029190810190614cb1565b51156115675760015415611567576001805460009161232091614c87565b67ffffffffffffffff81111561233857612338614723565b604051908082528060200260200182016040528015612361578160200160208202803683370190505b50905060008080601160009054906101000a90046001600160a01b03166001600160a01b0316637be02c2b6040518163ffffffff1660e01b81526004016040805180830381865afa1580156123ba573d6000803e3d6000fd5b505050506040513d601f19601f820116820180604052508101906123de9190614b25565b9150915060005b6001548110156126fb5760006001828154811061240457612404614c2e565b60009182526020822001546001546001600160a01b0390911692506fffffffffffffffffffffffffffffffff861610156124b4576011546040516399de1a4360e01b81526001600160a01b03848116600483015260009216906399de1a4390602401600060405180830381865afa158015612483573d6000803e3d6000fd5b505050506040513d6000823e601f3d908101601f191682016040526124ab9190810190614b58565b51119050612543565b6001546fffffffffffffffffffffffffffffffff8516101561254357601154604051631baeec3f60e31b81526001600160a01b038481166004830152600092169063dd7761f890602401602060405180830381865afa15801561251b573d6000803e3d6000fd5b505050506040513d601f19601f8201168201806040525081019061253f9190614bec565b1190505b80156125b6576001838154811061255c5761255c614c2e565b9060005260206000200160009054906101000a90046001600160a01b031687878151811061258c5761258c614c2e565b6001600160a01b0390921660209283029190910190910152856125ae81614c44565b9650506126e6565b6010546001600160a01b038381166000908152600f602052604090819020549051631dbe84a360e11b81529082166004820152911690633b7d094690602401600060405180830381600087803b15801561260f57600080fd5b505af1158015612623573d6000803e3d6000fd5b5050506001600160a01b0383166000908152601460209081526040808320929092558151636c9230db60e01b815291517f7ec36d1734626f8b3686f8791130187e1633c843b1995003e788cd2b33d56903935085923092636c9230db926004808401938290030181865afa15801561269f573d6000803e3d6000fd5b505050506040513d601f19601f820116820180604052508101906126c39190614bec565b604080516001600160a01b03909316835260208301919091520160405180910390a15b505080806126f390614c44565b9150506123e5565b50601154604051632f8ba4bf60e11b81526001600160a01b0390911690635f17497e9061272d90600190600401614d40565b600060405180830381600087803b15801561274757600080fd5b505af115801561275b573d6000803e3d6000fd5b50505050601160009054906101000a90046001600160a01b03166001600160a01b031663adddc0cf6040518163ffffffff1660e01b8152600401600060405180830381600087803b1580156127af57600080fd5b505af11580156127c3573d6000803e3d6000fd5b5050505060008367ffffffffffffffff8111156127e2576127e2614723565b60405190808252806020026020018201604052801561280b578160200160208202803683370190505b50905060005b8481101561286f5785818151811061282b5761282b614c2e565b602002602001015182828151811061284557612845614c2e565b6001600160a01b03909216602092830291909101909101528061286781614c44565b915050612811565b50601060009054906101000a90046001600160a01b03166001600160a01b031663adddc0cf6040518163ffffffff1660e01b8152600401600060405180830381600087803b1580156128c057600080fd5b505af11580156128d4573d6000803e3d6000fd5b505050506000601060009054906101000a90046001600160a01b03166001600160a01b031663a5d54f656040518163ffffffff1660e01b8152600401600060405180830381865afa15801561292d573d6000803e3d6000fd5b505050506040513d6000823e601f3d908101601f191682016040526129559190810190614cb1565b51111561296557612965816132ec565b5050505050565b6001600160a01b03821660009081526003602090815260408083208484528252918290208054835181840281018401909452808452606093928301828280156129de57602002820191906000526020600020905b81546001600160a01b031681526001909101906020018083116129c0575b5050505050905092915050565b606060008054806020026020016040519081016040528092919081815260200182805480156118eb576020028201919060005260206000209081546001600160a01b031681526001909101906020018083116118cd575050505050905090565b6008546001600160a01b0316612aa35760405162461bcd60e51b815260206004820152601d60248201527f56616c696461746f725365743a206e6f7420696e697469616c697a656400000060448201526064016109cb565b33612aad81613d44565b600080612abb838888611dbc565b9150915081612b3b578015612b3357604080516001808252818301909252600091602080830190803683370190505090508381600081518110612b0057612b00614c2e565b60200260200101906001600160a01b031690816001600160a01b031681525050612b3181637370616d60e01b612e66565b505b50505061188d565b6001600160a01b0387811660008181526003602090815260408083208b8452825280832080546001810182558185529383902090930180546001600160a01b0319169589169586179055805194855290840192909252908201889052907f729a19138e072a5a8d3a56d74ae0b5c84530f09aacd6e12b24c5b2fdc3f8a3d09060600160405180910390a160008054906003821115612bf357612bde826002614c9a565b8354612beb906003614c9a565b119050612c06565b82548290612c02906002614c9a565b1190505b8015612c8e57604080516001808252818301909252600091602080830190803683370190505090508a81600081518110612c4257612c42614c2e565b60200260200101906001600160a01b031690816001600160a01b031681525050612c8c817f6d616c6963696f75730000000000000000000000000000000000000000000000612e66565b505b50505050505050505050565b606060018054806020026020016040519081016040528092919081815260200182805480156118eb576020028201919060005260206000209081546001600160a01b031681526001909101906020018083116118cd575050505050905090565b6000808211612d715760405162461bcd60e51b815260206004820152602560248201527f5f706f737369626c6556616c696461746f72436f756e74206d757374206e6f7460448201527f206265203000000000000000000000000000000000000000000000000000000060648201526084016109cb565b6004821015612d7e575090565b6003612d8b600184614c87565b612d959190614c73565b612da0906003614c9a565b61197f906001614c1b565b6001600160a01b038181166000908152600f6020526040812054909116612dd457506000919050565b6001600160a01b03821660009081526014602052604090205415612dfa57506000919050565b506001919050565b6000805b600154811015612e5d5760018181548110612e2357612e23614c2e565b6000918252602090912001546001600160a01b0390811690841603612e4b5750600192915050565b80612e5581614c44565b915050612e06565b50600092915050565b60005b8251811015610f4257612e95838281518110612e8757612e87614c2e565b602002602001015183613e1c565b15612ebc57612ebc838281518110612eaf57612eaf614c2e565b6020026020010151614048565b80612ec681614c44565b915050612e69565b6001600160a01b038216612f245760405162461bcd60e51b815260206004820152601960248201527f4d696e696e6720616464726573732063616e277420626520300000000000000060448201526064016109cb565b6001600160a01b038116612f7a5760405162461bcd60e51b815260206004820152601a60248201527f5374616b696e6720616464726573732063616e2774206265203000000000000060448201526064016109cb565b806001600160a01b0316826001600160a01b0316036130015760405162461bcd60e51b815260206004820152603460248201527f4d696e696e6720616464726573732063616e6e6f74206265207468652073616d60448201527f6520617320746865207374616b696e67206f6e6500000000000000000000000060648201526084016109cb565b6001600160a01b038181166000908152600b6020526040902054161561308f5760405162461bcd60e51b815260206004820152602d60248201527f5374616b696e67206164647265737320616c726561647920757365642061732060448201527f61207374616b696e67206f6e650000000000000000000000000000000000000060648201526084016109cb565b6001600160a01b038281166000908152600b6020526040902054161561311d5760405162461bcd60e51b815260206004820152602c60248201527f4d696e696e67206164647265737320616c72656164792075736564206173206160448201527f207374616b696e67206f6e65000000000000000000000000000000000000000060648201526084016109cb565b6001600160a01b038181166000908152600f602052604090205416156131ab5760405162461bcd60e51b815260206004820152602c60248201527f5374616b696e67206164647265737320616c726561647920757365642061732060448201527f61206d696e696e67206f6e65000000000000000000000000000000000000000060648201526084016109cb565b6001600160a01b038281166000908152600f602052604090205416156132395760405162461bcd60e51b815260206004820152602b60248201527f4d696e696e67206164647265737320616c72656164792075736564206173206160448201527f206d696e696e67206f6e6500000000000000000000000000000000000000000060648201526084016109cb565b6001600160a01b039081166000818152600b602090815260408083208054959096166001600160a01b03199586168117909655948252600f90529290922080549091169091179055565b6000806132908484614d84565b90506000805b8282116132d6578681815181106132af576132af614c2e565b6020026020010151826132c29190614c1b565b9150806132ce81614c44565b915050613296565b6132e1600182614c87565b979650505050505050565b6010546040805163a5d54f6560e01b815290516000926001600160a01b03169163a5d54f6591600480830192869291908290030181865afa158015613335573d6000803e3d6000fd5b505050506040513d6000823e601f3d908101601f1916820160405261335d9190810190614cb1565b90506000601554825110158061337257508151155b613385576133808251612cfa565b613389565b6015545b905080825111156137e25781516010546040805163957950a760e01b8152905160009283926001600160a01b039091169163957950a79160048082019286929091908290030181865afa1580156133e4573d6000803e3d6000fd5b505050506040513d6000823e601f3d908101601f1916820160405261340c9190810190614d98565b9150915060008467ffffffffffffffff81111561342b5761342b614723565b604051908082528060200260200182016040528015613454578160200160208202803683370190505b5090506000805b88518110156135ed5760005b868110156135da5789828151811061348157613481614c2e565b60200260200101516001600160a01b03168982815181106134a4576134a4614c2e565b60200260200101516001600160a01b0316036135c8578982815181106134cc576134cc614c2e565b60200260200101518484815181106134e6576134e6614c2e565b6001600160a01b03909216602092830291909101909101528261350881614c44565b93505085818151811061351d5761351d614c2e565b6020026020010151856135309190614c87565b94508661353c81614e31565b97505088878151811061355157613551614c2e565b602002602001015189828151811061356b5761356b614c2e565b60200260200101906001600160a01b031690816001600160a01b03168152505085878151811061359d5761359d614c2e565b60200260200101518682815181106135b7576135b7614c2e565b6020026020010181815250506135da565b806135d281614c44565b915050613467565b50806135e581614c44565b91505061345b565b50600c5460408051634191031360e11b815290516000926001600160a01b03169163832206269160048083019260209291908290030181865afa158015613638573d6000803e3d6000fd5b505050506040513d601f19601f8201168201806040525081019061365c9190614bec565b90506000855111801561366f5750600084115b156137d75760005b83518110156137cd57604080514284186020820152016040516020818303038152906040528051906020012060001c915060006136b5878785613283565b90508981815181106136c9576136c9614c2e565b60200260200101518583815181106136e3576136e3614c2e565b60200260200101906001600160a01b031690816001600160a01b03168152505086818151811061371557613715614c2e565b6020026020010151866137289190614c87565b95508761373481614e31565b98505089888151811061374957613749614c2e565b60200260200101518a828151811061376357613763614c2e565b60200260200101906001600160a01b031690816001600160a01b03168152505086888151811061379557613795614c2e565b60200260200101518782815181106137af576137af614c2e565b602090810291909101015250806137c581614c44565b915050613677565b506137d78361412f565b5050505050506137eb565b6137eb8261412f565b601154604051632f8ba4bf60e11b81526001600160a01b0390911690635f17497e9061381c90600090600401614d40565b600060405180830381600087803b15801561383657600080fd5b505af115801561384a573d6000803e3d6000fd5b5050505081516000146138c057601060009054906101000a90046001600160a01b03166001600160a01b0316631555371c6040518163ffffffff1660e01b8152600401600060405180830381600087803b1580156138a757600080fd5b505af11580156138bb573d6000803e3d6000fd5b505050505b601060009054906101000a90046001600160a01b03166001600160a01b03166322e3d9866040518163ffffffff1660e01b8152600401602060405180830381865afa158015613913573d6000803e3d6000fd5b505050506040513d601f19601f820116820180604052508101906139379190614bec565b306001600160a01b0316636c9230db6040518163ffffffff1660e01b8152600401602060405180830381865afa158015613975573d6000803e3d6000fd5b505050506040513d601f19601f820116820180604052508101906139999190614bec565b1115610f425760105460408051631171ecc360e11b815290516001600160a01b0390921691639e72c6359183916322e3d986916004808201926020929091908290030181865afa1580156139f1573d6000803e3d6000fd5b505050506040513d601f19601f82011682018060405250810190613a159190614bec565b306001600160a01b0316636c9230db6040518163ffffffff1660e01b8152600401602060405180830381865afa158015613a53573d6000803e3d6000fd5b505050506040513d601f19601f82011682018060405250810190613a779190614bec565b613a819190614c87565b6040518263ffffffff1660e01b8152600401610f0f91815260200190565b60025460005b81811015613b0c576000600a600060028481548110613ac657613ac6614c2e565b6000918252602080832091909101546001600160a01b031683528201929092526040019020805460ff191691151591909117905580613b0481614c44565b915050613aa5565b505060008054905b81811015613b7a576001600a6000808481548110613b3457613b34614c2e565b6000918252602080832091909101546001600160a01b031683528201929092526040019020805460ff191691151591909117905580613b7281614c44565b915050613b14565b60008054610f429160029161456a565b6060600080805480602002602001604051908101604052809291908181526020018280548015613be357602002820191906000526020600020905b81546001600160a01b03168152600190910190602001808311613bc5575b50505050509150600090505b8151811015613c5457600060096000848481518110613c1057613c10614c2e565b6020908102919091018101516001600160a01b03168252810191909152604001600020805460ff191691151591909117905580613c4c81614c44565b915050613bef565b60018054613c649160009161456a565b506000805480602002602001604051908101604052809291908181526020018280548015613cbb57602002820191906000526020600020905b81546001600160a01b03168152600190910190602001808311613c9d575b50505050509150600090505b8151811015610971576000828281518110613ce457613ce4614c2e565b6020908102919091018101516001600160a01b0381166000908152600983526040808220805460ff19166001179055601290935291822080549193509091613d2b83614c44565b9190505550508080613d3c90614c44565b915050613cc7565b613d4d81611985565b613d545750565b60105460408051630f29818d60e31b815290516000926001600160a01b03169163794c0c689160048083019260209291908290030181865afa158015613d9e573d6000803e3d6000fd5b505050506040513d601f19601f82011682018060405250810190613dc29190614bec565b6001600160a01b0383166000908152600d602090815260408083208484529091528120805492935090613df483614c44565b90915550506000818152600e60205260408120805491613e1383614c44565b91905055505050565b600080613e2884612066565b90506000613e346143c1565b6001600160a01b0386166000908152600460205260408120805492935090613e5b83614c44565b90915550506001600160a01b0385166000908152600560209081526040808320849055600790915290208490558115613e995760009250505061197f565b6001600160a01b038581166000908152600660209081526040808320859055600f90915290819020546010549151631dbe84a360e11b815290831660048201819052929190911690633b7d094690602401600060405180830381600087803b158015613f0457600080fd5b505af1158015613f18573d6000803e3d6000fd5b50506000549150506001819003613f3657600094505050505061197f565b60005b8181101561403a57876001600160a01b031660008281548110613f5e57613f5e614c2e565b6000918252602090912001546001600160a01b031603614028576000613f85600184614c87565b81548110613f9557613f95614c2e565b600091825260208220015481546001600160a01b03909116919083908110613fbf57613fbf614c2e565b6000918252602082200180546001600160a01b0319166001600160a01b039390931692909217909155805480613ff757613ff7614e48565b600082815260209020810160001990810180546001600160a01b0319169055019055506001945061197f9350505050565b8061403281614c44565b915050613f39565b506000979650505050505050565b60105460408051630f29818d60e31b815290516000926001600160a01b03169163794c0c689160048083019260209291908290030181865afa158015614092573d6000803e3d6000fd5b505050506040513d601f19601f820116820180604052508101906140b69190614bec565b6000818152600e60209081526040808320546001600160a01b0387168452600d83528184208585529092528220805492905591925080821061411b576000838152600e602052604081208054839290614110908490614c87565b9091555061188d9050565b50506000908152600e602052604081205550565b61413b6001600061454c565b80516000036143395760005b6000548110156142da57600080828154811061416557614165614c2e565b6000918252602080832091909101546001600160a01b03908116808452600f90925260409283902054601054935163a711e6a160e01b8152908216600482018190529294509192169063a711e6a190602401602060405180830381865afa1580156141d4573d6000803e3d6000fd5b505050506040513d601f19601f820116820180604052508101906141f89190614e5e565b8015614275575060105460405162e9ab0360e81b81526001600160a01b038381166004830181905260248301529091169063e9ab030090604401602060405180830381865afa15801561424f573d6000803e3d6000fd5b505050506040513d601f19601f820116820180604052508101906142739190614bec565b155b156142c5576001805480820182556000919091527fb10e2d527612073b26eecdfd717e6a320cf44b4afac2b0732d9fcbe2b7fa0cf60180546001600160a01b0319166001600160a01b0384161790555b505080806142d290614c44565b915050614147565b50600154600003614336576001600080815481106142fa576142fa614c2e565b60009182526020808320909101548354600181018555938352912090910180546001600160a01b0319166001600160a01b039092169190911790555b50565b60005b8151811015610971576001600b600084848151811061435d5761435d614c2e565b6020908102919091018101516001600160a01b039081168352828201939093526040909101600090812054845460018101865594825291902090920180546001600160a01b03191692909116919091179055806143b981614c44565b91505061433c565b600080306001600160a01b0316636c9230db6040518163ffffffff1660e01b8152600401602060405180830381865afa158015614402573d6000803e3d6000fd5b505050506040513d601f19601f820116820180604052508101906144269190614bec565b9050600081601060009054906101000a90046001600160a01b03166001600160a01b03166322e3d9866040518163ffffffff1660e01b8152600401602060405180830381865afa15801561447e573d6000803e3d6000fd5b505050506040513d601f19601f820116820180604052508101906144a29190614bec565b6144ac9190614c87565b905080601060009054906101000a90046001600160a01b03166001600160a01b0316634f9a8d8f6040518163ffffffff1660e01b8152600401602060405180830381865afa158015614502573d6000803e3d6000fd5b505050506040513d601f19601f820116820180604052508101906145269190614bec565b61453190600c614c9a565b61453b9084614c1b565b6145459190614c1b565b9250505090565b508054600082559060005260206000209081019061433691906145ba565b8280548282559060005260206000209081019282156145aa5760005260206000209182015b828111156145aa57825482559160010191906001019061458f565b506145b69291506145ba565b5090565b5b808211156145b657600081556001016145bb565b6001600160a01b038116811461433657600080fd5b6000602082840312156145f657600080fd5b8135614601816145cf565b9392505050565b6000806040838503121561461b57600080fd5b8235614626816145cf565b946020939093013593505050565b60008083601f84011261464657600080fd5b50813567ffffffffffffffff81111561465e57600080fd5b6020830191508360208260051b850101111561467957600080fd5b9250929050565b6000806020838503121561469357600080fd5b823567ffffffffffffffff8111156146aa57600080fd5b6146b685828601614634565b90969095509350505050565b600080604083850312156146d557600080fd5b82356146e0816145cf565b915060208301356146f0816145cf565b809150509250929050565b602081016006831061471d57634e487b7160e01b600052602160045260246000fd5b91905290565b634e487b7160e01b600052604160045260246000fd5b604051601f8201601f1916810167ffffffffffffffff8111828210171561476257614762614723565b604052919050565b600067ffffffffffffffff82111561478457614784614723565b5060051b60200190565b6000806000606084860312156147a357600080fd5b833567ffffffffffffffff8111156147ba57600080fd5b8401601f810186136147cb57600080fd5b803560206147e06147db8361476a565b614739565b82815260059290921b830181019181810190898411156147ff57600080fd5b938201935b8385101561481d57843582529382019390820190614804565b999188013598505060409096013595945050505050565b6000806040838503121561484757600080fd5b50508035926020909101359150565b60008060008060008060008060c0898b03121561487257600080fd5b883561487d816145cf565b9750602089013561488d816145cf565b9650604089013561489d816145cf565b955060608901356148ad816145cf565b9450608089013567ffffffffffffffff808211156148ca57600080fd5b6148d68c838d01614634565b909650945060a08b01359150808211156148ef57600080fd5b506148fc8b828c01614634565b999c989b5096995094979396929594505050565b60006020828403121561492257600080fd5b5035919050565b6020808252825182820181905260009190848201906040850190845b8181101561496a5783516001600160a01b031683529284019291840191600101614945565b50909695505050505050565b60005b83811015614991578181015183820152602001614979565b50506000910152565b60208152600082518060208401526149b9816040850160208701614976565b601f01601f19169190910160400192915050565b600080604083850312156149e057600080fd5b82356fffffffffffffffffffffffffffffffff1981168114614a0157600080fd5b915060208301357fffff000000000000000000000000000000000000000000000000000000000000811681146146f057600080fd5b600080600060608486031215614a4b57600080fd5b8335614a56816145cf565b92506020840135614a66816145cf565b929592945050506040919091013590565b60008060008060608587031215614a8d57600080fd5b8435614a98816145cf565b935060208501359250604085013567ffffffffffffffff80821115614abc57600080fd5b818701915087601f830112614ad057600080fd5b813581811115614adf57600080fd5b886020828501011115614af157600080fd5b95989497505060200194505050565b80516fffffffffffffffffffffffffffffffff81168114614b2057600080fd5b919050565b60008060408385031215614b3857600080fd5b614b4183614b00565b9150614b4f60208401614b00565b90509250929050565b600060208284031215614b6a57600080fd5b815167ffffffffffffffff80821115614b8257600080fd5b818401915084601f830112614b9657600080fd5b815181811115614ba857614ba8614723565b614bbb601f8201601f1916602001614739565b9150808252856020828501011115614bd257600080fd5b614be3816020840160208601614976565b50949350505050565b600060208284031215614bfe57600080fd5b5051919050565b634e487b7160e01b600052601160045260246000fd5b8082018082111561197f5761197f614c05565b634e487b7160e01b600052603260045260246000fd5b600060018201614c5657614c56614c05565b5060010190565b634e487b7160e01b600052601260045260246000fd5b600082614c8257614c82614c5d565b500490565b8181038181111561197f5761197f614c05565b808202811582820484141761197f5761197f614c05565b60006020808385031215614cc457600080fd5b825167ffffffffffffffff811115614cdb57600080fd5b8301601f81018513614cec57600080fd5b8051614cfa6147db8261476a565b81815260059190911b82018301908381019087831115614d1957600080fd5b928401925b828410156132e1578351614d31816145cf565b82529284019290840190614d1e565b6020808252825482820181905260008481528281209092916040850190845b8181101561496a5783546001600160a01b031683526001938401939285019201614d5f565b600082614d9357614d93614c5d565b500690565b60008060408385031215614dab57600080fd5b825167ffffffffffffffff811115614dc257600080fd5b8301601f81018513614dd357600080fd5b80516020614de36147db8361476a565b82815260059290921b83018101918181019088841115614e0257600080fd5b938201935b83851015614e2057845182529382019390820190614e07565b969091015195979596505050505050565b600081614e4057614e40614c05565b506000190190565b634e487b7160e01b600052603160045260246000fd5b600060208284031215614e7057600080fd5b8151801515811461460157600080fdfea264697066735822122086fbe42c0828d8b81d74de20cf1fe25a605542a0d82855dfc432a0c9bd87bc2e64736f6c63430008110033",
  "linkReferences": {},
  "deployedLinkReferences": {}
}