{
  "_format": "hh-sol-artifact-1",
  "contractName": "ValidatorSetHbbft",
  "sourceName": "contracts/ValidatorSetHbbft.sol",
  "abi": [
    {
      "anonymous": false,
      "inputs": [
        {
          "indexed": false,
          "internalType": "address",
          "name": "reportingValidator",
          "type": "address"
        },
        {
          "indexed": false,
          "internalType": "address",
          "name": "maliciousValidator",
          "type": "address"
        },
        {
          "indexed": false,
          "internalType": "uint256",
          "name": "blockNumber",
          "type": "uint256"
        }
      ],
      "name": "ReportedMalicious",
      "type": "event"
    },
    {
      "anonymous": false,
      "inputs": [
        {
          "indexed": false,
          "internalType": "address",
          "name": "validator",
          "type": "address"
        },
        {
          "indexed": false,
          "internalType": "uint256",
          "name": "timestamp",
          "type": "uint256"
        }
      ],
      "name": "ValidatorAvailable",
      "type": "event"
    },
    {
      "anonymous": false,
      "inputs": [
        {
          "indexed": false,
          "internalType": "address",
          "name": "validator",
          "type": "address"
        },
        {
          "indexed": false,
          "internalType": "uint256",
          "name": "timestamp",
          "type": "uint256"
        }
      ],
      "name": "ValidatorUnavailable",
      "type": "event"
    },
    {
      "inputs": [
        {
          "internalType": "uint256",
          "name": "_blockNumber",
          "type": "uint256"
        },
        {
          "internalType": "bytes32",
          "name": "_blockhash",
          "type": "bytes32"
        }
      ],
      "name": "announceAvailability",
      "outputs": [],
      "stateMutability": "nonpayable",
      "type": "function"
    },
    {
      "inputs": [
        {
          "internalType": "address",
          "name": "_miningAddress",
          "type": "address"
        }
      ],
      "name": "areDelegatorsBanned",
      "outputs": [
        {
          "internalType": "bool",
          "name": "",
          "type": "bool"
        }
      ],
      "stateMutability": "view",
      "type": "function"
    },
    {
      "inputs": [
        {
          "internalType": "address",
          "name": "",
          "type": "address"
        }
      ],
      "name": "banCounter",
      "outputs": [
        {
          "internalType": "uint256",
          "name": "",
          "type": "uint256"
        }
      ],
      "stateMutability": "view",
      "type": "function"
    },
    {
      "inputs": [
        {
          "internalType": "address",
          "name": "",
          "type": "address"
        }
      ],
      "name": "banReason",
      "outputs": [
        {
          "internalType": "bytes32",
          "name": "",
          "type": "bytes32"
        }
      ],
      "stateMutability": "view",
      "type": "function"
    },
    {
      "inputs": [
        {
          "internalType": "address",
          "name": "",
          "type": "address"
        }
      ],
      "name": "bannedDelegatorsUntil",
      "outputs": [
        {
          "internalType": "uint256",
          "name": "",
          "type": "uint256"
        }
      ],
      "stateMutability": "view",
      "type": "function"
    },
    {
      "inputs": [
        {
          "internalType": "address",
          "name": "",
          "type": "address"
        }
      ],
      "name": "bannedUntil",
      "outputs": [
        {
          "internalType": "uint256",
          "name": "",
          "type": "uint256"
        }
      ],
      "stateMutability": "view",
      "type": "function"
    },
    {
      "inputs": [],
      "name": "blockRewardContract",
      "outputs": [
        {
          "internalType": "address",
          "name": "",
          "type": "address"
        }
      ],
      "stateMutability": "view",
      "type": "function"
    },
    {
      "inputs": [
        {
          "internalType": "address",
          "name": "_miningAddress",
          "type": "address"
        }
      ],
      "name": "canCallAnnounceAvailability",
      "outputs": [
        {
          "internalType": "bool",
          "name": "",
          "type": "bool"
        }
      ],
      "stateMutability": "view",
      "type": "function"
    },
    {
      "inputs": [],
      "name": "finalizeChange",
      "outputs": [],
      "stateMutability": "nonpayable",
      "type": "function"
    },
    {
      "inputs": [],
      "name": "getCurrentTimestamp",
      "outputs": [
        {
          "internalType": "uint256",
          "name": "",
          "type": "uint256"
        }
      ],
      "stateMutability": "view",
      "type": "function"
    },
    {
      "inputs": [
        {
          "internalType": "address",
          "name": "_miningAddress",
          "type": "address"
        }
      ],
      "name": "getPendingValidatorKeyGenerationMode",
      "outputs": [
        {
          "internalType": "enum IValidatorSetHbbft.KeyGenMode",
          "name": "",
          "type": "uint8"
        }
      ],
      "stateMutability": "view",
      "type": "function"
    },
    {
      "inputs": [],
      "name": "getPendingValidators",
      "outputs": [
        {
          "internalType": "address[]",
          "name": "",
          "type": "address[]"
        }
      ],
      "stateMutability": "view",
      "type": "function"
    },
    {
      "inputs": [],
      "name": "getPreviousValidators",
      "outputs": [
        {
          "internalType": "address[]",
          "name": "",
          "type": "address[]"
        }
      ],
      "stateMutability": "view",
      "type": "function"
    },
    {
      "inputs": [
        {
          "internalType": "address",
          "name": "_miningAddress",
          "type": "address"
        }
      ],
      "name": "getPublicKey",
      "outputs": [
        {
          "internalType": "bytes",
          "name": "",
          "type": "bytes"
        }
      ],
      "stateMutability": "view",
      "type": "function"
    },
    {
      "inputs": [],
      "name": "getStakingContract",
      "outputs": [
        {
          "internalType": "address",
          "name": "",
          "type": "address"
        }
      ],
      "stateMutability": "view",
      "type": "function"
    },
    {
      "inputs": [
        {
          "internalType": "uint256",
          "name": "_possibleValidatorCount",
          "type": "uint256"
        }
      ],
      "name": "getValidatorCountSweetSpot",
      "outputs": [
        {
          "internalType": "uint256",
          "name": "",
          "type": "uint256"
        }
      ],
      "stateMutability": "view",
      "type": "function"
    },
    {
      "inputs": [],
      "name": "getValidators",
      "outputs": [
        {
          "internalType": "address[]",
          "name": "",
          "type": "address[]"
        }
      ],
      "stateMutability": "view",
      "type": "function"
    },
    {
      "inputs": [],
      "name": "handleFailedKeyGeneration",
      "outputs": [],
      "stateMutability": "nonpayable",
      "type": "function"
    },
    {
      "inputs": [
        {
          "internalType": "address",
          "name": "_blockRewardContract",
          "type": "address"
        },
        {
          "internalType": "address",
          "name": "_randomContract",
          "type": "address"
        },
        {
          "internalType": "address",
          "name": "_stakingContract",
          "type": "address"
        },
        {
          "internalType": "address",
          "name": "_keyGenHistoryContract",
          "type": "address"
        },
        {
          "internalType": "address[]",
          "name": "_initialMiningAddresses",
          "type": "address[]"
        },
        {
          "internalType": "address[]",
          "name": "_initialStakingAddresses",
          "type": "address[]"
        }
      ],
      "name": "initialize",
      "outputs": [],
      "stateMutability": "nonpayable",
      "type": "function"
    },
    {
      "inputs": [],
      "name": "isFullHealth",
      "outputs": [
        {
          "internalType": "bool",
          "name": "",
          "type": "bool"
        }
      ],
      "stateMutability": "view",
      "type": "function"
    },
    {
      "inputs": [],
      "name": "isInitialized",
      "outputs": [
        {
          "internalType": "bool",
          "name": "",
          "type": "bool"
        }
      ],
      "stateMutability": "view",
      "type": "function"
    },
    {
      "inputs": [
        {
          "internalType": "address",
          "name": "_miningAddress",
          "type": "address"
        }
      ],
      "name": "isPendingValidator",
      "outputs": [
        {
          "internalType": "bool",
          "name": "",
          "type": "bool"
        }
      ],
      "stateMutability": "view",
      "type": "function"
    },
    {
      "inputs": [
        {
          "internalType": "address",
          "name": "_miningAddress",
          "type": "address"
        }
      ],
      "name": "isReportValidatorValid",
      "outputs": [
        {
          "internalType": "bool",
          "name": "",
          "type": "bool"
        }
      ],
      "stateMutability": "view",
      "type": "function"
    },
    {
      "inputs": [
        {
          "internalType": "address",
          "name": "",
          "type": "address"
        }
      ],
      "name": "isValidator",
      "outputs": [
        {
          "internalType": "bool",
          "name": "",
          "type": "bool"
        }
      ],
      "stateMutability": "view",
      "type": "function"
    },
    {
      "inputs": [
        {
          "internalType": "address",
          "name": "_miningAddress",
          "type": "address"
        }
      ],
      "name": "isValidatorBanned",
      "outputs": [
        {
          "internalType": "bool",
          "name": "",
          "type": "bool"
        }
      ],
      "stateMutability": "view",
      "type": "function"
    },
    {
      "inputs": [
        {
          "internalType": "address",
          "name": "_miningAddress",
          "type": "address"
        }
      ],
      "name": "isValidatorOrPending",
      "outputs": [
        {
          "internalType": "bool",
          "name": "",
          "type": "bool"
        }
      ],
      "stateMutability": "view",
      "type": "function"
    },
    {
      "inputs": [
        {
          "internalType": "address",
          "name": "",
          "type": "address"
        }
      ],
      "name": "isValidatorPrevious",
      "outputs": [
        {
          "internalType": "bool",
          "name": "",
          "type": "bool"
        }
      ],
      "stateMutability": "view",
      "type": "function"
    },
    {
      "inputs": [],
      "name": "keyGenHistoryContract",
      "outputs": [
        {
          "internalType": "contract IKeyGenHistory",
          "name": "",
          "type": "address"
        }
      ],
      "stateMutability": "view",
      "type": "function"
    },
    {
      "inputs": [
        {
          "internalType": "address",
          "name": "_miningAddress",
          "type": "address"
        },
        {
          "internalType": "uint256",
          "name": "_blockNumber",
          "type": "uint256"
        }
      ],
      "name": "maliceReportedForBlock",
      "outputs": [
        {
          "internalType": "address[]",
          "name": "",
          "type": "address[]"
        }
      ],
      "stateMutability": "view",
      "type": "function"
    },
    {
      "inputs": [],
      "name": "maxValidators",
      "outputs": [
        {
          "internalType": "uint256",
          "name": "",
          "type": "uint256"
        }
      ],
      "stateMutability": "view",
      "type": "function"
    },
    {
      "inputs": [
        {
          "internalType": "address",
          "name": "",
          "type": "address"
        }
      ],
      "name": "miningByStakingAddress",
      "outputs": [
        {
          "internalType": "address",
          "name": "",
          "type": "address"
        }
      ],
      "stateMutability": "view",
      "type": "function"
    },
    {
      "inputs": [],
      "name": "newValidatorSet",
      "outputs": [],
      "stateMutability": "nonpayable",
      "type": "function"
    },
    {
      "inputs": [
        {
          "internalType": "address",
          "name": "_stakingAddress",
          "type": "address"
        }
      ],
      "name": "notifyUnavailability",
      "outputs": [],
      "stateMutability": "nonpayable",
      "type": "function"
    },
    {
      "inputs": [
        {
          "internalType": "address",
          "name": "_stakingAddress",
          "type": "address"
        }
      ],
      "name": "publicKeyByStakingAddress",
      "outputs": [
        {
          "internalType": "bytes",
          "name": "",
          "type": "bytes"
        }
      ],
      "stateMutability": "view",
      "type": "function"
    },
    {
      "inputs": [],
      "name": "randomContract",
      "outputs": [
        {
          "internalType": "address",
          "name": "",
          "type": "address"
        }
      ],
      "stateMutability": "view",
      "type": "function"
    },
    {
      "inputs": [
        {
          "internalType": "address[]",
          "name": "_miningAddresses",
          "type": "address[]"
        }
      ],
      "name": "removeMaliciousValidators",
      "outputs": [],
      "stateMutability": "nonpayable",
      "type": "function"
    },
    {
      "inputs": [
        {
          "internalType": "address",
          "name": "_maliciousMiningAddress",
          "type": "address"
        },
        {
          "internalType": "uint256",
          "name": "_blockNumber",
          "type": "uint256"
        },
        {
          "internalType": "bytes",
          "name": "",
          "type": "bytes"
        }
      ],
      "name": "reportMalicious",
      "outputs": [],
      "stateMutability": "nonpayable",
      "type": "function"
    },
    {
      "inputs": [
        {
          "internalType": "address",
          "name": "_reportingMiningAddress",
          "type": "address"
        },
        {
          "internalType": "address",
          "name": "_maliciousMiningAddress",
          "type": "address"
        },
        {
          "internalType": "uint256",
          "name": "_blockNumber",
          "type": "uint256"
        }
      ],
      "name": "reportMaliciousCallable",
      "outputs": [
        {
          "internalType": "bool",
          "name": "callable",
          "type": "bool"
        },
        {
          "internalType": "bool",
          "name": "removeReportingValidator",
          "type": "bool"
        }
      ],
      "stateMutability": "view",
      "type": "function"
    },
    {
      "inputs": [
        {
          "internalType": "address",
          "name": "",
          "type": "address"
        },
        {
          "internalType": "uint256",
          "name": "",
          "type": "uint256"
        }
      ],
      "name": "reportingCounter",
      "outputs": [
        {
          "internalType": "uint256",
          "name": "",
          "type": "uint256"
        }
      ],
      "stateMutability": "view",
      "type": "function"
    },
    {
      "inputs": [
        {
          "internalType": "uint256",
          "name": "",
          "type": "uint256"
        }
      ],
      "name": "reportingCounterTotal",
      "outputs": [
        {
          "internalType": "uint256",
          "name": "",
          "type": "uint256"
        }
      ],
      "stateMutability": "view",
      "type": "function"
    },
    {
      "inputs": [
        {
          "internalType": "uint256",
          "name": "_maxValidators",
          "type": "uint256"
        }
      ],
      "name": "setMaxValidators",
      "outputs": [],
      "stateMutability": "nonpayable",
      "type": "function"
    },
    {
      "inputs": [
        {
          "internalType": "address",
          "name": "_miningAddress",
          "type": "address"
        },
        {
          "internalType": "address",
          "name": "_stakingAddress",
          "type": "address"
        }
      ],
      "name": "setStakingAddress",
      "outputs": [],
      "stateMutability": "nonpayable",
      "type": "function"
    },
    {
      "inputs": [
        {
          "internalType": "bytes16",
          "name": "_ip",
          "type": "bytes16"
        },
        {
          "internalType": "bytes2",
          "name": "_port",
          "type": "bytes2"
        }
      ],
      "name": "setValidatorInternetAddress",
      "outputs": [],
      "stateMutability": "nonpayable",
      "type": "function"
    },
    {
      "inputs": [
        {
          "internalType": "address",
          "name": "",
          "type": "address"
        }
      ],
      "name": "stakingByMiningAddress",
      "outputs": [
        {
          "internalType": "address",
          "name": "",
          "type": "address"
        }
      ],
      "stateMutability": "view",
      "type": "function"
    },
    {
      "inputs": [],
      "name": "stakingContract",
      "outputs": [
        {
          "internalType": "contract IStakingHbbft",
          "name": "",
          "type": "address"
        }
      ],
      "stateMutability": "view",
      "type": "function"
    },
    {
      "inputs": [
        {
          "internalType": "address",
          "name": "",
          "type": "address"
        }
      ],
      "name": "validatorAvailableSince",
      "outputs": [
        {
          "internalType": "uint256",
          "name": "",
          "type": "uint256"
        }
      ],
      "stateMutability": "view",
      "type": "function"
    },
    {
      "inputs": [
        {
          "internalType": "address",
          "name": "",
          "type": "address"
        }
      ],
      "name": "validatorCounter",
      "outputs": [
        {
          "internalType": "uint256",
          "name": "",
          "type": "uint256"
        }
      ],
      "stateMutability": "view",
      "type": "function"
    },
    {
      "inputs": [
        {
          "internalType": "address",
          "name": "",
          "type": "address"
        }
      ],
      "name": "validatorLastSuccess",
      "outputs": [
        {
          "internalType": "uint256",
          "name": "",
          "type": "uint256"
        }
      ],
      "stateMutability": "view",
      "type": "function"
    }
  ],
  "bytecode": "0x608060405234801561001057600080fd5b50614c3c806100206000396000f3fe608060405234801561001057600080fd5b506004361061031f5760003560e01c80639bb2ea5a116101a7578063b7ab4db5116100ee578063ee99205c11610097578063f51726f011610071578063f51726f014610747578063facd743b1461075a578063fb64aac11461077d57600080fd5b8063ee99205c14610719578063eebc7a391461072c578063efd049471461073457600080fd5b8063ccf69e9b116100c8578063ccf69e9b146106c6578063d2dd2f16146106d9578063db2c870c146106f957600080fd5b8063b7ab4db51461068b578063c476dd4014610693578063c9e9694d146106a657600080fd5b8063a881c5fd11610150578063b41832e41161012a578063b41832e414610645578063b47aef1f14610665578063b56b366b1461067857600080fd5b8063a881c5fd14610617578063a92252ae1461062a578063ade1900a1461063d57600080fd5b8063a49904e511610181578063a49904e5146105c3578063a670eb56146105ca578063a68b5b76146105f457600080fd5b80639bb2ea5a1461058a578063a0d16cad1461059d578063a42bdee9146105b057600080fd5b806356b54bae1161026b578063752862111161021457806387eed76a116101ee57806387eed76a146105535780638e68dce4146105665780639881933d1461057757600080fd5b8063752862111461051657806385602ad51461051e578063857cdbb81461053357600080fd5b806360e5c5201161024557806360e5c520146104dd5780636c9230db146104fd578063717662ee1461050357600080fd5b806356b54bae146104a25780635836d08a146104b55780635ccee1de146104d557600080fd5b80631d0cd4c6116102cd578063392e53cd116102a7578063392e53cd1461045d57806343bcce9f1461047c578063515bbf2c1461048f57600080fd5b80631d0cd4c6146103e95780631ee4d0bc146104095780633755243b1461043257600080fd5b80630a4c1072116102fe5780630a4c10721461039657806314e28d90146103a95780631a7fa237146103c957600080fd5b8062535175146103245780630636bdac1461036a57806308ac52561461037f575b600080fd5b61034d61033236600461440b565b600b602052600090815260409020546001600160a01b031681565b6040516001600160a01b0390911681526020015b60405180910390f35b61037d61037836600461447b565b610790565b005b61038860155481565b604051908152602001610361565b61037d6103a43660046144bd565b61085a565b6103bc6103b736600461440b565b6108be565b60405161036191906144f6565b6103886103d736600461440b565b60066020526000908152604090205481565b6103886103f736600461440b565b60046020526000908152604090205481565b61034d61041736600461440b565b600f602052600090815260409020546001600160a01b031681565b61038861044036600461451e565b600d60209081526000928352604080842090915290825290205481565b6008546001600160a01b031615155b6040519015158152602001610361565b61037d61048a36600461454a565b610aa7565b61037d61049d36600461456c565b610de7565b60085461034d906001600160a01b031681565b6103886104c336600461440b565b60056020526000908152604090205481565b61037d611395565b6103886104eb36600461440b565b60146020526000908152604090205481565b42610388565b61037d61051136600461440b565b611409565b61037d61148f565b6105266116b7565b6040516103619190614626565b61054661054136600461440b565b611719565b6040516103619190614697565b61046c61056136600461440b565b6117a9565b6010546001600160a01b031661034d565b61054661058536600461440b565b6119ec565b61037d6105983660046146ca565b611a1f565b61046c6105ab36600461440b565b611acc565b61037d6105be3660046146e3565b611afe565b600161046c565b6105dd6105d836600461474c565b611be3565b604080519215158352901515602083015201610361565b61046c61060236600461440b565b600a6020526000908152604090205460ff1681565b61046c61062536600461440b565b611e0d565b61046c61063836600461440b565b611e8d565b61037d611ee1565b61038861065336600461440b565b60126020526000908152604090205481565b60115461034d906001600160a01b031681565b61052661068636600461451e565b612793565b610526612812565b61037d6106a136600461478d565b612872565b6103886106b436600461440b565b60076020526000908152604090205481565b600c5461034d906001600160a01b031681565b6103886106e73660046146ca565b600e6020526000908152604090205481565b61038861070736600461440b565b60136020526000908152604090205481565b60105461034d906001600160a01b031681565b610526612ac1565b6103886107423660046146ca565b612b21565b61046c61075536600461440b565b612bd2565b61046c61076836600461440b565b60096020526000908152604090205460ff1681565b61046c61078b36600461440b565b612c29565b73fffffffffffffffffffffffffffffffffffffffe33146107f85760405162461bcd60e51b815260206004820152600b60248201527f4f6e6c792053797374656d00000000000000000000000000000000000000000060448201526064015b60405180910390fd5b6108568282808060200260200160405190810160405280939291908181526020018383602002808284376000920191909152507f696e6163746976650000000000000000000000000000000000000000000000009250612c8d915050565b5050565b6010546001600160a01b031633146108b45760405162461bcd60e51b815260206004820152601560248201527f4f6e6c79205374616b696e6720436f6e7472616374000000000000000000000060448201526064016107ef565b6108568282612cf5565b60006108c982612c29565b6108d557506000919050565b60115460408051637be02c2b60e01b8152815160009384936001600160a01b0390911692637be02c2b92600480830193928290030181865afa15801561091f573d6000803e3d6000fd5b505050506040513d601f19601f82011682018060405250810190610943919061483b565b60015491935091506fffffffffffffffffffffffffffffffff831610156109f8576011546040516399de1a4360e01b81526001600160a01b03868116600483015260009216906399de1a4390602401600060405180830381865afa1580156109af573d6000803e3d6000fd5b505050506040513d6000823e601f3d908101601f191682016040526109d791908101906148b5565b905080516000036109ed57506001949350505050565b506002949350505050565b6001546fffffffffffffffffffffffffffffffff82161015610a9d57601154604051631baeec3f60e31b81526001600160a01b0386811660048301529091169063dd7761f890602401602060405180830381865afa158015610a5e573d6000803e3d6000fd5b505050506040513d601f19601f82011682018060405250810190610a829190614949565b600003610a93575060039392505050565b5060049392505050565b5060059392505050565b610ab033612bd2565b610b225760405162461bcd60e51b815260206004820152602560248201527f416e6e6f756e63696e6720617661696c6162696c697479206e6f7420706f737360448201527f69626c652e00000000000000000000000000000000000000000000000000000060648201526084016107ef565b438210610b975760405162461bcd60e51b815260206004820152602a60248201527f5f626c6f636b4e756d62657220617267756d656e74206d75737420626520696e60448201527f2074686520706173742e0000000000000000000000000000000000000000000060648201526084016107ef565b43610ba3836010614978565b11610c3c5760405162461bcd60e51b815260206004820152604560248201527f5f626c6f636b4e756d62657220617267756d656e74206d75737420626520696e60448201527f2074686520706173742077697468696e20746865206c6173742032353520626c60648201527f6f636b732e000000000000000000000000000000000000000000000000000000608482015260a4016107ef565b80824014610cb25760405162461bcd60e51b815260206004820152603360248201527f70726f766964656420626c6f636b68617368206d757374206d6174636820626c60448201527f6f636b636861696e7320626c6f636b686173680000000000000000000000000060648201526084016107ef565b6000306001600160a01b0316636c9230db6040518163ffffffff1660e01b8152600401602060405180830381865afa158015610cf2573d6000803e3d6000fd5b505050506040513d601f19601f82011682018060405250810190610d169190614949565b33600081815260146020908152604091829020849055815192835282018390529192507f705d65dbee06de60e6465d68371ce849d5a1ead53e53d01a413b2b01393aa022910160405180910390a1610d6d33611e8d565b610de257601054336000908152600f602052604090819020549051631ec56e5360e21b81526001600160a01b039182166004820152911690637b15b94c906024015b600060405180830381600087803b158015610dc957600080fd5b505af1158015610ddd573d6000803e3d6000fd5b505050505b505050565b7fb53127684a568b3173ae13b9f8a6016e243e63b6e8ee1178d6a717850b5d6103546001600160a01b0316336001600160a01b03161480610e5a57507fb53127684a568b3173ae13b9f8a6016e243e63b6e8ee1178d6a717850b5d6103546001600160a01b0316326001600160a01b0316145b80610e8d57507fb53127684a568b3173ae13b9f8a6016e243e63b6e8ee1178d6a717850b5d6103546001600160a01b0316155b80610e96575043155b610f085760405162461bcd60e51b815260206004820152603e60248201527f56616c696461746f725365743a20496e697469616c697a6174696f6e206f6e6c60448201527f79206f6e2067656e6573697320626c6f636b206f722062792061646d696e000060648201526084016107ef565b6008546001600160a01b031615610f875760405162461bcd60e51b815260206004820152602c60248201527f56616c696461746f7253657420636f6e747261637420697320616c726561647960448201527f20696e697469616c697a6564000000000000000000000000000000000000000060648201526084016107ef565b6001600160a01b0388166110035760405162461bcd60e51b815260206004820152602960248201527f426c6f636b52657761726420636f6e747261637420616464726573732063616e60448201527f277420626520307830000000000000000000000000000000000000000000000060648201526084016107ef565b6001600160a01b0387166110655760405162461bcd60e51b8152602060048201526024808201527f52616e646f6d20636f6e747261637420616464726573732063616e27742062656044820152630203078360e41b60648201526084016107ef565b6001600160a01b0386166110e15760405162461bcd60e51b815260206004820152602560248201527f5374616b696e6720636f6e747261637420616464726573732063616e2774206260448201527f652030783000000000000000000000000000000000000000000000000000000060648201526084016107ef565b6001600160a01b03851661115d5760405162461bcd60e51b815260206004820152602b60248201527f4b657947656e486973746f727920636f6e74726163742061646472657373206360448201527f616e27742062652030783000000000000000000000000000000000000000000060648201526084016107ef565b826111d05760405162461bcd60e51b815260206004820152602560248201527f4d7573742070726f7669646520696e697469616c206d696e696e67206164647260448201527f657373657300000000000000000000000000000000000000000000000000000060648201526084016107ef565b8281146112455760405162461bcd60e51b815260206004820152603860248201527f4d7573742070726f76696465207468652073616d6520616d6f756e74206f662060448201527f6d696e696e672f7374616b696e6720616464726573736573000000000000000060648201526084016107ef565b600880546001600160a01b03808b166001600160a01b031992831617909255600c80548a841690831617905560108054898416908316179055601180549288169290911691909117905560005b838110156113855760008585838181106112ae576112ae61498b565b90506020020160208101906112c3919061440b565b60008054600180820183557f290decd9548b62a8d60345a988386fc84ba6bc95484008f6362f93160ef3e56390910180546001600160a01b0319166001600160a01b0385169081179091558252600960209081526040808420805460ff191690931790925560129052812080549293509061133d836149a1565b9190505550611372818585858181106113585761135861498b565b905060200201602081019061136d919061440b565b612cf5565b508061137d816149a1565b915050611292565b5050601960155550505050505050565b6008546001600160a01b031633146113ef5760405162461bcd60e51b815260206004820152601960248201527f4f6e6c7920426c6f636b52657761726420636f6e74726163740000000000000060448201526064016107ef565b604080516000815260208101909152611407906130aa565b565b6010546001600160a01b031633146114635760405162461bcd60e51b815260206004820152601560248201527f4f6e6c79205374616b696e6720436f6e7472616374000000000000000000000060448201526064016107ef565b6001600160a01b039081166000908152600b602090815260408083205490931682526014905290812055565b6008546001600160a01b031633146114e95760405162461bcd60e51b815260206004820152601960248201527f4f6e6c7920426c6f636b52657761726420636f6e74726163740000000000000060448201526064016107ef565b60015415611501576114f961385d565b611501613948565b601060009054906101000a90046001600160a01b03166001600160a01b031663ee435f556040518163ffffffff1660e01b8152600401600060405180830381600087803b15801561155157600080fd5b505af1158015611565573d6000803e3d6000fd5b50505050601160009054906101000a90046001600160a01b03166001600160a01b0316632c6f194d6040518163ffffffff1660e01b8152600401600060405180830381600087803b1580156115b957600080fd5b505af11580156115cd573d6000803e3d6000fd5b50505050600160006115df9190614373565b601060009054906101000a90046001600160a01b03166001600160a01b0316638247a239306001600160a01b0316636c9230db6040518163ffffffff1660e01b8152600401602060405180830381865afa158015611641573d6000803e3d6000fd5b505050506040513d601f19601f820116820180604052508101906116659190614949565b6040518263ffffffff1660e01b815260040161168391815260200190565b600060405180830381600087803b15801561169d57600080fd5b505af11580156116b1573d6000803e3d6000fd5b50505050565b6060600280548060200260200160405190810160405280929190818152602001828054801561170f57602002820191906000526020600020905b81546001600160a01b031681526001909101906020018083116116f1575b5050505050905090565b6010546001600160a01b038281166000908152600f602052604090819020549051634e9b426d60e01b815290821660048201526060929190911690634e9b426d906024015b600060405180830381865afa15801561177b573d6000803e3d6000fd5b505050506040513d6000823e601f3d908101601f191682016040526117a391908101906148b5565b92915050565b6001600160a01b038116600090815260096020526040812054819060ff1680156117d957506117d783611e8d565b155b9050601060009054906101000a90046001600160a01b03166001600160a01b031663794c0c686040518163ffffffff1660e01b8152600401602060405180830381865afa15801561182e573d6000803e3d6000fd5b505050506040513d601f19601f820116820180604052508101906118529190614949565b60000361185f5792915050565b60105460408051634f9a8d8f60e01b815290516005926001600160a01b031691634f9a8d8f9160048083019260209291908290030181865afa1580156118a9573d6000803e3d6000fd5b505050506040513d601f19601f820116820180604052508101906118cd9190614949565b6118d791906149d0565b601060009054906101000a90046001600160a01b03166001600160a01b0316639b03d7446040518163ffffffff1660e01b8152600401602060405180830381865afa15801561192a573d6000803e3d6000fd5b505050506040513d601f19601f8201168201806040525081019061194e9190614949565b306001600160a01b0316636c9230db6040518163ffffffff1660e01b8152600401602060405180830381865afa15801561198c573d6000803e3d6000fd5b505050506040513d601f19601f820116820180604052508101906119b09190614949565b6119ba91906149e4565b116117a3576001600160a01b0383166000908152600a602052604090205460ff1681806119e45750805b949350505050565b601054604051634e9b426d60e01b81526001600160a01b0383811660048301526060921690634e9b426d9060240161175e565b7fb53127684a568b3173ae13b9f8a6016e243e63b6e8ee1178d6a717850b5d6103546001600160a01b0316336001600160a01b031614611ac75760405162461bcd60e51b815260206004820152602b60248201527f6f6e6c792061646d696e20697320616c6c6f77656420746f2063616c6c20746860448201527f69732066756e6374696f6e00000000000000000000000000000000000000000060648201526084016107ef565b601555565b6001600160a01b03811660009081526009602052604081205460ff1615611af557506001919050565b6117a382612c29565b336000908152600f60205260409020546001600160a01b031680611b705760405162461bcd60e51b815260206004820152602360248201527f4e6f20506f6f6c20646566696e656420666f7220746869732076616c6964617460448201526237b91760e91b60648201526084016107ef565b601054604051637b0a0f9b60e01b81526001600160a01b0383811660048301526fffffffffffffffffffffffffffffffff19861660248301527fffff0000000000000000000000000000000000000000000000000000000000008516604483015290911690637b0a0f9b90606401610daf565b600080611bef856117a9565b611bfe57506000905080611e05565b611c07846117a9565b611c1657506000905080611e05565b6000546001811115611d285760105460408051630f29818d60e31b815290516000926001600160a01b03169163794c0c689160048083019260209291908290030181865afa158015611c6c573d6000803e3d6000fd5b505050506040513d601f19601f82011682018060405250810190611c909190614949565b6001600160a01b0388166000908152600d60209081526040808320848452825280832054600e9092528220549293509190828210611cea57611cd36001866149e4565b611cdd84846149e4565b611ce791906149d0565b90505b611cf58560326149f7565b83118015611d0c5750611d0981600a6149f7565b83115b15611d235760006001965096505050505050611e05565b505050505b4380851115611d3f57600080935093505050611e05565b60648082118015611d585750611d5581836149e4565b86105b15611d6c5760008094509450505050611e05565b6001600160a01b03871660009081526003602090815260408083208984529091528120805490915b81811015611df6578a6001600160a01b0316838281548110611db857611db861498b565b6000918252602090912001546001600160a01b031603611de45760008097509750505050505050611e05565b80611dee816149a1565b915050611d94565b50600160009650965050505050505b935093915050565b6001600160a01b0381166000908152600660209081526040808320548151636c9230db60e01b8152915190923092636c9230db92600480830193928290030181865afa158015611e61573d6000803e3d6000fd5b505050506040513d601f19601f82011682018060405250810190611e859190614949565b111592915050565b6001600160a01b0381166000908152600560209081526040808320548151636c9230db60e01b8152915190923092636c9230db92600480830193928290030181865afa158015611e61573d6000803e3d6000fd5b6008546001600160a01b03163314611f3b5760405162461bcd60e51b815260206004820152601960248201527f4f6e6c7920426c6f636b52657761726420636f6e74726163740000000000000060448201526064016107ef565b601060009054906101000a90046001600160a01b03166001600160a01b03166322e3d9866040518163ffffffff1660e01b8152600401602060405180830381865afa158015611f8e573d6000803e3d6000fd5b505050506040513d601f19601f82011682018060405250810190611fb29190614949565b306001600160a01b0316636c9230db6040518163ffffffff1660e01b8152600401602060405180830381865afa158015611ff0573d6000803e3d6000fd5b505050506040513d601f19601f820116820180604052508101906120149190614949565b10156120ae5760405162461bcd60e51b815260206004820152604c60248201527f6661696c6564206b65792067656e65726174696f6e2063616e206f6e6c79206260448201527f652070726f63657373656420616674657220746865207374616b696e6720657060648201527f6f6368206973206f7665722e0000000000000000000000000000000000000000608482015260a4016107ef565b601060009054906101000a90046001600160a01b03166001600160a01b031663a5d54f656040518163ffffffff1660e01b8152600401600060405180830381865afa158015612101573d6000803e3d6000fd5b505050506040513d6000823e601f3d908101601f191682016040526121299190810190614a32565b511561140757600154156114075760018054600091612147916149e4565b67ffffffffffffffff81111561215f5761215f61486e565b604051908082528060200260200182016040528015612188578160200160208202803683370190505b50905060008080601160009054906101000a90046001600160a01b03166001600160a01b0316637be02c2b6040518163ffffffff1660e01b81526004016040805180830381865afa1580156121e1573d6000803e3d6000fd5b505050506040513d601f19601f82011682018060405250810190612205919061483b565b9150915060005b6001548110156125225760006001828154811061222b5761222b61498b565b60009182526020822001546001546001600160a01b0390911692506fffffffffffffffffffffffffffffffff861610156122db576011546040516399de1a4360e01b81526001600160a01b03848116600483015260009216906399de1a4390602401600060405180830381865afa1580156122aa573d6000803e3d6000fd5b505050506040513d6000823e601f3d908101601f191682016040526122d291908101906148b5565b5111905061236a565b6001546fffffffffffffffffffffffffffffffff8516101561236a57601154604051631baeec3f60e31b81526001600160a01b038481166004830152600092169063dd7761f890602401602060405180830381865afa158015612342573d6000803e3d6000fd5b505050506040513d601f19601f820116820180604052508101906123669190614949565b1190505b80156123dd57600183815481106123835761238361498b565b9060005260206000200160009054906101000a90046001600160a01b03168787815181106123b3576123b361498b565b6001600160a01b0390921660209283029190910190910152856123d5816149a1565b96505061250d565b6010546001600160a01b038381166000908152600f602052604090819020549051631dbe84a360e11b81529082166004820152911690633b7d094690602401600060405180830381600087803b15801561243657600080fd5b505af115801561244a573d6000803e3d6000fd5b5050506001600160a01b0383166000908152601460209081526040808320929092558151636c9230db60e01b815291517f7ec36d1734626f8b3686f8791130187e1633c843b1995003e788cd2b33d56903935085923092636c9230db926004808401938290030181865afa1580156124c6573d6000803e3d6000fd5b505050506040513d601f19601f820116820180604052508101906124ea9190614949565b604080516001600160a01b03909316835260208301919091520160405180910390a15b5050808061251a906149a1565b91505061220c565b50601154604051632f8ba4bf60e11b81526001600160a01b0390911690635f17497e9061255490600190600401614ac6565b600060405180830381600087803b15801561256e57600080fd5b505af1158015612582573d6000803e3d6000fd5b50505050601160009054906101000a90046001600160a01b03166001600160a01b031663adddc0cf6040518163ffffffff1660e01b8152600401600060405180830381600087803b1580156125d657600080fd5b505af11580156125ea573d6000803e3d6000fd5b5050505060008367ffffffffffffffff8111156126095761260961486e565b604051908082528060200260200182016040528015612632578160200160208202803683370190505b50905060005b84811015612696578581815181106126525761265261498b565b602002602001015182828151811061266c5761266c61498b565b6001600160a01b03909216602092830291909101909101528061268e816149a1565b915050612638565b50601060009054906101000a90046001600160a01b03166001600160a01b031663adddc0cf6040518163ffffffff1660e01b8152600401600060405180830381600087803b1580156126e757600080fd5b505af11580156126fb573d6000803e3d6000fd5b505050506000601060009054906101000a90046001600160a01b03166001600160a01b031663a5d54f656040518163ffffffff1660e01b8152600401600060405180830381865afa158015612754573d6000803e3d6000fd5b505050506040513d6000823e601f3d908101601f1916820160405261277c9190810190614a32565b51111561278c5761278c816130aa565b5050505050565b6001600160a01b038216600090815260036020908152604080832084845282529182902080548351818402810184019094528084526060939283018282801561280557602002820191906000526020600020905b81546001600160a01b031681526001909101906020018083116127e7575b5050505050905092915050565b6060600080548060200260200160405190810160405280929190818152602001828054801561170f576020028201919060005260206000209081546001600160a01b031681526001909101906020018083116116f1575050505050905090565b6008546001600160a01b03166128ca5760405162461bcd60e51b815260206004820152601d60248201527f56616c696461746f725365743a206e6f7420696e697469616c697a656400000060448201526064016107ef565b336128d481613b02565b6000806128e2838888611be3565b915091508161296257801561295a576040805160018082528183019092526000916020808301908036833701905050905083816000815181106129275761292761498b565b60200260200101906001600160a01b031690816001600160a01b03168152505061295881637370616d60e01b612c8d565b505b5050506116b1565b6001600160a01b0387811660008181526003602090815260408083208b8452825280832080546001810182558185529383902090930180546001600160a01b0319169589169586179055805194855290840192909252908201889052907f729a19138e072a5a8d3a56d74ae0b5c84530f09aacd6e12b24c5b2fdc3f8a3d09060600160405180910390a160008054906003821115612a1a57612a058260026149f7565b8354612a129060036149f7565b119050612a2d565b82548290612a299060026149f7565b1190505b8015612ab557604080516001808252818301909252600091602080830190803683370190505090508a81600081518110612a6957612a6961498b565b60200260200101906001600160a01b031690816001600160a01b031681525050612ab3817f6d616c6963696f75730000000000000000000000000000000000000000000000612c8d565b505b50505050505050505050565b6060600180548060200260200160405190810160405280929190818152602001828054801561170f576020028201919060005260206000209081546001600160a01b031681526001909101906020018083116116f1575050505050905090565b6000808211612b985760405162461bcd60e51b815260206004820152602560248201527f5f706f737369626c6556616c696461746f72436f756e74206d757374206e6f7460448201527f206265203000000000000000000000000000000000000000000000000000000060648201526084016107ef565b6004821015612ba5575090565b6003612bb26001846149e4565b612bbc91906149d0565b612bc79060036149f7565b6117a3906001614978565b6001600160a01b038181166000908152600f6020526040812054909116612bfb57506000919050565b6001600160a01b03821660009081526014602052604090205415612c2157506000919050565b506001919050565b6000805b600154811015612c845760018181548110612c4a57612c4a61498b565b6000918252602090912001546001600160a01b0390811690841603612c725750600192915050565b80612c7c816149a1565b915050612c2d565b50600092915050565b60005b8251811015610de257612cbc838281518110612cae57612cae61498b565b602002602001015183613bda565b15612ce357612ce3838281518110612cd657612cd661498b565b6020026020010151613e06565b80612ced816149a1565b915050612c90565b6001600160a01b038216612d4b5760405162461bcd60e51b815260206004820152601960248201527f4d696e696e6720616464726573732063616e277420626520300000000000000060448201526064016107ef565b6001600160a01b038116612da15760405162461bcd60e51b815260206004820152601a60248201527f5374616b696e6720616464726573732063616e2774206265203000000000000060448201526064016107ef565b806001600160a01b0316826001600160a01b031603612e285760405162461bcd60e51b815260206004820152603460248201527f4d696e696e6720616464726573732063616e6e6f74206265207468652073616d60448201527f6520617320746865207374616b696e67206f6e6500000000000000000000000060648201526084016107ef565b6001600160a01b038181166000908152600b60205260409020541615612eb65760405162461bcd60e51b815260206004820152602d60248201527f5374616b696e67206164647265737320616c726561647920757365642061732060448201527f61207374616b696e67206f6e650000000000000000000000000000000000000060648201526084016107ef565b6001600160a01b038281166000908152600b60205260409020541615612f445760405162461bcd60e51b815260206004820152602c60248201527f4d696e696e67206164647265737320616c72656164792075736564206173206160448201527f207374616b696e67206f6e65000000000000000000000000000000000000000060648201526084016107ef565b6001600160a01b038181166000908152600f60205260409020541615612fd25760405162461bcd60e51b815260206004820152602c60248201527f5374616b696e67206164647265737320616c726561647920757365642061732060448201527f61206d696e696e67206f6e65000000000000000000000000000000000000000060648201526084016107ef565b6001600160a01b038281166000908152600f602052604090205416156130605760405162461bcd60e51b815260206004820152602b60248201527f4d696e696e67206164647265737320616c72656164792075736564206173206160448201527f206d696e696e67206f6e6500000000000000000000000000000000000000000060648201526084016107ef565b6001600160a01b039081166000818152600b602090815260408083208054959096166001600160a01b03199586168117909655948252600f90529290922080549091169091179055565b6010546040805163a5d54f6560e01b815290516000926001600160a01b03169163a5d54f6591600480830192869291908290030181865afa1580156130f3573d6000803e3d6000fd5b505050506040513d6000823e601f3d908101601f1916820160405261311b9190810190614a32565b90506000601554825110158061313057508151155b6131435761313e8251612b21565b613147565b6015545b905080825111156135a05781516010546040805163957950a760e01b8152905160009283926001600160a01b039091169163957950a79160048082019286929091908290030181865afa1580156131a2573d6000803e3d6000fd5b505050506040513d6000823e601f3d908101601f191682016040526131ca9190810190614b0a565b9150915060008467ffffffffffffffff8111156131e9576131e961486e565b604051908082528060200260200182016040528015613212578160200160208202803683370190505b5090506000805b88518110156133ab5760005b868110156133985789828151811061323f5761323f61498b565b60200260200101516001600160a01b03168982815181106132625761326261498b565b60200260200101516001600160a01b0316036133865789828151811061328a5761328a61498b565b60200260200101518484815181106132a4576132a461498b565b6001600160a01b0390921660209283029190910190910152826132c6816149a1565b9350508581815181106132db576132db61498b565b6020026020010151856132ee91906149e4565b9450866132fa81614ba3565b97505088878151811061330f5761330f61498b565b60200260200101518982815181106133295761332961498b565b60200260200101906001600160a01b031690816001600160a01b03168152505085878151811061335b5761335b61498b565b60200260200101518682815181106133755761337561498b565b602002602001018181525050613398565b80613390816149a1565b915050613225565b50806133a3816149a1565b915050613219565b50600c5460408051634191031360e11b815290516000926001600160a01b03169163832206269160048083019260209291908290030181865afa1580156133f6573d6000803e3d6000fd5b505050506040513d601f19601f8201168201806040525081019061341a9190614949565b90506000855111801561342d5750600084115b156135955760005b835181101561358b57604080514284186020820152016040516020818303038152906040528051906020012060001c91506000613473878785613eed565b90508981815181106134875761348761498b565b60200260200101518583815181106134a1576134a161498b565b60200260200101906001600160a01b031690816001600160a01b0316815250508681815181106134d3576134d361498b565b6020026020010151866134e691906149e4565b9550876134f281614ba3565b9850508988815181106135075761350761498b565b60200260200101518a82815181106135215761352161498b565b60200260200101906001600160a01b031690816001600160a01b0316815250508688815181106135535761355361498b565b602002602001015187828151811061356d5761356d61498b565b60209081029190910101525080613583816149a1565b915050613435565b5061359583613f56565b5050505050506135a9565b6135a982613f56565b601154604051632f8ba4bf60e11b81526001600160a01b0390911690635f17497e906135da90600090600401614ac6565b600060405180830381600087803b1580156135f457600080fd5b505af1158015613608573d6000803e3d6000fd5b50505050815160001461367e57601060009054906101000a90046001600160a01b03166001600160a01b0316631555371c6040518163ffffffff1660e01b8152600401600060405180830381600087803b15801561366557600080fd5b505af1158015613679573d6000803e3d6000fd5b505050505b601060009054906101000a90046001600160a01b03166001600160a01b03166322e3d9866040518163ffffffff1660e01b8152600401602060405180830381865afa1580156136d1573d6000803e3d6000fd5b505050506040513d601f19601f820116820180604052508101906136f59190614949565b306001600160a01b0316636c9230db6040518163ffffffff1660e01b8152600401602060405180830381865afa158015613733573d6000803e3d6000fd5b505050506040513d601f19601f820116820180604052508101906137579190614949565b1115610de25760105460408051631171ecc360e11b815290516001600160a01b0390921691639e72c6359183916322e3d986916004808201926020929091908290030181865afa1580156137af573d6000803e3d6000fd5b505050506040513d601f19601f820116820180604052508101906137d39190614949565b306001600160a01b0316636c9230db6040518163ffffffff1660e01b8152600401602060405180830381865afa158015613811573d6000803e3d6000fd5b505050506040513d601f19601f820116820180604052508101906138359190614949565b61383f91906149e4565b6040518263ffffffff1660e01b8152600401610daf91815260200190565b60025460005b818110156138ca576000600a6000600284815481106138845761388461498b565b6000918252602080832091909101546001600160a01b031683528201929092526040019020805460ff1916911515919091179055806138c2816149a1565b915050613863565b505060008054905b81811015613938576001600a60008084815481106138f2576138f261498b565b6000918252602080832091909101546001600160a01b031683528201929092526040019020805460ff191691151591909117905580613930816149a1565b9150506138d2565b60008054610de291600291614391565b60606000808054806020026020016040519081016040528092919081815260200182805480156139a157602002820191906000526020600020905b81546001600160a01b03168152600190910190602001808311613983575b50505050509150600090505b8151811015613a12576000600960008484815181106139ce576139ce61498b565b6020908102919091018101516001600160a01b03168252810191909152604001600020805460ff191691151591909117905580613a0a816149a1565b9150506139ad565b60018054613a2291600091614391565b506000805480602002602001604051908101604052809291908181526020018280548015613a7957602002820191906000526020600020905b81546001600160a01b03168152600190910190602001808311613a5b575b50505050509150600090505b8151811015610856576000828281518110613aa257613aa261498b565b6020908102919091018101516001600160a01b0381166000908152600983526040808220805460ff19166001179055601290935291822080549193509091613ae9836149a1565b9190505550508080613afa906149a1565b915050613a85565b613b0b816117a9565b613b125750565b60105460408051630f29818d60e31b815290516000926001600160a01b03169163794c0c689160048083019260209291908290030181865afa158015613b5c573d6000803e3d6000fd5b505050506040513d601f19601f82011682018060405250810190613b809190614949565b6001600160a01b0383166000908152600d602090815260408083208484529091528120805492935090613bb2836149a1565b90915550506000818152600e60205260408120805491613bd1836149a1565b91905055505050565b600080613be684611e8d565b90506000613bf26141e8565b6001600160a01b0386166000908152600460205260408120805492935090613c19836149a1565b90915550506001600160a01b0385166000908152600560209081526040808320849055600790915290208490558115613c57576000925050506117a3565b6001600160a01b038581166000908152600660209081526040808320859055600f90915290819020546010549151631dbe84a360e11b815290831660048201819052929190911690633b7d094690602401600060405180830381600087803b158015613cc257600080fd5b505af1158015613cd6573d6000803e3d6000fd5b50506000549150506001819003613cf45760009450505050506117a3565b60005b81811015613df857876001600160a01b031660008281548110613d1c57613d1c61498b565b6000918252602090912001546001600160a01b031603613de6576000613d436001846149e4565b81548110613d5357613d5361498b565b600091825260208220015481546001600160a01b03909116919083908110613d7d57613d7d61498b565b6000918252602082200180546001600160a01b0319166001600160a01b039390931692909217909155805480613db557613db5614bba565b600082815260209020810160001990810180546001600160a01b031916905501905550600194506117a39350505050565b80613df0816149a1565b915050613cf7565b506000979650505050505050565b60105460408051630f29818d60e31b815290516000926001600160a01b03169163794c0c689160048083019260209291908290030181865afa158015613e50573d6000803e3d6000fd5b505050506040513d601f19601f82011682018060405250810190613e749190614949565b6000818152600e60209081526040808320546001600160a01b0387168452600d835281842085855290925282208054929055919250808210613ed9576000838152600e602052604081208054839290613ece9084906149e4565b909155506116b19050565b50506000908152600e602052604081205550565b600080613efa8484614bd0565b90506000805b828211613f4057868181518110613f1957613f1961498b565b602002602001015182613f2c9190614978565b915080613f38816149a1565b915050613f00565b613f4b6001826149e4565b979650505050505050565b613f6260016000614373565b80516000036141605760005b600054811015614101576000808281548110613f8c57613f8c61498b565b6000918252602080832091909101546001600160a01b03908116808452600f90925260409283902054601054935163a711e6a160e01b8152908216600482018190529294509192169063a711e6a190602401602060405180830381865afa158015613ffb573d6000803e3d6000fd5b505050506040513d601f19601f8201168201806040525081019061401f9190614be4565b801561409c575060105460405162e9ab0360e81b81526001600160a01b038381166004830181905260248301529091169063e9ab030090604401602060405180830381865afa158015614076573d6000803e3d6000fd5b505050506040513d601f19601f8201168201806040525081019061409a9190614949565b155b156140ec576001805480820182556000919091527fb10e2d527612073b26eecdfd717e6a320cf44b4afac2b0732d9fcbe2b7fa0cf60180546001600160a01b0319166001600160a01b0384161790555b505080806140f9906149a1565b915050613f6e565b5060015460000361415d576001600080815481106141215761412161498b565b60009182526020808320909101548354600181018555938352912090910180546001600160a01b0319166001600160a01b039092169190911790555b50565b60005b8151811015610856576001600b60008484815181106141845761418461498b565b6020908102919091018101516001600160a01b039081168352828201939093526040909101600090812054845460018101865594825291902090920180546001600160a01b03191692909116919091179055806141e0816149a1565b915050614163565b600080306001600160a01b0316636c9230db6040518163ffffffff1660e01b8152600401602060405180830381865afa158015614229573d6000803e3d6000fd5b505050506040513d601f19601f8201168201806040525081019061424d9190614949565b9050600081601060009054906101000a90046001600160a01b03166001600160a01b03166322e3d9866040518163ffffffff1660e01b8152600401602060405180830381865afa1580156142a5573d6000803e3d6000fd5b505050506040513d601f19601f820116820180604052508101906142c99190614949565b6142d391906149e4565b905080601060009054906101000a90046001600160a01b03166001600160a01b0316634f9a8d8f6040518163ffffffff1660e01b8152600401602060405180830381865afa158015614329573d6000803e3d6000fd5b505050506040513d601f19601f8201168201806040525081019061434d9190614949565b61435890600c6149f7565b6143629084614978565b61436c9190614978565b9250505090565b508054600082559060005260206000209081019061415d91906143e1565b8280548282559060005260206000209081019282156143d15760005260206000209182015b828111156143d15782548255916001019190600101906143b6565b506143dd9291506143e1565b5090565b5b808211156143dd57600081556001016143e2565b6001600160a01b038116811461415d57600080fd5b60006020828403121561441d57600080fd5b8135614428816143f6565b9392505050565b60008083601f84011261444157600080fd5b50813567ffffffffffffffff81111561445957600080fd5b6020830191508360208260051b850101111561447457600080fd5b9250929050565b6000806020838503121561448e57600080fd5b823567ffffffffffffffff8111156144a557600080fd5b6144b18582860161442f565b90969095509350505050565b600080604083850312156144d057600080fd5b82356144db816143f6565b915060208301356144eb816143f6565b809150509250929050565b602081016006831061451857634e487b7160e01b600052602160045260246000fd5b91905290565b6000806040838503121561453157600080fd5b823561453c816143f6565b946020939093013593505050565b6000806040838503121561455d57600080fd5b50508035926020909101359150565b60008060008060008060008060c0898b03121561458857600080fd5b8835614593816143f6565b975060208901356145a3816143f6565b965060408901356145b3816143f6565b955060608901356145c3816143f6565b9450608089013567ffffffffffffffff808211156145e057600080fd5b6145ec8c838d0161442f565b909650945060a08b013591508082111561460557600080fd5b506146128b828c0161442f565b999c989b5096995094979396929594505050565b6020808252825182820181905260009190848201906040850190845b818110156146675783516001600160a01b031683529284019291840191600101614642565b50909695505050505050565b60005b8381101561468e578181015183820152602001614676565b50506000910152565b60208152600082518060208401526146b6816040850160208701614673565b601f01601f19169190910160400192915050565b6000602082840312156146dc57600080fd5b5035919050565b600080604083850312156146f657600080fd5b82356fffffffffffffffffffffffffffffffff198116811461471757600080fd5b915060208301357fffff000000000000000000000000000000000000000000000000000000000000811681146144eb57600080fd5b60008060006060848603121561476157600080fd5b833561476c816143f6565b9250602084013561477c816143f6565b929592945050506040919091013590565b600080600080606085870312156147a357600080fd5b84356147ae816143f6565b935060208501359250604085013567ffffffffffffffff808211156147d257600080fd5b818701915087601f8301126147e657600080fd5b8135818111156147f557600080fd5b88602082850101111561480757600080fd5b95989497505060200194505050565b80516fffffffffffffffffffffffffffffffff8116811461483657600080fd5b919050565b6000806040838503121561484e57600080fd5b61485783614816565b915061486560208401614816565b90509250929050565b634e487b7160e01b600052604160045260246000fd5b604051601f8201601f1916810167ffffffffffffffff811182821017156148ad576148ad61486e565b604052919050565b6000602082840312156148c757600080fd5b815167ffffffffffffffff808211156148df57600080fd5b818401915084601f8301126148f357600080fd5b8151818111156149055761490561486e565b614918601f8201601f1916602001614884565b915080825285602082850101111561492f57600080fd5b614940816020840160208601614673565b50949350505050565b60006020828403121561495b57600080fd5b5051919050565b634e487b7160e01b600052601160045260246000fd5b808201808211156117a3576117a3614962565b634e487b7160e01b600052603260045260246000fd5b6000600182016149b3576149b3614962565b5060010190565b634e487b7160e01b600052601260045260246000fd5b6000826149df576149df6149ba565b500490565b818103818111156117a3576117a3614962565b80820281158282048414176117a3576117a3614962565b600067ffffffffffffffff821115614a2857614a2861486e565b5060051b60200190565b60006020808385031215614a4557600080fd5b825167ffffffffffffffff811115614a5c57600080fd5b8301601f81018513614a6d57600080fd5b8051614a80614a7b82614a0e565b614884565b81815260059190911b82018301908381019087831115614a9f57600080fd5b928401925b82841015613f4b578351614ab7816143f6565b82529284019290840190614aa4565b6020808252825482820181905260008481528281209092916040850190845b818110156146675783546001600160a01b031683526001938401939285019201614ae5565b60008060408385031215614b1d57600080fd5b825167ffffffffffffffff811115614b3457600080fd5b8301601f81018513614b4557600080fd5b80516020614b55614a7b83614a0e565b82815260059290921b83018101918181019088841115614b7457600080fd5b938201935b83851015614b9257845182529382019390820190614b79565b969091015195979596505050505050565b600081614bb257614bb2614962565b506000190190565b634e487b7160e01b600052603160045260246000fd5b600082614bdf57614bdf6149ba565b500690565b600060208284031215614bf657600080fd5b8151801515811461442857600080fdfea26469706673582212206c64a09f50297e016188a5d50a50e18571c6c8da5355f546a41f8859a2224dfa64736f6c63430008110033",
  "linkReferences": {},
  "deployedLinkReferences": {}
}