{
  "_format": "hh-sol-artifact-1",
  "contractName": "ValidatorSetHbbft",
  "sourceName": "contracts/ValidatorSetHbbft.sol",
  "abi": [
    {
      "anonymous": false,
      "inputs": [
        {
          "indexed": false,
          "internalType": "address",
          "name": "reportingValidator",
          "type": "address"
        },
        {
          "indexed": false,
          "internalType": "address",
          "name": "maliciousValidator",
          "type": "address"
        },
        {
          "indexed": false,
          "internalType": "uint256",
          "name": "blockNumber",
          "type": "uint256"
        }
      ],
      "name": "ReportedMalicious",
      "type": "event"
    },
    {
      "anonymous": false,
      "inputs": [
        {
          "indexed": false,
          "internalType": "address",
          "name": "validator",
          "type": "address"
        },
        {
          "indexed": false,
          "internalType": "uint256",
          "name": "timestamp",
          "type": "uint256"
        }
      ],
      "name": "ValidatorAvailable",
      "type": "event"
    },
    {
      "anonymous": false,
      "inputs": [
        {
          "indexed": false,
          "internalType": "address",
          "name": "validator",
          "type": "address"
        },
        {
          "indexed": false,
          "internalType": "uint256",
          "name": "timestamp",
          "type": "uint256"
        }
      ],
      "name": "ValidatorUnavailable",
      "type": "event"
    },
    {
      "inputs": [
        {
          "internalType": "uint256",
          "name": "_blockNumber",
          "type": "uint256"
        },
        {
          "internalType": "bytes32",
          "name": "_blockhash",
          "type": "bytes32"
        }
      ],
      "name": "announceAvailability",
      "outputs": [],
      "stateMutability": "nonpayable",
      "type": "function"
    },
    {
      "inputs": [
        {
          "internalType": "address",
          "name": "_miningAddress",
          "type": "address"
        }
      ],
      "name": "areDelegatorsBanned",
      "outputs": [
        {
          "internalType": "bool",
          "name": "",
          "type": "bool"
        }
      ],
      "stateMutability": "view",
      "type": "function"
    },
    {
      "inputs": [
        {
          "internalType": "address",
          "name": "",
          "type": "address"
        }
      ],
      "name": "banCounter",
      "outputs": [
        {
          "internalType": "uint256",
          "name": "",
          "type": "uint256"
        }
      ],
      "stateMutability": "view",
      "type": "function"
    },
    {
      "inputs": [
        {
          "internalType": "address",
          "name": "",
          "type": "address"
        }
      ],
      "name": "banReason",
      "outputs": [
        {
          "internalType": "bytes32",
          "name": "",
          "type": "bytes32"
        }
      ],
      "stateMutability": "view",
      "type": "function"
    },
    {
      "inputs": [
        {
          "internalType": "address",
          "name": "",
          "type": "address"
        }
      ],
      "name": "bannedDelegatorsUntil",
      "outputs": [
        {
          "internalType": "uint256",
          "name": "",
          "type": "uint256"
        }
      ],
      "stateMutability": "view",
      "type": "function"
    },
    {
      "inputs": [
        {
          "internalType": "address",
          "name": "",
          "type": "address"
        }
      ],
      "name": "bannedUntil",
      "outputs": [
        {
          "internalType": "uint256",
          "name": "",
          "type": "uint256"
        }
      ],
      "stateMutability": "view",
      "type": "function"
    },
    {
      "inputs": [],
      "name": "blockRewardContract",
      "outputs": [
        {
          "internalType": "address",
          "name": "",
          "type": "address"
        }
      ],
      "stateMutability": "view",
      "type": "function"
    },
    {
      "inputs": [
        {
          "internalType": "address",
          "name": "_miningAddress",
          "type": "address"
        }
      ],
      "name": "canCallAnnounceAvailability",
      "outputs": [
        {
          "internalType": "bool",
          "name": "",
          "type": "bool"
        }
      ],
      "stateMutability": "view",
      "type": "function"
    },
    {
      "inputs": [],
      "name": "finalizeChange",
      "outputs": [],
      "stateMutability": "nonpayable",
      "type": "function"
    },
    {
      "inputs": [],
      "name": "getCurrentTimestamp",
      "outputs": [
        {
          "internalType": "uint256",
          "name": "",
          "type": "uint256"
        }
      ],
      "stateMutability": "view",
      "type": "function"
    },
    {
      "inputs": [
        {
          "internalType": "address",
          "name": "_miningAddress",
          "type": "address"
        }
      ],
      "name": "getPendingValidatorKeyGenerationMode",
      "outputs": [
        {
          "internalType": "enum IValidatorSetHbbft.KeyGenMode",
          "name": "",
          "type": "uint8"
        }
      ],
      "stateMutability": "view",
      "type": "function"
    },
    {
      "inputs": [],
      "name": "getPendingValidators",
      "outputs": [
        {
          "internalType": "address[]",
          "name": "",
          "type": "address[]"
        }
      ],
      "stateMutability": "view",
      "type": "function"
    },
    {
      "inputs": [],
      "name": "getPreviousValidators",
      "outputs": [
        {
          "internalType": "address[]",
          "name": "",
          "type": "address[]"
        }
      ],
      "stateMutability": "view",
      "type": "function"
    },
    {
      "inputs": [
        {
          "internalType": "address",
          "name": "_miningAddress",
          "type": "address"
        }
      ],
      "name": "getPublicKey",
      "outputs": [
        {
          "internalType": "bytes",
          "name": "",
          "type": "bytes"
        }
      ],
      "stateMutability": "view",
      "type": "function"
    },
    {
      "inputs": [],
      "name": "getStakingContract",
      "outputs": [
        {
          "internalType": "address",
          "name": "",
          "type": "address"
        }
      ],
      "stateMutability": "view",
      "type": "function"
    },
    {
      "inputs": [
        {
          "internalType": "uint256",
          "name": "_possibleValidatorCount",
          "type": "uint256"
        }
      ],
      "name": "getValidatorCountSweetSpot",
      "outputs": [
        {
          "internalType": "uint256",
          "name": "",
          "type": "uint256"
        }
      ],
      "stateMutability": "view",
      "type": "function"
    },
    {
      "inputs": [],
      "name": "getValidators",
      "outputs": [
        {
          "internalType": "address[]",
          "name": "",
          "type": "address[]"
        }
      ],
      "stateMutability": "view",
      "type": "function"
    },
    {
      "inputs": [],
      "name": "handleFailedKeyGeneration",
      "outputs": [],
      "stateMutability": "nonpayable",
      "type": "function"
    },
    {
      "inputs": [
        {
          "internalType": "address",
          "name": "_blockRewardContract",
          "type": "address"
        },
        {
          "internalType": "address",
          "name": "_randomContract",
          "type": "address"
        },
        {
          "internalType": "address",
          "name": "_stakingContract",
          "type": "address"
        },
        {
          "internalType": "address",
          "name": "_keyGenHistoryContract",
          "type": "address"
        },
        {
          "internalType": "address[]",
          "name": "_initialMiningAddresses",
          "type": "address[]"
        },
        {
          "internalType": "address[]",
          "name": "_initialStakingAddresses",
          "type": "address[]"
        }
      ],
      "name": "initialize",
      "outputs": [],
      "stateMutability": "nonpayable",
      "type": "function"
    },
    {
      "inputs": [],
      "name": "isFullHealth",
      "outputs": [
        {
          "internalType": "bool",
          "name": "",
          "type": "bool"
        }
      ],
      "stateMutability": "view",
      "type": "function"
    },
    {
      "inputs": [],
      "name": "isInitialized",
      "outputs": [
        {
          "internalType": "bool",
          "name": "",
          "type": "bool"
        }
      ],
      "stateMutability": "view",
      "type": "function"
    },
    {
      "inputs": [
        {
          "internalType": "address",
          "name": "_miningAddress",
          "type": "address"
        }
      ],
      "name": "isPendingValidator",
      "outputs": [
        {
          "internalType": "bool",
          "name": "",
          "type": "bool"
        }
      ],
      "stateMutability": "view",
      "type": "function"
    },
    {
      "inputs": [
        {
          "internalType": "address",
          "name": "_miningAddress",
          "type": "address"
        }
      ],
      "name": "isReportValidatorValid",
      "outputs": [
        {
          "internalType": "bool",
          "name": "",
          "type": "bool"
        }
      ],
      "stateMutability": "view",
      "type": "function"
    },
    {
      "inputs": [
        {
          "internalType": "address",
          "name": "",
          "type": "address"
        }
      ],
      "name": "isValidator",
      "outputs": [
        {
          "internalType": "bool",
          "name": "",
          "type": "bool"
        }
      ],
      "stateMutability": "view",
      "type": "function"
    },
    {
      "inputs": [
        {
          "internalType": "address",
          "name": "_miningAddress",
          "type": "address"
        }
      ],
      "name": "isValidatorBanned",
      "outputs": [
        {
          "internalType": "bool",
          "name": "",
          "type": "bool"
        }
      ],
      "stateMutability": "view",
      "type": "function"
    },
    {
      "inputs": [
        {
          "internalType": "address",
          "name": "_miningAddress",
          "type": "address"
        }
      ],
      "name": "isValidatorOrPending",
      "outputs": [
        {
          "internalType": "bool",
          "name": "",
          "type": "bool"
        }
      ],
      "stateMutability": "view",
      "type": "function"
    },
    {
      "inputs": [
        {
          "internalType": "address",
          "name": "",
          "type": "address"
        }
      ],
      "name": "isValidatorPrevious",
      "outputs": [
        {
          "internalType": "bool",
          "name": "",
          "type": "bool"
        }
      ],
      "stateMutability": "view",
      "type": "function"
    },
    {
      "inputs": [],
      "name": "keyGenHistoryContract",
      "outputs": [
        {
          "internalType": "contract IKeyGenHistory",
          "name": "",
          "type": "address"
        }
      ],
      "stateMutability": "view",
      "type": "function"
    },
    {
      "inputs": [
        {
          "internalType": "address",
          "name": "_miningAddress",
          "type": "address"
        },
        {
          "internalType": "uint256",
          "name": "_blockNumber",
          "type": "uint256"
        }
      ],
      "name": "maliceReportedForBlock",
      "outputs": [
        {
          "internalType": "address[]",
          "name": "",
          "type": "address[]"
        }
      ],
      "stateMutability": "view",
      "type": "function"
    },
    {
      "inputs": [],
      "name": "maxValidators",
      "outputs": [
        {
          "internalType": "uint256",
          "name": "",
          "type": "uint256"
        }
      ],
      "stateMutability": "view",
      "type": "function"
    },
    {
      "inputs": [
        {
          "internalType": "address",
          "name": "",
          "type": "address"
        }
      ],
      "name": "miningByStakingAddress",
      "outputs": [
        {
          "internalType": "address",
          "name": "",
          "type": "address"
        }
      ],
      "stateMutability": "view",
      "type": "function"
    },
    {
      "inputs": [],
      "name": "newValidatorSet",
      "outputs": [],
      "stateMutability": "nonpayable",
      "type": "function"
    },
    {
      "inputs": [
        {
          "internalType": "address",
          "name": "_stakingAddress",
          "type": "address"
        }
      ],
      "name": "notifyUnavailability",
      "outputs": [],
      "stateMutability": "nonpayable",
      "type": "function"
    },
    {
      "inputs": [
        {
          "internalType": "address",
          "name": "_stakingAddress",
          "type": "address"
        }
      ],
      "name": "publicKeyByStakingAddress",
      "outputs": [
        {
          "internalType": "bytes",
          "name": "",
          "type": "bytes"
        }
      ],
      "stateMutability": "view",
      "type": "function"
    },
    {
      "inputs": [],
      "name": "randomContract",
      "outputs": [
        {
          "internalType": "address",
          "name": "",
          "type": "address"
        }
      ],
      "stateMutability": "view",
      "type": "function"
    },
    {
      "inputs": [
        {
          "internalType": "address[]",
          "name": "_miningAddresses",
          "type": "address[]"
        }
      ],
      "name": "removeMaliciousValidators",
      "outputs": [],
      "stateMutability": "nonpayable",
      "type": "function"
    },
    {
      "inputs": [
        {
          "internalType": "address",
          "name": "_maliciousMiningAddress",
          "type": "address"
        },
        {
          "internalType": "uint256",
          "name": "_blockNumber",
          "type": "uint256"
        },
        {
          "internalType": "bytes",
          "name": "",
          "type": "bytes"
        }
      ],
      "name": "reportMalicious",
      "outputs": [],
      "stateMutability": "nonpayable",
      "type": "function"
    },
    {
      "inputs": [
        {
          "internalType": "address",
          "name": "_reportingMiningAddress",
          "type": "address"
        },
        {
          "internalType": "address",
          "name": "_maliciousMiningAddress",
          "type": "address"
        },
        {
          "internalType": "uint256",
          "name": "_blockNumber",
          "type": "uint256"
        }
      ],
      "name": "reportMaliciousCallable",
      "outputs": [
        {
          "internalType": "bool",
          "name": "callable",
          "type": "bool"
        },
        {
          "internalType": "bool",
          "name": "removeReportingValidator",
          "type": "bool"
        }
      ],
      "stateMutability": "view",
      "type": "function"
    },
    {
      "inputs": [
        {
          "internalType": "address",
          "name": "",
          "type": "address"
        },
        {
          "internalType": "uint256",
          "name": "",
          "type": "uint256"
        }
      ],
      "name": "reportingCounter",
      "outputs": [
        {
          "internalType": "uint256",
          "name": "",
          "type": "uint256"
        }
      ],
      "stateMutability": "view",
      "type": "function"
    },
    {
      "inputs": [
        {
          "internalType": "uint256",
          "name": "",
          "type": "uint256"
        }
      ],
      "name": "reportingCounterTotal",
      "outputs": [
        {
          "internalType": "uint256",
          "name": "",
          "type": "uint256"
        }
      ],
      "stateMutability": "view",
      "type": "function"
    },
    {
      "inputs": [
        {
          "internalType": "uint256",
          "name": "_maxValidators",
          "type": "uint256"
        }
      ],
      "name": "setMaxValidators",
      "outputs": [],
      "stateMutability": "nonpayable",
      "type": "function"
    },
    {
      "inputs": [
        {
          "internalType": "address",
          "name": "_miningAddress",
          "type": "address"
        },
        {
          "internalType": "address",
          "name": "_stakingAddress",
          "type": "address"
        }
      ],
      "name": "setStakingAddress",
      "outputs": [],
      "stateMutability": "nonpayable",
      "type": "function"
    },
    {
      "inputs": [
        {
          "internalType": "bytes16",
          "name": "_ip",
          "type": "bytes16"
        },
        {
          "internalType": "bytes2",
          "name": "_port",
          "type": "bytes2"
        }
      ],
      "name": "setValidatorInternetAddress",
      "outputs": [],
      "stateMutability": "nonpayable",
      "type": "function"
    },
    {
      "inputs": [
        {
          "internalType": "address",
          "name": "",
          "type": "address"
        }
      ],
      "name": "stakingByMiningAddress",
      "outputs": [
        {
          "internalType": "address",
          "name": "",
          "type": "address"
        }
      ],
      "stateMutability": "view",
      "type": "function"
    },
    {
      "inputs": [],
      "name": "stakingContract",
      "outputs": [
        {
          "internalType": "contract IStakingHbbft",
          "name": "",
          "type": "address"
        }
      ],
      "stateMutability": "view",
      "type": "function"
    },
    {
      "inputs": [
        {
          "internalType": "address",
          "name": "",
          "type": "address"
        }
      ],
      "name": "validatorAvailableSince",
      "outputs": [
        {
          "internalType": "uint256",
          "name": "",
          "type": "uint256"
        }
      ],
      "stateMutability": "view",
      "type": "function"
    },
    {
      "inputs": [
        {
          "internalType": "address",
          "name": "",
          "type": "address"
        }
      ],
      "name": "validatorCounter",
      "outputs": [
        {
          "internalType": "uint256",
          "name": "",
          "type": "uint256"
        }
      ],
      "stateMutability": "view",
      "type": "function"
    },
    {
      "inputs": [
        {
          "internalType": "address",
          "name": "",
          "type": "address"
        }
      ],
      "name": "validatorLastSuccess",
      "outputs": [
        {
          "internalType": "uint256",
          "name": "",
          "type": "uint256"
        }
      ],
      "stateMutability": "view",
      "type": "function"
    }
  ],
  "bytecode": "0x608060405234801561001057600080fd5b50614c41806100206000396000f3fe608060405234801561001057600080fd5b506004361061031f5760003560e01c80639bb2ea5a116101a7578063b7ab4db5116100ee578063ee99205c11610097578063f51726f011610071578063f51726f01461074c578063facd743b1461075f578063fb64aac11461078257600080fd5b8063ee99205c1461071e578063eebc7a3914610731578063efd049471461073957600080fd5b8063ccf69e9b116100c8578063ccf69e9b146106cb578063d2dd2f16146106de578063db2c870c146106fe57600080fd5b8063b7ab4db514610690578063c476dd4014610698578063c9e9694d146106ab57600080fd5b8063a881c5fd11610150578063b41832e41161012a578063b41832e41461064a578063b47aef1f1461066a578063b56b366b1461067d57600080fd5b8063a881c5fd1461061c578063a92252ae1461062f578063ade1900a1461064257600080fd5b8063a49904e511610181578063a49904e5146105c3578063a670eb56146105cf578063a68b5b76146105f957600080fd5b80639bb2ea5a1461058a578063a0d16cad1461059d578063a42bdee9146105b057600080fd5b806356b54bae1161026b578063752862111161021457806387eed76a116101ee57806387eed76a146105535780638e68dce4146105665780639881933d1461057757600080fd5b8063752862111461051657806385602ad51461051e578063857cdbb81461053357600080fd5b806360e5c5201161024557806360e5c520146104dd5780636c9230db146104fd578063717662ee1461050357600080fd5b806356b54bae146104a25780635836d08a146104b55780635ccee1de146104d557600080fd5b80631d0cd4c6116102cd578063392e53cd116102a7578063392e53cd1461045d57806343bcce9f1461047c578063515bbf2c1461048f57600080fd5b80631d0cd4c6146103e95780631ee4d0bc146104095780633755243b1461043257600080fd5b80630a4c1072116102fe5780630a4c10721461039657806314e28d90146103a95780631a7fa237146103c957600080fd5b8062535175146103245780630636bdac1461036a57806308ac52561461037f575b600080fd5b61034d610332366004614410565b600b602052600090815260409020546001600160a01b031681565b6040516001600160a01b0390911681526020015b60405180910390f35b61037d610378366004614480565b610795565b005b61038860155481565b604051908152602001610361565b61037d6103a43660046144c2565b61085f565b6103bc6103b7366004614410565b6108c3565b60405161036191906144fb565b6103886103d7366004614410565b60066020526000908152604090205481565b6103886103f7366004614410565b60046020526000908152604090205481565b61034d610417366004614410565b600f602052600090815260409020546001600160a01b031681565b610388610440366004614523565b600d60209081526000928352604080842090915290825290205481565b6008546001600160a01b031615155b6040519015158152602001610361565b61037d61048a36600461454f565b610aac565b61037d61049d366004614571565b610dec565b60085461034d906001600160a01b031681565b6103886104c3366004614410565b60056020526000908152604090205481565b61037d61139a565b6103886104eb366004614410565b60146020526000908152604090205481565b42610388565b61037d610511366004614410565b61140e565b61037d611494565b6105266116bc565b604051610361919061462b565b610546610541366004614410565b61171e565b604051610361919061469c565b61046c610561366004614410565b6117ae565b6010546001600160a01b031661034d565b610546610585366004614410565b6119f1565b61037d6105983660046146cf565b611a24565b61046c6105ab366004614410565b611ad1565b61037d6105be3660046146e8565b611b03565b6000546015541461046c565b6105e26105dd366004614751565b611be8565b604080519215158352901515602083015201610361565b61046c610607366004614410565b600a6020526000908152604090205460ff1681565b61046c61062a366004614410565b611e12565b61046c61063d366004614410565b611e92565b61037d611ee6565b610388610658366004614410565b60126020526000908152604090205481565b60115461034d906001600160a01b031681565b61052661068b366004614523565b612798565b610526612817565b61037d6106a6366004614792565b612877565b6103886106b9366004614410565b60076020526000908152604090205481565b600c5461034d906001600160a01b031681565b6103886106ec3660046146cf565b600e6020526000908152604090205481565b61038861070c366004614410565b60136020526000908152604090205481565b60105461034d906001600160a01b031681565b610526612ac6565b6103886107473660046146cf565b612b26565b61046c61075a366004614410565b612bd7565b61046c61076d366004614410565b60096020526000908152604090205460ff1681565b61046c610790366004614410565b612c2e565b73fffffffffffffffffffffffffffffffffffffffe33146107fd5760405162461bcd60e51b815260206004820152600b60248201527f4f6e6c792053797374656d00000000000000000000000000000000000000000060448201526064015b60405180910390fd5b61085b8282808060200260200160405190810160405280939291908181526020018383602002808284376000920191909152507f696e6163746976650000000000000000000000000000000000000000000000009250612c92915050565b5050565b6010546001600160a01b031633146108b95760405162461bcd60e51b815260206004820152601560248201527f4f6e6c79205374616b696e6720436f6e7472616374000000000000000000000060448201526064016107f4565b61085b8282612cfa565b60006108ce82612c2e565b6108da57506000919050565b60115460408051637be02c2b60e01b8152815160009384936001600160a01b0390911692637be02c2b92600480830193928290030181865afa158015610924573d6000803e3d6000fd5b505050506040513d601f19601f820116820180604052508101906109489190614840565b60015491935091506fffffffffffffffffffffffffffffffff831610156109fd576011546040516399de1a4360e01b81526001600160a01b03868116600483015260009216906399de1a4390602401600060405180830381865afa1580156109b4573d6000803e3d6000fd5b505050506040513d6000823e601f3d908101601f191682016040526109dc91908101906148ba565b905080516000036109f257506001949350505050565b506002949350505050565b6001546fffffffffffffffffffffffffffffffff82161015610aa257601154604051631baeec3f60e31b81526001600160a01b0386811660048301529091169063dd7761f890602401602060405180830381865afa158015610a63573d6000803e3d6000fd5b505050506040513d601f19601f82011682018060405250810190610a87919061494e565b600003610a98575060039392505050565b5060049392505050565b5060059392505050565b610ab533612bd7565b610b275760405162461bcd60e51b815260206004820152602560248201527f416e6e6f756e63696e6720617661696c6162696c697479206e6f7420706f737360448201527f69626c652e00000000000000000000000000000000000000000000000000000060648201526084016107f4565b438210610b9c5760405162461bcd60e51b815260206004820152602a60248201527f5f626c6f636b4e756d62657220617267756d656e74206d75737420626520696e60448201527f2074686520706173742e0000000000000000000000000000000000000000000060648201526084016107f4565b43610ba883601061497d565b11610c415760405162461bcd60e51b815260206004820152604560248201527f5f626c6f636b4e756d62657220617267756d656e74206d75737420626520696e60448201527f2074686520706173742077697468696e20746865206c6173742032353520626c60648201527f6f636b732e000000000000000000000000000000000000000000000000000000608482015260a4016107f4565b80824014610cb75760405162461bcd60e51b815260206004820152603360248201527f70726f766964656420626c6f636b68617368206d757374206d6174636820626c60448201527f6f636b636861696e7320626c6f636b686173680000000000000000000000000060648201526084016107f4565b6000306001600160a01b0316636c9230db6040518163ffffffff1660e01b8152600401602060405180830381865afa158015610cf7573d6000803e3d6000fd5b505050506040513d601f19601f82011682018060405250810190610d1b919061494e565b33600081815260146020908152604091829020849055815192835282018390529192507f705d65dbee06de60e6465d68371ce849d5a1ead53e53d01a413b2b01393aa022910160405180910390a1610d7233611e92565b610de757601054336000908152600f602052604090819020549051631ec56e5360e21b81526001600160a01b039182166004820152911690637b15b94c906024015b600060405180830381600087803b158015610dce57600080fd5b505af1158015610de2573d6000803e3d6000fd5b505050505b505050565b7fb53127684a568b3173ae13b9f8a6016e243e63b6e8ee1178d6a717850b5d6103546001600160a01b0316336001600160a01b03161480610e5f57507fb53127684a568b3173ae13b9f8a6016e243e63b6e8ee1178d6a717850b5d6103546001600160a01b0316326001600160a01b0316145b80610e9257507fb53127684a568b3173ae13b9f8a6016e243e63b6e8ee1178d6a717850b5d6103546001600160a01b0316155b80610e9b575043155b610f0d5760405162461bcd60e51b815260206004820152603e60248201527f56616c696461746f725365743a20496e697469616c697a6174696f6e206f6e6c60448201527f79206f6e2067656e6573697320626c6f636b206f722062792061646d696e000060648201526084016107f4565b6008546001600160a01b031615610f8c5760405162461bcd60e51b815260206004820152602c60248201527f56616c696461746f7253657420636f6e747261637420697320616c726561647960448201527f20696e697469616c697a6564000000000000000000000000000000000000000060648201526084016107f4565b6001600160a01b0388166110085760405162461bcd60e51b815260206004820152602960248201527f426c6f636b52657761726420636f6e747261637420616464726573732063616e60448201527f277420626520307830000000000000000000000000000000000000000000000060648201526084016107f4565b6001600160a01b03871661106a5760405162461bcd60e51b8152602060048201526024808201527f52616e646f6d20636f6e747261637420616464726573732063616e27742062656044820152630203078360e41b60648201526084016107f4565b6001600160a01b0386166110e65760405162461bcd60e51b815260206004820152602560248201527f5374616b696e6720636f6e747261637420616464726573732063616e2774206260448201527f652030783000000000000000000000000000000000000000000000000000000060648201526084016107f4565b6001600160a01b0385166111625760405162461bcd60e51b815260206004820152602b60248201527f4b657947656e486973746f727920636f6e74726163742061646472657373206360448201527f616e27742062652030783000000000000000000000000000000000000000000060648201526084016107f4565b826111d55760405162461bcd60e51b815260206004820152602560248201527f4d7573742070726f7669646520696e697469616c206d696e696e67206164647260448201527f657373657300000000000000000000000000000000000000000000000000000060648201526084016107f4565b82811461124a5760405162461bcd60e51b815260206004820152603860248201527f4d7573742070726f76696465207468652073616d6520616d6f756e74206f662060448201527f6d696e696e672f7374616b696e6720616464726573736573000000000000000060648201526084016107f4565b600880546001600160a01b03808b166001600160a01b031992831617909255600c80548a841690831617905560108054898416908316179055601180549288169290911691909117905560005b8381101561138a5760008585838181106112b3576112b3614990565b90506020020160208101906112c89190614410565b60008054600180820183557f290decd9548b62a8d60345a988386fc84ba6bc95484008f6362f93160ef3e56390910180546001600160a01b0319166001600160a01b0385169081179091558252600960209081526040808420805460ff1916909317909255601290528120805492935090611342836149a6565b91905055506113778185858581811061135d5761135d614990565b90506020020160208101906113729190614410565b612cfa565b5080611382816149a6565b915050611297565b5050601960155550505050505050565b6008546001600160a01b031633146113f45760405162461bcd60e51b815260206004820152601960248201527f4f6e6c7920426c6f636b52657761726420636f6e74726163740000000000000060448201526064016107f4565b60408051600081526020810190915261140c906130af565b565b6010546001600160a01b031633146114685760405162461bcd60e51b815260206004820152601560248201527f4f6e6c79205374616b696e6720436f6e7472616374000000000000000000000060448201526064016107f4565b6001600160a01b039081166000908152600b602090815260408083205490931682526014905290812055565b6008546001600160a01b031633146114ee5760405162461bcd60e51b815260206004820152601960248201527f4f6e6c7920426c6f636b52657761726420636f6e74726163740000000000000060448201526064016107f4565b60015415611506576114fe613862565b61150661394d565b601060009054906101000a90046001600160a01b03166001600160a01b031663ee435f556040518163ffffffff1660e01b8152600401600060405180830381600087803b15801561155657600080fd5b505af115801561156a573d6000803e3d6000fd5b50505050601160009054906101000a90046001600160a01b03166001600160a01b0316632c6f194d6040518163ffffffff1660e01b8152600401600060405180830381600087803b1580156115be57600080fd5b505af11580156115d2573d6000803e3d6000fd5b50505050600160006115e49190614378565b601060009054906101000a90046001600160a01b03166001600160a01b0316638247a239306001600160a01b0316636c9230db6040518163ffffffff1660e01b8152600401602060405180830381865afa158015611646573d6000803e3d6000fd5b505050506040513d601f19601f8201168201806040525081019061166a919061494e565b6040518263ffffffff1660e01b815260040161168891815260200190565b600060405180830381600087803b1580156116a257600080fd5b505af11580156116b6573d6000803e3d6000fd5b50505050565b6060600280548060200260200160405190810160405280929190818152602001828054801561171457602002820191906000526020600020905b81546001600160a01b031681526001909101906020018083116116f6575b5050505050905090565b6010546001600160a01b038281166000908152600f602052604090819020549051634e9b426d60e01b815290821660048201526060929190911690634e9b426d906024015b600060405180830381865afa158015611780573d6000803e3d6000fd5b505050506040513d6000823e601f3d908101601f191682016040526117a891908101906148ba565b92915050565b6001600160a01b038116600090815260096020526040812054819060ff1680156117de57506117dc83611e92565b155b9050601060009054906101000a90046001600160a01b03166001600160a01b031663794c0c686040518163ffffffff1660e01b8152600401602060405180830381865afa158015611833573d6000803e3d6000fd5b505050506040513d601f19601f82011682018060405250810190611857919061494e565b6000036118645792915050565b60105460408051634f9a8d8f60e01b815290516005926001600160a01b031691634f9a8d8f9160048083019260209291908290030181865afa1580156118ae573d6000803e3d6000fd5b505050506040513d601f19601f820116820180604052508101906118d2919061494e565b6118dc91906149d5565b601060009054906101000a90046001600160a01b03166001600160a01b0316639b03d7446040518163ffffffff1660e01b8152600401602060405180830381865afa15801561192f573d6000803e3d6000fd5b505050506040513d601f19601f82011682018060405250810190611953919061494e565b306001600160a01b0316636c9230db6040518163ffffffff1660e01b8152600401602060405180830381865afa158015611991573d6000803e3d6000fd5b505050506040513d601f19601f820116820180604052508101906119b5919061494e565b6119bf91906149e9565b116117a8576001600160a01b0383166000908152600a602052604090205460ff1681806119e95750805b949350505050565b601054604051634e9b426d60e01b81526001600160a01b0383811660048301526060921690634e9b426d90602401611763565b7fb53127684a568b3173ae13b9f8a6016e243e63b6e8ee1178d6a717850b5d6103546001600160a01b0316336001600160a01b031614611acc5760405162461bcd60e51b815260206004820152602b60248201527f6f6e6c792061646d696e20697320616c6c6f77656420746f2063616c6c20746860448201527f69732066756e6374696f6e00000000000000000000000000000000000000000060648201526084016107f4565b601555565b6001600160a01b03811660009081526009602052604081205460ff1615611afa57506001919050565b6117a882612c2e565b336000908152600f60205260409020546001600160a01b031680611b755760405162461bcd60e51b815260206004820152602360248201527f4e6f20506f6f6c20646566696e656420666f7220746869732076616c6964617460448201526237b91760e91b60648201526084016107f4565b601054604051637b0a0f9b60e01b81526001600160a01b0383811660048301526fffffffffffffffffffffffffffffffff19861660248301527fffff0000000000000000000000000000000000000000000000000000000000008516604483015290911690637b0a0f9b90606401610db4565b600080611bf4856117ae565b611c0357506000905080611e0a565b611c0c846117ae565b611c1b57506000905080611e0a565b6000546001811115611d2d5760105460408051630f29818d60e31b815290516000926001600160a01b03169163794c0c689160048083019260209291908290030181865afa158015611c71573d6000803e3d6000fd5b505050506040513d601f19601f82011682018060405250810190611c95919061494e565b6001600160a01b0388166000908152600d60209081526040808320848452825280832054600e9092528220549293509190828210611cef57611cd86001866149e9565b611ce284846149e9565b611cec91906149d5565b90505b611cfa8560326149fc565b83118015611d115750611d0e81600a6149fc565b83115b15611d285760006001965096505050505050611e0a565b505050505b4380851115611d4457600080935093505050611e0a565b60648082118015611d5d5750611d5a81836149e9565b86105b15611d715760008094509450505050611e0a565b6001600160a01b03871660009081526003602090815260408083208984529091528120805490915b81811015611dfb578a6001600160a01b0316838281548110611dbd57611dbd614990565b6000918252602090912001546001600160a01b031603611de95760008097509750505050505050611e0a565b80611df3816149a6565b915050611d99565b50600160009650965050505050505b935093915050565b6001600160a01b0381166000908152600660209081526040808320548151636c9230db60e01b8152915190923092636c9230db92600480830193928290030181865afa158015611e66573d6000803e3d6000fd5b505050506040513d601f19601f82011682018060405250810190611e8a919061494e565b111592915050565b6001600160a01b0381166000908152600560209081526040808320548151636c9230db60e01b8152915190923092636c9230db92600480830193928290030181865afa158015611e66573d6000803e3d6000fd5b6008546001600160a01b03163314611f405760405162461bcd60e51b815260206004820152601960248201527f4f6e6c7920426c6f636b52657761726420636f6e74726163740000000000000060448201526064016107f4565b601060009054906101000a90046001600160a01b03166001600160a01b03166322e3d9866040518163ffffffff1660e01b8152600401602060405180830381865afa158015611f93573d6000803e3d6000fd5b505050506040513d601f19601f82011682018060405250810190611fb7919061494e565b306001600160a01b0316636c9230db6040518163ffffffff1660e01b8152600401602060405180830381865afa158015611ff5573d6000803e3d6000fd5b505050506040513d601f19601f82011682018060405250810190612019919061494e565b10156120b35760405162461bcd60e51b815260206004820152604c60248201527f6661696c6564206b65792067656e65726174696f6e2063616e206f6e6c79206260448201527f652070726f63657373656420616674657220746865207374616b696e6720657060648201527f6f6368206973206f7665722e0000000000000000000000000000000000000000608482015260a4016107f4565b601060009054906101000a90046001600160a01b03166001600160a01b031663a5d54f656040518163ffffffff1660e01b8152600401600060405180830381865afa158015612106573d6000803e3d6000fd5b505050506040513d6000823e601f3d908101601f1916820160405261212e9190810190614a37565b511561140c576001541561140c576001805460009161214c916149e9565b67ffffffffffffffff81111561216457612164614873565b60405190808252806020026020018201604052801561218d578160200160208202803683370190505b50905060008080601160009054906101000a90046001600160a01b03166001600160a01b0316637be02c2b6040518163ffffffff1660e01b81526004016040805180830381865afa1580156121e6573d6000803e3d6000fd5b505050506040513d601f19601f8201168201806040525081019061220a9190614840565b9150915060005b6001548110156125275760006001828154811061223057612230614990565b60009182526020822001546001546001600160a01b0390911692506fffffffffffffffffffffffffffffffff861610156122e0576011546040516399de1a4360e01b81526001600160a01b03848116600483015260009216906399de1a4390602401600060405180830381865afa1580156122af573d6000803e3d6000fd5b505050506040513d6000823e601f3d908101601f191682016040526122d791908101906148ba565b5111905061236f565b6001546fffffffffffffffffffffffffffffffff8516101561236f57601154604051631baeec3f60e31b81526001600160a01b038481166004830152600092169063dd7761f890602401602060405180830381865afa158015612347573d6000803e3d6000fd5b505050506040513d601f19601f8201168201806040525081019061236b919061494e565b1190505b80156123e2576001838154811061238857612388614990565b9060005260206000200160009054906101000a90046001600160a01b03168787815181106123b8576123b8614990565b6001600160a01b0390921660209283029190910190910152856123da816149a6565b965050612512565b6010546001600160a01b038381166000908152600f602052604090819020549051631dbe84a360e11b81529082166004820152911690633b7d094690602401600060405180830381600087803b15801561243b57600080fd5b505af115801561244f573d6000803e3d6000fd5b5050506001600160a01b0383166000908152601460209081526040808320929092558151636c9230db60e01b815291517f7ec36d1734626f8b3686f8791130187e1633c843b1995003e788cd2b33d56903935085923092636c9230db926004808401938290030181865afa1580156124cb573d6000803e3d6000fd5b505050506040513d601f19601f820116820180604052508101906124ef919061494e565b604080516001600160a01b03909316835260208301919091520160405180910390a15b5050808061251f906149a6565b915050612211565b50601154604051632f8ba4bf60e11b81526001600160a01b0390911690635f17497e9061255990600190600401614acb565b600060405180830381600087803b15801561257357600080fd5b505af1158015612587573d6000803e3d6000fd5b50505050601160009054906101000a90046001600160a01b03166001600160a01b031663adddc0cf6040518163ffffffff1660e01b8152600401600060405180830381600087803b1580156125db57600080fd5b505af11580156125ef573d6000803e3d6000fd5b5050505060008367ffffffffffffffff81111561260e5761260e614873565b604051908082528060200260200182016040528015612637578160200160208202803683370190505b50905060005b8481101561269b5785818151811061265757612657614990565b602002602001015182828151811061267157612671614990565b6001600160a01b039092166020928302919091019091015280612693816149a6565b91505061263d565b50601060009054906101000a90046001600160a01b03166001600160a01b031663adddc0cf6040518163ffffffff1660e01b8152600401600060405180830381600087803b1580156126ec57600080fd5b505af1158015612700573d6000803e3d6000fd5b505050506000601060009054906101000a90046001600160a01b03166001600160a01b031663a5d54f656040518163ffffffff1660e01b8152600401600060405180830381865afa158015612759573d6000803e3d6000fd5b505050506040513d6000823e601f3d908101601f191682016040526127819190810190614a37565b51111561279157612791816130af565b5050505050565b6001600160a01b038216600090815260036020908152604080832084845282529182902080548351818402810184019094528084526060939283018282801561280a57602002820191906000526020600020905b81546001600160a01b031681526001909101906020018083116127ec575b5050505050905092915050565b60606000805480602002602001604051908101604052809291908181526020018280548015611714576020028201919060005260206000209081546001600160a01b031681526001909101906020018083116116f6575050505050905090565b6008546001600160a01b03166128cf5760405162461bcd60e51b815260206004820152601d60248201527f56616c696461746f725365743a206e6f7420696e697469616c697a656400000060448201526064016107f4565b336128d981613b07565b6000806128e7838888611be8565b915091508161296757801561295f5760408051600180825281830190925260009160208083019080368337019050509050838160008151811061292c5761292c614990565b60200260200101906001600160a01b031690816001600160a01b03168152505061295d81637370616d60e01b612c92565b505b5050506116b6565b6001600160a01b0387811660008181526003602090815260408083208b8452825280832080546001810182558185529383902090930180546001600160a01b0319169589169586179055805194855290840192909252908201889052907f729a19138e072a5a8d3a56d74ae0b5c84530f09aacd6e12b24c5b2fdc3f8a3d09060600160405180910390a160008054906003821115612a1f57612a0a8260026149fc565b8354612a179060036149fc565b119050612a32565b82548290612a2e9060026149fc565b1190505b8015612aba57604080516001808252818301909252600091602080830190803683370190505090508a81600081518110612a6e57612a6e614990565b60200260200101906001600160a01b031690816001600160a01b031681525050612ab8817f6d616c6963696f75730000000000000000000000000000000000000000000000612c92565b505b50505050505050505050565b60606001805480602002602001604051908101604052809291908181526020018280548015611714576020028201919060005260206000209081546001600160a01b031681526001909101906020018083116116f6575050505050905090565b6000808211612b9d5760405162461bcd60e51b815260206004820152602560248201527f5f706f737369626c6556616c696461746f72436f756e74206d757374206e6f7460448201527f206265203000000000000000000000000000000000000000000000000000000060648201526084016107f4565b6004821015612baa575090565b6003612bb76001846149e9565b612bc191906149d5565b612bcc9060036149fc565b6117a890600161497d565b6001600160a01b038181166000908152600f6020526040812054909116612c0057506000919050565b6001600160a01b03821660009081526014602052604090205415612c2657506000919050565b506001919050565b6000805b600154811015612c895760018181548110612c4f57612c4f614990565b6000918252602090912001546001600160a01b0390811690841603612c775750600192915050565b80612c81816149a6565b915050612c32565b50600092915050565b60005b8251811015610de757612cc1838281518110612cb357612cb3614990565b602002602001015183613bdf565b15612ce857612ce8838281518110612cdb57612cdb614990565b6020026020010151613e0b565b80612cf2816149a6565b915050612c95565b6001600160a01b038216612d505760405162461bcd60e51b815260206004820152601960248201527f4d696e696e6720616464726573732063616e277420626520300000000000000060448201526064016107f4565b6001600160a01b038116612da65760405162461bcd60e51b815260206004820152601a60248201527f5374616b696e6720616464726573732063616e2774206265203000000000000060448201526064016107f4565b806001600160a01b0316826001600160a01b031603612e2d5760405162461bcd60e51b815260206004820152603460248201527f4d696e696e6720616464726573732063616e6e6f74206265207468652073616d60448201527f6520617320746865207374616b696e67206f6e6500000000000000000000000060648201526084016107f4565b6001600160a01b038181166000908152600b60205260409020541615612ebb5760405162461bcd60e51b815260206004820152602d60248201527f5374616b696e67206164647265737320616c726561647920757365642061732060448201527f61207374616b696e67206f6e650000000000000000000000000000000000000060648201526084016107f4565b6001600160a01b038281166000908152600b60205260409020541615612f495760405162461bcd60e51b815260206004820152602c60248201527f4d696e696e67206164647265737320616c72656164792075736564206173206160448201527f207374616b696e67206f6e65000000000000000000000000000000000000000060648201526084016107f4565b6001600160a01b038181166000908152600f60205260409020541615612fd75760405162461bcd60e51b815260206004820152602c60248201527f5374616b696e67206164647265737320616c726561647920757365642061732060448201527f61206d696e696e67206f6e65000000000000000000000000000000000000000060648201526084016107f4565b6001600160a01b038281166000908152600f602052604090205416156130655760405162461bcd60e51b815260206004820152602b60248201527f4d696e696e67206164647265737320616c72656164792075736564206173206160448201527f206d696e696e67206f6e6500000000000000000000000000000000000000000060648201526084016107f4565b6001600160a01b039081166000818152600b602090815260408083208054959096166001600160a01b03199586168117909655948252600f90529290922080549091169091179055565b6010546040805163a5d54f6560e01b815290516000926001600160a01b03169163a5d54f6591600480830192869291908290030181865afa1580156130f8573d6000803e3d6000fd5b505050506040513d6000823e601f3d908101601f191682016040526131209190810190614a37565b90506000601554825110158061313557508151155b613148576131438251612b26565b61314c565b6015545b905080825111156135a55781516010546040805163957950a760e01b8152905160009283926001600160a01b039091169163957950a79160048082019286929091908290030181865afa1580156131a7573d6000803e3d6000fd5b505050506040513d6000823e601f3d908101601f191682016040526131cf9190810190614b0f565b9150915060008467ffffffffffffffff8111156131ee576131ee614873565b604051908082528060200260200182016040528015613217578160200160208202803683370190505b5090506000805b88518110156133b05760005b8681101561339d5789828151811061324457613244614990565b60200260200101516001600160a01b031689828151811061326757613267614990565b60200260200101516001600160a01b03160361338b5789828151811061328f5761328f614990565b60200260200101518484815181106132a9576132a9614990565b6001600160a01b0390921660209283029190910190910152826132cb816149a6565b9350508581815181106132e0576132e0614990565b6020026020010151856132f391906149e9565b9450866132ff81614ba8565b97505088878151811061331457613314614990565b602002602001015189828151811061332e5761332e614990565b60200260200101906001600160a01b031690816001600160a01b03168152505085878151811061336057613360614990565b602002602001015186828151811061337a5761337a614990565b60200260200101818152505061339d565b80613395816149a6565b91505061322a565b50806133a8816149a6565b91505061321e565b50600c5460408051634191031360e11b815290516000926001600160a01b03169163832206269160048083019260209291908290030181865afa1580156133fb573d6000803e3d6000fd5b505050506040513d601f19601f8201168201806040525081019061341f919061494e565b9050600085511180156134325750600084115b1561359a5760005b835181101561359057604080514284186020820152016040516020818303038152906040528051906020012060001c91506000613478878785613ef2565b905089818151811061348c5761348c614990565b60200260200101518583815181106134a6576134a6614990565b60200260200101906001600160a01b031690816001600160a01b0316815250508681815181106134d8576134d8614990565b6020026020010151866134eb91906149e9565b9550876134f781614ba8565b98505089888151811061350c5761350c614990565b60200260200101518a828151811061352657613526614990565b60200260200101906001600160a01b031690816001600160a01b03168152505086888151811061355857613558614990565b602002602001015187828151811061357257613572614990565b60209081029190910101525080613588816149a6565b91505061343a565b5061359a83613f5b565b5050505050506135ae565b6135ae82613f5b565b601154604051632f8ba4bf60e11b81526001600160a01b0390911690635f17497e906135df90600090600401614acb565b600060405180830381600087803b1580156135f957600080fd5b505af115801561360d573d6000803e3d6000fd5b50505050815160001461368357601060009054906101000a90046001600160a01b03166001600160a01b0316631555371c6040518163ffffffff1660e01b8152600401600060405180830381600087803b15801561366a57600080fd5b505af115801561367e573d6000803e3d6000fd5b505050505b601060009054906101000a90046001600160a01b03166001600160a01b03166322e3d9866040518163ffffffff1660e01b8152600401602060405180830381865afa1580156136d6573d6000803e3d6000fd5b505050506040513d601f19601f820116820180604052508101906136fa919061494e565b306001600160a01b0316636c9230db6040518163ffffffff1660e01b8152600401602060405180830381865afa158015613738573d6000803e3d6000fd5b505050506040513d601f19601f8201168201806040525081019061375c919061494e565b1115610de75760105460408051631171ecc360e11b815290516001600160a01b0390921691639e72c6359183916322e3d986916004808201926020929091908290030181865afa1580156137b4573d6000803e3d6000fd5b505050506040513d601f19601f820116820180604052508101906137d8919061494e565b306001600160a01b0316636c9230db6040518163ffffffff1660e01b8152600401602060405180830381865afa158015613816573d6000803e3d6000fd5b505050506040513d601f19601f8201168201806040525081019061383a919061494e565b61384491906149e9565b6040518263ffffffff1660e01b8152600401610db491815260200190565b60025460005b818110156138cf576000600a60006002848154811061388957613889614990565b6000918252602080832091909101546001600160a01b031683528201929092526040019020805460ff1916911515919091179055806138c7816149a6565b915050613868565b505060008054905b8181101561393d576001600a60008084815481106138f7576138f7614990565b6000918252602080832091909101546001600160a01b031683528201929092526040019020805460ff191691151591909117905580613935816149a6565b9150506138d7565b60008054610de791600291614396565b60606000808054806020026020016040519081016040528092919081815260200182805480156139a657602002820191906000526020600020905b81546001600160a01b03168152600190910190602001808311613988575b50505050509150600090505b8151811015613a17576000600960008484815181106139d3576139d3614990565b6020908102919091018101516001600160a01b03168252810191909152604001600020805460ff191691151591909117905580613a0f816149a6565b9150506139b2565b60018054613a2791600091614396565b506000805480602002602001604051908101604052809291908181526020018280548015613a7e57602002820191906000526020600020905b81546001600160a01b03168152600190910190602001808311613a60575b50505050509150600090505b815181101561085b576000828281518110613aa757613aa7614990565b6020908102919091018101516001600160a01b0381166000908152600983526040808220805460ff19166001179055601290935291822080549193509091613aee836149a6565b9190505550508080613aff906149a6565b915050613a8a565b613b10816117ae565b613b175750565b60105460408051630f29818d60e31b815290516000926001600160a01b03169163794c0c689160048083019260209291908290030181865afa158015613b61573d6000803e3d6000fd5b505050506040513d601f19601f82011682018060405250810190613b85919061494e565b6001600160a01b0383166000908152600d602090815260408083208484529091528120805492935090613bb7836149a6565b90915550506000818152600e60205260408120805491613bd6836149a6565b91905055505050565b600080613beb84611e92565b90506000613bf76141ed565b6001600160a01b0386166000908152600460205260408120805492935090613c1e836149a6565b90915550506001600160a01b0385166000908152600560209081526040808320849055600790915290208490558115613c5c576000925050506117a8565b6001600160a01b038581166000908152600660209081526040808320859055600f90915290819020546010549151631dbe84a360e11b815290831660048201819052929190911690633b7d094690602401600060405180830381600087803b158015613cc757600080fd5b505af1158015613cdb573d6000803e3d6000fd5b50506000549150506001819003613cf95760009450505050506117a8565b60005b81811015613dfd57876001600160a01b031660008281548110613d2157613d21614990565b6000918252602090912001546001600160a01b031603613deb576000613d486001846149e9565b81548110613d5857613d58614990565b600091825260208220015481546001600160a01b03909116919083908110613d8257613d82614990565b6000918252602082200180546001600160a01b0319166001600160a01b039390931692909217909155805480613dba57613dba614bbf565b600082815260209020810160001990810180546001600160a01b031916905501905550600194506117a89350505050565b80613df5816149a6565b915050613cfc565b506000979650505050505050565b60105460408051630f29818d60e31b815290516000926001600160a01b03169163794c0c689160048083019260209291908290030181865afa158015613e55573d6000803e3d6000fd5b505050506040513d601f19601f82011682018060405250810190613e79919061494e565b6000818152600e60209081526040808320546001600160a01b0387168452600d835281842085855290925282208054929055919250808210613ede576000838152600e602052604081208054839290613ed39084906149e9565b909155506116b69050565b50506000908152600e602052604081205550565b600080613eff8484614bd5565b90506000805b828211613f4557868181518110613f1e57613f1e614990565b602002602001015182613f31919061497d565b915080613f3d816149a6565b915050613f05565b613f506001826149e9565b979650505050505050565b613f6760016000614378565b80516000036141655760005b600054811015614106576000808281548110613f9157613f91614990565b6000918252602080832091909101546001600160a01b03908116808452600f90925260409283902054601054935163a711e6a160e01b8152908216600482018190529294509192169063a711e6a190602401602060405180830381865afa158015614000573d6000803e3d6000fd5b505050506040513d601f19601f820116820180604052508101906140249190614be9565b80156140a1575060105460405162e9ab0360e81b81526001600160a01b038381166004830181905260248301529091169063e9ab030090604401602060405180830381865afa15801561407b573d6000803e3d6000fd5b505050506040513d601f19601f8201168201806040525081019061409f919061494e565b155b156140f1576001805480820182556000919091527fb10e2d527612073b26eecdfd717e6a320cf44b4afac2b0732d9fcbe2b7fa0cf60180546001600160a01b0319166001600160a01b0384161790555b505080806140fe906149a6565b915050613f73565b506001546000036141625760016000808154811061412657614126614990565b60009182526020808320909101548354600181018555938352912090910180546001600160a01b0319166001600160a01b039092169190911790555b50565b60005b815181101561085b576001600b600084848151811061418957614189614990565b6020908102919091018101516001600160a01b039081168352828201939093526040909101600090812054845460018101865594825291902090920180546001600160a01b03191692909116919091179055806141e5816149a6565b915050614168565b600080306001600160a01b0316636c9230db6040518163ffffffff1660e01b8152600401602060405180830381865afa15801561422e573d6000803e3d6000fd5b505050506040513d601f19601f82011682018060405250810190614252919061494e565b9050600081601060009054906101000a90046001600160a01b03166001600160a01b03166322e3d9866040518163ffffffff1660e01b8152600401602060405180830381865afa1580156142aa573d6000803e3d6000fd5b505050506040513d601f19601f820116820180604052508101906142ce919061494e565b6142d891906149e9565b905080601060009054906101000a90046001600160a01b03166001600160a01b0316634f9a8d8f6040518163ffffffff1660e01b8152600401602060405180830381865afa15801561432e573d6000803e3d6000fd5b505050506040513d601f19601f82011682018060405250810190614352919061494e565b61435d90600c6149fc565b614367908461497d565b614371919061497d565b9250505090565b508054600082559060005260206000209081019061416291906143e6565b8280548282559060005260206000209081019282156143d65760005260206000209182015b828111156143d65782548255916001019190600101906143bb565b506143e29291506143e6565b5090565b5b808211156143e257600081556001016143e7565b6001600160a01b038116811461416257600080fd5b60006020828403121561442257600080fd5b813561442d816143fb565b9392505050565b60008083601f84011261444657600080fd5b50813567ffffffffffffffff81111561445e57600080fd5b6020830191508360208260051b850101111561447957600080fd5b9250929050565b6000806020838503121561449357600080fd5b823567ffffffffffffffff8111156144aa57600080fd5b6144b685828601614434565b90969095509350505050565b600080604083850312156144d557600080fd5b82356144e0816143fb565b915060208301356144f0816143fb565b809150509250929050565b602081016006831061451d57634e487b7160e01b600052602160045260246000fd5b91905290565b6000806040838503121561453657600080fd5b8235614541816143fb565b946020939093013593505050565b6000806040838503121561456257600080fd5b50508035926020909101359150565b60008060008060008060008060c0898b03121561458d57600080fd5b8835614598816143fb565b975060208901356145a8816143fb565b965060408901356145b8816143fb565b955060608901356145c8816143fb565b9450608089013567ffffffffffffffff808211156145e557600080fd5b6145f18c838d01614434565b909650945060a08b013591508082111561460a57600080fd5b506146178b828c01614434565b999c989b5096995094979396929594505050565b6020808252825182820181905260009190848201906040850190845b8181101561466c5783516001600160a01b031683529284019291840191600101614647565b50909695505050505050565b60005b8381101561469357818101518382015260200161467b565b50506000910152565b60208152600082518060208401526146bb816040850160208701614678565b601f01601f19169190910160400192915050565b6000602082840312156146e157600080fd5b5035919050565b600080604083850312156146fb57600080fd5b82356fffffffffffffffffffffffffffffffff198116811461471c57600080fd5b915060208301357fffff000000000000000000000000000000000000000000000000000000000000811681146144f057600080fd5b60008060006060848603121561476657600080fd5b8335614771816143fb565b92506020840135614781816143fb565b929592945050506040919091013590565b600080600080606085870312156147a857600080fd5b84356147b3816143fb565b935060208501359250604085013567ffffffffffffffff808211156147d757600080fd5b818701915087601f8301126147eb57600080fd5b8135818111156147fa57600080fd5b88602082850101111561480c57600080fd5b95989497505060200194505050565b80516fffffffffffffffffffffffffffffffff8116811461483b57600080fd5b919050565b6000806040838503121561485357600080fd5b61485c8361481b565b915061486a6020840161481b565b90509250929050565b634e487b7160e01b600052604160045260246000fd5b604051601f8201601f1916810167ffffffffffffffff811182821017156148b2576148b2614873565b604052919050565b6000602082840312156148cc57600080fd5b815167ffffffffffffffff808211156148e457600080fd5b818401915084601f8301126148f857600080fd5b81518181111561490a5761490a614873565b61491d601f8201601f1916602001614889565b915080825285602082850101111561493457600080fd5b614945816020840160208601614678565b50949350505050565b60006020828403121561496057600080fd5b5051919050565b634e487b7160e01b600052601160045260246000fd5b808201808211156117a8576117a8614967565b634e487b7160e01b600052603260045260246000fd5b6000600182016149b8576149b8614967565b5060010190565b634e487b7160e01b600052601260045260246000fd5b6000826149e4576149e46149bf565b500490565b818103818111156117a8576117a8614967565b80820281158282048414176117a8576117a8614967565b600067ffffffffffffffff821115614a2d57614a2d614873565b5060051b60200190565b60006020808385031215614a4a57600080fd5b825167ffffffffffffffff811115614a6157600080fd5b8301601f81018513614a7257600080fd5b8051614a85614a8082614a13565b614889565b81815260059190911b82018301908381019087831115614aa457600080fd5b928401925b82841015613f50578351614abc816143fb565b82529284019290840190614aa9565b6020808252825482820181905260008481528281209092916040850190845b8181101561466c5783546001600160a01b031683526001938401939285019201614aea565b60008060408385031215614b2257600080fd5b825167ffffffffffffffff811115614b3957600080fd5b8301601f81018513614b4a57600080fd5b80516020614b5a614a8083614a13565b82815260059290921b83018101918181019088841115614b7957600080fd5b938201935b83851015614b9757845182529382019390820190614b7e565b969091015195979596505050505050565b600081614bb757614bb7614967565b506000190190565b634e487b7160e01b600052603160045260246000fd5b600082614be457614be46149bf565b500690565b600060208284031215614bfb57600080fd5b8151801515811461442d57600080fdfea264697066735822122016924af5e5ac202467f3000dc371e269e04051e330eba5a81f2c9f4f482eeba064736f6c63430008110033",
  "linkReferences": {},
  "deployedLinkReferences": {}
}