{
  "contractName": "ValidatorSetHbbftMock",
  "abi": [
    {
      "anonymous": false,
      "inputs": [
        {
          "indexed": false,
          "internalType": "address",
          "name": "reportingValidator",
          "type": "address"
        },
        {
          "indexed": false,
          "internalType": "address",
          "name": "maliciousValidator",
          "type": "address"
        },
        {
          "indexed": false,
          "internalType": "uint256",
          "name": "blockNumber",
          "type": "uint256"
        }
      ],
      "name": "ReportedMalicious",
      "type": "event"
    },
    {
      "anonymous": false,
      "inputs": [
        {
          "indexed": false,
          "internalType": "address",
          "name": "validator",
          "type": "address"
        },
        {
          "indexed": false,
          "internalType": "uint256",
          "name": "timestamp",
          "type": "uint256"
        }
      ],
      "name": "ValidatorAvailable",
      "type": "event"
    },
    {
      "anonymous": false,
      "inputs": [
        {
          "indexed": false,
          "internalType": "address",
          "name": "validator",
          "type": "address"
        },
        {
          "indexed": false,
          "internalType": "uint256",
          "name": "timestamp",
          "type": "uint256"
        }
      ],
      "name": "ValidatorUnavailable",
      "type": "event"
    },
    {
      "constant": false,
      "inputs": [],
      "name": "announceAvailability",
      "outputs": [],
      "payable": false,
      "stateMutability": "nonpayable",
      "type": "function"
    },
    {
      "constant": true,
      "inputs": [
        {
          "internalType": "address",
          "name": "_miningAddress",
          "type": "address"
        }
      ],
      "name": "areDelegatorsBanned",
      "outputs": [
        {
          "internalType": "bool",
          "name": "",
          "type": "bool"
        }
      ],
      "payable": false,
      "stateMutability": "view",
      "type": "function"
    },
    {
      "constant": true,
      "inputs": [
        {
          "internalType": "address",
          "name": "",
          "type": "address"
        }
      ],
      "name": "banCounter",
      "outputs": [
        {
          "internalType": "uint256",
          "name": "",
          "type": "uint256"
        }
      ],
      "payable": false,
      "stateMutability": "view",
      "type": "function"
    },
    {
      "constant": true,
      "inputs": [
        {
          "internalType": "address",
          "name": "",
          "type": "address"
        }
      ],
      "name": "banReason",
      "outputs": [
        {
          "internalType": "bytes32",
          "name": "",
          "type": "bytes32"
        }
      ],
      "payable": false,
      "stateMutability": "view",
      "type": "function"
    },
    {
      "constant": true,
      "inputs": [
        {
          "internalType": "address",
          "name": "",
          "type": "address"
        }
      ],
      "name": "bannedDelegatorsUntil",
      "outputs": [
        {
          "internalType": "uint256",
          "name": "",
          "type": "uint256"
        }
      ],
      "payable": false,
      "stateMutability": "view",
      "type": "function"
    },
    {
      "constant": true,
      "inputs": [
        {
          "internalType": "address",
          "name": "",
          "type": "address"
        }
      ],
      "name": "bannedUntil",
      "outputs": [
        {
          "internalType": "uint256",
          "name": "",
          "type": "uint256"
        }
      ],
      "payable": false,
      "stateMutability": "view",
      "type": "function"
    },
    {
      "constant": true,
      "inputs": [],
      "name": "blockRewardContract",
      "outputs": [
        {
          "internalType": "address",
          "name": "",
          "type": "address"
        }
      ],
      "payable": false,
      "stateMutability": "view",
      "type": "function"
    },
    {
      "constant": true,
      "inputs": [
        {
          "internalType": "address",
          "name": "_miningAddress",
          "type": "address"
        }
      ],
      "name": "canCallAnnounceAvailability",
      "outputs": [
        {
          "internalType": "bool",
          "name": "",
          "type": "bool"
        }
      ],
      "payable": false,
      "stateMutability": "view",
      "type": "function"
    },
    {
      "constant": false,
      "inputs": [],
      "name": "finalizeChange",
      "outputs": [],
      "payable": false,
      "stateMutability": "nonpayable",
      "type": "function"
    },
    {
      "constant": true,
      "inputs": [
        {
          "internalType": "address",
          "name": "_miningAddress",
          "type": "address"
        }
      ],
      "name": "getPendingValidatorKeyGenerationMode",
      "outputs": [
        {
          "internalType": "enum IValidatorSetHbbft.KeyGenMode",
          "name": "",
          "type": "uint8"
        }
      ],
      "payable": false,
      "stateMutability": "view",
      "type": "function"
    },
    {
      "constant": true,
      "inputs": [],
      "name": "getPendingValidators",
      "outputs": [
        {
          "internalType": "address[]",
          "name": "",
          "type": "address[]"
        }
      ],
      "payable": false,
      "stateMutability": "view",
      "type": "function"
    },
    {
      "constant": true,
      "inputs": [],
      "name": "getPreviousValidators",
      "outputs": [
        {
          "internalType": "address[]",
          "name": "",
          "type": "address[]"
        }
      ],
      "payable": false,
      "stateMutability": "view",
      "type": "function"
    },
    {
      "constant": true,
      "inputs": [
        {
          "internalType": "address",
          "name": "_miningAddress",
          "type": "address"
        }
      ],
      "name": "getPublicKey",
      "outputs": [
        {
          "internalType": "bytes",
          "name": "",
          "type": "bytes"
        }
      ],
      "payable": false,
      "stateMutability": "view",
      "type": "function"
    },
    {
      "constant": true,
      "inputs": [
        {
          "internalType": "uint256",
          "name": "_possibleValidatorCount",
          "type": "uint256"
        }
      ],
      "name": "getValidatorCountSweetSpot",
      "outputs": [
        {
          "internalType": "uint256",
          "name": "",
          "type": "uint256"
        }
      ],
      "payable": false,
      "stateMutability": "view",
      "type": "function"
    },
    {
      "constant": true,
      "inputs": [],
      "name": "getValidators",
      "outputs": [
        {
          "internalType": "address[]",
          "name": "",
          "type": "address[]"
        }
      ],
      "payable": false,
      "stateMutability": "view",
      "type": "function"
    },
    {
      "constant": false,
      "inputs": [],
      "name": "handleFailedKeyGeneration",
      "outputs": [],
      "payable": false,
      "stateMutability": "nonpayable",
      "type": "function"
    },
    {
      "constant": false,
      "inputs": [
        {
          "internalType": "address",
          "name": "_blockRewardContract",
          "type": "address"
        },
        {
          "internalType": "address",
          "name": "_randomContract",
          "type": "address"
        },
        {
          "internalType": "address",
          "name": "_stakingContract",
          "type": "address"
        },
        {
          "internalType": "address",
          "name": "_keyGenHistoryContract",
          "type": "address"
        },
        {
          "internalType": "address[]",
          "name": "_initialMiningAddresses",
          "type": "address[]"
        },
        {
          "internalType": "address[]",
          "name": "_initialStakingAddresses",
          "type": "address[]"
        }
      ],
      "name": "initialize",
      "outputs": [],
      "payable": false,
      "stateMutability": "nonpayable",
      "type": "function"
    },
    {
      "constant": true,
      "inputs": [],
      "name": "isInitialized",
      "outputs": [
        {
          "internalType": "bool",
          "name": "",
          "type": "bool"
        }
      ],
      "payable": false,
      "stateMutability": "view",
      "type": "function"
    },
    {
      "constant": true,
      "inputs": [
        {
          "internalType": "address",
          "name": "_miningAddress",
          "type": "address"
        }
      ],
      "name": "isPendingValidator",
      "outputs": [
        {
          "internalType": "bool",
          "name": "",
          "type": "bool"
        }
      ],
      "payable": false,
      "stateMutability": "view",
      "type": "function"
    },
    {
      "constant": true,
      "inputs": [
        {
          "internalType": "address",
          "name": "_miningAddress",
          "type": "address"
        }
      ],
      "name": "isReportValidatorValid",
      "outputs": [
        {
          "internalType": "bool",
          "name": "",
          "type": "bool"
        }
      ],
      "payable": false,
      "stateMutability": "view",
      "type": "function"
    },
    {
      "constant": true,
      "inputs": [
        {
          "internalType": "address",
          "name": "",
          "type": "address"
        }
      ],
      "name": "isValidator",
      "outputs": [
        {
          "internalType": "bool",
          "name": "",
          "type": "bool"
        }
      ],
      "payable": false,
      "stateMutability": "view",
      "type": "function"
    },
    {
      "constant": true,
      "inputs": [
        {
          "internalType": "address",
          "name": "_miningAddress",
          "type": "address"
        }
      ],
      "name": "isValidatorBanned",
      "outputs": [
        {
          "internalType": "bool",
          "name": "",
          "type": "bool"
        }
      ],
      "payable": false,
      "stateMutability": "view",
      "type": "function"
    },
    {
      "constant": true,
      "inputs": [
        {
          "internalType": "address",
          "name": "_miningAddress",
          "type": "address"
        }
      ],
      "name": "isValidatorOrPending",
      "outputs": [
        {
          "internalType": "bool",
          "name": "",
          "type": "bool"
        }
      ],
      "payable": false,
      "stateMutability": "view",
      "type": "function"
    },
    {
      "constant": true,
      "inputs": [
        {
          "internalType": "address",
          "name": "",
          "type": "address"
        }
      ],
      "name": "isValidatorPrevious",
      "outputs": [
        {
          "internalType": "bool",
          "name": "",
          "type": "bool"
        }
      ],
      "payable": false,
      "stateMutability": "view",
      "type": "function"
    },
    {
      "constant": true,
      "inputs": [],
      "name": "keyGenHistoryContract",
      "outputs": [
        {
          "internalType": "contract IKeyGenHistory",
          "name": "",
          "type": "address"
        }
      ],
      "payable": false,
      "stateMutability": "view",
      "type": "function"
    },
    {
      "constant": true,
      "inputs": [
        {
          "internalType": "address",
          "name": "_miningAddress",
          "type": "address"
        },
        {
          "internalType": "uint256",
          "name": "_blockNumber",
          "type": "uint256"
        }
      ],
      "name": "maliceReportedForBlock",
      "outputs": [
        {
          "internalType": "address[]",
          "name": "",
          "type": "address[]"
        }
      ],
      "payable": false,
      "stateMutability": "view",
      "type": "function"
    },
    {
      "constant": true,
      "inputs": [],
      "name": "maxValidators",
      "outputs": [
        {
          "internalType": "uint256",
          "name": "",
          "type": "uint256"
        }
      ],
      "payable": false,
      "stateMutability": "view",
      "type": "function"
    },
    {
      "constant": true,
      "inputs": [
        {
          "internalType": "address",
          "name": "",
          "type": "address"
        }
      ],
      "name": "miningByStakingAddress",
      "outputs": [
        {
          "internalType": "address",
          "name": "",
          "type": "address"
        }
      ],
      "payable": false,
      "stateMutability": "view",
      "type": "function"
    },
    {
      "constant": false,
      "inputs": [],
      "name": "newValidatorSet",
      "outputs": [],
      "payable": false,
      "stateMutability": "nonpayable",
      "type": "function"
    },
    {
      "constant": true,
      "inputs": [
        {
          "internalType": "address",
          "name": "_stakingAddress",
          "type": "address"
        }
      ],
      "name": "publicKeyByStakingAddress",
      "outputs": [
        {
          "internalType": "bytes",
          "name": "",
          "type": "bytes"
        }
      ],
      "payable": false,
      "stateMutability": "view",
      "type": "function"
    },
    {
      "constant": true,
      "inputs": [],
      "name": "randomContract",
      "outputs": [
        {
          "internalType": "address",
          "name": "",
          "type": "address"
        }
      ],
      "payable": false,
      "stateMutability": "view",
      "type": "function"
    },
    {
      "constant": false,
      "inputs": [
        {
          "internalType": "address[]",
          "name": "_miningAddresses",
          "type": "address[]"
        }
      ],
      "name": "removeMaliciousValidators",
      "outputs": [],
      "payable": false,
      "stateMutability": "nonpayable",
      "type": "function"
    },
    {
      "constant": false,
      "inputs": [
        {
          "internalType": "address",
          "name": "_maliciousMiningAddress",
          "type": "address"
        },
        {
          "internalType": "uint256",
          "name": "_blockNumber",
          "type": "uint256"
        },
        {
          "internalType": "bytes",
          "name": "",
          "type": "bytes"
        }
      ],
      "name": "reportMalicious",
      "outputs": [],
      "payable": false,
      "stateMutability": "nonpayable",
      "type": "function"
    },
    {
      "constant": true,
      "inputs": [
        {
          "internalType": "address",
          "name": "_reportingMiningAddress",
          "type": "address"
        },
        {
          "internalType": "address",
          "name": "_maliciousMiningAddress",
          "type": "address"
        },
        {
          "internalType": "uint256",
          "name": "_blockNumber",
          "type": "uint256"
        }
      ],
      "name": "reportMaliciousCallable",
      "outputs": [
        {
          "internalType": "bool",
          "name": "callable",
          "type": "bool"
        },
        {
          "internalType": "bool",
          "name": "removeReportingValidator",
          "type": "bool"
        }
      ],
      "payable": false,
      "stateMutability": "view",
      "type": "function"
    },
    {
      "constant": true,
      "inputs": [
        {
          "internalType": "address",
          "name": "",
          "type": "address"
        },
        {
          "internalType": "uint256",
          "name": "",
          "type": "uint256"
        }
      ],
      "name": "reportingCounter",
      "outputs": [
        {
          "internalType": "uint256",
          "name": "",
          "type": "uint256"
        }
      ],
      "payable": false,
      "stateMutability": "view",
      "type": "function"
    },
    {
      "constant": true,
      "inputs": [
        {
          "internalType": "uint256",
          "name": "",
          "type": "uint256"
        }
      ],
      "name": "reportingCounterTotal",
      "outputs": [
        {
          "internalType": "uint256",
          "name": "",
          "type": "uint256"
        }
      ],
      "payable": false,
      "stateMutability": "view",
      "type": "function"
    },
    {
      "constant": false,
      "inputs": [
        {
          "internalType": "uint256",
          "name": "_maxValidators",
          "type": "uint256"
        }
      ],
      "name": "setMaxValidators",
      "outputs": [],
      "payable": false,
      "stateMutability": "nonpayable",
      "type": "function"
    },
    {
      "constant": false,
      "inputs": [
        {
          "internalType": "address",
          "name": "_miningAddress",
          "type": "address"
        },
        {
          "internalType": "address",
          "name": "_stakingAddress",
          "type": "address"
        }
      ],
      "name": "setStakingAddress",
      "outputs": [],
      "payable": false,
      "stateMutability": "nonpayable",
      "type": "function"
    },
    {
      "constant": true,
      "inputs": [
        {
          "internalType": "address",
          "name": "",
          "type": "address"
        }
      ],
      "name": "stakingByMiningAddress",
      "outputs": [
        {
          "internalType": "address",
          "name": "",
          "type": "address"
        }
      ],
      "payable": false,
      "stateMutability": "view",
      "type": "function"
    },
    {
      "constant": true,
      "inputs": [],
      "name": "stakingContract",
      "outputs": [
        {
          "internalType": "contract IStakingHbbft",
          "name": "",
          "type": "address"
        }
      ],
      "payable": false,
      "stateMutability": "view",
      "type": "function"
    },
    {
      "constant": true,
      "inputs": [
        {
          "internalType": "address",
          "name": "",
          "type": "address"
        }
      ],
      "name": "validatorAvailableSince",
      "outputs": [
        {
          "internalType": "uint256",
          "name": "",
          "type": "uint256"
        }
      ],
      "payable": false,
      "stateMutability": "view",
      "type": "function"
    },
    {
      "constant": true,
      "inputs": [
        {
          "internalType": "address",
          "name": "",
          "type": "address"
        }
      ],
      "name": "validatorCounter",
      "outputs": [
        {
          "internalType": "uint256",
          "name": "",
          "type": "uint256"
        }
      ],
      "payable": false,
      "stateMutability": "view",
      "type": "function"
    },
    {
      "constant": true,
      "inputs": [
        {
          "internalType": "address",
          "name": "",
          "type": "address"
        }
      ],
      "name": "validatorLastSuccess",
      "outputs": [
        {
          "internalType": "uint256",
          "name": "",
          "type": "uint256"
        }
      ],
      "payable": false,
      "stateMutability": "view",
      "type": "function"
    },
    {
      "constant": false,
      "inputs": [
        {
          "internalType": "address",
          "name": "_miningAddress",
          "type": "address"
        },
        {
          "internalType": "uint256",
          "name": "_bannedUntil",
          "type": "uint256"
        }
      ],
      "name": "setBannedUntil",
      "outputs": [],
      "payable": false,
      "stateMutability": "nonpayable",
      "type": "function"
    },
    {
      "constant": false,
      "inputs": [
        {
          "internalType": "address",
          "name": "_address",
          "type": "address"
        }
      ],
      "name": "setBlockRewardContract",
      "outputs": [],
      "payable": false,
      "stateMutability": "nonpayable",
      "type": "function"
    },
    {
      "constant": false,
      "inputs": [
        {
          "internalType": "address",
          "name": "_address",
          "type": "address"
        }
      ],
      "name": "setRandomContract",
      "outputs": [],
      "payable": false,
      "stateMutability": "nonpayable",
      "type": "function"
    },
    {
      "constant": false,
      "inputs": [
        {
          "internalType": "address",
          "name": "_address",
          "type": "address"
        }
      ],
      "name": "setStakingContract",
      "outputs": [],
      "payable": false,
      "stateMutability": "nonpayable",
      "type": "function"
    },
    {
      "constant": false,
      "inputs": [
        {
          "internalType": "address",
          "name": "_address",
          "type": "address"
        }
      ],
      "name": "setSystemAddress",
      "outputs": [],
      "payable": false,
      "stateMutability": "nonpayable",
      "type": "function"
    },
    {
      "constant": false,
      "inputs": [
        {
          "internalType": "uint256",
          "name": "_timeStamp",
          "type": "uint256"
        }
      ],
      "name": "setCurrentTimestamp",
      "outputs": [],
      "payable": false,
      "stateMutability": "nonpayable",
      "type": "function"
    },
    {
      "constant": true,
      "inputs": [
        {
          "internalType": "uint256[]",
          "name": "_likelihood",
          "type": "uint256[]"
        },
        {
          "internalType": "uint256",
          "name": "_likelihoodSum",
          "type": "uint256"
        },
        {
          "internalType": "uint256",
          "name": "_randomNumber",
          "type": "uint256"
        }
      ],
      "name": "getRandomIndex",
      "outputs": [
        {
          "internalType": "uint256",
          "name": "",
          "type": "uint256"
        }
      ],
      "payable": false,
      "stateMutability": "pure",
      "type": "function"
    },
    {
      "constant": true,
      "inputs": [],
      "name": "getCurrentTimestamp",
      "outputs": [
        {
          "internalType": "uint256",
          "name": "",
          "type": "uint256"
        }
      ],
      "payable": false,
      "stateMutability": "view",
      "type": "function"
    }
  ],
  "bytecode": "0x608060405234801561001057600080fd5b50614a4e806100206000396000f3fe608060405234801561001057600080fd5b50600436106102f05760003560e01c8063857cdbb81161019d578063b56b366b116100e9578063db2c870c116100a2578063efd049471161007c578063efd0494714610b87578063f51726f014610ba4578063facd743b14610bca578063fb64aac114610bf0576102f0565b8063db2c870c14610b51578063ee99205c14610b77578063eebc7a3914610b7f576102f0565b8063b56b366b14610a4f578063b7ab4db514610a7b578063c476dd4014610a83578063c9e9694d14610b06578063ccf69e9b14610b2c578063d2dd2f1614610b34576102f0565b8063a670eb5611610156578063a92252ae11610130578063a92252ae146109f3578063ade1900a14610a19578063b41832e414610a21578063b47aef1f14610a47576102f0565b8063a670eb5614610956578063a68b5b76146109a7578063a881c5fd146109cd576102f0565b8063857cdbb81461080657806387eed76a146108a15780639881933d146108c75780639bb2ea5a146108ed5780639dd373b91461090a578063a0d16cad14610930576102f0565b806327a3e16b1161025c5780635836d08a1161021557806366efcb78116101ef57806366efcb78146107815780636c9230db1461079e57806375286211146107a657806385602ad5146107ae576102f0565b80635836d08a1461072d5780635ccee1de1461075357806360e5c5201461075b576102f0565b806327a3e16b146105c9578063292525af146105ef5780633755243b146105f7578063392e53cd14610623578063515bbf2c1461063f57806356b54bae14610725576102f0565b80630a4c1072116102ae5780630a4c10721461043957806314e28d90146104675780631761edb1146104b15780631a7fa237146105575780631d0cd4c61461057d5780631ee4d0bc146105a3576102f0565b8062535175146102f5578063030360d21461033757806306210197146103655780630636bdac1461038b57806308ac5256146103f95780630933e3a714610413575b600080fd5b61031b6004803603602081101561030b57600080fd5b50356001600160a01b0316610c16565b604080516001600160a01b039092168252519081900360200190f35b6103636004803603604081101561034d57600080fd5b506001600160a01b038135169060200135610c31565b005b6103636004803603602081101561037b57600080fd5b50356001600160a01b0316610c5a565b610363600480360360208110156103a157600080fd5b810190602081018135600160201b8111156103bb57600080fd5b8201836020820111156103cd57600080fd5b803590602001918460208302840111600160201b831117156103ee57600080fd5b509092509050610c7c565b610401610cee565b60408051918252519081900360200190f35b6103636004803603602081101561042957600080fd5b50356001600160a01b0316610cf4565b6103636004803603604081101561044f57600080fd5b506001600160a01b0381358116916020013516610d16565b61048d6004803603602081101561047d57600080fd5b50356001600160a01b0316610d77565b6040518082600581111561049d57fe5b60ff16815260200191505060405180910390f35b610401600480360360608110156104c757600080fd5b810190602081018135600160201b8111156104e157600080fd5b8201836020820111156104f357600080fd5b803590602001918460208302840111600160201b8311171561051457600080fd5b9190808060200260200160405190810160405280939291908181526020018383602002808284376000920191909152509295505082359350505060200135611030565b6104016004803603602081101561056d57600080fd5b50356001600160a01b031661106e565b6104016004803603602081101561059357600080fd5b50356001600160a01b0316611080565b61031b600480360360208110156105b957600080fd5b50356001600160a01b0316611092565b610363600480360360208110156105df57600080fd5b50356001600160a01b03166110ad565b6103636110cf565b6104016004803603604081101561060d57600080fd5b506001600160a01b03813516906020013561124a565b61062b611267565b604080519115158252519081900360200190f35b610363600480360360c081101561065557600080fd5b6001600160a01b03823581169260208101358216926040820135831692606083013516919081019060a081016080820135600160201b81111561069757600080fd5b8201836020820111156106a957600080fd5b803590602001918460208302840111600160201b831117156106ca57600080fd5b919390929091602081019035600160201b8111156106e757600080fd5b8201836020820111156106f957600080fd5b803590602001918460208302840111600160201b8311171561071a57600080fd5b509092509050611279565b61031b611604565b6104016004803603602081101561074357600080fd5b50356001600160a01b0316611613565b610363611625565b6104016004803603602081101561077157600080fd5b50356001600160a01b031661169a565b6103636004803603602081101561079757600080fd5b50356116ac565b6104016116f1565b6103636116f7565b6107b66118c1565b60408051602080825283518183015283519192839290830191858101910280838360005b838110156107f25781810151838201526020016107da565b505050509050019250505060405180910390f35b61082c6004803603602081101561081c57600080fd5b50356001600160a01b0316611923565b6040805160208082528351818301528351919283929083019185019080838360005b8381101561086657818101518382015260200161084e565b50505050905090810190601f1680156108935780820380516001836020036101000a031916815260200191505b509250505060405180910390f35b61062b600480360360208110156108b757600080fd5b50356001600160a01b0316611a74565b61082c600480360360208110156108dd57600080fd5b50356001600160a01b0316611cbb565b6103636004803603602081101561090357600080fd5b5035611d0c565b6103636004803603602081101561092057600080fd5b50356001600160a01b0316611d68565b61062b6004803603602081101561094657600080fd5b50356001600160a01b0316611d8a565b61098c6004803603606081101561096c57600080fd5b506001600160a01b03813581169160208101359091169060400135611dbc565b60408051921515835290151560208301528051918290030190f35b61062b600480360360208110156109bd57600080fd5b50356001600160a01b0316611fb5565b61062b600480360360208110156109e357600080fd5b50356001600160a01b0316611fca565b61062b60048036036020811015610a0957600080fd5b50356001600160a01b031661204d565b61036361209c565b61040160048036036020811015610a3757600080fd5b50356001600160a01b0316612a6f565b61031b612a81565b6107b660048036036040811015610a6557600080fd5b506001600160a01b038135169060200135612a90565b6107b6612b0f565b61036360048036036060811015610a9957600080fd5b6001600160a01b0382351691602081013591810190606081016040820135600160201b811115610ac857600080fd5b820183602082011115610ada57600080fd5b803590602001918460018302840111600160201b83111715610afb57600080fd5b509092509050612b6f565b61040160048036036020811015610b1c57600080fd5b50356001600160a01b0316612db3565b61031b612dc5565b61040160048036036020811015610b4a57600080fd5b5035612dd4565b61040160048036036020811015610b6757600080fd5b50356001600160a01b0316612de6565b61031b612df8565b6107b6612e07565b61040160048036036020811015610b9d57600080fd5b5035612e67565b61062b60048036036020811015610bba57600080fd5b50356001600160a01b0316612ecc565b61062b60048036036020811015610be057600080fd5b50356001600160a01b0316612f23565b61062b60048036036020811015610c0657600080fd5b50356001600160a01b0316612f38565b600b602052600090815260409020546001600160a01b031681565b6001600160a01b0390911660009081526005602090815260408083208490556006909152902055565b601780546001600160a01b0319166001600160a01b0392909216919091179055565b610c84612f8d565b6001600160a01b0316336001600160a01b031614610ca157600080fd5b610cea82828080602002602001604051908101604052809392919081815260200183836020028082843760009201919091525067696e61637469766560c01b9250612f9c915050565b5050565b60155481565b600c80546001600160a01b0319166001600160a01b0392909216919091179055565b6010546001600160a01b03163314610d6d576040805162461bcd60e51b815260206004820152601560248201527413db9b1e4814dd185ada5b99c810dbdb9d1c9858dd605a1b604482015290519081900360640190fd5b610cea8282612ff3565b6000610d8282612f38565b610d8e5750600061102b565b60115460408051637be02c2b60e01b8152815160009384936001600160a01b0390911692637be02c2b9260048083019392829003018186803b158015610dd357600080fd5b505afa158015610de7573d6000803e3d6000fd5b505050506040513d6040811015610dfd57600080fd5b50805160209091015160015491935091506001600160801b0383161015610f7e57601154604080516399de1a4360e01b81526001600160a01b038781166004830152915160609392909216916399de1a4391602480820192600092909190829003018186803b158015610e6f57600080fd5b505afa158015610e83573d6000803e3d6000fd5b505050506040513d6000823e601f3d908101601f191682016040526020811015610eac57600080fd5b8101908080516040519392919084600160201b821115610ecb57600080fd5b908301906020820185811115610ee057600080fd5b8251600160201b811182820188101715610ef957600080fd5b82525081516020918201929091019080838360005b83811015610f26578181015183820152602001610f0e565b50505050905090810190601f168015610f535780820380516001836020036101000a031916815260200191505b506040525050509050805160001415610f72576001935050505061102b565b6002935050505061102b565b6001546001600160801b03821610156110245760115460408051631baeec3f60e31b81526001600160a01b0387811660048301529151919092169163dd7761f8916024808301926020929190829003018186803b158015610fde57600080fd5b505afa158015610ff2573d6000803e3d6000fd5b505050506040513d602081101561100857600080fd5b50516110195760039250505061102b565b60049250505061102b565b6005925050505b919050565b6000611066848484604051602001808281526020019150506040516020818303038152906040528051906020012060001c6132a0565b949350505050565b60066020526000908152604090205481565b60046020526000908152604090205481565b600f602052600090815260409020546001600160a01b031681565b600880546001600160a01b0319166001600160a01b0392909216919091179055565b6110d833612ecc565b6111135760405162461bcd60e51b81526004018080602001828103825260248152602001806147d76024913960400191505060405180910390fd5b6000306001600160a01b0316636c9230db6040518163ffffffff1660e01b815260040160206040518083038186803b15801561114e57600080fd5b505afa158015611162573d6000803e3d6000fd5b505050506040513d602081101561117857600080fd5b5051336000818152601460209081526040918290208490558151928352820183905280519293507f705d65dbee06de60e6465d68371ce849d5a1ead53e53d01a413b2b01393aa02292918290030190a16111d13361204d565b61124757601054336000908152600f6020526040808220548151631ec56e5360e21b81526001600160a01b0391821660048201529151931692637b15b94c9260248084019391929182900301818387803b15801561122e57600080fd5b505af1158015611242573d6000803e3d6000fd5b505050505b50565b600d60209081526000928352604080842090915290825290205481565b6008546001600160a01b031615155b90565b6112816132ed565b6001600160a01b0316336001600160a01b031614806112b857506112a36132ed565b6001600160a01b0316326001600160a01b0316145b806112d157506112c66132ed565b6001600160a01b0316155b806112da575043155b6113155760405162461bcd60e51b815260040180806020018281038252603e81526020018061492b603e913960400191505060405180910390fd5b61131d611267565b156113595760405162461bcd60e51b815260040180806020018281038252602c8152602001806147ab602c913960400191505060405180910390fd5b6001600160a01b03881661139e5760405162461bcd60e51b81526004018080602001828103825260298152602001806147826029913960400191505060405180910390fd5b6001600160a01b0387166113e35760405162461bcd60e51b815260040180806020018281038252602481526020018061475e6024913960400191505060405180910390fd5b6001600160a01b0386166114285760405162461bcd60e51b81526004018080602001828103825260258152602001806149066025913960400191505060405180910390fd5b6001600160a01b03851661146d5760405162461bcd60e51b815260040180806020018281038252602b81526020018061486c602b913960400191505060405180910390fd5b826114a95760405162461bcd60e51b81526004018080602001828103825260258152602001806148476025913960400191505060405180910390fd5b8281146114e75760405162461bcd60e51b81526004018080602001828103825260388152602001806148ce6038913960400191505060405180910390fd5b600880546001600160a01b03808b166001600160a01b031992831617909255600c80548a841690831617905560108054898416908316179055601180549288169290911691909117905560005b838110156115f457600085858381811061154a57fe5b60008054600180820183557f290decd9548b62a8d60345a988386fc84ba6bc95484008f6362f93160ef3e5639091018054602094850296909601356001600160a01b03166001600160a01b031990961686179055848252600983526040808320805460ff1916831790556012909352919020805490910190555090506115eb818585858181106115d657fe5b905060200201356001600160a01b0316612ff3565b50600101611534565b5050601960155550505050505050565b6008546001600160a01b031681565b60056020526000908152604090205481565b6008546001600160a01b03163314611680576040805162461bcd60e51b815260206004820152601960248201527813db9b1e48109b1bd8dad4995dd85c990818dbdb9d1c9858dd603a1b604482015290519081900360640190fd5b60408051600081526020810190915261169890613312565b565b60146020526000908152604090205481565b60165481116116ec5760405162461bcd60e51b81526004018080602001828103825260378152602001806148976037913960400191505060405180910390fd5b601655565b60165490565b6008546001600160a01b03163314611752576040805162461bcd60e51b815260206004820152601960248201527813db9b1e48109b1bd8dad4995dd85c990818dbdb9d1c9858dd603a1b604482015290519081900360640190fd5b6001541561176a57611762613bee565b61176a613cb9565b601060009054906101000a90046001600160a01b03166001600160a01b031663ee435f556040518163ffffffff1660e01b8152600401600060405180830381600087803b1580156117ba57600080fd5b505af11580156117ce573d6000803e3d6000fd5b50505050600160006117e0919061460e565b601060009054906101000a90046001600160a01b03166001600160a01b0316638247a239306001600160a01b0316636c9230db6040518163ffffffff1660e01b815260040160206040518083038186803b15801561183d57600080fd5b505afa158015611851573d6000803e3d6000fd5b505050506040513d602081101561186757600080fd5b5051604080516001600160e01b031960e085901b168152600481019290925251602480830192600092919082900301818387803b1580156118a757600080fd5b505af11580156118bb573d6000803e3d6000fd5b50505050565b6060600280548060200260200160405190810160405280929190818152602001828054801561191957602002820191906000526020600020905b81546001600160a01b031681526001909101906020018083116118fb575b5050505050905090565b6010546001600160a01b038281166000908152600f6020526040808220548151634e9b426d60e01b8152908416600482015290516060949390931692634e9b426d92602480840193919291829003018186803b15801561198257600080fd5b505afa158015611996573d6000803e3d6000fd5b505050506040513d6000823e601f3d908101601f1916820160405260208110156119bf57600080fd5b8101908080516040519392919084600160201b8211156119de57600080fd5b9083019060208201858111156119f357600080fd5b8251600160201b811182820188101715611a0c57600080fd5b82525081516020918201929091019080838360005b83811015611a39578181015183820152602001611a21565b50505050905090810190601f168015611a665780820380516001836020036101000a031916815260200191505b506040525050509050919050565b6001600160a01b038116600090815260096020526040812054819060ff168015611aa45750611aa28361204d565b155b9050601060009054906101000a90046001600160a01b03166001600160a01b031663794c0c686040518163ffffffff1660e01b815260040160206040518083038186803b158015611af457600080fd5b505afa158015611b08573d6000803e3d6000fd5b505050506040513d6020811015611b1e57600080fd5b5051611b2b57905061102b565b60105460408051634f9a8d8f60e01b815290516005926001600160a01b031691634f9a8d8f916004808301926020929190829003018186803b158015611b7057600080fd5b505afa158015611b84573d6000803e3d6000fd5b505050506040513d6020811015611b9a57600080fd5b505181611ba357fe5b04601060009054906101000a90046001600160a01b03166001600160a01b0316639b03d7446040518163ffffffff1660e01b815260040160206040518083038186803b158015611bf257600080fd5b505afa158015611c06573d6000803e3d6000fd5b505050506040513d6020811015611c1c57600080fd5b505160408051636c9230db60e01b815290513091636c9230db916004808301926020929190829003018186803b158015611c5557600080fd5b505afa158015611c69573d6000803e3d6000fd5b505050506040513d6020811015611c7f57600080fd5b50510311611cb5576001600160a01b0383166000908152600a602052604090205460ff168180611cac5750805b9250505061102b565b92915050565b60105460408051634e9b426d60e01b81526001600160a01b03848116600483015291516060939290921691634e9b426d91602480820192600092909190829003018186803b15801561198257600080fd5b611d146132ed565b6001600160a01b0316336001600160a01b031614611d635760405162461bcd60e51b815260040180806020018281038252602b8152602001806149ef602b913960400191505060405180910390fd5b601555565b601080546001600160a01b0319166001600160a01b0392909216919091179055565b6001600160a01b03811660009081526009602052604081205460ff1615611db35750600161102b565b611cb582612f38565b600080611dc885611a74565b611dd757506000905080611fad565b611de084611a74565b611def57506000905080611fad565b6000546001811115611ee65760105460408051630f29818d60e31b815290516000926001600160a01b03169163794c0c68916004808301926020929190829003018186803b158015611e4057600080fd5b505afa158015611e54573d6000803e3d6000fd5b505050506040513d6020811015611e6a57600080fd5b50516001600160a01b0388166000908152600d60209081526040808320848452825280832054600e9092528220549293509190828210611eb6576001850383830381611eb257fe5b0490505b8460320283118015611eca575080600a0283115b15611ee15760006001965096505050505050611fad565b505050505b4380851115611efd57600080935093505050611fad565b60648082118015611f0f575080820386105b15611f235760008094509450505050611fad565b6001600160a01b03871660009081526003602090815260408083208984529091528120805490915b81811015611f9e578a6001600160a01b0316838281548110611f6957fe5b6000918252602090912001546001600160a01b03161415611f965760008097509750505050505050611fad565b600101611f4b565b50600160009650965050505050505b935093915050565b600a6020526000908152604090205460ff1681565b6001600160a01b0381166000908152600660209081526040808320548151636c9230db60e01b8152915190923092636c9230db9260048083019392829003018186803b15801561201957600080fd5b505afa15801561202d573d6000803e3d6000fd5b505050506040513d602081101561204357600080fd5b5051111592915050565b6001600160a01b0381166000908152600560209081526040808320548151636c9230db60e01b8152915190923092636c9230db9260048083019392829003018186803b15801561201957600080fd5b6008546001600160a01b031633146120f7576040805162461bcd60e51b815260206004820152601960248201527813db9b1e48109b1bd8dad4995dd85c990818dbdb9d1c9858dd603a1b604482015290519081900360640190fd5b601060009054906101000a90046001600160a01b03166001600160a01b03166322e3d9866040518163ffffffff1660e01b815260040160206040518083038186803b15801561214557600080fd5b505afa158015612159573d6000803e3d6000fd5b505050506040513d602081101561216f57600080fd5b505160408051636c9230db60e01b815290513091636c9230db916004808301926020929190829003018186803b1580156121a857600080fd5b505afa1580156121bc573d6000803e3d6000fd5b505050506040513d60208110156121d257600080fd5b505110156122115760405162461bcd60e51b815260040180806020018281038252604c8152602001806147fb604c913960600191505060405180910390fd5b601060009054906101000a90046001600160a01b03166001600160a01b031663a5d54f656040518163ffffffff1660e01b815260040160006040518083038186803b15801561225f57600080fd5b505afa158015612273573d6000803e3d6000fd5b505050506040513d6000823e601f3d908101601f19168201604052602081101561229c57600080fd5b8101908080516040519392919084600160201b8211156122bb57600080fd5b9083019060208201858111156122d057600080fd5b82518660208202830111600160201b821117156122ec57600080fd5b82525081516020918201928201910280838360005b83811015612319578181015183820152602001612301565b50505050905001604052505050516000141561233457611698565b60015461234057611698565b60606001808054905003604051908082528060200260200182016040528015612373578160200160208202803883390190505b5060115460408051637be02c2b60e01b81528151939450600093849384936001600160a01b0390911692637be02c2b9260048083019392829003018186803b1580156123be57600080fd5b505afa1580156123d2573d6000803e3d6000fd5b505050506040513d60408110156123e857600080fd5b508051602090910151909250905060005b6001548110156127b45760006001828154811061241257fe5b60009182526020822001546001546001600160a01b0390911692506001600160801b038616101561258157601154604080516399de1a4360e01b81526001600160a01b038581166004830152915160009392909216916399de1a43916024808201928692909190829003018186803b15801561248d57600080fd5b505afa1580156124a1573d6000803e3d6000fd5b505050506040513d6000823e601f3d908101601f1916820160405260208110156124ca57600080fd5b8101908080516040519392919084600160201b8211156124e957600080fd5b9083019060208201858111156124fe57600080fd5b8251600160201b81118282018810171561251757600080fd5b82525081516020918201929091019080838360005b8381101561254457818101518382015260200161252c565b50505050905090810190601f1680156125715780820380516001836020036101000a031916815260200191505b5060405250505051119050612615565b6001546001600160801b03851610156126155760115460408051631baeec3f60e31b81526001600160a01b0385811660048301529151600093929092169163dd7761f891602480820192602092909190829003018186803b1580156125e557600080fd5b505afa1580156125f9573d6000803e3d6000fd5b505050506040513d602081101561260f57600080fd5b50511190505b8015612675576001838154811061262857fe5b9060005260206000200160009054906101000a90046001600160a01b031687878151811061265257fe5b6001600160a01b03909216602092830291909101909101526001909501946127aa565b6010546001600160a01b038381166000908152600f6020526040808220548151631dbe84a360e11b8152908416600482015290519290931692633b7d0946926024808301939282900301818387803b1580156126d057600080fd5b505af11580156126e4573d6000803e3d6000fd5b5050506001600160a01b0383166000908152601460209081526040808320929092558151636c9230db60e01b815291517f7ec36d1734626f8b3686f8791130187e1633c843b1995003e788cd2b33d56903935085923092636c9230db92600480840193829003018186803b15801561275b57600080fd5b505afa15801561276f573d6000803e3d6000fd5b505050506040513d602081101561278557600080fd5b5051604080516001600160a01b03909316835260208301919091528051918290030190a15b50506001016123f9565b50601154604051632f8ba4bf60e11b815260206004820190815260018054602484018190526001600160a01b0390941693635f17497e9391929182916044909101908490801561282d57602002820191906000526020600020905b81546001600160a01b0316815260019091019060200180831161280f575b505092505050600060405180830381600087803b15801561284d57600080fd5b505af1158015612861573d6000803e3d6000fd5b50505050606083604051908082528060200260200182016040528015612891578160200160208202803883390190505b50905060005b848110156128df578581815181106128ab57fe5b60200260200101518282815181106128bf57fe5b6001600160a01b0390921660209283029190910190910152600101612897565b50601060009054906101000a90046001600160a01b03166001600160a01b031663adddc0cf6040518163ffffffff1660e01b8152600401600060405180830381600087803b15801561293057600080fd5b505af1158015612944573d6000803e3d6000fd5b505050506000601060009054906101000a90046001600160a01b03166001600160a01b031663a5d54f656040518163ffffffff1660e01b815260040160006040518083038186803b15801561299857600080fd5b505afa1580156129ac573d6000803e3d6000fd5b505050506040513d6000823e601f3d908101601f1916820160405260208110156129d557600080fd5b8101908080516040519392919084600160201b8211156129f457600080fd5b908301906020820185811115612a0957600080fd5b82518660208202830111600160201b82111715612a2557600080fd5b82525081516020918201928201910280838360005b83811015612a52578181015183820152602001612a3a565b505050509050016040525050505111156112425761124281613312565b60126020526000908152604090205481565b6011546001600160a01b031681565b6001600160a01b0382166000908152600360209081526040808320848452825291829020805483518184028101840190945280845260609392830182828015612b0257602002820191906000526020600020905b81546001600160a01b03168152600190910190602001808311612ae4575b5050505050905092915050565b60606000805480602002602001604051908101604052809291908181526020018280548015611919576020028201919060005260206000209081546001600160a01b031681526001909101906020018083116118fb575050505050905090565b612b77611267565b612bc8576040805162461bcd60e51b815260206004820152601d60248201527f56616c696461746f725365743a206e6f7420696e697469616c697a6564000000604482015290519081900360640190fd5b33612bd281613e46565b600080612be0838888611dbc565b9150915081612c5a578015612c5257604080516001808252818301909252606091602080830190803883390190505090508381600081518110612c1f57fe5b60200260200101906001600160a01b031690816001600160a01b031681525050612c5081637370616d60e01b612f9c565b505b5050506118bb565b6001600160a01b0380881660008181526003602090815260408083208b8452825280832080546001810182558185529383902090930180549589166001600160a01b031990961686179055805194855290840192909252828201899052905190917f729a19138e072a5a8d3a56d74ae0b5c84530f09aacd6e12b24c5b2fdc3f8a3d0919081900360600190a160008054906003821115612d2057612d0582600263ffffffff613f0a16565b8354612d1890600363ffffffff613f0a16565b119050612d39565b82548290612d3590600263ffffffff613f0a16565b1190505b8015612da757604080516001808252818301909252606091602080830190803883390190505090508a81600081518110612d6f57fe5b60200260200101906001600160a01b031690816001600160a01b031681525050612da581686d616c6963696f757360b81b612f9c565b505b50505050505050505050565b60076020526000908152604090205481565b600c546001600160a01b031681565b600e6020526000908152604090205481565b60136020526000908152604090205481565b6010546001600160a01b031681565b60606001805480602002602001604051908101604052809291908181526020018280548015611919576020028201919060005260206000209081546001600160a01b031681526001909101906020018083116118fb575050505050905090565b6000808211612ea75760405162461bcd60e51b81526004018080602001828103825260258152602001806149696025913960400191505060405180910390fd5b6004821015612eb757508061102b565b60036000198301046003026001019050919050565b6001600160a01b038181166000908152600f6020526040812054909116612ef55750600061102b565b6001600160a01b03821660009081526014602052604090205415612f1b5750600061102b565b506001919050565b60096020526000908152604090205460ff1681565b6000805b600154811015612f845760018181548110612f5357fe5b6000918252602090912001546001600160a01b0384811691161415612f7c57600191505061102b565b600101612f3c565b50600092915050565b6017546001600160a01b031690565b60005b8251811015612fee57612fc5838281518110612fb757fe5b602002602001015183613f38565b15612fe657612fe6838281518110612fd957fe5b6020026020010151614103565b600101612f9f565b505050565b6001600160a01b03821661304e576040805162461bcd60e51b815260206004820152601960248201527f4d696e696e6720616464726573732063616e2774206265203000000000000000604482015290519081900360640190fd5b6001600160a01b0381166130a9576040805162461bcd60e51b815260206004820152601a60248201527f5374616b696e6720616464726573732063616e27742062652030000000000000604482015290519081900360640190fd5b806001600160a01b0316826001600160a01b031614156130fa5760405162461bcd60e51b81526004018080602001828103825260348152602001806149bb6034913960400191505060405180910390fd5b6001600160a01b038181166000908152600b602052604090205416156131515760405162461bcd60e51b815260040180806020018281038252602d81526020018061498e602d913960400191505060405180910390fd5b6001600160a01b038281166000908152600b602052604090205416156131a85760405162461bcd60e51b815260040180806020018281038252602c8152602001806146db602c913960400191505060405180910390fd5b6001600160a01b038181166000908152600f602052604090205416156131ff5760405162461bcd60e51b815260040180806020018281038252602c815260200180614707602c913960400191505060405180910390fd5b6001600160a01b038281166000908152600f602052604090205416156132565760405162461bcd60e51b815260040180806020018281038252602b815260200180614733602b913960400191505060405180910390fd5b6001600160a01b039081166000818152600b602090815260408083208054959096166001600160a01b03199586168117909655948252600f90529290922080549091169091179055565b6000808383816132ac57fe5b0690506000805b8282116132df578681815181106132c657fe5b60200260200101518201915080806001019150506132b3565b600019019695505050505050565b7fb53127684a568b3173ae13b9f8a6016e243e63b6e8ee1178d6a717850b5d61035490565b6010546040805163a5d54f6560e01b815290516060926001600160a01b03169163a5d54f65916004808301926000929190829003018186803b15801561335757600080fd5b505afa15801561336b573d6000803e3d6000fd5b505050506040513d6000823e601f3d908101601f19168201604052602081101561339457600080fd5b8101908080516040519392919084600160201b8211156133b357600080fd5b9083019060208201858111156133c857600080fd5b82518660208202830111600160201b821117156133e457600080fd5b82525081516020918201928201910280838360005b838110156134115781810151838201526020016133f9565b5050505090500160405250505090506000601554825110158061343357508151155b613446576134418251612e67565b61344a565b6015545b905080825111156138a85781516010546040805163957950a760e01b815290516060926000926001600160a01b039091169163957950a7916004808201928692909190829003018186803b1580156134a157600080fd5b505afa1580156134b5573d6000803e3d6000fd5b505050506040513d6000823e601f3d908101601f1916820160409081528110156134de57600080fd5b8101908080516040519392919084600160201b8211156134fd57600080fd5b90830190602082018581111561351257600080fd5b82518660208202830111600160201b8211171561352e57600080fd5b82525081516020918201928201910280838360005b8381101561355b578181015183820152602001613543565b5050505090500160405260200180519060200190929190505050915091506060846040519080825280602002602001820160405280156135a5578160200160208202803883390190505b5090506000805b88518110156136eb5760005b868110156136e2578982815181106135cc57fe5b60200260200101516001600160a01b03168982815181106135e957fe5b60200260200101516001600160a01b031614156136da5789828151811061360c57fe5b602002602001015184848151811061362057fe5b60200260200101906001600160a01b031690816001600160a01b031681525050828060010193505085818151811061365457fe5b60200260200101518503945086806001900397505088878151811061367557fe5b602002602001015189828151811061368957fe5b60200260200101906001600160a01b031690816001600160a01b0316815250508587815181106136b557fe5b60200260200101518682815181106136c957fe5b6020026020010181815250506136e2565b6001016135b8565b506001016135ac565b50600c5460408051634191031360e11b815290516000926001600160a01b0316916383220626916004808301926020929190829003018186803b15801561373157600080fd5b505afa158015613745573d6000803e3d6000fd5b505050506040513d602081101561375b57600080fd5b50518551909150158015906137705750600084115b1561389d5760005b835181101561389357428218604051602001808281526020019150506040516020818303038152906040528051906020012060001c915060006137bc8787856132a0565b90508981815181106137ca57fe5b60200260200101518583815181106137de57fe5b60200260200101906001600160a01b031690816001600160a01b03168152505086818151811061380a57fe5b60200260200101518603955087806001900398505089888151811061382b57fe5b60200260200101518a828151811061383f57fe5b60200260200101906001600160a01b031690816001600160a01b03168152505086888151811061386b57fe5b602002602001015187828151811061387f57fe5b602090810291909101015250600101613778565b5061389d836141de565b5050505050506138b1565b6138b1826141de565b601154604051632f8ba4bf60e11b815260206004820190815260008054602484018190526001600160a01b0390941693635f17497e9391929182916044909101908490801561392957602002820191906000526020600020905b81546001600160a01b0316815260019091019060200180831161390b575b505092505050600060405180830381600087803b15801561394957600080fd5b505af115801561395d573d6000803e3d6000fd5b5050505081516000146139d357601060009054906101000a90046001600160a01b03166001600160a01b0316631555371c6040518163ffffffff1660e01b8152600401600060405180830381600087803b1580156139ba57600080fd5b505af11580156139ce573d6000803e3d6000fd5b505050505b601060009054906101000a90046001600160a01b03166001600160a01b03166322e3d9866040518163ffffffff1660e01b815260040160206040518083038186803b158015613a2157600080fd5b505afa158015613a35573d6000803e3d6000fd5b505050506040513d6020811015613a4b57600080fd5b505160408051636c9230db60e01b815290513091636c9230db916004808301926020929190829003018186803b158015613a8457600080fd5b505afa158015613a98573d6000803e3d6000fd5b505050506040513d6020811015613aae57600080fd5b50511115612fee5760105460408051631171ecc360e11b815290516001600160a01b0390921691639e72c6359183916322e3d98691600480820192602092909190829003018186803b158015613b0357600080fd5b505afa158015613b17573d6000803e3d6000fd5b505050506040513d6020811015613b2d57600080fd5b505160408051636c9230db60e01b815290513091636c9230db916004808301926020929190829003018186803b158015613b6657600080fd5b505afa158015613b7a573d6000803e3d6000fd5b505050506040513d6020811015613b9057600080fd5b5051604080516001600160e01b031960e086901b16815292909103600483015251602480830192600092919082900301818387803b158015613bd157600080fd5b505af1158015613be5573d6000803e3d6000fd5b50505050505050565b60025460005b81811015613c4b576000600a600060028481548110613c0f57fe5b6000918252602080832091909101546001600160a01b031683528201929092526040019020805460ff1916911515919091179055600101613bf4565b505060008054905b81811015613ca9576001600a6000808481548110613c6d57fe5b6000918252602080832091909101546001600160a01b031683528201929092526040019020805460ff1916911515919091179055600101613c53565b60008054612fee9160029161462c565b6060600080805480602002602001604051908101604052809291908181526020018280548015613d1257602002820191906000526020600020905b81546001600160a01b03168152600190910190602001808311613cf4575b50505050509150600090505b8151811015613d7357600060096000848481518110613d3957fe5b6020908102919091018101516001600160a01b03168252810191909152604001600020805460ff1916911515919091179055600101613d1e565b60018054613d839160009161462c565b506000805480602002602001604051908101604052809291908181526020018280548015613dda57602002820191906000526020600020905b81546001600160a01b03168152600190910190602001808311613dbc575b50505050509150600090505b8151811015610cea576000828281518110613dfd57fe5b6020908102919091018101516001600160a01b03166000908152600982526040808220805460ff1916600190811790915560129093529020805482019055919091019050613de6565b613e4f81611a74565b613e5857611247565b60105460408051630f29818d60e31b815290516000926001600160a01b03169163794c0c68916004808301926020929190829003018186803b158015613e9d57600080fd5b505afa158015613eb1573d6000803e3d6000fd5b505050506040513d6020811015613ec757600080fd5b50516001600160a01b0383166000908152600d6020908152604080832093835292815282822080546001908101909155600e909152919020805490910190555050565b600082613f1957506000611cb5565b82820282848281613f2657fe5b0414613f3157600080fd5b9392505050565b600080613f448461204d565b90506000613f50614450565b6001600160a01b038616600090815260046020908152604080832080546001019055600582528083208490556007909152902085905590508115613f9957600092505050611cb5565b6001600160a01b038581166000908152600660209081526040808320859055600f909152808220546010548251631dbe84a360e11b815291851660048301819052925192941692633b7d09469260248084019382900301818387803b15801561400157600080fd5b505af1158015614015573d6000803e3d6000fd5b50506000549150506001811415614033576000945050505050611cb5565b60005b818110156140f557876001600160a01b03166000828154811061405557fe5b6000918252602090912001546001600160a01b031614156140ed576000600183038154811061408057fe5b600091825260208220015481546001600160a01b039091169190839081106140a457fe5b6000918252602082200180546001600160a01b0319166001600160a01b0393909316929092179091558054906140de90600019830161467c565b50600195505050505050611cb5565b600101614036565b506000979650505050505050565b60105460408051630f29818d60e31b815290516000926001600160a01b03169163794c0c68916004808301926020929190829003018186803b15801561414857600080fd5b505afa15801561415c573d6000803e3d6000fd5b505050506040513d602081101561417257600080fd5b50516000818152600e60209081526040808320546001600160a01b0387168452600d8352818420858552909252822080549290559192508082106141ca576000838152600e60205260409020805482900390556118bb565b50506000908152600e602052604081205550565b6141ea6001600061460e565b80516143db5760005b60005481101561438357600080828154811061420b57fe5b60009182526020808320909101546001600160a01b03908116808452600f835260409384902054601054855163a711e6a160e01b81529184166004830181905295519296509092169263a711e6a19260248082019391829003018186803b15801561427557600080fd5b505afa158015614289573d6000803e3d6000fd5b505050506040513d602081101561429f57600080fd5b5051801561432957506010546040805162e9ab0360e81b81526001600160a01b038481166004830181905260248301529151919092169163e9ab0300916044808301926020929190829003018186803b1580156142fb57600080fd5b505afa15801561430f573d6000803e3d6000fd5b505050506040513d602081101561432557600080fd5b5051155b15614379576001805480820182556000919091527fb10e2d527612073b26eecdfd717e6a320cf44b4afac2b0732d9fcbe2b7fa0cf60180546001600160a01b0319166001600160a01b0384161790555b50506001016141f3565b506001546143d65760016000808154811061439a57fe5b60009182526020808320909101548354600181018555938352912090910180546001600160a01b0319166001600160a01b039092169190911790555b611247565b60005b8151811015610cea576001600b60008484815181106143f957fe5b6020908102919091018101516001600160a01b0390811683528282019390935260409091016000908120548454600181810187559583529290912090910180546001600160a01b03191691909216179055016143de565b600080306001600160a01b0316636c9230db6040518163ffffffff1660e01b815260040160206040518083038186803b15801561448c57600080fd5b505afa1580156144a0573d6000803e3d6000fd5b505050506040513d60208110156144b657600080fd5b505160105460408051631171ecc360e11b815290519293506000926145419285926001600160a01b03909116916322e3d98691600480820192602092909190829003018186803b15801561450957600080fd5b505afa15801561451d573d6000803e3d6000fd5b505050506040513d602081101561453357600080fd5b50519063ffffffff6145e716565b90506145e0816145d4601060009054906101000a90046001600160a01b03166001600160a01b0316634f9a8d8f6040518163ffffffff1660e01b815260040160206040518083038186803b15801561459857600080fd5b505afa1580156145ac573d6000803e3d6000fd5b505050506040513d60208110156145c257600080fd5b50518590600c0263ffffffff6145fc16565b9063ffffffff6145fc16565b9250505090565b6000828211156145f657600080fd5b50900390565b600082820183811015613f3157600080fd5b5080546000825590600052602060002090810190611247919061469c565b82805482825590600052602060002090810192821561466c5760005260206000209182015b8281111561466c578254825591600101919060010190614651565b506146789291506146b6565b5090565b815481835581811115612fee57600083815260209020612fee9181019083015b61127691905b8082111561467857600081556001016146a2565b61127691905b808211156146785780546001600160a01b03191681556001016146bc56fe4d696e696e67206164647265737320616c726561647920757365642061732061207374616b696e67206f6e655374616b696e67206164647265737320616c726561647920757365642061732061206d696e696e67206f6e654d696e696e67206164647265737320616c726561647920757365642061732061206d696e696e67206f6e6552616e646f6d20636f6e747261637420616464726573732063616e277420626520307830426c6f636b52657761726420636f6e747261637420616464726573732063616e27742062652030783056616c696461746f7253657420636f6e747261637420697320616c726561647920696e697469616c697a6564416e6e6f756e63696e6720617661696c6162696c697479206e6f7420706f737369626c656661696c6564206b65792067656e65726174696f6e2063616e206f6e6c792062652070726f63657373656420616674657220746865207374616b696e672065706f6368206973206f7665722e4d7573742070726f7669646520696e697469616c206d696e696e67206164647265737365734b657947656e486973746f727920636f6e747261637420616464726573732063616e27742062652030783073657443757272656e7454696d657374616d703a2043616e27742074696d6574726176656c206261636b20746f207468652070617374214d7573742070726f76696465207468652073616d6520616d6f756e74206f66206d696e696e672f7374616b696e67206164647265737365735374616b696e6720636f6e747261637420616464726573732063616e27742062652030783056616c696461746f725365743a20496e697469616c697a6174696f6e206f6e6c79206f6e2067656e6573697320626c6f636b206f722062792061646d696e5f706f737369626c6556616c696461746f72436f756e74206d757374206e6f7420626520305374616b696e67206164647265737320616c726561647920757365642061732061207374616b696e67206f6e654d696e696e6720616464726573732063616e6e6f74206265207468652073616d6520617320746865207374616b696e67206f6e656f6e6c792061646d696e20697320616c6c6f77656420746f2063616c6c20746869732066756e6374696f6ea265627a7a723158200c73425cf0fd1efb0b23a15655b1f1f015455761441af1d6148db0908d34a52964736f6c63430005110032",
  "source": "pragma solidity ^0.5.16;\n\nimport '../../contracts/ValidatorSetHbbft.sol';\n\n\ncontract ValidatorSetHbbftMock is ValidatorSetHbbft {\n\n    uint256 internal _currentTimeStamp;\n    address internal _systemAddress;\n\n    // ============================================== Modifiers =======================================================\n\n    modifier onlySystem() {\n        require(msg.sender == _getSystemAddress());\n        _;\n    }\n\n    // =============================================== Setters ========================================================\n\n    function setBannedUntil(address _miningAddress, uint256 _bannedUntil) public {\n        bannedUntil[_miningAddress] = _bannedUntil;\n        bannedDelegatorsUntil[_miningAddress] = _bannedUntil;\n    }\n    \n    function setBlockRewardContract(address _address) public {\n        blockRewardContract = _address;\n    }\n\n    function setRandomContract(address _address) public {\n        randomContract = _address;\n    }\n\n    function setStakingContract(address _address) public {\n        stakingContract = IStakingHbbft(_address);\n    }\n\n    function setSystemAddress(address _address) public {\n        _systemAddress = _address;\n    }\n\n\n    function setCurrentTimestamp(uint256 _timeStamp)\n    public {\n\n        // it makes sense to only allow to travel forward in time.\n        // this assumption makes tests more consistent,\n        // avoiding the usual time travel paradoxons.\n        require(_timeStamp > _currentTimeStamp, \"setCurrentTimestamp: Can't timetravel back to the past!\");\n        \n        _currentTimeStamp = _timeStamp;\n    }\n\n\n    // =============================================== Getters ========================================================\n\n    function getRandomIndex(\n        uint256[] memory _likelihood,\n        uint256 _likelihoodSum,\n        uint256 _randomNumber\n    ) public pure returns(uint256) {\n        return _getRandomIndex(\n            _likelihood,\n            _likelihoodSum,\n            uint256(keccak256(abi.encode(_randomNumber)))\n        );\n    }\n    \n    /// @dev overrides the calculation of the current timestamp\n    /// to use the internal stored \"fake\" timestamp for testing purposes.\n    function getCurrentTimestamp() external view returns(uint256) {\n        //require(_currentTimeStamp != 0, 'Timestamp is never expected to be 0');\n        return _currentTimeStamp;\n    }\n\n    // =============================================== Private ========================================================\n\n    function _getSystemAddress() internal view returns(address) {\n        return _systemAddress;\n    }\n}\n",
  "sourcePath": "/home/sn/dmd/dmd-meta/hbbft-posdao-contracts/contracts/mockContracts/ValidatorSetHbbftMock.sol",
  "compiler": {
    "name": "solc",
    "version": "0.5.17+commit.d19bba13.Emscripten.clang"
  },
  "schemaVersion": "3.3.1",
  "updatedAt": "2021-09-02T22:15:28.044Z",
  "devdoc": {
    "methods": {
      "announceAvailability()": {
        "details": "called by validators when a validator comes online after getting marked as unavailable caused by a failed key generation."
      },
      "areDelegatorsBanned(address)": {
        "details": "Returns a boolean flag indicating whether delegators of the specified pool are currently banned. A validator pool can be banned when they misbehave (see the `_removeMaliciousValidator` function).",
        "params": {
          "_miningAddress": "The mining address of the pool."
        }
      },
      "canCallAnnounceAvailability(address)": {
        "details": "Returns if the specified _miningAddress is able to announce availability.",
        "params": {
          "_miningAddress": "mining address that is allowed/disallowed."
        }
      },
      "finalizeChange()": {
        "details": "Called by the system when a pending validator set is ready to be activated. Only valid when msg.sender == SUPER_USER (EIP96, 2**160 - 2). After this function is called, the `getValidators` getter returns the new validator set. If this function finalizes a new validator set formed by the `newValidatorSet` function, an old validator set is also stored and can be read by the `getPreviousValidators` getter."
      },
      "getCurrentTimestamp()": {
        "details": "overrides the calculation of the current timestamp to use the internal stored \"fake\" timestamp for testing purposes."
      },
      "getPendingValidators()": {
        "details": "Returns the current array of pending validators i.e. waiting to be activated in the new epoch The pending array is changed when a validator is removed as malicious or the validator set is updated by the `newValidatorSet` function."
      },
      "getPreviousValidators()": {
        "details": "Returns the previous validator set (validators' mining addresses array). The array is stored by the `finalizeChange` function when a new staking epoch's validator set is finalized."
      },
      "getPublicKey(address)": {
        "details": "Returns the public key for the given miningAddress",
        "params": {
          "_miningAddress": "mining address of the wanted public key."
        },
        "return": "public key of the _miningAddress"
      },
      "getValidatorCountSweetSpot(uint256)": {
        "details": "in Hbbft there are sweet spots for the choice of validator counts those are FLOOR((n - 1)/3) * 3 + 1 values: 1 - 4 - 7 - 10 - 13 - 16 - 19 - 22 - 25 more about: https://github.com/DMDcoin/hbbft-posdao-contracts/issues/84",
        "return": "a sweet spot n for a given number n"
      },
      "getValidators()": {
        "details": "Returns the current validator set (an array of mining addresses) which always matches the validator set kept in validator's node."
      },
      "handleFailedKeyGeneration()": {
        "details": "called by blockreward contract when a the reward when the block reward contract  came to the conclusion that the validators could not manage to create a new shared key together. this starts the process to find replacements for the failing candites, as well as marking them unavailable."
      },
      "initialize(address,address,address,address,address[],address[])": {
        "details": "Initializes the network parameters. Used by the constructor of the `InitializerHbbft` contract.",
        "params": {
          "_blockRewardContract": "The address of the `BlockRewardHbbft` contract.",
          "_initialMiningAddresses": "The array of initial validators' mining addresses.",
          "_initialStakingAddresses": "The array of initial validators' staking addresses.",
          "_keyGenHistoryContract": "The address of the `KeyGenHistory` contract.",
          "_randomContract": "The address of the `RandomHbbft` contract.",
          "_stakingContract": "The address of the `StakingHbbft` contract."
        }
      },
      "isInitialized()": {
        "details": "Returns a boolean flag indicating if the `initialize` function has been called."
      },
      "isPendingValidator(address)": {
        "details": "Returns a boolean flag indicating whether the specified mining address is a pending validator. Used by the `isValidatorOrPending` and `KeyGenHistory.writeAck/Part` functions.",
        "params": {
          "_miningAddress": "The mining address."
        }
      },
      "isReportValidatorValid(address)": {
        "details": "Returns a boolean flag indicating whether the specified validator (mining address) is able to call the `reportMalicious` function or whether the specified validator (mining address) can be reported as malicious. This function also allows a validator to call the `reportMalicious` function several blocks after ceasing to be a validator. This is possible if a validator did not have the opportunity to call the `reportMalicious` function prior to the engine calling the `finalizeChange` function.",
        "params": {
          "_miningAddress": "The validator's mining address."
        }
      },
      "isValidatorBanned(address)": {
        "details": "Returns a boolean flag indicating whether the specified mining address is currently banned. A validator can be banned when they misbehave (see the `_removeMaliciousValidator` internal function).",
        "params": {
          "_miningAddress": "The mining address."
        }
      },
      "isValidatorOrPending(address)": {
        "details": "Returns a boolean flag indicating whether the specified mining address is a validator or is in the `_pendingValidators`. Used by the `StakingHbbft.maxWithdrawAllowed` and `StakingHbbft.maxWithdrawOrderAllowed` getters.",
        "params": {
          "_miningAddress": "The mining address."
        }
      },
      "maliceReportedForBlock(address,uint256)": {
        "details": "Returns an array of the validators (their mining addresses) which reported that the specified malicious validator misbehaved at the specified block.",
        "params": {
          "_blockNumber": "The block number.",
          "_miningAddress": "The mining address of malicious validator."
        }
      },
      "newValidatorSet()": {
        "details": "Implements the logic which forms a new validator set. If the number of active pools is greater than maxValidators, the logic chooses the validators randomly using a random seed generated and stored by the `RandomHbbft` contract. Automatically called by the `BlockRewardHbbft.reward` function at the latest block of the staking epoch."
      },
      "publicKeyByStakingAddress(address)": {
        "details": "Returns the public key for the given stakingAddress",
        "params": {
          "_stakingAddress": "staking address of the wanted public key."
        },
        "return": "public key of the _stakingAddress"
      },
      "removeMaliciousValidators(address[])": {
        "details": "Removes malicious validators. Called by the the Hbbft engine when a validator has been inactive for a long period.",
        "params": {
          "_miningAddresses": "The mining addresses of the malicious validators."
        }
      },
      "reportMalicious(address,uint256,bytes)": {
        "details": "Reports that the malicious validator misbehaved at the specified block. Called by the node of each honest validator after the specified validator misbehaved. See https://openethereum.github.io/Validator-Set.html#reporting-contract Can only be called when the `reportMaliciousCallable` getter returns `true`.",
        "params": {
          "_blockNumber": "The block number where the misbehavior was observed.",
          "_maliciousMiningAddress": "The mining address of the malicious validator."
        }
      },
      "reportMaliciousCallable(address,address,uint256)": {
        "details": "Returns whether the `reportMalicious` function can be called by the specified validator with the given parameters. Used by the `reportMalicious` function and `TxPermission` contract. Also, returns a boolean flag indicating whether the reporting validator should be removed as malicious due to excessive reporting during the current staking epoch.",
        "params": {
          "_blockNumber": "The block number which is passed to the `reportMalicious` function.",
          "_maliciousMiningAddress": "The mining address of the malicious validator which is passed to the `reportMalicious` function.",
          "_reportingMiningAddress": "The mining address of the reporting validator which is calling the `reportMalicious` function."
        },
        "return": "`bool callable` - The boolean flag indicating whether the `reportMalicious` function can be called at the moment. `bool removeReportingValidator` - The boolean flag indicating whether the reporting validator should be removed as malicious due to excessive reporting. This flag is only used by the `reportMalicious` function."
      },
      "setStakingAddress(address,address)": {
        "details": "Binds a mining address to the specified staking address. Called by the `StakingHbbft.addPool` function when a user wants to become a candidate and creates a pool. See also the `miningByStakingAddress` and `stakingByMiningAddress` public mappings.",
        "params": {
          "_miningAddress": "The mining address of the newly created pool. Cannot be equal to the `_stakingAddress` and should never be used as a pool before.",
          "_stakingAddress": "The staking address of the newly created pool. Cannot be equal to the `_miningAddress` and should never be used as a pool before."
        }
      }
    }
  },
  "userdoc": {
    "methods": {}
  }
}